S0110000656D3236302D756172742E73333790
S3150800400050710020B16B0208296B02082D6B02085B
S31508004010A70A0A0100410008040B03AC00629300DA
S315080040200000000000000000000000000000000082
S315080040300000000000000000000000000000000072
S315080040400000000000000000FFFFFFFFFFFFFFFF6A
S31508004050FFFFFFFF007003080000000000000000DB
S31508004060FFFFFFFFFFFFFFFFFF000000000000004B
S315080040700000000000000000000000000000000032
S31508004080F07F002000000000EE7F0020EE7F002079
S3150800409050710020EC750208206F0208F0670020B6
S311080040A0B40F0020000004080080002077
S3150800410050710020B16B0208296B02082D6B02085A
S31508004110356B0208316B0208396B0208B06B02086E
S31508004120B06B0208B06B0208B06B0208B06B0208ED
S315080041303D6B0208B06B0208B06B020847EA01083B
S31508004140F36A0208B06B0208F3050208B06B0208AE
S31508004150FB040208F1180208B06B0208B06B0208EB
S31508004160850F02087DD1000805FD0008C96302080D
S31508004170B06B0208D36902081B6A0208E5CB00087F
S3150800418083110208B06B0208B06B0208B06B020814
S3150800419010B58C0801EB5474E408A1EBC40103685C
S315080041A0012409E010B54C0801EB9474A408A1EBAE
S315080041B08401036889000F2400F05EF8016010BDD1
S315080041C038B500F0D9F8044600F0D6F8054600F0F0
S315080041D0D3F800F00102182C05F00F0528BF362089
S315080041E038D24FF4F050E040C00748BF382031D4E9
S315080041F0E00803D0022807D003D309E021464F4838
S3150800420004E021464E4801E021464E48FFF7C0FF2C
S31508004210A00805281DD8DFE800F003070B0F1317C1
S315080042202A462146484812E02A46214647480EE0D3
S315080042302A46214646480AE02A462146454806E0D7
S315080042402A462146444802E02A4621464348FFF7C3
S31508004250A9FF0020BDE8324000F0A7B84B0810B50A
S3150800426001EB93739B08A1EB8301890003880F2454
S3150800427000F002F8018010BD8C40A34302FA01F158
S31508004280194370478B0810B501EB5373DB08A1EB94
S31508004290C30103780124FFF7EFFF017010BD2DE974
S315080042A0F04100F069F8044600F066F8054600F0AB
S315080042B063F8064600F060F8074600F05DF805F07A
S315080042C00F0200F00108182C06F0010507F00F0789
S315080042D028BF362022D24FF4F050E040C00748BF2E
S315080042E038201BD4600804EB907086081C4800F040
S315080042F019F81C483A4600F015F8A00804EB507067
S31508004300C70819482A4621463844FFF7BBFF17480D
S31508004310424621463844FFF7B5FF0020BDE8F04184
S3150800432000F043B8214600EB460097E780B500F059
S315080043305FF80F4908400F49086001BD0CB00040FE
S315080043400CB200400CB4004000B0004004B000407D
S3150800435000B2004004B2004000B4004004B400407B
S31508004360B8710020C4710020B0710020B47100201B
S31508004370FFE1FF00D07100202A480168491C01604E
S3150800438011F8010D704738B50446264D08462968C8
S31508004390224600F026FA28682044286031BD214AC2
S315080043A0116808441060084670471F491F4B0A6881
S315080043B01B68D31ADC2BB8BF10700868401C08604D
S315080043C0704710B50446C0B2FFF7EFFF200A48E071
S315080043D010B5FFF7D1FF00F042F904EB002080B2D8
S315080043E010BD10B5044680B2FFF7EBFF200CB7E00E
S315080043F010B5FFF7EDFF00F05EF804EB004010BDC6
S3150800440038B5094C094A2368126805469A1AAA1843
S31508004410DD2A03DA0246184600F0E3F92068284444
S31508004420206031BD3078002034780020C473002025
S3150800443010B500F042F8FFF7CBFF2081FFF79CFF8D
S31508004440A072FFF799FFE072FFF796FF2073FFF758
S31508004450BFFFE081FFF790FF2074FFF7C9FF606197
S3150800446010BDBDE81040A0E710B500F024F8208084
S31508004470FFF7AEFF6080FFF77FFF2071FFF77CFF35
S315080044806071FFF7A5FFE080FFF7A2FF2081FFF725
S3150800449073FFA07210BD10B500F00AF8A078E0E727
S315080044A010B500F008F82080FFF766FFA07010BD71
S315080044B00446208885E704468AE7044621460820FC
S315080044C061E710B500F0CBF8A070FFF781FF2080F8
S315080044D0211D00F0C2F8FFF74FFF00B10120E07080
S315080044E0FFF74AFF2073FFF747FF607310BD10B54B
S315080044F00446214600F07FF82069BDE8104070E7C1
S3150800450010B50446214600F078F8FFF771FF2061E0
S3150800451010BD10B5FFF7CFFF208010BD207944E706
S3150800452010B50446FFF7CDFF04F1100000F01BF8A4
S3150800453004F11C0100F091F8FFF74AFF24F8240F54
S31508004540FFF746FF6080FFF717FF2071FFF714FF9C
S315080045506071FFF711FFA071FFF70EFFE07110BD44
S31508004560BDE810402DE710B50446FFF741FF20606F
S31508004570FFF73EFF6060FFF72BFF208110BD10B5E7
S3150800458000F010F800F08CF8E088FFF71AFF208991
S31508004590FFF717FF6089FFF714FFA089FFF711FFE0
S315080045A0A07B5EE7044620681BE710B50446FFF7C4
S315080045B01FFF2060FFF70CFFA080FFF709FFE080D0
S315080045C0FFF706FF2081FFF703FF6081FFF700FF73
S315080045D0A081FFF7D1FEA07310BD10B5FFF7E2FF6B
S315080045E0FFF79CFF611D00F006F804F11501BDE810
S315080045F01040102004E7102002E71020C3E610B58B
S315080046000446207AFFF7D1FE207A010006D12068F9
S31508004610FFF7E7FE2068FFF7E4FE04E0022802D170
S31508004620214600F002F8607A1BE70820E8E610B594
S3150800463000F015F80100207206D1FFF7D9FE2060B8
S31508004640FFF7D6FE206004E0022802D1214600F0DA
S3150800465004F8FFF791FE607210BD082093E6044641
S315080046608AE638B5044602252078FFF79EFE2078AC
S31508004670401E012806D96089FFF7A3FEA11CFFF793
S31508004680D4FF09E000F00CF800F00CF800F008F888
S3150800469000F008F800F004F80C346D1EE4D131BDC2
S315080046A0A0888EE660888CE610B504462078FFF769
S315080046B07CFE6068FFF795FE04F10800FFF79FFF90
S315080046C0A08AFFF77EFEA07DFFF76FFEA069FFF7C1
S315080046D088FE04F11C01FFF78EFF04F12C00FFF79A
S315080046E0C0FF14F8440FFFF760FE6078B9E610B50E
S315080046F0FFF7DEFEFFF7D6FFA08831E710B5FFF714
S31508004700DAFE2080FFF764FE6080FFF761FEA08076
S3150800471010BD30B502F8010B002312E031F8234032
S3150800472002F8014B31F82340240A02F8014B01EB49
S3150800473083045B1C658802F8015B6488240A02F816
S31508004740014B8342EADB30BD0CB4F8B505460C468E
S3150800475006AE08E056F8040B290003D00078FFF7E8
S315080047601EFE3860641C2078010037D056F8047B9A
S31508004770622827D07028EDD0732818BF752804D072
S3150800478076280CD0772814D0ECE7280003D0FFF75A
S31508004790F3FD3870E6E73878FFF707FEE2E728000A
S315080047A003D0FFF715FE3880DCE73888FFF709FEE7
S315080047B0D8E7280002D0FFF71BFED2E73868FFF7D4
S315080047C010FECFE756F8040B00782900394602D0C8
S315080047D0FFF7D9FDC6E7FFF713FEC3E7F1BC5DF89F
S315080047E00CFB814233D210441144401E491E10E08E
S315080047F011F8013900F80139121F11F8013900F8CA
S31508004800013911F8013900F8013911F8013900F8B0
S31508004810013992B2042AEBDA93B2002B1EBF11F8C3
S31508004820013900F80139521EF6D1704711F8013BDB
S3150800483000F8013B121F11F8013B00F8013B11F883
S31508004840013B00F8013B11F8013B00F8013B92B22D
S31508004850042AEBDA93B2002B1EBF11F8013B00F8CD
S31508004860013B521EF6D17047130003D00A4619467B
S3150800487000F020B8704710B500E0521E93B223B17D
S3150800488000F012F8F9D0181B10BD002010BD10B5A5
S3150800489000E0521E93B22BB100F006F8F9D0181BAF
S315080048A040B210BD002010BD10F8013B11F8014BB5
S315080048B0A342704762F30F2262F31F42401810F0BA
S315080048C0030308D0C91A1FD3DB0748BF00F8012D18
S315080048D028BF20F8022D130030B4144615461039A7
S315080048E028BF20E93C00FAD8490728BF20E90C0070
S315080048F048BF40F8042D890028BF20F8022D48BF7C
S3150800490000F8012D30BC7047C91818BF00F8012DF2
S31508004910CB0728BF00F8012D7047000010B50446E4
S3150800492000F0BCFD204601F0AAFD204602F0BEFAC2
S315080049302046BDE8104002F073BC01F0E8BD10B592
S31508004940044600F0F8FD204601F013FE204602F06A
S31508004950D5FA204602F0C9FC2046BDE8104002F010
S3150800496061BC10B500E010B5044600F054FE2046C0
S3150800497001F026FF204602F0DDFA204602F01FFD70
S315080049802046BDE8104002F05CBF10B5044600F0B2
S315080049906FFE204601F042FF204602F0FAFA09E0CF
S315080049A010B5044600F089FE204601F079FF20463E
S315080049B002F00CFB204602F01AFD204602F059FFD1
S315080049C02046BDE8104002F0C4BC80B503F0B4F937
S315080049D0BDE8014002F0F2B910B5044602F0F0FD58
S315080049E02046BDE8104002F0C8BC0198704703F0A5
S315080049F012BA70472DE9F04701241028A4B00FF623
S31508004A000825DFF87C79DFA3DFA60FF28039E0A15D
S31508004A100FF280380FF2803A00F0398118281CBF4F
S31508004A201D2820286FD0212800F00C8122286AD062
S31508004A30282800F0AF80292800F0D2802A2862D0E2
S31508004A402B2800F051812D2800F06F812E285AD08E
S31508004A50302826D0332800F06D81342800F06D8187
S31508004A60352800F0F682362800F09881372800F0BD
S31508004A702382382800F0BD81392800F051823A286F
S31508004A8000F0E381422800F05F824A2800F0BC80EB
S31508004A904C2800F0E8825A2800F068825B2832D059
S31508004AA05D2800F0DB83632800F0AC82642800F000
S31508004AB0B6826A2803D06F2800F01D83712800F09B
S31508004AC0EA82732818BF772800F0D6837A281AD086
S31508004AD0822800F06582832800F09B83842818BF0B
S31508004AE0852810D086281CBF872888280BD08928B7
S31508004AF000F096838A281CBF8B288D2803D090281F
S31508004B0000F00D84952800F09783962800F0998286
S31508004B109A281CBFA128A428F5D0A62800F06883E7
S31508004B20A82800F00483A92800F01D83AF2800F008
S31508004B303783B128E7D0B22800F0AC83B92800F053
S31508004B40C583BA2800F0C783BC2800F0C783BD28F0
S31508004B5000F0CF83C12800F08180C22800F094803D
S31508004B60C32800F08E80CE2800F02783D42800F0D2
S31508004B70C783D52800F0C983D62800F0CB83E82858
S31508004B80C1D0ED2800F04183EE28BCD0FE2800F005
S31508004B905182E3E301A9684601F024FC00F01DFCFC
S31508004BA031460020FFF7D0FD00F007FCBDF80C00E9
S31508004BB0FFF707FC9DF80E00FFF7F7FB9DF80F00BF
S31508004BC0FFF7F3FB9DF81000FFF7EFFBBDF81200A7
S31508004BD0FFF7F7FB9DF81400FFF7E7FB069804E3D9
S31508004BE008208DF809000DF10A0103A801F020FC40
S31508004BF08DF8080003AB0DF10A00019002AA0DF129
S31508004C0009000090E2A142E200F0F4FB9DF80100E1
S31508004C1001A901F01EFC00F0E6FB00F0CEFB9DF8B2
S31508004C200C00FFF7C2FBBDF80E00FFF7CAFB9DF8A4
S31508004C301000FFF7BAFB9DF81100FFF7B6FB9DF8C9
S31508004C40120088E301AB0DF10102D2A100F0C2FB0C
S31508004C5001999DF8010001F0FEFB2CE30DF1060217
S31508004C6000F094FB9DF8060001AA02A901F069FB71
S31508004C708DF8050002AB01A800900DF10502C6A14A
S31508004C8005E201F060FB66E301F05FFB63E30DF10B
S31508004C90150004900DF11E030DF11600039006AAE7
S31508004CA00DF1170002900DF11A00019007A8009067
S31508004CB001200FF24C71FFF747FD9DF81500BDF86E
S31508004CC01A30BDF81C20BDF81E1002909DF816007B
S31508004CD001909DF8170000909DF8180003F02CF934
S31508004CE08DF8140005AAE9E2FFF746FB0546FFF72B
S31508004CF043FB8DF80000FFF73FFB8DF80100FFF737
S31508004D0067FBADF80200FFF737FB8DF804000DF1DD
S31508004D1005010820FFF737FBFFF72EFB8DF80D007E
S31508004D206946284602F08AFD15E3FFF725FB02F0DF
S31508004D3086FD10E303F029FDBDE20DF1120304AA76
S31508004D4096A100F047FB06A8FFF78EFB03A8019083
S31508004D5003AB05A800900DF10F02494600F01CFBB5
S31508004D600DF10D00029006AA05989DF80F30BDF8C2
S31508004D70121001909DF80C0000909DF8100001F0AB
S31508004D8028FA2FE07600000075750000757570002A
S31508004D906200000075700000750000000DF1120237
S31508004DA019460120FFF7D0FC06A8FFF75DFB03A80C
S31508004DB002900DF10F0305A8019004AA03A800F0BC
S31508004DC0E9FA0DF10D00029006A905989DF80F3035
S31508004DD09DF8102001909DF80C000090BDF8120077
S31508004DE001F000FA8DF80E000DF10D030DF10E021B
S31508004DF034E107A8FFF738FB04A8039005AB06A81B
S31508004E0002900DF1150204A801900DF1130000900F
S31508004E1001200FF2FC51FFF797FC0DF111000290EB
S31508004E2006989DF813309DF814209DF815100190EA
S31508004E309DF81000009007A801F0E0F98DF812001F
S31508004E400DF111030DF1120208E10AA8FFF70CFB98
S31508004E5006A805900DF11D0309A804900DF11E0280
S31508004E6006A803900DF11B00029007A8019008A858
S31508004E70009001200FF2A051FFF766FC0DF1190012
S31508004E8004900998BDF820309DF81D209DF81E1045
S31508004E9003909DF8180002909DF81B0001909DF85C
S31508004EA01C0000900AA801F0C4F98DF81A000DF14B
S31508004EB019030DF11A02D1E00DF1190000900DF158
S31508004EC01A0307AAB5A100F067FA09A8FFF7CCFAF2
S31508004ED005A802900DF1170308A8019006AA05A8CF
S31508004EE000F058FA0DF11500049009AB08989DF8E2
S31508004EF01920BDF81A1003909DF8140002909DF829
S31508004F00170001909DF818000090BDF81C0001F0EC
S31508004F10B5F98DF816000DF115030DF116029DE091
S31508004F200DF1060219460120FFF70EFC03A8FFF74C
S31508004F309BFA00F034FA029B9DF80420BDF806009F
S31508004F4003A901F0D0F972E10DF1050000900DF109
S31508004F50060302AADBA100F01FFA9DF805209DF8BA
S31508004F600610BDF8080003F047FD12E100F029FA23
S31508004F70D5A100F011FA039A9DF80810BDF80A00A9
S31508004F8003F0B4FE8DF809000DF1090296E100BFA1
S31508004F90756276007577000075767500757600007F
S31508004FA008208DF811008DF810000DF10E00029002
S31508004FB005A801900DF11100009008AB0FF26045AD
S31508004FC00DF10F0200F0E7F903A802900DF11200A7
S31508004FD0019006A800909DF80E30BDF814209DF8A3
S31508004FE00F0008A901F0B3F98DF80D0006AB03A868
S31508004FF002900DF10D020DF112000190294604A848
S31508005000009044E000F0F6F99DF8010001A901F0CE
S31508005010C3F900F0E8F901A8FFF73DFAA1E100F0AD
S31508005020E9F901A8FFF73CFA9DF8010001A901F08A
S31508005030C6F940E100F0DEF99DF8010004F0A4FD90
S3150800504039E100F0ACF902999DF8040001F0E6F8A0
S31508005050EDE0684605F0C6FA00F0BFF931460020D3
S31508005060FFF772FB7DE186208DF806000DF105023B
S3150800507000F08CF99DF8050002A901F0EFF98DF80A
S31508005080040002AB0DF10600009001AAB7A10020AA
S31508005090FFF75AFB65E16A4600F078F938786A281E
S315080050A09DF8000001A902D105F0A6FA01E005F075
S315080050B006FE8DF801000DF1010200F097F9BDF822
S315080050C00400FFF77EF99DF80600FFF76EF90DF16B
S315080050D007011020FFF794F90698FFF782F9079859
S315080050E0FFF77FF99DF82000FFF75FF90DF1210121
S315080050F000F064F935E109A8FFF702FA00F061F952
S31508005100494600F049F904A80090039B9DF8082039
S315080051109DF80A1009A801F09FFE8DF809000DF107
S31508005120090200F063F904A8FFF7E1F919E108207C
S315080051308DF80E008DF80D0007AB0DF10D000290ED
S3150800514004AA05A801908AA10DF10E00009000F0AE
S3150800515023F9BDF8100005AA07A905F095FF8DF8F3
S315080051600C0003AAAAE008208DF8050002AB0DF191
S31508005170050000900DF106027EA100F00DF904A9C4
S315080051801020FFF700F9BDF8060004AA02A905F0E9
S31508005190BBFF8DF8040001AA90E000BF7676750083
S315080051A000F005F900F015F903A91020FFF7EBF850
S315080051B003A901A801F06AFE7DE000F0F8F80220D4
S315080051C08DF8000000F005F903A901A801F066FEB4
S315080051D000F009F903A900F0F1F805A91020FFF776
S315080051E00FF90998FFF7FDF80A98FFF7FAF8B8E0FB
S315080051F000F0D5F802999DF8040002F015F88DF82C
S3150800520005000DF1050200F0F1F802F028F8FFF7A5
S31508005210CCF8FFF7B1F800B1012001F0CCFF9AE015
S3150800522000F0BDF802999DF8040001F0CDFF8DF855
S3150800523005000DF1050241E03A780FF2EC10002561
S3150800524000E06D1CEDB2415D9142FAD1FFF794F88A
S315080052500FF2EC1151F8251088477CE0FFF78CF81F
S315080052600546FFF7B5F80146387830280CBF454A99
S31508005270454A2846904774E069461020FFF783F8A8
S3150800528038787728684602D106F02CFA63E005F0EC
S3150800529032FF60E001A8FFF743F90DF101030DF1B4
S315080052A0020235A100F096F89DF901209DF802103A
S315080052B001A802F079F88DF800006A4600F096F821
S315080052C04FE000BF7675750076757000FFF754F8E5
S315080052D006F04BFF3FE006F053FF3CE004A96846A2
S315080052E006F01AFF6846FFF74AF904A8FFF775F9AA
S315080052F037E06846FFF759F9684606F015FF30E0CB
S31508005300FFF73AF806F027FC2BE0FFF735F806F02A
S31508005310A1FB26E0FFF75CF806F06AFF21E008200B
S315080053208DF8120006AB04A803900DF1110205A82A
S31508005330029012A104A801900DF11200009000F04D
S315080053402BF89DF8110000B10120059B9DF810204F
S3150800535006A901F02BFBFFF728F802E006F05CFF30
S315080053600446204624B0BDE8F087000075620000B8
S3150800537076626200766200007573000075627000DE
S31508005380B07F00205B7A00085D1D010851460120A8
S31508005390FFF7DAB9009029460120FFF7D5B901A829
S315080053A0009002AB01AA41460120FFF7CDB90820BB
S315080053B08DF801000DF10103704701A90820FFF7D8
S315080053C01FB802A8019002AB03A800900DF10A02CB
S315080053D0704701AA0120FFF7B7B98DF801006B469F
S315080053E00DF1010270478DF800006A46514600200B
S315080053F0FFF7AAB90DF1010251460120FFF7A4B93A
S315080054007576767675757500757575700000000089
S31508005410757575757000000075757675757570000B
S315080054207562767500000000181D207A2A84858624
S3150800543087888B8A8D959A2E5BB1A4A122E8EE0007
S31508005440090B0108C1B201084D3A0108F5550108D2
S31508005450817D0008A19D0108219E0108379E01084B
S315080054604B9E0108679E0108FF9E0108E99E0108F8
S315080054702D9F0108EDED0008DFA3000883A80108A9
S3150800548087A8010807AF0008C1E30108CFE30108B0
S31508005490B9900008999F0108A79F010838B50446E6
S315080054A02078002846D16070012020722070A078EC
S315080054B0032832D0072834D0112808D0152833D02D
S315080054C0302818D0312819D032281AD030E00720D1
S315080054D0DFF8945B207204F10900298807F05BFA6B
S315080054E0A878E072E8782073287960736879A073E1
S315080054F0A879E07331BD07F08BFA17E007F06AFB6D
S3150800550014E00420207207F0B2FA04F10901BDE89C
S3150800551038400246012007F042BADFF8500B0078FF
S3150800552004E007F009FD01E008F03AF9607231BDC0
S315080055300020207031BD38B504462078002869D18E
S3150800554001202070A078042814D007281FD00E2820
S3150800555025D0112859D0152841D0172844D0182805
S315080055604CD019284DD0302833D031281FD03228B6
S3150800557023D04DE0207A01282FD1607A00B101208E
S31508005580DFF8EC1A0870002008F07AFA3BE0607A37
S3150800559010B107F09FFC39E007F0AEFC36E0607A00
S315080055A000B1012007F02CFB00282FD015E0607A07
S315080055B000B1012007F0F6FA0EE0207A04280CD193
S315080055C004F10901012007F0F8F907F054FAE8B1E7
S315080055D003E0607A07F01FFAC0B1362016E094F9A6
S315080055E0090008F0B5F80EE0657A04F10A0007F03C
S315080055F0CBF90146284608F004FB04E008F0FCFA5B
S3150800560001E008F0ECFA002000E03720607031BDB8
S315080056100020207031BD10B50446DFF8580A00791D
S31508005620217856280CBF0120002001BBA1706178A3
S31508005630072910D130B108F003FB012814BF6320F5
S3150800564062200EE0E07862280CBF0120002008F0F6
S31508005650FAFAA07009E0042909D1DFF81C1A10B17A
S315080056600878E07001E0E07808700120207010BD2D
S31508005670017809BB817001210170417801290ED09A
S315080056800C2909D017290DD02D2902D034290CD080
S3150800569010E0DFF8E8190AE0DFF8E41907E0DFF8B8
S315080056A0E41904E0DFF8E01901E0DFF8E019097809
S315080056B08180704700210170704738B5044620780C
S315080056C000285AD1012020700020A0706078012897
S315080056D015D00C280FD017283DD02D2802D03428F5
S315080056E044D048E0A18803293DDAC9B2DFF88C091D
S315080056F008F018FC38E0A088DFF8841939E0DFF8EC
S315080057009009008828BBA08818B3DFF8885928783C
S3150800571008F032FE08F0BCF880B1A188DFF8640909
S31508005720C9B208F0FFFBA07008F0BCF8DFF86809FA
S31508005730DFF868190068401D086001E03820A0708D
S31508005740012008F0AEFD28700020DFF85419088003
S3150800575031BD382008E0A08809F095F918B9A08865
S31508005760DFF8241905E03620A07031BDA088DFF8DF
S315080057701C19087031BD0020207031BD80B501208C
S315080057808DF800006846FFF727F99DF8000002BD6E
S315080057902DE9F04FA7B008F0C2F808F0DDF8DFF8F9
S315080057A0F8880446D8F80000817800270225FF29E2
S315080057B04FF003092DD1C1780679042511F03F0071
S315080057C04FF0050918BF492723D108060AD509F05D
S315080057D005FC28B109F006FC123C0746E4B218E0BD
S315080057E0482716E009F001FC002818BFCB2E0AD07E
S315080057F0CA2E18BFCC2E06D0CD2E18BF002E02D02A
S31508005800AA2E18BF482709F0E9FB00281CBFCC2E92
S315080058104A27D8F80000465D90F801A0DFF85458EA
S315080058200AF003018DF808102E7101786970484452
S31508005830DFF870180860DFF8641808604FEA5A1035
S3150800584000F00300687109F096FC380018BF582666
S3150800585004D15FEA0A6002D55826322082E2A87887
S3150800586020B9287910B1582630207BE209F05CFF70
S3150800587010B95826422075E2FFF780FF002800F08D
S3150800588073822879A978DFF820B8020095A70FF265
S31508005890582A4FF6FF7974D0012800F0F2810228C1
S315080058A000F0AC80032800F0FE80052834D00628D6
S315080058B000F04581092818BF0A2800F048810B28FE
S315080058C018BF0C2800F04A810E2800F05E811228C5
S315080058D000F0A381132800F0D981172800F0E98188
S315080058E0262800F0D981272800F0DE81472800F015
S315080058F0D081492800F039814E2800F06D81522860
S3150800590054D0532869D0552800F09080562800F0C6
S31508005910A48065282AD0812800F006818F2800F007
S31508005920F581912800F00D82942800F0FC819D28CD
S3150800593000F0A281AA2800F0AC80AB2800F0D6803F
S31508005940AC2800F0E880AD2800F0E880AE2800F02A
S31508005950E880CA2800F0B781CB2800F0BD81CC28A2
S3150800596000F0C881CD2800F0C881F12800F07181C7
S31508005970F5281AD0F62800F00681FC2800F0A08148
S31508005980EBE1FEF7F9FC04460620FEF70EFD0220C1
S31508005990FEF70BFD4FF4C440FEF713FDA878002868
S315080059A008BF062C01D10120A870DDE100F00AFA33
S315080059B0FEF7E2FC8DF801006846FEF7E6FF9DF863
S315080059C0000028B937208DF802000020ADF8040041
S315080059D001AB0DF10202B3A157E0012918BF382027
S315080059E023D100F0EFF901AB0DF10102ADA10120C1
S315080059F0FEF7AAFE6846FEF7D3FF25E038270129F9
S31508005A0012D1611FC9B2052007F092FF0446FF2C88
S31508005A1008BF352708D009F099FE002814BF0027CB
S31508005A203627204608F0A8FC38469BE1042200F0F9
S31508005A30CAF90DF103030DF1010239460120FEF7FB
S31508005A4083FE6846FEF78FFF9DF8000010B93720E1
S31508005A508DF802009DF8020084E1042200F0B3F9F3
S31508005A60FEF78AFC8DF801006846FEF77AFF9DF876
S31508005A70000028B937208DF8020000208DF80300B1
S31508005A800DF103030DF1020239460020FEF75CFE14
S31508005A906AE100F092F9FEF76FFC8DF80E0003A894
S31508005AA0FEF73CFF0BE000F088F904AB0DF10E029F
S31508005AB0CFA10120FEF748FE03A8FEF73EFF9DF89A
S31508005AC00C0028B937208DF80D0000208DF8140039
S31508005AD000F06CF90DF10D0251460020FEF734FE78
S31508005AE042E100BF757500007575620000F065F942
S31508005AF000F05CF90DF10E0251460120FEF724FE76
S31508005B0003A8FEF71CFF9DF80C0000280CBF3720E1
S31508005B109DF80D0026E1FEF753FB25E1FEF7BFFBD6
S31508005B2022E1FEF703FC1FE1062CFCDBDFF86C051F
S31508005B30DFF8681500680019401F086014E10120A5
S31508005B4000F045F9002840F02A8107260CE10928CB
S31508005B500CBF0120002002F037F905E10C280CBF24
S31508005B600120002000F0E6F9FEE0012168460AF06F
S31508005B7056FA28B10020FEF718FCBDF8000095E09B
S31508005B803620FEF712FC002090E0FEF7F5FB824671
S31508005B90FEF71EFC8146FEF7EFFB0746FEF7ECFB19
S31508005BA00446B9F5004FB4BF042F702011DABAF1D4
S31508005BB0020F0FDA0BEBCA0A3A46DAF80000494632
S31508005BC00AF0D8FAAAF8049004B900278AF80670E9
S31508005BD00020C7E07020C5E0FEF7CEFB8146002412
S31508005BE00020B9F1020FADF802008DF800000BDABB
S31508005BF05BF839006A460DF102010AF0CBFA0BEBA5
S31508005C00C900807900B10124BDF80200FEF7D9FB6E
S31508005C109DF80000FEF7C9FB83E0FEF7ADFB040024
S31508005C2018BF012400200AF0E7FA07463A46FF2A79
S31508005C3008BF182029D0002C14BF48460220BCA152
S31508005C400AF028FB0020FEF7B0FB384608F094FB64
S31508005C508AE04FF00009DFF8544434F81900FEF7DB
S31508005C60B0FB09F10109B9F1280FF6DB2879652897
S31508005C707AD107F0B4FF77E0FEF7AAFB07F0E3FE58
S31508005C8072E0FEF779FB0AF05FFC6BE009F05BFD5A
S31508005C906AE009F04FFD67E0DFF814140820FEF704
S31508005CA0AFFB61E0757600000AF011FEFEF789FB8E
S31508005CB05AE06846FEF72DFC684603F011FB51E0F2
S31508005CC00AF0ACFF4EE000F06DF8FEF791FB0146D6
S31508005CD003A80AF0AFFF45E0FEF74EFB044607A906
S31508005CE000F061F803AA07A920460AF0A5FFFEF707
S31508005CF05CFB21E00AF0A2FF34E068460AF0A0FF48
S31508005D00FEF753FB0098FEF76CFB2DE00AF0C6FF82
S31508005D100124484505D0FEF72FFBDFF89813002429
S31508005D20087020461EE000F03DF807A900F03BF891
S31508005D3007A903A80AF0F8FF03A91020FEF760FBDD
S31508005D4012E00AF0ABFFFEF73CFB0420FEF72DFB42
S31508005D500B20FEF72AFB032004E0FEF74BFE18B9DA
S31508005D6058263120FEF721FBD8F80010687808700D
S31508005D70D8F800008178002902BF297800298670A2
S31508005D8004D0FF218170D8F800000671072E0CBFD9
S31508005D90012200229DF80800012100F02BF827B007
S31508005DA0BDE8F08F03A91020FEF7EDBA05A801900B
S31508005DB005AB0DF11500009070478C22002103A851
S31508005DC0FEF752BD062200216846FEF74DBD10B506
S31508005DD00446AF48008848B107F0C9FD30B1B64857
S31508005DE000780122214600F005F8012010BD0000C8
S31508005DF0757700002DE9F84FA74F0446386888469E
S31508005E008178934602254FF00309FF29A3490968BB
S31508005E1004BF04254FF005090E1A09F0DFF800281B
S31508005E20B6B21EBF3868405DCC281CBF1236B6B263
S31508005E305FEA0B0004D038684078C0F3411A02E0E4
S31508005E4009F095F982468D4909788A4505D340F2C5
S31508005E5029410FF270200AF073FF4FEA4A1040F00A
S31508005E608000DD2E5FFA80FA05DBDC2007F07AFD7C
S31508005E704AF0020A02E0F0B207F074FD7D48C178E4
S31508005E8019B100214AF0020AC1708C490A781AB180
S31508005E9000224AF0010A0A707D4E318809B14AF09B
S31508005EA0040ABBF1000F06D05FEA080114BF4AF0E6
S31508005EB0080A4AF0100A396881F801A03968897811
S31508005EC011B9012101700FE009F088F800281EBFFA
S31508005ED03868415DCC2904D08021C17009F080F86A
S31508005EE002E039680020C87009F07FF848B13868C0
S31508005EF0415DCB2901BF10F809000028022009F0EE
S31508005F0073F8012C30886C4A18BF022C05D108B9E1
S31508005F10147004E00020107004E0147010B900201A
S31508005F2007F0AEFD4046BDE8F24F07F0E9BC0000B9
S31508005F30620000002DE9F0419AB00446FEF71CFA0B
S31508005F400546062D13D1002C39D12820FEF72DFA47
S31508005F505B4801880223224601A80BF025F8BDF804
S31508005F600400FEF72EFA641C142CF1DB79E0082DE8
S31508005F701DD124BB4020FEF718FA042322460D2122
S31508005F8068460BF011F89DF80000FEF70EFA9DF82A
S31508005F900100FEF70AFA9DF80200FEF706FA9DF8D8
S31508005FA00300FEF702FA641C102CE6DB59E00B2D01
S31508005FB001D124B952E0200003D0092D01D1702067
S31508005FC04DE000260FF2101000EBC6073878854220
S31508005FD030D197F80180200004BF4046FEF7E5F966
S31508005FE0786801884346002202A80AF0DDFF2000EF
S31508005FF027D0FEF7C1F997F80180404501D0022065
S315080060002DE0002000E0401CC1B2414502A905D29E
S31508006010C0B2095CFF29F6D0462020E04046FEF7CC
S31508006020B2F978680088424602A90BF04EF80020BB
S31508006030FEF7BBF9761CF6B20A2EC3D374B1B120AB
S315080060400DE0092D05D1152200210DF14E00FEF7B0
S315080060500BFC787802A9FEF7D3F902E00020FEF7D8
S31508006060A4F91AB0BDE8F0817073020866730020BF
S31508006070B37F0020AC7F0020817300206D73002061
S31508006080A97F002065730020B27F00206F7300206F
S315080060906A7E00209A730020C4730020347800209A
S315080060A0A278002030780020D8720020C07A00201C
S315080060B0AC7A00209C730020D37F0020687E0020E5
S315080060C054730208636F6D6D616E642D68616E644A
S315080060D06C6572732E630000011000004873020895
S315080060E0021000004A730208030200004C730208FB
S315080060F005100000507302080708000052730208D2
S315080061000002000044730208040200004E730208ED
S31508006110095C0000567302080A1400005873020846
S315080061200C080000467302082DE9F84F80460D4614
S31508006130DFF8140C0A99067801247E2991469A46B6
S31508006140A8BF742043DA080003D00B9808F097F923
S3150800615001E000F0C5F883460C9FBBF1FF0F03D1A1
S3150800616000201824387031E0342E06D0362E0ED092
S31508006170382E13D0962E18D01AE05B464A46294682
S31508006180404602F03DF8044602F065FD10E05B4625
S3150800619042464946284602F093F808E05B46EAB2CA
S315080061A04146484602F007F901E00BF043FC044675
S315080061B0962E1CBF99F80A00387024B9DFF88C0BA4
S315080061C0006800F80BA0584608F0D6F82046BDE847
S315080061D0F28F10B584B0089C0294079C0194069C23
S315080061E0009407E010B584B00446104600F00FF896
S315080061F00A462146FFF798FF04B010BD10B50446BD
S3150800620084B00846114600F002F82246F2E7089ADA
S315080062100292079A0192069A00927047E0B5002208
S31508006220019100900292002300210020FFF77CFFD5
S315080062300EBD2DE9F04683B00D460C9907460800B9
S3150800624091469A4603D00D9808F019F901E000F036
S3150800625047F804460E9EFF2C03D1002018253070FF
S315080062600BE00A980190CDF800A023464A46294635
S31508006270384602F085F800F027F822E02DE9F046C6
S3150800628083B089460C990546080092461F4603D0F6
S315080062900D9808F0F4F801E000F022F804460E9E86
S315080062A0FF2C03D10020182530700AE00A980090C8
S315080062B001943B4652464946284602F023F800F028
S315080062C003F82846BDE8FE860500B87A307004D182
S315080062D0DFF8781A09680B980855204608F04CB874
S315080062E0002008F0ABB838B5DFF8644A2080C888C3
S315080062F0440606D5DFF85C4A2478202C03D100042E
S3150800630001D4702032BDDFF8504A1000216004D055
S315080063101146184608F0B3F801E0FFF7E1FF054615
S31508006320FF2D08BF18240AD020684088294602F0A5
S3150800633033FA044602F08FFC284608F01DF820467A
S3150800634032BD02F008BC0BF0B3BC0BF0ADBC2DE9B6
S31508006350F041069F0D4604461646984639460BF008
S3150800636029FD20460BF03EFD0799088038460BF0BC
S3150800637048FE08990870294620460BF0B1FC0746E6
S3150800638038B9314620460BF0E9FC414628460BF061
S3150800639056FE3846BDE8F081DFF8C0391B789842CA
S315080063A001D370207047DFF8B829126832F8203018
S315080063B00B8002EB80008078887000207047DFF839
S315080063C09C391B78984201D370207047DFF89029D2
S315080063D012680B8822F8203002EB800089788170D9
S315080063E00020704730B585B00C4604F01AF805460B
S315080063F000202073102307226946012006F0F1FCCD
S31508006400082202A92046FEF7ECF9BDF80000208113
S3150800641004F114019DF80200A0729DF80300E072D1
S3150800642004F110000BF063FEE08105B0284630BD8C
S3150800643038B504460D460AF027FB014608222046D1
S31508006440FEF7CFF90AF01CFB2880DFF81809007858
S3150800645032BD0CF010BAFF2202F0B4BF70B5A2B07C
S315080064600D460446694604F0C3F8060004D12A46D8
S3150800647069462046FEF74DF9304622B070BD10B584
S3150800648004462078002841D1012020722070A07887
S31508006490401E0BD0401E07D0801F07D0401F05D0D6
S315080064A0401F022802D903E00220207200206070F3
S315080064B0A07801280CD0022814D008280CD00D2862
S315080064C00DD0122817D0132817D0142818D01BE07F
S315080064D0DFF89408007815E002F0DBFC12E00CF017
S315080064E058FF0FE0DFF88408018804F10900BDE8C9
S315080064F0104006F050BAFF2004E002F05DFF01E00C
S315080065000DF0D0F8607210BD0020207010BD10B5D7
S31508006510044682B0207858BB0120207000206070A5
S31508006520A07818B1022819D00BD31FE061686A4613
S31508006530C9B209F071F960700220207204F10900ED
S3150800654007E00320207268460DF077FA607204F1BE
S315080065500A00BDF8001006F01EFA13BD01202072CD
S31508006560606880B202F007FB607213BD00202070DD
S3150800657013BDF0B5044687B02078002840F01A818C
S3150800658001202070A078010027D0012849D00228D0
S315080065904ED0052818BF062852D0082800F0FB80E0
S315080065A009285BD00A2800F07E800B2800F080803E
S315080065B00C2800F0C4800F2800F0C580232818BFD7
S315080065C0242800F0CD80252800F0DB80292800F05B
S315080065D0E480342800F0E380EAE0207A102860D1CD
S315080065E000F0EAF8ADF80400082294F90B008DF8DB
S315080065F0060004F11001207B8DF80700607B8DF8FA
S315080066000800A07B8DF80900E07BADF80A0003A816
S31508006610FEF7E7F81023072201A9002006F0E1FBA0
S31508006620C3E0207A01283CD1607ADFF83C17BBE04A
S31508006630207A022835D100F0BFF8DFF830170BE0D2
S31508006640207A02282DD100F0B7F8A17805290CBFC9
S31508006650DFF81C17DFF81C170880A6E0DFF8180714
S315080066600568207A46080DB9DEB99EE0DFF80C0702
S315080066700078B04215DB002707E004EB4700093035
S3150800668006F082F925F817007F1CB742F5DB4FF4B0
S31508006690004725F8167028460DF00FFC002801D093
S315080066A02F80362082E000F087F80DF0ECFD7CE0C4
S315080066B000F082F8DFF8C8261268527B05464FF6C6
S315080066C0F87122B9884202DA0AF005F96DE02A0063
S315080066D02FD088422DDA0AF0FAF8854229D02846C2
S315080066E00EF0A2FC28BB05A928460BF024FC00BB2B
S315080066F028460FF009FAE0B928460FF02BFBC0B977
S3150800670028460FF03AFDA0B928460CF0F7F880B9EC
S31508006710284610F00CFB60B928460AF0DCF89923E5
S315080067201322A1A1032010F06BFB992010F0A4FC02
S315080067303BE00AF0CCF8854237D0382036E0607A5C
S31508006740DFF8401630E0657A04F10A0006F01CF915
S31508006750ADF800006A462946012009F05DF825E0F3
S31508006760217A042912D123280CBF0325012504F117
S315080067700901012006F021F90146284610F010FD0E
S3150800678014E0607A032818BF042801D002200DE01F
S3150800679003F01AFD09E0372008E0702006E0607A69
S315080067A000B10120DFF8E01508700020607001E0F4
S315080067B00020207007B0F0BD04F1090006F0E4B827
S315080067C010B50446DFF880050078217856280CBFF6
S315080067D00120002009BBA170DFF87825617803291C
S315080067E005D108B150780FE0E078507013E002291F
S315080067F005D108B1107807E0E07810700BE0092998
S315080068000BD118B103F0B2FEE07004E0E07800B1F5
S31508006810012003F09CFE0120207010BD017801B113
S31508006820704730B58170012101704178052908D07B
S31508006830122915D018290CD01F2914D0382915D09B
S3150800684018E0DFF84815DFF8482509781278891A1C
S3150800685024E0DFF840150A78511E8941C90F1DE06A
S31508006860DFF8341504E0DFF8341501E0DFF83015F9
S31508006870098813E000220FF2645300E0521CD2B2DA
S3150800688014461D5DFF2D02D10021017030BD8D42D9
S31508006890F4D10FF2645151F824100978818030BD83
S315080068A070B50446207800287BD10120207000208E
S315080068B06278A070052A0AD0122A2CD0182A1FD06E
S315080068C0192A04D01F2A22D0382A2FD033E0DFF81D
S315080068D0C0040578DFF8B40401784E1BA188052AA0
S315080068E00CBF0E460D46A919C9B207F01BFB0028B6
S315080068F0A07056D1E9B2F0B2BDE8704010F0B8BE4B
S31508006900A188481E8041C00FDFF888143FE0A088A0
S31508006910DFF888140DE0A18847F231508142A8BFFC
S3150800692036203BDADFF87004018070BDA088DFF8F6
S315080069307014088070BD0FF2A44100E0401CC0B27C
S315080069400346CD5CFF2D02D10020207070BD954214
S31508006950F4D1A188022B08DADFF8480450F823009E
S315080069600078884238BF362018D30FF28C4050F88A
S315080069702300092B0DDAC9B207F0D4FAA070002853
S3150800698004BF607811280CD1A088DFF81C140870A1
S3150800699070BD342A04D1C9B207F0C4FAA07070BD1C
S315080069A0017070BD0000000042420000F8B50446C0
S315080069B00D461146184607F062FD18260746FF2FB2
S315080069C008D03A462946204611F0A6F90646384622
S315080069D007F0D2FC3046F2BD38B504460D4621888C
S315080069E0284605F0D8FF6188A81C05F0D4FF207951
S315080069F0287160796871A81DE18805F0CCFF2189A6
S31508006A0005F1080005F0C7FFA07AA87231BD10B5D8
S31508006A1086B004461B208DF80000A0788DF801008A
S31508006A200DF10200218805F0B6FF0822211D01A8F4
S31508006A30FDF7D7FEE1788DF80C10217B8DF80D1047
S31508006A40607B8DF80E000DF10F0000F0BEF91121E4
S31508006A5000F01FF906B010BD80B51C228DF80100A4
S31508006A608DF802108DF80020D9E02DE9F04788B09E
S31508006A7007460D46144611F0C5F9824622462946B0
S31508006A80384608F055FE002863D10DF1090011F0CB
S31508006A90C1F930B962208DF80800092102A810F062
S31508006AA006FAFF2C0FBF0026C04909680E5D45206F
S31508006AB08DF808008DF809700DF10A012846FFF7D0
S31508006AC08BFF0DF1150000F080F951460DF1170006
S31508006AD005F061FF01F085FE8DF819000027B4481E
S31508006AE0DFF8AC820568DFF8A49201E07F1C0C355C
S31508006AF099F8000098F80010FFB2401A87420ADA9F
S31508006B0028885045F2D108F059FBA97AC1F3420109
S31508006B108142EBD100E0FF278DF81A708DF81B60D3
S31508006B20504602F028F88DF8040000B101200090C4
S31508006B3001AB2246142102A810F0C1F900281EBF95
S31508006B4084480078212804D19A48017841F0040144
S31508006B50017008B0BDE8F0872DE9F0430746934871
S31508006B6000681D4687B0465D0E9C884691462146BC
S31508006B70384601F0C0F93F208DF804008DF80570FD
S31508006B8041460DF1060005F006FF02A94846FFF743
S31508006B9023FF6E480068405D8DF813008DF8144099
S31508006BA085480078402804BF0026FF25002000906D
S31508006BB08DF8156000232A46122101A810F07FF9E6
S31508006BC007B0BDE8F08330B589B00D46044604A980
S31508006BD00BF051FE23208DF800008DF801408DF84A
S31508006BE002500DF10300BDF81A1005F0D4FE082274
S31508006BF004A90DF10500FDF7F4FD9DF818008DF8C0
S31508006C000D000E2100F045F809B030BD80B57C2195
S31508006C108DF8001001460DF1010005F0BCFE0321B8
S31508006C20684610F044F901BD70B586B004467D206B
S31508006C308DF800000D46164621460DF1010005F0B7
S31508006C40AAFE082229460DF10300FDF7CAFD8DF8B4
S31508006C500B600C2100F01DF803A811F0DBF818B939
S31508006C6003A9204610F00AFD06B070BD38B50446E3
S31508006C700D4601F01FF980208DF800008DF80140BF
S31508006C8029460DF1020005F086FE042100F001F800
S31508006C9031BD684610F00BB910B584B004464620DD
S31508006CA08DF8040001A821784170617881700DF192
S31508006CB0070000F08AF83D48A1780068405C8DF826
S31508006CC009000023002000900621A27801A810F0F0
S31508006CD0F6F81FBD80B598208DF800008DF80110D4
S31508006CE0684602219DE71FB50C4692218DF80410CF
S31508006CF0082201460DF10500FDF773FD0DF10D00A3
S31508006D0000F063F829480068005D8DF80F0000233D
S31508006D100020009022460C21D8E7244A00B51268C4
S31508006D2083B0125C8DF8051093238DF80620002198
S31508006D308DF80430009102460023032101A810F0C3
S31508006D40BEF807BD00000000B07F00205C7C002074
S31508006D50767C002089730020787C00206B730020E5
S31508006D6018720020D87F0020E47F00205A73002084
S31508006D703E73002040730020AC7C0020587C002025
S31508006D80447C0020607E0020A973002073730020D5
S31508006D90E07F0020677300202C73002028730020F2
S31508006DA0387300206872002078730020E87100208C
S31508006DB04C720020747C00208173002080B50AF094
S31508006DC083FFBDE8014011F03FB810B5044611F045
S31508006DD012F8601CBDE8104011F00FB81102030646
S31508006DE007081A2B2C1910131B1C1D2021222A2ECA
S31508006DF033343537FF000000687300206E730020B7
S31508006E00747300206B730020697300206A73002076
S31508006E10A27F00206C730020587C0020E07F0020B1
S31508006E20797300207A7300207B7300207573002025
S31508006E30A47F0020C97200207C7300207D73002087
S31508006E40A87F0020AB7F0020A47300206F7300206A
S31508006E50677C0020A373002038B504460029104635
S31508006E6001461A46204602D012F012FC01E012F042
S31508006E70E0FB0546002C1EBF04980028A04203D05C
S31508006E802146142212F070FC284632BD0246022022
S31508006E9000291CBF104612F093BC70470246022018
S31508006EA000291CBF104612F01CBD70471CB50446CD
S31508006EB00020ADF800002078F8B902202072A078EA
S31508006EC00A280AD0102810D101A812F0F2FE607024
S31508006ED0BDF80400ADF8000004E0002060706846C4
S31508006EE00DF0EAF90120207001E0207828B1BDF8FC
S31508006EF0001004F1090005F04EFD13BD38B504462F
S31508006F002078002804BFA078102812D104F10901BE
S31508006F10012005F052FD054604F10D0005F034FD8B
S31508006F20ADF800006946284612F098FE6070012008
S31508006F30207031BD76490978027856290CBF01219F
S31508006F4000212ABB8270012202704278130006D102
S31508006F50704A09B1117811E0C07810707047052A97
S31508006F6005D16D4A61B1117841F0500106E0062A53
S31508006F700CD16A4A21B1117841F06001C17070479D
S31508006F80C17801F00F01C1701170704700210170BE
S31508006F90704710B504462078B8B900F045F806D011
S31508006FA01E2807D0242807D0362808D00BE009F079
S31508006FB06FFD06E05A4800E05A48007801E05A4852
S31508006FC00088A08010BD0020207010BD10B50446B2
S31508006FD0207840BB00F028F806D01E280AD02428BE
S31508006FE012D0362819D01CE0A088BDE81040C0B2DF
S31508006FF009F052BD4D48A188007888420AD3C9B223
S31508007000474806F08FFF06E0A1880B2902DA4548B3
S31508007010017010BD3620A07010BDA08842490880B6
S3150800702010BD0020207010BD012020700020A07027
S3150800703060780D28704700002DE9F04F1646012E9E
S3150800704089B0804689469A4612D10124002506A8A9
S315080070500DF03CF9022755EA0401DFF8B8B005D06F
S3150800706058B9BDF81800800707D535B1032715E0CC
S315080070700024032EEAD10125E9E79BF8000005283C
S315080070800AD8DFE800F0030605090841012705E0EC
S3150800709085B1002702E02746022F0BD009F017FC1E
S315080070A0824507D0514640460AF0D5FD4946404636
S315080070B010F0E4FA019753469BF800000090324618
S315080070C049464046FDF791FC044624208DF8080001
S315080070D041460DF1090005F05EFC082249460DF10E
S315080070E00B00FDF77EFB8DF813608DF814405146B2
S315080070F00DF1150005F04FFC0F2102A80FF0D7FE81
S31508007100204609B0BDE8F08F002DC2D0AEE70000DA
S31508007110B07F002086730020A67F002076730020AB
S31508007120A57F0020AA7F00202A7300208673020804
S3150800713080B56E218DF800108DF801000221684691
S315080071400FF0B5FE01BD10B584B00C469B218DF835
S315080071500010082201460DF10100FDF742FB8DF8EB
S3150800716009400A2168460FF0A2FE1FBDF0B583B09C
S3150800717010F8014B0E461746214607F080F90546DA
S31508007180FF2D03D10E4901200870F7BD8E208DF81A
S3150800719004008DF80560002000908DF806708DF8C3
S315080071A0074000232A46042101A80FF088FE284636
S315080071B007F0E2F8F7BD00B1024812F0BBBD0000C7
S315080071C0687E00206D71000800B58028A1B0A8BFB0
S315080071D002200ADA8DF8000002460DF10100FDF7DB
S315080071E000FB0021684612F04BFE21B000BD10B529
S315080071F004462078002804BFA07833280FD1012040
S31508007200207009B1002004E0607A12F091FE00B106
S31508007210362060700120207212F09AFE607210BD4E
S315080072200121E4E70021E2E730B58BB004460D46BC
S315080072302A22FF216846FDF717FB2146284607F054
S315080072401EF90446FF2C08BF182505D012F09CFE2F
S315080072500546204607F090F828460BB030BD10B515
S315080072604E4C2178FF29A8B008BF702020D00020F6
S3150800727000904A2300220AA807F01DF90020009072
S31508007280252321784A221DA807F015F90020009029
S31508007290242321786F2201A807F00DF9207807F03A
S315080072A06BF8FF20207001AA0AA91DA812F079FE22
S315080072B028B010BDF8B5394F04463878FF280D4672
S315080072C0164608D19321002007F0D9F8FF28387010
S315080072D001D13520F2BD01200090334639782A467F
S315080072E0204607F0E8F80020F2BD10B50446A6B01F
S315080072F0207860BB01202070A0781A2804D024D3F7
S315080073001C2815D00AD320E04A2204F1090113A843
S31508007310FDF767FA4A22002113A812E0252204F194
S31508007320090109A8FDF75DFA25224A2109A808E0FE
S31508007330242204F109016846FDF753FA24226F2135
S315080073406846FFF7B7FF607001E00020207026B09E
S3150800735010BD0178002904BF417829290CD11049AC
S315080073600978522904D10F4909788180002100E063
S315080073703821817001210170704710B5074C2078BB
S31508007380FF281FBF06490978AB29ED2903D006F067
S31508007390F3FFFF20207010BD000000008873002056
S315080073A0B07F0020A77F002011B1012903D004E097
S315080073B0114604F01BBA04F06CBA0220704710B5E7
S315080073C004462078002804BF607808280ED114489F
S315080073D00078562803D104F0E3FEE07002E0E07876
S315080073E004F0E1FE0020A0700120207010BD017895
S315080073F0A1B941782F2908BF0A4902D030290DD1F1
S31508007400094959B1064A1278522A07BF0978818074
S3150800741082880A700021817001210170704700007E
S31508007420B07F00207F7300208073002030B58FB0B6
S3150800743005460C463B2200216846FDF715FAB6209C
S315080074408DF800000DF10101284600F076F8DCB150
S3150800745000218DF82910082221460DF12A00FDF792
S31508007460C0F90DF12905207A68720DF1330061899A
S3150800747005F091FAA1890DF1350005F08CFAA07B8B
S31508007480A873E07BE87302E001218DF829100DF15D
S315080074903900FFF79AFC3B2100F00CF80FB030BD1D
S315080074A080B5B7218DF800108DF80100022100F093
S315080074B001F801BD68460FF0FABC10B586B004465F
S315080074C0B8208DF800000DF10100218805F063FA57
S315080074D061880DF1030005F05EFAA1880DF105003B
S315080074E005F059FAE1880DF1070005F054FA2189EB
S315080074F00DF1090005F04FFA61890DF10B0005F051
S315080075004AFAA1890DF10D0005F045FA0DF10F00B3
S31508007510FFF75BFC1121FFF7CDFF06B010BD00B5E4
S315080075208BB0BB218DF800100DF1010100F005F8B4
S315080075302921FFF7BFFF0BB000BD38B504460D463D
S31508007540A0782870681C218805F025FA0822211DD4
S31508007550E81CFDF746F9E078E87205F10E01207B94
S315080075602873607B68730120226905F018FA62693E
S3150800757005F11201012005F012FA218B05F116001A
S3150800758005F009FA082204F11C0105F11800FDF7B7
S3150800759028F9A18C05F1200005F0FDF9E18C05F12B
S315080075A0220005F0F8F904F1280105F124000A780B
S315080075B002704A7842708A788270C978C17031BD83
S315080075C0F8B5BB4D0446286800792B38022801D93E
S315080075D00D382ED1FCF7D0FE06462868B549401D61
S315080075E00860002131200FF02AFD05464FF6FF7787
S315080075F00BE005F10D0080B20FF04EFCB04213D03F
S31508007600294631200FF01BFD0546BD42F1D1002168
S3150800761000E0294632200FF012FD0546BD4208D08B
S315080076200FF03AFCB042F4D1A420FCF7BEFE0020CD
S315080076302070F1BD38B50446002100E029463F20F8
S315080076400FF0FDFC05464FF6FF7085420CD0284624
S315080076500FF022FC0228F1D1681C80B20FF01CFC46
S31508007660A042EBD1012032BD002032BD2DE9F843FE
S315080076708046002145200FF0E2FC4FF00009044641
S315080076808D4D4FF6FF7609E0FF21B8B20FF009FCE1
S31508007690A1B245200FF0D3FCA1460446B44224D03B
S315080076A004F11007B8B20FF0F7FB4045F0D12046B9
S315080076B00FF0F2FB022818BF0328E5D1A41FA0B2D9
S315080076C00FF0EAFB01462888401A32187B482A80C0
S315080076D00919121B92B2007800924B1C9BB2024603
S315080076E0A1B207F0E1F84C46D2E7BDE8F183F0B560
S315080076F0734F3D788BB0064607F060FD07F03BFDFB
S3150800770000F07BF806D012282FD17188707808F01F
S31508007710C6F850B3707804A908F060F888B1BDF8C7
S31508007720100040F20911884204BF7088B0F5006F56
S3150800773007D1701D12F040FCB52802D0A8B9002464
S3150800774013E00124002500E06D1C3978E8B2884270
S315080077500BD206A900F099F99DF818000028F3D174
S315080077603146E8B200F09CF9044631208DF8000055
S3150800777030788DF8010070788DF802000DF103005D
S31508007780718805F008F930798DF805000822711D11
S315080077900DF10600FDF725F88DF80E508DF80F400F
S315080077A0102168460FF083FB20460BB0F0BD38B5B4
S315080077B0054607F003FD07F0DEFC00F01EF818BFCB
S315080077C012280DD12846FFF735FF08B1752407E0C2
S315080077D0284600F0B0F9040004BF2846FFF746FF24
S315080077E032208DF800008DF801508DF802400321F3
S315080077F068460FF05CFB204632BD324800786C24A0
S315080078001128704738B504460D46FFF713FF08B12F
S31508007810752511E03DB107F0AAFC68732946204694
S3150800782000F03EF902E0204600F085F905462800FA
S3150800783004BF2046FFF71AFF284632BDE2E70021BB
S31508007840E0E721490978027856290CBF0121002171
S31508007850002A04BF4278012A0AD11A4A002919BF08
S315080078601178C170C17811700021817001210170F1
S31508007870704710B504462078002804BF60780428AD
S3150800788014D111490E480978522903D10078A080ED
S31508007890002008E00D4AA18812788A4232BF3620B5
S315080078A0C9B206F03FFBA0700120207010BD000091
S315080078B0C4730020307800206A7E00209A73002066
S315080078C0A37F002087730020B07F002084730208FE
S315080078D01FB50C4602460D231621684609F064FBBF
S315080078E00D2269462046FCF77CFF20784009607324
S315080078F0207800F01F0020701FBD30B585B0044603
S315080079000D460D226846FCF76CFF9DF80000697B62
S3150800791040EA41108DF800000D236A4621461620DC
S3150800792009F069FB05B030BD2DE9FF41044600F0BA
S315080079305FF814E03068EDB2A84630F81800A042A7
S315080079400CD16946284600F0A0F89DF800000228E8
S3150800795004D031684FF6FD7021F818006D1CE8B2A6
S3150800796039788842E6D3BDE8FF812DE9F045884697
S315080079704FF6FF7AD04585B0044605D100F0D8F910
S3150800798010B908F0A4FF30E000F032F80CE0D0455A
S3150800799008D0306830F81510414504BF4FF6FD7120
S315080079A020F815106D1CEDB2387885421CDA30685F
S315080079B030F8150000F018F9F4DA69462846FFF79A
S315080079C087FF082221460DF10500FCF754FF002821
S315080079D0DDD13068D04502D130F8150005E020F831
S315080079E0158012F023FBDDE7504605B0BDE8F085AB
S315080079F00025DFF8C463DFF8C47370472DE9FF4735
S31508007A00804689460026DFF8B873DFF8AC43DFF80E
S31508007A10AC5316E02068F6B2B24630F81A0000F009
S31508007A20E3F80DDA69463046FFF752FF0822414669
S31508007A300DF10500FCF71FFF10B9386800F80A9029
S31508007A40761CF0B229788842E4D3BDE8FF87DFF8D0
S31508007A506813096831F8100070471FB5DFF85C2312
S31508007A60127890420C460FD2D349096831F81010A3
S31508007A704FF6FE72914207DA694600F006F821468B
S31508007A800DF10500FFF771FF1FBD80B5CB4B1B78C5
S31508007A90984201D3692002BDFFF71AFF002002BDF4
S31508007AA070B504460D4623460022B4A103200FF004
S31508007AB0A7F928780028204602D1BDE870403AE0A8
S31508007AC0BE490978884201D3692070BD12F0D9FEF3
S31508007AD008B1752070BD07F027FB6873681D0AF0AA
S31508007AE090FA06464FF6FF71681DFFF73EFF0246FD
S31508007AF029783346204600F006F829462046FFF73F
S31508007B00FCFE002070BD30B54FF6FF740D0008BFAF
S31508007B10224608D0032908BF4FF6FE7203D0A242B8
S31508007B2008BF4FF6FD72A449096821F81020A44938
S31508007B3009680B5430BD30B505462C4685B023463A
S31508007B4001228EA103200FF05BF99C49097828468B
S31508007B50884228BF692019D212F093FE08B1752011
S31508007B6014E069462846FFF7B3FE9DF8000030B1D9
S31508007B7000208DF8000069462846FFF7BEFE8E49AC
S31508007B8009684FF6FF7021F81400002005B030BDD3
S31508007B90F0B585B007460C46874D884E00E07F1C39
S31508007BA03178F8B288421CD22868FFB230F817003C
S31508007BB000F01AF8F3D169463846FFF789FE9DF8B2
S31508007BC00500E1B2884204BF9DF80610B1EB142FF8
S31508007BD0E5D107F0A9FA9DF80D108142DFD13846A4
S31508007BE000E0FF2005B0F0BD4FF6FE7188427047F1
S31508007BF02DE9F14F84B00D460E9C6F4FDFF8BCA1FE
S31508007C0090469946002607E03868BDF8101030F807
S31508007C101B0088422CD0761C9AF80010F0B28842D5
S31508007C2028D23868F6B2B34630F81B00FFF7DCFFF7
S31508007C30F1DA69463046FFF74BFE5FEA080007D1DE
S31508007C409DF80100484504BF9DF80400A042E2D112
S31508007C5007F06AFA9DF80D108142DCD1002DD3D0C9
S31508007C6008220DF105012846FCF705FE0028D2D1A9
S31508007C70304600E0FF2005B0BDE8F08F10B5144689
S31508007C80FFF726FE2046BDE8104008224D49FCF7BE
S31508007C90A8BD2DE9FF470446084615461E4600F0CE
S31508007CA047F808B1002040E00027DFF80C81DFF82C
S31508007CB00C9100E07F1C99F80010F8B2884223D294
S31508007CC0D8F80000FFB2BA4630F81A004FF6FF712E
S31508007CD08842EFD069463846FFF7FAFD0C220DF1C7
S31508007CE00101601CFCF7C7FD0028E3D1BAF1FF0FBC
S31508007CF00CD10020307007F038FA307855B138B911
S31508007D002046FFF7F4FC09E0FF27F2E70120F1E738
S31508007D10012006E028B13846FFF749FD401E80419C
S31508007D20C00F307007F0DCF9012004B0BDE8F08719
S31508007D3008222449FCF79FBD30B585B000241F4DA5
S31508007D4016E06946FFF7C4FD9DF80000042806DB27
S31508007D5000208DF800006946E0B2FFF7CEFD9DF8D9
S31508007D60001000234FF6FF72E0B2FFF7CCFE641C4A
S31508007D702978E0B28842E4D305B030BD424200001B
S31508007D8030B585B002220BA103200FF039F8002088
S31508007D908DF800000024094D03E06946FFF7ADFDA4
S31508007DA0641C2978E0B28842F7D3FFF7C5FF0020A4
S31508007DB005B030BD4200000040720020A37F0020BD
S31508007DC044720020AC7A002030B583B00446FCF734
S31508007DD0D3FA0546202D1ADA5CB169460820FCF765
S31508007DE0D2FA08236A462946212009F004F9002018
S31508007DF00EE008232A462121684609F0D5F8002016
S31508007E00FCF7D3FA69460820FCF7FAFA37BD702062
S31508007E10FCF7CBFA37BD704770B55D4D6E8A0446E0
S31508007E2005F1080012F09FFD012C08BFAE8A02D0AA
S31508007E30022C08BF022618B1FA217143884206D3DC
S31508007E40310205F10800BDE8704012F07FBD70BD33
S31508007E507CB54F4C0020E07020714FF6F972208AED
S31508007E6090421CBF4FF6F872904202D00020207252
S31508007E7073BD6179474E4FF6FD7589B14FF6FC70B3
S31508007E8001900023002000900022308800210BF08A
S31508007E9068F80020607135800120BDE87640BBE7B0
S31508007EA0A17810F0C9F93088A842F5D00120607190
S31508007EB00220F2E710B500F039F81CBF4FF6F87447
S31508007EC0A34217D1A92818BFAA2813D1D0781378A6
S31508007ED0401CD070C0B298420CD32E4803884FF687
S31508007EE0FD74A34202D10180002050710020BDE834
S31508007EF0104091E710BD10B500F018F81CBF4FF6FA
S31508007F00F874A34211D103001CBF012802280CD122
S31508007F1066290AD110795178401C1071C0B288427E
S31508007F2003D3BDE81040002076E710BD184A138A2F
S31508007F304FF6F974A342704710B5154C218292008A
S31508007F40029921709B0003996282A38261709BB299
S31508007F500499A17092B293420AD301001EBF218AE6
S31508007F604FF6F87291421CBF4FF6F972914201D052
S31508007F70702010BD002161714FF6FD71054A118010
S31508007F8018B10120FFF748FF00E02072002010BD5D
S31508007F908C780020307300202DE9F54F8BB08B4686
S31508007FA00C98169C1799ADF804B00026C0889A4616
S31508007FB00746B046B14649B9F90607D50C9A9DF861
S31508007FC02C000094594611F0E1FF16E1790548BFE7
S31508007FD04FF48058390548BF48F40068B90548BFCA
S31508007FE048F0800803D4F90548BF48F040089DF8D2
S31508007FF02C1002915D469DF82C1003910A2966D82B
S31508008000DFE801F0082F1B3C65653C06083C1800B4
S315080080104FF00209BDF80420CDF800A0334648F415
S31508008020027120460BF094FA8246BAF1FF0F50D13E
S315080080301820E2E04FF00309ECE706A95FFA8BF097
S31508008040FFF723FD08220DF11D0104A8FCF7C9FB63
S31508008050DFF88808006830F8150004AEADF80400AB
S31508008060D8E704A95FFA8BF009F0A4FEDFF87008D8
S3150800807000680C21694304AE405AEFE74FF6F871E1
S315080080808D4224DB4FF40261084220D100F012F938
S3150800809018BF91201CD1FF2C0FD000F076FB029957
S315080080A003290CBF01210021401ADFF83818096896
S315080080B0095D8842B8BF74200ADB029803280CBF02
S315080080C04FF00C094FF0080928F4C078A2E7012000
S315080080D093E0DFF8145828884FF6FF71884218D0C5
S315080080E0504612F062FD0090001D298804F053FCEA
S315080080F0DFF8F80700990078C8714FF6FF702880F6
S315080081005FEAC84005D500980822291D0830FCF703
S3150800811068FB0C9A494650460BF0EEFB08B9182640
S3150800812067E0DFF8CC070068C07E70B1B8060CD5EA
S31508008130F8074CBF2020002040F0010332460021FA
S3150800814050460FF0C7F9060053D1FF2C15D05046FC
S3150800815012F021FDDFF898170968C97E01B11221CE
S31508008160DFF880271268135D12F80A20D2187430D7
S3150800817089188842B8BF74263BDBB80407D5504631
S3150800818012F023FD40F48061504612F020FD02985B
S31508008190082812BF0928504612F026FD179848B13C
S315080081A0BDF80410504612F038FD179880F800A064
S315080081B0002022E00398C01E05D0C01E012884BFF7
S315080081C0C01E012807D850460FF08DFE00280CBFA8
S315080081D0A12600260DE0B80444BF4FF6BF7007403D
S315080081E09DF82C103B465FFA8BF2504611F01FFFA4
S315080081F00646504606F0C0F830460DB0BDE8F08F8A
S315080082002DE9F043164685B00446F08804900D46DD
S3150800821070790FF2187103901F4630790290A846BC
S3150800822070880190434630880090082200F099F83B
S3150800823000F040F818BF91201AD1FF2F09D000F09E
S31508008240A4FADFF8A0160968C95D884238BF742009
S315080082500ED320000FD14FF6F870804528DA00209B
S3150800826001900097FF23324629462046FFF794FEE1
S3150800827005B0BDE8F083022C4FF6FE790CD1DFF885
S31508008280741609788D4213D2DFF85006006830F864
S3150800829018004845E3DB0BE0012C09D1DFF8581636
S315080082A009788D4204D2E8B209F09CFD4845D6DB30
S315080082B00120DDE7DFF838060068407B02287047B2
S315080082C0F0B587B00D461646044605961F46E8885B
S315080082D00FF2606104902346687903900922287991
S315080082E00290688801902888009000F03AF80020EB
S315080082F00190009733462A4621460620FFF74CFE92
S3150800830007B0F0BD2DE9F04188B01E460E9C0794D3
S315080083108046F08806901746707905900D463079A4
S315080083200FF21C6104904346708803900A22308835
S3150800833002900197009500F014F8DFF8AC05A0F854
S3150800834000802346DFF8A405077000200190324616
S315080083500F98009029460620FFF71EFE08B0BDE8D4
S31508008360F08103200EF04CBD80B538B101460822D5
S31508008370DFF88805FCF735FA002002BD022002BDA9
S3150800838070B588B000F02EF80C98DFF85C150096EA
S3150800839008802B460D98DFF8541508702246DFF83A
S315080083A060050078002814BF4FF6FF714FF6FD717F
S315080083B00020019011E070B588B000F013F8DFF8DE
S315080083C0400500780096002814BF4FF6FF714FF657
S315080083D0FD71002001902B4622460320FFF7DCFDA5
S315080083E008B070BD04460D46069205951E46E088FF
S315080083F00FF2585104900622607903902079029072
S315080084006088019020880090032023890EF0F8BC2C
S3150800841010B5DFF8F00406F090FA0446FF2C0DD0EC
S315080084202146042005F021FD18B10121204600F05F
S3150800843006F82046BDE8104005F09EBF10BD2DE9A0
S31508008440F04F89B082468B4612F0AFFB0646B01C49
S3150800845004F09AFADFF8B044DFF8B05407465046FD
S315080084600BF027F90146504606F02CF9804650468F
S3150800847012F0B5FB06F003FE301D04F085FA2080E5
S31508008480009708F024FA009989B2814208F0030996
S3150800849012D04FF6F87087420EDA7078C0070BD400
S315080084A038460AF01BFA002805D0208801235246D0
S315080084B0394600F09EF97AE005A950460BF088F98E
S315080084C005A8286030460BF011F9DFF84414086057
S315080084D00321504612F059FBDFF8381408700421BE
S315080084E0504612F052FBDFF8301408705FEA0B00B2
S315080084F02BD09DF81A00800627D508F0E8F9DFF892
S31508008500F06340B13068007D800704D4B9F1010FEB
S3150800851008BF182300D008230022002150460EF079
S31508008520D9FF90B108F00300012802BF3068407BEC
S31508008530112805D102F049FA10B9AF2000F033FC32
S3150800854006F0CEFD0020286048E018F0030003D0AE
S31508008550022806D00AD32AE05946504600F041F8C8
S3150800856025E05146404611F090FD20E008F0AFF9AD
S31508008570218881421BD05146052005F076FCB0B112
S315080085802968887940060DD50C2202A8FCF729F936
S3150800859000200190FF23FF20009002AA21880A20CC
S315080085A0FFF7FAFC21885A4650460BF0CFFE08F032
S315080085B08EF9218881420DD150460BF07AF8014692
S315080085C0504606F07FF80C21084203D10021504698
S315080085D011F092FF0020286006F082FD09B0BDE880
S315080085E0F08F2DE9FE4F814612F0DFFA064648461F
S315080085F00BF05FF80146484606F064F805467078C1
S31508008600DFF80843DFF8007300F001000290B01CA1
S3150800861004F0BAF94FF6F8718842ACBF4FF0010A78
S315080086204FF0000A08F053F93988814220684088DB
S31508008630ADF802000CBF4FF001084FF00008B01C5F
S3150800864004F0A2F90146029840EA0A008DF80400EF
S315080086509DF80400002814BF06200820002206F012
S315080086600CFF20680188BDF80260002904BF407924
S3150800867000281ED1694648460AF0B4FB23689DF8CF
S315080086800010421ED2B2042012F093FB20684088E4
S3150800869048F20201884203D13888494602F065FA51
S315080086A03888B6F5004F10DBBDF8022049460AF0B7
S315080086B0ADFB2068029919B905F00C010C2935D1D2
S315080086C0008909F0CDFC30BB51E0DFF850B2022139
S315080086D08BF800105346002249460AF0FFF9206835
S315080086E08079400604D5BDF80200FF2100F054F851
S315080086F0132EDED02068C0884004DAD48849097869
S315080087009BF80000CA0701D50228D2D089072ED5C2
S315080087100128CED02BE020680189B8F1000F14BFDC
S31508008720032502250020FFF733FA12E001790091AC
S315080087300022437938880021FFF75AFA05F00C0120
S31508008740082905D1B8F1000F0CBF0425052500E05E
S315080087500025744908709DF8040008B9382E01D11F
S31508008760012200E00022294648460FF0EBFABDE850
S31508008770F78F10B5044600F008F8610548BF0838B9
S31508008780210548BF0838C0B210BD59490968C97ED5
S31508008790642001B15220704770B55C4E0C4686B015
S315080087A0054631680C2202A8FCF71BF830680179E7
S315080087B08DF80D10FF2341798DF80C10ADF80A508D
S315080087C04FF6BF71C08800940840ADF80E0002AAA3
S315080087D0002001904C4801880720FFF7DDFB06B012
S315080087E070BD5148007808B9FF2070474D48007899
S315080087F070472DE9FB47914685B01C4648460AF066
S3150800880058FF0146484605F05DFF032108428DF8EA
S3150800881000005ED13D4805683B48068801A94846E0
S315080088200AF0D6FF394901A808604FF0000ABDF8DA
S315080088301400354908809DF80900002804BFBDF8D2
S31508008840040000283FD1484612F0AFF9801C04F016
S315080088509BF84FF6F8718842ACBF4FF00108D04636
S31508008860002C14BF02240124012729E0BDF81400B6
S3150800887043463A4649460AF031F95FEA000A1ED0ED
S31508008880022C08BF012F1AD1BDF818001649088016
S3150800889017480068417E491C4176A1F180001349BA
S315080088A008700C219DF80000084208D19DF80A00BE
S315080088B0400604D5BDF80600FF21FFF76DFF7F1CB3
S315080088C0FFB2BC42D2DA114805600F48068050460E
S315080088D000E0002008B0BDE8F087000040720020E4
S315080088E04C720020E8710020A0720020BB7F002097
S315080088F0447C0020A37F002073730020A47200200C
S31508008900AB7F0020D4720020767C0020787C002083
S315080089107C7C0020DD7D0020DE7D0020BA7F0020E3
S31508008920A87F0020DC7F0020747C00204257575720
S3150800893042425700425757574242574200000000EA
S3150800894042575742575742425742000042575742EA
S31508008950424257424200000010B5044606F00BFC9E
S3150800896010F0F3F9010018BF00F013F80C212F4896
S3150800897061430844827981880068BDE8104007F0A1
S31508008980F9BB0020E8E70120E6E70220E4E7032038
S31508008990E2E710B582B0044606F010FC0C21484305
S315080089A022490844210017BF312C0021017A491CAD
S315080089B00172C279017A91420AD3002101724320D9
S315080089C08DF800008DF80140022168460EF06FFA16
S315080089D013BD17490978312900D0704780B544215D
S315080089E08DF8001001460DF1010003F0D4FF0321B4
S315080089F068460EF05CFA01BD38B50E4C0B4B247870
S31508008A000C256C43B0F5004FB8BF0429234401DB9D
S31508008A10702032BDDA71988099719A7999881868A8
S31508008A2007F0A8FBBDE8314010F08FB9707200203E
S31508008A308A730020B17F002070B5160004460D46E3
S31508008A4002D109F008F902E0FF2109F0B3F832462D
S31508008A5029462046BDE87040A0E02DE9F04782B0DF
S31508008A6005468A46174698460EF008FEC0480A9CF0
S31508008A700078B0B10C2F14DAFF21284609F09AF8CD
S31508008A80814600260AE004EB4601C9B2404605F0D5
S31508008A90D4FE494609F08EF88146761CF0B2B842F3
S31508008AA0F1D3009443463A465146284600F08EF8DC
S31508008AB0BDE8F3872DE9F04704468A4600F0D5F865
S31508008AC0012846D1204609F05FF8AA4A126812F82A
S31508008AD00A700025FF281CD081464C46DFF898828C
S31508008AE000E06D1CD8F8000000EB84008478FF2CA9
S31508008AF0F7D1E8B268B1EDB20C2D0ADA6800861C27
S31508008B00BAF1FF0F24D0F119C9B2504605F093FD0A
S31508008B1008B100201DE02A463946504605F0D7FD23
S31508008B207C1C6A1ED2B2E1B2504605F0D0FD671C25
S31508008B304C4606E030F82420F9B2504605F08AFE85
S31508008B40BF1CD8F8000000EB84018C78FF2CF1D10B
S31508008B50F0B2BDE8F08710B5FF280AD0864B1B682F
S31508008B6033F820400C8003EB8000807810700020DA
S31508008B7010BD032010BD10B509F006F80024FF2823
S31508008B800AD0022401E0A41CE4B27B49096801EB7F
S31508008B9080008078FF28F6D1204610BD30B583B016
S31508008BA00C46C4218DF80010154601460DF101004A
S31508008BB003F0F1FE21460DF1030003F0ECFE8DF8FB
S31508008BC00550062168460EF072F937BD2DE9F041C9
S31508008BD086B0074688461D460DF1050014460FF077
S31508008BE00AF901A80FF009F959208DF80800394645
S31508008BF00DF1090003F0CFFE082241460DF10B00E6
S31508008C00FBF7EFFD9DF805000C9B8DF81300660039
S31508008C109DF804008DF81400F6B28DF815400096FC
S31508008C202A460021284605F03FFE3146284605F02B
S31508008C3002FD0020009000232A460E2102A80EF00D
S31508008C403EF906B0BDE8F08110B5044600F003F819
S31508008C504A48047010BD10B5484C2078FF2803D048
S31508008C6005F08AFBFF20207010BD2DE9F041DFF8E2
S31508008C700C81074698F80000FF2882B00C4619D0E8
S31508008C803C4D2A68115C8E1EF6B2314605F0D5FDBC
S31508008C90B8420FD12868075DF5052D0EFF2C02D1C5
S31508008CA0A81CC0B220E0F019811CC9B2204605F004
S31508008CB0C2FC08B1012017E02A463946204605F0CD
S31508008CC006FD6A1E791CD2B2C9B2204605F0FFFC21
S31508008CD098F800200096B91C002389B2204605F0B2
S31508008CE0E3FDFFF7B8FF0020BDE8F6812DE9F04166
S31508008CF080461F480078002688420F46154638BF2A
S31508008D00742032D3012005F0CCFA0446380010D07E
S31508008D107900C9B2204605F08EFC50B907E035F84F
S31508008D2016207100C9B2204605F094FD761CBE4295
S31508008D30F5DB2046FF2811D00E4909680D5CA91CF1
S31508008D40C9B205F078FC28B942462946204605F0FE
S31508008D5081FD03E0204605F00FFBFF242046FFF7C0
S31508008D6073FFFF2C0CBF18200020BDE8F08100001F
S31508008D70A27F0020E87100203C7200208B7300203F
S31508008D80DFF8C02C1268127882420AD019B1012A7B
S31508008D9003D1022805D000207047022A08BF0128FF
S31508008DA0F9D101207047DFF8A01C8875704710B507
S31508008DB0DFF8904C2068407B112805D040F203115B
S31508008DC00FF20C0007F0BCFF21684120487310BD64
S31508008DD06173736F63696174696F6E2E6300000057
S31508008DE080B5022006F021FB06F049F900F033FCB5
S31508008DF0042805D1DFF8500C417D491D417505E071
S31508008E004FF47A71DFF8040D11F0A0FDBDE80140BA
S31508008E1006F066B910B5DFF8304C0020E07420780B
S31508008E20FF2803D005F0A8FAFF20207010BD70B502
S31508008E3082B004460D4605F029FA0646B01D03F031
S31508008E40A3FD00F44040B0F5404F0CBF06200020BB
S31508008E503118097C4A00490802F00E0201F038016F
S31508008E608918401800F11106DFF8000D0068005D4A
S31508008E70F6B286420BDA831BDBB20F2BA8BF0F2391
S31508008E800020009032462146284605F014FB30465D
S31508008E9076BDDFF8B00B0068407B33281CBF43283B
S31508008EA0532801D101207047002070471FB50120C3
S31508008EB011F088FF11F08AFF0FF008F8F0B1DFF81B
S31508008EC0884BA07910B104F10A0005E020786946BC
S31508008ED0FFF7ADFF0DF10300DFF8302C002111700C
S31508008EE0617901F0CFF9FFF795FF00F008F80AF06D
S31508008EF0BDF811F0BCFF012001F0F3FA1FBD10B553
S31508008F0000F036FE017B032918BF042905D14088E5
S31508008F1001F0BEFA08BF032008D007F0B1FD0446E9
S31508008F2007F0B2FD2146FEF720FD022007F0B8FD46
S31508008F3009F0D4F800F00DFEBDE810400AF0C2B8FA
S31508008F4038B5DFF8044BDFF8FC5AA075FFF762FF67
S31508008F5000214FF6FF7001F08DFA2868417B03293E
S31508008F6018BF00291ED0332918BF432914D101F090
S31508008F7030FA2868017B032918BF042906D1032182
S31508008F804173A07DBDE8324006F062BAA07D06F0C6
S31508008F905FFABDE83140B2E721214173BDE83140AF
S31508008FA00AF0ADBD31BD10B5DFF8981ADFF8984A5A
S31508008FB00968002048734FF6FE7007F08CFC4FF6E0
S31508008FC0FF7007F090FC01F004FAA07DBDE81040A0
S31508008FD006F03EBA70B5044684B0E07A0FF2D001C6
S31508008FE0DFF8605A0290234694F90A000190152288
S31508008FF0208901F0AFF82868407B60B9208901F024
S3150800900047FA08D000F042F905D106F0E2F910B99E
S3150800901006F0F3F910B1702004B070BD2868007D21
S3150800902080070AD507F053FC4FF6FE7188420246C0
S3150800903004D10CF06CFF024600E0002221461046DF
S3150800904001F0E0F806000DD12868007D80074CBFC6
S315080090500220012001F0B8F8002101200BF055F993
S31508009060060001D03046D7E7DFF8DC09007F08B1F3
S3150800907009F0F9FC00220821204607F08EFD30B1E0
S315080090800421204606F0CBFF08B9A520C4E7DFF87F
S31508009090E80A00782074DFF8E40A60610020E081BD
S315080090A0204600F0F8F8064606F017F9DAE7000059
S315080090B0423870574242000010B50446234618222B
S315080090C001F089F9DFF8B80A0021017114B1FF2C03
S315080090D002D10121017007E0012100F8041BA1005B
S315080090E0491C090211F032FC00F033FD002010BDC6
S315080090F0DFF88C1A00200871DEE730B50D4689B016
S31508009100044668690FF2781107902346287C069072
S315080091101622E8890590287B0490E87A039095F949
S315080091200A00029028890190009501F014F8287B1E
S3150800913000280CBF4FF6FE7007F0C9FB2B462246E7
S3150800914009B0BDE83040014601202DE9F041DFF8BD
S31508009150F46880463068407B00280F4614461D4652
S3150800916049D1200047D0052C45DA00F08FF842D1C6
S3150800917006F02FF900283ED106F03FF908B1042C75
S3150800918039DB287B032816D14FF6FE70874214D1A7
S31508009190012C08BF002710D0022C2CD107F097FB12
S315080091A04FF6FC71884202DA07F091FB01E00CF0F9
S315080091B0AEFE074601E0012C1DD0B8F1000F0CD019
S315080091C0287B03280CBF01210021012C0CBF01209C
S315080091D000200BF09AF801004FD12946384601F0D5
S315080091E011F8010049D105F09FFF06F0AFF820B14C
S315080091F006F003F908B170203FE03068DFF84878D8
S31508009200407B33281EBF53280020F875204600F0FF
S31508009210DBFF387F20B106F0F0F808B909F023FC27
S31508009220287B032803D12846BDE8F04133E008220D
S31508009230294607F10A00FBF7D4FA287B0328A8BFBA
S315080092400020B874FFF7E6FD9420B875B87C31683D
S3150800925000280CBF012031204873002038750120F2
S315080092603168897BBA7F00FA01F1052011F097FF72
S31508009270010002D0326800215173BDE8F081000078
S31508009280424238705742424257424400DFF8A00C27
S3150800929000780B28704710B504460022082107F00D
S315080092A07CFC08B1012010BD07F011FB00224FF627
S315080092B0FF7100F0CBFF217C204600F0E3FF6269D6
S315080092C0E189207C08F03DFFDFF878070068007B1D
S315080092D0012808BF0BF0A3FDFFF711FE002010BD03
S315080092E038B5DFF8604701462068407B002802BF92
S315080092F0DFF83C0C00780B2801D0702032BDDFF86F
S315080093000C5821B1022205F10800FBF76AFA6846F3
S3150800931001F087F808B1932032BD9DF80030142279
S3150800932001F059F800F0FAFF010044D19DF8000059
S3150800933000F04AFF2068007B012818BF022807D0E2
S31508009340032818BF042825D1002001F0A5F808B382
S3150800935000F0FBFF2068007B032814BF042812F0E6
S31508009360C9FAFFF7CCFD012012F0EEFA010022D16E
S315080093702068007B032818BF04281BD1287A800799
S3150800938018D50522DFF8F417012000F01BF80100B4
S3150800939010D032BD2168132048730020DFF8A816C4
S315080093A0087501202168897B00FA01F1052207204A
S315080093B011F0F5FE002032BDDFF88C06C07D70473F
S315080093C0FF22FFE72DE9FC41804600F0D1FB0D4660
S315080093D0017B0129164623D0407B022818BF0328A3
S315080093E01ED1332007F05CFBDFF85C76BA7F29468E
S315080093F0052011F0D4FE044698B9FFF70BFD07F0D7
S315080094006EFA38815FEA080014BF02200120B8749A
S3150800941007F10A0001F01DF800203875FE7500E016
S3150800942070240194009543462C220FF2100100F097
S3150800943092FE2046BDE8F681000000004242444202
S315080094400000000038B5044604F020FF0546204613
S3150800945011F0A1FB2C18204603F096FA4FF6FF519F
S3150800946001402046BDE8344003F095BA70B588B08F
S315080094700C4616461D4630B9204612F067FA03A96F
S3150800948009F0F9F903A807218DF808100190310AA7
S315080094908DF80A1001200C998DF80B1000908DF8A4
S315080094A00960042302AA012120460AF0DCF80646D0
S315080094B0FF2E18D0214611F0B0FB15B93046FFF73C
S315080094C0C1FF0D9808B930460DE0204609F006FAA6
S315080094D018B1304612F068FA01E000F036FE304660
S315080094E004F04AFFFF2008B070BD2DE9F14F84B0A3
S315080094F0894615469B4600274FF6FF7455B1284600
S315080095000AF0F4F88046687840084FF0010A00F03F
S31508009510010605E0484611F0E8FBBA4600268046F3
S3150800952000F099F8032818BF042800F091800BF181
S315080095300101C9B2484605F0C5F88346400800F05F
S3150800954001008DF808005FEA0B6000F0ECFC58BFDC
S315080095504BF0800B022806D1DFF824169DF8100080
S315080095600978084301D1022721E0404607F05EF951
S31508009570ADF800000321484611F007FB040008BFB8
S315080095800124BAF1000F03D0281D03F0FDF901E00C
S31508009590BDF800000146009401235A46404609F0EA
S315080095A091F804464FF6FF70844208BF0127EDB1D3
S315080095B09DF8100018B94FF6FF70844204D1281D93
S315080095C003F0E2F9014600E02146012001900097E8
S315080095D0334622464046FFF749FF9DF8080050B932
S315080095E04FF6FF7140460BF067FE04E03A46214607
S315080095F040460EF047FB5FBB9DF8080080B1414628
S3150800960020460BF07AFEDFF83C140968896A0E22B8
S31508009610424311444A7942F040024A710BF0BBFEBC
S31508009620B5B1DFF8B85C85F8009007F050F90EB1CF
S31508009630002605E09DF81010002914BF0326012610
S31508009640014643462246304601F086FCFF20287034
S3150800965005B0BDE8F08FDFF82C050068007B704781
S315080096602DE9FC478046894601A800210160164677
S31508009670484611F09AFA05465FEA0800DFF8607C6A
S3150800968008D028460AF032F8824628460AF023F817
S31508009690044604E0484611F028FB82463C46002072
S315080096A0009004233246494601A804F004FF0DF150
S315080096B0050003F069F981469DF807605FEA08002E
S315080096C006D0082239462046FBF7D5F8002870D17F
S315080096D0DC4F3868C17E11B16978890713D55FEA0E
S315080096E0080110D0407B022808BF002E0BD148463F
S315080096F007F0F1F809F0BAFC992300F06BFE9920FF
S3150800970005F0A6FE55E007F060FA002818BF002EFF
S3150800971003D09420FFF714FC4BE007F056FA002814
S3150800972047D050460BF05EFCFF2818BF5FEA0801D9
S3150800973004D13868408851460BF0DFFD0BF02BFE4C
S315080097403868DFF8C86341885246484600F07EFD0F
S315080097503868BD4C417B012916BF312911214321A7
S315080097604173022005F052FE40F6B831304611F03A
S31508009770EDF812F0BFF8002060753868C17E19B997
S31508009780304611F0D9F811E0B8F1000F05D0697824
S31508009790890702D5FFF78AFB08E0007B042805D174
S315080097A00521304611F0D2F806206075AD20FFF786
S315080097B0FAFA05F092FDBDE8F3872DE9F04F8DB072
S315080097C0824611F0F2F9814611F03AFA03905046B2
S315080097D011F08BFA804602AB052205A9504612F015
S315080097E0C1FB02288DF80000019021D0504611F0E7
S315080097F0D2F90399944D934E08189DF808100F183E
S315080098005046FFB2394604F05DFFFC1C01284FF6AE
S31508009810FF7B0ED0022813D0042800F0F08006281B
S315080098201AD007286CD0082827D07C2800F0AD80ED
S3150800983005E13B46002251460020FFF756FEFEE0B2
S315080098403068407B012804BFA87C002803D13A462B
S315080098505146FFF705FFF2E0404608F0F2FF0146E1
S3150800986059451CBF40460EF0D9F93068407B02289E
S3150800987002D1404611F09CFAE1E0002011F0A2FA6C
S31508009880791C00F0E3F88146E1B200F0E0F80446FE
S31508009890B91D00F0DBF807465F45EDD012F02AF84F
S315080098A03068407B132808D100F04FFD504611F070
S315080098B01CFA014620460BF020FD3068407B022842
S315080098C018BF13281BD1384607F005F8484607F095
S315080098D00AF80021002000F0D5FC4146204600F099
S315080098E0C9FDE878DFF8941C087000F032F9306892
S315080098F0417B132903D12321417311F0EBFC9EE030
S3150800990003980121484404F0BAFD044600230022C6
S315080099102146012011F04DFA204604F02DFD30684D
S31508009920407B022802BFDFF8406C30790028E6D178
S31508009930404612F035FB002806D09DF8001005AA0F
S31508009940504612F029FB002879D012F04CFB95F905
S315080099501D2001219140C1EB011189B290FBF1F262
S3150800996001FB1200451C002005F050FD0198012856
S3150800997006D130700822414606F10C00FAF731FF8D
S31508009980A9B2301D10F0E2FF59E0504604F07EFC03
S31508009990C0194178652904BF80786D284FD173496D
S315080099A0096811F80A10E0B2884248D208224146EE
S315080099B003A8FAF716FF6B460022E1B2504609F0F3
S315080099C02DFD00283BD19DF80000FF2837D0DFF891
S315080099D0B44BDFF8B45B0120207085F800A005F0D1
S315080099E0C4FB9DF8001003A8FDF77DF905F078FB88
S315080099F0FF202870002020709DF800001DE05046CA
S31508009A0011F092F904460FF6D0300088ADF80A0036
S31508009A1002230020019000900DF10A020121204640
S31508009A2009F021FE0546FF2D09D0214611F0F5F86B
S31508009A300021284607F016FD284604F09DFC0DB0C7
S31508009A40BDE8F08F447C0020AC720020C9B25046B5
S31508009A5004F0F3BE70B5022005F0E7FC05F00FFB35
S31508009A602A4DDFF8286B002028700EF02FFA28B14F
S31508009A703068C07E10B9FFF719FA3DE00EF026FAF5
S31508009A80DFF80C4B10B907F0A0F858B1607D48B163
S31508009A90C821284610F05AFF607D401E607507F001
S31508009AA0D5FD29E03068407B132809D007F08DF8EA
S31508009AB030B93068407B11281CBF4328412803D1A0
S31508009AC0A07DFFF73DFA17E0022818BF032803D048
S31508009AD0002818BF21280FD10024DFF8B85A07E05C
S31508009AE005F0CDFA002000F0FCFC05F0F9FA641C3C
S31508009AF02978E0B28842F3D3BDE8704005F0F0BAA1
S31508009B00DFF88C1A0020487570470000507900204D
S31508009B1010B5002005F089FC05F0B1FADFF8484ACF
S31508009B200020207100F024F8417B02290DD1007B2A
S31508009B30032818BF042808D0207810B10DF0E6FFD6
S31508009B4001E00DF088FF00202070BDE8104005F008
S31508009B50C7BA80B505F00AFCFF281ABF084800787E
S31508009B600020BDE802400DF064BF0000E871002047
S31508009B70DFF8180A00687047BE7F002000F8FF0764
S31508009B8044790020447C002080B500F0ABFB00201F
S31508009B9002BD2DE9F04F97B0804606A8102112F0B5
S31508009BA033FA0DF1090305220EA9404612F0DAF937
S31508009BB007460026022FB14600F0AD81404604F064
S31508009BC065FB0446A01D02F0DFFE059004F10900BE
S31508009BD002F0DAFEADF80A0004F10B0002F0D4FE3A
S31508009BE08246DFF8B409006810F808000190012FD2
S31508009BF06AD101200490002706210EA8794344184B
S31508009C00208802285CD1E07800F088F91B2857D113
S31508009C10E078C11C00F083F9192851D1E078011DBC
S31508009C2000F07DF94A284BD10525E0782818411C13
S31508009C3000F075F98346E078291800F070F900EB12
S31508009C400B2080B2932800F03F0B1BD1E078281830
S31508009C50801C5FFA80FA002000900F235246414686
S31508009C6006A804F028FC0AF10F01C9B2404604F020
S31508009C70E4FD06460AF11101C9B2404604F0DDFDCD
S31508009C80824616E0412814D1E078281800F046F9F3
S31508009C90DFF808190978401AA0F14D09DFF8EC0831
S31508009CA00068007B032812BF04284FFA89F012F0D7
S31508009CB0BBF90BEB0500851C2179EDB28D42B4D3B7
S31508009CC07F1C052F0BDA97E7CDF8109004F10D00ED
S31508009CD002F05AFE064606A94046FFF7A8F8F00B1A
S31508009CE08DF8080000230D224146062011F061F880
S31508009CF006AFB878C0F3C3000390787800F00F0475
S31508009D000198202800F00FF9ACBF9DF826500025D1
S31508009D10022814D1BDF80AB006F0E1FD83450ED13C
S31508009D200AA800F096FB0198202806DB08220DF108
S31508009D301B010AA8FAF79FFD08B108F03DFB059834
S31508009D40B0F5004F11BFB0F5624F26F4404040F61B
S31508009D50FF71884276D101982028C0F2DC80002263
S31508009D6008210DF11B0006F018FF00286AD170487B
S31508009D700078012847D1019427229DF80800BDF8EC
S31508009D800A300FF65801DFF85465DFF814B800F00A
S31508009D90E1F9DFF8100800788DF82A008DF83440CC
S31508009DA08DF835500822BDF80A00ADF828000DF1E7
S31508009DB01B019DF808008DF82B000BA8FAF711FD7A
S31508009DC000F0B1F801281CBF332886F8008005F09A
S31508009DD0CCF9DBF8000078B10DF101000EF00BF8B4
S31508009DE068460EF00AF89DF900209DF80110DBF888
S31508009DF000300AA8984702E00AA8FCF708FEFF20E8
S31508009E00307005F06DF9DFF88867307D002819D1C4
S31508009E1006F0DBFE002824D00120F0740022082179
S31508009E2006F10A0006F0B9FE20B1BDF80A0031892C
S31508009E30884208D008220DF11B0106F10A00FAF73C
S31508009E401AFD002867D19DF8080028B900F06BF8BC
S31508009E50312818BF33285ED101212046FEF790FF2E
S31508009E60002858D09DF81800002802BF7878000905
S31508009E70022850D1FFF77CFE017BBA7802290CBF75
S31508009E8002F0040202F0800222B9022943D0408877
S31508009E90504540D13078DFF81077FF2814D0707914
S31508009EA085420DD1DFF8F41696F9020091F90010F3
S31508009EB0884209DB2FD170783978884204D32AE0A2
S31508009EC0281AC0B2812826DAFEF7A4FF86F8008091
S31508009ED0404604F043FA387870700DF11B01DFF83C
S31508009EE0BC060078B07003980F28B4BF401C0F203A
S31508009EF0F07034717571A6F818A00822BDF80A002A
S31508009F00308186F8079006F10A00FAF76AFC049889
S31508009F1000B10120B07117B0BDE8F08F811CC9B23D
S31508009F20404604F0CFBBDFF864060068407B704704
S31508009F30917300202DE9FF410546DFF854460120BC
S31508009F4020750E46174601F0C3FE00281AD1A8460A
S31508009F50B8F1010F18BF002D15D1009733462622F8
S31508009F60C7A100F0F8F805F000F9DFF84006026826
S31508009F7010003946304601D0904701E0FCF76CFDE9
S31508009F8005F0AEF8D5E0DFF804562868407B2328AC
S31508009F900DD106F075FD044606F076FD2146FDF75F
S31508009FA0E4FC022006F07CFD10F061FFC1E0002F02
S31508009FB0FCD121281CBF0428532802D109F09FFD93
S31508009FC0B7E006F002FE002800F092802678FF2E01
S31508009FD005D1E07C00280CBFAB2094209DE02868C2
S31508009FE0007B032816BF0428012100212079FEF7EB
S31508009FF0C7FE08B9982090E003F088FA0521304694
S3150800A00010F0C3FD2968887305F067F9A07CF8B9D4
S3150800A01000F02AFA02462189208B0DF05AFE002804
S3150800A0205DD19420FEF7BFFE022005F0EFF92968FE
S3150800A030DFF87C054A7B012A05D0312A12BF332A6C
S3150800A040097B04294DD1C82110F080FC03204DE07E
S3150800A05006F03DFC0646208B002100F00BFA06F0C0
S3150800A060B4FD60B1300003D04FF6F870864206DBC7
S3150800A0700BF04DFF2968498888420646F8D03046D5
S3150800A08006F029FC2078092110F064FD06F02BFC67
S3150800A09006208DF8080000F0E7F98DF8090002237C
S3150800A0A000200190009002AA28684088012109F042
S3150800A0B0DAFA0646FF2E12D028684188304610F094
S3150800A0C0ACFDA07C02281CBF3046FFF7BBF900F0A8
S3150800A0D03CF80746304604F04FF9002FA1D19420EA
S3150800A0E01BE04FF4167110F031FC0020607520E07B
S3150800A0F02868407B132816D100F008F9BDF800003F
S3150800A10006F0F1FB00F021F92868017B032918BF46
S3150800A110042905D1332141739620FEF711FF08E083
S3150800A120FEF7EDFE05E0B8F1040F04BF304612F065
S3150800A130A1F84FF4006008F034FA10B912F038FAB2
S3150800A14008B107F0E1F9BDE8FF8100220021304699
S3150800A15012F0D4B9009003200CF052BE1FB5044685
S3150800A16000208DF80000FFF703FD007840F020007E
S3150800A1708DF801000DF1030000F06BF90322FF21B1
S3150800A1800DF10B00FAF770FB07F0C5FF8DF80E000E
S3150800A190DFF82014DFF8E403DFF81C2400780978D8
S3150800A1A01278C00040F00400914238BF40F08000A9
S3150800A1B08DF802000F226946204604F0ECF9401E8D
S3150800A1C08041C00F04B010BD38B5DFF8C05304464F
S3150800A1D02868017BA14203D00473204605F032FAB1
S3150800A1E02CB101F0B2FC2868007B042805D105F0E3
S3150800A1F0D7F8FF2808BF012000D00020BDE832406C
S3150800A20007F04CBC38B50D46044695F90A0006F029
S3150800A210E8FC08B18B2032BDDFF870030268E97AE2
S3150800A22091730068A97AC173204606F054FB4FF66D
S3150800A230FE7084420CBF4FF6FF70288906F053FB68
S3150800A2402889DFF84C130881002032BD38B50C4642
S3150800A250154606F040FB0BF02DFE2946204600F079
S3150800A26009F9CB480178FF2918BFC07805D1FFF74F
S3150800A270F2F901280CBF00200120C049087031BD41
S3150800A280424242007FB504460D4600F03FF8BF4EF5
S3150800A29094B1CA4A0021284607F053FF306801786E
S3150800A2A08DF804100822007B8DF80500214602A8C7
S3150800A2B0FAF797FA00F040FA3068817B8DF80310B8
S3150800A2C0C07B8DF8020006F00AFBADF8000006F028
S3150800A2D0FEFAADF8060000F01BF87FBD9773002064
S3150800A2E0AC7A00201FB5044600F010F81CB1002017
S3150800A2F08DF8050007E006F0EAFAADF8060006F064
S3150800A300EEFAADF8000000F003F81FBD684635E028
S3150800A310102307226946002002F063BD00B58BB002
S3150800A320FFF7F4FFBDF80000ADF8180004A99DF882
S3150800A33003008DF81B009DF802008DF81A00BDF881
S3150800A3400600FFF75FFF0BB000BD1FB5012000F048
S3150800A350A3F8044600F0FBF9FFF7D8FF1CB9002262
S3150800A3604FF6FF7103E0FFF703FC4188021DBDF8B5
S3150800A3700600FFF76BFF12F0D1FB1FBD0146102345
S3150800A3800722012002F02DBD38B5082005F04DF84A
S3150800A390044604F074FE7D4D894829680078887360
S3150800A3A004F02CFFA04208BF04F04BFF0021002058
S3150800A3B0FFF768FF9B2300F00DF89B2005F048F88F
S3150800A3C02868002120F8441F4180BDE8314004F088
S3150800A3D087BEA37D13226AA103200CF011BD10B518
S3150800A3E0044604F0CFFCFF2801D18A2010BDFFF7F0
S3150800A3F09AFD022818BF032801D0702010BD7048A6
S3150800A4000470082005F002F8FEF740FF01D03D2051
S3150800A41010BD6C4806F0E5FF08B9A12010BD002064
S3150800A42010BD1FB504466846FFF7A8FF9DF805004E
S3150800A430010008D0052806DA544909689DF8042061
S3150800A4400978914201D0932001E02070002004B0E1
S3150800A45010BD1FB504466846FFF790FF082202A9FB
S3150800A4602046FAF7BEF91FBD484957480968097BCF
S3150800A470405C7047454A1368588019B90822181D68
S3150800A480FAF7F2B90822181DFAF7ABB9BDF80800B1
S3150800A4904FF6FF718842704710B504464448007A63
S3150800A4A0C00784B007D500F011F8FFF7EFFF02D018
S3150800A4B000F012F808B1002006E024B1BDF8080043
S3150800A4C06946FFF7D7FF012004B010BD0A230A2208
S3150800A4D06946012002F085BC0822FF21684606F07D
S3150800A4E05CBB70B5324D0446287AC00784B00CD5DB
S3150800A4F0264E306841884FF6FF72914207D10022F6
S3150800A5000821001D06F049FB08B100201DE044B1F2
S3150800A510022004F07BFF4FF4F041284610F016FAAB
S3150800A52012E030684188ADF808100822011D684617
S3150800A530FAF757F90A230A22FFF7ECFE02230B2241
S3150800A5402249002002F04DFC012004B070BD204ACB
S3150800A550107038B11F480088010003D08102101D11
S3150800A56010F0F4B9704700005C79002018480078AC
S3150800A570704717480021017101707047E57F002078
S3150800A58042420000747C002097730020447C00201F
S3150800A590AC7200206D730020E8710020DE7D00207B
S3150800A5A0A4790020DF7D0020DD7D0020A879002029
S3150800A5B050790020D87F00207873002000F8FF0724
S3150800A5C0BF7F002089A30008D42A0108F67D002051
S3150800A5D07079002038730020046000004257424218
S3150800A5E00000000070207047702070477020704788
S3150800A5F0702070477047000030B505460C4683B09A
S3150800A600282200212046FAF72FF9681EA5701ED0C9
S3150800A610801E01284FD8032D0CBF012500252A4688
S3150800A62004F11C01E01C0AF013FA35B1208840F049
S3150800A6300200208012F056FC6061208840F001007C
S3150800A64020801021E01C00F0A0F8B0BB06E0DFF87F
S3150800A650C4552868007D10F0300F01D1B2203EBDE8
S3150800A660208840F0020020800CF07BFD6061E01C31
S3150800A67000F0ABF8684600F0BCF848B10822694615
S3150800A68004F11D00FAF7ADF8208840F00800208094
S3150800A69028684069C00303D4208840F01000208051
S3150800A6A006F015F90028CCD02868406AA0612088F1
S3150800A6B040F00400C4E770203EBDE01C0FF020FB0C
S3150800A6C000203EBDF0B587B004460D4616461F4627
S3150800A6D0684600F088F83EB1082231460DF10200BE
S3150800A6E0FAF77FF845F040052FB1102239460DF1EB
S3150800A6F00A00FAF776F8DFF81C0500684169A143F5
S3150800A7002943416148040CD5BDF800000A0A00F443
S3150800A7100E4002F4E242104301F0FF010843ADF88F
S3150800A72000001A2308226946002002F05AFB07B0E7
S3150800A730F0BD00230022C5E7DFF8D80400684169A8
S3150800A74041F48041416147F2FF100140F1E700B54D
S3150800A75087B012F0DAFB684600F045F8DFF8B40473
S3150800A7600068BDF800204169090A120A090202F0C8
S3150800A770710241EA0241BDF8002002F0FF021143CE
S3150800A78041F48041416107B000BD38B504460D4625
S3150800A790002206F002FA40B9FF222946204606F0B2
S3150800A7A0FCF9401E8041C00F32BD002032BDDFF8E3
S3150800A7B064040068007D00F03000102818BF2028C7
S3150800A7C001D1012070470020704710B588B00446B3
S3150800A7D0684600F008F810220DF10A012046FAF73B
S3150800A7E000F808B010BD01461A230822012002F01D
S3150800A7F0F8BA10B50446DFF81C04006888B040694A
S3150800A800810705D50822FF212046FAF72DF80AE028
S3150800A81040060AD56846FFF7E6FF08220DF1020151
S3150800A8202046F9F7DEFF012000E0002008B010BD41
S3150800A83080B539B9DFF8DC130968097D490601D501
S3150800A840002002BD0246002300210020FFF73AFF40
S3150800A850012002BD0021EBE70121E9E71CB504460A
S3150800A8606846FFF7C6FF40B1082221466846FAF750
S3150800A87002F8401E8041C00F16BDFF22082120465F
S3150800A88006F08BF920B106210020FFF752FF04E0FD
S3150800A890002322460021FFF715FF012016BD2DE9EA
S3150800A8A0F0470D4692B081461646012100241F4600
S3150800A8B000F02AFA8046B80707F0010A0BD507A95F
S3150800A8C048460FF053F820B100F06FF806B134602F
S3150800A8D01BE0A6201AE0B8F1FF0F1AD007A94046D8
S3150800A8E000F0AAF9010011D10DB100F05EF82EB101
S3150800A8F0DFF82403006800EB88003060BAF1000F27
S3150800A90003D0BDF81C00C00647D5002012B0BDE82C
S3150800A910F087DFF8007356B105F0D9FF18B138682B
S3150800A920017D890701D5346001E024303060FFF7E6
S3150800A9303EFF0028CDD06846FFF755FF08220DF1E7
S3150800A94002014846F9F797FF28B13868007D00F0FC
S3150800A95044004028BDD0BAF1000F04D038684069D9
S3150800A960C00348BF0124B5B105F0B1FF002801BFF7
S3150800A9703868007D00F08400842807D12B46082219
S3150800A98049460DF10A0012F058FD04E010220DF1B7
S3150800A9900A0100F00DF8002CB7D042464FF6FF71B9
S3150800A9A0182004F06AFDBB20B0E710220DF11F0144
S3150800A9B02846F9F716BF80B5002300220021FFF7C5
S3150800A9C06EFF401E8041C00F02BD00B583B06846C9
S3150800A9D0FFF70FFF10B16846FFF7EDFF0EBDF0B5A4
S3150800A9E085B0074605F073FF00240025A8B106F0D8
S3150800A9F04FF890B103A8FFF7FCFE70B12FB10822FB
S3150800AA0086493846F9F737FF38B1824E3068017DF6
S3150800AA10890705D5417B112901D0702046E0448875
S3150800AA209FB10822394603A8F9F725FF68B108201F
S3150800AA308DF80000082202208DF8010039460DF134
S3150800AA400200F9F7CEFE0A2107E008208DF800007B
S3150800AA50012504208DF801000221684603F00FFD48
S3150800AA600746FF2F21D0FFF7A2FE00B1022031686A
S3150800AA70097D89074CBF04210021084340F00103E2
S3150800AA803A460021204609F0C1FD040007D00021FE
S3150800AA90012000F00DF815B161490120087038460B
S3150800AAA003F06AFC0CB1002000E0182005B0F0BDE8
S3150800AAB05C4A11B141F2883105E05B4909784EF6E6
S3150800AAC06023594304D000281CBF10460FF03EBF30
S3150800AAD000201070704730B583B008220021684600
S3150800AAE0F9F7C2FE05F0F3FE504C18B900F08EFDDA
S3150800AAF00D250FE0607860B14D49207809788842C5
S3150800AB0007D200F00EF820B901210120FFF7D0FF87
S3150800AB1037BD042500F070F82946684604F08BFC1A
S3150800AB2037BD424900B50A78521C0A707020497828
S3150800AB30012983B002D100F012F80EBD022909D10D
S3150800AB406946002005F08DFE010007D16846FFF72B
S3150800AB5046FF0EBD032908BF0AF027F90EBD0022DD
S3150800AB604FF4A071002008F0EDB970B598B005460D
S3150800AB700E4604A8502111F047FA2C4C607801289B
S3150800AB8008BF002D36D101A9304608F02BF929490E
S3150800AB909DF804200968895C0D1A00210091024677
S3150800ABA09DF80410EBB204A803F085FC02A9002066
S3150800ABB005F057FEF0B9EDB2E5B19DF81100C8B938
S3150800ABC09DF81C00000200F47E40B0F5285F0BDB00
S3150800ABD00120207002A8FFF702FF01210120FFF7DC
S3150800ABE067FF0220607005E000F006F81E2102A843
S3150800ABF004F021FC18B070BD00206070002157E7F2
S3150800AC000A490870704709484078704707494870EC
S3150800AC1070470000447C002054720020AC7A002063
S3150800AC20C07F0020A4780020AA7F0020B87F0020DB
S3150800AC308C730020E871002030B500F026F987B043
S3150800AC4028BFB12039D200F026F918216846FFF747
S3150800AC509CFD08B9B62030E0282200212846F9F7DD
S3150800AC6003FE102202A9E81CF9F7BBFD0822694673
S3150800AC7005F11D00F9F7B5FD082028809DF8180094
S3150800AC8081075CBF18212980410703D5298841F02F
S3150800AC9020012980C0070FD50520A870AC48006898
S3150800ACA050F82400A8610CF05CFA6861288840F026
S3150800ACB006002880002000E0B22007B030BD38B575
S3150800ACC00C46FFF7B9FF0546E01C0FF019F82846B1
S3150800ACD032BD38B50446154609B9702032BD012182
S3150800ACE000F012F8FF2803D10121002000F00CF82B
S3150800ACF0FF2807D02B46224601B0BDE83040014662
S3150800AD00002045E0B42032BD2DE9F04188B0044664
S3150800AD1009B9702039E02CB10022082105F03DFF61
S3150800AD20074600E001270026884D04E00821FFF7C2
S3150800AD302CFD38B3761C2978F0B2884224D201A8B3
S3150800AD4000901923F2B21821684606F03EF90098D9
S3150800AD5090F81880002FE9D108222146F9F78BFDD3
S3150800AD600028E7D1009808300AF055F808F00101E4
S3150800AD7081F001010843DDD104F0D6F9C8F3C20118
S3150800AD808142D7D1F0B200E0FF2008B0BDE8F081DB
S3150800AD902DE9F04116466D4A127891428AB00C4662
S3150800ADA0984628BFB1204DD2254630B910214046D5
S3150800ADB0FFF7EBFC38B9B22044E01922002102A8BB
S3150800ADC0F9F752FD32E001213046FFF79DFF0746AD
S3150800ADD0082260493046F9F74EFD68B1FF2F18BFC3
S3150800ADE0AF4209D16846FFF704FD38B10822694623
S3150800ADF03046F9F740FD08B9B32023E0082231466A
S3150800AE0002A8F9F7EEFC1022414604A8F9F7E9FC76
S3150800AE100FF0CEF8002814BF0026022604F084F9A5
S3150800AE2046EAC00040F001008DF82000002048499D
S3150800AE30096841F82500192302AA2146182006F0B8
S3150800AE40DAF800200AB0BDE8F08170B500F01DF808
S3150800AE5088B0164628BFB12015D200F01CF8192173
S3150800AE606846FFF792FC08B9B2200CE09DF8181066
S3150800AE70B14329438DF8181019236A46214618202C
S3150800AE8006F0B9F8002008B070BD0D462F490978BC
S3150800AE90044688427047192322461821684606F058
S3150800AEA083B810B50C460121FFF72EFFFF2808D0FE
S3150800AEB0002CBDE8104007BF04220021002204210F
S3150800AEC0C3E710BD10B504460121FFF702FF20B104
S3150800AED00521204604F0AFFA05E001212046FFF7D8
S3150800AEE013FFFF2801D1002010BD02220021FFF721
S3150800AEF0ACFF0121204604F09EFA00210020FFF74E
S3150800AF00D7FD012010BD70B588B000250F4C16E09E
S3150800AF1001A800901923EAB21821684606F055F8E8
S3150800AF200098067E04F000F9C6F3C201814205D1F5
S3150800AF3000230022E9B20120FFF72AFF6D1C2178C1
S3150800AF40E8B28842E4D3002008B070BDA57F00208F
S3150800AF5054720020AC7A00202DE9F047DFF8444708
S3150800AF608AB007462068C07E0028884691469A46D9
S3150800AF7070D005F0ACFC48B12068007D800705D488
S3150800AF803A465146484609F01FFC63E038003C46FD
S3150800AF9002D10125012604E0032C14BF0025012552
S3150800AFA0002604F0E2F843463A4651464846FCF77E
S3150800AFB043F8074604F094F8009723461E22A6A1F4
S3150800AFC003200BF01DFF57BB86F00100054231D068
S3150800AFD00FF2F86104A8D1E90023C0E9002306A806
S3150800AFE00FF2F06110220EF0BFFB022300F047F8C3
S3150800AFF050B102230022694604A8FFF750FC18B195
S3150800B000002300F03CF8A8B9102206A96846F9F70B
S3150800B01032FC78B9FFF7AAFA60B9032718E0012FBE
S3150800B0200AD100230196009542465146484600F04B
S3150800B03015F90DE00123F5E7022F09D169464046C7
S3150800B04005F00FFC20B952466946404600F01CF848
S3150800B050022F11D005F03BFC80451CBF4FF6FF7050
S3150800B060814509D0504607F0ECFB484504D14846CF
S3150800B07010F06CFC07F0E3FC0AB0BDE8F08700228C
S3150800B08069465046FFF70BBCFEB5044616460D4604
S3150800B090304607F0D6FB074605F019FC18B94FF6F7
S3150800B0A0FF70844201D17020FEBD874204D0002182
S3150800B0B0384608F019FEFEBD07208DF80000082264
S3150800B0C031460DF10100F9F78CFB0921684603F0BA
S3150800B0D0D6F90646FF2E0CD00123324629462046CD
S3150800B0E009F094FA0446304603F046F90CB10020FC
S3150800B0F0FEBD1820FEBD00B583B0024669464FF670
S3150800B100FF7000F001F80EBD2DE9F04304464FF636
S3150800B110F870844288461746ACBF012500258FB0D3
S3150800B12005F0D5FB0DF1140930BBDFF8786500F0A2
S3150800B13069F921D41FB1384609F06DFE28B105A872
S3150800B14005F03AFD10B1A52039E0B946694609A8C7
S3150800B15009F044FE684609F05EFE78B99DF81000CD
S3150800B1609DF83410401AC0B2812807DA10226946C1
S3150800B1704846F9F780FB48B1702020E09DF8340076
S3150800B180411C0022C9B2484609F014FC21272DB1FA
S3150800B190082200214046F9F767FB00E023273B46D3
S3150800B1A04A464146204600F0C2F838B125B1306813
S3150800B1B0DFF8F414407E0870002000E018200FB075
S3150800B1C0BDE8F08330B58BB005F081FBA8B9DFF890
S3150800B1D0D4442068007D80070FD401A906A809F089
S3150800B1E0FDFD9DF828009DF81410401AC0B281286C
S3150800B1F003DB01A809F00FFE08B170202AE005F06C
S3150800B20066FBDFF8A41409780AF0A2FD08B1B82095
S3150800B21020E0002109F08BFB09208DF800000221AF
S3150800B220206890F820008DF80100684603F027F999
S3150800B2300446FF2C0DD00123224600214FF6FF704D
S3150800B24009F0E4F90546204603F096F80DB100200A
S3150800B25000E018200BB030BD424242002DE9F04311
S3150800B2600446DFF8400400688DB04069C008884687
S3150800B27091461E4600F0010505F029FB484504D114
S3150800B28030000CBF0427062710E0012730004C4683
S3150800B29018BF0B2755B96946484605F0E2FA28B99A
S3150800B2A06846FFF788FB08B147F002071499159816
S3150800B2B0014217D10EF054FBA0B102A940460EF088
S3150800B2C055FB78B90FF2FC316846D1E90023C0E98D
S3150800B2D0002302A90EF04AFB20B10DF10B014046EE
S3150800B2E00EF06EFA2E4207D007F0040040F0110265
S3150800B2F04146204600F008F83A464146204600F006
S3150800B30003F80DB0BDE8F08370B586B004460D4667
S3150800B3101646112306226946012001F062FD3346CE
S3150800B3206A462946204600F002F806B070BD00B508
S3150800B33083B0019300920123002209F06AFA0EBD38
S3150800B3402DE9F0410F4688B080467C780822002116
S3150800B35002A8F9F789FA05F0BAFA0625DFF8446370
S3150800B36010B100F04FF845D502A9404605F079FA24
S3150800B37008B10B253FE0022C02D0042C18D039E086
S3150800B38000F040F836D40822B91CDFF82003F9F794
S3150800B39072FA00282ED0DFF81803007860B1BA1CBC
S3150800B3A002A9404600F041F80546FF2D23D126E0C4
S3150800B3B0C0480078010001D111251CE002280AD1F5
S3150800B3C000F024F808B1122515E0032000F024F84F
S3150800B3D088B913250FE000F019F808B10A250AE024
S3150800B3E000F010F84CBF0520012000F015F810B940
S3150800B3F0082500E00925294602A804F01CF808B02B
S3150800B400BDE8F0813068007D800770470023002280
S3150800B41004A902A8FFF743BA0190042304A80090E0
S3150800B420002202A9404609F0F4B92DE9F84F05466D
S3150800B430A1480F4690460078A04EB946C246AB468C
S3150800B440FF2438BB00F0E2F83078FF285FD002F01E
S3150800B4501DFF8146307802F019FF357800F1080A99
S3150800B4601121284603F02EF906461021284603F036
S3150800B47029F900EB062B082239465046F9F7FBF95D
S3150800B48030B9082241464846F9F7F5F900283ED072
S3150800B4900E244DE03078FF28D6D1012002F001FFB6
S3150800B4A0FF28307008BF102442D00822394603F01E
S3150800B4B072F830780822414603F06DF8280A8DF8AC
S3150800B4C001008DF80050022230787D4F694603F05E
S3150800B4D062F83868317810F8018003F046FE317852
S3150800B4E02846FDF7E7FA03F0FBFD30783968095C72
S3150800B4F0884506D18DF8024001220DF1020103F0BC
S3150800B5004AF800210120FFF7D3FA0C2410E051462F
S3150800B51048460EF04FFD40B1524649461FFA8BF099
S3150800B52000F009F810B90F2400E0112400F06EF8B5
S3150800B5302046BDE8F28F2DE9F74F88B0104605F092
S3150800B54075F94FF6FF718842ADF8080058D003A880
S3150800B55005F032FB002853D10024584D49E02878DD
S3150800B560BDF820B0099FDDF82880FF282BD01221CE
S3150800B57003F0A8F88146B9F1FF0F24D0012002F0A4
S3150800B58090FE8246BAF1FF0F11D003F0EEFD514648
S3150800B5905846FDF78FFA03F0A3FD4948006810F8EE
S3150800B5A00A6006B10126504602F0E6FE5EB903F0CF
S3150800B5B0DCFD142000904A462B7839465846FDF79C
S3150800B5C04CFA03F08DFD402040F003000190032360
S3150800B5D003A8009042463946584609F01AF978B148
S3150800B5E00721384603F027FF641C022C0ADA002CD0
S3150800B5F0B5D1BDF808B00A9FDDF824800020E3E73E
S3150800B600002000E001200BB0BDE8F08F10B52B4CF0
S3150800B6102078FF2803D002F0AFFEFF20207000211B
S3150800B620BDE810400020FFF743BA10B584B00446C1
S3150800B63001208DF800001B480068827E531C837623
S3150800B6400E208DF801208DF8020008220DF1030066
S3150800B650F9F7C7F80B226946204602F09CFF401E00
S3150800B6608041C00F04B010BD30B587B004460D4602
S3150800B6700023002202A92846FFF711F901000DD17F
S3150800B68003200190042302A800902946074A204671
S3150800B69009F0BFF800F0010080F0010007B030BDE6
S3150800B6A000000000447C0020B47F0020AC7A002013
S3150800B6B076730020A67F0020AA7F002082730020D0
S3150800B6C0E8710020FFFFFFFFFFFFFFFFFFFFFFFFFF
S3150800B6D0FFFFFFFF5A6967426565416C6C69616ED9
S3150800B6E06365303910B504460C480068407B02286B
S3150800B6F002D105F0ECF808B1702010BD0021022037
S3150800B700FFF717F82046FFF7F6FC040003D00221DE
S3150800B7100020FFF70EF8204610BD00BF447C00202D
S3150800B720DFF88C0A007C00B101207047DFF8801A28
S3150800B7300A7C062A18BFFFF7F3BF80B5902803D105
S3150800B7400020087407F092FCBDE80140E8E770B5F0
S3150800B750164604460D46FF2205F01FFA28B90022B0
S3150800B7602946204605F019FA50B146B1690820461F
S3150800B77004F055FC08B9A52070BD002070BD7020E6
S3150800B78070BD70B50546084614461E463246082161
S3150800B790FFF7DDFF010015D1324602212846FFF7E3
S3150800B7A0D6FF01000ED12078010018BFFF2806D069
S3150800B7B0DFF8001AC140C80703D5702070BD1920EC
S3150800B7C02070002070BD10B5441A48BF6442C92CC9
S3150800B7D00A4602DB884203D201E0884200D30246C9
S3150800B7E0904201D1012010BD002010BD70B504465D
S3150800B7F0DFF8C409006886B00D46407B0F21084271
S3150800B80006BF94F828000228702040D10123A21C04
S3150800B810211D2046FFF7B5FF060038D194F826000B
S3150800B82000F0820040F0010011F09AFE94F828001A
S3150800B830DFF87C194874182200216846F9F714F8CD
S3150800B8400822211D6846F8F7CCFF2088ADF80800C5
S3150800B8508DF80A5041F60631A0788DF80B000320C2
S3150800B8608DF80C00DFF8540905900020FEF761FFFB
S3150800B870A18C94F82820080008BF4FF441716B4644
S3150800B8800120FDF762FC064603F027FD304606B0A8
S3150800B89070BD2DE9F041DFF82049064620688EB0D4
S3150800B8A0407B00F00F052C22314602A8F8F799FFD5
S3150800B8B0012D18BF042D2ED0DFF8F458287C50BB74
S3150800B8C096F82800401E032825D811F03AFEC0072E
S3150800B8D023D405F004F8074606F01DFC80466846A2
S3150800B8E0FEF7B7FD0822311D6846F8F7C4FF0028A1
S3150800B8F049D1707B4146FFF766FF00283AD004F02D
S3150800B900E6FF01460122304600F027F9DFF8B018B5
S3150800B9100020087035E0702061E00121002008F061
S3150800B920F4FC07005AD111F06BFE0FF6E4024FF64D
S3150800B930FF710120FEF78AFC96F826000027C0074B
S3150800B9400ED500220821301D05F027F940B9082236
S3150800B950311D03A8F8F745FF3088ADF8080006E062
S3150800B9600822002103A8F8F77FFFADF808708DF8C4
S3150800B970157017E005F044F902464146304612F0C4
S3150800B98011FC00202BE00822694603A8F8F729FFD6
S3150800B990ADF808708DF8158096F8280002280CBFB7
S3150800B9A001270227B0788DF80A000320FEF70CFC61
S3150800B9B002A9384612F0FBFA07000BD121680120CC
S3150800B9C048734FF4A0510420287405F118000EF0AE
S3150800B9D0BDFF03E000F034F8FEF7F6FB38460EB07C
S3150800B9E0BDE8F08180B511F0E0FD002002BD30B55C
S3150800B9F08BB004460D462C2200216846F8F734FF22
S3150800BA0041F60630ADF80000102205F115010DF1DA
S3150800BA100200F8F7E6FE102221460DF11200F8F7AB
S3150800BA20E0FE284611F0C1FD684608F0B3FB0BB0EE
S3150800BA3030BDDFF87C07007C012818BF002070475E
S3150800BA40DFF86C07407C010003D1DFF86C0700685B
S3150800BA50007B7047DFF85817487470472DE9F8439C
S3150800BA60DFF85447DFF84867777C814688462068C0
S3150800BA70317C407B15460A0018BF062900F00F00E6
S3150800BA8041D1012818BF04283DD011F05AFDC0073E
S3150800BA9007D5FFF7D5FF01281CBF48F6990004F023
S3150800BAA022FF11F04EFD40F0020011F059FD11F091
S3150800BAB0A7FE484611F082FEC6F82C902068406919
S3150800BAC0400800F00100F07405F095F8307540461E
S3150800BAD005F087F8804698B9681E032813D8012010
S3150800BAE0307475740422494609200FF058FB8046C5
S3150800BAF030B10020307496F9140005F072F87774A6
S3150800BB004046BDE8F2837020FBE770B50400DFF815
S3150800BB10A056DFF8B06608D13078FF2805D005F1C1
S3150800BB2020000EF009FF002070BD287C58B905F0EA
S3150800BB30CBFF3070002005F0B1FF214605F120004B
S3150800BB400EF004FFEFE7702070BDDFF864160020E2
S3150800BB5081F82000704705F0A1BF70B50546DFF8EB
S3150800BB606006DFF864664180144628883081A87824
S3150800BB70F07205F040F8B0720822291D3046F8F731
S3150800BB8030FE687B3074DFF834067061032030734A
S3150800BB90200009D111F0D5FCC00705D404224FF6C0
S3150800BBA0FD71002007F05CFF912004F079FFDFF8B3
S3150800BBB0000603210174002CBDE8704014BF4FF441
S3150800BBC000614FF4007118300EF0C0BE38B5DFF8CA
S3150800BBD0E04500202076207C03283FD111F0B1FCF7
S3150800BBE0DFF8DC552978002914BF4FF6FF614FF6B8
S3150800BBF0FF7108404FF6FE71084011F0B1FCDFF8FE
S3150800BC00B81501202870002009684873FFF718FF47
S3150800BC100328BCBF062020740CF043F9E07C0128F9
S3150800BC2014BF41F6043141F606310020FEF781FDC6
S3150800BC30FFF706FF02466988DFF88C350020FDF716
S3150800BC4084FAFFF7FDFE03281DDB4FF4006104F1BB
S3150800BC5018000EF07BFE0720207414E0072806D192
S3150800BC600020207400210120FDF7AAFB0BE0042820
S3150800BC7018BF052807D1FFF7E3FEFEF7A5FA00204F
S3150800BC80207400F0A4F8BDE8314003F026BBF0B5F7
S3150800BC90DFF81C750446387C012883B00D46164625
S3150800BCA015D103F0ABF8009001962B4622460FF209
S3150800BCB05851002002F05EFDDFF81015FF280870C5
S3150800BCC005D002203874BDE8F7400FF003BBF7BD76
S3150800BCD070B5DFF8DC44217C94F9140001298AB098
S3150800BCE00BD10021217404F07CFF03F03EFA0020FA
S3150800BCF0FBF7D6FB03F0F4F964E0022964D104F0FB
S3150800BD0070FF03F032FA0120FBF7CAFB03F0E8F9EB
S3150800BD101822002103A8F8F7A7FD207DDFF8AC5408
S3150800BD208DF816000C21287802F0CCFC8DF8170047
S3150800BD30012303208DF818000DF1170200208DF855
S3150800BD401C0003A9DFF87404089005A8FFF719FD7D
S3150800BD500646002004F0A4FE300007D103AB0222F9
S3150800BD604FF441710020FDF7F0F9064636BB01A8ED
S3150800BD700021C0E900112878082102F076FD064660
S3150800BD8028780D2102F09EFC0020009008232978CF
S3150800BD90002201A802F08FFB287802F0EDFAFF20B6
S3150800BDA028700023012201A9304612F05EF84FF4EC
S3150800BDB0005104F118000EF0C9FD03E000202074BC
S3150800BDC000F005F8012000E000200AB070BD00B5BB
S3150800BDD085B000F04DF99DF8030000F0C6F99423EC
S3150800BDE01322C7A103200BF00BF8942003F030FBB5
S3150800BDF0FFF726FE032809DBDFF8BC030068408846
S3150800BE004FF6FF71884208BF032000D0022004F0D5
S3150800BE1047FE05B000BDF8B504460D4616461F4652
S3150800BE2012F064F9ECB96846FEF7FBFA932808BFE6
S3150800BE30002D07D111F085FB00F0020040F08000CC
S3150800BE4011F08EFB002239463046FFF786FE0120A8
S3150800BE5004F026FE03F089F93046FBF760FB03F091
S3150800BE603FF9F1BDF0B504460D46D14E8BB001221F
S3150800BE700021304608F09EFD684611F079FB0DF169
S3150800BE801503002241F606314020FEF71BFCD04F71
S3150800BE90082206F1300107F11C00F8F7A2FC082277
S3150800BEA006F13801381DF8F79CFC3C80BD70338DCF
S3150800BEB0B17C3A460020FFF7AEFF01200BB0F0BD7B
S3150800BEC02DE9F04304460D461646B94F89B0984603
S3150800BED0082205F11C0107F13000F8F782FCDFF8AB
S3150800BEE0F49299F80000022803D111F02AFBC00742
S3150800BEF012D599F80000012804D133882A4621462C
S3150800BF00FFF789FF022C08D1FFF79AFD032803DB08
S3150800BF1011F017FBC00704D479E0FFF791FD032859
S3150800BF2075DA288B12F0E0F9FF2870D005AB424687
S3150800BF3005F11001002012F0EAF9002867D10E2257
S3150800BF40314601A8F8F74DFCBDF80C00BDF80A10FB
S3150800BF50884204D20020ADF80A00ADF80C00BDF8FE
S3150800BF600800BDF80610884204D20020ADF8060085
S3150800BF70ADF80800BDF81000BDF80E10884204D2CE
S3150800BF800020ADF80E00ADF81000BDF81000BDF8A1
S3150800BF900E30BDF80A20BDF808100090BDF806005E
S3150800BFA011F0A4FA98BB200004BFA878002802D193
S3150800BFB004F026FEA870282229468548F8F711FCC1
S3150800BFC0BC7405A930883885102238460DF0CCFB9C
S3150800BFD00023AA1C291D2846FFF7D3FB50B90822BF
S3150800BFE0291D07F13800F8F7FCFBA9782888FFF720
S3150800BFF039FF12E020000AD1042107F1380004F0C5
S3150800C0000EF8F86A744A03210FF0B1FB05E033888D
S3150800C0102A4621460120FFF7FEFE09B0BDE8F08357
S3150800C0207FB5634915460A7C042A1C461FD100229F
S3150800C0300A760A7410B1FFF7CAFE7FBD04F047FC02
S3150800C04006467DB100F014F8082202A9201DF8F76B
S3150800C050C8FB9DF80300A070BDF80000208006F01C
S3150800C0605AF86073012231462046FFF776FD7FBDF8
S3150800C070102307226946012000F0B3BE30B583B00D
S3150800C08004460D466846FEF7E4F908226946201D6F
S3150800C090F8F7F1FB80B904F022FC218881420BD124
S3150800C0A006F039F80146607BFFF78DFB20B10022C8
S3150800C0B029462046FFF751FD37BD80B5012011F00E
S3150800C0C04FFA3B490020087401BD70B504460D4679
S3150800C0D01646FFF7B5FC032811DA4048007870B118
S3150800C0E0AC420CD1B0070AD5284608F09DFF30B1FE
S3150800C0F0007920B9BDE8704039480EF01DBC70BD06
S3150800C1004242000010237F221B2104F04DBF282342
S3150800C1107F221C2104F048BF10B50C46FFF7F2FF3A
S3150800C1202046BDE81040F2E7024610237F211B2077
S3150800C13004F061BF80B511F004FA000A00F00100AE
S3150800C14080F0010002BD80B511F0FBF910F4807093
S3150800C15018BF0120C0B202BD80B511F0F2F910F483
S3150800C160807018BF0120C0B202BD1E4909780B298C
S3150800C17001D03D20704710490968887303F061B8FB
S3150800C1800D480068807B704780B5174917480860D6
S3150800C19011F0D7F9C00702D405490620087401BD75
S3150800C1A00C48007870470B4908700020704700005B
S3150800C1B0AC780020FF0700F8447C002000F8FF0751
S3150800C1C0327300208D730020EC7800208E730020D7
S3150800C1D0047900207E73002065BE0008D87F002001
S3150800C1E0A47D002091730020B47C00207873020897
S3150800C1F010B5044611F0A5F94FF6FD710840204325
S3150800C200BDE8104011F0ACB93834313200000000F6
S3150800C21000000000000000002DE9F0470124112865
S3150800C220AAB000F04D81142800F05382152800F0BA
S3150800C230B180162800F0B380172800F0B6801A28B7
S3150800C24000F0BA801E2800F0C4801F2800F0C880BD
S3150800C2502C2800F07B812F2800F09581402800F0DB
S3150800C2606581412800F094814B2800F066815C289E
S3150800C27000F097815E2800F09D815F2800F0A1817B
S3150800C280602800F0B481612800F0B981662800F0C2
S3150800C290FE81672800F00B82682800F0B9816928BA
S3150800C2A000F0CF816B2800F01A82722800F0D48142
S3150800C2B0742800F01782752800F0DE81762800F0D1
S3150800C2C0FF81792800F0BA807B2800F0D9807E2883
S3150800C2D000F07C817F2800F084818C2800F0718230
S3150800C2E0992800F0E7809C2800F085809F2800F0B8
S3150800C2F0FC81A22800F05382A32800F02E82A528EC
S3150800C30000F01982B02800F03982B32800F0628262
S3150800C310B42800F08182B52800F08A82BE2800F091
S3150800C3208F82BF2800F08982C02800F0FC82C628C8
S3150800C33000F0C682C82800F0EB82C92800F0928275
S3150800C340CF2800F05A82D02800F09280D12800F039
S3150800C3509480D42800F07782D52800F07982D628F0
S3150800C36000F07B82EA2800F0D381EC2800F0EB810C
S3150800C370F72800F0CC80F82800F0A780F92800F00C
S3150800C380B880FA2800F0BA80FB2800F0C380FD28A0
S3150800C39042D0D1E2F8F71CF8DFF8A81503E0F8F761
S3150800C3A017F8DFF8A4150880C7E26846F8F7B1F869
S3150800C3B06846FCF795FFBCE2F7F7DEFF0546F8F797
S3150800C3C017F800F0D6FA0246314628460EF0E7FE80
S3150800C3D0AFE26846F8F72CF86846FCF7FBFDA8E2DA
S3150800C3E0F7F7CAFF05466846F8F722F86946284669
S3150800C3F0FCF783FE9DE2F7F7EBFF0546F7F7F8FF34
S3150800C40000F0B7FA0746F7F7E3FF03463A46314620
S3150800C410284606F0B6FD8CE2F7F7AEFF694604F04B
S3150800C420A7FBF7F7C2FF9DF80000F7F7BEFF9DF8D8
S3150800C4300100F7F7BAFF9DF802007AE2F7F79CFFCA
S3150800C440694609F0E3F8F7F7B0FF00F08AFA9DF8B5
S3150800C4500200F7F7AAFF9DF80300F7F7A6FF00F01A
S3150800C4607CFA9DF80500F7F7A0FF0DF10601F1E04B
S3150800C470F7F782FF09F0F6F85BE209F0FBF858E2F5
S3150800C480F7F77AFF694609F0A4FBF7F78EFF00F085
S3150800C49068FABDF80200F7F794FF00F05EFA9DF817
S3150800C4A00500F7F782FF9DF80600F7F77EFF9DF86F
S3150800C4B007003EE2F7F760FF40B204F092FB38E26D
S3150800C4C0F7F75AFF0BF0ADFE33E2F7F755FF0746CD
S3150800C4D0F7F752FF00F04DFA8146F7F74DFF00F0E7
S3150800C4E050FA00906BB24A46314638460FF024FAA5
S3150800C4F01FE2F7F741FF0FF021FA1AE2F7F73CFFC0
S3150800C50000F03FFA41B228460FF01AFA11E20FF08E
S3150800C5108CFD0EE2F7F730FF00F033FA00F029FA47
S3150800C5200246314628460FF00DFA02E26846F8F749
S3150800C530E5F86846FEF758F8FBE16846FEF756F850
S3150800C540F7F733FF6846F8F7D2F8F6E1F7F714FF7E
S3150800C5506946FBF79AFAF7F728FF9DF80000F7F700
S3150800C56024FF9DF80100F7F720FFBDF80200F7F752
S3150800C57028FF00F0F2F90DF105010820F7F740FF52
S3150800C5809DF80D00D5E1F7F7F7FEFBF760FA33E003
S3150800C590F7F71EFF00F0F5F9014628460BF04CFEAA
S3150800C5A0C7E1F7F7E9FE00F0E7F96946284605F01E
S3150800C5B097FBBEE1F7F7E0FE694605F0FBFB694627
S3150800C5C048E0F7F7D9FE05F00DFC15E000F0CDF9C7
S3150800C5D0F7F7D2FE010018BF0121684605F02FFDC6
S3150800C5E0ABE100F0C2F9684605F00BFDA1E100F0E9
S3150800C5F0BCF9684604F01AF9F7F7E3FE9DE1F7F788
S3150800C600E7FE694604F02DF9F7F7CFFE694621E003
S3150800C610F7F7DEFEADF800000DF1020100F09AF919
S3150800C6200DF1120100F096F9F7F7A6FE8DF8220033
S3150800C6300DF123010820F7F7A6FE684607F0AAFDC4
S3150800C64077E1684607F042FEF7F7AFFE00F089F992
S3150800C6500DF1020108207DE0F7F78EFE00F08CF957
S3150800C660F7F78AFE02A900F075F902AB6A46294671
S3150800C6700020FEF78DFB5CE100F077F9F7F77CFE0A
S3150800C680010018BF01216846FEF73EFB51E100F0A4
S3150800C6906CF9F7F771FE054602A900F05BF9290067
S3150800C6A018BF012102AA6846FEF713FB41E1F7F716
S3150800C6B08FFE00F061F969462846FEF7D5FF38E196
S3150800C6C0F7F75AFE0146002300220120FEF760FB19
S3150800C6D02FE100F04AF96846FEF781F929E10DF0E5
S3150800C6E08FF82AE1FEF76EFD23E1F7F745FE0546CA
S3150800C6F006A93020F7F747FE69461620F7F743FEE6
S3150800C700280018BF01206A4606A911F057FE10E155
S3150800C710F7F732FE05460AA94A20F7F734FE6946B6
S3150800C7202520F7F730FE280018BF01206A460AA917
S3150800C7300DF030FCFDE0684611F047FEF7F735FED0
S3150800C7406946302006E068460DF029FCF7F72DFE0D
S3150800C75069464A20F7F754FEEFE0694600F0FAF812
S3150800C7600FA93020F7F70FFE04A92A20F7F70BFECA
S3150800C77004AA0FA9684611F02CFEDAE0694600F013
S3150800C780E9F816A94A20F7F7FEFD04A94820F7F7A5
S3150800C790FAFD04AA16A9684611F01DFEC9E006A905
S3150800C7A01620F7F7F0FD0CA93020F7F7ECFD6946DF
S3150800C7B01520F7F7E8FD6A460CA906A811F003FE4E
S3150800C7C0B7E0F7F705FE00F0DCF841B228460DF0B1
S3150800C7D098FBAEE00AA900F0BDF8F7F709FE00904D
S3150800C7E0F7F7CAFD00F0B2F80DF1150100F0B2F83E
S3150800C7F069460AA8FFF7FBF89BE0F7F7F9FD0090F2
S3150800C800F7F7BAFD00F0A2F80DF1150100F0A2F84D
S3150800C8106846FFF7E7F88CE0F7F7EAFD00F0B1F8AD
S3150800C82000F0A7F8024671B22846FFF717F980E02C
S3150800C830F7F7DEFDFFF769F97BE010F0D3FE7CE041
S3150800C840FFF778FC75E0F7F797FDFFF784F974E0D2
S3150800C850F7F792FDFFF7FEF86FE0F7F7B9FDFFF778
S3150800C860C7FC6AE0F7F7C4FD804608A8F7F7DFFEBD
S3150800C870F7F782FD0646F7F7ABFD8146F7F7A8FD01
S3150800C8800546F7F7A5FD074606A90820F7F77BFD35
S3150800C8900BA900F05FF8F7F7ABFD8246F7F76CFDDA
S3150800C8A00590CDF810A00BA803904B4606A8029059
S3150800C8B001970095324608A9404610F045FA38E037
S3150800C8C0F7F75AFD8046F7F757FD824604A8F7F7AB
S3150800C8D0AEFEF7F751FD00F04CF88146F7F75FFD1D
S3150800C8E000F04FF80746F7F773FD5FEA0A010246BC
S3150800C8F0039218BF012102975FEA0800019518BF45
S3150800C9000120CDF80090334604AA09F0C0FF10E0D4
S3150800C910F7F732FD69460FF0FDFEF7F746FD684664
S3150800C920F7F7C2FE09E06846F7F781FE68460FF09A
S3150800C93045FFF7F73AFD00E0002420462AB0BDE897
S3150800C940F08700003A7300203C7300208DF804003D
S3150800C9500DF105011020F7F716BD9DF80400F7F74D
S3150800C96024BDBDF80000F7F72CBD69460820F7F787
S3150800C9700ABD0646F7F700BD054669460820F7F7DB
S3150800C98002BD0546F7F7F8BC41780078FFE700EBEB
S3150800C990012080B270470170090A4170704710B5CE
S3150800C9A00023040014BF1C46C3F10304E4B25B1C55
S3150800C9B00A55120A042BF4DB10BD30B54A788B7879
S3150800C9C0CC78097818B120461D460C4602E0154673
S3150800C9D008461A4645EA002044EA022141EA004090
S3150800C9E030BD000080B5010007D1112011F01FFDF0
S3150800C9F0BDE80240172011F010BD012807D111200B
S3150800CA0011F00BFDBDE80240172011F010BD01BD65
S3150800CA1011480078704738B5044600251CB1022C29
S3150800CA2003D006D307E0FFF7DDFF0B48047028465E
S3150800CA3032BD0120F7E70225F9E780B506480078F8
S3150800CA40022807D1112011F0FCFCC0B2FFF7CAFF7B
S3150800CA50002002BD012002BD9A7F002030B1036884
S3150800CA60002A14BF194323EA010101607047DFF861
S3150800CA70200380687047F8B5C54FBD680446002690
S3150800CA80C448044214BF0226BC6024EA0500C00359
S3150800CA9007D50021002000F040F80021002000F012
S3150800CAA05CF830000CD1B86800F4804005F4804189
S3150800CAB0884205D0A00B00F0010000F0A1F8064658
S3150800CAC03046F2BD38B5B24CA578E078A168C903FE
S3150800CAD01CD405F0010100F00102114316D02169AA
S3150800CAE041B1000706D5216908208847E07800F09B
S3150800CAF0F700E070E06868B128070BD5E168082000
S3150800CB008847A07800F0F700A07003E0607808B1C5
S3150800CB1000206070BDE8314022E12DE9F04104466D
S3150800CB200D4611F0DFFC9A4F80463878012698B1F9
S3150800CB30BE78200009D1002E1CBFF868002804D052
S3150800CB40700602D5F96840208847FD60A6421CBFDA
S3150800CB50BC70FFF7B7FF00261EE02DE9F04104463A
S3150800CB600D4611F0BFFC8A4F80463878012698B1E9
S3150800CB70FE78200009D1002E1CBF3869002804D091
S3150800CB80700602D53969402088473D61A6421CBF18
S3150800CB90FC70FFF797FF0026404611F0A9FC3046C7
S3150800CBA0BDE8F08138B57A4D2978884204460FD019
S3150800CBB0200007D100210020FFF7CFFF0021002029
S3150800CBC0FFF7ABFF2C70204600F0DAFB00F0C8F840
S3150800CBD0002032BD6E48007870476D48007900F035
S3150800CBE0010070476A496C480979C90705D54FF4A9
S3150800CBF00041C16008210160B2E008210160704768
S3150800CC002DE9F041624D644E0446287900F0010191
S3150800CC1021434FF4004706D00021B1655F490F60F4
S3150800CC2008213160F76000F0FE002043287111F0FA
S3150800CC3059FCDFF86CE15B49DEF800805A4A5B4B29
S3150800CC40DFF86CC1002C28F4706823D048F400681B
S3150800CC50CEF80080DEF8088028F04008CEF8088074
S3150800CC604FF0080EBCF802806EF30B28ACF8028071
S3150800CC7093F800C00CF0BF0C83F800C0B2F802C0ED
S3150800CC806EF30B2CA2F802C00A7802F0BF020A70F3
S3150800CC90602122E048F48078CEF80080DEF808802B
S3150800CCA048F04008CEF808804FF0010EBCF8028024
S3150800CCB06EF30B28ACF8028093F800C04CF0400CD9
S3150800CCC083F800C0B2F802C06EF30B2CA2F802C0BB
S3150800CCD00A7842F040020A700021B1650621354AF9
S3150800CCE0116011F005FC7CB1062011F0B3FB401E63
S3150800CCF080413149C00F08702879800706D500F0B1
S3150800CD002FF82E48076001E000F02AF8287900F08D
S3150800CD1001024FF4804105F10800FFF79FFE00204D
S3150800CD20BDE8F0811A48017901F0FD010171C807D3
S3150800CD3003D51A494FF40040086070471448017932
S3150800CD4041F002010171C80700D4704710B51348B5
S3150800CD504FF400440460FFF745FF1848046010BD0F
S3150800CD6010B50B4C20782079C0070BD5062011F09A
S3150800CD7068FB00B1012010490978C0B2884208BF93
S3150800CD80012001D000206070BDE8104003F0A1B971
S3150800CD90E8770020FFBC0FF814A8004080E100E007
S3150800CDA004B00040B4710020C4710020B0710020A6
S3150800CDB0B871002024BC00406473002000E100E044
S3150800CDC010B5044602F0B0F948B10FF2801000E041
S3150800CDD0801D017919B10188A142F9D144882046FC
S3150800CDE010BD2DE9F04182B004460D461646984618
S3150800CDF002F09AF9074654480178FF2917D0407877
S3150800CE00B84214D100220FF2441002E09A18D2B2A6
S3150800CE10801D03795BB1B0F800C0B445F6D184F043
S3150800CE20010300930379284601F045FB1DE03046CF
S3150800CE30FFF7C6FF064607B17F1E002C434607D0FC
S3150800CE40FAB23146284602B0BDE8F04104F0ACB863
S3150800CE502A46F9B204F0CFF802F087F930460AF00C
S3150800CE6051F9BDE8F34102F03BB9BDE8F3812DE97C
S3150800CE70F04389B0074602F057F9002506000FF27D
S3150800CE80CC0421D0761E1FE02088FFF799FF804644
S3150800CE9094F80490380005D04B46F2B2414601A8F2
S3150800CEA004F082F82848017800974B46EAB201A8B0
S3150800CEB001F001FB380005D14B4601AAF1B2404604
S3150800CEC004F099F84D44A41D20790028DCD109B056
S3150800CED0BDE8F08310B51C4C2078FF2801D17020DE
S3150800CEE010BD0020FFF7C3FF207801F045FAFF20A8
S3150800CEF020706070002010BD10B5134C0FF24C0066
S3150800CF0062780021FF2A04D0702010BD5118C9B2DA
S3150800CF10801D02791300F9D1002001F0B0FAFF282C
S3150800CF20207007D002F000F960700120FFF79FFF1C
S3150800CF30002010BD182010BD03480078FF2801D135
S3150800CF400120704700207047A173002007000F00DA
S3150800CF501000080011001A0006000E001100020059
S3150800CF601000110004001400040001000100040070
S3150800CF700900120008000A0013000A000B00150039
S3150800CF800200000000000000DFF82008007848B121
S3150800CF90DFF81C080179012904BF4079042801D16A
S3150800CFA001207047002070470FF6B0014008085C62
S3150800CFB07047010644BF4FF6F83101EAC0007047D2
S3150800CFC0491C800189B2B0FBF1F080B2FF288CBF02
S3150800CFD00020C0F1FF00C0B2704738B5DFF8D807A7
S3150800CFE0C17809B1002032BDDFF8D847617871B140
S3150800CFF0E178007945182079ADB28542A8BF054683
S3150800D0000EF0F1FF0121A940491E084000E000206A
S3150800D01061790818C0B232BD2DE9F0470446C00749
S3150800D02005D540F29B110FF6240003F089FEDFF8C0
S3150800D0309857286DC00748BF8C2075D4DFF8780745
S3150800D040DFF8807700210170417829B9397819B15C
S3150800D050A96F41F0010102E0A96F49084900A967D3
S3150800D060DFF84C877A7898F80610DFF86097DFF8CB
S3150800D070606792B1002202710129286D40F0040010
S3150800D080286506D14FF6FF7030604FF40070C9F876
S3150800D0900000FFF7A2FF82460CE0286D20F004008E
S3150800D0A0012928654FF0000A04D100F02FFA642000
S3150800D0B011F09BFAA86F20F00800A8671420E8640E
S3150800D0C0C5F848A0787838B198F80600002801BF56
S3150800D0D0A86C00280120A864B8790028286D14BF18
S3150800D0E040F0080020F008002865FFF74DFF18B14A
S3150800D0F0306C40F008003064202028626C602C6098
S3150800D1006868DFF8D0167F306860042028624FF41C
S3150800D110E0600860DFF8C0160968C9F80000286DE5
S3150800D12040F0010028650020BDE8F087DFF8AC066E
S3150800D130002141608160016821F0020101604FF021
S3150800D1400070DFF89C1608600120DFF89816087052
S3150800D1507047332800D2704710B5B0F5002F0CD2AF
S3150800D160DFF880460021217011F004FB02E001205F
S3150800D17011F0E8FC20780028F9D010BD2DE9F84F09
S3150800D180DFF84C86DFF83056D8F80000D8F840109B
S3150800D190DFF8347601EA0004A4B2C8F800406878DB
S3150800D1A0002840F0D380E007DFF83C66DFF81496E5
S3150800D1B04CD5D7F800A0386C796C41EA0041A960D3
S3150800D1C099F8000000283DD09AF80100800639D564
S3150800D1D001202870FFF7D8FEC0B3192011F005FA10
S3150800D1E0DFF808B64FF44040CBF82800DBF800001B
S3150800D1F00090F06E40F40050F066F06E40F48050F7
S3150800D200F0669AF80010A8684901B83101EB000ADF
S3150800D21002F040FEAAEB0000C0F31300FFF799FFE7
S3150800D220F06E40084000F066F06EBDF80010084346
S3150800D230F0660020CBF8280048F26070F066E888AF
S3150800D240306003E00022002011F08BFF20060ED587
S3150800D250287830B1002028700022A968402011F0F3
S3150800D26080FFD8F83C0020F48050C8F83C006006DF
S3150800D27008D5687830B902F00DFE014600228920EB
S3150800D28011F06FFFE00652D5DFF824A5DFF83CB5AC
S3150800D2909AF80400012804BF9AF8061001291FD13C
S3150800D2A012F0CAF9386F40F00100386700240020F0
S3150800D2B08AF8060002F05EFB0A2011F096F94FF68E
S3150800D2C0FF70C8F800004FF4E060CBF800000920B2
S3150800D2D0B8660120B864B86F40F00800B86718E06F
S3150800D2E02979491C2971C9B299F80220914215D2A7
S3150800D2F0012808BF00F0DDF8B86F20F00800B8670D
S3150800D3001420B866FFF769FEB8644FF40070CBF8CE
S3150800D3100000386D40F00100386508E0687830B9DB
S3150800D32002F0B8FD014600228D2011F01AFF2007F1
S3150800D3300CD5FFF729FE48B13068E8800120306037
S3150800D340D8F8400020F00800C8F84000A0060AD522
S3150800D35020203862687830B902F09CFD0146002228
S3150800D360882011F0FEFE687820B114F4407F04BFCF
S3150800D3700120A870BDE8F18FDFF8780400887047AF
S3150800D380DFF830140028086814BF40F4404020F441
S3150800D39040400860704770B582B0054601F0F0FC61
S3150800D3A0DFF85404DFF81444DFF804640021016050
S3150800D3B01521E160092101651F21416001210166EE
S3150800D3C0DFF83004008801F05EFB02F0F9FA12F08B
S3150800D3D097F900F02BF9308900F055F9708900F0BB
S3150800D3E05AF911F07FF8616841F04001616011F067
S3150800D3F07FF8707800F0E8F8B07800F0FCF8DFF80D
S3150800D400FC03007800F029F9DFF8F40390F900002E
S3150800D41001F0FBFC307800F08FF996F9030000F074
S3150800D42097F9DFF8E00300F0B5F9BDF80000DFF87A
S3150800D430D813C0054CBF0020BDF800000870DFF8FF
S3150800D440CC03007801F0A4FC28B140F2F2310FF2C7
S3150800D450FC3003F075FC012D04D12068C00748BFD5
S3150800D46000F027F86DB92068C0070AD412F0E4F86E
S3150800D470206840F001002060C82011F0B6F80020AE
S3150800D480B071F120DFF84853286440F2F910E863D8
S3150800D490FFF7A0FBFFF774FF02F06CFA2068C007DD
S3150800D4A004D54FF6FF70286000F05DF811F0D7FA42
S3150800D4B073BD70B5DFF85853DFF8F4422E68A079CB
S3150800D4C0012822D011F00EF8B6B2DFF808232E6034
S3150800D4D04FF4E0611160DFF818130A6A5208520027
S3150800D4E00A620A68520852000A600A6842F0020292
S3150800D4F00A604A6A42F001024A620121A17110F0EB
S3150800D500F7FFBDE8704012F06BB870BD70B5A84C57
S3150800D510A07938B312F090F810F0E4FF0546DFF86A
S3150800D520F412A74E01200860306D40F00100306506
S3150800D5300020A07102F01EFA20203060306B40F007
S3150800D54002003063F06D40F00800F065284610F0E0
S3150800D550CFFF0A2011F049F89D494FF6FF70086081
S3150800D56000F001F870BD4FF4E06098490860704714
S3150800D5708F48807970478E480079012808BFFFF7E1
S3150800D58098BF70478A480079704780B5022801DB42
S3150800D590012002BD864908718979884205D010B9EB
S3150800D5A0FFF7B4FF01E0FFF784FF002002BD9A48A9
S3150800D5B00068800200149A3801B211F1800FB8BFD2
S3150800D5C06FF07F0040B2704710B5044610F08AFF2E
S3150800D5D092490A68002C04D042F012020A6001211E
S3150800D5E003E022F012020A600021714A517043E0FA
S3150800D5F06F484078704738B5054610F073FF044603
S3150800D60002F064FD40B985482900016814BF41F05D
S3150800D610800121F080010160654885702046BDE8DB
S3150800D620324010F065BF6248807870477C494A7876
S3150800D6300B787C4803EB022202608B78CA7803EBEE
S3150800D640022242600B794A7903EB02228260CA7988
S3150800D650897901EB0221C160704710B5044610F0C4
S3150800D66041FF6E4922000A6814BF42F0200222F0E8
S3150800D67020020A6061490C70BDE8104010F038BFFE
S3150800D6804B48008970474A490881674908607047CE
S3150800D6904748408970474649488164490860704749
S3150800D6A06348007870475248816A41F002018162F6
S3150800D6B00121016070474E4800210160816A21F00E
S3150800D6C002018162502010F090BF38B5594C5A4873
S3150800D6D021695A4D0180E1694180E96C8180002009
S3150800D6E02061FFF7E0FF0120E06100206062206210
S3150800D6F04CF25D00E864286840F4004028604FF466
S3150800D7000040206048F20200206031BD80B5FFF776
S3150800D710D2FF48484FF400410160002101604749A3
S3150800D7200A6822F400420A60434A9388CB64118847
S3150800D73001615188C16101BD204902000A6814BF10
S3150800D74042F0020222F002020A6019490870704784
S3150800D75038B504467F2C0AD1394800F01BF8BDF8C5
S3150800D7600000C00554BFBDF800406FF04A0410F031
S3150800D770B9FE054602F0AAFC30B964B204F19A0073
S3150800D78080053049000C08600948C470284610F026
S3150800D790AFFE31BD018802237F22684603F072BCC2
S3150800D7A0034890F90300704700000000D57F002069
S3150800D7B04A73002040A00040B47A00208020004030
S3150800D7C030200040CC7200201020004000E100E02C
S3150800D7D004A0004080E100E0A820004010E000E03E
S3150800D7E004ED00E0D67F002064100040E4100040FD
S3150800D7F060200040647200205C100040D47F002046
S3150800D800587200205C730208B57F002083730020DD
S3150800D8101C100040281000400C10004084200040D6
S3150800D820AC7A0020982000409420004090200040C8
S3150800D8309E730020181000408A7C0020C01000400B
S3150800D8406073020854100040704700007068792D14
S3150800D850636F6D6D6F6E2E6300000000FEF7C801E2
S3150800D86080B57E4801884FF6FF70814208BF0F21B8
S3150800D87001230022C9B2012011F0AAFF20B13E21DE
S3150800D8800FF2002003F05CFABDE8014012F0CEB9B1
S3150800D89080B512F0ADF920B17148007800F06CFD42
S3150800D8A0012002BD10B512F085F96D4C207000F00C
S3150800D8B055FD207800F0EAFC6A49486010BD38B585
S3150800D8C012F03AFB664C2078FF2815D1654D68881A
S3150800D8D038B112F0FCFD2A886988801A80B2814224
S3150800D8E004D200206880204612F02DFA2078FF28FE
S3150800D8F004D000F0CBFC6860012032BD002032BDA8
S3150800D90038B50446564D00F00AF82878214612F034
S3150800D910D7F9FF202870BDE8314012F00DBB5048FA
S3150800D9200278FF2A03D04CA13C2002F0B3BC704712
S3150800D93070B5044682B00D46002000F0A0FD0646EC
S3150800D940FF2E07D046480278009523460021304628
S3150800D95000F0AAFF304676BD434841490068097879
S3150800D960405C704701463E48007800F095BC2DE9BA
S3150800D970F047DFF8F88082B0002009F08DFA98F8B1
S3150800D98000A00446012000F08CFC8146661CB9F113
S3150800D990FF0FF6B208BF002053D0314F3878FF2862
S3150800D9A009D000F0E9FC06E0824631480188203EAD
S3150800D9B02039F6B20180212E2E4A116811F80A0084
S3150800D9C0F2DAFF2301F80A3000231168254D01F821
S3150800D9D009005246202000900021484600F064FFC6
S3150800D9E098F80000387000F051FC686088F80090DC
S3150800D9F0009401233A780021104600F055FF387844
S3150800DA00214600F049FC1C480188091B491E018073
S3150800DA1089B298F80000009133460246002100F0CA
S3150800DA2043FF01F0DBFA38B10F4938780968095C19
S3150800DA301231C9B200F0FFFD686810492044086039
S3150800DA400120BDE8F68738B50446064D12F03FFDBD
S3150800DA5028806C8031BD0000620000005608080866
S3150800DA6062730020C0730020E87100209A730020BA
S3150800DA70A2780020F07100206A7E00203478002009
S3150800DA807047000073657269616C2D696E74657202
S3150800DA90666163652D756172742E63002DE9F64122
S3150800DAA00546DDE90001014628460DF089F92846B4
S3150800DAB002F0CAFF0746284602F0D4FF00213A467C
S3150800DAC09DF80040024203D187F00102104301D1BC
S3150800DAD0019801782E464FF6FF7807B3212E1EDAF5
S3150800DAE042200229494A09DA4843104430F81610F8
S3150800DAF0414514D0491C20F8161010E00FD100211A
S3150800DB0002EB460300FB01F733F807E0C6451CBFE6
S3150800DB100EF1010E23F807E0491C0229F2DB3C4B03
S3150800DB203C4933F8160031F8167087429241D243C1
S3150800DB30D20F47451CBF7F1C21F81670092E9F8AF5
S3150800DB4018BF0B2E07D18B8A04EB030EBE4510DADD
S3150800DB50E3188B820EE01D2E0CD1B1F83AE05B8FEC
S3150800DB60A6449E4505DA31F81630E31821F8163032
S3150800DB7000E08F8231F81610814203D312B9284685
S3150800DB8009F0B8FA00270FF2A400C15DA94204D033
S3150800DB907F1CFFB2112FF8DB1FE0112F1DDA01F0F1
S3150800DBA00DFB05461C480078854204DBD7210FF299
S3150800DBB0700003F0C5F8222118486943084430F874
S3150800DBC0171041451CBF491C20F81710092E18BF0D
S3150800DBD00B2E02D1818A61188182BDE8F38180B556
S3150800DBE0502200210B48F6F73FFEBDE808404422C4
S3150800DBF000210A48F6F738BE5022FF210448F6F7F6
S3150800DC0033BE034A22F8101070470000A47B002098
S3150800DC10107B0020C07A00206D730020607B0020F6
S3150800DC20636F756E746572732E63000000010203DC
S3150800DC300405060708090A0B151618191A00000024
S3150800DC409C48007870479B4900F001000870002046
S3150800DC5070472DE9F04106460CF0A7FF8046FEF70F
S3150800DC6093FE044640460CF0EBFF18F80050304689
S3150800DC700CF091FF074640460CF0E2FF8E49096812
S3150800DC80895DC91B091AFF22A00548BF122208D4BC
S3150800DC907C2D08BF032204D0092D3CBF0FF21C209F
S3150800DCA0425DC9B291428041C043C00FBDE8F081D0
S3150800DCB070B5044605F01EFC054620460CF075FFB7
S3150800DCC04078400714D500F068F858B100F0A1F87C
S3150800DCD00646691CC9B200F09DF82EB1B04203DBB6
S3150800DCE0FF2801D0002070BD05EB4600851CADB2AB
S3150800DCF029462046BDE8704005F014BCF8B5044630
S3150800DD0005F0D7FC054620460CF04FFF064600F006
S3150800DD1044F800283FD000F07CF80746691CC9B2D1
S3150800DD2000F078F80E2F36D20FF29C11C95D4D1906
S3150800DD30ADB2420005F10801012F89B20AD0022FBF
S3150800DD400CD0052F11D0082F14D0092F18BF0A2F71
S3150800DD5015D01EE080061CD50D461AE0C20648BF3F
S3150800DD600D46800615D5083512E07078C00612D51E
S3150800DD7055190DE000F01F0000EB400007E010F019
S3150800DD80E00008D1092F0CBF02F03E000220451919
S3150800DD90ADB2294664E00020F2BDA91C89B220462E
S3150800DDA005F0C0BBF8B5044605F083FC0546691CBA
S3150800DDB0FFF7F4FF58B300F02CF8064606F00C00FF
S3150800DDC0042806F0030722D0022F00D1F8B93046FE
S3150800DDD005F09DFC45193006ADB212D5691CFFF752
S3150800DDE0DDFFA8B1E9B200F015F80146012F1CBF06
S3150800DDF001F0030003280AD0304605F098FC4519BF
S3150800DE00ADB22946204605F08DFB010000D1002061
S3150800DE10F2BD2946204600F055BCF8B5044605F083
S3150800DE20CBFC0546FFF7B9FFC0B1FFF7F2FF064680
S3150800DE30112E13D20FF2A000805D691CC9B24719D2
S3150800DE40FFF7E8FF052EFFB206D1062806D20FF225
S3150800DE509C01085CC719FFB2394601E00020F2BDF3
S3150800DE602046BDE8F44005F05DBB70B5114A0FF2D7
S3150800DE708403127804460020002A02D1012070BDCE
S3150800DE80401CC0B2024613F832502E0009D0AC42EC
S3150800DE90F6D1084603EBC20149688847010001D05C
S3150800DEA070BD002422464FF6FF711E2001F0E5FAE8
S3150800DEB0002070BD9D730020E8710020FF0204FF5A
S3150800DEC00101010108000000FF060804020202041D
S3150800DED0020A0B0303020000FF00000000000C0901
S3150800DEE00202000000001C1A0B0000000023001BA1
S3150800DEF0220000000100000053DC000802000000B8
S3150800DF00B1DC000803000000FDDC00080400000086
S3150800DF10A5DD0008050000001BDE00080000000063
S3150800DF20000000002DE9F0479A4D9B4C0E468046AE
S3150800DF30297888B0207898F800A088420CBF012775
S3150800DF400027684601F0DFFAA84508BFFF2E0AD168
S3150800DF509249287889682522B1FBF2F10E18B6B2E3
S3150800DF60FF2EC8BFFF2688F8006000F041F80600BB
S3150800DF700FF2E82908D088F800A000F039F818B19F
S3150800DF807321484602F0DCFEDFF814A27FB112F0D6
S3150800DF90A5FB074612F0A6FB3A1A92B20021504694
S3150800DFA0F6F762FC00F045FC2878207015E07D48FD
S3150800DFB0046812F093FB074612F094FB381A001B0C
S3150800DFC00AEB000292B200212046F6F74DFCA8455E
S3150800DFD003D17F21484602F0B3FE01F009F86846EE
S3150800DFE001F0ACFAF6F7F1FC304608B0BDE8F08768
S3150800DFF02DE9F8456C4FDFF8A8814FF00E0A12F0AC
S3150800E0006DFB054612F06EFB6849694BC1F8008046
S3150800E010281A6049097808EB41121A600A44654BC8
S3150800E0201A600A44644B1A600A44644B1A6053180F
S3150800E0305A4A5D185B4953600D6040446049097847
S3150800E0404E1C760405EB16455E4E356005EB41051C
S3150800E0503D6005EB81055C4F3D600D445B4F3D60BF
S3150800E06005EB41065A4D2E605A4D2F78062505FBBD
S3150800E07007F31E44584B1E60CB1DDB105F43BFB22F
S3150800E0803E44564F564B3E60564F3F7806EBC70602
S3150800E090554F3E60554F3F7806EB8707544E37601D
S3150800E0A00C261B78734307EB030E524FC7F800E0A4
S3150800E0B0514F97F800C0482707FB0CF4A6444F4C6D
S3150800E0C0C4F800E04E4C24780CEB04030AFB03F377
S3150800E0D09BB29E444B4BC3F800E00B1963449B0468
S3150800E0E0494C0EEB13432360484C24786C43234475
S3150800E0F0474C2360474C24786C432344464C2360A2
S3150800E100464C247867433B44454F3B602C24454F97
S3150800E1103F7867433B44444F3B60444F3F78444C09
S3150800E12003EB470323603B44424F3B601944424B91
S3150800E1301960424B1B7873431944414B1960414B94
S3150800E1401B786B431944404B1960404B1B7801EB15
S3150800E15083013F4B19603F4B1B7801EB8301137812
S3150800E1601D0008BF002504D05B1C0D465B0401EBAF
S3150800E1701341394B88422CBF414535201D6006D3D3
S3150800E180411A91600FF2E80008F035FE0020BDE85C
S3150800E190F28500006573002066730020587C002015
S3150800E1A000000020F871002000720020E4710020B1
S3150800E1B0E8710020EC710020F0710020F471002055
S3150800E1C068730020FC710020047200200872002089
S3150800E1D00C7200206973002010720020147200204F
S3150800E1E06C7300206A730020187200206B7300207D
S3150800E1F01C720020207200206D73002024720020FB
S3150800E2006E730020287200202C7200206F73002085
S3150800E2103072002070730020347200207273002060
S3150800E22038720020A17F002040720020A37F0020C2
S3150800E23044720020487200204C720020737300203C
S3150800E240507200207473002054720020A57F0020AD
S3150800E2503C720020A27F0020AC7C00206D656D6FAB
S3150800E26072792D616C6C6F636174696F6E2E6300D1
S3150800E27052656D61696E696E67206D656D6F72793D
S3150800E2803A2025642062797465730000DFF8201748
S3150800E290096801EB40107047DFF818271268115417
S3150800E2A070472DE9F041040035D010F01BF9DFF86E
S3150800E2B00817DFF808370E78FF228046FE2EDFF8AB
S3150800E2C000071BD100260E70DFF8F8C6DFF8F866DF
S3150800E2D037781F70002708E007F1010E05F807E0F8
S3150800E2E0DCF80050EA555FFA8EF796F800E0056804
S3150800E2F07745F1DB05EB0E0606F8012C1E78A642DB
S3150800E3000BD2404610F0F4F8052008F078FD0021FD
S3150800E3101B2001F0A8F8FF201EE0361B1E70DFF850
S3150800E320AC360E780F78D3F800E001250EF80750C2
S3150800E330641E056815F807E081F800E05FFA84FEB8
S3150800E340BEF1000FEED1EA5500213046FFF7A4FFD3
S3150800E350404610F0CDF83046BDE8F08110B50446C9
S3150800E36010F0C0F8DFF8641609680A5D521C0A55F1
S3150800E370BDE8104010F0BCB82DE9F041054600F0A4
S3150800E38031F8044610F0AEF8DFF82C26DFF82C3604
S3150800E390DFF82C66DFF83486FF2D1FD0D8F800107A
S3150800E3A04F5D7F1E4F557F27D8F800E01EF80510F1
S3150800E3B0394213D13168495D00270EF805701F7878
S3150800E3C07F1C1F70FF29376892F800E007F805E000
S3150800E3D0157006BF2546FF240D46DDE7BDE8F0416A
S3150800E3E010F086B880B5DFF8E4150968095C0906F7
S3150800E3F003D5FFF74BFF007802BDFF2002BDB0B57D
S3150800E40004460D46FFF7EEFFFF2818BFFFF7B4FFD7
S3150800E410FF2DDFF8B87504D13868015D01F07F017A
S3150800E42006E02846FFF79AFF3868015D41F080014B
S3150800E43001552046FFF72AFF0570B0BD0EB478B522
S3150800E44004460120FFF72DFF0546FFF71FFF064686
S3150800E450FF2D08BFFF200FD0E1B22846FFF71CFFAB
S3150800E46005A8002104E050F8042B06F8012B491CE6
S3150800E470C9B2A142F7D3284672BC5DF810FB70B545
S3150800E48004460D4605F11F000004400D82B0C0B2D7
S3150800E490FFF707FF0646FF2E0CD02946FFF7FCFEBE
S3150800E4A03CB1012000902B4600223146204600F060
S3150800E4B002F8304676BD73B500F0CFF8405C1546D5
S3150800E4C01E467119884203DA40F2651100F0EAF82F
S3150800E4D030000CD0294601A800F0E8F80246069854
S3150800E4E09DF8041000903346204600F001F873BDED
S3150800E4F02DE9F843089CDFF8C88405468946164680
S3150800E5001F460BE06A5C4254491CB142FADBD8F854
S3150800E5100000BF1BAD1910F809900026F8B2C8B163
S3150800E5204846FFF7B3FEFFB28019F1192029B2BF9A
S3150800E5303E46C6F12006F6B22100324604D101460F
S3150800E5402846F6F74EF9E2E7012C08BF2946F8D027
S3150800E5500021DAE7BDE8F1832DE9F04100F07DF806
S3150800E56082B0055D884616467119C9B2A9421F468A
S3150800E57005DB30000CD0204600F05DF808B1182005
S3150800E58007E0009733462A4621464046FFF793FFA1
S3150800E5900020BDE8F6810123DEE70A4600E0521CAA
S3150800E5A01378002BFBD1521A0223D2B2D4E72DE9F5
S3150800E5B0F041054601F11F00C70402F11F00C0041F
S3150800E5C03F0E000E07B9012700B9012087422CD05B
S3150800E5D0DFF8EC431BDAC01BC0B2FFF762FE8046C9
S3150800E5E0B8F1FF0F08BF002020D07F1E00F020F8EA
S3150800E5F02668305CFF2804D000F01AF8305CFFF774
S3150800E600BBFE00F015F8216801F800800DE08A428B
S3150800E6100BD2411EC9B200F00CF805462068405DD1
S3150800E620FFF7AAFE2168FF2048550120BDE8F081C2
S3150800E630F9B2284616E038B500F00FF80D46015D28
S3150800E6402A462046FFF7B3FF28B129462046FFF79A
S3150800E65023FE002032BD182032BD0446DFF85403DD
S3150800E6600068704704E0DFF858231268105C491EFA
S3150800E670CAB2002AF7D1704711B50C46DFF8341331
S3150800E680096881B0095C8C4203D340F2012100F08D
S3150800E69009F8214601A800F009F8044600F035F902
S3150800E6A0204416BD0FF2383002F04ABB38B504468E
S3150800E6B00D46E9042078090EFFF7D4FF207005F00F
S3150800E6C01F0032BD80B5FFF7D7FF007802BD10B531
S3150800E6D01446FFF7D1FF047010BDB0B5FFF7BDFFB4
S3150800E6E082B0055DFF2C03D140F22121FFF7DAFF46
S3150800E6F005F11F000004400DC0B2FFF7D2FD074622
S3150800E700FF2F0AD02946FFF7C7FD009500232246AA
S3150800E7100021384600F0C8F83846B6BDF8B50446B4
S3150800E7200D4616460120FFF7BCFD0746FFF7AEFD6E
S3150800E730FF2F01D1FF20F2BD33462A46202120446F
S3150800E74000F020F82118C9B23846FFF7A5FD38466B
S3150800E750F2BD10B582B004AC009400F001F816BD05
S3150800E76010B514461A46029B2044091BBDE8104002
S3150800E770C9B207E00CB480B502AAFFF7CFFF02BC06
S3150800E7805DF80CFB2DE9F047814614469A464F463C
S3150800E790002588460AE032463846F6F722F8701908
S3150800E7A0BF19451EEDB26D1C641CEDB245453BDA3A
S3150800E7B02078010038D0312818BF32280ED15AF8EF
S3150800E7C0041B07F8011B3228EDD16D1CEDB2A845D4
S3150800E7D0A4BF081207F8010BE5DA25E034280ED1A4
S3150800E7E0291D5AF8040B88451EDB3870010A797012
S3150800E7F0ED1C010C000EB970F8703F1DD2E7A0F1B0
S3150800E80033025AF8041B072A38BFA0F1300607D38B
S3150800E810A0F14102072A34BFA0F137065AF8046B63
S3150800E820F6B270194045B6DBA7EB0900C0B2BDE8E1
S3150800E830F0876149FE200870704770B500F029F826
S3150800E840064600F004F800EB062080B270BD2946A3
S3150800E850204637E700B583B002238DF80420120A54
S3150800E8608DF805200122009218E0F8B500F011F89D
S3150800E8700602FFF7ECFF8619E91CC9B2FFF7E8FFA5
S3150800E8800702A91CC9B2FFF7E3FFC01906EB00404F
S3150800E890F2BD0D46691C0446C9B213E70A4601468D
S3150800E8A001A8FFF708FE07BD2DE9FC4405B40A9C3C
S3150800E8B020001F4627D089B26846FFF7F7FE0646AE
S3150800E8C0B9B201A8FFF7F2FE0746BE42A8BF304616
S3150800E8D0A4B2C0F120002546C0B2A842B8BF05467A
S3150800E8E000F013F882469DF80000FFF7CFFC2A4691
S3150800E8F00AEB07013044F5F774FF641BA919EF19F1
S3150800E900A0B20028D7D1BDE8FF849DF80400BDE475
S3150800E91070B504460D460FF0E5FD2A4B21781B68B5
S3150800E920FF2908BF5D5503D019440E785E550D7052
S3150800E9302570BDE870400FF0DBBD38B504460FF012
S3150800E940D1FD2178FF22FF2908BFFF2507D01D4BDF
S3150800E9501B685D5C8D420EBF22705A5D5A540FF0DB
S3150800E960C7FD284632BDF8B504460D460FF0BAFD78
S3150800E97021780026FF2915D0124B1B680A46012666
S3150800E98002E0761C3A46F6B29F5CAF4208D1DF5DDC
S3150800E9909F54A94206D18A4208BFFF22227001E08D
S3150800E9A08F42EED10FF0A4FD3046F2BD0000000004
S3150800E9B0E4710020E87100209B7300206673002034
S3150800E9C0F0710020F471002065730020EC710020BE
S3150800E9D00078FF2801D10120704700207047000009
S3150800E9E07061636B65742D6275666665722E630069
S3150800E9F0DFF8FC3433F810001040C840704730B5D3
S3150800EA000FF2AC54DFF8EC3434F810409C60114037
S3150800EA10DFF8DC4434F8105095432943D9600222C4
S3150800EA201A6000221A6024F8101058680028FCD1D1
S3150800EA3030BDDFF8C424DFF8C4041278DFF8C01448
S3150800EA400AB149780EE0895611F1090FB8BF30218D
S3150800EA5008DBC16D39B1C26D40F24A31B1FBF2F142
S3150800EA6089B2C91E01607047E0B5DFF898040188CD
S3150800EA700A2300F065F8BDF806104FF6FF720D2060
S3150800EA80FFF7BDFF07BDF8B50546B5F5004FDFF83A
S3150800EA9070441AD1DFF870040188022300F050F898
S3150800EAA0BDF80000000AFF2801D0010000D1182097
S3150800EAB06070BDF800000006C00E10281CBF001DBF
S3150800EAC000F0A3F9BDF80000C543DFF82C647078A0
S3150800EAD008B1002005E0A089ADB26840C00701D59D
S3150800EAE001207070DFF82404A58105F0010401688F
S3150800EAF041F4004101604FF440520FF2D84000EB58
S3150800EB004400C5F340074078010389B20220FFF7A5
S3150800EB1076FF204611F010FE4022B90100F012FAE5
S3150800EB202D06A80E00F0010038433070FFF781FF6C
S3150800EB30707818B1FFF798FF002070700020F2BDBA
S3150800EB407F22684602F09EBA2DE9F04FDFF8C443EB
S3150800EB50DFF8BC73207887B0042304900D210B38A6
S3150800EB60C0B203906846039A02F01EFA9DF80000A8
S3150800EB708DF80A009DF801008DF809009DF802003D
S3150800EB808DF808009DF803008DF80500DFF8880366
S3150800EB900078012806BF607880F00105012501F09C
S3150800EBA04DFA82469DF9020003990AF10A06AAF16E
S3150800EBB00A09B042B6BF81454FF001084FF0000878
S3150800EBC001208840ADF806009DF80100000604D42F
S3150800EBD07888BDF80610084201D04FF0010811F0F8
S3150800EBE021FE9DF8030000060AD4B888BDF8061071
S3150800EBF0084205D19DF90000B042B8BF814502DB45
S3150800EC004FF0010901E04FF0000948EA050059EA0A
S3150800EC10000000F0A480DFF804B3C149DBF8000067
S3150800EC20C04E400800F001008DF80400BE48006898
S3150800EC3000F4E06005904FF4E06008600020FEF7FD
S3150800EC407BFD0FF00CFFADB1607858B1DBF8000022
S3150800EC50B14940084000CBF80000012008700FF0C9
S3150800EC60C4FC07E0306840F400503060306820F497
S3150800EC7080503060A8480078012810D161780D428C
S3150800EC8008BF10F0D9FCDBF80000A34940F00100EA
S3150800EC90CBF800000020087064200FF0A6FC60780E
S3150800ECA080F00100054203D00498C0B211F0F3FDCC
S3150800ECB0607838B1306820F480503060306840F4AD
S3150800ECC000503060BDF80600C543B8F1000F08D003
S3150800ECD011F0CCFE8DF801008DF802A07888284046
S3150800ECE07880B9F1000F08D011F06DFF8DF8030098
S3150800ECF08DF800A0B8882840B8809DF900009DF9D5
S3150800ED000A10884202BF9DF801009DF80910884242
S3150800ED100BD19DF902009DF90810884202BF9DF8A3
S3150800ED2003009DF80510884206D0039904236A4615
S3150800ED30C9B20D2002F05FF905987B49086000F01A
S3150800ED4019FE9DF80400FEF7F7FC12F05CF86078EF
S3150800ED5028B148F26070306064200FF046FC9DF8D8
S3150800ED60010011F0EFFD9DF8030011F027FF07B031
S3150800ED70BDE8F08F80B501F054F9BDE80140E3E63F
S3150800ED8001F04FB9A0F10B01102928BFFF207047E9
S3150800ED9070B50646FEF7ECFB0546A6F10B001028F3
S3150800EDA0A6F10B0401D38A2070BD60488168090763
S3150800EDB002D40068C00701D58C2070BD554806707E
S3150800EDC05B4801680C290FD00FF27C11594A92F959
S3150800EDD00020A4B231F824105118C161FFF7B4FE1F
S3150800EDE0012D08BFFEF765FB002070BD10B504466F
S3150800EDF001F017F92046BDE81040C9E745480078F4
S3150800EE0070473F4890F9000070472DE9F0410446E5
S3150800EE10202514F12B0F86B049DB474801881423B7
S3150800EE20FFF78EFEBDF810004FF6FF71884203D03B
S3150800EE30400448BF012607D43F2200211020FFF7CF
S3150800EE40D7FD002680F0200504F12B022F2A2C4836
S3150800EE503A491AD213220FF2301300E0521ED2B2E8
S3150800EE6013F91270BC42F9DB03EB420403276478FA
S3150800EE700C60002413F81210017000218846C6B1F0
S3150800EE80BDF810104FF6BF7228E0092C0FDA025DA4
S3150800EE900A60047014232A480188FFF751FE4FF4CC
S3150800EEA0C0514FF480744FF080082827E7E78B207D
S3150800EEB019E04FF4605200F045F84FF4E06221463D
S3150800EEC000F040F88022414600F03CF8781980B2FC
S3150800EED04028A8BF3F203F2280F0200100F032F8EA
S3150800EEE0FFF7A7FD002006B0BDE8F081000000008E
S3150800EEF038780020E8100040B67F002064100040F3
S3150800EF00587200203A7302084E7302081C1000401B
S3150800EF10E274002083730020507300208020004094
S3150800EF2080E100E0D010004000E100E060200040F1
S3150800EF30AC100040B57F002036730208C0100040B0
S3150800EF40387302080B205AE5AA21290055232900FF
S3150800EF5000252800AA26270055282700002A26006B
S3150800EF60AA2B2600552D2500002F2400AA302400A0
S3150800EF705532230000342200AA35220055372100D5
S3150800EF8000392000AA3A2000D500E601EC02EF037A
S3150800EF90F204F405F506F707F808F909FA0AFB0B6F
S3150800EFA0FC0DFD0FFE11FF1300160119021C031FAD
S3150800EFB010001100200030004000410050006000A1
S3150800EFC0700080009000A000B000C000D000E000F3
S3150800EFD0F000000000000103382070470020704749
S3150800EFE03820704738207047704700207047000067
S3150800EFF02DE9F84FDFF8E446DFF8E4562068DFF835
S3150800F000E4B6DFF8E496DFF8E4A6E86128620026AD
S3150800F0104FF6FF7827E02068F6B248217143471873
S3150800F020482200213846F5F71FFC99F80000387089
S3150800F030A7F80280002038737873761C0B20B87303
S3150800F0400320F8734FF6FE703882A7F812800CF08A
S3150800F050CAFF38760CF0C7FF78760CF0C4FFB8768E
S3150800F0609BF80000F876F0B29AF800108842D2D3DE
S3150800F070281DBDE8F84F0222FF21F5F7F5BB2DE95B
S3150800F080F041DFF86C560FF28868044695F90000DF
S3150800F09010F1010F03DA5C21404601F051FEDFF85A
S3150800F0A04C7639788C42264605D3FE2E03D05E214F
S3150800F0B0404601F045FE2878DFF82416401C2870E3
S3150800F0C040B20844047438788442DFF810060068B1
S3150800F0D028BF0E78482272431044C861BDE8F08103
S3150800F0E010B5DFF80C4694F90000002802D56F2108
S3150800F0F000F0A3F82078DFF8E815401E207040B22B
S3150800F100DFF8E8450A78247800284EBF1046081824
S3150800F110007CA04238BF0246DFF8C00500684823D5
S3150800F1205A431044C86110BD10B50020DFF8B01569
S3150800F13000E0401C00F07BF80AD2DFF8A035C0B228
S3150800F1401B68CA694824444323449A42F1D110BD36
S3150800F1508A2168E0DFF8980590F9000010F1010FA0
S3150800F16001D10120704700207047FE2087E7DFF8AD
S3150800F17070050078704738B50446FFF7EBFFDFF8EF
S3150800F180605550B9DFF8680590F900002844007CFE
S3150800F190FE2802D0A62100F050F8DFF850150978AD
S3150800F1A08C4201D3B12032BDDFF830052C704821DE
S3150800F1B0006861430844E861002032BD38B5DFF8CD
S3150800F1C03005DFF81C5590F900402819007CFE2808
S3150800F1D007D0FFF7BFFF20B9C32100F02EF8FF20A4
S3150800F1E032BD611E00E0491E49B2080004D4681801
S3150800F1F0007CFE28F7D032BD287832BD10B5002035
S3150800F200DFF8DC1400E0401C00F011F80AD2DFF841
S3150800F210CC34C0B21B680A6A4824444323449A4241
S3150800F220F1D110BDE22100F008F8FF2010BDDFF88B
S3150800F230BC341B78C2B29A4270470FF2D44001F030
S3150800F2407FBD10B5FFF7DAFDDFF89444216A897BA4
S3150800F250884203D00846FFF7C9FD50B9FFF7D1FD2C
S3150800F2600146206A90F90F00814204D0FFF7CDFDD0
S3150800F27008B1012010BD206A008AFEF704FA206A48
S3150800F280408AFEF708FA206A007B012818BF00208A
S3150800F290FEF7E3F9002010BDDFF8501410B5097821
S3150800F2A08842044603D34FF48371FFF7C6FFDFF89D
S3150800F2B04404007808B9702010BDDFF820040068FF
S3150800F2C0482161430844DFF818140862BDE8104075
S3150800F2D0B7E7DFF820140870704710B5DFF8184450
S3150800F2E00020207002F0F3FB20B92046BDE810404C
S3150800F2F00BF022BB00F054F8DFF8F01309788842C7
S3150800F30006D3FFF711FF044600F010F818B120469F
S3150800F310BDE81040C0E710BDDFF8C403006A008AE4
S3150800F3207047DFF8BC03006A408A7047DFF8AC1301
S3150800F3300968482250430844407B02281CBF11280C
S3150800F340432801D10120704700207047DFF88C134D
S3150800F3500968482250430844007B01281CBF02283C
S3150800F360032801D1012070470020704710B50024FA
S3150800F37000E0641C00F028F810D2FFF7D7FF002839
S3150800F380F7D0D648E4B20068482161430844007BB8
S3150800F390012818BF0228ECD1204610BDFF2010BD59
S3150800F3A010B5002400E0641C00F00EF80AD2FFF73E
S3150800F3B0CDFF0028F7D0E0B2FFF7B8FF0028F2D05B
S3150800F3C0E0B210BDFF2010BDC8490978E0B28842F6
S3150800F3D0704770B500240025C44E08E0FFF74FFEBD
S3150800F3E001F0F3FB00B10124FFF77AFE6D1C3178BA
S3150800F3F0E8B28842F2D3204670BD80B5FFF7D0FF49
S3150800F400FF2801D0012002BD002002BD38B5BB4C43
S3150800F410054620680321A94088432060FFF784FE3B
S3150800F4202168A8400843206031BDB4490968C14035
S3150800F43001F00300704738B504460D46FE20FFF775
S3150800F4401EFE29462046F7F77EFEBDE8314047E610
S3150800F45010B50446FE20FFF712FE204607F00CFE04
S3150800F460BDE810403CE682B08DF80010DDE90023C7
S3150800F47011461A4602B0FEF711BB32B586B00446ED
S3150800F4808DF8042001F0E0FA0546204601F0EAFA74
S3150800F49080F001010D420DD0BDF8180001F0C0FB47
S3150800F4A08DF80000FF2804BF00208DF80000CDF875
S3150800F4B008D01AE0294308BF06A815D0054214D07B
S3150800F4C0BDF8180001F0ACFB8DF80000FF2804BF5A
S3150800F4D000208DF800009DF800008DF80C00BDF89E
S3150800F4E01800ADF80E0003A80290FE20FFF7C7FD2E
S3150800F4F0DDE901010A4601462046FEF7CFFAFFF785
S3150800F500EFFD07B030BDF8B5784E754D0446307836
S3150800F510687000270DE0FFF7B2FDE8694169FFB2A0
S3150800F52044F8371004EBC701C07E08717F1CFFF74B
S3150800F530D7FD3178F8B28842EDD3F1BDF8B5044667
S3150800F5400025674E0DE02846FFF799FDF06954F847
S3150800F550371041616D1C04EBC7010979C176FFF7C5
S3150800F560BFFD6249707809788142EDB238BF084616
S3150800F5702F468742E7DBF1BD38B5FFF7D5FD5B4A75
S3150800F580574B1278002100E0491CCCB294420ED2A7
S3150800F5909C78C9B20C1994FBF2F502FB1544E4B247
S3150800F5A01C442579854202D0FF2DEDD1207131BD4D
S3150800F5B070B54B4C4D4EA0783178204405798D4274
S3150800F5C003D340F22921FFF738FEA0782218FF213D
S3150800F5D01171401C317890FBF1F201FB1200A0700A
S3150800F5E0284670BD3E48817808440079FF2801D036
S3150800F5F0012070470020704710B5FFF7FEFE70B176
S3150800F600374CE069007B042809D11420FFF7FEFE79
S3150800F61004F10800BDE8104064210BF097B9BDE875
S3150800F620104002F013B880B52D4900200872142046
S3150800F630FFF7FBFEFFF723FD02F008F8BDE80140DF
S3150800F6404EE500002DE9F8438146FFF76DFDB9F157
S3150800F650040F0FF2BC082A4C214F2A4D2A4E34D8E3
S3150800F660DFE809F0030A0A1B1B00F86900F1280104
S3150800F6700020086088602FE0FFF7BFFE20B14FF436
S3150800F6801871404601F05CFBF869316840F8281F9C
S3150800F69021688160297801711EE02A783568F96940
S3150800F6A00E2303FB02F6354443432B4441F8283F17
S3150800F6B0236803EB8202154B1B7802EB830202EBED
S3150800F6C0800088600120087106E04046BDE8F443E2
S3150800F6D040F2712101F034BBBDE8F18320720020AD
S3150800F6E0287C002077730020A97F00206D730020F6
S3150800F6F0A07300209F7300204C7C0020547C0020BF
S3150800F700287200206E73002024720020687300207F
S3150800F710656D6265722D6D756C74692D6E6574778D
S3150800F7206F726B2E6300000001207047012070473E
S3150800F7300020704780B57020F4F737FEBDE8024018
S3150800F7400020F4F732BE7020F4F72FBE70B582B0F1
S3150800F7500446FEF79BFD0546A879E9790818400096
S3150800F76000F10806FFF703FD400040F001008DF8A0
S3150800F7700000FF222B780021002000F0B7F8FF28B0
S3150800F7800BD178480068005DF6B2B04205D1012277
S3150800F79069462046FEF7FFFE08B1002076BD2146E1
S3150800F7A07148FFF7B5F871480178491C0170204681
S3150800F7B0FEF7D4FD012076BD10B50446FFF7FEFC22
S3150800F7C0024623460121012000F090F8FF2804D0C4
S3150800F7D0BDE810400021FEF775BF10BD38B50446D8
S3150800F7E00D46FFF7EBFC00F055F8FF2801D1002085
S3150800F7F032BDFEF74BFD0446601CFDF7C5F82880B0
S3150800F800E01CFDF7C1F8688060792871A0796871F5
S3150800F810E079A871012032BD38B5044615460B4675
S3150800F820FF220021002000F061F8FF2801D13620D0
S3150800F83032BD4C4A1268115C491EC9B2FEF71CFF5C
S3150800F84024B1297801F00701017001E000782880C9
S3150800F850002032BDF8B504460D461646FFF7AEFC45
S3150800F86000F018F808270446FF2C02D14FF6FF705F
S3150800F870F2BDFEF70BFD012D04D18079400000F1A1
S3150800F8800807FFB207EB4600C1B22046BDE8F440C0
S3150800F890FEF7D3BF024623460121002026E02DE9C4
S3150800F8A0FC410D4604466946FFF798FFD8B1002685
S3150800F8B001E0012E02D09DF8058001E09DF8068042
S3150800F8C0002700E07F1CFFB2474508DA3A46314672
S3150800F8D02046FFF7BFFF8542F4D1012004E0761CDD
S3150800F8E0F6B2022EE5DB0020BDE8F6812DE9F84FD9
S3150800F8F082461D4800780025FF280C469146984602
S3150800F9002CD01B4F396811F800B05E465FEA0A0032
S3150800F91011BF284600213046FEF7D4FE404517D1D0
S3150800F92010480068805D411EC9B23046FEF7CAFE1F
S3150800F93000F0010181F001010C420FD1B9F1FF0F6E
S3150800F9401EBF400800F00300814507D1304606E097
S3150800F9503868865D6D1C5E45EDB2D7D1FF20BDE8DF
S3150800F960F28F0000E871002014730020D77F002072
S3150800F970F471002010B5DFF89047102020630EF0D0
S3150800F980B1FDDFF888170A6842F001020A600EF036
S3150800F990AFFDDFF87C07606020608A3061688931D6
S3150800F9A0616001212163E060A060DFF86817E06804
S3150800F9B08930E060022020634FF6FF70086010BDB2
S3150800F9C0DFF8540745F26401C1601E2141625021E7
S3150800F9D00162C821C1618165F021C16545F69001C2
S3150800F9E04166882181660621C16644F20661016086
S3150800F9F04FF6FF714160DFF82407007838B1DFF869
S3150800FA00200748F2607101604FF4C1514160DFF888
S3150800FA101407016841F0040101600020DFF80817A7
S3150800FA2048707047DFF8EC060068C00700D408E0A5
S3150800FA307047DFF8E006006810F0190F00D100E003
S3150800FA40704700210020FDF788B82DE9F84F804659
S3150800FA50DFF8D816012011F06EFA8A21DFF8B00611
S3150800FA6001FB08F14518681C4178007800EB012075
S3150800FA70DFF8BC1609781FFA80F9DFF8B8060170B6
S3150800FA8000EB080A00208AF802005FEA896003D5BD
S3150800FA90DFF8A446606E000640F18F80002609F064
S3150800FAA00700032861D109F4406009F44041B0F524
S3150800FAB0806F1CBFB1F5804F002956D00422B0F5DF
S3150800FAC0006F08BF082203D0B0F5406F08BF0E22AA
S3150800FAD05FEA49605CBF921CD2B2B1F5004F0CBF19
S3150800FAE0971C02F10807FFB2781C00EBD070C0051E
S3150800FAF04FEA106B5FEA080014BF60682068584533
S3150800FB0033D3A818B1F5404F03D10BF092FF064640
S3150800FB1012E04078A95C01EB002080B20BF016FFDA
S3150800FB20FF2808D0DFF81416096831F810004FF4DA
S3150800FB30E661084200D00126BEB15FEA097014D416
S3150800FB405FEA080014BF606820680BF1010188426B
S3150800FB5007D2E0685FEA080114BF022101210842C2
S3150800FB60EED1E85D042818BF0026E06D000900F014
S3150800FB70010086428AF802001FD0002EA26C4FF4BC
S3150800FB8000604FF480610BD0B8F1000F08BF08463B
S3150800FB90024212D0606C40F00100606401200AE065
S3150800FBA0B8F1000F08BF0846024206D0606C40084C
S3150800FBB04000606400208AF80200BDE8F18F2DE954
S3150800FBC0F84F0446DFF87055DFF8686520000CBF6B
S3150800FBD028686868C1B2052905DAFFF723FF706847
S3150800FBE0401C70608CE040008DF800008A2000FB05
S3150800FBF004FBDFF81C859DF8000008EB0B09484458
S3150800FC00A0F108073878797801EB00201FFA80FA06
S3150800FC10B8786630B870307818B9DFF81405007807
S3150800FC2030703078387000203070FFF7E7FA787057
S3150800FC30DFF8E074386C20F4805038642000686E71
S3150800FC4002D17868400504D4012C23D178680005D0
S3150800FC5020D5FFF7E7FEDFF8E804017891B1002127
S3150800FC6001701AF4E45FDFF8DC04016802D00022B0
S3150800FC70402005E099F80100000900F001028F20F4
S3150800FC800FF06FFA20000CBF4FF480604FF400604D
S3150800FC90786030E01AF4E45F2BD1FDF701FD10B16E
S3150800FCA05FEA4A4025D518F80B00802821DA386C17
S3150800FCB099F80110890626440ED5696E09060FD4EF
S3150800FCC0A96CC9060CD4396822000CBF80224FF4EF
S3150800FCD080720840104203D1FFF7A4FE0020B070DE
S3150800FCE0B2789DF8001048460FF061FB0020B0700E
S3150800FCF001E0FFF797FE002C0CBF012002202861C7
S3150800FD00BDE8F18F2DE9F84FDFF80844DFF82864DD
S3150800FD102068216CDFF830B4DFF82484DFF82C94EF
S3150800FD20DFF808A401EA00053AE071B18A22DFF893
S3150800FD30E013504308444078C00606D4DFF80404AC
S3150800FD40016800228F200FF00CFA280608D50FB993
S3150800FD50FFF768FE0FF070FB802025F08005206015
S3150800FD60E80509D50FB9FFF75DFE0FF065FB4FF4FF
S3150800FD70807025F480752060680407D50FB9FFF7F1
S3150800FD8051FE4FF4804025F480452060280407D5AD
S3150800FD900FB9FFF747FE4FF4004025F400452060F1
S3150800FDA0002D73D00027280706D50020FFF74DFE43
S3150800FDB0082025F008052060E80606D50120FFF78B
S3150800FDC044FE102025F01005206005F0600060282C
S3150800FDD003D1B06CC0050AD401E0A80605D52020D9
S3150800FDE0206025F02005002006E0680606D540209C
S3150800FDF0206025F040050120FFF7E1FEE80404D560
S3150800FE004FF4805025F480552060E8079DD50120E1
S3150800FE1020606D08FCF7DEFE6D0078B14FF448727D
S3150800FE205146012011F02AF8FCF721FE40054CBF87
S3150800FE30032001200021FCF790FE012799F8010014
S3150800FE4008B100F095F999F80000002806D0FDF7EA
S3150800FE5099FB012807D198F8000000283FF475AFF0
S3150800FE609BF8000004287FF470AFF068400800F0A3
S3150800FE700100002814BF7168316811B92168C904E6
S3150800FE80F7D5002814BF716831684EE70020206056
S3150800FE90BDE8F18FDFF8B802006870470020DFF888
S3150800FEA0B41201EB4002401C93885B1C01EB400135
S3150800FEB09380498809B90828F1D3704738B50446AC
S3150800FEC0FFF7ECFFA34D1022291D2046F4F789FC05
S3150800FED005F11401204600F027FFFFF7DFFF05F1C3
S3150800FEE01401281D00F020FF214605F11400BDE885
S3150800FEF038401022F4F775BCF8B5974D2E780446AD
S3150800FF0001202870300008D10021032010F024FFBA
S3150800FF100F2710F03CFF7F1EFBD104B1267028780E
S3150800FF20F2BD10B58C4C217881F00101084303D14C
S3150800FF3010F069FF0020207010BDF8B5FFF7BEFF6E
S3150800FF400024844E00250F2710F021FF7F1EFBD1C9
S3150800FF50311DC0F3801031F81410A8404840311DF7
S3150800FF606D1C21F81400102DEDD3641C102CE9D358
S3150800FF70F1BD38B504460EF049FA08B10EF039FA63
S3150800FF8010252046FFF7D9FF6D1EFAD171490120C9
S3150800FF9008700EF03BFA08B10EF02BFA012032BDBC
S3150800FFA02DE9F0436B4F0446387885B0884691466C
S3150800FFB0012530B9FFF7A0FF05466846FFF7D9FFC8
S3150800FFC0054000261FE016F0070015D15FEA090074
S3150800FFD006D00020FFF790FF05406846FFF7ADFF03
S3150800FFE0FFF75CFF1022391D6846F4F7FAFB07F1A4
S3150800FFF01401684600F098FE06F007013DF8110066
S3150801000024F81600761C4645DDDB6846FFF756FFE1
S315080100100020FFF786FF284605B0BDE8F0830022D9
S31508010020BEE70321022010F097BE4FF6FF71081AAA
S31508010030292190FBF1F03A3040B2704738B510F0FB
S31508010040A6FEFFF7F2FF454D04462878B0B903210D
S31508010050032010F081FE4248018802237F22684668
S3150801006001F010F810F093FEBDF80010401880B2A8
S31508010070FFF7DBFF153868700120287010F0C3FE02
S315080100806878201A40B232BD80B50321022010F0EB
S3150801009063FEBDE80140D1E770B532480078002417
S315080100A090B9FFF7F1FF204E0546707848B13078D0
S315080100B0401B40B210F098FF0B2805DB3570012470
S315080100C002E0012035707070204670BD2648007820
S315080100D0704725490B78984200D1704780B508705A
S315080100E040B12249002008600848016821F08001D2
S315080100F0016001BDFDF754FBFDF72AFBFDF793FAF5
S31508010100BDE80240FDF777BA002000408420004090
S315080101106C7E002000A000404C1000408473002033
S31508010120D010004080200040CF7F002033FA00081D
S3150801013083730020747A002020200040FC7100207F
S31508010140B47A0020BC7A00204F730020CB7F0020B0
S31508010150382000407C7A0020D17F0020CD7F002006
S315080101604073020850730020D27F002054100040CB
S31508010170704700000B000AD0012A06D007D3032ACC
S3150801018002D004D2090200E009040AF0DFBB00210B
S315080101900170704738B50C460178154679B10AF0F1
S315080101A0E2FBB0F5803F38BF012106D3000AB0F55E
S315080101B0803F32BF0221000A03212970208031BD08
S315080101C010B50446094800EBC40082B082798188DB
S315080101D00068FFF7CFFF0F208DF800008DF801406A
S315080101E00221684606F063FE13BD0000D87200209E
S315080101F00020E5E70120E3E710B50446F4F7BCF86B
S3150801020004B140000B490978062901DAFF2010BD1F
S31508010210C1B221B9BDE810400020FEF70FB9064862
S31508010220064A00681268BDE81040801AC0B2FDF798
S315080102307FBB00BF6673002030780020C47300209E
S3150801024070B511F029F8B24C2046FEF7C1FBD8B9B2
S315080102502046FEF772FBFF28044615D0AD4909680A
S31508010260085C851EE9B22046FEF7E7FA0646E9B2BA
S315080102702046FEF7E0F92146304600F0F7F8204619
S31508010280BDE87040FEF778B870BD03460A469EA1E0
S315080102900420FFE70CB480B502AA00F03CF801BCC3
S315080102A05DF80CFB0A0003D0034698A11120F1E77B
S315080102B0704700B587B00FF001FA00210591049146
S315080102C00246622103910023002102910191012036
S315080102D0914900910FF25021FFF7DCFF8F48817990
S315080102E0C378827803910188029141790191017954
S315080102F0009142200FF23C21FFF7CCFF07B000BD69
S3150801030010B5044621468248FEF702FB2046BDE8A1
S315080103101040FEF723B82DE9F04F85B005460C4687
S31508010320904606F070FD0026F8B910F096FEE0B189
S315080103300120FDF7B6FF8246BAF1FF0F15D000215D
S31508010340FDF7AAFF294601A810F097FE05469CB9B4
S3150801035000F087F830B9504610F00AFF10B10420B2
S3150801036006F04DFD5046FEF707F805B0BDE8F08FDB
S315080103708DF804200125641C20780100E8D0A0F13D
S3150801038030010A2905D20A2101FB0600A0F130062F
S31508010390F1E700F066F80028E4D122780025422A20
S315080103A001A80ED0442A1AD0462A25D0572A0DD09C
S315080103B0622A3AD0662A2AD06C2A25D0702A26D0F3
S315080103C0D6E758F8040B8DF80400D3E758F8041B50
S315080103D08DF8041002250904090E4170CBE758F877
S315080103E0041B8DF804100A0A427004250A0C82704F
S315080103F0080E8DF80700BEE758F8041B5046FEF7AD
S31508010400CCF80028B7D0ADE758F8046BB3E7012359
S3150801041058F8041B662A08BF0223F2B25046FEF7B3
S315080104209BF8002808BF0026ECE73A4858F8047BF1
S31508010430006810F80A90FFB2FF2F9CD010F807B099
S315080104400BEB0901C9B25046FEF7F5F8002889D128
S31508010450CDF800B000233A4649465046FEF724FA3D
S3150801046089E72A4601A95046FEF795B82DE9F043D2
S31508010470122885B080460D4609D03A281DD04FF678
S31508010480FE71884204BF28460AF091FC34E02148EF
S31508010490234F0068465D08E02846FDF7F7FE21462A
S315080104A010F091FF3868455D203EFF2D24D0F6B245
S315080104B0212EACBF20243446EEE700F025FB814609
S315080104C0FDF7E6F80646FEF79CFC0746FEF796FC9E
S315080104D00446FDF7D5F802460F480FF2600103906E
S315080104E0CDF8109023460F4800684088029001967F
S315080104F000973B20FFF7CEFE2946404605B0BDE8EA
S31508010500F04306F082BC0000574600006C700000FC
S31508010510F4720020E8710020AC7A0020707302089A
S31508010520F0710020447C0020424238704242424227
S3150801053057424200424242425742000057424257FE
S31508010540573870420000000010B5142801DBFF205F
S3150801055010BD082802D10DF02FFF03E00E2804D1A3
S3150801056009F016FD78B1802010BD0FF21C0151F873
S31508010570201009B9002010BD0C780A2802D1FDF710
S315080105805FFB0443204610BD6C73020834730208EE
S315080105906A730208647302083373020800000000D4
S315080105A0657302088973020800000000697302086E
S315080105B06E7302088B730208687302086773020870
S315080105C000000000887302086D7302086F73020841
S315080105D08A7302086B73020810B50AF0E7FB10F07C
S315080105E007FDDFF80C432078002844D11020FFF7D7
S315080105F0ABFF000612D50020FFF7A6FF00060DD5B2
S31508010600E078162818BF012803D01A2818BF0F2822
S3150801061014D100F085FC01002FD010BD1020FFF782
S3150801062093FF0006F5D40020FFF78EFF0006F0D5EC
S31508010630E07816281CBF01281A28EAD0E078022893
S3150801064018BF1B28E5D0062818BF0728E1D00828B7
S3150801065018BF0928DDD00A2818BF0328D9D01028C1
S3150801066018BF1128D5D0122818BF1328D1D014289D
S3150801067018BF1528CDD0B02010BD0FF01CF80120E9
S31508010680FCF789FE11F09CF9F7F756FB01F01CFB04
S31508010690FFF70FFE0FF298200AF0E6F9DFF8541279
S315080106A00870FEF7A5FC11F09BF907F0CDFB0DF0DC
S315080106B089FE09F073FCFBF767FD4FF47041DFF81B
S315080106C038020AF043F9002010BD2DE9F04705F07C
S315080106D065FB05F0E7F80020FDF7B6F80EF0BAFD60
S315080106E0DFF818824046FEF773F908B907F016FFD6
S315080106F0DFF80C924846FEF76BF908B9F7F788FE5A
S315080107000BF0E8F80BF0C8FADFF8E861DFF8F45106
S315080107103078DFF8F4A10AF090F90BF089FC00278C
S31508010720002409E0FEF7ABFC2868007B042808BF13
S315080107300127FEF7D5FC641C9AF80010E0B288423E
S31508010740F0D3002F1EBFDFF8C4010078002805D0BA
S3150801075000F02AF8102808BF09F00FFDFFF770FD11
S3150801076009F025FC0DF0BEFE074611F033F968B114
S315080107704046FEF72DF948B14846FEF729F928B152
S3150801078009F013FC10B130780AF08FF938460DF0EC
S31508010790AFFEFEF7DFFC18B940F2AB1100F042F8E4
S315080107A0BDE8F0470DF03EBFF8B511F017F930B1C5
S315080107B00BF0F6FE00F0010080F0010400E00124D0
S315080107C0FCF7D6FE00280CBF0425002511F002F916
S315080107D048B14A48FEF7FCF828B14948FEF7F8F847
S315080107E008B1002000E002204949097801B1202119
S315080107F0464A127802B11022464B1B7803B14023B0
S31508010800454E36780EB14FF40076444F3F780FB116
S315080108104FF480672C432043084310431843304361
S315080108203843F2BD0FF2F80000F08ABA38B504462B
S3150801083034480068007B032818BF04280BD02046DB
S3150801084001F0FFFF4FF6FF75A84204BF204604F0EA
S31508010850B6FBA84204D12046BDE8324001F02ABBC6
S3150801086032BD70B504464FF6F87084420D4601DB79
S31508010870012070BD2000234E07D13068007D800716
S3150801088003D42846F9F7B5FFB8B9306842889442C7
S3150801089005D1011D08222846F3F7A3FF0DE0007BC9
S315080108A0032818BF04280AD0204611F0A9F8FF2802
S315080108B005D0294611F0C8F808B1002070BD2946AF
S315080108C0204601F038FB401E8041C00F70BD0D481F
S315080108D00068008A70470B49096808827047094809
S315080108E00068408A704707490968488270470000CE
S315080108F096070808C17F0020387E00202073002053
S31508010900D4720020447C00206D730020607800209A
S3150801091050790020C4780020EC7D0020FC7D002061
S315080109207A69676265652D737461636B2E6300006E
S315080109309C7D002053F40108047D00203114010830
S31508010940807C002065BC01088479002091B30108E8
S31508010950947C00200DC701084C7E00208B510208AB
S31508010960A47C0020E130020850790020559A00083D
S3150801097060790020119B00086078002077A10108A2
S3150801098048790020F1900008347900200D3A0108D1
S31508010990BC7C00208D220108307E0020513E0208D1
S315080109A03C79002079550108A47D0020CD4C020828
S315080109B0A4780020D7AA0008147E0020ADC3010838
S315080109C0C4780020CDBB00084C7C0020DBF200086F
S315080109D0EC7D0020F7AF0108047E00208DB00108E8
S315080109E0FC7D002043B00108107A0020213101085E
S315080109F0B8790020139B0108FC790020DF670108FC
S31508010A00E07D0020A5BF0108047A0020456501089C
S31508010A107479002073A50008E079002001620108B5
S31508010A20407E0020B16302080C7D0020FF1A0108F0
S31508010A30387E0020096F0208307C002027F600085E
S31508010A40000000000000000000210FF2D812535CDC
S31508010A50834201D101207047491CC9B20829F6D33E
S31508010A600020704700210FF2C412535C834201D162
S31508010A7001207047491CC9B20829F6D300207047DE
S31508010A80634800684088704761480068001D7047E0
S31508010A905F480068C07E70475D490968C876704737
S31508010AA038B55B4D5B4C2968487302285A4915D1FC
S31508010AB02868007B04281CBF084609F03DFF286802
S31508010AC0007B03281EBF0428204609F035FF286845
S31508010AD04069C00054BF9024BC2405E0002008707A
S31508010AE02070912410F08AFF2046FAF71FFE50B9AC
S31508010AF02346132245A1032006F082F92046BDE8C4
S31508010B003240FEF7A5BC31BD41480068407B00F084
S31508010B100F0070473E480068407B00F00F0002282E
S31508010B2001D1012070470020704738B50446FFF708
S31508010B30F1FF374D28B92868407B032801D0932057
S31508010B4032BDFFF7CCFE20812868C07BA0722868D9
S31508010B50807BE0722046F9F77CFC0020207304F1C3
S31508010B60140104F1100001F0C2FAE081002032BD3F
S31508010B7070B5274D2E680C46FFF7CCFF20B9707B60
S31508010B80032801D0932070BDF07B2070002060708F
S31508010B902868807BA070002070BD10B5002300E096
S31508010BA05B1CDCB28C4205D210F8014B9442F7D09B
S31508010BB0002010BD012010BD80B50821FFF72FFACE
S31508010BC008B1002002BDA52002BD11480068407B7E
S31508010BD001281CBF3128332801D101207047002084
S31508010BE0704710B50446FEF710F9010002D108490D
S31508010BF00968CC7310BD0648006890F90F00704764
S31508010C0003480068807B70470000000042420000EC
S31508010C10447C0020A47D00203C79002001207047F7
S31508010C20002070470001020304051D200203040584
S31508010C3008090A0B38207047382070473820704752
S31508010C403820704738B51A4A118B090A012923D168
S31508010C50012840F202211BD1508AB0F5837F18DBA7
S31508010C60FEF7CCF8A0F10B040423E2B20D21684685
S31508010C7000F09AF90F4D9DF8030028720E48006896
S31508010C80A880AC71FEF7BDF8E87140F2062001E0D4
S31508010C9010B908460FF08CFC012032BD0448008BC0
S31508010CA0000A012808BF10F0A1BF4FF6FF70704770
S31508010CB00000000800000020902000400268174943
S31508010CC012BACA60426812BA8A60826812BA4A605F
S31508010CD0C06800BA08607047704710B5104980228D
S31508010CE00A6006230F4A136007230B6013689B07E4
S31508010CF0FCD5002350F823405B1C24BA042B8C62D4
S31508010D00F8D313685B07FCD500220B6B1BBA40F8B6
S31508010D102230521C042AF8D310BD00003830004096
S31508010D200030004010A0004010B504460846FFF701
S31508010D30C5FF2046BDE81040CFE7000042DE7047F8
S31508010D4038B504460D460DF054FB0DF0CBFB29468C
S31508010D502046FFF79AFA29462046BDE83440EDE7D2
S31508010D6066482DE9F047664D01682E1D4FF4206847
S31508010D707165016AB16563490968F165416A316658
S31508010D80816A7166C16AB166016BF166806B30670B
S31508010D9096F8340040074CBFF46BB46B0FF09BFC1C
S31508010DA00022F2648442584A014624BFA2F1200A6D
S31508010DB0A2452746316505F18C03DFF850C1DFF8F6
S31508010DC050E118D3A0693064E4697464746DC4F39E
S31508010DD00804062C13D1704511D360450FD200883B
S31508010DE04DF64264A0420AD13068586040F2017853
S31508010DF07068986003E000273764776407464548BA
S31508010E00814202D2014600E0091D0846904203D2FA
S31508010E100C68B4F1CD3FF7D03F49081AB0640021F8
S31508010E20002005EB8004401C0628A167F9D30020A1
S31508010E3003E0C0B205EB8004A167974222D252F8BB
S31508010E40041D7145F9D36145F7D2CC07F5D50024C0
S31508010E5005EB8409D9F87890894502D0641C062CDB
S31508010E60F6D3062CE9D1002814BF401E0520E0E779
S31508010E70716F002405EB8402641CD76F9767052CF4
S31508010E80F8D319600146481EC9B20029F0D1706D20
S31508010E90C0F3080002280AD0032815D0042816D062
S31508010EA0052817D0062818D00C281CD01EE01B4888
S31508010EB00168890748BF40F602181CD40068C007B4
S31508010EC019D540F2025816E040F6012813E040F61B
S31508010ED0022810E040F603280DE0B8F5206F0AD184
S31508010EE040F6042807E040F6052804E018B124284E
S31508010EF038BF40F607284046BDE8F08704ED00E014
S31508010F000000002000E300E050710020206F020875
S31508010F109041000898000020507100201CA0004054
S31508010F2030B50FF23811DFF828510A6883B001A8E5
S31508010F300024026001202870002010F05DFE30B107
S31508010F40002010F059FE10B12C7049203EBDDFF883
S31508010F500401018802237F220DF1020000F024F822
S31508010F6002237F220021684600F01EF8002001A90D
S31508010F70BDF8022031F81010914208BF0124401C27
S31508010F800228F4D3BDF8000024B1B0F57F7F07D15C
S31508010F9000203EBDB0F57F7F14BF0420062000E087
S31508010FA00720002129703EBD10B5FF2908DCDFF8AE
S31508010FB0A040247844B1BDE81040C9B211F04ABA3C
S31508010FC0BDE8104000F05EB810BD10B5FF2908DC79
S31508010FD0DFF87C4024786CB1BDE81040C9B211F045
S31508010FE06DBA7F2A08BF0022DFF86C40214302FB55
S31508010FF00311016010BD2DE9F0410546FF2D0E468E
S31508011000174698460FF2580013DCDFF8444021785A
S31508011010A1B1617811B1BF21FFF792FE012060707D
S31508011020434632463946E8B211F078FD0020607031
S3150801103004E0BDE8F041CA21FFF782BEBDE8F081B0
S3150801104003490978002918BF11F094BE70470000BA
S315080110509C7F00204273020800000808FE01FD0279
S31508011060746F6B656E2E630038B514467F2C08BF06
S315080110700024314D29431A4604FB0311BDE83840C3
S31508011080F3F7AFBB70B51E00044615461CD04BF2EC
S315080110903460814212D1092E28BF082633467F22A1
S315080110A040F612012046FFF7DFFF32460FF2A8018C
S315080110B02046F3F7E0FB38B940F2A27133462A46D7
S315080110C02046BDE87040CFE770BD2DE9F0410C46DA
S315080110D019490FF2780841EA0006C007154602D5F4
S315080110E06C2100F02FF8E80702D56D2100F02AF8E7
S315080110F01248864204D3A819401E1149884202D3D0
S315080111006E2100F01FF8002706E0F05DFF2802D0E7
S31508011110752100F017F87F1CAF42F6D36A082146FD
S31508011120304611F06CFF28B14046BDE8F0417B21FD
S31508011130FFF706BEBDE8F0810000080800080808A8
S31508011140001008084046FFF7FBBD00006D66672DD5
S31508011150746F6B656E2E6300FFFFFFFFFFFFFFFFD6
S3150801116038B5DFF8B049DFF8B0590020E0602074DF
S31508011170FF2060760AF037FF28700DF0C7FF0120BF
S315080111806076207C40F002002074281D09F0D4FB0B
S31508011190002032BD2DE9FE4F81460D46144609F061
S315080111A0FAFC8DF80600DFF8747938689DF80610A0
S315080111B010F80900DFF85C89401A8DF805004846E1
S315080111C009F008FD00F00C0004280CBF01260026D2
S315080111D04846FDF707F98DF80400FF280EBF4FF0C2
S315080111E0000B396811F800B0002002908246FF20F2
S315080111F088F818006F1CDFF828090068007B0328A7
S3150801120018BF042802D10AF008FF31E0484609F060
S31508011210E1FC0C21084218D15CB3484609F0C5FC2B
S31508011220FBF7B2FB82464FF440411AEA010F07D099
S315080112305FEA8A5004D5DFF8EC080AF0B4FE17E035
S31508011240DFF8DC080068C07B12E094B1484609F073
S3150801125013FDB0F5406F484604D109F022FD01F0AF
S31508011260F0FA01E009F02CFD0AF070FB0AF09DFE88
S31508011270207030001DD0484609F0BEFC04464FF6E2
S31508011280FF7048F6410A844218BF48F6610AFEF71C
S3150801129048F80146F81CFBF77EFB2146781DFBF74B
S315080112A07AFBFEF739F80146F81DFBF774FB093797
S315080112B00297002000909DF805309DF806204946C2
S315080112C03846FDF7F8F89DF80500BBF1000F07440D
S315080112D009D0002000905B469DF80410002238468C
S315080112E0FDF7E9F85F4476B1484609F05EFC4078B7
S315080112F080072FD5029868B3391A4A46C9B206F04B
S31508011300FEFF074426E0A878697801EB002080B241
S31508011310C10901F0010181F001064FF67F7101EA69
S31508011320000A0AF0070003280CD1694648460AF064
S3150801133027FE681C09F084FC9DF80010081828444B
S31508011340407805E0DFF8E0070078092802D1072090
S3150801135088F8180048460AF003FC08B14AF0100A52
S315080113605146681CFBF717FB1AF0070F05D1DFF882
S31508011370A8070178491C017005E0DFF8A407006891
S31508011380017E491C0176781BE970401C2870781B80
S315080113907F2802DBE92100F02FFB3046BDE8FE8FEE
S315080113A070B5DFF870670446F0680D4608B100208D
S315080113B070BD0EF066F848B1307C002804BF307A5B
S315080113C0002803D115B1A047012070BD307CF46017
S315080113D040F004003074DFF8540709F0ADFA022032
S315080113E070BD0121DCE790E038B50446DFF8240733
S315080113F0007E0D46811F012903D821460AF0AEF861
S3150801140078B9284609F0EBFBFDF739FE214628464F
S315080114100AF0CEFB18B92146284607F0C0FCFDF7AD
S315080114205FFE2846FCF7A8FFBDE8314009F0C7BCB6
S31508011430DFF8E416002008716BE080B500F047FB81
S3150801144070B1DFF8D4060079002801BFDFF8C406B9
S31508011450017C0F22114203D1007A08B9012002BD8D
S31508011460002002BDF8B50446DFF8C4060078002856
S3150801147002BFDFF8A066F06800280D4626D1DFF81E
S31508011480A80600780B2818BF022D1FD10DF02AF8DF
S31508011490327A082A074617DA012D08BFB45404D050
S315080114A03146701CF3F79DF93470307A401C30725E
S315080114B038460DF01DF82046FCF750FFDFF86C069C
S315080114C009F03AFA0120F2BD0DF012F80020F2BD3A
S315080114D038B504460DF006F80546DFF83806017AF0
S315080114E069B101782170017A4A1E0272411CD2B291
S315080114F0F3F777F928460CF0FBFF012032BD2846A1
S315080115000CF0F6FF002032BD00BFDFF8200609F017
S3150801151013BA70B582B00DF0B4FF002800F09580BB
S31508011520DFF8F045207C800706D5607E0DF0AFFF19
S31508011530207C00F0FD002074207CC00702D4FEF751
S3150801154051F8A0B1207C00F0FE002074FEF730F8B7
S31508011550FDF795FD06F02DF98DF8000009F03FFB22
S31508011560FDF79AFE002850D00420207652E06846FE
S31508011570FFF7AEFF0028DFF8B05553D09DF80000FD
S3150801158009F028FB012400F00C000C2824D19DF851
S31508011590000009F00AFB06469DF800000DF101015D
S315080115A00AF0EEFC304609F04BFB9DF801100818CD
S315080115B0811D9DF80000C9B2FDF784F8297807292D
S315080115C002D1062808D106E001291CBF05290929E7
S315080115D002D1072800D100249DF8000009F0FAFA83
S315080115E000F00C00082804D12878092814BF03281C
S315080115F000249DF8000009F0F2FA0546FDF73FFDC3
S315080116001CB12846FDF748FE20B99DF800000DF0EB
S3150801161079FE04E09DF800104120FFF7E5FEFDF78D
S315080116205FFD73BD28780B2802D111F071FD60B9F1
S31508011630207C410707D5E168002200F0FB00E26043
S315080116402074884773BDFDF748FE73BD80B5FDF765
S3150801165093FFDFF8C004017C41F001010174DFF852
S31508011660CC04BDE8024009F067B9DFF8A804017C9B
S3150801167001F0FE01017470472DE9F04FDFF89C94E3
S31508011680A5B0044602A80021C0E9001102AE204611
S31508011690FCF7FCFD082305788178407800EB0127E3
S315080116A0002000902146D9F80000005DA0F108024B
S315080116B0D2B202A8FCF7FFFE707800F00F00FDF722
S315080116C0DEFCDFF86C040078BFB2A84620B3DFF869
S315080116D06474386800281ED0F078FBF76AFC414626
S315080116E0FBF76EFC804696F9026004A880210AF091
S315080116F08BFC002000906B1CDBB20022214604A85B
S31508011700FCF7D9FEFDF731FD3B683246414604A890
S315080117109847FDF7E5FCA8E007F007000228FAD08C
S31508011720FF208DF804002046FCF7B0FD00F1010A00
S31508011730504609F085FA8346A5EB0B00851E6DB266
S31508011740002DE8D401208DF800006B4601222146C0
S31508011750002009F02EFB9DF8000000281DD0B805D1
S3150801176006D507F00700032818BF17F0070F10D191
S3150801177001A9504602F050FC002876D107F007006F
S3150801178001280BD19DF804000AEB0B0107F096FE20
S3150801179020B99DF80400FCF7EFFD66E09DF804000A
S315080117A0D9F800100F5CDFF8901309680C54D9F8C2
S315080117B00000005D00F120019DF80400C9B2FCF7A4
S315080117C06BFD9DF8040009F005FA00F00C000428E9
S315080117D01CBF5D444FF0000B68B280B200900BF15C
S315080117E001039DF804009BB222463946FDF75CF8D1
S315080117F0E9199DF80400C9B2FCF71DFFCF497078B5
S31508011800097800F00F00884203DB4FF4257100F0D8
S31508011810F3F89DF8040009F0D8F97178C0F30D00C2
S3150801182040EA81319DF8040089B209F0D0F9F078CF
S31508011830FBF7BFFB4146FBF7C3FB02469DF80400D5
S31508011840032109F09BF9B2789DF80400042109F0F7
S3150801185095F99DF808209DF80400052109F08EF9EF
S315080118609DF80440204600F008F82046FCF784FD60
S31508011870FDF736FC25B0BDE8F08F2DE9F84304469F
S31508011880FF2C03D140F2BD2100F0B6F800F0B9F8FB
S3150801189000F0B6F800F00C0008284DD005F00C0051
S315080118A00C287CD1204609F080F90646FBF76CF82E
S315080118B06946804620460AF063FB002808F44C4531
S315080118C03FD0204609F067F90746304609F0B8F9CE
S315080118D09DF80010C0190918C9B22046FCF7F2FE96
S315080118E007464FF4406018EA000F4FF6FF7906D015
S315080118F0F01CFBF749F8484508BF45F0400508F4D0
S315080119004060B0F5006F06D1701DFBF73DF84845FC
S3150801191008BF45F010059DF80000002818BF072FDD
S3150801192068D1012F4CF6500028D0022F29D0042F58
S3150801193008D0062F31D0072F31D0082F28D07C2F79
S3150801194022D057E0B5F5484F18BFB5F5084F05D071
S31508011950B5F54C4F18BFB5F50C4F4BD120460AF0DB
S3150801196085F8E0B1280403D5204609F0DDF981465A
S31508011970002249460220FDF780FD3BE0B5F5484FB8
S315080119800DD0B5F54C4F06E0B5F54C4F07D001E043
S315080119904CF64040854202D02CE085422AD12046A9
S315080119A009F013F900F02CF800F00C00082816D0FD
S315080119B0A80614D54FF6DF7000EA0501204609F09E
S315080119C006F9204609F0E7F80546204609F0EDF83C
S315080119D009F036F94119C9B22046FCF72CFE214611
S315080119E05748FCF795FF2046FCF7B8FC55480078A0
S315080119F009F09AF8BDE8F1830FF28010FFF7A0B954
S31508011A000546204609F0E6B838B50C4602460021D7
S31508011A10082009F090F90546FF2D01D1012032BDB4
S31508011A202146FFF71FFD04462846FCF7A5FC84F06E
S31508011A30010032BD0121E7E7364A53690BB170202F
S31508011A407047506108460DF07CBC38B5314C656964
S31508011A501DB940F27E31FFF7CFFF00206061A8472C
S31508011A6031BD2C494A69824203D1002048610DF0F3
S31508011A7073BC70474FF6FF71884200D1704780B535
S31508011A8001463148FFF7D8FF38B1BDE804404FF4A5
S31508011A9064710FF2E800FFF753B901BD10B51D4C8B
S31508011AA0627E90420FD060760DF0EBFC20B1607E2D
S31508011AB0BDE810400DF0EBBC207C40F0020020741C
S31508011AC0BDE8104021E510BD1248407E704780B53B
S31508011AD0154800780B2801D0002002BD0DF0D1FC75
S31508011AE000B1012002BD80B5FFF7F1FF30B1FEF765
S31508011AF0D3FA18B1BDE8014011F002BC01BD80B5A9
S31508011B00FFF7F1FFBDE804404FF4A0510F4808F074
S31508011B101DBF0000C47C0020007D0020E871002064
S31508011B20447C00206879002091730020047D002000
S31508011B30B57A0020FC7C0020F07100206D7300202E
S31508011B4020730020C17F002091B401080C7D00207C
S31508011B5010B5FAF78CFF0446FBF73CF860B104F4BC
S31508011B604030B0F5403F01D1022010BDB0F5003F2D
S31508011B7001D1012010BD002010BD000075707065EF
S31508011B80722D6D61632E63004B49097881B100217D
S31508011B9000E0491C494B1B78CAB29A4208D2484A06
S31508011BA01268C9B232F821208242F2D1084670473A
S31508011BB0FF2070472DE9F04104463F48067830007A
S31508011BC00D4608BFFF2044D02046FFF7DDFF3D4AFA
S31508011BD03B491378394FFF280ED13878B04202D2E3
S31508011BE0461C3E7008E0184600E030460E6806EBD3
S31508011BF08006F678FF2EF8D198421DD04FF0000CDA
S31508011C0001E00CF1010C97F800E05FFA8CF67645D5
S31508011C100DD20E685FFA8CFC06EB8C0E9EF80380DB
S31508011C208045EED106EB8006F6788EF803600E68DD
S31508011C3006EB8006F3701070FF230A6822F820402D
S31508011C4002EB8002FF2D937003D0096801EB850131
S31508011C508870BDE8F08170B50546084616490978C9
S31508011C6001B3FFF791FF0446FF2C1BD0FF2128463D
S31508011C70FFF7A0FF0546FF2D12D029460DE01048B3
S31508011C80006800EB820330F822009E78FFF792FF86
S31508011C90A842214608BFFF2534462246FF2AEED12F
S31508011CA0284670BDFF2070BD00BF04480078704704
S31508011CB00148007870470000A27F0020E37F0020DA
S31508011CC03C720020A6730020DFF8D80300780C21A7
S31508011CD001FB00F2DFF8D0030068FF21F2F7C4BD6B
S31508011CE070B50C46DFF8BC1309788842054601D35E
S31508011CF06A2070BD08F0C7FD08B1762070BD204680
S31508011D00FEF794FD4FF6FF71884208BF4FF6FD7046
S31508011D100C21DFF894634D4331684853204600F09F
S31508011D2070F9316829448872FDF7FEF9042804DB45
S31508011D302D210FF29830FFF703F8FDF7F5F9316811
S31508011D4029448A7A42EA400088720822306828447F
S31508011D502146801CF2F745FD002070BD38B5DFF835
S31508011D6044331B78984224D20C22CF4D02FB00F44F
S31508011D702A6811534FF6FF72914208BF08F085FD94
S31508011D80FDF7D2F9C9490978884204D347210FF2E8
S31508011D903C30FEF7D5FF28682044817A01F0F1012D
S31508011DA08172FDF7C1F9296821448A7A42EA40001D
S31508011DB0887231BD10B5BB4A12780346934208466C
S31508011DC00AD2B94909680C246343BDE8104019448D
S31508011DD00822891CF2F705BDBDE81040082200213A
S31508011DE0F2F742BDAF4A1278904205D2AE49096868
S31508011DF00C225043085A70474FF6FF707047F8B5E2
S31508011E0007460C46A74DA84E00E00C3729783068DE
S31508011E100C2251430844874214D238884FF6FF7181
S31508011E208842F2D008222146B81CF2F724FD002880
S31508011E30EBD1FDF779F9B97AC1F342018142E4D1CF
S31508011E403846F2BD0020F2BDF8B50446F5F76CFD3B
S31508011E509548944F056800260EE02888A04209D1C6
S31508011E60FDF762F9A97AC1F34201814204BF4FF62F
S31508011E70FD7028800C35761C3978F0B28842ECD38F
S31508011E80F1BD70B504460D462846FFF7DDFF294624
S31508011E902046F5F76AFD84480068214605E0358045
S31508011EA008F0C4F8214606F10C00FFF7A8FF060062
S31508011EB0F5D170BD7FB5044608227D49F2F7DBFCF2
S31508011EC010B9FEF704FD34E07A4D2868011D082291
S31508011ED02046F2F7D0FC10B92868408829E000208E
S31508011EE000904FF6FF750023012221462846F5F793
S31508011EF07FFEFF284FF6FC7605D06F49096831F851
S31508011F001000B04215DB01A802F0E0F950B9BDF89E
S31508011F100400400606D5082221460DF10600F2F70F
S31508011F20AAFC30B100F087F810B10088B04200DB96
S31508011F30284604B070BD2DE9FF4104468846FEF7E0
S31508011F40C6FC844202D1082259493EE0594E3068FE
S31508011F504288944209D100220821001DFEF71DFE80
S31508011F6018B930680822011D2FE0002000900023CF
S31508011F70012200212046F5F73BFEFF280AD06946D3
S31508011F80F5F783FD30B908220DF105014046F2F750
S31508011F9028FC1DE04448434E0768002501E00C373C
S31508011FA06D1C3178E8B2884214D238884FF6FC7134
S31508011FB08842F4DAA042F2D1FDF7B6F8B97AC1F34C
S31508011FC042018142EBD10822B91C4046F2F709FCCD
S31508011FD0012000E0002004B0BDE8F08110B50446F8
S31508011FE0002000F027FBFF2808D03449096831F89A
S31508011FF010000006800E00F0010010BD04F001007B
S3150801200010BD38B5044600F016F8002508B1857AE2
S315080120100CE000900023012221464FF6FF70F5F7E8
S31508012020E7FDFF2802D0264909680D5C21462846A6
S31508012030BDE83440D2E71C4800682146DFE638B5DA
S3150801204004460D46F5F7DAFC17480068214602E012
S31508012050857221460C30FFF7D2FE0028F8D131BD32
S31508012060F8B5044621460020F5F792FDFF2815D15B
S315080120701448154D0668002701E0361D7F1C29788E
S31508012080F8B288420CD23088A042F6D1FDF74CF856
S31508012090F1788142F1D1B0780028EED00120F2BD65
S315080120A00020F2BD737300204C7200206D7300206E
S315080120B0AC7A0020447C002040720020FC7100208C
S315080120C044720020187200206B73002061646472E8
S315080120D06573732D7461626C652E6300DFF84813AE
S315080120E0002008714FF6FF70D0490880704730B557
S315080120F083B004460D460823092269460120FAF7EA
S3150801210070FE14B19DF8060020700DB10098286084
S31508012110BDF804003EBD80B500216846FFF7E7FF1C
S315080121209DF8000002BD10B582B00446694600203C
S31508012130FFF7DDFF009A0146204600F002F8204627
S3150801214016BD00B583B08DF80600ADF804100092EF
S315080121500823092269460020FAF743FE07BD2DE93F
S31508012160F04786B0804602A80021002200230EC04F
S31508012170404601F09EFA0546AD48006810F80890F9
S31508012180002000900A232A46414602A8FCF793F943
S315080121909DF8080005F10A0409280CBF0125002548
S315080121A09DF80900E021084268D16846F8F751F917
S315080121B008220DF10A016846F2F75DFB00285DD198
S315080121C0002D4ED000F01AF9002857D0974D2888CF
S315080121D04FF6FF7A50451CBF4FF6FE7188424DD126
S315080121E0914F94493878001D3870C0B20978491E54
S315080121F08900814242DA0020387009F0F4FE28800D
S31508012200264607E031464046FCF717FB29888842EF
S31508012210F3D0B61CF6B2A9F101008642F2DB288892
S31508012220010018BF5045E8D0FEF759FB29888142BD
S31508012230E3D0FFF770FF401CC0B2FFF774FF0146F9
S315080122402A880A2000F051F840B14FF47A71381DF6
S3150801225008F07CFB0C20FDF7D9F80FE0A5F800A0E3
S315080122600CE0E1B24046FCF72DFAFFF75CFF611C72
S31508012270C9B24046FCF7E1FA00F080F87BE06A480B
S3150801228001780A001CBF491E0170704738B56649B6
S31508012290002008710C20FDF7C8F8FCF7F0FE664827
S315080122A00068407B022818BF03281AD15F4C208892
S315080122B04FF6FE724FF6FF7590420CBF2580A84275
S315080122C00FD0FEF710FB258000210020F7F7DAFF73
S315080122D09A23132253A1032004F092FD9A20FDF7B5
S315080122E0B7F8BDE83140FCF7FBBE2DE9F0470546D6
S315080122F00026092D0C460CBF0127002786B09146FA
S3150801230000210020FFF7F3FE8DF80850804602AD44
S31508012310012068700DF1120A0DF10A00F8F799F813
S3150801232017B9AC720DF1130A49465046FAF733FB51
S315080123300AF102000FB94FF6FF7802A9431A01966E
S315080123400096DBB202AA6421404601F08CF90446E4
S31508012350FF2C0FD03FB100F051F820B12046FFF70E
S31508012360FEFE012603E0204605F0BDFD0646204691
S31508012370FCF702F8304606B0BDE8F08738B50446E2
S315080123804FF6FF75AC4216D0FEF7A9FA844212D071
S3150801239026480188A9421CBF4FF6FE7291420AD10E
S315080123A004804FF47A71254808F0D0FABDE8324026
S315080123B00C20FDF72BB831BD1F480068007B0428A7
S315080123C000D1704738B5194C20884FF6FF718842FD
S315080123D013D1FEF784FA05464FF47041174808F001
S315080123E0B5FA0C20FDF712F82A464FF6FE70208042
S315080123F00021BDE83840092077E731BD10B50E4800
S315080124000068007B04280AD0FEF761FA0446002119
S315080124100020FFF76CFE844201D1012010BD002087
S3150801242010BD000042420000B87C00205C73002009
S31508012430E87100207D730020447C0020BC7C0020CC
S315080124402DE9FF470024DFF85C5606E0FCF717FE86
S3150801245009F050FAFCF744FE641C2978E0B2884278
S31508012460F4D3DFF84446DFF844562078DFF840967F
S31508012470DFF8408600F040F80021F2F7F5F92278F6
S3150801248028680921F2F7F0F9002601AF2EE00B239F
S31508012490F2B2172101A8FEF787FD787A397A01EB9E
S315080124A00020D8F80010F6B2B24621F81A0081B217
S315080124B000291EBF80B24FF6FF71884204D0B97A4F
S315080124C00022304600F01DF8012332461A216846DB
S315080124D0FEF76AFD2968BDF8000001F80A006FF0E9
S315080124E07F00D9F8001001F80A00761C2178F0B2AD
S315080124F08842CCD3BDE8FF874200DFF8BC050068F7
S315080125007047DFF8B4351B6809074CBF0021042161
S3150801251041F4805141F0020123F810100021DFF83F
S315080125209C351B6843F820101102DFF894251268C0
S3150801253022F81010704710B5DFF888150C782100BD
S3150801254008BF012409F002FA0146FF290DD0DFF878
S315080125507005026832F8113018001ABFA3EB131080
S3150801256000EB0410200222F8110010BD70B5DFF847
S31508012570484524680022002302E024F813505B1C16
S31508012580DFF824552D78AB4209DA34F813506E0773
S31508012590F5D501220E0014BF05438543EDE7104624
S315080125A070BD002100E0491CDFF8FC341B78CAB273
S315080125B09A420AD2DFF800251268C9B232F8112008
S315080125C002408242EFD101207047002070472DE971
S315080125D0FE4306460C461546DFF8D884DFF8C8944C
S315080125E001E0EFB1761C99F80010F0B288421ED2CC
S315080125F0D8F80000F6B230F816700B23324600F010
S315080126009EF9002CEDD0002F1CBF4FF6FF708742B4
S31508012610E8D0082269462046F2F72DF90028E1D1CB
S315080126209DF80A0000F0EF002870304600E0FF2010
S31508012630BDE8FE8380B56A46FFF7C9FF02BDFEB550
S3150801264004460D4616461F46082231466846F2F7E5
S31508012650C8F800F0B8F98DF80A703946089A204684
S31508012660FFF74FFFFFF749FF30F8141041F4804197
S3150801267020F8141000F0ADF9DFF8300402680F21D4
S31508012680115501230068021921461A20FEF7B3FCE9
S3150801269000F0D2F920F814500022DFF82C04006863
S315080126A02C3041680078201841F82020304609F07E
S315080126B07AFCDFF8FC1309680855304609F074FC02
S315080126C00120FEBD2DE9FC4F85B080468A4601AA48
S315080126D041460020FFF77BFF0546FF2D4FF0000B13
S315080126E0DFF8E463DFF8CC7313D09DF804009DF896
S315080126F01410884202BF396831F815108A4508D086
S3150801270002F0BEFF08B900F083F8284600F097F9F1
S31508012710FF254FF6FF79CA4512D002A95046FEF7A2
S31508012720A0F8C0B90022082102A8FEF736FA90B926
S31508012730082202A94046F2F79EF860B1CA460AE0A5
S31508012740FF2D08D002F09CFF08B900F061F8284671
S3150801275000F075F9FF259DF814108907504604D530
S31508012760484552D103F0D3FB4FE0FF2D09D040462F
S3150801277009F019FCCE4909684855404609F014FC88
S3150801278022E0D24CD24922780978914215D048459F
S3150801279002D103F0BCFB824600210020FFF74AFF65
S315080127A00546FF2D09D010989DF814300090424631
S315080127B051462846FFF743FF08B9484625E02078E1
S315080127C0401C2070F7F7C5F99DF81810284600F047
S315080127D0BAF8FCF7CAFCFEF77AF80146386830F809
S315080127E015000122F6F728F902F04AFF40B93068C8
S315080127F02C305FFA8BF241680078281841F82020BE
S31508012800FCF76EFC386830F8150007B0BDE8F08FA4
S3150801281030682C3041680078281851F820B0704784
S31508012820A549096800204EF6FF7305E031F8102026
S315080128301A4021F81020401C9B4A12789042F5DB79
S31508012840704780B501460020FFF7F4FEFF2802D144
S315080128504FF6FF7002BDBDE802409749096811F8B5
S315080128601010890704D59349096831F81000704793
S315080128704FF6FF707047FEB5954A127890420C469E
S3150801288006D28D4E3168054611F81510890701D40F
S315080128909320FEBD00F051F89DF80A7000F048F843
S315080128A0B80748BF022003D438074CBF03200420C9
S315080128B0207200F0C1F830F8150060817C48006884
S315080128C0405D6073306810F8150000F00100207350
S315080128D076480068405DA0730020FEBD80B509F00A
S315080128E035F8FF2808D07449096831F81000000640
S315080128F0800E00F0010002BD002002BD80B509F07E
S3150801290025F8FF2801D0012002BD002002BD10B51F
S3150801291084B00C4609F01AF80246FF2A05D000F0E1
S315080129200DF800F005F8012000E0002004B010BD04
S31508012930082269462046F1F754BF02460B231721A0
S315080129406846FEF731BB7FB501F00105044628004C
S3150801295026460FD069462046FFF78DFF50B9FFF787
S31508012960CCFD30F816000006800E00F0010168461D
S31508012970FFF765FB204603F067F9009533462322E6
S3150801298047A1032004F03CFAFCF7EFFB2946204651
S31508012990F4F719F9FCF7A4FB7FBDFEB5454F0446CC
S315080129A03868264630F8160088420D460AD00B23A9
S315080129B02246FFF7C4FF00F006F800F00AF8386867
S315080129C020F81650F7BD280A8DF809008DF8085029
S315080129D070470B236A4621461720FEF70CBB38B50C
S315080129E0044600F029F8254630F8150018B337488B
S315080129F00178491E0170F7F7ACF800212046FFF768
S31508012A00CCFF2D490968002021F815006FF07F00D9
S31508012A1027490968485500202949096821F81500F8
S31508012A202046F7F7E7FDBDE8384000224FF6FF716B
S31508012A301120FCF722BD31BD1E48006870472449A4
S31508012A4010B50978884204460CD2FFF7F5FF30F82D
S31508012A50140038B100212046FFF775FF2046BDE86E
S31508012A601040BCE710BD38B500240F4D04E0002125
S31508012A70E0B2FFF792FF641C2878E1B28142F6D3EF
S31508012A80124A00211170FFF737FDF1F7EDFE28789C
S31508012A904200BDE838400A4800680021F1F7E4BE63
S31508012AA0424242006D73002068730020487200207C
S31508012AB004720020F8710020FC71002000720020C9
S31508012AC008720020DD7D0020447C0020D87F00208C
S31508012AD078730020008F8E8C800000002DE9F24F5C
S31508012AE0804690B015469DF840001E4605A900F09F
S31508012AF079F90746DFF8C098DFF8C0089DF8141081
S31508012B000068405CD9F80010B1F806A04988ADF80C
S31508012B100810C41BB1F5004FE4B201DAB84204DA71
S31508012B20DFF89C18002008708CE0300018BF4FF4BD
S31508012B30A07A152CB4BF631C1623002000907A1EB8
S31508012B409DF81410DBB2D2B206A8FBF7B4FCBDF8A7
S31508012B5008009DF818B040F400415B4652460CA89F
S31508012B6000F076FB012D14BF0120002001900DF124
S31508012B70190000903346BDF808104246504600F049
S31508012B8065F808B101205EE0002D5BD1D9F8000097
S31508012B904088342845D1092C54D19DF82100C825EF
S31508012BA041064CBF8026002600060DF1190048BFD4
S31508012BB046F0200600220821FDF7EFFF002738B965
S31508012BC00822DFF800180DF11900F1F754FE78B95B
S31508012BD0DFF8F4070068017B012933D04269D20185
S31508012BE004D5032911DB408880450ED101270BE066
S31508012BF00DF11900FFF725FE4FF6FF71884204D043
S31508012C00314601F071F800B900252A46CCA14046A3
S31508012C1000F02CFBB7B103224146304600F020FFF5
S31508012C2010E0CDF810B0CDF80CA002940DF1190002
S31508012C3001909DF814309DF84010009732464046A1
S31508012C4010F0C6FB002011B0BDE8F08F2DE9F14F59
S31508012C5090460FF29072DFF86CA7994686B0D2E9D2
S31508012C60003203A80026C0E90032109F08000DF1C2
S31508012C700C0B1ED1082251463846F1F7FCFDBB461E
S31508012C8007F1080558B9FDF722FE04462F78119871
S31508012C9006EA090128BB481E8041C00F1EE03846D6
S31508012CA0FFF7CFFD04464FF6FF708442EED10126A9
S31508012CB0ECE7012911D17878397801EB0024BD1C9C
S31508012CC0FDF705FEA7B2874208BFD346DED003A9A2
S31508012CD0A0B2FFF71CFE0028E8E7002007B0BDE810
S31508012CE0F08F61BBB9F1000F01D0022F27DA012F4E
S31508012CF008BF002E02D1FDF7EAFD03E0002E08BF4A
S31508012D00012F03D1FDF7E3FD0446D34695F801A04B
S31508012D100EB1812203E0022FB4BF002280220020D7
S31508012D20CDF808A00190A4B200945B460FF2BC61ED
S31508012D300120FBF71FFD8346BBF1FF0F01D10120DF
S31508012D40CCE716B9022F00DA67B90C215846FBF70A
S31508012D5072FC5A460021404600F088FA5846FBF7AD
S31508012D600BFBECE70025DFF85476DFF86446DFF85D
S31508012D70649604E0AAF101005FFA80FA6D1C99F8DD
S31508012D800010E8B2884223D22068EDB210F8150087
S31508012D908007F3D5BAF1000FECD12846FFF75DFDA0
S31508012DA08DF800000222000A8DF80100694658468E
S31508012DB0FBF7F1FB0028D1D1BDF81800F5F7D9FCCE
S31508012DC0396811F80B10891C761C8842F6B2D5DAD7
S31508012DD0300008BF0D21B9D032460C215846FBF701
S31508012DE076FCB6E738B504460D46FBF7FBFAFF282D
S31508012DF005D02046FBF7F6FA2870012004E02C706E
S31508012E00204600F0D9FC401CC0B232BD2DE9F04184
S31508012E1088B005460E46174601A93046FFF7E2FF78
S31508012E20044602A80021002200230EC0DFF88C0503
S31508012E309DF804100068405C9DF804100092031B7D
S31508012E40DBB20B2BA8BF0B23224602A8FBF733FBE9
S31508012E50B8464FF400403F1A012F07D91F3F3ED00D
S31508012E60BF1E012F2FD9193F5FD067E09DF80800D3
S31508012E70002863D19DF812009DF8111001EB00247A
S31508012E8008220DF1090105A8F1F7ABFC012205A9F4
S31508012E90A0B203F098F80646A0B2A8424ED0012186
S31508012EA005A8FFF7CCF848F20100804508BF002EB7
S31508012EB044D1FCF75AF900222946A0B2F5F7BCFD20
S31508012EC0FCF70EF93AE048F2210080459DF8082002
S31508012ED00CBF01200020294611F0B4F82EE09DF818
S31508012EE0080058BB9DF809500FF208570026F6B29C
S31508012EF0AE4223DAD7E9001205A80823C0E9001271
S31508012F00002000900C2000FB0640821C9DF804104E
S31508012F10D2B205A8FBF7CFFA05A8FFF792FC08F08D
S31508012F2015FDFFF78CFD761CE1E7FDF7D0FC854220
S31508012F3004D02246314602A809F06BF86CE000007D
S31508012F40310000003EB5154604460A460023022113
S31508012F50684600F07DF92A46B8A1204600F086F9B0
S31508012F603EBDF0B585B0164604460D461F460A9A7B
S31508012F700023012100F078F80B9800F09DF8BAA11A
S31508012F8096E02DE9F0410C46002514F0784F88B0FB
S31508012F90804616461F4604D0012500230022392102
S31508012FA002E000230022382104A800F051F900208C
S31508012FB08DF81400FF2EBDF8160040F04000ADF85C
S31508012FC0160002D1FFF7A7F809E0FE2E06D1FFF792
S31508012FD0A2F8401CC0B2FFF7A6F800E03846230C59
S31508012FE0A2B2C0B265B10093FF2E0CBF0FF20C411D
S31508012FF00FF210411346039702900196012208E049
S31508013000FF2E0CBF0FF204410FF2084102970190FF
S315080130100096404600F02AF908B0BDE8F081F0B5FF
S3150801302085B004460F4615461E4600F019F8204697
S3150801303000F0B6F91FB13846F5F796F90BE0DFF857
S315080130408C030069C1884FF6FF321140C180002008
S31508013050DFF88413087000962B462246CFA125E097
S3150801306000234FF48062132101A8F1E01FB5FFF791
S31508013070F7FFF7F7F9F90446FDF729FC024600942C
S31508013080C6A1D04B4FF6FD7000F0F0F81FBDF0B5A4
S3150801309085B004460D4616461F4600234FF4806246
S315080130A00021FFF7E1FF00F007F8C0A14FF6FD7018
S315080130B000F0DCF805B0F0BD8DF8087000962B46D7
S315080130C02246704770B5C04C206882B0407B022802
S315080130D003D16846F7F7A5F908B1932076BD2068AC
S315080130E0007B012818BF022802D1BC4D287808B9EF
S315080130F0702076BD08F077FF0646B44C2878E07054
S315080131001E20FCF783F90F2096FBF0F0C0EB0010A8
S31508013110301A00F095F8201D07F018FC002076BD3E
S3150801312080B5AA49002008711E20FCF77EF9FBF735
S31508013130A6FF00F004F8BDE80140FBF7D1BF2DE971
S31508013140F043A3B01F200024ADF80A00ADF80C40E7
S31508013150ADF80840F7F788F9ADF80E00ADF810405C
S31508013160BDF80A00994DB0F5004F05DA2878401CDC
S31508013170287040F0800000E000208DF8240009AE98
S31508013180E878DFF85C9270704FF00208AF781CE0BF
S3150801319005A9FFF770FBB8B9B8F1520F14DAD9F8D7
S315080131A00000FFB2F021C05D08420DD109A808222E
S315080131B005A94044F1F715FB08F108005FFA80F804
S315080131C0A878401CA870641C7F1CE978F8B288426C
S315080131D0DED37470414609A8FBF751F90646FF2E5E
S315080131E029D0E4B24CB1002001900096FF2302AA2F
S315080131F04FF6FC710620F4F7CFFE3046FBF7BCF814
S31508013200A878E978884211D208F0EDFE04461E2016
S31508013210FCF7FCF80F2094FBF0F0C0EB0010201A25
S3150801322000F00EF8281D07F091FB04E01E20FCF7BC
S31508013230EDF80020287123B0BDE8F08332000000C4
S31508013240C0B24FF47A7142F2107201FB0021704745
S3150801325010B500240471447141800480C280038141
S315080132605A49086110BD0000323131000CB42DE90C
S31508013270F04784B05FEA010A0CAA814608BF1668BE
S3150801328003D00120FBF74AFA0646F6B2FF2E08BF1D
S31508013290182079D04D4C21690A794FF6F878C1453D
S315080132A0ACBF0120002022B900280CBF082509253A
S315080132B005E0002200280A7114BF062500254648A4
S315080132C00778FF2F0BD14888B0F5004F05DA20782B
S315080132D0401C207040F0800703E00F8901E0FF21C0
S315080132E00170FAB200213046FBF7F1F922696078DC
S315080132F078B1FF20009001961346A089FAB2494693
S31508013300F5F700F80546002060704FF6FF70A081BA
S3150801331007E001900096FF2349462846F4F73CFE4C
S315080133200546BAF1000F1CBF3046FBF725F8742D88
S3150801333029D1C14527DA20694088B0F5004F22DB3B
S31508013340FDF7C5FA2169498848F2040291420CBF82
S3150801335017A118A10022009203468A220120FBF731
S3150801336009FA0646FF2E0ED0FAB20021FBF7AFF98D
S31508013370002001900096FF2322694946F4F70CFEC6
S315080133803046FAF7F9FF284604B0BDE8F0075DF8BC
S315080133900CFB0E48007840F0800070473238310047
S315080133A00A4901224A708881704700003831310084
S315080133B03132310031320000787C0020E87100207A
S315080133C0BA7F0020AC7A0020447C00200C7A0020C9
S315080133D0FC7100206873002095730020D87F0020B7
S315080133E048720020FFFFFFFFFFFFFFFF3138323130
S315080133F031000000000000000000000031323231C7
S31508013400313200003132323131000000323231318D
S315080134103200000032323131000000002DE9F84354
S3150801342080460E4691461C46FAF7DCFF0546FF2DF7
S31508013430DFF8C4750BD0B9F1000F13D1FBF74DF9BD
S31508013440FF2820702ED13868405DA8BB2AE038686D
S3150801345010F80800851BFF2E08BF012023D0E8B20B
S3150801346010B9FF2020701DE05FEA09001DD047460C
S315080134703846FAF773FFEDB2009533464246002106
S315080134803846FBF711FAB9F1000F0AD02946384632
S31508013490FBF7D1F8DFF864050068C15D01F07F012B
S315080134A0C15527700020BDE8F283E9B20020FAF77A
S315080134B0E6FF0746FF2FDED11820F4E738B50446A4
S315080134C0DFF834050068055D204600F0F2F800F1E2
S315080134D00E03DBB2E91A89B200912246014620465B
S315080134E0FBF7E2F92046A5F10E01BDE83440C9B261
S315080134F0FBF7A1B838B5044607F057FB0546204641
S3150801350007F049FB6A780821D30748BF0921130741
S3150801351044BF0831C9B2D20644BF0831C9B2081836
S31508013520C0B232BDDFF8D0241268125C8A428041EB
S31508013530C043C00F70470170090A4170801C70476B
S3150801354010B504460822F1F74CF904F1080010BD3C
S315080135502DE9F04B90460E46024684B099464FF641
S31508013560FF71042007F0E7FB0546FF2D78D007F029
S315080135701CFB074607F070FC48B107F02BFC06F068
S31508013580010181F00101084218BF46F40056DFF82F
S3150801359070442068C07E10B94FF6FF5006403005CA
S315080135A00CD5B9F1000F09D169464046FDF759F91D
S315080135B000280EBFE9464FF2FF70064031463846ED
S315080135C0FFF7B9FF4146FFF7B6FF8346FDF77FF9D7
S315080135D001465846FFF7AFFFDFF8282413780C9AFF
S315080135E00146481C0AB1934200D21A460A7021685C
S315080135F04A7E521C4A7600F8012BF10548BF401C49
S31508013600310544BF4946FFF79BFFF10444BFDFF884
S31508013610F813FFF795FFDFF8E04321684A5D801844
S31508013620C01B485540F20110064218D14FF6F870F2
S31508013630804514DA2068475DFBF797FD2946404621
S31508013640F5F738FAFBF74CFD2068405DB84206D01D
S31508013650284607F0AAFA417841F004014170284644
S3150801366004B0BDE8F08B70B582B01546069A1E46C1
S3150801367041F209240AB141F6092400910246079B41
S315080136802146FF20FFF764FF0446FF2C09D0324686
S315080136902946FAF780FF0028204602D0FAF76CFE81
S315080136A0FF2076BDD6480168487E401C4876C0B2E0
S315080136B0704738B50446FFF71DFF0546204607F053
S315080136C074FA4078400704D500F072F8401C05EBFF
S315080136D04005E8B232BD41780A0701D40020704797
S315080136E0C90701D5093070470830704700F108014C
S315080136F04078C20601D400207047C20748BF491C5A
S31508013700000702D501F1080070470846704700F026
S315080137100302012A00F00C0101D0C00601D50220DE
S3150801372070470C2901D109207047082070470322E8
S31508013730114207D000F00300022801D10320704787
S315080137400220704700207047F8B504460D46FAF77F
S31508013750B9FF0646FFF7DBFF0746300601D43846B0
S31508013760F2BD7919C9B200F024F801463046FFF7CF
S31508013770DEFFC019C0B2F2BD70B504460D46FFF7AB
S31508013780E3FF064600F014F880060FD57119C9B291
S3150801379000F00FF8761D00F01801F6B2082904BFEB
S315080137A0761CF6B2800644BF0836F6B2304670BDBE
S315080137B029462046FAF786BF38B50446FFF779FF4A
S315080137C0054629462046FFF7D7FF4019C0B232BD44
S315080137D02DE9F04385B007460C4607F0E6F905469C
S315080137E0F9F7D2F880463846FFF763FF06463146B1
S315080137F03846FFF7A9FF00210091034632463946AC
S3150801380001A8FAF758FE9DF8047007F00C010C2977
S315080138101CBF07F0030101290DF1050607F00C008D
S315080138204FF0FF0906D0F90604D49DF805100DF1ED
S31508013830060600E0FF210C28617105D13046F9F72B
S31508013840A3F82081B61C01E0002020816878C00712
S3150801385003D5A81CF9F798F8208107F00300012879
S315080138600DD0F8060BD43046F9F78EF86080B51CF2
S315080138702846F9F789F8AE1C208016F8019B84F8CA
S3150801388004903078A0720020790648BF4020B90616
S3150801389048BF40F020005FEA086148BF40F4007065
S315080138A004D45FEA486148BF40F480705FEAC841C2
S315080138B048BF40F480605FEA085148BF40F40060A1
S315080138C0E080380615D5707810F0030011D0E2882B
S315080138D0B17842F40042E28007F00302022A04D1D9
S315080138E0F07841EA0020208103E0012808BF090297
S315080138F0218105B0BDE8F0832DE9F041154686B072
S3150801390080460C46E888082C18BF0C2C064604D0BD
S3150801391080045CBF06F040000143394F3868C07E19
S3150801392010B106F020000143300448BF41F0800180
S31508013930032C0AD112208DF80000B00644BF3220AC
S315080139408DF800000DF1010025E00C2C8DF8001012
S3150801395005D129890DF10100FFF7EDFD04E068792C
S315080139608DF801000DF102006988FFF7E4FD298849
S31508013970FFF7E1FD297900F8011B022C0BD0B107ED
S3150801398009D4310402D52989C9B221B939688A7E8F
S31508013990531C8B76AA72032CA97A00F8011B17D03F
S315080139A0310415D529890A0A022C01D0CBB243B1B3
S315080139B0022303704170801C022C09D100F8012BE7
S315080139C006E010F8011CA972427001210170801CE1
S315080139D03968C97E19B1A979890648BF401D694662
S315080139E0421AD2B24046FAF7D6FD401E8041C00FB0
S315080139F006B0BDE8F0810000E8710020EC710020F6
S31508013A00447C002079730020AC7A002080B5DFF869
S31508013A10A013002008710620FBF707FDFBF72FFB13
S31508013A20DFF890030068407B042814BF532800F090
S31508013A3066F8BDE80140FBF753BB18B1DFF8781308
S31508013A4009880180DFF868030078704780B5172276
S31508013A509AA1032003F0D4F9BDE8024000204AE008
S31508013A60F8B5DFF8504323685D7B2F0018BF212D79
S31508013A7005F00F0608D01D7B012D01D1850603D45B
S31508013A80DFF82C532F790FB17020F2BD2A70012E61
S31508013A90C94A118004D12120587300F030F828E072
S31508013AA081064CBF5321042159732168097B0329D7
S31508013AB016BF042900F0200000F0A00001464FF6C9
S31508013AC0FD7000F030F92068407B042804BF01200E
S31508013AD0F6F708FC0620FBF799FC2068007B03280B
S31508013AE016BF04284FF400714FF40061281D06F033
S31508013AF02DFF0020F2BDFF224FF6FF71B0E780B51A
S31508013B0006F07CFA08F059FD08F0C3F8AB480078CE
S31508013B100B2802D007F0DEFB06E00620FBF776FC51
S31508013B200FF20D00FDF75DFCBDE8014008F07FBA14
S31508013B3010B50620FBF779FCFBF7A1FA9D4C206826
S31508013B40417B532906D10321417301200021F5F751
S31508013B5037FC29E0042918BF212925D10120F6F7C8
S31508013B60C1FB4FF6FE70FCF7B6FE4FF6FF70FCF789
S31508013B70BAFE0020F6F728FBF5F7EBFF04F091F9FA
S31508013B80F8F79BFA012007F0D9FE2068407B212827
S31508013B9002D1F5F708FA07E00020FCF781FF0021BA
S31508013BA04FF40040F6F7C5FDFBF79AFABDE8104059
S31508013BB0FBF793BB2DE9F8430E468046511CC9B263
S31508013BC03046FAF77FFD0546304606F0EEFF064613
S31508013BD0B01CF8F7D9FE8146A809764F00F0010412
S31508013BE03868417B022966D1017B032903DB4088BA
S31508013BF0804503D022E04069C0011FD484B17078A2
S31508013C00000708D53046FFF766FD08226C49F0F72C
S31508013C1032FE002802E0FCF75AFE81454BD107E047
S31508013C200329A4BF4FF6F870814509DBE80907D0D7
S31508013C300122414605F0A000FFF712FF002C3AD1F8
S31508013C403868007B032836DA7078C00633D53046E3
S31508013C50FFF74CFD064631460020FEF7EBFC04460D
S31508013C60FF2C07D0A8065CBF204600F029F820469D
S31508013C70FEF7E5FE404601F0CDF9FF280BD001F02D
S31508013C8079FAA80607D4FCF722FE20B102223146AA
S31508013C90404600F099FDFCF71AFE60B9FBF765FA94
S31508013CA04FF6FF73022231464046F3F7C5F9BDE8E0
S31508013CB0F143FBF715BABDE8F183000042000000A5
S31508013CC01CB5FEF7CAFD04466946FEF720FE50B14B
S31508013CD0FCF7FDFD38B1FCF7DBFE20B1022269468F
S31508013CE0204600F071FD13BD38B504460D4607F0B0
S31508013CF02DFE0146FF2901D1012032BD2D4A126848
S31508013D00D27E4AB12F4A126832F81110490403D5F6
S31508013D10FEF795FE002032BDFFF7D2FF45F04001C0
S31508013D202046BDE8344030B50446880985B000F020
S31508013D30010504208DF808008DF80910280008D01F
S31508013D4003A92046FEF7E3FD08B901202EE003A8E2
S31508013D5000E0002001900095022302AA01212046D5
S31508013D60FFF781FC0546FF2D08BF18201ED0114814
S31508013D700068017B032918BF042903D14188284615
S31508013D8006F04BFF4FF6F870844205DB002202214C
S31508013D90284608F0B3FB03E02146284604F06CFAEE
S31508013DA004462846FAF7E8FA84F0010005B030BD62
S31508013DB030790020447C002036730020917300205E
S31508013DC0AC7A0020FC71002038B5044606F0EDFEF9
S31508013DD005462046FFF76DFC411CC9B22046FAF795
S31508013DE071FC697809070AD52846FFF774FC01466C
S31508013DF00020FEF71FFCBDE83240FEF720BE400654
S31508013E0002D4BDE8314001E631BD0000F8B50446EB
S31508013E10E01CF8F7B9FD0646601D0025F8F7B4FD64
S31508013E204FF6FF77BE42044608BF012504D0FCF7CA
S31508013E3056FD864208BF0225BC4208BF45F0040567
S31508013E4005D0FCF744FD844208BF45F0080528461D
S31508013E50F2BDF8B50546F8F797FD06464FF6CF7059
S31508013E6000EA06072846FFF7D1FF002448F6410174
S31508013E708E4208BF052809D1E81DF8F785FDBD4919
S31508013E800988884214BF0224062412E04CF6010070
S31508013E9087421ABF4CF601408742012409D0FBF735
S31508013EA064F9284606F087FF0546FBF719F905B1B7
S31508013EB00824B14800782040F2BD3CB50FF2CC2366
S31508013EC00021D3E90045CDE9004528B9AB49086089
S31508013ED0002036BD491CC9B230F811201304F5D4A7
S31508013EE0002300E05B1CDBB23DF813402504F1D446
S31508013EF09442F7D1022036BD2DE9F04F0446884693
S31508013F0083B04046F8F740FD9C4D83462868002655
S31508013F100027002801BFA8680028686800284FF014
S31508013F20030968D04FF440611BEA010F0BD008F171
S31508013F300300F8F729FD4FF6FF7188420CBF0227E7
S31508013F4001274FF0050947F0080001900BF4404A94
S31508013F505FEA4B6015D4BAF1000F16D00BF4406036
S31508013F60B0F5406F0CBF082002204844C0B2404457
S31508013F70F8F70AFD0090FCF7B2FC009989B2814274
S31508013F8001D1019F01E047F004070BF44040B0F569
S31508013F90004F08BF47F0800704D0BAF1000F02D1DD
S31508013FA047F48077BFB20BF44060B0F5006F0BD1D0
S31508013FB008EB0900F8F7E8FC8046FCF788FC804521
S31508013FC008D147F0100704E0B0F5406F02D147F079
S31508013FD02007BFB2002001E0002610B9A968802297
S31508013FE005E0012807BF696840222968102231B90E
S31508013FF0401C0328F0DBFF20BDE8FE8F761CF6B2D5
S3150801400031F816305FEA0348F2D49F42F6D104B17B
S3150801401022703046F0E700002DE9F04781468846D0
S31508014020F8F7B2FC0546E80800F001074846FFF72D
S31508014030EDFE044605F0070605F4406A4FF6F770EB
S3150801404005404F4800780B280FD009280DD8DFE81E
S3150801405000F082050C0C8205050A0C07002E00E00B
S31508014060012E01D101E0032E75D11FB3002E72D1A5
S315080140700B2801D1A0076ED5B5F5004F1CBFB5F5C4
S31508014080624FB5F5404F66D10026E80648BF46F0AF
S315080140908006A80648BF46F4805606F00C00042898
S315080140A05BD109F10700F8F76FFC0146FF2246F0DC
S315080140B0040055E0032E334F4DD8DFE806F002051C
S315080140C0032DD5E73B2053E04FF6CF7000EA0506EE
S315080140D04846FFF7BEFE20B94946FFF70DFFFF2800
S315080140E001D00826D1E748F64100864233D10A2C89
S315080140F018BF062C2FD160070CD5FCF70BFD18B19C
S315080141003868007B042826D00BF0D1F918BB40F695
S315080141100406BAE70426B8E714F0030005D1FCF74C
S31508014120DEFB4FF6FF71884215D10C26BAF1000F56
S315080141300DD0BAF5006FA8D0BAF5406F0BD1082299
S31508014140114909F10500F0F796FB20B99DE7386892
S31508014150007B012899D03A200AE0FF220021304647
S3150801416006F0E9FDFF280EBF182088F80000002098
S31508014170BDE8F0875A730020E47F0020AC7C00205C
S3150801418091730020447C0020AC7A002099008900B4
S315080141900080000070B5DFF8005D0446286882B02B
S315080141A02688407B08B1702076BDB00504D504F198
S315080141B0120000F030FEF0B906F08600862801D11B
S315080141C0B72076BD00F01AFE286816F4045F46612A
S315080141D020D0B0040BD5A01C0FF0D6FF010051D199
S315080141E02868416921F4005141F480714161A01C9C
S315080141F000F011FE08B1B22076BD05F0D9FE20B94E
S315080142002868416941F4803141612868416941F072
S31508014210200141612868416941F40041416148062C
S315080142204CBF04F123020022A31C47F2FF10F6F744
S3150801423049FA684600F040F828684069C004BDF8A4
S31508014240000004D540F02000ADF8000008E04FF664
S31508014250DF710840ADF8000008F04AFE02F093FF4E
S31508014260BDF8000000F00FF828684069800506D5FA
S3150801427094F82210012204F1120000F09BFB296830
S315080142800020486276BD10B5044604F4E6600104D0
S31508014290002300224FF07F60F6F714FA23462F22F7
S315080142A0ADA1032002F0ACFDE00703D500213020C3
S315080142B0F6F73FFA002010BDDFF8DC1B09684969EB
S315080142C0090C01F4E66101800020704738B5DFF872
S315080142D0C85B04462868407B022801D0932032BD7A
S315080142E00A2200212046F0F7BFFA2868406900F043
S315080142F0FF01820648BF41F01001218080075CBF9B
S31508014300A01CF6F776FA002032BD38B504460D46EC
S3150801431008F0FBFD08B9952032BD00F047FBC17EC8
S3150801432089B14069010401D4A82032BD5DB110F0FC
S31508014330420F08BF002C04D000F44070B0F5407F4E
S3150801434001D0B72032BD002032BD00002DE9F04F63
S315080143508BB00446894602A8242107F055FE20465B
S31508014360FFF7A7F901462046FAF7ACF905462046B4
S3150801437006F01BFC8046002798F80100DFF86CABB5
S31508014380800748BF0127A80648BF47F0020720460D
S31508014390FFF712FA8DF8040002ADDFF8540B006836
S315080143A09DF80410005D9DF80420431ADBB2242B06
S315080143B0A8BF232300200090214602A8FAF77BF81C
S315080143C068789DF808600090DAF80000C07E88B128
S315080143D000F064FD002814BF4FF4D0704FF4F0705C
S315080143E0F040C00706D5B80704D4082E09D10098AD
S315080143F0042805D103F06AFD002818BF052E03D04D
S31508014400A7E0052EF6D0A4E09DF804200023214656
S31508014410032006F0CEFC761F0B2E4FF6FF7BF2D853
S31508014420DFE806F00617374E5497979797596D7335
S31508014430009806280CDA08F10200F8F7A5FA0546ED
S31508014440204606F0D9FB3B4602AA294600F05AFB4C
S315080144507FE0FCF73CFA00287BD1DAF80000C17E40
S31508014460002976D0B90702D44069800171D40DF1CB
S315080144701100F8F789FADFF87C5A02462C700DF11B
S3150801448009039DF813004946F6F766FDFF202870D3
S315080144905FE00822DFF8601A0DF10900F0F7EBF981
S315080144A020B902224946FFF7DBFA52E00DF109006D
S315080144B0FEF7C7F958454CD00021FFF715FC48E02F
S315080144C03A4602A94846F6F73BFF42E069780120D9
S315080144D000F02DFA3DE0F8073BD50DF10900FEF78E
S315080144E0B0F9584504BF0DF1090000F068FD5845BB
S315080144F02FD09DF80420214600F030F829E03A46ED
S3150801450002A9484605F0A8FA23E0DAF80000407B3C
S31508014510022808BFB9F1000F1BD16846F6F769F9F9
S31508014520B8B1DFF8D81900200870687800280CBFE0
S3150801453065246424F6F767FB032806D100210020C9
S31508014540F6F7B6FA0020F6F761FB21466846FAF750
S3150801455072FF0BB0BDE8F08F425700002DE9F04716
S315080145608246DFF88C0900680C4688B0005D02F1C6
S315080145700905461BF1B20020F9F781FF0746FF2F0F
S3150801458041D0012000900023524608213846FEF703
S31508014590DFFF8046B8F1FF0F32D0E9B22046FFF7B8
S315080145A0EBF8814601A81C2107F02EFD002000909A
S315080145B04B46EAB2214601A8F9F77DFF4A4601A909
S315080145C04046F9F7E8FFC0B9A6EB0906F1B2384645
S315080145D0F9F762FE504607F0B9F9FF284D4400F095
S315080145E09AF9F6B20096EBB2224600213846FAF756
S315080145F05BF95146404603F03FFE4046F9F7BCFEDB
S315080146003846F9F7B9FE08B0BDE8F0872DE9F24F4B
S315080146108046174686B01D4600213846FAF752F8F5
S3150801462004460226E808082C00F0010018BF052CEC
S315080146308DF804004FF000094FF0080B03D0062C43
S3150801464018BF102C01D168080CE000F0AFF9C07E44
S3150801465058B100F023FC002814BF4FF4D0704FF472
S31508014660F070E04000F0010A00E0CA46FF2F6CD066
S31508014670E80748BF4FF4027BC82000900023424652
S3150801468059463846FEF764FF0746FF2F5DD09DF869
S31508014690040028B106993846F6F7C7FF002851D015
S315080146A04FF6F8708045ACBF09200120102C18BFC1
S315080146B00F2C8DF8080005D19DF8080040F0400040
S315080146C08DF8080000F072F9817E4A1C8276BAF1EB
S315080146D0000F8DF8091006D09DF8080040F020005B
S315080146E08DF808000F26324602A93846F9F753FF16
S315080146F040BBBAF1000F1AD00021052C0BD1384660
S31508014700F9F770FE0121F9F7DDFF6224C440E007DD
S315080147104CBF102118219DF80400002819BF022357
S31508014720069A41230022384602F0D4FE50B968079A
S3150801473004D54146384603F09FFD02E0384603F0AA
S31508014740D2FB81463846F9F717FE484607B0BDE859
S31508014750F08FF8B504460D46284606F0A2FADFF8AA
S31508014760947706463D70FCF7B2F801463346224671
S315080147700120F6F7F1FBFF203870F1BD7CB51C4628
S31508014780DFF814371B681B7D00259B0701D5002020
S3150801479076BD019200900B4606220FF27871002031
S315080147A0F9F7E8FF0646FF2E0CD0002C14BF0323A9
S315080147B00123324600210020FFF728FF054630462F
S315080147C0F9F7DAFD284676BD2DE9F04104460D468E
S315080147D016460027F6F7F9F8B84618B1012300F08E
S315080147E014F80746F6F7F1F838B100F057FB40B16F
S315080147F000F0DCF84069800103D4002300F005F8D5
S31508014800804648EA0700BDE8F08132462946204637
S31508014810B4E72DE9F34F9B46BBF1030F92460CBF54
S3150801482001270027BAF1000F8DB018BFD04605D170
S3150801483001A8F5F7DEFF48B10DF104082321002090
S31508014840F9F71DFE8146B9F1FF0F01D100205FE09E
S31508014850F9F71CFD04460520207084F801B0199D5E
S31508014860E80607D511220021A01CEFF7FDFF04F188
S31508014870130618E018991022A01CEFF7B2FF622060
S3150801488020FA0BF0C00704F112060CD503A908A8F3
S3150801489000F0A4FA3046461CA9064CBF9DF81C1028
S315080148A09DF830100170380008BFDDF838A00822DD
S315080148B051463046EFF795FF08362FB1A80900F0A3
S315080148C0010006F8010B09E001200090321B0823BC
S315080148D0D2B249464046F9F7EEFD0836311BC9B250
S315080148E04846F9F7D9FC680706D5BDF8340007F03C
S315080148F02DF8FF2800F00FF80E99BDF834002B4665
S315080149004A46FFF783FE04464846F9F735FD204631
S315080149100FB0BDE8F08F09D0DFF8E415096831F862
S3150801492010204BF6FF731A4021F81020704730B556
S315080149308BB004460D4600F0A0F8684600F06BFA05
S3150801494060B99DF810009DF824100A1AD2B2812A7E
S3150801495004DB2CB1A94201D0A84201D0002023E0F2
S315080149601123022205A900F070F89DF81010012202
S31508014970684600F01FF80DF003F901214FF40070A5
S31508014980FDF7F4FD08F0AEFAB0F1004F88BF08F064
S31508014990AFFAFAF7EAFB00F009F890F82000F2F707
S315080149A0C7FBFAF79DFB01200BB030BDDFF8E80421
S315080149B000687047F0B58FB005460C4616461122B9
S315080149C000216846EFF750FF01278DF810402DB9F1
S315080149D0102200216846EFF747FF04E01022294616
S315080149E06846EFF7FEFE112200210AA8EFF73CFF01
S315080149F01122002105A8EFF737FF05A90AA800F03B
S31508014A00EDF9300014BF0AA805A811226946EFF787
S31508014A1032FF00B9002786B1DFF87C544FB1112364
S31508014A20062200F011F82868407B432808BF0CF0DD
