S00E00006E63702D7370692E7333372C
S3150000400008580020216F030035750000056F030076
S31500004010A70A0A010042000004180FAC002693000C
S31500004020000000000000000000000000000000008A
S315000040300000000060860300000000000000000091
S315000040400000000000000000FFFFFFFFFFFFFFFF72
S31500004050FFFFFFFF00E0030000000000000000007B
S31500004060FFFFFFFFFFFFFFFF100000000000000042
S31500004070000000000000000000000000000000003A
S3150000408000000000000000004F7C00204F7C002054
S3150000409008580020B0B10300A8760300304900207C
S311000040A070170020000004000000000063
S3150000420008580020216F030035750000056F030074
S315000042100D6F0300096F0300116F03001D6F03008C
S315000042201D6F03001D6F03001D6F03001D6F03004C
S31500004230156F03001D6F03001D6F0300B5690000B5
S31500004240C9BC000031500100415C00008D4C0100EA
S3150000425091500100375001003950010033500100E0
S31500004260DDB0020027B30200FDB000001797000082
S315000042701D6F03001D6F0300174500001D6F03002F
S315000042801D6F030045B302001D6F03001D6F030081
S315000042901D6F03001D6F03001D6F03001D6F0300DC
S315000042A01D6F03001D6F03001D6F03009350010077
S315000042B035500100E9B30000CB5001001D6F03002B
S315000042C0F17203001D6F03001D6F03001D6F0300D5
S315000042D01D6F03001D6F03001D6F03001D6F03009C
S315000042E07149724A01E021B1491E1369DB07FAD40C
S315000042F001B9BAE0506001201060106910F0060F95
S3150000430005D0410700D5B3E0800700D5B3E0002013
S315000043107047F0B513460022002936D0624C634D33
S315000043208BB98B4231D250F8046BEE605B1C0826C9
S315000043302E60264601E036B3761E2F69FF07FAD4B3
S31500004340002EEED11FE0EFF3108672B600230EE0CA
S315000043502F6907F01907102F08BF2F602F693F0735
S31500004360F6D550F8047BEF605B1C10272F608B425C
S31500004370F4D306B962B6264601E026B1761E286950
S31500004380C007FAD40EB96FF002021046F0BD2DE94F
S31500004390F84F474F0D4639680446002041F00101A9
S315000043A09B4639604FEA92088146AA4602E0B1442C
S315000043B00AEB860AC14517D204EB89063046FFF799
S315000043C08FFF010022D1C6F30A00C0F500608608FF
S315000043D0A8EB0900B04238BF06465A463146504659
S315000043E0FFF797FF0100E2D021682A68914209D0C1
S315000043F02046FFF775FF010004D15A4601212846E1
S31500004400FFF787FF3968490849003960BDE8F28F30
S315000044102749254A0B6843F001030B608860012099
S3150000442048604869400704D50868400840000860AD
S315000044301EE04869800704D5086840084000086007
S3150000444019E00220486001E022B1521E4869C00707
S31500004450FAD422B9086840084000086005E00868F8
S31500004460400840000860002070476FF00200704767
S315000044704FF0FF3070476FF001007047002386E76A
S315000044800B48016841F00101016046F21A31C1642E
S315000044904FF4807141604169C907FCD40021C164B1
S315000044A00020704700000000809698000C000E4027
S315000044B008000E40072802D23549085C7047FF20E5
S315000044C07047072802D23349085C7047FF207047BF
S315000044D038B50446304800EB8105A8780009FFF797
S315000044E0E9FF2071A87800F00F00FFF7EAFF60717E
S315000044F0FF2814BF01200020E8702146E878A0714B
S31500004500287860706878254DA070284600F0A3F8DA
S315000045100120A86031BD10B5214984B01CC9684688
S315000045201CC02048204A0178D36814682340DB0762
S315000045302DD503292BD2184C12691C4B04EB810490
S31500004540E4781CB114B2002C48BF002223F81120D5
S315000045500123174A147803FA01F121431170154A11
S31500004560117891B100211478CC40E40708D5017088
S315000045708B401078584010706846FFF7A9FF1FBDA2
S31500004580491CC9B20329EED31FBD032101701FBD0B
S315000045902886030030860300D461002000200040F6
S315000045A01C8603001C7C002038200040E0610020AF
S315000045B01D7C0020DF7A0020890001EB401000F10D
S315000045C084400260704730B5002A446BDFF83451EE
S315000045D01ABF1022DFF83031DFF8303123400024D3
S315000045E0A84237D1DFF8280151B101290CD00229A0
S315000045F01ED003290CD0062915D0812918D023E016
S3150000460001680468006816E001680468006802E052
S31500004610416844684068090C01F4FE41C4F3034450
S315000046202143000C0CE08168806801F00F0107E06F
S3150000463041684468406801F4FE4104F00F042143D8
S3150000464000F0F00040EA010404FA02F0DFF8C410BA
S315000046501843086030BD38B504460D460220A060F8
S315000046600022A9782046FFF7AEFF287969786B7992
S31500004670020242EA016242EA0342EB7842EAC302DC
S31500004680EB790BB142F000522B7A0BB142F00402E7
S31500004690AB790BB142F002026B7A0BB142F0010228
S315000046A0AB78F32806D1180004D10429BCBF042036
S315000046B060F31B6218064CBF42F0E00042EA43106A
S315000046C02061154960690840A9780A0644BF21F0AF
S315000046D080010843297840EA4140E97A09B140F46B
S315000046E0804060610221AA7A2046FFF765FF28799B
S315000046F0F32804F13000BDE838400CBF0122002247
S31500004700102159E700200040FFFF00800080FFFFD6
S315000047101082E00F34200040F8BFE1FF42DE704710
S3150000472038B504460D4600F0F7FB01F0A4FA01F097
S31500004730AFFA2946204601F0B1FA2B4622466949CE
S31500004740012001F01AFC29462046BDE83440E5E781
S3150000475065482DE9F047654D01682E1D4FF4206828
S315000047607165016AB16562490A68F2654968316630
S31500004770416A7166816AB166C16AF166016B316729
S31500004780806B706796F8340040074CBFF46BB46BCF
S3150000479001F0C1FC0022F2648442564A014624BF5D
S315000047A0A2F1200AA2452746316505F19003DFF8FC
S315000047B048C1DFF848E118D3A0693064E46974643D
S315000047C0746DC4F30804062C13D1704511D36045EB
S315000047D00FD200884DF64264A0420AD13068586074
S315000047E040F201787068986003E0002737647764C8
S315000047F007464348814202D2014600E0091D0846A9
S31500004800904203D20C68B4F1CD3FF7D03D49081A67
S31500004810B0640021002005EB8004401C0628E167F7
S31500004820F9D3002003E0C0B205EB8004E1679742AC
S3150000483023D252F8041D7145F9D36145F7D2CC074E
S31500004840F5D5002405EB8409D9F87C90894502D07A
S31500004850641C062CF6D3062CE9D1002814BF401E92
S315000048600520E0E7B16F002405EB8402641CD2F852
S315000048708070D767052CF7D319600146481EC9B268
S315000048800029EFD1706DC0F30800032810D004286A
S3150000489011D0052812D0062813D00C2817D01228BC
S315000048A018D119480068800719D540F2025816E059
S315000048B040F6012813E040F6022810E040F60328EF
S315000048C00DE0B8F5206F0AD140F6042807E040F65F
S315000048D0052804E018B1322838BF40F607284046BC
S315000048E0BDE8F0873886030004ED00E000000020F4
S315000048F000E300E008580020A8760300B444000056
S315000049009C000020085800201C20054080B500238C
S3150000491000931346012201F063FC01BD00F08EBE38
S3150000492000F08CBE10B54C00014600F027FD224673
S3150000493001F035FCA04201D0002010BD012010BDC1
S3150000494080B500F01BFD01F0B8FC00B10120C0B23B
S3150000495002BDDFF8180B407D00B101207047DFF87B
S315000049600C2B117B01B9704780B50146106A01F026
S31500004970FAFC20B1BDE8044040F27111BEE201BD6F
S3150000498080B500F0FBFC01F003FC00F003000328F7
S3150000499001D1012002BD002002BD80B5B0F5004F57
S315000049A007D100F014FEDFF8D80A00F0D0FCBDF8FD
S315000049B00000DFF88C1AC883002002BD2DE9F04FF5
S315000049C0440900F01F050027DFF8808B00E07F1CFC
S315000049D098F80660F8B2B04236D2D8F80800FFB2AE
S315000049E050F827004FF0000C01E00CF1010CC67ED8
S315000049F05FFA8CFEB645EAD2D0F81CE05FFA8CFC72
S31500004A00142616FB0CF6B6449EF8086006F0070658
S31500004A10A642EAD19EF80960B542E6DB9EF801B0EF
S31500004A209EF8009006EB0B0AAAEB090AAA45DCDB06
S31500004A3011B1AC1B4C440C7012B19EF808101170E9
S31500004A401BB1C3F800E000E00020BDE8F08F40098C
S31500004A5018BF40F01800704710B5DFF8144B206AF5
S31500004A6001F02BFC0246206ABDE81040002101F04F
S31500004A7040BC0B38102834BFDFF8D40ADFF8F40A3C
S31500004A80006870473EB568460021002200230EC02C
S31500004A90DFF8AC0901788DF80010817A0A0018BF9A
S31500004AA0022914D10079DFF8C85A00F0BBF8044691
S31500004AB000F00EF858B1286A0122002101F06AFBC5
S31500004AC000F006F818B140F25B2100F06EFB37BD2E
S31500004AD0286A6A46214601F0A4BB2DE9F041044646
S31500004AE004F01F001B2886B034D2002000906B46CD
S31500004AF0002200212046FFF761FF07002AD020464A
S31500004B00FFF7B7FF5FEA000824D0DFF86069DFF837
S31500004B10445AF06B804515D001A84146062201F0A3
S31500004B2099FC306AC6F83C8001A901F07EFC88B980
S31500004B30306A03A901F087FCB5F91C10306A01F050
S31500004B404FFC38B90098B06277620098002818BF09
S31500004B50C06801E08A200EE0F06229798C421CBF11
S31500004B602C71FFF78FFF96F90D00C101306A09B26B
S31500004B7001F060FE002006B0BDE8F081DFF8D40940
S31500004B8000797047DFF8CC09B0F91C00002854BF43
S31500004B9005216FF0040108180A2190FBF1F040B2DC
S31500004BA070470A2110FB01F0FFE7F8B500F5D77250
S31500004BB040F277239A4201D38B20F2BDDFF8AC484E
S31500004BC0DFF89059A26A0A23002A1EBFAE7F06F0BC
S31500004BD0C006802E12D0A67B86B992F9026016FB1B
S31500004BE003F7B842B8BF16FB03F007DB92F90320C0
S31500004BF012FB03F68642B8BF12FB03F0217B61B1BC
S31500004C000146206A01F0ECFB18B140F2B92100F030
S31500004C10CCFA206A01F0F7FB01E010FB03F0A88351
S31500004C200020F2BD38B50446FFF723FF90B10023FC
S31500004C30002200212046FFF7C1FE58B104F01F05EF
S31500004C401B2D07D22046FFF702FF18B90B2D01DBFB
S31500004C50284632BDFF2032BD7047C0B2704710F102
S31500004C60630F01DA0020704710F1240F01DBFF20EB
S31500004C70704764300002411100EB91608004000E21
S31500004C80704770B5DFF8E447DFF8985A00202064D3
S31500004C90687828B101F0D2FD012818BF032801D198
S31500004CA0002070BDE16ADFF8C43ADFF8A8280029C1
S31500004CB01FBFA66A3669002E022817D123649069A1
S31500004CC000F5FA709061E07C18B1002000216422A2
S31500004CD003E0E87829794FF4A0722070A280617011
S31500004CE0A878A0708020E080002030E0DFF8805AAD
S31500004CF09069AE4213D1DFF87C3A236400F57A70EE
S31500004D009061E07C88B90879207001228B78087957
S31500004D109A40101891F903201018401E0CE02364E5
S31500004D2000F5FA709061E07C18B1002020806420C4
S31500004D3005E0487820708878607008780001A080C7
S31500004D404879A07008890001E080C8880001A06049
S31500004D5000F043FCE07094F90200010048BF4042B5
S31500004D60C0B270BD70B50446DFF80067257896F9C5
S31500004D70140008B18C2070BDFFF783FFB075DFF813
S31500004D80A429DFF8D00741780174690101F5807123
S31500004D9081619379716C002BB37B1DBFAD1EEDB2A3
S31500004DA021F0020141F0020173B9127862B1627812
S31500004DB0920609D56FF00102327541F00101826950
S31500004DC002F50872826104E049084FF0FF3049009D
S31500004DD030757164032000F005F96A1C306A4FF4DF
S31500004DE0807392B2214601F051FD691C884203DAB4
S31500004DF040F21B4100F0D9F9002070BD0000000010
S31500004E00F8B5DFF8685695F914100024091D042931
S31500004E100FD8DFE801F0080E10100300FFF7A2FF1D
S31500004E20040008D0F2BD2C75286A01F0B7F98D2070
S31500004E30F2BD8C20F2BD01F045FDE8B1286CDFF82B
S31500004E402C19884218D1A87DB0B1DFF8D40A0068C1
S31500004E50002811D5DFF8CC0AC168C16001220068BC
S31500004E6000F00F0002FA00F0401E014204D100F0EB
S31500004E70FBFB642001F028FD01F06AFD064695F96A
S31500004E80140010F1010F1CBF95F9140010F1020F68
S31500004E9029D195F91400DFF8BC764042287501F057
S31500004EA05DFD7862296C387949B9FFF7BBFE01468A
S31500004EB06A6C286A07F1100301F0A2F90BE0FFF70C
S31500004EC0B1FE07F11001009101466A6C286AD5F817
S31500004ED040C02B46E04760B1002028758C244FF077
S31500004EE0FF30786202E0002028758D24286A01F0E0
S31500004EF055F9304601F069FD2046F2BDDFF8A40AF7
S31500004F00FFF70EBC2046BDE8104001F05EBDDFF89D
S31500004F104406C08B70470000F8B501F019FDDFF8B4
S31500004F2020550446A87A012803D1204601F04DFDFC
S31500004F30F1BDDFF8741ADFF83465DFF8687A4020CF
S31500004F4008600122306A012101F024F9DFF85C1AB9
S31500004F504FF40010086069460FF284000068009064
S31500004F60306A01F05BFC18B140F2C74100F04AFE1E
S31500004F7002208DF800006946306A01F02CFC18B159
S31500004F8040F2C94100F03EFE306A01F025F90021E9
S31500004F90002001F01DFD00F051FB0120A87296F9DA
S31500004FA01400001D072810D8DFE800F0130F0707CC
S31500004FB0040B0B0B01F09FFD0BE06FF00300307547
S31500004FC007E0892000F085FB03E040F2ED4100F0A8
S31500004FD019FE204601F0F9FC01F040FEF1BD00008B
S31500004FE0040100002DE9F04DDFF854540446A87A78
S31500004FF0A04282B063D00FF2CC01DFF8B469096831
S31500005000DFF8A089DFF86474DFF8A0A9009103280F
S315000050104FF4001B4FD8DFE800F047023E2B01F0AB
S3150000502026FE386A694601F0F9FB18B140F20A51CA
S3150000503000F04AF802208DF800006946386A01F04F
S31500005040CAFB18B140F20C5100F03EF8687900280E
S3150000505014BF00220222386A022101F052FE18B162
S3150000506040F2115100F030F80320032CA87218D03A
S31500005070CAF800B00220A8722879FFF7D3FD0146CE
S31500005080386A002201F0CDF818B140F2215100F043
S315000050901BF8022C13D0002C18BF032C0FD10020B4
S315000050A0A872C6F800B00AE0022C08D1CAF800B00F
S315000050B00220A87203E040F2375100F005F8BDE87F
S315000050C0F38D0000040200004046FFF729BBDFF81D
S315000050D0000B807A7047000010B5032804460ED8EE
S315000050E0DFE800F009020909FFF716FFBDE81040E6
S315000050F0002000F007BC012000F004FCE5E1BDE85B
S31500005100104040F25551F9E680B500F00FF804D58D
S3150000511000210175006A01F041F8DFF8B40A407A0F
S31500005120012802D1BDE80140F6E601BDDFF8A40A78
S3150000513090F9141000297047DFF8940A407A7047F6
S3150000514080B5032801DB012002BDDFF8841A48720E
S31500005150897A884218BFFFF7BFFF002002BD2DE9FC
S315000051607C4FDFF8706A03EA010BD6E9068929EA63
S31500005170010528EA000402EA000A45EA0B0544EAAA
S315000051800A044D4508BF44450DD0CDE9002302462B
S31500005190306A0B4601F044FB18B140F27D5100F035
S315000051A004F8C6E90645BDE8738F0FF66020FFF7E1
S315000051B0B7BA38B5AD4D0446287BE8B1200018BF14
S315000051C0DFF8142A04D1A87C08B1402200E00022AE
S315000051D00023DFF8040A0021FFF7C1FF002C14BFEB
S315000051E008220022286A082101F08BFD20B1BDE8C3
S315000051F0344040F2B95181E631BDF8B50446022C7F
S315000052000FF6082503DB40F2E25100F0A5F8974EB1
S31500005210307B002840F09780894FB87A012803D068
S315000052204FF4BD6100F098F8002107F1280000F066
S315000052309FFF306218B940F2EB5100F08DF8306AEA
S31500005240052101F086F918B140F2EE5100F084F81C
S31500005250306A0FF6CC1101F067FD18B140F2EF513C
S3150000526000F07AF8306A01F093FD18B14FF4BE6190
S3150000527000F072F84FF0FF30DFF860290623014690
S31500005280FFF76DFF306A4FF0011101F044F818B1D5
S3150000529040F2056100F060F8306A4FF48032002178
S315000052A001F027F8306A09224FF0FF3101F029FD9D
S315000052B018B140F20C6100F04FF801203073022360
S315000052C0DFF81C0900F043F8BDF80000C0054CBF2C
S315000052D00020BDF80000707301F0F4FAFFF769FFD3
S315000052E0F88BFFF75AFB01F0D3FD00F085F838790B
S315000052F0FFF7F3FB18B140F21F6100F02DF8F879C3
S3150000530000F040F8387A00F058F8307C00F086F863
S31500005310787900F0CBF800F060F900F02DF9B07C58
S3150000532000F02CFBB7F91C00FFF73FFC388C00F0AF
S3150000533089F8788C00F0A6F8B87900F00EF9601EAE
S315000053408041C00FB8722046FFF7C6FEF1BD018846
S315000053507F22684601F010BE2846FFF7E1B980B506
S3150000536000F00CF8012100F05FFF10F5007F02D17C
S315000053706FF07F0002BD8005001602BDDFF85408FD
S31500005380006A704710B504463848017B51B1611E6A
S315000053908941006AC90F01F04DFD18B140F25A610A
S315000053A0FFF703FF2000DFF8281818BF0120C87197
S315000053B010BDDFF81C08C0797047F8B5044601F047
S315000053C0C7FA05461E48294E0472377BFFF7C1FA15
S315000053D000F0010080F00100074204D0306A84F03A
S315000053E0010101F08CFE2846BDE8F24001F0EDBA5D
S315000053F0DFF8DC07007A70471C48017B01B970476B
S3150000540080B5006ADFF8DC17002201F000FD20B14C
S31500005410BDE8044040F2856170E501BDDFF8B427C0
S31500005420117B107401B9704780B50146106A01F00E
S31500005430F5FC20B1BDE804404FF4D2615EE501BD44
S31500005440B85B00204349DFF88C370884197B01B923
S31500005450704780B50146186A002201F0D1FC20B1E0
S31500005460BDE8044040F2A16148E501BD4861002065
S31500005470DFF85C07008C7047DFF85407408C7047F4
S3150000548054AB03003349DFF84C374884197B01B924
S31500005490704780B50146186A002201F0AAFC20B1C7
S315000054A0BDE8044040F2B76128E501BDDFF82017EA
S315000054B04A79824200D1704710B58C7A4871012C26
S315000054C002D0FFF729FD00E010BD2046BDE81040E0
S315000054D088E510B500F032F800F02BF80146206A96
S315000054E0012200F096FE20B1BDE8104040F2D961DD
S315000054F004E510BD80B5FFF741FF00F08DFE18B141
S3150000550040F2DE61FFF751FEBDE80140FFF7BABA8F
S3150000551010B500F013F800F00CF80146206A0022DE
S3150000552000F077FE20B1BDE8104040F2E961E5E405
S3150000553010BDDFF89C060079FFF774BBDFF89446D0
S31500005540206A0122012100F025BE000034A30300D9
S31500005550245B0020B85B0020CCE710B50446FFF7BB
S315000055600DFF214601F0D1FDDFF86406847110BD00
S3150000557048610020285B002038B504467F2C0CD1FA
S3150000558000F025F8DFF86006FFF7E1FEBDF8000041
S315000055907E24C00558BFBDF8004001F0D9F9054684
S315000055A0FFF7D7F960B960B27E2805D1DFF8241677
S315000055B0896A09B191F904007E28B8BFFFF7CFF9CF
S315000055C0DFF80C060473284601F0FFF931BD4FF6EB
S315000055D0FF70ADF8000002237047DFF8F40590F97C
S315000055E00C007E2807D1DFF8EC05806A08B97F2019
S315000055F0704790F90400704710B501F089FD8004EA
S315000056001AD500F02BF801F083FDC0044CBF03202F
S315000056100120002101F07EFD01F07AFD00F0FF007F
S315000056204FF47A7111FB00F104F14800BDE8104017
S31500005630DFF8B825FFF76AB9BDE8104010B500F0ED
S315000056400DF804F1480000F0D4FDFFF799F920B9F0
S31500005650BDE81040002101F05DBD10BDDFF87445C6
S3150000566004F1600000F0C5BD80B501F051FD4005B4
S31500005670BDE804404CBF03200120002101F0A8B979
S3150000568010B5DFF8504594F9140003280DD100F049
S3150000569030F9DFF83C154FF0FF3048620022216BED
S315000056A0BDE81040402001F0CAB910BD38B5044627
S315000056B0FFF7C4FFDFF81C5501F061F9686314B108
S315000056C001F0D5F801E000206874BDE8314001F032
S315000056D012BA38B50446DFF8F814DFF8F8544FF07C
S315000056E0FF30486201F04BF9686395F91400012810
S315000056F002DABDE831407FE7A87D08B1686BA86390
S3150000570000202875286A00F049FDA87B10B1012009
S31500005710E87331BD2046BDE838400022002101F083
S315000057208EB90000945D002010B501F0CBF8DFF8CB
S31500005730A44498B1FFF724F980B104F1480000F0C1
S3150000574058FD01F0E9FC002101F0E4FCDFF8A0249B
S3150000575042F2107104F16000FFF7D8F8A07C18B18E
S31500005760BDE8104000F06BBA10BD000007620000F3
S315000057703C5C00000D6200002DE9F043DFF8544464
S315000057800FF28849206A89B005AA022101F081F842
S31500005790050003D140F6E70100F0A8F89DF81400D3
S315000057A0DFF82C64BDF8168007281CBF7079002826
S315000057B019D1B8F1060F16DB08F108008B2812D2B2
S315000057C0002000904346DFF82C74206A3A462946AA
S315000057D001F067F8404503D04FF4106100F086F8F9
S315000057E03878000602D5FFF707FF7CE001208DF828
S315000057F00800CDF804806A46206A294601F04DF873
S3150000580018B140F6171100F071F8787800F007002B
S3150000581002281ED1FFF712FF94F91400032808BFCF
S31500005820B8F1060F11D19DF80D0070B17878000916
S3150000583000F0010500F05DF84FF0FF3070622A4677
S3150000584000218F2001F0FBF84DE0F07900284AD1C5
S3150000585005E09DF80D0010B10020FFF711FFF0796B
S315000058609DF80D10084203D040F63F1100F03EF8B7
S31500005870F07958B17878800608D5307A30B1206A48
S3150000588001F040FC30B1FFF7B7FE03E0FFF7D6FEAC
S31500005890002060743878401C404503D040F65F1104
S315000058A000F024F807EB08053079287000206870AE
S315000058B09DF80E00A87095F90200FFF7D0F9E87080
S315000058C008F10801FF202871C9B20098000C687120
S315000058D00098000AA8710098E8713846627C01F0C9
S315000058E01DFC0020607409B0BDE8F0834846FEF751
S315000058F017BF00202075206A00F050BC0FF214304C
S31500005900FEF70EBFDFF8C812897A012907D1DFF842
S31500005910E8120B7898421CBF087001F0AAB97047CC
S31500005920044008404C50084010B5DFF8A402446A11
S31500005930002C14D401F012F8001B40F2E93180B2B9
S3150000594088420CD3A34890F91400032803D1BDE87C
S315000059501040002094E6BDE810408920B9E610BD4D
S3150000596010B540B900F084FF00F0F2FF0446FFF7DF
S31500005970DBFFFFF7C7BABDE81040D5E738B5954D50
S315000059800446287B60B1200002D100F09BFF08B1DD
S31500005990402200E00022002340200021FFF7DFFB29
S315000059A0AC7431BD0C5C0000084008401860084625
S315000059B0186008442DE9F04780461446600688B012
S315000059C01D4648BF002002D4200602D50120FFF75D
S315000059D0ABFEA0037F4E2DD500207074694640466D
S315000059E001F03DFA30BB9DF80800844F02280DD126
S315000059F0BDF8000001F0E6FCFF2815D0396831F843
S31500005A0010004FF4567108420ED113E0032811D14D
S31500005A10684601F0F6FCFF2806D0396831F8100018
S31500005A204FF45671084205D0306A01F015FA08B9EC
S31500005A3001207074600410D500F044FF68B1FEF7D1
S31500005A409FFF50B101F014FD074601F065FB874248
S31500005A5003D00021384601F05DFB200744BF4046D5
S31500005A60FFF78AFEE00548BFFFF7C6FD4FF4185062
S31500005A70044218BFFFF7E2FDE00244BF0120FFF732
S31500005A8015FE600244BF0120FFF710FEE00144BF8F
S31500005A900020FFF70BFE96F914000FF2701701288D
S31500005AA069DB306ADFF8289121034FF0FF3A33D5DE
S31500005AB096F9141001295EDB96F9141003295ADAB7
S31500005AC000218DF8181001218DF8141003A900F09B
S31500005AD0BDFC0398306300F052FF7063B07D08B1DF
S31500005AE0706BB06396F91400012804D002280ED119
S31500005AF0032030753FE000203075306A00F04EFB21
S31500005B00C9F824A0B07BA8B9316B002218E04FF485
S31500005B10016100F077F82EE014F0845F13D00021C5
S31500005B20317500F03BFB042000F0A3FEC9F824A069
S31500005B30B07B10B10120F0731DE0002200218D2002
S31500005B4000F07DFF17E0A00248BF892002D4A00123
S31500005B5003D58820FFF7BDFD0DE0600048BFFFF7C5
S31500005B6083FDA00007D526480068400403D4002121
S31500005B70002000F02DFFA00744BF4046FFF780FD40
S31500005B80002C04D5FFF75AFD4046FFF779FD05F0D6
S31500005B9002010023994211D0404600F0F7FA02288C
S31500005BA002D0032802D005E0892000E08D20FFF70F
S31500005BB090FD03E040F67B0100F024F805F00401B7
S31500005BC00023994218BF01F0A9FC08B0BDE8F08790
S31500005BD0B85B002048610020406700600A00FA9325
S31500005BE056AB03003474002058AB03001D49000077
S31500005BF02149000088700020327C0020F05A0020E5
S31500005C00044008403846FEF78BBD00007068792EC8
S31500005C10630000006C69627261696C2E61000000AD
S31500005C200000000001006003010101016400B600EC
S31500005C306400C000000000000B0000000000704778
S31500005C4001F078BC80B501210C4801F021FD04214A
S31500005C50072002F08BF80A480A490B4A0160042122
S31500005C601160022141620421084A1160816A41F0F3
S31500005C700201816201BD024802F0C8B800050800B1
S31500005C80002005400108030080E200E000E100E09A
S31500005C90602080F31188704702F08EB903460A46E9
S31500005CA09DA10420FFE70CB480B502AA00F05CF8C1
S31500005CB001BC5DF80CFB0A0003D0034697A1112036
S31500005CC0F1E7704700B589B000F0E4FF00210791C5
S31500005CD00691059104910391029101910246904922
S31500005CE0009100230FF24C210120FFF7DCFF8D48C5
S31500005CF0C178437802780391816802918188019185
S31500005D008178009143200FF23821FFF7CCFF09B0CC
S31500005D1000BD8549087070470EB410B50446824828
S31500005D200078A1B080B102F0D1F868B1802269464E
S31500005D30022000F0B5F823AB224600210FF27910BD
S31500005D4002F0ADF900F0DCF821B010BC5DF810FBF4
S31500005D500C220021754802F041BB744931F810202D
S31500005D60521C21F8102070472DE9F04107466E4875
S31500005D700078A2B00C469046002690B9380018BFAD
S31500005D80012F0ED0042F18BF052F0AD0312F18BFB0
S31500005D90332F06D0372F1EBF3B2F4FF6FF718F4292
S31500005DA075D102F093F8002871D0802202A93846F6
S31500005DB000F076F8002C68D007E08DF80400012288
S31500005DC001A9002000F078F8641C207801005CD05E
S31500005DD0A0F130020A2A05D20A2101FB0600A0F131
S31500005DE03006F1E7422818BF44280CD0462827D0B1
S31500005DF0572808D0622836D0662821D06C281CD0B7
S31500005E0070281DD0D9E7422807D158F8042B6946D7
S31500005E10012002F00EFB01220DE0572858F8042B52
S31500005E20694604D1012002F004FB022203E00120AE
S31500005E3002F0FFFA04226946C3E758F8046BC3E789
S31500005E4058F8041B462807D10026885D00281EBF87
S31500005E50761CF6B2FF2EF8D1F2B2002000F02CF834
S31500005E6098B90026B0E758F8047BB8B20028ABD042
S31500005E7002F05DFF0546B8B202F041FF0146EAB204
S31500005E80002000F019F800289ED000F039F822B062
S31500005E90BDE8F081122804BF002003F04CBC704717
S31500005EA010B5234C616001462270606802F014F858
S31500005EB0607010BD00000000F8B515000C461C4EC1
S31500005EC01CD07078317873680F1AFFB2EDB2BD42FC
S31500005ED0B8BF2F463A462146184402F01DFA70789C
S31500005EE038187070ED1B3C44E8B238B17068711C0C
S31500005EF002F055F80028E4D00120F2BD0020F2BDE2
S31500005F0010B50B4C6068611C02F049F808B101201D
S31500005F1010BD607010BD0000574600006C70000098
S31500005F203474002094940300337C00201471002004
S31500005F30207100204242387042424242574242009B
S31500005F40424242574442000080B50146002009B94A
S31500005F5003F01FFCC0B202BD80B50246262012B96E
S31500005F60002003F0D5FCC0B202BD80B5014600207A
S31500005F7009B903F043FDC0B202BD0CB438B50446FE
S31500005F8004AA00F00FF805462046FFF7EEFF284664
S31500005F9032BC5DF80CFB80B508461146FFF78BFE58
S31500005FA0002002BD134680B50A460146094802F0A4
S31500005FB076F8401E8041C00F02BD38B504460D4636
S31500005FC0284602F0A5FAC2B229462046FFF7E3FFAB
S31500005FD0002032BD975F0000890001EB401000F100
S31500005FE0844002607047000010B50446FFF750FE7B
S31500005FF04E484AF6E8510160C162016B01F00F019B
S31500006000022913D14A4A01211160806B00F0030076
S31500006010012818BF022809D100221C214548FFF794
S31500006020DBFF002200214448FFF7D6FF200A0028A4
S31500006030424808BF24024FF20F0104804180BFF39B
S315000060405F8FBFF34F8F3E483E4A016801F4E0611F
S3150000605011430160BFF34F8F00BFFDE780B50020FD
S3150000606000F009F830B9BDE80440E3210FF2EC0076
S31500006070FEF756BB01BD2DE9F042334C2168424282
S315000060808D1815F01F0108D0002802D44842054497
S3150000609003E04842284400F120052C48A5F12006DB
S315000060A0A84224BF2A48864203D3EFF308808542DC
S315000060B001D300202DE000F04BFC81462548006806
S315000060C010F0010718BF03F02EFD206801468D422F
S315000060D006D2A84224BFCD2100F80119F9D206E064
S315000060E02038002201E000F8012B8842FBD325600E
S315000060F0304603F01FFDE22001E006F8010BAE4238
S31500006100FBD30FB103F0ECFC484600F05EFC2068C0
S315000061102038BDE8F0820C48006870470A480068DD
S31500006120203870470C4870470000000008300E40C9
S315000061304040084060300E4074300E4000000020A1
S315000061400CED00E00400FA05045D00203049002053
S315000061507017002094ED00E0000000206D69637266
S315000061606F2D696E7465726E616C2E63000000009F
S3150000617038B50446214804600D46204600F0DCF997
S3150000618029462046BDE8344000F0A2B901207047F8
S3150000619003F02ABF0846114600F0EFB970470846DB
S315000061A0114604F0E9BD0220704700207047002028
S315000061B07047012070470020704710B50C46114605
S315000061C01A46034620460D4C64682468A04710BD55
S315000061D00A484068406800470848406880680047A9
S315000061E010B582B0049C0094044C64686469A047AE
S315000061F016BD02494968896908470000305E0020DB
S315000062000C3000F0A1B80C3000F0B0B80C3000F043
S31500006210BFB80C3000F0C9B880B504F0E3F900202F
S3150000622002BD0C3000F070BD0C3004F009BE000059
S31500006230D3A300003FA400004BA4000075A40000F7
S3150000624089A40000A7610000AB610000AF610000F7
S31500006250B3610000B76100000120704738B500F057
S315000062601BF800212561E160BDE8324004F0EBBD7A
S3150000627038B500F011F82169E26829400D0018BF11
S3150000628001251143E16004F0DEFD15B10020042173
S3150000629034BD0020002134BD04460D4604F0D6BDB1
S315000062A038B5FFF7F9FF2269E1682A4021EA0205BD
S315000062B0E56004F0C8FD284632BD8069704770B5B8
S315000062C082B005460C0006BF0FF25C00006820682D
S315000062D01646009006B9EE6831462846FFF7E0FFFD
S315000062E032466946284604F0D2F80CB10098206080
S315000062F073BDF8B500F10C070C4615463846FFF796
S31500006300ABFF022628B12A4621463846FFF7D7FFBB
S3150000631000263046F2BD80B50C3001F00111FFF7C2
S315000063209DFF002002BD0000FFFFFFFF38B50446B9
S315000063300D4603F08EFE08B9022032BDA9B22046F2
S31500006340BDE8344000F03FB938B50446154689B279
S31500006350FFF7ECFF010005D129462046BDE8344091
S3150000636003F09ABE32BD0C3003F099BF70B500F051
S315000063700AF8010006D1324629462046BDE870409B
S3150000638003F0D2BE70BD044615461E4689B2CDE75F
S3150000639070B5FFF7F8FF010006D1324629462046C0
S315000063A0BDE8704003F081BE70BD70B5D4B2250063
S315000063B018BF012C01D0012070BD89B200F003F98D
S315000063C006000BD10121012000F0D7F814B904F022
S315000063D010F903E0012C08BF04F012F9304670BD35
S315000063E07CB50D466946044600F02DF89DF8001070
S315000063F02A46204604F02EFD04F10C0601463046DE
S3150000640004F0B8F876BD30B583B06946044600F0AE
S315000064101AF804F10C05284604F0E2F802469DF845
S315000064200010204604F07EFD3EBD38B50C4600F156
S315000064300C050021284604F09DF821462846BDE8B3
S31500006440344004F08AB80C3004F0C4B80C3003F0C1
S315000064506EBC000062B38B0708D0521E11F8013BD8
S3150000646000F8013B00F024808B07F6D1830740F04B
S31500006470208000BF103A07D330B4B1E83810103A84
S31500006480A0E83810F9D230BC530724BFB1E8081091
S31500006490A0E8081044BF51F8043B40F8043BD2077B
S315000064A024BF31F8022B20F8022B44BF0B7803706F
S315000064B07047083A07D3B1E80810083A40F8043B99
S315000064C040F804CBF7D25307E4E7000001207047F9
S315000064D010B5044603F057FC08B1002010BD204655
S315000064E010BD70B50D00044614BF012600261F21FD
S315000064F0304604F06BFD0020606225621F213046A5
S3150000650004F064FD4FF6FF76002001E0401CC0B2A7
S31500006510E968884209D2A968182212FB00F21144E0
S31500006520C989B142F2DA0E00F0D13146204600F0B8
S315000065304AF8304670BD704710B5044603F0CFFCEC
S31500006540A06A0100DFF8301208BFDFF83002886069
S3150000655010BD38B500F10C050C462846FFF7B6FF0E
S3150000656028B103F041FD012801D0022032BD2146A9
S315000065702846BDE8344003F004BD10B50C4603F0D0
S3150000658015FD1CB103F030FD0128FBD110BDF0B59F
S3150000659004467B48066883B00D466946204604F0EB
S315000065A019F8B5F91220012747F6FF7024798242BF
S315000065B007D09DF80010304604F04CFCA04238BFCE
S315000065C000273846FEBD2DE9F04F85B04FF0000993
S315000065D08DF801900446684F8DF800900D46386896
S315000065E0D7F804A00290CDF804A0204600F0C1F828
S315000065F08046266AD4F824B000F0EBF8002818BFCD
S31500006600D34505D1BBF1000F02D0A8B240454BD00F
S31500006610002E1CBFB068002801D0F06808B903201E
S315000066209CE0CA4601E00AF1010AF068824518D2E8
S31500006630B068182101FB0AF10144A8B2CA89904248
S3150000664022BF088AAAB29042EDD301208DF800003D
S315000066508B462046FFF79BFF0028E4D001208DF8EB
S31500006660010003A9204603F0B5FF204603F0B8FF5A
S3150000667082469DF80100C0B1217900F073F83868B0
S3150000668060B3B04223D17A680AB35A451FD1A9B282
S31500006690884506D00023204603F0B9FF5FEA0009CB
S315000066A012D1C4F824B0658057E09DF8000048B1C7
S315000066B0BBF912209DF80C10A4F10C0004F0CAFBE3
S315000066C00146DAE7012049E000F04BF83FE00168B7
S315000066D021B13268914208BF416800D0316800F0AC
S315000066E045F881465FEA090004D1DBF8001000F0A6
S315000066F03DF881465FEA09000FD100F06AF810B153
S315000067003E60C7F804B0C4F824B0658001235A4639
S31500006710A9B2204603F07BFF81465FEA090005D156
S31500006720BA685946A4F10C00904716E000F051F8FB
S3150000673098B10298386001987860386808B100F01E
S3150000674014F800F00EF8786838B100F00EF87A68A0
S3150000675000234146204603F05AFF484605B0BDE8EF
S31500006760F08F5146204603F025BF0168204604F00D
S31500006770CBB9408870470000385E002037650000BE
S31500006780305E002001281CBF0428022801D1012008
S3150000679070470020704738B500F03CF840B1687883
S315000067A0FFF7F0FF20B1287869780843400701D544
S315000067B0012032BD00F00DF828B103F015FC4007AA
S315000067C001D5022032BD29462046BDE8344003F0FB
S315000067D08BBE20467AE60C30DDE738B500F01AF8B5
S315000067E038B16878FFF7CEFF00281CBF6878042808
S315000067F001D1012032BDFFF7ECFF28B103F0F4FB15
S31500006800800701D5022032BD29462046BDE8344026
S3150000681003F092BE0D4604462878B3E70C30DCE759
S3150000682030B583B00C30DDE90645CDE9004503F00F
S3150000683024FB3EBD0C3004F03BB90000002070473D
S3150000684038B51446FEF7DCFA05466CB128000BD0C5
S315000068500A48007818B10A490120087004E00022AD
S315000068600021284600F0EBF8284632BD70477047F5
S315000068707047044908707047000000005661002008
S3150000688057610020397C0020012070470C3004F04D
S31500006890A2B80846114604F00BB80846114604F0A3
S315000068A029B870B50C4615461E460C30FFF7ECFFAE
S315000068B038B1049B324629462046BDE8704003F0B5
S315000068C017BB70BD0020704704F0EEBB10B5044640
S315000068D00521112001F020F800220021022001F0FC
S315000068E0F7F81848184A01686FF3D321016002EAE5
S315000068F0C42201681143016001220121022001F036
S31500006900E7F8BDE810400421112001F005B80D4854
S3150000691000680003C00D704738B50C480C46018866
S315000069204FF6FF75ADF8005002237F22684604F04B
S315000069304CFCBDF80000A84202D02080012032BDE8
S31500006940002032BD30400E4000F80F005CAB030063
S31500006950EFF31180602181F31188704780B504F050
S3150000696024FD04F02FFD80B202BD80B504F01DFDAC
S3150000697004F028FDFA21B0FBF1F080B202BD80B52B
S3150000698004F013FDBDE8044004F01CBD80B504F01E
S3150000699032FB074800214160001D04F063FC20B172
S315000069A039210FF21400FDF7BBFE002002BD0000E6
S315000069B02871002000F008B873797374656D2D7422
S315000069C0696D65722E630000704780F31188704709
S315000069D00120704738B504466048614D002912BF52
S315000069E000210178491C01700120012104F029FED3
S315000069F02878411C89B2032004F023FE200003D02E
S31500006A0000F086FB002808D500F082FB40054CBF4D
S31500006A10032001200021FFF7DBFF5248447028467F
S31500006A20BDE8384001224FF47A71FFF709BF80B5FF
S31500006A30FEF76AFBBDE80240312004F065BF38B5B9
S31500006A400446402C154606D100F062FB00F080207B
S31500006A50B0F1004F03D000210020FFF7B9FF002C52
S31500006A603AD0402C24D0882C18BF892C38D08C2CB6
S31500006A7038D08D2C2DD08F2C39D13B480078042866
S31500006A800FD155B13949022008704CF25032BDE899
S31500006A9038403749002005F011B8FEF735FB3120A4
S31500006AA021E0FEF731FB002D0CBF312000201AE05B
S31500006AB0FEF72AFB05F087F828482E490078097862
S31500006AC0884204D2BDE834400021012082E74020FC
S31500006AD009E0FFF7CBFE03E0FEF716FB002002E01D
S31500006AE0FEF712FB8D20BDE8324004F00DBFBDE875
S31500006AF03440B42145E01D480078022800D0704794
S31500006B0080B51D480078012807D0032810D11B48FE
S31500006B100078022818BF7C280AD11549002005F004
S31500006B200CF8FEF7F1FABDE80240002004F0ECBED6
S31500006B3001BD38B5FFF70CFF05460C480078002468
S31500006B4010B9FDF7FDFE04462846FFF73EFF1CB1CF
S31500006B50BDE8314000F0E2BC31BD00003A7C0020C7
S31500006B60747B0020945D0020F55F0020467C0020A9
S31500006B702F6A0000F85F0020447C0020457C00203E
S31500006B80E9210FF20800FDF7CBBD00006D61632D12
S31500006B907068792E63000000890001EB401000F157
S31500006BA084400260704730B54B4887B00068040ED9
S31500006BB0684605F00BF88F2C10DA4848484C0168F7
S31500006BC041F0040202604FF0501300223025554375
S31500006BD0521C6351062AF9D3016001E0902C06DAB3
S31500006BE040480168C909C90141F0200101609DF8CA
S31500006BF00100012804D13C48016841F0040101600C
S31500006C0000220D213948FFF7C7FF394901200860E6
S31500006C1003AC04F0F5FF04F058FB05F01AF935480B
S31500006C20D0E90023CDE9012301208DF8070001A852
S31500006C3005F0AEF905F022FCFFF7A8FE2E480FC8B6
S31500006C4084E80F0008208DF8180003A805F022FC40
S31500006C5007B030BD40F20160FFF7C6B980B500212C
S31500006C60002000F057FABDE8014000F049B805F0F1
S31500006C701FBC002818BF05F06DBD05F06CBD80B5C2
S31500006C8005F063FE01461D480C2938BF00EB810064
S31500006C9002BD000010B505F058FE044605F059FE89
S31500006CA0C0B208B9012C07D1072C11D8DFE804F0CF
S31500006CB004100608080A0C0E002010BD092010BD9D
S31500006CC0022010BD032010BD0B2010BD062010BDF4
S31500006CD044F0800010BD0000FC81E00FB0400E4083
S31500006CE000A000402C400E4064310E4054300E404F
S31500006CF010300E4040950300F895030008960300F7
S31500006D0070470C3003F02EBB38B50D46044689B2E9
S31500006D10FFF759FC010005D1A9B22046BDE8344071
S31500006D2003F0CDBA32BD000070B50C4684B000F158
S31500006D300C05237E627EA17E284605F09EFE6846EF
S31500006D4004F10C010C22FFF785FB6946284604F086
S31500006D5015F8211D284600F08CF9060003D12846B7
S31500006D6005F0C2FE0646300005D10FF21C1128467A
S31500006D7003F0ADFF0646300003D1284605F004FEB9
S31500006D8006462168284600F006F8304604B070BD75
S31500006D900C3005F0F2BD70B58AB004460D46684663
S31500006DA00FF2C0012422FFF765FB05B96D460026E8
S31500006DB001E0010005D135F81610F2B2204605F0C3
S31500006DC016FE010006D105EB4600F2B2C188204648
S31500006DD005F016FE010007D105EBC60000F10C0117
S31500006DE0F2B2204605F025FE761C032EE1DB0AB042
S31500006DF070BD032ABCBF0C3005F0F9BD01207047F9
S31500006E00032ABCBF0C3005F0FBBD01207047032AE6
S31500006E10BCBF0C3005F00DBE0120704738B500F040
S31500006E2015F828B121462846BDE8344005F018BEBD
S31500006E30022032BD38B500F009F828B121462846AF
S31500006E40BDE8344005F002BE022032BD00F10C055B
S31500006E500C46284605F08EBD0C3005F01DBE0846D2
S31500006E6002F030BFFFFFFFFFFFFFFFFFFFFFFFFF47
S31500006E70000000000000000000000000000000000C
S31500006E8000000000000000000000020800000000F2
S31500006E9010B5144C207858B91348018808237F226E
S31500006EA0201D00F069F8201D00F011F80120207067
S31500006EB010BD10B50B4C01460822201D01F02CFA1E
S31500006EC0201D00F004F80120207010BD074880B591
S31500006ED001460822064801F01FFABDE80140FEF708
S31500006EE08BBA0000287400205EAB03002C740020CF
S31500006EF03474002038B50C4611461A467F2908BF5F
S31500006F00002141F2F0139C4218D154490B6849689C
S31500006F100024D5B27DB30355641C1B0A521EE4B28D
S31500006F20042CF6D3E4B2082C25D2D3B2002B1FBF13
S31500006F300155090A521E641CF4D131BD04F4704592
S31500006F40C4F30B03B5F5805F11FB02F108BF43F0F4
S31500006F507E630BD0B5F5005F1CBF04F47044B4F536
S31500006F60405F08D143F07C6343F40113C918BDE8C0
S31500006F70384001F0D1B931BD70B51E000446154642
S31500006F801BD04BF23460814211D1092E28BF08264E
S31500006F9033467F2241F202012046FFF7ABFF32461D
S31500006FA02F49204601F021FA38B941F2F011334653
S31500006FB02A462046BDE870409CE770BD2DE9F8439F
S31500006FC007460024F807884615466FF00F06DFF8D7
S31500006FD0949002D5652100F049F8E80702D56621AC
S31500006FE000F044F807F47041B1F5805FC7F30B0079
S31500006FF00CD140F07E64B4F17E6F264604D3281986
S31500007000401E1949884210D36B210CE0B1F5005F90
S3150000701018BFB1F5405F05D140F07C6444F401141B
S31500007020264602E0722100F021F8002706E0F05D16
S31500007030FF2802D07C2100F019F87F1CAF42F6D35E
S315000070406A084146204605F0AFFD28B14846BDE82E
S31500007050F4438521FDF764BBBDE8F183F081E00FC1
S31500007060389503002C9503000008E00F4846FDF70D
S3150000707057BB70B50D4682B00446287858B9002132
S31500007080204603F011FB0021204603F063FB00219C
S31500007090204603F067FB2878002814BF04202879CF
S315000070A000F027F814BF287968798DF8010020468A
S315000070B0FFF793FB06001AD12878002814BF022098
S315000070C0A87900F016F814BFA879E8798DF80100C0
S315000070D02046FFF760FB060009D1287838B1698899
S315000070E0204603F0EDFA0121204603F0DDFA304692
S315000070F076BD8DF8000069462878002870470C3068
S3150000710003F028BB0C3003F037BB084603F066BE1D
S3150000711000207047012070470020704770B5044674
S31500007120A0480D460178164619B14188491C418090
S3150000713070BD204605F065FD80B1FEF759F938B1FE
S31500007140A078002E14BF40F0010000F0FE00A070F1
S3150000715029462046BDE870402E2200E070BD70B57D
S3150000716004460D461646601C01F052F910F0070F52
S315000071701ABF41F64901884200260121002004F089
S3150000718060FA2078411C89B2022004F05AFA32468D
S315000071902946204601F066FF18B1BDE8704006F0AA
S315000071A051B880488188491C818070BD2DE9F04F17
S315000071B0A5B001F0A2FF7B4E814600257088A84647
S315000071C000B17580B188080003D00D2004F039FAAB
S315000071D0B5805FEA090042D001F091FD040018BFB6
S315000071E02578601C01F014F910F0070F1BBF41F65B
S315000071F049018842C3464FF02E0B484601F097FDE1
S315000072002018CBF100010844A0F10801082202A8C9
S3150000721001F082F802AFF878FDF71EFD2946FDF76A
S315000072201CFD834697F902008DF804005E4800783D
S31500007230B0B1B068002812D004A8802106F0F8FC8E
S315000072406B1CCDF80080DBB20022494604A801F091
S3150000725075FF9DF90420B368594604A898479EE037
S31500007260484606F0F3FD0028504D1ED0052148463D
S3150000727001F0ACFF82460320FEF76FFD4C4F4D49EF
S315000072800AF007003870FF20087084F801B09DF8F6
S315000072900400A0709DF80800E070484607F0A9F9C0
S315000072A00328484602D108F0FDFA6AE007F091F992
S315000072B000F00500042807D03878032804D1484692
S315000072C004F06DFB00285CD106F008F818B106F052
S315000072D005F8012802D13878002860D1F26810003C
S315000072E004D0002148469047002858D12878032822
S315000072F018BF042805D0022821D12F480078C007DE
S315000073001DD405F0EBFF032819D1484607F029FAEA
S31500007310B0F5004F13D1484607F046FA27490988C9
S3150000732081420CD0484607F054F9000707D4484676
S3150000733007F04FF9400632D5387801282FD1287842
S31500007340042804BF3878012809D11D495FEACA60BC
S3150000735081F8008003D504F0FAF94FF00108387877
S3150000736020B101280AD0032804D00AE0484607F0D5
S3150000737039FE06E0484608F0A5FF02E0484608F058
S31500007380EFFF287804280AD10D48007888F001011B
S31500007390084204D00A490020087004F0D8F925B044
S315000073A0BDE8F08FB4770020566100203E740020BF
S315000073B0447C0020457C002042740020E25D0020D1
S315000073C0637B0020F8B5274D2E68040001D1FF200D
S315000073D0F2BDFFF7BDFA244F29683A7821F812402A
S315000073E036F8021BA142FBD1FFF7EFFA29683A787B
S315000073F0B01E401A4010C1B2914208BFFF20C0B271
S31500007400F2BD2DE9F843194C174D266881462878B8
S3150000741006EBC007FFF79CFA804608224946384625
S3150000742000F07AFFF88800E00836F188814202BF52
S3150000743031883A889142F7D171887A88914202BFA1
S31500007440B188BA889142EFD14046FFF7BEFA20686C
S315000074502A78301AC010C1B2914208BFFF20C0B2CC
S31500007460BDE8F283F45A0020EE5F0020F85A0020AF
S315000074700020704770477047704770B50446433820
S315000074801E4D08D0401E012809D9801E01280ED99C
S31500007490C01F31D02AE0BDE870400AF032BD0AF0C4
S315000074A008FD20B10AF02DFD0028FBD170BD144E59
S315000074B0307808BB0120307000200AF09BFD442C78
S315000074C011D00CD3462C05D00DD3472C07D140F64E
S315000074D0010001E040F60200FEF786FD03E0AF2161
S315000074E02846FDF71DF90020307070BD2846BDE81E
S315000074F07040C121FDF714B970BD00001C97030050
S315000075002C7C002070470020704770470020704791
S31500007510704770477047704770477047FDF79CBAD1
S3150000752070471CB5059C0194049C0094FFF7F8FF76
S3150000753013BD00000AF0CCBD890001EB401000F13C
S31500007540844002607047890001EB401000F18440DE
S31500007550006870470122DFF8A81610B5884232BFCE
S315000075600022DFF8A016884201D2144600E0022469
S315000075701021DFF89406FFF7DFFFDFF89C070168AC
S3150000758021F0807141EA0461016010BDDFF87C16CC
S31500007590DFF87C360A6802F04072984238BF002253
S315000075A004D3DFF87837984238BF0122086820F004
S315000075B0407040EA02600860704738B500F013F882
S315000075C041F6713020600AF0C8FD002105E038B5AB
S315000075D000F009F841F671322260FFF7D7FF0DB1CE
S315000075E00020206031BDDFF83847256805B1012548
S315000075F07047C01C0F2801D2000770474FF070403B
S315000076007047000038B50446002500F02FF9DFF872
S31500007610FC26DFF89016944208D0DFF8F426944250
S3150000762006D0DFF8F026944204D006E0086802E0AF
S31500007630486800E0886800F00700401E03281BD851
S31500007640DFE800F002050C080AF0C9FD04E00AF0C4
S31500007650CCFD01E00AF0C6FD05460DE00AF070FD1E
S31500007660DFF8B4160968090E01F001010122491C70
S3150000767002FA01F1B0FBF1F5284632BDDFF8A41697
S315000076804A68D20702D40A680242FCD17047000059
S3150000769070B5020A0C4602F00F020021521E092A9A
S315000076A0DFF88C5614D8DFE802F00514131307161A
S315000076B019131C20DFF85055C0F3043611B10846E3
S315000076C0FFF7DCFF224631462846BDE8704033E727
S315000076D070BD1035F0E730350121EDE73835102162
S315000076E0EAE740354FF48031E6E7DFF84856E3E74E
S315000076F070B5DFF83416DFF814260E68DFF81016BA
S31500007700DFF81446012510F478105DD0B0F5003F7F
S315000077102AD0B0F5802F21D0B0F5002F54D0B0F587
S31500007720202F27D0B0F5402F46D0B0F5602F66D079
S31500007730B0F5901F3BD0B0F5A01F24D0B0F5B01F18
S315000077402AD0B0F5D01F1CD0B0F5E01F22D0B0F57E
S31500007750001F2CD0B0F5381F39D04FE00AF0FFFCDF
S31500007760E168C1F308210AE00AF0F9FCA168C1F357
S31500007770082104E00AF0F3FC6169C1F30421491C05
S3150000778012E0104615E01046FFF73CFF216A01F0B3
S315000077900F0107E008460CE00846FFF733FFA16A31
S315000077A001F0030105FA01F1B0FBF1F627E0DFF87D
S315000077B06405FFF727FF1FE0DFF87C0500F056F8A9
S315000077C007281CD0092819D10AF0C9FC14E0DFF8F3
S315000077D06C0500F04BF804280CD007280FD00828B9
S315000077E00CD10AF0BCFC2168C1F30421491C01FB41
S315000077F000F604E00AF0CEFC064600E0002630461D
S3150000780070BD0000030903F00F0301225B1E072B66
S31500007810DFF8041528D8DFE803F004060A0E101472
S315000078201C27086800E04869C0F304207047086810
S31500007830C0F300607047C86800E08868C0F308209D
S315000078407047DFF8FC3498420ED1086A00F00F004A
S3150000785006E0DFF8F034984206D1886A00F00300AB
S3150000786002FA00F0401E704700207047014601F002
S315000078700F010120491E0729DFF8D02449D8DFE887
S3150000788001F0040F1348202E4836506A00F0070016
S3150000789002283AD002D3042804D01CD3052070470E
S315000078A011690FE002207047516901F00701491E76
S315000078B003292FD8DFE801F00F020311F2E70620B3
S315000078C07047916901F00701012904D00229E9D026
S315000078D0042902D07047032070470A2070471168B8
S315000078E011F001010FD0012914D109207047DFF8EA
S315000078F06014096801F03001102904D0202904D051
S31500007900302904D0704707207047042070470820AC
S31500007910704700207047000070B500F00F00032488
S315000079200325401E0728DFF824640FD8DFE800F09F
S31500007930042E347C31607C6A0229DFF8C40206D04A
S3150000794003291AD004291AD005291DD070BD042494
S31500007950002501220121284600F0BAF8FFF72DFE86
S315000079607460DFF8E403FFF7C3FEFFF7F3FD0AF0E8
S31500007970E7FBBDE87040002129E60125E9E702247E
S315000079800225FFF7E7FDE4E70124FAE706F1100414
S3150000799004E006F1180401E006F11404012908D0F8
S315000079A0022909D003290ED0062913D00A291DD091
S315000079B070BD0020206070BD01220121002000F072
S315000079C087F80220F6E701220121012000F080F865
S315000079D00120EFE70AF0B4FBFFF7BCFD012200210E
S315000079E0DFF84C03FFF7A8FD0320E3E70420E1E7F7
S315000079F0072902D0092902D070BD002000E001202D
S31500007A00306070BD012906D0042915D007290CD095
S31500007A10082918D070BD0020DFF834130A6822F058
S31500007A20300242EA0010086070BD012201210420E4
S31500007A3000F04EF80120EFE701220121022000F0BC
S31500007A4047F80220E8E70320E6E770B500F03DF8C6
S31500007A5001220021022000F03BF8217CDFF8F852D9
S31500007A6000200229296808BF0120490840EA410090
S31500007A702860082122782846FFF75EFD6868E17ACB
S31500007A80C00841EAC0006860617AA08841EAC02067
S31500007A90A860EE68207AFFF7ACFDE28806F07F6109
S31500007AA041EAC221A27A1143227A41EAC21108436D
S31500007AB0E860A17B607B090141EA0030E17B084375
S31500007AC0217B40EA0140286170BD04461120CDE6C5
S31500007AD02DE9F84F04288246904671D8DFE800F079
S31500007AE04C473D03420001260220012700240029BD
S31500007AF0DFF83892984D5ED0BAF1020F02BF2868BF
S31500007B00C0F3011000284FF0000B0AD12868C00707
S31500007B104FF0010B05D5286820F0300040F010002A
S31500007B202860EE6300F04EF80028FBD0B8F1000F95
S31500007B3046D0394600F047F80028FAD0BAF1020FCD
S31500007B403ED1BBF1000F3BD02868C0071BD50122F0
S31500007B502021022000F0C9F819E004260820032796
S31500007B600224C4E71026202005270424BFE7402668
S31500007B70802007270624BAE74FF480764FF400707A
S31500007B8009270824B3E70021022000F08DF802201F
S31500007B9000F01CF80446012200210220FFF798FF9E
S31500007BA02146022000F036F8EE63394600F00BF865
S31500007BB00028FAD004E0E86300F004F80028FBD1BE
S31500007BC0BDE8F18F21464846FFF7BDBC401E03289D
S31500007BD0604912D8DFE800F0020C06080869C0F315
S31500007BE008007047086800E0886800F07F0070476A
S31500007BF05A480068C0F30A0070470020704700002A
S31500007C000148E8010190D00300400E4004000E40F8
S31500007C1041787D0170B5401E0D46032805F07F01B1
S31500007C204C4C404E3DD8DFE800F0022A101DC5F34B
S31500007C3008051A213046FFF786FC0028F9D120698D
S31500007C40400A45EA4020206170BD0D4618213046A5
S31500007C50FFF779FC0028F9D12068C00945EAC01071
S31500007C60206070BD0D4619213046FFF76CFC0028D8
S31500007C70F9D1A068C00945EAC010A06070BD2B48C4
S31500007C800068606920F0300040F010006061C5F3C4
S31500007C90C310FFF7AEFC216A314A1140294308435D
S31500007CA0206270BD80400E402B480268C2F301126C
S31500007CB0002A18BF002907D0202902D0302903D076
S31500007CC005E04FF4000103E04FF4400100E02549D0
S31500007CD0C26E0A408A42FBD1490204D5C06F800AAF
S31500007CE000F0010070470120704710B502280AD144
S31500007CF00B0004D01C4B4FF480645C64196012B115
S31500007D00BDE81040D0E7012010BD000002001A00B7
S31500007D1003001C000500200000410E40015A6202CB
S31500007D2040000E4040410E40EC5A002090400E406C
S31500007D30B0400E4050410E4006000C0098002E0048
S31500007D4060061400700716000005080070400E401B
S31500007D505C410E4010400E4024400E409C400E40B8
S31500007D6000F8FF0FFF03E10764400E4010B5214BFA
S31500007D701C6890FAA0F2B2FA82F224EA000091405E
S31500007D800843186010BD1C4901200860704730B5D3
S31500007D901A481B4B01680020002203EBC204194D50
S31500007DA064682D686D070FD453F83250B5F5007F1F
S31500007DB018BFB5F5806F05D0B5F5006F18BFB5F5DE
S31500007DC0803F01D144F480740F4D2D68ED0553F8C2
S31500007DD0325048BF24F01C04294202D0214208BF79
S31500007DE02843521C092AD8D3C10348BF20F01C00DF
S31500007DF030BD000000500E4008500E4004500E40AA
S31500007E0044940300E841E00F88300E400168C9073A
S31500007E1007D58168890704D48168C907FCD4012184
S31500007E204160704780B501216B48FFF731FC6B4913
S31500007E300120086000200AF00FFA01230422022123
S31500007E4005200AF04BFA0120FDF763FF00F011F858
S31500007E50FDF77EFF6249012008700AF033FB01231B
S31500007E604022604960480AF0FBFA60490860C00F8A
S31500007E7002BD10B5012201210420FFF729FE5C484E
S31500007E805C4C016841F0010101600022C16841F0CB
S31500007E908071C160002358495848086058480260FC
S31500007EA0584A1360022323601523574C236000238E
S31500007EB00364564B0B65564911604FF48071554A61
S31500007EC01160016841F48071016010BD4848006886
S31500007ED000B10120C0B27047D12202704170090A78
S31500007EE081704D490A78C270501C08700420704792
S31500007EF02DE9F84F80464D1DFEF730FD00278246DE
S31500007F004FF6FF7B454C15E008EB0700594610F885
S31500007F10026C30460AF0E2FA83464F46394800685A
S31500007F20C00707D536480068C00503D52068002875
S31500007F30FCD02670FFF7CAFF40B3F8B2E9B2884218
S31500007F4024D2FEF70BFDA0EB0A0080B2B0F5FA7F53
S31500007F5022DCF8B210B95B260127DFE707F1010939
S31500007F60FFB2012F08BF6E1FD7D0EDB2E81E8742C1
S31500007F7008BF5E46D1D0A81E874208BF4FEA1B261F
S31500007F80CBD0681E8742BFD15D26C6E7FFB2EDB2F1
S31500007F90AF4208BF002000D00120BDE8F28F10B527
S31500007FA00C460246217800200529A4BF1046FFF79B
S31500007FB09FFF0421217010BD00B50C48006891B0E8
S31500007FC0402269460AF037FA20B1C2B26946122049
S31500007FD0FDF760FF11B000BD0025080010881442AF
S31500007FE01F7C0020D064002024890300E85A00206A
S31500007FF0F0ED00E0F00004E0B00F00E055CEACC5B7
S31500008000000E00E0800E00E0100004E0FF030040D8
S315000080100D000100040304E01E7C0020200000E0A7
S3150000802070B51346104402E0A4192C705B1EDCB236
S315000080304CB101F00F060909451E0A2E2846B4BFA9
S3150000804030243724F0E7104470BDF0B5002341B169
S31500008050002806D501232D21B0F1004F117018BF5D
S315000080604042002100249F4D55F82470002601E06F
S31500008070C01B761CB842FBD2F7B20FB90F0005D071
S31500008080DBB206F13001D1545B1C0121641C092CC2
S31500008090EADBDBB23030D054581CC0B2F0BD2DE95B
S315000080A0F24F804696B013A80190154603A89B464A
S315000080B003AE002700248DF800000BE001240546DE
S315000080C00198864205D300F0DCF800284FD100F075
S315000080D0CEF86D1C9DF800002978301A0A000BD0E6
S315000080E0252903D014B906F8011BE9E7002C14BFB3
S315000080F000246D1C29780A0000F0AF80B1F125023A
S3150000810016D00B3A092A40F28980283A7DD00A3ADD
S3150000811012D0521E41D0521E5FD0083A5DD0121FB7
S315000081203ED0D21E3CD0921E57D0D21E6DD0C7E78D
S31500008130252006F8010BC3E7DBF8000002904FF09C
S31500008140000A0BF1040000F1040BD0F80090CA45B8
S31500008150B6D2029810F80A1002223046FFF760FFE6
S3150000816006460198864205D300F08BF800287AD19E
S3150000817000F07DF8A9F1010082453CBF202006F8F9
S31500008180010B0198864205D300F07BF800286AD1DE
S3150000819000F06DF80AF1010AD9E75BF8040BC8E7AD
S315000081A05BF8049B00F067F800285CD100F05FF8EC
S315000081B04FF0000A01E00AF1010A5FFA8AFA19F89B
S315000081C00A000028F7D19DF8580052464946C04794
S315000081D0002848D15744FFB272E76C290AD16A7861
S315000081E05BF8040B752A0EBF00210121642A07D112
S315000081F06D1C05E075295BF8040B0CBF00210121FD
S315000082003246FFF722FF36185AE75BF8041B0222B4
S31500008210C9B23046FFF704FF064651E76A780124E3
S31500008220782A18BF582AF8D16D1C0024681E3229F6
S3150000823004D15BF8040B042281B2EAE734297FF407
S315000082403DAF5BF8049B04224FEA19413046FFF725
S31500008250E7FE04221FFA89F1DCE700F00CF810B9FA
S31500008260F019C0B200E0002017B0BDE8F08FF71992
S31500008270FFB203AE704706469DF85800F2B203A956
S3150000828040479DF80000361A9DF85800F2B203A93F
S3150000829040472DE9F047804615461E46FDF78DFE00
S315000082A0010015D10027DFF840A00BA40FF22C091E
S315000082B000E07F1CB7420BDA701E8742EA5DB4BF4E
S315000082C04B4623465146404600F01EF80100F0D0CA
S315000082D0BDE8F08702A117E00000000020000000C2
S315000082E00D0A0000C0940300B89403000CB438B51E
S315000082F0044604AAFDF756FE05462046FFF7EAFFA8
S31500008300284632BC5DF80CFB0CB480B502AAFDF71A
S3150000831049FE02BC5DF80CFB814233D21044114485
S31500008320401E491E10E011F8013900F80139121FEC
S3150000833011F8013900F8013911F8013900F801394D
S3150000834011F8013900F8013992B2042AEBDA93B236
S31500008350002B1EBF11F8013900F80139521EF6D163
S31500008360704711F8013B00F8013B121F11F8013B61
S3150000837000F8013B11F8013B00F8013B11F8013B05
S3150000838000F8013B92B2042AEBDA93B2002B1EBF2F
S3150000839011F8013B00F8013B521EF6D1704710E080
S315000083A011F8013B00F8013B121F11F8013B00F8E0
S315000083B0013B11F8013B00F8013B11F8013B00F8C5
S315000083C0013B92B2042AEBDA93B2002B1EBF11F8DE
S315000083D0013B00F8013B521EF6D17047130003D053
S315000083E00A4619460AF08EB8704710B500E0521ECC
S315000083F093B223B100F005F8F9D0181B10BD002088
S3150000840010BD10F8013B11F8014BA3427047000064
S315000084104178007801E00178407800EB012080B2D5
S3150000842070470170090A417070470A0A027041706C
S31500008430704710B50023040014BF1C46C3F10304A3
S31500008440E4B25B1C0A55120A042BF4DB10BD30B5EE
S315000084500024050014BF2546C4F10505EDB2641CD1
S315000084604A55120A42EA03621B0A062CF1DB30BDAA
S3150000847030B54A788B78CC78097818B120461D46F5
S315000084800C4602E0154608461A4645EA002044EA2C
S31500008490022141EA004030BD00B583B020B106227A
S315000084A0684600F02AF803E006226846FFF734FF24
S315000084B09DF800209DF8010040EA02219DF8020087
S315000084C002069DF8030042EA00429DF8040042EAD3
S315000084D000229DF80500104303B000BD10B500232F
S315000084E000E05B1CDCB28C4205D210F8014B9442D2
S315000084F0F7D0002010BD012010BD10B5002304E008
S31500008500541EE41A0C5DC4545B1C9342F8DB10BD88
S3150000851010B5002480B14FF6FF7202E0944206D0F7
S31500008520641CA4B2035D002BF8D1944204D17921D6
S315000085300FF2F400FCF7F4F8204610BD10F8012BFA
S3150000854011F8013B0AB19A42F8D0D01A40B27047EE
S3150000855030B5994228BF1946002303E00833401C72
S31500008560521C9BB203F10804A14203DB0478157880
S31500008570AC42F3D08B420CDA007812785040C043FC
S315000085808024C0B201E064085B1C8B4201DA04421D
S31500008590F9D198B230BDF8B555052D0E02F0070792
S315000085A004460E462A46FFF7B7FE47B1FF20615D37
S315000085B0725DF840014022EA000008436055F1BDB3
S315000085C000210FF27802002805E000F00F03D35CCB
S315000085D05918C9B20009F8D1084670476128A8BFE2
S315000085E0572107DA4128A8BF372103DA3A28B4BF52
S315000085F030210021401AC0B270474108400021F0E6
S31500008600AA3120F0553008438108800021F0CC3192
S3150000861020F0333008430109000121F0F03120F049
S315000086200F30084370470000627974652D757469D0
S315000086306C69746965732E63000000000001010215
S3150000864001020203010202030203030410B5DFF86C
S31500008650DC4AFDF767FD6061FDF760FDA0616069BA
S31500008660E06118B100F007F8652803DABDE81040AC
S315000086709D21A3E010BD10B5DFF8B04AA069E169FD
S31500008680884202D2AF2100F0F3FBA069E169401AEB
S315000086904FF6FE71084010BDDFF8901A4A69904205
S315000086A003D3C969884200F039BD0020704700280D
S315000086B018BFFFF7F1BF0120704730B1DFF86C1A21
S315000086C04969401A4010401C80B27047010001D130
S315000086D000207047DFF8541A496901EB4000801EFC
S315000086E070474088C0F30C00C01C0004800C40009A
S315000086F0001D80B2704710B50446FFF7F2FF04EB89
S315000087004000DFF8281A4FF6FF7300E0801CCA69A4
S31500008710904202D202889A42F8D010BDDFF8101AB1
S3150000872008607047DFF8081A0FF284000860704787
S315000087302DE9F843DFF8F45980462889A0B3B8F844
S315000087400200000430D4DFF8E8490FF26401206823
S31500008750DFF8E09909F00AFF20B94FF4BA714846EC
S31500008760FBF7DEFF002701E07F1CBFB228898742A6
S3150000877004DB4FF4BB714846FBF7D2FF286A216839
S3150000878000EBC706306808B9316003E009F0EEFE79
S315000087900028E9D1B088401CB0804046FFF7A1FF11
S315000087A0F18801EB4000F080BDE8F1830000000095
S315000087B0756E636C61696D65640000000FF6843048
S315000087C0FBF7AEBF70B50446DFF860098078012874
S315000087D01AD12088FFF77AFF04002FD002252646FB
S315000087E03046FFF7A5FF708840F40040708036F8E9
S315000087F01500FFF76BFF060002D070880004EFD566
S315000088006D1C042D1ADAEAE7022817D1FEF7A0F844
S3150000881005462088FFF75AFF06000AD070888004B4
S3150000882003D540F2392100F023FB3088C0F30E0057
S3150000883020802846BDE87040FEF7C7B870BD00B579
S31500008840ADF5806DADB04FF49662694600F073F8F1
S315000088500DF5806D2DB000BD2DE9F843074688461D
S31500008860FFF73FFF45007888C0F30D00788080044D
S3150000887022D5FEF76DF804463846FFF71EFF8146FF
S315000088804046FFF71AFF0646AAB239464046FFF7AA
S3150000889043FD0020DFF8941806E001EB40029389BF
S315000088A04B4508BF9681401C0A789042F5DB20466E
S315000088B0BDE8F243FEF789B8AAB239464046BDE89C
S315000088C0F843FFF729BD10B50C4601E0FFF713FF8B
S315000088D0A04202D241880904F8D510BD70B5DFF870
S315000088E04C580446A878012804BF686A00281DD1A0
S315000088F0204609F062FE022818DB0021204609F016
S315000089006CFE0DE0012100F0A0FA78B93046FFF7C1
S31500008910DDFE0088000409D43146204609F08CFEAD
S3150000892006463000EED16C62012070BD2046FFF78E
S3150000893049FF002070BD2DE9F74FDFF8F047002012
S31500008940E080606292B0FEF703F80121A1704FF05B
S31500008950000AA188ADF802100021A180E169019109
S31500008960FEF733F82089C200206A92B20021FFF791
S3150000897035FD0DF10200FFF725FFFDF7E9FF217830
S3150000898062785518FEF721F8EDB206E004EB4600D2
S315000089900C30FFF717FF06F1010A5FFA8AF6AE42BE
S315000089A0F4DB129848B1002501E080476D1C12984F
S315000089B0EDB250F825000100F7D1D4F814904FF02D
S315000089C0000B01250DF1080A0198814502D3BBF180
S315000089D0000F37D0BBF1000F06D0ABF101005FFAF4
S315000089E080FB5AF82B8004E04846FFF784FEC84611
S315000089F08146B8F8020000F44041B1F5004FE3D1DA
S31500008A0040F48040A8F80200022638F81600FFF766
S31500008A105DFE070012D0788801040FD440F40040B0
S31500008A2078803846FFF784FEBBF1100FBDBF4AF8C9
S31500008A302B700BF101005FFA80FB0025761C042EDB
S31500008A40E3DBC1E7002DB8D0656A55B12888FFF78A
S31500008A503DFE6888000447BF002060622846FFF795
S31500008A60B1FE0020ADF800008246606A0025A0B382
S31500008A700088002100F0E9F9ADF80000002100F0BF
S31500008A80E4F90646BDF8000000F051F90546304607
S31500008A9000F04DF98246BDF8500050451ADB300013
S31500008AA018D000F044F90746304600F028F9014690
S31500008AB013983A46FFF730FC3046FFF707FE18B129
S31500008AC04188C1F30D0141800022606A314609F0F8
S31500008AD0DDFD02E00020ADF800006669B346B04651
S31500008AE00BE03088000404D5D6F80E0008B103F078
S31500008AF0ECFD3046FFF7FFFD06460198864223D27D
S31500008B003046FFF7EEFD81463046FFF7D6FDBDF84D
S31500008B100010884206D10AEB0500C01C80104000F8
S31500008B2000F1040970880004DBD55846FFF7C5FD3F
S31500008B30318801F40041084330801FFA89F00BEBBD
S31500008B40400B06EB4008D4E70220A0700DF10200AE
S31500008B50FFF738FE6846FFF735FE129860B14FF012
S31500008B60000902E0804709F1010912985FFA89F9C4
S31500008B7050F829000100F5D16769B94611E00226CF
S31500008B8039F81600FFF7A2FD20B10088C0F30E00E9
S31500008B9029F81600761C042EF2DB4846FFF7ABFDDB
S31500008BA08146C145EBD30BE00746FFF7A4FD4146DE
S31500008BB0FFF789FE4845F7D3019881452BD1374603
S31500008BC0474549D23846FFF796FD002F0646F6D0B0
S31500008BD078880004F3D500F088F8B84204D1788884
S31500008BE0C0F30D007880EAE704D201463846FFF765
S31500008BF033FEE4E7019707E03046FFF77CFD414688
S31500008C00FFF761FE37460646464504D2308800F037
S31500008C106DF88642F0D337B100F067F801001CBF4B
S31500008C203846FFF719FE0198B946C3E73846FFF7FD
S31500008C3058FD06465846FFF740FD8146720092B23F
S31500008C4039465846FFF768FB002249460DF10200F7
S31500008C5009F0CBFC0BEB460BFDF77AFE064617E058
S31500008C6021784018401EC0B204EB400000218789DD
S31500008C708181380009D0FFF729FD00F037FA00227C
S31500008C8039460DF1020009F0B0FC6078401E6070B4
S31500008C9060780100E4D10021201D09F0D7FCFFF720
S31500008CA015FD070006D1BDF80200A080C4F81CB06F
S31500008CB00020A0703046FDF788FE002FB6D1BDF823
S31500008CC0000078B10446FFF701FD07001CBF0AEB60
S31500008CD005007880204600F012F813995246284481
S31500008CE0FFF71AFB15B0BDE8F08F3888C0F30E0009
S31500008CF0ECE480B5FFF7EAFCBDE80240D7E410B526
S31500008D00040012D0FFF7F5FF18B940F2394100F020
S31500008D10AFF82046FFF7DAFC38B10188090402D51E
S31500008D20D0F80A0010BD083010BD002010BD10B5E7
S31500008D30010013D0FFF7CAFC0446FFF7B8FC18B9C8
S31500008D4040F2534100F094F844B12088000401D564
S31500008D50208910BD6088C0F30C0010BD002010BD36
S31500008D602DE9F04104460D46FFF7B0FC060040D061
S31500008D70FFF79DFC0FF2CC5718B940F2664100F0A0
S31500008D80A0F82046FFF7D3FF80463046FFF7B3FC36
S31500008D90454504462DD003DB40F26E4100F091F8C4
S31500008DA03088000448BF358123D475803046FFF7EC
S31500008DB098FC06EB4005FDF7CBFDDFF87013CA699A
S31500008DC0661B944204BFCD610026FDF7FEFDB6B2D8
S31500008DD0082E06DA32462846BDE8F041FF21FFF7A5
S31500008DE0FDBA082200212846FFF7F8FAA6F1080086
S31500008DF06880BDE8F081F8B507460C46FFF766FCCB
S31500008E0006463846FFF793FF051B8442ADB21BD0DA
S31500008E1003DB4FF4936100F02BF8AEB13088000409
S31500008E2006D5D6F80A0034812844C6F80A00F1BDF2
S31500008E303846FFF764FF22464119FFF76DFA2146CF
S31500008E403846BDE8F4408BE7F1BD38B50C46FFF770
S31500008E503DFC05000AD0FFF72AFC18B940F2AB41E9
S31500008E6000F006F805EB4400808832BD002032BDD4
S31500008E700FF2D040FBF754BCF8B50C461546FFF789
S31500008E8025FC06000FF2BC4714D0FFF710FC18B9FA
S31500008E9040F2B64100F015F82846FFF717FCFFF739
S31500008EA006FC18B940F2B74100F00BF806EB440097
S31500008EB08580F1BD3846BDE8F44040F2BA41FBF783
S31500008EC02FBC3846FBF72CBC70B504460D46002671
S31500008ED008E0FFF72CFF294686192046FFF7B5FF65
S31500008EE0B6B204462000F4D1304670BD38B5C01C79
S31500008EF08E4C80104500A06AADB218B140F2CF4149
S31500008F00FFF7B6FFA069E169411AC903B5EB114F36
S31500008F1005DA690049420844A062012032BD0020FA
S31500008F2032BD82490020886270472DE9F84F044619
S31500008F30E01C80107D4D40000027001DAE690FF239
S31500008F40044AB4F5005F88461FFA80F904DB40F254
S31500008F50E6415046FBF7E4FBFDF7FAFC8346E86979
S31500008F60A96A09B9301A03E05FEA080202D0081AB2
S31500008F70461008E0701A4610B0B220B940F20C5103
S31500008F805046FBF7CDFBB6B24E4515DBEF6907EB56
S31500008F904900E861A86A28B1B8F1000F04BF00EBE8
S31500008FA04900A86200207C80B880F880388004F1EF
S31500008FB008016889081868815846FDF706FD1FB93B
S31500008FC001211F2002F03DFB3846BDE8F24FFFF7B6
S31500008FD074BBF8B504460D46164600210A20FFF775
S31500008FE0A4FF0746FFF772FB48B10681C0F80A40A6
S31500008FF0018841F400410180C0F80E503846F2BDA8
S3150000900070B504460D4611462846FFF78EFF064604
S315000090103CB1300005D0FFF772FE2A462146FFF725
S315000090207BF9304670BDF8B504460D46164615E088
S315000090302846FFF77CFEB7B2874288BF0746284618
S31500009040FFF75DFE01463A462046FFF765F9012126
S315000090502846FFF7FAFE3C440546F61BB0B2002848
S31500009060E6D1F1BD2DE9F84381460E461446FDF7DB
S315000090706FFC2E4D8046287801002BD0401E2870AC
S31500009080C0B205EB4000A9788789F9B981813846D5
S31500009090FFF71CFB00F02AF83846FFF730FE324691
S315000090A04946FFF739F93846FFF729FE22460021DF
S315000090B03044FFF793F900223946281D09F095FA46
S315000090C04046FDF782FC0120BDE8F2836878401C2B
S315000090D06870E1E7A019012180B2FFF726FF0700BB
S315000090E0DAD14046FDF771FC0020EDE720B141885A
S315000090F04DF6FF7211404180704738B5FDF728FCE8
S31500009100044600210C4809F0A1FA05462046FDF761
S315000091105CFC284632BD05488188481E8041C00F48
S315000091207047024900208880704700007C73002049
S315000091306C5D002044930000807300202DE9F0410F
S315000091400446884617461E464046FFF7D8FDC51911
S315000091504046FFF7ECFDB919884203DA40F2B151F7
S31500009160FFF786FE300013D00698010003D1324681
S315000091702946204604E0012832462146284603D1E6
S31500009180BDE8F041FFF7C8B8BDE8F041FFF707B901
S31500009190BDE8F08110B50C46FFF7B1FD00B1005DEA
S315000091A010BD38B50C461546FFF7A9FD00B10555AB
S315000091B031BD38B50446FFF7BAFD05462046FFF730
S315000091C09EFD2946BDE83840002219E770B50D46D8
S315000091D0691C0446C9B2FFF7DDFF06022946204690
S315000091E0FFF7D8FF301880B270BD00B583B00223F8
S315000091F08DF80420120A8DF80520012200920A46F5
S31500009200014601A8FFF79AFF07BD10B50446FFF710
S3150000921043FA10B1A4F108000CE010BD10B5FFF739
S3150000922055FA040004D0FFF75CFA04EB400001E0B5
S31500009230002010BDBDE81040FFF73FBAF8B5044660
S315000092400D46FFF743FA060016D07088C0F30C07E8
S315000092502846FFF73BFA07F00101CF19FFF741FA5D
S3150000926007EB40072046FFF7D9FFA84203D040F29C
S315000092706E61FFF7FDFD7780F1BD2DE9F0410C46EB
S31500009280FFF724FA05002DD06888C0F30C0606F017
S3150000929001008019001B04F00101471AE01C20F0B0
S315000092A00300284400F108082846FFF700FABFB279
S315000092B008B1A64203D240F28A61FFF7D9FDB44253
S315000092C010D0092F0EDB6C80082200214046FFF7E4
S315000092D085F8A7F10800A8F802004046BDE8F0416D
S315000092E0FFF7EBB90020BDE8F08170B5044682B007
S315000092F02068FFF78AFFADF8000000B3FFF7E6F934
S3150000930005001CD000880FF23C06000404D540F28C
S31500009310A5613046FBF704FA6846FFF753FABDF835
S315000093200000FFF7D3F90546FFF7C1F920B940F26F
S31500009330AB613046FBF7F4F905F10800206073BD18
S31500009340000000006275666665722D6D616E61676C
S31500009350656D656E742E6300012100F01F02914059
S31500009360DFF85C2605E0012100F01F029140DFF8DE
S315000093705426400942F820107047012100F01F02D0
S315000093809140DFF84426F4E710B5DFF8404630B1E7
S31500009390012807D0102802D0202803D004E000209E
S315000093A0204410BD1C20FBE74FF4BD71DFF82006FA
S315000093B0FBF7B6F9204610BD70B5012884B0044607
S315000093C004D9B0F1100101D010393BD1012818BFE2
S315000093D0202832D1FFF7D8FF0546FDF7B9FA064631
S315000093E0A86901AB6A4602A90AF0EFF900992A8931
S315000093F0286889B200F027F83046FDF7E6FAA86932
S315000094000AF05BFA012818D1296828898988401A48
S31500009410298A884211DBA86990F83110022903D104
S315000094200AF0D1F9022804DAA86990F83100012877
S3150000943003D1A86900210AF018FA200014BF102CE5
S31500009440FEF7BAFD7FBD70B500F0B5FAFDF780FAFC
S31500009450E188A9420CD22288521A521992FBF6F3DD
S3150000946006FB13222280A288AA18511AA180E58041
S3150000947000F012BB70B505460E46FFF785FF012DBD
S3150000948018BF202D044640D1A069016890F832002B
S31500009490E8B90420886400F04CF9A0690068C16C42
S315000094A0002E07D041F00401C1640B20FFF754FFE2
S315000094B0052106E021F00401C1640B20FFF753FFEC
S315000094C00021A0690068BDE870400AF06EBB042068
S315000094D0486300F02EF9A0690068816B002E07D062
S315000094E041F0040181630B20FFF736FF052106E0FA
S315000094F021F0040181630B20FFF735FF0021A069ED
S315000095000068BDE870400AF002BC70BDF8B50446BC
S31500009510DFF8C00481421D4634D0002600F0ABF8C7
S315000095202DD13A893868A9B2FFF78DFF3968002036
S31500009530C88002E0384600F026F820460AF043F9D3
S3150000954003281CDA788AF989484339688A88002A08
S3150000955080B2EFD00B88B7F80EC0498884446145C5
S31500009560B8BF984207DB8B42E4D2FA89821891424F
S31500009570A8BF9842DEDA012120460AF076F9761C69
S31500009580022ECBDBF1BD38B50446DFF84C34E0895A
S31500009590658A216802466843084400F10801A0690B
S315000095A00AF027FAA0690AF00EF9022803DBA0697F
S315000095B000210AF05AF9608AA18A401C90FBF1F258
S315000095C001FB1200608231BDFEB50446207B68BBFC
S315000095D060680FF25D074188084400F10805A0693C
S315000095E06B4601AA02A90AF010F960688188009A00
S315000095F0891A019A8E1A4188008888420ED260899B
S31500009600421AA0693B4629460AF03BFA70B96068DF
S3150000961061894288711A561800F10805A0693B460F
S31500009620F2B229460AF02DFA00B96073F7BD0000C0
S315000096302DE9F04104469846002600F01CF815D1A5
S3150000964078688188414534BF85884546FDF780F9AD
S3150000965079687A894988ADB2691800F057F87A684E
S31500009660518079688A88521B00F090F8761C022E89
S31500009670E3DBBDE8F0811C21DFF8500311FB06F1A6
S315000096804718B869A042704738B50D46FFF77CFE0B
S31500009690112D044609D1A06900210AF0F7F800202F
S315000096A020732046BDE832408EE7132D06D1A0690F
S315000096B001210AF0EBF80120207331BD20680188F2
S315000096C00844057220680188228900F01EF801808E
S315000096D08188491C8180A0690AF0EFF822682189F7
S315000096E09288891A89B220B9E2898A42A8BF0121E3
S315000096F005DA012808D1208A814205DB0021A0690C
S31500009700BDE834400AF0B1B831BD491C91FBF2F313
S3150000971002FB1311704780B5DFF8C0020169090624
S3150000972006D50AF0E1FABDE8044001460120ABE7A0
S3150000973001BD0B2021E6F8B50C461546FFF724FEC1
S315000097400646EAB2306880883189891A884201DB88
S315000097500120F2BD00270DE0FDF7FAF831680B880D
S3150000976014F8012B19447F1C0A7231680A88338960
S3150000977000F004F8AF42EFD30020F2BD521C92FB7A
S31500009780F3FC03FB1C220A808A88521C8A80FDF7A0
S315000097901CB9F8B5012804460D4603D9103801D086
S315000097A010384FD1204600F07EF910B9204600F05F
S315000097B081F800F0ABF8064600F0A8F821000ED0BC
S315000097C0012C03D0102C0AD0202C3BD1DFF810122C
S315000097D00160DFF8101241608021018108E0DFF8A6
S315000097E008120160DFF804124160402101818021E6
S315000097F04181200018BF102C03D1BDE8F140FEF7CF
S3150000980011BB012C18BF202C52D1012C16BF202CC5
S31500009810DFF8DC010020012C18BF202CB06111D12B
S31500009820DFF8D001A98CA861DFF8CC01E861F181ED
S31500009830EA8C32828A4207D21C21304604F0F8F9BB
S315000098400220F2BD0120F2BDB06990F83130012B43
S315000098500CD0338993FBF1F701FB1733002B02BFC2
S3150000986092FBF1F301FB13210029E5D1294609F00A
S31500009870E5FDF0B9B069017F007E0123022208F000
S315000098802DFD287C012808D101212046FFF7F2FD95
S31500009890B069002109F0E9FF0AE000207082F18931
S315000098A0308990FBF1F0B08200F0FAF800F0F8F899
S315000098B00020F2BD58B50128044603D9103801D05E
S315000098C0103812D1204600F0EEF8E8B9204600F034
S315000098D0C4F800F01BF8012C18BF202C06460FD147
S315000098E0B06909F072FE10B152BD012052BDB069D7
S315000098F090F83100012803D100212046FFF7BAFD78
S315000099001C21304604F094F9002052BD20463BE568
S31500009910F8B5064601280F46344603D9103801D05B
S3150000992010380BD13046FFF72FFD05463046FFF7BE
S3150000993043FD2868808818B92620F2BD0120F2BDB3
S31500009940FDF706F80646286841880844007A38700C
S31500009950286841882A89FFF7D8FE41808188491EF8
S31500009960012C18BF202C81801FD1A86990F83100E6
S31500009970012803D119E02846FFF705FEA86909F07A
S3150000998022FF022811DA2A68E889698A5388128830
S31500009990414389B240188342B8BF914205DB9A42DF
S315000099A0E9D28342A8BF9142E5DA3046FDF70DF8C9
S315000099B00020F2BD012804460D46164670470000F9
S315000099C000E100E080E100E080E200E0C863002002
S315000099D098860300097000F00D9500000000014014
S315000099E0B862002040630020E86100203062002059
S315000099F000640020DC5900205C5A002038B505467A
S31500009A00012D04D9B5F1100101D0103923D1FFF78A
S31500009A10BBFC0446280018BF102D03D1606880885F
S31500009A200028FBD1012D18BF202D12D16068808837
S31500009A300028FBD1A06909F0E4FE0028F6D1A06950
S31500009A4009F098FE8006F1D5A06909F093FE80041E
S31500009A50ECD5002032BD012032BD70B50546FFF7BA
S31500009A6093FC0646012D346818BF202D0DD1B06930
S31500009A7090F83110012908D0022109F0EBFD0020F1
S31500009A80708200F00DF800F00BF8FCF761FF002182
S31500009A90A18021806180E180BDE87040FCF795BF20
S31500009AA03046FFF770BD80B5012804D9B0F110012A
S31500009AB001D0103906D1FFF767FC00281CBF0068EB
S31500009AC0002801D1012002BD002002BD0D48016819
S31500009AD021F480310160016F490849000167704730
S31500009AE010B5FCF735FF0446FFF7F0FF064800F017
S31500009AF00DF8044805210167016841F480310160D1
S31500009B00204624E024ED00E02C5B002038B5044616
S31500009B10052520460AF03CF910346D1EF9D1BDE842
S31500009B2031400AF05DB980B5FFF7D0FFBDE80140CE
S31500009B300AF056B910B50446FCF70AFF004901E0E1
S31500009B402C5B0020620952014A6000220A70BDE8BF
S31500009B501040FCF73ABF0000DFF8A4190422096898
S31500009B60C00002FA00F0084018BF0120C0B27047DA
S31500009B700422C900002814BFDFF86809DFF8840949
S31500009B8002FA01F10160704701207047704748B141
S31500009B90DFF878296FF0FF011160000ADFF870190D
S31500009BA00002086070472DE9F04304460D469046D2
S31500009BB0DFF86009DFF86079D0F80090DFF85C091B
S31500009BC0042104EA000205EA01030020834208BFDB
S31500009BD0824283B009F10C064DD0DFF844090068D3
S31500009BE0210348BF7862E10248BFB862E0000BD5A6
S31500009BF0DFF83019086800F07F40B0F1007F03D12C
S31500009C00DFF824190220086014F0C05F04D0B86998
S31500009C10FFF7BDFF0020B861E0071FD500F05BF934
S31500009C20002200F047FB01200AF079FAF0800021BB
S31500009C300120FCF7A2FC7978002914BFDFF8EC18A4
S31500009C40DFF8601A4FF4001008607869FFF79FFF8D
S31500009C5000207861307840F00800307005F0040389
S31500009C6000218B4207D001213046FCF701FB25F08D
S31500009C70040504430D43D6E9120104400D400020BB
S31500009C80854208BF84420CD0B96822462B46484616
S31500009C9088474FF0FF307862B862200744BF002043
S31500009CA038625FEAC8700BD5F9680020F8600120B9
S31500009CB03870080004D0386903B0BDE8F04308479F
S31500009CC0BDE8F78370B508B9012070BDDFF86028DC
S31500009CD0DFF8604851681268402303FA02F22368ED
S31500009CE0DFF8644A2468C4F38114521E032C01F180
S31500009CF0005192B29BB20BD10025EE18083E1640D9
S31500009D008E5D46556D1C082DF7DB0472002070BD74
S31500009D10022C0AD19D1E15405B1E4D5D05801A4022
S31500009D20895C45EA01210180EFE7022070BD80B51C
S31500009D3009B9012002BD0B7BDFF8DC27002B14BF1D
S31500009D40936A536A13F1010F01D1022002BD0A463C
S31500009D50194628300AF0ECFB002002BD10B5044677
S31500009D601120FDF783FD042801D0022010BD2046F6
S31500009D700AF005FE204600F0D2FFDFF8101A602038
S31500009D800860002010BD2DE9F04104460FF27C006A
S31500009D9084B004F10C080068029008F10807002658
S31500009DA0BE67C7E91066BE85FE856420388678865C
S31500009DB0B886F886388778870D464FF6FF70388064
S31500009DC04046FFF7E1FEC0B14046FFF7C7FF060079
S31500009DD013D102A9404600F02FFD0646BA6F4FF098
S31500009DE0FF31404600F0BEFA00F075F84FF0C05261
S31500009DF00423104604210AF01AFD28001CBF204641
S31500009E00A847304604B0BDE8F0810000000000001D
S31500009E1098B50446207881072ED5616A61B300F0B3
S31500009E20FD012170606A4069006810F1010F03D0DE
S31500009E30BDE892400BF0FDBAD4E9122303F0040307
S31500009E400027BB4203D141F00200207091BD4FF4C0
S31500009E5080312046FCF70CFAD4E9122302400B406D
S31500009E6008BFBA4208D0A4F10C0001B0DFF8A8166A
S31500009E708968BDE89040084791BD2DE9DC4304465A
S31500009E80DDE90867D4E912019043994306EA02081E
S31500009E9007EA030940EA080041EA0901C4E9120198
S31500009EA022F0010823F0000900F092FD80B100F0D5
S31500009EB012F807EA090106EA080040F0C05241F02C
S31500009EC00403404649460AF0B2FC2046FFF7A0FFCD
S31500009ED00020BDE8D68300200190009070470068FE
S31500009EE00100DFF8341608BFDFF81C0988607047E8
S31500009EF02DE9F0415FEA010886B0044615461E4684
S31500009F001AD0280018BF002C16D000F09FFFDFF8EB
S31500009F100876396A8C4206D17988BF88ADF8001078
S31500009F2000F091FF1DE000F08EFF6A4601A9204671
S31500009F300BF0ACFF040001D100201FE09DF80400E7
S31500009F40002818BF08280AD000F080FF3C62BDF840
S31500009F5000107980BDF80610B98000F074FFBDF8D6
S31500009F600670A8198742BDF80000B8BFBD1B83194B
S31500009F709BB2AAB2414601200BF011FE06B0BDE825
S31500009F80F08110B500F048FE70B1F020044201D017
S31500009F90012010BDDFF854090168090904F00F0219
S31500009FA042EA01110160002010BD000010B5002436
S31500009FB00021002203280FD8DFE800F003020F1269
S31500009FC0012420460AF062FD34B1DFF84C45A06951
S31500009FD0FFF7DDFD0020A06110BD01240121F0E79F
S31500009FE0012401210122ECE7DFF81C05006800F0DE
S31500009FF07060B0F1807F18BFB0F1007F19D0B0F16A
S3150000A000407F18D0B0F1806F1CBFB0F1A06FB0F1E7
S3150000A010E06F0ED0B0F1006F17D0B0F1106F0CD01A
S3150000A020B0F1206F1CBFB0F1306FB0F1406F0CD0B3
S3150000A03005E0022070470320704705207047DFF8CF
S3150000A040B008006810F0060F01D004207047012008
S3150000A0507047DFF87009006800F0A000401E8041DC
S3150000A060C00F704710B5044600F0D0FB204602F042
S3150000A07081FC78B1204600F020FB58B10321002076
S3150000A0800BF0D2FD10F1010F01D1032010BDDFF856
S3150000A09038190860002010BD10B5FFF7E3FF040073
S3150000A0A008BF0AF0BCFC204610BD70B584B0BAB338
S3150000A0B01378002B04BF5378002B31D070CA6B463F
S3150000A0C070C312F80C3D1C000FD09588BDF80640F1
S3150000A0D06B431B19ADF8063014789DF801301B1B35
S3150000A0E08DF8013000238DF8003001239DF80140E2
S3150000A0F000E05B1C01259D40A542FAD392888DF8AD
S3150000A10000306E0804FB0262B2FBF5F2ADF80420E3
S3150000A1109DF800208DF801206A4600F005F801E060
S3150000A12000F002F804B070BD2DE9FE4F83461446D8
S3150000A130FFF798FF5FEA000940F0AF80DFF88C7800
S3150000A140DFF8D4633868B061002C79D094F9031035
S3150000A150E0880AF005F83868F0614FF0010AA17846
S3150000A160481E8DF8080022786078174621B98DF8C8
S3150000A17008104FF0000A00278046B84538BFB84699
S3150000A1801AB9451EAD41ED0F00E00025A0880CF080
S3150000A190FBF8DFF8CC184FF6040265B3CB6A9BB226
S3150000A1A0934208BF5B1CF3800027034601E040088A
S3150000A1B07F1C80B2B0F5807FF9D8FFB2082F05D199
S3150000A1C0FF23FF28CB6210D8401C0EE05FB10122AE
S3150000A1D0BA40FF28CA6208D89BB27A1ED34003F061
S3150000A1E00102101801E00122CA624FF4000208279A
S3150000A1F08A62B84604E0F38893421CBFCB62F280C1
S3150000A20082B232B180B2421EFF2A88BFFF220A60A4
S3150000A21001E0002008600020019053469DF80800E8
S3150000A2200090424639460BF128000CF051F825B152
S3150000A230DFF86C184FF480100860A068F06202E046
S3150000A240F069FFF7A4FCDFF86418202008600120FD
S3150000A2500CF0ABF800F0FAFD07460CF063F8F46A70
S3150000A2609CB104200CF01AF810B104200BF05FFF2B
S3150000A27020460CF089F80146012204200BF067FF06
S3150000A28000F0010090F0010903D10CF057F80AF034
S3150000A290ABFB384600F0D7FD4846BDE8FE8F38B523
S3150000A2A000F0BAFC002518B160B209F07FFF054640
S3150000A2B0284632BD0023012000210AF0B8BA80B535
S3150000A2C000200AF0CDFB002002BD012809D00BD3E7
S3150000A2D0032803D008D24FF0C05006E04FF00050DC
S3150000A2E003E04FF0605000E00020DFF8F8170A683E
S3150000A2F022F06052104308604FF400108B49DFF8DB
S3150000A300E8270860DFF80C09016821F0060141F032
S3150000A310040101604FF08051116004214161002069
S3150000A3207047DFF8C817062008600020DFF8C0175E
S3150000A33008604FF08050DFF8BC1708604FF400113A
S3150000A340DFF8600301604FF0605101600020704744
S3150000A350002819BF0220DFF8A0170220DFF89C179B
S3150000A3600860704738B50D461446FFF70DFC70B30C
S3150000A3702A07DFF88807DFF8801705D5220747BFC9
S3150000A38008220A6008220260EA0705D5E20747BFED
S3150000A3900120086001210160680708D561074CBFEC
S3150000A3A0DFF85C17DFF85C174FF400700860A80749
S3150000A3B004D5600800F00100FFF7CAFFE80606D5DD
S3150000A3C0DFF8D408E1064CBF00211B210160002004
S3150000A3D032BD2DE9FC4700260F0018BF01270229D0
S3150000A3E082461446994603D100F02FF8002024E057
S3150000A3F000F02CFD484D8046E868010018BFA042D9
S3150000A40012D10120EC6001900090C5F81090002256
S3150000A41000F02BF82E7050460BF0B6FF01463A4678
S3150000A42002200BF094FE0646404600F00CFD002E7E
S3150000A43003BF0020E86001200020BDE8F68780B554
S3150000A44002200BF040FF00F03DBC00B583B00020B9
S3150000A450019000220120009000F007F802200BF086
S3150000A46066FE2D490020C86007BD0023002000219C
S3150000A4700AF0DDB9DFF82408274900680978800A60
S3150000A48000F001000843704702200BF007BF70B5CB
S3150000A490406A0025002816461EBF4069002805466A
S3150000A4A00C46F00748BF0CF041F8F00317D52668B4
S3150000A4B016F1010F0ED1DFF88008016800291FBFD1
S3150000A4C00A68002AC8680AF0DBFE0AF050FF064652
S3150000A4D0266002E030460AF0ACFF05B12E6070BD82
S3150000A4E000000000EC10084638B5DFF850480B783D
S3150000A4F022684978C2EA034242EA016527E0000081
S3150000A500EC100840EC100844044008401870084459
S3150000A51018700846305E0020645F0020010018189D
S3150000A52090500840280F0021004008461860084651
S3150000A530301008401C0F002138B5DFF800482268AB
S3150000A5400B784978120C43EA024242EA0125FFF7EA
S3150000A5501BFB00B12560002032BD70B500F0A4F9E8
S3150000A560002628B104F1280128460BF0EFFF064625
S3150000A570304670BD70B504460D4694F86000032859
S3150000A58001D1022070BD261D316A357081B1204689
S3150000A590FBF7FDFF40B930622046FCF7EAF80146BA
S3150000A5A02046FCF710F803E0E9B2204600F002F876
S3150000A5B0002070BD10B50C4690F86010032901D13B
S3150000A5C0022010BDFFF7E0FA10B1E0B20CF072F80D
S3150000A5D0002010BD80B508460CF00DF8002002BD25
S3150000A5E00CF011B880B50CF056FBBDE801400CF03C
S3150000A5F0E7BA80B50CF0C4FABDE801400CF009BB1F
S3150000A60080B50CF0BDFABDE801400CF025BB2DE984
S3150000A610F04104460F466069012815461E463DD0A6
S3150000A62000F0D6F9002839D0FFF7DEFC012803D068
S3150000A63001210120FBF7A1FFA889D5F804803F1A64
S3150000A640BFB2402F06D3A968B809484308EB801863
S3150000A65007F03F070CF05EFB404507D10CF05DFBB1
S3150000A660A968884204BFF6B2002E10D0A9684046F9
S3150000A6700CF085FB08B1022011E00CF065FB002808
S3150000A68014BFDFF85C07DFF860070CF06AFC2046B1
S3150000A690FFF7BEFB0121F8B20CF0DCFB0020BDE8A1
S3150000A6A0F081000018600844C9B280B5002914BFC3
S3150000A6B020220022202100F02CBB20210AF02EBDF2
S3150000A6C058B5064688B20BF05FFE04463046FFF7E3
S3150000A6D05BFA18B1DFF8140761420160002052BD31
S3150000A6E0F8B5074600F032F8032618B300F0AEFBC3
S3150000A6F00746DFF8B813022008606A480068000EB3
S3150000A70000F00F00082818BF072803D0092818BF33
S3150000A7100C2804D1DFF8AC020068800304D4E9B247
S3150000A72020460BF0A1FA064600F029F8384600F05C
S3150000A7308AFB06E0EAB2214607F19000FBF78AFEA3
S3150000A74000263046F2BD00008C4008400C461546F7
S3150000A750FFF71ABAC9B2002914BF0822002208213D
S3150000A7600AF0BEBCC9B2002914BF4FF480720022A1
S3150000A7704FF480710AF0B4BC08210AF0CFBCDFF8B0
S3150000A7807816022008607047000000004400084068
S3150000A79000280CBFDFF81403DFF85C064FF4807165
S3150000A7A00160704770B5DFF84846DFF8481625782F
S3150000A7B0DFF84826ED074FF4806303D505000CBF8C
S3150000A7C013600B602678B6074FF4006503D50600C4
S3150000A7D00CBF15600D602678760703D506000CBF02
S3150000A7E053604B6023781B0703D508B9556070BDCD
S3150000A7F04D6070BD002814BFDFF80403DFF80403C2
S3150000A8004FF48061016070478D9B000038B50446A7
S3150000A8100D46680800F00100FFF7C4FF05F00400CC
S3150000A820FFF7E8FF2046FFF748FF20B105F00100DB
S3150000A830BDE83240ACE731BDF8B500F035F870B38D
S3150000A840A878E978884201D00120F2BD6878010035
S3150000A85002D1FFF766FD01E0FFF737FDA878DFF8C4
S3150000A860A06540F6FF7700280EBF3760204600F04F
S3150000A870E0F8E87840B9DFF88012376360200860B6
S3150000A8804020DFF8741509E0DFF8701260200860D8
S3150000A890204600F0E7F84020DFF848150860002061
S3150000A8A0F2BD00000440084004460D46FFF76CB9AF
S3150000A8B038B50C466A460BF0E9FA050018BF002CBD
S3150000A8C010D02078010018BF08280BD000F0BEFA7F
S3150000A8D0DFF830150D62BDF800204A8062888A8054
S3150000A8E000F0B1FA284632BD00000000800F0021BA
S3150000A8F00C50084010B50C46002818BF002C84B038
S3150000A90006D0032806D2002200210BF0BFFA08B9B0
S3150000A910012055E000680090BDF800209DF8021067
S3150000A920120401F0070002D4821F022A01D302207A
S3150000A93046E007280CBF012000202073080900F01C
S3150000A94001006073C1F380102074C1F3C00060740D
S3150000A950C1F34010A07409F053FB0246C0B238B3ED
S3150000A960207A00B90222BDF80000831F9BB2D2B242
S3150000A97001A901200BF013F901A841784900E17300
S3150000A9809DF90410A173217AC9B18178C378007941
S3150000A99041EA032141EA00409DF8091040EA0161BD
S3150000A9A0DFF8640400682246343009F085FD06E0CD
S3150000A9B0E0736FF07F00A0730020206020720020FB
S3150000A9C004B010BD88400840200F002118700840D0
S3150000A9D02046FFF7D9B8F8B50C469BB200F023F82D
S3150000A9E006DAB3FA83F1D1F1190148BF002507D47D
S3150000A9F000F019F8BABFB3FA83F1C1F119050625BB
S3150000AA000121AB1D01FA03F6B7B291B28F4288BF9E
S3150000AA100F46FFF7B9F820B1EAB2394620460BF0E7
S3150000AA204CF8B0B2F2BDB3FA83F1C1F119010629AF
S3150000AA30704780B5FFF7A8F880B10020FFF78CF8C3
S3150000AA40DFF8C823012111604FF40051DFF8C0235D
S3150000AA50116018B1BDE80440002123E001BD0000EB
S3150000AA602C50084010B5FFF78FF8B8B10120FFF75A
S3150000AA7073F8044601210020FFF77AF8DFF8841303
S3150000AA80002008620AF0BCFADFF888134FF4005081
S3150000AA9008601CB1BDE81040012103E010BD0000B4
S3150000AAA04C5008460120FFF763B80000884008466E
S3150000AAB010B50CB214F1010F01D1012010BDFFF742
S3150000AAC063F870B143F6FF70844206DA14F5804FDE
S3150000AAD0B4BF4FF48040C4F30E00DFF8441308609F
S3150000AAE0002010BD186008409440084670000844D5
S3150000AAF08400084094400844440008464400084442
S3150000AB001C6008461C6008442DE9F84F054600F015
S3150000AB1083F8002608B9BDE8F28FDFF81CB2DFF82B
S3150000AB200473DBF80080D7F80090D7F804A021461C
S3150000AB3005F1280009F002FADBF800403868796868
S3150000AB40DFF8AC2248450ED01378870A03F0FE03DF
S3150000AB5007F001073B43C00A03F0FD0300F00100C4
S3150000AB6043EA4000107051450FD010788B0A00F070
S3150000AB70FB0003F0010340EA8300C90A00F0F70076
S3150000AB8001F0010140EAC10010704FF6FF712889FB
S3150000AB90884205D05268100002D02989284690477D
S3150000ABA0444532D00021002C1EBF20680028A16831
S3150000ABB0284600F034F8002C1CBF2068002801D07D
S3150000ABC0206920B9B04600270024002104E0D0F80F
S3150000ABD008800768C489416805F1280009F021FC4E
S3150000ABE0060007D14246394605F1280009F015FC52
S3150000ABF0060001D030468EE7214605F1280009F00F
S3150000AC0085FB05F1280009F004FC287840F00200D5
S3150000AC102870EFE7700008400C46FEF7B5BF70B528
S3150000AC200E0082B00546DFF800420AD10022072155
S3150000AC300AF056FA00F034F858B30020C4E90000D0
S3150000AC4073BDFEF7A1FFF8B1DFF8CC11072008604D
S3150000AC500121307920707079009068460CF0ECF98B
S3150000AC600099C14000F00F0040EA01106070B07911
S3150000AC70A070F079E0703168DFF8B00101603079DA
S3150000AC80DFF89811401C08600722072128460AF0C1
S3150000AC9027FA73BD000000004C0008405C500840D5
S3150000ACA02846FEF771BF10B5FFF7B6FF20B1E0B238
S3150000ACB0BDE8104009F033BADFF8740110BD80B565
S3150000ACC00BF0FEFABDE8044000210BF049BB70B55D
S3150000ACD005460C4600F023F8CCB1A078092801D32C
S3150000ACE0012070BDE1780929FAD200F00F0040EA90
S3150000ACF00116FFF7D5FF50B1DFF838016168016032
S3150000AD00DFF834012178017061784170C670002047
S3150000AD1070BD0AF0E5F900B10120C0B202BD80B5F0
S3150000AD20FEF732FF30B1BDE804404821DFF80401E8
S3150000AD3002F07EBF01BD0000F00F0021280F0021A8
S3150000AD40F8B5D2B2022A3CBFDBB2042B01D30120F4
S3150000AD50F2BD5408394D01272E5D03EB8202C9B2BC
S3150000AD6007FA02F2002914BF16439643FEF70CFFBA
S3150000AD7000B12E550020F2BD0CF072B938B50D4663
S3150000AD800446298804F1380009F0AAFA288004F15B
S3150000AD904000698809F0A4FA688004F13E00A98899
S3150000ADA009F09EFAA88004F13C00E98809F098FAB7
S3150000ADB0E88004F12800298909F0A0FA288104F125
S3150000ADC02800698909F0A2FA6881FFF701FE18B127
S3150000ADD004F1280009F01DFB002032BD0CF01BBA5F
S3150000ADE0C0CF6A0088400846E0673500240F00217E
S3150000ADF064780020A000084488400844A000084663
S3150000AE0024100840645F0020305E002028100840AF
S3150000AE10241008445410084404000844180008404C
S3150000AE2040300840A0000840740F0021780F002130
S3150000AE3000FEFFFF2C0F0021700F0021720F002172
S3150000AE40C9B2FFF730BF00B962B67047EFF31080A2
S3150000AE5072B67047F8B50F46144647F6FF718C4236
S3150000AE6001D1FF20F2BD2D4E716800291CBFB168CB
S3150000AE70002901D0F16811B92A21FAF73FFD3846B9
S3150000AE800CF00EFA012F01460BD10622F16831F9BA
S3150000AE9012108C4203DA521E12B2002AF6D1501C4E
S3150000AEA039E0B1F90000A042B8BF044603DB1C48F4
S3150000AEB08442B8BF0446A4F1C800282290FBF2F0F1
S3150000AEC042423078034612B25D1E9542BCBF421E16
S3150000AED012B24D6805EBC2004668B0F9020010FBDD
S3150000AEE0046000284FBF002000F5FA704FF47A7610
S3150000AEF0B0FBF6F0521C12B29A4203DA35F8326011
S3150000AF008642E6D205EBC20131F8081C814238BF01
S3150000AF10084600B90120C0B2F2BD00BF5C71002036
S3150000AF20C880FFFFD0B5274E0F46716800291CBFA9
S3150000AF30B1680029144601D0F16811B92A21FAF73F
S3150000AF40DDFC012F0BD1082CA8BF072401DA200055
S3150000AF5000D0641EF068E4B230F91400D0BD2000C1
S3150000AF6001D11948D0BD38460CF09AF9022C416837
S3150000AF7002DAB0F90200D0BD002F0CBFFC22F82285
S3150000AF80944202DBB0F90000D0BD3078401EC0B25A
S3150000AF90002200E0521C824201EBC20302DA1E8943
S3150000AFA0A642F7D24FF47A715A68B3F9020011FB40
S3150000AFB004F1891A00EBD07201EB620191FBF0F00B
S3150000AFC000B2D0BD5C7100200CFEFFFF28B903481B
S3150000AFD0016003480068FAF791BC7047945F00204F
S3150000AFE0305E0020012100F01F029140514A4009C5
S3150000AFF042F82010704730B54F48504D0FC887B003
S3150000B00003AC84E80F0068460021002200230EC02E
S3150000B01002208DF80600012149484A4CFCF738FB0E
S3150000B0204FF6FF70E0616A46002120460CF09AF95F
S3150000B03000208DF80E0003A920460CF047F942487F
S3150000B040FCF756FB9DF80E1001228A40491C8DF82C
S3150000B0500E10B0FBF2F0C9B20B29286002D23B49B0
S3150000B0608842E8D23A48FCF743FB3A492A68B1FBE2
S3150000B070F0F339480021E3FB0201384A00230CF0C3
S3150000B080A7F937490860002036490870A06920F002
S3150000B0901000A0610A20FFF7A5FF33494FF4806036
S3150000B0A0086007B0002030BD38B500F01BF8044634
S3150000B0B00D4605E04FF6E85000F02AF800F00CF8CF
S3150000B0C000218D424FF6E950F4D88442F2D2A0B264
S3150000B0D000F01EF8002032BD24484FF0FF3124183E
S3150000B0E04D41704715491C4A09680023E0FB0123BE
S3150000B0F010461946194A00230CF06AB91C48016823
S3150000B100C90604D5102181600120164908707047D0
S3150000B110010081B00BD017490A6892B20B68ADF8EE
S3150000B1200030BDF800309B1A9BB28342F6D301B0C3
S3150000B1307047000080E200E004A003001C700020BD
S3150000B14000020400008001404041050081841E0089
S3150000B1505000020000B0710B20A1070040420F0012
S3150000B16020700020317C002000E100E01802FFFF83
S3150000B1700C8001402480014010B5324C0120207023
S3150000B18082B0002006F036FF38B1002006F032FF0C
S3150000B19018B100202070492016BD02237F2200210D
S3150000B1A0684600F012F8BDF80000B0F57F7F0AD0BF
S3150000B1B0012006F01FFF002006F01CFF18B100203A
S3150000B1C020704A2016BD002016BD10B5FF2907DCE9
S3150000B1D01C4C247844B1BDE81040C9B206F0BEBB91
S3150000B1E0BDE81040FBF7C8BE10BD2DE9F04104468E
S3150000B1F0FF2C0D461646984615DC12480078C0B15D
S3150000B200124F387820B14FF4CE710F48F9F788FA0B
S3150000B2100120387043462A463146E0B206F00CFD5E
S3150000B2200020387005E042463146BDE8F041FBF7A4
S3150000B230C5BEBDE8F08103490978002918BF06F0AC
S3150000B240FCBD70472E7C0020E09F03002F7C002071
S3150000B250012100F01F029140DFF84023400942F827
S3150000B2602010704770B50546FBF772FB00260024D8
S3150000B2702821DFF82C2301FB06F313449B7F13B12F
S3150000B280761C042EF7DB042E08BFDFF8184308D01F
S3150000B2902DB17143114401238B772E6001E0DFF855
S3150000B2A00843FBF792FB204670BD10B50446042CFC
S3150000B2B000D373E0FBF74CFB2822DFF8E41262436D
S3150000B2C0114400220A778A776BE010B5DFF8DC02BA
S3150000B2D0017809B1002010BD01210170DFF8D0020C
S3150000B2E0DFF8D042FCF7D4F90321DFF8CC02FCF7F3
S3150000B2F013FB032020710121DFF8C002FCF7C8F917
S3150000B30020460CF0F4F8DFF8B812DFF8B842012056
S3150000B3100CF0D6F8E069C00AC002E06140F2FF70A6
S3150000B320A061002020601D20FFF792FFDFF8981231
S3150000B3304FF000500860A021E06940F00100E06194
S3150000B340DFF85C0202F074FCDFF88012002008705F
S3150000B350DFF87C120870DFF87C120860DFF87812DC
S3150000B3600860DFF87812086010BD10B50446042C9A
S3150000B37000D313E0FBF7ECFA00F009F822B9FBF76B
S3150000B38024FBDFF8640210BD00220A7709E02822B8
S3150000B390DFF80C12624311448A7F7047DFF84402DB
S3150000B3A010BDFBF712FB002010BD70B58A4E0023BE
S3150000B3B034688448026830688442F9D1981844EBAE
S3150000B3C0030170BD30B54FF4FA5200F004F8C00B1B
S3150000B3D040EA414030BDA2FB004502FB015514F591
S3150000B3E0804045F1000170472DE9F047FBF7B0FAC0
S3150000B3F0744D8246E869296900EA010626F00500CF
S3150000B400A86170071ED5714FDFF8C481DFF8DC91A3
S3150000B410012038702C6800F022F8201A00F026F877
S3150000B42000F078F8204600F085F82C68E86C98F86B
S3150000B430001029B1D9F80010401A611A8842EAD3DF
S3150000B44000203870F00705D50120A8616248016820
S3150000B450491C01605046BDE8F047FBF7B6BAE869FB
S3150000B46020F00400E861D9F8000070472DE9F043A8
S3150000B4700026044600252821494871434718387F8D
S3150000B4807D77002841D0D7E900018D4207D828BF33
S3150000B490844204D2001BA941C7E9000135E0F87FC8
S3150000B4A008B938772DE0D7E90001D7E90223201A39
S3150000B4B0D7E9028965EB01010BF08AFFB8EB0200C0
S3150000B4C069EB0301C7E90001386939690128786920
S3150000B4D009DB0818F428786113D3D7E90001401C6A
S3150000B4E061F1FF3108E0401AF428786109D3D7E901
S3150000B4F00001401E61F10001C7E900017869F438D6
S3150000B5007861B86908B101207877761C042EB2DB21
S3150000B510BDE8F08310B50024282121486143421874
S3150000B520507F18B1116A926920469047641C042C1A
S3150000B530F2DB10BDF0B54FF0FF3213460021184C78
S3150000B54028254D436619367F46B12544D5E900675F
S3150000B5509F4203D82EBF964232463B46491C0429D9
S3150000B560EEDB00214FF0FF34A34208BFA24212D007
S3150000B5708B426FF0640401D8A24200D322461B49D5
S3150000B580174B086004211960101858630121586888
S3150000B59040F0040058600E480170F0BD80E200E003
S3150000B5A0A8600020011000F0041000F0247C0020A8
S3150000B5B0000508007C5B00200500200080091200C1
S3150000B5C0885B00200820044000E100E0227C002087
S3150000B5D0237C0020446C0020486C00204C6C00202A
S3150000B5E020200440021000F0031000F0406C002000
S3150000B5F080B53249C86020B10120087000F008F813
S3150000B60001E0087008710020BDE802400CF056BC4D
S3150000B61010B52A4C207838B102F0E1F9E168201D16
S3150000B620BDE810400CF046BF10BD10B504460FF241
S3150000B63094010020FCF768FE2046BDE810400DF09E
S3150000B6401DB82F280ADA1E4A32F81030C918B1F58B
S3150000B650803F28BF4FF6FF7122F81010704710B5D3
S3150000B66004462F2C04DBF5210FF26400F9F758F895
S3150000B670134830F8140010BD2F2803DA104A0021B1
S3150000B68022F81010704738B50146FF290C4C09D135
S3150000B690002534F81510E8B20CF020FB6D1C2F2D98
S3150000B6A0F7DB31BD34F81110BDE834400CF016BBA1
S3150000B6B05E2200210248FCF791BE0000E4740020DF
S3150000B6C0F474002049434D502052583A200000009F
S3150000B6D06E63702D6576656E74732E6300000000D0
S3150000B6E010B5DFF8804304F10800FDF76BF804F1AC
S3150000B6F00A00FDF767F804F10C00FDF763F8BDE8F2
S3150000B7001040DFF86403FDF75DB810B5DFF8542389
S3150000B710DFF8583314781B78234306D1DFF850330B
S3150000B7201B780C2B03D0022906D0002010BD01295E
S3150000B73008BF02F10C0301D002F10A030146002200
S3150000B740184606F052FF0DF055F8012010BDDFF83F
S3150000B7501403417919B9012141710DF04BB87047B5
S3150000B760DFF80803007800B1704710B50DF0FEF958
S3150000B770DFF8F042208128B9002104F10A0006F022
S3150000B78065FF2081208928B9002104F10C0006F00C
S3150000B7905DFF20812089002804BF207800280ED173
S3150000B7A06079022803D00DF018FC208138B9607941
S3150000B7B028B10DF0B8FD208108B10020607110BDE0
S3150000B7C0A8488079704780B5A0F10B01102901D3F4
S3150000B7D0002002BDA3498871042000F02AF8012048
S3150000B7E002BD00009F480178491E0022032902700D
S3150000B7F000D9704780B5DFE801F002060A0EBDE801
S3150000B80001400DF07DBEBDE801400DF0CBBEBDE8A8
S3150000B810014001F030BF8079F9F75FF920B1F421DA
S3150000B8200FF26820F8F77CFFBDE801400CF0E2BF9C
S3150000B83001BD38B504460DF06DFA8A4D687940B100
S3150000B8400020687101F04AFD032804BF40200CF077
S3150000B8501FFB287808B1002032BD864800780528ED
S3150000B86008BF0DF068F82C7000F007F818B1FFF764
S3150000B870B9FF012032BD022032BD38B5FBF768F8AA
S3150000B8800446784D05F10A0006F092FEA0B105F1D6
S3150000B8900C0006F08DFE78B1764869790078084389
S3150000B8A00AD10DF0B3F838B973480EF057F800F026
S3150000B8B0010080F0010500E000252046FBF785F831
S3150000B8C0284632BD10B56B49664C002008702081B1
S3150000B8D020706081A081FDF724FC0EF0C9F960702C
S3150000B8E00EF0C6F9A07064480EF02CF963480EF00D
S3150000B8F029F94FF4A05162480CF0DCFD002060717C
S3150000B900BDE810400DF089B82DE9F04104465D48C8
S3150000B910544E0578308928B940F28F110FF26C1019
S3150000B920F8F7FEFE281FDFF85081524F0ED0801E1A
S3150000B930012814D805203870214628460DF095FFB9
S3150000B94008B900F018F8002030810BE0312C05D042
S3150000B9503878022803D1200001D10120F07034711B
S3150000B96000F009F8042D04D07079012804BF0220E4
S3150000B9707071BDE8F08103203870002140460EF05A
S3150000B98091B838B5374D297904460DF048F928B9EC
S3150000B99029792046BDE8344005F07BBB31BD2DE951
S3150000B9A0F8430446FDF7ABF9471D05212046FDF790
S3150000B9B00DFC054638460EF06DF905F44C483E5C24
S3150000B9C0280701D5042E4AD12F4806704FF440604F
S3150000B9D005424FF6FF7906D0F81CFCF719FD4845DD
S3150000B9E008BF48F0400805F44060B0F5006F06D186
S3150000B9F0781DFCF70DFD484508BF48F01008012EDC
S3150000BA004CF6500015D0022E16D0032E0ED0042E62
S3150000BA1008D0062E21D0072E08D0082E15D07C2E51
S3150000BA200ED01CE020460DF05DF8C0B90020BDE840
S3150000BA30F283B8F5484FF9D0B8F54C4F0FD1F5E77A
S3150000BA40B8F54C4FF2D08045F8E74CF640408045BB
S3150000BA5005D1074800780728F0E78045E6D00120A1
S3150000BA60E5E70000607B00209C77002056610020FF
S3150000BA70145E0020467C0020B85E0020185E002080
S3150000BA80C4770020F55F0020457C00206D61632DA2
S3150000BA90617262697465722E6300000010B53F4AD8
S3150000BAA0014652F821301C0005D0002442F82140FE
S3150000BAB0BDE81040184710BD0020EFE72DE9F84318
S3150000BAC004460E463000154603D10EF007F9281835
S3150000BAD031E02746022F0FF2D40802DB4B2100F09B
S3150000BAE050F8DFF8B89059F8270010B14C2100F053
S3150000BAF048F8B5F1004F02D34D2100F042F849F85D
S3150000BB002760200002D0502100F03BF8244E254B40
S3150000BB10306801222946FAF750FB38B10EF0DEF8FC
S3150000BB2005462046FFF7BAFF681E04E03068BDE808
S3150000BB30F243FAF74DBBBDE8F2832DE9F041054625
S3150000BB402F46022F0E460FF2640802DB5D2100F03D
S3150000BB5018F8FAF7FDFE0446104850F82710B142CF
S3150000BB600AD1002140F8271015B1642100F009F828
S3150000BB700B480068FAF730FB2046BDE8F041FAF7BB
S3150000BB8024BF4046F8F7CCBD0CF0C2BE010008BF8A
S3150000BB90012002010449002090E700006C78002093
S3150000BBA068610020B9BA000089BB000073796D6234
S3150000BBB06F6C2D74696D65722E63000000207047EE
S3150000BBC000B1022070470120704700000B494A6807
S3150000BBD00B68920002F03C02C3F381131A43827091
S3150000BBE00A6802F03F0242708A68C96802F0F002F1
S3150000BBF0C1F303111143017070470000E0FF0FE02D
S3150000BC0010B522480FC88AB006AC84E80F0006A813
S3150000BC1000F045FA01A81E491422FAF72BFC6946E2
S3150000BC206846FAF779FE18B1BDF80000ADF80A00CB
S3150000BC3001A8FBF70AFF00F037F8164806F0ADFA40
S3150000BC4000F032F804211120FBF766FE00220021E5
S3150000BC500320FBF73DFF03210F48FBF75DFE0321A1
S3150000BC600E48FBF759FE03210D48FBF755FE0EF073
S3150000BC7037F801A80B491422FAF7FCFB01A80BF0D0
S3150000BC807FFAF9F7DFFF00200AB010BDF894030031
S3150000BC90E494030000F0490202001A0003001C00AD
S3150000BCA00500200008950300012201210220FBF770
S3150000BCB00FBF0000012100F01F029140DFF868224B
S3150000BCC0400942F82010704700BF38B5DFF85C42E3
S3150000BCD0E068216808400CD5DFF854020068056862
S3150000BCE0290003D000F017F80021A8474FF00040C4
S3150000BCF00DE040000CD5DFF83C020068056829001D
S3150000BD0003D000F008F80121A8474FF08040A0605A
S3150000BD10BDE831404CE00021C0E90011F6E000BF6B
S3150000BD2038B5DFF81442216801290CBF012500252A
S3150000BD304128B8BF002003DB5028B4BF01200220F1
S3150000BD40DFF8F81101EBC001D1E90023DFF8F011AB
S3150000BD50C1E90023DFF8EC1101EBC001D1E90023B2
S3150000BD60DFF8E411C1E9002329001CBF4AF6E851B7
S3150000BD702160002818BF022801D002D2012000F05D
S3150000BD8028FB0DB10020206031BD7049096800EB29
S3150000BD908000A1EBE00080F30800C0B270476C4859
S3150000BDA04FF040410160416821F0404141607047D9
S3150000BDB0F0B56049624B0A68002053F8304044B140
S3150000BDC0156803EBC0041DB115792679B54200D27A
S3150000BDD02246401C0628F0DB0A6011465D480A68C8
S3150000BDE05AB10268120A1202026002680979114306
S3150000BDF00160416941F0804102E0416921F08041E2
S3150000BE004B4A514C41610021136854F8315045B1F9
S3150000BE101E6804EBC1051EB12E791F79BE4200D201
S3150000BE202B46491C0629F0DB13601A6862B10268CA
S3150000BE3022F47F4202600268197942EA0121016018
S3150000BE40416941F0004102E0416921F00041416150
S3150000BE50F0BDF8B540490120087000F053F800F035
S3150000BE604DF834493D48394B0860314908603C4833
S3150000BE700168406DC1F3074100F0FF00FF2912BFC2
S3150000BE80FF281921902001EB810200EBD2021A60F3
S3150000BE90C0000522B0FBF2F040183249086068463F
S3150000BEA0FFF794FE9DF8010001281BD14120234C89
S3150000BEB02D4D244FFFF769FF207125603920FFF7CC
S3150000BEC064FF06465020FFF760FF3E73BD60207397
S3150000BED0A5604820FFF759FF38753D6100F016F858
S3150000BEE0FFF71EFFFFF75BFF0020FFF7E3FE1F498A
S3150000BEF001200860FFF75CFF0020F2BD30211248E8
S3150000BF0001F096BE30210E4801F092BE1848154940
S3150000BF10006809680006400D052290FBF2F0081A39
S3150000BF2000F307007047000080E200E024300E4076
S3150000BF30D06F0020CC6F002008300E40F46F002038
S3150000BF40646F0020DC6F0020946F0020D46F002007
S3150000BF502C300E401C300E402B7C0020C46F00207D
S3150000BF60B081E00FD86F00201FBD000000E100E0A7
S3150000BF7020300E40890001EB401000F18440026041
S3150000BF807047890001EB401000F18440006870475B
S3150000BF9070B5DFF89C140A680378920903B104238C
S3150000BFA0447804B10224857805B10825C67800795D
S3150000BFB0012E18BF002643EA821222432A43324347
S3150000BFC01043086070BDDFF85C04DFF86824016880
S3150000BFD01288C1F3032102F12803491C02EB530224
S3150000BFE0283201EB8103B2FBF3F2521E0368072AE3
S3150000BFF034BF12064FF0E06223F0EE631A4342F4B8
S3150000C00080120260DFF83024B2F90020002A13D42F
S3150000C01092B202F1280302EB53024B08283203EBDB
S3150000C0204101B2FBF1F14268072934BF09017021D1
S3150000C03022F07002114341607047F8B50446DFF8FC
S3150000C040FC53686AC007FCD4DFF8E063306810F080
S3150000C050030704D001220D212846FFF78BFFA742D4
S3150000C06002D1DCB9002214E02FB9012C03D1DFF88C
S3150000C070B81302200870686AC007FCD430688008CC
S3150000C08044EA80003060686AC007FCD4220018BF0A
S3150000C09001222846BDE8F8400D216BE7F1BD70B5D9
S3150000C0A00446DFF8A00382B002210160006800F0B8
S3150000C0B00F00022840F08B80DFF88C03006810F137
S3150000C0C0010F13D0DFF88403416802681160C1686C
S3150000C0D082681160416902691160C16982691160F3
S3150000C0E0416A026A1160C16A806A0160E0884B2871
S3150000C0F038BF00200DD3B0F5FA7F38BF4FF080501F
S3150000C10007D340F6C411884234BF4FF000504FF0B9
S3150000C1104050DFF83C53DFF83C332969B4F90C2072
S3150000C120DFF800631940D243084340EAD270286121
S3150000C1300021306A40F0807030623046FFF721FF00
S3150000C14000B1042000F034F9706920F0C04070613D
S3150000C150306840F0060030606846FFF737FD9DF80E
S3150000C1600100012815D19DF80000032811DADFF837
S3150000C170B802017869B9A968DFF8DC2241F001014B
S3150000C180A96071691140DFF8D42211437161012160
S3150000C19001702089DFF89C120880A089DFF89812C8
S3150000C1A00880A088DFF89812088000F0CEF8A07BFF
S3150000C1B020B1012805D1DFF8A80201E0DFF8A402CA
S3150000C1C0F06060880122012100F010F808B9002013
S3150000C1D076BDA27A02B1012205212846FFF7CAFEE2
S3150000C1E06078FFF72AFF012076BD00002DE9F847A9
S3150000C1F0A0F5E163B3F5966F00F2A580B0F5E16FA7
S3150000C200DFF864524FF4966807D92C6801234FF47F
S3150000C210E169260EC4F3074A08E02C68C1460023EC
S3150000C2204FF41678C4F3072604F0FF0ADFF8F4414A
S3150000C23027683F0F07F0030700974FF0000E009F97
S3150000C24053EA0727F44614D07F1E1ED0FF3F0ED0B8
S3150000C2507F1E14D0FF3F08D07F1E0ED0FF3F02D0B6
S3150000C2607F1E08D016E0AF680AE0AF680EE06F6880
S3150000C27006E06F680AE02F6902E02F6906E0EF68C2
S3150000C2804FEA176CC7F3074E04E0EF68C7F3072CB5
S3150000C29007F0FF0EA0EB0909A6EB0A0000FB09F068
S3150000C2A0B0FBF8F05044ACEB0E0707FB09F78642EB
S3150000C2B0B7FBF8F828BF5045F04444D3C44528BF1F
S3150000C2C0F04540D35AB12269DFF8A071002B14BFA4
S3150000C2D0022600263A4042EA00203043206179B324
S3150000C2E0DFF88C010068C0B2042802DA686983B1FD
S3150000C2F00CE0A8690099032925D8DFE801F00A07B0
S3150000C3000402000E07E0C0F3074004E0C0F3072074
S3150000C31001E000F0FF00000330F4704113D1216A00
S3150000C32021F4704108432062B8F1E70FA06928BFE5
S3150000C3304FF0E708400A43EA480141EA4020A0617D
S3150000C3400120BDE8F2870020FBE710B535494B6AAE
S3150000C3500C68E4074FF0FF3203F0070312D5022BF7
S3150000C36010D3142815D3143814281FD30F220868A5
S3150000C37020F47F4040EA022040EA02300860BDE82F
S3150000C380104020E60C68E40709D4022B07D20A28DD
S3150000C39001D20322EBE70A380A2807D3E6E70C683E
S3150000C3A0E407E4D5022BE2D22828DFD20722DEE713
S3150000C3B038B504461B4D00212846FFF7E2FD686AA2
S3150000C3C0C00844EAC0006862BDE832401C480088E4
S3150000C3D0BBE710B5022100220300264BDC6A08BF2A
S3150000C3E00021012C03D14AF6E8540122DC6202281E
S3150000C3F018680CBF20F0740040F074001860986B49
S3150000C40040F0080098631C48046824F4406444EA39
S3150000C41081210160986B20F0080098630AB1002022
S3150000C420D86210BD4C300E40217C002040300E40BA
S3150000C43018300E40387B00203C7B002054300E40E4
S3150000C4403A7B002038300E401C83E00F3880E00F26
S3150000C4503C300E40FEFFFFCF000F0EF0B4C0400B85
S3150000C460372110B7774020571883E00FFD80FFFF74
S3150000C4700082E00F64310E403C400E4004480168E3
S3150000C480090C09048160014801607047B46C002002
S3150000C4901CA400400549027B0A7002684A60426893
S3150000C4A08A608068C8600020704700BF5C71002009
S3150000C4B0704700007CB500F0D5FE044600F0DCFEB7
S3150000C4C0054600F006FF8F4E0094B11C019102460E
S3150000C4D02B460FF294210020FBF708FF082306F1F4
S3150000C4E012020FF2BC210020FBF7D3FE0020FBF75F
S3150000C4F0F1FEBDE8734000F0DEBE00200EF088BB02
S3150000C50080B5FCF7B8F8BDE8084002460FF29C215A
S3150000C5100020FBF7EBBE01200EF04DBD30B5044602
S3150000C52099B02068FBF7F4FFC5B26846642101F0B4
S3150000C5307FFB2168642D31BF2A4663224819A0F18A
S3150000C54063016846FBF7E8FE616868460BF08CFC01
S3150000C55019B030BD1FB5044669466B480EF0DBFDC9
S3150000C56068460EF0BAFE20460BF02BFC1FBD38B510
S3150000C5700546664C04F1A4000FF03DF820460DF088
S3150000C580C6F90FF0F8FB00F0A2FD614800F02FFE9F
S3150000C5900FF060FC5F4803F0A4F85F481DB16978AE
S3150000C5A00170A87802E00121017000205B49087043
S3150000C5B00FF04FF804F110000FF01CF800F0CCF962
S3150000C5C0016809B1FFF7AAFFF9F755FB544D287822
S3150000C5D0FF2807D00FF0A3FB20B928780FF050FCF6
S3150000C5E0FF2028700FF0D6FB00F005FE0FF03BFC95
S3150000C5F04C480BF0A6FF0FF248200BF0A2FF204696
S3150000C6000DF00EFA002000900023474A0FF2402159
S3150000C61004F110000EF0D9FF0028D5D00FF23C121D
S3150000C62000F04DF8D0E7F0B583B00FF011FCFAF743
S3150000C630BAFA0FF057FC012300224FF4E131002033
S3150000C640F9F782FC00F081F940F2A174C440E007DA
S3150000C65008D500200FF04AFC00200FF0DBFC00207C
S3150000C6600FF096FD2C490FF2F4040120087000200B
S3150000C6702A4908702D480EF0BDFF22460FF25811C8
S3150000C6800020FBF733FE00F0F7FD054600F0EAFD5B
S3150000C690064600F01EFE074600F01BFE0246019508
S3150000C6A000963B460FF240110020FBF71FFE224684
S3150000C6B000F005F80020FFF75AFF0020FEBD0FF23C
S3150000C6C010110020FBF720BE70477047002070470E
S3150000C6D080B50FF24410FCF721F80FF037F90FF28E
S3150000C6E04410FCF71BF809480DF0C8F90FF2441086
S3150000C6F0FCF714F80E48FCF765F8BDE80140FCF7B6
S3150000C70011B80000C8720020347400206C7100203B
S3150000C7108DC5020055C50000CC7700203B7C00206B
S3150000C720F65F0020349703009B6E03007C710020A7
S3150000C730447B002010B50B46144638B10146184616
S3150000C7400FF052FE204610F003FB0120BDE810401A
S3150000C75002F091BE704770470000000069702D6DB1
S3150000C7606F64656D000000006368616E6E656C2025
S3150000C77025752C2070616E2069642030782532780A
S3150000C7802C2073686F7274206964203078253278A3
S3150000C790206E6574776F726B2069643A202573008A
S3150000C7A06578742070616E3A20000000257520625D
S3150000C7B0797465732072656D61696E696E67206153
S3150000C7C07420746F70206F6620686561702E00009B
S3150000C7D025733E200000000025732D6170702072C5
S3150000C7E065616479000000006368616E6E656C20A7
S3150000C7F02575202830782578292C206E6F646520D1
S3150000C80069642030782532782C2070616E20696446
S3150000C810203078253278000055415254206C696EDC
S3150000C8206B000000617070206576656E742071750E
S3150000C830657565007365744E64446174610000003B
S3150000C840E874002011B6000000000000000000009F
S3150000C85044A003007F6E03004CA0030050A0030019
S3150000C8608771030054A0030058A0030087710300DA
S3150000C87054A0030060A00300877103006CA00300AE
S3150000C88070A0030001C500004CA0030084A00300B3
S3150000C890B5C400004CA003008CA00300FBC400003C
S3150000C8A04CA0030098A00300A5D700004CA00300ED
S3150000C8B0A0A0030017C500004CA003000000000064
S3150000C8C0000000000000000038B5FBF760FA0446DF
S3150000C8D0FBF759FA0020002124FA01F2D20712D5FB
S3150000C8E01E481F4C30F8110006284CF23C324FF21D
S3150000C8F00F031ED16088984217D12188080A0C2898
S3150000C90013DA084613E0491C89B21129E4D3154904
S3150000C9100880088840F20171884205D11248D0E9A2
S3150000C92000231248C0E9002331BD4FF4C060628085
S3150000C930EDE740F20725A84201BF618899422188A8
S3150000C940A942E4D162800846E1E706480088000A69
S3150000C9507047044800887047044870470089030000
S3150000C960000000208676002094000020C864002085
S3150000C97001207047802108F0D1BB80B50FF28811E5
S3150000C980F9F7AFFD002002BD10B504460FF2701096
S3150000C990008886B00023ADF80C00002203A80290A0
S3150000C9A00021022001900020009000F01DF80100F7
S3150000C9B009D103A80290002304200190002202203E
S3150000C9C0009000F010F801000BD104A80021C0E986
S3150000C9D0001102900091082001900023012200F02E
S3150000C9E002F806B010BD0121204608F0AFBB00B525
S3150000C9F085B000F012F8022101910021009108E0B3
S3150000CA0000B585B000F009F80421019102210091DA
S3150000CA10012108F09BFB05B000BD531C8DF80C10DE
S3150000CA20DBB20904090E8DF80D10002203A902914C
S3150000CA307047E0B50291531C08210191DBB2002139
S3150000CA4000910122012108F081FB0EBD80B5C9B21B
S3150000CA50002914BF4FF4803200224FF4803108E0E1
S3150000CA6080B5C9B2002914BF4FF0807200224FF082
S3150000CA70807108F035FB002002BD1206C9B2120A09
S3150000CA8042EA01611B06DA0902F4F01280B511438D
S3150000CA9041F0B0020F49ECE710B5FFF769FF022439
S3150000CAA0A8B10D480068000E00F00F0002281CBF58
S3150000CAB0032807280BD10948094904600968890336
S3150000CAC002D4102181600024064902200860204615
S3150000CAD010BD0000B8011F01044008408840084608
S3150000CAE0884008408840084480B50FF2180109784C
S3150000CAF08DF8001001226946FDF7F2FD02BD000027
S3150000CB00FFFF0000050000005CA80300BCA90300AD
S3150000CB10F0A6030003000000DFF800F0A95900208A
S3150000CB20DFF800F039590020DFF800F0A5590020A1
S3150000CB3038B504460D4610F031F9012C02D1FFF745
S3150000CB40EBFF02E02846FFF7EBFF18B110F02FF9D4
S3150000CB50012032BD10F02BF9002032BD10B5C207FE
S3150000CB6082B01BD402884FF6FF739A4201D00A00A6
S3150000CB7014D18408A400800722684EBFC2EA01408F
S3150000CB80100C41EA0040009010F008F904226946B2
S3150000CB902046FFF7C9FF18B110F009F9012016BDAC
S3150000CBA010F005F9002016BD70B504460D46164670
S3150000CBB004E010F0FCF8241D2D1DB61EB6B1012EA2
S3150000CBC001D0A00706D535F8021B2046FFF7C6FFA1
S3150000CBD0A41C761E022EF1D310F0E0F8042229469A
S3150000CBE02046FFF7A1FF0028E3D001E0002070BD3A
S3150000CBF010F0DDF8012070BD70470020704710F07E
S3150000CC00FBB801207047000080B50FF24C10FBF70F
S3150000CC1085FDFEF765FD0FF24C10FBF77FFD0BF06F
S3150000CC20F1FE0FF25010FBF779FD10F02BFB0FF21F
S3150000CC305010FBF773FD10F071FCA1A0FBF76EFD21
S3150000CC4011F082F80FF24C10FBF768FDDFF8E40AEA
S3150000CC50FBF7B8FD0FF24C10FBF760FDFFF7CCFFBA
S3150000CC600FF24810FBF75AFDFFF732FD0FF248109E
S3150000CC70FBF754FDDFF8C00AFBF7A4FD0FF24C10DA
S3150000CC80FBF74CFDDFF8B40AFBF79CFD0FF24C10E6
S3150000CC90FBF744FDDFF8A80AFBF794FD0FF25410EA
S3150000CCA0FBF73CFDDFF8E80AFBF78CFD0FF25C10A2
S3150000CCB0FBF734FDDFF8DC0AFBF784FD0FF26010AA
S3150000CCC0FBF72CFDDFF8D00AFBF77CFD0FF26810AE
S3150000CCD0FBF724FDDFF8C40AFBF774FD0FF26C10B6
S3150000CCE0FBF71CFDDFF8B80A0CF0C8FE0FF2701057
S3150000CCF0FBF714FD11F0E6FD0FF26C10FBF70EFDCD
S3150000CD0012F027F90FF26810FBF708FDDFF8E00ACA
S3150000CD10FBF758FDDFF8DC0AFBF754FD0FF2601055
S3150000CD20FBF7FCFCDFF8D00AFBF74CFD0FF27010A6
S3150000CD30FBF7F4FC12F0ADF90FF27010FBF7EEFC06
S3150000CD40DFF8B80AFBF73EFDDFF8300BFBF73AFDDC
S3150000CD50BDE80140FBF7E6BC4D41432061726269C4
S3150000CD60746572004D414320696E6469726563742F
S3150000CD70000000007265747279207461626C65004F
S3150000CD80364C6F5750414E20667261676D656E7402
S3150000CD90730000006D756C7469636173742074614F
S3150000CDA0626C650077616B65757000006170706C10
S3150000CDB069636174696F6E00666F726D2D656E656D
S3150000CDC07267792D7363616E000000006E6574777B
S3150000CDD06F726B206461746100000000736C65659E
S3150000CDE070792062726F6164636173742068656133
S3150000CDF064657200676C6F62616C20616464726561
S3150000CE007373207461626C65000000006C6F63616F
S3150000CE106C2073657276657220646174610000002F
S3150000CE20626F7264657220726F75746572204E440B
S3150000CE3020646174610000006368696C6420616449
S3150000CE406472657373207461626C650073746163E8
S3150000CE506B206576656E74207175657565000000DA
S3150000CE60436F4150000000004A50616B65000000AE
S3150000CE70436F6D6D697373696F6E696E670000004D
S3150000CE807363616E20726573756C747320666F725E
S3150000CE9020636F6D6D697373696F6E657200000054
S3150000CEA044544C53204A6F696E0000006C6F6F70DB
S3150000CEB06261636B206D6573736167657300000063
S3150000CEC05544500070B5DFF868480546E0882A06E4
S3150000CED001D4062D04D140F0040005F07F0503E0DF
S3150000CEE011B94FF6FB7108402E46022E1CBF032EC9
S3150000CEF0042EE08008D0052E0DD0062E18BF072E72
S3150000CF0002D0F02100F0A3F9A570A07804280CBF88
S3150000CF100120002001E00325F6E70BF04CFDE08838
S3150000CF204FF6F4710840062E08BF40F0020004D008
S3150000CF30022E14BF032E40F00800E08070BD10B52D
S3150000CF40DFF8EC4706281CBFA178062901D0C109E5
S3150000CF5010D000F031FD00F065FD04F108000CF082
S3150000CF60E3FC00F026F800F09FFC0020BDE810402E
S3150000CF700BF020B8217803290FD1A179C9070ED467
S3150000CF80032818BF04280AD100F016FD00F04AFD58
S3150000CF900121002014F09BF9E7E7042907D100F0EE
S3150000CFA00BFD00F03FFD012002F0F8FCDDE77020EC
S3150000CFB0DCE710B5F2B014F0E7FC10F0D0F912F08F
S3150000CFC01AFC0FF082F90FF033FF15F01FF915F078
S3150000CFD05BF915F0B2FF0FF0ACFB0FF0B3FB16F0E8
S3150000CFE06EFB02F039FB0120F8F707F916F01AFD7F
S3150000CFF0FEF768FCF9F76AFFDFF834470020A070F7
S3150000D0004FF6FE70F8F73EFA0020E08016F05FFE5D
S3150000D01017F0B1F819F00AF91AF0E1FB11F08EFEDB
S3150000D02012F02AF8BC237F22082142A8FEF7CDF889
S3150000D03000F03BF901A81AF028F9BDF854014FF6A3
S3150000D040FF71884236D0BDF8040098BB082342AA77
S3150000D0500E210DF1060017F058F9102344AA0321FA
S3150000D06017F053F9082348AA022117F04EF90823AE
S3150000D0704AAA072117F049F910234CAA052117F0EF
S3150000D08044F919F04BF9BDF85421012117F01EF9A6
S3150000D090DFF8082B002119F03BF9032357AA0021DA
S3150000D0A017F033F90DF10601401AADF8040001A896
S3150000D0B01AF060F9BDF8040000281EBF9DF80200B2
S3150000D0C000280120002100F00DF972B010BD38B51E
S3150000D0D0DFF8001A0FF2801400200880FBF7B6FA7A
S3150000D0E0FAF7A0FEDFF8F0094168C90703D5006822
S3150000D0F010F0300F10D10FF2680529460020F8F71E
S3150000D1003CFF29460120F8F738FF2046BDE83440A9
S3150000D11040F2AF11F7F704BBFEF72EF820B14FF43B
S3150000D120DA712046F7F7FCFAF8F7CCFD0FF24C005F
S3150000D130DFF8FC450BF026FA607004F108000CF0ED
S3150000D140E6FBDFF85C1A00200860DFF8581A086072
S3150000D150FFF7FBFB0AF05DFDBDE8314029E7000063
S3150000D160537461636B2F4861726477617265204DF9
S3150000D17069736D617463680D0A00000000000000A9
S3150000D1800000000038B5FEF778FB30B110F0DFF88C
S3150000D19000F0010080F0010400E00124FBF7BBFF72
S3150000D1A020B100F00EF808B1002500E00225F7F7DF
S3150000D1B08EFF00280CBF0420002045EA0401084326
S3150000D1C032BDDFF8380605F0F3B980B5DFF8DC09C3
S3150000D1D00078010018BF072807D1FFF7D3FF00F03A
S3150000D1E00701481E8041C00F02BD002002BDDFF8C6
S3150000D1F0B4190860704710B50020F8F7B1FBDFF8E6
S3150000D200B009007818B10FF23400FBF718FBF8F7F5
S3150000D21043FDF9F78EFCF9F7C9FF03F0A4F90BF00B
S3150000D2207DFDDFF8844904F108000CF0F9FB607815
S3150000D230BDE810400BF0CEB90000000009CC00009C
S3150000D24000000000DFF8600940780BF0C3B90FF268
S3150000D2500800F7F765BA000069702D737461636B97
S3150000D2602E630000F8F704B9DFF83C1989798907BD
S3150000D27058BFF8F7E7B87047F8F7FEB8F8F702B9FD
S3150000D280F7F78FBC38B50446F7F78BFC05460FF663
S3150000D290681000F008F88DF8034000F03DFA2846C3
S3150000D2A00AF0D0FD31BD0068009004237F220C21D6
S3150000D2B06846FDF78ABF80B5F7F764FCBDE8024013
S3150000D2C00AF0BABD80B5F7F722FEBDE802400AF0C3
S3150000D2D085BDF7F753BCDFF8DC087047DFF8C808F0
S3150000D2E00078704770B50446DFF844040678047089
S3150000D2F00D46C188032C05D141F40041C18002F0DE
S3150000D30065F902E0C1F30E01C180200004BF0120CF
S3150000D3100BF051FB2A4631462046BDE870400AF024
S3150000D320F2BEF8B506465E220021FBF757F8DFF895
S3150000D33000542878012806F1280421D0DFF87878EF
S3150000D3401022B91C3046FAF7E7FF06F110000FF07D
S3150000D350D1F906F118000FF0E7F9082207F11201DA
S3150000D36006F12000FAF7D8FFF8F786F82080F7F7DD
S3150000D37005FCA070A878E070F7F704FC20712CE09B
S3150000D38018F020FF0746102207F114013046FAF77D
S3150000D390C3FF082207F1240106F12000FAF7BCFFBB
S3150000D3A0082207F12C0106F11000FAF7B5FF07F184
S3150000D3B058000423018821807F22807AA0700C21E6
S3150000D3C00FF63800006800906846FDF7FEFE9DF8EF
S3150000D3D0030020719DF80200E070A878032804D1AC
S3150000D3E0A87900075CBF0520E070F1BD2DE9F0418A
S3150000D3F0044620000D4604D12846BDE8F0410DF054
S3150000D40078BE012C04D1DFF8B4070DF084FE20E0CD
S3150000D410022C20DBDE4E0021304605F0DEF8022726
S3150000D42004E04146304605F007F97F1C80465FEA76
S3150000D430080010D0FBF763FC00281CBF016A002916
S3150000D440EFD0F9B2A142ECD1811C10222846FAF79E
S3150000D45063FF012000E00020BDE8F08100B585B043
S3150000D460F8F706F869460DF030FE68460AF001FE48
S3150000D47005B000BD2DE9FF4104460F46C44D00210D
S3150000D480284605F0AAF81DE0FBF739FC060015D082
S3150000D4903078800612D5002C18BF002F07D03B46E7
S3150000D4A022463946B01CFBF753F8B84206D13388FA
S3150000D4B0326AF169DBB2B01C0AF065FD41462846C6
S3150000D4C005F0BAF880465FEA0800DDD10FF2307049
S3150000D4D00FC86C4684E80F0000230022002168462E
S3150000D4E00AF051FDBDE8FF813EB5A94C002120465A
S3150000D4F005F073F815E0FBF702FC70B10178C90777
S3150000D5000BD5016A0291821CC1690191002100912B
S3150000D5100121837C00200AF057FD2946204605F0AC
S3150000D5208BF805462800E6D1002002900190009075
S3150000D5300023002200210AF047FD37BD2DE9F04FF8
S3150000D5408BB00446112200216846FAF747FF0026F1
S3150000D550DFF86C86DFF86C76DFF86C9646E0002222
S3150000D56008215046FAF7BAFF002854D1082251463E
S3150000D5706846FAF7D1FE202EB4BF022006208DF8A9
S3150000D58008003868584490F911105F398DF8091071
S3150000D590007D10F00F008DF80B000EBFFF209AF8EB
S3150000D5A013000CF05DFD8DF80A0030460CF0B3FF59
S3150000D5B08DF80C0030460CF0A5FF8DF80D009AF89A
S3150000D5C01500C0098DF80E00FF2C38685844407DC0
S3150000D5D000F007008DF80F009AF816008DF810007D
S3150000D5E019D1694630460AF04CFBEEB299F80000B4
S3150000D5F0751C864214DAFF2C18BFB442F5D11820E8
S3150000D60010FB06FB386800EB0B0A98F80000864210
S3150000D610ACDB202EA3DAFF2CE7D06946304607E0C4
S3150000D62005A8142100F004FBFF2C03D105A9E8B2DC
S3150000D6300AF027FB0BB0BDE8F08F7047AA210170F6
S3150000D640BB214170CC218170DD21C1707047DFF8AC
S3150000D6507C150A7882421CBF0870F9F75EBF7047D6
S3150000D66010B504460CF07DFD20B92046BDE81040FB
S3150000D67015F009BA10BD00B5F7B04FF4817200215C
S3150000D68035A8FAF7ABFE35A819F074FE35A819F0DF
S3150000D69073FEBC22002106A8FAF7A0FE4FF6FF7023
S3150000D6A0ADF86400BC2306AA7F210820FDF79DFD86
S3150000D6B0042200216846FAF791FE00F02DF80822B0
S3150000D6C0002104A8FAF78AFE082304AA7F21052070
S3150000D6D0FDF78BFD0822002102A8FAF77FFE08233A
S3150000D6E002AA7F210720FDF780FD0EF043FE15F00C
S3150000D6F01FF900208DF80400042301AA7F210320CE
S3150000D700FDF773FD26480CF00FF9FFF752FC0020D9
S3150000D7100AF0E2FB77B000BD04236A467F210C20A5
S3150000D720FDF763BD0021DFF8A8040CF0BBB90000CB
S3150000D7303C740020007C0020C4750020B6730020D5
S3150000D740087C002038B5DFF88854DFF8884428467E
S3150000D7500CF0F8F9DFF8800400780C2810D0206867
S3150000D760142804D101200AF0B7FB002006E04FF48C
S3150000D770FA7128460CF096F92068401C206031BDED
S3150000D780002020600320BDE83240FEF752B80000BA
S3150000D7901E740020507B0020527B0020567B002008
S3150000D7A044740020F9F756BA38B5034608461546BC
S3150000D7B000241BB1022B0DD003D314E0DFF81C1498
S3150000D7C001E0DFF81C14098808237F22F9F7D4FB4F
S3150000D7D0082006E0DFF80C1409887F22F9F7CCFB55
S3150000D7E00220287001E02C707024204632BD000013
S3150000D7F078740020547B0020C07400205E7B0020DB
S3150000D80010B584B000F03CF89DF80030014601AA3E
S3150000D81020460AF097FC1FBDFEB50E46174600F0DF
S3150000D8202FF8050025D19DF80000874218BF022574
S3150000D8301FD10146FF2201A8FAF750FE08B9462576
S3150000D84017E01CB1022C0BD005D311E0082231469B
S3150000D850DFF8880308E008223146DFF8840303E096
S3150000D86002223146DFF87C030088F9F7A7FB00E0C7
S3150000D8707025294620460AF072FCF7BD047C00207C
S3150000D88004466A4601A98FE780B5F9F740F8BDE876
S3150000D890044000210AF09DBC80B5F9F717F8BDE8F1
S3150000D8A0024000200AF09CBC70B5BF4C20780328CB
S3150000D8B088B07CD0012803BFC74800780C287020A8
S3150000D8C076D108237F22052105A8FDF77EFC05A851
S3150000D8D00DF084FB08237F22072103A8FDF775FCC2
S3150000D8E0082203A9C048FAF717FD08237F2206215C
S3150000D8F001A8FDF76AFC01A8F9F7E9FA18F0BFFCE0
S3150000D90018F060FC054605F15806B07AFDF75BFF96
S3150000D9103088F7F7B7FD05F11400FAF7F9FDC1B243
S3150000D92005F1140001F07EFE05F1240001F048FE29
S3150000D93005F12C000FF00CFA0FF2D420FFF7B3FC20
S3150000D940BDF80000FFF790FC9DF90300F7F729F9F1
S3150000D9509DF8020000F030F815F039FB0EF014FDCA
S3150000D96001F011FAA078062809D100210320FFF75B
S3150000D970B9FC01220021002013F046FB17E0F7F75F
S3150000D98077FD800502D102F0D5FB10E0A0780328D0
S3150000D99018BF042804D0022805D1A079C00702D4F4
S3150000D9A002F00FFC03E040F28151FFF750FC00202B
S3150000D9B00AF0B3F908B070BD0021FFF783BA80B54D
S3150000D9C019F0B4FF16F0D7FB16F0E6FB7648807820
S3150000D9D0062803D0BDE8014014F069B801BD80B542
S3150000D9E071480178032905D1804909884FF6FF72ED
S3150000D9F0914201D193200BE08078042818BF702053
S3150000DA0006D17B480078042818BF052804D13D209C
S3150000DA10BDE802400AF03CBA14F01BFCBDE8014028
S3150000DA20FDF795BE00B59FB007A8602100F000F98C
S3150000DA3007A8FFF776FC0FF2DC10006800909DF84F
S3150000DA4048008DF80300F7F713FDADF800006A46AD
S3150000DA5055488078062818BF9DF847008DF80200C3
S3150000DA6004237F210C20FDF7C0FB0FF2AC1005A9A3
S3150000DA70D0E90023CDE905235E480DF0F2FA08232C
S3150000DA8005AA7F210520FDF7B0FB0FF29410564939
S3150000DA90D0E90023CDE9032303A80822FAF73CFCCA
S3150000DAA0082303AA7F210720FDF79FFB0FF27810BA
S3150000DAB04249D0E90023CDE9012301A80822FAF75B
S3150000DAC02BFC082301AA7F210620FDF78EFB1FB041
S3150000DAD000BD000082730020E881E00F80B5F7F7F3
S3150000DAE04BFDBDE8024000200AF0A0B980B5F7F76B
S3150000DAF074FDBDE802400AF093B980B51AF068FEDD
S3150000DB00BDE802400AF072BB80B5F8F7DBFEBDE85F
S3150000DB1002400AF071BB80B51AF05DFEBDE8024016
S3150000DB200AF070BB80B5F8F7CDFEBDE802400AF0FA
S3150000DB3087BB80B51AF051FEBDE802400AF086BBED
S3150000DB4080B5FEF73BF8BDE80440014600200AF028
S3150000DB505FBB80B5FEF734F8BDE802400AF05FBB54
S3150000DB6038B5044600216000FBF7DFF9010003D158
S3150000DB700022002118200DE0FBF7C1F805462146DA
S3150000DB80F6F7D0FE18B122462946002002E0002210
S3150000DB9000217020BDE838400AF047BB00F8FF07B7
S3150000DBA0C0770020D07700203C740020B975002093
S3150000DBB0F75F00202C740020C87200203474002007
S3150000DBC036780020205B0020F35F0020357C0020A3
S3150000DBD09C5D002058740020145E002052AB0300A8
S3150000DBE05AAB03005CAB0300D0750020E25D002059
S3150000DBF0467C00203071002000000000000000007C
S3150000DC00000000000000000000000000000000000E
S3150000DC1000000000000000000000000000000000FE
S3150000DC2000000000000000000000000000000000EE
S3150000DC3000221AF0D5BD00002DE9F8430446FAF794
S3150000DC40E7FB0546E01CFAF7E3FB0646601DFAF71C
S3150000DC50DFFB804600274FF44060054208BF40279F
S3150000DC604FF44C4005422ED0680658BF47F02007B7
S3150000DC704FF6FF794E4508BF47F0010705D0FFF77D
S3150000DC80FBFA864208BF47F0020705F44060B0F58C
S3150000DC90006F03D0B0F5406F0CD014E0C84508BF44
S3150000DCA047F004070FD0FFF7DDFA80450BD147F0A8
S3150000DCB0080708E00822611DDFF87C08FAF795FBE3
S3150000DCC008B947F010073846BDE8F2832DE9F04F52
S3150000DCD0ADB080461546FBF712F80646701CFAF7FB
S3150000DCE097FB8246701C0BF0D5FF3044441C611C28
S3150000DCF00120FAF7BDFB814600271AF440407CD08C
S3150000DD00B0F5004F11D0B0F5404F08BFA4F1080799
S3150000DD1000200090694620460FF02BF9040021D11F
S3150000DD20384601F0B0FD88B967E0A01EFAF770FB2F
S3150000DD30FFF796FC0700EBD1701C0FF034FA0700D2
S3150000DD40E6D101210E20FDF77CFC56E0002E18BF1F
S3150000DD50002F52D0034600F074F800284DD0012061
S3150000DD60287065E0082C19D10098C0B20EF00AFCA4
S3150000DD70054601A90EF015FC8346BBF1000F16D12E
S3150000DD8025A928460EF0CCFA002E1CBF002F00282D
S3150000DD9033D000F1100300F054F82EE0102C2CD1F3
S3150000DDA04FF0FF35DFF89477DFF894B7E5E70EF02C
S3150000DDB009FC38B9002E18BF002F1ED000F040F81D
S3150000DDC060B91AE0002E18BF002F16D03278711CE9
S3150000DDD005A8FAF7A1FA00F033F870B1102C26D096
S3150000DDE0009BDBB24A4639464046FEF706FF20B99D
S3150000DDF04FF440401AEA000F01D1022018E000F06B
S3150000DE001AF80CF093FC78B900F015F814F0A1FE9E
S3150000DE1050B900F010F802F05DF928B901210F2081
S3150000DE20FDF70FFC042003E028460EF013FC01204A
S3150000DE302DB0BDE8F08F00232A4639464846704784
S3150000DE405B463A463146701C0FF0BBB92DE9F04FE0
S3150000DE5085B08046FAF753FF0546681CFAF7D8FAEC
S3150000DE600646E8788DF8020006F00709F00800F08B
S3150000DE70010A300A00F001008DF8030006F4405450
S3150000DE8000208DF801004FF0000B681CFFF7D4FE50
S3150000DE90074617F0440014BF052004200121FDF7B2
S3150000DEA0D0FB15B12878801E28704FF6FF6000EA77
S3150000DEB00601681CFAF7B5FA681C0DF032F8D0B105
S3150000DEC04FF0040B002405B12C784046FAF72FFFDB
S3150000DED00646681CFAF79CFA07465FEACB7040F1E3
S3150000DEE0EF8000F04DFB801E5FEA8B71C0B201D55A
S3150000DEF0801FC0B2E5E0BAF1000F0CBF002CB4F5EC
S3150000DF00805F13D14EF6F7600640DFF838060078DA
S3150000DF10012818BF03284FF6FF7408D0052818BF3C
S3150000DF20062804D0072806D00C282BD016E1B9F114
S3150000DF30000FFBD130E0B9F1030FF7D117F0030062
S3150000DF4003D1FFF799F9A042F0D117F01C00EDD0EC
S3150000DF509DF8030008B14BF0200BDFF8EC050078C4
S3150000DF601AEA000FAED00DF1010239464046FFF71E
S3150000DF70ADFE022869D1B9F1000F64D1002D45D15B
S3150000DF800024A2E75FEA090106D0B9F1010F0ED01D
S3150000DF90B9F1030FD2D0E1E00C2801D1B807FAD5C8
S3150000DFA0B6F5004FD4D0B6F5404FF4D1D0E70A2FDE
S3150000DFB01CBF062F122F25D1780758BF4FF0010B33
S3150000DFC010D5DFF888050088000404D5DFF8800541
S3150000DFD00078042815D0DFF87C050078022810D0D8
S3150000DFE04FF0410B16F4404008D0B0F5004FAFD0CB
S3150000DFF0B0F5404F05D14BF0020BA9E7BAF1000F7F
S3150000E000A6D1ABE0252FA3D0322FCEE74046FAF7B4
S3150000E0108EFE064695F800A000F0B2FA0746A6EB7B
S3150000E0200A00221805EB0A00411CE81992B2401CAE
S3150000E030FAF772F9AAEB0700C0B22F70311A89B24B
S3150000E04000F0B2F840E7B9F1030F30D100F098FACA
S3150000E0502844461C30460EF085FF305C04282CD13F
S3150000E0604046FAF764FE002D824689D02F7800F0EC
S3150000E07087FA019030460EF075FF06460199019821
S3150000E080AAEB01012844891B6218811992B2491C26
S3150000E090401CFAF741F9B81B2870681CFAF7B8F962
S3150000E0A00146681DFAF7BDF9AAEB0601C7E710B9E4
S3150000E0B04BF0100B06E70128FCD00121102062E08E
S3150000E0C00220211AC91D8DF800108442A1BF611CCF
S3150000E0D08E429DF800108E4240DB221A2844411CD5
S3150000E0E092B2E81DFAF718F90DB185F800B00422CE
S3150000E0F00021681CFAF772F93946681DFAF791F99A
S3150000E1009DF8010018B10321404600F075FA681C1D
S3150000E110F9F7FCF918B10721404600F06DFAB9F19C
S3150000E120010F39D15FEACB7013D502A940461BF027
S3150000E13082F970B1FFF796F80146BDF80C008842E7
S3150000E14007D013F067FC58B1BDF80C0014F09BFC27
S3150000E15030B9694640461AF078FB08B900201EE03F
S3150000E16000F020F8404600F0FCFAB0F5004F15D15B
S3150000E170404600F019FB9DF80210044614F048F8DA
S3150000E18020B101211120FDF75CFAE7E79DF80210A6
S3150000E190204614F052F801E000F004F8012005B022
S3150000E1A0BDE8F08F9DF800104046FAF7D9BD2DE97D
S3150000E1B0F64F85B082460521FBF708F8044650461F
S3150000E1C0FAF79DFD0490C01D019000200599DFF827
S3150000E1D08853029008708346FFF74EF8ADF80000AA
S3150000E1E08046DFF87813FF200870EF1C00F0C5F9B1
S3150000E1F004280CBF4FF00109D94600F0BEF90628E5
S3150000E2000CBF01260026E00900F0010080F00100A5
S3150000E2108DF80C004FF67F70044000F0AEF905282B
S3150000E22008BF4FF6FF7825D000F0A7F9032802D0E3
S3150000E23056EA09001ED001215046FAF706FE83462B
S3150000E240002201215046FAF717FEB9F1000F09D056
S3150000E2505846FAF754FD4FF6FF7858B106990078FC
S3150000E260087007E036B15846FAF749FD10B1FAF7DB
S3150000E270D2F8804600F07EF9C0074AD500F07AF958
S3150000E280800708D5082604F44060B0F5406F0CD02E
S3150000E29040F20B3107E0022604F44060B0F5006F4F
S3150000E2A003D040F20F3100F061F94146281DFAF71C
S3150000E2B0B8F8A81D029032460199FAF72DF8A81968
S3150000E2C0871D019880190190BDF80000404508BFE0
S3150000E2D044F0400404D001463846FAF7A2F8BF1CC1
S3150000E2E09A480078800748BF44F4404404F440400C
S3150000E2F0B0F5404F06D108228F493846FAF70CF898
S3150000E300083706E0FEF7AEFF01463846FAF789F809
S3150000E310BF1C00F02FF900F0050004280ED050466F
S3150000E320FAF705FD0646504600F036F9301A210781
S3150000E33002D4C0B2672801DB44F48054504600F092
S3150000E3403EF90199401A5FFA80F842463846F9F7D5
S3150000E350E3FF01984744804400F00CF9C0073DD51F
S3150000E360E008C7F17D016A1C00F0010056180100A3
S3150000E370029918BF123E00290ED079490978029BEE
S3150000E38081F0010108430090F2B2394650460FF081
S3150000E3900AFB8046B8F1FF0F6ED0B8F1FE0F1BD115
S3150000E3A001200090A6F11202029BD2B239465046D5
S3150000E3B00FF0F9FA804644F48054B8F1FF0F44F0A8
S3150000E3C0080459D005215046FAF700FF40F008022C
S3150000E3D005215046FAF709FF47440DE05046FAF783
S3150000E3E0A6FC0499A0EB08000E18F6B23246414688
S3150000E3F03846F9F791FFBF1950460AF0D8FB08B125
S3150000E40044F010042146681CFAF70BF800F0B2F845
S3150000E41000F00500042804F007060BD02EB9514879
S3150000E4200178491C0170E9700CE04F480178491CDD
S3150000E4300170E970032E05D100F0A2F8284447497F
S3150000E4404078087000F096F800F00500042858D0CF
S3150000E450200756D50EF0DCFC10F1010F0CD0012E72
S3150000E4600CD1FEF73BFF032808D0B9F1000F05D108
S3150000E47000F083F8032801D0002059E000F07DF871
S3150000E480032806D15846FAF73AFC814600240026AE
S3150000E49027E0B9F1000F05D0DFF8A490FF26002091
S3150000E4A0102420E000F066F8C00604D50EF08AF8C5
S3150000E4B0814601260DE068460EF079F85FEA00090C
S3150000E4C003D14FF46C7100F051F8009800F07F0012
S3150000E4D0461C00F052F80824022802D1FEF78FFBF2
S3150000E4E001E00EF089FC0290F6B201960020009041
S3150000E4F02346781B411E4A46C9B2681C0EF09FFD92
S3150000E50007445FEA0B0004D05A4601215046FAF749
S3150000E510B3FC781B401C2870781B7F2803DB40F275
S3150000E520D33100F023F80599012008709DF80C00FE
S3150000E53007B0BDE8F08F0000347400206CD20100F3
S3150000E54074D20100145E0020FD5F0020427400209A
S3150000E5503E740020467C0020747B0020F55F00207E
S3150000E560FE5F0020627B0020617B00200FF2180016
S3150000E570F6F7D6B8504600F02CB8504600F039B839
S3150000E580681C0BF087BB000069702D6D61632D68F8
S3150000E59065616465722E630080B5FAF7B0FB60B101
S3150000E5A00178CA0705D4401D0BF074FB401DC0B2AC
S3150000E5B002BD880701D50F2002BD092002BD38B56E
S3150000E5C00446FAF79CFB05462046FFF7E5FF28447C
S3150000E5D032BD0021FAF7DEBD0A460021FAF7E1BD99
S3150000E5E080B5FAF78CFB18B1017841F08001017013
S3150000E5F001BD0421FAF7CEBD0A46FFE70421FAF76A
S3150000E600D0BD80B50521FAF7E1FD00F4406002BDFA
S3150000E61038B50446FAF773FB05462046FFF7D9FFDF
S3150000E620C00701D5E81D32BD05F10A0032BD80B52F
S3150000E630FFF7EEFFBBE038B504460D46FFF7E8FFEF
S3150000E6402946F9F7EEFE00F02AF84FF6FF718D42E3
S3150000E65006BF4FF6DF7101EA000240F020022046B5
S3150000E660BDE838400521FAF7C0BD10B50C46FFF7E6
S3150000E670CFFF2146BDE810400822F9F74DBE38B558
S3150000E68004460D46FFF7BDFFA84207D000F007F885
S3150000E6904FF2FF31084045EA0002E0E731BD0521AF
S3150000E6A02046FAF793BD2DE9F04104460D46FFF7E3
S3150000E6B090FF0646F00704D48B210FF25420F6F79C
S3150000E6C02FF8B0071AD52046FAF719FB80462046E0
S3150000E6D0FAF72DFB0746A0F10F0292B208F10F01DF
S3150000E6E008F10900F9F718FEB91F89B22046FAF7B2
S3150000E6F037FB06F0FD012046FFF76EFF4FF4006181
S3150000E7002046FFF7BCFF4FF6FE708542204607D134
S3150000E710FFF75FFF40F020012046FFF75DFF0AE0AC
S3150000E720FFF757FF00F0DF012046FFF755FF2946A8
S3150000E7302046FFF780FF0120BDE8F08110B50446B2
S3150000E740FFF75FFF48B1B0F5006F08D12046FFF72D
S3150000E7506EFF4FF6FF71884201D1012010BD0020E7
S3150000E76010BD80B50521FAF731FD00F4404002BD29
S3150000E77038B50446FAF7C3FA05462046FFF729FFDF
S3150000E780C00701D5E81D32BD2046FFF718FF054634
S3150000E7902046FFF7E6FFB0F5404F0CBF6FF00700CD
S3150000E7A06FF00100284432BD80B5FFF7E1FFBDE8F8
S3150000E7B00240F9F72DBE38B50446FFF70AFFC00739
S3150000E7C003D5BDE83140FEF757BDFFF768FF0546A4
S3150000E7D02046FAF794FA0830690611D44FF44041FE
S3150000E7E00D4202D14FF6FF7032BD05F44061B1F51E
S3150000E7F0006F08BF001D03D0B1F5406F08BF0A3097
S3150000E800BDE83240F9F704BE10B50446FFF7E1FE55
S3150000E810000703D52046BDE81040C5E74FF6FE7059
S3150000E82010BD2DE9F0471D46012610B140F6010046
S3150000E83006E0002A1ABF032640F6214040F62100D2
S3150000E840002914BF4FF440414FF4004141EA00084B
S3150000E85000200DF053FE18B148F4805040F008082F
S3150000E860089C16F0020714BF0F200920201800216B
S3150000E87080B2FAF75AFB814608B3FAF758FA82468D
S3150000E8804846FAF73CFA52460021F9F7A7FD314609
S3150000E8904846FFF7A1FE4846FAF731FA461D4146BB
S3150000E8A03046F9F7BEFDB01C002F14BF0823022323
S3150000E8B025B1224629461844F9F72EFD4846BDE8FB
S3150000E8C0F087F8B504460D46681D002180B2FAF7B8
S3150000E8D02CFB060001D10020F2BDFAF728FA074604
S3150000E8E03046FAF70CFA3A460021F9F777FD04218B
S3150000E8F03046FFF771FE3CB13046FAF700FA2A4679
S3150000E9002146401DF9F708FD3046F2BD0000000023
S3150000E91069702D7061636B65742D686561646572DD
S3150000E9202E630000DFF8F41C8870704700B583B0D2
S3150000E93048B100F072F86846C17941F00201C17130
S3150000E940F8F7C5FA07BDF8F7C1FA07BD80B5DFF8D5
S3150000E950D00C4179092905D1032000F019FABDE848
S3150000E960014081E107291ED0491E072915D8DFE895
S3150000E97001F00A0406040D202011042000E0032003
S3150000E980BDE8024004E2BDE8014056E2BDE80240AF
S3150000E99007207DE2BDE8014066E1BDE8044040F2A3
S3150000E9A0753101F09CBAC07A18B1BDE8014001F09A
S3150000E9B033BA01BDDFF8680C4179072900D07047EA
S3150000E9C080B5C07A032818BF07280ED1DFF87C0C63
S3150000E9D0008900F00CFF08D0FCF7B9FEBDE8044042
S3150000E9E09621DFF8280D0BF05DB801BDDFF8600C4D
S3150000E9F000B5007883B020B1DFF8140D0CF0EEFA04
S3150000EA0007BD00F00AF89DF8000000F0FD008DF843
S3150000EA10000068460CF0E2FA07BD04216846F5F7E7
S3150000EA2081BF2DE9F84304468846DFF8289C5E221C
S3150000EA3000214846F9F7D2FC102200214846F9F792
S3150000EA40CDFC05220FF25401DFF8D45B0FF2540619
S3150000EA504846F9F761FC09F128070220F8700320FF
S3150000EA6038714FF6FF7038800020E8810DE018EA13
S3150000EA70000F09D0B078F27821184844F9F74CFC19
S3150000EA80E88931880843E881361D30880100EED1D7
S3150000EA9094F82A00B870BDE8F1830000656D6265E0
S3150000EAA07200000001000010020010080400200897
S3150000EAB00800280210002B0120002C0140002D1018
S3150000EAC08000180800013D2000015D0100000000E3
S3150000EAD038B504460D46FEF701FC20B1BDE83240CC
S3150000EAE0702009F04ABA00F009F8002009F045FA4A
S3150000EAF029462046BDE8344018F09EBA29462046ED
S3150000EB008FE7F8B500F08AF8002802BFDFF82C0C72
S3150000EB1000780C2826D100211020FAF706FADFF833
S3150000EB20007B388208B918201DE0002009F0E9F8BA
S3150000EB3000210220FEF7D6FB4FF6FB7000EA050126
S3150000EB40FFF7DDFF0DF0ABFB388AFAF7D8F8102295
S3150000EB50FF21F9F743FC3146BDE8F84005220220C3
S3150000EB600AF068BC7020BDE8F24000F0D3BDF8B5ED
S3150000EB70DFF8AC7A0446F8890D46160019BF00F096
S3150000EB804F014F2900F04700472801D0022019E025
S3150000EB90FEF7A4FB002802BFDFF8A00B00780C28C4
S3150000EBA00FD1DFF8B00A80F82B502046FEF768FB3D
S3150000EBB00120F8713E72002009F0A9F8BDE8F14085
S3150000EBC052E07020BDE8F24009F0A1B870B500F03F
S3150000EBD025F8002802BFDFF8640B00780C2818D14E
S3150000EBE0FFF78CFFDFF86C4ADFF8345A94F92C00F3
S3150000EBF0FEF746FB0DF068FB6E611021204600F023
S3150000EC0011FD0020E871287209F081F8BDE8704016
S3150000EC102AE0BDE87040702009F079B804460D4638
S3150000EC201646FEF75BBB80B5FEF758FB042802BF0D
S3150000EC30DFF8EC09C07A002803D100F0AFFE00200F
S3150000EC4000E07020BDE8024009F06DB820F08001B8
S3150000EC50042900D0704780B50121FEF733F9DFF8AB
S3150000EC60BC1C0020087001BD80B5FFF7BFFEF8F799
S3150000EC702DF9DFF8E00990F82B0020F08001042937
S3150000EC8008D101210320FEF71DF9DFF8800A0AF0FA
S3150000EC9059FF02E00121FEF715F900F0DDFC002125
S3150000ECA00220FEF71FFBDFF8781902200871012009
S3150000ECB0BDE80240ECE0DFF8DC1C0870704738B5B0
S3150000ECC00446DFF85C09008A0D46FAF718F810B119
S3150000ECD0204400F80B5C31BD2DE9FC4106460F4689
S3150000ECE090461C46FFF782FEDFF83459687920B15A
S3150000ECF0702000F00FFD002043E00DF01AFD3046B5
S3150000ED00FCF761FD3846FEF7BBFA4046FEF7B6FA59
S3150000ED100C98DFF8746C0021FEF7D4F8308840F0C8
S3150000ED20010030800020FEF79FFA0899204600F087
S3150000ED3079FC07206871308840F400403080A87B59
S3150000ED40400704D5DFF8500C00F03AFC04E0FFF76A
S3150000ED5064FE684600F034FC0A980DF0F9FF0B9843
S3150000ED600EF01AF8FEF72BFE012018F0FFF8DFF878
S3150000ED70AC088078FFF7DAFDFEF754FE00F02EF9B6
S3150000ED800120BDE8F681DFF8981807204871704722
S3150000ED9070B5DFF88C486679054600F05DFC012EFB
S3150000EDA008D12079010005D0401E20710120BDE860
S3150000EDB070406DE0A079010012D0401EA0710AF0EB
S3150000EDC057FFDFF85858297800F048FF05F108008A
S3150000EDD00AF068FE0820607128788000287070BDEF
S3150000EDE0DFF8700890F82B00FFF730FFF8F76EF8A1
S3150000EDF029460020FEF776FABDE8704000F079BD9E
S3150000EE0010B50C468AB0014608226846F9F775FB2C
S3150000EE102022002102A8F9F7E1FA02AA0821684691
S3150000EE201AF062FC082202A92046F9F766FBE0798F
S3150000EE3040F00200E0710AB010BD10B5DFF8E047FF
S3150000EE40607A401CC0B21B280EDA6169C140C9074E
S3150000EE50F7D56072FCF7B7FCE07958B900F0D8FB3B
S3150000EE60072807D0012206E0BDE810400022032152
S3150000EE7000203DE200220021002012F088FABDE8C1
S3150000EE8010404FF49671DFF89C0C0AF00BBE0000A0
S3150000EE902DE9FF410646684600F027FCDFF87C476F
S3150000EEA0DFF87C57DFF8AC77DFF84C8C00F015FC08
S3150000EEB06E7107F128066879401E062800F28780E1
S3150000EEC0DFE800F0041F505C5F8566004FF6FF77B1
S3150000EED06078E78078B1308801E00AF0C9FEB84270
S3150000EEE0FBD0FEF7CBF9A078FFF720FD0A20687269
S3150000EEF0FFF7A3FF70E06969052203200AF09AFA7A
S3150000EF006AE0DFF8241CE07809780840DFF8841A04
S3150000EF10097808420AD0A86920B94FF442714046E0
S3150000EF20F5F7FEFBA9696846884755E000220821E7
S3150000EF3005F12C00F9F7D2FA28B105F12C01DFF81A
S3150000EF40D007FFF75DFF05F12C00F7F7C0FF97F834
S3150000EF505D30298807F13D02684610F05AFBDFF85C
S3150000EF60F81C10E0012016F0A2FD20B940F227316E
S3150000EF704046F5F7D5FB42F6E06104E041F2883100
S3150000EF8001E04FF4967104F108000AF08BFD23E0CE
S3150000EF9000F0AFFC00F03CFB062807D100F01EF89D
S3150000EFA001220021002012F02FF80DE0072802D1DF
S3150000EFB000F014F808E0A078FFF7B8FCF078FFF747
S3150000EFC045FE172000F0EAFCFEF72CFD04E04FF4A6
S3150000EFD054714046F5F7A4FBBDE8FF8100210320EC
S3150000EFE0FEF780B92DE9F04192B080460AF014FA96
S3150000EFF005464046F9F79BFE441B4046F9F77FFE5F
S3150000F0000619F6B21A2EC0F28E804046FFF7A9FB0B
S3150000F010B0F5004F78D04046FFF7A3FBB0F5004FA0
S3150000F02072D0422200216846F9F7D8F908AC287850
S3150000F030A07040466F78FFF79BFB0146082206A8A2
S3150000F040F9F76AF91022A91C6846F9F765F908224A
S3150000F05005F1120104A8F9F75FF903214046FAF712
S3150000F06099F8E07001214046FAF794F860710221A0
S3150000F0704046FAF78FF8A0714046F9F740FE08308F
S3150000F080F9F7C6F9ADF8200007F001002071F8087D
S3150000F09000F001008DF840003809E07105F11A070B
S3150000F0A03544381DA8420AD23878122804BF787829
S3150000F0B0022804D1B81CF9F7ABF9A0833F1D381D0F
S3150000F0C0A8420AD238780F2804BF7878022804D1DB
S3150000F0D0B81CF9F79DF9E0833F1DB81CA8420BD276
S3150000F0E03878082808D17A78112A05D2A276B91C70
S3150000F0F00DF12A00F9F710F9DFF824054079012807
S3150000F10003D1684600F013F80DE0DFF8300600780A
S3150000F110012803D1684608F013FE04E0052804BF61
S3150000F120684615F0ECFD12B0BDE8F08100BF2DE990
S3150000F130F84FDFF8E894DFF8E8448046B9F80600AF
S3150000F14008F1200700F053FB94F9020097F9061026
S3150000F1500CBF4FF0010A4FF0000A8842F879B4BF9D
S3150000F16001250025421E9241D20F8DF80120E1783B
S3150000F1704A1E9241DFF89C1C0978D20F8DF80020B8
S3150000F180062962790CBF01260026012A09D1022828
S3150000F19007DBB878032804D1072903D198F8400083
S3150000F1A078B989E0387938B1B97E080004D008F119
S3150000F1B02A0014F08BFF20B9A07B00F047004728F7
S3150000F1C07AD10022082104F12400F9F787F978B9E9
S3150000F1D00022082108F11800F9F780F940B9082241
S3150000F1E008F1180104F12400F9F7FFF8002863D1AB
S3150000F1F0A07BDFF860B4C0070CD50022102158466A
S3150000F200F9F76CF930B9102241465846F9F7EDF88E
S3150000F210002851D1A07B40070CD5002208210BF114
S3150000F2202000F9F75BF928B900F048F8F9F7DDF89E
S3150000F230002841D1A17B09070BF1280003D50188DD
S3150000F2403A88914238D19DF801109DF800209DF82A
S3150000F25000302940324311409DF80120324382F0AC
S3150000F26001022B4341EA0A011A40114324D0F978DE
S3150000F2708170B979A17039880180414600F0C8F9DA
S3150000F28007280CBFF88BB88B20801022F879E07025
S3150000F2905846F9F741F800F011F8F9F73DF84FF63E
S3150000F2A0FE70A9F8060008F1180104F11C00BDE87B
S3150000F2B0F84F0822F9F730B8BDE8F18F082208F1B7
S3150000F2C010010BF12000704738B5DFF8884304F1D0
S3150000F2D02805A878FCF777FA2888FDF7CFFF04F110
S3150000F2E0200000F06DF92046BDE83440102199E178
S3150000F2F0F0B5020085B040F09180C94DD54C6879D3
S3150000F300012833D10022082105F11C00F9F7E6F89F
S3150000F310B8B9FFF7D9FFE87970B100F079F9062896
S3150000F32008D10022082104F11800F9F7D7F808B12E
S3150000F330062002E0072000E0022005B0BDE8F0400C
S3150000F340A6E5287A68B1FFF7BFFF1AF010FB012087
S3150000F35017F00CFE0720687105B0BDE8F04000F01C
S3150000F360EDBC05B0BDE8F040022011E5022903D14D
S3150000F37005B0BDE8F040E3E1042904D105B0BDE8DD
S3150000F380F04015F06FBC032941D1288AF9F7B7FC84
S3150000F390EB8903F00806320004F128014FF6FF77E7
S3150000F3A00FD14FF0000C00281CBF30F81C20BA42C9
S3150000F3B008D10CF101025FFA82FCBCF1080FF2DB06
S3150000F3C01CE00A88BA4218D018064CBF04F118008F
S3150000F3D0002003909B074CBF04F11003002300207C
S3150000F3E001900293102000902346CE7891F90410E4
S3150000F3F0A87A0496FFF770FC16E01EB905B0BDE8C2
S3150000F400F040D7E105B0BDE8F040702082E1052963
S3150000F4100AD105B0BDE8F04015F094BC022903D12D
S3150000F42005B0BDE8F04075E105B0F0BD7C48407917
S3150000F430062804BF0720FFF72BBD704738B5784D67
S3150000F4400446687903280DD10FF0B4FE1CB1BDE85F
S3150000F450324004201CE5092068714FF4FA61BDE8CA
S3150000F460344010E531BD6E484079022804BF0420BF
S3150000F470FFF78EBC70476A494979022909D130B134
S3150000F480DFF890090078062818BF072000E5042059
S3150000F4907EE47047DFF87C1C4A78002814BF42F0EF
S3150000F4A0010002F0FE0048707047DFF8680C4078F3
S3150000F4B06BE070B50C0086B00646DFF8145C03D12D
S3150000F4C01A20287000203DE068461421FEF7B0FBA4
S3150000F4D0112CA8BF102408208DF800008DF80140DB
S3150000F4E0224631460DF10200F8F716FFDFF8246CCC
S3150000F4F0A21C92B2694606F11A00F8F70DFF301900
S3150000F500122100F81C1F02214170DFF8241C0A8812
S3150000F510120A82700988C170717809070ED50F2109
S3150000F520017102214171DFF8F81C0A88120A827102
S3150000F5300988C1717078000748BF241D04F12000B6
S3150000F54028700120FFF7A6FF06B070BD10B50400B5
S3150000F55004D0FDF7C3FE08B1702003E0204600F09A
S3150000F56005F80020BDE8104008F092BDDFF8A41BA6
S3150000F5704A78002814BF42F0080002F0F7004870ED
S3150000F5807047DFF8900B4078C00800F00100704724
S3150000F59080B523484079022818BF03280CD00728D5
S3150000F5A00CD1DFF8700B4078C00705D416F00AFEC0
S3150000F5B090F85600400601D5012002BD002002BD8C
S3150000F5C001460822DFF86C0CF8F7A6BE10B5DFF886
S3150000F5D0B8432088000403D440F2375100F0A6FB5C
S3150000F5E0DFF8EC1A1A2008700321DFF8280B0170E7
S3150000F5F0417841F0200141702078C00703D400F023
S3150000F60007F8022803D1BDE8104012F0D3BB10BDA5
S3150000F610DFF800080078704700000000DC5D00207D
S3150000F620B475002070B50D46112D0446A8BF1025EF
S3150000F630DFF8E06A10220021B01CF8F7CFFE2A4658
S3150000F6402146B01CBDE87040F8F766BEF87500208C
S3150000F650377C00205475002038B5DFF8DC5BDFF816
S3150000F6602C4400206871E8724FF6FE70FDF7FCFD31
S3150000F67014F081FD4FF6FF70E0800822002105F1AD
S3150000F6801C00F8F7ABFEFF2020710020DFF8AC1B52
S3150000F690BD4D08702888C0F30E0028800DF05FFE6F
S3150000F6A010F0A9F8DFF8981B0020087012F06CF92A
S3150000F6B014F005F814F00BFB13F03FFC12F09EFB60
S3150000F6C00020FFF7E7FE0120207000F006F82888EA
S3150000F6D04FF6FE710840288031BD04F108000AF09B
S3150000F6E031BADFF8541B8861704780B5DFF89C1388
S3150000F6F0C9884FF6FF72914201D1002002BD014632
S3150000F700DFF8400B0BF007FD012002BDF05D002085
S3150000F7102C74002010B50446DFF81C1B002008825C
S3150000F720FDF7DCFD20B92046BDE8104008F0E9BA37
S3150000F730BDE8104001210020FDF7D4BD145E002075
S3150000F740F8B5DFF8F45A288AF9F7D9FAFF24002722
S3150000F750060014D00020315CA21F9142BCBF8C1D54
S3150000F760E4B2401C1028F6DB0020315CA142BCBF8D
S3150000F7707F1CFFB2401C1028F7DB380003D1BDE820
S3150000F780F2400120C6E70AF073FA90FBF7F107FB97
S3150000F7901101C9B20020325CA24206DA0A0002D187
S3150000F7A00B30A87204E0491EC9B2401C1028F2DBD7
S3150000F7B0BDE8F14070B5DFF8804A208AF9F79FFA74
S3150000F7C0054600260AF054FA00F011F81EBF002D77
S3150000F7D025F81600761C082EF4DBA17ABDE87040E9
S3150000F7E0012000FA01F10522032009F023BE4FF69D
S3150000F7F0FF718842704770B5044620000FBFDFF8DE
S3150000F800480A0120A0400843DFF82C1A98B0154694
S3150000F81048611E465E2200216846F8F7DFFD1E9904
S3150000F820082208A8F8F778FD324629466846F8F710
S3150000F83073FD1F9E102231460DF12D00F8F76CFD69
S3150000F8401D9D0822294604A8F8F766FD20998DF823
S3150000F8502A4030460CF0C8FD28460DF079FA1C986F
S3150000F86047214FF6FF7290421CBFADF828004F218A
S3150000F8706846FFF72DF918B070BD01461022DFF873
S3150000F880CC09F8F749BD38B50446DFF8AC5900F0A5
S3150000F8901CF820B12046BDE832401AF08EBB05F1B7
S3150000F8A0340032BD38B5DFF890590446687904282B
S3150000F8B002D100F00AF810B16879072804D1204671
S3150000F8C0BDE8324000F04CBD31BD0022102105F1EB
S3150000F8D03400F8F703BEDFF83C050078072805D0AA
S3150000F8E0DFF854094079022802D10320FFF7D0BA85
S3150000F8F0704710220021DFF85409F8F76FBD80B574
S3150000F900FFF7F7FFDFF830094079042804D1BDE896
S3150000F91002400520FFF7BCBA01BD0000407C002074
S3150000F92010B55A4C60791B2811DB0B20607104F16D
S3150000F93020000AF007F900F0F0F8DFF8FC180020C4
S3150000F940C8720021BDE810400420FDF7CBBC16F0BC
S3150000F95039FC5A3015F022F901466079C140C907D1
S3150000F96048BF11F0A0FC6079401C6071322104F19F
S3150000F9702000BDE810400AF095B880B5FBF720FFDF
S3150000F980DFF8B418087301BD42740020DFF8C4081C
S3150000F990704700003B7C002074750020002100E0C9
S3150000F9A001212DE9F041DFF89068044670790728B7
S3150000F9B00D464ED1F07ADFF8D48001000AD0062831
S3150000F9C018BF072845D108F10800BDE8F04100211D
S3150000F9D00AF068B8DFF880783878002814BF00206D
S3150000F9E00220B071280028D100F0B9FB0720707101
S3150000F9F0DFF868080188C1F30E01018000F02BF8DA
S3150000FA004FF6FF70A8F80600DFF808040078022811
S3150000FA1018BF12F039FC0822002106F11C00F8F785
S3150000FA20DDFC387848B911F0AFFFDFF81018002078
S3150000FA3008704FF6FE70FDF717FCDFF81468802299
S3150000FA4000213046F8F7CAFCB4703571BDE8F041C4
S3150000FA501EE0BDE8F08180B514F08DFB0DF07FFC53
S3150000FA600FF0C9FEDFF8D8170020087013F027FE44
S3150000FA7014F02DF913F061FA12F0C0F9DFF8DC0783
S3150000FA8001884FF6FE721140018001BDDC5D002049
S3150000FA9038B5DFF8A417A44CDFF8B4570020C872B5
S3150000FAA0FF202071FFF719FE01206870082202204E
S3150000FAB0287000214FF6FF702881A5F8440005F153
S3150000FAC00A00F8F78BFCFFF7A3FDE87020F0800032
S3150000FAD0042807D101210320FDF7F4F904F11400ED
S3150000FAE00AF030F8DFF870070078BDE832400028E9
S3150000FAF014BF02200120B9E08402010080B5DFF8BE
S3150000FB0060070AF01FF800F008F8DFF82C1700204D
S3150000FB10C8721220BDE8024040E7DFF83407C0781B
S3150000FB20FFF794B8E45D0020CC7700202DE9F04182
S3150000FB30DFF80457DFF81847EF7A16F043FB002882
S3150000FB400FBF012690F85600400900F00106207903
S3150000FB5010B10020E8727CE0022FDFF8CC8121D1C1
S3150000FB602078010032D0401EDFF8EC162070C0B2BB
S3150000FB70097880B900291EBFDFF8E806007800285A
S3150000FB8003D011F001FF022020700020DFF8AC1630
S3150000FB900870012003E0002914BF02200120BDE8FF
S3150000FBA0F04163E0A879010018BF012F0ED0401E76
S3150000FBB0A8710AF05DF8617800F050F800F0BAF824
S3150000FBC00420E87260788000607042E0FDF786FBF2
S3150000FBD0052804BFA078142808D117F0D7F828B153
S3150000FBE00020E87217F071F815200BE0FDF776FBA0
S3150000FBF005280AD116F020FB38B10020E87217F06C
S3150000FC006AF81620BDE8F041C8E6FDF767FB05284F
S3150000FC1012D1FFF7FDFC022818BF06280CD15EB1F1
S3150000FC2019F0A5FE0020E872FDF7FCFEBDE8F041E4
S3150000FC3000210320FDF756BB17F0D1FD0CF082FD25
S3150000FC400820E872002108F12000BDE8F04109F023
S3150000FC5029BFBDE8F0810000400D03004FF47A7221
S3150000FC60514390FBF1F201FB120170472DE9F0417F
S3150000FC700646DFF8B48086B008F1080009F062FF96
S3150000FC80DFF8B455012EEE7204D045D3032E0FD003
S3150000FC9006D341E0002011F007FA40F2EE2104E01D
S3150000FCA0012011F001FA40F2E24100F043F837E09A
S3150000FCB0DFF89C6501A906F10A000BF02CFA41F663
S3150000FCC0583100F037F8F41C524F2078FEF7BEFF8B
S3150000FCD03878042808D1DFF890150120087096219D
S3150000FCE008F1140009F0DEFE607830B9082206F14A
S3150000FCF00A0105F11C00F8F70FFB387896F8312059
S3150000FD0004280CBF012300230020009006F12101E6
S3150000FD1001A811F03CFA03E040F6180100F006F8DD
S3150000FD2006B0BDE8F0810000DC5D00200FF2545003
S3150000FD30F4F7F6BC08F1080009F0B4BE2DE9F0416D
S3150000FD40344D2878062882B003D140F61E01FFF70D
S3150000FD50EDFFDFF8E444DFF81465DFF8F4840020F3
S3150000FD60E07208F1020706F1080009F0EBFEFFF762
S3150000FD7035F9B87818B1FFF76EFE11F005FEDFF819
S3150000FD80C004007868B9F88808F10A010AF008F892
S3150000FD9008F134010A7B8B6800924A6809680AF008
S3150000FDA09DFC2878042804D1DFF8BC1400200870D4
S3150000FDB012E002280CD1DFF8A4040078C00758BF6F
S3150000FDC01AF090F938781AF05DFB19F0BAFD03E0E5
S3150000FDD0032808BF1AF086F9FDF724FE38781228A2
S3150000FDE006D10B20707106F1200009F0ABFE0CE085
S3150000FDF011280AD1FBF7E4FC0146207B884204D097
S3150000FE004FF47A72032116F0F7FABDE8F34116F0C3
S3150000FE1017BA00003E74002070B5DFF81C44DFF806
S3150000FE203004E17A491E062900F108054FF6FF76EF
S3150000FE3051D8DFE801F025393E1950040C000020A6
S3150000FE40E0724FF6FE70DFF82814088008E0DFF84D
S3150000FE501C5405F1140009F075FEEE800020E072D6
S3150000FE601420BDE8704099E5C01C417811B100200E
S3150000FE70E07270BD0078FEF7E9FEBDE8704007E667
S3150000FE802888B0420ED0A87C022803DA287E2028D3
S3150000FE9008DB01E003281ADADFF8D813287E097890
S3150000FEA0884214D2022013E02888B0420FD10220E3
S3150000FEB003E0A98FB14203D10320BDE8704035E6C7
S3150000FEC000F144013C222846F8F726FAAE870320C3
S3150000FED0BDE87040CAE6BDE8704040F6AB010FF2DF
S3150000FEE0A430F4F71DBCD449C97A032905D10028EA
S3150000FEF018BFFFF723BF032018E6704738B50D4635
S3150000FF0004462888FFF773FC27D02B7E217E05F157
S3150000FF10130204F1130019F0AEFD10B101281EDB27
S3150000FF201BE0A17CA87C884221D12888C0F3090067
S3150000FF30411E20888941C0F30902501E8041C00F2E
S3150000FF40B0EBD17F15D1E868E26801021302090E11
S3150000FF501B0E8B4205D0994201DA012032BD0020EA
S3150000FF6032BD0BB9904202D1298A228A9142804140
S3150000FF70C00F32BD70B5154682B004461E463C22FF
S3150000FF80F8F7CAF92846FEF7F3FB01460822A01C3B
S3150000FF90F8F7C2F9B27B716B04F11900F8F7BCF9F6
S3150000FFA0B07B84F829000020B16EF8F761FA44F8B6
S3150000FFB02C0F0020F16EF8F75BFA606068460CF0D3
S3150000FFC09DFA28B170680099814238BF0CF02DFA6D
S3150000FFD07068A060B07C207373BD2DE9F04F8B462E
S3150000FFE00BF11C0691B08046B06D0190022140468F
S3150000FFF00BF1C004F9F7CEF825680746294600201C
S31500010000F8F736FA814695F806A06A7901985146BD
S3150001001019F06AFD10B917F01EFB55E030880199F9
S31500010020ADF8080005220DF11B00F8F775F98DF8FA
S3150001003020A078B20AF03CFA07460AF061FA247960
S31500010040824620460AF05CFA0546308880050BD1C7
S3150001005089480268100007D069460BF113009047E2
S3150001006010B19DF8000003E05046A84288BF28461B
S315000100708DF81A00E019ADF8180029F07F400590B7
S315000100809DF81A0000B3724E06F1080102A8FFF7A7
S3150001009035FF60B13C2206F1080106F14400F8F78C
S315000100A03BF95B46424602A906F108000AE006F161
S315000100B0440102A8FFF722FF30B15B46424602A97E
S315000100C006F14400FFF756FF11B0BDE8F08F0000BE
S315000100D0C472002070B5044608465749C97A0329F7
S315000100E015460CD15A4E082206F10A01F8F77DF998
S315000100F028B9F06BA84204D1706B844205D2002066
S3150001010070BD3CBF281A4028F9D27463F5630120FB
S3150001011070BD0000C87200204D48836B934201D325
S31500010120002070470181511C816301207047000046
S31500010130DE5F002080B5FDF795F84D49088000F097
S315000101400EF83D48072141710621C17240F2DC518A
S315000101504A4809F0A7FCBDE8014010F07BBF002129
S315000101600520FDF7BFB87FB53348C17A062927D1E7
S315000101700021C17200253948414E018841F40041F0
S3150001018041F00101018003200021FDF7ABF83B4856
S3150001019009F0D8FC12F0C7F811F00CFE12F084F940
S315000101A004460AE03268694602EBC5000AF0B3FF6D
S315000101B00221684611F08BF86D1CEDB2A542F1DB08
S315000101C07FBD10B5FFF7CBFF1B48284C07214171B6
S315000101D0C172FDF747F800F47C40E080FFF718FA9A
S315000101E0042804D1002104F1140009F05BFC11F08C
S315000101F095F804F10800BDE8104040F2DC5109F021
S3150001020051BC80B50C48C17A072908D10021C172B9
S31500010210FEF7E5FEBDE80240184809F093BC01BDB2
S31500010220E05F00200448C07A072804BF0A20FFF7D0
S315000102307DBC7047DA720020B4750020B2730020CD
S31500010240B1730020D075002000F8FF07E875002083
S31500010250F8750020027600205078002042740020B4
S31500010260FC5D002036780020407C0020DC5D00200B
S31500010270F85E0020255F0020F8770020E45D00206D
S31500010280F85A00206A6F696E2E63000070B515F08A
S3150001029099FF304C90F8560000074CBF2578002591
S315000102A0284609F07DF806000BD009F0B5F82A4674
S315000102B0211DF8F731F83046BDE870400121FBF702
S315000102C024BA70BD30B585B00446F8F718FD451D52
S315000102D0284609F0DFFC285C072821D1FCF7C2FF7C
S315000102E04FF6FF7188421EBF1B4C207803282ED083
S315000102F0042818BF07282AD0184D284609F02EFBD6
S3150001030028BB2078062802D017F0A5F9F8B109F024
S31500010310AFFC00F07F00411C284609F0C3FB16E044
S31500010320042814D12046FEF71CFAB0F5404F2046AA
S3150001033005D1FEF71DFA69460AF0EDFE04E0FEF767
S3150001034033FA69460AF0C1FE684611F00FF805B0A6
S3150001035030BD0000C47200203E740020385D0020CC
S315000103602DE9F04794B080460121F8F713FF824644
S3150001037002214046DFF8A87CF8F70CFF38704046AA
S31500010380FEF737F9072804BF97F90000F7F7C0F819
S3150001039001F071F800F00500042803D140460AF087
S315000103A0F4FDDDE005214046F8F710FF0006C00E1A
S315000103B010F0010533D0404609F0F5FE0AF021F9A7
S315000103C06946404619F037F848B3FCF74BFFBDF8CC
S315000103D0041081422ED14046F8F791FC81464046F1
S315000103E0FEF7DAF804464046F8F7A1FC9DF800103E
S315000103F0001B461AF6B209EB040032460144F7F730
S315000104008BFF311989B24046F8F7AAFCBDF80210F4
S315000104104046FEF710F901F02EF801F027F84046A4
S315000104200DF080F810B340460DF090F85FEA000831
S3150001043013D195E09DF801000228FADB404619F038
S3150001044020F84FF6FE714046FEF72DF900230022F3
S31500010450FF21404600F0A4FC82E052460121F8F754
S31500010460A0FE3A7802214046F8F79BFE02A94046D3
S3150001047018F0BEFF002873D00DF113000CF01DFC1F
S3150001048000286DD1002210210DF12300F8F726F87E
S31500010490002865D19DF82300FF280CBF14201220E7
S315000104A00121FBF7CEF825B102A9404600F03FF93C
S315000104B056E0DFF8A85C287850B102A800F079F878
S315000104C030B16A6810004BD041460020904747E0A2
S315000104D09DF83800112843D102A81AF0CDF9002859
S315000104E03ED0DFF87C2CBDF84C00128890421EBF2E
S315000104F0DFF8702C128890421EBFDFF86C2C128830
S31500010500904219D10DF123000AF014FE40B30DF10A
S315000105102B000AF090FD20B90DF12B000AF0AFFD7A
S31500010520F0B10DF113000AF005FEC8B1002202A9CF
S3150001053040460EF057FE13E044F64C5188420FD167
S315000105409DF82300FF280CBF0022424602A940461F
S315000105500FF0E0FA20B1404609F025FE0AF051F805
S3150001056014B0BDE8F087F0B593B00FF20C64DFF874
S31500010570B05ADFF8E86C15E00021304602F066F863
S3150001058007466FF07F0028706946384618F030FF3D
S3150001059020B940F209112046F4F7C2F869463846F7
S315000105A000F0C5F8304602F003F80028E4D013B095
S315000105B0F0BD38B5DFF8A84C218801B300F130054C
S315000105C02978112909D11AF057F930B12088698A99
S315000105D081421CBFA98A81420FD0287806280ED1F4
S315000105E06868F7F718FF2188884206D06868801C7A
S315000105F0F7F711FF2188884201D1012032BD002081
S3150001060032BD2DE9F041DFF8544B0546207894B010
S315000106108846B0B32846FDF7ECFF032831D008F130
S315000106201B0708F13406787D3A280DD13068007829
S31500010630B074643825D02138032822D9163820D041
S31500010640801E01281DD911E011280FD140461AF04C
S3150001065013F958B1308A44F64C5188421FBF40F213
S31500010660222188424FF2BF0188420AD069463846A4
S315000106700AF032FD38B1FCF7F5FDBDF800108842ED
S3150001068001D100201AE03878FF280CD12846F8F766
S3150001069090FD050011D001A918F0AAFE01A928466E
S315000106A000F06FFD03E04146284600F06AFD6268EE
S315000106B0100002D0294600209047012014B0BDE861
S315000106C0F0812DE9F04780460D46FDF778FF064695
S315000106D0686BB11D471A4046F8F729FB0446301DE1
S315000106E0F7F799FE81464046F8F709FB696B611AEF
S315000106F000EB010AE86A2838B11D8842BFB203D06F
S3150001070040F2671100F034FA696B1FFA8AF2B01DE4
S31500010710F7F702FEE11B89B24046F8F721FB301DCF
S31500010720A9EB0701BDE8F04789B2F7F77EBE2DE9CF
S31500010730F84380468946FEF767F80646484612F0B2
S3150001074043FBC8B94FF6FE75AE42DFF8D478DFF841
S31500010750E84C03D009F10B0020607E8049464046F3
S3150001076000F00CF8002121607D8028B14946404601
S3150001077000F004F80028F9D1BDE8F1832DE9F04F26
S3150001078082468B4697B00BF11B000AF0F8FC064631
S315000107900BF11B001AF002F9814666B95046FDF7C6
S315000107A018FF000707D50BF11B0012F00AFAFF2804
S315000107B018BF012500D100255046FDF70AFF0007A5
S315000107C00BF10907DFF8584818D5002E08BF002D90
S315000107D014D1B87CFF2811D00BF11B010BF10B00D2
S315000107E012F071FF50B9608869460AF06EFC5346F3
S315000107F06A46002101201AF0A7FA01E155EA06002E
S315000108004FF6FE782AD05046FDF7FEFF05464545D0
S3150001081009D15046FDF7A5FFB0F5004F03D150466B
S31500010820FDF705FF0546454518D0284611F0F2F8B3
S3150001083018B1284612F014F980B10BF10B000AF039
S3150001084065FC20B90BF10B0017F083FA30B10123D7
S315000108502A460BF11301002013F0E4F95046FDF787
S3150001086080FFFF25B0F5404F504604D1FDF780FFCC
S3150001087000F01AFB09E0FDF774FFB0F5004F05D152
S315000108805046FDF791FFF6F79DFD054694F90010D8
S31500010890284611F018FF59EA06004DD00BF12C003D
S315000108A0017929293ED13978002902BF006880786B
S315000108B06D282DD15046F8F73AFA0021F8F735FBA5
S315000108C00028814699D05046F8F731FA0446504639
S315000108D0F8F715FA05464846F8F711FA2246294669
S315000108E0F7F71AFD04A9484618F082FD04A94846FF
S315000108F0FFF7E7FE04A9484618F07AFD04A9484621
S31500010900FFF77FFE30BB04A9484600F0A0F821E0BE
S3150001091059465046FFF7D5FE5946504618F068FD30
S3150001092001206EE059465046FFF76BFE90B95946D5
S31500010930504600F08CF80DE0DFF8000B0078022835
S3150001094008D17878022805DA5B4652460021032051
S315000109501AF0E4F900F05FFB00F0010080F00100FD
S3150001096030434DD1787802284ADB0BF10B000AF0AF
S31500010970E1FB002844D10BF11B000AF0DBFB002848
S315000109803ED1002210210BF10B00F7F7A7FD00283D
S3150001099036D10BF11B000AF01DFC88BB0BF11B00C5
S315000109A00AF01FFC60BB0BF11B000AF0F3FB38BB1E
S315000109B07878401E78705146584618F023FD504607
S315000109C0FDF70EFEB87CFF2810D14FF6FF71504699
S315000109D0FDF769FE09F04CF9DFF8642A1278012166
S315000109E09140491E01EA0003022205E041465046B4
S315000109F0FDF759FE0023FF225946504600F0A6F99D
S31500010A00002017B0BDE8F08FF8B504460121F8F7CC
S31500010A101CFADFF8485810B90022214611E00121DD
S31500010A202046F8F751FA06460021F8F77EFA070044
S31500010A300CD0F8F764F932462146F8F7F4FA0022A9
S31500010A4039462846BDE8F84001F0CFBDF1BDF8B5FD
S31500010A500D4605F13006044637783A2F13D0112F8B
S31500010A600FD17068801DF7F7D6FC60B92888B0F5FC
S31500010A70A06F0FDD2B462246002102201AF04EF907
S31500010A80F1BD062FF2D12946204619F02BFE00288A
S31500010A90ECD0F1BD694605F11B000AF01DFB08B358
S31500010AA0BDF80000DFF89C19081808281AD2112F82
S31500010AB05DD1DFF89419BDF80000097800F0070050
S31500010AC001F00701884252D1FCF7CCFBDFF87C1913
S31500010AD0098888424BD1284619F0CEFE284614F0E3
S31500010AE02AFEF1BD062F39D0112F15D0292F3AD064
S31500010AF03A2F3CD12888042839DB70680078B07514
S31500010B00042170684078F075284619F0A5FD29463C
S31500010B10204600F054F8F1BD284619F0ADFE30B379
S31500010B202046FDF766FD032804D12946204619F023
S31500010B30B7F9F1BDB08A44F64C51884209D1E87E35
S31500010B40FF280CBF00222246294620460EF0E2FF6E
S31500010B50F1BD294620460DF0FFF9F1BD2946204693
S31500010B601AF019F9F1BD40F2772100F001F8F1BD53
S31500010B700FF20400F3F7D4BD64697370617463689E
S31500010B802E63000070B50D460446E86BB0B12046F1
S31500010B90F8F7B5F806462046F8F7C9F8EA6BB5F84E
S31500010BA040103044801A814203D040F28221FFF77F
S31500010BB0DFFF2846BDE87040FAF737BD70BD2DE965
S31500010BC0F041884608F13C0598B006462868002899
S31500010BD078D0A97A012956D080296FD1414630466D
S31500010BE0FFF7D0FF08F11B000AF0C9FA070008D089
S31500010BF0102208F11B010DF12300F7F78DFB0024EC
S31500010C0000E008243046FDF7E4FCC00648BF44F086
S31500010C1020043046FDF7DDFCDFF834683388C00672
S31500010C20A88848BF44F02004834208D2C21A286823
S31500010C3092B200211844F7F7D1FB3088A880002F23
S31500010C40A888059014BF08F11B03002328680490A7
S31500010C50224600200390002181200290402001902D
S31500010C6008F10B00009006A819F028FE040029D00F
S31500010C70FDF7B6FC00200090FF23012206A92046BD
S31500010C8000F023F81EE000F11C056A468021284683
S31500010C901AF0EDF8B0B100F0BEF9000712D5002147
S31500010CA028460AF019FA68B99DF8000001230022C6
S31500010CB005F1080113F08AF8012803D141463046AF
S31500010CC0FFF760FF18B0BDE8F081F8B504460D46A0
S31500010CD016461F4619F058FD05F11B000AF04FFA9A
S31500010CE020B905F11B000AF075FA30B11EB100F00A
S31500010CF0DFF80120F2BD0020F2BD36B105F11B007F
S31500010D0019F04CFE08B100F0D3F8069B3A46294685
S31500010D10204601B0BDE8F04018E038B504460D465E
S31500010D2005F11B000AF0C2F918B100F0C1F8012063
S31500010D3032BD05F11B0019F031FE08B100F0B8F81B
S31500010D4029462046BDE834400023FF22F8B5044673
S31500010D5001F11B0715461E4638460AF01BFA18B95B
S31500010D6038460AF027FA28B1F87B012804BF204645
S31500010D7008F014F938460AF034FA18B938460AF078
S31500010D8009FA10B1FF2D08BF0025324629463878E9
S31500010D9001B0FF282046BDE8F0400CBF0123002327
S31500010DA02DE9F0410D46FF2D92B0044616461F4629
S31500010DB008BF0225FDF70DFCC0074FF6FE781CD5CE
S31500010DC02046FDF71EFCB0F5006F16D100F02AF99A
S31500010DD0404504D02046FDF7FCFB80060DD50021D9
S31500010DE0204600F03FFA00285BD0012805D11722E2
S31500010DF0062120460CF092FA2FE0002F14BF152091
S31500010E0013200121FAF71DFC05212046F8F7DEF92A
S31500010E1000070CD46946204618F0EAFA38B168464C
S31500010E20FFF7C7FB00F0010080F0010700E0012792
S31500010E302046FDF7E6FBB0F5006F03D0B0F5406F35
S31500010E4013D029E000F0EEF8404508D1C3484268C6
S31500010E50100002D0214600209047012021E000F039
S31500010E60E1F811F0F1FD38420EE02046FDF7D0FB26
S31500010E7000F01AF8FF280FD0DFF8D815096811F825
S31500010E801000400708D5002F06D0204607F0CFFDF9
S31500010E90401E8041C00F04E03246294620460CF030
S31500010EA03DFA12B0BDE8F0810146002011F0CCBA3E
S31500010EB029462046A8E538B5044625882846FDF783
S31500010EC088FB00F0050004283CD02846FDF781FB8D
S31500010ED0C00726D52846FDF794FBB0F5006F20D153
S31500010EE02846FDF7A4FB4FF6FE71884204D028463A
S31500010EF0FDF76FFB800614D50121284600F0B2F9F3
S31500010F0068B101280DD1A17801F00F01C1F10601E7
S31500010F108840172110FB01F0A080BA2032BDA9201C
S31500010F2032BD2846FDF765FB01280BD1284610F096
S31500010F3052F8010002D02080182032BD20880028F6
S31500010F40FAD132BD002032BDF8B504460D466E1EFB
S31500010F50B641FDF756FB074605212046F8F736F957
S31500010F60F60F00F00700032815D12046F7F7C7FE54
S31500010F70441D204608F08EFE205C04284AD1FCF769
S31500010F80ADF9032846D10EB119F073F92846BDE82B
S31500010F90F24006F07DBF3EBBB7F5006F3AD100F0D7
S31500010FA041F8402D064615D100F035F8C00711D598
S31500010FB0B0050FD12046FDF70CFB0007354603D5DA
S31500010FC0304611F0DBF80546284609F061F80021A4
S31500010FD008F0D5FF4FF6FE7086421BDABDE8F440F5
S31500010FE001210920FAF72DBBFF20B7F5404F05D1A6
S31500010FF02046FDF70DFBFFF757FF06E0B7F5004F5B
S3150001100003D100F00FF8F6F7DDF9BDE8F440002151
S3150001101011F059BBF1BDDFF84004007870470000BC
S31500011020E45F00202046FDF702BB38B50446FDF714
S31500011030E8FA0546DFF804040078032818BF0428F7
S3150001104005D0022812D1FFF7E6FFC0070ED42046CD
S31500011050FDF7BFFA00071AD4B5F5006F08D1FFF7FF
S31500011060E1FFDFF8F8130988884210D0002032BD6D
S31500011070B5F5406FFAD12046FDF7CAFA0822DFF826
S31500011080E013F7F7B2F9401E8041C00F32BD0120CF
S3150001109032BD2DE9F84381460E46FDF7B2FA002529
S315000110A00746B7F5006F03D14846FDF7C0FA01E0E0
S315000110B04FF6FE70002FDFF8AC73DFF8AC431BBFB1
S315000110C04FF6FF7188424FF00108A84639786068EB
S315000110D0491C081860604846FFF7A7FF58B1402E23
S315000110E008D12078401C2070C0B2042803DB0720F9
S315000110F0FEF754FC2570300006D10125B8F1000F2A
S315000111000FD001210B2015E0312E08BF0026F5D0A6
S315000111108D2EF3D1B8F1000F14BF0C200820012148
S3150001112008E030000CBF062007200121FAF789FAF2
S3150001113039780A20FAF785FA3146484607F0E4FF7E
S3150001114050B9314648460CF021F928B92A463146AC
S315000111504846BDE8F843F7E6BDE8F183CC770020C1
S31500011160DC5F0020DE5F0020E05F002038B504462A
S315000111700D460CF0DDFD29462046BDE8384000222B
S31500011180E2E6F8B50D460446687AE8B9288805F11D
S315000111903007A0F108067968E86AB2B2F7F7BCF839
S315000111A0E86A78602E80387868722046F7F7BFFDC6
S315000111B0A0F1080189B22046F7F7D2FD214628465B
S315000111C0BDE8F44018F01EB9F1BD30B5054605F489
S315000111D07F40B0F57C4F85B04FF6FF743BD1B5F536
S315000111E07C4F02D116F087FB36E04FF61040854260
S315000111F019DA102200216846F7F7F0F86946E8B2D5
S3150001120019F01CFE402826DB00224021684616F014
S3150001121099FD4FF6FE75A8421ED1684616F095FD5A
S31500011220A84219D117E04FF63042954204DA05F08B
S315000112300F0016F05EFE0FE04FF6384085420ADADF
S3150001124082480088A04206D07F4B1B7803F0070333
S315000112501A43954200D0204605B030BD5E7B002082
S315000112605C7B00202DE9F04196B00D464FF6FF76E6
S315000112708046ADF8046002A918F0DDF8A8B3BDF800
S315000112800C00ADF8040010F0C5FB30B3BDF8040046
S3150001129011F0F9FBF0B94046FDF791F99DF80810F8
S315000112A00844851DBDF80A0004A909F00EFF404651
S315000112B0F7F73DFD06464046F7F721FD711B40183D
S315000112C080B200902B4604AA0021012019F0E6FC09
S315000112D00020AEE0BDF80C7091E0BDF80C0010F0F6
S315000112E04DFF0746B742F7D1F2E75B4C5B4F2078DB
S315000112F000073FD504A9404618F07AF80DF12B00F6
S3150001130011F05FFCFF2803D011F08DFB074676E054
S315000113100DF12B000BF0FAF928B90DF12B0016F09F
S3150001132018FD002850D001A90DF12B0009F0D4FEBB
S31500011330E8B1BDF8040010F06DFB0028C8D1BDF876
S31500011340040000F47F40B0F57C4F07D1BDF80400DE
S31500011350FFF73BFFB042ADF80400B9D0BDF8040079
S3150001136010F00CFFB04223D0BDF8047043E02078A2
S31500011370000704D439884046FDF795F958E06A46D6
S3150001138080210DF12B0019F072FD002851D09DF836
S31500011390000001230DF102020DF1330112F016FDD9
S315000113A0022846D1BDF8020010F0E8FEB04201D194
S315000113B001203EE0BDF802104046FDF774F900F049
S315000113C05AF800F053F833E00DF11B010DF12B0033
S315000113D016F033FD06464FF6FE77BE4223D0FBF7E5
S315000113E041FF864218BF374605D10DF11B000BF0B0
S315000113F05FFA002817D000F03EF800F037F800F049
S315000114003AF8800610D54046FDF711F9394688426B
S3150001141008BF002D08D1BDF8040008F009FE01211E
S315000114201E20FAF70EF953E739464046FDF703F950
S31500011430022016B0BDE8F081D47700203E7400206A
S31500011440FC5F0020D003FFFF767400207A74002031
S31500011450E85F0020F05A002042740020E25D00207F
S31500011460D07500203A7C0020D877002040F0080192
S315000114704046FDF7B1B84046FDF7ABB810B5DFF809
S31500011480004BDFF8003B2488001B06E010B5DFF8AF
S31500011490F84ADFF8F03A24681B1B03EB40000023EF
S315000114A004E030F8134021F813405B1C9342F8DB4B
S315000114B0002010BD2DE9F04182B004460D461646C6
S315000114C00027DFF8C08A01E0BF1CFFB2B74217DA76
S315000114D0E819E95D4078DFF8A83A1B8801EB00209E
S315000114E0ADF80000012207EBD77004EB6000C01ACB
S315000114F000F09DFB0100E7D0F5F7BFFF002000E0FB
S315000115000120BDE8F681F8B504460F4615460026CA
S315000115100DE000F019F8BDF8000004EB4601000AE1
S3150001152048707F1CBDF8000004F81600761CB6EB67
S31500011530550FEEDBE80706D500F006F8BDF800000A
S31500011540611901F8010CF1BD01226946B8B295E7AE
S31500011550DFF82C2ADFF82C1A1288801A01EB4001D9
S315000115600220FBF7E5BADFF8241ADFF8242A095C22
S31500011570125CDFF8203A185C10B102F5997292B24A
S3150001158041EAC21080B27047DFF8003ADFF8082A54
S315000115901B5C012B1CBF32F81000081802EB40003F
S315000115A0704738B50C46DFF8F4190D782A462146FE
S315000115B0FFF764FF208801001CBF4FF6FF718842C8
S315000115C00BD0012000E0401CC1B2A94207D2C0B233
S315000115D034F8101022889142F5D0002032BD012046
S315000115E032BDF0B5DFF8A01987B008600C22694654
S315000115F00020FFF74BFFBDF81600BDF80C2003468F
S31500011600040A012000254FF6FF763DF81570BDF856
S315000116100010B94203D1B74218BF002F00D10020F4
S315000116206D1C062DF1DBB21A914218BF0020DBB208
S31500011630C4F1FF018B4218BF002007B0F0BD2DE9B0
S31500011640F24F0446DFF858690020307070809CB074
S31500011650DFF850090088ADF8020007A9FFF7A1FFDE
S3150001166083460120707009A9DFF83C090588DFF877
S315000116703C09B0F80080DFF808090788BDF802A028
S315000116803846FFF78EFFB8B1BBF1000F3DD0BDF86C
S315000116901C10BDF824004FF6FE72914202D10128BA
S315000116A004D10CE0012908BF90422ED00846BDF8AE
S315000116B02410884229D202E0BBF1000F24D0002079
S315000116C07070029750460695CDF810800122DFF81A
S315000116D0CC1891F800804044ADF806006946BDF883
S315000116E00600FFF7CBFEDFF8C808008805904FF625
S315000116F0FF79BDF80000000B404518BF0F2801D146
S31500011700200021D0002516E0012470780028D8D0C9
S315000117103846CDF808A0CDF818800495D6E7059887
S3150001172005FB00F4E01900F051FCBDF80200201899
S3150001173000F04CFC6D1C4545F1DB012030704D205D
S31500011740F5F79BFE0025F7E0BDF80650012201A939
S315000117502846FFF793FEBDF80400C04300F0FF00E2
S31500011760ADF804006F1CDFF84C080588BDF80400CD
S31500011770A84218BF01244FF0000A20E0401CC1B264
S31500011780A94218D2C0B2DFF83018BDF80E20834640
S3150001179031F81B109142F1D1FFF7E5FE4FF680714A
S315000117A00840BDF80C104FF680721140884204BF04
S315000117B01C9800F80BA00AF101001FFA80FABDF887
S315000117C00400824507DA022203A9B8B2FFF756FEE2
S315000117D0BF1C0020D3E7002001E0401C80B2A842D4
S315000117E017DA1C99095C8142F7D0012411E02AF825
S315000117F01070BDF8060000EB4300401C00F0DAFA59
S31500011800BDF80200C0F3C710401C00EBD07007EB17
S3150001181060070498DFF880A7BFB287420EDA00F0AE
S3150001182099F8BDF80000484508D0030A00F07F0189
S31500011830BDF804007F1C834202DB012400252DE054
S31500011840002000E0401CA842D3DA1C9A125C9A429E
S31500011850F8D1C0B2FF28CCD0DFF83027125C7F293F
S315000118600CBF4FF0000C8C4694450BDABDF800C056
S31500011870DFF820E71EF800E04FEA0C6C4FEADC7C4B
S31500011880F44501D00124B4E7012AB0D07F293AF802
S31500011890100008BF00210818A9E76D1CDFF81C0716
S315000118A00088854204DA3AF815004845F5D1012445
S315000118B077800498BFB2874207DA00F04BF8BDF88B
S315000118C000007F1C4845F4D039E7002CFCD1029872
S315000118D001220BA980B2FFF7D1FDBDF82C004845C6
S315000118E00DD105E0401C80B2202813DB2034A4B2C0
S315000118F00699029A891A8C4205DB01203070002074
S315000119001DB0BDE8F08FA51820220BA9A8B2FFF7DC
S31500011910B5FD00200BA931F810104945E2D0A8B257
S31500011920FFF716FE203CA4B2E0E70298059905FBF5
S31500011930010000F04BFB6D1C4545F6DB01203070C4
S31500011940494600F046F818B100F035F90028D6D11D
S315000119500120D5E70122694638468FE52DE9F04297
S315000119600F46DFF85016DFF8285609888F420446DD
S31500011970164699460CD2DFF81416C95D30467F2803
S3150001198008BF0020884203DAE95D894500D11CB908
S3150001199040F2D54100F00AFA31463846FFF7F4FD28
S315000119A00188DFF8F005C05D60B1384600F02BFA1A
S315000119B0E95D012908BF207009D0022914BF206002
S315000119C0208004E04A462046BDE8F0429BE5BDE89A
S315000119D0F0822DE9F34FDFF8A805DFF8C01504887A
S315000119E0DFF8BC050978407883B000281ABFDFF814
S315000119F0B405008820460D18DFF8B8050088ADF853
S31500011A000800ADB2C04300F0FF0000EB013000F565
S31500011A105060ADF802002B1BDFF8680501220DF1BD
S31500011A20020100F0D7FA6E1C0100B6B23AD10025C8
S31500011A30DFF8847513E0E8B2FFF795FDADF8040011
S31500011A40331B37F81500ADF806000222DFF834051E
S31500011A5000F0BFFA010025D1B61CB6B26D1CBDF867
S31500011A6008008542E7DB002500E06D1CBDF8080093
S31500011A70854280F29B80DFF81C05405D8DF80A00E7
S31500011A804FF0000A1BE001220DF102011FFA89F055
S31500011A90FFF7F4FCBB19DFF8EC0400F091F9010043
S31500011AA009F101097AD17F1CFFB2B7EB1B6FEADBA3
S31500011AB0DFF80C05405D3618B6B20AF1010ADFF807
S31500011AC0CC04475D5FFA8AF0B842CED25FFA8AF15A
S31500011AD0E8B2FFF759FD80469DF80A00B8F8009074
S31500011AE0C00140EA0520ADF80000012FBDF8000055
S31500011AF00EBF40F07F005FFA8AFA4AEA0000ADF8AD
S31500011B000000311BDFF87C0400EB41004FF6FF714A
S31500011B10771C89451EBFBDF80010BDF81020914203
S31500011B20BFB219D19DF80C100029C6D00122694611
S31500011B30FBF73AF801003E4630D1DFF85404A8F825
S31500011B400060425DDFF87C0450F825103046FFF74F
S31500011B50B1FC0028ACD124E0DFF83414495D491CFE
S31500011B6001EBD1714FEAC15B01226946FBF71CF813
S31500011B7001003E4612D1A8F800609DF80A0098B10E
S31500011B804946E8B200F03FF90190331BDFF8F40350
S31500011B904FEA1B6200F01DFA010089D0F5F76DFCD2
S31500011BA0002005B0BDE8F08F00277DE7DFF8F003E0
S31500011BB046800120F5E7DFF8EC032DE9F0410688C0
S31500011BC0DFF8BC03DFF8D85304886878DFF8B483FC
S31500011BD0002882B012BF20463046264601226946B9
S31500011BE0FFF74CFCBDF8000001280CBF4FF6FE7054
S31500011BF0401EADF80000DFF8A40307783846471EFB
S31500011C0080B258B116FA87F0001B012200F00FF8D6
S31500011C100100F3D0F5F731FC002006E0687880F08A
S31500011C2001006870002028700120BDE8F681694630
S31500011C3008EB4000FAF7B8BF2DE9FE4F0D46DFF875
S31500011C40741309888842044617461E464FF0000958
S31500011C504FF001080CD2CD49095D38467F2808BFEF
S31500011C600020884204DACA49095D8E4200D11DB9B5
S31500011C7040F2F95100F09AF839462046FFF784FC04
S31500011C800190C74F787820B1C748B0F800A0BC488A
S31500011C9003E0C648B0F800A0C2483978008849B9BF
S31500011CA07988081AC84909888842B4BF4320442064
S31500011CB0F5F7E3FB01980188B648005DF8B12046C7
S31500011CC000F0A1F8012E08BF297803D0022E0CBF1F
S31500011CD029882968814267D001980088401E00F052
S31500011CE069F8B748065D7888AAF10101891B814226
S31500011CF001DB002837D1387868BB452046E00291E0
S31500011D00CB4622E002980BEBDB7300EB630000F09D
S31500011D10F3F805EB0B0015F80B10407801EB0020EA
S31500011D20711E8B4580B207D1BDF8001001F0FF018D
S31500011D3000F0FF00ADF80010BDF8001088420BF16D
S31500011D40020018BFC8465FFA80FBB345DADBB8F17B
S31500011D50000FC1D028E0BDF802100020FFF739FEC0
S31500011D6010B34FF0010978888949401C788080B208
S31500011D700A5D2946FFF79EFBB0B1814C7B8824881A
S31500011D8080485B1E00F01CF8010002D0F5F775FBD8
S31500011D900AE0B9F1000F02D0FFF70DFF20B101995A
S31500011DA07888088080197880BDE8F78F0FF22C209B
S31500011DB0F2F7B6BC01220DF1020180B2FFF75EBB5C
S31500011DC01B1B01220DF1020100EB4300FAF7ECBEE9
S31500011DD070B582B004460025192601226946A0B2D3
S31500011DE0FFF74CFBBDF80000641C20B14FF6FF71F4
S31500011DF0884203D004E06D1C761EEED168B276BD32
S31500011E00E84340B276BD38B50C46002100916049E1
S31500011E100D5C2A4621466846FFF775FB681C00EBF8
S31500011E20D07004EB600080B2FFF7D2FF0028009962
S31500011E3048BFC04341FA80F032BDF0B55D4909881B
S31500011E400446554883B0264630F816508C4202D2D5
S31500011E505048805D18B940F23D71FFF7A7FF4C4825
S31500011E60865D701C00EBD07005EB6007B8B2FFF71A
S31500011E70AFFF19280FD210FA87F0414F414B3F8827
S31500011E800021ADF80410C01B012201A903EB40009B
S31500011E90FAF78AFE60B129462046FFF7B4FF0090A3
S31500011EA03346401C00907F2269462046FFF7C4FE58
S31500011EB0F7BD70B53A48017882B00024D1B94078AF
S31500011EC0002814BF37482E480588344806780CE0A8
S31500011ED0284650FA86F000F00FF8BDF800000028F9
S31500011EE01EBF4FF6FF718842641C3046461EC0B2C3
S31500011EF00028EDD1E0B276BD0122694680B2FFF736
S31500011F00BDBAF8B5264C20780027002835D11C48E3
S31500011F100588607800281ABF224806882E461F4881
S31500011F2007783846471EC0B202281FDB304650FAF2
S31500011F3087F0FFF7E1FFBDF800000028F1D01C484B
S31500011F400088FFB207FB006000F040F80020ADF802
S31500011F500000BB190B485B1B0122694600F03AF8E9
S31500011F60010018BFF5F789FA3846F2BD3046FFF78A
S31500011F70EFFAF8B208B901202070F8B2F2BD0000FC
S31500011F8062AB030000E00300A4720020989C0300EA
S31500011F90889C0300789C0300706C002089AB0300C9
S31500011FA0487B002066AB030064AB030068AB03000B
S31500011FB060AB03006CAB03005C9C03006EAB0300DB
S31500011FC0A8960300A89F03006AAB030080B2FFF73F
S31500011FD0BFBA01A900EB4300FAF7E6BD73696D2D9F
S31500011FE0656570726F6D2D696E7465726E616C2EAA
S31500011FF0630000002DE9F04F85B080460E22FF21D7
S315000120006846F6F7EBF9DFF8A8A04222FF21504611
S31500012010F6F7E4F90E250027264CDFF89C90274EAB
S31500012020F05D19F807B0E15D401C00EBD07040107F
S3150001203001B11930401C00FB0BF2214830F8171092
S31500012040204892B2F3F768FEBBF1010F1CBF2AF8D4
S3150001205017505D447F1C0E2FE2DB1B480E2340F216
S315000120601C4240F28B21F3F757FE4FF4E040FFF795
S31500012070B8FA164D18B19D212846F2F751FB4FF4D7
S315000120808040FFF7AEFA18B19F212846F2F748FBC8
S315000120904FF48050FFF7A5FA18B1A1212846F2F7AF
S315000120A03FFB69464046FFF7CAFA05B0BDE8F08F27
S315000120B0706C0020789C0300989C0300889C0300A8
S315000120C05C9C03005C960300789603004C96030023
S315000120D072B61EF0080F08D01EF0040F0BD0DFF801
S315000120E048E0AEE8FF1F11480AE0DFF83CE0AEE841
S315000120F0FF1F0F4804E0DFF830E0AEE8FF1F0D4890
S315000121006946EFF309828EE8070086460A480B4CBA
S31500012110854501D3A54501D384F30888F2F718FB59
S3150001212084F30888F3F760FF04000020FDFFFFFF3A
S31500012130F1FFFFFFF9FFFFFF70490020085800205B
S3150001214080B500F00CF82A492A4A0968C1F308212A
S31500012150491CB0FBF1F0106002BD274870472748C3
S31500012160016801F00701022909D00AD3042901D027
S3150001217002D306E0224905E04FF4004103E021497C
S3150001218000E021490968C06EC0F30420401CB1FB80
S31500012190F0F070471B48006870471A4908601748F5
S315000121A0006800F00700022808BFFFF7C9BF7047A3
S315000121B01648016841F4700101601548416941F40E
S315000121C0005141610168890889000160416B490834
S315000121D049004163016A21F08051016270474FF461
S315000121E0004070474FF47A707047054800687047A1
S315000121F008410E40985B002000F0490294400E40D1
S31500012200945B0020905B00209C5B002088ED00E041
S3150001221040300E40890001EB401000F1844002601D
S31500012220704700F1806300F1C06019600260704779
S315000122303023464A584310440C3000F1806006E0D2
S315000122403023424A584310440C3000F1C060012249
S3150001225002FA01F1016070473D490A68920840EAB5
S315000122608200086070472DE9F04101F00308144629
S3150001227003270F21082C1D460CD2A60000FA06F2F0
S31500012280B1403448FFF7CDFF08FA06F207FA06F126
S3150001229031480DE0A4F10802960000FA06F2B140B9
S315000122A02E48FFF7BEFF08FA06F207FA06F12C4898
S315000122B0FFF7B7FF2A4621462A482B4DFFF7AAFF0B
S315000122C0069A21462846FFF7A5FF0120A04028616E
S315000122D02146079A2548BDE8F0419BE7F8B5044633
S315000122E0164630000D461F4607D0002F204602D065
S315000122F0FFF7A6FF01E0FFF79BFF30210F221348EE
S3150001230011FB04F1082D084405D2AB00416800F029
S3150001231015F8416006E0A5F108039B00816800F00D
S315000123200DF881604EB9002F2946204602D0BDE83E
S31500012330F44085E7BDE8F4407AE7F1BD9A4021EA29
S31500012340020206FA03F111437047000000A00040A3
S3150001235044A4004000A4004008A4004004A4004096
S315000123600CA4004010A4004014A4004028A400407E
S3150001237010B5DFF85411DFF85441E1610320206103
S315000123806061102121620021DFF84401A061A16290
S3150001239020666162E16221670422DFF83801606626
S315000123A01020A066E1666167E01D29A1F4F752F8E5
S315000123B00722DFF824112046F4F75CF82020A071EB
S315000123C010BD2DE9F843DFF80471064638788946D1
S315000123D0904608B9FFF7CCFF18207043384400F146
S315000123E0600600253769F468BC4212D2B068C51B85
S315000123F07068454588BF4546C1192A464846F4F7DF
S3150001240029F8B068EF198742A944A8EB050808BF67
S315000124100027E41B444588BF44463CB17068C11996
S3150001242022464846F4F716F86519E71905B13761EA
S315000124302846BDE8F283F8B504460D461646F4F77C
S3150001244087FA0746324629462046FFF7BAFF01E0DA
S315000124505254540004463846F4F7B7FA2046F2BD02
S315000124602DE9F84300F027F808B9FFF781FFF4F7E3
S315000124706FFA79690026182202FB06F3FB185B6ED8
S3150001248013B1761C8E42F7DB8E420CDA02FB06F1A3
S31500012490791800220C664D66C1F868800A67CA661B
S315000124A0C1F8749001E04FF0FF36FFE7F4F78DFABB
S315000124B03046BDE8F283054F044638780D4690460E
S315000124C09946704754E70000506C002000600020D8
S315000124D038960300606C0020449603000A46090200
S315000124E041EA12214840C0F30311484080EA003016
S315000124F041010206C9B2D20E41EA0221484080B228
S315000125007047000062F30F2262F31F42401810F079
S31500012510030308D0C91A1FD3DB0748BF00F8012DF2
S3150001252028BF20F8022D130030B414461546103981
S3150001253028BF20E93C00FAD8490728BF20E90C004A
S3150001254048BF40F8042D890028BF20F8022D48BF56
S3150001255000F8012D30BC7047C91818BF00F8012DCD
S31500012560CB0728BF00F8012D70470000820707D06E
S3150001257010F8012B11F8013BBAB19A42F6D014E0DA
S3150001258002680B689A42A2F1013301BF934313F02B
S31500012590803F50F8042F51F8043FF3D010F8012B77
S315000125A011F8013B0AB19A42F8D0D01A70470000DF
S315000125B00188481E8041C00F704738B50446002582
S315000125C054B1002100F009F803E0204600F034F888
S315000125D06D1C0100F9D1A8B232BD008802001CBFF2
S315000125E0C9B2F6F732BC002070472DE9F041044626
S315000125F00D4627883800164608BFA84608D0F1B20E
S31500012600F6F723FC80462A46F1B23846F6F734FC43
S31500012610424600F003F82580BDE8F081F1B2284674
S31500012620F6F72ABC38B5044600222588FFF7DDFFF8
S31500012630280018BF258031BD008881420A4601D194
S315000126400020704700211046F6F7FFBBF8B5044697
S315000126500D462688300001D10020F2BDC9B2F6F739
S31500012660F4FBB042074602D10020208007E0E9B220
S31500012670F6F7EBFB0246E9B23046F6F7FDFB2A46D2
S3150001268000213846F6F7F8FB3846F2BD2DE9F84346
S3150001269004468846278816460FB9002026E03D469F
S315000126A02846F6F744FB814605E00546F6F73FFB6B
S315000126B048441FFA80F9F1B22846F6F7C6FB4045B1
S315000126C011D1F1B2F6F7C1FB0246FFF7A7FF474565
S315000126D003D1BD4208BF002525800022F1B2404644
S315000126E0F6F7CAFB01E0B842DFD14846BDE8F283FE
S315000126F02DE9F8430D46044690462F4605E041462E
S315000127002046FFF7A3FFBF1BBFB28FB1208878B168
S3150001271041462046FFF761FF8146F6F708FB06466C
S31500012720B742ECDAF11B89B24846F6F764FB00279B
S31500012730E81B80B2BDE8F2832DE9F0470C46078815
S31500012740200092461E46B84623D00FF26C193FB9B7
S31500012750C92102E0B84503D1D6214846F1F7E0FF89
S31500012760F1B24046F6F771FB8046F6F7E0FA054608
S31500012770A1B28D4288BF0D464046F6F7C0FA014622
S315000127802A465046F5F7C8FD641BA0B20028AA44A4
S31500012790E0D1BDE8F08770B504462588280008D049
S315000127A00121F6F752FB064600220121FFF737FF0A
S315000127B0268070BD2DE9F84F0D46044690461F460A
S315000127C00021FFF70AFF8146002603E0494600F093
S315000127D045F881465FEA090019D0F6F790FA834673
S315000127E04846F6F7A4FA0BEB000A02E06088834438
S315000127F0761CD3453EBFA188B0B28842E6D2414697
S315000128005846A8470028F1D007B13E805846BDE892
S31500012810F28F70B504460D46A08801001CD0401EFB
S31500012820A84219DB00212046FFF7D7FE064660883D
S3150001283015FB00F504E02D1A314600F00FF80646A7
S31500012840300009D0F6F773FAADB28542F3DA3046B5
S31500012850F6F755FA284470BD002070BD2046EBE618
S3150001286070B504460D46E088010009D0401EE0809F
S315000128702046A188491CA180491EBDE87040C8E7D1
S31500012880608810FB05F0002180B2F6F74EFB0600CA
S3150001289001D1002070BD002231462046FFF7A5FE7A
S315000128A0A088401CA080681EE0803046BDE87040CC
S315000128B0F6F725BA000000006275666665722D712D
S315000128C0756575652E6300003023DFF8E8295843E6
S315000128D010440C3000F1806007E03023DFF8D42982
S315000128E0584310440C3000F1C060012202FA01F194
S315000128F0016070471CB500931346049C01940A4677
S31500012900FFF7B1FC13BD1930017E02290FD1027800
S31500012910DFF8A019007930235A4311441C31800095
S3150001292000EB411000F184400068C0B270470020FE
S31500012930704738B50022DFF8803953F822104C7FF2
S31500012940844203D0521C042AF7D331BD21B301F1CD
S315000129502E04E07802281FD10D1D0846FFF7D3FF8C
S315000129602874687C022804BF2078002814D100F05E
S315000129701BFE18F07CFB297C09B1617829B1002086
S315000129806070286818F042FB31BD28B99DF8000037
S3150001299010B1286818F02CFB31BD10B5044604F1BE
S315000129A0140082B0417F022910D141780A0003D078
S315000129B0012906D0017821B9817A8079FFF784FF50
S315000129C018E0817A8079FFF788FF13E0012911D198
S315000129D0007800280CBF112013208DF80000204636
S315000129E000F0F1FF01226946204600F068FF20460B
S315000129F001F02EF8002016BD2DE9F0410446884667
S31500012A001646F3F7A5FF0546A088E188884207D355
S31500012A10002030602846F3F7D8FFDFF8A4081CE051
S31500012A202088142778432044142241460830F3F7BE
S31500012A3011FD208878432044083030602088E188E1
S31500012A40401C90FBF1F201FB12002080A088401C83
S31500012A50A0802846F3F7B9FF0020BDE8F08138B51C
S31500012A6004460D46F3F774FFA18809B9296024E0ED
S31500012A706188142251432144083129606188E28822
S31500012A80491C91FBF2F302FB13116180A188491ED7
S31500012A90A1800EE038B505460C46F3F759FFA98823
S31500012AA009B9216009E06988142251432944083192
S31500012AB02160F3F78AFF002032BDF3F786FFDFF8C6
S31500012AC0440932BD90F832100A000BD10268012187
S31500012AD0D16000680169C907FCD5416F41F0010168
S31500012AE04167704701290ED10168496C8907FBD4FA
S31500012AF002680121516000688168C907FCD5416DF2
S31500012B0041F001014165704790F832100A0008D181
S31500012B1001684A6F520852004A6702210068C16083
S31500012B20704701290CD10168496C8907FBD40168FA
S31500012B30496D0268490849005165022100684160F2
S31500012B40704710B500F12C0286B0012313709379FA
S31500012B501C0013D10268049002F11C030FF27102EA
S31500012B600392002202924A680192012200920A68A7
S31500012B700169806818F021FA06B010BD012BE9D071
S31500012B8000201070F8E710B500F12D0286B0012380
S31500012B90137053791C0012D1026834320FF21D13DF
S31500012BA003930490002302934B680193012300933E
S31500012BB00B68C168406818F0FAF906B010BD012B20
S31500012BC002D102682832E9E700201070F5E700001B
S31500012BD0F8B514466946606AFFF75CFFDFF824180A
S31500012BE0884262D004F12C05DFF84418A879020066
S31500012BF008D12268126C920504D500F058F84FF4FA
S31500012C00007015E00246012A07D12368DB6A1B061C
S31500012C1003D500F04CF8802016E0DFF8181850B9FB
S31500012C202068006CC00506D500F041F84FF48070AD
S31500012C30216888640DE0012A09D12068C06A40062E
S31500012C4005D500F034F840202168486301E000F022
S31500012C5062F8F3F77DFE06460098C768380009D08A
S31500012C600098009940688968431A009802680169CA
S31500012C702046B847606A6946FFF7F1FE606A8188B7
S31500012C8021B100F074FD00F0D5FE0CE001202075A5
S31500012C902046FFF782FE00202870687903281CBFB2
S31500012CA02046FFF731FF00F015FF0120F2BD009825
S31500012CB0016100200099886070470000F8B514464C
S31500012CC004F1280569462868FFF7E4FEDFF868176E
S31500012CD088421ED000F01FF8F3F73AFE0646009828
S31500012CE0C768380005D0009843680268002120466D
S31500012CF0B84728686946FFF7B2FE2868818821B17E
S31500012D0000F035FD00F0E1FE01E00020687100F001
S31500012D10E1FE0120F2BD009900200861009988605A
S31500012D20704710B9DFF86C087047002918BF002AF0
S31500012D3002D0B2F5006F02D9DFF85C0870470020B7
S31500012D40704710B50368DFF85448FF22A34240F0EC
S31500012D5060810B7A1C0018BF012B07D0022B18BF0C
S31500012D60032B03D0042B18BF052B01D100233AE016
S31500012D70062B18BF072B04D0082B1CBF092B0A2BC7
S31500012D8001D101232FE00B2B18BF0C2B07D00D2BE4
S31500012D9018BF0E2B03D00F2B18BF102B01D1022306
S31500012DA021E0112B18BF122B08D0132B18BF142B9F
S31500012DB004D0152B1CBF162B172B01D1032312E0B0
S31500012DC0182B18BF192B0BD01A2B18BF1B2B07D08A
S31500012DD01C2B18BF1D2B03D01E2B18BF1F2B01D177
S31500012DE0052300E0FF23C3754B7A1C0018BF012B96
S31500012DF040D0022B1CBF032B042B3BD0052B18BF45
S31500012E00062B04D0072B1CBF082B092B01D101234C
S31500012E1033E00A2B18BF0B2B07D00C2B18BF0D2B39
S31500012E2003D00E2B18BF0F2B01D1022325E0102B47
S31500012E3018BF112B08D0122B18BF132B04D0142B3B
S31500012E401CBF152B162B01D1032316E0172B18BF18
S31500012E50182B0BD0192B18BF1A2B07D01B2B18BFF9
S31500012E601C2B03D01D2B18BF1E2B01D1052304E0FB
S31500012E701F2B01D1002300E0FF2303760B7A1C00F0
S31500012E803ED0012B18BF022B59D0032B1CBF042B9C
S31500012E90052B54D0062B1FD0072B21D0082B23D06E
S31500012EA0092B25D00A2B27D00B2B41D00C2B43D035
S31500012EB00D2B08BF082342D00E2B05D00F2B07D0B0
S31500012EC0102B09D0112B01D1092338E0122B01D186
S31500012ED00A2334E0132B01D10B2330E0142B01D14B
S31500012EE00C232CE0152B01D10D2328E0162B01D143
S31500012EF00E2324E0172B01D10F2320E0182B01D13B
S31500012F0000231CE0192B08BF012318D01A2B08BF78
S31500012F10022314D01B2B08BF032310D01C2B08BF80
S31500012F2004230CD01D2B08BF052308D01E2B01D16D
S31500012F30062304E01F2B01D1072300E0FF23C376FC
S31500012F404B7A1C003FD0012B41D0022B43D0032BDF
S31500012F5045D0042B47D0052B1FD0062B21D0072B9C
S31500012F6023D0082B25D0092B27D00A2B3FD00B2B9A
S31500012F7041D00C2B08BF082242D00D2B05D00E2BB9
S31500012F8007D00F2B09D0102B01D1092238E0112BC4
S31500012F9001D10A2234E0122B01D10B2230E0132B8E
S31500012FA001D10C222CE0142B01D10D2228E0152B86
S31500012FB001D10E2224E0162B01D10F2220E0172B7E
S31500012FC01DD0182B01D101221AE0192B01D10222A1
S31500012FD016E01A2B01D1032212E01B2B01D1042288
S31500012FE00EE01C2B01D105220AE01D2B01D1062280
S31500012FF006E01E2B01D1072202E01F2B00D1002281
S3150001300002774A7C42768A7C4277CA7C8276097D3F
S3150001301058E1DFF87448A34240F04B810B7A1C005B
S3150001302018BF012B07D0022B18BF032B03D0042B8B
S3150001303018BF052B01D100233AE0062B18BF072B39
S3150001304004D0082B1CBF092B0A2B01D101232FE029
S315000130500B2B18BF0C2B07D00D2B18BF0E2B03D033
S315000130600F2B18BF102B01D1022321E0112B18BF02
S31500013070122B08D0132B18BF142B04D0152B1CBFF1
S31500013080162B172B01D1032312E0182B18BF192B6E
S315000130900BD01A2B18BF1B2B07D01C2B18BF1D2BAF
S315000130A003D01E2B18BF1F2B01D1052300E0FF23E0
S315000130B0C3754B7A1C0018BF012B40D0022B1CBFD5
S315000130C0032B042B3BD0052B18BF062B04D0072B53
S315000130D01CBF082B092B01D1012333E00A2B18BF92
S315000130E00B2B07D00C2B18BF0D2B03D00E2B18BFA3
S315000130F00F2B01D1022325E0102B18BF112B08D06D
S31500013100122B18BF132B04D0142B1CBF152B162BF7
S3150001311001D1032316E0172B18BF182B0BD0192B3F
S3150001312018BF1A2B07D01B2B18BF1C2B03D01D2B26
S3150001313018BF1E2B01D1052304E01F2B01D100234B
S3150001314000E0FF2303760B7A1C003ED0012B18BF4B
S31500013150022B59D0032B1CBF042B052B54D0062B55
S315000131601FD0072B21D0082B23D0092B25D00A2BC2
S3150001317027D00B2B41D00C2B43D00D2B08BF082396
S3150001318042D00E2B05D00F2B07D0102B09D0112BB7
S3150001319001D1092338E0122B01D10A2334E0132B84
S315000131A001D10B2330E0142B01D10C232CE0152B7C
S315000131B001D10D2328E0162B01D10E2324E0172B74
S315000131C001D10F2320E0182B01D100231CE0192B7C
S315000131D008BF012318D01A2B08BF022314D01B2BBA
S315000131E008BF032310D01C2B08BF04230CD01D2BB2
S315000131F008BF052308D01E2B01D1062304E01F2B8F
S3150001320001D1072300E0FF23C3764B7A1C0038D097
S31500013210012B39D0022B3AD0032B3BD0042B3CD0C7
S31500013220052B1DD0062B1ED0072B1FD0082B20D017
S31500013230092B21D00A2B33D00B2B34D00C2B08BFF2
S3150001324008223FF4DDAE0D2B04D00E2B05D00F2B3B
S3150001325006D0102B3FF499AE112B3FF49AAE122BE8
S315000132603FF49BAE132B3FF49CAE142B3FF49DAE63
S31500013270152B3FF49EAE162B3FF49FAE172B17D09E
S31500013280182B3FF4A0AE192B3FF4A1AE1A2B3FF435
S31500013290A2AE1B2B3FF4A3AE1C2B3FF4A4AE1D2BF9
S315000132A03FF4A5AE1E2B3FF4A6AE1F2B7FF4A8AEAE
S315000132B0A5E603E000A000400C700020B64810BD52
S315000132C00A7000F08177002010BD10B500F11704D7
S315000132D082B00A00217920781DD001230422FEF74D
S315000132E0FDFF6179607801230222FEF7F7FFA07ED8
S315000132F0022809D100F034F8E179E07800230422AC
S31500013300FEF7ECFF012017E0032827D100F028F88B
S31500013310002304221EE00023FEF7E0FF61796078B6
S3150001332000F026F8A07E02280ED100F01FF8E17900
S31500013330E07800F01DF80020009001230122A17918
S31500013340A078FFF7D7FA09E0032807D100F00EF8B5
S3150001335000230022E179E078FEF7C0FF002016BDC8
S31500013360A179A07800230122FEF7B8BFA179A07840
S3150001337000230022FEF7B2BF10B5DFF87427DFF88D
S31500013380741713783BB9002441F823405B1C042BC6
S31500013390FAD301231370002251F82230002B18BFF3
S315000133A0834203D141F82200002010BD521C042A99
S315000133B0F2D3DFF8440710BD40F8241F002103684B
S315000133C019800368598003689980017242601180EF
S315000133D042685180426891804172C172704710B54E
S315000133E0044617F072FF607FDFF8101717F07BFFB6
S315000133F00020A0752075022060752046BDE81040AA
S31500013400FFF7CBBA0B7000F038B5044617F0A6FDEE
S315000134100021201D17F042FDDFF8E45628B90021EE
S3150001342004F1080017F03AFD00B1284632BD00004C
S315000134300D7000F00C7000F00B7000F0F0B587B065
S3150001344004460D466846DFF8BC161C22F3F712F84F
S315000134500CB950489CE0002D5ED034212046FAF785
S31500013460E7FB2046FFF788FF0700F3D104F131009F
S31500013470297C01702968216000214170286847492B
S3150001348088423CD1DFF880062062DFF88006E060E2
S315000134904FF440202061EA69A9692046FFF78CFFB5
S315000134A06868029001216889ADF81000A889ADF815
S315000134B00E00A87B8DF80C00E87B8DF81200052024
S315000134C08DF80D00DFF84806F4F7E2F800F071F820
S315000134D0206A0121F4F7DCF800F065F800F06CFBD6
S315000134E02868DFF8302603214167816F00F066F80E
S315000134F0816720462946FFF724FC78B148E0DFF8CA
S315000135008813884208D1DFF810062062DFF80C061E
S31500013510E0604FF45020BDE71F4839E000F040F865
S31500013520002835D1F3F714FA0646287C032810D172
S315000135302868416F41F030014167416E41F0040155
S31500013540416695F8212095F8201041EA0221C167CC
S3150001355004E0022804BF2046FFF741FF28684FF028
S31500013560FF318164297C03290CBF0521042100F068
S315000135701CFB29684FF44060C86017F0EFFC204639
S31500013580FFF742FF00F0A5FA002F14BF38460020CE
S3150001359007B0F0BD027000F0037000F000000140BA
S315000135A00121204691E600208DF800006946286831
S315000135B070470121DFF86805F4F76AB811402A7AE5
S315000135C041EA02216A7A1143704738B5040002D1F3
S315000135D0DFF8240532BD032100F03CF80021204626
S315000135E000F043F90021FFF7DCFF04F131056878AB
S315000135F0010006D121680220C86008202168C86040
S315000136000AE0012808D1206800F096FB2068416C89
S315000136108907FCD40A2141600021206AF4F738F8B1
S315000136202878032803D0607F002117F05CFE6068CC
S3150001363017F07AFCA06817F077FC17F056FC606A61
S315000136400021018041808180A06A018041808180C2
S31500013650002032BD2DE9F0435FEA000883B00D4634
S3150001366008BFDFF894047BD0F3F772F9012D814688
S3150001367008F12C0608F10407DFF8A84415D1786A89
S31500013680808810B3386817F0D9FC00207070786A0A
S31500013690818879B300F06BF8009800F10801386869
S315000136A017F008FD0098046120E0022D03D1386A65
S315000136B0808840BB09E0032D23D1786A80880028E1
S315000136C002BF386A80880028DCD14846F3F77DF9C5
S315000136D0DFF8540444E06946FFF7C1F90098D0F8D1
S315000136E00CC0BCF1000F01D000F03CF8786A81886B
S315000136F00029F0D1404600F03DF88004FAD5022DAC
S3150001370001D0032D28D1786817F098FC002030707D
S31500013710386A8188D1B101A9FFF7BCF9019800F196
S315000137200801786817F0C6FC019804610AE001A94E
S31500013730FFF795F90198D0F80CC0BCF1000F01D044
S3150001374000F010F8386A81880029F0D170790328D1
S315000137501CBF4046FFF7D8F94846F3F736F9002073
S31500013760BDE8FE83836800222146404660476946DC
S31500013770FFF790B990F832200021130002D10068BA
S3150001378001691EE0012A1CD100688068820748BFD2
S315000137900221C20748BF41F00101420748BF41F07B
S315000137A00801020748BF41F02001C20648BF41F0A7
S315000137B04001820648BF41F08001400648BF41F4FE
S315000137C0005108467047406A1CE02DE9FC4100F0B3
S315000137D046F8606A818816461F4671B1FFF7C7FF32
S315000137E08046A06801A917F065FC009828B1B8F1D8
S315000137F0000F02D100F02AF802E0002038603060A4
S315000138001EE0806A8088C0B270472DE9FC4100F055
S3150001381026F8A06A818816461F4671B1FFF7A7FFF1
S315000138208046606801A917F045FC009828B1B8F1F7
S31500013830000F02D100F00AF802E000203860306083
S3150001384028602046FFF796FFBDE8F681406801999A
S31500013850401A306001983860009800687047044645
S315000138600020009001900D46704700F11402537F2D
S31500013870032B02D1DFF8B40270475170022918BF39
S315000138801170FFF78AB800000004014010B500F17D
S315000138901602D37E012B01D1022900D1EFE0147863
S315000138A08C4208D0117011B900F0D2F803E0012959
S315000138B008BF00F088F8002010BD007D70472DE993
S315000138C0F041044688461646FFF72BFA002878D1C0
S315000138D0082017F043FD054604F12E0702E00DB15D
S315000138E017F0FCFBA06A808810B138780028F6D062
S315000138F03879010002D12168096905E0012818BF5C
S31500013900002522D12168896811F002051DD1010027
S315000139100BD121680420C860206801698907FCD59C
S31500013920416F41F0020141670FE001280DD1206886
S31500013930416C8907FBD404214160206881688907AD
S31500013940FCD5416D41F0020141650120B87038791D
S31500013950010006D0012819D110E018F8011B00F06A
S31500013960CAF931464E1E20680029F6D10169890639
S31500013970FCD50BE018F8011B00F0F7F931464E1E95
S3150001398020680029F6D181680907FCD5C5B93879BF
S31500013990010008D12068416F21F00201416708202A
S315000139A02168C8600CE001280AD12068416C8907AA
S315000139B0FBD4416D21F00201416508202168486070
S315000139C00020BDE8F08110B5040001D1FFF7F1BC7C
S315000139D094F82E0030B92046FEF795FF10B96068BD
S315000139E017F006FB94F82E00401C84F82E000020E8
S315000139F010BDF0B587B000F070F8A0B900F061F81D
S31500013A0000F01CF8049700F010F860B9287E48B958
S31500013A102046FFF757F800F00DF8687F032801D01C
S31500013A2000F011F8002007B0F0BD6A46286901A927
S31500013A30FEF7E2BF00992046FFF783B804F11405AB
S31500013A403B4805907047002028702046FEF7A5BF29
S31500013A5010B5040001D1FFF7ACBC94F82E0070B18B
S31500013A6094F82E00012806D12046FEF74CFF10B926
S31500013A70606817F0CBFA94F82E00401EB5E72B4884
S31500013A8010BDF0B587B000F028F8C0B900F019F8FC
S31500013A9000F029F804976A462868FFF7C8FF70B94D
S31500013AA0687958B9F2F754FF06462868808818B134
S31500013AB000F00BF80120287200F00CF8002007B086
S31500013AC0F0BD019502960396704700992046FFF7CF
S31500013AD05AB807463046F2F778BF04460D461646F1
S31500013AE01F46FFF71EB904F12805114805907047D6
S31500013AF0307C00200C700020027000F03329010098
S31500013B000E7000F0E89F03000022040001000C0083
S31500013B1040410500E0E0FFFF0032040001000D0016
S31500013B2000250800097000F0087000F0057000F02B
S31500013B30017000F070B50446080015461E4604BF24
S31500013B406348F3F7D5FD310006D0202E18D0402E5C
S31500013B5018D0602E18D070BD1021226822F06002A4
S31500013B60226069432268324322604A0802EB401010
S31500013B70B0FBF1F02038574901EAC000606170BD21
S31500013B800821EAE70621E8E70421E6E738B5044615
S31500013B900800154604BF4E48F3F7AAFD401E69000A
S31500013BA0B0FBF1F00002606131BDCA43520002F080
S31500013BB00A02C260C160704738B504460D4600F07E
S31500013BC066F8A87C18B1206840F080402060E87C47
S31500013BD018B1287D40F08000A065687BB5F910100A
S31500013BE00843B5F90E10084360602B7BAA68696823
S31500013BF02046FFF79FFF00F039F8606F20F0300094
S31500013C006067606F297E084360672CE038B504461B
S31500013C100D4600F03CF8A87B08B14FF4806021689E
S31500013C20B5F91020104340F0010008432060287DBB
S31500013C3008B14FF00050216808432060A87C18B1F4
S31500013C40E87C40F08000A065287B40F480506060ED
S31500013C50AA6869682046FFF799FF687B08B11020BA
S31500013C60E06000F003F82878E06031BDA87DE97DC9
S31500013C700007090500F0E04001F4E0010843206671
S31500013C80687D18B1206840F480302060704740F6A6
S31500013C90AA61C1600021016041F205014160002174
S31500013CA081604161C1640C4A0C498164002141670C
S31500013CB08167C16790420A4912BF884200220265A4
S31500013CC000228265884204BF06490A6070470000E7
S31500013CD040410500F8FF7F0000000140F9FF0100A7
S31500013CE0000401405C04014001690906FCD5FFE7B7
S31500013CF0C069C0B2704702695206FCD5416370477C
S31500013D00026CD20702D4426C0A42FCD1704738B524
S31500013D1000F00EF8E843400000F00A002843606016
S31500013D2031BD19B1416C0029FCD1012101647047F3
S31500013D300D4604460221E3E710B504460121FFF7CB
S31500013D40F0FFEA206060002100202060E060206131
S31500013D506061A06340F2F97060630020E063606512
S31500013D60A0652046BDE81040DBE738B500F005F850
S31500013D70402100F00AF8A56231BD04460D46A0684F
S31500013D80C006FCD57047606002212046B8E70000F6
S31500013D9012490A6842788A600278DAB14268CA60D2
S31500013DA0437A827A1B0643EA0272C37B42EAC34222
S31500013DB0C37A42EA8342037B42EA4342437B42EAB5
S31500013DC00342837B007A42EA032242EA400040F042
S31500013DD0010001E00020C8600861704790ED00E035
S31500013DE0BFF35F8FBFF34F8FBFF36F8F7047000035
S31500013DF080B56846F7F7EAFEDFF8DC03DFF8DC1387
S31500013E00016148F2E67141604FF408610160DFF833
S31500013E10D003DFF8D01341609DF80120DFF8C81305
S31500013E20012A05D19DF80020022ABCBF28228A64F6
S31500013E304AF63F420A604FF0C071DFF8B0231160C5
S31500013E4000210166DFF8A81301607F20DFF8A413C3
S31500013E5008602320DFF8A013086001BD80B500F0DB
S31500013E6041F8FFF7C5FFDFF89413032008604FF40C
S31500013E700020DFF88C1308600120DFF88813086042
S31500013E8003F09AF8DFF880134FF46070086001BD03
S31500013E9010B5DFF8743384B001221A60DFF86C4381
S31500013EA02268120E12F00F02FAD14FF00452A267E5
S31500013EB00122E2678A0001464FF00450F2F7DAFA6E
S31500013EC0DFF84C03E0656846DFF848430ECC0EC0C8
S31500013ED08421DFF84403F9F7ABFE68460EC80C3CB3
S31500013EE00EC41FBD80B50121DFF8300317F05CFA5F
S31500013EF00121DFF82C0317F057FA0121DFF824031B
S31500013F0017F052FA0121DFF8200317F04DFA0121CB
S31500013F10DFF8180317F048FA0121DFF8140317F048
S31500013F2043FA0121DFF80C0317F03EFABDE804401D
S31500013F300121DFF8040317F037BA0000F8B504468B
S31500013F400D460FF2243600E00860002D1CBF2868DC
S31500013F5010F1010F3FD055F8042BC2F3026156F858
S31500013F60211093B2C2F307401943022808D300284F
S31500013F701EBF55F8042B41F8042B401EF7D1E4E788
S31500013F8055F8040B120F4FF0010C072A01F1C0631B
S31500013F9001F180670CFA00FED7D8DFE802F00506CA
S31500013FA0090C0E111417D0E7CEE7C0433860CCE7F1
S31500013FB00A685040C8E71860C7E702F0F6F9C4E797
S31500013FC0C3F800E0C1E7C7F800E0BEE70A680240AF
S31500013FD08242FBD1B9E7204602F0BBFCBDE8F140C5
S31500013FE000F065B9DFF824020068000E00F00F004A
S31500013FF0022818BF032801D101207047002070470D
S31500014000DFF83802016800208A0648BF0420CA0684
S3150001401044BF801CC0B20A0744BF801CC0B24A0715
S3150001402044BF801CC0B28A0744BF401CC0B2C90746
S3150001403044BF401CC0B2704780B51120F3F758FB4E
S31500014040DFF8FC1109688AB232B1C008C1F3074131
S315000140504843B0FBF2F002BD002002BD38B5DFF8DF
S31500014060E4014168006801F00702082AC0F344141C
S315000140701AD20FF2FC139A5CC1F3CD035B1CC1F398
S3150001408045415A43491C5143C0F3822200F01F00A7
S3150001409014FB02004843450006D01120F3F728FB24
S315000140A06043B0FBF5F032BD002032BD80B5FFF7AD
S315000140B0C3FFDFF89411096801F03002102A02D01B
S315000140C0202A02D002BD400802BDC1F3C421491C09
S315000140D0B0FBF1F002BD10B55B48016801F030029A
S315000140E0202A0FD1C1F3024018B1C1F3C422B2FB99
S315000140F0F0F011F4C01F18BF40004408032C0AD386
S31500014100042408E0006800F4E070402816BFB0F50A
S31500014110807F02240124FFF7C9FF604310BDF8B573
S315000141200446F6F793FE0646FFF75CFF0546474849
S315000141300068C0F38917B80544BF45480743FFF730
S3150001414051FF00B900253046F6F77DFE3FB217F55F
S31500014150007F01D12542E4D105B93E4F3846F2BD73
S3150001416038B505460C46FFF779FF68433A49B0FB77
S31500014170F1F0002100E0491C01228A40824203D26B
S315000141801029F8D3012032BD344A4FF47060106013
S3150001419008023349086033480068C0B2802803D05A
S315000141A02046BDE8324001E0022032BD2B4AFF2104
S315000141B0116000F0FF002A4908600020704713488B
S315000141C0016801F07061B1F1C06F02D1816BC9065E
S315000141D0F6D540214160704734410840C0E653514D
S315000141E09C4008407A27000F083008402870084094
S315000141F0806D6303243008442430084698600846DD
S3150001420094400840944008460C4008460440084043
S31500014210B80F0021E00F00217C0F002100340600B9
S31500014220000406000044060000740600006406004F
S315000142300054060000240600008406004C000840D5
S315000142403060084034600840186008400870084033
S3150001425000FCFFFF00FEFFFF40420F0018700844FC
S315000142601870084618700840000008400000002138
S31500014270030404080808080880B57E490720086079
S315000142807D4817F0ACF8C008410A7C4A002312EBBE
S31500014290C05059417A4A03F09BF87A4908604EF6B4
S315000142A0602000F016F878494042086001BD704769
S315000142B030B5744A1268C117A2FB004502FB0155CD
S315000142C0B4F17F4065F1FF31400E40EAC1108038FC
S315000142D030BD80B5FFF7ECFF0128B8BF002002BD55
S315000142E00A0008D043F2C823994203DA642902DAA4
S315000142F0642100E0194601800846704743F2C8224E
S315000143009142A8BF114681818089704743F2C82234
S315000143109142A8BF1146C181C08970472DE9F84372
S3150001432004000D4665D0E8074FF47A7647F2305718
S3150001433037D5E08A28B102F009FBE18A00F062F87C
S3150001434000E03846FFF7C5FF50490860608A28B18A
S3150001435002F0FCFA618A00F055F800E03846FFF7F2
S31500014360B8FF4B490860A08A38B102F0EFFAA18A7A
S3150001437000F048F86168401A00E03846FFF798FFF8
S3150001438044490860608B38B102F0E0FA618B081A83
S315000143907043A0F6C41000E03846FFF79AFF3E4985
S315000143A00860A807DFF8F48042F2107910D5E18998
S315000143B000F021F83A490860208B01001DBFA16871
S315000143C006FB001040443846FFF783FF3549086075
S315000143D068070ED5208A010018BF06FB00873846FC
S315000143E0FFF777FF30490860A18900F004F82F49EB
S315000143F00860BDE8F18306FB01F011B1216849446B
S31500014400081866E7081A7043A168A0F6C410401A96
S315000144107047072182E7012180E782600160002061
S31500014420704741600020704738B504460D46FFF7D6
S3150001443052FE0A21B0FBF1F029191D4A430802FB7D
S315000144400131B1FBF0F032BD1A48016A0A0CC1F321
S315000144500111491C514342F21172914202D34FF0AC
S31500014460FF307047006800F01F004018401C70477D
S31500014470000000008440084060510700B2E60E00CB
S3150001448065CD1D00307B0020B00F0021A00F00215B
S31500014490980F00219C0F0021AC0F002130DFFFFF98
S315000144A0A80F0021A40F0021900F0021940F0021D5
S315000144B0A08601001C600840F8B5160005460C46AA
S315000144C027D0307A010024D00027401E06282DD897
S315000144D0DFE800F00F22200C0F04060007203072DF
S315000144E07068C1000020FFF79FFF0746307A10B9B8
S315000144F0F1BD042030722046002101F031FF296808
S3150001450001F5FA714FF47A72B1FBF2F1401A3818DB
S315000145103060F1BD02203072FFF796FF10F1010FF6
S3150001452004D00021FFF780FF4742DFE73772F1BD74
S31500014530F8B5160005460C461CD0307A010019D094
S315000145400027401E06282CD8DFE800F00421231599
S31500014550171D0400062030722046002101F000FFDD
S31500014560A96801F5FA714FF47A7291FBF2F1081814
S3150001457038183060F1BD052030727068C100002026
S31500014580FFF752FF4742307A0028E5D1F1BD0320FB
S315000145903072FFF759FF10F1010F02D07168C9009F
S315000145A0EEE73772F1BD0000012100F01F029140D4
S315000145B0DFF8B02A05E0012100F01F029140DFF883
S315000145C0B426400942F82010704780B5F6F73EFC44
S315000145D0DFF8A4160968090E01F00F01032907D1B6
S315000145E0DFF898160A6822F0F00242F0E0020A604B
S315000145F00121DFF8882A1160BDE80240F6F723BCE5
S31500014600DFF8B82A1168D368194021EA00009060E2
S31500014610084670470422C900002814BFDFF8600667
S31500014620DFF8B40A02FA01F1016070470120704710
S3150001463010B5DFF8A84A01232370F5F7B4FA002074
S31500014640207010BD70B5F6F701FCDFF83816DFF8FB
S3150001465038468D78D1E902232E00DFF8BC1A04BF53
S315000146604FF41056324219BF10260E6010262660EE
S315000146700DB9D20502D520220A6001E02021216070
S31500014680BDE87040F6F7DFBBDFF8F8050021C17021
S31500014690817811B100218170D4E7704710B5DFF838
S315000146A0E445E07878B1012001F0D5FA58B9FFF771
S315000146B0EBFFD4E90201BDE81040002200F480506E
S315000146C001F00001B4E710BD10B5036883EA0104E7
S315000146D024EA020200F180641340236040F8042CAE
S315000146E000F1C0601140016010BD70B504460D4671
S315000146F01646FFF7A7FF4FF4004114F0AA6F18BF43
S3150001470048F20201B00748BF41F400510022DFF828
S31500014710EC08FFF7D9FF0021200448BF4FF4805170
S31500014720E00348BF41F48071E00648BF41F40051FF
S31500014730A00648BF41F40071600648BF41F480619C
S31500014740200648BF41F400610022DFF8E008FFF7C8
S31500014750BBFF05F0040300210025AB4218BF4FF44F
S315000147608021200548BF41F48031600448BF41F4EF
S315000147708011A00748BF41F40011A00348BF41F4CE
S315000147800021700748BF41F004010122DFF8D80873
S31500014790FFF79AFFDFF8D418F00748BFDFF8E018F3
S315000147A0600048BF41F000710022DFF8D808FFF72A
S315000147B08BFF0021E00748BF01210022DFF8C8086E
S315000147C0FFF782FFDFF8C418600348BFDFF8F0186F
S315000147D06007BDE8704048BF41F480614FF4A022F4
S315000147E0DFF8DC0970E710B5F6F730FB04461B204D
S315000147F0FFF7E1FE0720FFF7DEFE0120FFF7DBFEF4
S315000148000320FFF7D8FE0420FFF7D5FE1C20FFF793
S31500014810D2FE0620FFF7CFFE0520FFF7CCFE1E20B5
S31500014820FFF7C9FE2046BDE81040F6F70CBB2DE99F
S31500014830F04702EA0009089D099AC643CF43002DB5
S3150001484003EA010A05EA0208DFF838442CD10029F7
S3150001485048D100286ED001280ED0042842D1F6F79F
S31500014860F5FA00F069F8002082450CBF8145012068
S315000148700121FFF7CFFE33E0F6F7E8FA00F05CF826
S315000148800022924508BF9145DFF8B40806D0012100
S3150001489001600120DFF8AC18086021E0DFF8A828E4
S315000148A00121116001601BE00022914204BF904288
S315000148B0012D17D1F6F7CAFA05462069400848EADC
S315000148C0400020614FF48061DFF8F808B8F1000F6D
S315000148D019BF0160DFF8F008DFF8F0281160016008
S315000148E0284623E0FFF77FFF00F027F82269AA4355
S315000148F048EA02022261FFF7F8FEF6F7A7FA044634
S315000149001B20FFF751FE0720FFF74EFE0320FFF79E
S315000149104BFE0420FFF748FE1C20FFF745FE06204C
S31500014920FFF742FE0520FFF73FFE2046BDE8F047B0
S31500014930F6F789BABDE8F0870546D4E902013040A9
S31500014940394040EA090041EA0A01C4E90201704717
S31500014950DFF87C08006810F0A00F0FD1DFF874189B
S3150001496008200860DFF870180868800547BF022034
S31500014970DFF868180220DFF868180860704710B57C
S315000149800446FFF76BFAFFF72EFF00F017F9012037
S3150001499002F041FC04F19001DFF8480801F062F8E9
S315000149A0DFF844180120086001F04EFB01F0A7FB77
S315000149B0FFF762FC04F12800FFF72BFD4FF44001DD
S315000149C0002001F071FC4FF40011012001F06CFC94
S315000149D002F0EAFA02F0A6FB10B91421F6F7F6FA8C
S315000149E0BDE8104002F0B9BA10B5DFF800482068FA
S315000149F010F0070F08D1DFF8F817086820B100207A
S31500014A0001F029F9401E60618020DFF8E81708608F
S31500014A10DFF8E407016821F04001016010BD10B51F
S31500014A20F6F714FA044600F018F8002802BFDFF87A
S31500014A30CC07006810F0060F0AD1FFF7D5FFDFF8A3
S31500014A409417012008602046F6F7FDF9002010BDF5
S31500014A502046F6F7F8F9012010BD032001F01EBC2F
S31500014A6080B5010003D0DFF89C17401E0860F6F7F9
S31500014A70EDF9DFF884170A6822F040020A60F6F7BA
S31500014A80E2F9DFF858170220086001BD2DE9F84F59
S31500014A90804689469246F6F7D9F9834659EA0800CF
S31500014AA0DFF85C47744D1FD02868000E00F00F0038
S31500014AB0032806D1DFF85017086800F00F00032815
S31500014AC0F2D15FEA09000FD000F065F8DFF83C1774
S31500014AD0012008600420206001E0FFF770FB2868D0
S31500014AE0000E10F00F00F8D1A0202060FFF7B5FFEF
S31500014AF020B1032001F01BFB00F079FA01F0DCFB89
S31500014B00DFF8C066DFF8D8760020F06000F043F8E1
S31500014B10DFF8E406016841F040010160FF203860DA
S31500014B204FF4807068600420B8F1000F206007D050
