S0110000656D3236302D756172742E73333790
S315000040004061002005D90200E5940200E9D80200CB
S31500004010A70A0A010042000004180FAC00629300D0
S31500004020000000000000000000000000000000008A
S31500004030000000005CEB0200000000000000000031
S315000040400000000000000000FFFFFFFFFFFFFFFF72
S31500004050FFFFFFFF007003000000000000000000EB
S31500004060FFFFFFFFFFFFFFFF100000000000000042
S31500004070000000000000000000000000000000003A
S315000040800000000000000000387C0020387C002082
S315000040904061002080F90200A2DB0200E057002008
S311000040A0B40F0020000004000000000027
S315000042004061002005D90200E5940200E9D80200C9
S31500004210F1D80200EDD80200F5D8020001D902005B
S3150000422001D9020001D9020001D9020001D9020018
S31500004230F9D8020001D9020001D902008DF301006C
S31500004240956B020019AA0200B116020075A60200BB
S3150000425079AA02001FAA020021AA02001BAA0200D4
S3150000426051CF02002FEB0100F70F02009FFF010064
S3150000427001D9020001D90200E7D6020001D90200E5
S3150000428001D902004DEB010001D9020001D902005B
S3150000429001D9020001D9020001D9020001D90200A8
S315000042A001D9020001D9020001D902007BAA02004D
S315000042B01DAA020003660200B3AA020001D9020089
S315000042C071DB020001D9020001D9020001D9020006
S315000042D001D9020001D9020001D9020001D9020068
S315000042E07149724A01E021B1491E1369DB07FAD40C
S315000042F001B9BAE0506001201060106910F0060F95
S3150000430005D0410700D5B3E0800700D5B3E0002013
S315000043107047F0B513460022002936D0624C634D33
S315000043208BB98B4231D250F8046BEE605B1C0826C9
S315000043302E60264601E036B3761E2F69FF07FAD4B3
S31500004340002EEED11FE0EFF3108672B600230EE0CA
S315000043502F6907F01907102F08BF2F602F693F0735
S31500004360F6D550F8047BEF605B1C10272F608B425C
S31500004370F4D306B962B6264601E026B1761E286950
S31500004380C007FAD40EB96FF002021046F0BD2DE94F
S31500004390F84F474F0D4639680446002041F00101A9
S315000043A09B4639604FEA92088146AA4602E0B1442C
S315000043B00AEB860AC14517D204EB89063046FFF799
S315000043C08FFF010022D1C6F30A00C0F500608608FF
S315000043D0A8EB0900B04238BF06465A463146504659
S315000043E0FFF797FF0100E2D021682A68914209D0C1
S315000043F02046FFF775FF010004D15A4601212846E1
S31500004400FFF787FF3968490849003960BDE8F28F30
S315000044102749254A0B6843F001030B608860012099
S3150000442048604869400704D50868400840000860AD
S315000044301EE04869800704D5086840084000086007
S3150000444019E00220486001E022B1521E4869C00707
S31500004450FAD422B9086840084000086005E00868F8
S31500004460400840000860002070476FF00200704767
S315000044704FF0FF3070476FF001007047002386E76A
S315000044800B48016841F00101016046F21A31C1642E
S315000044904FF4807141604169C907FCD40021C164B1
S315000044A00020704700000000809698000C000E4027
S315000044B008000E4010B5044600F0BCFD204601F091
S315000044C096FD204602F0AAFA2046BDE8104002F00A
S315000044D05FBC01F0D4BD10B5044600F0F8FD2046DF
S315000044E001F0FFFD204602F0C1FA204602F0B5FCBD
S315000044F02046BDE8104002F04DBC10B500E010B5F6
S31500004500044600F054FE204601F012FF204602F059
S31500004510C9FA204602F00BFD2046BDE8104002F025
S3150000452048BF10B5044600F06FFE204601F02EFF8E
S31500004530204602F0E6FA09E010B5044600F089FECE
S31500004540204601F065FF204602F0F8FA204602F008
S3150000455006FD204602F045FF2046BDE8104002F069
S31500004560B0BC80B503F0A0F9BDE8014002F0DEB9A9
S3150000457010B5044602F0DCFD2046BDE8104002F00E
S31500004580B4BC0198704703F0FEB970472DE9F047B7
S3150000459001241028A4B00FF60825DFF87C79DFA3E4
S315000045A0DFA60FF28039E0A10FF280380FF2803AD1
S315000045B000F0398118281CBF1D2820286FD021281B
S315000045C000F00C8122286AD0282800F0AF80292824
S315000045D000F0D2802A2862D02B2800F051812D28A5
S315000045E000F06F812E285AD0302826D0332800F0CC
S315000045F06D81342800F06D81352800F0F68236286A
S3150000460000F09881372800F02382382800F0BD8119
S31500004610392800F051823A2800F0E381422800F060
S315000046205F824A2800F0BC804C2800F0E8825A28B5
S3150000463000F068825B2832D05D2800F0DB836328B7
S3150000464000F0AC82642800F0B6826A2803D06F2896
S3150000465000F01D83712800F0EA82732818BF7728BE
S3150000466000F0D6837A281AD0822800F06582832843
S3150000467000F09B83842818BF852810D086281CBF8D
S31500004680872888280BD0892800F096838A281CBFA3
S315000046908B288D2803D0902800F00D84952800F0F3
S315000046A09783962800F099829A281CBFA128A428EF
S315000046B0F5D0A62800F06883A82800F00483A9286E
S315000046C000F01D83AF2800F03783B128E7D0B22869
S315000046D000F0AC83B92800F0C583BA2800F0C78380
S315000046E0BC2800F0C783BD2800F0CF83C12800F0A6
S315000046F08180C22800F09480C32800F08E80CE28E6
S3150000470000F02783D42800F0C783D52800F0C9839A
S31500004710D62800F0CB83E828C1D0ED2800F04183ED
S31500004720EE28BCD0FE2800F05182E3E301A96846DA
S3150000473001F010FC00F01DFC3146002003F00CFBDC
S3150000474000F007FCBDF80C0003F043F99DF80E00DD
S3150000475003F033F99DF80F0003F02FF99DF81000D0
S3150000476003F02BF9BDF8120003F033F99DF814009D
S3150000477003F023F9069804E308208DF809000DF1EB
S315000047800A0103A801F00CFC8DF8080003AB0DF13B
S315000047900A00019002AA0DF109000090E2A142E28E
S315000047A000F0F4FB9DF8010001A901F00AFC00F0FD
S315000047B0E6FB00F0CEFB9DF80C0003F0FEF8BDF81A
S315000047C00E0003F006F99DF8100003F0F6F89DF8C8
S315000047D0110003F0F2F89DF8120088E301AB0DF129
S315000047E00102D2A100F0C2FB01999DF8010001F07F
S315000047F0EAFB2CE30DF1060200F094FB9DF806009F
S3150000480001AA02A901F055FB8DF8050002AB01A82B
S3150000481000900DF10502C6A105E201F04CFB66E32E
S3150000482001F04BFB63E30DF1150004900DF11E033F
S315000048300DF11600039006AA0DF1170002900DF176
S315000048401A00019007A8009001200FF24C7103F0A6
S3150000485083FA9DF81500BDF81A30BDF81C20BDF886
S315000048601E1002909DF8160001909DF8170000900A
S315000048709DF8180003F04EFB8DF8140005AAE9E236
S3150000488003F082F8054603F07FF88DF8000003F088
S315000048907BF88DF8010003F0A3F8ADF8020003F0F1
S315000048A073F88DF804000DF10501082003F073F884
S315000048B003F06AF88DF80D006946284602F076FD89
S315000048C015E303F061F802F072FD10E303F04BFF0D
S315000048D0BDE20DF1120304AA96A100F047FB06A85B
S315000048E003F0CAF803A8019003AB05A800900DF1E8
S315000048F00F02494600F01CFB0DF10D00029006AABE
S3150000490005989DF80F30BDF8121001909DF80C0027
S3150000491000909DF8100001F014FA2FE076000000D8
S3150000492075750000757570006200000075700000F6
S31500004930750000000DF112021946012003F00CFA71
S3150000494006A803F099F803A802900DF10F0305A835
S31500004950019004AA03A800F0E9FA0DF10D000290F7
S3150000496006A905989DF80F309DF8102001909DF836
S315000049700C000090BDF8120001F0ECF98DF80E0065
S315000049800DF10D030DF10E0234E107A803F074F8E2
S3150000499004A8039005AB06A802900DF1150204A821
S315000049A001900DF11300009001200FF2FC5103F06D
S315000049B0D3F90DF11100029006989DF813309DF879
S315000049C014209DF8151001909DF81000009007A87E
S315000049D001F0CCF98DF812000DF111030DF1120260
S315000049E008E10AA803F048F806A805900DF11D0392
S315000049F009A804900DF11E0206A803900DF11B00F4
S31500004A00029007A8019008A8009001200FF2A0517B
S31500004A1003F0A2F90DF1190004900998BDF82030B1
S31500004A209DF81D209DF81E1003909DF81800029019
S31500004A309DF81B0001909DF81C0000900AA801F04B
S31500004A40B0F98DF81A000DF119030DF11A02D1E033
S31500004A500DF1190000900DF11A0307AAB5A100F097
S31500004A6067FA09A803F008F805A802900DF11703E4
S31500004A7008A8019006AA05A800F058FA0DF115003D
S31500004A80049009AB08989DF81920BDF81A100390F8
S31500004A909DF8140002909DF8170001909DF81800EB
S31500004AA00090BDF81C0001F0A1F98DF816000DF17B
S31500004AB015030DF116029DE00DF1060219460120BF
S31500004AC003F04AF903A802F0D7FF00F034FA029B7C
S31500004AD09DF80420BDF8060003A901F0BCF972E1B7
S31500004AE00DF1050000900DF1060302AADBA100F00E
S31500004AF01FFA9DF805209DF80610BDF8080003F082
S31500004B006AFF12E100F029FAD5A100F011FA039A22
S31500004B109DF80810BDF80A0004F0D8F88DF80900D1
S31500004B200DF1090296E100BF756276007577000007
S31500004B30757675007576000008208DF811008DF8E1
S31500004B4010000DF10E00029005A801900DF1110064
S31500004B50009008AB0FF260450DF10F0200F0E7F987
S31500004B6003A802900DF11200019006A800909DF88E
S31500004B700E30BDF814209DF80F0008A901F09FF92A
S31500004B808DF80D0006AB03A802900DF10D020DF194
S31500004B9012000190294604A8009044E000F0F6F9BE
S31500004BA09DF8010001A901F0AFF900F0E8F901A8AC
S31500004BB002F079FFA1E100F0E9F901A802F078FF1F
S31500004BC09DF8010001A901F0B2F940E100F0DEF91B
S31500004BD09DF8010004F0E2FF39E100F0ACF902991A
S31500004BE09DF8040001F0D2F8EDE0684605F008FDF6
S31500004BF000F0BFF93146002003F0AEF87DE18620D3
S31500004C008DF806000DF1050200F08CF99DF80500FF
S31500004C1002A901F0DBF98DF8040002AB0DF10600E4
S31500004C20009001AAB7A1002003F096F865E16A4654
S31500004C3000F078F938786A289DF8000001A902D1B9
S31500004C4005F0E8FC01E006F048F88DF801000DF1EA
S31500004C50010200F097F9BDF8040002F0BAFE9DF8D3
S31500004C60060002F0AAFE0DF10701102002F0D0FEA8
S31500004C70069802F0BEFE079802F0BBFE9DF82000E3
S31500004C8002F09BFE0DF1210100F064F935E109A85F
S31500004C9002F03EFF00F061F9494600F049F904A828
S31500004CA00090039B9DF808209DF80A1009A801F0C2
S31500004CB08BFE8DF809000DF1090200F063F904A8D6
S31500004CC002F01DFF19E108208DF80E008DF80D0089
S31500004CD007AB0DF10D00029004AA05A801908AA168
S31500004CE00DF10E00009000F023F9BDF8100005AAA2
S31500004CF007A906F0D8F98DF80C0003AAAAE0082047
S31500004D008DF8050002AB0DF1050000900DF10602CD
S31500004D107EA100F00DF904A9102002F03CFEBDF8BA
S31500004D20060004AA02A906F0FEF98DF8040001AAFD
S31500004D3090E000BF7676750000F005F900F015F9F1
S31500004D4003A9102002F027FE03A901A801F056FED0
S31500004D507DE000F0F8F802208DF8000000F005F97B
S31500004D6003A901A801F052FE00F009F903A900F019
S31500004D70F1F805A9102002F04BFE099802F039FE61
S31500004D800A9802F036FEB8E000F0D5F802999DF8D0
S31500004D90040002F001F88DF805000DF1050200F09F
S31500004DA0F1F802F014F802F008FE02F0EDFD00B191
S31500004DB0012001F0B8FF9AE000F0BDF802999DF8D5
S31500004DC0040001F0B9FF8DF805000DF1050241E080
S31500004DD03A780FF2EC10002500E06D1CEDB2415D53
S31500004DE09142FAD102F0D0FD0FF2EC1151F82510E4
S31500004DF088477CE002F0C8FD054602F0F1FD014659
S31500004E00387830280CBF454A454A2846904774E012
S31500004E106946102002F0BFFD38787728684602D12F
S31500004E2006F070FC63E006F075F960E001A802F098
S31500004E307FFE0DF101030DF1020235A100F096F897
S31500004E409DF901209DF8021001A802F065F88DF881
S31500004E5000006A4600F096F84FE000BF76757500D0
S31500004E607675700002F090FD07F08FF93FE007F0CD
S31500004E7097F93CE004A9684607F05EF9684602F037
S31500004E8086FE04A802F0B1FE37E0684602F095FE01
S31500004E90684607F059F930E002F076FD06F06BFE41
S31500004EA02BE002F071FD06F0E5FD26E002F098FD2C
S31500004EB007F0AEF921E008208DF8120006AB04A831
S31500004EC003900DF1110205A8029012A104A8019009
S31500004ED00DF11200009000F02BF89DF8110000B1C2
S31500004EE00120059B9DF8102006A901F017FB02F092
S31500004EF064FD02E007F0A0F90446204624B0BDE8B0
S31500004F00F08700007562000076626200766200003B
S31500004F107573000075627000147C0020CB7500006C
S31500004F20B71A01005146012002F016BF009029462B
S31500004F30012002F011BF01A8009002AB01AA414670
S31500004F40012002F009BF08208DF801000DF10103D0
S31500004F50704701A9082002F05BBD02A8019002ABD0
S31500004F6003A800900DF10A02704701AA012002F081
S31500004F70F3BE8DF801006B460DF1010270478DF806
S31500004F8000006A465146002002F0E6BE0DF101021D
S31500004F905146012002F0E0BE75767676757575008D
S31500004FA075757570000000007575757570000000E8
S31500004FB075757675757570007562767500000000FA
S31500004FC0181D207A2A84858687888B8A8D959A2E45
S31500004FD05BB1A4A122E8EE006D06010053B001000A
S31500004FE0A937010057530100F1780000099B010021
S31500004FF0899B01009F9B0100B39B0100CF9B010091
S31500005000579C0100419C0100859C0100E3CF0000F4
S31500005010F7A30000D7A50100DBA5010023AF000020
S3150000502011E201001FE2010099900000E59C0100D9
S31500005030F39C010038B504462078002846D16070FC
S31500005040012020722070A078032832D0072834D09F
S31500005050112808D0152833D0302818D0312819D077
S3150000506032281AD030E00720DFF8645B207204F1A2
S315000050700900298807F09FFCA878E072E878207379
S31500005080287960736879A073A879E07331BD07F059
S31500005090B8FC17E007F094FD14E00420207207F036
S315000050A0B7FC04F10901BDE838400246012007F0CB
S315000050B086BCDFF8200B007804E007F055FE01E01F
S315000050C008F00DFD607231BD0020207031BD38B58D
S315000050D004462078002869D101202070A078042891
S315000050E014D007281FD00E2825D0112859D01528EE
S315000050F041D0172844D018284CD019284DD0302834
S3150000510033D031281FD0322823D04DE0207A012811
S315000051102FD1607A00B10120DFF8BC1A0870002098
S3150000512009F016F93BE0607A10B107F0EBFD39E0C3
S3150000513007F0FAFD36E0607A00B1012007F043FD82
S3150000514000282FD015E0607A00B1012007F011FD8C
S315000051500EE0207A04280CD104F10901012007F0A1
S315000051603CFC07F058FCE8B103E0607A07F04BFC22
S31500005170C0B1362016E094F9090008F07FFC0EE075
S31500005180657A04F10A0007F00FFC0146284609F08B
S31500005190B4F904E009F0ACF901E009F09CF900204B
S315000051A000E03720607031BD0020207031BD10B5A1
S315000051B00446DFF8280A0079217856280CBF01201A
S315000051C0002001BBA1706178072910D130B109F028
S315000051D0B3F9012814BF632062200EE0E07862284C
S315000051E00CBF0120002009F0AAF9A07009E00429EB
S315000051F009D1DFF8EC1910B10878E07001E0E07829
S3150000520008700120207010BD017809BB8170012152
S315000052100170417801290ED00C2909D017290DD02B
S315000052202D2902D034290CD010E0DFF8B8190AE095
S31500005230DFF8B41907E0DFF8B41904E0DFF8B019B5
S3150000524001E0DFF8B019097881807047002101700C
S31500005250704738B50446207800285AD101202070BE
S315000052600020A0706078012815D00C280FD01728D0
S315000052703DD02D2802D0342844D048E0A188032907
S315000052803DDAC9B2DFF85C0909F0C8FA38E0A0884F
S31500005290DFF8541939E0DFF86009008828BBA088D8
S315000052A018B3DFF85859287809F0F4FC08F058FFCD
S315000052B080B1A188DFF83409C9B209F0AFFAA0704D
S315000052C008F058FFDFF83809DFF838190068401D84
S315000052D0086001E03820A070012009F070FC2870F9
S315000052E00020DFF82419088031BD382008E0A088A6
S315000052F007F0D7FD18B9A088DFF8F41805E03620C6
S31500005300A07031BDA088DFF8EC18087031BD002010
S31500005310207031BD80B501208DF800006846FFF78A
S3150000532027F99DF8000002BD2DE9F04FA7B008F05F
S315000053305EFF08F079FFDFF8C8880446D8F8000059
S31500005340817800270225FF294FF003092DD1C17866
S315000053500679042511F03F004FF0050918BF4927CB
S3150000536023D108060AD509F0D1FF28B109F0D2FFEA
S31500005370123C0746E4B218E0482716E009F0CDFFD4
S31500005380002818BFCB2E0AD0CA2E18BFCC2E06D0A6
S31500005390CD2E18BF002E02D0AA2E18BF482709F01E
S315000053A0B5FF00281CBFCC2E4A27D8F80000465D62
S315000053B090F801A0DFF824580AF003018DF80810D0
S315000053C02E71017869704844DFF840180860DFF8EC
S315000053D0341808604FEA5A1000F0030068710AF0AA
S315000053E062F8380018BF582604D15FEA0A6002D571
S315000053F0582632208AE2A87820B9287910B1582692
S31500005400302083E20AF030FB10B9582642207DE2B4
S31500005410FFF780FF002800F07B822879A978DFF863
S31500005420F0B7020095A70FF2582A4FF6FF7975D00C
S31500005430012800F0FA81022800F0AD80032800F070
S31500005440FF80052834D0062800F04D81092818BFB2
S315000054500A2800F050810B2818BF0C2800F0528152
S315000054600E2800F06681122800F0AB81132800F0A8
S31500005470E181172800F0F181262800F0E181272834
S3150000548000F0E681472800F0D881492800F04181E4
S315000054904E2800F07581522855D053286AD05528D9
S315000054A000F09180562800F0A58065282AD0812832
S315000054B000F00E818F2800F0FD81912800F0158202
S315000054C0942800F004829D2800F0AA81AA2800F002
S315000054D0AD80AB2800F0D680AC2800F0E880AD287F
S315000054E000F0E880AE2800F0E880CA2800F0BF810E
S315000054F0CB2800F0C581CC2800F0D081CD2800F063
S31500005500D081F12800F07981F52800F0D980F628BD
S3150000551000F0DB80FC2800F0A781F2E102F034FA0B
S315000055200446062002F049FA022002F046FA4FF439
S31500005530C44002F04EFAA878002808BF062C01D114
S315000055400120A870E4E100F013FA02F01DFA8DF8CC
S3150000555001006846FEF7E5FF9DF8000028B93720F0
S315000055608DF802000020ADF8040001AB0DF1020237
S31500005570B6A157E0012918BF382023D100F0F8F969
S3150000558001AB0DF10102B1A1012002F0E5FB684675
S31500005590FEF7D2FF25E03827012912D1611FC9B2D3
S315000055A0052008F02DFE0446FF2C08BF352708D03D
S315000055B00AF06CFA002814BF00273627204609F0A7
S315000055C069FB3846A2E1042200F0D3F90DF103038A
S315000055D00DF101023946012002F0BEFB6846FEF7D6
S315000055E08EFF9DF8000010B937208DF802009DF857
S315000055F002008BE1042200F0BCF902F0C5F98DF837
S3150000560001006846FEF779FF9DF8000028B93720AB
S315000056108DF8020000208DF803000DF103030DF153
S3150000562002023946002002F097FB71E100F09BF977
S3150000563002F0AAF98DF80E0003A8FEF73BFF0BE077
S3150000564000F091F904AB0DF10E02C0A1012002F0A9
S3150000565083FB03A8FEF73DFF9DF80C0028B9372011
S315000056608DF80D0000208DF8140000F075F90DF18D
S315000056700D025146002002F06FFB49E175750000EE
S315000056807575620000F06FF900F066F90DF10E0213
S315000056905146012002F060FB03A8FEF71CFF9DF8AF
S315000056A00C0000280CBF37209DF80D002EE10AF0F3
S315000056B001FB2DE10AF0FFFA2AE10AF000FB27E1DF
S315000056C002F08EF90AF0FFFA22E10AF01DFBC1E0B2
S315000056D0062CF9DBDFF82C05DFF828150068001921
S315000056E0401F086014E1012000F047F9002840F04F
S315000056F02A8107260CE109280CBF0120002002F0B0
S315000057001BF905E10C280CBF0120002000F0E4F98C
S31500005710FEE00121684607F05BFB28B1002002F09D
S315000057204CF9BDF8000095E0362002F046F900205D
S3150000573090E002F029F9824602F052F9814602F021
S3150000574023F9074602F020F90446B9F5004FB4BF25
S31500005750042F702011DABAF1020F0FDA0BEBCA0A26
S315000057603A46DAF8000049460AF0F0FAAAF8049038
S3150000577004B900278AF806700020C7E07020C5E04B
S3150000578002F002F9814600240020B9F1020FADF8BB
S3150000579002008DF800000BDA5BF839006A460DF15D
S315000057A002010AF0E3FA0BEBC900807900B101248B
S315000057B0BDF8020002F00DF99DF8000002F0FDF8B8
S315000057C083E002F0E1F8040018BF012400200AF08B
S315000057D0FFFA07463A46FF2A08BF182029D0002CB0
S315000057E014BF48460220BBA10AF040FB002002F08D
S315000057F0E4F8384609F04EFA8AE04FF00009DFF87F
S31500005800144434F8190002F0E4F809F10109B9F179
S31500005810280FF6DB287965287AD108F05CFE77E058
S3150000582002F0DEF808F077FD72E002F0ADF80AF05B
S315000058306DFC6BE00AF027F96AE00AF01BF967E0F5
S31500005840DFF8D413082002F0E3F861E07576000073
S315000058500AF0F6FD02F0BDF85AE0684602F061F97A
S31500005860684603F039FD51E00AF085FF4EE000F08E
S315000058706FF802F0C5F8014603A80AF097FF45E065
S3150000588002F082F8044607A900F063F803AA07A904
S3150000589020460AF08DFF02F090F821E00AF08AFF18
S315000058A034E068460AF088FF02F087F8009802F0B4
S315000058B0A0F82DE00AF0A6FF0124484505D002F025
S315000058C063F8DFF858130024087020461EE000F045
S315000058D03FF807A900F03DF807A903A80AF0FFFF63
S315000058E003A9102002F094F812E00AF08BFF02F0F0
S315000058F070F8042002F061F8182002F05EF80F201C
S3150000590004E0FEF743FE18B95826312002F055F898
S31500005910D8F8001068780870D8F800008178002957
S3150000592002BF29780029867004D0FF218170D8F83B
S3150000593000000671072E0CBF012200229DF8080008
S31500005940012100F02AF827B0BDE8F08F7577000036
S3150000595003A9102002F01FB805A8019005AB0DF1B0
S315000059601500009070478C22002103A80BF02BB87D
S315000059700622002168460BF026B810B504469E485C
S31500005980008848B108F05BFC30B1A54800780122D8
S31500005990214600F002F8012010BD2DE9F84F984F7E
S315000059A00446386888468178934602254FF00309F5
S315000059B0FF299449096804BF04254FF005090E1A0A
S315000059C009F0A4FC0028B6B21EBF3868405DCC289A
S315000059D01CBF1236B6B25FEA0B0004D038684078B6
S315000059E0C0F3411A02E009F05AFD82467D49097862
S315000059F08A4505D340F229410FF230200BF00CF80E
S31500005A004FEA4A1040F08000DD2E5FFA80FA05DB8F
S31500005A10DC2008F00FFC4AF0020A02E0F0B208F0BF
S31500005A2009FC6E48C17819B100214AF0020AC1701A
S31500005A307C490A781AB100224AF0010A0A706E4EB1
S31500005A40318809B14AF0040ABBF1000F06D05FEABB
S31500005A50080114BF4AF0080A4AF0100A396881F8AA
S31500005A6001A03968897811B9012101700FE009F0A8
S31500005A704DFC00281EBF3868415DCC2904D080212A
S31500005A80C17009F045FC02E039680020C87009F0D1
S31500005A9044FC48B13868415DCB2901BF10F80900C4
S31500005AA00028022009F038FC012C30885C4A18BF17
S31500005AB0022C05D108B9147004E00020107004E02F
S31500005AC0147010B9002008F043FC4046BDE8F24FC0
S31500005AD008F07EBB620000002DE9F04198B0044654
S31500005AE001F052FF0546062D12D1DCB9282001F03F
S31500005AF064FF4D4801880223224668460BF09DF854
S31500005B00BDF8000001F065FF641C142CF1DB5BE0BE
S31500005B10082D01D00B2D01D124B952E0200003D06D
S31500005B20092D01D170204DE000260FF2141000EB74
S31500005B30C6073878854230D197F80180200004BF27
S31500005B40404601F03AFF786801884346002201A8E2
S31500005B500BF073F8200027D001F016FF97F80180AC
S31500005B60404501D002202DE0002000E0401CC1B2DB
S31500005B70414501A905D2C0B2095CFF29F6D04620ED
S31500005B8020E0404601F007FF78680088424601A9F8
S31500005B900BF02FF9002001F010FF761CF6B20B2E49
S31500005BA0C3D374B1B1200DE0092D05D11522002112
S31500005BB00DF14A000AF007FF787801A901F028FFE5
S31500005BC002E0002001F0F9FE18B0BDE8F081000007
S31500005BD018F00200BA670020177C0020107C002015
S31500005BE0D5670020C16700200D7C0020B967002022
S31500005BF0167C0020C3670020EE7B0020EC670020A7
S31500005C00E8690020447200207E7300204072002064
S31500005C10C86600208875002080750020EE67002089
S31500005C20247C0020EC7B002078F40200636F6D6D0D
S31500005C30616E642D68616E646C6572732E6300001C
S31500005C400110000070F402000210000072F402005D
S31500005C500302000074F402000510000082F4020042
S31500005C60070800007EF40200000200006CF4020047
S31500005C700402000076F40200095C000084F40200CD
S31500005C800A14000086F402000D02000080F40200EF
S31500005C900C0800006EF402002DE9F84F80460D4610
S31500005CA0DFF8140C0A99067801247E2991469A4653
S31500005CB0A8BF742043DA080003D00B9809F06DF8EA
S31500005CC001E000F0C5F883460C9FBBF1FF0F03D13E
S31500005CD000201824387031E0342E06D0362E0ED02F
S31500005CE0382E13D0962E18D01AE05B464A4629461F
S31500005CF0404602F073FA044602F09DFF10E05B4650
S31500005D0042464946284602F0C9FA08E05B46EAB22E
S31500005D104146484602F03DFB01E00BF037FD0446E4
S31500005D20962E1CBF99F80A00387024B9DFF88C0B40
S31500005D30006800F80BA0584608F0ACFF2046BDE806
S31500005D40F28F10B584B0089C0294079C0194069CBF
S31500005D50009407E010B584B00446104600F00FF832
S31500005D600A462146FFF798FF04B010BD10B5044659
S31500005D7084B00846114600F002F82246F2E7089A77
S31500005D800292079A0192069A00927047E0B50022A5
S31500005D90019100900292002300210020FFF77CFF72
S31500005DA00EBD2DE9F04683B00D460C990746080056
S31500005DB091469A4603D00D9808F0EFFF01E000F0F7
S31500005DC047F804460E9EFF2C03D10020182530709C
S31500005DD00BE00A980190CDF800A023464A462946D2
S31500005DE0384602F0BBFA00F027F822E02DE9F0462B
S31500005DF083B089460C990546080092461F4603D093
S31500005E000D9808F0CAFF01E000F022F804460E9E45
S31500005E10FF2C03D10020182530700AE00A98009064
S31500005E2001943B4652464946284602F059FA00F08C
S31500005E3003F82846BDE8FE860500B87A307004D11E
S31500005E40DFF8781A09680B980855204608F022BF33
S31500005E50002008F081BF38B5DFF8644A2080C88882
S31500005E60440606D5DFF85C4A2478202C03D10004CA
S31500005E7001D4702032BDDFF8504A1000216004D0F2
S31500005E801146184608F089FF01E0FFF7E1FF0546D5
S31500005E90FF2D08BF18240AD020684088294602F042
S31500005EA069FC044602F0C7FE284608F0F3FE2046C9
S31500005EB032BD02F040BE0BF0A7BD0BF0A1BD2DE92F
S31500005EC0F041069F0D4604461646984639460BF0A5
S31500005ED01EFE20460BF033FE0799088038460BF06D
S31500005EE03DFF08990870294620460BF0A6FD074697
S31500005EF038B9314620460BF0DEFD414628460BF008
S31500005F004BFF3846BDE8F081DFF8C0391B78984270
S31500005F1001D370207047DFF8B829126832F82030B4
S31500005F200B8002EB80008078887000207047DFF8D5
S31500005F309C391B78984201D370207047DFF890296E
S31500005F4012680B8822F8203002EB80008978817075
S31500005F500020704730B585B00C4604F06EFA054651
S31500005F6000202073102307226946012006F051FE07
S31500005F70082202A920460AF0E3FCBDF800002081B1
S31500005F8004F114019DF80200A0729DF80300E0726E
S31500005F9004F110000BF059FFE08105B0284630BD32
S31500005FA038B504460D460AF021FB01460822204674
S31500005FB00AF0C6FC0AF016FB2880DFF818090078FC
S31500005FC032BD0CF006BBFF2203F004BA70B5A2B0D6
S31500005FD00D460446694604F019FB060004D12A461C
S31500005FE06946204601F09DFE304622B070BD10B5D0
S31500005FF004462078002841D1012020722070A07824
S31500006000401E0BD0401E07D0801F07D0401F05D072
S31500006010401F022802D903E002202072002060708F
S31500006020A07801280CD0022814D008280CD00D28FE
S315000060300DD0122817D0132817D0142818D01BE01B
S31500006040DFF89408007815E002F013FF12E00DF077
S315000060504EF80FE0DFF88408018804F10900BDE876
S31500006060104006F0A8BCFF2004E003F0ADF901E003
S315000060700DF0C6F9607210BD0020207010BD10B57D
S31500006080044682B0207858BB012020700020607042
S31500006090A07818B1022819D00BD31FE061686A46B0
S315000060A0C9B209F059FD60700220207204F109009E
S315000060B007E00320207268460DF06DFB607204F164
S315000060C00A00BDF8001006F076FC13BD0120207210
S315000060D0606880B202F03FFD607213BD0020207040
S315000060E013BDF0B5044687B02078002840F01A8129
S315000060F001202070A078010027D0012849D002286D
S315000061004ED0052818BF062852D0082800F0FB807C
S3150000611009285BD00A2800F07E800B2800F08080DA
S315000061200C2800F0C4800F2800F0C580232818BF73
S31500006130242800F0CD80252800F0DB80292800F0F7
S31500006140E480342800F0E380EAE0207A102860D169
S3150000615000F0EAF8ADF80400082294F90B008DF877
S31500006160060004F11001207B8DF80700607B8DF896
S315000061700800A07B8DF80900E07BADF80A0003A8B3
S315000061800AF0DEFB1023072201A9002006F041FDDC
S31500006190C3E0207A01283CD1607ADFF83C17BBE0E7
S315000061A0207A022835D100F0BFF8DFF830170BE06F
S315000061B0207A02282DD100F0B7F8A17805290CBF66
S315000061C0DFF81C17DFF81C170880A6E0DFF81807B1
S315000061D00568207A46080DB9DEB99EE0DFF80C079F
S315000061E00078B04215DB002707E004EB47000930D2
S315000061F006F0DAFB25F817007F1CB742F5DB4FF4F3
S31500006200004725F8167028460DF005FD002801D038
S315000062102F80362082E000F087F80DF0E2FE7CE069
S3150000622000F082F8DFF8C8261268527B05464FF662
S31500006230F87122B9884202DA0AF006F96DE02A00FE
S315000062402FD088422DDA0AF0FBF8854229D028465D
S315000062500EF098FD28BB05A928460BF019FD00BBDA
S3150000626028460FF006FBE0B928460FF027FCC0B918
S3150000627028460FF036FEA0B928460CF0EDF980B995
S31500006280284610F009FC60B928460AF0DDF8992383
S315000062901322A1A1032010F069FC992010F0A2FDA1
S315000062A03BE00AF0CDF8854237D0382036E0607AF8
S315000062B0DFF8401630E0657A04F10A0006F074FB58
S315000062C0ADF800006A462946012009F045FC25E0A4
S315000062D0217A042912D123280CBF0325012504F1B4
S315000062E00901012006F079FB0146284610F00EFE52
S315000062F014E0607A032818BF042801D002200DE0BC
S3150000630003F06EFF09E0372008E0702006E0607AAF
S3150000631000B10120DFF8E01508700020607001E090
S315000063200020207007B0F0BD04F1090006F03CBB68
S3150000633010B50446DFF880050078217856280CBF92
S315000063400120002009BBA170DFF8782561780329B8
S3150000635005D108B150780FE0E078507013E00229BB
S3150000636005D108B1107807E0E07810700BE0092934
S315000063700BD118B104F008F9E07004E0E07800B140
S31500006380012004F0F0F80120207010BD017801B161
S31500006390704730B58170012101704178052908D018
S315000063A0122915D018290CD01F2914D0382915D038
S315000063B018E0DFF84815DFF8482509781278891AB9
S315000063C024E0DFF840150A78511E8941C90F1DE007
S315000063D0DFF8341504E0DFF8341501E0DFF8301596
S315000063E0098813E000220FF2645300E0521CD2B277
S315000063F014461D5DFF2D02D10021017030BD8D4276
S31500006400F4D10FF2645151F824100978818030BD1F
S3150000641070B50446207800287BD10120207000202A
S315000064206278A070052A0AD0122A2CD0182A1FD00A
S31500006430192A04D01F2A22D0382A2FD033E0DFF8B9
S31500006440C0040578DFF8B40401784E1BA188052A3C
S315000064500CBF0E460D46A919C9B208F0DFF900288F
S31500006460A07056D1E9B2F0B2BDE8704010F0B6BFE8
S31500006470A188481E8041C00FDFF888143FE0A0883D
S31500006480DFF888140DE0A18847F231508142A8BF99
S3150000649036203BDADFF87004018070BDA088DFF893
S315000064A07014088070BD0FF2A44100E0401CC0B219
S315000064B00346CD5CFF2D02D10020207070BD9542B1
S315000064C0F4D1A188022B08DADFF8480450F823003B
S315000064D00078884238BF362018D30FF28C4050F827
S315000064E02300092B0DDAC9B208F098F9A07000282C
S315000064F004BF607811280CD1A088DFF81C1408703E
S3150000650070BD342A04D1C9B208F088F9A07070BDF4
S31500006510017070BD0000000042420000F8B504465C
S315000065200D461146184608F038FC18260746FF2F78
S3150000653008D03A462946204611F0A4FA06463846BF
S3150000654008F0A8FB3046F2BD38B504460D46218852
S31500006550284606F030FA6188A81C06F02CFA207945
S31500006560287160796871A81DE18806F024FA2189EE
S3150000657005F1080006F01FFAA07AA87231BD10B521
S3150000658086B004461B208DF80000A0788DF8010027
S315000065900DF10200218806F00EFA0822211D01A83D
S315000065A00AF0CEF9E1788DF80C10217B8DF80D10EC
S315000065B0607B8DF80E000DF10F0000F0BEF9112181
S315000065C000F01FF906B010BD80B51C228DF8010041
S315000065D08DF802108DF80020D9E02DE9F04788B03B
S315000065E007460D46144611F0C3FA8246224629464E
S315000065F0384609F03DFA002863D10DF1090011F083
S31500006600BFFA30B962208DF80800092102A810F0FF
S3150000661004FBFF2C0FBF0026C04909680E5D45200C
S315000066208DF808008DF809700DF10A012846FFF76C
S315000066308BFF0DF1150000F080F951460DF11700A2
S3150000664006F0B9F902F0BBF88DF819000027B44836
S31500006650DFF8AC820568DFF8A49201E07F1C0C35F8
S3150000666099F8000098F80010FFB2401A87420ADA3B
S3150000667028885045F2D108F03AFFA97AC1F34201C1
S315000066808142EBD100E0FF278DF81A708DF81B6070
S31500006690504602F060FA8DF8040000B10120009027
S315000066A001AB2246142102A810F0BFFA00281EBF33
S315000066B084480078212804D19A48017841F00401E1
S315000066C0017008B0BDE8F0872DE9F043074693480E
S315000066D000681D4687B0465D0E9C88469146214659
S315000066E0384601F0F6FB3F208DF804008DF8057062
S315000066F041460DF1060006F05EF902A94846FFF78D
S3150000670023FF6E480068405D8DF813008DF8144035
S3150000671085480078402804BF0026FF250020009009
S315000067208DF8156000232A46122101A810F07DFA83
S3150000673007B0BDE8F08330B589B00D46044604A91C
S315000067400BF047FF23208DF800008DF801408DF8EF
S3150000675002500DF10300BDF81A1006F02CF90822BC
S3150000676004A90DF105000AF0EBF89DF818008DF864
S315000067700D000E2100F045F809B030BD80B57C2132
S315000067808DF8001001460DF1010006F014F9032101
S31500006790684610F042FA01BD70B586B004467D2009
S315000067A08DF800000D46164621460DF1010006F053
S315000067B002F9082229460DF103000AF0C1F88DF806
S315000067C00B600C2100F01DF803A811F0D9F918B9D7
S315000067D003A9204610F008FE06B070BD38B5044681
S315000067E00D4601F055FB80208DF800008DF8014024
S315000067F029460DF1020006F0DEF8042100F001F84A
S3150000680031BD684610F009BA10B584B0044646207A
S315000068108DF8040001A821784170617881700DF12E
S31500006820070000F08AF83D48A1780068405C8DF8C2
S3150000683009000023002000900621A27801A810F08C
S31500006840F4F91FBD80B598208DF800008DF8011071
S31500006850684602219DE71FB50C4692218DF804106B
S31500006860082201460DF105000AF06AF80DF10D0047
S3150000687000F063F829480068005D8DF80F000023DA
S315000068800020009022460C21D8E7244A00B5126861
S3150000689083B0125C8DF8051093238DF80620002135
S315000068A08DF80430009102460023032101A810F060
S315000068B0BCF907BD00000000147C002024770020EE
S315000068C0E2770020DB670020E4770020BF67002026
S315000068D0CC640020267C00202D7C0020B26700209E
S315000068E0AA670020AC6700200878002020770020E7
S315000068F00C770020E47B0020F6670020C7670020A5
S31500006900A9780020BB6700209867002094670020C4
S31500006910A467002058660020CC6700209C640020F5
S3150000692000650020E0770020D567002080B50BF0D9
S3150000693077F8BDE8014011F03DB910B5044611F0F5
S3150000694010F9601CBDE8104011F00DB911020306E4
S3150000695007081A2B2C1910131B1C1D2021222A2E66
S3150000696033343537FF000000BC670020C2670020C3
S31500006970C8670020BF670020BD670020BE670020F3
S31500006980067C0020C067002020770020A978002020
S31500006990CD670020CE670020CF670020C9670020A2
S315000069A0087C0020B9660020D0670020D16700204F
S315000069B00C7C00200F7C0020F7670020C3670020B6
S315000069C02F770020F467002038B5044600291046CA
S315000069D001461A46204602D012F00EFD01E012F0E2
S315000069E0DCFC0546002C1EBF04980028A04203D0FC
S315000069F02146142212F06CFD284632BD02460220C2
S31500006A0000291CBF104612F08FBD704702460220B7
S31500006A1000291CBF104612F01ABE70471CB504466A
S31500006A200020ADF800002078F8B902202072A07886
S31500006A300A280AD0102810D101A812F0F0FF6070C1
S31500006A40BDF80400ADF8000004E000206070684660
S31500006A500DF0E0FA0120207001E0207828B1BDF8A1
S31500006A60001004F1090005F0A6FF13BD38B5044671
S31500006A702078002804BFA078102812D104F109015B
S31500006A80012005F0AAFF054604F10D0005F08CFF74
S31500006A90ADF800006946284612F096FF60700120A6
S31500006AA0207031BD76490978027856290CBF01213C
S31500006AB000212ABB8270012202704278130006D19F
S31500006AC0704A09B1117811E0C07810707047052A34
S31500006AD005D16D4A61B1117841F0500106E0062AF0
S31500006AE00CD16A4A21B1117841F06001C17070473A
S31500006AF0C17801F00F01C17011707047002101705B
S31500006B00704710B504462078B8B900F045F806D0AD
S31500006B101E2807D0242807D0362808D00BE009F015
S31500006B2069FD06E05A4800E05A48007801E05A48F4
S31500006B300088A08010BD0020207010BD10B504464E
S31500006B40207840BB00F028F806D01E280AD024285A
S31500006B5012D0362819D01CE0A088BDE81040C0B27B
S31500006B6009F04CBD4D48A188007888420AD3C9B2C5
S31500006B70474807F053FE06E0A1880B2902DA45488C
S31500006B80017010BD3620A07010BDA0884249088053
S31500006B9010BD0020207010BD012020700020A070C4
S31500006BA060780D28704700002DE9F04F1646012E3B
S31500006BB089B0804689469A4612D10124002506A846
S31500006BC00DF032FA022755EA0401DFF8B8B005D015
S31500006BD058B9BDF81800800707D535B1032715E069
S31500006BE00024032EEAD10125E9E79BF800000528D9
S31500006BF00AD8DFE800F0030605090841012705E089
S31500006C0085B1002702E02746022F0BD009F018FCB9
S31500006C10824507D0514640460AF0C9FE49464046DD
S31500006C2010F0E2FB019753469BF8000000903246B5
S31500006C3049464046FDF7A5FC044624208DF8080089
S31500006C4041460DF1090005F0B6FE082249460DF150
S31500006C500B0009F075FE8DF813608DF8144051464F
S31500006C600DF1150005F0A7FE0F2102A80FF0D5FFC4
S31500006C70204609B0BDE8F08F002DC2D0AEE7000077
S31500006C80147C0020D86700200A7C0020CA670020F8
S31500006C90097C00200E7C0020966700208EF40200FE
S31500006CA080B56E218DF800108DF80100022168462E
S31500006CB00FF0B3FF01BD10B584B00C469B218DF8D3
S31500006CC00010082201460DF1010009F039FE8DF889
S31500006CD009400A2168460FF0A0FF1FBDF0B583B03A
S31500006CE010F8014B0E461746214608F056F80546A1
S31500006CF0FF2D03D10E4901200870F7BD8E208DF8B7
S31500006D0004008DF80560002000908DF806708DF85F
S31500006D10074000232A46042101A80FF086FF2846D3
S31500006D2007F0B8FFF7BD00B1024812F0B9BE000087
S31500006D30EC7B0020DD6C000000B58028A1B0A8BF68
S31500006D4002200ADA8DF8000002460DF1010009F072
S31500006D50F7FD0021684612F047FF21B000BD10B5CF
S31500006D6004462078002804BFA07833280FD10120DC
S31500006D70207009B1002004E0607A12F085FF00B1AE
S31500006D80362060700120207212F08EFF607210BDF6
S31500006D900121E4E70021E2E730B58BB004460D4659
S31500006DA02A22FF21684609F00EFE2146284607F0F2
S31500006DB0F4FF0446FF2C08BF182505D012F08AFF01
S31500006DC00546204607F066FF28460BB030BD10B5D5
S31500006DD04E4C2178FF29A8B008BF702020D0002093
S31500006DE000904A2300220AA807F0F3FF0020009033
S31500006DF0252321784A221DA807F0EBFF00200090EA
S31500006E00242321786F2201A807F0E3FF207807F0FA
S31500006E1041FFFF20207001AA0AA91DA812F067FFF2
S31500006E2028B010BDF8B5394F04463878FF280D460E
S31500006E30164608D19321002007F0AFFFFF283870CF
S31500006E4001D13520F2BD01200090334639782A461B
S31500006E50204607F0BEFF0020F2BD10B50446A6B0DE
S31500006E60207860BB01202070A0781A2804D024D393
S31500006E701C2815D00AD320E04A2204F1090113A8E0
S31500006E8009F05EFD4A22002113A812E0252204F132
S31500006E90090109A809F054FD25224A2109A808E09C
S31500006EA0242204F10901684609F04AFD24226F21D3
S31500006EB06846FFF7B7FF607001E00020207026B03B
S31500006EC010BD0178002904BF417829290CD1104949
S31500006ED00978522904D10F4909788180002100E000
S31500006EE03821817001210170704710B5074C207858
S31500006EF0FF281FBF06490978AB29ED2903D007F003
S31500006F00C9FEFF20207010BD00000000DA670020D7
S31500006F10147C00200B7C002011B1012903D004E071
S31500006F20114604F073BC04F0C4BC0220704710B5CF
S31500006F3004462078002804BF607808280ED114483B
S31500006F400078562803D105F03BF9E07002E0E078BE
S31500006F5005F039F90020A0700120207010BD0178DD
S31500006F60A1B941782F2908BF0A4902D030290DD18D
S31500006F70094959B1064A1278522A07BF0978818011
S31500006F8082880A700021817001210170704700001B
S31500006F90147C0020D3670020D467002030B58FB062
S31500006FA005460C463B220021684609F00CFDB6203A
S31500006FB08DF800000DF10101284600F076F8DCB1ED
S31500006FC000218DF82910082221460DF12A0009F02A
S31500006FD0B7FC0DF12905207A68720DF1330061893D
S31500006FE005F0E9FCA1890DF1350005F0E4FCA07B74
S31500006FF0A873E07BE87302E001218DF829100DF1FA
S315000070003900FFF79AFC3B2100F00CF80FB030BDB9
S3150000701080B5B7218DF800108DF80100022100F02F
S3150000702001F801BD68460FF0F8BD10B586B00446FC
S31500007030B8208DF800000DF10100218805F0BBFC99
S3150000704061880DF1030005F0B6FCA1880DF105007D
S3150000705005F0B1FCE1880DF1070005F0ACFC2189D3
S315000070600DF1090005F0A7FC61890DF10B0005F093
S31500007070A2FCA1890DF10D0005F09DFC0DF10F009C
S31500007080FFF75BFC1121FFF7CDFF06B010BD00B581
S315000070908BB0BB218DF800100DF1010100F005F851
S315000070A02921FFF7BFFF0BB000BD38B504460D46DA
S315000070B0A0782870681C218805F07DFC0822211D17
S315000070C0E81C09F03DFCE078E87205F10E01207B32
S315000070D02873607B68730120226905F070FC626981
S315000070E005F11201012005F06AFC218B05F116005D
S315000070F005F061FC082204F11C0105F1180009F0F5
S315000071001FFCA18C05F1200005F055FCE18C05F172
S31500007110220005F050FC04F1280105F124000A784C
S3150000712002704A7842708A788270C978C17031BD1F
S31500007130F8B5BB4D0446286800792B38022801D9DA
S315000071400D382ED100F020FC06462868B549401DB2
S315000071500860002131200FF028FE05464FF6FF7724
S315000071600BE005F10D0080B20FF04CFDB04213D0DC
S31500007170294631200FF019FE0546BD42F1D1002106
S3150000718000E0294632200FF010FE0546BD4208D029
S315000071900FF038FDB042F4D1A42000F00EFC002020
S315000071A02070F1BD38B50446002100E029463F2095
S315000071B00FF0FBFD05464FF6FF7085420CD02846C2
S315000071C00FF020FD0228F1D1681C80B20FF01AFDE5
S315000071D0A042EBD1012032BD002032BD2DE9F8439B
S315000071E08046002145200FF0E0FD4FF000090446DF
S315000071F08D4D4FF6FF7609E0FF21B8B20FF007FD7F
S31500007200A1B245200FF0D1FDA1460446B44224D0D8
S3150000721004F11007B8B20FF0F5FC4045F0D1204656
S315000072200FF0F0FC022818BF0328E5D1A41FA0B276
S315000072300FF0E8FC01462888401A32187B482A805D
S315000072400919121B92B2007800924B1C9BB202469F
S31500007250A1B207F0B6FF4C46D2E7BDE8F183F0B520
S31500007260734F3D788BB0064608F041F908F01BF9DC
S3150000727000F07BF806D012282FD17188707808F0BC
S31500007280AEFC50B3707804A908F048FC88B1BDF88C
S31500007290100040F20911884204BF7088B0F5006FF3
S315000072A007D1701D12F02EFDB52802D0A8B9002412
S315000072B013E00124002500E06D1C3978E8B288420D
S315000072C00BD206A900F099F99DF818000028F3D111
S315000072D03146E8B200F09CF9044631208DF80000F2
S315000072E030788DF8010070788DF802000DF10300FA
S315000072F0718805F060FB30798DF805000822711D54
S315000073000DF1060009F01CFB8DF80E508DF80F40AC
S31500007310102168460FF081FC20460BB0F0BD38B551
S31500007320054608F0E4F808F0BEF800F01EF818BFAD
S3150000733012280DD12846FFF735FF08B1752407E05E
S31500007340284600F0B0F9040004BF2846FFF746FFC0
S3150000735032208DF800008DF801508DF8024003218F
S3150000736068460FF05AFC204632BD324800786C243D
S315000073701128704738B504460D46FFF713FF08B1CC
S31500007380752511E03DB108F08AF868732946204654
S3150000739000F03EF902E0204600F085F90546280097
S315000073A004BF2046FFF71AFF284632BDE2E7002158
S315000073B0E0E721490978027856290CBF012100210E
S315000073C0002A04BF4278012A0AD11A4A002919BFA5
S315000073D01178C170C178117000218170012101708E
S315000073E0704710B504462078002804BF607804284A
S315000073F014D111490E480978522903D10078A0808A
S31500007400002008E00D4AA18812788A4232BF362051
S31500007410C9B207F003FAA0700120207010BD000069
S31500007420E869002040720020EE7B0020EC67002017
S31500007430077C0020D9670020147C00208CF4020011
S315000074401FB50C4602460D231521684609F0F5FBCB
S315000074500D226946204609F073FA207840096073C8
S31500007460207800F01F0020701FBD30B585B004469F
S315000074700D460D22684609F063FA9DF80000697B07
S3150000748040EA41108DF800000D236A46214615207A
S3150000749009F016FC05B030BD2DE9FF41044600F0A9
S315000074A05FF814E03068EDB2A84630F81800A04244
S315000074B00CD16946284600F0A0F89DF80000022885
S315000074C004D031684FF6FD7021F818006D1CE8B243
S315000074D039788842E6D3BDE8FF812DE9F045884634
S315000074E04FF6FF7AD04585B0044605D100F0D8F9AD
S315000074F010B908F0A5FF30E000F032F80CE0D045F6
S3150000750008D0306830F81510414504BF4FF6FD71BC
S3150000751020F815106D1CEDB2387885421CDA3068FB
S3150000752030F8150000F018F9F4DA69462846FFF736
S3150000753087FF082221460DF1050009F04BFA0028C5
S31500007540DDD13068D04502D130F8150005E020F8CD
S31500007550158012F012FCDDE7504605B0BDE8F08557
S315000075600025DFF8C463DFF8C47370472DE9FF47D1
S31500007570804689460026DFF8B873DFF8AC43DFF8AB
S31500007580AC5316E02068F6B2B24630F81A0000F0A6
S31500007590E3F80DDA69463046FFF752FF0822414606
S315000075A00DF1050009F016FA10B9386800F80A90CE
S315000075B0761CF0B229788842E4D3BDE8FF87DFF86D
S315000075C06813096831F8100070471FB5DFF85C23AF
S315000075D0127890420C460FD2D349096831F8101040
S315000075E04FF6FE72914207DA694600F006F8214628
S315000075F00DF10500FFF771FF1FBD80B5CB4B1B7862
S31500007600984201D3692002BDFFF71AFF002002BD90
S3150000761070B504460D4623460022B4A103200FF0A0
S31500007620A5FA28780028204602D1BDE870403AE045
S31500007630BE490978884201D3692070BD12F0CBFF9C
S3150000764008B1752070BD07F009FF6873681D0AF060
S3150000765085FB06464FF6FF71681DFFF73EFF0246A3
S3150000766029783346204600F006F829462046FFF7DB
S31500007670FCFE002070BD30B54FF6FF740D0008BF4C
S31500007680224608D0032908BF4FF6FE7203D0A24255
S3150000769008BF4FF6FD72A449096821F81020A449D5
S315000076A009680B5430BD30B505462C4685B02346D7
S315000076B001228EA103200FF059FA9C490978284629
S315000076C0884228BF692019D212F085FF08B17520BB
S315000076D014E069462846FFF7B3FE9DF8000030B176
S315000076E000208DF8000069462846FFF7BEFE8E4949
S315000076F009684FF6FF7021F81400002005B030BD70
S31500007700F0B585B007460C46874D884E00E07F1CD5
S315000077103178F8B288421CD22868FFB230F81700D8
S3150000772000F01AF8F3D169463846FFF789FE9DF84E
S315000077300500E1B2884204BF9DF80610B1EB142F94
S31500007740E5D107F08BFE9DF80D108142DFD138465A
S3150000775000E0FF2005B0F0BD4FF6FE71884270478D
S315000077602DE9F14F84B00D460E9C6F4FDFF8BCA19A
S3150000777090469946002607E03868BDF8101030F8A4
S315000077801B0088422CD0761C9AF80010F0B2884272
S3150000779028D23868F6B2B34630F81B00FFF7DCFF94
S315000077A0F1DA69463046FFF74BFE5FEA080007D17B
S315000077B09DF80100484504BF9DF80400A042E2D1AF
S315000077C007F04CFE9DF80D108142DCD1002DD3D080
S315000077D008220DF10501284609F0FCF80028D2D14F
S315000077E0304600E0FF2005B0BDE8F08F10B5144626
S315000077F0FFF726FE2046BDE8104008224D4909F055
S315000078009FB82DE9FF470446084615461E4600F078
S3150000781047F808B1002040E00027DFF80C81DFF8C8
S315000078200C9100E07F1C99F80010F8B2884223D230
S31500007830D8F80000FFB2BA4630F81A004FF6FF71CA
S315000078408842EFD069463846FFF7FAFD0C220DF163
S315000078500101601C09F0BEF80028E3D1BAF1FF0F60
S315000078600CD10020307007F018FE307855B138B9C9
S315000078702046FFF7F4FC09E0FF27F2E70120F1E7D5
S31500007880012006E028B13846FFF749FD401E804139
S31500007890C00F307007F0BEFD012004B0BDE8F087D0
S315000078A00822244909F096B830B585B000241F4D4A
S315000078B016E06946FFF7C4FD9DF80000042806DBC4
S315000078C000208DF800006946E0B2FFF7CEFD9DF876
S315000078D0001000234FF6FF72E0B2FFF7CCFE641CE7
S315000078E02978E0B28842E4D305B030BD42420000B8
S315000078F030B585B002220BA103200FF037F9002026
S315000079008DF800000024094D03E06946FFF7ADFD40
S31500007910641C2978E0B28842F7D3FFF7C5FF002040
S3150000792005B030BD42000000F4640020077C002052
S31500007930F86400208075002030B583B0044600F05E
S3150000794023F80546202D1ADA5CB16946082000F0B6
S3150000795022F808236A462946202009F0B1F90020BA
S315000079600EE008232A462021684609F066F9002021
S3150000797000F023F86946082000F04AF837BD702069
S3150000798000F01BF837BD70472A480168491C0160A2
S3150000799011F8010D704738B50446264D084629688A
S315000079A0224608F0CDFF28682044286031BD214AD0
S315000079B0116808441060084670471F491F4B0A6843
S315000079C01B68D31ADC2BB8BF10700868401C08600F
S315000079D0704710B50446C0B2FFF7EFFF200A48E033
S315000079E010B5FFF7D1FF00F042F904EB002080B29A
S315000079F010BD10B5044680B2FFF7EBFF200CB7E0D0
S31500007A0010B5FFF7EDFF00F05EF804EB004010BD87
S31500007A1038B5094C094A2368126805469A1AAA1805
S31500007A20DD2A03DA0246184608F08AFF2068284451
S31500007A30206031BD4072002044720020E8690020B9
S31500007A4010B500F042F8FFF7CBFF2081FFF79CFF4F
S31500007A50A072FFF799FFE072FFF796FF2073FFF71A
S31500007A60BFFFE081FFF790FF2074FFF7C9FF606159
S31500007A7010BDBDE81040A0E710B500F024F8208046
S31500007A80FFF7AEFF6080FFF77FFF2071FFF77CFFF7
S31500007A906071FFF7A5FFE080FFF7A2FF2081FFF7E7
S31500007AA073FFA07210BD10B500F00AF8A078E0E7E9
S31500007AB010B500F008F82080FFF766FFA07010BD33
S31500007AC00446208885E704468AE7044621460820BE
S31500007AD061E710B500F0CBF8A070FFF781FF2080BA
S31500007AE0211D00F0C2F8FFF74FFF00B10120E07042
S31500007AF0FFF74AFF2073FFF747FF607310BD10B50D
S31500007B000446214600F07FF82069BDE8104070E782
S31500007B1010B50446214600F078F8FFF771FF2061A2
S31500007B2010BD10B5FFF7CFFF208010BD207944E7C8
S31500007B3010B50446FFF7CDFF04F1100000F01BF866
S31500007B4004F11C0100F091F8FFF74AFF24F8240F16
S31500007B50FFF746FF6080FFF717FF2071FFF714FF5E
S31500007B606071FFF711FFA071FFF70EFFE07110BD06
S31500007B70BDE810402DE710B50446FFF741FF206031
S31500007B80FFF73EFF6060FFF72BFF208110BD10B5A9
S31500007B9000F010F800F08CF8E088FFF71AFF208953
S31500007BA0FFF717FF6089FFF714FFA089FFF711FFA2
S31500007BB0A07B5EE7044620681BE710B50446FFF786
S31500007BC01FFF2060FFF70CFFA080FFF709FFE08092
S31500007BD0FFF706FF2081FFF703FF6081FFF700FF35
S31500007BE0A081FFF7D1FEA07310BD10B5FFF7E2FF2D
S31500007BF0FFF79CFF611D00F006F804F11501BDE8D2
S31500007C001040102004E7102002E71020C3E610B54C
S31500007C100446207AFFF7D1FE207A010006D12068BB
S31500007C20FFF7E7FE2068FFF7E4FE04E0022802D132
S31500007C30214600F002F8607A1BE70820E8E610B556
S31500007C4000F015F80100207206D1FFF7D9FE20607A
S31500007C50FFF7D6FE206004E0022802D1214600F09C
S31500007C6004F8FFF791FE607210BD082093E6044603
S31500007C708AE638B5044602252078FFF79EFE20786E
S31500007C80401E012806D96089FFF7A3FEA11CFFF755
S31500007C90D4FF09E000F00CF800F00CF800F008F84A
S31500007CA000F008F800F004F80C346D1EE4D131BD84
S31500007CB0A0888EE660888CE610B504462078FFF72B
S31500007CC07CFE6068FFF795FE04F10800FFF79FFF52
S31500007CD0A08AFFF77EFEA07DFFF76FFEA069FFF783
S31500007CE088FE04F11C01FFF78EFF04F12C00FFF75C
S31500007CF0C0FF14F8440FFFF760FE6078B9E610B5D0
S31500007D00FFF7DEFEFFF7D6FFA08831E710B5FFF7D5
S31500007D10DAFE2080FFF764FE6080FFF761FEA08038
S31500007D2010BD30B502F8010B002312E031F82340F4
S31500007D3002F8014B31F82340240A02F8014B01EB0B
S31500007D4083045B1C658802F8015B6488240A02F8D8
S31500007D50014B8342EADB30BD0CB4F8B505460C4650
S31500007D6006AE08E056F8040B290003D00078FFF7AA
S31500007D701EFE3860641C2078010037D056F8047B5C
S31500007D80622827D07028EDD0732818BF752804D034
S31500007D9076280CD0772814D0ECE7280003D0FFF71C
S31500007DA0F3FD3870E6E73878FFF707FEE2E72800CC
S31500007DB003D0FFF715FE3880DCE73888FFF709FEA9
S31500007DC0D8E7280002D0FFF71BFED2E73868FFF796
S31500007DD010FECFE756F8040B00782900394602D08A
S31500007DE0FFF7D9FDC6E7FFF713FEC3E7F1BC5DF861
S31500007DF00CFB000070B55D4D6E8A044605F1080067
S31500007E0012F05BFC012C08BFAE8A02D0022C08BF20
S31500007E10022618B1FA217143884206D3310205F1D0
S31500007E200800BDE8704012F03BBC70BD7CB54F4CFD
S31500007E300020E07020714FF6F972208A90421CBF34
S31500007E404FF6F872904202D00020207273BD61791D
S31500007E50474E4FF6FD7589B14FF6FC700190002331
S31500007E60002000900022308800210AF028FF002020
S31500007E70607135800120BDE87640BBE7A17810F03F
S31500007E8091F83088A842F5D0012060710220F2E70F
S31500007E9010B500F039F81CBF4FF6F874A34217D19D
S31500007EA0A92818BFAA2813D1D0781378401CD070FF
S31500007EB0C0B298420CD32E4803884FF6FD74A342F5
S31500007EC002D10180002050710020BDE8104091E7EA
S31500007ED010BD10B500F018F81CBF4FF6F874A34299
S31500007EE011D103001CBF012802280CD166290AD132
S31500007EF010795178401C1071C0B2884203D3BDE896
S31500007F001040002076E710BD184A138A4FF6F97420
S31500007F10A342704710B5154C218292000299217038
S31500007F209B0003996282A38261709BB20499A1703F
S31500007F3092B293420AD301001EBF218A4FF6F8720D
S31500007F4091421CBF4FF6F972914201D0702010BDCC
S31500007F50002161714FF6FD71054A118018B10120AB
S31500007F60FFF748FF00E02072002010BD6873002074
S31500007F709C6700202DE9F54F8BB08B460C98169C1C
S31500007F801799ADF804B00026C0889A460746B04651
S31500007F90B14649B9F90607D50C9A9DF82C0000940C
S31500007FA0594611F099FE16E1790548BF4FF48058FD
S31500007FB0390548BF48F40068B90548BF48F080084D
S31500007FC003D4F90548BF48F040089DF82C100291EB
S31500007FD05D469DF82C1003910A2966D8DFE801F06A
S31500007FE0082F1B3C65653C06083C18004FF002094B
S31500007FF0BDF80420CDF800A0334648F402712046AF
S315000080000BF054F98246BAF1FF0F50D11820E2E086
S315000080104FF00309ECE706A95FFA8BF0FFF7EDFADC
S3150000802008220DF11D0104A808F08AFCDFF8880873
S31500008030006830F8150004AEADF80400D8E704A9CE
S315000080405FFA8BF009F063FDDFF8700800680C2119
S31500008050694304AE405AEFE74FF6F8718D4224DBD0
S315000080604FF40261084220D100F012F918BF9120A6
S315000080701CD1FF2C0FD000F076FB029903290CBF10
S3150000808001210021401ADFF838180968095D884285
S31500008090B8BF74200ADB029803280CBF4FF00C0906
S315000080A04FF0080928F4C078A2E7012093E0DFF832
S315000080B0145828884FF6FF71884218D0504612F09F
S315000080C020FC0090001D298804F075FCDFF8F807F5
S315000080D000990078C8714FF6FF7028805FEAC840A3
S315000080E005D500980822291D083008F029FC0C9AAD
S315000080F0494650460BF0AEFA08B9182667E0DFF895
S31500008100CC070068C07E70B1B8060CD5F8074CBF26
S315000081102020002040F001033246002150460FF097
S315000081208FF8060053D1FF2C15D0504612F0DFFB16
S31500008130DFF898170968C97E01B11221DFF8802798
S315000081401268135D12F80A20D21874308918884212
S31500008150B8BF74263BDBB80407D5504612F0E1FBE6
S3150000816040F48061504612F0DEFB0298082812BFE8
S315000081700928504612F0E4FB179848B1BDF80410E0
S31500008180504612F0F6FB179880F800A0002022E077
S315000081900398C01E05D0C01E012884BFC01E01283A
S315000081A007D850460FF055FD00280CBFA126002623
S315000081B00DE0B80444BF4FF6BF7007409DF82C1081
S315000081C03B465FFA8BF2504611F0D8FD0646504604
S315000081D006F060FD30460DB0BDE8F08F2DE9F043A6
S315000081E0164685B00446F08804900D4670790FF265
S315000081F0187103901F4630790290A8467088019046
S31500008200434630880090082200F099F800F040F8C4
S3150000821018BF91201AD1FF2F09D000F0A4FADFF879
S31500008220A0160968C95D884238BF74200ED32000A5
S315000082300FD14FF6F870804528DA0020019000979C
S31500008240FF23324629462046FFF794FE05B0BDE8D7
S31500008250F083022C4FF6FE790CD1DFF874160978FC
S315000082608D4213D2DFF85006006830F818004845F2
S31500008270E3DB0BE0012C09D1DFF8581609788D42B3
S3150000828004D2E8B209F05BFC4845D6DB0120DDE705
S31500008290DFF838060068407B02287047F0B587B0E3
S315000082A00D461646044605961F46E8880FF260619D
S315000082B004902346687903900922287902906888F9
S315000082C001902888009000F03AF80020019000976D
S315000082D033462A4621460620FFF74CFE07B0F0BD7E
S315000082E02DE9F04188B01E460E9C07948046F08822
S315000082F006901746707905900D4630790FF21C618D
S3150000830004904346708803900A22308802900197B1
S31500008310009500F014F8DFF8AC05A0F800802346BD
S31500008320DFF8A40507700020019032460F980090F0
S3150000833029460620FFF71EFE08B0BDE8F08103209F
S315000083400EF014BC80B538B101460822DFF8880566
S3150000835008F0F6FA002002BD022002BD70B588B012
S3150000836000F02EF80C98DFF85C15009608802B4676
S315000083700D98DFF8541508702246DFF8600500787E
S31500008380002814BF4FF6FF714FF6FD7100200190D3
S3150000839011E070B588B000F013F8DFF840050078FA
S315000083A00096002814BF4FF6FF714FF6FD710020AE
S315000083B001902B4622460320FFF7DCFD08B070BD76
S315000083C004460D46069205951E46E0880FF2585162
S315000083D004900622607903902079029060880190CB
S315000083E020880090032023890EF0C0BB10B5DFF86B
S315000083F0F00406F02FFF0446FF2C0DD02146042082
S3150000840006F0AFF918B10121204600F006F8204623
S31500008410BDE8104006F03EBC10BD2DE9F04F89B016
S3150000842082468B4612F06DFA0646B01C04F0BCFA82
S31500008430DFF8B044DFF8B054074650460AF0E7FFCD
S315000084400146504606F0CDFD8046504612F073FABE
S3150000845006F0AEFF301D04F0A7FA2080009707F063
S31500008460EFFF009989B2814208F0030912D04FF656
S31500008470F87087420EDA7078C0070BD438460AF0D7
S31500008480DBF8002805D0208801235246394600F043
S315000084909EF97AE005A950460BF048F805A8286031
S315000084A030460AF0D1FFDFF8441408600321504635
S315000084B012F017FADFF8381408700421504612F04B
S315000084C010FADFF8301408705FEA0B002BD09DF825
S315000084D01A00800627D507F0B3FFDFF8F06340B136
S315000084E03068007D800704D4B9F1010F08BF182356
S315000084F000D008230022002150460EF0A1FE90B1C4
S3150000850008F00300012802BF3068407B112805D11E
S3150000851002F069FA10B9AF2000F035FC06F07AFFD8
S315000085200020286048E018F0030003D0022806D097
S315000085300AD32AE05946504600F041F825E0514654
S31500008540404611F04AFC20E007F07AFF218881427C
S315000085501BD05146052006F004F9B0B12968887988
S3150000856040060DD50C2202A808F0EAF90020019079
S31500008570FF23FF20009002AA21880A20FFF7FAFCB9
S3150000858021885A4650460BF08FFD07F059FF218887
S3150000859081420DD150460AF03AFF0146504606F098
S315000085A020FD0C21084203D10021504611F04CFE5B
S315000085B00020286006F02EFF09B0BDE8F08F2DE9F7
S315000085C0FE4F814612F09DF9064648460AF01FFF07
S315000085D00146484606F005FD05467078DFF8084373
S315000085E0DFF8007300F001000290B01C04F0DCF923
S315000085F04FF6F8718842ACBF4FF0010A4FF0000AFF
S3150000860007F01EFF3988814220684088ADF80200D5
S315000086100CBF4FF001084FF00008B01C04F0C4F97D
S315000086200146029840EA0A008DF804009DF804000D
S31500008630002814BF06200820002207F0BDF8206895
S315000086400188BDF80260002904BF407900281ED1C8
S31500008650694648460AF074FA23689DF80010421EDF
S31500008660D2B2042012F051FA2068408848F2020182
S31500008670884203D13888494602F085FA3888B6F52B
S31500008680004F10DBBDF8022049460AF06DFA20685B
S31500008690029919B905F00C010C2935D1008909F0A8
S315000086A08CFB30BB51E0DFF850B202218BF8001092
S315000086B05346002249460AF0BFF8206880794006F2
S315000086C004D5BDF80200FF2100F054F8132EDED0C9
S315000086D02068C0884004DAD4884909789BF80000ED
S315000086E0CA0701D50228D2D089072ED50128CED0B7
S315000086F02BE020680189B8F1000F14BF032502257D
S315000087000020FEF7FDFF12E0017900910022437977
S3150000871038880021FFF724F805F00C01082905D157
S31500008720B8F1000F0CBF0425052500E000257449AB
S3150000873008709DF8040008B9382E01D1012200E026
S315000087400022294648460FF0B3F9BDE8F78F10B569
S31500008750044600F008F8610548BF0838210548BFFF
S315000087600838C0B210BD59490968C97E642001B1F4
S315000087705220704770B55C4E0C4686B0054631688F
S315000087800C2202A808F0DCF8306801798DF80D108B
S31500008790FF2341798DF80C10ADF80A504FF6BF71E2
S315000087A0C08800940840ADF80E0002AA002001908F
S315000087B04C4801880720FFF7DDFB06B070BD514825
S315000087C0007808B9FF2070474D48007870472DE9BA
S315000087D0FB47914685B01C4648460AF018FE0146FE
S315000087E0484606F0FEFB032108428DF800005ED1E4
S315000087F03D4805683B48068801A948460AF096FEAA
S31500008800394901A808604FF0000ABDF8140035493F
S3150000881008809DF80900002804BFBDF80400002860
S315000088203FD1484612F06DF8801C04F0BDF84FF6B3
S31500008830F8718842ACBF4FF00108D046002C14BF37
S3150000884002240124012729E0BDF8140043463A46D4
S31500008850494609F0F1FF5FEA000A1ED0022C08BF64
S31500008860012F1AD1BDF8180016490880174800686C
S31500008870417E491C4176A1F18000134908700C2104
S315000088809DF80000084208D19DF80A00400604D56C
S31500008890BDF80600FF21FFF76DFF7F1CFFB2BC424B
S315000088A0D2DA114805600F480680504600E00020E5
S315000088B008B0BDE8F0870000F464002000650020E1
S315000088C09C640020906600201C7C00200C77002011
S315000088D0077C0020C7670020946600200F7C0020DC
S315000088E0C4660020E2770020E4770020E8770020C5
S315000088F095710020967100201B7C00200C7C0020C6
S31500008900287C0020E0770020425757574242570004
S3150000891042575757424257420000000042575742BB
S315000089205757424257420000425757424242574227
S315000089304200000010B5044606F0B5FD10F0BAF886
S31500008940010018BF00F014F80C21304811FB04F1A7
S315000089500844827981880068BDE8104007F0F6B9BE
S315000089600020E7E70120E5E70220E3E70320E1E74F
S3150000897010B582B0044606F0BAFD0C2148432349DF
S315000089800844210017BF312C0021017A491C0172CD
S31500008990C279017A91420AD30021017243208DF8EF
S315000089A000008DF80140022168460EF036F913BD2D
S315000089B017490978312900D0704780B544218DF8D0
S315000089C0001001460DF1010003F0F5FF0321684692
S315000089D00EF023F901BD38B50E4C0C4B24780C254E
S315000089E06C43B0F5004FB8BF0429234401DB702067
S315000089F032BDDA71988099719A799988186807F06A
S31500008A00A5F9BDE8314010F055B8000060660020B9
S31500008A10DC670020157C002070B5160004460D4664
S31500008A2002D108F0C4FF02E0FF2108F06FFF3246D2
S31500008A3029462046BDE87040A0E02DE9F04782B007
S31500008A4005468A46174698460EF0CEFCC0480A9C54
S31500008A500078B0B10C2F14DAFF21284608F056FF33
S31500008A60814600260AE004EB4601C9B2404606F0FC
S31500008A7073FB494608F04AFF8146761CF0B2B842BD
S31500008A80F1D3009443463A465146284600F08EF804
S31500008A90BDE8F3872DE9F04704468A4600F0D5F88D
S31500008AA0012846D1204608F01BFFAA4A126812F890
S31500008AB00A700025FF281CD081464C46DFF89882B4
S31500008AC000E06D1CD8F8000000EB84008478FF2CD1
S31500008AD0F7D1E8B268B1EDB20C2D0ADA6800861C4F
S31500008AE0BAF1FF0F24D0F119C9B2504606F032FA96
S31500008AF008B100201DE02A463946504606F076FAAF
S31500008B007C1C6A1ED2B2E1B2504606F06FFA671CB0
S31500008B104C4606E030F82420F9B2504606F028FB11
S31500008B20BF1CD8F8000000EB84018C78FF2CF1D133
S31500008B30F0B2BDE8F08710B5FF280AD0864B1B6857
S31500008B4033F820400C8003EB800080781070002002
S31500008B5010BD032010BD10B508F0C2FE0024FF288A
S31500008B600AD0022401E0A41CE4B27B49096801EBA7
S31500008B7080008078FF28F6D1204610BD30B583B03E
S31500008B800C46C4218DF80010154601460DF1010072
S31500008B9003F011FF21460DF1030003F00CFF8DF8E1
S31500008BA00550062168460EF038F837BD2DE9F0412C
S31500008BB086B0074688461D460DF1050014460EF0A0
S31500008BC0D0FF01A80EF0CFFF59208DF808003946D6
S31500008BD00DF1090003F0EFFE082241460DF10B00EE
S31500008BE007F0AEFE9DF805000C9B8DF8130066009D
S31500008BF09DF804008DF81400F6B28DF81540009625
S31500008C002A460021284606F0DCFA3146284606F0B8
S31500008C10A1F90020009000232A460E2102A80EF09A
S31500008C2004F806B0BDE8F08110B5044600F003F87C
S31500008C304A48047010BD10B5484C2078FF2803D070
S31500008C4006F028F8FF20207010BD2DE9F041DFF86E
S31500008C500C81074698F80000FF2882B00C4619D010
S31500008C603C4D2A68115C8E1EF6B2314606F074FA47
S31500008C70B8420FD12868075DF5052D0EFF2C02D1ED
S31500008C80A81CC0B220E0F019811CC9B2204606F02B
S31500008C9061F908B1012017E02A463946204606F058
S31500008CA0A5F96A1E791CD2B2C9B2204606F09EF911
S31500008CB098F800200096B91C002389B2204606F0D9
S31500008CC080FAFFF7B8FF0020BDE8F6812DE9F041F4
S31500008CD080461F480078002688420F46154638BF52
S31500008CE0742032D3012005F06AFF0446380010D004
S31500008CF07900C9B2204606F02DF950B907E035F8DB
S31500008D0016207100C9B2204606F032FA761CBE4221
S31500008D10F5DB2046FF2811D00E4909680D5CA91C19
S31500008D20C9B206F017F928B942462946204606F088
S31500008D301FFA03E0204605F0ADFFFF242046FFF7AB
S31500008D4073FFFF2C0CBF18200020BDE8F081000047
S31500008D50067C00209C640020F0640020DD67002073
S31500008D60DFF86C2A1268127882420AD019B1012AF9
S31500008D7003D1022805D000207047022A08BF012827
S31500008D80F9D101207047DFF8D81C8875704710B5F7
S31500008D90DFF83C4A2068407B112805D040F20311D9
S31500008DA00FF20C0007F038FE21684120487310BD11
S31500008DB06173736F63696174696F6E2E630000007F
S31500008DC080B5022006F0D0FC06F0F2FA00F04FFC67
S31500008DD0042805D1DFF8880C417D491D417505E061
S31500008DE04FF47A71DFF87C0C11F05AFCBDE80140B3
S31500008DF006F010BB10B5DFF8684C0020E074207850
S31500008E00FF2803D005F046FFFF20207010BD70B587
S31500008E1082B004460D4605F0C7FE0646B01D03F0B7
S31500008E20C3FD00F44040B0F5404F0CBF06200020C3
S31500008E303118097C4A00490802F00E0201F0380197
S31500008E408918401800F11106DFF8DC0C0068005D97
S31500008E50F6B286420BDA831BDBB20F2BA8BF0F23B9
S31500008E600020009032462146284605F0B2FF3046E3
S31500008E7076BDDFF85C090068407B33281CBF4328B9
S31500008E80532801D101207047002070471FB50120EB
S31500008E9011F044FE11F047FE0EF0CEFEF0B1DFF801
S31500008EA0C04BA07910B104F10A0005E020786946AC
S31500008EB0FFF7ADFF0DF10300DFF8A82B00211170BD
S31500008EC0617901F0EBF9FFF795FF00F008F809F07A
S31500008ED07BFF11F079FE012001F00FFB1FBD10B5DD
S31500008EE000F051FE017B032918BF042905D14088F3
S31500008EF001F0DAFA08BF032008D007F073FB044636
S31500008F0007F074FB2146FEF7E8FA022007F07AFB29
S31500008F1008F092FF00F02BFEBDE8104009F080BF7C
S31500008F2038B5DFF83C4BDFF8645CA075FFF762FFED
S31500008F3000214FF6FF7001F0A9FA2868417B03294A
S31500008F4018BF00291ED0332918BF432914D101F0B8
S31500008F504CFA2868017B032918BF042906D103218E
S31500008F604173A07DBDE8324006F011BCA07D06F03D
S31500008F700EFCBDE83140B2E721214173BDE8314026
S31500008F800AF06BBC31BD10B5DFF84418DFF8D04AE3
S31500008F900968002048734FF6FE7007F055FA4FF641
S31500008FA0FF7007F059FA01F020FAA07DBDE81040E5
S31500008FB006F0EDBB70B5044684B0E07A0FF2D0013E
S31500008FC0DFF80C580290234694F90A000190152206
S31500008FD0208901F0CBF82868407B60B9208901F030
S31500008FE063FA08D000F04EF905D106F091FB10B9EE
S31500008FF006F0A2FB10B1702004B070BD2868007D99
S3150000900080070AD507F01CFA4FF6FE718842024621
S3150000901004D10CF030FE024600E000222146104644
S3150000902001F0FCF806000DD12868007D80074CBFD2
S315000090300220012001F0D4F8002101200BF013F8E2
S31500009040060001D03046D7E7DFF8140A007F08B1E2
S3150000905009F0B7FB00220821204607F055FB30B186
S315000090600421204603F0B4FE08B9A520C4E7DFF8C2
S31500009070200B00782074DFF81C0B60610020E08173
S31500009080204600F004F9064606F0C2FADAE70000C8
S31500009090423870574242000010B504462346182253
S315000090A001F0A5F9DFF8F00A0021017114B1FF2CD7
S315000090B002D10121017007E0012100F8041BA10083
S315000090C0491C090211F0ECFA00F051FD002010BD18
S315000090D0DFF8C41A00200871DEE730B50D4689B006
S315000090E0044668690FF2901107902346287C069083
S315000090F01622E8890590287B0490E87A039095F972
S315000091000A00029028890190009501F030F8287B2A
S3150000911000280CBF4FF6FE7007F092F92B46224648
S3150000912009B0BDE83040014601202DE9F041DFF8E5
S31500009130A04680462068407B00280F4616461D46FE
S3150000914049D1300047D0052E45DA00F09BF842D1D0
S3150000915006F0DEFA00283ED106F0EEFA08B1042E3B
S3150000916039DB287B032816D14FF6FE70874214D1CF
S31500009170012E08BF002710D0022E2CD107F060F96F
S315000091804FF6FC71884202DA07F05AF901E00CF05A
S3150000919072FD074601E0012E1DD0B8F1000F0CD07C
S315000091A0287B03280CBF01210021012E0CBF0120C2
S315000091B000200AF058FF01005CD12946384601F02C
S315000091C02DF8010056D106F049F906F05AFA20B1F9
S315000091D006F0B2FA08B170204CE02068DFF880781B
S315000091E0407B33281EBF53280020F875304600F018
S315000091F0F7FF387F20B106F09FFA08B909F0E1FAC7
S31500009200287B032803D12846BDE8F0413FE0082229
S31500009210294607F10A0007F093FB287B0328A8BF1D
S315000092200020B874FFF7E6FD9420B875B87C216875
S3150000923000280CBF01203120487301230020387517
S315000092402068817B4809020003D1BA7F03FA01F145
S3150000925008E001F01F0140F0180003FA01F10522B1
S3150000926041EAC061052011F04CFE010002D02268DF
S3150000927000215173BDE8F0814242387057424242A4
S3150000928057424400DFF8BC0C00780B28704710B535
S3150000929004460022082107F037FA08B1012010BD64
S315000092A007F0CEF800224FF6FF7100F0DBFF217CBD
S315000092B0204600F0F3FF6269E189207C08F0EFFDAB
S315000092C0DFF80C050068007B012808BF0BF055FC91
S315000092D0FFF705FE002010BD38B5DFF8F44401465F
S315000092E02068407B002802BFDFF8580C00780B2866
S315000092F001D0702032BDDFF86C5721B1022205F192
S31500009300080007F01DFB684601F097F808B19320A6
S3150000931032BD9DF80030142201F069F801F00AF818
S31500009320010050D19DF8000000F05AFF2068007B34
S31500009330012818BF022807D0032818BF042825D102
S31500009340002001F0B5F808B301F00BF82068007BA7
S31500009350032814BF042812F0B3F9FFF7C0FD01205B
S3150000936012F0D8F901002ED12068007B032818BF1F
S31500009370042827D1287A800724D50522DFF8141877
S31500009380012000F027F801001CD032BD216813200F
S3150000939048730020DFF8C816087501222068817B13
S315000093A04809030008BF02FA01F107D001F01F01C6
S315000093B040F0180002FA01F141EAC06105220720D7
S315000093C011F09FFD002032BDDFF89406C07D704786
S315000093D0FF22FFE72DE9FC41804600F0D4FB0D4655
S315000093E0017B0129164627D0407B022818BF032897
S315000093F022D1332007F006F92806DFF86476400FFD
S3150000940014BF0522BA7F2946052011F07AFD0446CD
S3150000941098B9FFF7EFFC07F01BF838815FEA080000
S3150000942014BF02200120B87407F10A0001F01DF8EC
S3150000943000203875FE7500E07024019400954346BF
S315000094402C220FF2100100F092FE2046BDE8F681B4
S3150000945000000000424244420000000038B50446C5
S3150000946005F0A2FB0546204611F041FA2C182046CD
S3150000947003F09AFA4FF6FF5101402046BDE834400A
S3150000948003F099BA70B588B00C4616461D4630B939
S31500009490204612F041F903A909F09BF803A8072119
S315000094A08DF808100190310A8DF80A1001200C99E8
S315000094B08DF80B1000908DF80960042302AA012193
S315000094C0204609F07EFF0646FF2E18D0214611F0F1
S315000094D050FA15B93046FFF7C1FF0D9808B9304666
S315000094E00DE0204609F0A8F818B1304612F042F90E
S315000094F001E000F036FE304605F0CCFBFF2008B058
S3150000950070BD2DE9F14F84B0894615469B4600276C
S315000095104FF6FF7455B1284609F096FF80466878E5
S3150000952040084FF0010A00F0010605E0484611F038
S3150000953088FABA460026804600F099F8032818BF34
S31500009540042800F091800BF10101C9B2484605F0EC
S3150000955048FD8346400800F001008DF808005FEAE8
S315000095600B6000F0EAFC58BF4BF0800B022806D1D6
S31500009570DFF824169DF810000978084301D1022768
S3150000958021E0404606F00BFFADF8000003214846F7
S3150000959011F0A7F9040008BF0124BAF1000F03D0A7
S315000095A0281D03F001FA01E0BDF800000146009411
S315000095B001235A46404608F033FF04464FF6FF7033
S315000095C0844208BF0127EDB19DF8100018B94FF687
S315000095D0FF70844204D1281D03F0E6F9014600E03D
S315000095E02146012001900097334622464046FFF768
S315000095F049FF9DF8080050B94FF6FF7140460BF041
S315000096000BFD04E03A46214640460EF0F1F95FBBF9
S315000096109DF8080080B1414620460BF01EFD6C49BE
S315000096200968896A0E2212FB00F211444A7942F057
S3150000963040024A710BF05FFDB5B1DFF8B85C85F802
S31500009640009006F0FDFE0EB1002605E09DF8101014
S31500009650002914BF0326012601464346224630460A
S3150000966001F088FCFF20287005B0BDE8F08FDFF818
S315000096701C050068007B70472DE9FC47804689463B
S3150000968001A8002101601646484611F03AF9054640
S315000096905FEA0800DFF8607C08D0284609F0D4FEAF
S315000096A08246284609F0C5FE044604E0484611F005
S315000096B0C8F982463C4600200090042332464946BB
S315000096C001A805F086FB0DF1050003F06DF9814652
S315000096D09DF807605FEA080006D008223946204652
S315000096E007F078F900286FD1394F3868C17E11B17B
S315000096F06978890713D55FEA080110D0407B0228F4
S3150000970008BF002E0BD1484606F09EFE09F05CFB12
S31500009710992300F06BFE992006F039F854E007F023
S315000097200BF8002818BF002E03D09420FFF7F8FB93
S315000097304AE007F001F8002846D050460BF000FB3F
S31500009740FF2818BF5FEA080104D1386840885146EF
S315000097500BF083FC0BF0CFFC3868C24E41885246B2
S31500009760484600F07FFD3868BD4C417B012916BF95
S315000097703129112143214173022005F0E6FF40F60D
S31500009780B831304610F08CFF11F09AFF002060755A
S315000097903868C17E19B9304610F078FF11E0B8F18B
S315000097A0000F05D06978890702D5FFF76FFB08E03F
S315000097B0007B042805D10521304610F071FF0620F4
S315000097C06075AD20FFF7DFFA05F022FFBDE8F387ED
S315000097D00C7700202DE9F04F8DB0824611F091F8FC
S315000097E0814611F0D9F80390504611F02AF98046C7
S315000097F002AB052205A9504612F09AFA02288DF806
S315000098000000019022D0504611F071F80399944D52
S31500009810DFF8786308189DF808100F185046FFB255
S31500009820394605F0DEFBFC1C01284FF6FF7B0ED007
S31500009830022813D0042800F0F08006281AD0072842
S315000098406CD0082827D07C2800F0AD8005E13B4687
S31500009850002251460020FFF754FEFEE03068407BB0
S31500009860012804BFA87C002803D13A465146FFF7D9
S3150000987003FFF2E0404608F092FE014659451CBF40
S3150000988040460EF081F83068407B022802D14046FF
S3150000989011F03AF9E1E0002011F040F9791C00F0EE
S315000098A0E3F88146E1B200F0E0F80446B91D00F0A5
S315000098B0DBF807465F45EDD011F002FF3068407BCC
S315000098C0132808D100F04DFD504611F0BAF80146B4
S315000098D020460BF0C2FB3068407B022818BF1328D5
S315000098E01BD1384606F0B0FD484606F0B5FD00210E
S315000098F0002000F0D3FC4146204600F0C7FDE87882
S31500009900DFF8941C087000F032F93068417B1329A7
S3150000991003D12321417311F0A6FB9EE00398012198
S31500009920484405F03AFA0446002300222146012065
S3150000993011F0EBF8204605F0ADF93068407B0228BF
S3150000994002BFDFF8406C30790028E6D1404612F0BD
S315000099500FFA002806D09DF8001005AA504612F00E
S3150000996001FA002879D012F026FA95F91D20012176
S315000099709140C1EB011189B290FBF1F201FB12009B
S31500009980451C002005F0E1FE0198012806D1307043
S315000099900822414606F10C0006F0D2FFA9B2301D9E
S315000099A010F07EFE59E0504605F0FEF8C0194178E9
S315000099B0652904BF80786D284FD15B49096811F885
S315000099C00A10E0B2884248D20822414603A806F0AF
S315000099D0B7FF6B460022E1B2504609F0CDFB0028E6
S315000099E03BD19DF80000FF2837D0DFF8B44BDFF8F5
S315000099F0B45B0120207085F800A005F04EFD9DF8AF
S31500009A00001003A8FCF727FF05F004FDFF202870CF
S31500009A10002020709DF800001DE0504611F030F83F
S31500009A2004460FF6D0300088ADF80A000223002065
S31500009A30019000900DF10A020121204609F0C1FCB7
S31500009A400546FF2D09D0214610F093FF0021284638
S31500009A5007F0B4FB284605F01DF90DB0BDE8F08F00
S31500009A609C6600202C740020C9B2504605F074BBD9
S31500009A7070B5022005F078FE05F09AFCDFF8C854B0
S31500009A80424E002028700EF0D7F828B13068C07E0C
S31500009A9010B9FFF7FBF93DE00EF0CEF8DFF8084B02
S31500009AA010B906F049FE58B1607D48B1C821284674
S31500009AB010F0F6FD607D401E607507F073FC29E02E
S31500009AC03068407B132809D006F036FE30B930687E
S31500009AD0407B11281CBF4328412803D1A07DFFF7F6
S31500009AE01FFA17E0022818BF032803D0002818BF62
S31500009AF021280FD10024DFF8B45A07E005F058FCFE
S31500009B00002000F0FAFC05F085FC641C2978E0B220
S31500009B108842F3D3BDE8704005F07CBCDFF8881AB4
S31500009B2000204875704700009C64002010B5002096
S31500009B3005F01AFE05F03CFCDFF8484A00202071CB
S31500009B4000F021F8417B02290DD1007B032818BFC4
S31500009B50042808D0207810B10DF08EFE01E00DF03B
S31500009B6030FE00202070BDE8104005F053BC80B5E3
S31500009B7005F097FDFF281ABF074800780020BDE8CA
S31500009B8002400DF00CBE0148006870470C770020BB
S31500009B901F7C002000F8FF072074002080B500F02D
S31500009BA0ADFB002002BD2DE9F04F97B0804606A818
S31500009BB0102112F011F90DF1090305220EA94046F4
S31500009BC012F0B6F807460026022FB24600F0AD8125
S31500009BD0404604F0E9FF0446A01D02F0E5FE0590AC
S31500009BE004F1090002F0E0FEADF80A0004F10B00F2
S31500009BF002F0DAFE8146DFF8B809006810F80800BE
S31500009C000190012F6AD101200490002706210EA899
S31500009C1079434418208802285CD1E07800F088F95E
S31500009C201B2857D1E078C11C00F083F9192851D1BF
S31500009C30E078011D00F07DF94A284BD10525E07832
S31500009C402818411C00F075F94FEA002BE078291816
S31500009C5000F06FF9584480B2932800F03F0B1BD1F7
S31500009C60E0782818801C5FFA80F9002000900F2306
S31500009C704A46414606A805F0ACF809F10F01C9B2FB
S31500009C80404605F069FA064609F11101C9B2404697
S31500009C9005F062FA814616E0412814D1E0782818CA
S31500009CA000F046F9DFF80C190978401AA0F14D0AC0
S31500009CB0DFF804090068007B032812BF04284FFA66
S31500009CC08AF012F099F80BEB0500851C2179EDB2AC
S31500009CD08D42B4D37F1C052F0BDA97E7CDF810A081
S31500009CE004F10D0002F060FE064606A94046FFF7A5
S31500009CF08EF8F00B8DF8080000230D224146062051
S31500009D0010F003FF06AFB878C0F3C300039078786D
S31500009D1000F00F040198202800F00FF9ACBF9DF861
S31500009D2026500025022814D1BDF80AB006F090FB93
S31500009D3083450ED10AA800F098FB0198202806DB7F
S31500009D4008220DF11B010AA806F044FE08B108F02E
S31500009D50E1F90598B0F5004F11BFB0F5624F26F452
S31500009D60404040F6FF71884276D101982028C0F223
S31500009D70DC80002208210DF11B0006F0C5FC00283E
S31500009D806AD170480078012847D1019427229DF8AE
S31500009D900800BDF80A300FF66001DFF85865DFF8F5
S31500009DA01CB800F0E3F9DFF8180800788DF82A00EF
S31500009DB08DF834408DF835500822BDF80A00ADF80C
S31500009DC028000DF11B019DF808008DF82B000BA84B
S31500009DD006F0B6FD00F0B1F801281CBF332886F85E
S31500009DE0008005F05AFBDBF8000078B10DF10100A8
S31500009DF00DF0B7FE68460DF0B6FE9DF900209DF801
S31500009E000110DBF800300AA8984702E00AA8FCF720
S31500009E10B6FBFF20307005F0FDFADFF88C67307D69
S31500009E20002819D106F088FC002824D00120F074FF
S31500009E300022082106F10A0006F066FC20B1BDF8F2
S31500009E400A003189884208D008220DF11B0106F16B
S31500009E500A0006F0BFFD002867D19DF8080028B962
S31500009E6000F06BF8312818BF33285ED10121204657
S31500009E70FEF776FF002858D09DF81800002802BF8C
S31500009E8078780009022850D1FFF77DFE017BBA7869
S31500009E9002290CBF02F0040202F0800222B9022954
S31500009EA043D04088484540D13078DFF81877FF28FE
S31500009EB014D0707985420DD1DFF8F81696F90200B4
S31500009EC091F90010884209DB2FD1707839788842E1
S31500009ED004D32AE0281AC0B2812826DAFEF78AFFC0
S31500009EE086F80080404604F0C7FE387870700DF1A1
S31500009EF01B01DFF8C0060078B07003980F28B4BFC6
S31500009F00401C0F20F07034717571A6F81890082265
S31500009F10BDF80A00308186F807A006F10A0006F0AF
S31500009F200FFD049800B10120B07117B0BDE8F08FA5
S31500009F30811CC9B2404605F054B8DFF87C060068BB
S31500009F40407B7047E36700202C7400202DE9FF4119
S31500009F500546DFF85446012020750E46174601F0E7
S31500009F60C7FE00281AD1A846B8F1010F18BF002D68
S31500009F7015D1009733462622C7A100F0F8F805F060
S31500009F808CFADFF84406026810003946304601D0E4
S31500009F90904701E0FCF718FB05F03CFAD5E0DFF846
S31500009FA018562868407B23280DD106F01BFB044673
S31500009FB006F01CFB2146FDF790FA022006F022FB74
S31500009FC010F002FEC1E0002FFCD121281CBF04289E
S31500009FD0532802D109F041FCB7E006F0ADFB00289A
S31500009FE000F092802678FF2E05D1E07C00280CBF79
S31500009FF0AB2094209DE02868007B032816BF042828
S3150000A000012100212079FEF7ABFE08B9982090E0E7
S3150000A01003F0EBFA0521304610F063FC29688873DB
S3150000A02005F0F6FAA07CF8B900F02AFA0246218972
S3150000A030208B0DF004FD00285DD19420FEF7A3FED1
S3150000A040022005F082FB2968DFF880054A7B012A99
S3150000A05005D0312A12BF332A097B04294DD1C821E4
S3150000A06010F01EFB03204DE006F0EAF90646208BB1
S3150000A070002100F00BFA06F05FFB60B1300003D060
S3150000A0804FF6F870864206DB0BF0F5FD2968498825
S3150000A09088420646F8D0304606F0D6F920780921DF
S3150000A0A010F004FC06F0D8F906208DF8080000F040
S3150000A0B0E7F98DF80900022300200190009002AA1A
S3150000A0C028684088012109F07CF90646FF2E12D047
S3150000A0D028684188304610F04CFCA07C02281CBF42
S3150000A0E03046FFF7BBF900F03CF80746304604F06F
S3150000A0F0D1FD002FA1D194201BE04FF4167110F072
S3150000A100CFFA0020607520E02868407B132816D11E
S3150000A11000F008F9BDF8000006F09EF900F021F9FC
S3150000A1202868017B032918BF042905D1332141730F
S3150000A1309620FEF7F5FE08E0FEF7D1FE05E0B8F141
S3150000A140040F04BF304611F0A0FF4FF4006008F082
S3150000A150D6F810B912F043F908B107F081F8BDE856
S3150000A160FF8100220021304612F0DEB80090032065
S3150000A1700CF0FCBC1FB5044600208DF80000FFF76C
S3150000A18002FD007840F020008DF801000DF103007B
S3150000A19000F06BF90322FF210DF10B0006F013FC12
S3150000A1A007F067FE8DF80E00DFF82414DFF8E803E9
S3150000A1B0DFF82024007809781278C00040F0040007
S3150000A1C0914238BF40F080008DF802000F226946A8
S3150000A1D0204604F06FFE401E8041C00F04B010BD43
S3150000A1E038B5DFF8D45304462868017BA14203D072
S3150000A1F00473204605F0C4FB2CB101F0B6FC2868B8
S3150000A200007B042805D105F06AFAFF2808BF012063
S3150000A21000D00020BDE8324007F0ECBA38B50D4654
S3150000A220044695F90A0006F093FA08B18B2032BD70
S3150000A230DFF884030268E97A91730068A97AC1732A
S3150000A240204606F001F94FF6FE7084420CBF4FF629
S3150000A250FF70288906F000F92889DFF84C13088179
S3150000A260002032BD38B50C46154606F0EDF80BF069
S3150000A270D5FC2946204600F009F9CB480178FF298C
S3150000A28018BFC07805D1FFF7F2F901280CBF0020EE
S3150000A2900120C149087031BD424242007FB50446E3
S3150000A2A00D4600F03FF8C44E94B1CB4A0021284633
S3150000A2B007F0F5FD306801788DF804100822007B60
S3150000A2C08DF80500214602A806F03AFB00F042FA96
S3150000A2D03068817B8DF80310C07B8DF8020006F094
S3150000A2E0B7F8ADF8000006F0ABF8ADF8060000F0E0
S3150000A2F01BF87FBDE9670020807500201FB5044666
S3150000A30000F010F81CB100208DF8050007E006F0FB
S3150000A31097F8ADF8060006F09BF8ADF8000000F0DF
S3150000A32003F81FBD684635E0102307226946002062
S3150000A33002F06FBC00B58BB0FFF7F4FFBDF800006C
S3150000A340ADF8180004A99DF803008DF81B009DF8D0
S3150000A35002008DF81A00BDF80600FFF75FFF0BB08C
S3150000A36000BD1FB5012000F0A3F8044600F0FDF97A
S3150000A370FFF7D8FF1CB900224FF6FF7103E0FFF785
S3150000A38002FC4188021DBDF80600FFF76BFF12F0C4
S3150000A390E5FA1FBD014610230722012002F039BC51
S3150000A3A038B5082005F0E0F9044605F001F8824DBD
S3150000A3B08A4829680078887305F0B9F8A04208BF72
S3150000A3C005F0DCF800210020FFF768FF9B2300F072
S3150000A3D00DF89B2005F0DBF92868002120F8441FC2
S3150000A3E04180BDE8314005F015B8A37D13226BA16D
S3150000A3F003200CF0BBBB10B5044602F097FEFF2805
S3150000A40001D18A2010BDFFF798FD022818BF032846
S3150000A41001D0702010BD71480470082005F095F930
S3150000A420FEF730FF01D03D2010BD6D4806F085FED9
S3150000A43008B9A12010BD002010BD1FB5044668460E
S3150000A440FFF7A8FF9DF80500010008D0052806DAE9
S3150000A450594909689DF804200978914201D0932052
S3150000A46001E02070002004B010BD1FB50446684608
S3150000A470FFF790FF082202A9204606F061FA1FBDE9
S3150000A4804D4958480968097B405C70474A4A136839
S3150000A490588019B90822181D06F095BA0822181D09
S3150000A4A006F04EBABDF808004FF6FF7188427047B5
S3150000A4B010B504464548007AC00784B007D500F0B9
S3150000A4C011F8FFF7EFFF02D000F012F808B10020F4
S3150000A4D006E024B1BDF808006946FFF7D7FF012062
S3150000A4E004B010BD0A230A226946012002F091BB7E
S3150000A4F00822FF21684606F007B970B5334D0446B9
S3150000A500287AC00784B00CD52B4E306841884FF6A8
S3150000A510FF72914207D100220821001D06F0F4F8CF
S3150000A52008B100201DE044B1022005F00EF94FF4F9
S3150000A530F041284610F0B4F812E030684188ADF8D2
S3150000A54008100822011D684606F0FAF90A230A22B5
S3150000A550FFF7ECFE02230B222349002002F059FBF1
S3150000A560012004B070BD214A107048B1204800880F
S3150000A570010005D04FF47A714143101D10F090B8D8
S3150000A5807047000038740020184800787047174854
S3150000A59000210171017070472E7C002042420000AC
S3150000A5A0E0770020E96700209C660020C167002054
S3150000A5B09C640020967100200C7700208074002097
S3150000A5C09771002095710020847400202C7400205F
S3150000A5D0267C0020CC67002000F8FF07207C0020A6
S3150000A5E0A1A3000030280100C27800204C7400208E
S3150000A5F0A4670020046000004257424200000000A9
S3150000A6007020704770207047702070477020704728
S3150000A6107047704730B505460C4683B028220021A6
S3150000A620204606F0D0F9681EA5701ED0801E0128AF
S3150000A6304FD8032D0CBF012500252A4604F11C0125
S3150000A640E01C0AF0B3F835B1208840F00200208003
S3150000A65012F06AFB6061208840F001002080102122
S3150000A660E01C00F0A0F8B0BB06E0DFF8C45528688F
S3150000A670007D10F0300F01D1B2203EBD208840F0A1
S3150000A680020020800CF023FC6061E01C00F0ABF8B7
S3150000A690684600F0BCF848B10822694604F11D007E
S3150000A6A006F04EF9208840F00800208028684069AE
S3150000A6B0C00303D4208840F01000208005F0C0FEBF
S3150000A6C00028CCD02868406AA061208840F00400A9
S3150000A6D0C4E770203EBDE01C0FF0C8F900203EBD67
S3150000A6E0F0B587B004460D4616461F46684600F08C
S3150000A6F088F83EB1082231460DF1020006F020F935
S3150000A70045F040052FB1102239460DF10A0006F03A
S3150000A71017F9DFF81C0500684169A1432943416127
S3150000A72048040CD5BDF800000A0A00F40E4002F4F5
S3150000A730E242104301F0FF010843ADF800001A237E
S3150000A74008226946002002F064FA07B0F0BD002333
S3150000A7500022C5E7DFF8D8040068416941F480416A
S3150000A760416147F2FF100140F1E700B587B012F0F2
S3150000A770EEFA684600F045F8DFF8B4040068BDF864
S3150000A78000204169090A120A090202F0710241EA2F
S3150000A7900241BDF8002002F0FF02114341F480415E
S3150000A7A0416107B000BD38B504460D46002205F0EC
S3150000A7B0ABFF40B9FF222946204605F0A5FF401E03
S3150000A7C08041C00F32BD002032BDDFF8640400684E
S3150000A7D0007D00F03000102818BF202801D101208C
S3150000A7E070470020704710B588B00446684600F0F0
S3150000A7F008F810220DF10A01204606F0A1F808B06B
S3150000A80010BD01461A230822012002F002BA10B533
S3150000A8100446DFF81C04006888B04069810705D546
S3150000A8200822FF21204606F0CEF80AE040060AD5A7
S3150000A8306846FFF7E6FF08220DF10201204606F002
S3150000A8407FF8012000E0002008B010BD80B539B9BE
S3150000A850DFF8DC130968097D490601D5002002BD31
S3150000A8600246002300210020FFF73AFF012002BD27
S3150000A8700021EBE70121E9E71CB504466846FFF72E
S3150000A880C6FF40B108222146684606F0A3F8401EDE
S3150000A8908041C00F16BDFF220821204605F034FF77
S3150000A8A020B106210020FFF752FF04E000232246D4
S3150000A8B00021FFF715FF012016BD2DE9F0470D46D3
S3150000A8C092B081461646012100241F4600F02AFA5E
S3150000A8D08046B80707F0010A0BD507A948460EF0CF
S3150000A8E0FBFE20B100F06FF806B134601BE0A62035
S3150000A8F01AE0B8F1FF0F1AD007A9404600F0AAF9EE
S3150000A900010011D10DB100F05EF82EB1DFF824037D
S3150000A910006800EB88003060BAF1000F03D0BDF884
S3150000A9201C00C00647D5002012B0BDE8F087DFF84E
S3150000A930007356B105F084FD18B13868017D8907AA
S3150000A94001D5346001E024303060FFF73EFF002877
S3150000A950CDD06846FFF755FF08220DF102014846A3
S3150000A96006F038F828B13868007D00F04400402829
S3150000A970BDD0BAF1000F04D038684069C00348BFA3
S3150000A9800124B5B105F05CFD002801BF3868007DE3
S3150000A99000F08400842807D12B46082249460DF191
S3150000A9A00A0012F06CFC04E010220DF10A0100F01E
S3150000A9B00DF8002CB7D042464FF6FF71182004F070
S3150000A9C0FBFEBB20B0E710220DF11F01284605F063
S3150000A9D0B7BF80B5002300220021FFF76EFF401E9F
S3150000A9E08041C00F02BD00B583B06846FFF70FFF78
S3150000A9F010B16846FFF7EDFF0EBDF0B585B007460E
S3150000AA0005F01EFD00240025A8B105F0F3FD90B168
S3150000AA1003A8FFF7FCFE70B12FB10822864938461D
S3150000AA2005F0D8FF38B1824E3068017D890705D51B
S3150000AA30417B112901D0702046E044889FB108224D
S3150000AA40394603A805F0C6FF68B108208DF8000056
S3150000AA50082202208DF8010039460DF1020005F0AA
S3150000AA606FFF0A2107E008208DF800000125042069
S3150000AA708DF801000221684604F08FF90746FF2F82
S3150000AA8021D0FFF7A2FE00B102203168097D8907B7
S3150000AA904CBF04210021084340F001033A4600213F
S3150000AAA0204609F061FC040007D00021012000F0D7
S3150000AAB00DF815B1614901200870384604F0EAF82E
S3150000AAC00CB1002000E0182005B0F0BD5C4A11B1C1
S3150000AAD041F2883105E05B4909784EF66023594317
S3150000AAE004D000281CBF10460FF0DABD00201070FD
S3150000AAF0704730B583B008220021684605F063FF31
S3150000AB0005F09EFC504C18B900F090FD0D250FE0A5
S3150000AB10607860B14D4920780978884207D200F004
S3150000AB200EF820B901210120FFF7D0FF37BD04251B
S3150000AB3000F070F82946684604F01CFE37BD42490D
S3150000AB4000B50A78521C0A7070204978012983B032
S3150000AB5002D100F012F80EBD022909D16946002083
S3150000AB6005F038FC010007D16846FFF746FF0EBD29
S3150000AB70032908BF09F0C7FF0EBD00224FF4A071DC
S3150000AB80002008F08DB870B598B005460E4604A8AA
S3150000AB90502111F021F92C4C6078012808BF002DB6
S3150000ABA036D101A9304607F0CBFF29499DF804208C
S3150000ABB00968895C0D1A0021009102469DF804106F
S3150000ABC0EBB204A804F005F902A9002005F002FC86
S3150000ABD0F0B9EDB2E5B19DF81100C8B99DF81C00B9
S3150000ABE0000200F47E40B0F5285F0BDB01202070E8
S3150000ABF002A8FFF702FF01210120FFF767FF0220ED
S3150000AC00607005E000F006F81E2102A804F0B2FD0F
S3150000AC1018B070BD00206070002157E70A4908701F
S3150000AC2070470948407870470749487070470000E8
S3150000AC300C7700200865002080750020217C00200C
S3150000AC40807300200E7C0020197C0020DE67002027
S3150000AC509C64002030B500F026F987B028BFB120EB
S3150000AC6039D200F026F918216846FFF79CFD08B98D
S3150000AC70B62030E028220021284605F0A4FE102246
S3150000AC8002A9E81C05F05CFE0822694605F11D00D4
S3150000AC9005F056FE082028809DF8180081075CBF45
S3150000ACA018212980410703D5298841F020012980F0
S3150000ACB0C0070FD50520A870AC48006850F82400DE
S3150000ACC0A8610CF004F96861288840F00600288025
S3150000ACD0002000E0B22007B030BD38B50C46FFF7C3
S3150000ACE0B9FF0546E01C0EF0C1FE284632BD38B558
S3150000ACF00446154609B9702032BD012100F012F84C
S3150000AD00FF2803D10121002000F00CF8FF2807D00E
S3150000AD102B46224601B0BDE830400146002045E002
S3150000AD20B42032BD2DE9F04188B0044609B970203F
S3150000AD3039E02CB10022082105F0E6FC074600E0C8
S3150000AD4001270026884D04E00821FFF72CFD38B3C3
S3150000AD50761C2978F0B2884224D201A800901923E3
S3150000AD60F2B21721684605F079FF009890F818802E
S3150000AD70002FE9D10822214605F02CFE0028E7D154
S3150000AD800098083009F0F5FE08F0010181F0010194
S3150000AD900843DDD104F062FBC8F3C2018142D7D17A
S3150000ADA0F0B200E0FF2008B0BDE8F0812DE9F041E7
S3150000ADB016466D4A127891428AB00C46984628BFCC
S3150000ADC0B1204DD2254630B910214046FFF7EBFCA5
S3150000ADD038B9B22044E01922002102A805F0F3FD9B
S3150000ADE032E001213046FFF79DFF07460822604901
S3150000ADF0304605F0EFFD68B1FF2F18BFAF4209D10D
S3150000AE006846FFF704FD38B108226946304605F06A
S3150000AE10E1FD08B9B32023E00822314602A805F077
S3150000AE208FFD1022414604A805F08AFD0EF066FF4C
S3150000AE30002814BF0026022604F010FB46EAC000D4
S3150000AE4040F001008DF8200000204849096841F8CB
S3150000AE502500192302AA2146172005F031FF0020FC
S3150000AE600AB0BDE8F08170B500F01DF888B016464E
S3150000AE7028BFB12015D200F01CF819216846FFF74B
S3150000AE8092FC08B9B2200CE09DF81810B143294392
S3150000AE908DF8181019236A462146172005F010FF71
S3150000AEA0002008B070BD0D462F4909780446884237
S3150000AEB07047192322461721684605F0BEBE10B515
S3150000AEC00C460121FFF72EFFFF2808D0002CBDE815
S3150000AED0104007BF0422002100220421C3E710BD51
S3150000AEE010B504460121FFF702FF20B105212046D7
S3150000AEF004F040FC05E001212046FFF713FFFF2880
S3150000AF0001D1002010BD02220021FFF7ACFF012174
S3150000AF10204604F02FFC00210020FFF7D7FD01207A
S3150000AF2010BD70B588B000250F4C16E001A8009042
S3150000AF301923EAB21721684605F090FE0098067EAE
S3150000AF4004F08CFAC6F3C201814205D10023002227
S3150000AF50E9B20120FFF72AFF6D1C2178E8B288428A
S3150000AF60E4D3002008B070BD097C002008650020ED
S3150000AF70807500202DE9F047DFF848570746286816
S3150000AF808AB0C07E00288A469146984671D005F060
S3150000AF9057FA48B12868007D800705D43A464146ED
S3150000AFA0484609F0BFFA64E038003C4602D1012564
S3150000AFB0012604E0032C14BF00250125002604F019
S3150000AFC06CFA53463A4641464846FBF7EDFD0746BE
S3150000AFD004F020FA009723461E22A7A103200BF0B7
S3150000AFE0C5FD5FBB86F00100054232D00FF2FC6161
S3150000AFF004A8D1E90023C0E900230FF2F8600FC8C6
S3150000B0000DF1180C8CE80F00022300F047F850B140
S3150000B01002230022694604A8FFF74FFC18B100235B
S3150000B02000F03CF8A8B9102206A9684605F0D2FC43
S3150000B03078B9FFF7A9FA60B9032718E0012F0AD1FA
S3150000B04000230196009552464146484600F016F9FF
S3150000B0500DE00123F5E7022F09D16946504605F0B8
S3150000B060B9F920B942466946504600F01CF8022F4D
S3150000B07011D005F0E5F982451CBF4FF6FF708145FA
S3150000B08009D0404607F08BFA484504D1484610F0EF
S3150000B09043FB07F082FB0AB0BDE8F0870022694651
S3150000B0A04046FFF70ABCFEB5044616460D46304636
S3150000B0B007F075FA074605F0C3F918B94FF6FF70A1
S3150000B0C0844201D17020FEBD874204D0002138465B
S3150000B0D008F0B8FCFEBD07208DF8000008223146B6
S3150000B0E00DF1010005F02CFC0921684603F055FE20
S3150000B0F00646FF2E0CD0012332462946204609F08B
S3150000B10033F90446304603F0C5FD0CB10020FEBD00
S3150000B1101820FEBD00B583B0024669464FF6FF70A3
S3150000B12000F001F80EBD2DE9F04304464FF6F87025
S3150000B130844288461746ACBF012500258FB005F02E
S3150000B1407FF90DF1140930BBDFF8786500F06AF974
S3150000B15021D41FB1384609F00CFD28B105A805F029
S3150000B160E2FA10B1A52039E0B946694609A809F006
S3150000B170E3FC684609F0FDFC78B99DF810009DF8DF
S3150000B1803410401AC0B2812807DA102269464846B0
S3150000B19005F020FC48B1702020E09DF83400411CE9
S3150000B1A00022C9B2484609F0B3FA21272DB1082278
S3150000B1B00021404605F007FC00E023273B464A46AF
S3150000B1C04146204600F0C3F838B125B13068DFF8B3
S3150000B1D0F814407E0870002000E018200FB0BDE88B
S3150000B1E0F08330B58BB005F02BF9A8B9DFF8D4445D
S3150000B1F02068007D80070FD401A906A809F09CFCF1
S3150000B2009DF828009DF81410401AC0B2812803DB6F
S3150000B21001A809F0AEFC08B170202AE005F010F98B
S3150000B220DFF8A41409780AF047FC08B1B82020E03A
S3150000B230002109F02AFA09208DF800000221206871
S3150000B24090F820008DF80100684603F0A6FD04463C
S3150000B250FF2C0DD00123224600214FF6FF7009F086
S3150000B26083F80546204603F015FD0DB1002000E0E9
S3150000B27018200BB030BD0000424242002DE9F043D9
S3150000B2800446DFF8400400688DB04069C00888466F
S3150000B29091461E4600F0010505F0D2F8484504D156
S3150000B2A030000CBF0427062710E0012730004C466B
S3150000B2B018BF0B2755B96946484605F08BF828B9DB
S3150000B2C06846FFF786FB08B147F002071499159800
S3150000B2D0014217D10EF0FAF9A0B102A940460EF0CC
S3150000B2E0FBF978B90FF2FC316846D1E90023C0E9D1
S3150000B2F0002302A90EF0F0F920B10DF10B01404632
S3150000B3000EF012F92E4207D007F0040040F01102A9
S3150000B3104146204600F008F83A464146204600F0ED
S3150000B32003F80DB0BDE8F08370B586B004460D464F
S3150000B3301646112306226946012001F06AFC3346AF
S3150000B3406A462946204600F002F806B070BD00B5F0
S3150000B35083B0019300920123002209F008F90EBD83
S3150000B3602DE9F0410F4688B080467C7808220021FE
S3150000B37002A805F028FB05F063F80625DFF844630C
S3150000B38010B100F04FF845D502A9404605F022F865
S3150000B39008B10B253FE0022C02D0042C18D039E06E
S3150000B3A000F040F836D40822B91CDFF8200305F077
S3150000B3B011FB00282ED0DFF81803007860B1BA1C04
S3150000B3C002A9404600F041F80546FF2D23D126E0AC
S3150000B3D0C0480078010001D111251CE002280AD1DD
S3150000B3E000F024F808B1122515E0032000F024F837
S3150000B3F088B913250FE000F019F808B10A250AE00C
S3150000B40000F010F84CBF0520012000F015F810B927
S3150000B410082500E00925294602A804F0ABF908B082
S3150000B420BDE8F0813068007D800770470023002268
S3150000B43004A902A8FFF741BA0190042304A80090CA
S3150000B440002202A9404609F092B82DE9F84F0546B8
S3150000B450A1480F4690460078A04EB946C246AB4674
S3150000B460FF2438BB00F0E2F83078FF285FD003F005
S3150000B4709BFB8146307803F097FB357800F1080A8C
S3150000B4801121284603F0ADFD06021021284603F0DF
S3150000B490A8FD06EB000B08223946504605F09AFA3D
S3150000B4A030B908224146484605F094FA00283ED0B5
S3150000B4B00E244DE03078FF28D6D1012003F07FFB23
S3150000B4C0FF28307008BF102442D00822394603F006
S3150000B4D0F1FC30780822414603F0ECFC280A8DF88E
S3150000B4E001008DF80050022230787D4F694603F046
S3150000B4F0E1FC3868317810F8018003F0CEFF31782E
S3150000B5002846FDF7C7FA03F085FF30783968095CED
S3150000B510884506D18DF8024001220DF1020103F0A3
S3150000B520C9FC00210120FFF7D1FA0C2410E0514696
S3150000B53048460EF0E5FB40B1524649461FFA8BF0ED
S3150000B54000F009F810B90F2400E0112400F06EF89D
S3150000B5502046BDE8F28F2DE9F74F88B0104604F07B
S3150000B5601EFF4FF6FF718842ADF8080058D003A8B9
S3150000B57005F0D9F8002853D10024584D49E0287821
S3150000B580BDF820B0099FDDF82880FF282BD01221B6
S3150000B59003F027FD8146B9F1FF0F24D0012003F007
S3150000B5A00EFB8246BAF1FF0F11D003F076FF51462B
S3150000B5B05846FDF76FFA03F02DFF4948006810F86A
S3150000B5C00A6006B10126504603F064FB5EB903F03B
S3150000B5D064FF142000904A462B7839465846FDF7FA
S3150000B5E02CFA03F017FF402040F0030001900323DC
S3150000B5F003A8009042463946584608F0B8FF78B18D
S3150000B6000721384604F0B6F8641C022C0ADA002C2E
S3150000B610B5D1BDF808B00A9FDDF824800020E3E725
S3150000B620002000E001200BB0BDE8F08F10B52B4CD8
S3150000B6302078FF2803D003F02DFBFF202070002187
S3150000B640BDE810400020FFF741BA10B584B00446AB
S3150000B65001208DF800001B480068827E531C83760B
S3150000B6600E208DF801208DF8020008220DF103004E
S3150000B67005F066F90B226946204603F01BFC401EC6
S3150000B6808041C00F04B010BD30B587B004460D46EA
S3150000B6900023002202A92846FFF70FF901000DD169
S3150000B6A003200190042302A800902946074A204659
S3150000B6B008F05DFF00F0010080F0010007B030BD2A
S3150000B6C0000000000C770020187C00208075002008
S3150000B6D0CA6700200A7C00200E7C0020D667002066
S3150000B6E09C640020FFFFFFFFFFFFFFFFFFFFFFFF40
S3150000B6F0FFFFFFFF5A6967426565416C6C69616EC1
S3150000B7006365303910B504460C480068407B022852
S3150000B71002D104F095FE08B1702010BD0021022070
S3150000B720FFF715F82046FFF7F5FC040003D00221C9
S3150000B7300020FFF70CF8204610BD00BF0C77002054
S3150000B740DFF88C0A007C00B101207047DFF8801A10
S3150000B7500A7C062A18BFFFF7F3BF80B5902803D1ED
S3150000B7600020087407F030FBBDE80140E8E770B53B
S3150000B770164604460D46FF2204F0C6FF28B90022ED
S3150000B7802946204604F0C0FF50B146B1690820465C
S3150000B79001F01EFB08B9A52070BD002070BD702009
S3150000B7A070BD70B50546084614461E463246082149
S3150000B7B0FFF7DDFF010015D1324602212846FFF7CB
S3150000B7C0D6FF01000ED12078010018BFFF2806D051
S3150000B7D0DFF8001AC140C80703D5702070BD1920D4
S3150000B7E02070002070BD10B5441A48BF6442C92CB1
S3150000B7F00A4602DB884203D201E0884200D30246B1
S3150000B800904201D1012010BD002010BD70B5044644
S3150000B810DFF8C409006886B00D46407B0F21084258
S3150000B82006BF94F828000228702040D10123A21CEC
S3150000B830211D2046FFF7B5FF060038D194F82600F3
S3150000B84000F0820040F0010011F0ACFD94F82800F1
S3150000B850DFF87C19487418220021684605F0B3F811
S3150000B8600822211D684605F06BF82088ADF808000F
S3150000B8708DF80A5041F60631A0788DF80B000320AA
S3150000B8808DF80C00DFF8540905900020FEF75FFFE5
S3150000B890A18C94F82820080008BF4FF441716B462C
S3150000B8A00120FDF742FC064603F0B2FE304606B024
S3150000B8B070BD2DE9F041DFF82049064620688EB0BC
S3150000B8C0407B00F00F052C22314602A805F038F81F
S3150000B8D0012D18BF042D2ED0DFF8F458287C50BB5C
S3150000B8E096F82800401E032825D811F04CFDC00705
S3150000B8F023D404F0ADFD074606F0BBFA8046684641
S3150000B900FEF7B3FD0822311D684605F063F80028EE
S3150000B91049D1707B4146FFF766FF00283AD004F014
S3150000B9208FFD01460122304600F027F9DFF8B018F6
S3150000B9300020087035E0702061E00121002008F049
S3150000B94092FB07005AD111F07DFD0FF6E4024FF687
S3150000B950FF710120FEF786FC96F826000027C00737
S3150000B9600ED500220821301D04F0CEFE40B9082273
S3150000B970311D03A804F0E4FF3088ADF8080006E0A6
S3150000B9800822002103A805F01EF8ADF808708DF80E
S3150000B990157017E004F0EBFE02464146304612F001
S3150000B9A023FB00202BE00822694603A804F0C8FF09
S3150000B9B0ADF808708DF8158096F8280002280CBF9F
S3150000B9C001270227B0788DF80A000320FEF708FC4D
S3150000B9D002A9384612F00DFA07000BD121680120A2
S3150000B9E048734FF4A0510420287405F118000EF096
S3150000B9F057FE03E000F034F8FEF7F2FB38460EB0CF
S3150000BA00BDE8F08180B511F0F2FC002002BD30B532
S3150000BA108BB004460D462C220021684604F0D3FF65
S3150000BA2041F60630ADF80000102205F115010DF1C2
S3150000BA30020004F085FF102221460DF1120004F0E9
S3150000BA407FFF284611F0D3FC684608F051FA0BB088
S3150000BA5030BDDFF87C07007C012818BF0020704746
S3150000BA60DFF86C07407C010003D1DFF86C07006843
S3150000BA70007B7047DFF85817487470472DE9F84384
S3150000BA80DFF85447DFF84867777C814688462068A8
S3150000BA90317C407B15460A0018BF062900F00F00CE
S3150000BAA041D1012818BF04283DD011F06CFCC00715
S3150000BAB007D5FFF7D5FF01281CBF48F6990004F00B
S3150000BAC0CBFC11F060FC40F0020011F06BFC11F0B1
S3150000BAD0B9FD484611F094FDC6F82C9020684069DF
S3150000BAE0400800F00100F07404F03CFE307540465A
S3150000BAF004F02EFE804698B9681E032813D801204C
S3150000BB00307475740422494609200FF0FAF980460C
S3150000BB1030B10020307496F9140004F019FE7774E1
S3150000BB204046BDE8F2837020FBE770B50400DFF8FD
S3150000BB30A056DFF8B06608D13078FF2805D005F1A9
S3150000BB4020000EF0A3FD002070BD287C58B905F03A
S3150000BB5067FE3070002005F04DFE214605F12000FD
S3150000BB600EF09EFDEFE7702070BDDFF86416002032
S3150000BB7081F82000704705F03DBE70B50546DFF838
S3150000BB806006DFF864664180144628883081A8780C
S3150000BB90F07204F0E7FDB0720822291D304604F069
S3150000BBA0CFFE687B3074DFF8340670610320307393
S3150000BBB0200009D111F0E7FBC00705D404224FF697
S3150000BBC0FD71002007F0FAFD912004F01BFDDFF85F
S3150000BBD0000603210174002CBDE8704014BF4FF429
S3150000BBE000614FF4007118300EF05ABD38B5DFF819
S3150000BBF0E04500202076207C03283FD111F0C3FBCE
S3150000BC00DFF8DC552978002914BF4FF6FF614FF69F
S3150000BC10FF7108404FF6FE71084011F0C3FBDFF8D4
S3150000BC20B81501202870002009684873FFF718FF2F
S3150000BC300328BCBF062020740BF0E9FFE07C012836
S3150000BC4014BF41F6043141F606310020FEF77FFDB0
S3150000BC50FFF706FF02466988DFF88C350020FDF7FE
S3150000BC6064FAFFF7FDFE03281DDB4FF4006104F1C3
S3150000BC7018000EF015FD0720207414E0072806D1E1
S3150000BC800020207400210120FDF7A2FB0BE0042810
S3150000BC9018BF052807D1FFF7E3FEFEF7A1FA00203B
S3150000BCA0207400F0A4F8BDE8314003F0B1BCF0B553
S3150000BCB0DFF81C750446387C012883B00D4616460D
S3150000BCC015D101F0DFF9009001962B4622460FF2BE
S3150000BCD05851002003F0DDF9DFF81015FF28087031
S3150000BCE005D002203874BDE8F7400FF0BCB9F7BDA7
S3150000BCF070B5DFF8DC44217C94F9140001298AB080
S3150000BD000BD10021217404F023FD03F0C6FB0020B3
S3150000BD10FBF77EF903F07EFB64E0022964D104F0B0
S3150000BD2017FD03F0BAFB0120FBF772F903F072FB73
S3150000BD301822002103A804F046FE207DDFF8AC544B
S3150000BD408DF816000C21287803F04BF98DF81700B2
S3150000BD50012303208DF818000DF1170200208DF83D
S3150000BD601C0003A9DFF87404089005A8FFF719FD65
S3150000BD700646002004F046FC300007D103AB022241
S3150000BD804FF441710020FDF7D0F9064636BB01A8F5
S3150000BD900021C0E900112878082103F0F4F90646CD
S3150000BDA028780D2103F01DF900200090082329783A
S3150000BDB0002201A803F00DF8287802F06BFFFF209F
S3150000BDC028700023012201A9304611F070FF4FF4BC
S3150000BDD0005104F118000EF063FC03E0002020740B
S3150000BDE000F005F8012000E000200AB070BD00B5A3
S3150000BDF085B000F04DF99DF8030000F0C6F99423D4
S3150000BE001322C7A103200AF0B1FE942003F0BFFC61
S3150000BE10FFF726FE032809DBDFF8BC03006840882D
S3150000BE204FF6FF71884208BF032000D0022004F0BD
S3150000BE30E9FB05B000BDF8B504460D4616461F469B
S3150000BE4012F076F8ECB96846FEF7F7FA932808BFC1
S3150000BE50002D07D111F097FA00F0020040F08000A3
S3150000BE6011F0A0FA002239463046FFF786FE01207F
S3150000BE7004F0C8FB03F011FB3046FBF708F903F0AA
S3150000BE80C9FAF1BDF0B504460D46D14E8BB001227C
S3150000BE900021304608F03CFC684611F08BFA0DF1A3
S3150000BEA01503002241F606314020FEF719FCD04F5B
S3150000BEB0082206F1300107F11C0004F041FD0822BA
S3150000BEC006F13801381D04F03BFD3C80BD70338D12
S3150000BED0B17C3A460020FFF7AEFF01200BB0F0BD63
S3150000BEE02DE9F04304460D461646B94F89B09846EB
S3150000BEF0082205F11C0107F1300004F021FDDFF8EE
S3150000BF00F49299F80000022803D111F03CFAC00718
S3150000BF1012D599F80000012804D133882A46214613
S3150000BF20FFF789FF022C08D1FFF79AFD032803DBF0
S3150000BF3011F029FAC00704D479E0FFF791FD032830
S3150000BF4075DA288B12F0F2F8FF2870D005AB42465E
S3150000BF5005F11001002012F0FCF8002867D10E222E
S3150000BF60314601A804F0ECFCBDF80C00BDF80A103F
S3150000BF70884204D20020ADF80A00ADF80C00BDF8E6
S3150000BF800800BDF80610884204D20020ADF806006D
S3150000BF90ADF80800BDF81000BDF80E10884204D2B6
S3150000BFA00020ADF80E00ADF81000BDF81000BDF889
S3150000BFB00E30BDF80A20BDF808100090BDF8060046
S3150000BFC011F0B6F998BB200004BFA878002802D16A
S3150000BFD004F0CDFBA87028222946854804F0B0FC61
S3150000BFE0BC74BC463088388505A80FC88CE80F009D
S3150000BFF00023AA1C291D2846FFF7D3FB50B90822A7
S3150000C000291D07F1380004F09BFCA9782888FFF762
S3150000C01039FF12E020000AD1042107F1380000F0B0
S3150000C020D7FEF86A744A03210FF087FA05E03388D1
S3150000C0302A4621460120FFF7FEFE09B0BDE8F0833F
S3150000C0407FB5634915460A7C042A1C461FD1002287
S3150000C0500A760A7410B1FFF7CAFE7FBD04F0F0F944
S3150000C06006467DB100F014F8082202A9201D04F04E
S3150000C07067FC9DF80300A070BDF80000208005F065
S3150000C080F8FE6073012231462046FFF776FD7FBD3C
S3150000C090102307226946012000F0BBBD30B583B0EE
S3150000C0A004460D466846FEF7E0F908226946201D5B
S3150000C0B004F090FC80B904F0CBF9218881420BD1C1
S3150000C0C005F0D7FE0146607BFFF78DFB20B100220D
S3150000C0D029462046FFF751FD37BD80B5012011F0F6
S3150000C0E061F93B490020087401BD70B504460D4650
S3150000C0F01646FFF7B5FC032811DA4048007870B100
S3150000C100AC420CD1B0070AD5284608F03BFE30B148
S3150000C110007920B9BDE8704039480EF0B7BA70BD55
S3150000C1204242000010237F221A2104F086BD2823F4
S3150000C1307F221B2104F081BD10B50C46FFF7F2FFEC
S3150000C1402046BDE81040F2E7024610237F211A2060
S3150000C15004F0B6BD80B511F016F9000A00F0010032
S3150000C16080F0010002BD80B511F00DF910F4807069
S3150000C17018BF0120C0B202BD80B511F004F910F459
S3150000C180807018BF0120C0B202BD1E4909780B2974
S3150000C19001D03D20704710490968887303F0EEB955
S3150000C1A00D480068807B704780B5174917480860BE
S3150000C1B011F0E9F8C00702D405490620087401BD4C
S3150000C1C00C48007870470B49087000207047000043
S3150000C1D088730020FF0700F80C77002000F8FF079F
S3150000C1E09E670020DF670020C8730020E0670020FC
S3150000C1F0E0730020D267002085BE0000267C002068
S3150000C20070780020E36700201078002044F00200D8
S3150000C21010B5044611F0B7F84FF6FD7108402043FB
S3150000C220BDE8104011F0BEB83834313200000000CD
S3150000C23000000000000000002DE9F047012411284D
S3150000C240AAB000F04D81142800F05382152800F0A2
S3150000C250B180162800F0B380172800F0B6801A289F
S3150000C26000F0BA801E2800F0C4801F2800F0C880A5
S3150000C2702C2800F07B812F2800F09581402800F0C3
S3150000C2806581412800F094814B2800F066815C2886
S3150000C29000F097815E2800F09D815F2800F0A18163
S3150000C2A0602800F0B481612800F0B981662800F0AA
S3150000C2B0FE81672800F00B82682800F0B9816928A2
S3150000C2C000F0CF816B2800F01A82722800F0D4812A
S3150000C2D0742800F01782752800F0DE81762800F0B9
S3150000C2E0FF81792800F0BA807B2800F0D9807E286B
S3150000C2F000F07C817F2800F084818C2800F0718218
S3150000C300992800F0E7809C2800F085809F2800F09F
S3150000C310FC81A22800F05382A32800F02E82A528D3
S3150000C32000F01982B02800F03982B32800F062824A
S3150000C330B42800F08182B52800F08A82BE2800F079
S3150000C3408F82BF2800F08982C02800F0FC82C628B0
S3150000C35000F0C682C82800F0EB82C92800F092825D
S3150000C360CF2800F05A82D02800F09280D12800F021
S3150000C3709480D42800F07782D52800F07982D628D8
S3150000C38000F07B82EA2800F0D381EC2800F0EB81F4
S3150000C390F72800F0CC80F82800F0A780F92800F0F4
S3150000C3A0B880FA2800F0BA80FB2800F0C380FD2888
S3150000C3B042D0D1E2FBF714FBDFF8A81503E0FBF748
S3150000C3C00FFBDFF8A4150880C7E26846FBF7A9FB58
S3150000C3D06846FCF781FFBCE2FBF7D6FA0546FBF799
S3150000C3E00FFB00F0D6FA0246314628460EF089FDCC
S3150000C3F0AFE26846FBF724FB6846FCF7DBFDA8E2E4
S3150000C400FBF7C2FA05466846FBF71AFB694628465B
S3150000C410FCF763FE9DE2FBF7E3FA0546FBF7F0FA4D
S3150000C42000F0B7FA0746FBF7DBFA03463A46314611
S3150000C430284606F054FC8CE2FBF7A6FA694604F09F
S3150000C44049F9FBF7BAFA9DF80000FBF7B6FA9DF832
S3150000C4500100FBF7B2FA9DF802007AE2FBF794FAC4
S3150000C460694608F084FFFBF7A8FA00F08AFA9DF8FF
S3150000C4700200FBF7A2FA9DF80300FBF79EFA00F014
S3150000C4807CFA9DF80500FBF798FA0DF10601F1E03C
S3150000C490FBF77AFA08F097FF5BE208F09CFF58E298
S3150000C4A0FBF772FA694609F049FAFBF786FA00F0DB
S3150000C4B068FABDF80200FBF78CFA00F05EFA9DF808
S3150000C4C00500FBF77AFA9DF80600FBF776FA9DF869
S3150000C4D007003EE2FBF758FA40B204F039F938E2B9
S3150000C4E0FBF752FA0BF053FD33E2FBF74DFA074622
S3150000C4F0FBF74AFA00F04DFA8146FBF745FA00F0E1
S3150000C50050FA00906BB24A46314638460FF0FAF8B8
S3150000C5101FE2FBF739FA0FF0F7F81AE2FBF734FAE5
S3150000C52000F03FFA41B228460FF0F0F811E20FF0A2
S3150000C53064FC0EE2FBF728FA00F033FA00F029FA61
S3150000C5400246314628460FF0E3F802E26846FBF75A
S3150000C550DDFB6846FEF756F8FBE16846FEF754F841
S3150000C560FBF72BFA6846FBF7CAFBF6E1FBF70CFA7A
S3150000C5706946FBF742F8FBF720FA9DF80000FBF747
S3150000C5801CFA9DF80100FBF718FABDF80200FBF74C
S3150000C59020FA00F0F2F90DF105010820FBF738FA50
S3150000C5A09DF80D00D5E1FBF7EFF9FBF708F833E04E
S3150000C5B0FBF716FA00F0F5F9014628460BF0F2FCF7
S3150000C5C0C7E1FBF7E1F900F0E7F96946284605F00F
S3150000C5D034FABEE1FBF7D8F9694605F098FA6946E0
S3150000C5E048E0FBF7D1F905F0AAFA15E000F0CDF91D
S3150000C5F0FBF7CAF9010018BF0121684605F0CCFB1C
S3150000C600ABE100F0C2F9684605F0A8FBA1E100F035
S3150000C610BCF9684603F0C3FEFBF7DBF99DE1FBF7C7
S3150000C620DFF9694603F0D6FEFBF7C7F9694621E054
S3150000C630FBF7D6F9ADF800000DF1020100F09AF90A
S3150000C6400DF1120100F096F9FBF79EF98DF8220024
S3150000C6500DF123010820FBF79EF9684607F048FC18
S3150000C66077E1684607F0E0FCFBF7A7F900F089F9E7
S3150000C6700DF1020108207DE0FBF786F900F08CF948
S3150000C680FBF782F902A900F075F902AB6A46294662
S3150000C6900020FEF78BFB5CE100F077F9FBF774F9FD
S3150000C6A0010018BF01216846FEF73CFB51E100F08E
S3150000C6B06CF9FBF769F9054602A900F05BF9290058
S3150000C6C018BF012102AA6846FEF711FB41E1FBF7FC
S3150000C6D087F900F061F969462846FEF7D5FF38E18B
S3150000C6E0FBF752F90146002300220120FEF75EFB0C
S3150000C6F02FE100F04AF96846FEF77FF929E10CF0D0
S3150000C70033FF2AE1FEF76DFD23E1FBF73DF9054610
S3150000C71006A93020FBF73FF969461620FBF73BF9DF
S3150000C720280018BF01206A4606A911F06FFD10E126
S3150000C730FBF72AF905460AA94A20FBF72CF96946B0
S3150000C7402520FBF728F9280018BF01206A460AA908
S3150000C7500DF0C6FAFDE0684611F05FFDFBF72DF916
S3150000C7606946302006E068460DF0BFFAFBF725F96A
S3150000C77069464A20FBF74CF9EFE0694600F0FAF803
S3150000C7800FA93020FBF707F904A92A20FBF703F9C4
S3150000C79004AA0FA9684611F044FDDAE0694600F0E4
S3150000C7A0E9F816A94A20FBF7F6F804A94820FBF792
S3150000C7B0F2F804AA16A9684611F035FDC9E006A9E3
S3150000C7C01620FBF7E8F80CA93020FBF7E4F86946D9
S3150000C7D01520FBF7E0F86A460CA906A811F01BFD28
S3150000C7E0B7E0FBF7FDF800F0DCF841B228460DF0A3
S3150000C7F034FAAEE00AA900F0BDF8FBF701F90090A3
S3150000C800FBF7C2F800F0B2F80DF1150100F0B2F82E
S3150000C81069460AA8FFF7FBF89BE0FBF7F1F80090E2
S3150000C820FBF7B2F800F0A2F80DF1150100F0A2F83E
S3150000C8306846FFF7E7F88CE0FBF7E2F800F0B1F89E
S3150000C84000F0A7F8024671B22846FFF717F980E014
S3150000C850FBF7D6F8FFF769F97BE010F0E5FD7CE021
S3150000C860FFF778FC75E0FBF78FF8FFF784F974E0C3
S3150000C870FBF78AF8FFF7FEF86FE0FBF7B1F8FFF772
S3150000C880C7FC6AE0FBF7BCF8804608A8FBF7D7F9B7
S3150000C890FBF77AF80646FBF7A3F88146FBF7A0F804
S3150000C8A00546FBF79DF8074606A90820FBF773F82F
S3150000C8B00BA900F05FF8FBF7A3F88246FBF764F8D4
S3150000C8C00590CDF810A00BA803904B4606A8029041
S3150000C8D001970095324608A9404610F057F938E00E
S3150000C8E0FBF752F88046FBF74FF8824604A8FBF7A1
S3150000C8F0A6F9FBF749F800F04CF88146FBF757F824
S3150000C90000F04FF80746FBF76BF85FEA0A010246AC
S3150000C910039218BF012102975FEA0800019518BF2C
S3150000C9200120CDF80090334604AA09F065FE10E018
S3150000C930FBF72AF869460FF007FEFBF73EF8684654
S3150000C940FBF7BAF909E06846FBF779F968460FF094
S3150000C95051FEFBF732F800E0002420462AB0BDE87D
S3150000C960F0870000A6670020A86700208DF8040065
S3150000C9700DF105011020FBF70EB89DF80400FBF73A
S3150000C9801CB8BDF80000FBF724B869460820FBF781
S3150000C99002B80646FAF7F8BF054669460820FAF7D0
S3150000C9A0FABF0546FAF7F0BF41780078FFE700EBDB
S3150000C9B0012080B270470170090A4170704710B5B6
S3150000C9C00023040014BF1C46C3F10304E4B25B1C3D
S3150000C9D00A55120A042BF4DB10BD30B54A788B7861
S3150000C9E0CC78097818B120461D460C4602E015465B
S3150000C9F008461A4645EA002044EA022141EA004078
S3150000CA0030BD0020704700B10220704701207047FA
S3150000CA10734840687047F8B50446714F71487E68A0
S3150000CA200025044201D00220F2BD24EA0600C0031C
S3150000CA307C6007D50021002000F03EF80021002090
S3150000CA4000F05AF8786800F4804006F48041884285
S3150000CA5005D0A00B00F0010000F0B5F80546284609
S3150000CA60F2BD38B55E4CA578E0786168C9031CD480
S3150000CA7005F0010100F00102114316D0E16841B151
S3150000CA80000706D5E16808208847E07800F0F7003F
S3150000CA90E070A06868B128070BD5A1680820884710
S3150000CAA0A07800F0F700A07003E0607808B10020DD
S3150000CAB06070BDE831408BE02DE9F04104460D463B
S3150000CAC011F0B3FB464F80463878012698B1BE7800
S3150000CAD0200009D1002E1CBFB868002804D07006BB
S3150000CAE002D5B96840208847BD60A6421CBFBC700D
S3150000CAF0FFF7B7FF00261EE02DE9F04104460D467C
S3150000CB0011F093FB364F80463878012698B1FE78AF
S3150000CB10200009D1002E1CBFF868002804D070063A
S3150000CB2002D5F96840208847FD60A6421CBFFC700C
S3150000CB30FFF797FF0026404611F07DFB3046BDE823
S3150000CB40F08127494A680978002029B1510303D4A6
S3150000CB500120110548BF0320704721490A780020AB
S3150000CB60002A1FBF012049681F4A114218BF03202F
S3150000CB70704738B51A4D2978884204461ED02000E1
S3150000CB800ED00121194811F005FC112011F07DFF8E
S3150000CB9018B9092011F079FF50B111F09AFF07E09A
S3150000CBA000210020FFF7A8FF00210020FFF784FFE7
S3150000CBB02C70204600F080FD00F00AF8002032BDFF
S3150000CBC007480078704700B102207047704700BFE1
S3150000CBD00348017800214170002000F04EB90000A2
S3150000CBE0186C0020FFFC0FF800080800002508005C
S3150000CBF010B5044602F032FC48B10FF2801000E096
S3150000CC00801D017919B10188A142F9D144882046D5
S3150000CC1010BD2DE9F04182B004460D4616469846F1
S3150000CC2002F01CFC074654480178FF2917D04078CB
S3150000CC30B84214D100220FF2441002E09A18D2B280
S3150000CC40801D03795BB1B0F800C0B445F6D184F01D
S3150000CC50010300930379284602F0BBF81DE0304635
S3150000CC60FFF7C6FF064607B17F1E002C434607D0D6
S3150000CC70FAB23146284602B0BDE8F04103F0DDBF06
S3150000CC802A46F9B204F01CF802F007FC30460AF016
S3150000CC90EFF8BDE8F34102F0BDBBBDE8F3812DE935
S3150000CCA0F04389B0074602F0D9FB002506000FF2D3
S3150000CCB0CC0421D0761E1FE02088FFF799FF80461E
S3150000CCC094F80490380005D04B46F2B2414601A8CC
S3150000CCD003F0B3FF2848017800974B46EAB201A853
S3150000CCE002F077F8380005D14B4601AAF1B240466A
S3150000CCF003F0E6FF4D44A41D20790028DCD109B0DD
S3150000CD00BDE8F08310B51C4C2078FF2801D17020B7
S3150000CD1010BD0020FFF7C3FF207801F0BBFFFF2006
S3150000CD2020706070002010BD10B5134C0FF24C003F
S3150000CD3062780021FF2A04D0702010BD5118C9B2B4
S3150000CD40801D02791300F9D1002002F026F8FF2891
S3150000CD50207007D002F082FB60700120FFF79FFF72
S3150000CD60002010BD182010BD03480078FF2801D10F
S3150000CD700120704700207047F267002007000E0070
S3150000CD801000080010001A0006000D001100020035
S3150000CD900F0011000400130004000100010004004C
S3150000CDA00900110008000A0012000A000B00140016
S3150000CDB0020000000000000080B500230093134627
S3150000CDC0012211F007FF01BD00F0BABE00F0B8BEA7
S3150000CDD010B54C00014600F054FD224611F0D9FE74
S3150000CDE0A04201D0002010BD012010BD80B500F08A
S3150000CDF048FD11F05CFF00B10120C0B202BDDFF8B2
S3150000CE00840B407D00B101207047DFF8782B117B41
S3150000CE1001B9704780B50146106A11F09EFF20B136
S3150000CE20BDE8044040F27111F4E201BD10B5DFF82F
S3150000CE30544B627D010018BF012102B101229142CB
S3150000CE40607519D068B16FF07F00FFF7DEFFFFF75E
S3150000CE50DFFDC00510D5206ABDE81040012112F0A3
S3150000CE6038B8DFF8E44A94F90C0000F007FE207A9F
S3150000CE70BDE8104000F024BD10BDDFF8081B497D59
S3150000CE8001F0FE010843D1E780B500F0FAFC11F08D
S3150000CE9079FE00F00300032801D1012002BD002025
S3150000CEA002BD80B5B0F5004F07D100F012FEDFF8E5
S3150000CEB0D80A00F0CFFCBDF80000DFF8941BC88349
S3150000CEC0002002BD2DE9F04F440900F01F050027A0
S3150000CED0DFF8808B00E07F1C98F80660F8B2B0425D
S3150000CEE036D2D8F80800FFB250F827004FF0000CF1
S3150000CEF001E00CF1010CC67E5FFA8CFEB645EAD263
S3150000CF00D0F81CE05FFA8CFC142616FB0CF6B6442F
S3150000CF109EF8086006F00706A642EAD19EF8096068
S3150000CF20B542E6DB9EF801B09EF8009006EB0B0AD0
S3150000CF30AAEB090AAA45DCDB11B1AC1B4C440C7008
S3150000CF4012B19EF8081011701BB1C3F800E000E0A2
S3150000CF500020BDE8F08F400918BF40F01800704768
S3150000CF6010B5DFF8104B206A11F0A1FE0246206AC8
S3150000CF70BDE81040002111F0B6BE0B38102834BFB2
S3150000CF80DFF8D40ADFF8F00A006870473EB5684655
S3150000CF900021002200230EC0DFF8AC0901788DF8CD
S3150000CFA00010817A0A0018BF022914D10079DFF82F
S3150000CFB0C45A00F0BBF8044600F00EF858B1286ACF
S3150000CFC00122002111F0E0FD00F006F818B140F250
S3150000CFD05B2100F06DFB37BD286A6A46214611F0D9
S3150000CFE01ABE2DE9F041044604F01F001B2886B046
S3150000CFF034D2002000906B46002200212046FFF725
S3150000D00061FF07002AD02046FFF7B7FF5FEA000856
S3150000D01024D0DFF87069DFF8385AF06B804515D0F8
S3150000D02001A8414606220CF043FA306AC6F83C8055
S3150000D03001A911F0F4FE88B9306A03A911F0FDFECA
S3150000D040B5F91C10306A11F0C5FE38B90098B06207
S3150000D05077620098002818BFC06801E08A200EE0B9
S3150000D060F06229798C421CBF2C71FFF78FFF96F96D
S3150000D0700D00C101306A09B212F0E6F8002006B0D0
S3150000D080BDE8F081DFF8C80900797047DFF8C0090C
S3150000D090B0F91C00002854BF05216FF004010818E0
S3150000D0A00A2190FBF1F040B270470A2110FB01F013
S3150000D0B0FFE7F8B500F5D77240F277239A4201D31D
S3150000D0C08B20F2BDDFF8BC48DFF88459A26A0A2338
S3150000D0D0002A1EBFAE7F06F0C006802E12D0A67BA9
S3150000D0E086B992F9026016FB03F7B842B8BF16FB81
S3150000D0F003F007DB92F9032012FB03F68642B8BF62
S3150000D10012FB03F0217B61B10146206A11F062FE39
S3150000D11018B140F2B92100F0CBFA206A11F06DFE89
S3150000D12001E010FB03F0A8830020F2BD38B50446E9
S3150000D130FFF723FF90B10023002200212046FFF7CE
S3150000D140C1FE58B104F01F051B2D07D22046FFF77C
S3150000D15002FF18B90B2D01DB284632BDFF2032BD78
S3150000D1600FF208014008085C70470000504030008C
S3150000D1707047C0B2704710F1630F01DA00207047A4
S3150000D18010F1240F01DBFF207047643000024111CB
S3150000D19000EB91608004000E704770B5DFF8E4473D
S3150000D1A0DFF8C05A00202064687828B112F050F8E1
S3150000D1B0012818BF032801D1002070BDE16ADFF8FD
S3150000D1C0A83ADFF88C2800291FBFA66A3669002E08
S3150000D1D0022817D12364906900F5FA709061E07C0B
S3150000D1E018B100200021642203E0E87829794FF481
S3150000D1F0A0722070A2806170A878A0708020E08064
S3150000D200002030E0DFF8645A9069AE4213D1DFF8AF
S3150000D210603A236400F57A709061E07C88B90879F9
S3150000D220207001228B7808799A40101891F9032012
S3150000D2301018401E0CE0236400F5FA709061E07C43
S3150000D24018B100202080642005E048782070887896
S3150000D250607008780001A0804879A07008890001F4
S3150000D260E080C8880001A06000F039FCE07094F905
S3150000D2700200010048BF4042C0B270BD70B504460E
S3150000D280DFF80067257896F9140008B18C2070BD88
S3150000D290FFF783FFB075DFF8CC29DFF8B4074178D4
S3150000D2A00174690101F5807181619379716C002BBC
S3150000D2B0B37B1DBFAD1EEDB221F0020141F00201AC
S3150000D2C073B9127862B16278920609D56FF00102DD
S3150000D2D0327541F00101826902F50872826104E04B
S3150000D2E049084FF0FF30490030757164032000F0A3
S3150000D2F007F96A1C306A4FF4807392B2214611F026
S3150000D300D0FF691C884203DA40F21B4100F0D0F9D5
S3150000D310002070BD00000000F8B5DFF8685695F9EA
S3150000D32014100024091D04290FD8DFE801F0080EA7
S3150000D33010100300FFF7A2FF040008D0F2BD2C7501
S3150000D340286A11F025FC8D20F2BD8C20F2BDFFF776
S3150000D35037FCE8B1286CDFF81019884218D1A87D8F
S3150000D360B0B1DFF8A00A0068002811D5DFF8D00AAE
S3150000D370C168C1600122006800F00F0002FA00F0E7
S3150000D380401E014204D100F0F1FB642002F099FC3A
S3150000D39010F04BFF064695F9140010F1010F1CBF63
S3150000D3A095F9140010F1020F29D195F91400DFF850
S3150000D3B0A0764042287511F091FF7862296C387981
S3150000D3C049B9FFF7B3FE01466A6C286A07F11003F4
S3150000D3D011F010FC0BE0FFF7A9FE07F11001009118
S3150000D3E001466A6C286AD5F840C02B46E04760B112
S3150000D3F0002028758C244FF0FF30786202E0002070
S3150000D40028758D24286A11F0C3FB304610F013FFEF
S3150000D4102046F2BDDFF8700A03F0FEBA2046BDE8EA
S3150000D420104010F008BFDFF82806C08B70470000D8
S3150000D430F8B510F0FAFEDFF810550446A87A012870
S3150000D44003D1204610F0F7FEF1BDDFF8401ADFF8F1
S3150000D4503465DFF8347A402008600122306A012101
S3150000D46011F092FBDFF8281A4FF4001008606946A5
S3150000D4700FF2880000680090306A11F0D9FE20B1E2
S3150000D48040F2C741384603F0C7FA02208DF8000083
S3150000D4906946306A11F0A9FE20B140F2C94138460A
S3150000D4A003F0BAFA306A11F091FB00210020FFF771
S3150000D4B003FB00F045FB0120A87296F91400001D3D
S3150000D4C0072810D8DFE800F0140F0707040B0B0B32
S3150000D4D012F020F90CE06FF00300307508E08920A7
S3150000D4E000F079FB04E040F2ED41384603F094FA8F
S3150000D4F0204610F0A0FE12F0D1F9F1BD04010000A3
S3150000D5002DE9F04DDFF840540446A87AA04282B0D7
S3150000D51063D00FF2CC01DFF87C690968DFF868890F
S3150000D520DFF86074DFF868A9009103284FF4001B48
S3150000D5304FD8DFE800F047023E2B12F0B8F9386A00
S3150000D540694611F075FE18B140F20A5100F04AF82A
S3150000D55002208DF800006946386A11F046FE18B1BF
S3150000D56040F20C5100F03EF86879002814BF002202
S3150000D5700222386A022112F0DBF918B140F2115189
S3150000D58000F030F80320032CA87218D0CAF800B0B7
S3150000D5900220A8722879FFF7C9FD0146386A0022E1
S3150000D5A011F039FB18B140F2215100F01BF8022CA2
S3150000D5B013D0002C18BF032C0FD10020A872C6F878
S3150000D5C000B00AE0022C08D1CAF800B00220A87206
S3150000D5D003E040F2375100F005F8BDE8F38D000096
S3150000D5E004020000404603F017BA002088E7DFF87F
S3150000D5F0AC0A807A70470000032805D8DFE800F0FF
S3150000D6000302030314E77BE740F2555102E780B5B6
S3150000D61000F00FF804D500210175006A11F0B8FA80
S3150000D620DFF8780A407A012802D1BDE80140FFE61A
S3150000D63001BDDFF86C0A90F9141000297047DFF875
S3150000D6405C0A407A704780B5032801DB012002BDE1
S3150000D650DFF8481A4872897A884218BFFFF7CCFF6C
S3150000D660002002BD2DE97C4FDFF8346A03EA010B86
S3150000D670D6E9068929EA010528EA000402EA000A31
S3150000D68045EA0B0544EA0A044D4508BF44450DD05A
S3150000D690CDE900230246306A0B4611F0CBFD18B1E6
S3150000D6A040F27D5100F004F8C6E90645BDE8738FE7
S3150000D6B00FF6242003F0B0B938B5B24D0446287BE6
S3150000D6C0E8B1200018BFDFF8DC2904D1A87C08B136
S3150000D6D0402200E000220023DFF8C8090021FFF7FE
S3150000D6E0C1FF002C14BF08220022286A082112F06C
S3150000D6F01FF920B1BDE8344040F2B9518AE631BD88
S3150000D700F8B50446022C0FF6D01503DB40F2E251C1
S3150000D71000F0A5F89B4E307B002840F097808A4F9A
S3150000D720B87A012803D04FF4BD6100F098F80021C3
S3150000D73007F1280011F016FA306218B940F2EB51E1
S3150000D74000F08DF8306A052111F00DFC18B140F299
S3150000D750EE5100F084F8306A0FF6901112F0FAF8E4
S3150000D76018B140F2EF5100F07AF8306A12F026F95B
S3150000D77018B14FF4BE6100F072F84FF0FF30DFF8D9
S3150000D780282906230146FFF76DFF306A4FF0011185
S3150000D79011F0BBFA18B140F2056100F060F8306A8A
S3150000D7A04FF48032002111F09EFA306A09224FF0C0
S3150000D7B0FF3112F0BDF818B140F20C6100F04FF8DD
S3150000D7C0012030730223DFF8E40800F043F8BDF8C7
S3150000D7D00000C0054CBF0020BDF800007073FFF7C5
S3150000D7E0EFF9FFF769FFF88BFFF75BFB12F066F9BD
S3150000D7F000F085F83879FFF7F4FB18B140F21F61A5
S3150000D80000F02DF8F87900F040F8387A00F058F872
S3150000D810307C00F086F8787900F0CCF800F05FF9FB
S3150000D82000F02CF9B07C00F01BFBB7F91C00FFF7E9
S3150000D83040FC388C00F08AF8788C00F0A7F8B879AC
S3150000D84000F00DF9601E8041C00FB8722046FFF748
S3150000D850D3FEF1BD01887F22684603F0A7BA2846A9
S3150000D86003F0DAB880B500F00CF8012111F0D6F912
S3150000D87010F5007F02D16FF07F0002BD8005001613
S3150000D88002BDDFF81C08006A704710B504463D4823
S3150000D890017B51B1611E8941006AC90F12F0E0F89F
S3150000D8A018B140F25A61FFF703FF2000DFF8EC17CA
S3150000D8B018BF0120C87110BDDFF8E007C0797047B6
S3150000D8C0F8B5044610F0B1FC05461F482D4E04720B
S3150000D8D0377BFFF794FA00F0010080F00100074261
S3150000D8E004D0306A84F0010111F0F3FA2846BDE84D
S3150000D8F0F24010F0A0BCDFF8A407007A7047214878
S3150000D900017B01B9704780B5006ADFF8A4170022D1
S3150000D91012F093F820B1BDE8044040F2856179E544
S3150000D92001BDDFF87C27117B107401B9704780B503
S3150000D9300146106A12F088F820B1BDE804404FF4A1
S3150000D940D26167E501BD00000C6500204049DFF8A3
S3150000D95050370884197B01B9704780B50146186AAB
S3150000D960002212F063F820B1BDE8044040F2A16144
S3150000D97050E501BDDFF82407008C7047DFF81C076F
S3150000D980408C70474869002076F402003049DFF881
S3150000D99010374884197B01B9704780B50146186A6B
S3150000D9A0002212F03CF820B1BDE8044040F2B76115
S3150000D9B030E501BDDFF8E4164A79824200D17047AE
S3150000D9C010B58C7A4871012C05D0FFF731FD204641
S3150000D9D0BDE8104094E510BD10B500F032F800F037
S3150000D9E02BF80146206A012211F00DF920B1BDE89D
S3150000D9F0104040F2D9610DE510BD80B5FFF741FF3B
S3150000DA0011F004F918B140F2DE61FFF751FEBDE8EE
S3150000DA100140FFF7BBBA10B500F013F800F00CF8A0
S3150000DA200146206A002211F0EEF820B1BDE8104050
S3150000DA3040F2E961EEE410BDDFF860060079FFF719
S3150000DA4075BBDFF85C46206A0122012111F09CB803
S3150000DA500C65002034F0020064640020CDE710B5A8
S3150000DA600446FFF70EFF214612F034F8DFF82C06C5
S3150000DA70847110BD486900206864002038B50446EA
S3150000DA807F2C0CD100F025F8DFF82806FFF7E2FE20
S3150000DA90BDF800007E24C00558BFBDF8004010F058
S3150000DAA0C4FB0546FFF7ABF960B960B27E2805D125
S3150000DAB0DFF8EC15896A09B191F904007E28B8BF30
S3150000DAC0FFF7A3F9DFF8D4050473284610F0B3FB7B
S3150000DAD031BD4FF6FF70ADF8000002237047DFF846
S3150000DAE0BC0590F90C007E2807D1DFF8B405806AE2
S3150000DAF008B97F20704790F90400704710B5FEF70B
S3150000DB0087FF80041AD500F02BF8FEF781FFC004CA
S3150000DB104CBF032001200021FEF7EEFFFEF778FF41
S3150000DB2000F0FF004FF47A7111FB00F104F1480098
S3150000DB30BDE81040DFF88025FFF73EB9BDE810408C
S3150000DB4010B500F00DF804F1480011F04CF8FFF79D
S3150000DB509BF920B9BDE810400021FEF7CDBF10BDEE
S3150000DB60DFF83C4504F1600011F03DB880B5FEF7E2
S3150000DB704FFF4005BDE804404CBF032001200021B3
S3150000DB80FEF79ABF10B5DFF8184594F9140003287C
S3150000DB900DD100F02DF9DFF804154FF0FF30486283
S3150000DBA00022216BBDE81040402011F026BC10BDBC
S3150000DBB038B50446FFF7C4FFDFF8E45411F09FFBC5
S3150000DBC0686314B111F05DFB01E000206874BDE8E4
S3150000DBD0314011F09FBD38B50446DFF8C014DFF8B8
S3150000DBE0C0544FF0FF30486211F089FB686395F925
S3150000DBF01400012802DABDE831407FE7A87D08B1AC
S3150000DC00686BA86300F062FAA87B10B10120E87384
S3150000DC1031BD2046BDE838400022002111F0EDBBA1
S3150000DC2010B5FEF7CDFFDFF8784498B1FFF72CF971
S3150000DC3080B104F1480010F0D6FFFEF782FF002104
S3150000DC40FEF75AFFDFF8742442F2107104F1600007
S3150000DC50FFF7B2F8A07C18B1BDE8104000F055BA45
S3150000DC6010BD0000BC660020FBEB010008E10000CF
S3150000DC7001EC01002DE9F043DFF824440FF2584986
S3150000DC80206A89B005AA022111F00EFB050003D116
S3150000DC9040F6E70100F0A9F89DF81400DFF8FC63F0
S3150000DCA0BDF8168007281CBF7079002819D1B8F175
S3150000DCB0060F16DB08F108008B2812D20020009010
S3150000DCC04346DFF8FC73206A3A46294611F0F4FA17
S3150000DCD0404503D04FF4106100F087F8387800060D
S3150000DCE002D5FFF70BFF7DE001208DF80800CDF887
S3150000DCF004806A46206A294611F0DAFA18B140F61D
S3150000DD00171100F072F8787800F0070002281ED18B
S3150000DD10FFF716FF94F91400032808BFB8F1060FA1
S3150000DD2011D19DF80D0070B17878000900F0010559
S3150000DD3000F05EF84FF0FF3070622A4600218F2017
S3150000DD4011F05BFB4EE0F07900284BD105E09DF821
S3150000DD500D0010B10020FFF715FFF0799DF80D10AA
S3150000DD60084203D040F63F1100F03FF8F07958B171
S3150000DD707878800608D5307A30B1206A11F0ACF890
S3150000DD8030B1FFF7BBFE03E0FFF7DAFE0020607458
S3150000DD903878401C404503D040F65F1100F025F866
S3150000DDA007EB08053079287001F0C1FB68709DF813
S3150000DDB00E00A87095F90200FFF7DDF9E87008F18A
S3150000DDC00801FF202871C9B20098000C68710098FC
S3150000DDD0000AA8710098E8713846627C11F055FC7B
S3150000DDE00020607409B0BDE8F083484602F014BE16
S3150000DDF000202075206A10F0CBBE0FF2E42002F05E
S3150000DE000BBE00000440084010B5A448446A002C2C
S3150000DE1014D411F063FA001B40F2E93180B2884253
S3150000DE200CD39F4890F91400032803D1BDE8104095
S3150000DE300020A7E6BDE810408920CCE610BD000012
S3150000DE404C50084010B540B911F01CFA10F0EDF92D
S3150000DE500446FFF7D9FFFFF7E1BABDE81040D3E764
S3150000DE6038B58F4D0446287B60B1200002D1FEF7FD
S3150000DE70A7FE08B1402200E0002200234020002136
S3150000DE80FFF7F0FBAC7431BDD8E000000840084055
S3150000DE9018600846186008442DE9F0478146144684
S3150000DEA0600688B0984648BF002002D4200602D5F6
S3150000DEB00120FFF7B5FEA003794D25D50020687433
S3150000DEC06946484611F0E1FDF0B99DF808000228C0
S3150000DED00ED1BDF800000DF01FFCFF280ED07949C9
S3150000DEE0096831F810004FF4E661084206D10BE0EC
S3150000DEF0032809D168460DF082FC28B1286A11F082
S3150000DF00C1FD08B901206874600410D5FEF758FEFB
S3150000DF1068B1FEF7B9FF50B1FEF71FFE0646FEF7E1
S3150000DF2010FE864203D000213046FEF7E5FD2007AD
S3150000DF3044BF4846FFF79EFEE00548BFFFF7DEFDFB
S3150000DF404FF41850044218BFFFF7FAFDE00244BF31
S3150000DF500120FFF72DFE600244BF0120FFF728FED7
S3150000DF60E00144BF0020FFF723FE95F914000FF2ED
S3150000DF70681A012864DB286A484E21034FF0FF37F0
S3150000DF8030D595F9141001295ADB95F91410032997
S3150000DF9056DA00218DF8181001218DF8141003A906
S3150000DFA010F04EFF0398286311F0A9F96863A87D65
S3150000DFB008B1686BA86395F91400012804D00228FB
S3150000DFC00AD1032028753BE000F080F87762A87B31
S3150000DFD0A8B9296B002218E04FF40161504602F0FF
S3150000DFE01BFD2DE014F0845F12D00021297510F07E
S3150000DFF0CFFD042011F047F97762A87B10B101200C
S3150000E000E8731DE0002200218D2011F0F6F917E0DB
S3150000E010A00248BF892002D4A00103D58820FFF7BB
S3150000E020DAFD0DE0600048BFFFF7A0FDA00007D5B0
S3150000E03025480068400403D400210020FEF73CFD7B
S3150000E040A00744BF4846FFF79DFD002C04D5FFF707
S3150000E05077FD4846FFF796FD08F002010023994236
S3150000E06012D0484610F08CFD022802D0032802D0B8
S3150000E07005E0892000E08D20FFF7ADFD04E040F6C5
S3150000E0807B01504602F0C8FC08F0040100239942C7
S3150000E09018BF11F023FD08B0BDE8F0870C6500201D
S3150000E0A048690020406700600A00FA937AF402008B
S3150000E0B0807500207CF40200C9CD0000CDCD0000A3
S3150000E0C0AC720020B064002004400840002028758F
S3150000E0D0286A10F05DBD00007068792E63000000AC
S3150000E0E06C69627261696C2E6100000000000000BC
S3150000E0F001006003010101016400B6006400C00074
S3150000E100000000000B0000000000704710B58748B3
S3150000E1100FF2582194B004884FF6FF70844208BF6E
S3150000E1204FF4E1340AA824220BF0D2F968460AA972
S3150000E13024220BF0CDF91020ADF82400ADF826000E
S3150000E14001946946202011F0AFFFC0B220B13E21F4
S3150000E1500FF2002002F060FC12F0B4F914B010BD0A
S3150000E16080B512F091F920B17148007800F092FD67
S3150000E170012002BD10B512F069F96D4C207000F057
S3150000E1807BFD207800F010FD6A49486010BD38B567
S3150000E19012F01EFB664C2078FF2815D1654D688865
S3150000E1A038B111F09BF82A886988801A80B28142BA
S3150000E1B004D200206880204612F011FA2078FF2849
S3150000E1C004D000F0F1FC6860012032BD002032BDB1
S3150000E1D038B50446564D00F00AF82878214612F064
S3150000E1E0BBF9FF202870BDE8314012F0F1BA504863
S3150000E1F00278FF2A03D04CA13C2001F037BE7047BD
S3150000E20070B5044682B00D46002000F0C6FD0646F5
S3150000E210FF2E07D046480278009523460021304657
S3150000E22000F0CFFF304676BD434841490068097883
S3150000E230405C704701463E48007800F0BBBC2DE9C3
S3150000E240F047DFF8F88082B0002008F0DBFC98F891
S3150000E25000A00446012000F0B2FC8146661CB9F11C
S3150000E260FF0FF6B208BF002053D0314F3878FF2891
S3150000E27009D000F00FFD06E0824631480188203EB5
S3150000E2802039F6B20180212E2E4A116811F80A00B3
S3150000E290F2DAFF2301F80A3000231168254D01F850
S3150000E2A009005246202000900021484600F089FFD0
S3150000E2B098F80000387000F077FC686088F80090E5
S3150000E2C0009401233A780021104600F07AFF38784E
S3150000E2D0214600F06FFC1C480188091B491E01807D
S3150000E2E089B298F80000009133460246002100F0FA
S3150000E2F068FF01F00BF838B10F4938780968095CF6
S3150000E3001231C9B200F026FE686810492044086040
S3150000E3100120BDE8F68738B50446064D10F0DEFF4D
S3150000E32028806C8031BD0000620000003E00E00FD6
S3150000E330B8670020E46900209C640020EC67002098
S3150000E3407E730020A4640020EE7B0020447200202F
S3150000E3507047000073657269616C2D696E74657231
S3150000E360666163652D756172742E6300000001405D
S3150000E37000C20100000000100000000002000200C0
S3150000E3800300000000000000000000001E1E000048
S3150000E3902DE9F6410546DDE90001014628460CF067
S3150000E3A0BBFB284602F002F90746284602F00CF9A4
S3150000E3B000213A469DF80040024203D187F001024F
S3150000E3C0104301D1019801782E464FF6FF780FB31E
S3150000E3D0212E1FDA422002294A4A0ADA10FB01F0EE
S3150000E3E0104430F81610414514D0491C20F8161078
S3150000E3F010E00FD1002102EB460300FB01F733F8D2
S3150000E40007E0C6451CBF0EF1010E23F807E0491CC4
S3150000E4100229F2DB3C4B3D4933F8160031F8167001
S3150000E42087429241D243D20F47451CBF7F1C21F839
S3150000E4301670092E9F8A18BF0B2E07D18B8A04EB04
S3150000E440030EBE4510DAE3188B820EE01D2E0CD1AA
S3150000E450B1F83AE05B8FA6449E4505DA31F81630EE
S3150000E460E31821F8163000E08F8231F81610814249
S3150000E47003D312B9284608F0F3FC00270FF2A400D4
S3150000E480C15DA94204D07F1CFFB2112FF8DB20E04A
S3150000E490112F1EDA01F02BF805461D48007885423B
S3150000E4A004DBD7210FF2700002F0B6FA22211948D8
S3150000E4B011FB05F1084430F8171041451CBF491CF3
S3150000E4C020F81710092E18BF0B2E02D1818A0919C0
S3150000E4D08182BDE8F38180B5502200210B4802F00D
S3150000E4E072FABDE80840442200210A4802F06BBADD
S3150000E4F05022FF21044802F066BA034A22F810109F
S3150000E500704700006C760020D875002088750020C2
S3150000E510C167002028760020636F756E746572737C
S3150000E5202E630000000102030405060708090A0B12
S3150000E530151618191A0000009C48007870479B4968
S3150000E54000F001000870002070472DE9F0410646F2
S3150000E5500CF0D7F98046FEF727FA044640460CF041
S3150000E5601BFA18F8005030460CF0C1F90746404631
S3150000E5700CF012FA8E490968895DC91B091AFF2237
S3150000E580A00548BF122208D47C2D08BF032204D060
S3150000E590092D3CBF0FF21C20425DC9B29142804159
S3150000E5A0C043C00FBDE8F08170B5044604F050FECC
S3150000E5B0054620460CF0A5F94078400714D500F032
S3150000E5C068F858B100F0A1F80646691CC9B200F017
S3150000E5D09DF82EB1B04203DBFF2801D0002070BDAC
S3150000E5E005EB4600851CADB229462046BDE87040C5
S3150000E5F004F046BEF8B5044604F009FF0546204679
S3150000E6000CF07FF9064600F044F800283FD000F0F1
S3150000E6107CF80746691CC9B200F078F80E2F36D28E
S3150000E6200FF29C11C95D6D18ADB2420005F10801EB
S3150000E630012F89B20AD0022F0CD0052F11D0082F36
S3150000E64014D0092F18BF0A2F15D01EE080061CD53E
S3150000E6500D461AE0C20648BF0D46800615D5083598
S3150000E66012E07078C00612D555190DE000F01F00B3
S3150000E67000EB400007E010F0E00008D1092F0CBFC6
S3150000E68002F03E0002204519ADB2294664E00020A2
S3150000E690F2BDA91C89B2204604F0F2BDF8B50446C5
S3150000E6A004F0B5FE0546691CFFF7F4FF58B300F009
S3150000E6B02CF8064606F00C00042806F0030722D0C4
S3150000E6C0022F00D1F8B9304604F0CFFE2D183006DF
S3150000E6D0ADB212D5691CFFF7DDFFA8B1E9B200F0B3
S3150000E6E015F80146012F1CBF01F0030003280AD0CC
S3150000E6F0304604F0CAFE2D18ADB22946204604F075
S3150000E700BFFD010000D10020F2BD2946204600F0E1
S3150000E71068BCF8B5044604F0FDFE0546FFF7B9FFF0
S3150000E720C0B1FFF7F2FF0646112E13D20FF2A0007A
S3150000E730805D691CC9B24719FFF7E8FF052EFFB2D5
S3150000E74006D1062806D20FF29C01085CC719FFB253
S3150000E750394601E00020F2BD2046BDE8F44004F051
S3150000E7608FBD70B5114A0FF284031278044600205B
S3150000E770002A02D1012070BD401CC0B2024613F827
S3150000E78032502E0009D0AC42F6D1084603EBC20146
S3150000E79049688847010001D070BD002422464FF623
S3150000E7A0FF711E2001F008F8002070BDEF67002001
S3150000E7B09C640020FF0204FF010101010800000023
S3150000E7C0FF06080402020204020A0B030302000009
S3150000E7D0FF00000000000C090202000000001C1AE5
S3150000E7E00B0000000023001B2200000001000000B7
S3150000E7F04BE5000002000000A9E500000300000050
S3150000E800F5E50000040000009DE60000050000009C
S3150000E81013E7000000000000000000002DE9F047AB
S3150000E8209F4DA04C0E468046297888B0207898F8EF
S3150000E83000A088420CBF01270027684601F002F8B5
S3150000E840A84508BFFF2E0AD197492878896825224E
S3150000E850B1FBF2F10E18B6B2FF2EC8BFFF2688F83C
S3150000E860006000F041F806000FF20C3908D088F875
S3150000E87000A000F039F818B17321484602F0CCF830
S3150000E880DFF828A27FB112F001FB074612F002FB67
S3150000E8903A1A92B20021504602F095F800F058FC60
S3150000E8A02878207015E08248046812F0EFFA0746CF
S3150000E8B012F0F0FA381A001B0AEB000292B200219D
S3150000E8C0204602F080F8A84503D17F21484602F091
S3150000E8D0A3F800F025FD684600F0CFFFF5F741FEEE
S3150000E8E0304608B0BDE8F0872DE9F843714FDFF8F0
S3150000E8F0BC8112F0CBFA054612F0CCFA6E496F4B8A
S3150000E900C1F80080281A6649097808EB41121A6096
S3150000E9100A446B4B1A600A446A4B1A600A446A4BF3
S3150000E9201A605318604A5D18614953600D6040448F
S3150000E930664909784E1C760405EB1645644E35602B
S3150000E94005EB41053D6005EB8105624F3D600D44D9
S3150000E950614F3D6005EB4106604D2E60604D2F789E
S3150000E960062515FB07FC1FFA8CF31E445D4B1E6043
S3150000E970CB1DDB1017FB03F7BFB23E445A4F5B4B70
S3150000E9803E605B4F3F7806EBC7065A4F3E605A4FD4
S3150000E9903F7806EB8707594E37600C2693F800C080
S3150000E9A016FB0CFC1FFA8CF307EB030E544FC7F84B
S3150000E9B000E00E23534F97F800C0482717FB0CF4CE
S3150000E9C0A4B2A644504CC4F800E0504C24780CEB9A
S3150000E9D0040913FB09F91FFA89F39E444C4BC3F84B
S3150000E9E000E00B1963449B044A4C0EEB134323606F
S3150000E9F0494C00F0B9F8494C2360494C00F0B4F892
S3150000EA00484C2360484C247817FB04F7BFB23B44BC
S3150000EA10464F3B602C24464F3F7814FB07F7BFB2A6
S3150000EA203B44444F444C3B60444F3F7803EB470321
S3150000EA3023603B44424F3B601944424B1960424BB2
S3150000EA401B7873431944414B1960414B1B786B4348
S3150000EA501944404B1960404B1B7801EB83013F4B37
S3150000EA6019603F4B1B7801EB830113781D0008BF2B
S3150000EA70002504D05B1C0D465B0401EB1341394BAA
S3150000EA8088422CBF414535201D6006D3411A91604E
S3150000EA900FF2F80008F065F80020BDE8F2830000E8
S3150000EAA0B9670020BA670020207700200000002008
S3150000EAB0AC640020B4640020986400209C640020AC
S3150000EAC0A0640020A4640020A8640020BC67002085
S3150000EAD0B0640020B8640020BC640020C06400203C
S3150000EAE0BD670020C4640020C8640020C067002001
S3150000EAF0BE670020CC640020BF670020D0640020E1
S3150000EB00D4640020C1670020D8640020C2670020BA
S3150000EB10DC640020E0640020C3670020E464002079
S3150000EB20C4670020E8640020C6670020EC6400206B
S3150000EB30057C0020F4640020F8640020077C002097
S3150000EB40FC64002000650020C767002004650020E3
S3150000EB50C867002008650020097C0020F0640020BA
S3150000EB60067C00200878002094F800C015FB0CFCF9
S3150000EB701FFA8CF4234470476D656D6F72792D61B1
S3150000EB806C6C6F636174696F6E2E630052656D61A4
S3150000EB90696E696E67206D656D6F72793A202564BE
S3150000EBA02062797465730000DFF81C17096801EBB1
S3150000EBB040107047DFF814271268115470472DE98A
S3150000EBC0F041040035D00FF030FBDFF80417DFF812
S3150000EBD004370E78FF228046FE2EDFF8FC061BD196
S3150000EBE000260E70DFF8F4C6DFF8F46637781F707B
S3150000EBF0002708E007F1010E05F807E0DCF80050F1
S3150000EC00EA555FFA8EF796F800E005687745F1DB7E
S3150000EC1005EB0E0606F8012C1E78A6420BD24046DE
S3150000EC200FF009FB052007F0A0FF00211B2000F0D4
S3150000EC30B9FDFF201EE0361B1E70DFF8A8360E78E1
S3150000EC400F78D3F800E001250EF80750641E05681A
S3150000EC5015F807E081F800E05FFA84FEBEF1000FC8
S3150000EC60EED1EA5500213046FFF7A4FF40460FF0EB
S3150000EC70E2FA3046BDE8F08110B504460FF0D5FA49
S3150000EC80DFF8601609680A5D521C0A55BDE8104097
S3150000EC900FF0D1BA2DE9F041054600F031F80446EF
S3150000ECA00FF0C3FADFF82826DFF82836DFF82866E3
S3150000ECB0DFF83086FF2D1FD0D8F800104F5D7F1E7D
S3150000ECC04F557F27D8F800E01EF80510394213D1BA
S3150000ECD03168495D00270EF805701F787F1C1F708C
S3150000ECE0FF29376892F800E007F805E0157006BFBF
S3150000ECF02546FF240D46DDE7BDE8F0410FF09BBA3F
S3150000ED0080B5DFF8E0150968095C090603D5FFF749
S3150000ED104BFF007802BDFF2002BDB0B504460D468C
S3150000ED20FFF7EEFFFF2818BFFFF7B4FFFF2DDFF850
S3150000ED30B47504D13868015D01F07F0106E028460C
S3150000ED40FFF79AFF3868015D41F0800101552046C2
S3150000ED50FFF72AFF0570B0BD0EB478B50446012052
S3150000ED60FFF72DFF0546FFF71FFF0646FF2D08BFDD
S3150000ED70FF200FD0E1B22846FFF71CFF05A80021AF
S3150000ED8004E050F8042B06F8012B491CC9B2A14235
S3150000ED90F7D3284672BC5DF810FB70B504460D46E5
S3150000EDA005F11F000004400D82B0C0B2FFF707FF57
S3150000EDB00646FF2E0CD02946FFF7FCFE3CB101208B
S3150000EDC000902B4600223146204600F002F83046DD
S3150000EDD076BD73B500F0D0F8405C15461E46711935
S3150000EDE0884203DA40F2651100F0EBF830000CD0EF
S3150000EDF0294601A800F0E9F8024606989DF8041095
S3150000EE0000903346204600F001F873BD2DE9F84323
S3150000EE10089CDFF8C4840546894616461F460BE063
S3150000EE206A5C4254491CB142FADBD8F80000BF1BA9
S3150000EE30AD1910F809900026F8B2D0B14846FFF790
S3150000EE40B3FE801956FA87F12029B9BFFFB23E46B4
S3150000EE50C6F12006F6B22100324604D10146284604
S3150000EE6001F06EFDE1E7012C08BF2946F8D000212C
S3150000EE70D9E7BDE8F1832DE9F04100F07DF882B0D5
S3150000EE80055D884616467119C9B2A9421F4605DBBB
S3150000EE9030000CD0204600F05DF808B1182007E0DD
S3150000EEA0009733462A4621464046FFF792FF002048
S3150000EEB0BDE8F6810123DEE70A4600E0521C13781E
S3150000EEC0002BFBD1521A0223D2B2D4E72DE9F0412E
S3150000EED0054601F11F00C70402F11F00C0043F0EE2
S3150000EEE0000E07B9012700B9012087422CD0DFF8B0
S3150000EEF0E8431BDAC01BC0B2FFF761FE8046B8F1DB
S3150000EF00FF0F08BF002020D07F1E00F020F82668E3
S3150000EF10305CFF2804D000F01AF8305CFFF7BAFE28
S3150000EF2000F015F8216801F800800DE08A420BD246
S3150000EF30411EC9B200F00CF805462068405DFFF797
S3150000EF40A9FE2168FF2048550120BDE8F081F9B2ED
S3150000EF50284616E038B500F00FF80D46015D2A4642
S3150000EF602046FFF7B3FF28B129462046FFF722FEC9
S3150000EF70002032BD182032BD0446DFF85003006879
S3150000EF80704704E0DFF850231268105C491ECAB2CD
S3150000EF90002AF7D1704711B50C46DFF8301309681F
S3150000EFA081B0095C8C4203D340F2012100F009F8DC
S3150000EFB0214601A800F009F8044600F033F9204480
S3150000EFC016BD0FF2343001F027BD38B504460D46A4
S3150000EFD0E9042078090EFFF7D4FF207005F01F0022
S3150000EFE032BD80B5FFF7D7FF007802BD10B51446D5
S3150000EFF0FFF7D1FF047010BDB0B5FFF7BDFF82B0BB
S3150000F000055DFF2C03D140F22121FFF7DAFF05F160
S3150000F0101F000004400DC0B2FFF7D1FD0746FF2FC9
S3150000F0200AD02946FFF7C6FD009500232246002197
S3150000F030384600F0C6F83846B6BDF8B504460D4663
S3150000F04016460120FFF7BBFD0746FFF7ADFDFF2F74
S3150000F05001D1FF20F2BD33462A462021204400F08C
S3150000F06020F82118C9B23846FFF7A4FD3846F2BD8C
S3150000F07010B582B004AC009400F001F816BD10B5CE
S3150000F08014461A46029B2044091BBDE81040C9B22B
S3150000F09007E00CB480B502AAFFF7CFFF02BC5DF80B
S3150000F0A00CFB2DE9F047814614469A464F4600254B
S3150000F0B088460AE03246384601F042FC7019BF190C
S3150000F0C0451EEDB26D1C641CEDB245453BDA207859
S3150000F0D0010038D0312818BF32280ED15AF8041B47
S3150000F0E007F8011B3228EDD16D1CEDB2A845A4BF6F
S3150000F0F0081207F8010BE5DA25E034280ED1291DA0
S3150000F1005AF8040B88451EDB3870010A7970ED1C2D
S3150000F110010C000EB970F8703F1DD2E7A0F1330262
S3150000F1205AF8041B072A38BFA0F1300607D3A0F10E
S3150000F1304102072A34BFA0F137065AF8046BF6B22B
S3150000F14070194045B6DBA7EB0900C0B2BDE8F087F1
S3150000F1505F49FE200870704770B500F027F800F090
S3150000F16003F8301880B270BD06022946204638E7FB
S3150000F17000B583B002238DF80420120A8DF805200D
S3150000F1800122009217E0F8B500F010F8FFF7ECFF47
S3150000F1908619E91CC9B2FFF7E9FF0702A91CC9B223
S3150000F1A0FFF7E4FFC01906EB0040F2BD0D46691CEF
S3150000F1B00446C9B215E70A46014601A8FFF709FE4B
S3150000F1C007BD2DE9FC4405B40A9C20001F4627D044
S3150000F1D089B26846FFF7F9FE0646B9B201A8FFF7FD
S3150000F1E0F4FE0746BE42A8BF3046A4B2C0F12000D6
S3150000F1F02546C0B2A842B8BF054600F013F88246BD
S3150000F2009DF80000FFF7D0FC2A460AEB07013044C0
S3150000F21001F096FB641BA919EF19A0B20028D7D1FB
S3150000F220BDE8FF849DF80400BEE470B504460D46B3
S3150000F2300EF0FBFF294B21781B68FF2908BF5D559F
S3150000F24003D019440E785E550D702570BDE87040E8
S3150000F2500EF0F1BF38B504460EF0E7FF2178FF2225
S3150000F260FF2908BFFF2507D01C4B1B685D5C8D423C
S3150000F2700EBF22705A5D5A540EF0DDFF284632BD8D
S3150000F280F8B504460D460EF0D0FF21780026FF297A
S3150000F29015D0124B1B680A46012602E0761C3A4638
S3150000F2A0F6B29F5CAF4208D1DF5D9F54A94206D1FA
S3150000F2B08A4208BFFF22227001E08F42EED10EF093
S3150000F2C0BAFF3046F2BD0000986400209C6400201E
S3150000F2D0ED670020BA670020A4640020A86400201F
S3150000F2E0B9670020A06400200078FF2801D1012022
S3150000F2F070470020704700007061636B65742D6273
S3150000F30075666665722E6300382070470020704768
S3150000F310382070473820704770470020704700003B
S3150000F3202DE9F84FDFF8F446DFF8F4562068DFF8E9
S3150000F330F4B6DFF8F496DFF8F4A6E8612862002652
S3150000F3404FF6FF7828E02068F6B2482111FB06F157
S3150000F350471848220021384601F035FB99F800008D
S3150000F3603870A7F80280002038737873761C0B205B
S3150000F370B8731420F8734FF6FE703882A7F812801F
S3150000F3800CF019FD38760CF016FD78760CF013FDAE
S3150000F390B8769BF80000F876F0B29AF8001088422A
S3150000F3A0D1D3281DBDE8F84F0222FF2101F00BBB87
S3150000F3B02DE9F041DFF878560FF29468044695F986
S3150000F3C0000010F1010F03DA5C21404601F024FB36
S3150000F3D0DFF8587639788C42264605D3FE2E03D0C0
S3150000F3E05E21404601F018FB2878DFF83416401CF1
S3150000F3F0287040B20844047438788442DFF81C064A
S3150000F400006828BF0E78482212FB06F21044C86135
S3150000F410BDE8F08110B5DFF8184694F90000002821
S3150000F42002D56F2100F0A6F82078DFF8F415401E0B
S3150000F430207040B2DFF8F4450A78247800284EBFE1
S3150000F44010460818007CA04238BF0246DFF8CC05FB
S3150000F450006848235A431044C86110BD10B5002007
S3150000F460DFF8BC1500E0401C00F07EF808D2DFF89B
S3150000F470AC35C0B21B68CA6900F070F8F3D110BD94
S3150000F4808A2167E0DFF8A80590F9000010F1010F66
S3150000F49001D10120704700207047FE2088E7DFF881
S3150000F4A080050078704738B50446FFF7EBFFDFF8B4
S3150000F4B0705550B9DFF8780590F900002844007CB3
S3150000F4C0FE2802D0A62100F055F8DFF8601509786D
S3150000F4D08C4201D3B12032BDDFF840052C704821A3
S3150000F4E0006811FB04F10844E861002032BD38B51C
S3150000F4F0DFF83C05DFF8285590F900402819007C14
S3150000F500FE2807D0FFF7BEFF20B9C32100F032F86E
S3150000F510FF2032BD611E00E0491E49B2080004D436
S3150000F5206818007CFE28F7D032BD287832BD10B5A9
S3150000F5300020DFF8EC1400E0401C00F015F808D2BB
S3150000F540DFF8D834C0B21B680A6A00F007F8F3D1B6
S3150000F55010BDE22100F00EF8FF2010BD482414FB78
S3150000F56000F423449A427047DFF8C0341B78C2B2D5
S3150000F5709A4270470FF2D84001F04EBA10B5FDF727
S3150000F58081FDDFF89C44216A897B884203D00846C6
S3150000F590FDF727FD50B9FDF779FD0146206A90F980
S3150000F5A00F00814204D0FDF780FD08B1012010BD97
S3150000F5B0206A008AFEF7CAF9206A408AFEF7E6F951
S3150000F5C0206A007B012818BF0020FEF7AAF9002058
S3150000F5D010BDDFF8581410B509788842044603D3E5
S3150000F5E04FF48371FFF7C6FFDFF84804007808B9C7
S3150000F5F0702010BDDFF8240400F06BF8DFF820144B
S3150000F6000862BDE81040B9E7DFF8281408707047B3
S3150000F61010B5DFF824440020207002F004F920B968
S3150000F6202046BDE810400BF031B800F058F8DFF87E
S3150000F630FC130978884206D3FFF710FF044600F052
S3150000F64010F818B12046BDE81040C2E710BDDFF83B
S3150000F650D003006A008A7047DFF8C403006A408A54
S3150000F6607047DFF8B8130968482250430844407BC6
S3150000F67002281CBF1128432801D101207047002011
S3150000F6807047DFF898130968482250430844007B06
S3150000F69001281CBF0228032801D101207047002041
S3150000F6A0704710B5002400E0641C00F02CF80ED260
S3150000F6B0FFF7D7FF0028F7D0D848E4B200F009F8E2
S3150000F6C0007B012818BF0228EED1204610BDFF207E
S3150000F6D010BD0068482111FB04F10844704710B5BD
S3150000F6E0002400E0641C00F00EF80AD2FFF7C9FF00
S3150000F6F00028F7D0E0B2FFF7B4FF0028F2D0E0B25E
S3150000F70010BDFF2010BDC9490978E0B28842704794
S3150000F71070B500240025C54E08E0FFF749FE01F04C
S3150000F7200BF800B10124FFF775FE6D1C3178E8B2C5
S3150000F7308842F2D3204670BD80B5FFF7D0FFFF2880
S3150000F74001D0012002BD002002BD38B5BB4C0546E4
S3150000F75020680321A94088432060FFF77FFE2168C7
S3150000F760A8400843206031BDB4490968C14001F092
S3150000F7700300704738B504460D46FE20FFF718FE15
S3150000F78029462046F7F797FABDE8314042E610B51C
S3150000F7900446FE20FFF70CFE204607F023FBBDE8DB
S3150000F7A0104037E682B08DF80010DDE900231146DF
S3150000F7B01A4602B0FEF7ECBD32B586B004468DF8A7
S3150000F7C0042000F0F3FE0546204600F0FDFE80F022
S3150000F7D001010D420DD0BDF8180000F0CEFF8DF8E6
S3150000F7E00000FF2804BF00208DF80000CDF808D0E7
S3150000F7F01AE0294308BF06A815D0054214D0BDF863
S3150000F800180000F0BAFF8DF80000FF2804BF0020A2
S3150000F8108DF800009DF800008DF80C00BDF818006A
S3150000F820ADF80E0003A80290FE20FFF7C1FDDDE94A
S3150000F83001010A4601462046FEF7AAFDFFF7EAFD4A
S3150000F84007B030BDF8B5794E754D0446307868700E
S3150000F85000270DE0FFF7ACFDE8694169FFB244F807
S3150000F860371004EBC701C07E08717F1CFFF7D2FD7D
S3150000F8703178F8B28842EDD3F1BDF8B504460025DB
S3150000F880674E0DE02846FFF793FDF06954F83710F0
S3150000F89041616D1C04EBC7010979C176FFF7BAFD1A
S3150000F8A06249707809788142EDB238BF08462F4622
S3150000F8B08742E7DBF1BD38B5FFF7D0FD5B4A584B11
S3150000F8C01278002100E0491CCCB294420ED29C78FA
S3150000F8D0C9B20C1994FBF2F502FB1544E4B21C44C0
S3150000F8E02579854202D0FF2DEDD1207131BD70B54D
S3150000F8F04B4C4E4EA0783178204405798D4203D387
S3150000F90040F22921FFF736FEA0782218FF21117157
S3150000F910401C317890FBF1F201FB1200A0702846E2
S3150000F92070BD3F48817808440079FF2801D0012046
S3150000F93070470020704710B5FFF7FEFE70B1384CD7
S3150000F940E069007B042809D11420FFF7FEFE04F1CC
S3150000F9500800BDE8104064210AF0A2BEBDE81040D0
S3150000F96001F020BD80B52E49002008721420FFF753
S3150000F970FBFEFFF71DFD01F015FDBDE8014049E561
S3150000F9802DE9F8438146FFF769FDB9F1040F0FF23F
S3150000F990C0082B4C224F2B4D2B4E35D8DFE809F0F3
S3150000F9A0030A0A1B1B00F86900F128010020086001
S3150000F9B0886030E0FFF7C0FE20B14FF41871404672
S3150000F9C001F02AF8F869316840F8281F216881603B
S3150000F9D0297801711FE02A783568F9690E2313FB2F
S3150000F9E002F6354413FB00F32B4441F8283F236805
S3150000F9F003EB8202154B1B7802EB830202EB8000BD
S3150000FA0088600120087106E04046BDE8F44340F2F4
S3150000FA10712101F001B8BDE8F1830000D464002033
S3150000FA20F0760020CB6700200D7C0020C167002007
S3150000FA30F1670020F0670020147700201C77002073
S3150000FA40DC640020C2670020D8640020BC67002068
S3150000FA50656D6265722D6D756C74692D6E65747752
S3150000FA606F726B2E63000000012070470120704703
S3150000FA700020704780B57020F7F79FFFBDE8024071
S3150000FA800020F7F79ABF7020F7F797BF70B582B0DE
S3150000FA900446FFF789F80546A879E9790818400071
S3150000FAA000F10806FFF7FBFC400040F001008DF86E
S3150000FAB00000FF222B780021002000F0B7F8FF2875
S3150000FAC00BD178480068005DF6B2B04205D101223C
S3150000FAD069462046FFF7EEF908B1002076BD2146BB
S3150000FAE07148FFF7A2FB71480178491C0170204656
S3150000FAF0FFF7C2F8012076BD10B50446FFF7F7FC04
S3150000FB00024623460121012000F090F8FF2804D088
S3150000FB10BDE810400021FFF764BA10BD38B50446B1
S3150000FB200D46FFF7E4FC00F055F8FF2801D1002050
S3150000FB3032BDFFF739F80446601CFCF735FF288014
S3150000FB40E01CFCF731FF688060792871A079687144
S3150000FB50E079A871012032BD38B5044615460B463A
S3150000FB60FF220021002000F061F8FF2801D1362095
S3150000FB7032BD4C4A1268115C491EC9B2FFF70BFA36
S3150000FB8024B1297801F00701017001E0007828808E
S3150000FB90002032BDF8B504460D461646FFF7A7FC11
S3150000FBA000F018F808270446FF2C02D14FF6FF7024
S3150000FBB0F2BDFEF7F9FF012D04D18079400000F176
S3150000FBC00807FFB207EB4600C1B22046BDE8F44085
S3150000FBD0FFF7C2BA024623460121002026E02DE99E
S3150000FBE0FC410D4604466946FFF798FFD8B100264A
S3150000FBF001E0012E02D09DF8058001E09DF8068007
S3150000FC00002700E07F1CFFB2474508DA3A46314636
S3150000FC102046FFF7BFFF8542F4D1012004E0761CA1
S3150000FC20F6B2022EE5DB0020BDE8F6812DE9F84F9D
S3150000FC3082461D4800780025FF280C4691469846C6
S3150000FC402CD01B4F396811F800B05E465FEA0A00F7
S3150000FC5011BF284600213046FFF7C3F9404517D1AA
S3150000FC6010480068805D411EC9B23046FFF7B9F9F9
S3150000FC7000F0010181F001010C420FD1B9F1FF0F33
S3150000FC801EBF400800F00300814507D1304606E05C
S3150000FC903868865D6D1C5E45EDB2D7D1FF20BDE8A4
S3150000FCA0F28F00009C64002004670020257C002061
S3150000FCB0A864002000E000BF3820F7F77EBEFBE70F
S3150000FCC0704711F06EB910B50446052111200EF0EB
S3150000FCD0A5FC0022002102200EF07CFD1848194ADE
S3150000FCE001686FF3D321016002EAC422016811435F
S3150000FCF001600122012102200EF06CFDBDE81040DA
S3150000FD00042111200EF08ABC0D4800680003C00DC6
S3150000FD10704738B50C480C4601884FF6FF75ADF8AC
S3150000FD20005002237F22684600F087FFBDF80000DE
S3150000FD30A84202D02080012032BD002032BD000042
S3150000FD4030400E4000F80F0080F402000B000AD08D
S3150000FD50012A06D007D3032A02D004D2090200E002
S3150000FD6009040AF09DBC00210170704738B50C46A5
S3150000FD700178154679B10AF0A0FCB0F5803F38BF8E
S3150000FD80012106D3000AB0F5803F32BF0221000AE6
S3150000FD9003212970208031BD10B50446094800EBC7
S3150000FDA0C40082B0827981880068FFF7CFFF0F20F8
S3150000FDB08DF800008DF801400221684606F02DFFFF
S3150000FDC013BD0000C86600200020E5E70120E3E738
S3150000FDD010B50446F7F7D8FD04B140000B49097881
S3150000FDE0062901DAFF2010BDC1B221B9BDE81040D5
S3150000FDF00020FEF7B1BF0648064A00681268BDE853
S3150000FE001040801AC0B2FEF7FBB900BFBA670020E7
S3150000FE1040720020E869002070B511F0F4F9AD4C8D
S3150000FE202046FFF761FAD8B92046FFF713FAFF28F4
S3150000FE30044615D0A8490968085C851EE9B2204623
S3150000FE40FFF78AF90646E9B22046FFF783F821460E
S3150000FE50304600F0ECF82046BDE87040FEF71ABFC9
S3150000FE6070BD03460A4699A10420FFE70CB480B58D
S3150000FE7002AA00F031F801BC5DF80CFB0A0003D0C1
S3150000FE80034693A11120F1E7704700B587B00FF044
S3150000FE9013FD00210591049102466221039100237E
S3150000FEA000210291019101208C4900910FF23C2121
S3150000FEB0FFF7DCFF8A488179C3788278039101884D
S3150000FEC00291417901910179009142200FF2282196
S3150000FED0FFF7CCFF07B000BD2DE9F04F85B0054612
S3150000FEE00C46904606F045FE0026F8B911F014F9C6
S3150000FEF0E0B10120FEF763FE8246BAF1FF0F15D08E
S3150000FF000021FEF757FE294601A811F00BF9054618
S3150000FF109CB900F087F830B9504611F06BF910B172
S3150000FF20042006F022FE5046FEF7B4FE05B0BDE8FA
S3150000FF30F08F8DF804200125641C20780100E8D09C
S3150000FF40A0F130010A2905D20A2101FB0600A0F121
S3150000FF503006F1E700F066F80028E4D122780025A3
S3150000FF60422A01A80ED0442A1AD0462A25D0572A5A
S3150000FF700DD0622A3AD0662A2AD06C2A25D0702A59
S3150000FF8026D0D6E758F8040B8DF80400D3E758F8C6
S3150000FF90041B8DF8041002250904090E4170CBE7F5
S3150000FFA058F8041B8DF804100A0A427004250A0C3E
S3150000FFB08270080E8DF80700BEE758F8041B5046FD
S3150000FFC0FEF77AFF0028B7D0ADE758F8046BB3E721
S3150000FFD0012358F8041B662A08BF0223F2B25046D2
S3150000FFE0FEF749FF002808BF0026ECE73A4858F814
S3150000FFF0047B006810F80A90FFB2FF2F9CD010F81F
S3150001000007B00BEB0901C9B25046FEF7A3FF002862
S3150001001089D1CDF800B000233A4649465046FFF74C
S31500010020D0F889E72A4601A95046FEF743BF2DE9D4
S31500010030F043122885B080460D4609D03A281FD0D4
S315000100404FF6FE71884204BF28460AF05CFD36E091
S315000100502148244F0068465D0BE02846FEF7A4FDC3
S315000100600146224600200FF0D7FF3868455D203E45
S31500010070F6B2FF2D23D0212EACBF20243446ECE767
S3150001008000F0F4FA8146FDF779FC0646FCF7FEFF1F
S315000100900746FCF7F7FF0446FDF76CFC02460F48DE
S315000100A00FF25C010390CDF8109023460E480068CC
S315000100B040880290019600973B20FFF7D7FE29461C
S315000100C0404605B0BDE8F04306F055BD5746000071
S315000100D06C700000E46600209C640020807500209E
S315000100E018F00200A46400200C7700204242387008
S315000100F04242424257424200424242425742000075
S3150001010057424257573870420000000010B5142874
S3150001011001DBFF2010BD082802D10EF075F803E0BF
S315000101200E2804D109F0DAFD78B1802010BD0FF256
S315000101301C0151F8201009B9002010BD0C780A28BD
S3150001014002D1FEF7F9F90443204610BD14F002006E
S3150001015008F002000EF002000CF0020007F00200A7
S315000101600000000009F0020016F002000000000085
S315000101700DF0020012F0020090F4020010F00200ED
S315000101800BF002000000000015F0020011F0020061
S3150001019013F0020017F002000FF0020010B50AF08A
S315000101A0B1FC10F067FF1020FFF7B0FF0006DFF883
S315000101B0B0420FD50020FFF7A9FF00060AD56068F7
S315000101C0800717D52068800714D500F013FD0100BC
S315000101D012D010BD1020FFF799FF0006F5D40020BC
S315000101E0FFF794FF0006F0D56068C00702D52068C6
S315000101F08007EAD4B02010BD0FF05BFB0120FDF7AC
S315000102007FFA11F043F8F7F74FFB01F009FCFFF70E
S315000102103CFE0FF288200AF0D2FADFF84812087085
S31500010220FFF77EF811F042F807F0C4FC0DF0F2FF7B
S3150001023009F05AFDFBF7B8FF002010BD2DE9F04784
S3150001024005F060FC05F0E1F90020FDF7FBFD0FF07C
S315000102506FF9DFF814824046FFF746F808B908F04F
S3150001026013F8DFF808924846FFF73EF808B9F8F7A1
S31500010270BDF80BF015FA0BF0F5FBDFF8E861DFF8D6
S31500010280F0513078DFF8ECA10AF081FA0BF0B8FDF5
S315000102900027002409E0FFF78BF82868007B042873
S315000102A008BF0127FFF7B6F8641C9AF80010E0B200
S315000102B08842F0D3002F1EBFDFF8BC01007800286A
S315000102C005D000F02AF8102808BF09F0FFFDFFF756
S315000102D0A3FD09F012FD0DF0A8FF074610F0E0FF9F
S315000102E068B14046FFF700F848B14846FEF7FCFF03
S315000102F028B109F000FD10B130780AF082FA3846CB
S315000103000DF099FFFFF7BEF818B940F2AB1100F0F6
S3150001031042F8BDE8F047FFF7D3BCF8B510F0C4FFCB
S3150001032030B10CF054F800F0010080F0010400E057
S315000103300124FDF75CF900280CBF0425002510F007
S31500010340AFFF48B14848FEF7CFFF28B14748FEF74F
S31500010350CBFF08B1002000E002204849097801B12D
S315000103602021454A127802B11022454B1B7803B170
S315000103704023444E36780EB14FF40076424F3F7813
S315000103800FB14FF480672C432043084310431843B1
S3150001039030433843F2BD0FF2F40000F03DBB38B5EF
S315000103A0044633480068007B032818BF04280BD095
S315000103B0204602F0F4F84FF6FF75A84204BF204626
S315000103C004F0ABFCA84204D12046BDE8324001F05E
S315000103D01EBC32BD70B504464FF6F87084420D4618
S315000103E001DB012070BD2000214E07D13068007D60
S315000103F0800703D42846FAF70AFAB8B93068428862
S31500010400944205D1011D0822284600F099FA0DE013
S31500010410007B032818BF04280AD0204610F056FF97
S31500010420FF2805D0294610F075FF08B1002070BDE0
S315000104302946204601F02CFC401E8041C00F70BDAC
S315000104400B480068008A70470949096808827047A5
S3150001045007480068408A704705490968488270471D
S31500010460E881E00F227C002024670020C46600207A
S315000104700C770020C16700203C7300202C740020FB
S31500010480A0730020B8780020C87800207A696762D6
S3150001049065652D737461636B2E630000CC77002054
S315000104A02FF70100607800208911010038770020BC
S315000104B031BA01006074002025B10100F0770020F7
S315000104C041C50100087900205B4C0200007800203C
S315000104D0592C02002C740020719A00003C740020F3
S315000104E02D9B00003C730020C99E0100247400204E
S315000104F0D19000001074002069370100187800209F
S31500010500E91F0100FC78002021390200187400203F
S31500010510DB520100707800209D47020080730020A5
S31500010520F3AA0000E0780020DBC10100A0730020DF
S31500010530EDBB00001477002011F60000B87800200A
S315000105405BAD0100D0780020F1AD0100C878002034
S31500010550A7AD0100EC7400207D2E010094740020EB
S315000105607F980100D874002049650100AC7800200D
S3150001057075BD0100E0740020AF62010050740020D7
S315000105808FA50000BC740020695F0100D4770020AC
S315000105909DF201006878002057180100F8760020C6
S315000105A065F90000000000000000000000210FF2C4
S315000105B0EC12535C834201D101207047491CC9B238
S315000105C00829F6D30020704700210FF2D812535C98
S315000105D0834201D101207047491CC9B20829F6D3CB
S315000105E0002070476A48006840887047684800687C
S315000105F0001D704766480068C07E704764490968F7
S31500010600C876704738B5624D624C2968487302282E
S31500010610614915D12868007B04281CBF08460AF0E9
S3150001062035F82868007B03281EBF042820460AF0F7
S315000106302DF828684069C00054BF9024BC2405E009
S31500010640002008702070912410F03EFE2046FBF732
S315000106507DF850B9234613224CA1032006F086FAF1
S315000106602046BDE83240FFF792B831BD48480068E0
S31500010670407B00F00F00704745480068407B00F062
S315000106800F00022801D1012070470020704738B5BC
S315000106900446FFF7F1FF3E4D28B92868407B032841
S315000106A001D0932032BDFFF7D3FE20812868C07B9D
S315000106B0A0722868807BE0722046F9F7D6FE0020FA
S315000106C0207304F1140104F1100001F0BEFBE08176
S315000106D0002032BD70B52E4D2E680C46FFF7CCFFBB
S315000106E020B9707B032801D0932070BDF07B207068
S315000106F02868807BFCF72FFC60702868807B00F0FF
S315000107001F00A070002070BD10B5002300E05B1C27
S31500010710DCB28C4205D210F8014B9442F7D000208E
S3150001072010BD012010BD80B50821FCF751FB08B1B1
S31500010730002002BDA52002BD15480068407B0128A6
S315000107401CBF3128332801D1012070470020704792
S3150001075010B50446FCF7A9FC010002D10C49096851
S31500010760CC7310BD0A48006890F90F00704708481D
S315000107700068807B70470120704705480068807BD0
S31500010780400918BF012070470000000042420000E6
S315000107900C770020707800201874002000010203F5
S315000107A004051D200203040508090A0B38207047B9
S315000107B03820704738207047382070471C48008A17
S315000107C040F6A731884201D10020704701207047C9
S315000107D010B50446FFF7F2FF30B140F62800006875
S315000107E08069C00205D40BE01148008B000A01287C
S315000107F006D1012C12BF002C40F2022010F0ACFAF7
S31500010800012010BD80B5FFF7D9FF28B140F62800B9
S3150001081000688068000C02BD0548008B000A0128AB
S3150001082003D1BDE8014010F051BE4FF6FF7002BD85
S3150001083000000000890001EB401000F184400260D5
S31500010840704710B54A688B68CC6809680160026018
S315000108500360046010BD38B5102A04460D460ED15A
S3150001086001220021FFF7E6FF4FF488700444294670
S315000108702046FFF7E6FF05F11001204606E00022BB
S315000108800021FFF7D7FF294604F12400BDE83440D3
S31500010890D7E710B500F006F82146BDE8104008225A
S315000108A02448D8E70446012123480DF073BD10B54D
S315000108B0FFF7F8FF2148016821600168616001685E
S315000108C0A1600068E06010BD70471FB50446684628
S315000108D0FFF7EDFF6946204600F001F81FBD30B570
S315000108E004460D4683B0FFF7DEFF01200190009517
S315000108F01023224621460F4810F059FE37BD70B528
S3150001090004460D4686B001210B480A4E0DF042FD04
S315000109102A4602A9304610F034FE00200190102329
S3150001092002A8009022462146304610F040FE06B04D
S3150001093070BD000000000F400015080024000F40A4
S31500010940814233D210441144401E491E10E011F871
S31500010950013900F80139121F11F8013900F801397E
S3150001096011F8013900F8013911F8013900F8013996
S3150001097092B2042AEBDA93B2002B1EBF11F80139A9
S3150001098000F80139521EF6D1704711F8013B00F803
S31500010990013B121F11F8013B00F8013B11F8013B25
S315000109A000F8013B11F8013B00F8013B92B2042A21
S315000109B0EBDA93B2002B1EBF11F8013B00F8013BA5
S315000109C0521EF6D17047130003D00A46194610F09D
S315000109D03BBE704710B500E0521E93B223B100F042
S315000109E012F8F9D0181B10BD002010BD10B500E09B
S315000109F0521E93B22BB100F006F8F9D0181B40B283
S31500010A0010BD002010BD10F8013B11F8014BA342A7
S31500010A107047000042DE704738B504460D46FCF7C4
S31500010A2007FD10F060FE10F07FFE29462046FFF715
S31500010A3018FA29462046BDE83440EBE764482DE91B
S31500010A40F047644D01682E1D4FF420687165016AF7
S31500010A50B16561490A68F26549683166416A71663C
S31500010A60816AB166C16AF166016B3167806B706735
S31500010A7096F8340040074CBFF46BB46B10F003FAE0
S31500010A800022F2648442554A014624BFA2F1200A9B
S31500010A90A2452746316505F19003DFF844C1DFF829
S31500010AA044E118D3A0693064E4697464746DC4F3D5
S31500010AB00804062C13D1704511D360450FD2008866
S31500010AC04DF64264A0420AD13068586040F201787E
S31500010AD07068986003E000273764776407464248E8
S31500010AE0814202D2014600E0091D0846904203D226
S31500010AF00C68B4F1CD3FF7D03C49081AB064002127
S31500010B00002005EB8004401C0628E167F9D300208C
S31500010B1003E0C0B205EB8004E167974223D252F8A5
S31500010B20041D7145F9D36145F7D2CC07F5D50024EB
S31500010B3005EB8409D9F87C90894502D0641C062C02
S31500010B40F6D3062CE9D1002814BF401E0520E0E7A4
S31500010B50B16F002405EB8402641CD2F88070D7675C
S31500010B60052CF7D319600146481EC9B20029EFD1F9
S31500010B70706DC0F30800032810D0042811D0052891
S31500010B8012D0062813D00C2817D0122818D11848CD
S31500010B900068800719D540F2025816E040F6012890
S31500010BA013E040F6022810E040F603280DE0B8F500
S31500010BB0206F0AD140F6042807E040F6052804E034
S31500010BC018B1322838BF40F607284046BDE8F087FD
S31500010BD004ED00E00000002000E300E04061002099
S31500010BE0A2DB0200B44400009C000020406100200A
S31500010BF01C20054010B5DFF824410120207082B089
S31500010C00002010F095FD38B1002010F091FD18B1CB
S31500010C1000202070492016BD02237F22002168464C
S31500010C2000F00BF8BDF80000B0F57F7F03D000207F
S31500010C302070072016BD002016BD10B5FF2908DC5F
S31500010C40DFF8D840247844B1BDE81040C9B211F0AC
S31500010C50AFB9BDE8104000F0A9B810BD38B5FF29FD
S31500010C6004460ADCDFF8B400007840B3204601B040
S31500010C70BDE83040C9B211F0CFB900257F2A08BFBF
S31500010C80002212FB03F001F47043C1F30B02B3F52A
S31500010C90805F08BF42F07E6108D001F47041B1F572
S31500010CA0405F05D142F07C6141F40111451805E030
S31500010CB040F28D110FF26800FFF7AEFE256031BDDF
S31500010CC02DE9F0410546FF2D0E461746984615DCDF
S31500010CD0124C2078C0B1607828B14FF4CE710FF272
S31500010CE04000FFF799FE01206070434632463946BF
S31500010CF0E8B211F0C3FC0020607005E042463946B7
S31500010D00BDE8F04100F075B8BDE8F0810349097806
S31500010D10002918BF11F00ABE70470000857B00202C
S31500010D20746F6B656E2E630038B50C4611461A4614
S31500010D307F2908BF002141F2F0139C4218D1554981
S31500010D400B6849680024D5B27DB30355641C1B0AA0
S31500010D50521EE4B2042CF6D3E4B2082C25D2D3B247
S31500010D60002B1FBF0155090A521E641CF4D131BD67
S31500010D7004F47045C4F30B03B5F5805F11FB02F172
S31500010D8008BF43F07E630BD0B5F5005F1CBF04F4CA
S31500010D907044B4F5405F08D143F07C6343F401131A
S31500010DA0C918BDE83840FFF7CBBD31BD70B51E008F
S31500010DB0044615461CD04BF23460814212D1092EED
S31500010DC028BF082633467F2241F202012046FFF75B
S31500010DD0ABFF32460FF2D8012046FFF7FBFD38B9CB
S31500010DE041F2F01133462A462046BDE870409BE7A2
S31500010DF070BD2DE9F84307460024F80788461546D5
S31500010E006FF00F060FF29C0902D5652100F046F836
S31500010E10E80702D5662100F041F807F47041B1F503
S31500010E20805FC7F30B000CD140F07E64B4F17E6F96
S31500010E30264604D32819401E1749884210D36B2130
S31500010E400CE0B1F5005F18BFB1F5405F05D140F088
S31500010E507C6444F40114264602E0722100F01EF877
S31500010E60002706E0F05DFF2802D07C2100F016F88D
S31500010E707F1CAF42F6D36A084146204611F098FE20
S31500010E8028B14846BDE8F4438521FFF7C5BDBDE855
S31500010E90F1830000F081E00F0008E00F4846FFF7FC
S31500010EA0BBBD00006D66672D746F6B656E2E6300AA
S31500010EB0FFFFFFFFFFFFFFFF38B5DFF8B049DFF89F
S31500010EC0B0590020E0602074FF2060760AF073FFBD
S31500010ED028700EF067FA01206076207C40F002004F
S31500010EE02074281D09F0D2FB002032BD2DE9FE4FEA
S31500010EF081460D46144609F0FAFC8DF80600DFF826
S31500010F00747938689DF8061010F80900DFF85C89D5
S31500010F10401A8DF80500484609F008FD00F00C005E
S31500010F2004280CBF012600264846FDF7E9FE8DF888
S31500010F300400FF280EBF4FF0000B396811F800B00E
S31500010F40002002908246FF2088F818006F1CDFF807
S31500010F5028090068007B032818BF042802D10AF07B
S31500010F6044FF31E0484609F0E1FC0C21084218D162
S31500010F705CB3484609F0C5FCFBF716FD82464FF403
S31500010F8040411AEA010F07D05FEA8A5004D5DFF81B
S31500010F90EC080AF0F0FE17E0DFF8DC080068C07B19
S31500010FA012E094B1484609F013FDB0F5406F48468A
S31500010FB004D109F022FD01F0F2FA01E009F02CFD5D
S31500010FC00AF0AAFB0AF0D9FE207030001DD048466F
S31500010FD009F0BEFC04464FF6FF7048F6410A84420A
S31500010FE018BF48F6610AFEF737FB0146F81CFBF706
S31500010FF0E2FC2146781DFBF7DEFCFEF728FB0146E5
S31500011000F81DFBF7D8FC09370297002000909DF8E0
S3150001101005309DF8062049463846FDF7DAFE9DF86B
S315000110200500BBF1000F074409D0002000905B4684
S315000110309DF8041000223846FDF7CBFE5F4476B1D9
S31500011040484609F05EFC407880072FD5029868B3C0
S31500011050391A4A46C9B207F008F8074426E0A878C3
S31500011060697801EB002080B2C10901F0010181F02C
S3150001107001064FF67F7101EA000A0AF0070003280C
S315000110800CD1694648460AF061FE681C09F084FCE9
S315000110909DF8001008182844407805E0DFF8E007BD
S315000110A00078092802D1072088F8180048460AF076
S315000110B03DFC08B14AF0100A5146681CFBF77BFC5F
S315000110C01AF0070F05D1DFF8A8070178491C01704E
S315000110D005E0DFF8A4070068017E491C0176781B4C
S315000110E0E970401C2870781B7F2802DBE92100F09B
S315000110F02FFB3046BDE8FE8F70B5DFF870670446FA
S31500011100F0680D4608B1002070BD0EF028FB48B10D
S31500011110307C002804BF307A002803D115B1A047DE
S31500011120012070BD307CF46040F004003074DFF8BB
S31500011130540709F0ABFA022070BD0121DCE790E00B
S3150001114038B50446DFF82407007E0D46811F0129C4
S3150001115003D821460AF0E7F878B9284609F0EBFBEF
S31500011160FEF726F9214628460AF008FC18B9214659
S31500011170284607F0C9FCFEF74DF92846FDF78AFD1A
S31500011180BDE8314009F0C7BCDFF8E416002008715C
S315000111906BE080B500F047FB70B1DFF8D40600794B
S315000111A0002801BFDFF8C406017C0F22114203D1DA
S315000111B0007A08B9012002BD002002BDF8B5044637
S315000111C0DFF8C4060078002802BFDFF8A066F068E1
S315000111D000280D4626D1DFF8A80600780B2818BF8F
S315000111E0022D1FD10DF021F8327A082A074617DAA7
S315000111F0012D08BFB45404D03146701CFFF7A0FB83
S315000112003470307A401C307238460DF014F820469E
S31500011210FDF732FDDFF86C0609F038FA0120F2BD60
S315000112200DF009F80020F2BD38B504460CF0FDFFBB
S315000112300546DFF83806017A69B101782170017A2D
S315000112404A1E0272411CD2B2FFF77AFB28460CF005
S31500011250F2FF012032BD28460CF0EDFF002032BD21
S3150001126000BFDFF8200609F011BA70B582B00EF0A2
S3150001127076FA002800F09580DFF8F045207C80079B
S3150001128006D5607E0EF071FA207C00F0FD00207418
S31500011290207CC00702D4FEF744FBA0B1207C00F0FD
S315000112A0FE002074FEF723FBFEF782F806F037F9FD
S315000112B08DF8000009F03FFBFEF78BF9002850D0AE
S315000112C00420207652E06846FFF7AEFF0028DFF8DB
S315000112D0B05553D09DF8000009F028FB012400F019
S315000112E00C000C2824D19DF8000009F00AFB0646E3
S315000112F09DF800000DF101010AF028FD304609F0C4
S315000113004BFB9DF801100818811D9DF80000C9B21C
S31500011310FDF767FE2978072902D1062808D106E0DC
S3150001132001291CBF0529092902D1072800D100245A
S315000113309DF8000009F0FAFA00F00C00082804D123
S315000113402878092814BF032800249DF8000009F015
S31500011350F2FA0546FEF72CF81CB12846FEF739F9D4
S3150001136020B99DF800000EF03BF904E09DF800104D
S315000113704120FFF7E5FEFEF74DF873BD28780B28EF
S3150001138002D111F081FC60B9207C410707D5E168E3
S31500011390002200F0FB00E2602074884773BDFEF76F
S315000113A037F973BD80B5FEF786FADFF8C004017C14
S315000113B041F001010174DFF8CC04BDE8024009F0F7
S315000113C065B9DFF8A804017C01F0FE0101747047DC
S315000113D02DE9F04FDFF89C94A5B0044602A8002140
S315000113E0C0E9001102AE2046FDF7DEFB08230578B1
S315000113F08178407800EB0127002000902146D9F83A
S315000114000000005DA0F10802D2B202A8FDF7E1FCDE
S31500011410707800F00F00FDF7CBFFDFF86C04007861
S31500011420BFB2A84620B3DFF86474386800281ED01E
S31500011430F078FBF79DFE4146FBF79BFE804696F949
S31500011440026004A880210AF0C7FC002000906B1CF2
S31500011450DBB20022214604A8FDF7BBFCFEF71DF80E
S315000114603B683246414604A89847FDF7D3FFA8E0FA
S3150001147007F007000228FAD0FF208DF80400204665
S31500011480FDF792FB00F1010A504609F085FA834601
S31500011490A5EB0B00851E6DB2002DE8D401208DF859
S315000114A000006B4601222146002009F02EFB9DF823
S315000114B0000000281DD0B80506D507F0070003284F
S315000114C018BF17F0070F10D101A9504602F052FCC0
S315000114D0002876D107F0070001280BD19DF80400FA
S315000114E00AEB0B0107F09EFE20B99DF80400FDF7FB
S315000114F0D1FB66E09DF80400D9F800100F5CDFF817
S31500011500901309680C54D9F80000005D00F1200120
S315000115109DF80400C9B2FDF74DFB9DF8040009F0E2
S3150001152005FA00F00C0004281CBF5D444FF0000BC7
S3150001153068B280B200900BF101039DF804009BB2E2
S3150001154022463946FDF73DFEE9199DF80400C9B268
S31500011550FDF700FDCF497078097800F00F00884249
S3150001156003DB4FF4257100F0F3F89DF8040009F050
S31500011570D8F97178C0F30D0040EA81319DF8040075
S3150001158089B209F0D0F9F078FBF7F2FD4146FBF795
S31500011590F0FD02469DF80400032109F09BF9B2789B
S315000115A09DF80400042109F095F99DF808209DF89D
S315000115B00400052109F08EF99DF80440204600F04B
S315000115C008F82046FDF766FBFDF724FF25B0BDE8C8
S315000115D0F08F2DE9F8430446FF2C03D140F2BD21DB
S315000115E000F0B6F800F0B9F800F0B6F800F00C001B
S315000115F008284DD005F00C000C287CD1204609F0B6
S3150001160080F90646FBF7D0F96946804620460AF07E
S315000116109DFB002808F44C453FD0204609F067F9A8
S315000116200746304609F0B8F99DF80010C0190918A7
S31500011630C9B22046FDF7D5FC07464FF4406018EACB
S31500011640000F4FF6FF7906D0F01CFBF7ADF94845C0
S3150001165008BF45F0400508F44060B0F5006F06D1BB
S31500011660701DFBF7A1F9484508BF45F010059DF827
S315000116700000002818BF072F68D1012F4CF6500033
S3150001168028D0022F29D0042F08D0062F31D0072FBA
S3150001169031D0082F28D07C2F22D057E0B5F5484FFE
S315000116A018BFB5F5084F05D0B5F54C4F18BFB5F5C0
S315000116B00C4F4BD120460AF0BFF8E0B1280403D500
S315000116C0204609F0DDF98146002249460220FEF74F
S315000116D073F83BE0B5F5484F0DD0B5F54C4F06E034
S315000116E0B5F54C4F07D001E04CF64040854202D09B
S315000116F02CE085422AD1204609F013F900F02CF896
S3150001170000F00C00082816D0A80614D54FF6DF7095
S3150001171000EA0501204609F006F9204609F0E7F836
S315000117200546204609F0EDF809F036F94119C9B226
S315000117302046FDF70FFC21465748FDF776FD20466A
S31500011740FDF79AFA5548007809F09AF8BDE8F18351
S315000117500FF28010FFF760B90546204609F0E6B89A
S3150001176038B50C4602460021082009F090F90546D5
S31500011770FF2D01D1012032BD2146FFF71FFD044691
S315000117802846FDF787FA84F0010032BD0121E7E71B
S31500011790364A53690BB170207047506108460DF007
S315000117A03EBF38B5314C65691DB940F27E31FFF750
S315000117B0CFFF00206061A84731BD2C494A698242AA
S315000117C003D1002048610DF035BF70474FF6FF7118
S315000117D0884200D1704780B501463148FFF7D8FFEE
S315000117E038B1BDE804404FF464710FF2E800FFF729
S315000117F013B901BD10B51D4C627E90420FD06076C3
S315000118000DF0ADFF20B1607EBDE810400DF0ADBF1B
S31500011810207C40F002002074BDE8104021E510BD97
S315000118201248407E704780B5154800780B2801D0D4
S31500011830002002BD0DF093FF00B1012002BD80B56D
S31500011840FFF7F1FF30B1FBF7D1FA18B1BDE801405E
S315000118500EF044B901BD80B5FFF7F1FFBDE80440C4
S315000118604FF4A0510F4808F01BBF0000207800205C
S315000118705C7800209C6400200C77002044740020D2
S31500011880E367002060780020566900205878002020
S31500011890A4640020C167002024670020227C002068
S315000118A039B201006878002010B5FBF7B1F804469B
S315000118B0FBF786F960B104F44030B0F5403F01D141
S315000118C0022010BDB0F5003F01D1012010BD00205E
S315000118D010BD000075707065722D6D61632E630019
S315000118E04B49097881B1002100E0491C494B1B781D
S315000118F0CAB29A4208D2484A1268C9B232F82120BD
S315000119008242F2D108467047FF2070472DE9F04127
S3150001191004463F48067830000D4608BFFF2044D0F4
S315000119202046FFF7DDFF3D4A3B491378394FFF2833
S315000119300ED13878B04202D2461C3E7008E01846F5
S3150001194000E030460E6806EB8006F678FF2EF8D1E9
S3150001195098421DD04FF0000C01E00CF1010C97F8F4
S3150001196000E05FFA8CF676450DD20E685FFA8CFCC4
S3150001197006EB8C0E9EF803808045EED106EB8006C1
S31500011980F6788EF803600E6806EB8006F370107029
S31500011990FF230A6822F8204002EB8002FF2D937094
S315000119A003D0096801EB85018870BDE8F08170B547
S315000119B0054608461649097801B3FFF791FF044623
S315000119C0FF2C1BD0FF212846FFF7A0FF0546FF2D60
S315000119D012D029460DE01048006800EB820330F86A
S315000119E022009E78FFF792FFA842214608BFFF25F5
S315000119F034462246FF2AEED1284670BDFF2070BD2F
S31500011A0000BF04480078704701480078704700001D
S31500011A10067C00202C7C0020F0640020F967002061
S31500011A20DFF8DC0300780C2110FB01F2DFF8D403A8
S31500011A30006892B2FF21FEF7C6BF70B50C46DFF80B
S31500011A40C01309788842054601D36A2070BD08F0A3
S31500011A50C4FD08B1762070BD2046FEF7A0FC4FF606
S31500011A60FF71884208BF4FF6FD700C21DFF89463C1
S31500011A704D4331684853204600F070F931682944D6
S31500011A808872FDF7EBFC042804DB2D210FF2983058
S31500011A90FEF7C2FFFDF7E2FC316829448A7A42EA81
S31500011AA0400088720822306828442146801CFEF7CF
S31500011AB047FF002070BD38B5DFF844331B789842E4
S31500011AC024D20C22CF4D12FB00F42A6811534FF693
S31500011AD0FF72914208BF08F082FDFDF7BFFCCA49BB
S31500011AE00978884204D347210FF23C30FEF794FF70
S31500011AF028682044817A01F0F1018172FDF7AEFC7C
S31500011B00296821448A7A42EA4000887231BD10B5BB
S31500011B10BB4A12780346934208460AD2B949096874
S31500011B200C246343BDE8104019440822891CFEF7C2
S31500011B3007BFBDE8104008220021FEF744BFB04AA6
S31500011B401278904205D2AF4909680C225043085ACF
S31500011B5070474FF6FF707047F8B507460C46A84D1B
S31500011B60A84E00E00C37297830680C22514308440E
S31500011B70874214D238884FF6FF718842F2D0082284
S31500011B802146B81CFEF726FF0028EBD1FDF766FCBF
S31500011B90B97AC1F342018142E4D13846F2BD00204F
S31500011BA0F2BDF8B50446F5F777FC9648944F0568FB
S31500011BB000260EE02888A04209D1FDF74FFCA97A3C
S31500011BC0C1F34201814204BF4FF6FD7028800C35F6
S31500011BD0761C3978F0B28842ECD3F1BD70B5044673
S31500011BE00D462846FFF7DDFF29462046F5F775FC29
S31500011BF084480068214605E0358008F0BEF8214694
S31500011C0006F10C00FFF7A8FF0600F5D170BD7FB500
S31500011C10044608227D49FEF7DDFE10B9FEF710FCE9
S31500011C2034E07B4D2868011D08222046FEF7D2FECE
S31500011C3010B92868408829E0002000904FF6FF750A
S31500011C400023012221462846F5F78AFDFF284FF693
S31500011C50FC7605D06F49096831F81000B04215DBF2
S31500011C6001A802F0E1F950B9BDF80400400606D515
S31500011C70082221460DF10600FEF7ACFE30B100F058
S31500011C8087F810B10088B04200DB284604B070BD69
S31500011C902DE9FF4104468846FEF7D2FB844202D174
S31500011CA008225A493EE05A4E30684288944209D188
S31500011CB000220821001DFEF727FD18B93068082209
S31500011CC0011D2FE000200090002301220021204663
S31500011CD0F5F746FDFF280AD06946F5F78EFC30B9BF
S31500011CE008220DF105014046FEF72AFE1DE0454892
S31500011CF0434E0768002501E00C376D1C3178E8B2C8
S31500011D00884214D238884FF6FC718842F4DAA04230
S31500011D10F2D1FDF7A3FBB97AC1F342018142EBD1BE
S31500011D200822B91C4046FEF70BFE012000E0002008
S31500011D3004B0BDE8F08110B50446002000F028FB90
S31500011D40FF2808D03449096831F810000006800ED2
S31500011D5000F0010010BD04F0010010BD38B50446C5
S31500011D6000F016F8002508B1857A0CE000900023F2
S31500011D70012221464FF6FF70F5F7F2FCFF2802D04B
S31500011D80264909680D5C21462846BDE83440D2E75C
S31500011D901C4800682146DFE638B504460D46F5F7CE
S31500011DA0E5FB18480068214602E0857221460C30A1
S31500011DB0FFF7D2FE0028F8D131BDF8B50446214619
S31500011DC00020F5F79DFCFF2815D11548154D06682D
S31500011DD0002701E0361D7F1C2978F8B288420CD213
S31500011DE03088A042F6D1FDF739FBF1788142F1D175
S31500011DF0B0780028EED00120F2BD0020F2BD00002F
S31500011E00C767002000650020C1670020807500209B
S31500011E100C770020F4640020B0640020F8640020F0
S31500011E20CC640020BF670020616464726573732D02
S31500011E307461626C652E6300DFF848130020087137
S31500011E404FF6FF70D0490880704730B583B004461D
S31500011E500D460823092269460120FAF7DAFE14B174
S31500011E609DF8060020700DB100982860BDF80400A9
S31500011E703EBD80B500216846FFF7E7FF9DF80000EB
S31500011E8002BD10B582B0044669460020FFF7DDFFAA
S31500011E90009A0146204600F002F8204616BD00B51C
S31500011EA083B08DF80600ADF80410009208230922CC
S31500011EB069460020FAF7ADFE07BD2DE9F04786B069
S31500011EC0804602A80021002200230EC0404601F0F0
S31500011ED09EFA0546AD48006810F80890002000906B
S31500011EE00A232A46414602A8FCF773FF9DF808001B
S31500011EF005F10A0409280CBF012500259DF80900F2
S31500011F00E021084268D16846F8F7AFFA08220DF1D8
S31500011F100A016846FEF75EFD00285DD1002D4ED010
S31500011F2000F01AF9002857D0974D28884FF6FF7A06
S31500011F3050451CBF4FF6FE7188424DD1914F9449D1
S31500011F403878001D3870C0B20978491E890081426F
S31500011F5042DA0020387009F02EFF2880264607E075
S31500011F6031464046FDF7F8F829888842F3D0B61C79
S31500011F70F6B2A9F101008642F2DB2888010018BFFA
S31500011F805045E8D0FEF764FA29888142E3D0FFF78D
S31500011F9070FF401CC0B2FFF774FF01462A880A2071
S31500011FA000F051F840B14FF47A71381D08F078FB12
S31500011FB00C20FDF7CAFB0FE0A5F800A00CE0E1B28A
S31500011FC04046FDF70EF8FFF75CFF611CC9B24046BB
S31500011FD0FDF7C2F800F080F87BE06A4801780A0054
S31500011FE01CBF491E0170704738B56649002008714B
S31500011FF00C20FDF7B9FBFDF7DBF966480068407B6D
S31500012000022818BF03281AD15F4C20884FF6FE72AA
S315000120104FF6FF7590420CBF2580A8420FD0FEF700
S315000120201BFA258000210020F8F738F99A2313229C
S3150001203053A1032004F09AFD9A20FDF7A8FBBDE801
S315000120403140FDF7E7B92DE9F04705460026092D90
S315000120500C460CBF0127002786B0914600210020BF
S31500012060FFF7F3FE8DF80850804602AD0120687037
S315000120700DF1120A0DF10A00F8F7F7F917B9AC726A
S315000120800DF1130A49465046FAF795FC0AF102008A
S315000120900FB94FF6FF7802A9431A01960096DBB2F3
S315000120A002AA6421404601F08CF90446FF2C0FD0A8
S315000120B03FB100F051F820B12046FFF7FEFE0126A0
S315000120C003E0204605F0C5FD06462046FCF7E2FD85
S315000120D0304606B0BDE8F08738B504464FF6FF75C1
S315000120E0AC4216D0FEF7B4F9844212D026480188D4
S315000120F0A9421CBF4FF6FE7291420AD104804FF4E9
S315000121007A71254808F0CCFABDE832400C20FDF77B
S315000121101CBB31BD1F480068007B042800D17047F5
S3150001212038B5194C20884FF6FF71884213D1FEF756
S315000121308FF905464FF47041174808F0B1FA0C20A3
S31500012140FDF703FB2A464FF6FE7020800021BDE80D
S315000121503840092077E731BD10B50E480068007B8D
S3150001216004280AD0FEF76CF9044600210020FFF787
S315000121706CFE844201D1012010BD002010BD00007B
S315000121804242000014780020B46700209C640020BD
S31500012190D16700200C770020187800202DE9FF4731
S315000121A00024DFF85C5606E0FDF702F909F088FA2B
S315000121B0FDF730F9641C2978E0B28842F4D3DFF8E0
S315000121C04446DFF844562078DFF84096DFF840862B
S315000121D000F040F80021FEF7F6FB22782868092175
S315000121E0FEF7F1FB002601AF2EE00B23F2B216211A
S315000121F001A8FEF722FD787A397A01EB0020D8F89A
S315000122000010F6B2B24621F81A0081B200291EBFAB
S3150001221080B24FF6FF71884204D0B97A0022304667
S3150001222000F01DF80123324619216846FEF705FD27
S315000122302968BDF8000001F80A006FF07F00D9F89F
S31500012240001001F80A00761C2178F0B28842CCD33E
S31500012250BDE8FF874200DFF8BC0500687047DFF87C
S31500012260B4351B6809074CBF0021042141F4805194
S3150001227041F0020123F810100021DFF89C351B689C
S3150001228043F820101102DFF89425126822F8101085
S31500012290704710B5DFF888150C78210008BF0124B6
S315000122A009F03AFA0146FF290DD0DFF870050268F8
S315000122B032F8113018001ABFA3EB131000EB04100B
S315000122C0200222F8110010BD70B5DFF848452468D8
S315000122D00022002302E024F813505B1CDFF824558A
S315000122E02D78AB4209DA34F813506E07F5D5012281
S315000122F00E0014BF05438543EDE7104670BD00216E
S3150001230000E0491CDFF8FC341B78CAB29A420AD2B3
S31500012310DFF800251268C9B232F811200240824264
S31500012320EFD101207047002070472DE9FE43064694
S315000123300C461546DFF8D884DFF8C89401E0EFB102
S31500012340761C99F80010F0B288421ED2D8F8000027
S31500012350F6B230F816700B23324600F09EF9002CC7
S31500012360EDD0002F1CBF4FF6FF708742E8D0082240
S3150001237069462046FEF72EFB0028E1D19DF80A00AA
S3150001238000F0EF002870304600E0FF20BDE8FE8334
S3150001239080B56A46FFF7C9FF02BDFEB504460D4684
S315000123A016461F46082231466846FEF7C9FA00F06E
S315000123B0B8F98DF80A703946089A2046FFF74FFF9B
S315000123C0FFF749FF30F8141041F4804120F814104A
S315000123D000F0ADF9DFF8300402680F211155012331
S315000123E00068021921461920FEF76AFC00F0D2F9AD
S315000123F020F814500022DFF82C0400682C304168C4
S315000124000078201841F82020304609F0B4FCDFF8A6
S31500012410FC1309680855304609F0AEFC0120FEBDE3
S315000124202DE9FC4F85B080468A4601AA4146002027
S31500012430FFF77BFF0546FF2D4FF0000BDFF8E46346
S31500012440DFF8CC7313D09DF804009DF81410884270
S3150001245002BF396831F815108A4508D002F0C1FF6C
S3150001246008B900F083F8284600F097F9FF254FF6E2
S31500012470FF79CA4512D002A95046FDF7ABFFC0B994
S315000124800022082102A8FEF73FF990B9082202A905
S315000124904046FEF79FFA60B1CA460AE0FF2D08D012
S315000124A002F09FFF08B900F061F8284600F075F9BF
S315000124B0FF259DF814108907504604D5484552D189
S315000124C003F0D9FB4FE0FF2D09D0404609F053FC3C
S315000124D0CE4909684855404609F04EFC22E0D24CE7
S315000124E0D24922780978914215D0484502D103F0A4
S315000124F0C2FB824600210020FFF74AFF0546FF2D59
S3150001250009D010989DF8143000904246514628464D
S31500012510FFF743FF08B9484625E02078401C2070A4
S31500012520F7F725FB9DF81810284600F0BAF8FCF7D6
S31500012530B4FFFDF785FF0146386830F81500012222
S31500012540F6F76AFA02F04DFF40B930682C305FFAAF
S315000125508BF241680078281841F82020FCF75AFFD1
S31500012560386830F8150007B0BDE8F08F30682C30B8
S3150001257041680078281851F820B07047A5490968C4
S3150001258000204EF6FF7305E031F810201A4021F8BD
S315000125901020401C9B4A12789042F5DB704780B5AB
S315000125A001460020FFF7F4FEFF2802D14FF6FF7027
S315000125B002BDBDE802409749096811F81010890764
S315000125C004D59349096831F8100070474FF6FF703A
S315000125D07047FEB5954A127890420C4606D28D4E4A
S315000125E03168054611F81510890701D49320FEBDFF
S315000125F000F051F89DF80A7000F048F8B80748BF96
S31500012600022003D438074CBF03200420207200F0B7
S31500012610C1F830F8150060817C480068405D607340
S31500012620306810F8150000F0010020737648006844
S31500012630405DA0730020FEBD80B509F06DF8FF284E
S3150001264008D07449096831F810000006800E00F0C0
S31500012650010002BD002002BD80B509F05DF8FF282A
S3150001266001D0012002BD002002BD10B584B00C4688
S3150001267009F052F80246FF2A05D000F00DF800F0E5
S3150001268005F8012000E0002004B010BD08226946CB
S315000126902046FEF755B902460B2316216846FEF77A
S315000126A0CCBA7FB501F001050446280026460FD0B5
S315000126B069462046FFF78DFF50B9FFF7CCFD30F88C
S315000126C016000006800E00F001016846FFF764FB64
S315000126D0204603F06EF900953346232247A10320D5
S315000126E004F044FAFCF7D9FE29462046F4F723F80C
S315000126F0FCF790FE7FBDFEB5454F04463868264679
S3150001270030F8160088420D460AD00B232246FFF701
S31500012710C4FF00F006F800F00AF8386820F81650F1
S31500012720F7BD280A8DF809008DF8085070470B236C
S315000127306A4621461620FEF7C3BA38B5044600F0AC
S3150001274029F8254630F8150018B337480178491E8F
S315000127500170F7F70CFA00212046FFF7CCFF2D494F
S315000127600968002021F815006FF07F0027490968E4
S31500012770485500202949096821F815002046F7F730
S3150001278047FFBDE8384000224FF6FF711120FDF7E3
S3150001279013B831BD1E4800687047244910B5097841
S315000127A0884204460CD2FFF7F5FF30F8140038B121
S315000127B000212046FFF775FF2046BDE81040BCE723
S315000127C010BD38B500240F4D04E00021E0B2FFF73B
S315000127D092FF641C2878E1B28142F6D3124A0021A5
S315000127E01170FFF737FDFEF7EEF828784200BDE8D5
S315000127F038400A4800680021FEF7E5B84242420027
S31500012800C1670020BC670020FC640020B86400207A
S31500012810AC640020B0640020B4640020BC640020D5
S31500012820957100200C770020267C0020CC670020C3
S31500012830008F8E8C800000002DE9F24F804690B00B
S3150001284015469DF840001E4605A900F079F9074690
S31500012850DFF8C098DFF8C0089DF814100068405CE6
S31500012860D9F80010B1F806A04988ADF80810C41BC4
S31500012870B1F5004FE4B201DAB84204DADFF89C1888
S31500012880002008708CE0300018BF4FF4A07A152C98
S31500012890B4BF631C1623002000907A1E9DF8141005
S315000128A0DBB2D2B206A8FCF794FABDF808009DF88F
S315000128B018B040F400415B4652460CA800F076FB86
S315000128C0012D14BF0120002001900DF11900009087
S315000128D03346BDF808104246504600F065F808B187
S315000128E001205EE0002D5BD1D9F800004088342834
S315000128F045D1092C54D19DF82100C82541064CBF6C
S315000129008026002600060DF1190048BF46F0200674
S3150001291000220821FDF7F8FE002738B90822DFF862
S3150001292000180DF11900FEF755F878B9DFF8F4072C
S315000129300068017B012933D04269D20104D50329FC
S3150001294011DB408880450ED101270BE00DF11900FE
S31500012950FFF725FE4FF6FF71884204D0314601F09C
S3150001296071F800B900252A46CCA1404600F02CFB9F
S31500012970B7B103224146304600F020FF10E0CDF802
S3150001298010B0CDF80CA002940DF1190001909DF83C
S3150001299014309DF8401000973246404610F080FAF8
S315000129A0002011B0BDE8F08F2DE9F14F90460FF2EE
S315000129B09072DFF86CA7994686B0D2E9003203A877
S315000129C00026C0E90032109F08000DF10C0B1ED144
S315000129D0082251463846FDF7FDFFBB4607F10805BB
S315000129E058B9FDF72DFD04462F78119806EA09011D
S315000129F028BB481E8041C00F1EE03846FFF7CFFDB9
S31500012A0004464FF6FF708442EED10126ECE7012918
S31500012A1011D17878397801EB0024BD1CFDF710FD42
S31500012A20A7B2874208BFD346DED003A9A0B2FFF7FB
S31500012A301CFE0028E8E7002007B0BDE8F08F61BB67
S31500012A40B9F1000F01D0022F27DA012F08BF002E9E
S31500012A5002D1FDF7F5FC03E0002E08BF012F03D1DB
S31500012A60FDF7EEFC0446D34695F801A00EB181228E
S31500012A7003E0022FB4BF002280220020CDF808A077
S31500012A800190A4B200945B460FF2BC610120FCF7F1
S31500012A9000FB8346BBF1FF0F01D10120CCE716B93C
S31500012AA0022F00DA67B90C215846FCF753FA5A4649
S31500012AB00021404600F088FA5846FCF7EBF8ECE7AF
S31500012AC00025DFF85476DFF86446DFF8649604E003
S31500012AD0AAF101005FFA80FA6D1C99F80010E8B2BC
S31500012AE0884223D22068EDB210F815008007F3D58D
S31500012AF0BAF1000FECD12846FFF75DFD8DF8000015
S31500012B000222000A8DF8010069465846FCF7D2F9FF
S31500012B100028D1D1BDF81800F5F719FE396811F86A
S31500012B200B10891C761C8842F6B2D5DA300008BF34
S31500012B300D21B9D032460C215846FCF757FAB6E7B3
S31500012B4038B504460D46FCF7DBF8FF2805D02046CC
S31500012B50FCF7D6F82870012004E02C70204600F01E
S31500012B60D9FC401CC0B232BD2DE9F04188B0054602
S31500012B700E46174601A93046FFF7E2FF044602A8B2
S31500012B800021002200230EC0DFF88C059DF80410F9
S31500012B900068405C9DF804100092031BDBB20B2B0E
S31500012BA0A8BF0B23224602A8FCF713F9B8464FF437
S31500012BB000403F1A012F07D91F3F3ED0BF1E012FEC
S31500012BC02FD9193F5FD067E09DF80800002863D12F
S31500012BD09DF812009DF8111001EB002408220DF159
S31500012BE0090105A8FDF7ACFE012205A9A0B203F073
S31500012BF09EF80646A0B2A8424ED0012105A8FFF7CD
S31500012C00CBF848F20100804508BF002E44D1FCF7FD
S31500012C1044FC00222946A0B2F5F7FEFEFCF7FAFBBA
S31500012C203AE048F2210080459DF808200CBF0120BA
S31500012C300020294610F06EFF2EE09DF8080058BBD3
S31500012C409DF809500FF208570026F6B2AE4223DA74
S31500012C50D7E9001205A80823C0E900120020009058
S31500012C600C2016FB0040821C9DF80410D2B205A868
S31500012C70FCF7AFF805A8FFF792FC08F04DFDFFF74A
S31500012C808CFD761CE1E7FDF7DBFB854204D022468D
S31500012C90314602A809F0A5F86CE0000031000000F9
S31500012CA03EB5154604460A4600230221684600F051
S31500012CB07DF92A46B8A1204600F086F93EBDF0B559
S31500012CC085B0164604460D461F460A9A0023012181
S31500012CD000F078F80B9800F09DF8BAA196E02DE97E
S31500012CE0F0410C46002514F0784F88B08046164610
S31500012CF01F4604D0012500230022392102E00023CA
S31500012D000022382104A800F051F900208DF81400A2
S31500012D10FF2EBDF8160040F04000ADF8160002D1B6
S31500012D20FFF7A7F809E0FE2E06D1FFF7A2F8401C2F
S31500012D30C0B2FFF7A6F800E03846230CA2B2C0B233
S31500012D4065B10093FF2E0CBF0FF20C410FF210413B
S31500012D501346039702900196012208E0FF2E0CBF4D
S31500012D600FF204410FF20841029701900096404686
S31500012D7000F02AF908B0BDE8F081F0B585B0044647
S31500012D800F4615461E4600F019F8204600F0B6F922
S31500012D901FB13846F5F7D6FA0BE0DFF88C03006968
S31500012DA0C1884FF6FF321140C1800020DFF884133D
S31500012DB0087000962B462246CFA125E000234FF44A
S31500012DC08062132101A8F1E01FB5FFF7F7FFF7F7BE
S31500012DD057FB0446FDF734FB02460094C6A1D04BCF
S31500012DE04FF6FD7000F0F0F81FBDF0B585B0044652
S31500012DF00D4616461F4600234FF480620021FFF759
S31500012E00E1FF00F007F8C0A14FF6FD7000F0DCF815
S31500012E1005B0F0BD8DF8087000962B462246704726
S31500012E2070B5C04C206882B0407B022803D1684649
S31500012E30F7F703FB08B1932076BD2068007B0128D4
S31500012E4018BF022802D1BC4D287808B9702076BD7A
S31500012E5008F0B1FF0646B44C2878E0701E20FCF756
S31500012E6074FC0F2096FBF0F0C0EB0010301A00F056
S31500012E7095F8201D07F014FC002076BD80B5AA49FF
S31500012E80002008711E20FCF76FFCFCF791FA00F098
S31500012E9004F8BDE80140FCF7BDBA2DE9F043A3B043
S31500012EA01F200024ADF80A00ADF80C40ADF808402B
S31500012EB0F7F7E6FAADF80E00ADF81040BDF80A00D6
S31500012EC0994DB0F5004F05DA2878401C287040F07E
S31500012ED0800000E000208DF8240009AEE878DFF8D4
S31500012EE05C9270704FF00208AF781CE005A9FFF7FD
S31500012EF070FBB8B9B8F1520F14DAD9F80000FFB275
S31500012F00F021C05D08420DD109A8082205A9404457
S31500012F10FDF716FD08F108005FFA80F8A878401C55
S31500012F20A870641C7F1CE978F8B28842DED37470FD
S31500012F30414609A8FBF731FF0646FF2E29D0E4B228
S31500012F404CB1002001900096FF2302AA4FF6FC71B6
S31500012F500620F5F70FF83046FBF79CFEA878E978CE
S31500012F60884211D208F027FF04461E20FCF7EDFB2C
S31500012F700F2094FBF0F0C0EB0010201A00F00EF8C1
S31500012F80281D07F08DFB04E01E20FCF7DEFB002068
S31500012F90287123B0BDE8F08332000000C0B24FF4BF
S31500012FA07A7142F2107211FB0021704710B50024AC
S31500012FB00471447141800480C28003815A490861C9
S31500012FC010BD0000323131000CB42DE9F04784B058
S31500012FD05FEA010A0CAA814608BF166803D00120E0
S31500012FE0FCF72BF80646F6B2FF2E08BF182079D05B
S31500012FF04D4C21690A794FF6F878C145ACBF0120DD
S31500013000002022B900280CBF0825092505E0002269
S3150001301000280A7114BF0625002546480778FF2FA8
S315000130200BD14888B0F5004F05DA2078401C207096
S3150001303040F0800703E00F8901E0FF210170FAB239
S3150001304000213046FBF7D2FF2269607878B1FF2074
S31500013050009001961346A089FAB24946F5F740F960
S315000130600546002060704FF6FF70A08107E00190D1
S315000130700096FF2349462846F4F77CFF0546BAF138
S31500013080000F1CBF3046FBF705FE742D29D1C14543
S3150001309027DA20694088B0F5004F22DBFDF7D0F929
S315000130A02169498848F2040291420CBF17A118A16F
S315000130B00022009203468A220120FBF7EAFF064618
S315000130C0FF2E0ED0FAB20021FBF790FF00200190EF
S315000130D00096FF2322694946F4F74CFF3046FBF779
S315000130E0D9FD284604B0BDE8F0075DF80CFB0E4893
S315000130F0007840F080007047323831000A490122D9
S315000131004A70888170470000383131003132310010
S3150001311031320000E47700209C6400201B7C0020F3
S31500013120807500200C770020E8740020B064002030
S31500013130BC670020E7670020267C0020FC64002095
S31500013140FFFFFFFFFFFFFFFF313832313100000083
S31500013150000000000000000031323231313200003F
S315000131603132323131000000323231313200000069
S3150001317032323131000000002DE9F84380460E4617
S3150001318091461C46FBF7BCFD0546FF2DDFF8C475CD
S315000131900BD0B9F1000F13D1FBF72EFFFF282070DA
S315000131A02ED13868405DA8BB2AE0386810F80800BF
S315000131B0851BFF2E08BF012023D0E8B210B9FF20DE
S315000131C020701DE05FEA09001DD047463846FBF72F
S315000131D053FDEDB200953346424600213846FBF7D2
S315000131E0F0FFB9F1000F0AD029463846FBF7B2FEC7
S315000131F0DFF864050068C15D01F07F01C1552770E4
S315000132000020BDE8F283E9B20020FBF7C6FD0746C0
S31500013210FF2FDED11820F4E738B50446DFF8340570
S315000132200068055D204600F0F2F800F10E03DBB2FE
S31500013230E91A89B20091224601462046FBF7C1FFF1
S315000132402046A5F10E01BDE83440C9B2FBF782BEA6
S3150001325038B5044607F055FB0546204607F047FBFF
S315000132606A780821D30748BF0921130744BF0831EB
S31500013270C9B2D20644BF0831C9B20818C0B232BDBC
S31500013280DFF8D0241268125C8A428041C043C00F25
S3150001329070470170090A4170801C704710B50446D9
S315000132A00822FDF74DFB04F1080010BD2DE9F04B96
S315000132B090460E46024684B099464FF6FF710420A9
S315000132C007F0E5FB0546FF2D78D007F01AFB074608
S315000132D007F06FFC48B107F02AFC06F0010181F006
S315000132E00101084218BF46F40056DFF87044206811
S315000132F0C07E10B94FF6FF50064030050CD5B9F126
S31500013300000F09D169464046FDF764F800280EBF53
S31500013310E9464FF2FF70064031463846FFF7B9FFDE
S315000133204146FFF7B6FF8346FDF78AF80146584640
S31500013330FFF7AFFFDFF8282413780C9A0146481CE3
S315000133400AB1934200D21A460A7021684A7E521C7B
S315000133504A7600F8012BF10548BF401C310544BFF0
S315000133604946FFF79BFFF10444BFDFF8F813FFF767
S3150001337095FFDFF8E04321684A5D8018C01B485578
S3150001338040F20110064218D14FF6F870804514DA62
S315000133902068475DFCF781F829464046F5F77AFB38
S315000133A0FCF738F82068405DB84206D0284607F099
S315000133B0A8FA417841F004014170284604B0BDE8FD
S315000133C0F08B70B582B01546069A1E4641F2092465
S315000133D00AB141F6092400910246079B2146FF20C6
S315000133E0FFF764FF0446FF2C09D032462946FBF756
S315000133F061FD0028204602D0FBF74CFCFF2076BD7C
S31500013400D6480168487E401C4876C0B2704738B538
S315000134100446FFF71DFF0546204607F072FA40787D
S31500013420400704D500F072F8401C05EB4005E8B2F0
S3150001343032BD41780A0701D400207047C90701D57A
S31500013440093070470830704700F108014078C2061C
S3150001345001D400207047C20748BF491C000702D5A6
S3150001346001F1080070470846704700F00302012A7F
S3150001347000F00C0101D0C00601D5022070470C29CD
S3150001348001D109207047082070470322114207D055
S3150001349000F00300022801D1032070470220704783
S315000134A000207047F8B504460D46FBF79AFD06461F
S315000134B0FFF7DBFF0746300601D43846F2BD79191E
S315000134C0C9B200F024F801463046FFF7DEFFC01905
S315000134D0C0B2F2BD70B504460D46FFF7E3FF0646DE
S315000134E000F014F880060FD57119C9B200F00FF873
S315000134F0761D00F01801F6B2082904BF761CF6B253
S31500013500800644BF0836F6B2304670BD29462046CD
S31500013510FBF767BD38B50446FFF779FF054629462F
S315000135202046FFF7D7FF4019C0B232BD2DE9F0435F
S3150001353085B007460C4607F0E4F90546F9F734FA73
S3150001354080463846FFF763FF064631463846FFF7A1
S31500013550A9FF0021009103463246394601A8FBF72F
S3150001356038FC9DF8047007F00C010C291CBF07F00C
S31500013570030101290DF1050607F00C004FF0FF09C3
S3150001358006D0F90604D49DF805100DF1060600E0F3
S31500013590FF210C28617105D13046F9F705FA208122
S315000135A0B61C01E0002020816878C00703D5A81C5D
S315000135B0F9F7FAF9208107F0030001280DD0F80682
S315000135C00BD43046F9F7F0F96080B51C2846F9F7B7
S315000135D0EBF9AE1C208016F8019B84F80490307834
S315000135E0A0720020790648BF4020B90648BF40F0C6
S315000135F020005FEA086148BF40F4007004D45FEA26
S31500013600486148BF40F480705FEAC84148BF40F452
S3150001361080605FEA085148BF40F40060E0803806E8
S3150001362015D5707810F0030011D0E288B17842F414
S315000136300042E28007F00302022A04D1F07841EA4F
S315000136400020208103E0012808BF0902218105B07D
S31500013650BDE8F0832DE9F041154686B080460C465B
S31500013660E888082C18BF0C2C064604D080045CBFE1
S3150001367006F040000143394F3868C07E10B106F0AC
S3150001368020000143300448BF41F08001032C0AD1D8
S3150001369012208DF80000B00644BF32208DF80000DC
S315000136A00DF1010025E00C2C8DF8001005D12989BA
S315000136B00DF10100FFF7EDFD04E068798DF80100D9
S315000136C00DF102006988FFF7E4FD2988FFF7E1FDA6
S315000136D0297900F8011B022C0BD0B10709D431045A
S315000136E002D52989C9B221B939688A7E531C8B76DC
S315000136F0AA72032CA97A00F8011B17D0310415D53B
S3150001370029890A0A022C01D0CBB243B102230370E4
S315000137104170801C022C09D100F8012B06E010F83B
S31500013720011CA972427001210170801C3968C97E91
S3150001373019B1A979890648BF401D6946421AD2B214
S315000137404046FBF7B7FB401E8041C00F06B0BDE8FF
S31500013750F08100009C640020A06400200C7700200A
S31500013760CD6700208075002080B5DFF8A01300200A
S3150001377008710620FBF7F8FFFBF71AFEDFF8900346
S315000137800068407B042814BF532800F066F8BDE8A2
S315000137900140FBF73FBE18B1DFF8781309880180B5
S315000137A0DFF868030078704780B517229AA10320D5
S315000137B003F0DCF9BDE8024000204AE0F8B5DFF885
S315000137C0504323685D7B2F0018BF212D05F00F069E
S315000137D008D01D7B012D01D1850603D4DFF82C53BA
S315000137E02F790FB17020F2BD2A70012EC94A1180BE
S315000137F004D12120587300F030F828E081064CBF2F
S315000138005321042159732168097B032916BF042911
S3150001381000F0200000F0A00001464FF6FD7000F018
S3150001382030F92068407B042804BF0120F6F766FDC5
S315000138300620FBF78AFF2068007B032816BF0428B1
S315000138404FF400714FF40061281D06F029FF002096
S31500013850F2BDFF224FF6FF71B0E780B506F074FAAC
S3150001386008F0C2FD08F0FBF8AB4800780B2802D03F
S3150001387007F0F9FB06E00620FBF767FF0FF20D00E4
S31500013880FDF75BFCBDE8014008F0B9BA10B50620AA
S31500013890FBF76AFFFBF78CFD9D4C2068417B5329A2
S315000138A006D10321417301200021F5F791FD29E09D
S315000138B0042918BF212925D10120F6F71FFD4FF64E
S315000138C0FE70FCF7C1FD4FF6FF70FCF7C5FD002049
S315000138D0F6F786FCF6F74BF904F099F9F8F7FDFBD4
S315000138E0012007F011FF2068407B212802D1F5F75E
S315000138F04AFB07E00020FCF785FE00214FF400405B
S31500013900F6F725FFFBF786FDBDE81040FBF780BE05
S315000139102DE9F8430E468046511CC9B23046FBF7E5
S3150001392060FB0546304606F0ECFF0646B01CF9F78B
S315000139303BF88146A809764F00F001043868417BBF
S31500013940022966D1017B032903DB4088804503D028
S3150001395022E04069C0011FD484B17078000708D500
S315000139603046FFF766FD08226C49FDF733F800285B
S3150001397002E0FCF765FD81454BD107E00329A4BFB1
S315000139804FF6F870814509DBE80907D00122414667
S3150001399005F0A000FFF712FF002C3AD13868007B32
S315000139A0032836DA7078C00633D53046FFF74CFD6A
S315000139B0064631460020FEF7EBFC0446FF2C07D0F5
S315000139C0A8065CBF204600F029F82046FEF7E5FE72
S315000139D0404601F0CDF9FF280BD001F07AFAA8068E
S315000139E007D4FCF72DFD20B102223146404600F0F6
S315000139F099FDFCF725FD60B9FBF74FFD4FF6FF7307
S31500013A00022231464046F3F7CFF8BDE8F143FBF712
S31500013A1001BDBDE8F1830000420000001CB5FEF7C0
S31500013A20CAFD04466946FEF720FE50B1FCF708FDC3
S31500013A3038B1FCF7DFFD20B102226946204600F0CD
S31500013A4071FD13BD38B504460D4607F065FE014606
S31500013A50FF2901D1012032BD2D4A1268D27E4AB119
S31500013A602F4A126832F81110490403D5FEF795FE64
S31500013A70002032BDFFF7D2FF45F040012046BDE8E8
S31500013A80344030B50446880985B000F001050420AC
S31500013A908DF808008DF80910280008D003A92046E2
S31500013AA0FEF7E3FD08B901202EE003A800E000209F
S31500013AB001900095022302AA01212046FFF781FC0D
S31500013AC00546FF2D08BF18201ED011480068017B4E
S31500013AD0032918BF042903D14188284606F049FF66
S31500013AE04FF6F870844205DB00220221284608F0D1
S31500013AF01BFC03E02146284604F074FA04462846D6
S31500013B00FBF7C8F884F0010005B030BD0C74002045
S31500013B100C770020A2670020E36700208075002053
S31500013B20B064002038B5044606F0EBFE0546204693
S31500013B30FFF76DFC411CC9B22046FBF752FA6978C2
S31500013B4009070AD52846FFF774FC01460020FEF74F
S31500013B501FFCBDE83240FEF720BE400602D4BDE898
S31500013B60314001E631BD0000F8B50446E01CF8F726
S31500013B701BFF0646601D0025F8F716FF4FF6FF7777
S31500013B80BE42044608BF012504D0FCF761FC86420B
S31500013B9008BF0225BC4208BF45F0040505D0FCF765
S31500013BA04FFC844208BF45F008052846F2BDF8B52A
S31500013BB00546F8F7F9FE06464FF6CF7000EA060706
S31500013BC02846FFF7D1FF002448F641018E4208BF7F
S31500013BD0052809D1E81DF8F7E7FEBD49098888429D
S31500013BE014BF0224062412E04CF6010087421ABFD4
S31500013BF04CF601408742012409D0FBF74EFC2846CA
S31500013C0006F085FF0546FBF705FC05B10824B1481A
S31500013C1000782040F2BD3CB50FF2CC230021D3E958
S31500013C200045CDE9004528B9AB490860002036BDFD
S31500013C30491CC9B230F811201304F5D4002300E061
S31500013C405B1CDBB23DF813402504F1D49442F7D155
S31500013C50022036BD2DE9F04F0446884683B0404622
S31500013C60F8F7A2FE9C4D8346286800260027002807
S31500013C7001BFA8680028686800284FF0030968D0CA
S31500013C804FF440611BEA010F0BD008F10300F8F76E
S31500013C908BFE4FF6FF7188420CBF022701274FF0BA
S31500013CA0050947F0080001900BF4404A5FEA4B60B2
S31500013CB015D4BAF1000F16D00BF44060B0F5406F81
S31500013CC00CBF082002204844C0B24044F8F76CFEFD
S31500013CD00090FCF7BDFB009989B2814201D1019F99
S31500013CE001E047F004070BF44040B0F5004F08BF70
S31500013CF047F0800704D0BAF1000F02D147F480776C
S31500013D00BFB20BF44060B0F5006F0BD108EB0900B0
S31500013D10F8F74AFE8046FCF793FB804508D147F049
S31500013D20100704E0B0F5406F02D147F02007BFB29B
S31500013D30002001E0002610B9A968802205E00128CB
S31500013D4007BF696840222968102231B9401C03283F
S31500013D50F0DBFF20BDE8FE8F761CF6B231F8163097
S31500013D605FEA0348F2D49F42F6D104B1227030468D
S31500013D70F0E700002DE9F04781468846F8F714FE82
S31500013D800546E80800F001074846FFF7EDFE044640
S31500013D9005F0070605F4406A4FF6F77005404F48EF
S31500013DA000780B280FD009280DD8DFE800F082052E
S31500013DB00C0C8205050A0C07002E00E0012E01D12C
S31500013DC001E0032E75D11FB3002E72D10B2801D14C
S31500013DD0A0076ED5B5F5004F1CBFB5F5624FB5F519
S31500013DE0404F66D10026E80648BF46F08006A80681
S31500013DF048BF46F4805606F00C0004285BD109F151
S31500013E000700F8F7D1FD0146FF2246F0040055E010
S31500013E10032E334F4DD8DFE806F00205032DD5E713
S31500013E203B2053E04FF6CF7000EA05064846FFF700
S31500013E30BEFE20B94946FFF70DFFFF2801D008262F
S31500013E40D1E748F64100864233D10A2C18BF062C29
S31500013E502FD160070CD5FCF70FFC18B13868007B31
S31500013E60042826D00BF091FC18BB40F60406BAE7ED
S31500013E700426B8E714F0030005D1FCF7E9FA4FF67A
S31500013E80FF71884215D10C26BAF1000F0DD0BAF593
S31500013E90006FA8D0BAF5406F0BD10822114909F17C
S31500013EA00500FCF797FD20B99DE73868007B0128DE
S31500013EB099D03A200AE0FF220021304606F0E7FDBC
S31500013EC0FF280EBF182088F800000020BDE8F08703
S31500013ED0B26700202D7C002008780020E3670020CF
S31500013EE00C77002080750020990089000080000071
S31500013EF070B5DFF8005D0446286882B02688407BED
S31500013F0008B1702076BDB00504D504F1120000F0A9
S31500013F1030FEF0B906F08600862801D1B72076BDBD
S31500013F2000F01AFE286816F4045F466120D0B0043A
S31500013F300BD5A01C0FF090FE010051D128684169F4
S31500013F4021F4005141F480714161A01C00F011FE81
S31500013F5008B1B22076BD05F0D1FE20B928684169C5
S31500013F6041F4803141612868416941F02001416194
S31500013F702868416941F40041416148064CBF04F19A
S31500013F8023020022A31C47F2FF10F6F7A9FB68469D
S31500013F9000F040F828684069C004BDF8000004D567
S31500013FA040F02000ADF8000008E04FF6DF71084050
S31500013FB0ADF8000008F0BEFE02F09BFFBDF8000060
S31500013FC000F00FF828684069800506D594F822109C
S31500013FD0012204F1120000F09BFB296800204862CF
S31500013FE076BD10B5044604F4E66001040023002200
S31500013FF04FF07F60F6F774FB23462F22ADA1032015
S3150001400002F0B4FDE00703D500213020F6F79FFB4F
S31500014010002010BDDFF8DC1B09684969090C01F4B1
S31500014020E66101800020704738B5DFF8C85B0446B9
S315000140302868407B022801D0932032BD0A22002144
S315000140402046FCF7C0FC2868406900F0FF018206A3
S3150001405048BF41F01001218080075CBFA01CF6F724
S31500014060D6FB002032BD38B504460D4608F06FFE7A
S3150001407008B9952032BD00F047FBC17E89B1406980
S31500014080010401D4A82032BD5DB110F0420F08BF72
S31500014090002C04D000F44070B0F5407F01D0B72069
S315000140A032BD002032BD00002DE9F04F8BB0044631
S315000140B0894602A8242107F08FFE2046FFF7A7F9BB
S315000140C001462046FAF78DFF0546204606F019FC03
S315000140D08046002798F80100DFF86CAB800748BFDF
S315000140E00127A80648BF47F002072046FFF712FA44
S315000140F08DF8040002ADDFF8540B00689DF804103A
S31500014100005D9DF80420431ADBB2242BA8BF2323AC
S3150001411000200090214602A8FAF75BFE68789DF818
S3150001412008600090DAF80000C07E88B100F064FDF6
S31500014130002814BF4FF4D0704FF4F070F040C00760
S3150001414006D5B80704D4082E09D10098042805D14C
S3150001415003F072FD002818BF052E03D0A7E0052E37
S31500014160F6D0A4E09DF8042000232146032006F0A2
S31500014170CCFC761F0B2E4FF6FF7BF2D8DFE806F05C
S315000141800617374E5497979797596D7300980628D7
S315000141900CDA08F10200F8F707FC0546204606F09E
S315000141A0D7FB3B4602AA294600F05AFB7FE0FCF703
S315000141B047F900287BD1DAF80000C17E002976D0C4
S315000141C0B90702D44069800171D40DF11100F8F7E5
S315000141D0EBFBDFF87C5A02462C700DF109039DF8C2
S315000141E013004946F6F7C6FEFF2028705FE0082255
S315000141F0DFF8601A0DF10900FCF7ECFB20B9022289
S315000142004946FFF7DBFA52E00DF10900FEF7C7F95F
S3150001421058454CD00021FFF715FC48E03A4602A963
S315000142204846F7F79DF842E06978012000F02DFA3B
S315000142303DE0F8073BD50DF10900FEF7B0F9584509
S3150001424004BF0DF1090000F068FD58452FD09DF817
S315000142500420214600F030F829E03A4602A94846F2
S3150001426005F0B0FA23E0DAF80000407B022808BF27
S31500014270B9F1000F1BD16846F6F7C9FAB8B1DFF8F4
S31500014280D81900200870687800280CBF65246424BA
S31500014290F6F7C7FC032806D100210020F6F716FC25
S315000142A00020F6F7C1FC21466846FBF763FA0BB01E
S315000142B0BDE8F08F425700002DE9F0478246DFF84E
S315000142C08C0900680C4688B0005D02F10905461BA1
S315000142D0F1B20020FAF761FD0746FF2F41D0012018
S315000142E000900023524608213846FEF7DFFF80463C
S315000142F0B8F1FF0F32D0E9B22046FFF7EBF881465D
S3150001430001A81C2107F068FD002000904B46EAB287
S31500014310214601A8FAF75DFD4A4601A94046FAF78A
S31500014320C9FDC0B9A6EB0906F1B23846FAF742FC57
S31500014330504607F0F1F9FF284D4400F09AF9F6B21C
S315000143400096EBB2224600213846FAF73AFF51466B
S31500014350404603F047FE4046FAF79CFC3846FAF71A
S3150001436099FC08B0BDE8F0872DE9F24F8046174663
S3150001437086B01D4600213846FAF733FE044602266A
S31500014380E808082C00F0010018BF052C8DF8040080
S315000143904FF000094FF0080B03D0062C18BF102C64
S315000143A001D168080CE000F0AFF9C07E58B100F009
S315000143B023FC002814BF4FF4D0704FF4F070E04096
S315000143C000F0010A00E0CA46FF2F6CD0E80748BF9B
S315000143D04FF4027BC82000900023424659463846D6
S315000143E0FEF764FF0746FF2F5DD09DF8040028B154
S315000143F006993846F7F729F9002851D04FF6F87093
S315000144008045ACBF09200120102C18BF0F2C8DF858
S31500014410080005D19DF8080040F040008DF808001D
S3150001442000F072F9817E4A1C8276BAF1000F8DF88E
S31500014430091006D09DF8080040F020008DF808000C
S315000144400F26324602A93846FAF734FD40BBBAF1C7
S31500014450000F1AD00021052C0BD13846FAF750FC73
S315000144600121FAF7BEFD6224C440E0074CBF1021CA
S3150001447018219DF80400002819BF0223069A41233A
S315000144800022384602F0DCFE50B9680704D54146E1
S31500014490384603F0A7FD02E0384603F0DAFB814611
S315000144A03846FAF7F7FB484607B0BDE8F08FF8B58E
S315000144B004460D46284606F0A0FADFF8947706462C
S315000144C03D70FBF7BDFF0146334622460120F6F754
S315000144D051FDFF203870F1BD7CB51C46DFF814375D
S315000144E01B681B7D00259B0701D5002076BD019227
S315000144F000900B4606220FF278710020FAF7C9FDEB
S315000145000646FF2E0CD0002C14BF0323012332468E
S3150001451000210020FFF728FF05463046FAF7BAFBCF
S31500014520284676BD2DE9F04104460D46164600277C
S31500014530F6F759FAB84618B1012300F014F8074600
S31500014540F6F751FA38B100F057FB40B100F0DCF84C
S315000145504069800103D4002300F005F8804648EA4B
S315000145600700BDE8F081324629462046B4E72DE929
S31500014570F34F9B46BBF1030F92460CBF0127002761
S31500014580BAF1000F8DB018BFD04605D101A8F6F7D4
S315000145903EF948B10DF1040823210020FAF7FDFB8D
S315000145A08146B9F1FF0F01D100205FE0FAF7FCFA6D
S315000145B004460520207084F801B0199DE80607D548
S315000145C011220021A01CFCF7FEF904F1130618E0E4
S315000145D018991022A01CFCF7B3F9622020FA0BF0FF
S315000145E0C00704F112060CD503A908A800F0A4FA25
S315000145F03046461CA9064CBF9DF81C109DF830108C
S315000146000170380008BFDDF838A00822514630464F
S31500014610FCF796F908362FB1A80900F0010006F853
S31500014620010B09E001200090321B0823D2B2494652
S315000146304046FAF7CEFB0836311BC9B24846FAF7AF
S31500014640B9FA680706D5BDF8340007F065F8FF2802
S3150001465000F00FF80E99BDF834002B464A46FFF7D5
S3150001466083FE04464846FAF715FB20460FB0BDE81F
S31500014670F08F09D0DFF8E415096831F810204BF600
S31500014680FF731A4021F81020704730B58BB00446ED
S315000146900D4600F0A0F8684600F06BFA60B99DF887
S315000146A010009DF824100A1AD2B2812A04DB2CB11B
S315000146B0A94201D0A84201D0002023E01123022201
S315000146C005A900F070F89DF810100122684600F067
S315000146D01FF80CF0BBFE01214FF40070FDF7F4FD4D
S315000146E008F022FBB0F1004F88BF08F023FBFAF770
S315000146F0D4FE00F009F890F82000F2F7D1FAFAF7A3
S3150001470089FE01200BB030BDDFF8E8040068704770
S31500014710F0B58FB005460C461646112200216846B3
S31500014720FCF751F901278DF810402DB9102200210F
S315000147306846FCF748F904E0102229466846FCF76A
S31500014740FFF8112200210AA8FCF73DF911220021E8
S3150001475005A8FCF738F905A90AA800F0EDF930001B
S3150001476014BF0AA805A811226946FCF733F900B956
S31500014770002786B1DFF87C544FB11123062200F0E1
S3150001478011F82868407B432808BF0CF0B1FD286862
S3150001479080F8204004E01FB11123022200F002F844
S315000147A00FB0F0BD69460020F8F733BA70B58AB08C
S315000147B004460D46164600F00EF8002E14BF05AE4F
S315000147C06E46102231462046FCF7BAF8307C287036
S315000147D00AB0002070BD694605A8ADE130B58BB0C1
S315000147E0044603208DF80000FBF72AFE58B1FBF7BB
S315000147F001FF40B101A8F6F70AF820B1FFF784FFDF
S31500014800007D800701D5702028E00F208DF80C006F
S31500014810082204208DF80D000DF10E00DFF8341486
S31500014820FCF78EF80DF1160301226946204608F0C1
S3150001483026FD1A2103A8FAF7B0FA0446FF2C0CD07C
S315000148400123224601A90020FFF78EFD05462046D9
S31500014850FAF720FA0DB1002000E018200BB030BDA8
S315000148602DE9FF4F551C85B015F8010B0290032861
S315000148700CBF01240024FBF7E3FD4FF0000BD846E3
S315000148800028C14653D003F0D7F9002804BF9DF88C
S31500014890200000284BD0AA46504600F06AF9064689
S315000148A00299DFF8A47362201035C84010F00100A8
S315000148B08DF8000018BF15F801BB039594B905F1F1
S315000148C00808A8B33868007D800731D5FF22082182
S315000148D04046FBF719FF58BB002342460021022040
S315000148E0F5F7FEFEFBF7ACFDBDF81810884207D1BF
S315000148F044B90398DFF85C130822FCF76BF800282B
S3150001490040F0D5800020ADF800006846FFF782FB35
S3150001491002989DF8204001285ED0032851D0042832
S3150001492005D1F6F760F8002818BF032C0FD0E7E091
S315000149304046F5F7A1FF0028D4D13868407B4328CB
S3150001494004BF02980128F2D14FF00109CAE7002EEF
S31500014950EDD1534642462021C148F5F7C1FE3968DB
S3150001496000204862BC480078A8B15046FFF736FFE0
S31500014970F6F757F902280ED10120F6F74FF9032071
S31500014980F6F752F910225146B648FBF7D9FF012135
S315000149900120F6F79BF83868417B02290BD10321E8
S315000149A04046FAF7E7FEF6F73CF9002802D1002166
S315000149B0F6F78CF8A4E04129FCD140694005F9D508
S315000149C072E0032CF6D10798817E01B1012152468E
S315000149D01230F6F785FA93E03868407B022806D153
S315000149E0F6F701F818B19DF820008007F3D538686D
S315000149F0407B41280AD036B903F01EF902465946D2
S31500014A005046FFF785FE03F017F9002878D09DF888
S31500014A10200000F00204F5F7E6FF60B1386841694D
S31500014A20090502D4407B432805D1200003D1AC20DF
S31500014A30F4F7A9F964E03868007D800704D4BDF86D
S31500014A40141000200FF085FA3868417B112913D123
S31500014A504069400510D50020F5F7CFFF00284FD15A
S31500014A60F4F7AEF9AE20F4F78EF900210020F6F73F
S31500014A702DF8F4F78CF943E00CB100F08BF8B9F19D
S31500014A80000F11D04FF080510020F5F760FE05F0C0
S31500014A9035F918B94FF48031F5F759FE3968002018
S31500014AA048624046F5F7E6FEF4F7F0F928E09DF88E
S31500014AB0000088B1BDF818004FF6F87188420BDB8B
S31500014AC0039800220821FBF71FFE28B10022594650
S31500014AD05046FFF71DFE13E00398FBF760FC4FF607
S31500014AE0FF7188420CD0002E14BF152104210191BB
S31500014AF0CDF800A04246029B0399DBB2FFF737FDD2
S31500014B0009B0BDE8F08F574868E610B58AB004468B
S31500014B10FFF761FE9DF824108C4205D105A8FBF72D
S31500014B20B8FE01200AB010BD9DF81000844208BFEE
