S02B00005A3353776974636865667233326D67317031333266323536676D343862726434313533612E73333774
S1134000C85B00209DDA0200A1E5000001B90200AE
S1134010A70A0A010042000004180FAC00629300D2
S1134020000000000000000000000000000000008C
S11340300000000040F80200000000000000000042
S11340400000000000000000FFFFFFFFFFFFFFFF74
S1134050FFFFFFFF00E0030000000000000000007D
S1134060FFFFFFFFFFFFFFFF100000000000000044
S1134070000000000000000000000000000000003C
S11340800000000000000000F17E0020F17E00200E
S1134090C85B0020A45F0300A2DD02006852002078
S10F40A0C010002000000400000000001C
S1134200C85B00209DDA0200A1E5000001B90200AC
S113421009B9020005B902000DB9020071BA020021
S113422071BA020071BA020071BA020071BA0200D6
S113423011B9020071BA020071BA02008955000076
S11342405D1A02007D8A020069660000D9860200B8
S1134250DD8A0200838A0200858A02007F8A0200C6
S113426071750200BB770200396D000027F500006C
S113427071BA020071BA02001745000071BA020057
S113428071BA0200D977020071BA020071BA020051
S113429071BA020071BA020071BA020071BA020066
S11342A071BA020071BA020071BA0200DF8A020018
S11342B0818A0200156A0000178B020071BA02009D
S11342C059DC020071BA020071BA020071BA02002C
S11342D071BA020071BA020071BA020071BA020026
S11342E07149724A01E021B1491E1369DB07FAD40E
S11342F001B9BAE0506001201060106910F0060F97
S113430005D0410700D5B3E0800700D5B3E0002015
S11343107047F0B513460022002936D0624C634D35
S11343208BB98B4231D250F8046BEE605B1C0826CB
S11343302E60264601E036B3761E2F69FF07FAD4B5
S1134340002EEED11FE0EFF3108672B600230EE0CC
S11343502F6907F01907102F08BF2F602F693F0737
S1134360F6D550F8047BEF605B1C10272F608B425E
S1134370F4D306B962B6264601E026B1761E286952
S1134380C007FAD40EB96FF002021046F0BD2DE951
S1134390F84F474F0D4639680446002041F00101AB
S11343A09B4639604FEA92088146AA4602E0B1442E
S11343B00AEB860AC14517D204EB89063046FFF79B
S11343C08FFF010022D1C6F30A00C0F50060860801
S11343D0A8EB0900B04238BF06465A46314650465B
S11343E0FFF797FF0100E2D021682A68914209D0C3
S11343F02046FFF775FF010004D15A4601212846E3
S1134400FFF787FF3968490849003960BDE8F28F32
S11344102749254A0B6843F001030B60886001209B
S113442048604869400704D50868400840000860AF
S11344301EE04869800704D5086840084000086009
S113444019E00220486001E022B1521E4869C00709
S1134450FAD422B9086840084000086005E00868FA
S1134460400840000860002070476FF00200704769
S11344704FF0FF3070476FF001007047002386E76C
S11344800B48016841F00101016046F21A31C16430
S11344904FF4807141604169C907FCD40021C164B3
S11344A00020704700000000809698000C000E4029
S11344B008000E40072802D23549085C7047FF20E7
S11344C07047072802D23349085C7047FF207047C1
S11344D038B50446304800EB8105A8780009FFF799
S11344E0E9FF2071A87800F00F00FFF7EAFF607180
S11344F0FF2814BF01200020E8702146E878A0714D
S1134500287860706878254DA070284600F0A3F8DC
S11345100120A86031BD10B5214984B01CC968468A
S11345201CC02048204A0178D36814682340DB0764
S11345302DD503292BD2184C12691C4B04EB810492
S1134540E4781CB114B2002C48BF002223F81120D7
S11345500123174A147803FA01F121431170154A13
S1134560117891B100211478CC40E40708D501708A
S11345708B401078584010706846FFF7A9FF1FBDA4
S1134580491CC9B20329EED31FBD032101701FBD0D
S113459028ED020030ED0200E46500200020004018
S11345A01CED0200887E002038200040F0650020C9
S11345B0897E00203F7E0020890001EB401000F13D
S11345C084400260704730B5002A446BDFF83451F0
S11345D01ABF1022DFF83031DFF8303123400024D5
S11345E0A84237D1DFF8280151B101290CD00229A2
S11345F01ED003290CD0062915D0812918D023E018
S113460001680468006816E001680468006802E054
S1134610416844684068090C01F4FE41C4F3034452
S11346202143000C0CE08168806801F00F0107E071
S113463041684468406801F4FE4104F00F042143DA
S113464000F0F00040EA010404FA02F0DFF8C410BC
S11346501843086030BD38B504460D460220A060FA
S11346600022A9782046FFF7AEFF287969786B7994
S1134670020242EA016242EA0342EB7842EAC302DE
S1134680EB790BB142F000522B7A0BB142F00402E9
S1134690AB790BB142F002026B7A0BB142F001022A
S11346A0AB78F32806D1180004D10429BCBF042038
S11346B060F31B6218064CBF42F0E00042EA43106C
S11346C02061154960690840A9780A0644BF21F0B1
S11346D080010843297840EA4140E97A09B140F46D
S11346E0804060610221AA7A2046FFF765FF28799D
S11346F0F32804F13000BDE838400CBF0122002249
S1134700102159E700200040FFFF00800080FFFFD8
S11347101082E00F34200040F8BFE1FF38B50446B2
S11347200D46104600F0CBF800202070A847BDE8E5
S1134730314000F0D2B8002249494A48EEE700224D
S113474049494A48EAE770B5044616460D463046DC
S113475000F0BAF8002020703046A847BDE8704049
S113476000F0BBB8012242494248ECE7022240492A
S11347704148E8E7012241494148E4E702223F4930
S11347804048E0E780B5012000F0D7F93E4800F04A
S11347906CF93E49087001BD80B500F0DFF90128CD
S11347A005D03A480078BDE8024000F046B901BDA2
S11347B030B5002400E0641C354D2D88E3B2AB42D3
S11347C00FD2E4B20C25334B15FB04F52B441D78B2
S11347D0854201BF5D888D421D799542EBD1184613
S11347E030BD002030BD80B519B900F0A5F8002017
S11347F002BDB1F1004F02D200F0A8F8F7E70220A1
S113480002BDB1F5000F3CBF0902FFF7ECBF022067
S1134810704770B504461D46FFF7CAFF06000ED068
S1134820204600F096FC50B1B0682946FFF7DBFF44
S113483028B9049870710598B071002070BD0220E9
S113484070BD1CB500931346049C01940022FFF72D
S1134850E0FF16BD80B500230093FFF7F2FF02BD11
S113486085BB010008660020C1D30000106600204B
S11348705B690200F865002000660020A56A02005A
S11348801866002020660020A4EF02008A7E002023
S1134890906300209C5D002080B5FFF789FF20B164
S11348A0806800210170002002BD022002BD0022A8
S11348B0F2E770470C490D4808600020704700B1CA
S11348C0702070470020704780B500F013F8FF286F
S11348D001D1A32002BD002002BD00207047704713
S11348E000BF034800787047CC730020AE54030027
S11348F07866002080B500F069FCFF2818BF00200E
S113490002BD002101707047007800B1012070479A
S1134910FFF769BFFFF775BF38B54478456800F005
S1134920D1FD00F09CF85B1BB3F1004F98BF5550CC
S1134930BDE8324000F0CCBD10B500F07BF86060FB
S1134940042020702046BDE81040E5E738B5044651
S11349500D4600F0D2FD281860600120207020462A
S1134960BDE83240D8E710B50446207801000CD0E9
S1134970042806D000F0C1FD6168421AB2F1004F6C
S113498001D8002010BD081A10BD4FF0FF3010BD33
S113499070B500F04FF8054600F094FD06466068D7
S11349A06FF0004100F02CF8401920603046BDE85B
S11349B0704000F08DBDF8B504460D46164600F073
S11349C09CFD002156B1FF22327007E0121AAA4260
S11349D002D2154606B13170491C083422680AB95E
S11349E02846F2BD13781F00F6D0042B04D0526879
S11349F0831AB3F1004FE9D806B131700020F2BD3B
S1134A000022D8E738B500F015F805460EE0017825
S1134A100A000AD0042904D04168691AB1F1004F90
S1134A2003D804210170616888470834206800288D
S1134A30EDD131BD044600F060BD10B5FFF7FAFFBB
S1134A4000F00DF8C01AB0F1004F07D85418606890
S1134A50FFF7D8FF2046BDE8104099E710BD0C21B0
S1134A6011FB04F1364A5358704770B5354E364938
S1134A70097804467078884204D3E5210FF2CC000B
S1134A8000F090FD7578681C70700C212C4811FBA7
S1134A9005F1084401214460017200E04D7054F8AE
S1134AA0081B0029FAD1FFF773FF284670BDF8B53B
S1134AB04FF0FF310C2400916043214D214E2844D6
S1134AC000210172307820B300F062FE28B94FF45F
S1134AD08F710FF2780000F065FD00F00EFD0021EB
S1134AE005E0009B9A4288BF1A460092491C7378DD
S1134AF0CAB29A4211D2C9B214FB01F3EA58871A16
S1134B00B7F1004F05D92B44121A1B7A0BB9002AAE
S1134B10E7D100F04AFE0020F2BD684600F05CFEDA
S1134B2010B9684600F005FD0120F2BD0C23044ACB
S1134B3058431044012101727047024908707047BC
S1134B40B06C00203D7E0020335903006576656E0D
S1134B50742D636F6E74726F6C2E6300024800785C
S1134B607047014908707047937E0020DFF81409EC
S1134B70DFF8141900880A68DFF8101984B0ADF85A
S1134B80060003A8026002A80A68DFF8041902609C
S1134B900020ADF80400DFF8FC080088ADF802003E
S1134BA00020ADF80000022008700020DFF8E818AB
S1134BB00DF10603DFF8E4281B5C02EB001213700E
S1134BC003AB33F81030538002AB33F810309380CA
S1134BD001AB1B5C93710DF102031B5C01EBC3037E
S1134BE093601DF800301373401C01230228537393
S1134BF0DEDB04B07047DFF8980800787047DFF810
S1134C009C1801EB0010407B00F001007047412824
S1134C1018BF422803D0432818BF442801D10120DB
S1134C20704700207047412818BF422801D1012055
S1134C30704700207047432818BF442801D1012041
S1134C40704700207047F8B51546069A04461E467C
S1134C5000F022FA60B1042100F0B2FB070007D093
S1134C602046FFF731FE324629462046B84790E0F9
S1134C70F1BD2DE9F04383B00446160098461EBFEB
S1134C800A9F002F5FEA08000D461DD0387871880E
S1134C90000730794CBF4022802200F0FDF998B122
S1134CA0082100F08DFB814670B13079FFF70CFECE
S1134CB00B98019000974346324629462046C84740
S1134CC0BDE8F743FFF709BEBDE8F783F8B516461C
S1134CD005461A4600F0E0F9D8B1069C21000BD134
S1134CE0022100F06DFB040013D02846FFF7ECFD11
S1134CF031462846A0470BE0102100F061FB070075
S1134D0007D02846FFF7E0FD224631462846B8473B
S1134D103FE0F1BDF8B5154604461A4600F0BCF96B
S1134D2008B98620F2BD0699002689B9202100F031
S1134D3047FB07000CD02046FFF7C6FD0998089BE7
S1134D40079A009029462046B8470646FFF7C5FD56
S1134D503046F2BDF8B50446A5682078FFF7B4FDE7
S1134D60002612E02868F6B2142111FB06F1471858
S1134D702078398800F03EFD0121384600F020FB00
S1134D8001001CBF20788847761C2979F0B288423C
S1134D90E8D3BDE8F140FFF7A0BD70B50024DFF80B
S1134DA0FC56DFF8EC6608E0FFF729FF20B1E4B217
S1134DB005EB0410FFF7CEFF641C3178E0B28842A3
S1134DC0F2D370BD10B5002301E0001D5B1C9CB242
S1134DD08C4204D204889442F7D1408810BD00204C
S1134DE010BD0288B2F57C4FA8BF00F00BB8DFF805
S1134DF0B006081A0C2190FBF1F082B20021DFF812
S1134E00A406DFE7DFF8A016401A142190FBF1F0A6
S1134E1082B20021DFF89406D4E710B50C4601886D
S1134E20638899420DD1027B23791A4209D0B1F5E6
S1134E307C4F04DBFFF7E6FF2189884201D1012082
S1134E4010BD002010BD10B514460A88E3889A42AC
S1134E500AD10288B2F57C4F04DAFFF7C2FF218938
S1134E60884201D1012010BD002010BD2DE9F74F6B
S1134E7004469B460025002603E0C0884519ADB2D0
S1134E80761CDFF80C160978F0B2884280F0D080E6
S1134E90F6B23101DFF80406DFF800260844515C5D
S1134EA0227880689142E8D100903046FFF7A7FE4F
S1134EB00028E5D04FF0000A05E0B8F80A004519CB
S1134EC0ADB20AF1010A009909795FFA8AF08842C1
S1134ED0D6D200985FFA8AFA0068142111FB0AF10D
S1134EE000EB010821464046FFF797FF0028E4D075
S1134EF04FF0000908E038793021084202D1F878EF
S1134F002D18ADB209F10109B8F808101FFA89F09B
S1134F108842D6D2D8F804001FFA89F90C2101FB83
S1134F2009F14718224639464046FFF78CFF00280E
S1134F30E1D0019800B107603879800611D5DFF817
S1134F406005002106E00279920602D5C27889182C
S1134F5089B20C30B842F6D3DFF8540500EB010AED
S1134F6003E0DFF8500500EB050A0C9D280018D07B
S1134F70029E00F060F802463B8861882078DFF8E2
S1134F80389500F031FCE8B13879C0061CD500F042
S1134F9052F80346029800903A4661882078C84740
S1134FA047E00298002844D05646824600F043F871
S1134FB002463B8861882078DFF8009500F012FCF7
S1134FC00028E1D17E2034E097F80280BBF1000F85
S1134FD00CBFFC785C464046FFF725FE30B1621EEC
S1134FE0D2B23146504600F0FCFF1FE04046FFF7C6
S1134FF022FE30B1A21E92B23146504601F009F8A9
S113500014E03DB9BBF1000F04D0F878834538BFF4
S113501089200ED3002E224604D10021504601F0EF
S11350206EF903E03146504601F026F9002000E015
S11350308620BDE8FE8F39464046D2E660B500259D
S113504003E01E7B360616D46D1C0679EBB2B34220
S113505013D20368EDB2142616FB05F633441E88FA
S11350608E42F1D1160006D0802AEAD0402AEBD134
S11350701E7B7606E8D5184660BD002060BD80B56D
S1135080002201E080B5402200F006F800B10120C2
S113509002BD80B58022F7E738B50C46154600F00E
S11350A095F8FF2801D1002032BD04E038B50C4644
S11350B0154600F08DF8DFF8E43303EB00102A46C0
S11350C080682146BDE83840B8E74022FFE72DE973
S11350D0F047804689469246FFF7DEFF002508B96F
S11350E0FF2019E00026DFF8B473DFF8A44300E0E2
S11350F0761C2178F0B288420DD2F6B23001385CC9
S1135100404508D052464946FFF7D0FF0028EFD06B
S11351106D1CEDB2ECE72846BDE8F08730B50022FF
S1135120DFF8783300E0521CDFF864532D78D4B2F2
S1135130AC420CD2D2B214011D5D8542F3D10D00F4
S113514003D01C44647BE407EDD5104630BDFF203A
S113515030BD80B50021FFF7E1FFFF2801D1002019
S113516002BDBDE802404AE570B50E460446002182
S1135170FFF7D4FFFF2801D1002070BDDFF81C1316
S113518001EB00153200687B00F0010114BF40F010
S113519001000020B142687316D086B12846FFF79B
S11351A0D9FD11E00068F6B2142111FB06F10844A0
S11351B0761C017BCA0901882046FFF76DFBA868AD
S11351C00279F1B29142EDD3012070BD0121A5E72E
S11351D00021A3E7DFF8C4120001085C704738B56A
S11351E00C46FFF7F3FF01460020FF291FBFDFF83D
S11351F0AC2202EB01118968002916D0002203E0D9
S11352001B0648BF2846521C0D79D3B2AB420BD2C1
S11352100B68D2B2142515FB02F52B44451C1B7BED
S1135220002CEDD05B06ECE7C0B232BDF8B50C46FD
S11352301546FFF7CBFF01460022FF291DD00023AE
S113524001E0521C5B1C954800EB0110DEB2806843
S11352500779BE4211D20068DBB2142616FB03F6AE
S113526030442F00067B02D0760602D4EAE73606E5
S1135270E8D5D6B2A642E4D1F2BD0020F2BD0021A9
S113528009E010B50446012100F005F82046BDE808
S1135290104001F070B82DE9F34F87B001F01DF90B
S11352A0069000247A48DFF8F481007805909DF890
S11352B01C00019000E0641C0599E4B28C427BDA86
S11352C00199FF2907D09DF81C00FFF77FFF0446D2
S11352D0FF2C06D170E008EB04100699007B88428D
S11352E0E9D14FF0000A4FEA041901E00AF1010A7A
S11352F008EB09005FFA8AF180680279914257D27B
S113530000685FFA8AFA142111FB0AF1451828890A
S1135310B0F5967FC8BF01F0C2F9002613E0012062
S1135320009000235A46002102A8FFF79FFD9DF834
S1135330200038B1BDF80A2018F809103B46584639
S113534000F03DF8761C2989B0B28842CED2686854
S1135350B6B20C21714347183879C006F2D418F854
S113536009008DF8080039462888ADF80A00387914
S113537040064CBF802040208DF80C003888ADF8E2
S11353800E002846FFF72DFDADF810003979F878A6
S1135390490706D5D7F808B00328C0DBDBF800B00E
S11353A0BDE70328B4BF07F1080BD7F808B0B6E788
S11353B00198FF283FF47FAF09B0BDE8F08F704734
S11353C030B5047B012200230C4205D1002030BDFE
S11353D0144218BF5B1C5200D5B28D42F8D3006949
S11353E0DBB250F8230030BD2DE9F04F0C4601210B
S11353F00028607D4FF0000C08D0050008BF4FF076
S1135400020E09D0012805D18E4605E010B94FF0EF
S1135410080E01E04FF0040E09980A9DDDF82C9067
S1135420DDF830A0E046264F07EB88063788974220
S11354301FD1F77817EA0E0F1BD0B7784F4518D352
S113544096F803B0E77B5FEACB6B01D50FB910E0A8
S11354507FB9E24501D0844501DB00210EE0B77835
S113546003F80C700CF101062F887F1C2F801FFAA3
S113547086FC08F10108B8F1350FD4DB0846BDE815
S1135480F08F000092540300FCF4020000F50200C7
S11354908C7E00209E5403000CF8020078660020E5
S11354A0E0F5020020F80200F4F602001CF8020005
S11354B0B4660020986600201B58000017580000AE
S11354C00CF50200EFF31180602181F3118870471D
S11354D080F311887047000080B501F07CFA01F078
S11354E087FA80B202BD80B501F075FA01F080FA46
S11354F0FA21B0FBF1F080B202BD80B501F06BFA85
S1135500BDE8044001F074BA80B501F092FB134881
S113551000214160001D01F0EDF820B139210FF2A6
S11355206C0000F03FF8002002BD0C490120087017
S1135530704770B5044682B02268002502B911E0B4
S113554000F002F8012011E0044E054B357000957F
S11355500021706801F041B900000000CC780020FF
S11355602B55000000F021F9002076BD01F0AAFCC3
S1135570307828B97068214601F0E7F9852501E003
S113558025603570284676BD00F008B873797374C9
S1135590656D2D74696D65722E630000704700009F
S11355A042DE704738B504460D4601F0C5FF01F0F0
S11355B076F802F0EFFD2946204602F014FE2B4651
S11355C022466949012002F0AFFF29462046BDE882
S11355D03440E5E765482DE9F047654D01682E1D27
S11355E04FF420687165016AB16562490A68F26521
S11355F049683166416A7166816AB166C16AF16659
S1135600016B3167806B706796F8340040074CBFBC
S1135610F46BB46B03F03BF80022F2648442564A04
S1135620014624BFA2F1200AA2452746316505F1AF
S11356309003DFF848C1DFF848E118D3A06930646B
S1135640E4697464746DC4F30804062C13D17045C2
S113565011D360450FD200884DF64264A0420AD1AE
S11356603068586040F201787068986003E0002761
S11356703764776407464348814202D2014600E01A
S1135680091D0846904203D20C68B4F1CD3FF7D00F
S11356903D49081AB0640021002005EB8004401C39
S11356A00628E167F9D3002003E0C0B205EB8004CB
S11356B0E167974223D252F8041D7145F9D361453D
S11356C0F7D2CC07F5D5002405EB8409D9F87C90F2
S11356D0894502D0641C062CF6D3062CE9D1002897
S11356E014BF401E0520E0E7B16F002405EB8402DF
S11356F0641CD2F88070D767052CF7D31960014673
S1135700481EC9B20029EFD1706DC0F30800032808
S113571010D0042811D0052812D0062813D00C2844
S113572017D0122818D119480068800719D540F2FB
S1135730025816E040F6012813E040F6022810E073
S113574040F603280DE0B8F5206F0AD140F604288E
S113575007E040F6052804E018B1322838BF40F6C7
S113576007284046BDE8F087B8F4020004ED00E0E5
S11357700000002000E300E0C85B0020A2DD02007E
S1135780B44400009C000020C85B00201C2005409D
S1135790EFF31080C00706D4EFF311806028804136
S11357A0C043C00F704701207047002080F3118868
S11357B0704770477047704770477047704770472D
S11357C070470020704770477047704770477047B4
S11357D070477047002070470020704770470000F2
S11357E00120704701207047012070477047B520A1
S11357F070477047704700207047002070470020B2
S11358007047002070470020704700207047002038
S11358107047002070470120704701207047002026
S11358207047002070470020704700207047002018
S11358307047704700207047704700207047B520BC
S113584070477047002070477047704770470120C9
S113585070477047704770470120704700207047B9
S1135860034800680078012808BF02207047000040
S1135870CC730020002070477047704701207047A8
S11358807047704700207047002070470020704721
S113589000207047002070470020704700207047A8
S11358A000207047002070477047B52070470020E3
S11358B0704700207047002070477047704770475A
S11358C0704700207047704780B5FFF77FFCFF28C2
S11358D005D0022803D2DFF83818085C02BD002086
S11358E002BD10B50168DFF82C280B8813804B88A3
S11358F05380497911710168097951714FF48A51C2
S1135900D18001688979890644BF4FF48B51D180D5
S1135910DFF8041883690A783BB9C088DFF8FC37DC
S1135920188002F0FD00087010BD42F002020A70F7
S113593016228169DFF8E847204600F09DFC00202C
S1135940207010BD80B50020FEF7B9FFFF20FFF7DF
S113595096FCFEF7C2FFFFF74EF902460121DFF87D
S1135960B00700F0CCFCDFF8AC37DFF8B827DFF87D
S1135970B807522102F06CFFFEF704FF02F0EAFFC1
S113598003F09CF803F024F903F045F903F066F9F9
S1135990BDE80140FFF701BA704780B503F06BFF23
S11359A020B905F0C1FA08B9FFF721FFFFF77CFF22
S11359B0BDE80140FFF784BF10B500224FF6FF7128
S11359C0DFF8683700E0521C92B233F832408C4260
S11359D003D08442F7D1104610BD084610BD38B537
S11359E00446FFF7E9FFDFF8485701464FF6FF7218
S11359F02888914203D12246DFF8381706E0DFF801
S1135A002C2702EBC1014A68DFF82C1705F078FB5C
S1135A102888BDE8324005F063BB10B50446DFF8C2
S1135A201C070078002882B03BD005F041FC0246F8
S1135A30DFF80C17042005F063FB2068418800910F
S1135A404379A289DFF8FC16042005F059FB0420F1
S1135A5005F00AFB18B120684088FFF7C0FFE07B1F
S1135A6028B1228ADFF8E016042005F049FBE07C27
S1135A70DFF8D8160090A0680278A37C042005F013
S1135A803FFB207DA1890A1AA1680144012392B237
S1135A90042005F02FFCBDE81C40C5A1042005F03E
S1135AA029BB13BDF8B50446DFF8A4562068407935
S1135AB0FFF78CFB2268FF280BD100F064F8DFF8B5
S1135AC09416022005F01CFB2068DFF88C1642793E
S1135AD043E0DFF88816237FDFF8846601EB0010CB
S1135AE0017B994209D000F04EF82068DFF8743643
S1135AF000F044F8227FAFA12FE040881188DFF83E
S1135B006876884210D04FF6FF73994202D1B0F5FF
S1135B10004F09DB00F037F82068DFF8503600F05A
S1135B202DF82068028817E02079022818BF03287E
S1135B3018D111895079FFF76CFE98B92068428812
S1135B40E37C2946022005F0DBFA2068DFF82036E2
S1135B5000F014F8206802893946022005F0CAFAD8
S1135B600020F2BDA07B0028204603D0BDE8F2400F
S1135B7005F050BCBDE8F24005F07CBC42793146EA
S1135B80022005F0BDBAE37C52882946022005F0C4
S1135B90B7BA30B5144683B01A4623785B074CBFB6
S1135BA0052303239A420AD200931346DFF8C4253F
S1135BB0DFF8C415042005F09DFA00203EBD089DC1
S1135BC0286029710698E880AC60AA81207800F0EA
S1135BD00100A8732078800800F00100E8732078A1
S1135BE0C00800F00100687501202875E87B30B119
S1135BF00121204605F001FF297D891C2975288291
S1135C00287D411C2975205CA874481C2875C9B2DC
S1135C10605CE8740798A86100F05FFC28770120B5
S1135C203EBD2DE9FE430F46DFF85015DFF8506501
S1135C30DFF8508591EC080B86EC080B0B9C029660
S1135C40019400250A9900913946FFF7A2FF002824
S1135C5075D0C8F80060B07CDFF82C1508703046A9
S1135C60FFF7DBFE3046FFF73CFE304600F084FBD6
S1135C7098BBA4BB042F18BF052F03D0022F18BF55
S1135C80032F01D1012200E00022F1883068019144
S1135C904188009101210388F07C00F055F908B394
S1135CA03068817989061DD44288DFF8E014DFF872
S1135CB0E054022005F01EFA01202870012130462C
S1135CC000F040F938B10346DFF8C824DFF8C814FF
S1135CD0022005F00FFA0020287001252FE0207D16
S1135CE080072CD530684079FF2824D10027DFF8BD
S1135CF02444FEF780FFF9B2814220D2F8B2FFF7C4
S1135D0069FA8146F8B2FEF77AFF90B130684188AB
S1135D104846FFF7B4F960B13046FFF7E2FD30685A
S1135D2080F8059084F804903046FFF7BBFE00B17C
S1135D3001257F1CDDE73046FFF7B4FE054605F07C
S1135D40F3FD16220021DFF8D80300F0D8FA002072
S1135D50C8F800002846BDE8FE83DFF84004017857
S1135D60491C017001F07F007047DFF8AC130A781A
S1135D70002814BF42F0010002F0FE0008707047D2
S1135D80DFF81C140870704778B1DFF81414097830
S1135D90012903D1018841F0400105E0022904D121
S1135DA001884FF6BF721140018070470000000067
S1135DB05D0000002564000078B1DFF8E8130A787C
S1135DC0012A04D1DFF8E02312780A7001E0022AE4
S1135DD003D1017841F01001017070472DE9FE43B1
S1135DE0CD4E80463078C00706D5DFF8C0130220B8
S1135DF005F080F900205CE0CB4CC64DDFF824931D
S1135E002046FFF7D9FFA81DFFF7BEFFDFF8780390
S1135E102178007849074CBFE07060703078B9F899
S1135E20001080070AD52246BD4806F04DF880468A
S1135E30307800F0FD004927307019E0B748008839
S1135E404FF6FC7290420ADA0B460146CDF8048004
S1135E5000942A46002006F0F0F9552707E00A4688
S1135E60CDF800802346294606F0D1F94227804622
S1135E70A87980064CBFCE4D42A505F019FA02461A
S1135E800295CDF8048000970220CA4BCA4905F058
S1135E9031F9CA49022005F033F9B9F80020012389
S1135EA02146022005F026FA98A1022005F022F9E5
S1135EB04046BDE8FE83002090E70A460146B1480B
S1135EC0006801E00021F8E770B504460E46207929
S1135ED0010018BF012815460BD1A0680078C00640
S1135EE001D5300005D0A07B002804BFE07C0B283E
S1135EF001D1002070BD8B4900200880607DE17BCA
S1135F0000280CBF0820002011B905F024FD06E08C
S1135F1040F0040005F01FFD208A05F02BFDA07C55
S1135F2005F019FD0B2005F016FDE07C05F013FDCE
S1135F30304605F010FD2046FFF7D3FC2846BDE8A7
S1135F4070404BE70022BFE770B5044618469C4BEF
S1135F508F4D1B78012B01D02E7816B100202870AC
S1135F6070BD82F001020A4301D1002070BD2BB143
S1135F700A4604992346FFF73EFC00B1012070BD98
S1135F80000000000000000038B5D28852249506B5
S1135F9048BF4924550544BF083CE4B2150544BF35
S1135FA0083CE4B2120444BFA41EE4B203284FF632
S1135FB0FD7310D8DFE800F00204080D0B460AE078
S1135FC0C8B206F0C8FC02E0C8B206F0F6FE03460A
S1135FD001E0641EE4B21846FFF729FC201AC0B29F
S1135FE032BDB0B504460D000EBF00202878FF284E
S1135FF0174601D12070B0BD284605F023FD874225
S113600088BF07463A46691C601C00F035F92770C2
S1136010B0BDB0B50D000446174603D10020607032
S11360202070B0BD2878FF2802BF6878FF28207050
S11360300CD0284605F00BFD874288BF07463A4638
S1136040A91CA01C00F018F92770380A6070B0BDB4
S1136050F0B5541E002B37D0052A48DA0025002657
S113606000230CE0571EFF1AFF000CFA07FC4CEA51
S1136070050511F80EC00CFA07F73E435B1CDFB2AE
S1136080974209D2DBB2A4EB030E00280CBF4FF0F9
S1136090000C10F80EC0E5E7042A0FDAD000012145
S11360A0D200401E9140494245FA00F2D20748BF4F
S11360B00D4346FA00F2D00748BF0E43AE420FDB51
S11360C0B54214DA10E05B1CDDB295420FD2DBB2AC
S11360D0E51A00280CBF0026465D4D5DB54201DA85
S11360E00120F0BDAE42EEDA4FF0FF30F0BD0020EB
S11360F0F0BD0021334A01E0891CC9B2535C8342DC
S1136100FAD3501840787047000000005D0000008A
S1136110747E00206C730020CB7E00206C7E0020F7
S11361205C7600206E7E00207873002058450300C2
S1136130727E00207043030088430300BA6300208A
S11361409043030098430300B8430300C44303008F
S1136150E443030004440300204403007866002061
S113616028440300504403006044030058440300DF
S1136170684403008C440300704403009845030002
S11361803876002058760020DD6300209444030014
S1136190C77E0020E4440300BC440300DE63002007
S11361A0C87E0020C97E0020CA7E0020EC44030083
S11361B038450300304503001445030048450300F7
S11361C0DC630020B8450300283808288041C00F4C
S11361D0704710B500F009F8FF2801D1A32010BDC5
S11361E0002104F83010002010BD04460846FEF7D4
S11361F0EDBF38B500F00BF8FF2801D1A32032BD64
S1136200294604EBC000BDE83440FEF7ECBA04466E
S113621008461546FEF7DABF40B11C280CD01D28ED
S11362200DD01E2818BF1F2806D00AE0A1F10B00CC
S1136230102806D2002070471B29FBDB01E0092946
S1136240F8DB8A20704710F0E00011D0802806D0D7
S1136250A02806D0C02806D0E02806D007E01C20DD
S113626070471D2070471E2070471F207047FF2075
S1136270704700F01F007047814233D2104411442C
S1136280401E491E10E011F8013900F80139121FAF
S113629011F8013900F8013911F8013900F8013910
S11362A011F8013900F8013992B2042AEBDA93B2F9
S11362B0002B1EBF11F8013900F80139521EF6D126
S11362C0704711F8013B00F8013B121F11F8013B24
S11362D000F8013B11F8013B00F8013B11F8013BC8
S11362E000F8013B92B2042AEBDA93B2002B1EBFF2
S11362F011F8013B00F8013B521EF6D17047130020
S113630003D00A46194606F015BF704710B500E0E1
S1136310521E93B223B100F012F8F9D0181B10BD2D
S1136320002010BD10B500E0521E93B22BB100F056
S113633006F8F9D0181B40B210BD002010BD10F8AB
S1136340013B11F8014BA342704780B5FFF771FA86
S1136350FFF7F8FABDE8014006F020BF80B5FFF76B
S11363606BFAFFF719FB06F0FFFF07F04BF8BDE8E7
S1136370014002F00FBC7047FFF788BAFFF78CBAF0
S11363800020704738B504460D46FFF79CFA2946AD
S11363902046BDE8344007F0A6B8FFF77FBAFFF700
S11363A08ABA000010B57448744C006820606060BC
S11363B048220021FFF7A3FF714821680078087084
S11363C04FF6FF712068002241800273002022688A
S11363D050730B202268907314202268D0734FF6F8
S11363E0FE7220680282418207F0C6F821680876AE
S11363F007F0C2F82168487607F0BEF8216888766D
S1136400604821680078C8765F492068096840F8C8
S1136410281F5E49097801715D4821680068086396
S113642010BD10B500F0B6FE544C6168897B8842FB
S113643003D0084600F05DFE50B900F0AFFE0146FF
S1136440606890F90F00814204D000F0B6FE08B1F4
S1136450012010BD6068008A01F0F8FA6068408A83
S113646001F014FB6068007B012818BF002001F0D4
S1136470D8FA002010BD10B5464C0020207007F05B
S113648044FD20B92046BDE81040FEF755BA67E048
S113649080B5002000F015F828B1002000F005F8C0
S11364A008B1002002BDFF2002BD34480068407BD3
S11364B002281CBF1128432801D101207047002065
S11364C070472E480068007B01281CBF022803285F
S11364D001D1012070470020704700207047002040
S11364E070472D490870704770470020704701209D
S11364F0704770470020704700207047704770470E
S11365000020704780B50020FFF7CFFF18B1BDE829
S113651002400020D5E702BD80B50020FFF7C5FF8B
S113652030B116480068007B032801DA002002BD60
S1136530FF2002BD10B5040005D040F249110FF24E
S11365400C10FFF72FF81448007808B9702010BD1C
S113655009480068482111FB04F1084407494860D0
S1136560BDE810405DE705484068008A704703486D
S11365704068408A70470000FC5F00207877002064
S1136580CE630020CF63002000600020C66300209B
S11365900460002070770020E06300207047002032
S11365A070470020704707F06FBA704707F0F6BFD6
S11365B007F0A6BE82B08DF80010DDE90023114675
S11365C01A4602B002F0CCB932B586B004468DF852
S11365D0042004F04DFC0546204604F057FC80F0EE
S11365E001010D420DD0BDF8180004F024FD8DF812
S11365F00000FF2804BF00208DF80000CDF808D06B
S11366001AE0294308BF06A815D0054214D0BDF8E6
S1136610180004F010FD8DF80000FF2804BF0020CE
S11366208DF800009DF800008DF80C00BDF81800EE
S1136630ADF80E0003A80290DDE901010A46014607
S1136640204602F08DF907B030BD0000656D62652B
S1136650722D6D756C74692D6E6574776F726B2D08
S1136660737475622E63000007F09ABF80B5012130
S1136670154808F043F80421072008F0ADFB13483F
S11366801349144A0160042111600221416204216A
S1136690114A1160816A41F00201816201BD0B4817
S11366A008F0EABBA52800D0704780B500F005F8D3
S11366B010B10A490020086001BD0448006810F0C8
S11366C0010018BF012070470005080000200540A4
S11366D00108030080E200E000E100E00000A442C1
S11366E0012100F01F029140DFF8DC24400942F848
S11366F02010704770B50546FEF7E4FE002600241E
S11367002821DFF8C82401FB06F313449B7F13B14F
S1136710761C042EF7DB042E08BFDFF8B44408D03F
S11367202DB17143114401238B772E6001E0DFF812
S1136730A444FEF7CDFE204670BD10B5DFF89804E2
S1136740017809B1002010BD01210170DFF88C042B
S1136750DFF88C4407F0D2FF0321DFF8880408F047
S113676011F9032020710121DFF87C0407F0C6FF32
S1136770204608F0A4FBDFF87414DFF87444012009
S113678008F086FBE069C00AC002E06140F2FF70D5
S1136790A061002020601D20FFF7A2FFDFF8541441
S11367A04FF000500860A021E06940F00100E06172
S11367B0DFF8180408F0A4FBDFF83C14002008708C
S11367C0DFF838140870DFF838140860DFF8341480
S11367D00860DFF83414086010BD2DE9FE4F05464B
S11367E0042D8B46144699464FF0000828BFDFF865
S11367F020040ED2FEF766FE02902821DFF8CC03B7
S113680069434618B07F28B90298FEF761FEDFF8A5
S1136810040488E00C9F34B9B9F1000F02D0394662
S11368202846C8477BE0610CE003DFF8C453D5F881
S113683000A0C6F8189000F078F8C6E90201BBF190
S1136840010F0ED14FF47A726243CDE9002802465B
S1136850F420A0FB0249DDE90001001B30617A202D
S11368607061D6E90201401C61F1FF31C6E9000103
S11368700120307786F81FB03762DFF87C03007898
S113688000284CD1DFF87873386810F1010F02D07A
S11368903868401C3860DFF86443DFF87C93207864
S11368A0A8B9C9F800A00420A8616FF06402D6E971
S11368B00001414501D8904200D310465044E86499
S11368C0E86940F00400E8610120207022E03868A3
S11368D001281FD186F81C8000F0D7F8AAEB00002D
S11368E000F0DAF800F02CF9B8F1000F04BF012031
S11368F03077504600F034F9D5F800A0E86C2178E0
S113690008F1010831B1D9F80010401AAAEB0101CD
S11369108842E1D3386810B13868401E3860029864
S1136920FEF7D6FD0020BDE8FE8F10F57A6041F138
S113693000014FF4FA52002308F0E6BA2822DFF8E7
S11369408C12624311448A7F70472DE9F04104465A
S1136950042C0E4628BFDFF8B8023AD20EB99D487F
S113696037E0FEF7AFFDFFF7E9FF22B9FEF7B0FD10
S1136970DFF8A0022DE00A7F22B9FEF7A9FDDFF8B7
S11369809C0226E0D1E9004899490F68A2490D68A4
S1136990FEF79EFD781B0021884504D8844238BF49
S11369A04FF4804010D3221A68EB0103DB0043EA62
S11369B05273D2004FF47A74A4FB020104FB031156
S11369C010F5804041F10001C00B40EA41403060C5
S11369D00020BDE8F08170B58A4E002334688448F5
S11369E0026830688442F9D1981844EB030170BD01
S11369F030B54FF4FA5200F004F8C00B40EA4140BD
S1136A0030BDA2FB004502FB015514F5804045F161
S1136A10000170472DE9F047FEF754FD744D82469E
S1136A20E869296900EA010626F00500A8617007F3
S1136A301ED5714FDFF8C481DFF8DC910120387076
S1136A402C6800F022F8201A00F026F800F078F8FC
S1136A50204600F085F82C68E86C98F8001029B1FD
S1136A60D9F80010401A611A8842EAD3002038701D
S1136A70F00705D50120A86162480168491C01603E
S1136A805046BDE8F047FEF723BDE86920F0040056
S1136A90E861D9F8000070472DE9F0430026044668
S1136AA000252821494871434718387F7D770028FD
S1136AB041D0D7E900018D4207D828BF844204D2CF
S1136AC0001BA941C7E9000135E0F87F08B9387710
S1136AD02DE0D7E90001D7E90223201AD7E902897A
S1136AE065EB010108F010FAB8EB020069EB030151
S1136AF0C7E90001386939690128786909DB081890
S1136B00F428786113D3D7E90001401C61F1FF3107
S1136B1008E0401AF428786109D3D7E90001401E3F
S1136B2061F10001C7E900017869F4387861B86956
S1136B3008B101207877761C042EB2DBBDE8F0831F
S1136B4010B500242821214861434218507F18B110
S1136B50116A926920469047641C042CF2DB10BD34
S1136B60F0B54FF0FF3213460021184C28254D4351
S1136B706619367F46B12544D5E900679F4203D89C
S1136B802EBF964232463B46491C0429EEDB0021C7
S1136B904FF0FF34A34208BFA24212D08B426FF0E1
S1136BA0640401D8A24200D322461B49174B086053
S1136BB004211960101858630121586840F004003A
S1136BC058600E480170F0BD80E200E0A864002027
S1136BD0011000F0041000F0BA7E00200005080047
S1136BE01C6100200500200080091200286100209B
S1136BF00820044000E100E0B87E0020B97E0020B7
S1136C001074002014740020187400202020044004
S1136C10021000F0031000F00C740020051000F0C6
S1136C20012100F01F029140514A400942F820100E
S1136C30704730B54F48504D0FC887B003AC84E857
S1136C400F0068460021002200230EC002208DF8A8
S1136C500600012149484A4C07F050FD4FF6FF70E9
S1136C60E0616A460021204608F020FA00208DF8F1
S1136C700E0003A9204608F0CDF9424807F06EFD46
S1136C809DF80E1001228A40491C8DF80E10B0FBAD
S1136C90F2F0C9B20B29286002D23B498842E8D2FB
S1136CA03A4807F05BFD3A492A68B1FBF0F33948EA
S1136CB00021E3FB0201384A002308F025F9374993
S1136CC00860002036490870A06920F01000A06117
S1136CD00A20FFF7A5FF33494FF48060086007B02E
S1136CE0002030BD38B500F01BF804460D4605E021
S1136CF04FF6E85000F02AF800F00CF800218D421D
S1136D004FF6E950F4D88442F2D2A0B200F01EF853
S1136D10002032BD24484FF0FF3124184D41704704
S1136D2015491C4A09680023E0FB01231046194653
S1136D30194A002308F0E8B81C480168C90604D5BC
S1136D40102181600120164908707047010081B04C
S1136D500BD017490A6892B20B68ADF80030BDF841
S1136D6000309B1A9BB28342F6D301B070470000F7
S1136D7080E200E0084303003076002000020400B3
S1136D80008001404041050081841E005000020043
S1136D9000B0710B20A1070040420F0034760020A0
S1136DA0C67E002000E100E01802FFFF0C800140D5
S1136DB0248001403E480168090C090481603B4875
S1136DC0016070473B4A410952F8212000F01F003E
S1136DD0C240D20706D5384A52F82110C14001F00A
S1136DE001007047002070470000000070B506469F
S1136DF0072808BF032602D0082808BF0226FFF789
S1136E005CFC30B1012E04D1A520FFF74BFC01241A
S1136E1000E0002408F0A0F9002080F3118808F0B5
S1136E2090FB214D761E0020042E286016D8DFE842
S1136E3006F0030A0A0E12002048016821F004013A
S1136E40016030BF0EE0012008F04FFE0AE001208F
S1136E5008F05CFE06E008F088FE03E0AF21184865
S1136E60FEF7A0FB1248C1680068084086B22E6095
S1136E700920FFF7A7FF18B91120FFF7A3FF10B1EE
S1136E8046F4803028601D20FFF79CFF18B1286865
S1136E9040F4003028600CB1FFF7E8FB08F06AFB0F
S1136EA0BDE8704009F020B97075002074750020A9
S1136EB01CA4004000E200E000E100E010ED00E06E
S1136EC0E43E030092E7000080B5002300931346DC
S1136ED0012209F043F901BD00F076BE00F074BE52
S1136EE010B54C00014600F050FD224609F015F99A
S1136EF0A04201D0002010BD012010BD80B500F0DB
S1136F0044FD09F090F900B10120C0B202BDDFF8E0
S1136F10740B407D00B101207047DFF8682B117BB2
S1136F2001B9704780B50146106A09F0D2F920B161
S1136F30BDE8044040F27111F4E201BD10B5DFF880
S1136F40444B627D010018BF012102B1012291422C
S1136F50607519D068B16FF07F00FFF7DEFF09F0AC
S1136F6013FAC00510D5206ABDE81040012109F0CC
S1136F7005BBDFF8D44A94F90C0000F0C3FD207A75
S1136F80BDE8104000F01CBD10BDDFF8F81A497DC3
S1136F9001F0FE010843D1E780B500F0F6FC09F0EA
S1136FA0B5F800F00300032801D1012002BD002040
S1136FB002BD80B5B0F5004F07D100F0CEFDDFF87B
S1136FC0C80A00F0CBFCBDF80000DFF80C1BC88336
S1136FD0002002BD2DE9F04F440900F01F050027F1
S1136FE0DFF8F88A00E07F1C98F80660F8B2B04237
S1136FF036D2D8F80800FFB250F827004FF0000C42
S113700001E00CF1010CC67E5FFA8CFEB645EAD2B3
S1137010D0F81CE05FFA8CFC142616FB0CF6B64480
S11370209EF8086006F00706A642EAD19EF80960B9
S1137030B542E6DB9EF801B09EF8009006EB0B0A21
S1137040AAEB090AAA45DCDB11B1AC1B4C440C7059
S113705012B19EF8081011701BB1C3F800E000E0F3
S11370600020BDE8F08F400918BF40F018007047B9
S113707010B5DFF8884A206A09F0D5F80246206A7C
S1137080BDE81040002109F0EAB80B38102834BFDD
S1137090DFF84C0ADFF8680A006870473EB56846B6
S11370A00021002200230EC0DFF89C0901788DF82E
S11370B00010817A0A0018BF022914D10079DFF880
S11370C03C5A00F0BBF8044600F00EF858B1286AA8
S11370D00122002109F01CF800F006F818B140F272
S11370E05B2100F069FB37BD286A6A46214609F036
S11370F04EB82DE9F041044604F01F001B2886B069
S113710034D2002000906B46002200212046FFF775
S113711061FF07002AD02046FFF7B7FF5FEA0008A7
S113712024D0DFF86069DFF8B059F06B804515D0E2
S113713001A84146062209F027FA306AC6F83C80C5
S113714001A909F00DF988B9306A03A909F016F903
S1137150B5F91C10306A09F0DEF838B90098B0624D
S113716077620098002818BFC06801E08A200EE00A
S1137170F06229798C421CBF2C71FFF78FFF96F9BE
S11371800D00C101306A09B209F0EEFB002006B01F
S1137190BDE8F081DFF8400900797047DFF838096D
S11371A0B0F91C00002854BF05216FF00401081831
S11371B00A2190FBF1F040B270470A2110FB01F064
S11371C0FFE7F8B500F5D77240F277239A4201D36E
S11371D08B20F2BDDFF8AC48DFF8FC58A26A0A2322
S11371E0002A1EBFAE7F06F0C006802E12D0A67BFA
S11371F086B992F9026016FB03F7B842B8BF16FBD2
S113720003F007DB92F9032012FB03F68642B8BFB2
S113721012FB03F0217B61B10146206A09F07BF87F
S113722018B140F2B92100F0C7FA206A09F086F8D3
S113723001E010FB03F0A8830020F2BD38B504463A
S1137240FFF723FF90B10023002200212046FFF71F
S1137250C1FE58B104F01F051B2D07D22046FFF7CD
S113726002FF18B90B2D01DB284632BDFF2032BDC9
S11372700FF208014008085C7047000050403000DD
S11372807047C0B2704710F1630F01DA00207047F5
S113729010F1240F01DBFF2070476430000241111C
S11372A000EB91608004000E704770B5DFF8D4479E
S11372B0DFF8385A00202064687828B109F058FBB8
S11372C0012818BF032801D1002070BDE16ADFF84E
S11372D0203ADFF8042800291FBFA66A3669002E69
S11372E0022817D12364906900F5FA709061E07C5C
S11372F018B100200021642203E0E87829794FF4D2
S1137300A0722070A2806170A878A0708020E080B4
S1137310002030E0DFF8DC599069AE4213D1DFF889
S1137320D839236400F57A709061E07C88B90879D3
S1137330207001228B7808799A40101891F9032063
S11373401018401E0CE0236400F5FA709061E07C94
S113735018B100202080642005E0487820708878E7
S1137360607008780001A0804879A0700889000145
S1137370E080C8880001A06000F0F5FBE07094F99B
S11373800200010048BF4042C0B270BD70B504465F
S1137390DFF8F066257896F9140008B18C2070BDEA
S11373A0FFF783FFB075DFF84429DFF82C07417835
S11373B00174690101F5807181619379716C002B0D
S11373C0B37B1DBFAD1EEDB221F0020141F00201FD
S11373D073B9127862B16278920609D56FF001022E
S11373E0327541F00101826902F50872826104E09C
S11373F049084FF0FF30490030757164032000F0F4
S113740003F96A1C306A4FF4807392B2214609F082
S1137410D8FA691C884203DA40F21B4100F0CCF927
S1137420002070BD00000000F8B5DFF8585695F94B
S113743014100024091D04290FD8DFE801F0080EF8
S113744010100300FFF7A2FF040008D0F2BD2C7552
S1137450286A08F061FE8D20F2BD8C20F2BD09F08F
S11374602AF8E8B1286CDFF88818884218D1A87D7A
S1137470B0B1DFF8180A0068002811D5DFF8480A0F
S1137480C168C1600122006800F00F0002FA00F038
S1137490401E014204D100F0ADFB642009F0AFFAB4
S11374A0FEF710F8064695F9140010F1010F1CBF01
S11374B095F9140010F1020F29D195F91400DFF8A1
S11374C0187640422875FEF707F87862296C3879F7
S11374D049B9FFF7B3FE01466A6C286A07F1100345
S11374E008F04CFE0BE0FFF7A9FE07F11001009134
S11374F001466A6C286AD5F840C02B46E04760B163
S1137500002028758C244FF0FF30786202E00020C0
S113751028758D24286A08F0FFFD3046FDF7D8FF52
S11375202046F2BDDFF8E809FEF73CB82046BDE886
S11375301040FDF7CDBF0000F8B5FDF7C3FFDFF83D
S113754008550446A87A012803D12046FDF7C0FF58
S1137550F1BDDFF8C019DFF82C65DFF8B4794020FD
S113756008600122306A012108F0D2FDDFF8A81971
S11375704FF40010086069460FF28800006800901C
S1137580306A09F0E5F920B140F2C7413846FEF708
S113759009F802208DF800006946306A09F0B5F94F
S11375A020B140F2C9413846FDF7FCFF306A08F0CB
S11375B0D1FD0021002008F01AFF00F005FB012096
S11375C0A87296F91400001D072810D8DFE800F00F
S11375D0140F0707040B0B0B09F0E4FB0CE06FF02E
S11375E00300307508E0892000F039FB04E040F224
S11375F0ED413846FDF7D6FF2046FDF769FF09F057
S113760093FCF1BD040100002DE9F04DDFF838547E
S11376100446A87AA04282B063D00FF2CC01DFF80E
S1137620FC680968DFF8E888DFF85874DFF8E8A830
S1137630009103284FF4001B4FD8DFE800F0470205
S11376403E2B09F07AFC386A694609F081F918B1D1
S113765040F20A5100F04AF802208DF80000694611
S1137660386A09F052F918B140F20C5100F03EF8B2
S11376706879002814BF00220222386A022109F026
S1137680B1FC18B140F2115100F030F80320032C82
S1137690A87218D0CAF800B00220A8722879FFF79F
S11376A0CDFD0146386A002208F071FD18B140F2A0
S11376B0215100F01BF8022C13D0002C18BF032C0E
S11376C00FD10020A872C6F800B00AE0022C08D13D
S11376D0CAF800B00220A87203E040F2375100F06B
S11376E005F8BDE8F38D0000040200004046FDF7F4
S11376F059BF002088E7DFF82C0A807A7047000021
S1137700032805D8DFE800F00302030314E77BE74E
S113771040F2555106E780B500F00FF804D500217A
S11377200175006A08F0F8FCDFF8F809407A0128CE
S113773002D1BDE80140FFE601BDDFF8EC0990F994
S1137740141000297047DFF8DC09407A704780B5CF
S1137750032801DB012002BDDFF8C8194872897AC9
S1137760884218BFFFF7CCFF002002BD2DE97C4FF3
S1137770DFF8B46903EA010BD6E9068929EA0105B1
S113778028EA000402EA000A45EA0B0544EA0A046E
S11377904D4508BF44450DD0CDE900230246306A6B
S11377A00B4609F0D7F818B140F27D5100F004F807
S11377B0C6E90645BDE8738F0FF6A410FDF7F2BEC7
S11377C038B5B04D0446287BE8B1200018BFDFF877
S11377D05C2904D1A87C08B1402200E000220023E7
S11377E0DFF848090021FFF7C1FF002C14BF08226D
S11377F00022286A082109F0F5FB20B1BDE83440D5
S113780040F2B9518EE631BDF8B50446022C0FF6AC
S1137810501503DB40F2E25100F0A5F8994E307B9D
S1137820002840F09780884FB87A012803D04FF49D
S1137830BD6100F098F8002107F1280008F056FC1B
S1137840306218B940F2EB5100F08DF8306A05212E
S113785008F019FF18B140F2EE5100F084F8306AD4
S11378600FF6101109F0D0FB18B140F2EF5100F0FF
S11378707AF8306A09F0FCFB18B14FF4BE6100F0ED
S113788072F84FF0FF30DFF8A82806230146FFF70F
S11378906DFF306A4FF0011108F0F3FC18B140F2AB
S11378A0056100F060F8306A4FF48032002108F07E
S11378B0D6FC306A09224FF0FF3109F093FB18B16E
S11378C040F20C6100F04FF8012030730223DFF81E
S11378D0640800F043F8BDF80000C0054CBF002068
S11378E0BDF80000707308F0E6FDFFF769FFF88B40
S11378F0FFF75FFB09F03CFC00F081F83879FFF7F3
S1137900F8FB18B140F21F6100F02DF8F87900F08F
S113791040F8387A00F054F8307C00F082F8787936
S113792000F0C8F800F01FF900F0ECF8B07C00F0AB
S1137930DBFAB7F91C00FFF744FC388C00F086F83A
S1137940788C00F0A3F8B87900F0CCF8601E804180
S1137950C00FB8722046FFF7D3FEF1BD01887F2225
S1137960684609F053BC2846FDF71CBE80B500F0FC
S11379700CF8012108F00EFC10F5007F02D16FF025
S11379807F0002BD8005001602BDDFF89C07006A77
S1137990704710B504463B48017B51B1611E8941D3
S11379A0006AC90F09F0B6FB18B140F25A61FFF73B
S11379B003FF2000DFF86C1718BF0120C87110BD49
S11379C0F8B50446FDF77EFD05461F482D4E0472AA
S11379D0377BFFF79CFA00F0010080F001000742BA
S11379E004D0306A84F0010108F0C8FD2846BDE8DF
S11379F0F240FDF76DBDDFF82C07007A704721488F
S1137A00017B01B9704780B5006ADFF82C170022AA
S1137A1009F06DFB20B1BDE8044040F2856181E5C9
S1137A2001BDDFF80427117B107401B9704780B5DC
S1137A300146106A09F062FB20B1BDE804404FF42E
S1137A40D2616FE501BD0000B06100202249DFF87A
S1137A50D8360884197B01B9704780B50146186A85
S1137A60002209F03DFB20B1BDE8044040F2A161D1
S1137A7058E501BDDFF8AC06008C7047DFF8A406BA
S1137A80408C7047486500200A5903001249DFF80A
S1137A9098364884197B01B9704780B50146186A45
S1137AA0002209F016FB20B1BDE8044040F2B761A2
S1137AB038E501BDDFF86C164A79824200D170477F
S1137AC010B58C7A4871012C05D0FFF735FD20469E
S1137AD0BDE8104098E510BDB0610020C454030017
S1137AE08460002010B50446FFF74FFF214609F0DB
S1137AF00AFCDFF83006847110BD000048650020E0
S1137B008860002038B504467F2C0CD100F025F89D
S1137B10DFF82806FFF722FFBDF800007E24C00529
S1137B2058BFBDF80040FDF7CDFC0546FFF7EFF95F
S1137B3060B960B27E2805D1DFF8EC15896A09B115
S1137B4091F904007E28B8BFFFF7E7F9DFF8D40500
S1137B5004732846FDF7BCFC31BD4FF6FF70ADF849
S1137B60000002237047DFF8BC0590F90C007E2862
S1137B7007D1DFF8B405806A08B97F20704790F90F
S1137B800400704710B508F0FFFB80041AD500F01C
S1137B902BF808F0F9FBC0044CBF0320012000219E
S1137BA008F048FC08F0F0FB00F0FF004FF47A7195
S1137BB011FB00F104F14800BDE81040DFF8802516
S1137BC0FFF782B9BDE8104010B500F00DF804F1DC
S1137BD0480008F0CCFAFFF7DFF920B9BDE81040FF
S1137BE0002108F027BC10BDDFF83C4504F160001B
S1137BF008F0BDBA80B508F0C7FB4005BDE80440F5
S1137C004CBF03200120002108F0F1BB10B5DFF8C0
S1137C10184594F9140003280DD100F02DF9DFF86C
S1137C2004154FF0FF3048620022216BBDE810407C
S1137C30402008F02ABF10BD38B50446FFF7C4FF42
S1137C40DFF8E454FDF759FC686314B108F0A9FEA9
S1137C5001E000206874BDE8314009F0A3B838B5EC
S1137C600446DFF8C014DFF8C0544FF0FF30486218
S1137C70FDF743FC686395F91400012802DABDE8B6
S1137C8031407FE7A87D08B1686BA86300F062FA11
S1137C90A87B10B10120E87331BD2046BDE838400F
S1137CA00022002108F0F1BE10B508F004FCDFF852
S1137CB0784498B1FFF770F980B104F1480008F0F6
S1137CC056FA08F0DFFB002108F0B4FBDFF8742457
S1137CD042F2107104F16000FFF7F6F8A07C18B1CD
S1137CE0BDE8104000F055BA10BD0000A8610020A6
S1137CF08301010090810000890101002DE9F04316
S1137D00DFF824440FF25849206A89B005AA0221F9
S1137D1008F05AFE050003D140F6E70100F0A9F887
S1137D209DF81400DFF8FC63BDF8168007281CBF1B
S1137D307079002819D1B8F1060F16DB08F1080094
S1137D408B2812D2002000904346DFF8FC73206A8F
S1137D503A46294608F040FE404503D04FF41061EE
S1137D6000F087F83878000602D5FFF70BFF7DE0B6
S1137D7001208DF80800CDF804806A46206A29465F
S1137D8008F026FE18B140F6171100F072F8787862
S1137D9000F0070002281ED1FFF716FF94F9140023
S1137DA0032808BFB8F1060F11D19DF80D0070B17A
S1137DB07878000900F0010500F05EF84FF0FF301C
S1137DC070622A4600218F2008F05FFE4EE0F079B1
S1137DD000284BD105E09DF80D0010B10020FFF7FD
S1137DE015FFF0799DF80D10084203D040F63F11BD
S1137DF000F03FF8F07958B17878800608D5307AE9
S1137E0030B1206A08F0BDFB30B1FFF7BBFE03E0E0
S1137E10FFF7DAFE002060743878401C404503D038
S1137E2040F65F1100F025F807EB0805307928705B
S1137E30FEF762FB68709DF80E00A87095F90200C9
S1137E40FFF721FAE87008F10801FF202871C9B290
S1137E500098000C68710098000AA8710098E871F5
S1137E603846627C08F059FF0020607409B0BDE810
S1137E70F0834846FDF796BB00202075206A08F081
S1137E804BB90FF2E420FDF78DBB0000044008401D
S1137E9010B5A448446A002C14D4FDF71DFB001B44
S1137EA040F2E93180B288420CD39F4890F9140023
S1137EB0032803D1BDE810400020A7E6BDE8104028
S1137EC08920CCE610BD00004C50084010B540B9E4
S1137ED008F068FDFDF7F6FA0446FFF7D9FFFFF74F
S1137EE025BBBDE81040D3E738B58F4D0446287B49
S1137EF060B1200002D108F0DEFA08B1402200E0AF
S1137F000022002340200021FFF730FCAC7431BD77
S1137F106081000008400840186008461860084462
S1137F202DE9F04781461446600688B0984648BF5C
S1137F30002002D4200602D50120FFF7B5FEA003DD
S1137F40794D25D5002068746946484609F0F7F84C
S1137F50F0B99DF8080002280ED1BDF8000009F020
S1137F60D5F9FF280ED07949096831F810004FF48B
S1137F70E661084206D10BE0032809D1684609F0FE
S1137F8038FA28B1286A09F0D7F808B901206874CA
S1137F90600410D508F08FFA68B1FEF7FDFF50B108
S1137FA008F07DFA064608F06DFA864203D00021F7
S1137FB0304608F03FFA200744BF4846FFF79EFECC
S1137FC0E00548BFFFF7DEFD4FF41850044218BF28
S1137FD0FFF7FAFDE00244BF0120FFF72DFE600227
S1137FE044BF0120FFF728FEE00144BF0020FFF753
S1137FF023FE95F914000FF2681A012864DB286A3D
S1138000484E21034FF0FF3730D595F9141001295C
S11380105ADB95F91410032956DA00218DF818104B
S113802001218DF8141003A908F0ABF90398286313
S1138030FDF763FA6863A87D08B1686BA86395F9D6
S11380401400012804D002280AD1032028753BE03B
S113805000F080F87762A87BA8B9296B002218E0A9
S11380604FF401615046FDF79DFA2DE014F0845F52
S113807012D00021297508F04FF8042008F093FC71
S11380807762A87B10B10120E8731DE00022002173
S11380908D2008F0FAFC17E0A00248BF892002D422
S11380A0A00103D58820FFF7DAFD0DE0600048BF8A
S11380B0FFF7A0FDA00007D525480068400403D4BD
S11380C00021002008F093F9A00744BF4846FFF7B9
S11380D09DFD002C04D5FFF777FD4846FFF796FD7C
S11380E008F002010023994212D0484608F00CF827
S11380F0022802D0032802D005E0892000E08D2068
S1138100FFF7ADFD04E040F67B015046FDF74AFA67
S113811008F004010023994218BF09F04FFB08B08E
S1138120BDE8F087B061002048650020406700602A
S11381300A00FA930C590300C47700200E59030077
S1138140D96E0000DD6E000030780020E45F00206E
S11381500440084000202875286A07F0DDBF0000AD
S11381607068792E630000006C69627261696C2E1C
S11381706100000000000000010060030101010132
S11381806400B6006400C000000000000B000000A2
S113819000007047602080F31188704770B509F0C3
S11381A01BFCA94C204609F0EFFFD8B9204609F082
S11381B0A1FFFF28044615D0A4490968085C851E60
S11381C0E9B2204609F018FF0646E9B2204609F054
S11381D015FE2146304600F0E5F82046BDE8704023
S11381E009F0ACBC70BD03460A4696A10420FFE723
S11381F00CB480B502AA00F02AF801BC5DF80CFBAF
S113820000B587B008F0B6FE00210591049102463E
S113821062210391002300210291019101208C49E4
S113822000910FF23C21FFF7E3FF8A488179C3787C
S11382308278039101880291417901910179009139
S113824042200FF22821FFF7D3FF07B000BD2DE92C
S1138250F04F85B005460C46904609F0AEFF002667
S1138260F8B909F042FBE0B1012009F0FCFB8246B9
S1138270BAF1FF0F15D0002109F0F0FB294601A83F
S113828009F039FB05469CB900F087F830B950462F
S113829009F099FB10B1042009F08BFF504609F056
S11382A04DFC05B0BDE8F08F8DF804200125641C59
S11382B020780100E8D0A0F130010A2905D20A2172
S11382C001FB0600A0F13006F1E700F066F8002893
S11382D0E4D122780025422A01A80ED0442A1AD0DB
S11382E0462A25D0572A0DD0622A3AD0662A2AD0A7
S11382F06C2A25D0702A26D0D6E758F8040B8DF8BE
S11383000400D3E758F8041B8DF80410022509046F
S1138310090E4170CBE758F8041B8DF804100A0AC3
S1138320427004250A0C8270080E8DF80700BEE71F
S113833058F8041B504609F013FD0028B7D0ADE7E8
S113834058F8046BB3E7012358F8041B662A08BFE6
S11383500223F2B2504609F0E2FC002808BF0026CE
S1138360ECE73A4858F8047B006810F80A90FFB22A
S1138370FF2F9CD010F807B00BEB0901C9B250468F
S113838009F03CFD002889D1CDF800B000233A461D
S11383904946504609F065FE89E72A4601A9504638
S11383A009F0DCBC2DE9F043122885B080460D4667
S11383B009D03A281FD04FF6FE71884204BF2846E0
S11383C0FDF7FCF936E02148234F0068465D0BE0D9
S11383D0284609F03DFB01462246002007F0E0F85C
S11383E03868455D203EF6B2FF2D23D0212EACBF68
S11383F020243446ECE702F097FD8146FFF73EFB6C
S11384000646FEF7CBFE0746FEF7C4FE0446FFF71A
S113841031FB02460E480FF25C010390CDF8109038
S113842023460E48006840880290019600973B203E
S1138430FFF7DEFE2946404605B0BDE8F04309F0EB
S1138440BEBE000057460000FC620020D05F002042
S1138450C477002094540300D85F0020787700206C
S113846042423870424242425742420042424242F1
S113847057420000574242575738704200000000EC
S11384802DE9F0410125012818BF202894B00446A5
S11384900F4690461E4623D10AA82949242208F0F3
S11384A083F868460AA9242208F07EF81020012CDB
S11384B018BF202CADF82400ADF8260008D0022CFB
S11384C018BF212C04D0032C1CBF222C232C14D124
S11384D0012E0197ADF80C8004D14FF4805005E0D3
S11384E001200BE0022E03D14FF44050ADF80A00F6
S11384F06946204607F077F80546E8B214B0BDE8AF
S1138500F08107F013B980B507F01BF9C0B202BDC2
S113851007F06CB980B507F08DF9C0B202BD80B523
S113852007F01AFAC0B202BD0CB480B50A4601467F
S113853002AB044809F085FE02BC00205DF80CFB88
S1138540443E0300E3F80000704707F04DBA000012
S1138550890001EB401000F1844002607047000084
S113856010B50446FFF716FE4A484AF6E851016082
S1138570C162016B01F00F01022913D1464A0121A6
S11385801160806B00F00300012818BF022809D194
S113859000221C214148FFF7DBFF00220021404854
S11385A0FFF7D6FF200A00283E4808BF24024FF2F6
S11385B00F0104804180BFF35F8FBFF34F8F3A48B0
S11385C03A4A016801F4E06111430160BFF34F8F3F
S11385D000BFFDE780B5002000F009F830B9BDE820
S11385E00440E3210FF2D800FCF7DCBF01BD2DE904
S11385F0F0422F4C216842428D1815F01F0108D01B
S1138600002802D44842054403E04842284400F1CB
S113861020052848A5F12006A84224BF2648864202
S113862003D3EFF30880854201D300202DE0FCF74B
S113863049FF81462148006810F0010718BF09F07E
S11386404AFF206801468D4206D2A84224BFCD21AC
S113865000F80119F9D206E02038002201E000F800
S1138660012B8842FBD32560304609F03BFFE22012
S113867001E006F8010BAE42FBD30FB109F008FF8D
S11386804846FCF725FF20682038BDE8F0820848FA
S11386900068704708300E404040084060300E408B
S11386A074300E40000000200CED00E00400FA05D8
S11386B00063002068520020C010002094ED00E008
S11386C06D6963726F2D696E7465726E616C2E6371
S11386D0000000002DE9F74F03291C4603DB2000AE
S11386E00AD0052904DA9349022002F003FDAAE026
S11386F042F004008DF8080002A8FDF75DFB009924
S11387009DF8080008700125200005D000984470E9
S1138710200A009988700325FDF71FFB009948552E
S1138720691C009A0C9889B24D1C50544FF0000AF1
S1138730DDF8389007E0009B41465819FDF79CFD91
S113874065190AF1010A0D985FFA8AFA10F80A709D
S113875038007AD00026742F4FF0000BB04637DA79
S11387604C2F59F8048B1CBF532F622F14D159F886
S1138770044B4C2F07D1A4B2A3464FF6FF70834598
S113878034D0022632E0532F30D15FFA84FBBBF1A0
S1138790FF0F2BD0012629E06C2F04D1404603F0B3
S11387A056F9841C22E0732F04D1404603F04AF9A1
S11387B0441C1BE0A7F130000A2838BFA7F130049D
S11387C014D3A7F14100072821D2A7F137040DE003
S11387D00024752F08BF012606D0762F08BF022675
S11387E002D0782F0FD1032659F804BBA4B2224635
S11387F0BDF8040012FA85F17118884214DA3B4678
S1138800B2184D491CE0772F08BF0426ECD03A4635
S11388104A49022002F06EFC15E0009901F805B007
S11388206D1C4FEA1B2B761EF1B20029ADB2F4D1B8
S1138830002C86D0B8F1000F7FF47DAF3B46404951
S1138840022002F057FC002000E0A8B2BDE8FE8F31
S113885010B53C4C20603C4801803C4802603C48D8
S1138860036010BD3EB500920C4606A90246029173
S1138870019300233448018832480068FFF72AFF37
S113888005463248006805804FF48A513048006834
S11388904480C180801DFDF777FA28463EBD03461B
S11388A0284802682948006801882948006803F0BC
S11388B0F0BC0020F3E700910293019221490B6878
S11388C0224909680A8822490968704700B583B0BB
S11388D001921C4A126800921C4A126813881C4AAE
S11388E0126803F0AAFC0EBD0022EFE780B50091E8
S11388F0FFF7E4FF03F08BFC02BD0021F6E71FB590
S1138900104C24680394114C246824880294069C17
S113891001940F4C24686488009403F0EEFC04B0C6
S113892010BD0B4800687047094A13681871106835
S113893041717047F40F0300381003001C1003004A
S11389406C1003008C6700208E7A00209067002052
S11389509467002080B500F095F8BDE8014096E0EA
S1138960FEB5044602F084FA0646204602F08EFA6A
S113897000229DF80010064203D186F0010318433B
S113898001D10198027820464FF6FF7506B32128DD
S11389901EDA4223022A424E09DA5A43324432F89A
S11389A01030AB4214D05B1C22F8103010E00FD111
S11389B0002206EB400703FB02FC37F80CE0AE454F
S11389C01CBF0EF1010E27F80CE0521C022AF2DB48
S11389D0344F354B37F8102033F810C09445B64166
S11389E0F643F60FAC451CBF0CF1010C23F810C084
S11389F00928B7F814C018BF0B2807D19F8A01EBC8
S1138A00070EE64510DAC91999820FE01D280DD129
S1138A10B3F83AE07F8F8E44BE4505DA33F8107020
S1138A20C91923F8101001E0A3F814C033F810009A
S1138A30904203D316B92046FCF707FF00261B48D3
S1138A40815DA14204D0761CF6B2112EF8DBF7BD8D
S1138A50112E16DAFDF743FD0446154800788442CA
S1138A6003DBCE211348FCF79DFD2221124811FBA4
S1138A7004F1084430F81610A9421CBF491C20F820
S1138A801610F7BD502200210748FDF738BC5022CC
S1138A90FF210448FDF733BC024A22F81010704746
S1138AA04C6A0020D869002088690020A0170300C0
S1138AB0C563002090170300286A002015E02F48A2
S1138AC00078704710B52E4C207860B900F00DF88E
S1138AD009F064FD0121217028B10188B1F5817F7D
S1138AE024BF007D2070207810BD10B5234C207861
S1138AF040BB09F028FD02462249012002F0FAFA9F
S1138B0001202070204C2078FF281BD109F046FD5D
S1138B10B8B140880006400E00F001002070102219
S1138B20FF211A48FDF7EBFB207801280AD1FFF753
S1138B30C9FF032806DBBDE81040B6211448FCF742
S1138B4031BD207010BD80B5FFF7CFFFBDE80140F7
S1138B5009F024BD70B504460D461646FFF7C5FF5F
S1138B60324629462046BDE8704009F067BD80B50D
S1138B70FFF7BBFFBDE8014009F085BD967E0020EC
S1138B80977E0020F8240300BD630020986C002029
S1138B90EC24030038B5FFF7FDFA09F098FD78B12D
S1138BA0FCF75AFE60B1094C2078FBF780FF0546BC
S1138BB02078FBF7BBFF3DB1BDE83140FCF74BBE6D
S1138BC0BDE83140FCF7F1BD31BD00008A7E0020D4
S1138BD07047000000B5A1B080787D22694605F099
S1138BE09CFB01001CBF694603F04DF821B000BD99
S1138BF038B50A460146104609F023F80446FF2C0E
S1138C0001D1182032BD05F033F90546204608F09D
S1138C1095FF284632BD80B502F038FFBDE802401A
S1138C20012010B5040014BF0848002009F0F5FD28
S1138C3050B1002CBDE8104014BF054A054A034654
S1138C400549042002F056BA10BD0000242A03008E
S1138C500C2A0300182A0300E029030080B5002031
S1138C600AF089FC00F0E0FC00B3684605F006FC5D
S1138C7093281BD1DFF8C01800F09DFADFF8BC0878
S1138C800AF028F90B200AF058FCDFF80C0A0068F7
S1138C900078012808BF02200AF0C1F8032002F07E
S1138CA0B5F900F0C6F802200AF08AFC01BDF0B55F
S1138CB0044683B00E46E0894CF25E01884204BF4C
S1138CC0208AB0F5805F154601D00020FEBD2078D3
S1138CD0002850D1207D80074DD5072E4BDB287806
S1138CE0AF7840B1112802D1032F04D143E01928F1
S1138CF008BF032F3FD132460321284602F07BFEF2
S1138D00022F06D0032F0CD0062F1CD0072F2DD0F6
S1138D1031E0082E2FDBEA790146601C00F0A6FB47
S1138D2029E00A2EA1BF697A0A010A32964222DB9F
S1138D3005F10A02019200912B7AEA790146601C3E
S1138D4000F000FC17E0092E15DB32460721284607
S1138D5002F053FE04460AF00BFC022802D100F094
S1138D6063FC40B12046FCF787FD04E000F05CFCA6
S1138D7008B900F07BF90120FEBD3EB5DFF81C59AF
S1138D80DFF8BC172B88044600F028F828788F21D8
S1138D9008421DD0902C02D1BDE8374022E005F0F6
S1138DA0B3F9012819D000F066FDB0B92888DFF8BE
S1138DB0F038DFF8F028DFF8F01802900194DFF8BB
S1138DC0EC08009000F0FFF9BDE83E40022022E1EB
S1138DD02046BDE83E400AF0C4BC37BD224601200F
S1138DE002F088B910B5DFF8B418DFF8C4480020E1
S1138DF088B0088001A9684605F036FB9DF80F008D
S1138E00A0700822BDF80C00208001A9201DFDF7E8
S1138E1033FA9DF814006073DFF8980801780800AD
S1138E200CBF0022DFF8902820460AF082FD08B02B
S1138E3010BD70B590B005A8DFF88018282207F09F
S1138E40B3FB05F061F908B100201EE001A802F0AF
S1138E50C8F80400DFF86858DFF8486804D00094C4
S1138E603246DFF860380CE005A8FCF706FD05A9DA
S1138E7001A809F0A1FF040006D000943246DFF8EF
S1138E804838294600F09FF9204610B070BD80B5DF
S1138E90684605F0F3FA93280AD1DFF8FC07006866
S1138EA000788DF80000012804BF02208DF800002E
S1138EB09DF8000002BD70B58CB004460D46164600
S1138EC02C2200216846FDF71AFA8DF80240ADF80D
S1138ED0006001A80AF00DFC8220ADF82600FFF71F
S1138EE0D6FF8DF82800FFF7A4FF2946684609F04D
S1138EF067FE04462246DFF8D417012002F0FAF890
S1138F0020460CB070BD2DE9F046DFF89067DFF81D
S1138F10C0173388DFF88C97044685B0FFF75EFFEF
S1138F20307870258F21084206D04A46DFF8A4170E
S1138F30042002F0DFF837E0FFF77BFF68460AF011
S1138F40D1FA0098DFF890A740F0800000906846BE
S1138F500AF0D2FA0AF0FCFADFF880170870FFF77B
S1138F6096FF0546DFF878070768DAF8000038B19D
S1138F70082C02D00AF0C6FA10B9DAF80000074348
S1138F802A460021384609F04EFF054608B93480C8
S1138F900AE001954A46DFF84C07DFF80437DFF8AA
S1138FA04817009000F00FF9284605B0BDE8F08698
S1138FB00120A8E70220A6E70420A4E70820A2E7EE
S1138FC002200AF0D8BA01200AF0D5BA00200AF02B
S1138FD0D2BA10B5DFF8C44620788F21084282B097
S1138FE018D0DFF80807DFF8B836DFF8B826DFF85E
S1138FF00017009000F0E7F82088410603D5BDE88B
S11390001640002007E040F020002080BDE8134017
S11390100AF08FBD13BDDFF8841610B50446002096
S1139020088082B0DFF8CC06017869B100210170B4
S1139030DFF87C0690F8290001281CBF002009F005
S113904049FF002000F0EFF9DFF89006007801F006
S113905012FE30B10090DFF8A036DFF8482600F0A9
S1139060B0F82046BDE816400AF071BC80B50BF09C
S11390702CF828B10246DFF88416042002F03AF8EE
S1139080FF20FCF7FEF8FF20FCF7B0FBFF20FCF705
S1139090B0FBBDE80140FCF7F3BB70B5044686B0F5
S11390A094F828000228B8BFDFF854162EDB01A874
S11390B005F0E4F9054602A80BF084FADFF8DC6554
S11390C03088BDF808309DF80420DFF83816009089
S11390D0012002F00FF830880921084218BF932DAF
S11390E006D0BDF80800800714D4DFF81C160DE084
S11390F0C0070FD5932D0DD1FFF7C9FE02281CBF61
S113910094F82800022805D0DFF8001600F053F880
S1139110002000E0012006B070BD2DE9F041DFF829
S11391207C55064682B0288800900C4696F8283074
S1139130B278DFF8E415012001F0DCFF28788F21F4
S1139140084236D03046FFF7A8FF70B368460CF0EB
S1139150C4F82878DFF85885DFF8B475C00609D557
S113916097F900309DF900104246304600F066FA47
S113917001281EDB2C2231464046FDF77DF8DFF83E
S113918034650020307044B110222146DFF82805F0
S1139190FDF772F83078401C30709DF8000038708C
S11391A0288840F01000288003E0DFF8681500F0FC
S11391B002F8BDE8F381012001F09CBF009743460B
S11391C02A46DFF86015042001F094BF2DE9F0432E
S11391D0DFF8C844DFF850152288074683B004201E
S11391E001F088FF20888F21084244D000F051F814
S11391F003D0FFF7E3FF04203CE0810648BF0020D2
S113920038D4C00631D500F057F818B100F04AF848
S113921001202FE02078032108421CBF96F8290082
S1139220012840F6B83911D0484609F053FE002011
S113923000F0E0F850B101904346DFF8E00400F09C
S113924035F82078800748BF062013D400F015F8BD
S113925050B101904346DFF8C80400F027F82078A5
S1139260400748BF072005D42DE000F00AF8FFF7B7
S1139270AAFF03202FE0BDE8F783DFF8B0040088DD
S1139280D1E0DFF8AC04DFF86814009043462A46C6
S1139290704740F0400039002080DFF80854DFF8C0
S11392A00084704701904346DFF8880400902A4602
S11392B03946042001F01EBFDFF8F463DFF8287498
S11392C0B0780AF03AB9494603B0BDE8F043DFF894
S11392D02404FBF73BBBBDE8FE439CE610B5044603
S11392E0DFF8B80300788F21084209D02288DFF81C
S11392F04814012001F0FEFE2088DFF8B4138884AE
S113930010BD80B501462C22DFF8A403FCF7B4FF9E
S1139310DFF8A013002008708020DFF88013088095
S113932001BD2DE9FC41DFF8CC13DFF870430020C8
S1139330087001202288DFF8041401F0DBFE207895
S11393408F21084254D0002000F06DF82088DFF807
S11393509843D44DDFF84883D54FDFF88063C107C5
S113936016D500F061F908B93078B870FFF761FDDF
S1139370384609F078FC07003AD001904346DFF8FC
S1139380C00300902A462146FFF71DFF052026E072
S1139390000727D53869009065A3072200F03EF83E
S11393A04CF25E0000904FF6FF72002307F11C019F
S11393B01046FFF7A4FA070006D000972A46DFF804
S11393C08433BF49FFF7FFFE67B1DFF87C030090E9
S11393D0019743462A462146FFF7F5FE0820BDE8DB
S11393E0F64118E6307801F046FCBDE8F341F9E4B3
S11393F0BDE8F3811CB5AE4C01904EA320690090EA
S1139400022200F00BF800F026F8040004D00094C7
S11394100420CE4B00F01BF8204616BD4FF48051BB
S11394201120FFF71FBA1CB5A14C019098A3206925
S113943000900622FFF7F2FF00F00DF8040004D0BC
S113944000940420C24B00F002F8204616BD954A51
S11394509B4901F04FBE4CF25E0000904FF6FF7244
S1139460002304F11C011046FFF749BA2DE9F04F1F
S113947085B080460F461546FBF7BDFB06460295B0
S11394800196009783A303224FF480511920FFF71C
S1139490E9F903A804F0E4FFAE49AF480988084499
S11394A000904CF25E07002002F055FA1DE00821FE
S11394B003A802F071FA504602F04DFA584602F041
S11394C059FAA08802F056FA484602F044FA504687
S11394D0FCF7D0F902F03FFA284602F03CFA009873
S11394E000990078401C08706D1CEDB2B542BEBFF7
S11394F000990978042911DA984901EB05142846E2
S113950094F80690FBF766FE8246694890F82600B8
S113951000064CBFB4F802B0BB46C8E74FF6FF7272
S11395200097002341461046FFF7E9F979E000006F
S11395307700000077750000784F0300E093040083
S1139540AC4F03002DE9FC4F83B000269DF8382072
S11395501201ADF80020674A12786AB1544B1A69B7
S11395608A4209D10146082203F11C00FCF7CEFE11
S1139570441EA441E40F00E0002400253DE00F98C0
S11395800F99BDF80020B6B23044019006F10800EE
S113959080B2461C0F5C0F98B1B202F02EFA8046DE
S11395A0B61CBDF800200F98B1B202F026FA81462D
S11395B0B01C0F9980B211F800A0401C80B2861C28
S11395C011F800B0C4B13B480078A8B901993A48F1
S11395D00822FCF751FE37483749007801EB0011A7
S11395E00F72A1F80A80A1F80C9081F80EA081F8FE
S11395F00FB0401C2F4908706D1CE8B29DF838105C
S11396008842BCD36CB12B48007850B99DF80C004B
S113961038B19DF8100005B0BDE8F04F0818C0B28D
S1139620E8E605B0BDE8F08F00B585B0684609F0FE
S113963059FF009800F0010005B000BDF0B500F13D
S1139640260583B0287802F12607800638780C4670
S11396501E4602D5800602D415E080060ED4787921
S11396600190009622466B793D49022001F042FDAB
S11396707879697930186118814202DA4FF0FF3045
S1139680FEBD884201DA0120FEBD0020FEBD0000BF
S11396907776000077757500CC7300207A7E002001
S11396A000500300F84F0300D84F03001850030084
S11396B01C770020D77E0020487700202850030024
S11396C050500300645003007C5003009450030086
S11396D0B8500300E050030078610020D87E0020D9
S11396E07461002008510300FC500300285103005A
S11396F020510300147700204C51030068510300EB
S113970098510300D0510300005203003C5203005F
S1139710D97E00206C52030088520300E0520300FB
S11397200C5303004051030048530300A06300207E
S113973030530300C452030074530300A4530300C2
S1139740C85303002C540300E4530300FC530300E8
S1139750185403006E7E0020787300207866002081
S11397604C540300DFF8A0291268127882420AD010
S113977019B1012A03D1022805D000207047022A1A
S113978008BF0128F9D101207047DFF80C1C887547
S1139790704710B5DFF870492068407B112805D068
S11397A040F203110FF20C00FBF7FCFE216841208C
S11397B0487310BD6173736F63696174696F6E2E52
S11397C06300000080B50220FCF78FFEFCF796FED4
S11397D000F0E9FB042805D1DFF8BC0B417D491DED
S11397E0417505E04FF47A71DFF8B00BFBF7AEF882
S11397F0BDE80140FCF783BE10B5DFF89C4B0020A8
S1139800E0742078FF2803D008F098F9FF20207036
S113981010BD70B582B004460D4608F019F906462D
S1139820B01D0BF081FD00F44040B0F5404F0CBF7B
S1139830062000203118097C4A00490802F00E0273
S113984001F038018918401800F11106DFF8100CF6
S11398500068005DF6B286420BDA831BDBB20F2B85
S1139860A8BF0F230020009032462146284608F066
S113987004FA304676BDDFF890080068407B332850
S11398801CBF4328532801D1012070470020704792
S11398901FB501200BF076FD0BF079FD0BF092FF64
S11398A0F0B1DFF8F44AA07910B104F10A0005E040
S11398B020786946FFF7ADFF0DF10300DFF8DC2ADD
S11398C000211170617901F029F9FFF795FF00F08B
S11398D008F80DF0DAFD0BF0ABFD012001F04DFAB4
S11398E01FBD10B500F0CAFD017B032918BF042970
S11398F005D1408801F018FA08BF032008D001F010
S1139900D3FA044601F0D4FA214603F0E4F9022024
S113991001F0D6FA0DF0FEFE00F0A4FDBDE8104003
S11399200DF0DFBD38B5DFF8704ADFF8585BA0757D
S1139930FFF762FF00214FF6FF7001F0E7F9286896
S1139940417B032918BF00291ED0332918BF43299E
S113995014D101F08AF92868017B032918BF04296E
S113996006D103214173A07DBDE83240FCF720BE3F
S1139970A07DFCF71DFEBDE83140B2E72121417313
S1139980BDE831400AF0FABB31BD10B5DFF87817F5
S1139990DFF8044A0968002048734FF6FE700EF0A1
S11399A0BBF94FF6FF700EF0BFF901F05EF9A07D30
S11399B0BDE81040FCF7FCBD10B504462346182250
S11399C001F055F9DFF8C40A0021017114B1FF2C2C
S11399D002D10121017007E0012100F8041BA1005C
S11399E0491C0902FAF7B2FF00F03CFD002010BD4B
S11399F0DFF8981A00200871DEE730B50D4689B00B
S1139A00044668690FF2901107902346287C06905B
S1139A101622E8890590287B0490E87A039095F94A
S1139A200A00029028890190009501F016F8287B1D
S1139A3000280CBF4FF6FE700EF06AF92B46224642
S1139A4009B0BDE83040014601202DE9F041DFF8BE
S1139A50B84680462068407B00280F4616461D46BF
S1139A6049D1300047D0052E45DA00F09BF842D1A9
S1139A70FCF746FD00283ED1FCF744FD08B1042E56
S1139A8039DB287B032816D14FF6FE70874214D1A8
S1139A90012E08BF002710D0022E2CD10EF038F969
S1139AA04FF6FC71884202DA0EF032F901E00EF052
S1139AB0F4F9074601E0012E1DD0B8F1000F0CD0D7
S1139AC0287B03280CBF01210021012E0CBF01209B
S1139AD000200AF096FD01005CD12946384600F0CA
S1139AE0DDFF010056D1FCF705FDFCF7EAFC20B1CF
S1139AF0FCF708FD08B170204CE02068DFF8987886
S1139B00407B33281EBF53280020F875304600F0F0
S1139B10A7FF387F20B1FCF7F5FC08B90EF04EFB27
S1139B20287B032803D12846BDE8F0413FE0082202
S1139B30294607F10A00FCF79FFB287B0328A8BFEE
S1139B400020B874FFF758FE9420B875B87C2168DB
S1139B5000280CBF012031204873012300203875F0
S1139B602068817B4809020003D1BA7F03FA01F11E
S1139B7008E001F01F0140F0180003FA01F105228A
S1139B8041EAC061052009F02CFF010002D02268DF
S1139B9000215173BDE8F08142423870574242427D
S1139BA057424400DFF8880C00780B28704710B542
S1139BB004460022082101F005FA08B1012010BD75
S1139BC00EF0A6F800224FF6FF7100F08BFF217C07
S1139BD0204600F0A3FF6269E189207C0DF0CDFDF1
S1139BE0DFF824050068007B012808BF0BF093FA16
S1139BF0FFF777FE002010BD38B5DFF80C450146AD
S1139C002068407B002802BFDFF8240C00780B2872
S1139C1001D0702032BDDFF8845721B1022205F152
S1139C200800FCF729FB684601F047F808B19320C7
S1139C3032BD9DF80030142201F019F800F0BAFF8B
S1139C40010050D19DF8000000F00AFF2068007B5D
S1139C50012818BF022807D0032818BF042825D1DB
S1139C60002001F065F808B300F0BBFF2068007B1A
S1139C70032814BF04280EF025FBFFF732FE012051
S1139C800EF046FB01002ED12068007B032818BF8C
S1139C90042827D1287A800724D50522DFF8E8177D
S1139CA0012000F034F801001CD032BD21681320DB
S1139CB048730020DFF8E016087501222068817BD4
S1139CC04809030008BF02FA01F107D001F01F019F
S1139CD040F0180002FA01F141EAC06105220720B0
S1139CE009F07FFE002032BDFF2210E038B50446A3
S1139CF01046032818BF04280D4601D0022032BDA7
S1139D0000F0AEFE29462046BDE83440ECE72DE9DC
S1139D10FC41804600F0B2FB0D46017B012916464A
S1139D2027D0407B022818BF032822D1332001F01A
S1139D30C7F82806DFF86076400F14BF0522BA7F03
S1139D402946052009F04DFE044698B9FFF754FD55
S1139D500DF0E6FF38815FEA080014BF02200120FD
S1139D60B87407F10A0000F0C0FF00203875FE75D2
S1139D7000E070240194009543462C220FF20C015C
S1139D8000F06BFE2046BDE8F681000042424442EA
S1139D900000000038B5044607F05AFE0546204688
S1139DA00EF0D9FA2C1820460BF0BEFA4FF6FF51EC
S1139DB001402046BDE834400BF0BDBA70B588B010
S1139DC00C4616461D4630B9204607F09FFA03A9F3
S1139DD00EF0EAF903A807218DF808100190310A62
S1139DE08DF80A1001200C998DF80B1000908DF855
S1139DF00960042302AA012120460EF0D6FC06467F
S1139E00FF2E18D021460EF0E2FA15B93046FFF7BE
S1139E10C1FF0D9808B930460DE020460EF0C6F992
S1139E2018B1304607F0A0FA01E000F010FE304609
S1139E3007F084FEFF2008B070BD2DE9F14F84B017
S1139E40894615469B4600274FF6FF7455B12846B0
S1139E500EF0E7FC8046687840084FF0010A00F0F5
S1139E60010605E048460EF01AFBBA460026804675
S1139E7000F099F8032818BF042800F091800BF132
S1139E800101C9B2484608F000F88346400800F0D2
S1139E9001008DF808005FEA0B6000F0C3FC58BFB6
S1139EA04BF0800B022806D1DFF8E0159DF8100076
S1139EB00978084301D1022721E040460DF0D7FE7E
S1139EC0ADF80000032148460EF03FFA040008BF35
S1139ED00124BAF1000F03D0281D0BF025FA01E08C
S1139EE0BDF800000146009401235A4640460EF096
S1139EF054F904464FF6FF70844208BF0127EDB1C0
S1139F009DF8100018B94FF6FF70844204D1281D43
S1139F100BF00AFA014600E0214601200190009767
S1139F20334622464046FFF749FF9DF8080050B9E2
S1139F304FF6FF7140460EF0CDFF04E03A4621464D
S1139F4040460FF08BFB5FBB9DF8080080B1414693
S1139F5020460EF0E0FF6C490968896A0E2212FB64
S1139F6000F211444A7942F040024A710FF021F89C
S1139F70B5B1DFF8005C85F800900DF0C9FE0EB1B4
S1139F80002605E09DF81010002914BF03260126C1
S1139F9001464346224630460FF0B2FBFF202870AC
S1139FA005B0BDE8F08FDFF8DC040068007B704783
S1139FB02DE9FC478046894601A800210160164628
S1139FC048460EF0D2F905465FEA0800DFF8A87BA0
S1139FD008D028460EF025FC824628460EF016FCD2
S1139FE0044604E048460EF05AFA82463C460020F5
S1139FF0009004233246494601A807F03EFE0DF1C5
S113A00005000BF091F981469DF807605FEA0800AE
S113A01006D0082239462046FCF778F900286FD18B
S113A020394F3868C17E11B16978890713D55FEA61
S113A030080110D0407B022808BF002E0BD14846EF
S113A0400DF06AFE0DF021FA992300F00FFE99201D
S113A050FCF7AEFA54E000F0CDFF002818BF002E44
S113A06003D09420FFF75EFC4AE000F0C3FF002811
S113A07046D050460EF0C2FDFF2818BF5FEA080123
S113A08004D13868408851460EF045FF0EF091FF28
S113A0903868C24E41885246484600F023FD38686D
S113A0A0BD4C417B012916BF312911214321417344
S113A0B00220FCF719FA40F6B8313046FAF746FCAC
S113A0C00EF000F9002060753868C17E19B9304679
S113A0D0FAF732FC11E0B8F1000F05D0697889076E
S113A0E002D5FFF7D5FB08E0007B042805D1052144
S113A0F03046FAF72BFC06206075AD20FFF745FBD0
S113A100FCF7B9F9BDE8F387787700202DE9F04F23
S113A1108DB082460EF029F981460EF06BF903905A
S113A12050460EF0BCF9804602AB052205A9504604
S113A1300FF0DCFD02288DF80000019022D050467B
S113A1400EF009F90399944DDFF8386308189DF867
S113A15008100F185046FFB2394607F096FEFC1C53
S113A16001284FF6FF7B0ED0022813D0042800F0FC
S113A170F08006281AD007286CD0082827D07C281D
S113A18000F0AD8005E13B46002251460020FFF778
S113A19054FEFEE03068407B012804BFA87C002800
S113A1A003D13A465146FFF703FFF2E040460DF073
S113A1B0F6FF014659451CBF40460FF01BFA3068B4
S113A1C0407B022802D14046FBF7FFFAE1E0002081
S113A1D00BF0D8F8791C00F0E3F88146E1B200F006
S113A1E0E0F80446B91D00F0DBF807465F45EDD002
S113A1F00EF068F83068407B132808D100F0F1FCB9
S113A20050460EF04CF9014620460EF084FE3068AC
S113A210407B022818BF13281BD138460DF07CFD63
S113A22048460DF081FD0021002000F077FC4146F6
S113A230204600F06BFDE878DFF8D41B087000F0CE
S113A24011F93068417B132903D12321417309F0AB
S113A2507AFC9EE003980121484407F0F2FC04468E
S113A2600023002221460120FBF7B0FA204607F024
S113A27065FC3068407B022802BFDFF8886B3079C8
S113A2800028E6D140460FF051FD002806D09DF885
S113A290001005AA50460FF043FD002879D003F0C2
S113A2A06BF995F91D2001219140C1EB011189B28F
S113A2B090FBF1F201FB1200451C0020FCF714F99D
S113A2C00198012806D130700822414606F10C009D
S113A2D0FBF7D2FFA9B2301DFAF738FB59E050461C
S113A2E007F0B6FBC0194178652904BF80786D2852
S113A2F04FD15B49096811F80A10E0B2884248D28C
S113A3000822414603A8FBF7B7FF6B460022E1B2DF
S113A31050460EF025F900283BD19DF80000FF2897
S113A32037D0DFF8F44ADFF8F45A0120207085F8BA
S113A33000A0FCF7DEF89DF8001003A8FBF73BFA39
S113A340FCF7DDF8FF202870002020709DF8000045
S113A3501DE050460EF0C2F804460FF6083000889F
S113A360ADF80A0002230020019000900DF10A02CA
S113A370012120460EF019FA0546FF2D09D0214689
S113A3800EF025F80021284603F08AFA284607F043
S113A390D5FB0DB0BDE8F08F7C61002098770020DC
S113A3A0C9B2504607F028BE70B50220FCF79DF8EC
S113A3B0FCF7A4F8DFF87C54324E002028700BF030
S113A3C001FA28B13068C07E10B9FFF761FA3DE0A8
S113A3D00BF0F8F9DFF8484A10B900F00BFE58B159
S113A3E0607D48B1C8212846FAF7B0FA607D401E66
S113A3F0607503F049FB29E03068407B132809D0DD
S113A40000F0F8FD30B93068407B11281CBF4328A8
S113A410412803D1A07DFFF785FA17E0022818BF71
S113A420032803D0002818BF21280FD10024DFF807
S113A430F45907E0FCF762F8002000F09EFCFCF7FA
S113A4405EF8641C2978E0B28842F3D3BDE870401A
S113A450FCF755B8DFF8C8190020487570470000AC
S113A460D05F002080B5FCF757F8FF281ABF0748D3
S113A47000780020BDE802400FF0B1B80148006840
S113A480704700007877002000F8FF078C770020E1
S113A4902DE9F04F97B0804606A8102104F030FD56
S113A4A00DF1090305220EA940460FF01FFC0746D3
S113A4B00026022FB24600F0AD81404607F0C8FAEC
S113A4C00446A01D0AF030FF059004F109000AF0CB
S113A4D02BFFADF80A0004F10B000AF025FF8146BA
S113A4E0DFF84409006810F808000190012F6AD1D0
S113A4F001200490002706210EA8794344182088DF
S113A50002285CD1E07800F088F91B2857D1E07864
S113A510C11C00F083F9192851D1E078011D00F025
S113A5207DF94A284BD10525E0782818411C00F014
S113A53075F94FEA002BE078291800F06FF95844B8
S113A54080B2932800F03F0B1BD1E0782818801CC0
S113A5505FFA80F9002000900F234A46414606A87E
S113A56007F08BFB09F10F01C9B2404607F044FD27
S113A570064609F11101C9B2404607F03DFD814686
S113A58016E0412814D1E078281800F046F9DFF8E5
S113A5909C180978401AA0F14D0ADFF89408006865
S113A5A0007B032812BF04284FFA8AF00FF0D6FB71
S113A5B00BEB0500851C2179EDB28D42B4D37F1CD1
S113A5C0052F0BDA97E7CDF810A004F10D000AF07F
S113A5D0ABFE064606A94046FFF71BF9F00B8DF8C3
S113A5E0080000230D2241460620FBF7EFF806AFD2
S113A5F0B878C0F3C3000390787800F00F04019892
S113A600202800F00FF9ACBF9DF826500025022841
S113A61014D1BDF80AB00DF083FB83450ED10AA80E
S113A62000F063FB0198202806DB08220DF11B01D2
S113A6300AA8FBF76BFE08B10DF0DAF90598B0F53E
S113A640004F11BFB0F5624F26F4404040F6FF7151
S113A650884276D101982028C0F2DC8000220821AB
S113A6600DF11B0000F0AEFC00286AD170480078A0
S113A670012847D1019427229DF80800BDF80A302B
S113A6800FF2E471DFF8EC64DFF8A8B700F0E4F946
S113A690DFF8A40700788DF82A008DF834408DF88F
S113A6A035500822BDF80A00ADF828000DF11B0151
S113A6B09DF808008DF82B000BA8FBF7DDFD00F0DA
S113A6C0B1F801281CBF332886F80080FBF711FF7E
S113A6D0DBF8000078B10DF101000AF0FCFD6846DA
S113A6E00AF0FBFD9DF900209DF80110DBF8003015
S113A6F00AA8984702E00AA803F004FFFF2030707C
S113A700FBF7FDFEDFF81867307D002819D100F053
S113A71071FC002824D00120F0740022082106F1E5
S113A7200A0000F04FFC20B1BDF80A0031898842CC
S113A73008D008220DF11B0106F10A00FBF7E6FD23
S113A740002867D19DF8080028B900F06BF831287B
S113A75018BF33285ED101212046FFF703F80028F3
S113A76058D09DF81800002802BF78780009022804
S113A77050D1FFF783FE017BBA7802290CBF02F0A7
S113A780040202F0800222B9022943D040884845DD
S113A79040D13078DFF8A476FF2814D07079854250
S113A7A00DD1DFF8881696F9020091F9001088425D
S113A7B009DB2FD170783978884204D32AE0281A2B
S113A7C0C0B2812826DAFFF717F886F800804046E1
S113A7D007F0A6F9387870700DF11B01DFF84C060C
S113A7E00078B07003980F28B4BF401C0F20F0709D
S113A7F034717571A6F818900822BDF80A003081EA
S113A80086F807A006F10A00FBF736FD049800B1AC
S113A8100120B07117B0BDE8F08F811CC9B2404669
S113A82007F033BBDFF808060068407B7047000080
S113A830E8630020987700202DE9FF410546DFF802
S113A840E045012020750E46174608F031FC00282B
S113A8501AD1A846B8F1010F18BF002D15D10097E1
S113A86033462622ACA100F0F8F8FBF742FEDFF8ED
S113A870D005026810003946304601D0904701E007
S113A88003F05DFEFBF73BFED5E0DFF8A455286836
S113A890407B23280DD100F007FB044600F008FBA1
S113A8A0214602F018FA022000F00AFB0AF0C0FD6B
S113A8B0C1E0002FFCD121281CBF0428532802D159
S113A8C009F05CFCB7E000F095FB002800F09280F2
S113A8D02678FF2E05D1E07C00280CBFAB20942005
S113A8E09DE02868007B032816BF0428012100216D
S113A8F02079FEF737FF08B9982090E0FCF7F9FEBD
S113A900052130460DF021FD29688873FBF7B3FD5E
S113A910A07CF8B900F0F4F902462189208B0EF0EE
S113A920C4FE00285DD19420FEF72FFF0220FBF720
S113A930DBFD2968DFF80C054A7B012A05D0312AA2
S113A94012BF332A097B04294DD1C821F9F7FEFF30
S113A95003204DE00DF0DCF90646208B002100F0C9
S113A960D5F900F047FB60B1300003D04FF6F87022
S113A970864206DB0DF091FA29684988884206462A
S113A980F8D030460DF0C8F9207809210DF0C2FC4A
S113A9900DF0CAF906208DF8080000F0B1F98DF821
S113A9A00900022300200190009002AA2868408830
S113A9B001210DF0FAFE0646FF2E12D028684188C8
S113A9C030460DF004FDA07C02281CBF3046FFF782
S113A9D0E1F900F03CF80746304607F0AFF8002FE5
S113A9E0A1D194201BE04FF41671F9F7AFFF0020BA
S113A9F0607520E02868407B132816D100F0D2F857
S113AA00BDF800000DF090F900F0EBF82868017B28
S113AA10032918BF042905D1332141739620FEF779
S113AA2081FF08E0FEF75DFF05E0B8F1040F04BF05
S113AA3030460FF097FA4FF400600DF0AAFB10B9FE
S113AA400FF017FC08B102F07DFFBDE8FF81002282
S113AA50002130460FF0B2BB0090032007F0AABBE0
S113AA6038B5DFF8CC5304462868017BA14203D0F3
S113AA7004732046FBF799FD2CB108F04BFA2868C3
S113AA80007B042805D1FBF703FDFF2808BF012044
S113AA9000D00020BDE8324003F01EBA38B50D46A0
S113AAA0044695F90A0000F0B1FA08B18B2032BDD2
S113AAB0DFF87C030268E97A91730068A97AC173AC
S113AAC020460DF029F94FF6FE7084420CBF4FF674
S113AAD0FF7028890DF028F92889DFF844130881CC
S113AAE0002032BD38B50C4615460DF015F90DF0B1
S113AAF0A7F92946204600F009F9C9480178FF2939
S113AB0018BFC07805D1FFF74EFA01280CBF00200A
S113AB100120BF49087031BD424242007FB504465E
S113AB200D4600F03FF8C24E94B1C74A00212846B2
S113AB300CF023FE306801788DF804100822007BA5
S113AB408DF80500214602A8FBF796FB0FF0E6FC02
S113AB503068817B8DF80310C07B8DF802000DF006
S113AB60DFF8ADF800000DF0D3F8ADF8060000F002
S113AB701BF87FBDE4630020C47700201FB50446A2
S113AB8000F010F81CB100208DF8050007E00DF06E
S113AB90BFF8ADF806000DF0C3F8ADF8000000F002
S113ABA003F81FBD684635E01023072269460020DC
S113ABB00FF045BF00B58BB0FFF7F4FFBDF8000000
S113ABC0ADF8180004A99DF803008DF81B009DF84A
S113ABD002008DF81A00BDF80600FFF75FFF0BB006
S113ABE000BD1FB5012000F0A3F804460FF0A1FC3E
S113ABF0FFF7D8FF1CB900224FF6FF7103E0FFF7FF
S113AC003DFC4188021DBDF80600FFF76BFF0FF005
S113AC10C4FF1FBD01461023072201200FF00FBF00
S113AC2038B50820FBF761FC0446FBF767FC804D50
S113AC308648296800788873FBF75EFCA04208BF49
S113AC40FBF7EFFB00210020FFF768FF9B2300F0D8
S113AC500DF89B20FBF7ACFC2868002120F8441F6A
S113AC604180BDE83140FBF74ABCA37D132269A1B2
S113AC70032007F09FBA10B50446FCF7DFFAFF285B
S113AC8001D18A2010BDFFF7CDFD022818BF03288B
S113AC9001D0702010BD6D4804700820FBF724FC1F
S113ACA0FEF780FF01D03D2010BD694802F0B7FDDA
S113ACB008B9A12010BD002010BD1FB50446684688
S113ACC0FFF7A8FF9DF80500010008D0052806DA63
S113ACD0574909689DF804200978914201D09320CE
S113ACE001E02070002004B010BD1FB50446684682
S113ACF0FFF790FF082202A92046FBF7BDFA1FBD0B
S113AD004B4954480968097B405C7047484A1368BA
S113AD10588019B90822181DFBF7F1BA0822181D2A
S113AD20FBF7AABABDF808004FF6FF7188427047D6
S113AD3010B504464348007AC00784B007D500F034
S113AD4011F8FFF7EFFF02D000F012F808B100206D
S113AD5006E024B1BDF808006946FFF7D7FF0120DB
S113AD6004B010BD0A230A22694601200FF067BE11
S113AD700822FF21684600F025B970B5314D04461C
S113AD80287AC00784B00CD5294E306841884FF624
S113AD90FF72914207D100220821001D00F012F930
S113ADA008B100201DE044B10220FBF79DFB4FF4E5
S113ADB0F0412846F9F7CAFD12E030684188ADF841
S113ADC008100822011D6846FBF756FA0A230A22D6
S113ADD0FFF7ECFE02230B221F4900200FF02FFE89
S113ADE0012004B070BD1D4A107048B11C48008891
S113ADF0010005D04FF47A714143101DF9F7A6BD47
S113AE0070470000A47700201448007870470000C1
S113AE10E77E00204242000080770020E4630020A7
S113AE207C610020C5630020D05F0020BA7B002035
S113AE307877002018790020BB7B0020B97B0020A4
S113AE401C7900209877002000F8FF07DB7E0020A3
S113AE5021AC0000A45403009E7A0020B87700209F
S113AE60A263002004600000425742420000000038
S113AE7000210FF2E412535C834201D10120704798
S113AE80491CC9B20829F6D30020704700210FF2EB
S113AE90D012535C834201D101207047491CC9B2CE
S113AEA00829F6D300207047684800684088704736
S113AEB066480068001D704764480068C07E70479B
S113AEC038B5624D624C296848730228614915D12E
S113AED02868007B04281CBF0846F9F72DFD286864
S113AEE0007B03281EBF04282046F9F725FD2868A7
S113AEF04069C00054BF9024BC2405E000200870C1
S113AF00207091240FF062FE204607F0F9FD50B93D
S113AF10234613224CA1032007F04CF92046BDE838
S113AF203240FBF745BB31BD48480068407B00F028
S113AF300F00704745480068407B00F00F0002286E
S113AF4001D1012070470020704738B50446FFF74F
S113AF50F1FF3E4D28B92868407B032801D0932097
S113AF6032BD0CF0DDFE20812868C07BA072286809
S113AF70807BE0722046FFF7B8FE0020207304F1C6
S113AF80140104F110000CF0CEFBE081002032BD6E
S113AF9070B52E4D2E680C46FFF7CCFF20B9707BA0
S113AFA0032801D0932070BDF07B20702868807B3B
S113AFB0FCF759F860702868807B00F01F00A070CF
S113AFC0002070BD10B5002300E05B1CDCB28C4295
S113AFD005D210F8014B9442F7D0002010BD012097
S113AFE010BD80B50821FBF77BFF08B1002002BD2E
S113AFF0A52002BD15480068407B01281CBF3128EC
S113B000332801D1012070470020704710B5044651
S113B010FCF7D3F8010002D10C490968CC7310BDC8
S113B0200A48006890F90F00704708480068807B60
S113B03070470120704705480068807B400918BFAD
S113B0400120704700000000424200007877002091
S113B050607A0020587A00200001020304051D20B4
S113B0600203040508090A0B4FF6FF71884207D052
S113B070010A01D0002070473E490978084000D0F9
S113B08001207047020A07D13A4A1378002914BFF5
S113B090184323EA000010707047830800EB5373D1
S113B0A0C108DB080122A0EBC30002FA00F000EBA8
S113B0B0012080B27047F8B504460D4616461F4677
S113B0C0FFF7D2FF58B13A463146202007F0D0F9B5
S113B0D01DB125A1202007F0C3F927480480F1BD44
S113B0E080B5FFF7C1FF20B1BDE802402020FDF785
S113B0F016BA01BD0CB480B50A4602AB012104E0C6
S113B1000CB480B50A4602AB0021FFF7D4FF01BCA2
S113B1105DF80CFB2DE9F04182B00024174DDFF8F7
S113B120608012A712A6E0B2FFF7B7FFFFF79CFFFB
S113B130002814BF304638460090224658F8243080
S113B1402946202007F07EF92020FDF7E8F9641C49
S113B150042CE8DBBDE8F3810122FF2101E0012298
S113B16000210448FBF7CBB80D0A00006E6F000005
S113B17059455300DB630020727E0020D43B03005A
S113B1800861002080B5FFF788FFBDE80440012175
S113B19078E780B5FFF781FFBDE80440002171E73F
S113B1A0F0B53F4B3E4CB0FBF3F304FB13004FF4FC
S113B1B06164B0FBF4F40C714FF461650C796C4379
S113B1C0051B3C26B5FBF6F54D7101224D7916FBA6
S113B1D00544001B887100244FF4FA6008808A70CB
S113B1E0CA702E4801E00022641C9C4236D28D783D
S113B1F0170003D0022D08BF1D2602D0461916F8E9
S113B200016CCF78BE4203BF6D1C8D7001257D1C7F
S113B210CD708D780D2DE7D10A88521C0A80012546
S113B2208D7092B2550802EB9575AD08B2EB8505A9
S113B230D9D1642592FBF5F5642606FB15255DB985
S113B2404FF4C87592FBF5F54FF4C87606FB15224A
S113B250521E9241D20FC7E70122C5E7F0BD10B5D7
S113B26088B0044605A9FFF79BFF9DF81A009DF8D6
S113B27017309DF816200B49039004949DF819008B
S113B28002909DF818000190BDF814000090064843
S113B2900088FFF72FFF08B010BD0000183F03001F
S113B2A080510100F43E0300727E0020FAF706BBD1
S113B2B0FAF7B5BA2DE9F04104460D46164698460C
S113B2C0FFF7D2FEA0B1002710E0EA5D4146204618
S113B2D0FFF716FFF81007EB10700011A7EB001032
S113B2E0062804BF2046FFF7FBFE7F1CB742ECDBB9
S113B2F0BDE8F081002B14BF3CA33DA3DAE738B5C9
S113B30004460D46284600F09DFB0246691CFFE7F3
S113B310204601B0BDE8304036A3CBE700B587B086
S113B320017806913E224178059181780491C17893
S113B3300391017902914179019181790091C37955
S113B340324833490088FFF7DBFE07B000BD0146F1
S113B35000220220FFE72DE9F84F8A469346002594
S113B360814626A626A70FF29008284C08E04246FC
S113B37020883146FFF7C4FE2088FFF7B1FE6D1C1C
S113B3804D450EDA2088012308220AEBC501FFF798
S113B390B1FFBBF1000F02D1681C4845E7D13A4622
S113B3A0E6E7BDE8F18F2DE9F041184D0446288801
S113B3B0FFF75AFEC0B10120002612A70FF2480879
S113B3C0E1070DD518B928884146FFF799FE28886A
S113B3D032463946FFF794FE2888FFF781FE0020A5
S113B3E06408761C1B2EEBDBBDE8F0812578200079
S113B3F0257800002563000000000000202570006F
S113B4000D0A0000256400002C200000727E00203C
S113B410843B03001CB5044620684079FAF754FACB
S113B42088B92068418803290DD0E27C01920091FB
S113B43043790A4A0A490120FFF75CFE01212046AC
S113B440FAF780FD07E020460FF0CDFB01001CBF9A
S113B4502046FAF777FD012016BD00BF103C03001B
S113B460E43B03000098002100E0491CCAB2824278
S113B470FBD370472DE9F04F044687B02068617D07
S113B480B0F80280E67CD4F80890A789257D0029CD
S113B4900CBF402180218DF80C104079FAF714FA82
S113B4A0C0B9002E18BF022E14D0032E1CBF052EC7
S113B4B0B8F1030F0ED0DFF854140120FFF71AFE81
S113B4C03346DFF84C24DFF84C140220FFF712FE59
S113B4D00121D6E1E17B080003D0208A002800F096
S113B4E02281DFF8342400201080607D00280CBF06
S113B4F00820002009B140F0040000F02CFAE07BA1
S113B50010B1208A00F036FAA07CDFF810B400F005
S113B51022FA681C791B162E80B2ADF8001009EBD4
S113B520050A00F2FC80DFE816F0170006017A0035
S113B5302D0035017A00F5003A0100013F01440174
S113B5404901C6005D01FA00FA00FA006F01970193
S113B5506F01A101C6005D01012000F0FCF9A81CE7
S113B5608742C0F2A58000F0BCF9064600F0BEF99F
S113B570FAF706FF18B900F0B9F90FF076FEAD1C22
S113B580ADB2ECE7042000F0E6F94FF0000A19E050
S113B59000F0A1F95A460498C01C01904146208A43
S113B5A00090206840790FF082FD010006D000F081
S113B5B0D2F9584600F0DEF90AF1010A059840195B
S113B5C0C51CADB2E81C87421DDB00F08AF900F00F
S113B5D06DF928B10498C01C00F034FA401C03E053
S113B5E09DF80D000FF068FFC0B205909DF80D00A6
S113B5F0F9F70DFB0028CBD00599781B401AC01E23
S113B600C6D58020D3E75FFA8AF0002850D1E07BCA
S113B610257DC149002814BF042002200880002091
S113B6208DF80E008246042000F095F90EE09DF896
S113B6300E10491C8DF80E1000F08DF9584600F0DC
S113B64099F99DF80F002818C51CADB2E81CB84242
S113B65022DA00F046F900F029F928B10498C01C58
S113B66000F0F0F9401C03E09DF80D000FF024FFFA
S113B6708DF80F005A4600F02EF941460498C01C7C
S113B6800190208A0090206840790FF0C7FC0100E7
S113B690CDD10AF1010AD4E7052E0BD09DF80E0096
S113B6A030B95FFA8AF109B98021EAE000F053F970
S113B6B0FAF701FCE8E00C2E0CBF0D20162000F078
S113B6C04AF900F00EF99AF80270162E814603D159
S113B6D01A2F06DB192704E0152E02D1142FA8BF58
S113B6E013278D4800880BEB0005002000F033F988
S113B6F0152E0CBF01200020029001974A46208A93
S113B7009DF80C3000904146206840790FF0EAFC27
S113B7102870CDE72046FAF770F80028CAD1E07BFC
S113B720002800F0B5808421ABE02046FAF7B8F891
S113B7300028BFD1F3E7B8F10A0F24D1784E30784E
S113B74008B3E07B002804BF781B08281BD100F055
S113B750C8F8002801BF9AF8020000289AF80300EC
S113B760E22810D1291D3A4689B2484600F043F92F
S113B770FFF79CFDFFF79CFD02466A490220FFF794
S113B780B9FC002030705146BDF800204046FAF75D
S113B79004FE74E000F085F8FAF793F86FE000F027
S113B7A080F8FAF72CF86AE000F07BF8FAF77AF8F8
S113B7B065E000F076F8FAF7F2FD60E019F8005061
S113B7C09AF800709DF80C0000902B462068407990
S113B7D03A464146F9F737FA2A4639464046FAF7D7
S113B7E010F851E09AF8001001B101210546162E17
S113B7F00CBF0120002000907B1B9BB209EB0502CB
S113B8004046FAF700F83AE09AF800909AF8017086
S113B810112E04D1122000F09EF8002003E0142021
S113B82000F099F801203C490D8801910397C5F176
S113B830510189B20091CDF808900BEB05014B1C26
S113B84042462146F9F7D0FD0BF80500324932484B
S113B8500088401C08802BE700F031F80020FFF737
S113B86001FE00F017F8F9F7D2FF08E000F027F81E
S113B8700120FFF7F7FD00F00DF8F9F7C6FF18B93E
S113B88000212046FAF75EFB012007B0BDE8F08FE7
S113B8908221F6E7BFB200974B46218A32464046E2
S113B8A07047BDF80020514640467047834609EB77
S113B8B00500049080788DF80D00F9F7A8B99AF87E
S113B8C0006006B1012681443F1AB8B200904B468D
S113B8D03246414670479DF80D009DF80C300290A9
S113B8E070473A462946484600F087B80A48008817
S113B8F09DF80C30C0F1520080B201903246208A8B
S113B900009041462068407970470000183C0300CD
S113B910403C0300243C03006E7E0020787300202A
S113B920B77E0020483C030080B54E4900200870D3
S113B93002F0E6FB4C490880522200214B48FAF7FA
S113B940DEFC4B49002008800C22BDE808400021A1
S113B9504848FAF7D4BC10B545490A88522A07DA90
S113B960424CA054501C088080B22044401E10BD9C
S113B970002010BD38B500F00CF80546200AFFF78A
S113B980EAFF002D18BF002801D0284632BD002050
S113B99032BD0446C0B2DEE7B0B5354D2B880C4647
S113B9A0E11852290CDA314F01462246F818FAF709
S113B9B063FC28882018288080B2001B3844B0BD5E
S113B9C00020B0BD70B500245E18B2421D460DDAE9
S113B9D01A46294900F033F8002070BD51FA85F366
S113B9E003446D1E13F8013C03EB0424EAB2002A5D
S113B9F0F4D1204670BD0423E4E780B50223FFF7A9
S113BA00E1FF80B202BD2DE9F041144691420F4698
S113BA101A4DDFF86C8028BF1A4A08D2C61930467E
S113BA2000F010F83818401C844204DA164A00F07A
S113BA3005F8284600E03046BDE8F0814146022082
S113BA40FFF758BB0078FF2808BF0020704780B577
S113BA5002220021FFF7D1FF4FF6FF71884208BF91
S113BA60002002BDCB7E00206C7E00207873002075
S113BA706E7E00206C730020E42D0300707E002095
S113BA80FC2D03000C2E0300202E0300DFF8BC1451
S113BA90012008707047DFF8B4140A7882421CBF92
S113BAA00870FDF7BEB870470170090A4170801C28
S113BAB0704710B504460822FAF7DEFB04F10800CB
S113BAC010BD2DE9F041044684B0207D0A9F0D4647
S113BAD0800721781E464CBF4CF601484CF60108FD
S113BAE008003B880CBF1E20202003EB000C62459D
S113BAF008DA00920246DFF858140420FFF700FB2E
S113BB00742045E009B948F0200801A802F0A8FC17
S113BB1041462846FFF7C8FFA189401CFFF7C4FF30
S113BB20217D890703D5611CFFF7C3FF02E061890A
S113BB30FFF7BAFF804602F0E5FA01464046FFF7F8
S113BB40B3FF01A9FFF7B5FF0B21FFF7ADFF217884
S113BB5041F0030100F8011B21780C2904BF618A1C
S113BB60FFF7A2FF218AFFF79FFFE189FFF79CFF00
S113BB703A8880463146FAF77FFB207DC00748BFEC
S113BB80B72005D438880B994044401B0880002016
S113BB9004B0BDE8F081F8B504460E4615461622F9
S113BBA000212846FAF7ABFB6078217801EB0020EE
S113BBB04FF6DF7108404CF60141884219D104F177
S113BBC00D00871C41780278A88A02EB012140F01D
S113BBD00200A981A88208223946681CFAF74CFBA6
S113BBE0307807F10801401A2618F6B2072E06DA53
S113BBF03DE04CF60101884239D1E01DE1E7487887
S113BC000A7802EB00200B2831D18B78C91C23F071
S113BC102C00B61E0328F6B2CE4A18BFCE4923D153
S113BC2013F00C0018BF0828287002D00C2803D089
S113BC3018E0052E05DA1AE0072E18DB00F01DF8CF
S113BC40688200F01AF828820E78487806EB002003
S113BC50E88198060DD5A88AC04940F00100A88261
S113BC60B52301E00346BE490420FFF743FA002050
S113BC70F2BD881C001BC0B2F2BD487811F8026BFB
S113BC8006EB0020704771B58BB00D4605AA0BA9D1
S113BC902846FFF780FF06006BD005A800F0C2F825
S113BCA09DF82C00841B35442A46E1B205A8FCF714
S113BCB0FEFF08B1012050E02A46E1B205A800F0D9
S113BCC05AF8002855D09DF8280080070DD54FF666
S113BCD0FF70ADF81E000822A2490DF11500FAF715
S113BCE015FB401E8041C00F07E002F009FABDF8C1
S113BCF01E1088420CBF01200020BDF82210ADF8B0
S113BD000810BDF82410ADF80A1001218DF80C10AC
S113BD10954909788DF80D109DF82810C9074CBF76
S113BD2020210021ADF80E10BDF82610ADF810103A
S113BD3000218DF812109DF8141021B108290ED09D
S113BD400C2911D015E005A80190E3B2BDF81E003E
S113BD5000902A4602A8F9F764FF0CB070BD0028D1
S113BD600CBF04210521EEE700280CBF02210321AA
S113BD70E9E70020F1E7F0B500241346032983B076
S113BD80744A07DA032000900B4678490420FFF731
S113BD90B1F945E0057DED0742D41D78AE0703D522
S113BDA0734900F08EF83BE015F0040618BF082430
S113BDB0EF0758BF44F004042D074CBF02250125AA
S113BDC02C433EB1052903DA6A4900F07AF827E0EA
S113BDD0197900E09978C389002501E06D1CEDB262
S113BDE00627654E17FB05F73E444FF6FF7C378860
S113BDF067450ED09F4202BF7788B0F810C06745F0
S113BE0004BF37798F42E9D176792642E6D0012002
S113BE10FEBD0191008A594900900420FFF76AF998
S113BE200020FEBD38B5044655490420FFF768F9E3
S113BE302078010008BF43A106D0082808BF514953
S113BE4002D00C2803D150490420FFF759F94F4977
S113BE5000F034F8A2894E4900F033F8207D8007C1
S113BE6039A509D54B490420FFF74AF9601CFFF7AF
S113BE7055FA00F022F803E06289474900F021F8FE
S113BE80E289464900F01DF8228A45490420FFF75B
S113BE9037F90420FFF7E8F810B1208AF9F79FFD7D
S113BEA000F00BF820780C2806D1628A3D49BDE8E1
S113BEB038400420FFF71EB931BD29460420FFF79E
S113BEC019B90420FFF716B912B5A3B014460178C6
S113BED01E4A127800290CBF1E2120210AB97020A5
S113BEE02CE0BDF88C2051187E2929DA02A9019191
S113BEF0234623A900917D2203A9FFF7E2FD010057
S113BF0005D1BDF8080003A9C0B2FCF771FE010019
S113BF1014D1FFF7CDF90246BDF88C302249042034
S113BF20FFF7EEF8BDF88C20012321460420FFF72B
S113BF30E1F900221D49FFF7C4FF002024B010BD21
S113BF407420FBE7756E690000000000AC7E0020E1
S113BF50402A0300902A0300702A0300BC2A03002D
S113BF60A02A0300C477002078660020DC2A03009E
S113BF70FC2A03001C2B0300402C0300342B030079
S113BF80702B0300882B0300902B0300982B0300D5
S113BF90A02B0300B42B0300C42B0300DC2B0300F1
S113BFA0F02B0300082C03001C2C0300382C030086
S113BFB000E000BF00210170704700000020DFF89E
S113BFC0981801EBC003FF221A71002241F83020B7
S113BFD0401C0A28F5DB70472DE9F14F90B01F464D
S113BFE04FF0FF0A032F8B4616468DF811A005DB90
S113BFF01A9C2178490707D5052F03DA012011B0CF
S113C000BDE8F08F207900E0A0788DF808000020CA
S113C010DFF8449809EBC0010979FF290AD0401CD4
S113C020C0B20A28F6DB1E9D35B1BAF1FF0F03D169
S113C030B420E4E78246F6E700208DF812000AAA4D
S113C04030790DF11201F9F7F0FB58B1BDF8340065
S113C05030809DF81200F8F732FC00288DF81000AB
S113C0603FD114E03079F9F7B1F88046B8F1FF0F09
S113C07008BFA320C3D03079F8F726FC8DF8100050
S113C08078BBDFF8D80700EB0810408830809DF8B3
S113C0904000DDF86C8000280CBF58464FF6FF7056
S113C0A00190424670880090002133889DF8080072
S113C0B0F9F74AFF18B1F08840F02000F0800595A8
S113C0C006960794ADF820B0ADF822708DF825805F
S113C0D004A99DF840008DF8240005A8F9F7DAFBBF
S113C0E010B19DF810008AE79DF840003246594689
S113C0F0F9F74AFFB8421FD31D980390FBB21C986E
S113C100029032460DF111000190009459469DF8B9
S113C110400002F05DF98DF810008DB180B99DF8F2
S113C1201100FF281AD0BAF10A0F17DA09EBCA0175
S113C13049F83A50087111E074208DF8100010E0AD
S113C140BA2808D1B079C00605D500208DF81000B2
S113C1500120F8F706FD9DF8100010B9112001F038
S113C16032F8F8F7BAFBBCE710B586B00881009343
S113C1701346089C04940A4600240394029401463E
S113C180012401940320FFF727FF06B010BD10B56A
S113C19082B000240094FFF7E7FF16BDF0B5040059
S113C1A085B00D46164603D0280018BF002E01D1D5
S113C1B002202AE000276946384600F01CFE0100F0
S113C1C023D19DF80010032902BF9DF801102279A4
S113C1D0914202BFBDF802106288914211D19DF8CC
S113C1E005009DF8061000EB0120208133469DF8E0
S113C1F0041061712A46214680B2FFF7C8FF01008E
S113C20003D17F1CFFB20A2FD5DB05B0F0BD10B5FA
S113C21086B0089C0494009300240394029413466B
S113C2200A460124014601940620ACE710B582B009
S113C23000240094FFF7EBFF16BDF0B50446022C72
S113C24085B00D4616461F460BD16946E8B200F08C
S113C250D2FD010013D19DF8010030719DF8040056
S113C26070713B460B980490324600200390029074
S113C270019029460A9800902046FFF7ADFE05B0CC
S113C280F0BD1CB500240194049C0094FFF7D5FF75
S113C29016BD2DE9F0418AB00446884616461F466D
S113C2A0002505A9284600F0A6FD010022D19DF82D
S113C2B01410012902BF9DF815102279914202BF82
S113C2C0BDF816106288914210D19DF81800607173
S113C2D00497002003900290019000964346224662
S113C2E029460220FFF778FE010003D16D1CEDB250
S113C2F00A2DD6DB0AB0BDE8F081F0B587B004465C
S113C3000D4616461F46162200216846F9F7F7FF28
S113C310ADF80C40ADF80A606DB1082229460DF164
S113C3200100F9F7A9FFBDF8140040F00200ADF8D0
S113C330140000200BE0380003D0ADF812700C207C
S113C34005E04FF6FC708642B4BF002008208DF84B
S113C35000000D980F9A0E99ADF80E000C98ADF8E8
S113C36010006846FFF7B0FD07B0F0BD0420FEF7EB
S113C370C1BE80B50346DFF8E80400880A0007D18F
S113C380BDE80050DFF8DC24DFF8DC14FEF7B8BEAB
S113C3900091DFF8D824DFF8D814FEF7B1FE01BD10
S113C3A010B5FF280C4605D1DFF8C8140420FEF7A9
S113C3B0A1FEFE202146BDE810407CB504460D4692
S113C3C0FDF7FAFA064633462246DFF8AC14042099
S113C3D0FEF790FE300011D185B1DFF8A0140A6891
S113C3E001A801AB0260032000908DF805400022F3
S113C3F036214FF6FC700FF070F90646304676BDD4
S113C400F8B50D460446288816461F4608B1002094
S113C410F2BD6A88DFF86814B2F5004FACBF7378D8
S113C42000230820FEF766FE6888DFF858141338E6
S113C4301ED047F6EE72801A21D0401E29D0801EED
S113C44006D0401E21D0401E05D01A380CD02EE054
S113C450DFF8342428E0DFF834240820FEF750FE07
S113C4603279DFF82C141FE07278DFF828141BE00F
S113C4707078B17800EB0122DFF81C1414E0DFF8C7
S113C4801C140820FEF736FE11E03279DFF8101490
S113C4900AE0DFF810240820FEF732FE7078B17845
S113C4A000EB0122DFF800140820FEF723FE3B46D0
S113C4B0324629462046F9F761FF70B93B463246B9
S113C4C02946204600F0E0FF688848F221018842AE
S113C4D003D171782046F9F7B4F96888B0F5004FB4
S113C4E0C4BF082000F087FE0120F2BD2DE9F0470B
S113C4F088B081460E469246984608F0F3FE0546FB
S113C5007088109CDFF8A413009022463388022020
S113C510FEF7F0FD8DF808900396119F0497ADF88F
S113C5201440ADF816508DF818A08DF8198001F05C
S113C530EDFD8DF81A0001F0EBFD8DF81B00F9F705
S113C540CCFF8DF81C0002A8F9F7A2F9A8B923467C
S113C5503A46314628460FF04BFA70B923463A461C
S113C56031462846FFF74CFF38B901900095234621
S113C5703A4649463046F9F754FB08B0BDE8F0871F
S113C58000002DE9FC471D000A9C0B9E804689464D
S113C59017462DD0C64AC7490420FEF7B1FD3B8893
S113C5A0180008BF83A20AD040F209118B4208BFC9
S113C5B081A204D0B3F5827F0CBF80A280A2019433
S113C5C07888BD4900900420FEF79AFD388858B158
S113C5D0032C09DB3078B378B849C0074CBFB84A9C
S113C5E0B84A0420FEF78CFD76A10420FEF782FDF4
S113C5F00C989949002201EBC2031B79834210D0A5
S113C600521CD2B20A2AF6DB4FF0000A002201EBD8
S113C610C20393F804C0844506D0521C0A2AF6DBF0
S113C62007E051F832A0F1E7FF201871002041F82B
S113C6303200002D04BF3888002806D17888B0F570
S113C640004FBCBF082000F0BEFD012000F0D3FD68
S113C65036B13078C00703D500F00EF8F8F709FBBF
S113C660BAF1000F02D000F007F8D04700F004F848
S113C670F9F7E3F8BDE8F3870195009623463A46B7
S113C680494640467047D0B50446903882B08E4E35
S113C6908E4F0CD0401E23D0C01E21D0801E1FD030
S113C6A0801E1DD0133804281AD9113827D101F05F
S113C6B027FD00903B46324685490420FEF71AFDCB
S113C6C0BC2C08D183490420FEF714FDF9F7ECF8DB
S113C6D0F9F7EBF801E00EF02BFAF9F7E6F813E0BE
S113C6E0912C03D13B4632467B4902E07B4B7C498B
S113C6F032460420FEF7FEFCF9F74FF904E0224627
S113C70078490220FEF7F6FC20460FF09BFA2046FB
S113C7100FF068FB2046FCF730FB204607F0E2F8F8
S113C72018B1BDE8DC40704920E6D3BD1CB500203B
S113C7306E4CF8F7C4F8206868B1684601F09EFEB4
S113C74048B920689DF800100078814203D0012880
S113C75008BF022905D166480068019001A8FDF7C9
S113C7604BFAF8F7BAF813BD10B50446F8F7AAF86F
S113C770204606F0A2FFBDE81040F8F7AEB838B581
S113C7805A4909680446702089B10D7820890090BF
S113C790012D08BF0225E37A564A57490120FEF7C6
S113C7A0A9FC21462846BDE83440FDF726B932BD30
S113C7B0000000005A444F00534500004841000067
S113C7C03F3F00000000000010B5044601F091FC5A
S113C7D00020215CFF2904BF00212154401C1028A3
S113C7E0F7DB0020207410BD33B581B00020002495
S113C7F0424908E011F830309DF80A50AB4208BFB6
S113C8005468401CC0B201EBC0025368002BF1D144
S113C8109DF808009DF807309DF8062038490090DF
S113C8200420FEF76DFC9DF80920100003D008A138
S113C8300420FEF765FC04B906A4BDF804302246C2
S113C84003B0BDE830402F490420FEF753BC00007C
S113C8502E2564003F3F3F002866002078660020B4
S113C860727E002084F002007CF002009CF0020042
S113C8708CF00200A8F00200E4F00200A4F0020030
S113C880FCF0020024F1020038F1020040F1020041
S113C89048F1020058F1020080F1020098F1020010
S113C8A0B4F10200D8F10200E0F10200F4F1020058
S113C8B088F202007CF2020028F2020058F2020020
S113C8C06CF2020074F20200A0F20200A8F202006C
S113C8D090F20200B4F20200D4F20200ECF2020080
S113C8E0E0F20200F4F202000CF30200CC73002028
S113C8F03CF302005CF3020040F302008CF30200FC
S113C90064F302007CF3020006F0FABFDFF80803C8
S113C91000780C2110FB01F2DFF80003006892B2EA
S113C920FF21F9F7ECBC10B5BB4A127803469342D9
S113C93008460AD2B94909680C246343BDE810408B
S113C94019440822891CF9F797BCBDE81040082255
S113C9500021F9F7D4BCB04A1278904205D2AF490D
S113C96009680C225043085A70474FF6FF7070470D
S113C970F8B507460C46A84DA84E00E00C372978B8
S113C98030680C2251430844874214D238884FF649
S113C990FF718842F2D008222146B81CF9F7B6FC90
S113C9A00028EBD1F9F7A6FDB97AC1F3420181421F
S113C9B0E4D13846F2BD0020F2BDF8B5044600F0DB
S113C9C069F99648944F056800260EE02888A0422D
S113C9D009D1F9F78FFDA97AC1F34201814204BF5D
S113C9E04FF6FD7028800C35761C3978F0B28842F9
S113C9F0ECD3F1BD70B504460D462846FFF7DDFFC4
S113CA002946204600F067F984480068214605E07D
S113CA1035800FF090FC214606F10C00FFF7A8FFCB
S113CA200600F5D170BD7FB5044608227C49F9F7AC
S113CA306DFC10B90BF06CF934E07A4D2868011DD7
S113CA4008222046F9F762FC10B92868408829E0DA
S113CA50002000904FF6FF7500230122214628464E
S113CA6000F07CFAFF284FF6FC7605D06E49096881
S113CA7031F81000B04215DB01A807F0A3FD50B94E
S113CA80BDF80400400606D5082221460DF1060033
S113CA90F9F73CFC30B100F087F810B10088B042DF
S113CAA000DB284604B070BD2DE9FF4104468846EA
S113CAB00BF02EF9844202D1082259493EE0594E26
S113CAC030684288944209D100220821001DFEF7F3
S113CAD079FA18B930680822011D2FE0002000906F
S113CAE0002301220021204600F038FAFF280AD052
S113CAF0694600F080F930B908220DF1050140467D
S113CB00F9F7BAFB1DE04548434E0768002501E0EC
S113CB100C376D1C3178E8B2884214D238884FF64D
S113CB20FC718842F4DAA042F2D1F9F7E3FCB97A55
S113CB30C1F342018142EBD10822B91C4046F9F706
S113CB409BFB012000E0002004B0BDE8F08110B59B
S113CB50044600200BF01FFBFF2808D03349096866
S113CB6031F810000006800E00F0010010BD04F042
S113CB70010010BD38B5044600F016F8002508B1D0
S113CB80857A0CE000900023012221464FF6FF70C5
S113CB9000F0E4F9FF2802D0254909680D5C21461C
S113CBA02846BDE83440D2E71C4800682146DFE649
S113CBB038B504460D4600F0D7F8184800682146F9
S113CBC002E0857221460C30FFF7D2FE0028F8D12E
S113CBD031BDF8B504462146002000F08FF9FF2846
S113CBE015D11448144D0668002701E0361D7F1C3A
S113CBF02978F8B288420CD23088A042F6D1F9F7ED
S113CC0079FCF1788142F1D1B0780028EED001208E
S113CC10F2BD0020F2BD0000CA6300201C600020A9
S113CC20C47700207877002010600020E45F0020A3
S113CC3014600020F45F0020C36300201FB50C467D
S113CC4002460D231521684610F011F80D2269469D
S113CC502046F9F711FB207840096073207800F032
S113CC601F0020701FBD30B585B004460D460D224F
S113CC706846F9F701FB9DF80000697B40EA411022
S113CC808DF800000D236A462146152010F000F8A7
S113CC9005B030BD2DE9FF41044600F05FF814E013
S113CCA03068EDB2A84630F81800A0420CD16946AD
S113CCB0284600F0A0F89DF80000022804D031684E
S113CCC04FF6FD7021F818006D1CE8B239788842DF
S113CCD0E6D3BDE8FF812DE9F04588464FF6FF7A9B
S113CCE0D04585B0044605D100F0D8F910B90BF051
S113CCF00FF830E000F032F80CE0D04508D030688E
S113CD0030F81510414504BF4FF6FD7120F8151099
S113CD106D1CEDB2387885421CDA306830F81500A5
S113CD2000F018F9F4DA69462846FFF787FF08226D
S113CD3021460DF10500F9F7E9FA0028DDD1306844
S113CD40D04502D130F8150005E020F815800FF029
S113CD50F2FADDE7504605B0BDE8F0850025DFF8BE
S113CD60C463DFF8C47370472DE9FF4780468946E2
S113CD700026DFF8B873DFF8AC43DFF8AC5316E0F5
S113CD802068F6B2B24630F81A0000F0E3F80DDA83
S113CD9069463046FFF752FF082241460DF105006F
S113CDA0F9F7B4FA10B9386800F80A90761CF0B2B2
S113CDB029788842E4D3BDE8FF87DFF8681309685F
S113CDC031F8100070471FB5DFF85C2312789042E9
S113CDD00C460FD2D349096831F810104FF6FE7291
S113CDE0914207DA694600F006F821460DF1050084
S113CDF0FFF771FF1FBD80B5CB4B1B78984201D361
S113CE00692002BDFFF71AFF002002BD70B5044679
S113CE100D4623460022B4A1032005F0CBF928785F
S113CE200028204602D1BDE870403AE0BE490978A6
S113CE30884201D3692070BD0FF0ABFE08B17520A4
S113CE4070BDF9F757FB6873681DFFF793FE06463C
S113CE504FF6FF71681DFFF73EFF024629783346FF
S113CE60204600F006F829462046FFF7FCFE002085
S113CE7070BD30B54FF6FF740D0008BF224608D0D0
S113CE80032908BF4FF6FE7203D0A24208BF4FF633
S113CE90FD72A449096821F81020A44909680B54BB
S113CEA030BD30B505462C4685B0234601228EA1FF
S113CEB0032005F07FF99C4909782846884228BF59
S113CEC0692019D20FF065FE08B1752014E0694697
S113CED02846FFF7B3FE9DF8000030B100208DF81E
S113CEE0000069462846FFF7BEFE8E4909684FF6E2
S113CEF0FF7021F81400002005B030BDF0B585B0F6
S113CF0007460C46874D884E00E07F1C3178F8B206
S113CF1088421CD22868FFB230F8170000F01AF8D3
S113CF20F3D169463846FFF789FE9DF80500E1B262
S113CF30884204BF9DF80610B1EB142FE5D1F9F730
S113CF40D9FA9DF80D108142DFD1384600E0FF2068
S113CF5005B0F0BD4FF6FE71884270472DE9F14FE0
S113CF6084B00D460E9C6F4FDFF8BCA190469946E5
S113CF70002607E03868BDF8101030F81B0088421E
S113CF802CD0761C9AF80010F0B2884228D2386867
S113CF90F6B2B34630F81B00FFF7DCFFF1DA69465E
S113CFA03046FFF74BFE5FEA080007D19DF8010009
S113CFB0484504BF9DF80400A042E2D1F9F79AFA6B
S113CFC09DF80D108142DCD1002DD3D008220DF143
S113CFD005012846F9F79AF90028D2D1304600E035
S113CFE0FF2005B0BDE8F08F10B51446FFF726FE0C
S113CFF02046BDE8104008224D49F9F73DB92DE916
S113D000FF470446084615461E4600F047F808B197
S113D010002040E00027DFF80C81DFF80C9100E0ED
S113D0207F1C99F80010F8B2884223D2D8F8000087
S113D030FFB2BA4630F81A004FF6FF718842EFD0BB
S113D04069463846FFF7FAFD0C220DF10101601C18
S113D050F9F75CF90028E3D1BAF1FF0F0CD10020F5
S113D0603070F9F746FA307855B138B9204601F0F6
S113D07098F809E0FF27F2E70120F1E7012006E034
S113D08028B1384601F0BCF8401E8041C00F307012
S113D090F9F735FA012004B0BDE8F08708222449E5
S113D0A0F9F734B930B585B000241F4D16E0694650
S113D0B0FFF7C4FD9DF80000042806DB00208DF86E
S113D0C000006946E0B2FFF7CEFD9DF80010002392
S113D0D04FF6FF72E0B2FFF7CCFE641C2978E0B291
S113D0E08842E4D305B030BD4242000030B585B07B
S113D0F002220BA1032005F05DF800208DF800004A
S113D1000024094D03E06946FFF7ADFD641C29784E
S113D110E0B28842F7D3FFF7C5FF002005B030BD69
S113D1204200000010600020C96300201460002049
S113D130C477002062F30F2262F31F42401810F0FC
S113D140030308D0C91A1FD3DB0748BF00F8012D19
S113D15028BF20F8022D130030B4144615461039A8
S113D16028BF20E93C00FAD8490728BF20E90C0071
S113D17048BF40F8042D890028BF20F8022D48BF7D
S113D18000F8012D30BC7047C91818BF00F8012DF4
S113D190CB0728BF00F8012D704700006948002123
S113D1A0016018214160017B09B967498160017CF4
S113D1B011B94FF47A71C18140F6B831418200212E
S113D1C081828175704738B504466048006888B12B
S113D1D0007804280EDBF9F780F9182148435949EF
S113D1E00D182868204328606868044202D0F8F7C4
S113D1F073F9A88231BD10B500F071F800F06AF837
S113D2000168A143016010BD80B5F9F766F91822E1
S113D2104C495043085802BD80B5F9F75EF900F057
S113D2204CF8806802BD80B5FFF7F6FF3AE080B5A0
S113D230F9F753F900F041F8C08902BD80B5FFF752
S113D240F6FF42E041480068002808BFFFF7E4BF4A
S113D25010B5007804281FDBF9F73FF9182148437B
S113D26038490C18F8F738F9A28A618A801A80B212
S113D270814203D220686168884320600FF093FCE8
S113D280002804BF2068002803D100F032F80128E8
S113D29002D1BDE81040CAE7BDE81040BCE780B544
S113D2A0FFF7D0FFFA21B0FBF1F002BD80B5F9F72A
S113D2B014F900F002F8408A02BD182221495043B3
S113D2C00844704780B5FFF7F1FFFA21B0FBF1F095
S113D2D080B202BD182148431A49084470470446E5
S113D2E0F9F7FBB880B5F9F7F8F8FFF7E6FF4068FF
S113D2F002BD2DE9F041F9F7F0F8804618211148F4
S113D300134F11FB08F108440026857D12E0F6B2A4
S113D3100C21104811FB06F144182078F7F7EAFABB
S113D320804506D1A068007818B16079854238BF7D
S113D3300546761C3988F0B28842E8D32846BDE811
S113D340F0810000E06C0020E0930400CC73002026
S113D350906300209C5D002080B5F9F7BEF8FFF7CC
S113D360ACFF807D02BD0000002070B5F7F7A7FA7E
S113D3701D481E4C00681E4DF0B1007803281BDBCD
S113D38000F0C2FE022814D12E68FFF75BFFB04202
S113D390286003D12046F7F7B7FA68B92B68154916
S113D3A000220220FDF7A6FE29682046F7F7B0FA0E
S113D3B002E02046F7F7A5FABDE87040F7F78DBA0A
S113D3C010B500F0A1FE02280DD109F02FF90400D8
S113D3D009D0F9F782F82346BDE810400246064911
S113D3E00120FDF787BE10BDCC730020106600201D
S113D3F004740020543B0300703B03000A210FF027
S113D4007BBC000038B5F8F778F8054D0446286869
S113D410201AFB2803D301200FF002FD2C6031BD3C
S113D420746D002030B585B00021424D2878CDE9D7
S113D43000117024E8B900F067FE9324022818D183
S113D44002A807F0BFF8082269460DF10A00F8F7B0
S113D4505DFFB72468B100F053FE702448B14FF467
S113D4608A52022100200FF005FD040004BF0120B0
S113D4702870204605B030BD2E4801780022027085
S113D480080018BF0120704710B52A4C207884B0DA
S113D490012802BF488848F20201884220D1507B0B
S113D4A0000200F47E40B0F5285F14DB01A90020DF
S113D4B00AF0F8FBA0B901A80DF083F900280CBF0D
S113D4C002210021217000901B4B1C4A1C490120A1
S113D4D0FDF710FE04E01E200EF04DFE002020702B
S113D4E0002004B010BD70B5124E044630780228F6
S113D4F082B00D461AD100950120124B0F4A1049F3
S113D500FDF7F8FD10490120FDF7FAFD012308227B
S113D51021460120FDF7EEFE05A10120FDF7EAFDFD
S113D52028460EF028FE08B10020307073BD0000BC
S113D53000000000C57E0020BC420300A842030096
S113D54098420300E8420300FC42030001468AB209
S113D5500AB94BF6EF610F4A1180000C0E4908BF5F
S113D5604FF6CE20088070470288130448BF4A4013
S113D570510001801046704710B562210548FFF73D
S113D580F3FF044641F20B010348FFF7EDFF60404F
S113D59010BD00009C6300209E63002038B5DFF8B6
S113D5A0B049DFF8B0590020E0602074FF206076B5
S113D5B0FFF7E2FF287003F03DFA01206076207C3B
S113D5C040F002002074281DF7F7B6F9002032BDA0
S113D5D02DE9FE4F81460D4614460AF0BCFE8DF837
S113D5E00600DFF8747938689DF8061010F8090011
S113D5F0DFF85C89401A8DF8050048460AF0C4FE3D
S113D60000F00C0004280CBF01260026484604F054
S113D610CBFA8DF80400FF280EBF4FF0000B3968D9
S113D62011F800B0002002908246FF2088F818000C
S113D6306F1CDFF828090068007B032818BF042842
S113D64002D10CF084FB31E048460AF09DFE0C2127
S113D650084218D15CB348460AF087FE07F064FE1E
S113D66082464FF440411AEA010F07D05FEA8A501C
S113D67004D5DFF8EC080CF05BFB17E0DFF8DC08FE
S113D6800068C07B12E094B148460AF0CFFEB0F5C2
S113D690406F484604D10AF0DEFE0AF080FD01E046
S113D6A00AF0E8FE03F032FE0CF043FB2070300079
S113D6B01DD048460AF07AFE04464FF6FF7048F63D
S113D6C0410A844218BF48F6610AF8F750FF014640
S113D6D0F81C07F030FE2146781D07F02CFEF8F701
S113D6E042FF0146F81D07F026FE09370297002085
S113D6F000909DF805309DF806204946384604F010
S113D700BCFA9DF80500BBF1000F074409D00020C6
S113D71000905B469DF804100022384604F0ADFAF0
S113D7205F4476B148460AF020FE407880072FD542
S113D730029868B3391A4A46C9B208F051FA074444
S113D74026E0A878697801EB002080B2C10901F0D5
S113D750010181F001064FF67F7101EA000A0AF027
S113D760070003280CD1694648460CF0CDFA681C22
S113D7700AF040FE9DF8001008182844407805E09F
S113D780DFF8E0070078092802D1072088F818009C
S113D790484603F0C5FE08B14AF0100A5146681C19
S113D7A007F0C9FD1AF0070F05D1DFF8A8070178C3
S113D7B0491C017005E0DFF8A4070068017E491CDC
S113D7C00176781BE970401C2870781B7F2802DBE7
S113D7D0E92100F02FFB3046BDE8FE8F70B5DFF87D
S113D7E070670446F0680D4608B1002070BD03F070
S113D7F0FEFA48B1307C002804BF307A002803D1F7
S113D80015B1A047012070BD307CF46040F00400E5
S113D8103074DFF85407F7F78FF8022070BD012148
S113D820DCE790E038B50446DFF82407007E0D46B7
S113D830811F012903D8214606F0E5FA78B9284664
S113D8400AF0A7FDF8F75AFE2146284603F090FE99
S113D85018B92146284608F013FFF8F750FE284669
S113D86004F06CF9BDE83140F7F7B8BFDFF8E4160F
S113D870002008716BE080B500F047FB70B1DFF861
S113D880D4060079002801BFDFF8C406017C0F220A
S113D890114203D1007A08B9012002BD002002BD63
S113D8A0F8B50446DFF8C4060078002802BFDFF8A4
S113D8B0A066F06800280D4626D1DFF8A806007897
S113D8C00B2818BF022D1FD1F7F7FCFD327A082A66
S113D8D0074617DA012D08BFB45404D03146701C32
S113D8E0F8F7CAFC3470307A401C30723846F7F7C7
S113D8F0EFFD204604F014F9DFF86C06F7F71CF886
S113D9000120F2BDF7F7E4FD0020F2BD38B504466E
S113D910F7F7D8FD0546DFF83806017A69B10178D2
S113D9202170017A4A1E0272411CD2B2F8F7A4FC9B
S113D9302846F7F7CDFD012032BD2846F7F7C8FD8C
S113D940002032BD00BFDFF82006F6F7F5BF70B542
S113D95082B003F04CFA002800F09580DFF8F0451F
S113D960207C800706D5607E03F047FA207C00F017
S113D970FD002074207CC00702D4F8F712FEA0B189
S113D980207C00F0FE002074F8F709FEF8F7B6FDDD
S113D9900BF0E5FC8DF800000AF0FBFCF8F7CAFD7B
S113D9A0002850D00420207652E06846FFF7AEFFEE
S113D9B00028DFF8B05553D09DF800000AF0E4FCCD
S113D9C0012400F00C000C2824D19DF800000AF07A
S113D9D0CCFC06469DF800000DF101010CF094F911
S113D9E030460AF007FD9DF801100818811D9DF8C6
S113D9F00000C9B204F049FA2978072902D106289F
S113DA0008D106E001291CBF0529092902D10728EC
S113DA1000D100249DF800000AF0B6FC00F00C00D0
S113DA20082804D12878092814BF032800249DF865
S113DA3000000AF0AEFC0546F8F760FD1CB128466C
S113DA40F8F778FD20B99DF8000003F011F904E01F
S113DA509DF800104120FFF7E5FEF8F750FD73BD77
S113DA6028780B2802D10FF0BBFA60B9207C41075B
S113DA7007D5E168002200F0FB00E26020748847CB
S113DA8073BDF8F7F8FC73BD80B5F8F787FDDFF8D0
S113DA90C004017C41F001010174DFF8CC04BDE84D
S113DAA00240F6F749BFDFF8A804017C01F0FE014B
S113DAB0017470472DE9F04FDFF89C94A5B004463B
S113DAC002A80021C0E9001102AE204603F0C0FF05
S113DAD0082305788178407800EB01270020009026
S113DAE02146D9F80000005DA0F10802D2B202A8D4
S113DAF004F0C3F8707800F00F00F8F7FFFCDFF8CB
S113DB006C040078BFB2A84620B3DFF864743868A8
S113DB1000281ED0F078F9F7B3FB4146F9F7B1FBC2
S113DB20804696F9026004A8802101F0E9F90020FA
S113DB3000906B1CDBB20022214604A804F09DF87F
S113DB40F8F7D7FC3B683246414604A89847F8F7F3
S113DB50D6FCA8E007F007000228FAD0FF208DF8D1
S113DB600400204603F074FF00F1010A50460AF055
S113DB7041FC8346A5EB0B00851E6DB2002DE8D455
S113DB8001208DF800006B46012221460020F7F7A2
S113DB901DFE9DF8000000281DD0B80506D507F02D
S113DBA00700032818BF17F0070F10D101A950462A
S113DBB004F0E2FE002876D107F0070001280BD11B
S113DBC09DF804000AEB0B0109F0E6F820B99DF872
S113DBD0040003F0B3FF66E09DF80400D9F80010D8
S113DBE00F5CDFF8901309680C54D9F80000005D4D
S113DBF000F120019DF80400C9B203F02FFF9DF845
S113DC0004000AF0C1FB00F00C0004281CBF5D44B2
S113DC104FF0000B68B280B200900BF101039DF845
S113DC2004009BB22246394604F01BFAE9199DF818
S113DC300400C9B204F0E2F8CF497078097800F022
S113DC400F00884203DB4FF4257100F0F3F89DF8D0
S113DC5004000AF094FB7178C0F30D0040EA8131AE
S113DC609DF8040089B20AF08CFBF078F9F708FB00
S113DC704146F9F706FB02469DF8040003210AF029
S113DC805DFBB2789DF8040004210AF057FB9DF86F
S113DC9008209DF8040005210AF050FB9DF804407B
S113DCA0204600F008F8204603F048FFF8F727FC68
S113DCB025B0BDE8F08F2DE9F8430446FF2C03D1CD
S113DCC040F2BD2100F0B6F800F0B9F800F0B6F863
S113DCD000F00C0008284DD005F00C000C287CD175
S113DCE020460AF042FB064607F01EFB69468046C2
S113DCF020460CF009F8002808F44C453FD0204693
S113DD000AF029FB074630460AF074FB9DF8001020
S113DD10C0190918C9B2204604F0B7F807464FF4F1
S113DD20406018EA000F4FF6FF7906D0F01C07F0A8
S113DD30FBFA484508BF45F0400508F44060B0F5DB
S113DD40006F06D1701D07F0EFFA484508BF45F093
S113DD5010059DF80000002818BF072F68D1012F77
S113DD604CF6500028D0022F29D0042F08D0062FBB
S113DD7031D0072F31D0082F28D07C2F22D057E064
S113DD80B5F5484F18BFB5F5084F05D0B5F54C4F5C
S113DD9018BFB5F50C4F4BD1204603F047FBE0B15B
S113DDA0280403D520460AF099FB814600224946FF
S113DDB00220F8F709FC3BE0B5F5484F0DD0B5F566
S113DDC04C4F06E0B5F54C4F07D001E04CF640400F
S113DDD0854202D02CE085422AD120460AF0CFFAAF
S113DDE000F02CF800F00C00082816D0A80614D572
S113DDF04FF6DF7000EA050120460AF0C2FA204619
S113DE000AF0A9FA054620460AF0AFFA0AF0F2FA37
S113DE104119C9B2204603F0F1FF2146574804F0E6
S113DE2054F9204603F07CFE55480078F6F77EFE50
S113DE30BDE8F1830FF28010F7F7B4BB0546204626
S113DE400AF0A2BA38B50C460246002108200AF0AE
S113DE504CFB0546FF2D01D1012032BD2146FFF7C1
S113DE601FFD0446284603F069FE84F0010032BD1C
S113DE700121E7E7364A53690BB1702070475061BE
S113DE80084602F014BF38B5314C65691DB940F23B
S113DE907E31FFF7CFFF00206061A84731BD2C49D8
S113DEA04A69824203D10020486102F00BBF7047E7
S113DEB04FF6FF71884200D1704780B50146314862
S113DEC0FFF7D8FF38B1BDE804404FF464710FF296
S113DED0E800F7F767BB01BD10B51D4C627E9042A8
S113DEE00FD0607602F083FF20B1607EBDE8104061
S113DEF002F083BF207C40F002002074BDE8104093
S113DF0021E510BD1248407E704780B51548007861
S113DF100B2801D0002002BD02F069FF00B10120EE
S113DF2002BD80B5FFF7F1FF30B1F8F7E7FF18B194
S113DF30BDE8014003F042BC01BD80B5FFF7F1FF2D
S113DF40BDE804404FF4A0510F48F6F7FFBC0000B1
S113DF504479002080790020D05F00207877002069
S113DF60B0770020E8630020847900205665002003
S113DF707C790020D85F0020C56300201063002056
S113DF80DF7E0020193D01008C79002010B502F0DD
S113DF90FBF9044602F08FFA60B104F44030B0F5A6
S113DFA0403F01D1022010BDB0F5003F01D1012056
S113DFB010BD002010BD000075707065722D6D617C
S113DFC0632E630010B5F7F7F0FB012300224FF432
S113DFD0E1312020FAF754FA02F0B4FF04460FF0BE
S113DFE038F902462346DFF8C8140120FDF782F809
S113DFF002F0B2FF04460FF030F902462346DFF880
S113E000B4140120FDF776F80FF023F940F2A1745F
S113E010C440E0070CD5DFF8A04420780FF02AF9BB
S113E02020780FF0BBF92078BDE810400FF074BAE7
S113E03010BD38B5002200216846F7F7FBFB08B194
S113E040009832BD09F018FD68B10346DFF86C246E
S113E050DFF86C140120FDF74DF8A021DFF864040B
S113E060F7F7A0FA04E0DFF860140220FDF742F8A5
S113E070F6F720FCFDF7A2FFF6F778FDF8F765F94F
S113E080022102200FF0C4FAFEF750FB0FF0CEFA83
S113E090DFF83814DFF8385441F2020008805220C7
S113E0A0DFF830140880A9A4DFF82C1408804FF49A
S113E0B00040F8F77EFF01E0F6F711FCF8F7EFFAFD
S113E0C009F02AFDF6F74AFD012818BFF8F746F9CA
S113E0D0FAF73AFAF6F760FB202100200FF0D8FA9D
S113E0E00028E9D02A4621464FF6FF70FDF708F8CC
S113E0F0E2E7DFF8E813098810237F2203F086B8EB
S113E10009F006BE09F00CBEFCF70EBF10F035BADC
S113E11030B585B002A807F0EDF878B90024694657
S113E1202046FEF700FC082202A96846F8F7EEF83C
S113E13088B1641CE4B2022CF1DB12E007F0D2F8DF
S113E14005464FF6FF7085420BD000242046FEF7AB
S113E15002FCA84201D1204604E0641CE4B2022C73
S113E160F4DBFF2005B030BD38B50446F6F7ACFB50
S113E170050015D14FF4A8532246DFF86413082094
S113E180FCF7B8FF4FF4A85120460DF02CFA0546D1
S113E1902A46D4490820FCF7ADFFF6F79EFB284633
S113E1A032BD30B585B000F0B5F809F0B1FD38B135
S113E1B06088B0F5006F03D1601DF7F740FB13E0F2
S113E1C02046F7F776FB050015D100256946284659
S113E1D0FEF711FE002804BF9DF80000002805D1B9
S113E1E021462846FEF712FE054604E06D1CEDB2FA
S113E1F00A2DEBDBB425F6F770FB284605B030BDDD
S113E20038B500F087F82046F7F751FB050009D12F
S113E2102046FEF746FE05462B462246B249082014
S113E220FCF768FFF6F759FB284632BD38B5FF25E1
S113E23004468DF800506946F7F7F3FA10B19DF8DB
S113E240000032BDF8F74BF9A84901EB0411097B32
S113E250814207D12046F6F7D2FC18B12046F6F7E2
S113E260B9FF0546284632BD70B504460D46F7F79A
S113E270DAFAF8B92046F6F7A9FF0646FF2E07D0CA
S113E280F8F72DF9994901EB06110A7B824201D076
S113E290002070BD48882880888868808879287123
S113E2A001212046F6F79BFF687100212046F6F70E
S113E2B096FFA871012070BD2DE9F04105460E4678
S113E2C09046F6F783FF0746FF2F4FF6FF7414D0EE
S113E2D0F8F705F9854901EB0711097B81420CD157
S113E2E0300008BF012202D0012E06D1002241468F
S113E2F02846F6F79BFF00B104882046BDE8F0816C
S113E30010B500F007F82046FEF7BDF9BDE810404F
S113E310F6F7E3BA0446F6F7D5BA38B50C467449AD
S113E32009680D5C2B469A4207D200920420634A86
S113E3307049FCF7DFFE002032BD0021009100226D
S113E3400146204603F099FC284632BD25703E0064
S113E35070B598B004460D461646F6F7B3FA522245
S113E36003A93046FFF7D9FF060011D00DF10900CB
S113E37006F0B1FF02A806F0B0FF03A801909DF9D2
S113E38008309DF80920009629462046FEF7AEF88D
S113E390F6F7A3FA18B070BDF0B599B004460D466F
S113E3A016461F46F6F78EFA522203A93846FFF79F
S113E3B0B4FF48B103A901910090029732461E9B15
S113E3C029462046FEF7DDF8F6F787FA19B0F0BDC6
S113E3D0F0B583B007460D4608981646194603F073
S113E3E030FC0446FF2C01D11820FEBD09980470AE
S113E3F0062F0A980B992DD8DFE807F00404040BC4
S113E40012221B0023463246294638460FF0C4FD2B
S113E4101EE023460C220C2130460FF098FE17E034
S113E420F27A019100902346114630460FF074FEB3
S113E4300EE023460C22314628460FF00DFE07E07D
S113E44001943346F27A00920A4629460FF026FEDA
S113E450054600E00225204603F070FB2846FEBD79
S113E46008222549F7F708BF10B504460846FCF70B
S113E4706CFD2046BDE81040FCF71FBCFCF71DBC3A
S113E48005207047002070470A2070471B48007819
S113E49070474B20704700B583B06846184908227E
S113E4A002F072F8DDE90001FEF79EF907BD0000F5
S113E4B0D4F30200ECF30200BB63002020F402005A
S113E4C00CF4020028F4020038F40200A4630020D3
S113E4D044F40200A8630020AA6300200859030042
S113E4E06CF4020078F4020084F4020078660020E0
S113E4F0D05F00209CF40200C4770020BF6300209A
S113E5009454030010B582B0FFF704FF0DF101002D
S113E51006F0E1FE684606F0E0FE00F00AF810F0AE
S113E52039FA18B900F005F810F08DFBF6F7D5F9B3
S113E53013BD9DF900209DF801102046704738B5A1
S113E54000F01AF82946204610F0ECF918B92946CB
S113E550204610F083FB0BE038B500F00DF8294697
S113E560204610F06BFA18B92946204610F062FBD9
S113E570BDE83140F6F7B1B904460D46F6F7A2B945
S113E58038B5FFF7F9FF2946204610F077FA18B995
S113E5902946204605F07FF8EAE77047F7F7F2BE10
S113E5A010F088BB890001EB401000F18440026048
S113E5B07047890001EB401000F184400068704707
S113E5C00122DFF8A81610B5884232BF0022DFF816
S113E5D0A016884201D2144600E002241021DFF87C
S113E5E09406FFF7DFFFDFF89C07016821F08071D4
S113E5F041EA0461016010BDDFF87C16DFF87C3667
S113E6000A6802F04072984238BF002204D3DFF84F
S113E6107837984238BF0122086820F0407040EAF9
S113E62002600860704738B500F013F841F67130A5
S113E630206010F084FB002105E038B500F009F8F3
S113E64041F671322260FFF7D7FF0DB10020206040
S113E65031BDDFF83847256805B101257047C01C76
S113E6600F2801D2000770474FF070407047000038
S113E67038B50446002500F02FF9DFF8FC26DFF852
S113E6809016944208D0DFF8F426944206D0DFF8BE
S113E690F026944204D006E0086802E0486800E0EE
S113E6A0886800F00700401E03281BD8DFE800F04C
S113E6B002050C0810F085FB04E010F088FB01E073
S113E6C010F082FB05460DE010F02CFBDFF8B416C9
S113E6D00968090E01F001010122491C02FA01F145
S113E6E0B0FBF1F5284632BDDFF8A4164A68D2071C
S113E6F002D40A680242FCD17047000070B5020AD5
S113E7000C4602F00F020021521E092ADFF88C5633
S113E71014D8DFE802F005141313071619131C208C
S113E720DFF85055C0F3043611B10846FFF7DCFF9B
S113E730224631462846BDE8704033E770BD1035A7
S113E740F0E730350121EDE738351021EAE74035AF
S113E7504FF48031E6E7DFF84856E3E770B5DFF8B9
S113E7603416DFF814260E68DFF81016DFF81446A6
S113E770012510F478105DD0B0F5003F2AD0B0F533
S113E780802F21D0B0F5002F54D0B0F5202F27D002
S113E790B0F5402F46D0B0F5602F66D0B0F5901F8D
S113E7A03BD0B0F5A01F24D0B0F5B01F2AD0B0F5EF
S113E7B0D01F1CD0B0F5E01F22D0B0F5001F2CD024
S113E7C0B0F5381F39D04FE010F0BBFAE168C1F35F
S113E7D008210AE010F0B5FAA168C1F3082104E0A9
S113E7E010F0AFFA6169C1F30421491C12E010462C
S113E7F015E01046FFF73CFF216A01F00F0107E026
S113E80008460CE00846FFF733FFA16A01F0030154
S113E81005FA01F1B0FBF1F627E0DFF86405FFF734
S113E82027FF1FE0DFF87C0500F056F807281CD00E
S113E830092819D110F085FA14E0DFF86C0500F00E
S113E8404BF804280CD007280FD008280CD110F05E
S113E85078FA2168C1F30421491C01FB00F604E0A5
S113E86010F08AFA064600E00026304670BD00002B
S113E870030903F00F0301225B1E072BDFF80415C5
S113E88028D8DFE803F004060A0E10141C270868D1
S113E89000E04869C0F3042070470868C0F30060D2
S113E8A07047C86800E08868C0F308207047DFF844
S113E8B0FC3498420ED1086A00F00F0006E0DFF83D
S113E8C0F034984206D1886A00F0030002FA00F09E
S113E8D0401E704700207047014601F00F010120DF
S113E8E0491E0729DFF8D02449D8DFE801F0040FD6
S113E8F01348202E4836506A00F0070002283AD008
S113E90002D3042804D01CD30520704711690FE0FA
S113E91002207047516901F00701491E03292FD8CD
S113E920DFE801F00F020311F2E706207047916956
S113E93001F00701012904D00229E9D0042902D0F9
S113E9407047032070470A207047116811F00101D5
S113E9500FD0012914D109207047DFF86014096829
S113E96001F03001102904D0202904D0302904D02A
S113E9707047072070470420704708207047002024
S113E9807047000070B500F00F0003240325401EFB
S113E9900728DFF824640FD8DFE800F0042E347C65
S113E9A031607C6A0229DFF8C40206D003291AD038
S113E9B004291AD005291DD070BD04240025012284
S113E9C00121284600F0BAF8FFF72DFE7460DFF845
S113E9D0E403FFF7C3FEFFF7F3FD10F0A3F9BDE86E
S113E9E07040002129E60125E9E702240225FFF70A
S113E9F0E7FDE4E70124FAE706F1100404E006F178
S113EA00180401E006F11404012908D0022909D0F0
S113EA1003290ED0062913D00A291DD070BD002069
S113EA20206070BD01220121002000F087F802203F
S113EA30F6E701220121012000F080F80120EFE730
S113EA4010F070F9FFF7BCFD01220021DFF84C0340
S113EA50FFF7A8FD0320E3E70420E1E7072902D03C
S113EA60092902D070BD002000E00120306070BD93
S113EA70012906D0042915D007290CD0082918D05B
S113EA8070BD0020DFF834130A6822F0300242EA35
S113EA900010086070BD01220121042000F04EF82E
S113EAA00120EFE701220121022000F047F80220B3
S113EAB0E8E70320E6E770B500F03DF80122002105
S113EAC0022000F03BF8217CDFF8F85200200229F4
S113EAD0296808BF0120490840EA4100286008214C
S113EAE022782846FFF75EFD6868E17AC00841EAAB
S113EAF0C0006860617AA08841EAC020A860EE681E
S113EB00207AFFF7ACFDE28806F07F6141EAC2217A
S113EB10A27A1143227A41EAC2110843E860A17B38
S113EB20607B090141EA0030E17B0843217B40EA34
S113EB300140286170BD04461120CDE62DE9F84F4F
S113EB4004288246904671D8DFE800F04C473D0324
S113EB50420001260220012700240029DFF8389210
S113EB60984D5ED0BAF1020F02BF2868C0F30110BD
S113EB7000284FF0000B0AD12868C0074FF0010BA2
S113EB8005D5286820F0300040F010002860EE63BE
S113EB9000F04EF80028FBD0B8F1000F46D03946FB
S113EBA000F047F80028FAD0BAF1020F3ED1BBF1C9
S113EBB0000F3BD02868C0071BD50122202102206A
S113EBC000F0C9F819E00426082003270224C4E74A
S113EBD01026202005270424BFE74026802007278D
S113EBE00624BAE74FF480764FF40070092708240E
S113EBF0B3E70021022000F08DF8022000F01CF899
S113EC000446012200210220FFF798FF214602203A
S113EC1000F036F8EE63394600F00BF80028FAD01D
S113EC2004E0E86300F004F80028FBD1BDE8F18FAC
S113EC3021464846FFF7BDBC401E0328604912D850
S113EC40DFE800F0020C06080869C0F3080070470A
S113EC50086800E0886800F07F0070475A48006840
S113EC60C0F30A0070470020704700000148E80123
S113EC700190D00300400E4004000E4041787D0115
S113EC8070B5401E0D46032805F07F014C4C404EE4
S113EC903DD8DFE800F0022A101DC5F308051A214B
S113ECA03046FFF786FC0028F9D12069400A45EA7E
S113ECB04020206170BD0D4618213046FFF779FCD5
S113ECC00028F9D12068C00945EAC010206070BD51
S113ECD00D4619213046FFF76CFC0028F9D1A068D5
S113ECE0C00945EAC010A06070BD2B480068606987
S113ECF020F0300040F010006061C5F3C310FFF74E
S113ED00AEFC216A314A114029430843206270BD98
S113ED1080400E402B480268C2F30112002A18BF3B
S113ED20002907D0202902D0302903D005E04FF470
S113ED30000103E04FF4400100E02549C26E0A409F
S113ED408A42FBD1490204D5C06F800A00F0010059
S113ED5070470120704710B502280AD10B0004D077
S113ED601C4B4FF480645C64196012B1BDE8104020
S113ED70D0E7012010BD000002001A0003001C00AF
S113ED800500200000410E40015A620240000E407E
S113ED9040410E40C85F002090400E40B0400E40FD
S113EDA050410E4006000C0098002E00600614002E
S113EDB0700716000005080070400E405C410E40CC
S113EDC010400E4024400E409C400E4000F8FF0FBF
S113EDD0FF03E10764400E4010B5214B1C6890FA14
S113EDE0A0F2B2FA82F224EA0000914008431860CB
S113EDF010BD1C4901200860704730B51A481B4BF0
S113EE0001680020002203EBC204194D64682D68D8
S113EE106D070FD453F83250B5F5007F18BFB5F520
S113EE20806F05D0B5F5006F18BFB5F5803F01D1EF
S113EE3044F480740F4D2D68ED0553F8325048BFEB
S113EE4024F01C04294202D0214208BF2843521C4A
S113EE50092AD8D3C10348BF20F01C0030BD0000EC
S113EE6000500E4008500E4004500E400C25030084
S113EE70E841E00F88300E400168C90707D5816872
S113EE80890704D48168C907FCD401214160704713
S113EE900A784B7842EA83028B7842EA8312CB7871
S113EEA042EA03120B7942EAC3224B79897942EA96
S113EEB0033242EA4141104A00011150704701787F
S113EEC0427841EA8201827841EA0211C27841EA39
S113EED04211027941EA0221427941EA02318279FE
S113EEE041EAC231C279007A41EA024141EA404032
S113EEF0024908607047000040200440002004409C
S113EF0000220FF079BF00001B4213D1094236D111
S113EF102AB18446B0FBF2F002FB10C270470FF036
S113EF2085BFFCD30022002370470B0002000021A0
S113EF3000207047904271EB030CF6D370B5B1FA20
S113EF4081F4B3FA83F52C1BA340C4F1200532FAF3
S113EF5005F63343A2405FF00046E64002E05B085A
S113EF605FEA3202841A71EB030524BF2046294666
S113EF707641F4D302000B003000002170BD012A59
S113EF80CFD970B5140C20D0B1FA81F4B2FA82F55D
S113EF90C4F120046419B4F12006D6D3B2405FF062
S113EFA00044F440002502E052085FEA3303C61A25
S113EFB071EB020E24BF3046714664416D41F3D3B8
S113EFC002000B002000290070BD0C46B1FBF2F1D9
S113EFD002FB11452D0445EA1045B5FBF2F402FB92
S113EFE0145580B240EA0545B5FBF2F002FB10521D
S113EFF040EA044070BD0000044988421CBF044933
S113F000884201D1012070470020704700800140F0
S113F010008401402DE9F84304460D46FFF7ECFF58
S113F0202878010004BF02216160002161626978CF
S113F03001B140216A7A02B18022AB7A03B1202364
S113F040EE7A06B1102695F8049095F805C095F867
S113F0500CE0EF7895F80280B9F1000F18BF4FF477
S113F0600059BCF1000F18BF4FF0805CBEF1000FD7
S113F07018BF4FF0080E3F0447EA0868AF7948EA22
S113F0808728EF792D7A48EA07273D43294311431E
S113F0901943314349EA01014CEA01014EEA0101F5
S113F0A0216008B101206060BDE8F183F8B5044631
S113F0B00D461646FFF7A0FFF07908B14FF08040E7
S113F0C0317A09B14FF00051727A02B11022B37A49
S113F0D003B1042396F801C037784FEA0C6C4CEA6C
S113F0E0876796F802C047EA0C4796F803C047EAD8
S113F0F00C3796F804C047EA8C2796F805C0B67911
S113F10047EA0C273E4330430843104304EB051100
S113F11018430866F1BD0000002806D50B4900F02D
S113F1200F00084410F8040C01E00949085C400988
S113F13070470849420951F8221000F01F00C140ED
S113F14001F0010080F001007047000018ED00E0BC
S113F15000E400E000E100E072B67047012100F035
S113F1601F029140DFF8AC2705E0012100F01F02E7
S113F1709140DFF8A427400942F82010704701218C
S113F18000F01F029140DFF89427F4E710B501283E
S113F19018BF2028DFF8884705D04FF4BD71DFF889
S113F1A08407F6F7FFF9204610BD4268928840892B
S113F1B0401A824201DA01207047002070473EB5B0
S113F1C0012818BF202834D1012818BF202830D1A5
S113F1D0FFF7DCFF0446F6F775F90546A06901ABB5
S113F1E06A4602A910F0A5FD00992289206889B217
S113F1F000F024F82846F6F76BF9A06910F011FE28
S113F200012816D1216820898988401A218A8842D8
S113F2100FDBA06990F83110022903D110F087FDAB
S113F220022804DAA06990F83100012801D100F025
S113F23001F837BDA069002110F0CBBD70B50446BC
S113F2400D461646F6F73EF9E188A9420CD222880B
S113F250521A521992FBF6F306FB13222280A2885B
S113F260AA18511AA180E580BDE87040F6F730B9BC
S113F270F8B5012818BF20280C46154616D1FFF70B
S113F28085FF0646307B10B101207073F1BD707BA1
S113F29018B13046BDE8F240B2E00FF2CD1700F0ED
S113F2A006F818B100F003F80028FBD1F1BDB069ED
S113F2B03B462A46214610F098BE70B505460E46D8
S113F2C0FFF764FF012D18BF202D044640D1A0692B
S113F2D0016890F83200E8B90420886400F048F925
S113F2E0A0690068C16C002E07D041F00401C1641C
S113F2F00B20FFF733FF052106E021F00401C16470
S113F3000B20FFF732FF0021A0690068BDE87040C0
S113F31010F0F0BE0420486300F02AF9A0690068E8
S113F320816B002E07D041F0040181630B20FFF7AD
S113F33015FF052106E021F0040181630B20FFF78E
S113F34014FF0021A0690068BDE8704010F057BFA9
S113F35070BD38B50446DFF8D005814230D0DFF8FF
S113F360C055A869A0422BD12A89286899B2FFF711
S113F37065FF29680020C88002E0284600F021F8D3
S113F380204610F0D4FC03281ADA2A68E889698A2E
S113F39093884143002B89B2EFD0538812884018D8
S113F3A08342B8BF914205DB9A42E6D28342A8BFAA
S113F3B09142E2DA2046BDE83440012110F009BD53
S113F3C031BD38B50446DFF86435E089658A2168C3
S113F3D002466843084400F10801A06910F0BDFD2D
S113F3E0A06910F0A4FC022801DBFFF723FF608A68
S113F3F0A18A401C90FBF1F201FB1200608231BD36
S113F400FEB50446207B68BB60680FF25D07418847
S113F410084400F10805A0696B4601AA02A910F08E
S113F420A8FC60688188009A891A019A8E1A41881A
S113F430008888420ED26089421AA0693B46294658
S113F44010F0D3FD70B9606861894288711A56184A
S113F45000F10805A0693B46F2B2294610F0C5FD4B
S113F46000B96073F7BD000070B5DFF8B454A96942
S113F47081421C4615D168688188A14238BF8488BE
S113F480F6F720F869686B894A88A4B2A21892FB3F
S113F490F3F603FB16224A8069688A88121B8A8065
S113F4A0E2E670BD38B50D46FFF770FE112D044637
S113F4B009D1A069002110F09DFC00202073204692
S113F4C0BDE832409CE7132D06D1A069012110F05C
S113F4D091FC0120207331BD206801880844057225
S113F4E020680188228900F07BF901808188491C09
S113F4F08180A06910F095FC226821899288891A7C
S113F50089B220B9E2898A42A8BF012105DA01281B
S113F51008D1208A814205DB0021A069BDE834407E
S113F52010F057BC31BD80B5DFF804040169090649
S113F53006D510F051FEBDE8044001460120B1E7B4
S113F54001BD80B5DFF8EC03016829B10168DFF87B
S113F550E82311600021016000F00AF80B20FFF796
S113F560FDFDDFF8D803016841F00401016001BD2D
S113F5700B2004E680B5DFF8C8030421016041686C
S113F58021F004014160FFF7F3FF0B20FFF7EDFDCD
S113F590DFF8A403006810B1DFF89813086001BD18
S113F5A0F8B50C461546FFF7F1FD0646EAB2306899
S113F5B080883189891A884201DB0120F2BD002745
S113F5C00DE0F5F77FFF31680B8814F8012B19441F
S113F5D07F1C0A7231680A88338900F00DF9AF4242
S113F5E0EFD30020F2BDF8B5012818BF2028044647
S113F5F00D463AD100F0F8F910B9204600F06CF845
S113F6002046FFF7C3FD06462046FFF7BFFD012C49
S113F61018BF202C29D1DFF82C130160DFF8281340
S113F62041608021012C18BF202C0181418151D1DE
S113F630012C16BF202CDFF814030020012C18BF66
S113F640202CB06111D1DFF80803A98CA861DFF880
S113F6500403E861F181EA8C32828A4207D21C21D8
S113F6603046FFF74DFC0220F2BD0120F2BDB06927
S113F67090F83130012B0CD0338993FBF1F701FB67
S113F6801733002B02BF92FBF1F301FB1321002976
S113F690E5D1294610F086F9E8B9B069017F007E0A
S113F6A00123022210F050FE287C012807D10121F9
S113F6B02046FFF702FEB069FFF7BDFD0AE0002017
S113F6C07082F189308990FBF1F0B08200F089F901
S113F6D000F087F90020F2BD58B5012818BF202892
S113F6E0044612D100F080F9F0B9204600F058F930
S113F6F02046FFF74BFD012C18BF202C06460FD1E6
S113F700B06910F016FA10B152BD012052BDB069B3
S113F71090F83100012803D100212046FFF7CDFDE8
S113F7201C213046FFF7ECFB002052BD38B50446DF
S113F730FFF72CFD05462046FFF741FD2868808829
S113F74032BDF8B50128064618BF20280F463446B6
S113F7500AD1FFF71BFD05463046FFF730FD286848
S113F760808818B92620F2BD0120F2BDF5F7AAFE63
S113F7700646286841880844007A38702868418819
S113F7802A8900F02DF841808188491E012C18BF78
S113F790202C81801FD1A86990F83100012803D161
S113F7A019E02846FFF70DFEA86910F0C0FA0228F8
S113F7B011DA2A68E889698A53881288414389B230
S113F7C040188342B8BF914205DB9A42E9D2834292
S113F7D0A8BF9142E5DA3046F5F77AFE0020F2BD83
S113F7E0491C91FBF2F302FB1311704780B5FFF73C
S113F7F0CDFC4068808802BD521C92FBF3FC03FBE5
S113F8001C220A808A88521C8A80F5F761BE10B5D2
S113F810012818BF20280BD113460A4601460FF2CF
S113F820150002F00EFD002400B90124204610BD8D
S113F830012010BD2DE9F84F814601281CBF202866
S113F84001208A4693464AD1FFF7A0FC07460024CC
S113F85078680188084400F10808002627E0F5F7D5
S113F86031FE79680B881AF8012B19440A727968F9
S113F8700A887B89521C92FBF3FC03FB1C220A803E
S113F8808A88521C8A8009884D1EAD41F5F720FEF6
S113F890ED0F761C5DB1351BEDB22A464146484654
S113F8A0FFF7E6FC78682C19E4B200F10808F0B21E
S113F8B058450AD200213846FFF777FC0028CED1FC
S113F8C0387B0028F6D0222009E05C4506DAABEB51
S113F8D0040292B241464846FFF7CAFC0020BDE844
S113F8E0F28FF8B501260746012F18BF202F0C46CA
S113F8F015460DD1FFF74AFC012F18BF202F05D163
S113F90080692A46214610F08EFA06463046F2BD3A
S113F9100120F2BD00E100E080E100E080E200E0CF
S113F920B46800209C100300097000F053F3000039
S113F930000001406C200E40046900204C0001408E
S113F94048000140A46700202C680020D0680020F3
S113F950FC5D00207C5E002038B50446012C18BFF5
S113F960202C1BD1FFF712FC012C18BF202C0546BC
S113F97012D1686880880028FBD1A86910F0F5F9D5
S113F9800028F6D1A86910F0A9F98006F1D5A86974
S113F99010F0A4F98004ECD5002032BD012032BD62
S113F9A070B50546FFF7F2FB0646012D346818BF13
S113F9B0202D0DD1B06990F83110012908D0022111
S113F9C010F0FCF80020708200F00BF800F009F849
S113F9D0F5F778FD0021A18021806180E180FFF7A7
S113F9E043BC3046FFF7EDBC80B5012818BF202882
S113F9F006D1FFF7CBFB00281CBF0068002801D10B
S113FA00012002BD002002BD890001EB401000F17D
S113FA10844002607047890001EB401000F184408B
S113FA20006870472DE9F041DFF84066DFF8404692
S113FA30DFF8405630B9306B28601120FEF74CFFD8
S113FA4020702CE0DFF83076D7F8008045F60E0001
S113FA50386000202968CA0748BF0120CA0648BF89
S113FA6040F010004A0648BF40F040004A0748BF33
S113FA7040F00400C90548BF40F48070306021782C
S113FA8005291CBF1120FEF77DFF2878C0075CBF45
S113FA90022030605FEAC87044BF00203860BDE8CF
S113FAA0F081DFF8D815DFF8D82538B11068086080
S113FAB0106820F47F4040F4EE4000E008681060D5
S113FAC0A5E0DFF8C0050178012918BF02290BD190
S113FAD0DFF8B4150A6802F00302012A02D1CA6BE6
S113FAE0D203FCD503210170704710B504001CBF7C
S113FAF00020FFF797FF00F02CF8FFF7E2FF30BF7C
S113FB000020FFF7CEFF04B12BE01EE010B5040087
S113FB101CBF0020FFF786FFDFF85C05DFF84C35DB
S113FB20016845F60E020260C9074FF420721A609C
S113FB3044BF0021016000F00CF8FFF7C2FF30BFA2
S113FB400020FFF7AEFF04B10BE0BDE810400FF05A
S113FB50E9B8DFF83805016841F0040101600120CB
S113FB609FE7BDE8104001205CE7F8B5DFF82045C9
S113FB70206920F4403040F4003520694AF6E85703
S113FB8040F4403627602069C00708D4A06B00F019
S113FB900300012812BF0228002000F072F8206937
S113FBA0C0070DD572B6DFF8EC040760816841F038
S113FBB080018160DFF8E004016841F48071016034
S113FBC00120FFF76EFFFFF77CFF04202561401E34
S113FBD02661FBD12561F1BD70B5DFF8C0140A6858
S113FBE00378920903B10423447804B1022485788C
S113FBF005B10825C6780079012E18BF002643EA0E
S113FC00821222432A4332431043086070BDDFF856
S113FC107004DFF88C2401681288C1F3032102F117
S113FC202803491C02EB5302283201EB8103B2FB87
S113FC30F3F2521E0368072A34BF12064FF0E06243
S113FC4023F0EE631A4342F480120260DFF8542476
S113FC50B2F90020002A13D492B202F1280302EB75
S113FC6053024B08283203EB4101B2FBF1F1426825
S113FC70072934BF0901702122F070021143416049
S113FC807047F8B50446DFF82054686AC007FCD40E
S113FC90DFF8F463306810F0030704D001220D216B
S113FCA02846FFF7B1FEA74202D1DCB9002214E0D6
S113FCB02FB9012C03D1DFF8CC1302200870686A35
S113FCC0C007FCD43068800844EA80003060686A69
S113FCD0C007FCD4220018BF01222846BDE8F84022
S113FCE00D2191E6F1BD70B50446DFF8C40382B07E
S113FCF002210160006800F00F00022840F08B80B0
S113FD00DFF8B003006810F1010F13D0DFF8A80387
S113FD10416802681160C1688268116041690269C2
S113FD201160C16982691160416A026A1160C16A25
S113FD30806A0160E0884B2838BF00200DD3B0F5FD
S113FD40FA7F38BF4FF0805007D340F6C411884281
S113FD5034BF4FF000504FF04050DFF86053DFF8ED
S113FD6060332969B4F90C20DFF814631940D243D5
S113FD70084340EAD27028610021306A40F0807064
S113FD8030623046FFF747FE00B1042000F034F93A
S113FD90706920F0C0407061306840F00600306047
S113FDA0684610F01BFB9DF80100012815D19DF851
S113FDB00000032811DADFF8CC02017869B9A968D8
S113FDC0DFF8002341F00101A96071691140DFF8F7
S113FDD0F82211437161012101702089DFF8C012FA
S113FDE00880A089DFF8BC120880A088DFF8BC1264
S113FDF0088000F0CEF8A07B20B1012805D1DFF8FF
S113FE00CC0201E0DFF8C802F06060880122012121
S113FE1000F010F808B9002076BDA27A02B10122E0
S113FE2005212846FFF7F0FD6078FFF72AFF01203F
S113FE3076BD00002DE9F847A0F5E163B3F5966FB0
S113FE4000F2A580B0F5E16FDFF888524FF49668B0
S113FE5007D92C6801234FF4E169260EC4F3074A3D
S113FE6008E02C68C14600234FF41678C4F3072633
S113FE7004F0FF0ADFF8084227683F0F07F0030782
S113FE8000974FF0000E009F53EA0727F44614D062
S113FE907F1E1ED0FF3F0ED07F1E14D0FF3F08D020
S113FEA07F1E0ED0FF3F02D07F1E08D016E0AF6841
S113FEB00AE0AF680EE06F6806E06F680AE02F6939
S113FEC002E02F6906E0EF684FEA176CC7F3074EAC
S113FED004E0EF68C7F3072C07F0FF0EA0EB090955
S113FEE0A6EB0A0000FB09F0B0FBF8F05044ACEBC1
S113FEF00E0707FB09F78642B7FBF8F828BF504501
S113FF00F04444D3C44528BFF04540D35AB12269D4
S113FF10DFF8C471002B14BF022600263A4042EADF
S113FF2000203043206179B3DFF8B0010068C0B22B
S113FF30042802DA686983B10CE0A86900990329EE
S113FF4025D8DFE801F00A070402000E07E0C0F339
S113FF50074004E0C0F3072001E000F0FF000003C5
S113FF6030F4704113D1216A21F4704108432062B6
S113FF70B8F1E70FA06928BF4FF0E708400A43EA49
S113FF80480141EA4020A0610120BDE8F287002039
S113FF90FBE710B53A494B6A0C68E4074FF0FF32AF
S113FFA003F0070312D5022B10D3142815D31438E9
S113FFB014281FD30F22086820F47F4040EA02204F
S113FFC040EA02300860BDE8104020E60C68E4070F
S113FFD009D4022B07D20A2801D20322EBE70A38FC
S113FFE00A2807D3E6E70C68E407E4D5022BE2D23B
S113FFF02828DFD20722DEE738B50446204D002149
S2140100002846FFF708FD686AC00844EAC00068622F
S214010010BDE8324025480088BBE710B50221002222
S21401002003002F4BDC6A08BF0021012C03D14AF6DE
S214010030E8540122DC62022818680CBF20F0740024
S21401004040F074001860986B40F0080098632548EB
S214010050046824F4406444EA81210160986B20F02E
S214010060080098630AB10020D86210BD60400E40B7
S214010070997E0020A86C002080410E40AC6C0020C8
S2140100804C300E40987E002040300E4010ED00E0CF
S21401009008300E4090310E4088300E4018300E4029
S2140100A0667E00206A7E002054300E40687E002066
S2140100B038300E401C83E00F3880E00F3C300E4095
S2140100C0FEFFFFCF000F0EF0B4C0400B372110B774
S2140100D0774020571883E00FFD80FFFF0082E00F76
S2140100E064310E403C400E4062B6704738B5044657
S2140100F0214804600D46204600F0B8FA29462046FD
S214010100BDE8344000F07EBA0120704710F0C8BB4D
S2140101100846114600F0CBBA70470846114611F062
S21401012073BA0220704700207047002070470120F4
S21401013070470020704710B50C4611461A46034614
S21401014020460D4C64682468A04710BD0A484068E4
S21401015040680047084840688068004710B582B08C
S214010160049C0094044C64686469A04716BD024967
S2140101704968896908470000146300200C3000F0C4
S21401018099B80C3000F0A8B80C3000F0B7B80C30B5
S21401019000F02BBF0C3011F09BBA00008B0C020054
S2140101A0F70C0200030D02002D0D0200410D0200A6
S2140101B023010100270101002B0101002F0101008D
S2140101C0330101000120704738B500F01BF800210B
S2140101D02561E160BDE8324011F07DBA38B500F026
S2140101E011F82169E26829400D0018BF0125114365
S2140101F0E16011F070FA15B10020042134BD002031
S214010200002134BD04460D4611F068BA38B5FFF733
S214010210F9FF2269E1682A4021EA0205E56011F04A
S2140102205AFA284632BD8069704770B582B00546D5
S2140102300C0006BF0FF25C000068206816460090AE
S21401024006B9EE6831462846FFF7E0FF32466946B2
S214010250284610F078FD0CB10098206073BDF8B503
S21401026000F10C070C4615463846FFF7ABFF022691
S21401027028B12A4621463846FFF7D7FF00263046E2
S214010280F2BD80B50C3001F00111FFF79DFF002093
S21401029002BD0000FFFFFFFF38B504460D4610F013
S2140102A034FB08B9022032BDA9B22046BDE834406D
S2140102B000F023BA38B50446154689B2FFF7ECFFBD
S2140102C0010005D129462046BDE8344010F040BB68
S2140102D032BD0C3010F03FBC70B500F00AF80100DA
S2140102E006D1324629462046BDE8704010F078BB5C
S2140102F070BD044615461E4689B2CDE770B5FFF7B8
S214010300F8FF010006D1324629462046BDE8704076
S21401031010F027BB70BD7CB50D466946044600F05B
S2140103202DF89DF800102A46204611F0DBF904F15D
S2140103300C060146304610F079FD76BD30B583B027
S2140103406946044600F01AF804F10C05284610F038
S214010350A3FD02469DF80010204611F02BFA3EBD83
S21401036038B50C4600F10C050021284610F05EFD5C
S21401037021462846BDE8344010F04BBD0C3010F045
S21401038085BD0C3010F02FB951480068704770B524
S214010390504C514E257830784D490968C9031ED412
S2140103A005F0010100F00102114318D04B490A681B
S2140103B042B1000706D5096808208847307800F062
S2140103C0F70030704649086870B128070CD50968EF
S2140103D008208847207800F0F700207004E04148A4
S2140103E0017809B100210170BDE8704068E02DE98F
S2140103F0F84304468846F5F765F881463A4800789A
S2140104000127B0B1334F364E3D78200009D1002D7B
S2140104101CBF3068002804D0680602D53168402029
S2140104208847C6F80080A5421CBF3C70FFF7AFFFA7
S214010430002721E02DE9F84304468846F5F742F8FF
S2140104408146294800780127B0B1234F234E3D78D5
S214010450200009D1002D1CBF3068002804D0680692
S21401046002D5316840208847C6F80080A5421CBFE7
S2140104703C70FFF78CFF00274846F5F729F8384609
S214010480BDE8F2831248184A0168127800202AB1A2
S2140104904A0303D40120090548BF032070471249C7
S2140104A00978002031B10A49104A09680120114231
S2140104B018BF032070470C4800787047704700BF8C
S2140104C009480849007800200870F6F75EBD00006C
S2140104D0986700208F7E0020907E0020A067002075
S2140104E09C6700208E7E00208D7E0020000808007C
S2140104F070B50D4682B00446287858B900212046CA
S21401050010F01AFD0021204610F06CFD0021204657
S21401051010F070FD2878002814BF0420287900F018
S21401052027F814BF287968798DF80100204600F075
S214010530EEF906001AD12878002814BF0220A879FF
S21401054000F016F814BFA879E8798DF80100204666
S21401055000F0BBF9060009D1287838B16988204631
S21401056010F0F6FC0121204610F0E6FC304676BD80
S2140105708DF8000069462878002870470C3010F086
S21401058031BD0C3010F040BD62B38B0708D0521E4F
S21401059011F8013B00F8013B00F024808B07F6D1EF
S2140105A0830740F0208000BF103A07D330B4B1E88B
S2140105B03810103AA0E83810F9D230BC530724BFDF
S2140105C0B1E80810A0E8081044BF51F8043B40F811
S2140105D0043BD20724BF31F8022B20F8022B44BF7C
S2140105E00B7803707047083A07D3B1E80810083A49
S2140105F040F8043B40F804CBF7D25307E4E7000089
S2140106000120704710B5044610F019F808B1002013
S21401061010BD204610BD70B50D00044614BF01265E
S21401062000261F21304611F019F90020606225626C
S2140106301F21304611F012F94FF6FF76002001E037
S214010640401CC0B2E968884209D2A968182212FB88
S21401065000F21144C989B142F2DA0E00F0D13146F6
S214010660204600F04AF8304670BD704710B5044683
S21401067010F091F8A06A0100DFF8301208BFDFF829
S2140106803002886010BD38B500F10C050C462846CE
S214010690FFF7B6FF28B110F003F9012801D00220B8
S2140106A032BD21462846BDE8344010F0C6B810B524
S2140106B00C4610F0D7F81CB110F0F2F80128FBD167
S2140106C010BDF0B504467B48066883B00D46694602
S2140106D0204610F0DBFBB5F91220012747F6FF7024
S2140106E02479824207D09DF80010304610F0FAFFB8
S2140106F0A04238BF00273846FEBD2DE9F04F85B031
S2140107004FF000098DF801900446684F8DF800906F
S2140107100D463868D7F804A00290CDF804A020460C
S21401072000F0C1F88046266AD4F824B000F0EBF851
S214010730002818BFD34505D1BBF1000F02D0A8B2DF
S21401074040454BD0002E1CBFB068002801D0F06891
S21401075008B903209CE0CA4601E00AF1010AF068E4
S214010760824518D2B068182101FB0AF10144A8B2EB
S214010770CA89904222BF088AAAB29042EDD30120CC
S2140107808DF800008B462046FFF79BFF0028E4D03B
S21401079001208DF8010003A9204610F077FB2046C2
S2140107A010F07AFB82469DF80100C0B1217900F075
S2140107B073F8386860B3B04223D17A680AB35A45F1
S2140107C01FD1A9B2884506D00023204610F066FB4B
S2140107D05FEA000912D1C4F824B0658057E09DF89D
S2140107E0000048B1BBF912209DF80C10A4F10C00D2
S2140107F010F078FF0146DAE7012049E000F04BF8F7
S2140108003FE0016821B13268914208BF416800D0DB
S214010810316800F045F881465FEA090004D1DBF84B
S214010820001000F03DF881465FEA09000FD100F0A4
S2140108306AF810B13E60C7F804B0C4F824B0658009
S21401084001235A46A9B2204610F028FB81465FEAEA
S214010850090005D1BA685946A4F10C00904716E084
S21401086000F051F898B102983860019878603868BD
S21401087008B100F014F800F00EF8786838B100F00E
S2140108800EF87A6800234146204610F007FB4846DA
S21401089005B0BDE8F08F5146204610F0E7BA016872
S2140108A0204610F079BD4088704700001C63002088
S2140108B06B0601001463002001281CBF04280228CF
S2140108C001D1012070470020704738B500F03CF890
S2140108D040B16878FFF7F0FF20B1287869780843BF
S2140108E0400701D5012032BD00F00DF828B10FF008
S2140108F0D7FF400701D5022032BD29462046BDE874
S214010900344010F04DBA20467AE60C30DDE738B5B3
S21401091000F01AF838B16878FFF7CEFF00281CBF40
S2140109206878042801D1012032BDFFF7ECFF28B119
S2140109300FF0B6FF800701D5022032BD29462046BA
S214010940BDE8344010F054BA0D4604462878B3E7A3
S2140109500C30DCE730B583B00C30DDE90645CDE977
S21401096000450FF0E6FE3EBD0C3010F0E9BC00007D
S2140109700020704738B51446F6F756FD05466CB1AB
S21401098028000BD00A48007818B10A4901200870DF
S21401099004E000220021284600F077F8284632BD00
S2140109A070477047704704490870704700000000A0
S2140109B05665002057650020EB7E00207047012019
S2140109C070470C3010F04FBC0846114610F0B8BB0B
S2140109D00846114610F0D6BB70B50C4615461E46A5
S2140109E00C30FFF7ECFF38B1049B3246294620460F
S2140109F0BDE870400FF0D8BE70BD00007047F6F736
S214010A0071B938B50A480C4601884FF6FF75ADF83E
S214010A10005002237F2268460CF029F9BDF8000039
S214010A20A84202D02080012032BD002032BD000045
S214010A3010590300DFF8F003002120F8801B002284
S214010A40FF2101704170C27002714171827170475D
S214010A5038B50446402C154606D1FFF795FC00F044
S214010A608020B0F1004F03D000210020FFF7BFFC2B
S214010A70DFF8B803290018BF01210470417000F0A7
S214010A808DF9BDE83140F4F7A9BE70B504460D46B0
S214010A9016468D2C08BFFFF783FF324629462046AF
S214010AA0BDE87040D4E7F8B5DFF87C43F4F70AFDFB
S214010AB004F180056E79FF2E68D0FF216971F4F785
S214010AC007FD30001CBF402E8F2E1BD1FAF7ADFA62
S214010AD0400917D0E01C04F027FC00F44060B0F594
S214010AE0406F05D104F10801002007F054FB05E032
S214010AF004F1080004F018FC00F008FCA1780D31A0
S214010B0010F0B8FE002E207816BF8F2E0127002782
S214010B10022802D0CE2100F0A7F8380011D0A01C80
S214010B2000F0D5F868B1A87938B1012020702921E4
S214010B30BDE8F440BE48F3F709BFF6F7ECFD3120F7
S214010B4021E0F6F7E8FD402E10D110F094FE607813
S214010B50411E6170A0B1287807F08CFC0146002286
S214010B600420F5F731FDBDE8F1403BE08D2E07D1BD
S214010B70287807F07FFC014600222020F5F724FDA7
S214010B8007B100263046BDE8F240B3E0F4F7A0FC1A
S214010B902078032804BF002000F0ACF804F181009F
S214010BA001F0A8FAFF280AD0E978491EE970FCF797
S214010BB081FF207818B9BDE8F140FCF732BEF1BDDF
S214010BC071E780B5FFF7E0FB40054CBF032001202D
S214010BD00021FFF70CFCBDE8084001224FF47A71B2
S214010BE0944818E180B501200CF034F9FDF7CEF9F0
S214010BF09149C0B9487830B1FFF7C6FB00280BD53C
S214010C00FFF759FC40B1FFF7BFFB40054CBF03207F
S214010C1001200021FFF7EBFB01224FF47A71854892
S214010C2000F0F9F81BE001280DD100204870FFF70D
S214010C30ABFB40054CBF02200020804940F011006C
S214010C40FFF7D5FB0BE0022805D1002200218D20FD
S214010C50FFF7FEFE03E040F2751100F005F8BDE86F
S214010C60024000200CF0F6B80FF2E410F4F79ABC3C
S214010C7038B5044600208DF800006B4D287818B171
S214010C804FF4C071FFF7F0FF0220287085F880400E
S214010C906A46A91C2046FCF79BFC674948706848D1
S214010CA000786870FFF79EFF31BDFDF7ECB80100D4
S214010CB080B508BF012002016249002010F0EEFD58
S214010CC0002002BD5F49002010F027BE704710B516
S214010CD0441C204604F028FB00F00700032807D137
S214010CE0204607F087FB205C042801D1012010BDB7
S214010CF0002010BD38B504464B4D7E220021A81CAD
S214010D00F5F7FDFA00202870FCF78BFD95F88010AA
S214010D102046BDE83440FCF785BD70B504460D4657
S214010D201646F6F768FE60B13EB12046FFF7CFFFE4
S214010D3018B1607840F0200002E0607800F0DF0033
S214010D4060702946204600F07CFF0146FF2924D02A
S214010D50354D3D4E05F18104204601F0B6F915F8F2
S214010D60830F401C2870C0B2318881420BD268784C
S214010D70401C687007E0204601F0BCF900F0DEFE7A
S214010D802878401E2870308829788842F3D300F0EE
S214010D9005F8BDE87040F4F721BD70BD2B4800781A
S214010DA0F3F7C4BE10B5204C2078012806D120499F
S214010DB000200870F6F7AFFC0320207010BD10B5B8
S214010DC01B49002008700024F4F77CFB16490A78BA
S214010DD0012A02D1032201240A70F4F779FB2CB10F
S214010DE0F6F799FCBDE81040312083E710BD0E48A8
S214010DF00178481E8041C00F7047F6F7A8BCF6F789
S214010E00A2BC094890F88310002904BF813001F084
S214010E10BBB900207047FFF7ADBD03480078012835
S214010E2018BF002070470000D47A0020597B0020AC
S214010E305C7B0020D67A0020A8610020C30B01004D
S214010E40F8630020AB0C0100B8630020DF7E0020B1
S214010E506C6F7765722D6D61632D65667233322E08
S214010E6063000000890001EB401000F1844002603D
S214010E70704730B5504887B00068040E68460FF0DA
S214010E80ADFA8F2C10DA4D484D4C016841F0040242
S214010E9002604FF05013002230255543521C635117
S214010EA0062AF9D3016001E0902C06DA454801686C
S214010EB0C909C90141F0200101609DF8010001281E
S214010EC004D14148016841F00401016000220D216E
S214010ED03E48FFF7C7FF3E490120086003AC10F00B
S214010EE051FDF5F72AFC10F07EFE3A48D0E90023C2
S214010EF0CDE9012301208DF8070001A8FEF76CFE5D
S214010F00F5F758FFF4F700FB33480FC884E80F00E5
S214010F1008208DF8180003A810F0F6FE07B030BDC3
S214010F2040F20160F7F71CBB80B500210020FFF7F7
S214010F3081FABDE80140FFF7C1BAFFF7C0BA032046
S214010F400BF0CCBE80B50CF084F9014623480C2981
S214010F5038BF00EB810002BD80B50CF07EF9204958
S214010F600204120E51F8221000F0FF0001EB80007F
S214010F7002BD000010B50CF06CF904460CF06DF9DA
S214010F80C0B208B9012C07D1072C11D8DFE804F04C
S214010F9004100608080A0C0E002010BD092010BD1A
S214010FA0022010BD032010BD0B2010BD062010BD71
S214010FB044F0800010BD0000FC81E00FB0400E4000
S214010FC000A000402C400E4064310E4054300E40CC
S214010FD010300E40442E0300FC2E03000C2F03009D
S214010FE04C3003000C300FF019BE38B50D460446E0
S214010FF089B2FFF782FB010005D1A9B22046BDE800
S21401100034400FF0B8BD32BD70B50C4684B000F167
S2140110100C05237E627EA17E284610F008FF6846F6
S21401102004F10C010C22FFF7AFFA6946284610F0CE
S214011030EDFA211D2846FFF75BFA060003D1284684
S21401104010F02CFF0646300005D10FF21C11284681
S21401105010F085FA0646300003D1284610F06EFEE1
S21401106006462168284600F006F8304604B070BDF2
S2140110700C3010F05CBE70B58AB004460D4668466A
S2140110800FF2C0012422FFF78FFA05B96D4600263C
S21401109001E0010005D135F81610F2B2204610F035
S2140110A080FE010006D105EB4600F2B2C18820465B
S2140110B010F080FE010007D105EBC60000F10C011F
S2140110C0F2B2204610F08FFE761C032EE1DB0AB04A
S2140110D070BD032ABCBF0C3010F063BE0120704700
S2140110E0032ABCBF0C3010F065BE01207047032AEE
S2140110F0BCBF0C3010F077BE0120704738B500F049
S21401110015F828B121462846BDE8344010F082BEC5
S214011110022032BD38B500F009F828B1214628462C
S214011120BDE8344010F06CBE022032BD00F10C0563
S2140111300C46284610F0F8BD0C3010F087BE084665
S2140111400FF01CBAFFFFFFFFFFFFFFFFFFFFFFFFD0
S2140111500000000000000000000000000000000089
S214011160000000000000000000000208000000006F
S21401117003480188034808237F2200F047B800BFD0
S21401118016590300C477002038B50C4611461A4696
S2140111907F2908BF002141F2F0139C4218D154491F
S2140111A00B6849680024D5B27DB30355641C1B0A3D
S2140111B0521EE4B2042CF6D3E4B2082C25D2D3B2E4
S2140111C0002B1FBF0155090A521E641CF4D131BD04
S2140111D004F47045C4F30B03B5F5805F11FB02F10F
S2140111E008BF43F07E630BD0B5F5005F1CBF04F467
S2140111F07044B4F5405F08D143F07C6343F40113B7
S214011200C918BDE83840F5F737B831BD70B51E00CE
S214011210044615461BD04BF23460814211D1092E8B
S21401122028BF082633467F2241F202012046FFF7F7
S214011230ABFF32462F492046F5F768F838B941F238
S214011240F01133462A462046BDE870409CE770BD43
S2140112502DE9F84307460024F807884615466FF03F
S2140112600F06DFF8949002D5652100F049F8E807EB
S21401127002D5662100F044F807F47041B1F5805FAD
S214011280C7F30B000CD140F07E64B4F17E6F2646A6
S21401129004D32819401E1949884210D36B210CE04B
S2140112A0B1F5005F18BFB1F5405F05D140F07C6431
S2140112B044F40114264602E0722100F021F80027CA
S2140112C006E0F05DFF2802D07C2100F019F87F1CB3
S2140112D0AF42F6D36A084146204610F03FFE28B1D9
S2140112E04846BDE8F4438521F4F75CB9BDE8F183CF
S2140112F0F081E00F3C2E0300302E03000008E00FC3
S2140113004846F4F74FB9084610F0B0B9F8B50F4D96
S2140113102E68040001D1FF20F2BDF4F7D3F80C4F7C
S21401132029683A7821F8124036F8021BA142FBD10F
S214011330F4F7CEF829683A78B01E401A4010C1B2C8
S214011340914208BFFF20C0B2F2BD00BFE05F00209F
S214011350C1630020DFF8481400200870FF21DFF881
S2140113604404017001717047F8B50446F4F7B4F807
S2140113700546DFF83404DFF82C740688204607F0AB
S21401138055F8B0F5006F16D1204607F073F8FFF751
S214011390BDFFFF280DD000F08DF92146381D00F065
S2140113A094FEDFF8FC03017881B10089A9190E1AB1
S2140113B010E09320F2BDFF21384600F0B1FE05286B
S2140113C002DA21463846EAE73920F2BD0581314680
S2140113D0F3F7BCFAB2B20321204606F0A4FF0322BB
S2140113E00521204606F0AAFF204600F099FB0020C2
S2140113F0F2BDF8B50446DFF8AC030078FF2813D039
S214011400DFF8A85329680E5C3746384607F023F8FC
S214011410014608222046F4F779FF08B90120F2BDFB
S2140114202868C75DB742F0D10020F2BD2DE9F84328
S214011430044606F0A4FF000B00F00106204607F064
S2140114402EF80546204607F019F8B0F5404F14D19E
S214011450002E62D02946002000F0E7F80446FF2C53
S2140114605BD00021FCF71CFA002856D000F003F9E7
S21401147040F080020521204646E0284603F054FF4E
S2140114800546FFF743FF0446FF2C08BF002045D062
S21401149001200021224610F089FDDFF81423D2E94D
S2140114A0008948EA000349EA0107C2E90037A6B302
S2140114B0DFF80063336833F814704FF4E6631F42B5
S2140114C02BD0BB0623D5280A8DF801008DF80050D5
S2140114D06946012000F0A9F80546FF2D08D13068BD
S2140114E030F814104FF6DF72114020F8141014E093
S2140114F00021FCF7D5F980B10521284606F025FF25
S21401150040F080020521284606F018FF05E0D2E9E2
S214011510024520432943C2E902010120BDE8F283C6
S21401152038B5044606F082FFB0F5006F0CBF012502
S2140115300025204606F08FFF04462146284600F087
S21401154074F8FF2810D18DB1204603F0EDFEFFF7A9
S214011550DDFEFF280AD0DFF85C12096831F81000BA
S2140115604FF4E261084201D0012032BD002032BDB5
S2140115702DE9F04107460C4606F058FFDFF82452E5
S214011580B0F5006F0CBF281D28460078FF2846D00E
S214011590DFF818120968085C0646B7423CD1F3F733
S2140115A091FF80460521304606F0CFFE00F07F0011
S2140115B0471EFAB20521304606F0C0FE200018BFCD
S2140115C0312C01D0FFB207BBF3F77CFF074630464C
S2140115D006F02CFFB0F5006F314605D1281D00F04E
S2140115E09FFD00F04CF802E0284600F099FD3846D1
S2140115F0F3F76EFF4046F3F76BFF2146304605F0E2
S2140116003FF8304600F09AFA04E000F038F8404619
S214011610F3F75EFF012003E08E5D8642BDD1002018
S214011620BDE8F0814FF6FF704DE02DE9F0418846A8
S2140116305C4900281ABF091D022508250878FF28DD
S21401164016D05A4E31680F5C3C4600F014F800067E
S2140116500AD4204606F0FFFE01462A464046F4F725
S21401166055FE08B9204604E03068045DBC42ECD162
S214011670FF20BDE8F0810521204606F066BE70B564
S2140116800021202006F083FD46480079FF2810D06F
S214011690464C21680D5C2E46304606F0EBFEFFF701
S2140116A035FEFF2801D000F005F82068865DAE42C1
S2140116B0F2D170BD3F49096831F8102042F020028E
S2140116C021F8102070472DE9F84F80460FF2E80008
S2140116D0344E0068354F00904FF6FF7A344600E0EE
S2140116E0341DF3F7EFFE814606E0204600F002FDCA
S2140116F02946684600F0E9FC204600F045FD40B961
S21401170038682178455C0321284606F003FE8045AB
S214011710EBD2301D844208BFFFF7B1FF4846F3F70E
S214011720D7FE2078FF2819D0396811F800904D4669
S2140117300321284606F0EEFDA0EB080B1FFA8BF2FC
S2140117400321284606F0EFFD3868455D51461FFA2D
S2140117508BFA8A4588BF8A464D45E9D1301D8442B9
S214011760BED1684600F010FDA8B9684600F0C2FC7C
S214011770044606F00EFEF4F7C1FEFFF77CFF0006F6
S21401178003D44221204604F07BFF204600F0D6F920
S214011790F4F7B5FEE5E71FFA8AF0BDE8F28F000020
S2140117A0847A00200863002096630020DC5F002016
S2140117B0C0650020E45F0020FF000000F5F758BC7C
S2140117C070B5044643381E4D08D0401E012809D97D
S2140117D0801E01280ED9C01F31D02AE0BDE8704016
S2140117E011F039B911F00FF920B111F034F90028D0
S2140117F0FBD170BD134E307808BB0120307000203D
S21401180011F0A2F9442C11D00CD3462C05D00DD3DF
S214011810472C07D140F6010001E040F60200F6F73A
S2140118209FFE03E075212846F3F7BCFE00203070CA
S21401183070BD2846BDE870408721F3F7B3BE70BD82
S214011840542503009A7E002080B501216E48FCF7DE
S21401185055FF6E490120086000200EF033FD01237C
S2140118600422022105200EF06FFD012000F09CFCF1
S21401187000F00EF800F09CFC11F07EFA01234022E5
S2140118806349644811F046FA63490860C00F02BD17
S21401189010B5012201210420FDF750F95F48604C84
S2140118A0016841F0010101600022C16841F08071C8
S2140118B0C16000235B495C4808605C4802605C4A82
S2140118C013600223236015235A4C2360002303640C
S2140118D0594B0B65594911604FF48071584A116094
S2140118E0016841F48071016010BD4C48006800B188
S2140118F00120C0B27047D12202704170090A81707E
S21401190050490A78C270501C0870042070472DE9AF
S214011910F84FDFF834A1DFF834810446DAF8000026
S214011920005D461DF3F7D8FDF6B2002500904FF690
S214011930FF7B18E0A91EC9B2204600F0A6FA0746AA
S214011940594611F025FA83464D4639480068C007C6
S21401195009D536480068C00505D5D8F80000002826
S214011960FBD088F80070FFF7C0FFEDB228B3B54290
S21401197023DAF3F7B1FD0099401A80B2B0F5FA7F89
S2140119801BDC15B95B270125DFE7012D05F10109F0
S21401199003D1DAF80000075DD6E7F01E854208BFDE
S2140119A05F46D1D0B01E854208BF4FEA1B27CBD079
S2140119B0701E8542BED15D27C6E7B5420CBF00202A
S2140119C00120BDE8F28F20490968095C0429A8BFF7
S2140119D0FFF79DBF0120704710B50F48006890B013
S2140119E04022694611F081F958B1C1B2684600F04B
S2140119F028F9044621461220F6F7D4FC204600F0CA
S214011A009DF810B010BD0000002508001088144293
S214011A10D86A0020D8170300C45F0020F0ED00E06C
S214011A20F00004E0B00F00E055CEACC5000E00E0BB
S214011A30800E00E0100004E0FF0300400D000100EE
S214011A40040304E0947E0020D05F0020200000E024
S214011A50DFF81417096801EB40107047DFF80C2710
S214011A601268115470472DE9F041040035D0F3F7A0
S214011A7029FDDFF8FC16DFF8FC360E78FF228046DB
S214011A80FE2EDFF8F4061BD100260E70DFF8ECC63A
S214011A90DFF8EC6637781F70002708E007F1010EC3
S214011AA005F807E0DCF80050EA555FFA8EF796F87D
S214011AB000E005687745F1DB05EB0E0606F8012C1C
S214011AC01E78A6420BD24046F3F702FD052000F031
S214011AD070FB00211B20F4F76DFDFF201EE0361B76
S214011AE01E70DFF8A0360E780F78D3F800E00125D7
S214011AF00EF80750641E056815F807E081F800E047
S214011B005FFA84FEBEF1000FEED1EA5500213046A1
S214011B10FFF7A4FF4046F3F7DBFC3046BDE8F08153
S214011B2010B50446F3F7CEFCDFF8581609680A5DCF
S214011B30521C0A55BDE81040F3F7CABC2DE9F04126
S214011B40054600F031F80446F3F7BCFCDFF8202622
S214011B50DFF82036DFF82066DFF82886FF2D1FD055
S214011B60D8F800104F5D7F1E4F557F27D8F800E04C
S214011B701EF80510394213D13168495D00270EF869
S214011B8005701F787F1C1F70FF29376892F800E0E8
S214011B9007F805E0157006BF2546FF240D46DDE76C
S214011BA0BDE8F041F3F794BC80B5DFF8D8150968B5
S214011BB0095C090603D5FFF74BFF007802BDFF203D
S214011BC002BDB0B504460D46FFF7EEFFFF2818BF6D
S214011BD0FFF7B4FFFF2DDFF8AC7504D13868015D5F
S214011BE001F07F0106E02846FFF79AFF3868015D9D
S214011BF041F0800101552046FFF72AFF0570B0BD70
S214011C000EB478B504460120FFF72DFF0546FFF711
S214011C101FFF0646FF2D08BFFF200FD0E1B2284662
S214011C20FFF71CFF05A8002104E050F8042B06F876
S214011C30012B491CC9B2A142F7D3284672BC5DF8F4
S214011C4010FB70B504460D4605F11F000004400D5B
S214011C5082B0C0B2FFF707FF0646FF2E0CD029461A
S214011C60FFF7FCFE3CB1012000902B4600223146D6
S214011C70204600F002F8304676BD73B500F0D0F885
S214011C80405C15461E467119884203DA40F265111A
S214011C9000F0EBF830000CD0294601A800F0E9F876
S214011CA0024606989DF8041000903346204600F040
S214011CB001F873BD2DE9F843089CDFF8BC8405469E
S214011CC0894616461F460BE06A5C4254491CB142DF
S214011CD0FADBD8F80000BF1BAD1910F809900026F2
S214011CE0F8B2D0B14846FFF7B3FE801956FA87F12D
S214011CF02029B9BFFFB23E46C6F12006F6B2210042
S214011D00324604D101462846F4F7B6FAE1E7012C3B
S214011D1008BF2946F8D00021D9E7BDE8F1832DE9AF
S214011D20F04100F07DF882B0055D884616467119CF
S214011D30C9B2A9421F4605DB30000CD0204600F090
S214011D405DF808B1182007E0009733462A46214679
S214011D504046FFF792FF0020BDE8F6810123DEE74B
S214011D600A4600E0521C1378002BFBD1521A0223BC
S214011D70D2B2D4E72DE9F041054601F11F00C704B0
S214011D8002F11F00C0043F0E000E07B9012700B97B
S214011D90012087422CD0DFF8E0431BDAC01BC0B21B
S214011DA0FFF761FE8046B8F1FF0F08BF002020D084
S214011DB07F1E00F020F82668305CFF2804D000F073
S214011DC01AF8305CFFF7BAFE00F015F8216801F842
S214011DD000800DE08A420BD2411EC9B200F00CF819
S214011DE005462068405DFFF7A9FE2168FF2048559B
S214011DF00120BDE8F081F9B2284616E038B500F0BA
S214011E000FF80D46015D2A462046FFF7B3FF28B1BD
S214011E1029462046FFF722FE002032BD182032BD9B
S214011E200446DFF848030068704704E0DFF84823FB
S214011E301268105C491ECAB2002AF7D1704711B564
S214011E400C46DFF82813096881B0095C8C4203D37D
S214011E5040F2012100F009F8214601A800F009F836
S214011E60044600F02FF9204416BD0FF22C30F3F78C
S214011E7099BB38B504460D46E9042078090EFFF7EC
S214011E80D4FF207005F01F0032BD80B5FFF7D7FFE5
S214011E90007802BD10B51446FFF7D1FF047010BDDF
S214011EA0B0B5FFF7BDFF82B0055DFF2C03D140F250
S214011EB02121FFF7DAFF05F11F000004400DC0B233
S214011EC0FFF7D1FD0746FF2F0AD02946FFF7C6FDCB
S214011ED00095002322460021384600F0C2F8384615
S214011EE0B6BDF8B504460D4616460120FFF7BBFD04
S214011EF00746FFF7ADFDFF2F01D1FF20F2BD3346A8
S214011F002A462021204400F020F82118C9B238467C
S214011F10FFF7A4FD3846F2BD10B582B004AC0094BC
S214011F2000F001F816BD10B514461A46029B20446F
S214011F30091BBDE81040C9B207E00CB480B502AA7F
S214011F40FFF7CFFF02BC5DF80CFB2DE9F047814699
S214011F5014469A464F46002588460AE032463846D9
S214011F60F4F78AF97019BF19451EEDB26D1C641C91
S214011F70EDB245453BDA2078010038D0312818BF4C
S214011F8032280ED15AF8041B07F8011B3228EDD16E
S214011F906D1CEDB2A845A4BF081207F8010BE5DADF
S214011FA025E034280ED1291D5AF8040B88451EDB7E
S214011FB03870010A7970ED1C010C000EB970F870CA
S214011FC03F1DD2E7A0F133025AF8041B072A38BF97
S214011FD0A0F1300607D3A0F14102072A34BFA0F1D1
S214011FE037065AF8046BF6B270194045B6DBA7EB14
S214011FF00900C0B2BDE8F08770B500F027F800F020
S21401200003F8301880B270BD0602294620463CE728
S21401201000B583B002238DF80420120A8DF805203E
S2140120200122009217E0F8B500F010F8FFF7ECFF78
S2140120308619E91CC9B2FFF7E9FF0702A91CC9B254
S214012040FFF7E4FFC01906EB0040F2BD0D46691C20
S2140120500446C9B219E70A46014601A8FFF70DFE74
S21401206007BD2DE9FC4405B40A9C20001F4627D075
S21401207089B26846FFF7FDFE0646B9B201A8FFF72A
S214012080F8FE0746BE42A8BF3046A4B2C0F1200003
S2140120902546C0B2A842B8BF054600F013F88246EE
S2140120A09DF80000FFF7D4FC2A460AEB07013044EE
S2140120B0F4F7E2F8641BA919EF19A0B20028D7D1EA
S2140120C0BDE8FF849DF80400C2E470B504460D46E1
S2140120D0F3F7F8F9294B21781B68FF2908BF5D55EE
S2140120E003D019440E785E550D702570BDE870401A
S2140120F0F3F7EEB938B50446F3F7E4F92178FF2291
S214012100FF2908BFFF2507D01C4B1B685D5C8D426D
S2140121100EBF22705A5D5A54F3F7DAF9284632BDDB
S214012120F8B504460D46F3F7CDF921780026FF29C8
S21401213015D0124B1B680A46012602E0761C3A4669
S214012140F6B29F5CAF4208D1DF5D9F54A94206D12B
S2140121508A4208BFFF22227001E08F42EED1F3F7D8
S214012160B7F93046F2BD0000CC5F0020D05F0020FA
S214012170E3630020BF630020D85F0020DC5F0020FF
S214012180BE630020D45F00200078FF2801D1012023
S21401219070470020704700007061636B65742D62A4
S2140121A075666665722E630070470EB403B070479D
S2140121B0704770470CB402B070470020704700208B
S2140121C07047000070B51346104402E0A4192C7045
S2140121D05B1EDCB24CB101F00F060909451E0A2E42
S2140121E02846B4BF30243724F0E7104470BDF0B55C
S2140121F0002341B1002806D501232D21B0F1004F5F
S214012200117018BF4042002100248D4D55F82470EE
S214012210002601E0C01B761CB842FBD2F7B20FB90C
S2140122200F0005D0DBB206F13001D1545B1C012151
S214012230641C092CEADBDBB23030D054581CC0B227
S214012240F0BD2DE9F24F804696B013A801901546D1
S21401225003A89B4603AE002700248DF800000BE080
S214012260012405460198864205D300F0DCF80028D3
S2140122704FD100F0CEF86D1C9DF800002978301A79
S2140122800A000BD0252903D014B906F8011BE9E78B
S214012290002C14BF00246D1C29780A0000F0AF80C2
S2140122A0B1F1250216D00B3A092A40F28980283A64
S2140122B07DD00A3A12D0521E41D0521E5FD0083A43
S2140122C05DD0121F3ED0D21E3CD0921E57D0D21ED9
S2140122D06DD0C7E7252006F8010BC3E7DBF8000041
S2140122E002904FF0000A0BF1040000F1040BD0F845
S2140122F00090CA45B6D2029810F80A10022230465B
S214012300FFF760FF06460198864205D300F08BF87A
S21401231000287AD100F07DF8A9F1010082453CBF82
S214012320202006F8010B0198864205D300F07BF8C1
S21401233000286AD100F06DF80AF1010AD9E75BF8C6
S214012340040BC8E75BF8049B00F067F800285CD133
S21401235000F05FF84FF0000A01E00AF1010A5FFAA7
S2140123608AFA19F80A000028F7D19DF85800524653
S2140123704946C047002848D15744FFB272E76C2946
S2140123800AD16A785BF8040B752A0EBF0021012179
S214012390642A07D16D1C05E075295BF8040B0CBF98
S2140123A0002101213246FFF722FF36185AE75BF873
S2140123B0041B0222C9B23046FFF704FF064651E766
S2140123C06A780124782A18BF582AF8D16D1C00248F
S2140123D0681E322904D15BF8040B042281B2EAE7B5
S2140123E034297FF43DAF5BF8049B04224FEA194180
S2140123F03046FFF7E7FE04221FFA89F1DCE700F01A
S2140124000CF810B9F019C0B200E0002017B0BDE812
S214012410F08FF719FFB203AE704706469DF85800D5
S214012420F2B203A940479DF80000361A9DF85800FD
S214012430F2B203A9404701A112E000000D0A000014
S214012440702503000CB438B5044604AA00F010F851
S21401245005462046FFF7EFFF284632BC5DF80CFB29
S2140124600CB480B502AA00F003F802BC5DF80CFBC0
S21401247080B5FDF7CCF9C0B202BD00000D48016879
S21401248021F480310160016F4908490001677047F6
S21401249010B5F3F717F80446FFF7F0FF064800F00B
S2140124A00DF8044805210167016841F48031016097
S2140124B0204624E024ED00E08C60002038B5044678
S2140124C00525204610F078FC10346D1EF9D1BDE8C4
S2140124D0314010F099BC80B5FFF7D0FFBDE8014050
S2140124E010F092BC10B50446F2F7ECFF004901E08B
S2140124F08C600020620952014A6000220A70BDE821
S2140125001040F2F7E5BF0000DFF8A8110A8A40F68E
S214012510A7339A4202BF0A8B120A022A02D1498ABB
S214012520814204D23021DFF89001F3F73BB87047BF
S214012530DFF88001008A40F6A731884201D10020E9
S21401254070470120704738B5FFF7F2FFF0B140F64B
S2140125502804594D2068010C09041FBF000C000413
S2140125605649884203D042212846F3F71BF82068D3
S21401257080B2B0F5804F03D344212846F3F712F812
S2140125802068C069804740B1862032BD00F053F80C
S214012590BDE832404748006B004732BD30B585B0D4
S2140125A0FFF7C6FF464C68B340F628000168886905
S2140125B0C00305D5096B496868468847049808B979
S2140125C0002036E08168B1F5803F02D2E180418883
S2140125D004E0890AE180418841F01001618004220B
S2140125E0018821804168A180C168A1600169E1601C
S2140125F000F1140104F11000F3F73EFE0498007E8A
S214012600207512E02B48018B40F2032291420ED135
S2140126102C49CD6D5DB1006C8047014618222046DD
S214012620F3F72AFEC5F58020E060204601E0006C45
S214012630804705B030BD40F2091065E770B500F07F
S21401264018F850B100F019F805D51B6B5B6B00F05C
S2140126500CF8984740B1012070BD00F006F8BDE8BF
S2140126607040144B5B6B184770BD324629462046B6
S214012670704704460D4616465AE740F6280003689A
S2140126809869C003704780B5FFF752FF60B140F606
S214012690280000688169C90304D5006B006BBDE89A
S2140126A002400047012002BD0248806CBDE802409E
S2140126B0004700000000000024F802000000E10FBF
S2140126C0746700200040000023490870704710B569
S2140126D02148007830BB2148007860B10020F2F72D
S2140126E0EEF8002438B9FBF70FFD022818BF0124C5
S2140126F0F2F7F3F8B4B900242046F5F726FF38B907
S2140127002046F5F7FEFE68B92046F5F701FF48B901
S214012710641CE4B2042CEFDB00F006F8022801D0BA
S214012720012010BD002010BD0D48007800210DE0ED
S214012730C9B20C230B4A13FB01F31A4493681B78A6
S2140127401BB19279904238BF1046491C064B1B8834
S214012750CAB29A42ECD37047AA7E0020A97E002016
S214012760AB7E00209C5D002090630020F8B50446F7
S214012770E01C02F0D9FD0646601D002502F0D4FDDE
S2140127804FF6FF77BE42044608BF012504D005F088
S214012790C7FA864208BF0225BC4208BF45F00405B9
S2140127A005D005F0B5FA844208BF45F0080528466D
S2140127B0F2BDF8B5054602F0B7FD06464FF6CF70F6
S2140127C000EA06072846FFF7D1FF002448F6410134
S2140127D08E4208BF052809D1E81D02F0A5FDBD49B6
S2140127E00988884214BF0224062412E04CF6010030
S2140127F087421ABF4CF601408742012409D0F3F7FD
S21401280078FE2846F2F7E6FF0546F3F778FE05B1AF
S2140128100824B14800782040F2BD3CB50FF2CC2325
S2140128200021D3E90045CDE9004528B9AB49086048
S214012830002036BD491CC9B230F811201304F5D466
S214012840002300E05B1CDBB23DF813402504F1D405
S2140128509442F7D1022036BD2DE9F04F0446884652
S21401286083B0404602F060FD9C4D834628680026F2
S2140128700027002801BFA8680028686800284FF0D4
S214012880030968D04FF440611BEA010F0BD008F131
S214012890030002F049FD4FF6FF7188420CBF022784
S2140128A001274FF0050947F0080001900BF4404A54
S2140128B05FEA4B6015D4BAF1000F16D00BF44060F6
S2140128C0B0F5406F0CBF082002204844C0B2404417
S2140128D002F02AFD009005F023FA009989B28142A0
S2140128E001D1019F01E047F004070BF44040B0F529
S2140128F0004F08BF47F0800704D0BAF1000F02D19D
S21401290047F48077BFB20BF44060B0F5006F0BD18F
S21401291008EB090002F008FD804605F0F9F980454C
S21401292008D147F0100704E0B0F5406F02D147F038
S2140129302007BFB2002001E0002610B9A968802256
S21401294005E0012807BF696840222968102231B9CD
S214012950401C0328F0DBFF20BDE8FE8F761CF6B294
S21401296031F816305FEA0348F2D49F42F6D104B13B
S21401297022703046F0E700002DE9F0478146884690
S21401298002F0D2FC0546E80800F001074846FFF7CA
S214012990EDFE044605F0070605F4406A4FF6F770AB
S2140129A005404F4800780B280FD009280DD8DFE8DE
S2140129B000F082050C0C8205050A0C07002E00E0CB
S2140129C0012E01D101E0032E75D11FB3002E72D165
S2140129D00B2801D1A0076ED5B5F5004F1CBFB5F584
S2140129E0624FB5F5404F66D10026E80648BF46F06F
S2140129F08006A80648BF46F4805606F00C00042858
S214012A005BD109F1070002F08FFC0146FF2246F078
S214012A10040055E0032E334F4DD8DFE806F00205DB
S214012A20032DD5E73B2053E04FF6CF7000EA0506AD
S214012A304846FFF7BEFE20B94946FFF70DFFFF28BF
S214012A4001D00826D1E748F64100864233D10A2C48
S214012A5018BF062C2FD160070CD5F8F76BFA18B102
S214012A603868007B042826D0FEF7D7F918BB40F655
S214012A700406BAE70426B8E714F0030005D105F00A
S214012A804FF94FF6FF71884215D10C26BAF1000FA7
S214012A900DD0BAF5006FA8D0BAF5406F0BD1082259
S214012AA0114909F10500F3F731FC20B99DE73868B3
S214012AB0007B012899D03A200AE0FF220021304607
S214012AC005F013FDFF280EBF182088F8000000202F
S214012AD0BDE8F087AE630020E27E002094790020F6
S214012AE0E863002078770020C477002099008900E9
S214012AF000800000DFF8880A007C00B101207047E2
S214012B00DFF87C1A0A7C062A18BFFFF7F3BF80B5E8
S214012B10902803D10020087404F0B7FCBDE80140FA
S214012B20E8E770B5164604460D46FF22F8F74AFA5E
S214012B3028B9002229462046F8F744FA50B146B192
S214012B4069082046F4F7CCF908B9A52070BD002025
S214012B5070BD702070BD70B50546084614461E4609
S214012B6032460821FFF7DDFF010015D1324602216A
S214012B702846FFF7D6FF01000ED12078010018BFC6
S214012B80FF2806D0DFF8FC19C140C80703D570201E
S214012B9070BD19202070002070BD10B5441A48BFC2
S214012BA06442C92C0A4602DB884203D201E088420D
S214012BB000D30246904201D1012010BD002010BD75
S214012BC070B50446DFF8C009006886B00D46407B44
S214012BD00F21084206BF94F828000228702040D131
S214012BE00123A21C211D2046FFF7B5FF060038D1A0
S214012BF094F8260000F0820040F0010010F06DF914
S214012C0094F82800DFF878194874182200216846DD
S214012C10F3F775FB0822211D6846F3F72DFB208884
S214012C20ADF808008DF80A5041F60631A0788DF807
S214012C300B0003208DF80C00DFF8500905900020EA
S214012C4007F069FCA18C94F82820080008BF4FF40F
S214012C5041716B460120F6F7F8FE0646F3F70BFCCA
S214012C60304606B070BD2DE9F041DFF81C49064636
S214012C7020688EB0407B00F00F052C22314602A85A
S214012C80F3F7FAFA012D18BF042D2ED0DFF8F0580D
S214012C90287C50BB96F82800401E032825D810F043
S214012CA00DF9C00723D405F03BF8074604F04FFDA5
S214012CB080466846F8F719F80822311D6846F3F78A
S214012CC025FB002849D1707B4146FFF766FF0028A7
S214012CD03AD005F01DF801460122304600F02DF9E4
S214012CE0DFF8AC180020087035E0702061E00121A3
S214012CF0002001F086FC07005AD110F03DF90FF6CE
S214012D00E0024FF6FF710120F7F7ECFE96F8260079
S214012D100027C0070ED500220821301DF8F752F90A
S214012D2040B90822311D03A8F3F7A6FA3088ADF89A
S214012D30080006E00822002103A8F3F7E0FAADF840
S214012D4008708DF8157017E0F8F76FF902464146DE
S214012D50304610F0E3FE00202BE00822694603A867
S214012D60F3F78AFAADF808708DF8158096F8280002
S214012D7002280CBF01270227B0788DF80A0003202D
S214012D80F7F76EFE02A9384610F0CDFD07000BD10D
S214012D902168012048734FF4A0510420287405F1DE
S214012DA01800F1F7D3FD03E000F02FF8F7F758FE0F
S214012DB038460EB0BDE8F08130B58BB004460D46FE
S214012DC02C2200216846F3F79AFA41F60630ADF850
S214012DD00000102205F115010DF10200F3F74CFA7F
S214012DE0102221460DF11200F3F746FA284610F09C
S214012DF099F8684601F04AFB0BB030BDDFF8800752
S214012E00007C012818BF00207047DFF87407407C5B
S214012E10010003D1DFF870070068007B7047DFF818
S214012E206017487470472DE9F843DFF85C47DFF810
S214012E305067777C814688462068317C407B154602
S214012E400A0018BF062900F00F0041D1012818BF5B
S214012E5004283DD010F032F8C00707D5FFF7D5FF9C
S214012E6001281CBF48F6990004F05EFF10F026F812
S214012E7040F0020010F031F810F07EF9484610F0EC
S214012E8059F9C6F82C9020684069400800F0010006
S214012E90F074F8F7C5F830754046F8F7B7F880468D
S214012EA098B9681E032813D801203074757404225B
S214012EB04946092000F095FD804630B10020307467
S214012EC096F91400F8F7A2F877744046BDE8F28345
S214012ED07020FBE770B50400DFF8A456DFF8B4668F
S214012EE008D13078FF2805D005F12000F1F724FD40
S214012EF0002070BD287C58B9FBF704F8307000201C
S214012F00FAF7EAFF214605F12000F1F71FFDEFE78A
S214012F10702070BDDFF86816002081F82000704729
S214012F20DFF85C16002081F82000DFF868060078DC
S214012F30FF2818BFFAF7D0BF704770B50546DFF80F
S214012F405006DFF854664180144628883081A878F8
S214012F50F072F8F765F8B0720822291D3046F3F7CB
S214012F608BF9687B3074DFF82406706103203073B8
S214012F70200009D10FF0A2FFC00705D404224FF6A6
S214012F80FD71002001F0ABF89120F7F799FFDFF80B
S214012F90F00503210174002CBDE8704014BF4FF406
S214012FA000614FF400711830F1F7D0BC38B5DFF886
S214012FB0D04500202076207C03283FD10FF07EFFED
S214012FC0DFF8CC552978002914BF4FF6FF614FF67C
S214012FD0FF7108404FF6FE7108400FF07EFFDFF8E4
S214012FE0A81501202870002009684873FFF70DFF17
S214012FF00328BCBF0620207402F0CFFBE07C01282A
S21401300014BF41F6043141F60631002007F083FA79
S214013010FFF7FBFE02466988DFF87C350020F6F7ED
S21401302014FDFFF7F2FE03281DDB4FF4006104F1E7
S2140130301800F1F78BFC0720207414E0072806D14E
S2140130400020207400210120F6F74EFE0BE0042834
S21401305018BF052807D1FFF7D8FEF7F701FD0020B6
S214013060207400F0A4F8BDE83140F3F704BAF0B5D7
S214013070DFF80C750446387C012883B00D461646E9
S21401308015D1F4F787F8009001962B4622460FF2E9
S21401309048510020FEF751FFDFF80015FF280870A1
S2140130A005D002203874BDE8F74000F04CBDF7BDEE
S2140130B070B5DFF8CC44217C94F9140001298AB05C
S2140130C00BD100212174F7F7A1FFF3F712FA0020C4
S2140130D0F6F77CF8F3F713FA64E0022964D1F7F700
S2140130E095FFF3F706FA0120F6F770F8F3F707FAFB
S2140130F01822002103A8F3F702F9207DDFF89C547B
S2140131008DF816000C212878FEF7BFFE8DF8170003
S214013110012303208DF818000DF1170200208DF809
S2140131201C0003A9DFF86404089005A8FFF713FD47
S21401313006460020F7F7C4FE300007D103AB022293
S2140131404FF441710020F6F780FC064636BB01A815
S2140131500021C0E9001128780821FEF764FF064621
S21401316028780D21FEF791FE00200090082329788B
S214013170002201A8FEF781FD2878FEF7DFFCFF207C
S21401318028700023012201A9304610F02AFB4FF4D3
S214013190005104F11800F1F7D9FB03E00020207478
S2140131A000F005F8012000E000200AB070BD00B56F
S2140131B085B000F04DF99DF8030000F0BEF99423A8
S2140131C01322C7A10320FEF7F5FF9420F3F7F0F9C9
S2140131D0FFF71BFE032809DBDFF8AC030068408815
S2140131E04FF6FF71884208BF032000D00220F7F790
S2140131F067FE05B000BDF8B504460D4616461F46E7
S21401320010F030FCECB96846F7F757FD932808BF75
S214013210002D07D10FF052FE00F0020040F08000B2
S2140132200FF05BFE002239463046FFF786FE01208E
S214013230F7F746FEF3F75DF93046F6F762F8F3F76F
S2140132405EF9F1BDF0B504460D46CD4E8BB00122B8
S2140132500021304601F02AFD68460FF046FE0DF1CA
S2140132601503002241F60631402007F01DF9CC4F28
S214013270082206F1300107F11C00F2F7FDFF0822D3
S21401328006F13801381DF2F7F7FF3C80BD70338D2B
S214013290B17C3A460020FFF7AEFF01200BB0F0BD2F
S2140132A02DE9F04304460D461646B54F89B09846BB
S2140132B0082205F11C0107F13000F2F7DDFFDFF807
S2140132C0E49299F80000022803D10FF0F7FDC00739
S2140132D012D599F80000012804D133882A462146E0
S2140132E0FFF789FF022C08D1FFF78FFD032803DBC8
S2140132F00FF0E4FDC00704D479E0FFF786FD03284C
S21401330075DA288B10F0ACFCFF2870D005AB42466E
S21401331005F11001002010F0B6FC002867D10E223E
S214013320314601A8F2F7A8FFBDF80C00BDF80A1057
S214013330884204D20020ADF80A00ADF80C00BDF8B2
S2140133400800BDF80610884204D20020ADF8060039
S214013350ADF80800BDF81000BDF80E10884204D282
S2140133600020ADF80E00ADF81000BDF81000BDF855
S2140133700E30BDF80A20BDF808100090BDF8060012
S2140133800FF071FD98BB200004BFA878002802D179
S214013390F7F74BFEA870282229468148F2F76CFF02
S2140133A0BC74BC463088388505A80FC88CE80F0069
S2140133B00023AA1C291D2846FFF7CDFB50B9082279
S2140133C0291D07F13800F2F757FFA9782888FFF77B
S2140133D039FF12E020000AD1042107F13800F3F783
S2140133E07FFDF86A704A032100F017FE05E0338876
S2140133F02A4621460120FFF7FEFE09B0BDE8F0830C
S2140134007FB55F4915460A7C042A1C461FD1002257
S2140134100A760A7410B1FFF7CAFE7FBD04F078FC85
S21401342006467DB100F014F8082202A9201DF2F725
S21401343023FF9DF80300A070BDF80000208004F073
S21401344086F96073012231462046FFF776FD7FBD7F
S214013450102307226946012007F0F1BA30B583B080
S21401346004460D466846F7F740FC08226946201DCB
S214013470F2F74CFF80B904F053FC218881420BD14E
S21401348004F065F90146607BFFF787FB20B1002257
S21401349029462046FFF751FD37BD80B501200FF0C4
S2140134A01CFD37490020087401BD70B504460D4661
S2140134B01646FFF7AAFC032811DA3C48007870B1DB
S2140134C0AC420CD1B0070AD5284605F0B9FB30B19D
S2140134D0007920B9BDE870403548F1F72DBA70BDC6
S2140134E04242000010237F221A2109F0C0BB282384
S2140134F07F221B2109F0BBBB024610237F211A2025
S21401350009F0C6BB80B50FF0D9FC000A00F0010037
S21401351080F0010002BD80B50FF0D0FC10F4807081
S21401352018BF0120C0B202BD80B50FF0C7FC10F471
S214013530807018BF0120C0B202BD1E4909780B2950
S21401354001D03D207047104909688873F2F769BFBA
S2140135500D480068807B704780B51749174808609A
S2140135600FF0ACFCC00702D405490620087401BD63
S2140135700C48007870470B4908700020704700001F
S214013580D4790020FF0700F87877002000F8FF07BD
S214013590B2630020ED630020147A0020EE63002061
S2140135A02C7A0020D563002045320100DE7E002003
S2140135B0607A0020E86300209C790020D454030040
S2140135C010B504460FF07AFC4FF6FD710840204313
S2140135D0BDE810400FF081BC3834313200000000E5
S2140135E0000000000000000038B5764D28787024F1
S2140135F058B9754800F0B1F8040002D102202870CD
S21401360003E02346714A00F041F8204632BD38B542
S2140136106C4D2878702468B96B48006804210BF05B
S2140136207BF8040002D10120287003E02346684A93
S21401363000F02CF8204632BD30B587B00446F2F7CC
S2140136401DF90125C8B1182200216846F2F757FE78
S2140136500822211D6846F2F70FFE2088ADF8080003
S21401366003208DF80A00A0788DF80B00F5F7E1FB32
S2140136706846F9F784F8050006D02B46554A00F04F
S21401368005F85548F1F758F907B030BD53490420FD
S214013690F7F730BDD0E710B50B46024603211846B2
S2140136A0F5F709FC040007D023464D4AFFF7EEFF65
S2140136B02046BDE8104000E010BD10B5414C217811
S2140136C0AB2808BF022909D14649096851B1032030
S2140136D02070BDE810404048F1F72EB9012908BF17
S2140136E0414A00D0414A0346FFF7D0FF0020207030
S2140136F010BD08223E49F2F7BFBD014608223C48EC
S214013700F2F7BABD70B534492E4C344D002008701E
S2140137102078022818BF032809D10BF0C6F930B16A
S2140137200BF0BAF8060010D03346324A09E020788A
S21401373003280BD12B4800F010F8060005D03346BD
S214013740224A29460420F7F7D5FC2EB10020207026
S214013750BDE870400BF0CEB970BD254900680BF08E
S2140137606FB81FB5174C2178902822D1012925D092
S214013770022918BF032923D16846FFF7B3FE009834
S2140137804008400040F08200009000200190029026
S214013790ADF80C006846FFF7AFFE0FF0E0FB2078AF
S2140137A040F0800020704FF480310B48F1F7CEF8DE
S2140137B01FBD022904DB01F07F002070FFF7A2FF86
S2140137C01FBD0000D67E002074610020904E0300CD
S2140137D0B44E0300D84E03000C770020804E030041
S2140137E0F04E030078610020084F0300284F0300C5
S2140137F058770020484F03001FB56149614C0020EF
S2140138000870FAF781FC022827D1F5F78AF801211A
S21401381001712078062806D158A30222062101202C
S214013820F5F720F810E007280ED1F9F7A5FE0021DC
S21401383003910291C0B21421019100900022524BD3
S21401384008210120F5F70EF8F5F733F804B0BDE8C6
S214013850104003464D4A4E4941E02078072803D1DF
S214013860F5F7A6FB4B4A02E008F01EFC4A4A4B4B12
S2140138704B4900900120F7F73DFC4A48F1F75CF808
S2140138804949012008701FBD10B5464C0020207024
S2140138904548007868B1FAF737FC02280DD00020B9
S2140138A009F0BEFA2046BDE810404FF47A61F1F700
S2140138B04DB8FAF729FC022804D1BDE810400020D3
S2140138C009F092BA10BD80B5384900200870012071
S2140138D010F034FABDE800500346304A344901205E
S2140138E0F7F708BC80B5912803D1002009F082FAC9
S2140138F004E0902804BF002009F076FA002002BDFB
S21401390021B9204908701E48F1F716B8704710B55E
S21401391082B0044600940120264B1F4A2049F7F73F
S214013920E9FB1CB120490020087013BDBDE81C400E
S21401393008E080B5002000F011F80120F7F7DAFB67
S214013940BDE8044040F6B8311848F0F7FFBF80B52F
S214013950012000F003F8F7F7CDFB0BE00090154BC4
S2140139600C4A0F49704780B50346124A1049012098
S214013970F7F7C0FB0C490020087001BD00000000ED
S2140139807C760020CD7E0020CC450300E045030078
S214013990D445030008460300144603001C460300F2
S2140139A0F445030084760020CC7E00208C7600202F
S2140139B0244603004846030010B5DFF8B0466262AD
S2140139C0E3620A46BDE810400146002009E010B552
S2140139D0DFF89846A262E3620A46BDE81040014657
S2140139E001202DE9F04583B004468A461546019527
S2140139F0CDF800A0234624220FF29061DFF870660E
S214013A000320FEF7D7FB30780B284FF0000818BFCD
S214013A103D2051D10F2DA8BF33204DDA0A2CA8BF67
S214013A20342049DADFF84C0600EA0A00504518BF90
S214013A30352041D1BAF1000F15D1DFF83C060068F8
S214013A40817B012348090700024608BF03FA01FAF1
S214013A5007D001F01F0140F0180003FA01F141EA16
S214013A60C06A4FEA4218200018BF042CDFF8FC7524
S214013A700CD120210020FEF7E4F87070FF2808BF63
S214013A80182019D0FDF7E4FFF861386234707D70B4
S214013A902AF07840B86187F800800A20F2F724FD02
S214013AA00FF21900F9F7BBFE08B9A12004E030783F
S214013AB00B280CBF01200020BDE8FE8538B50A2082
S214013AC0F2F713FD0446F2F719FD2046F2F732FD30
S214013AD00020F2F706FDDFF89445F3F75BFBE07094
S214013AE04FF6FF7504F01CF92082FDF788F9207166
S214013AF0DFF87C452078022808D10120FDF77DF902
S214013B00082020702846FAF7D3F90EE009281CBFD2
S214013B102846F3F7BBFF2078010016BF04280220D1
S214013B200020FDF76AF900F06DF8BDE83140F2F7C4
S214013B30E6BC80B52522CDA10320FEF73BFB00F0B5
S214013B4002F8002002BD38B5F1F7BCFCDFF82055BD
S214013B50044628780B2818BF0A2804D12046BDE859
S214013B603240F1F7B5BC082808BFFDF7AFF8287852
S214013B70DFF8F81408700A2028702046F1F7A8FC30
S214013B80BDE832400FF20900F9F749BE0000000017
S214013B9070B5DFF8DC4420780A2803D040F26711BC
S214013BA000F0B5F80A20F2F7A0FCF2F7A7FCDFF860
S214013BB0BC54288AF3F76AFFDFF8BC140968E87872
S214013BC088730FF25510FAF76AF92879FDF715F997
S214013BD00120F2F786FCF2F74EFC002028720B203B
S214013BE02070FF2066786070002228783146F6F74C
S214013BF023FEFF2E1CBF3046FDF7A0FFBDE8704038
S214013C00F2F77DBCF8B5DFF86444DFF864540020B1
S214013C1020720A20F2F769FCF2F770FC28780B286C
S214013C2003D140F29D1100F072F82878C8B12078CF
S214013C3000F01F011B293FD20FF06EFA50B3207817
S214013C40A16900F01F02D140C90723D4401C20708F
S214013C5000F01F001B28F2D32EE0FAF77DFCF2F7E6
S214013C604EFCE069216A8842E1D290F9006047780B
S214013C700096801CE0613B462822B3A10320FEF794
S214013C8099FAF2F736FC626A100031463846E4D0FB
S214013C909047E4E7F3F77EFA01462078884202D09F
S214013CA0F3F727FA40B920780FF024FA20700020A5
S214013CB0A07000F069F830B32878072818BF0128EB
S214013CC003D0052818BF092812D1207840090CBF57
S214013CD00B260026A069F040C00704D528783622B6
S214013CE03146F6F7A9FD761CF6B21B2EF2DB08E08C
S214013CF0042806D1206AE169411A6878C9B2FEF73C
S214013D007DF8FFF720FFBDE8F140F2F7F8BB0FF2B0
S214013D108430F1F747BC0000DFF8540301780A2924
S214013D2000D1704738B5DFF844436369002918BFEE
S214013D3004291ED19BB9226A6179521C226202F8BB
S214013D40011D007828B9256A681C2062F3F722FA5B
S214013D50287004F10800BDE83240F0F7EDBDF3F736
S214013D6005FE94F9051008258142B8BF0146617128
S214013D7003E0002BEDD04FF470752846FAF798F85B
S214013D806069401E606131BD80B5B8484278012146
S214013D909140491CB64A416112780A2A2DD8DFE8BB
S214013DA002F0210A2C2A210A27062C1D3000BDE824
S214013DB0014005F09FBA007840090BD0AE48006874
S214013DC0407BBDE8024033281ABF3128012000207D
S214013DD005F0AABFBDE8014005F0A3BABDE8014061
S214013DE00FF0C5BC6FF07F024271782251434161EA
S214013DF00020FAF75DF8002002BD40F23621FFF7F9
S214013E0086FF012002BD10B5994A984C1278072A00
S214013E1013D1062818D120206061B9B9F3F7BAF991
S214013E20A169012200F01F0002FA00F021EA000059
S214013E30A0610020FAF73CF815E0012A14BF052A14
S214013E400728EAD0092AE8D0002010BDA078401C37
S214013E50A070C0B2032802DAFFF796FF18B104F18A
S214013E600800F0F769FD012010BD000042000000C7
S214013E707E480021817141628162C16201634163B2
S214013E80704780B5794A126B130001D0904701E064
S214013E90FAF776FBBDE80140EAE710B573498A797F
S214013EA0012A0FD1896B002231F812300488A3420F
S214013EB004BF4FF6FF7321F81230521C102AF3DBB1
S214013EC0012010BD002010BD80B568498879012801
S214013ED013D100224FF6FF73886B30F81200984218
S214013EE003D0C979FFF7CDFF05E0521C52B2102A64
S214013EF0F2DB00F004F8012002BD002002BD70B51F
S214013F005A4CE079E02108421DBF00F0600000F540
S214013F106070850500250026F9F72EFB4FF6FF7128
S214013F20884203D0A16B21F81600761C102EF3DB15
S214013F30E479012004F01F04A0402843BDE8704046
S214013F404E4B4F4A032142E54242420070B5474A72
S214013F509379012B18D1926B00236FF07F04002513
S214013F6002EB450696F90160B442BCBF2B463446C7
S214013F706D1C102DF4D3A14204DA02F8130002EBF3
S214013F8043004170012070BD002070BD70B5374CF4
S214013F90A06B90F90110012200EB420393F9015046
S214013FA08D42B8BF2946521C102AF5D36729BABFDD
S214013FB001F119056DB27F250026002100EB4102B3
S214013FC092F90120AA42B8BF761C491C1029F5D3E4
S214013FD0F0B218B9FFF74CFF002070BDF9F7CCFA24
S214013FE0F6B290FBF6F106FB1100A26BC0B20021FF
S214013FF002EB410393F90130AB4207DA030003D128
S21401400012F81100E07104E0401EC0B2491C1029EC
S214014010EED3FFF774FF012070BDF8B504461448CF
S214014020007801270B280D4616461CD10120FDF706
S2140140301AFDFF2817D0FDF70BFD0C4988638F7119
S2140140400E630021002200F8112000EB4103491CF9
S2140140507F2210295A70F5D30A4B0B4A294620466F
S214014060FFF7AAFC07463846F2BD0000F0780020AC
S214014070E863002000F8FF0778770020C93E0100BA
S2140140809B3E01008D3F01004D3F010042424442EC
S214014090000000007363616E2E63000080B5DFF8D8
S2140140A09013002008710620F2F71FFAF2F726FA9D
S2140140B0DFF880030068407B042814BF532800F013
S2140140C05DF8BDE80140F2F71ABA80B517229BA148
S2140140D00320FEF76FF8BDE8024000204AE0F8B57D
S2140140E0DFF8504323685D7B2F0018BF212D05F0B4
S2140140F00F0608D01D7B012D01D1850603D4DFF8FC
S21401410030532F790FB17020F2BD2A70012ECA4AA2
S214014110118004D12120587300F030F828E0810680
S2140141204CBF5321042159732168097B032916BF0B
S214014130042900F0200000F0A00001464FF6FD70B3
S21401414000F031F92068407B042804BF0120F6F70F
S21401415015FD0620F2F7C8F92068007B032816BF74
S21401416004284FF400714FF40061281DF0F7EEFBB0
S2140141700020F2BDFF224FF6FF71B0E780B508F0D0
S214014180C1F806F07BF8FDF74DFAAC4800780B282D
S21401419002D0FFF7D8FC06E00620F2F7A5F90FF2E9
S2140141A01100F9F73CFBBDE8014005F0D8BD000061
S2140141B010B50620F2F799F9F2F7A0F99D4C2068A0
S2140141C0417B532906D10321417301200021F5F7D4
S2140141D08BFD29E0042918BF212925D10120F6F7F6
S2140141E0CDFC4FF6FE7003F097FD4FF6FF7003F01F
S2140141F09BFD0020F6F734FCF6F734F901F0CDFA12
S214014200FFF74BF9012004F081F82068407B212854
S21401421002D1F5F7BAFB07E00020F6F751FE0021C0
S2140142204FF4004006F077F9F2F769F9BDE810405F
S214014230F2F721B92DE9F8430E468046511CC9B262
S2140142403046FDF722FE0546304604F08EF8064657
S214014250B01C01F069F88146A809764F00F0010408
S2140142603868417B022966D1017B032903DB40883C
S214014270804503D022E04069C0011FD484B1707824
S214014280000708D5304604F0C1FA08226C49F2F757
S2140142903DF8002802E003F03BFD81454BD107E0E5
S2140142A00329A4BF4FF6F870814509DBE80907D05A
S2140142B00122414605F0A000FFF711FF002C3AD17C
S2140142C03868007B032836DA7078C00633D5304666
S2140142D004F0A7FA06463146002003F05CFF0446C8
S2140142E0FF2C07D0A8065CBF204600F029F8204620
S2140142F003F063FF404604F099FCFF280BD004F05E
S21401430046FDA80607D403F003FD20B1022231467C
S214014310404600F0D5FB03F0FBFC60B9F2F7E9F884
S2140143204FF6FF730222314640460FF0FBFEBDE812
S214014330F143F2F7E4B8BDE8F18300004200000063
S2140143401CB503F030FF0446694603F033FF50B155
S21401435003F0DEFC38B1F6F7AFFD20B10222694664
S214014360204600F0ADFB13BD38B504460D46FCF7FC
S214014370CDFF0146FF2901D1012032BD2D4A126829
S214014380D27E4AB12F4A126832F81110490403D579
S21401439003F013FF002032BDFFF7D2FF45F04001C6
S2140143A02046BDE8344030B50446880985B000F0A3
S2140143B0010504208DF808008DF80910280008D0A2
S2140143C003A9204603F0F6FE08B901202EE003A853
S2140143D000E0002001900095022302AA0121204658
S2140143E004F0E3F90546FF2D08BF18201ED011483A
S2140143F00068017B032918BF042903D14188284698
S21401440003F0E5FF4FF6F870844205DB0022022137
S214014410284605F0D3FE03E02146284601F09DFB21
S21401442004462846FDF78AFB84F0010005B030BD3E
S214014430C479002078770020B0630020E86300206C
S214014440C4770020E45F002038B5044603F08DFFF2
S2140144500546204604F0C8F9411CC9B22046FDF7BE
S21401446014FD697809070AD5284604F0CFF90146F4
S214014470002003F090FEBDE8324003F09EBE4006E9
S21401448002D4BDE8314009E631BD000070B5DFF861
S214014490005D0446286882B02688407B08B17020FB
S2140144A076BDB00504D504F1120000F030FEF0B977
S2140144B006F08600862801D1B72076BD00F01AFEE8
S2140144C0286816F4045F466120D0B0040BD5A01C02
S2140144D00FF050FE010051D12868416921F40051C6
S2140144E041F480714161A01C00F011FE08B1B220B8
S2140144F076BD0FF07AFE20B92868416941F4803113
S21401450041612868416941F020014161286841699B
S21401451041F40041416148064CBF04F123020022E8
S214014520A31C47F2FF1005F0BFFF684600F040F8F5
S21401453028684069C004BDF8000004D540F020009A
S214014540ADF8000008E04FF6DF710840ADF8000056
S2140145500FF078FE10F03BF9BDF8000000F00FF800
S21401456028684069800506D594F82210012204F1D6
S214014570120000F09BFB29680020486276BD10B54A
S214014580044604F4E6600104002300224FF07F6035
S21401459005F08AFF23462F22ADA10320FDF70AFE70
S2140145A0E00703D50021302005F0B5FF002010BD3F
S2140145B0DFF8DC1B09684969090C01F4E661018032
S2140145C00020704738B5DFF8C85B04462868407B92
S2140145D0022801D0932032BD0A2200212046F1F79D
S2140145E08EFE2868406900F0FF01820648BF41F050
S2140145F01001218080075CBFA01C05F0ECFF0020A5
S21401460032BD38B504460D460FF029FE08B995208F
S21401461032BD00F047FBC17E89B14069010401D477
S214014620A82032BD5DB110F0420F08BF002C04D0A7
S21401463000F44070B0F5407F01D0B72032BD0020B5
S21401464032BD00002DE9F04F8BB00446894602A822
S2140146502421FAF755FC204604F0C6F80146204608
S214014660FDF713FC0546204603F07FFE8046002733
S21401467098F80100DFF86CAB800748BF0127A80651
S21401468048BF47F00207204604F031F98DF80400D0
S21401469002ADDFF8540B00689DF80410005D9DF82C
S2140146A00420431ADBB2242BA8BF2323002000904A
S2140146B0214602A8FDF7E1FA68789DF808600090A7
S2140146C0DAF80000C07E88B100F064FD002814BF4F
S2140146D04FF4D0704FF4F070F040C00706D5B8071D
S2140146E004D4082E09D10098042805D101F06AF8EF
S2140146F0002818BF052E03D0A7E0052EF6D0A4E0AB
S2140147009DF80420002321460320F1F75FF8761F69
S2140147100B2E4FF6FF7BF2D8DFE806F00617374E72
S2140147205497979797596D73009806280CDA08F1F5
S214014730020000F0F9FD0546204603F037FE3B4631
S21401474002AA294600F05AFB7FE003F0E1FA0028AE
S2140147507BD1DAF80000C17E002976D0B90702D4F1
S2140147604069800171D40DF1110000F0DDFDDFF824
S2140147707C5A02462C700DF109039DF81300494638
S21401478004F0BEFFFF2028705FE00822DFF8601A01
S2140147900DF10900F1F7BAFD20B902224946FFF7EB
S2140147A09EFC52E00DF1090003F0F9FC58454CD08F
S2140147B00021FFF7D9FD48E03A4602A9484605F030
S2140147C0E3F842E06978012000F02DFA3DE0F807B1
S2140147D03BD50DF1090003F0E2FC584504BF0DF18D
S2140147E0090004F0F8F958452FD09DF80420214619
S2140147F000F030F829E03A4602A9484610F074FB6A
S21401480023E0DAF80000407B022808BFB9F1000F68
S2140148101BD1684605F0DFFEB8B1DFF8D8190020D5
S2140148200870687800280CBF6524642406F0DDF85B
S214014830032806D10021002006F02CF8002006F0FF
S214014840D7F821466846F1F7B1FE0BB0BDE8F08F08
S214014850425700002DE9F0478246DFF88C090068D0
S2140148600C4688B0005D02F10905461BF1B2002036
S214014870FDF7E7F90746FF2F41D0012000900023FE
S21401488052460821384603F005FF8046B8F1FF0F6F
S21401489032D0E9B2204604F00AF8814601A81C216C
S2140148A0FAF72EFB002000904B46EAB2214601A8FB
S2140148B0FDF7E3F94A4601A94046FDF74FFAC0B9AC
S2140148C0A6EB0906F1B23846FDF7C8F85046FCF7E4
S2140148D01DFDFF284D4400F09AF9F6B20096EBB2A2
S2140148E0224600213846FDF7BCFB5146404601F002
S2140148F034F94046FDF722F93846FDF71FF908B0AE
S214014900BDE8F0872DE9F24F8046174686B01D4672
S21401491000213846FDF7B9FA04460226E808082CB5
S21401492000F0010018BF052C8DF804004FF00009B7
S2140149304FF0080B03D0062C18BF102C01D16808C5
S2140149400CE000F0AFF9C07E58B100F023FC00285F
S21401495014BF4FF4D0704FF4F070E04000F0010A3D
S21401496000E0CA46FF2F6CD0E80748BF4FF4027B31
S214014970C8200090002342465946384603F08AFE76
S2140149800746FF2F5DD09DF8040028B106993846EA
S21401499005F06FF9002851D04FF6F8708045ACBF8E
S2140149A009200120102C18BF0F2C8DF8080005D106
S2140149B09DF8080040F040008DF8080000F072F9FC
S2140149C0817E4A1C8276BAF1000F8DF8091006D056
S2140149D09DF8080040F020008DF808000F263246AA
S2140149E002A93846FDF7BAF940BBBAF1000F1AD052
S2140149F00021052C0BD13846FDF7D6F80121FDF72D
S214014A0044FA6224C440E0074CBF102118219DF8E7
S214014A100400002819BF0223069A412300223846C3
S214014A2010F058F850B9680704D54146384601F0E9
S214014A3094F802E0384600F0D2FE81463846FDF78B
S214014A407DF8484607B0BDE8F08FF8B504460D4638
S214014A50284603F000FDDFF8947706463D7003F024
S214014A6057F9014633462246012004F049FEFF204D
S214014A703870F1BD7CB51C46DFF814371B681B7D0A
S214014A8000259B0701D5002076BD019200900B46BC
S214014A9006220FF278710020FDF74FFA0646FF2E28
S214014AA00CD0002C14BF0323012332460021002022
S214014AB0FFF728FF05463046FDF740F8284676BD45
S214014AC02DE9F04104460D461646002705F06FFE17
S214014AD0B84618B1012300F014F8074605F067FE42
S214014AE038B100F057FB40B100F0DCF840698001B6
S214014AF003D4002300F005F8804648EA0700BDE825
S214014B00F081324629462046B4E72DE9F34F9B460D
S214014B10BBF1030F92460CBF01270027BAF1000F25
S214014B208DB018BFD04605D101A805F054FD48B197
S214014B300DF1040823210020FDF783F88146B9F121
S214014B40FF0F01D100205FE0FCF782FF044605203D
S214014B50207084F801B0199DE80607D511220021BE
S214014B60A01CF1F7CCFB04F1130618E018991022EB
S214014B70A01CF1F781FB622020FA0BF0C00704F1BC
S214014B8012060CD503A908A800F0A4FA3046461C64
S214014B90A9064CBF9DF81C109DF830100170380016
S214014BA008BFDDF838A0082251463046F1F764FB0D
S214014BB008362FB1A80900F0010006F8010B09E03C
S214014BC001200090321B0823D2B249464046FDF729
S214014BD054F80836311BC9B24846FCF73FFF680750
S214014BE006D5BDF83400FCF791FBFF2800F00FF85E
S214014BF00E99BDF834002B464A46FFF783FE04465D
S214014C004846FCF79BFF20460FB0BDE8F08F09D061
S214014C10DFF8E415096831F810204BF6FF731A40E7
S214014C2021F81020704730B58BB004460D4600F0D1
S214014C30A0F8684600F06BFA60B99DF810009DF880
S214014C4024100A1AD2B2812A04DB2CB1A94201D05F
S214014C50A84201D0002023E01123022205A900F07A
S214014C6070F89DF810100122684600F01FF810F049
S214014C70FDFA01214FF4007003F089FA0FF0DCFA17
S214014C80B0F1004F88BF0FF0DDFAF1F732FC00F00B
S214014C9009F890F82000F0F78DFDF1F730FC0120BF
S214014CA00BB030BDDFF8E80400687047F0B58FB090
S214014CB005460C461646112200216846F1F71FFBF1
S214014CC001278DF810402DB9102200216846F1F712
S214014CD016FB04E0102229466846F1F7CDFA1122A8
S214014CE000210AA8F1F70BFB1122002105A8F1F714
S214014CF006FB05A90AA800F0EDF9300014BF0AA8C2
S214014D0005A811226946F1F701FB00B9002786B113
S214014D10DFF87C544FB11123062200F011F8286801
S214014D20407B432808BF10F0F3F9286880F820403C
S214014D3004E01FB11123022200F002F80FB0F0BD0B
S214014D406946002005F07BBE70B58AB004460D4664
S214014D50164600F00EF8002E14BF05AE6E46102261
S214014D6031462046F1F788FA307C28700AB00020D8
S214014D7070BD694605A8ADE130B58BB00446032089
S214014D808DF8000002F0C4FF58B1F6F795F840B16F
S214014D9001A805F020FC20B1FFF784FF007D800705
S214014DA001D5702028E00F208DF80C000822042081
S214014DB08DF80D000DF10E00DFF83414F1F75CFAF2
S214014DC00DF1160301226946204610F085FA1A21D4
S214014DD003A8FCF736FF0446FF2C0CD0012322461D
S214014DE001A90020FFF78EFD05462046FCF7A6FE2A
S214014DF00DB1002000E018200BB030BD2DE9FF4FAB
S214014E00551C85B015F8010B029003280CBF012430
S214014E10002402F07DFF4FF0000BD8460028C14663
S214014E2053D000F0CFFC002804BF9DF820000028D6
S214014E304BD0AA46504600F06AF906460299DFF8BA
S214014E40A47362201035C84010F001008DF80000F0
S214014E5018BF15F801BB039594B905F10808A8B366
S214014E603868007D800731D5FF2208214046F6F7D5
S214014E70A9F858BB002342460021022005F014FB86
S214014E8002F046FFBDF81810884207D144B90398CE
S214014E90DFF85C130822F1F739FA002840F0D580D4
S214014EA00020ADF800006846FFF782FB02989DF8E7
S214014EB0204001285ED0032851D0042805D105F0F2
S214014EC076FC002818BF032C0FD0E7E0404605F01B
S214014ED0B7FB0028D4D13868407B432804BF02982A
S214014EE00128F2D14FF00109CAE7002EEDD1534651
S214014EF042462021C14805F0D7FA396800204862A9
S214014F00BC480078A8B15046FFF736FF05F06DFDA6
S214014F1002280ED1012005F065FD032005F068FD8D
S214014F2010225146B648F1F7A7F90121012005F0F4
S214014F30B1FC3868417B02290BD103214046F1F7C9
S214014F4035FB05F052FD002802D1002105F0A2FC38
S214014F50A4E04129FCD140694005F9D572E0032C53
S214014F60F6D10798817E01B101215246123010F028
S214014F70ECF993E03868407B022806D105F017FC6F
S214014F8018B19DF820008007F3D53868407B41288A
S214014F900AD036B900F016FC024659465046FFF7CD
S214014FA085FE00F00FFC002878D09DF8200000F068
S214014FB0020405F0FCFB60B138684169090502D4BA
S214014FC0407B432805D1200003D1AC20F4F7DDFB5C
S214014FD064E03868007D800704D4BDF81410002012
S214014FE010F019FA3868417B112913D14069400540
S214014FF010D5002005F0E5FB00284FD1F4F7E2FBC1
S214015000AE20F4F7C2FB0021002005F043FCF4F7C4
S214015010C0FB43E00CB100F08BF8B9F1000F11D0E2
S2140150204FF08051002005F076FA0FF0DEF818B93F
S2140150304FF4803105F06FFA396800204862404627
S21401504005F0FCFAF4F724FC28E09DF8000088B18E
S214015050BDF818004FF6F87188420BDB0398002262
S2140150600821F5F7AFFF28B1002259465046FFF751
S2140150701DFE13E0039802F0FAFD4FF6FF71884219
S2140150800CD0002E14BF152104210191CDF800A0EB
S2140150904246029B0399DBB2FFF737FD09B0BDE834
S2140150A0F08F574868E610B58AB00446FFF761FEF0
S2140150B09DF824108C4205D105A810F0E4F90120D2
S2140150C00AB010BD9DF81000844208BF6846F4D0AF
S2140150D00020F5E710B50C460146112306220120F3
S2140150E005F0ADFC2146BDE8104011230222012047
S2140150F005F0A5BC80B5002200210020FFF7D6FDF3
S214015100BDE8044000214FF6FF7005F004BA002206
S2140151101021F5F757BF80B5FFF7C4FDC07E30B14B
S21401512000F006F8BDE80240314805F085BA01BD39
S2140151302C480068007D10F0300F03D0202130206D
S21401514005F0E9B9704727480068C17E01B9704784
S21401515080B5007B032818BF042816D0002010F065
S214015160FDF848B10179302211420ED101F0CF018C
S21401517041F01001017101BD03F062FD28B1BDE8E7
S21401518004400021002010F046B901BD00000000D7
S2140151907877002080B502F0BBFD0028FFF782FD7E
S2140151A040690CBF8008000D00F0010002BD10B57B
S2140151B088B004A805F0FBF90FF258000FC86C463A
S2140151C084E80F001022694604A8F1F79FF8401EF4
S2140151D08041C00F08B010BD0A48007870470A48E1
S2140151E00088704778770020D05F0020E4630020B5
S2140151F0C4770020EC7E0020E45F00203000010030
S214015200BC780020E5630020AC63002031383231E1
S214015210000000005A6967426565416C6C69616E01
S21401522063653039F0B53B4C0D46A16889B006463A
S214015230174629B1082206A8F1F71EF806A8A060AD
S21401524027B902F065FD6188814201D1002700E09F
S2140152500127304603F04BFB014605AB3A46304684
S21401526003F07EF990BB6068C18804912B464179B2
S21401527003911122017902914188019100880FF270
S214015280A00100900320FCF795FF01202070F1F7A4
S21401529030F99DF8142061682846F9F759F8F1F7B6
S2140152A02EF99DF81400FF2818BFFCF747FC6DB9CE
S2140152B06068C18848F240021140402906D1217831
S2140152C0490703D44088FF2109F032F90020A06085
S2140152D0207009B0F0BD104900E01049097801704E
S2140152E0002070470B48017811B94FF6FF707047E0
S2140152F04088704780B507490A78002A1CBF89682C
S214015300002901D1702002BD0822F0F7B5FF002068
S21401531002BD000080770020B97B0020BA7B002008
S214015320424257574242570041780078FFE700EB68
S214015330012080B270470170090A4170704710B5AC
S2140153400023040014BF1C46C3F10304E4B25B1C33
S2140153500A55120A042BF4DB10BD30B54A788B7857
S214015360CC78097818B120461D460C4602E0154651
S21401537008461A4645EA002044EA022141EA00406E
S21401538030BD0000DFF84413087000207047D04994
S2140153900020C8817047CE48C08900B10120C0B244
S2140153A07047CB48C089704710B500210FF25432C0
S2140153B052F821304FF47A744443B3EB942F01D35F
S2140153C0084610BD491CC9B20F29F1D30E2010BDE5
S2140153D0BF4800210170417007218181704713B5D4
S2140153E0CAB9FBF793FFFF28044614D09DF80410B2
S2140153F00F2910DAB74A12681154012301AA21466F
S214015400192007F045FC012322461921684607F0BA
S2140154102EFC002016BD012016BDAF480068007B9B
S214015420032818BF042801D10120704700207047C7
S21401543080B5FFF7F2FFA949097881F0010108421A
S21401544004D000F03AF9BDE8024000E001BD9F49F2
S2140154500978002918BF00F006B802230B22A049DC
S214015460012005F0ECBA3EB50B218DF8081002A913
S214015470994C4870032300208870019002AA0120ED
S214015480009001212068408803F08FF90546FF2D22
S21401549015D020684188284600F05FFB0446284660
S2140154A0FCF74CFB5CB18A4C052060700020207034
S2140154B01A20F1F719F86421201DEFF747FA37BDD6
S2140154C0F8B5044602F072FF0546204603F08CF953
S2140154D000F071F80746B11C00F06FF80246394635
S2140154E02846FFF77CFF012816D0294600F015F85C
S2140154F07748007B00F0030002280DD12846FBF711
S21401550005FF784A1268002142F82010714909689F
S2140155100A5C42F0F0020A54F1BD3EB50C460C217D
S2140155208DF8081002A96C4A12684870684880898C
S2140155308870927B520904BF00F0FB00887000203F
S214015540019003230120009002AA0121204603F0C6
S2140155502CF90546FF2D05D0214600F0FEFA284617
S214015560FCF7ECFA37BDF8B504461A20F0F7BDFF94
S214015570F0F7C4FF564D00202871F0F7C0FF012058
S2140155802870204603F030F900F015F80746B11CE4
S21401559000F013F8E8816FB900F00300022803D188
S2140155A002F090FE00F071F8A87B400702D5BDE836
S2140155B0F14051E0F1BD0646711CC9B22046FCF728
S2140155C064BC10B51A20F0F790FFF0F797FF404C37
S2140155D0002020712078A0B96078010013D0401E09
S2140155E060701A20F0F780FF3B480068007B0428B3
S2140155F008BFF8F749FA4FF49671201DEFF7A6F9A0
S21401560001E0FFF715FFBDE81040F0F778BF80B561
S2140156101C20F0F76AFFF0F771FF33480021017193
S214015620017899B92C4909684A7B022A10D10122CE
S2140156300270087B2D4904280CBF01200020087049
S2140156400320F5F70DFA03F055FE01E00021017085
S214015650BDE80140F0F753BF10B5254C002020707F
S214015660F5F768FC80B11C480068418803220120D8
S21401567004F06AFB1F4800884FF47A7141432046C4
S214015680BDE81040EFF762B910BD80B51A20F0F7FB
S2140156902BFF00F012F80F280ED20FF2680151F816
S2140156A020000321B0FBF1F04FF47A71BDE804400D
S2140156B041431148EFF74AB901BD10481049007837
S2140156C091F9001088406FE600000000F3630020A7
S2140156D0907A00201860002078770020EA7E00206B
S2140156E09E7A0020E85F0020A07A0020F263002066
S2140156F0AC7A002098630020947A0020D2630020C0
S214015700D36300200A00000075000000EA000000D4
S214015710D5010000A9030000E2040000A60E000067
S2140157204C1D0000983A00003075000060EA000049
S214015730C0D4010080A903000053070000A60E0094
S21401574038B5DFF85418DFF85458002008700024E4
S214015750DFF84C1808700FF0FCFD0FF0A5FF04F001
S214015760A2FD0FF0C5FF02F011FD10F0F9F805F0EB
S21401577011FAFFF72DFE08E0F0F7C0FE03F0F9F985
S2140157800EF038FDF0F7BBFE641C2978E0B28842C3
S214015790F2D3BDE831400EF0FBBF80B5F0F778FEDE
S2140157A0FF2807D10FF0D5FD0FF07EFF02F0EEFCCB
S2140157B010F0D6F803F0DDF90EF01CFDBDE801404F
S2140157C00EF0E6BFDFF8DC070068407B11281CBF3F
S2140157D04328412801D1012070470020704710B5A9
S2140157E0044602F0C2FD801CFFF79EFD01F064FA3C
S2140157F0204602DBBDE8104026E000F082F8401E9D
S2140158008041C00F10BD30B585B0044602F0ECFFF4
S2140158100FF22C0203A9D2E90035C1E900350021B7
S2140158200091421C052300F0EBFE052201A903A806
S214015830F0F778FD401E8041C00F05B030BD000076
S21401584000130000000000002DE9F04104460FF0AF
S214015850E3FE00283BD100F055F918BF04294FF6A6
S214015860FF7505D14188A94231D0204602F0AFFD2F
S214015870DFF8340702880221204604F09FFC30B38B
S214015880204602F072FD0646F77902F041FA80469C
S214015890301DFFF749FD424639460FF0CFFE20B9CD
S2140158A0F7210FF25420EFF77DFEB01CFFF73CFD09
S2140158B0A84204BF204607F04FFB30780321084278
S2140158C003D10121204601F0ADFA012000E00020BD
S2140158D0BDE8F08138B50446DFF86C0C0068005D61
S2140158E0851AEDB2681A80B200908B189BB22246D8
S2140158F02046FCF7B6FB29462046BDE83440FCF7B7
S2140159007DBA2DE9FE4F00258246019502F02DFD58
S2140159100646301DFFF708FD0746B01CFFF704FDDD
S2140159208046307800F0C00002903846FBF7EEFC67
S2140159308DF80200FF2814BF4FF00109A946307800
S2140159400321084208D102F0E3F9874202D05FEA58
S214015950090402D0012400E00024B079002879D09F
S21401596002F0D6F9C346834510D102F0D1F9834639
S2140159700020DFF8341609884218D2B2594650463C
S21401598000F0ECF8002865D00020B3E000F0BAF88B
S21401599002D1B0F802B0EBE70429FAD0404602F093
S2140159A007FC20B9504602F0EAFC400513D5707892
S2140159B04007DDD5504602F03FFE00F0A9F8401C36
S2140159C04200D2B229465046FFF784FF707800F0B5
S2140159D0FB007070CCE7707840071BD5504602F08C
S2140159E02BFE00F095F806466F1CF9B200F004FA9B
S2140159F0002E18BFFF2805D10022F9B25046FCF749
S214015A0049FAB5E705EB4000811CC9B25046FCF7E0
S214015A10F3FAACE701AA694640460FF0A4FC8346B8
S214015A2004B30298802804D040281BD19DF80000BA
S214015A30C0B1307800F03F003070384602F0B8FB55
S214015A4010B902F065F907463A46002140460FF0C4
S214015A50E3FC00284DD0C822072150460FF0D8FE9F
S214015A60012047E00198B8B30FF076FC8DF80100ED
S214015A700198007900F0300002909DF80100FF289F
S214015A8005D14FF4AF710FF27000EFF78BFD1CB329
S214015A900298102811D020281ED1B9F1000F07D086
S214015AA09DF802109DF801000FF065FC28B113E087
S214015AB0019800790C2108420ED0F3795A464146E6
S214015AC038460FF0ABFC01980079019900F0F3001D
S214015AD040F00400087101259DF8000028B101215D
S214015AE0404603F0F9FA20B1C346002D89D0302094
S214015AF03FE70220BDE8FE8F6E6574776F726B2EEE
S214015B0063000000DFF8440C0068017B032970473E
S214015B10054629465046FCF7B8B938B5044601F0A3
S214015B20C3F818BF04280D4601D1012032BD4FF637
S214015B30F9718C421CBF4FF6F8718C4201D070206F
S214015B4032BD02F0E5F80246294620460FF064FC15
S214015B5000F0010080F0010032BD0022F8B50446D5
S214015B600D46164602F001FC2946007801F090F831
S214015B700CBF01270027204602F029FC02F0C8F8D6
S214015B80854215D0284602F011FB40B9DFF8C00B5C
S214015B90017832462046BDE8F84004F00FBB6FB9E5
S214015BA002F0B6F800232246294608F0EEFC28B19A
S214015BB00121204601F036F90120F2BD204602F00F
S214015BC0DEFB400505D52046BDE8F440002104F083
S214015BD0EBBF2046FBF7C8FB401E8041C00FF2BD5D
S214015BE02DE9F041044616468846304602F0FCFD93
S214015BF00746304602F0AFFB3E1AF6B2A719A8EBED
S214015C00060292B2394607F10E00F0F735FB28205E
S214015C10A055DFF89053286890F8200078730EF0AE
S214015C20F7FA0246791C0120FFF789FB0822DFF804
S214015C30241B781DF0F720FB286890F82000FFF75A
S214015C4032FA08F10E0133460022C9B220460EF0A0
S214015C5005FD1220BDE8F0812DE9F04F85B08246A2
S214015C600D4602F0C1FD064601A81021F9F748F9D4
S214015C70504602F09BFB8346504602F06CFB0746FB
S214015C8006F10E0189B2504602F0EEFC002853D010
S214015C90002000900E233246514601A8FBF7EDFF87
S214015CA00DF105010120FFF758FB80469DF8040021
S214015CB09DF81190282840F095800822DFF8941A64
S214015CC00DF10900F0F722FB002835D04846FFF712
S214015CD0EAF9B44C38BB206890F82000A9EB000024
S214015CE000F0FF00802828DAFFF776FA012806D0B0
S214015CF0FFF772FA022820D1FFF759FAE8B9EFF751
S214015D00FCFBDFF8C47C06463868311A009120B1E6
S214015D10FFF765FA009981420FD300210020F3F7BF
S214015D20E3FF3E6009E00120009000233246394639
S214015D3050460EF0C8FC002854D0504602F060FCD5
S214015D4059460DF109000FF038FAFE28064649D0EB
S214015D50FF2829D1584602F069FF0646FF2E04D0D7
S214015D600DF1090103F0E3F91EE000F090FF07D101
S214015D70504602F039FD014600F03EF808282FD0C3
S214015D8020682C3041780078814204D300F0DFFB94
S214015D9000F092FF26DA0DF10901584603F0BBF830
S214015DA0584602F043FF0646216891F820108945BF
S214015DB004D049460120FEF736FF98B1206890F8D6
S214015DC02000814503D130460FF05FFA20B94146E5
S214015DD030460FF0D9F970B1414630460FF0E6F97A
S214015DE0012008E0504602F045FB0146002219203A
S214015DF0F0F7EAFB002014E35046FCF746B838B546
S214015E00DFF8C80BFCF776F90446FF2C1DD00321FA
S214015E10DFF8BC5B02F099FA28700421204602F0F4
S214015E2094FA68700521204602F08FFAA8700120C6
S214015E3007F010F8204600F009F82046FBF77EFE32
S214015E40BDE83240002007F005B831BD70B582B01C
S214015E50044602F099FA00F00C05204602F099FA81
S214015E60F0F74CFB204602F08FFA00F00C000828F1
S214015E7042D1062200212046FFF72CFD2046FBF7E3
S214015E80E7FDFCF796FC8DF801008DF802409DF8C1
S214015E90010048B92046FBF7DBFD01460DF1010084
S214015EA0FCF7DAFC8DF800009DF80100802804BF9D
S214015EB09DF80000012806D1F0F71BFB204604F0F0
S214015EC06BFEF0F71CFB9DF80100402805D1F0F7AA
S214015ED010FB204604F060FE0BE0802804D16846E3
S214015EE00DF017FB002852D1F0F703FB6846F2F7D6
S214015EF071FEF0F704FB4AE0204602F0EFFA064690
S214015F00042D204613D102F03AFA000519D40220D6
S214015F1000223146F0F758FB0C2D14D12146012002
S214015F200FF037FE78B12046F4F7F0F82FE002F0D4
S214015F307DFAB0F5006FEAD100F014FC00F00EFC1B
S214015F40E5D10020E4E71DB92046F4F7A1FA1EE0EA
S214015F50042D1CD113480568687B022807D0FFF77B
S214015F6031FC20B9687B332818BF31280FD1204671
