S02900007365637572652D6170702D626F6F746C6F616465722D6932632D73746D32346D30322E7333379D
S31508000000000400207500000881000008810000082F
S31508000010A70B0A0100000000020203650020000881
S31508000020041E0000590D0008E11200082006000809
S315080000305D0700082F080008810800088D070008DA
S31508000040870700087F0900088F07000800000000DE
S31508000050FFFFFFFF05480068202100EA010020B1E4
S315080000600348016842688D46104770472C000040D7
S3150800007000200008FFF7EEFF00F00DF800F040F84A
S3150800008005E00000854670474248008870474FF4EF
S31508000090017000F099B838B500F0C4F84FF20F04B3
S315080000A03D4D28B140F2052028806C80012032BDE4
S315080000B03A480068C00615D56888A0421ED1288827
S315080000C040F2022188421CBF40F20621884215D020
S315080000D040F2011188421EBFB0F58A7F40F2111125
S315080000E088420BD02E4C208A40F6A721884205D19B
S315080000F02068FFF7C7FF6068804700BF002032BD51
S3150800010038B50400274872B60168490849000160F5
S3150800011000F0CEF821480068000910F001000CBF75
S315080001202149224902E0CD2201F8012B204A9142B9
S31508000130F9D32049204A214B03E011F8015B02F864
S31508000140015B9A42F9D31E491E4A002301E001F8D1
S31508000150013B9142FBD3104A53884FF20F05AB423D
S3150800016040F205210AD113888B4205D030B1180A0E
S31508000170012818BF022801D1194601E004B9002157
S31508000180044801804CF23C30508000F019FABDE872
S3150800019032407CE7B40C0020000000202C00004010
S315080001A000200008FCED00E0000000209800002078
S315080001B0000400203C180008000400200404002065
S315080001C004040020BD0C00200E4A302111600E4A9E
S315080001D011600E4A116010210D4A1160010A0029AA
S315080001E00C4908BF000208804FF20F004880BFF391
S315080001F05F8F094800210160416008480849086086
S31508000200704700003020004030C8004030C0004031
S3150800021010D00040000000201C4000400400FA05F1
S315080002200CED00E00020704780B500F0FDF90121D3
S31508000230152000F006FA152000F02BFA01210720F8
S3150800024000F0FFF9072000F019FA1748016821F0B5
S315080002501001016001BD0000052800D9704710B5DE
S31508000260DFE800F01721030F1C17104C2088411EE9
S315080002702180C0B9072000F017FA42F210702080DA
S3150800028010BD072000F005FABDE81040152000F063
S315080002900BBABDE81040152000F0F0B9BDE81040D3
S315080002A0152000F0F6B910BD00BC0040B60C0020C1
S315080002B0554951200860704738B55449C97804290A
S315080002C0B4BF302460244FF4F071B1FBF4F1451A41
S315080002D01E2DBCBF4FF40170FFF776FF4C484D4A00
S315080002E0072101600021416081604FF000711160B3
S315080002F005FB04F1C91C8908491E416031BD434A02
S3150800030001215170D8E72DE9F041444F424D7888D4
S315080003103E4E4FF6FF78404540F2DC541CD140482B
S31508000320018802237F22B81C00F0DCF97888404552
S3150800033004BF02207880A869800703D4A86940F022
S315080003400200A8610120B070788828602046FFF76F
S31508000350D6FF2046BDE8F081A8698007EED52C486F
S315080003600068C00348BF00F03BF8B0780028F0D119
S31508000370A868A9687A8810F0010003D10F2A08D264
S31508000380521C06E0890704D5397811B1032AA8BF9B
S31508000390424492B2022A3870B8BF02227A8028688C
S315080003A079888842CED1A86900F00300032808D0CE
S315080003B0A869154940F00100A8610120E8615120AB
S315080003C008600020C6E710B5044601E000F0B4F95D
S315080003D02046FFF798FF0100F8D110BD0220F2E78A
S315080003E00B480C4A002141608160016821F0020136
S315080003F001600021054841704FF000711160817855
S3150800040009B100218170704700800040B80C0020B7
S3150800041010E000E004ED00E0044000400004002085
S315080004203818000800787047002101608180C18073
S3150800043001817047F8B504460D461646002711E0B7
S315080004402068803020600020E08080202081A088FD
S31508000450401CA080BFB2E088411C2044E180807A1D
S31508000460E8557F1CB8B2B0420CD2E0882189884290
S31508000470F0D32068802204F10A0100F0D8F90100BF
S31508000480DED0F2BD0020F2BD1720704710B5044635
S3150800049000F0D3F82046BDE8104000F096BA2DE9E2
S315080004A0F041A4B000F07AFA00F0C7F800F0CCFAF0
S315080004B00121684600F0D0FA3F4C04F1800500207F
S315080004C06860A86000F05FF900280FBFE8608168DF
S315080004D0E96040882880684600F08DFB00280746BA
S315080004E044D1BDF80610BDF804600DEB010000F11B
S315080004F00A0828788007F6B20ED5E96861B16868F7
S3150800050032184B1E22EA030710B1A868B84203D274
S31508000510384600F034FAAF6032466868414600F063
S31508000520AFF9074680B968683246214600F07FF978
S31508000530002000E0401CB04206DA215C18F80020D2
S315080005409142F7D0832706E068683018002F686064
S31508000550C1D01B2FBFD00420FFF77EFE01213846ED
S3150800056000F0D1FA384624B0BDE8F081172FF0D153
S315080005700020F8E770B5DAB0044636A8FFF754FF4E
S31508000580012000904FF402630C4A36A901A800F036
S31508000590E3FB0FF28C050FF27C0600F04EF8200004
S315080005A014BF3246002201A9284600F099FE5028B9
S315080005B0F3D05AB070BD0000240C002004040020BB
S315080005C010B5FFF761FD044600F0BCFEFFF72CFEF0
S315080005D000F0C4F818B14FF40170FFF7F5FD00F00C
S315080005E02CF840F2011084421CBF40F211108442DC
S315080005F009D0B4F58A7F1FBF40F20520844240F235
S315080006000320844201D1012000E0002000F09CFE76
S31508000610002010BDA3170008DF17000825040008EE
S3150800062035040008890400081148012181604EF646
S31508000630BE2141600121016070470E490120086012
S315080006407047F0B5C20892020B4CA518830010F04B
S31508000650040014BF6E68A65803F00C030F279F40CA
S31508000660BE439940314308B16960F0BDA150F0BD61
S31508000670006000400860004000B000401149C20810
S3150800068001EB8221012200F0070002FA00F048611E
S3150800069070470C49C20801EB8221012200F00700CD
S315080006A002FA00F008617047C108064A02EB812188
S315080006B00123CA6800F0070003FA00F05040C8603A
S315080006C07047000000B0004038B514467F2C08BFBC
S315080006D00024164D29431A4604FB0311BDE8384089
S315080006E000F076BE70B51E00044615461CD04BF2C7
S315080006F03460814212D1092E28BF082633467F224C
S3150800070040F612012046FFF7DFFF32460FF22001BE
S31508000710204600F07DFE38B940F2A27133462A46DB
S315080007202046BDE87040CFE770BD00000000040811
S31508000730FFFFFFFFFFFFFFFF07490A68032809D3EA
S315080007404B6D43F001034B650B689B1AC3F3130308
S315080007508342F9D3704700003820004080B50D2148
S315080007600120FFF76EFF0D210220FFF76AFF73488D
S315080007700E2141610121816100210160416003214F
S315080007808160002002BD0FF2FC1070477047002000
S315080007907047F8B50C46010C490041F0A80115460A
S315080007A0C9B2674E326942F004023261B268120772
S315080007B0FCD5316000F033F8B268D207F2D40204EF
S315080007C0120E326000F02BF8C0B200F0C5F830699E
S315080007D040F004003061B0680007FCD541F0010024
S315080007E000F0C3F80AE07061306940F0010030613A
S315080007F0B0684007FCD53068E0557F1CAF420ADA7E
S31508000800FFF71BFF681E87427069B2BF40F0010000
S3150800081040084000E7E700F097F80020F2BD32698B
S3150800082042F002023261B2689207FCD57047F8B509
S31508000830044644480D46164684423EBF3746391993
S31508000840814201D38520F2BD20040DD0200C00047E
S3150800085000F58030814207D36742BFB204E0F61B39
S315080008603C193D44B6B23746300007D03A462946C9
S315080008702046FFF78EFF0100F1D0F2BD0020F2BD41
S315080008802DE9F84F04462F488946924684423ABFD6
S315080008900AEB0401814285204ED2200640F2011B54
S315080008A04FF4807807D0200A000200F58070814254
S315080008B003D3051B04E0DA4501DA554600E0454650
S315080008C05FEA0A0037D0200C400040F0A800C0B20A
S315080008D01B4E316941F004013161B1680907FCD545
S315080008E03060316941F002013161B1688907FCD590
S315080008F0B168C907EDD42004000E00F02DF8E0B267
S3150800090000F033F807E0FFF798FEBFB219F80700C2
S3150800091000F022F87F1CB8B2A9B28842F3D300F0DF
S3150800092013F8AAEB0500ADB22C191FFA80FADA45BE
S31508000930A944C4DAC1E70020BDE8F28F4CC00040E4
S315080009403CC0004001000400306940F008003061F6
S31508000950B0680007FCD570473060306940F0020087
S315080009603061B0688007FCD570473060306940F068
S3150800097002003061B0688007FCD5002770478820E0
S31508000980704700000202000000000000000100009D
S31508000990000004002C1800080100000080B5274854
S315080009A06821416102218160012101600920092134
S315080009B0FFF747FEBDE8044004210A20FFF741BEC1
S315080009C01F4800684006FBD570471E49CA6852078B
S315080009D0FCD50860704710B5044603E014F8010B0F
S315080009E0FFF7F3FF20780028F8D110BD10B50446AC
S315080009F000090A28ACBF37303030C0B2FFF7E5FF30
S31508000A0004F00F000A28BDE81040ACBF373030307C
S31508000A10C0B2DAE70A48006810F0020018BF0120E1
S31508000A20704710B50446FFF7F5FF20B10548006882
S31508000A302070002010BD012010BD000054C80040E1
S31508000A4048C800403CC8004080B56846FFF7E9FF43
S31508000A500028FAD001BD00000170012201290CBF4F
S31508000A60802140218180427000218270C1800181ED
S31508000A70204801600E218162016821F010010160A1
S31508000A80002141634162426170472DE9F041194FE7
S31508000A90194E044600F032F890464FF0FF303060A9
S31508000AA0C7F82C80002078620D46386840F00100AF
S31508000AB03860FFF7C2FD012C0FD135B9FFF7AAFF41
S31508000AC000F0010080F0010002E02846FFF7A9FFC8
S31508000AD028B900F013F800200AE0012008E0306881
S31508000AE0C007E6D55FEA0800E3D000F007F816204D
S31508000AF0BDE8F08100E0004000A8004038684008E2
S31508000B0040003860704738B504460D4600F009F8CD
S31508000B1000F007F82A462146BDE838401820FFF7B6
S31508000B20B5BC2A4621461820FFF7B0BC70B5044666
S31508000B3082B0002020814AF6B43220786946FFF751
S31508000B40A4FF08B11C2076BD9DF80000032818BF35
S31508000B50182801D1182076BD042801D1172076BDA2
S31508000B60012801D0212076BD002500E06D1CA18852
S31508000B70EDB2091D8D420BDA601900F10A012078E1
S31508000B8040F2DD22FFF781FF0028EFD0262076BD50
S31508000B900025002006E00146EDB260196D1C007BB9
S31508000BA000F048FCA288E9B29142F4D3A37AE17A2C
S31508000BB0C918FF2901D0222076BDA5182E7BB6EBD1
S31508000BC0102F01D0232076BD697BC0B2814201D0A7
S31508000BD0242076BDA078834207D0401EC0B2834247
S31508000BE001D1272076BD252076BD901C20810220C4
S31508000BF0E080002076BD38B504466078012804D028
S31508000C0040D303283CD033D33CE02078012816D1C2
S31508000C103B256846FFF705FF0028FAD04320FFF773
S31508000C20D4FE207840F2DD220021FFF72EFF30B1F6
S31508000C302846451EC0B20028F0D11B2032BD02202E
S31508000C4060702046FFF772FF050018BFFFF7FCFE2D
S31508000C50272D19D1A0782278411EC9B20620FFF7A0
S31508000C6015FC002DEDD10320FFF7F6FA002032BD62
S31508000C70FFF7EAFE00F023F8A078401CA070E0E732
S31508000C80172032BD182032BDA80603D52278A178D0
S31508000C901520E4E7680603D4182D18BF1C2D07D1C4
S31508000CA021782846FFF72FFF04206070284632BDBA
S31508000CB0172DD6D100F003F803206070E0E72278FC
S31508000CC0A1780620FFF7E2BBF8B504460D4616469E
S31508000CD01F4607E03046A047294600F0BEFB0546FA
S31508000CE07F1E761CB8B20028F4D12846F2BD38B566
S31508000CF00C46154605E0014614F8010B00F0ADFB5D
S31508000D006D1EA9B20029F6D132BDF8B507460E46C2
S31508000D1014461D4630683B682A4621469847070010
S31508000D2005D1F0682A462146FFF7E1FFF060D6F8BC
S31508000D30A8002818C6F8A80096F8A70050B1AC363F
S31508000D402A462146304600F05DFC2A4621463046B2
S31508000D5000F0D8FB3846F2BD70B58AB004460E9846
S31508000D60A072238162600D46022228686946FFF751
S31508000D705EFDBDF8000048B32868202201A9FFF7E8
S31508000D8056FD00200FF2B05101AA0B5C125C9A4284
S31508000D901CD1401C0828F7DBBDF80C0040BAA8B9DE
S31508000DA0079801BA202911D306BAFFF7ECFCC068E8
S31508000DB086420BD2202201A94FF0FF30FFF797FF9A
S31508000DC0BF49884202D1079800BA286025604FF0CB
S31508000DD0FF30E060002100202074282204F1A400DE
S31508000DE00180802181700021C170416004F1AC004E
S31508000DF000F007FB0AB070BD2DE9F84F8B46044694
S31508000E009BF81B70D068AE49802FA8BF8027884200
S31508000E101E4653D1002E4FD0B06800904FF0FF38D1
S31508000E204FF000090BEB490000F1480A9AF8005008
S31508000E300DE0FFF702FCE80240F0006200984FF46C
S31508000E4000634146FFF740FF6D1C8046ADB29AF835
S31508000E500100A84205DA09F10109B9F1060F02DA1B
S31508000E60E0E7FF2DE5D1DBF844006FEA0801884288
S31508000E7024D1A068736800BA7A0859469847C8B951
S31508000E80E06805BAA06802BAB0683B464FF0FF3181
S31508000E90FFF71AFFC04385420CD140F6A720ABF8EE
S31508000EA010000122A068736800BA0BF11001103017
S31508000EB0984708B1422002E0172000E04320BDE829
S31508000EC0F28F2DE9F04F894609F1040683B0804672
S31508000ED0D6F800B0B088ADF80000144604235A4688
S31508000EE04046FFF712FF010010D1BBF8000040BAD8
S31508000EF080B20190BBF8020047BABFB2F80706D520
S31508000F0001984FF20861884218BF46207DD1B7F58F
S31508000F10026FC8BF4E2078DC002F75D00198DFF825
S31508000F20A4A109F13C0560B14FF20861401A70D0DE
S31508000F3040F2FC51401A67D0FF387CD0FE387AD090
S31508000F40BBE0307B08B151205FE08D2F28BF4F20D2
S31508000F505BD23B4609F1180249464046FFF7D5FEE3
S31508000F60010052D1EA78802AA8BF802202F10C003B
S31508000F70874201BFB08A40BA00F47F40B0F5007FCF
S31508000F8045D1F08A40BA4EF25031884202BF308EBF
S31508000F9040F6A72188423AD1708E00F47F41B1F518
S31508000FA0807F01BFB16909BADAF81C3099422ED19F
S31508000FB0BAF8181040F2032399420DD1B0F5847F90
S31508000FC025DB686C410522D13F49081AB0F5303F48
S31508000FD01DD8B0F5005F1AD34FF6FF70308609F1B9
S31508000FE024014FF0FF30FFF782FEF16909BAC943C1
S31508000FF0884204BF2878042809D168781E2818BFB3
S31508001000062804D1012030730020BDE8FE8F452054
S31508001010FBE7307B88B1BDF800008742B4BF3C4689
S315080010200446234600F052F80100EED13F1BBFB23A
S31508001030002FF0D1E8E7307B08B94120E5E7042323
S3150800104000F044F80100E0D1DBF8000006BADAF84F
S315080010501C003F1F8642BFB238BF4820D5D3E96B74
S31508001060B819884228BF4920CFD201984FF60351B4
S3150800107088420AD14CB1226831460220904720B1F5
S315080010804A20C2E77F1BBFB2AE19002FBCD0BDF8FD
S3150800109000008742B4BF3D4605462B4600F016F8C9
S315080010A00100B2D1002CEDD063686A085946304673
S315080010B098470028E6D04B20A7E74420A5E700007C
S315080010C0E320BBDE00000008000003085A46494634
S315080010D040461AE62DE9F04715462E1D0446B6F891
S315080010E004A0102C894638BF4E2031D305F1AC0830
S315080010F00423424600F02EF8010029D10C2305F1FD
S31508001100B00200F027F8010022D1D5F8AC0000BAE9
S31508001110103CC5F8AC00A4B22146404600F0BAF926
S3150800112005E031683A46404600F0ECF9E41BA0B207
S3150800113050B1A7B2574588BF574632683B4600F0BC
S3150800114009F80100EDD003E0404600F0FEF9002062
S31508001150BDE8F08729464846D7E52DE9FE4F834680
S31508001160884608F1A40608F10404B078256883289F
S3150800117091464FF6071A05D1B7888222504651463E
S31508001180B2700DE004232A465846FFF7BEFD01005B
S315080011906AD12888698840BA80B24FBABFB2014678
S315080011A0FA0706D54FF6062291421CBF514546203E
S315080011B05AD14FF20972B178801A56D04FF4FF729D
S315080011C0801A37D0FF382CD0FF3802D0FF3868D0C5
S315080011D07FE0802967D1062F20D3062301AA41463E
S315080011E05846FFF792FD010019D1BDF8040040BA30
S315080011F000F47F40B0F5007F01BFBDF8080040BA93
S315080012004EF25031884209D1BDF8060041BA01298B
S3150800121003BF40BA30800020522000E045208121DB
S3150800122055E081293FD1424659463846FFF752FFD5
S3150800123082214CE0822936D1042F2DD30120F0706B
S315080012404A460020706041465846FFF73AFE0100BC
S3150800125022D10021F17071688F421DD3B94239D26B
S315080012608322791AB270716034E082291BD108F1A1
S31508001270AC09484600F069F9A088B842B8BF4F20C3
S3150800128028DB3B4600F028F8010023D1FAB22946AC
S31508001290484600F080F908B954201BE00020842154
S315080012A015E0842901D0512014E0042F18BF4C20E2
S315080012B010D1042300F010F801000BD14B4642462A
S315080012C008F1240108F11400FFF796FD8521B17095
S315080012D000E04420BDE8FE8F2A464146584614E5FC
S315080012E070B50D46044628898028164601DA4F202F
S315080012F070BD00F0C3F808B9532070BD32462946C0
S315080013002046FFF72AFF002818BF172803D08F2189
S3150800131085F8A61070BD95F8A600852806D1286818
S3150800132061688847172805D1002070BDA87A00286B
S31508001330E4D0502070BD0000534C4142494252202F
S3150800134000000000FFF74AB810B504460020FEF773
S3150800135083FF24BB0020FFF70DF950B90120FFF7E2
S3150800136009F930B90520FEF777FF40F20120FEF7AC
S315080013702BFF0420FEF770FF0120FEF76DFFBDE886
S31508001380104040F20320FEF71FBF0FF23400FFF7AC
S3150800139022FBFFF715FB40F20220FEF715FFFFF7C9
S315080013A07EF80400F1D00FF22000FFF714FB204668
S315080013B0FFF71CFB01A0FFF70EFBF0E70D0A000084
S315080013C00D0A4F6B0D0A00000D0A45525220000007
S315080013D0814212D210441144401E491E93B2002B7A
S315080013E01EBF11F8013900F80139521EF6D17047AF
S315080013F011F8013B00F8013B521E93B2002BF7D1BE
S315080014007047130003D00A46194600F027B97047FB
S3150800141010B500E0521E93B223B100F005F8F9D0DA
S31508001420181B10BD002010BD10F8013B11F8014B28
S31508001430A34270470A46090241EA12214840C0F30E
S315080014400311484080EA003041010206C9B2D20EB3
S3150800145041EA0221484080B270470A0A484000F033
S31508001460FF0008214308C00746BF034858401846EE
S31508001470491EF7D1504070472083B8ED00206049D7
S31508001480095CFF2901D001207047401C1028F6DBB3
S315080014900020704712B5044683B02068039900BA45
S315080014A000903A2001B17A2020740C22211D04F103
S315080014B01100FFF78DFF03220DF1010104F11D0054
S315080014C0FFF786FF00F03CF80398D0B1B0F57F4FE0
S315080014D005D200BA039002220DF10E010EE00FF2BA
S315080014E078100088ADF804000222039800BA039029
S315080014F001A9204600F006F8042203A9204600F0B8
S3150800150001F81FBDF8B504460D461646002714E037
S3150800151094F82500EA5D2044017C5140017494F852
S315080015202500401C84F82500C0B2102804D300F01A
S3150800153007F8002084F825007F1CB742E8D3F1BDE0
S315080015402F4904F1100000F0F3B81FB504466846A9
S31508001550102100F0F7F894F82500C0F11000C1102A
S3150800156000EB11710911A0EB011269462046FFF73D
S31508001570C9FF1FBD1FB50C46011D6A46002000F0B5
S3150800158027F80020215C1DF8002051402154401CFA
S315080015901028F7DB1FBD38B5102A04460D4607D1BB
S315080015A0216A94F82420206802EB0111884201D0B0
S315080015B0002032BD29462046FFF7DCFF102204F141
S315080015C010012846FFF724FF401E8041C00F32BD98
S315080015D011B581B000BA01901446022020700C2281
S315080015E0601CFFF7F5FE03220DF1050104F10D005D
S315080015F0FFF7EEFE0249204600F09AF813BD0000F8
S31508001600F80804082DE9FF4104460D4690460020D7
S31508001610002704F120061AE0010006D130686A4660
S31508001620211D401CFFF7D4FF01203379E95D1DF821
S3150800163003205140E9553179491CC9B2102904DB08
S315080016403068401C30600021002031717F1C4745FE
S31508001650E2D3BDE8FF810000FFFE000062F30F221F
S3150800166062F31F42401810F0030308D0C91A1FD3AB
S31508001670DB0748BF00F8012D28BF20F8022D13000C
S3150800168030B414461546103928BF20E93C00FAD86C
S31508001690490728BF20E90C0048BF40F8042D8900F7
S315080016A028BF20F8022D48BF00F8012D30BC70472E
S315080016B0C91818BF00F8012DCB0728BF00F8012D5F
S315080016C0704700000268174912BACA60426812BA1F
S315080016D08A60826812BA4A60C06800BA08607047B1
S315080016E010B5114980220A600623104A13600723A1
S315080016F00B6013689B07FCD5002350F823405B1C3E
S3150800170024BA042B8C62F8D313685B07FCD5002235
S315080017100B6B1BBA40F82230521C042AF8D310BDB2
S3150800172000000000383000400030004010A00040A3
S3150800173010B504460846FFF7C5FF2046BDE8104029
S31508001740CEE70000002200F001B8000000B500BF97
S31508001750130096469446103928BFA0E80C50FAD8CC
S315080017605FEA417C28BF0CC048BF40F8042BC90774
S3150800177028BF20F8022B48BF00F8012B00BD000047
S315080017802748018A40F6A772914202BF408A4FF461
S315080017907F41084203D1022801DB0120704700205F
S315080017A07047F8B504461D4E012030700D46FFF708
S315080017B0E7FF18B94FF40170FEF706FD1848876A67
S315080017C0294644F48070B847002131700FF2540658
S315080017D018B9294644F40070B847305CF2BD2DE9C3
S315080017E0F041044688465600FFF7CAFF18B94FF479
S315080017F00170FEF7E9FC0A480FF22805476A00233C
S31508001800324641462046B84720B93346002241466B
S315080018102046B847285CBDE8F0810000BC0C0020D3
S3150800182000000408000202024B4B464753544D324F
S31508001830344D303200000000EE0800000100FFFFC2
S705080000757D
