:1000000000800020FD6B0000F96B0000F96B000020
:10001000F96B0000F96B0000F96B0000F96B000050
:10002000F96B0000F96B0000F96B0000F96B000040
:10003000F96B0000F96B0000F96B0000F96B000030
:10004000F96B00008D590000F96B0000F96B00009E
:10005000113000007D59000081590000D95900007D
:1000600089590000F96B0000F96B0000F96B000082
:10007000F96B0000F96B0000F96B0000F96B0000F0
:10008000F96B0000F96B0000F96B0000F96B0000E0
:10009000F96B0000F96B0000F96B0000F96B0000D0
:1000A000F96B0000F96B0000F96B0000F96B0000C0
:1000B0009159000085590000ED490000F96B0000DE
:1000C0006D590000F96B0000FD490000F96B00005C
:1000D000F96B0000F96B0000F96B0000F96B000090
:1000E000F96B0000F96B000010B5054C237833B9AB
:1000F000044B13B10448AFF300800123237010BDFB
:10010000C00000200000000078990000084B10B5E6
:100110001BB108480849AFF300800848036803B9D9
:1001200010BD074B002BFBD0BDE81040184700BFA7
:100130000000000078990000C4000020BC000020EE
:1001400000000000154B002B08BF134B9D46A3F584
:10015000803A00218B460F461348144A121A07F0C2
:10016000A3FC0F4B002B00D098470E4B002B00D068
:1001700098470020002104000D000D48002802D0FF
:100180000C48AFF3008007F069FC2000290000F064
:1001900013F807F04FFC00BF0000080000800020AB
:1001A0000000000000000000C0000020501B0020E4
:1001B00000000000000000002DE980488D4B5B68C6
:1001C00013F48063A5B005D04FF000531B689C1E4C
:1001D000634263414FF0005200211160002B43D174
:1001E0001CA806F009F906F03DF8054600283BD0AA
:1001F0009DF87030012B28D1446B06F0EDF81E9B62
:10020000580704D506F02EF806F0C6F818E09CB1A1
:10021000794A936C9BB2B4EB832F0DD2926C04F1AC
:10022000380392B2B3EB822F06D8636923B120461C
:1002300005F0F8FF0028E5D105F1E80005F0F2FF30
:10024000044606F0B9F8204602E0E83005F0EAFF7F
:1002500050B106F007F8044606F004F8674B9860C2
:1002600023689D4663689847654A136843F4807322
:100270001360644B4FF416721A60634A5A60634A03
:100280001A674FF4F0729A60614B02229A639A6B7C
:1002900002F00F02022A40F0D980DA6C22F04052BC
:1002A00022F0010242F00102DA64D3F8EC2042F4B9
:1002B0004072C3F8EC20DA6E42F08072DA66554B79
:1002C000186800B1042005F015FC534B504EC822AD
:1002D0001A80524BA0221A80514B0F20188005F033
:1002E000A1FB504BB36500210C2214A807F0DCFBE6
:1002F00000210C221CA807F0D7FB3F4BD3F8683134
:10030000C3F30722DBB21E921693F36CC3F301789A
:1003100014A81CA90022434605F0FEFBD6F8EC7099
:10032000C7F3012715A81DA900223B4605F0F4FBE1
:10033000DDF878A0DDF858E014991598DDF870C064
:10034000DDF874904FF41672CEEB0A035343B3FBFF
:10035000F2F37344C1EB0C04C0EB0905534502FBF7
:1003600004F402FB05F5B4FBF2F4B5FBF2F50C4422
:1003700005446BD8734569D34D4567D8854265D32D
:10038000644563D88C4261D3F26D22F4FE4222F0C0
:10039000020242EA0323F3654046002101F0BAFD60
:1003A000002853D03846012101F0B4FD00284DD07B
:1003B000726EAC4238BF2C46E72C22F4FF7328BF84
:1003C000E72423F0010343EA44037366F36B43F429
:1003D0008063F36333469A6FD107FCD40C4B124908
:1003E0001B6C13F0030302D001230B601EE00B60B3
:1003F00029E000BF00500E40B081E00F00ED00E0AA
:1004000000000E408C420E404A5D050028E21600B6
:1004100000300E408009C6434414002040140020E0
:1004200042140020372110B7B40AC6435D4B9A6FBF
:10043000D207FBD41A6C22F003021A649A6F12F0EE
:100440000102FBD10A60584B01221A60574C584EEA
:10045000112005F0B1FB0220002101F017FC636AB6
:10046000544823F001036362534B00251D60A36AC7
:1004700023F0070343F00603A362504BE362226BB1
:100480004F4B02F07F62134323634E4B6363294655
:1004900005F03AFD4C4805F047FD0220012101F02E
:1004A000F5FB376C434841F671333364294605F058
:1004B000C9FC07B13564454D2B68002BFBD10223E5
:1004C0006367434805F014FC05F02EFD06F0B2FB0F
:1004D0002B68002BFCD1334C6168C1F3014105F05E
:1004E000D3FC324B5E6A46F040562F68002FFCD199
:1004F00061683048374C384DC1F3014105F0C4FC08
:100500002C4805F011FD294B5E62D3F8C82042F05B
:100510000102C3F8C820A36AAB65352006A904AA66
:10052000079705F0EDFD029430B19DF81030042BD3
:1005300002BF069B18680790079BDB0314D50AAA25
:10054000AB6DBB540137062FF9D19DF82D3043F028
:1005500060038DF82D309DF82E3043F001038DF8A7
:100560002E301E4B5A6041E02C2006A90DF11102DD
:1005700005F0C6FD002839D00AAD06999DF8112076
:10058000284607F031FA3C2006A90DF1110205F0CA
:10059000B7FD9DF82E3018B3069A127862F3000367
:1005A00020E000BF00300E409407C64300400E40DC
:1005B00000000E4000F04902A004C84320000500DE
:1005C00007450BD047A002000148E801C800C64318
:1005D00000050800B081E00F0050084038040020FA
:1005E00060F300038DF82E30B34B5D60B34BB44A1B
:1005F0001A605A609A604FF48070002298829A754F
:100600001A82DA75AF4BB0491960596099609882C7
:100610009A751A82DA75AD4BAD4808211970AD4B49
:10062000AD491960AD4BAE491960AE4BAE4919608A
:10063000AE4BAF495860AF4819600360AE48C3F88D
:100640008C200160996AAD485A65914208BF014605
:10065000AB489A65A3F84420A3F8462064220160C1
:10066000A3F84820A3F84A20A3F84C20A3F84E2072
:10067000A3F85020A3F852204FF6FF729A8211205F
:1006800005F09AFA042805D19E4B5B6813F4403FAD
:1006900000F0658400234FF000099B4F9B4A9C4E5D
:1006A0005A65C3F8589003F10C053B6004F0E2F979
:1006B0007FA3D3E90023D6E9000100211943954B1C
:1006C000954C00F0010010431A68C6E9000104F0DF
:1006D00027FA04F0B5F9284603F008FB022001F0E0
:1006E00087FA386864239422A0F84830A0F84E3086
:1006F0009623A0F85020A0F84C30A0F84490A0F821
:1007000046900721343004F049FB3D6883490126B7
:1007100005F10C0003F0F8F805F1340085F83C60B1
:10072000022104F03BFB7E4B4FF4F0621A6003F1B0
:1007300000734FF400721A6003F5804350334FF09A
:1007400000621A60A3F58043183B4FF400321A6030
:100750002B7B744A33432B7313683D6823F00F03DC
:1007600043F0030305F10C0005F134086E4D1360EE
:10077000494603F061FA01F07FFCC5F80090029B46
:10078000586A6A4BD3F888213040704002F48003E5
:10079000184300F0C48603232370654BFF221A70B0
:1007A000454B3868B3F9002047F6FF718A421C4672
:1007B00004D0002106F070F8014600E0FF213868FF
:1007C000514D0C3003F038FA646805F108093CB962
:1007D000484606F0D1F8AB7B64F30003AB7307E047
:1007E0002068A860A288A37989F80630A9F80420B7
:1007F000504B514C514E524D202283F80123002181
:1008000083F80423204683F8062383F8072383F81C
:10081000052383F8082383F81D23602207F044F999
:100820004848494B4FF4907284E80900BA82252366
:10083000464A63720123137023720023336008A9B0
:100840001B230DF1120236202B8005F059FC3920B4
:1008500006A90DF1130205F053FC0DF1500AB04644
:1008600058B19DF813200699202A28BF202250460F
:100870008DF8132007F0B8F896E0354B0899186802
:100880001B7914908AF80430002963D09DF8122057
:100890001B2A28BF1B22531D8DF813300DF1550064
:1008A000531C8DF8533007F09FF863E0AFF30080DE
:1008B000081B88120400000038040020B410002037
:1008C0009C07002028100020DC0000204019002098
:1008D000400400204C1B0020087C0000441900202C
:1008E000F47B00003C190020647C0000E00500203F
:1008F000012A0000980D002038000020CD380000AB
:100900001C00002000300E40D8110020081B880277
:100910005014002048140020FC110020989300007F
:10092000440008445C1F0021E81F002100400E40E5
:100930002000002000E100E0DC1800204C04002032
:1009400050040020D6BE898E555555002610002033
:10095000608E00000E238DF813300A238DF853307B
:10096000C44B1A68CDF855205A681B7ACDF8592027
:100970008DF85D301CA805F0FFFFBF4A9DF81330CD
:1009800012882AF8032024A99A1C51FA82F2002125
:1009900002F8401C1C98BDF8741042F83F0C093353
:1009A00022F83B1C8DF813303A2006A905AA05F061
:1009B000A7FB58B19DF814200699202A28BF2022B1
:1009C0001CA88DF8142007F00FF809E0AB4B1A882B
:1009D0009B788DF872300323ADF870208DF81430B9
:1009E000A74EDFF808B396E803000023CBF80030E9
:1009F000CBF80430A34B83E80300184601F05AF803
:100A000006F1080292E803009F4B102283E80300DE
:100A100018461A7201F024F806F1100393E8030057
:100A20009A4A82E80300022318361372D6601382B2
:100A30000096019302F1140006CA00F0EDFF089839
:100A4000CDF808B010B19DF8121001E089480921D5
:100A50008F4E01F041F896E803008E4B83E80300C7
:100A6000184601F027F806F1080292E803008A4BC5
:100A7000082283E803001A72884903924FF6FE7237
:100A80001A82D960184600F0EBFFDFF864E206F145
:100A9000100393E803000C238EF80830804BCEF847
:100AA0000C304FF6FE738EE80300AEF8103070463F
:100AB00000F0D6FF06F1180103C97A4B039A1A8297
:100AC00083E803004FF0020B7749D960184683F89A
:100AD00008B000F0C5FF06F1200292E80300734B56
:100AE000734ADA6083E80300012218461A8283F809
:100AF00008B000F0B5FF06F128026E4B92E8030043
:100B00006D4ADA604FF6FE7283E803001A821846D7
:100B1000303683F808B000F0A3FF684B684ADA600B
:100B200096E803004FF6FE7283E803001A82184627
:100B300083F808B000F094FF624B029A1A604FF6F7
:100B4000FF729A809DF81320202A05D8931DA37365
:100B50005D48514606F048FF9DF81420202A06D82B
:100B6000931D84F8363059481CA906F03DFF02F069
:100B700045F9237BB97B43F001032373637B01F0C9
:100B8000010103F0F00361F386136373A37B13B9D0
:100B90004F4B06229A734F4BB9F80420D9F8000046
:100BA0009A8094F835201860042060F3030261F302
:100BB000861284F8352094F836200F3B12B90622AD
:100BC00083F83620444BD9F80000B9F804201860A7
:100BD0009A8005F00FFD414B1B78002BFBD0EFF303
:100BE000108472B6002213460DF115013C4805F041
:100BF000D7FF204604F0DCFF9DF8153013B1002329
:100C0000C8F80030D8F80020EFF3108472B6354FE2
:100C10003348C2F501730DF115013A449BB205F05A
:100C2000BFFF0646204604F0C3FFD8F8000030445A
:100C30000328C8F800003E46CDD9B7F800B00BF144
:100C400004039842C7D300F286817C88042C51D0DB
:100C5000062C40F0808110A80021102206F024FF0D
:100C6000214B10932046022310A9119305F024FA7A
:100C700071E100BF668E0000708E0000738E000070
:100C8000D07A000004070020300500200405002071
:100C9000EC7A0000240700209C0800208555000005
:100CA0006952000088050020578E0000440700208C
:100CB0005F8E0000AC04002051640000540400204A
:100CC000F162000034140020F118002019190020EE
:100CD000DC180020EB18002013190020F011002070
:100CE00028100020340200201000002054090020A9
:100CF000DC010020C34A3B79C3494FF4804005F032
:100D000095FE3B794FF0000A0BF1FF32082BA5F856
:100D100002A092B200F0D38009D8042BDFF824930C
:100D20003BD0062B3ED0022B40F0B78510E0102BB5
:100D300000F0D28004D80A2B00F08B8000F0ADBD0B
:100D4000122B00F08B80522B00F0A28000F0A5BD8A
:100D5000022A40F0A8854FF48040AC49AC4AB7F86D
:100D6000053005F063FEB7F80540A849A94AB4F577
:100D7000007F28BF4FF400744FF48040234605F0F5
:100D800055FE0021032302200A4689F80030A9F805
:100D9000014000F091FD2C80DDE0042A40F08085C8
:100DA00000F00EBCB7F80720B7F805309A49ABF150
:100DB0000704A4B28DE814004FF48040974A05F070
:100DC00035FE0B3607F1090C4FF0020BB7F80500A2
:100DD000B7F80710CDF840C0009601948DF844B0E4
:100DE00010AB0CCBCDF808C004F05EFD4FF6FF76DB
:100DF000B0420446DDF808C006D17B68884AC3F3D8
:100E00000F23538000F037BCCDF830C08DF834B0DC
:100E1000CDF800A0CDF804A001300CAB0CCB3146CE
:100E200080B204F041FDB04207461CBF00F1FF371D
:100E3000BFB2234600974FF480407A497A4A05F0C2
:100E4000F5FD072389F80030A9F80140A9F80370DF
:100E500075E0022A40F0278500F00FBCABF10304D7
:100E6000A4B2B7F80530714900944FF48040704A3D
:100E700005F0DCFDB7F8050004F0F0FC002800F0F8
:100E80002884037B1A0700F12A84032400F022BC83
:100E9000ABF10304A4B2B6F80530644900944FF4F2
:100EA0008040644A644F05F0C1FDB6F8050004F0C7
:100EB000D5FC00284FD0037B5B074CD545E0ABF158
:100EC000050B1FFA8BFBBBF1020F00F02384BBF173
:100ED000100F23D100F01EBCABF1050B1FFA8BFBEA
:100EE000BBF1020F00F04884BBF1100F16D100F0E7
:100EF00043BC2B88013BADF82430B9F8050010A99C
:100F000009AA00F0F1FC0446002800F0D183D9F8CA
:100F10000430434AC3F30F235380E4B13F796E8812
:100F2000464A00963B4601944FF48040444905F000
:100F30007DFD444B01221A705F705E801C710021A0
:100F400004200A4600F0B8FC05E0B7F80500F91DDA
:100F5000224600F0F0FC0023C8F800303BE601F028
:100F60008BF8394B53F8082C53F8040C002A40F046
:100F70008180364B364D5A691A691A699A69DB695C
:100F8000344BC5F8443148F2E673C5F838314FF4B4
:100F90000863C5F83431304BC5F8A0302F4B304EC4
:100FA000304F4AF63F429A6003F580434FF0C072DB
:100FB0009A620023C5F8FC302B4BC5F89C302B4BB4
:100FC0007F221A6003F1007323221A6003F5425353
:100FD000343303221A604FF40023C5F894304FF0E5
:100FE00001084023C6F80080214A33604FF4607343
:100FF0003B604FF040731360936103F03BFDC7F813
:10100000008043E0EC7B0000778E00008D8F0000B5
:10101000AA7C0000837C0000AE8E00007F7B000075
:1010200050040020D78E0000987B00000B8F00003A
:1010300060900000FC7B000034020020727C000005
:10104000598F00004D0900200880E00FD0FF0FE00D
:1010500000400840C0E653517A27000F0030084096
:10106000944008460C400846806D630324300844D1
:10107000F8400846110C244D0904A94208BF10602D
:10108000224A083393427FF46DAF72E76F68DFF84E
:101090009C80C7F30367002FF8D101234FF0045061
:1010A000C8F87C001A49C8F8803041F2441206F0B2
:1010B0009BFC184D184BC8F860303946A4221748DD
:1010C000D5F8009006F0F0FC154B164A5A603946E8
:1010D0006422C5F80090144806F0E6FC029BC8F8AC
:1010E0008870C8F88C70C8F890705B6DD9B2029B9C
:1010F0001A68FF29C2F307431AD05AB2013204BF5B
:101100009021192316E000BF00000840B881E00FCD
:10111000007D0000E81F0021C01F00215C1F00218E
:10112000EC1F00213F003700F81E0021004008405E
:1011300090211923C44ADFF8649302205BB293FB29
:10114000F0F30B44D37323235373C04B90734FF6C8
:1011500003721A6003F100734FF0000AC3F800A095
:101160004FF080433360BA4BBA4A1A60BA4BBB495E
:1011700003221A60596040F6FF715962B84B1A8019
:10118000B84BB94AA3F800A0B84BC3F800A05A6006
:101190004FF400525A62B64BF0221A6003F100730A
:1011A000A0221A60B34B4FF00108C3F8B88001F0D9
:1011B000E9FAB14BB148C3F80080B14BC3F80080E5
:1011C000B04BC9F8003003F0A3FE4FF4FA714FF4AE
:1011D0007A75B0FBF5F7AC4879430A0280184FEAFC
:1011E00011634FF000015941A84A002306F01EF98F
:1011F000A0F58073C9F8283050EA0103824603D174
:101200002B2001F0EDFAC24605FB0AF250084FF020
:10121000000818EB00044FEA072949F1000543468E
:101220002046294606F002F9994B1960994B4FEA7E
:101230000A6B8046894618604FEA1A2A1FB92B208C
:1012400001F0CEFA01274FF47A71ABFB0123780845
:1012500001FB0A3312EB000A43F1000B00253A466A
:10126000504659462B4606F0E1F88B4B8B4F1960E0
:101270008B4B18F10208186049F100094FEA9803F6
:1012800043EA8973013B3B63864BDFF868928648EB
:101290004FF00052C3F880214FF0070A1A60012373
:1012A0007B60C9F884A003F033FE4FEAD00B030B38
:1012B00080467E484FEACB5280184FF000015941DA
:1012C0007B4A002306F0B2F87A4B18604EF6602095
:1012D00003F04EFDDFF820C24042CCF82C006B48F2
:1012E000CDF80CC000F0ECFE024643084FEA8B300C
:1012F000C0184FEA585141F10001002306F096F85A
:10130000DDF80CC05146CCF804006B4803F046FDF4
:101310006A4BC7F800316A4AA3F52003C7F81031B9
:101320004FF4002315703360664BD3F8C81041F0BA
:101330006C008842164640F0B982D9F80C20D707D5
:1013400000F1B482D3F81031C3F30823002B40F02E
:10135000AD82EFF3108072B65B4B5C4A9F69A3F5D8
:10136000C0434FF06055D3F88410156002F100724D
:101370004FF0006515602422C3F88420544A0425E8
:1013800015604FF480429A664FF480525A62514B76
:101390001A6E5504FBD51A68D405F8D54FF480426F
:1013A0009A66DFF858E1D3F888501C954FF0040C8A
:1013B000CEF800C0C3F8841043498F619A6604F0E8
:1013C000F7FBADB24FF605034FF60402954208BF96
:1013D0001D46324B9D65012333703F4B3F4D1868CE
:1013E00003F0F0FD002148223D4806F05DFB394A3C
:1013F0003C4960230620536408600021C2F8841031
:10140000394A4FF08051116002F5FC5204324FF41A
:10141000001111604FF060511160164A40F6FF71E3
:101420005162516502F1C062A2F6BC7213602F4B8B
:1014300040221A60D5F88C0000F0DAFB03F01AFBAA
:101440002B4BD3E900015BE05C1F00217C000844CA
:10145000081000209549000030100840B80D002009
:10146000B80F0020141000207C06002090100840C7
:1014700040000844001008400C40084400040600E6
:10148000C8400E460011010020A1070040420F0095
:10149000900D0020880D0020B40D00200050084061
:1014A000AC0D002000E100E060510700B2E60E0044
:1014B00065CD1D00F4110020140600200300C000BB
:1014C0000C12002000400E400060084018600844E4
:1014D000004008460000084048000020E0050020C9
:1014E0000C1F0021700008449440084488400844C0
:1014F00050140020004008408C1F00210040084488
:1015000040F0805041F00401C3E90001B14B1A687A
:1015100003F006FB03F094FA2B46FFF7BCB8AE4B82
:101520001A689B88A380226001F06EF80A20414669
:1015300000F0ECFF2378022B13D12B6823F08043BB
:1015400023F0170343F080432B60A44B4FF4EE428B
:101550001A6003F100734FF48A421A6043F8046C76
:1015600024E0012B2B689E4A9E489F4923F080432C
:1015700023F017030CD143F003032B600723136000
:1015800006230360994B0B604FF44042984B0CE0EC
:1015900043F0804343F004032B60072313600523CB
:1015A0000360C0230B60934B81221A60002001F07E
:1015B0002BF8914B03221A6000F076FFFFF7F0B88A
:1015C000B7F80720B7F805308C4900924FF48040F7
:1015D0008B4A05F02BFAB7F805401FFA84FA5046FB
:1015E000264604F03BF9002843D0047A4768854931
:1015F000CDF800A0022C14BF4FF0020B4FF0010BEE
:101600005B464FF48040804A05F010FA052389F8C4
:10161000003089F801B0A9F8026010E0BDF816406A
:101620007A4A009433464FF480407949099F05F087
:10163000FDF9784B09221A70A21C5A705E800320B3
:1016400014E0BDF81640744A00964FF480404B46B3
:1016500001947249099F05F0E9F96E4B11221A7045
:10166000221D5A70A3F802909E800520394622461A
:1016700068E46B4B5C800A2450E44FF48040694975
:10168000694AB7F80530DFF8B49105F0CFF9B7F83B
:10169000050004F0E3F828B1037B99073FF529AC76
:1016A000022400E001247B68C3F30F236B8034E441
:1016B000BDF824605D495E4A109F4FF48040334678
:1016C00005F0B4F9534B0B221A70204639463246C6
:1016D00038E401247B68C3F30F236B801EE4DFF83A
:1016E0005C91B7F80500224609F1070100F023F9E3
:1016F000044610B1D9F80430EDE74FF480404D496D
:101700004D4A05F093F9434B13221A7020462146A7
:10171000224617E4B6F80720484CB6F8053037499A
:1017200000924FF48040464A05F080F904F1090325
:1017300010938DF844B00023B6F80500B6F80710F2
:101740000093019310AB0CCB04F0AEF84FF6FF738F
:101750009842064638D02B8809A9043B0DF11602A1
:10176000ADF8163000F0C0F8044600283FF456AF3C
:101770002B4B5E80FFF7D1BBB6F807202F4CB6F895
:1017800005301E4900924FF480402E4A05F04EF974
:101790005FFA8BFBB6F80500B6F807108DF844B079
:1017A00004F1090C0026CDF840C00096019610AB5C
:1017B0000CCBCDF808C004F077F84FF6FF7A50450F
:1017C0008146DDF808C03FD16368C3F30F236B8007
:1017D00051E700BF48140020927B000024410844D8
:1017E0000C4108440C41084608410844C10040002F
:1017F000044108440841084658410844998F0000B4
:10180000107C00008A8E0000647B00004A9000007B
:101810000B8F00004D090020D27C00002F8F0000AC
:1018200050040020B78F0000B97C0000FC8E00003F
:101830009A7C0000298F0000C17C00003402002047
:10184000ED7C0000448E0000CDF838C00096019673
:101850008DF83CB009F101000EAB0CCB514680B2C3
:1018600004F022F82B8850450646A3F1060318BF62
:1018700000F1FF3609A948460DF1160218BFB6B2AD
:10188000ADF8163000F030F8044600283FF4D9AE29
:10189000084BA3F80290FFF740BB0624FFF73EBBBE
:1018A0001C46FFF73BBB0424FFF738BB142000F0B5
:1018B00097FF90E55004002070B586B00E4615469F
:1018C000044618226846002106F0EEF80134054B64
:1018D00000930420694601940296039504F0ECFB02
:1018E00006B070BD4D09002037B50D46144603F013
:1018F000B5FF38B10369828AC3B14FF6FE718A42DF
:1019000014D101E0012014E000200090ADF80400A3
:101910006946984768B9009B2B60BDF80430238066
:10192000286808B9208004E0002002E02B602280B3
:10193000F6E703B030BD37B50D46144603F08EFF11
:1019400038B103693BB1818A4FF6FE72914202D1F0
:1019500003E0012007E00E2005E00095ADF804400B
:1019600001206946984703B030BD0000224B1A7829
:10197000D00742BF214A4FF4806111601A78910765
:1019800042BF1E4A4FF4006111601A781B7852075B
:1019900042BF1B4A4FF480611160180742BF184BC9
:1019A0004FF400621A60174B4FF480621A60164BB6
:1019B00000225A61643B1A68910642BF134A4FF4F1
:1019C000807111601B681A0612D59B0610D5104A4B
:1019D000136AC3F30803032B0CD95168D36803338C
:1019E000C3F308030B4403F100531A78094B5A6000
:1019F00000207047032070474C090020A0000846D3
:101A0000A40008461C6008445C1F0021884008466A
:101A100000100840FC1E002137B58DE80600044682
:101A20009DE80300251D85E805002373069B2361BF
:101A3000BDF81C30A38200232360084B1A682AB12A
:101A4000116809B10A46FBE7146000E01C60988841
:101A5000013080B2988003B030BD00BF540900202F
:101A600037B500F1440300930379114A0446033368
:101A7000019306CA02231430FFF7CEFFE2680092FA
:101A8000228A237A019204F12C0094E80600FFF7E1
:101A9000C3FF237AA4F84500054684F8443004F1D6
:101AA00047002168227905F09FFF284603B030BD2A
:101AB000A890000007B502680092064B02790192D7
:101AC000083093E806000223FFF7A6FF03B05DF895
:101AD00004FB00BF8890000070B50D4C0D4B06460E
:101AE0000D4694E80300083483E803001846FFF726
:101AF000E1FF94E80300084B83E803000222DE6064
:101B00001D821846BDE870401A72FFF7A9BF00BFDA
:101B10006C9000005C0D0020F40800200A4B40F29D
:101B2000011210B51A604FF0FF329A6001225A601C
:101B30000844814204D0044A11F8014B9461F8E74B
:101B4000D869C04310BD00BF00C00140C0F30323EB
:101B5000013B10B50446092B36D8DFE803F020100E
:101B6000083505131635191D0022184B19E01848C1
:101B700004F0BEF804F0D8F90022164B11E0002260
:101B8000154B0EE00122154B0BE01022144B08E020
:101B90004FF48032134B04E00022134B01E0134B4F
:101BA0000022C4F3043442B11049D1F84401C00703
:101BB00003D4D1F840010242FBD103F1047304EBDA
:101BC000C3039B0001221A6010BD00BFB0400E404D
:101BD00000050800B8400E40C0400E40E0400E40F6
:101BE000E8400E40F0400E4050410E4000400E4094
:101BF00010F0080F14BF1E4A1E4A082310F0010FF0
:101C0000136014BF1A4A1B4A012310F0040F13601B
:101C100014BF194A194A4FF4007310F0020F1360F1
:101C200014BF134A134A0223136010F0100F144B11
:101C300000F0600014BF00221B224028DA64114B20
:101C40000FD0602803D020280ED101220DE00E4ACB
:101C5000D2684AB11168012906D9526942F00102DD
:101C600003E040F2011200E000221A6100207047F8
:101C700044000846440008441C6008461C600844B0
:101C8000000008405C1F0021EC1F0021F8B504286B
:101C900000F2A380DFE800F008030F2B9C008025F2
:101CA00040240623072226E04FF400754FF4807489
:101CB000082309221FE000297FD0484A536A13F005
:101CC000300F0BD1464BDB6B536AD9070AD5536AE9
:101CD00023F0300343F01003536203E00322022396
:101CE00004240AE0032202230424012506E001243F
:101CF000022500232246002961D0002537490C66C1
:101D00003849194489000B68002BFCD0354F174423
:101D1000BF003B68002BFCD002285ED1002D5CD0B8
:101D20002E4B5A6A12F0010F1A4618D04FF48062F7
:101D3000C3F8A82020225A665B6A13F0300F0CBF4C
:101D40004FF440034FF400032449D1F890201A4087
:101D50009A42F9D15B020DD5D1F8A0300AE0536A5E
:101D6000D2F8903003F44003B3F5400FF8D11B4B89
:101D7000D3F8A030194E02200021D6F89C50FFF76E
:101D800085FFD6F89030736A174A23F0300343F08A
:101D900010037362336B1A40C5F30A03C5F3C3150E
:101DA0001A43EB1C0F2B28BF0F2342EA0373336344
:101DB00034663B68002BFCD0F8BD08250223074A97
:101DC0001566084A1A4492001368002BFCD1F8BD2E
:101DD00020251024042305228DE7F8BD00400E4085
:101DE00000300E408004F21000F8FF0F70B5134C65
:101DF0002268A2F17E63A3F58433B3F5804FE0B08F
:101E000005460E4607D2126BA2F17E63A3F584331A
:101E1000B3F5804F02D34FF401700DE0536A0020F8
:101E200069464FF4C072984730B923681B6B684607
:101E3000DB6A29463246984760B070BD2808E10F3A
:101E40000F4A0B461168A1F17E62A2F58432B2F509
:101E5000804F30B505460FD2096BA1F17E62A2F525
:101E60008432B2F5804F07D20C69064A2946A4464F
:101E70000020BDE8304060474FF4817030BD00BFA6
:101E80002808E10F5C09002010B51A4C2268A2F165
:101E90007E63A3F58433B3F5804FE0B010D2136BAB
:101EA00073B15B6A002069464FF4C0729847F8B975
:101EB0002268A2F17E63A3F58433B3F5804F02D389
:101EC0004FF4017014E0126BA2F17E63A3F584332A
:101ED000B3F5804FF4D2936A68460021984740F2E8
:101EE00001239842E4D040F20323984208BF002027
:101EF00060B010BD2808E10F042806D80138032877
:101F000006D8DFE800F00202020200231B78FFDEA1
:101F100070470000174BD3F88031032828D8DFE83A
:101F200000F00204070ADBB206E0C3F3072303E074
:101F3000C3F3074300E01B0E59B91B0313F4702FC2
:101F400016D10D49CA6E22F470421343CB660120AC
:101F500070470129FBD11B0313F4702F08D10648E9
:101F6000D0F8EC2022F470421343C0F8EC30EEE7D6
:101F700000207047B081E00F00300E4010B5EFF345
:101F8000108472B60B4A0C4B0C4990691B78096897
:101F9000DBB209B9002103E0013390690021DBB213
:101FA00004B962B6034A126B03F003030132E3FB88
:101FB000020110BD0050084004100020880B0A43A5
:101FC00070B5264A1378032B46D0254C23685A282F
:101FD00023F47F51C3F3873321F008014FEA8313C1
:101FE0000BD95588B5F5E16F09D8C82843F6C876EE
:101FF0008ABF01250025334604E0002502E00125C3
:1020000043F6C8730B431E2823604FF0010303D827
:10201000144A136093611CE0134950280B608B61D4
:1020200017D95388B3F5E16F01D8782811D90F4A31
:102030004DF601731360002D936102F1007214BF1D
:102040004FF457434FF45043136093610822084BF9
:1020500001E0084B08221A6070BD00BFFC1100208F
:10206000E81F00210841084408410846044108448B
:102070009440084694400844084B094908221A60D5
:1020800001221A600A6040221A6020221A6010227F
:102090001A6004221A6080221A607047C8400E46F7
:1020A000CC400E46044BD3F89430002BBCBF034BFE
:1020B000C3F88000704700BF00400840000008409F
:1020C000084B1968084B30B51B684FF000440025D9
:1020D000E3FB00452A460023E1FB00231046194696
:1020E00030BD00BF900D0020880D00202DE9F04F7D
:1020F00085B00446FFF742FF824620468B46FFF735
:10210000DFFF214A136BD268D20704460D4638D54B
:102110005B0818460021CDE90001DDE90023AB4250
:1021200008BFA242CDE9024501D2CDE90223FFF763
:1021300025FFB0EB0A0661EB0B07594508BF504578
:102140000FD2114B1A6B0023013243F100034FEA07
:1021500083094FEA820849EA927916EB080647EBB1
:102160000907DDE902239F4208BF9642DFD3AF4251
:1021700008BFA64205D2A41B65EB070582468B4625
:10218000CBE705B0BDE8F08F005008402DE9F04FD7
:102190008BB099469DF85030079305469046EFF373
:1021A000108A72B6A24A030113440124079A0693C7
:1021B0001C604FF4807B9F4B0BFA00FB022AC3F894
:1021C00064B01E4600F05F81FFF7D8FE079B012B2D
:1021D000CDE9000109D118F1010849F1000910EB1E
:1021E000080241EB090390469946306B0021421CDE
:1021F00041F10003CDE9022303998B00029943EAE0
:1022000091738A00994508BF904504D3B8EB020842
:1022100069EB0309F6E7DDE90001B0EB080061EBCB
:102220000901CDE90801DDE90001494508BF404544
:10223000CDE904890FD27F49086B0021013041F1BB
:1022400000018F0047EA90778600DDE908018019D8
:102250007941CDE90801900840EA83709908DDE9E9
:102260000823994208BF904204D3504603F0A0FCD3
:1022700000200CE16F49086F41F61F7405F1090356
:102280000440C86E6C491A021B0642F0010201406C
:1022900043F4803394420CBF042400249942654BDC
:1022A000D96E41F61F7308BF44F0020403EA01032C
:1022B00008BFE4B2934208BF44F0010414F00103E4
:1022C000089302D05D4BC3E90089022D02D15C4B1B
:1022D000C3E90089DDE90001DDE90023B8EB000076
:1022E00069EB0101994508BF90450BD2514B1A6B20
:1022F0000023013243F100039F00960047EA9277E2
:1023000080197941DDE9022305F090F84D4BC0B208
:102310005855DDE90423DDE90267BB4208BFB2423C
:1023200009D3DDE90467DDE90223B21A67EB030391
:10233000CDE90423EDE778B1089B1BB1424B41F690
:102340001F721A60A00742BF3F4B3B4A1A606107E9
:1023500042BF384B00221A673C4B364E2A011344C9
:10236000049A5A60DDE90001DDE9022305F05EF818
:10237000039B029A434301FB0233A0FB0201194471
:10238000DDE9042312184B41CDE9022305F11003C6
:102390001B011122F250FFF7F1FDDDE90089DDE9B3
:1023A0000023B0EB080861EB0909994208BF90428D
:1023B0000CD2326B0023013243F1000399009000EC
:1023C00041EA927118EB000849EB0109DDE90023AD
:1023D000DDE90267B61A67EB0307DDE90001DDE915
:1023E00002238B4208BF82420BD2124B1A6B00238E
:1023F000013243F100039900900041EA92713618CE
:102400004F410C4BB94508BFB045DA6D3BD31BEAD1
:10241000020F38D10B4A525D012512B1C3F860B0EA
:1024200031E0079AA2B9069A1560C3F864B01CE7B8
:10243000005108440050084000001F1F800D00207C
:10244000A00D00200D1000206C50084408510840D9
:10245000C3F860B0089B43B10E4B0F4941F61F72A1
:1024600040F201101A6008601A60A20706D5094BF5
:1024700009490A4A0A481A6008601A60630742BF9D
:10248000084B01229A60504603F092FB01200BB0EA
:10249000BDE8F08F6C5008446C50084600001F1FC8
:1024A000000001010040084008B502F043FE013879
:1024B000114A1249124B082819D8DFE800F0051814
:1024C0000E0E1111151515000E4800781160012827
:1024D0000CBF4FF0441244220BE01160002208E0D0
:1024E00011604FF0331204E01160A22201E011608C
:1024F000054A1A6008BD00BF50410844F701F701C2
:1025000050410846FC110020A200F700F8B5384BF6
:10251000384A002808BF01201860374B9B69C3F375
:1025200082131370023BDBB2042B05D8012202FA9E
:1025300003F313F0130F08D1304B1B78022B06D096
:10254000012B0CBF3222B42202E0002200E09622CE
:10255000002302FA03F442F2107564116C43284D13
:10256000B4FBF5F4844202D80133102BF1D1224898
:102570001204C0F8BC20234A40F6FF741460013BEB
:1025800002F100721B021360D0F8BC20D0F8BC30FE
:10259000D0F8BC50D0F8B8E0D0F8B860D0F8B87037
:1025A000164CC6F303100EF00F0EC3F30723D2B27E
:1025B00002FA0EF28340C7F30327C5F3074542F240
:1025C0001070BD405B1152110D4E43434243B3FBAB
:1025D000F6F3B2FBF6F26D1113446843B0FBF6F06C
:1025E000034408460121A38002F0D8FBA088F8BD6F
:1025F000940D00202100002000600840FC11002004
:1026000000DC0500B8600844F8B50446C820FFF7B0
:10261000D7FC444B444F1A78032A02D1FF243C7064
:102620007DE0012A414911D1072C03D8012C08BFB4
:10263000022400E007240A683D4B134043EA046388
:102640000B603C4B04221A60A4B263E00A6822F0DB
:10265000F95222F4FE1242F47F5242F008020A605C
:102660001E782EB9042C05D9043CE4B2012502E001
:10267000002500E03546304BD3F88831DB4303F4C6
:10268000FE1343F40053B3FA83F3C3F11303C3EB14
:102690004313DBB2A34228BF2346DBB29CB226B968
:1026A000002D0CBF0020042000E00020044423483B
:1026B0001BB9234EC0F8586105E04FF0E066013BBE
:1026C000C0F85861DBB21F20B3FBF0F0C0EB40163E
:1026D0009B1B1B0603F18073C0B213430130012220
:1026E0008240013A43EA82320A60144AD2F85831F1
:1026F00034B123F07F4323F0040343F07F4300E031
:10270000104BC2F858314FF480030DB10E4A00E06F
:102710000E4A1360E4B220463C70FFF751FC20469D
:10272000F8BD00BFFC11002020000020E81F0021A0
:102730003F00C0E05841084400400E4000400840BF
:102740002C0000070400000708410846084108441F
:10275000094A0A494FF48033C2F8E8300B60916BA4
:10276000074BC9B29961926BC2F307229A610422A6
:102770009A6100229A61704700100840EC100846E8
:102780006010084010B5EFF3108072B60E4A0F4982
:102790000F4C01239365C2F8883000230B604C6016
:1027A00003244C620B490C800B490B804FF4A02191
:1027B000C2F8E81002F1C062EC321160074ABDE8CD
:1027C0001040136003F0F4B9001008406010084096
:1027D000BC0F0020B80F00201410002000100020B3
:1027E000034B044A18601860034B12681A60FEE736
:1027F00018000020980D002014000020431E012B1B
:1028000003D9031F58425841704701207047000008
:102810002DE9F04F754F764A3B68D2F8008087B0BB
:102820000446019363880093656A019BD4F8209065
:10283000039200209D428DF816000E468DF8170079
:1028400004D11DB1009B994200F0CD80B9F1000F79
:1028500000F0C480D9F80820002A00F0BF80D9F821
:102860000C20002A00F0BA804FF0000BD9F80C20A1
:1028700093451DD2D9F808204FF0180A0AFB0B2AFD
:10288000BAF80E20B24210D8BAF81020B2420CD3D7
:102890000125204651468DF8175001F019F818B15E
:1028A0008DF81650554603E055460BF1010BDDE758
:1028B000504A1178504A13789DF816200293A4F1DB
:1028C0000C0B12B12046217911E09DF81720002A47
:1028D00000F08680B5F9122047F6FF70824204D0DE
:1028E000584603F0D9FF014600E0FF21204601F0E1
:1028F00097F9B8F1000F31D0C84524D1D7F800A01E
:10290000BAF1000F1FD0AA451DD1009BB34204D1DC
:10291000C4F824A06680002065E02A46204631469F
:10292000002301F02BFA05460028F1D00299204639
:1029300001F076F92D4B00991A682046002301F02A
:102940001DFA28464FE0D8F800203AB1D9F8001017
:102950008A4203D12046D8F8041002E0D9F80010CA
:10296000204600F0FBFF8246C8B92046296800F0E7
:10297000F5FF824698B9039B6562C3F800906680B4
:10298000204631462A4601233D6001F0F7F9824690
:1029900028B91A4B58461B682946984722E0039BE2
:1029A000C3F80080019B3B60B8F1000F04D02046C3
:1029B000D8F8001000F0D2FF2046029901F030F95B
:1029C0003B687BB11968204600F0C8FF074B0099AF
:1029D0001A682046002301F0D1F903E0032002E049
:1029E000012000E0504607B0BDE8F08F8C0D0020BC
:1029F0007C0D0020FC110020200000201C00002085
:102A00002DE9F04FBC4C8BB04FF4867011469B46BD
:102A1000924603F0C5FF2369A0462BB94FF483709B
:102A2000514603F0BDFFDAE1BBF1000F08BFBAF178
:102A3000080F40F0CA804FF48170002103F0B0FF0E
:102A4000EFF3108672B6AD49AD4BB1F800E0AD4C76
:102A50001F6804910EF03F0202F03C0020440593F1
:102A6000DFF8C49247B9B9F800307344033B03F070
:102A70003C0303EB040B01E027F0010BC2EB0B025C
:102A8000171BB9F8002048BF4037974219DA834531
:102A90009D4803D1C26B1FFA82FA08E0ABF1040231
:102AA000A24238BF0BF13C021288C2F30C0AD0F8E4
:102AB0008000C0F30C00874219DABBF80000010463
:102AC00001D5304658E09BF8027007F00707CAEBC3
:102AD0000005052FC5F309051BD902F0A7FB281A2D
:102AE00085B22A0415D50420FFF77AFE11E0864846
:102AF000856B00F54050CAEB0505C5F30905406834
:102B000035B9C0F3036003280CBF0827002700E095
:102B100008277E4BCAF3080003443046ADB2029347
:102B200003F046F8BBF1000F2ED07B070CD0EFF37B
:102B3000108072B67649774AC1F800B076491580A0
:102B4000A1F800A003F034F8BBF1020F00F284807A
:102B5000EFF3108072B6049B1F8807F03F026CD021
:102B6000684BC2EB0B02B2EB030AB9F8002048BF76
:102B70000AF1400A924502DB03F01AF804E003F080
:102B800017F8BBF1000F67D1019B0693D8F804300A
:102B9000039A5B7A8DF81C309DF800308DF81D305B
:102BA0009DF81E30ADF8205062F300038DF81E3002
:102BB000029B09930220D8F8103006A99847D8F84C
:102BC00000000C3001F00CF809E1BBF1000F08BF68
:102BD000BAF5002F07D140F20110002103F0E0FE0A
:102BE0002369012026E00AF4C0520023134308D0D1
:102BF0004FF481704FF4807103F0D2FE23690320FB
:102C000018E00AF440720023134302D04FF481709D
:102C100006E00AF020720023134303D040F20110B3
:102C2000012102E04FF48370514603F0B9FED8F859
:102C30001030FF2000219847D1E0059B196841B969
:102C4000B9F800303B44033B03F03C0304EB030BB7
:102C500086E721F0010B83E7BBF800909BF8023078
:102C600019F4004F90D103F00703052B8CD9DF1F17
:102C70007B427B41039302F0D9FAC4B2002C00F0EE
:102C8000AA80214B1B6B03F00703063301279F40EB
:102C9000A9F106017B1E89B21940204B5B687F1A9F
:102CA00043F00059BC4206A8494407D93A4604F00B
:102CB0009BFE06ABD8194946E21B00E0224604F011
:102CC00093FE9DF818300093154B9DF81A70D3F8B9
:102CD0000090144B9DF81BB0D3F8F8109DF81C40E1
:102CE0009DF81DA011F0010120D002F02BF8461C28
:102CF0003FF44AAF002120E0D8110020141000203A
:102D000000100020BC0F002000100840B80D00206B
:102D100020100020A80D0020B20D00203010084027
:102D2000980D002000600840B80F0020049102F0C8
:102D300009F8411C3FF428AF049902F063FA4042BD
:102D4000EFF3108672B6274A274BDFF8ACE09169A3
:102D50001B78DEF800E0DBB2BEF1000F02D00133D9
:102D60009169DBB206B962B6220442EA0A623A43CA
:102D700042EA0B2291423CBF03F1FF33DBB203F086
:102D80000304184B196B00230131E4FB012317499D
:102D90000968A2FB016701FB03771549D9F83430B4
:102DA000096816F1004647F10007BA46A2FB016721
:102DB000104AD2F8F82016EB0A06D20748BFD9F815
:102DC0003830304403F5FA734FF47A76B3FBF6F3F8
:102DD000C31A0193D8E680238DE81800D4E60BB01F
:102DE000BDE8F08F0050084004100020AC0D00201A
:102DF000B40D002000600840880B0A4308B54FF46A
:102E00008570002103F0CCFD064B002201201A61E1
:102E10000146024600F0BCFC00F02AFF0128FBD16D
:102E200008BD00BFD8110020012838B516BF012405
:102E300002252546284608BF0424FFF7DFFC78B1A9
:102E40000120FFF7DBFC58B100F012FF42075FBF23
:102E50000E4B188840F0807040EA054058BF18605B
:102E60002046FFF7CBFC78B10120FFF7C7FC58B133
:102E700000F0FEFE83075FBF044B5A8844EA024419
:102E800044F4807458BF1C6038BD00BF081F002187
:102E900038B5B1F5007F0F4B28BF4FF40071032206
:102EA0001A600D465860EFF3108072B6D3F8E02038
:102EB0001C4612F0040F4FF00001D9609D6004BF62
:102EC0000423C4F8E83002F073FE0DB10223A362BC
:102ED00038BD00BF001008402DE9F843434D477A44
:102EE0002C686860227BD60790E80A0043D593FAE5
:102EF000A3F33F4A3F4E1B0A1361012393603166DF
:102F000011F0010FF26D14BF5523AA2322F00F0216
:102F1000552B0CBF42F0010242F00202F26591FA19
:102F2000A1F193FAA3F3344A4FF0FF36166002F191
:102F300000721B0F116002F17E420C324FF0F04123
:102F4000116002F10072DB0613602C4B442247F043
:102F50004007DA621F6303F18063343307221A608B
:102F600003F1007301221A60254A4FF48043136075
:102F700053609360D360AB8AD90535D5214B067A6F
:102F80001A78B24299462FD0012E04F10C0802D0D3
:102F9000022E12D024E0237BDA0721D500F068FE50
:102FA000012806461CD11849404600F0ADFC84F8C3
:102FB0003C6004F13400022110E0237BDB070FD5D5
:102FC00000F056FE012807460AD11049404600F09D
:102FD0009BFC84F83C7004F13400314601F0DEFEC5
:102FE0006B681B7A89F80030BDE8F883D81100209F
:102FF0000020084000600840FC60084400000840D1
:10300000A0000844B00D002098930000D09000006C
:103010009A4B2DE9F74F1A6EDF6E17409F6603F546
:103020008053D3F8E020D3F8EC601640C3F8E86092
:1030300003F5A043D3F80022D3F80C1201EA020AE8
:10304000C3F808A2A3F500535A69196A01EA0208F5
:103050004FEA18421204DA61894BD3F80022920039
:1030600004D4D3F80031C3F3407303B3EFF31080FB
:1030700072B6844BDA6812F0060FDA6D996E01EAC7
:10308000020929F4800222F4006214BF4FF0010B00
:103090004FF0000B19F0040F5A661FBF7A4A1378DD
:1030A0000133DBB218BF137002F082FD01E09B46D2
:1030B0009946002F3FD03D0413D5744B7449D3F883
:1030C0008830A02003F4E0520A600860102041F824
:1030D000880C42B1DC0409D458050AD44FF400042A
:1030E00009E0002407E04FF4002404E04FF00074EE
:1030F00001E04FF40014B9074FF0000515D5634BFC
:103100006349D3F8883003F460420A6012B944F48A
:1031100080140AE01A0402D544F0806405E09804A3
:103120004CBF44F4800444F0807417F4005F0CBF7B
:103130000027022701E000240025564B3340002BD6
:1031400054D016F4206F07D0002002F00FFF0620A5
:1031500026F48026FFF744FB16F0090F09D04B4BED
:1031600020229A60A3F5405301229A620820FFF7BB
:1031700037FB16F0106F19D0444B20229A60464A54
:103180000123C2F8B8300192EFF31083009372B6B6
:103190000020FEF7B1FE009B184602F009FD019ADF
:1031A0000423C2F8B8300920FFF71AFB16F4202FC9
:1031B00007D0002002F0DAFE072026F48026FFF771
:1031C0000FFBF10312D5354B4FF480321A60324BAE
:1031D000C3F8E420D3F88020C2F30C023C2A05D8BF
:1031E000D3F8E030DA0301D5FFF7B2FA73070BD555
:1031F0002B4B1A684FF4005322B12A4A44F480241E
:10320000136001E0284A1360700548BF44F00404CD
:1032100016F4802656D02549254B0A881B88254858
:103220001344043292B2033B0A8003F03C03224968
:1032300003444A629A7802F00702042A03D1134930
:1032400049680903FBD41D490B60531E062B05D8A2
:10325000DFE803F0080B080E113636000320FFF7F5
:10326000BFFA2FE044F400542CE044F4806429E0D9
:1032700044F4007426E044F4807423E00000084025
:1032800000E100E000500840041000200040084029
:1032900088400844090A0B0900100840EC10084453
:1032A000B40402432410084424100846B80F002038
:1032B00014100020BC0F00206010084000100020F7
:1032C00044F00804BAF1000F1DD01AF4805F18BF53
:1032D00044F400441AF4807F18BF44F480341AF494
:1032E000005F18BF44F010041AF4007F18BF44F0C8
:1032F00020041AF4806F18BF44F040041AF4006FE1
:1033000018BF44F08004B8F1000F30D018F0007FEF
:1033100018BF47F0080718F0806F18BF47F0100774
:1033200018F0006F18BF47F0200718F4802F18BF5F
:1033300045F0040518F4803F18BF44F4006418F405
:10334000801F18BF44F4804418F4001F18BF44F0D5
:10335000020418F4002F0AD0974B5B68C3F3036391
:103360009A1E012A01D9072B01D144F40034B9F186
:10337000000F00F0E38019F4006F21D08F49904ACC
:10338000CB7883B1013B4FF40060DBB25066CB7069
:10339000B3B98C4B197840F6014381B102F1C06298
:1033A0006C3213600CE088490120086087484FF4B4
:1033B000006141F61F7E5166C0F800E05166136758
:1033C00019F0007F04D02B20FEF76CFE44F08044FF
:1033D00019F4E00F06D119F4805F00F09D80BBF175
:1033E000000F54D019F4001F04D02920FEF75AFE14
:1033F00044F0005419F4800F16D0754BDFF8C0A1CB
:1034000001221A604FF48053CAF864302720FEF777
:1034100049FE704BA0221A60102243F8882C4FF40A
:103420008003CAF864302FE019F4801F0CD0684B79
:1034300001221A60624B4FF480525A662820FEF730
:1034400031FE44F0006467E019F4805F64D0604BA3
:10345000DFF86CA14FF0010BC3F800B04FF48053BC
:10346000CAF864302220FEF71DFE4FF48023CAF80C
:103470000430DAF85C3013F4A00F4DD12A20FEF7A7
:1034800011FE554BC3F828B044F0805444E04B4A39
:10349000137943B1013BDBB2137113B94F4B504A5F
:1034A0001A60002235E04A4B01221A60444B4FF467
:1034B0008051596644490A604FF400625A66494A8D
:1034C000DA66EFF3108B72B6474B1B780BB101F045
:1034D0001DFC414B384A1B6D5268C2F30362032A3C
:1034E00002D0C3F30C0333B1404B1A78404B4FF07A
:1034F000010A1A7000E09A46584602F059FBBAF1E8
:10350000000FCED13B4B83F800A001F0D9FA4FF465
:103510008052002314431D4319F4806F0ED0274AB4
:1035200093781BB1013B9370002306E0324A0123DC
:103530001360234A4FF4806151661F432F4BDFF81D
:10354000D090D3E900012E4B1A6820400123294076
:103550003A4089F8003000F003FD002389F800307C
:10356000002E00F0AB80274C2368002B00F0A480D5
:10357000D80700F19F80EFF3108572B62248234AE6
:10358000018801F03F0101F03C07022B174406D1EE
:103590002368002B00F08B8023F0010302E0012B55
:1035A00008BF3B46266826F00106B34232D1154AD1
:1035B0000021116037E000BF004008400D100020DE
:1035C0000050084012100020305108446C5008444C
:1035D0004051084488400844001008406C50084698
:1035E0000000010D00000101FD0F00201610002059
:1035F0000C100020FC0F0020205108445014002023
:10360000481400200010002014100020BC0F0020DF
:103610004C140020591A8A1A4749098848BF403279
:1036200004398A4243DA1A886FEA42426FEA524208
:10363000BB421A8034D1404EB0F8009037883A46E9
:10364000043A92B2DFF810C109EB0701891A1FFA98
:1036500081FEACF1400A191D614528BF5146042A7C
:1036600011D899781B883280344EC3F30C03F3636E
:1036700001F00701324B0EF07F0604290680DE6060
:103680005A620DD106E0B1F900C0BCF1000FE8DAD2
:103690000B46D5E72B4B1B6803B1984701F05AFD49
:1036A000264BD3F8E030D90301D5FFF751F828466F
:1036B00002F07EFA0023236001F006FBB8F1000F50
:1036C00036D018F0007F21D01F4BD3F83821D20616
:1036D00055BFD3F80021D3F8182122F47F1122F42A
:1036E0007F1155BFD3F80021D3F8182102F47E12C0
:1036F00002F47E1255BF41EA520241EA5202C3F877
:103700000021C3F818214FF00072DA6118F0006F41
:103710000ED00D4BD3F8383113F0100F0CBF0B4AFD
:103720000B4A4FF4001313600A4B4FF000621A600B
:1037300003B0BDE8F08F00BFB80F002000100840B4
:103740006010084008100020004008400041084474
:103750001841084420400844FC0F002038B5094BAC
:1037600004221A601C46084BD3F888305B0307D547
:10377000064B04251D600220FEF7B8FC2560F2E729
:1037800038BD00BF884008460040084088400844D3
:103790002DE9F04781460F461646EFF3108872B6C2
:1037A0003E4D91B9A0232B603D4BD3F83021D20779
:1037B0001AD53C4901220A604FF4006159663A4922
:1037C0000A604FF480525A660EE0FFF7C7FF374B8E
:1037D00001221A6004232B60354B5B6813F0706F75
:1037E000E0D001F0B7FCF7E72D4C324BE366002345
:1037F0002367FFF7B3FF304ADFF8B4A0136843F044
:10380000400313602D4BFF221A604FF48073CAF8F7
:10381000083004232B60B9F1000F10D001F076FAC4
:103820002220FEF73FFC4FF4802363602023CAF878
:1038300008301D4B01221A604FF4805363663FB37A
:10384000304602F093FB1E4B01221A6006B31D4B5B
:10385000DA6E9A6603F580431A6ADA6103F500535B
:10386000D3F80C22C3F80822A3F54053DA6F9A6705
:10387000A3F50053D3F8EC20C3F8E82003F5C043C8
:10388000DA6B9A63A3F500530F4A5A6601F00EFAF9
:103890004046BDE8F04702F08BB900BF88400844BD
:1038A0000050084030510844405108440C4008463C
:1038B0000040084000000101F81E002100400844BB
:1038C0000C400844000008405000F002704700001F
:1038D00038B50B4BB1F912201D680A4B04791B78DF
:1038E00047F6FF718A4208D02846194602F0D4FFF5
:1038F00084428CBF0020012038BD012038BD00BFAC
:10390000980D0020FC110020F8B506460D4611B9AF
:103910001F20FEF765FF00233562736215B91F2073
:10392000FEF75EFFE86800214FF6FF73CAB28242DD
:103930000CD2AC68182707FB0242D4899C4201D202
:103940000CB904E01C4601312346EFE71C46304623
:103950002146FEF75DFF2046F8BD00002DE9F04747
:10396000924B934ED3F8A090F768D3F8A480044606
:1039700000F1280500294AD00A68531C47D0C2F339
:10398000026CDFF858E2C2F307405EF82CE093B215
:10399000012843EA0E030FD98C460246C1EB030E01
:1039A000E644013A5CF804AFCEF800A0F6D101EB92
:1039B000800101F1040A28E0120F01F1080A4868A9
:1039C000072A22D8DFE802F00D04080B0F12171D9A
:1039D000C04303F1806304E01A68504001E003F142
:1039E000C063186011E0FEF781FB0EE00122824007
:1039F00003F1C06303E00122824003F180631A6097
:103A000003E01A6802408242FBD15146B2E7FEF75A
:103A10004BFD684B684A9B691278C3F382139A4244
:103A200004D0664B29461868FEF770FD644801F023
:103A30006FFA824601F09EFB62495C4A43084FEAF6
:103A4000DA0A03EBCA13B3FBF0F008605368D8023C
:103A500015D45D4B1B68D2F8A820C3F38103581C12
:103A600012F48063D2B218BFC300FF2A08D04F4AB5
:103A7000D2F8AC20520503D503EBC00300E00023CD
:103A80008B604C4BD3F8842012F4E05F04BF2022FB
:103A9000C3F81022454BF668D3F8A010D3F8A42041
:103AA00049450AD049480378C1F3802E6EF30003DC
:103AB000C1F3C02161F34103037042450AD0434979
:103AC0000B78C2F3802060F38203C2F3C02262F35A
:103AD000C3030B70BE4261D03D4B3E4F36B13268DE
:103AE00022B1D6F808E0BEF1000F0ED1EFF310803E
:103AF00072B61A6822F007021A6002F059F8002321
:103B00003B607B607EBB334637E0334A0721116060
:103B10009EF804203A709EF8050090FAA0F1B1FAE0
:103B200081F2202A08BF4FF0FF32D1B2C84002F024
:103B30000F0242EA00127A709EF80620BA709EF8D0
:103B40000720FA70DEF800207A609EF804201749FA
:103B500001328A61EFF3108072B61A6842F00702F0
:103B60001A6002F025F833683BB1326922B1D0689F
:103B70001168538A526803E01346194618461A46DC
:103B80009BB2E26243F2C822934228BF13466063AD
:103B9000A16263872846072101F000F9237843F0EA
:103BA000020323700020BDE8F08700BF000008403A
:103BB000EC1F00210060084021000020940D00202F
:103BC000605107008C1F0021002008404C09002094
:103BD000F81E0021541F002104000844A096000094
:103BE00038B50C4BD3F8EC5003F18063EC334FF451
:103BF00080641C60084B0020186002F0B7F9074B86
:103C00004FF400521A606A0542BF03F10073983303
:103C10001C6038BD001008402010002054100844DB
:103C200008B590F86030032B04D00846FEF7ECFC92
:103C3000002008BD022008BD70B590F86030032B4D
:103C400005460E4611D02971416A61B1FFF740FE69
:103C500028B9686269882846FEF7DAFD03E028463D
:103C60003146FFF7DDFF002070BD022070BD00006F
:103C70001C4B5B6803F07063B3F1E06F30D010D879
:103C8000B3F1407F20D005D8B3F1807F28D0B3F1C5
:103C9000007F04E0B3F1806F22D0B3F1A06F17D1A1
:103CA0001EE0B3F1206F11D007D8B3F1006F0DD033
:103CB000B3F1106F0CD105207047B3F1306F05D010
:103CC000B3F1406F02D003E0032070470420704737
:103CD000054BDB6813F0060F14BF0420012070476A
:103CE00002207047004008400050084070B503783B
:103CF000990704463DD5426A002A3AD06FF3410342
:103D0000037053691B685A1C09D01A48D0F83C212B
:103D100099B2130C1B040B43C0F83C3170BDD0E9C1
:103D20001223002203F00403134304D1037843F069
:103D30000203037070BDEFF3108072B62569E3686B
:103D400005F480352B43E36001F032FF00220DB90A
:103D5000002300E00423D4E9120102400B4052EAA0
:103D6000030106D00449A4F10C000968BDE87040C5
:103D7000084770BD00400840380000202DE9F84396
:103D800098464369012B06460D46174600F09D8074
:103D9000FFF76EFF01280DD1BB897C68BF68ED1A63
:103DA000ADB23F2D10D9AA09BB0102FB034405F0B7
:103DB0003F0509E0002101200A46FFF7E9FCFFF773
:103DC00057FF0128FBD1E7E7554B1A68A2429946F5
:103DD00006D1544B1B68BB4202D1B8F1000F5DD035
:103DE00001F0A8F9804601F0A5F9002870D04E4BEB
:103DF000B3FBF0F39C426BD34C4BB3FBF0F084422B
:103E000066D8B8F1010F4FF0100300F08280484AE5
:103E10001360B8F1000F7FD0C9F8004004FB08F42C
:103E2000444ADFF828910023E004610B03F0FEFA16
:103E3000C9F82C00D9F830303E48C3F31303A3FB74
:103E400000014FEAC842002303F0F0FA3A4B394A26
:103E50001860344BF8041F60A0FB08017B0B08FBC3
:103E60000311002303F0E2FA344FC9F83C003B7819
:103E700023B9D9F8503003F03F033B70304BD3F8EF
:103E800094305A0628D401F0D3F82D4BD3F83831AA
:103E9000DB0654BF2B482C4801F094F83046FFF75E
:103EA00025FF274B5B68C3F30363042BF9D00A2B70
:103EB000F7D013B10F20FEF793FC244B9D6303F55D
:103EC000805380229A6001F0B3F80020BDE8F883A7
:103ED0000E20FEF785FC1FE01D4AB4FBF2F240F213
:103EE0004D5302FB02F14B434CF20C6101FB1233C8
:103EF00003F5C91303F555631BB92B20FEF770FCBE
:103F000001233978134A4A43B2FBF3F30F4A13658E
:103F1000B9E7114A13607FE70220BDE8F88300BFCC
:103F2000081200200412002000371789007DDAAC47
:103F30003841084600F04902F81100202410002002
:103F400000400840C0CF6A00E067350000300840FC
:103F500000366E0180969800384108440000000049
:103F6000774B2DE9F14F1746D3F8009072A3D3E9B0
:103F7000002302400B40134304460D4600F0AA8084
:103F8000704B00F4002A4FF0000BD3F81C115AEAD2
:103F90000B0318BF6C4B4FF0000200F4801A4FF077
:103FA000000B18BF83E806005AEA0B031CBF674BDF
:103FB00083E8060000F080520023134309D0644BCD
:103FC0001B6803F07F43B3F1007F02BF614B022205
:103FD0001A6004F00102002313435CD0EFF3108059
:103FE00072B65D49D1E9002322F00102C1E9002344
:103FF0005A4A012313605A4A936301F0D9FDEFF343
:10400000108072B6574A564B56689B68C3F38913A3
:10401000990544BF6FEA83536FEA93531FFA83F8FD
:104020005368C3F30363023B012B07D8C6F303664F
:10403000023E012E8CBF0026012600E0002601F082
:10404000B7FD0FFA88F313F5007F02D1002ED6D109
:1040500003E0002E08BF4FF47E4800210A46A9F86D
:1040600012800120FFF794FB3F4B4FF400121A60BF
:104070003E4B1A683AB13E496FF0FF00086001F10B
:10408000007102400A6000221A6099F80C3043F077
:10409000080389F80C30002205F00403134319D0FB
:1040A000A24625F0040BEFF3108072B6D9F81C502D
:1040B000D9F8183005F001052B43C9F8183001F084
:1040C00077FD00240DB9002500E0042544EA0A0428
:1040D00045EA0B05D9E9152314401D4054EA0503B0
:1040E00018D0244B2246196848462B468847164963
:1040F0004FF0FF334FF0FF32C1E90023134904F0C2
:1041000008040025C1E9002354EA05031EBF1A4B29
:1041100000221A60FB070BD5184A002013681060B4
:10412000174A012111701BB101B0BDE8F04F1847CB
:1041300001B0BDE8F08F00BF0100181004000000BE
:10414000980D002000500840300000204000002062
:10415000081F002100400846501400203C7008440D
:104160000070084000400840186008441810002003
:104170001870084438000020201000201C10002077
:104180002510002008B5244A2449254C03464FF445
:10419000006002F04BFC234A937E43F04003937689
:1041A000214B00221A70214B1B780125EBB102F044
:1041B00013F94FF0005340F20222A5601A804FF22B
:1041C0000F025A80236823F4E06343F48063236082
:1041D000BFF34F8F1649174BCA6802F4E0621343CE
:1041E000CB60BFF34F8F00BFFDE74FF00052A560DB
:1041F0001360236823F4E06343F480632360BFF318
:104200004F8F0B490B4BCA6802F4E0621343CB603B
:10421000BFF34F8F00BFFDE7E1960000F09600006E
:1042200000500E4040100020F01100209C10002093
:1042300000ED00E00400FA0510B5134CA37E5B0608
:1042400021D4FEF7DBFD2168A38C40F2E24202FBA1
:1042500003122260A17A94F84F2025200A4492FB91
:10426000F0F100FB1122A2722289013222816268E0
:104270000A2101FB03236360238B5A1E228313B997
:104280000820FFF77FFF10BD401000202DE9F04F00
:1042900085B0634C40F60100218902F081FBA37ECA
:1042A000C3F380122546002A40F0B78043F0010393
:1042B0005C4962F3410362F382030A68A3762389AF
:1042C0001AB18988994200D19047A37A56482B4465
:1042D000564D93F82A306375FEF7FEFD6B68544A1D
:1042E0005B7A2768666812F803900120FEF79CFD50
:1042F000D5F80080FFF7BCFC012804467FD108F107
:104300000C004946FEF784FA00287AD1B8F8483004
:104310007608B81BC01AFDF7D3FE804607F164008B
:1043200030448946FDF7CCFE06460F46EFF3108B6E
:1043300072B64049D1F8302112F0010255D13E4BFE
:10434000CB663E4B0A673E481C703E4BDFF80CA123
:104350001A70036823F0400303604FF40063CAF847
:1043600000404B66384BCB66032000924B464246DA
:104370000391FDF70BFF039918B9584601F018FC9B
:1043800040E0D1F83031DA0703D4304B5B685B048E
:104390002BD52F4BDFF89C8001241C7000F086FC8D
:1043A0002C4B1C604FF48053C8F86430D8F86C3044
:1043B00023F0F85323F4F81343F0506343F48033AD
:1043C0004FF00009C8F86C300420CDF80090324658
:1043D0003B46FDF7DBFE68B94FF40063CAF80040C6
:1043E000C8F86430144BC8F86C30584601F0E0FB54
:1043F000032407E0584601F0DBFB4C4602E00224B0
:1044000000E0044628680C30FFF7EAFB14B1FFF720
:1044100013FF3EE7054B104A1A6105B0BDE8F08F67
:1044200040100020A01000204C100020D8110020C7
:10443000B996000000500840000001011210002051
:10444000F81E002116100020010C01000040084059
:10445000FD0F002040510844B5440000305108448D
:10446000044B5A6D22B95865A3F8581001207047C3
:104470000020704740100020D0B50C4CE38C0A207F
:10448000584302F03BFD0646A08C0F4602F036FD75
:104490000022074B02F098FD02460B463046394693
:1044A00002F0BCFE02F0A2FF2083D0BD401000202D
:1044B0000000F43F2DE9F047022886B00D460BD0EE
:1044C00003D8012800F0FF8108E2032800F00182F0
:1044D000FF2800F0FE8101E2BC4ECC68B37ED80715
:1044E00008D56FF30003B376002373600B68336065
:1044F000FFF7C2FFAB79B64F13F0010F40F6030090
:1045000004D14FF0FF3102F04BFA9EE12188DFF831
:10451000BC8202F045FA2378B27EC3F3001363F342
:1045200082022378B276C3F3C001C2F30012914233
:1045300040F0228103F00303022B00F0FB80032BE9
:1045400005D0012B40F018814FF00009F4E04FF442
:104550008050A049A04AA37802F068FAA578022DFD
:104560006ED01ED8002D4ED0012D40F0A8804FF403
:1045700080509A499A4A238902F058FA627A237A3B
:10458000984943EA02238B800B46974A43F8062B4F
:10459000224652F8030FC1F806009188998092795B
:1045A0005DE00C2D24D0142D5BD0082D40F08780C9
:1045B00025464FF4805055F8032F8C496B688DE8E1
:1045C0000C008B4A02F032FA2A688A4B02F0FF0292
:1045D000988A42F47F420240874800210546002322
:1045E0000B40092105F8011BC0F801206B607BE13D
:1045F000814800230570012545708570C3700571E1
:104600004371062170E14FF4805074497B4AA389BD
:1046100002F00CFA627B237B724843EA0223838018
:104620000346774A43F8062B224652F8031FC0F888
:1046300006105168596011891981927A9A7255E170
:10464000704AE37870494FF4805002F0EFF9B8F8FF
:104650000820644B05329A806C4A1A60E2789A719D
:1046600044E1B4F80520B4F803300092B4F8072010
:104670000192B4F8092002924FF480506449654ACF
:1046800002F0D4F9B4F805305B48DA08B4F8033026
:10469000934228BF1346A8F82830152300216FF055
:1046A00004056FF027020370072381708171457044
:1046B000C27003714571C2710372092114E1564B36
:1046C0001B78002B00F00B81162D1BD0182D40F00D
:1046D00006812279E3780092B4F8052001924F49CF
:1046E0004F4A4FF4805002F0A1F96279A1793D4B15
:1046F00042EA01229A804B4A1A60D4F80320C3F898
:104700000620F3E02279E378474900924FF4805085
:10471000464A02F08BF9E27823793748134003F0D8
:104720000303022B18BF012317220270437083700A
:104730000321D9E04FF0010994F80180B8F1000F8E
:1047400000F0D4803A48858A02F07AF9281A04F1F8
:10475000020A80B2B9F1000F04D0022886BF0238E5
:1047600080B200201FFA88F3984205D3494652468A
:104770002F4802F0ABF9B9E00023B27E2078C2F3F3
:10478000C001C0F38000884256D081F0010161F37E
:10479000C302D2B20D4942F020028A76002B4CD1DE
:1047A000B37E716D094C6FF34513B376002950D079
:1047B0003B7894F858207A7043F003033B701D480F
:1047C00003F012F9002363655AE000BF4010002097
:1047D000CC10002003970000EC9700001497000015
:1047E000F5970000A01000203D6000003697000003
:1047F00024980000D8110020CC110020039800005C
:10480000E15F00001798000024970000CD5F0000D2
:104810004F970000A896000026100020B1970000D6
:10482000DF9700009D5F000091970000B2960000A6
:1048300028100020CE1000203BB1B37EC3F300123D
:1048400082F0010262F30413B376B37E990617D5A2
:10485000A6E72948294A94F828300DF1170102F0FB
:104860009FF9C0B230B19DF81730002B0CBF012268
:10487000022200E001223B78787062F301033B7072
:104880001D4802F0DDF8B37E003018BF012060F350
:104890004103B376DAB23B78C2F3001161F38203CD
:1048A000C2F3C00262F3C30360F304133B703988A0
:1048B00040F6020002F074F8797811480231C9B26A
:1048C000FEF7E6FA14E00F4B9B7E5A0710D49B07C5
:1048D0000ED4FFF7B1FCFFF7D9FC09E0FEE70A4868
:1048E0000723037045700221FFF7BAFD012344E757
:1048F00006B0BDE8F08700BFB4100020CE10002045
:10490000CC10002040100020CC110020084A10B527
:10491000146840F2E243584303FB0141536800F539
:10492000807001EB500118441160506010BD00BF51
:104930004010002030B500228BB01346D91003F090
:104940000704415C2141CC0741BF0AA98918013203
:1049500001F8283C0133252BF0D10D4C0023D91050
:1049600003F00705415C2941C9075FBF0AAD93FB0E
:10497000F2F102FB113149194EBF237011F8281CC6
:1049800021700133252B04F10104E8D10BB030BDB7
:104990006A100020084BD3F8882012F0A00F0AD12B
:1049A00008229A60054B1B6813F4007F14BF044A69
:1049B000044A02231360704700400840081F00218A
:1049C000004008460040084410B5046884EA01032A
:1049D00023EA020200F1806314401C6040F8042CBA
:1049E00000F1C0600A40026010BD0000024B5A692D
:1049F00099680A401A6170470040044070470000FF
:104A00000A4A53685B0708D1094B5B682BB1094B15
:104A10001B6AC3F30C03013B9361074B80221A60AE
:104A2000064A136823F040031360704700000840F3
:104A3000541F00210010084088400846F81E00213D
:104A4000EFF3108072B60A4B4FF080521A604FF4A9
:104A500080721A6010221A6020221A604FF00052F1
:104A60001A6080221A6040221A6001F0A1B800BFCB
:104A700000E100E0EFF3108072B6104B4FF080526F
:104A8000C3F880204FF48072C3F880200222C3F85C
:104A900080201022C3F880202022C3F880204FF00D
:104AA0000052C3F880208022C3F880204022C3F83F
:104AB00080200122C3F8842001F07AB800E100E0F0
:104AC000EFF3108072B6124B1978B9B9114BD3E9D4
:104AD0000023002302F4105213430FD10E4B102277
:104AE0001A600C4BD3E90023002302F480721343B5
:104AF0000AD00A4B20221A6001F05AB8074B102244
:104B00001A600029F5D1ECE72022034BF3E700BF40
:104B1000FC0F0020501400209440084494400846A4
:104B200070B5044616460D46FFF7CAFF04F0AA62A8
:104B30000023134348F2020108BF4FF40041B207BB
:104B400048BF41F400514F480022FFF73DFF04F4F5
:104B500000420023134304F480324FF0000314BFDB
:104B60004FF480510021134304F010024FF0000372
:104B700018BF41F48071134304F020024FF000038A
:104B800018BF41F40051134304F040024FF00003FA
:104B900018BF41F40071134304F080024FF000038A
:104BA00018BF41F48061134318BF41F400613648D7
:104BB0000022FFF709FF05F004030022134304F469
:104BC00000624FF0000314BF4FF480210021134313
:104BD00004F480424FF0000318BF41F480311343C6
:104BE00004F002024FF0000318BF41F48011134398
:104BF0004FF0000304F4003218BF41F400111343D6
:104C000018BF41F40021730748BF41F004011F4859
:104C10000122FFF7D9FE1E4B1E491F4816F0010F57
:104C200008BF194604F00052002313434FF000035D
:104C300004F0804218BF41F40011134318BF41F043
:104C400000710022FFF7C0FE04F0010113480022AA
:104C5000FFF7BAFE04F4802200231343104B1149DE
:104C6000114804F004044FF0000508BF194654EA47
:104C7000050318BF41F480614FF4A022BDE87040E5
:104C8000FFF7A2BE6C0008400C62084020400840BC
:104C900004185000041C5000685008403C70084044
:104CA000090A0A090D0A0A09EC100840044B0022FF
:104CB0001A70044B197811B11A70FFF701BF7047D1
:104CC0000C100020FC0F002038B50C4B1B789BB15A
:104CD0000B4B1C6DC4F30C0474B9FFF7E7FF094BD1
:104CE000094DD3E900012246012300F48050002140
:104CF0002B70FFF735F92C7038BD00BF0C10002069
:104D000000100840501400204C140020EFF31080D5
:104D100072B6094B5B68C3F30363032B01BF074AF9
:104D2000136823F0F00343F0E00308BF1360044B63
:104D300001225A6200F03CBF004008405C1F002185
:104D400000000840094AD36D180CC3F3011101FBA0
:104D5000000342F210718B429FBFD06900F01F0028
:104D60000130C01888BF4FF0FF3070470060084026
:104D7000094B1B6830B5C517A0FB030110F180700B
:104D800003FB051141F10001400E40EAC1108038DB
:104D900020EAE07030BD00BFF41100202DE970431F
:104DA0000D460446002800F0A880E90756D5438B3D
:104DB00053B1C168524A521A524988881B1A4FF49B
:104DC0007A7000FB032001E047F23050FFF7D0FF7C
:104DD0004D4EE38AF06153B1E168494A521A49499C
:104DE00088881B1A4FF47A7000FB032001E047F219
:104DF0003050FFF7BDFF238B706163B1E26840481C
:104E0000801A404A91884FF47A72591A02FB0103C2
:104E100062689A1A01E047F230523C4B19684FEA37
:104E2000E279A2FB012312F1807201FB093343F105
:104E30000003520E42EAC312E38B803AB26143B1DF
:104E4000304A9088181A4FF47A735843A0F6C41069
:104E500001E047F23050FFF78BFFB062AA072DD573
:104E6000638A4FF47A7058435BB1236803F51C538F
:104E700010331844237A002B14BF4FF4FA63002335
:104E80001844FFF775FF204BA28B58621E4682B173
:104E9000E3684FF47A7000FB0233227AA3F50353E0
:104EA000002AA3F1100314BF4FF4FA600020181A6F
:104EB00001E047F23050FFF75BFF30626B071CD513
:104EC000A08A30B14FF47A735843A0F503501038DC
:104ED00001E047F23050FFF74BFF0B4B228AD860BE
:104EE0004FF47A7050431D4622B1236803F51C53DA
:104EF00010331844FFF73CFF2861BDE8708300BF02
:104F00003CF6FFFFFC1100208C1F0021F411002053
:104F100008B500F47813B3F5C02F26D00DD8B3F53B
:104F2000003F38D0B3F5802F14D0002B41D100F0D2
:104F3000FDFC234BD3F8003138E0B3F5202F30D0FF
:104F4000B3F5601F17D0B3F5002F32D1BDE808408C
:104F500000F0ECBC00F0EAFC194BD3F80C31C3F3C1
:104F600008230133B0FBF3F008BD00F0DFFC144B65
:104F7000D3F81031F3E7124BD3F8003213F00703E4
:104F80001BD0022B04D9042B17D14FF47A7008BD23
:104F90004FF4004008BD00F0C9FC094BD3F80831BC
:104FA000DDE700F0C3FC064BD3F81431C3F3042350
:104FB000D7E7BDE8084000F09BBE002008BD00BF59
:104FC00000400E4038B5134B4FF400221A60124ACD
:104FD0001060124A12681D46D2B1114B114C1B6F62
:104FE00000F5F42000F59070B0FBF4F4033CE4B25B
:104FF00003F00703A34202D0204600F07BFD0A4BDA
:105000001B782BB1094B4FF4702224041A602C60DA
:1050100038BD00BF94400846480000208009C643C0
:1050200000300E4040420F000C1200209440084413
:10503000F0B5334A334D51681068127A85B001AB30
:1050400003C331491A700C68304A3149936B0968BF
:1050500004FB0314136B13F4801F2E4B1B6804AA6C
:1050600014BFE418E41A2C4BB4FBF3F313442B4A9B
:1050700013F80B6C04ABF440B4FBF2F21A442B6847
:1050800012F80B7C23B92B20FDF7AAFB01232B6020
:105090002968234B43F6FF521A6004EB5102B2FB1E
:1050A000F1F2013A42EA06331E4A43EA87231360CB
:1050B0001D4AB4FBF2F302FB1344642254431B4A1F
:1050C000944298BF03F1FF335D08013D5C1C640806
:1050D000072D04F1FF3403D8072C01D81DB914B9EA
:1050E0001020FDF77DFB124B4FF4EE621A602D018C
:1050F00003F1007345EA04241C6005B0F0BD00BF55
:105100002F980000480000200412002000300840C2
:1051100008120020F811002040BE4025401B5F13FC
:10512000A4400844A440084600F04902FFEF4902A9
:1051300030400844064B5B6B03F00700C3F3C50324
:1051400013F0070218BF5043DB0818BF58437047DD
:1051500000300840064B5A6802F07062B2F1C06F2E
:105160001A4602D1DB6BDB06F4D54023936070470F
:1051700000400840224A936903F03001202910B50D
:105180000FD1C3F302441CB1C3F3C422B2FBF4F445
:1051900013F4C01F18BF64006408032C28BF042444
:1051A0000AE0936903F4E073402B02D0B3F5807FEB
:1051B00001D1022400E00124112000F099FD1049E2
:1051C0000A6D93B233B1C008C2F307425043B0FB3B
:1051D000F3F000E018468B6903F03002202A05D076
:1051E000302A09D0102A08D1400806E0C3F3C423AE
:1051F0000133B0FBF3F000E08008604310BD00BF56
:105200000060084038B505460C46FFF7B3FF291982
:10521000054C1423B0FBF3F304FB01340A23B0FB69
:10522000F3F0B4FBF0F038BDA08601000D4BDB6C51
:1052300013F0200F0CBF00200420D90644BF023019
:10524000C0B21A0744BF0230C0B2590744BF02308F
:10525000C0B29A0744BF0130C0B2DB0744BF01307F
:10526000C0B27047000008402DE9F04F01288BB014
:1052700040F03E818A88002A00F03C81B24E0968E5
:1052800096F800B0BBF1000F00F03681AF4B1C78F0
:105290001F46002C40F05481AD4805788046002D13
:1052A00040F04E81AB4D286802EB0009B9F5806FE4
:1052B00002D982241C7043E1DFF8B0A2504402F00E
:1052C00093FBBBF1020FC5F8009049D0B9F1030F71
:1052D00040F23681DFF8A892484601F08DF899F83F
:1052E0000030DAF800000290012B029A9A4B2DD17F
:1052F0009A422BD1D9F80810C90327D5022333705D
:1053000001F06AF8954B1A68A2F17E63A3F5843325
:10531000B3F5804FC0F0F2800398914B914A18602A
:1053200020F4FF6323F007034FF40061136000F0E3
:10533000FFFF08B1852310E000F094FF80B14FF427
:10534000006100F0F5FF0028F4D109E09A4214BF93
:10535000842386233B703B7813B13B701C46EFE0FF
:105360003378022B40F0EC807F4BDFF804A21A78F0
:1053700012F0F70F994633D1794B2E681B6806F06F
:10538000030B1E44DAF800301E44764BCBEB0606C6
:1053900026F4FF66196826F00706B14209D201F526
:1053A0000060711A019300F0C3FF019B00285BD1DC
:1053B0001E602968DAF80000CBEB0101FCF740FD24
:1053C0002A68DAF800306349CBEB02020646134440
:1053D0006648CAF8003001F04BF8002E44D121E0B5
:1053E000DAF800202B681A44CAF800205B4A1168DA
:1053F000A1F17E62A2F58432B2F5804FC0F08C80BC
:1054000040F20226594853492A6801F031F840F227
:1054100003239E4268D040F201239E4202D08024A2
:105420003C708DE099F80030002B40F08980DAF86C
:1054300000307F2B40F3848003A802A9FCF7D6FC40
:1054400010B9494B039A1A7099F8003013F0F70F0E
:1054500076D0424EDAF800303168A1F17E62A2F5D2
:105460008432B2F5804F01D38524D9E7096BA1F1CD
:105470007E62A2F58432B2F5804FF5D20020D1F8D9
:105480000CC03A4A0146E0470028EDD1384BDFF81E
:10549000EC901B682B60334B1860364BC9F8043016
:1054A0003268A2F17E63A3F58433B3F5804FDBD27B
:1054B000936A31484FF4007198470028D4D131687D
:1054C000244BA1F17E62A2F58432B2F5804F1B68B5
:1054D0002FD340F2022625481E492A6800F0C8FF53
:1054E00040F203239E421ED1012388F8003027E0BA
:1054F000002425E00D2423E0812421E0126BA2F199
:105500007E63A3F58433B3F5804FBFF405AF936892
:1055100003A900209847FFE6CE6A17481749134AA7
:10552000B04706466EE740F201239E427FF477AF14
:1055300006E0CE6A10480D4A4946B0470646CAE71B
:1055400020460BB0BDE8F08F28140020781800200A
:105550000D1200202C140020EB17A6032808E10FE1
:105560002414002074140020301400205C09002052
:105570002012002085640000241200201012002058
:105580006414002001282DE9F74340F00A818B883C
:10559000012B40F008810B681B7803BB954A136010
:1055A000954A1360954A1360954A1360954A1360B3
:1055B000954A1370954A1360954A1360954B1A7873
:1055C000022A1C4601D100F0F7FE01232370924B02
:1055D00000201870914B1870914B187007E1032B45
:1055E00040F0C5808E4B8B4D1878002840F0BC8071
:1055F0002B78002B00F0B180834B1B78082B4FD108
:105600007C4A1368904653B9864C2368A3F17E63A5
:10561000A3F58433B3F5804FC0F0C98045E013F0A3
:1056200003071CBFC7F10407FFB2FE18B6F5806F71
:1056300000F297807C48DFF8CC911844FF213A466D
:1056400002F032FA714A6C4B14681B68D9F80010EA
:10565000C8F800601C44344424F4FF6424F00704B8
:10566000A142164609D201F50060611A00F060FE01
:1056700008B1852078E0C9F80040D8F800103068FB
:10568000FCF7DEFB3368D8F800205A49134404467F
:10569000DF1B6548376000F0EBFE002CE9D1B3E773
:1056A000002B5CD05C4B1B780BB980205CE0584E23
:1056B000336843B9524B5D491868102200F050FE20
:1056C0000028D6D150E013F003021CBFC2F104023F
:1056D000D2B2D418B4F5806F43D85548474F184418
:1056E000FF2102F0E1F95348534A54493B683460C2
:1056F000121A0A4422F4FF6222F00702934232D3C4
:105700001C444F4B9B6C9BB29B02A3F580539C4265
:1057100029D2DFF8F08024F4FF64D8F8001024F0D8
:105720000704A14208D201F50060611A00F000FEF2
:1057300000289ED1C8F800403D493268386800F022
:105740000FFE3B68326832490446134438483B60D8
:1057500000F08EFE002C8CD1ACE7812004E0842088
:1057600002E0822000E0832000232B703FE0042B26
:105770001BD1344C344A35494FF40060132301F0F7
:1057800055F913230221204663702170FEF768FE4D
:105790002F4A304B128905329A802F4A1A6062785C
:1057A0009A71002023E00D2021E006201FE0FCF785
:1057B0006BFB00287FF479AF22680190A2F17E6331
:1057C000A3F58433B3F5804F04D3144B01221A7030
:1057D0000020C9E7126BA2F17E63A3F58433B3F511
:1057E000804FF2D2936901A801219847EDE703B0F9
:1057F000BDE8F0832C140020241400207014002035
:105800007C18002074140020301400202012002086
:105810009C180020281400200D1200209C1000204D
:10582000781800202808E10F5C0900208818002063
:105830007814002010000020C0000020C3A1000048
:10584000B081E00FCC11002038980000F0960000E5
:1058500040100020A0100020CD5F0000E0B1114BEF
:105860001A689188814219D39988814281BF0121A8
:10587000126899809A6099889A6842B1814202D1EF
:1058800099809A600BE00131126889B2F5E74FF612
:10589000FF719A60998002E0024600E00022104603
:1058A000704700BF341400202DE9FF410A9EBDF867
:1058B0002C70044688468DE80C00FFF7CFFF0546A4
:1058C0001DB3444521D82B7A9DF8042068680099BF
:1058D0009A4216D102F078F898B90EB9204622E023
:1058E0002B69AA8AA3B14FF6FE7E724510D10290B1
:1058F000ADF80C0002A9984718B90299BDF80C2020
:1059000041B901342D68A4B2DAE74FF6FF700AE01E
:105910001946F5E7BA42F4D130463A4602F054F857
:105920000028DBD0EDE704B0BDE8F0810C4BD3F8E4
:10593000942002F00702022A03D004D3042A04D9D7
:1059400001E0084803E0084801E04FF40040D3F8C4
:105950000031C3F304230133B0FBF3F0704700BF01
:1059600000400E4000F04902C0EA2101024B1A6FCC
:10597000D96F0A409A67704700300840FDF748BB6E
:10598000FDF746BBFDF744BBFDF742BBFDF740BB4F
:105990000E4A136BD16B0B4010B59363DB0714D524
:1059A0000B4BD3E90023002302F00102134302D181
:1059B0001220FCF715FF074C0123012000210022D3
:1059C0002370FEF7CDFA0023237010BD007008404D
:1059D000501400204C1400200F4A10B55369146A6B
:1059E0001C40A3B2E107D36106D5516840F205100F
:1059F000C1F3036100F0D4FF63070CD5074B084CDB
:105A00001A6800200123002102F004022370FEF72F
:105A1000A7FA0023237010BD00400840481400205E
:105A20004C140020304B1A6FD96CC90702F00702E2
:105A300006D5012A04D9132818D91438132811E0DF
:105A4000DB6CD90706D4012A04D809280ED90A38F4
:105A5000092807E0244BDB6C13F0010309D0012A6D
:105A600006D827288CBF1023082302E0042300E077
:105A700000231D49013BCA6C180340EA032322F4AA
:105A80007F421343CB64194BCA6C1B88C2F30322B9
:105A90002833013202EB820003EB5303B3FBF0F334
:105AA000C86C013B072B20F0EE6028BF072340F4B1
:105AB000801040EA0363CB640D4BB3F90030002B38
:105AC00010DB2833500000EB520203EB5303B3FB0F
:105AD000F2F30A6D072B28BF072322F0700242EA77
:105AE00003130B65704700BF00300E4044140020C4
:105AF00040140020054A064B1B68136F23F0070370
:105B00001843044B10671888FFF78CBF00300E4015
:105B10008009C6434214002042EA032340F20112E6
:105B2000934227D0B3F5817F09D2012B1ED029D310
:105B3000B3F5807F34D11D4BD3F86C312CE040F2AB
:105B4000012293421AD006D8B3F5007F28D1174B13
:105B5000D3F8703119E0B3F5407F1AD040F201322A
:105B600093421DD1114BD3F8783115E00F4BD3F888
:105B700074310AE00D4BD3F874310DE00B4BD3F8C0
:105B8000783102E0094BD3F86C31C3F30722DBB262
:105B900008E0064BD3F870311A0EC3F3074301E057
:105BA0000022134603600A60704700BFB081E00F17
:105BB00000B962B67047000000F00F0001380728F6
:105BC00048D8DFE800F0040E1947232D4735244B51
:105BD000D3F8943003F00703023B022B3CD8214A50
:105BE00008E01F4BD3F8803003F00703013B032B81
:105BF00034D81D4AD05C7047194BD3F8843003F079
:105C00000703013B032B29D8184AF3E7144BD3F8B9
:105C1000883003F00703013B032B1FD8144AE9E740
:105C20000F4B1B6F13F0010F14BF092007207047A3
:105C30000B4BD3F85C3103F03003202B06D0302B14
:105C400006D0102B0CBF072001207047042070479E
:105C500008207047002070470520704701207047DA
:105C600000400E4054980000489800004C980000F6
:105C70005098000010B50446FFF79EFF184B9C4259
:105C800009D0184B9C420AD0174B9C420CD1174BA1
:105C9000D3F8800006E0154BD3F8840002E0134BE4
:105CA000D3F8880000F007000138032816D8DFE891
:105CB00000F0020208054FF4004010BD4FF47A7066
:105CC00010BD00F0B7FF094BD3F80021C2F300620A
:105CD000013201239340B0FBF3F010BD002010BD52
:105CE00003001C000500200002001A0000400E40C6
:105CF00000F47810B0F5901F08B550D01ED8B0F55C
:105D0000002F71D009D8B0F5003F3DD0B0F5802FFD
:105D100034D0002840F0848066E0B0F5402F5CD09D
:105D2000B0F5602F70D0B0F5202F79D1FFF7FEFDD0
:105D30003C4BD3F81431C3F304232CE0B0F5E01F3F
:105D40003CD011D8B0F5B01F3AD0B0F5D01F24D058
:105D5000B0F5A01F64D13448FFF78CFF314BD3F866
:105D6000202102F00F0233E0B0F5281F1CD0B0F55F
:105D7000381F3DD0B0F5001F52D110E0FFF7D6FD1F
:105D8000284BD3F80C3104E0FFF7D0FD254BD3F8B6
:105D90000831C3F3082301331CE0234800E0234803
:105DA000BDE80840FFF766BF1F48FFF763FF1D4BC4
:105DB000D3F82031C3F30113D84008BD1C48EFE7E6
:105DC0001B48FFF757FF174BD3F82821C2F30112E6
:105DD00001239340B0FBF3F008BD1648FFF7ECFE3B
:105DE000072811D009281BD1BDE80840FFF79EBD48
:105DF0001148FFF7E1FE072806D0082806D004283E
:105E00000E4818BF002008BD0D4808BDFFF78EFDE5
:105E1000044BD3F80031C3F3042303FB000008BD97
:105E2000002008BD00400E4002001A0005002000BE
:105E300003001C0006000C0098002E0000F0490230
:105E4000C0EA210170B50E4B5B6800230D4C04EBDA
:105E5000C302CDB21679AE4203D154F83340A0420A
:105E60000BD90133052BF1D1032205494B6823F0EF
:105E7000407343EA02634B6070BD5279F5E700BF9F
:105E800000000E405898000038B5054C41F67133BB
:105E9000256C2364FFF7D6FF0DB10023236438BDC2
:105EA00000000E40154B2DE9F041D3F800310446B7
:105EB0000F46FFF73BFD8046114D2B68002BFBD1B1
:105EC000104B5A68C2F30142A2421E4613D0022C64
:105ED00003D140462146FFF7D7FFC4F10202102349
:105EE000934033611CB940462146FFF7CDFF17B1FF
:105EF0002B68002BFCD1BDE8F08100BF00400E40B4
:105F0000C800C64300300E40064B10B5D3F8003130
:105F10000C4608B9FFF70AFD21460020BDE81040F5
:105F2000FFF7C0BF00400E400C4B984205D90C4B08
:105F3000984204D90222012303E0002200E001225A
:105F4000134608490B600849D1F8003123F08073EB
:105F500043EA0263C1F80031704700BF0048E8011E
:105F60000090D0034000C84300400E4038B50546BD
:105F7000EFF3108472B6FCF705FC15B1FEF796FE40
:105F800004E0054B1B780BB9FEF79EFE2046BDE8EA
:105F90003840FFF70DBE00BF4C14002038B5074C49
:105FA0000749A579074A2B464FF4805000F03EFD83
:105FB000054B1D750023236038BD00BFA0100020D5
:105FC00090980000349900004010002010B5034C58
:105FD000A079FEF7D7F80023236010BDA0100020A1
:105FE0001FB5124C1249A2790092B4F8092001920F
:105FF000B4F80D20B4F8073002924FF480500D4AE7
:1060000000F014FDA079B4F80710FEF77FFCA36838
:10601000094AB4F80D10D184C3F30F239384FEF71B
:106020002BFA0023236004B010BD00BFA010002095
:10603000A09800001A990000401000201FB50B4CDA
:106040000B49E2790092227A0192627A0292A27A54
:10605000A37903924FF48050064A00F0E7FCA01D9C
:10606000FEF768FC0023236004B010BDA0100020E0
:10607000D7980000009900002DE9F04180460D46B8
:106080001446A4B1EFF3108772B60A4841462A4677
:10609000234600F01BFD06463846FFF789FD002E1B
:1060A000EFD0A41BA4B235444FF00008E9E7BDE8E7
:1060B000F08100BFB410002013B5002301F10804E3
:1060C000ADF80430ADF806002246083252F8101C34
:1060D00021B152F80C1C0B449BB2F6E702A9012037
:1060E00021F8043D04220834FFF7C6FF54F8101CC1
:1060F00019B1002034F80C2CF5E702B010BD0000F7
:106100002DE9F84F424BDFF818A193F800900746AD
:106110000D4616469846B9F1000F3ED13D4A3E4C19
:10612000936C3E489BB29B02A3F580532360936C13
:106130009BB29B02A3F500636360FBF707FD216838
:1061400008200431FBF7EAFC23681B68984208BF6B
:106150002368616808BFD3F804904FF0080001F18C
:1061600004010CBF4FF0010BCB46FBF7D7FC636873
:106170001B68984208D1284B5B685B68994501D23F
:10618000012305E0002303E0BBF1000FFAD1FF2358
:106190008AF80030012388F800309AF900305A1C40
:1061A00004D1002030702860BDE8F88F1A4A52F8F8
:1061B000233003F10C084446C4F30A030833B3F553
:1061C000006FEED2A2884FF6FF739A42E9D0A07911
:1061D000211D0430FBF7A2FC2368984209D1A38853
:1061E000BB4206D1E388337008342C600120BDE83F
:1061F000F88FA379033323F0030308331C4484EAA4
:10620000080323F4FF6323F00703002BD4D0C8E76F
:10621000A0180020B081E00F801800200055080071
:106220004C0000207FB50E4B02466D4603F1100670
:10623000186859682C4603C40833B3422546F7D181
:10624000531E04A90F3211F8014D13F8010F8442B7
:1062500003D19342F7D1012000E0002004B070BDCB
:106260008098000070B51D4D2868002834D11C4C62
:106270001C4A1D4B141B1C4424F4FF6424F0070427
:106280001A4A936C9BB2B4EB832F24D2666B9EB1F7
:10629000936C9BB2B6EB832F0ED2926C06F138034F
:1062A00092B2B3EB822F07D83046FFF7BBFF18B18D
:1062B000F36933F0080309D104F1E800FFF7B2FFF6
:1062C00030B1D4F8043133F0080301D02C6002E07F
:1062D00004F50064D4E7286870BD00BF981800205A
:1062E00010000020C0000020C3A10000B081E00F1A
:1062F00070B50E46B0B9FFF7B5FF0446FFF7B2FF21
:1063000060B1094D04F1E80304F590741868596808
:106310002A4603C20833A3421546F7D1034B336024
:106320000423B380002070BDA4180020C4180020EE
:106330000A4B1A68A2F17E63A3F58433B3F5804F4C
:1063400009D2126BA2F17E63A3F58433B3F5804FBB
:1063500001D2D36B184740F2011070472808E10FB3
:106360000C4B10B51C68A4F17E63A3F58433B3F520
:10637000804F0BD2246BA4F17E63A3F58433B3F575
:10638000804F03D2A36BBDE81040184740F20110C4
:1063900010BD00BF2808E10F064B1A68A2F17E630A
:1063A000A3F58433B3F5804F01D2536A1847002018
:1063B000704700BF2808E10F064B1A68A2F17E6300
:1063C000A3F58433B3F5804F01D2136A18474FF415
:1063D000817070472808E10F064B1A68A2F17E63AE
:1063E000A3F58433B3F5804F01D2D36918474FF436
:1063F000817070472808E10F114B196801F1704353
:1064000003F5F813B3F5006F02D30023037015E012
:106410000C4B1B68A3F17E62A2F58432B2F5804F6B
:10642000F3D20968084A9142EFD11968074A9142AC
:10643000EBD1012202709A689B69426083607047C9
:106440002800E10F2808E10FAD1007B007B0CD5EBE
:1064500010B50C4630B90448FFF7CEFF034B23605C
:106460000423A380002010BD581400205C140020D9
:1064700038B50C680D46A41A8118224601F0BFFAFF
:106480002C6038BD2DE9F84F4D4C4E4ED4F800909D
:106490004D4B4E4FC9EB00054D483D609B1B0344DF
:1064A00023F4FF6323F007039D428E469446A046E3
:1064B0006FD3484B9B6C9BB202EB09069B02AC1955
:1064C000A3F580539C4264D2B6F5806F01D9822235
:1064D00072E0DFF814B10BEB090001F085FA3E4BD6
:1064E000C8F80060D3F800A09946BAF1000F1BD19C
:1064F000F72E63D9394A0BF1E8030BF1F80B53F887
:10650000041B42F8041B5B45F9D13448FFF78AFEAF
:1065100008B9842250E010223148FF2101F0C4FA6A
:10652000304A05F1E803136006F00306A41B24F4C7
:10653000FF6424F00704BAF1000F07D125F4FF60CF
:1065400020F00700C0F50061214405E0A2450AD211
:106550000AF50060CAEB0401FFF7EAFEC9F8004043
:1065600008B1852228E0D8F800201F493868921B1E
:10657000FFF7F6FED8F800203B681149921B04464D
:10658000134419483B60FFF773FF002CE9D1BDE8C5
:10659000F88F164B5B68B3F1827F0CD2F444E6456A
:1065A00007D01EF8013BFF2B1EBF114B83221A7030
:1065B000F5E7BDE8F88F83220D4B1A70BDE8F88F20
:1065C0009C18002010000020C00000207014002043
:1065D000C3A10000B081E00F7414002088180020CF
:1065E000601500207C18002078140020641400201E
:1065F000781800202DE9F7433B4C3B48637A013380
:10660000DBB2272B88BF25236372FCF765FCA17BD7
:10661000257B364C36480231FCF73AFC6368354A34
:106620005B7A05F001052846D75CFCF7FDFB324B91
:106630002568D3F8883013F0A00F05F10C0648D177
:1066400030463946FCF7E4F8002842D13046FBF7E3
:106650008DF900283DD1B5F84E3042F210729342C8
:106660009CBFC3F51C501030FBF72AFD06460F46B1
:10667000EFF3108972B6DFF89480D8F83031DB0779
:1066800024D4D8F80C5015F006051FD11B4B1D70F3
:10669000FEF7B6F91A4BC8F86C301A4BC8F87050B0
:1066A00008221A60184A01231360184A4FF4006147
:1066B000516640F6014111670320009332463B4684
:1066C000FBF764FD40B90F4B80221A604846FFF784
:1066D0006FFAFCF793FB8FE74846FFF769FA0C4B1C
:1066E000236103B0BDE8F083DC180020D81100203E
:1066F000E9180020B9960000004008401210002060
:10670000000001018840084430510844005008400E
:106710001567000002282DE9F3410D461ED002D86E
:10672000012807D0A5E0032800F09C80FF2800F096
:1067300099809EE0514C237B980707D5FCF75EFBC0
:10674000FFF758FF237B6FF341032373237B9907E4
:1067500000F18A80DA0700F18D8085E08B79CC68C2
:10676000DB077FD5227802F00F07032F5FD0052FBC
:1067700078D143498B7B03F00103B3EBD21F04F1C3
:10678000080077D10831062201F01EF98046002862
:1067900070D1FCF733FB2E683A4D41465C22284607
:1067A00001F082F9AB7E2F8343F02003AB76627E4B
:1067B000237E43EA0223AB84627F237F43EA0223E2
:1067C000EB8494F82330C3F3040385F84F3094F836
:1067D0002330C3F3421385F8503004F11E001B230D
:1067E0002B85FEF7A7F8D4F80E30E27CEB60A37C93
:1067F0002E6043EA0223227D607D43EA02432B613F
:10680000012795F84F30AB722F75E18A3944FEF7B6
:106810007DF8FDF73BFDEA8CAB8C1B4900924FF4F1
:1068200000601A4A00F002F9194B1F7022E0144967
:106830008B7B03F00103B3EBD21F04F1080019D1E5
:106840000831062201F0C0F8A0B90C4C94F83610BB
:1068500004F135000231FCF71BFB237B43F00203FC
:10686000237307E0FCF7CAFA02B0BDE8F041FFF776
:10687000C1BEFEE702B0BDE8F08100BFDC18002019
:10688000D8110020401000204799000064990000B2
:10689000F0110020704700002F4B70B51C682CB120
:1068A0002E4B1D6815B12E4B1B682BB92D4B2A2280
:1068B0001A602D4B1860FEE781B101290DD10E330E
:1068C000062033F9021D914205DD013881B288B2FC
:1068D0000029F6D10846013037E02C46B4F9001003
:1068E0008A4203DC21499142B8BF11462822A1F116
:1068F000C80393FBF2F31E4A646815785B429BB2AF
:106900001AB29542DCBF05F1FF339BB218B204EB1B
:10691000C00001334288406812FB010020EAE070A9
:106920009BB24FF47A7200F5FA70B0FBF2F01AB233
:10693000AA420CDB02F10052013A34F8323098429C
:1069400028BF1846002808BF0120C0B270BD34F827
:106950003260B042DAD9EDE74C1B00204419002028
:106960003C1900201800002014000020C880FFFF00
:1069700040190020FEE70000084B196C10B50022FA
:106980005C6C0A43110A0270120C8270220AC270F7
:10699000230E220C41700271437110BDB081E00FD3
:1069A000204BD3F8F82170B510EA020639D1D3F89C
:1069B000FC211D4D03F5FC74A41AA410022C0FD069
:1069C000032C19D0012C6C6814601FD11A46596031
:1069D00042F8080BC3F8FC21D3F80032082209E082
:1069E0006C68146050601A1DC3F8FC211960D3F85C
:1069F000003204221A6070BD6C68146050609160AF
:106A0000C3F8FC31D3F800321E6070BD506002F153
:106A10000C00C3F8FC019160D3F8002213680C331A
:106A2000136070BD48190020001000E00EB400B5DE
:106A300001466420FFF7B4FF5DF804EB03B0704734
:106A4000837DDB0701D5808A7047426883689B1A83
:106A500044BF828A9B1898B270472DE9F0410546E1
:106A600016460F46FFF7ECFFAB8A181A80B2864233
:106A700028BF0646B046B8F1000F1BD02C68AB8A81
:106A8000A86823441B1A9CB2444528BF4446394693
:106A9000224600F0A9FFAB682968AA8A23440A4469
:106AA00027449342C4EB0804AB601FFA84F828BF64
:106AB000A960E0E73EB16B68AA689A4202BFAB7D6D
:106AC00043F00103AB753046BDE8F08170B5044674
:106AD00016461D4611B3FFF7B3FFA38A181A80B2FA
:106AE000012829D9E37D63B1E368628A1A70120A2A
:106AF00007D02068A18A013301448B4228BF034696
:106B0000F4E700236382A368E360204604F11201E6
:106B10000222FFF7A2FFE37D0133E37520463146F1
:106B20002A46FFF79AFF638A03446382E37D23B911
:106B3000238A0344238270BD002070BD2DE9F041FB
:106B4000164605468846FFF77BFFB04228BF304611
:106B500086B23746D7B12C68AB8A696823445B1A82
:106B60009CB2BC4228BF3C462246404600F03CFF57
:106B70006B682968AA8A23440A44A0449342A7EB7D
:106B800004046B60A7B228BF6960E3E72EB1AB7D58
:106B9000DA0744BF23F00103AB753046BDE8F0814E
:106BA00070B51D46038A0446164623B9C27D0032DD
:106BB00018BF012200E000220A7062B1E27D013AB2
:106BC000E275204604F110010222FFF7B7FFE37DD2
:106BD0000BB9638A2382228AAA422046314628BF03
:106BE0002A46FFF7ABFF238A1B1A2382E37D13B9E2
:106BF000638A1B1A638270BDFEE70000094A0A49D6
:106C000008B5D2F8883043F47003C2F88830074BD7
:106C1000074A8B4204D252F8040F43F8040BF8E7FA
:106C2000F9F790FA00ED00E0C0000020100000200D
:106C30008099000008B5FEF779FE054BD3F80831BE
:106C4000C3F308230133B0FBF3F0024B186008BD17
:106C500000400E405000002081F0004102E000BFE3
:106C600083F0004330B54FEA41044FEA430594EA0C
:106C7000050F08BF90EA020F1FBF54EA000C55EA47
:106C8000020C7FEA645C7FEA655C00F0E2804FEA18
:106C90005454D4EB5555B8BF6D420CDD2C4480EAFA
:106CA000020281EA030382EA000083EA010180EA2A
:106CB000020281EA0303362D88BF30BD11F0004F78
:106CC0004FEA01314FF4801C4CEA113102D04042AE
:106CD00061EB410113F0004F4FEA03334CEA1333E9
:106CE00002D0524263EB430394EA050F00F0A78001
:106CF000A4F10104D5F1200E0DDB02FA0EFC22FAFC
:106D000005F2801841F1000103FA0EF2801843FAEF
:106D100005F359410EE0A5F120050EF1200E012AE0
:106D200003FA0EFC28BF4CF0020C43FA05F3C0181E
:106D300051EBE37101F0004507D54FF0000EDCF197
:106D4000000C7EEB00006EEB0101B1F5801F1BD340
:106D5000B1F5001F0CD349085FEA30004FEA3C0C44
:106D600004F101044FEA445212F5800F80F09A803A
:106D7000BCF1004F08BF5FEA500C50F1000041EB3E
:106D8000045141EA050130BD5FEA4C0C404141EB42
:106D9000010111F4801FA4F10104E9D191F0000F69
:106DA00004BF01460020B1FA81F308BF2033A3F1EC
:106DB0000B03B3F120020CDA0C3208DD02F1140CE3
:106DC000C2F10C0201FA0CF021FA02F10CE002F11E
:106DD0001402D8BFC2F1200C01FA02F120FA0CFC17
:106DE000DCBF41EA0C019040E41AA2BF01EB045160
:106DF000294330BD6FEA04041F3C1CDA0C340EDC5E
:106E000004F11404C4F1200220FA04F001FA02F3A0
:106E100040EA030021FA04F345EA030130BDC4F15E
:106E20000C04C4F1200220FA02F001FA04F340EA53
:106E30000300294630BD21FA04F0294630BD94F004
:106E4000000F83F4801306BF81F480110134013DEB
:106E50004EE77FEA645C18BF7FEA655C29D094EA5C
:106E6000050F08BF90EA020F05D054EA000C04BFDA
:106E70001946104630BD91EA030F1EBF00210020C5
:106E800030BD5FEA545C05D14000494128BF41F064
:106E9000004130BD14F580043CBF01F5801130BDC8
:106EA00001F0004545F0FE4141F470014FF0000053
:106EB00030BD7FEA645C1ABF194610467FEA655C04
:106EC0001CBF0B46024650EA013406BF52EA0335A6
:106ED00091EA030F41F4002130BD00BF90F0000F94
:106EE00004BF0021704730B54FF4806404F13204D0
:106EF0004FF000054FF0000150E700BF90F0000F89
:106F000004BF0021704730B54FF4806404F13204AF
:106F100010F0004548BF40424FF000013EE700BF7F
:106F200042004FEAE2014FEA31014FEA02701FBF0F
:106F300012F07F4393F07F4F81F06051704792F0E1
:106F4000000F14BF93F07F4F704730B54FF460745B
:106F500001F0004521F0004120E700BF50EA0102A6
:106F600008BF704730B54FF000050AE050EA010253
:106F700008BF704730B511F0004502D5404261EBC3
:106F800041014FF4806404F132045FEA915C3FF404
:106F9000DCAE4FF003025FEADC0C18BF03325FEA9D
:106FA000DC0C18BF033202EBDC02C2F1200300FA52
:106FB00003FC20FA02F001FA03FE40EA0E0021FA77
:106FC00002F11444C1E600BF70B54FF0FF0C4CF461
:106FD000E06C1CEA11541DBF1CEA135594EA0C0F17
:106FE00095EA0C0F00F0DEF82C4481EA030621EA52
:106FF0004C5123EA4C5350EA013518BF52EA03358D
:1070000041F4801143F4801338D0A0FB02CE4FF03E
:107010000005E1FB02E506F00042E0FB03E54FF06E
:107020000006E1FB03569CF0000F18BF4EF0010E66
:10703000A4F1FF04B6F5007F64F5407404D25FEA62
:107040004E0E6D4146EB060642EAC62141EA555115
:107050004FEAC52040EA5E504FEACE2EB4F1FD0C57
:1070600088BFBCF5E06F1ED8BEF1004F08BF5FEAD5
:10707000500E50F1000041EB045170BD06F0004687
:1070800046EA010140EA020081EA0301B4EB5C0434
:10709000C2BFD4EB0C0541EA045170BD41F480112C
:1070A0004FF0000E013C00F3AB8014F1360FDEBF51
:1070B000002001F0004170BDC4F10004203C35DA2D
:1070C0000C341BDC04F11404C4F1200500FA05F3B0
:1070D00020FA04F001FA05F240EA020001F0004251
:1070E00021F0004110EBD37021FA04F642EB0601C7
:1070F0005EEA430E08BF20EAD37070BDC4F10C04F1
:10710000C4F1200500FA04F320FA05F001FA04F2B4
:1071100040EA020001F0004110EBD37041F10001A0
:107120005EEA430E08BF20EAD37070BDC4F12005AB
:1071300000FA05F24EEA020E20FA04F301FA05F213
:1071400043EA020321FA04F001F0004121FA04F2BB
:1071500020EA020000EBD3705EEA430E08BF20EA8B
:10716000D37070BD94F0000F0FD101F000464000C5
:1071700041EB010111F4801F08BF013CF7D041EA47
:10718000060195F0000F18BF704703F0004652004B
:1071900043EB030313F4801F08BF013DF7D043EA1C
:1071A0000603704794EA0C0F0CEA135518BF95EAD2
:1071B0000C0F0CD050EA410618BF52EA4306D1D159
:1071C00081EA030101F000414FF0000070BD50EA78
:1071D000410606BF1046194652EA430619D094EA02
:1071E0000C0F02D150EA013613D195EA0C0F05D1EC
:1071F00052EA03361CBF104619460AD181EA030140
:1072000001F0004141F0FE4141F470014FF00000F7
:1072100070BD41F0FE4141F4780170BD70B54FF092
:10722000FF0C4CF4E06C1CEA11541DBF1CEA135512
:1072300094EA0C0F95EA0C0F00F0A7F8A4EB0504F4
:1072400081EA030E52EA03354FEA013100F08880EB
:107250004FEA03334FF0805545EA131343EA1263B4
:107260004FEA022245EA111545EA10654FEA002669
:107270000EF000419D4208BF964244F1FD0404F522
:10728000407402D25B084FEA3202B61A65EB03057E
:107290005B084FEA32024FF480104FF4002CB6EB3B
:1072A000020E75EB030E22BFB61A754640EA0C00BB
:1072B0005B084FEA3202B6EB020E75EB030E22BFFB
:1072C000B61A754640EA5C005B084FEA3202B6EB3C
:1072D000020E75EB030E22BFB61A754640EA9C00FB
:1072E0005B084FEA3202B6EB020E75EB030E22BFCB
:1072F000B61A754640EADC0055EA060E18D04FEA89
:10730000051545EA16754FEA06164FEAC30343EA28
:1073100052734FEAC2025FEA1C1CC0D111F4801FF5
:107320000BD141EA00014FF000004FF0004CB6E7EE
:1073300011F4801F04BF01430020B4F1FD0C88BF8D
:10734000BCF5E06F3FF6AFAEB5EB030C04BFB6EB98
:10735000020C5FEA500C50F1000041EB045170BD8B
:107360000EF0004E4EEA113114EB5C04C2BFD4EBB8
:107370000C0541EA045170BD41F480114FF0000E3C
:10738000013C90E645EA060E8DE60CEA135594EAB8
:107390000C0F08BF95EA0C0F3FF43BAF94EA0C0FBB
:1073A0000AD150EA01347FF434AF95EA0C0F7FF430
:1073B00025AF104619462CE795EA0C0F06D152EA84
:1073C00003353FF4FDAE1046194622E750EA410668
:1073D00018BF52EA43067FF4C5AE50EA41047FF479
:1073E0000DAF52EA43057FF4EBAE12E74A0011D22B
:1073F00012F5001211D20DD56FF47873B3EB62520F
:107400000ED44FEAC12343F0004343EA505323FA1A
:1074100002F070474FF00000704750EA013002D18F
:107420004FF0FF3070474FF00000704753B94AB932
:10743000002908BF00281CBF4FF0FF314FF0FF307C
:1074400000F03CB882B0EC462DE9005000F01EF888
:10745000DDF804E002B00CBC704700BF2DE9F0413C
:10746000069C154606460F46984600F029F805FB8F
:1074700001F300FB0838A5FB0023B21A434467EB75
:107480000303C4E90023BDE8F08100BF2DE9F0410A
:10749000069C904606460F461D4600F05FF900FB2D
:1074A00005F5A0FB082308FB0155B21A2B4467EB36
:1074B0000303C4E90023BDE8F08100BF704700BFAB
:1074C00000292DE9F043C0F2A6800026002BC0F26F
:1074D0009C80884694469E46154604460F46002BDF
:1074E0003DD18A4259D9B2FA82F33BB1C3F12002AD
:1074F0009F4020FA02F29D4017439C40290C220C29
:10750000B7FBF1FEA8B201FB1E7742EA074700FB7A
:107510000EF3BB420AD97F190EF1FF3280F00581CC
:10752000BB4240F20281AEF1020E2F44FF1AA4B218
:10753000B7FBF1F301FB137744EA074700FB03F0C5
:10754000B84208D97F1903F1FF3280F0F080B842C9
:1075500040F2ED80023B43EA0E43002203E08B42FF
:107560000FD900221346341C18BF012460424FF08B
:10757000000565EB45015840514000196941BDE8DF
:10758000F083B3FA83F2002A40F086808B4202D364
:10759000844500F2DB800123E5E712B90123B3FB48
:1075A000F2F5B5FA85F000283BD1781B4FEA154E6D
:1075B0001FFA85FC0122B0FBFEF8210C0EFB180718
:1075C00041EA07470CFB08F3BB4207D97F1908F1D2
:1075D000FF3102D2BB4200F2BD808846FF1AA4B23E
:1075E000B7FBFEF30EFB137744EA07470CFB03FCE3
:1075F000BC4507D97F1903F1FF3102D2BC4500F227
:10760000A7800B4643EA0843ADE752426FEA0606FD
:1076100063EB43035DE7404261EB41014FF0FF360E
:1076200054E7C0F1200224FA02F107FA00F3854082
:107630004FEA154ED7401943B7FBFEF20B0C0EFB79
:1076400012771FFA85FC43EA07430CFB02F79F42BF
:1076500004FA00F407D95B1902F1FF3074D29F429B
:1076600072D9023A2B44DF1B89B2B7FBFEF80EFB3E
:10767000187341EA03430CFB08F79F4208D95B19D2
:1076800008F1FF315CD29F425AD9A8F102082B447D
:10769000D81B48EA02428EE7C2F120032CFA03F11C
:1076A0000EFA02FE20FA03F741EA0E0E08FA02F083
:1076B00028FA03F14FEA1E453843B1FBF5F8030CF5
:1076C00005FB18111FFA8EF743EA014107FB08F387
:1076D0008B420CFA02FC09D911EB0E0108F1FF39BB
:1076E00030D28B422ED9A8F102087144C91A80B257
:1076F000B1FBF5F305FB131140EA014107FB03F76A
:107700008F4208D911EB0E0103F1FF3016D28F42E0
:1077100014D9023B714443EA0843C91BA3FB0C89FB
:10772000494509D305D000221DE79646FEE61346DB
:1077300011E794404445F6D2013BF4E70346EAE7FB
:107740008846A5E7C846D1E702468CE713460AE714
:10775000023B57E7A8F102082F443FE72DE9F0412B
:10776000002B44D18A42154604464FD9B2FA82F71B
:107770000E464FB1C7F12003B94020FA03F602FAD2
:1077800007F50E4300FA07F44FEA154E230CB6FB3B
:10779000FEF0AFB20EFB106143EA014307FB00F1BC
:1077A000994209D95B1900F1FF3280F0EC809942CF
:1077B00040F2E98002382B445A1AA4B2B2FBFEF31D
:1077C0000EFB132244EA024207FB03F7974208D953
:1077D000521903F1FF3180F0D880974240F2D580F2
:1077E000023B43EA004000263146BDE8F0818B426F
:1077F00047D8B3FA83F6002E48D18B4202D3824297
:1078000000F2CD8001203146BDE8F08112B901259A
:10781000B5FBF2F5B5FA85F8B8F1000F77D14A1B40
:107820004FEA154EAFB20126B2FBFEF0230C0EFB61
:10783000102143EA014107FB00F38B4207D94919A4
:1078400000F1FF3202D28B4200F2BA801046C91A10
:10785000A4B2B1FBFEF30EFB131144EA014407FB93
:1078600003F7A74208D9641903F1FF3280F08F8033
:10787000A74240F28C80023B43EA00403146BDE81B
:10788000F081002630463146BDE8F081C6F1200483
:1078900022FA04F5B3402B4320FA04FC01FA06F760
:1078A00021FA04F54FEA134E4CEA0707B5FBFEF840
:1078B000390C0EFB18551FFA83FC41EA05450CFBF9
:1078C00008F1A94202FA06F204D9ED1808F1FF34D2
:1078D00067D3A0466D1ABFB2B5FBFEF40EFB14557C
:1078E00047EA05410CFB04FC8C4504D9C91804F196
:1078F000FF355CD32C4644EA0844CCEB0101A4FBE1
:107900000223994248D344D0204600266CE7C8F1B0
:10791000200401FA08F305FA08F520FA04F7E1401B
:107920004FEA154E1F43B1FBFEF63A0C0EFB161143
:107930001FFA85FC42EA01430CFB06F29A4200FA68
:1079400008F407D95B1906F1FF3137D29A4235D9CD
:10795000023E2B449B1ABFB2B3FBFEF00EFB10336A
:1079600047EA03430CFB00F1994207D95B1900F188
:10797000FF3221D299421FD902382B445A1A40EAC9
:107980000646674650E7104616E70B4629E71346BA
:1079900072E7B0409042B7D2601E002624E730461E
:1079A00022E7A94295D9A8F102081D4492E78C4527
:1079B000A0D9023C19449EE71046DFE70E46C9E70E
:1079C0000238294443E700BF10B50A44441E9142DF
:1079D00008D014F8013F0878834201D0181A10BD6E
:1079E0000131F4E7002010BD10B5431E0A44914256
:1079F00004D011F8014B03F8014FF8E710BD8142A4
:107A000010B501EB020301D3421E0BE09842FBD2FA
:107A10008118D21AD34204D013F8014D01F8014D58
:107A2000F8E710BD994204D011F8014B02F8014F5C
:107A3000F8E710BD08B5074B044613B10021AFF3BA
:107A40000080054B1868836A03B198472046FEF70B
:107A500091FF00BF000000007499000070B50E4B4C
:107A60000E4CE41AA41000251E46A54204D056F878
:107A7000253098470135F8E700F01EF8084C094B0F
:107A8000E41AA41000251E46A54204D056F825305D
:107A900098470135F8E770BDB4000020B40000201D
:107AA000B8000020B400002002440346934202D0F4
:107AB00003F8011BFAE77047F8B500BFF8BC08BC33
:107AC0009E467047F8B500BFF8BC08BC9E4670479C
:107AD000D08F000002000000CD8F000002000000E7
:107AE000CA8F000002000000000000003990000072
:107AF0001000000028900000100000001790000007
:107B0000100000000690000010000000F58F00003B
:107B100010000000E48F000010000000D38F000070
:107B200010000000F8006D23441FEEFFF800F20E75
:107B30008E37FAFF7B00A40324A7FFFF4E00D60177
:107B4000AD34000025003001004D00001300C000DE
:107B5000CA4A00000B006E00F73C00000600380027
:107B60008A2B00006174745F73656E6446696E648D
:107B7000496E666F726D6174696F6E5273700066E4
:107B8000696E6442795479706556616C75655265A9
:107B90007100000008070A006174745F73656E6409
:107BA00046696E6442795479706556616C756552A8
:107BB0007370000013B779FAC925DDB7ADF3CFE0D4
:107BC000F1B614B800010000000000000000000041
:107BD000080000000000010100000000000000009B
:107BE0000000000000000000000000006174745FED
:107BF000706475009600FCFE247B00007772697447
:107C000065436D64000000008C00FCFE247C0000D5
:107C100066696E64496E666F726D6174696F6E52EB
:107C200065710000FFFF000000000000FC00D210A2
:107C30004C06FAFF81009B05F132FFFF5000620203
:107C40000B35000026004B01885F00001800E000A3
:107C50005E5D00000E008C006A4F000008005100BD
:107C6000F73C000083FFBFFFE2FFF1FFF9FFFEFFDB
:107C700000006174745F73656E644572726F725256
:107C80007370006174745F73656E644578636861D6
:107C90006E67654D7475527370006174745F7365BF
:107CA0006E64526561645273700065786368616EDA
:107CB00067654D74755265710072656164526571D6
:107CC000006174745F73656E645772697465527392
:107CD00070006174745F73656E64526561644279AB
:107CE00047726F7570547970655273700072656178
:107CF000644279547970655265710000000000009B
:107D000002989003029896030298FC060298FE01DE
:107D10000298B2030298D8030298B203029866044C
:107D20000298BC050298E4050298BC03029852062A
:107D30000298C8060298C2030763076390B9637983
:107D400000B902EC00CD114502EC00CC01DB06715C
:107D500002982C03411103B804D91C720731911207
:107D600010DA087102DD10721C7002B80698DC107F
:107D70003038127208B806986E0F00C02400084010
:107D8000207800F802EC00CA05B823DAEA7202ECA7
:107D900000C8911110D9167100C1001F00211411E3
:107DA00011500A7108DB06720AB8CC70076891118D
:107DB000173111402111C0311140011990B8411102
:107DC00008D90471627820D904726578273123DDDF
:107DD0000872C0DA0471607803B841110731087283
:107DE000A1152035927102DD1672A11120D988717A
:107DF000CCDA847206B8054DB27202982C032111B8
:107E00004049C0D93471A031411540350165514117
:107E10000361076308DA147204DA1E721049013430
:107E20000A7101DB147190B8677800C00D0F0C0D5A
:107E30000698DE1001D8087207B802987600CC3296
:107E4000204A00C0051708500698DE101130014284
:107E50000DDA6871208800C1DE1B250180BC04DAC0
:107E6000107208DA0A7200C120841000E024A024F5
:107E7000FFBB07634143016401DA06711E49024BEF
:107E800000C0501F002107633810BC2002DA1271B5
:107E900000B9FF21A11380DB087100C100FCFF01C4
:107EA00018100298B80200C3F81E0021341080D8C0
:107EB0004671EFBA0698940E00920362DDDA927270
:107EC000A11101D9327100C23810084024120423D4
:107ED000281302EC00C804D9167104BA18300871CE
:107EE0000060FD20012A02EC00C8FF22FA7604DCC3
:107EF000067218B8737890B8437802982C030698E5
:107F0000360900B8011A91101730011900C2020297
:107F100000000698960704D9067101B802A800C0AF
:107F2000F81E0021041380DB06710298380000C09F
:107F3000F8600840041101D9167100C05C000840C7
:107F4000041108D90A7100ED140CC820237801DB54
:107F50005E7100C2541F002124111114FF3402EC81
:107F600000C8FF24FA7607610698EC100361113807
:107F70000F3003611114011141100698EC1001D863
:107F8000087203B802987600042202DB16712410EE
:107F9000112811280698001100C218000840FF207F
:107FA0000812411007600698EC1001D8087120BC37
:107FB00010DB067202982C0300BB00C1501F002189
:107FC0001415C021112C5112076A0F320E7140880E
:107FD000511406985C034143009451120765036AEB
:107FE0000F320E714111511406985C03036C41432A
:107FF0000765513B00C10C1F0021141111123110F3
:108000000F30127100BA046101D80471114200608E
:108010000FD8F472311002601E30047201B8003AB9
:10802000087204B8029876000298A60100C0F860B1
:108030000840041101D91C7100C000600840041000
:10804000076008D80E7200C01040084004B918102C
:1080500000F80698920E00B8477800F830885088EB
:10806000FF34087102ECFF24F87002EC00CD14100C
:1080700001BB5150FFD8047131440760006B10DB25
:10808000F2710421FF22E4720F4C0095009300A0CE
:108090000698360900F80698360900C5981F002191
:1080A0005415069854050698720C00C59C1F0021B3
:1080B00000F80698360906986C0D1870069836096F
:1080C0000E70069836090698921006986C0D069860
:1080D0002E0606982C0C00F80698360910B902BA3C
:1080E000069898070698540500C59C1F002100F8C3
:1080F0009112033288B903DE44727179A11020D83D
:108100000C71069854050698720C6C7000C3F81E2A
:108110000021341380DB1A7100C3A8100840A11499
:108120001034024C481300BC4813911407644813E0
:108130008CBB627B40D80671517900BA076A00C0D7
:10814000A000084006984A04042008780978041121
:1081500021411810911102D90C7200C1701F002129
:1081600006985A0500A00698360900BD0698C40A6C
:1081700010B903DC047100B902BA0698980704D953
:10818000067100404272811008D810710698C40A26
:1081900003DC08720698FC07287006987605FFD85D
:1081A0000E7288B84778457800B8447844709110CA
:1081B00010D80E7100BB00C46C5008400698D00760
:1081C00020B802A800F800C0F81E0021041320DB2C
:1081D0002071911010D80E710760FFD808728CB80A
:1081E0004478947008DB9072A11328DB8A7203BD77
:1081F0000698480506986C0D00C5A01F002106983A
:10820000C40A00BA03DC3672042500C00C510840D1
:108210000698F608211400C0F8600840041001D840
:108220001C7200C0140008400410026804233411BA
:108230001128F823341106981811412A5415212DBC
:108240000698100B0298820F91100155033551507A
:10825000011900A000C16C1F0021141101D9167171
:1082600000C0246008400412215107610F310769E2
:108270001152281000A0811180D9067201B800A007
:1082800000C10C50084014100630307264211412E2
:10829000EC2114100760076040302072811080D8F4
:1082A000DC711410014A07620360803021508C4851
:1082B0000A717F2155211410013000A0069836095B
:1082C00006986C0D00BD0698480588B84778457833
:1082D00000B8447800C5A81F002154150698100B5B
:1082E0000298820F0698360900C4BC1F002144146E
:1082F0001DB3315B302C20750698DA0800C0600091
:1083000008400410016801D80E7100C064000840E4
:10831000237808B8657806987605FFD8067208B8FD
:10832000607800C2000002020698960700F800B9C3
:1083300000C29C10084018121C220AB9181288BAF0
:10834000911104310472487A507A517A8CB9427989
:1083500000A0069836090698C40A07DC0A7200C510
:108360009C1F002100F806982C0C01B9911004D82C
:10837000047100B900C2000002000698980700408E
:10838000207100C0F81E0021041120D9147107616A
:1083900001D9E0728110076001D8D8728CB8647876
:1083A00006982E0600C5AC1F0021541500C01C51B4
:1083B00008400698F608212D069854050698720C78
:1083C00000C5B01F002100F806983609811108D9B0
:1083D0000C710698FC0720B802A800F806982E0633
:1083E00000BD0698480588B84778457800B84478B5
:1083F00000C5B41F002154150298820FB110076008
:1084000001D80A7108B87F78020C7E780698360980
:1084100006982C0901F8911010D842710698280E80
:108420000698340E00C51C510840541100C5305048
:1084300008405412E82554151159112D06760122D1
:10844000212D00C1041F00211411112DD47518B85D
:1084500075788CB8447801B802A800F8B1100768A4
:1084600010D8307100C04810084000C30000084018
:1084700031146024282444113411076101D9FA71A0
:10848000441228100762281007622810076228107B
:10849000E8700298940D0C700698E00A1138047286
:1084A000076A00BB00C1081F002100C440510840FA
:1084B000141120391C72417B811220DA1272007C67
:1084C00000C46C50084000C200000101281400A044
:1084D0000698F00700C2F81E0021241240DA0C7240
:1084E000617B811220DA0472007C88BA527A00A083
:1084F00088BA727A811204DAFC7200A088B86B78AC
:1085000000C0640008402F7800A0B11001D80472A8
:1085100000A000C0287008400411108800C1001895
:1085200000401810442004111088A820041110885D
:108530004CBA757A18103DB11088F4B842784420CE
:108540007278D8207378E82073784FB200C4FFFFA8
:108550008080413A4FAA01BC01644113076300C007
:108560006C70084003B918100110011001B91810FF
:10857000011001100110011098200411076101B8C9
:108580000160003A0471044904D904724152076041
:10859000003A0471084908D9047231520460003B62
:1085A0000E7200630064314241424FAAB2704FAA7A
:1085B00044B801685378F8B8537840205278009155
:1085C0003DA9009100C01470084018100091582077
:1085D00018100091BC20181000A04024066400C0B0
:1085E000FFFF0000013C1DB0022001584028067525
:1085F0001EAC01EC00A000C21850084024111DB4AC
:10860000111324113051F871066C402404100158E4
:10861000112800C3901F002134110698181100B8CA
:108620008020013A0662215A412A00A000C20001BE
:108630000840317A00A0009000C6C01F00210088C9
:1086400001B007680F305CB111130F330111C0483E
:108650000698CA0A0698EA0700C4641F002103DDD1
:10866000167214BA00C0F8600840041001D80471F2
:1086700010BA281400A000BA03DF1E7100DF0672D2
:108680002814311953B080BB006B30380A7109DDF2
:1086900006710298AA0E00A04413281441150698EA
:1086A000E00A0060B83000C4E010084044120762DD
:1086B000013221400824287CF8255412F03240DE93
:1086C0000472404804DB3E7208D834710088108878
:1086D00000C0F8600840041001D8207100C10C519E
:1086E0000840141089218321141101581128D82021
:1086F0000A750091009008480A70009100900DDD05
:108700000C72044BEF30144806982C090088811134
:1087100040D91E72B1123032CF4A2138B1D812720C
:1087200008D8067104D80A719C24D424237C3470A0
:1087300098244412FF32C322047580B8D82481D80B
:10874000247140D90472237C084B04BA80DC067182
:1087500080D8367206B904A901D82E726424282460
:10876000307C4E7008D80C7107BA24D8047106BA50
:10877000187004D80C7101BA40D80E7102BA0A7090
:1087800005BA20D8047203BAE02444114024181416
:108790000761181491111831114200C1006008409E
:1087A000141110D90471404A2031114228140814C0
:1087B0000090308802480698FA0E009308DB047196
:1087C00000F800A05CB00F3000A01088B11107695C
:1087D00080D90A7100C1800008400811009100A0F2
:1087E00000C400010840441000A000C020300E402A
:1087F000041104101050F47200A000C028400E4074
:108800000413315107610C3107691153381000A06E
:108810000698400C00C0F41F002104110698FA0AC3
:10882000217A237A00C30000100006983A0B00C09A
:10883000781F00211DB1181000A0511400C0B81FEE
:1088400000210410012C0A7500B826A80698DA0841
:1088500000C0741F00211DB1181028B010B91159A3
:1088600011380EB9114028A880B800C14430084022
:10887000081100C1F01F00211410303B0671076081
:10888000076000C40830084044111150FF30015106
:1088900018146FB8076826A8217A050C211020202B
:1088A000267800C063EF0000314026A8050C20ECBC
:1088B000247A20EC217A184826A828B00AB9015158
:1088C0000F31115028A8050C207A20EC0F0C98B815
:1088D00046784178B11080D83E7100C04C300840D5
:1088E00000C16D01000018100D0E0D0E00C070309B
:1088F0000840041130311271082025782478960C34
:10890000F82004113031F272DC2000C106000000B2
:10891000181000B918100698EA0A00C2681F002152
:1089200024100151FF311150081200A00698400C8C
:1089300000B826A800C07C1F00211DB1181000A09F
:1089400030B840780DB101D9FC72427800C0743063
:108950000E4004114CBA407A1810EC2004115C7AD5
:108960001810A4BB707B4E7B4F7B00C204300840C4
:1089700000A00698400C217A227A00C0881F0021AE
:108980001DB1181000BB06983A0BA4BB00C04030C4
:108990000E400411033101492872B11207620762C7
:1089A0003020041121510F3118726E7B6F7BF02043
:1089B00004114CBA7C7A181014200411607A181033
:1089C000B11002D81071707B30B8627860780DB049
:1089D00001D8FC7100C0F8600840041101D91A7177
:1089E00000C0340008403078282000C1080014007E
:1089F0001810BC2002B9181008B86E780EB84EB125
:108A000010D90C723EA8140C0FB83EA8107044A8E0
:108A1000140C01B800C1B0300E40081100C07780BE
:108A20001F003DB201423DAA00C0FFFFFFFC013A1A
:108A30003DAA140C00C077E01F0001423DAA51B8C6
:108A400001687D7808B87E780698F00706980A08CD
:108A50000698EA0751140698DA08F4B845780A0C23
:108A600000C0841F00211DB1181000A051B801687A
:108A70005D7800C00000000344A83EA800C1B030EB
:108A80000E40081110B807683DB101393DA908B87A
:108A90006F7800A001F8541000DC127101140698E0
:108AA000DA0818B8707800B8417800F80298B00D6C
:108AB00000C0F8600840041301DB307100C00400FE
:108AC0000840041107310871142002B9181000C0C1
:108AD0005C5008400411076101D910710820287802
:108AE000190C08B97F79020C7E7900C5681F002136
:108AF00054155112FF350762FF320698EA0A0158F1
:108B000051280475015821281A7500C0F41F00214E
:108B100004100698340E02D80472FF0F01DBB07205
:108B2000CA7018B8727800F800C0F41F0021041051
:108B30001DB400A002D8047200A00698DA081DB483
:108B40002824408800C0047008400410FF3080DCF6
:108B50003C7106983A11015900C2EC1F00212415FE
:108B600050452A715412211006983A1111280A759D
:108B7000042554155045EE7200C01C6008447FB9AE
:108B800006611810113A48B97979281002B8009492
:108B900000A0EBBA00C0641F00210411113A10D9E3
:108BA000067118B97479281000A00698E00A00C46C
:108BB00064000840911509301A7188BB04350C72A5
:108BC00008D804716C7B2F7C0A7008D804716F7B05
:108BD000217C069892100698E00A00C464000840C0
:108BE00004D8127188BB043508726A7B2F7C06702A
:108BF0006D7B217C0698FA0A00B8B111076940D94B
:108C0000067202986C0F00BC08D90471202400C1C0
:108C10005C1F0021141200DC1C7120D8087101B8FF
:108C20000698760FF0DA0C720CDB087102B8069821
:108C3000760F482400C380000840FFB801200421BB
:108C4000141111410871014118130824014200C197
:108C5000383008401411014100C000600840041081
:108C600030300168014118132813481300B800C1BF
:108C70005C1F0021141203682150F03001522811AA
:108C800000A064BC066C415C512C0698DA08508840
:108C90000698F0030095B110076820D8207108B835
:108CA0006578911004D808720698FC0700F888B817
:108CB0006E7800C064000840217800F808B86C782D
:108CC00020B85A7859785B7800C0F440084078782A
:108CD000797800C0E81F0021041040A846A84EB0D3
:108CE00010D844724DB100C09FFFFFFF113840B152
:108CF00002D90A72604804BB41540870204802BB84
:108D000002BC4DA8F8B87078190C3EB141413EA99B
:108D1000F4B973797378717800C4F840084000C2E0
:108D200000410840227000C20000010044AA230C48
:108D300000C200000B0044AA00C41041084000C259
:108D40001841084004BB587C050C597C0C240F0CBE
:108D50002FAB050CB11008D81471647A657A1CB871
:108D600079787B7820B879787B78607CF42441131B
:108D700006982C0951140698DA08727B53B80168DA
:108D8000050C687840EC00C0801F00211DB1181050
:108D900000F8015053A800C0B860084004110761F2
:108DA000076180D9047240EC00C4F84008404EB01E
:108DB00010D80471182441130C23527C407B1151AC
:108DC0002FA9050C797C0A0C00C0000001020814D0
:108DD000787C050C507C08B86D7800A0115910D92A
:108DE00006710760076008D90471076004D904712F
:108DF000036002D90471016001D90471006000A010
:108E000010880411023006710761076100C0FFFF7E
:108E100000001138009100A000C2FFFF00002138BF
:108E2000213900BA01D806710148112A0069006091
:108E300001D8F6720138F67200A08020FF30FF489A
:108E4000812000A072656164427947726F75705429
:108E50007970655265710001000100000093000304
:108E60000201060A09004170704C6F61646572006E
:108E7000081B00020A01002573286F70436F6465A8
:108E80003D307825303278290A00257328666F72C4
:108E90006D61743D25642C2068616E646C653D30A5
:108EA00078253034782C2074797065290A00257370
:108EB0002873746172743D3078253034782C2065C5
:108EC0006E643D3078253034782C206C656E677484
:108ED000683D2564290A0025732868616E646C6505
:108EE0003D3078253034782C20656E6448616E649E
:108EF0006C653D307825303478290A002573286C5C
:108F0000656E6774683D2564290A002573286861C9
:108F10006E646C653D3078253034782C206C656E3D
:108F20006774683D2564290A00257328290A0025ED
:108F3000732868616E646C653D3078253034782C18
:108F400020656E643D3078253034782C206C656E59
:108F50006774683D2564290A002573286F70436F84
:108F600064653D3078253032782C2068616E646C01
:108F7000653D3078253034782C206572726F7243ED
:108F80006F64653D307825303278290A00257328D2
:108F90006D74753D2564290A002573287374617208
:108FA000743D3078253034782C20656E643D3078FF
:108FB00025303478290A0025732868616E646C6551
:108FC0003D307825303478290A00022900052A002E
:108FD000011800F8927AAC96CDA9BFF249C14A11A6
:108FE000CC770D00FE5A24E12BAAA5B2E94617E979
:108FF0000A5CF0250016531EC44CBAAD9D324B6876
:1090000008CF7BC04C009F3EE22E0ECFFFBF1E4517
:10901000CA8C68234A4F0053A1811F582CD0A54504
:1090200040FC34F327429800636032E0375EA48846
:10903000534E6DFB6435BFF700F01921B4478FA480
:10904000BFA14F63FDEED6141D006174745F73659C
:109050006E64526561644279547970655273700030
:109060007772697465526571000000007F9000009E
:10907000020000007C90000002000000002A0000B6
:10908000180000280000000082900000020000008C
:109090005465726D696E616C0052545400534547BB
:1090A0004745520003280000A49000000200000081
:1090B000030000000000800000000000A8930000F2
:1090C0000091000000000000809698000048E80130
:1090D00084910000809100001096000006000000BE
:1090E000030000000000400000000000D4950000D4
:1090F000F095000000000000082F86000048E801FD
:10910000C05D0000B20C000000000000410A000039
:109110000000280000000000000000000000000027
:1091200000000000809C2B8F80841E000000250022
:109130002500B4002800002000000000809C2B8F38
:1091400080841E00000026002600990028000020D0
:1091500000000000809C2B8F80841E000000000017
:1091600024002C012800002000000000809C2B8F90
:1091700080841E000000270027002C01280000200A
:10918000FFFFFFFFF01F03013F003700000000005A
:10919000B090000004000200018101000001000005
:1091A0001800020000000000010000002800070075
:1091B00000000000000000000000000000080000A7
:1091C0000000000000000000A007000048000100AF
:1091D0000000000054000200000000000000000039
:1091E000A0000400FF4C0000FF4C0000FF4D0000F9
:1091F000FF4D0000002001000807000010200100C2
:10920000AAAAAA00182001000060DA0008300100B4
:1092100013AC0001303002001149100001000000C1
:109220004030010000000000A04001007A27000F3C
:10923000B840010000C0E300F4400100201000002D
:109240003441020080080000E6870000404102002F
:10925000ED008800C0E6524D6041040000000000AF
:109260000000000006000000060000001460080076
:1092700010000000000000061FC00000C8600000D1
:1092800000D03200000000030000000000000000D9
:1092900050600600FC00690040080000010000006A
:1092A00091000800294176710000000078600C00F0
:1092B00008000C0000000000BE03220000000000B7
:1092C0000000000001040C1A2F46536168625849DF
:1092D00035201407C491A0635644332322529204CC
:1092E000E46007008000CD8C000000003790870C00
:1092F000B80BCA4A5D184A00015918008E6E829454
:1093000004610300874812003C374A5489BBC00AF5
:1093100020610100FFFF000028610100F1500643B9
:1093200030610C00E853FA0000000000000000006B
:10933000000000000000000000000000000000002D
:10934000010000000000000000000000000000001C
:109350000000000014700700F87202000003000013
:109360006000278400000000820000000000000070
:10937000D5000000487002003C3D0000BC19000010
:1093800070700300830000000F9C03000023550051
:10939000FFFFFFFFFFFFFFFFC49300009493000057
:1093A0002091000004000000183F01060410010095
:1093B0000001010600102700000C00000000000062
:1093C00000000000F01F03013F0037000000000014
:1093D000E090000004000200018101000001000093
:1093E0001800020000000000010000002800070033
:1093F0000000000000000000000000000008000065
:109400000000000000000000A0070000480001006C
:1094100000000000540002000000000000000000F6
:10942000A0000400FF4C0000FF4C0000FF4D0000B6
:10943000FF4D00000020010008070000102001007F
:10944000AAAAAA00182001000060DA000830010072
:1094500013AC000130300200E338100001000000BE
:109460004030010000000000A04001007A27000FFA
:10947000B840010000C08300F4400100201000004B
:109480003441020080080000E687000040410200ED
:109490006D008800C0E6524D6041040000000000ED
:1094A0000000000006000000060000001460080034
:1094B00010000000000000461FC00100C86000004E
:1094C0000080000000000003000000000000000019
:1094D0005060060018000500400800000900000068
:1094E00091000400294176710000000078600C00B2
:1094F0008C000C000000000014002200000000009E
:109500000000000001040B192C404C59605B5347CC
:1095100036251B114AF338966745231211090000BE
:10952000E460070093082E8C000000005A04020A31
:10953000D007CA4A51104800015918008E6E829413
:109540000461030017C711003C194A5489BB40004D
:1095500020610100FFFF000028610100F150044379
:1095600030610C00E853FA00000000000000000029
:1095700000000000000000000000000000000000EB
:1095800001000000000000000000000000000000DA
:109590000000000014700700F872020000030000D1
:1095A0006000A583000000008200000000000000B1
:1095B000D5000000487002003C3D0000BC190000CE
:1095C00070700300050100000F9C0300002355008C
:1095D000FFFFFFFF183F0106041001000001010614
:1095E00000102700000C0000000000000000000038
:1095F00050C300003421000000000000BE0A00003B
:109600000000280000000000000000000000000032
:1096100000000000809C2B8F80841E00000023002F
:109620002300B6002400002000000000809C2B8F47
:1096300080841E000000240024009D0024000020DF
:1096400000000000809C2B8F80841E0000002500FD
:1096500025007D002400002000000000809C2B8F4E
:1096600080841E00000026002600530024000020F5
:1096700000000000809C2B8F80841E0000000000F2
:1096800022002C012400002000000000809C2B8F71
:1096900080841E000000270027002C0124000020E9
:1096A00000000840000000216C656E677468526518
:1096B00071007068795265710001020304050607A4
:1096C00008090A0B0D0E0F10111213141516171896
:1096D000191A1B1C1D1E1F20212223242526000CC5
:1096E00027636F6E6E5F7465726D696E617465007D
:1096F000257328726561736F6E3D3078253032783E
:10970000290A002573286F70636F64653D25303228
:1097100078290A00257328696E7374616E743D257B
:1097200064290A002573286572726F72436F64653D
:109730003D2564290A002573286665617475726584
:109740005365743D30782530386C6C78290A0025D3
:1097500073286D617852784F63746574733D256426
:109760002C206D6178527854696D653D25642C20FC
:109770006D617854784F63746574733D25642C2053
:109780006D617852784F63746574733D2564290A5E
:109790000025732874785068793D30782530327808
:1097A0002C2072785068793D307825303278290A3B
:1097B000002573286D32735068793D30782530323A
:1097C000782C2073326D5068793D307825303278AE
:1097D0002C20696E7374616E743D2564290A0070D3
:1097E0006879557064617465496E64006C6C63706F
:1097F0005F706475006368616E6E656C4D61704981
:109800006E6400636F6E6E656374696F6E5570642D
:10981000617465496E64007465726D696E6174652A
:10982000496E640066656174757265526571000009
:109830000001020203030303636F6E6E5F646973CA
:10984000636F6E6E656374000302010A0302060A09
:109850000302010A0403020040787D0100000000B9
:10986000005A620200010000C0CF6A00020000003E
:10987000809FD50002010000406F400102020000FD
:10988000B814B6F1E0CFF3ADB7DD25C9FA79B71357
:109890002573287068793D307825303278290A00A0
:1098A00025732877696E4F66667365743D25642C51
:1098B0002077696E53697A653D25642C20696E7442
:1098C000657276616C3D25642C2074696D656F75D9
:1098D000743D2564290A002573286368616E6E65EE
:1098E0006C4D61703D25303278202530327820254E
:1098F00030327820253032782025303278290A001D
:109900006368616E6E656C4D6170557064617465FD
:1099100050726F63656475726500636F6E6E656328
:1099200074696F6E55706461746550726F636564BD
:109930007572650070687955706461746550726FF6
:1099400063656475726500257328696E7465727647
:10995000616C3D25642C2074696D656F75743D25BF
:1099600064290A00636F6E6E5F636F6E6E65637469
:10997000004300005400002000000000C867FF7F83
:109980000100000005050000FFFFFFFFFFFFFFFFD4
:10999000CD380000FFFF0000FFFFFFFFFFFFFFFFCC
:1099A00000000000FFFFFFFFFFFFFFFF95680000C2
:1099B00000000000FFFFFFFFFFFFFFFFC0CF6A00B6
:1099C000FF000000C0EA21010000000000000000CC
:1099D0000000000000000000000000000000000087
:1099E000000000000000000071990000000000006D
:1099F0000000000000000000000000000000000067
:109A00000000000000000000000000000000000056
:109A10000000000000000000000000000000000046
:109A200000000000000000000D010000E90000003F
:109A300000000000FFFFFFFFFFFFFFFFFFFFFFFF32
:109A4000FFFFFFFFFFFFFFFFFFFFFFFFFFFFFFFF26
:109A5000FFFFFFFFFFFFFFFFFFFFFFFFFFFFFFFF16
:109A6000FFFFFFFFFFFFFFFFFFFFFFFFFFFFFFFF06
:109A7000FFFFFFFFFFFFFFFFFFFFFFFFFFFFFFFFF6
:10A000000008002053A5020053F600006BF6000084
:10A0100083F600009BF60000B3F60000000000008D
:10A02000000000000000000000000000CBF600006F
:10A03000E3F6000000000000FBF6000013F700004C
:10A040007FE60000E95602000FFE000017FE000048
:10A05000F152020031570200EF560200F1560200A1
:10A06000EB5602006F0B0100130C0100571E01009C
:10A070003B1F0100572001009B20010037210100F8
:10A08000F72901001F2C01009B3E01007B400100CD
:10A09000DF830100138901000F8A0100B38A0100E8
:10A0A0004FA1010077A901000FB80100E3C0010032
:10A0B00033570200ED560200150C0100C3C5010024
:10A0C0006B57020043C70100C9A4020057C7010033
:10A0D0009BDF01005BF80100770D0200BB0E020060
:10A0E000675E02000000000013B779FAC925DDB7EA
:10A0F000ADF3CFE0F1B614B800010000000000009D
:10A10000000000002000000001000000000000002E
:10A11000000000000000000000000000000000003F
:10A12000000000000000000000000000000000002F
:10A13000000000000000000000000000000000001F
:10A14000000000000000000000000000000000000F
:10A1500000000000000000000000000000000000FF
:10A1600000000000000000000000000000000000EF
:10A1700000000000000000000000000000000000DF
:10A1800000000000000000000000000000000000CF
:10A1900000000000000000000000000000000000BF
:10A1A00000000000000000000000000000000000AF
:10A1B000000000000000000000000000000000009F
:10A1C000000000000000000000000000000000008F
:10A1D000000000000000000000000000000000007F
:10A1E000000000000000000000000000000000006F
:10A1F000000000000000000000000000000000005F
:10A2000002989003029896030298FC060298FE01B9
:10A210000298B2030298D8030298B2030298660427
:10A220000298BC050298E4050298BC030298520605
:10A230000298C8060298C2030763076390B963795E
:10A2400000B902EC00CD114502EC00CC01DB067137
:10A2500002982C03411103B804D91C7207319112E2
:10A2600010DA087102DD10721C7002B80698DC105A
:10A270003038127208B806986E0F00C024000840EB
:10A28000207800F802EC00CA05B823DAEA7202EC82
:10A2900000C8911110D9167100C1001F00211411BE
:10A2A00011500A7108DB06720AB8CC700768911168
:10A2B000173111402111C0311140011990B84111DD
:10A2C00008D90471627820D904726578273123DDBA
:10A2D0000872C0DA0471607803B84111073108725E
:10A2E000A1152035927102DD1672A11120D9887155
:10A2F000CCDA847206B8054DB27202982C03211193
:10A300004049C0D93471A0314115403501655141F2
:10A310000361076308DA147204DA1E72104901340B
:10A320000A7101DB147190B8677800C00D0F0C0D35
:10A330000698DE1001D8087207B802987600CC3271
:10A34000204A00C0051708500698DE10113001425F
:10A350000DDA6871208800C1DE1B250180BC04DA9B
:10A36000107208DA0A7200C120841000E024A024D0
:10A37000FFBB07634143016401DA06711E49024BCA
:10A3800000C0501F002107633810BC2002DA127190
:10A3900000B9FF21A11380DB087100C100FCFF019F
:10A3A00018100298B80200C3F81E0021341080D89B
:10A3B0004671EFBA0698940E00920362DDDA92724B
:10A3C000A11101D9327100C23810084024120423AF
:10A3D000281302EC00C804D9167104BA18300871A9
:10A3E0000060FD20012A02EC00C8FF22FA7604DC9E
:10A3F000067218B8737890B8437802982C030698C0
:10A40000360900B8011A91101730011900C2020272
:10A4100000000698960704D9067101B802A800C08A
:10A42000F81E0021041380DB06710298380000C07A
:10A43000F8600840041101D9167100C05C000840A2
:10A44000041108D90A7100ED140CC820237801DB2F
:10A450005E7100C2541F002124111114FF3402EC5C
:10A4600000C8FF24FA7607610698EC1003611138E2
:10A470000F3003611114011141100698EC1001D83E
:10A48000087203B802987600042202DB16712410C9
:10A49000112811280698001100C218000840FF205A
:10A4A0000812411007600698EC1001D8087120BC12
:10A4B00010DB067202982C0300BB00C1501F002164
:10A4C0001415C021112C5112076A0F320E714088E9
:10A4D000511406985C034143009451120765036AC6
:10A4E0000F320E714111511406985C03036C414305
:10A4F0000765513B00C10C1F0021141111123110CE
:10A500000F30127100BA046101D804711142006069
:10A510000FD8F472311002601E30047201B8003A94
:10A52000087204B8029876000298A60100C0F8608C
:10A530000840041101D91C7100C0006008400410DB
:10A54000076008D80E7200C01040084004B9181007
:10A5500000F80698920E00B8477800F830885088C6
:10A56000FF34087102ECFF24F87002EC00CD1410E7
:10A5700001BB5150FFD8047131440760006B10DB00
:10A58000F2710421FF22E4720F4C0095009300A0A9
:10A590000698360900F80698360900C5981F00216C
:10A5A0005415069854050698720C00C59C1F00218E
:10A5B00000F80698360906986C0D1870069836094A
:10A5C0000E70069836090698921006986C0D06983B
:10A5D0002E0606982C0C00F80698360910B902BA17
:10A5E000069898070698540500C59C1F002100F89E
:10A5F0009112033288B903DE44727179A11020D818
:10A600000C71069854050698720C6C7000C3F81E05
:10A610000021341380DB1A7100C3A8100840A11474
:10A620001034024C481300BC4813911407644813BB
:10A630008CBB627B40D80671517900BA076A00C0B2
:10A64000A000084006984A040420087809780411FC
:10A6500021411810911102D90C7200C1701F002104
:10A6600006985A0500A00698360900BD0698C40A47
:10A6700010B903DC047100B902BA0698980704D92E
:10A68000067100404272811008D810710698C40A01
:10A6900003DC08720698FC07287006987605FFD838
:10A6A0000E7288B84778457800B8447844709110A5
:10A6B00010D80E7100BB00C46C5008400698D0073B
:10A6C00020B802A800F800C0F81E0021041320DB07
:10A6D0002071911010D80E710760FFD808728CB8E5
:10A6E0004478947008DB9072A11328DB8A7203BD52
:10A6F0000698480506986C0D00C5A01F0021069815
:10A70000C40A00BA03DC3672042500C00C510840AC
:10A710000698F608211400C0F8600840041001D81B
:10A720001C7200C014000840041002680423341195
:10A730001128F823341106981811412A5415212D97
:10A740000698100B0298820F911001550335515055
:10A75000011900A000C16C1F0021141101D916714C
:10A7600000C0246008400412215107610F310769BD
:10A770001152281000A0811180D9067201B800A0E2
:10A7800000C10C50084014100630307264211412BD
:10A79000EC2114100760076040302072811080D8CF
:10A7A000DC711410014A07620360803021508C482C
:10A7B0000A717F2155211410013000A00698360936
:10A7C00006986C0D00BD0698480588B8477845780E
:10A7D00000B8447800C5A81F002154150698100B36
:10A7E0000298820F0698360900C4BC1F0021441449
:10A7F0001DB3315B302C20750698DA0800C060006C
:10A8000008400410016801D80E7100C064000840BF
:10A81000237808B8657806987605FFD8067208B8D8
:10A82000607800C2000002020698960700F800B99E
:10A8300000C29C10084018121C220AB9181288BACB
:10A84000911104310472487A507A517A8CB9427964
:10A8500000A0069836090698C40A07DC0A7200C5EB
:10A860009C1F002100F806982C0C01B9911004D807
:10A87000047100B900C20000020006989807004069
:10A88000207100C0F81E0021041120D91471076145
:10A8900001D9E0728110076001D8D8728CB8647851
:10A8A00006982E0600C5AC1F0021541500C01C518F
:10A8B00008400698F608212D069854050698720C53
:10A8C00000C5B01F002100F806983609811108D98B
:10A8D0000C710698FC0720B802A800F806982E060E
:10A8E00000BD0698480588B84778457800B8447890
:10A8F00000C5B41F002154150298820FB1100760E3
:10A9000001D80A7108B87F78020C7E78069836095B
:10A9100006982C0901F8911010D842710698280E5B
:10A920000698340E00C51C510840541100C5305023
:10A9300008405412E82554151159112D06760122AC
:10A94000212D00C1041F00211411112DD47518B838
:10A9500075788CB8447801B802A800F8B11007687F
:10A9600010D8307100C04810084000C300000840F3
:10A9700031146024282444113411076101D9FA717B
:10A980004412281007622810076228100762281056
:10A99000E8700298940D0C700698E00A1138047261
:10A9A000076A00BB00C1081F002100C440510840D5
:10A9B000141120391C72417B811220DA1272007C42
:10A9C00000C46C50084000C200000101281400A01F
:10A9D0000698F00700C2F81E0021241240DA0C721B
:10A9E000617B811220DA0472007C88BA527A00A05E
:10A9F00088BA727A811204DAFC7200A088B86B7887
:10AA000000C0640008402F7800A0B11001D8047283
:10AA100000A000C0287008400411108800C1001870
:10AA200000401810442004111088A8200411108838
:10AA30004CBA757A18103DB11088F4B842784420A9
:10AA40007278D8207378E82073784FB200C4FFFF83
:10AA50008080413A4FAA01BC01644113076300C0E2
:10AA60006C70084003B918100110011001B91810DA
:10AA7000011001100110011098200411076101B8A4
:10AA80000160003A0471044904D90472415207601C
:10AA9000003A0471084908D9047231520460003B3D
:10AAA0000E7200630064314241424FAAB2704FAA55
:10AAB00044B801685378F8B8537840205278009130
:10AAC0003DA9009100C01470084018100091582052
:10AAD00018100091BC20181000A04024066400C08B
:10AAE000FFFF0000013C1DB0022001584028067500
:10AAF0001EAC01EC00A000C21850084024111DB487
:10AB0000111324113051F871066C402404100158BF
:10AB1000112800C3901F002134110698181100B8A5
:10AB20008020013A0662215A412A00A000C2000199
:10AB30000840317A00A0009000C6C01F00210088A4
:10AB400001B007680F305CB111130F330111C04819
:10AB50000698CA0A0698EA0700C4641F002103DDAC
:10AB6000167214BA00C0F8600840041001D80471CD
:10AB700010BA281400A000BA03DF1E7100DF0672AD
:10AB80002814311953B080BB006B30380A7109DDCD
:10AB900006710298AA0E00A04413281441150698C5
:10ABA000E00A0060B83000C4E010084044120762B8
:10ABB000013221400824287CF8255412F03240DE6E
:10ABC0000472404804DB3E7208D834710088108853
:10ABD00000C0F8600840041001D8207100C10C5179
:10ABE0000840141089218321141101581128D820FC
:10ABF0000A750091009008480A70009100900DDDE0
:10AC00000C72044BEF30144806982C09008881110F
:10AC100040D91E72B1123032CF4A2138B1D81272E7
:10AC200008D8067104D80A719C24D424237C34707B
:10AC300098244412FF32C322047580B8D82481D8E6
:10AC4000247140D90472237C084B04BA80DC06715D
:10AC500080D8367206B904A901D82E72642428243B
:10AC6000307C4E7008D80C7107BA24D8047106BA2B
:10AC7000187004D80C7101BA40D80E7102BA0A706B
:10AC800005BA20D8047203BAE024441140241814F1
:10AC90000761181491111831114200C10060084079
:10ACA000141110D90471404A20311142281408149B
:10ACB0000090308802480698FA0E009308DB047171
:10ACC00000F800A05CB00F3000A01088B111076937
:10ACD00080D90A7100C1800008400811009100A0CD
:10ACE00000C400010840441000A000C020300E4005
:10ACF000041104101050F47200A000C028400E404F
:10AD00000413315107610C3107691153381000A049
:10AD10000698400C00C0F41F002104110698FA0A9E
:10AD2000217A237A00C30000100006983A0B00C075
:10AD3000781F00211DB1181000A0511400C0B81FC9
:10AD400000210410012C0A7500B826A80698DA081C
:10AD500000C0741F00211DB1181028B010B911597E
:10AD600011380EB9114028A880B800C144300840FD
:10AD7000081100C1F01F00211410303B067107605C
:10AD8000076000C40830084044111150FF300151E1
:10AD900018146FB8076826A8217A050C2110202006
:10ADA000267800C063EF0000314026A8050C20EC97
:10ADB000247A20EC217A184826A828B00AB9015133
:10ADC0000F31115028A8050C207A20EC0F0C98B8F0
:10ADD00046784178B11080D83E7100C04C300840B0
:10ADE00000C16D01000018100D0E0D0E00C0703076
:10ADF0000840041130311271082025782478960C0F
:10AE0000F82004113031F272DC2000C1060000008D
:10AE1000181000B918100698EA0A00C2681F00212D
:10AE200024100151FF311150081200A00698400C67
:10AE300000B826A800C07C1F00211DB1181000A07A
:10AE400030B840780DB101D9FC72427800C074303E
:10AE50000E4004114CBA407A1810EC2004115C7AB0
:10AE60001810A4BB707B4E7B4F7B00C2043008409F
:10AE700000A00698400C217A227A00C0881F002189
:10AE80001DB1181000BB06983A0BA4BB00C040309F
:10AE90000E400411033101492872B11207620762A2
:10AEA0003020041121510F3118726E7B6F7BF0201E
:10AEB00004114CBA7C7A181014200411607A18100E
:10AEC000B11002D81071707B30B8627860780DB024
:10AED00001D8FC7100C0F8600840041101D91A7152
:10AEE00000C0340008403078282000C10800140059
:10AEF0001810BC2002B9181008B86E780EB84EB100
:10AF000010D90C723EA8140C0FB83EA8107044A8BB
:10AF1000140C01B800C1B0300E40081100C0778099
:10AF20001F003DB201423DAA00C0FFFFFFFC013AF5
:10AF30003DAA140C00C077E01F0001423DAA51B8A1
:10AF400001687D7808B87E780698F00706980A08A8
:10AF50000698EA0751140698DA08F4B845780A0CFE
:10AF600000C0841F00211DB1181000A051B8016855
:10AF70005D7800C00000000344A83EA800C1B030C6
:10AF80000E40081110B807683DB101393DA908B855
:10AF90006F7800A001F8541000DC127101140698BB
:10AFA000DA0818B8707800B8417800F80298B00D47
:10AFB00000C0F8600840041301DB307100C00400D9
:10AFC0000840041107310871142002B9181000C09C
:10AFD0005C5008400411076101D9107108202878DD
:10AFE000190C08B97F79020C7E7900C5681F002111
:10AFF00054155112FF350762FF320698EA0A0158CC
:10B0000051280475015821281A7500C0F41F002129
:10B0100004100698340E02D80472FF0F01DBB072E0
:10B02000CA7018B8727800F800C0F41F002104102C
:10B030001DB400A002D8047200A00698DA081DB45E
:10B040002824408800C0047008400410FF3080DCD1
:10B050003C7106983A11015900C2EC1F00212415D9
:10B0600050452A715412211006983A1111280A7578
:10B07000042554155045EE7200C01C6008447FB989
:10B0800006611810113A48B97979281002B800946D
:10B0900000A0EBBA00C0641F00210411113A10D9BE
:10B0A000067118B97479281000A00698E00A00C447
:10B0B00064000840911509301A7188BB04350C7280
:10B0C00008D804716C7B2F7C0A7008D804716F7BE0
:10B0D000217C069892100698E00A00C4640008409B
:10B0E00004D8127188BB043508726A7B2F7C067005
:10B0F0006D7B217C0698FA0A00B8B111076940D926
:10B10000067202986C0F00BC08D90471202400C19B
:10B110005C1F0021141200DC1C7120D8087101B8DA
:10B120000698760FF0DA0C720CDB087102B80698FC
:10B13000760F482400C380000840FFB80120042196
:10B14000141111410871014118130824014200C172
:10B15000383008401411014100C00060084004105C
:10B1600030300168014118132813481300B800C19A
:10B170005C1F0021141203682150F0300152281185
:10B1800000A064BC066C415C512C0698DA0850881B
:10B190000698F0030095B110076820D8207108B810
:10B1A0006578911004D808720698FC0700F888B8F2
:10B1B0006E7800C064000840217800F808B86C7808
:10B1C00020B85A7859785B7800C0F4400840787805
:10B1D000797800C0E81F0021041040A846A84EB0AE
:10B1E00010D844724DB100C09FFFFFFF113840B12D
:10B1F00002D90A72604804BB41540870204802BB5F
:10B2000002BC4DA8F8B87078190C3EB141413EA976
:10B21000F4B973797378717800C4F840084000C2BB
:10B2200000410840227000C20000010044AA230C23
:10B2300000C200000B0044AA00C41041084000C234
:10B240001841084004BB587C050C597C0C240F0C99
:10B250002FAB050CB11008D81471647A657A1CB84C
:10B2600079787B7820B879787B78607CF4244113F6
:10B2700006982C0951140698DA08727B53B80168B5
:10B28000050C687840EC00C0801F00211DB118102B
:10B2900000F8015053A800C0B860084004110761CD
:10B2A000076180D9047240EC00C4F84008404EB0F9
:10B2B00010D80471182441130C23527C407B115187
:10B2C0002FA9050C797C0A0C00C0000001020814AB
:10B2D000787C050C507C08B86D7800A0115910D905
:10B2E00006710760076008D90471076004D904710A
:10B2F000036002D90471016001D90471006000A0EB
:10B3000010880411023006710761076100C0FFFF59
:10B3100000001138009100A000C2FFFF000021389A
:10B32000213900BA01D806710148112A006900606C
:10B3300001D8F6720138F67200A08020FF30FF4875
:10B34000812000A0510400000028012803280018D3
:10B35000002A012A0A18292A242A232A0118052A40
:10B3600002290000F01921B4478FA4BFA14F63FD4B
:10B37000EED6141D636032E0375EA488534E6DFB39
:10B380006435BFF708020000000000001300081336
:10B3900000636032E0375EA488534E6DFB6435BFB6
:10B3A000F70000001000F01921B4478FA4BFA14F8F
:10B3B00063FDEED6141D0000060000010203040523
:10B3C0000500021000232A000A00426C7565204720
:10B3D00065636B6F0500020E00242A000C005369A0
:10B3E0006C69636F6E204C61627300000500020C93
:10B3F00000292A0002000A180200000005000209C4
:10B4000000012A000A010D004008002005000A077B
:10B4100000002A0002000018200004003044002030
:10B420000500200300052A000200011800000108A1
:10B43000FFFF000028B4000002000108FFFF000029
:10B4400020B400000B000008FFFF000118B400004A
:10B450000C000708FFFF00030200000000000108C5
:10B46000FFFF000014B4000002000108FFFF00000D
:10B470000CB4000004000308FFFF000104B4000046
:10B4800002000108FFFF0000FCB3000005000108F6
:10B49000FFFF0000F8B3000000000108FFFF0000FC
:10B4A000F4B3000002000108FFFF0000ECB300004D
:10B4B00007000108FFFF0000DCB3000002000108E4
:10B4C000FFFF0000D4B3000008000108FFFF0000E8
:10B4D000C8B3000002000108FFFF0000C0B3000075
:10B4E00009000108FFFF0000B8B3000000000108D8
:10B4F000FFFF0000A4B3000002000108FFFF0000EE
:10B500008CB3000001800208FFFF000784B3000035
:10B5100003000700130000002CB40000130000001B
:10B520000D00000048B300000200000064B30000FA
:10B530000300000010B500003E6D02000000000096
:10B540003F6D020000000000FFFFFFFF40787D011B
:10B5500000000000005A620200010000C0CF6A0033
:10B5600002000000809FD50002010000406F4001F2
:10B5700002020000010000000000000004000000C2
:10B5800001000000080000000100000010000000A1
:10B5900001000000000100000100000000080000A0
:10B5A0001D000000000200001D000000000400005B
:10B5B0001D000000000001001D000000050000004B
:10B5C0000000000040420F000501000000000000E4
:10B5D00000000000000108070F000A00C80020005A
:10B5E000A0000100010000000500000000000000B4
:10B5F000000000000000000000000000A000680142
:10B600000A200706020A04070000000000020700E3
:10B610004F5441000000000004000000040000003E
:10B6200058190020A8196400000000000000000064
:10B6300018B500000000000000000000000000003D
:10B64000000000000300000010B600000000000031
:10B6500002000000006A180006010C00000006014C
:10B660000D000000000109000001100000000000B2
:10B670000100020015005400A9005301A7024F0564
:10B680009F0A0000FC00D80A066CFBFF9D003705EE
:10B6900018E2FEFF75000403F5E3FFFF4900B9015E
:10B6A0009D43000035005701F85700001600D100F7
:10B6B000585700000E007C00D049000008004B00E5
:10B6C00028390000F8006C0B78DEFAFF9F00F104C7
:10B6D0004EEAFEFF7500DF0248DEFFFF4C00C301AB
:10B6E0008D33000024001901E44B00001300AC006E
:10B6F000904A00000C006C00B13F000007004300BE
:10B7000046320000C800FCFEC4B60000C800FCFEC3
:10B7100084B6000083FFBFFFE2FFF1FFF9FFFEFFE9
:10B7200000000000FFFF000000000000FC00D2103D
:10B730004C06FAFF81009B05F132FFFF50006202C8
:10B740000B35000026004B01885F00001800E00068
:10B750005E5D00000E008C006A4F00000800510082
:10B76000F73C0000F8006D23441FEEFFF800F20ED6
:10B770008E37FAFF7B00A40324A7FFFF4E00D601FB
:10B78000AD34000025003001004D00001300C00062
:10B79000CA4A00000B006E00F73C000006003800AB
:10B7A0008A2B00009600FCFE64B700008C00FCFEB3
:10B7B00024B7000083FFBFFFE2FFF1FFF9FFFEFFA8
:10B7C0000000000001000000040000000100000073
:10B7D000040000000000050003000200010000005A
:10B7E000F4010000FA000000960000006400000070
:10B7F0004B000000320000001E000000140000009A
:10B800000000000001010000010100003C00940064
:10B810003C0096000000000027340100773401004E
:10B820008334010000000000002800000000000038
:10B8300002000000000000000028000000000000DE
:10B840001000000000010204131510801B801280FC
:10B85000800000000F0E0C080C080D1810000000EE
:10B8600000000000500040002800010000085000C7
:10B8700024001800010000046C888391AAF5A53803
:10B8800060370BDB5A6083BE3F49F6D4A3C55F38EF
:10B8900074C9B3E3D2103F504AFF607BEB40B799C5
:10B8A0005899B8A6CD3C1ABDE69D350E480103CC8B
:10B8B000DBFDF4AC1191F4EFB9A5F9E9A7832C5E97
:10B8C0002CBE97F2D203B0208BD28915D08E1C7477
:10B8D0002430ED8FC24563765C15525ABF9A3263AD
:10B8E0006DEB2A65499C80DC00000100010000012D
:10B8F0000001020203000200000000000202010039
:10B900000200000000000100010005010005020224
:10B910000300020000000000020501000500000015
:10B9200050C300003421000000000000BE0A0000E7
:10B9300000002800000000000000000000000000DF
:10B9400000000000809C2B8F80841E0000002500DA
:10B950002500B400A408002000000000809C2B8F6C
:10B9600080841E000000260026009900A408002004
:10B9700000000000809C2B8F80841E0000000000CF
:10B9800024002C01A408002000000000809C2B8FC4
:10B9900080841E000000270027002C01A40800203E
:10B9A000C05D0000B20C000000000000410A000071
:10B9B000000028000000000000000000000000005F
:10B9C00000000000809C2B8F80841E00000023005C
:10B9D0002300B600A808002000000000809C2B8FE8
:10B9E00080841E000000240024009D00A808002080
:10B9F00000000000809C2B8F80841E00000025002A
:10BA000025007D00A808002000000000809C2B8FEE
:10BA100080841E000000260026005300A808002095
:10BA200000000000809C2B8F80841E00000000001E
:10BA300022002C01A808002000000000809C2B8F11
:10BA400080841E000000270027002C01A808002089
:10BA5000000001020200000000000F400100000091
:10BA6000FFFFFFFFFFFFFFFFFFFFFFFF00000000E2
:10BA7000000000000000000001000000FFFFFFFFC9
:10BA80004B60D2273E3CCE3BF6B053CCB0061D6592
:10BA9000BC86987655BDEBB3E7933AAAD835C65A1B
:10BAA00096C298D84539A1F4A033EB2D817D037758
:10BAB000F240A463E5E6BCF847422CE1F2D1176BF3
:10BAC000F551BF376840B6CBCE5E316B5733CE2BC6
:10BAD000169E0F7C4AEBE78E9B7F1AFEE242E34FF5
:10BAE000512563FCC2CAB9F3849E17A7ADFAE6BC20
:10BAF000FFFFFFFFFFFFFFFF00000000FFFFFFFF52
:10BB0000183F010604100100000101060010270083
:10BB1000000C00000000000000000000183F0106BB
:10BB2000041001000001010600102700000C0000B5
:10BB300000000000000000000300000000004000C2
:10BB40000000000000BB000020B900000000000061
:10BB5000082F86000048E801030000000000800074
:10BB6000000000001CBB0000A0B9000000000000A5
:10BB7000809698000048E801F01F03013F0037005D
:10BB80000000000038BB0000040002000181010039
:10BB90000001000018000200000000000100000089
:10BBA0002800070000000000000000000000000066
:10BBB000000800000000000000000000A0070000D6
:10BBC00048000100000000005400020000000000D6
:10BBD00000000000A0000400FF4C0000FF4C00002B
:10BBE000FF4D0000FF4D000000200100080700008D
:10BBF00010200100AAAAAA00182001000060DA00A3
:10BC00000830010013AC000130300200E3381000AE
:10BC1000010000004030010000000000A0400100D1
:10BC20007A27000FB840010000C08300F4400100F3
:10BC3000201000003441020080080000E687000068
:10BC4000404102006D008800C0E6524D6041040092
:10BC500000000000000000000600000006000000D8
:10BC60001460080010000000000000461FC0010022
:10BC7000C860000000800000000000030000000019
:10BC80000000000050600600180005004008000099
:10BC900009000000910004002941767100000000B5
:10BCA00078600C008C000C000000000014002200E2
:10BCB000000000000000000001040B192C404C594A
:10BCC000605B534736251B114AF3389667452312AC
:10BCD00011090000E460070093082E8C00000000AA
:10BCE0005A04020AD007CA4A5110480001591800E4
:10BCF0008E6E82940461030017C711003C194A54E8
:10BD000089BB400020610100FFFF000028610100A5
:10BD1000F150044330610C00E853FA0000000000C9
:10BD20000000000000000000000000000000000013
:10BD30000000000001000000000000000000000002
:10BD4000000000000000000014700700F8720200FC
:10BD5000000300006000A5830000000082000000D6
:10BD600000000000D5000000487002003C3D0000CB
:10BD7000BC19000070700300050100000F9C030057
:10BD800000235500FFFFFFFFFFFFFFFFF01F030130
:10BD90003F0037000000000058BB00000400020014
:10BDA00001810100000100001800020000000000F5
:10BDB0000100000028000700000000000000000053
:10BDC000000000000008000000000000000000006B
:10BDD000A00700004800010000000000540002001D
:10BDE0000000000000000000A0000400FF4C000064
:10BDF000FF4C0000FF4D0000FF4D0000002001003F
:10BE00000807000010200100AAAAAA0018200100BB
:10BE10000060DA000830010013AC0001303002008D
:10BE20001149100001000000403001000000000036
:10BE3000A04001007A27000FB840010000C0E300D5
:10BE4000F44001002010000034410200800800008E
:10BE5000E687000040410200ED008800C0E6524D38
:10BE60006041040000000000000000000600000027
:10BE7000060000001460080010000000000000062A
:10BE80001FC00000C860000000D0320000000003A6
:10BE9000000000000000000050600600FC00690087
:10BEA000400800000100000091000800294176715F
:10BEB0000000000078600C0008000C00000000008A
:10BEC000BE032200000000000000000001040C1A64
:10BED0002F4653616862584935201407C491A06306
:10BEE0005644332322529204E46007008000CD8C34
:10BEF000000000003790870CB80BCA4A5D184A0052
:10BF0000015918008E6E8294046103008748120064
:10BF10003C374A5489BBC00A20610100FFFF000082
:10BF200028610100F150064330610C00E853FA002B
:10BF30000000000000000000000000000000000001
:10BF400000000000000000000100000000000000F0
:10BF50000000000000000000000000001470070056
:10BF6000F872020000030000600027840000000057
:10BF70008200000000000000D500000048700200B0
:10BF80003C3D0000BC1900007070030083000000FD
:10BF90000F9C030000235500FFFFFFFFFFFFFFFF83
:10BFA0004145532D3132382D454342004145532DF3
:10BFB0003139322D454342004145532D3235362D1E
:10BFC000454342004145532D3132382D43545200F0
:10BFD0004145532D3139322D435452004145532DA3
:10BFE0003235362D43545200020000006BA502008A
:10BFF0006FA502008BA5020087A502008FA5020095
:10C00000A9A502000201000080000000A0BF0000FE
:10C01000100000000000000010000000E8BF000059
:10C0200003010000C0000000ACBF000010000000D1
:10C030000000000010000000E8BF00000401000044
:10C0400000010000B8BF0000100000000000000068
:10C0500010000000E8BF00000B0500008000000099
:10C06000C4BF00001000000000000000100000002D
:10C07000E8BF00000C050000C0000000D0BF0000B9
:10C08000100000000000000010000000E8BF0000E9
:10C090000D05000000010000DCBF000010000000E2
:10C0A0000000000010000000E8BF000002000000D7
:10C0B00004C000000300000020C0000004000000D5
:10C0C0003CC000000B00000058C000000C00000045
:10C0D00074C000000D00000090C0000000000000CF
:10C0E000000000008B0013EB401313F184431A602F
:10C0F00070470200880010EB421010F18440006885
:10C10000704710F1C0621160704710F180621160D9
:10C11000704770B504000D00160029002000FFF7DD
:10C12000F4FF31002000FFF7ECFF70BD202801D2A2
:10C13000012100E00021C9B2012111FA00F070478D
:10C1400080B51221DFF80006FFF7D3FF0028F8D1F1
:10C1500001BD80B5FFF7F4FFDFF8EC050068000CC7
:10C1600010F0030002BD70B5040001200500DFF8E7
:10C17000DC05844204D2002005000020060008E00F
:10C18000DFF8CC05844202D20120060001E0022043
:10C1900006002A001021DFF8BC05FFF7A3FFDFF837
:10C1A0000807006830F0807050EA0660DFF8F81683
:10C1B000086070BDDFF8F41609680800704710B514
:10C1C00001F06AF80400DFF8E0060068C0F304201C
:10C1D000401C00FB04F010BD38B5DFF8D40600F0B9
:10C1E000BBFA0500EDB22800072805D0092807D1C1
:10C1F00001F052F8040005E0FFF7DCFF040001E065
:10C2000000200400200032BD70B50400002C0FD1C6
:10C21000DFF8A00600F0A0FA0600F6B23000012810
:10C2200008D004280DD0072807D008280DD010E02A
:10C23000002011E0002005000DE0FFF7BBFF050026
:10C2400009E001F04BF8050005E0FFF7B8FF050035
:10C2500001E000200500280070BD30B4DFF858363A
:10C260001B6813F040731A0000242300052B10D222
:10C27000DFF8484604EBC30424790D00EDB2AC426C
:10C2800005D1DFF8384654F83340844201D25B1CB4
:10C29000ECE7052B02D10324220005E0DFF81C4661
:10C2A00004EBC304647922001206DFF80C4624680C
:10C2B00034F040741443DFF800562C6030BC7047F3
:10C2C00010B5DFF8FC050068002801D0012400E06B
:10C2D000002441F67130DFF8E815086000F0DAFF5D
:10C2E0000021FFF7BAFFE4B2002C03D00020DFF8F2
:10C2F000D015086010BD70B504000D00DFF8C00552
:10C300000068002801D0012600E0002641F67130C7
:10C31000DFF8AC15086029002000FFF79EFFF6B299
:10C32000002E03D00020DFF89815086070BD0100D2
:10C330000F22CB1C934201D2C81C00E01000000762
:10C340007047DFF880050068C0F301107047DFF820
:10C350007415096831F0300151EA0011DFF86425E5
:10C3600011607047F8B5040000262000DFF858156A
:10C37000884207D0DFF85415884203D0DFF8501503
:10C38000884200D1FFE7200000F0E6F90500200018
:10C39000DFF83415884208D0DFF8301588420BD01A
:10C3A000DFF82C1588420ED014E0DFF8280500686D
:10C3B00010F0070005000DE0DFF81C05006810F024
:10C3C0000700050006E0DFF81405006810F007001C
:10C3D0000500FFE7002D21D0022D08D003D3042D46
:10C3E00009D00CD31DE000F090FF06001BE000F028
:10C3F00092FF060017E000F08BFF060013E000F04C
:10C4000039FF0700DFF8A0040068C0F30060401C9B
:10C41000FFF78CFEB7FBF0F0060004E000200600FA
:10C4200001E0002006003000F2BDDFF8B414096816
:10C43000C90704D4DFF8F01609680142FAD1704741
:10C4400010B50400200000F001F9401C10BD2DE9DA
:10C45000F04104000D005FF00008200A10F00F000A
:10C4600001280CD0022812D005280CD0062812D0A2
:10C47000072816D009281AD00A281FD022E0DFF892
:10C48000D40206001FE0DFF8A40606001BE0DFF878
:10C49000A006060017E0DFF89C0606000120804693
:10C4A00011E0DFF894060600102080460BE0DFF86C
:10C4B0008C0606005FF48030804604E0DFF8300729
:10C4C000060000E00EE0C4F304300700B8F1000FEE
:10C4D00002D04046FFF7A9FFEDB22A003900300034
:10C4E000FFF700FEBDE8F08138B5040014F47810C1
:10C4F00000282CD0B0F5003F3DD0B0F5802F2AD0D9
:10C50000B0F5002F33D0B0F5202F40D0B0F5402F3C
:10C5100000F08B80B0F5602F00F08B80B0F5901F9D
:10C5200047D0B0F5A01F4AD0B0F5B01F68D0B0F525
:10C53000D01F38D0B0F5E01F5CD0B0F5001F6ED032
:10C54000B0F5281F4AD0B0F5381F76D07AE000F059
:10C55000A3FE050078E000F09FFE0500DFF8E0058F
:10C560000068C0F30820401CB5FBF0F56CE000F05B
:10C5700093FE050068E000F08FFE0500DFF8C405BB
:10C580000068C0F30820401CB5FBF0F55CE000F04B
:10C5900083FE0500DFF8B0050068C0F30420401CEE
:10C5A000B5FBF0F550E0DFF82003FFF7DBFE0500F8
:10C5B0004AE0DFF81C03FFF7D5FE050044E0DFF892
:10C5C0000803FFF7CFFE0500DFF82806006810F02B
:10C5D0000F00FFF7ABFDB5FBF0F535E0DFF8E80243
:10C5E000FFF7C0FE0500DFF80C060068C0F301107D
:10C5F000C54029E0DFF8D402FFF7B4FE050023E0D0
:10C60000DFF8C802FFF7AEFE0500DFF8EC050068B2
:10C61000C0F30110FFF78AFDB5FBF0F514E0DFF879
:10C62000B002FFF79FFE05000EE0FFF7D5FD050005
:10C630000AE0FFF7BFFD050006E00020FFF7E4FD7C
:10C64000050001E000200500280032BD70B504009F
:10C65000C4F303100500012D0CD070D3032D17D0A7
:10C660000FD3052D22D01AD3072D4BD025D3082D5B
:10C670005BD064E0DFF830020068C0F304200600FD
:10C680005FE0DFF8C4040068C0F30420060058E04F
:10C69000DFF814020068C0F30060060051E0DFF824
:10C6A000A0040068C0F3082006004AE0DFF8940404
:10C6B0000068C0F30820060043E02000DFF84C16B5
:10C6C000884204D0DFF8481688420CD017E0DFF823
:10C6D0002405006810F00F0006003000FFF726FD6B
:10C6E000401E06000DE0DFF80C050068C0F30110E5
:10C6F00006003000FFF71AFD401E060001E0002092
:10C7000006001EE0DFF80C0684420BD1DFF8E804D7
:10C710000068C0F3011006003000FFF707FD401E5F
:10C72000060001E0002006000BE0DFF86807844205
:10C7300002D10020060001E00020060001E00020F8
:10C740000600300070BD000004300E400148E801D2
:10C750000190D00300400E400100012011F00F03B2
:10C760001A001300012B0AD0022B20D0032B35D046
:10C77000052B4FD0062B64D0082B74D090E0DFF847
:10C78000AC381B6813F00703022B0AD00CD3042B20
:10C7900001D003D308E00223180007E003231800A8
:10C7A00004E00423180001E0052318007AE0494B57
:10C7B0001B6813F00703012B04D0022B05D0042BB8
:10C7C00006D008E00323180007E00223180004E065
:10C7D0000A23180001E00123180063E03E4B1B68A8
:10C7E00013F00703012B06D011D3032B0CD005D374
:10C7F000042B06D00BE0032318000AE002231800E4
:10C8000007E00A23180004E00623180001E00123D2
:10C81000180047E0314B1B6813F00703012B04D0CD
:10C82000022B05D0042B06D008E00323180007E0F4
:10C830000223180004E00A23180001E00123180075
:10C8400030E0DFF8EC371B6813F00103002B04D055
:10C85000012B05D10923180004E00723180001E08B
:10C86000012318001EE0DFF85C391B6813F0300369
:10C87000002B06D0102B07D0202B08D0302B09D04E
:10C880000BE0012318000AE00723180007E0042347
:10C89000180004E00823180001E00123180001E05B
:10C8A00000231800C0B2704700410E402C08002041
:10C8B00006000C0098002E0004000E404CB500004D
:10C8C00040000E4024400E4002001A0003001C00ED
:10C8D0000500200080400E4084400E4088400E40FD
:10C8E00044410E402DE9F84F04000D0003260327B4
:10C8F0005FF0000B5FF0000A112C19D1EDB2042D8E
:10C9000003D100F0EBFC82460BE0EDB2052D08D11F
:10C9100000F069F9DFF86C18884202D300F063F97F
:10C920008246BAF1000F03D00021504600F077FE96
:10C9300014F00F008146484601280CD002285DD033
:10C94000032875D0052866D0062800F0AA8008289C
:10C9500000F0BA80E5E0EDB22800022808D00328F4
:10C960000BD004280ED0052815D00A281CD01CE0B6
:10C97000042006000020070018E003200600012024
:10C98000070013E00220060002200700DFF8380845
:10C99000FFF7E9FB0AE00120060003200700DFF8AB
:10C9A0002808FFF7E0FB01E0BBE0BAE0012201212B
:10C9B0003800C0B200F070FAFFF782FCBAF1000F45
:10C9C00001D0FFF7BDFBDFF804080660DFF87C0448
:10C9D000FFF78AFDFFF7C7FB00F04CFC0090FFF764
:10C9E000B8FB0100C9B20098FFF785FCBAF1000F4F
:10C9F00003D10121002000F012FE92E0BBF1000FF4
:10CA000002D1DFF8CCB7FFE7EDB2062D01D001204F
:10CA100000E00020C0B2BBF1000F02D1DFF8B4B7D4
:10CA2000FFE7EDB2062D01D0012000E00020C0B2EA
:10CA3000BBF1000F02D1DFF8A0B7FFE7EDB228008D
:10CA4000012808D0022809D003280FD0062815D0C5
:10CA50000A281FD021E0002080461FE0012201218A
:10CA6000002000F019FA0220804617E0012201217F
:10CA7000012000F011FA012080460FE000F0FAFBDF
:10CA8000FFF771FB012200212848FFF72BFB032051
:10CA9000804603E00420804600E042E0CBF80080BE
:10CAA0003FE0EDB22800072802D0092805D009E0B0
:10CAB0000020DFF87C15086005E00120DFF8701524
:10CAC000086000E02DE02CE0EDB22800012806D03F
:10CAD00004280FD0072805D0082813D015E000201F
:10CAE000804613E001220121042000F0D5F9012045
:10CAF00080460BE001220121022000F0CDF9022046
:10CB0000804603E00320804600E00AE0DFF8B40638
:10CB1000006830F0300050EA0810DFF8A81608600E
:10CB2000FFE7BDE8F18F000040410E40B0400E40ED
:10CB3000C0400E40E0400E40E8400E40F0400E4045
:10CB40000C410E4008410E4014410E400100080007
:10CB5000DFF8A426904224D0DFF8A026904220D00F
:10CB6000DFF89C2690421CD0DFF8982690421CD01B
:10CB7000DFF8942690421CD0DFF8902690421CD01B
:10CB8000DFF88C2690421CD0DFF8882690421CD01B
:10CB9000DFF8842690421CD0DFF8802690421CD01B
:10CBA0001FE0DFF87C0600681CE0DFF8780600680C
:10CBB00018E0DFF87406006814E0DFF8700600681B
:10CBC00010E0DFF86C0600680CE0DFF8680600682B
:10CBD00008E0DFF86406006804E0DFF8600600683B
:10CBE00000E000207047DFF8F4050068704700009F
:10CBF00050410E4020410E4028410E40F8B504003F
:10CC00002000FFF7A3FF0700002F04D017F1010F4A
:10CC100001D0012000E00020C0B2DFF8C0050068AC
:10CC20000600DFF8B80504601120FFF795FD052820
:10CC300001D1FFF745FB1821DFF8B805FFF759FAD6
:10CC40000028F8D117F1010F01D0012000E00020E9
:10CC5000C0B22000DFF8A015884208D0DFF89C158C
:10CC6000884208D0DFF89815884208D00AE00220F0
:10CC700060F35A6706E0012060F35A6702E037F07C
:10CC8000C067FFE71120FFF767FD052802D12000EC
:10CC9000FFF769FAA64203D20121200000F0BFFC91
:10CCA000DFF8480507601120FFF756FD052821D160
:10CCB00000F0E0FA0500AC4201D3012000E00020C2
:10CCC000C0B2DFF818050068A84201D3012000E0D7
:10CCD0000020C0B2DFF804050068844201D10120C1
:10CCE00000E00020C0B2FFF734FAC0B20100280013
:10CCF000FFF701FB5548FFF7F7FBFFF734FAA642B1
:10CD000003D30121002000F08AFCF1BD600614006D
:10CD100060162A00701716002DE9F04104000D007E
:10CD2000160000200400DFF81805006854F0405198
:10CD300088438046EDB2002D02D05FF0805000E0C5
:10CD40000020F6B2002E02D05FF0005100E000217A
:10CD50002043084350EA0808002C02D1F6B2002E06
:10CD60000CD000F0BBFA0700FFF7F3F9C0B20100E6
:10CD70003800FFF7C0FA3800FFF7F5F9DFF8C00414
:10CD8000C0F80080BDE8F08170B504001120FFF705
:10CD9000E3FC042801D0012000E00020C0B2012201
:10CDA0000021022000F078F86078002806D1A078F1
:10CDB000002803D1E07890F0010000E00020C0B22C
:10CDC0000025207C012801D0012000E00020C0B215
:10CDD000207C022801D101200500DFF864040068EE
:10CDE000400840002843DFF85814086022780821E2
:10CDF000DFF84C04FFF776F9A088617A51EAC02089
:10CE0000DFF840140860DFF840040668207AFFF776
:10CE10008EFA16F07F61E28851EAC221A27A1143AC
:10CE2000227A51EAC2110843DFF81C140860607BC3
:10CE3000A17B090151EA0030E17B0843217B50EAE4
:10CE40000140DFF80814086070BD0000000508000C
:10CE500010B504001120FFF77FFC022801D001204B
:10CE600000E00020C0B200220021002000F014F8F1
:10CE70002078617850EAC120A17850EA0160E17819
:10CE800050EA0122DFF8C813DFF8C803FFF741F9C1
:10CE900010BD0000800912002DE9F84F04000D00BC
:10CEA0001600E4B2002C29D0022C0CD01DD3042C87
:10CEB00012D02ED201208146022082460120070096
:10CEC0000020804626E00420814608208246032078
:10CED0000700022080461DE0102081462020824667
:10CEE000052007000420804614E040208146802071
:10CEF000824607200700062080460BE04FF4807032
:10CF000081464FF4007082460920070008208046C1
:10CF100000E063E0EDB2002D57D05FF0000BE4B20B
:10CF2000022C13D1FFF70DFA00280FD1DFF82803E8
:10CF30000068800A10F0010001208346DFF800033A
:10CF40000068C00702D50120FFF701FAA448C0F825
:10CF500000904146A348FFF7CCF80028F9D0F6B27C
:10CF6000002E3BD039009F48FFF7C3F80028F9D0C6
:10CF7000E4B2022C32D15FFA8BFBBBF1000F2DD053
:10CF8000AF480068C00705D501222021022000F02B
:10CF9000FBF803E00021022000F0BBF8022000F0C3
:10CFA0001FF80090012200210220FFF775FF009971
:10CFB000022000F03FF88A48C0F800903900894804
:10CFC000FFF797F8002809D1F8E78548C0F800A0D6
:10CFD00041468448FFF78DF80028F9D1BDE8F18F6C
:10CFE0000100C9B2012906D01DD3032909D014D3E9
:10CFF00004290CD017E0994A1268D205D20D10000E
:10D0000013E07A4A126812F07F0210000DE0944A91
:10D01000126812F07F02100007E0924A126852056F
:10D02000520D100001E000221000704794400E40A5
:10D0300070400E4070B504000E00E4B2012C06D022
:10D0400066D3032C1AD045D3042C2DD060E0B6F55E
:10D05000007F01D2012000E00020C0B2F605F60DED
:10D060001A216448FFF745F80028F9D17B48006889
:10D07000400A400230437949086049E0802E01D2DD
:10D08000012000E00020C0B216F07F0618215948A8
:10D09000FFF72FF80028F9D154480068C009C001F3
:10D0A00030435249086033E0802E01D2012000E075
:10D0B0000020C0B216F07F0619214E48FFF719F87C
:10D0C0000028F9D166480068C009C00130436449AE
:10D0D00008601DE043480068800810F0010090F0EF
:10D0E0000100C0B25648006830F0300050F0100027
:10D0F00053490860C6F3C310FFF719F905005248F9
:10D10000006859490840304328434F490860FFE709
:10D1100070BD70B504000D00E4B2022C01D10120F5
:10D1200000E00020C0B2FFF70CF9002803D15FF443
:10D130004000060016E0EDB22800002808D02028A4
:10D1400002D0302808D00BE05FF40000060009E0B0
:10D150005FF44000060005E05FF44000060001E0D7
:10D16000424806001F4800683040B042FAD17002C1
:10D1700005D51F480068800A10F0010000E001207A
:10D1800070BD0000012D310170B504000D001600C6
:10D19000E4B2022C14D1EDB2002D06D04FF4806021
:10D1A00011490860EDB232480560F6B2002E06D093
:10D1B0002900C9B22000C0B2FFF7ABFF01E0FFE7D2
:10D1C000012070BD5C410E400148E80174400E40F2
:10D1D00080400E4088400E4084400E403C080020B5
:10D1E00060400E4090400E40A8400E4010400E405F
:10D1F000A0400E4040410E4040420F0080841E007F
:10D2000000093D00C0CF6A00405DC6000024F40064
:10D21000C0EA210180BA8C010048E80180D54302B0
:10D220003082E00F3C82E00F4882E00F4C82E00F3A
:10D230005082E00F5882E00F5C82E00F6082E00FC6
:10D2400024400E402C400E4030400E4034400E40F2
:10D250007F1B000738400E403C300E4020400E40FF
:10D2600018400E409C400E4000F8FF0FFFF3E17F96
:10D2700064400E4038B500F00FF804002E480068F6
:10D28000C0F308200500681CB4FBF0F42B480460D0
:10D29000200032BD2A4870472A49096811F0070169
:10D2A00002290CD00FD3042901D004D30BE0264966
:10D2B000096808000AE04FF40041080006E023492D
:10D2C0000968080002E02249096808002149096844
:10D2D000C1F30421491CB0FBF1F070471B48006802
:10D2E000704710B50400194804601648006810F033
:10D2F0000700022801D1FFF7BDFF10BD16480068E6
:10D3000050F470001449086070474FF400407047B3
:10D310004FF47A7070470C480068704710B50400ED
:10D32000094804600748006810F00700042801D18C
:10D33000FFF7A0FF10BD000008410E403808002094
:10D3400000F0490294400E403408002030080020CC
:10D350003C08002000410E4088ED00E080B5FFF75A
:10D3600089FF01BD8B0013EB401313F184431A6056
:10D3700070470200880010EB421010F184400068F2
:10D38000704780B51221DFF83408FFF7F2FF00285C
:10D39000F8D101BD80B5FFF7F4FFDFF82008006881
:10D3A000000C10F0030002BDDFF8641A086070473B
:10D3B000DFF8600A006870474AF6E850DFF8581A4C
:10D3C000086070470020DFF8541A0860704745F67F
:10D3D0000E00DFF8481A086070471021D0F10200F3
:10D3E00011FA00F0704770B50400E4B2002C17D1B8
:10D3F000DFF8CC070068DFF8CC1708601120FFF7D2
:10D40000ABF9DFF8C4170870FFF7BBFFDFF8AC0714
:10D410000068000C10F00300DFF8B017087059E046
:10D42000DFF8A8070078FFF7D8FFDFF8F4190860E5
:10D43000DFF8E809006810F001000600FFF7C7FFF9
:10D4400000200500DFF87C07007810F0010005439C
:10D45000DFF870070078C00601D5102000E000203A
:10D460000543DFF860070078400601D5402000E062
:10D4700000200543DFF84C070078400701D5042061
:10D4800000E000200543DFF83C070068C00502D536
:10D490004FF4807000E000200543DFF8800A05604B
:10D4A000FFF76FFFDFF820070078052805D0DFF8C9
:10D4B000180701781120FFF715FADFF80807007840
:10D4C000C00703D40220DFF8541A0860002E01D0F0
:10D4D000FFF778FF70BDF8B5DFF8F0090068000AC3
:10D4E00010F00305DFF8D4060068000C10F0030606
:10D4F000FFF747FF30002900C0B2C9B2884219D2F5
:10D50000EDB2022D16D11120FEF79AFF070011206F
:10D51000FEF7EAFF00FB07F00400DFF8FC09844295
:10D5200003D3DFF8FC09FFF769FB05211120FFF7A2
:10D53000D9F9FFE7F1BD10B50400E4B2002C02D028
:10D540000020FFF750FFFFF7C6FFDFF8D80900689B
:10D5500050F00400DFF8CC19086030BFE4B2002CB2
:10D5600003D00120FFF73FFF01E0FFF7F7FE10BDFA
:10D5700038B50400E4B2002C02D00020FFF733FFDE
:10D58000FFF7A9FFDFF89408006810F0010005001C
:10D59000FFF71DFF4FF42070DFF880190860002DA1
:10D5A00001D0FFF70FFFDFF87C09006850F004009E
:10D5B000DFF87019086030BFE4B2002C03D00120FE
:10D5C000FFF711FF01E0FFF7C9FE31BD80B5002074
:10D5D000FFF709FF01BD80B50120FFF704FF01BD82
:10D5E00070B5DFF84409006830F4403050F400357D
:10D5F000DFF83409006850F44036FFF7DDFE002004
:10D600000400042C07DADFF820090560DFF81809A8
:10D610000660641CF5E7DFF81009056070BDF8B519
:10D6200004000D00DFF804090068C0F30420471C63
:10D63000002C04D1FFF730FE7843060000E02600FE
:10D64000DFF8EC080078002809D0DFF8E808864207
:10D6500005D22900C9B2022000F007F804E0290031
:10D66000C9B2002000F001F8F1BD2DE9F843040033
:10D670000D00DFF8B8080068C0F30420471CFFF76E
:10D680000BFE8046FFF786FE814648462100C0B269
:10D69000C9B2884224D007FB08F00600E4B2022C8D
:10D6A0000BD1DFF87408864201D2012000E000208F
:10D6B000C0B202214046FEF71EFE2000C0B2FFF7B6
:10D6C0008CFEDFF85C170860E4B2002C03D1002167
:10D6D0004046FEF710FEEDB2002D01D0FFF751FEDF
:10D6E000BDE8F18310B504002078DFF84418087015
:10D6F00001210020FFF793FF10BDDFF8D017096864
:10D7000031F44071427851EA0221DFF8C0271160FC
:10D7100070470120704710B5DFF81C08006850F012
:10D720008070DFF8141808600021DFF81008FFF798
:10D7300020FE0400002C03D0042000F0C9FB02E00E
:10D74000002000F0C5FB10BDF0B401242505DFF872
:10D75000EC673668C6F303263200DFF8E4673688E4
:10D76000DFF8DC773F8828377F08BE192836571C3A
:10D770005FF0050C0CFB07F7B6FBF7F6761E3000E2
:10D78000072800D30720000630F0E066002E01D104
:10D79000012600E00026F6B235F4E006002E01D1A5
:10D7A000012600E00026F6B2DFF89067366836F012
:10D7B000EE6606432E43DFF884773E60DFF8846729
:10D7C000B6F90060002E29D4DFF878673688330078
:10D7D0009BB213F12806760816FA83F62836571CF2
:10D7E00012F1010C5FEA5C0C1CEB4707B6FBF7F685
:10D7F0003100072900D30721090131F07006002EFE
:10D8000001D1012600E00026F6B2DFF83C67366859
:10D8100036F070060E43DFF830773E60F0BC70479C
:10D82000DFF81C271080DFF81C2711807047C0B27A
:10D83000002802D0012806D00BE0DFF81017DFF82F
:10D840001027116005E0DFF80C17DFF804271160DE
:10D85000FFE7704730B40300DFF8FC0600680400FF
:10D86000C9B2002905D0022909D005D3032909D05E
:10D870000AE004F0FF0409E0C4F3072406E0C4F35F
:10D88000074403E0240E01E0002026E0D2B2002A83
:10D890000FD1240334F47040002801D000201CE094
:10D8A000DFF89406006830F470402043DFF88856B3
:10D8B0002860D2B2012A0FD1240334F4704000282A
:10D8C00001D0002009E0DFF89406006830F47040D1
:10D8D0002043DFF888562860012030BC7047F0B440
:10D8E00000260024DBB2D2B252EA03252F00002F1B
:10D8F00034D07F1E0CD0FF3F3AD07F1E12D0FF3FA6
:10D900003FD07F1E17D0FF3F45D07F1E1DD04BE07C
:10D91000DFF84C763F683E00C6F307273C0006F070
:10D92000FF0641E0DFF838763F683E00370E3C00E6
:10D93000C6F3074638E0DFF82C763F683E00C6F3B2
:10D9400007273C0006F0FF062EE0DFF818763F6858
:10D950003E00370E3C00C6F3074625E0DFF80876A8
:10D960003F683E00C6F307273C0006F0FF061BE0B9
:10D97000DFF8F4753F683E00370E3C00C6F30746FB
:10D9800012E0DFF8E8753F683E00C6F307273C0069
:10D9900006F0FF0608E0DFF8D4753F683E00370E5A
:10D9A0003C00C6F30746FFE706600C60F0BC70471A
:10D9B00038B50400DFF8B8050068C007FAD4DFF80E
:10D9C000B405006810F003000500002D05D0012209
:10D9D0000D21DFF8A405FFF7C5FC28002100C0B227
:10D9E000C9B2884209D1E4B2002C05D100220D2130
:10D9F000DFF88405FFF7B6FC3FE0032D01D0002DD2
:10DA00001CD1E4B2022C02D0E4B2012C16D15FF496
:10DA10000020FFF7C9FCDFF858050068C007FAD4FA
:10DA2000DFF8500500688008800050F00100DFF842
:10DA300044150860FFF7BCFC0003FBD5DFF8300598
:10DA40000068C007FAD4DFF82C0500688008800061
:10DA5000E4B22043DFF81C150860DFF81405006805
:10DA6000C007FAD4E4B2002C01D1002200E0012268
:10DA70000D21DFF80405FFF775FC31BD38B5040052
:10DA8000FFF747FE2089C92801D2012000E00020CD
:10DA9000C0B22089A188884201D3012000E0002083
:10DAA000C0B2B4F90C00C92801DA012000E000205E
:10DAB000C0B26078012807D1A088C92801D201200E
:10DAC00000E00020C0B209E06078022806D1A088FA
:10DAD0000B2801D2012000E00020C0B2E08842F211
:10DAE0001171884201D2012000E00020C0B2E0881C
:10DAF0004B2802D20020050013E0E088B0F5FA7F41
:10DB000003D25FF0805005000BE0E08840F6C411BE
:10DB1000884203D25FF00050050002E05FF0405001
:10DB20000500DFF818040068B4F90C10002901D4CE
:10DB3000012100E00021DFF84C2410402843084375
:10DB4000DFF8F8130860DFF81404006850F4407040
:10DB5000DFF808140860FFF7DEFDB4F90C10208927
:10DB6000FFF75EFEA088DFF818140880A08800F098
:10DB700059F9A07BFFF75BFE01220121608800F0CC
:10DB800027F8002801D1002016E0DFF8FC03006828
:10DB900050F48060DFF8F01308606078FFF708FF4A
:10DBA000A07A202801D1012200E000220521DFF81F
:10DBB000D803FFF7D7FB012032BD000004300E4030
:10DBC00090400E401C440020F8440020F9440020FE
:10DBD0002DE9F04F8BB004000D00160000275FF018
:10DBE000000868460021002200230EC00C3804A85B
:10DBF0000021002200230EC00C3807A800210022BB
:10DC000000230EC00C3803A800210160B4F5E16FB9
:10DC100006D340F6B930844202D25FF0010A01E037
:10DC20005FF0000A5FFA8AFABAF1000F01D1002012
:10DC3000EAE0B4F5E16F02D95FF0010B01E05FF0BB
:10DC4000000B5FFA8BFBBBF1000F09D04FF4E160D2
:10DC5000070040F6B8308046B8EB0700814608E080
:10DC60004FF4966007004FF4E1608046B8EB070080
:10DC700081465FFA8BFBBBF1000F0BD0DFF80C0382
:10DC8000006806900698000E09900698C0F30740B9
:10DC900006900CE0DFF8F402006806900698C0F3E6
:10DCA000072009909DF8180000F0FF000690DFF8AB
:10DCB0008C020068000F10F003008DF80C009DF836
:10DCC0000C305A46D2B207A904A8FFF708FEDFF8C5
:10DCD0008C020068000A10F003008DF80D009DF81A
:10DCE0000D305A46D2B208A905A8FFF7F8FDE01B8F
:10DCF0000999069A891A4843B0FBF9F002900298F4
:10DD0000069908180290E01B0799049A891A48435B
:10DD1000B0FBF9F000900098049908180090E01BFF
:10DD20000899059A891A4843B0FBF9F001900198C7
:10DD300005990818019009980299884213D302980E
:10DD4000069988420FD30898019988420BD301980D
:10DD50000599884207D307980099884203D3009811
:10DD60000499884201D200204EE0F6B2002E14D071
:10DD7000DFF81C0200685FFA8BFBBBF1000F01D0DB
:10DD8000022100E00021DFF80C221040029A50EA44
:10DD900002200843DFF8F8110860EDB2002D32D000
:10DDA00000229DF80C105846C0B2FFF753FD002822
:10DDB00001D1002028E001229DF80D105846C0B284
:10DDC000FFF748FD002801D100201DE001980099CF
:10DDD000884201D2009800E0019800900098E7285E
:10DDE00001D2009800E0E7200090DFF8AC01006865
:10DDF000400A40025FFA8BFB00995BEA410108434D
:10DE0000DFF89411086001200BB0BDE8F08F00002E
:10DE10002C300E4024300E4008300E4080410E4021
:10DE200010300E4070B504000025DFF85001006886
:10DE300010F00706DFF804010068C00710D5022EB5
:10DE40000ED3142C02D2042005002EE0142C04D38F
:10DE5000282C02D20820050027E01020050024E02D
:10DE6000DFF8D8000068C00710D4022E0ED20A2CAA
:10DE700002D20420050018E00A2C04D3142C02D28C
:10DE80000820050011E0102005000EE0DFF8AC00CE
:10DE90000068C00709D5022E07D2282C02D208201C
:10DEA000050002E010200500FFE76D1E280350EA80
:10DEB0000525DFF88800006830F47F402843DFF84C
:10DEC0007C100860FFF740FC70BD000000300E4081
:10DED00038B504000021DFF86400FFF74AFA0500B6
:10DEE000002D02D1E4B2022C01DB002D01D0012073
:10DEF00000E00020C0B2DFF884000068C008C00065
:10DF0000E4B22043DFF874100860DFF87400008882
:10DF1000FFF788FF31BD0000012D310160400E4048
:10DF2000C0EA210110ED00E018300E4000410E4023
:10DF300018440020002D31016C300E404C300E4052
:10DF4000E8440020EC44002050300E407740205739
:10DF500058300E40372110B73083E00FEC300E40C0
:10DF60002483E00F2883E00F1C83E00F2083E00F61
:10DF700078300E4040300E4054300E4070300E402D
:10DF8000EA440020FEFFFFCF3C300E401883E00F34
:10DF90005C300E40FD80FFFF64300E4040B210F157
:10DFA000100F04DB40B22A2801DA012200E000222F
:10DFB000D2B22B4A126840B202EB80021164704761
:10DFC000F0B4049D059CB2F1005F04D3254FBA4222
:10DFD00001D2012700E00027FFB212F07F07002FD7
:10DFE00001D1012700E00027FFB201275FEA830C7F
:10DFF000BCF1010CBCFA8CFCDCF1200C17FA0CF71C
:10E000007F1E3A4201D1012700E00027FFB200271E
:10E010003E009E421FD2E4B2002C09D08E4204D2B0
:10E0200050F8267042F8267013E042F8265010E0AF
:10E030008E4208D252F82670002F0AD150F826706E
:10E0400042F8267005E052F82670002F01D142F800
:10E050002650761CDDE7024F3A60F0BC70470000A6
:10E0600008ED00E00080002030B402680368046816
:10E0700005680A604B608C60CD6030BC704710B49E
:10E08000426852095201C9B20B00002B042B09D976
:10E090005B1F022B0BD9DB1E032B03D91B1F022B8B
:10E0A00005D90BE0C9B251EA0203436006E0C9B2E8
:10E0B00051EA020353F010034360FFE710BC7047BE
:10E0C00070B504000D001600002D01D0012000E005
:10E0D0000020C0B2290014F12000FFF7C5FFF6B2FE
:10E0E000102E05D115F1100114F12000FFF7BCFF2F
:10E0F00070BD002A10F1C0621160704710F180629B
:10E100001160704738B504000D00E4B2002C01D155
:10E110003F2035E0E4B2012C02D14FF478402FE0EB
:10E12000E4B2022C02D14FF47C6029E0E4B2032C6B
:10E1300002D14FF47C4023E0E4B2042C01D1002052
:10E140001EE0E4B2052C01D1FF2019E0E4B2062C58
:10E1500001D1002014E0E4B2072C01D100200FE02F
:10E16000E4B2082C01D100200AE0E4B2092C01D16C
:10E17000002005E0E4B20A2C01D1002000E00020DC
:10E18000284110F00100012010FA05F1DFF8F0013C
:10E19000E4B2302202FB04F210440C30FFF7AEFF71
:10E1A00031BD38B504000D00E4B2002C01D13F2090
:10E1B00035E0E4B2012C02D14FF478402FE0E4B214
:10E1C000022C02D14FF47C6029E0E4B2032C02D18E
:10E1D0004FF47C4023E0E4B2042C01D100201EE087
:10E1E000E4B2052C01D1FF2019E0E4B2062C01D1E4
:10E1F000002014E0E4B2072C01D100200FE0E4B2CB
:10E20000082C01D100200AE0E4B2092C01D1002041
:10E2100005E0E4B20A2C01D1002000E000202841F2
:10E2200010F00100012010FA05F1DFF85401E4B20A
:10E23000302202FB04F210440C30FFF75BFF31BDCB
:10E24000F8B504000D0016001F00E4B2002C01D147
:10E250003F2035E0E4B2012C02D14FF478402FE0AA
:10E26000E4B2022C02D14FF47C6029E0E4B2032C2A
:10E2700002D14FF47C4023E0E4B2042C01D1002011
:10E280001EE0E4B2052C01D1FF2019E0E4B2062C17
:10E2900001D1002014E0E4B2072C01D100200FE0EE
:10E2A000E4B2082C01D100200AE0E4B2092C01D12B
:10E2B000002005E0E4B20A2C01D1002000E000209B
:10E2C000284110F00100F6B2002E0CD0002F05D02E
:10E2D00029002000C0B2FFF764FF04E029002000FD
:10E2E000C0B2FFF70FFF082D1BD22548E4B2302142
:10E2F00001FB04F1084440680F212A00D2B29200C9
:10E3000091408843F6B22900C9B2890016FA01F19A
:10E3100008431B49E4B2302202FB04F21144486076
:10E320001CE01748E4B2302101FB04F10844806886
:10E330000F212A00083AD2B2920091408843F6B2E7
:10E3400029000839C9B2890016FA01F108430C49BD
:10E35000E4B2302202FB04F211448860F6B2002ECF
:10E360000CD1002F05D029002000C0B2FFF719FF03
:10E3700004E029002000C0B2FFF7C4FEF1BD000098
:10E3800000A0004012480068800C10F0010090F0DE
:10E390000100C0B20E48006810F4403F01D10120D6
:10E3A00000E00020C0B241F671300A4908600A4816
:10E3B0000068400840000849086070470648006847
:10E3C0004008400004490860002002490860704786
:10E3D00004300E4040000E4008000E4001201A4953
:10E3E0000860704710B4194801680020002422001A
:10E3F000092A27D2164C04EBC20464682300154C8A
:10E400002468640711D4124C54F83240B4F5007FEC
:10E4100008D0B4F5806F05D0B4F5006F02D0B4F524
:10E42000803F02D153F48073FFE7094C54F8324027
:10E43000214205D0194203D1054C54F83240204303
:10E44000521CD5E710BC704708500E4004500E40D7
:10E4500074B50000E841E00F0178427851EA82018A
:10E46000827851EA0211C27851EA4211027951EAE6
:10E470000221427951EA0231827951EAC231C279EC
:10E4800051EA0241027A51EA4241014A1160704761
:10E49000002004400E4A1268920012F03C02110063
:10E4A0000C4A1268C2F3811211438170094A126842
:10E4B00012F03F024270084A126812F0F002110096
:10E4C000064A1268C2F3031211430170704700003C
:10E4D000E4FF0FE0E0FF0FE0E8FF0FE0ECFF0FE0EC
:10E4E000F8B504000D001600002D03D14B48FDF7D0
:10E4F000FBFF0500681E7100B0FBF1F007003F0252
:10E5000038006FF3D600002801D1012000E0002080
:10E51000C0B26761F1BD38B504000D0040488442C7
:10E5200002D04048844201D1012000E00020C0B266
:10E53000200000F042F8A87B002802D04FF4806051
:10E5400000E000202168B5F91020104350F00100D0
:10E5500008432060287D002802D05FF0005000E0D2
:10E560000020216808432060A87C002803D0E87CB4
:10E5700050F08000A065287B50F480506060AA684D
:10E5800069682000FFF7ACFF687B002801D01020ED
:10E59000E060A87D000710F0E040E97D090511F476
:10E5A000E00108432066687D002803D0206850F40D
:10E5B000803020602878E06031BD1949884202D05F
:10E5C0001849884201D1012100E00021C9B240F67A
:10E5D000AA61C1600021016041F205014160002192
:10E5E0008160002141610021C1640F4981640021E3
:10E5F0004167002181670021C1670949884202D033
:10E600000849884201D10021016500218165054941
:10E61000884201D10021C1657047000040410500DA
:10E620000000014000040140F9FF010002695206A8
:10E63000FCD5C9B2416302699206FCD5C069C0B27B
:10E6400070470028DFF8341208607047DFF8301296
:10E6500009688143DFF8282211607047DFF8201233
:10E6600009680143DFF8182211607047DFF81012C3
:10E6700009680800DFF80C1209680840704780B587
:10E6800000F001F801BD2DE9F041FFF7EFFF0400B4
:10E69000002C1FD5DFF8F00100680068002814D0B6
:10E6A000DFF8E40100680068050008260027DFF8AD
:10E6B000D801D0F800803A003100404600F0F2F86E
:10E6C00000F0D4F8002140B2A8475FF00040FFF707
:10E6D000B9FF20E060001ED5DFF8B00100680068D7
:10E6E000002814D0DFF8A40100680068050008269F
:10E6F0000027DFF89801D0F800803A00310040464A
:10E7000000F0D0F800F0B2F8012140B2A8475FF065
:10E710008040FFF797FF00F019F8BDE8F081010095
:10E72000DFF86C010068C9B2CA00052392FBF3F25E
:10E73000801A10F1800F03DA7FF07F02100003E0EF
:10E74000802801DB7F22100040B2704710B5002006
:10E750000400E4B2052C26DADFF83801E4B250F800
:10E76000340000281DD0DFF824010068006800286C
:10E7700007D1DFF82001E4B200EBC4004349086090
:10E780000FE04248006800794249E4B201EBC4015D
:10E790000979884205D23F48E4B200EBC4003B4906
:10E7A0000860641CD5E7394800680068002812D06A
:10E7B00039480068000A0002374908603648006896
:10E7C0003249096809790843334908605FF080409D
:10E7D000FFF744FF03E05FF08040FFF737FF0020C2
:10E7E0000400E4B2052C23DA2C48E4B250F83400DB
:10E7F00000281BD0244800680068002806D127485C
:10E80000E4B200EBC400204908600FE02348E4B202
:10E8100000EBC40000791C4909680979884205D2D7
:10E820001E48E4B200EBC40017490860641CD8E736
:10E83000154800680068002813D01748006830F4B5
:10E840007F4015490860144800680F490968097934
:10E8500050EA0120104908605FF00040FFF7FEFE1B
:10E8600003E05FF00040FFF7F1FE10BD80B50C48FB
:10E870000068C0B2FFF753FF02BD00002C300E400D
:10E8800030300E4024300E4024440020204400202C
:10E89000284400205C4100201C300E4084410020B0
:10E8A00020300E4062F30F2262F31F42401810F036
:10E8B000030308D0C91A1FD3DB0748BF00F8012D96
:10E8C00028BF20F8022D130030B414461546103925
:10E8D00028BF20E93C00FAD8490728BF20E90C00EE
:10E8E00048BF40F8042D890028BF20F8022D48BFFA
:10E8F00000F8012D30BC7047C91818BF00F8012D71
:10E90000CB0728BF00F8012D704702288B0013EBBE
:10E91000401313F184431A6070479448006830F044
:10E9200004009249086030BF704780B50122012180
:10E930008F48FFF7EBFF01BD80B5002201218C4815
:10E94000FFF7E4FF01BD10B504008A480068002805
:10E9500004D02000C0B2874909688847012010BD53
:10E9600038B504000D00834804608348834908607B
:10E970008248456000208249087000208049487024
:10E98000FFF730FDC00309D5FFF728FD7B4840683D
:10E99000002803D0042079494968884731BDF8B57B
:10E9A0000026002700F0EEF8040000F08AF80500C9
:10E9B000EDB2022D02D0EDB2032D01D1FEF706FE1D
:10E9C00000F07FF80500EDB2002D07D0EDB2042D68
:10E9D00004DA2800C0B200F088F8060067488068B2
:10E9E000002805D03000C0B2644989688847070014
:10E9F000F807E5D4F6B2022E02D0F6B2032E01D10A
:10EA0000FEF7E9FD200000F0C1F83000C0B2F2BD11
:10EA100010B50400E4B2022C04DBE4B2042C01DAE9
:10EA2000012000E00020C0B25548E4B2204410F8B4
:10EA3000020CFF2801D0012000E00020C0B2E4B2A7
:10EA4000022C02D0E4B2032C0FD14D48E4B2204492
:10EA500010F8020C401C4A49E4B2214401F8020CAF
:10EA6000E4B2022C01D1FFF760FF10BD10B5040025
:10EA7000E4B2022C04DBE4B2042C01DA012000E051
:10EA80000020C0B2E4B2022C02D0E4B2032C17D1B1
:10EA90003B48E4B2204410F8020C00280AD0384861
:10EAA000E4B2204410F8020C401E3549E4B221447F
:10EAB00001F8020C32480078002801D1FFF73CFF32
:10EAC00010BD01202E490978002907D10221080034
:10EAD0002B494978002901D103210800C0B204283C
:10EAE00001DB03210800C0B2704738B504000125DE
:10EAF000E4B2002C04D0E4B2052C01DA012000E0DD
:10EB00000020C0B21D480068002805D02000C0B217
:10EB10001A49096888470500EDB2002D01D100208F
:10EB200022E0E4B2012C06D013D3032C0AD005D383
:10EB3000042C0BD00DE0FFF7F0FE0AE00020FEF7FA
:10EB4000FAFC06E00020FEF713FD02E0FEF748FDA8
:10EB5000FFE70A484068002804D02000C0B20749F7
:10EB6000496888472000C0B232BD000010ED00E0C7
:10EB700000300E402C44002047E900002C430020C8
:10EB8000EE440020EFF3108072B67047002800D1E9
:10EB900062B6704710F1C0621160704710F1806278
:10EBA0001160704738B504000D00E4B2002C01D1AB
:10EBB0003F2035E0E4B2012C02D14FF478402FE041
:10EBC000E4B2022C02D14FF47C6029E0E4B2032CC1
:10EBD00002D14FF47C4023E0E4B2042C01D10020A8
:10EBE0001EE0E4B2052C01D1FF2019E0E4B2062CAE
:10EBF00001D1002014E0E4B2072C01D100200FE085
:10EC0000E4B2082C01D100200AE0E4B2092C01D1C1
:10EC1000002005E0E4B20A2C01D1002000E0002031
:10EC2000284110F00100012010FA05F1DFF8BC01C5
:10EC3000E4B2302202FB04F210440C30FFF7AEFFC6
:10EC400031BD38B504000D00E4B2002C01D13F20E5
:10EC500035E0E4B2012C02D14FF478402FE0E4B269
:10EC6000022C02D14FF47C6029E0E4B2032C02D1E3
:10EC70004FF47C4023E0E4B2042C01D100201EE0DC
:10EC8000E4B2052C01D1FF2019E0E4B2062C01D139
:10EC9000002014E0E4B2072C01D100200FE0E4B220
:10ECA000082C01D100200AE0E4B2092C01D1002097
:10ECB00005E0E4B20A2C01D1002000E00020284148
:10ECC00010F00100012010FA05F1DFF82001E4B294
:10ECD000302202FB04F210440C30FFF75BFF31BD21
:10ECE00000B587B06846DFF8081191EC060B80ECA0
:10ECF000060B0121DFF8FC00FDF7A9FB0121DFF87D
:10ED0000F800FDF7A4FB01208DF80E00DFF8EC0001
:10ED100002906946DFF8E800FFF7FDFB01230422BB
:10ED200006210220FFF78CFA00230122072102208E
:10ED3000FFF786FA0123042208210220FFF780FA58
:10ED40000123042204210020FFF77AFADFF8B4003F
:10ED5000DFF8B41008600B20DFF8B010086000F096
:10ED60000FF807B000BD81B049F23D6000900098F7
:10ED7000012803DB0098401E0090F8E701B07047BF
:10ED800080B5FFF7F0FF01BD80B504210020FFF73B
:10ED900009FF01BD80B504210020FFF752FF01BD2E
:10EDA00038B5040000200500E4B2082094FBF0F020
:10EDB000854206DAFF21DFF84800FFF737FC6D1CBB
:10EDC000F2E731BD38B504000D00EDB2002D03D0DF
:10EDD000022D09D007D308E02100C9B2DFF82000D6
:10EDE000FFF724FC01E000E0FFE731BD00A0004098
:10EDF000BCB50000002508000042040040420F009E
:10EE0000000401400B0B000B780401407404014026
:10EE100080B5FFF7B9FFA020FFF7C2FFFFF7BAFFE9
:10EE2000F020FFF7BDFF2820FFF7BAFFFFF7ACFF88
:10EE30000021B920FFF7C6FFFFF7ACFF002002BD9D
:10EE400080B501210B48FDF702FB01210A48FDF7BF
:10EE5000FEFA01210948FDF7FAFA01210848FDF7F9
:10EE6000F6FAFFF73DFFFFF7D3FF0648FFF7A5FBD4
:10EE700001BD00BF0072040000350800003204002C
:10EE800000250800000401404B48006850F48070E1
:10EE9000494908604FF41670484908604848494994
:10EEA00008604948494908604FF4F07048490860D3
:10EEB000704710B58AB0FFF7E7FF46480FC805ACAA
:10EEC00084E80F0005A8FEF7D9FD00F032F801A88C
:10EED00041491CC91CC00C390C3801208DF80400B4
:10EEE00000208DF8050000208DF8060000208DF828
:10EEF000070000208DF8090000208DF80800002090
:10EF00008DF80A0000208DF80B0001A8FFF7A4FA85
:10EF100032480068049004A8FEF7E4FB304800681B
:10EF2000009002208DF801006846FEF7E6FB0AB06B
:10EF300010BD00B587B001A82A49142200F070F86E
:10EF400040F25F10ADF8080040F25F10ADF80A0023
:10EF500001A8FDF719FF2448FEF7C3F9012201219A
:10EF60000220FDF799FF012201210020FDF7D4FEC8
:10EF7000002200210320FDF78FFF01211B48FDF730
:10EF800066FA1B480068009020208DF80000684653
:10EF9000FDF75EFF4FF40040FEF7C0F9022115486F
:10EFA000FDF7A0FC02211448FDF79CFC0221134848
:10EFB000FDF798FC07B000BD00000E408C420E40EB
:10EFC0004A5D050090420E4028E21600FC420E40C9
:10EFD00094420E40D4B50000E4B50000F0B5000046
:10EFE000F4B50000F8B5000000F049020005080083
:10EFF0000CB6000002001A0003001C0005002000EF
:10F0000062B38B0708D0521E11F8013B00F8013B98
:10F0100000F024808B07F6D1830740F0208000BFEA
:10F02000103A07D330B4B1E83810103AA0E83810DD
:10F03000F9D230BC530724BFB1E80810A0E808108B
:10F0400044BF51F8043B40F8043BD20724BF31F8D9
:10F05000022B20F8022B44BF0B7803707047083A4C
:10F0600007D3B1E80810083A40F8043B40F804CB55
:10F07000F7D25307E4E70228704710B504002000D8
:10F0800000F05EF900F0C2FA00F0CCFA00F0D6FA17
:10F0900000F0E0FA00F0EAFA00F0F4FA00F0FEFA0C
:10F0A00000F008FB00F012FB00F01CFB00F026FB58
:10F0B000FFF7E2FF10BD38B504005D4805682C710C
:10F0C0005C48286028682A1D5B4900F0ACFB0020E2
:10F0D00032BD2DE9F04705000E0017009846089C48
:10F0E0005348D0F800905548D0F800A089F8045053
:10F0F000C9F80560C9F80970A9F80D8089F80F40B2
:10F100004F48C9F80000D9F8000019F104024D4930
:10F1100000F089FB1AF10400BDE8F0872DE9F04109
:10F1200004000D001600424807684448D0F80080EB
:10F130003C717D71BE714448386038683A1D43495E
:10F1400000F071FB18F10400BDE8F08170B5040017
:10F1500037480568394806682C713D48286028689A
:10F160002A1D3C4900F05FFB301D70BD2DE9F041C8
:10F1700004000D0016002E4807683048D0F80080C3
:10F180003C71A7F80550FE713348386038683A1D65
:10F19000324900F048FB18F10400BDE8F08110B5D9
:10F1A00082B0FFF786FEFFF74BFE00F06DFB2C48A8
:10F1B000FFF763FF00F0FAF90400206829490840CE
:10F1C0002949884206D02949884211D028498842D5
:10F1D0001CD02BE0002000900023A022A0210020C2
:10F1E000FFF777FF022202210020FFF797FFE1E7F8
:10F1F00020480078002803D00220FFF75CFF04E0DD
:10F20000022202210020FFF789FFD3E7B4F80500AE
:10F2100013280AD1012017490870002213212079F0
:10F22000FFF7A4FF2079FFF791FFC3E7C2E70000D3
:10F2300034440020200101016D1F010038440020EA
:10F24000200C030EA71F010020030314CB1F010095
:10F25000200108042920010020040A047D20010067
:10F2600014B60000F800FFFFA0000100A000080194
:10F27000A0000A02FA44002080B51868DFF84013A5
:10F2800048600023DFF83C03086000220120009062
:10F29000082000F0C1FA002002BD10B5044600228B
:10F2A00000210020FDF738FD05211120FDF71AFB94
:10F2B000002200210220FDF7EFFDDFF80C03DFF84C
:10F2C0000C2301686FF3D321016002EAC4220168B4
:10F2D00011430160012201210220FDF7DDFD04211F
:10F2E0001120FDF7FFFABDE81040012200210020A7
:10F2F000FDF712BD80B5DFF8D802DFF8D81200683C
:10F3000002236A4600F010FD18B9BDF80000FFF7AF
:10F31000C4FF01BD70B5B04CB04925680968064608
:10F32000A819884201D3002070BD3146284600F05C
:10F330006FFD7019C01C800880002060284670BDD9
:10F340002DE9F047044686B02068A54DC00544BFAE
:10F350000120287000F065FD267A06B90426677A38
:10F3600007B90127E068DFF87482DFF86C9228B1F2
:10F37000C9F80000218A0844C8F80000DFF864A238
:10F38000504600F053FF51460F2000F0BAFF3946B7
:10F39000304601F003F83946304601F07DF804F1BB
:10F3A0003006B77A87B3112FA8BF102701F022FAD1
:10F3B0007A1C81B20023D2B20C2000F077FF01F05A
:10F3C000F4F801F034FAD8F80000D9F80010001F62
:10F3D000401A5821B0FBF1F20023D2B25121012092
:10F3E00000F064FF287838B92068400A00F0010076
:10F3F00080F0010001F0FEFA01F0A4FB287828B1AA
:10F40000606A7949086001E00427CFE7012001F034
:10F41000AFFB76486E4D01682868754F00F077FAAB
:10F42000337872682868734900F072FC2868724962
:10F43000042304F12C0200F06BFCFFF75BFF206853
:10F44000800900F00106604800680003C00DADF8B7
:10F450000400022328686A46394600F065FC48B972
:10F46000BDF80000BDF80410884209D016B1FFF7BE
:10F4700014FF05E02868022301AA394600F048FC81
:10F4800020794FF000084007E06948BF4FF00108BD
:10F4900010B1012101F0ACFB28685849062302AAEB
:10F4A00000F042FC01264FF0000980B902A90A5C75
:10F4B00012B9401C0628FADB062808D000200A5C96
:10F4C000FF2A02D1401C0628F9DB062801D10026BC
:10F4D00014E028684A4901230DF1020200F024FCDF
:10F4E000002804BF9DF80200012807D1062202A9C6
:10F4F00004A8FFF795FD00264FF0010901F091FBEC
:10F5000001F04EFB3F49086001F016F8206A01F057
:10F5100004FE002E14BF02AA002204F128030121D8
:10F52000204601F005FA01F001FA01F042FEB9F1BE
:10F53000000F03D004A9012002F059FB002132483A
:10F5400001F08FF91D490870B8F1000F0CBF0220BF
:10F550000320FFF75DFA01F038FB06B0BDE8F08745
:10F560002DE9F041044600F0D5F81D4D254E08E088
:10F5700002F06DFC0746404602F0D2FC384602F02D
:10F58000D7FC01F00DFB3060306800F018FF8046BA
:10F5900000F0C9F840B901F08BF90028F4D114B19A
:10F5A00028780028E4D00020BDE8F0810120D7E7CA
:10F5B0000D480068010018BF00477047FC44002058
:10F5C0002C410020A004010330400E4000F80F0041
:10F5D0009044002032000400504400205444002095
:10F5E000FD44002015F3000048440020944400200E
:10F5F0003400040036000400350004002C00040030
:10F600003C0004004C44002079F2000080B5002149
:10F6100000E00000002000F0E3F8BDE8014002F047
:10F620008BBC032880B5002100E00000012000F021
:10F63000D7F8BDE8014002F081BC032880B5002165
:10F6400000E00000032000F0CBF8BDE8014002F02C
:10F6500097BCFEE780B5002100E00000082000F024
:10F66000BFF8BDE8014002F0D1BCFEE780B5002143
:10F6700000E00000092000F0B3F8BDE8014002F00E
:10F68000EBBCFEE780B5002100E000000A2000F09E
:10F69000A7F8BDE8014002F0E1BCFEE780B500211B
:10F6A00000E000000B2000F09BF8BDE8014002F0F4
:10F6B000F3BCFEE780B5002100E000000C2000F064
:10F6C0008FF8BDE8014002F0F1BCFEE780B50021F3
:10F6D00000E000000D2000F083F8BDE8014002F0DA
:10F6E00029BDFEE780B5002100E000000E2000F0FB
:10F6F00077F8BDE8014002F048BDFEE780B5002183
:10F7000000E000000F2000F06BF8BDE8014002F0BF
:10F71000A4BDFEE73D490A68100003D012680A60E4
:10F7200001F023BA70473948006800B1001D7047E6
:10F730002DE9FC410F4606463878000614469846E7
:10F740000FD5A019001D01F0FEF9304D30B3002196
:10F75000016000E00D4629680029FBD12860051DE5
:10F7600001E02B48056832463946284602F08EFDF6
:10F77000A4B10898AD19022808D12246414628466E
:10F7800002B0BDE8F041002302F09BBE2246414694
:10F79000284602B0BDE8F04102F078BDBDE8F38133
:10F7A0001C49096800E0896821B10A788242FAD1CF
:10F7B0000846704700207047E0B58278C078ADF801
:10F7C0000810000640EA024040F40870019000234F
:10F7D00001200090002201A90620FFF7A9FF07BD24
:10F7E00038B504460D46FFF7DBFF60B90C2001F089
:10F7F000B9F910B94FF4C17032BD047045600549C4
:10F800000A6882600860002032BD00005844002071
:10F81000384400205C44002010B582B0049C009461
:10F82000FFF786FF13BD71B581B00D469DF8060048
:10F830001446FFF7B5FFF0B1290014D19DF804106C
:10F840009DF80720406801F0F80600E0083090B10C
:10F8500045682B000FD0037803F0F803B34204BFD0
:10F86000C3789342F2D1012000F05DFD0B2808D24D
:10F870004FF4C17101E040F2831101A8FFF79CFF32
:10F8800073BD2046A84773BD80B503F049F8002337
:10F89000042205210020FEF7D3FC002304220F21BF
:10F8A0000320FEF7CDFC01BDDFF800F0590B00206E
:10F8B000DFF800F0110C002010B582B00446FFF70D
:10F8C000F3FF002000F099F9201DFFF7F1FF00F091
:10F8D00093F904F10800FFF7EBFF221D082100F067
:10F8E00013FA00F08AF92046FFF7E2FF002016BD68
:10F8F000C0F30A010831B1F5006F04D280884FF6D9
:10F90000FF71884201D1012070470020704738B54F
:10F9100002F09DFA0446FEF735FDDFF8B004DFF88B
:10F92000B054016809048909A1F580512960006873
:10F9300000048009A0F50060686003F00DF82868F5
:10F94000021D082100F0E0F92968096888421CBFFF
:10F950002868FFF7B1FF6868021D082100F0D4F99C
:10F960006968096888421CBF6868FFF7A5FF2868B6
:10F9700040686968496888428041DFF85814C00FC0
:10F980000870FEF71BFD204602F0D2FA002032BDBF
:10F9900070B5DFF8401491F900100446DFF8300428
:10F9A00050F8215005F10C0600F02CF9A8B900F030
:10F9B000A8F93168884204BFB088A04201D130461E
:10F9C00070BD00F091F906EB800000F10806F00A26
:10F9D00005F10C0100F00AFAE6D0002070BD2DE917
:10F9E000FE4304464FF6FF75AC4214BF002840F2B8
:10F9F00012200E4632D000F0FAF850F8219002F0B2
:10FA000026FA8046FEF7BEFC09F10C073846FFF7E0
:10FA10006FFFF0B9B888304006EA0401884211D17E
:10FA2000D7E90001CDE90001ADF806500422BDF888
:10FA300004006840ADF8040002A901980290381D46
:10FA4000FFF736FF00F0D7F909F10C0100F0CEF90D
:10FA5000DCD0FEF7B3FC00F0C7F80020BDE8FE8361
:10FA60002DE9F84F81464FF6FF70814514BF5FEADC
:10FA700009004FF4C07084B00D4614461E4670D085
:10FA800000F0B5F850F821A002F0E1F98046FEF749
:10FA900079FC0AF10C000AF10C074FF0000B009002
:10FAA0003846FFF725FF002840D1B879011D3A1DDF
:10FAB00000F02AF93968884204BFB888484523D144
:10FAC000B87984420BD10498224607F1080102F06C
:10FAD00061FF20B9FEF772FC00F086F87DE0D7E9FF
:10FAE0000001CDE901010422BDF808004FF6FF71C5
:10FAF0004840ADF80800ADF80A1003A90298039039
:10FB0000381DFFF7D5FE8346B87900F07DF807EB86
:10FB1000800000F108070099F80A00F067F908BFB3
:10FB2000BBF1000FBCD0BBF1000F4FD1002C4DD06A
:10FB3000381908300099C00A00F058F912D000F0C6
:10FB400081F80746C7F30A00002804D000190830DE
:10FB5000B0F5006F06D9FEF731FC00F045F840F231
:10FB600001503EE044EA0520ADF80A00ADF80890E7
:10FB70003D1D02980090B946042269462846FFF7C9
:10FB800097FE2F1D002511E03078717840EA0120A2
:10FB9000B17840EA0140F17840EA016000F02DF8C8
:10FBA0003846FFF785FE361D3F1D6D1C30B9E01C41
:10FBB000411000EB9170B5EBA00FE5DB09F10402F9
:10FBC000211D00F0A1F800F096F88346FEF7F6FB41
:10FBD00000F00AF8BBF1000F01D1002001E04FF462
:10FBE000C67005B0BDE8F08F404602F0A1B9794972
:10FBF000774891F90010704701200090042269466F
:10FC000070474646304673E6C01C411000EB9170C9
:10FC10008010704770B50E4615461C46FFF7B8FEBB
:10FC200030B906B130702870206040F2025070BDCB
:10FC300016B1C188090A3170C18829700830206066
:10FC4000002070BD2DE9F047624C614994F9000035
:10FC500082B051F820A080F0010051F820502846D1
:10FC6000FFF722FE0AF10C0805F10C0905E000F08F
:10FC70003BF808EB800000F1080800F0B3F815D15C
:10FC8000FFF7BFFF90B900F03CF831688842EED131
:10FC9000002700F029F8801C8742EEDA58F8040BA0
:10FCA00000F029F809F104097F1CF2E7DAF80400F2
:10FCB000401CFFF7A2FF281DFFF7FAFDFFF79CFF8E
:10FCC00005F10800FFF7F4FD2A1D082100F01CF8DB
:10FCD000FFF793FF2846FFF7EBFD207880F0010047
:10FCE00020704846BDE8F687B079C01C411000EB93
:10FCF0009170801070470090042269464846FFF7D3
:10FD0000D7BDB079011D321D4FF0FF3002F028BE83
:10FD10000846194680B51346CAB2002180B2FFF7E3
:10FD20009FFE00B12C4802BD30B583B00846144692
:10FD30001D4601AB6A460DF1010180B2FFF76AFF73
:10FD400008B126483EBD9DF80000A84201D22448D3
:10FD50003EBD01992A462046FFF752F900203EBDDC
:10FD600080B508464FF6FF7180B2FFF738FE0020DD
:10FD700002BD2DE9F04788460026164914488957E8
:10FD800050F821A0089891460AF10C079CB285B260
:10FD90004E4517D23846FFF7ABFD98B9B879011D2B
:10FDA0003A1DFFF7B1FF3968884206D1B888A042F2
:10FDB00022BF854248F8040B761C00F01CF800F0C6
:10FDC00013F8E5D03046BDE8F0870000F881E00F79
:10FDD000F8430020560C002006E000F00BE000F095
:10FDE00011E000F04FEAD8200AF10C01C002C90A64
:10FDF000B0EBC12F7047B879C01C411000EB917077
:10FE0000801007EB800000F10807F80A7047FEE752
:10FE10000022FEF74BBDFEE741F0010140B2FEF7C4
:10FE2000BDB800B51F4883B0006800F16041B1F56E
:10FE3000804F07D30021019100913A231A4A3A21B9
:10FE4000FEF7BEF819490020FEF7A8F8184901206E
:10FE5000FEF7A4F817490420FEF7A0F8164905207C
:10FE6000FEF79CF815490620FEF798F8144907207C
:10FE7000FEF794F813490820FEF790F812491A206B
:10FE8000FEF78CF811491C20FEF788F810491D2058
:10FE9000FEF784F803B05DF804EB0E492020FEF76E
:10FEA0007DB8000008ED00E0003E00207FE6000085
:10FEB000E9560200F152020031570200EF560200EB
:10FEC000F1560200EB5602000FB801003357020052
:10FED000ED5602006B570200DFF87413086070479C
:10FEE00010B5DFF870331C7804431C70012804BF80
:10FEF00059709A7010BD2DE9F04385B006468946C9
:10FF000017461C4602F078FDFF1EDFF84C83D34DE8
:10FF100038D07F1E55D0FF1F00F01481FC3F00F049
:10FF20009D807F1E00F009817F1E00F0E680F83F73
:10FF30004BD0BF1E55D0FF1E6DD07F1E00F0F3804A
:10FF4000FB3F14D040F2FF403F1A00F030817F1E8B
:10FF500000F00B817F1E00F012817F1E00F01A81DD
:10FF60007F1E00F01B81BF1E00F02A8136E1B848D9
:10FF700005682800FAD0234640F20232494630464E
:10FF8000A8472BE10C22002101A802F03EFE01A8A7
:10FF900002F046FE0220A88000230820E88000220C
:10FFA000002028812946932068810298E86001207A
:10FFB0002882AB48C5F81200AA4800F013F91620B1
:10FFC0000AE12088A880A848FFE02068007B80071D
:10FFD00020D5A088A88000232068C07F00F006F903
:10FFE000ECE02068C07F02F0EBFE060012D0307B10
:10FFF00080060FD4A088A8800023F07F00F0F6F8D8
:020000040001F9
:100000000720FFF709FC304600F0E9F9F06840F0FE
:100010002000F060E2E0206800F111010622281DB6
:1000200002F034F92068C07DA8722946206890F853
:100030002E00012818BF0020E87200232068C07F2E
:1000400028730022206890F83C006873206890F8BC
:100050003D00A873854800F0C5F84CE0844800785E
:100060000028D7D16078FF2813D1A0782871062204
:10007000E11C681D02F00AF9607AE8720023A07A98
:10008000287300227B4828602946012000900D201B
:10009000A2E020782871607898B102280CD003285B
:1000A00008D004280DD0802804D0812806D08228CA
:1000B00002D005E0032004E0022002E0012000E07D
:1000C000FF2068710622E11CA81D02F0DFF8607AAB
:1000D000287304F10C03A07A6873E07AA8730B30DC
:1000E000010241EA102040F4403040F0A00000F04E
:1000F00079F82946AA7B0F206EE000F07FF80028EF
:100100006CD000F086F8A088A5F807002946E088A2
:10011000A5F80900207AE8726089A881564800F0A5
:1001200061F80E2058E000F069F8002856D02078D9
:10013000287160786871514847E020782871002361
:100140004F4820E000F05AF800281CBFC17D10295C
:1001500044D0C07F28710023607868710022A078A5
:10016000A87129464748286026E000F047F8002893
:1001700034D02078287160786871434825E0207871
:100180002871002341482860002201200090294660
:10019000052021E000F035F83D4802E000F031F89C
:1001A0003C482860294601200090092014E000F016
:1001B00030F83948286029460120009007200BE0DC
:1001C0002078287160686871344828600023012015
:1001D0000090002229460620FFF71EFB002005B0F4
:1001E000BDE8F0832860012000907047A871C5F831
:1001F000008001200090002229467047207802F0FC
:10020000DFBD2078287100236068C5F80500002252
:1002100070472078287100236088A5F80500002227
:100220007047032200210B4802F0EFBC38B50446AA
:1002300040F22D152846A047194908602846A047D6
:10024000184908602846A0471749086031BD0000DA
:100250004444002040440020A00308012C41002019
:10026000D52FCA9FA0120100A0020105A00B080013
:10027000FB440020A0090302A00A0802A00208040F
:10028000A0010301A0030803A0020F03A0010F01B6
:10029000A0050F00A0050F02A0030F04A0020F0984
:1002A00034440020384400203C44002070B51446FB
:1002B000C91C4FF6FC721140C91C02EA010528490D
:1002C00001EB00160020274935807480F06004FBA4
:1002D00005F009688847706015FB04F1318189B227
:1002E0007068FFF795FD002007E0716800FB05F2DC
:1002F0001144F2680A60F160401CA042F5DB748092
:1003000070BD184A116050600101154802F0A8BD87
:10031000134901EB0011C86820B10268CA604A881D
:10032000521E4A8070470E4901EB00104088C0B24F
:1003300070470B4A02EB0010C2680A60C160418836
:10034000491C41807047000105490A5A2AB10A1820
:10035000085A128992FBF0F07047002070470000A5
:10036000883C0020F043002080B50B490020086045
:1003700002F079FD02F05FFD02F08AFD01F08CFFD2
:1003800003F0C0FA00F00EFF03F017FC03F086FD47
:10039000BDE8014003F08AB87444002038B5044633
:1003A0000D460023012200210020FFF77FFF204699
:1003B00002F04DFD284600F0E2FE002032BD10B5EF
:1003C000044603E000F0DEF903F06EF802F0DFFF10
:1003D00000282046F6D1BDE8104000F0D3B900282F
:1003E00018BF01F025BA4FF4C070704750E8002FD5
:1003F0000A4340E80023002BF8D170472DE9F04173
:10040000DFF8248108F10C02002308F10C0151E807
:10041000001F42E80035002DF7D141EA0005280110
:1004200048BF03F04EFE002D48BF04F05AFA6800A2
:1004300048BF05F03DFCA80048BF06F0E2FEE8001A
:1004400048BF07F032FD680108D507F091F928B9D7
:100450004FF0806108F10C00FFF7C8FF280419D0A5
:10046000AEB2002796FAA6F0B0FA80F0012101FAA8
:1004700000F406F0BFF8A64318B106F0DBF800B9A7
:100480002743002EEED12FB1294608F10C00BDE81C
:10049000F041ABE7BDE8F08110B50C4606F0DCFB9F
:1004A000204607F018FCBDE81040012007F02CBFE3
:1004B0001D48C068002818BF00F024BE704710B562
:1004C000040019481FBF61680160A168002900D0BD
:1004D00000D11649164A116016498160001D02F0CC
:1004E00006FA204603F025FF07F0BDFF07F0E3FE04
:1004F00004F0F3F907F007FC05F0B2FA06F0D4FBBC
:10050000BDE8104008F056B8014607486EE70649B6
:1005100051E8002F824341E80023002BF8D17047B7
:1005200001490968084070474C43002050080020EA
:1005300084440020B1040100B54908607047B54902
:100540000A680AB900207047D2680021101A00D446
:1005500000D101210846704710B5AE4A12684FF02D
:10056000FF3109E0D36814695268E3181B1A23F0BD
:1005700000438B4298BF1946002AF3D1084610BDAC
:1005800010B5040010D0606930B1A168002903D40F
:1005900000F0EBFA00206061207E0F2804DA21468B
:1005A000FFF7C7FE0F20207610BD9A490020086093
:1005B0000023142220210A20FFF778BE2DE9F84FEE
:1005C000944C25688046894692469B46002604E066
:1005D0006F682846FFF7D4FF3D46BDB12868404507
:1005E00002BFA86820F0004048450CD15FEA0B002C
:1005F00003D068695146D84728B96868002E14BFEF
:1006000070602060E4E72E466D68E6E7BDE8F18F94
:1006100000230022D2E71CB50A240194049C009414
:1006200000F001F816BD2DE9F04106001CBF30684E
:1006300000280F4690461D460AD1B8F1000F04D09D
:10064000002F5CBF404600F090FA4FF4C67033E0D4
:10065000079C2046FFF75CFE50B9B8F1000F04D0AC
:10066000002F5CBF404600F080FA4FF4C17023E0D9
:100670008760C0F81480066000220699654B01610E
:100680000476C561624909686918C1601C6825461D
:1006900001E02A466D683DB1EE68761AB6F1004F6A
:1006A000F7D2EE688E42F4D012B94460186002E0CE
:1006B0005168416050600020BDE8F08180B50023A2
:1006C0000093FFF7A8FF02BD70B504460D4616461D
:1006D0000C2000F038FA10B94FF4C17070BD4560BD
:1006E0008660216801602060002070BD2DE9F04126
:1006F0000546002728680E469046002801E0074678
:1007000020000ED042680168B24204BF82684245B0
:100710000C46F4D1002F0CBF2960396000F025FA97
:10072000EEE7BDE8F08138B504463A49206809682B
:1007300007E00A68A24203D18A6802F000428A6098
:1007400049680029F5D120B1056800F00EFA284665
:10075000F9E7206031BD2DE9F04104000D469046D7
:100760000DD0276800E037464FB13E68B8687F6813
:1007700043462A462146B8470100F4D000E0002055
:10078000BDE8F0812DE9F041214C234D214E206040
:1007900021E0286007461ED0B86840001FBF3868B7
:1007A0000028D0F800C0BCF1000F0FD0BA6850008C
:1007B0000CD0DCF80080DCF808007B693968DCF8D4
:1007C00004C0E04710B95FEA080CEFD12868FFF7D2
:1007D000D7FE0020286027683846FFF7B0FE28B112
:1007E00030680028D5D041683160D2E73846BDE88E
:1007F000F041B1E620207047074A12681AB1D36968
:100800000360106901E0026000200860704700008A
:10081000784400207C44002080440020890001EBC3
:10082000401000F10850026070470122F6E73A4894
:100830000021C0E900113948282102F011BB3649D6
:100840004A68D04390FAA0F0B0FA80F0052802DBA5
:100850004FF0FF307047012383401A434A6040B293
:10086000704770B504460D46FFF7E9FF06462B4872
:100870002A46214600EBC600FFF726FF304670BD32
:1008800010B5052809D200F009F852E8003F0B43E3
:1008900042E80034002CF8D105E010BD1F4B03EBFB
:1008A000C002121D7047BDE81040C1B21A48BCE733
:1008B00070B582B01A4C184D00E02070286820B343
:1008C00026780121B140084219D00022314628463D
:1008D000FFF7A4FF114800EBC600011D002351E8FB
:1008E000002F41E8003CBCF1000FF8D1110000924C
:1008F00005D06A460B49FFF72EFF012076BD6868D8
:10090000864234BF701C0020D7E776BD02480068DD
:1009100000B1012070470000E0430020AC410020FE
:100920000045002078563412704770470120704708
:1009300070B50D4611001E4686B004466F4B17D1A8
:100940006F4908684968CDE900019DF800001870FA
:100950009DF8010058709DF8020098709DF8050000
:10096000D8709DF8060018719DF80700587103E0D3
:1009700006221846FEF744FB002E1CBF30780028E4
:1009800004D0707810B940F6E44001E04FF4E16023
:100990005C4908805C48D0E90023CDE90023088841
:1009A000ADF802005021684600F033F803A800219A
:1009B000002200230EC0608AADF80C00606904902C
:1009C000A069059003A8FFF77AFD5020ADF8080054
:1009D00002234E484E49006802AAFFF7A5F9BDF967
:1009E000080000F03AF8284607F048FFFFF719FC26
:1009F00006B070BD80B518B146494748FDF7B0FF55
:100A00004648016841F029010160BDE8014007F056
:100A100093BF00B5424A85B01268D20704D57D3134
:100A20007E2924BF00210170408840F6E4418842BD
:100A300005D13C4800903C4801903C4804E03C48CB
:100A400000903C4801903C48029008208DF80C0032
:100A5000684607F0DDFF05B000BD3EB504463748E7
:100A6000374DD0E9002327480088CDE90123ADF8B0
:100A70000600214601A8FFF7CCFF286801A908F06D
:100A80000AF89DF804102868224608F013F8014679
:100A9000286807F0FAFF286807F0FAFF02469DF879
:100AA0000410286808F06EF8044642F60720ADF8F6
:100AB00002000DF10201022008F0B8F802464FF6DC
:100AC000FF71012008F012FD050014D0012CACBF0D
:100AD000601D601F0A2190FBF1F08DF800000123DA
:100AE0006A460021012001F045FC03460022294608
:100AF000002008F04FFC20463EBD0000E8430020E7
:100B0000F081E00F500C0020C4B70000904400209A
:100B1000310004002B09010029090100B0400E40FA
:100B2000D481E00F0CB7000004B7000014B7000038
:100B3000ACB70000A4B70000B4B70000CCB7000009
:100B4000AC440020704738B5C01C8408A00008F0F1
:100B500062FD050001D1002032BDA100FFF758F968
:100B6000284632BDEFE74843EDE708F062BDFEE7F7
:100B700080B538B10FF231011E20FFF74DF915494C
:100B8000012008604FF08040134908601349086055
:100B900001BD1049C860086840F002000860704755
:100BA0000F480068704700000E480168CA0703D567
:100BB0000D4A13685B1C13608A0704D50B4A13683F
:100BC00023F002031360816070470249012008602E
:100BD000704700001440044080E200E000E100E0C3
:100BE000044004400840044098440020242004406D
:100BF00003F058B938B50C46154603F029FA10B978
:100C000040F2011032BD2A462146BDE8384009F0C5
:100C1000EAB9FEE7DFF85C04C16802681140816050
:100C2000704738B5DFF850044FF080440460002569
:100C3000DFF848040068810548BF022506D4000695
:100C40004FBF01251B21002009F082FADFF8300494
:100C50000168C90845EAC10101600121DFF82404E7
:100C600009F082FADFF8200400214160016841F0B8
:100C7000010101604169C908C900416107210161A1
:100C8000DFF80804DFF808140460DFF808040460E3
:100C9000DFF80404086031BD2DE9F04F85B004464B
:100CA00000F0C5F9DFF8F413DFF8F46300FB04107B
:100CB000DFF8F013B0FBF1F0801C01904FF0000959
:100CC000FDF760FF00904FF0FF34356809F0F2FC4B
:100CD000CDE90201A246C8460027DFF8CC0339015E
:100CE000405800F00300012819D1384609F0FEFCF5
:100CF00002460B46DDE9020109F04FFBF26D07F1F8
:100D00000803DA40D2074FF0010802D50024A246BA
:100D100005E0514503D82EBFA04204468A467F1CF9
:100D2000052FDAD305F44030B0F5003F1CD1F06A4E
:100D30000021421C61F1FF3305F44050B0F5805FA3
:100D40000DD1B06A10F58070A0FB025B41F100018B
:100D500000FB03BB01FB02BB2A465B4609E01B020A
:100D600043EA1263120204E0B06A10F5807249F19E
:100D70000003A2FB045B02FB0ABB03FB04BBCB4CDE
:100D8000CB482768F168006811F0060F08BF10F023
:100D9000706F7DD10198001D00F057F9594503D8B7
:100DA0002CBFA842012100D3002118EA010F6AD00C
:100DB0002D0A00F03CF9CA4645EA0B654FEA1B2BA9
:100DC000A0FB058900FB0B991120FBF78DFB024668
:100DD00000234046494609F057FD8046D6F8689002
:100DE000B148B44DB049C6F868A04FF4807B0068A4
:100DF0006860B14808600420E060C6F864B020680C
:100E0000401C2062206AA86013E0A968491C88423F
:100E10000FD1BAF1000F06D00098FDF7B7FE1A21E6
:100E2000002009F095F9A868801CA8604FF0010A1D
:100E300020622068F16DC905E7D5C6F864B0C6F830
:100E4000689008EB07000199401A206204209B4932
:100E5000E06008602068216A401A0199A1EB08014E
:100E6000884207D26868904908600098FDF78EFEB6
:100E7000002011E0012028700220706001209049BC
:100E80000860814604E0B8F1000F08BF4FF0010987
:100E90000098FDF77BFE4846C0E02DE9F04F8548FD
:100EA0000078002885B000F0B9807F4F8549F86848
:100EB0007B4E00904FF0807B04200860FDF762FEBF
:100EC00001904FF4E001804801604FF4003101606F
:100ED00002207060C6F864B0744874490068801CD1
:100EE0000862086A73498968401A00F0AEF804463F
:100EF000306810F4883F0D464DD0B06A10F5807808
:100F000005D12B21002009F023F94FF0010800F052
:100F100088F8D7F804A0120A42EA0362924400F06B
:100F200080F8BAEB182F04460D4604D3641C65F113
:100F3000FF35AAEB182AC6F810A0B868F16A201885
:100F4000491CB0FBF1F201FB120070610021F8684E
:100F5000DFF8788100196941CDE90201306B98F81A
:100F600000900021441C61F1FF35DDE902012246B9
:100F70002B4609F089FC484488F80000224698F87E
:100F8000000000F0030088F800002B46DDE90201B4
:100F900009F07AFCB2610198FDF7F8FD434800685A
:100FA000F16DC90108D44149096A081A0328F5D32B
:100FB0000D21002009F0CCF83E484549C6F864B040
:100FC000406838604FF4E400086000203949087038
:100FD000FDF7D8FDB1690022F46D15017B59DB07DF
:100FE00014D502F10803DC40E4070FD47C19E4684F
:100FF000009DA94202D3A54208D201E0A54201D337
:10100000A14203D3012404FA03F33366521C052AD8
:10101000E2D305B0BDE8F04FFDF7B8BD05B0BDE8BF
:10102000F08F204629464246002309F02DBC80B5AA
:10103000144809F0BCF827490968012201F00301AE
:1010400002FA01F1B0FBF1F002BD38B504461120FF
:10105000FBF74AFAA0FB0445FFF7E9FF024600232D
:101060002046294609F010FC090241EA10610002FD
:1010700034BD00000840044080E100E090400E4094
:1010800000420E40000638000040044080E200E0CC
:101090006C600E4000E100E00210100020A107008B
:1010A0000050084040420F000051084004400440F6
:1010B000044008408C43002003000700144004460D
:1010C00000510844144004440850084604450020D8
:1010D0000850084418420E4050E8002F40E8001322
:1010E000002BF9D11046704780B500211148FFF759
:1010F000F3FFBDE80240FFF781B90F494FF0805080
:10110000086070470B4951E8002F024341E8002373
:10111000002BF8D10948006800470200074901D0B8
:1011200008607047064808606FF001000549FEF747
:1011300073BE00008844002004ED00E08C440020D1
:10114000FB100100E91001000A431040884201D160
:101150000120704700207047012802BF487900F045
:10116000C000402801D101207047002070470228AC
:1011700018BF042801D1012070470020704710B526
:10118000DFF8B84784F83800282110FB01F100236C
:10119000012289B20720FFF789F80720FFF7B8F886
:1011A000606010BD0022DFF8FC18DFF8FC08FFF7D4
:1011B0008BBA30B5DFF8841700220A7001F12C03D6
:1011C00023E04C68282555432C4400252570657084
:1011D000521CA02565604FF4A075A56007252575F4
:1011E0000025A575257465826575A561E5610125F4
:1011F00084F8205084F8215000256562102565622E
:101200000025E5604FF48075E5601C7BA242D8DBC9
:1012100064220A811870C8224A8100228A816422CD
:10122000CA8110224A828A82CA830A8401221869EA
:101230000A7440F400701861042200200A771875BF
:1012400001F110020F208A62587530BD10B50446B6
:101250000C20FFF778FC18B304F11F010A78027024
:10126000497C01F00B01012909D0032902D00B2987
:1012700002D003E0022102E0032100E0002101721C
:1012800004F148010A8842804A88C2808A888280A4
:101290000246C988418140F20911BDE81040EBE0E7
:1012A00010BD38B504460D460220FFF74CFCE0B1F6
:1012B000E17F0170012D10D0022D0CD0032D08D03C
:1012C000072D04D00B2D0CBF0821002106E00421BE
:1012D00004E00C2102E0022100E0012141700246FD
:1012E000BDE8384040F20721C6E031BDF8B50446FC
:1012F000DFF848560846296B002904BF6A6B002AAC
:101300001BD0E86BDFF8A06720F00200E86340F232
:10131000071739B18C7239462A6B3046FFF7CEF980
:1013200000202863686BA0B1847239466A6B30462E
:10133000FFF7C4F9002068630BE001F061FD40B1E4
:10134000C16880F83C4041F00101C160002100F01B
:101350008EFA002001F054FD20B1BDE8F2401130BA
:1013600009F04CBBF1BD30B5921E002301E0641CB6
:10137000E3189A4208DBCC186478844201D1C8187B
:1013800030BDCC5C2500F2D1002030BD38B504461C
:10139000DFF8A855607804282CD0E86B400840009E
:1013A000E86304F10C01E27A0120FFF7DCFF002181
:1013B00000B181782878012802D0022807D009E0FE
:1013C000C80707D42046BDE83240FFF7CEBB11F076
:1013D000030FF7D0607AE11CFFF7BEFE60B3E01C9C
:1013E00009F00CFB0028EDD0E86B2C6340F0020004
:1013F000E86331BD607AE11CFFF7AEFEE0B1286B17
:1014000030B1C11C0622E01C01F0C4FA0028D9D179
:1014100095F83C00800705D5686B08B1FFF7A5FB80
:101420006C6331BDE01C09F0E9FA0028CAD0E86B12
:1014300040F00200E863F3E7607A010003D106227E
:10144000E11C002009E0012802BF207A00F0C00062
:10145000C02805D10622E11C012002F0A4FC00E016
:10146000FF20A0722246E96B012060F30101E963CD
:1014700040F20711BDE83840DFF82C06FFF71EB92F
:1014800070B50D46DFF8B4141E4691F838300446A6
:101490009C42104621D22A0008D101F086FCE0B11E
:1014A00080F83D400021BDE87040E0E14868282117
:1014B00011FB04F1084450F80C1F21F008010160F1
:1014C0000620FFF740FB020007D01470558096807D
:1014D0004FF48471BDE87040CEE770BDDFF85C0466
:1014E000017861B900E0491C90F83820914208DA8F
:1014F000426828234B431A44127B1207F3D501207C
:101500007047002070474FF4C07070BDDFF82C04A6
:1015100010B500F13C0482B02178090621D421796C
:10152000F9B10621423009F0B3FBFFF7D7FFC0B194
:10153000002000904FF47A726079DFF8F418A1FB74
:101540000001002309F0A0F9034600224FF4857141
:10155000DFF85405FFF75FF818B9206840F0800005
:10156000206013BD012818BF022804D0042801D12F
:1015700003207047002070472DE9F041DFF8B418D0
:101580008CB02CC9044609A82CC0DFF8B003011D9B
:1015900028230A6813FB04F31A4409AD537835F87D
:1015A0001350161D042B326A06D0D30604D5337FA0
:1015B000012B08BF45F010059206896B48BF45F026
:1015C0002005C90506D4717C01291CBF90F8400094
:1015D000012801D1012700E00027707FFFF7C2FF3B
:1015E0008046307FFFF7BEFFB17C069008917F20D8
:1015F0000590CDF81C800020049003900290019784
:101600002946307C009073683268204601F0F1FF73
:101610000CB0BDE8F081F0B5DFF8207307F13804B5
:1016200083B06088002840F086806068800500F103
:101630008280002528E0F06881060CD5B06900F0B2
:101640007CF802F02EF86080F06820F02000F06056
:1016500006F118000DE041060ED5F06900F06DF8B6
:1016600002F02EF86080F06820F04000F06006F193
:101670001C0000F0C8FF5CE0810704D501071FD4FF
:1016800020F01200F0606D1CE8B22178884252D23E
:101690007868EDB2282111FB05F146181022F06898
:1016A0000221FFF751FD0028C5D0002300220021B0
:1016B000284602F025F86080F06840F0100029E02C
:1016C00000221421FFF740FDB8B1707D012805D13B
:1016D0006946062009F019FB694606E0207A0128D0
:1016E0000CBF07F1420107F14801284601F0C5FF90
:1016F0006080F06820F004000CE0F0680022112106
:10170000FFF722FD40B12846FFF736FF6080F06802
:1017100040084000F0600CE0F068C106B3D520F04E
:101720001200F060337C728A0121284601F0E8FF44
:1017300060800120FEBD0020FEBD81794218C07985
:10174000411A0C32C9B22846704730B5DFF8184547
:10175000608F002883B04FD1E06B81054CD44106E7
:1017600012D5C10601D441050ED594F840000128D8
:101770000CBF04F1420004F1480001F024FF60872F
:10178000E06B20F488600BE0010735D5C10609D471
:101790000021002001F0D9FF6087E06B40F01000CD
:1017A000E06327E0A56A297A490719D5C00503D463
:1017B00094F84000012801D1012000E00020002120
:1017C00001910090AB886A88A979287801F0AAFF76
:1017D0006087A06A50F8081F21F00401016009E049
:1017E00020F01800E063207830B10021012001F0E2
:1017F000ACFF608701203EBD00203EBD70B50446B1
:101800000D46DFF8340600F13C010A79012A02D1C5
:101810000126423005E00868000A00F0010600F0E9
:1018200012FA2B4622463146BDE8704001F028BA34
:1018300010B5044601F052FE204601F060FA002087
:1018400010BD30B5044683B0207C04280ED0ADF81E
:10185000041040F2032500946A4629469248FEF798
:101860007AFF6A4629462046FEF775FF37BD2DE907
:10187000F0410D460446280004F12E074FF02808D9
:101880002E4E10D000F05CF80820FFF75CF900281D
:1018900052D08580046002462046BDE8F04140F207
:1018A0000121FEF70BBF1B203884F87BFF2802D1F3
:1018B0003878012840D1207BC00712D4E07D04F1A4
:1018C0001101FFF749FC60B197F90E0010F1010F0B
:1018D00007D10420207404F11100BDE8F04109F0A3
:1018E0008DB800F02DF8204602F0F8FA387802287A
:1018F00004BF204609F0D4F9022020740420FFF729
:1019000022F9020005D0146040F206216648FEF775
:10191000D5FE0420FFF717F930B10460024640F20B
:1019200002212046FEF7CAFE204601F0DFFF2046D6
:10193000BDE8F041FFF78ABCBDE8F081A840002077
:101940003878012804D1F06B20F02000F063704754
:10195000F97B706818FB01F1084450F80C1F21F066
:1019600008010160704770B504460D460C20FFF772
:10197000EAF806001DD004F130003460017811F05F
:10198000010131711CBF017801F00201717129461A
:10199000007BB0713581204609F09BF832464FF448
:1019A00001712046FEF78AFE2046BDE87040FFF731
:1019B0004DBC70BD2DE9FC410F46032F0546164670
:1019C00033DB089C8C4228BF0C4601A9022007F09B
:1019D0002DF900F06BF8804607F0E1F928B300F02C
:1019E0006BF8414607F094FCBDF800202146914277
:1019F00088BF1146ADF800109DF80210A9B9BDF8D6
:101A0000001091B1891C8F420FDBBDF80010491CFA
:101A100029706E700146BDF80020A81CFDF7F0FA91
:101A2000BDF80000801CC0B200E00020BDE8F681D7
:101A3000F0B50E46032E83B0044631DBDFF8FC031D
:101A40000088ADF8040001A9022007F0EFF800F0CB
:101A50002DF8054607F0A3F910B94FF0FF30FEBD91
:101A600000F02AF8294607F053FC0146BDF8002093
:101A70000927B01E904204DA082E11DBADF80000F1
:101A80000827BDF8000058B1401C20706770A01CEA
:101A9000BDF80020FDF7B4FABDF80000801CFEBDC3
:101AA0000020FEBD4B1B01007444002002464FF68F
:101AB000FF71012007F01ABD0020ADF800000DF104
:101AC00002036A467047F8B50C4602212170A070E7
:101AD00001216170009115461E4642F607230A2235
:101AE0001C21E01CFFF766FFC71C0420FFB200901A
:101AF000C7F11F0142F604231222C9B2E019FFF711
:101B000059FFC719FFB2C7F11F01E01907F05CFBCD
:101B1000DFF8241391F84010C719FFB2002049B92B
:101B2000C7F11F01C9B2E019FFF782FF0128A4BF66
:101B3000C719FFB22F7020B91F213046FFF778FF79
:101B400000E0002006990870F1BD70B5DFF8E842AA
:101B5000032A04F138050CD0062A11D0B2F5857F8E
:101B60001BD040F20B10824208BF08F005FF002096
:101B700070BD686820F400706860FFF7E6FDF6E766
:101B8000688819888842F2D100206880FFF743FDF9
:101B900008B9FFF7DAFD012070BD686820F0800009
:101BA0006860FFF7B3FC287A0128F4D1002613E01F
:101BB000606828217143425C6AB1084400F10C015D
:101BC0000A6842F004020A6050F80C1F41F002015A
:101BD0000160FFF720FD761C28788642E8DB20783C
:101BE0000028D8D0686840F048006860D1E770B538
:101BF000DFF8444204F138050646686832000AD02E
:101C000040F4A8606860062204F14800FDF7F8F986
:101C1000FFF79BFD02E020F4A0606860002066B939
:101C20000FE06168C0B2282212FB00F21144401C90
:101C300051F80C2F42F004020A60C1B22A78914296
:101C4000EFD3002070BD0848C16BC90501D54830ED
:101C50007047DFF8EC017047DFF8DC01C06B000A69
:101C600000F0010070470000A840002070B5DFF8C8
:101C7000C84194F83860B04213D26468282568439C
:101C80000444207B00060ED420290AD3A2F12000B0
:101C9000DFF8B051A84238BFB1F1807F01D28A424B
:101CA00001D2FFF730BC6068884204BFA068904250
:101CB00005D0E068616040F00100A260E060049837
:101CC00020746382002070BD2DE9F04380465A489D
:101CD00000F1380716463A78904593B00D4628D261
:101CE0004068282111FB08F14418052DB8BF052EC6
:101CF0001FDA012E1DD0607D012803D13046FFF789
:101D000036FAB0B9042E03D094F82000012806D08A
:101D1000E068C00503D494F82400C00609D4022E5C
:101D20000AD194F82400C00603D594F820000128B5
:101D300002D04FF4C0705DE03046FFF718FA28B1CA
:101D400001F08BF810B940F2092053E0042D3CD08B
:101D50000420012D08BF052002D0022D08BF062057
:101D600001A9009102AB0DF105020AA9FFF7ABFE34
:101D70009DF80500002840D003460AAA0021002053
:101D800000F0F8FA5FEA000937D004F1180000F01B
:101D90003AFCC4F81890E06840F02000E0609DF83C
:101DA000040090B1034602AA0021002000F0E2FAEC
:101DB0005FEA000809D004F11C0000F024FCC4F81C
:101DC0001C80E06840F04000E06025706670607D37
:101DD00001281CBF387A012803D1E06840F00400D4
:101DE000E060E06840F00B00E060FFF78FFBFFF77A
:101DF00012FC002013B0BDE8F083404600F003F869
:101E00004FF4C170F6E780B50B4991F8383098422D
:101E100000D319E04968282250430844C16821F0E2
:101E2000080141F00201C160FFF7F5FB002002BD8F
:101E300000003075D4B70000A8400020F2E0000098
:101E40003C420020E0FFFF004FF4C07002BDEFF302
:101E5000108072B67047FEE770B5FFF7F8FF0446D2
:101E6000FCF72FFE0025022822DB284B28480169B9
:101E700002691B6813F4407FC1F3031102F00F02E3
:101E800002D00068800001D4002000E01E20214B19
:101E900033F8111033F8122051184018D23080B2A4
:101EA000FEF7FAFE05001C494FF08040086002D1A1
:101EB0000220FCF7ADFDFEF773FE0646FCF76FFD52
:101EC000FEF76EFE861BFEF7E8FF15B90220FCF751
:101ED000CDFD204600F02CF8304670BD10B504460C
:101EE000FEF714FD38B914F1010F0CD00B4800783F
:101EF00048B9022C01D2002010BDFEF751FE041992
:101F00002046FEF746FE204610BD000000300E4081
:101F100024400E406CB6000080E200E0FE44002049
:101F200080B5FFF7DBFF10B1BDE8014094E702BDCB
:101F3000002800D162B670477047FEE700220FF21A
:101F400009010C48FEF7C0BB80B5B2F1A04F0BD120
:101F500009490A480860002301200090002204205B
:101F6000FDF75AFC012002BD002002BD007808F0F8
:101F7000EDBE0000604400202C410020A0000104C0
:101F80007047286000220120009029460620FDF7B6
:101F900043FC31BD20600022012000902146062034
:101FA000FDF73AFC13BD10B582B0D0F80520D0F88B
:101FB0000110C37A114C0093B0F809300078FFF794
:101FC00055FEA08000230F48E4E738B500F010F874
:101FD00000F009F8A27861782078FFF775FEA880F4
:101FE00000230948CDE70649044D002008807047CA
:101FF0000446002200210220FDF772BF2C41002080
:10200000F04400202002030E20020314704780B524
:1020100000F0D6FE10B940F2011002BDBDE802404A
:10202000FEF7DDB90000000010B582B00078034C67
:10203000FFF7EDFFA0800023014803E02C410020C2
:102040002002080420600022012000902146062082
:10205000FDF7E2FB13BDFEE709F069BB70472060A6
:1020600000220120009021460620FDF7D5FB13BD7C
:10207000C278B0F801100078054C704710B582B0F6
:10208000FFF7F6FFFEF7B6FDA08000230148E6E764
:102090002C41002020020A047047FEE7002914BFEB
:1020A0004FF080414FF000510843704700220FF27B
:1020B00039011D48FEF708BBF0B583B004460D4654
:1020C00016461F46FEF76CFDFEF736FA39462046E7
:1020D000FFF7E4FF0C210191009601462B460022F8
:1020E0001148FEF7A0FAFEBD1CB50F48814219D178
:1020F0009000144609D5694601A8FEF77DFB009AB9
:1021000001990023E0B2FFF7D7FF084808490860AB
:10211000012000900C71002300220520FDF77CFBBC
:10212000012016BD002016BD64440020A0010C0053
:102130002C4100207047FEE738B5012ADFF868001F
:10214000DFF8681004D040F20234A24208D01AE04E
:102150000860002201208A80CA80009000230FE0DE
:10216000B3F90020140003D0DFF8445000242C7091
:102170008A805A880860CA800120009000230022CB
:102180000820FDF749FB002032BD10B5DFF82440E0
