:10000000000001201D6D0000196D0000196D000039
:10001000196D0000196D0000196D0000196D0000C8
:10002000196D0000196D0000196D0000196D0000B8
:10003000196D0000196D0000196D0000196D0000A8
:10004000196D0000D5580000196D0000196D0000F1
:1000500009380000C5580000C958000021590000A7
:10006000D1580000196D0000196D0000196D0000D5
:10007000196D0000196D0000196D0000196D000068
:10008000196D0000196D0000196D0000196D000058
:10009000196D0000196D0000196D0000196D000048
:1000A000196D0000196D0000196D0000196D000038
:1000B000D9580000CD58000085480000196D000097
:1000C000B5580000196D000095480000196D00003A
:1000D000196D0000196D0000196D0000196D000008
:1000E000196D0000196D0000196D0000196D0000F8
:1000F000196D0000196D0000196D000010B5054C58
:10010000237833B9044B13B10448AFF300800123C3
:10011000237010BDC0000020000000002C9C0000D7
:10012000084B10B51BB108480849AFF300800848D8
:10013000036803B910BD074B002BFBD0BDE810408E
:10014000184700BF000000002C9C0000C4000020E5
:10015000B800002000000000154B002B08BF134B17
:100160009D46A3F5803A00218B460F461348144A5A
:10017000121A07F029FD0F4B002B00D098470E4BA9
:10018000002B00D098470020002104000D000D48EE
:10019000002802D00C48AFF3008007F0EFFC2000ED
:1001A000290000F015F807F0D5FC00BF000008009A
:1001B000000001200000000000000000C00000203E
:1001C0004C1B0020000000000000000000000000A8
:1001D0002DE980488D4B5B6813F48063A5B005D092
:1001E0004FF000531B689C1E634263414FF0005266
:1001F00000211160002B43D11CA806F03DFB06F046
:1002000071FA054600283BD09DF87030012B28D1AB
:10021000446B06F021FB1E9B580704D506F062FADA
:1002200006F0FAFA18E09CB1794A936C9BB2B4EBF1
:10023000832F0DD2926C04F1380392B2B3EB822F6C
:1002400006D8636923B1204606F02CFA0028E5D1D0
:1002500005F1FC0006F026FA044606F0EDFA204609
:1002600002E0FC3006F01EFA50B106F03BFA0446FC
:1002700006F038FA674B986023689D466368984794
:10028000654A136843F480731360644B4FF416722D
:100290001A60634A5A60634A1A674FF4F0729A60B0
:1002A000614B02229A639A6B02F00F02022A40F01D
:1002B000D980DA6C22F0405222F0010242F00102B1
:1002C000DA64D3F8E02042F44072C3F8E020DA6E3A
:1002D00042F08072DA66554B186800B1042005F0D0
:1002E000E1FB534B504EC8221A80524BA0221A8079
:1002F000514B0F20188005F06DFB504BB36500216A
:100300000C2214A807F060FC00210C221CA807F0A6
:100310005BFC3F4BD3F86831C3F30722DBB21E927C
:100320001693F36CC3F3017814A81CA9002243466A
:1003300005F0CAFBD6F8E070C7F3012715A81DA980
:1003400000223B4605F0C0FBDDF878A0DDF858E060
:1003500014991598DDF870C0DDF874904FF416729A
:10036000CEEB0A035343B3FBF2F37344C1EB0C042B
:10037000C0EB0905534502FB04F402FB05F5B4FB91
:10038000F2F4B5FBF2F50C4405446BD8734569D320
:100390004D4567D8854265D3644563D88C4261D3A7
:1003A000F26D22F4FE4222F0020242EA0323F365D8
:1003B0004046002105F0DAFA002853D038460121E2
:1003C00005F0D4FA00284DD0726EAC4238BF2C46EE
:1003D000E72C22F4FF7328BFE72423F0010343EA4C
:1003E00044037366F36B43F48063F36333469A6F9D
:1003F000D107FCD40C4B12491B6C13F0030302D041
:1004000001230B601EE00B6029E000BF00500E408E
:10041000B081E00F00ED00E000000E408C420E4085
:100420004A5D050028E2160000300E408009C643F0
:1004300036140020481400204A140020372110B739
:10044000B40AC6435D4B9A6FD207FBD41A6C22F0F4
:1004500003021A649A6F12F00102FBD10A60584B32
:1004600001221A60574C584E112005F07DFB0220E6
:10047000002101F04BFF636A544823F001036362DB
:10048000534B00251D60A36A23F0070343F00603C6
:10049000A362504BE362226B4F4B02F07F62134327
:1004A00023634E4B6363294605F01AFD4C4805F063
:1004B00027FD0220012101F029FF376C434841F656
:1004C00071333364294605F0A9FC07B13564454D05
:1004D0002B68002BFBD102236367434805F0E2FB46
:1004E00005F00EFD06F036FC2B68002BFCD1334CDA
:1004F0006168C1F3014105F0B3FC324B5E6A46F01E
:1005000040562F68002FFCD161683048374C384D79
:10051000C1F3014105F0A4FC2C4805F0F1FC294B86
:100520005E62D3F8C82042F00102C3F8C820A36A73
:10053000AB65352006A904AA079706F021F80294B6
:1005400030B19DF81030042B02BF069B186807904D
:10055000079BDB0314D50AAAAB6DBB540137062FEA
:10056000F9D19DF82D3043F060038DF82D309DF8C2
:100570002E3043F001038DF82E301E4B5A6041E0BF
:100580002C2006A90DF1110205F0FAFF002839D040
:100590000AAD06999DF81120284607F0B5FA3C20CF
:1005A00006A90DF1110205F0EBFF9DF82E3018B3EE
:1005B000069A127862F3000320E000BF00300E407C
:1005C0009407C64300400E4000000E4000F0490270
:1005D000A004C8432000050007450BD047A0020037
:1005E0000148E801C800C64300250800B081E00FBB
:1005F000005008403804002060F300038DF82E30CE
:10060000AF4B5D60AF4BB04A1A605A609A604FF4CE
:100610008070002298829A751A82DA75AB4BAC49C9
:1006200019605960996098829A751A82DA75A94B97
:10063000A94808211970A94BA9491960A94BAA49D1
:100640001960AA4BAA491960AA4BAB495860AB483C
:1006500019600360AA48C3F88C200160996AA94810
:100660005A65914208BF0146A7489A65A3F8402001
:10067000A3F8422064220160A3F84420A3F8462096
:10068000A3F84820A3F84A20A3F84C20A3F84E2052
:100690004FF6FF729A82112005F066FA042805D100
:1006A0009A4B5B6813F4403F00F05D8400234FF0E9
:1006B0000009974F974A984E5A65C3F8589003F12E
:1006C0000C053B6004F022F97BA3D3E90023D6E9B3
:1006D000000100211943914B914C00F0010010439F
:1006E0001A68C6E9000104F067F904F0F5F8284635
:1006F00003F028FE022001F0BBFD38686423942239
:10070000A0F84430A0F84A309623A0F84C20A0F876
:100710004830A0F84090A0F842900721343004F00F
:1007200037FB3D687F49012605F10C0004F03AF8DB
:1007300005F1340085F83860022104F029FB7A4B7A
:100740004FF4F0621A6003F100734FF400721A6004
:1007500003F5804350334FF000621A602B7B734ADD
:1007600033432B7313683D6823F00F0343F00303F7
:1007700005F10C0005F134086D4D1360494604F095
:100780003AF802F05DFCC5F80090029B586A694B8C
:10079000D3F888213040704002F48003184300F001
:1007A000C28603232370644BFF221A70444B3868BF
:1007B000B3F9002047F6FF718A421C4604D000219D
:1007C00005F00CFD014600E0FF213868504D0C306B
:1007D00004F011F8646805F108093CB9484605F0D1
:1007E0006DFDAB7B64F30003AB7307E02068A8608A
:1007F000A288A37989F80630A9F804204F4B504C01
:10080000504E514D202283F80123002183F8042308
:10081000204683F8062383F8072383F8052383F80B
:10082000082383F81D23602207F0CEF94748484B80
:100830004FF4907284E80900BA822523454A637216
:100840000123137023720023336008A91B230DF1C9
:10085000120236202B8005F093FE392006A90DF1F7
:10086000130205F08DFE0DF1500AB04658B19DF807
:1008700013200699202A28BF202250468DF81320E5
:1008800007F042F994E0344B089918681B791490EA
:100890008AF80430002961D09DF812201B2A28BF55
:1008A0001B22531D8DF813300DF15500531C8DF88C
:1008B000533007F029F961E0081B8812040000009A
:1008C000380400201C100020D40700208C0F0020CA
:1008D0003401002065160020400400205C14002034
:1008E000407D000058140020387D00005014002086
:1008F000B47D0000E0050020C11800006811002050
:1009000030000020893F00002C00002000300E4005
:1009100040110020081B8802401400203C140020D5
:10092000F4110020C898000044000844541F00211E
:10093000E81F002100400E401C00002000E100E004
:10094000EC1A0020FC04002000050020D6BE898E91
:100950005555550018100020489100000E238DF8C1
:1009600013300A238DF85330C44B1A68CDF8552044
:100970005A681B7ACDF859208DF85D301CA805F017
:100980009DFCBF4A9DF8133012882AF8032024A941
:100990009A1C51FA82F2002102F8401C1C98BDF802
:1009A000741042F83F0C093322F83B1C8DF81330C9
:1009B0003A2006A905AA05F0E3FD58B19DF81420D8
:1009C0000699202A28BF20221CA88DF8142007F0A1
:1009D0009BF809E0AB4B1A889B788DF872300323A3
:1009E000ADF870208DF81430A74EDFF808B396E804
:1009F00003000023CBF80030CBF80430A34B83E88E
:100A00000300184601F096FB06F1080292E8030085
:100A10009F4B102283E8030018461A7201F060FB16
:100A200006F1100393E803009A4A82E803000223C8
:100A300018361372D66013820096019302F11400E7
:100A400006CA01F029FB0898CDF808B010B19DF84E
:100A5000121001E0894809218F4E01F07DFB96E8D4
:100A600003008E4B83E80300184601F063FB06F198
:100A7000080292E803008A4B082283E803001A72F6
:100A8000884903924FF6FE721A82D960184601F027
:100A900027FBDFF864E206F1100393E803000C2360
:100AA0008EF80830804BCEF80C304FF6FE738EE88F
:100AB0000300AEF81030704601F012FB06F1180189
:100AC00003C97A4B039A1A8283E803004FF0020BA2
:100AD0007749D960184683F808B001F001FB06F1A8
:100AE000200292E80300734B734ADA6083E8030044
:100AF000012218461A8283F808B001F0F1FA06F1D3
:100B000028026E4B92E803006D4ADA604FF6FE72DF
:100B100083E803001A821846303683F808B001F0E3
:100B2000DFFA684B684ADA6096E803004FF6FE7217
:100B300083E803001A82184683F808B001F0D0FA5F
:100B4000624B029A1A604FF6FF729A809DF813204A
:100B5000202A05D8931DA3735D48514606F0D4FFA3
:100B60009DF81420202A06D8931D84F83630594861
:100B70001CA906F0C9FF01F0BDF8237BB97B43F047
:100B800001032373637B01F0010103F0F00361F3C0
:100B900086136373A37B13B94F4B06229A734F4B93
:100BA000B9F80420D9F800009A8094F8352018602C
:100BB000042060F3030261F3861284F8352094F870
:100BC00036200F3B12B9062283F83620444BD9F861
:100BD0000000B9F8042018609A8005F04DFF414BE1
:100BE0001B78002BFBD0EFF3108472B60022134663
:100BF0000DF115013C4805F0C5FB204604F0B0FF9F
:100C00009DF8153013B10023C8F80030D8F8002043
:100C1000EFF3108472B6354F3348C2F501730DF10E
:100C200015013A449BB205F0ADFB0646204604F0A0
:100C300097FFD8F8000030440328C8F800003E466B
:100C4000CDD9B7F800B00BF104039842C7D300F236
:100C500086817C88042C51D0062C40F0808110A81D
:100C60000021102206F0B0FF214B109320460223F2
:100C700010A9119305F060FC71E100BF4E910000D6
:100C8000589100005B910000F07B000004070020F9
:100C900030050020040500200C7C0000D408002052
:100CA0004C040020CD540000B1510000A4040020E9
:100CB00018910000DC000020D77C00007C07002099
:100CC000D168000024070020716700002414002070
:100CD000011B0020291B0020EC1A0020FB1A002019
:100CE000231B0020581100208C0F0020340200200C
:100CF00010000020640B002088050020C34A3B79C7
:100D0000C3494FF4804005F033FB3B794FF0000AB4
:100D10000BF1FF32082BA5F802A092B200F0D380AD
:100D200009D8042BDFF824933BD0062B3ED0022BAE
:100D300040F0B78510E0102B00F0D28004D80A2BC9
:100D400000F08B8000F0ADBD122B00F08B80522B99
:100D500000F0A28000F0A5BD022A40F0A8854FF463
:100D60008040AC49AC4AB7F8053005F001FBB7F854
:100D70000540A849A94AB4F5007F28BF4FF4007484
:100D80004FF48040234605F0F3FA002103230220AC
:100D90000A4689F80030A9F8014001F0CDF82C800E
:100DA000DDE0042A40F0808500F00EBCB7F8072093
:100DB000B7F805309A49ABF10704A4B28DE81400E6
:100DC0004FF48040974A05F0D3FA0B3607F1090C2F
:100DD0004FF0020BB7F80500B7F80710CDF840C088
:100DE000009601948DF844B010AB0CCBCDF808C040
:100DF00004F0FEFC4FF6FF76B0420446DDF808C072
:100E000006D17B68884AC3F30F23538000F037BCB8
:100E1000CDF830C08DF834B0CDF800A0CDF804A0E6
:100E200001300CAB0CCB314680B204F0E1FCB04297
:100E300007461CBF00F1FF37BFB2234600974FF4AF
:100E400080407A497A4A05F093FA072389F80030FE
:100E5000A9F80140A9F8037075E0022A40F027853F
:100E600000F00FBCABF10304A4B2B7F80530714930
:100E700000944FF48040704A05F07AFAB7F8050004
:100E800004F090FC002800F02884037B1A0700F18E
:100E90002A84032400F022BCABF10304A4B2B6F808
:100EA0000530644900944FF48040644A644F05F073
:100EB0005FFAB6F8050004F075FC00284FD0037BFC
:100EC0005B074CD545E0ABF1050B1FFA8BFBBBF183
:100ED000020F00F02384BBF1100F23D100F01EBCE1
:100EE000ABF1050B1FFA8BFBBBF1020F00F048843E
:100EF000BBF1100F16D100F043BC2B88013BADF8BD
:100F00002430B9F8050010A909AA01F02DF804460B
:100F1000002800F0D183D9F80430434AC3F30F23EB
:100F20005380E4B13F796E88464A00963B4601946F
:100F30004FF48040444905F01BFA444B01221A70DB
:100F40005F705E801C71002104200A4600F0F4FFEF
:100F500005E0B7F80500F91D224601F02CF8002342
:100F6000C8F800303BE602F06BF8394B53F8082C18
:100F700053F8040C002A40F08180364B364D5A69F4
:100F80001A691A699A69DB69344BC5F8443148F229
:100F9000E673C5F838314FF40863C5F83431304B87
:100FA000C5F8A0302F4B304E304F4AF63F429A6082
:100FB00003F580434FF0C0729A620023C5F8FC30FD
:100FC0002B4BC5F89C302B4B7F221A6003F100732A
:100FD00023221A6003F54253343303221A604FF47C
:100FE0000023C5F894304FF001084023C6F8008074
:100FF000214A33604FF460733B604FF040731360DD
:10100000936103F083FCC7F8008043E0EB7D0000B0
:101010005F91000075920000637D00003191000037
:1010200096910000247D000000050020BF91000083
:10103000D07D0000F3910000CE7C0000447C0000D5
:101040003402002020910000419200005D0B00203E
:101050000880E00FD0FF0FE000400840C0E6535189
:101060007A27000F00300840944008460C4008469C
:10107000806D630324300844F8400846110C244D69
:101080000904A94208BF1060224A083393427FF442
:101090006DAF72E76F68DFF89C80C7F30367002FBE
:1010A000F8D101234FF00450C8F87C001A49C8F861
:1010B000803041F2182206F027FD184D184BC8F871
:1010C00060303946AC221748D5F8009006F07CFD18
:1010D000154B164A5A6039466422C5F800901448E8
:1010E00006F072FD029BC8F88870C8F88C70C8F8CA
:1010F00090705B6DD9B2029B1A68FF29C2F3074357
:101100001AD05AB2013204BF9021192316E000BF51
:1011100000000840B881E00F007F0000E81F0021B8
:10112000C01F0021541F0021EC1F00213F00370089
:10113000F01E00210040084090211923C44ADFF826
:10114000649302205BB293FBF0F30B44D37323232D
:101150005373C04B90734FF603721A6003F1007320
:101160004FF0000AC3F800A04FF080433360BA4B41
:10117000BA4A1A60BA4BBB4903221A60596040F65A
:10118000FF715962B84B1A80B84BB94AA3F800A056
:10119000B84BC3F800A05A604FF400525A62B64BE5
:1011A000F0221A6003F10073A0221A60B34B4FF0D3
:1011B0000108C3F8B88002F0C9FAB14BB148C3F8CE
:1011C0000080B14BC3F80080B04BC9F8003003F089
:1011D000CBFE4FF4FA714FF47A75B0FBF5F7AC48DB
:1011E00079430A0280184FEA11634FF00001594118
:1011F000A84A002306F0AAF9A0F58073C9F82830A0
:1012000050EA0103824603D12B2002F0CDFAC246F8
:1012100005FB0AF250084FF0000818EB00044FEAF3
:10122000072949F1000543462046294606F08EF974
:10123000994B1960994B4FEA0A6B804689461860B2
:101240004FEA1A2A1FB92B2002F0AEFA01274FF4F9
:101250007A71ABFB0123780801FB0A3312EB000A19
:1012600043F1000B00253A46504659462B4606F0FE
:101270006DF98B4B8B4F19608B4B18F1020818607E
:1012800049F100094FEA980343EA8973013B3B6344
:10129000864BDFF8689286484FF00052C3F88021F1
:1012A0004FF0070A1A6001237B60C9F884A003F09D
:1012B0005BFE4FEAD00B030B80467E484FEACB52D1
:1012C00080184FF0000159417B4A002306F03EF997
:1012D0007A4B18604EF6602003F044FDDFF820C220
:1012E0004042CCF834006B48CDF80CC001F0CCFE85
:1012F000024643084FEA8B30C0184FEA585141F17B
:101300000001002306F022F9DDF80CC05146CCF8AC
:101310000C006B4803F03CFD6A4BC7F800316A4A89
:10132000A3F52003C7F810314FF400231570336084
:10133000664BD3F8C81041F06C008842164640F066
:10134000B982D9F80C20D70700F1B482D3F8103154
:10135000C3F30823002B40F0AD82EFF3108072B688
:101360005B4B5C4A9F69A3F5C0434FF06055D3F8CF
:101370008410156002F100724FF0006515602422A0
:10138000C3F88420544A042515604FF480429A66BD
:101390004FF480525A62514B1A6E5504FBD51A68AD
:1013A000D405F8D54FF480429A66DFF858E1D3F8B7
:1013B00088501C954FF0040CCEF800C0C3F8841080
:1013C00043498F619A6604F0CBFBADB24FF605033B
:1013D0004FF60402954208BF1D46324B9D6501231E
:1013E00033703F4B3F4D186803F01AFE002148222E
:1013F0003D4806F0E9FB394A3C4960230620536426
:1014000008600021C2F88410394A4FF08051116001
:1014100002F5FC5204324FF4001111604FF060519C
:101420001160164A40F6FF715162516502F1C062C7
:10143000A2F6BC7213602F4B40221A60D5F88C00C4
:1014400000F016FF03F062FA2B4BD3E900015BE0DA
:10145000541F00217C000844C81100202D480000C2
:10146000301008400409002080110020D81100200D
:101470007C060020901008404000084400100840FE
:101480000C40084400040600C8400E46001101004C
:1014900020A1070040420F006C1100205C110020C9
:1014A000FC080020005008400009002000E100E096
:1014B00060510700B2E60E0065CD1D00EC11002062
:1014C000140600200300C0000412002000400E405B
:1014D00000600840186008440040084600000840CA
:1014E00034000020E0050020041F002170000844A3
:1014F00094400844884008444014002000400840BC
:10150000841F00210040084440F0805041F0040155
:10151000C3E90001B14B1A6803F04EFA03F0DCF99D
:101520002B46FFF7C4B8AE4B1A689B88A380226095
:1015300002F04EF80A20414601F0CCFF2378022B3E
:1015400013D12B6823F0804323F0170343F080432B
:101550002B60A44B4FF4EE421A6003F100734FF47A
:101560008A421A6043F8046C24E0012B2B689E4ADF
:101570009E489F4923F0804323F017030CD143F08A
:1015800003032B600723136006230360994B0B6052
:101590004FF44042984B0CE043F0804343F0040387
:1015A0002B600723136005230360C0230B60934B5C
:1015B00081221A60002002F00BF8914B03221A607E
:1015C00001F056FFFFF7F2B8B7F80720B7F805307B
:1015D0008C4900924FF480408B4A04F0C9FEB7F862
:1015E00005401FFA84FA5046264604F0DBF800282E
:1015F00043D0047A47688549CDF800A0022C14BF77
:101600004FF0020B4FF0010B5B464FF48040804AD5
:1016100004F0AEFE052389F8003089F801B0A9F87E
:10162000026010E0BDF816407A4A009433464FF449
:1016300080407949099F04F09BFE784B09221A707B
:10164000A21C5A705E80032014E0BDF81640744A54
:1016500000964FF480404B4601947249099F04F074
:1016600087FE6E4B11221A70221D5A70A3F8029049
:101670009E8005203946224668E46B4B5C800A2434
:1016800050E44FF480406949694AB7F80530DFF803
:10169000B49104F06DFEB7F8050004F083F828B1AA
:1016A000037B99073FF529AC022400E001247B6805
:1016B000C3F30F236B8034E4BDF824605D495E4AB8
:1016C000109F4FF48040334604F052FE534B0B22E0
:1016D0001A7020463946324638E401247B68C3F349
:1016E0000F236B801EE4DFF85C91B7F805002246FB
:1016F00009F1070100F05FFC044610B1D9F804308D
:10170000EDE74FF480404D494D4A04F031FE434B24
:1017100013221A7020462146224617E4B6F8072005
:10172000484CB6F80530374900924FF48040464A9D
:1017300004F01EFE04F1090310938DF844B0002359
:10174000B6F80500B6F807100093019310AB0CCB68
:1017500004F04EF84FF6FF739842064638D02B88B7
:1017600009A9043B0DF11602ADF8163000F0FCFBA0
:10177000044600283FF456AF2B4B5E80FFF7D1BBE9
:10178000B6F807202F4CB6F805301E4900924FF4EA
:1017900080402E4A04F0ECFD5FFA8BFBB6F80500A2
:1017A000B6F807108DF844B004F1090C0026CDF806
:1017B00040C00096019610AB0CCBCDF808C004F0E9
:1017C00017F84FF6FF7A50458146DDF808C03FD143
:1017D0006368C3F30F236B8051E700BF3C14002004
:1017E000CA7D0000244108440C4108440C410846CD
:1017F00008410844C100400004410844084108462B
:101800005841084481920000F37D0000729100006D
:10181000487D0000B87C0000F39100005D0B0020C3
:101820004D7C000017920000000500209F920000F0
:10183000C27D0000E491000043930000119200007B
:101840003293000034020020687C0000D87C000045
:10185000CDF838C0009601968DF83CB009F1010032
:101860000EAB0CCB514680B203F0C2FF2B88504523
:101870000646A3F1060318BF00F1FF3609A9484642
:101880000DF1160218BFB6B2ADF8163000F06CFBC1
:10189000044600283FF4D9AE084BA3F80290FFF7A6
:1018A00040BB0624FFF73EBB1C46FFF73BBB0424AE
:1018B000FFF738BB142001F077FF90E5000500200A
:1018C0002DE9F04FAC4F8BB04FF48670114699461E
:1018D000904604F007FD3B693D462BB94FF48370F9
:1018E000414604F0FFFCDAE1B9F1000F08BFB8F19E
:1018F000080F40F0C3804FF48170002104F0F2FC27
:10190000EFF3108472B69D499D4BB1F800E09D4DF8
:101910001F6803910EF03F0000F03C022A4405933B
:10192000DFF87CA247B9BAF800307344033B03F0F8
:101930003C0303EB050801E027F00108C0EB0800B9
:10194000401BBAF8007048BF4030B84219DA9045E1
:101950008D4F03D1FA6B1FFA82F908E0A8F1040257
:10196000AA4238BF08F13C021288C2F30C09D7F82A
:101970008070C7F30C07B84219DAB8F80000020407
:1019800001D5204655E098F8027007F00707C9EB2B
:101990000006052FC6F309061BD901F033FB301AE8
:1019A00086B2330415D5042001F0FEFE11E076481E
:1019B000866B00F54050C9EB0606C6F30906406881
:1019C00036B9C0F3036003280CBF0827002700E0E6
:1019D00008276E4BC9F3080003442046B6B20293B1
:1019E00004F0BEF8B8F1000F2BD07F070CD0EFF356
:1019F000108072B66649674AC1F800806649168051
:101A0000A1F8009004F0ACF8B8F1020F7CD8EFF325
:101A1000108072B6039B1F8807F03F0265D0594BB8
:101A2000BAF80010C2EB0802D21A48BF40328A420C
:101A300002DB04F095F804E004F092F8B8F1000F2E
:101A400062D14D4C019B06936368049A5B7A8DF8D2
:101A50001C309DF81E308DF81DB062F300038DF828
:101A60001E30029B0993ADF820602369022006A96D
:101A7000984720680C3002F007FC10E1B9F1000F24
:101A800008BFB8F5002F07D140F20110002104F083
:101A900029FC3B69012025E008F4C05200231343D0
:101AA00008D04FF481704FF4807104F01BFC3B6947
:101AB000032017E008F440720023134302D04FF4D0
:101AC000817006E008F020720023134303D040F237
:101AD0000110012102E04FF48370414604F002FC42
:101AE0002B69FF2000219847D9E0059B196841B96F
:101AF000BAF800303B44033B03F03C0305EB03081A
:101B00008DE721F001088AE7B8F8009098F8027094
:101B100019F4004F95D107F00703052B91D9DC1F6D
:101B200063426341049301F06DFAC5B2002D5FD0AA
:101B3000154B1B6B03F0070306334FF0010808FA3F
:101B400003F8A9F1060108F1FF3389B21940134BDC
:101B50005B68C1EB080843F00059454506A84944B5
:101B600020D9424605F0D0FF06AB03EB08004946FA
:101B7000C8EB050217E000BF40110020D81100207B
:101B8000CC1100208411002000100840040900201E
:101B9000DC110020F4080020F60800203010084076
:101BA000801100202A4605F0AFFF3E4B3E491B68DE
:101BB0000393D1F830319DF818B09DF81A809DF844
:101BC0001B909DF81C509DF81DA0180414D4C86DDE
:101BD000C0F3011E000C0EFB000342F210708342A2
:101BE0003FF62FAFC86900F01F000130184404E031
:101BF0004FF0800B019524E72F20002103F08CF893
:101C0000C0F1000EEFF3108472B62848284B294A21
:101C100081691B781268DBB212B101338169DBB2D2
:101C200004B962B62D0445EA0A6242EA080242EAB1
:101C3000092291423CBF03F1FF33DBB203F0030002
:101C40001A4B1D4C196BD4F800C001310023E0FB86
:101C500001231A490968A2FB0C45A2FB0189124A1B
:101C600001FB039918F10048D2F83021039B49F198
:101C7000000914EB090412045B6B06D517F0080F7A
:101C80004BF6EB620E4B08BF1346744403F5FA7330
:101C90004FF47A7EB3FBFEF3E31A0193D1E60BB067
:101CA000BDE8F08F68110020006008400050084037
:101CB000D0110020880B0A43FC08002000090020F6
:101CC000FBD9020038B5074C0749A579074A2B46CE
:101CD0004FF4805004F04CFB054B1D75002323602E
:101CE00038BD00BF04100020AC960000B49800007E
:101CF000A80F002008B54FF48570002104F0F2FA17
:101D0000064B002201201A610146024602F066FFDE
:101D100002F0DAFA0128FBD108BD00BF4011002013
:101D2000012838B516BF012402252546284608BFDC
:101D3000042401F047FD78B1012001F043FD58B1C2
:101D400002F0C2FA42075FBF0E4B188840F0807065
:101D500040EA054058BF1860204601F033FD78B1D5
:101D6000012001F02FFD58B102F0AEFA83075FBFEA
:101D7000044B5A8844EA024444F4807458BF1C60FF
:101D800038BD00BF001F002138B5B1F5007F0F4BF3
:101D900028BF4FF4007103221A600D465860EFF31C
:101DA000108072B6D3F8E0201C4612F0040F4FF0FA
:101DB0000001D9609D6004BF0423C4F8E83003F03B
:101DC000CFFE0DB10223A36238BD00BF0010084052
:101DD0002DE9F8434C4D42682C686860217B03680C
:101DE000467AC90752D592FAA2F24849120A0A6104
:101DF00001228A60DA070BD5227BD7070AD5444A2D
:101E0000D2F8302112F4004F0CBF5522AA2202E072
:101E1000AA2200E055223E4F3B66F96D552A21F07B
:101E20000F010CBF41F0010141F00201F96593FA85
:101E3000A3F392FAA2F202F070421B0C43EA1233AF
:101E4000344A3549116002F1007246F040061360D1
:101E5000324B4422DA621E6303F18063343307227B
:101E60001A6003F1007301221A60D7F8303113F4BD
:101E7000004F4FF4804301D0294A00E0294A136003
:101E8000294A4FF48043136053609360AB8AD905AD
:101E900037D5264B067A1A78B242994631D0012EB0
:101EA00004F10C0802D0022E12D024E0237BDA07C2
:101EB00021D502F009FA012806461CD11C494046EA
:101EC00002F070FC84F8386004F13400022110E064
:101ED000237BDB070FD502F0F7F9012807460AD16B
:101EE0001449404602F05EFC84F8387004F1340076
:101EF000314602F04DFF6B681B7A89F80030BDE86F
:101F0000F883BDE8F88300BF40110020002008409E
:101F100000600840FC600844FFFF0F00000008401C
:101F2000A0000846A0000844A4000844F8080020C7
:101F3000C89800008C95000070B586B00E46154616
:101F4000044618226846002105F03EFE0134054B88
:101F500000930420694601940296039504F0ECFA7C
:101F600006B070BD5D0B002037B50D46144603F07A
:101F700019FC38B10369828AC3B14FF6FE718A42F7
:101F800014D101E0012014E000200090ADF804001D
:101F90006946984768B9009B2B60BDF804302380E0
:101FA000286808B9208004E0002002E02B6022802D
:101FB000F6E703B030BD37B50D46144603F0F2FB2B
:101FC00038B103693BB1818A4FF6FE72914202D16A
:101FD00003E0012007E00E2005E00095ADF8044085
:101FE00001206946984703B030BD0000224B1A78A3
:101FF000D00742BF214A4FF4806111601A789107DF
:1020000042BF1E4A4FF4006111601A781B785207D4
:1020100042BF1B4A4FF480611160180742BF184B42
:102020004FF400621A60174B4FF480621A60164B2F
:1020300000225A61643B1A68910642BF134A4FF46A
:10204000807111601B681A0612D59B0610D5104AC4
:10205000136AC3F30803032B0CD95168D368033305
:10206000C3F308030B4403F100531A78094B5A6079
:1020700000207047032070475C0B0020A00008463A
:10208000A40008461C600844541F002188400846EC
:1020900000100840F41E002137B58DE80600044604
:1020A0009DE80300251D85E805002373069B236139
:1020B000BDF81C30A38200232360084B1A682AB1A4
:1020C000116809B10A46FBE7146000E01C609888BB
:1020D000013080B2988003B030BD00BF640B002097
:1020E00037B500F1440300930379114A04460333E2
:1020F000019306CA02231430FFF7CEFFE268009274
:10210000228A237A019204F12C0094E80600FFF75A
:10211000C3FF237AA4F84500054684F8443004F14F
:1021200047002168227905F0EFFC284603B030BD56
:102130006899000007B502680092064B0279019287
:10214000083093E806000223FFF7A6FF03B05DF80E
:1021500004FB00BF4899000070B50D4C0D4B0646BE
:102160000D4694E80300083483E803001846FFF79F
:10217000E1FF94E80300084B83E803000222DE60DD
:102180001D821846BDE870401A72FFF7A9BF00BF54
:102190002C9900006C0F0020040B00200A4B40F229
:1021A000011210B51A604FF0FF329A6001225A6096
:1021B0000844814204D0044A11F8014B9461F8E7C5
:1021C000D869C04310BD00BF00C00140C0F3032365
:1021D000013B10B50446092B36D8DFE803F0201088
:1021E000083505131635191D0022184B19E018483B
:1021F00003F058FD03F084FE0022164B11E000228C
:10220000154B0EE00122154B0BE01022144B08E099
:102210004FF48032134B04E00022134B01E0134BC8
:102220000022C4F3043442B11049D1F84401C0077C
:1022300003D4D1F840010242FBD103F1047304EB53
:10224000C3039B0001221A6010BD00BFB0400E40C6
:1022500000250800B8400E40C0400E40E0400E404F
:10226000E8400E40F0400E4050410E4000400E400D
:1022700010F0080F14BF1E4A1E4A082310F0010F69
:10228000136014BF1A4A1B4A012310F0040F136095
:1022900014BF194A194A4FF4007310F0020F13606B
:1022A00014BF134A134A0223136010F0100F144B8B
:1022B00000F0600014BF00221B224028DA64114B9A
:1022C0000FD0602803D020280ED101220DE00E4A45
:1022D000D2684AB11168012906D9526942F0010257
:1022E00003E040F2011200E000221A610020704772
:1022F00044000846440008441C6008461C6008442A
:1023000000000840541F0021EC1F0021F8B50628EA
:1023100000F2AB80DFE800F009041733A4A9100035
:1023200080254024062307222DE04FF400754FF44A
:1023300080740823092226E04FF400454FF48044BE
:102340000E230F221FE000297FD0484A536A13F062
:10235000300F0BD1464BDB6B536AD9070AD5536A52
:1023600023F0300343F01003536203E003220223FF
:1023700004240AE0032202230424012506E00124A8
:10238000022500232246002961D0002537490C662A
:102390003849194489000B68002BFCD0354F17448D
:1023A000BF003B68002BFCD002285ED1002D5CD022
:1023B0002E4B5A6A12F0010F1A4618D04FF4806261
:1023C000C3F8A82020225A665B6A13F0300F0CBFB6
:1023D0004FF440034FF400032449D1F890201A40F1
:1023E0009A42F9D15B020DD5D1F8A0300AE0536AC8
:1023F000D2F8903003F44003B3F5400FF8D11B4BF3
:10240000D3F8A030194E02200021D6F89C50FFF7D7
:102410007DFFD6F89030736A174A23F0300343F0FB
:1024200010037362336B1A40C5F30A03C5F3C31577
:102430001A43EB1C0F2B28BF0F2342EA03733363AD
:1024400034663B68002BFCD0F8BD08250223074A00
:102450001566084A1A4492001368002BFCD1F8BD97
:1024600020251024042305228DE7F8BD00400E40EE
:1024700000300E408004F21000F8FF0F70B5134CCE
:102480002268A2F17E63A3F58433B3F5605FE0B008
:1024900005460E4607D2126BA2F17E63A3F5843384
:1024A000B3F5605F02D34FF401700DE0536A002072
:1024B00069464FF4C072984730B923681B6B684671
:1024C000DB6A29463246984760B070BD2808E10FA4
:1024D0000F4A0B461168A1F17E62A2F58432B2F573
:1024E000605F30B505460FD2096BA1F17E62A2F59F
:1024F0008432B2F5605F07D20C69064A2946A446C9
:102500000020BDE8304060474FF4817030BD00BF0F
:102510002808E10F6C0B002010B51A4C2268A2F1BC
:102520007E63A3F58433B3F5605FE0B010D2136B24
:1025300073B15B6A002069464FF4C0729847F8B9DE
:102540002268A2F17E63A3F58433B3F5605F02D302
:102550004FF4017014E0126BA2F17E63A3F5843393
:10256000B3F5605FF4D2936A68460021984740F261
:1025700001239842E4D040F20323984208BF002090
:1025800060B010BD2808E10F042806D801380328E0
:1025900006D8DFE800F00202020200231B78FFDE0B
:1025A0007047837DDB0701D5808A70474268836866
:1025B0009B1A44BF828A9B1898B270472DE9F0415C
:1025C000164605468846FFF7ECFFB04228BF304666
:1025D00086B23746D7B12C68AB8A696823445B1A48
:1025E0009CB2BC4228BF3C462246404605F08CFACD
:1025F0006B682968AA8A23440A44A0449342A7EB43
:1026000004046B60A7B228BF6960E3E72EB1AB7D1D
:10261000DA0744BF23F00103AB753046BDE8F08113
:1026200008B5244A2449254C03464FF4006003F0C2
:102630009FFE234A937E43F040039376214B002272
:102640001A70214B1B780125EBB104F005F94FF00E
:10265000005340F20222A5601A804FF20F025A8006
:10266000236823F4E06343F480632360BFF34F8F58
:102670001649174BCA6802F4E0621343CB60BFF3FC
:102680004F8F00BFFDE74FF00052A5601360236835
:1026900023F4E06343F480632360BFF34F8F0B495F
:1026A0000B4BCA6802F4E0621343CB60BFF34F8F59
:1026B00000BFFDE77A9900009F99000000500E408E
:1026C000A80F002058110020A40F002000ED00E00A
:1026D0000400FA0510B5134CA37E5B0621D4FFF766
:1026E00009FB2168A38C40F2E24202FB0312226044
:1026F000A17A94F84F2025200A4492FBF0F100FBC8
:102700001122A27222890132228162680A2101FB10
:1027100003236360238B5A1E228313B90820FFF71B
:102720007FFF10BDA80F00202DE9F04F85B0634C4E
:1027300040F60100218903F0D5FDA37EC3F380128A
:102740002546002A40F0B78043F001035C4962F35C
:10275000410362F382030A68A37623891AB1898848
:10276000994200D19047A37A56482B44564D93F88E
:102770002A306375FFF72CFB6B68544A5B7A276835
:10278000666812F803900120FFF7CAFAD5F80080B6
:1027900001F09AFD012804467FD108F10C0049465A
:1027A00001F008FF00287AD1B8F844307608B81B49
:1027B000C01A00F069FC804607F164003044894685
:1027C00000F062FC06460F46EFF3108B72B64049EC
:1027D000D1F8302112F0010255D13E4BCB663E4B71
:1027E0000A673E481C703E4BDFF80CA11A70036864
:1027F00023F0400303604FF40063CAF800404B66C7
:10280000384BCB66032000924B464246039100F0C2
:10281000A1FC039918B9584603F0A2F940E0D1F899
:102820003031DA0703D4304B5B685B042BD52F4B78
:10283000DFF89C8001241C7002F084F92C4B1C6092
:102840004FF48053C8F86430D8F86C3023F0F85354
:1028500023F4F81343F0506343F480334FF000093E
:10286000C8F86C300420CDF8009032463B4600F0AA
:1028700071FC68B94FF40063CAF80040C8F86430CE
:10288000144BC8F86C30584603F06AF9032407E08B
:10289000584603F065F94C4602E0022400E0044685
:1028A00028680C3001F0F0FC14B1FFF713FF3EE78D
:1028B000054B104A1A6105B0BDE8F08FA80F002043
:1028C00004100020B40F0020401100208E9A000058
:1028D0000050084000000101D2110020F01E00212C
:1028E000C6110020010C010000400840C411002066
:1028F000405108445129000030510844044B5A6D9E
:1029000022B95865A3F8581001207047002070477D
:10291000A80F0020D0B50C4CE38C0A20584304F0DB
:102920007DFB0646A08C0F4604F078FB0022074B87
:1029300004F0DAFB02460B463046394604F0FEFC52
:1029400004F0E4FD2083D0BDA80F00200000F43F78
:102950002DE9F047022886B00D460BD003D8012898
:1029600000F0FF8108E2032800F00182FF2800F058
:10297000FE8101E2BC4ECC68B37ED80708D56FF368
:102980000003B376002373600B683360FFF7C2FF68
:10299000AB79B64F13F0010F40F6030004D14FF0AE
:1029A000FF3103F09FFC9EE12188DFF8BC8203F039
:1029B00099FC2378B27EC3F3001363F38202237879
:1029C000B276C3F3C001C2F30012914240F02281FB
:1029D00003F00303022B00F0FB80032B05D0012B37
:1029E00040F018814FF00009F4E04FF48050A04906
:1029F000A04AA37803F0BCFCA578022D6ED01ED8A7
:102A0000002D4ED0012D40F0A8804FF480509A49FF
:102A10009A4A238903F0ACFC627A237A984943EA04
:102A200002238B800B46974A43F8062B224652F826
:102A3000030FC1F806009188998092795DE00C2D12
:102A400024D0142D5BD0082D40F0878025464FF40C
:102A5000805055F8032F8C496B688DE80C008B4A29
:102A600003F086FC2A688A4B02F0FF02988A42F43F
:102A70007F42024087480021054600230B40092180
:102A800005F8011BC0F801206B607BE18148002341
:102A90000570012545708570C3700571437106216D
:102AA00070E14FF4805074497B4AA38903F060FCC5
:102AB000627B237B724843EA022383800346774A82
:102AC00043F8062B224652F8031FC0F8061051683F
:102AD000596011891981927A9A7255E1704AE378A6
:102AE00070494FF4805003F043FCB8F80820644B61
:102AF00005329A806C4A1A60E2789A7144E1B4F81F
:102B00000520B4F803300092B4F807200192B4F81D
:102B1000092002924FF480506449654A03F028FC72
:102B2000B4F805305B48DA08B4F80330934228BFA4
:102B30001346A8F82830152300216FF004056FF024
:102B4000270203700723817081714570C270037181
:102B50004571C2710372092114E1564B1B78002B99
:102B600000F00B81162D1BD0182D40F00681227924
:102B7000E3780092B4F8052001924F494F4A4FF490
:102B8000805003F0F5FB6279A1793D4B42EA0122C6
:102B90009A804B4A1A60D4F80320C3F80620F3E069
:102BA0002279E378474900924FF48050464A03F077
:102BB000DFFBE27823793748134003F00303022B4D
:102BC00018BF012317220270437083700321D9E0DC
:102BD0004FF0010994F80180B8F1000F00F0D480A3
:102BE0003A48858AFFF7DDFC281A04F1020A80B210
:102BF000B9F1000F04D0022886BF023880B200204D
:102C00001FFA88F3984205D3494652462F4803F0ED
:102C1000E5FBB9E00023B27E2078C2F3C001C0F327
:102C20008000884256D081F0010161F3C302D2B224
:102C30000D4942F020028A76002B4CD1B37E716D93
:102C4000094C6FF34513B376002950D03B7894F8C4
:102C500058207A7043F003033B701D4804F054FF82
:102C6000002363655AE000BFA80F00204010002039
:102C7000B299000089990000C3990000B69A00003B
:102C800004100020BD640000E5990000E59A0000F2
:102C90004011002034100020C49A0000616400003C
:102CA00092990000D39900004D640000FE99000045
:102CB0007099000018100020609A0000D89A000057
:102CC000C51C0000409A0000F09A00008C0F002004
:102CD000421000203BB1B37EC3F3001282F0010228
:102CE00062F30413B376B37E990617D5A6E7294895
:102CF000294A94F828300DF1170103F043FBC0B2C4
:102D000030B19DF81730002B0CBF0122022200E0E9
:102D100001223B78787062F301033B701D48FFF796
:102D200040FCB37E003018BF012060F34103B3764E
:102D3000DAB23B78C2F3001161F38203C2F3C0023E
:102D400062F3C30360F304133B70398840F602005A
:102D500003F0C8FA797811480231C9B2FFF714F8C4
:102D600014E00F4B9B7E5A0710D49B070ED4FFF73D
:102D7000B1FCFFF7D9FC09E0FEE70A48072303701E
:102D800045700221FFF7BAFD012344E706B0BDE814
:102D9000F08700BF1C1000204210002040100020CF
:102DA000A80F002034100020084A10B5146840F223
:102DB000E243584303FB0141536800F5807001EB87
:102DC000500118441160506010BD00BFA80F0020D2
:102DD00030B500228BB01346D91003F00704415CD4
:102DE0002141CC0741BF0AA98918013201F8283CCA
:102DF0000133252BF0D10D4C0023D91003F007052A
:102E0000415C2941C9075FBF0AAD93FBF2F102FBA8
:102E1000113149194EBF237011F8281C217001335C
:102E2000252B04F10104E8D10BB030BDD20F0020F6
:102E300010B5EFF3108472B60B4A0C4B0C49906935
:102E40001B780968DBB209B9002103E001339069FE
:102E50000021DBB204B962B6034A126B03F003032C
:102E60000132E3FB020110BD00500840D0110020E8
:102E7000880B0A4370B5264A1378032B46D0254C9D
:102E800023685A2823F47F51C3F3873321F00801C4
:102E90004FEA83130BD95588B5F5E16F09D8C828D7
:102EA00043F6C8768ABF01250025334604E0002595
:102EB00002E0012543F6C8730B431E2823604FF040
:102EC000010303D8144A136093611CE0134950288E
:102ED0000B608B6117D95388B3F5E16F01D878285F
:102EE00011D90F4A4DF601731360002D936102F161
:102EF000007214BF4FF457434FF450431360936173
:102F00000822084B01E0084B08221A6070BD00BF80
:102F1000F4110020E81F0021084108440841084638
:102F2000044108449440084694400844064B5A68BB
:102F300002F07062B2F1C06F1A4602D1DB6BDB06A1
:102F4000F4D5402393607047004008402B4A9369B2
:102F500003F03001202910B50FD1C3F302441CB196
:102F6000C3F3C422B2FBF4F413F4C01F18BF64000F
:102F70006408032C28BF04240AE0936903F4E07377
:102F8000402B02D0B3F5807F01D1022400E0012460
:102F9000112002F087FE19490A6D93B233B1C008BF
:102FA000C2F307425043B0FBF3F000E018468A69D1
:102FB000D1F830311B04124B1B6C03F4C05348BFD3
:102FC0004008B3F5805F03BF0C4B1B6B03F0C0637D
:102FD00002F0300308BF5B0D202B05D0302B09D049
:102FE000102B08D1400806E0C2F3C4220132B0FB26
:102FF000F2F000E08008604310BD00BF00600840B0
:10300000000008400D4BDB6C13F0200F0CBF0020BC
:103010000420D90644BF0230C0B21A0744BF0230B0
:10302000C0B2590744BF0230C0B29A0744BF013052
:10303000C0B2DB0744BF0130C0B270470000084097
:10304000084B094908221A6001221A600A604022CE
:103050001A6020221A6010221A6004221A6080224C
:103060001A607047C8400E46CC400E46044BD3F859
:103070009430002BBCBF034BC3F88000704700BFE7
:103080000040084000000840084B1968084B30B564
:103090001B684FF000440025E3FB00452A4600234F
:1030A000E1FB00231046194630BD00BF6C11002023
:1030B0005C1100202DE9F04F85B00446FFF7B8FE03
:1030C000824620468B46FFF7DFFF214A136BD2680A
:1030D000D20704460D4638D55B0818460021CDE9D5
:1030E0000001DDE90023AB4208BFA242CDE9024561
:1030F00001D2CDE90223FFF79BFEB0EB0A0661EB9C
:103100000B07594508BF50450FD2114B1A6B0023CE
:10311000013243F100034FEA83094FEA820849EA8A
:10312000927916EB080647EB0907DDE902239F4277
:1031300008BF9642DFD3AF4208BFA64205D2A41B08
:1031400065EB070582468B46CBE705B0BDE8F08FFF
:10315000005008402DE9F04F8BB099469DF8503053
:10316000079305469046EFF3108A72B6A24A030110
:1031700013440124079A06931C604FF4807B9F4BF5
:103180000BFA00FB022AC3F864B01E4600F05F8110
:10319000FFF74EFE079B012BCDE9000109D118F185
:1031A000010849F1000910EB080241EB09039046C0
:1031B0009946306B0021421C41F10003CDE9022306
:1031C00003998B00029943EA91738A00994508BFDD
:1031D000904504D3B8EB020869EB0309F6E7DDE993
:1031E0000001B0EB080061EB0901CDE90801DDE960
:1031F0000001494508BF4045CDE904890FD27F4908
:10320000086B0021013041F100018F0047EA9077FF
:103210008600DDE9080180197941CDE908019008AF
:1032200040EA83709908DDE90823994208BF90427B
:1032300004D3504602F094FC00200CE16F49086F63
:1032400041F61F7405F109030440C86E6C491A0267
:103250001B0642F00102014043F4803394420CBF4C
:10326000042400249942654BD96E41F61F7308BFB0
:1032700044F0020403EA010308BFE4B2934208BF2A
:1032800044F0010414F00103089302D05D4BC3E93C
:103290000089022D02D15C4BC3E90089DDE9000100
:1032A000DDE90023B8EB000069EB0101994508BF97
:1032B00090450BD2514B1A6B0023013243F10003AE
:1032C0009F00960047EA927780197941DDE9022351
:1032D00004F03CF94D4BC0B25855DDE90423DDE95B
:1032E0000267BB4208BFB24209D3DDE90467DDE9EA
:1032F0000223B21A67EB0303CDE90423EDE778B1AB
:10330000089B1BB1424B41F61F721A60A00742BFD7
:103310003F4B3B4A1A60610742BF384B00221A6795
:103320003C4B364E2A011344049A5A60DDE90001F1
:10333000DDE9022304F00AF9039B029A434301FBEF
:103340000233A0FB02011944DDE9042312184B41AA
:10335000CDE9022305F110031B011122F250FFF702
:1033600067FDDDE90089DDE90023B0EB080861EBCA
:103370000909994208BF90420CD2326B00230132F6
:1033800043F100039900900041EA927118EB0008A4
:1033900049EB0109DDE90023DDE90267B61A67EBB5
:1033A0000307DDE90001DDE902238B4208BF824209
:1033B0000BD2124B1A6B0023013243F10003990028
:1033C000900041EA927136184F410C4BB94508BF45
:1033D000B045DA6D3BD31BEA020F38D10B4A525D80
:1033E000012512B1C3F860B031E0079AA2B9069A7C
:1033F0001560C3F864B01CE7005108440050084051
:1034000000001F1F6011002078110020D311002040
:103410006C50084408510840C3F860B0089B43B1A1
:103420000E4B0F4941F61F7240F201101A600860FE
:103430001A60A20706D5094B09490A4A0A481A60C8
:1034400008601A60630742BF084B01229A60504629
:1034500002F086FB01200BB0BDE8F08F6C500844F1
:103460006C50084600001F1F00000101004008408A
:1034700008B501F08DFE0138114A1249124B082897
:1034800019D8DFE800F005180E0E111115151500FA
:103490000E480078116001280CBF4FF044124422FE
:1034A0000BE01160002208E011604FF0331204E0DD
:1034B0001160A22201E01160054A1A6008BD00BF38
:1034C00050410844F701F70150410846F41100202B
:1034D000A200F700F8B5384B384A002808BF012091
:1034E0001860374B9B69C3F382131370023BDBB246
:1034F000042B05D8012202FA03F313F0130F08D1AD
:10350000304B1B78022B06D0012B0CBF3222B42289
:1035100002E0002200E09622002302FA03F442F2C5
:10352000107564116C43284DB4FBF5F4844202D845
:103530000133102BF1D122481204C0F8BC20234AD9
:1035400040F6FF741460013B02F100721B0213602D
:10355000D0F8BC20D0F8BC30D0F8BC50D0F8B8E0DF
:10356000D0F8B860D0F8B870164CC6F303100EF05F
:103570000F0EC3F30723D2B202FA0EF28340C7F351
:103580000327C5F3074542F21070BD405B1152118D
:103590000D4E43434243B3FBF6F3B2FBF6F26D111B
:1035A00013446843B0FBF6F0034408460121A380AE
:1035B00001F0EEFBA088F8BD70110020280000206B
:1035C00000600840F411002000DC0500B8600844E9
:1035D000F8B50446C820FFF74DFC444B444F1A7819
:1035E000032A02D1FF243C707DE0012A414911D118
:1035F000072C03D8012C08BF022400E007240A6826
:103600003D4B134043EA04630B603C4B04221A60B9
:10361000A4B263E00A6822F0F95222F4FE1242F4E6
:103620007F5242F008020A601E782EB9042C05D998
:10363000043CE4B2012502E0002500E03546304BB1
:10364000D3F88831DB4303F4FE1343F40053B3FA99
:1036500083F3C3F11303C3EB4313DBB2A34228BFCD
:103660002346DBB29CB226B9002D0CBF00200420FB
:1036700000E00020044423481BB9234EC0F85861E1
:1036800005E04FF0E066013BC0F85861DBB21F2057
:10369000B3FBF0F0C0EB40169B1B1B0603F18073DD
:1036A000C0B21343013001228240013A43EA823220
:1036B0000A60144AD2F8583134B123F07F4323F022
:1036C000040343F07F4300E0104BC2F858314FF43D
:1036D00080030DB10E4A00E00E4A1360E4B22046AA
:1036E0003C70FFF7C7FB2046F8BD00BFF411002077
:1036F0001C000020E81F00213F00C0E058410844A2
:1037000000400E40004008402C0000070400000765
:103710000841084608410844094A0A494FF48033E1
:10372000C2F8E8300B60916B074BC9B29961926B9C
:10373000C2F307229A6104229A6100229A617047BB
:1037400000100840EC1008466010084010B5EFF378
:10375000108072B60E4A0F490F4C01239365C2F8D0
:10376000883000230B604C6003244C620B490C80B2
:103770000B490B804FF4A021C2F8E81002F1C0629F
:10378000EC321160074ABDE81040136002F0E8B95E
:1037900000100840601008408411002080110020B3
:1037A000D8110020CC110020034B044A1860186087
:1037B000034B12681A60FEE7240000206811002005
:1037C00020000020431E012B03D9031F58425841FB
:1037D000704701207047000038B50546EFF31084AC
:1037E00072B6FFF7B3FF15B101F0ACF904E0054B79
:1037F0001B780BB901F0B4F92046BDE8384002F05F
:10380000AFB900BF381400209A4B2DE9F74F1A6E5C
:10381000DF6E17409F6603F58053D3F8E020D3F89E
:10382000EC601640C3F8E86003F5A043D3F800222B
:10383000D3F80C1201EA020AC3F808A2A3F5005358
:103840005A69196A01EA02084FEA18421204DA6159
:10385000894BD3F80022920004D4D3F80031C3F38B
:10386000407303B3EFF3108072B6844BDA6812F042
:10387000060FDA6D996E01EA020929F4800222F43A
:10388000006214BF4FF0010B4FF0000B19F0040F52
:103890005A661FBF7A4A13780133DBB218BF137020
:1038A00002F05EF901E09B469946002F3FD03D04AF
:1038B00013D5744B7449D3F88830A02003F4E05238
:1038C0000A600860102041F8880C42B1DC0409D479
:1038D00058050AD44FF4000409E0002407E04FF42F
:1038E000002404E04FF0007401E04FF40014B90725
:1038F0004FF0000515D5634B6349D3F8883003F4C6
:1039000060420A6012B944F480140AE01A0402D535
:1039100044F0806405E098044CBF44F4800444F013
:10392000807417F4005F0CBF0027022701E0002419
:103930000025564B3340002B54D016F4206F07D08F
:103940000020FFF749FF062026F48026FFF72CFF12
:1039500016F0090F09D04B4B20229A60A3F5405373
:1039600001229A620820FFF71FFF16F0106F19D08E
:10397000444B20229A60464A0123C2F8B830019293
:10398000EFF31083009372B60020FEF7FDFD009B5D
:10399000184602F0E5F8019A0423C2F8B83009206D
:1039A000FFF702FF16F4202F07D00020FFF714FFC7
:1039B000072026F48026FFF7F7FEF10312D5354BDA
:1039C0004FF480321A60324BC3F8E420D3F88020E1
:1039D000C2F30C023C2A05D8D3F8E030DA0301D553
:1039E000FFF79AFE73070BD52B4B1A684FF4005361
:1039F00022B12A4A44F48024136001E0284A13606B
:103A0000700548BF44F0040416F4802656D02549BA
:103A1000254B0A881B8825481344043292B2033B85
:103A20000A8003F03C03224903444A629A7802F078
:103A30000702042A03D1134949680903FBD41D492D
:103A40000B60531E062B05D8DFE803F0080B080EA9
:103A5000113636000320FFF7A7FE2FE044F4005490
:103A60002CE044F4806429E044F4007426E044F43B
:103A7000807423E00000084000E100E000500840AE
:103A8000D01100200040084088400844090A0B0972
:103A900000100840EC100844B40402432410084409
:103AA0002410084680110020D81100208411002025
:103AB00060100840CC11002044F00804BAF1000F57
:103AC0001DD01AF4805F18BF44F400441AF4807FBC
:103AD00018BF44F480341AF4005F18BF44F0100497
:103AE0001AF4007F18BF44F020041AF4806F18BF46
:103AF00044F040041AF4006F18BF44F08004B8F199
:103B0000000F30D018F0007F18BF47F0080718F0FA
:103B1000806F18BF47F0100718F0006F18BF47F00C
:103B2000200718F4802F18BF45F0040518F4803FD3
:103B300018BF44F4006418F4801F18BF44F4804494
:103B400018F4001F18BF44F0020418F4002F0AD024
:103B5000974B5B68C3F303639A1E012A01D9072BB5
:103B600001D144F40034B9F1000F00F0E38019F4FE
:103B7000006F21D08F49904ACB7883B1013B4FF43D
:103B80000060DBB25066CB70B3B98C4B197840F64D
:103B9000014381B102F1C0626C3213600CE08849CC
:103BA0000120086087484FF4006141F61F7E51668E
:103BB000C0F800E05166136719F0007F04D02B2095
:103BC000FFF754FA44F0804419F4E00F06D119F4D9
:103BD000805F00F09D80BBF1000F54D019F4001FEE
:103BE00004D02920FFF742FA44F0005419F4800F62
:103BF00016D0754BDFF8C0A101221A604FF4805334
:103C0000CAF864302720FFF731FA704BA0221A60FF
:103C1000102243F8882C4FF48003CAF864302FE058
:103C200019F4801F0CD0684B01221A60624B4FF4CC
:103C300080525A662820FFF719FA44F0006467E0C2
:103C400019F4805F64D0604BDFF86CA14FF0010B7A
:103C5000C3F800B04FF48053CAF864302220FFF755
:103C600005FA4FF48023CAF80430DAF85C3013F414
:103C7000A00F4DD12A20FFF7F9F9554BC3F828B012
:103C800044F0805444E04B4A137943B1013BDBB22A
:103C9000137113B94F4B504A1A60002235E04A4B5A
:103CA00001221A60444B4FF48051596644490A601E
:103CB0004FF400625A66494ADA66EFF3108B72B627
:103CC000474B1B780BB100F06DFF414B384A1B6D21
:103CD0005268C2F30362032A02D0C3F30C0333B168
:103CE000404B1A78404B4FF0010A1A7000E09A4698
:103CF000584601F035FFBAF1000FCED13B4B83F8A7
:103D000000A000F029FE4FF48052002314431D430D
:103D100019F4806F0ED0274A93781BB1013B937042
:103D2000002306E0324A01231360234A4FF48061E6
:103D300051661F432F4BDFF8D090D3E900012E4B83
:103D40001A682040012329403A4089F8003002F0E7
:103D500033F9002389F80030002E00F0AB80274CA7
:103D60002368002B00F0A480D80700F19F80EFF3B8
:103D7000108572B62248234A018801F03F0101F004
:103D80003C07022B174406D12368002B00F08B80E0
:103D900023F0010302E0012B08BF3B46266826F012
:103DA0000106B34232D1154A0021116037E000BF4D
:103DB00000400840D311002000500840D2110020DC
:103DC000305108446C50084440510844884008442D
:103DD000001008406C5008460000010D0000010171
:103DE000C4110020C6110020D1110020C5110020EF
:103DF00020510844401400203C140020CC11002025
:103E0000D81100208411002038140020591A8A1A71
:103E10004749098848BF403204398A4243DA1A8840
:103E20006FEA42426FEA5242BB421A8034D1404E9E
:103E3000B0F8009037883A46043A92B2DFF810C1E1
:103E400009EB0701891A1FFA81FEACF1400A191D1E
:103E5000614528BF5146042A11D899781B883280C1
:103E6000344EC3F30C03F36301F00701324B0EF041
:103E70007F0604290680DE605A620DD106E0B1F9A2
:103E800000C0BCF1000FE8DA0B46D5E72B4B1B68EE
:103E900003B19847FFF74AF8264BD3F8E030D9032F
:103EA00001D5FFF739FC284601F05AFE00232360B4
:103EB00000F056FEB8F1000F36D018F0007F21D088
:103EC0001F4BD3F83821D20655BFD3F80021D3F8C1
:103ED000182122F47F1122F47F1155BFD3F800215D
:103EE000D3F8182102F47E1202F47E1255BF41EA83
:103EF000520241EA5202C3F80021C3F818214FF0E0
:103F00000072DA6118F0006F0ED00D4BD3F8383123
:103F100013F0100F0CBF0B4A0B4A4FF40013136041
:103F20000A4B4FF000621A6003B0BDE8F08F00BF8B
:103F3000801100200010084060100840C8110020C7
:103F4000004008400041084418410844204008440B
:103F5000C411002038B5094B04221A601C46084BD6
:103F6000D3F888305B0307D5064B04251D6002207B
:103F7000FFF7A0F82560F2E738BD00BF884008468B
:103F800000400840884008447047000038B50B4B9B
:103F9000B1F912201D680A4B04791B7847F6FF71AE
:103FA0008A4208D02846194602F018F984428CBF8C
:103FB0000020012038BD012038BD00BF681100205D
:103FC000F41100202DE9F0479A4B9B4ED3F8A090B6
:103FD000F768D3F8A480044600F1280500294AD0E8
:103FE0000A68501C47D0C2F3026CDFF87CE2C2F3CF
:103FF00007405EF82CE093B2012843EA0E030FD984
:104000008C460246C1EB030EE644013A5CF804AF6D
:10401000CEF800A0F6D101EB800101F1040A28E0FE
:10402000120F01F1080A4868072A22D8DFE802F0D7
:104030000D04080B0F12171DC04303F1806304E049
:104040001A68504001E003F1C063186011E0FFF707
:1040500031F80EE00122824003F1C06303E0012247
:10406000824003F180631A6003E01A6802408242D2
:10407000FBD15146B2E7FFF7FBF9704B704A9B69E1
:104080001278C3F382139A4204D06E4B2946186803
:10409000FFF720FA6C4800F067FF4FEAD00AFEF7FE
:1040A00055FF664B6949D3F83021C2F3C0324FEA5D
:1040B000CA1342B103F574402430DFF8B0E1B0FB1D
:1040C000FEF04860624803EB5003B3FBF0F08860F9
:1040D00058484368DB0217D45E4B1B68D0F8A80031
:1040E000C3F3810303F1010E10F48063C0B218BF63
:1040F0004FEACE03FF2808D04E48D0F8AC00400568
:1041000003D503EBCE0300E0002302B103330B61C0
:104110004A4BD3F8842012F4E05F04BF2022C3F896
:104120001022444BF668D3F8A010D3F8A4204945D8
:104130000AD049480378C1F3802E6EF30003C1F31F
:10414000C02161F34103037042450AD042490B7814
:10415000C2F3802060F38203C2F3C02262F3C30380
:104160000B70BE425ED03D4B3D4F36B1326822B13E
:10417000D6F808E0BEF1000F0ED1EFF3108072B652
:104180001A6822F007021A6001F0EAFC00233B6083
:104190007B607EBB334636E0324A072111609EF8D1
:1041A00004203A709EF8050090FAA0F1B1FA81F26D
:1041B000202A08BF4FF0FF32D1B2C84002F00F02F0
:1041C00042EA00127A709EF80620BA709EF8072024
:1041D000FA70DEF800207A609EF80420154901325A
:1041E0008A61EFF3108072B61A6842F007021A6013
:1041F00001F0B6FC336833B132691AB191681368C3
:10420000D28902E0134619461A4692B2A36243F2DB
:10421000C8239A4228BF1A462163E286284607210E
:1042200000F0B6FD237843F0020323700020BDE8C0
:10423000F08700BF00000840EC1F0021006008402C
:10424000280000207011002060510700841F002109
:1042500020A10700002008405C0B0020F01E002178
:104260004C1F002104000844F89A000048E80100AF
:1042700008B590F86030032B04D00846FFF7A8F982
:10428000002008BD022008BD38B50C4BD3F8EC5017
:1042900003F18063EC334FF480641C60084B002012
:1042A0001860FFF799FA074B4FF400521A606A053D
:1042B00042BF03F1007398331C6038BD0010084002
:1042C000DC110020541008441C4B5B6803F0706341
:1042D000B3F1E06F30D010D8B3F1407F20D005D8D3
:1042E000B3F1807F28D0B3F1007F04E0B3F1806F99
:1042F00022D0B3F1A06F17D11EE0B3F1206F11D01F
:1043000007D8B3F1006F0DD0B3F1106F0CD10520B9
:104310007047B3F1306F05D0B3F1406F02D003E0C6
:104320000320704704207047054BDB6813F0060F2D
:1043300014BF04200120704702207047004008404D
:104340000050084070B50378990704463DD5426A8D
:10435000002A3AD06FF34103037053691B685A1C5B
:1043600009D01A48D0F83C2199B2130C1B040B4316
:10437000C0F83C3170BDD0E91223002203F00403E1
:10438000134304D1037843F00203037070BDEFF3CD
:10439000108072B62569E36805F480352B43E3602D
:1043A00001F0DEFB00220DB9002300E00423D4E974
:1043B000120102400B4052EA030106D00449A4F165
:1043C0000C000968BDE87040084770BD0040084017
:1043D000300000202DE9F84398464369012B06463A
:1043E0000D46174600F09D80FFF76EFF01280DD1A6
:1043F000BB897C68BF68ED1AADB23F2D10D9AA0900
:10440000BB0102FB034405F03F0509E00021012048
:104410000A4600F0E3FBFFF757FF0128FBD1E7E76F
:10442000554B1A68A242994606D1544B1B68BB42B1
:1044300002D1B8F1000F5DD000F0AAFE804600F076
:10444000A7FE002870D04E4BB3FBF0F39C426BD319
:104450004C4BB3FBF0F0844266D8B8F1010F4FF03B
:10446000100300F08280484A1360B8F1000F7FD03B
:10447000C9F8004004FB08F4444ADFF828910023FF
:10448000E004610B03F062F8C9F82C00D9F8303071
:104490003E48C3F31303A3FB00014FEAC8420023C5
:1044A00003F054F83A4B394A1860344BF8041F6053
:1044B000A0FB08017B0B08FB0311002303F046F867
:1044C000344FC9F83C003B7823B9D9F8503003F099
:1044D0003F033B70304BD3F894305A0628D400F099
:1044E000D5FD2D4BD3F83831DB0654BF2B482C4873
:1044F00000F096FD3046FFF725FF274B5B68C3F3BE
:104500000363042BF9D00A2BF7D013B10F20FFF768
:104510004BF9244B9D6303F5805380229A6000F091
:10452000B5FD0020BDE8F8830E20FFF73DF91FE040
:104530001D4AB4FBF2F240F24D5302FB02F14B4331
:104540004CF20C6101FB123303F5C91303F55563FB
:104550001BB92B20FFF728F901233978134A4A4366
:10456000B2FBF3F30F4A1365B9E7114A13607FE713
:104570000220BDE8F88300BF00120020FC110020DB
:1045800000371789007DDAAC3841084600F049024F
:10459000F0110020E811002000400840C0CF6A0060
:1045A000E06735000030084000366E0180969800C4
:1045B000384108442DE9F04F754F764A3B68D2F8F0
:1045C000008087B00446019363880093656A019B6D
:1045D000D4F82090039200209D428DF816000E46DC
:1045E0008DF8170004D11DB1009B994200F0CD80D9
:1045F000B9F1000F00F0C480D9F80820002A00F0BB
:10460000BF80D9F80C20002A00F0BA804FF0000BD0
:10461000D9F80C2093451DD2D9F808204FF0180A7C
:104620000AFB0B2ABAF80E20B24210D8BAF81020B2
:10463000B2420CD30125204651468DF81750FFF7A2
:10464000A5FC18B18DF81650554603E055460BF100
:10465000010BDDE7504A1178504A13789DF8162077
:104660000293A4F10C0B12B12046217911E09DF8C0
:104670001720002A00F08680B5F9122047F6FF7057
:10468000824204D0584601F0A9FD014600E0FF2116
:104690002046FFF7EDFDB8F1000F31D0C84524D119
:1046A000D7F800A0BAF1000F1FD0AA451DD1009B7A
:1046B000B34204D1C4F824A06680002065E02A46F5
:1046C000204631460023FFF785FE05460028F1D03D
:1046D00002992046FFF7CCFD2D4B00991A68204621
:1046E0000023FFF777FE28464FE0D8F800203AB1C4
:1046F000D9F800108A4203D12046D8F8041002E00D
:10470000D9F800102046FFF75DFC8246C8B9204664
:104710002968FFF757FC824698B9039B6562C3F886
:1047200000906680204631462A4601233D60FFF70F
:1047300051FE824628B91A4B58461B6829469847AD
:1047400022E0039BC3F80080019B3B60B8F1000F9F
:1047500004D02046D8F80010FFF734FC2046029918
:10476000FFF786FD3B687BB119682046FFF72AFCFE
:10477000074B00991A6820460023FFF72BFE03E041
:10478000032002E0012000E0504607B0BDE8F08FB2
:10479000E4110020E0110020F41100201C00002092
:1047A0002C000020F8B506460D4611B91F20FEF773
:1047B000FBFF00233562736215B91F20FEF7F4FF7B
:1047C000E86800214FF6FF73CAB282420CD2AC688F
:1047D000182707FB0242D4899C4201D20CB904E09D
:1047E0001C4601312346EFE71C4630462146FFF7C1
:1047F000E1FE2046F8BD70B590F86030032B054609
:104800000E4611D02971416A61B1FFF7BFFB28B98B
:10481000686269882846FFF7CDFE03E028463146E6
:10482000FFF726FD002070BD022070BD084BD3F8B5
:10483000882012F0A00F0AD108229A60054B1B684D
:1048400013F4007F14BF044A044A02231360704724
:1048500000400840001F0021004008460040084476
:1048600010B5046884EA010323EA020200F18063C0
:1048700014401C6040F8042C00F1C0600A40026043
:1048800010BD0000024B5A6999680A401A617047CE
:1048900000400440704700000A4A53685B0708D193
:1048A000094B5B682BB1094B1B6AC3F30C03013B3B
:1048B0009361074B80221A60064A136823F0400375
:1048C00013607047000008404C1F00210010084092
:1048D00088400846F01E0021EFF3108072B60A4BA4
:1048E0004FF080521A604FF480721A6010221A60E2
:1048F00020221A604FF000521A6080221A60402273
:104900001A6001F02DB900BF00E100E0EFF3108064
:1049100072B6104B4FF08052C3F880204FF4807273
:10492000C3F880200222C3F880201022C3F8802020
:104930002022C3F880204FF00052C3F8802080224C
:10494000C3F880204022C3F880200122C3F88420CD
:1049500001F006B900E100E0EFF3108072B6124BEF
:104960001978B9B9114BD3E90023002302F410528E
:1049700013430FD10E4B10221A600C4BD3E90023C6
:10498000002302F4807213430AD00A4B20221A60DB
:1049900001F0E6B8074B10221A600029F5D1ECE7C8
:1049A0002022034BF3E700BFC51100204014002074
:1049B000944008449440084670B5044616460D4697
:1049C000FFF7CAFF04F0AA620023134348F2020172
:1049D00008BF4FF40041B20748BF41F400514F48AF
:1049E0000022FFF73DFF04F400420023134304F4C8
:1049F00080324FF0000314BF4FF480510021134365
:104A000004F010024FF0000318BF41F4807113430B
:104A100004F020024FF0000318BF41F4005113438B
:104A200004F040024FF0000318BF41F4007113433B
:104A300004F080024FF0000318BF41F4806113437B
:104A400018BF41F4006136480022FFF709FF05F066
:104A500004030022134304F400624FF0000314BF68
:104A60004FF480210021134304F480424FF00003EF
:104A700018BF41F48031134304F002024FF00003E9
:104A800018BF41F4801113434FF0000304F40032C7
:104A900018BF41F40011134318BF41F400217307FC
:104AA00048BF41F004011F480122FFF7D9FE1E4B09
:104AB0001E491F4816F0010F08BF194604F00052A6
:104AC000002313434FF0000304F0804218BF41F469
:104AD0000011134318BF41F000710022FFF7C0FE20
:104AE00004F0010113480022FFF7BAFE04F480220B
:104AF00000231343104B1149114804F004044FF0F4
:104B0000000508BF194654EA050318BF41F4806147
:104B10004FF4A022BDE87040FFF7A2BE6C00084031
:104B20000C6208402040084004185000041C50004B
:104B3000685008403C700840090A0A090D0A0A0931
:104B4000EC100840044B00221A70044B197811B184
:104B50001A70FFF701BF7047D1110020C511002066
:104B600038B50C4B1B789BB10B4B1C6DC4F30C047C
:104B700074B9FFF7E7FF094B094DD3E9000122465D
:104B8000012300F4805000212B7001F015FA2C70E5
:104B900038BD00BFD1110020001008404014002093
:104BA00038140020EFF3108072B6094B5B68C3F332
:104BB0000363032B01BF074A136823F0F00343F09C
:104BC000E00308BF1360044B01225A6200F0C8BF23
:104BD00000400840541F0021000008402DE9F04724
:104BE00081460F461646EFF3108872B63E4D91B9D6
:104BF000A0232B603D4BD3F83021D2071AD53C4976
:104C000001220A604FF4006159663A490A604FF484
:104C100080525A660EE0FFF79DF9374B01221A6069
:104C200004232B60354B5B6813F0706FE0D0FEF708
:104C30007DF9F7E72D4C324BE36600232367FFF73E
:104C400089F9304ADFF8B4A0136843F040031360D9
:104C50002D4BFF221A604FF48073CAF808300423EA
:104C60002B60B9F1000F10D0FFF79CFF2220FEF758
:104C7000FDF94FF4802363602023CAF808301D4BF0
:104C800001221A604FF4805363663FB33046FEF74B
:104C9000A3FD1E4B01221A6006B31D4BDA6E9A6605
:104CA00003F580431A6ADA6103F50053D3F80C2246
:104CB000C3F80822A3F54053DA6F9A67A3F50053AF
:104CC000D3F8EC20C3F8E82003F5C043DA6B9A630D
:104CD000A3F500530F4A5A66FFF734FF4046BDE87C
:104CE000F04700F03DBF00BF884008440050084036
:104CF00030510844405108440C40084600400840E8
:104D000000000101F01E0021004008440C4008444E
:104D1000000008405000F00238B504460D46FEF78A
:104D200015F90C4BD3F830311B0405D50A4B9842CA
:104D30000A4808BFAD00A400094B29191424B0FB90
:104D4000F4F403FB01440A23B0FBF3F0B4FBF0F0EE
:104D500038BD00BF0060084048E8010020A10700FE
:104D6000A0860100094B1B6830B5C517A0FB0301E5
:104D700010F1807003FB051141F10001400E40EA83
:104D8000C110803820EAE07030BD00BFEC11002077
:104D90002DE9F84F0C460546002800F0D680CE07D6
:104DA00040F18480C38A53B18168694A521A6949C3
:104DB00088881B1A4FF47A7000FB032001E047F249
:104DC0003050FFF7CFFF644E6B8A706253B1A96811
:104DD0005F4A521A5F4988881B1A4FF47A7000FBA9
:104DE000032001E047F23050FFF7BCFFAB8A5A497D
:104DF000F0615A4F002B36D0AA685548801A554AA0
:104E000092889B1A4FF47A7202FB0302544BD3F838
:104E10003031180424D53868A2F53E42EB3A4FEA07
:104E2000E27BA2FB002312F1807A00FB0B3343F1FB
:104E3000000B4FEA5A6747EACB17803F0F62494F92
:104E4000A0FB0789B2EB080263EB090312F1807241
:104E500043F10003520E42EAC312803A0A6015E0A1
:104E60002B68D21A01E047F2305239684FEAE279F2
:104E7000A2FB012312F1807201FB093343F100030D
:104E8000520E42EAC312803A326232606B8B43B1F7
:104E9000304A9088181A4FF47A735843A0F6C41019
:104EA00001E047F23050FFF75DFF3063A2072DD5D8
:104EB000EB894FF47A7058435BB12B6803F51C53B0
:104EC000103318442B79002B46F2A81308BF002397
:104ED0001844FFF747FF204B2A8BD8621E4682B149
:104EE000AB684FF47A7000FB02332A79A3F50353C1
:104EF000002A46F2A810A3F1100308BF0020181AD8
:104F000001E047F23050FFF72DFFB06263071CD578
:104F1000288A30B14FF47A735843A0F50350103803
:104F200001E047F23050FFF71DFF0B4BAA89586193
:104F30004FF47A7050431C4622B12B6803F51C5382
:104F400010331844FFF70EFFA061BDE8F88F00BFD3
:104F50003CF6FFFFF4110020841F0021EC1100201B
:104F600000600840101B020008B500F47813B3F588
:104F7000C02F21D00DD8B3F5003F35D0B3F5802F29
:104F800014D0002B43D100F075FC244BD3F8003132
:104F90003AE0B3F5202F32D0B3F5601F12D0B3F54D
:104FA000002F34D1BDE8084000F064BC00F062FC82
:104FB0001A4BD3F80C311CE000F05CFC174BD3F813
:104FC000103116E0154BD3F8003203F00703013B14
:104FD000042B07D8DFE803F01F1F06031F004FF460
:104FE0007A7008BD002008BD00F044FC0B4BD3F8DC
:104FF0000831C3F308230133B0FBF3F008BD00F020
:1050000039FC064BD3F81431C3F30423F3E7BDE8AE
:10501000084000F047BE4FF4004008BD00400E407D
:1050200038B5134B4FF400221A60124A1060124A2E
:1050300012681D46D2B1114B114C1B6F00F5F420C4
:1050400000F59070B0FBF4F4033CE4B203F0070306
:10505000A34202D0204600F025FD0A4B1B782BB15D
:10506000094B4FF4702224041A602C6038BD00BF35
:1050700094400846340000208009C64300300E40AA
:1050800040420F000412002094400844F0B5334A17
:10509000334D51681068127A85B001AB03C33149B2
:1050A0001A700C68304A3149936B096804FB031489
:1050B000136B13F4801F2E4B1B6804AA14BFE41853
:1050C000E41A2C4BB4FBF3F313442B4A13F80B6C88
:1050D00004ABF440B4FBF2F21A442B6812F80B7CD8
:1050E00023B92B20FEF760FB01232B602968234B9B
:1050F00043F6FF521A6004EB5102B2FBF1F2013A9F
:1051000042EA06331E4A43EA872313601D4AB4FB72
:10511000F2F302FB1344642254431B4A944298BFA7
:1051200003F1FF335D08013D5C1C6408072D04F1A9
:10513000FF3403D8072C01D81DB914B91020FEF78D
:1051400033FB124B4FF4EE621A602D0103F1007332
:1051500045EA04241C6005B0F0BD00BF009B0000C0
:1051600034000020FC110020003008400012002014
:10517000F011002040BE4025401B5F13A4400844AE
:10518000A440084600F04902FFEF490230400844BD
:10519000064B5B6B03F00700C3F3C50313F0070274
:1051A00018BF5043DB0818BF584370470030084011
:1051B0002DE9F04F01288BB040F03E818A88002A0B
:1051C00000F03C81B24E096896F800B0BBF1000FC8
:1051D00000F03681AF4B1C781F46002C40F0548104
:1051E000AD4805788046002D40F04E81AB4D2868D3
:1051F00002EB0009B9F5806F02D982241C7043E1EB
:10520000DFF8B0A2504402F07FFCBBF1020FC5F8FA
:10521000009049D0B9F1030F40F23681DFF8A8922F
:10522000484601F029FB99F80030DAF800000290B6
:10523000012B029A9A4B2DD19A422BD1D9F8081002
:10524000C90327D50223337001F006FB954B1A687A
:10525000A2F17E63A3F58433B3F5605FC0F0F28002
:105260000398914B914A186020F4FF6323F00703E1
:105270004FF40061136001F09BFA08B1852310E040
:1052800001F030FA80B14FF4006101F091FA00288A
:10529000F4D109E09A4214BF842386233B703B7803
:1052A00013B13B701C46EFE03378022B40F0EC80EA
:1052B0007F4BDFF804A21A7812F0F70F994633D12A
:1052C000794B2E681B6806F0030B1E44DAF8003099
:1052D0001E44764BCBEB060626F4FF66196826F0D3
:1052E0000706B14209D201F50060711A019301F07D
:1052F0005FFA019B00285BD11E602968DAF8000084
:10530000CBEB0101FDF7E4F82A68DAF800306349D5
:10531000CBEB0202064613446648CAF8003001F09F
:10532000E7FA002E44D121E0DAF800202B681A4475
:10533000CAF800205B4A1168A1F17E62A2F58432AE
:10534000B2F5605FC0F08C8040F2022659485349A4
:105350002A6801F0CDFA40F203239E4268D040F261
:1053600001239E4202D080243C708DE099F80030E9
:10537000002B40F08980DAF800307F2B40F38480E6
:1053800003A802A9FDF77AF810B9494B039A1A70DD
:1053900099F8003013F0F70F76D0424EDAF800306B
:1053A0003168A1F17E62A2F58432B2F5605F01D36B
:1053B0008524D9E7096BA1F17E62A2F58432B2F5AA
:1053C000605FF5D20020D1F80CC03A4A0146E047B0
:1053D0000028EDD1384BDFF8EC901B682B60334B85
:1053E0001860364BC9F804303268A2F17E63A3F529
:1053F0008433B3F5605FDBD2936A31484FF40071B8
:1054000098470028D4D13168244BA1F17E62A2F5DF
:105410008432B2F5605F1B682FD340F20226254824
:105420001E492A6801F064FA40F203239E421ED10D
:10543000012388F8003027E0002425E00D2423E034
:10544000812421E0126BA2F17E63A3F58433B3F5CE
:10545000605FBFF405AF936803A900209847FFE69B
:10546000CE6A17481749134AB04706466EE740F21E
:1054700001239E427FF477AF06E0CE6A10480D4AC2
:105480004946B0470646CAE720460BB0BDE8F08F54
:1054900020140020DC1A0020051200203014002007
:1054A000EB17A6032808E10F1C1400207816002033
:1054B000341400206C0B0020181200200569000035
:1054C0001C12002008120020901A002001282DE94B
:1054D000F74340F00A818B88012B40F008810B686C
:1054E0001B7803BB954A1360954A1360954A136075
:1054F000954A1360954A1360954A1370954A136054
:10550000954A1360954B1A78022A1C4601D101F086
:1055100093F901232370924B00201870914B18705F
:10552000914B187007E1032B40F0C5808E4B8B4DDB
:105530001878002840F0BC802B78002B00F0B18058
:10554000834B1B78082B4FD17C4A1368904653B984
:10555000864C2368A3F17E63A3F58433B3F5605FC3
:10556000C0F0C98045E013F003071CBFC7F1040772
:10557000FFB2FE18B6F5806F00F297807C48DFF826
:10558000CC911844FF213A4602F01EFB714A6C4B45
:1055900014681B68D9F80010C8F800601C44344433
:1055A00024F4FF6424F00704A142164609D201F551
:1055B0000060611A01F0FCF808B1852078E0C9F8B4
:1055C0000040D8F800103068FCF782FF3368D8F844
:1055D00000205A4913440446DF1B6548376001F038
:1055E00087F9002CE9D1B3E7002B5CD05C4B1B782A
:1055F0000BB980205CE0584E336843B9524B5D498B
:105600001868102201F0ECF80028D6D150E013F011
:1056100003021CBFC2F10402D2B2D418B4F5806FE9
:1056200043D85548474F1844FF2102F0CDFA53485C
:10563000534A54493B683460121A0A4422F4FF6208
:1056400022F00702934232D31C444F4B9B6C9BB217
:105650009B02A3F580539C4229D2DFF8F08024F40A
:10566000FF64D8F8001024F00704A14208D201F525
:105670000060611A01F09CF800289ED1C8F8004033
:105680003D493268386801F0ABF83B68326832490E
:105690000446134438483B6001F02AF9002C8CD1B1
:1056A000ACE7812004E0842002E0822000E0832037
:1056B00000232B703FE0042B1BD1344C344A354976
:1056C0004FF40060132300F053FE13230221204601
:1056D00063702170FDF712F92F4A304B12890532A1
:1056E0009A802F4A1A6062789A71002023E00D2078
:1056F00021E006201FE0FCF70FFF00287FF479AFC0
:1057000022680190A2F17E63A3F58433B3F5605F54
:1057100004D3144B01221A700020C9E7126BA2F1C6
:105720007E63A3F58433B3F5605FF2D2936901A879
:1057300001219847EDE703B0BDE8F0833014002065
:105740001C140020841A00207C16002078160020EB
:105750003414002018120020801A00202014002089
:1057600005120020A40F0020DC1A00202808E10FF9
:105770006C0B002066160020801600201000002010
:10578000BC00002077A40000B081E00F341000209E
:10579000099B00009F990000A80F00200410002022
:1057A0004D640000E0B1114B1A689188814219D311
:1057B0009988814281BF0121126899809A609988F5
:1057C0009A6842B1814202D199809A600BE001311E
:1057D000126889B2F5E74FF6FF719A60998002E08E
:1057E000024600E000221046704700BF241400204B
:1057F0002DE9FF410A9EBDF82C70044688468DE8CD
:105800000C00FFF7CFFF05461DB3444521D82B7A86
:105810009DF80420686800999A4216D102F064F954
:1058200098B90EB9204622E02B69AA8AA3B14FF697
:10583000FE7E724510D10290ADF80C0002A9984787
:1058400018B90299BDF80C2041B901342D68A4B2F1
:10585000DAE74FF6FF700AE01946F5E7BA42F4D1ED
:1058600030463A4602F040F90028DBD0EDE704B0BC
:10587000BDE8F0810C4BD3F8942002F00702022A15
:1058800003D004D3042A04D901E0084803E00848FF
:1058900001E04FF40040D3F80031C3F30423013397
:1058A000B0FBF3F0704700BF00400E4000F049022B
:1058B000C0EA2101024B1A6FD96F0A409A677047FC
:1058C00000300840FDF7A0BFFDF79EBFFDF79CBF6D
:1058D000FDF79ABFFDF798BF0E4A136BD16B0B40D3
:1058E00010B59363DB0714D50B4BD3E900230023DA
:1058F00002F00102134302D11220FDF755FF074CBD
:105900000123012000210022237000F055FB002319
:10591000237010BD0070084040140020381400208F
:105920000F4A10B55369146A1C40A3B2E107D36152
:1059300006D5516840F20510C1F3036100F0D2FCB6
:1059400063070CD5074B084C1A680020012300217F
:1059500002F00402237000F02FFB0023237010BD1F
:10596000004008403C14002038140020174BD3F8A6
:105970008031032828D8DFE800F00204070ADBB2F0
:1059800006E0C3F3072303E0C3F3074300E01B0E65
:1059900059B91B0313F4702F16D10D49CA6E22F4A6
:1059A00070421343CB66012070470129FBD11B03D2
:1059B00013F4702F08D10648D0F8E02022F470428A
:1059C0001343C0F8E030EEE700207047B081E00FED
:1059D00000300E40304B1A6FD96CC90702F0070235
:1059E00006D5012A04D9132818D91438132811E030
:1059F000DB6CD90706D4012A04D809280ED90A3845
:105A0000092807E0244BDB6C13F0010309D0012ABD
:105A100006D827288CBF1023082302E0042300E0C7
:105A200000231D49013BCA6C180340EA032322F4FA
:105A30007F421343CB64194BCA6C1B88C2F3032209
:105A40002833013202EB820003EB5303B3FBF0F384
:105A5000C86C013B072B20F0EE6028BF072340F401
:105A6000801040EA0363CB640D4BB3F90030002B88
:105A700010DB2833500000EB520203EB5303B3FB5F
:105A8000F2F30A6D072B28BF072322F0700242EAC7
:105A900003130B65704700BF00300E403614002022
:105AA00048140020054A064B1B68136F23F00703B8
:105AB0001843044B10671888FFF78CBF00300E4066
:105AC0008009C6434A14002042EA032340F201122F
:105AD000934227D0B3F5817F09D2012B1ED029D361
:105AE000B3F5807F34D11D4BD3F86C312CE040F2FC
:105AF000012293421AD006D8B3F5007F28D1174B64
:105B0000D3F8703119E0B3F5407F1AD040F201327A
:105B100093421DD1114BD3F8783115E00F4BD3F8D8
:105B200074310AE00D4BD3F874310DE00B4BD3F810
:105B3000783102E0094BD3F86C31C3F30722DBB2B2
:105B400008E0064BD3F870311A0EC3F3074301E0A7
:105B50000022134603600A60704700BFB081E00F67
:105B600000B962B67047000000F00F000138072846
:105B700048D8DFE800F0040E1947232D4735244BA1
:105B8000D3F8943003F00703023B022B3CD8214AA0
:105B900008E01F4BD3F8803003F00703013B042BD0
:105BA00034D81D4AD05C7047194BD3F8843003F0C9
:105BB0000703013B042B29D8184AF3E7144BD3F809
:105BC000883003F00703013B042B1FD8144AE9E790
:105BD0000F4B1B6F13F0010F14BF092007207047F4
:105BE0000B4BD3F85C3103F03003202B06D0302B65
:105BF00006D0102B0CBF07200120704704207047EF
:105C0000082070470020704705207047012070472A
:105C100000400E40239B0000199B00001E9B0000CB
:105C2000509B000010B50446FFF79EFF194B9C42A5
:105C300009D0194B9C420AD0184B9C420CD1184BEE
:105C4000D3F8800006E0164BD3F8840002E0144B32
:105C5000D3F8880000F007000138042817D8DFE8DF
:105C600000F00303090603004FF4004010BD4FF499
:105C70007A7010BD01F06EF8094BD3F80021C2F321
:105C80000062013201239340B0FBF3F010BD00200D
:105C900010BD00BF03001C000500200002001A0018
:105CA00000400E4000F47810B0F5901F08B558D0B1
:105CB00021D8B0F5002F00F0838009D8B0F5003F5F
:105CC00044D0B0F5802F3BD0002840F0958077E09D
:105CD000B0F5402F6DD0B0F5602F00F08180B0F5A9
:105CE000202F40F08980FFF7C5FD444BD3F81431D5
:105CF000C3F3042331E0B0F5E01F41D011D8B0F573
:105D0000B01F3FD0B0F5D01F29D0B0F5A01F73D180
:105D10003B48FFF787FF394BD3F8202102F00F02F1
:105D200042E0B0F5281F21D003D8B0F5001F18D0ED
:105D300062E0B0F5301F2ED0B0F5381F44D05BE0E4
:105D4000FFF798FD2D4BD3F80C3104E0FFF792FDDF
:105D50002A4BD3F80831C3F30823013326E028483F
:105D600000E02848BDE80840FFF75CBF2448FFF783
:105D700059FF224BD3F82031C3F30113D84008BD9B
:105D80002148EFE72048FFF74DFF1C4BD3F82821AF
:105D9000C2F3011208E01C48FFF744FF174BD3F889
:105DA0002821C2F30122043201239340B0FBF3F017
:105DB00008BD1648FFF7D8FE072811D009281BD1C7
:105DC000BDE80840FFF756BD1148FFF7CDFE072894
:105DD00006D0082806D004280E4818BF002008BDA9
:105DE0000D4808BDFFF746FD044BD3F80031C3F35F
:105DF000042303FB000008BD002008BD00400E4046
:105E000002001A000500200003001C0006000C0020
:105E100098002E0000F04902C0EA210170B50E4B37
:105E20005B6800230D4C04EBC302CDB21679AE4281
:105E300003D154F83340A0420BD90133052BF1D1E3
:105E4000032205494B6823F0407343EA02634B6029
:105E500070BD5279F5E700BF00000E40289B00009E
:105E600038B5054C41F67133256C2364FFF7D6FF36
:105E70000DB10023236438BD00000E40154B2DE901
:105E8000F041D3F8003104460F46FFF7F3FC80469B
:105E9000114D2B68002BFBD1104B5A68C2F3014205
:105EA000A2421E4613D0022C03D140462146FFF7E2
:105EB000D7FFC4F102021023934033611CB940465E
:105EC0002146FFF7CDFF17B12B68002BFCD1BDE8B1
:105ED000F08100BF00400E40C800C64300300E40B5
:105EE000064B10B5D3F800310C4608B9FFF7C2FCD9
:105EF00021460020BDE81040FFF7C0BF00400E4023
:105F00000C4B984205D90C4B984204D9022201232C
:105F100003E0002200E00122134608490B60084913
:105F2000D1F8003123F0807343EA0263C1F80031F5
:105F3000704700BF0048E8010090D0034000C8430C
:105F400000400E4070472DE9F041054616460F46C9
:105F5000FCF727FBAB8A181A80B2864228BF064698
:105F6000B046B8F1000F1BD02C68AB8AA868234458
:105F70001B1A9CB2444528BF44463946224601F0CC
:105F8000C3FDAB682968AA8A23440A442744934284
:105F9000C4EB0804AB601FFA84F828BFA960E0E7EF
:105FA0003EB16B68AA689A4202BFAB7D43F0010321
:105FB000AB753046BDE8F081774B2DE9F14F1746C0
:105FC000D3F8009072A3D3E9002302400B4013439F
:105FD00004460D4600F0AA80704B00F4002A4FF0F2
:105FE000000BD3F81C115AEA0B0318BF6C4B4FF08F
:105FF000000200F4801A4FF0000B18BF83E806007F
:106000005AEA0B031CBF674B83E8060000F080527E
:106010000023134309D0644B1B6803F07F43B3F1A3
:10602000007F02BF614B02221A6004F001020023CC
:1060300013435CD0EFF3108072B65D49D1E90023C1
:1060400022F00102C1E900235A4A012313605A4A8F
:106050009363FFF785FDEFF3108072B6574A564BF6
:1060600056689B68C3F38913990544BF6FEA83534D
:106070006FEA93531FFA83F85368C3F30363023B39
:10608000012B07D8C6F30366023E012E8CBF002603
:10609000012600E00026FFF763FD0FFA88F313F5F1
:1060A000007F02D1002ED6D103E0002E08BF4FF4AE
:1060B0007E4800210A46A9F812800120FEF78EFDD5
:1060C0003F4B4FF400121A603E4B1A683AB13E49FA
:1060D0006FF0FF00086001F1007102400A600022C9
:1060E0001A6099F80C3043F0080389F80C3000224C
:1060F00005F00403134319D0A24625F0040BEFF377
:10610000108072B6D9F81C50D9F8183005F0010586
:106110002B43C9F81830FFF723FD00240DB90025E3
:1061200000E0042544EA0A0445EA0B05D9E91523F1
:1061300014401D4054EA050318D0244B2246196828
:1061400048462B46884716494FF0FF334FF0FF3241
:10615000C1E90023134904F008040025C1E9002324
:1061600054EA05031EBF1A4B00221A60FB070BD529
:10617000184A002013681060174A012111701BB1E2
:1061800001B0BDE8F04F184701B0BDE8F08F00BF87
:1061900001001810040000006811002000500840A1
:1061A0003800002040000020001F00210040084669
:1061B000401400203C700844007008400040084033
:1061C000186008444C140020187008443000002067
:1061D000DC11002054140020641600202F4B70B5F1
:1061E0001C682CB12E4B1D6815B12E4B1B682BB9AA
:1061F0002D4B2A221A602D4B1860FEE781B1012930
:106200000DD10E33062033F9021D914205DD013810
:1062100081B288B20029F6D10846013037E02C4619
:10622000B4F900108A4203DC21499142B8BF1146FB
:106230002822A1F1C80393FBF2F31E4A6468157883
:106240005B429BB21AB29542DCBF05F1FF339BB2B1
:1062500018B204EBC00001334288406812FB010011
:1062600020EAE0709BB24FF47A7200F5FA70B0FB4E
:10627000F2F01AB2AA420CDB02F10052013A34F8F1
:106280003230984228BF1846002808BF0120C0B20B
:1062900070BD34F83260B042DAD9EDE75C1400200A
:1062A000581400205014002024000020200000205A
:1062B000C880FFFF65160020FEE70000084B196C40
:1062C00010B500225C6C0A43110A0270120C827035
:1062D000220AC270230E220C41700271437110BD5C
:1062E000B081E00F204BD3F8F82170B510EA020618
:1062F00039D1D3F8FC211D4D03F5FC74A41AA41068
:10630000022C0FD0032C19D0012C6C6814601FD103
:106310001A46596042F8080BC3F8FC21D3F8003242
:10632000082209E06C68146050601A1DC3F8FC2153
:106330001960D3F8003204221A6070BD6C681460D2
:1063400050609160C3F8FC31D3F800321E6070BD1C
:10635000506002F10C00C3F8FC019160D3F80022F8
:1063600013680C33136070BD60140020001000E04F
:106370000EB400B501466420FFF7B4FF5DF804EBEE
:1063800003B0704770B51D46038A0446164623B90C
:10639000C27D003218BF012200E000220A7062B103
:1063A000E27D013AE275204604F110010222FCF779
:1063B00005F9E37D0BB9638A2382228AAA4220462B
:1063C000314628BF2A46FCF7F9F8238A1B1A238294
:1063D000E37D13B9638A1B1A638270BD70B50446EE
:1063E00016461D4611B3FCF7DCF8A38A181A80B2D2
:1063F000012829D9E37D63B1E368628A1A70120A21
:1064000007D02068A18A013301448B4228BF03468C
:10641000F4E700236382A368E360204604F11201DD
:106420000222FFF790FDE37D0133E37520463146FC
:106430002A46FFF788FD638A03446382E37D23B91C
:10644000238A0344238270BD002070BD10B5034C25
:10645000A079FCF7E5F80023236010BD04100020AC
:106460001FB5124C1249A2790092B4F8092001928A
:10647000B4F80D20B4F8073002924FF480500D4A62
:10648000FFF776FFA079B4F80710FCF78DFCA3683E
:10649000094AB4F80D10D184C3F30F239384FCF799
:1064A00039FA0023236004B010BD00BF041000209F
:1064B0007F9B0000DF9B0000A80F00201FB50B4C46
:1064C0000B49E2790092227A0192627A0292A27AD0
:1064D000A37903924FF48050064AFFF749FFA01DAD
:1064E000FCF776FC0023236004B010BD04100020EC
:1064F000B69B0000659B00002DE9F04180460D46EB
:106500001446A4B1EFF3108772B60A4841462A46F2
:106510002346FFF763FF06463846FFF721FB002EB0
:10652000EFD0A41BA4B235444FF00008E9E7BDE862
:10653000F08100BF1C10002013B5002301F10804F6
:10654000ADF80430ADF806002246083252F8101CAF
:1065500021B152F80C1C0B449BB2F6E702A90120B2
:1065600021F8043D04220834FFF7C6FF54F8101C3C
:1065700019B1002034F80C2CF5E702B010BD000072
:106580002DE9F84F424BDFF818A193F80090074629
:106590000D4616469846B9F1000F3ED13D4A3E4C95
:1065A000936C3E489BB29B02A3F580532360936C8F
:1065B0009BB29B02A3F500636360FBF707FE2168B3
:1065C00008200431FBF7EAFD23681B68984208BFE6
:1065D0002368616808BFD3F804904FF0080001F108
:1065E00004010CBF4FF0010BCB46FBF7D7FD6368EE
:1065F0001B68984208D1284B5B685B68994501D2BB
:10660000012305E0002303E0BBF1000FFAD1FF23D3
:106610008AF80030012388F800309AF900305A1CBB
:1066200004D1002030702860BDE8F88F1A4A52F873
:10663000233003F10C084446C4F30A030833B3F5CE
:10664000006FEED2A2884FF6FF739A42E9D0A0798C
:10665000211D0430FBF7A2FD2368984209D1A388CD
:10666000BB4206D1E388337008342C600120BDE8BA
:10667000F88FA379033323F0030308331C4484EA1F
:10668000080323F4FF6323F00703002BD4D0C8E7EB
:10669000A01A0020B081E00F881A002000650800D1
:1066A000480000207FB50E4B02466D4603F11006F0
:1066B000186859682C4603C40833B3422546F7D1FD
:1066C000531E04A90F3211F8014D13F8010F844233
:1066D00003D19342F7D1012000E0002004B070BD47
:1066E000559B000070B51D4D2868002834D11C4C06
:1066F0001C4A1D4B141B1C4424F4FF6424F00704A3
:106700001A4A936C9BB2B4EB832F24D2666B9EB172
:10671000936C9BB2B6EB832F0ED2926C06F13803CA
:1067200092B2B3EB822F07D83046FFF7BBFF18B108
:10673000F36933F0080309D104F1FC00FFF7B2FF5D
:1067400030B1D4F8183133F0080301D02C6002E0E6
:1067500004F50064D4E7286870BD00BF9C1A0020CF
:1067600010000020BC00002077A40000B081E00FE2
:1067700070B50E46B0B9FFF7B5FF0446FFF7B2FF9C
:1067800060B1094D04F1FC0304F59A741868596866
:106790002A4603C20833A3421546F7D1034B3360A0
:1067A0000423B380002070BDA41A0020C41A002066
:1067B0000A4B1A68A2F17E63A3F58433B3F5605FD8
:1067C00009D2126BA2F17E63A3F58433B3F5605F47
:1067D00001D2D36B184740F2011070472808E10F2F
:1067E0000C4B10B51C68A4F17E63A3F58433B3F59C
:1067F000605F0BD2246BA4F17E63A3F58433B3F501
:10680000605F03D2A36BBDE81040184740F201104F
:1068100010BD00BF2808E10F064B1A68A2F17E6385
:10682000A3F58433B3F5605F01D2536A18470020A3
:10683000704700BF2808E10F064B1A68A2F17E637B
:10684000A3F58433B3F5605F01D2136A18474FF4A0
:10685000817070472808E10F064B1A68A2F17E6329
:10686000A3F58433B3F5605F01D2D36918474FF4C1
:10687000817070472808E10F114B196801F17043CE
:1068800003F5F813B3F5006F02D30023037015E08E
:106890000C4B1B68A3F17E62A2F58432B2F5605FF7
:1068A000F3D20968084A9142EFD11968074A914228
:1068B000EBD1012202709A689B6942608360704745
:1068C0002800E10F2808E10FAD1007B007B0CD5E3A
:1068D00010B50C4630B90448FFF7CEFF034B2360D8
:1068E0000423A380002010BDE01A0020E41A002039
:1068F00038B50C680D46A41A8118224601F00FF92C
:106900002C6038BD2DE9F84F4E4C4F4ED4F8009016
:106910004E4B4F4FC9EB00054E483D609B1B034457
:1069200023F4FF6323F007039D428E469446A0465E
:1069300070D3494B9B6C9BB202EB09069B02AC19CE
:10694000A3F580539C4265D2B6F5806F01D98222AF
:1069500073E0DFF818B10BEB090001F0D5F83F4BFD
:10696000C8F80060D3F800A09946BAF1000F1CD116
:10697000B6F5867F63D33A4A0BF1FC030BF5867BB1
:1069800053F8041B42F8041B5B45F9D13448FFF768
:1069900089FE08B9842250E010223248FF2101F01C
:1069A00013F9314A05F1FC03136006F00306A41B3A
:1069B00024F4FF6424F00704BAF1000F07D125F492
:1069C000FF6020F00700C0F50061214405E0A2450A
:1069D0000AD20AF50060CAEB0401FFF7E9FEC9F824
:1069E000004008B1852228E0D8F800201F49386807
:1069F000921BFFF7F5FED8F800203B681149921B67
:106A00000446134419483B60FFF772FF002CE9D19C
:106A1000BDE8F88F164B5B68B3F1827F0CD2F4446B
:106A2000E64507D01EF8013BFF2B1EBF114B83220A
:106A30001A70F5E7BDE8F88F83220E4B1A70BDE897
:106A4000F88F00BF801A002010000020BC0000203A
:106A5000841A002077A40000B081E00F781600208F
:106A6000661600207C1700207C160020801600206F
:106A7000901A0020DC1A00202DE9F7433B4C3B48DC
:106A8000637A0133DBB2272B88BF25236372FBF7C0
:106A90009FF9A17B257B364C36480231FBF774F910
:106AA0006368354A5B7A05F001052846D75CFBF739
:106AB00037F9324B2568D3F8883013F0A00F05F171
:106AC0000C0648D130463946FDF774FD002842D106
:106AD0003046FBF78BFA00283DD1B5F84A3042F238
:106AE000107293429CBFC3F51C501030FCF7CCFAD7
:106AF00006460F46EFF3108972B6DFF89480D8F897
:106B00003031DB0724D4D8F80C5015F006051FD11E
:106B10001B4B1D70FDF7C0FE1A4BC8F86C301A4BAA
:106B2000C8F8705008221A60184A01231360184AE6
:106B30004FF40061516640F6014111670320009354
:106B400032463B46FCF706FB40B90F4B80221A60E9
:106B50004846FFF705F8FBF7CDF88FE74846FEF704
:106B6000FFFF0C4B236103B0BDE8F083EC1A00205B
:106B700040110020F91A00208E9A000000400840C1
:106B8000D21100200000010188400844305108441F
:106B900000500840996B000002282DE9F3410D4692
:106BA0001ED002D8012807D0A5E0032800F09C8061
:106BB000FF2800F099809EE0514C237B980707D571
:106BC000FBF798F8FFF758FF237B6FF3410323731C
:106BD000237B990700F18A80DA0700F18D8085E038
:106BE0008B79CC68DB077FD5227802F00F07032F63
:106BF0005FD0052F78D143498B7B03F00103B3EBC2
:106C0000D21F04F1080077D10831062200F06CFF92
:106C10008046002870D1FBF76DF82E683A4D41464A
:106C20005C22284600F0D0FFAB7E2F8343F0200388
:106C3000AB76627E237E43EA0223AB84627F237FAE
:106C400043EA0223EB8494F82330C3F3040385F86A
:106C50004F3094F82330C3F3421385F8503004F1D9
:106C60001E001B232B85FCF7B3F8D4F80E30E27C12
:106C7000EB60A37C2E6043EA0223227D607D43EA21
:106C800002432B61012795F84F30AB722F75E18AD3
:106C90003944FCF789F8FBF747FDEA8CAB8C1B49BC
:106CA00000924FF400601A4AFFF762FB194B1F7005
:106CB00022E014498B7B03F00103B3EBD21F04F1F4
:106CC000080019D10831062200F00EFFA0B90C4CC3
:106CD00094F8361004F135000231FBF755F8237BA8
:106CE00043F00203237307E0FBF704F802B0BDE8AA
:106CF000F041FFF7C1BEFEE702B0BDE8F08100BF82
:106D0000EC1A002040110020A80F0020069C000073
:106D1000F99B000058110020FEE70000094A0A49CB
:106D200008B5D2F8883043F47003C2F88830074BB6
:106D3000074A8B4204D252F8040F43F8040BF8E7D9
:106D4000F9F70AFA00ED00E0BC0000201000002076
:106D5000349C000008B5FEF78DFD054BD3F80831D3
:106D6000C3F308230133B0FBF3F0024B186008BDF6
:106D700000400E404C00002081F0004102E000BFC6
:106D800083F0004330B54FEA41044FEA430594EAEB
:106D9000050F08BF90EA020F1FBF54EA000C55EA26
:106DA000020C7FEA645C7FEA655C00F0E2804FEAF7
:106DB0005454D4EB5555B8BF6D420CDD2C4480EAD9
:106DC000020281EA030382EA000083EA010180EA09
:106DD000020281EA0303362D88BF30BD11F0004F57
:106DE0004FEA01314FF4801C4CEA113102D040428D
:106DF00061EB410113F0004F4FEA03334CEA1333C8
:106E000002D0524263EB430394EA050F00F0A780DF
:106E1000A4F10104D5F1200E0DDB02FA0EFC22FADA
:106E200005F2801841F1000103FA0EF2801843FACE
:106E300005F359410EE0A5F120050EF1200E012ABF
:106E400003FA0EFC28BF4CF0020C43FA05F3C018FD
:106E500051EBE37101F0004507D54FF0000EDCF176
:106E6000000C7EEB00006EEB0101B1F5801F1BD31F
:106E7000B1F5001F0CD349085FEA30004FEA3C0C23
:106E800004F101044FEA445212F5800F80F09A8019
:106E9000BCF1004F08BF5FEA500C50F1000041EB1D
:106EA000045141EA050130BD5FEA4C0C404141EB21
:106EB000010111F4801FA4F10104E9D191F0000F48
:106EC00004BF01460020B1FA81F308BF2033A3F1CB
:106ED0000B03B3F120020CDA0C3208DD02F1140CC2
:106EE000C2F10C0201FA0CF021FA02F10CE002F1FD
:106EF0001402D8BFC2F1200C01FA02F120FA0CFCF6
:106F0000DCBF41EA0C019040E41AA2BF01EB04513E
:106F1000294330BD6FEA04041F3C1CDA0C340EDC3C
:106F200004F11404C4F1200220FA04F001FA02F37F
:106F300040EA030021FA04F345EA030130BDC4F13D
:106F40000C04C4F1200220FA02F001FA04F340EA32
:106F50000300294630BD21FA04F0294630BD94F0E3
:106F6000000F83F4801306BF81F480110134013DCA
:106F70004EE77FEA645C18BF7FEA655C29D094EA3B
:106F8000050F08BF90EA020F05D054EA000C04BFB9
:106F90001946104630BD91EA030F1EBF00210020A4
:106FA00030BD5FEA545C05D14000494128BF41F043
:106FB000004130BD14F580043CBF01F5801130BDA7
:106FC00001F0004545F0FE4141F470014FF0000032
:106FD00030BD7FEA645C1ABF194610467FEA655CE3
:106FE0001CBF0B46024650EA013406BF52EA033585
:106FF00091EA030F41F4002130BD00BF90F0000F73
:1070000004BF0021704730B54FF4806404F13204AE
:107010004FF000054FF0000150E700BF90F0000F67
:1070200004BF0021704730B54FF4806404F132048E
:1070300010F0004548BF40424FF000013EE700BF5E
:1070400042004FEAE2014FEA31014FEA02701FBFEE
:1070500012F07F4393F07F4F81F06051704792F0C0
:10706000000F14BF93F07F4F704730B54FF460743A
:1070700001F0004521F0004120E700BF50EA010285
:1070800008BF704730B54FF000050AE050EA010232
:1070900008BF704730B511F0004502D5404261EBA2
:1070A00041014FF4806404F132045FEA915C3FF4E3
:1070B000DCAE4FF003025FEADC0C18BF03325FEA7C
:1070C000DC0C18BF033202EBDC02C2F1200300FA31
:1070D00003FC20FA02F001FA03FE40EA0E0021FA56
:1070E00002F11444C1E600BF70B54FF0FF0C4CF440
:1070F000E06C1CEA11541DBF1CEA135594EA0C0FF6
:1071000095EA0C0F00F0DEF82C4481EA030621EA30
:107110004C5123EA4C5350EA013518BF52EA03356B
:1071200041F4801143F4801338D0A0FB02CE4FF01D
:107130000005E1FB02E506F00042E0FB03E54FF04D
:107140000006E1FB03569CF0000F18BF4EF0010E45
:10715000A4F1FF04B6F5007F64F5407404D25FEA41
:107160004E0E6D4146EB060642EAC62141EA5551F4
:107170004FEAC52040EA5E504FEACE2EB4F1FD0C36
:1071800088BFBCF5E06F1ED8BEF1004F08BF5FEAB4
:10719000500E50F1000041EB045170BD06F0004666
:1071A00046EA010140EA020081EA0301B4EB5C0413
:1071B000C2BFD4EB0C0541EA045170BD41F480110B
:1071C0004FF0000E013C00F3AB8014F1360FDEBF30
:1071D000002001F0004170BDC4F10004203C35DA0C
:1071E0000C341BDC04F11404C4F1200500FA05F38F
:1071F00020FA04F001FA05F240EA020001F0004230
:1072000021F0004110EBD37021FA04F642EB0601A5
:107210005EEA430E08BF20EAD37070BDC4F10C04CF
:10722000C4F1200500FA04F320FA05F001FA04F293
:1072300040EA020001F0004110EBD37041F100017F
:107240005EEA430E08BF20EAD37070BDC4F120058A
:1072500000FA05F24EEA020E20FA04F301FA05F2F2
:1072600043EA020321FA04F001F0004121FA04F29A
:1072700020EA020000EBD3705EEA430E08BF20EA6A
:10728000D37070BD94F0000F0FD101F000464000A4
:1072900041EB010111F4801F08BF013CF7D041EA26
:1072A000060195F0000F18BF704703F0004652002A
:1072B00043EB030313F4801F08BF013DF7D043EAFB
:1072C0000603704794EA0C0F0CEA135518BF95EAB1
:1072D0000C0F0CD050EA410618BF52EA4306D1D138
:1072E00081EA030101F000414FF0000070BD50EA57
:1072F000410606BF1046194652EA430619D094EAE1
:107300000C0F02D150EA013613D195EA0C0F05D1CA
:1073100052EA03361CBF104619460AD181EA03011E
:1073200001F0004141F0FE4141F470014FF00000D6
:1073300070BD41F0FE4141F4780170BD70B54FF071
:10734000FF0C4CF4E06C1CEA11541DBF1CEA1355F1
:1073500094EA0C0F95EA0C0F00F0A7F8A4EB0504D3
:1073600081EA030E52EA03354FEA013100F08880CA
:107370004FEA03334FF0805545EA131343EA126393
:107380004FEA022245EA111545EA10654FEA002648
:107390000EF000419D4208BF964244F1FD0404F501
:1073A000407402D25B084FEA3202B61A65EB03055D
:1073B0005B084FEA32024FF480104FF4002CB6EB1A
:1073C000020E75EB030E22BFB61A754640EA0C009A
:1073D0005B084FEA3202B6EB020E75EB030E22BFDA
:1073E000B61A754640EA5C005B084FEA3202B6EB1B
:1073F000020E75EB030E22BFB61A754640EA9C00DA
:107400005B084FEA3202B6EB020E75EB030E22BFA9
:10741000B61A754640EADC0055EA060E18D04FEA67
:10742000051545EA16754FEA06164FEAC30343EA07
:1074300052734FEAC2025FEA1C1CC0D111F4801FD4
:107440000BD141EA00014FF000004FF0004CB6E7CD
:1074500011F4801F04BF01430020B4F1FD0C88BF6C
:10746000BCF5E06F3FF6AFAEB5EB030C04BFB6EB77
:10747000020C5FEA500C50F1000041EB045170BD6A
:107480000EF0004E4EEA113114EB5C04C2BFD4EB97
:107490000C0541EA045170BD41F480114FF0000E1B
:1074A000013C90E645EA060E8DE60CEA135594EA97
:1074B0000C0F08BF95EA0C0F3FF43BAF94EA0C0F9A
:1074C0000AD150EA01347FF434AF95EA0C0F7FF40F
:1074D00025AF104619462CE795EA0C0F06D152EA63
:1074E00003353FF4FDAE1046194622E750EA410647
:1074F00018BF52EA43067FF4C5AE50EA41047FF458
:107500000DAF52EA43057FF4EBAE12E74A0011D209
:1075100012F5001211D20DD56FF47873B3EB6252ED
:107520000ED44FEAC12343F0004343EA505323FAF9
:1075300002F070474FF00000704750EA013002D16E
:107540004FF0FF3070474FF00000704753B94AB911
:10755000002908BF00281CBF4FF0FF314FF0FF305B
:1075600000F03CB882B0EC462DE9005000F01EF867
:10757000DDF804E002B00CBC704700BF2DE9F0411B
:10758000069C154606460F46984600F029F805FB6E
:1075900001F300FB0838A5FB0023B21A434467EB54
:1075A0000303C4E90023BDE8F08100BF2DE9F041E9
:1075B000069C904606460F461D4600F05FF900FB0C
:1075C00005F5A0FB082308FB0155B21A2B4467EB15
:1075D0000303C4E90023BDE8F08100BF704700BF8A
:1075E00000292DE9F043C0F2A6800026002BC0F24E
:1075F0009C80884694469E46154604460F46002BBE
:107600003DD18A4259D9B2FA82F33BB1C3F120028B
:107610009F4020FA02F29D4017439C40290C220C07
:10762000B7FBF1FEA8B201FB1E7742EA074700FB59
:107630000EF3BB420AD97F190EF1FF3280F00581AB
:10764000BB4240F20281AEF1020E2F44FF1AA4B2F7
:10765000B7FBF1F301FB137744EA074700FB03F0A4
:10766000B84208D97F1903F1FF3280F0F080B842A8
:1076700040F2ED80023B43EA0E43002203E08B42DE
:107680000FD900221346341C18BF012460424FF06A
:10769000000565EB45015840514000196941BDE8BE
:1076A000F083B3FA83F2002A40F086808B4202D343
:1076B000844500F2DB800123E5E712B90123B3FB27
:1076C000F2F5B5FA85F000283BD1781B4FEA154E4C
:1076D0001FFA85FC0122B0FBFEF8210C0EFB1807F7
:1076E00041EA07470CFB08F3BB4207D97F1908F1B1
:1076F000FF3102D2BB4200F2BD808846FF1AA4B21D
:10770000B7FBFEF30EFB137744EA07470CFB03FCC1
:10771000BC4507D97F1903F1FF3102D2BC4500F205
:10772000A7800B4643EA0843ADE752426FEA0606DC
:1077300063EB43035DE7404261EB41014FF0FF36ED
:1077400054E7C0F1200224FA02F107FA00F3854061
:107750004FEA154ED7401943B7FBFEF20B0C0EFB58
:1077600012771FFA85FC43EA07430CFB02F79F429E
:1077700004FA00F407D95B1902F1FF3074D29F427A
:1077800072D9023A2B44DF1B89B2B7FBFEF80EFB1D
:10779000187341EA03430CFB08F79F4208D95B19B1
:1077A00008F1FF315CD29F425AD9A8F102082B445C
:1077B000D81B48EA02428EE7C2F120032CFA03F1FB
:1077C0000EFA02FE20FA03F741EA0E0E08FA02F062
:1077D00028FA03F14FEA1E453843B1FBF5F8030CD4
:1077E00005FB18111FFA8EF743EA014107FB08F366
:1077F0008B420CFA02FC09D911EB0E0108F1FF399A
:1078000030D28B422ED9A8F102087144C91A80B235
:10781000B1FBF5F305FB131140EA014107FB03F748
:107820008F4208D911EB0E0103F1FF3016D28F42BF
:1078300014D9023B714443EA0843C91BA3FB0C89DA
:10784000494509D305D000221DE79646FEE61346BA
:1078500011E794404445F6D2013BF4E70346EAE7DA
:107860008846A5E7C846D1E702468CE713460AE7F3
:10787000023B57E7A8F102082F443FE72DE9F0410A
:10788000002B44D18A42154604464FD9B2FA82F7FA
:107890000E464FB1C7F12003B94020FA03F602FAB1
:1078A00007F50E4300FA07F44FEA154E230CB6FB1A
:1078B000FEF0AFB20EFB106143EA014307FB00F19B
:1078C000994209D95B1900F1FF3280F0EC809942AE
:1078D00040F2E98002382B445A1AA4B2B2FBFEF3FC
:1078E0000EFB132244EA024207FB03F7974208D932
:1078F000521903F1FF3180F0D880974240F2D580D1
:10790000023B43EA004000263146BDE8F0818B424D
:1079100047D8B3FA83F6002E48D18B4202D3824275
:1079200000F2CD8001203146BDE8F08112B9012579
:10793000B5FBF2F5B5FA85F8B8F1000F77D14A1B1F
:107940004FEA154EAFB20126B2FBFEF0230C0EFB40
:10795000102143EA014107FB00F38B4207D9491983
:1079600000F1FF3202D28B4200F2BA801046C91AEF
:10797000A4B2B1FBFEF30EFB131144EA014407FB72
:1079800003F7A74208D9641903F1FF3280F08F8012
:10799000A74240F28C80023B43EA00403146BDE8FA
:1079A000F081002630463146BDE8F081C6F1200462
:1079B00022FA04F5B3402B4320FA04FC01FA06F73F
:1079C00021FA04F54FEA134E4CEA0707B5FBFEF81F
:1079D000390C0EFB18551FFA83FC41EA05450CFBD8
:1079E00008F1A94202FA06F204D9ED1808F1FF34B1
:1079F00067D3A0466D1ABFB2B5FBFEF40EFB14555B
:107A000047EA05410CFB04FC8C4504D9C91804F174
:107A1000FF355CD32C4644EA0844CCEB0101A4FBBF
:107A20000223994248D344D0204600266CE7C8F18F
:107A3000200401FA08F305FA08F520FA04F7E140FA
:107A40004FEA154E1F43B1FBFEF63A0C0EFB161122
:107A50001FFA85FC42EA01430CFB06F29A4200FA47
:107A600008F407D95B1906F1FF3137D29A4235D9AC
:107A7000023E2B449B1ABFB2B3FBFEF00EFB103349
:107A800047EA03430CFB00F1994207D95B1900F167
:107A9000FF3221D299421FD902382B445A1A40EAA8
:107AA0000646674650E7104616E70B4629E7134699
:107AB00072E7B0409042B7D2601E002624E73046FD
:107AC00022E7A94295D9A8F102081D4492E78C4506
:107AD000A0D9023C19449EE71046DFE70E46C9E7ED
:107AE0000238294443E700BF10B50A44441E9142BE
:107AF00008D014F8013F0878834201D0181A10BD4D
:107B00000131F4E7002010BD10B5431E0A44914234
:107B100004D011F8014B03F8014FF8E710BD814282
:107B200010B501EB020301D3421E0BE09842FBD2D9
:107B30008118D21AD34204D013F8014D01F8014D37
:107B4000F8E710BD994204D011F8014B02F8014F3B
:107B5000F8E710BD08B5074B044613B10021AFF399
:107B60000080054B1868836A03B198472046FEF7EA
:107B7000A3FB00BF00000000289C000070B50E4B66
:107B80000E4CE41AA41000251E46A54204D056F857
:107B9000253098470135F8E700F01EF8084C094BEE
:107BA000E41AA41000251E46A54204D056F825303C
:107BB00098470135F8E770BDB0000020B000002004
:107BC000B4000020B000002002440346934202D0DB
:107BD00003F8011BFAE77047F8B500BFF8BC08BC12
:107BE0009E467047F8B500BFF8BC08BC9E4670477B
:107BF000B892000002000000B592000002000000F0
:107C0000B29200000200000000000000219300007A
:107C1000100000001093000010000000FF92000010
:107C200010000000EE92000010000000DD92000045
:107C300010000000CC92000010000000BB92000079
:107C4000100000007772697465436D64006174749C
:107C50005F73656E6452656164427947726F7570D7
:107C60005479706552737000726561644279547919
:107C70007065526571000000F8006D23441FEEFF2F
:107C8000F800F20E8E37FAFF7B00A40324A7FFFF53
:107C90004E00D601AD34000025003001004D00003B
:107CA0001300C000CA4A00000B006E00F73C000041
:107CB000060038008A2B00006174745F73656E647F
:107CC00052656164427954797065527370007772BD
:107CD0006974655265710003726561644279477227
:107CE0006F757054797065526571000013B779FA39
:107CF000C925DDB7ADF3CFE0F1B614B8000100003F
:107D00000000000000000000080000000000010169
:107D10000000000000000000000000000000000063
:107D20000000000066696E6442795479706556619E
:107D30006C756552657100009600FCFE787C000051
:107D40008C00FCFE747D00006174745F73656E646A
:107D500046696E64496E666F726D6174696F6E52CA
:107D600073700065786368616E67654D7475526500
:107D700071000000FFFF000000000000FC00D210B6
:107D80004C06FAFF81009B05F132FFFF50006202B2
:107D90000B35000026004B01885F00001800E00052
:107DA0005E5D00000E008C006A4F0000080051006C
:107DB000F73C000083FFBFFFE2FFF1FFF9FFFEFF8A
:107DC00000007265616452657100000008070A00D6
:107DD0006174745F73656E6446696E644279547948
:107DE000706556616C7565527370006174745F7074
:107DF00064750066696E64496E666F726D61746960
:107E00006F6E52657100000000000000000000006D
:107E10000000000000000000000000000000000062
:107E20000000000000000000000000000000000052
:107E30000000000000000000000000000000000042
:107E40000000000000000000000000000000000032
:107E50000000000000000000000000000000000022
:107E60000000000000000000000000000000000012
:107E70000000000000000000000000000000000002
:107E800000000000000000000000000000000000F2
:107E900000000000000000000000000000000000E2
:107EA00000000000000000000000000000000000D2
:107EB00000000000000000000000000000000000C2
:107EC00000000000000000000000000000000000B2
:107ED00000000000000000000000000000000000A2
:107EE0000000000000000000000000000000000092
:107EF0000000000000000000000000000000000082
:107F00000298960302989C0302983C070298FE018F
:107F10000298B8030298DE030298B80302986C0432
:107F20000298FC05029824060298C2030298920661
:107F3000029808070298C8030763076390B963793A
:107F400000B902EC00CD114502EC00CC01DB06715A
:107F500002980C03411103B804D91C720731911225
:107F600010DA087102DD10721C7002B80698B011A8
:107F70003038127208B80698421000C02400084039
:107F8000207800F802EC00CA05B823DAEA7202ECA5
:107F900000C8911110D9167100C1F81E00211411EA
:107FA00011500A7108DB06720AB8CC70076891118B
:107FB000173111402111C0311140011990B8411100
:107FC00008D90471627820D904726578273123DDDD
:107FD0000872C0DA0471607803B841110731087281
:107FE000A1152035927102DD1672A11120D9887178
:107FF000CCDA847206B8054DB27202980C032111D6
:108000004049C0D93471A031411540350165514115
:108010000361076308DA147204DA1E72104901342E
:108020000A7101DB147190B8677800C00D0F0C0D58
:108030000698B21101D8087207B802987600CC32BF
:10804000204A00C0051708500698B21111300142AD
:108050000DDA6871208800C1DE1B250180BC04DABE
:10806000107208DA0A7200C120841000E024A024F3
:10807000FFBB07634143016401DA06711E49024BED
:1080800000C0481F002107633810BC2002DA1271BB
:1080900000B9FF21A11380DB087100C100FCFF01C2
:1080A00018100298980200C3F01E0021341080D8E6
:1080B0004671EFBA06982C0F00920362DDDA9272D5
:1080C000A11101D9327100C23810084024120423D2
:1080D000281302EC00C804D9167104BA18300871CC
:1080E0000060FD20012A02EC00C8FF22FA7604DCC1
:1080F000067218B8737890B8437802980C03069803
:108100007A0900B8011A91101730011900C2020251
:1081100000000698DA0704D9067101B802A800C069
:10812000F01E0021041380DB06710298380001DB89
:108130005E7100C24C1F002124111114FF3402ECA7
:1081400000C8FF24FA7607610698C0110361113850
:108150000F3003611114011141100698C01101D8AC
:10816000087203B802987600042202DB167124100C
:10817000112811280698D41100C218000840FF20C9
:108180000812411007600698C01101D8087120BC80
:1081900010DB067202980C0300BB00C1481F0021CF
:1081A0001415C021112C5112076A0F320E7140882C
:1081B0005114069862034143009451120765036A03
:1081C0000F320E714111511406986203036C414342
:1081D0000765513B00C1041F002114111112311019
:1081E0000F30127100BA046101D8047111420060AD
:1081F0000FD8F472311002601E30047201B8003AD8
:10820000087204B8029876000298A60100C1306195
:1082100008401411076180D91A7102EC1DB002ECFC
:108220001DB1015811288020E02008759112084ADC
:10823000211900C0541F002104110F3103DD1A72EF
:1082400000C000600840041007D80E7200C0104043
:10825000084004B9181000F806982A0F00B84778AB
:1082600000F830885088FF34087102ECFF24F87061
:1082700002EC00CD141001BB5150FFD80471314401
:108280000760006B10DBF2710421FF22E4720F4CD7
:108290000095009300A006987A0900F806987A09DC
:1082A00000C5981F00215415069894050698720C75
:1082B00000C59C1F002100F806987A0906985E0DFB
:1082C000187006987A090E7006987A090698661151
:1082D00006985E0D06986E0606982C0C00F8069817
:1082E0007A0910B902BA0698DC070698940500C509
:1082F0009C1F002100F89112033288B903DE4472FA
:108300007179A11020D80C71069894050698720C0A
:108310006C7000C3F01E0021341380DB1A7100C39F
:10832000A8100840A1141034024C481300BC481394
:108330009114076448138CBB627B40D80671517955
:1083400000BA076A00C0A000084006985004042044
:1083500008780978041121411810911102D90C7282
:1083600000C1681F002106989A0500A006987A09A6
:1083700000BD0698C40A10B903DC047100B902BA42
:108380000698DC0704D9067100404272811008D8B3
:1083900010710698C40A03DC087206984008287019
:1083A0000698B605FFD80E7288B84778457800B8A9
:1083B00044784470911010D80E7100BB00C46C500A
:1083C00008400698140820B802A800F800C0F01E63
:1083D0000021041320DB2071911010D80E7107606A
:1083E000FFD808728CB84478947008DB9072A1139F
:1083F00028DB8A7203BD0698880506985E0D00C5C5
:10840000A01F00210698C40A00BA03DC42720425AA
:1084100000C00C51084006983A09211400C014000D
:1084200008400410026804233411112800C130618F
:1084300008401411076180D90C71911108D9067197
:10844000FC23E025F82334110698EC11412A541539
:10845000212D00C0F8600840041101D9247180204A
:10846000D820041100C0FC0069001050147200C034
:10847000140008400411FB2108760EBA066A212D6B
:108480000698100B02985610911001550335515063
:10849000011900A000C1641F0021141101D9167137
:1084A00000C0246008400412215107610F310769A0
:1084B0001152281000A0811180D9067201B800A0C5
:1084C00000C10C50084014100630307264211412A0
:1084D000EC2114100760076040302072811080D8B2
:1084E000DC711410014A07620360803021508C480F
:1084F0000A717F2155211410013000A006987A09D5
:1085000006985E0D00BD0698880588B847784578BE
:1085100000B8447800C5A81F002154150698100B18
:108520000298561006987A0900C4BC1F0021441412
:108530001DB3315B302C207506981E0900C0600009
:1085400008400410016801D80E7100C064000840A2
:10855000237808B865780698B605FFD8067208B87B
:10856000607800C2000002020698DA0700F800B93D
:1085700000C29C10084018121C220AB9181288BAAE
:10858000911104310472487A507A517A8CB9427947
:1085900000A006987A090698C40A07DC0A7200C58A
:1085A0009C1F002100F806982C0C01B9911004D8EA
:1085B000047100B900C2000002000698DC07004008
:1085C000207100C0F01E0021041120D91471076130
:1085D00001D9E0728110076001D8D8728CB8647834
:1085E00006986E0600C5AC1F0021541500C01C5132
:1085F000084006983A09212D069894050698720CB1
:1086000000C5B01F002100F806987A09811108D929
:108610000C710698400820B802A800F806986E066B
:1086200000BD0698880588B84778457800B8447832
:1086300000C5B41F0021541502985610B1100760F0
:1086400001D80A7108B87F78020C7E7806987A09FA
:108650000698700901F8911010D846710698E00D3F
:108660000698020E0698BA0E00C51C510840541117
:1086700000C5305008405412E82554151159112DE9
:1086800006760122212D00C1FC1E00211411112D9E
:10869000D07518B875788CB8447801B802A800F87D
:1086A000B110076810D8307100C04810084000C3EE
:1086B000000008403114602428244411341107615B
:1086C00001D9FA7144122810076228100762281095
:1086D00007622810E8700298860D0C700698E00A70
:1086E00011380472076A00BB00C1001F002100C4DA
:1086F00040510840141120391C72417B811220DA4C
:108700001272007C00C46C50084000C200000101DD
:10871000281400A00698340800C2F01E002124127C
:1087200040DA0C72617B811220DA0472007C88BA14
:10873000527A00A088BA727A811204DAFC7200A020
:1087400088B86B7800C0640008402F7800A0B11092
:1087500001D8047200A000C02870084004111088DD
:1087600000C1001800401810442004111088A820EF
:10877000041110884CBA757A18103DB11088F4B8FD
:10878000427844207278D8207378E82073784FB20A
:1087900000C4FFFF8080413A4FAA01BC016441132D
:1087A000076300C06C70084003B918100110011075
:1087B00001B91810011001100110011098200411C6
:1087C000076101B80160003A0471044904D90472D8
:1087D00041520760003A0471084908D904723152C5
:1087E0000460003B0E7200630064314241424FAAB4
:1087F000B2704FAA44B801685378F8B85378402053
:10880000527800913DA9009100C0147008401810E2
:108810000091582018100091BC20181000A040248E
:10882000066400C0FFFF0000013C1DB0022001589B
:10883000402806751EAC01EC00A000C2185008408C
:1088400024111DB4111324113051F871066C402409
:1088500004100158112800C3901F002134110698FC
:10886000EC1100B88020013A0662215A412A00A08A
:1088700000C200010840317A00A0009000C6C01F6D
:108880000021008801B007680F305CB111130F336D
:108890000111C0480698CA0A06982E0800C45C1F39
:1088A000002103DD087214BA281400A000BA03DF07
:1088B0001E7100DF06722814311953B080BB006BA3
:1088C00030380A7109DD06710298420F00A0441386
:1088D000281441150698E00A0060B83000C4E01082
:1088E000084044120762013221400824287CF82500
:1088F0005412F03240DE0472404804DB08720DDD91
:108900000C72044BEF3014480698700900888111EE
:1089100040D91E72B1123032CF4A2138B1D812720A
:1089200008D8067104D80A719C24D424237C34709E
:1089300098244412FF32C322047580B8D82481D809
:10894000247140D90472237C084B04BA80DC067180
:1089500080D8367206B904A901D82E72642428245E
:10896000307C4E7008D80C7107BA24D8047106BA4E
:10897000187004D80C7101BA40D80E7102BA0A708E
:1089800005BA20D8047203BAE02444114024181414
:108990000761181491111831114200C1006008409C
:1089A000141110D90471404A2031114228140814BE
:1089B0000090308802480698920F009308DB0471FB
:1089C00000F800A05CB00F3000A01088B11107695A
:1089D00080D90A7100C1800008400811009100A0F0
:1089E00000C400010840441000A000C020300E4028
:1089F000041104101050F47200A000C028400E4072
:108A00000413315107610C3107691153381000A06C
:108A10000698400C00C0F41F002104110698FA0AC1
:108A2000217A237A00C30000100006983A0B00C098
:108A3000701F00211DB1181000A0511400C0B81FF4
:108A400000210410012C0A7500B826A806981E09FA
:108A500000C06C1F00211DB1181028B010B91159A9
:108A600011380EB9114028A880B800C14430084020
:108A7000081100C1F01F00211410303B067107607F
:108A8000076000C40830084044111150FF30015104
:108A900018146FB8076826A8217A050C2110202029
:108AA000267800C063EF0000314026A8050C20ECBA
:108AB000247A20EC217A184826A828B00AB9015156
:108AC0000F31115028A8050C207A20EC0F0C98B813
:108AD00046784178B11080D83E7100C04C300840D3
:108AE00000C16D01000018100D0E0D0E00C0703099
:108AF0000840041130311271082025782478960C32
:108B0000F82004113031F272DC2000C106000000B0
:108B1000181000B918100698EA0A00C2601F002158
:108B200024100151FF311150081200A00698400C8A
:108B300000B826A800C0741F00211DB1181000A0A5
:108B400030B840780DB101D9FC72427800C0743061
:108B50000E4004114CBA407A1810EC2004115C7AD3
:108B60001810A4BB707B4E7B4F7B00C204300840C2
:108B700000A00698400C217A227A00C0801F0021B4
:108B80001DB1181000BB06983A0BA4BB00C04030C2
:108B90000E400411033101492872B11207620762C5
:108BA0003020041121510F3118726E7B6F7BF02041
:108BB00004114CBA7C7A181014200411607A181031
:108BC000B11002D81071707B30B8627860780DB047
:108BD00001D8FC7100C0F8600840041101D90C7183
:108BE00000C01800084002B9181008B86E780EB816
:108BF0004EB110D90C723EA8140C0FB83EA81070DC
:108C000044A8140C01B800C1AC300E40081100C0DB
:108C100077801F003DB201423DAA00C0FFFFFFFC6C
:108C2000013A3DAA140C00C077E01F0001423DAAA2
:108C300051B801687D7808B87E780698340806989F
:108C40004E0806982E08511406981E09F4B8457867
:108C50000A0C00C07C1F00211DB1181000A051B8E3
:108C600001685D7800C00000000344A83EA800C170
:108C7000AC300E40081110B807683DB101393DA96C
:108C800008B86F7800A001F8541000DC12710114CC
:108C900006981E0918B8707800B8417800F8029854
:108CA000A20D0698E00D008800C5601F0021541534
:108CB0005112FF350762FF320698EA0A015951291D
:108CC000047511590090212912750698020E069814
:108CD000BA0E03D80472FF0FCE7018B8727800F87D
:108CE00000C0F41F0021041001D8147150BD069873
:108CF000180F00C3086208402C7B287B00BB1DB402
:108D000000A001D8047200A006981E091DB42824F2
:108D1000408800C00470084004108020FF300672B4
:108D20000298B40E00DF0672011316703111016B48
:108D30001159112B016300C1FF070000113B012BEA
:108D400000C08801000001583128087605B86EBDC2
:108D50002870E820087605B8C8BD1E70DCBDDC2090
:108D6000067606B81470F020067607B80C70E82076
:108D7000067608B8047009B800C1006208401412F1
:108D8000076201DA187110DA08720698180F267057
:108D900008212C79287950BD0698180F07680368B8
:108DA00000C12C60084000C2FF0FFFFF1414213CDB
:108DB0000144481101B8009400A002D8047200A038
:108DC00006981E091DB42824408800C0047008407D
:108DD0000410FF3080DC3C7106980E12015900C26D
:108DE000EC1F0021241550452A71541221100698B9
:108DF0000E1211280A75042554155045EE7200C054
:108E00001C6008447FB906611810113A48B9797995
:108E1000281002B8009400A000C4786008404412F2
:108E20002155FF355152281400A0EBBA00C05C1F39
:108E300000210411113A10D9067118B9747928105B
:108E400000A00698E00A00C46400084091150930AB
:108E50001A7188BB04350C7208D804716C7B2F7CA6
:108E60000A7008D804716F7B217C069866110698F9
:108E7000E00A00C46400084004D8127188BB0435BD
:108E800008726A7B2F7C06706D7B217C0698FA0A3B
:108E900000B8B111076940D906720298401000BCB1
:108EA00008D94071202400C160600840111200DC24
:108EB0000C71A022241210DA10710C70BC22241242
:108EC000076204DA04710421141200C18000084012
:108ED000320C281107622811076228110762281135
:108EE0004B0C00C1541F0021141200DC1C7120D84F
:108EF000087101B806984A10F0DA0C720CDB0871A0
:108F000002B806984A10482400C380000840FFB801
:108F10000120042114111141087101411813082482
:108F2000014200C1383008401411014100C0006006
:108F30000840041030300168014118132813481309
:108F400000B800C1541F0021141203682150F030F2
:108F50000152281100A064BC066C415C512C06989B
:108F60001E0950880698F6030095B110076820D8AE
:108F7000207108B86578911004D8087206984008E6
:108F800000F888B86E7800C064000840217800F8C6
:108F900008B86C7820B85A7859785B7800C0F440EB
:108FA00008407878797800C0E81F0021041040A8B4
:108FB00046A84EB010D844724DB100C09FFFFFFFCD
:108FC000113840B102D90A72604804BB415408709C
:108FD000204802BB02BC4DA8F8B87078190C3EB10D
:108FE00041413EA9F4B973797378717800C4F840AF
:108FF000084000C200410840227000C20000010089
:1090000044AA230C00C200000B0044AA00C4104173
:10901000084000C21841084004BB587C050C597C2C
:109020000C240F0C2FAB050CB11008D81471647A06
:10903000657A1CB879787B7820B879787B78607C01
:10904000F424411306987009511406981E09727B86
:1090500053B80168050C687840EC00C0781F002107
:109060001DB1181000F8015053A800C0B8600840A6
:1090700004110761076180D9047240EC00C4F84014
:1090800008404EB010D80471182441130C23527CB0
:10909000407B11512FA9050C797C0A0C00C00000FF
:1090A00001020814787C050C507C08B86D7800A08B
:1090B000115910D906710760076008D9047107605B
:1090C00004D90471036002D90471016001D90471EB
:1090D000006000A01088041102300671076107616A
:1090E00000C0FFFF00001138009100A000C2FFFF88
:1090F00000002138213900BA01D806710148112A2F
:109100000069006001D8F6720138F67200A0802074
:10911000FF30FF48812000A0010001000000930003
:109120006174745F73656E644572726F72527370AE
:10913000006174745F73656E6445786368616E671F
:10914000654D7475527370000201060A0900417082
:10915000704C6F6164657200081B00020A010025F3
:1091600073286F70436F64653D30782530327829FD
:109170000A00257328666F726D61743D25642C208A
:1091800068616E646C653D3078253034782C2074CD
:10919000797065290A0025732873746172743D30F3
:1091A00078253034782C20656E643D307825303455
:1091B000782C206C656E6774683D2564290A00254B
:1091C000732868616E646C653D3078253034782C86
:1091D00020656E6448616E646C653D30782530347E
:1091E00078290A002573286C656E6774683D2564CC
:1091F000290A0025732868616E646C653D30782506
:109200003034782C206C656E6774683D2564290ABB
:1092100000257328290A0025732868616E646C652F
:109220003D3078253034782C20656E643D307825CB
:109230003034782C206C656E6774683D2564290A8B
:10924000002573286F70436F64653D307825303298
:10925000782C2068616E646C653D307825303478F8
:109260002C206572726F72436F64653D30782530D3
:109270003278290A002573286D74753D2564290A02
:109280000025732873746172743D3078253034780A
:109290002C20656E643D307825303478290A00250D
:1092A000732868616E646C653D30782530347829A8
:1092B0000A00022900052A00011800F8927AAC96EB
:1092C000CDA9BFF249C14A11CC770D00FE5A24E165
:1092D0002BAAA5B2E94617E90A5CF0250016531E31
:1092E000C44CBAAD9D324B6808CF7BC04C009F3E4A
:1092F000E22E0ECFFFBF1E45CA8C68234A4F005393
:10930000A1811F582CD0A54540FC34F3274298007A
:10931000636032E0375EA488534E6DFB6435BFF75F
:1093200000F01921B4478FA4BFA14F63FDEED614FE
:109330001D006174745F73656E6457726974655261
:109340007370006174745F73656E6452656164521A
:1093500073700000F01F03013F00370000000000A1
:109360004C95000004000200018101000001000092
:1093700018000200000000000100000028000700A3
:1093800000000000000000000000000000000000DD
:109390000000000000000000A007000048000100DD
:1093A0000000000054000200000000000000000067
:1093B000A0000400FF4C0000FF4C0000FF4D000027
:1093C000FF4D0000002001000807000010200100F0
:1093D000AAAAAA00182001000060DA0008300100E3
:1093E00013AC000130300200E3381000010000002F
:1093F0004030010000000000A04001007A27000F6B
:10940000B840010000C08300F440010020100000BB
:109410003441020080080000E6870000404102005D
:109420006D008800C0E6524D60410400000000005D
:1094300000000000060000000600000014600800A4
:1094400010000000000000C61FC00100C85000004E
:109450000080000000000003000000000000000089
:109460005060060018000500410C000008000000D4
:1094700091000400294176710000000078600C0022
:109480008C000C000000000014001A000000000016
:109490000000000001040B192C404C59605B53473D
:1094A00036251B114AF3389667452312110900002F
:1094B000E46007008F0846CB000000002308640426
:1094C000D007CB4891200600F9541C008294EA870B
:1094D0000461030051551100B01B000089BB00005E
:1094E00020610100FFDF000030610800E853FA004E
:1094F000000000000000000000000000000000006C
:1095000000000000000000000100000014700700CF
:10951000F8700200000300006000A5830000000056
:109520008200000000008001D500000048700200A9
:109530003C3D0000BC1900007070030005410000B4
:109540000F9C030006E04900FFFFFFFF030000003F
:109550001CC7710000000000F59800001099000081
:109560000000000018CC660080DE800203000000CE
:10957000388EE30000000000DC9800002C9600000C
:1095800000000000E070720080DE8002BC960000E7
:10959000A89600009C950000060000000000000056
:1095A000809C2B8F80841E00000023002300B600C7
:1095B0001400002000000000809C2B8F80841E007F
:1095C0000000240024009D00140000200000000082
:1095D000809C2B8F80841E000000250025007D00CC
:1095E0001400002000000000809C2B8F80841E004F
:1095F0000000260026005300140000200000000098
:10960000809C2B8F80841E000000000022002C0113
:109610001400002000000000809C2B8F80841E001E
:109620000000270027002C0114000020C05D00006E
:1096300000000000B80B000000002800000000003F
:10964000000000000000000000000000809C2B8F44
:1096500080841E00000025002500B40018000020B2
:1096600000000000809C2B8F80841E0000002600DC
:10967000260099001800002000000000809C2B8F1D
:1096800080841E000000000024002C01180000202F
:1096900000000000809C2B8F80841E0000002700AB
:1096A00027002C0118000020FFFFFFFF2573287002
:1096B00068793D307825303278290A00F01F03019F
:1096C0003F003700000000006C950000040002001D
:1096D00001810100000100001800020000000000EC
:1096E000010000002800070000000000000000004A
:1096F000000000000000000000000000000000006A
:10970000A007000048000100000000005400020013
:109710000000000000000000A0000400FF4C00005A
:10972000FF4C0000FF4D0000FF4D00000020010035
:109730000807000010200100AAAAAA0018200100B2
:109740000060DA000830010013AC00013030020084
:10975000114910000100000040300100000000002D
:10976000A04001007A27000FB840010000C0E300CC
:10977000F440010020100000344102008008000085
:10978000E687000040410200EA008800C0E6524D32
:10979000604104000000000000000000060000001E
:1097A000060000001460080010000000000000C661
:1097B0001FC00000C850000000D0320000000003AD
:1097C000000000000000000050600600FC0069007E
:1097D000410C0000000000001100080029417671D2
:1097E0000000000078600C00080400000000000089
:1097F000BE031A00000000000000000001040C1A63
:109800002F4653616862584935201407C491A063FC
:109810005644332322529224E46007008108A1CBEE
:1098200000000000198407059411CB489920060018
:10983000016120008294EA870461030065B611008B
:109840001E37000089BB000020610100FFDF00001F
:1098500030610800E853FA0000000000000000003A
:1098600000000000000000000000000000000000F8
:109870000100000014700700F872020000030000ED
:1098800060002784000000008200000000008001CA
:10989000D5000000487002003C3D0000BC190000EB
:1098A00070700300C30000000F9C030006E0490035
:1098B000FFFFFFFF70687955706461746550726FC7
:1098C000636564757265000054930000D8980000C9
:1098D0004896000004000000FFFFFFFF183F01064C
:1098E000041001000001010600102700000C000018
:1098F0000000000000183F010604100100000101F3
:109900000600102700000C0000000000000000000E
:10991000349E000000000000171100000000280025
:109920000000000000000000000000003F9900005F
:10993000020000003C99000002000000002A000024
:1099400018000028000000004299000002000000FA
:109950005465726D696E616C0052545400534547F2
:1099600047455200032800006499000002000000EF
:109970006C656E67746852657100636F6E6E5F74BC
:1099800065726D696E617465006C6C63705F7064A4
:1099900075007465726D696E617465496E64002549
:1099A0007328726561736F6E3D3078253032782987
:1099B0000A002573286F70636F64653D2530327827
:1099C000290A00257328696E7374616E743D2564DD
:1099D000290A002573286572726F72436F64653DB2
:1099E0002564290A002573286665617475726553BC
:1099F00065743D30782530386C6C78290A00257301
:109A0000286D617852784F63746574733D25642CBA
:109A1000206D6178527854696D653D25642C206D08
:109A2000617854784F63746574733D25642C206DA0
:109A3000617852784F63746574733D2564290A0018
:109A400025732874785068793D3078253032782C29
:109A50002072785068793D307825303278290A00B4
:109A60002573286D32735068793D3078253032780F
:109A70002C2073326D5068793D3078253032782C47
:109A800020696E7374616E743D2564290A000102B9
:109A9000030405060708090A0B0D0E0F1011121317
:109AA0001415161718191A1B1C1D1E1F20212223FE
:109AB000242526000C276368616E6E656C4D61700D
:109AC000496E6400636F6E6E656374696F6E557086
:109AD00064617465496E640070687955706461747E
:109AE00065496E64006665617475726552657100E2
:109AF0007068795265710000000008400000002184
:109B0000000001020203030303636F6E6E5F64696A
:109B100073636F6E6E656374000302010A0B0302C8
:109B2000060A0B040302000040787D0100000000DB
:109B3000005A620200010000C0CF6A00020000006B
:109B4000809FD50002010000406F4001020200002A
:109B50000302010A0BB814B6F1E0CFF3ADB7DD256F
:109B6000C9FA79B7136368616E6E656C4D617055A3
:109B7000706461746550726F636564757265002509
:109B8000732877696E4F66667365743D25642C2073
:109B900077696E53697A653D25642C20696E74651A
:109BA0007276616C3D25642C2074696D656F7574E7
:109BB0003D2564290A002573286368616E6E656C13
:109BC0004D61703D253032782025303278202530A7
:109BD000327820253032782025303278290A006307
:109BE0006F6E6E656374696F6E55706461746550F5
:109BF000726F63656475726500636F6E6E5F636F2D
:109C00006E6E65637400257328696E746572766183
:109C10006C3D25642C2074696D656F75743D2564F9
:109C2000290A00430000000050000020000000004E
:109C30002865FF7F0100000005050000FFFFFFFF12
:109C4000FFFFFFFFFF000000FFFFFFFFFFFFFFFF21
:109C5000FF000000893F0000455F0000C0CF6A00A0
:109C6000FFFFFFFFFFFFFFFFFFFFFFFFFFFFFFFF04
:109C7000FF000000C0EA2101000000000000000019
:109C800000000000000000000000000000000000D4
:109C90000000000000000000239C00000000000005
:109CA00000000000000000000000000000000000B4
:109CB00000000000000000000000000000000000A4
:109CC0000000000000000000000000000000000094
:109CD000000000000000000021010000FD00000065
:109CE00000000000FFFFFFFFFFFFFFFFFFFFFFFF80
:109CF000FFFFFFFFFFFFFFFFFFFFFFFFFFFFFFFF74
:109D0000FFFFFFFFFFFFFFFFFFFFFFFFFFFFFFFF63
:109D1000FFFFFFFFFFFFFFFFFFFFFFFFFFFFFFFF53
:109D2000FFFFFFFFFFFFFFFFFFFFFFFFFFFFFFFF43
:10A00000000800205FEC02000F1A01001F2201006F
:10A010006F320100F33401009B36010000000000A4
:10A02000000000000000000000000000A336010056
:10A030000737010000000000873701009F3701004B
:10A040007B080100E9750100277F0100D798010016
:10A05000F171010031760100EF750100F175010029
:10A06000EB750100C39E0100DB9E0100F39E010021
:10A070000B9F0100239F01003B9F0100539F0100A4
:10A080006B9F0100839F01009B9F0100B39F010014
:10A090001BA50100A3B20100F7C40100D3C5010054
:10A0A00073C701001BC8010063C901001BCD01007B
:10A0B00033760100ED750100A5B201005FCF01000C
:10A0C0006B76010093DF0100D5EB020073E1010024
:10A0D000EB2402009B2B0200A72C02004B2D020058
:10A0E000DF37020057430200035A0200CF5B020031
:10A0F000E35B0200277402000000000013B779FA46
:10A10000C925DDB7ADF3CFE0F1B614B8000100000A
:10A11000000000000000000020000000010000001E
:10A12000000000000000000000000000000000002F
:10A13000000000000000000000000000000000001F
:10A14000000000000000000000000000000000000F
:10A1500000000000000000000000000000000000FF
:10A1600000000000000000000000000000000000EF
:10A1700000000000000000000000000000000000DF
:10A1800000000000000000000000000000000000CF
:10A1900000000000000000000000000000000000BF
:10A1A00000000000000000000000000000000000AF
:10A1B000000000000000000000000000000000009F
:10A1C000000000000000000000000000000000008F
:10A1D000000000000000000000000000000000007F
:10A1E000000000000000000000000000000000006F
:10A1F000000000000000000000000000000000005F
:10A200000298960302989C0302983C070298FE016C
:10A210000298B8030298DE030298B80302986C040F
:10A220000298FC05029824060298C203029892063E
:10A23000029808070298C8030763076390B9637917
:10A2400000B902EC00CD114502EC00CC01DB067137
:10A2500002980C03411103B804D91C720731911202
:10A2600010DA087102DD10721C7002B80698B01185
:10A270003038127208B80698421000C02400084016
:10A28000207800F802EC00CA05B823DAEA7202EC82
:10A2900000C8911110D9167100C1F81E00211411C7
:10A2A00011500A7108DB06720AB8CC700768911168
:10A2B000173111402111C0311140011990B84111DD
:10A2C00008D90471627820D904726578273123DDBA
:10A2D0000872C0DA0471607803B84111073108725E
:10A2E000A1152035927102DD1672A11120D9887155
:10A2F000CCDA847206B8054DB27202980C032111B3
:10A300004049C0D93471A0314115403501655141F2
:10A310000361076308DA147204DA1E72104901340B
:10A320000A7101DB147190B8677800C00D0F0C0D35
:10A330000698B21101D8087207B802987600CC329C
:10A34000204A00C0051708500698B211113001428A
:10A350000DDA6871208800C1DE1B250180BC04DA9B
:10A36000107208DA0A7200C120841000E024A024D0
:10A37000FFBB07634143016401DA06711E49024BCA
:10A3800000C0481F002107633810BC2002DA127198
:10A3900000B9FF21A11380DB087100C100FCFF019F
:10A3A00018100298980200C3F01E0021341080D8C3
:10A3B0004671EFBA06982C0F00920362DDDA9272B2
:10A3C000A11101D9327100C23810084024120423AF
:10A3D000281302EC00C804D9167104BA18300871A9
:10A3E0000060FD20012A02EC00C8FF22FA7604DC9E
:10A3F000067218B8737890B8437802980C030698E0
:10A400007A0900B8011A91101730011900C202022E
:10A4100000000698DA0704D9067101B802A800C046
:10A42000F01E0021041380DB06710298380001DB66
:10A430005E7100C24C1F002124111114FF3402EC84
:10A4400000C8FF24FA7607610698C011036111382D
:10A450000F3003611114011141100698C01101D889
:10A46000087203B802987600042202DB16712410E9
:10A47000112811280698D41100C218000840FF20A6
:10A480000812411007600698C01101D8087120BC5D
:10A4900010DB067202980C0300BB00C1481F0021AC
:10A4A0001415C021112C5112076A0F320E71408809
:10A4B0005114069862034143009451120765036AE0
:10A4C0000F320E714111511406986203036C41431F
:10A4D0000765513B00C1041F0021141111123110F6
:10A4E0000F30127100BA046101D80471114200608A
:10A4F0000FD8F472311002601E30047201B8003AB5
:10A50000087204B8029876000298A60100C1306172
:10A5100008401411076180D91A7102EC1DB002ECD9
:10A520001DB1015811288020E02008759112084AB9
:10A53000211900C0541F002104110F3103DD1A72CC
:10A5400000C000600840041007D80E7200C0104020
:10A55000084004B9181000F806982A0F00B8477888
:10A5600000F830885088FF34087102ECFF24F8703E
:10A5700002EC00CD141001BB5150FFD804713144DE
:10A580000760006B10DBF2710421FF22E4720F4CB4
:10A590000095009300A006987A0900F806987A09B9
:10A5A00000C5981F00215415069894050698720C52
:10A5B00000C59C1F002100F806987A0906985E0DD8
:10A5C000187006987A090E7006987A09069866112E
:10A5D00006985E0D06986E0606982C0C00F80698F4
:10A5E0007A0910B902BA0698DC070698940500C5E6
:10A5F0009C1F002100F89112033288B903DE4472D7
:10A600007179A11020D80C71069894050698720CE7
:10A610006C7000C3F01E0021341380DB1A7100C37C
:10A62000A8100840A1141034024C481300BC481371
:10A630009114076448138CBB627B40D80671517932
:10A6400000BA076A00C0A000084006985004042021
:10A6500008780978041121411810911102D90C725F
:10A6600000C1681F002106989A0500A006987A0983
:10A6700000BD0698C40A10B903DC047100B902BA1F
:10A680000698DC0704D9067100404272811008D890
:10A6900010710698C40A03DC0872069840082870F6
:10A6A0000698B605FFD80E7288B84778457800B886
:10A6B00044784470911010D80E7100BB00C46C50E7
:10A6C00008400698140820B802A800F800C0F01E40
:10A6D0000021041320DB2071911010D80E71076047
:10A6E000FFD808728CB84478947008DB9072A1137C
:10A6F00028DB8A7203BD0698880506985E0D00C5A2
:10A70000A01F00210698C40A00BA03DC4272042587
:10A7100000C00C51084006983A09211400C01400EA
:10A7200008400410026804233411112800C130616C
:10A7300008401411076180D90C71911108D9067174
:10A74000FC23E025F82334110698EC11412A541516
:10A75000212D00C0F8600840041101D92471802027
:10A76000D820041100C0FC0069001050147200C011
:10A77000140008400411FB2108760EBA066A212D48
:10A780000698100B02985610911001550335515040
:10A79000011900A000C1641F0021141101D9167114
:10A7A00000C0246008400412215107610F3107697D
:10A7B0001152281000A0811180D9067201B800A0A2
:10A7C00000C10C500840141006303072642114127D
:10A7D000EC2114100760076040302072811080D88F
:10A7E000DC711410014A07620360803021508C48EC
:10A7F0000A717F2155211410013000A006987A09B2
:10A8000006985E0D00BD0698880588B8477845789B
:10A8100000B8447800C5A81F002154150698100BF5
:10A820000298561006987A0900C4BC1F00214414EF
:10A830001DB3315B302C207506981E0900C06000E6
:10A8400008400410016801D80E7100C0640008407F
:10A85000237808B865780698B605FFD8067208B858
:10A86000607800C2000002020698DA0700F800B91A
:10A8700000C29C10084018121C220AB9181288BA8B
:10A88000911104310472487A507A517A8CB9427924
:10A8900000A006987A090698C40A07DC0A7200C567
:10A8A0009C1F002100F806982C0C01B9911004D8C7
:10A8B000047100B900C2000002000698DC070040E5
:10A8C000207100C0F01E0021041120D9147107610D
:10A8D00001D9E0728110076001D8D8728CB8647811
:10A8E00006986E0600C5AC1F0021541500C01C510F
:10A8F000084006983A09212D069894050698720C8E
:10A9000000C5B01F002100F806987A09811108D906
:10A910000C710698400820B802A800F806986E0648
:10A9200000BD0698880588B84778457800B844780F
:10A9300000C5B41F0021541502985610B1100760CD
:10A9400001D80A7108B87F78020C7E7806987A09D7
:10A950000698700901F8911010D846710698E00D1C
:10A960000698020E0698BA0E00C51C5108405411F4
:10A9700000C5305008405412E82554151159112DC6
:10A9800006760122212D00C1FC1E00211411112D7B
:10A99000D07518B875788CB8447801B802A800F85A
:10A9A000B110076810D8307100C04810084000C3CB
:10A9B0000000084031146024282444113411076138
:10A9C00001D9FA7144122810076228100762281072
:10A9D00007622810E8700298860D0C700698E00A4D
:10A9E00011380472076A00BB00C1001F002100C4B7
:10A9F00040510840141120391C72417B811220DA29
:10AA00001272007C00C46C50084000C200000101BA
:10AA1000281400A00698340800C2F01E0021241259
:10AA200040DA0C72617B811220DA0472007C88BAF1
:10AA3000527A00A088BA727A811204DAFC7200A0FD
:10AA400088B86B7800C0640008402F7800A0B1106F
:10AA500001D8047200A000C02870084004111088BA
:10AA600000C1001800401810442004111088A820CC
:10AA7000041110884CBA757A18103DB11088F4B8DA
:10AA8000427844207278D8207378E82073784FB2E7
:10AA900000C4FFFF8080413A4FAA01BC016441130A
:10AAA000076300C06C70084003B918100110011052
:10AAB00001B91810011001100110011098200411A3
:10AAC000076101B80160003A0471044904D90472B5
:10AAD00041520760003A0471084908D904723152A2
:10AAE0000460003B0E7200630064314241424FAA91
:10AAF000B2704FAA44B801685378F8B85378402030
:10AB0000527800913DA9009100C0147008401810BF
:10AB10000091582018100091BC20181000A040246B
:10AB2000066400C0FFFF0000013C1DB00220015878
:10AB3000402806751EAC01EC00A000C21850084069
:10AB400024111DB4111324113051F871066C4024E6
:10AB500004100158112800C3901F002134110698D9
:10AB6000EC1100B88020013A0662215A412A00A067
:10AB700000C200010840317A00A0009000C6C01F4A
:10AB80000021008801B007680F305CB111130F334A
:10AB90000111C0480698CA0A06982E0800C45C1F16
:10ABA000002103DD087214BA281400A000BA03DFE4
:10ABB0001E7100DF06722814311953B080BB006B80
:10ABC00030380A7109DD06710298420F00A0441363
:10ABD000281441150698E00A0060B83000C4E0105F
:10ABE000084044120762013221400824287CF825DD
:10ABF0005412F03240DE0472404804DB08720DDD6E
:10AC00000C72044BEF3014480698700900888111CB
:10AC100040D91E72B1123032CF4A2138B1D81272E7
:10AC200008D8067104D80A719C24D424237C34707B
:10AC300098244412FF32C322047580B8D82481D8E6
:10AC4000247140D90472237C084B04BA80DC06715D
:10AC500080D8367206B904A901D82E72642428243B
:10AC6000307C4E7008D80C7107BA24D8047106BA2B
:10AC7000187004D80C7101BA40D80E7102BA0A706B
:10AC800005BA20D8047203BAE024441140241814F1
:10AC90000761181491111831114200C10060084079
:10ACA000141110D90471404A20311142281408149B
:10ACB0000090308802480698920F009308DB0471D8
:10ACC00000F800A05CB00F3000A01088B111076937
:10ACD00080D90A7100C1800008400811009100A0CD
:10ACE00000C400010840441000A000C020300E4005
:10ACF000041104101050F47200A000C028400E404F
:10AD00000413315107610C3107691153381000A049
:10AD10000698400C00C0F41F002104110698FA0A9E
:10AD2000217A237A00C30000100006983A0B00C075
:10AD3000701F00211DB1181000A0511400C0B81FD1
:10AD400000210410012C0A7500B826A806981E09D7
:10AD500000C06C1F00211DB1181028B010B9115986
:10AD600011380EB9114028A880B800C144300840FD
:10AD7000081100C1F01F00211410303B067107605C
:10AD8000076000C40830084044111150FF300151E1
:10AD900018146FB8076826A8217A050C2110202006
:10ADA000267800C063EF0000314026A8050C20EC97
:10ADB000247A20EC217A184826A828B00AB9015133
:10ADC0000F31115028A8050C207A20EC0F0C98B8F0
:10ADD00046784178B11080D83E7100C04C300840B0
:10ADE00000C16D01000018100D0E0D0E00C0703076
:10ADF0000840041130311271082025782478960C0F
:10AE0000F82004113031F272DC2000C1060000008D
:10AE1000181000B918100698EA0A00C2601F002135
:10AE200024100151FF311150081200A00698400C67
:10AE300000B826A800C0741F00211DB1181000A082
:10AE400030B840780DB101D9FC72427800C074303E
:10AE50000E4004114CBA407A1810EC2004115C7AB0
:10AE60001810A4BB707B4E7B4F7B00C2043008409F
:10AE700000A00698400C217A227A00C0801F002191
:10AE80001DB1181000BB06983A0BA4BB00C040309F
:10AE90000E400411033101492872B11207620762A2
:10AEA0003020041121510F3118726E7B6F7BF0201E
:10AEB00004114CBA7C7A181014200411607A18100E
:10AEC000B11002D81071707B30B8627860780DB024
:10AED00001D8FC7100C0F8600840041101D90C7160
:10AEE00000C01800084002B9181008B86E780EB8F3
:10AEF0004EB110D90C723EA8140C0FB83EA81070B9
:10AF000044A8140C01B800C1AC300E40081100C0B8
:10AF100077801F003DB201423DAA00C0FFFFFFFC49
:10AF2000013A3DAA140C00C077E01F0001423DAA7F
:10AF300051B801687D7808B87E780698340806987C
:10AF40004E0806982E08511406981E09F4B8457844
:10AF50000A0C00C07C1F00211DB1181000A051B8C0
:10AF600001685D7800C00000000344A83EA800C14D
:10AF7000AC300E40081110B807683DB101393DA949
:10AF800008B86F7800A001F8541000DC12710114A9
:10AF900006981E0918B8707800B8417800F8029831
:10AFA000A20D0698E00D008800C5601F0021541511
:10AFB0005112FF350762FF320698EA0A01595129FA
:10AFC000047511590090212912750698020E0698F1
:10AFD000BA0E03D80472FF0FCE7018B8727800F85A
:10AFE00000C0F41F0021041001D8147150BD069850
:10AFF000180F00C3086208402C7B287B00BB1DB4DF
:10B0000000A001D8047200A006981E091DB42824CF
:10B01000408800C00470084004108020FF30067291
:10B020000298B40E00DF0672011316703111016B25
:10B030001159112B016300C1FF070000113B012BC7
:10B0400000C08801000001583128087605B86EBD9F
:10B050002870E820087605B8C8BD1E70DCBDDC206D
:10B06000067606B81470F020067607B80C70E82053
:10B07000067608B8047009B800C1006208401412CE
:10B08000076201DA187110DA08720698180F267034
:10B0900008212C79287950BD0698180F0768036895
:10B0A00000C12C60084000C2FF0FFFFF1414213CB8
:10B0B0000144481101B8009400A002D8047200A015
:10B0C00006981E091DB42824408800C0047008405A
:10B0D0000410FF3080DC3C7106980E12015900C24A
:10B0E000EC1F0021241550452A7154122110069896
:10B0F0000E1211280A75042554155045EE7200C031
:10B100001C6008447FB906611810113A48B9797972
:10B11000281002B8009400A000C4786008404412CF
:10B120002155FF355152281400A0EBBA00C05C1F16
:10B1300000210411113A10D9067118B97479281038
:10B1400000A00698E00A00C4640008409115093088
:10B150001A7188BB04350C7208D804716C7B2F7C83
:10B160000A7008D804716F7B217C069866110698D6
:10B17000E00A00C46400084004D8127188BB04359A
:10B1800008726A7B2F7C06706D7B217C0698FA0A18
:10B1900000B8B111076940D906720298401000BC8E
:10B1A00008D94071202400C160600840111200DC01
:10B1B0000C71A022241210DA10710C70BC2224121F
:10B1C000076204DA04710421141200C180000840EF
:10B1D000320C281107622811076228110762281112
:10B1E0004B0C00C1541F0021141200DC1C7120D82C
:10B1F000087101B806984A10F0DA0C720CDB08717D
:10B2000002B806984A10482400C380000840FFB8DE
:10B21000012004211411114108710141181308245F
:10B22000014200C1383008401411014100C00060E3
:10B2300008400410303001680141181328134813E6
:10B2400000B800C1541F0021141203682150F030CF
:10B250000152281100A064BC066C415C512C069878
:10B260001E0950880698F6030095B110076820D88B
:10B27000207108B86578911004D8087206984008C3
:10B2800000F888B86E7800C064000840217800F8A3
:10B2900008B86C7820B85A7859785B7800C0F440C8
:10B2A00008407878797800C0E81F0021041040A891
:10B2B00046A84EB010D844724DB100C09FFFFFFFAA
:10B2C000113840B102D90A72604804BB4154087079
:10B2D000204802BB02BC4DA8F8B87078190C3EB1EA
:10B2E00041413EA9F4B973797378717800C4F8408C
:10B2F000084000C200410840227000C20000010066
:10B3000044AA230C00C200000B0044AA00C4104150
:10B31000084000C21841084004BB587C050C597C09
:10B320000C240F0C2FAB050CB11008D81471647AE3
:10B33000657A1CB879787B7820B879787B78607CDE
:10B34000F424411306987009511406981E09727B63
:10B3500053B80168050C687840EC00C0781F0021E4
:10B360001DB1181000F8015053A800C0B860084083
:10B3700004110761076180D9047240EC00C4F840F1
:10B3800008404EB010D80471182441130C23527C8D
:10B39000407B11512FA9050C797C0A0C00C00000DC
:10B3A00001020814787C050C507C08B86D7800A068
:10B3B000115910D906710760076008D90471076038
:10B3C00004D90471036002D90471016001D90471C8
:10B3D000006000A010880411023006710761076147
:10B3E00000C0FFFF00001138009100A000C2FFFF65
:10B3F00000002138213900BA01D806710148112A0C
:10B400000069006001D8F6720138F67200A0802051
:10B41000FF30FF48812000A086040000002801289A
:10B4200003280018002A012A0A18292A09181C2AA8
:10B430001D2A1E2A212A0218062A0118052A022975
:10B44000F01921B4478FA4BFA14F63FDEED6141DA0
:10B45000636032E0375EA488534E6DFB6435BFF7FE
:10B4600008070000000000001300081D00636032A0
:10B47000E0375EA488534E6DFB6435BFF7000000D3
:10B480001000F01921B4478FA4BFA14F63FDEED681
:10B49000141D0000040601007B4F00200500041A63
:10B4A00000062A000200021808050200E40C002031
:10B4B0000500081700212A0010040D007C4D002013
:10B4C00005001014001E2A0002030100EF0C0020EA
:10B4D00005000212001D2A0020020D008C4D0020E4
:10B4E0000500200F001C2A00020009180C005369F7
:10B4F0006C69636F6E204C61627300000500020C82
:10B5000000292A0002000A180200000305000209AF
:10B5100000012A000A010700B408002005000A07FC
:10B5200000002A000200001820000400A04E0020A5
:10B530000500200300052A00020001180000010890
:10B54000FFFF000038B5000002000108FFFF000007
:10B5500030B5000010000008FFFF000128B5000012
:10B5600011000708FFFF00030200000000000108AF
:10B57000FFFF000024B5000002000108FFFF0000EB
:10B580001CB5000004000308FFFF000114B5000013
:10B5900002000108FFFF00000CB5000005000108D3
:10B5A000FFFF000008B5000000000108FFFF0000D9
:10B5B00004B5000002000108FFFF0000FCB4000019
:10B5C00007000108FFFF0000ECB4000000000108C4
:10B5D000FFFF0000E8B4000002000108FFFF0000C8
:10B5E000E0B4000009000008FFFF0001D8B400002B
:10B5F00011000708FFFF000302020100020001081A
:10B60000FFFF0000D0B400000A000108FFFF0001A6
:10B61000C8B4000002000108FFFF0000C0B4000031
:10B620000B000008FFFF0001B8B40000110007087C
:10B63000FFFF00030104020002000108FFFF0000F9
:10B64000B0B400000C000208FFFF0001A8B4000025
:10B6500000000108FFFF0000A4B400000200010880
:10B66000FFFF00009CB400000E000408FFFF000173
:10B6700094B4000000000108FFFF000080B4000047
:10B6800002000108FFFF000068B40000018002080A
:10B69000FFFF000760B40000030007000F00120066
:10B6A000140017001A001D00091802183CB500000C
:10B6B0001D000000120000001CB400000200000089
:10B6C00040B400000800000098B60000A8B60000D2
:10B6D000020000006EDD020000000000FFFFFFFF1F
:10B6E000000000000000000000000000000000005A
:10B6F00000040A0A04030606080200000000000015
:10B700000E040E1F081F0C1F0E0E00001000010E6D
:10B710000E0E0F0E071F1F0E110E1C110111110E20
:10B720000F0E0F1E1F11111111111F0E000E04001C
:10B730000200010010000C000104080106000000D6
:10B7400000000000020000000000000C04060000E1
:10B750000000000000040A0A1E1309040404040483
:10B7600000000000110611080C010210111106065C
:10B770000800021110111111090101111104080929
:10B78000011B1111111111010411111111111002DC
:10B7900000080A00040001001000121E0100000150
:10B7A0000400000000000000020000000000000291
:10B7B000040802000000000000040A1F010805023E
:10B7C0000208150400000010190410040A0F0108F3
:10B7D00011110606041F04101011110111010101BD
:10B7E0001104080501151311111111010411111192
:10B7F0000A11080201081100080E0D0E160E0211A2
:10B800000D060C09040B0D0E0F160D0E071111116C
:10B8100011111F0204081500000000000004000AB6
:10B820000E04020002080E1F001F0008150408087D
:10B8300009100F040E1E00000200080816110F0167
:10B84000110F0F1D1F040803011515110F110F0E05
:10B8500004111115040A040202080000001013016B
:10B8600019110711130408050415131111191301F7
:10B87000021111110A110801041008000000000053
:10B880000000001F10021500020815040600000445
:10B89000130404101F10110211100606041F0404E3
:10B8A000151F1101110101111104080501111911D0
:10B8B00001150510041111150A0402020408000004
:10B8C000001E1101111F021E11040803041511119D
:10B8D0000F1E010E02111115041E040204080000BF
:10B8E000000000000000000A0F190900040404040D
:10B8F00004000602110402110811110211080604C5
:10B9000008000200151111110901011111040909A2
:10B91000011111110109091004110A151104010284
:10B92000080800000011111111010210110409058D
:10B93000041111110110011012190A150A10020246
:10B9400004080000000000000004000A04181600AB
:10B9500008020000020006010E0E1F0E080E0E0265
:10B960000E060002100001040E110F0E071F010E3B
:10B97000110E06111F11110E0116110F040E040AEB
:10B9800011041F0E100E001F001E0F0E1E0E020EC1
:10B99000110E06090E11110E0110010F0C16040AEA
:10B9A000110E1F0C04060000000000000000000043
:10B9B0000000000000000000000000000000000087
:10B9C0000000000000000000000000000000000077
:10B9D0000000000000000000000000000000000067
:10B9E0000000000000000000000000000000000057
:10B9F0000000000000000000000000000000000047
:10BA00000000000000000000000000000000000036
:10BA1000F0B60000200301640608020001000000E7
:10BA200000186C6C10CE3808600C0000000000009C
:10BA30007C307C7CC6FE7CFE7C7C000070001C7C24
:10BA40007C7C7E7C7EFEFE7CC63C78C606C6C67CC0
:10BA50007E7C7E7C7EC6C6C6C6C6FE7C007C100090
:10BA60000C00060060003800060000060C00000014
:10BA700000000000000000000000003018188C00DA
:10BA80000000000000186CFEFC6A2C1830186C18BE
:10BA9000000000C0C638C6C6C606C6C0C6C618184E
:10BAA000387C38C6C6C6C6C6C60606C6C6183066C0
:10BAB00006EECEC6C6C6C6C618C6C6C6C6C6C00C24
:10BAC000066038000C00060060000C000618300606
:10BAD0000C0000000000000018000000000000182A
:10BAE0001830D60000000000001848FE162E2C1852
:10BAF0001830381800000060C63060C0C606066006
:10BB0000C6C618181C7C70C6F6C6C606C60606064B
:10BB1000C618303606FEDEC6C6C6C60618C6C6C677
:10BB20006CC6600C0C606C00043C3E3C7C3C3C3CB5
:10BB30003E0000660C6E3E3C3E3C363C186666C6D7
:10BB400066667E1818306200000000000018006C65
:10BB50007C10DC001830FE7E1C7E0030C630307059
:10BB6000FE7E7E307CFC00000E00E070F6FE7E065D
:10BB7000C61E1EF6FE18301E06D6F6C67EC67E7C93
:10BB800018C6C6D638FC300C1860C60000606606C1
:10BB900066660C66661830360CD6666666666E0695
:10BBA0007C6666C63C66300C006000000000000049
:10BBB000000000FED0E866001830387E1C7E1C189D
:10BBC000C63018C0C0C0C618C6C018181C7C70305B
:10BBD00076C6C606C60606C6C618303606C6E6C609
:10BBE00006B6C6C018C6C6FE6CC0180C3060000091
:10BBF000007C6606667E0C7C6618301E0CD6666677
:10BC00003E56063C186666D6187C18181830000098
:10BC100000000000001800FE7EAC660030186C18B2
:10BC200018001C0CC6300CC6C0C6C60CC6C61818F8
:10BC3000387C380006C6C6C6C60606C6C6183666AE
:10BC400006C6C6C60666C6C618C66CEEC6C00C0CCE
:10BC5000606000FE0066660666060C606618363692
:10BC60000CC666660626066018663CD63C600C1854
:10BC700018300000000000000018006C10E6DC0026
:10BC8000600C00180C001C067C78FE7CC07C7C06D6
:10BC90007C7C000C70001C307CC67E7C7EFE06FC2A
:10BCA000C63C1CC6FEC6C67C06DCC67C187C38C6F4
:10BCB000C67EFE7CC07C00FE007C3E3C7C3C0C3E94
:10BCC00066701C6638C6663C065C063E707C18FCD6
:10BCD000663E7E30181800000000000000000000E2
:10BCE0000000000000000000000000000000000054
:10BCF0000000000000000000000000000000000044
:10BD00000000000000000000000000000000000033
:10BD10000000000000000000000000000000000023
:10BD20000000000000000000000000000000000013
:10BD30000000000000000000000000000000000003
:10BD400020BA00002003016408080200010000007E
:10BD500040787D0100000000005A620200010000EE
:10BD6000C0CF6A0002000000809FD50002010000E1
:10BD7000406F4001020200000809110801000000A4
:10BD800000000000040000000100000008000000A6
:10BD90000100000010000000010000000001000090
:10BDA00001000000000800001D000000000200006B
:10BDB0001D000000000400001D0000000000010044
:10BDC0001D0000005368617270204C5330313342C3
:10BDD00037444830332023310000000005000000C4
:10BDE0000000000040420F000501000000000000BC
:10BDF00000000000050000000000000040420F00AD
:10BE0000050100000000000000000000010000002B
:10BE10000500000000000000050000000400000014
:10BE200005000000050000000A482054204D202F86
:10BE3000204B204520592046204F20420A0A4D2001
:10BE40004F204420450A0000424725303575000048
:10BE50004661696C656420746F2064657465637401
:10BE60000A7369373032312073656E736F722E003A
:10BE700053494C49434F4E204C41424F5241544F3D
:10BE8000524945530A426C7565746F6F746820534C
:10BE90006D6172742044656D6F0A0A426C7565208D
:10BEA0004765636B6F202325303575200A0A000033
:10BEB0000A42204520412043204F204E0A0A4D20AF
:10BEC0004F204420450A00000A54656D7065726178
:10BED000747572653A0A202533642E253164204337
:10BEE000202F202533642E25316420460A000000CF
:10BEF0000A416C657274206C6576656C3A0A0A4E6C
:10BF00006F20416C6572740A000000000A416C6584
:10BF10007274206C6576656C3A0A0A4C4F570A00B9
:10BF20000A416C657274206C6576656C3A0A0A4841
:10BF30004947480A0000000000C00040020A020B06
:10BF40000E1000000000000060670100000000000B
:10BF5000000108070F000A00C8002000A00001002F
:10BF600001000000050000000000000000000000CB
:10BF70000000000000000000A00068010A20070681
:10BF8000020A040700000000000207004F544100AD
:10BF9000000000000400000004000000F819002068
:10BFA000A81964000000000000000000ACB600000A
:10BFB0000000000000000000010000000000000080
:10BFC000030000008CBF0000000000000200000021
:10BFD000006A180006010C00000006010D000000B8
:10BFE000000005000300020001000000FC00D80A68
:10BFF000066CFBFF9D00370518E2FEFF7500040389
:10C00000F5E3FFFF4900B9019D43000035005701EA
:10C01000F85700001600D100585700000E007C00B1
:10C02000D049000008004B0028390000F8006C0BD4
:10C0300078DEFAFF9F00F1044EEAFEFF7500DF0292
:10C0400048DEFFFF4C00C3018D33000024001901BE
:10C05000E44B00001300AC00904A00000C006C00A0
:10C06000B13F00000700430046320000C800FCFE5C
:10C070002CC00000C800FCFEECBF000083FFBFFF27
:10C08000E2FFF1FFF9FFFEFF00000000FFFF0000EC
:10C0900000000000FC00D2104C06FAFF81009B0556
:10C0A000F132FFFF500062020B35000026004B0109
:10C0B000885F00001800E0005E5D00000E008C004C
:10C0C0006A4F000008005100F73C0000F8006D23A3
:10C0D000441FEEFFF800F20E8E37FAFF7B00A40338
:10C0E00024A7FFFF4E00D601AD340000250030012B
:10C0F000004D00001300C000CA4A00000B006E0093
:10C10000F73C0000060038008A2B00009600FCFE79
:10C11000CCC000008C00FCFE8CC0000083FFBFFF81
:10C12000E2FFF1FFF9FFFEFF000000000100000048
:10C13000040000000100000004000000F401000001
:10C14000FA00000096000000640000004B000000B0
:10C15000320000001E00000014000000000000007B
:10C1600001010000010100003C0094003C00960029
:10C1700000000000000109000001100000000000A4
:10C180000100020015005400A9005301A7024F0549
:10C190009F0A00001FD501006FD501007BD501006B
:10C1A0000000000000280000000000000200000065
:10C1B0000000000000280000000000001000000047
:10C1C000000000005000400028000100000850005E
:10C1D00024001800010000049001500278010100C1
:10C1E00000409001AE01780101000010000102043E
:10C1F000131510801B801280800000000F0E0C08A9
:10C200000C080D1810000000349E00000000000013
:10C2100017110000000028000000000000000000CE
:10C220000000000000000000809C2B8F80841E0016
:10C23000000025002500B4002409002000000000B3
:10C24000809C2B8F80841E00000026002600990011
:10C250002409002000000000809C2B8F80841E0099
:10C260000000000024002C01240900200000000030
:10C27000809C2B8F80841E000000270027002C014B
:10C2800024090020C05D000000000000B80B000081
:10C290000000280000000000000000000000000076
:10C2A00000000000809C2B8F80841E000000230073
:10C2B0002300B6002809002000000000809C2B8F7E
:10C2C00080841E000000240024009D002809002016
:10C2D00000000000809C2B8F80841E000000250041
:10C2E00025007D002809002000000000809C2B8F85
:10C2F00080841E000000260026005300280900202C
:10C3000000000000809C2B8F80841E000000000035
:10C3100022002C012809002000000000809C2B8FA7
:10C3200080841E000000270027002C01280900201F
:10C33000FBD9020000000000E718000000007801AF
:10C3400000000000000000000000000000000000ED
:10C35000809C2B8F80841E000000000027008C0032
:10C360002C090020FBD9020000000000E7180000A3
:10C370000000780100000000000000000000000044
:10C380005CC80000809C2B8F80841E000000000091
:10C3900027008C0034090020EBBE000000000000E4
:10C3A000E718000000007801000000000000000015
:10C3B0000000000020C80000809C2B8F80841E009D
:10C3C0000000000027008C0030090020EBBE0000B8
:10C3D00000000000E71800000000780100000000E5
:10C3E000000000000000000094C80000809C2B8F1B
:10C3F00080841E000000000027008C003809002007
:10C400006C888391AAF5A53860370BDB5A6083BE30
:10C410003F49F6D4A3C55F3874C9B3E3D2103F5087
:10C420004AFF607BEB40B7995899B8A6CD3C1ABD3E
:10C43000E69D350E480103CCDBFDF4AC1191F4EF21
:10C44000B9A5F9E9A7832C5E2CBE97F2D203B020E0
:10C450008BD28915D08E1C742430ED8FC245637643
:10C460005C15525ABF9A32636DEB2A65499C80DC99
:10C4700000000100010000010001020203000200AF
:10C4800000000000020201000200000000000100A4
:10C490000100050100050202030002000000000087
:10C4A000020501000500000000000F400000000030
:10C4B00000040F4001000000000001020200000023
:10C4C000183F0106041001000001010600102700BA
:10C4D000000C00000000000000000000183F0106F2
:10C4E000041001000001010600102700000C0000EC
:10C4F0000000000000000000183F010604100100C9
:10C500000001010600102700000C000000000000E0
:10C5100000000000183F01060410010000010106A0
:10C5200000102700000C00000000000000000000C8
:10C53000183F010604100100000101060010270049
:10C54000000C00000000000000000000183F010681
:10C55000041001000001010600102700000C00007B
:10C560000000000000000000030000001CC7710074
:10C5700000000000C0C4000008C20000000000006D
:10C5800018CC660080DE800203000000388EE300D5
:10C5900000000000DCC4000084C2000000000000B5
:10C5A000E070720080DE8002030000000000800066
:10C5B00000000000F8C4000030C3000000000000CC
:10C5C000201089000048E8010300000000008000FE
:10C5D0000000000014C5000098C300000000000027
:10C5E000201089000048E8010300000000008000DE
:10C5F0000000000030C5000064C30000000000001F
:10C60000201089000048E8010300000000008000BD
:10C61000000000004CC50000CCC30000000000007A
:10C62000201089000048E801F01F03013F00370097
:10C6300000000000A8C50000040002000181010004
:10C6400000010000180002000000000001000000CE
:10C6500028000700000000000000000000000000AB
:10C6600010000000000000003C4A002020070000ED
:10C670004800010000040000540002000D0F0000FB
:10C6800001010000A000040003C00100FF4C0000F5
:10C69000FF4D0000FF4D00000020010008070000D2
:10C6A00010200100AAAAAA00182001000060DA00E8
:10C6B0000830010013AC000130300200F93D1000D9
:10C6C000010000004030010000000000A040010017
:10C6D0007A27000FB840010000C08300F440010039
:10C6E000201000003441020080080000E6870000AE
:10C6F00040410200E9008800C0E6524D604104005C
:10C70000000000000000000006000000060000001D
:10C710001460080010000000300000461F080400EC
:10C72000C820001000500A000000000300000000B4
:10C73000000000005060060018000500000A00001C
:10C740000A00800011000A002941767100000000F3
:10C7500078600C000F0400000000000014001200BC
:10C760005B948C1B0000000001040B192C404C59F9
:10C77000605B534736251B114AF3389667452312F1
:10C7800011090000E46007008208BA8C0000000074
:10C7900064048207AC0DCB0C90200600F9541C00F9
:10C7A00082940AC704610300C7EF1100A01B0000B8
:10C7B0000A88000020610100FFDF000030610800EE
:10C7C0004CD4E83304196F00080E141A20262C32BA
:10C7D000383E10325476980A1D5F000001000000B8
:10C7E00014700700F8700200000300006000A583C9
:10C7F000000000008200000000008001D500000061
:10C80000487002003C3D0000BC190000707003003D
:10C81000060102000F9C030006E04900FFFFFFFF36
:10C82000F01F03013F00370000000000C8C50000F2
:10C8300028000700000000000000000000000000C9
:10C8400010000000000000003C4A002020170000FB
:10C850004800010001040000FFFFFFFFF01F03017B
:10C860003F00370000000000E8C50000306108000C
:10C870004CD4E83B04196F00080E141A20262C3201
:10C88000383E10325476980A1D5F00000100000007
:10C89000FFFFFFFFF01F03013F0037000000000013
:10C8A00008C600002800070000000000000000008B
:10C8B0000000000010000000000000003C4A0020C2
:10C8C000201700004800010001040000306108004A
:10C8D0004CD4E83B04196F00080E141A20262C32A1
:10C8E000383E10325476980A1D5F000001000000A7
:10C8F000FFFFFFFFF01F03013F00370000000000B3
:10C9000068C5000004000200018101000001000070
:10C9100018000200000000000100000028000700CD
:10C920000000000000000000000000000000000007
:10C930000000000000000000A00700004800010007
:10C940000000000054000200000000000000000091
:10C95000A0000400FF4C0000FF4C0000FF4D000051
:10C96000FF4D00000020010008070000102001001A
:10C97000AAAAAA00182001000060DA00083001000D
:10C9800013AC000130300200E33810000100000059
:10C990004030010000000000A04001007A27000F95
:10C9A000B840010000C08300F440010020100000E6
:10C9B0003441020080080000E68700004041020088
:10C9C0006D008800C0E6524D604104000000000088
:10C9D00000000000060000000600000014600800CF
:10C9E00010000000000000C61FC00100C850000079
:10C9F00000800000000000030000000000000000B4
:10CA00005060060018000500410C000008000000FE
:10CA100091000400294176710000000078600C004C
:10CA20008C000C000000000014001A000000000040
:10CA30000000000001040B192C404C59605B534767
:10CA400036251B114AF33896674523121109000059
:10CA5000E46007008F0846CB000000002308640450
:10CA6000D007CB4891200600F9541C008294EA8735
:10CA70000461030051551100B01B000089BB000088
:10CA800020610100FFDF000030610800E853FA0078
:10CA90000000000000000000000000000000000096
:10CAA00000000000000000000100000014700700FA
:10CAB000F8700200000300006000A5830000000081
:10CAC0008200000000008001D500000048700200D4
:10CAD0003C3D0000BC1900007070030005410000DF
:10CAE0000F9C030006E04900FFFFFFFFFFFFFFFF71
:10CAF000F01F03013F0037000000000088C5000060
:10CB00000400020001810100000100001800020081
:10CB100000000000010000002800070000000000E5
:10CB20000000000000000000000000000000000005
:10CB300000000000A0070000480001000000000005
:10CB4000540002000000000000000000A0000400EB
:10CB5000FF4C0000FF4C0000FF4D0000FF4D0000A7
:10CB6000002001000807000010200100AAAAAA0066
:10CB7000182001000060DA000830010013AC000149
:10CB80003030020011491000010000004030010067
:10CB900000000000A04001007A27000FB84001000B
:10CBA00000C0E300F4400100201000003441020006
:10CBB00080080000E687000040410200EA0088008B
:10CBC000C0E6524D6041040000000000000000007B
:10CBD00006000000060000001460080010000000BD
:10CBE000000000C61FC00000C850000000D0320086
:10CBF000000000030000000000000000506006007C
:10CC0000FC006900410C0000000000001100080059
:10CC1000294176710000000078600C0008040000D3
:10CC200000000000BE031A00000000000000000029
:10CC300001040C1A2F4653616862584935201407C5
:10CC4000C491A0635644332322529224E460070027
:10CC50008108A1CB00000000198407059411CB487E
:10CC600099200600016120008294EA870461030094
:10CC700065B611001E37000089BB0000206101006D
:10CC8000FFDF000030610800E853FA0000000000F8
:10CC90000000000000000000000000000000000094
:10CCA000000000000100000014700700F87202008C
:10CCB00000030000600027840000000082000000E4
:10CCC00000008001D5000000487002003C3D0000DB
:10CCD000BC19000070700300C30000000F9C03002B
:10CCE00006E04900FFFFFFFFFFFFFFFFFFFFFFFF21
:10CCF000FFFFFFFFFFFFFFFF00000000000000003C
:10CD00000000000001000000FFFFFFFF4B60D22782
:10CD10003E3CCE3BF6B053CCB0061D65BC86987643
:10CD200055BDEBB3E7933AAAD835C65A96C298D800
:10CD30004539A1F4A033EB2D817D0377F240A46344
:10CD4000E5E6BCF847422CE1F2D1176BF551BF374D
:10CD50006840B6CBCE5E316B5733CE2B169E0F7C20
:10CD60004AEBE78E9B7F1AFEE242E34F512563FCBC
:10CD7000C2CAB9F3849E17A7ADFAE6BCFFFFFFFF56
:10CD8000FFFFFFFF00000000FFFFFFFF4145532DA5
:10CD90003132382D454342004145532D3139322D32
:10CDA000454342004145532D3235362D454342001F
:10CDB0004145532D3132382D435452004145532DB6
:10CDC0003139322D435452004145532D3235362DE1
:10CDD000435452000200000077EC02007BEC02009A
:10CDE00097EC020093EC02009BEC0200B5EC020011
:10CDF00002010000800000008CCD00001000000047
:10CE00000000000010000000D4CD0000030100006D
:10CE1000C000000098CD00001000000000000000DD
:10CE200010000000D4CD000004010000000100004B
:10CE3000A4CD000010000000000000001000000061
:10CE4000D4CD00000B05000080000000B0CD000034
:10CE5000100000000000000010000000D4CD000011
:10CE60000C050000C0000000BCCD00001000000058
:10CE70000000000010000000D4CD00000D050000EF
:10CE800000010000C8CD00001000000000000000FC
:10CE900010000000D4CD000002000000F0CD000022
:10CEA000030000000CCE00000400000028CE0000AB
:10CEB0000B00000044CE00000C00000060CE00001B
:10CEC0000D0000007CCE000000000000000000000B
:10CED00010B4040C0C70040A1470187010BC704765
:10CEE00070B586B00400002C01D1052029E0002097
:10CEF00060607FF07F40A060684600F07CF905002C
:10CF0000002D01D028001CE0009820600E480FC8BA
:10CF100001AE86E80F0000980088401E039000983C
:10CF20004088401E049001A9200000F011F805007F
:10CF3000002D01D0280004E00449200000F051FC3D
:10CF4000280006B070BD0000E0B6000040BD000043
:10CF50007FB504000D00002C01D0002D01D105206B
:10CF60002EE02868A968884203DA6868E968884280
:10CF700001DB042024E0286800280ED4686800281B
:10CF80000BD420680088401EA968884205DB206811
:10CF90004088401EE968884201DA032010E02868D2
:10CFA000009068680190A8680290E868039068465D
:10CFB0000FC814F10C0686E80F00200000F03CF8C2
:10CFC00004B070BDFEB50400002C01D1052023E0A3
:10CFD00002AB0DF109020DF10A01606800F044F89E
:10CFE000200000F01AF80700002F01D0380013E0ED
:10CFF00020680089050020684089060006FB05F0CE
:10D0000001909DF8080000909DF809309DF80A20D5
:10D010000021002000F02EF9FEBD10B50400002C08
:10D0200001D1052007E0206843882068028800219C
:10D03000002000F0EDF810BD10B50400002C01D167
:10D04000052010E0A0692169401A431C9BB2606969
:10D05000E168401A421C92B22069010089B2E0687E
:10D0600080B200F0D5F810BDF8B504000D00160030
:10D070001F003B00320029002000FFF729FFF1BD0F
:10D0800070B584B004000D001600002C01D10520FD
:10D0900021E03200290014F10C0000F0C2FB00284E
:10D0A00001D1012017E002AB0DF109020DF10A01D7
:10D0B000A068FFF70DFF012001909DF80800009087
:10D0C0009DF809309DF80A203000010089B228003F
:10D0D00080B200F0CFF804B070BDFEB504000D00C2
:10D0E00016001F00002C01D1052021E0320029008C
:10D0F00014F10C0000F095FB002801D1012017E08D
:10D1000002AB0DF109020DF10A013800FFF7E0FE54
:10D11000012001909DF8080000909DF809309DF8CD
:10D120000A203000010089B2280080B200F0A2F885
:10D13000FEBD002A30B583B00400DFF86804007833
:10D14000002801D0002055E000F07EFB0500002DF6
:10D1500001D028004EE0DFF85014002000F08BFBD7
:10D160000500002D01D0280044E0DFF8400400F065
:10D170008BF90500002D01D028003BE0DFF82C04DE
:10D180000068002801D10B2034E0DFF81C0440685F
:10D19000DFF81C140880DFF81004C068DFF81014F2
:10D1A00048800020DFF8081488800020DFF8001491
:10D1B000C880DFF8FC030088DFF8F4130881DFF88B
:10D1C000F0034088DFF8E81348810120DFF8D4132A
:10D1D0000870DFF8DC030088DFF8D413498848437F
:10D1E000019000200090002300220021002000F088
:10D1F00041F800203EBD0100DFF8A80300780028B8
:10D2000001D1012003E0DFF8A80308600020704787
:10D2100030B40400DFF88C030078002801D101202D
:10D2200026E0DFF88C03008892B212FA84F5A84257
:10D2300007DBDFF87C0340889BB213FA81F5A84234
:10D2400001DA042014E092B2002A02D09BB2002B33
:10D2500001D105200CE0DFF858038480DFF850038B
:10D26000C180DFF84C030281DFF8440343810020D2
:10D2700030BC70472DE9FC4F87B080460D00139EEF
:10D28000DFF820030078002801D10120F9E0DFF861
:10D290001C030068002801D10120F2E0DFF8080338
:10D2A000407C002801D00A20EBE00024DFF8F802DF
:10D2B0008068C0080390DFF8F802C0884519DFF8DD
:10D2C000EC020068ADB2039901FB05F1084404903B
:10D2D000002E00F0D580DFF8D80200891FFA88F808
:10D2E000B0EB0800B04206D2B14800891FFA88F8B6
:10D2F000B0EB080A00E0B246B6EB0A06AC488088FC
:10D3000010EB08080498039901FB04F108448346D4
:10D31000A548007C0028012800F29A809DF8200092
:10D32000002801D0002700E0FF279F48007C01284B
:10D3300001D1FFB2FF43BAF1080F35D21AFA88FAC9
:10D34000FFB2002F18D01FFA88F8D04580F07F80F8
:10D350001FFA88F85FEAE8001BF80000012118F0C6
:10D360000702914008431FFA88F85FEAE8010BF8CA
:10D37000010018F10108E6E71FFA88F8D04566D2E7
:10D380001FFA88F85FEAE8001BF80000012118F096
:10D390000702914088431FFA88F85FEAE8010BF81A
:10D3A000010018F10108E7E71FFA88F818F00700F4
:10D3B00002901FFA88F85FEAE80083440298002888
:10D3C0001BD09BF800008146012002998840401E36
:10D3D0008DF800009DF8000010EA09099DF8000092
:10D3E00037EA000050EA09098BF800901BF1010BA5
:10D3F0000298D0F10800BAEB000A5FEADA00019067
:10D40000019800280CD001980590FFB23A000599C8
:10D41000584600F085FA0198BAEBC00A0198834497
:10D42000BAF1000F13D09BF800008146012010FADA
:10D430000AF0401E8DF800009DF8000039EA00094E
:10D440009DF80000384050EA09098BF80090FFE78A
:10D45000584814FA85F14911564A14FA85F35B11BC
:10D4600052F82320012314EB050C1CF01F0C13FAB7
:10D470000CF31A4340F8212000208046641C27E763
:10D48000002009B0BDE8F08FF8B50400474B4648CE
:10D49000C268454841684448434DAD69A847434880
:10D4A0000068002801D10B200BE040480068206094
:10D4B0001025FF263F4F32002900380000F030FAD7
:10D4C0000020F2BD2DE9F04F85B037488068C008D4
:10D4D0000390384807685FF001080020050000202D
:10D4E000040060193049C968884230D2F80701D574
:10D4F000641C1FE0002C1CD02C480068039901FB21
:10D5000005F10844029001940095274843680022E1
:10D5100002992548DFF890C0DCF820C0E0470600FB
:10D52000002E01D0300038E0601C451900200400B6
:10D5300000E06D1C601910F01F0F01D07F08D0E7CC
:10D540001C4850F82800070018F10108C9E7002C12
:10D5500017D016480068039901FB05F108440290B2
:10D560000194009510484368002202990E48DFF8A4
:10D5700038C0DCF820C0E0470600002E01D03000A3
:10D580000BE05FF010095FF0000ADFF828B05246A8
:10D590004946584600F0C4F9002005B0BDE8F08FB8
:10D5A00000000000724F0020E04A0020744E00206E
:10D5B0004C4D00206C4D00202DE9F64F83B0040047
:10D5C0001D005FF0000B002C01D10520B8E09DF894
:10D5D0000C00202803DB9DF80C007F2801DB0220D3
:10D5E000AEE094F82800022810D19DF80C003038E5
:10D5F00007009DF80C003A2801D10A2007009DF889
:10D600000C00202806D10B20070003E09DF80C0039
:10D6100020380700208C401EBFB2B84201DA022039
:10D620008EE0E0690290E0690190E06900900020DE
:10D630008046404694F8251080B289B2884279D25B
:10D6400094F82200012802D0022805D00AE00298AE
:10D65000BFB2C05D81460AE00198BFB230F8170042
:10D66000814604E00098BFB250F8270081460020B0
:10D670008246504694F8241080B289B2884231D252
:10D680005FEAC97011D515FA88F2049810FA8AF188
:10D690002000FFF7F5FC0600022E01D330004FE01A
:10D6A000002E18D11BF1010B15E09DF83800002861
:10D6B00011D0636815FA88F2049810FA8AF12000F4
:10D6C000FFF70BFD0600022E01D3300038E0002EDC
:10D6D00001D11BF1010B1FFA89F95FEA59091AF10F
:10D6E000010AC6E71FFA8AFA94F8240094F8271072
:10D6F0000818824518DA9DF83800002811D06368B0
:10D7000015FA88F2049810FA8AF12000FFF7E5FC78
:10D710000600022E01D3300012E0002E01D11BF1D1
:10D72000010B1AF1010ADDE794F823003F1818F104
:10D7300001087EE7BBF1000F01D1012000E00020CD
:10D7400005B0BDE8F08F2DE9F44F82B004000D0064
:10D750001E005FF00008002C01D0002D01D1052033
:10D760003DE094F82800002801D1022037E0B246BD
:10D770000C988346002081460298814529D215F8ED
:10D7800009000A2808D1B24694F8250094F826101A
:10D79000081810EB0B0B19E09DF8340000905B4665
:10D7A000524615F809102000FFF706FF0700022F68
:10D7B00001D3380013E0002F01D118F1010894F8CB
:10D7C000240094F82710081810EB0A0A19F101092F
:10D7D000D2E7B8F1000F01D1012000E00020BDE840
:10D7E000FE8F2DE9F04104000D00002C01D1052031
:10D7F00015E0002D0AD11026002714F11C083A006C
:10D800003100404600F08CF8052008E0102614F1A5
:10D810001C0732002900380000F0B6F80020BDE8EF
:10D82000F0810300002B0BD01868814208DB986858
:10D83000884205DB5868824202DBD868904201DAF0
:10D84000002000E00120704738B52E4D2E480078AA
:10D8500000280ED101202C4908702868002808D023
:10D86000286880470400002C01D0200002E02D1D14
:10D87000F3E7002032BD2DE9F04104000D002248FD
:10D880000078002802D12148060012E0012C0EDAAF
:10D890002C2720482C2101FB04F100EB01083A0061
:10D8A0004146280000F070F80020060001E01A4808
:10D8B00006003000BDE8F081F8B504001248007899
:10D8C000002802D1114805001AE01148006801281B
:10D8D00014DA2C260F480E4909682C22514300EB1C
:10D8E00001070B480068401C09490860320021000C
:10D8F000380000F049F80020050001E00748050065
:10D900002800F2BD40080020754F0020050011805E
:10D91000904E00200C4B002002001180010011806D
:10D9200062F30F2262F31F42401810F0030308D085
:10D93000C91A1FD3DB0748BF00F8012D28BF20F804
:10D94000022D130030B414461546103928BF20E9C3
:10D950003C00FAD8490728BF20E90C0048BF40F82E
:10D96000042D890028BF20F8022D48BF00F8012DA2
:10D9700030BC7047C91818BF00F8012DCB0728BF6D
:10D9800000F8012D7047002862B38B0708D0521EA3
:10D9900011F8013B00F8013B00F024808B07F6D121
:10D9A000830740F0208000BF103A07D330B4B1E8BD
:10D9B0003810103AA0E83810F9D230BC530724BF11
:10D9C000B1E80810A0E8081044BF51F8043B40F843
:10D9D000043BD20724BF31F8022B20F8022B44BFAE
:10D9E0000B7803707047083A07D3B1E80810083A7B
:10D9F00040F8043B40F804CBF7D25307E4E7022891
:10DA00008B0013EB401313F184431A60704702003C
:10DA1000880010EB421010F184400068704710F14C
:10DA2000C0621160704710F180621160704770B57C
:10DA300004000D00160029002000FFF7F4FF31005C
:10DA40002000FFF7ECFF70BD202801D2012100E08B
:10DA50000021C9B2012111FA00F0704738B5040065
:10DA6000B4F5004F01D2012000E00020C0B2601CDC
:10DA7000B0FA80F0D0F11F0005002800FFF7E4FFA6
:10DA8000401E844201D1012000E00020C0B22800E5
:10DA900032BD80B51221DFF8F808FFF7B8FF002883
:10DAA000F8D101BD80B5FFF7F4FFDFF8E4080068A6
:10DAB000000C10F0030002BD70B504000120050049
:10DAC000DFF84006844204D2002005000020060052
:10DAD00008E0DFF8C008844202D20120060001E01D
:10DAE000022006002A001021DFF8AC08FFF788FFAB
:10DAF000DFF8A808006830F0807050EA0660DFF8B0
:10DB00009C18086070BDDFF8981809680800704715
:10DB100010B501F013FA0400DFF880080068C0F3C4
:10DB20000420401C00FB04F010BD38B5DFF8740879
:10DB300000F03EFC0500EDB22800072805D00928BA
:10DB400007D101F0FBF9040005E0FFF7DCFF04005A
:10DB500001E000200400200032BD70B50400002C5C
:10DB60000FD1DFF8440800F023FC0600F6B23000C5
:10DB7000012808D004280DD0072807D008280DD088
:10DB800010E0002011E0002005000DE0FFF7BBFFD2
:10DB9000050009E001F0F4F9050005E0FFF7B8FF22
:10DBA000050001E000200500280070BD30B4DFF85A
:10DBB00070391B6813F040731A0000242300052BF2
:10DBC00010D2DFF8E84704EBC30424790D00EDB26E
:10DBD000AC4205D1DFF8D44754F83340844201D237
:10DBE0005B1CECE7052B02D10324220005E0DFF8E3
:10DBF000BC4704EBC304647922001206DFF8204915
:10DC0000246834F040741443DFF814592C6030BC9D
:10DC1000704710B5DFF80C090068002801D0012416
:10DC200000E0002441F67130DFF8F818086001F0D8
:10DC300083F90021FFF7BAFFE4B2002C03D00020E3
:10DC4000DFF8E018086010BD70B504000D00DFF8C3
:10DC5000D4080068002801D0012600E0002641F623
:10DC60007130DFF8C018086029002000FFF79EFF20
:10DC7000F6B2002E03D00020DFF8A818086070BDAF
:10DC800001000F22CB1C934201D2C81C00E01000FF
:10DC900000077047DFF890080068C0F30110704774
:10DCA000DFF88418096831F0300151EA0011DFF81B
:10DCB000782811607047F8B5040000262000DFF8CE
:10DCC0006C18884207D0DFF86818884203D0DFF864
:10DCD0006418884200D1FFE7200000F069FB0500CE
:10DCE0002000DFF84818884208D0DFF8441888423E
:10DCF0000BD0DFF8401888420ED014E0DFF8380867
:10DD0000006810F0070005000DE0DFF8300800683B
:10DD100010F00700050006E0DFF82408006810F0A6
:10DD200007000500FFE7002D27D0022D0AD005D3FC
:10DD3000042D0BD012D3052D0CD021E001F037F9C2
:10DD400006001FE001F039F906001BE001F032F98E
:10DD5000060017E001F02BF9060013E001F0DCF8F3
:10DD60000700DFF838060068C0F30060401CFFF7CA
:10DD70006BFEB7FBF0F0060004E00020060001E0B7
:10DD8000002006003000F2BDDFF8B8170968C907A7
:10DD900004D4DFF8B41709680142FAD1704710B50E
:10DDA0000400200000F01EF9401C10BD38B504002E
:10DDB0000D00691E200000F0A7F931BD2DE9F041EA
:10DDC00004000D005FF00008200A10F00F00012889
:10DDD0000CD0022812D005280CD0062812D0072813
:10DDE00016D009281AD00A281FD022E0DFF8A8058B
:10DDF00006001FE0DFF8AC0906001BE0DFF8A80909
:10DE0000060017E0DFF8A40906000120804611E0B3
:10DE1000DFF89C090600102080460BE0DFF894092B
:10DE200006005FF48030804604E0DFF88C090600CD
:10DE300000E00EE0C4F304300700B8F1000F02D098
:10DE40004046FFF7A1FFEDB22A0039003000FFF78E
:10DE5000D7FDBDE8F08138B5040014F4781000282F
:10DE600031D0B0F5003F42D0B0F5802F2FD0B0F5C3
:10DE7000002F38D0B0F5202F45D0B0F5402F00F05E
:10DE8000A080B0F5602F00F0A080B0F5901F4CD0BE
:10DE9000B0F5A01F4FD0B0F5B01F6DD0B0F5D01FBA
:10DEA0003DD0B0F5E01F61D0B0F5001F00F08380D9
:10DEB000B0F5281F4ED0B0F5301F6CD0B0F5381F2C
:10DEC00000F087808AE001F039F8050088E001F071
:10DED00035F80500DFF8E4080068C0F30820401CAE
:10DEE000B5FBF0F57CE001F029F8050078E001F0E1
:10DEF00025F80500DFF8C8080068C0F30820401CBA
:10DF0000B5FBF0F56CE001F019F80500DFF8B40896
:10DF10000068C0F30420401CB5FBF0F560E0DFF8BA
:10DF20000C06FFF7C8FE05005AE0DFF80806FFF709
:10DF3000C2FE050054E0DFF8F405FFF7BCFE050063
:10DF4000DFF88408006810F00F00FFF77DFDB5FBD7
:10DF5000F0F545E0DFF8D405FFF7ADFE0500DFF88A
:10DF600068080068C0F30110C54039E0DFF8C0055B
:10DF7000FFF7A1FE050033E0DFF8B405FFF79BFED5
:10DF80000500DFF848080068C0F30110FFF75CFDEA
:10DF9000B5FBF0F524E0DFF89805FFF78CFE0500EF
:10DFA000DFF828080068C0F30120001DFFF74CFDD2
:10DFB000B5FBF0F514E0DFF87C05FFF77CFE05000B
:10DFC0000EE0FFF7B2FD05000AE0FFF79CFD05003B
:10DFD00006E00020FFF7C1FD050001E0002005007C
:10DFE000280032BD70B50400C4F303100500012DF4
:10DFF0000DD0C0F08380032D17D00FD3052D22D074
:10E000001AD3072D4BD025D3082D6DD076E0DFF83D
:10E010008C030068C0F30420060071E0DFF8A40759
:10E020000068C0F3042006006AE0DFF870030068AF
:10E03000C0F30060060063E0DFF880070068C0F30B
:10E04000082006005CE0DFF878070068C0F30820CD
:10E05000060055E02000DFF81C18884204D0DFF8E5
:10E06000181888420CD017E0DFF85C07006810F041
:10E070000F0006003000FFF7E7FC401E06000DE031
:10E08000DFF844070068C0F3011006003000FFF716
:10E09000DBFC401E060001E00020060030E020000E
:10E0A000DFF8D817884204D0DFF8D41788420CD0A4
:10E0B00017E0DFF818070068C0F301100600300011
:10E0C000FFF7C2FC401E06000DE0DFF80007006805
:10E0D000C0F301200600301DFFF7B6FC401E06000D
:10E0E00001E0002006000BE0DFF81809844202D1AD
:10E0F0000020060001E00020060001E000200600EC
:10E10000300070BD0148E801F8B504000D00C4F30B
:10E1100003100700012F10D0C0F03881032F42D028
:10E1200030D3052F60D04DD3072F00F0D880C0F03A
:10E130008380082F00F0118128E1202D01D20120D9
:10E1400000E00020C0B2FFF764FDDFF8BC08FFF775
:10E15000B3FC9248006830F4F85050EA05208F492B
:10E16000086000F0D9FE0600FFF79CFCC0B2010079
:10E170003000FFF769FDDFF89408FFF76CFEFFF74A
:10E180009BFC03E1202D01D2012000E00020C0B261
:10E19000DFF83006006830F4F85050EA0520DFF868
:10E1A00024160860F2E0022D01D2012000E00020D8
:10E1B000C0B27A48006830F0807050EA0560774954
:10E1C0000860E3E0B5F5007F01D2012000E0002007
:10E1D000C0B2DFF8E80500686FF3102050EA0520B0
:10E1E000DFF8D8150860D1E0B5F5007F01D2012035
:10E1F00000E00020C0B2FFF70CFDDFF80C08FFF7CD
:10E200005BFCDFF8BC0500686FF3102050EA0520C6
:10E21000DFF8AC15086000F07FFE0600FFF742FC57
:10E220000100C9B23000FFF70FFDDFF8E007FFF78C
:10E2300012FEFFF741FCA9E02000DFF8C817884272
:10E2400008D0DFF83016884218D0DFF82C16884244
:10E250002CD043E0002D01D1012000E00020C0B20D
:10E260005FF48020FFF790FDDFF8AC0800688008BD
:10E2700080002843DFF8A01808602FE0B5F5004FB4
:10E2800001D8012000E00020C0B22800FFF7E6FB23
:10E2900005000420FFF778FDDFF82C050068000971
:10E2A00000012843DFF82015086017E0092D01D28E
:10E2B000012000E00020C0B22800FFF7CFFB0500DE
:10E2C0000420FFF761FDDFF80005006830F0300042
:10E2D00050EA0510DFF8F0140860FFE756E0200070
:10E2E000DFF89815884204D0DFF89415884218D0DA
:10E2F00032E0092D01D2012000E00020C0B2280048
:10E30000FFF7ACFB05004020FFF73EFDDFF8BC0443
:10E31000006830F0300050EA0510DFF8B0140860F3
:10E320001AE0802D03D20F2D01D3012000E0002040
:10E33000C0B22800FFF792FB001F05004020FFF746
:10E3400023FDDFF88804006830F4407050EA0520AF
:10E35000DFF878140860FFE718E0DFF8A8068442C9
:10E3600013D1002D01D1012000E00020C0B25FF4E4
:10E370008020FFF709FDDFF8A00700688008800013
:10E380002843DFF894170860FFE7FFE7F1BD0000BE
:10E3900004300E400190D00300400E4000410E407A
:10E3A0002C08002006000C0098002E0050BD000034
:10E3B0000100012011F00F031A001300012B0BD0F4
:10E3C000022B21D0032B3BD0052B59D0062B73D029
:10E3D000082B00F083809EE0DFF8AC381B6813F058
:10E3E0000703022B0AD00CD3042B01D003D308E07F
:10E3F0000223180007E00323180004E00423180098
:10E4000001E00523180088E04B4B1B6813F007035D
:10E41000012B06D0022B07D0042B08D0052B09D0E6
:10E420000BE0032318000AE00223180007E00A2388
:10E43000180004E00B23180001E0012318006CE031
:10E440003E4B1B6813F00703012B07D015D3032B9A
:10E450000DD006D3052B0DD006D30EE003231800F4
:10E460000DE0022318000AE00A23180007E0062343
:10E47000180004E00B23180001E0012318004CE011
:10E480002F4B1B6813F00703012B06D0022B07D07C
:10E49000042B08D0052B09D00BE0032318000AE059
:10E4A0000223180007E00A23180004E00B231800D9
:10E4B00001E00123180030E0DFF81C381B6813F07E
:10E4C0000103002B04D0012B05D10923180004E01F
:10E4D0000723180001E0012318001EE0DFF88C3943
:10E4E0001B6813F03003002B06D0102B07D0202B15
:10E4F00008D0302B09D00BE0012318000AE00723D5
:10E50000180007E00423180004E00823180001E0C5
:10E510000123180001E000231800C0B2704700007A
:10E5200004000E4040000E4024400E4002001A003D
:10E5300003001C000500200080400E4084400E4077
:10E5400088400E4044410E4040410E402DE9F84FB6
:10E5500004000D00032603275FF0000B5FF0000AA4
:10E56000112C19D1EDB2042D03D100F009FD824622
:10E570000BE0EDB2052D08D100F077F9DFF8AC180B
:10E58000884202D300F071F98246BAF1000F03D03D
:10E590000021504600F095FE14F00F0081464846D9
:10E5A00001280CD002285DD0032875D0052866D03C
:10E5B000062800F0B480082800F0C480EFE0EDB237
:10E5C0002800022808D003280BD004280ED00528E4
:10E5D00015D00A281CD01CE00420060000200700EB
:10E5E00018E0032006000120070013E002200600C7
:10E5F00002200700DFF81004FFF75EFA0AE00120AE
:10E60000060003200700DFF80004FFF755FA01E0D9
:10E61000C5E0C4E0012201213800C0B200F07EFA5A
:10E62000FFF7F7FABAF1000F01D0FFF732FADFF87F
:10E6300040080660DFF8D403FFF70DFCFFF73CFA53
:10E6400000F06AFC0090FFF72DFA0100C9B20098B3
:10E65000FFF7FAFABAF1000F03D10121002000F010
:10E6600030FE9CE0BBF1000F02D1DFF808B8FFE7F5
:10E67000EDB2062D01D0012000E00020C0B2BBF1B8
:10E68000000F02D1DFF8F0B7FFE7EDB2062D01D0A1
:10E69000012000E00020C0B2BBF1000F02D1DFF882
:10E6A000DCB7FFE7EDB2280001280AD002280BD022
:10E6B000032811D0062817D00A2821D00B2822D0F1
:10E6C00029E00020804627E001220121002000F0FF
:10E6D00025FA022080461FE001220121012000F0DE
:10E6E0001DFA0120804617E000F016FCFFF7E4F960
:10E6F000012202212B48FFF783F9032080460BE01B
:10E700000420804608E001220121062000F006FADC
:10E710000520804600E042E0CBF800803FE0EDB20B
:10E720002800072802D0092805D009E00020DFF8DA
:10E73000A815086005E00120DFF89C15086000E0DE
:10E740002DE02CE0EDB22800012806D004280FD0DF
:10E75000072805D0082813D015E00020804613E0D4
:10E7600001220121042000F0D9F9012080460BE0AC
:10E7700001220121022000F0D1F90220804603E0AD
:10E780000320804600E00AE0DFF8E006006830F091
:10E79000300050EA0810DFF8D4160860FFE7BDE843
:10E7A000F18F0000B0400E40C0400E40E0400E40EF
:10E7B000E8400E40F0400E4050410E400C410E40EB
:10E7C00008410E4014410E4020410E4028410E40A9
:10E7D00001000800DFF8C426904224D0DFF8C026EC
:10E7E000904220D0DFF8BC2690421CD0DFF8B8263B
:10E7F00090421CD0DFF8B42690421CD0DFF8B0263F
:10E8000090421CD0DFF8AC2690421CD0DFF8A8263E
:10E8100090421CD0DFF8A42690421CD0DFF8A0263E
:10E8200090421CD01FE0DFF89C0600681CE0DFF877
:10E830009806006818E0DFF89406006814E0DFF836
:10E840009006006810E0DFF88C0600680CE0DFF846
:10E850008806006808E0DFF88406006804E0DFF856
:10E860008006006800E000207047DFF814060068AA
:10E87000704700006006140060162A00701716002A
:10E8800070272C00F8B504002000FFF7A1FF070057
:10E89000002F04D017F1010F01D0012000E000206B
:10E8A000C0B2DFF8DC0500680600DFF8D4050460BC
:10E8B0001120FFF77DFD052801D1FFF7AAF91821E6
:10E8C000DFF8D405FFF7A3F80028F8D117F1010FFE
:10E8D00001D0012000E00020C0B22000DFF8BC150C
:10E8E000884208D0DFF8B815884208D0DFF8B415A0
:10E8F000884208D00AE0022060F35A6706E001204F
:10E9000060F35A6702E037F0C067FFE71120FFF7B6
:10E910004FFD052802D12000FFF7CEF8A64203D212
:10E920000121200000F0CDFCDFF864050760112014
:10E93000FFF73EFD052821D100F0EEFA0500AC42BC
:10E9400001D3012000E00020C0B2DFF834050068E8
:10E95000A84201D3012000E00020C0B2DFF820056A
:10E960000068844201D1012000E00020C0B2FFF71E
:10E9700099F8C0B201002800FFF766F92348FFF7B5
:10E980006AFAFFF799F8A64203D30121002000F0AC
:10E9900098FCF1BD2DE9F04104000D0016000020A7
:10E9A0000400DFF84005006854F040518843804679
:10E9B000EDB2002D02D05FF0805000E00020F6B2F2
:10E9C000002E02D05FF0005100E0002120430843F8
:10E9D00050EA0808002C02D1F6B2002E0CD000F04C
:10E9E000CFFA0700FFF75EF8C0B201003800FFF76A
:10E9F0002BF93800FFF760F8DFF8E804C0F8008072
:10EA0000BDE8F081800912000148E80100250800F6
:10EA100070B504001120FFF7CBFC042801D00120C1
:10EA200000E00020C0B201220021022000F076F8B0
:10EA30006078002806D1A078002803D1E07890F013
:10EA4000010000E00020C0B20025207C012801D098
:10EA5000012000E00020C0B2207C022801D101206A
:10EA60000500DFF880040068400840002843DFF814
:10EA70007414086022780821DFF86804FEF7C0FFEC
:10EA8000A088617A51EAC020DFF85C140860DFF8E2
:10EA90005C040668207AFFF7F3F816F07F61E288DD
:10EAA00051EAC221A27A1143227A51EAC2110843E3
:10EAB000DFF838140860607BA17B090151EA00305F
:10EAC000E17B0843217B50EA0140DFF82414086011
:10EAD00070BD10B504001120FFF76AFC022801D0B8
:10EAE000012000E00020C0B200220021002000F040
:10EAF00015F82078617850EAC120A17850EA0160C9
:10EB0000E17850EA0122DFF8EC13DFF8EC03FEF7BE
:10EB10008EFF10BD0000000030410E402DE9F84F7F
:10EB200004000D001600E4B2200000282ED00128B9
:10EB300023D002280FD0032804D0042814D006289C
:10EB40002FD039E0012081460220824601200700B3
:10EB50000020804631E004208146082082460320C0
:10EB600007000220804628E01020814620208246AF
:10EB700005200700042080461FE0402081468020B9
:10EB80008246072007000620804616E04FF480707A
:10EB900081464FF400708246092007000820804615
:10EBA0000BE04FF4804081464FF4004082460F2036
:10EBB00007000E20804600E063E0EDB2002D57D044
:10EBC0005FF0000BE4B2022C13D1FFF763F80028CA
:10EBD0000FD1DFF828030068800A10F0010001203F
:10EBE0008346DFF800030068C00702D50120FFF765
:10EBF00057F8A448C0F800904146A348FEF707FF25
:10EC00000028F9D0F6B2002E3BD039009E48FEF71E
:10EC1000FEFE0028F9D0E4B2022C32D15FFA8BFB61
:10EC2000BBF1000F2DD0AF480068C00705D5012209
:10EC30002021022000F0FCF803E00021022000F077
:10EC4000BCF8022000F022F80090012200210220EE
:10EC5000FFF764FF0099022000F040F88948C0F8EF
:10EC6000009039008848FEF7D2FE002809D1F8E765
:10EC70008448C0F800A041468348FEF7C8FE00283B
:10EC8000F9D1BDE8F18F000094400E400100C9B2F7
:10EC9000012906D01DD3032909D014D304290CD08F
:10ECA00017E0974A1268D205D20D100013E0784A97
:10ECB000126812F07F0210000DE0924A126812F002
:10ECC0007F02100007E0904A12685205520D1000B2
:10ECD00001E000221000704770400E4070B5040043
:10ECE0000E00E4B2012C06D066D3032C1AD045D313
:10ECF000042C2DD060E0B6F5007F01D2012000E0A9
:10ED00000020C0B2F605F60D1A216348FEF77FFE1B
:10ED10000028F9D17A480068400A40023043784917
:10ED2000086049E0802E01D2012000E00020C0B23E
:10ED300016F07F0618215848FEF769FE0028F9D121
:10ED400053480068C009C00130435149086033E0AE
:10ED5000802E01D2012000E00020C0B216F07F0614
:10ED600019214D48FEF753FE0028F9D16548006887
:10ED7000C009C0013043634908601DE04248006893
:10ED8000800810F0010090F00100C0B25548006802
:10ED900030F0300050F0100052490860C6F3C31044
:10EDA000FEF76EFF0500514800685849084030439F
:10EDB00028434E490860FFE770BD70B504000D00A0
:10EDC000E4B2022C01D1012000E00020C0B2FEF725
:10EDD00061FF002803D15FF44000060016E0EDB2A9
:10EDE0002800002808D0202802D0302808D00BE0C6
:10EDF0005FF40000060009E05FF44000060005E053
:10EE00005FF44000060001E0414806001E4800682B
:10EE10003040B042FAD1700205D51E480068800A21
:10EE200010F0010000E0012070BD0000012D310153
:10EE300070B504000D001600E4B2022C14D1EDB23E
:10EE4000002D06D04FF4806010490860EDB23148C3
:10EE50000560F6B2002E06D02900C9B22000C0B26B
:10EE6000FFF7ABFF01E0FFE7012070BD5C410E4002
:10EE700074400E4080400E4088400E4084400E405A
:10EE80003C08002060400E4090400E40A8400E40DC
:10EE900010400E40A0400E4040410E4040420F0046
:10EEA00080841E0000093D00C0CF6A00405DC6009E
:10EEB0000024F400C0EA210180BA8C010048E80176
:10EEC00080D543023082E00F3C82E00F4882E00FA1
:10EED0004C82E00F5082E00F5882E00F5C82E00F1E
:10EEE0006082E00F24400E402C400E4030400E4027
:10EEF00034400E407F1B000738400E403C300E402F
:10EF000020400E4018400E409C400E4000F8FF0F7D
:10EF1000FFF3E17F64400E4038B500F00FF80400C5
:10EF20002E480068C0F308200500681CB4FBF0F40C
:10EF30002B480460200032BD2A4870472A490968DE
:10EF400011F0070102290CD00FD3042901D004D3FA
:10EF50000BE02649096808000AE04FF40041080068
:10EF600006E023490968080002E022490968080010
:10EF700021490968C1F30421491CB0FBF1F0704735
:10EF80001B480068704710B5040019480460164813
:10EF9000006810F00700022801D1FFF7BDFF10BD87
:10EFA0001648006850F470001449086070474FF428
:10EFB000004070474FF47A7070470C480068704703
:10EFC00010B50400094804600748006810F0070005
:10EFD000042801D1FFF7A0FF10BD000008410E403A
:10EFE0003808002000F0490294400E403408002008
:10EFF000300800203C08002000410E4088ED00E071
:10F0000080B5FFF789FF01BD8B0013EB401313F1AF
:10F0100084431A6070470200880010EB421010F120
:10F0200084400068704780B51221DFF83408FFF78C
:10F03000F2FF0028F8D101BD80B5FFF7F4FFDFF83B
:10F0400020080068000C10F0030002BDDFF8641A0D
:10F0500008607047DFF8600A006870474AF6E850B9
:10F06000DFF8581A086070470020DFF8541A08606B
:10F07000704745F60E00DFF8481A08607047102107
:10F08000D0F1020011FA00F0704770B50400E4B24C
:10F09000002C17D1DFF8CC070068DFF8CC17086028
:10F0A0001120FFF785F9DFF8C4170870FFF7BBFFE1
:10F0B000DFF8AC070068000C10F00300DFF8B017B1
:10F0C000087059E0DFF8A8070078FFF7D8FFDFF8ED
:10F0D000F4190860DFF8E809006810F00100060084
:10F0E000FFF7C7FF00200500DFF87C07007810F06D
:10F0F00001000543DFF870070078C00601D5102035
:10F1000000E000200543DFF860070078400601D5E5
:10F11000402000E000200543DFF84C07007840075E
:10F1200001D5042000E000200543DFF83C0700681B
:10F13000C00502D54FF4807000E000200543DFF8E1
:10F14000800A0560FFF76FFFDFF8200700780528C9
:10F1500005D0DFF8180701781120FFF7F7F9DFF87D
:10F1600008070078C00703D40220DFF8541A0860AB
:10F17000002E01D0FFF778FF70BDF8B5DFF8F00979
:10F180000068000A10F00305DFF8D4060068000CE0
:10F1900010F00306FFF747FF30002900C0B2C9B2E4
:10F1A000884219D2EDB2022D16D11120FEF7F7FDDB
:10F1B00007001120FEF74FFE00FB07F00400DFF808
:10F1C000FC09844203D3DFF8FC09FFF75BFB052150
:10F1D0001120FFF7BBF9FFE7F1BD10B50400E4B261
:10F1E000002C02D00020FFF750FFFFF7C6FFDFF82A
:10F1F000D809006850F00400DFF8CC19086030BF6F
:10F20000E4B2002C03D00120FFF73FFF01E0FFF73D
:10F21000F7FE10BD38B50400E4B2002C02D0002087
:10F22000FFF733FFFFF7A9FFDFF89408006810F03D
:10F2300001000500FFF71DFF4FF42070DFF8801973
:10F240000860002D01D0FFF70FFFDFF87C09006890
:10F2500050F00400DFF87019086030BFE4B2002CF1
:10F2600003D00120FFF711FF01E0FFF7C9FE31BD18
:10F2700080B50020FFF709FF01BD80B50120FFF731
:10F2800004FF01BD70B5DFF84409006830F4403078
:10F2900050F40035DFF83409006850F44036FFF7C9
:10F2A000DDFE00200400042C07DADFF820090560E9
:10F2B000DFF818090660641CF5E7DFF8100905603F
:10F2C00070BDF8B504000D00DFF804090068C0F354
:10F2D0000420471C002C04D1FFF730FE78430600C1
:10F2E00000E02600DFF8EC080078002809D0DFF8FD
:10F2F000E808864205D22900C9B2022000F007F8CA
:10F3000004E02900C9B2002000F001F8F1BD2DE9A8
:10F31000F84304000D00DFF8B8080068C0F30420CB
:10F32000471CFFF70BFE8046FFF786FE81464846E6
:10F330002100C0B2C9B2884224D007FB08F0060001
:10F34000E4B2022C0BD1DFF87408864201D201200E
:10F3500000E00020C0B202214046FEF775FC20000C
:10F36000C0B2FFF78CFEDFF85C170860E4B2002C37
:10F3700003D100214046FEF767FCEDB2002D01D01D
:10F38000FFF751FEBDE8F18310B504002078DFF8E7
:10F390004418087001210020FFF793FF10BDDFF82B
:10F3A000D017096831F44071427851EA0221DFF840
:10F3B000C027116070470120704710B5DFF81C08A6
:10F3C000006850F08070DFF8141808600021DFF842
:10F3D0001008FFF720FE0400002C03D0042000F0EA
:10F3E000C9FB02E0002000F0C5FB10BDF0B4012411
:10F3F0002505DFF8EC673668C6F303263200DFF830
:10F40000E4673688DFF8DC773F8828377F08BE1945
:10F410002836571C5FF0050C0CFB07F7B6FBF7F618
:10F42000761E3000072800D30720000630F0E06683
:10F43000002E01D1012600E00026F6B235F4E006E8
:10F44000002E01D1012600E00026F6B2DFF8906719
:10F45000366836F0EE6606432E43DFF884773E606A
:10F46000DFF88467B6F90060002E29D4DFF87867EA
:10F47000368833009BB213F12806760816FA83F615
:10F480002836571C12F1010C5FEA5C0C1CEB470795
:10F49000B6FBF7F63100072900D30721090131F047
:10F4A0007006002E01D1012600E00026F6B2DFF83A
:10F4B0003C67366836F070060E43DFF830773E6002
:10F4C000F0BC7047DFF81C271080DFF81C27118084
:10F4D0007047C0B2002802D0012806D00BE0DFF848
:10F4E0001017DFF81027116005E0DFF80C17DFF8C0
:10F4F00004271160FFE7704730B40300DFF8FC0613
:10F5000000680400C9B2002905D0022909D005D33A
:10F51000032909D00AE004F0FF0409E0C4F307243A
:10F5200006E0C4F3074403E0240E01E0002026E0D7
:10F53000D2B2002A0FD1240334F47040002801D045
:10F5400000201CE0DFF89406006830F4704020438F
:10F55000DFF888562860D2B2012A0FD1240334F490
:10F560007040002801D0002009E0DFF89406006810
:10F5700030F470402043DFF888562860012030BC0A
:10F580007047F0B400260024DBB2D2B252EA032561
:10F590002F00002F34D07F1E0CD0FF3F3AD07F1EAB
:10F5A00012D0FF3F3FD07F1E17D0FF3F45D07F1EB8
:10F5B0001DD04BE0DFF84C763F683E00C6F30727CE
:10F5C0003C0006F0FF0641E0DFF838763F683E0079
:10F5D000370E3C00C6F3074638E0DFF82C763F686C
:10F5E0003E00C6F307273C0006F0FF062EE0DFF8DA
:10F5F00018763F683E00370E3C00C6F3074625E00C
:10F60000DFF808763F683E00C6F307273C0006F0A7
:10F61000FF061BE0DFF8F4753F683E00370E3C0044
:10F62000C6F3074612E0DFF8E8753F683E00C6F310
:10F6300007273C0006F0FF0608E0DFF8D4753F68B6
:10F640003E00370E3C00C6F30746FFE706600C603D
:10F65000F0BC704738B50400DFF8B8050068C00793
:10F66000FAD4DFF8B405006810F003000500002D9F
:10F6700005D001220D21DFF8A405FFF7C5FC280005
:10F680002100C0B2C9B2884209D1E4B2002C05D130
:10F6900000220D21DFF88405FFF7B6FC3FE0032DC3
:10F6A00001D0002D1CD1E4B2022C02D0E4B2012C16
:10F6B00016D15FF40020FFF7C9FCDFF85805006899
:10F6C000C007FAD4DFF8500500688008800050F0C9
:10F6D0000100DFF844150860FFF7BCFC0003FBD510
:10F6E000DFF830050068C007FAD4DFF82C050068A1
:10F6F00080088000E4B22043DFF81C150860DFF8C2
:10F7000014050068C007FAD4E4B2002C01D100222D
:10F7100000E001220D21DFF80405FFF775FC31BD83
:10F7200038B50400FFF747FE2089C92801D201201F
:10F7300000E00020C0B22089A188884201D30120C6
:10F7400000E00020C0B2B4F90C00C92801DA0120A1
:10F7500000E00020C0B26078012807D1A088C92845
:10F7600001D2012000E00020C0B209E06078022848
:10F7700006D1A0880B2801D2012000E00020C0B2F1
:10F78000E08842F21171884201D2012000E000209D
:10F79000C0B2E0884B2802D20020050013E0E088C8
:10F7A000B0F5FA7F03D25FF0805005000BE0E088EF
:10F7B00040F6C411884203D25FF00050050002E019
:10F7C0005FF040500500DFF818040068B4F90C1031
:10F7D000002901D4012100E00021DFF84C24104071
:10F7E00028430843DFF8F8130860DFF814040068C2
:10F7F00050F44070DFF808140860FFF7DEFDB4F93C
:10F800000C102089FFF75EFEA088DFF8181408802E
:10F81000A08800F059F9A07BFFF75BFE01220121CF
:10F82000608800F027F8002801D1002016E0DFF8FA
:10F83000FC03006850F48060DFF8F0130860607823
:10F84000FFF708FFA07A202801D1012200E0002262
:10F850000521DFF8D803FFF7D7FB012032BD0000F8
:10F8600004300E4090400E407C4E0020734F00202C
:10F87000744F00202DE9F04F8BB004000D001600EE
:10F8800000275FF0000868460021002200230EC018
:10F890000C3804A80021002200230EC00C3807A851
:10F8A0000021002200230EC00C3803A800210160B3
:10F8B000B4F5E16F06D340F6B930844202D25FF06E
:10F8C000010A01E05FF0000A5FFA8AFABAF1000F5C
:10F8D00001D10020EAE0B4F5E16F02D95FF0010B3D
:10F8E00001E05FF0000B5FFA8BFBBBF1000F09D06A
:10F8F0004FF4E160070040F6B8308046B8EB0700EF
:10F90000814608E04FF4966007004FF4E1608046BE
:10F91000B8EB070081465FFA8BFBBBF1000F0BD001
:10F92000DFF80C03006806900698000E0990069810
:10F93000C0F3074006900CE0DFF8F4020068069080
:10F940000698C0F3072009909DF8180000F0FF000A
:10F950000690DFF88C020068000F10F003008DF8AD
:10F960000C009DF80C305A46D2B207A904A8FFF744
:10F9700008FEDFF88C020068000A10F003008DF822
:10F980000D009DF80D305A46D2B208A905A8FFF720
:10F99000F8FDE01B0999069A891A4843B0FBF9F073
:10F9A00002900298069908180290E01B0799049AA1
:10F9B000891A4843B0FBF9F00090009804990818A0
:10F9C0000090E01B0899059A891A4843B0FBF9F0AA
:10F9D00001900198059908180190099802998842A8
:10F9E00013D30298069988420FD308980199884248
:10F9F0000BD301980599884207D30798009988424C
:10FA000003D300980499884201D200204EE0F6B258
:10FA1000002E14D0DFF81C0200685FFA8BFBBBF1EC
:10FA2000000F01D0022100E00021DFF80C2210407D
:10FA3000029A50EA02200843DFF8F8110860EDB29C
:10FA4000002D32D000229DF80C105846C0B2FFF7AE
:10FA500053FD002801D1002028E001229DF80D105F
:10FA60005846C0B2FFF748FD002801D100201DE034
:10FA700001980099884201D2009800E00198009016
:10FA80000098E72801D2009800E0E7200090DFF816
:10FA9000AC010068400A40025FFA8BFB00995BEA08
:10FAA00041010843DFF89411086001200BB0BDE864
:10FAB000F08F00002C300E4024300E4008300E40F5
:10FAC00080410E4010300E4070B504000025DFF874
:10FAD0005001006810F00706DFF804010068C00755
:10FAE00010D5022E0ED3142C02D2042005002EE0D5
:10FAF000142C04D3282C02D20820050027E0102063
:10FB0000050024E0DFF8D8000068C00710D4022EFA
:10FB10000ED20A2C02D20420050018E00A2C04D3CD
:10FB2000142C02D20820050011E0102005000EE080
:10FB3000DFF8AC000068C00709D5022E07D2282CD8
:10FB400002D20820050002E010200500FFE76D1E2C
:10FB5000280350EA0525DFF88800006830F47F406C
:10FB60002843DFF87C100860FFF740FC70BD000000
:10FB700000300E4038B504000021DFF86400FFF7C4
:10FB80004AFA0500002D02D1E4B2022C01DB002D5F
:10FB900001D0012000E00020C0B2DFF8840000683E
:10FBA000C008C000E4B22043DFF874100860DFF83A
:10FBB00074000088FFF788FF31BD0000012D31017E
:10FBC00060400E40C0EA210110ED00E018300E4008
:10FBD00000410E40784E0020002D31016C300E4067
:10FBE0004C300E405C4F0020604F002050300E40E3
:10FBF0007740205758300E40372110B73083E00F40
:10FC0000E0300E402483E00F2883E00F1C83E00FD8
:10FC10002083E00F78300E4040300E4054300E40CC
:10FC200070300E405E4F0020FEFFFFCF3C300E4094
:10FC30001883E00F5C300E40FD80FFFF64300E4003
:10FC400040B210F1100F04DB40B22F2801DA01227C
:10FC500000E00022D2B22B4A126840B202EB8002CE
:10FC600011647047F0B4049D059CB2F1005F04D3A9
:10FC7000254FBA4201D2012700E00027FFB212F05F
:10FC80007F07002F01D1012700E00027FFB20127E5
:10FC90005FEA830CBCF1010CBCFA8CFCDCF1200C9B
:10FCA00017FA0CF77F1E3A4201D1012700E0002726
:10FCB000FFB200273E009E421FD2E4B2002C09D0C2
:10FCC0008E4204D250F8267042F8267013E042F8B3
:10FCD000265010E08E4208D252F82670002F0AD12A
:10FCE00050F8267042F8267005E052F82670002F72
:10FCF00001D142F82650761CDDE7024F3A60F0BC95
:10FD00007047000008ED00E00000012030B40268F8
:10FD10000368046805680A604B608C60CD6030BC85
:10FD2000704710B4426852095201C9B20B00002B4F
:10FD3000042B09D95B1F022B0BD9DB1E032B03D924
:10FD40001B1F022B05D90BE0C9B251EA0203436025
:10FD500006E0C9B251EA020353F010034360FFE723
:10FD600010BC704770B504000D001600002D01D0C6
:10FD7000012000E00020C0B2290014F12000FFF7AC
:10FD8000C5FFF6B2102E05D115F1100114F12000B7
:10FD9000FFF7BCFF70BD022810F1C0621160704710
:10FDA00010F180621160704738B504000D00E4B2B4
:10FDB000002C01D13F2035E0E4B2012C02D14FF4F8
:10FDC00078402FE0E4B2022C02D14FF47C6029E0AD
:10FDD000E4B2032C02D14FF47C4023E0E4B2042CC3
:10FDE00001D100201EE0E4B2052C01D1FF2019E072
:10FDF000E4B2062C01D1002014E0E4B2072C01D1BA
:10FE000000200FE0E4B2082C01D100200AE0E4B2A7
:10FE1000092C01D1002005E0E4B20A2C01D1002018
:10FE200000E00020284110F00100012010FA05F147
:10FE3000DFF8F001E4B2302202FB04F210440C308F
:10FE4000FFF7AEFF31BD38B504000D00E4B2002C61
:10FE500001D13F2035E0E4B2012C02D14FF47840CB
:10FE60002FE0E4B2022C02D14FF47C6029E0E4B22E
:10FE7000032C02D14FF47C4023E0E4B2042C01D1E6
:10FE800000201EE0E4B2052C01D1FF2019E0E4B20D
:10FE9000062C01D1002014E0E4B2072C01D100208F
:10FEA0000FE0E4B2082C01D100200AE0E4B2092CF2
:10FEB00001D1002005E0E4B20A2C01D1002000E0CD
:10FEC0000020284110F00100012010FA05F1DFF8B0
:10FED0005401E4B2302202FB04F210440C30FFF76C
:10FEE0005BFF31BDF8B504000D0016001F00E4B241
:10FEF000002C01D13F2035E0E4B2012C02D14FF4B7
:10FF000078402FE0E4B2022C02D14FF47C6029E06B
:10FF1000E4B2032C02D14FF47C4023E0E4B2042C81
:10FF200001D100201EE0E4B2052C01D1FF2019E030
:10FF3000E4B2062C01D1002014E0E4B2072C01D178
:10FF400000200FE0E4B2082C01D100200AE0E4B266
:10FF5000092C01D1002005E0E4B20A2C01D10020D7
:10FF600000E00020284110F00100F6B2002E0CD075
:10FF7000002F05D029002000C0B2FFF764FF04E085
:10FF800029002000C0B2FFF70FFF082D1BD2254823
:10FF9000E4B2302101FB04F1084440680F212A003B
:10FFA000D2B2920091408843F6B22900C9B28900CA
:10FFB00016FA01F108431B49E4B2302202FB04F2B5
:10FFC000114448601CE01748E4B2302101FB04F101
:10FFD000084480680F212A00083AD2B2920091406A
:10FFE0008843F6B229000839C9B2890016FA01F12E
:10FFF00008430C49E4B2302202FB04F21144886049
:020000040001F9
:10000000F6B2002E0CD1002F05D029002000C0B27E
:10001000FFF719FF04E029002000C0B2FFF7C4FE7B
:10002000F1BD000000A000408B0013EB401313F162
:1000300084431A60704710F1C0621160704710F17C
:1000400080621160704770B504000D001600290031
:100050002000FFF7F4FF31002000FFF7ECFF70BD38
:100060002DE9F04704000D0016001F00002E69D096
:10007000206830F440702060FFB23A024FF44071C3
:100080002000FFF7E0FF002D04D1DFF87804FDF732
:10009000E2FE05005FF0FF3081462068800713D53F
:1000A000FFB2002F03D0022F09D004D30BE0DFF8FA
:1000B0005C0481461BE0DFF85804814617E0DFF856
:1000C0005404814613E012E0FFB2002F03D0022F48
:1000D00009D004D30BE0DFF83404814607E0DFF8F1
:1000E0003804814603E0DFF834048146FFE7A94580
:1000F00001D2012000E00020C0B2DFF80C04FFB202
:10010000C05D8046B5EBC60006FB08F1B0FBF1F020
:10011000401E8246BAF1000F01D4012000E0002009
:10012000C0B2BAF5007F01D2012000E00020C0B2C9
:100130002068800704D5BAF1000F01D10120824662
:10014000C4F810A0BDE8F08738B504000D00DFF852
:10015000D003844203D0DFF8CC03844201D10120D4
:1001600000E00020C0B200202064DFF8BC03E063A0
:10017000687890F00102D2B201212000FFF754FF0D
:100180002B7BAA6869682000FFF76AFF2A780021A4
:100190002000FFF749FF31BDF0B40100DFF8800314
:1001A000814203D0DFF87C03814201D1012000E0CD
:1001B0000020C0B2DFF86803814203D1DFF86C038E
:1001C00004000AE0DFF85C03814203D1DFF860033A
:1001D000040002E07FF0030049E1A0680500486BDD
:1001E000030013F4C06F0DD0980503D57FF0020013
:1001F000607004E0580502D57FF0010060700920AE
:10020000207025E12078002811D0022855D028D36D
:10021000042800F086806AD3062800F0C780C0F06A
:100220009A80082800F00781C0F0D4800BE1A878FC
:10023000C00607D52888000A10F0060050F0F0002C
:10024000020008E0287810F0FE000200A87880077D
:1002500001D552F0010201202070CA6201204860DD
:10026000F6E0180609D58020C8635FF0FF306070A3
:1002700008202070022048601EE058061CD540204F
:10028000C863A878C00606D502202070287800F040
:10029000FF00C86210E0A87880070AD50720207008
:1002A000207905EBC0000089012805D108204860AD
:1002B00002E00520207092E7CAE0180609D58020E8
:1002C000C8635FF0FF306070082020700220486033
:1002D0000CE058060AD54020C863A878800702D5EC
:1002E0000320207001E00520207078E7B0E0A878B6
:1002F000C00607D52888001210F0060050F0F00064
:10030000020003E0287810F0FE000200A878400701
:1003100001D552F001020420207001204860CA6219
:1003200096E0180609D58020C8635FF0FF30607042
:1003300008202070022048600CE058060AD54020B2
:10034000C863A878400702D50720207002E0052086
:10035000207044E77CE06088267905EBC606368984
:10036000B04216D3002060802079401C2071A8780C
:10037000400702D50320207031E7A878C00702D4D7
:100380002079022804DB08202070022048605FE00A
:1003900025E76088461C6680267905EBC6067668E8
:1003A00080B2305CC8620620207051E0180609D582
:1003B0008020C8635FF0FF3060700820207002204A
:1003C000486006E0580604D54020C8630520207028
:1003D00005E73DE098062DD5267905EBC60636895A
:1003E000CF6938006788B7420DD2678817F1010CD2
:1003F000A4F802C094F804C005EBCC0CDCF804C0EF
:10040000BFB20CF807006788B74208D3012E01D1AC
:1004100008274F600827277002274F600AE004274B
:100420004F60022E06D36788B6F1010C674501D1F3
:1004300008274F600CE0D80504D54FF48070C863DE
:100440000920207004E07FF0040060700920207013
:10045000207809280AD10020086494F901000128B5
:1004600001D10020607094F9010000E00120F0BC8F
:10047000704770B504000D002948844202D0294815
:10048000844201D1012000E00020C0B2244884420F
:1004900002D12648060008E02248844202D12448BE
:1004A000060002E07FF003002BE0A068C00701D542
:1004B00020206060A878800702D52889002805D010
:1004C000A878400705D5288A002802D17FF00300CC
:1004D00017E0002030700120707000207080002034
:1004E0003071B560C0206060606B800600D5E06947
:1004F0000D48E063206C50F4FC6020642000FFF79E
:100500004BFE70BD4041050078BD000080841E0098
:10051000404B4C00809FD50040548900002D310194
:1005200000C0004000C40040CFFF0700D84C0020AE
:10053000E44C002012480068800C10F0010090F09C
:100540000100C0B20E48006810F4403F01D1012004
:1005500000E00020C0B241F671300A4908600A4844
:100560000068400840000849086070470648006875
:1005700040084000044908600020024908607047B4
:1005800004300E4040000E4008000E4001201A4981
:100590000860704710B41948016800200024220048
:1005A000092A27D2164C04EBC20464682300154CB8
:1005B0002468640711D4124C54F83240B4F5007F1B
:1005C00008D0B4F5806F05D0B4F5006F02D0B4F553
:1005D000803F02D153F48073FFE7094C54F8324056
:1005E000214205D0194203D1054C54F83240204332
:1005F000521CD5E710BC704708500E4004500E4006
:100600007CBD0000E841E00F8B0013EB401313F1B9
:1006100084431A60704710B50400E4B22200002140
:100620000F48FFF7F1FF10BD0178427851EA8201CF
:10063000827851EA0211C27851EA4211027951EAF4
:100640000221427951EA0231827951EAC231C279FA
:1006500051EA0241027A51EA4241014A116070476F
:10066000002004400E4A1268920012F03C02110071
:100670000C4A1268C2F3811211438170094A126850
:1006800012F03F024270084A126812F0F0021100A4
:10069000064A1268C2F3031211430170704700004A
:1006A000E4FF0FE0E0FF0FE0E8FF0FE0ECFF0FE0FA
:1006B000F8B504000D001600002D03D14F48FDF7DA
:1006C000CAFB0500681E7100B0FBF1F007003F0295
:1006D00038006FF3D600002801D1012000E000208F
:1006E000C0B26761F1BD38B504000D0044488442D2
:1006F00005D04448844202D04348844201D10120BD
:1007000000E00020C0B2200000F042F8A87B0028E2
:1007100002D04FF4806000E000202168B5F910207D
:10072000104350F0010008432060287D002802D0CB
:100730005FF0005000E00020216808432060A87CA2
:10074000002803D0E87C50F08000A065287B50F49E
:1007500080506060AA6869682000FFF7A9FF687B85
:10076000002801D01020E060A87D000710F0E040D4
:10077000E97D090511F4E00108432066687D002841
:1007800003D0206850F4803020602878E06031BDCC
:100790001B49884205D01B49884202D01A49884229
:1007A00001D1012100E00021C9B240F6AA61C16077
:1007B0000021016041F205014160002181600021BA
:1007C00041610021C1641149816400214167002118
:1007D00081670021C1670A49884205D009498842DA
:1007E00002D00949884201D10021016500218165BB
:1007F0000449884201D10021C1657047404105008C
:10080000000001400004014000080140F9FF010020
:1008100002695206FCD5C9B2416302699206FCD551
:10082000C069C0B2704702695206FCD5C9B24163C3
:10083000704702695206FCD589B2C163704703282C
:10084000DFF8341208607047DFF83012096881431E
:10085000DFF8282211607047DFF820120968014391
:10086000DFF8182211607047DFF8101209680800DD
:10087000DFF80C1209680840704780B500F001F8F5
:1008800001BD2DE9F041FFF7EFFF0400002C1FD55B
:10089000DFF8F00100680068002814D0DFF8E401F8
:1008A00000680068050008260027DFF8D801D0F8A6
:1008B00000803A0031004046FDF732F800F0D4F8ED
:1008C000002140B2A8475FF00040FFF7B9FF20E0E9
:1008D00060001ED5DFF8B00100680068002814D061
:1008E000DFF8A40100680068050008260027DFF88B
:1008F0009801D0F800803A0031004046FDF710F82A
:1009000000F0B2F8012140B2A8475FF08040FFF745
:1009100097FF00F019F8BDE8F0810100DFF86C01E5
:100920000068C9B2CA00052392FBF3F2801A10F1E5
:10093000800F03DA7FF07F02100003E0802801DBE4
:100940007F22100040B2704710B500200400E4B2CE
:10095000052C26DADFF83801E4B250F8340000281C
:100960001DD0DFF8240100680068002807D1DFF8F7
:100970002001E4B200EBC400434908600FE04248A4
:10098000006800794249E4B201EBC4010979884268
:1009900005D23F48E4B200EBC4003B490860641C48
:1009A000D5E7394800680068002812D03948006847
:1009B000000A000237490860364800683249096871
:1009C00009790843334908605FF08040FFF744FF2E
:1009D00003E05FF08040FFF737FF00200400E4B23F
:1009E000052C23DA2C48E4B250F8340000281BD040
:1009F000244800680068002806D12748E4B200EBCC
:100A0000C400204908600FE02348E4B200EBC400B2
:100A100000791C4909680979884205D21E48E4B268
:100A200000EBC40017490860641CD8E7154800684B
:100A30000068002813D01748006830F47F4015493B
:100A40000860144800680F490968097950EA0120D4
:100A5000104908605FF00040FFF7FEFE03E05FF022
:100A60000040FFF7F1FE10BD80B50C480068C0B231
:100A7000FFF753FF02BD00002C300E4030300E4017
:100A800024300E40844E0020804E0020884E0020EE
:100A9000644B00201C300E408C4B002020300E4058
:100AA0008B0013EB401313F184431A607047944892
:100AB000006830F004009249086030BF704780B58C
:100AC000012201218F48FFF7EBFF01BD80B5002215
:100AD00001218C48FFF7E4FF01BD10B504008A48EE
:100AE0000068002804D02000C0B287490968884700
:100AF000012010BD38B504000D0083480460834810
:100B000083490860824845600020824908700020BF
:100B100080494870FFF73EFDC00309D5FFF736FD59
:100B20007B484068002803D00420794949688847F9
:100B300031BDF8B50026002700F0EEF8040000F003
:100B40008AF80500EDB2022D02D0EDB2032D01D1DD
:100B5000FEF78EFB00F07FF80500EDB2002D07D008
:100B6000EDB2042D04DA2800C0B200F088F80600C7
:100B700067488068002805D03000C0B264498968A1
:100B800088470700F807E5D4F6B2022E02D0F6B285
:100B9000032E01D1FEF771FB200000F0C1F83000F8
:100BA000C0B2F2BD10B50400E4B2022C04DBE4B222
:100BB000042C01DA012000E00020C0B25548E4B264
:100BC000204410F8020CFF2801D0012000E0002092
:100BD000C0B2E4B2022C02D0E4B2032C0FD14D48D3
:100BE000E4B2204410F8020C401C4A49E4B221440B
:100BF00001F8020CE4B2022C01D1FFF760FF10BD36
:100C000010B50400E4B2022C04DBE4B2042C01DAD7
:100C1000012000E00020C0B2E4B2022C02D0E4B215
:100C2000032C17D13B48E4B2204410F8020C0028F2
:100C30000AD03848E4B2204410F8020C401E35496E
:100C4000E4B2214401F8020C32480078002801D1B6
:100C5000FFF73CFF10BD01202E490978002907D17C
:100C6000022108002B494978002901D103210800FD
:100C7000C0B2042801DB03210800C0B2704738B5B8
:100C800004000125E4B2002C04D0E4B2052C01DA02
:100C9000012000E00020C0B21D480068002805D0F7
:100CA0002000C0B21A49096888470500EDB2002D3E
:100CB00001D1002022E0E4B2012C06D013D3032C92
:100CC0000AD005D3042C0BD00DE0FFF7F0FE0AE0AC
:100CD0000020FEF782FA06E00020FEF79BFA02E011
:100CE000FEF7D0FAFFE70A484068002804D0200049
:100CF000C0B20749496888472000C0B232BD000031
:100D000010ED00E000300E408C4E0020DB0A0100A8
:100D1000DC4D0020624F0020EFF3108072B6704768
:100D2000002800D162B6704710B58CB000F062FAAE
:100D300000F020FA00F07BFA0023002208210220B4
:100D400000F07DFA002300220621022000F077FA4D
:100D5000002300220E21032000F071FA002300225C
:100D60000F21032000F06BFA002300220D21032045
:100D700000F065FA402200210FF2D90000F048FA95
:100D80000400002C01D020002CE0494800900120F4
:100D90008DF8100000208DF8110080200190802037
:100DA0000390019802900FF2550005900FF2B500E4
:100DB00006900FF2F50007900FF2491008900FF21D
:100DC0000D1009900FF221000A906846FCF774FD9F
:100DD0000400002C05D10121684600F00FF800F056
:100DE0001EF820000CB010BD38B50400002500F03E
:100DF00001FA00F0BFF9280032BD000038B5040048
:100E00000D00EDB2002D04D00F21032000F048FAB0
:100E100003E00F21032000F04EFA002032BD80B520
:100E20000E21032000F03CFA062000F0E9F92148E9
:100E3000007850F00400ADF800000221684600F090
:100E4000BAF9022000F0DCF90E21032000F033FA99
:100E5000002002BD80B50D21032000F037FA0020EC
:100E600002BD000070B40400C80802FB00F5802930
:100E700001D0114815E01148114E36682E44B04299
:100E800003D2002018600F480BE00D48006818607E
:100E90000120B5FBF0F00A4E36683044084E306051
:100EA000002070BC70470000020007487047000037
:100EB000C4BD0000764F002002001180A03B00203E
:100EC0004808002001001180040011802DE9F84F2E
:100ED00004000D0016001F00A84600208146B945F9
:100EE0000DD25FF0100A5FF0000B5A4651464046A3
:100EF000FCF716FD18F1100819F10109EFE70020C1
:100F0000BDE8F28F2DE9F84F04000D0016001F0018
:100F1000DDF828A0DDF82C80AB461AF1010A0E217D
:100F2000032000F0BDF9062000F06AF95FEA0A200C
:100F300050F00100ADF800000221684600F03BF9D6
:100F400000208146C1451DD21021584600F033F9DA
:100F50001BF1100BB8F10100814504D14FF6FF7071
:100F6000ADF8000007E019EB0A00401C000250F049
:100F7000FF00ADF800000221684600F01CF919F1ED
:100F80000109DFE7022000F03BF90E21032000F009
:100F900092F90020BDE8F28F10F1C0621160704735
:100FA00010F180621160704738B504000D00E4B2A2
:100FB000002C01D13F2035E0E4B2012C02D14FF4E6
:100FC00078402FE0E4B2022C02D14FF47C6029E09B
:100FD000E4B2032C02D14FF47C4023E0E4B2042CB1
:100FE00001D100201EE0E4B2052C01D1FF2019E060
:100FF000E4B2062C01D1002014E0E4B2072C01D1A8
:1010000000200FE0E4B2082C01D100200AE0E4B295
:10101000092C01D1002005E0E4B20A2C01D1002006
:1010200000E00020284110F00100012010FA05F135
:101030009048E4B2302202FB04F210440C30FFF777
:10104000AFFF31BD38B504000D00E4B2002C01D172
:101050003F2035E0E4B2012C02D14FF478402FE07C
:10106000E4B2022C02D14FF47C6029E0E4B2032CFC
:1010700002D14FF47C4023E0E4B2042C01D10020E3
:101080001EE0E4B2052C01D1FF2019E0E4B2062CE9
:1010900001D1002014E0E4B2072C01D100200FE0C0
:1010A000E4B2082C01D100200AE0E4B2092C01D1FD
:1010B000002005E0E4B20A2C01D1002000E000206D
:1010C000284110F00100012010FA05F16948E4B24E
:1010D000302202FB04F210440C30FFF75DFF31BDFB
:1010E00010B4C0B2002801D13F2235E0C0B20128BF
:1010F00002D14FF478422FE0C0B2022802D14FF45F
:101100007C6229E0C0B2032802D14FF47C4223E084
:10111000C0B2042801D100221EE0C0B2052801D1CE
:10112000FF2219E0C0B2062801D1002214E0C0B2AB
:10113000072801D100220FE0C0B2082801D1002207
:101140000AE0C0B2092801D1002205E0C0B20A2895
:1011500001D1002200E000220A4112F00102012226
:101160008A40444BC0B2302404FB00F423449A610B
:1011700010BC704710B586B0002468463E4991EC1B
:10118000060B80EC060B01213C48FCF717FE3C489F
:10119000029069463B48FFF7A6FA0A203A490860E0
:1011A0003A48006830F01F2050F00B2037490860A3
:1011B000200006B010BD70B504000D000026002D03
:1011C00012D0012D02D02000C00706D521782D486D
:1011D000FFF729FB6D1E641CF1E721882948FFF702
:1011E00028FBAD1EA41CEAE7294800688006FBD551
:1011F000300070BD10B5002400F081F8200010BD53
:1012000038B504000025200000F072F9280032BD36
:1012100070B504000D00160032002900200000F017
:10122000B0FA002801D01B4800E0002070BD10B5C6
:10123000002401211848FCF7C1FD200010BD2DE954
:10124000F84304000D0016001F005FF00008F6B21E
:10125000002E0BD1042081463B004A46D2B2290021
:101260002000C0B2FEF73EFE404600E00B48BDE85D
:10127000F283000000A00040DCBD0000004204003A
:1012800040420F0000040140740401407804014012
:101290001004014002001380003508000100138093
:1012A00070B504000D00002629002000C0B2FFF731
:1012B000C9FE300070BD70B504000D000026290085
:1012C0002000C0B2FFF770FE300070BD70B50400A2
:1012D0000D00002629002000C0B2FFF701FF3000FA
:1012E00070BD0328012110F01F029140894A40B2CD
:1012F000430942F8231070478748006870472DE97A
:10130000F04F85B00025002600275FF000085FF051
:10131000000902A88149B1E80C10A0E80C100C39B2
:101320000C385FF0000A5FF0000B7D480068400752
:1013300005D401217B48FCF741FD012006007A48D5
:10134000FDF736F80400E4B2032C01D001208046FA
:1013500076480068400601D4012081460321724886
:10136000FDF7F4F87248FCF71AFD01907148006827
:10137000C00705D401216E48FCF720FD01200700BD
:1013800000F046FA00906C480068C00714D56A481F
:101390000068824669480068834600206649086004
:1013A00000206649086040F2FF70654908601F2010
:1013B000FFF798FF0120050000208DF80A000020AB
:1013C0008DF80B0008208DF80C0002A8FFF72CF90F
:1013D00000F039F8009800F01FFAEDB2002D0AD0A5
:1013E00001995348FCF7E2FC5348C0F800A0534869
:1013F000C0F800B002E00020FFF70DF9FFB2002FA7
:1014000003D000214A48FCF7D9FC5FFA88F8B8F10C
:10141000000F04D02100C9B24348FDF797F85FFAE6
:1014200089F9B9F1000F04D0002200210120FDF755
:1014300075FBF6B2002E03D000213A48FCF7BEFC43
:1014400005B0BDE8F08F70B508264FF480503D49D7
:1014500008603C48006840003A490860002812D003
:1014600000F03EF8050000F03BF88542FBD000F0AC
:1014700037F805003348006800F036F800F030F81F
:10148000451B002DE5D02F48006840082D49086015
:101490002C48006804003000461E00281FD0640855
:1014A000002C1CD02748006820432649086000F023
:1014B00017F8050000F014F88542FBD000F010F892
:1014C00005002048006800F00FF800F009F8A84275
:1014D000E1D01C480068A0431A490860DBE770BDF2
:1014E00080B5FFF709FF02BD0138FDD87047000045
:1014F0000100144B00290CD001398822120200325D
:1015000051431A68C80AD20A5043800901D00138F1
:10151000FDD8704780E200E0082004400CBE0000C7
:10152000B0400E40002508000500200090400E400D
:1015300080091200F0400E400020044024200440A6
:10154000202004404C08002038B504009748056866
:101550002C719748286028682A1D964900F0E9F9FF
:10156000002032BD38B59148046893480568934817
:1015700020602068221D924900F0DBF9281D32BD51
:1015800070B50400894805688B4806682C718D4841
:10159000286028682A1D8C4900F0CBF9301D70BDE9
:1015A0002DE9F04704000D0016001F007F48D0F819
:1015B00000808148D0F80090F6B2FC2E06DB4FF494
:1015C000C570A9F8040019F104001CE0A8F8044053
:1015D000A8F8065088F80860F6B218F1090A320037
:1015E00039005046FCF7D0F9F6B2784810EB0620E7
:1015F000C8F80000D8F8000018F10402744900F09F
:1016000098F919F10400BDE8F0872DE9F0410400D4
:101610000D001600654807686748D0F800803C71E7
:10162000A7F80550FE716B48386038683A1D6A4962
:1016300000F07FF918F10400BDE8F0812DE9F041D8
:1016400004000D001600594807685B48D0F8008078
:101650007C603D727E726148386038683A1D60492E
:1016600000F067F918F10400BDE8F08130B583B0EF
:10167000FFF778FF050028880400A4B22300594A28
:101680000821684600F086F9684600F0A5F96B4627
:101690000200D2B200210720FFF782FF200080B2B3
:1016A00000F031FA00F060FB00F0DDFB37BD10B553
:1016B000040020684C4908404C49884212D04C49EB
:1016C00088421DD04B4988421DD04B4988422FD0BB
:1016D0004A49884206D04A49884241D0494988420D
:1016E0001AD04DE0FFF7C2FF00F0BDFB00F01EFD79
:1016F00045480078002802D00220FFF725FF3FE090
:1017000000F03BFD3CE0B4F805001A2803D114F1C9
:101710000A0000F049FD33E0B4F805000F2806D1B7
:10172000E079012803D12189207900F0A6FB27E088
:101730002079002805D0022809D005D3032809D034
:101740000DE000F0F3F90AE000F0F0FC07E000F033
:10175000A5FB04E000202D4909688847FFE70FE05A
:10176000B4F805001D280AD101202749087000227D
:101770001D212079FFF749FF2079FFF701FFFFE7DF
:1017800010BD70B504000D00160020480460002252
:1017900003215FF0FA70B0FBF6F04FF47A73B0FB00
:1017A000F3F0FFF74BFF002070BD0000A84E0020B3
:1017B0002001010139C60100AC4E002020000103C8
:1017C00005C601002001080445C7010020050A02E2
:1017D000B3C7010020040A04CDC7010020060C0095
:1017E00025C9010048BE0000F800FFFFA00001006D
:1017F000A0000800A0000A00A0000C00A000080142
:10180000A0000A02A0000A03784F0020944E002096
:10181000EFF3108072B67047002800D162B67047AF
:101820003D490A68100003D012680A6000F0EFBC5E
:1018300070473948006800B1001D70472DE9FC4130
:101840000F46064638780006144698460FD5A0196C
:10185000001D00F0CAFC304D30B30021016000E0F3
:101860000D4629680029FBD12860051D01E02B48A1
:10187000056832463946284600F0CBFCA4B10898EA
:10188000AD19022808D122464146284602B0BDE8DB
:10189000F041002300F0D9BD22464146284602B05F
:1018A000BDE8F04100F0B5BCBDE8F3811C49096812
:1018B00000E0896821B10A788242FAD1084670476F
:1018C00000207047E0B58278C078ADF808100006B7
:1018D00040EA024040F4087001900023012000908B
:1018E000002201A90620FFF7A9FF07BD38B504466D
:1018F0000D46FFF7DBFF60B90C2000F085FC10B946
:101900004FF4C17032BD0470456005490A688260B9
:101910000860002032BD0000BC4E0020AC4E00200C
:10192000C04E002010B582B0049C0094FFF786FFE3
:1019300013BD71B581B00D469DF806001446FFF742
:10194000B5FFF0B1290014D19DF804109DF80720CF
:10195000406801F0F80600E0083090B145682B00BF
:101960000FD0037803F0F803B34204BFC378934267
:10197000F2D1012000F0D5FF0B2808D24FF4C1713D
:1019800001E040F2831101A8FFF79CFF73BD2046E0
:10199000A84773BD08B400B584B005AB039300231A
:1019A000029311B90093019302E00090481E019048
:1019B00003AB6946074878441A3000F0D3FF00991A
:1019C00011B1009A00211170002858BF029804B08C
:1019D0005DF808FBAF68010000F10103810704D046
:1019E00010F8011B89B18107FAD10268B2F1013107
:1019F000914311F0803F04BF50F8042FF6E710F830
:101A0000011B11B110F8011BFBE7C01A7047FEE77C
:101A10000200880010EB421010F18440006870470B
:101A200038B504000D00E4B2002C01D13F2035E0B0
:101A3000E4B2012C02D14FF478402FE0E4B2022C42
:101A400002D14FF47C6029E0E4B2032C02D14FF4C0
:101A50007C4023E0E4B2042C01D100201EE0E4B27B
:101A6000052C01D1FF2019E0E4B2062C01D10020A1
:101A700014E0E4B2072C01D100200FE0E4B2082CFE
:101A800001D100200AE0E4B2092C01D1002005E0D8
:101A9000E4B20A2C01D1002000E00020284110F01F
:101AA000010029009E48E4B2302202FB04F21044F7
:101AB0001C30FFF7ADFF32BD2DE9F04104000D00F1
:101AC0001600984807689848D0F800807C603D72FE
:101AD0007E729648386038683A1D9549FFF729FFAD
:101AE00018F10400BDE8F0819249086070479248FF
:101AF0009249086070479248904908607047914841
:101B00008E490860704710B504000022002140F69D
:101B1000CC40FFF7D1FFA4B223008B4A40218B4871
:101B2000FFF738FF894801F089F910BD80B500F052
:101B30000FF800F05CF80022002140F6CC40FFF7DF
:101B4000BBFF01BD10B50400200001F09BF910BDE2
:101B500080B57A48006800280CD07D480068774935
:101B60000968884206D075480068794908600020F5
:101B70007849087076480068002837D074480068B3
:101B800000687449097810F81100002803D001207A
:101B900001F0B1FA02E0012001F099FA6C48006806
:101BA00000686C49097800EB41004078002803D0B8
:101BB000002001F0A0FA02E0002001F088FA654858
:101BC0000078401C634908706248007860490968E1
:101BD0000979884202D300205E4908705C48006899
:101BE0005549884202D100205949086001BD38B5E5
:101BF000002000F06DF8002801D0012400E000244E
:101C0000012000F065F8002801D0012500E0002542
:101C1000E4B2002C17D050480078002806D00020ED
:101C20004D49087000204D49088022E04B4800884B
:101C3000401C4A49088049480088322819DB0320A3
:101C400000F066F815E044480078002811D1012022
:101C50004149087041480088142803DA012000F047
:101C600057F806E03D480088322802DA022000F0EA
:101C70004FF8EDB2002D10D039480078002806D07A
:101C80000020374908700020364908801FE0354899
:101C90000088401C3349088019E03148007800284A
:101CA00015D101202E4908702E480088142803DA27
:101CB000052000F02DF80AE02A480088322803DACF
:101CC000062000F025F802E0072000F021F831BDE1
:101CD00010B50400E4B2002C02D0012C0BD015E0AA
:101CE00006210520FFF79CFE002801D0002000E01F
:101CF0000120C0B20BE007210520FFF791FE00286C
:101D000001D0002000E00120C0B200E0002010BDA2
:101D100010B504002000C0B206490968884710BD0C
:101D200000A00040A84E0020AC4E002020060C0071
:101D300025C90100984E0020500800209C4E00202C
:101D4000780800208808002070BE0000FC490020B0
:101D5000900800207A4F0020ED0C0020664F0020F4
:101D6000EE0C0020684F002080B50FF25100FFF705
:101D7000BBFE00F012F8002802D10D48FFF7E2FE8A
:101D800001BD10B582B004000020009023006A4617
:101D90008021084801F003FA16BD80B50022802199
:101DA000044801F037FA044908700348007802BD7E
:101DB00050BE000000C00040794F002010B5040064
:101DC000E4B2012C01D100F0C7F910BD2DE9F047B4
:101DD00004000D0016001F00B448D0F80080B4487D
:101DE000D0F80090F6B2FD2E06DB4FF4C570A9F8CE
:101DF000040019F104001CE088F80440A8F805501C
:101E000088F80760F6B218F1080A32003900504627
:101E1000FBF7BAFDF6B2A74810EB0620C8F80000A1
:101E2000D8F8000018F10402A349FFF782FD19F168
:101E30000400BDE8F0872DE9F04104000D00160014
:101E40009A4807689A48D0F800807C603D727E729C
:101E50009A48386038683A1D9949FFF76AFD18F1C9
:101E60000400BDE8F08180B5FF209649087001228A
:101E700002210020FFF7DFFF01BD38B504000D008F
:101E8000ADB2002D04D08F48047000F007F804E0D4
:101E9000012202210020FFF7CEFF31BD10B586B030
:101EA00088480078FF2818D0684600F04FF80400F2
:101EB0006B462200D2B20F2182480078FFF786FFDE
:101EC000012202218048C0894FF4004358434FF457
:101ED0007A73B0FBF3F0FFF7AEFF06B010BD10B49D
