S00F00006E6F6465746573742E7333377F
S315000040004863002045E30100A5A4000029E3010060
S31500004010A70A0A010042000004180CAC00629300D3
S31500004020000000000000000000000000000000008A
S3150000403000000000280E0200000000000000000042
S315000040400000000000000000FFFFFFFFFFFFFFFF72
S31500004050FFFFFFFF00D0030000000000000000008B
S31500004060FFFFFFFFFFFFFFFF100000000000000042
S31500004070000000000000000000000000000000003A
S315000040800000000000000000B87F0020B87F00207C
S3150000409048630020582702000EE50100E859002079
S311000040A02C11002000F0030000000000BE
S315000042004863002045E30100A5A4000029E301005E
S3150000421031E301002DE3010035E3010041E3010034
S3150000422041E3010041E3010041E3010041E30100F4
S3150000423039E3010041E3010041E30100A5B10000BB
S3150000424029240100016501001F5B00008164010053
S315000042505565010003650100536501007F64010097
S315000042602D990100D7800100CB4501004B9B000032
S3150000427041E3010041E3010027E1010041E30100C0
S3150000428041E30100F580010041E3010041E3010043
S3150000429041E3010041E3010041E3010041E3010084
S315000042A041E3010041E3010041E30100956501009E
S315000042B0B56501003522010041E3010041E301003B
S315000042C041E3010041E3010041E3010041E3010054
S315000042D041E3010041E3010041E3010041E3010044
S315000042E07149724A01E021B1491E1369DB07FAD40C
S315000042F001B9BAE0506001201060106910F0060F95
S3150000430005D0410700D5B3E0800700D5B3E0002013
S315000043107047F0B513460022002936D0624C634D33
S315000043208BB98B4231D250F8046BEE605B1C0826C9
S315000043302E60264601E036B3761E2F69FF07FAD4B3
S31500004340002EEED11FE0EFF3108672B600230EE0CA
S315000043502F6907F01907102F08BF2F602F693F0735
S31500004360F6D550F8047BEF605B1C10272F608B425C
S31500004370F4D306B962B6264601E026B1761E286950
S31500004380C007FAD40EB96FF002021046F0BD2DE94F
S31500004390F84F474F0D4639680446002041F00101A9
S315000043A09B4639604FEA92088146AA4602E0B1442C
S315000043B00AEB860AC14517D204EB89063046FFF799
S315000043C08FFF010022D1C6F30A00C0F500608608FF
S315000043D0A8EB0900B04238BF06465A463146504659
S315000043E0FFF797FF0100E2D021682A68914209D0C1
S315000043F02046FFF775FF010004D15A4601212846E1
S31500004400FFF787FF3968490849003960BDE8F28F30
S315000044102749254A0B6843F001030B608860012099
S3150000442048604869400704D50868400840000860AD
S315000044301EE04869800704D5086840084000086007
S3150000444019E00220486001E022B1521E4869C00707
S31500004450FAD422B9086840084000086005E00868F8
S31500004460400840000860002070476FF00200704767
S315000044704FF0FF3070476FF001007047002386E76A
S315000044800B48016841F00101016046F21A31C1642E
S315000044904FF4807141604169C907FCD40021C164B1
S315000044A00020704700000000809698000C000E4027
S315000044B008000E4070472DE9F047DFF850580FF21C
S315000044C09C010FF2945A0FF28058DFF84498044684
S315000044D0287800F0F5FD0027E4A603E000F083F954
S315000044E07F1CBFB2206800EB07114A6828781300CA
S315000044F01AD04A4509D14A69130018BF4A45EFD078
S315000045000A68414600F0DCFDEAE78B680A68514616
S3150000451000F0D6FD206800EB0710C2682878002A54
S31500004520DCD00FF23C51EDE70FF2AC0100F0C8FD14
S3150000453028780FF2CC0100F0C3FD28780FF2F001C5
S3150000454000F0BEFD28780FF2141100F0B9FD2878AE
S315000045503146BDE8F04700F0B3BD0000434F4D4D76
S31500004560414E44205B504152414D45544552535DA6
S31500004570205B2D204445534352495054494F4E5DCC
S315000045800D0A202077686572653A20623D6275667D
S315000045906665722C2073313D696E74385F742C2009
S315000045A073323D696E7431365F742C2075313D75FA
S315000045B0696E74385F742C2075323D75696E74317E
S315000045C0365F742C2075343D75696E7433325F74B2
S315000045D00D0A0D0A0000000020202120202D205267
S315000045E06563616C6C7320746865207072657669AA
S315000045F06F757320636F6D6D616E640D0A00000048
S3150000460020205B7461625D202D20417474656D709D
S31500004610747320746F2074616220636F6D706C65B3
S31500004620746520636F6D6D616E640D0A0000000095
S31500004630202020202A2A204E4F54453A20616C6CB7
S3150000464020696E7075742076616C75657320617271
S315000046506520696E20686578210D0A0020202020DB
S315000046602A2A20436F6D6D616E6473206172652026
S315000046704E4F5420636173652073656E7369746968
S3150000468076650D0A00000000A0F141011A293CBF21
S315000046902030C0B270472DE9F84F0546DFF8741692
S315000046A0A86800680968DFF86476C0B200240E5C6A
S315000046B0212EA04607DB38780FF2CC01BDE8F84F73
S315000046C0202200F0FDBC00F01BFD8246A14607E05B
S315000046D01AF80900FFF7D8FF0AF8090009F10109DD
S315000046E0B145F5DB32460FF2E401504600F084FF97
S315000046F040B94FF0010805E038780FF2D8015A4664
S3150000470000F0DEFC296820010A185268130039D02F
S31500004710DFF8FC95641C4A45A4B2F3D151F800B009
S31500004720B8F1000FE8D1584600F07AFFB042E9D15F
S3150000473032465146584600F053FF0028E2D1BFA644
S315000047400FF21C380FF2940A03E000F04CF8641CD8
S31500004750A4B2286800EB041041680A0018BF494556
S3150000476010D0836802683878514600F0A9FC2868A2
S3150000477000EB0410C2683878002AE6D0414600F003
S315000047809FFCE4E7BDE8F18F4572726F723A206CC8
S3150000479069737420617267756D656E7420746F6FCE
S315000047A0206C6F6E672C207765206F6E6C79207396
S315000047B07570706F727420757020746F2025752067
S315000047C062797465732E0D0A000000006D6F6475C2
S315000047D06C65730025700D0A000000002570202509
S315000047E0700000002078314600F06ABC70B50446BF
S315000047F088B0A068016801B10121DFF81C55297055
S31500004800406800B10120DFF8146530700FF26000D7
S3150000481001F021F9A068C16801B10121DFF8002586
S315000048201170006900B10120DFF8F81408700878EB
S315000048302B78079004F111010FF25C0006901078B6
S315000048400FF25C0205900FF26000049001200390C5
S315000048507BA00290307801900FF2540000900FF286
S31500004860580001F0F8F808B070BD00000D0A00000D
S315000048705475726E696E67206F6666207461677321
S31500004880206E6F742079657420737570706F727402
S3150000489065640D0A0000000074657874000000006D
S315000048A0686561646572000064656C696D0000008E
S315000048B0636F6D6D616E64007B264E205665726275
S315000048C06F73697479206F7074696F6E7320736586
S315000048D07420746F3A0D0A2674750D0A2674750DC8
S315000048E00A2674750D0A2674750D0A2674757D0DD3
S315000048F00A000000DFF83014007C51F82020DFF8B1
S315000049000C040FF20801007800F0DABB4349204599
S3150000491072726F723A2025700D0A000038B5DFF802
S31500004920EC43207845A500F053FA20780FF23401C5
S3150000493000F0C6FB00F04BFA20780FF24C0100F0B5
S31500004940BFFB20783FA100F0BBFB20780FF24401AB
S3150000495000F0B6FB20780FF24801BDE8344000F0C5
S31500004960AFBB0000456D626572204E6F64652054D2
S31500004970657374204170706C69636174696F6E2031
S3150000498076312E3000000000466562203232203239
S315000049903031380031353A34373A333100000000CF
S315000049A00D0A0D0A000000002DE9F24F044682B000
S315000049B0256BDFF858B39046002705E01FA100F0ED
S315000049C07FFB7F1CBFB210356868A8B3D5F800908E
S315000049D0DDF808A000260DE01AF8010BFFF754FEDB
S315000049E0009019F8010BFFF74FFE0099C9B28142FA
S315000049F0E7D1761CB0B24045EED32068C44E00EB3A
S31500004A0007114B680A689BF80000B34204D10FF205
S31500004A10380100F055FBD4E78B680FF23C0100F03B
S31500004A204FFB206800EB0710C2689BF80000002AC5
S31500004A30C4D00FF22C01ECE7BDE8F78F0D0A000099
S31500004A40746167002C2000002D2D2D2D202570204F
S31500004A502D2D2D2D0D0A00002020257020257000FB
S31500004A60202D2025700D0A002DE9F0439BB00EA8DD
S31500004A700FF2B821342201F01FF84FF000098DF82B
S31500004A800190A52001F069F801F0ACF800F091F969
S31500004A90002001F0D5F9050005D000F085F90020C9
S31500004AA001F0CEF9054600F084F9012001F0C8F9BD
S31500004AB0060005D000F078F9012001F0C1F906469C
S31500004AC000F077F9022001F0BBF95FEA000805D093
S31500004AD000F06AF9022001F0B3F9804601F04AFAC3
S31500004AE08A4C5DB1002E74D0B8F1000F77D04FF428
S31500004AF0FD710FF26C2001F043FA04E0002E18BF9E
S31500004B00B8F1000F6ED084F80090201D01F068FB0C
S31500004B10201DFFF703FF0FF2582520780FF25828C3
S31500004B2000F056F920780FF2C02100F0C9FA74A6F9
S31500004B30FFF758FE201D01F0CBFD00F048F9207864
S31500004B400FF2B02100F0BCFAFFF74CFE201D01F079
S31500004B50DCFD00F03CF920780FF2A42100F0B0FA59
S31500004B60FFF740FE201D01F04CFE00F030F92078E2
S31500004B700FF2982100F0A4FAFFF734FE201D03F08F
S31500004B80F5F800F024F920780FF28C2100F098FA5D
S31500004B90FFF728FE201D03F0FEF800F018F9207834
S31500004BA00FF2DC1100F08CFAFFF71CFE201D04F05A
S31500004BB0D7F900F00CF920780FF2D41100F080FA42
S31500004BC0FFF710FE201D04F004FB4EA54EA601AF14
S31500004BD03FE0B8F1000F05D00120207095E70220D4
S31500004BE0FBE725702078FF288FD1002569462846E7
S31500004BF001F074F938B99DF800000D2818BF0A288D
S31500004C0018BF2A28EDD06D1CEDB2032DEEDBE9E7C7
S31500004C108DF800009DF800107A5C481C0A2A18BF1F
S31500004C200D2A18BF002AF3D10D227A548DF8000000
S31500004C3001A99DF80020201D01F0DEFA9DF8002054
S31500004C4001A90EA800F082FC9DF8009000208DF8C6
S31500004C50010000F0B8F820780DF10103322201A915
S31500004C6001F041F90028D3D000F074FF01F0A4F858
S31500004C7003F098FB04F0ACFA9DF8010020B39DF810
S31500004C80011001A8084410F8010C09281CD1FFF7EF
S31500004C90A9FD9DF80100401E8DF8010001A99DF8AF
S31500004CA00120201DFFF780FE9DF80110002078549A
S31500004CB000F089F8002004E000F080F89DF800007C
S31500004CC0401C00F069F8F7D39DF804002128C2D1F2
S31500004CD0FFF788FD4A460EA901A800F037FCA9F1A6
S31500004CE001008DF8010000F06EF8002000F054F885
S31500004CF0B1D200F063F89DF80000401CF6E7000012
S31500004D005D0D0A00256300000D0A00001C650020E9
S31500004D10B54400001C660020E6670020E767002017
S31500004D20E8670020E9670020406700200D000000CA
S31500004D30000000000000000000000000000000006D
S31500004D40000000000000000000000000000000005D
S31500004D50000000000000000000000000000000004D
S31500004D60706C6174666F726D746573742E63000087
S31500004D705B494E49542000000D0A3E200000000009
S31500004D80736574506572546573745478000000003E
S31500004D90707232496E666F008DF800009DF8011042
S31500004DA09DF8000088427047012300224FF4164107
S31500004DB07047012300224FF4E13170473A5C2078B6
S31500004DC0294600F07DB94146207800F079B920786F
S31500004DD0294600F075B980B504F0E7FBBDE802404E
S31500004DE0002041E6002070476372617368696E6651
S31500004DF06F0000007265736574737472696E670084
S31500004E00696E6974546F6B656E730000696E6974C0
S31500004E10526164696F00000073656564506E726765
S31500004E200000000070B51346104402E0A4192C706F
S31500004E305B1EDCB24CB101F00F060909451E0A2EB5
S31500004E402846B4BF30243724F0E7104470BDF0B5CF
S31500004E50002341B1002806D501232D21B0F1004FD2
S31500004E60117018BF4042002100240FF2702555F83A
S31500004E702470002601E0C01B761CB842FBD2F7B2B4
S31500004E800FB90F0005D0DBB206F13001D1545B1C1F
S31500004E900121641C092CEADBDBB23030D054581CEB
S31500004EA0C0B2F0BD2DE9F24F804696B013A801902E
S31500004EB0154603A89B4603AE002700248DF8000084
S31500004EC00BE0012405460198864205D300F0DCF884
S31500004ED000284FD100F0CEF86D1C9DF8000029780F
S31500004EE0301A0A000BD0252903D014B906F8011B85
S31500004EF0E9E7002C14BF00246D1C29780A0000F095
S31500004F00AF80B1F1250216D00B3A092A40F289800A
S31500004F10283A7DD00A3A12D0521E41D0521E5FD096
S31500004F20083A5DD0121F3ED0D21E3CD0921E57D0FA
S31500004F30D21E6DD0C7E7252006F8010BC3E7DBF8C4
S31500004F40000002904FF0000A0BF1040000F1040B80
S31500004F50D0F80090CA45B6D2029810F80A1002227C
S31500004F603046FFF75FFF06460198864205D300F0FC
S31500004F708BF800287AD100F07DF8A9F1010082456E
S31500004F803CBF202006F8010B0198864205D300F0AD
S31500004F907BF800286AD100F06DF80AF1010AD9E71A
S31500004FA05BF8040BC8E75BF8049B00F067F8002881
S31500004FB05CD100F05FF84FF0000A01E00AF1010A47
S31500004FC05FFA8AFA19F80A000028F7D19DF8580006
S31500004FD052464946C047002848D15744FFB272E7B7
S31500004FE06C290AD16A785BF8040B752A0EBF00217A
S31500004FF00121642A07D16D1C05E075295BF8040BB5
S315000050000CBF002101213246FFF721FF36185AE76F
S315000050105BF8041B0222C9B23046FFF703FF0646BF
S3150000502051E76A780124782A18BF582AF8D16D1CEE
S315000050300024681E322904D15BF8040B042281B2D5
S31500005040EAE734297FF43DAF5BF8049B04224FEA7C
S3150000505019413046FFF7E6FE04221FFA89F1DCE724
S3150000506000F00CF810B9F019C0B200E0002017B03B
S31500005070BDE8F08FF719FFB203AE704706469DF8FC
S315000050805800F2B203A940479DF80000361A9DF871
S315000050905800F2B203A9404701A111E00000000048
S315000050A00D0A00000CB438B5044604AA00F010F846
S315000050B005462046FFF7F0FF284632BC5DF80CFB9C
S315000050C00CB480B502AA00F003F802BC5DF80CFB34
S315000050D080B504F0B5FFC0B202BD000000CA9A3B1D
S315000050E000E1F5058096980040420F00A086010079
S315000050F010270000E8030000640000000A0000001A
S31500005100DFF81814096801EB40107047DFF8102427
S315000051101268115470472DE9F041040035D005F0AE
S31500005120BFF8DFF80014DFF800340E78FF2280465F
S31500005130FE2EDFF8F8031BD100260E70DFF8F0C351
S31500005140DFF8F06337781F70002708E007F1010EDB
S3150000515005F807E0DCF80050EA555FFA8EF796F896
S3150000516000E005687745F1DB05EB0E0606F8012C35
S315000051701E78A6420BD2404605F098F8052005F0A9
S31500005180CFF800211B2005F04FF9FF201EE0361B4B
S315000051901E70DFF8A4330E780F78D3F800E00125EF
S315000051A00EF80750641E056815F807E081F800E060
S315000051B05FFA84FEBEF1000FEED1EA5500213046BB
S315000051C0FFF7A4FF404605F071F83046BDE8F081D0
S315000051D02DE9F041054600F031F8044605F060F887
S315000051E0DFF84023DFF84033DFF84063DFF8488319
S315000051F0FF2D1FD0D8F800104F5D7F1E4F557F271B
S31500005200D8F800E01EF80510394213D13168495D1F
S3150000521000270EF805701F787F1C1F70FF2937685E
S3150000522092F800E007F805E0157006BF2546FF2452
S315000052300D46DDE7BDE8F04105F038B880B5DFF88A
S31500005240F8120968095C090603D5FFF759FF0078CB
S3150000525002BDFF2002BD70B504460D4605F11F00D4
S315000052600004400D82B0C0B2FFF755FF0646FF2E80
S315000052700CD02946FFF74AFF3CB1012000902B468F
S3150000528000223146204600F002F8304676BD73B55E
S3150000529000F0D0F8405C15461E467119884203DAC4
S315000052A040F2651100F0EBF830000CD0294601A859
S315000052B000F0E9F8024606989DF80410009033467F
S315000052C0204600F001F873BD2DE9F843089CDFF88D
S315000052D05C820546894616461F460BE06A5C4254C8
S315000052E0491CB142FADBD8F80000BF1BAD1910F813
S315000052F009900026F8B2D0B14846FFF701FF8019A1
S3150000530056FA87F12029B9BFFFB23E46C6F12006FC
S31500005310F6B22100324604D10146284600F016F9BD
S31500005320E1E7012C08BF2946F8D00021D9E7BDE8FE
S31500005330F1832DE9F04100F07DF882B0055D8846E5
S3150000534016467119C9B2A9421F4605DB30000CD0BA
S31500005350204600F05DF808B1182007E000973346B4
S315000053602A4621464046FFF792FF0020BDE8F68117
S315000053700123DEE70A4600E0521C1378002BFBD11E
S31500005380521A0223D2B2D4E72DE9F041054601F1C3
S315000053901F00C70402F11F00C0043F0E000E07B92C
S315000053A0012700B9012087422CD0DFF880411BDAA3
S315000053B0C01BC0B2FFF7AFFE8046B8F1FF0F08BFB3
S315000053C0002020D07F1E00F020F82668305CFF28E1
S315000053D004D000F01AF8305CFFF7FAFE00F015F87A
S315000053E0216801F800800DE08A420BD2411EC9B245
S315000053F000F00CF805462068405DFFF7E9FE2168DD
S31500005400FF2048550120BDE8F081F9B2284616E094
S3150000541038B500F00FF80D46015D2A462046FFF725
S31500005420B3FF28B129462046FFF770FE002032BDA3
S31500005430182032BD0446DFF8E8000068704704E033
S31500005440DFF8E8201268105C491ECAB2002AF7D1BC
S31500005450704711B50C46DFF8C810096881B0095CC1
S315000054608C4203D340F2012100F009F8214601A83D
S3150000547000F009F8044600F04EF8204416BD0FF27D
S31500005480BC0000F07DBD38B504460D46E904207821
S31500005490090EFFF7D4FF207005F01F0032BD80B55E
S315000054A0FFF7D7FF007802BD10B51446FFF7D1FF0E
S315000054B0047010BD2DE9FC4405B40A9C20001F466B
S315000054C027D089B26846FFF7DEFF0646B9B201A8C3
S315000054D0FFF7D9FF0746BE42A8BF3046A4B2C0F1C7
S315000054E020002546C0B2A842B8BF054600F013F812
S315000054F082469DF80000FFF703FE2A460AEB0701E5
S31500005500304400F023F8641BA919EF19A0B2002853
S31500005510D7D1BDE8FF849DF80400F1E518660020A8
S315000055201C660020F4670020F06700202466002037
S3150000553028660020EF670020206600207061636BFC
S3150000554065742D6275666665722E6300814233D27C
S3150000555010441144401E491E10E011F8013900F8AC
S315000055600139121F11F8013900F8013911F8013912
S3150000557000F8013911F8013900F8013992B2042A0C
S31500005580EBDA93B2002B1EBF11F8013900F801398E
S31500005590521EF6D1704711F8013B00F8013B121F6D
S315000055A011F8013B00F8013B11F8013B00F8013B03
S315000055B011F8013B00F8013B92B2042AEBDA93B2F0
S315000055C0002B1EBF11F8013B00F8013B521EF6D11D
S315000055D07047130003D00A46194604F02FBF7047E0
S315000055E010B500E0521E93B223B100F012F8F9D0C4
S315000055F0181B10BD002010BD10B500E0521E93B25E
S315000056002BB100F006F8F9D0181B40B210BD0020EF
S3150000561010BD10F8013B11F8014BA3427047000082
S3150000562000F10103810704D010F8011B89B181073D
S31500005630FAD10268B2F10131914311F0803F04BF03
S3150000564050F8042FF6E710F8011B11B110F8011BF2
S31500005650FBE7C01A7047000038B50446611D206A92
S315000056602368451A2079EAB2984708B1002032BD6E
S3150000567000F018F8601D2062012032BD38B50446DE
S31500005680002500E06D1CEDB2485D0028FAD12079B6
S3150000569023682A46984718B900F004F8012032BD5D
S315000056A0002032BD94F82900281884F82900704794
S315000056B02DE9F04F804608F1200785B008F1050076
S315000056C038600E4608F11500786091460020787221
S315000056D0DFF8B44313E018B108F105003860164648
S315000056E025B17D2000F0A0F901F8010D3868796830
S315000056F0884203D300F096F9002862D0761C3078F1
S31500005700010000F075812528617818BF262809D088
S315000057107B281CBF7D28232802D10029E6D0E1E79B
S31500005720A178FAE716F8012F252A18BF262A04D1F0
S3150000573000F07AF901F8012DD8E726280BD151B1EE
S3150000574001256E2A18BF4E2A06D000F06DF97B207F
S3150000575001F8010D00E00025317800204E2906D021
S31500005760542923D06E2902D074291FD032E0207824
S3150000577059F804BB0028B9D035B138687B210170CF
S31500005780811C39602821417000F04CF9002818D09E
S3150000579000F03BF9002814D0002DA7D03868292145
S315000057A00170811C39607D2141709FE700F038F956
S315000057B0002806D000F029F9002802D000F032F9BE
S315000057C0002800F07C8000F02FF93A2001F8010D46
S315000057D0761C0120317896F801E0A1F13002D2B2B0
S315000057E0911E05293CD2BEF1640F18BFBEF1750F9C
S315000057F036D159F804CB002301211FFA8CFCBEF1E7
S31500005800640FE24609D15FEA0C4E06D56FEA0C0C2E
S315000058100CF1010C01231FFA8CFCBCF1000F0AD01D
S315000058204FF00A0E9CFBFEFC5B1C1FFA8CFCBCF1C5
S31500005830000FF5D10BE05B1C09E0D7F800E00EF194
S31500005840010EC7F800E04FF0200C0EF801CD9C4683
S315000058500CF101035FFA8CFC9445EEDB761C00E04C
S3150000586000213378721E002B00F0BE80322B18BF49
S31500005870342B00F09580482B06D0582B0FD0632B85
S315000058800FD0642B1FD0682B00F07F806C2B52D07A
S31500005890702B18BF732B0BD0752B14D0782B76D0AA
S315000058A019E73868411C396059F8041B017017E77D
S315000058B000F0B6F818B100F0A8F80028F7D10020DB
S315000058C005B0BDE8F08F002919BF1FFA8AFA5146C4
S315000058D059F8041B89B229B900F0A6F8302001F85E
S315000058E0010DFDE60020642B0DD10A040BD53B68A3
S315000058F05B1C3B602D22B1F5004F03F8012D02D051
S31500005900494289B259B10A2291FBF2F20A23C0B286
S3150000591003FB12110DF80010401C91B2F2E701468C
S31500005920481EC9B20029DCD0C0B23A681DF8001082
S3150000593000F065F8F3E759F8041B0029CCD00020E5
S3150000594000290AD53B685B1C3B602D22B1F1004F54
S3150000595003F8012D01D0494259B10A22B1FBF2F2F6
S315000059600A2303FB121102ABC0B21954401C1146A4
S31500005970F2E70146481EC9B2002910D002A9C0B2FA
S315000059803A68095C00F03BF8F3E700F041F80222C0
S3150000599059F8041B3868C9B2FFF744FA38609FE625
S315000059A016F8010F682818BF48280BD100F030F808
S315000059B016F8011C386832290AD159F8041B04224A
S315000059C089B2E9E7782818BF5828F1D0761E87E60D
S315000059D059F804BB04224FEA1B41FFF723FA38604B
S315000059E004221FFA8BF1D7E701007FF474AE76E646
S315000059F000F018F800283FF462AF787A60E7521C8E
S31500005A003A60303102F8011D70475946404635E686
S31500005A10386830210170811C3960782141707047E7
S31500005A2059F804BB404617E63968491C3960704787
S31500005A300EB410B5154909788BB0002409B90020B9
S31500005A4008E000F019F801466846FFF731FE00B994
S31500005A50012420460CE00EB410B58BB000F00CF813
S31500005A60002401466846FFF723FE00B901242046BC
S31500005A700BB010BC5DF810FB054900910DAA054955
S31500005A8009788DF804107047E7670020E667002064
S31500005A906DA000001C65002062B38B0708D0521E63
S31500005AA011F8013B00F8013B00F024808B07F6D18A
S31500005AB0830740F0208000BF103A07D330B4B1E826
S31500005AC03810103AA0E83810F9D230BC530724BF7A
S31500005AD0B1E80810A0E8081044BF51F8043B40F8AC
S31500005AE0043BD20724BF31F8022B20F8022B44BF17
S31500005AF00B7803707047083A07D3B1E80810083AE4
S31500005B0040F8043B40F804CBF7D25307E4E7000023
S31500005B10890001EB401000F184400068704704F0F2
S31500005B20C1BC80B50121284804F06AFD0421072084
S31500005B3005F0DEF825482649264A01600421116051
S31500005B40022141620421244A1160816A41F0020166
S31500005B50816201BD1D4805F03DB9A52800D07047FA
S31500005B6080B500F005F810B11C490020086001BDA1
S31500005B701648006810F0010018BF0120704738B5BC
S31500005B8004460D4600F015F82A4604F00F0101B050
S31500005B9003462005BDE83040000E05F08BB900F045
S31500005BA00F010005000E30230D4A584310441C30E7
S31500005BB0AEE700F00F010005000E3023084A5843F7
S31500005BC010440C30A4E70000000508000020054042
S31500005BD00108030080E200E000E100E00000A442CA
S31500005BE000A0004080B501217F4804F009FD7F49EF
S31500005BF001200860002005F01BF901230422022180
S31500005C00052005F057F9012004F054FB00F00FF8C9
S31500005C1004F081FB05F042FA0123402274490FF299
S31500005C20102005F009FA73490860C00F02BD10B5CF
S31500005C3001220121042004F00BFF6F486F4C01681C
S31500005C4041F0010101600022C16841F08071C1602C
S31500005C5000236B496B4808606B4802606B4A13600F
S31500005C600223236015236A4C236000230364694BD7
S31500005C700B65694911604FF48071684A11600168CB
S31500005C8041F48071016010BD80B560480168C907A4
S31500005C900ED563490A6822F440620A600168490821
S31500005CA04900016001680902FCD4642005F013FA7A
S31500005CB000220021042004F0CBFE50490020086099
S31500005CC0564908604C49086001BD4B48006800B160
S31500005CD00120C0B27047D12202704170090A81705A
S31500005CE050490A78C270501C0870042070472DE98C
S31500005CF0F84FDFF834A1DFF834810446DAF8000003
S31500005D00005D461D05F02CFAF6B2002500904FF610
S31500005D10FF7B18E0A91EC9B22046FFF7C0FB074665
S31500005D20594605F04BFA83464D4638480068C00789
S31500005D3009D535480068C00505D5D8F80000002803
S31500005D40FBD088F80070FFF7C0FFEDB228B3B5426C
S31500005D5023DA05F005FA0099401A80B2B0F5FA7F09
S31500005D601BDC15B95B270125DFE7012D05F10109CC
S31500005D7003D1DAF80000075DD6E7F01E854208BFBA
S31500005D805F46D1D0B01E854208BF4FEA1B27CBD055
S31500005D90701E8542BED15D27C6E7B5420CBF002006
S31500005DA00120BDE8F28F20490968095C0429A8BFD3
S31500005DB0FFF79DBF0120704710B50E48006890B0F0
S31500005DC04022694605F023F958B1C1B26846FFF78B
S31500005DD042FA04462146122005F0C3FA2046FFF790
S31500005DE0F7F910B010BD0000002508001088144215
S31500005DF0E872002014660020F0ED00E0F00004E0F8
S31500005E00B00F00E055CEACC5000E00E0800E00E0FD
S31500005E10100004E0FF0300400D000100040304E04D
S31500005E20001000E0AD7F00201C660020200000E08E
S31500005E3073696C6162737675617274646F776E00F4
S31500005E402DE9F04104460125200094B00F46904606
S31500005E501E4606D001281DD0102802D0202819D0B1
S31500005E6029E0002103F0E6FE0546012C18BF202C90
S31500005E7008D0022C18BF212C04D0032C1CBF222CC6
S31500005E80232C25D1012E0197ADF80C8015D14FF4A6
S31500005E90805016E00AA80FF2B8012422FFF70CFE84
S31500005EA068460AA92422FFF707FE1020ADF8240051
S31500005EB0ADF82600D9E701200BE0022E03D14FF4FE
S31500005EC04050ADF80A006946204603F0B3FE054689
S31500005ED0E8B214B0BDE8F08103F06DBF80B503F001
S31500005EE075FFC0B202BD80B503F0C2FFC0B202BDED
S31500005EF070B582B0044600200D4616468DF80000A7
S31500005F0001E0FFF727FE6B46324629462046FFF79B
S31500005F10EAFF0028F5D176BD80B504F034F8C0B2AA
S31500005F2002BD80B504F042F9C0B202BD0CB480B522
S31500005F300A46014602AB0448FEF7B4FF02BC002045
S31500005F405DF80CFB0000000031A100007047000066
S31500005F500000014000C20100000000100000000027
S31500005F600300020003000000000000000000000023
S31500005F701E1E0000002080F31188704742DE704725
S31500005F8038B504460D4605F036FDFFF7E3FD05F08E
S31500005F900DFF2946204605F025F92B4622460FF22D
S31500005FA0CC110120FFF7C2FF29462046BDE8344048
S31500005FB0E4E765482DE9F047644D01682E1D4FF46E
S31500005FC020687165016AB16561490A68F2654968C8
S31500005FD03166416A7166816AB166C16AF166016BB2
S31500005FE03167806B706796F8340040074CBFF46BDE
S31500005FF0B46B05F07EFF0022F2648442554A0146E6
S3150000600024BFA2F1200AA2452746316505F1900377
S31500006010DFF844C1DFF844E118D3A0693064E469CD
S315000060207464746DC4F30804062C13D1704511D33F
S3150000603060450FD200884DF64264A0420AD130680E
S31500006040586040F201787068986003E00027376472
S31500006050776407464248814202D2014600E0091DA4
S315000060600846904203D20C68B4F1CD3FF7D03D49C3
S31500006070081AB0640021002005EB8004401C0628A5
S31500006080E167F9D3002003E0C0B205EB8004E167C5
S31500006090974223D252F8041D7145F9D36145F7D2D0
S315000060A0CC07F5D5002405EB8409D9F87C90894501
S315000060B002D0641C062CF6D3062CE9D1002814BFA6
S315000060C0401E0520E0E7B16F002405EB8402641C46
S315000060D0D2F88070D767052CF7D319600146481EA1
S315000060E0C9B20029EFD1706DC0F30800032810D0A3
S315000060F0042811D0052812D0062813D00C2817D052
S31500006100122818D118480068800719D540F202589D
S3150000611016E040F6012813E040F6022810E040F6AB
S3150000612003280DE0B8F5206F0AD140F6042807E0F1
S3150000613040F6052804E018B1322838BF40F6072893
S315000061404046BDE8F087000004ED00E000000020B6
S3150000615000E300E0486300200EE50100B4440000BF
S315000061609C000020486300201C2005400D0A5B416E
S3150000617053534552543A25703A25645D0D0A000082
S315000061802DE9F8430446DFF8B8030068055D0026EC
S31500006190E807B14648BF002020D400270FF2C848C0
S315000061A002E04FEA00197F1CFFB2AF4211DA39460E
S315000061B02046FFF774F9F90718F8000000F00F0001
S315000061C0EFD549EA0002F1B22046FFF76DF9761CD9
S315000061D0E9E7F1B22046FEF799FF0120BDE8F28318
S315000061E000F12401FF228A700022C273C2830A7062
S315000061F082730068C86070472DE9F74F82B00020AF
S315000062008DF801000298041D00F1240508E0607A6B
S3150000621068720120E07202999DF8000000F0A2F970
S3150000622003980027002660BB9DF810006946FFF71B
S3150000623055FE002839D0262826D00298012100F0E4
S3150000624083F978208DF80000B046102700208DF8DD
S315000062500100E07A0828E3D8DFE810F00A004B00D6
S315000062608E00E900E9003B014701AC009D00D7E73D
S31500006270102FCCD09DF80000232836D10820E072DC
S31500006280CEE79DF8100020B99DF8010005B0BDE8E5
S31500006290F08F0398401C0390401E00788DF8000094
S315000062A09DF81000401E8DF81000B0469DF80000C5
S315000062B067280FD29DF800100FF2AC30405C00F05A
S315000062C0300700F00F08400607D5687A804504DAE3
S315000062D0012602E07B2838BF10279DF800000A2817
S315000062E018BF0D28B2D10120B1E7202F98D0032086
S315000062F021E1102F1CBF9DF800005F2800D01EB1C1
S3150000630028780C28F3DA86E7202F18BF302F3ED1E5
S3150000631002992A781144002048744FF00009E86871
S315000063200BE01AF8010B00F016F91BF8011B81426D
S315000063300DD00198103009F10109019001984068CB
S3150000634028B30198D0F800A0029800F1110B9BF831
S3150000635000000028E5D19AF800000028E9D1A4F849
S315000063601A90E868618B00EB01108068E0610020FC
S31500006370A07228700220E072607A68726EB32B20D9
S315000063802872C5F80480607A6872042077E70321D2
S31500006390029800F0D9F89DF80100002809D0207B6A
S315000063A020B1029821688847002020730298FFF7E1
S315000063B017FF35E79DF8010018B1029800F0DEF8E6
S315000063C0F4E79DF80000232803D1029800F0D6F8E0
S315000063D054E7202FEDD00420ADE09DF800002D28D5
S315000063E018BF2B2806D1287200206860607A687270
S315000063F0032044E722280AD10120FEF78CFEFF285D
S31500006400A8700BD00021FEF781FE052037E77B2818
S31500006410D0D10120FEF77FFEFF28A87000F08A8009
S315000064200021FEF773FE10206872062027E73EB1B2
S315000064306868697A01FB00800421E1726860EFE612
S315000064409DF80010782918BF582904D16A6812B936
S3150000645010206872E4E6742918BF542903D16968CC
S3150000646009B90A20F5E7032854D0202F18BF302F8A
S3150000647050D1E0692B7A6968027840782D2B08BFE5
S315000064804942752A08D134281AD00022312814BF6F
S315000064904FF6FF70FF200FE0732A08D1312807BF9F
S315000064A06FF07F027F20274A47F6FF7004E0042141
S315000064B0029800F049F86EE79142A8BF884206DBD1
S315000064C00298022200F079F80028F4D052E706215B
S315000064D0EEE79DF8000022281ED10298002100F068
S315000064E084F80028B6D00220C9E69DF800007D2871
S315000064F00DD1A878FFF744FE06460298012100F068
S3150000650074F808B10220E072002EA3D102E0202F19
S31500006510A0D00EB907200EE00949A8780968095CE1
S31500006520FF2908BF082006D001226946FEF720FF92
S3150000653000288FD002208DF800009DF8001027E774
S315000065401C6600200080FFFF027C1AB90822C27375
S3150000655001745FE07047A0F141011A293CBF203069
S31500006560C0B2704738B50C4694F82450FFF7F3FFD5
S3150000657061194874681C84F8240031BD10B50446BE
S31500006580206A017831B162290CBF01210221405CE9
S315000065902A2807D1216BE28B01EB021120464968BC
S315000065A0884706E00420207420466168884700205A
S315000065B020742046BDE810402CE038B5837B057B6F
S315000065C0AB4204D10521FFF7BFFF002032BD84682E
S315000065D044F82310817B491C8173016A8B5C2A2B4A
S315000065E01CBF89180162012032BD10B500F12002DE
S315000065F013681B78622B04D00421FFF7A5FF002047
S3150000660010BD9379FF2494710122BDE8104003EB7D
S315000066100121D2E770B500F10804A06AE18A00EB17
S3150000662001100026856805E00220295C2A2918BF8A
S315000066302D18761CA179F0B288420BD228786228F0
S31500006640F2D12068F6B250F82600C0B2FEF7C0FDBF
S315000066500120EAE70020A071A07FFF2803D0FEF703
S31500006660B7FDFF20A07770BD00000000000000000D
S315000066700020202020200000000000000000000074
S315000066800000000000000000200030300000000084
S315000066900000003000300000404142434445464778
S315000066A04849000000000000005A5B5C5D5E5F1018
S315000066B010101010101010101010101010101010D4
S315000066C01010103000000000005A5B5C5D5E5F0039
S315000066D010B505F072FC40F2A174C440E0070BD57A
S315000066E0064C207805F088FC207805F024FD2078FB
S315000066F0BDE8104005F0ECBD10BD00BF1C650020D4
S315000067001F210FF22C00FFF73BBC10B502F0B4FFBF
S31500006710044602F0A6FF0246234604480FF2200173
S315000067200078BDE81040FEF7CBBC00001C650020D9
S3150000673072657365742D746573742E6300000000B2
S3150000674052455345543A25702D25700D0A00000018
S3150000675010B5DFF834440FF218012078FEF7B0FCCC
S3150000676020780FF21C01BDE81040FEF7A9BC00001E
S31500006770286C6974746C6520656E6469616E0000CE
S315000067802C20616C6C206461746120726570726586
S3150000679073656E7465642061732062797465206127
S315000067A072726179290D0A000178A1F130030A2B72
S315000067B00AD3A1F14103062B38BF373904D3A1F11F
S315000067C06102062A03D257390907090E00E00021A3
S315000067D04078A0F130030A2B02D2401830380CE082
S315000067E0A0F14103062B02D24018373805E0A0F18C
S315000067F06102062A03D240185738C0B2704708090A
S31500006800704710B506F05CF802001AD0DE4C20780E
S31500006810042A08BF0FF22C0108D0062A08BF0FF27F
S31500006820700103D0072A04D10FF2A801FEF748FC35
S3150000683003E00FF2E801FEF743FC20780FF2101197
S3150000684091E710BD68616C537461636B496E69743E
S31500006850546F6B656E73204641494C4544207769F9
S31500006860746820454D4245525F454550524F4D5F35
S315000068704D46475F535441434B5F56455253494F2C
S315000068804E5F4D49534D415443480D0A00000000E8
S3150000689068616C537461636B496E6974546F6B65A0
S315000068A06E73204641494C454420776974682045FB
S315000068B04D4245525F454550524F4D5F4D46475FED
S315000068C056455253494F4E5F4D49534D41544348E7
S315000068D00D0A000068616C537461636B496E6974DC
S315000068E0546F6B656E73204641494C454420776969
S315000068F0746820454D4245525F454550524F4D5FA5
S31500006900535441434B5F56455253494F4E5F4D4991
S31500006910534D415443480D0A0000000068616C5312
S315000069207461636B496E6974546F6B656E73204650
S3150000693041494C4544207769746820456D6265720B
S315000069405374617475733A2025580D0A00000000CF
S31500006950546F6B656E7320617265207374696C6C1D
S3150000696020616374697665207768656E2075736942
S315000069706E672074686973206170706C69636174F6
S31500006980696F6E2E0D0A00002DE9F04FC1B08068C8
S315000069907D4F0568FFF7DCFEA8B206F069F90446EC
S315000069A0A8B205F0E7FF8046A8B206F026FA8346AD
S315000069B0002C38781ABF4FF6FF7188450FF27C21FC
S315000069C02CD02346AAB20FF21411FEF779FB00254C
S315000069D00FF2AC190FF2AC1A0AE01DF8062038784F
S315000069E04946FEF76DFB761CF6B2A642F5DB6D1C3A
S315000069F0EDB25D4510DABBF1010F234603D17F22CC
S31500006A0000F011F806E02A4600F00DF838785146F5
S31500006A10FEF756FB0026E7E738785146FEF750FBAF
S31500006A2041B0BDE8F08F4146684605F06CBF2DE9E0
S31500006A30F047C0B0806804684768534EFFF788FE89
S31500006A40A0B206F015F98146A0B205F093FF804684
S31500006A50A0B206F0D2F90546B9F1000F30781ABF98
S31500006A604FF6FF7188450FF2D41131D0A5F1010A16
S31500006A7015B1FFB2BA450BDA0FF2CC11FEF720FBC7
S31500006A8030780FF2FC1153460022FEF719FB21E085
S31500006A904B46A2B20FF24401FEF712FB012D08BFCE
S31500006AA07F274B463A46FFF7BEFF36A4307821468D
S31500006AB0FEF706FB00270FF2C80804E01DF80720C2
S31500006AC000F062FE7F1CFFB230784F45F6DB2146B0
S31500006AD0FEF7F6FA40B0BDE8F08700005B25327895
S31500006AE05D28256429203D002DE9F047C2B0806865
S31500006AF0DFF8B07C0668FFF72BFEB0B206F0B8F8F8
S31500006B008146B0B205F036FF8246B0B206F075F99E
S31500006B100646B9F1000F1CBF4FF6FF70824505D13E
S31500006B2038780FF21811FEF7CBFA28E000240FF29E
S31500006B30741803E0504605F0F7FE641CB4421EDAF2
S31500006B40002513E016FB09F0431E387809FB0452B2
S31500006B504146FEF7B5FA387803226946FFF7C8F9C9
S31500006B606846FFF721FE01A948556D1C4D45E9DB36
S31500006B70012E4B4601AA0CBF7F21E1B2DAE75AE0AB
S31500006B80202558000D0A00001C6500202DE9F0475D
S31500006B90C2B0806807684468DFF8085CFFF7D8FD74
S31500006BA0B8B206F065F88046B8B205F0E3FE814655
S31500006BB0B8B206F022F90746B8F1000F28781CBFD4
S31500006BC04FF6FF71894504D10FF27001FEF778FA8E
S31500006BD031E07E1E17B1E4B2A6420BDA0FF268016D
S31500006BE0FEF76EFA28780FF2980133460022FEF778
S31500006BF067FA20E000260FF2AC0A11E02878A8F127
S31500006C00010332465146FEF75BFA287803226946AD
S31500006C10FFF76EF96846FFF7C7FD01A98855761C90
S31500006C204645EBDB012F08BF7F24434601AA2146D8
S31500006C30484605F079FE42B0BDE8F0876E6F7420D5
S31500006C40666F756E640D0A004552524F523A2044E3
S31500006C5065736972656420696E646578206973205E
S31500006C606F7574206F662072616E676520666F723D
S31500006C70207468697320746F6B656E0D0A000000DE
S31500006C802020202020202056616C69642072616ECD
S31500006C906765206973202558207468727520255809
S31500006CA00D0A00006461746120627974655B256475
S31500006CB0206F662025645D3A000000002DE9F04350
S31500006CC0ADF5017DDFF8DC4A0FF65838FFF740FDD9
S31500006CD020784EF2455200F057FD20780FF64C31E1
S31500006CE0FFF71AF9DFF8C00A00F03AFD00270FF2A5
S31500006CF0883902A84946C25D00F091FD7F1C082F25
S31500006D00F7D3DEA700F049FD20784CF2563200F0AA
S31500006D103BFD20780FF62831FFF7FEF80125DFF856
S31500006D208C0A00F029FD00F032FD9DF8012000F0EC
S31500006D3030FD6D1EF3D100F030FD20784EF2453265
S31500006D4000F022FD20780FF60C31FFF7E5F8DFF8AA
S31500006D50600A00F005FD02A800F05FFD6D1C082D1D
S31500006D60F9D300F01AFD20784EF6735200F00CFDB0
S31500006D7020780FF6F421FFF7CFF8DFF8380A00F095
S31500006D80F5FC002504A800F048FD6D1C102DF9D374
S31500006D9000F003FD20784CF24E2200F0F5FC20783E
S31500006DA00FF6D021FFF7B8F8DFF80C0A00F0DEFC8A
S31500006DB0002504A800F031FD6D1C102DF9D300F05C
S31500006DC0ECFC20784CF6441200F0DEFC20780FF63E
S31500006DD0B421FFF7A1F80125DFF8E00900F0CCFCAB
S31500006DE000F0D5FC9DF8012000F0D3FC6D1EF3D118
S31500006DF000F0D3FC20784DF2430200F0C5FC207869
S31500006E000FF69021FFF788F80125DFF8B40900F0A6
S31500006E10B3FC00F0BCFC9DF8012000F0BAFC6D1E2E
S31500006E20F3D100F0BAFC20784CF2431200F0ACFC2F
S31500006E3020780FF67021FFF76FF8DFF888090188D0
S31500006E400223EAB2FFF7F0FD00F0A1FC9DF8012055
S31500006E5000F09FFC6D1C142DEFDB00F09EFC2078EB
S31500006E604DF2463200F090FC20780FF64821FFF7ED
S31500006E7053F80125DFF8500900F07EFC00F087FC8E
S31500006E809DF8012000F085FC6D1EF3D100F085FC15
S31500006E9020784CF2433200F077FC20780FF62C2154
S31500006EA0FFF73AF80125DFF8240900F065FC00F049
S31500006EB06EFC9DF8012000F06CFC6D1EF3D100F015
S31500006EC06CFC20784CF6535200F05EFC20780FF6EE
S31500006ED01021FFF721F8DFF8F80800F041FC02A8BE
S31500006EE000F09BFC6D1C082DF9D300F056FC2078B1
S31500006EF04CF2543200F048FC20780FF6F811FFF7F8
S31500006F000BF80125DFF8CC0800F036FC00F03FFC5A
S31500006F109DF8012000F03DFC6D1EF3D100F03DFC14
S31500006F2020784DF6540200F02FFC20780FF6D01191
S31500006F30FEF7F2FF0125DFF8A00800F01DFC00F0C7
S31500006F4026FC9DF8012000F024FC6D1EF3D100F014
S31500006F5024FC20784DF2570200F016FC20780FF63C
S31500006F60AC11FEF7D9FFDFF8740800F0FFFB04A8A8
S31500006F7000F053FC6D1C102DF9D300F00EFC2078A8
S31500006F804CF2573200F000FC20780FF69411FEF711
S31500006F90C3FFDFF84C0800F0DDFB002500F03CFCE9
S31500006FA06D1C042DFAD300F0F8FB20784CF65752EE
S31500006FB000F0EAFB20780FF67C11FEF7ADFFDFF854
S31500006FC0240800F0C7FB002500F026FC6D1C042DEC
S31500006FD0FAD300F0E2FB20784DF2575200F0D4FBD2
S31500006FE020780FF66411FEF797FFDFF8FC0700F034
S31500006FF0B1FB002500F010FC6D1C042DFAD300F047
S31500007000CCFB20784CF2574200F0BEFB20780FF6FE
S315000070104C11FEF781FFDFF8D40700F09BFB00253B
S3150000702000F0FAFB6D1C042DFAD300F0B6FB2078B5
S315000070304CF24B2200F0A8FB20780FF63411FEF735
S315000070406BFFDFF8AC0700F091FB002504A800F009
S31500007050E4FB6D1C102DF9D300F09FFB20784CF259
S31500007060423200F091FB20780FF61C11FEF754FF18
S31500007070DFF8800704E000BF202558000D0A000055
S3150000708001885C237F226AA805F03DFC00256AA8DA
S3150000709000F0C3FB6D1C5C2DF9D300F07EFB20785D
S315000070A04CF6431200F070FB20780FF6EC01FEF769
S315000070B033FFDFF84407018814237F2200F041FBE9
S315000070C0002508A800F0A9FB6D1C142DF9D300F0CB
S315000070D064FB20784DF2433200F056FB20780FF621
S315000070E0D001FEF719FF0125DFF8100700F044FB79
S315000070F000F04DFB9DF8012000F04BFB6D1EF3D117
S3150000710000F04BFB20784DF2423200F03DFB207838
S315000071100FF6B001FEF700FFDFF8E40600F026FBED
S3150000712004A800F07AFB6D1C102DF9D300F035FB96
S3150000713020784CF2453200F027FB20780FF6A001AC
S31500007140FEF7EAFEDFF8BC06018894237F2245A8F5
S3150000715005F0D9FB002545A800F05FFB6D1C942DBA
S31500007160F9D300F01AFB20784DF2583200F00CFBF0
S3150000717020780FF68001FEF7CFFEDFF88C0600F0D0
S31500007180E3FA002516A800F048FB6D1C202DF9D364
S3150000719000F003FB20784DF2593200F0F5FA207822
S315000071A00FF66C01FEF7B8FEDFF8600600F0CCFAC9
S315000071B0002516A800F031FB6D1C202DF9D300F038
S315000071C0ECFA20784CF64B2200F0DEFA20780FF627
S315000071D05C01FEF7A1FEDFF83806018822237F2234
S315000071E03CA805F090FB00253CA800F016FB6D1CA2
S315000071F0222DF9D300F0D1FA20784BF2346200F058
S31500007200C3FA20780FF63801FEF786FEDFF804068B
S3150000721000F0A6FA002502A800F0FFFA6D1C082D62
S31500007220F9D300F0BAFA20784FF6017200F0ACFA02
S3150000723020780FF61801FEF76FFE012502237F2244
S315000072400021FFF7F1FB00F0A2FA9DF8012000F003
S31500007250A0FA6D1EF2D100F0A0FA20784EF22312A9
S3150000726000F092FA20780FF2FC71FEF755FE042327
S315000072707F22012100F062FA00F0CEFA6D1C042D87
S31500007280FAD300F08AFA20784EF2754200F07CFAC2
S3150000729020780FF2E871FEF73FFE11237F220221CC
S315000072A000F04FFA002508A800F0B7FA6D1C112D62
S315000072B0F9D300F072FA20784EF2632200F064FAF5
S315000072C020780FF2CC71FEF727FE04237F220321DC
S315000072D000F034FA002500F09FFA6D1C042DFAD355
S315000072E000F05BFA20784EF2635200F04DFA2078F7
S315000072F00FF2B071FEF710FE04237F22042100F086
S315000073001DFA002500F088FA6D1C042DFAD300F052
S3150000731044FA20784EF2621200F036FA20780FF224
S315000073209871FEF7F9FD012502237F220521FFF75B
S315000073307BFB00F02CFA9DF8012000F02AFA6D1E66
S31500007340F2D100F02AFA20784EF6793200F01CFAD3
S3150000735020780FF27C71FEF7DFFD11237F220621D4
S3150000736000F0EFF908A800F058FA6D1C112DF9D3BA
S3150000737000F013FA20784EF6646200F005FA2078E1
S315000073800FF25871FEF7C8FD10237F22072104A8CB
S3150000739005F0B9FA002504A800F03FFA6D1C102D7F
S315000073A0F9D300F0FAF920784EF2241200F0ECF945
S315000073B020780FF23871FEF7AFFD1A237F220821DD
S315000073C035A805F0A0FA002535A800F026FA6D1CB0
S315000073D01A2DF9D300F0E1F920784EF2251200F0CB
S315000073E0D3F920780FF21871FEF796FD08237F2255
S315000073F0092102A805F087FA002502A800F00DFA77
S315000074006D1C082DF9D300F0C8F920784EF226122B
S3150000741000F0BAF920780FF20471FEF77DFD0A2319
S315000074207F220A210DA805F06EFA00250DA800F0AE
S31500007430F4F96D1C0A2DF9D300F0AFF920784EF25D
S31500007440271200F0A1F920780FF2E461FEF764FD3F
S31500007450012502237F220B21FFF7E6FA00F097F9B8
S315000074609DF8012000F095F96D1EF2D100F095F916
S3150000747020784EF2281200F087F920780FF2D061BA
S31500007480FEF74AFD18237F220C2110A805F03BFACF
S3150000749010A800F0C2F96D1C182DF9D300F07DF983
S315000074A020784EF2102200F06FF920780FF2BC61BE
S315000074B0FEF732FD00F071F920784EF2112200F04D
S315000074C063F920780FF2C061FEF726FD00F065F93A
S315000074D020784EF2122200F057F920780FF2C86198
S315000074E0FEF71AFD00F059F920784EF2132200F04B
S315000074F04BF920780FF2D461FEF70EFD00F04DF93E
S3150000750020784EF2142200F03FF920780FF2E06165
S31500007510FEF702FD00F041F920784EF2152200F048
S3150000752033F920780FF2F061FEF7F6FC00F035F93A
S3150000753020784EF2202200F027F920780FF2F86129
S31500007540FEF7EAFC04237F22132100F0F7F800255A
S3150000755000F062F96D1C042DFAD300F01EF92078B4
S315000075604EF2212200F010F920780FF2F061FEF7BA
S31500007570D3FC00F012F920784EF2742200F004F9E0
S3150000758020780FF20471FEF7C7FC00F006F92078A8
S315000075904FF60D7200F0F8F820780FF20071FEF742
S315000075A0BBFC00250B23EAB216210DA805F0ABF9AA
S315000075B000260DA84946825D00F031F9761C0B2E97
S315000075C0F7D36D1C062DEDDB00F0E7F820784EF2C0
S315000075D0564200F0D9F820780FF2D461FEF79CFCF1
S315000075E000F0DBF820784FF4654200F0CDF8207803
S315000075F00FF2CC61FEF790FC00F0CFF820784EF247
S31500007600035200F0C1F820780FF2CC61FEF784FC3B
S3150000761000250123EAB219210DF1020005F073F9E4
S315000076209DF8022000F0B5F86D1C062DF1DB00F088
S31500007630B4F820784EF2015200F0A6F820780FF246
S31500007640B461FEF769FC10237F221A2104A805F015
S315000076505AF9002504A800F0E0F86D1C102DF9D3A6
S3150000766000F09BF820784EF2025200F08DF8207858
S315000076700FF29061FEF750FC28237F221B212BA8D6
S3150000768005F041F900252BA800F0C7F86D1C282D40
S31500007690F9D300F082F820784EF2582200F074F800
S315000076A020780FF27461FEF737FC12237F221C212B
S315000076B000F047F8002508A800F0AFF86D1C122D61
S315000076C0F9D300F06AF820784EF2592200F05CF8FF
S315000076D020780FF25461FEF71FFC00253423EAB22E
S315000076E01D211EA805F00FF900261EA84946825D39
S315000076F000F095F8761C342EF7D36D1C052DEDDBC6
S3150000770000F04BF820784EF25A2200F03DF820782F
S315000077100FF22C61FEF700FC00F03FF820784EF2E5
S315000077205B2200F031F820780FF22861FEF7F4FBB7
S3150000773000F033F80DF5017DBDE8F08301A805F0F2
S31500007740E2B808A805F0DFB8018820237F2216A832
S3150000775005F0D9B8018804237F2201A805F0D3B823
S31500007760018808237F2202A805F0CDB801881023DE
S315000077707F2204A805F0C7B8018802237F22684645
S3150000778005F0C1B8C25D20784146FDF799BC9DF869
S31500007790002020784946FDF793BC20783946FDF74E
S315000077A08FBC00001C650020402402004224020019
S315000077B04424020046240200482402004A2402000F
S315000077C04C2402004E2402005024020052240200DF
S315000077D05424020056240200582402005A240200AF
S315000077E05C2402005E24020060240200622402007F
S315000077F06424020066240200682402006A2402004F
S315000078006C2402006E24020070240200722402001E
S31500007810742402007624020001A84946425D2078BD
S31500007820FDF74EBC5B2532585D2000004D46475F94
S31500007830454D4245525F4555495F363400000000CC
S315000078404D46475F435553544F4D5F564552534936
S315000078504F4E00004D46475F435553544F4D5F45CD
S3150000786055495F36340000004D46475F5354524930
S315000078704E4700004D46475F424F4152445F4E41DE
S315000078804D4500004D46475F4D414E55465F4944C4
S31500007890000000004D46475F5048595F434F4E4633
S315000078A0494700004D46475F4153485F434F4E46A8
S315000078B0494700004D46475F53594E54485F46526C
S315000078C045515F4F46465345540000004D46475FBD
S315000078D04343415F5448524553484F4C44000000CF
S315000078E04D46475F455A53505F53544F52414745A3
S315000078F0000000004D46475F4354554E45000000CA
S315000079004D46475F584F5F54554E45004D46475FBD
S315000079104C4F434B424954535F504C5700000000B4
S315000079204D46475F4C4F434B424954535F434C5778
S31500007930300000004D46475F4C4F434B424954537D
S315000079405F4D4C57000000004D46475F4C4F434B80
S31500007950424954535F554C57000000004D46475F5F
S315000079604C4F434B424954535F444C570000000070
S315000079704D46475F424F4F544C4F41445F4145533C
S315000079805F4B4559000000004D46475F43424B455B
S315000079905F444154410000004D46475F494E5354F1
S315000079A0414C4C4154494F4E5F434F444500000003
S315000079B04D46475F53454355524954595F434F4ED1
S315000079C0464947004D46475F5345435552455F423A
S315000079D04F4F544C4F414445525F4B4559000000B0
S315000079E04D46475F43424B455F3238334B315F4428
S315000079F0415441004D46475F5349474E45445F4217
S31500007A004F4F544C4F414445525F4B45595F5800C8
S31500007A104D46475F5349474E45445F424F4F544C8E
S31500007A204F414445525F4B45595F59004D46475FAC
S31500007A305448524541445F4A4F494E5F4B455900B1
S31500007A404D46475F4555495F363400005354414320
S31500007A504B5F4E56444154415F56455253494F4E33
S31500007A6000000000535441434B5F4150535F465260
S31500007A70414D455F434F554E544552005354414383
S31500007A804B5F414C5445524E4154455F4B4559005E
S31500007A90535441434B5F424F4F545F434F554E54EF
S31500007AA045520000535441434B5F4E4F4E43455F92
S31500007AB0434F554E54455200535441434B5F414E3C
S31500007AC0414C595349535F5245424F4F54000000B1
S31500007AD0535441434B5F4B45595300005354414364
S31500007AE04B5F4E4F44455F4441544100535441431C
S31500007AF04B5F54525553545F43454E544552000014
S31500007B00535441434B5F4E4554574F524B5F4D4183
S31500007B104E4147454D454E540000000053544143E5
S31500007B204B5F504152454E545F494E464F00000050
S31500007B30535441434B5F504152454E545F41444478
S31500007B404954494F4E414C5F494E464F0000000094
S31500007B50535441434B5F4D554C54495F5048595F10
S31500007B604E574B5F494E464F000000004D554C5452
S31500007B70495F4E4554574F524B5F535441434B5FF9
S31500007B804B455953000000004D554C54495F4E4536
S31500007B9054574F524B5F535441434B5F4E4F4445EE
S31500007BA05F444154410000004D554C54495F4E45D9
S31500007BB054574F524B5F535441434B5F414C5445CE
S31500007BC0524E4154455F4B45590000004D554C54AB
S31500007BD0495F4E4554574F524B5F535441434B5F99
S31500007BE054525553545F43454E54455200000000CD
S31500007BF04D554C54495F4E4554574F524B5F535465
S31500007C0041434B5F4E4554574F524B5F4D414E419A
S31500007C1047454D454E5400004D554C54495F4E4521
S31500007C2054574F524B5F535441434B5F504152455B
S31500007C304E545F494E464F004D554C54495F4E4594
S31500007C4054574F524B5F535441434B5F4E4F4E4335
S31500007C50455F434F554E5445520000004D554C5418
S31500007C60495F4E4554574F524B5F535441434B5F08
S31500007C70504152454E545F4144444954494F4E4148
S31500007C804C5F494E464F0000535441434B5F4249B7
S31500007C904E44494E475F5441424C4500535441437C
S31500007CA04B5F4348494C445F5441424C45000000F9
S31500007CB0535441434B5F4B45595F5441424C450039
S31500007CC0535441434B5F43455254494649434154FB
S31500007CD0455F5441424C4500535441434B5F414438
S31500007CE0444954494F4E414C5F4348494C445F44D4
S31500007CF041544100535441434B5F5A4C4C5F4441FD
S31500007D0054410000535441434B5F5A4C4C5F53451A
S31500007D104355524954590000535441434B5F475011
S31500007D205F44415441000000535441434B5F475068
S31500007D305F50524F58595F5441424C450000000075
S31500007D40535441434B5F47505F53494E4B5F544139
S31500007D50424C4500535441434B5F47505F494E43A5
S31500007D604F4D494E475F46430000000010B504469C
S31500007D70002003F021FD002003F027FD02F006FBA2
S31500007D80012003F0A1FD204605F014FB2046BDE8C6
S31500007D90104001F0EFB880B5022100F0F6F8009827
S31500007DA005F066FC01BD8068DFF880130068087086
S31500007DB008780228A8BF0FF2BC3305DA002814BFE2
S31500007DC00FF2BC330FF2C033DFF864030FF29432C4
S31500007DD0D0F8F012FFE70FF28030FDF73CBE80B519
S31500007DE003F056FDDFF84C130FF2E43251F8203061
S31500007DF0DFF83C03D0F830130FF2B830FDF72BFE56
S31500007E00BDE8024090E038B50446A0680568DFF892
S31500007E102003D0F840130FF2C430FDF71CFEEDB27C
S31500007E2015B1012D07D00CE00FF2B830FDF713FEA7
S31500007E3003F0E1FD05E00FF2C030FDF70CFE03F0A4
S31500007E40F7FD0FF2C430FDF706FE2046BDE83240CE
S31500007E50C5E7F0B506460C4685B0204603F04AFC59
S31500007E600746204603F048FC05460FF218423FB984
S31500007E70234606F111010FF2F430FDF7ECFD10E098
S31500007E80039723460FF23040029006F1110104F0E9
S31500007E901F0001900FF2184000900FF2F030FDF72E
S31500007EA0DAFDA5420FF2943605D02A460FF21041AC
S31500007EB03046FDF7D0FD204603F0F6FB024612F1F0
S31500007EC0010F0FF24C300FF2503108BF0FF2503253
S31500007ED010D012B90FF250320CE0DFF85C02DFF876
S31500007EE05812B2FBF0F001FB102131B902460FF235
S31500007EF054313046FDF7AFFD13E04FF47A71DFF8E9
S31500007F003C02B2FBF1F14FF47A7303FB11230078C4
S31500007F10002B06BF0A460FF234310FF24031FDF74F
S31500007F20CFF805B0BDE8F0406CA0FDF794BD10B5E4
S31500007F30044603F0A0FD01462046BDE8104088E750
S31500007F4038B5044603F0A4FC0500DFF8E401D0F8D8
S31500007F5010130FF2743018BF0125FDF77CFD03F0F6
S31500007F6067FDA0680068C0B203F0BFFD02460FF2CD
S31500007F703C210FF28830FDF76EFD0DB103F03BFD9D
S31500007F802046BDE83240D2E70121684605F0BBBB7A
S31500007F9010B5044603F0FBFB04F11101BDE81040E7
S31500007FA0034660A2D0E02DE9F84F064689461546FD
S31500007FB003F06EFC040018BF012403F048FC002EF9
S31500007FC04FF07F0A6FF07F0B4FF000088DF800002E
S31500007FD008D10126022003F0E7FC642003F07BF8B9
S31500007FE037461BE0F6D576420020F4E70146524AB2
S31500007FF04969007EB2FBF1F110FB01F0C004000CF0
S3150000800003F069F803F0EAFB83455246B8BF83469E
S3150000801082469245C8BF924680447F1E012F07DBE9
S31500008020474800680028E1D1464880680068DDE7D7
S315000080309DF8000003F0B8FC0CB103F0DCFCB9F1CC
S31500008040000F18BF89F800A015B198FBF6F028704C
S315000080505846BDE8F28F10B500F01AF804F1110188
S31500008060BDE8104003460FF2BC220FF2A420FDF734
S31500008070F2BC10B500F00CF803F071FB04F111012D
S31500008080BDE81040034628A20FF2A020FDF7E3BC8E
S31500008090044600220021012085E710B5044686B07B
S315000080A0A068006804AA0DF11101FFF77CFF039098
S315000080B004F111010FF2BC209DF911300FF2A42238
S315000080C002909DF9100001900FF2A02000900FF28F
S315000080D07820FDF7C0FC06B010BD00007D0D0A003B
S315000080E080B503F09CFB034611480FF2A022D0F89E
S315000080F090130FF28820BDE80050FDF7ACBC10B518
S3150000810004460B48D0F8A0130FF29020FDF7A3FC0D
S31500008110A068006840B203F02CFC2046BDE8104081
S31500008120DEE700004343410045440000EA670020C3
S315000081303C0702005465002040420F001C650020E9
S31500008140287600200C1B02000FF2B810FDF783BC46
S3150000815081680968C9B27CE67B264E202674737D49
S315000081600D0A00005045522054657374204D6F640B
S3150000817065000000656E61626C65642D6E65770052
S31500008180656E61626C65640064697361626C6564E6
S315000081900000000061736C65657000006177616BBB
S315000081A065000000656E657267790000737461741E
S315000081B0757300007B264E20526164696F20706FD4
S315000081C077657220737461746520267473000000ED
S315000081D0706F776572207374617465007B264E201C
S315000081E000000000536C656570696E6720726164FB
S315000081F0696F2E2E2E00000057616B696E67207224
S315000082006164696F2E2E2E00646F6E657D0D0A0007
S315000082102026747000000000667265710000000080
S31500008220696C6C6567616C0050657252616D526174
S3150000823064696F436F6E6669670000002026747577
S3150000824000000000667265714D487A00207B6672F8
S3150000825065714B487A3A256C7D000000207B66727A
S315000082606571487A3A256C7D000000007B264E2019
S31500008270526164696F206368616E6E656C20267456
S31500008280680000006368616E6E656C007B264E2098
S31500008290526164696F206368616E6E656C20267436
S315000082A068202826746420696E20267464290000DC
S315000082B06368616E00000000706167650000000081
S315000082C05074694368616E007B264E205365747452
S315000082D0696E67206368616E6E656C20616E6420EE
S315000082E063616C6962726174696E672028617320CC
S315000082F06E6565646564292E2E2E00002674687DE1
S315000083000D0A00007B264E202674647D0D0A0000AF
S315000083107B264E20267464205B64426D5D7D0D0ACB
S315000083200000000052535349000000007B264E20F7
S31500008330267464205B3830322E31352E3420756E2B
S315000083406974735D7D0D0A007B264E2026746420B9
S3150000835026746420267464205B64426D5D7D0D0A7C
S31500008360000000006D696E525353490061766752F2
S31500008370535349006D617852535349007B264E2072
S315000083802674642064426D7D0D0A0000434341203B
S315000083905468726573686F6C640000007B264E7DBE
S315000083A00D0A000080B5002003F0C8F9BDE80140C1
S315000083B005F076B838B5DFF85843DFF85813607D16
S315000083C0C870607B18B106F083FA002808D506F05D
S315000083D07FFA40054CBF03200120002106F0CCFAAD
S315000083E0E06901224FF47A7103F01CF9050003D00D
S315000083F000F047FB01202075284632BDDFF8101338
S31500008400C861887DDFF80C130871D3E7F0B595B025
S3150000841004460D4612A803F060F8064603F0C4F8B9
S31500008420074603F092F8BDF84E10DFF8EC220B91E8
S3150000843003460FF248110FF24C100A91039601976A
S31500008440BDF84C1009910FF284110891BDF84A103D
S3150000845007910FF280110691BDF8481005910FF2B1
S315000084607C1104910FF27C1102910FF280110091A0
S315000084702946FDF7F0FA002C7DD002F0FBFF040040
S3150000848079D0A06902F0DDFF074603F00FF8064633
S3150000849003F072F80FF25C110FF26012109111974F
S315000084A004F15005E1680FF25C170F910FF25C11B1
S315000084B00E9161680D910FF25C110C91A1680B9100
S315000084C00FF258110A91216909910FF2581108917A
S315000084D0616907910FF25411069121680591019087
S315000084E089A00FF250110491009088A10396029181
S315000084F00026287D0FF24411431E0FF24C10FDF7A3
S31500008500AAFA04EB8600761CC1693846FDF7A3FA81
S315000085100D2EF6DB68680FF264130E900A210FF237
S3150000852064100D9028890C900FF264100B906889E6
S315000085300A900FF268100990A88908900FF264104B
S315000085400790E87B06900FF264100590A87B0490D4
S315000085500FF260100390287802900FF260100190DD
S3150000856068780090A87811FB00F20FF258110FF20C
S315000085705C10FDF770FA15B0F0BD000073757370EE
S31500008580000000007B264E20267475202674326873
S31500008590202674642F31303025250D0A20202674BC
S315000085A0642F3130302525202674642F3130302554
S315000085B025202674642F3130302525202674642F1B
S315000085C031303025257D0D0A000000006372697484
S315000085D0000000006C696D690000000074616C6B3E
S315000085E00000000075736564000000006163636548
S315000085F06C0000006275636B657400006368616EF1
S31500008600000000007B256C7D000000007375737010
S315000086104279000063726974427900006C696D6981
S315000086204279000074616C6B427900007573656471
S31500008630427900006D6178427900000064635374EA
S3150000864061747356000000007B266E202674682035
S315000086502674752674752026746C2026746C0D0A93
S31500008660202026746C2026746C2026746C202674B8
S315000086706C0D0A2674753A20000000006372697456
S31500008680446300006D696E4F666655730000000016
S315000086906C62744363615573000000006D6178532A
S315000086A0657100006D6178506B740000706B744FDB
S315000086B0766800006279746555730000737573708F
S315000086C04463000074616C6B446300000D0A5061E2
S315000086D072616D733A20267475202674752026748F
S315000086E07520267475202674750D0A2020202020FA
S315000086F02020202674752026747520267475202661
S31500008700746C7D0D0A000000737400006163000044
S3150000871064650020D86B00208C88000010B50446E4
S31500008720FCF77EFF82B2DFF8F406C06A2146BDE898
S3150000873010400C30FCF70ABF70B1012818BF0228A0
S3150000874015D0032818BF042814D0062818BF0828F7
S3150000875013D0102814D016E0DFF8C006C06AC07A1D
S31500008760002814BF0FF224000FF284000DE00FF270
S3150000877094000AE00FF2280007E00FF2380004E048
S315000087800FF2440001E00FF25400C7E7232323450C
S315000087904E444F46544553542323232323000000BD
S315000087A02323234C494D4954454423232323232380
S315000087B023000000232323435249544943414C23B9
S315000087C023232323230000002323235355535045FB
S315000087D04E444544232323232300000023232D5501
S315000087E04E45585045435445442D2323230000004D
S315000087F023232353544152544F4654455354232361
S31500008800230000002323234E4F524D414C232323A4
S3150000881023232323230000002DE9F041DFF8FC6524
S315000088200446B07988B00D461746984610B14046C2
S31500008830FFF782FF707920B302F099FCB8A1069188
S315000088400346B8A10491CDF81C80059703950194C1
S315000088500FF238010FF23C020FF2400002910FF2C4
S315000088605C0100910FF25C01FDF7F5F870790228C2
S3150000887007DB0328ACBF012000200FF25001FFF7F1
S31500008880C5FD062008B0BDE8F08100006D6F646587
S315000088900000000074696D65000000000D0A7B266B
S315000088A06E2026746C202674682026747520267423
S315000088B075202674757D0D0A000000006368616EE0
S315000088C06E656C00446343620000000044634362CB
S315000088D053746174730000002DE9F04B0646894617
S315000088E0904602F013FEDFF83445070918BF7F1ED5
S315000088F0A07066708C2E18BF03F009F830000FF2D6
S315000089002C1BA94D0CD0402E1CD0882E18BF892EAA
S3150000891036D08C2E21D08D2E1DD08F2E09D024E05E
S315000089202069401C206100F0A7F848B340F22651A8
S3150000893023E0A069401CA06100F09EF800B340F25D
S315000089402B511AE0E069401CE06100F095F8B8B1DF
S3150000895040F2375111E002F095FE6069401C6061FB
S31500008960287D68B140F23E5107E032460FF2D4014D
S315000089700120FDF7DBFA40F24F515846FDF700FBA8
S31500008980402E84F80080C4F8289025D1E07802288B
S3150000899022DB401EE0702089401C208105F098FFF4
S315000089A000F08020B0F1004F01D000F06AF805F029
S315000089B08FFF000408D505F08BFF40054CBF032050
S315000089C00120002105F0D8FFE86900224FF47A71F2
S315000089D002F028FE060026D000F053F8300018BF3B
S315000089E08F2E1ED0207902281BDB401E2071608945
S315000089F0401C6081DFF8E405007802280ADBE9699B
S31500008A00DFF8DC05814205D10178092902DBC1784E
S31500008A10491CC170688B02F05EFBBDE8F04BFFF7A6
S31500008A20C9BC01202875BDE8F08B00007068792D5F
S31500008A30636F6D6D6F6E2D74782D746573742E6310
S31500008A4000000000656D626572526164696F547260
S31500008A50616E736D6974436F6D706C65746549738F
S31500008A607243616C6C6261636B20737461747573BD
S31500008A703A20307825780000206A38182062287D50
S31500008A8070470021002005F077BF80B503F012F88B
S31500008A9000F010F8D0F88014FFE70FF20C00BDE8E4
S31500008AA00050FCF7D8BF00007B264E202674646475
S31500008AB0426D7D000346DFF830050FF20402704771
S31500008AC061637475616C506F7765720030B50446EA
S31500008AD083B0A068056868B203F02AF801906BB20B
S31500008AE000F016F8D0F890140FF21400FCF7B3FF5C
S31500008AF0BDA0FCF7B0FF2046BDE83E40C5E700003C
S31500008B007B264E2026746464426D202674647D00A4
S31500008B100FF21C500FF210020090DFF8CC047047E1
S31500008B206E6577006F6C6400726571756573746548
S31500008B3064506F776572000000B5DFF8B0140FF26D
S31500008B4018020B8B0FF2280183B00091019300F1FC
S31500008B5011010FF2340063E17472616E736D697412
S31500008B602064656C61792028646563290000000033
S31500008B707472616E736D69742064656C6179202806
S31500008B8068657829000000007B264E2026746475EF
S31500008B9073202674327875737D0000008168DFF8D3
S31500008BA04C2409681183C7E7646500202DE9F14F5D
S31500008BB084B08068008801900124401E8041C00F67
S31500008BC0029002F065FE00B101208DF801004FF021
S31500008BD0000BDFF84852DFF884836869DFF8107409
S31500008BE0ADF80200D9460198012813D000F010F91B
S31500008BF03878029921B10FF24841FCF761FA03E097
S31500008C00019A7DA1FCF75CFAB8F8182000F0FBF891
S31500008C1000F0F4F8DFF8C863DFF8D8A380225146E5
S31500008C203046FCF739FFDFF8B40300780228A4BF0A
S31500008C303078092819DB9AF8011001F0200141F07B
S31500008C40C1017170A1461821B1703018029919B18D
S31500008C5000F805BC002004E0019900F8051C019805
S31500008C6000123178711801F8040CDA4611E002F0AE
S31500008C7077FA834698F8140048B9FFF793FB02F099
S31500008C806FFAA0EB0B0080B2B0F5FA6FF2D995F847
S31500008C9001B0029810B9019882454FDA00208DF88C
S31500008CA0000069463878FDF719F99DF80010652926
S31500008CB044D03878642906D100F098F8049800F179
S31500008CC01101002007E0442907D100F08FF804982D
S31500008CD000F111010120FFF799FB0AF101001FFACB
S31500008CE080FADFF81403007820B102F030FD08B1F5
S31500008CF005F0C8FEB8F8180002F0EDF9DFF8DC025E
S31500008D00007880B1B9F1000F18BFF47030780428EC
S31500008D1009DB301800F8034C201231787118641CF6
S31500008D2001F8020CA4B2002088F814000120687033
S31500008D303046FFF763FB0028834698D038780FF259
S31500008D4024315246FCF7BCF998F80D0040B1A88AC8
S31500008D50BDF80210421A38780FF22431FCF7B0F948
S31500008D6038780FF240315A46FCF7AAF9DFF88C0240
S31500008D700078C10746BFDFF888120A8800228007FC
S31500008D8003D5DFF880020088121838780FF23031E8
S31500008D90FCF796F938780FF24831FCF791F9297803
S31500008DA03878002914BF0FF254310FF25831FCF70E
S31500008DB087F902F01EFE28B16A6A38780FF24C3144
S31500008DC0FCF77EF9AA6A38780FF26C31FCF778F96D
S31500008DD0642002F080F99DF8010008B102F00BFE54
S31500008DE005B0BDE8F08F00000D0A000052460FF2F4
S31500008DF07421FCF765B900002575000038780FF27C
S31500008E002421FCF75DB938780FF24021FCF758B9F8
S31500008E1038780FF22421FCF753B90000D86B0020F4
S31500008E20FCF719FE07BD38B500F03DF800F034F840
S31500008E3018BF0124FCF744F902F0FAFD02F097FE90
S31500008E4002E0287800F00BF800F004F8F9D102F0FF
S31500008E50A6FE1DE09DF8000065287047207869464B
S31500008E60FDF73CB838B500F01EF800F015F818BF4D
S31500008E700124FCF725F902F0DBFD02F0A8FE02E072
S31500008E802878FFF7ECFFFFF7E5FFF9D102F0BCFE0B
S31500008E900CB102F0B0FD31BDDFF854510FF2841170
S31500008EA004002878704700208DF8000002F0F0BC1E
S31500008EB02DE9F041DFF838410FF2AC2120780FF2AE
S31500008EC0B8260FF2AC28DFF82C71FCF7F9F800256C
S31500008ED015E07A5D20784146FCF7F2F8681005EB5C
S31500008EE090708010B5EB800007D13878854204DA9F
S31500008EF020782A463146FCF7E3F86D1CEDB2387847
S31500008F00401C8542E5DBBDE8F0818068DFF8E410AF
S31500008F100068087070472DE9F84304460025A068EC
S31500008F20DFF8CC6007680FF25C29DFF8C8807F1C89
S31500008F30FFB2802F06DAA06800EB8500406808F8CB
S31500008F40070005E030786B1C7A1E4946FCF7B8F836
S31500008F506D1C042DEBDBBDE8F18300006465002089
S31500008F6024481421017001214A1E4254491C8029BB
S31500008F70FAD370471B48244A00210161416181618F
S31500008F80C16101621160214A1160018141811B4862
S31500008F901F490078C2074CBF1E4A0A46800748BFD1
S31500008FA01D49002008601060704780680F4A0078ED
S31500008FB0010018BF01215173154A10490978CB07E2
S31500008FC04CBF164B1346890748BF154A02280CBFEB
S31500008FD0012000201070107818707047EA67002092
S31500008FE0187F0020D86B00203C0702006465002033
S31500008FF01C650020987E0020EB670020706700202B
S31500009000A27F0020A07F0020F4770020F0770020C8
S3150000901048690020147800203C780020F276002071
S31500009020B07F00202765276E642E2E2E00000000DC
S3150000903073746174757300005478696E672000005C
S31500009040696E66696E697465000000002070616370
S315000090506B65747320257520757320617061727459
S315000090602E2000000D0A2575207061636B657473F0
S31500009070207472616E736D69747465642E0D0A00D6
S315000090802575206661696C65642064756520746F5A
S31500009090206368616E6E656C20627573792E0D0AA9
S315000090A0000000004C617374207061636B6574206E
S315000090B07374617475733A2030782532780D0A001E
S315000090C04C617374207061636B6574206261636BBD
S315000090D06F66663A2030782532780D0A0000000067
S315000090E04672616D652070656E64696E6720696E93
S315000090F0206C6173742041434B3A20005965732EEE
S315000091000D0A00004E6F2E0D0A0000005346442043
S3150000911074696D652028766961205346442073651D
S315000091206E742063616C6C6261636B293A203078DF
S315000091302532780D0A0000005346442074696D6597
S31500009140202876696120545820636F6D706C6574B1
S31500009150652063616C6C6261636B293A2030782507
S3150000916032780D0A00000000206C656E3A2000007F
S3150000917030782578200000000D0A307825783A20CE
S31500009180000000007061796C6F616420627974651B
S3150000919020696E6465783A202564206973206F75AE
S315000091A074206F662072616E67652E206172677526
S315000091B06D656E742025642069676E6F7265642E16
S315000091C00D0A0000130018BF01231A46FFF784BBDF
S315000091D070472DE9F04184B005F093FD054605F092
S315000091E0A0FD064605F091FD074605F06EFD80469A
S315000091F0DFF8244205F06DFD024620780FF22021AB
S315000092000295019600974346FBF75AFF05F068FD65
S31500009210C0F307210091C0F30743020E20780FF236
S315000092203021FBF74DFF05F066FD054605F063FDB1
S3150000923040F6D8618842207834BF0FF220210FF221
S3150000924028212A46FBF73CFF05F046FD054605F0BA
S3150000925063FD024620782B4604B0BDE8F0410FF2CC
S315000092601421FBF72DBF2DE9F04182B08068046818
S3150000927045688668DFF8A0710FF214280BE000F04D
S315000092802EF80090EDB2E4B238782B4622464146DD
S31500009290FBF716FF6D1C3046461EC0B20028EED105
S315000092A0BDE8F381FEB5806804684568866800F00D
S315000092B016F80746F2B2E9B2E0B205F087FC00F014
S315000092C00EF80290F6B2DFF850010FF2DC110078CA
S315000092D001960097EBB2E2B2FBF7F2FEF7BDE9B2F8
S315000092E0E0B205F023BC38B508F06CFC0446012555
S315000092F04FF6FF70844203D105F06AFE044600254E
S315000093004649CA7904F00300904204DAC9680C227F
S3150000931050430B5801E00FF2EC13002D3E4D0FF2B7
S31500009320B411287814BF0FF2D01239A2FBF7C8FE89
S3150000933004F0C000802806D128780FF2D011BDE8CD
S315000093403440FBF7BDBE31BD10B50446A0680178B8
S3150000935000790229B6BF022840EA012041EA40000E
S3150000936008F033FC2046BDE81040BCE770B584B079
S31500009370806805684668284C681C40B2052810DAE3
S31500009380F1B205F0DDFC00280CBF22A00FF23C1064
S315000093900090F3B220780FF29811EAB2FBF790FE34
S315000093A07FBD0FF2A0100FF2A816D0E900230FF22E
S315000093B09C1000788DF80000CDE90123694601ABC9
S315000093C00722012008F0CCFD002501A82A46435DAE
S315000093D020783146FBF774FE6D1C042DF5D3072D5E
S315000093E0DED201A80FF27C11435D0FF2A01000EB54
S315000093F085006D1C50F8102C2078FBF761FEEDB24D
S31500009400EDE705480FF268110078FBF759BE00003A
S31500009410736574006F6B00001C6500200C1B020056
S315000094207B50524F322B202573204449453D3078DE
S31500009430257820504152543D307825327820524FBD
S315000094404D3D2564204F54503D307825327820001C
S3150000945046573D25642E25642E2564002873766EB6
S315000094605F25642900000000286769745F25347849
S31500009470290000002050415443483D307825327879
S315000094802046554E433D307825787D0D0A00000074
S315000094907B4772702025782050726F7020257820C7
S315000094A03D2025787D0D0A007B47727020257820A7
S315000094B050726F70202578203D202578203D3E2073
S315000094C02578203D3E2025787D0D0A006661696C71
S315000094D000000000547820706F776572206D6F640D
S315000094E06520257020746F207573652025702050C7
S315000094F0412E0D0A000000006F7665727269646481
S31500009500656E0000756E6B6E6F776E005065722D1E
S3150000951062616E64206C696D697473206172652086
S315000095206E6F7420656E666F726365642E0D0A0039
S315000095304750494F257520203D2030782578202535
S31500009540700D0A000000000000000000130000007B
S315000095504750494F257520203D20307825780D0A43
S31500009560000000002570203D20307825780D0A0087
S31500009570436F6D6D616E64206E6F742073757070CD
S315000095806F727465642E0D0A00000000F40D02006F
S31500009590FC0D0200040E0200F00D0200890001EB32
S315000095A0401000F18440026070473EB53A480068BA
S315000095B0040E684608F0F4FC8F2C10DA3748384C55
S315000095C0016841F0040202604FF05013002230257A
S315000095D05543521C6351062AF9D3016001E0902CD1
S315000095E006DA30480168C909C90141F02001016065
S315000095F09DF80100012804D12B48016841F00401BF
S31500009600016000220D212948FFF7C8FF28490120E3
S31500009610086008F0DFFC08F088FD08F0C2FF0FF2D2
S315000096209400D0E90023CDE9012301208DF807003D
S3150000963001A809F017F909F08FFB01F09FFD37BD6E
S3150000964009F024BC09F023BC80B50021002005F0F8
S31500009650B3F9BDE8014005F003BA704705F001BA59
S31500009660704780B502F0A9FC01460FF250000C29A4
S3150000967038BF00EB810002BD80B502F0A2FC0FF2FC
S315000096806C010204120E51F8221000F0FF0001EBEB
S31500009690800002BD00000000FC81E00FB0400E40DB
S315000096A000A000402C400E4064310E4054300E4065
S315000096B010300E400000000000000000554E4B0028
S315000096C04649420042544C004558540050575200F7
S315000096D0574447002053570043525300465348000F
S315000096E042414400464C540042524F009417020037
S315000096F098170200F0170200101802001C1802004A
S31500009700241802003018020040180200481802000F
S31500009710541802006418020084180200012100F0A7
S315000097201F029140DFF84C2A05E0012100F01F02DC
S315000097309140DFF8442A400942F820107047012181
S3150000974000F01F029140DFF8342AF4E710B5DFF885
S31500009750304A30B1012807D0102802D0202803D083
S3150000976004E00020204410BD1C20FBE74FF4BD712F
S315000097700FF62430FCF704FC204610BD42689288A0
S315000097804089401A824201DA012070470020704762
S3150000979070B5012884B0044604D9B0F1100101D097
S315000097A010393BD1012818BF202832D1FFF7CEFF50
S315000097B0054600F075FD0646A86901AB6A4602A992
S315000097C00AF0E7FA00992A89286889B200F030F889
S315000097D0304600F06BFDA8690AF053FB012818D14A
S315000097E0296828898988401A298A884211DBA8694C
S315000097F090F83110022903D10AF0C9FA022804DAD6
S31500009800A86990F83100012803D1A86900210AF05F
S3150000981010FB200014BF102CFCF7CEFA7FBDDFF83A
S315000098206409416821F0020141600221016070472C
S3150000983070B500F095FB00F033FDE188A9420CD22B
S315000098402288521A521992FBF6F306FB1322228043
S31500009850A288AA18511AA180E58000F0F5BCF8B5D7
S31500009860012818BF20280C46154616D1FFF76EFFB3
S315000098700646307B10B101207073F1BD707B18B1C4
S315000098803046BDE8F240B9E00FF2D91700F006F80D
S3150000989018B100F003F80028FBD1F1BDB0693B46D2
S315000098A02A4621460AF0D1BB70B505460E46FFF79B
S315000098B04DFF012D18BF202D044640D1A069016837
S315000098C090F83200E8B90420886400F06BF9A069CA
S315000098D00068C16C002E07D041F00401C1640B2062
S315000098E0FFF71CFF052106E021F00401C1640B20EF
S315000098F0FFF71BFF0021A0690068BDE870400AF071
S3150000990042BC0420486300F04DF9A0690068816BF1
S31500009910002E07D041F0040181630B20FFF7FEFE05
S31500009920052106E021F0040181630B20FFF7FDFE0F
S315000099300021A0690068BDE870400AF0D6BC70BD81
S31500009940F8B50446DFF8400881421D4634D00026AB
S3150000995000F0ABF82DD13A893868A9B2FFF768FF55
S3150000996039680020C88002E0384600F026F8204614
S315000099700AF00DFA03281CDA788AF989484339680F
S315000099808A88002A80B2EFD00B88B7F80EC04988C3
S3150000999084446145B8BF984207DB8B42E4D2FA891A
S315000099A082189142A8BF9842DEDA012120460AF0C9
S315000099B040FA761C022ECBDBF1BD38B50446DFF843
S315000099C0CC37E089658A216802466843084400F17D
S315000099D00801A0690AF0F1FAA0690AF0D8F902288C
S315000099E003DBA06900210AF024FA608AA18A401CE0
S315000099F090FBF1F201FB1200608231BDFEB5044618
S31500009A00207B68BB60680FF25D074188084400F15F
S31500009A100805A0696B4601AA02A90AF0DAF960688E
S31500009A208188009A891A019A8E1A4188008888428C
S31500009A300ED26089421AA0693B4629460AF005FB08
S31500009A4070B9606861894288711A561800F1080574
S31500009A50A0693B46F2B229460AF0F7FA00B96073EC
S31500009A60F7BD00002DE9F04104469846002600F0B7
S31500009A701CF815D178688188414534BF85884546EC
S31500009A8000F00EFC79687A894988ADB2691800F051
S31500009A9057F87A68518079688A88521B00F0C7F8AF
S31500009AA0761C022EE3DBBDE8F0811C21DFF8D00630
S31500009AB011FB06F14718B869A042704738B50D4644
S31500009AC0FFF744FE112D044609D1A06900210AF0D2
S31500009AD0C1F9002020732046BDE832408EE7132DE1
S31500009AE006D1A06901210AF0B5F90120207331BD24
S31500009AF0206801880844057220680188228900F0E0
S31500009B001EF801808188491C8180A0690AF0B9F994
S31500009B10226821899288891A89B220B9E2898A4203
S31500009B20A8BF012105DA012808D1208A814205DB78
S31500009B300021A069BDE834400AF07BB931BD491C5B
S31500009B4091FBF2F302FB1311704780B5DFF8400674
S31500009B500169090606D50AF0B5FBBDE804400146D1
S31500009B600120ABE701BD80B5DFF82806016829B101
S31500009B700168DFF8242611600021016000F012F868
S31500009B800B20FFF7CBFDDFF81406016841F0040156
S31500009B9001600221DFF8EC050160416841F0020135
S31500009BA0416001BD0B20CAE580B5DFF8F40504214C
S31500009BB00160416821F004014160FFF7F3FF0B20CB
S31500009BC0FFF7B3FDDFF8D005006810B1DFF8C41564
S31500009BD00860BDE8014022E6F8B50C461546FFF7D9
S31500009BE0B5FD0646EAB2306880883189891A88420E
S31500009BF001DB0120F2BD00270DE000F051FB3168CA
S31500009C000B8814F8012B19447F1C0A7231680A88E4
S31500009C10338900F004F8AF42EFD30020F2BD521CA6
S31500009C2092FBF3FC03FB1C220A808A88521C8A8062
S31500009C3000F03CBBF8B5012804460D4603D91038A0
S31500009C4001D010384DD1204600F005FB10B9204652
S31500009C5000F081F800F0ADF8064600F0AAF8220000
S31500009C60DFF840150CD0012C03D0102C08D0202C86
S31500009C7037D101F1D00202604FF48C720A4402E03F
S31500009C80016001F148024260402202818022428145
S31500009C90200018BF102C03D1BDE8F140FBF7A2BF8E
S31500009CA0012C18BF202C52D1012C13BF202C4FF4AD
S31500009CB0D07008180020012C18BF202CB06110D1DC
S31500009CC0DFF8E404A98CA8618030E861F181EA8CB0
S31500009CD032828A4207D21C2130460AF047FB022014
S31500009CE0F2BD0120F2BDB06990F83130012B0CD0E5
S31500009CF0338993FBF1F701FB1733002B02BF92FB6D
S31500009D00F1F301FB13210029E5D1294609F07AFE7A
S31500009D1000BBB069017F007E0123022201F0CAF870
S31500009D20287C012808D101212046FFF7BDFDB06936
S31500009D3000210AF07EF80AE000207082F18930895D
S31500009D4090FBF1F0B08200F083FA00F081FA00F0A7
S31500009D5095FA0020F2BD58B50128044603D91038FB
S31500009D6001D0103812D1204600F075FAF8B9204615
S31500009D7000F04BFA00F01DF8012C18BF202C064607
S31500009D8011D1B06909F005FF10B152BD012052BDD5
S31500009D90B06990F83100012803D100212046FFF771
S31500009DA083FDFFF73CFD1C2130460AF0DFFA002058
S31500009DB052BD2046CAE438B50446FFF7C7FC05463F
S31500009DC02046FFF7E5FC2868808832BDF8B50646D0
S31500009DD001280F46344603D9103801D010380BD16C
S31500009DE03046FFF7B3FC05463046FFF7D1FC28683E
S31500009DF0808818B92620F2BD0120F2BD00F050FA85
S31500009E000646286841880844007A387028684188E0
S31500009E102A89FFF794FE41808188491E012C18BFCC
S31500009E20202C81801FD1A86990F83100012803D128
S31500009E3019E02846FFF7C1FDA86909F0A8FF022826
S31500009E4011DA2A68E889698A53881288414389B2F7
S31500009E5040188342B8BF914205DB9A42E9D2834259
S31500009E60A8BF9142E5DA304600F020FA0020F2BDA4
S31500009E70F8B500F074F81F4603D9103801D0103831
S31500009E8007D13878010001D0B0420AD300202870EB
S31500009E9007E00120F2BD3878411C39709DF80010AA
S31500009EA0295469462046FFF791FF002856D19DF8B0
S31500009EB000008028F5DA39780A0003D10A2818BF8D
S31500009EC00028EED0B14207D3002038709DF800007C
S31500009ED00D2818BF0028E4D09DF80000082818BFF8
S31500009EE07F280CD138780100DBD0401E3870002165
S31500009EF0C0B2295451A1204600F045F8D1E7387880
S31500009F00801C8642BCBF0D208DF800009DF8001015
S31500009F10204600F029F89DF8000061381A2804D27E
S31500009F209DF8000020388DF800009DF800000D28EF
S31500009F3018BF0A28AFD13978002068549DF8000070
S31500009F400D2805D10A21204600F00EF8002603E070
S31500009F500D21204600F008F83E700020F2BD0128D1
S31500009F6004460D461646704702B5012804D9B0F1DD
S31500009F70100101D0103904D10122694600F076F8AB
S31500009F8002BD012002BD2DE9F04701288146884621
S31500009F9004D9B0F1100101D010390ED1002818BF34
S31500009FA010280CD0FFF7D2FB064600247068018803
S31500009FB0084400F1080A002524E0012038E0404664
S31500009FC0FBF72EFBC1B2404601F019F92FE000F075
S31500009FD067F971680B8818F8012B1944641C0A721A
S31500009FE071680A887389FFF71AFE7068008848B995
S31500009FF0671BFFB23A4600F01DF870687D19EDB296
S3150000A00000F1080A98F8000050B100213046FFF729
S3150000A010B5FB0028DBD1307B0028F6D0222007E0F4
S3150000A020E4B2A54203DA621B92B200F003F8002004
S3150000A030BDE8F08751464846FFF711BC08200800E6
S3150000A04010B5012804D9B0F1100301D0103B0BD193
S3150000A05013460A4601460FF21500FAF723FF0024BD
S3150000A06000B90124204610BD012010BD2DE9F84F8E
S3150000A070012881468A46934604D9B0F1100101D0E1
S3150000A08010390ED1002818BF10280CD0FFF75EFB40
S3150000A0900746002478680188084400F1080800266D
S3150000A0A02DE0012042E05946504601F0A8F83CE078
S3150000A0B000F0F6F879680B881AF8012B19440A7231
S3150000A0C079680A887B89521C92FBF3FC03FB1C22ED
S3150000A0D00A808A88521C8A8009884D1EAD4100F08C
S3150000A0E0E5F8ED0F761C55B1351BEDB22A46414613
S3150000A0F0FFF7A1FF78682C19E4B200F10808F0B266
S3150000A10058450AD200213846FFF738FB0028CFD140
S3150000A110387B0028F6D0222008E05C4505DAABEB58
S3150000A120040292B24146FFF786FF0020BDE8F28F97
S3150000A130F8B50127FFF713FF03D9103801D01038FF
S3150000A14016D1002C18BF102C04D13146284601F038
S3150000A15056F80027FFF72DFE012C18BF202C05D13D
S3150000A16080693246294609F08EFE07463846F2BD1A
S3150000A1700120F2BD00E100E080E100E080E200E0C5
S3150000A1805475002024A40040097000F04199000095
S3150000A190000001406C200E408C7500204C000140F0
S3150000A1A048000140807300204066002038B505460F
S3150000A1B0012D04D9B5F1100101D0103923D1FFF7D3
S3150000A1C0C5FA0446280018BF102D03D160688088A0
S3150000A1D00028FBD1012D18BF202D12D16068808880
S3150000A1E00028FBD1A06909F0F0FD0028F6D1A0698E
S3150000A1F009F0A4FD8006F1D5A06909F09FFD800451
S3150000A200ECD5002032BD012032BD70B50546FFF702
S3150000A2109DFA0646012D346818BF202D0DD1B06970
S3150000A22090F83110012908D0022109F0F7FC00202E
S3150000A230708200F00DF800F00BF800F031F8002104
S3150000A240A18021806180E180BDE8704000F02EB8D9
S3150000A2503046FFF7B2BB80B5012804D9B0F1100132
S3150000A26001D0103906D1FFF771FA00281CBF00682B
S3150000A270002801D1012002BD002002BD00B583B037
S3150000A28000200190002301200090012201210020DE
S3150000A29000F0D5FD07BD0000636F6D2E6300000062
S3150000A2A0EFF31180602181F31188704780F31188E4
S3150000A2B0704700002B49087070470EB430B504464D
S3150000A2C02848007820B3FBF700FD08B3FBF73EFEF5
S3150000A2D00120FAF720FF0546FF2D19D0FAF710FFE7
S3150000A2E00221FBF7F8FC01462846FAF70FFF03ABFD
S3150000A2F0224629461C48FAF7D5FD30B12846FBF719
S3150000A30052FD10B1042000F00BF82846FAF760FF62
S3150000A31030BC5DF810FB0C2200211448FBF759B93C
S3150000A320124931F81020521C21F8102070470D49AF
S3150000A3300978A1B9010018BF012810D0042818BF58
S3150000A34005280CD0312818BF332808D037281EBF5F
S3150000A3503B284FF6FF71884201D00120704700204C
S3150000A36070470000AC7F002071530000DC720020B3
S3150000A370302818BF322806D034281CBF3628382883
S3150000A38001D00020704701207047000010B51F481B
S3150000A3901F4C00682060606048220021FBF719F915
S3150000A3A01C482168007808704FF6FF71206800226B
S3150000A3B04180027300202268507322689073152032
S3150000A3C02268D0734FF6FE7220680282418203F043
S3150000A3D064F92168087603F060F92168487603F08D
S3150000A3E05CF9216888760C4821680078C8760B49A4
S3150000A3F02068096840F8281F094909780171094849
S3150000A40021680068086310BD00207047346600208C
S3150000A41078730020AE7F0020F367002038660020A6
S3150000A420F26700203C66002082B08DF80010DDE95E
S3150000A430002311461A4602B009F09DBF62F30F22AF
S3150000A44062F31F42401810F0030308D0C91A1FD345
S3150000A450DB0748BF00F8012D28BF20F8022D1300A6
S3150000A46030B414461546103928BF20E93C00FAD806
S3150000A470490728BF20E90C0048BF40F8042D890091
S3150000A48028BF20F8022D48BF00F8012D30BC7047C8
S3150000A490C91818BF00F8012DCB0728BF00F8012DF9
S3150000A4A07047000009F068BF890001EB401000F119
S3150000A4B0844002607047890001EB401000F184403F
S3150000A4C0006870470122DFF87C1610B5884232BF5B
S3150000A4D00022DFF8B016884201D2144600E00224BA
S3150000A4E01021DFF8A406FFF7DFFFDFF8A0070168F9
S3150000A4F021F0807141EA0461016010BDDFF88C161D
S3150000A500DFF88C360A6802F04072984238BF0022A3
S3150000A51004D3DFF87C37984238BF0122086820F060
S3150000A520407040EA02600860704738B500F013F8E2
S3150000A53041F67130206009F064FF002105E038B56E
S3150000A54000F009F841F671322260FFF7D7FF0DB12E
S3150000A5500020206031BDDFF84847256805B1012598
S3150000A5607047C01C0F2801D2000770474FF070409B
S3150000A5707047000038B50446002500F037F9DFF8CB
S3150000A5801427DFF8A016944208D0DFF80C2794426F
S3150000A59006D0DFF80827944204D006E0086802E0F7
S3150000A5A0486800E0886800F00700401E03281BD8B2
S3150000A5B0DFE800F002050C0809F065FF04E009F089
S3150000A5C068FF01E009F062FF05460DE009F00CFFA7
S3150000A5D0DFF8D0160968090E01F001010122491CB5
S3150000A5E002FA01F1B0FBF1F5284632BDDFF8B816E4
S3150000A5F04A68D20702D40A680242FCD170470000BA
S3150000A600F8B50446200A00F00F000026401E09286F
S3150000A6100D46DFF8A07614D8DFE800F0051C141309
S3150000A620071E21132428DFF86075C4F3043416B11D
S3150000A6303046FFF7DBFF2A4621463846BDE8F8409C
S3150000A64032E7F1BDDFF8700600F013F8FFF73AFFC6
S3150000A6500837EAE71037E8E730370126E5E7383705
S3150000A6601026E2E740374FF48036DEE7DFF84C7617
S3150000A670DBE770B5DFF83416DFF818260E68DFF86A
S3150000A6801816DFF80846012510F478105DD0B0F5ED
S3150000A690003F2AD0B0F5802F21D0B0F5002F54D03E
S3150000A6A0B0F5202F27D0B0F5402F46D0B0F5602F5B
S3150000A6B066D0B0F5901F3BD0B0F5A01F24D0B0F502
S3150000A6C0B01F2AD0B0F5D01F1CD0B0F5E01F22D0A5
S3150000A6D0B0F5001F2CD0B0F5381F39D04FE009F087
S3150000A6E092FEE168C1F308210AE009F08CFEA16838
S3150000A6F0C1F3082104E009F086FE6169C1F3042173
S3150000A700491C12E0104615E01046FFF733FF216A98
S3150000A71001F00F0107E008460CE00846FFF72AFFA4
S3150000A720A16A01F0030105FA01F1B0FBF1F627E099
S3150000A730DFF86805FFF71EFF1FE0DFF8840500F06D
S3150000A74055F807281CD0092819D109F05CFE14E039
S3150000A750DFF8700500F04AF804280CD007280FD05F
S3150000A76008280CD109F04FFE2168C1F30421491CC9
S3150000A77001FB00F604E009F061FE064600E0002653
S3150000A780304670BD030903F00F0301225B1E072B41
S3150000A790DFF8F81428D8DFE803F004060A0E1014D0
S3150000A7A01C27086800E04869C0F304207047086861
S3150000A7B0C0F300607047C86800E08868C0F30820EE
S3150000A7C07047DFF8043598420ED1086A00F00F0092
S3150000A7D006E0DFF8F834984206D1886A00F00300F4
S3150000A7E002FA00F0401E704700207047014601F053
S3150000A7F00F010120491E0729DFF8D42449D8DFE8D4
S3150000A80001F0040F1348202E4836506A00F0070066
S3150000A81002283AD002D3042804D01CD3052070475E
S3150000A82011690FE002207047516901F00701491EC6
S3150000A83003292FD8DFE801F00F020311F2E7062003
S3150000A8407047916901F00701012904D00229E9D076
S3150000A850042902D07047032070470A207047116808
S3150000A86011F001010FD0012914D109207047DFF83A
S3150000A8706414096801F03001102904D0202904D09D
S3150000A880302904D0704707207047042070470820FD
S3150000A890704700207047000070B500F00F000324D9
S3150000A8A00325401E0728DFF828640FD8DFE800F0EC
S3150000A8B0042E347C31607C6A0229DFF8880206D0D7
S3150000A8C003291AD004291AD005291DD070BD0424E5
S3150000A8D0002501220121284600F0BAF8FFF725FEDF
S3150000A8E07460DFF8D403FFF7C4FEFFF7EBFD09F051
S3150000A8F07BFDBDE87040002121E60125E9E7022441
S3150000A9000225FFF7DFFDE4E70124FAE706F110046C
S3150000A91004E006F1180401E006F11404012908D048
S3150000A920022909D003290ED0062913D00A291DD0E1
S3150000A93070BD0020206070BD01220121002000F0C2
S3150000A94087F80220F6E701220121012000F080F8B5
S3150000A9500120EFE709F048FDFFF7B4FD01220021D1
S3150000A960DFF85003FFF7A0FD0320E3E70420E1E74B
S3150000A970072902D0092902D070BD002000E001207D
S3150000A980306070BD012906D0042915D007290CD0E6
S3150000A990082918D070BD0020DFF838130A6822F0A5
S3150000A9A0300242EA0010086070BD01220121042035
S3150000A9B000F04EF80120EFE701220121022000F00D
S3150000A9C047F80220E8E70320E6E770B500F03DF817
S3150000A9D001220021022000F03BF8217CDFF8FC5226
S3150000A9E000200229296808BF0120490840EA4100E1
S3150000A9F02860082122782846FFF756FD6868E17A24
S3150000AA00C00841EAC0006860617AA08841EAC020B7
S3150000AA10A860EE68207AFFF7A4FDE28806F07F6161
S3150000AA2041EAC221A27A1143227A41EAC2110843BD
S3150000AA30E860A17B607B090141EA0030E17B0843C5
S3150000AA40217B40EA0140286170BD04461120CDE615
S3150000AA502DE9F84F04288246904671D8DFE800F0C9
S3150000AA604C473D034200012602200127002400290D
S3150000AA70DFF83C92994D5ED0BAF1020F02BF28680A
S3150000AA80C0F3011000284FF0000B0AD12868C00758
S3150000AA904FF0010B05D5286820F0300040F010007B
S3150000AAA02860EE6300F050F80028FBD0B8F1000FE4
S3150000AAB046D0394600F049F80028FAD0BAF1020F1C
S3150000AAC03ED1BBF1000F3BD02868C0071BD5012241
S3150000AAD02021022000F0C9F819E0042608200327E7
S3150000AAE00224C4E71026202005270424BFE74026B9
S3150000AAF0802007270624BAE74FF480764FF40070CB
S3150000AB0009270824B3E70021022000F08DF802206F
S3150000AB1000F01EF80446012200210220FFF798FFEC
S3150000AB202146022000F036F8EE63394600F00DF8B3
S3150000AB300028FAD004E0E86300F006F80028FBD10C
S3150000AB40BDE8F18F0148E80121464846FFF7B3BC4E
S3150000AB50401E0328604912D8DFE800F0020C060800
S3150000AB600869C0F308007047086800E0886800F0CC
S3150000AB707F0070475A480068C0F30A0070470020FB
S3150000AB80704700000190D00300400E4004000E40C4
S3150000AB9041787D0170B5401E0D46032805F07F0102
S3150000ABA04D4C414E3DD8DFE800F0022A101DC5F39A
S3150000ABB008051A213046FFF77EFC0028F9D12069E6
S3150000ABC0400A45EA4020206170BD0D4618213046F6
S3150000ABD0FFF771FC0028F9D12068C00945EAC010CA
S3150000ABE0206070BD0D4619213046FFF764FC002831
S3150000ABF0F9D1A068C00945EAC010A06070BD2C4814
S3150000AC000068606920F0300040F010006061C5F314
S3150000AC10C310FFF7A6FC216A324A114029430843B4
S3150000AC20206270BD80400E402C480268C2F30112BB
S3150000AC30002A18BF002907D0202902D0302903D0C6
S3150000AC4005E04FF4000103E04FF4400100E026491F
S3150000AC50C26E0A408A42FBD1490204D5C06F800AFF
S3150000AC6000F0010070470120704710B502280AD194
S3150000AC700B0004D01D4B4FF480645C64196012B164
S3150000AC80BDE81040D0E7012010BD000000410E4095
S3150000AC90015A620202001A0003001C00050020008F
S3150000ACA040000E4000410E4040410E40EC65002041
S3150000ACB090400E40B0400E400005080050410E4046
S3150000ACC006000C0098002E0060061400700716009F
S3150000ACD070400E405C410E4010400E4024400E4035
S3150000ACE09C400E4000F8FF0FFF03F10764400E4042
S3150000ACF010B5214B1C6890FAA0F2B2FA82F224EA4F
S3150000AD00000091400843186010BD1C4901200860EE
S3150000AD10704730B51A480FF274030168002000220C
S3150000AD2003EBC204174D64682D686D070FD453F802
S3150000AD303250B5F5007F18BFB5F5806F05D0B5F573
S3150000AD40006F18BFB5F5803F01D144F480740E4DF5
S3150000AD502D68ED0553F8325048BF24F01C042942F3
S3150000AD6002D0214208BF2843521C092AD8D3C10366
S3150000AD7048BF20F01C0030BD00500E4008500E4069
S3150000AD8004500E40E841E00F88300E4001000000FC
S3150000AD9000000000040000000100000008000000A0
S3150000ADA0010000001000000001000000000100008A
S3150000ADB001000000000800001D0000000002000065
S3150000ADC01D000000000400001D000000000001003E
S3150000ADD01D0000000168C90707D58168890704D4EA
S3150000ADE08168C907FCD4012141607047890001EBE5
S3150000ADF0401000F184400260704700F1806300F16A
S3150000AE00C0601960026070473023464A58431044B8
S3150000AE100C3000F1806006E03023424A584310446B
S3150000AE200C3000F1C060012202FA01F101607047A6
S3150000AE303D490A68920840EA8200086070472DE999
S3150000AE40F04101F00308144603270F21082C1D4684
S3150000AE500CD2A60000FA06F2B1403448FFF7CDFF47
S3150000AE6008FA06F207FA06F131480DE0A4F10802E5
S3150000AE70960000FA06F2B1402E48FFF7BEFF08FA28
S3150000AE8006F207FA06F12C48FFF7B7FF2A462146D5
S3150000AE902A482B4DFFF7AAFF069A21462846FFF7B8
S3150000AEA0A5FF0120A04028612146079A2548BDE854
S3150000AEB0F0419BE7F8B50446164630000D461F469E
S3150000AEC007D0002F204602D0FFF7A6FF01E0FFF7CC
S3150000AED09BFF30210F22134811FB04F1082D084473
S3150000AEE005D2AB00416800F015F8416006E0A5F117
S3150000AEF008039B00816800F00DF881604EB9002FB1
S3150000AF002946204602D0BDE8F44085E7BDE8F44076
S3150000AF107AE7F1BD9A4021EA020206FA03F11143EB
S3150000AF207047000000A0004044A4004000A4004078
S3150000AF3008A4004004A400400CA4004010A4004053
S3150000AF4014A4004028A4004010B5DFF85441DFF8EF
S3150000AF505411E16103202061606110222262002207
S3150000AF600FF24410A061A2622066626201F1100035
S3150000AF706066E2621020A0662267E26662672AA126
S3150000AF800422E01DFAF788FD07220FF22811204659
S3150000AF90FAF792FD2020A07110BD2DE9F843DFF8E5
S3150000AFA00071064638788946904608B9FFF7CCFF07
S3150000AFB018207043384400F1600600253769F468AC
S3150000AFC0BC4212D2B068C51B7068454588BF45466D
S3150000AFD0C1192A464846FAF75FFDB068EF1987425D
S3150000AFE0A944A8EB050808BF0027E41B444588BF11
S3150000AFF044463CB17068C11922464846FAF74CFDF2
S3150000B0006519E71905B137612846BDE8F283F8B539
S3150000B01004460D461646FFF743F9074632462946CB
S3150000B0202046FFF7BAFF01E0525454000446384662
S3150000B030FFF73CF92046F2BD2DE9F84300F027F86A
S3150000B04008B9FFF781FFFFF72BF979690026182267
S3150000B05002FB06F3FB185B6E13B1761C8E42F7DB20
S3150000B0608E420CDA02FB06F1791800220C664D6658
S3150000B070C1F868800A67CA66C1F8749001E04FF0AB
S3150000B080FF36FFE7FFF712F93046BDE8F283044FBB
S3150000B090044638780D4690469946704754E70000B6
S3150000B0A000680020287300205465726D696E616C1B
S3150000B0B000000000534547474552000010B50446BE
S3150000B0C003E04FF47A7009F056FA2046441E80B227
S3150000B0D00028F6D110BD09F04EBA10B50446052178
S3150000B0E01120FFF7D9FB002200210220FFF7B0FC58
S3150000B0F01848194A01686FF3D321016002EAC42295
S3150000B100016811430160012201210220FFF7A0FC22
S3150000B110BDE8104004211120FFF7BEBB0D480068B2
S3150000B1200003C00D704738B50C480C4601884FF631
S3150000B130FF75ADF8005002237F22684601F0E3FB5D
S3150000B140BDF80000A84202D02080012032BD0020B8
S3150000B15032BD000030400E4000F80F0056240200B9
S3150000B16080B507F048F807F053F880B202BD80B505
S3150000B17007F041F8BDE8044007F04AB880B509F089
S3150000B180A2F9074800214160001D06F0ABFF20B17F
S3150000B19039210FF21400FAF7F3FE002002BD000079
S3150000B1A0AC75002000F008B873797374656D2D7462
S3150000B1B0696D65722E630000704700000A46090239
S3150000B1C041EA12214840C0F30311484080EA0030AA
S3150000B1D041010206C9B2D20E41EA0221484080B2BC
S3150000B1E07047000003460A4685A10420FFE70CB419
S3150000B1F080B502AA00F00AF801BC5DF80CFB0A0053
S3150000B20003D003467FA11120F1E770472DE9F04FE7
S3150000B21085B005460C469046FFF789F80026F8B932
S3150000B220FAF753FDE0B10120F9F775FF8246BAF14E
S3150000B230FF0F15D00021F9F769FF294601A8FAF793
S3150000B2404AFD05469CB900F087F830B95046FAF732
S3150000B250AAFD10B10420FFF763F85046F9F7B8FFCE
S3150000B26005B0BDE8F08F8DF804200125641C207818
S3150000B2700100E8D0A0F130010A2905D20A2101FB1C
S3150000B2800600A0F13006F1E700F066F80028E4D1E8
S3150000B29022780025422A01A80ED0442A1AD0462A2E
S3150000B2A025D0572A0DD0622A3AD0662A2AD06C2A8F
S3150000B2B025D0702A26D0D6E758F8040B8DF804005E
S3150000B2C0D3E758F8041B8DF8041002250904090E6B
S3150000B2D04170CBE758F8041B8DF804100A0A427037
S3150000B2E004250A0C8270080E8DF80700BEE758F890
S3150000B2F0041B5046FAF73EF80028B7D0ADE758F8D9
S3150000B300046BB3E7012358F8041B662A08BF02231F
S3150000B310F2B25046FAF70DF8002808BF0026ECE70F
S3150000B320394858F8047B006810F80A90FFB2FF2FDE
S3150000B3309CD010F807B00BEB0901C9B25046FAF7DA
S3150000B34067F8002889D1CDF800B000233A4649466F
S3150000B3505046FAF7AFF889E72A4601A95046FAF7A8
S3150000B36007B82DE9F043122885B080460D4609D06E
S3150000B3703A281FD04FF6FE71884204BF284608F0CF
S3150000B380F9FF36E02048224F0068465D0BE028466C
S3150000B390F9F7B6FE014622460020FEF71DFC386886
S3150000B3A0455D203EF6B2FF2D23D0212EACBF2024D2
S3150000B3B03446ECE7F9F716FD814600F067FA0646D3
S3150000B3C000F078FB074600F056FB044600F05CFAF6
S3150000B3D002460E480FF240010390CDF81090234626
S3150000B3E00C48006840880290019600973B20FFF7C2
S3150000B3F0FEFE2946404605B0BDE8F043FEF7B8BF5D
S3150000B400574600006C7000001C660020B4750020D2
S3150000B41024660020787300205742425757387042FE
S3150000B42000000000010006D0042804DADFF84819FD
S3150000B43008720020704702207047DFF83C09007A46
S3150000B440704780B5DFF8341909780A0004BFDFF8C1
S3150000B4502819097A491E03D0491E012904D907E093
S3150000B460BDE8024009F02AB9BDE8024009F0AFBDC7
S3150000B4707C2115E080B500F063F804BFDFF8F8081A
S3150000B480007A401E03D0401E012804D907E0BDE81B
S3150000B490014009F011B9BDE8014009F095BD9321BD
S3150000B4A00FF60010FAF76CFD002002BD80B500F023
S3150000B4B047F804BFDFF8C008007A401E03D0401EDC
S3150000B4C0012804D907E0BDE8014009F0C3B8BDE88A
S3150000B4D0014009F0E6BBA821E2E780B5DFF89C1839
S3150000B4E009780A0004BFDFF89018097A491E03D0CC
S3150000B4F0491E012904D907E0BDE8024009F0ACB8AD
S3150000B500BDE8024009F0D9BBBE21C9E780B500F00D
S3150000B51017F804BFDFF86008007A401E03D0401E0B
S3150000B520012804D907E0BDE8014009F0B7B8BDE835
S3150000B530014009F09BBBD32100F0B8FA072002BDF9
S3150000B540DFF8380800780100704780B5FFF7F8FF8C
S3150000B55004BFDFF82408007A401E03D0401E0128ED
S3150000B56004D907E0BDE8014009F06EB8BDE8014026
S3150000B57009F08BBBEE2193E780B5FFF7E1FF04BF2F
S3150000B580DFF8F407007A401E03D0401E012804D9D4
S3150000B59007E0BDE8014009F05BB8BDE8014009F0ED
S3150000B5A07CBB40F203117BE709F01CBD10B5DFF848
S3150000B5B0CC1700228A61DFF8C827127882B3027896
S3150000B5C0092A2DDB8278437803EB022202F44262D9
S3150000B5D0B2F5026F24D1C279807900EB022080B2E5
S3150000B5E0002201EB42031B89984206D18B181C7975
S3150000B5F01CB1181D8861007810BD521C042AF0DBAE
S3150000B600521ED2B23AB101EB4203DC881C818B1880
S3150000B610DC781C71F4E7088103200871081D886135
S3150000B620032010BD2DE9F041DFF84C773E7A032E5A
S3150000B63004460D46904602D1FFF7B8FF0646384647
S3150000B64000F0F1F9012E08D015D3032E01D00BD34B
S3150000B65011E0DFF828070461456142462946204685
S3150000B660BDE8F04109F001B8424629462046BDE84A
S3150000B670F04109F0E1BB40F2491100F017FA012050
S3150000B680BDE8F081DFF8F4060078012802D0022830
S3150000B69002D003E008F0FFBF09F07EBC40F259116A
S3150000B6A00FF20070FAF76CBC70B50446DFF8CC06F2
S3150000B6B006784FF0FF3516B9DFF8BC06067A012E7C
S3150000B6C004D011D3032E01D009D30DE0204602F099
S3150000B6D06EF9012E05460BD015F1010F08D1204653
S3150000B6E005F063FB054603E04FF4CE7100F0DEF98A
S3150000B6F0284670BD05F002BB70B50446DFF87C062F
S3150000B7000678FF2516B9DFF87006067A701E0AD08D
S3150000B710401E01280CD8204605F03EFB022E0546A9
S3150000B7200AD0FF2D08D1204602F059F9054603E05C
S3150000B73040F2BB1100F0BAF9284670BD10B50446B8
S3150000B74003F076F82046BDE8104005F09BBA10B528
S3150000B75001F0E4FF044605F09CFD204310BDDFF830
S3150000B7601816097A012908BF02F053B980B50BD320
S3150000B770032901D004D307E0BDE8024002F049B92D
S3150000B780BDE8024005F087BD40F21B2188E680B582
S3150000B790DFF8E405007A401E03D0401E012804D9D4
S3150000B7A007E0BDE8014002F0D9BCBDE8014005F064
S3150000B7B018BE4FF40B7161E010B5044602F0FDFBB4
S3150000B7C02046BDE8104005F074BD10B5044602F0F1
S3150000B7D00EFC2046BDE8104005F074BD70B5DFF8DC
S3150000B7E09865307A6FF07F040128254604D011D37E
S3150000B7F0032801D006D30DE002F0D0FB0446307AD0
S3150000B800012802D005F0B2FD0546AC42B8BF2C4671
S3150000B81060B270BD40F27A2100F048F9F8E7DFF82F
S3150000B8205805007A012808BF02F023BD80B50BD366
S3150000B830032801D004D307E0BDE8014002F019BD9A
S3150000B840BDE8014005F00DBE40F28B2148E1DFF86E
S3150000B8502805007A012808BF02F00BBB80B50BD380
S3150000B860032801D004D307E0BDE8014002F001BB84
S3150000B870BDE8014005F003BE4FF427710FF22450D6
S3150000B880FAF77EFB012002BD02F0E4BB02F0E6BB44
S3150000B890DFF8E404007A012808BF02F0C9BA80B5CF
S3150000B8A00BD3032801D004D307E0BDE8014002F022
S3150000B8B0BFBABDE8014005F0FEBD40F2B921DDE7A3
S3150000B8C001F02EBF01F05CBF10B500F01AF804D0ED
S3150000B8D012D3032808D005D30EE0204602F0FFFA63
S3150000B8E0012005E0012000E0204602F0F8FA20469B
S3150000B8F0BDE8104006F0A0B8BDE810404FF437711F
S3150000B900CEE60446DFF87004007A01287047DFF8B7
S3150000B9106C040078012802D0022802D003E002F06D
S3150000B92099BA05F0CCBD40F2EB21B9E605F0E2BDCF
S3150000B93070B5DFF844640446307A0125012804D046
S3150000B94011D3032801D009D30DE0204601F083FF6F
S3150000B9500546307A01280AD0280008D0204605F08E
S3150000B960CDFD054603E04FF4487100F09FF82846E8
S3150000B97070BD10B5FFF7C5FF04D010D3032806D05D
S3150000B98008D30CE02046BDE8104002F037BC204644
S3150000B99002F034FC2046BDE8104005F0BBBDBDE812
S3150000B9A010404FF44D717BE6F8B500F01AF804D05C
S3150000B9B010D3032801D006D30CE0204602F05DFA2E
S3150000B9C000F055F803D0204605F0D2FD06462800C3
S3150000B9D004D004E040F2493100F068F835462846C4
S3150000B9E0F2BDDFF894730446387A00250026012854
S3150000B9F0704702F0F1BB80B5FFF784FF04D00DD38A
S3150000BA00032805D006D309E0BDE8014002F036B9A7
S3150000BA1002F034F9BDE8014005F02CBEBDE8044053
S3150000BA2040F277313CE6DFF858130722FAF734B8CC
S3150000BA3080B5FFF767FF04D00DD3032805D006D3E2
S3150000BA4009E0BDE8014002F0F1B902F0EFF9BDE806
S3150000BA50014005F0AABFBDE8044040F29A311FE656
S3150000BA6080B501F006FFBDE8014006F0A3B8054623
S3150000BA70387A01287047DFF80003007A012808BFEA
S3150000BA8001F06ABF80B50BD3032801D004D307E0C9
S3150000BA90BDE8014001F060BFBDE8014005F021B9F5
S3150000BAA040F2E23100F002F8FF2002BD0FF2F4206E
S3150000BAB0FAF766BAB048007A012808BF01F050BF0D
S3150000BAC080B50BD3032801D004D307E0BDE80140BD
S3150000BAD001F046BFBDE8014005F008B940F2F33178
S3150000BAE0FFF7E4FF6FF07F0002BDF8B500F01CF829
S3150000BAF08A258A26012804D010D3032801D006D32C
S3150000BB000CE0204601F0C0FEFFF7B1FF03D020464F
S3150000BB1005F0AAFA06462DB9002603E040F21A41BE
S3150000BB20FFF7C4FF3046F2BD934F0446387A70479C
S3150000BB30F8B5FFF7F9FF8B258B26012804D010D323
S3150000BB40032801D006D30CE0204601F018FFFFF7CA
S3150000BB508EFF03D0204605F05EFB06462DB9002673
S3150000BB6003E04FF48661FFF7A1FF3046F2BD10B542
S3150000BB7000F046F804D00CD3032801D005D308E022
S3150000BB8002F0A0FA207A012808D0BDE8104005F09E
S3150000BB9065BBBDE8104040F2444181E510BD10B5DB
S3150000BBA000F02EF804D00CD3032801D005D308E00A
S3150000BBB002F097FA207A012808D0BDE8104005F077
S3150000BBC053BBBDE8104040F2574169E510BD10B5C2
S3150000BBD000F016F804D00CD3032801D005D308E0F2
S3150000BBE002F08DFA207A012809D0BDE8104005F050
S3150000BBF037BBBDE8104040F26A41FFF751BD10BDAA
S3150000BC005D4C207A0128704710B5FFF7F9FF04D084
S3150000BC100CD3032801D005D308E002F086FA207A77
S3150000BC20012809D0BDE8104005F020BBBDE8104052
S3150000BC3040F27D41FFF734BD10BD70B504464E4855
S3150000BC40007A03280D4616462FD14C4803788169A1
S3150000BC50012B21D184B1B4F140020AD0483A012A1D
S3150000BC6084BF121F012A20D9D21E10D1E9B10120AA
S3150000BC701AE009B103220A7000224169006909F03D
S3150000BC80DBF8040011D1BDE8704002F0E3B840F2E1
S3150000BC90A441FFF70BFF08E039B1402C03D08F2CED
S3150000BCA003D1022000E003200870324629462046D0
S3150000BCB0BDE87040FDF786BAF8B500F019F818B17E
S3150000BCC040F2BB41FFF7F2FE012008E0F8B500F0B4
S3150000BCD00FF818B140F2C541FFF7E8FE02203870B0
S3150000BCE032462946204601F009FA00203870F1BD97
S3150000BCF0224F044638780D461646704780B5FCF745
S3150000BD008BFD02BD10B500F033F818B140F2FA41D0
S3150000BD10FFF7CCFE09F0BFF940E010B500F028F8B7
S3150000BD2018B140F20251FFF7C1FE09F0B4F935E04F
S3150000BD3010B5124C23782BB901232370FFF77DFF32
S3150000BD400020207010BD10B50C4C23782BB90223AF
S3150000BD502370FFF772FF0020207010BD10B500F0B1
S3150000BD6007F818B140F22251FFF7A0FE012012E0B9
S3150000BD70024C20787047000068670020907500200C
S3150000BD807065002010B5FFF7F3FF18B140F22A5195
S3150000BD90FFF78CFE0220207001F0D5F900202070FC
S3150000BDA010BD00007068792E63000000602080F3EB
S3150000BDB011887047890001EB401000F18440026051
S3150000BDC07047000010B50446FFF7F0FF4A484AF6F0
S3150000BDD0E8510160C162016B01F00F01022913D124
S3150000BDE0464A01211160806B00F00300012818BF4C
S3150000BDF0022809D100221C214148FFF7DBFF00225F
S3150000BE0000214048FFF7D6FF200A00283E4808BF19
S3150000BE1024024FF20F0104804180BFF35F8FBFF30E
S3150000BE204F8F3A483A4A016801F4E06111430160D4
S3150000BE30BFF34F8F00BFFDE780B5002000F009F883
S3150000BE4030B9BDE80440E3210FF2D800FAF798B8FC
S3150000BE5001BD2DE9F0422F4C216842428D1815F0A4
S3150000BE601F0108D0002802D44842054403E0484296
S3150000BE70284400F120052848A5F12006A84224BF41
S3150000BE802648864203D3EFF30880854201D300207B
S3150000BE902DE0FEF705FA81462148006810F00107FB
S3150000BEA018BF09F092F9206801468D4206D2A842D1
S3150000BEB024BFCD2100F80119F9D206E0203800226E
S3150000BEC001E000F8012B8842FBD32560304609F0DB
S3150000BED083F9E22001E006F8010BAE42FBD30FB175
S3150000BEE009F050F94846FEF7E1F920682038BDE828
S3150000BEF0F08208480068704708300E40404008400D
S3150000BF0060300E4074300E40000000200CED00E062
S3150000BF100400FA0574670020E85900202C1100205F
S3150000BF2094ED00E06D6963726F2D696E7465726ED3
S3150000BF30616C2E630000000038B5FEF7EAFE044689
S3150000BF40FEF7E3FE0020002124FA01F2D20713D502
S3150000BF500FF280001C4C30F8110006284CF23C32DF
S3150000BF604FF20F031DD16088984216D12188080A26
S3150000BF700C2812DA084612E0491C89B21129E3D3CB
S3150000BF801249088140F201720889904204D1104892
S3150000BF90D0E90023C1E9002331BD4FF4C0606280BF
S3150000BFA0EEE740F20725A84201BF61889942218841
S3150000BFB0A942E5D162800846E2E704480089000A02
S3150000BFC0704702480089704700000020B06F0020CB
S3150000BFD09400002001040000050B060B070B00006F
S3150000BFE00000000001030109060001050000000031
S3150000BFF000000000030600002DE9F04FCF4D8046FB
S3150000C000A86B410785B007D5296C2F6D0FF2403616
S3150000C01003910024A14607E0E96BEF6C0FF2383676
S3150000C020DFF81C9303916C6D00074CBF0FF23032A2
S3150000C0300FF23432B9EB040A07D064204FEA5A01F2
S3150000C04000FB0710B0FBFAFB01E04FF0000B039872
S3150000C0500290CDF80490009433460FF21431404616
S3150000C060F9F720F81FFA8AF0019000961FFA8BF371
S3150000C070BAB20FF22C314046F9F714F895F83800A9
S3150000C08040070CD4AAF19C00874208D1686DAD49DF
S3150000C090884204D20FF244314046F9F703F8039878
S3150000C0A0814528BFA04205D232460FF25C31404698
S3150000C0B0F8F7F8FF4046F9F734FF286E002804BF6A
S3150000C0C0686E00282FD00FF260310FF2A06740464D
S3150000C0D0F8F7F6FF002496A6286EE040C00707D5BD
S3150000C0E057F82420107818B131464046F8F7E8FF93
S3150000C0F0641C202CF0DB0024686EE040C00709D5E4
S3150000C10007EB8400D0F88020107818B131464046FD
S3150000C110F8F7D6FF641C022CEED3404605B0BDE806
S3150000C120F04FF8F7B9BF404605B0BDE8F04F0FF243
S3150000C1302831F8F7B7BF2DE9F8430446FFF741FF6A
S3150000C14040F20151401A804D0FF2B8470FF2D04627
S3150000C1500FF2B0580FF2883913D0401E14D040F2B7
S3150000C160FF11401A13D04FF44071401A17D0401EE9
S3150000C1702FD0401E50D0401E7CD0401E00F099802B
S3150000C18095E00FF2EC2172E00FF2243193E06B6D33
S3150000C1902A6D0FF268312046F8F784FF82E00FF22D
S3150000C1A0783100F08DF8A86AC0F3400018B10FF29C
S3150000C1B0803100F085F8A86AC0F3807018B10FF2DC
S3150000C1C0AC3100F07DF8A86AC00F6BD00FF2D03109
S3150000C1D04DE00FF2084100F073F895F8240010F0D6
S3150000C1E0030F01D000F06FF8686AC0F3C01018B1F1
S3150000C1F02A6B394600F069F80027686AF840C007DC
S3150000C20006D558F82720107810B1314600F05DF8B1
S3150000C2107F1C082FF1D345E00FF20C4100F050F8D7
S3150000C22000F051F8686AC0F3802018B10FF210418F
S3150000C23000F046F8686AC0F3C03018B12A6B394678
S3150000C24000F043F80827686AF840C00706D558F892
S3150000C2502720107810B1314600F037F87F1C102FD8
S3150000C260F1D395F8240000061CD10FF21C4100F012
S3150000C27027F817E00FF2404100F022F800F023F80B
S3150000C2801027686AF840C00706D558F827201078A6
S3150000C29010B1314600F019F87F1CFFB21A2F01DAEF
S3150000C2A0202FEED32046BDE8F243F9F73ABEBDE8AB
S3150000C2B0F1830FF2204100F003F800F004F8F1E7F3
S3150000C2C02046F8F7EFBE2A6849462046F8F7EABE48
S3150000C2D02DE9F0478146DFF874A00FF218550FF2EA
S3150000C2E01848002413A614A706E04846F8F7E8FE07
S3150000C2F04846F9F716FE641C2878B8B15AF8043B8C
S3150000C3002A4641464846F8F7DBFE00E06D1C2878D1
S3150000C3100028FBD115F8010F00281EBFE4B204F077
S3150000C3200300032814BF39463146DEE7BDE8F0872F
S3150000C330202570000D0A00002C20000000000020BF
S3150000C340486300209C0000204400002004000020D8
S3150000C35070726F63657373006D61696E0000000033
S3150000C360546872656164000048616E646C657200B1
S3150000C3702570206D6F6465207573696E6720257062
S3150000C38020737461636B202825347820746F202510
S3150000C3903478292C205350203D2025347800000085
S3150000C3A02575206279746573207573656420282568
S3150000C3B07525252920696E20257020737461636BAD
S3150000C3C020286F7574206F66202575206279746544
S3150000C3D07320746F74616C290000000053746163EC
S3150000C3E06B205F6D61795F20686176652075736586
S3150000C3F06420757020746F203130302525206F66DB
S3150000C40020746F74616C2E005350206973206F7511
S3150000C410747369646520257020737461636B207280
S3150000C420616E676521000000496E746572727570F1
S3150000C43074732061637469766520286F7220707248
S3150000C440652D656D7074656420616E64207374611A
S3150000C450636B6564293A00004E6F20696E746572DD
S3150000C46072757074732061637469766500000000EC
S3150000C47052657365742063617573653A20576174FC
S3150000C4806368646F6720657870697265642C206ED6
S3150000C4906F2072656C6961626C6520657874726183
S3150000C4A020696E666F726D6174696F6E00000000C0
S3150000C4B052657365742063617573653A20576174BC
S3150000C4C06368646F67206361756768742077697451
S3150000C4D06820656E68616E63656420696E666F00CC
S3150000C4E0496E737472756374696F6E2061646472E9
S3150000C4F06573733A20253478000000005265736531
S3150000C500742063617573653A204173736572742094
S3150000C51025703A25640000005265736574206361D6
S3150000C5207573653A2048617264204661756C7400C3
S3150000C530484653522E5645435454424C3A2065724F
S3150000C540726F722072656164696E672076656374C6
S3150000C5506F72207461626C6520666F7220616E2056
S3150000C560657863657074696F6E00000048465352C3
S3150000C5702E464F524345443A20636F6E666967758F
S3150000C5807261626C65206661756C7420636F756C90
S3150000C59064206E6F7420616374697661746500004F
S3150000C5A0484653522E44454255474556543A20660E
S3150000C5B061756C742072656C6174656420746F209B
S3150000C5C06465627567202D20652E672E2C206578A0
S3150000C5D065637574656420424B50540052657365FB
S3150000C5E0742063617573653A204D656D6F727920AD
S3150000C5F04D616E6167656D656E74204661756C741C
S3150000C60000000000496C6C6567616C2061636365BE
S3150000C610737320616464726573733A2025347800FD
S3150000C620434653522E25700052657365742063612C
S3150000C6307573653A20427573204661756C74000007
S3150000C64041646472657373206973206F6620616E3E
S3150000C65020696E737472756374696F6E2061667497
S3150000C660657220627573206661756C74206F6363F2
S3150000C67075727265642C206E6F7420746865206311
S3150000C680617573652E000000434653522E286E6F67
S3150000C6906E6529206C6F6164206F722073746F72EF
S3150000C6A06520617420616E20696C6C6567616C2021
S3150000C6B061646472657373005265736574206361A7
S3150000C6C07573653A205573616765204661756C74AC
S3150000C6D00000000052657365742063617573653AE6
S3150000C6E0204465627567204D6F6E69746F722046CF
S3150000C6F061756C74000000002570203D202534789B
S3150000C70000000000600E0200A00E0200D80E02001B
S3150000C710DC0E0200200F0200D80E0200D80E020026
S3150000C7205C0F02008C0F0200BC0F0200E00F02003B
S3150000C7300810020048100200D80E0200D80E0200AF
S3150000C74084100200B4100200EC100200281102004E
S3150000C75058110200D80E0200D80E0200D80E0200B0
S3150000C760D80E020090110200C01102000012020051
S3150000C7700C1202001C1202002812020034120200DF
S3150000C7804012020050120200601202006C120200F7
S3150000C790781202008812020094120200A41202000B
S3150000C7A0B4120200C0120200CC120200D81202001B
S3150000C7B0E4120200F4120200001302001013020039
S3150000C7C020130200301302003C130200481302003B
S3150000C7D05413020060130200701302007C1302005F
S3150000C7E08C13020098130200A4130200B413020073
S3150000C7F0C41302005230005231005232005233004C
S3150000C8005234005235005236005237005238005228
S3150000C810390052313000523131005231320052313A
S3150000C82033284C5229004D5350005053500050436A
S3150000C8300078505352004D53502075736564005074
S3150000C840535020757365640043535441434B206233
S3150000C8506F74746F6D0049435352005348435352EB
S3150000C86000494E545F4143544956453000494E54A1
S3150000C8705F414354495645310043465352004846AA
S3150000C88053520044465352004D4D41522F424641A9
S3150000C890520041465352005265743000526574315D
S3150000C8A00052657432005265743300526574340068
S3150000C8B0526574350044617430004461743100007F
S3150000C8C010B5DFF838430120207082B0002008F050
S3150000C8D095FC38B1002008F091FC18B100202070BA
S3150000C8E0492016BD02237F220021684600F00BF87E
S3150000C8F0BDF80000B0F57F7F03D00120207007202F
S3150000C90016BD002016BD10B5FF2908DCDFF8EC4285
S3150000C910247844B1BDE81040C9B208F079BFBDE83B
S3150000C920104009F0C7BA10BD2DE9F0410546FF2DAC
S3150000C9300E461746984615DCB04C2078C0B1607894
S3150000C94028B14FF4CE710FF2AC50F9F719FB012064
S3150000C9506070434632463946E8B209F0C7F800200F
S3150000C960607005E042463946BDE8F04109F0C5BAB7
S3150000C970BDE8F0814BF23461401A00F0FB8040F6CE
S3150000C9800F31401A00F0CE804FF48471401A00F047
S3150000C990DF80C01E00F0C080F43800F0DB80401E4F
S3150000C9A000F0C480801E00F0DD800F3800F0C280E9
S3150000C9B0801E00F0AB80401E00F0C2804FF48071F4
S3150000C9C0401A00F0C38040F2EC41401A00F0C480E7
S3150000C9D0401E00F0A38040F20711401A00F0C88004
S3150000C9E04FF44271401A00F0A380001F00F0AA80A5
S3150000C9F04FF43B71401A00F09380143800F09E808B
S3150000CA0040F2EB21401A00F0AB80401E00F0A680F9
S3150000CA10C01E00F08980123800F0A680401E00F08B
S3150000CA20A5804FF4FF71401A00F08E8040F2FD2180
S3150000CA30401A00F0818040F6CF01401A00F09D8038
S3150000CA40401E00F0A880401E00F0A780401E00F0A7
S3150000CA50A680401E00F0A580401E00F0A4803A3853
S3150000CA6000F09380AE3800F0A080401E00F09F805A
S3150000CA70401E00F09E80401E00F09D80401E00F08B
S3150000CA809C80401E00F09B800B3800F09A80401E70
S3150000CA9000F09980373800F0A680401E00F0A5808F
S3150000CAA0401E00F0A480401E00F0A380083868D025
S3150000CAB0113800F08A80D1382AD040F21111401A7C
S3150000CAC000F087801F385AD08B3800F08480401ED3
S3150000CAD000F08580401E00F08480401E7DD04238E4
S3150000CAE012D01E384FD040F21661401A4FD04FF484
S3150000CAF0FD71401A0ED0F1384BD041F29D01401A1B
S3150000CB007BD00C3863D076E03D4834E03D4832E0D7
S3150000CB103D4830E03D482EE03D482CE03D482AE0C7
S3150000CB203D4828E03D4826E03D4824E03D4822E0D7
S3150000CB303D4820E03D481EE03D481CE03D481AE0E7
S3150000CB403D4818E03D4816E03D4814E03D4812E0F7
S3150000CB503D4810E03D480EE03D480CE03D480AE007
S3150000CB603D4808E03D4806E03D4804E03D4802E017
S3150000CB703D4800E03D48008870470120704702208C
S3150000CB807047032070470420704705207047062031
S3150000CB9070470720704708207047092070470A2011
S3150000CBA070470B2070470C2070470D2070470E20F1
S3150000CBB070470F20704710207047112070471220D1
S3150000CBC070471320704714207047152070471620B1
S3150000CBD070471720704718207047192070471A2091
S3150000CBE070471B2070471C2070471D2070471E2071
S3150000CBF070471F2070474FF6FF707047BD720020C8
S3150000CC00402402004224020044240200462402007A
S3150000CC10482402004A2402004C2402004E2402004A
S3150000CC20502402005224020054240200562402001A
S3150000CC30582402005A2402005C2402005E240200EA
S3150000CC4060240200622402006424020066240200BA
S3150000CC50682402006A2402006C2402006E2402008A
S3150000CC60702402007224020074240200762402005A
S3150000CC704BF23461401A27D040F60F31401A29D0C2
S3150000CC804FF48471401A2BD0C01E29D0F4386CD0D2
S3150000CC90401E1FD0801E00F086800F381AD0801EDE
S3150000CCA018D0401E27D04FF48071401A23D040F28E
S3150000CCB0EC41401A75D0401E0CD040F20711401AC4
S3150000CCC075D04FF44271401A79D0001F13D04FF43B
S3150000CCD03B71401A77D0143802D040F2EB21401A4B
S3150000CCE07DD0401E6FD0C01E6DD0123801285CD991
S3150000CCF040F2FF11401A7CD040F2FD21401A62D06A
S3150000CD0040F6CF01401A74D0401E56D0401E56D071
S3150000CD10401E56D0401E56D0401E4AD03A3852D0F9
S3150000CD20AE3848D0401E5AD0401E44D0401E44D093
S3150000CD30401E44D0401E44D00B385AD0401E42D02C
S3150000CD40373850D0401E50D0401E50D0401E50D0D4
S3150000CD5008384ED0113838D0D13830D040F21111C1
S3150000CD60401A36D01F3826D08B3834D0401E36D0E5
S3150000CD70401E36D0401E30D0423820D01E3838D023
S3150000CD8040F21661401A16D04FF4FD71401A26D0B3
S3150000CD90F13824D041F29D01401A14D00C3816D037
S3150000CDA029E01420704794207047202070472220E5
S3150000CDB0704718207047112070471A2070470820C6
S3150000CDC070470A207047022070470D2070470B20DD
S3150000CDD07047192070475C2070470120704710206B
S3150000CDE070472820704712207047342070471E2055
S3150000CDF0704704207047002070474BF23461401A98
S3150000CE0071D040F60F31401A69D04FF48471401A40
S3150000CE1069D0C01E67D0F438012864D9C01E62D01C
S3150000CE200F3860D0801E01285DD940F20111401AEA
S3150000CE3059D040F2EC41401A012854D94FF484717C
S3150000CE40401A50D04FF44271401A4CD0001F4AD0BD
S3150000CE504FF43B71401A46D0143844D040F2EB21CF
S3150000CE60401A01283FD9001F3DD0123801283AD96F
S3150000CE7040F2FF11401A36D040F2FD21401A32D05E
S3150000CE8040F6CF01401A05282DD93F382BD0BE38A1
S3150000CE9029D0383827D0401E27D00A3823D0E23888
S3150000CEA021D04FF49871401A1DD08C3801281AD918
S3150000CEB0801E16D0423816D01E3814D040F21661A5
S3150000CEC0401A10D04FF4FD71401A0CD0F1380AD038
S3150000CED041F29D01401A06D00C3802D007E014201A
S3150000CEE070470620704701207047052070470020D4
S3150000CEF070470000746F6B656E2E630000207047EC
S3150000CF0070B5DFF8C815DFF8C835DFF8C845002268
S3150000CF100A724A821B78DFF8C0251278DD0703D42F
S3150000CF201D0004D1D50702D5DFF8B05500E025462F
S3150000CF309E0702D41BB9920701D5DFF8A4452080CD
S3150000CF4028800020C881088270BD2DE9F24F8046F6
S3150000CF50DFF87C05DFF88C75007898F800900128DA
S3150000CF600CBFDFF88405DFF884059246B0F800B000
S3150000CF7097F8300081451D461ED10021DFF8702547
S3150000CF8016E07C1808EB010394F831C054785B78FE
S3150000CF90002C02BF002903F0DF030CF0DF0C634511
S3150000CFA004D0022904BF1378002B05D1491CC9B24D
S3150000CFB08142E6DB002400E00124584608F09AF896
S3150000CFC010B9F868401CF860DFF80405DFF8FC6467
S3150000CFD0007801280CBFDFF81C05DFF81C05006887
S3150000CFE07062A6F80CB09DF80000F071C6F820A09B
S3150000CFF00B98B0710A9830717571386931797A6910
S3150000D0004018386196F9060082187A61736A3A6A9E
S3150000D0109A183A623A68521C3A60B3897A6AD21808
S3150000D0207A621CB1B868401CB86011E007F1B4021E
S3150000D03013685B1C13605368C11892F9093051607C
S3150000D0409842A8BF507292F908108142A8BF107288
S3150000D050B07800284AD0F07868BB08EB090118F8C8
S3150000D060090011F8011C41EA0025708A281A80B2CD
S3150000D070B0F5805FA4BF0120FFF742FFDFF8500440
S3150000D080007801280CBFDFF85404DFF85404008848
S3150000D090F082F08A7582281A81B2002918BF002D05
S3150000D0A007D080B2C82101FB00506900B0FBF1F047
S3150000D0B000E000203072707818B17868401C786003
S3150000D0C012E03178DFF8340431B109F1010292B28D
S3150000D0D04146F8F73BFA01E080F80090708AB0828A
S3150000D0E0307A7072F08A308301207070F069010026
S3150000D0F002D0BDE8F24F0047BDE8F18F7CB504468B
S3150000D10060181546A0F10806FEF710FC20B120783D
S3150000D1100328A4BF801E2070F07804F048FD96F91D
S3150000D120021001910090B179707900F00F000902A8
S3150000D13041EA0040F179737841EA00022946204627
S3150000D140FFF703FF73BDDFF89C03C16A491CC16288
S3150000D150DFF87803018A491C018270472DE9F14FF7
S3150000D160DFF868B30FF2F0339BF800B00FF2F03936
S3150000D1700FF2F43C0FF2F83E0FF2FC380FF2004AC1
S3150000D180BBF1000F8CB099A299A09AA19AA49BA575
S3150000D1909BA79CA611D00FF2F03BCDF82CB0CDF892
S3150000D1A028A0099601910090CDF82080CDF81CE0CA
S3150000D1B000F015F80FF258300CE0CDF828A00996CB
S3150000D1C001910090CDF82080CDF81CE000F007F822
S3150000D1D00FF2BC30F8F72CFC0DB0BDE8F08FCDF89F
S3150000D1E018C00597CDF81090039502940C997047D6
S3150000D1F02DE9F043DFF8D472DFF8004325788BB0D1
S3150000D2003E6A97F90600FEF7AAFA8146387929465A
S3150000D21004F0CEFC0A95F02279791142FA79099246
S3150000D2200896039014BF53212021BA893879FB89C7
S3150000D23007920290CDF81490A8467A6A787A0692F8
S3150000D240019097F90620B88A049200903A8B0FF263
S3150000D2508830F8F700FC387880B16BA0F8F7FBFB54
S3150000D26001256AA704E0615D3846F8F7F4FB6D1CFA
S3150000D270EDB2A845F7DA66A0F8F7EDFB0BB0BDE80E
S3150000D280F0430FF28830F8F7E6BB2DE9F34F85B08F
S3150000D29000208DF8100090469946FEF7F9FA002610
S3150000D2A000270400DFF85802DFF82052D0F83014C7
S3150000D2B00FF2603018BF0124F8F7CDFB9DF8180077
S3150000D2C0E8709DF8180010B90598FFF747FF6E70D3
S3150000D2D00120A870FEF7ACFB0020FFF711FEDFF877
S3150000D2E024A209E09AF80000F8F7F6FD20B19AF8B2
S3150000D2F0000004A9F8F7F2FD9DF8100065282AD071
S3150000D3000020FEF71BFA687840B19DF8180008B9AE
S3150000D310FFF76EFF0020761C68700DE05FEA0800DC
S3150000D3200AD0FCF7BDFF8346687810B9012005F0E6
S3150000D330A3FD5846FCF7BAFFDFF8CC01007820B110
S3150000D340FEF705FA08B101F09DFB7F1CB9F1000F4D
S3150000D350C8D04E45C6D10CB1FEF74DFB0020A870D3
S3150000D360B8F1000FE87010D0B81B039001963B4649
S3150000D3700FF2E42005990FF2D02202900FF2D0208E
S3150000D38000900FF2AC20F8F766FBDFF87401D0F8D6
S3150000D39030140FF2CC20F8F75EFB07B0BDE8F08F33
S3150000D3A00023002203E000230022012100E00021E7
S3150000D3B011306AE7DFF82C01DFF850210021016007
S3150000D3C041608160C16001614161016241628162C7
S3150000D3D08161C161C162B4301160416001607F2129
S3150000D3E001726FF07F014172704700006E756D002B
S3150000D3F07365710070657200657272006C71690008
S3150000D40065640000667000007B000000202568004F
S3150000D4107D0000008068006800B101202B4908707B
S3150000D420704770B5294D0446A17BA87A00290EBF26
S3150000D43080F00101A168096801B10121CAB28242E6
S3150000D4402DD02F48A972D0F8506410001BD0314659
S3150000D4500FF2C010F8F7FFFA3046FFF77FFE002004
S3150000D460E87068700120A870FEF7F1F9E8720020F4
S3150000D470FEF79AFAA0680068012810D1BDE870404E
S3150000D4800020FFF73DBDE87AFEF78EFA3146002010
S3150000D490A870BDE870400FF2C810F8F7DCBA70BD8E
S3150000D4A010B50A4CA07A78B1607818B1FFF7A0FEE3
S3150000D4B0002060701448007830B1FEF748F918B1C2
S3150000D4C0BDE8104001F0DEBA10BD0000E86900209A
S3150000D4D0907500204869002070670020E4770020DE
S3150000D4E0D4750020106A0020E2770020DA7500204B
S3150000D4F0EC670020EC770020F0750020D06A002051
S3150000D5003C0702001C650020EB670020F87700202E
S3150000D510237B264E0D0A20202674202020267420E8
S3150000D520202674202020267420202674202674208D
S3150000D53020267426742020202674202020202020D7
S3150000D54020267420267420202020202020267426C1
S3150000D5507426747D0D0A00006F666C6F0000000073
S3150000D56072737369000000006761696E0000000055
S3150000D570737461747573000074696D650000000052
S3150000D5806C656E67746800007061796C6F61640029
S3150000D590237B264E0D0A2020267420202026742068
S3150000D5A0202674202020267420202674202674200D
S3150000D5B02026742674202020267420202020202057
S3150000D5C02026742026742020202020202026742641
S3150000D5D0747D0D0A000000007B2563263575202624
S3150000D5E03575202635752026337520263475202678
S3150000D5F06820266420266820263468202632682083
S3150000D600263468202664202668200000207D0D0A26
S3150000D610000000007B264E207465737420737461CD
S3150000D620727420282765276E64297D0D0A00000084
S3150000D6307B264E202674346820267434682026748F
S3150000D64034687D0D0A00000077616B657300000089
S3150000D6507061636B657473006F7468657273000044
S3150000D6607B264E207465737420656E647D0D0A00FA
S3150000D67001468AB20AB94BF6EF610F4A000C08BFA1
S3150000D6804FF6CE201180508070470288130448BFA1
S3150000D6904A40510001801046704738B5064C622159
S3150000D6A02046FFF7F2FF054641F20B01A01CFFF7EB
S3150000D6B0ECFF684032BD0000DC670020012100F06D
S3150000D6C01F029140DFF8282B400942F820107047CE
S3150000D6D010B50446FFF7F2FF012004F01F01884051
S3150000D6E0DFF8101B09E010B50446FFF7E7FF01203D
S3150000D6F004F01F018840DFF8501A620941F8220041
S3150000D70010BD09F0FFB810B54C00214609F092F99A
S3150000D710A04201D0002010BD012010BD002070479E
S3150000D720DFF8280A407C00B10120704710B5DFF809
S3150000D7301C2A537C010018BF012103B10123994221
S3150000D74050741CD060B16FF07F0009F08FF801F0C3
S3150000D750BFF8C00513D5BDE81040002009F0FEB99A
S3150000D760107A00B10120DFF8B44B204490F908008C
S3150000D77000F044FD2079BDE8104000F038BC10BD33
S3150000D780DFF8C819497C01F0FE010843CEE780B5F1
S3150000D790B0F5004F07D100F066FDDFF85C0A00F037
S3150000D7A007F8BDF80000DFF8741B8881002002BD71
S3150000D7B001887F22684608F07DBB2DE9F04F4409B9
S3150000D7C000F01F050027DFF8588B00E07F1C98F853
S3150000D7D00660F8B2B04236D2D8F80800FFB250F868
S3150000D7E027004FF0000C01E00CF1010CC67E5FFA39
S3150000D7F08CFEB645EAD2D0F81CE05FFA8CFC142603
S3150000D80016FB0CF6B6449EF8086006F00706A6421C
S3150000D810EAD19EF80960B542E6DB9EF801B09EF8B3
S3150000D820009006EB0B0AAAEB090AAA45DCDB11B14C
S3150000D830AC1B4C440C7012B19EF8081011701BB151
S3150000D840C3F800E000E00020BDE8F08F400918BFF3
S3150000D85040F01800704770B500F00FFC05782046C0
S3150000D86000F012F8060004BFAC4209F0BFF93046DA
S3150000D87070BD09F0BBB90B38102834BFDFF81C0A9D
S3150000D880DFF8140B006870472DE9FF41044609F0E4
S3150000D89037FA04F01F001B2836D2002000906B4692
S3150000D8A001AA00212046FFF788FF07002CD020465A
S3150000D8B0FFF7E1FF5FEA000826D0DFF89068DFF89F
S3150000D8C05C5AB06E804511D002A841460622F8F790
S3150000D8D0E3F8C6F86880002102A809F00DFB98B9A4
S3150000D8E0B5F90A0009F0E5FD09F0B0FB9DF8040062
S3150000D8F004F01F0108F09BFC00983065F76400985F
S3150000D900002818BFC06801E08A2022E070659DF8F3
S3150000D910040030722C70FCF7C3FC0446707C80F067
S3150000D9200300707480F00300FFF700FF2046FCF749
S3150000D930BDFCE87800F041FB307B00F075FB6878B1
S3150000D94000F09FFB96F90900DFF8741BC001086020
S3150000D950002004B0BDE8F081DFF8C0090078704708
S3150000D960DFF8B809B0F90A00002854BF05216FF0A6
S3150000D970040108180A2190FBF1F040B270470A2111
S3150000D98010FB01F0FFE780B500F5D77140F2772272
S3150000D990914201D38B2002BD09F08BFD09F056FBA5
S3150000D9A009F0CCFDDFF874194881002002BD10B5DE
S3150000D9B0044600F014F8FF280ED02046FFF746FF75
S3150000D9C050B9A4F10B00102806D2DFF8D009DFF811
S3150000D9D0341B00FB041010BD4FF0FF3010BD38B5EE
S3150000D9E00446FFF748FF90B100230022002120469D
S3150000D9F0FFF7E3FE58B104F01F051B2D07D22046A2
S3150000DA00FFF724FF18B90B2D01DB284632BDFF2096
S3150000DA1032BD10F1590F01DA0020704710F1240FC2
S3150000DA2001DBFF2070475A300002362190FBF1F0EF
S3150000DA30C0B27047F8B50446DFF81067257896F946
S3150000DA400F0008B18C20F2BDDFF8607A7878F0B16B
S3150000DA5006F0FCFD012818BF032818D0716D0029B7
S3150000DA6018BF022808D04879B0704878F0708878D6
S3150000DA7030710879707104E0304639460722F8F7AC
S3150000DA800BF896F90200010002D5404200E00020A2
S3150000DA90F074F07C010012D0431EFF21B07BB174FC
S3150000DAA030B100200090DBB200220021802004E08B
S3150000DAB00090DBB23179F078002208F0A8FC307AC9
S3150000DAC0BB794FF480614FF4006223B10023AD1E91
S3150000DAD0DFF834CA02E00623DFF8B4CA18B9CCF876
S3150000DAE00020CCF80010CCF80420CCF804103383C6
S3150000DAF0B07A70B9387860B16078800609D5E07878
S3150000DB0030746FF00100F073F07C28B900F01CF956
S3150000DB1005E04FF0FF30F073032000F015F9601CAC
S3150000DB20C6F81D00EDB2A6F81B500020F2BD00009D
S3150000DB302DE9F047DFF8145695F90F100024091D5A
S3150000DB4004290CD8DFE801F0080B0D0D0300FFF7E0
S3150000DB5071FF040005D08AE0EC738D2087E08C20ED
S3150000DB6085E000F075FF00281CBFE87C0028DFF880
S3150000DB70246A14D03068002811D5DFF81C0AC16861
S3150000DB80C1600122006800F00F0002FA00F0401E9A
S3150000DB90014204D100F0ABFB6420FDF79CFAFCF7D0
S3150000DBA07FFB804695F90F0010F1010F1CBF95F918
S3150000DBB00F0010F1020F53D195F90F00DFF85C77D3
S3150000DBC04042E873E87C002840D1DFF8D09908206D
S3150000DBD0C9F8000009F044FD3168090E01F00F0193
S3150000DBE0032907D1DFF8B8190A6822F0F00242F0DB
S3150000DBF0E0020A600121DFF8AC29116009F034FD6A
S3150000DC00DFF8940B4FF4001AC0F800A03068C10288
S3150000DC10FCD400F07260B0F1E46FF7D0002200216E
S3150000DC2005F1180008F0D3FB00F012FF20B9DFF869
S3150000DC3078190820086002E00820C9F80000B879C1
S3150000DC4050B9DFF8580BC0F800A005E0002201210A
S3150000DC5005F1180008F0BBFBFDF782FA786102E0D7
S3150000DC600020E8738D244046FCF720FB2046BDE8E3
S3150000DC70F0872046BDE81040FCF718BB70B5FCF7EE
S3150000DC800FFBDFF828590446A879012804D120465D
S3150000DC90BDE87040FCF70ABB00F01FFADFF8F06A37
S3150000DCA0DFF800194FF480703060012008604FF4EF
S3150000DCB00010DFF8E41A08604020306008F0DDFB51
S3150000DCC020203060012008F099FB0320FFF70BFDB0
S3150000DCD00120FFF708FD1B20FFF705FD0720FFF7D2
S3150000DCE002FD1E20FFF7FFFC0420FFF7FCFC0520C9
S3150000DCF0FFF7F9FC0620FFF7F6FC0021002000F0F4
S3150000DD003BFE00F0E5FA0120A871DFF8400490F927
S3150000DD100F10091D07290CD8DFE801F00F0B0404CA
S3150000DD200F0808086FF00301C17306E000F08BFBD3
S3150000DD3003E040F2664100F03BFC2046FCF7B6FAF1
S3150000DD40BDE87040FBF780BCF8B5DFF8D055044657
S3150000DD50A879A04264D003284FF400175BD8DFE807
S3150000DD6000F052024B44FBF779FCFCF799FA0646A1
S3150000DD70DFF8A40A00F055F80620FFF7A9FC0520F5
S3150000DD80FFF7A6FCDFF8940AC16821B100F049F854
S3150000DD900420FFF79DFCDFF8880AC16821B100F076
S3150000DDA040F81E20FFF794FC09F059FDDFF8740ACD
S3150000DDB0416801600720FFF78BFCDFF86C0A00F072
S3150000DDC030F81B20FFF784FCDFF8600A00F029F822
S3150000DDD00320FFF77DFC0120FFF77AFC0320A871E2
S3150000DDE03046FCF763FA032C1AD00220A8710121F1
S3150000DDF000F074F9022C13D094B90020A871DFF852
S3150000DE009C090760F1BD022C0AD1DFF88C09076076
S3150000DE100220A871F1BDBDE8F44040F2BC4115E016
S3150000DE20F1BD0168C26811408160704700208BE730
S3150000DE30DFF8180A80797047032805D8DFE800F074
S3150000DE40030203031AE77FE740F2DA410FF6682080
S3150000DE50F8F796B8BD4890F90F10002944BF002185
S3150000DE60C173DFF848074079012808BFFFF706BFEE
S3150000DE707047DFF8D8094079704780B5032801DB81
S3150000DE80012002BDDFF8241748718979884218BF3E
S3150000DE90FFF7D2FF002002BDDFF8B4294FF0007172
S3150000DEA070B1DFF8B0091023036020230360082057
S3150000DEB0DFF8E83618601160DFF89C0901607047EA
S3150000DEC0DFF8980910230360202303600820DFF899
S3150000DED0D8361860DFF88809016011607047F8B518
S3150000DEE00446022C0FF6D01604DB40F22A513046C7
S3150000DEF0F8F746F8954D287D00284BD1DFF8AC762B
S3150000DF00B879012804D04FF4A6613046F8F738F8FE
S3150000DF10DFF8500901880223FFF74BFCBDF800002B
S3150000DF20C0054CBF0020BDF80000687208F06BF811
S3150000DF30DFF834194FF480600860DFF830190860A4
S3150000DF400420FFF7C5FB00F083FDFFF7A5FFB889A6
S3150000DF50FFF71DFC09F040FE00F05DF83878FFF78A
S3150000DF6093FC20B14FF4A9613046F8F709F8B7F9E8
S3150000DF700A00FFF708FDF88900F061F8388A00F01A
S3150000DF8071F8B87800F02CF9601E8041C00FB871A6
S3150000DF90012028752046FFF74FFFF1BDDFF8D008B6
S3150000DFA000680004001610F1800FF7D0DFF8C418DF
S3150000DFB091F90410401A40B2704738B5044608F08B
S3150000DFC09FFEFCF76DF9DFF8B0180A685208651E67
S3150000DFD0AD41ED0F45EA42020A60DFF8A0180A607B
S3150000DFE02100DFF8682818BF0121D1700FE038B58D
S3150000DFF0044608F085FEFCF753F90546FFF790FB4B
S3150000E00010B9204608F0AAFDC44804712846BDE8A8
S3150000E0103240FCF74BB980B508F072FEBDE802400D
S3150000E020DFF85C0808F0B0BD10B504464748047335
S3150000E03008F066FE2046BDE8104008F094BD10B515
S3150000E04000F01BF8C48108F05BFE2046BDE81040D6
S3150000E05008F08EBDDFF8F407C0897047DFF8EC07DB
S3150000E060008A704710B500F008F8048208F048FEF0
S3150000E0702046BDE8104008F081BD0446DFF8CC0715
S3150000E080704710B5FFF7F9FF447008F039FEDFF866
S3150000E090F807016821F4702244B1DFF80045022335
S3150000E0A0C1F300412360C1F1060107E0DFF8F8443F
S3150000E0B00223C1F300412360C1F1040142EA014198
S3150000E0C0016010BD80B508F01BFE00F006F800F0F8
S3150000E0D021F8BDE8014009F0F7BD0021002008F055
S3150000E0E084B880B509F00FFE09F0A2FDDFF85C07E1
S3150000E0F08079010018BF022800D129E001BD80B552
S3150000E10008F0FEFDFFF7E9FF00F004F8BDE8014066
S3150000E11009F0B7BDDFF878164FF48070086001206B
S3150000E120DFF88014086009F063BD80B509F0EBFDE7
S3150000E13009F07EFDDFF814078079010018BF022878
S3150000E14000D105E001BD000080E100E0E47600209A
S3150000E150BDE804400121002008F047B870B5DFF89B
S3150000E160244794F90F00012805DB94F90F000328D2
S3150000E17001DA002070BDDFF83464B579022D18BFCE
S3150000E180002D05D00220FFF7DFFD6420FCF7A3FF7A
S3150000E1908020FCF7A0FFDFF8FC030068000E00F00B
S3150000E1A00F00022811D1DFF8C80600680004001627
S3150000E1B010F1800FF7D0217A01B10121314491F994
S3150000E1C008108142A8BF012400DA0024012D08BFEF
S3150000E1D0FFF754FD204670BDDFF8B00600787047A3
S3150000E1E010B5044609F019FEDFF86006847010BD0C
S3150000E1F080E200E000E100E04C24020070B5044635
S3150000E2007F2C82B00CD100F02EF8DFF88406FFF7E1
S3150000E210CFFABDF800007E24C00558BFBDF8004007
S3150000E220FCF73EF80546FFF77BFADFF8586680B93B
S3150000E23064B220467E2803D1306D50B190F90400B7
S3150000E2407E2806DA364991F90410081840B208F01B
S3150000E2500DFB307A00B1012030490844047228468B
S3150000E260FCF724F873BD4FF6FF70ADF800000223EB
S3150000E2707047DFF81006017A01B10121DFF8CC25DD
S3150000E280531893F908307E2B06D1006D08B97F200C
S3150000E290704790F90400704718467047E4650020FF
S3150000E2A010B500F015FB800410D5C04C4FF0FF30C0
S3150000E2B0A06100F00DFBC0044CBF0320012000212B
S3150000E2C000F07AFBFCF74CFFE06110BDBDE81040A2
S3150000E2D080B5B6484FF0FF318161C16107F090FF0C
S3150000E2E020B9BDE80440002100F066BB01BD80B541
S3150000E2F000F0EEFA4005BDE804404CBF03200120C3
S3150000E300002100F039BB7047DFF88805006840043B
S3150000E31003D40021002000F02FBB7047B86700200F
S3150000E320AC1F020010B5DFF85C450020E073A07C4E
S3150000E330FF2804BFA078A074042006F0B2F9DFF825
S3150000E3400C154FF0FF304861A07A00B16AE0BDE8D5
S3150000E3501040002200218D20FDF7EABCDFF82405DD
S3150000E36090F90F00022804BF0020FFF7EDBC7047AC
S3150000E370DFF8100590F90F1003290BD10021C173A6
S3150000E3804FF0FF31DFF8C42451610022816D402037
S3150000E390FDF7CEBC70470000E8650020404B4C00FE
S3150000E3A010B5DFF8E044FCF7E2FEE0653F48407850
S3150000E3B050B1E06D2066A07CFF2805D100F078F80A
S3150000E3C0A074002006F06DF994F90F00012802D020
S3150000E3D002280FD021E00020E0734FF0FF30734990
S3150000E3E04861A07A00B11DE0A16DBDE81040002291
S3150000E3F0FDF79EBC0020FFF7A7FC0320E073DFF8C3
S3150000E4009814606D00280EBF4FF45872408A0201BE
S3150000E410BDE81040002009F06CBDBDE8104040F298
S3150000E420817113E50120E07210BD80B5FFF750FF42
S3150000E430FCF79DFEDFF84C14C865FDF78FFCBDE8C0
S3150000E440014006F029B970B5FFF742FF574CDFF8D7
S3150000E45034644FF0FF356561FCF789FEF06596F987
S3150000E4600F00012820DB1148407850B1F06D30666E
S3150000E470B07CFF2805D100F01BF8B074002006F030
S3150000E48010F90020F0736561B07A10B10120F072C6
S3150000E49070BDDFF8041409F06DFDBDE87040002280
S3150000E4A000218920FDF744BC70BD00007065002086
S3150000E4B0DFF8E8030068000E00F00F007047000068
S3150000E4C04030084010B500F0C3FA90B107F098FE4E
S3150000E4D078B1364C4FF0FF30E061FCF741FEA061A9
S3150000E4E000F0F6F900054CBF03200120002100F0E2
S3150000E4F063FADFF8AC03007818B1BDE81040FDF709
S3150000E50001BC10BD8027128CA0000846C8E6DFE6D5
S3150000E51010B5DFF89003DFF86C430068000C00F4D8
S3150000E5204041B1F5404FDFF8800308D1FEF7E6FC25
S3150000E530B0B9002007F070FE0020607310BDB1F581
S3150000E540004FF6D1008809F043FDFF2808D0DFF818
S3150000E5505C13096831F810004FF4E6610842E8D010
S3150000E560012007F059FE0120607308F0CBF96066C0
S3150000E57010BD10B50C4608F043FC20188F2803D3B5
S3150000E58040F6280100F014F8DFF8240310BD00005F
S3150000E590A0000844044008404C5008404400084489
S3150000E5A0800F00212400084044000846B867002078
S3150000E5B00FF20430F7F7E4BC2DE9F04F85B008F010
S3150000E5C090F88246684607F061FE0DF1050108687D
S3150000E5D010B9FFF77DFEC7E09DF80A00DFF8D442C8
S3150000E5E09A4D18B96878002840F0B980A24800789A
S3150000E5F0BDF80380DFF88C62C007086810F80A00CF
S3150000E60058BF08F1020800F0070002282CD1FFF7D6
S3150000E6105FFE96F90F00032802BF5FFA88F80AF139
S3150000E620050080451DD10DF105010868317C504477
S3150000E6308078814215D10DF10501086810F80A00AD
S3150000E6409549000900F001040020F07309F092FCDE
S3150000E6504FF0FF306861224600218F20FDF768FBEE
S3150000E66082E0E8780028FBD18A480068800207D457
S3150000E6706E480068800703D4FFF72AFE00207073F7
S3150000E6800DF10501DFF828B208680FF22C27834543
S3150000E69004D040F679013846F7F772FCBAF1020F5A
S3150000E6A0D9460AD19BF8010090FAA0F0000E0BF1B2
S3150000E6B00109A8F101088BF801005FFA88F899F8BA
S3150000E6C00000401C404504D040F684013846F7F768
S3150000E6D057FC09EB080728783870FBF795FE787029
S3150000E6E064489DF909100079091AB9709DF8091056
S3150000E6F0081A40B2FF2110F1630FB8BF00200ADBF1
S3150000E70010F1240FA8BFFF2005DA64300002421181
S3150000E71000EB92608011F87039719DF80D007871E8
S3150000E7209DF80C00B8719DF80B00F8719DF80A0071
S3150000E73008B14FF48040608008F006F9E06008F008
S3150000E740E1F8A06008F10801A088401CA080C9B2C9
S3150000E750727B4846FDF7B0FA0020707304E0FFF7BD
S3150000E7609FFD2088401C208005B0BDE8F08F012861
S3150000E77004D0022804D0042805D07047002000E009
S3150000E780012009F0A8BB0649012008707047000067
S3150000E7900840084000F076B918600846186008443A
S3150000E7A0B47F002038B50446002C0D4607D4FCF78C
S3150000E7B0D7FC011B89B28D428041C00F32BD0020BB
S3150000E7C032BD10B5214C60694FF47A71FFF7EAFF4C
S3150000E7D070B12C4890F90F00032807D12E4900206C
S3150000E7E009F0C8FB0020FFF7C3FD01E0FFF72BFE91
S3150000E7F0A0690A21FFF7D6FF08B1FFF769FD00F00F
S3150000E80067F800F0FF01E069FFF7CCFF10B1BDE843
S3150000E81010405DE510BD00001440084080600840CF
S3150000E82070300840E810084030700840600008402A
S3150000E83010B540B905F031FFFBF732FD0446FFF78E
S3150000E840C0FFFFF716BABDE81040BAE7B867002068
S3150000E850645008409440084668500846944008446E
S3150000E8606850084450240200886008408C600846BE
S3150000E87008700840AC1F02004C7900208C4008400C
S3150000E880B4750020E476002004000840B27F002022
S3150000E890522402000440084071E30000545008402E
S3150000E8A0B37F002090400840740F0021306600209E
S3150000E8B050770020E07700207068792E6300000012
S3150000E8C06C4A5268002914BF104322EA000002E095
S3150000E8D0684840687047F8B50446664F66487E68E3
S3150000E8E00025044201D00220F2BD24EA0600C0033E
S3150000E8F07C6007D50021002000F03EF800210020B2
S3150000E90000F05AF8786800F4804006F480418842A6
S3150000E91005D0A00B00F0010000F09FF80546284640
S3150000E920F2BD38B5534CA578E0786168C9031CD4AC
S3150000E93005F0010100F00102114316D0E16841B172
S3150000E940000706D5E16808208847E07800F0F70060
S3150000E950E070A06868B128070BD5A1680820884731
S3150000E960A07800F0F700A07003E0607808B10020FE
S3150000E9706070BDE8314075E02DE9F04104460D4672
S3150000E980FBF78EFC3B4F80463878012698B1BE785F
S3150000E990200009D1002E1CBFB868002804D07006DC
S3150000E9A002D5B96840208847BD60A6421CBFBC702E
S3150000E9B0FFF7B7FF00261EE02DE9F04104460D469D
S3150000E9C0FBF76EFC2B4F80463878012698B1FE780F
S3150000E9D0200009D1002E1CBFF868002804D070065C
S3150000E9E002D5F96840208847FD60A6421CBFFC702E
S3150000E9F0FFF797FF00264046FBF758FC3046BDE878
S3150000EA00F08138B51B4D2978884204461ED0200077
S3150000EA100ED001211948FBF7F3FD112009F009FB7F
S3150000EA2018B9092009F005FB50B109F026FB07E0EB
S3150000EA3000210020FFF7C0FF00210020FFF79CFF08
S3150000EA402C70204600F01CF800F00CF8002032BDB7
S3150000EA500848007870470020704700B102207047D0
S3150000EA60704700BF03480178002141700020FCF781
S3150000EA7029BF0000A06F0020FFFC0FF8002508004A
S3150000EA8070470000FCF7ECBF70B5044643380FF240
S3150000EA90800508D0401E012809D9801E01280ED9FC
S3150000EAA0C01F31D02AE0BDE8704007F048B907F032
S3150000EAB01EF920B107F043F90028FBD170BD134EB3
S3150000EAC0307808BB01203070002006F097FB442CFC
S3150000EAD011D00CD3462C05D00DD3472C07D140F6C8
S3150000EAE0010001E040F60200FDF76CF903E0752134
S3150000EAF02846F7F745FA0020307070BD2846BDE875
S3150000EB0070408721F7F73CBA70BD0000AF7F002048
S3150000EB10656D6265722D626173652D636F6E6669E0
S3150000EB206775726174696F6E2E6300001CB50FF213
S3150000EB302C031C6800948DF801008DF8031001ABBE
S3150000EB4001226946042003F00BFA18B140F28F3116
S3150000EB5002F0B3F99DF8040016BD00001200010092
S3150000EB60F0B505460C4616461F460FF250000FC874
S3150000EB7085B0EC468CE80F008DF8034030008DF828
S3150000EB8001508DF80260DFF89C4C01D00C2E03D3A7
S3150000EB9040F29D3100F09CFC3246394601A8F6F75A
S3150000EBA0D5FC301D6946C0B203F076F918B140F2C3
S3150000EBB0A13100F08DFC05B0F0BD00001100000091
S3150000EBC00000000000000000000000007CB50FF20D
S3150000EBD02C04D4E90056CDE900568DF801008DF8D5
S3150000EBE003108DF804206946052003F055F918B185
S3150000EBF040F2AD3102F061F973BD00001100010071
S3150000EC000000000080B50FF2380213680093034637
S3150000EC10C178C9438DF801100C224179C9438DF89A
S3150000EC200210C179C9438DF803100420694603F028
S3150000EC3097F918B140F2BA3102F03FF901BD000070
S3150000EC408200000070B582B0044601208DF80000F5
S3150000EC500922DFF8A05C00212846F6F7BAFC2B460D
S3150000EC60092200F02EF8DFF8BC6B18B140F2C33170
S3150000EC7001F082F9DFF89C5C8CB10B22002105F1D2
S3150000EC801400F6F7A6FC10208DF8000005F1140319
S3150000EC900B2200F016F898B140F2CA310EE00A22B3
S3150000ECA000212846F6F795FCFE208DF800002B463D
S3150000ECB00A2200F006F818B140F2D13101F05CF9F1
S3150000ECC073BD6946012003F04BB9DFF8480C407A62
S3150000ECD07047DFF8400C7047DFF8380C407E70470D
S3150000ECE0DFF8300C427D017D807D120442EA01612D
S3150000ECF041EA00207047DFF81C1CD1F81B0000BA5F
S3150000ED007047DFF8F00B808803E0DFF8E80BB0F817
S3150000ED10010040BA80B27047DFF8F80BB0F8170070
S3150000ED20F7E710B5DFF8CC4BDFF8E81BE079097A96
S3150000ED30884203D040F2024102F0BFF8E07910BDEC
S3150000ED4030B50D460FF2280183B0D1E90023044601
S3150000ED50CDE90023052C03DB40F21E4102F0ADF89D
S3150000ED600DF80450601C6946C0B203F095F83EBD2C
S3150000ED70130000000000000038B514460FF24802E8
S3150000ED801288ADF800201D4641EA40028DF80120A8
S3150000ED90DFF8842B11B100211185916308B10020A1
S3150000EDA0D0846B46022200F010F818B140F24541BB
S3150000EDB002F083F814B19DF80000207015B19DF89B
S3150000EDC00100287031BD000015006946022003F0DD
S3150000EDD0C7B810B504466279E078110001D1010088
S3150000EDE009D0010018BF0121100018BF012000231F
S3150000EDF00022FFF7C1FF2046BDE8104002E770B5CC
S3150000EE000446DFF8205A12E0112803D040F266418A
S3150000EE1001F064FFA078061D2146F0B203F03CF82D
S3150000EE2018B140F2694101F059FFF6B23444207836
S3150000EE300100E9D170BD30B583B00446DFF8E4596E
S3150000EE400EE0082221466846F6F780FB6946082050
S3150000EE5003F022F818B140F2754101F03FFF083483
S3150000EE6020780028EDD137BD2DE9F0431F460D4629
S3150000EE70DFF8A48A98F8103098F811100446164660
S3150000EE809C4298F8130098F8122008BF8D4285B06E
S3150000EE9003D1964208BF87423AD00FF27C034FF067
S3150000EEA0000CD3E900E9CDE900E902AB8DF8044096
S3150000EEB08DF805608DF806508DF80770E646E14638
S3150000EEC0A3E80052784072406940384032402940F9
S3150000EED08DF80F008DF80B208DF80D1002A8FFF7A6
S3150000EEE091FE6946082002F0D7FF18B140F2AC4106
S3150000EEF001F0E3FFDFF8FC0B88F81040847588F812
S3150000EF001150C57588F81260067688F81370477632
S3150000EF1005B0BDE8F08300001163040000000000A6
S3150000EF20DFF8D00B10B5007BDFF8F84800F03F00A3
S3150000EF30012882B002D0022808D00FE00FF230007C
S3150000EF4000F019F870B140F2BE4109E00FF224005A
S3150000EF5000F06AFC30B140F2C74101E040F2CB411B
S3150000EF6000F0B6FADFF8B0190020487113BD0000B2
S3150000EF70340300008C000088ADF802000DF1020198
S3150000EF80022002F089BF70B5DFF88819496A39B1E5
S3150000EF900B78984224BF4A78824201D3084670BD56
S3150000EFA0DFF8C03B9C79220010D09A68641EE4B258
S3150000EFB052F824208A4218BF002AF4D01678B042AC
S3150000EFC024BF55788542EED3104670BD002070BD33
S3150000EFD010B500F021F8C0F38304FFF781FEDFF8D7
S3150000EFE0881B884203D2062C07D0082C0BD0012C94
S3150000EFF005D0022C05D0082C05D1012004E0022002
S3150000F00002E0032000E00020DFF8E81A098D4FF641
S3150000F010FC721140084310BD0021222086E52DE92F
S3150000F020F8438046B8F5004FDFF8F89703D140F271
S3150000F030395102F0B9FD01F0BDF8FFF7EDFF0646C4
S3150000F0404FF6FF708045DFF8207B0ED1B00800F048
S3150000F0500F04FFF745FEB8420CD2062C08BF082461
S3150000F06008D0082C06D1062404E00FF2081008F098
S3150000F0700301445CFFF749FE44F26541401A0ED095
S3150000F080801E04D0401E08D0401E08D00DE04FF66A
S3150000F090FC7000EA0808062420E0062C01D0082CA3
S3150000F0A003D1022060F301080124FFF719FEA50031
S3150000F0B0B842EDB206D2062C08BF202502D0082C95
S3150000F0C008BF182506F03C00A84207D006F0C3008A
S3150000F0D045EA000200212220FFF778FD0221FFF712
S3150000F0E09CFF0646B009012C18BF022C00F003074E
S3150000F0F004D0062C04D0082C08D003E0002705E035
S3150000F100032703E040F2BE5102F04EFD06F03F0039
S3150000F11040EA8712964203D002212220FFF756FDCD
S3150000F1200020DFF8401A00E0401CCA79904219DA44
S3150000F130CA680C2343431A441379A342F4D1DFF877
S3150000F1404C0C0168914211D0DFF8A84902600021F9
S3150000F15094F91C0001F0ACFF94F91D00012101F0A7
S3150000F160A7FF03E040F2345102F01EFD4046BDE821
S3150000F170F28300000608010270B5DFF89847DFF851
S3150000F180E419606A82B018B98A681268134601E009
S3150000F190024603460569127E5B696A43DFF8F05B47
S3150000F1A0B5FBF3F35A43B2FBF5F2120A8DF80020D1
S3150000F1B018B98A6811680A4601E0014602460069E4
S3150000F1C0097E526948432946B1FBF2F14843B0FB38
S3150000F1D0F5F08DF801006B46022205216220FFF74B
S3150000F1E0BFFCE06AFF2600280CBFFF20408A00F023
S3150000F1F030F8022100F008FAE06A00280CBF3A2035
S3150000F200007800218DF800108DF801006B4602226F
S3150000F210062100F0F9F9E06A00280CBF08200089F1
S3150000F22000F017F8122100F0EFF9E06A00280CBF91
S3150000F2303225457C607A00B9AD00FF2D03DD40F232
S3150000F2401B6101F03AFEEAB202216120FFF7BEFC23
S3150000F25073BD010A8DF801008DF800109DF80000BD
S3150000F260102804DB0F208DF800008DF801606B4636
S3150000F2700222704738B57F28044604D140F2256142
S3150000F28001F01BFE07E07E2805D1DFF88806806ABC
S3150000F290B0B190F90440DFF8CC08DFF8D45C00790F
S3150000F2A000194004001480F308042878A04207D00F
S3150000F2B000F080FFE2B205216020FFF787FC2C708A
S3150000F2C031BD2DE9F84305460C46FFF75CFE070005
S3150000F2D04FF0000908BF8A2000F08580DFF8346609
S3150000F2E0DFF81088706A874234D00CB1FFF718FE39
S3150000F2F0707A10B1386AFFF782FD02F033F9DFF851
S3150000F300740C02F02AF9BDF80000000607D4BDF817
S3150000F310000000F07F0200210020FFF757FC706A12
S3150000F32078B141697A69914202BF017E3A7E914283
S3150000F33007D1417E7A7E914202BF807EB97E8842A5
S3150000F34001D04FF001097762B8F82800FFF767FE91
S3150000F350A8F828000021F86900E0491CFA7E9142CD
S3150000F3600BDA14224A438418F7D0825C954224BFF4
S3150000F3706278AA42F1D32CB900E0002440F27C6105
S3150000F38001F09BFDB06AE568844226D0B46220692C
S3150000F39008B1FFF734FD98F91B007E2804BF94F9E5
S3150000F3A00400FFF767FFF06A854216D0002D18BFEC
S3150000F3B000280FD001782A78914202BF01892A8954
S3150000F3C0914207D1418A6A8A914202BF407C697C98
S3150000F3D0884201D0F56203E0F562B9F1000F01D071
S3150000F3E0FFF7CAFE0020BDE8F28338B5DFF828052E
S3150000F3F0DFF83044407918B140F2A56100F068F8B2
S3150000F400DFF8F056A87E0021FFF75BFF18B14FF436
S3150000F410D56100F05DF80FF248010A68A87E0092F7
S3150000F4208DF802006946032002F036FD18B140F25D
S3150000F430AF6100F04DF802F00CFD18B14FF4D66143
S3150000F44000F046F802F005F84069DFF84419B1FB10
S3150000F450F0F080006E3080B2FBF73DFE31BD00005B
S3150000F4608701000070B500F0D8F982B018B140F2FB
S3150000F470B96100F02DF8DFF87C66B07E0021FFF759
S3150000F48020FF18B140F2BC6100F022F80FF23C01F7
S3150000F4900A68B07E00928DF80100E87908B1002074
S3150000F4A0E8716946032002F0F7FC18B140F2CB611F
S3150000F4B000F00EF80120A871687102F0CAFC18B1BC
S3150000F4C040F2D16100F004F873BD00008100030032
S3150000F4D02046F6F755BD2DE9F04FDFF8D06C85B024
S3150000F4E0707828B105F0D5FB012818BF032801D193
S3150000F4F0002088E0DFF81C44E16A002918BF0228D2
S3150000F50009D196F9025096F8038096F804B07679F8
S3150000F5104FF0000908E091F9055091F8018091F843
S3150000F52002B00E7991F90390A17B002D43BF2846C6
S3150000F5304042C0B2E8B20090E8B2884204BFE17B24
S3150000F54088450FD1207C834504BF617C8E4209D15A
S3150000F55094F92010894501BFDFF8540C0078617BCF
S3150000F56088424ED00098062803DB40F20D7101F068
S3150000F570A4FCDFF83C0C007828B10A22002101A87F
S3150000F580F6F727F82AE00027002DC24623D58DF886
S3150000F59005008DF8040001271DE001A801A900F867
S3150000F5A01760012000FA0AF0484401EB4701401EAB
S3150000F5B0487001A9C0B211F81710884203D240F270
S3150000F5C01B7101F07AFCDA45BCBF0AF101005FFA53
S3150000F5D080FA7F1CFFB200988742DEDB009842006B
S3150000F5E001ABD2B2082100F00FF8A57384F80F80A2
S3150000F5F084F810B06674DFF8B80B0078607384F88E
S3150000F60020900098C0B2A3E36020FFF7A9BA70B5B6
S3150000F610DFF8E044E27B82430840217C40EA0205B1
S3150000F6208D4211D0FAF73CFE064602F0C1F938B910
S3150000F63000F0C0FD2A4600216120FFF7C7FA2574B5
S3150000F6403046FAF733FEE57370BD38B5DFF8A444EB
S3150000F650A27C82430840E17C40EA02058D4208D044
S3150000F66000F0A8FD2A4600216220FFF7AFFAE574F4
S3150000F670A57431BD80B57F21ADF80010C00744BF29
S3150000F6807D20ADF80000BDF8000040BAADF80000DE
S3150000F6906B46022202216220FFF762FA01BD38B5ED
S3150000F6A0DFF85044227D82430840617D40EA02052E
S3150000F6B08D4212D000F07EFD2A4601216220FFF71E
S3150000F6C085FA617D05F0010001F0010188421CBF49
S3150000F6D02846FFF7CFFF6575257531BD38B5054658
S3150000F6E005F08C0008288C4C08D0FBF740FD206400
S3150000F6F0DFF8B80A407808B1206C606494F9080015
S3150000F700032803D100202072402509E094F908005F
S3150000F71001281ADB0020207228064CBF882589257F
S3150000F720DFF8D0134FF0FF30C862DFF8C80C00785E
S3150000F73010B10120207331BDFDF7E3FF01462846D5
S3150000F740BDE838400022FCF7FEBA31BD70B50400B2
S3150000F750714D02D195F9080018B9FFF7E1FB0126B2
S3150000F76000E000260023002231460120FFF704FBBB
S3150000F7707EB12046FFF7B2FFA87910B1BDE8704010
S3150000F78070E6DFF8740C407B022802D1BDE87040B9
S3150000F7902BE670BD38B500F040F818B14FF4FC61A7
S3150000F7A0FFF796FEDFF8540C006800282AD495F976
S3150000F7B01400012809DB0321FFF7C2FA18B140F251
S3150000F7C0F771FFF785FE00202875DFF82C0C007B0B
S3150000F7D000F03F00012802D0022808D00FE00FF207
S3150000F7E03400FFF7C8FBA0B140F60D010FE00FF2A1
S3150000F7F0280000F019F860B140F6160107E040F65F
S3150000F8001A0104E002F025FB18B140F62B01FFF7C0
S3150000F8105FFE31BD340100008D003F4DDFF8E04B47
S3150000F82068797047181C010000788DF80000694659
S3150000F830012002F031BBF8B50546374FAD4E00202A
S3150000F840B8710C460420FFF781FF7A7D002D3ED06B
S3150000F850F57F22B900212020FFF768F9787502F0BC
S3150000F860B5FA062010FB05F0304400210079A24FBE
S3150000F870FFF727FD18B140F6450101F0C9FC002C41
S3150000F88014BF1322002200212020FFF79FF90FF258
S3150000F89068010A6800928DF80250B1A1022002F0B8
S3150000F8A0C5FA18B140F64F0101F0B2FC69460420D2
S3150000F8B002F0F2FA18B14FF4056101F0A9FC02F06A
S3150000F8C0C8FAA8B140F6510101F0A2FCF1BD002131
S3150000F8D02020FFF77BF900207875707B20B1022885
S3150000F8E008BFFFF782FD01E0FFF7BCFD02F070FAEA
S3150000F8F0F1BD0000D8760020800000000648417A5D
S3150000F9008171417100297B4914BF0020032048738F
S3150000F9107047000004760020BC7500202DE9F047F2
S3150000F9200446DFF8D481A078DFF8D86A400624D5EB
S3150000F93096F908000128A4BFB6F9280001281CDBA7
S3150000F940A77AB16B87420DDA384602F06FFA18B122
S3150000F95040F6AD0100F089FB308DC01B3085B06BE1
S3150000F960384409E0C0B202F061FA18B140F6B101BC
S3150000F97000F07BFB00203085B063A078C00702D57D
S3150000F980FDF7BFFEF0634FF0FF35A078594FDFF863
S3150000F990649A800727D5FBF7EAFB306496F90800DE
S3150000F9A0012803DA40F6C20100F05FFB96F9080071
S3150000F9B0022808BF032002D0FFF7A0FF0020307204
S3150000F9C0DFF8E807407808B1306C706499F80000F9
S3150000F9D0002804BF96F90800002804D1FD62002221
S3150000F9E0F16BFCF7B0F9A1780C2211422DD0C808B2
S3150000F9F000F0010AFA7BF07B02F0010200F0010040
S3150000FA0082F00102104304D0207940F004002071F6
S3150000FA1002E001F0F300A07096F90800022814DB5A
S3150000FA20BAF1000F07D0002078734FF00A0A0120C0
S3150000FA30B071707101E0FFF761FF00203072FD6266
S3150000FA405246F16B8F20FCF77EF9A078000642D56E
S3150000FA50207A80070DD596F90800022809DBFFF702
S3150000FA604DFF00203072FD620022F16B4020FCF752
S3150000FA706AF9207AC00719D596F90800012803DA31
S3150000FA8040F6251100F0F1FAFFF738FF002030723A
S3150000FA90FD6270783071042005F0ECF899F80000EA
S3150000FAA020B9002200218D20FCF74DF9217A8C2205
S3150000FAB0114207D0B08C401CB084207AFFF746FE76
S3150000FAC0012014E0080002D07020014203D040F665
S3150000FAD04C1100F0CAFA99F8000000281EBFA07861
S3150000FAE0BE21084202D0FD62012030730020BDE82D
S3150000FAF0F087000078670020181C0100F0B5DFF8D9
S3150000FB000439DFF80459DC8CDFF8EC381B7D1E065F
S3150000FB1011D5022C1FDB2C786F7807EB0426C6F371
S3150000FB200A060680AD1C1560DA070DD5E20654BF3D
S3150000FB300422022209E074B12C7804806C1C146043
S3150000FB40DA0748BF022200D400220A70B0F900008A
S3150000FB500978884201DA0120F0BD0020F0BD0000DE
S3150000FB60000000000C1B0200000800062DE9F04F03
S3150000FB70DFF884B8DFF888889BF80F00C00785B0E7
S3150000FB8003D440F6DD1100F070FA01AA0DF10A0166
S3150000FB9002A8FFF7B3FFDFF86C5818B9BDF90800E3
S3150000FBA080280BDB40F6E11100F05FFA688B401C01
S3150000FBB068830020FFF7CAFD0120C9E0019801997A
S3150000FBC04078097801EB0026B6B206F02700232814
S3150000FBD040F0BD804FF44040064200F0B8809BF8EC
S3150000FBE00F00800740F1B38006F4404003900027E1
S3150000FBF00224F0054FBF4FF0FF09019890F80290DC
S3150000FC00032406F44050B0F5005FACBF4FF0010A84
S3150000FC10BA4616F4406218BF01220092B309520098
S3150000FC2042EA8A0203F001031A43012042F0080265
S3150000FC30904044F66C42104206F440611CBFA41C7E
S3150000FC40E4B2A1B1B1F5806F06D0B1F5006F05D071
S3150000FC50B1F5406F04D006E0641C02E0A41C00E08D
S3150000FC600834E4B203E040F6162100F0FEF90099EC
S3150000FC704900B20941EA8A0102F00102114301205A
S3150000FC8041F0080188404FF4B851084201980399A1
S3150000FC901CBFA41CE4B2001971B3B1F5804F18BFA4
S3150000FCA0B1F5004F08D0B1F5404F21D1FDF726F947
S3150000FCB008340746E4B21FE00199039A095DB2F5DC
S3150000FCC0004F03BF407801EB0021A41C641C88B2DE
S3150000FCD008F07EF9FF28E4B208D0DFF8301709688B
S3150000FCE031F810004FF4E661084205D0012703E021
S3150000FCF040F6362100F0B9F9BDF90800A04203DA52
S3150000FD0040F6392100F0B1F9EF729BF80F1049095E
S3150000FD1001F001018F421AD00FF23C010A680092ED
S3150000FD208DF801908DF802706B4600F017F818B147
S3150000FD3040F6782100F099F9FDF7E3FCE8629DF8BA
S3150000FD40000020B10020E872288C401C2884002086
S3150000FD5005B0BDE8F08F000085000000012269466D
S3150000FD60032002F0FDB838B5DFF89856E98C044652
S3150000FD708C4206DADFF890060A1B92B20119F5F7F3
S3150000FD80E5FBE88C001BE88431BD0000D47600203A
S3150000FD9040420F002DE9FE4F80460020ADF80000DE
S3150000FDA00D4601AA0DF102016846FFF7A7FE0028DD
S3150000FDB0DFF84C66DFF84C7679D1BDF90000802873
S3150000FDC075DA019C9DF802901FFA80FADFF8380672
S3150000FDD0201A0AEB000B0BF10800A0EB090000B299
S3150000FDE002900299B7F92600884260DB002903D504
S3150000FDF040F68E1100F0C0F80AF00100F98C029A64
S3150000FE0080F0010504EB0A0008318A1AC9F10001E5
S3150000FE10014492B22844F5F799FBF88C05EB0901E9
S3150000FE200818F88405EB0B0000F10805F88C2DB2D4
S3150000FE30A84203DA40F69F1100F09EF89E2D03D3E8
S3150000FE404FF41A6100F098F8BDF80020BDF90010D3
S3150000FE500198DFF8A44502F0010282F00102511870
S3150000FE604618707810F0800932D1DFF8A415B07802
S3150000FE7091F90410C1EB5000B07040B201F00BFADA
S3150000FE80F0707079002804BFB079002808D1F079A5
S3150000FE9030B9FDF736FC010C7171F071010AB171D0
S3150000FEA0B9F1000F14BF00204FF4804017E01DB1D8
S3150000FEB0BDF90000802809DB40F69E2100F05CF8C1
S3150000FEC0788B401C78830020FFF740FC01204DE032
S3150000FED0207DC007C9D5B88B401CB88342E0F883A3
S3150000FEE030797863FAF790FA40F0100104EB40009D
S3150000FEF071700C21808C307098F8020008420AD08C
S3150000FF00019801994078097801EB0020DFF8E81D97
S3150000FF100840022826D0FDF7F4FB3863388B401CD6
S3150000FF203883207D00060AD5BDF90000802806DB4F
S3150000FF30019810F8021D41F08001017001E001985E
S3150000FF40401E0199BDF80030FA7A091A591803F0D3
S3150000FF50010383F0010359180831C9B2FBF7B6FE55
S3150000FF600020F8722846FFF7FEFE0020BDE8FE8F4F
S3150000FF70F6670020582402003046F6F701B82DE94E
S3150000FF80F041DFF88054DFF878840446E88CE77A9D
S3150000FF900146CA199A2A28BFC0F19907F8B270B16A
S3150000FFA0DFF864040144F8B201F03CFF18B140F6F2
S3150000FFB04D3100F05AF8E88C50FA87F0E884207941
S3150000FFC0C00748BFFBF7A9FE2079800704D5204665
S3150000FFD0FFF7CCFD002843D12079400713D5AE7D2D
S3150000FFE0002701E001267F1C31462046FFF7D2FE9E
S3150000FFF00028F7D026B1FFB2022F04DB012003E070
S315000100000020A8752CE00020A8752079000706D5E8
S31500010010FBF7ADF82864FBF7B5FE04F0C5FF2079C0
S3150001002000061FD5607A18B940F6973100F01DF821
S31500010030607A800702D5FBF79AF82864607A010690
S3150001004007D5688B401C688300206871FFF77EFB2B
S3150001005006E0400706D5688C401C688400F0FEFF68
S31500010060012000E00020BDE8F0814046F5F788BF99
S3150001007010B586B068460021002200230EC0DFF8C5
S315000100807843207E8DF80300E07D8DF80500607EC3
S315000100908DF807006846FEF7B5FD9DF80400E17D81
S315000100A008408DF80400217E9DF8020008408DF875
S315000100B00200617E9DF80600D14C08408DF80600CD
S315000100C09DF8000018B94FF43D61FFF701FA9DF85C
S315000100D00000400706D59DF8060018B940F6D23152
S315000100E0FFF7F6F99DF80000800706D59DF8040094
S315000100F018B940F6D431FFF7EBF99DF80000C007B7
S3150001010006D59DF8020018B940F6D631FFF7E0F999
S315000101109DF80600010036D0000714D50FF28401C0
S3150001012003A8D1E90023C0E9002303A903AB0522F3
S31500010130FEF74CFE18B140F67401FFF7C9F940F617
S315000101407601FFF7C5F99DF80600800603D540F64E
S315000101507C01FFF7BDF99DF80600400603D540F680
S315000101608801FFF7B5F99DF80600800703D540F62B
S315000101708C01FFF7ADF99DF80600C00703D54FF4D2
S315000101800961FFF7A5F99DF8020010B16846FFF76E
S31500010190C5FB9DF8040010B16846FFF7F0FE06B0F6
S315000101A010BD000023FF000000000000686700206A
S315000101B0B07F00202DE9FC47924CA07A002840F040
S315000101C01781DFF85C0DDFF8388201F0C3FD18B145
S315000101D040F62A41FFF749FF874E707B012803D07D
S315000101E040F62C41FFF741FF307BDFF8109210F00B
S315000101F03F0003D002281AD007D335E0D9F8000012
S31500010200002835D540F6324130E00020FEF71AFDD0
S31500010210307B00062CD5FEF784FD06281CD1FEF79F
S3150001022070FDB0F5064F17DC0FF2E81011E0002063
S31500010230FEF708FD307B00061AD5FEF772FD06288B
S315000102400FD1FEF75EFD48F20361884204DA0FF230
S31500010250D050FEF7F0FD0BE0307B00F07F003073ED
S3150001026006E040F6554101E040F65B41FFF7FDFE31
S315000102700FF600210720D1E90023CDE90023317BC8
S315000102808DF8011062498D682968096909168DF88A
S3150001029003102968096909148DF804102968096988
S315000102A009128DF80510296809698DF80610694645
S315000102B001F0F2FD18B140F22E41FFF7D6FE012002
S315000102C0FEF7C0FCDFF8847D0AE017F801AB39467A
S315000102D001F0E2FD18B140F25D41FFF7C6FE574459
S315000102E038780028F1D1DFF8687D0FF69012786230
S315000102F0B862F8624FF0000AFF20B076D2E9000139
S31500010300CDE90001062202FB0AF069463044F5F701
S315000103101DF906EB0A0080F81EA080F820A00AF15C
S31500010320010ABAF1020FEDDB0020A07353203074ED
S31500010330102070748020F0740320707500202061F5
S31500010340788420755020DFF8601D087000207873CE
S31500010350F881388287F82000787E002846D0D9F8BF
S315000103600000002842D5787A50B91E210120FEF7F7
S31500010370E7FC012628B140F69B41FFF776FE00E037
S315000103800326D9F80000DFF8241D4042884203DA2B
S3150001039040F6AB41FFF769FE28680069D9F80010FD
S315000103A04000401C90FBF1F0404240B202280ED0C2
S315000103B009D3042801D003D305E046F0800606E000
S315000103C046F0400603E040F6BD41FFF74EFE3246D9
S315000103D00A210020FEF7FAFB01F03BFD18B140F6B9
S315000103E0C441FFF742FE0020FAF775FE0120A07214
S315000103F0BDE8F387EE7600207867002094190200A5
S31500010400181C0100BC7500203476002030660020DF
S315000104100C1B02000421714B000070550586F6B9CC
S315000104205677E657EF2B183B97620187EF16AED04A
S315000104307ECC60E1E365162C64E7D32C05B9DE5664
S31500010440FA6175A4EA838D9E2897438E05484BF180
S31500010450A331E3A1ED792D7586DB207305D70F2036
S3150001046015CFBF9AE2A2174B8762656105DC383961
S31500010470965B758CEA97394E8B7237A3054F62915D
S31500010480A51B0F3FE529AB941D8A6A59057DC60652
S31500010490ADF47B3DE98709359489DE1505E2DC9EDD
S315000104A07EF68A9EEF7E008974876466E14B2D2E67
S315000104B05B7D9ECC05F56A9E835CDA6FE24F920DF9
S315000104C092B667EB05511549758B6265EDB224430A
S315000104D03A549D960543CCB07B02834DEAAD1D7E11
S315000104E0B3763CB4057FB64412A66561EDB1C2642C
S315000104F0C27F897A05B7565B1D41C33FE5CAD61D42
S3150001050030A097AB059DEC9B24A3734EE19D7754D8
S3150001051047243CB2059FACD48BA9F54BEAE0505D6C
S31500010520E75CE8AD0532C22B9089B0A5E29CBABB67
S315000105305DAAE39505E155B083300E22E259FDF837
S31500010540889E230A0539283C95BD466AE2893EBD47
S31500010550A552ED2405A5DC97D7153EDFEA98A69AA4
S31500010560FCCC64B70570A9269D7A6855E249337DAE
S31500010570E785EAAE0535811D3FD6F3C8E224D12DC4
S3150001058087E5D8AB053F540641C9B7EBE7163AB341
S31500010590969BC75CE191A9F2EE0C04AA05CBCC5F50
S315000105A04F890D38E71EB310A52F8EE4EF0093F3A4
S315000105B0B9AB40DBEF80C78746D96461E7DC9A9F18
S315000105C01577BE26E7F648986ABA163DE7110BD3AA
S315000105D042F1DB3BEF93B05C3C3C79ACEF73210C11
S315000105E02827008CEF1CAEAC738687BAE7E07BCC7C
S315000105F086D220B5EFEC4E5A9A076214EFDF74B734
S315000106005D6194DBE77811D0B9B35369E71FFB1736
S31500010610201BE0C8EFD367CCA6866D37E74FF8837A
S315000106209DE54763EF67118A95D016BCE75F410FD9
S315000106300ED43F93E754A985ACEB601CE780730B9E
S3150001064052DE6A3EE77BC89B90E47CDFE79BF3FCC6
S3150001065024A41C32EF44577FDAE0D245E7401370F9
S31500010660FB33E1A7E7DE173A2B464B9FE714AFF6BC
S31500010670B8689A05EF49D853A08CA175E7FDB386F2
S3150001068025B97F09E77D4DA0AE41E94BEF5ED8C2A2
S31500010690C7A4E93CEF5F97B29E20B560EF63BF8EBA
S315000106A0E74EFA81EF02E8070F45BED5E73E4995C9
S315000106B010EA86ABE7D4D67410E77550EF2B88C7DE
S315000106C0EC882E20EF6DD5321D1BD95EE75A2C3CE6
S315000106D00DEE48BAE78F835B941A58B9EF9D045E15
S315000106E0E7BB037DE78198F0937F1169E7A6F7B031
S315000106F0C961FCB9E7958D1E29E8CEACEF1CCE1277
S31500010700A75779DBEFFCED8906BCDC24EFE6BA34AA
S3150001071076D93059EFFA2C7184E21396EFB0F23C98
S315000107208CB5530BEF2492CADF0994F8EF756DD996
S31500010730C52CF0B8EF02FC0A24D71303E7C75C65A2
S315000107400472DD93E78C7144BB27229DE7EB599C2C
S315000107500D5C045BEF8996741CF95744E7DA6BAFBD
S31500010760A1D83376E7D5C4498011981DE787266A53
S31500010770C1034768E7CCBFB170B1B873E7426FDF19
S31500010780A1A6A379E773F3BDD3464E4EEF15149296
S3150001079015D2D2EBEF3365BAEBF46D2BEF1E8793CF
S315000107A0259328D5EFBC979345ACF72DEF034F7AE8
S315000107B07E32D596E7350C16A477997FEFCA70136A
S315000107C03A5E12CAE76BDB90DA44E245E78942E515
S315000107D08AC980DEE7637B5F7A1BEB1EE1F78B68D4
S315000107E0F749AC790595D8CF9EA4680AE6A9228C6B
S315000107F07494F56A05267C869F521976E18592A343
S3150001080063308068051E33FC4DA36F99E170BCE32C
S3150001081038ACF94205302A16900A8F5700000000BD
S315000108200422DF890000CAAE056D0304175B9541FA
S31500010830E761C1DEFF838B32E7230654F151C542DE
S31500010840E2A0BB0529558281056A35D35AFA68E5C6
S31500010850E9D066C720EFEE320505550A8D3CE7E380
S31500010860ED3E68018FBAB8640501E53C7555E1E8CE
S31500010870E9223868CE97B1D505559942C94D9ADA1C
S31500010880ECE27369E5A2D6DC05080F8850AA4BF4A1
S31500010890E47C6D1FB8C45091059E232E774555F60D
S315000108A0E18E2A6D6EBD850F054DF6A14709134EE2
S315000108B0EA9086A58DE7DCDB050D3FECAF5463EED0
S315000108C0E913A817C16A6EDE05B3AD4D248368111D
S315000108D0ECBB37C4AF9B16C00532A6FF52D9163101
S315000108E0E1274AEDB06127960599DD6A5DF4C44DAD
S315000108F0E49C81E25232C0DF052E1ED48F6F755CF7
S31500010900E10FD70F3AA9CBC305E8C600D534E705F1
S31500010910E945D51E976198E7058E72A8D413E7536A
S31500010920EA7B8D0B265D0C6B053ED33C71889D5889
S31500010930EAF0DC6796545EED050964C5AE061DDA7C
S31500010940EAB2E70E878277ED05D811DEE8248B2E11
S31500010950E990555A50BFAFA6056178031620520398
S31500010960E25C3EF1FE18755A05B6D3ED8ED4FA8FC8
S31500010970E277AB6CA250167605951AE3680ABCC7F6
S31500010980EAEA5202B92D8C0705EFB786E410702BFF
S31500010990EAC27983E20292C3054ADC6E9675502556
S315000109A0EAD38697AFBED59205C13C7F30F3BC4DE5
S315000109B0E9ED4A4132914ED80534592FD6A086DB4E
S315000109C0E9696C3459B3821705D93803E077937115
S315000109D0E45E19219306423E05836DB475275102E3
S315000109E0EF5AA1559FDFFDA2E78FAEC1C758F9CBDC
S315000109F0EF1461237E1AE3ECE7947BE153C3ABDE8C
S31500010A00E78F27A1D26EDB3DEFC3292F477F041065
S31500010A10E7677AB0B4DAD7CAEF725C71A1CE8B44BC
S31500010A20E790B50AEF1514DFE7FC133460D4F6E955
S31500010A30EFFFBD7CDAF71CB7E7A307170065D18383
S31500010A40E76B3FA1F2B62AD8E7386AED4911933A26
S31500010A50EFCCC3D345EFDA13EF050F782EAB9AA887
S31500010A60EF44EFEA1D1FDB5FE735D1967EB7542FC2
S31500010A70EFDF83A5028E0902EF62130C643559CEAE
S31500010A80E7CF2C302900C625EF75DF0E7D8C13B517
S31500010A90E79471948450983AE7CE9851F2108256B1
S31500010AA0E729A225CD9AAF5DE7F78FA3B3239BCFA5
S31500010AB0EFD10EB4234DCE61E799871EE4E1E4AF91
S31500010AC0EFF94BDE161F7B3DE76173DAEC3807C29F
S31500010AD0EF8C1D924574E0C5E7D1DF878573BE892A
S31500010AE0EF71BD37C13ADE50E7A0DAF6E9017C20A5
S31500010AF0E7FBC2309083A204EF762C6F6414655530
S31500010B00E758B781A1B5E25DE7D4E66E421E5C3ACD
S31500010B10E78458ED6A616057E74EFB4FDE43292BA8
S31500010B20E701B92A1A2EC773E76452D80525283971
S31500010B30E721B67F917B7634EF4E6B6038769A5318
S31500010B40E734871E22ADE7D7EF80C451B617F20806
S31500010B50EF7DD2E01FFE9907EF1C6651AA4F8B2D40
S31500010B60EFBD4CB18B038783E7FDE3D32B3AD3402B
S31500010B70EF398525BBA8C627E7D29F941B7560C8A8
S31500010B80E7E442A6AFF6FF3EE79B64CE9DF9F3E8A4
S31500010B90E76A7E97AC7C7D4AE79889DB7FD136137D
S31500010BA0E7C2E0E883A91C8BEFD03F969BC12DF7E6
S31500010BB0E78C57CA371F54CDEFD562E7A578F46F96
S31500010BC0EFCD3DCF93E77948EF121C4A4FAEE67958
S31500010BD0E717775FC63A90A9EFB87DC41980A1B52A
S31500010BE0EFE024C0508474DAE7F00624590B4B5227
S31500010BF0EFCC5471C8A30342EFADF3991D769094DF
S31500010C00E7234B55F7F5A33CE7769F332A839BF3FE
S31500010C10E71F6224743BD6BBEF34388C3912442C5F
S31500010C20EF40996B386222D5EF65F2AC001B2AD0F2
S31500010C30EFC9F08C2206D65FEFDD04C3C200A85DC2
S31500010C40EDF8D084BB99126905F882D3C6B2AAE53C
S31500010C50E63BABC439B2E291057E643661D3B81E78
S31500010C60E92EC2EE24A250FA05595B3F34978D0056
S31500010C70000000000200000000000000FFFFFFFE70
S31500010C80FF00000038B5040003D104F092F901F029
S31500010C909DF8DFF81C0AC56A002D19D4FAF760FA27
S31500010CA0401B80B2B0F57A7F12DDDFF8080ADFF863
S31500010CB0085A90F90800012803DA4FF4526100F04E
S31500010CC00DF840F6215100F009F80420FEF706FD63
S31500010CD01CB9BDE8314001F07BB831BD2846F5F7B6
S31500010CE04FB9DFF8CC09C08CC0B27047DFF8CC0928
S31500010CF090F9010070470000AFCFFFFF400918BF10
S31500010D0040F0180070472DE9F04F440900F01F0527
S31500010D100027DFF8948900E07F1C98F80660F8B296
S31500010D20B04236D2D8F80800FFB250F827004FF08B
S31500010D30000C01E00CF1010CC67E5FFA8CFEB64593
S31500010D40EAD2D0F81CE05FFA8CFC142616FB0CF6EE
S31500010D50B6449EF8086006F00706A642EAD19EF858
S31500010D600960B542E6DB9EF801B09EF8009006EBFD
S31500010D700B0AAAEB090AAA45DCDB11B1AC1B4C44F0
S31500010D800C7012B19EF8081011701BB1C3F800E087
S31500010D9000E00020BDE8F08F80B500F014F808B936
S31500010DA0FF2002BD9DF8000002BD80B500F00BF8E2
S31500010DB010B94FF0FF3002BD8168C0689DF8002070
S31500010DC002FB001002BD0023002269469BE770B5B5
S31500010DD00C4600F01F011B2982B00AD200210091A6
S31500010DE06B460022FFF78FFF05001CBF0098002805
S31500010DF001D18A2076BD1CB940F6CD5100F05DF8CF
S31500010E000098DFF8BC1840792070009880796070EE
S31500010E100098C079A07068690918B1FBF0F0A07359
S31500010E20A97E687E08180D30811000EB5170C01044
S31500010E30E0730098C06820610098C06820B9E0702E
S31500010E4060602081608133E000980FF26C010069D7
S31500010E5088420CBF01200020E070DFF84C187C4866
S31500010E60406A18B98A6813681D4601E003460546BB
S31500010E70009AD2681B7E56896D697343DFF82C6828
S31500010E80B6FBF5F56B436360002803BF886803680A
S31500010E90184603461189007E5B6911FB00F0314655
S31500010EA0B1FBF3F110FB01F02081D08960819089BB
S31500010EB0A081002076BD00000000DFF8FC07F5F7F1
S31500010EC05FB8DFF8F01708B1486C7047086C7047D7
S31500010ED038B50D46022D044603DB40F60361FFF7E4
S31500010EE0ECFFDFF8CC072844012190F91E0001FA36
S31500010EF000F0002CDFF8BC47627B14BF01460021DD
S31500010F0022EA000041EA0002A17B6273D0B2884264
S31500010F1005D0D2B2002100F09EF8607BA07331BDEE
S31500010F207100010010B504460121FFF7D1FF2046EB
S31500010F30BDE810400021CBE710B50FF2580184B08F
S31500010F401CC968461CC0DFF8EC0AC279C1788DF865
S31500010F5004208DF80810827981788DF805208DF8A6
S31500010F600910427941788DF806208DF80A10027928
S31500010F7000788DF807208DF80B00FFF71BF96946FD
S31500010F800C2000F089FF18B140F62B61FFF795FFA1
S31500010F901FBD0000116108030000000000000000F1
S31500010FA0F8B50E46022E054603DB40F64D61FFF706
S31500010FB084FF05F01F001B2807D200230DF1010253
S31500010FC069462846FFF79FFE08B98A20F2BDDFF879
S31500010FD0E046FFF7EFF8A719062197F91E009DF8DD
S31500010FE000C011FB00F222441379634515D082F843
S31500010FF004C048439DF80020411D00F02BF897F9E5
S315000110001C00314600F054F89DF8010005F01F015F
S3150001101041EA401004EB46018884012E12D1A17EDB
S315000110209DF80020DFF88C06914204BFC1790029A2
S3150001103008D0A276807928B1FDF772FF00F00EF88C
S31500011040FEF710FA0020F2BD00000000AC67002098
S3150001105004760020C9B26420FDF7B8BD0023002242
S3150001106000210120FDF788BE10B50446FF2C0AD1E8
S31500011070DFF8340680680068C069017A407A00F0BA
S315000110801F0040EA41140121E0B2FFF789FF010088
S3150001109008D1DFF81C06417F0177E0B2BDE81040B8
S315000110A000217DE710BD0000F6670020001BB70098
S315000110B02DE9F04F8946B9F1020F85B00646DFF8F2
S315000110C0F87503DB40F6926100F0A2F806F12B00F9
S315000110D0412828BF8B2080F08C80DFF8D455DFF8BB
S315000110E0E04A05EB090001900677019890F91EB0D8
S315000110F0206818B940F6054100F08AF82068417960
S315000111008068491EC9B210F9112009B19642F8DB6F
S3150001111000EB4100924690F80180FFF74BF8062458
S3150001112014FB0BF168180090407940455CD002A889
S3150001113029440622F4F7B0FC00988DF80D805E462E
S315000111404079404516DA701E2DD414FB06F02F188F
S3150001115017F8011C414526DA2844B91F0622F4F77F
S315000111609BFCA819A91990F91F0000F044F8761EF6
S3150001117076B2E8E7804516DA0CE02844B91D062266
S31500011180F4F78AFCA819A91990F9210000F033F89F
S31500011190761C76B2701C0228BFBF14FB06F02F180E
S315000111A0F97A8845E9DB5E4509D1009880F8058022
S315000111B014FB0BF0811D4246FFF74CFF14E014FBB4
S315000111C006F0284402A90622F4F766FCA81902AB28
S315000111D080F8209006220198867714FB06F0411CC0
S315000111E0C9B26420FDF7BCFCDFF8D00400F809A001
S315000111F00020FEF7ADBD81F820003B4628440622BB
S31500011200867714FB06F0411CC9B26420FDF7A8BC21
S315000112103846F4F7B5BE10B510F1800F0446DFF875
S31500011220CC190AD1152491F91C00A04211DA00212A
S315000112302046FFF73DFF60B107E01628F3DB643C6B
S3150001124091F91D1060B2884201DA8B2010BD002190
S3150001125001E001212046BDE8104029E7012100E017
S3150001126000210120FEF7E7BA012100E0002100205C
S31500011270FEF7E1BADFF87409C07B10F0010018BF70
S3150001128001207047DFF82804C07B400800F0010008
S3150001129070470020704710F1640FB8BF6FF063000C
S315000112A0643040B28004000CFF28C8BFFF20C0B2E2
S315000112B07047022800DA08B1012100E040214120EF
S315000112C0FEF7A5B9002814BF022100210220FEF76E
S315000112D09EB9F0B5DFF8184994F9005083B078B398
S315000112E0002D2FD4DFF8CC6396F9141068B288422A
S315000112F032D06DB2012D27DB1D21FDF721FD18B17D
S3150001130040F6AD71FFF7D9FD0FF25001DFF8E47831
S315000113103888D1E90023CDE900238DF803006B4617
S31500011320000A8DF8040005220021F020FDF718FCC3
S315000113303575307DDFF8C018207038884884F7BDD0
S31500011340012DCFDB6D42CDE700220021F020FDF714
S315000113503DFC3575307D2070F7BD00008013880097
S315000113600000000001460120FEF799B9E0B5DFF85B
S315000113704003407B40B1022803D1572000F033FDE2
S3150001138000BB6FF07F000EBDFDF7CBFC072807DA27
S31500011390FDF7C7FC0628F4D1FDF7BEFC0028F0D006
S315000113A00FF67C000088ADF8000001AB0522FDF7C1
S315000113B00CFD18B140F6FC71FFF77FFD9DF80800A2
S315000113C00028DED0DFF8E012097900EBD070C1EB1E
S315000113D0600001B211F17F0FB8BF6FF07E0040B21D
S315000113E00EBD38B5DFF8140890F9080001282CDA8B
S315000113F000F0DEFA48BBDFF8B802447B022C18BFC6
S31500011400002C11D0022000F09CFA00F022F8DFF83F
S315000114109C2201464969007EB2FBF1F110FB01F005
S31500011420C004000CF9F757FEFFF7A0FF012C054693
S3150001143002D100F01FF904E0032C1CBF204600F086
S3150001144080FA00F00EF8A84201DA002032BD012030
S3150001145032BDDFF8A407406A10B993488068006876
S315000114607047934890F91B007E2807D1DFF888075B
S31500011470806A08B97F20704790F904007047DFF849
S315000114806C07807B7047DFF8640790F91F1006220E
S3150001149011FB02F1084410F8021F07E0844890F995
S315000114A01F10062211FB02F108440178407800EB77
S315000114B0012080B27047DFF83407407B7047DFF8C0
S315000114C03C0790F90810002902D500210172018517
S315000114D0DFF81807807B012808BF00F0CBB87047FA
S315000114E0DFF80C0790F90000012801DB01207047A5
S315000114F000207047DFF8F406007DC7E610B5DFF877
S31500011500FC460121E171FFF7AFFD01001CBF00217F
S31500011510E17110BD38B504467F2C0ED100F022F8DA
S31500011520DFF8E00600F019F8BDF80000400A03D024
S315000115307F28B8BF444200DB7E24F8F7B1FE05469A
S3150001154000F036FA10B960B2FDF794FEDFF89C069A
S31500011550C4762846F8F7AAFE31BD01887F2268467F
S3150001156004F0A8BC4FF6FF70ADF8000002237047E7
S3150001157080B5032801DB012002BDDFF870168873F0
S31500011580497B88420ED0002818BF022803D005D215
S3150001159000F070F806E000F0D4F903E04FF48C5146
S315000115A0FFF78BFC002002BD70B50D46022D0446E7
S315000115B003DB41F28911FFF780FCFEF7FBFDDFF843
S315000115C02C160626481990F91E5016FB05F21144F1
S315000115D0200A8A78824202BFCA78E3B29A4208D0C8
S315000115E08870CC708B1C16FB05F0BDE87040C11CE1
S315000115F031E070BD10B504460121FFF7D5FF204645
S31500011600BDE810400021CFE7F8B50D46022D04468E
S3150001161003DB41F2A311FFF750FCFEF7CBFDDFF828
S31500011620CC154819062690F91E5016FB05F2200A1C
S315000116308F5C8B18874202BF5F785FFA84FC67452F
S3150001164008D05C70885401B016FB05F0BDE8F04087
S31500011650411C00E0F1BD0222C9B26420FDF780BA47
S3150001166010B504460121FFF7CFFF2046BDE8104023
S315000116700021C9E710B50E4C607B012812D000F09D
S31500011680A5FBDFF8781500208871FDF749FC0020DD
S31500011690FEF724F8FEF77EF801206073BDE81040DE
S315000116A0F7F7DBBF10BD00000C1B020040420F0024
S315000116B078670020BC750020181C0100E067002037
S315000116C0FF117A002DE9FE4FDFF83055044695F9F2
S315000116D0080008B18C2006E1DFF81065F77F0620C7
S315000116E010FB07F0304401210079FDF7EAFD010006
S315000116F0F1D14FF0FF3028720020E863B17B481E1C
S315000117008041C00F687280202870FDF7E4FE697A77
S31500011710687000290CBF0221032141EA0111AF7053
S31500011720E97008B100202871DFF8DC04327D807988
S31500011730520802F00102904204D04100C9B20220CF
S31500011740FDF7ADFF707B012803D1032000F0F9F806
S3150001175009E00FF2D0418CC968468CC06846FDF796
S3150001176038FB00F035FB94F80080307D0FF2A84776
S315000117705FEA08614FF0000A00F0800027D54FEAC2
S315000117800821627801F4FE41891889B270B108F026
S315000117907F002070C1F30A0808F10200288504F1D0
S315000117A00209C80410D44FF0040B24E0C809C00193
S315000117B0B0F5805F18BF01208DD114F8018F08F1B3
S315000117C0010004F1010928854FF0020B13E008F12D
S315000117D0010104F1010929854FF0020B58B106F107
S315000117E03001012000F022FB18B141F25421FFF72C
S315000117F00FFD4FF0010AB5F92800002807D4317D05
S3150001180009064CBF022101217F31814203DA41F2EF
S315000118105C21FFF7FDFCDFF8F003807958B1B5F9DB
S3150001182028108B4503DB41F25F21FFF7F1FC288D80
S31500011830A0EB0B002885DFF8D403007888B9DFF820
S31500011840C803007868B1687840F04000B8F1010F2C
S31500011850687006DB99F80000800644BF6FF001004E
S315000118602872B5F928000AEB00018029214618DB08
S31500011870CAF17F00C0B200F0D9FA18B141F2742161
S31500011880FFF7C6FC288DAAF17F0108182885CAF141
S31500011890000020447F30A863307E737E40F0400212
S315000118A00EE0C0B200F0C2FA18B141F27E21FFF794
S315000118B0AFFC00202885A863307E737E00F0BF024E
S315000118C0F17DB07DFDF7D0FA307D000606D5A01C6E
S315000118D0814503D1207840F080002070E87908B175
S315000118E00020E8710020BDE8FE8F38B5C34C94F99D
S315000118F0081021B9FFF7E6FE010006D032BD94F9C2
S315000119000800012801DB8C2032BD94F908000FF292
S31500011910083540422072F9F723FCB449C8622146D2
S31500011920042000F0B9FA18B141F2CC21FFF7D6F93B
S3150001193000F08FFA18B141F2CD21FFF7CFF900205F
S3150001194032BD3EB5A94D0446687BA0422CD0032882
S3150001195008BF6C7318D0FFF78DFEF7F781FEA84814
S315000119606C730068002803D4FFF7BAFDFFF7B1FCDA
S315000119700FF2BC212CC968462CC06846FDF729FA2E
S3150001198000F029FA00F024FA24B1022C05D0032C28
S315000119900AD005E0FDF766FD37BDFDF726FD37BD2B
S315000119A041F20331FFF789FA37BD00BF0020C8E7CE
S315000119B09748007800B10120704710B5944A137812
S315000119C0010018BF012103B10123994210701ED0F5
S315000119D0864C80B1FEF7EEFB0020FDF74BFC207C28
S315000119E0810714D500F0FD0222740021BDE81040E4
S315000119F06120FDF7EBB894F91B00FFF78BFDE07B47
S31500011A00BDE81040400800F00100FFF75BBC10BDC7
S31500011A1038B50446F8F744FC05467D480078400889
S31500011A206441E0B2FFF7C9FF2846BDE83240F8F746
S31500011A303DBC0000B47500202DE9F0420446022C9D
S31500011A4084B00FF2D41903DB41F24D3100F0ACF84A
S31500011A50664E707B012840F0A580FEF7ABFB664819
S31500011A60407E002800F09E80022805D0C0F09A80B2
S31500011A7041F2613100F098F80FF2C010FDF7BFF99D
S31500011A80707DFDF7F7FD02216846FBF73CFE0FF27C
S31500011A90C81101A8D1E90023C0E900230099090E64
S31500011AA041700099090C817001A90098000A8DF80E
S31500011AB0070000988DF80800052000F0EDF918B12F
S31500011AC040F28D4100F070F8F17B4C4DFF20FDF79F
S31500011AD09EFDEF7B717C8F4208D0FEF76BFB3A4689
S31500011AE000216020FDF772F87774EF73FF20B17C57
S31500011AF0FDF7ABFD317DFF20FDF7D1FD737E327E13
S31500011B00F17DB07DFDF7B0F900F0A3F918B141F20E
S31500011B10773100F049F800F05EF9308D00F055F8A4
S31500011B2006F05AF8FFF708FAFFF7A4FBFFF7C1FB27
S31500011B30F07B400800F00100FFF7C4FBF08CC0B257
S31500011B40FFF792FA18B141F2A93100F02DF896F992
S31500011B501D00FFF760FBFFF796FCFFF74BFDFFF754
S31500011B609DFCFFF77DFD687B400800F00100FFF753
S31500011B70D9F9FFF7B5FCFFF7ACFB96F91B00FFF7A8
S31500011B80C9FC307D00F00100FFF7ECFB012C06D10A
S31500011B90FDF7C6F9FDF7FEFDF7F75FFD02E020460A
S31500011BA0FFF7CFFEBDE8FF824846F4F7E9B9704773
S31500011BB0C0B270470D48C08CC0B29FE4000000005F
S31500011BC0D47600200948008D704780B5B0F5004FE6
S31500011BD006D1FFF7C7FC0F48FFF7BFFCBDF80000B1
S31500011BE0FDF71DFA01490885002002BD786700202E
S31500011BF0F5670020E267002004760020BC7500200E
S31500011C00941902005224020068670020EE76002033
S31500011C10B17F00204C2402007068792E6300000019
S31500011C2084FF0000000000FF00000000000000002B
S31500011C30000000FF00FF00F7000000001120014C2A
S31500011C400211020100051102010106110201020938
S31500011C50110201030A000000F2000000000000006A
S31500011C602DE9F84F04461F4607F00F0000900D4678
S31500011C70164606F0B6FADFF8D882009808F1A009F0
S31500011C80B24688B3972E28BF022041D282B221469E
S31500011C9008F10800F3F75AFC009808EB000B361A16
S31500011CA0F80609D5B2B229460BF10800F3F74EFC46
S31500011CB0524608F108011AE0534608F1080208F1F4
S31500011CC00801484606F0C8FB07001BD1009A92B2EC
S31500011CD008F108012046F3F739FCB2B20BF108010D
S31500011CE02846F3F733FC0DE02DB952462146484606
S31500011CF006F0D4FB05E053462A462146484606F03F
S31500011D00ABFB074606F070FA380018BF0120C0B2D7
S31500011D10BDE8F28F80B5442000F065F8FF2801D1B7
S31500011D20012002BD0520F9F7D6F9002002BD31B523
S31500011D30443834280C46154603D34FF4B07100F0ED
S31500011D40A7F806F05AFA012379E0814900200870C4
S31500011D5006F043BA10B588B0002106F0FAF98007FB
S31500011D607B4C4CBF7B487C48606006F034FA0A2005
S31500011D70F9F7B1F9FFF7E9FF41F28830F9F7ABF965
S31500011D80607808B100201EE0684674491C22F3F70A
S31500011D9093FE082003906946FF20049000208DF8E9
S31500011DA0140001208DF8150000208DF81600012081
S31500011DB08DF8170004F1A00006F06EFA00B10120BB
S31500011DC080F001016170C0B208B010BD06F015BA0D
S31500011DD0002006F025BA80B506F00FFABDE80240EC
S31500011DE0012006F01DBA10B50446A4F144003428BA
S31500011DF082B003D34FF4D47100F04AF80FF29C106D
S31500011E000088ADF800008DF8004006F0F6F90023D1
S31500011E10022269466846FFF723FF00F060F89DF845
S31500011E20010016BD0A460146772080E738B504460B
S31500011E3066208DF800000D4606F0DFF91123621CBD
S31500011E4029466846FFF70CFF044600F048F820468D
S31500011E5032BD38B53E4C2078B0B9606818B94FF438
S31500011E60EC7100F015F8F9F782F90546F3F772FE01
S31500011E7060688047207028B9F9F779F9401BB0F5F9
S31500011E80967FF5D3F3F766FE207880F0010032BD28
S31500011E900FF2F800F4F774B870B504460D46200049
S31500011EA018BF002D03D140F2ED11FFF7F1FF28789D
S31500011EB04438342806D3FFF7CCFF06000ED1244957
S31500011EC00020087006F099F90023224600212846D1
S31500011ED0FFF7C6FE064600F002F8304670BD002048
S31500011EE006F09EB92DE9F04182B005468846F9F71C
S31500011EF03EF90746F3F72EFE0FF29C063088ADF841
S31500011F00000006F07AF90223AA1C41466846FFF74B
S31500011F10A7FE040004BF9DF80100FF2805D10C4966
S31500011F2001200870FFF7DBFF0BE0FFF7D8FF052064
S31500011F30F9F7D1F8F9F71BF90124C01BB0F5967F23
S31500011F40DCD3F3F707FE2046BDE8F681000000006A
S31500011F50E47A0020DF810100151D010078170200D7
S31500011F60F8B504460D4616461F4606F046F92946BB
S31500011F702046FFF791FF040004D139463046FFF7AA
S31500011F80B1FF0446FFF7ABFF2046F2BD73697072DD
S31500011F906F322E630000000044FF000000FF0000C6
S31500011FA00B494A680B68920002F03C02C3F38113A5
S31500011FB01A4382700A6802F03F0242708A68C96851
S31500011FC002F0F002C1F303111143017070470000E2
S31500011FD0E0FF0FE010B50FF2D4000FC88AB006ACCF
S31500011FE084E80F0006A800F0C3FC01A80FF2A801BF
S31500011FF01422F3F761FD69466846F9F794F818B1BA
S31500012000BDF80000ADF80A0001A8F8F7DEFC00F003
S315000120103DF81A4802F015FA00F038F804211120AB
S31500012020F8F73AFC002200210320F8F711FD0321FD
S315000120301348F8F731FC03211248F8F72DFC032168
S315000120401148F8F729FC07F075F907F027FA01A8F6
S315000120500FF268011422F3F72FFD01A805F092FE95
S315000120600123042205210020F8F724FFF8F706F9D9
S31500012070F3F757FD00200AB010BD000000F0490239
S3150001208002001A0003001C000500200001220121A4
S315000120900220F8F7DDBC000000000000A000550199
S315000120A00A200706020A04070000000000010807CB
S315000120B00F000A00C8002000A00000000200000076
S315000120C0006A180006010C00000006010D00000060
S315000120D0012100F01F029140DFF80023400942F878
S315000120E02010704770B50546F8F7DAF80026002487
S315000120F02821DFF8EC2201FB06F313449B7F13B181
S31500012100761C042EF7DB042E08BFDFF8D84208D070
S315000121102DB17143114401238B772E6001E0DFF865
S31500012120C842F8F7C3F8204670BD38B5DFF8BC429F
S31500012130A07808B1002032BD0120A0700121DFF88E
S31500012140B002DFF8B052F8F75BFA0321DFF8A80214
S31500012150F8F7A2FB032028710121DFF8A002F8F7A6
S315000121604FFA284607F005FA05F10C01012007F0A0
S31500012170E9F9DFF88C52E869C00AC002E86140F269
S31500012180FF70A861002028601D20FFF7A1FFDFF87E
S3150001219074124FF000500860A021E86940F0010078
S315000121A0E861DFF83C0202F0E1F80020207060707F
S315000121B0A060E060206132BD10B50446042C00D356
S315000121C012E0F8F76DF800F009F822B9F8F76EF8A1
S315000121D0DFF83C0210BD00220A7708E02822804978
S315000121E0624311448A7F7047DFF8200210BDF8F779
S315000121F05DF8002010BD30B500237C488049C468D5
S315000122000A68C0688442F8D1981844EB030130BDCE
S3150001221030B54FF4FA5200F004F8C00B40EA4140E1
S3150001222030BDA2FB004502FB015514F5804045F186
S31500012230000170472DE9F041F8F732F8704D6B4F08
S315000122408046E869296900EA010626F00500A861C9
S31500012250700717D5012038702C6800F01FF8201A76
S3150001226000F022F800F074F8204600F081F82C689E
S31500012270E86C797821B17968401A611A8842ECD301
S3150001228000203870F00704D50120A861F868401CC9
S31500012290F8604046BDE8F041F8F708B8E86920F073
S315000122A00400E861786870472DE9F043002604468A
S315000122B0002528214A4871434718387F7D77002831
S315000122C041D0D7E900018D4207D828BF844204D204
S315000122D0001BA941C7E9000135E0F87F08B9387745
S315000122E02DE0D7E90001D7E90223201AD7E90289AF
S315000122F065EB010107F080F9B8EB020069EB030118
S31500012300C7E90001386939690128786909DB0818C4
S31500012310F428786113D3D7E90001401C61F1FF313C
S3150001232008E0401AF428786109D3D7E90001401E74
S3150001233061F10001C7E900017869F4387861B8698B
S3150001234008B101207877761C042EB2DBBDE8F08354
S3150001235010B500242821224861434218507F18B144
S31500012360116A926920469047641C042CF2DB10BD69
S31500012370F0B54FF0FF3213460021194C28254D4385
S315000123806619367F46B12544D5E900679F4203D8D1
S315000123902EBF964232463B46491C0429EEDB0024F9
S315000123A04FF0FF36B34208BFB242104912D00025A2
S315000123B0AB426FF0640401D8A24200D32246124B0D
S315000123C0486004241C60101858630124586840F0C2
S315000123D0040058604C70F0BD0000000080E200E08F
S315000123E0A8680020011000F0041000F038700020E9
S315000123F000050800F0650020050020008009120094
S315000124000820044000E100E020200440021000F012
S31500012410031000F0012100F01F029140DFF84C2269
S31500012420400942F82010704700BF38B5DFF8404236
S31500012430E06821680840DFF83C120AD5486B056858
S31500012440290003D000F015F80021A8474FF00040FD
S315000124500BE040000AD5086B0568290003D000F09F
S3150001246008F80121A8474FF08040A060BDE831403F
S3150001247049E00021C0E90011EBE000BF38B5DFF803
S31500012480F841216801290CBF012500254128B8BF63
S31500012490002003DB5028B4BF01200220DFF8DC1145
S315000124A001EBC001D1E900237249C1E90023744956
S315000124B001EBC001D1E900237249C1E900232900DA
S315000124C01CBF4AF6E8512160002818BF022801D036
S315000124D002D2012000F0E1FB0DB10020206031BDE8
S315000124E06449896B00EB8000A1EBE00080F30800F2
S315000124F0C0B2704764484FF040410160416821F025
S31500012500404141607047F0B55A48026B002150F8CE
S31500012510313043B1146800EBC1031CB114791D7944
S31500012520AC4200D21A46491C0629F0DB0263136845
S3150001253056495BB10B681B0A1B020B600B681279CB
S315000125401A430A604A6942F0804202E04A6922F06F
S3150001255080424A610022436B4A4C54F8325045B1DD
S315000125601E6804EBC2051EB12E791F79BE4200D248
S315000125702B46521C062AF0DB43631A6862B10A68CD
S3150001258022F47F420A600A68187942EA002008604C
S31500012590486940F0004002E0486920F00040486187
S315000125A0F0BDF8B5364C334D012020763021284652
S315000125B001F0DCFE00F049F805F14000286368638C
S315000125C033480168406DC1F3074100F0FF00FF2960
S315000125D012BFFF281921902001EB810200EBD202E4
S315000125E0AA63C0000522B0FBF2F04018E863684612
S315000125F0FFF7D6FC9DF8010001281AD141201F4D95
S31500012600244EFFF76DFF28712E603920FFF768FF12
S3150001261007465020FFF764FF2773A6602873AE6054
S315000126204820FFF75DFF2075266100F012F8FFF7DD
S3150001263025FFFFF75FFF0020FFF7ECFE164901209B
S315000126400860FFF760FF0020F2BD30210D4801F060
S315000126508DBE124807490068C96B0006400D052268
S3150001266090FBF2F0081A00F30700704780E200E0E1
S3150001267024300E402C72002008300E40C472002017
S31500012680A4720020747200202C300E401C300E40C3
S31500012690B081E00F7B24010000E100E020300E4014
S315000126A0890001EB401000F1844002607047890007
S315000126B001EB401000F1844000687047F8B5DFF87F
S315000126C02C56DFF82C4630B9286B60601120F8F7DC
S315000126D08DF82070F1BDDFF81C66376845F60E00EF
S315000126E0306000206168CA0748BF0120CA0648BF9A
S315000126F040F010004A0648BF40F040004A0748BF74
S3150001270040F00400C90548BF40F480702860217874
S3150001271005291CBF1120F8F7BFF82079C0075CBF57
S3150001272002202860F80744BF00203060F1BDDFF8C1
S31500012730C815DFF8C82538B110680860106820F49C
S315000127407F4040F4EE4000E008681060A5E0DFF845
S31500012750B0050178012918BF02290BD1DFF8A415AC
S315000127600A6802F00302012A02D1CA6BD203FCD520
S3150001277003210170704710B504001CBF0020FFF74C
S315000127809DFF00F02CF8FFF7E2FF30BF0020FFF7B6
S31500012790CEFF04B12BE01EE010B504001CBF0020E3
S315000127A0FFF78CFFDFF84C05DFF84035016845F689
S315000127B00E020260C9074FF420721A6044BF00215D
S315000127C0016000F00CF8FFF7C2FF30BF0020FFF7F1
S315000127D0AEFF04B10BE0BDE8104001F005BEDFF825
S315000127E02805016841F00401016001209FE7BDE869
S315000127F01040012062E7F8B5DFF81045206920F4A2
S31500012800403040F4003520694AF6E85740F4403636
S3150001281027602069C00708D4A06B00F003000128D7
S3150001282012BF0228002000F071F82069C0070DD5FB
S3150001283072B6DFF8DC040760816841F080018160CF
S31500012840DFF8D004016841F4807101600120FFF7CF
S315000128506EFFFFF77CFF04202561401E2661FBD138
S315000128602561F1BD70B5DFF8B0140A6803789209E5
S3150001287003B10423447804B10224857805B10825FF
S31500012880C6780079012E18BF002643EA8212224338
S315000128902A4332431043086070BD10B5DFF85C046B
S315000128A00168C1F30322DFF858144B8803F12804A9
S315000128B0521C03EB5403283302EB8204B3FBF4F3FB
S315000128C05B1E0468072B34BF1B064FF0E06324F040
S315000128D0EE64234343F480130360B1F90610002923
S315000128E013D489B201F1280301EB530153082831AE
S315000128F003EB4202B1FBF2F14268072934BF090139
S31500012900702122F070021143416010BDF8B50446F2
S31500012910DFF80854686AC007FCD4DFF8E86330685A
S3150001292010F0030704D001220D212846FFF7B8FE57
S31500012930A74202D1DCB9002214E02FB9012C03D140
S31500012940DFF8BC1302200870686AC007FCD430683F
S31500012950800844EA80003060686AC007FCD422001F
S3150001296018BF01222846BDE8F8400D2198E6F1BDC1
S3150001297070B50446DFF8A80382B002210160006841
S3150001298000F00F00022840F08580DFF89803006808
S3150001299010F1010F13D0DFF890034168026811604E
S315000129A0C16882681160416902691160C169826901
S315000129B01160416A026A1160C16A806A0160E08839
S315000129C04B2838BF00200DD3B0F5FA7F38BF4FF042
S315000129D0805007D340F6C411884234BF4FF00050EF
S315000129E04FF04050DFF84453DFF844332969B4F916
S315000129F00C20DFF808631940D243084340EAD2703D
S31500012A0028610021306A40F0807030623046FFF75D
S31500012A104EFE00B1042000F02FF9706920F0C0408D
S31500012A207061306840F0060030606846FFF7B8FA1A
S31500012A309DF80100DFF8C812012813D19DF80000A6
S31500012A4003280FDA087868B9A868DFF8E82240F0A9
S31500012A500100A86070691040DFF8DC221043706144
S31500012A600120087020894880A089C880A0888880B4
S31500012A7000F0CFF8A07B20B1012805D1DFF8BC0218
S31500012A8001E0DFF8BC02F06060880122012100F05C
S31500012A9011F808B9002076BDA27A02B101220521FA
S31500012AA02846FFF7FDFD6078FFF730FF012076BD70
S31500012AB0000000002DE9F847A0F5E163B3F5966F34
S31500012AC000F2A580B0F5E16FDFF878524FF4966811
S31500012AD007D92C6801234FF4E169260EC4F3074A8E
S31500012AE008E02C68C14600234FF41678C4F3072684
S31500012AF004F0FF0ADFF8044227683F0F07F00307D7
S31500012B0000974FF0000E009F53EA0727F44614D0B2
S31500012B107F1E1ED0FF3F0ED07F1E14D0FF3F08D070
S31500012B207F1E0ED0FF3F02D07F1E08D016E0AF6891
S31500012B300AE0AF680EE06F6806E06F680AE02F6989
S31500012B4002E02F6906E0EF684FEA176CC7F3074EFC
S31500012B5004E0EF68C7F3072C07F0FF0EA0EB0909A5
S31500012B60A6EB0A0000FB09F0B0FBF8F05044ACEB11
S31500012B700E0707FB09F78642B7FBF8F828BF504551
S31500012B80F04444D3C44528BFF04540D35AB1226925
S31500012B90DFF8B471002B14BF022600263A4042EA40
S31500012BA000203043206179B3DFF8A0010068C0B28C
S31500012BB0042802DA686983B10CE0A869009903293F
S31500012BC025D8DFE801F00A070402000E07E0C0F38A
S31500012BD0074004E0C0F3072001E000F0FF00000316
S31500012BE030F4704113D1216A21F470410843206207
S31500012BF0B8F1E70FA06928BF4FF0E708400A43EA9A
S31500012C00480141EA4020A0610120BDE8F287002089
S31500012C10FBE710B539494B6A0C68E4074FF0FF3200
S31500012C2003F0070312D5022B10D3142815D3143839
S31500012C3014281FD30F22086820F47F4040EA02209F
S31500012C4040EA02300860BDE8104026E60C68E40759
S31500012C5009D4022B07D20A2801D20322EBE70A384C
S31500012C600A2807D3E6E70C68E407E4D5022BE2D28B
S31500012C702828DFD20722DEE738B504461F4D00219A
S31500012C802846FFF714FD686AC00844EAC000686276
S31500012C90BDE832401A488088BBE710B50221002200
S31500012CA003002B4BDC6A08BF0021012C03D14AF635
S31500012CB0E8540122DC62022818680CBF20F0740077
S31500012CC040F074001860986B40F008009863214842
S31500012CD0046824F4406444EA81210160986B20F081
S31500012CE0080098630AB10020D86210BD60400E400A
S31500012CF02C70002080410E40347000204C300E4074
S31500012D00987F002040300E4010ED00E008300E4064
S31500012D1090310E4088300E4018300E4054300E402F
S31500012D2038300E401C83E00F3880E00F3C300E40F7
S31500012D30FEFFFFCF000F0EF0B4C0400B372110B7D6
S31500012D40774020571883E00FFD80FFFF0082E00FD8
S31500012D5064310E403C400E4043480168090C0904A9
S31500012D608160404801607047404A410952F821207C
S31500012D7000F01F00C240D20706D53D4A52F8211085
S31500012D80C14001F0010070470020704700000000BB
S31500012D9070B50646072808BF032602D0082808BFD3
S31500012DA00226F2F7E5FE30B1012E04D1A520F2F795
S31500012DB0D4FE012400E0002405F04EF9002080F342
S31500012DC01188F6F7D0FE264D761E0020042E2860C7
S31500012DD016D8DFE806F0030A0A0E12002548016834
S31500012DE021F00401016030BF0FE00120FFF7C3FCB1
S31500012DF00BE00120FFF7D0FC07E0FFF7FCFC04E045
S31500012E00AF210FF27800F3F7BBF81748C1680068E5
S31500012E10084086B22E600920FFF7A6FF18B91120D7
S31500012E20FFF7A2FF10B146F4803028601D20FFF79E
S31500012E309BFF18B1286840F4003028602020FFF776
S31500012E4093FF18B1286840F4802028600CB1F2F78E
S31500012E5068FEF6F7A9FEBDE8704006F044BC000026
S31500012E6020700020247000201CA4004000E200E035
S31500012E7000E100E010ED00E08AE70000736C656593
S31500012E80702D65666D33322E630000007047704702
S31500012E903023DFF8E829584310440C3000F18060F4
S31500012EA007E03023DFF8D429584310440C3000F1F1
S31500012EB0C060012202FA01F1016070471CB500935E
S31500012EC01346049C01940A46F7F7B9FF13BD19305E
S31500012ED0017E02290FD10278DFF8A019007930238B
S31500012EE05A4311441C31800000EB411000F184402B
S31500012EF00068C0B270470020704738B50022DFF87D
S31500012F00801901EB820149684B7F834203D0521C31
S31500012F10042AF4D331BD21B301F12E04E07802284D
S31500012F201FD10D1D0846FFF7D2FF2874687C0228C1
S31500012F3004BF2078002814D100F01AFE06F0BFFC69
S31500012F40297C09B1617829B100206070286806F0F2
S31500012F5085FC31BD28B99DF8000010B1286806F03E
S31500012F606FFC31BD10B5044604F1140082B0417FF7
S31500012F70022910D141780A0003D0012906D001782F
S31500012F8021B9817A8079FFF783FF18E0817A807908
S31500012F90FFF787FF13E0012911D1007800280CBF44
S31500012FA0112013208DF80000204600F0F0FF0122C9
S31500012FB06946204600F067FF204601F02DF8002003
S31500012FC016BD2DE9F041044688461646F7F768F91D
S31500012FD00546A088E188884207D30020306028464C
S31500012FE0F7F764F9DFF8A0081CE020881427784376
S31500012FF02044142241460830F2F74EFD20887843DA
S315000130002044083030602088E188401C90FBF1F2B2
S3150001301001FB12002080A088401CA0802846F7F7FB
S3150001302045F90020BDE8F08138B504460D46F7F7AD
S3150001303037F9A18809B9296024E06188142251432E
S315000130402144083129606188E288491C91FBF2F329
S3150001305002FB13116180A188491EA1800EE038B5DB
S3150001306005460C46F7F71CF9A98809B9216009E05C
S31500013070698814225143294408312160F7F716F96A
S31500013080002032BDF7F712F9DFF8400932BD90F89A
S3150001309032100A000BD102680121D1600068016972
S315000130A0C907FCD5416F41F001014167704701290C
S315000130B00ED10168496C8907FBD402680121516070
S315000130C000688168C907FCD5416D41F00101416580
S315000130D0704790F832100A0008D101684A6F520809
S315000130E052004A6702210068C160704701290CD16C
S315000130F00168496C8907FBD40168496D0268490872
S3150001310049005165022100684160704710B500F120
S315000131102C0286B00123137093791C0013D1026827
S31500013120049002F11C030FF2710203920022029233
S315000131304A680192012200920A680169806806F0D4
S3150001314064FB06B010BD012BE9D000201070F8E732
S3150001315010B500F12D0286B00123137053791C00BE
S3150001316012D1026834320FF21D1303930490002327
S3150001317002934B680193012300930B68C168406871
S3150001318006F03DFB06B010BD012B02D102682832C4
S31500013190E9E700201070F5E7F8B514466946606A5C
S315000131A0FFF75DFFDFF82418884262D004F12C0591
S315000131B0DFF84418A879020008D12268126C92053A
S315000131C004D500F058F84FF4007015E00246012AC4
S315000131D007D12368DB6A1B0603D500F04CF8802073
S315000131E016E0DFF8181850B92068006CC00506D53E
S315000131F000F041F84FF48070216888640DE0012ADF
S3150001320009D12068C06A400605D500F034F840208F
S315000132102168486301E000F062F8F7F741F80646D5
S315000132200098C768380009D00098009940688968F5
S31500013230431A0098026801692046B847606A6946E0
S31500013240FFF7F2FE606A818821B100F074FD00F09B
S31500013250D5FE0CE0012020752046FFF783FE0020F5
S315000132602870687903281CBF2046FFF732FF00F05B
S3150001327015FF0120F2BD00980161002000998860C8
S3150001328070470000F8B5144604F128056946286818
S31500013290FFF7E5FEDFF8681788421ED000F01FF839
S315000132A0F6F7FEFF06460098C768380005D0009875
S315000132B04368026800212046B84728686946FFF737
S315000132C0B3FE2868818821B100F035FD00F0E1FEEA
S315000132D001E00020687100F0E1FE0120F2BD0099D5
S315000132E00020086100998860704710B9DFF86C0802
S315000132F07047002918BF002A02D0B2F5006F02D923
S31500013300DFF85C0870470020704710B50368DFF8E6
S315000133105448FF22A34240F060810B7A1C0018BF7B
S31500013320012B07D0022B18BF032B03D0042B18BF88
S31500013330052B01D100233AE0062B18BF072B04D039
S31500013340082B1CBF092B0A2B01D101232FE00B2BC4
S3150001335018BF0C2B07D00D2B18BF0E2B03D00F2B2C
S3150001336018BF102B01D1022321E0112B18BF122BFC
S3150001337008D0132B18BF142B04D0152B1CBF162BEA
S31500013380172B01D1032312E0182B18BF192B0BD0D1
S315000133901A2B18BF1B2B07D01C2B18BF1D2B03D0B4
S315000133A01E2B18BF1F2B01D1052300E0FF23C37578
S315000133B04B7A1C0018BF012B40D0022B1CBF032BDC
S315000133C0042B3BD0052B18BF062B04D0072B1CBFA3
S315000133D0082B092B01D1012333E00A2B18BF0B2B34
S315000133E007D00C2B18BF0D2B03D00E2B18BF0F2B9C
S315000133F001D1022325E0102B18BF112B08D0122B67
S3150001340018BF132B04D0142B1CBF152B162B01D15F
S31500013410032316E0172B18BF182B0BD0192B18BF37
S315000134201A2B07D01B2B18BF1C2B03D01D2B18BF23
S315000134301E2B01D1052304E01F2B01D1002300E03F
S31500013440FF2303760B7A1C003ED0012B18BF022BFB
S3150001345059D0032B1CBF042B052B54D0062B1FD090
S31500013460072B21D0082B23D0092B25D00A2B27D0B7
S315000134700B2B41D00C2B43D00D2B08BF082342D078
S315000134800E2B05D00F2B07D0102B09D0112B01D1F4
S31500013490092338E0122B01D10A2334E0132B01D181
S315000134A00B2330E0142B01D10C232CE0152B01D179
S315000134B00D2328E0162B01D10E2324E0172B01D171
S315000134C00F2320E0182B01D100231CE0192B08BF84
S315000134D0012318D01A2B08BF022314D01B2B08BFB7
S315000134E0032310D01C2B08BF04230CD01D2B08BFAF
S315000134F0052308D01E2B01D1062304E01F2B01D181
S31500013500072300E0FF23C3764B7A1C003FD0012B33
S3150001351041D0022B43D0032B45D0042B47D0052B9A
S315000135201FD0062B21D0072B23D0082B25D0092B02
S3150001353027D00A2B3FD00B2B41D00C2B08BF0822DA
S3150001354042D00D2B05D00E2B07D00F2B09D0102BF7
S3150001355001D1092238E0112B01D10A2234E0122BC4
S3150001356001D10B2230E0132B01D10C222CE0142BBC
S3150001357001D10D2228E0152B01D10E2224E0162BB4
S3150001358001D10F2220E0172B1DD0182B01D10122CA
S315000135901AE0192B01D1022216E01A2B01D10322BE
S315000135A012E01B2B01D104220EE01C2B01D10522B6
S315000135B00AE01D2B01D1062206E01E2B01D10722AE
S315000135C002E01F2B00D1002202774A7C42768A7CD8
S315000135D04277CA7C8276097D58E1DFF87448A342B6
S315000135E040F04B810B7A1C0018BF012B07D0022B30
S315000135F018BF032B03D0042B18BF052B01D10023C1
S315000136003AE0062B18BF072B04D0082B1CBF092B49
S315000136100A2B01D101232FE00B2B18BF0C2B07D04E
S315000136200D2B18BF0E2B03D00F2B18BF102B01D15A
S31500013630022321E0112B18BF122B08D0132B18BF20
S31500013640142B04D0152B1CBF162B172B01D10323CA
S3150001365012E0182B18BF192B0BD01A2B18BF1B2BD6
S3150001366007D01C2B18BF1D2B03D01E2B18BF1F2BD9
S3150001367001D1052300E0FF23C3754B7A1C0018BF57
S31500013680012B40D0022B1CBF032B042B3BD0052B57
S3150001369018BF062B04D0072B1CBF082B092B01D101
S315000136A0012333E00A2B18BF0B2B07D00C2B18BFB5
S315000136B00D2B03D00E2B18BF0F2B01D1022325E0B2
S315000136C0102B18BF112B08D0122B18BF132B04D0A7
S315000136D0142B1CBF152B162B01D1032316E0172B18
S315000136E018BF182B0BD0192B18BF1A2B07D01B2B61
S315000136F018BF1C2B03D01D2B18BF1E2B01D1052370
S3150001370004E01F2B01D1002300E0FF2303760B7A8F
S315000137101C003ED0012B18BF022B59D0032B1CBF16
S31500013720042B052B54D0062B1FD0072B21D0082B99
S3150001373023D0092B25D00A2B27D00B2B41D00C2BBC
S3150001374043D00D2B08BF082342D00E2B05D00F2BDB
S3150001375007D0102B09D0112B01D1092338E0122BE8
S3150001376001D10A2334E0132B01D10B2330E0142BB2
S3150001377001D10C232CE0152B01D10D2328E0162BAA
S3150001378001D10E2324E0172B01D10F2320E0182BA2
S3150001379001D100231CE0192B08BF012318D01A2BD5
S315000137A008BF022314D01B2B08BF032310D01C2BE8
S315000137B008BF04230CD01D2B08BF052308D01E2BE0
S315000137C001D1062304E01F2B01D1072300E0FF23CB
S315000137D0C3764B7A1C0038D0012B39D0022B3AD054
S315000137E0032B3BD0042B3CD0052B1DD0062B1ED022
S315000137F0072B1FD0082B20D0092B21D00A2B33D021
S315000138000B2B34D00C2B08BF08223FF4DDAE0D2B59
S3150001381004D00E2B05D00F2B06D0102B3FF499AEFA
S31500013820112B3FF49AAE122B3FF49BAE132B3FF4B0
S315000138309CAE142B3FF49DAE152B3FF49EAE162B7A
S315000138403FF49FAE172B17D0182B3FF4A0AE192BC0
S315000138503FF4A1AE1A2B3FF4A2AE1B2B3FF4A3AE4D
S315000138601C2B3FF4A4AE1D2B3FF4A5AE1E2B3FF43B
S31500013870A6AE1F2B7FF4A8AEA5E603E000A000408C
S3150001388058700020B64810BD0A7000F081770020FC
S3150001389010BD10B500F1170482B00A002179207815
S315000138A01DD001230422F7F705FB61796078012316
S315000138B00222F7F7FFFAA07E022809D100F034F8B8
S315000138C0E179E07800230422F7F7F4FA012017E002
S315000138D0032827D100F028F8002304221EE0002344
S315000138E0F7F7E8FA6179607800F026F8A07E0228F9
S315000138F00ED100F01FF8E179E07800F01DF8002004
S31500013900009001230122A179A078FFF7D7FA09E0F7
S31500013910032807D100F00EF800230022E179E078B0
S31500013920F7F7C8FA002016BDA179A0780023012275
S31500013930F7F7C0BAA179A07800230022F7F7BABA3F
S3150001394010B5DFF874170A7842B9002301EB820437
S31500013950521C042A6360F9D301220A70002201EB8A
S3150001396082035C68002C18BF844202D15860002093
S3150001397010BD521C042AF2D3DFF8400710BD40F8EF
S31500013980241F002103681980036859800368998000
S315000139900172426011804268518042689180417291
S315000139A0C172704710B5044604F067FB607FDFF80B
S315000139B0101704F070FB0020A075207502206075B9
S315000139C02046BDE81040FFF7CDBA00000B7000F0AD
S315000139D038B5044605F0EAFE0021201D05F086FEF5
S315000139E0DFF8E05628B9002104F1080005F07EFE53
S315000139F000B1284632BD00000D7000F00C7000F0D9
S31500013A000B7000F0F0B587B004460D4668460FF21C
S31500013A10E4611C22F2F750F80CB950489CE0002DE5
S31500013A205ED03421204600F0A1FC2046FFF788FF36
S31500013A300700F3D104F13100297C01702968216066
S31500013A40002141702868474988423CD1DFF8780651
S31500013A502062DFF87806E0604FF440202061EA69D1
S31500013A60A9692046FFF78BFF6868029001216889E2
S31500013A70ADF81000A889ADF80E00A87B8DF80C00F2
S31500013A80E87B8DF8120005208DF80D00DFF8400661
S31500013A90F6F7B6FD00F078F8206A0121F6F7B0FDD9
S31500013AA000F065F800F076FB2868DFF82826032188
S31500013AB04167816F00F061F8816720462946FFF76B
S31500013AC024FC78B148E0DFF88813884208D1DFF892
S31500013AD008062062DFF80406E0604FF45020BDE7D7
S31500013AE01F4839E000F040F8002835D1F6F7D8FB39
S31500013AF00646287C032810D12868416F41F0300121
S31500013B004167416E41F00401416695F8212095F81F
S31500013B10201041EA0221C16704E0022804BF2046C1
S31500013B20FFF740FF28684FF0FF318164297C0329A4
S31500013B300CBF0521042100F026FB29684FF44060E3
S31500013B40C86005F033FE2046FFF742FF00F0A5FAF4
S31500013B50002F14BF3846002007B0F0BD027000F0F8
S31500013B60037000F0000001400121204691E600208B
S31500013B708DF8000069462868704711402A7A41EAA3
S31500013B8002216A7A114370470121DFF85405F6F7DD
S31500013B9037BD38B5040002D1DFF8200532BD032157
S31500013BA000F03CF80021204600F043F90021FFF720
S31500013BB0DCFF04F131056878010006D12168022095
S31500013BC0C86008202168C8600AE0012808D1206879
S31500013BD000F0A0FB2068416C8907FCD40A214160F2
S31500013BE00021206AF6F70CFD2878032803D0607FB0
S31500013BF0002104F050FA606805F0BEFDA06805F0EA
S31500013C00BBFD05F09AFD606A00210180418081803B
S31500013C10A06A018041808180002032BD2DE9F043F8
S31500013C205FEA000883B00D4608BFDFF890047BD039
S31500013C30F6F736FB012D814608F12C0608F104073B
S31500013C40DFF8A04415D1786A808810B3386805F08A
S31500013C501DFE00207070786A818879B300F06BF8D8
S31500013C60009800F10801386805F04CFE00980461DF
S31500013C7020E0022D03D1386A808840BB09E0032D7C
S31500013C8023D1786A8088002802BF386A8088002894
S31500013C90DCD14846F6F70AFBDFF84C0444E06946F6
S31500013CA0FFF7C2F90098D0F80CC0BCF1000F01D0A3
S31500013CB000F03CF8786A81880029F0D1404600F08E
S31500013CC03DF88004FAD5022D01D0032D28D178685C
S31500013CD005F0DCFD00203070386A8188D1B101A978
S31500013CE0FFF7BDF9019800F10801786805F00AFEB1
S31500013CF0019804610AE001A9FFF796F90198D0F845
S31500013D000CC0BCF1000F01D000F010F8386A8188B0
S31500013D100029F0D1707903281CBF4046FFF7D9F975
S31500013D204846F6F7C3FA0020BDE8FE838368002201
S31500013D302146404660476946FFF791B990F832201F
S31500013D400021130002D1006801691EE0012A1CD17D
S31500013D5000688068820748BF0221C20748BF41F058
S31500013D600101420748BF41F00801020748BF41F07F
S31500013D702001C20648BF41F04001820648BF41F01A
S31500013D808001400648BF41F4005108467047406A29
S31500013D901CE02DE9FC4100F046F8606A8188164670
S31500013DA01F4671B1FFF7C7FF8046A06801A905F05C
S31500013DB0A9FD009828B1B8F1000F02D100F02AF848
S31500013DC002E00020386030601EE0806A8088C0B260
S31500013DD070472DE9FC4100F026F8A06A8188164655
S31500013DE01F4671B1FFF7A7FF8046606801A905F07C
S31500013DF089FD009828B1B8F1000F02D100F00AF848
S31500013E0002E000203860306028602046FFF796FF08
S31500013E10BDE8F68140680199401A30600198386022
S31500013E2000980068704704460020009001900D46F6
S31500013E30704700F11402537F032B02D1DFF8AC0265
S31500013E4070475170022918BF1170FFF78BB8000037
S31500013E500004014010B500F11602D37E012B01D1F9
S31500013E60022900D1EFE014788C4208D0117011B903
S31500013E7000F0D2F803E0012908BF00F088F800201D
S31500013E8010BD007D70472DE9F0410446884616466F
S31500013E90FFF72BFA002878D1082005F045FE0546E4
S31500013EA004F12E0702E00DB105F040FDA06A8088FD
S31500013EB010B138780028F6D03879010002D121688E
S31500013EC0096905E0012818BF002522D12168896802
S31500013ED011F002051DD101000BD121680420C86033
S31500013EE0206801698907FCD5416F41F002014167EC
S31500013EF00FE001280DD12068416C8907FBD404210C
S31500013F004160206881688907FCD5416D41F0020155
S31500013F1041650120B8703879010006D0012819D110
S31500013F2010E018F8011B00F0D4F931464E1E206846
S31500013F300029F6D101698906FCD50BE018F8011BA9
S31500013F4000F001FA31464E1E20680029F6D181683B
S31500013F500907FCD5C5B93879010008D12068416F38
S31500013F6021F00201416708202168C8600CE00128A0
S31500013F700AD12068416C8907FBD4416D21F0020109
S31500013F8041650820216848600020BDE8F08110B530
S31500013F90040001D1FFF7F0BC94F82E0030B9204699
S31500013FA0FEF795FF10B9606805F04AFC94F82E00FB
S31500013FB0401C84F82E00002010BDF0B587B000F03B
S31500013FC070F8A0B900F061F800F01CF8049700F051
S31500013FD010F860B9287E48B92046FFF758F800F076
S31500013FE00DF8687F032801D000F011F8002007B012
S31500013FF0F0BD6A46286901A9FEF7E3BF009920468C
S31500014000FFF784B804F1140539480590704700207C
S3150001401028702046FEF7A6BF10B5040001D1FFF7B0
S31500014020ABBC94F82E0070B194F82E00012806D18D
S315000140302046FEF74CFF10B9606805F00FFC94F8B6
S315000140402E00401EB5E7294810BDF0B587B000F037
S3150001405028F8C0B900F019F800F029F804976A4663
S315000140602868FFF7C8FF70B9687958B9F6F718F9E3
S3150001407006462868808818B100F00BF801202872DE
S3150001408000F00CF8002007B0F0BD019502960396EA
S31500014090704700992046FFF75BB807463046F6F7AA
S315000140A005B904460D4616461F46FFF71EB904F12B
S315000140B028050F480590704758700020027000F0DF
S315000140C0FB2E01000E7000F00022040001000C001E
S315000140D040410500E0E0FFFF0032040001000D0051
S315000140E000250800097000F0087000F0057000F066
S315000140F0017000F0050000000000000000C2010090
S315000141000005000000100000000000000000000093
S3150001411070B50446080015461E4604BF6348F6F707
S31500014120A8FA310006D0202E18D0402E18D0602EC5
S3150001413018D070BD1021226822F060022260694306
S315000141402268324322604A0802EB4010B0FBF1F0CC
S315000141502038574901EAC000606170BD0821EAE7CD
S315000141600621E8E70421E6E738B5044608001546C6
S3150001417004BF4E48F6F77DFA401E6900B0FBF1F028
S315000141800002606131BDCA43520002F00A02C260F8
S31500014190C160704738B504460D4600F066F8A87C44
S315000141A018B1206840F080402060E87C18B1287D75
S315000141B040F08000A065687BB5F910100843B5F999
S315000141C00E10084360602B7BAA6869682046FFF7DA
S315000141D09FFF00F039F8606F20F030006067606F74
S315000141E0297E084360672CE038B504460D4600F089
S315000141F03CF8A87B08B14FF480602168B5F910201E
S31500014200104340F0010008432060287D08B14FF0BB
S315000142100050216808432060A87C18B1E87C40F072
S315000142208000A065287B40F480506060AA686968B8
S315000142302046FFF799FF687B08B11020E06000F087
S3150001424003F82878E06031BDA87DE97D00070905FE
S3150001425000F0E04001F4E00108432066687D18B1F2
S31500014260206840F480302060704740F6AA61C16042
S315000142700021016041F20501416000218160416137
S31500014280C1640C4A0C498164002141678167C16799
S3150001429090420A4912BF88420022026500228265C5
S315000142A0884204BF06490A60704700004041050084
S315000142B0F8FF7F0000000140F9FF01000004014002
S315000142C05C04014001690906FCD5FFE7C069C0B27B
S315000142D0704702695206FCD541637047026CD207EA
S315000142E002D4426C0A42FCD1704738B500F00EF890
S315000142F0E843400000F00A002843606031BD19B16F
S31500014300416C0029FCD10121016470470D46044628
S315000143100221E3E710B504460121FFF7F0FFEA2089
S315000143206060002100202060E06020616061A06380
S3150001433040F2F97060630020E0636065A065204685
S31500014340BDE81040DBE738B500F005F8402100F084
S315000143500AF8A56231BD04460D46A068C006FCD523
S315000143607047606002212046B8E70000002205F090
S3150001437001BC00007047704772B61EF0080F08D0E6
S315000143801EF0040F0BD0DFF848E0AEE8FF1F11481E
S315000143900AE0DFF83CE0AEE8FF1F0F4804E0DFF873
S315000143A030E0AEE8FF1F0D486946EFF309828EE85B
S315000143B0070086460A480B4C854501D3A54501D31E
S315000143C084F30888F1F7F5FD84F30888F7F7FAFC1A
S315000143D004000020FDFFFFFFF1FFFFFFF9FFFFFFD4
S315000143E0285A00204863002080B500F00CF82A49BD
S315000143F02A4A0968C1F30821491CB0FBF1F0106093
S3150001440002BD27487047274927480A6802F0070274
S31500014410022A09D00AD3042A01D002D306E0406851
S3150001442005E04FF4004002E0006800E08068C96ED4
S31500014430C1F30421491CB0FBF1F070471A4800682A
S315000144407047194908601748006800F007000228FC
S3150001445008BFFFF7C9BF70471448016841F47001EE
S3150001446001601348416941F40051416101688908BD
S3150001447089000160416B490849004163016A21F0E5
S315000144808051016270474FF4004070474FF47A70D3
S31500014490704705484068704708410E401066002085
S315000144A000F0490294400E400466002088ED00E0C9
S315000144B040300E40012100F01F029140504A400950
S315000144C042F82010704730B50FF26C104D4D0FC8F1
S315000144D087B003AC84E80F00684600210022002360
S315000144E00EC002208DF8060001214748474CF6F719
S315000144F087F84FF6FF70E0616A460021204605F015
S31500014500ADFB00208DF80E0003A9204605F05AFBED
S315000145103F48F6F7AEF89DF80E1001228A40491C75
S315000145208DF80E10B0FBF2F0C9B20B29686002D209
S3150001453038498842E8D23848F6F79BF837496A681D
S31500014540B1FBF0F336480021E3FB0201354A0023B3
S3150001455005F052F8A86000202870A06920F010002C
S31500014560A0610A20FFF7A6FF2F494FF4806008607B
S3150001457007B0002030BD38B500F01BF804460D46E3
S3150001458005E04FF6E85000F02AF800F00CF800219B
S315000145908D424FF6E950F4D88442F2D2A0B200F02F
S315000145A01EF8002032BD21484FF0FF3124184D413D
S315000145B0704714491A4A49680023E0FB0123104653
S315000145C01946184A002305F017B819480168C906A3
S315000145D004D51021816001200A4908707047010045
S315000145E081B00BD013490A6892B20B68ADF800305E
S315000145F0BDF800309B1A9BB28342F6D301B07047D7
S3150001460080E200E04C7000200002040000800140BE
S315000146104041050081841E005000020000B0710B6C
S3150001462020A1070040420F0000E100E01802FFFF51
S315000146300C800140248001400100000000000000C0
S3150001464000000000000000000020704700207047B5
S31500014650002070470020704728B142F21071018096
S3150001466041808180C1800020704738B51446F9F732
S315000146705FFA05466CB128000BD00C48007818B1DA
S315000146800B490120087004E0002200212846F7F7B3
S315000146904FFB284632BD7047704770470548007882
S315000146A0704704490870704700000000EE7600204C
S315000146B0EF760020B57F002000207047002070476C
S315000146C080B5DFF83419096A05280BD8DFE800F050
S315000146D00306060808086FF0004002BD086902BD1E
S315000146E0C86802BDC82100F0E7F8002002BDDFF866
S315000146F00819096A0A698B688242B4BF012200223D
S3150001470083424B68C968B8BF921C8342B8BF121D69
S315000147108142B8BF0832501CC0B2704770B5DFF88D
S31500014720D848256A002D1ABF607A0028002606D0CF
S315000147306869A17A40188130FFF7D9FF0646207AC9
S31500014740B04214D001206074002D1ABF95F86400A0
S31500014750401EFCF7C6FA227A617A3346C0B2F7F7F1
S31500014760CDFA0021617426720628B8BF6072FCF783
S3150001477089FD90B1206AA17A40694018C51D607A09
S31500014780FFF79EFFA842B4BF01250025217B2846DD
S31500014790884202D0FDF73CF9257370BD2DE9F84F2B
S315000147A0DFF8544894F80BA00546BAF1000F1CBF78
S315000147B00020E072206A894610B96FF0004079E066
S315000147C0F6F7D5FCDFF83418DFF8343809784843B2
S315000147D0DFF82C18B0FBF1F001FB00F8206A8169C3
S315000147E0A8EB0102B2FBF3F2B8FBF3F34FF00D0CA9
S315000147F0B3FBFCFC4FF00D0E0EFB1C360D2AF6B278
S3150001480006D30021416134221C30F0F7E2FE22E09A
S315000148100AB3DFF8EC67B1FBF6F10D26B1FBF6F64C
S315000148200EFB1616761CF6B20D2E08BF002600EBFF
S3150001483086014769D1F81CB0A7EB0B074761002732
S31500014840521ECF61EED10EFB1C30864203D040F2E0
S31500014850331100F031F8A07A012D02DB801C4519D5
S3150001486003E0002D44BF281A851EF5F719FD677B65
S3150001487000216173F5F71AFDA07AC01D10FB0750E0
S31500014880A0EB0A05206A41696918416100EB8601BE
S31500014890CA69AA18CA61C0F81880FFF73FFFB9F1C3
S315000148A0060F08BF94F809904846FFF709FF216AE9
S315000148B04969401ABDE8F28F0FF28470F1F760BBC7
S315000148C02DE9F0410746FCF70CFA8046DFF8284748
S315000148D004F1380504F13806002095F864104A1EE3
S315000148E0424517D0002804BF00292846A969B269A4
S315000148F0914238BF2E464FF48471683521448D426A
S31500014900EBD308B1054605E0682200213046F0F7F1
S3150001491060FE354605F1500617B9307D00285DD198
S3150001492031464046FCF753FA002851D108F10100FF
S315000149303075608808B996206080DFF8C026B17BA3
S315000149405278DFF8C0065143B0FBF1F02860E088E9
S31500014950010008D1307808B9012030702868317813
S3150001496090FBF1F001E000F045F8E860A088010055
S3150001497008D1707808B9012070702868717890FBA9
S31500014980F1F001E000F036F8E9688142C8BF01465E
S315000149906960208801000BD1B0780A2110FB01F073
S315000149A081B201B90120296880B291FBF0F001E0E2
S315000149B000F020F8286142F21071286890FBF1F0AE
S315000149C061884843E9688142C8BF0146A96008E099
S315000149D00020A0722062BDE8F0419FE6206AA8424D
S315000149E006D0F07B2562A0720021BDE8F041E8E225
S315000149F0BDE8F081296842F2107291FBF2F1484359
S31500014A007047F8B507460D460020FFF759FF2C46BB
S31500014A10DFF8E465306A062C08BF747A002818BFEF
S31500014A20002C20D03978B27AB0F85C0051188F1C6E
S31500014A30010001D0B8420ADB29460020FFF7AEFE8D
S31500014A40B84207DA1DB940F2D911FFF735FF6FF009
S31500014A500040F2BD306A50F8541F062D08BF747A23
S31500014A6009B1052C01DA0020F2BD80880C1A01205B
S31500014A70FCF727FA4FF47A71DFF88C2501FB042144
S31500014A80DFF88825B1FBF2F10C18F6F770FBDFF8B9
S31500014A906C251278611C02FB1010F2BDDFF870154F
S31500014AA00978002904BF0022F7F74DB9DFF864152C
S31500014AB0012008707047DFF8600505F015B9DFF8C9
S31500014AC038250121D173DFF85415096819B9DFF8C2
S31500014AD05015896809680A46097E52694843DFF814
S31500014AE02C15B1FBF2F101FB00F2DFF838150120BC
S31500014AF003F0FFB938B50446DFF82C05007808B194
S31500014B00002032BDDFF82415607809780D18A078E9
S31500014B10ADB28542A8BF0546F8F7BFFD012194F95C
S31500014B200320A9408918DFF80825B0FBF1F301FB42
