S01200007468726561642D746573742E7333377D
S113000020DC0320CD2903000D340000D522030099
S1130010A70B0000000000000000FFFF54000000D8
S113002004180F00000000000000000000000000A1
S113003000000000000000000000000000000000BC
S11300400000000000000000000000009300000019
S11300500000000020DC0320CD2903000D34000043
S1130060D5220300A70A02020002000004180FAC04
S113007000269300000000000000000000000000C3
S1130080000000000000000000000000000000006C
S1130090000000000000000000000000FFFFFFFF60
S11300A0FFFFFFFFFFFFFFFFFFFFFFFFFFFFFFFF5C
S11300B0FFFFFFFF00E00F00000000000000000051
S11300C0FFFFFFFFFFFFFFFF1C0000000000000018
S11300D0000000000000000000000000AFFF03204B
S11300E0AFFF032020DC03202492030050310300DF
S11300F048CD03207017002000001000000000000D
S113020020DC0320CD2903000D340000D522030097
S1130210DD220300D9220300E1220300ED220300C2
S1130220ED220300ED220300ED220300ED22030082
S1130230E5220300ED220300ED2203006D280000F7
S1130240337B0000FD080100D91B0000ED220300F0
S11302500505010045090100030901000509010024
S1130260FF0801004D55020097570200F970000085
S11302708F560000ED220300ED2203003F0500002D
S1130280ED220300ED220300B5570200ED22030026
S1130290ED220300ED220300ED220300ED22030012
S11302A0ED220300ED220300ED220300ED22030002
S11302B04709010001090100797300007F09010069
S11302C0ED220300992D0300ED220300ED2203002B
S11302D0ED220300ED220300ED220300ED220300D2
S11302E0ED220300ED220300ED220300ED220300C2
S11302F0ED220300ED220300ED220300ED220300B2
S1130300ED220300ED220300ED2203006F49704A41
S113031001E021B1491E1369DB07FAD401B9B0E049
S1130320506001201060106910F0060F05D04107DD
S113033000D5A9E0800700D5A9E000207047F0B5FA
S113034013460022002936D0604C614D8BB98B4294
S113035031D250F8046BEE605B1C08262E602646F2
S113036001E036B3761E2F69FF07FAD4002EEED1D2
S11303701FE0EFF3108672B600230EE02F6907F03A
S11303801907102F08BF2F602F693F07F6D550F8C3
S1130390047BEF605B1C10272F608B42F4D306B9FB
S11303A062B6264601E026B1761E2869C007FAD453
S11303B00EB96FF002021046F0BD2DE9F0479A46DF
S11303C0444B454F1C681B683B688046002043F043
S11303D001033B60950881460C4602E0B14404EBFE
S11303E08604A94517D208EB89063046FFF78EFF2D
S11303F0010014D1C6F30A00C0F500608608A5EB1D
S11304000900B04238BF0646524631462046FFF73F
S113041096FF0100E2D03968490849003960BDE817
S1130420F0872C49294A0B6809682B490B6843F06B
S113043001030B608860012048604869400704D5C7
S113044008684008400008601EE04869800704D539
S1130450086840084000086019E00220486001E094
S113046022B1521E4869C007FAD422B9086840086C
S11304704000086005E0086840084000086000206B
S113048070476FF0020070474FF0FF3070476FF015
S113049001007047002390E70F48016841F0010113
S11304A0016046F21A31C1644FF4807141604169C0
S11304B0C907FCD44FF4007141604169C907FCD4F9
S11304C00021C1640020704700000000809698005D
S11304D00C000E4004300E4008000E40072802D2E3
S11304E03549085C7047FF207047072802D233491A
S11304F0085C7047FF20704738B50446304800EB6D
S11305008105A8780009FFF7E9FF2071A87800F0B9
S11305100F00FFF7EAFF6071FF2814BF01200020DD
S1130520E8702146E878A071287860706878254DD5
S1130530A070284600F0A3F80120A86031BD10B5D2
S1130540214984B01CC968461CC02048204A01784F
S1130550D36814682340DB072DD503292BD2184C0C
S113056012691C4B04EB8104E4781CB114B2002C16
S113057048BF002223F811200123174A147803FAF4
S113058001F121431170154A117891B100211478B9
S1130590CC40E40708D501708B40107858401070A7
S11305A06846FFF7A9FF1FBD491CC9B20329EED352
S11305B01FBD032101701FBDEC430300F44303007E
S11305C0D4E5032000200040E04303007EFF032025
S11305D038200040F8E503207FFF032083FE03203A
S11305E0890001EB401000F184400260704730B58F
S11305F0002A446BDFF834511ABF1022DFF830317F
S1130600DFF8303123400024A84237D1DFF8280135
S113061051B101290CD002291ED003290CD006297E
S113062015D0812918D023E001680468006816E019
S113063001680468006802E0416844684068090C85
S113064001F4FE41C4F303442143000C0CE081682F
S1130650806801F00F0107E041684468406801F4D4
S1130660FE4104F00F04214300F0F00040EA0104CD
S113067004FA02F0DFF8C4101843086030BD38B53E
S113068004460D460220A0600022A9782046FFF708
S1130690AEFF287969786B79020242EA016242EA84
S11306A00342EB7842EAC302EB790BB142F0005209
S11306B02B7A0BB142F00402AB790BB142F0020287
S11306C06B7A0BB142F00102AB78F32806D1180023
S11306D004D10429BCBF042060F31B6218064CBF7C
S11306E042F0E00042EA4310206115496069084085
S11306F0A9780A0644BF21F080010843297840EA1A
S11307004140E97A09B140F4804060610221AA7A4B
S11307102046FFF765FF2879F32804F13000BDE88F
S113072038400CBF01220022102159E7002000406C
S1130730FFFF00800080FFFF1082E00F34200040A4
S1130740F8BFE1FF42DE704738B504460D4600F0BD
S1130750F3FB01F05CFA01F067FA2946204601F048
S113076069FA2B4622466949012001F0FAFB294621
S11307702046BDE83440E5E765482DE9F047654D7E
S113078001682E1D4FF420687165016AB1656249E4
S11307900A68F26549683166416A7166816AB166C0
S11307A0C16AF166016B3167806B706796F834003B
S11307B040074CBFF46BB46B01F05FFC0022F264A1
S11307C08442564A014624BFA2F1200AA245274684
S11307D0316505F19003DFF848C1DFF848E118D32B
S11307E0A0693064E4697464746DC4F30804062C6D
S11307F013D1704511D360450FD200884DF6426481
S1130800A0420AD13068586040F20178706898605C
S113081003E000273764776407464348814202D2E5
S1130820014600E0091D0846904203D20C68B4F169
S1130830CD3FF7D03D49081AB0640021002005EBF4
S11308408004401C0628E167F9D3002003E0C0B20D
S113085005EB8004E167974223D252F8041D7145E9
S1130860F9D36145F7D2CC07F5D5002405EB84090B
S1130870D9F87C90894502D0641C062CF6D3062C4A
S1130880E9D1002814BF401E0520E0E7B16F002421
S113089005EB8402641CD2F88070D767052CF7D36B
S11308A019600146481EC9B20029EFD1706DC0F32A
S11308B00800032810D0042811D0052812D00628D7
S11308C013D00C2817D0122818D1194800688007B3
S11308D019D540F2025816E040F6012813E040F61C
S11308E0022810E040F603280DE0B8F5206F0AD185
S11308F040F6042807E040F6052804E018B1432830
S113090038BF40F607284046BDE8F087FC430300A3
S113091004ED00E00000002000E300E020DC032000
S113092050310300DC0400009C00002020DC032084
S11309301C20054080B5002300931346012201F0DA
S1130940F9FB01BD00F046BE00F044BE10B54C00FA
S1130950014600F01FFD224601F0CBFBA04201D06E
S1130960002010BD012010BD80B500F013FD01F082
S113097046FC00B10120C0B202BDDFF8000B407D8F
S113098000B101207047DFF8F42A117B01B97047E8
S113099080B50146106A01F088FC20B1BDE804402E
S11309A040F27111BEE201BD80B500F0F3FC01F02C
S11309B099FB00F00300032801D1012002BD0020AF
S11309C002BD80B5B0F5004F07D100F0CCFDDFF8D3
S11309D0C00A00F0C8FCBDF80000DFF8741AC88330
S11309E0002002BD2DE9F04F440900F01F05002747
S11309F0DFF8F08A00E07F1C98F80660F8B2B04295
S1130A0036D2D8F80800FFB250F827004FF0000C97
S1130A1001E00CF1010CC67E5FFA8CFEB645EAD209
S1130A20D0F81CE05FFA8CFC142616FB0CF6B644D6
S1130A309EF8086006F00706A642EAD19EF809600F
S1130A40B542E6DB9EF801B09EF8009006EB0B0A77
S1130A50AAEB090AAA45DCDB11B1AC1B4C440C70AF
S1130A6012B19EF8081011701BB1C3F800E000E049
S1130A700020BDE8F08F400918BF40F0180070470F
S1130A8010B5DFF8844A206A01F0B9FB0246206AF7
S1130A90BDE81040002101F0CEBB0B38102834BF54
S1130AA0DFF8440ADFF8640A006870473EB5684618
S1130AB00021002200230EC0DFF8940901788DF88C
S1130AC00010817A0A0018BF022914D10079DFF8D6
S1130AD0385A00F0BBF8044600F00EF858B1286A02
S1130AE00122002101F000FB00F006F818B140F2E9
S1130AF05B2100F066FB37BD286A6A46214601F097
S1130B0032BB2DE9F041044604F01F001B2886B0D7
S1130B1034D2002000906B46002200212046FFF7CB
S1130B2061FF07002AD02046FFF7B7FF5FEA0008FD
S1130B3024D0DFF84869DFF8B459F06B804515D04C
S1130B4001A84146062201F00BFC306AC6F83C803D
S1130B5001A901F0F1FB88B9306A03A901F0FAFB9D
S1130B60B5F91C10306A01F0C2FB38B90098B062C4
S1130B7077620098002818BFC06801E08A200EE060
S1130B80F06229798C421CBF2C71FFF78FFF96F914
S1130B900D00C101306A09B201F0D2FD002006B097
S1130BA0BDE8F081DFF8440900797047DFF83C09BB
S1130BB0B0F91C00002854BF05216FF00401081887
S1130BC00A2190FBF1F040B270470A2110FB01F0BA
S1130BD0FFE7F8B500F5D77240F277239A4201D3C4
S1130BE08B20F2BDDFF89448DFF80059A26A0A238B
S1130BF0002A1EBFAE7F06F0C006802E12D0A67B50
S1130C0086B992F9026016FB03F7B842B8BF16FB27
S1130C1003F007DB92F9032012FB03F68642B8BF08
S1130C2012FB03F0217B61B10146206A01F05FFBF6
S1130C3018B140F2B92100F0C4FA206A01F06AFB4D
S1130C4001E010FB03F0A8830020F2BD38B5044690
S1130C50FFF723FF90B10023002200212046FFF775
S1130C60C1FE58B104F01F051B2D07D22046FFF723
S1130C7002FF18B90B2D01DB284632BDFF2032BD1F
S1130C807047C0B2704710F1630F01DA002070475B
S1130C9010F1240F01DBFF20704764300002411182
S1130CA000EB91608004000E704770B5DFF8CC470C
S1130CB0DFF8085A00202064687828B101F044FD68
S1130CC0012818BF032801D1002070BDE16ADFF8B4
S1130CD0343ADFF8182800291FBFA66A3669002EA7
S1130CE0022817D12364906900F5FA709061E07CC2
S1130CF018B100200021642203E0E87829794FF438
S1130D00A0722070A2806170A878A0708020E0801A
S1130D10002030E0DFF8F0599069AE4213D1DFF8DB
S1130D20EC39236400F57A709061E07C88B9087925
S1130D30207001228B7808799A40101891F90320C9
S1130D401018401E0CE0236400F5FA709061E07CFA
S1130D5018B100202080642005E04878207088784D
S1130D60607008780001A0804879A07008890001AB
S1130D70E080C8880001A06000F0FBFBE07094F9FB
S1130D800200010048BF4042C0B270BD70B50446C5
S1130D90DFF8E866257896F9140008B18C2070BD58
S1130DA0FFF783FFB075DFF81429DFF840074178B7
S1130DB00174690101F5807181619379716C002B73
S1130DC0B37B1DBFAD1EEDB221F0020141F0020163
S1130DD073B9127862B16278920609D56FF0010294
S1130DE0327541F00101826902F50872826104E002
S1130DF049084FF0FF30490030757164032000F05A
S1130E0001F96A1C306A4FF4807392B2214601F0F2
S1130E10C3FC691C884203DA40F21B4100F0D1F99B
S1130E20002070BD00000000F8B5DFF8505695F9B9
S1130E3014100024091D04290FD8DFE801F0080E5E
S1130E4010100300FFF7A2FF040008D0F2BD2C75B8
S1130E50286A01F04DF98D20F2BD8C20F2BD01F01D
S1130E60B7FCE8B1286CDFF89C18884218D1A87D3B
S1130E70B0B1DFF8440A0068002811D5DFF83C0A55
S1130E80C168C1600122006800F00F0002FA00F09E
S1130E90401E014204D100F0B3FB642001F09AFC2F
S1130EA001F0B2FC064695F9140010F1010F1CBFC5
S1130EB095F9140010F1020F29D195F91400DFF807
S1130EC02C764042287501F0A5FC7862296C3879AB
S1130ED049B9FFF7BBFE01466A6C286A07F11003A3
S1130EE001F038F90BE0FFF7B1FE07F110010091B2
S1130EF001466A6C286AD5F840C02B46E04760B1C9
S1130F00002028758C244FF0FF30786202E0002026
S1130F1028758D24286A01F0EBF8304601F0B1FC05
S1130F202046F2BDDFF8140AFFF70EBC2046BDE8E8
S1130F30104001F0A6BC0000F8B501F065FCDFF834
S1130F4010550446A87A012803D1204601F099FCE3
S1130F50F1BDDFF8EC19DFF82465DFF8E079402013
S1130F6008600122306A012101F0BEF8DFF8D419CB
S1130F704FF40010086069460FF284000068009086
S1130F80306A01F0D1FB18B140F2C74100F006FE0F
S1130F9002208DF800006946306A01F0A2FB18B106
S1130FA040F2C94100F0FAFD306A01F0BFF80021B7
S1130FB0002001F069FC00F00DFB0120A87296F9F5
S1130FC01400001D072810D8DFE800F0130F0707EE
S1130FD0040B0B0B01F0EBFC0BE06FF0030030751E
S1130FE007E0892000F041FB03E040F2ED4100F00E
S1130FF0D5FD204601F045FC01F076FDF1BD000071
S1131000040100002DE9F04DDFF844540446A87AA9
S1131010A04282B063D00FF2CC01DFF82C690968DA
S1131020DFF81889DFF85474DFF818A90091032851
S11310304FF4001B4FD8DFE800F047023E2B01F0CD
S11310405CFD386A694601F06FFB18B140F20A5141
S113105000F04AF802208DF800006946386A01F071
S113106040FB18B140F20C5100F03EF868790028BA
S113107014BF00220222386A022101F093FD18B144
S113108040F2115100F030F80320032CA87218D05C
S1131090CAF800B00220A8722879FFF7D7FD0146EC
S11310A0386A002201F05FF818B140F2215100F0D3
S11310B01BF8022C13D0002C18BF032C0FD10020D6
S11310C0A872C6F800B00AE0022C08D1CAF800B031
S11310D00220A87203E040F2375100F005F8BDE8A1
S11310E0F38D0000040200004046FFF72DBB000012
S11310F010B5032804460ED8DFE800F009020909F8
S1131100FFF71AFFBDE81040002000F0C7BB012024
S113111000F0C4FBE1E1BDE8104040F2555101E7A5
S113112080B500F00FF804D500210175006A00F0C5
S1131130DFFFDFF8340A407A012802D1BDE801401C
S1131140FAE601BDDFF8240A90F91410002970476B
S1131150DFF8140A407A704780B5032801DB0120C8
S113116002BDDFF8041A4872897A884218BFFFF773
S1131170BFFF002002BD2DE97C4FDFF8F06903EAD0
S1131180010BD6E9068929EA010528EA000402EAE6
S1131190000A45EA0B0544EA0A044D4508BF4445E4
S11311A00DD0CDE900230246306A0B4601F0BEFAA9
S11311B018B140F27D5100F004F8C6E90645BDE8D7
S11311C0738F0FF6E010FFF7BFBA38B5AB4D044686
S11311D0287BE8B1200018BFDFF8942904D1A87C4B
S11311E008B1402200E000220023DFF88409002136
S11311F0FFF7C1FF002C14BF08220022286A08212F
S113120001F0D0FC20B1BDE8344040F2B95189E688
S113121031BDF8B50446022C0FF6881503DB40F205
S1131220E25100F0A5F8954E307B002840F09780FD
S1131230874FB87A012803D04FF4BD6100F098F8C5
S1131240002107F1280000F03DFF306218B940F298
S1131250EB5100F08DF8306A052101F000F918B166
S113126040F2EE5100F084F8306A0FF64C1101F0B0
S1131270ABFC18B140F2EF5100F07AF8306A01F09B
S1131280D7FC18B14FF4BE6100F072F84FF0FF3094
S1131290DFF8E02806230146FFF76DFF306A4FF0C0
S11312A0011100F0DAFF18B140F2056100F060F8B6
S11312B0306A4FF48032002100F0BDFF306A092209
S11312C04FF0FF3101F06EFC18B140F20C6100F0F8
S11312D04FF8012030730223DFF89C0800F043F834
S11312E0BDF80000C0054CBF0020BDF800007073BD
S11312F001F06EFAFFF769FFF88BFFF762FB01F06C
S113130017FD00F081F83879FFF7FBFB18B140F2C4
S11313101F6100F02DF8F87900F040F8387A00F0F9
S113132054F8307C00F082F8787900F0C7F800F0C7
S113133020F900F0EDF8B07C00F0ECFAB7F91C00ED
S1131340FFF747FC388C00F085F8788C00F0A2F8A1
S1131350B87900F0CDF8601E8041C00FB872204605
S1131360FFF7C6FEF1BD01887F22684601F054BD37
S11313702846FFF7E9B980B500F00CF8012100F028
S1131380F5FE10F5007F02D16FF07F0002BD8005ED
S1131390001602BDDFF8D407006A704710B5044692
S11313A03648017B51B1611E8941006AC90F01F0C1
S11313B091FC18B140F25A61FFF703FF2000DFF8F7
S11313C0A81718BF0120C87110BDF8B5044601F074
S11313D01BFA05461E48294E0472377BFFF7CDFAE7
S11313E000F0010080F00100074204D0306A84F06C
S11313F0010101F0D4FD2846BDE8F24001F041BAF4
S1131400DFF86407007A70471C48017B01B9704714
S113141080B5006ADFF86417002201F048FC20B1AF
S1131420BDE8044040F285617CE501BDDFF83C275E
S1131430117B107401B9704780B50146106A01F040
S11314403DFC20B1BDE804404FF4D2616AE501BD22
S1131450F0DF03202549DFF814370884197B01B92C
S1131460704780B50146186A002201F019FC20B1CA
S1131470BDE8044040F2A16154E501BD48E5032004
S1131480DFF8E406008C7047DFF8DC06408C704718
S1131490E48B03001549DFF8D4364884197B01B97D
S11314A0704780B50146186A002201F0F2FB20B1B2
S11314B0BDE8044040F2B76134E501BDDFF8A81689
S11314C04A79824200D1704710B58C7A4871012C58
S11314D002D0FFF731FD00E010BD2046BDE810400A
S11314E090E500009887030060DF0320F0DF03200D
S11314F010B50446FFF74EFF214601F056FDDFF814
S11315006806847110BD000048E5032064DF0320F1
S113151038B504467F2C0CD100F025F8DFF86006BE
S1131520FFF721FFBDF800007E24C00558BFBDF8B9
S1131530004001F069F90546FFF71FFA60B960B28F
S11315407E2805D1DFF82416896A09B191F90400CF
S11315507E28B8BFFFF717FADFF80C060473284695
S113156001F08FF931BD4FF6FF70ADF80000022392
S11315707047DFF8F40590F90C007E2807D1DFF8F6
S1131580EC05806A08B97F20704790F90400704721
S113159010B501F00DFD80041AD500F02BF801F010
S11315A007FDC0044CBF03200120002101F002FD0F
S11315B001F0FEFC00F0FF004FF47A7111FB00F122
S11315C004F14800BDE81040DFF8B825FFF7B2B9D0
S11315D0BDE8104010B500F00DF804F1480000F02B
S11315E0B2FDFFF7E1F920B9BDE81040002101F098
S11315F0E1BC10BDDFF8744504F1600000F0A3BD48
S113160080B501F0D5FC4005BDE804404CBF032083
S11316100120002101F038B910B5DFF8504594F9E4
S1131620140003280DD100F030F9DFF83C154FF019
S1131630FF3048620022216BBDE81040402001F0D9
S11316405AB910BD38B50446FFF7C4FFDFF81C557E
S113165001F0F1F8686314B101F08FF801E00020A3
S11316606874BDE8314001F0A2B938B50446DFF82A
S1131670F814DFF8F8544FF0FF30486201F0DBF85B
S1131680686395F91400012802DABDE831407FE768
S1131690A87D08B1686BA86300202875286A00F04B
S11316A027FDA87B10B10120E87331BD2046BDE8B9
S11316B038400022002101F01EB900007CE1032023
S11316C010B501F085F8DFF8A44498B1FFF76CF980
S11316D080B104F1480000F036FD01F06DFC0021FA
S11316E001F068FCDFF8A02442F2107104F16000FC
S11316F0FFF720F9A07C18B1BDE8104000F06BBAE8
S113170010BD00005B210000D41B0000612100001B
S11317102DE9F043DFF854440FF28849206A89B078
S113172005AA022101F03BF8050003D140F6E701C8
S113173000F0A8F89DF81400DFF82C64BDF81680BA
S113174007281CBF7079002819D1B8F1060F16DBE1
S113175008F108008B2812D2002000904346DFF8DD
S11317602C74206A3A46294601F021F8404503D0FA
S11317704FF4106100F086F83878000602D5FFF7C0
S113178007FF7CE001208DF80800CDF804806A464C
S1131790206A294601F007F818B140F6171100F045
S11317A071F8787800F0070002281ED1FFF712FFC5
S11317B094F91400032808BFB8F1060F11D19DF85D
S11317C00D0070B17878000900F0010500F05DF8B3
S11317D04FF0FF3070622A4600218F2001F08BF811
S11317E04DE0F07900284AD105E09DF80D0010B1D4
S11317F00020FFF711FFF0799DF80D10084203D087
S113180040F63F1100F03EF8F07958B17878800640
S113181008D5307A30B1206A01F0C4FB30B1FFF74B
S1131820B7FE03E0FFF7D6FE002060743878401C52
S1131830404503D040F65F1100F024F807EB08059B
S113184030792870002068709DF80E00A87095F912
S11318500200FFF718FAE87008F10801FF20287168
S1131860C9B20098000C68710098000AA871009829
S1131870E8713846627C01F0A1FB0020607409B075
S1131880BDE8F0834846FEF75FBF00202075206A5C
S113189000F02EBC0FF21430FEF756BFDFF8C8126A
S11318A0897A012907D1DFF8E8120B7898421CBF26
S11318B0087001F024B97047044008404C500840B7
S11318C010B5DFF8A402446A002C14D400F0A2FF7F
S11318D0001B40F2E93180B288420CD3A34890F94E
S11318E01400032803D1BDE81040002094E6BDE8AD
S11318F010408920B9E610BD10B540B900F03EFF94
S113190000F082FF0446FFF7DBFFFFF70FBBBDE8E3
S11319101040D5E738B5954D0446287B60B12000CA
S113192002D100F055FF08B1402200E0002200235C
S113193040200021FFF71FFCAC7431BDA41B000044
S11319400840084018600846186008442DE9F0472C
S113195080461446600688B01D4648BF002002D465
S1131960200602D50120FFF7ABFEA0037F4E2DD544
S1131970002070746946404601F0C1F930BB9DF8FF
S11319800800844F02280DD1BDF8000001F06AFC64
S1131990FF2815D0396831F810004FF45671084209
S11319A00ED113E0032811D1684601F07AFCFF2818
S11319B006D0396831F810004FF45671084205D04A
S11319C0306A01F099F908B901207074600410D5E7
S11319D000F0FEFE68B1FEF7E7FF50B101F098FC9D
S11319E0074601F0E9FA874203D00021384601F0A6
S11319F0E1FA200744BF4046FFF78AFEE00548BFEE
S1131A00FFF7C6FD4FF41850044218BFFFF7E2FD7C
S1131A10E00244BF0120FFF715FE600244BF01202D
S1131A20FFF710FEE00144BF0020FFF70BFE96F91C
S1131A3014000FF27017012869DB306ADFF828916F
S1131A4021034FF0FF3A33D596F9141001295EDBD8
S1131A5096F9141003295ADA00218DF8181001217F
S1131A608DF8141003A900F078FC0398306300F09B
S1131A70E2FE7063B07D08B1706BB06396F9140038
S1131A80012804D002280ED1032030753FE0002045
S1131A903075306A00F02CFBC9F824A0B07BA8B9DB
S1131AA0316B002218E04FF4016100F077F82EE06A
S1131AB014F0845F13D00021317500F019FB042069
S1131AC000F05DFEC9F824A0B07B10B10120F073D2
S1131AD01DE0002200218D2000F00DFF17E0A00280
S1131AE048BF892002D4A00103D58820FFF7BDFD9B
S1131AF00DE0600048BFFFF783FDA00007D526482E
S1131B000068400403D40021002000F0BDFEA007BB
S1131B1044BF4046FFF780FD002C04D5FFF75AFD73
S1131B204046FFF779FD05F002010023994211D0E8
S1131B30404600F0D5FA022802D0032802D005E07E
S1131B40892000E08D20FFF790FD03E040F67B0143
S1131B5000F024F805F004010023994218BF01F0B5
S1131B6049FC08B0BDE8F087F0DF032048E5032016
S1131B70406700600A00FA93E68B030040F70320F5
S1131B80E88B0300450900004909000010F6032012
S1131B9091FF03202CDF0320044008403846FEF761
S1131BA0D3BD00007068792E630000006C69627216
S1131BB061696C2E610000000000000001006003F8
S1131BC0010101016400B6006400C00000000000CF
S1131BD00B0000000000704701F018BC80B5012123
S1131BE00C4801F0D9FC0421072002F0A7F80A48A8
S1131BF00A490B4A01600421116002214162042157
S1131C00084A1160816A41F00201816201BD024803
S1131C1002F0D6B8002508000020054001080300A2
S1131C2080E200E000E100E0602080F3118870476A
S1131C3002F09CB903460A4699A10420FFE70CB4BC
S1131C4080B502AA00F055F801BC5DF80CFB00B5A4
S1131C5089B000F073FF002107910691059104916A
S1131C6003910291019102468E49009100230FF2E3
S1131C7048210120FFF7E3FF8B48C17843780278BD
S1131C8003918168029181880191817800914320B8
S1131C900FF23021FFF7D3FF09B000BD834908706C
S1131CA070470EB410B5044680480078A1B080B1E6
S1131CB002F0E6F868B180226946022000F0B5F827
S1131CC023AB224600210FF2791002F0C2F900F092
S1131CD0DBF821B010BC5DF810FB0C220021744825
S1131CE002F035BB724931F81020521C21F8102043
S1131CF070472DE9F04107466C480078A2B00C46C5
S1131D009046002690B9380018BF012F0ED0042F3A
S1131D1018BF052F0AD0312F18BF332F06D0372F05
S1131D201EBF3B2F4FF6FF718F4275D102F0A8F80A
S1131D30002871D0802202A9384600F076F8002CE1
S1131D4068D007E08DF80400012201A9002000F00A
S1131D5077F8641C207801005CD0A0F130020A2AD4
S1131D6005D20A2101FB0600A0F13006F1E7422862
S1131D7018BF44280CD0462827D0572808D06228FA
S1131D8036D0662821D06C281CD070281DD0D9E705
S1131D90422807D158F8042B6946012002F001FBC0
S1131DA001220DE0572858F8042B694604D101207C
S1131DB002F0F7FA022203E0012002F0F2FA042210
S1131DC06946C3E758F8046BC3E758F8041B462870
S1131DD007D10026885D00281EBF761CF6B2FF2EB0
S1131DE0F8D1F2B2002000F02BF898B90026B0E741
S1131DF058F8047BB8B20028ABD002F050FF054677
S1131E00B8B202F034FF0146EAB2002000F018F83C
S1131E1000289ED000F038F822B0BDE8F0811228E6
S1131E2004BF002003F043BC704710B5214C61602F
S1131E3001462270606802F029F8607010BD00004D
S1131E40F8B515000C461B4E1CD0707831787368B9
S1131E500F1AFFB2EDB2BD42B8BF2F463A46214633
S1131E60184402F012FA707838187070ED1B3C4474
S1131E70E8B238B17068711C02F06BF80028E4D045
S1131E800120F2BD0020F2BD10B50A4C6068611C4F
S1131E9002F05FF808B1012010BD607010BD0000B1
S1131EA05746000040F70320FC53030092FF032031
S1131EB09CF60320A8F60320424238704242424274
S1131EC05742420042424257444200002DE9F04149
S1131ED00125012818BF202894B004460F469046D7
S1131EE01E4623D10AA82549242200F049FA68464F
S1131EF00AA9242200F044FA1020012C18BF202C37
S1131F00ADF82400ADF8260008D0022C18BF212C0F
S1131F1004D0032C1CBF222C232C14D1012E019796
S1131F20ADF80C8004D14FF4805005E001200BE0A3
S1131F30022E03D14FF44050ADF80A006946204602
S1131F4003F0D8FB0546E8B214B0BDE8F08180B5D3
S1131F5003F073FCC0B202BD80B503F06BFDC0B2E8
S1131F6002BD0CB480B50A46014602AB044802F037
S1131F7070F802BC00205DF80CFB0000505D03000B
S1131F80CF5900007047000010B50446FFF74CFE1F
S1131F90200A00283E4808BF24024FF20F010480A3
S1131FA04180BFF35F8FBFF34F8F3A483A4A0168CD
S1131FB001F4E06111430160BFF34F8F00BFFDE7FF
S1131FC080B5002000F009F830B9BDE80440E321F1
S1131FD00FF2DC00FEF7B8BB01BD2DE9F0422F4C37
S1131FE0216842428D1815F01F0108D0002802D440
S1131FF04842054403E04842284400F120052848AB
S1132000A5F12006A84224BF2648864203D3EFF355
S11320100880854201D300202DE000F0F5FB8146C5
S11320202148006810F0010718BF03F088FD2068FC
S113203001468D4206D2A84224BFCD2100F80119E1
S1132040F9D206E02038002201E000F8012B884292
S1132050FBD32560304603F079FDE22001E006F869
S1132060010BAE42FBD30FB103F046FD484600F02E
S113207008FC20682038BDE8F082084800687047F2
S11320800648006820387047084870470000000080
S1132090000000200CED00E00400FA053CE1032000
S11320A048CD03207017002094ED00E000000020CC
S11320B06D6963726F2D696E7465726E616C2E63E7
S11320C00000000038B50446214804600D4620464F
S11320D000F0B8F929462046BDE8344000F07EB946
S11320E00120704703F08FBF0846114600F0CBB9BA
S11320F070470846114604F03BBE0220704700209A
S1132100704700207047012070470020704710B5C9
S11321100C4611461A46034620460D4C6468246852
S1132120A04710BD0A484068406800470848406816
S11321308068004710B582B0049C0094044C646825
S11321406469A04716BD02494968896908470000C7
S113215004E303200C3000F099B80C3000F0A8B868
S11321600C3000F0B7B80C3000F01FBD0C3004F098
S113217065BE0000D7630000496400005564000098
S1132180796400008D640000FB200000FF20000043
S113219003210000072100000B21000001207047EB
S11321A038B500F01BF800212561E160BDE832403C
S11321B004F047BE38B500F011F82169E2682940FF
S11321C00D0018BF01251143E16004F03AFE15B17A
S11321D00020042134BD0020002134BD04460D46F6
S11321E004F032BE38B5FFF7F9FF2269E1682A40EE
S11321F021EA0205E56004F024FE284632BD806928
S1132200704770B582B005460C0006BF0FF25C0043
S1132210006820681646009006B9EE6831462846E4
S1132220FFF7E0FF32466946284604F032F90CB164
S11322300098206073BDF8B500F10C070C461546F4
S11322403846FFF7ABFF022628B12A462146384616
S1132250FFF7D7FF00263046F2BD80B50C3001F001
S11322600111FFF79DFF002002BD0000FFFFFFFFEB
S113227038B504460D4603F0FBFE08B9022032BD12
S1132280A9B22046BDE8344000F023B938B504466D
S1132290154689B2FFF7ECFF010005D12946204617
S11322A0BDE8344003F007BF32BD0C3003F0DFBF9C
S11322B070B500F00AF8010006D1324629462046DE
S11322C0BDE8704003F03FBF70BD044615461E468E
S11322D089B2CDE770B5FFF7F8FF010006D13246A9
S11322E029462046BDE8704003F0EEBE70BD7CB5C3
S11322F00D466946044600F02DF89DF800102A4664
S1132300204604F0A5FD04F10C060146304604F015
S113231033F976BD30B583B06946044600F01AF847
S113232004F10C05284604F05DF902469DF80010FE
S1132330204604F0F5FD3EBD38B50C4600F10C0511
S11323400021284604F018F921462846BDE8344007
S113235004F005B90C3004F03FB90C3003F0F5BCBF
S113236062B38B0708D0521E11F8013B00F8013B01
S113237000F024808B07F6D1830740F0208000BF53
S1132380103A07D330B4B1E83810103AA0E8381046
S1132390F9D230BC530724BFB1E80810A0E80810F4
S11323A044BF51F8043B40F8043BD20724BF31F842
S11323B0022B20F8022B44BF0B7803707047083AB5
S11323C007D3B1E80810083A40F8043B40F804CBBE
S11323D0F7D25307E4E700000120704710B5044624
S11323E003F0EAFC08B1002010BD204610BD70B512
S11323F00D00044614BF012600261F21304604F0B8
S1132400E3FD0020606225621F21304604F0DCFDFC
S11324104FF6FF76002001E0401CC0B2E968884214
S113242009D2A968182212FB00F21144C989B142E9
S1132430F2DA0E00F0D13146204600F04AF8304678
S113244070BD704710B5044603F061FDA06A010039
S1132450DFF8301208BFDFF83002886010BD38B5ED
S113246000F10C050C462846FFF7B6FF28B103F02F
S1132470CAFD012801D0022032BD21462846BDE80C
S1132480344003F096BD10B50C4603F0A7FD1CB113
S113249003F0B9FD0128FBD110BDF0B504467B481B
S11324A0066883B00D466946204604F095F8B5F9F0
S11324B01220012747F6FF702479824207D09DF845
S11324C00010304604F0C4FCA04238BF0027384650
S11324D0FEBD2DE9F04F85B04FF000098DF8019055
S11324E00446684F8DF800900D463868D7F804A06C
S11324F00290CDF804A0204600F0C1F88046266A78
S1132500D4F824B000F0EBF8002818BFD34505D167
S1132510BBF1000F02D0A8B240454BD0002E1CBF27
S1132520B068002801D0F06808B903209CE0CA46CE
S113253001E00AF1010AF068824518D2B068182156
S113254001FB0AF10144A8B2CA89904222BF088A59
S1132550AAB29042EDD301208DF800008B462046AC
S1132560FFF79BFF0028E4D001208DF8010003A9A8
S1132570204604F031F8204604F034F882469DF8F1
S11325800100C0B1217900F073F8386860B3B0423B
S113259023D17A680AB35A451FD1A9B2884506D017
S11325A00023204604F020F85FEA000912D1C4F8A1
S11325B024B0658057E09DF8000048B1BBF91220B3
S11325C09DF80C10A4F10C0004F042FC0146DAE77B
S11325D0012049E000F04BF83FE0016821B1326886
S11325E0914208BF416800D0316800F045F8814647
S11325F05FEA090004D1DBF8001000F03DF88146E1
S11326005FEA09000FD100F06AF810B13E60C7F824
S113261004B0C4F824B0658001235A46A9B2204608
S113262003F0E2FF81465FEA090005D1BA68594622
S1132630A4F10C00904716E000F051F898B102980C
S1132640386001987860386808B100F014F800F038
S11326500EF8786838B100F00EF87A680023414625
S1132660204603F0C1FF484605B0BDE8F08F51464F
S1132670204603F0A1BF0168204604F04FBA408809
S1132680704700000CE303204324000004E303200C
S113269001281CBF0428022801D101207047002012
S11326A0704738B500F03CF840B16878FFF7F0FFA8
S11326B020B1287869780843400701D5012032BD4C
S11326C000F00DF828B103F09EFC400701D502206C
S11326D032BD29462046BDE8344003F007BF2046FA
S11326E07AE60C30DDE738B500F01AF838B16878CE
S11326F0FFF7CEFF00281CBF6878042801D1012011
S113270032BDFFF7ECFF28B103F07DFC800701D553
S1132710022032BD29462046BDE8344003F00EBFF6
S11327200D4604462878B3E70C30DCE730B583B0B7
S11327300C30DDE90645CDE9004503F0B6FB3EBDAE
S11327400C3004F0B7B900000020704738B51446C7
S1132750FEF76AFB05466CB128000BD00A480078E6
S113276018B10A490120087004E00022002128461B
S113277000F0C1F8284632BD7047704770470449DD
S1132780087070470000000056E5032057E5032059
S1132790A2FF0320012070470C3004F020B9084642
S11327A0114604F089B80846114604F0A3B870B580
S11327B00C4615461E460C30FFF7ECFF38B1049B5F
S11327C0324629462046BDE8704003F0A9BB70BDDF
S11327D00020704704F066BC38B50A480C460188EE
S11327E04FF6FF75ADF8005002237F22684604F0CF
S11327F0E3FCBDF80000A84202D02080012032BDD5
S1132800002032BDEA8B0300EFF31180602181F3D5
S11328101188704780B504F090FD04F09BFD80B2F0
S113282002BD80B504F089FD04F094FDFA21B0FBEB
S1132830F1F080B202BD80B504F07FFDBDE8044034
S113284004F088BD80B504F0D4FB07480021416042
S1132850001D04F0FFFC20B139210FF21400FDF734
S113286073FF002002BD0000DCF6032000F008B86E
S113287073797374656D2D74696D65722E630000D0
S1132880704780F3118870470120704738B50446BB
S11328906048614D002912BF00210178491C017074
S11328A00120012100F08BFD2878411C89B203200E
S11328B000F085FD200003D000F07AFB002808D545
S11328C000F076FB40054CBF032001200021FFF7F8
S11328D0DBFF524844702846BDE8384001224FF4DB
S11328E07A71FFF733BF80B5FEF71AFCBDE80240EA
S11328F0312004F055BF38B50446402C154606D1A6
S113290000F056FB00F08020B0F1004F03D000210E
S11329100020FFF7B9FF002C3AD0402C24D0882C9B
S113292018BF892C38D08C2C38D08D2C2DD08F2CDE
S113293039D13B48007804280FD155B139490220D8
S113294008704CF25032BDE838403749002005F099
S113295001B8FEF7E5FB312021E0FEF7E1FB002D95
S11329600CBF312000201AE0FEF7DAFB05F072F804
S113297028482E4900780978884204D2BDE83440BA
S11329800021012082E7402009E0FFF7F5FE03E083
S1132990FEF7C6FB002002E0FEF7C2FB8D20BDE877
S11329A0324004F0FDBEBDE83440B42145E01D488A
S11329B00078022800D0704780B51D4800780128AF
S11329C007D0032810D11B480078022818BF7C28A0
S11329D00AD11549002004F0FCFFFEF7A1FBBDE875
S11329E00240002004F0DCBE01BD38B5FFF70CFF47
S11329F005460C480078002410B9FDF7B5FF0446DD
S1132A002846FFF73EFF1CB1BDE8314000F0F2BCA0
S1132A1031BD0000A3FF0320E2FE03207CE103207C
S1132A20F2E30320A7FF0320E7280000F5E30320D7
S1132A30A5FF0320A6FF0320E9210FF20800FDF7FC
S1132A4083BE00006D61632D7068792E6300000001
S1132A5010B54B484B4986B00068000E09D14AF6C0
S1132A60E850C862486B40F0040048630020C86224
S1132A7001E0022803D2086840F40050086002AC68
S1132A804148016821F4401141F4881101603F4834
S1132A90016841F48071016001203D49086004F03F
S1132AA0DBFF04F0FAFB05F0C6F83A48D0E900234E
S1132AB0CDE9002301208DF80300684605F07AF97A
S1132AC005F000FCFFF7BEFE33480FC884E80F0092
S1132AD008208DF8140002A805F000FC06B010BD13
S1132AE040F20160FFF750BA80B50021002000F0E9
S1132AF061FABDE8014005F0FFBB05F0FEBB00280C
S1132B0018BF00F008BC00F007BC80B505F037FC26
S1132B10014622480C2938BF00EB810002BD80B574
S1132B2005F031FC1E490204120E51F8221000F087
S1132B30FF0001EB800002BD0000000010B505F0AD
S1132B401EFC044605F01FFCC0B208B9012C07D1D5
S1132B50072C11D8DFE804F004100608080A0C0E4C
S1132B60002010BD092010BD022010BD032010BD9F
S1132B700B2010BD062010BD44F0800010BD0000E5
S1132B80FC81E00F64310E4020400E4000000E40F6
S1132B9010300E400C550300C4550300D4550300F7
S1132BA0145703000C3003F0C0BB38B50D4604467F
S1132BB089B2FFF78EFC010005D1A9B22046BDE819
S1132BC0344003F05FBB32BD70B50C4684B000F1F5
S1132BD00C05237E627EA17E284605F066FC6846CD
S1132BE004F10C010C22FFF7BBFB6946284604F0F4
S1132BF0C1F8211D284600F08CF9060003D12846AF
S1132C0005F08AFC0646300005D10FF21C11284657
S1132C1004F05BF80646300003D1284605F0CCFBEF
S1132C2006462168284600F006F8304604B070BD18
S1132C300C3005F0BABB70B58AB004460D46684640
S1132C400FF2C0012422FFF79BFB05B96D46002655
S1132C5001E0010005D135F81610F2B2204605F066
S1132C60DEFB010006D105EB4600F2B2C188204626
S1132C7005F0DEFB010007D105EBC60000F10C01F5
S1132C80F2B2204605F0EDFB761C032EE1DB0AB020
S1132C9070BD032ABCBF0C3005F0C1BB01207047D6
S1132CA0032ABCBF0C3005F0C3BB01207047032AC4
S1132CB0BCBF0C3005F0D5BB0120704738B500F01F
S1132CC015F828B121462846BDE8344005F0E0BB9C
S1132CD0022032BD38B500F009F828B12146284653
S1132CE0BDE8344005F0CABB022032BD00F10C053A
S1132CF00C46284605F056BB0C3005F0E5BB0846EB
S1132D0002F0EEBFFFFFFFFFFFFFFFFFFFFFFFFF2C
S1132D1000000000000000000000000000000000AF
S1132D200000000000000000000002080000000095
S1132D3010B5144C207858B91348018808237F2211
S1132D40201D00F069F8201D00F011F8012020700A
S1132D5010BD10B50B4C01460822201D01F095FA58
S1132D60201D00F004F80120207010BD074880B534
S1132D7001460822064801F088FABDE80140FEF742
S1132D8043BB000034F70320EC8B030038F7032027
S1132D9040F7032038B50C4611461A467F2908BF70
S1132DA0002141F2F0139C4218D154490B68496840
S1132DB00024D5B27DB30355641C1B0A521EE4B231
S1132DC0042CF6D3E4B2082C25D2D3B2002B1FBFB7
S1132DD00155090A521E641CF4D131BD04F4704536
S1132DE0C4F30B03B5F5805F11FB02F108BF43F098
S1132DF07E630BD0B5F5005F1CBF04F47044B4F5DA
S1132E00405F08D143F07C6343F40113C918BDE863
S1132E10384001F03ABA31BD70B51E00044615467B
S1132E201BD04BF23460814211D1092E28BF0826F1
S1132E3033467F2241F202012046FFF7ABFF3246C0
S1132E402F49204601F08AFA38B941F2F01133468D
S1132E502A462046BDE870409CE770BD2DE9F84342
S1132E6007460024F807884615466FF00F06DFF87A
S1132E70949002D5652100F049F8E80702D566214F
S1132E8000F044F807F47041B1F5805FC7F30B001C
S1132E900CD140F07E64B4F17E6F264604D3281929
S1132EA0401E1949884210D36B210CE0B1F5005F34
S1132EB018BFB1F5405F05D140F07C6444F40114BF
S1132EC0264602E0722100F021F8002706E0F05DBA
S1132ED0FF2802D07C2100F019F87F1CAF42F6D302
S1132EE06A084146204605F077FB28B14846BDE80C
S1132EF0F4438521FDF728BCBDE8F183F081E00FA0
S1132F0004550300F85403000008E00F4846FDF799
S1132F101BBC70B50D4682B00446287858B9002110
S1132F20204603F0AFFB0021204603F003FC002100
S1132F30204603F007FC2878002814BF04202879D1
S1132F4000F027F814BF287968798DF8010020462D
S1132F50FFF7C9FB06001AD12878002814BF022005
S1132F60A87900F016F814BFA879E8798DF8010063
S1132F702046FFF796FB060009D1287838B1698806
S1132F80204603F08BFB0121204603F07BFB3046F7
S1132F9076BD8DF8000069462878002870470C300B
S1132FA003F0C8BB0C3003F0D7BB084603F012BFD4
S1132FB000207047012070470020704770B5044618
S1132FC0A0480D460178164619B14188491C418034
S1132FD070BD204605F02DFB80B1FEF711FA38B123
S1132FE0A078002E14BF40F0010000F0FE00A07095
S1132FF029462046BDE870402E2200E070BD70B521
S113300004460D461646601C01F0BAF910F0070F8D
S11330101ABF41F64901884200260121002000F030
S1133020CEF92078411C89B2022000F0C8F932465A
S11330302946204601F0CEFF18B1BDE8704005F0E6
S1133040B9BD80488188491C818070BD2DE9F04F4D
S1133050A5B002F00AF87B4E814600257088A84688
S113306000B17580B188080003D00D2000F0A7F9E5
S1133070B5805FEA090042D001F0F9FD040018BFF1
S11330802578601C01F07CF910F0070F1BBF41F696
S113309049018842C3464FF02E0B484601F0FFFD1C
S11330A02018CBF100010844A0F10801082202A86D
S11330B001F0EBF802AFF878FDF7E2FD2946FDF7E1
S11330C0E0FD834697F902008DF804005E4800781D
S11330D0B0B1B068002812D004A8802106F0D8F856
S11330E06B1CCDF80080DBB20022494604A801F035
S11330F0DBFF9DF90420B368594604A898479EE075
S1133100484606F0D3F90028504D1ED00521484604
S113311002F012F882460320FEF7E4FD4C4F4D49BD
S11331200AF007003870FF20087084F801B09DF899
S11331300400A0709DF80800E070484606F089FD80
S11331400328484602D107F0C1FE6AE006F071FD8B
S113315000F00500042807D03878032804D1484635
S113316004F069FB00285CD105F058FD18B105F0A6
S113317055FD012802D13878002860D1F26810008A
S113318004D0002148469047002858D128780328C5
S113319018BF042805D0022821D12F480078C00781
S11331A01DD405F03BFD032819D1484606F009FE5D
S11331B0B0F5004F13D1484606F026FE274909888A
S11331C081420CD0484606F034FD000707D4484637
S11331D006F02FFD400632D5387801282FD1287803
S11331E0042804BF3878012809D11D495FEACA6060
S11331F081F8008003D504F0F6F94FF0010838781F
S113320020B101280AD0032804D00AE0484607F078
S113321011FA06E0484608F069FB02E0484608F067
S1133220B3FB287804280AD10D48007888F00101FE
S1133230084204D00A490020087004F0D4F925B0EB
S1133240BDE8F08FACFB032056E5032006F703200E
S1133250A5FF0320A6FF03200AF70320BAE10320F9
S1133260D7FE0320F8B5274D2E68040001D1FF20B6
S1133270F2BDFFF7C9FA244F29683A7821F81240C1
S113328036F8021BA142FBD1FFF7FBFA29683A7812
S1133290B01E401A4010C1B2914208BFFF20C0B214
S11332A0F2BD2DE9F843194C174D2668814628785C
S11332B006EBC007FFF7A8FA8046082249463846BD
S11332C000F0E3FFF88800E00836F188814202BF8D
S11332D031883A889142F7D171887A88914202BF45
S11332E0B188BA889142EFD14046FFF7CAFA206804
S11332F02A78301AC010C1B2914208BFFF20C0B270
S1133300BDE8F28330DF0320EBE3032034DF032046
S11333100020704770477047704770477047704788
S11333207047704770B5044643381E4D08D0401EA0
S1133330012809D9801E01280ED9C01F31D02AE0E6
S1133340BDE870400AF0D9B80AF0AFF820B10AF02D
S1133350D4F80028FBD170BD134E307808BB01208F
S1133360307000200AF042F9442C11D00CD3462CC2
S113337005D00DD3472C07D140F6010001E040F6FB
S11333800200FEF701FE03E0E9212846FDF7DCF91F
S11333900020307070BD2846BDE87040FB21FDF769
S11333A0D3B970BDE05D03008AFF0320002070479D
S11333B070470020704770477047704770477047E8
S11333C000207047704770477047704770477047D8
S11333D0704700207047704700207047704770475F
S11333E07047704770477047704770477047704721
S11333F070477047FDF744BB70471CB5059C0194AA
S1133400049C0094FFF7F8FF13BD00000AF05CB9B8
S1133410890001EB401000F184400260704789008C
S113342001EB401000F184400068704710B5DFF8EC
S1133430744612212046FFF7F2FF0028F9D12068D4
S1133440000C00F0030010BD0122DFF8B41510B524
S1133450884232BF0022DFF8AC15884201D21446FC
S113346000E002241021DFF8A005FFF7D1FFDFF808
S11334703806016821F0807141EA0461016010BDE1
S113348070B5DFF88825DFF824461368002304EBC1
S1133490C305CEB22D79B54203D154F833508542D9
S11334A002D25B1C052BF2D3052B0EBF032004EBC9
S11334B0C3004079116821F0407141EA0060106056
S11334C070BD38B500F013F841F6713020600AF091
S11334D040F9002105E038B500F009F841F67132F1
S11334E02260FFF7CDFF0DB10020206031BDDFF871
S11334F0C045256805B101257047C01C0F2801D2BD
S1133500000770474FF070407047000038B504461C
S1133510002500F059F9DFF87825DFF8FC1494420F
S113352008D0DFF87025944206D0DFF86C25944269
S113353004D006E0086802E0486800E0886800F00B
S11335400700401E03281BD8DFE800F002050C0822
S11335500AF030F904E00AF033F901E00AF02DF939
S113356005460DE00AF0E8F8DFF83C150968090E95
S113357001F001010122491C02FA01F1B0FBF1F54D
S1133580284632BDDFF82C154A68D20702D40A68EF
S11335900242FCD17047000070B5020A0C4602F0EA
S11335A00F020021521E092ADFF8D45614D8DFE88E
S11335B002F005141313071619131C20DFF84854DE
S11335C0C0F3043611B10846FFF7DCFF224631464A
S11335D02846BDE870401BE770BD1035F0E7303574
S11335E00121EDE738351021EAE740354FF4803109
S11335F0E6E7DFF8F856E3E770B5DFF8BC14DFF868
S113360090240E68DFF88C14DFF89C44012510F434
S1133610781075D0B0F5003F30D0B0F5802F27D0AA
S1133620B0F5002F6CD0B0F5202F2DD0B0F5402F81
S11336305ED0B0F5602F3FD0B0F5901F53D0B0F5F9
S1133640A01F2AD0B0F5B01F39D0B0F5D01F22D0BA
S1133650B0F5E01F31D0B0F5001F44D0B0F5281FFD
S113366022D0B0F5301F31D0B0F5381F4BD061E017
S11336700AF071F8E168C1F308210AE00AF06BF876
S1133680A168C1F3082104E00AF065F86169C1F397
S11336900421491C24E0104627E01046FFF736FFBA
S11336A0216A01F00F0119E01046FFF72FFF0646CB
S11336B0206AC0F30110C6403DE0084615E0084604
S11336C0FFF724FFA16AC1F3011107E00846FFF7E1
S11336D01DFFA16A090A01F00301091D05FA01F1A0
S11336E0B0FBF1F627E0DFF8B003FFF70FFF1FE0B0
S11336F0DFF8FC0500F068F807281CD0092819D168
S11337000AF029F814E0DFF8EC0500F05DF804286D
S11337100CD007280FD008280CD10AF01CF8216817
S1133720C1F30421491C01FB00F604E00AF02EF861
S1133730064600E00026304670BD0000030903F091
S11337400F0301215B1E072BDFF85C233AD8DFE867
S113375003F004060A0E10142339106800E05069BF
S1133760C0F3042070471068C0F300607047D0684D
S113377000E09068C0F308207047DFF87C35984279
S113378004D0DFF87835984204D01BE0106A00F0CA
S11337900F0013E0106A09E0DFF86435984204D0A2
S11337A0DFF86035984204D00CE0906AC0F3011051
S11337B004E0906A000A00F00300001D01FA00F022
S11337C0401E704700207047014601F00F010120A0
S11337D0491E0729DFF8342549D8DFE801F0040F32
S11337E01348202E4836506A00F0070002283AD0C9
S11337F002D3042804D01CD30520704711690FE0BC
S113380002207047516901F00701491E03292FD88E
S1133810DFE801F00F020311F2E706207047916917
S113382001F00701012904D00229E9D0042902D0BA
S11338307047032070470A207047116811F0010196
S11338400FD0012914D109207047DFF8C414096886
S113385001F03001102904D0202904D0302904D0EB
S113386070470720704704207047082070470020E5
S1133870704700002DE9F843804600260324B8F180
S1133880110F0F46A14612D1042F02D109F07EFF79
S113389008E0052F0BD1DFF87C04DFF87C14006806
S11338A0884204D306001CBF002104F03AFA08F051
S11338B00F00401E0728DFF854540ED8DFE800F04C
S11338C0043D438B406F8B79022F4D4806D0032F64
S11338D029D0042F2AD0052F2DD07CE004244FF0CA
S11338E0000901220121484600F0E8F8FFF7E9FD4C
S11338F036B11221DFF8AC01FFF791FD0028F8D1B1
S11339006C6000F07AF8FFF79FFD09F015FF04469C
S1133910FFF78CFD01462046FFF7DDFD002E5AD14E
S1133920BDE8F44374E04FF00109DAE70224A1464C
S1133930FFF78AFDD5E70124FAE705F1100404E056
S113394005F1180401E005F11404012F08D0022F39
S113395009D0032F0ED0062F13D00A2F1DD03AE022
S11339600020206037E001220121002000F0A6F8A9
S11339700220F6E701220121012000F09FF8012036
S1133980EFE709F0D9FEFFF75FFD01220221DFF81E
S1133990F002FFF73DFD0320E3E70420E1E7072FF2
S11339A002D0092F02D016E0002000E00120286098
S11339B011E0012F06D0042F16D0072F0DD0082FA9
S11339C019D008E00020DFF848130A6822F030021A
S11339D042EA00100860BDE8F183012201210420BD
S11339E000F06CF80120EEE701220121022000F032
S11339F065F80220E7E70320E5E7DFF80C03FBE5C1
S1133A000148E8010190D00300400E4004000E403C
S1133A100121002004F085B980400E4070B500F00B
S1133A203DF801220021022000F048F8217CDFF853
S1133A30F45200200229296808BF0120490840EAFD
S1133A4041002860082122782846FFF7E1FCA0887D
S1133A50617A41EAC020A860EE68207AFFF74DFD44
S1133A60E28806F07F6141EAC221A27A1143227AF8
S1133A7041EAC2110843E860A17B607B090141EA85
S1133A800030E17B0843217B40EA0140286170BD9E
S1133A9002001A0003001C00050020000446112047
S1133AA092E6000004300E4000410E4084530300AF
S1133AB040000E4040410E4028DF03202DE9F84F1E
S1133AC004288246904673D8DFE800F04E493F034D
S1133AD0440001260220012700240029DFF808926F
S1133AE0904D60D0BAF1020F02BF2868C0F30110F4
S1133AF000284FF0000B0CD18B4800682868C007E1
S1133B004FF0010B05D5286820F0300040F010007C
S1133B102860EE6300F04EF80028FBD0B8F1000FE7
S1133B2046D0394600F047F80028FAD0BAF1020F1F
S1133B303ED1BBF1000F3BD02868C0071BD5012242
S1133B402021022000F0C0F819E0042608200327F1
S1133B500224C2E71026202005270424BDE74026BE
S1133B60802007270624B8E74FF480764FF40070CE
S1133B7009270824B1E70021022000F083F802207D
S1133B8000F01CF80446012200210220FFF796FFF2
S1133B902146022000F02CF8EE63394600F00BF8C1
S1133BA00028FAD004E0E86300F004F80028FBD110
S1133BB0BDE8F18F21464846FFF731BC401E03287B
S1133BC0564912D8DFE800F0020C06080869C0F371
S1133BD008007047086800E0886800F07F007047BC
S1133BE052480068C0F30A00704700207047000084
S1133BF070B5401E0D46032805F07F01474C484E22
S1133C003DD8DFE800F0022A101DC5F308051A218B
S1133C103046FFF704FC0028F9D12069400A45EA40
S1133C204020206170BD0D4618213046FFF7F7FB98
S1133C300028F9D12068C00945EAC010206070BD91
S1133C400D4619213046FFF7EAFB0028F9D1A06898
S1133C50C00945EAC010A06070BD234800686069CF
S1133C6020F0300040F010006061C5F3C310FFF78E
S1133C7044FC216A2E4A114029430843206270BD46
S1133C80B0400E4027480268C2F30112002A18BF50
S1133C90002907D0202902D0302903D005E04FF4B1
S1133CA0000103E04FF4400100E02249C26E0A40E3
S1133CB08A42FBD1490204D5C06F800A00F001009A
S1133CC0704701207047000010B502280AD10B008C
S1133CD004D0194B4FF480645C64196012B1BDE8E0
S1133CE01040CFE7012010BD90400E4050410E40DF
S1133CF006000C0098002E006006140060162A00CE
S1133D007017160070272C000025080070400E4024
S1133D105C410E40D8DF0320012D310110400E40DC
S1133D2040410E4024400E403C300E409C400E402A
S1133D3000F8FF0FFF33E10764400E4010B51B4B42
S1133D401C6890FAA0F2B2FA82F224EA00009140D0
S1133D500843186010BD164901200860704770B50B
S1133D601448154B01680020002203EBC20453F8E9
S1133D7032506468114E366876070DD4B5F5007F6D
S1133D8018BFB5F5806F05D0B5F5006F18BFB5F550
S1133D90803F01D144F48074294202D0214208BFFB
S1133DA02843521C092AE0D370BD000000500E4085
S1133DB008500E4004500E40AC530300E841E00F9D
S1133DC00168C90707D58168890704D48168C907D0
S1133DD0FCD401214160704780B501216B48FFF795
S1133DE0DBFB6B4901200860002009F01FFD012363
S1133DF004220221052009F05BFD0120FDF74EFF9E
S1133E0000F011F8FDF769FF62490120087009F01C
S1133E1043FE012340226049604809F00BFE6049DB
S1133E200860C00F02BD10B5012201210420FFF774
S1133E3045FE5C485C4C016841F0010101600022D0
S1133E40C16841F08071C160002358495848086036
S1133E5058480260584A1360022323601523574CC4
S1133E60236000230364564B0B65564911604FF4DD
S1133E708071554A1160016841F48071016010BD80
S1133E804848006800B10120C0B27047D1220270D6
S1133E904170090A81704D490A78C270501C08703B
S1133EA0042070472DE9F84F80464D1DFEF7B2FC03
S1133EB0002782464FF6FF7B454C15E008EB0700D0
S1133EC0594610F8026C304609F0F2FD83464F461D
S1133ED039480068C00707D536480068C00503D5CF
S1133EE020680028FCD02670FFF7CAFF40B3F8B260
S1133EF0E9B2884224D2FEF78DFCA0EB0A0080B21E
S1133F00B0F5FA7F22DCF8B210B95B260127DFE7AF
S1133F1007F10109FFB2012F08BF6E1FD7D0EDB220
S1133F20E81E874208BF5E46D1D0A81E874208BF5C
S1133F304FEA1B26CBD0681E8742BFD15D26C6E759
S1133F40FFB2EDB2AF4208BF002000D00120BDE8AF
S1133F50F28F10B50C460246217800200529A4BF33
S1133F601046FFF79FFF0421217010BD00B50C48D7
S1133F70006891B04022694609F047FD20B1C2B201
S1133F8069461220FDF74BFF11B000BD0035080053
S1133F901088144281FF0320C8E80320404703002F
S1133FA024DF0320F0ED00E0F00004E0B00F00E0B7
S1133FB055CEACC5000E00E0800E00E0100004E019
S1133FC0FF0300400D000100040304E080FF032010
S1133FD0200000E070B51346104402E0A4192C70D0
S1133FE05B1EDCB24CB101F00F060909451E0A2E16
S1133FF02846B4BF30243724F0E7104470BDF0B530
S1134000002341B1002806D501232D21B0F1004F32
S1134010117018BF4042002100248D4D55F82470C2
S1134020002601E0C01B761CB842FBD2F7B20FB9E0
S11340300F0005D0DBB206F13001D1545B1C012125
S1134040641C092CEADBDBB23030D054581CC0B2FB
S1134050F0BD2DE9F24F804696B013A801901546A5
S113406003A89B4603AE002700248DF800000BE054
S1134070012405460198864205D300F0DCF80028A7
S11340804FD100F0CEF86D1C9DF800002978301A4D
S11340900A000BD0252903D014B906F8011BE9E75F
S11340A0002C14BF00246D1C29780A0000F0AF8096
S11340B0B1F1250216D00B3A092A40F28980283A38
S11340C07DD00A3A12D0521E41D0521E5FD0083A17
S11340D05DD0121F3ED0D21E3CD0921E57D0D21EAD
S11340E06DD0C7E7252006F8010BC3E7DBF8000015
S11340F002904FF0000A0BF1040000F1040BD0F819
S11341000090CA45B6D2029810F80A10022230462E
S1134110FFF760FF06460198864205D300F08BF84E
S113412000287AD100F07DF8A9F1010082453CBF56
S1134130202006F8010B0198864205D300F07BF895
S113414000286AD100F06DF80AF1010AD9E75BF89A
S1134150040BC8E75BF8049B00F067F800285CD107
S113416000F05FF84FF0000A01E00AF1010A5FFA7B
S11341708AFA19F80A000028F7D19DF85800524627
S11341804946C047002848D15744FFB272E76C291A
S11341900AD16A785BF8040B752A0EBF002101214D
S11341A0642A07D16D1C05E075295BF8040B0CBF6C
S11341B0002101213246FFF722FF36185AE75BF847
S11341C0041B0222C9B23046FFF704FF064651E73A
S11341D06A780124782A18BF582AF8D16D1C002463
S11341E0681E322904D15BF8040B042281B2EAE789
S11341F034297FF43DAF5BF8049B04224FEA194154
S11342003046FFF7E7FE04221FFA89F1DCE700F0ED
S11342100CF810B9F019C0B200E0002017B0BDE8E6
S1134220F08FF719FFB203AE704706469DF85800A9
S1134230F2B203A940479DF80000361A9DF85800D1
S1134240F2B203A9404701A112E000000D0A0000E8
S1134250205403000CB438B5044604AA00F010F846
S113426005462046FFF7EFFF284632BC5DF80CFBFD
S11342700CB480B502AA00F003F802BC5DF80CFB94
S113428080B501F03AFBC0B202BD814233D2104482
S11342901144401E491E10E011F8013900F801399B
S11342A0121F11F8013900F8013911F8013900F829
S11342B0013911F8013900F8013992B2042AEBDA14
S11342C093B2002B1EBF11F8013900F80139521EB8
S11342D0F6D1704711F8013B00F8013B121F11F8A9
S11342E0013B00F8013B11F8013B00F8013B11F8D8
S11342F0013B00F8013B92B2042AEBDA93B2002BA3
S11343001EBF11F8013B00F8013B521EF6D1704765
S113431010E011F8013B00F8013B121F11F8013BBA
S113432000F8013B11F8013B00F8013B11F8013B97
S113433000F8013B92B2042AEBDA93B2002B1EBFC1
S113434011F8013B00F8013B521EF6D170471300EF
S113435003D00A46194609F0BFBB704710B500E008
S1134360521E93B223B100F005F8F9D0181B10BD0A
S1134370002010BD10F8013B11F8014BA342704717
S11343804178007801E00178407800EB012080B2A8
S113439070470170090A417070470A0A027041703F
S11343A0704710B50023040014BF1C46C3F1030476
S11343B0E4B25B1C0A55120A042BF4DB10BD30B5C1
S11343C00024050014BF2546C4F10505EDB2641CA4
S11343D04A55120A42EA03621B0A062CF1DB30BD7D
S11343E030B54A788B78CC78097818B120461D46C8
S11343F00C4602E0154608461A4645EA002044EAFF
S1134400022141EA004030BD00B583B020B106224C
S1134410684600F02AF803E006226846FFF735FFF5
S11344209DF800209DF8010040EA02219DF8020059
S113443002069DF8030042EA00429DF8040042EAA5
S113444000229DF80500104303B000BD10B5002301
S113445000E05B1CDCB28C4205D210F8014B9442A4
S1134460F7D0002010BD012010BD10B5002304E0DA
S1134470541EE41A0C5DC4545B1C9342F8DB10BD5B
S113448010B5002480B14FF6FF7202E0944206D0CA
S1134490641CA4B2035D002BF8D1944204D17921A9
S11344A00FF2F400FCF750F9204610BD10F8012B70
S11344B011F8013B0AB19A42F8D0D01A40B27047C1
S11344C030B5994228BF1946002303E00833401C45
S11344D0521C9BB203F10804A14203DB0478157853
S11344E0AC42F3D08B420CDA007812785040C043CF
S11344F08024C0B201E064085B1C8B4201DA0442F0
S1134500F9D198B230BDF8B555052D0E02F0070764
S113451004460E462A46FFF7B8FE47B1FF20615D08
S1134520725DF840014022EA000008436055F1BD85
S113453000210FF27802002805E000F00F03D35C9D
S11345405918C9B20009F8D1084670476128A8BFB4
S1134550572107DA4128A8BF372103DA3A28B4BF24
S113456030210021401AC0B270474108400021F0B8
S1134570AA3120F0553008438108800021F0CC3165
S113458020F0333008430109000121F0F03120F01C
S11345900F30084370470000627974652D757469A3
S11345A06C69746965732E630000000000010102E8
S11345B001020203010202030203030410B5DFF83F
S11345C0D84AFDF761FD6061FDF75AFDA06160699D
S11345D0E06118B100F007F8652803DABDE810407F
S11345E09D21A3E010BD10B5DFF8AC4AA069E169D4
S11345F0884202D2AF2100F0F3FBA069E169401ABE
S11346004FF6FE71084010BDDFF88C1A4A699042DB
S113461003D3C969884200F036BD002070470028E2
S113462018BFFFF7F1BF0120704730B1DFF8681AF7
S11346304969401A4010401C80B27047010001D102
S113464000207047DFF8501A496901EB4000801ED2
S113465070474088C0F30C00C01C0004800C40006C
S1134660001D80B2704710B50446FFF7F2FF04EB5B
S11346704000DFF8241A4FF6FF7300E0801CCA697B
S1134680904202D202889A42F8D010BDDFF80C1A88
S113469008607047DFF8041A0FF28400086070475E
S11346A02DE9F843DFF8F05980462889A0B3B8F81B
S11346B00200000430D4DFF8E4490FF264012068FA
S11346C0DFF8DC9909F03CFA20B94FF4BA71484696
S11346D0FCF73AF8002701E07F1CBFB22889874223
S11346E004DB4FF4BB714846FCF72EF8286A2168B6
S11346F000EBC706306808B9316003E009F020FA1E
S11347000028E9D1B088401CB0804046FFF7A1FFE3
S1134710F18801EB4000F080BDE8F1830000000067
S1134720756E636C61696D65640000000FF680301E
S1134730FCF70AB870B50446DFF85C0980780128F4
S11347401AD12088FFF77AFF04002FD002252646CD
S11347503046FFF7A5FF708840F40040708036F8BB
S11347601500FFF76BFF060002D070880004EFD538
S11347706D1C042D1ADAEAE7022817D1FEF744F873
S113478005462088FFF75AFF06000AD07088800487
S113479003D540F2392100F023FB3088C0F30E002A
S11347A020802846BDE87040FEF76BB870BD00B5A8
S11347B0ADF5806DADB04FF49662694600F073F8C4
S11347C00DF5806D2DB000BD2DE9F84307468846F0
S11347D0FFF73FFF45007888C0F30D007880800420
S11347E022D5FEF711F804463846FFF71EFF81462E
S11347F04046FFF71AFF0646AAB239464046FFF77D
S113480044FD0020DFF8901806E001EB4002938994
S11348104B4508BF9681401C0A789042F5DB204640
S1134820BDE8F243FEF72DB8AAB239464046BDE8CA
S1134830F843FFF72ABD10B50C4601E0FFF713FF5C
S1134840A04202D241880904F8D510BD70B5DFF842
S113485048580446A878012804BF686A00281DD176
S1134860204609F094F9022818DB0021204609F0BB
S11348709EF90DE0012100F0A0FA78B93046FFF767
S1134880DDFE0088000409D43146204609F0BEF953
S113489006463000EED16C62012070BD2046FFF761
S11348A049FF002070BD2DE9F74FDFF8EC470020E9
S11348B0E080606292B0FDF7A7FF0121A1704FF084
S11348C0000AA188ADF802100021A180E1690191DC
S11348D0FDF7D7FF2089C200206A92B20021FFF7BA
S11348E036FD0DF10200FFF725FFFDF78DFF21785E
S11348F062785518FDF7C5FFEDB206E004EB4600FB
S11349000C30FFF717FF06F1010A5FFA8AF6AE4290
S1134910F4DB129848B1002501E080476D1C129821
S1134920EDB250F825000100F7D1D4F814904FF0FF
S1134930000B01250DF1080A0198814502D3BBF152
S1134940000F37D0BBF1000F06D0ABF101005FFAC6
S113495080FB5AF82B8004E04846FFF784FEC846E3
S11349608146B8F8020000F44041B1F5004FE3D1AC
S113497040F48040A8F80200022638F81600FFF739
S11349805DFE070012D0788801040FD440F4004083
S113499078803846FFF784FEBBF1100FBDBF4AF89C
S11349A02B700BF101005FFA80FB0025761C042EAE
S11349B0E3DBC1E7002DB8D0656A55B12888FFF75D
S11349C03DFE6888000447BF002060622846FFF768
S11349D0B1FE0020ADF800008246606A0025A0B355
S11349E00088002100F0E9F9ADF80000002100F092
S11349F0E4F90646BDF8000000F051F905463046DA
S1134A0000F04DF98246BDF8500050451ADB3000E5
S1134A1018D000F044F90746304600F028F9014662
S1134A2013983A46FFF731FC3046FFF707FE18B1FA
S1134A304188C1F30D0141800022606A314609F0CA
S1134A400FF902E00020ADF800006669B346B046F5
S1134A500BE03088000404D5D6F80E0008B1FEF748
S1134A60A7FC3046FFF7FFFD06460198864223D295
S1134A703046FFF7EEFD81463046FFF7D6FDBDF820
S1134A800010884206D10AEB0500C01C80104000CB
S1134A9000F1040970880004DBD55846FFF7C5FD12
S1134AA0318801F40041084330801FFA89F00BEB90
S1134AB0400B06EB4008D4E70220A0700DF1020081
S1134AC0FFF738FE6846FFF735FE129860B14FF0E5
S1134AD0000902E0804709F1010912985FFA89F997
S1134AE050F829000100F5D16769B94611E00226A2
S1134AF039F81600FFF7A2FD20B10088C0F30E00BC
S1134B0029F81600761C042EF2DB4846FFF7ABFDAD
S1134B108146C145EBD30BE00746FFF7A4FD4146B0
S1134B20FFF789FE4845F7D3019881452BD13746D5
S1134B30474549D23846FFF796FD002F0646F6D082
S1134B4078880004F3D500F088F8B84204D1788856
S1134B50C0F30D007880EAE704D201463846FFF737
S1134B6033FEE4E7019707E03046FFF77CFD41465A
S1134B70FFF761FE37460646464504D2308800F00A
S1134B806DF88642F0D337B100F067F801001CBF1E
S1134B903846FFF719FE0198B946C3E73846FFF7D0
S1134BA058FD06465846FFF740FD8146720092B212
S1134BB039465846FFF769FB002249460DF10200C9
S1134BC008F0FDFF0BEB460BFDF71EFE064617E053
S1134BD021784018401EC0B204EB400000218789B0
S1134BE08181380009D0FFF729FD00F037FA00224F
S1134BF039460DF1020008F0E2FF6078401E607053
S1134C0060780100E4D10021201D09F009F8FFF7C4
S1134C1015FD070006D1BDF80200A080C4F81CB041
S1134C200020A0703046FDF72CFE002FB6D1BDF851
S1134C30000078B10446FFF701FD07001CBF0AEB32
S1134C4005007880204600F012F813995246284453
S1134C50FFF71BFB15B0BDE8F08F3888C0F30E00DA
S1134C60ECE480B5FFF7EAFCBDE80240D7E410B5F8
S1134C70040012D0FFF7F5FF18B940F2394100F0F3
S1134C80AFF82046FFF7DAFC38B10188090402D5F1
S1134C90D0F80A0010BD083010BD002010BD10B5BA
S1134CA0010013D0FFF7CAFC0446FFF7B8FC18B99B
S1134CB040F2534100F094F844B12088000401D537
S1134CC0208910BD6088C0F30C0010BD002010BD09
S1134CD02DE9F04104460D46FFF7B0FC060040D034
S1134CE0FFF79DFC0FF2C85718B940F2664100F077
S1134CF0A0F82046FFF7D3FF80463046FFF7B3FC09
S1134D00454504462DD003DB40F26E4100F091F896
S1134D103088000448BF358123D475803046FFF7BE
S1134D2098FC06EB4005FDF76FFDDFF86C13CA69CC
S1134D30661B944204BFCD610026FDF7A2FDB6B206
S1134D40082E06DA32462846BDE8F041FF21FFF777
S1134D50FEBA082200212846FFF7F9FAA6F1080056
S1134D606880BDE8F081F8B507460C46FFF766FC9D
S1134D7006463846FFF793FF051B8442ADB21BD0AD
S1134D8003DB4FF4936100F02BF8AEB130880004DC
S1134D9006D5D6F80A0034812844C6F80A00F1BDC5
S1134DA03846FFF764FF22464119FFF76EFA2146A1
S1134DB03846BDE8F4408BE7F1BD38B50C46FFF743
S1134DC03DFC05000AD0FFF72AFC18B940F2AB41BC
S1134DD000F006F805EB4400808832BD002032BDA7
S1134DE00FF2CC40FBF7B0BCF8B50C461546FFF704
S1134DF025FC06000FF2B84714D0FFF710FC18B9D1
S1134E0040F2B64100F015F82846FFF717FCFFF70B
S1134E1006FC18B940F2B74100F00BF806EB440069
S1134E208580F1BD3846BDE8F44040F2BA41FBF755
S1134E308BBC3846FBF788BC70B504460D4600268B
S1134E4008E0FFF72CFF294686192046FFF7B5FF37
S1134E50B6B204462000F4D1304670BD38B5C01C4B
S1134E608D4C80104500A06AADB218B140F2CF411C
S1134E70FFF7B6FFA069E169411AC903B5EB114F09
S1134E8005DA690049420844A062012032BD0020CD
S1134E9032BD81490020886270472DE9F84F0446ED
S1134EA0E01C80107C4D40000027001DAE690FF20D
S1134EB0004AB4F5005F88461FFA80F904DB40F22B
S1134EC0E6415046FBF740FCFDF79EFC8346E8694B
S1134ED0A96A09B9301A03E05FEA080202D0081A85
S1134EE0461008E0701A4610B0B220B940F20C51D6
S1134EF05046FBF729FCB6B24E4515DBEF6907EBCC
S1134F004900E861A86A28B1B8F1000F04BF00EBBA
S1134F104900A86200207C80B880F880388004F1C1
S1134F2008016889081868815846FDF7AAFC1FB96A
S1134F3001211F20FEF743FA3846BDE8F24FFFF780
S1134F4074BBF8B504460D46164600210A20FFF747
S1134F50A4FF0746FFF772FB48B10681C0F80A4078
S1134F60018841F400410180C0F80E503846F2BD7A
S1134F7070B504460D4611462846FFF78EFF0646D7
S1134F803CB1300005D0FFF772FE2A462146FFF7F8
S1134F907CF9304670BDF8B504460D46164615E05A
S1134FA02846FFF77CFEB7B2874288BF07462846EB
S1134FB0FFF75DFE01463A462046FFF766F90121F8
S1134FC02846FFF7FAFE3C440546F61BB0B200281B
S1134FD0E6D1F1BD2DE9F84381460E461446FDF7AE
S1134FE013FC2D4D8046287801002BD0401E2870DC
S1134FF0C0B205EB4000A9788789F9B981813846A8
S1135000FFF71CFB00F02AF83846FFF730FE324663
S11350104946FFF73AF93846FFF729FE22460021B0
S11350203044FFF794F900223946281D08F0C7FDE3
S11350304046FDF726FC0120BDE8F2836878401C59
S11350406870E1E7A019012180B2FFF726FF07008D
S1135050DAD14046FDF715FC0020EDE720B1418888
S11350604DF6FF7211404180704738B5FDF7CCFB17
S1135070044600210B4808F0D3FD05462046FDF701
S113508000FC284632BD8041C00F70470249002011
S11350908880704700000000B0F6032040E1032040
S11350A0B0520000B4F603202DE9F04104468846CE
S11350B017461E464046FFF7DAFDC5194046FFF77E
S11350C0EEFDB919884203DA40F2B151FFF788FEC8
S11350D0300013D00698010003D1324629462046F9
S11350E004E0012832462146284603D1BDE8F041B8
S11350F0FFF7CBB8BDE8F041FFF70AB9BDE8F0818E
S113510010B50C46FFF7B3FD00B1005D10BD38B516
S11351100C461546FFF7ABFD00B1055531BD38B55A
S11351200446FFF7BCFD05462046FFF7A0FD2946CF
S1135130BDE8384000221BE770B50D46691C0446E3
S1135140C9B2FFF7DDFF060229462046FFF7D8FF64
S1135150301880B270BD00B583B002238DF80420EE
S1135160120A8DF80520012200920A46014601A880
S1135170FFF79AFF07BD10B50446FFF745FA10B1D3
S1135180A4F108000CE010BD10B5FFF757FA0400B5
S113519004D0FFF75EFA04EB400001E0002010BDEC
S11351A0BDE81040FFF741BAF8B504460D46FFF7D5
S11351B045FA060016D07088C0F30C072846FFF79E
S11351C03DFA07F00101CF19FFF743FA07EB400757
S11351D02046FFF7D9FFA84203D040F26E61FFF7E3
S11351E0FFFD7780F1BD2DE9F0410C46FFF726FA6B
S11351F005002DD06888C0F30C0606F00100801964
S1135200001B04F00101471AE01C20F003002844AD
S113521000F108082846FFF702FABFB208B1A64217
S113522003D240F28A61FFF7DBFDB44210D0092FAC
S11352300EDB6C80082200214046FFF788F8A7F1B6
S11352400800A8F802004046BDE8F041FFF7EDB9B8
S11352500020BDE8F08170B5044682B02068FFF7F5
S11352608AFFADF8000000B3FFF7E8F905001CD091
S113527000880FF23C06000404D540F2A5613046D4
S1135280FBF762FA6846FFF755FABDF80000FFF72E
S1135290D5F90546FFF7C3F920B940F2AB613046B2
S11352A0FBF752FA05F10800206073BD000000000E
S11352B06275666665722D6D616E6167656D656E9A
S11352C0742E6300012100F01F029140DFF83027A3
S11352D005E0012100F01F029140DFF82827400972
S11352E042F820107047012100F01F029140DFF8BE
S11352F01827F4E710B5012818BF2028DFF80C4759
S113530005D04FF4BD71DFF80807FBF71DFA2046FE
S113531010BD426892884089401A824201DA012015
S11353207047002070473EB5012818BF202834D1AB
S1135330012818BF202830D1FFF7DCFF0446FDF711
S113534063FA0546A06901AB6A4602A909F0EDFFBC
S113535000992289206889B200F024F82846FDF7D4
S113536090FAA0690AF057F8012816D1216820891B
S11353708988401A218A88420FDBA06990F831108D
S1135380022903D109F0CFFF022804DAA06990F8BA
S11353903100012801D100F001F837BDA0690021D6
S11353A00AF013B870B504460D461646FDF72CFAFC
S11353B0E188A9420CD22288521A521992FBF6F3C0
S11353C006FB13222280A288AA18511AA180E58024
S11353D0BDE87040FDF755BAF8B5012818BF20287C
S11353E00C46154616D1FFF785FF0646307B10B1F3
S11353F001207073F1BD707B18B13046BDE8F240F6
S1135400B2E00FF2CD1700F006F818B100F003F87F
S11354100028FBD1F1BDB0693B462A4621460AF07B
S1135420DEB870B505460E46FFF764FF012D18BFC0
S1135430202D044640D1A069016890F83200E8B9F3
S11354400420886400F031F9A0690068C16C002E62
S113545007D041F00401C1640C20FFF733FF05219C
S113546006E021F00401C1640C20FFF732FF0021A3
S1135470A0690068BDE870400AF044B9042048639C
S113548000F013F9A0690068816B002E07D041F089
S1135490040181630C20FFF715FF052106E021F0CC
S11354A0040181630C20FFF714FF0021A069006848
S11354B0BDE870400AF0B3B970BD38B50446DFF8F2
S11354C05405814230D0DFF84455A869A0422BD15D
S11354D02A89286899B2FFF765FF29680020C880E7
S11354E002E0284600F021F8204609F01CFF0328BA
S11354F01ADA2A68E889698A93884143002B89B2B9
S1135500EFD05388128840188342B8BF914205DB1C
S11355109A42E6D28342A8BF9142E2DA2046BDE82D
S11355203440012109F051BF31BD38B50446DFF8DC
S1135530E834E089658A216802466843084400F13A
S11355400801A0690AF003F8A06909F0ECFE02283A
S113555001DBFFF723FF608AA18A401C90FBF1F274
S113556001FB1200608231BDFEB50446207B68BB9E
S113557060680FF25D074188084400F10805A069DE
S11355806B4601AA02A909F0F0FE60688188009ABE
S1135590891A019A8E1A4188008888420ED260893D
S11355A0421AA0693B4629460AF019F870B96068A6
S11355B061894288711A561800F10805A0693B46B2
S11355C0F2B229460AF00BF800B96073F7BD000087
S11355D070B5DFF83854A96981421C4615D1686852
S11355E08188A14238BF8488FDF70EF969686B8908
S11355F04A88A4B2A21892FBF3F603FB16224A804F
S113560069688A88121B8A80E2E670BD38B50D4647
S1135610FFF770FE112D044609D1A069002109F09D
S1135620E3FE002020732046BDE832409CE7132DA2
S113563006D1A069012109F0D7FE0120207331BDF4
S1135640206801880844057220680188228900F0D6
S113565043F901808188491C8180A06909F0DBFE3F
S1135660226821899288891A89B220B9E2898A42FA
S1135670A8BF012105DA012808D1208A814205DB6F
S11356800021A069BDE8344009F09FBE31BD80B55A
S1135690DFF888030169090606D50AF0ADF8BDE80C
S11356A0044001460120B1E701BD0C201BE6F8B51A
S11356B00C461546FFF71EFE0646EAB2306880889F
S11356C03189891A884201DB0120F2BD00270DE0EF
S11356D0FDF79AF831680B8814F8012B19447F1CE4
S11356E00A7231680A88338900F0FCF8AF42EFD3BC
S11356F00020F2BDF8B5012818BF202804460D4645
S11357003AD100F0DFF910B9204600F06CF82046D9
S1135710FFF7F0FD06462046FFF7ECFD012C18BF0D
S1135720202C29D1DFF8F8120160DFF8F81241606B
S11357308021012C18BF202C0181418151D1012CE1
S113574016BF202CDFF8E0020020012C18BF202C0B
S1135750B06111D1DFF8D402A98CA861DFF8D002BE
S1135760E861F181EA8C32828A4207D21C213046F8
S113577003F08EFD0220F2BD0120F2BDB06990F865
S11357803130012B0CD0338993FBF1F701FB173334
S1135790002B02BF92FBF1F301FB13210029E5D199
S11357A0294609F0E0FBE8B9B069017F007E0123D6
S11357B0022208F07DF8287C012807D10121204627
S11357C0FFF72FFEB069FFF7EAFD0AE000207082C0
S11357D0F189308990FBF1F0B08200F070F900F0AB
S11357E06EF90020F2BD58B5012818BF20280446E0
S11357F012D100F067F9F0B9204600F03FF92046D5
S1135800FFF778FD012C18BF202C06460FD1B06994
S113581009F089FC10B152BD012052BDB06990F865
S11358203100012803D100212046FFF7FAFD1C2195
S1135830304603F02DFD002052BDF8B50128064680
S113584018BF20280F4634460AD1FFF753FD0546FA
S11358503046FFF768FD2868808818B92620F2BD15
S11358600120F2BDFCF7D0FF0646286841880844B1
S1135870007A3870286841882A8900F02DF8418020
S11358808188491E012C18BF202C81801FD1A86952
S113589090F83100012803D119E02846FFF745FEAE
S11358A0A86909F040FD022811DA2A68E889698AA2
S11358B053881288414389B240188342B8BF914249
S11358C005DB9A42E9D28342A8BF9142E5DA304629
S11358D0FCF7D7FF0020F2BD491C91FBF2F302FB59
S11358E013117047521C92FBF3FC03FB1C220A8029
S11358F08A88521C8A80FCF7C4BF10B5012818BFDF
S113590020280BD113460A4601460FF21500FEF774
S1135910A0FB002400B90124204610BD012010BDC5
S11359202DE9F84F814601281CBF202801208A4612
S113593093464AD1FFF7DEFC0746002478680188C5
S1135940084400F10808002627E0FCF75DFF7968A9
S11359500B881AF8012B19440A7279680A887B8922
S1135960521C92FBF3FC03FB1C220A808A88521C03
S11359708A8009884D1EAD41FCF783FFED0F761C2C
S11359805DB1351BEDB22A4641464846FFF724FD7A
S113599078682C19E4B200F10808F0B258450AD22C
S11359A000213846FFF7B5FC0028CED1387B00280B
S11359B0F6D0222009E05C4506DAABEB040292B291
S11359C041464846FFF708FD0020BDE8F28FF8B5D0
S11359D001260746012F18BF202F0C4615460DD16E
S11359E0FFF788FC012F18BF202F05D180692A46B4
S11359F0214609F012FD06463046F2BD0120F2BDF3
S1135A0000E100E080E100E080E200E014E7032030
S1135A10D4440300097000F0BB54000000000140AE
S1135A2004E603208CE6032030E7032024DE032071
S1135A30A4DE032038B50446012C18BF202C1BD14A
S1135A40FFF758FC012C18BF202C054612D16868BA
S1135A5080880028FBD1A86909F083FC0028F6D1CE
S1135A60A86909F037FC8006F1D5A86909F032FC71
S1135A708004ECD5002032BD012032BD70B505464E
S1135A80FFF738FC0646012D346818BF202D0DD1D0
S1135A90B06990F83110012908D0022109F088FB7F
S1135AA00020708200F00BF800F009F8FCF7ACFE5F
S1135AB00021A18021806180E180FFF789BC30460C
S1135AC0FFF733BD80B5012818BF202806D1FFF7A2
S1135AD011FC00281CBF0068002801D1012002BD70
S1135AE0002002BD0D48016821F480310160016F7E
S1135AF0490849000167704710B5FCF785FE044664
S1135B00FFF7F0FF064800F00DF80448052101678F
S1135B10016841F480310160204624E024ED00E076
S1135B2068DF032038B504460525204609F0B8FE91
S1135B3010346D1EF9D1BDE8314009F0D9BE80B5ED
S1135B40FFF7D0FFBDE8014009F0D2BE10B504460E
S1135B50FCF75AFE004901E068DF032062095201A4
S1135B604A6000220A70BDE81040FCF78ABE0000BB
S1135B70DFF8901904220968C00002FA00F0084016
S1135B8018BF0120C0B270470422C900002814BF06
S1135B90DFF85409DFF8700902FA01F10160704777
S1135BA001207047704748B1DFF864296FF0FF01A6
S1135BB01160000ADFF85C190002086070472DE9E3
S1135BC0F0430D46044690460421DFF84C09DFF803
S1135BD04C79D0F80090DFF8480904EA000205EA9D
S1135BE00103002000218B4208BF824283B009F1E7
S1135BF00C0647D0DFF82C090068220348BFC7E928
S1135C000201E20248BFC7E90401E0000BD5DFF856
S1135C101819086800F07F40B0F1007F03D1DFF865
S1135C200C1902200860E0071FD500F06CF900226F
S1135C3000F051F801200AF017F8F080002101204B
S1135C40FCF721FC7978002914BFDFF8E418DFF8A9
S1135C50301A4FF400100860786AFFF7A4FF0020A0
S1135C607862307840F00800307005F004030021B9
S1135C708B4207D001213046FCF79CFA25F004053D
S1135C8004430D43D6E9120104400D40002085422F
S1135C9008BF84420ED0B96922462B46484688473D
S1135CA04FF0FF30C7E90200C7E90400200744BFF2
S1135CB00020B8625FEAC8700BD5F9690020F8616A
S1135CC001203870080004D0386A03B0BDE8F043FE
S1135CD00847BDE8F7830023012000210AF0CBB96F
S1135CE070B508B9012070BDDFF84828DFF84848CE
S1135CF051681268402303FA02F22368DFF8284A45
S1135D002468C4F38114521E032C01F1005192B291
S1135D109BB20BD10025EE18083E16408E5D465509
S1135D206D1C082DF7DB0472002070BD022C0AD113
S1135D309D1E15405B1E4D5D05801A40895C45EA39
S1135D4001210180EFE7022070BD10B582B009B9CE
S1135D50012016BD0B7BDFF8C427002B14BFD2E94A
S1135D600423D2E902234FF0FF34A34208BFA24226
S1135D7001D1022016BD009128300BF063F80020F9
S1135D8016BD10B504461120FDF71EFD042802BF00
S1135D90DFF82809006810F4403F01D0022010BD4C
S1135DA020460AF010FA204600F0B7FFDFF8BC19CD
S1135DB060200860002010BD2DE9F04104460FF278
S1135DC07C0084B004F10C080068029008F1080714
S1135DD00026BE67C7E91066BE85FE856420388646
S1135DE07886B886F886388778870D464FF6FF7030
S1135DF038804046FFF7D4FEC0B14046FFF7C1FFEC
S1135E00060013D102A9404600F018FD0646BA6FF9
S1135E104FF0FF31404600F088FA00F074F84FF07C
S1135E2080520423104604210AF025F928001CBFDF
S1135E302046A847304604B0BDE8F08100000000C9
S1135E4098B50446207881072ED5616A61B300F0C5
S1135E50FD012170606A4069006810F1010F03D0F0
S1135E60BDE892400BF057B9D4E9122303F00403C0
S1135E700027BB4203D141F00200207091BD4FF4D2
S1135E8080312046FCF796F9D4E9122302400B40F6
S1135E9008BFBA4208D0A4F10C0001B0DFF87C16A8
S1135EA08969BDE89040084791BD2DE9DC4304466B
S1135EB0DDE90867D4E912019043994306EA020830
S1135EC007EA030940EA080041EA0901C4E91201AA
S1135ED022F0010823F0000900F07EFD80B100F0FB
S1135EE012F807EA090106EA080040F0805241F07E
S1135EF00403404649460AF0BEF82046FFF7A0FFD7
S1135F000020BDE8D683002001900090704700680F
S1135F100100DFF8081608BFDFF81C098861704724
S1135F202DE9F0415FEA010886B0044615461E4695
S1135F301AD0280018BF002C16D000F085FFDFF817
S1135F40DC75B96A8C4206D17988BF88ADF8001037
S1135F5000F077FF1DE000F074FF6A4601A92046B7
S1135F600BF0E7FD040001D100201FE09DF80400C0
S1135F70002818BF08280AD000F066FFBC62BDF8EC
S1135F8000107980BDF80610B98000F05AFFBDF802
S1135F900670A8198742BDF80000B8BFBD1B83195D
S1135FA09BB2AAB2414601200BF065FC06B0BDE8E5
S1135FB0F08110B500F02EFE70B1F020044201D043
S1135FC0012010BDDFF8EC080168090904F00F0294
S1135FD042EA01110160002010BD000000230021ED
S1135FE00022032807D8DFE800F00302070A012390
S1135FF018460AF06FB9704701230121F8E701231D
S113600001210122F4E7DFF80405006800F0706064
S1136010B0F1807F18BFB0F1007F19D0B0F1407F9C
S113602018D0B0F1806F1CBFB0F1A06FB0F1E06F79
S11360300ED0B0F1006F17D0B0F1106F0CD0B0F1EA
S1136040206F1CBFB0F1306FB0F1406F0CD005E091
S1136050022070470320704705207047DFF890083E
S1136060006810F0060F01D004207047012070472B
S1136070DFF85409006800F0A000401E8041C00F02
S1136080704710B5044600F0AFFB204602F08AF9D1
S113609078B1204600F0FFFA58B1032100200BF03C
S11360A02FFC10F1010F01D1032010BDDFF81C19E2
S11360B00860002010BD10B5FFF7E3FF040008BF1F
S11360C00AF0D1F8204610BD70B584B0BAB3137885
S11360D0002B04BF5378002B31D070CA6B4670C3B9
S11360E012F80C3D1C000FD09588BDF806406B4398
S11360F01B19ADF8063014789DF801301B1B8DF880
S1136100013000238DF8003001239DF8014000E0A8
S11361105B1C01259D40A542FAD392888DF800307E
S11361206E0804FB0262B2FBF5F2ADF804209DF8A0
S113613000208DF801206A4600F005F801E000F027
S113614002F804B070BD2DE9FE4F83461446FFF7F4
S113615098FF5FEA000940F08580002CDFF8706842
S113616055D094F90310E08809F09FFDA178481EEA
S11361708DF80800012722786078924619B9002723
S11361808DF80810BA468046D04538BFD0461AB9B3
S1136190451EAD41ED0F00E00025A0880BF0DDFFAA
S11361A080B2DFF830184FF604026DB1CB6A9BB2AF
S11361B0934208BF5B1C33800122CA624FF0080A75
S11361C08022CA64D04604E0338893421CBFCB6269
S11361D0328038B1421E4FF6FF739A4288BF1A4686
S11361E00A6000E00860002001903B469DF808002A
S11361F00090424651460BF128000BF052FF25B1A6
S1136200DFF8A0184FF480100860A06870602020A8
S1136210DFF89C18086001200BF0B0FF00F014FEBA
S113622004460BF068FF7668AEB104200BF008FF5B
S113623010B104200BF0D4FD30460BF08EFF012288
S113624000920B46024604200BF0DAFD00F0010038
S113625090F0010903D10BF05AFF09F0E9FF00F0B7
S113626003F84846BDE8FE8F204600F0EABD38B585
S113627000F0D0FC002518B160B209F03CFD0546E1
S1136280284632BD80B500200AF00EF8002002BD79
S1136290012809D00BD3032803D008D24FF0C050F3
S11362A006E04FF0005003E04FF0605000E00020A3
S11362B0DFF838180A6822F06052104308604FF47F
S11362C000109B49DFF828280860DFF828080168D7
S11362D021F0060141F0040101604FF0805111608A
S11362E00421416100207047DFF80C180620086083
S11362F00020DFF8081808604FF08050DFF800181D
S113630008604FF40011DFF8780301604FF060512A
S1136310016000207047002819BF0220DFF8E4174D
S11363200220DFF8E4170860704738B500F0FEF982
S113633000284ED02207DFF8D007DFF8C81705D5AC
S11363402A0747BF08220A6008220260E20705D52F
S1136350EA0747BF0120086001210160600708D5F2
S113636069074CBFDFF8A417DFF8A4174FF40070D7
S11363700860A00704D5680800F00100FFF7CBFF10
S1136380E00606D5DFF88C07E9064CBF00211B2187
S1136390016014F0600F1CD004EA0502002102F031
S11363A06002202ADFF8700711D0402A0CD0602A3E
S11363B00ED1DFF85C28136853B11C68022C07D394
S11363C05A6942F0010103E040F2011100E00121A9
S11363D00160002032BD2DE9FC4700260D0018BFE6
S11363E00125022980461446994603D100F032F86B
S11363F0002027E000F028FD484F8246F86901009C
S113640018BFA04215D10120FC6101900090C7F88B
S11364102090002200230020FFF75FFC3E704046DE
S11364200BF09BFE02460B46009502200BF0E8FCA5
S11364300646504600F005FD002E03BF0020F8611B
S113644001200020BDE8F687DFF86C08D0E90001E0
S11364500BF06FBE00B583B0002001900022012034
S1136460009000230020FFF738FC02200BF0B8FC5A
S11364702A490020C86107BDDFF8180827490068C9
S11364800978800A00F001000843704702200BF0ED
S1136490D7BD70B5406A0025002816461EBF406966
S11364A0002805460C46F00748BF0BF0EBFEF0034E
S11364B017D5266816F1010F0ED1DFF854070168CD
S11364C000291FBF0A68002AC8680AF04BFD0AF0B9
S11364D0C0FD0646266002E030460AF01CFE05B107
S11364E02E6070BD00000000EC10084638B5DFF8DF
S11364F044480B7822684978C2EA034242EA0165BB
S113650027E00000EC100840EC1008440440084068
S1136510187008441870084604E30320F0DD0320D3
S1136520010018101C510840081F002100400846B3
S11365301860084630100840FC1E002138B5DFF80A
S1136540F44722680B784978120C43EA024242EA83
S11365500125FFF725FB00B12560002032BD70B591
S113656000F0A4F9002628B104F1280128460BF014
S113657099FE0646304670BD70B504460D4694F843
S11365806000032801D1022070BD261D316A3570D8
S113659081B12046FBF781FF40B930622046FCF709
S11365A06EF801462046FBF794FF03E0E9B220466B
S11365B000F002F8002070BD10B50C4690F8601091
S11365C0032901D1022010BDFFF7EAFA10B1E0B2AD
S11365D00BF010FF002010BD80B508460BF0B5FE8F
S11365E0002002BD0BF0B9BE2DE9F04104460F4670
S11365F06069012815461E463DD000F0EDF90028DB
S113660039D0FFF700FD012803D001210120FBF759
S11366103AFFA889D5F804803F1ABFB2402F06D3A9
S1136620A968B809484308EB801807F03F070CF045
S11366304FF9404507D10CF04EF9A968884204BFD0
S1136640F6B2002E10D0A96840460CF076F908B1D5
S1136650022011E00CF056F9002814BFDFF8780787
S1136660DFF87C070CF05BFA2046FFF7E9FB012119
S1136670F8B20CF0CDF90020BDE8F0810000000074
S113668018600844C9B280B5002914BF2022002232
S1136690202100F03CBB20210AF097B958B50646EA
S11366A088B20BF05AFD04463046FFF779FA18B168
S11366B0DFF8300761420160002052BD04300E4013
S11366C0F8B5074600F032F8032618B300F0BCFB17
S11366D00746DFF8DC130220086073480068000EE8
S11366E000F00F00082818BF072803D0092818BF96
S11366F00C2804D1DFF8D0020068800304D4E9B286
S113670020460BF01DF9064600F029F8384600F043
S113671098FB06E0EAB2214607F19000FBF720FE61
S113672000263046F2BD00008C4008400C46154659
S1136730FFF736BAC9B2002914BF08220022082183
S11367400AF028B9C9B2002914BF4FF4807200229C
S11367504FF480710AF01EB908210AF036B9DFF847
S113676090160220086070470000000044000840B2
S113677000280CBFDFF83803DFF874064FF480718B
S11367800160704770B5DFF86046DFF86016257861
S1136790DFF86026ED074FF4806303D505000CBFD6
S11367A013600B602678B6074FF4006503D5060026
S11367B00CBF15600D602678760703D506000CBF64
S11367C053604B6023781B0703D508B9556070BD2F
S11367D04D6070BD002814BFDFF83003DFF83003CC
S11367E04FF480610160704738B504460D4668086F
S11367F000F00100FFF7C6FF05F00400FFF7EAFF11
S1136800002005F01802182ADFF8EC1507D02A0733
S113681048BF012003D4EA0648BF40F201100860D3
S11368202046FFF738FF20B105F00100BDE83240F3
S11368309EE731BD00000000A55B0000F8B500F044
S113684035F870B3A878E978884201D00120F2BD08
S11368506878010002D1FFF747FD01E0FFF718FD5A
S1136860A878DFF8986540F6FF7700280EBF3760F8
S1136870204600F0E2F8E87840B9DFF88812376380
S1136880602008604020DFF8681509E0DFF878121E
S113689060200860204600F0E6F84020DFF83C1550
S11368A008600020F2BD00000440084004460D4684
S11368B0FFF776B95C1F002138B50C466A460BF029
S11368C038F9050018BF002C10D02078010018BF3B
S11368D008280BD000F0B8FADFF824158D62BDF853
S11368E000204A8062888A8000F0ABFA284632BDD4
S11368F00C50084010B50C46002818BF002C84B07A
S113690006D0032806D2002200210BF012F908B9A0
S1136910012056E000680090BDF800209DF80210A8
S1136920120401F0070002D4821F022A01D30220BC
S113693047E007280CBF012000202073080900F05D
S113694001006073C1F380102074C1F3C00060744F
S1136950C1F34010A07409F0F4F80246C0B240B389
S1136960207A00B90222BDF80000831F9BB2D2B284
S113697001A901200AF07FFF01A841784900E173D1
S11369809DF90410A173217AD1B18178C27800797C
S1136990009441EA022141EA00409DF8091040EACE
S11369A00162DFF860040068002334300AF00CFA56
S11369B006E0E0736FF07F00A07300202060207277
S11369C0002004B010BD000088400840001F0021D2
S11369D090E303202C5008402046FFF7E1B8F8B5B7
S11369E00C469BB200F023F806DAB3FA83F1D1F136
S11369F0190148BF002507D400F019F8BABFB3FA4B
S1136A0083F1C1F1190506250121AB1D01FA03F635
S1136A10B7B291B28F4288BF0F46FFF7C1F820B1D9
S1136A20EAB2394620460AF0B4FEB0B2F2BDB3FA77
S1136A3083F1C1F119010629704780B5FFF7B0F859
S1136A4080B10020FFF794F8DFF8BC230121116026
S1136A504FF40051DFF8B423116018B1BDE80440CD
S1136A60002121E001BD10B5FFF79AF8B8B101206B
S1136A70FFF77EF8044601210020FFF785F8DFF8D0
S1136A8080130020886209F01FFFDFF884134FF49D
S1136A90005008601CB1BDE81040012104E010BDA5
S1136AA0000000004C5008460120FFF76DB80000BC
S1136AB08840084610B50CB214F1010F01D1012031
S1136AC010BDFFF76DF870B143F6FF70844206DA2B
S1136AD014F5804FB4BF4FF48040C4F30E00DFF8C8
S1136AE03C130860002010BD00000000186008403E
S1136AF09440084670000840700008448400084030
S1136B009440084444000846440008441C60084675
S1136B101C6008444C0008406C1F00212DE9F84F0C
S1136B20054600F077F8002600286FD0DFF8E0B0C3
S1136B30DFF8EC72DBF80080D7F80090D7F804A0F7
S1136B40214605F1280008F091FFDBF80040386881
S1136B507968DFF8942248450ED01378870A03F049
S1136B60FE0307F001073B43C00A03F0FD0300F0F6
S1136B70010043EA4000107051450FD010788B0A91
S1136B8000F0FB0003F0010340EA8300C90A00F0AF
S1136B90F70001F0010140EAC10010704FF6FF71E7
S1136BA02889884205D05268100002D029892846D5
S1136BB09047444525D00021002C1EBF20680028A2
S1136BC0A168284600F029F8002C1CBF2068002882
S1136BD001D0206918B900220021002402E0826853
S1136BE00168C48905F128000AF0C4F806000DD133
S1136BF0214605F128000AF027F805F128000AF0DB
S1136C00B5F8287840F0020028703046BDE8F28FCD
S1136C10F81F00210C46FEF7C3BF70B50E0082B00A
S1136C200546DFF800420AD10022072109F0B2FE2E
S1136C3000F032F858B30020C4E9000073BDFEF739
S1136C40AFFFF8B1DFF8CC110720086001213079DB
S1136C5020707079009068460BF0CCFF0099C14019
S1136C6000F00F0040EA01106070B079A070F07974
S1136C70E0703168DFF8B00101603079DFF8981115
S1136C80401C086007220721284609F083FE73BDD3
S1136C90000000005C5008402846FEF781BF10B594
S1136CA0FFF7B8FF20B1E0B2BDE8104008F0DCBF48
S1136CB0DFF8780110BD0000E8E5032080B50BF093
S1136CC0D1F9BDE804400BF034BA70B505460C4662
S1136CD000F023F8CCB1A078092801D3012070BDBD
S1136CE0E1780929FAD200F00F0040EA0116FFF713
S1136CF0D3FF50B1DFF8380161680160DFF8340177
S1136D002178017061784170C670002070BD09F06F
S1136D1041FE00B10120C0B202BD80B5FEF740FFC4
S1136D2030B1BDE804404821DFF8040102F0B0BAF4
S1136D3001BD0000081F0021F8B5D2B2022A3CBFF1
S1136D40DBB2042B01D30120F2BD54083A4D0127D4
S1136D502E5D03EB8202C9B207FA02F2002914BFC6
S1136D6016439643FEF71CFF00B12E550020F2BDDA
S1136D700BF054BF38B50D460446298804F1380099
S1136D8009F04CFF288004F14000698809F046FFAF
S1136D90688004F13E00A98809F040FFA88004F14E
S1136DA03C00E98809F03AFFE88004F128002989C9
S1136DB009F042FF288104F12800698909F044FFA1
S1136DC06881FFF709FE18B104F1280009F0CEFF2D
S1136DD0002032BD0BF0FDBFC0CF6A0088400846DA
S1136DE0E0673500041F002108FC0320A0000844CC
S1136DF088400844A0000846701F00212410084061
S1136E00F0DD032004E30320281008402410084484
S1136E105410084404000844180008404030084056
S1136E20A0000840541F0021581F002100FEFFFF4E
S1136E300C1F0021501F0021521F0021C9B2FFF76F
S1136E402EBF00B962B67047EFF3108072B6704778
S1136E50F8B50F46144647F6FF718C4201D1FF2066
S1136E60F2BD2D4E716800291CBFB168002901D004
S1136E70F16811B92A21FAF70DFD38460BF0EEFF3F
S1136E80012F01460BD10622F16831F912108C4210
S1136E9003DA521E12B2002AF6D1501C39E0B1F9BD
S1136EA00000A042B8BF044603DB1C488442B8BFBC
S1136EB00446A4F1C800282290FBF2F04242307844
S1136EC0034612B25D1E9542BCBF421E12B24D680B
S1136ED005EBC2004668B0F9020010FB046000280C
S1136EE04FBF002000F5FA704FF47A76B0FBF6F04D
S1136EF0521C12B29A4203DA35F832608642E6D264
S1136F0005EBC20131F8081C814238BF084600B9BC
S1136F100120C0B2F2BD00BF24F70320C880FFFFE8
S1136F20D0B5274E0F46716800291CBFB1680029EF
S1136F30144601D0F16811B92A21FAF7ABFC012FEC
S1136F400BD1082CA8BF072401DA200000D0641E4E
S1136F50F068E4B230F91400D0BD200001D1194822
S1136F60D0BD38460BF07AFF022C416802DAB0F942
S1136F700200D0BD002F0CBFFC22F822944202DB99
S1136F80B0F90000D0BD3078401EC0B2002200E04D
S1136F90521C824201EBC20302DA1E89A642F7D2D6
S1136FA04FF47A715A68B3F9020011FB04F1891A9B
S1136FB000EBD07201EB620191FBF0F000B2D0BDA6
S1136FC024F703200CFEFFFF28B90348016003489F
S1136FD00068FAF75FBC704798E3032004E30320DA
S1136FE0012100F01F029140514A400942F820104B
S1136FF0704730B54F48504D0FC887B003AC84E894
S11370000F0068460021002200230EC002208DF8E4
S11370100600012149484A4CFCF7BEFA4FF6FF70BE
S1137020E0616A46002120460BF084FF00208DF8C1
S11370300E0003A920460BF031FF4248FCF7DCFAAE
S11370409DF80E1001228A40491C8DF80E10B0FBE9
S1137050F2F0C9B20B29286002D23B498842E8D237
S11370603A48FCF7C9FA3A492A68B1FBF0F33948BF
S11370700021E3FB0201384A00230BF091FF37495A
S11370800860002036490870A06920F01000A06153
S11370900B20FFF7A5FF33494FF40060086007B0E9
S11370A0002030BD38B500F01BF804460D4605E05D
S11370B04FF6E85000F02AF800F00CF800218D4259
S11370C04FF6E950F4D88442F2D2A0B200F01EF890
S11370D0002032BD24484FF0FF3124184D41704741
S11370E015491C4A09680023E0FB01231046194690
S11370F0194A00230BF054BF1C480168C90604D583
S1137100102181600120164908707047010081B088
S11371100BD017490A6892B20B68ADF80030BDF87D
S113712000309B1A9BB28342F6D301B07047000033
S113713080E200E0DC7F0300A4F5032000020400E9
S1137140008001404041050081841E00500002007F
S113715000B0710B20A1070040420F00A8F50320E6
S113716090FF032000E100E01802FFFF0C800140C3
S11371702480014010B52F4C0120207082B00020E3
S113718006F034FA38B1002006F030FA18B10020C5
S11371902070492016BD02237F220021684600F09A
S11371A00BF8BDF80000B0F57F7F03D000202070FD
S11371B0072016BD002016BD10B5FF2907DC1D4CA5
S11371C0247844B1BDE81040C9B205F0C3BEBDE89F
S11371D01040FBF721BE10BD2DE9F0410446FF2C01
S11371E00D461646984615DC12480078C0B1134F78
S11371F0387820B14FF4CE710F48F9F7A5FA012081
S1137200387043462A463146E0B206F011F80020B1
S1137210387005E042463146BDE8F041FBF71EBE3A
S1137220BDE8F08103490978002918BF06F001B9C7
S1137230704700008DFF03208C7F03008EFF032026
S1137240012100F01F029140DFF8E022400942F8DA
S11372502010704770B50546FBF7D6FA00260024C7
S11372602821DFF8CC2201FB06F313449B7F13B1E2
S1137270761C042EF7DB042E08BFDFF8B84208D0D2
S11372802DB17143114401238B772E6001E0DFF8A7
S1137290A842FBF7F6FA204670BD10B5DFF89C0251
S11372A0017809B1002010BD01210170DFF89002BE
S11372B0DFF89042FCF770F90321DFF88C02FCF749
S11372C0D9FA032020710121DFF88002FCF764F968
S11372D020460BF0F4FEDFF87812DFF87842012044
S11372E00BF0D6FEE069C00AC002E06140F2FF7014
S11372F0A061002020601E20FFF7A2FFDFF85812D3
S11373004FF080400860A021E06940F00100E06196
S1137310DFF81C0201F0BCFFDFF840120020087007
S1137320DFF83C120870DFF83C120860DFF838120E
S11373300860DFF83812086010BD70B58A4E00236B
S113734034688448026830688442F9D1981844EB60
S1137350030170BD30B54FF4FA5200F004F8C00BCD
S113736040EA414030BDA2FB004502FB015514F543
S1137370804045F1000170472DE9F047FBF744FADE
S1137380744D8246E869296900EA010626F0050081
S1137390A86170071ED5714FDFF8C481DFF8D4915E
S11373A0012038702C6800F022F8201A00F026F82A
S11373B000F078F8204600F085F82C68E86C98F81E
S11373C0001029B1D9F80010401A611A8842EAD392
S11373D000203870F00705D50120A86162480168D3
S11373E0491C01605046BDE8F047FBF74ABAE8691A
S11373F020F00400E861D9F8000070472DE9F0435B
S11374000026044600252821494871434718387F3F
S11374107D77002841D0D7E900018D4207D828BFE5
S1137420844204D2001BA941C7E9000135E0F87F7A
S113743008B938772DE0D7E90001D7E90223201AEB
S1137440D7E9028965EB01010BF0AAFDB8EB020054
S113745069EB0301C7E900013869396901287869D2
S113746009DB0818F428786113D3D7E90001401C1C
S113747061F1FF3108E0401AF428786109D3D7E9B3
S11374800001401E61F10001C7E900017869F43888
S11374907861B86908B101207877761C042EB2DBD4
S11374A0BDE8F08310B50024282121486143421827
S11374B0507F18B1116A926920469047641C042CCD
S11374C0F2DB10BDF0B54FF0FF3213460021184C2B
S11374D028254D436619367F46B12544D5E9006712
S11374E09F4203D82EBF964232463B46491C04298C
S11374F0EEDB00214FF0FF34A34208BFA24212D0BA
S11375008B426FF0640401D8A24200D32246194989
S1137510174B08600421196010185863012158683A
S113752040F0040058600E480170F0BD80E200E0B5
S1137530A8E40320011000F0041000F088FF0320E9
S113754000250800B8DF0320050020008009120090
S1137550C4DF03200820044000E100E086FF03208C
S113756087FF032058F003205CF0032060F0032021
S11375702020044054F0032010B5DFF8804304F1C8
S11375800800FDF7D7F804F10A00FDF7D3F804F179
S11375900C00FDF7CFF8BDE81040DFF86403FDF7F9
S11375A0C9B810B5DFF85423DFF8583314781B78C2
S11375B0234306D1DFF850331B780C2B03D0022968
S11375C006D0002010BD012908BF02F10C0301D030
S11375D002F10A0301460022184606F0F0FA0BF005
S11375E08FFD012010BDDFF81403417919B9012181
S11375F041710BF085BD7047DFF80803007800B1D6
S1137600704710B50BF038FFDFF8F042208128B93D
S1137610002104F10A0006F003FB2081208928B927
S1137620002104F10C0006F0FBFA208120890028D7
S113763004BF207800280ED16079022803D00CF012
S113764052F9208138B9607928B10CF0F2FA20811E
S113765008B10020607110BDA8488079704780B5DA
S1137660A0F10B01102901D3002002BDA3498871A8
S1137670042000F02AF8012002BD00009F48017890
S1137680491E00220329027000D9704780B5DFE843
S113769001F002060A0EBDE801400CF0B7BBBDE8DC
S11376A001400CF005BCBDE8014001F0F8BB807955
S11376B0F9F727FA20B1F4210FF26820F9F744F81A
S11376C0BDE801400BF01CBD01BD38B504460BF00C
S11376D0A7FF8A4D687940B10020687101F09EFAD5
S11376E0032804BF40200CF0C6FD287808B1002010
S11376F032BD86480078052808BF0BF0A2FD2C7027
S113770000F007F818B1FFF7B9FF012032BD0220DD
S113771032BD38B5FBF778F80446784D05F10A0018
S113772006F030FAA0B105F10C0006F02BFA78B19E
S113773076486979007808430AD10BF0EDFD38B931
S113774073480DF0B1F800F0010080F0010500E08D
S113775000252046FBF795F8284632BD10B56B4945
S1137760664C00200870208120706081A081FDF7A4
S11377708DFC0DF023FA60700DF020FAA0706448BF
S11377800DF086F963480DF083F94FF4A051624877
S11377900DF036FA00206071BDE810400BF0C3BD57
S11377A02DE9F04104465D48544E0578308928B9E6
S11377B040F28F110FF26C10F8F7C6FF281FDFF8A4
S11377C05081524F0ED0801E012814D805203870E5
S11377D0214628460CF0CFFC08B900F018F8002028
S11377E030810BE0312C05D03878022803D12000F9
S11377F001D10120F070347100F009F8042D04D097
S11378007079012804BF02207071BDE8F081032063
S11378103870002140460DF0EBB838B5374D297962
S113782004460BF082FE28B929792046BDE834408D
S113783004F02BBF31BD2DE9F8430446FDF717FAD8
S1137840471D05212046FDF777FC054638460DF017
S113785091FA05F44C483E5C280701D5042E4AD120
S11378602F4806704FF4406005424FF6FF7906D06A
S1137870F81CFCF785FD484508BF48F0400805F4AE
S11378804060B0F5006F06D1781DFCF779FD4845DE
S113789008BF48F01008012E4CF6500015D0022EF7
S11378A016D0032E0ED0042E08D0062E21D0072E7B
S11378B008D0082E15D07C2E0ED01CE020460BF0EC
S11378C097FDC0B90020BDE8F283B8F5484FF9D060
S11378D0B8F54C4F0FD1F5E7B8F54C4FF2D08045D1
S11378E0F8E74CF64040804505D107480078072862
S11378F0F0E78045E6D00120E5E70000D4FE032050
S113790058FA032056E50320FCE10320A7FF0320D7
S11379103CE3032000E20320BCFB0320F2E303204A
S1137920A6FF03206D61632D617262697465722E16
S11379306300000010B53F4A014652F821301C0094
S113794005D0002442F82140BDE81040184710BD7E
S11379500020EFE72DE9F84304460E4630001546B3
S113796003D10DF02BFA281831E02746022F0FF22D
S1137970D40802DB4B2100F050F8DFF8B89059F836
S1137980270010B14C2100F048F8B5F1004F02D3A4
S11379904D2100F042F849F82760200002D0502120
S11379A000F03BF8244E254B306801222946FAF7B3
S11379B0AEFB38B10DF002FA05462046FFF7BAFFD8
S11379C0681E04E03068BDE8F243FAF7ABBBBDE8DB
S11379D0F2832DE9F04105462F46022F0E460FF2A1
S11379E0640802DB5D2100F018F8FAF70DFF044685
S11379F0104850F82710B1420AD1002140F827104E
S1137A0015B1642100F009F80B480068FAF78EFB01
S1137A102046BDE8F041FAF734BF4046F8F794BE7B
S1137A200BF0FCBB010008BF012002010449002047
S1137A3090E7000010FC032068E503205179000062
S1137A40217A000073796D626F6C2D74696D6572B3
S1137A502E6300000120704710B527480FC88AB074
S1137A6006AC84E80F0006A800F069FA01A82349CF
S1137A701422FAF785FC69466846FAF7ADFE18B198
S1137A80BDF80000ADF80A0001A8FBF7C7FF00F03D
S1137A9041F81B4805F07DFE00F03CF8042111205C
S1137AA0FBF7E8FE002200210320FCF707F803217E
S1137AB01448FBF7DFFE03211348FBF7DBFE032129
S1137AC01248FBF7D7FE0DF088F90DF033FA01A840
S1137AD00F491422FAF754FC01A80BF02FF90123E3
S1137AE004220521002005F0E3FE0DF062FAFAF706
S1137AF075F800200AB010BD585403004454030024
S1137B0000F0490202001A0003001C0005002000D6
S1137B1068540300012201210220FBF7CFBF0000BB
S1137B20012100F01F029140664A400942F82010EA
S1137B30704700BF38B5644CE068216808400BD535
S1137B40624800680568290003D000F016F8002197
S1137B50A8474FF000400CE040000BD55C4800689B
S1137B600568290003D000F008F80121A8474FF068
S1137B708040A060BDE831400CE00021C0E9001164
S1137B8093E055484FF040410160416821F0404185
S1137B9041607047F0B54E49504B0A68002053F8D5
S1137BA0304044B1156803EBC0041DB11579267942
S1137BB0B54200D22246401C0528F0DB0A6011467B
S1137BC047480A685AB10268120A1202026002683F
S1137BD0097911430160416941F0804102E0416942
S1137BE021F08041394A3F4C41610021136854F827
S1137BF0315045B11E6804EBC1051EB12E791F79C1
S1137C00BE4200D22B46491C0529F0DB13601A68DA
S1137C1062B1026822F47F4202600268197942EA82
S1137C2001210160416941F0004102E0416921F014
S1137C3000414161F0BD80B52B490120087000F07E
S1137C4030F800F02AF822492848224B08601F49DE
S1137C50086027480168406DC1F3074100F0FF0048
S1137C60FF2912BFFF281921902001EB810200EBAC
S1137C70D2021A60C0000522B0FBF2F040181D4980
S1137C800860FFF77EFF0020FFF74AFF1A49012032
S1137C900860FFF77FFF002002BD2821114801F092
S1137CA0F7BA28210D4801F0F3BA144811490068C5
S1137CB009680006400D052290FBF2F0081A00F353
S1137CC00700704780E200E024300E4038F10320C2
S1137CD034F103203CF103202C300E40DCF003206F
S1137CE01C300E4004F1032089FF03202CF10320F3
S1137CF0B081E00F40F1032000E100E020300E40AD
S1137D00890001EB401000F1844002607047890053
S1137D1001EB401000F184400068704712212846AE
S1137D20F5E738B50C46DFF84C150D6828B905F0B1
S1137D3012FDC5F30421491C4843DFF83C150978BA
S1137D4031B1DFF83815884202D22146022001E021
S1137D5021460020BDE83440F8B50446DFF8140598
S1137D60DFF8087500680D4605F0F5FC064600F0DE
S1137D701EF80028FBD13868000C00F00300A04274
S1137D80214613D0022C04BF3046FBF7A4FB10207D
S1137D90C4F102018840F8601CB900213046FBF7A9
S1137DA09AFB1DB100F003F80028FBD1F1BD1221AC
S1137DB03846ACE770B5DFF8B8148A6903789209DD
S1137DC003B10423447804B10224857805B108255D
S1137DD0C678012E18BF002643EA821222432A43A2
S1137DE0037932431A438A610A68407922F44032A3
S1137DF042EA0040086070BDDFF88404006803298B
S1137E0020D8DFE801F00205080B00F0FF0006E0CF
S1137E10C0F3072003E0C0F3074000E0000E1100A8
S1137E200AD1000330F470410CD1DFF858140B6808
S1137E3023F4704303430B60012A0CD1000330F494
S1137E40704101D000207047DFF83C140A6822F426
S1137E507042104308600120704770B5002500246B
S1137E6052EA0322DFF8246416D0521E0CD0FF3AE3
S1137E7014D0521E0AD0FF3A12D0521E08D0FF3A34
S1137E8014D0521E06D015E0B2680AE0B2680EE0C3
S1137E90F26806E0F2680AE0326802E0326806E05E
S1137EA07268C2F3072402F0FF0503E07268140E3F
S1137EB0C2F3074505600C6070BDF8B50446DFF8F1
S1137EC0D053686AC007FCD4DFF8C863F06910F0C7
S1137ED0030704D001220D212846FFF711FFA74212
S1137EE002D12CBB00221EE0032F18BF002F0FD19C
S1137EF0022C18BF012C0BD14FF40020B06000F00D
S1137F0018F8800040F00100F06130680003FCD5EF
S1137F1000F00FF844EA8000F061686AC007FCD4FE
S1137F20220018BF01222846BDE8F8400D21E7E6EB
S1137F30F1BD686AC007FCD4F06980087047F8B5E1
S1137F400446DFF8585302202860286800F00F0028
S1137F50022850D1E0884B2838BF00200DD3B0F55B
S1137F60FA7F38BF4FF0805007D340F6C4118842DF
S1137F7034BF4FF000504FF04050DFF82463DFF877
S1137F8024333169B4F90C20DFF81C731940D2434F
S1137F90084340EAD2703061DFF8EC02016841F432
S1137FA0407101600021386A40F080703862FFF748
S1137FB0FFFE00B1042000F048F92089DFF8EC123C
S1137FC00880A089DFF8E8120880A088DFF8C812CA
S1137FD0088000F0D2F8A07B20B1012805D1DFF899
S1137FE0D40201E0DFF8D002F860608801220121A8
S1137FF000F015F808B90020F2BD686840F480600C
S113800068606078FFF759FFA07A20280CBF01222E
S1138010002205213046FFF773FE0120F2BD2DE951
S1138020F04F89B004468846934605A800210022F3
S113803000230EC002A80EC0A4F5E160B0F5966F4F
S113804000F28880B4F5E16FDFF870024FF4966AAD
S113805002AF05AD0BD94FF4E16101914FF0010975
S11380600068A860010EB960C0F307400BE08946C0
S1138070CDF804A04FF4167A0068A860C0F3072175
S1138080B96000F0FF00A8604A46DFF81C6230685F
S1138090000F00F003008DF80100034602A905A8B3
S11380A0FFF7DBFEDFF8E0010068000A00F00300E0
S11380B08DF8000003464A4603A906A8FFF7CDFE43
S11380C0019AA868B9686D68D7F804E0DDF814C0AF
S11380D0A31A0A1AAEEB05075A43029CB2FBFAF242
S11380E08218A4EB0C045C437B43B3FBFAF3EF1854
S11380F09142B4FBFAF428BF824264442AD3BE45B9
S113810028BFAF4226D30298A04224BF05988442D8
S113811020D3BBF1000F0CD030694946B9F1000FF0
S113812018BF0221DFF89831184040EA02200843C2
S11381303061B8F1000F1CD09DF8011000224846B0
S1138140FFF75AFE30B19DF8001001224846FFF7B0
S113815053FE08B900200DE0A74228BF3C46E72C97
S1138160B06928BFE724400A49EA440141EA4020B3
S1138170B061012009B0BDE8F08F10B5DFF8281117
S11381804B6A0C68E4074FF0FF3203F0070325D570
S1138190022B23D3142828D31438142832D30F22C3
S11381A0086820F47F4040EA022040EA0230086078
S11381B03E4A08681288C0F3032002F12803401CD9
S11381C002EB5302283200EB8003B2FBF3F2521E9F
S11381D0072A34BF12064FF0E06215E00C68E4078A
S11381E009D4022B07D20A2801D20322D8E70A387D
S11381F00A2807D3D3E70C68E407D1D5022BCFD2E2
S11382002828CCD20722CBE70B6823F0EE631A436D
S113821042F480120A60264AB2F90020002A13D4DC
S113822092B202F1280302EB53024308283203EB13
S11382304000B2FBF0F04A68072834BF0001702008
S113824022F070021043486010BD38B50446164D44
S11382500021FFF764FD686AC00844EAC000686250
S1138260BDE832400C48008887E7000004300E4027
S113827000300E4000410E4088EA0320002D3101F9
S11382803083E00F6C300E40EC300E401C83E00F66
S113829054300E4024300E40B0FE032038300E40DF
S11382A03C300E40FEFFFFCF4C300E40AEFE0320AC
S11382B0B2FE0320372110B7774020571883E00F10
S11382C0FD80FFFF04480168090C0904816001482E
S11382D001607047C8F003201CA400400549027BDC
S11382E00A7002684A6042688A608068C860002038
S11382F0704700BF24F703207047704738B5FBF779
S11383002EFD0446FBF727FD0020002124FA01F28C
S1138310D20712D51D481E4C30F8110006284CF225
S11383203C324FF20F031ED16088984217D1218846
S1138330080A0C2813DA084613E0491C89B21129EB
S1138340E4D314490880088840F20171884205D1B9
S11383501148D0E900231148C0E9002331BD4FF48E
S1138360C0606280EDE740F20725A84201BF618842
S113837099422188A942E4D162800846E1E7054890
S11383800088000A70470348008870471C470300B0
S113839000000020AAFE032094000020C0E803206F
S11383A001207047802108F010BB80B50FF28811BE
S11383B0FAF71DF8002002BD10B504460FF2701044
S11383C0008886B00023ADF80C00002203A80290B8
S11383D00021022001900020009000F01DF801000F
S11383E009D103A802900023042001900022022056
S11383F0009000F010F801000BD104A80021C0E99E
S1138400001102900091082001900023012200F045
S113841002F806B010BD0121204608F0EFBA00B5FD
S113842085B000F012F8022101910021009108E0CA
S113843000B585B000F009F80421019102210091F2
S1138440012108F0DBFA05B000BD531C8DF80C10B7
S1138450DBB20904090E8DF80D10002203A9029164
S11384607047E0B50291531C08210191DBB2002151
S113847000910122012108F0C1FA0EBD80B5C9B2F4
S1138480002914BF4FF4803200224FF4803108E0F9
S113849080B5C9B2002914BF4FF0807200224FF09A
S11384A0807108F077FA002002BD1206C9B2120AE0
S11384B042EA01611B06DA0902F4F01280B51143A5
S11384C041F0B0020F49ECE710B5FFF769FF022451
S11384D0A8B10D480068000E00F00F0002281CBF70
S11384E0032807280BD1094809490460096889034E
S11384F002D410218160002406490220086020462D
S113850010BD0000B8011F0104400840884008461F
S1138510884008408840084480B50FF21801097863
S11385208DF8001001226946FEF7CAF802BD00006A
S1138530FFFF0000050000008C890300608B03002E
S1138540C888030001000000DFF800F0ADDD03205F
S1138550DFF800F037DD0320DFF800F0A9DD0320A9
S113856038B504460D460CF05DFD012C02D1FFF731
S1138570EBFF02E02846FFF7EBFF18B10CF05EFDBD
S1138580012032BD0CF05AFD002032BD10B5C207E7
S113859082B01BD402884FF6FF739A4201D00A00BE
S11385A014D18408A400800722684EBFC2EA0140A7
S11385B0100C41EA004000900CF034FD042269469E
S11385C02046FFF7C9FF18B10CF038FD012016BD95
S11385D00CF034FD002016BD70B504460D46164659
S11385E004E00CF02BFD241D2D1DB61EB6B1012E8A
S11385F001D0A00706D535F8021B2046FFF7C6FFB9
S1138600A41C761E022EF1D30CF00CFD0422294684
S11386102046FFF7A1FF0028E3D001E0002070BD51
S11386200CF00CFD012070BD7047002070470CF069
S11386302BBD01207047704780B50FF24C10FCF73A
S113864025F8FEF799FF0FF24C10FCF71FF80AF01B
S11386505FFE0FF25010FCF719F80CF05BFF0FF2FD
S11386605010FCF713F80DF099F8A1A0FCF70EF8E0
S11386700DF0AAFC0FF24C10FCF708F8DFF8DC0848
S1138680FCF758F80FF24C10FCF700F8FFF7CCFF9A
S11386900FF24810FBF7FAFF0DF0DCFE0FF2481062
S11386A0FBF7F4FFDFF8B808FCF744F80FF24C10BE
S11386B0FBF7ECFFDFF8AC08FCF73CF80FF24C10CA
S11386C0FBF7E4FFDFF8A008FCF734F80FF25410CE
S11386D0FBF7DCFFDFF8E008FCF72CF80FF25C1086
S11386E0FBF7D4FFDFF8D408FCF724F80FF260108E
S11386F0FBF7CCFFDFF8C808FCF71CF80FF2681092
S1138700FBF7C4FFDFF8BC08FCF714F80FF26C1099
S1138710FBF7BCFFDFF8B0080CF056F90FF270104D
S1138720FBF7B4FF0EF09EFB0FF26C10FBF7AEFFED
S11387300EF0EDFE0FF26810FBF7A8FFDFF89008CB
S1138740FBF7F8FFDFF88C08FBF7F4FF0FF260107B
S1138750FBF79CFFDFF88008FBF7ECFF0FF27010CB
S1138760FBF794FF0EF073FF0FF27010FBF78EFF10
S1138770DFF86808FBF7DEFFDFF86408FBF7DAFFD1
S1138780BDE80140FBF786BF4D4143206172626939
S1138790746572004D414320696E64697265637447
S11387A0000000007265747279207461626C650067
S11387B0364C6F5750414E20667261676D656E741A
S11387C0730000006D756C74696361737420746167
S11387D0626C650077616B65757000006170706C28
S11387E069636174696F6E00666F726D2D656E6585
S11387F07267792D7363616E000000006E65747793
S11388006F726B206461746100000000736C6565B5
S113881070792062726F616463617374206865614A
S113882064657200676C6F62616C20616464726578
S11388307373207461626C65000000006C6F636187
S11388406C20736572766572206461746100000047
S1138850626F7264657220726F75746572204E4423
S113886020646174610000006368696C6420616461
S11388706472657373207461626C65007374616300
S11388806B206576656E74207175657565000000F2
S1138890436F4150000000004A50616B65000000C6
S11388A0436F6D6D697373696F6E696E6700000065
S11388B07363616E20726573756C747320666F7276
S11388C020636F6D6D697373696F6E65720000006C
S11388D044544C53204A6F696E0000006C6F6F70F3
S11388E06261636B206D657373616765730000007B
S11388F05544500070B5DFF860460546E0882A0606
S113890001D4062D04D140F0040005F07F0503E0F6
S113891011B94FF6FB7108402E46022E1CBF032EE0
S1138920042EE08008D0052E0DD0062E18BF072E89
S113893002D0F02100F043F9A570A07804280CBF00
S11389400120002001E00325F6E70AF0BAFCE088E4
S11389504FF6F4710840062E08BF40F0020004D020
S1138960022E14BF032E40F00800E08070BD10B545
S1138970F2B00FF0C3F90CF032FE0FF05AFE11F012
S113898042FF0CF09DFB12F03FF912F07BF912F05C
S11389905EFF12F0D6FF12F0DDFF13F078FD02F057
S11389A073F90120F8F735FC13F002FFFEF7D6FE49
S11389B0FAF7DCF9DFF8A0450020A0704FF6FE704E
S11389C0F8F768FD0020E08014F047F814F099FAF5
S11389D016F0ECFA17F0A9FD0EF080FC0EF02AFE5A
S11389E0BC237F22082142A8FEF7E6FB00F004F92D
S11389F001A817F03AFBBDF854014FF6FF71884205
S1138A0036D0BDF8040098BB082342AA0E210DF10C
S1138A10060014F040FB102344AA032114F03BFB8E
S1138A20082348AA022114F036FB08234AAA072186
S1138A3014F031FB10234CAA052114F02CFB16F082
S1138A402DFBBDF85421012114F006FBDFF8C827E3
S1138A50002116F01DFB032357AA002114F01BFB71
S1138A600DF10601401AADF8040001A817F072FBDD
S1138A70BDF8040000281EBF9DF802000028012054
S1138A80002100F0CFF872B010BD38B5DFF88017C0
S1138A900FF2341400200880FBF790FDFBF79CF9DB
S1138AA0DFF870074168C90703D5006810F0300F7C
S1138AB010D10FF2680529460020F9F752FA294629
S1138AC00120F9F74EFA2046BDE8344040F2AF11D8
S1138AD0F7F73ABEFEF74EFB20B14FF4DA712046A9
S1138AE0F7F732FEF9F7B3F80FF24C00DFF86844F9
S1138AF00CF000F9607004F108000BF0AEFEDFF832
S1138B001C1700200860DFF818170860FFF737FC0F
S1138B100DF09FFCBDE8314029E700005374616308
S1138B206B2F4861726477617265204D69736D6162
S1138B307463680D0A0000000000000000000000DB
S1138B4080B5FFF7A2FFBDE8024000200DF06EBC27
S1138B50DFF8C81608607047DFF8C416086070476D
S1138B60DFF8C4160860704710B50020F8F7C4FE9B
S1138B70DFF8B806007818B10FF23000FBF717FEE3
S1138B80F9F756F8F9F731FFFAF760FA02F0FFFF48
S1138B900AF04AFDDFF88C4604F108000BF0E6FE0B
S1138BA06078BDE810400CF0CDB8000039860000B4
S1138BB000000000DFF86C0640780CF0C3B80FF238
S1138BC00800F7F7C1BD000069702D737461636B11
S1138BD02E630000F8F754BCDFF84816897989073A
S1138BE058BFF8F737BC7047F8F74EBCF8F752BCDB
S1138BF0F7F7EBBF0068009004237F220C2168463E
S1138C00FEF7DABA80B5F7F7D1FFBDE80240FAF70C
S1138C10DBBBF7F7C7BFDFF818067047DFF80406B9
S1138C200078704770B50446DFF82C0306780470AA
S1138C300D46C188032C05D141F40041C18001F0E7
S1138C40DEFF02E0C1F30E01C180200004BF012059
S1138C500AF037FB2A4631462046BDE8704018F03A
S1138C60A1BCF8B506465E220021FBF770FBDFF8D5
S1138C70E8522878012806F1280421D0DFF8B475D9
S1138C801022B91C3046FBF700FB06F1100012F06D
S1138C903BFE06F1180012F051FE082207F1120102
S1138CA006F12000FBF7F1FAF8F7EEFB2080F7F766
S1138CB079FFA070A878E070F7F778FF20712CE0B6
S1138CC016F040F90746102207F114013046FBF76D
S1138CD0DCFA082207F1240106F12000FBF7D5FA9B
S1138CE0082207F12C0106F11000FBF7CEFA07F178
S1138CF058000423018821807F22807AA0700C21EF
S1138D000FF25850006800906846FEF755FA9DF837
S1138D10030020719DF80200E070A878032804D1B4
S1138D20A87900075CBF0520E070F1BD2DE9F04192
S1138D30044620000D4604D12846BDE8F04118F051
S1138D40CABC012C04D1DFF8F00418F0D6FC20E0F2
S1138D50022C20DB984E0021304604F028FF022725
S1138D6004E04146304604F051FF7F1C80465FEA30
S1138D70080010D0FBF77BFF00281CBF016A002904
S1138D80EFD0F9B2A142ECD1811C10222846FBF7A6
S1138D907CFA012000E00020BDE8F0812DE9FF41CC
S1138DA004460F46844D0021284604F000FF1DE0D0
S1138DB0FBF75DFF060015D03078800612D5002C35
S1138DC018BF002F07D03B4622463946B01CFBF79C
S1138DD077FBB84206D13388326AF169DBB2B01C42
S1138DE00BF08CFA4146284604F010FF80465FEAF7
S1138DF00800DDD10FF268400FC86C4684E80F000C
S1138E0000230022002168460BF078FABDE8FF81B8
S1138E103EB5694C0021204604F0C9FE15E0FBF77D
S1138E2026FF70B10178C9070BD5016A0291821C33
S1138E30C1690191002100910121837C00200BF084
S1138E4035FA2946204604F0E1FE05462800E6D11D
S1138E5000200290019000900023002200210BF0DA
S1138E6025FA37BDAA210170BB214170CC21817044
S1138E70DD21C1707047DFF8C4130A7882421CBF39
S1138E800870FAF7B6BA704710B5044619F0B7F887
S1138E9020B92046BDE8104012F0F3BA10BD00B569
S1138EA0F7B04FF48172002135A8FBF750FA35A8CA
S1138EB017F050F935A817F04FF9BC22002106A885
S1138EC0FBF745FA4FF6FF70ADF86400BC2306AA21
S1138ED07F210820FEF780F9042200216846FBF771
S1138EE036FA00F02DF80822002104A8FBF72FFA27
S1138EF0082304AA7F210520FEF76EF90822002129
S1138F0002A8FBF724FA082302AA7F210720FEF710
S1138F1063F911F0CDFC12F009FA00208DF8040079
S1138F20042301AA7F210320FEF756F926480BF0FB
S1138F30A1FCFFF71CFD0020FAF753FA77B000BD3F
S1138F4004236A467F210C20FEF746B90021DFF88E
S1138F50F0020BF04DBD000004F703206EFF032068
S1138F6040F803207AFA032076FF032038B5DFF8AF
S1138F70D052DFF8D04228460BF08AFDDFF8C80251
S1138F8000780C2810D02068142804D10120FAF7A6
S1138F9028FA002006E04FF4FA7128460BF028FD69
S1138FA02068401C206031BD002020600320BDE803
S1138FB03240FEF78ABB0000A2FA0320C0FE032061
S1138FC0C2FE0320C8FE03200CF70320F9F788BD76
S1138FD064F70320BAFE0320ACF70320CEFE03207F
S1138FE072FF032070B58F4C2078032888B07CD0A2
S1138FF0012803BF944800780C28702076D10823F8
S11390007F22052105A8FEF7D7F805A818F0D8FA9D
S113901008237F22072103A8FEF7CEF8082203A91C
S11390208A48FBF732F908237F22062101A8FEF7BC
S1139030C3F801A8F9F79BFE15F0E1FF15F082FFD4
S1139040054605F15806B07AFEF709FB3088F8F7B3
S113905021FA05F11400FBF713FAC1B205F114006B
S113906001F0F8FD05F1240001F0C3FD05F12C0029
S113907012F054FF0FF2F810FFF7BCFDBDF800002A
S1139080FFF7AAFD9DF90300F7F79FFD9DF8020085
S113909000F030F812F025FC11F014FC01F09BF9FB
S11390A0A078062809D100210320FFF7BBFD012287
S11390B00021002010F0C6FE17E0F8F7E1F9800562
S11390C002D102F04BFB10E0A078032818BF04285B
S11390D004D0022805D1A079C00702D402F085FB90
S11390E003E040F28151FFF76AFD00200BF033F9F1
S11390F008B070BD0021FFF7FDBB80B517F0BCFAC6
S113910013F0FFFE13F00EFF46488078062803D0C4
S1139110BDE801400EF085BE01BD80B5414801782F
S1139120032905D14A4909884FF6FF72914201D1BA
S113913093200BE08078042818BF702006D145489E
S11391400078042818BF052804D13D20BDE802405A
S11391500BF091B811F07BFDBDE80140FEF743BA76
S113916000B59FB007A8602100F092F807A8FFF7A8
S113917078FD0FF20010006800909DF848008DF80B
S11391800300F8F77DF9ADF800006A4625488078B9
S1139190062818BF9DF847008DF8020004237F219C
S11391A00C20FEF719F80FF2D00005A9D0E900232E
S11391B0CDE90523284818F046FA082305AA7F219B
S11391C00520FEF709F80FF2B8002049D0E9002382
S11391D0CDE9032303A80822FBF757F8082303AAC1
S11391E07F210720FDF7F8FF0FF29C001249D0E918
S11391F00023CDE9012301A80822FBF746F8082340
S113920001AA7F210620FDF7E7FF1FB000BD000083
S1139210B6F60320E881E00F00F8FF07B8FB03204F
S1139220C8FB032004F703201CF70320F3E3032007
S113923038F70320B0FA032040F7032093FF0320FC
S113924084E1032020F70320FCE103204CF80320F1
S1139250BAE10320A7FF0320E4F603200000000086
S113926000000000000000000000000000000000FA
S113927000000000000000000000000000000000EA
S113928000000000000000000000000000000000DA
S1139290002219F03BBC00002DE9F8430446FBF71B
S11392A06FF80546E01CFBF76BF80646601DFBF7FC
S11392B067F8804600274FF44060054208BF402706
S11392C04FF44C4005422ED0680658BF47F02007A3
S11392D04FF6FF794E4508BF47F0010705D0FFF769
S11392E083FC864208BF47F0020705F44060B0F5EE
S11392F0006F03D0B0F5406F0CD014E0C84508BF30
S113930047F004070FD0FFF765FC80450BD147F009
S1139310080708E00822611DDFF87C08FBF71EF847
S113932008B947F010073846BDE8F2832DE9F04F3D
S1139330ADB080461546FBF79AFC0646701CFBF759
S11393401FF88246701C0BF015FD3044441C611C50
S11393500120FBF745F8814600271AF440407CD0F1
S1139360B0F5004F11D0B0F5404F08BFA4F1080785
S113937000200090694620460BF043FF040021D1F1
S1139380384601F094FD88B967E0A01EFAF7F8FFAB
S1139390FFF77AFD0700EBD1701C0CF04CF80700C6
S11393A0E6D101210E20FAF70AF856E0002E18BF84
S11393B0002F52D0034600F074F800284DD001204D
S11393C0287065E0082C19D10098C0B211F078FB20
S11393D0054601A911F083FB8346BBF1000F16D1AA
S11393E025A9284611F03AFA002E1CBF002F0028A8
S11393F033D000F1100300F054F82EE0102C2CD1DF
S11394004FF0FF35DFF89477DFF894B7E5E711F014
S113941077FB38B9002E18BF002F1ED000F040F89B
S113942060B91AE0002E18BF002F16D03278711CD4
S113943005A8FAF72AFF00F033F870B1102C26D0F3
S1139440009BDBB24A4639464046FFF7EEF820B9A6
S11394504FF440401AEA000F01D1022018E000F056
S11394601AF819F0B1F878B900F015F812F06FF89D
S113947050B900F010F802F041F928B901210F2089
S1139480F9F79DFF042003E0284611F081FB012039
S11394902DB0BDE8F08F00232A4639464846704770
S11394A05B463A463146701C0BF0D3BF2DE9F04FB2
S11394B085B08046FBF7DBFB0546681CFAF760FFC6
S11394C00646E8788DF8020006F00709F00800F077
S11394D0010A300A00F001008DF8030006F440543C
S11394E000208DF801004FF0000B681CFFF7D4FE3C
S11394F0074617F0440014BF052004200121F9F7A2
S11395005EFF15B12878801E28704FF6FF6000EAD0
S11395100601681CFAF73DFF681CF9F75AFFD0B141
S11395204FF0040B002405B12C784046FBF7B7FB41
S11395300646681CFAF724FF07465FEACB7040F141
S1139540EF8000F04DFB801E5FEA8B71C0B201D545
S1139550801FC0B2E5E0BAF1000F0CBF002CB4F5D7
S1139560805F13D14EF6F7600640DFF838060078C6
S1139570012818BF03284FF6FF7408D0052818BF28
S1139580062804D0072806D00C282BD016E1B9F100
S1139590000FFBD130E0B9F1030FF7D117F003004E
S11395A003D1FFF721FBA042F0D117F01C00EDD04E
S11395B09DF8030008B14BF0200BDFF8EC050078B0
S11395C01AEA000FAED00DF1010239464046FFF70A
S11395D0ADFE022869D1B9F1000F64D1002D45D147
S11395E00024A2E75FEA090106D0B9F1010F0ED009
S11395F0B9F1030FD2D0E1E00C2801D1B807FAD5B4
S1139600B6F5004FD4D0B6F5404FF4D1D0E70A2FC9
S11396101CBF062F122F25D1780758BF4FF0010B1E
S113962010D5DFF888050088000404D5DFF880052C
S11396300078042815D0DFF87C050078022810D0C3
S11396404FF0410B16F4404008D0B0F5004FAFD0B6
S1139650B0F5404F05D14BF0020BA9E7BAF1000F6A
S1139660A6D1ABE0252FA3D0322FCEE74046FBF79F
S113967016FB064695F800A000F0B2FA0746A6EBE2
S11396800A00221805EB0A00411CE81992B2401C9A
S1139690FAF7FBFDAAEB0700C0B22F70311A89B2AA
S11396A000F0B2F840E7B9F1030F30D100F098FAB6
S11396B02844461C30460BF09DFD305C04282CD118
S11396C04046FBF7ECFA002D824689D02F7800F053
S11396D087FA019030460BF08DFD064601990198FA
S11396E0AAEB01012844891B6218811992B2491C12
S11396F0401CFAF7CAFDB81B2870681CFAF740FE34
S11397000146681DFAF745FEAAEB0601C7E710B942
S11397104BF0100B06E70128FCD00121102062E079
S11397200220211AC91D8DF800108442A1BF611CBA
S11397308E429DF800108E4240DB221A2844411CC0
S113974092B2E81DFAF7A1FD0DB185F800B004222C
S11397500021681CFAF7FBFD3946681DFAF719FE6B
S11397609DF8010018B10321404600F075FA681C09
S1139770F9F732FE18B10721404600F06DFAB9F14D
S1139780010F39D15FEACB7013D502A9404619F015
S1139790E8FF70B1FFF71EFA0146BDF80C008842DD
S11397A007D00EF0F1FA58B1BDF80C0011F069FEC3
S11397B030B96946404619F0DEF908B900201EE0C8
S11397C000F020F8404600F0FCFAB0F5004F15D147
S11397D0404600F019FB9DF80210044611F016FAF9
S11397E020B101211120F9F7EAFDE7E79DF8021005
S11397F0204611F020FA01E000F004F8012005B041
S1139800BDE8F08F9DF800104046FBF761BA2DE9E2
S1139810F64F85B082460521FBF78EFC0446504680
S1139820FBF725FA0490C01D019000200599DFF88C
S11398308853029008708346FFF7D6F9ADF800000C
S11398408046DFF87813FF200870EF1C00F0C5F99C
S113985004280CBF4FF00109D94600F0BEF90628D0
S11398600CBF01260026E00900F0010080F0010091
S11398708DF80C004FF67F70044000F0AEF9052817
S113988008BF4FF6FF7825D000F0A7F9032802D0CF
S113989056EA09001ED001215046FBF78EFA834692
S11398A0002201215046FBF79FFAB9F1000F09D0BD
S11398B05846FBF7DCF94FF6FF7858B10699007863
S11398C0087007E036B15846FBF7D1F910B1FAF742
S11398D05AFD804600F07EF9C0074AD500F07AF9B7
S11398E0800708D5082604F44060B0F5406F0CD01A
S11398F040F20B3107E0022604F44060B0F5006F3B
S113990003D040F20F3100F061F94146281DFAF707
S113991040FDA81D029032460199FAF7B6FCA81939
S1139920871D019880190190BDF80000404508BFCB
S113993044F0400404D001463846FAF72AFDBF1C1F
S11399409A480078800748BF44F4404404F44040F7
S1139950B0F5404F06D108228F493846FAF795FCF6
S1139960083706E0FFF736F901463846FAF711FDE5
S1139970BF1C00F02FF900F0050004280ED050465B
S1139980FBF78DF90646504600F036F9301A2107E8
S113999002D4C0B2672801DB44F48054504600F07E
S11399A03EF90199401A5FFA80F842463846FAF7C0
S11399B06CFC01984744804400F00CF9C0073DD585
S11399C0E008C7F17D016A1C00F00100561801008F
S11399D0029918BF123E00290ED079490978029BDA
S11399E081F0010108430090F2B2394650460CF070
S11399F01AF98046B8F1FF0F6ED0B8F1FE0F1BD1F3
S1139A0001200090A6F11202029BD2B239465046C0
S1139A100CF009F9804644F48054B8F1FF0F44F087
S1139A20080459D005215046FBF786FB40F0080294
S1139A3005215046FBF78FFB47440DE05046FBF7EA
S1139A402EF90499A0EB08000E18F6B232464146EE
S1139A503846FAF71AFCBF19504609F02EFD08B132
S1139A6044F010042146681CFAF793FC00F0B2F8A5
S1139A7000F00500042804F007060BD02EB9514865
S1139A800178491C0170E9700CE04F480178491CC9
S1139A900170E970032E05D100F0A2F8284447496B
S1139AA04078087000F096F800F00500042858D0BB
S1139AB0200756D50BF0F4FA10F1010F0CD0012E4B
S1139AC00CD1FFF7ABF8032808D0B9F1000F05D18A
S1139AD000F083F8032801D0002059E000F07DF85D
S1139AE0032806D15846FBF7C2F881460024002615
S1139AF027E0B9F1000F05D0DFF8A490FF2600207D
S1139B00102420E000F066F8C00604D510F0F8FF39
S1139B10814601260DE0684610F0E7FF5FEA000980
S1139B2003D14FF46C7100F051F8009800F07F00FD
S1139B30461C00F052F80824022802D1FEF777FDF3
S1139B4001E00BF0A1FA0290F6B201960020009019
S1139B502346781B411E4A46C9B2681C0BF0B7FB6A
S1139B6007445FEA0B0004D05A4601215046FBF734
S1139B703BF9781B401C2870781B7F2803DB40F2DC
S1139B80D33100F023F80599012008709DF80C00EA
S1139B9007B0BDE8F08F000040F70320FC5401003B
S1139BA004550100FCE10320F9E303200AF7032034
S1139BB006F70320A7FF0320E2FE0320F2E30320BD
S1139BC0FAE30320D6FE0320D5FE03200FF218008B
S1139BD0F6F7BABD504600F02CB8504600F039B83C
S1139BE0681C0BF0C7B8000069702D6D61632D68A7
S1139BF065616465722E630080B5FBF738F860B167
S1139C000178CA0705D4401D0BF0B4F8401DC0B25A
S1139C1002BD880701D50F2002BD092002BD38B559
S1139C200446FBF724F805462046FFF7E5FF2844E1
S1139C3032BD0021FBF764BA0A460021FBF767BA7C
S1139C4080B5FBF714F818B1017841F08001017078
S1139C5001BD0421FBF754BA0A46FFE70421FBF7D0
S1139C6056BA80B50521FBF767FA00F4406002BDDF
S1139C7038B50446FAF7FBFF05462046FFF7D9FF3F
S1139C80C00701D5E81D32BD05F10A0032BD80B51B
S1139C90FFF7EEFFBBE038B504460D46FFF7E8FFDB
S1139CA02946FAF776FB00F02AF84FF6FF718D4249
S1139CB006BF4FF6DF7101EA000240F020022046A1
S1139CC0BDE838400521FBF746BA10B50C46FFF74E
S1139CD0CFFF2146BDE810400822FAF7D6BA38B5BE
S1139CE004460D46FFF7BDFFA84207D000F007F871
S1139CF04FF2FF31084045EA0002E0E731BD05219B
S1139D002046FBF719BA2DE9F04104460D46FFF74A
S1139D1090FF0646F00704D48B210FF25420F6F787
S1139D2013FDB0071AD52046FAF7A1FF8046204656
S1139D30FAF7B5FF0746A0F10F0292B208F10F013E
S1139D4008F10900FAF7A1FAB91F89B22046FAF717
S1139D50BFFF06F0FD012046FFF76EFF4FF40061E0
S1139D602046FFF7BCFF4FF6FE708542204607D120
S1139D70FFF75FFF40F020012046FFF75DFF0AE098
S1139D80FFF757FF00F0DF012046FFF755FF294694
S1139D902046FFF780FF0120BDE8F08110B504469E
S1139DA0FFF75FFF48B1B0F5006F08D12046FFF719
S1139DB06EFF4FF6FF71884201D1012010BD0020D3
S1139DC010BD80B50521FBF7B7F900F4404002BD92
S1139DD038B50446FAF74BFF05462046FFF729FF3E
S1139DE0C00701D5E81D32BD2046FFF718FF054620
S1139DF02046FFF7E6FFB0F5404F0CBF6FF00700B9
S1139E006FF00100284432BD80B5FFF7E1FFBDE8E3
S1139E100240FAF7B5BA38B50446FFF70AFFC0079F
S1139E2003D5BDE83140FEF7DFBEFFF768FF054606
S1139E302046FAF71CFF0830690611D44FF440415C
S1139E400D4202D14FF6FF7032BD05F44061B1F509
S1139E50006F08BF001D03D0B1F5406F08BF0A3082
S1139E60BDE83240FAF78CBA10B50446FFF7E1FEBC
S1139E70000703D52046BDE81040C5E74FF6FE7045
S1139E8010BD2DE9F0471D46012610B140F6010032
S1139E9006E0002A1ABF032640F6214040F62100BE
S1139EA0002914BF4FF440414FF4004141EA000837
S1139EB0002010F0C1FD18B148F4805040F00808AB
S1139EC0089C16F0020714BF0F2009202018002157
S1139ED080B2FAF7E2FF814608B3FAF7E0FE824661
S1139EE04846FAF7C4FE52460021FAF730FA3146E2
S1139EF04846FFF7A1FE4846FAF7B9FE461D41461B
S1139F003046FAF746FAB01C002F14BF0823022388
S1139F1025B1224629461844FAF7B7F94846BDE860
S1139F20F087F8B504460D46681D002180B2FAF7A3
S1139F30B4FF060001D10020F2BDFAF7B0FE0746D7
S1139F403046FAF794FE3A460021FAF700FA042163
S1139F503046FFF771FE3CB13046FAF788FE2A46D8
S1139F602146401DFAF791F93046F2BD0000000089
S1139F7069702D7061636B65742D686561646572C9
S1139F802E63000000B583B048B100F072F8684653
S1139F90C17941F00201C171F8F7E9FE07BDF8F794
S1139FA0E5FE07BD80B5DFF8A80C4179092905D184
S1139FB0032000F015FABDE8014081E107291ED015
S1139FC0491E072915D8DFE801F00A0406040D200C
S1139FD02011042000E00320BDE8024000E2BDE8B7
S1139FE0014052E2BDE80240072079E2BDE80140A9
S1139FF066E1BDE8044040F2753101F084BAC07AEC
S113A00018B1BDE8014001F01BBA01BDDFF8400CF6
S113A0104179072900D0704780B5C07A032818BF5A
S113A02007280ED1DFF8540C008900F0F4FE08D0A4
S113A030FDF7D9FABDE804409621DFF8F80C0AF0E0
S113A040D7BC01BDDFF8380C00B5007883B020B16F
S113A050DFF8E40C17F0B4FA07BD00F00AF89DF835
S113A060000000F0FD008DF80000684617F0A8FA23
S113A07007BD04216846F6F769BC2DE9F843044698
S113A0808846DFF8009C5E2200214846FAF75FF913
S113A090102200214846FAF75AF905220FF254011A
S113A0A0DFF8AC5B0FF254064846FAF7EEF809F114
S113A0B028070220F870032038714FF6FF703880AB
S113A0C00020E8810DE018EA000F09D0B078F2789A
S113A0D021184844FAF7D9F8E88931880843E88117
S113A0E0361D30880100EED194F82A00B870BDE81E
S113A0F0F1830000656D62657200000001000010CC
S113A10002001008040020080800280210002B0197
S113A11020002C0140002D108000180800013D2073
S113A12000015D010000000038B504460D46FEF74D
S113A13075FD20B1BDE8324070200AF030B900F05E
S113A14009F800200AF02BF929462046BDE83440DE
S113A15015F062BE294620468FE7F8B500F08AF86C
S113A160002802BFDFF8FC0B00780C2826D1002160
S113A1701020FAF792FEDFF8D87A388208B918204E
S113A1801DE000200AF0D9F800210220FEF74AFD64
S113A1904FF6FB7000EA0501FFF7DDFF10F01DFB31
S113A1A0388AFAF764FD1022FF21FAF7D0F8314615
S113A1B0BDE8F8400522022009F0C2BD7020BDE8C8
S113A1C0F24000F0BBBDF8B5DFF8847A0446F889A4
S113A1D00D46160019BF00F04F014F2900F047004B
S113A1E0472801D0022019E0FEF718FD002802BF1D
S113A1F0DFF8700B00780C280FD1DFF8880A80F89C
S113A2002B502046FEF7F4FC0120F8713E7200202A
S113A2100AF099F8BDE8F14052E07020BDE8F24040
S113A2200AF091B870B500F025F8002802BFDFF8F5
S113A230340B00780C2818D1FFF78CFFDFF8444A60
S113A240DFF80C5A94F92C00FEF7D2FC10F0DAFA7D
S113A2506E611021204600F0FDFC0020E871287298
S113A2600AF071F8BDE870402AE0BDE87040702043
S113A2700AF069B804460D461646FEF7CFBC80B511
S113A280FEF7CCFC042802BFDFF8C409C07A00281A
S113A29003D100F097FE002000E07020BDE80240EA
S113A2A00AF055B820F08001042900D0704780B529
S113A2B00121FEF71FFBDFF88C1C0020087001BD94
S113A2C080B5FFF7BFFEF8F751FDDFF8B80990F845
S113A2D02B0020F08001042908D101210320FEF77E
S113A2E009FBDFF8500A0AF0D3FB02E00121FEF774
S113A2F001FB00F0C9FC00210220FEF793FCDFF80B
S113A3005019022008710120BDE80240E8E038B588
S113A3100446DFF83C09008A0D46FAF7A8FC10B1A0
S113A320204400F80B5C31BD2DE9FC4106460F4684
S113A33090461C46FFF786FEDFF81459687920B171
S113A340702000F0FBFC002043E011F0FAFA3046E4
S113A350FDF785F93846FEF74BFC4046FEF746FC10
S113A3600C98DFF84C6C0021FEF7C4FA308840F0FA
S113A370010030800020FEF72FFC0899204600F0F1
S113A38069FC07206871308840F400403080A87B65
S113A390400704D5DFF8280C00F02BFC04E0FFF79D
S113A3A068FE684600F025FC0A9811F0B7FD0B988A
S113A3B011F0D8FDFEF7A1FE012015F0C7FCDFF86F
S113A3C08C088078FFF7DEFDFEF7CAFE00F02EF958
S113A3D00120BDE8F681DFF878180720487170473E
S113A3E070B5DFF86C486679054600F04DFC012E27
S113A3F008D12079010005D0401E20710120BDE85C
S113A40070406DE0A079010012D0401EA0710AF0E6
S113A410D5FBDFF83858297800F034FF05F108003F
S113A4200AF0E6FA0820607128788000287070BD70
S113A430DFF8500890F82B00FFF734FFF8F796FC8C
S113A44029460020FEF7EEFBBDE8704000F065BD34
S113A45010B50C468AB0014608226846FAF705F89A
S113A4602022002102A8F9F772FF02AA08216846F7
S113A47019F0D0FA082202A92046F9F7F6FFE0798C
S113A48040F00200E0710AB010BD10B5DFF8C0471B
S113A490607A401CC0B21B280EDA6169C140C9074A
S113A4A0F7D56072FDF7DBF8E07958B900F0C9FB25
S113A4B0072807D0012206E0BDE81040002203214E
S113A4C000203DE20022002100200FF07EFEBDE8C6
S113A4D010404FF49671DFF8740C0AF089BA00004A
S113A4E02DE9FF410646684600F013FCDFF85C479F
S113A4F0DFF85C57DFF88C77DFF8248C00F005FC7C
S113A5006E7107F128066879401E062800F28780DC
S113A510DFE800F0041F505C5F8566004FF6FF77AC
S113A5206078E78078B1308801E00AF047FBB842F0
S113A530FBD0FEF75BFBA078FFF724FD0A206872CE
S113A540FFF7A3FF70E069690522032009F0F8FB17
S113A5506AE0DFF8FC1BE07809780840DFF85C1A51
S113A560097808420AD0A86920B94FF442714046DC
S113A570F6F7EAF8A9696846884755E000220821F9
S113A58005F12C00F9F762FF28B105F12C01DFF881
S113A590A807FFF75DFF05F12C00F8F7E8FB97F833
S113A5A05D30298807F13D0268460DF010FBDFF8A5
S113A5B0D01C10E0012014F00EF920B940F227312C
S113A5C04046F6F7C1F842F6E06104E041F2883112
S113A5D001E04FF4967104F108000AF009FA23E04F
S113A5E000F09BFC00F02DFB062807D100F01EF8BC
S113A5F00122002100200FF025FC0DE0072802D1E4
S113A60000F014F808E0A078FFF7BCFCF078FFF73E
S113A61049FE172000F0D6FCFEF7A2FD04E04FF43B
S113A62054714046F6F790F8BDE8FF8100210320FD
S113A630FEF7F8BA2DE9F04192B0804609F072FBBA
S113A64005464046FAF72BFB441B4046FAF70FFB3E
S113A6500619F6B21A2EC0F28E804046FFF7B1FBFF
S113A660B0F5004F78D04046FFF7ABFBB0F5004F94
S113A67072D0422200216846F9F769FE08AC2878B6
S113A680A07040466F78FFF7A3FB0146082206A896
S113A690F9F7FBFD1022A91C6846F9F7F6FD08221C
S113A6A005F1120104A8F9F7F0FD03214046FAF779
S113A6B027FDE07001214046FAF722FD6071022176
S113A6C04046FAF71DFDA0714046FAF7D0FA08306B
S113A6D0F9F756FEADF8200007F001002071F808E4
S113A6E000F001008DF840003809E07105F11A0707
S113A6F03544381DA8420AD23878122804BF787825
S113A700022804D1B81CF9F73BFEA0833F1D381D75
S113A710A8420AD238780F2804BF7878022804D1D6
S113A720B81CF9F72DFEE0833F1DB81CA8420BD2DC
S113A7303878082808D17A78112A05D2A276B91C6B
S113A7400DF12A00F9F7A1FDDFF80405407901288D
S113A75003D1684600F013F80DE0DFF8080600782E
S113A760012803D1684619F05DFA04E0052804BF06
S113A770684613F058F912B0BDE8F08100BF2DE926
S113A780F84FDFF8C894DFF8C8448046B9F80600EB
S113A79008F1200700F03FFB94F9020097F9061036
S113A7A00CBF4FF0010A4FF0000A8842F879B4BF99
S113A7B001250025421E9241D20F8DF80120E17837
S113A7C04A1E9241DFF8741C0978D20F8DF80020DC
S113A7D0062962790CBF01260026012A09D1022824
S113A7E007DBB878032804D1072903D198F840007F
S113A7F078B989E0387938B1B97E080004D008F115
S113A8002A0012F029FB20B9A07B00F0470047285A
S113A8107AD10022082104F12400F9F717FE78B94F
S113A8200022082108F11800F9F710FE40B90822A7
S113A83008F1180104F12400F9F790FD002863D110
S113A840A07BDFF840B4C0070CD500221021584685
S113A850F9F7FCFD30B9102241465846F9F77EFD60
S113A860002851D1A07B40070CD5002208210BF110
S113A8702000F9F7EBFD28B900F048F8F9F76EFD70
S113A880002841D1A17B09070BF1280003D50188D9
S113A8903A88914238D19DF801109DF800209DF826
S113A8A000302940324311409DF80120324382F0A8
S113A8B001022B4341EA0A011A40114324D0F978DA
S113A8C08170B979A17039880180414600F0B9F9E5
S113A8D007280CBFF88BB88B20801022F879E07021
S113A8E05846F9F7D2FC00F011F8F9F7CEFC4FF610
S113A8F0FE70A9F8060008F1180104F11C00BDE877
S113A900F84F0822F9F7C1BCBDE8F18F082208F11D
S113A91010010BF12000704738B5DFF8684304F1EB
S113A9202805A878FCF79BFE2888FEF75FF904F158
S113A930200000F05EF92046BDE83440102189E192
S113A940F0B5020085B040F09180C14DCD4C6879DE
S113A950012833D10022082105F11C00F9F776FD06
S113A960B8B9FFF7D9FFE87970B100F06AF90628A1
S113A97008D10022082104F11800F9F767FD08B195
S113A980062002E0072000E0022005B0BDE8F04008
S113A990A6E5287A68B1FFF7BFFF19F020FA012075
S113A9A015F0D4F90720687105B0BDE8F04000F057
S113A9B0D9BC05B0BDE8F040022011E5022903D15D
S113A9C005B0BDE8F040CFE1042904D105B0BDE8ED
S113A9D0F04012F0B3BF032941D1288AFAF747F9AE
S113A9E0EB8903F00806320004F128014FF6FF77E3
S113A9F00FD14FF0000C00281CBF30F81C20BA42C5
S113AA0008D10CF101025FFA82FCBCF1080FF2DB01
S113AA101CE00A88BA4218D018064CBF04F118008A
S113AA20002003909B074CBF04F110030023002077
S113AA3001900293102000902346CE7891F90410DF
S113AA40A87A0496FFF770FC16E01EB905B0BDE8BD
S113AA50F040C3E105B0BDE8F04070206EE1052987
S113AA600AD105B0BDE8F04013F000B8022903D1C3
S113AA7005B0BDE8F04061E105B0F0BD744840792F
S113AA80062804BF0720FFF72BBD704738B5704D6B
S113AA900446687903280DD10CF06AFE1CB1BDE8A8
S113AAA0324004201CE5092068714FF4FA61BDE8C6
S113AAB0344010E531BD66484079022804BF0420C3
S113AAC0FFF78EBC7047DFF8741C4A78002814BF67
S113AAD042F0010002F0FE0048707047DFF85C0CA1
S113AAE040786BE070B50C0086B00646DFF8085C71
S113AAF003D11A20287000203DE068461421FEF797
S113AB00C7FB112CA8BF102408208DF800008DF875
S113AB100140224631460DF10200F9F7B6FBDFF899
S113AB201C6CA21C92B2694606F11A00F9F7ADFB3F
S113AB303019122100F81C1F02214170DFF8181C83
S113AB400A88120A82700988C170717809070ED5C3
S113AB500F21017102214171DFF8EC1C0A88120AED
S113AB6082710988C1717078000748BF241D04F1FF
S113AB70200028700120FFF7A6FF06B070BD10B5B5
S113AB80040004D0FEF74AF808B1702003E0204620
S113AB9000F005F80020BDE81040F8F70DBCDFF820
S113ABA09C1B4A78002814BF42F0080002F0F7000A
S113ABB048707047DFF8840B4078C00800F001004B
S113ABC0704780B522484079022818BF03280CD06A
S113ABD007280CD1DFF8640B4078C00705D414F0C3
S113ABE0B1F990F85600400601D5012002BD0020BD
S113ABF002BD01460822DFF8640CF9F746BB10B524
S113AC00DFF8AC432088000403D440F2375100F04D
S113AC10A1FBDFF8E41A1A2008700321DFF81C0BEB
S113AC200170417841F0200141702078C00703D4BD
S113AC3000F007F8022803D1BDE810400DF074BA03
S113AC4010BDDFF8F807007870470000B4E1032076
S113AC5030F8032070B50D46112D0446A8BF102509
S113AC60DFF8D86A10220021B01CF9F770FB2A46DD
S113AC702146B01CBDE87040F9F707BB74F8032007
S113AC8095FF0320D0F7032038B5DFF8D45BDFF855
S113AC90244400206871E8724FF6FE70FDF79CFFB3
S113ACA012F02FF94FF6FF70E0800822002105F121
S113ACB01C00F9F74CFBFF2020710020DFF8A41BD7
S113ACC0BB4D08702888C0F30E0028800AF087FC6A
S113ACD00DF0AFFCDFF8901B002008700DF00EF8AB
S113ACE011F0D5FB11F0B9FE10F0B1FD0DF040FAF2
S113ACF00020FFF7E8FE0120207000F006F8288805
S113AD004FF6FE710840288031BD04F1080009F0B7
S113AD10BFBE80B5DFF89C13C9884FF6FF7291421D
S113AD2001D1002002BD0146DFF8400B16F0E5FC1E
S113AD30012002BDC8E1032038F7032010B5044602
S113AD40DFF81C1B00200882FDF768FF20B92046AD
S113AD50BDE8104009F0F1BABDE81040012100201F
S113AD60FDF760BFFCE10320F8B5DFF8F45A288A48
S113AD70F9F77DFFFF240027060014D00020315C82
S113AD80A21F9142BCBF8C1DE4B2401C1028F6DB0C
S113AD900020315CA142BCBF7F1CFFB2401C1028C4
S113ADA0F7DB380003D1BDE8F2400120C6E709F023
S113ADB005FF90FBF7F107FB1101C9B20020325CDB
S113ADC0A24206DA0A0002D10B30A87204E0491E3E
S113ADD0C9B2401C1028F2DBBDE8F14070B5DFF8C1
S113ADE0804A208AF9F743FF0546002609F0E6FE6B
S113ADF000F011F81EBF002D25F81600761C082E51
S113AE00F4DBA17ABDE87040012000FA01F10522CB
S113AE10032008F095BF4FF6FF718842704770B564
S113AE20044620000FBFDFF8480A0120A040084371
S113AE30DFF82C1A98B0154648611E465E220021A0
S113AE406846F9F784FA1E99082208A8F9F71DFA4A
S113AE50324629466846F9F718FA1F9E10223146F1
S113AE600DF12D00F9F711FA1D9D0822294604A8B9
S113AE70F9F70BFA20998DF82A4030460FF052FD6D
S113AE80284611F04BF81C9847214FF6FF72904268
S113AE901CBFADF828004F216846FFF745F918B0EC
S113AEA070BD01461022DFF8CC09F9F7EEB938B5C8
S113AEB00446DFF8AC5900F01CF820B12046BDE888
S113AEC0324019F0B2BA05F1340032BD38B5DFF8BA
S113AED0905904466879042802D100F00AF810B1A8
S113AEE06879072804D12046BDE8324000F04CBD03
S113AEF031BD0022102105F13400F9F7A7BADFF8BB
S113AF003C050078072805D0DFF854094079022869
S113AF1002D10320FFF7E4BA704710220021DFF8C2
S113AF205409F9F714BA80B5FFF7F7FFDFF83009D1
S113AF304079042804D1BDE802400520FFF7D0BAC7
S113AF4001BD0000ACFF032010B55A4C60791B28EA
S113AF5011DB0B20607104F1200009F099FD00F071
S113AF60F0F8DFF8FC180020C8720021BDE810409A
S113AF700420FDF757BE13F0E5FF5A3012F07AFCB7
S113AF8001466079C140C90748BF0FF0AAF860794B
S113AF90401C6071322104F12000BDE8104009F02A
S113AFA027BD80B5FCF758FBDFF8B418087301BD62
S113AFB00AF70320DFF8C40870470000A4FF032049
S113AFC0F0F70320002100E001212DE9F041DFF832
S113AFD090680446707907280D464ED1F07ADFF860
S113AFE0D48001000AD0062818BF072845D108F1EB
S113AFF00800BDE8F041002109F0FABCDFF88078D0
S113B0003878002814BF00200220B071280028D10D
S113B01000F0B9FB07207071DFF868080188C1F3FC
S113B0200E01018000F02BF84FF6FF70A8F806001F
S113B030DFF808040078022818BF0FF023FE082266
S113B040002106F11C00F9F782F9387848B90CF0B0
S113B05055FEDFF81018002008704FF6FE70FDF75B
S113B060BBFDDFF81468802200213046F9F76FF940
S113B070B4703571BDE8F0411EE0BDE8F08180B5E3
S113B08011F03FFF0AF0ABFA0DF0D3FADFF8D8174E
S113B0900020087011F0FBF911F0DFFC10F0D7FB71
S113B0A00DF066F8DFF8DC0701884FF6FE721140F8
S113B0B0018001BDB4E1032038B5DFF8A417A44C26
S113B0C0DFF8B4570020C872FF202071FFF71DFE7F
S113B0D00120687008220220287000214FF6FF70BA
S113B0E02881A5F8440005F10A00F9F730F9FFF7C3
S113B0F0A8FDE87020F08000042807D10121032076
S113B100FDF7F8FB04F1140009F0C2FCDFF8700746
S113B1100078BDE83240002814BF02200120B9E0C5
S113B120ACB8000080B5DFF8600709F0B1FC00F0AE
S113B13008F8DFF82C170020C8721220BDE802407E
S113B14040E7DFF83407C078FFF7ACB8BCE1032070
S113B150C4FB03202DE9F041DFF80457DFF818475A
S113B160EF7A13F0EFFE00280FBF012690F8560087
S113B170400900F00106207910B10020E8727CE05B
S113B180022FDFF8CC8121D12078010032D0401E7B
S113B190DFF8EC162070C0B2097880B900291EBF10
S113B1A0DFF8E8060078002803D00CF0A7FD0220A1
S113B1B020700020DFF8AC160870012003E000299D
S113B1C014BF02200120BDE8F04163E0A87901002A
S113B1D018BF012F0ED0401EA87109F0EFFC617852
S113B1E000F050F800F0BAF80420E87260788000AB
S113B1F0607042E0FDF712FD052804BFA078142812
S113B20008D114F0B3FC28B10020E87214F04DFC0E
S113B21015200BE0FDF702FD05280AD113F0CCFE42
S113B22038B10020E87214F046FC1620BDE8F04165
S113B230C8E6FDF7F3FC052812D1FFF702FD02284A
S113B24018BF06280CD15EB118F0C9FD0020E872C1
S113B250FDF786FFBDE8F04100210320FDF7E2BCC5
S113B26015F063F910F076FB0820E872002108F16C
S113B2702000BDE8F04109F0BBBBBDE8F08100004F
S113B280400D03004FF47A72514390FBF1F201FB3D
S113B290120170472DE9F0410646DFF8B48086B00C
S113B2A008F1080009F0F4FBDFF8B455012EEE7242
S113B2B004D045D3032E0FD006D341E000200EF076
S113B2C011FE40F2EE2104E001200EF00BFE40F2EC
S113B2D0E24100F043F837E0DFF89C6501A906F18C
S113B2E00A0016F00AFA41F6583100F037F8F41C57
S113B2F0524F2078FEF7D6FF3878042808D1DFF8BB
S113B300901501200870962108F1140009F070FBD3
S113B310607830B9082206F10A0105F11C00F8F73B
S113B320B4FF387896F8312004280CBF0123002399
S113B3300020009006F1210101A80EF046FE03E072
S113B34040F6180100F006F806B0BDE8F0810000F0
S113B350B4E103200FF25450F5F7F6B908F10800F0
S113B36009F046BB2DE9F041344D2878062882B017
S113B37003D140F61E01FFF7EDFFDFF8E444DFF8E8
S113B3801465DFF8F4840020E07208F1020706F186
S113B390080009F07DFBFFF749F9B87818B1FFF709
S113B3A06EFE0CF0ABFCDFF8C004007868B9F888D6
S113B3B008F10A0116F042FC08F134010A7B8B689B
S113B3C000924A68096817F0D7F82878042804D14D
S113B3D0DFF8BC140020087012E002280CD1DFF85A
S113B3E0A4040078C00758BF19F0B4F8387819F0ED
S113B3F081FA18F0DEFC03E0032808BF19F0AAF86C
S113B400FDF7AEFE3878122806D10B20707106F1D4
S113B410200009F03DFB0CE011280AD1FCF71CF9CF
S113B4200146207B884204D04FF47A72032113F042
S113B430A3FEBDE8F34113F0C3BD000006F70320EB
S113B44070B5DFF81C44DFF83004E17A491E0629A0
S113B45000F108054FF6FF7651D8DFE801F02539F1
S113B4603E1950040C000020E0724FF6FE70DFF825
S113B4702814088008E0DFF81C5405F1140009F0D2
S113B48007FBEE800020E0721420BDE8704099E5CF
S113B490C01C417811B10020E07270BD0078FEF745
S113B4A001FFBDE8704007E62888B0420ED0A87CB2
S113B4B0022803DA287E202808DB01E003281ADAB0
S113B4C0DFF8D813287E0978884214D2022013E0CA
S113B4D02888B0420FD1022003E0A98FB14203D1E2
S113B4E00320BDE8704035E600F144013C222846C3
S113B4F0F8F7CBFEAE870320BDE87040CAE6BDE88E
S113B500704040F6AB010FF2A430F5F71DB9D449F1
S113B510C97A032905D1002818BFFFF723BF0320E8
S113B52018E6704738B50D4604462888FFF773FCC3
S113B53027D02B7E217E05F1130204F1130018F0AD
S113B540D2FC10B101281EDB1BE0A17CA87C884240
S113B55021D12888C0F30900411E20888941C0F305
S113B5600902501E8041C00FB0EBD17F15D1E868AD
S113B570E26801021302090E1B0E8B4205D09942A8
S113B58001DA012032BD002032BD0BB9904202D154
S113B590298A228A91428041C00F32BD70B5154676
S113B5A082B004461E463C22F8F76FFE2846FEF79A
S113B5B00FFC01460822A01CF8F767FEB27B716BF2
S113B5C004F11900F8F761FEB07B84F8290000202B
S113B5D0B16EF8F705FF44F82C0F0020F16EF8F770
S113B5E0FFFE606068460FF027FA28B17068009982
S113B5F0814238BF0FF0B7F97068A060B07C207347
S113B60073BD2DE9F04F8B460BF11C0691B08046BB
S113B610B06D0190022140460BF1C004F9F770FDB2
S113B6202568074629460020F8F7DAFE814695F892
S113B63006A06A790198514618F08EFC10B914F0EE
S113B640E1FE55E030880199ADF8080005220DF1BE
S113B6501B00F8F71AFE8DF820A078B216F076FEDB
S113B660074616F09BFE24798246204616F096FE85
S113B6700546308880050BD189480268100007D040
S113B68069460BF11300904710B19DF8000003E0E8
S113B6905046A84288BF28468DF81A00E019ADF834
S113B6A0180029F07F4005909DF81A0000B3724EEF
S113B6B006F1080102A8FFF735FF60B13C2206F14C
S113B6C0080106F14400F8F7E0FD5B46424602A992
S113B6D006F108000AE006F1440102A8FFF722FF80
S113B6E030B15B46424602A906F14400FFF756FF1B
S113B6F011B0BDE8F08F0000ACFA032070B5044629
S113B70008465749C97A032915460CD15A4E0822CE
S113B71006F10A01F8F722FE28B9F06BA84204D119
S113B720706B844205D2002070BD3CBF281A4028AB
S113B730F9D27463F563012070BD0000B0FA0320F0
S113B7404D48836B934201D3002070470181511C03
S113B7508163012070470000D8E3032080B5FDF722
S113B76039FA4D49088000F00EF83D48072141712F
S113B7700621C17240F2DC514A4809F039F9BDE8AA
S113B78001400EF085BB00210520FDF74BBA7FB5C3
S113B7903348C17A062927D10021C17200253948CE
S113B7A0414E018841F4004141F001010180032030
S113B7B00021FDF737FA3B4809F06AF90FF0B1FAB6
S113B7C00CF0B2FC0FF06EFB04460AE032686946E6
S113B7D002EBC50015F091FF022168460EF095FCBE
S113B7E06D1CEDB2A542F1DB7FBD10B5FFF7CBFFB9
S113B7F01B48284C07214171C172FDF7EBF900F495
S113B8007C40E080FFF71DFA042804D1002104F1F4
S113B810140009F0EDF80EF09FFC04F10800BDE8F7
S113B820104040F2DC5109F0E3B880B50C48C17A0D
S113B830072908D10021C172FEF7F9FEBDE80240D4
S113B840184809F025B901BDDAE303200448C07A99
S113B850072804BF0A20FFF77DBC7047C2FA032003
S113B86030F8032076FA032075FA03204CF80320FD
S113B87000F8FF0764F8032074F803207EF803201F
S113B88078FB03200AF70320D4E10320EAFB03201A
S113B890ACFF0320B4E103209CE2032085E20320F3
S113B8A074FB0320BCE1032034DF03206A6F696E5C
S113B8B02E63000070B513F045FB304C90F8560031
S113B8C000074CBF25780025284608F0EFF906004C
S113B8D00BD008F027FA2A46211DF8F7D6FC30468B
S113B8E0BDE870400121FBF75CBE70BD30B585B08A
S113B8F00446F9F7BCF9451D284609F03BFA285CD3
S113B900072821D1FDF766F94FF6FF7188421EBF63
S113B9101B4C207803282ED0042818BF07282AD0CF
S113B920184D284608F0C0FF28BB2078062802D00E
S113B93014F068FDF8B109F041F900F07F00411CF2
S113B940284609F055F816E0042814D12046FEF7DD
S113B95038FAB0F5404F204605D1FEF739FA69466A
S113B96015F0CBFE04E0FEF74FFA694615F09FFE92
S113B97068460EF019FC05B030BD0000ACFA032097
S113B98006F7032030E203202DE9F04794B0804607
S113B9900121F9F7B5FB824602214046DFF8787CA5
S113B9A0F9F7AEFB38704046FEF753F9072804BF99
S113B9B097F90000F7F712FD01F059F800F00500BF
S113B9C0042803D14046F7F706FDDDE00521404693
S113B9D0F9F7B2FB0006C00E10F0010533D0404663
S113B9E016F02FFB16F05BFD6946404617F0B9FED2
S113B9F048B3FDF7EFF8BDF8041081422ED140465C
S113BA00F9F735F981464046FEF7F6F80446404614
S113BA10F9F745F99DF80010001B461AF6B209EB38
S113BA20040032460144F8F730FC311989B240462B
S113BA30F9F74EF9BDF802104046FEF72CF901F073
S113BA4016F801F00FF8404609F0ACFE10B340467A
S113BA5009F0BCFE5FEA000813D195E09DF80100EF
S113BA600228FADB404617F0A2FE4FF6FE7140466C
S113BA70FEF749F900230022FF21404600F08BFC29
S113BA8082E052460121F9F742FB3A78022140460E
S113BA90F9F73DFB02A9404617F040FE002873D099
S113BAA00DF1130010F0EFF900286DD100221021E0
S113BAB00DF12300F8F7CAFC002865D19DF8230096
S113BAC0FF280CBF142012200121F7F778FC25B1C0
S113BAD002A9404600F03FF956E0DFF8785C287888
S113BAE050B102A800F079F830B16A6810004BD068
S113BAF041460020904747E09DF83800112843D183
S113BB0002A819F0F1F800283ED0DFF84C2CBDF85B
S113BB104C00128890421EBFDFF8402C12889042DD
S113BB201EBFDFF83C2C1288904219D10DF123007E
S113BB3015F0F2FD40B30DF12B0015F06EFD20B9A8
S113BB400DF12B0015F08DFDF0B10DF1130015F082
S113BB50E3FDC8B1002202A940460BF021FE13E028
S113BB6044F64C5188420FD19DF82300FF280CBFA6
S113BB700022424602A940460CF0EAFE20B14046AB
S113BB8016F05FFA16F08BFC14B0BDE8F087F0B540
S113BB9093B00FF20C64DFF8805ADFF8B86C15E04C
S113BBA00021304602F03CF807466FF07F00287011
S113BBB06946384617F0B2FD20B940F20911204613
S113BBC0F4F7C2FD6946384600F0C5F8304601F086
S113BBD0D9FF0028E4D013B0F0BD38B5DFF8784CB5
S113BBE0218801B300F130052978112909D119F010
S113BBF07BF830B12088698A81421CBFA98A8142BE
S113BC000FD0287806280ED16868F8F7BCFB218885
S113BC10884206D06868801CF8F7B5FB2188884202
S113BC2001D1012032BD002032BD2DE9F041DFF801
S113BC30244B0546207894B08846B0B32846FEF7D6
S113BC4008F8032831D008F11B0708F13406787D81
S113BC503A280DD130680078B074643825D0213882
S113BC60032822D9163820D0801E01281DD911E0BE
S113BC7011280FD1404619F037F858B1308A44F6EC
S113BC804C5188421FBF40F2222188424FF2BF012B
S113BC9088420AD06946384615F010FD38B1FCF7E1
S113BCA099FFBDF80010884201D100201AE03878CD
S113BCB0FF280CD12846F9F732FA050011D001A962
S113BCC017F02CFD01A9284600F057FD03E041467A
S113BCD0284600F052FD6268100002D02946002078
S113BCE09047012014B0BDE8F0812DE9F04780466B
S113BCF00D46FDF794FF0646686BB11D471A404692
S113BD00F8F7CDFF0446301DF8F73DFB8146404669
S113BD10F8F7ADFF696B611A00EB010AE86A28388D
S113BD20B11D8842BFB203D040F2671100F034FA6B
S113BD30696B1FFA8AF2B01DF8F7A7FAE11B89B202
S113BD404046F8F7C5FF301DA9EB0701BDE8F047F1
S113BD5089B2F8F722BB2DE9F84380468946FEF7FD
S113BD6083F8064648460FF0B9FCC8B94FF6FE758D
S113BD70AE42DFF8A478DFF8B84C03D009F10B0029
S113BD8020607E804946404600F00CF80021216086
S113BD907D8028B14946404600F004F80028F9D1D6
S113BDA0BDE8F1832DE9F04F82468B4697B00BF145
S113BDB01B0015F0D6FC06460BF11B0019F026F803
S113BDC0814666B95046FDF734FF000707D50BF1ED
S113BDD01B000FF0F4FBFF2818BF012500D100253C
S113BDE05046FDF726FF00070BF10907DFF8284846
S113BDF018D5002E08BF002D14D1B87CFF2811D00F
S113BE000BF11B010BF10B0010F045FB50B96088DE
S113BE10694615F04CFC53466A460021012019F08E
S113BE20CBF901E155EA06004FF6FE782AD05046D8
S113BE30FEF71AF80546454509D15046FDF7C1FFFE
S113BE40B0F5004F03D15046FDF721FF05464545A7
S113BE5018D028460BF098FF18B128460FF0FEFAC8
S113BE6080B10BF10B0015F043FC20B90BF10B0072
S113BE7014F015FE30B101232A460BF11301002002
S113BE8010F096FD5046FDF79CFFFF25B0F5404F9E
S113BE90504604D1FDF79CFF00F001FB09E0FDF7DB
S113BEA090FFB0F5004F05D15046FDF7ADFFF7F711
S113BEB0D9F9054694F9001028460FF002F959EA19
S113BEC006004DD00BF12C00017929293ED1397897
S113BED0002902BF006880786D282DD15046F8F7FC
S113BEE0DEFE0021F8F7D9FF0028814699D050469C
S113BEF0F8F7D5FE04465046F8F7B9FE054648461D
S113BF00F8F7B5FE22462946F8F7BFF904A94846D2
S113BF1017F004FC04A94846FFF7E7FE04A94846C5
S113BF2017F0FCFB04A94846FFF77FFE30BB04A9C9
S113BF30484600F0A0F821E059465046FFF7D5FEE8
S113BF405946504617F0EAFB01206EE05946504628
S113BF50FFF76BFE90B95946504600F08CF80DE09F
S113BF60DFF8D00A0078022808D17878022805DAA8
S113BF705B4652460021032019F008F900F046FB05
S113BF8000F0010080F0010030434DD178780228A0
S113BF904ADB0BF10B0015F0BFFB002844D10BF179
S113BFA01B0015F0B9FB00283ED1002210210BF133
S113BFB00B00F8F74BFA002836D10BF11B0015F0F3
S113BFC0FBFB88BB0BF11B0015F0FDFB60BB0BF109
S113BFD01B0015F0D1FB38BB7878401E78705146B1
S113BFE0584617F0A5FB5046FDF72AFEB87CFF28FB
S113BFF010D14FF6FF715046FDF785FE08F0DEFDC7
S113C000DFF8342A127801219140491E01EA000325
S113C010022205E041465046FDF775FE0023FF224B
S113C0205946504600F08DF9002017B0BDE8F08F56
S113C030F8B504460121F8F7C0FEDFF8185810B926
S113C0400022214611E001212046F8F7F5FE0646BC
S113C0500021F8F722FF07000CD0F8F708FE32465B
S113C0602146F8F798FF002239462846BDE8F840F3
S113C07001F0A5BDF1BDF8B50D4605F13006044645
S113C08037783A2F13D0112F0FD17068801DF8F72D
S113C0907AF960B92888B0F5A06F0FDD2B462246E7
S113C0A00021022019F072F8F1BD062FF2D12946C1
S113C0B0204618F04FFD0028ECD0F1BD694605F18B
S113C0C01B0015F0FBFA08B3BDF80000DFF86C198B
S113C0D0081808281AD2112F5DD1DFF86419BDF8A9
S113C0E00000097800F0070001F00701884252D1EE
S113C0F0FCF770FDDFF84C19098888424BD12846BB
S113C10018F0F2FD284612F0AAF9F1BD062F39D035
S113C110112F15D0292F3AD03A2F3CD12888042842
S113C12039DB70680078B075042170684078F07568
S113C130284618F0C9FC2946204600F054F8F1BD01
S113C140284618F0D1FD30B32046FDF782FD0328C0
S113C15004D12946204618F0DBF8F1BDB08A44F634
S113C1604C51884209D1E87EFF280CBF00222246A8
S113C170294620460CF0ECFBF1BD294620460AF086
S113C1802BF8F1BD2946204619F03DF8F1BD40F2E7
S113C190772100F001F8F1BD0FF20400F4F7D4BAEE
S113C1A064697370617463682E63000070B50D4632
S113C1B00446E86BB0B12046F8F759FD0646204620
S113C1C0F8F76DFDEA6BB5F840103044801A8142EF
S113C1D003D040F28221FFF7DFFF2846BDE870401C
S113C1E008F050B870BD2DE9F041884608F13C05CF
S113C1F098B006462868002878D0A97A012956D034
S113C20080296FD141463046FFF7D0FF08F11B006B
S113C21015F0A7FA070008D0102208F11B010DF150
S113C2202300F8F732F8002400E008243046FDF734
S113C23000FDC00648BF44F020043046FDF7F9FC79
S113C240DFF804683388C006A88848BF44F0200497
S113C250834208D2C21A286892B200211844F8F71F
S113C26076F83088A880002FA888059014BF08F1BC
S113C2701B03002328680490224600200390002119
S113C280812002904020019008F10B00009006A844
S113C29018F04CFD040029D0FDF7D2FC00200090DA
S113C2A0FF23012206A9204600F023F81EE000F136
S113C2B01C056A468021284619F011F8B0B100F037
S113C2C0A5F9000712D50021284615F0F7F968B939
S113C2D09DF800000123002205F1080110F03CFC48
S113C2E0012803D141463046FFF760FF18B0BDE88E
S113C2F0F081F8B504460D4616461F4618F07CFC3E
S113C30005F11B0015F02DFA20B905F11B0015F0FD
S113C31053FA30B11EB100F0C6F80120F2BD00207E
S113C320F2BD36B105F11B0018F070FD08B100F044
S113C330BAF8069B3A462946204601B0BDE8F040CB
S113C340FFE7F8B5044601F11B0715461E463846BB
S113C35015F012FA18B9384615F01EFA28B1F87B10
S113C360012804BF204607F09FFA384615F02BFA3F
S113C37018B9384615F000FA10B1FF2D08BF002592
S113C38032462946387801B0FF282046BDE8F040FF
S113C3900CBF012300232DE9F0410D46FF2D92B07F
S113C3A0044616461F4608BF0225FDF742FCC00797
S113C3B04FF6FE781CD52046FDF753FCB0F5006F10
S113C3C016D100F02BF9404504D02046FDF731FC8E
S113C3D080060DD50021204600F040FA00285BD0ED
S113C3E0012805D117220621204609F0DFF82FE0A5
S113C3F0002F14BF152013200121F6F7E0FF0521BB
S113C4002046F8F799FE00070CD46946204617F039
S113C41085F938B16846FFF7E0FB00F0010080F0D1
S113C420010700E001272046FDF71BFCB0F5006F73
S113C43003D0B0F5406F13D029E000F0EFF8404589
S113C44008D1C4484268100002D021460020904719
S113C450012021E000F0E2F80EF0F4FF38420EE093
S113C4602046FDF705FC00F01AF8FF280FD0DFF88E
S113C470DC15096811F81000400708D5002F06D014
S113C480204606F05AFF401E8041C00F04E03246A9
S113C4902946204609F08AF812B0BDE8F081014629
S113C4A000200EF0CFBC29462046C1E538B504462D
S113C4B025882846FDF7BDFB00F0050004283CD084
S113C4C02846FDF7B6FBC00726D52846FDF7C9FB6D
S113C4D0B0F5006F20D12846FDF7D9FB4FF6FE7169
S113C4E0884204D02846FDF7A4FB800614D5012118
S113C4F0284600F0B3F968B101280DD1A17801F004
S113C5000F01C1F106018840172110FB01F0A08042
S113C510BA2032BDA92032BD2846FDF79AFB012876
S113C5200BD128460DF075FC010002D020801820A4
S113C53032BD20880028FAD132BD002032BDF8B5C2
S113C54004460D466E1EB641FDF78BFB07460521DA
S113C5502046F8F7F1FDF60F00F00700032815D187
S113C5602046F8F784FB441D204608F003FC205CB9
S113C57004284AD1FCF752FB032846D10EB118F027
S113C580B0F82846BDE8F24007F075BE3EBBB7F5EB
S113C590006F3AD100F042F8402D064615D100F064
S113C5A035F8C00711D5B0050FD12046FDF741FB82
S113C5B00007354603D530460BF09AFF054628465A
S113C5C015F0B4FC002115F028FC4FF6FE708642ED
S113C5D01BDABDE8F44001210920F6F7F0BEFF2084
S113C5E0B7F5404F05D12046FDF742FBFFF757FF53
S113C5F006E0B7F5004F03D100F010F8F6F732FE6D
S113C600BDE8F44000210EF05CBDF1BDDFF840044C
S113C6100078704700000000E2E303202046FDF7A5
S113C62036BB38B50446FDF71CFB0546DFF80404A9
S113C6300078032818BF042805D0022812D1FFF778
S113C640E5FFC0070ED42046FDF7F3FA00071AD41D
S113C650B5F5006F08D1FFF7E1FFDFF8F81309889B
S113C660884210D0002032BDB5F5406FFAD1204683
S113C670FDF7FEFA0822DFF8E013F7F76FFE401E1D
S113C6808041C00F32BD012032BD2DE9F8438146FF
S113C6900E46FDF7E6FA00250746B7F5006F03D10D
S113C6A04846FDF7F4FA01E04FF6FE70002FDFF87C
S113C6B0AC73DFF8AC431BBF4FF6FF7188424FF0F9
S113C6C00108A84639786068491C08186060484623
S113C6D0FFF7A7FF58B1402E08D12078401C2070E6
S113C6E0C0B2042803DB0720FEF76CFC2570300081
S113C6F006D10125B8F1000F0FD001210B2015E060
S113C700312E08BF0026F5D08D2EF3D1B8F1000FDD
S113C71014BF0C200820012108E030000CBF0620C3
S113C72007200121F6F74BFE39780A20F6F747FE79
S113C7303146484607F06EF950B93146484608F08C
S113C74065FF28B92A4631464846BDE8F843F6E66F
S113C750BDE8F183C4FB0320D6E30320D8E3032020
S113C760DAE3032038B504460D4609F021FC2946D6
S113C7702046BDE838400022E1E6F8B50D460446FF
S113C780687AE8B9288805F13007A0F108067968C5
S113C790E86AB2B2F7F779FDE86A78602E803878F3
S113C7A068722046F8F77BFAA0F1080189B22046A6
S113C7B0F8F78EFA21462846BDE8F44016F0B8BFD3
S113C7C0F1BD30B5054605F47F40B0F57C4F85B02A
S113C7D04FF6FF743BD1B5F57C4F02D113F031FF16
S113C7E036E04FF61040854219DA102200216846DF
S113C7F0F7F7ADFD6946E8B218F058FD402826DB8E
S113C80000224021684614F043F94FF6FE75A84211
S113C8101ED1684614F03FF9A84219D117E04FF62B
S113C8203042954204DA05F00F0014F008FA0FE0E4
S113C8304FF6384085420ADA82480088A04206D082
S113C8407F4B1B7803F007031A43954200D0204620
S113C85005B030BDCEFE0320CCFE03202DE9F0410F
S113C86096B00D464FF6FF768046ADF8046002A9F7
S113C87016F077FFA8B3BDF80C00ADF804000BF078
S113C88083FA30B3BDF804000EF0FBFDF0B9404666
S113C890FDF7C5F99DF808100844851DBDF80A0088
S113C8A004A914F004FF4046F8F7F9F90646404697
S113C8B0F8F7DDF9711B401880B200902B4604AAEA
S113C8C00021012018F022FC0020AEE0BDF80C701D
S113C8D091E0BDF80C000BF00BFE0746B742F7D110
S113C8E0F2E75B4C5B4F207800073FD504A9404634
S113C8F016F014FF0DF12B000EF061FEFF2803D09B
S113C9000EF08FFD074676E00DF12B000FF008F8CE
S113C91028B90DF12B0014F0C2F8002850D001A959
S113C9200DF12B0014F0CAFEE8B1BDF804000BF0C1
S113C9302BFA0028C8D1BDF8040000F47F40B0F5FC
S113C9407C4F07D1BDF80400FFF73BFFB042ADF8C0
S113C9500400B9D0BDF804000BF0CAFDB04223D0E6
S113C960BDF8047043E02078000704D439884046B9
S113C970FDF7C9F958E06A4680210DF12B0018F043
S113C980AEFC002851D09DF8000001230DF10202F5
S113C9900DF1330110F0E0F8022846D1BDF8020091
S113C9A00BF0A6FDB04201D101203EE0BDF802101B
S113C9B04046FDF7A8F900F05AF800F053F833E0C8
S113C9C00DF11B010DF12B0014F0DDF806464FF6B6
S113C9D0FE77BE4223D0FCF7FDF8864218BF3746E7
S113C9E005D10DF11B000FF06BF8002817D000F0F3
S113C9F03EF800F037F800F03AF8800610D54046CB
S113CA00FDF745F93946884208BF002D08D1BDF825
S113CA10040015F05BFA01211E20F6F7D0FC53E761
S113CA2039464046FDF737F9022016B0BDE8F081DB
S113CA30CCFB032006F70320F7E30320D003FFFF1A
S113CA4062F7032066F70320E6E303202CDF0320CC
S113CA500AF70320BAE103204CF80320A3FF0320C4
S113CA60D0FB032040F008014046FDF7E5B84046FE
S113CA70FDF7DFB810B5DFF8004BDFF8003B248882
S113CA80001B06E010B5DFF8F84ADFF8F03A246836
S113CA901B1B03EB4000002304E030F8134021F893
S113CAA013405B1C9342F8DB002010BD2DE9F041DC
S113CAB082B004460D4616460027DFF8C08A01E01E
S113CAC0BF1CFFB2B74217DAE819E95D4078DFF816
S113CAD0A83A1B8801EB0020ADF80000012207EB07
S113CAE0D77004EB6000C01A00F09DFB0100E7D092
S113CAF0F6F718FC002000E00120BDE8F681F8B547
S113CB0004460F46154600260DE000F019F8BDF85E
S113CB10000004EB4601000A48707F1CBDF80000C9
S113CB2004F81600761CB6EB550FEEDBE80706D5C5
S113CB3000F006F8BDF80000611901F8010CF1BD20
S113CB4001226946B8B295E7DFF82C2ADFF82C1ADF
S113CB501288801A01EB40010220FBF701BDDFF8C7
S113CB60241ADFF8242A095C125CDFF8203A185CE6
S113CB7010B102F5997292B241EAC21080B27047C4
S113CB80DFF8003ADFF8082A1B5C012B1CBF32F8DF
S113CB901000081802EB4000704738B50C46DFF867
S113CBA0F4190D782A462146FFF764FF2088010016
S113CBB01CBF4FF6FF7188420BD0012000E0401CDF
S113CBC0C1B2A94207D2C0B234F8101022889142EF
S113CBD0F5D0002032BD012032BDF0B5DFF8A01938
S113CBE087B008600C2269460020FFF74BFFBDF8B0
S113CBF01600BDF80C200346040A012000254FF658
S113CC00FF763DF81570BDF80010B94203D1B74264
S113CC1018BF002F00D100206D1C062DF1DBB21AC5
S113CC20914218BF0020DBB2C4F1FF018B4218BF50
S113CC30002007B0F0BD2DE9F24F0446DFF8586933
S113CC400020307070809CB0DFF850090088ADF887
S113CC50020007A9FFF7A1FF83460120707009A90C
S113CC60DFF83C090588DFF83C09B0F80080DFF8FC
S113CC7008090788BDF802A03846FFF78EFFB8B14F
S113CC80BBF1000F3DD0BDF81C10BDF824004FF6D9
S113CC90FE72914202D1012804D10CE0012908BF9F
S113CCA090422ED00846BDF82410884229D202E0D2
S113CCB0BBF1000F24D000207070029750460695F7
S113CCC0CDF810800122DFF8CC1891F800804044A0
S113CCD0ADF806006946BDF80600FFF7CBFEDFF8A5
S113CCE0C808008805904FF6FF79BDF80000000BD6
S113CCF0404518BF0F2801D1200021D0002516E09F
S113CD00012470780028D8D03846CDF808A0CDF892
S113CD1018800495D6E7059805FB00F4E01900F0A7
S113CD2051FCBDF80200201800F04CFC6D1C454578
S113CD30F1DB012030704D20F6F7F4FA0025F7E01E
S113CD40BDF80650012201A92846FFF793FEBDF85D
S113CD500400C04300F0FF00ADF804006F1CDFF8CE
S113CD604C080588BDF80400A84218BF01244FF000
S113CD70000A20E0401CC1B2A94218D2C0B2DFF8B8
S113CD803018BDF80E20834631F81B109142F1D1C2
S113CD90FFF7E5FE4FF680710840BDF80C104FF622
S113CDA080721140884204BF1C9800F80BA00AF15D
S113CDB001001FFA80FABDF80400824507DA022256
S113CDC003A9B8B2FFF756FEBF1C0020D3E700202A
S113CDD001E0401C80B2A84217DA1C99095C814228
S113CDE0F7D0012411E02AF81070BDF8060000EB1A
S113CDF04300401C00F0DAFABDF80200C0F3C7108B
S113CE00401C00EBD07007EB60070498DFF880A7A4
S113CE10BFB287420EDA00F099F8BDF80000484529
S113CE2008D0030A00F07F01BDF804007F1C834290
S113CE3002DB012400252DE0002000E0401CA84274
S113CE40D3DA1C9A125C9A42F8D1C0B2FF28CCD033
S113CE50DFF83027125C7F290CBF4FF0000C8C46A2
S113CE6094450BDABDF800C0DFF820E71EF800E0B7
S113CE704FEA0C6C4FEADC7CF44501D00124B4E7A2
S113CE80012AB0D07F293AF8100008BF0021081801
S113CE90A9E76D1CDFF81C070088854204DA3AF81C
S113CEA015004845F5D1012477800498BFB2874224
S113CEB007DA00F04BF8BDF800007F1C4845F4D0B9
S113CEC039E7002CFCD1029801220BA980B2FFF7AC
S113CED0D1FDBDF82C0048450DD105E0401C80B2C1
S113CEE0202813DB2034A4B20699029A891A8C42B2
S113CEF005DB0120307000201DB0BDE8F08FA518BF
S113CF0020220BA9A8B2FFF7B5FD00200BA931F828
S113CF1010104945E2D0A8B2FFF716FE203CA4B297
S113CF20E0E70298059905FB010000F04BFB6D1C3E
S113CF304545F6DB01203070494600F046F818B14B
S113CF4000F035F90028D6D10120D5E70122694641
S113CF5038468FE52DE9F0420F46DFF85016DFF82A
S113CF60285609888F420446164699460CD2DFF8A3
S113CF701416C95D30467F2808BF0020884203DAB2
S113CF80E95D894500D11CB940F2D54100F00AFAA7
S113CF9031463846FFF7F4FD0188DFF8F005C05D3F
S113CFA060B1384600F02BFAE95D012908BF207012
S113CFB009D0022914BF2060208004E04A4620469C
S113CFC0BDE8F0429BE5BDE8F0822DE9F34FDFF8C0
S113CFD0A805DFF8C0150488DFF8BC050978407897
S113CFE083B000281ABFDFF8B405008820460D1866
S113CFF0DFF8B8050088ADF80800ADB2C04300F012
S113D000FF0000EB013000F55060ADF802002B1B6F
S113D010DFF8680501220DF1020100F0D7FA6E1C59
S113D0200100B6B23AD10025DFF8847513E0E8B206
S113D030FFF795FDADF80400331B37F81500ADF884
S113D04006000222DFF8340500F0BFFA010025D102
S113D050B61CB6B26D1CBDF808008542E7DB00259E
S113D06000E06D1CBDF80800854280F29B80DFF86B
S113D0701C05405D8DF80A004FF0000A1BE00122F8
S113D0800DF102011FFA89F0FFF7F4FCBB19DFF878
S113D090EC0400F091F9010009F101097AD17F1C37
S113D0A0FFB2B7EB1B6FEADBDFF80C05405D361807
S113D0B0B6B20AF1010ADFF8CC04475D5FFA8AF0E0
S113D0C0B842CED25FFA8AF1E8B2FFF759FD804642
S113D0D09DF80A00B8F80090C00140EA0520ADF8B8
S113D0E00000012FBDF800000EBF40F07F005FFA82
S113D0F08AFA4AEA0000ADF80000311BDFF87C042C
S113D10000EB41004FF6FF71771C89451EBFBDF847
S113D1100010BDF810209142BFB219D19DF80C1037
S113D1200029C6D001226946FBF756FA01003E46A3
S113D13030D1DFF85404A8F80060425DDFF87C04C5
S113D14050F825103046FFF7B1FC0028ACD124E09C
S113D150DFF83414495D491C01EBD1714FEAC15B1E
S113D16001226946FBF738FA01003E4612D1A8F8BD
S113D17000609DF80A0098B14946E8B200F03FF912
S113D1800190331BDFF8F4034FEA1B6200F01DFA31
S113D190010089D0F6F7C6F8002005B0BDE8F08F8D
S113D1A000277DE7DFF8F00346800120F5E7DFF88C
S113D1B0EC032DE9F0410688DFF8BC03DFF8D8530F
S113D1C004886878DFF8B483002882B012BF204650
S113D1D03046264601226946FFF74CFCBDF80000A4
S113D1E001280CBF4FF6FE70401EADF80000DFF8BA
S113D1F0A40307783846471E80B258B116FA87F060
S113D200001B012200F00FF80100F3D0F6F78AF8B2
S113D210002006E0687880F0010068700020287023
S113D2200120BDE8F681694608EB4000FBF7D4B95C
S113D2302DE9FE4F0D46DFF8741309888842044631
S113D24017461E464FF000094FF001080CD2CD4995
S113D250095D38467F2808BF0020884204DACA499D
S113D260095D8E4200D11DB940F2F95100F09AF8DF
S113D27039462046FFF784FC0190C74F787820B1E7
S113D280C748B0F800A0BC4803E0C648B0F800A006
S113D290C2483978008849B97988081AC849098880
S113D2A08842B4BF43204420F6F73CF80198018833
S113D2B0B648005DF8B1204600F0A1F8012E08BF81
S113D2C0297803D0022E0CBF29882968814267D0AF
S113D2D001980088401E00F069F8B748065D788818
S113D2E0AAF10101891B814201DB002837D138787A
S113D2F068BB452046E00291CB4622E002980BEB46
S113D300DB7300EB630000F0F3F805EB0B0015F89A
S113D3100B10407801EB0020711E8B4580B207D1C1
S113D320BDF8001001F0FF0100F0FF00ADF800109F
S113D330BDF8001088420BF1020018BFC8465FFA1E
S113D34080FBB345DADBB8F1000FC1D028E0BDF8AB
S113D35002100020FFF739FE10B34FF0010978885E
S113D3608949401C788080B20A5D2946FFF79EFBFC
S113D370B0B1814C7B88248880485B1E00F01CF887
S113D380010002D0F5F7CEFF0AE0B9F1000F02D098
S113D390FFF70DFF20B10199788808808019788003
S113D3A0BDE8F78F0FF22C20F3F7CEB901220DF16F
S113D3B0020180B2FFF75EBB1B1B01220DF10201CB
S113D3C000EB4300FBF708B970B582B004460025B2
S113D3D0192601226946A0B2FFF74CFBBDF80000F4
S113D3E0641C20B14FF6FF71884203D004E06D1C29
S113D3F0761EEED168B276BDE84340B276BD38B54C
S113D4000C460021009160490D5C2A46214668467D
S113D410FFF775FB681C00EBD07004EB600080B272
S113D420FFF7D2FF0028009948BFC04341FA80F0BB
S113D43032BDF0B55D4909880446554883B0264697
S113D44030F816508C4202D25048805D18B940F230
S113D4503D71FFF7A7FF4C48865D701C00EBD07050
S113D46005EB6007B8B2FFF7AFFF19280FD210FA27
S113D47087F0414F414B3F880021ADF80410C01B99
S113D480012201A903EB4000FBF7A6F860B129468D
S113D4902046FFF7B4FF00903346401C00907F22E3
S113D4A069462046FFF7C4FEF7BD70B53A480178D7
S113D4B082B00024D1B94078002814BF37482E48E0
S113D4C00588344806780CE0284650FA86F000F0C7
S113D4D00FF8BDF8000000281EBF4FF6FF71884208
S113D4E0641C3046461EC0B20028EDD1E0B276BDC1
S113D4F00122694680B2FFF7BDBAF8B5264C207800
S113D5000027002835D11C480588607800281ABFF8
S113D510224806882E461F4807783846471EC0B260
S113D52002281FDB304650FA87F0FFF7E1FFBDF811
S113D53000000028F1D01C480088FFB207FB0060FF
S113D54000F040F80020ADF80000BB190B485B1B4D
S113D5500122694600F03AF8010018BFF5F7E2FE2F
S113D5603846F2BD3046FFF7EFFAF8B208B90120A9
S113D5702070F8B2F2BD0000F08B030000E00F0051
S113D58084FA0320447C0300347C0300247C0300DD
S113D59084F00320138C0300C4FE0320F48B0300E7
S113D5A0F28B0300F68B0300EE8B0300FA8B03006F
S113D5B0087C0300FC8B0300D05D0300547F030050
S113D5C0F88B030080B2FFF7BFBA01A900EB430058
S113D5D0FBF702B873696D2D656570726F6D2D6907
S113D5E06E7465726E616C2E630000002DE9F04F5D
S113D5F085B080460E22FF216846F6F7A8FEDFF8C4
S113D600A8A04222FF215046F6F7A1FE0E250027CE
S113D610264CDFF89C90274EF05D19F807B0E15DC9
S113D620401C00EBD070401001B11930401C00FBCD
S113D6300BF2214830F81710204892B2F4F731FB6E
S113D640BBF1010F1CBF2AF817505D447F1C0E2F3D
S113D650E2DB1B480E2340F21C4240F28B21F4F71C
S113D66020FB4FF4E040FFF7B8FA164D18B19D21A6
S113D6702846F3F769F84FF48040FFF7AEFA18B183
S113D6809F212846F3F760F84FF48050FFF7A5FA7E
S113D69018B1A1212846F3F757F869464046FFF729
S113D6A0CAFA05B0BDE8F08F84F00320247C03009F
S113D6B0447C0300347C0300087C0300845D030085
S113D6C0A05D0300745D030072B61EF0080F08D05D
S113D6D01EF0040F0BD0DFF848E0AEE8FF1F11483E
S113D6E00AE0DFF83CE0AEE8FF1F0F4804E0DFF893
S113D6F030E0AEE8FF1F0D486946EFF309828EE87B
S113D700070086460A480B4C854501D3A54501D33D
S113D71084F30888F3F730F884F30888F4F734FCCA
S113D72004000020FDFFFFFFF1FFFFFFF9FFFFFFF3
S113D73088CD032020DC032080B500F00CF82249BA
S113D740224A0968C1F30821491CB0FBF1F01060BA
S113D75002BD1F4870471F48016801F007010229F4
S113D76009D00AD3042901D002D306E01A4905E0FE
S113D7704FF4004103E0194900E019490968C06EFB
S113D780C0F30420401CB1FBF0F07047134800685C
S113D7907047124908600F48006800F0070002282B
S113D7A008BFFFF7C9BF70470E48016841F4700114
S113D7B0016070474FF4004070474FF47A7070472F
S113D7C0054800687047000008410E40D4DF03207C
S113D7D000F0490294400E40D0DF0320CCDF032048
S113D7E0D8DF032088ED00E0890001EB401000F150
S113D7F084400260704700F1806300F1C0601960EA
S113D800026070473023464A584310440C3000F1FC
S113D810806006E03023424A584310440C3000F143
S113D820C060012202FA01F1016070473D490A68B3
S113D830920840EA8200086070472DE9F04101F047
S113D8400308144603270F21082C1D460CD2A600FA
S113D85000FA06F2B1403448FFF7CDFF08FA06F2A9
S113D86007FA06F131480DE0A4F10802960000FA27
S113D87006F2B1402E48FFF7BEFF08FA06F207FA97
S113D88006F12C48FFF7B7FF2A4621462A482B4DBC
S113D890FFF7AAFF069A21462846FFF7A5FF0120B5
S113D8A0A04028612146079A2548BDE8F0419BE73E
S113D8B0F8B50446164630000D461F4607D0002F23
S113D8C0204602D0FFF7A6FF01E0FFF79BFF3021BF
S113D8D00F22134811FB04F1082D084405D2AB00B4
S113D8E0416800F015F8416006E0A5F108039B00CB
S113D8F0816800F00DF881604EB9002F294620465A
S113D90002D0BDE8F44085E7BDE8F4407AE7F1BD14
S113D9109A4021EA020206FA03F11143704700001B
S113D92000A0004044A4004000A4004008A400401B
S113D93004A400400CA4004010A4004014A400401F
S113D94028A4004010B5DFF85411DFF85441E16118
S113D950032020616061102121620021DFF844016D
S113D960A061A16220666162E16221670422DFF89E
S113D970380160661020A066E1666167E01D29A198
S113D980F4F7EEFC0722DFF824112046F4F7F8FC44
S113D9902020A07110BD2DE9F843DFF8047106467C
S113D9A038788946904608B9FFF7CCFF18207043B1
S113D9B0384400F1600600253769F468BC4212D28D
S113D9C0B068C51B7068454588BF4546C1192A46DD
S113D9D04846F4F7C5FCB068EF198742A944A8EBA0
S113D9E0050808BF0027E41B444588BF44463CB1F2
S113D9F07068C11922464846F4F7B2FC6519E71964
S113DA0005B137612846BDE8F283F8B504460D46F2
S113DA101646F4F7F9FE0746324629462046FFF734
S113DA20BAFF01E05254540004463846F4F729FF83
S113DA302046F2BD2DE9F84300F027F808B9FFF7B6
S113DA4081FFF4F7E1FE79690026182202FB06F350
S113DA50FB185B6E13B1761C8E42F7DB8E420CDA38
S113DA6002FB06F1791800220C664D66C1F8688045
S113DA700A67CA66C1F8749001E04FF0FF36FFE709
S113DA80F4F7FFFE3046BDE8F283054F04463878CC
S113DA900D4690469946704754E7000064F0032011
S113DAA000E403203C5D030074F00320485D0300A0
S113DAB00A46090241EA12214840C0F303114840D2
S113DAC080EA003041010206C9B2D20E41EA0221C5
S113DAD0484080B27047000062F30F2262F31F4295
S113DAE0401810F0030308D0C91A1FD3DB0748BF3E
S113DAF000F8012D28BF20F8022D130030B414467D
S113DB001546103928BF20E93C00FAD8490728BF38
S113DB1020E90C0048BF40F8042D890028BF20F8F4
S113DB20022D48BF00F8012D30BC7047C91818BF3A
S113DB3000F8012DCB0728BF00F8012D7047000025
S113DB40820707D010F8012B11F8013BBAB19A42B1
S113DB50F6D014E002680B689A42A2F1013301BFC7
S113DB60934313F0803F50F8042F51F8043FF3D04F
S113DB7010F8012B11F8013B0AB19A42F8D0D01ADF
S113DB80704700000188481E8041C00F704738B5B7
S113DB900446002554B1002100F009F803E02046B2
S113DBA000F034F86D1C0100F9D1A8B232BD008830
S113DBB002001CBFC9B2F7F700B9002070472DE975
S113DBC0F04104460D4627883800164608BFA8468B
S113DBD008D0F1B2F7F7F1F880462A46F1B2384698
S113DBE0F7F702F9424600F003F82580BDE8F0811A
S113DBF0F1B22846F7F7F8B838B50446002225886C
S113DC00FFF7DDFF280018BF258031BD0088814261
S113DC100A4601D10020704700211046F7F7CDB81D
S113DC20F8B504460D462688300001D10020F2BD27
S113DC30C9B2F7F7C2F8B042074602D100202080EB
S113DC4007E0E9B2F7F7B9F80246E9B23046F7F768
S113DC50CBF82A4600213846F7F7C6F83846F2BD15
S113DC602DE9F84304468846278816460FB9002054
S113DC7026E03D462846F7F712F8814605E00546BA
S113DC80F7F70DF848441FFA80F9F1B22846F7F780
S113DC9094F8404511D1F1B2F7F78FF80246FFF737
S113DCA0A7FF474503D1BD4208BF002525800022B8
S113DCB0F1B24046F7F798F801E0B842DFD14846A0
S113DCC0BDE8F2832DE9F8430D46044690462F46FD
S113DCD005E041462046FFF7A3FFBF1BBFB28FB14B
S113DCE0208878B141462046FFF761FF8146F6F768
S113DCF0D6FF0646B742ECDAF11B89B24846F7F77D
S113DD0032F80027E81B80B2BDE8F2832DE9F04722
S113DD100C460788200092461E46B84623D00FF2D0
S113DD206C193FB9C92102E0B84503D1D621484650
S113DD30F2F70AFDF1B24046F7F73FF88046F6F7EE
S113DD40AEFF0546A1B28D4288BF0D464046F6F7A8
S113DD508EFF01462A465046F6F797FA641BA0B296
S113DD600028AA44E0D1BDE8F08770B504462588B0
S113DD70280008D00121F7F720F8064600220121E7
S113DD80FFF737FF268070BD2DE9F84F0D46044696
S113DD9090461F460021FFF70AFF8146002603E054
S113DDA0494600F045F881465FEA090019D0F6F7C4
S113DDB05EFF83464846F6F772FF0BEB000A02E06B
S113DDC060888344761CD3453EBFA188B0B28842A4
S113DDD0E6D241465846A8470028F1D007B13E8014
S113DDE05846BDE8F28F70B504460D46A088010080
S113DDF01CD0401EA84219DB00212046FFF7D7FEA5
S113DE000646608815FB00F504E02D1A314600F043
S113DE100FF80646300009D0F6F741FFADB285424F
S113DE20F3DA3046F6F723FF284470BD002070BDB6
S113DE302046EBE670B504460D46E088010009D0A3
S113DE40401EE0802046A188491CA180491EBDE8EF
S113DE507040C8E7608810FB05F0002180B2F7F736
S113DE601CF8060001D1002070BD00223146204676
S113DE70FFF7A5FEA088401CA080681EE080304605
S113DE80BDE87040F6F7F3BE0000000062756666F8
S113DE9065722D71756575652E6300003023DFF89A
S113DEA06824584310440C3000F1806007E03023AC
S113DEB0DFF85424584310440C3000F1C0600122B0
S113DEC002FA01F1016070471CB500931346049CEB
S113DED001940A46FFF7B1FC13BD1930017E0229F3
S113DEE00FD10278DFF82014007930235A4311440B
S113DEF01C31800000EB411000F184400068C0B286
S113DF0070470020704738B50022DFF8003453F81A
S113DF1022104C7F844203D0521C042AF7D331BD13
S113DF2021B301F12E04E07802281FD10D1D08460B
S113DF30FFF7D3FF2874687C022804BF20780028E8
S113DF4014D101F0DFF817F0CAFA297C09B161781D
S113DF5029B100206070286817F090FA31BD28B903
S113DF609DF8000010B1286817F07AFA31BD10B599
S113DF70044604F1140082B0417F022910D1417893
S113DF800A0003D0012906D0017821B9817A807969
S113DF90FFF784FF18E0817A8079FFF788FF13E0A8
S113DFA0012911D1007800280CBF112013208DF80D
S113DFB00000204601F0B5FA01226946204601F02E
S113DFC02CFA204601F0F2FA002016BD2DE9F041AA
S113DFD0044688461646F4F717FC0546A088E188EF
S113DFE0884206D3002030602846F4F74AFCC8482B
S113DFF01CE020881427784320441422414608302A
S113E000F4F7AEF920887843204408303060208843
S113E010E188401C90FBF1F201FB12002080A088F3
S113E020401CA0802846F4F72CFC0020BDE8F081B9
S113E03038B504460D46F4F7E7FBA18809B9296011
S113E04024E0618814225143214408312960618805
S113E050E288491C91FBF2F302FB13116180A18851
S113E060491EA1800EE038B505460C46F4F7CCFBFA
S113E070A98809B9216009E0698814225143294417
S113E08008312160F4F7FDFB002032BDF4F7F9FB01
S113E090A04832BD90F832100A000BD10268012169
S113E0A0D16000680169C907FCD5416F41F00101E5
S113E0B04167704701290ED10168496C8907FBD477
S113E0C002680121516000688168C907FCD5416D6F
S113E0D041F001014165704790F832100A0008D1FF
S113E0E001684A6F520852004A6702210068C16001
S113E0F0704701290CD10168496C8907FBD4016878
S113E100496D02684908490051650221006841606F
S113E110704710B500F12C0286B001231370937977
S113E1201C0013D10268049002F11C030FF2710267
S113E1300392002202924A680192012200920A6824
S113E1400169806817F071F906B010BD012BE9D0A0
S113E15000201070F8E710B500F12D0286B00123FD
S113E160137053791C0012D1026834320FF2151364
S113E17003930490002302934B68019301230093BB
S113E1800B68C168406817F04AF906B010BD012B4E
S113E19002D102682832E9E700201070F5E7000098
S113E1A0F8B514466946606AFFF75DFF594988422D
S113E1B060D004F12C055849A879020008D12268DE
S113E1C0126C920504D500F057F84FF4007014E077
S113E1D00246012A07D12368DB6A1B0603D500F037
S113E1E04BF8802015E04D4950B92068006CC005FB
S113E1F006D500F041F84FF48070216888640DE082
S113E200012A09D12068C06A400605D500F034F817
S113E21040202168486301E000F060F8F4F7F4FA64
S113E22006460098C768380009D0009800994068ED
S113E2308968431A0098026801692046B847606AF1
S113E2406946FFF7F5FE606A818821B101F03FF865
S113E25001F09EF90CE0012020752046FFF787FEAF
S113E26000202870687903281CBF2046FFF734FF7C
S113E27001F0DEF90120F2BD00980161002000994F
S113E28088607047F8B5144604F128056946286883
S113E290FFF7E9FE1F4988421ED000F01FF8F4F78B
S113E2A0B3FA06460098C768380005D0009843685A
S113E2B0026800212046B84728686946FFF7B8FE7F
S113E2C02868818821B101F002F801F0ACF901E07D
S113E2D00020687101F0ACF90120F2BD0099002022
S113E2E0086100998860704710B9DFF8E40A704744
S113E2F0002918BF002A02D0B2F5006F02D9DFF856
S113E300D40A70470020704700A0004094F5032011
S113E3100A7000F00B7000F00D7000F00C7000F04B
S113E32010B50368DFF8B04AFF22A34240F05E81D3
S113E3300B7A1C0018BF012B07D0022B18BF032B2C
S113E34003D0042B18BF052B01D100233AE0062B80
S113E35018BF072B04D0082B1CBF092B0A2B01D193
S113E36001232FE00B2B18BF0C2B07D00D2B18BF4C
S113E3700E2B03D00F2B18BF102B01D1022321E049
S113E380112B18BF122B08D0132B18BF142B04D039
S113E390152B1CBF162B172B01D1032312E0182BAE
S113E3A018BF192B0BD01A2B18BF1B2B07D01C2BF3
S113E3B018BF1D2B03D01E2B18BF1F2B01D1052303
S113E3C000E0FF2300F012FD18BF012B40D0022B08
S113E3D01CBF032B042B3BD0052B18BF062B04D0EA
S113E3E0072B1CBF082B092B01D1012333E00A2B77
S113E3F018BF0B2B07D00C2B18BF0D2B03D00E2BE3
S113E40018BF0F2B01D1022325E0102B18BF112BAD
S113E41008D0122B18BF132B04D0142B1CBF152BA0
S113E420162B01D1032316E0172B18BF182B0BD082
S113E430192B18BF1A2B07D01B2B18BF1C2B03D06A
S113E4401D2B18BF1E2B01D1052304E01F2B01D166
S113E450002300E0FF2300F0C5FC3ED0012B18BFD1
S113E460022B59D0032B1CBF042B052B54D0062B95
S113E4701FD0072B21D0082B23D0092B25D00A2B02
S113E48027D00B2B41D00C2B43D00D2B08BF0823D6
S113E49042D00E2B05D00F2B07D0102B09D0112BF7
S113E4A001D1092338E0122B01D10A2334E0132BC4
S113E4B001D10B2330E0142B01D10C232CE0152BBC
S113E4C001D10D2328E0162B01D10E2324E0172BB4
S113E4D001D10F2320E0182B01D100231CE0192BBC
S113E4E008BF012318D01A2B08BF022314D01B2BFA
S113E4F008BF032310D01C2B08BF04230CD01D2BF2
S113E50008BF052308D01E2B01D1062304E01F2BCE
S113E51001D1072300E0FF2300F060FC3FD0012B72
S113E52041D0022B43D0032B45D0042B47D0052BDD
S113E5301FD0062B21D0072B23D0082B25D0092B45
S113E54027D00A2B3FD00B2B41D00C2B08BF08221D
S113E55042D00D2B05D00E2B07D00F2B09D0102B3A
S113E56001D1092238E0112B01D10A2234E0122B07
S113E57001D10B2230E0132B01D10C222CE0142BFF
S113E58001D10D2228E0152B01D10E2224E0162BF7
S113E59001D10F2220E0172B1DD0182B01D101220D
S113E5A01AE0192B01D1022216E01A2B01D1032201
S113E5B012E01B2B01D104220EE01C2B01D10522F9
S113E5C00AE01D2B01D1062206E01E2B01D10722F1
S113E5D002E01F2B00D1002202774A7C42768A7C1B
S113E5E04277CA7C8276097D00F007BCDFF80049D7
S113E5F0A34240F048810B7A1C0018BF012B07D0BE
S113E600022B18BF032B03D0042B18BF052B01D1F9
S113E61000233AE0062B18BF072B04D0082B1CBF9D
S113E620092B0A2B01D101232FE00B2B18BF0C2B34
S113E63007D00D2B18BF0E2B03D00F2B18BF102B98
S113E64001D1022321E0112B18BF122B08D0132B68
S113E65018BF142B04D0152B1CBF162B172B01D15C
S113E660032312E0182B18BF192B0BD01A2B18BF39
S113E6701B2B07D01C2B18BF1D2B03D01E2B18BF20
S113E6801F2B01D1052300E0FF2300F0AFFB18BFCF
S113E690012B40D0022B1CBF032B042B3BD0052B9A
S113E6A018BF062B04D0072B1CBF082B092B01D144
S113E6B0012333E00A2B18BF0B2B07D00C2B18BFF8
S113E6C00D2B03D00E2B18BF0F2B01D1022325E0F5
S113E6D0102B18BF112B08D0122B18BF132B04D0EA
S113E6E0142B1CBF152B162B01D1032316E0172B5B
S113E6F018BF182B0BD0192B18BF1A2B07D01B2BA4
S113E70018BF1C2B03D01D2B18BF1E2B01D10523B2
S113E71004E01F2B01D1002300E0FF2300F062FB83
S113E7203ED0012B18BF022B59D0032B1CBF042B46
S113E730052B54D0062B1FD0072B21D0082B23D018
S113E740092B25D00A2B27D00B2B41D00C2B43D0DF
S113E7500D2B08BF082342D00E2B05D00F2B07D05A
S113E760102B09D0112B01D1092338E0122B01D130
S113E7700A2334E0132B01D10B2330E0142B01D1F5
S113E7800C232CE0152B01D10D2328E0162B01D1ED
S113E7900E2324E0172B01D10F2320E0182B01D1E5
S113E7A000231CE0192B08BF012318D01A2B08BF23
S113E7B0022314D01B2B08BF032310D01C2B08BF2B
S113E7C004230CD01D2B08BF052308D01E2B01D118
S113E7D0062304E01F2B01D1072300E0FF2300F0F0
S113E7E0FDFA38D0012B39D0022B3AD0032B3BD081
S113E7F0042B3CD0052B1DD0062B1ED0072B1FD07D
S113E800082B20D0092B21D00A2B33D00B2B34D04A
S113E8100C2B08BF08223FF4DFAE0D2B04D00E2BC7
S113E82005D00F2B06D0102B3FF49BAE112B3FF4D9
S113E8309CAE122B3FF49DAE132B3FF49EAE142BD3
S113E8403FF49FAE152B3FF4A0AE162B3FF4A1AEC0
S113E850172B17D0182B3FF4A2AE192B3FF4A3AEFD
S113E8601A2B3FF4A4AE1B2B3FF4A5AE1C2B3FF494
S113E870A6AE1D2B3FF4A7AE1E2B3FF4A8AE1F2B54
S113E8807FF4AAAEA7E6DFF87048A34240F04A81BD
S113E8900B7A1C0018BF012B04D0022B1CBF032BC6
S113E8A0042B01D100233AE0052B1CBF062B072BB8
S113E8B001D1082333E0082B31D0092B18BF0A2BD0
S113E8C004D00B2B1CBF0C2B0D2B01D1012326E0F4
S113E8D00E2B18BF0F2B18D0102B18BF112B14D0D0
S113E8E0122B18BF132B10D0142B18BF152B0CD0C0
S113E8F0162B18BF172B08D0182B18BF192B04D0B0
S113E9001A2B1CBF1B2B1C2B01D1052307E01D2B2D
S113E9101CBF1E2B1F2B01D10A2300E0FF2300F094
S113E92065FA18BF012B40D0022B18BF032B3CD033
S113E930042B18BF052B03D0062B18BF072B01D1BE
S113E940082335E0082B18BF092B04D00A2B1CBF61
S113E9500B2B0C2B01D101232AE00D2B18BF0E2BFE
S113E96018D00F2B18BF102B14D0112B18BF122B3B
S113E97010D0132B18BF142B0CD0152B18BF162B2B
S113E98008D0172B18BF182B04D0192B1CBF1A2B17
S113E9901B2B01D105230BE01C2B1CBF1D2B1E2B95
S113E9A001D10A2304E01F2B01D1002300E0FF233F
S113E9B000F018FA27D0012B29D0022B2BD0032BDF
S113E9C02DD0042B2FD0052B49D0062B4BD0072B51
S113E9D04DD0082B0FD0092B19D00A2B1BD00B2B91
S113E9E01DD00C2B1FD00D2B21D00E2B37D00F2B6D
S113E9F039D0102B01D103233CE0112B08BF042391
S113EA0038D0122B01D1052334E0132B01D1062376
S113EA1030E0142B01D107232CE0152B01D108235E
S113EA2028E0162B01D1092324E0172B01D10A2356
S113EA3020E0182B08BF0B231CD0192B08BF0C2374
S113EA4018D01A2B08BF0D2314D01B2B08BF0E237C
S113EA5010D01C2B08BF0F230CD01D2B01D1002379
S113EA6008E01E2B01D1012304E01F2B01D1022356
S113EA7000E0FF2300F0B2F925D0012B26D0022BB1
S113EA8028D0032B29D0042B41D0052B42D0062BB0
S113EA9043D0072B0ED0082B15D0092B16D00A2BE8
S113EAA018D00B2B19D00C2B1AD00D2B2FD00E2BCA
S113EAB030D00F2B3FF47BAD102B08BF04220AD0BB
S113EAC0112B2ED0122B3FF47EAD132B3FF47FADD0
S113EAD0142B01D108227FE5152B3FF442AD162BF0
S113EAE03FF443AD172B08BF0B22F4D0182B08BFFB
S113EAF00C22F0D0192B08BF0D22ECD01A2B08BF22
S113EB000E22E8D01B2B08BF0F22E4D01C2B3FF4AD
S113EB1062AD1D2B3FF443AD1E2B3FF444AD1F2BC0
S113EB20D9D14CE5DFF89847A34240F04F810B7AE6
S113EB301C001CBF012B022B09D0032B43D0042B38
S113EB4018BF052B03D0062B18BF072B01D10323B5
S113EB5039E0082B37D0092B08BF082333D00A2B00
S113EB6018BF0B2B07D00C2B18BF0D2B03D00E2B6B
S113EB7018BF0F2B01D1012325E0102B14BF112B3B
S113EB80092320D0122B18BF132B07D0142B18BF26
S113EB90152B03D0162B18BF172B01D1022312E01B
S113EBA0182B18BF192B04D01A2B1CBF1B2B1C2B82
S113EBB001D1052307E01D2B1CBF1E2B1F2B01D1E8
S113EBC00A2300E0FF2300F011F91CBF012B022BE4
S113EBD040D0032B41D0042B1CBF052B062B39D06E
S113EBE0072B0CBF0823082B37D0092B18BF0A2B7F
S113EBF007D00B2B18BF0C2B03D00D2B18BF0E2BDB
S113EC0001D1012329E00F2B14BF102B092324D099
S113EC10112B18BF122B07D0132B18BF142B03D0A2
S113EC20152B18BF162B01D1022316E0172B18BF82
S113EC30182B04D0192B1CBF1A2B1B2B01D1052315
S113EC400BE01C2B1CBF1D2B1E2B01D10A2304E03F
S113EC501F2B01D1032300E0FF2300F0C3F81BD0D6
S113EC60012B1DD0022B1FD0032B39D0042B3BD0FA
S113EC70052B3DD0062B3FD0072B41D0082B4BD082
S113EC80092B21D00A2B08BF062348D00B2B08BF21
S113EC90072344D00C2B01D1082340E00D2B01D1D4
S113ECA009233CE00E2B01D10A2338E00F2B17D0A7
S113ECB0102B21D0112B23D0122B25D0132B27D08E
S113ECC0142B29D0152B01D1032328E0162B08BFC0
S113ECD0042324D0172B08BF052320D0182B01D1DF
S113ECE00B231CE0192B01D10C2318E01A2B01D1A2
S113ECF00D2314E01B2B01D10E2310E01C2B01D19A
S113ED000F230CE01D2B01D1002308E01E2B01D1A1
S113ED10012304E01F2B01D1022300E0FF2300F0B4
S113ED205DF81AD0012B1BD0022B34D0032B35D025
S113ED30042B36D0052B37D0062B38D0072B3FD0E9
S113ED40082B1CD0092B08BF062221D00A2B08BF90
S113ED5007221DD00B2B38D00C2B3FF402AC0D2B0B
S113ED603FF403AC0E2B16D00F2B1DD0102B1ED04E
S113ED70112B1FD0122B20D0132B21D0142B3FF496
S113ED8016AC152B08BF042202D0162B08BF05228F
S113ED903FF422AC172B3FF4ECAB182B3FF4EDAB54
S113EDA0192B3FF4EEAB1A2B3FF4EFAB1B2B3FF4C4
S113EDB0F0AB1C2B3FF40FAC1D2B3FF4F0AB1E2B20
S113EDC03FF4F1AB1F2B7FF407AC83E612E00000A5
S113EDD0027000F0037000F000000140C3764B7A2B
S113EDE01C00704703760B7A1C007047C3754B7A7E
S113EDF01C007047DFF8540810BD8177002010BD57
S113EE0010B500F1170482B00A00217920781DD0D2
S113EE1001230422FEF74CFD61796078012302226C
S113EE20FEF746FDA07E022809D100F034F8E1790E
S113EE30E07800230422FEF73BFD012017E00328BD
S113EE4027D100F028F8002304221EE00023FEF757
S113EE502FFD6179607800F026F8A07E02280ED19B
S113EE6000F01FF8E179E07800F01DF80020009030
S113EE7001230122A179A078FFF726F809E00328ED
S113EE8007D100F00EF800230022E179E078FEF7C4
S113EE900FFD002016BDA179A07800230122FEF702
S113EEA007BDA179A07800230022FEF701BD10B5AB
S113EEB0DFF89C27DFF89C1713783BB9002441F84E
S113EEC023405B1C042BFAD301231370002251F856
S113EED02230002B18BF834203D141F822000020C6
S113EEE010BD521C042AF2D3DFF86C0710BD0000D9
S113EEF00004014040F8241F0021036819800368BE
S113EF00598003689980017242601180426851807F
S113EF10426891804172C172704710B5044616F080
S113EF200CFC607FDFF8341716F015FC0020A07588
S113EF302075022060752046BDE81040FFF717B821
S113EF4038B5044616F042FA0021201D16F0DEF909
S113EF50DFF80C5728B9002104F1080016F0D6F99F
S113EF6000B1284632BDF0B587B004460D46684668
S113EF70DFF8F0161C22F3F703FA14B9DFF8D80609
S113EF80B7E0002D78D034212046FAF781F92046E5
S113EF90FFF78DFF0700F3D104F13100297C0170E4
S113EFA029682160002141702868DFF8BC16884276
S113EFB03CD1DFF8B8062062DFF8B406E0604FF415
S113EFC040202061EA69A9692046FFF793FF686839
S113EFD0029001216889ADF81000A889ADF80E00EF
S113EFE0A87B8DF80C00E87B8DF8120005208DF8C5
S113EFF00D00DFF88006F4F7CFFA00F088F8206AF5
S113F0000121F4F7C9FA00F07CF800F082FB2868CB
S113F010DFF8642603214167816F00F07DF8816782
S113F02020462946FFF77CF948B362E0DFF84C1626
S113F030884208D1DFF848062062DFF84806E0601D
S113F0404FF45020BDE72C49884208D1DFF8380638
S113F0502062DFF83806E0604FF46020B1E7DFF8A3
S113F0606012884208D1DFF828062062DFF82406FF
S113F070E0604FF47020A4E7DFF8D00539E000F039
S113F0803DF8002835D1F3F7BFFB0646287C03285A
S113F09010D12868416F41F030014167416E41F061
S113F0A00401416695F8212095F8201041EA0221D7
S113F0B0C16704E0022804BF2046FFF72EFF28683A
S113F0C04FF0FF318164297C03290CBF0521042101
S113F0D000F018FB29684FF44060C86016F076F918
S113F0E02046FFF72DFF00F0A2FA002F14BF384688
S113F0F0002007B0F0BD00000008014001212046B7
S113F1007EE600208DF800006946286870470121DA
S113F110DFF88405F4F740BA11402A7A41EA022163
S113F1206A7A1143704738B5040002D1DFF8280524
S113F13032BD032100F03CF80021204600F045F9DF
S113F1400021FFF7DCFF04F131056878010006D1E6
S113F15021680220C86008202168C8600AE00128EC
S113F16008D1206800F070FB2068416C8907FCD44A
S113F1700A2141600021206AF4F70EFA2878032856
S113F18003D0607F002116F0E6FA606816F004F9F7
S113F190A06816F001F916F0E0F8606A0021018019
S113F1A041808180A06A018041808180002032BD3D
S113F1B02DE9F0435FEA000883B00D4608BFDFF88D
S113F1C098047BD0F3F720FB012D814608F12C062F
S113F1D008F10407DFF8C44415D1786A808810B3B5
S113F1E0386816F063F900207070786A818879B302
S113F1F000F06DF8009800F10801386816F092F9F3
S113F2000098046120E0022D03D1386A808840BB55
S113F21009E0032D23D1786A8088002802BF386A68
S113F22080880028DCD14846F3F72BFBDFF8700414
S113F23044E06946FEF7FCFE0098D0F80CC0BCF12F
S113F240000F01D000F03EF8786A81880029F0D1DF
S113F250404600F03FF88004FAD5022D01D0032D7A
S113F26028D1786816F022F900203070386A818835
S113F270D1B101A9FEF7F7FE019800F10801786801
S113F28016F050F9019804610AE001A9FEF7D0FED6
S113F2900198D0F80CC0BCF1000F01D000F012F8B6
S113F2A0386A81880029F0D1707903281CBF404650
S113F2B0FEF712FF4846F3F7E4FA0020BDE8FE83A8
S113F2C0000C01408368002221464046604769469D
S113F2D0FEF7C9BE90F832200021130002D1006865
S113F2E001691EE0012A1CD100688068820748BFBA
S113F2F00221C20748BF41F00101420748BF41F063
S113F3000801020748BF41F02001C20648BF41F08E
S113F3104001820648BF41F08001400648BF41F4E5
S113F320005108467047406A1CE02DE9FC4100F09A
S113F33046F8606A818816461F4671B1FFF7C7FF19
S113F3408046A06801A916F0EDF8009828B1B8F13C
S113F350000F02D100F02AF802E00020386030608B
S113F3601EE0806A8088C0B270472DE9FC4100F03D
S113F37026F8A06A818816461F4671B1FFF7A7FFD9
S113F3808046606801A916F0CDF8009828B1B8F15C
S113F390000F02D100F00AF802E00020386030606B
S113F3A028602046FFF796FFBDE8F6814068019982
S113F3B0401A30600198386000980068704704462D
S113F3C00020009001900D46704700F11402537F15
S113F3D0032B02D1DFF8CC0270475170022918BF09
S113F3E01170FEF7C4BD000010B500F11602D37E03
S113F3F0012B01D1022900D1EFE014788C4208D00E
S113F400117011B900F0D2F803E0012908BF00F02F
S113F41088F8002010BD007D70472DE9F0410446B6
S113F42088461646FEF760FF002878D1092016F0BA
S113F430CDF9054604F12E0702E00DB116F086F869
S113F440A06A808810B138780028F6D03879010095
S113F45002D12168096905E0012818BF002522D1DD
S113F4602168896811F002051DD101000BD12168C2
S113F4700420C860206801698907FCD5416F41F008
S113F480020141670FE001280DD12068416C890712
S113F490FBD404214160206881688907FCD5416D53
S113F4A041F0020141650120B8703879010006D0AD
S113F4B0012819D110E018F8011B00F0A4F9314615
S113F4C04E1E20680029F6D101698906FCD50BE09F
S113F4D018F8011B00F0D1F931464E1E20680029AE
S113F4E0F6D181680907FCD5C5B93879010008D17E
S113F4F02068416F21F00201416708202168C8603B
S113F5000CE001280AD12068416C8907FBD4416DC5
S113F51021F0020141650820216848600020BDE80F
S113F520F08110B5040001D1FFF7DEBC94F82E0081
S113F53030B92046FEF7D1FC10B9606815F090FF91
S113F54094F82E00401C84F82E00002010BDF0B565
S113F55087B000F070F8A0B900F061F800F01CF872
S113F560049700F010F860B9287E48B92046FEF7E9
S113F57091FD00F00DF8687F032801D000F011F828
S113F580002007B0F0BD6A46286901A9FEF71EBD38
S113F59000992046FEF7BDBD04F1140542480590CC
S113F5A07047002028702046FEF7E1BC10B5040027
S113F5B001D1FFF799BC94F82E0070B194F82E0095
S113F5C0012806D12046FEF788FC10B9606815F0C2
S113F5D055FF94F82E00401EB5E7324810BDF0B533
S113F5E087B000F028F8C0B900F019F800F029F845
S113F5F004976A462868FFF7C8FF70B9687958B954
S113F600F3F702F906462868808818B100F00BF871
S113F6100120287200F00CF8002007B0F0BD01951D
S113F62002960396704700992046FEF794BD07465C
S113F6303046F3F726B904460D4616461F46FEF734
S113F64053BE04F12805184805907047037000F074
S113F6508FFF032094F50320027000F007DF000001
S113F6600E7000F0947F030000000140004204008B
S113F67001000C0040410500E0E0FFFF00040140F0
S113F6800052040001000D000062040001000E009D
S113F6900072040001000F0000350800097000F03A
S113F6A0087000F0057000F0017000F070B50446B9
S113F6B0080015461E4604BF4848F3F79DFF310075
S113F6C006D0202E18D0402E18D0602E18D070BD31
S113F6D01021226822F060022260694322683243CA
S113F6E022604A0802EB4010B0FBF1F020383C499C
S113F6F001EAC000606170BD0821EAE70621E8E77D
S113F7000421E6E7CA43520002F00A02C260C16063
S113F710704738B504460D4600F039F8A87C18B196
S113F720206840F080402060E87C18B1287D40F0DB
S113F7308000A065687BB5F910100843B5F90E1078
S113F740084360602B7BAA6869682046FFF7AEFF18
S113F75000F00CF8606F20F030006067606F297E65
S113F76008436067FFE72878E06031BDA87DE97D44
S113F7700007090500F0E04001F4E00108432066B9
S113F780687D18B1206840F480302060704740F6EE
S113F790AA61C1600021016041F2050141600021BC
S113F7A081604161C1640F4B0F49104A816400219B
S113F7B041678167C167984218BF90420C4904D0E1
S113F7C00C4B984218BF884201D1002303650023E3
S113F7D08365904214BF8842C36570474041050069
S113F7E0F8FF7F0000000140F9FF01000004014020
S113F7F0000C01400008014001690906FCD5FFE73F
S113F800C069C0B2704702695206FCD541637047B3
S113F810026CD20702D4426C0A42FCD1704738B55C
S113F82000F00EF8E843400000F00A00284360604E
S113F83031BD19B1416C0029FCD10121016470472B
S113F8400D4604460221E3E710B504460121FFF703
S113F850F0FFEA206060002100202060E060206169
S113F8606061A06340F2F97060630020E06360654A
S113F870A0652046BDE81040DBE738B500F005F888
S113F880402100F00AF8A56231BD04460D46A06887
S113F890C006FCD57047606002212046B8E700002E
S113F8A012490A6842788A600278DAB14268CA600A
S113F8B0437A827A1B0643EA0272C37B42EAC3425A
S113F8C0C37A42EA8342037B42EA4342437B42EAED
S113F8D00342837B007A42EA032242EA400040F07A
S113F8E0010001E00020C8600861704790ED00E06D
S113F8F0BFF35F8FBFF34F8FBFF36F8F704700006D
S113F90080B5684615F088FFDFF81804DFF818148E
S113F910DFF81824016148F2E67141604FF4086190
S113F9200160DFF80C04DFF80C1441604AF63F4133
S113F93011604FF0C071DFF80024116000210166EE
S113F940DFF8F81301607F20DFF8F4130860232048
S113F950DFF8F013086001BD10B5DFF8EC03DFF841
S113F960EC430168426849B10B0C1B04A34208BF75
S113F9700A600830DFF8D8138842F2D310BD10B5FE
S113F98000F049F8FFF7E8FFFFF7BAFFDFF8C41308
S113F990DFF8C443032008604FF40020DFF8BC13F1
S113F9A008600120206003F0E5F8DFF8B4134FF499
S113F9B0607008604FF040706066E06710BD10B57D
S113F9C0DFF89C3382B001221A60DFF89843226882
S113F9D0120E12F00F02FAD14FF00452A267012264
S113F9E0E2678A0001464FF00450F2F7C9FCDFF8E1
S113F9F07803E065DFF87443DFF87403216800914D
S113FA00A421F9F745FCDFF86C03DFF86C130160FF
S113FA100099216013BD80B50121DFF8600315F062
S113FA2015FF0121DFF8580315F010FF0121DFF85D
S113FA30540315F00BFF0121DFF84C0315F006FF0A
S113FA400121DFF8480315F001FF0121DFF840032D
S113FA5015F0FCFE0121DFF83C0315F0F7FEBDE8CC
S113FA6004400121DFF8300315F0F0BEF8B5044678
S113FA700D460FF2643600E00860002D1CBF2868B4
S113FA8010F1010F3FD055F8042BC2F3026156F870
S113FA90211093B2C2F307401943022808D3002867
S113FAA01EBF55F8042B41F8042B401EF7D1E4E7A0
S113FAB055F8040B120F4FF0010C072A01F1C06333
S113FAC001F180670CFA00FED7D8DFE802F00506E2
S113FAD0090C0E111417D0E7CEE7C0433860CCE709
S113FAE00A685040C8E71860C7E702F047FBC4E75C
S113FAF0C3F800E0C1E7C7F800E0BEE70A680240C7
S113FB008242FBD1B9E7204602F0C4FD01F03EF881
S113FB10DFF88802006810F4E05F03D1DFF8801298
S113FB2020200860F1BDDFF83C020068000E00F000
S113FB300F00022818BF032801D1012070470020BC
S113FB407047DFF86002016800208A0648BF04207D
S113FB50CA0644BF801CC0B20A0744BF801CC0B29E
S113FB604A0744BF801CC0B28A0744BF401CC0B2CD
S113FB70C90744BF401CC0B2704780B51120F3F7D9
S113FB803BFDDFF8241209688AB232B1C008C1F320
S113FB9007414843B0FBF2F002BD002002BD38B576
S113FBA0DFF808024168006801F00702082AC0F380
S113FBB044141AD20FF228239A5CC1F3CD035B1CC0
S113FBC0C1F345415A43491C5143C0F3822200F01A
S113FBD01F0014FB02004843450006D01120F3F730
S113FBE00BFD6043B0FBF5F032BD002032BD80B5A3
S113FBF0FFF7C3FFDFF8B811096801F03002102ADB
S113FC0004D0202A04D0302A08D002BD400802BD06
S113FC10C1F3C421491CB0FBF1F002BD800802BD50
S113FC2010B56348016801F03002202A0FD1C1F3F6
S113FC30024018B1C1F3C422B2FBF0F011F4C01FAA
S113FC4018BF40004408032C0AD3042408E00068C9
S113FC5000F4E070402816BFB0F5807F0224012430
S113FC60FFF7C5FF604310BDF8B50446F7F7ECF89D
S113FC700646FFF758FF05464E480068C0F389174B
S113FC80B80544BF4C480743FFF74DFF00B90025B2
S113FC903046F7F7D6F83FB217F5007F01D1254279
S113FCA0E4D105B9454F3846F2BD38B505460C4692
S113FCB0FFF775FF68434249B0FBF1F0002100E013
S113FCC0491C01228A40824203D21029F8D3012020
S113FCD032BD3C4A0F20106041F010003A490860E0
S113FCE03A480068C0B2802803D02046BDE83240BC
S113FCF001E0022032BD364AFF21116000F0FF000E
S113FD0034490860002070471648016801F07061AA
S113FD10B1F1C06F02D1816BC906F6D540214160B3
S113FD207047000034410840C0E653510830084091
S113FD309C4008407A27000F28700840806D6303B8
S113FD4024300844243008460080E00F00000840B6
S113FD50B081E00FD86008469440084694400840BB
S113FD600C40084604400840C01F0021E81F002141
S113FD705C1F0021F01F00213F0037000034060003
S113FD800004060070050600006406000054060026
S113FD900044060000240600007406008460084045
S113FDA0106208404C00084050600840546008400D
S113FDB0186008400870084000FCFFFF00FEFFFFC9
S113FDC040420F0080700844807008461870084054
S113FDD0187008441870084600000840000000210C
S113FDE00304040808080808012100F01F029140D8
S113FDF0DFF8A82A05E0012100F01F029140DFF896
S113FE00DC26400942F82010704780B5F7F71CF84B
S113FE10DFF8CC160968090E01F00F01032907D198
S113FE20DFF8C0160A6822F0F00242F0E0020A602D
S113FE300121DFF8842A1160BDE80240F7F701B818
S113FE40DFF8782A1168D368194021EA000090602D
S113FE50084670470422C900002814BFDFF888064A
S113FE60DFF8900A02FA01F101607047012070473F
S113FE7010B5DFF8844A01232370F5F7A0FE0020B3
S113FE80207010BD70B5F6F7DFFFDFF86016DFF8FD
S113FE906046CD78D1E902232E00DFF8941A04BF1E
S113FEA04FF41056324219BF10260E6010262660F9
S113FEB00DB9D20502D520220A6001E0202121607B
S113FEC0BDE87040F6F7BDBFDFF8200600210171E0
S113FED0C17811B10021C170D4E7704710B5DFF8C3
S113FEE00C46207978B1012001F021FD58B9FFF7C3
S113FEF0EBFFD4E90201BDE81040002200F4805079
S113FF0001F00001B4E710BD10B5036883EA0104F1
S113FF1024EA020200F180641340236040F8042CB8
S113FF2000F1C0601140016010BD70B504460D467B
S113FF301646FFF7A7FF4FF4004114F0AA6F18BF4D
S113FF4048F20201B00748BF41F400510022DFF833
S113FF50A405FFF7D9FF0021200448BF4FF48051C6
S113FF60E00348BF41F48071E00648BF41F400510A
S113FF70A00648BF41F40071600648BF41F48061A7
S113FF80200648BF41F400610022DFF86C05FFF74A
S113FF90BBFF05F0040300210025AB4218BF4FF45A
S113FFA08021200548BF41F48031600448BF41F4FA
S113FFB08011A00748BF41F40011A00348BF41F4D9
S113FFC00021700748BF41F004010122DFF82C052D
S113FFD0FFF79AFFDFF82815F00748BFDFF8C018CD
S113FFE0A00048BF41F40011600048BF41F0007117
S113FFF00022DFF8B008FFF787FF0021E00748BFC1
S21401000001210022DFF8A008FFF77EFFDFF8B01815
S214010010600348BFDFF8AC186007BDE8704048BF12
S21401002041F480614FF4A022DFF8C0096CE710B5F7
S214010030F6F70AFF04461C20FFF7DDFE0820FFF74F
S214010040DAFE0120FFF7D7FE0420FFF7D4FE0520D5
S214010050FFF7D1FE1D20FFF7CEFE0720FFF7CBFEF0
S2140100600620FFF7C8FE1F20FFF7C5FE2046BDE8A5
S2140100701040F6F7E6BE2DE9F04702EA0009089DB2
S214010080099AC643CF43002D03EA010A05EA02088E
S214010090DFF858442CD1002948D100286ED0012819
S2140100A00ED0042842D1F6F7CFFE00F069F8002002
S2140100B082450CBF814501200121FFF7CBFE33E0CD
S2140100C0F6F7C2FE00F05CF80022924508BF9145A3
S2140100D0DFF86C0806D0012101600120DFF89018D6
S2140100E0086021E0DFF88C280121116001601BE027
S2140100F00022914204BF9042012D17D1F6F7A4FECB
S21401010005462069400848EA400020614FF48061B6
S214010110DFF87808B8F1000F19BF0160DFF8700842
S214010120DFF84C2911600160284623E0FFF77FFFC6
S21401013000F027F82269AA4348EA02022261FFF783
S214010140F4FEF6F781FE04461C20FFF74DFE08205C
S214010150FFF74AFE0420FFF747FE0520FFF744FE9F
S2140101601D20FFF741FE0720FFF73EFE0620FFF7A2
S2140101703BFE2046BDE8F047F6F763BEBDE8F087D4
S2140101800546D4E902013040394040EA090041EA17
S2140101900A01C4E902017047DFF85408006810F04C
S2140101A0A00F0FD1DFF84C1808200860DFF84818B8
S2140101B00868800547BF0220DFF8B8180220DFF87C
S2140101C0B8180860704710B50446FFF7D8FBFFF76C
S2140101D02EFF00F007F9012002F0FBFD04F190016B
S2140101E0DFF8980801F0AAFADFF8941801200860F1
S2140101F001F06BFD01F0CCFD00F096FC04F1280047
S21401020000F0B4FD4FF44001002001F01FFF4FF451
S2140102100011012001F01AFF02F0A4FC02F060FDBB
S21401022010B91421F6F7D0FEBDE8104002F073BCF9
S21401023010B5DFF85048206810F0070F08D1DFF836
S2140102404818086820B1002001F071FB401E60616B
S2140102508020DFF838180860DFF83408016821F0DC
S2140102604001016010BD10B5F6F7EEFD044600F042
S21401027018F8002802BFDFF81C08006810F0060F07
S2140102800AD1FFF7D5FFDFF86C170120086020467A
S214010290F6F7D7FD002010BD2046F6F7D2FD012067
S2140102A010BD032001F0CCBE80B5010003D0DFF8FD
S2140102B0EC17401E0860F6F7C7FDDFF8D4170A688A
S2140102C022F040020A60F6F7BCFDDFF8A81702200C
S2140102D0086001BD2DE9F84F804689469246F6F73B
S2140102E0B3FD83465FEA09007D4CDFF8AC570FD0BB
S2140102F000F065F8DFF8A8170120086004202860E0
S21401030001E0FFF701FD2068000E10F00F00F8D1A4
S214010310A0202860FFF7C5FF20B1032001F060FD93
S21401032000F0C4FA01F09AFEDFF86066DFF848775D
S2140103300020F06000F043F8DFF85407016841F050
S21401034040010160FF2038604FF480706060042037
S214010350B8F1000F286007D0FFF757FD01F0E0FE67
S2140103602020606000F0A2FAB9F1000F22D05046BA
S21401037000F0AAFA0120BAF1000FF8601AD0DFF8EF
S214010380240741680160E069A061DFF81C07416845
S2140103900160DFF8180741680160DFF8140741685B
S2140103A00160DFF89C0541680160DFF808073060EE
S2140103B0FFF78AFD5846BDE8F24FF6F742BD10B585
S2140103C0DFF8C84606E0DFF8D016042008600220F1
S2140103D001F0D4FE04202060DFF814060068400314
S2140103E0F1D410BD80B5DFF8D0060168DFF8CC0681
S2140103F0FFF7E5FA6421DFF89806F8F749FFDFF81A
S214010400F0050021016041608160BDE8014001F016
S21401041021BFF8B5DFF8A816344C0A5CDFF86C6526
S214010420130005464FF400671CD0032D08BF376044
S214010430521E0A54D2B25AB9032D05F10900DFF84B
S214010440841609D10002227840F0010012B108603A
S214010450002016E0F060FBE7042DF9D1000640F419
S2140104608030F4E701F0BCFC032D07D1DFF8581605
S21401047041F61F70086037600020EBE7022D02D1BD
S21401048001200021F4BD042DE2D1032001F0A8FCD7
S21401049001F0E4FDF6F7D8FC05466078002608B1C1
S2140104A0FFF7B3FC012001F042FA0D4F002838682F
S2140104B004D1000E00F00F00032802D1A0782071AD
S2140104C001262846F6F7BDFC002EC1D10020E070BB
S2140104D0FFF7D8FC4FF48050D3E7000080E100E03E
S2140104E0044008405C1F0021EC100846C0E50320CC
S2140104F0944008446C0008400C62084020400840C4
S214010500041850002DE9F04FDFF8C005DFF884A588
S21401051083B00168C2681140009100998160DFF8DC
S214010520B0050168C26802EA01048460DFF8A40528
S2140105300168C26802EA010585604FF6FF70FFF7A1
S2140105407FFC0646DFF890050068C0F3407000287F
S21401055001BFDFF888050068C0F3407000281FD08F
S214010560F6F772FCDAF8001011F00608DAF8501007
S214010570DAF85C2002EA010718BF4FF00108DFF83D
S21401058060153940CAF85810790704D5DFF85415B4
S2140105900A78521C0A70F6F754FC8DF8048002E0C3
S2140105A08DF80400002700984FF000080028C34685
S2140105B0C1463ED00099DFF8380409041CD501680D
S2140105C0DFF8D424DFF8D03401F4E0511160A02222
S2140105D01A601022DFF8A0341A6011B94FF400280F
S2140105E00AE0CA0448BF4FF0007805D449054CBF5D
S2140105F04FF400184FF400080099890714D50068D5
S214010600DFF8941410F46040086008BF48F48018BE
S2140106100AD0010448BF48F0806805D480044CBF66
S21401062048F4800848F080780098800448BF4FF06E
S2140106300209DFF8B404044235D014F4206F07D061
S214010640002000F041F9062100F033F924F480245B
S21401065014F0090F0AD0DFF8941420204860012016
S214010660DFF88C140860082100F023F914F0106FED
S2140106700AD0DFF87814202048600021002001F01D
S2140106805FF9092100F015F914F4202F07D0002096
S21401069000F01AF9072100F00CF924F48024E00395
S2140106A048BF01F036FA60070ED5DFF84804006847
S2140106B04FF4005128B1DFF84004016048F4802867
S2140106C002E0DFF838040160600548BF48F004081E
S2140106D060031CD501F0F5F9401E062805D8DFE8B1
S2140106E000F0080B080E11141400032100F0E1F8C5
S2140106F00DE048F400580AE048F4806807E048F442
S214010700007804E048F4807801E048F00808BDB1BC
S214010710E80448BF48F40048E80548BF48F4803874
S214010720A80448BF48F01008A80548BF48F02008AC
S214010730680548BF48F04008280548BF48F08008CB
S21401074036B3B00148BF49F00809700148BF49F007
S2140107501009300148BF49F02009700348BF4BF02B
S214010760040BF00348BF48F40068F00248BF48F4A1
S2140107708048B00248BF48F00208300308D500F0B0
S214010780D9F802281CBF0328072801D148F40038ED
S214010790002F5FD0380506D50320FFF73AFE48EA5A
S2140107A000084BEA010BB80104D52B2002F03BFBF5
S2140107B048F0804817F4E00F05D1F8043AD59DF8C3
S2140107C00400002836D0B80204D5292002F02BFBFD
S2140107D048F0005878020FD500F068F8272002F09C
S2140107E022FBAD49A02008601020A34908604FF401
S2140107F08000CAF858001AE0F80207D500F056F84B
S214010800282002F010FB48F000681CE0F8041AD516
S21401081000F04CF801F084FCDAF8500010F4A00F58
S21401082011D12A2002F0FFFAB1490120086048F0F0
S214010830805808E0F80406D50420FFF7EAFD48EAE8
S21401084000084BEA010B780504D50220FFF7E1FD0D
S21401085040EA0909AA48016901EA0902D0E9020148
S21401086008EA00000BEA0101FFF702FB600303D56B
S21401087001F044F9FFF732FB6EB1B00148BF01F059
S214010880D9FE700148BF01F0F2FE300103D5BDE884
S214010890F74F01F0EDBEBDE8F78F000000E100E084
S2140108A0041C5000685008403C700840042001F0C9
S2140108B097BA0020F6F788BB240008401440084089
S2140108C0090A0A090D0A0A0938B50446F6F7BCFAF8
S2140108D0054601F04FF814B1FFF7F6FA04E00648B2
S2140108E0007808B9FFF7FAFA2846BDE83240F6F76D
S2140108F0A8BA0000EC100844ADFF032002E601E6AA
S21401090000E6FFE510B57F48FFF79AFA0446E007D0
S21401091003D500F00FF800F0FDF8600707D578481A
S214010920007CBDE8104000F00402002024E010BD69
S214010930944008466D480068000E00F00F007047AE
S21401094038700840DEE580B56F480168C26811401E
S2140109508160C8070BD56A48007A122100F00100B1
S214010960F6F732FBBDE808400022012004E001BD95
S2140109703C7008463C7008440021FFF779BA63488A
S2140109800168C268114081607047000064500840E9
S214010990685008462DE9F84380460C469146F6F71E
S2140109A053FA3B4F3E6805464046FFF75FFA28B1CB
S2140109B026EA040004EA0901084338602846F6F7E7
S2140109C040FA04EA0600BDE8F28338B504460D464F
S2140109D0FFF74CFA00281ABF2D490868E06F284037
S2140109E0A84201D1012032BD002032BDEC100840E2
S2140109F08840084008400840081F00212DE9F84FAC
S214010A00C9B202293CBFD6B2022E82460AD2DDF80E
S214010A1028800B9CA0453EBF092CDFB2042F01D2D3
S214010A200C9D0DB9012020E00A463B460021F6F751
S214010A3083F93748C14600EB4616FF0012E056F828
S214010A402900FF21B9408843A9EB0801695CB94038
S214010A5041EA000B5046FFF709FA08B146F829B0FB
S214010A6009F10109A145EADB0020BDE8F28F00008B
S214010A7068500844004008460040084499010100B7
S214010A800C40084404000840581F002188400846CE
S214010A90F81E00210C500840884008441800084001
S214010AA00C40084668000840086208407830084054
S214010AB0E81008405000F002DC4303000032030057
S214010AC0E0E503206C5008466C500844600008407E
S214010AD0E01008400062084000E300E000E200E0A9
S214010AE0FFF7BFFFAEFF0320090A0B0904400840C9
S214010AF028100840B4040243241008442410084671
S214010B00C0E503200000FFFF307008407030084049
S214010B10101F002102490120086002490860704741
S214010B20204008441C40084058B5DFF8C813DFF8D9
S214010B30C86307200860DFF8C40314F0A6FEC408E3
S214010B40DFF8BC23002312EBC45043EB5421DFF83B
S214010B50B42302F025FADFF8B01308604EF66020E1
S214010B6000F055F8DFF8A41340420860DFF8A00350
S214010B7001F0F3FA02465008002110EB843051EBE5
S214010B809441002302F00CFA306051BD10B5DFF835
S214010B906C0314F07AFE0446FFF742F8E2084308B5
S214010BA0DFF8701303EBC212B2FBF0F0086000200E
S214010BB0DFF864130968C90214D4DFF86013DFF89C
S214010BC0602309681368C1F38101491C5C0548BFAD
S214010BD0C80003F0FF03FF2B04D05268520548BF3C
S214010BE000EBC100DFF83C13086010BD30B5C64A03
S214010BF01268C117A2FB004502FB0155B4F17F4004
S214010C0065F1FF31400E40EAC110803830BD80B535
S214010C10FFF7ECFF0128B8BF002002BD0A0008D08C
S214010C2043F2C823994203DA642902DA642100E018
S214010C30194601800846704743F2C8229142A8BF70
S214010C40114681818089704743F2C8229142A8BF2C
S214010C501146C181C08970472DE9F84304000D464D
S214010C607BD0E8074FF47A7647F2305737D5E08ADB
S214010C7028B101F00CFDE18A00F071F800E0384679
S214010C80FFF7C5FFA8490860608A28B101F0FFFC9C
S214010C90618A00F064F800E03846FFF7B8FFA34920
S214010CA00860A08A38B101F0F2FCA18A00F057F87A
S214010CB02168401A00E03846FFF798FF9C49086013
S214010CC0608B38B101F0E3FC618B081A7043A0F623
S214010CD0C41000E03846FFF79AFF96490860A80757
S214010CE0DFF8548242F2107920D5E18906FB01F043
S214010CF039B1216849440818217911B100F5C2407B
S214010D00A830FFF784FF8D490860208B010008D0CA
S214010D10A16806FB00102179404419B188490818DA
S214010D2000E03846FFF773FF86490860680714D568
S214010D30208A010018BF06FB00873846FFF767FFC9
S214010D4081490860A18906FB01F011B12168494477
S214010D500818FFF75CFF7D490860BDE8F183081AB3
S214010D607043A168A0F6C410401A7047072173E7C4
S214010D70012171E7826001600020704738B50446A2
S214010D800D46FEF74DFF0A21B0FBF1F02919704A16
S214010D90430802FB0131B1FBF0F032BD6D48016C36
S214010DA00A0CC1F30111491C514342F211729142DE
S214010DB002D34FF0FF307047006800F01F00401864
S214010DC0401C704700000000F8B5069F0646144612
S214010DD047B3387A010025D00025401E06282ED8B4
S214010DE0DFE800F00F23210C0F04060007203872FD
S214010DF07868C1000020FFF7C1FF0546387A10B9B0
S214010E00F1BD04203872204600F058F801F091F93F
S214010E10316801F5FA714FF47A72B1FBF2F1401ABA
S214010E2028183860F1BD02203872FFF7B7FF10F1BD
S214010E30010F04D00021FFF7A1FF4542DEE73D7216
S214010E40F1BD0000F8B5069F06461446EFB1387AA4
S214010E5001001AD00025401E06282DD8DFE800F034
S214010E6004222416181E040006203872204600F0BC
S214010E7025F801F05EF9B16801F5FA714FF47A725E
S214010E8091FBF2F1081828183860F1BD0520387278
S214010E907868C1000020FFF771FF4542387A0028C4
S214010EA0E4D1F1BD03203872FFF778FF10F1010F8E
S214010EB002D07968C900EEE73D72F1BDF8B5044687
S214010EC0F1F7A2FC244E254937680D7824490968B4
S214010ED011B137686D1CEDB2F1F7D3FCA742B269C8
S214010EE038BF6D1E2046002105F00303521CE2FBAD
S214010EF00301F4BD84400840901F002160510700A3
S214010F00B2E60E0065CD1D00A0FE0320B81F00212D
S214010F1040420F008C1F00210400084000200840BA
S214010F20A8000840941F0021A81F0021A01F00212F
S214010F30A41F0021B41F002130DFFFFFB01F0021D6
S214010F40589EFFFFAC1F0021981F00219C1F002107
S214010F50A08601001C60084018500840AEFF032020
S214010F60880B0A4380B5002845D00178122942D360
S214010F70DFF8081742780A7082784A70C2788A7059
S214010F800279CA7042790A71827902B101224A71E4
S214010F90C27902B101228A71027A02B10122CA71B2
S214010FA0427A0A720278182A0FDB827C02B1012289
S214010FB04A72C27C8A72027DCA72437D827D43EA8E
S214010FC002228A81C37D027E0EE0827A02B101226C
S214010FD04A72C27A8A72027BCA72437B827B43EA76
S214010FE002228A81C37B027C43EA0222CA81407CB8
S214010FF00874002002BD002000F08DF8012002BD1B
S21401100000210328DFF874260FD8DFE800F002106D
S2140110101509107A01280AD002280DD0032804D118
S214011020D07910B103201075012108467047507918
S2140110300028FAD00120F6E790790028F5D00220A2
S214011040F1E710B5DFF83446207DFFF7D9FF207DA4
S21401105010BD80B5FFF7F5FFFF2800D15EE3DFF88E
S2140110601C16CA898B8900928A7A022100F001F83F
S21401107002BD2DE9F84FDFF8087606468A4638683D
S21401108091469846002101F054F80446701E0D461C
S2140110904FF0FF3B03D0401E012806D917E000F0B1
S2140110A0E0FA064600F066FC12E0304600F03DF835
S2140110B010F1010F08BF5E4606D00A9B424649461C
S2140110C0504600F0C2F9064600F089FA00E05E4696
S2140110D03868002101F02DF8001BA9414FF47A72FF
S2140110E0002301F05DFF002399424FF6FF7201D8FD
S2140110F0904201D3002403E04FF6FE7200EA020498
S21401110016F1010F04D0304600F005F846EA044611
S2140111103046BDE8F28F10F1010F05D0DFF86415F7
S2140111200A68C0EA02000860704738B5044600F055
S2140111302BF8022CDFF8442502D1D178022003E0F7
S214011140032C1ED1117903205378127814F0F0FB8A
S214011150054615F1010F14D000F09EF8284600F060
S21401116068F810F1010F0CD000F07FF8022C03D1C3
S21401117000F0B8F8002032BD032C02D100F0C9F807
S214011180F8E74FF0FF3032BD70B5DFF8FC04DFF84A
S214011190FC448169DFF8F854DFF8F86421600168DF
S2140111A061602968A1606969E160696B2161A96B69
S2140111B06161696EA161B16EE16131682162DFF83A
S2140111C0D81409686162016AA162416AE162816AB2
S2140111D02163C16A6163806DA063DFF8C0040068A3
S2140111E0E063DFF8BC040068206468686064F06E41
S2140111F0A06401F06DFBE06401F06DFB206500204A
S214011200F0662020DFF89C1408600120DFF89814AF
S21401121008604020DFF894140860DFF860146868FE
S214011220097C090220F4706001F47061084368606B
S21401123070BD10B5044601F051FBDFF8741409685F
S214011240C9024CBFA4EB400404EB4004204601F065
S21401125061FB10B9FFF75FFF04E00021204601F0B3
S2140112606CFB08B14FF0FF3010BD10B5DFF8441429
S214011270DFF844444FF40010086000F02DF800F049
S21401128079FBDFF83814082008602068000E00F0AB
S2140112900F000228F9D110BD10B5DFF82414DFF8CD
S2140112A01844FF200860F5F7CFFD2168090E01F00C
S2140112B00F01032907D1DFF80C140A6822F0F002A7
S2140112C042F0E0020A600121DFF8FC231160F5F725
S2140112D0B8FD00F001F810BD2068000E10F00F00F8
S2140112E0FAD17047DFF8E403DFF8E4230168114020
S2140112F041F0804141F4184101604FF48000DFF86D
S214011300D41308604FF40021DFF8CC03816101603B
S2140113107047F8B5DFF8B403DFF8C023016ADFF8D9
S214011320C043DFF8C053DFF8C073DFF8C063890B32
S214011330890341F4605141F03E010162416A090DA1
S214011340090541F4145141F0BC014162016D01F0FF
S2140113507F4111430165DFF89823016889098901F6
S21401136041F0A70101604FF48000DA4908600021CE
S214011370C8488166016821F4E07141F4807101601A
S214011380C5480168C908C90041F0050101604FF46C
S2140113900021D8480160216821F0004141F08041D8
S2140113A021604FF44041C160E960A168114040F2FC
S2140113B045421143A160D04AE16821F0370141F06E
S2140113C02001E160E168114041F4002141F48A41C5
S2140113D0E1604FF4F87101640820A8604FF4803092
S2140113E000F028F8206820F47F5040F0400020608C
S2140113F04FF4003000F01EF800F020F84FF4802083
S21401140000F018F8BD4909200860142000F0B6FE67
S21401141000F014F8A148994A01689278C1F31601C0
S21401142041EA026141F4000101601420BDE8F24086
S21401143000F0A4BE2860142000F0A0BE206838404A
S21401144030432060142000F099BEF8B502280C46FF
S21401145015461E4616D100962B462246012100202F
S21401146000F013F800962B462246002100F00DF8F6
S214011470074600962B462246012100F006F847EA69
S2140114800020F2BD4FF0FF30F2BD2DE9F24F82B0E1
S214011490054647F6FF7800200C9C8DF8040091461F
S2140114A09B46464682460527384600F032F800F04D
S2140114B036F812BF29460146284600F037F8B042F2
S2140114C0BCBF06468DF804700A37802FECDB9DF80A
S2140114D00400461F06E000F029F84045BCBF8046E0
S2140114E0B246761C9DF80410F6B23046491D81427C
S2140114F00CDB80280ADA0028F3D000F00AF800F0A6
S2140115000EF812BF294601462846E4E75046BDE8D4
S214011510FE4F4028B8BFC0F14000C0B270479DF8EA
S2140115200810009400295B464A4670472DE9F84F9B
S21401153000278028A8BF7F2080291546A8BF7F21C5
S2140115400F2D4FF00008A8BF4FF0FF3045DA4D4A87
S2140115506B4E1468DFF8AC91DFF820A1344044EA02
S214011560002008431060C346184600F007FE0A9C98
S214011570654E0EE02020C9F80000B0609AF80B0016
S214011580834504D30120FEF76FFB80447F1C0BF1DB
S214011590010B0120A84083451AD2204600F0EEFD3B
S2140115A09AF809000028E9D12021F068C9F800104E
S2140115B0B1604009012100F00100316131688906FE
S2140115C0FCD50028D6D020205049B0600860D5E769
S2140115D007B9012798FBF7F000B2BDE8F28F38B5DE
S2140115E0FFF75AFE14F031FA2848274902688A6143
S2140115F042680A608368264A1360C36853610369B8
S21401160053634369936383695366C469214B9C663C
S214011610046A1C60456A204C2560856A0D62C56AAD
S2140116204D62056B8D62456BCD62856B8D65C16BB9
S2140116301A4D2960016C1A4D2960416C5160816C0C
S214011640D966016DC06C01F078F900F093F9304964
S2140116500120086040202F4908604FF0FF30606687
S21401166031BD80B501F034F900B957E02A48006869
S21401167010F1010F18BF80B202BD00006CFE0320FE
S214011680185008403C410840F84008402CFC032014
S214011690147008401860084004000840B86008400C
S2140116A03840084010620840400008460C40084692
S2140116B0303008401860084604400840004008469C
S2140116C0004008445C1F00212400084028700840A0
S2140116D0FF0110C014700846F840084680846D006B
S2140116E01841084010410846FF3FC0E00040000195
S2140116F033F33FFF10410844FF88F3FF38400846A4
S2140117008080FFFF3C700844307008403C700846FB
S214011710400008440C400844C081E00F4FF0FF3001
S21401172002BD000030B53025DFF84045684320444F
S2140117300160426003991943416230BD38B5DFF854
S21401174030556860002000900C4640F6FF7305F1A6
S2140117500C0203210120FFF7E5FF03202880002368
S2140117600020688022464FF400500090002103209C
S214011770FFF7D8FFDFF8FC14F0200860A020DFF8A0
S214011780F81408600120DFF8F4140860BDE8314061
S214011790F0E038B5DFF8D444226060600D46F5F716
S2140117A053FBDFF8DC140A680023E360A5605207E8
S2140117B05CBF04228A60F5F744FB0DB10220A062EB
S2140117C031BD00002DE9F04F89461646DFF89C141E
S2140117D000EB4002052E81B001EB021515D2761EF4
S2140117E0032E45D8DFE806F00B08050219F8010BB1
S2140117F0A86119F8010BA86119F8010BA86119F87D
S214011800010BA86101B0BDE8F08F19F8010BA861C2
S214011810361F19F8010BA86119F8010BA86119F810
S214011820010BA86101202968AC6801F00701891D38
S21401183000FA01FAAAF10108696808EA0400AAEBAD
S214011840000741F0005BB742584408D23A46494681
S214011850F0F786FDF21B09EB0701584601E0324618
S2140118604946F0F77DFD30194AEA08010840A860AC
S21401187001B0BDE8F08F10B582B014460022009288
S214011880224600F002F8204616BD2DE9F0478946AB
S21401189030214843DFF8D41382B00E180858716817
S2140118A0144600F007000122801D02FA00FA41F0FA
S2140118B000511D46AAF10108009108EA0500AAEBAD
S2140118C000070099A742014408D23A464846F0F775
S2140118D047FD0099E21B09EB070001E02246484656
S2140118E0F0F73EFD0A9848B160194AEA0801084037
S2140118F0F060B16888421CBF0220B062BDE8F38781
S2140119003023DFF8682358431044026AC2F3080202
S214011910914202D34FF0FF3070474268C0684FF0E3
S214011920005308181A44C0F30800105C70473022B0
S214011930DFF8381350430844006AC0F30C007047C0
S214011940F8B50D46412D044601D30120F2BDDFF85E
S2140119502C6301203060F5F777FA07462A462146C0
S2140119600320FFF72FFF3846F5F76BFA04203060A7
S2140119700020F2BD38B5F5F767FA0446C248BC4DFB
S2140119800121016001630020009003234FF40370DE
S2140119902A1800210220FFF7C5FE03202880002018
S2140119A068804FF4A020B9490860B9490860002052
S2140119B0A8602046BDE83240F5F743BAB048016852
S2140119C0C90311D54FF480318160B1480160B14837
S2140119D0016801F0FF0101640168C1F30721016498
S2140119E004210164002101647047F8B504004ED05B
S2140119F0F5F72AFA05469E484188C1F3830200EBB3
S214011A0082024FF403731A448368022C1E4603D1E4
S214011A10D3B37408640002E0012C08BF14467608AC
S214011A204FF40373B4EB460F034423D100218160C6
S214011A309442218841F4004121803BD1028821460D
S214011A40121F4FF413770280241D0744468892B272
S214011A50361DBC4228BF1C46052A468002D327886D
S214011A603F04EBD48B7803F00703042B0CBF012350
S214011A7000230EE0E61A01F03F01711A068848BFFE
S214011A804031361FB142D3DB2846F5F7DAF9032099
S214011A90F2BD0988804CC1F30C01216006F07F017C
S214011AA041802163A2642BB14068010018BF8047C2
S214011AB0FEF72AF9FFF782FF2846F5F7C2F900205C
S214011AC0F2BD6B4908884A888218D21E920802F035
S214011AD00F0201EB82024FF40373001D1A440880C3
S214011AE080B26E4B1860907800F00700042803D18E
S214011AF06B4B1B681B03FBD48A60704710B55C4CAC
S214011B00A06828B1C10758BFFFF76FFF0020A0608B
S214011B1010BD80B563494FF48030086059490860AC
S214011B200220FFF704FF3D2802D2BDE8014045E749
S214011B3001BD2DE9F84F04460D461646F5F784F922
S214011B40DFF82C818146B8F80200C0F3830108EB68
S214011B5081014FF403721144B8F80020022C10D111
S214011B60D8F8083053B91318DB1E9B0803F00F038F
S214011B7008EB83034FF403741C4405E05C0864001F
S214011B8002E0012C08BF0C464FF403734344E71AE6
S214011B9000F03F00B7EB000A48BF0AF1400A924541
S214011BA01EDA002D08BF002E59D08C42DFF8E4B0B3
S214011BB003D1DBF80470BFB206E0201F984238BF9D
S214011BC040300088C0F30C0706B13780002D46D0A0
S214011BD00220FFF7ACFE82451ADA2088010404D5FC
S214011BE04846F5F72EF900203DE0A17801F00701FF
S214011BF0C01B06292970C0F3090602DBFDF7A1FF09
S214011C00361A30B2C043C00F0421F5F7DDF911E0F2
S214011C10DBF80000C01BC0F3090621480068012E4E
S214011C2004DA000E00F00F00032801D1082000E0BE
S214011C3000202870C7F3080708EB07000C30A860DF
S214011C406E8017FA86F0B0F5007F05D9C7F50070EB
S214011C50A88008F10C0001E0AE800020E86048464C
S214011C60F5F7EFF82046BDE8F28F000000100840B7
S214011C7020FC03204000084440000846B8100840F5
S214011C80E0100840E410084058100840E8100840EA
S214011C90EC100846381008403C10084084100840F4
S214011CA004400840EC100844012100F01F02914056
S214011CB0DFF83825400942F820107047890001EB0B
S214011CC0401000F18440006870472DE9F047DFF8C6
S214011CD020450121204613F0B9FDDFF81855DFF83D
S214011CE018052860204613F0D0FD4FF47A71B0FB3A
S214011CF0F1F64FF4FA707043010EDFF80025002369
S214011D0012EB00205941DFF8F82401F049F90400EC
S214011D10A4F58070A86204D12B210020F5F754F9B0
S214011D2001244FF47A7000FB04F20020310200EB2C
S214011D305200002301F034F9DFF8C87480468A4661
S214011D404FEA1429C7F800A0C7F80480240626B96C
S214011D502B210020F5F738F901264FF47A70A0FB05
S214011D600423002100FB093312EB56005941324689
S214011D70002301F015F9F860B96018F102004AF184
S214011D800001800840EA8170401E2863BDE8F087A4
S214011D9080B51D20FFF788FFDFF86C144FF0005068
S214011DA008600120FFE7DFF86414086001BD30B564
S214011DB004460D46101B63EB0501AB420FD828BF46
S214011DC0A2420CD2DFF8482412680023521C63F1A9
S214011DD0FF339B0043EA927310EB8200594130BDFA
S214011DE0DFF8302402EB001202F18062012111605B
S214011DF04FF4807101FA00F0DFF81C140860704798
S214011E002DE9F14F8CB090469946F5F71DF80590EF
S214011E109DF83000FFF7E4FF9DF85860022E00F0B1
S214011E20FC8000F01FF9012E82468B4607D1BAF1DD
S214011E30FF306BF1FF3118EB000849EB0109DFF8C1
S214011E40D06330680021401C61F1FF31CDE9080103
S214011E50DDE90845AD0045EA9475A40022462B4607
S214011E604046494600F0E3F88046894652465B46BE
S214011E70A408FFF79CFF44EA8574AD088D4203D39E
S214011E8000D8844280F0A4809DF83010336CDFF8CF
S214011E908C53DFF88C7309310A0241F61F74002057
S214011EA042F0010223409342F36B08BF0420090667
S214011EB02B4041F480318B42F16B08BF40F00200A9
S214011EC02140914208BF40F001000390424610F0C5
S214011ED00100049018BFC7E904899DF830000290FC
S214011EE0022808BFC7E902894B4600F09DF8DDE9E4
S214011EF0082301F055F802997854DDE90823404695
S214011F00494600F094F88046039800F002000690D7
S214011F1089460298385C70B1049810B1DFF8040362
S214011F200460069810B1DFF8FC02056003984007CC
S214011F3044BF002030640298DFF8D81200010A1866
S214011F40C2F80C8011220A5000F08CF802460B46AB
S214011F5000F06AF8CDE90A01CDE90089DDE9082338
S214011F60DDE908895046594601F01AF842464B46C3
S214011F70A0FB028900FB039901FB0299DDE9000140
S214011F8010EB080241EB090300F04EF8DDE90A23E5
S214011F908B4204D301D8824201D3012000E0002005
S214011FA09DF830204FF480719140F26A0A40521E2B
S214011FB0924110EAD27F30D00298385C08B1316382
S214011FC02BE09DF8580040B99DF83000FFF708FF58
S214011FD00598F4F736FF002023E03163DFF8480266
S214011FE0049941B1DFF83C120C6040F20111016026
S214011FF0DFF830120C60069941B1DFF828120D6047
S214012000DFF828120160DFF81C020560039840071C
S21401201003D5DFF81C12012008600598F4F711FFBC
S21401202001200DB0BDE8F08F50465946BFE601E0ED
S214012030801A99419942FBD828BF9042F8D270473E
S21401204074490001085800F00100704701F460016E
S214012050704A000141F003011150704775497348F9
S214012060086070472DE9F041F0F7CEFB744F3C68ED
S21401207080467248067800F011F8002508B13C68E1
S214012080761C4046F0F7FDFBB86906F00301401CDC
S214012090E0FB014520462946BDE8F081694802215A
S2140120A00CE6F8B5534C0546206820F4700040F461
S2140120B0A00020601E46300008BF002141EA021041
S2140120C040EA0641069841EA0061079841EA002085
S2140120D0E064E76AB7F5803F8041C00F1821F4F746
S2140120E073FFA76336B1288A00F037F8874238BFF6
S2140120F00020E063F1BD5448016811B9534A10212C
S21401210011605349016341F201414163704780B553
S214012110212000F088FE3D494FF48030086001BD63
S21401212080B5222000F07FFE38494FF480200860F9
S21401213001BDF0B5334EB268A0FB024501FB025566
S214012140F268A0FB026701FB0277B6F1004267F175
S214012150FF330021E0186941F0BD10B529490C682C
S2140121604968A0FB0123B2F1004263F1FF331A462E
S2140121700023E0FB04231046194610BD2DE9F84F55
S2140121800446FFF76FFF804689462046FFF7E5FFC6
S214012190044629480D46416A490800910068C0076F
S2140121A002D41FE0241A8D410027009EBD4203D8A9
S2140121B0B4423CBF26462F46FFF754FF82468B4665
S2140121C052465B4640464946FFF7F1FDB942F3D316
S2140121D001D8B042F0D3A942D046D946E2D301D8BD
S2140121E0A042DFD3BDE8F18F0000000080E200E0EE
S2140121F000040600005008400011010020A107005D
