S02B00006275696C642F7468726561642D746573742D6170702D636F727465786D332D6763632D656672333237
S31500000000382E002081560300990B00009D0B00003E
S31500000010A70B0000000000000000FFFF54000000D6
S3150000002004180F000000000000000000000000009F
S3150000003000000000000000000000000000000000BA
S315000000400000000000000000000000009300000017
S3090000005000000000A6
S31500000054382E002081560300990B00009D0B0000EA
S31500000064A70A02020001000004180FAC0026930040
S315000000740000000000000000000000000000000076
S315000000840000000000000000000000000000000066
S315000000940000000000000000FFFFFFFFFFFFFFFF5E
S315000000A4FFFFFFFFFFFFFFFFFFFFFFFFFFFFFFFF56
S315000000B400E00F000000000000001000FFFFFFFF3B
S315000000C4FFFFFFFF1C00000000000000000000000E
S315000000D41054002010540020105400201054002006
S315000000E4382E0020F4100400B07F0300601F0020A7
S311000000F4401F00200000100010540020E7
S31500000100382E002081560300990B00009D0B00003D
S31500000110A50B0000A10B0000A90B00004C0F00006E
S315000001204C0F00004C0F00004C0F00004C0F00005D
S31500000130AD0B00004C0F00004C0F00008F59030060
S31500000140F54B000039270100971000004C0F000006
S3150000015029220100A5270100452701005D2701008E
S315000001603D270100E9480000B54900007130000054
S31500000170798B00004C0F00004C0F0000710200004C
S315000001804C0F00004C0F0000D94900004C0F000036
S315000001904C0F00004C0F00004C0F00004C0F0000ED
S315000001A04C0F00004C0F00004C0F00004C0F0000DD
S315000001B0A927010041270100652E0000E92701005B
S315000001C04C0F0000751101004C0F00004C0F000091
S315000001D04C0F00004C0F00004C0F00004C0F0000AD
S315000001E04C0F00004C0F00004C0F00004C0F00009D
S315000001F04C0F00004C0F00004C0F00004C0F00008D
S311000002004C0F00004C0F00004C0F0000DB
S3150000020C70B5144C034688002218204492781509C0
S3150000021C062D98BF104E02F00F0294BF755DFF2598
S3150000022C062A1D719ABF0D4DAA5CFF225A71FF3A20
S3150000023C18BF0122C2709A7114F82120084C5A700A
S3150000024C42789A701946204601F0E2F80123A36021
S3150000025C70BD00BFF8330020AF810300A8810300F6
S3150000026C0020004030B585B000210C2201A837F0E3
S3150000027C65FB214A2148FF238DF809300378546C1D
S3150000028C916B2140C907DBB233D5022B31D8916C67
S3150000029C1B4A02EB83028CB2D5781A4A2DB10D0497
S315000002AC03D5002122F8131001E022F81340164959
S315000002BC012202FA03F30A7813430B70134B1A78D4
S315000002CCAAB100221C78114DD440E407D1B20AD54C
S315000002DC01702878012393404340DBB201A82B70B0
S315000002ECFFF78EFF05E00132032AEBD101E0032371
S315000002FC037005B030BD00BF00200040063400205E
S3150000030CF833002008340020053400200434002083
S3150000031C38B505460C4617F0A5FA00F0D9FE01F0E3
S3150000032C5CFD284621461CF0DBFE23462A460120AE
S3150000033C064908F089FE064BC3F89450C3F898405A
S3150000034C40F20170BDE8384035F052BAB681030070
S3150000035C00000020F8B5674B674C5A68A2655A6ACC
S3150000036CE265664AD2F800122166D2F80422626669
S3150000037C9A6AA266DA6AE2661A6B22675A6B626737
S3150000038CDB6BA36704F138022CCA12F0040F08BF0A
S3150000039C1D4635F0B5FA002385426065236520D3EA
S315000003AC574B9D421DD8AB696364EA69A264B4F8E5
S315000003BC5820C2F30802062A17D1524A934214D384
S315000003CC514A934211D21A884DF642639A420CD185
S315000003DC6368C4F89430A368C4F8983040F201728C
S315000003EC05E000236364A36405464FF42062474B83
S315000003FC984238BF1846464B9842014604D250F8EC
S3150000040C046BB6F1CD3FF6D05B1AE364404E002385
S3150000041CE367C4F88030C4F88430C4F88830C4F874
S3150000042C8C30C4F89030AE421BD956F8041D3548B2
S3150000043C8142F8D334488142F5D2C807F3D5354802
S3150000044C00F1180750F804EF8E45ECD0B842F9D1FC
S3150000045C44E051F8046F41F8046CA942F9D1C4F890
S3150000046C9000013BDBB2FF2B04D02B49E06F01F16E
S3150000047C1405EEE7B4F85830C3F30803D91E0F2958
S3150000048C22D8DFE801F02808141721212121211E8A
S3150000049C21212121210B40F6022228E01F4BDB698A
S315000004AC13F0020F40F2025318BF1A461FE040F633
S315000004BC03221CE040F60423B2F5206F08BF1A464F
S315000004CC15E040F6052212E0013B40F60721412BD0
S315000004DC98BF0A460BE040F6012208E02BB1013B1F
S315000004ECDBB204EB8300C1679DE70523F9E71046F1
S315000004FCF8BD00BF00ED00E00000002000E100E0C8
S3150000050C182E00200C020000B07F03009C00002077
S3150000051C382E0020780000207C00002000200540AA
S3150000052C034B1B78034B0020187017F0C5BB00BF9C
S3150000053C1534002017340020184A70B5184C194E83
S3150000054C126825783378D203EDB2DBB21FD443EAB6
S3150000055C0502D0071BD5144A116841B1190706D5F7
S3150000056C136808209847337803F0F70333700F4B62
S3150000057C1A6842B12A0706D51B68082098472378C3
S3150000058C03F0F7032370BDE87040FFF7C9BF084BB3
S3150000059C1A78002AF7D000221A70F4E710340020DB
S315000005AC1634002014340020183400201C3400208B
S315000005BC17340020014B1868704700BF1034002018
S315000005CC2DE9F8430646894601F00FFC114B1B78C2
S315000005DC8046ABB1104B114F1C781D46E4B23EB9A8
S315000005EC34B13B6823B1630602D53B68402098477B
S315000005FCB442C7F8009005D02E70FFF79DFF01E0BE
S3150000060C012400E00024404601F0F5FB2046BDE83D
S3150000061CF88300BF15340020163400201C3400204B
S3150000062C2DE9F8430646894601F0DFFB114B1B7892
S3150000063C8046ABB1104B114F1C781D46E4B23EB947
S3150000064C34B13B6823B1630602D53B68402098471A
S3150000065CB442C7F8009005D02E70FFF76DFF01E08D
S3150000066C012400E00024404601F0C5FB2046BDE80D
S3150000067CF88300BF153400201434002018340020F1
S3150000068CF8B5104E20F0FE6424F440740546376825
S3150000069C0CB10220F8BD20EA0703DB03306007D556
S315000006AC21462046FFF78CFF20462146FFF7B8FF70
S315000006BC3068784010F4804002D015F48040E8D1C0
S315000006CCF8BD00BF10340020084A094B12781B688D
S315000006DC02F0FF0042B15A0305D413F4006F0CBFAD
S315000006EC0120032070470020704700BF15340020FE
S315000006FC10340020064B1A68064B1B7803F0FF00DB
S3150000070C2BB1054B1340002B0CBF01200320704767
S3150000071C10340020153400200008080038B5134B9F
S3150000072C1A78904204461D461ED080B1104801210D
S3150000073C00F044FF122001F061FB10B104F018F92F
S3150000074C0CE00A2001F05AFB0028F7D106E001461E
S3150000075CFFF766FF20462146FFF732FF20462C7036
S3150000076C17F010F9FFF7DCFE002038BD1534002019
S3150000077C00350800014B1878704700BF153400206F
S3150000078C002814BF0220002070477047FFF7C8BE30
S3150000079C2DE9F04F504CA36BE26BE16CD4F850C0D2
S315000007ACD4F840B0054658074FBF4FF000088C46AA
S315000007BCD4F85490DFF8508154BFDFF850A1DFF81D
S315000007CC50A1464954BF9346C14613F0080F444BFB
S315000007DC444A08BF1A46B8EB090787B01EBF642601
S315000007EC06FB0CF606EB57065346CDF80090CDF8F3
S315000007FC0480CDF808B0284616BFB6FBF7F63E4681
S3150000080CB6B2CDF814C008F0C9FDDDF814C0CDF8A9
S3150000081C00A0BBB201931FFA8CF23346284632492C
S3150000082C08F0BCFDA36BDDF814C013F0040F0BD15C
S3150000083C9C3FBC4508D1284B5A6D2C4B9A4203D28F
S3150000084C28462B4908F0AAFDC34501D8CB4504D24E
S3150000085C28462849524608F0A1FD284608F0EEFB2A
S3150000086C236E284613B91C4B5B6E73B3224908F0F2
S3150000087C5BFD00260123226EB340134208D01F4BAA
S3150000088C53F8262013781BB128461D4908F04CFD59
S3150000089C0136202EEED100260123626EB3401342A0
S315000008AC0AD0164B03EB8603D3F8802013781BB1C2
S315000008BC2846134908F038FD0136122EECD128468D
S315000008CC07B0BDE8F04F08F063BD0E4907B0BDE8B0
S315000008DCF04F08F063BD00BF00000020DE8103006E
S315000008ECD68103001C0204000C8203009C0000202D
S315000008FC45820300718203008F820300448C03003F
S3150000090CA0C40300BE820300382E0020D181030050
S3150000091CC981030070B5044600F024FA40F60123A1
S3150000092C98422DD00FD840F2025398421BD040F279
S3150000093C017398421AD040F20153984240F0C88095
S3150000094C2046644938E040F60323984262D036D3F9
S3150000095C40F60423984200F0908040F60523984216
S3150000096C00F0A78070BD20465B49A4E05B4B5C4958
S3150000097CD3F89420D3F89830204608F00FFDA2E067
S3150000098C564D5849204608F009FD95F86C309807E5
S3150000099C03D52046544908F001FD95F86F305906E9
S315000009AC03D52046514908F0F9FC95F86F301A0624
S315000009BC40F189804E49204608F0F0FC83E0474D13
S315000009CC4C49204608F0EAFC95F868309B0704D0A1
S315000009DC204649496A6C08F0E1FC95F868301E0619
S315000009EC05D53E4B45495A6F204608F0D7FC0026E4
S315000009FC0123AA6EB340134208D0414B53F826206C
S31500000A0C13781BB120463F4908F0C8FC0136082E66
S31500000A1CEED158E0314D3C49204608F0BFFC20464B
S31500000A2C35496A6C08F0BAFC95F86930580703D555
S31500000A3C2046364908F0B2FC95F86930190605D5FA
S31500000A4C264B2E495A6F204608F0A8FC0826AB6E9A
S31500000A5CF340DA0708D52A4B53F8262013781BB136
S31500000A6C2046284908F09AFC0136102EEFD195F84D
S31500000A7C683043BB204626499EE7184E254920463A
S31500000A8C08F08CFC20461C49726C08F087FC10257B
S31500000A9CB36EEB40DB0708D5194B53F825201378BA
S31500000AAC1BB12046174908F079FC01351A2DEFD1F8
S31500000ABC09E01949204608F071FC084B0E495A6C9E
S31500000ACC204608F06BFC2046BDE8704008F0B6BA2C
S31500000ADC70BD00BFD382030010830300000000200A
S31500000AEC59830300738303008B830300C5830300C0
S31500000AFCF883030034840300408303005984030005
S31500000B0C108B0300758403007D840300948403001A
S31500000B1CDA8403000A850300238503002DE9F041DE
S31500000B2C154C164F06464FF0000823785FFA88F5E9
S31500000B3C03B33046124957F8043B224608F0F4FB3F
S31500000B4C234601341A78002AFAD15B7843B10D4A50
S31500000B5C0D4B05F00301032914BF1946114600E09D
S31500000B6C0849304608F0E0FB304608F067FA08F111
S31500000B7C0108DAE7BDE8F081788B03000400002059
S31500000B8C4485030059CB03001903040000F00CB88C
S31500000B9C00F00AB800F008B800F006B800F004B887
S31500000BAC00F002B800F000B872B61EF0080F08D0BC
S31500000BBC1EF0040F0BD0DFF848E0AEE8FF1F11481B
S31500000BCC0AE0DFF83CE0AEE8FF1F0F4804E0DFF870
S31500000BDC30E0AEE8FF1F0D486946EFF309828EE858
S31500000BEC070086460A480B4C854501D3A54501D31B
S31500000BFC84F30888FFF7AEFB84F3088834F0F8FD1D
S31500000C0C04000020FDFFFFFFF1FFFFFFF9FFFFFFD0
S31500000C1CA01F0020382E0020054A536A23F4803387
S31500000C2C5362D2F8943023F00103C2F89430704723
S31500000C3C00ED00E038B5044600F1500520461034AE
S31500000C4C01F0A2FDAC42F9D1BDE8384034F068BEE3
S31500000C5C10B501F0CAF80446FFF7DEFF0748FFF7A8
S31500000C6CE9FF074B05225A60064A536A43F4803360
S31500000C7C20465362BDE8104001F0BDB8382E002066
S31500000C8C90ED00E000ED00E008B5FFF7C5FFBDE80C
S31500000C9C084034F045BE000010B5044601F0A5F836
S31500000CAC044B24F01F0400225C601A70BDE810404F
S31500000CBC01F0A1B8382E002010B501F0BDFD044698
S31500000CCC01F0B4FD002201239340234006D01C4BB7
S31500000CDC33F812301B4A062B04D014E00132112AC9
S31500000CECF1D11EE0184B58884FF20F01884203D100
S31500000CFC1988B1F5406F01D34FF4C06111804CF2E5
S31500000D0C3C325A800FE040F207218B4209D10E4942
S31500000D1C0E480C68844204D14CF23C334B800B8851
S31500000D2C00E0084A1380074B1A8840F201739A4276
S31500000D3C01BF074A074B92E8030083E8030010BD86
S31500000D4C86900300283400200000002007020FF0D4
S31500000D5C9400002020340020014B1888000A7047AC
S31500000D6C28340020014B1888704700BF2834002017
S31500000D7C00487047203400201FB5FF210E22044680
S31500000D8C684607F01AFC42221948FF2107F015FCA9
S31500000D9C00230E221749595C01291CBF144820F860
S31500000DAC132003F1010318BF52180E2BF2D14FF486
S31500000DBCE04035F063F818B10F489D21FFF7A8FA0B
S31500000DCC4FF4804035F05AF818B10B489F21FFF7C5
S31500000DDC9FFA4FF4805035F051F818B10648A1210E
S31500000DECFFF796FA2046694635F07CF804B010BD3C
S31500000DFCFC4B0020328E0300C390030070B5484BA9
S31500000E0C94B001AA03F110061546186859681446E1
S31500000E1C03C40833B3422246F7D1284601F0A2FA9E
S31500000E2C404B0AAA03F11005164618685968144671
S31500000E3C03C40833AB422246F7D11B88238005A88E
S31500000E4C014634F0BDFC18B1BDF81430ADF82E30A7
S31500000E5C304600F07DFF01210A46022000F02AFEF2
S31500000E6C3148324D03F002FF01210A46022000F000
S31500000E7C21FE1120042100F09BFE00210A460320CE
S31500000E8C00F018FE2A48032100F092FE294803219F
S31500000E9C00F08EFE2848032100F08AFE0FCD05AC2B
S31500000EAC0FC42B68236005A80CF0BEFA234B0A93DB
S31500000EBC4FF4E1330B9300238DF830308DF831303D
S31500000ECC4FF48052ADF834308DF836308DF837301B
S31500000EDC8DF838308DF839308DF83A308DF83B3046
S31500000EEC8DF83C30109311938DF848308DF84930BD
S31500000EFC202010233146ADF83220ADF84C30ADF839
S31500000F0C4E3007F0C5FF044630B9052104220123F3
S31500000F1C01F0FAFA00F0BCF8204614B070BD00BF20
S31500000F2CD4900300E490030000F04902F89003000B
S31500000F3C02001A0003001C000500200000000140FE
S31500000F4CFFF730BE704700207047002814BF022000
S31500000F5C002070470120704710B5224BDB6C1B0E2E
S31500000F6C86B00AD1204921484AF6E8520A6002683E
S31500000F7C42F0040202600B6001E0012B04D11C4A12
S31500000F8C136843F4005313601A4A136A23F4441388
S31500000F9C43F488131362A2F580420124136843F4C8
S31500000FAC80731360144B1C61FFF728FF01F0D0FE11
S31500000FBC03F086FD002368460093ADF804308DF8E7
S31500000FCC034001F03DF800F049F934F0C5FC0B4B39
S31500000FDC0FCB02AC84E80F0020460CF057FB06B092
S31500000FEC10BD00BFB081E00F90310E4098310E401D
S31500000FFC64310E4000400E4000300E400C91030050
S3150000100C40F2016034F0F4BB08B500200146FFF74E
S3150000101C07FBFFF7BAFB08BD08B5FFF7B7FB08BD22
S3150000102C08B107F029BB07F028BB000008B5FFF78D
S3150000103C93FE034B0B2894BF03EB8000184608BDA8
S3150000104C7A91030010B5FFF787FE0446FFF78AFE78
S3150000105CC0B210B9012C17D111E0072C0FD8DFE85C
S3150000106C04F0120E040606080A0C092010BD022014
S3150000107C10BD032010BD0B2010BD062010BD64F062
S3150000108C7F00C0B210BD002010BDFFF77FBD000071
S3150000109C08B50B48012100F091FA0720042101F054
S315000010ACB5FB084B084A1A60084A04210220C2F80C
S315000010BC8011586211609A6A02439A6208BD00BF99
S315000010CC00250800002005400108030000E100E0AF
S315000010DC014801F06EBD00BF00200540F8B505467D
S315000010EC16461C46002B5AD04BF2346399420FD14C
S315000010FC082C28BF0824A7B229493A4607F0D6F986
S3150000110C284628493A4607F05FFA002842D0F8BD2F
S3150000111C7F2A00D1002641F2F01399421DD1224BB1
S3150000112C1E6C586C2F1D29464A1BD2B244B101F8CD
S3150000113C016B013CB9424FEA1626E4B2F4D1042203
S3150000114C1444E4B2A24207D0A8540132D2B2082AFF
S3150000115C4FEA1020F6D122E0F8BD01F47043B3F546
S3150000116C805F04D1C1F30B0141F07E610AE001F40A
S3150000117C6043B3F5005F12D1C1F30B0141F07E6100
S3150000118C41F48041284604FB06112246BDE8F8408E
S3150000119C07F08CB97F2EC2D141F2F011BAE7F8BD37
S315000011AC0200E00F1A920300B081E00F2DE9F04126
S315000011BC1546C2070446884603D526486521FFF71F
S315000011CCA7F8EB0703D523486621FFF7A1F804F42B
S315000011DC7043B3F5805F0ED1C4F30B0444F07E6408
S315000011EC6B1E1D4A23449342264618D919486B2177
S315000011FCFFF78EF813E004F46043B3F5005F07D1F4
S3150000120CC4F30B0444F07E6444F48044264606E0A2
S3150000121C10487221FFF77CF86FF00F060024374652
S3150000122CBB1BAB4208D217F8013BFF2BF8D0094881
S3150000123C7C21FFF76DF8F3E7204641466A0834F047
S3150000124C64FA28B103488521BDE8F041FFF760B880
S3150000125CBDE8F08104920300FF07E00F044AD2F8C0
S3150000126C1C341B0C1B04C2F82434024A136070474E
S3150000127C00A000402C340020FF2910B50C4607D8DE
S3150000128C0649097841B1E1B2BDE8104035F004B821
S3150000129CBDE81040FFF722BF10BD00BF3034002060
S315000012AC37B5104C012300202370FFF765FD25464A
S315000012BC38B10020FFF760FD18B1002323704920D8
S315000012CC0EE00DF10600022300217F22FFF7D4FF6A
S315000012DCBDF806300020B3F57F7F1CBF28700720B1
S315000012EC03B030BD30340020FF282DE9F04107460D
S315000012FC884616461D4616D80F4B1B78CBB10F4C9D
S3150000130C237823B10E484FF4CE71FFF701F8012371
S3150000131C2370F8B22B463146424634F0FDFF0023CB
S3150000132C2370BDE8F0811146BDE8F0411A46FFF77F
S3150000133C3DBFBDE8F08100BF3034002031340020C1
S3150000134C08920300024B1B780BB135F0CFB87047EF
S3150000135C30340020284B002A70B5284D446B08BF4A
S3150000136C1D46274B14BF10260026984243D102294E
S3150000137C2ED004D859B1012937D1224B13E00629B6
S3150000138C1ED0812924D003292FD11F4B0BE01D48D9
S3150000139C0168026801F4FE4302F00F021A43036867
S315000013AC03F0F0031FE019681A681B68C3F30353B4
S315000013BCC1F306611B0143EA0123C2F3034212E0A7
S315000013CC124B1A681B6802F00F0203F0F0030AE0D6
S315000013DC0D490A680B6803F00F0002F4FE430A6815
S315000013EC034302F0F002134300E00023B3402C4009
S315000013FC034A2343536370BD0080FFFFFFFF008049
S3150000140C002000401082E00F1482E00F1882E00FDB
S3150000141C38B50D4602238360897800220446FFF70F
S3150000142C99FF687829796A79030643EA012343EA26
S3150000143C0243EA7843EAC203EA790AB143F000535D
S3150000144C2A7A0AB143F00403AA790AB143F00203DB
S3150000145C6A7A0AB143F00103F329AA7806D12AB9AC
S3150000146C03289CBF23F0706343F0806350B20028BE
S3150000147CACBF43EA421343F0E003236163690028DF
S3150000148C23F4F21323F00703BCBF22F080021343AC
S3150000149C2A7843EA4243EA7A0AB143F48043636109
S315000014AC6301303403F184436401AA7A9A60F32908
S315000014BC04F184440CBF01230023236438BD0000CF
S315000014CC70B50E4B5B6800230D4C04EBC302CDB21A
S315000014DC1679AE4203D154F83340A0420BD90133EE
S315000014EC052BF1D1032205494B6823F0407343EADF
S315000014FC02634B6070BD5279F5E700BF00000E40E9
S3150000150C3492030038B5074C41F67133256C2364CD
S3150000151C03F06CFB0021FFF7D3FF0DB1002323640E
S3150000152C38BD00BF00000E40044BD3F84421D2074F
S3150000153C03D4D3F840211042FBD1704700400E4033
S3150000154C0C4B984205D90C4B984204D90222012324
S3150000155C03E0002200E00122134608490B6008490B
S3150000156CD1F8003123F0807343EA0263C1F80031ED
S3150000157C704700BF0048E8010090D0034000C84304
S3150000158C00400E40044B1B68002BFBD1034B5868E4
S3150000159CC0F30140704700BFC800C64300300E4080
S315000015AC38B5054C41F67133256C2364FFF788FF7B
S315000015BC0DB10023236438BD00000E40C0F3032296
S315000015CC013A70B503460E46092A26D8DFE802F022
S315000015DC18082525050B0E25111500200F4C11E0BA
S315000015EC00200F4C0EE001200E4C0BE010200E4C90
S315000015FC08E04FF480300D4C04E000200C4C01E068
S3150000160C0C4C0020C3F3043508B1FFF78DFF04F131
S3150000161C047405EBC404A400266070BDB0400E40F3
S3150000162CC0400E40E0400E40E8400E40F0400E40F8
S3150000163C50410E4000400E40C0F30313013B062BF5
S3150000164C48D8DFE803F004080E14181E2E00224BAF
S3150000165CD3F8000102E0204BD3F81401C0F30420A8
S3150000166C70471D4BD3F80001C0F3006070471A4B4E
S3150000167CD3F80C0102E0184BD3F80801C0F308208C
S3150000168C7047164B984206D0154B984222D1124BF6
S3150000169CD3F8203118E0104BD3F8203103F00F03A8
S315000016AC14E0104B98420CD003F5B01303F580539D
S315000016BC98420FD1084BD3F82831C3F301230433D6
S315000016CC04E0054BD3F82831C3F3011301209840ED
S315000016DC013870470020704700400E406006140029
S315000016EC60162A007017160000F00F000138072844
S315000016FC48D8DFE800F0040E1847232D4735244B55
S3150000170CD3F8943003F00703023B022B3CD8214A52
S3150000171C12E01F4BD3F8803003F00703013B032B79
S3150000172C34D81D4A08E01A4BD3F8843003F007036B
S3150000173C013B032B2AD8194AD05C7047144BD3F8BB
S3150000174C883003F00703013B032B1FD8144AF3E739
S3150000175C0F4B1B6F13F0010F14BF092007207047A6
S3150000176C0B4BD3F85C3103F03003202B06D0302B17
S3150000177C06D0102B0CBF07200120704704207047A1
S3150000178C08207047002070470520704701207047DD
S3150000179C00400E402292030025920300299203007A
S315000017AC2D92030010B50446FFF79EFF1B4B9C427F
S315000017BC09D01B4B9C420AD01A4B9C420CD11A4B9B
S315000017CCD3F8800006E0184BD3F8840002E0164BE1
S315000017DCD3F8880000F00700013803281CD8DFE88E
S315000017EC00F002060E0ABDE8104003F059BABDE837
S315000017FC104003F05BBABDE8104003F054BA03F096
S3150000180C1DFA094BD3F80021C2F300620132012301
S3150000181C9340B0FBF3F010BD002010BD03001C007C
S3150000182C0500200002001A0000400E4000F478105B
S3150000183CB0F5901F08B558D021D8B0F5002F00F0A0
S3150000184C838009D8B0F5003F44D0B0F5802F3BD04B
S3150000185C002840F0978077E0B0F5402F6DD0B0F5BA
S3150000186C602F00F08280B0F5202F40F08B8003F0C3
S3150000187CC1F9454BD3F81431C3F3042331E0B0F569
S3150000188CE01F41D011D8B0F5B01F3FD0B0F5D01F36
S3150000189C29D0B0F5A01F75D13C48FFF783FF3A4B12
S315000018ACD3F8202102F00F0242E0B0F5281F21D018
S315000018BC03D8B0F5001F18D064E0B0F5301F2ED059
S315000018CCB0F5381F44D05DE003F094F92E4BD3F8F5
S315000018DC0C3104E003F08EF92B4BD3F80831C3F32B
S315000018EC0823013326E0294800E02948BDE80840D2
S315000018FCFFF758BF2548FFF755FF234BD3F8203188
S3150000190CC3F30113D84008BD2248EFE72148FFF77F
S3150000191C49FF1D4BD3F82821C2F3011208E01D48DC
S3150000192CFFF740FF184BD3F82821C2F301220432EB
S3150000193C01239340B0FBF3F008BD1748FFF7D4FE24
S3150000194C072812D009281DD1BDE8084003F052B96A
S3150000195C1248FFF7C9FE072807D0082808D0042824
S3150000196C10D1BDE8084003F07BB90D4B186808BDD3
S3150000197C03F040F9044BD3F80031C3F3042303FB03
S3150000198C000008BD002008BD00400E4002001A00F1
S3150000199C0500200003001C0006000C0098002E0019
S315000019AC902E00200138032842D8DFE800F0022BE5
S315000019BC111EC1F308011F4B1B68002BFBD11E4ADD
S315000019CC136A23F4FF7323F0010319431162704762
S315000019DC01F07F01194B1B68002BFBD1164A1369CA
S315000019EC23F07F0319431161704701F07F01144BFB
S315000019FC1B68002BFBD1104A936923F07F03194314
S31500001A0C916170470C4AD2F89030536A23F0300338
S31500001A1C43F010035362106B0A4B03400B43C1F3A4
S31500001A2CC31103310F2928BF0F2143EA017111633A
S31500001A3C704700BF6828C84300400E406028C84362
S31500001A4C6428C84300F8FF0F0F4B5A6A12F0300F88
S31500001A5C1A4606D0202907D0302902D009B10B4BE3
S31500001A6C04E04FF4400301E04FF40003D2F8901069
S31500001A7C19409942FAD15B0243BF034BD3F8A0003D
S31500001A8CC0F380200120704700400E40FF33E10771
S31500001A9C02280AD129B1064B4FF48060C3F8A8007E
S31500001AAC596612B10220FFF7CFBF0120704700BF65
S31500001ABC00400E40F8B5042873D8DFE800F00803A0
S31500001ACC0F2B6D00802640240623072526E04FF4B5
S31500001ADC00764FF48074082309251FE0002950D0A6
S31500001AEC30494B6A13F0300F0BD12F4BDB6B4B6A23
S31500001AFCDB070AD54B6A23F0300343F010034B6225
S31500001B0C03E00424022303250AE00424022303250C
S31500001B1C012606E00124022600232546002932D0A0
S31500001B2C002620490C662149194489000B68002BB4
S31500001B3CFCD0002A35D01D4B2B449F003B68002B54
S31500001B4CFCD002282DD166B3164D696A11F001013D
S31500001B5C04D020210122FFF79BFF01E0FFF774FF61
S31500001B6CD5F89C60022000210122FFF7A3FF02207A
S31500001B7CC6F30A01FFF716FF2C663B68002BFCD058
S31500001B8CF8BD08260223074A1666084A1A4492002C
S31500001B9C1368002BFCD1F8BD202610240423052540
S31500001BACBCE7F8BD00400E4000300E408004F21039
S31500001BBC112870B506460C4601D0002511E0042903
S31500001BCC04D103F04DF8054638B9F6E70529F4D1EA
S31500001BDC554B1D68554B9D42EFD92846002100F008
S31500001BEC0FFA06F00F06013E072E00F29C80DFE886
S31500001BFC06F00496409A98679A72023C032C00F2FF
S31500001C0C9280DFE804F01102050B012003240DE09D
S31500001C1C4748FFF795FC0220044607E04448FFF7C7
S31500001C2C8FFC0124032001E00020042401210A4634
S31500001C3CFFF740FFFFF766FC1DB13E4B1B68002B00
S31500001C4CFBD13D4B3D485C67FFF7F0FDFFF778FC99
S31500001C5C02F0F4FF0446FFF795FC01462046FFF719
S31500001C6C9FFC002D5FD128460121BDE8704000F095
S31500001C7CC7B9334D013C092C55D8DFE804F01E07D3
S31500001C8C0E54541554545405042317E00121002016
S31500001C9C0A46FFF70FFF022310E001200146024619
S31500001CACFFF708FF012309E002F0C8FFFFF748FC25
S31500001CBC244B01221A60032300E000232B6070BD25
S31500001CCC072C02D0092C02D070BD002200E00122A4
S31500001CDC194B1A6770BD013C072C24D8DFE804F0B9
S31500001CEC1423230D2323060403220EE001210A46A6
S31500001CFC0420FFF7DFFE012207E001210A4602203D
S31500001D0CFFF7D8FE022200E000220B49D1F85C3125
S31500001D1C23F0300343EA0213C1F85C3170BD0A4D5F
S31500001D2CA8E70A4DA6E770BDB02E0020002D3101A4
S31500001D3C0148E801C800C64300400E4000250800D3
S31500001D4C84400E400816C84380400E4088400E4022
S31500001D5C38B504461120FFF7C7FC022000210122EA
S31500001D6CFFF7A8FE1749227C4B6A23F00103022ACF
S31500001D7C08BF43F001034B62134B22781A60637A57
S31500001D8CA28843EAC223CB620A6BA37A257A02F0B5
S31500001D9C7F621A43E388E81C42EAC3220F2842EA10
S31500001DACC51328BF0F2043EA00730B63A37B627B2A
S31500001DBC1B0143EA0233E27B1343227B43EA0243D1
S31500001DCC4B6338BD00400E40A004C843EFF31080AF
S31500001DDC72B6704700B962B67047602383F31188F8
S31500001DEC7047002383F311887047EFF3118060234B
S31500001DFC83F31188704780F3118870474109054AAF
S31500001E0C00F01F0352F82100D84000F0010080F0CA
S31500001E1C0100704700E100E010B50446EFF31083B3
S31500001E2CDB0732D4FFF7EAFF00282FD1002CADBF19
S31500001E3C04F1604404F00F04154B04F56144B4BF7F
S31500001E4C1A5D94F800235209EFF3118313B1B2EB28
S31500001E5C531F1AD20F4B5B68C3F30803B3B1103B85
S31500001E6CDBB259B20029ADBF01F1604303F00F0399
S31500001E7C074903F56143B4BFC85C93F800034009F6
S31500001E8C824234BF0020012010BD012010BD00BFCE
S31500001E9C14ED00E000ED00E042EA032340F20112EB
S31500001EAC934227D0B3F5817F09D2012B1ED029D3BB
S31500001EBCB3F5807F34D11D4BD3F86C312CE040F256
S31500001ECC012293421AD006D8B3F5007F28D1174BBE
S31500001EDCD3F8703119E0B3F5407F1AD040F20132D5
S31500001EEC93421DD1114BD3F8783115E00F4BD3F833
S31500001EFC74310AE00D4BD3F874310DE00B4BD3F86B
S31500001F0C783102E0094BD3F86C31C3F30722DBB20C
S31500001F1C08E0064BD3F870311A0EC3F3074301E001
S31500001F2C0022134603600A60704700BFB081E00FC1
S31500001F3C174BD3F88031032828D8DFE800F00204C9
S31500001F4C070ADBB206E0C3F3072303E0C3F3074338
S31500001F5C00E01B0E59B91B0313F4702F16D10D4953
S31500001F6CCA6E22F470421343CB66012070470129D6
S31500001F7CFBD11B0313F4702F08D10648D0F8EC20C4
S31500001F8C22F470421343C0F8EC30EEE700207047A1
S31500001F9CB081E00F00300E40024B1B68002BFBD1CA
S31500001FAC704700BFC800C643F8B5134B0446D3F8B8
S31500001FBC00310F4602F01EFE0646FFF7EDFF0F4BF3
S31500001FCC5A68C2F30142A2421D4614D0022C03D118
S31500001FDC30462146FFF7E4FAC4F10202102393407F
S31500001FEC2B611CB930462146FFF7DAFA1FB1BDE862
S31500001FFCF840FFF7D1BFF8BD00400E4000300E4050
S3150000200C38B50C4B0D46D3F8004128B902F0F2FD59
S3150000201CC4F3042404FB0000074B1B7823B1074BC5
S3150000202C984201D8022000E000202946BDE838403D
S3150000203CFFF7BABF00400E4036340020FF2C3101AA
S3150000204C03781449002B43788A6970B514BF0426AB
S3150000205C0026002B837814BF02250025002B03795C
S3150000206C22F03F0242EA0302C37814BF082400247C
S3150000207C012B14BF134642F0010333432B43234376
S3150000208C8B610B68427923F4403343EA02430B60BD
S3150000209C70BD00BF00300E401C4B9A6FD207FBD4AC
S315000020AC1B6C13F003031EBF194A012111608342F6
S315000020BC01D148BB26E0032B00D0A3B9431E012B4C
S315000020CC11D8124B4FF40022DA62996F0F4AC907E6
S315000020DCFBD4136C23F0030343F0010313640B4B83
S315000020EC5B6A1B03FBD5094B9A6FD107FBD41A6CA1
S315000020FC22F0030202431A649A6FD207FCD4003012
S3150000210C18BF0120024B1860704700BF00300E400C
S3150000211CB40AC6432DE9F04F89B0044601919246A4
S3150000212C00210C2202A835F009FC05A800210C227E
S3150000213C35F004FCA4F5E163B3F5966F01D90020E4
S3150000214C8EE0B4F5E16F94BF00250125464B002DBA
S3150000215C7AD1D3F86831C3F30722DBB20792049322
S3150000216C4FF416764FF49669DFF800B1DBF84C3075
S3150000217CC3F3017802A805A92A464346FFF78CFE4D
S3150000218CDBF8EC70C7F3012703A806A92A463B46E1
S3150000219CFFF782FEC9EB0400DDF81C90049CDDF809
S315000021AC14E0029ADDF818C00399C4EB0903434303
S315000021BCB3FBF6F323444B45C1D8A342BFD3C1EBC3
S315000021CC0C044443B4FBF6F40C446445B7D88C4277
S315000021DCB5D3C2EB0E014843B0FBF6F61644764572
S315000021ECADD89642ABD3BAF1000F0BD0DBF85C201E
S315000021FC22F4FE4222F0020242EA032343EA45039A
S3150000220CCBF85C30019BEBB140460021FFF790FE0A
S3150000221C002894D038460121FFF78AFE00288ED07C
S3150000222C124A536EA64238BF264623F4FF73E72E96
S3150000223C23F0010345EA030528BFE72645EA4606CF
S3150000224C56660DE001200BE0D3F868311A0EC3F385
S3150000225C0743079204934FF496664FF4E16983E7BC
S3150000226C09B0BDE8F08F00BFB081E00F00300E4022
S3150000227C304B1A6FD96CC90702F0070206D5012A32
S3150000228C04D9132818D91438132811E0DB6CD90794
S3150000229C06D4012A04D809280ED90A38092807E0D9
S315000022AC244BDB6C13F0010309D0012A06D827282E
S315000022BC8CBF1023082302E0042300E000231D49F1
S315000022CC013BCA6C180340EA032322F47F421343F2
S315000022DCCB64194BCA6C1B88C2F303222833013218
S315000022EC02EB820003EB5303B3FBF0F3C86C013B28
S315000022FC072B20F0EE6028BF072340F4801040EA3D
S3150000230C0363CB640D4BB3F90030002B10DB283381
S3150000231C500000EB520203EB5303B3FBF2F30A6DCE
S3150000232C072B28BF072322F0700242EA03130B6522
S3150000233C704700BF00300E40383400203434002083
S3150000234C054A064B1B68136F23F007031843044B0F
S3150000235C10671888FFF78CBF00300E408009C64303
S3150000236C3234002038B5344B02229A639B6B03F04F
S3150000237C0F039342044601D000255BE0C3884A2B29
S3150000238C0BD9B3F5FA7F0AD340F6C312934294BF26
S3150000239C4FF000534FF0405303E0002301E04FF0A1
S315000023AC80532548B4F90C50C16C21F0405222F0F0
S315000023BC0102002DA8BF42F001021343C364D0F8FA
S315000023CCEC3043F44073C0F8EC30C36E43F08073CA
S315000023DCC3661A4B186800B10420FFF7B1FF184BFF
S315000023EC21891980174BA2891A80174BA08818804F
S315000023FCFFF73EFFA37B1BB1012B04D1134A00E070
S3150000240C134A0D4B9A65012160880A46FFF782FE36
S3150000241C05460028B0D0084A6078D36B43F4806335
S3150000242CD363FFF739FEA37AA3F12002534253413B
S3150000243C084A1360284638BD00300E408009C64352
S3150000244C383400203434002032340020372110B7C1
S3150000245C774020579407C643044AD2F8443423F0F5
S3150000246C03031843C2F84404704700BF00A00040A1
S3150000247C072A70B501F003014FF00F050DD8940033
S3150000248C174EA5403560174DA04028600320A0408C
S3150000249CA140154C206015480EE0A2F10804A400DA
S315000024AC134EA5403560134DA04028600320A04074
S315000024BCA140114C2060114801601149114489005A
S315000024CC0B609DF81030C1F88030012393400D4A03
S315000024DCC2F824349DF81430C1F8003370BD00BF27
S315000024EC00A4004400A4004608A4004408A4004626
S315000024FC04A4004404A400460CA400440CA4004606
S3150000250C8020851000A00040F0B542B10124302592
S3150000251C8C4045430BB1184E00E0184E74513024D4
S3150000252C444304F18044072904F520440CD8676819
S3150000253C4FEA810E0F2505FA0EF527EA050602FA73
S3150000254C0EF5354365600CE001F18045083DA76842
S3150000255CAD000F26AE4027EA060602FA05F535430E
S3150000256CA56042B9012230248A4044430BB1024B88
S3150000257C00E0024B1A51F0BD0CA000460CA0004422
S3150000258C054B06484FF40072C3F88020044B00211B
S3150000259CD9661962FFF712B800E100E00055080091
S315000025AC00200E40034B03449B0081F0010119608F
S315000025BC704700BFA001F11010B504460121114867
S315000025CCFEF7FCFF637822781B0243EA0263A278CB
S315000025DC1A430D4B1A6000221A62DA625A634FF0E4
S315000025EC0042DA664FF0FF329A66084A4FF40071E1
S315000025FCC2F88011E3785B01DBB282F80933116013
S3150000260C10BD00BF0055080000200E4000E100E0A0
S3150000261CF8B5C3B201269E403023584300F18040E2
S3150000262C00F562200C460968C0F88010637BC0F880
S3150000263C8830A37AE17A1D4D1B0443EA0153217BB2
S3150000264C22F0030243EA4153C0F88430C0F89820C4
S3150000265CAE66FFF7CAFBEB6E227A3343EB662B466C
S3150000266C12B16A6B32436A63627A12B1DA6A324326
S3150000267CDA6222791B6822B1D243120262F47F42DB
S3150000268C134062790AB143EA0223A2790AB123EA1A
S3150000269C0203E27902B11343044A1360044B1E6031
S315000026ACD663BDE8F840FFF7A6BB00BF00200E407E
S315000026BC28200E4410B5C0B201248440FFF795FBC8
S315000026CC054AD36E23EA0403D366044B1C60BDE8AB
S315000026DC1040FFF790BB00BF00200E4020200E4498
S315000026ECF8B5C3B2012504469D40FFF77EFB0A4BA5
S315000026FC1E6E9F6A302303FB04F2084B9C58FFF7AF
S3150000270C7AFB3D4206D1C4F30A1008B9354202D110
S3150000271C0130F8BD0020F8BD00200E408C200E4084
S3150000272C036CDB0702D4436C1942FCD1704738B5F5
S3150000273CCC43054604F0050441EA44040221FFF7A4
S3150000274CEFFF6C6038BD436C002BFCD10122026498
S3150000275CEA22426040F2F9720360C360036143618E
S3150000276C83634263C363436583650364704738B50B
S3150000277C04460D46A368DB06FCD520464021FFF730
S3150000278CCFFFA56238BD0000124A136843789360E8
S3150000279C0378DBB14368D360437A817A1B0643EA3C
S315000027AC0173C17B43F0010343EAC143C17A43EA97
S315000027BC8143017B43EA4143417B43EA0143817BED
S315000027CC43EA0123017A43EA410300E0D360136133
S315000027DC704700BF90ED00E0054B5A685B68054BEF
S315000027EC41F671321A649A6822F001029A607047B7
S315000027FC00300E4000000E40034B9A6822F0010296
S3150000280C9A6000221A64704700000E4010B590FAC8
S3150000281CA0F2B2FA82F2044C2368914023EA00003B
S3150000282C0143216010BD00BF00500E40014B012238
S3150000283C9A60704700500E40124B30B55D6800230D
S3150000284C1846114CE2185168104A126852070FD4F8
S3150000285CE258B2F5806F09D002D8B2F5007F04E0D9
S3150000286CB2F5006F02D0B2F5803F01D141F4807110
S3150000287CE2582A4202D0294208BF10430833482B9B
S3150000288CDFD130BD00500E405C920300E841E00FF2
S3150000289C8B784A789B0143EA82030A781343CA78F9
S315000028AC43EA02130A7943EAC2234A7943EA02331A
S315000028BC8A79043043EA42430001014A13507047B7
S315000028CC00200440437842790178002B837870B558
S315000028DC14BF04260026002BC37814BF1025002530
S315000028EC002B03794FEA023242EA0322837914BFA2
S315000028FC20240024002BC37942EA010242EA034356
S3150000290C43EA0603027A43EA050314BF4FF4004177
S3150000291C00212343002A14BF4FF4003200220B433C
S3150000292C1343014A136070BD002004400B4A5369DF
S3150000293C03F00F011369C3F3811343EA8103837018
S3150000294C136903F03F034370936903F0F001D369F5
S3150000295CC3F303130B430370704700BFD0FF0FE0A4
S3150000296C30B50C780CB90223436000234362CB7854
S3150000297C8A781B0443EA02630A7A13438A7943EA88
S3150000298C8223CA7943EA02234A78002A14BF4022DA
S3150000299C002213434A7A002A14BF802200221343D2
S315000029AC8A7A002A14BF202200221343CA7A002AEC
S315000029BC14BF1022002213430A79002A4A7914BF45
S315000029CC4FF400550025002A43EA050314BF4FF0C7
S315000029DC805200221A430B7B002B14BF08230023C2
S315000029EC134303600CB10123436030BD537810B51B
S315000029FC14781B0643EA846394792343947843EA58
S31500002A0C0443D47843EA0433147943EA842354798F
S31500002A1C43EA0423D479002C14BF4FF080440024DD
S31500002A2C2343147A002C14BF4FF000540024234384
S31500002A3C547A927A002C14BF102400240631002AF2
S31500002A4C43EA040314BF0422002209011343435032
S31500002A5C10BD000070B5044616461D4619B914483B
S31500002A6CFEF7E4FE0146202D07D001D85DB170BDFE
S31500002A7C402D04D0602D04D070BD082204E006223F
S31500002A8C02E0042200E01022236823F06003236096
S31500002A9C72434901236801EB5201B1FBF2F205497D
S31500002AAC203AD20011401D432560616170BD00BF04
S31500002ABC40410500F8FF7F00CB4303F005035B00A4
S31500002ACCC360C1607047000040F6AA63C36041F260
S31500002ADC0502002303604260104A83604361C364AD
S31500002AEC826443678367C3670D4B0E4A984209D0CD
S31500002AFC904207D003F50063984203D003F5806338
S31500002B0C984201D10023036500239042836502D0CD
S31500002B1C054A904200D1C365704700BFF9FF01001A
S31500002B2C0000014000040140000C014038B50C4681
S31500002B3C0546FFF7C9FFA37C1BB12B6843F0804306
S31500002B4C2B60E37C1BB1237D43F08003AB65637B79
S31500002B5C228A61681A43E38913436B60A268237B5C
S31500002B6C2846FFF777FFE37D1B0503F4E002A37D00
S31500002B7C1B0703F0E04313432B66637D1BB12B68E5
S31500002B8C43F480332B606B6F227E23F030036B672C
S31500002B9C6B6F13436B672378EB6038BD03691B06B9
S31500002BACFCD5C069C0B2704703695B06FCD54163AE
S31500002BBC70470368D90707D583689A0704D48368D6
S31500002BCCDB07FCD401234360704700002DE9F84372
S31500002BDC274C064604F1A005002363712379002BCC
S31500002BEC40D054E906230021994208BF964205D2EB
S31500002BFC901B63EB010144E9060133E0E7790FB959
S31500002C0C27712BE054E90489B01A61EB03014246A3
S31500002C1C4B4634F0AFFAB8EB020054F8082C69EBCB
S31500002C2C0301002A44E9060154F8043C08DD134468
S31500002C3CF32B44F8043C11D9013041F1000108E0B2
S31500002C4C9B1AF32B44F8043C08D910F1FF3041F1E0
S31500002C5CFF3144E90601F43B44F8043C23680BB10C
S31500002C6C012363712834AC42B6D1BDE8F88300BFAA
S31500002C7C6034002038B5074C0025637F1BB1A3696F
S31500002C8C216A284698470135042D04F12804F4D10D
S31500002C9C38BD00BF48340020F0B500214FF0FF329C
S31500002CAC4FF0FF33164C0C44257F3DB1D4E900455B
S31500002CBC9D4208BF94423CBF22462B462831A02990
S31500002CCCF0D1104900240C705C1C08BFB2F1FF3F18
S31500002CDC0C4614D000279F420B496FF0640608BFC0
S31500002CEC9642086038BF32460849042502440D62F4
S31500002CFC01234A6523704B6A43F004034B62F0BD13
S31500002D0C483400203A340020EC34002000200440E3
S31500002D1C38B50546FFF769F800230A49282202FB55
S31500002D2C0312947F24B10133042BF6D1064C05E033
S31500002D3C1DB1012191772B6000E0044CFFF75BF885
S31500002D4C204638BD48340020011000F0041000F075
S31500002D5C204B70B51C78002C3AD101251E481D70ED
S31500002D6C2946FEF72BFC1D4E1D480321FEF720FFBE
S31500002D7C032329461B483371FEF720FC3046FFF728
S31500002D8CA1FD28461849FFF783FD184B18485A6AC7
S31500002D9C22F4FF6222F007025A6240F2FF721A62B4
S31500002DAC144A9C604FF08041C2F8801111605A6A37
S31500002DBC2A435A622146A02234F0C0FD0E4B1C70E9
S31500002DCC0E4B1C700E4B1C600E4B1C600E4B1C608D
S31500002DDC002070BD3B34002000250800942E0020F6
S31500002DEC05002000800912009D2E002000200440C2
S31500002DFC4834002000E100E0403400203A34002042
S31500002E0CE8340020443400203C34002070B5084BD4
S31500002E1C08491A688E681C6800250023AB4208BF57
S31500002E2CA242F4D10020801942F1000170BD00BF0E
S31500002E3C443400200020044010B54FF4FA54A0FB93
S31500002E4C042312F5804204FB013343F10003D00B3B
S31500002E5C40EA434010BD00002DE9F843FEF7C5FFDC
S31500002E6C1E4B5A6A9C69144024F005021A626207CA
S31500002E7C064624D51A4AD3F80890012111709046BB
S31500002E8C164D184F6B6A23F004036B623868C0EB5F
S31500002E9C0900FFF79BFEFFF7EDFE4846FFF7FCFE29
S31500002EAC3A68D5F808906B6DC2EB09019B1A0E4A6D
S31500002EBC12780AB19942E3D8002388F80030E30768
S31500002ECC06D5064B01221A62084A136801331360B1
S31500002EDC3046BDE8F843FEF78EBF00BF0020044025
S31500002EEC40340020EC3400203A34002044340020D6
S31500002EFC10B588B000210D2204A834F01FFD012462
S31500002F0C0B22002101A88DF8104034F017FD022386
S31500002F1C23488DF80A302146FEF750FB21484FF620
S31500002F2CFF73C361002101AAFFF760FD00238DF832
S31500002F3C12301C4804A9FFF713FD1B48FEF776FC5C
S31500002F4C9DF81230194AD8400133DBB20A2B1060B7
S31500002F5C8DF81230144602D8154B9842E9D815480C
S31500002F6CFEF764FC2268144BB3FBF0F31348002104
S31500002F7CE2FB0301124A002334F0FCF8114B094A18
S31500002F8C1860114B00201870936923F0100393619D
S31500002F9C0E4B4FF40062C3F880211A6008B010BDC6
S31500002FAC000204000080014040410500F43400207A
S31500002FBC80841E005000020000B0710B20A1070097
S31500002FCC40420F00F0340020F834002000E100E00D
S31500002FDC1F4B204A13B519680023E1FB002310464A
S31500002FEC19461D4A002334F0C5F800234FF6E85263
S31500002FFC8B4208BF824215D2184B5A6A92B2174BB3
S3150000300C5B6A9BB2ADF80430BDF804309B1A9BB2D8
S3150000301C4FF6E754A342F2D9114A4FF0FF3380180A
S3150000302C5941E2E750EA01030ED00C4B5A6A92B2B0
S3150000303C0A4B5B6A9BB2ADF80630BDF806309B1A9C
S3150000304C9BB284B2A342F3D3002002B010BD00BFE2
S3150000305CF434002020A1070040420F0000800140FC
S3150000306C1802FFFF054BDA68D20641BF10225A61DF
S3150000307C034B012248BF1A70704700BF0080014005
S3150000308CF83400200C490D4B0A782AB91A605A609C
S3150000309C9A60DA6001220A70002253F8221019B9DC
S315000030AC43F82200002070478142F9D00132042AED
S315000030BCF3D10348704700BFF9340020FC340020DC
S315000030CC027000F038B504460D46FEF78EFEA28857
S315000030DC92B222B92A60FEF78EFE064838BD628887
S315000030EC142392B203FB024308332B60FEF783FED4
S315000030FC002038BD0B7000F038B504460D46FEF7BF
S3150000310C74FEA3889BB223B92B60FEF774FE0D48A0
S3150000311C38BD6388E18814229BB202FB0343083353
S3150000312C2B6063889BB2013393FBF1F201FB1233E4
S3150000313C9BB26380A388013B9BB2A380FEF75BFE28
S3150000314C002038BD0B7000F010B5012380F82C3030
S3150000315C90F8323086B002460C460BB1012B10D1DA
S3150000316C01211368009161680191002102910749C0
S3150000317C049203911169906822681C3301F0E7FAF6
S3150000318C02E0002380F82C3006B010BDD1420000BE
S3150000319C10B5012280F82D2090F8322086B0034617
S315000031AC0C4612B90268343208E0012A02D10268D0
S315000031BC283203E0002280F82D200DE00121009139
S315000031CC61680191002102910449049303915868A6
S315000031DCD968236801F0A0FA06B010BDED310000E5
S315000031ECF7B5906A01A91446FFF76CFF144B984289
S315000031FC22D0019B00251D619D60FEF7F6FD019B0B
S3150000320CDE6807461EB1204629460CCBB047A06A9D
S3150000321C01A9FFF771FFA06A83889BB23BB101A994
S3150000322CFFF750FF20460199FFF7B2FF01E084F843
S3150000323C2D303846FEF7DFFD012003B0F0BD00BF90
S3150000324C0B7000F090F83130022B01BF427E302318
S3150000325C5343064A01BFD218437F03EBC2039B00BC
S3150000326C06BF1868C0B20020704700BF1CA01042F1
S3150000327C13B500231A4A52F82340627F824204D1C6
S3150000328C94F83130022B29D103E00133042BF1D110
S3150000329C24E02046FFF7D6FF637D2075022B1DD157
S315000032AC94F82E3003F0FF02C3B902A9606801F846
S315000032BC012D01F0C7FA237D13B194F82F3033B1E9
S315000032CC002384F82F30606801F07CFA06E028B9F8
S315000032DC9DF8073013B1606801F054FA02B010BDC6
S315000032ECFC34002090F832305BB903680122DA60B6
S315000032FC03681A69D007FCD55A6F42F001025A6767
S3150000330C7047012B0DD103685A6C9107FCD401222E
S3150000331C5A6003689A68D207FCD55A6D42F00102CE
S3150000332C5A65704790F8323043B90268536F23F0F0
S3150000333C0103536703680222DA607047012B0AD136
S3150000334C03685A6C9207FCD45A6D22F001025A6536
S3150000335C036802225A60704738B141B1013AB2F59E
S3150000336C006F044838BF0020704703487047014877
S3150000337C704700BF037000F0027000F010B50446F1
S3150000338C01F09CF90021201D01F024F9014608B139
S3150000339C044810BD04F1080001F01CF90028F7D10F
S315000033AC10BD00BF0E7000F02DE9F0410446164624
S315000033BC8846FEF71AFDA388E2889BB29A42054618
S315000033CC06D800233360FEF716FD1348BDE8F081DE
S315000033DC2088142780B207FB004041463A46083045
S315000033EC34F012FA22882388E18892B207FB024253
S315000033FC9BB208320133326093FBF1F201FB1233BC
S3150000340C9BB22380A38801339BB22846A380FEF788
S3150000341CF2FC0020BDE8F0810A7000F037B50446D6
S3150000342C0D46C07DE17E65B304220123FFF76CF8DF
S3150000343C0123207E217F0222FFF766F894F83130B3
S3150000344C022B11D1607E617F01220023FFF75CF80D
S3150000345CA07EA17F00230422FFF756F80123617F8B
S3150000346C607E009301932BE0032B3BD1607E617F42
S3150000347C01220023FFF748F8A07EA17F0422002337
S3150000348C2EE02A462B46FFF73FF82B46207E217F5F
S3150000349C2A46FFF739F894F83130022B14D1607EA6
S315000034AC617F2A462B46FFF72FF8A07EA17F2B467D
S315000034BC2A46FFF729F801238DE82800617F607EF4
S315000034CC0A46FEF7D5FF0DE0032B0BD1607E617F1C
S315000034DC2A462B46FFF718F8A07EA17F2A462B46D4
S315000034ECFFF712F8002003B030BD90F8323013B954
S315000034FC036818697047012B1CD103689B6803F09D
S3150000350C0200DA0748BF40F00100590748BF40F0F7
S3150000351C08001A0748BF40F02000D90648BF40F003
S3150000352C40009A0648BF40F080005B0603D540F485
S3150000353C0050704700207047F7B50D46044600282A
S3150000354C7ED0FEF752FC012D064601D1A36A10E08F
S3150000355C022D07D1636A9B889BB26BB1023D012D8C
S3150000356C69D839E0032DF9D1A36A9B889BB23BB984
S3150000357C636A9B889BB21BB9FEF73DFC324860E040
S3150000358C606801F03FF90023A06A84F82D30838827
S3150000359C9BB2DBB101A9FFF795FD01996068083173
S315000035AC01F07AF9019B294A1A61A06A83889BB2B9
S315000035BC63B101A9FFF7A0FD019BDF68002FF4D0D2
S315000035CC9B68224920460022B847EEE72046FFF7C3
S315000035DC8CFF8304FAD5C1E7A06801F013F9002328
S315000035EC606A84F82C3083889BB23BB994F83130EE
S315000035FC032B20D02046FFF795FE1CE06946FFF70B
S3150000360C61FD0099A068083101F046F9009B0F4A4C
S3150000361C1A61606A83889BB2002BE7D06946FFF774
S3150000362C6BFD009BDD68002DF3D09B680749204697
S3150000363C0022A847EDE73046FEF7DDFB002000E050
S3150000364C034803B0F0BD00BF087000F0097000F02D
S3150000365C027000F0436A9888C0B270472DE9F341B6
S3150000366C0546406A84889846A4B200230E4617463F
S3150000367C009301933CB16946FFF724FD01A904466A
S3150000368CA86801F009F9009949B144B94868019B49
S3150000369CC01A3860C8F800300B68336004E00021AB
S315000036ACC8F80010396031602846FFF71EFF02B0DB
S315000036BCBDE8F081836A9888C0B270472DE9F34162
S315000036CC0546806A84889846A4B200230E4617469F
S315000036DC009301933CB16946FFF7F4FC01A904463B
S315000036EC686801F0D9F8009949B144B94868019B5A
S315000036FCC01A3860C8F800300B68336004E000214B
S3150000370CC8F80010396031602846FFF7EEFE02B0AB
S3150000371CBDE8F081007D7047F8B505460E461746A4
S3150000372CFFF71AFE00287AD10920FEF775FB04462E
S3150000373CAA6A93889BB23BB195F82E3023B9002C1C
S3150000374CF7D001F0CBF8F3E795F8323043B92A6895
S3150000375C146914F0020422D10421D1602A6807E00E
S3150000376C012B1BD12A68946814F0020417D107E0C8
S3150000377C11698807FCD5516F41F0020151670EE0C3
S3150000378C516C8907FCD4042151602A68916888071A
S3150000379CFCD5516D41F00201516500E00024012277
S315000037AC85F830207BB93744BE4205D0286816F818
S315000037BC011BFFF7F9F9F7E72A6813699906FCD597
S315000037CC8CB10020F8BD012BFAD13744BE4205D08E
S315000037DC286816F8011BFEF7CAFFF7E72A689368F4
S315000037EC1B07FCD5ECE795F8323043B92A68536FC2
S315000037FC23F0020353672B680822DA600EE0012BD4
S3150000380C0CD12B685C6C14F00200FBD15A6D22F0C3
S3150000381C02025A652B6808225A60F8BD2046F8BD8C
S3150000382C10B5044680B190F82E302BB9FFF70AFD7F
S3150000383C10B9606800F0A6FF94F82E300133DBB2A5
S3150000384C84F82E30002010BD004810BD027000F028
S3150000385C10B50446A0B190F82E309BB190F82E30DE
S3150000386C012B05D1FFF7EEFC10B9606800F0AAFF3A
S3150000387C94F82E30013BDBB284F82E30002010BDBC
S3150000388C014810BD014810BD027000F0057000F033
S3150000389C37B590F83150022D04461CD1437D817FFB
S315000038AC827E3BB9012303FA01F130235A43154BAF
S315000038BC995024E0012B03D18B4030214A4308E078
S315000038CC0123007D8B4030214A4310B90D498B50A2
S315000038DC15E00D49FBE7012D11D1037D0BB9112321
S315000038EC00E013238DF80730FFF79AFF20460DF101
S315000038FC07012A46FFF710FF2046FFF7A9FF002015
S3150000390C03B030BD0CA000440CA000462DE9F041DC
S3150000391CA54F04460D460FCF88B001AE0FC697E8EB
S3150000392C070086E80700002C00F03F8415B99F4875
S3150000393C00F03CBC20460021342233F0FFFF204629
S3150000394CFFF7A0FB002840F031842B7C84F8313043
S3150000395C2B6823602B68964A84F83200934206D172
S3150000396C944B2362944BE3604FF440231CE0934A40
S3150000397C934206D1924B2362924BE3604FF4502351
S3150000398C12E0914A934206D1904B2362904BE3602E
S3150000399C4FF4602308E08F4A9342C8D18E4B2362C2
S315000039AC8E4BE3604FF47023AA692361EB69626264
S315000039BC002616805680968084F82C60A3621E80A2
S315000039CC5E809E806B6803936B89ADF81430AB896F
S315000039DCADF81230AB7B8DF810308148EB7B84F858
S315000039EC2D60012184F82F6005278DF816308DF88F
S315000039FC1170FDF7E3FD7B480121FDF7DFFD206A21
S31500003A0C0121FDF7DBFD28688DF8046001A9FFF79D
S31500003A1C8DF82B6803205867996F95F809E021F407
S31500003A2CF85222F01F02297A4EEA020242EA0122D9
S31500003A3C9A6723685E4A934212D12A7ABA4228D9E7
S31500003A4C931F042B27D9A2F10B03BB4225D9A2F154
S31500003A5C1103062B23D9183A072A98BF3B4615E0C3
S31500003A6C564A934240F025812A7A052A11D9931F8A
S31500003A7C042B10D9A2F10B03052B0ED9A2F11103BD
S31500003A8C062B0CD9183A072A98BF052388BFFF23A3
S31500003A9C06E0334604E0012302E0022300E003467D
S31500003AACE3756B7A042B13D95A1F042A12D9A3F186
S31500003ABC0A02052A10D9A3F11002062A0ED9A3F17F
S31500003ACC1702072A0CD91F2B14BFFF23002308E06B
S31500003ADC002306E0012304E0022302E0032300E0B6
S31500003AEC052323762B7A002B7FD0012B7DD0022B3E
S31500003AFC7BD0032B79D0042B77D0052B75D0062BD6
S31500003B0C3CD0072B3CD0082B3CD0092B3CD00A2BA5
S31500003B1C3CD00B2B68D00C2B28D00D2B28D00E2B81
S31500003B2C28D00F2B28D0102B28D0112B22D0122BBB
S31500003B3C22D0132B22D0142B22D0152B22D0162BAD
S31500003B4C22D0172B22D0182B22D0192B22D01A2B8D
S31500003B5C22D01B2B22D01C2B22D01D2B22D01E2B6D
S31500003B6C42D01F2B0CBF0723FF233EE007233CE06C
S31500003B7C08233AE0092338E00A2336E00B2334E025
S31500003B8C0C2332E00D2330E00E232EE00F232CE025
S31500003B9C00232AE0012328E0022326E0032324E065
S31500003BAC042322E0052320E0A4920300037000F016
S31500003BBC000001400042040001000C00000401401A
S31500003BCC0052040001000D000008014000620400D0
S31500003BDC01000E00000C01400072040001000F00F1
S31500003BEC40410500003508000623E3766B7A002B6E
S31500003BFC00F08982012B00F08882022B00F0718282
S31500003C0C032B00F07082042B00F06F82052B00F062
S31500003C1C6E82062B00F06D82072B00F06C82082B4F
S31500003C2C00F06B82092B00F06A820A2B00F04F829F
S31500003C3C0B2B00F04E820C2B00F04D820D2B00F05E
S31500003C4C4C820E2B00F04B820F2B00F05082102B67
S31500003C5C00F04382112B00F04282122B00F04782B7
S31500003C6C132B00F04682142B00F04582152B00F026
S31500003C7C4482162B00F04382172B00F04282182B3D
S31500003C8C00F04182192B00F040821A2B00F0298299
S31500003C9C1B2B00F028821C2B00F027821D2B00F01A
S31500003CAC16821E2B00F015821F2B14BFFF23002338
S31500003CBC2CE2AF4A934240F003812A7A042A10D9A7
S31500003CCC531F032B0FD9A2F10903042B0DD9A2F113
S31500003CDC0E030E2B0BD91D3A022A94BF0A23FF237F
S31500003CEC06E0334604E0082302E0012300E03B46ED
S31500003CFCE3756B7A032B13D91A1F032A12D9A3F176
S31500003D0C0802042A10D9A3F10D020E2A0ED9A3F12A
S31500003D1C1C02022A0CD91F2B14BFFF23002308E018
S31500003D2C002306E0082304E0012302E0052300E05B
S31500003D3C0A2323762B7A002B46D0012B46D0022B56
S31500003D4C46D0032B46D0042B46D0052B52D0062B3F
S31500003D5C52D0072B32D0082B32D0092B36D00A2B57
S31500003D6C36D00B2B36D00C2B36D00D2B36D00E2B4B
S31500003D7C40D00F2B40D0102B22D0112B22D0122B3F
S31500003D8C22D0132B22D0142B22D0152B22D0162B5B
S31500003D9C22D0172B22D0182B22D0192B22D01A2B3B
S31500003DAC22D01B2B22D01C2B22D01D2B22D01E2B1B
S31500003DBC22D01F2B0CBF0223FF231EE002231CE084
S31500003DCC03231AE0042318E0052316E0062314E067
S31500003DDC072312E0082310E009230EE00A230CE067
S31500003DEC0B230AE00C2308E00D2306E00E2304E067
S31500003DFC0F2302E0002300E00123E3766B7A002B0D
S31500003E0C00F06581012B00F06481022B00F06381C8
S31500003E1C032B00F06281042B00F07381052B00F05C
S31500003E2C7281062B00F07181072B00F05A81082B4A
S31500003E3C00F04D81092B00F04C810A2B00F04B81D0
S31500003E4C0B2B00F04A810C2B00F049810D2B00F056
S31500003E5C58810E2B00F057810F2B00F04281102B4E
S31500003E6C00F04181112B00F04081122B00F02F81C4
S31500003E7C132B00F02E81142B00F02D81152B00F046
S31500003E8C2C81162B00F02B81172B00F03081182B70
S31500003E9C00F02F81192B00F02E811A2B00F02D81AA
S31500003EAC1B2B00F02C811C2B00F02B811D2B00F002
S31500003EBC2A811E2B00F029811F2B08BF052303E145
S31500003ECC2C4A93427FF433AD2A7A072A19D9A2F1E8
S31500003EDC0803012B17D9A2F10A03052B15D9A2F158
S31500003EEC1003012B13D9A2F11203052B11D9A2F140
S31500003EFC1803042B0FD91D3A022A94BF0A23FF2359
S31500003F0C0AE0034608E0082306E0012304E009233F
S31500003F1C02E0022300E00523E3756B7A062B1BD91E
S31500003F2CDA1F012A1AD9A3F10902052A18D9A3F115
S31500003F3C0F02012A16D9A3F11102052A14D9A3F1ED
S31500003F4C1702042A12D9A3F11C02022A14D91F2B18
S31500003F5C0CBF0323FF2310E003230EE008230CE021
S31500003F6C01230AE0092308E0022306E0052304E006
S31500003F7C00080140000C01400A2323762B7A002B03
S31500003F8C44D0012B44D0022B44D0032B4CD0042B11
S31500003F9C4CD0052B4CD0062B4CD0072B4CD0082BD9
S31500003FAC3AD0092B3AD00A2B2CD00B2B2CD00C2B1D
S31500003FBC2CD00D2B2CD00E2B2CD00F2B34D0102B11
S31500003FCC38D0112B38D0122B38D0132B38D0142BC9
S31500003FDC22D0152B22D0162B22D0172B22D0182B01
S31500003FEC22D0192B22D01A2B22D01B2B22D01C2BE1
S31500003FFC22D01D2B22D01E2B22D01F2B0CBF02230E
S3150000400CFF231EE006231CE007231AE0082318E012
S3150000401C092316E00A2314E0022312E0032310E01E
S3150000402C04230EE005230CE00B230AE00C2308E026
S3150000403C0D2306E00E2304E00F2302E0002300E02C
S3150000404C0123E3766B7A002B47D0012B47D0022B4A
S3150000405C4DD0032B4DD0042B4DD0052B4DD0062B1C
S3150000406C4DD0072B51D0082B3BD0092B2FD00A2B28
S3150000407C2FD00B2B2FD00C2B2FD00D2B2FD00E2B54
S3150000408C35D00F2B39D0102B39D0112B39D0122B10
S3150000409C39D0132B39D0142B23D0152B23D0162B18
S315000040AC23D0172B23D0182B23D0192B23D01A2B24
S315000040BC23D01B2B23D01C2B23D01D2B23D01E2B04
S315000040CC23D01F2B08BF082318BFFF231EE006238F
S315000040DC1CE007231AE0082318E0092316E00A233C
S315000040EC14E0032312E0042310E005230EE00B2357
S315000040FC0CE00C230AE00D2308E00E2306E00F2348
S3150000410C04E0002302E0012300E0022323776B7C0A
S3150000411C6376AB7C6377EB7CA3762B7DA37720460B
S3150000412C0121FFF77BF9064600283FD1FDF75DFE1E
S3150000413C2F7C032F804610D12B685A6F42F0300229
S3150000414C5A675A6E42F004025A6695F8211095F891
S3150000415C202042EA0122DA670DE0022F0BD100F093
S3150000416C07FC607F134900F011FCA6752675677570
S3150000417C2046FFF78DFB28684FF0FF3383642B7CBA
S3150000418C032B0CBF05210421FEF796FC2B684FF47C
S3150000419C4062DA6000F092FA2046FFF7EFF8044628
S315000041AC4046FDF728FE204600E0034808B0BDE86F
S315000041BCF08100BF7D320000027000F090F83130C3
S315000041CC032B05D00229417518BF0175FFF760BB9B
S315000041DC00487047057000F010B5044600283DD025
S315000041EC0321FFF7A9F900212046FFF7E7FF204638
S315000041FC0021FFF713F994F8323033B92368022201
S3150000420CDA6023680822DA600AE0012B08D12068FC
S3150000421CFEF799FA23685A6C9207FCD40A225A6064
S3150000422C206A0021FDF7CAF994F83130032B03D02C
S3150000423C607F002100F0AAFB606800F017FAA06806
S3150000424C00F014FA00F0F2F9636A00201880588026
S3150000425C9880A36A18805880988010BD004810BDBD
S3150000426C027000F0F0B587B005460F4614461E46A0
S3150000427CFFF772F810BB124B686A019701A96A46E0
S3150000428C0294039404960593FFF78EF8B0B995F84B
S3150000429C2C3003F0FF040BB100200FE02846FFF78B
S315000042AC21F828460099FEF74FFF95F83130032B7D
S315000042BCF2D02C752846FFF7EBFA204607B0F0BD76
S315000042CC017000F0F7B5506A01A91446FEF7FAFE24
S315000042DC344B984263D094F83210019B59B920683C
S315000042EC026C12F4007214D02F4A1A61996023687A
S315000042FC4FF4007216E0012920D12168CA6A12F027
S3150000430C800211D0284A1A6100229A602368802202
S3150000431C12E0016CC80511D524499A60196123680D
S3150000432C4FF480729A640CE0C96A490606D51F4997
S3150000433C9A601961236840225A6302E000221A61CE
S3150000434C9A60FDF752FD019AD568064635B1936819
S3150000435C5768116912682046FB1AA847606A01A9BA
S3150000436CFEF7CAFE606A8588ADB23DB101A9FEF7BB
S3150000437CA9FE20460199FEF7E7FE0DE00123237501
S3150000438C2046FFF785FA94F8313084F82C50032B2D
S3150000439C02D02046FEF7C6FF3046FDF72CFD012065
S315000043AC03B0F0BD0B7000F00D7000F00C7000F057
S315000043BC90F83120012A10B503460FD102290DD0F1
S315000043CC827D8A4208D0997511B9FFF741FA03E04C
S315000043DC012901D1FFF724FA002010BD004810BDB9
S315000043EC057000F0F0B587B004460F4615461E461C
S315000043FCFEF7B2FF00BB114BA06A019701A96A46F2
S3150000440C0295039504960593FEF7CEFFA0B994F892
S3150000441C2D308BB9FDF7E9FCA36A9B889BB2054648
S3150000442C33B120460099FEF7B3FE012384F83030F1
S3150000443C2846FDF7E0FC002007B0F0BD017000F047
S3150000444C2DE9F04F9B465D4B85B01B78109F9DF870
S3150000445C44A0129E054689469046002B00F0A58086
S3150000446C072A00F2A4800E9B002B00F0A0800F9B65
S3150000447C002B00F09C80B6F5006F00F398800128A5
S3150000448C02D1002F00F093804D4B03EB08131B7BDE
S3150000449C002B00F08E804B4C68460021102204EB5A
S315000044AC481433F04BFA2046B9F1000F12D14946A5
S315000044BC102233F043FAA37843F01003A370E37889
S315000044CC43F03003E370BAF1000F12D1DBB243F0C4
S315000044DC03030DE00021102233F030FA1023A370F1
S315000044EC0323E370BAF1000F03D1DBB243F03003C0
S315000044FCE370344ACDF800B04FEA4813013ED15A66
S3150000450C02EB030E66F30E11D1520E9ACEF808206A
S3150000451C0F9ACEF804209DF84C109EF80320012D1E
S3150000452C61F383028EF8032024D19EF80C2042F00E
S3150000453C03028EF80C20DEF80C20042161F39F0296
S3150000454CCEF80C209EE80F000EF1100686E80F0040
S3150000455CDEF81C206FF0030161F39F02B9F1010F25
S3150000456CCEF81C2077600ED10F9BCEF81830CEF803
S3150000457C047008E0149B33B92DB99EF8023065F32C
S3150000458C04138EF802300E4914984FEA08128B1851
S3150000459C88500026159A5A6040469E605D7369469F
S315000045AC2246FEF735F8304604E0074802E0074895
S315000045BC00E0074805B0BDE8F08F00BF8C35002041
S315000045CC0C35002090350020028000F0018000F0B0
S315000045DC078000F038B5104B1B780546BBB1C0B14F
S315000045ECFDF703FC00230D4A02EB0312147B3CB9C6
S315000045FC2B60012313731460FDF7FDFB204638BDB9
S3150000460C0133082BEFD1FDF7F6FB054838BD0548FD
S3150000461C38BD054838BD00BF8C3500200C35002050
S3150000462C048000F0028000F0018000F038B5FDF740
S3150000463CDCFB002305460A4A1A44147B5CB910338A
S3150000464C802BF8D1FDF79CFF064B28461C70FDF716
S3150000465CD2FB204638BD2846FDF7CDFB024838BDB7
S3150000466C0C3500208C350020058000F00E4B1B7895
S3150000467C10B504469BB1072813D8FDF7B6FB0B4BB8
S3150000468C03EB041308331A792AB100241C71FDF7C5
S3150000469CB2FB204610BDFDF7AEFB054810BD054824
S315000046AC10BD054810BD00BF8C3500200C35002010
S315000046BC068000F0028000F0018000F013B5124B6A
S315000046CC1868019000238DF80430FDF78EFB0F4B14
S315000046DC1C781CB1FDF78FFB0D4813E001221A70F4
S315000046ECFDF789FB23460B4A1A4410330024802B12
S315000046FC1473F8D104230DEB03008DF80730FDF786
S3150000470C5BFF204602B010BDD09203008C35002012
S3150000471C038000F00C35002030B589B08DE80C0014
S3150000472C9DF8303003930D9B04939DF83830059318
S3150000473C0F9B06930546109B07930C460020029090
S3150000474C01462A462346FFF77BFE09B030BD30B53D
S3150000475C89B08DE80C009DF8303003930D9B0493C3
S3150000476C9DF8383005930F9B06930546109B0793CF
S3150000477C0C460020029001212A462346FFF760FED4
S3150000478C09B030BD08B50A4B1B785BB107280BD8AE
S3150000479C084B03EB00131B7B43B10021FDF702FF13
S315000047AC002008BD044808BD044808BD044808BDDF
S315000047BC8C3500200C350020028000F0018000F0C2
S315000047CC078000F008B50A4B1B785BB107280BD89D
S315000047DC084B03EB00131B7B43B10121FDF7E2FEF3
S315000047EC002008BD044808BD044808BD044808BD9F
S315000047FC8C3500200C350020028000F0018000F082
S3150000480C078000F008B50A4B1B7853B107280AD865
S3150000481C084B03EB00131B7B3BB1FDF74BFF002052
S3150000482C08BD054808BD054808BD054808BD00BFBC
S3150000483C8C3500200C350020028000F0018000F041
S3150000484C078000F00E4B1B7810B59BB1072813D8C8
S3150000485C91B10C4B03EB00131B7B7BB10A4B012272
S3150000486C1C6A02FA00F313EA04001ABF00200A704D
S3150000487C087010BD054810BD054810BD054810BD93
S3150000488C8C3500200C35002000200E40028000F0F4
S3150000489C018000F0078000F00B4B1B7810B50C461E
S315000048AC63B107280CD859B1084B03EB00131B7BDB
S315000048BC43B1FDF715FF2060002010BD044810BD64
S315000048CC044810BD044810BD8C3500200C35002062
S315000048DC028000F0018000F0078000F0164AF8B55F
S315000048EC136ED76E1F4000D5FEE7144C012600252B
S315000048FC3E4219D0104B9E6654F8043CA3B1616835
S3150000490C22680131616028469847637A012B0BD1E6
S3150000491C50B90B4B03EB4513197B1A7F60F341011E
S3150000492C60F3410219731A770135082D4FEA4606D2
S3150000493C04F11004DCD1F8BD00200E401035002027
S3150000494C9035002010B5044674B194FAA4F0B0FA70
S3150000495C80F00123834024EA0304044B53F82030EF
S3150000496C002BF1D09847EFE710BD00BF9036002022
S3150000497C054B4FF48022C3F880211A604FF48062F5
S3150000498CC3F880211A60704700E100E038B5044690
S3150000499C0D46FDF72AFA034B43F82450BDE8384080
S315000049ACFDF729BA90360020074AD2F82804D2F827
S315000049BC1C34184020F42A5020F02A004004400CE5
S315000049CCC2F82404FFF7BEBF00A00040074AD2F885
S315000049DC2804D2F81C34184020F4AA4020F05500C4
S315000049EC0004000CC2F82404FFF7ACBF00A0004082
S315000049FC044B4FF04042DA621A6B22F040421A63C3
S31500004A0C704700BF00300E4030B52849284B0A6865
S31500004A1C03F128001C6844B114682CB11D79147973
S31500004A2CA54288BF1A4600E01A4608338342F1D1E4
S31500004A3C0A6011681F4B59B1D96921F0FF01D96180
S31500004A4CD96912790A43DA611A6B42F0804202E0A4
S31500004A5C1A6B22F0804218491A63184B0A6803F144
S31500004A6C28001C6844B114682CB11D791479A54230
S31500004A7C38BF1A4600E01A4608338342F1D10A6061
S31500004A8C11680C4B61B1D96921F47F41D961D9699F
S31500004A9C127941EA0222DA611A6B42F0004202E014
S31500004AAC1A6B22F000421A6330BD00BFD0360020CC
S31500004ABCE836002000300E40E0360020103700208B
S31500004ACC08B51B4B1B4801221A700021282232F014
S31500004ADC35FF28221848002132F030FF174A184BB0
S31500004AEC1360184A1360184B1A685B6DC2F30742C1
S31500004AFCFF2A02D0DBB2FF2B01D1902319221348D7
S31500004B0C02EB820103EBD1010160DB000521B3FB53
S31500004B1CF1F313440E4A1360FFF76AFF0D4B0122A3
S31500004B2CC3F880211A60FFF76FFF002008BD00BF95
S31500004B3C38370020E836002010370020D036002009
S31500004B4CD8360020E0360020B081E00FE436002095
S31500004B5CD436002000E100E0074B084A1B6ADBB2A2
S31500004B6C6FF00400DB0093FBF0F31068184400F3BD
S31500004B7C070040B2704700BF00300E40D43600200C
S31500004B8C38B5164B196B5A6A0A401C460FD5144B8E
S31500004B9C186805683DB10021082232F0CFFEFFF7F8
S31500004BACDBFF0021A8474FF00043E36211E05300FE
S31500004BBC0FD50C4B186804683CB10021082232F062
S31500004BCCBDFEFFF7C9FF0121A047044B4FF0804201
S31500004BDCDA62BDE83840FFF717BF00BF00300E4061
S31500004BECE0360020D0360020FFF7CABF00487047D9
S31500004BFC00F049020D4AD2F8943003F00703032B58
S31500004C0C0AD0042B03D0022B03D1094B02E0094B2B
S31500004C1C00E0094B186801E04FF40040D2F800316F
S31500004C2CC3F304230133B0FBF3F0704700400E408E
S31500004C3CA82E0020A42E0020B02E002008B5FFF7C9
S31500004C4CD9FF054BD3F80831C3F308230133B0FB66
S31500004C5CF3F0024B186008BD00400E40AC2E00204D
S31500004C6C014B1868704700BFA82E0020054B186032
S31500004C7C054BD3F8943003F00703022B01D1FFF751
S31500004C8CDDBF7047A82E002000400E40034AD2F824
S31500004C9C883043F47003C2F88830704700ED00E0AA
S31500004CAC4FF4004070474FF47A707047014B186808
S31500004CBC704700BFA42E002070477047014B01229D
S31500004CCC1A7070474B4800207047000008B5012049
S31500004CDCFCF738F903484FF4FA71BDE8084017F0B1
S31500004CECD3BE00BFBC3900202020014904F056BBBE
S31500004CFC7F9A0300FFF7F8BF2020014904F04EBB52
S31500004D0CDE9503001FB5084988780A784B78009021
S31500004D1C88888968019002912020044904F03EFBA2
S31500004D2C05B05DF804FB00BFE0C80300E695030080
S31500004D3C024B03491A68202004F030BB0C300020CB
S31500004D4C1C960300024B03491A68202004F026BB6C
S31500004D5CF4460020319603002DE9F04385B0044655
S31500004D6C29F0D6FE29F098FE8046204617F092FDD3
S31500004D7C08220146684603F099FB204617F083FD8E
S31500004D8C6D46814600271F4C0821E019002218F0B9
S31500004D9C6DFA264608B30837B7F5807FF3D10023A2
S31500004DAC194A32F81320424504D00133202BF7D18F
S31500004DBC002400E0012495E8030002AE86E8030017
S31500004DCC0025124831462844082203F0FDFB90B119
S31500004DDC0835B5F5807FF4D110E0B9F5404F0CD10C
S31500004DEC044630192946082203F0EEFB28B1083494
S31500004DFCB4F5807FF5D1012400E00024204605B0EF
S31500004E0CBDE8F083BA38002068380020C439002089
S31500004E1C38B5084D288816F055FC0446288816F037
S31500004E2C6DFC2118204606F07BF9BDE83840FFF7EB
S31500004E3C5BBF00BF2E49002038B50024114B124829
S31500004E4CE5004FF6FF7223F81420284400210822AF
S31500004E5C03F0B3FB0D4800212844082203F0ADFBF8
S31500004E6C0B482544284400210822013403F0A5FBF5
S31500004E7C202CE3D1074B4FF0FF321A70064B074A32
S31500004E8C1A6038BD68380020C4390020BA380020B2
S31500004E9C46370020BC2E0020A84A0020D56700000B
S31500004EAC08B5FFF7C9FF20200249BDE8084004F009
S31500004EBC75BA00BF7F9A030008B5054B054800215B
S31500004ECC1022197003F079FBBDE80840FFF70CBF00
S31500004EDC263B0020E53A0020F0B5C3B002AC0746ED
S31500004EEC0D46204600211646FE2203F066FB01A85D
S31500004EFC0DF583713A46019427F078F810B9FFF74F
S31500004F0CFBFE33E046B1019B1B1B294622469BB296
S31500004F1C202004F017FA27E02946202004F03EFA58
S31500004F2C019DAC421CD2A71CAF4204D910492020CB
S31500004F3C04F034FA14E0667822780E4933462020C1
S31500004F4C04F0F2F933460C493A46202004F0FAF9FB
S31500004F5C2020094904F022FA637802331C44E0E766
S31500004F6C2020064904F01AFAFFF7BEFE43B0F0BD46
S31500004F7C4396030056960300F6C803007596030085
S31500004F8C0D2002490022FFF7A7BF00BF7E96030043
S31500004F9C0D2002490122FFF79FBF00BF7A9603003E
S31500004FAC0E2002490022FFF797BF00BF8E96030022
S31500004FBC0E2002490122FFF78FBF00BF9F96030008
S31500004FCC10B518F0D1FB044618F0CEFB224603466A
S31500004FDC02492020BDE8104004F0E0B9B496030065
S31500004FEC2DE9F04F85B019F019FD264C264923788A
S31500004FFC0246202004F0D2F9002625462B78F4B27E
S3150000500CA34238D9214B1B6833F814304FF6FF7284
S3150000501C93422ED01E492246202004F085F91D4BC2
S3150000502C186800EBC40005F03DFD1B4B1B6833F8FC
S3150000503C14801A4B1B6853F82470194B1B6853F8D1
S3150000504C24B0184B1B6853F824A0174B1B6820463A
S3150000505C53F8249019F016FECDF800B00390CDF855
S3150000506C04A0CDF808902020104942463B4604F097
S3150000507C95F90136C2E70E49202005B0BDE8F04F80
S3150000508C04F08CB9D22E0020C5960300C42E002045
S3150000509CDD960300E42E0020D42E0020CC2E00201A
S315000050ACF42E0020FC2E0020002F0020E896030092
S315000050BC249703002DE9F04186B022F021FE044628
S315000050CC18F07BFB804618F04FFB074618F040FBA8
S315000050DC1A4A1B4B15781B4A1B8812881A491B4EF9
S315000050EC8DE80900002D0CBF0D463546184B029372
S315000050FC12F0010F18BF314608230393059104954E
S3150000510C2020144942463B4604F00EF924B91249B4
S3150000511C202004F043F90BE0A17822786378009103
S3150000512CE17801912179029120200C4904F036F99D
S3150000513C06B0BDE8F04118F039BB00BF3B49002072
S3150000514C2E320020A44700203A9703003D97030017
S3150000515CB053002041970300D6970300DD97030058
S3150000516C08B5002004F0E8FB044B003018BF012002
S3150000517C1870BDE80840FFF7B7BD00BF30320020FD
S3150000518C08B5002004F0D8FB044B003018BF0120F2
S3150000519C1870BDE80840FFF7A7BD00BFB438002063
S315000051AC08B5002004F0C8FB024B1860BDE80840A7
S315000051BCFFF79ABDC833002008B5002004F0BCFBED
S315000051CC024B1860BDE80840FFF78EBD283300205F
S315000051DC08B5002004F0B0FB054B064918600246E2
S315000051EC202004F0DBF8BDE80840FFF77DBD00BFCA
S315000051FC0C300020EC97030008B5002004F09CFB53
S3150000520C054B1870012004F097FB044B1870BDE891
S3150000521C0840FFF769BD00BF7C33002044330020F3
S3150000522C08B5002004F088FB074B1870012004F029
S3150000523C83FB064B1870022004F07EFB044B18709F
S3150000524CBDE80840FFF750BDB8330020B933002045
S3150000525CCC33002008B5002004F06EFB044B003064
S3150000526C18BF01201870BDE80840FFF73DBD00BF10
S3150000527CAC4A002008B5002004F05EFB024B186017
S3150000528CBDE80840FFF730BDC032002008B500204D
S3150000529C04F052FB044B05491880024692B22020BA
S315000052ACBDE8084004F07AB85C3200200B98030085
S315000052BC08B5002004F040FBC0B220B10348BDE89D
S315000052CC084017F0D5BB014B187008BDBC3900203F
S315000052DC08B5002004F030FB024B1860BDE808400E
S315000052ECFFF702BD7833002008B5002004F024FB3C
S315000052FC034B80021880BDE80840FFF7F5BC00BFE1
S3150000530CA833002008B5002004F016FB024B1880C9
S3150000531CBDE80840FFF7E8BCB84A002008B50020F5
S3150000532C04F00AFB024B1870BDE80840FFF7DCBC22
S3150000533CD02E002008B5002004F0FEFA014B8000A8
S3150000534C188008BDCE33002008B5002004F0F4FA0E
S3150000535C034B044918802020BDE8084004F01EB811
S3150000536CD83300207F9A030008B5002004F0E4FA35
S3150000537C024B1870BDE80840FFF7B6BC2049002068
S3150000538C08B5002004F0D8FA024B1880BDE8084096
S3150000539CFFF7AABCA032002008B5002004F0CCFA16
S315000053AC024B1880BDE80840FFF79EBCD6330020A0
S315000053BC08B5002004F0C0FA28F000FBBDE8084050
S315000053CCFFF792BC73B50025A8B227F089FB1449E8
S315000053DC04462A46202003F0A7FFCCB12020114911
S315000053EC03F0A2FF0023E2785E1C9BB29A4207D917
S315000053FC234420201A790C4903F096FF3346F2E732
S3150000540CA1782278637800912020084903F08CFF5C
S3150000541C2020013503F0BCFF082DD5D102B070BD9C
S3150000542C4298030047980300ABF703004F9803001C
S3150000543C70B52020354903F0B1FF0124002604F194
S3150000544C0055334B013D03EBC505284608210022C8
S3150000545C17F00CFF58B92F492246202003F064FFA1
S3150000546C284605F01FFB202003F092FF012601348D
S3150000547C212CE4D11EB92020274903F08FFF2020D0
S3150000548C264903F08BFF0124002604F10055244B1A
S3150000549C013D03EBC50528460821002217F0E6FE60
S315000054AC58B91C492246202003F03EFF284605F039
S315000054BCF9FA202003F06CFF01260134212CE4D1EB
S315000054CC1EB92020144903F069FF1649202003F069
S315000054DC65FF00221146144B33F812304FF6FF705D
S315000054EC834202F1010405D010492020224603F024
S315000054FC55FF0121202C2246EDD129B9204606491B
S3150000550CBDE8704003F04ABF70BD00BF6A98030047
S3150000551CC43900204298030092980300989803001F
S3150000552CBA380020AA98030068380020C2980300F5
S3150000553C08B500201BF030F8BDE80840FFF7D4BBD7
S3150000554C70B504F06FF900240546E0B2A84217D2F4
S3150000555C04F0F2F982B200200C4B33F81010914291
S3150000556C04D123F810200A4920200AE04FF6FF76D2
S3150000557CB142F6D001302028EED10649024600E0B1
S3150000558C70BD03F00BFF0134DFE700BF6838002065
S3150000559CCC980300F098030010B504F043F9064CC0
S315000055AC10B90123237003E0002004F0C5F9207024
S315000055BCBDE81040FFF798BB2149002008B504F060
S315000055CC31F930B1002004F0B7F9003018BF0120D2
S315000055DC00E00120BDE808402BF0EFBC08B5002028
S315000055EC04F0AAF9003018BF0120BDE8084020F0ED
S315000055FC59BD08B5002004F09FF9003018BF0120F2
S3150000560CBDE8084007F026BE08B5002004F094F962
S3150000561CC1B2012022F06CF918B1BDE80840FFF7C1
S3150000562C63BBBDE80840FFF767BB08B50020FF2148
S3150000563C22F05EF9BDE80840FFF756BB08B500201E
S3150000564C04F07AF913F090FABDE80840FFF74CBB6A
S3150000565C07B501A828F024FA30B10198013028F0DA
S3150000566CADF9FFF741FB01E0FFF746FB03B05DF830
S3150000567C04FB000030B5C5B004F0D4F830B10020FE
S3150000568C04F05AF9003018BF012000E001201A4C32
S3150000569C207026F0F9FB227890F8563000F154056C
S315000056AC12B143F0080301E023F0080380F85630EA
S315000056BC03A826F0CCFB0023019303228DF80830B7
S315000056CC0DF106000C2329468DF805208DF80430C3
S315000056DC02F0ECFE03A801A9052226F068FB28B10E
S315000056EC03A826F05DFDFFF7FFFA03E0202003492F
S315000056FC03F054FE45B030BD34320020159903003A
S3150000570C08B5002004F018F9BDE8084015F028BFCC
S3150000571C08B5002004F010F9B0FA80F0400912F038
S3150000572CAFFCBDE80840FFF7DFBA08B5002004F06F
S3150000573C03F9B0FA80F0400913F020FEBDE80840EA
S3150000574CFFF7D2BA08B5002001462BF07DFDBDE867
S3150000575C0840FFF7C9BA00001FB50020694604F0DF
S3150000576C15FA10B9FFF7C8FA09E0064B06480122EC
S3150000577C1A706946102202F099FEFFF7B5FA05B0C9
S3150000578C5DF804FB263B0020E53A002010B5C2B0BC
S3150000579C0DF10301002004F03BF9044601A826F0A4
S315000057AC56FB01A821469DF8032026F000FB28B1E4
S315000057BC01A826F0F5FCFFF797FA01E0FFF79CFA33
S315000057CC42B010BD7FB5002002A904F0DFF948B144
S315000057DC0DF10701012004F01BF99DF8071002AA30
S315000057EC2BF05CFDFFF780FA07B05DF804FB1FB5E4
S315000057FC002004F0A1F869460446012004F0C6F91D
S3150000580C50B1022004F098F882B26946E0B2134611
S3150000581C2BF0D2FCFFF768FA04B010BD1FB50020C0
S3150000582C694604F0B3F948B1012004F085F881B259
S3150000583C0A4668462BF0F2FCFFF756FA05B05DF8FF
S3150000584C04FB0000F0B5002097B004F075F805A92C
S3150000585C0446012004F09AF958B30DF11301022005
S3150000586C04F0D6F80746032004F066F809AD86B2B4
S3150000587C00212846342202F0A0FE9DF824200E4B6F
S3150000588C14939DF81330009342F0010200238DF817
S3150000589C2420E4B201930221084A02953B4605A84E
S315000058ACADF83660ADF83860159406F04DFCFFF790
S315000058BC1BFA17B0F0BD00BF1910030022990300A4
S315000058CC30B5A3B005468DF81710002008A904F0D2
S315000058DC5DF920B92349202003F060FD40E022A9A0
S315000058EC002301F8693D012004F092F89DF81F3061
S315000058FC01467BB1202B84BF20238DF81F309DF8E9
S3150000590C1F208DF831200D230DF132008DF830302B
S3150000591C02F0CCFD15AC20460021342202F04DFEDF
S3150000592C0DF117031E930123ADF87C300E4B1B882B
S3150000593CADF86630ADF868309DF81F3003B1023310
S3150000594C00930A4B0193029408A802212A460CAB39
S3150000595C06F0FAFB10B9FFF7C7F901E0FFF7CCF92F
S3150000596C23B030BD29990300A03200207D680000C9
S3150000597C01480321FFF7A4BF409903000148022107
S3150000598CFFF79EBF4599030001480121FFF798BF19
S3150000599C4099030001480021FFF792BF4599030087
S315000059AC1FB50020694604F0F1F810B1684605F001
S315000059BC3BF9202003F0ECFC05B05DF804FB08B5C0
S315000059CC002003F0B9FFBDE80840C0B22BF034BC90
S315000059DC30B58DB00DF10B01002004F019F80F4A0B
S315000059EC9DF80B1003AD1024A2F1100300952EF0B8
S315000059FCB1FB04230DF11E00294622468DF81C30FE
S31500005A0C8DF81D4002F052FD05492A4623462020FA
S31500005A1C03F0C4FCFFF768F90DB030BDDF5300206E
S31500005A2C4A99030008B5002003F086FF021C4FF0CC
S31500005A3C000018BF0122014620F033FA18B1BDE868
S31500005A4C0840FFF751B9BDE80840FFF755B900000B
S31500005A5C002010B5014603F0DBFF04462FF067FF6C
S31500005A6C2246034602492020BDE8104003F096BCAE
S31500005A7C6199030008B52FF05AFF03490246BDE8A9
S31500005A8C0840202003F08ABC7399030008B511F076
S31500005A9C29FD03490246BDE80840202003F07EBCE0
S31500005AAC80990300F0B59BB01AA90746002001F8AF
S31500005ABC650D03F0ADFF054622F080FB064603F0AC
S31500005ACCB1FE012803D9012003F036FF86B29DF8FA
S31500005ADC03102C4600238B4208D222780B2A16D0B0
S31500005AEC627802321344DBB2EC18F4E725F0A8F81E
S31500005AFC68B1204B20491A88202003F04FFC204621
S31500005B0C24F04AFA9DF8033004338DF803301B4B0E
S31500005B1C1C7801A85CB100213C2202F04EFD3846EF
S31500005B2C29469DF8032001AB26F064F81AE02346BB
S31500005B3C314622461DF040FF224628469DF80310AA
S31500005B4C16F0D5F90E4B1693024620B90D492020B6
S31500005B5C03F024FC0CE001A8394606F0A9F9B0FACA
S31500005B6C80F0400910B1FFF7BFF801E0FFF7C4F869
S31500005B7C1BB0F0BD065400208C9903003B49002055
S31500005B8CAD670000B29903000148FFF78BBF00BF59
S31500005B9CB69903000148FFF785BF00BFBB99030008
S31500005BACF0B52D4B1B78C5B02BB92C492C4A2020AF
S31500005BBC03F0F4FB4EE0012003F0BEFE0746022084
S31500005BCC03F0BAFE84B2032003F0B6FE061C4FF0B7
S31500005BDC000018BF012603F0AFFE431E5D425D4177
S31500005BEC03A815B126F033F901E026F059F9002186
S31500005BFC0A22684631F0A2FE0E2300208DF80030F2
S31500005C0C08233A468DF801300DF10201034617F0D0
S31500005C1C07FB610089B202A817F0F0FA9DF809009B
S31500005C2C30438DF80900694603A80A2226F0BFF80E
S31500005C3C20B90C49202003F0B1FB0BE003A815B1E9
S31500005C4C26F0AEFA01E026F0D7FC012022F092F8FD
S31500005C5CFFF74AF845B0F0BD3B490020C099030058
S31500005C6CF0990300049A03002DE9FF47002003F086
S31500005C7C63FE8046012003F05FFE0746022003F018
S31500005C8C5BFE0646032003F057FE8246042003F013
S31500005C9C53FE0446052003F04FFE8146062003F012
S31500005CAC4BFE1FFA8AF20023054602A9002017F0C4
S31500005CBCB7FA24F00101B9F1000F18BF41F0010148
S31500005CCC0DF10E0089B2ADB217F098FA00955FFA95
S31500005CDC88F002A9FAB2F3B220F00CF810B1FFF773
S31500005CEC03F801E0FFF708F804B0BDE8F087000000
S31500005CFC1FB5002003F020FEC4B214B10122A2404D
S31500005D0C00E0074A03A9002017F07CFA042300934D
S31500005D1C0449224603AB202003F040FB04B010BD1F
S31500005D2C00F8FF07159A030008B51BF0BFF8BDE88D
S31500005D3C0840FEF7D9BF0000002008B50649034607
S31500005D4C402203F0D5FE054B05491870BDE8084006
S31500005D5C202003F023BB00BF434900203F4900200D
S31500005D6C7F9A030013B50F4C694620461AF0CEF8FD
S31500005D7C22460D4C0D490823202003F0E3FA214658
S31500005D8C202003F00BFB6A4608230949202003F068
S31500005D9CD9FA2146202003F001FBFEF7A5FF02B03D
S31500005DAC10BD00BF6B530020F6C80300329A0300E7
S31500005DBC2B9A030008B5002003F0BEFD064B0749DD
S31500005DCC18600246202003F0E9FA29F08FFDBDE8A1
S31500005DDC0840FEF789BF00BFA43300203A9A03009F
S31500005DEC08B50020044903F0B8FE20200349BDE89D
S31500005DFC084003F0D3BA00BFB85300207F9A0300C3
S31500005E0C2DE9F3410020694603F0A7FE012003F0BB
S31500005E1C93FDC6B2032E02D920201F4937E06846EF
S31500005E2C1E49082202F0D0FB10B91D4B1E701FE054
S31500005E3C00241C4F4FEAC40808EB04053D442846D1
S31500005E4C0821002217F012FAA8B144443C44284613
S31500005E5C6946082202F02AFB134926723246202094
S31500005E6C03F062FA202011496A46082303F06AFA05
S31500005E7C20200F490BE028466946082202F0A4FBB5
S31500005E8C0028E2D00134202CD3D10A49204603F055
S31500005E9C85FA02B0BDE8F081579A0300B42E0020B3
S31500005EACBC2E002046370020839A0300F6C8030058
S31500005EBC7E9A0300A89A03002DE9F04385B003F0FF
S31500005ECCB1FC00258146EBB24B4536D268B2694629
S31500005EDC03F043FE9DE803000DF1080888E8030073
S31500005EEC6F460026164C344420460821002217F033
S31500005EFCBDF980B108222046414602F0D7FA114975
S31500005F0C202003F011FA384604F0CCFD0E4920206F
S31500005F1C03F044FA0FE020464146082202F054FBF7
S31500005F2C0028E7D00836B6F5807FDBD1202007495C
S31500005F3C024603F033FA0135C5E705B0BDE8F08338
S31500005F4CC4390020C59A0300DF980300D89A0300D1
S31500005F5C08B5002003F0F0FC003018BF0120BDE8A6
S31500005F6C084025F089BB00000148072125F05EBBDF
S31500005F7CFA9A0300F8B51A48002116F068F9054696
S31500005F8C60B3284615F09EFB0746284615F0B6FB6F
S31500005F9C431E1B07064604D0124840F22271FAF73C
S31500005FACB7F9202010493A7803F0BEF90124B4421F
S31500005FBC0FD2012C03D920200C4903F0B5F938195E
S31500005FCC04F032FE10342020094903F0E7F9A4B29C
S31500005FDCEDE72946024816F064F9D0E7F8BD00BF94
S31500005FECA2530020029B030002F8030056FC030098
S31500005FFCF6C8030008B5002003F09EFC431E584269
S3150000600C58411FF031F9BDE80840FEF76DBE08B5E2
S3150000601C17F006FFBDE8084017F008BF07B50020CB
S3150000602C694603F09AFD684620F042F8064920209E
S3150000603C03F07AF9684604F035FD0449202003F094
S3150000604CADF903B05DF804FB149B0300F6C803001E
S3150000605C08B5002003F070FC064B1B78042B05D109
S3150000606CC0B2032802BF044B00221A70BDE80840D8
S3150000607C04F0B1B9A6470020A83800202DE9F34159
S3150000608C00200DF1070103F0C3FC9DF80740804684
S3150000609C03F0C8FB012802D8A4B2002707E00120B0
S315000060AC03F04AFC87B2022003F046FC84B21F4D73
S315000060BC298849B9204615F09FFE288020B91C482E
S315000060CC40F27D31FAF724F9288815F0FBFA41469F
S315000060DC9DF807200646384402F0E8F920201549B9
S315000060EC9DF8072003F05AF99DF807003844A042A2
S315000060FC19D12020104903F051F900235F1CDBB2A3
S3150000610CA3424FF0200005D2F25C0C4903F00CF9C7
S3150000611C3B46F3E703F03CF93046E1B2002214F0BB
S3150000612CB1F800232B8002B0BDE8F081B638002010
S3150000613C029B0300399B03004E9B03005DCC0300BE
S3150000614C08B5002003F0F8FB034B186019F038FA79
S3150000615CBDE80840FEF7C8BD1832002010B58AB05D
S3150000616C6946002003F0F9FC012003F0E5FB134B14
S3150000617C1022188006A90023022003F0B9FC02A9FC
S3150000618C044668461CF0BEFF0220002117F06AFA8E
S3150000619C0220002117F01EFB094B02221A7002A8DE
S315000061AC06AA234600212DF083FC0649202003F085
S315000061BCF5F8054B01221A700AB010BDD833002031
S315000061CCB94800207F9A0300D84A00201FB500204A
S315000061DC03F0B2FB0D4B69461880102200230120F8
S315000061EC03F086FC0A4B02460124694600201C700B
S315000061FC2DF0D4FB204619F079FF0649202003F038
S3150000620CCDF8054B1C7004B010BD00BFD833002070
S3150000621CD43300207F9A0300D84A00201FB50020F3
S3150000622C694603F0B3FC30B1684621F043FB2020ED
S3150000623C024903F0B3F805B05DF804FB7F9A03003E
S3150000624CF0B500209DB003F077FB06AC074621465F
S3150000625C012003F09BFC10B920202D4953E003F0DC
S3150000626CE1FA02280FD9022003F066FB85B203F08F
S3150000627CD9FA032804D9032003F05EFB86B200E0AA
S3150000628C082675B900E0082620461CF0B7FF38B979
S3150000629C20461CF07DFF00280CBF4025012500E0A0
S315000062AC012520460821002216F0E0FF30B12046D9
S315000062BC1CF0CCFF10B920461CF0EEF9002180230F
S315000062CCEDB20293009401950391049105960AA8E8
S315000062DCFAB20B461DF009FB98B119990B465A1ADE
S315000062EC92B2B24205D2C1F140021A4403F8012B14
S315000062FCF5E7002300930AA90122FF231BF002FDF8
S3150000630C18B90449202003F049F81DB0F0BD00BFB0
S3150000631C659B0300869B03002DE9F0470020A0B087
S3150000632C03F00AFB8146012003F006FB0646022019
S3150000633C03F002FB0DF1280A80465146032003F0B8
S3150000634C25FC002854D00DF12701042003F060FB36
S3150000635C074603F067FA05280CD9052003F0ECFA7A
S3150000636C84B203F05FFA062807D9062003F0E4FA94
S3150000637C80B203E00020402400E000209DF8275066
S3150000638CCDF800A08542E4B238BF05461FFA89F362
S3150000639C0194B6B2002402930396049405950694D0
S315000063AC0EA821465FFA88F223461DF043FA10B96F
S315000063BC202011491AE023469AB2AA4209D29DF826
S315000063CC271091421D9A86BFF95CD154D3540133E0
S315000063DCF2E7002300930EA90122FF231BF092FC87
S315000063EC10B12020054901E00549202002F0D6FF16
S315000063FC20B0BDE8F08700BF9E9B0300B19B030055
S3150000640C929B03007FB500200DF1170103F000FBF2
S3150000641C9DF81730102B84BF10238DF817309DF87C
S3150000642C17300021DB000246009101910291FF20FA
S3150000643C03F0F8032AF002F907B05DF804FB00003C
S3150000644C10B5002003F078FA84B2204628F03AFB07
S3150000645C30B9224620200549BDE8104002F09EBF07
S3150000646C28F010FCBDE81040FEF73EBCB49B0300C0
S3150000647C07B50020694603F070FB684628F002FC5D
S3150000648CFEF732FC03B05DF804FB00001FB50020DC
S3150000649C694603F07BFB90B1012003F04DFAC3B2C1
S315000064AC032B08D8074A684632F813101FF0EFFD85
S315000064BC2020054901E00549202002F06FFF05B0B8
S315000064CC5DF804FB80B003007F9A0300D49B0300A5
S315000064DC2DE9F04F002089B003F02EFA83460120F7
S315000064EC03F05CFA8246022003F026FA814603206A
S315000064FC03F022FA0DF107018046042003F088FA16
S3150000650C9DF807300F2B88BF0F2307464FF0050069
S3150000651C88BF8DF8073003F00FFA04A9044606204D
S3150000652C03F034FB40B104A81CF0D6FB03F07AF957
S3150000653C072806D801250AE02C49202002F02EFF58
S3150000654C50E0072003F0F8F9051C18BF0125284B6D
S3150000655C9DF807601B780BB1264804E002A80421BD
S3150000656C10F0C4FE02A81CF041FD16F00BFE5FFAFB
S3150000657C8BF011F07DF84FFA8AF017F0FBF800213A
S3150000658C5FFA89F017F06EF81FFA88F017F0EEF83C
S3150000659C3146384619F078FE04A81CF09DFB19F01C
S315000065ACAFFCA0B217F0D6F813490B886FEA43423A
S315000065BC6FEA52420A80114A1078022804BF43F44B
S315000065CC004343F00103144608BF0B80032000214F
S315000065DC17F000F92378022B02D10DB127F0A8FD94
S315000065EC04F0B6FC09B0BDE8F08F00BFEA9B0300CF
S315000065FC4B4800206B530020A4470020A6470020E0
S3150000660C08B525F095F8BDE80840FEF76DBB00000F
S3150000661C37B5002003F090F9104C114D20806946D7
S3150000662C012003F09AFA28466946082201F03EFF3B
S3150000663C2946208828F072FC0A4B0B491B682288D5
S3150000664C00B200EB400003EBC000322343748023FE
S3150000665C4375202002F0A2FE03B030BD2E3200207E
S3150000666CB0530020042F0020FB9B030073B50020C1
S3150000667C03F062F9054669460120ADB203F06DFAE6
S3150000668C6946284628F04AFC154B04B21B6804EBF5
S3150000669C440403EBC40432236374064603F0C2F8C5
S315000066AC022808D9022003F047F9E074032003F00E
S315000066BC43F9207503E00023E374F023237580234C
S315000066CC63750849202002F02FFE684604F0EAF9AB
S315000066DC054932462B46202002F060FE02B070BD02
S315000066EC042F0020129C0300229C0300094B1A68FD
S315000066FC10B51C4612B9084B1A7010BD17F064F889
S3150000670C032801D117F0A0FC21680348BDE810400E
S3150000671C16F0BAB9C43A0020A838002038B50020C3
S3150000672C03F00AF9124C206003F07CF8012806D914
S3150000673C012003F001F9051C18BF012500E0002516
S3150000674C236843B1FFF7D2FF094B0A491A68202088
S3150000675C02F024FE05E0084A08491370202002F0D6
S3150000676C1DFE25B10120BDE838402AF026BC38BDF7
S3150000677CC43A00203C9C0300A8380020519C03001E
S3150000678C044B1B7820200BB1034900E0034902F0AF
S3150000679C05BE00BF3B4900205D9C03006B9C0300BB
S315000067AC01280CD003284FF0200005D1442903D131
S315000067BC03499A7802F0F2BD024902F0EFBD704728
S315000067CC7C9C0300949C0300F8B507460E460024F7
S315000067DC38460821002216F049FD68B90C4D04EB29
S315000067ECC4031D4428463946082201F0EDFE18B9AB
S315000067FC2B7AFF2B07D102E00134202CE8D1054B74
S3150000680C1B78FF2B02D033700120F8BD0020F8BD99
S3150000681C46370020BC2E002070B501281E46BDF858
S3150000682C10401CD003284FF0200013D1442911D15D
S3150000683C0B4902F079FD00235D1CDBB2A3424FF03D
S3150000684C200005D2F25C074902F06EFD2B46F3E7F9
S3150000685C054900E00549BDE8704002F09FBD70BDDA
S3150000686CA79C0300B49C0300F6C80300B89C030065
S3150000687C2DE9F34103281C46BDF82070099B3FD136
S3150000688C5B6A21491B78214A214D13F0010F08BF81
S3150000689C0A46204903F0020303F0FF08002B14BF3D
S315000068AC0B462B46009320201B493B46E61902F06B
S315000068BC75FDB8F1000F0CD0294622463B46202028
S315000068CC02F040FD2020294602B0BDE8F04102F05E
S315000068DC65BDB44214D22546104915F8022B20206A
S315000068EC02F022FD63780A492A46202002F02AFD8E
S315000068FC20200B4902F052FD637802331C44E8E772
S3150000690C02B0BDE8F08100BFD39C0300CB9C030012
S3150000691CF6C80300DA9C0300DF9C0300FB9C030013
S3150000692CFEC2030007B502F07DFFA8B10DF1070109
S3150000693C002003F06DF89DF80720052A014605D0C6
S3150000694C08490522202002F029FD07E0064B01200C
S3150000695C1870064801F0AAFDFEF7C6F903B05DF8FB
S3150000696C04FB00BF029D03003049002000540020A8
S3150000697C08B524F065F938B1064B07491A8820206A
S3150000698CBDE8084002F00ABD20200449BDE80840D5
S3150000699C02F004BD06540020219D0300339D030024
S315000069AC30B585B0054602F03DFF022811D1012015
S315000069BC694603F0EBF8044630B1002228466946D6
S315000069CC13461CF0D1FF0DE00849202002F0E6FC2E
S315000069DC08E021F0F3FB00220146134628461CF082
S315000069ECEBFF0124204605B030BD00BFEA9B030037
S315000069FC00B59BB001A8FFF7D3FFB0B10DF10201B2
S31500006A0C002003F039F8BDF80210002215F06FFAD9
S31500006A1C074B08491693024601A805F049FA10B926
S31500006A2CFEF762F901E0FEF767F91BB05DF804FBAF
S31500006A3CAD670000649D030030B59BB000200DF1DE
S31500006A4C030102F0E5FF054601A8FFF7A9FF08B30D
S31500006A5C9DF80300104B169380B10021023015F0FF
S31500006A6CCBF9044614F02EFE0D2303709DF803207B
S31500006A7C42702946023001F019FD00E0044601A8D7
S31500006A8C0649224605F014FA10B9FEF72DF901E075
S31500006A9CFEF732F91BB030BD25680000699D030076
S31500006AAC70B586B0064602A9002003F06FF820B92F
S31500006ABC0D49202002F072FC14E0022002F03CFF8B
S31500006ACC0546032002F038FF0446042002F034FF8A
S31500006ADC80B200903146EAB2A3B202A824F05EFD61
S31500006AECFEF702F906B070BD2999030008B501201E
S31500006AFC02F022FF18B1012303FA00F000E002486D
S31500006B0CBDE80840FFF7CCBF00F8FF0708B5012029
S31500006B1C02F012FFBDE80840FFF7C2BF30B585B0E2
S31500006B2C05466946002003F031F820B90B492020B0
S31500006B3C02F034FC10E0022002F0FEFE84B208499A
S31500006B4C2A462346202002F029FC2946224668467E
S31500006B5C23F092FDFEF7C8F805B030BD2999030065
S31500006B6C6E9D030008B5012002F0E6FE18B1012364
S31500006B7C03FA00F000E00248BDE80840FFF7CEBF7C
S31500006B8C00F8FF0708B5012002F0D6FEBDE8084064
S31500006B9CFFF7C4BF10B59EB0012005A964220023DF
S31500006BAC02F0A6FF6428044604D90C4840F2F7719B
S31500006BBCF9F7AEFB002001A902F0E8FF20B908495D
S31500006BCC202002F0EBFB06E001A805A9224606F000
S31500006BDC51F8FEF789F81EB010BD00BF029B0300EA
S31500006BEC2999030010B59EB0012005A96422002343
S31500006BFC02F07EFF6428044604D90C4840F2E47186
S31500006C0CF9F786FB002001A902F0C0FF20B908495C
S31500006C1C202002F0C3FB06E001A805A9224606F0D7
S31500006C2C23F8FEF761F81EB010BD00BF029B0300EF
S31500006C3C2999030010B59EB0012005A964220023F2
S31500006C4C02F056FF6428044604D90C4840F25F71E2
S31500006C5CF9F75EFB002001A902F098FF20B908495C
S31500006C6C202002F09BFB06E001A805A9224605F0B0
S31500006C7CF5FFFEF739F81EB010BD00BF029B0300EE
S31500006C8C299903002DE9F34102F0CCFD002480463E
S31500006C9C2746E3B2434530D260B2694602F05DFF47
S31500006CAC00261A4D354428460821002216F0DEFA35
S31500006CBC88B108222846694601F0F8FB14492020C1
S31500006CCC02F032FB684603F0EDFE2020114902F07B
S31500006CDC65FB01270FE028466946082201F074FC83
S31500006CEC0028E6D00836B6F5807FDAD120200A498E
S31500006CFC024602F053FB0134CBE71FB120200749B3
S31500006D0C02F04CFB02B0BDE8F08100BFBA3800209F
S31500006D1CC59A0300AD9D0300D89A0300BE9D0300DF
S31500006D2C08B50A4B1B78033B012B08D818F032FC2C
S31500006D3C07490246BDE80840202002F02FBB202060
S31500006D4C0449BDE8084002F029BB00BFA647002055
S31500006D5CDE9D0300EA9D03001FB50020694602F084
S31500006D6C15FF18B168461BF0B7FF03E02020034956
S31500006D7C02F014FB05B05DF804FB00BFEA9B0300B0
S31500006D8C70B586B0002002A902F000FF20B91449A4
S31500006D9C202002F003FB21E0022002F0CDFDD8B149
S31500006DAC01248440012002F0C7FD0646032002F0B0
S31500006DBCC3FD0546042002F0BFFD80B20090F1B27F
S31500006DCC02A82246EBB224F049FF10B9FDF78CFF5E
S31500006DDC04E0FDF791FF01E0024CE3E706B070BD5D
S31500006DEC2999030000F8FF072DE9F043002089B02C
S31500006DFC02F0A2FD8146012002F0D0FD8046022061
S31500006E0C02F09AFD0746032002F096FD0DF10701EC
S31500006E1C0646042002F0FCFD9DF807300F2B88BFB8
S31500006E2C0F23054604A94FF0050088BF8DF80730DF
S31500006E3C02F0ACFE68B304A81BF04EFF184B9DF88D
S31500006E4C07401B780BB1174804E002A8042110F088
S31500006E5C4DFA02A81CF0CAF816F094F95FFA89F0FC
S31500006E6C10F006FC4FFA88F016F084FCF8B20021FC
S31500006E7C16F0F8FBB0B216F079FC2146284619F04C
S31500006E8C03FA04A81BF028FF19F03AF804F060F88E
S31500006E9C03E02020044902F081FA09B0BDE8F08332
S31500006EAC4B4800206B530020EA9B0300014B1878DB
S31500006EBC704700BFB438002002460249202002F079
S31500006ECC6DBA00BF039E03007047704708B520B12A
S31500006EDC054840F2B921F9F71BFA044B00221A7047
S31500006EECBDE80840FDF700BF029B0300A838002050
S31500006EFC07B5FDF7A1FFFAF72FF8FAF772FF002294
S31500006F0C01234FF4E131202002F04AF816F06CFD13
S31500006F1C1A4816F0E5FB1A4816F0E8FB03F03AFEA1
S31500006F2C02F07AFC174815F0A3FD1749202002F051
S31500006F3C35FA16F042FC054616F03FFC044616F0F0
S31500006F4C07FC064616F010FC009601900F4920200F
S31500006F5C2A46234602F022FA20200D4902F0E4F9D3
S31500006F6CFAF7B6F816F0C8FB0A4815F0D9FD00205A
S31500006F7C202102F027FA0028F2D0EDE7654D00003B
S31500006F8CD54C0000BC390020109E0300269E030041
S31500006F9C559E030058B0030008B5124814F038FB90
S31500006FAC114804F0D9F9114814F032FB104814F0CA
S31500006FBC3DFB104814F03AFB0F4814F037FB0F4812
S31500006FCC14F034FB0E4814F031FB0E4814F02EFB73
S31500006FDC0D4814F02BFB06F021FABDE8084014F01E
S31500006FEC1DBB00BF5A9E030039B60100689E030004
S31500006FFCBA390020B638002066380020B238002096
S3150000700C44370020B8380020B038002070B515463B
S3150000701C04460E4603F00CFD144902462B4620206E
S3150000702C02F0BCF9042C0BD1032E1ED1104B1B788D
S3150000703C033B012B19D82846BDE8704019F0ACBAB1
S3150000704C032C12D10A4B1B78042B0ED1094B1A6850
S3150000705C12B94FF4FA721A60202007491A6802F026
S3150000706C9DF9BDE87040FFF741BB70BD2B9F030037
S3150000707CA6470020C43A00203C9C0300024618B1E7
S3150000708C2020024902F08AB9704700BF499F0300CD
S3150000709C642303700120704710B504468EB028B1E6
S315000070AC4F492246202002F079F996E0114601A8B4
S315000070BC1A4605F05FFD10B920204A498BE02020C6
S315000070CC494902F06BF9019BD80705D520204749A1
S315000070DC029A082302F062F9019B990705D5202034
S315000070EC4349BDF80C2002F059F9019B5A0705D506
S315000070FC202040499DF80E2002F050F9019B1B07F9
S3150000710C05D520203C49BDF8102002F047F9019B1B
S3150000711CDC0606D5059B39495A1C20201B7802F043
S3150000712C3DF9019B980606D5069B35495A1C20202D
S3150000713C1B7802F033F9019B590606D5079B31499A
S3150000714C5A1C20201B7802F029F9019B1A0606D539
S3150000715C089B2D495A1C20201B7802F01FF9019B15
S3150000716CDB0506D5099B29495A1C20201B7802F001
S3150000717C15F9019B9C0506D50A9B25495A1C20200E
S3150000718C1B7802F00BF9019B580405D520202149E8
S3150000719C9DF82C2002F002F9019B190405D520203C
S315000071AC1D49BDF82E2002F0F9F8019BDA0306D52D
S315000071BC0C9B1A495A1C20201B7802F0EFF8019BF5
S315000071CC9B0306D50D9B16495A1C20201B7802F0F2
S315000071DCE5F81449202002F0E1F80EB010BD00BF0E
S315000071EC629F0300939F0300AF9F0300CD9F030094
S315000071FCE69F030020C5030025960300F79F0300B6
S3150000720C08A003001AA003002AA003003BA0030059
S3150000721C51A0030067A0030079A0030085A003001A
S3150000722C95A00300FEC203000246202012B90349B2
S3150000723C02F0B4B8024902F0B1B800BFA7A003002F
S3150000724CB9A003000246202012B9034902F0A6B8E1
S3150000725C024902F0A3B800BFF3A0030006A1030085
S3150000726C024618B12020024902F098B8704700BFB8
S3150000727C34A1030002460249202002F08FB800BF59
S3150000728C75A103000A46044B0449002808BF0B46A7
S3150000729C2020034902F082B837A4030044A403005B
S315000072AC83A1030070B50646B2B014460D462020E5
S315000072BC002938D01E4902F071F81E49202002F030
S315000072CC33F804F1100003F0AFFC202002F060F854
S315000072DC1949202002F028F8204603F0A5FC2020AE
S315000072EC02F056F81549628C238C202002F056F8D1
S315000072FC304629466A4604F04FFD08B9202012E0B4
S3150000730C19A81099BDF8442001F0D0F8BDF8443006
S3150000731C0B4932AA1344002203F8642C202019AA24
S3150000732C02F03CF802E0074902F038F832B070BDC2
S3150000733CA5A10300BBA10300CCA10300DCA10300A3
S3150000734C18A20300FBA1030002460B46202009B934
S3150000735C024901E002491A4602F020B824A20300B1
S3150000736C44A203002020014902F018B87F9A0300BA
S3150000737C70B5059C2EF0DBFA626A12491288097800
S3150000738C034600248C4216DA0F4D35F81400904251
S3150000739C0FD10E4951F824600D499B1B202001F09A
S315000073ACFDFF002125F814100A48BDE8704015F0C1
S315000073BC6BBB0134E6E720200749BDE8704001F0BD
S315000073CCEDBF00BFE43A0020383C0020283B0020EB
S315000073DCB8BB0300DC3A0020C2BB03002DE9F04128
S315000073EC0027044600EB01083E46444527D22046BA
S315000073FC21F07CFE23780546032B1ED8DFE803F02C
S3150000740C0A0A0202E578073504EBE505043526463B
S3150000741C002712E08FB986B10A49202001F084FFBB
S3150000742CF1780731301DC1F3071103F0DDFB202085
S3150000743C0549F27801F0B2FF01272C46D5E7BDE8E5
S3150000744CF08100BFDCBB0300F5BB0300702808B558
S3150000745C024607D116F0B8F903F0EAFA07490246D4
S3150000746C202002E0202022B10549BDE8084001F0A9
S3150000747C95BF0449BDE8084001F090BFABBF0300BF
S3150000748C05BC03007F9A0300FFF7E0BF022808B58E
S3150000749C05D0702806D0A0B920200A490DE020207E
S315000074AC09490AE016F090F903F0C2FA07490246B8
S315000074BCBDE80840202001F071BFBDE8084001F08E
S315000074CC6DBF08BD7F9A03005ABC030069BC03005C
S315000074DC02460249202001F061BF00BF95BC0300A3
S315000074EC02460249202001F059BF00BFADBC030083
S315000074FC02460249202001F051BF00BFC5BC030063
S3150000750C02460249202001F049BF00BFDFBC030040
S3150000751C08B518B9BDE80840FFF724BF16F054F9B2
S3150000752C03F086FA03490246BDE80840202001F024
S3150000753C35BF00BF60BD030008B518B9BDE80840EB
S3150000754CFFF710BF16F040F903F072FA0349024632
S3150000755CBDE80840202001F021BF00BF60BD03003C
S3150000756C08B518B9BDE80840FFF7FCBE16F02CF9B3
S3150000757C03F05EFA03490246BDE80840202001F0FC
S3150000758C0DBF00BF60BD030008B518B9BDE80840C3
S3150000759CFFF7E8BE16F018F903F04AFA034902465B
S315000075ACBDE80840202001F0F9BE00BF60BD030015
S315000075BC08B518B9BDE80840FFF7D4BE16F004F9B3
S315000075CC03F036FA03490246BDE80840202001F0D4
S315000075DCE5BE00BF60BD030008B9FFF7C3BE20209F
S315000075EC014901F0DBBE00BF5ABC0300C30707B557
S315000075FC16D50D4B0D490E4A10F0020F18BF1A4640
S3150000760C10F0040F0B4B08BF0B4610F0080F0A487E
S3150000761C0A4908BF014600912020094901F0BEFE27
S3150000762C03B05DF804FB00BF11D803007EBD030058
S3150000763C79BD0300FBD80300F6C8030082BD030026
S3150000764C91BD03000B7A1BB92020024901F0A6BE9E
S3150000765C03F0F2BCB4BD03002DE9FF410A9F9DF86F
S3150000766C2C608E4615461C4600283AD12B46202007
S3150000767C2149724601F058FE651C04F1090815F8FB
S3150000768C012F1E49202001F04FFE4545F7D12188D8
S3150000769C1B4B1C4D11F0010F14BF2A461A4611F054
S315000076AC020F218A0091E168019194F9121002915E
S315000076BC4FF02000144918BF2B4601F06FFE002432
S315000076CCB44215DA1149202001F02EFE07EB041006
S315000076DC082103F089FA20200D4901F05FFE0134E0
S315000076ECEEE70C49202004B0BDE8F04101F056BE8F
S315000076FC04B0BDE8F08100BFC9BD0300ABF70300C1
S3150000770C1086030075A40300D3BD030002BE03005C
S3150000771CF6C803000BBE03002E2810B50B460CD87A
S3150000772C064A074C52F820200649002A08BF224672
S3150000773C2020BDE8104001F031BE10BDFCBA03009C
S3150000774C99D7030021BE030002460249202001F00E
S3150000775C25BE00BF50BE0300024608B9FFF702BEA5
S3150000776C2020014901F01ABEF9BC0300F7B59DF8BB
S3150000777C204007460E461D468DE8140006493A463B
S3150000778C3346202001F00AFE2846291903B0BDE82D
S3150000779CF04003F0C5BC00BF61BE030010B500206D
S315000077AC02F0CAF80446012002F0C6F8C1B2E0B2F3
S315000077BCBDE8104020F094BC08B5024610232020EA
S315000077CC034901F0BFFD2020BDE8084001F0E0BDF3
S315000077DC9EBE03007047704730B5244C99B02046C6
S315000077EC0021182200F0E9FE0020214602F0CEF915
S315000077FC10B920201E492CE023783BB9684616F0B8
S3150000780CFBF8204604A9082200F050FE012002F0E5
S3150000781C93F8E082022002F08FF880B2B0F5967FE2
S3150000782C124D208206D913494FF49672202001F08E
S3150000783CB5FD19E0032002F07FF8EA8A68825AB98E
S3150000784C0D4B197819B11A7020200C4901E00C491E
S3150000785C202001F0A3FD07E00A49202001F09EFD3F
S3150000786C0548002115F010F919B030BD063B002073
S3150000787CA9BE0300BCBE0300FC3A0020DBBE03001D
S3150000788CFDBE030015BF030030B5194BDA8ACFB025
S3150000789C1C4662B1998A914209D100229A82DA82F7
S315000078AC144B15491A70202001F078FD1DE003AD2C
S315000078BC4FF496722846002100F07FFE238A0022A0
S315000078CC91B2994202D2AA540132F9E741F690716B
S315000078DC00930A462B46064825F01DFFA38A054849
S315000078EC618A0133A38215F0CFF84FB030BD00BFCB
S315000078FC063B0020FC3A002029BF030010B50020EF
S3150000790C02F01AF8074A084C0849031C18BF012351
S3150000791C1370074A2020002B18BF2246BDE81040E2
S3150000792C01F03CBDBD2E0020A8A603003BBF030002
S3150000793C599C03001FB5002001F0FEFF0446694662
S3150000794C0020A4B216F0CCF82046694625F0EDFED0
S3150000795C0246202012B90449224600E0034901F0F0
S3150000796C1DFD04B010BD00BF52BF030067BF03006E
S3150000797C2DE9F0410024A0B020468DF80F4001F00F
S3150000798CDBFF1FFA80F8012001F0D6FF04A985B2AF
S3150000799C022002F0FBF810B92020324950E0324B9D
S315000079AC1A783AB1314A324994822020D4821C701A
S315000079BC01F0F4FC9DF810303BB908A816F01CF841
S315000079CC04A80CA9082200F071FD0DF10F0103208B
S315000079DC02F01EF8044601F025FF042809D90420FC
S315000079EC01F0AAFF9DF80F2083B29A4238BF8DF89A
S315000079FC0F0045F25E639D429DF80F600ED1032E7B
S31500007A0C0CD92DF094FF0746214600203A4615F076
S31500007A1CF9FB202017493A4601F0C0FC2A4600968D
S31500007A2C04A84146234625F076FE0228024605D0D8
S31500007A3C702808D0202072B90F4901E00F49202088
S31500007A4C01F0ACFC0AE015F0BFFE02F0F1FF0C49A8
S31500007A5C0246202000E00B4901F0A0FC20B0BDE856
S31500007A6CF08100BFA9BE0300FC3A0020063B0020B3
S31500007A7CDBBE03007BBF0300B19B030087BF030083
S31500007A8CA0BF0300CCBF03002DE9F047984645F292
S31500007A9C5E639A4281460F461446089EBDF82450F2
S31500007AAC0FD1032D18D92DF042FF31468246002006
S31500007ABC15F0C8FB124902465346202001F06EFC15
S31500007ACC0AE040F223239A4206D108462A4631465A
S31500007ADCBDE8F04705F0E8BB0A4B1B786BB10A49C9
S31500007AEC202001F021FC0896099548463946224685
S31500007AFC4346BDE8F04703F0D9B8BDE8F08700BFB0
S31500007B0CE3BF0300BD2E0020FBBF030010B5BDF87C
S31500007B1C0C400394BDE81040FFF7B6BF08B501F062
S31500007B2CDFFF0378A3F1700253425341224A00202F
S31500007B3C137001F001FF214B21491880012002F03E
S31500007B4C25F828B920201F49BDE8084001F026BCBD
S31500007B5C022001F0F1FE1C4B80B2B0F5FA7F1880C2
S31500007B6C04D9202019494FF4FA720BE0032001F0D6
S31500007B7CE3FE174BC0B218700138032806D9154915
S31500007B8C20200422BDE8084001F008BC124B134823
S31500007B9C01221A800021082200F00FFD2DF0C7FEED
S31500007BAC0F4B18600F4B10480021198014F06CFF16
S31500007BBCBDE80840FFF7D6BBBE2E0020243B0020B4
S31500007BCCCA3A0020659B0300F83A0020FFBF030069
S31500007BDCE43A00201BC00300F63A0020383C002093
S31500007BEC203B0020C83A0020DC3A00202DE9F04F5B
S31500007BFC524B534E0024ADF5117D1C702DF097FEA3
S31500007C0C3378A34241F28835804608BF4FF47A7523
S31500007C1C21464C4B1B789C4272DADFF8649139F89A
S31500007C2C14204FEA440A002A48D1474F474BB7F86D
S31500007C3C00E01B88734561D33178454BE9B10DF1F2
S31500007C4C180B584611463422059300F0B6FC059BDA
S31500007C5CCBF824701B883F483F4A0221ABF828100A
S31500007C6C00933E4B0193CDF808B013AB04F06CFABD
S31500007C7CB0FA80FB4FEA5B1B08E01B883548009185
S31500007C8C72464BF2FF0125F0A6FD8346BBF1000FB1
S31500007C9C06D03B8829F80A30314B43F8248009E09A
S31500007CAC3A883049202001F079FB2F4A138801339A
S31500007CBC13805D463B8801333B801EE0284B53F80E
S31500007CCC2430C3EB0800337841F28831002B14BF03
S31500007CDC0B464FF47A7398420BD92020234901F0B6
S31500007CEC5DFB214A138800250133138029F80A50BD
S31500007CFC03E01B1A9D4228BF1D460121013488E76B
S31500007D0C21B10E48294614F0BFFE13E00F4B35780F
S31500007D1C1A88174B174C1968134BC1EB08010091C5
S31500007D2C1B880193144B15492020002D08BF2346B0
S31500007D3C01F034FB0DF5117DBDE8F08FDC3A002027
S31500007D4CBE2E0020E43A0020F63A0020243B002008
S31500007D5CF83A0020CA3A00204AC003007D7300009E
S31500007D6C283B002051C00300C83A00205FC0030026
S31500007D7C203B00200EA5030045C003006DC0030088
S31500007D8C383C0020F8B5274A137804460133C06BFB
S31500007D9C137015F029FA0646E06B023015F024FA3A
S31500007DAC94F84630012B054605D120201E49BDE826
S31500007DBCF84001F0F3BA4BF2FF02964208D02020AD
S31500007DCC1A4901F0B1FA2046BDE8F84002F048BF66
S31500007DDC812B26D12DF0ABFD154A127803460024D3
S31500007DEC944217DA134E36F81410A94210D1124ADF
S31500007DFC124952F8247020202A46DB1B01F0CEFAD9
S31500007E0C002126F814100E48BDE8F84014F03CBECC
S31500007E1C0134E5E72A4620200A49BDE8F84001F07E
S31500007E2CBDBAF8BD043B00208FC00300A9C00300F7
S31500007E3CE43A0020383C0020283B0020B8BB030065
S31500007E4CDC3A0020C2BB0300024B00221A70FFF77B
S31500007E5C89BA00BF043B0020024B03491A78202044
S31500007E6C01F09CBA043B0020B3C00300024608B9DB
S31500007E7CFFF778BA2020014901F090BAF9BC03004B
S31500007E8C08B518B9BDE80840FFF76CBA15F09CFCAC
S31500007E9C02F0CEFD03490246BDE80840202001F061
S31500007EAC7DBA00BF60BD030008B518B9BDE808402F
S31500007EBCFFF758BA15F088FC02F0BAFD03490246E2
S31500007ECCBDE80840202001F069BA00BF60BD030080
S31500007EDC024608B9FFF746BA2020014901F05EBAFE
S31500007EECF9BC0300FFF73EBAFFF73CBA30B5074BB7
S31500007EFC074C0849C0F309050246002D18BF234656
S31500007F0C2020BDE8304001F049BA00BF3D97030080
S31500007F1C3A970300D7C00300F8B50D4611F00701D8
S31500007F2C18BF0121064601EBD50420200C49174643
S31500007F3C01F0FAF93046C4F3470102F055FE094B3D
S31500007F4C094A0A492020002F08BF1A4601F026FAD2
S31500007F5C2FB130462946BDE8F8402EF089BFF8BD52
S31500007F6C0CC10300F7C00300FBBB030006C10300F2
S31500007F7CF8B50D4611F0070118BF0121064601EBB5
S31500007F8CD50420201449174601F0CEF93046C4F327
S31500007F9C470102F029FE114B114A12492020002FED
S31500007FAC08BF1A4601F0FAF9AFB10F4B1B7863B153
S31500007FBC0E490F4A1023202001F0C4F90D49202048
S31500007FCC01F0ECF90A48802101E030462946BDE86B
S31500007FDCF8401AF0CDBDF8BD22C10300F7C003006E
S31500007FECFBBB030006C10300263B002031C1030086
S31500007FFCE53A0020F6C8030018B90348FF2121F022
S3150000800C47B8FFF7EBB900BF383B0020034618B959
S3150000801C08461146FFF7E2B9202002491A4601F03C
S3150000802CBDB900BF4BC10300FF2B70B506460D460C
S3150000803C144621D013F00A0F06D113F0140F0F4B70
S3150000804C0F4A18BF1A4600E00E4A0F49202001F0CD
S3150000805C6BF9304602F0E8FD3C2C4FF0200004D8BA
S3150000806C0A49BDE8704001F099B922462B460849E9
S3150000807CBDE8704001F092B970BD00BF7CC1030031
S3150000808CF6C8030074C1030085C1030095C1030043
S3150000809CABC1030010B508210022044615F0E6F822
S315000080AC28B120200849BDE8104001F077B90749EE
S315000080BC202001F039F9204602F0B6FD2020BDE85B
S315000080CC104001F065B900BFE4C1030057FC030082
S315000080DC024618B12020024901F060B9704700BF72
S315000080ECFAC1030038B50D461346044658B12A4664
S315000080FC0549202001F026F9224620200349BDE837
S3150000810C384001F04BB938BD31C2030040D40300EE
S3150000811C2DE9F341099D9DF820600A9F8E469046F5
S3150000812C1C4620202BB9104902B0BDE8F04101F0E5
S3150000813C35B90E4B0E4A0F49BEF1000F08BF1A4651
S3150000814C01F0F2F84046610802F04EFD00970A492C
S3150000815C32462B46202001F0E7F8202002B0BDE87D
S3150000816CF04101F015B900BF4FC203003D97030063
S3150000817C3A97030068C203007CC2030010B504469C
S3150000818C13B920200C4913E013F00A0F06D113F093
S3150000819C140F0A4B0A4A18BF1A4600E0094A0A4944
S315000081AC202001F0C1F8204602F03EFD07492020B0
S315000081BCBDE8104001F0F2B8BAC20300B4C2030025
S315000081CCA7C20300AFC20300D4C20300DDC2030082
S315000081DC024608B9FFF7C6B82020014901F0DEB8FF
S315000081ECF9BC03007FB505460E4608460A2211491E
S315000081FC099C2FF0F9FD80B9284603F013FD0E49B2
S3150000820C0246202001F090F804F1100002F00CFD5B
S3150000821C20200A49324601F0C1F8022D08D100226D
S3150000822C00920192029220464421134604F0B0F9C2
S3150000823C04B070BDBAC80300E1C20300F3C2030068
S3150000824CF8B507460C461646202017493A461D46F1
S3150000825C01F06AF804BBAC42E3B214D063B15B071D
S3150000826C0AD11249202001F099F82020104901F07A
S3150000827C5BF8202000F0E2FE325D0E49202001F072
S3150000828C53F80134E7E7202000F0D8FE20200749F8
S3150000829CBDE8F84001F082B8224620200649BDE828
S315000082ACF84001F07BB800BF96C30300F6C8030084
S315000082BCB0C30300B49C0300D6C3030010B502463A
S315000082CC0C462020074901F02FF8202024B9064936
S315000082DCBDE8104001F062B822460449BDE81040E2
S315000082EC01F05CB8E6C30300F2C30300D6C3030077
S315000082FC02460B46202009B9024901E002491A46FA
S3150000830C01F04CB8FFC303000CC403000246202046
S3150000831C12B9034901F042B8024901F03FB800BF57
S3150000832C21C4030039C403000246202012B90349B4
S3150000833C01F034B8024901F031B800BF4EC4030055
S3150000834C6EC40300044A054B0549002818BF1A469B
S3150000835C202001F023B800BF93C403008BC4030094
S3150000836C9CC403000246202012B9034901F016B83A
S3150000837C024901F013B800BFA4C40300BAC4030039
S3150000838C02460249202001F009B800BFCDC4030003
S3150000839C0246202012B9034901F000B8024900F048
S315000083ACFDBF00BFDFC40300FDC4030003460A463D
S315000083BC20200BB9024901E002491A4600F0EEBF33
S315000083CC18C503002BC503000246202012B9034929
S315000083DC00F0E4BF024900F0E1BF00BF47C503004F
S315000083EC66C5030070B506460C4620200E49154698
S315000083FC00F09AFF86B904EB4505AC424FF020001D
S3150000840C05D00A4934F8022B00F08EFFF5E708492F
S3150000841CBDE8704000F0C2BF324620200549BDE8D9
S3150000842C704000F0BBBF00BF82C5030092C50300BD
S3150000843CF6C80300D6C303000B0A43EA012189B22E
S3150000844C4840C0F303114140080380B24840C3B210
S3150000845C80EA43107047000082B2064B0AB94BF60D
S3150000846CEF621A80000C044B0ABF4FF6CE2218801E
S3150000847C1A807047C02E0020C22E0020094B188887
S3150000848C020448BF80F0620042001A80064A138834
S3150000849C190444BF83F4805383F00B0359001180F5
S315000084AC58407047C02E0020C22E00208842F0B5DE
S315000084BC03D804460B46154629E0531E97086FF061
S315000084CC03051844194407FB055504460E46054496
S315000084DC043CAC42A6F1040608D033792371F37838
S315000084ECE370B378A37073786370F1E76FF00303EE
S315000084FC7B43194402F00302013318448A1A914251
S3150000850C04D011F8013900F8013DF8E7F0BD032D50
S3150000851C04F1040403F1040312D913F8046C04F8EF
S3150000852C046C13F8036C04F8036C13F8026C04F86F
S3150000853C026C043D13F8016C04F8016CADB2E6E76D
S3150000854C93089B00194402F00302013B18440A44A9
S3150000855C914204D011F8013B00F8013FF8E7F0BD59
S3150000856C70B50B4604461546032D04F1040403F1BD
S3150000857C040312D913F8046C04F8046C13F8036C96
S3150000858C04F8036C13F8026C04F8026C043D13F83F
S3150000859C016C04F8016CADB2E6E793089B00194434
S315000085AC02F00302013B18440A44914204D011F82C
S315000085BC013B00F8013FF8E770BD22B1013A00F823
S315000085CC011B92B2F9E7704710B5013801395AB15F
S315000085DC10F8013F11F8014FA34202D01A1B90B2BA
S315000085EC03E0013A92B2F2E7104600B210BD0EF06B
S315000085FC69BF000038B5A0F1430305460A2B30D8F5
S3150000860CDFE803F0060A0A12122F2F2F2F2F350040
S3150000861CBDE838402DF0E8BF2DF0B0FF20B12DF0AD
S3150000862CE3FF0028FBD138BD114C2078F8B90123A3
S3150000863C443D2370F8F7A0FB032D0BD8DFE805F0BB
S3150000864C0E0E050240F6010001E040F602002DF088
S3150000865CCFF803E007487521F7F75AFE002323707D
S3150000866C38BD04488721BDE83840F7F751BE38BD00
S3150000867C403C0020C4C80300704770470020704778
S3150000868C7047002070477047704770477047012845
S3150000869C03D0202801D00020704701207047012804
S315000086AC03D0202801D0002070470120704700001D
S315000086BC38B5104DAA6982421AD169688A8892B275
S315000086CC93428ABF8C889CB2A4B2F9F78EFB6A6877
S315000086DC6D895388234493FBF5F105FB11335380C5
S315000086EC93881C1BA4B29480BDE83840F9F783BB71
S315000086FC38BD00BF54430020C289438A01685343E6
S3150000870C10B508330446194480690A4BFBF7AAFDD9
S3150000871CA069FAF79FFF012803D9A0690021FBF78E
S3150000872C4DFD638AA18A013393FBF1F201FB1233EF
S3150000873C638210BD45870000264A91422DE9F0411F
S3150000874C45D0254CA569854241D12668B4F80880E8
S3150000875C9FB2F9F74AFBF1888F420ED93388F7801E
S3150000876C5B1A3B4493FBF8F208FB1233B288338056
S3150000877C92B2521A3A4492B2B280F9F73CFB236891
S3150000878C0022DA802846FAF765FF02281FD82168EE
S3150000879C638A8888E28980B2A8B112FB03F3488801
S315000087AC09889BB21A44904201DA994205D8814253
S315000087BC09D2824201DC8B4205D228460121BDE852
S315000087CCF041FBF7FBBC0448FFF796FFDAE7BDE880
S315000087DCF08100BF097000F054430020012808B551
S315000087EC06D0202804D003484FF4BD71F7F790FD4E
S315000087FC014808BDEDC80300544300207FB5456809
S3150000880C6B880646083302AA1D44806903AB01A98E
S3150000881CFAF754FF7368039A9C88A4B2A41A029AB6
S3150000882CA41A5A881B889342E4B20ED27389B06993
S3150000883C9A1A29460A4BFBF7D5FD70B97568B27AB8
S3150000884CAB789B1A1C44E4B20835B069044B294634
S3150000885C2246FBF7C7FD00B9707304B070BD00BFAC
S3150000886CBD86000070B504460E461546FFF717FF89
S3150000887CB0B12046FFF7B2FF037B044613B10123C8
S3150000888C437370BD437B1BB1BDE87040FFF7B6BFA9
S3150000889CA069044B31462A46FBF7A4FD0028F7D104
S315000088AC70BD00BFBD8600002DE9F74F81468A4694
S315000088BC1746FFF7ECFE00284DD04846FFF78EFF13
S315000088CC44682388083305461C440AEB070BD0463C
S315000088DC0026D84536D069686A898B889BB2934244
S315000088EC04DB2B7B002BF8D0222037E0F9F77DFA3E
S315000088FC6A6818F8011B1388134419726968B5F86D
S3150000890C0AE00A88013292FBFEF30EFB13238A88D7
S3150000891C01329BB292B20B808A800193F9F76BFA03
S3150000892C019B002BD5D1CAEB0803DBB29A1B21465F
S3150000893C4846D2B20193FFF795FF6C68019B083449
S3150000894C1E46C6E7B74208D9BA1B4846214692B21C
S3150000895CFFF788FF01E0012000E0002003B0BDE82E
S3150000896CF08FF8B504460E461546FFF790FE70B12B
S3150000897C2046FFF733FF07462046FFF790FE30B13F
S3150000898CB86931462A46BDE8F840FAF7C5BE01205B
S3150000899CF8BD000038B505460C46FFF71FFF012D44
S315000089AC01D0202D3DD183691E4A93F83200042153
S315000089BCD8B9186881644FF48050C2F880011968E0
S315000089CC3CB1CC6C44F00404CC64106018680521EE
S315000089DC07E0CD6C25F00405CD64C2F8800018685C
S315000089EC2146BDE83840FAF767B8186841634FF47A
S315000089FC8050C2F8800119683CB18C6B44F00404B9
S31500008A0C8C6310601868052107E08D6B25F0040552
S31500008A1C8D63C2F8800018682146BDE83840F9F726
S31500008A2C86BE38BD00E100E02DE9FF410446FFF7A4
S31500008A3C2EFE00284FD02046FFF731FE00284AD0E4
S31500008A4C2046FFF7CBFE0446F9F7CFF901A902AA97
S31500008A5C03AB0646A069FAF701FE2568BDF8087057
S31500008A6CB4F80880F9F7C1F9E9888F420ED92B883A
S31500008A7CEF805B1A3B4493FBF8F208FB1233AA888F
S31500008A8C2B807B1A13FA82F39BB2AB80F9F7B3F9FE
S31500008A9C3046F9F7B0F9A069FAF73CFE01281AD16D
S31500008AAC23689B889AB223899B1A228A934212DBEB
S31500008ABCA06990F83130022B05D0A36993F83130B8
S31500008ACC012B08D103E0FAF7C5FD0128F5D9A069F9
S31500008ADC0021FBF773FB04B0BDE8F08138B50D46F9
S31500008AECFFF77CFE112D04460AD180690021FBF7A5
S31500008AFC5FFC002323732046BDE83840FFF77EBE9B
S31500008B0C132D06D180690121FBF752FC0123237337
S31500008B1C38BD0268138813441D72026800891388D5
S31500008B2C013393FBF0F100FB113313809388A0699A
S31500008B3C01339BB29380FAF7EDFD23689A8823895B
S31500008B4C9B1A9BB228B9E2899A420DD3A0690121DE
S31500008B5C06E0012808D1228A9A4205D8A06900218C
S31500008B6CBDE83840FBF72ABB38BD0000064808B5FF
S31500008B7C03691B0607D5FAF711F8BDE8084001464C
S31500008B8C0120FFF7ABBF08BD00000140F8B50E464B
S31500008B9C1546FFF723FE036899880389EAB289B262
S31500008BAC9B1A994204461CDA3544AE4217D0F9F7A3
S31500008BBC1CF9226816F8011B1388134419722268D3
S31500008BCC27891388013393FBF7F107FB11331380C5
S31500008BDC938801339BB29380F9F70DF9E5E70020F2
S31500008BECF8BD0120F8BDF8B506460F46FFF74FFD58
S31500008BFC00284AD03046FFF7F1FD04463046FFF711
S31500008C0C13FF23689B889BB2002B40D0F9F7EDF835
S31500008C1C22685388134405461B7A3B7022682089C8
S31500008C2C5388013393FBF0F100FB11335380938887
S31500008C3C013B9BB293803046FFF731FD20B92846A5
S31500008C4CF9F7D9F80020F8BDA36993F83130012B58
S31500008C5CF5D0A069FAF7FEFC0128F0D8E289638A00
S31500008C6C216813FB02F3488809889BB21A44904288
S31500008C7C01DA9942E3D8814203D28242DFDC8B428D
S31500008C8CDDD32046FFF738FDE3E70120F8BD2620AB
S31500008C9CF8BD2DE9F84F80468946FFF7F8FC002809
S31500008CAC52D04046FFF79AFD4468238808330546A0
S31500008CBC1C44CB464FF0000A5FFA89F79BF800601C
S31500008CCCC7EB0B01CBB2002E34D069686A898B884E
S31500008CDC9BB2934205DB2B7B002BF8D02220BDE800
S31500008CECF88FF9F782F86A681BF8011B138813448E
S31500008CFCC7EB0B0719726A686E891388013393FBED
S31500008D0CF6F106FB11331380938801339BB29380E3
S31500008D1CF9F771F86B681B88FFB2002BCCD1CAEB44
S31500008D2C070221464046D2B2FFF79CFD6C68BA4654
S31500008D3C0834C1E753450AD9CAEB0302404621461B
S31500008D4C92B2FFF78FFD02E00120BDE8F88F3046A6
S31500008D5CBDE8F88F70B506460D461446FFF797FC2E
S31500008D6C48B131462A462346044800F0BDF9B0FA0C
S31500008D7C80F0400970BD012070BD00BFB5880000B1
S31500008D8C38B50546FFF783FCF0B12846FFF726FDFC
S31500008D9C04462846FFF783FC48B9002038BD938863
S31500008DAC9BB2002BFBD1A069FAF784FC08B1626870
S31500008DBCF5E7A069FAF799FB8206F8D5A069FAF7E8
S31500008DCC94FB8304F3D5E8E7012038BD70B506465D
S31500008DDCFFF704FD044605683046FFF760FC78B1E2
S31500008DECA06990F83130012B0AD00221FAF7A4FBC6
S31500008DFC002320466382FFF77FFC2046FFF77CFCAE
S31500008E0CF8F7F3FF0023AB802B806B80EB80BDE87B
S31500008E1C7040F8F7F0BF10B50446FFF738FC08B9F8
S31500008E2C012010BD2046FFF7D9FC0028F8D00068B9
S31500008E3CB0FA80F0400910BD38B50446FFF727FCA0
S31500008E4C08B32046FFF7E7FFF8B92046FFF7BEFF49
S31500008E5C2046FFF7C3FC05462046FFF720FC60B111
S31500008E6CA869FBF7B9F9014688B9AB6993F83130B3
S31500008E7C012B02D12046FFF78DFD284600211C222E
S31500008E8C2EF05CFD01E0012038BD002038BD38BD58
S31500008E9CF8B506460F46FFF7FAFB002847D03046D2
S31500008EACFFF7B9FF10B93046FFF7C6FF3046FFF79C
S31500008EBC95FC05463046FFF791FC012E01D0202E7D
S31500008ECC35D1324B0360324B436040230381802300
S31500008EDC43813046FFF7E3FB002855D0012E03D023
S31500008EEC202E01D0002300E02A4BAB61012E01D0CD
S31500008EFC202E1CD1284BBB61284BFB61F98CBB8CFB
S31500008F0CEB819942298239D3A86990F83120012A3C
S31500008F1C0FD02C89B4FBF3F203FB124292B26ABB5C
S31500008F2CB1FBF3F203FB12139BB213B126E0012043
S31500008F3CF8BD3946FAF7EAFC0446E8B9AB690222F1
S31500008F4C197F187E0123F9F7DFFA397C012907D13D
S31500008F5C3046FFF71FFDA8692146FBF72FF90BE0FA
S31500008F6C2B89EA896C82B3FBF2F32846AB82FFF7B6
S31500008F7CC3FB2846FFF7C0FB2046F8BD2846002158
S31500008F8C1C222EF0DBFC0220F8BD00BF8442002020
S31500008F9CCC42002050420020082F0020882F0020B1
S31500008FAC30B501288BB001D0202837D11D4C009448
S31500008FBC00248DF808408DF809408DF80E408DF888
S31500008FCC0F408DF810408DF811408DF812408DF839
S31500008FDC13408DF81440069407948DF820408DF8B4
S31500008FEC21401024ADF82440ADF82640441E4FF421
S31500008FFC8055022CADF80A5001D920280ED1022B2F
S3150000900C019108BF4FF440536946ADF80C2008BFD8
S3150000901CADF80A30FFF73CFFC0B200E001200BB000
S3150000902C30BD00BF0000014008B5FFF7DCFDC0B243
S3150000903C08BD08B5FFF72DFEC0B208BD08B5FFF791
S3150000904C9FFEC0B208BD00000EB403B503AB0146CB
S3150000905C53F8042B0448019300F046F8002002B0A4
S3150000906C5DF804EB03B070476F890000104430B50F
S3150000907C044662B101F00F030A2B34BF30253725A5
S3150000908C2B44013A090904F8013DD2B2F1E730BD8F
S3150000909CF0B559B1002806DA2D23B0F1004F137044
S315000090AC03D0404201E0002100E0012100231F46CD
S315000090BC0C4C54F823600025B042ECB205F10105C6
S315000090CC01D3801BF8E704B927B14D1C3034545436
S315000090DC0127E9B20133092BEAD130305054481C30
S315000090ECC0B2F0BDF8C803002DE9F04F95B04FF0B3
S315000090FC000A02AC00908946174698465546264605
S3150000910C3A78002A00F00181252A05D0BAF1000F21
S3150000911C06D122700134E6E0BAF1000F00D1013716
S3150000912C3A78632A6FD01AD8392A0AD8302A80F0AE
S3150000913CAF80002A00F0E980252A40F0CF8022700B
S3150000914C66E0582A00F09980622A40F0C780D8F869
S3150000915C00300193D8F804A04FF0000B32E0702ACF
S3150000916C58D00AD8642A05D108F1040AD8F80000A8
S3150000917C01217DE06C2A6ED0B0E0752A05D108F18C
S3150000918C040AD8F80000002172E0782A75D0732AF8
S3150000919C40F0A4803EE0019B2046022213F80B10FF
S315000091ACFFF764FF12AA904204460ED20AF1FF3270
S315000091BC93453EBF20222270013412AA944212D249
S315000091CC0BF1010BD345E6D11AE0841BE4B24846F9
S315000091DC31462246009B984708B10020A1E0254461
S315000091ECEDB23446E2E7A41BE4B2484631462246C9
S315000091FC009B98470028F0D12544EDB23446DFE7B2
S3150000920C08F108086AE0D8F80020227008F1040872
S3150000921C013463E0A41BE4B2484631462246009B67
S3150000922CD8F800A008F1040B98470028D5D12C4497
S3150000923CE4B2C5B201301AF80530002BF9D1484614
S3150000924C51462A46009B98470028C6D12544EDB2C4
S3150000925CD846824656E07B78D8F80000752B08F184
S3150000926C040A14BF0121002101D0642B00D101375F
S3150000927C2246FFF70DFF044408E0204698F800103C
S3150000928C0222FFF7F3FE08F1040A0446D04625E055
S3150000929C797801F0DF01582923D1322A07F1010A26
S315000092AC0AD12046B8F800100422FFF7DFFE08F1B9
S315000092BC04070446B84610E0342A12D1D8F80070D8
S315000092CC2046390C0422FFF7D1FEB9B20422FFF76F
S315000092DCCDFE08F1040B0446D84657464FF0000A5B
S315000092EC01E04FF0010A12AA94420CD3A41BE4B27B
S315000092FC484631462246009B984700287FF46DAFBE
S3150000930C2544EDB234460137FAE6A41BE4B24846CE
S3150000931C31462246009B984700287FF45EAF2C44CA
S3150000932CE0B215B0BDE8F08F0EB403B503AA52F83F
S3150000933C041B0192FFF70EFDC0B202B05DF804EB00
S3150000934C03B070472DE9F843804691461F46FFF758
S3150000935C70FE054698B90446BC4210D0DFF82CE0E6
S3150000936C084B19F8042008497E1EB442B8BF734650
S3150000937C4046FFF7D9FF01340028EDD005462846B4
S3150000938CBDE8F883F6C803001CC9030058FC0300AB
S3150000939C0149FFF7C9BF00BF59CB03000EB433B563
S315000093AC05AA054652F8041B0192FFF7D3FC0446A6
S315000093BC2846FFF7EDFFE0B202B0BDE8304003B03F
S315000093CC704700002DE9F04F814697B0884600277C
S315000093DCB9F1000F0CD15FFA88F00DF11301FFF70C
S315000093EC23FE88B1262800F0E2810122B14BDBE195
S315000093FCB8F1000F00F0DB8119F8013B8DF8133042
S3150000940C08F1FF381FFA88F8AA4C9DF8130094F857
S3150000941C553184F855010D2BA24601D10A28D7D017
S3150000942C0D2804D0A0F10A077D427D4100E00125FC
S3150000943CA0F120014B424B41A0F122062178724249
S3150000944C2F4672410429C3D8DFE811F0050012003B
S3150000945C190026007001002D59D1002BB7D10AB185
S3150000946C022303E07B280CBF03230123237094E122
S3150000947C002D40F08881002B40F085818DE11AB1DA
S3150000948C00238DF8133088E1002D00F0868105232A
S3150000949C84F85231012746E194F853B1854EBBF15D
S315000094ACFF0B18BF4FF0010B7D2804D1BBF1000F49
S315000094BC00F0698118E0019313F090FF0F28019BCF
S315000094CC0FD8BBF1000F09D096F8533100EB0310FF
S315000094DCFF238DF8130086F853315EE186F85301AD
S315000094EC76E7002B7FF474AF052386F852311AE128
S315000094FC0133DBB282F84E3102EB4303B2F8501162
S3150000950CA3F82E1100231370002D3FF460AF6A4BA5
S3150000951C059394F84E31002B00F00581002670B2AD
S3150000952C059C00F089F98246304600F08FF94FF021
S3150000953C000B02905D46DC462268002A54D0137854
S3150000954CB3B90F2DA36809D95C48CDF80CC0F82126
S3150000955C0193F6F7DDFEDDF80CC0019B16AA02EBB3
S3150000956C85020C34013542F8404CEDB21C462EE017
S3150000957C531E01935046019A12F8013F0192029A2A
S3150000958CB3FA83F1CAEB000E96454FEA511101D19D
S3150000959C09B12FE021B1BCF1000F15D1A44615E09D
S315000095AC10F8011BA1F1410EBEF1190F98BF203125
S315000095BCA3F1410E98BFC9B2BEF1190F9CBF20335F
S315000095CCDBB29942D7D001E04FF0010B0C34236883
S315000095DC002BB1D1002DAFD0013DEDB216AB03EB94
S315000095EC850353F8404CA7E7BBF1000F0CBF604650
S315000095FC002000E0204605902E4C08B9022312E00C
S3150000960C94F85431C4F858010136013305A9F6B261
S3150000961C84F8543100F0BCFA40B194F84E31B342A0
S3150000962C3FF67DAF032384F8523176E0059B9B68A9
S3150000963C1B783F2B71D0834605465FFA8BF2931944
S3150000964C94F84E011B49DBB29842059B5ED99B6888
S3150000965C019213F805A00291104600F013F9BAF125
S3150000966C730F019A0AD8BAF1710F0BD20299BAF19B
S3150000967C000F35D0BAF1620F2CD035E0AAF1750384
S3150000968C022B31D8BAF1750F0DD0BAF1760F0DD079
S3150000969CBAF1730F14D0BAF1720F47F6FF7A18BFEE
S315000096AC4FF0FF3A0EE04FF0FF0A0BE04FF6FF7A51
S315000096BC08E000BF704C002088B0030021C90300ED
S315000096CC4FF07F0A1046012100F0EAF850450ED9FA
S315000096DC04230AE022280AD07B2808D0052300E0C0
S315000096EC032381F8523102E0072384F85231059B9B
S315000096FC9B682B440BF1010B5B782A2B94F85231A7
S3150000970C1CBF0135EDB2002B97D006E09B685A5D65
S3150000971C1AB11D446B782A2B84D194F8523113B9A3
S3150000972C059B5B689847244B04221A70002F3FF464
S3150000973C4FAE214C94F8520118B1D4F8581100F0E0
S3150000974CB5FA00F053F89DF8133084F855313FE61E
S3150000975C1978012909D19DF81330A3F14100192874
S3150000976C9CBF2033DBB28DF8133092449DF8133036
S3150000977C8AF8013001320229A4F850217FF428AE70
S3150000978C002B7FF425AE94F84E310B4A0F2B7FF449
S3150000979CAFAE032382F85231C5E7B4F85021064B1D
S315000097ACB2F5967FD4D1062283F85221BBE7384610
S315000097BC17B0BDE8F08F00BF704C0020FF220023CD
S315000097CC80F853210A220370A0F85031A0F82E31EC
S315000097DC80F84E3180F8523180F85431C0F8583147
S315000097EC80F8562180F8553170470000094B00224D
S315000097FCFF211A70A3F85021A3F82E2183F84E21CD
S3150000980C83F8522183F8531183F85421C3F8582155
S3150000981C704700BF704C00200148FFF7CFBF00BF58
S3150000982C704C0020034A92F84E3192F85401181AE3
S3150000983CC0B27047704C0020034B03EB4000B0F8ED
S3150000984C2E01184401307047704C0020054B03EB79
S3150000985C4002134692F8302193F82E01101AC0B22A
S3150000986C704700BF704C0020054B03EB40021346BB
S3150000987CB2F83021B3F82E01101A80B2704700BF2F
S3150000988C704C0020054A92F85431184440B202EB51
S3150000989C4000B0F82E31134458787047704C0020B5
S315000098AC2DE9F047224D044695F854012044C0B2E8
S315000098BC43B205EB43030E46B3F82E71FFF7C6FF12
S315000098CC8146FFF7AFFF2F44844207F1010795F855
S315000098DC568103D31748CB21F6F71AFD4FF0000A31
S315000098EC54465FFA8AF34B451FD217F80A0016B195
S315000098FC0BB92D2816D000F0DF02582A03D114B963
S3150000990C013B012B0CD913F069FD404502D204FB37
S3150000991C080407E0052385F852310020BDE8F087DE
S3150000992C4FF010080AF1010ADBE72046BDE8F08784
S3150000993C704C002038C9030038B5164C94F85631D3
S3150000994CFF2B054620D16DB204EB4505FFF77EFFD4
S3150000995CB5F82E3101281C4404F1010101D16078BF
S3150000996C38BD022803D1084613F03EFC38BD042846
S3150000997C04D10020BDE8384013F064BC0648EF2142
S3150000998CF6F7C6FC002038BD0021BDE83840FFF7CD
S3150000999C87BF00BF704C002038C9030038B51A4C7D
S315000099AC94F85631FF2B054621D16DB204EB4505D3
S315000099BCFFF74CFFB5F82E311C44012804F10101C8
S315000099CC647812D0022804D1084613F00DFC00B2BC
S315000099DC38BD042804D10020BDE8384013F032BC51
S315000099EC0A484FF48571F6F793FC60B238BDFFF761
S315000099FC49FFA0F12D035C425C4128462146FFF746
S31500009A0C4FFF04B1404238BD704C002038C90300EA
S31500009A1CF8B5184B93F85621FF2A04460D461E46F8
S31500009A2C0CD121B1C0B2FFF711FF0138287006EB3B
S31500009A3C4404B4F82E0130440230F8BD93F85401B6
S31500009A4C2044C0B242B203EB4202E443B2F82E21E8
S31500009A5C13445F1C5E78A6F122035E424FEAD4746F
S31500009A6C5E4121B1FFF7F2FE001B801B28703819EE
S31500009A7CF8BD00BF704C0020F8B5184B93F8562172
S31500009A8CFF2A04460D461E460CD121B1C0B2FFF783
S31500009A9CEBFE0238288006EB4404B4F82E01304461
S31500009AAC0330F8BD93F854012044C0B242B203EB24
S31500009ABC4202E443B2F82E2113445F1C5E78A6F1F1
S31500009ACC22035E424FEAD4745E4121B1FFF7CCFE0D
S31500009ADC001B801B28803819F8BD00BF704C002075
S31500009AEC024BD3F858311868704700BF704C0020F1
S31500009AFC2DE9F3410D460DF10701174680461C462C
S31500009B0CFFF786FF06465FFA88F0FFF7BBFEA0F16B
S31500009B1C2203D3F100089DF8071048EB03084144D3
S31500009B2CC9B2B94228BF39468DF8071014B1CCB268
S31500009B3C3C1BE4B2284622460021FEF73EFD2819BE
S31500009B4C31469DF80720FEF7B1FC9DF80700C8EBDF
S31500009B5C0000C0B202B0BDE8F08113B501230C467B
S31500009B6C08226946FFF7C4FF20466946082213F00F
S31500009B7C8BFB02B010BD10B540B20C460021FFF7AE
S31500009B8C47FF2146BDE8104019F05CBBFFF7F3BF59
S31500009B9C426808B5836812B90B60012008BD1B78B2
S31500009BAC6E2B04D103484FF4D371F6F7B1FB0020AA
S31500009BBC08BD00BF38C9030038B5054684681C4982
S31500009BCC2A682020FFF7B0FB6B680BB1013C18E04C
S31500009BDC18492020FFF7A8FB24E0752A16D0762A10
S31500009BEC16D0772A16D0732A16D0622A16D06E2A69
S31500009BFC16D01149114B2A2A08BF19462020FFF707
S31500009C0C93FB14F8012F002AE7D10BE00C49F5E77A
S31500009C1C0C49F3E70C49F1E70C49EFE70C49EDE782
S31500009C2C0C49EBE720200C49BDE83840FFF77CBB1C
S31500009C3CA1C40300ACC90300B0C90300B3C9030037
S31500009C4C80C9030074C903008BC9030097C90300BC
S31500009C5CA1C90300ABC9030059CB030013B50446D5
S31500009C6CFFF7AAFF204601A9FFF792FF68B1019BF7
S31500009C7C1B6853B106492020FFF756FB0198FFF7E6
S31500009C8C9BFF019B0C330193F1E702B010BD00BFA3
S31500009C9C57FC030008B520200349FFF745FB20209D
S31500009CACBDE80840FFF7CAB9B6C9030002460A4B1D
S31500009CBC10B520200C4653F822200849FFF734FB38
S31500009CCC44B120200649FFF72FFB2046BDE8104083
S31500009CDCFFF7C4BF10BD00BF54C90300C8CA0300B8
S31500009CECD4CA030010B520200A490B4CFFF71CFB05
S31500009CFC636823B12046FFF7B1FF0C34F8E7A3687D
S31500009D0C002BF7D120200549FFF70EFBBDE81040CC
S31500009D1CFFF7C0BF4BCB030088B0030059CB030041
S31500009D2C2DE9F0430020A5B0FFF706FE8146012081
S31500009D3CFFF734FE80460320FFF7FEFD0DF11F01F1
S31500009D4C07460420FFF764FE04460220FFF7F4FDE5
S31500009D5CC6B206F0FB03022B06D0234902220623C9
S31500009D6C2020FFF71BFB3CE09DF81F30102B0FD972
S31500009D7C10220CA821468DF81F20FEF797FB002316
S31500009D8C8DF840302020194922460CABFFF706FB14
S31500009D9C08AD05202946FFF7F9FE10B3FFF742FD83
S31500009DAC062809D914A9062008220023FFF7A0FECD
S31500009DBC0CA8042116F040F89DF81F3000930023E0
S31500009DCC01930295039504965FFA89F04FFA88F190
S31500009DDCBAB2234616F06EFA18B920200449FFF7DA
S31500009DECDDFA25B0BDE8F0835CCB030089CB03001C
S31500009DFCC3CB030007B500206946FFF7AEFE6846E5
S31500009E0C13F0DCF906492020FFF78EFA054800F01E
S31500009E1C49FE2020FFF7BCFA03B05DF804FB00BF37
S31500009E2CE6CB03007353002008B511F09BFB0349E6
S31500009E3C0246BDE808402020FFF7B0BAEFCB03007E
S31500009E4C23F066BF2E280AD8054A32F8103019447A
S31500009E5C4FF6FF73994228BF194622F81010704727
S31500009E6C704300202E2810B5044603D9034823213D
S31500009E7CF6F74EFA024B33F8140010BD12CC030061
S31500009E8C704300202E289EBF024B002223F8102080
S31500009E9C704700BF70430020FF2838B5084D09D124
S31500009EAC0024E0B235F814100134FDF735FC2F2CE4
S31500009EBCF7D138BD35F81010BDE83840FDF72CBC8D
S31500009ECC70430020024800215E22FEF776BB00BFDD
S31500009EDC7043002020200149FFF760BA7F9A0300E7
S31500009EEC10B586B0817B8289038900914169019105
S31500009EFCC17B0291017C0391817A04910446084945
S31500009F0C2020FFF711FA0749224608232020FFF7E5
S31500009F1C19FA2020FFF73CFA002006B010BD00BF4E
S31500009F2C26CC030061CC0300024610B520201C464B
S31500009F3C5AB90849FFF7F8F9204600F075FE2020BB
S31500009F4C0549BDE81040FFF729BA0449BDE81040A1
S31500009F5CFFF724BA66CC0300F6C8030073CC0300E3
S31500009F6C10B50020FFF7E8FCC0B210B10124844004
S31500009F7C00E0084CFFF756FC012804D90120FFF736
S31500009F8CDBFCC2B200E0052221460020BDE81040F1
S31500009F9C10F04EBB00F8FF0710B50020FFF7CCFC05
S31500009FACC0B210B10124844000E0084CFFF73AFC23
S31500009FBC012804D90120FFF7BFFCC2B200E005223C
S31500009FCC21460120BDE8104010F032BB00F8FF0717
S31500009FDC08B520200349FFF7E1F9BDE8084010F069
S31500009FECA7BC00BF82CC030007B500200DF107010A
S31500009FFCFFF70EFD9DF8071021F0A0FA03B05DF8EF
S3150000A00C04FB10B50020FFF797FC04460120FFF770
S3150000A01C93FCC1B2E0B221F01DFABDE81040FFF787
S3150000A02C59BF07B500206946FFF797FD684621F032
S3150000A03C2BFAFFF74FFF03B05DF804FB08B521F0D0
S3150000A04C41FABDE80840FFF745BF08B520F078FE99
S3150000A05CBDE80840FFF73EBF2DE9F0478CB00DF187
S3150000A06C1D010220FFF7D4FC9DF81D30102B88BF74
S3150000A07C10230DF11E0107464FF0040088BF8DF822
S3150000A08C1D30FFF7C5FC0DF11F0181460520FFF7BA
S3150000A09CBFFC8046FFF7C6FB06280CD90620FFF747
S3150000A0AC4BFC86B2FFF7BEFB072808D90720FFF743
S3150000A0BC43FC044604E000244FF6FF7600E000243F
S3150000A0CC9DF81F30102B1CD108AD03202946FFF735
S3150000A0DC5DFDB0B10020FFF72FFC82460120FFF793
S3150000A0EC2BFC9DF81D30009601460195CDF8089085
S3150000A0FCCDF80C8004945FFA8AF03A4616F0BEF955
S3150000A10C03E020200249FFF749F90CB0BDE8F087BF
S3150000A11C93CC030070B59CB013F056FB58B90120D4
S3150000A12C15F0F0FF3749384A2020FFF737F9364843
S3150000A13C082129F097FC0021102268462DF0FEFB21
S3150000A14C0020FFF7F9FBC6B216B10125B54000E0B9
S3150000A15C2E4D00215E2204A8FEF72FFA0120FFF7F0
S3150000A16C1DFC8DF83C000220FFF7E6FB00238DF862
S3150000A17C3B0004A910220320FFF7BAFC04A9102205
S3150000A18C6846FEF721FA00280CBF30243124FFF76D
S3150000A19C49FB042805D9042008A9FFF7F7FC44F06D
S3150000A1AC0204FFF73FFB052805D905200AA9FFF78E
S3150000A1BCEDFC44F080049DF83B3003F07B03022B4E
S3150000A1CC4FF0200003D01249FFF7E8F817E01149C9
S3150000A1DCFFF7AAF8104B11492020002E18BF19467C
S3150000A1ECFFF7A2F80E492020FFF79EF82BF0ABFBE9
S3150000A1FC0C4B214618802A4604A815F037FE1CB0D5
S3150000A20C70BD00BFB3CC03001DCC030000F8FF07E4
S3150000A21CDFCC0300F1CC0300F6C80300A6CC030088
S3150000A22C0CCD0300CC4D002038B52BF08CFB0F4B1E
S3150000A23C1880FFF7F7FA022806D90220FFF77CFBF5
S3150000A24C041C18BF012400E000240020FFF7A6FB25
S3150000A25C05460120FFF770FB2246C1B268B216F024
S3150000A26CA3FABDE83840FFF735BE00BFCC4D002041
S3150000A27C30B59DB00021102268462DF05FFB002002
S3150000A28CFFF75AFBC4B214B10125A54000E0304DCE
S3150000A29C00215E2204A8FEF790F901208DF83A40C1
S3150000A2ACFFF77CFB8DF83C000220FFF745FB0023F3
S3150000A2BC8DF83B0004A910220320FFF719FC04A912
S3150000A2CC10226846FEF780F90CA900284FF0080208
S3150000A2DC4FF004004FF000030CBF30243124FFF77D
S3150000A2EC07FC68460CA90822FEF76EF908B144F083
S3150000A2FC04040520FFF720FB4FF6FF7380B298424B
S3150000A30CADF838000DF16D014FF0060018BF44F0A2
S3150000A31C0804FFF77DFB9DF86D20202A014604D921
S3150000A32C0C492020FFF73AF80FE02AB10DF14D0049
S3150000A33C44F48074FEF7BAF82BF005FB064B214665
S3150000A34C18802A4604A816F06BFA1DB030BD00BF63
S3150000A35C00F8FF0717CD0300CC4D00201FB50020D9
S3150000A36C0DF10701FFF754FB9DF80730202B04462F
S3150000A37C04D90B492020FFF711F80FE0FFF752FA2A
S3150000A38C022805D1012002A9FFF7E7FB02A800E08D
S3150000A39C002021469DF8072029F000FB04B010BDD3
S3150000A3AC17CD030008B50020FFF7C6FA431E584226
S3150000A3BC5841BDE8084015F0A5BE1FB500206946FA
S3150000A3CC10220346FFF794FB0146684629F04AFB28
S3150000A3DC05B05DF804FB08B50020FFF7ADFABDE843
S3150000A3EC0840C0B213F0B0BE08B52BF0ACFA034B64
S3150000A3FC1880BDE8084013F075BD00BFCC4D002099
S3150000A40C13F00EBD2DE9F041002086B0FFF794FA4B
S3150000A41C84B2FF2C03D062061CBF2402A4B2012016
S3150000A42CFFF78AFA0DF1170110F100084FF0020040
S3150000A43C18BF4FF00108FFF7EBFA9DF81730102BF9
S3150000A44C88BF102307464FF0030088BF8DF81730DE
S3150000A45CFFF772FA05460420FFF76EFA9DF81730DF
S3150000A46C0022002B06464FEAC3038DE8640003F076
S3150000A47CF80318BF3A462046414626F0DFF89DF809
S3150000A48C1730082B06D1230504D5384631462A4603
S3150000A49C02F0E6FEFFF71EFD06B0BDE8F0810000F7
S3150000A4AC37B500200DF10701FFF7B2FA9DF807301A
S3150000A4BC082B05460ED10120FFF73EFA0446022072
S3150000A4CCFFF73AFA22460146284602F0C9FEFFF784
S3150000A4DC01FD03E020200249FEF760FF03B030BD0A
S3150000A4EC29CD030000B58DB002200DF10701FFF751
S3150000A4FC8FFA9DF8070008B9014619E0002002A959
S3150000A50CFFF744FBB8B106A800211822FEF755F850
S3150000A51C19238DF8183003238DF8193008A8012358
S3150000A52C02A910228DF81C30FDF7C0FF06A81821D1
S3150000A53C26F056FB03E020200249FEF72FFF0DB054
S3150000A54C5DF804FB4BCD030030B5002085B0FFF75A
S3150000A55CF3F90DF10F01C4B20120FFF759FA9DF87A
S3150000A56C0F30082B84BF08238DF80F300546FFF7F4
S3150000A57C59F9022806D90220FFF7DEF9011C18BF8B
S3150000A58C012103E004F0010181F001019DF80F3077
S3150000A59C0022DB00009220462A4603F0F80326F040
S3150000A5ACFDF8FFF797FC05B030BD07B500200DF19F
S3150000A5BC0701FFF72DFA9DF8071026F011FB03B0E3
S3150000A5CC5DF804FB07B500200DF10701FFF720FA33
S3150000A5DC9DF8071026F016F903B05DF804FB08B5D4
S3150000A5EC00F0B6FCBDE80840FFF774BC08B52020A7
S3150000A5FC0349FEF7D3FEBDE8084013F0E7BA00BFE7
S3150000A60C72CD030007B50B492020FEF7C7FEFFF7F6
S3150000A61C09F9014648B10DF107010020FFF7F8F9D9
S3150000A62C9DF80710C90001F0F80113F08FFA03B07A
S3150000A63C5DF804FB98CD030008B520200349FEF70E
S3150000A64CADFEBDE8084002F0CDBE00BFBFCD030095
S3150000A65C1FB500206946FFF799FA18B1684618F03D
S3150000A66CB8FA03E020200349FEF798FE05B05DF822
S3150000A67C04FB00BF4BCD030008B5FFF7D3F820B1A0
S3150000A68C0020FFF759F9C0B200E0FF20BDE80840F2
S3150000A69C14F0FEBD08B5FFF7C5F820B10020FFF792
S3150000A6AC4BF9C0B200E0FF20BDE8084013F0BABA7F
S3150000A6BC08B5FFF7B7F808B9FF2003E00020FFF74D
S3150000A6CC3BF9C0B2BDE80840FFF7E6BB08B5FFF79B
S3150000A6DCF9FBBDE80840FFF7FDBB13F0A7BB000074
S3150000A6ECF0B5002187B04FF0FF30FFF791F9214903
S3150000A6FC0B222DF079FB02A900284FF000000CBFAD
S3150000A70C20270027FFF742FA10B920201A492DE01E
S3150000A71CFFF788F8012817D9FFF784F8052802D027
S3150000A72C2020164922E00120FFF706F986B2022006
S3150000A73CFFF702F985B20320FFF7FEF884B2042076
S3150000A74CFFF7FAF880B205E00020044641F2342502
S3150000A75C4AF6CD36C0B28DE88100314602A82A46AB
S3150000A76C234622F0E4FF18B905492020FEF716FE11
S3150000A77C07B0F0BDCECD0300659B0300DACD030018
S3150000A78C869B0300044A054B0549002818BF1A4648
S3150000A79C2020FEF703BE00BF0ECE0300979B0300DE
S3150000A7AC11CE030000B500209BB06422034601A91C
S3150000A7BCFFF79EF981B201A81FF036FEFFF78AFB60
S3150000A7CC1BB05DF804FB000070B520200B49BDF8EA
S3150000A7DC10401E46FEF7A8FD00235D1CDBB2A3420B
S3150000A7EC4FF0200005D2F25C0549FEF79DFD2B4685
S3150000A7FCF3E70449BDE87040FEF7D0BD24CE030054
S3150000A80CB49C0300F6C8030010B588B001A901205A
S3150000A81C0A220023FFF76CF904A904460020FFF76F
S3150000A82CB5F910B9202008490AE004A801A9224666
S3150000A83C02F026FA10B9FFF74DFB03E0034920207E
S3150000A84CFEF7ACFD08B010BD2999030058C00300F3
S3150000A85C00F092BA08B50020FFF76EF8BDE8084084
S3150000A86CC0B213F0E5BA13B50020FFF765F80DF189
S3150000A87C070104460120FFF7CBF89DF80720014697
S3150000A88CE0B213F0E5FA02B010BD13F01BBB08B52D
S3150000A89C0020FFF751F8BDE8084080B213F01ABB50
S3150000A8AC08B50020FFF748F8003018BF0120BDE8B6
S3150000A8BC084013F091BC13F096BC08B50020FFF7C6
S3150000A8CC3BF8003018BF0120BDE8084013F092BCDD
S3150000A8DC13F097BC08B50020FFF72EF8BDE808402A
S3150000A8EC13F096BC13F09BBC08B50020FFF724F8B8
S3150000A8FCBDE80840C0B213F09BBC08B50020FFF7BA
S3150000A90C1BF8BDE80840C0B213F099BC10B588B06E
S3150000A91C0DF10F010020FFF77BF804A90446012076
S3150000A92CFFF734F910B920200A490FE000230093F1
S3150000A93C01939DF80F10084B204604AA25F050FBF6
S3150000A94C10B92020054901E005492020FEF726FD17
S3150000A95C08B010BD4BCD0300359F00007F9A030055
S3150000A96C57CE030008B5202024F0ECFEBDE80840C5
S3150000A97CFFF7B0BA37B500200DF10701FFF748F81D
S3150000A98C05460120FEF7D8FF84B222460449202052
S3150000A99CFEF704FD2846214622F070FE03B030BDBA
S3150000A9AC1ACF030008B520200349FEF7F7FCBDE8D3
S3150000A9BC084022F074BE00BF34CF030008B5002255
S3150000A9CC13460448044911F047FDBDE80840FFF75B
S3150000A9DC81BA00BF46330020ED9E00007FB50020F3
S3150000A9EC02A9FFF7D3F830B90DF10601FFF710F8FD
S3150000A9FC22F05CFE17E002A880210DF105021DF085
S3150000AA0C97F860B19DF8050004A90DF10602002324
S3150000AA1C22F0B6FDBDF80600FDF768FA03E020202B
S3150000AA2C0249FEF7BBFC07B05DF804FB4ECF0300F2
S3150000AA3C052808B505D905483421F5F769FC002029
S3150000AA4C08BD034B53F8200008BD00BF84CF03009C
S3150000AA5CDCD3030000F07F00072808B505D90548AC
S3150000AA6C4621F5F755FC002008BD034B53F8200092
S3150000AA7C08BD00BF84CF0300BCD303007FB50146DD
S3150000AA8C102201A8FDF712FD002305498DF814309C
S3150000AA9C01AA2020FEF748FC07B05DF804FB00BFB6
S3150000AAACA1C4030038B5084905462020FEF73CFC36
S3150000AABC05F1080414F8012D04492020FEF734FC96
S3150000AACCAC42F7D138BD00BF4C980300ABF703007E
S3150000AADC03460449B3F84220B3F844302020FEF76D
S3150000AAEC23BC00BF96CF030010B590F84620812AF0
S3150000AAFC044605D00649074B802A08BF194600E0D4
S3150000AB0C054994F847302020BDE81040FEF70CBCF0
S3150000AB1CA6CF0300C5CF0300B5CF030070B504461E
S3150000AB2C0D4620200A49FEF7FFFB013D661E2C440C
S3150000AB3CA6424FF0200005D0064916F8012FFEF765
S3150000AB4CF3FBF5E70449BDE87040FEF7EDBB00BF2B
S3150000AB5C009D0300ABF70300FEC2030038B50A499B
S3150000AB6C04462020FEF7E0FB651E073415F8012F7E
S3150000AB7C06492020FEF7D8FBA542F7D12020044930
S3150000AB8CBDE83840FEF7D0BB69D00300ABF7030035
S3150000AB9CDACF030010B5F6F749FA1249024620201F
S3150000ABACFEF7FCFBF6F7D8F8012303FA00F240F2A5
S3150000ABBCA1731340ABB12020F5F7EAFDF6F7D2F8F6
S3150000ABCC0446F6F7D5F840F201739C4201D10368AE
S3150000ABDC3BB12020F5F79EFE2020BDE81040F5F78E
S3150000ABEC9DBF10BDE6CF0300F8B506460D46002402
S3150000ABFCAC4212D006EB440012F0F6FA074F084AA4
S3150000AC0C08495FFA84FE0346BEF1000F18BF3A46A8
S3150000AC1C2020FEF789FB0134EAE7F8BDD4C3030014
S3150000AC2CF6C80300F0CF03000821FFF7DDBF0000D4
S3150000AC3C10B5094904462020FEF776FB04F10B00FB
S3150000AC4CFFF7F2FF20200549FEF76EFB04F11B000F
S3150000AC5CBDE81040FFF7E8BFF6CF0300F9CF0300BD
S3150000AC6C10B50446FFF7E4FF20200F49FEF75CFB06
S3150000AC7C94F83030112B05D03A2B06D12046FFF72D
S3150000AC8C33FF02E02046FFF723FF07492020FEF79B
S3150000AC9C4BFBE06BB4F84010FFF740FF2020BDE8FB
S3150000ACAC1040FEF775BB00BF58FC03002DE9F843B6
S3150000ACBC8146884620201249089DBDF82440174637
S3150000ACCC1E46FEF731FB0F492020FEF72DFB4846AA
S3150000ACDCFFF7AAFF0C492020FEF726FB4046FFF79C
S3150000ACECA3FF3A46334609492020FEF71DFB2846AA
S3150000ACFC2146FFF713FF2020BDE8F843FEF748BBBB
S3150000AD0CFDCF030002D0030008D0030011D00300CE
S3150000AD1C1FB50020694612F0E3FE48B10649202013
S3150000AD2CFEF702FB6846FFF77FFF2020FEF730FB9D
S3150000AD3C05B05DF804FB00BFB7D0030007B50421CE
S3150000AD4CFFF752FF0A492020FEF7EEFA6846082262
S3150000AD5C084912F099FA9DF80030684683F0020310
S3150000AD6C04218DF80030FFF73FFF03B05DF804FBBC
S3150000AD7CD4C303007353002030B59DB004A812F061
S3150000AD8C3BFE9DF83B3023F08003062B05D19DF846
S3150000AD9C3B30062B40F0948094E05D492020FEF772
S3150000ADACC3FA042108A8FFF71FFF2020FEF7F0FACC
S3150000ADBCFFF7AEFF57492020FEF7B6FA12F004FD56
S3150000ADCC01280AD1002300930193684605217F22AE
S3150000ADDC0823F6F751FA684600E04F484F4CFFF748
S3150000ADECBDFE2020FEF7D4FA20204D49FEF79CFA32
S3150000ADFCA4F1080514F801294A492020FEF794FA13
S3150000AE0CAC42F7D148492020FEF78EFA2020FEF7F7
S3150000AE1CBFFA9DF83B30062B01D01A0614D54349D0
S3150000AE2C2020FEF781FA04210AA8FFF7DDFE202078
S3150000AE3CFEF7AEFA3E492020FEF776FA0AA8FFF78F
S3150000AE4C7DFF2020FEF7A4FA12F082FC044612F0D5
S3150000AE5CBBFC012809D10023009368460C217F22F4
S3150000AE6C0423F6F709FABDF800402046694618F0A7
S3150000AE7CFDF848B12F492020FEF756FA6846FFF731
S3150000AE8CD3FE2020FEF784FA0024E5B22846694654
S3150000AE9C12F026FE002838D020200CB9264903E0F3
S3150000AEAC012D0CBF25492649FEF73EFA6846FFF7E9
S3150000AEBCBBFE01342020FEF76BFA0A2CE5D166E7BF
S3150000AECC1B0622D51F492020FEF72EFA04210AA8BC
S3150000AEDCFFF78AFE2020FEF75BFA1B492020FEF7BF
S3150000AEEC23FA0AA8FFF72AFF2020FEF751FA174982
S3150000AEFC2020FEF719FA6946012012F0F1FD68468A
S3150000AF0CFFF792FE2020FEF743FA1DB030BD00BFBE
S3150000AF1CA3D0030040D00300C45300207A53002072
S3150000AF2C58D00300ABF70300DACF03006BD0030055
S3150000AF3C7BD0030087D0030095D00300CBD0030051
S3150000AF4CD6C203009CD00300B0D00300C4D00300CB
S3150000AF5C10B598B012F038FC0446684612F04CFD59
S3150000AF6C2046FFF765FD2B4902462020FEF716FA10
S3150000AF7C29492020FEF7D8F912F022FCFFF792FDA2
S3150000AF8C2020FEF705FA002C42D024492020FEF79B
S3150000AF9CCBF96846FFF772FD2020FEF7F9F99DF80C
S3150000AFAC2B00FFF757FD1E4902462020FEF7BCF981
S3150000AFBC9DF82B3023F08002062A08D0062B01D0F0
S3150000AFCC1B0604D517492020FEF7E8F902E02020DD
S3150000AFDCFEF7DEF914492020FEF7A6F908A8FFF7BC
S3150000AFECBDFD2020FEF7D4F91049BDF828202020FD
S3150000AFFCFEF7D4F90E499DF82A202020FEF7CEF94B
S3150000B00C0C499DF92C202020FEF7C8F9FFF7B4FE59
S3150000B01C18B010BDD2D00300E5D00300EDD003006C
S3150000B02CFAD0030008D1030010D1030022D103008B
S3150000B03C30D103003CD103002DE9F0410D460B7BCA
S3150000B04C4A7BC97A86B0064669B12C4614F8083F85
S3150000B05C022B34D12B4995F80C806F7B324620207D
S3150000B06CFEF762F90DE0A97A0029EED1002BECD19E
S3150000B07C002AEAD12846082112F0F8F80028E4D074
S3150000B08C3CE014F8012D20492020FEF74DF9AC4286
S3150000B09CF7D1A67B1D481E4994F90950A27AE37A8A
S3150000B0ACCDF80080002E18BF01460197029503913A
S3150000B0BCE17B049120201749FEF770F91EE0202051
S3150000B0CC15493246FEF730F914F8012D0E492020A9
S3150000B0DCFEF72AF9AC42F7D1A67B0C480C4994F939
S3150000B0EC0950227B637B0095002E18BF0146019107
S3150000B0FCE17B029120200949FEF750F906B0BDE824
S3150000B10CF08100BFBBD10300ABF7030075A40300AD
S3150000B11C71D1030073D10300B4D103008FD10300A6
S3150000B12C2DE9F84305468846454555D228462C78E0
S3150000B13C1CF090FD6408064628461CF085FD3CB1C3
S3150000B14C012C05D0022C03D0032C01D0042C11D1D8
S3150000B15C224B234903EBC4032F1822465B68F6B235
S3150000B16C2020FEF7E1F820201E493246FEF7DCF8D7
S3150000B17CB94606E01C484FF41671BDE8F843F5F7DE
S3150000B18CC7B8C7EB0903DBB2B3420CD2DFF86CE0ED
S3150000B19C164A1749002B08BF7246202019F8013BA6
S3150000B1ACFEF7C2F8EDE7012C0FD112492020FEF76D
S3150000B1BCBBF8E878073005EBE0000430B919FFF767
S3150000B1CCAFFF20200C49FEF7AFF820200B490236C2
S3150000B1DCFEF7E4F83544A7E7BDE8F8835CCF030037
S3150000B1ECE8D10300F0D1030084CF030058FC030020
S3150000B1FCFCD1030001D2030011D20300F6C80300F0
S3150000B20C13B501A822F04CFC20B914492020FEF7F6
S3150000B21CC5F820E00021019822F086FC019A10491D
S3150000B22C04462020FEF780F820461021FFF776FC16
S3150000B23C2020FEF7ADF80021019822F079FC09498F
S3150000B24C04462020FEF770F820461021FFF766FC16
S3150000B25C2020FEF79DF802B010BD00BFF4D303000A
S3150000B26C03D4030024D4030013B50020FEF764FBBB
S3150000B27CC4B220460CF0FCF9044900902246234641
S3150000B28C2020FEF78BF802B010BD00BF2ED40300B1
S3150000B29C08B50020FEF750FB80B212F067FA12F0E8
S3150000B2AC63FA03490246BDE808402020FEF776B84B
S3150000B2BC489E0300F7B54FF0FF300DF10701FEF77E
S3150000B2CCA7FB00260746B4B20C2363431C4AD55889
S3150000B2DC002D32D0284612F00DF89DF80720824238
S3150000B2EC29D128463946FDF76FF920BBFEF724FB1A
S3150000B2FC003018BF0120082C09D8124B124A53F8FB
S3150000B30C24301870114B002818BF13460DE0104A54
S3150000B31C093C0121A140138818B1194311800A4B2D
S3150000B32C03E023EA0101094B11800A492A46202031
S3150000B33CFEF734F801E00136C5E703B0F0BD00BFF7
S3150000B34C50D4030044D70300A8A60300599C03005D
S3150000B35CA4470020E0D4030003460148184700BF69
S3150000B36CCE43002008B50020FEF7E6FA0021C0B255
S3150000B37C12F078F9054B06491A78064B202053F83B
S3150000B38C2220BDE80840FEF709B800BFA6470020FA
S3150000B39CE7D4030068D703007FB50020FEF7CCFA8C
S3150000B3AC02A980B217F062FE10B9202009490BE001
S3150000B3BC0023009302A84AF6CD3141F2342222F042
S3150000B3CC0AFA18B904492020FDF7E8FF07B05DF822
S3150000B3DC04FB00BFF4D40300869B03002DE9F34164
S3150000B3EC00200DF10701FEF713FB9DF80740804680
S3150000B3FCFEF718FA012802D8A4B2002707E00120AC
S3150000B40CFEF79AFA87B20220FEF796FA84B23D4E00
S3150000B41C318841B9204610F0EFFC308018B93A4813
S3150000B42CBE21F4F775FF308810F04CF941469DF8B3
S3150000B43C072005463844FDF739F8202033499DF896
S3150000B44C0720FDF7ABFF9DF807301F44A74255D1E7
S3150000B45C28460EF0F9FE10B180B2844202D22020AA
S3150000B46C2B4907E02846E1B211F0CAFA054620B985
S3150000B47C28492020FDF792FF3EE011F043F9B0F584
S3150000B48C006F0AD1284611F069F94FF6FF739842FE
S3150000B49C03D120202049224628E0284611F032F913
S3150000B4ACB0F5006F08D0B0F5406F1CD1284611F0EE
S3150000B4BC47F90DF047FA04E0284611F04FF90DF064
S3150000B4CC1DFAFF280FD0154B00B21B6833F810304D
S3150000B4DC5B0708D512493A462020FDF75FFF284640
S3150000B4EC0FF0B6FD08E00C4920203A46FDF756FF52
S3150000B4FC284601210DF078FF0023338002B0BDE809
S3150000B50CF08100BFCE43002015D503002CD50300D7
S3150000B51C3FD5030059D503006BD50300D42E00206C
S3150000B52C7ED5030008B50020FEF706FA044B054944
S3150000B53C18700246D2B22020BDE80840FDF72EBF97
S3150000B54CD22E002093D5030008B50FF0C5FE20209F
S3150000B55C0249BDE80840FDF721BF00BFA9D503008D
S3150000B56C002008B5064903461A22FEF7C1FA054B18
S3150000B57C05491870BDE808402020FDF70FBF00BF35
S3150000B58CCD530020CC530020C3D5030008B50020B2
S3150000B59CFEF7D2F9044B1880044B00221A70BDE852
S3150000B5AC08400DF04DBF00BF2E3200203B47002057
S3150000B5BC07B500206946FEF7D0FA06486946082208
S3150000B5CCFCF774FF044B01221A700DF039FF03B01F
S3150000B5DC5DF804FBB05300203B4700201FB500204C
S3150000B5EC02A900900190FEF7B8FA0F4802A90822AA
S3150000B5FCFCF75CFF68460C490822FCF7E5FF58B1DE
S3150000B60C0A492020FDF790FE07480821FFF786FA25
S3150000B61C2020FDF7BDFE03E020200549FDF7BEFE08
S3150000B62C05B05DF804FB00BFA4530020D6D503007B
S3150000B63CECD5030030B587B00DF107010020FEF7FD
S3150000B64CE7F905460120FEF777F99DF807300F2B31
S3150000B65C044609D902A800211022FCF7AEFF02A865
S3150000B66C29461022FCF722FF02A8E1B222F0CEFAFC
S3150000B67C08492020FDF758FE02A81021FFF74EFAC4
S3150000B68C0120FEF759F9044902462020FDF786FEF3
S3150000B69C07B030BD1ED4030001D6030008B5002048
S3150000B6ACFEF74AF9014B186008BD00BFF4460020AE
S3150000B6BC08B50020FEF740F9014B187008BD00BF15
S3150000B6CC9C3100207FB50020FEF736F90646012096
S3150000B6DCFEF732F905460020014613F069F9FF28FA
S3150000B6EC044625D002A90220FEF737FA134B002E8A
S3150000B6FC1B680093ADB214BFC023CC23294602AA03
S3150000B70C204613F0BDF90E4B0E491A6824B22020C0
S3150000B71C32F8143043F0020322F814302A46FDF7AF
S3150000B72C03FE02A8FFF7BEF92020FDF731FE03E069
S3150000B73C20200549FDF732FE04B070BDD82E00203E
S3150000B74CD42E002010D6030021D6030008B5002005
S3150000B75CFEF724F940B212F00DF8BDE8084012F0DD
S3150000B76C25B8000010B5002486B0E0B203A91CF081
S3150000B77C96F9C8B19DF80C30BDF8162000920D490B
S3150000B78C2246C3F300132020FDF7CEFD9DF81410BE
S3150000B79C04980F31C1F30711FFF726FA202006494A
S3150000B7AC9DF81420FDF7FAFD0134102CDDD106B0FE
S3150000B7BC10BD00BF32D6030052D60300202023F062
S3150000B7CCC1BF000008B5064B0649002220201A709E
S3150000B7DCFDF7E4FD2020BDE80840FDF72FBC00BFB7
S3150000B7EC0830002056D6030008B5074B1B782020DE
S3150000B7FC0BB1064900E00649FDF7D0FD2020BDE857
S3150000B80C0840FDF71BBC00BF0830002068D60300BB
S3150000B81C7AD60300038A2BB1C38908881B1A5842AF
S3150000B82C584100E0184600F00100704743692BB1FF
S3150000B83C438A08881B1A5842584100E0184600F003
S3150000B84C010070470020704710B5044610300FF009
S3150000B85CEDFE04F14C00BDE810400FF0E7BE000011
S3150000B86C1FB504AB0A46002123F8020D00910348CC
S3150000B87C034911F0EDFA05B05DF804FB8053002086
S3150000B88C80D70300054B1B6807B523B100910190C7
S3150000B89C69460220984703B05DF804FBAC470020CC
S3150000B8ACF0B5936993B007460C461546002B57D056
S3150000B8BC07AE304600212C22FCF77FFE03A80021A0
S3150000B8CC1022FCF77AFEAB8B23B105F150021092D5
S3150000B8DCADF844309CB91FB122487521F4F718FD18
S3150000B8EC0BA805F136011022FCF7E0FD00218DE8CE
S3150000B8FC4200AC69384603AA0B46A04730E03046F6
S3150000B90C21461022FCF7D2FD0BA804F110011022DF
S3150000B91CFCF7CCFD238CADF83C30638CA28EADF8D5
S3150000B92C3E30236B039303FA82F2059300238DF8C2
S3150000B93C1830B4F8443094F8251004928DE8480079
S3150000B94C3846236CAE6903AAB04795F83630FF2B00
S3150000B95C06D1AC6829F0EBFF211A284611F0C0F984
S3150000B96C13B0F0BD90D7030010B5037B032B044630
S3150000B97C01D8028A32B9002022460146BDE81040A1
S3150000B98CFFF78EBF0133037300F08EFF044A237B4F
S3150000B99C1168013B20469940BDE8104011F0A0B952
S3150000B9AC0C300020F8B5147811700C1BA4B2B4F549
S3150000B9BC867F06461D4600F1010008D96FF4867293
S3150000B9CCA11889B211F01AFCF71C0E2407E00C2CF6
S3150000B9DC81BF0D3C7470B71C0D2498BF0746B5F596
S3150000B9EC867F09D96FF48673E918384689B211F047
S3150000B9FC05FC02370E2505E00C2D82BF0D3D07F820
S3150000BA0C015B0D2545EA041434703846F8BD2DE962
S3150000BA1CF74F9B46B1F10F079DF8303000938A46DD
S3150000BA2C18BF01270546002844D003782F2B08BFE2
S3150000BA3C013589464FF000082B78002B3AD0294661
S3150000BA4C0B780C4601310BB95FB10DE02F2B03D1EE
S3150000BA5CB8F1000FF4D117E03F2BF5D0262BEFD120
S3150000BA6CF2E7B8F1000F11D0661BB6B2334610469A
S3150000BA7C49465A46FFF796FF324629460190FCF78F
S3150000BA8C15FD019B9A1901E0002FEDD123782F2B80
S3150000BA9C02D10134D1460BE00FB1009951B13F2BC5
S3150000BAAC01D0262B04D101344FF001084FF00F09B9
S3150000BABC2546C1E7104603B0BDE8F08F2DE9F04FDF
S3150000BACC87B04FF000089DF840608DF813808246D1
S3150000BADC894693461F460446B9F1000F4FD0B8F17C
S3150000BAEC000F10D116B13B785B450DD9002300939E
S3150000BAFC2246484659460DF11303FFF788FF4FF0CF
S3150000BB0C01080446E8E716B13B780F2B0BD9002544
S3150000BB1C4846224600950F210DF11303FFF777FFD8
S3150000BB2CA94604462BE0D7F804C03D89BCF1000FAA
S3150000BB3C10D1604605A9FA6811F064FB042505AB23
S3150000BB4C9C4601339CF8002022B9013DADB29C46BF
S3150000BB5C002DF5D1204617F8101BCDF80CC00DF1B1
S3150000BB6C13022B46FFF71EFFDDF80CC00446614698
S3150000BB7C2A46013EFCF79AFC2C44F6B2ACE7002EA2
S3150000BB8CD1D1CAEB040080B207B0BDE8F08FF8B58E
S3150000BB9C0378FF2B04460F4616462BD01A090D2A9E
S3150000BBAC03F00F0395B2338003D1457802340D357B
S3150000BBBC0BE00E2A00F1010006D111F015FB00F284
S3150000BBCC0D1085B2033400E0044633880D2B04D1E6
S3150000BBDC14F8013B0D33338008E00E2B06D12046BA
S3150000BBEC11F002FB00F20D10308002343878054457
S3150000BBFC3D7000E000242046F8BD000010B5044658
S3150000BC0C68B1B0F852000649FFF72AFE38B1B0F811
S3150000BC1C4C3023B12146BDE81040FFF733BE10BDB2
S3150000BC2C21B800000023064AD1189A5C824201D141
S3150000BC3C486870470833D02BF5D10248704700BFCF
S3150000BC4C28DA030097D703000A44002301604260F8
S3150000BC5C81600373704773B50446806863689842C5
S3150000BC6C0E4615460DD004F10C010DF10602FFF738
S3150000BC7C8EFFBDF8063030602B800344A360207B1A
S3150000BC8C00E0002002B070BD2DE9F341D618036820
S3150000BC9C8360B2424FF0000303730746884615468D
S3150000BCAC38BF13701446384601A90DF10202FFF78E
S3150000BCBCD2FFD0B1804518D34045F4D1BDF802105F
S3150000BCCC0198224600238B4208DAB2423CBF10F898
S3150000BCDC03E082F800E001330132F4E76318B34263
S3150000BCEC3CBF2F2262545C1CDDE7AC4204D0B4424C
S3150000BCFC9CBF002304F8013C601B013800B202B063
S3150000BD0CBDE8F08110B504294FF0000328BF0421CB
S3150000BD1C1A465C1CDBB28B4204D2C35C43EA022299
S3150000BD2C2346F6E7104610BDF8B51F460368836038
S3150000BD3C002304460D4616460373204631463A4602
S3150000BD4CFFF789FF08B1A842F7D3431B5842584165
S3150000BD5CF8BD37B515460DF1020301AAFFF7E4FF4E
S3150000BD6C044630B12DB10198BDF80210FFF7CAFF99
S3150000BD7C2860204603B030BD10B50C4613460B2187
S3150000BD8C2246BDE81040FFF77FBF000001480FF0C8
S3150000BD9C4DBC00BFD0430020F7B5044616461046EE
S3150000BDAC0D4664220021FCF708FC237803F00F03F0
S3150000BDBC86F82E30237803F0C002402A58D103F0BF
S3150000BDCC300386F84630637886F82530A01C11F0CF
S3150000BDDC0BFA211DA6F8520096F82E2006F1260025
S3150000BDECFCF764FB207800F00F0004302D1A044495
S3150000BDFCADB20023B58634638DF805302544AC42CC
S3150000BE0C9DF8057005D30B2F1ED1B36BE31AB387C0
S3150000BE1C1AE02378FF2BF6D020460DF105010DF123
S3150000BE2C0602FFF7B4FE9DF805300B2B03D10B2F42
S3150000BE3C06D0B46304E00B2F02BFB36BE41AB487CD
S3150000BE4CBDF806400444DAE7AC420CD22378FF2B4B
S3150000BE5C09D1336BE31A013434642C1BB386A6F870
S3150000BE6C4440012005E0A54234BF0020012000E03B
S3150000BE7C002003B0F0BD000008B5FCF7FFFA054B37
S3150000BE8C1880FCF7FBFA044B1880044B00221A802E
S3150000BE9C08BD00BF103000200A300020D04300201F
S3150000BEAC18B143090CBF0120002000F001007047B7
S3150000BEBC2DE9F0470446B0B090F825000E469046A2
S3150000BECCFFF7EEFF04F1260750B1974D3846298847
S3150000BEDC11F094F92B8801332B80022384F82E3031
S3150000BEEC238C13B941F233632384638C13B941F267
S3150000BEFC3363638494F8462094F82E30134302F08F
S3150000BF0CEF02202A18BF894A43F040038DF80C3003
S3150000BF1C94F825308DF80D301CBF1388A4F85230D8
S3150000BF2C0DF10E0018BF0133B4F8521018BF138070
S3150000BF3C11F064F994F82E30082B04D97C4840F2A1
S3150000BF4CBB21F4F7E5F904A8394694F82E20FCF742
S3150000BF5CADFA94F82E5004AB404601211D440FF067
S3150000BF6C0DFFB4F8443043B9B8F1000F08D010F106
S3150000BF7C000918BF4FF0010903E04FF0010900E07A
S3150000BF8CC146216B31B12846A28EFCF78FFAA38EDF
S3150000BF9C1D4415E094F825008DF80A10FFF780FF74
S3150000BFAC70B16EB10123A56300932A460DF10A0305
S3150000BFBC30460B21FFF72BFDA36BC31A0546A3874F
S3150000BFCC0DF10C0AB9F1000F27D0A26C594B9A420D
S3150000BFDC03D194F84630202B02D0FF232B70013569
S3150000BFECB4F84420AB18CAEB0303B12B07D8284688
S3150000BFFC216CFCF75BFAB4F844301D440DE0114695
S3150000C00C206C00220FF073FF814608B9182087E0D8
S3150000C01C424601210FF08AFEC846CAEB0505B12D32
S3150000C02C04D943484FF43E71F4F772F90DF10A0343
S3150000C03C009320465146AAB2434600F063FB002803
S3150000C04C6ED194F8463043B194F82500FFF728FFDB
S3150000C05C002865D0606D002862D0B4F860005030BE
S3150000C06C80B200210FF0C8FE0028CFD00FF02AFBBB
S3150000C07C002105465022FCF7A0FA2F4B2B6000231B
S3150000C08C2B736B60B4F85230EB81636D53B1AB61BB
S3150000C09C2A4AA36D002B08BF13466B61384611F074
S3150000C0ACA3F8688205F1360004F110011022FCF7A2
S3150000C0BCFDF994F84630ABB9BDF80A302B8205F180
S3150000C0CC240021461022FCF7F1F9238CAB86638CF5
S3150000C0DCA5F84630A36C2B62E36CAB64184B284670
S3150000C0EC196801E06969284610F0FAFD154B1B68C2
S3150000C0FC5BB156B130462BF049FE411C89B2304635
S3150000C10C00220FF0F4FEA5F84C0005F15000E16D8D
S3150000C11CB4F86020FCF7CAF9B4F86030AB830020A1
S3150000C12C30B0BDE8F08700BF0A3000201030002088
S3150000C13C90D7030051B8000080D70300905F010030
S3150000C14C0C300020AC4700202DE9F043B5B0154665
S3150000C15C3E9C3D9E0746894602A8002164229846CD
S3150000C16CFCF72BFA02A8611C1022FCF79FF906A813
S3150000C17C39461022FCF79AF9638AADF82830A38A5F
S3150000C18CADF82A30E36A1493236B1593BDF8F0309F
S3150000C19CADF84C30237FCDF8488000930DF16C0838
S3150000C1AC294640460B22A3698DF82D90FFF786FC95
S3150000C1BC6428054605D914484FF45A71F4F7A8F8C3
S3150000C1CC00E018B1CDF83880ADF83C502378DB0789
S3150000C1DC04D4E36A23B93B78FF2B01D1102300E08A
S3150000C1EC00238DF84E303EB1236A1893636A199377
S3150000C1FC238D1796ADF86830002102A80A46FFF782
S3150000C20C57FE35B0BDE8F08390D7030030B5044631
S3150000C21C9BB00D4601A800216422FCF7CEF9B4F8B8
S3150000C22C5230ADF8563001A8214610228DF84A50EE
S3150000C23CFCF73CF905A804F110011022FCF736F9BD
S3150000C24C238CADF82430638CADF826300021A36C1A
S3150000C25C139301A8E36C14930A46FFF729FE1BB04F
S3150000C26C30BD00002DE9F04FC5B006460846114614
S3150000C27C0BAA1F464E9CFFF78FFD8046002800F048
S3150000C28C15819DF85A2084F8342004F12C000DF108
S3150000C29C5201FCF70BF904F1100A0BA821461022E7
S3150000C2ACFCF704F90FA851461022FCF7FFF8238C73
S3150000C2BCADF84C309DF87230B4F82290656AD4F81B
S3150000C2CC28B0ADF84E90102BADF88E601D95CDF8BC
S3150000C2DC78B03FD002D8002B3CD0E7E0202B0ED014
S3150000C2EC302B40F0E380BDF87E007249FFF7B8FAB8
S3150000C2FC0246002800F0DA8002200BA927E0BDF8E0
S3150000C30C7E006C49FFF7ACFA0446002800F0CE809C
S3150000C31CB0F84C3013B10BA9FFF7B4FAA369002B94
S3150000C32C00F0C4809DF85130002B00F0B3809DF8CE
S3150000C33C5A30022B40F0AE800DF1520010F054FF33
S3150000C34C638A834240F0A68003200BA92246FFF79E
S3150000C35CA7FAABE09DF8513013B90BA8302148E091
S3150000C36CBDF87E30059324A800211C22FCF725F984
S3150000C37C059B2595ADF890303DB926A8514610225F
S3150000C38CFCF794F8ADF8A89001E0CDF898B04A48BF
S3150000C39C00210FF05CFF054668B128460FF092F9B4
S3150000C3AC1C22014624A8FCF70FF9C8B129464248BD
S3150000C3BC0FF077FFEFE71C2124A82A460FF097FD14
S3150000C3CC0146C8B13C482A460FF047FF3A480FF0E1
S3150000C3DC71FF052810D9294637480FF07DFF0BE071
S3150000C3ECB8F1000F08D09DF87230002B5ED10BA867
S3150000C3FC2021FFF70BFF59E09DF8723013B90DF1B0
S3150000C40C7E03A3639DF851506D0929D1179BBDF886
S3150000C41C6020079303FA82F2089207A824A98022C7
S3150000C42C09938DF82850FFF7A7FC431C02D18DF811
S3150000C43C905004E080B2802888BF8DF80F511F4BB6
S3150000C44C1B6813B1032024A99847BDF870309DF8DA
S3150000C45C51008DE8580024A907AA1B9BB84710E089
S3150000C46C9DF85A30022B0CD10DF1520010F0BCFE87
S3150000C47C1349FFF7F5F9024618B103200BA9FFF78C
S3150000C48C0FFAA36B93B10BA82021FFF7BFFE002375
S3150000C49CA3630BE00BA901202246FFF701FA6169A1
S3150000C4AC21B100232382204610F01AFC45B0BDE8CA
S3150000C4BCF08F00BF21B80000D0430020AC4700200D
S3150000C4CC39B80000F0B50446B5B00D46174602A8BB
S3150000C4DC002164221E46FCF770F8A36B43B11B883F
S3150000C4ECADF85A30202200238DF84E20A36303E0CA
S3150000C4FC002D48D08DF84E3004F1100106A81022FC
S3150000C50C8DF82D50FBF7D2FF214602A81022FBF71F
S3150000C51CCDFF238CADF82830638CADF82A30636AD6
S3150000C52C94F83420149304F12C01A36A15930DF19D
S3150000C53C2E00FBF7BBFF94F834308DF836301BAD6C
S3150000C54C9DF8E83000932846394608223346FFF713
S3150000C55CB5FA6428044605D90C4840F20D51F3F798
S3150000C56CD7FE00E010B10E95ADF83C403B9B129304
S3150000C57C02A8BDF8F030BDF8F420ADF84C3000211F
S3150000C58CFFF796FC00E0284635B0F0BD90D70300C7
S3150000C59C1FB59DF818400094079C0194BDF82040E7
S3150000C5AC029400240394FFF78DFF04B010BD1FB551
S3150000C5BC00240293BDF8183001920393009422468E
S3150000C5CC2346FFF77FFF04B010BD000070B594B092
S3150000C5DC04460E461546002102A848222BF0AEF959
S3150000C5EC204602A917F013FD18B91D482321F3F7AD
S3150000C5FC8FFE02A817F058F918B919482421F3F739
S3150000C60C87FE2DB99DF82350FF3D18BF012500E08C
S3150000C61C0125204610F076F8B0F5006F13D12046B0
S3150000C62C10F09CF84FF6FF7398420CD09DF823300F
S3150000C63CFF2B08D00B4B1B881B0704D520464FF647
S3150000C64CFE7110F092F80096204602A92A46FF23A6
S3150000C65C15F058FB80F00100C0B214B070BD00BFDD
S3150000C66CF8DA0300A4470020026A094B9A4210B577
S3150000C67C0C460BD1008A10F063F8082201462046BE
S3150000C68CFBF7A2FFB0FA80F0400910BD002010BDE8
S3150000C69C51B80000194B2DE9F3411C780A9F064648
S3150000C6AC0D46BCB1C81C80B200210FF0A5FB80461C
S3150000C6BC08B900241DE00FF005F8314687702A46AC
S3150000C6CC0330FBF7F3FE0E4B1B6893B10520414676
S3150000C6DC98470EE0F8B2214620F0E8FB0028E8D097
S3150000C6EC0094234631462A4626F098FAB0FA80F48E
S3150000C6FC6409204602B0BDE8F08100BFE348002083
S3150000C70CDC4800202DE9F04F0446A7B018468946B0
S3150000C71C012190461E46624D0FF030FBA36C5A1B4E
S3150000C72C554282465541002B37D0002D3FD130461D
S3150000C73C01210FF023FB94F84630054603B1D8B11E
S3150000C74C05EB080A1FFA8AFA504600210FF054FB33
S3150000C75C0746002800F09F800EF0B4FF494683463A
S3150000C76C4246FBF7A3FE0BEB080031462A460FF0B8
S3150000C77CD0FBD046D94600E0074604F110020092E1
S3150000C78C628C0192E26C0292238CA56C484641465F
S3150000C79C2246A847002859D13BE0002D0BBF2F4657
S3150000C7AC0627AB464FF0030B18BF9A4604E0062744
S3150000C7BC4FF0030B4FF0000A204610210022FFB267
S3150000C7CC10F054FD28B92378FF2B14BF2346002301
S3150000C7DC00E00023218C628CCDF8109041F233607E
S3150000C7EC002908BF0146002A08BF024604F1100EB4
S3150000C7FC4020019002910392CDF800E03A46CDF824
S3150000C80C1480CDF818A00DA8594617F013F8074652
S3150000C81C08B9012040E046B130460EF06FFF20B15A
S3150000C82C3846012132460FF081FA1DB194F8463094
S3150000C83C202B02D1B4F8501000E0322194F82420B9
S3150000C84C384602F00102FFF7C1FE28BB3F238DF8E4
S3150000C85C343000238DF8353094F8463013F0EF0F52
S3150000C86C0AD109A8A16BB4F93C20FFF7EDF909A888
S3150000C87C0DA96422FFF780FA0A4B1B683BB10DAA7F
S3150000C88C09940A92ADF82C60012009A99847309BAF
S3150000C89C00201F8000E0182027B0BDE8F08F00BFF5
S3150000C8AC51B80000AC4700207FB5056A0446008AE3
S3150000C8BC15B1114B9D4206D100210A4604B0BDE8C4
S3150000C8CC7040FFF783BE0EF0FDFE0646208A0EF082
S3150000C8DC15FF04F136020092B4F846200192A26CC0
S3150000C8EC02920146A38E304604F12402A84780F03A
S3150000C8FC0100C0B204B070BD51B80000F0B5CFB0A5
S3150000C90C06460D46C86BB1F8401015AAFFF744FA57
S3150000C91C00286AD006AC204600213C22FBF74DFECF
S3150000C92C05F10B07204605F11B011022FBF7BEFD96
S3150000C93C0AA839461022FBF7B9FDB5F84430238412
S3150000C94C02A8B5F842302199BDF988206384FFF717
S3150000C95C7BF99DF89A3003F0EF03202B03D115A831
S3150000C96CFFF74CF941E09DF87930022B3DD12EA909
S3150000C97C802202A8FFF700FA30460FF0E1FE13F012
S3150000C98CC9FD064620B1102100220FF0B0FA06466A
S3150000C99CBDF898309DF879008DE818002EA902AAEA
S3150000C9AC259B1DF04FFF9DF89A50F5B9EEB120234B
S3150000C9BC8DF89A3019A84423394610228DF879300F
S3150000C9CCFBF774FD638CADF87630238CADF87430C0
S3150000C9DC15A8074B259529463246ADF89850219552
S3150000C9ECADF888502793FFF763FA4FB0F0BD00BF40
S3150000C9FC51B8000013B50022034600920A480B49B1
S3150000CA0C0B4A10F025FA044660B10A4B196810F06F
S3150000CA1C67F9208A01210EF009FF02B0BDE810402B
S3150000CA2C0EF050BE02B010BD8053002080D703001C
S3150000CA3C75C600000C3000202DE9F04393B003AD11
S3150000CA4C0C4607469146284600213C2298461A9EDB
S3150000CA5CFBF7B3FD284604F11B011022FBF726FD5C
S3150000CA6C07A804F10B011022FBF720FDB4F84230A5
S3150000CA7CADF82E30B4F84430ADF82C30084BE16BE1
S3150000CA8CB4F8402000953846002E18BF3346CDF832
S3150000CA9C3090CDF83480FFF7E5FB13B0BDE8F0839A
S3150000CAACF18100002DE9F84F0A9CBDF82C90054643
S3150000CABC0F4690469A4600260A9BA11C4B44994267
S3150000CACC43D82078637840453BD3504539D8C8EBDA
S3150000CADC000B4FF0060C0CFB0BFC07EB0C0E0120AD
S3150000CAEC00FA0BF006439EF8030037F80CB0013839
S3150000CAFC9BB2042825D8DFE800F00309111A21009F
S3150000CB0C012B28D1A37805F80B301AE0022B22D181
S3150000CB1C084610F069FB25F80B0012E0042B4FF0C9
S3150000CB2C000016D110F08EFB45F80B0009E09EF8BC
S3150000CB3C040098420FD145F80B1002E0631C45F82F
S3150000CB4C0B30637802331C44B6E72E600120BDE837
S3150000CB5CF88FBDE8F88F0020BDE8F88F03281A4639
S3150000CB6C0199BDF8003003D100201031FAF794BAC0
S3150000CB7C7047000073B504460E4615460021342254
S3150000CB8CFBF71BFD00960195204603490022112355
S3150000CB9CFFF788FF02B070BD30DB0300F0B51E4610
S3150000CBAC531E9FB00D2B0746144601AD07D9002125
S3150000CBBC01200A460B46FAF76FFA2C460BE01223B5
S3150000CBCC0DF106008DF804308DF80520FBF76EFC90
S3150000CBDC0DF106031C44641B102C03D91C48D621EA
S3150000CBECF3F796FB05A800216422FBF7E6FC3B78DD
S3150000CBFCFF2B0CBF1023002309A8394610228DF8F1
S3150000CC0C5A30FBF753FC02238DF8393030464FF27D
S3150000CC1CBF031049ADF83430ADF836301595ADF884
S3150000CC2C584010F083FB08B90B4B1A9305A816F065
S3150000CC3C9BFA05A831460022FFF73AF928B10021E4
S3150000CC4C01200A460B46FAF727FA1FB0F0BD00BFC3
S3150000CC5C05DB03001BDB030069CB0000014BFFF770
S3150000CC6C9DBF00BF1BDB0300014BFFF797BF00BF47
S3150000CC7C20DB0300014BFFF791BF00BF25DB030050
S3150000CC8CF0B5062A95B006460F46144621D807ADD0
S3150000CC9C284600213422FBF790FC8DF815404FF204
S3150000CCACBF03A4B2ADF830300DF116000D23394692
S3150000CCBC22468DF814300234FBF7F8FB064B019331
S3150000CCCC0094029530460221044A05ABFFF73CFA64
S3150000CCDC00E0022015B0F0BDD5A700002ADB03004A
S3150000CCEC01210A4608B50420F4F7E4FE154B1A6830
S3150000CCFC42F001021A60DA6842F08072DA604FF094
S3150000CD0C6043114AC3F8B02F104A00210220C3F821
S3150000CD1C001EC3F8801EC2F8F00015201061C3F87F
S3150000CD2C401E0B490B4808600B49C3F8801E4FF494
S3150000CD3C8071C2F80413D3F8002E0A43C3F8002EF0
S3150000CD4C08BD00BFF0ED00E055CEACC5000004E018
S3150000CD5C001000E0FF0300400D00010010B501219A
S3150000CD6C0F48F4F72BFC0F4B01241C600020F5F741
S3150000CD7C73FB0520022104222346F5F7C5FBFFF7BA
S3150000CD8CAFFF094B1C7000F05FF9234607490848B2
S3150000CD9C402200F02DF9074B1860C00F10BD00BFE4
S3150000CDAC003508001088144213440020D24300209A
S3150000CDBC9CDB030014300020024B1868003018BFAF
S3150000CDCC01207047F0ED00E0054A4170D123037055
S3150000CDDC1378C370090A8170591C117004207047AE
S3150000CDEC124400202DE9F84F91F80080B8F1040F99
S3150000CDFC8346894657D908F10500C5B228F09EFD31
S3150000CE0C4FF6FF77824600242A4B1B681BB9601B22
S3150000CE1C18BF012048E0AC42F9D228F08FFDCAEBCE
S3150000CE2C000080B2B0F5FA7FF1D81CB3012C24D0E7
S3150000CE3CEB1E9C42A5F1020301D1FEB205E09C4219
S3150000CE4C05F1FF3303D1C7F30726DCB219E09C4288
S3150000CE5C02D1ECB25D2614E0AC4211D00BEB04030C
S3150000CE6C394613F8026C3046FBF7E6FA01340746EE
S3150000CE7CE4B206E05B26012403E04646022400E009
S3150000CE8C00264FF06043D3F8802ED207BCD5D3F8DA
S3150000CE9C003EDB05B8D54FF060431A6A002AFAD07B
S3150000CEAC83F82060B0E70020042389F80030BDE841
S3150000CEBCF88F00BFF0ED00E000B5084B91B04022B2
S3150000CECC1868694600F082F8024620B112206946BD
S3150000CEDCD2B210F045F911B05DF804FB1430002005
S3150000CEEC10B5104C1049A1610323236163610F4BEC
S3150000CEFCE3611022002321660D49A3626362E3629B
S3150000CF0C2367E366636722626166A2660949E01DD0
S3150000CF1C2AF0DEFE204608492AF0DAFE2023A37109
S3150000CF2C10BD00BF00500020ACDB030024440020E1
S3150000CF3C14440020B5DB0300B9DB03002DE9F84FE0
S3150000CF4C214B17461A7882468B4699460AB9FFF743
S3150000CF5CC7FF4FF0180808FB0A98D8F87050D8F895
S3150000CF6C6C60B54215D9D8F86840D8F86410641BC3
S3150000CF7CBC4228BF3C465846294422462AF044FC6B
S3150000CF8CD8F868302544A3443F1B9D4208BF0025B2
S3150000CF9C00E00024761BBE4228BF3E4656B118233D
S3150000CFAC03FB0A935846596E324629442AF02CFC48
S3150000CFBC3444354424B1182303FB0A99C9F870503C
S3150000CFCC2046BDE8F88F00BF00500020F8B5074694
S3150000CFDC0E461446F4F709FF2246054631463846F6
S3150000CFECFFF7ACFF04462846F4F705FF2046F8BDCC
S3150000CFFC2DE9F843134D1E462B7881468846174675
S3150000D00C0BB9FFF76DFFF4F7F0FE696900241823DE
S3150000D01C03FB04535A6E1AB101348C42F7DB0AE057
S3150000D02C8C4208DAC3F86090C3F864809F661A676E
S3150000D03CDA665E6701E04FF0FF34F4F7DCFE20465B
S3150000D04CBDE8F88300500020FFF74ABF38B5022030
S3150000D05CFCF772FC05460020FCF76EFC064C2070B3
S3150000D06C0120FCF769FC054B01461860EAB22078F2
S3150000D07CBDE838400DF0DCBA44440020484400209A
S3150000D08C38B5A0F10B030F2B04460D4603D9064801
S3150000D09C5121F3F73DF9054B054A1C44137804F866
S3150000D0AC0B5C0133137038BD6EDC03003444002076
S3150000D0BC4C44002070470000014B00221A70704748
S3150000D0CC4D44002010B59AB04023009040F2232026
S3150000D0DC0024029040F222200193039004910592C1
S3150000D0EC06941A4608A82146234616F0A3FB28B137
S3150000D0FC009408A90122FF2314F004FE1AB010BDF7
S3150000D10C70B58AB0054601AC24220E462046002195
S3150000D11C2AF014FC2A466B682046072129F0D8FA17
S3150000D12C051B242D03D90548CE21F3F7F1F830461B
S3150000D13C2146AAB2FFF7C6FF0AB070BD7ADC03001F
S3150000D14C2DE9F047A4B0804605AE79220F4630464D
S3150000D15C00212AF0F3FB304607214246D8F804306A
S3150000D16C394D29F0B5FAD8F840A0044605F1300936
S3150000D17CAB68BBB1284651460822FBF725FA88B99D
S3150000D18C102201A8D8F8401008F11409FBF78EF903
S3150000D19C484603A915F01CFF01A8494600F0E8F81B
S3150000D1AC824604E010354D45E2D10025AA460323FC
S3150000D1BC637004F1040900204946D8F8302010F0B9
S3150000D1CC21F8BAF1000F21D0204B93F80080B8F16A
S3150000D1DC000F1BD10523D5F808A0ED68637418233E
S3150000D1ECE37404F1140001A91022FBF75FF9404621
S3150000D1FC04F124012A4610F005F85246404604F183
S3150000D20C28010FF0FFFF04F12C0206E00D236374D6
S3150000D21C0223E374637504F11602C9EB02090E23AB
S3150000D22C84F80390043202F8033C941B792C03D93E
S3150000D23C0748BE21F3F76CF838463146A2B2FFF721
S3150000D24C41FF24B0BDE8F087504400208044002004
S3150000D25C7ADC0300014B1870704700BF18300020B1
S3150000D26C03460F4870B5154682680E464AB1826968
S3150000D27C4AB1826A52B10B485321BDE87040F3F7AC
S3150000D28C47B8044604E000F1100401E000F1200464
S3150000D29C204619460822FBF709F9A660E56070BD21
S3150000D2AC504400207ADC0300F0B50C4697B08D187C
S3150000D2BC0646002101A85422271DFBF77EF9BD4224
S3150000D2CC23D92146002011F8013BADF804300FF0AC
S3150000D2DCB9FFBDF804300497000A012B029005959E
S3150000D2EC05D0082B11D12323094C1A4605E0094B0E
S3150000D2FC1B7853B1084CA523B52201A8294629F061
S3150000D30C2BFA10B101A83146A04717B0F0BD00BFEB
S3150000D31C0DD10000183000204DD10000F8B5134B8C
S3150000D32C1D8806460F462846EDB10EF0CBF904468D
S3150000D33C214630460FB9102207E00822FBF744F9C4
S3150000D34C48B9384604F110010822FBF73DF9B0FA4A
S3150000D35C80F0400900E0002030B9284601210EF08B
S3150000D36C65FA0546DFE7F8BD2046F8BD8244002085
S3150000D37CF8B50F460546FFF7D1FF014648B105F152
S3150000D38C0800083125E0FBF779F804F8010FB442E0
S3150000D39CF9D100212846FFF7C1FF014618B1EC1D53
S3150000D3AC05F10F06EFE718200EF026FD0446A8B18E
S3150000D3BC0B4E012132880EF0B9FC204634800EF05B
S3150000D3CC81F9294604461022FBF770F804F1100087
S3150000D3DC39460822FBF76AF80120F8BDF8BD00BFF4
S3150000D3EC824400201FB50C4B1C8854B120460EF00D
S3150000D3FC69F9FAF74FFE204601210EF017FA04469A
S3150000D40CF3E72146102268462AF098FA6846FAF79E
S3150000D41C41FE04B010BD00BF8244002001480EF04E
S3150000D42C05B900BF8244002070B5044608B9012036
S3150000D43C70BD2A4A034600F110061868596815464D
S3150000D44C03C50833B3422A46F7D118682860012170
S3150000D45C234800F093F823480121F4F7AFF8224B48
S3150000D46CF822DA67A27BE17A120442EA0122217AD7
S3150000D47C0A439A67207801280BD11C4A207B02218B
S3150000D48C116007225A67617B04220023F5F73CF8EA
S3150000D49C06E002280BD1154A0121116005225A67B4
S3150000D4ACE07B217C04220023F5F72EF80DE00328FF
S3150000D4BC05D10E4A0521116001225A6705E00028A4
S3150000D4CCB5D10A4A1060586770BD607AA17A0422F9
S3150000D4DC0123F5F719F8002070BD00BF8844002021
S3150000D4EC0034060000350800000008408444002083
S3150000D4FC4FF0804308B1024A00E0024A13607047BD
S3150000D50C944008469440084470B504460F4DA8B1A3
S3150000D51C0F4E706848B10F4800F056F8736800EB70
S3150000D52C5300B0FBF3F0013800024FF603732B6087
S3150000D53C094B1B681843094B186001E003232B6049
S3150000D54C2046FFF7D5FF002070BD00BF7C000844C5
S3150000D55C8844002000340600844400207C000846E1
S3150000D56C044BD3F89430002BBCBF034BC3F880009C
S3150000D57C704700BF0040084000000840C0F303237A
S3150000D58C042B10B502460C4607D0052B09D0012BEF
S3150000D59C05D0BDE81040F4F711B8084B02E0084B73
S3150000D5AC00E0084BC2F3043101228A4014B103F1A6
S3150000D5BCC06301E003F180631A6010BDC8400E40E1
S3150000D5CC00400E40CC400E4008B500F47813B3F57D
S3150000D5DC802F1FD009D8BBB1B3F5003F32D1F7F776
S3150000D5EC09FB1A4BD3F808311EE0B3F5002F17D000
S3150000D5FCB3F5202F1BD0B3F5C02F23D1F7F7FAFACA
S3150000D60C124BD3F810310FE0F7F7F4FA0F4BD3F8AF
S3150000D61C003111E0F7F7EEFA0C4BD3F80C3103E0BE
S3150000D62CBDE80840F7F7E6BAC3F3082306E0F7F7B8
S3150000D63CE1FA064BD3F81431C3F304230133B0FBE0
S3150000D64CF3F008BDBDE80840F4F7F0B800400E4012
S3150000D65CC0F30313062B05D0072B09D1054BD3F8C2
S3150000D66C380102E0034BD3F81001C0F308207047D1
S3150000D67CF3F7E2BF00400E4008B9024B00E0024B44
S3150000D68C18687047A8440020A4440020064B027B6F
S3150000D69C1A70064B02681A60054B42681A60054BF5
S3150000D6AC82681A6000207047A0440020A84400201D
S3150000D6BCA44400209C44002047F6FF739A4270B5A0
S3150000D6CC0D4614465ED0304B1B682BB12F4B1B6896
S3150000D6DC13B12F4B1B6813B92A210AF09BFC284661
S3150000D6ECFFF7CAFF012D0FD1294B1B6806200E33FD
S3150000D6FC33F9022DA24205DD013882B290B2002A1E
S3150000D70CF6D11046013036E0B0F900108C4203DC3D
S3150000D71C2049A142B8BF21462822A1F1C80393FB98
S3150000D72CF2F31D4A446815785B429BB21AB29542D5
S3150000D73CDCBF05F1FF339BB218B204EBC00001331A
S3150000D74C4288406812FB010020EAE0709BB24FF45D
S3150000D75C7A7200F5FA70B0FBF2F01AB2AA420CDB40
S3150000D76C02F10052013A34F83230984228BF18467A
S3150000D77C002808BF0120C0B270BD34F83260B04238
S3150000D78CDAD9EDE7FF2070BDA8440020A4440020A0
S3150000D79C9C440020C880FFFFA044002038B5284BCD
S3150000D7AC1B680D4614462BB1264B1B6813B1264B32
S3150000D7BC1B6813B92A210AF02DFC012D0BD1072C5D
S3150000D7CC01D81CB100E00724013CE4B21E4B1B68D7
S3150000D7DC33F8140031E074B32846FFF74DFF012CE3
S3150000D7EC436801D8408828E0002D0CBFFC22F822A3
S3150000D7FC944201DB008820E0144A1278013AD2B236
S3150000D80C0021C8B2904205D203EBC10501312D8926
S3150000D81CA542F6D203EBC0034FF47A704443586822
S3150000D82CB3F90220201A022392FBF3F3184490FB5F
S3150000D83CF2F080B201E04FF60C6000B238BD00BFCA
S3150000D84CA8440020A44400209C440020A0440020AE
S3150000D85C08B528B9034B1960034B18680AF0DAFBB4
S3150000D86C08BD00BF1C300020AC44002002207047CD
S3150000D87C0020704700207047012070470020704739
S3150000D88C38B5064B04460D46186000F06FF8204676
S3150000D89C2946BDE8384000F060B800BFAC44002013
S3150000D8AC0120704700F0C0BC0846114600F07DB858
S3150000D8BC70470846114601F033BB000030B50546EB
S3150000D8CC0548006804680846A44611461A462B46C5
S3150000D8DCBDE83040604700BF20300020014B1B687C
S3150000D8EC5B68184720300020014B1B689B68184763
S3150000D8FC2030002010B5034C24686469A446BDE8AA
S3150000D90C1040604720300020014B1B689B6918476C
S3150000D91C2030002008B50C3000F0FDF908BD08B524
S3150000D92C0C3000F00AFA08BD08B50C3000F014FAF9
S3150000D93C08BD08B50C3000F0D3F908BD08B50C309D
S3150000D94C00F054FA08BD7047431E012B03D9031F80
S3150000D95C5842584170470120704710B5044601F0F3
S3150000D96C4BFA00280CBF2046002010BD10B504460B
S3150000D97C00F0CEFB034AA36A002B08BF1346024AEB
S3150000D98C136010BD53D900002430002038B50C4666
S3150000D99C00F10C0500F048FC012804D1284621466C
S3150000D9AC00F01CFC38BD022038BD10B50C4600F04A
S3150000D9BC25FC1CB100F038FC0128FBD110BD000081
S3150000D9CC73B50D4B0E46694604461D6800F016FEEF
S3150000D9DCB6F91220247947F6FF739A4209D02846E5
S3150000D9EC9DF80010FFF768FE84428CBF00200120D2
S3150000D9FC00E0012002B070BDAC4400202DE9F04FD0
S3150000DA0C714A724F136889B004460093656A3B6885
S3150000DA1C019300209D428DF816000E468DF81700D6
S3150000DA2CB4F80290D4F820A0904603D115B149451C
S3150000DA3C00F0C680BAF1000F00F0BD80DAF80820BD
S3150000DA4C002A00F0B880DAF80C20002A00F0B38027
S3150000DA5C0022DAF80C108A421ED2DAF808104FF0BF
S3150000DA6C180B0BFB021BBBF80E10B14212D8BBF8FD
S3150000DA7C1010B1420ED301252046594602928DF85C
S3150000DA8C1750FFF79DFF029A18B18DF816505D4698
S3150000DA9C02E05D460132DCE7A4F10C0306A9204640
S3150000DAAC039300F0ABFD204600F0AEFD9DF816206A
S3150000DABC029012B1204621790CE09DF81720002A1D
S3150000DACC7BD09DF818100398B5F91220FFF7F4FDDA
S3150000DADC0146204600F068FDD8F8002072B3524586
S3150000DAEC23D1D7F800B0BBF1000F1ED0AB451CD12B
S3150000DAFCB14504D1C4F824B06680002060E02A4603
S3150000DB0C20463146002300F081FD05460028F1D061
S3150000DB1C0299204600F048FD2C4B20461A684946CF
S3150000DB2C002300F073FD28464AE0116831B1DAF89B
S3150000DB3C0000814202D12046516802E0DAF800105A
S3150000DB4C204601F0DBF88346C0B92046296801F06F
S3150000DB5CD5F8834690B965626680204631462A46DA
S3150000DB6C0123C8F800A03D6000F050FD834628B99B
S3150000DB7C174B03981B682946984720E0009BC8F86A
S3150000DB8C0030019B3B60009B1BB12046196801F0DD
S3150000DB9CB5F82046029900F007FD3B687BB1196881
S3150000DBAC204601F0ABF8094B20461A68494600237B
S3150000DBBC00F02CFD03E0032002E0012000E05846B3
S3150000DBCC09B0BDE8F08F00BFB0440020B44400207B
S3150000DBDC24300020F8B50F1C18BF012706460D4649
S3150000DBEC38461F210024FFF733FE3846356274622F
S3150000DBFC1F21FFF72DFEE86823464FF6FF72D9B2B8
S3150000DC0C81420CD2AC68182707FB0141CC8994429F
S3150000DC1C01D20CB904E0144601332246EFE7144650
S3150000DC2C30462146FFF7EAFE2046F8BD408870478D
S3150000DC3CF8B50C78074620460D46FFF785FE88B1E9
S3150000DC4C6E783046FFF780FE60B13443620709D424
S3150000DC5C00F0EAFA430707D438462946BDE8F840EF
S3150000DC6C00F080BC0120F8BD0220F8BD08B50C30D0
S3150000DC7CFFF7DEFF08BD70B5064608780C46FFF7C1
S3150000DC8C63FE80B165782846FFF75EFE58B1042D19
S3150000DC9C09D000F0C9FA830707D430462146BDE8FF
S3150000DCAC704000F06DBC012070BD022070BD08B53F
S3150000DCBC0C30FFF7E0FF08BD37B5DDE906450C3043
S3150000DCCCCDE9004500F0F8F903B030BD08B50C30CD
S3150000DCDC00F0CEFF08BD08B50C3000F04FFB08BDB8
S3150000DCEC38B505460C46FFF789FE28B92846214665
S3150000DCFCBDE8384000F0E5BA38BD38B505460C46E7
S3150000DD0C00F0D0FA28B128462146BDE83840FFF786
S3150000DD1C75BE022038BD38B505461446FFF7EDFF33
S3150000DD2C28B928462146BDE8384000F097BD38BDD5
S3150000DD3C08B50C3000F0C2FA08BD70B5064615469B
S3150000DD4C1C46FFF7DAFF30B9304629462246BDE8B5
S3150000DD5C704000F08DBD70BD70B5064615461C466C
S3150000DD6CFFF7CBFF30B9304629462246BDE8704056
S3150000DD7C00F024BE70BD38B500F10C040D462046EB
S3150000DD8C002100F01DFC2046294600F007FC38BD9A
S3150000DD9C08B50C3000F032FC08BD73B504460E46CF
S3150000DDAC694600F10C05FFF7F3FF9DF800103246AB
S3150000DDBC2046FFF781FC0146284600F001FC02B024
S3150000DDCC70BD37B500F10C0569460446FFF7E0FF58
S3150000DDDC284600F019FC9DF8001002462046FFF775
S3150000DDECDDFC03B030BD0C3000F046B900F0F2BFDC
S3150000DDFC00F0F3BF7047000010B50378990704468E
S3150000DE0C2BD5426A4AB36FF34103037053691B68FF
S3150000DE1C5A1C04D01846BDE8104001F00FBDD0E9DD
S3150000DE2C1223002203F00403134304D1037843F0B6
S3150000DE3C0203037010BD4FF4803101F080F9D4E970
S3150000DE4C122302400B4052EA030106D00349A4F107
S3150000DE5C0C000968BDE81040084710BD343000209E
S3150000DE6C00000000574B2DE9F74317461E6853A3D5
S3150000DE7CD3E9002302400B40134304460D4669D0F8
S3150000DE8C514B00F400284FF00009D3F81C1158EA46
S3150000DE9C090318BF4D4B4FF0000200F480184FF0E9
S3150000DEAC000918BF83E8060058EA09031CBF484B53
S3150000DEBC83E8060000F080520023134309D0454B3B
S3150000DECC1B6803F07F43B3F1007F02BF424B022273
S3150000DEDC1A6004F00102002313432DD04FF0000802
S3150000DEEC0022002300210120CDF80080CDF804800B
S3150000DEFC03F0C4FE012003F0BDF8414670820120F8
S3150000DF0CFFF753FD354B1A784FF400130AB1344A18
S3150000DF1C00E0344A1360344B1A683AB133496FF057
S3150000DF2CFF00086001F1007102400A6000221A60CD
S3150000DF3C337B43F008033373002205F004031343C9
S3150000DF4C08D006F10C00012101F0F9F825F00405C2
S3150000DF5C04430D43D6E9152314401D4054EA05032A
S3150000DF6C18D0234B2246196830462B46884717494A
S3150000DF7C4FF0FF334FF0FF32C1E90023144904F090
S3150000DF8C08040025C1E9002354EA05031EBF194BFA
S3150000DF9C00221A60FB070DD51749184A0868136842
S3150000DFAC00211160164A012111701BB103B0BDE8A6
S3150000DFBCF043184703B0BDE8F08300BF010018100A
S3150000DFCC04000000AC44002000500840283000201B
S3150000DFDC38300020081F002100400846C7440020A6
S3150000DFEC1860084618600844B844002018700844A5
S3150000DFFC34300020CC440020D4440020C0440020FF
S3150000E00CD044002070B568B3184B19495C6B1A6B79
S3150000E01CD1F88C1040239340013BC1F381119AB285
S3150000E02C144B032904F100541B68CEB20AD1002507
S3150000E03C99B2083929441140615C41550135082DC6
S3150000E04CF6D10CE002290FD19BB2991E1140013B6F
S3150000E05C615C01801340E35C41EA03210180067296
S3150000E06C002070BD012070BD022070BD001008405C
S3150000E07C00400840FC1E002107B591B10B7B0BB18B
S3150000E08C0B4B00E00B4BD3E90023B3F1FF3F08BF6A
S3150000E09CB2F1FF3F07D02830009103F04CFC002072
S3150000E0AC02E0012000E0022003B05DF804FB00BF93
S3150000E0BC38300020283000202DE97343DDE908456F
S3150000E0CC0646D0E9120102EA040803EA050920EA29
S3150000E0DC020021EA030140EA080041EA0901C6E907
S3150000E0EC120122F00100194600EA04022B4000241A
S3150000E0FC42F0805243F004030094019403F0BEFDF9
S3150000E10C3046FFF779FE204602B0BDE8708300006A
S3150000E11C034A0368002B08BF1346024A1360704774
S3150000E12C01DE0000343000202DE9F041044686B0B3
S3150000E13C15461F460E46002942D0002A42D000281A
S3150000E14C42D0DFF89480F3F741FED8F800309C42B9
S3150000E15C08D11F4B1B88ADF806301E4B1C88F3F7F5
S3150000E16C39FE1EE0F3F736FE204602A90DF1060233
S3150000E17C01F08AFA044638B39DF8083013F0F70F0D
S3150000E18C0DD0F3F723FE124BBDF806201A80114B67
S3150000E19CBDF80A20C8F800401A80F3F71BFEBDF83C
S3150000E1AC0A407B19A342BDF80630C4BFE01B85B2FA
S3150000E1BC3B4431462A469BB2012001F0EBF804E0C1
S3150000E1CC084602E0104600E0204606B0BDE8F081A5
S3150000E1DCC4440020BC440020CC44002031F00F0085
S3150000E1EC01BF054A136801F00F0123F00F0306BFA8
S3150000E1FC0B431360012070475C1F0021032811D8C4
S3150000E20CDFE800F00B02060900221146012007E0A8
S3150000E21C00220121FAE7012200E0002211461046F5
S3150000E22C03F070BF704700001C4B5B6803F0706313
S3150000E23CB3F1E06F30D010D8B3F1407F20D005D8C1
S3150000E24CB3F1807F28D0B3F1007F04E0B3F1806F87
S3150000E25C22D0B3F1A06F17D11EE0B3F1206F11D00D
S3150000E26C07D8B3F1006F0DD0B3F1106F0CD10520A8
S3150000E27C7047B3F1306F05D0B3F1406F02D003E0B5
S3150000E28C0320704704207047054BDB6813F0060F1C
S3150000E29C14BF04200120704702207047004008403C
S3150000E2AC00500840044BD3F8883013F0A00F0CBF75
S3150000E2BC01200020704700BF00400840084602F0CD
S3150000E2CC37BF08B5002003F07BFE002008BD000018
S3150000E2DC0138C0B2022898BF0F4B104A98BF53F8AA
S3150000E2EC2010936988BF002123F060530B43936180
S3150000E2FC0B4B4FF400121A600A4A136F23F00603F5
S3150000E30C43F004031367084B4FF080511960042344
S3150000E31CC2F8843000207047B0DC0300006008406F
S3150000E32C1860084600000840944008460A4B06222E
S3150000E33C1A600A4B0020C3F88400094B4FF0805238
S3150000E34C1A6003F5FC5304334FF400121A604FF0B5
S3150000E35C60521A60704700BF700008440000084005
S3150000E36C94400844022308B1024A00E0024A1360B2
S3150000E37C704700BF440008464400084438B50B07F4
S3150000E38C0C46154606D512F0080F14BF224A234A2E
S3150000E39C08231360E00706D515F0010F14BF1E4ABB
S3150000E3AC1E4A01231360610707D515F0040F14BF2D
S3150000E3BC1B4A1C4A4FF400731360A20703D5C5F31E
S3150000E3CC4000FFF7CFFFE30606D515F0100F164BEE
S3150000E3DC14BF00221B22DA6414F0600F1AD005F069
S3150000E3EC60052C40402C114B0FD0602C03D0202CF8
S3150000E3FC0ED101220DE00E4AD2684AB111680129EC
S3150000E40C06D9526942F0010203E040F2011200E023
S3150000E41C00221A61002038BD440008464400084416
S3150000E42C1C6008461C600844000008405C1F002164
S3150000E43CEC1F002108B5034BD3E9000102F082FB67
S3150000E44C08BD00BFC052002013B5012300210024D3
S3150000E45C002002468DE818000B4603F00FFC022044
S3150000E46C02F082F9014B1C6002B010BDC0440020C2
S3150000E47C02292DE9F74380460D461646994602D1E8
S3150000E48CFFF7E2FF2DE0194CF3F7A0FC22680746D4
S3150000E49C0AB1B2421DD1164A266001230020002182
S3150000E4ACC2F800900246009301930B4603F0E6FB7C
S3150000E4BC104B002240461A7002F060FB003518BF64
S3150000E4CC0125024600950B46022002F09FF90546EF
S3150000E4DC00E000253846F3F77DFC15B925600120D0
S3150000E4EC00E0002003B0BDE8F08300BFC04400206C
S3150000E4FCD4440020D0440020044BDB6D5B055ABF8E
S3150000E50C034B1878012000F00100704700500840BA
S3150000E51CD0440020022002F037B9000070B5446ADE
S3150000E52C0E46154604B16469E90701D503F00CF8EB
S3150000E53CEA0314D535686B1C0CD1094BDB6823B187
S3150000E54C1A6812B1D86801F087F901F065FD054625
S3150000E55C306002E0284601F071F904B1256070BD07
S3150000E56CEC1F002110B54A78044C0B782088120653
S3150000E57C42EA034303432360002010BD081F002119
S3150000E58C054A0B785088497843EA004343EA01234D
S3150000E59C13600020704700BF081F002100F12803FC
S3150000E5AC0846194601F09EBF08B590F86030032B5B
S3150000E5BC04D0084601F0C4FD002008BD022008BDA9
S3150000E5CC70B590F86030032B05460E4614D02971B1
S3150000E5DC416A79B1FFF7F4F940B968622846FFF74A
S3150000E5EC25FB01462846FFF709FA03E02846314683
S3150000E5FCFFF7DAFF002070BD022070BD08B5084693
S3150000E60C01F08EFD002008BD01F094BD2DE9F0410E
S3150000E61C1F464369012B06460C46904638D0FFF739
S3150000E62C03FE012803D001200146FFF7BEF9B8F816
S3150000E63C0C30D8F80450E41AA4B23F2C81BFD8F899
S3150000E64C0830A2099B0102FB035588BF04F03F0466
S3150000E65C02F092FDA84206D102F094FDD8F80830DB
S3150000E66C984200D16FB12846D8F8081002F054FE33
S3150000E67C88B902F0A3FD08B1084800E0084802F08A
S3150000E68CEFFE3046FFF7B8FBE0B2012102F0C8FE00
S3150000E69C0020BDE8F0810220BDE8F081C0CF6A0001
S3150000E6ACE067350000294FF0200114BF0A4600220E
S3150000E6BC08B504F09BF8003018BF012008BD2021D6
S3150000E6CC04F0A8B808B5084602F058FA024B4042C6
S3150000E6DC1860002008BD00BF041F002170B5144649
S3150000E6EC0E46F3F773FB104B02221A600F4B0546CE
S3150000E6FC5868C0F30360C21F022A01D90C2803D143
S3150000E70CD3F888309B0305D42146304600F070FEC2
S3150000E71C044600E00324064B022228461A60F3F74F
S3150000E72C59FB204670BD00BF884008460040084093
S3150000E73C8840084400294FF0080114BF0A460022FD
S3150000E74C04F054B800294FF4807114BF0A46002215
S3150000E75C04F04CB8082104F05DB800004FF4807347
S3150000E76C08B9024A00E0024A13607047884008461E
S3150000E77C8840084438B5304B1A78D2070C46054603
S3150000E78CC1F3400106D54FF4806209B92B4800E06D
S3150000E79C2B4802601A78900706D54FF4006209B927
S3150000E7AC264800E0264802601A78520706D54FF430
S3150000E7BC806209B9234800E0234802601B781807D9
S3150000E7CC06D54FF4006309B91E4A00E01E4A1360D1
S3150000E7DC14F0040F14BF1D4A1D4A4FF480631360D6
S3150000E7EC04F01803182B1B4B01D1002207E021075C
S3150000E7FC01D5012203E0E206F7D540F201125A6177
S3150000E80C2846FFF75CFF18B104F00100FFF7A6FFDE
S3150000E81C284600F0B4FB58B12846FFF750FF38B134
S3150000E82C0020032100F0BFFD431C03D00A4B5860A7
S3150000E83C002038BD032038BDC6440020A000084681
S3150000E84CA0000844A4000846A40008441C6008461E
S3150000E85C1C6008445C1F0021FC1E002110B5FFF74C
S3150000E86C89FF044608B903F08BFB204610BD000057
S3150000E87C2DE9F74F07461546FFF77CFF002840F0B9
S3150000E88C8780DFF83481002D5ED0E88895F9031077
S3150000E89C02F01AFCAB782C786A7833B1013BA242B1
S3150000E8ACDEB208D34FF0010A02E01C461E469A4619
S3150000E8BCA346144602E0A3464FF0010AA888B5F811
S3150000E8CC0090B9FA89F902F059F94FEA591980B250
S3150000E8DC3549364A4FF60403B9F1000F10D0896D4D
S3150000E8EC89B2994204BF4FF6050313802E4B18BF0D
S3150000E8FC118001229A65082480229A67A34606E0B5
S3150000E90CB2F800E09E451CBFC1F858E01380264BB8
S3150000E91C28B101384FF6FF72904228BF1046D862D4
S3150000E92C00230193009607F12800594622465346C8
S3150000E93C02F03AF9B9F1000F03D01D4B4FF48012D7
S3150000E94C1A60AB68C8F800301A4B20221A600120F6
S3150000E95C02F05AF9F3F73AFA054602F0C9F8D8F874
S3150000E96C0040BCB1042001F00FFF10B1042001F0EF
S3150000E97CFBFE204602F002F9012402460B460094E7
S3150000E98C042001F043FF28B92846F3F723FA07E0E1
S3150000E99C044605E002F0BEF8002403F0D3FAF3E7D0
S3150000E9AC204603B0BDE8F08F005008403030002000
S3150000E9BC4C50084688400846C84400207FB5064699
S3150000E9CC0D46134672B3128862B393E8070001AC86
S3150000E9DC84E80700197861B1BDF80A00B3F9042080
S3150000E9EC02FB0102ADF80A209DF80520521A8DF89B
S3150000E9FC05209DF80500012201219140814201D29A
S3150000EA0C0132F9E79B88490800FB0311D140D2B2C9
S3150000EA1CADF808108DF804208DF8052030462946EF
S3150000EA2C224602E0304629461A46FFF721FF04B07B
S3150000EA3C70BD000037B50DF106020D4600F024FE40
S3150000EA4C044688B185B12B7813F0F70F0CD0F3F789
S3150000EA5CBDF9074BBDF806201C60064B1A80064B09
S3150000EA6C6A881A80F3F7B6F9204603B030BD00BFAA
S3150000EA7CCC440020C4440020BC44002030B50246DF
S3150000EA8C85B00C4608B901205BE00029FBD00228B2
S3150000EA9C06D800210A4600F0F7FD02460028F2D0FF
S3150000EAAC118892788DB209B2002949DB02F0070170
S3150000EABC052945D9CB1F59425941C2F3001363733B
S3150000EACCC2F380132374C2F3C003C2F34012A274C0
S3150000EADC2173637402F032FAC2B25AB3237A002B52
S3150000EAECA5F106039BB24FF0010002A908BF022252
S3150000EAFC00F050FC9DF809305B00E3739DF808307C
S3150000EB0CA373237AA3B1104B9DF80B2018689DF8BC
S3150000EB1C0C3000941B0443EA02239DF80A2013438D
S3150000EB2C9DF80D20343043EA0262002302F0C5FE44
S3150000EB3C002006E08023E273A37322602272F7E7BB
S3150000EB4C022005B030BD00BFAC440020B3FA83F3FD
S3150000EB5C192B10B5C3F1190301D0002B04DD062BBC
S3150000EB6CA8BF0623DBB200E00023981D01248440D5
S3150000EB7CA4B2A24228BF2246084611461A4600F005
S3150000EB8C99FB204610BD0000094B0121D3F8EC205F
S3150000EB9C996203F18063243352074FF400511960D4
S3150000EBAC41BF03F10073C83304221A60704700BFDB
S3150000EBBC0010084038B50C4BD3F8EC5003F18063C9
S3150000EBCCEC334FF480641C60084B0020186003F093
S3150000EBDC81FA074B4FF400521A606A0542BF03F1E3
S3150000EBEC007398331C6038BD00100840CC440020DC
S3150000EBFC5410084438B58A78CB789A4205460C46A8
S3150000EC0C2BD1487810B9FFF791FB01E0FFF760FBB9
S3150000EC1CA37823B9124B40F6FF725A6202E02846DB
S3150000EC2CFFF7B2FFE07868B90D4B40F6FF725A65F4
S3150000EC3C03F1C063A3F6BC7360221A60094B402231
S3150000EC4C1A6038BD084B60221A602846FFF7B2FFDF
S3150000EC5C064B40221A60002038BD012038BD00BF8B
S3150000EC6C0010084088400844440008448840084680
S3150000EC7C4B1C1FBF01F30E01034BC1F30E01002009
S3150000EC8C14BF19640120704700300840F7B50746D9
S3150000EC9C0C46174D31B90721224603F0A7FD2C600F
S3150000ECAC6C6022E0134B07261E600B792B7002A8B2
S3150000ECBC4B7940F8043D012103F0F0FD019BC2B2F3
S3150000ECCCD34000F00F0040EA03106870A379AB70D4
S3150000ECDCE379EB7023686B602379074A0133936100
S3150000ECEC38463146324603F081FD03B0F0BD00BF15
S3150000ECFC541F002104000844000008402DE9F04789
S3150000ED0CDFF8CC902F4CD9F8A0A0E768D9F8A480EE
S3150000ED1C00F128060546304602F0A6F8D9F8A010F0
S3150000ED2CE468D9F8A42051450AD027480378C1F3E2
S3150000ED3C802E6EF30003C1F3C02161F3410303700F
S3150000ED4C42450AD020490B78C2F3802060F3820337
S3150000ED5CC2F3C02262F3C3030B7029894FF6FF730B
S3150000ED6C994204D0194B1B680BB128469847BC42F4
S3150000ED7C21D01CB1216811B1A16800E021462846BA
S3150000ED8CFFF784FF3CB1216841B123692BB19A6826
S3150000ED9C1968DC8904E0214600E019460A460C464F
S3150000EDAC304602F086FD58B93046A1B202F073FD2A
S3150000EDBC304602F078FD2B7843F002032B700020CE
S3150000EDCCBDE8F087EC1F0021C6440020D844002083
S3150000EDDC00000840084602F04DB908B501F0F2FCF7
S3150000EDEC01F0B0FE08BD000002480021482228F0C0
S3150000EDFCA5BD00BF0C1F00212DE9FF4104460023D1
S3150000EE0CC0F88C300393A4F84030A4F84230642345
S3150000EE1CA4F84430A4F84630A4F84830A4F84A3094
S3150000EE2CA4F84C30A4F84E3088464FF6FF730021F8
S3150000EE3C00F10C060020C4E91501A3821120F2F79B
S3150000EE4C53FC042804D1174B5D6815F4403506D0E5
S3150000EE5C0227B8F1000F21D02046C0471EE03046ED
S3150000EE6C03F000F93046FFF7BFFF0F4B60225A64E0
S3150000EE7C03A93046FFF7BEFED4F88C2007464FF0A8
S3150000EE8CFF313046FFF77AFA4FF080500421009597
S3150000EE9C019502460B4602F0F1FEDAE7384604B05D
S3150000EEACBDE8F08100300E400000084010B50C465D
S3150000EEBCFFF79AFF94B1A278082A11D8E1780829AD
S3150000EECC0ED8084B60681860207883F84400607888
S3150000EEDC83F8450042EA011283F84720002010BD52
S3150000EEEC012010BD0C1F0021012A70B514D8032B6C
S3150000EEFC12D80A48042490F84650064614FB0234ED
S3150000EF0C0120A04011B12843C0B201E025EA00005F
S3150000EF1C86F84600002070BD012070BD0C1F002134
S3150000EF2C02F042BD70B50C46054600F1280609886C
S3150000EF3C383002F09BFC6188208005F1400002F01D
S3150000EF4C95FCA188608005F13E0002F08FFCE188FB
S3150000EF5CA08005F13C0002F089FC2189E080304656
S3150000EF6C02F091FC61892081304602F094FC6081AC
S3150000EF7C304602F098FC002070BDFEF7C5BA802121
S3150000EF8C03F048BC08B50249FEF724FE002008BD74
S3150000EF9CDCDC030070B5164B88B000211B88ADF87D
S3150000EFAC143005AD02260B468DE8420002950A4642
S3150000EFBC044603F039FC0346B8B9042201920096C4
S3150000EFCC1A4602952046012103F02EFC034660B931
S3150000EFDC08220192012106AA06900790009002923F
S3150000EFEC20460A4603F020FC0346184608B070BDBE
S3150000EFFCBCDC03007FB58DF81410090A8DF81510CA
S3150000F00C531C002102228DE8060005AA0292DBB2EF
S3150000F01C0A4603F009FC07B05DF804FB7FB58DF8D2
S3150000F02C1410090A8DF81510531C022104228DE8C0
S3150000F03C060005AA029201210022DBB203F0F4FBC2
S3150000F04C07B05DF804FB1FB54FF0080E0291531C78
S3150000F05C012100228DE80440DBB20A4603F0E4FBF2
S3150000F06C05B05DF804FB08B500294FF4803114BFD8
S3150000F07C0A46002203F0BAFB002008BD08B5002999
S3150000F08C4FF0807114BF0A46002203F0AFFB00203C
S3150000F09C08BD000008B500294FEA4343084903F4AC
S3150000F0ACF01308BFB021002A43EA010314BF4FF442
S3150000F0BC8032002203491A4303F098FB002008BD56
S3150000F0CCB0000001B8011F010D4B5A68C2F3036270
S3150000F0DC911E01294FF0020001D9072A0FD1094AC6
S3150000F0EC1060D3F8880010F4003002BF064B1022D3
S3150000F0FC1A60064B4FF0020218BF02201A607047C6
S3150000F10C004008408840084690400846884008441D
S3150000F11C07B502A9052301F8043D0122FFF7DEFA23
S3150000F12C03B05DF804FB38B504460D46F2F74EFE07
S3150000F13C00232561E360BDE83840F2F74BBE38B5D5
S3150000F14C05460C46F2F742FE2B691C40EB6823433E
S3150000F15CEB60F2F73FFE00200CB9002138BD04210C
S3150000F16C38BD38B505460C46F2F730FE2B691C4007
S3150000F17CEB6823EA0404EC60F2F72CFE204638BD5B
S3150000F18C8069704773B5054614460E4679B94FF03B
S3150000F19CFF330193D2B9EC6828462146FFF7E1FF0D
S3150000F1AC284601A92246FFF7B9F966B916E00B689D
S3150000F1BC0193002AEFD01146FFF7D3FF284601A989
S3150000F1CC2246FFF7ABF9019B336007E01146FFF7C8
S3150000F1DCC8FF284601A92246FFF7A0F902B070BD68
S3150000F1EC08B50C30FFF7CEFF002008BD08B50C3073
S3150000F1FC01F00111FFF797FF002008BD2DE9F0473C
S3150000F20C9846302300EB400458431A4B1B582401F4
S3150000F21C03F00703063304F1804401259D4004F5F1
S3150000F22C01246F1E8C46636808EA0701C1EB0509C9
S3150000F23C43F0005A4A4516466046514409D94A4697
S3150000F24C28F0E2FA51464844C9EB060228F0DCFAEB
S3150000F25C01E028F0D9FA9DF8203043B146443D43ED
S3150000F26C3540E560A3689D421CBF0223A362BDE83E
S3150000F27CF08700BF001008400B4AD2F8E030DB03E1
S3150000F28C11D50A494FF48033C2F8E8300B60916B04
S3150000F29C074BC9B29961926BC2F307229A61042299
S3150000F2AC9A6100229A61704700100840EC100846DB
S3150000F2BC6010084038B50C4C226060600D46F2F7C1
S3150000F2CC85FDD4F8E0305B0758BF04234FF00002ED
S3150000F2DCE260A56058BFC4F8E830F2F77BFD0DB1CB
S3150000F2EC0223A36238BD00BF0010084000EB4000AB
S3150000F2FC2DE9F84F040104F18044042A04F5012495
S3150000F30C06D8013A032A2BD8DFE802F0403D3A37FB
S3150000F31C0B78A3614B78A3618B78A361CB78A3613F
S3150000F32C2568A768D4F8048005F00705063501237F
S3150000F33C03FA05F909F1FF3A0AEA0700C0EB090BD3
S3150000F34C161F0D1D48F000585E454044294609D845
S3150000F35C324628F059FA4AEA0903F2191A40A26011
S3150000F36CBDE8F88F5A4628F04FFA404605EB0B01DC
S3150000F37CCBEB060228F048FAEDE70B78A3610131D6
S3150000F38C0B78A36101310B78A36101310B78A36172
S3150000F39CBDE8F88F37B5002500951446FFF72EFF0C
S3150000F3AC204603B030BD3023584300F1804000F5B1
S3150000F3BC0120026AC2F308028A4281BF4368C2680E
S3150000F3CC8918C1F3080181BF5B1803F1005308309B
S3150000F3DC187898BF4FF0FF3070473023584300F130
S3150000F3EC804000F50120006AC0F30C007047000055
S3150000F3FC4029F8B507460D464FF0010011D8094CC7
S3150000F40CC4F8B800F2F7E2FC394606462A46032051
S3150000F41CFFF76CFF3046F2F7DDFC0423C4F8B83076
S3150000F42C0020F8BD0010084010B5F2F7CFFC0F4ACB
S3150000F43C0F49104C01239365C2F8883000230B60EA
S3150000F44C4C6003244C620C490C800C490B804FF425
S3150000F45CA021C2F8E81002F1C062EC321160084A31
S3150000F46CBDE810401360F2F7B5BC00BF00100840B1
S3150000F47C60100840E4440020DE440020DC440020F8
S3150000F48CE0440020104B1860104B114803221A6000
S3150000F49C586040F6FF7058620E4B1A800E4B0022D5
S3150000F4AC1A800E4B1A604FF4005259605A620C4B7C
S3150000F4BCF0221A6003F10073A0221A60094B012294
S3150000F4CCC3F8B820FFF7B0BF244500203010084021
S3150000F4DCA8500020DE440020DC4400209010084098
S3150000F4EC40000844001008402DE9F041044650B392
S3150000F4FCF2F76CFC3749384B0A88384F02F03F025A
S3150000F50C02F03C06022C05461E4404D13C68C4B1EC
S3150000F51C24F0010402E0012C08BF3446386820F0C0
S3150000F52C0100844203D12D4B00221A600EE0A21A70
S3150000F53CD31A2B4A128848BF4033043A934205DB50
S3150000F54C2846F2F747FC0320BDE8F08123886FEAD2
S3150000F55C43436FEA5343B442238032D1204AB1F875
S3150000F56C00C0B2F800E07346043B9BB21D4F0CEB97
S3150000F57C0E00C01A86B2A7F14008201DB84228BF5B
S3150000F58C4046042B11D820881380A278164CC0F361
S3150000F59C0C00E06306F07F0002F0070208801349B6
S3150000F5AC042AC8604B620CD105E0B0F90070002F3C
S3150000F5BCE9DA0446D8E70E4B1B6803B1984701F00D
S3150000F5CCC3FDFFF759FE2846F2F704FC0020BDE800
S3150000F5DCF08100BFDC440020E4440020E04400201D
S3150000F5ECDE4400202445002000100840601008402E
S3150000F5FC244500200D490E4B0A881B880D481344E0
S3150000F60C043292B2033B03F03C030A800A490344DA
S3150000F61C4A62987800F00700042803D1074A52681A
S3150000F62C1203FBD4064A1360704700BFDE44002069
S3150000F63CDC440020E44400206010084000400840F0
S3150000F64CE0440020054B186810B51C4628B1C307CA
S3150000F65C01D4FFF749FF0023236010BDE0440020CE
S3150000F66C074B4FF480321A60064BC3F8E420D3F8EC
S3150000F67C8030C3F30C033C2B01D8FFF7FDBD70475C
S3150000F68CEC100844001008402DE9F04104461546DC
S3150000F69C0F46F2F79BFB444B444AB3F800E00EF0DE
S3150000F6AC3F0303F03C06022C8046164440480DD11D
S3150000F6BC4049096839B901880EEB0104033C04F092
S3150000F6CC3C04144405E021F0010402E0012C08BFBF
S3150000F6DC3446E31A9B1A018848BF40338B4220DA22
S3150000F6EC0FB9002D59D0B44203D1334AD66BB6B2FA
S3150000F6FC07E0211F914238BF04F13C010E88C6F386
S3150000F70C0C0605B12E80002F47D02B49D1F880204E
S3150000F71CC2F30C0293421FDA23889DB21BB2002B54
S3150000F72C05DA4046F2F756FB0020BDE8F081A378D7
S3150000F73C03F00703AD1B052B3B70C5F3090503D975
S3150000F74C01F0FCFB281A85B2E843C0F3C030042153
S3150000F75CFEF77EF87D8010E08D6B184BAD1BC5F364
S3150000F76C09055B6835B9C3F30363032B0CBF082388
S3150000F77C002300E008233B707D80114BC6F308067E
S3150000F78CF218ADB2BA607219B2F5007FCBBFC6F5EE
S3150000F79C00760023BE80BD80FB604046F2F71AFB64
S3150000F7AC2046BDE8F08100BFDC440020E444002084
S3150000F7BCDE440020E04400200010084000400840D1
S3150000F7CCA8500020032820D8DFE800F00213171BEE
S3150000F7DC134A137A012B02D15079E8B97047022BE0
S3150000F7EC02D19079C0B97047032B0ED1D07998B954
S3150000F7FC70470B4B587950B97047094B987940B9FB
S3150000F80C7047074BD87930B97047002070470123F1
S3150000F81C02E0022300E00323024A01201370704722
S3150000F82CA85200202845002010B5034C2078FFF77D
S3150000F83CC9FF207810BD00BF28450020431C08D006
S3150000F84C0449D1F83C21130C80B21B040343C1F8C4
S3150000F85C3C3170470040084008B5002849D0037871
S3150000F86C112B46D9254B42781A7082785A70C27879
S3150000F87C9A700279DA7042791A718279003218BF5D
S3150000F88C01225A71C279003218BF01229A71027A8A
S3150000F89C003218BF0122DA71427A1A720278172ADC
S3150000F8AC10D9827C817D003218BF01225A72C27C2B
S3150000F8BC9A72027DDA72427D42EA01229A81017EB7
S3150000F8CCC27D0FE0827A817B003218BF01225A7208
S3150000F8DCC27A9A72027BDA72427B42EA01229A81DE
S3150000F8EC017CC27B42EA0122DA81427C1A74002036
S3150000F8FC08BD0020FFF7A2FF012008BDA85200207A
S3150000F90C2A4B70B52A4CD3F810212260D3F8F82074
S3150000F91C284D62606A69A260AA6AE260AA6C2261DA
S3150000F92CEA6C6261AA6F244EA261D6F88020E2616D
S3150000F93CB2692262214A52686262D3F81821A26225
S3150000F94CD3F81C21E262D3F820212263D3F82421B8
S3150000F95C6263D3F85021A263D6F8B820E2639B6B9E
S3150000F96C2364AB696364D6F88430A36401F004FCA9
S3150000F97CE06401F007FC00232065C6F884302023E0
S3150000F98CC6F810320E4B01221A6003F57F530C3366
S3150000F99C40221A600B4AAB69127C120202F47062A6
S3150000F9AC23F470631343AB6170BD00BF0040084085
S3150000F9BCA850002000700840006008400000084075
S3150000F9CC40000846A852002010B5044601F0E0FBA2
S3150000F9DC0C4B1B6B400013F4801F14BF241A241805
S3150000F9EC204601F0F5FB20B9FFF728FF4FF0FF305A
S3150000F9FC10BD2046002101F08FFC003018BF0120FD
S3150000FA0C404210BD003008400A4B4FF4001210B5AE
S3150000FA1C1A60094B5A6812F0706F1C46F9D1FFF741
S3150000FA2C03FD064B08221A606368C3F30363022BBB
S3150000FA3CFAD110BD18600846004008400040084640
S3150000FA4C08B50F4BFF221A60F2F7C0F90D4B5B6835
S3150000FA5CC3F30363032B01BF0B4A136823F0F003B4
S3150000FA6C43F0E00308BF1360084B01225A62F2F719
S3150000FA7CB1F9044B5B6813F0706FFAD108BD00BF87
S3150000FA8C00400844004008405C1F0021000008406C
S3150000FA9C094A0A4B916A0B4043F0804343F41843DE
S3150000FAAC9362074B4FF480021A60064A4FF4002308
S3150000FABC136042F8183C704700700840FF01108034
S3150000FACC1470084610410846604A936C23F47F5321
S3150000FADC23F03F0343F4605343F03E0370B5936445
S3150000FAECD36C5B4D5B4C5C4E1B0D1B0543F41653E4
S3150000FAFC43F03C03D364936F03F07F4343F4DB037F
S3150000FB0C43F490639367936A23F0BF0343F0A70310
S3150000FB1C9362524B4FF480021A600023C5F8803072
S3150000FB2CAB694F4A23F4E07343F48073AB615368BB
S3150000FB3C23F0070343F0050353604A4B4FF40022AE
S3150000FB4C1A60D4F81831484A23F0404343F08043F6
S3150000FB5CC4F818314FF44043136002F100721420BC
S3150000FB6C1360D4F82021414B134043F4886343F0CF
S3150000FB7C0503C4F82031D4F8243123F0370343F0BD
S3150000FB8C2003C4F82431D4F8243123F4472323F476
S3150000FB9CE06343F4042343F4A063C4F82431344BE8
S3150000FBAC4FF4F8721A6003F10073383B08221A609E
S3150000FBBC4FF48033336001F027F8D4F8183123F46E
S3150000FBCC7F5343F04003C4F818314FF400333360CD
S3150000FBDC142001F019F8D4F8183123F0F95323F452
S3150000FBECFE1343F0807343F48043C4F81831142099
S3150000FBFC01F00AF84FF480233360142001F004F866
S3150000FC0C1C4B09221A60142000F0FEFFD4F81831A0
S3150000FC1C23F0F95323F4FE1343F0807343F480432B
S3150000FC2CC4F81831142000F0EFFFD5F8B830124A9A
S3150000FC3CC3F31603927843F4000343EA0263C5F850
S3150000FC4CB8301420BDE8704000F0DEBF00700840EC
S3150000FC5C00600840004008401041084614700846F1
S3150000FC6C00000840104108441C41084432F33FFF91
S3150000FC7C5041084438400846A852002038B504467E
S3150000FC8CFFF73EFE022C02D1134BD97806E0032C6B
S3150000FC9C02D04FF0FF3038BD0F4B19790E4B204672
S3150000FCAC1A785B7802F0C4FE431C0546F1D0FFF7C8
S3150000FCBCC7FE2846FFF788FE0130EAD0FFF7A4FE00
S3150000FCCC022C02D1FFF7E4FE03E0032CE1D1FFF78F
S3150000FCDCFBFE002038BD00BFA85200202DE9F041E4
S3150000FCEC10F0800F18BF7F2011F0800F18BF7F21F6
S3150000FCFC0E2A1746BDF8188046D8264CD4F83C2157
S3150000FD0C22F4FE4222F07F0242EA00220A43C4F8A1
S3150000FD1C3C21184600F078FF00263546344636FA64
S3150000FD2C07F32AD1404600F06FFF1B494B7AD3B933
S3150000FD3C1A4BDFF870E0DA6B2020CEF800009863DF
S3150000FD4C012002F020021864D3F830C013481CF0CE
S3150000FD5C200FF9D020231AB1114A8363136002E0F5
S3150000FD6CCEF800308363CB7A9E4204D3012001F097
S3150000FD7C81F9013504440136D1E7002D08BF012570
S3150000FD8C94FBF5F080B201E04FF6FF7000B2BDE8CF
S3150000FD9CF08100BF00400840A852002000700840C7
S3150000FDAC3C7008463C7008442DE9F04F85B08046FF
S3150000FDBCBDF838B0029191469A460524002747F6BD
S3150000FDCCFF75C4F14001C9B2029BCDF800B013B166
S3150000FDDC0846414600E040464A465346FFF77EFF3A
S3150000FDEC2BB202B204F10A019A42C9B2BCBF274631
S3150000FDFC0546872903D03F290C46E2D9E4E77C1F48
S3150000FE0CC7F14506E4B2F6B2002547F6FF7C7B1D2A
S3150000FE1C9C4205DD3F2D26D8C5F14005EDB222E00A
S3150000FE2C2306F7D4D4B1029BCDF80CC03F2C8CBF63
S3150000FE3C21463146CDF800B013B10846414600E0E4
S3150000FE4C40464A465346FFF749FFDDF80CC002B25E
S3150000FE5C0FFA8CF39A42BCBF254684460134013E08
S3150000FE6CE4B2F6B2D3E7284605B0BDE8F08F022817
S3150000FE7CF7B50E4615461F4616D10093012132469C
S3150000FE8C2B460020FFF790FF002132462B460097A9
S3150000FE9CFFF78AFF0097012132462B460446FFF7EF
S3150000FEAC83FF44EA002001E04FF0FF3003B0F0BDC1
S3150000FEBC38B5FFF7C5FD02F01FFD234B234A196821
S3150000FECCC2F810115968C2F8F810214998684861AF
S3150000FEDCD8688862186988645869C864986988679C
S3150000FEEC1C48DC69C0F880401C6A84611A4C5D6A47
S3150000FEFC65609D6AC2F81851DD6AC2F81C511D6B0B
S3150000FF0CC2F820515D6BC2F824519D6BC2F850515A
S3150000FF1CDD6BC0F8B8501D6C95635A6C8A619A6C8F
S3150000FF2CC0F88420D86C196D01F0F6F9FFF77CFA4D
S3150000FF3C0A4B01221A6003F57F530C3340221A60D8
S3150000FF4C4FF0FF33A36638BDA85000200040084090
S3150000FF5C007008400060084000000840400008445B
S3150000FF6C08B501F009F928B1044B1869431C03D0F4
S3150000FF7C80B208BD4FF0FF3008BD00BFB081E00F66
S3150000FF8C2DE9F047234D04468A46A869002191467F
S3150000FF9C984600F0D7FD012C06460F4603D018D321
S3150000FFAC032C06D915E0FFF7DBFF0446FFF73CFAF6
S3150000FFBC11E02046FFF762FE421C06D05046494629
S3150000FFCC4246BDF82030FFF752FF0446FFF770FF9C
S3150000FFDC01E04FF0FF34A869002100F0B3FD801B4F
S3150000FFEC61EB070100234FF47A7227F0C3F8002760
S3150000FFFC8F424FF6FE7608BF86422CBF064000267F
S3150001000C631C04D02046FFF719FC44EA064420463B
S3150001001CBDE8F0870050084007B5FFF705FCFF283F
S3150001002C08D007498A7A8B89C98900910221FFF781
S3150001003CA7FF01E04FF0FF3003B05DF804FB00BFF2
S3150001004CA852002070B5264A1378032B46D0254CAE
S3150001005C23685A2823F47F51C3F3873321F008010F
S3150001006C4FEA83130BD95588B5F5E16F09D8C82822
S3150001007C43F6C8768ABF01250025334604E00025E0
S3150001008C02E0012543F6C8731E2843EA010394BF17
S3150001009C15491649236001230B608B61144B1B78A0
S315000100ACCBB1502817D95388B3F5E16F01D878280D
S315000100BC11D9104A4DF601731360002D936102F1AB
S315000100CC007214BF4FF457434FF4504313609361BE
S315000100DC0822094B01E0094B08221A6070BD00BFCA
S315000100EC2A450020E81F002108410844084108461A
S315000100FC4430002004410844944008469440084486
S3150001010C38B50D460446F4F7ABFDAC4042F210731C
S3150001011C64115C436423B0FBF3F0B4FBF0F038BD1F
S3150001012C034B1A6802609B8883800020704700BFCE
S3150001013C2A450020014B1878704700BF4530002036
S3150001014CF8B5584E584D0446C820FFF77BFF337857
S3150001015C032B02D1FF242C70A2E0012B534F11D19A
S3150001016C072C03D8012C08BF022400E007243A68A7
S3150001017C4F4B134043EA04633B604E4B04221A6017
S3150001018CA4B288E03A6822F0F95222F4FE1242F443
S3150001019C7F5242F008023A60307828B9042C05D90E
S315000101AC043CE4B2012102E0002100E00146424B8D
S315000101BCD3F88831DB4303F4FE1343F40053B3FA4B
S315000101CC83F3C3F11303C3EB4313DBB2A34228BF7F
S315000101DC2346DBB29CB220B900290CBF00200420B7
S315000101EC00E000200444354823B9DFF8E8E0C0F804
S315000101FC58E105E04FF0E06E013BC0F858E1DBB287
S3150001020C1F20B3FBF0F0C0EB401ECEEB03031B0625
S3150001021C03F18073C0B21A43013001238340013BC1
S3150001022C42EA8332254B3A60D3F85801244B1B78AA
S3150001023C0BB3C2F387333778224A234EB3FA83F3CF
S3150001024CC3F11F03022F08BF32465E1C13D0D65CC6
S3150001025C9CB1721ED2B2FD2A06D920F07F4323F03F
S3150001026C040343F07F4309E020F07F4343F004038A
S3150001027C43EA066302E0002CEFD1144B0F4AC2F895
S3150001028C58314FF4800321B102F1C06202F5847238
S3150001029C00E00F4A1360E4B220462C70FFF7D2FE41
S315000102AC2046F8BD2A45002045300020E81F0021D4
S315000102BC3F00C0E05841084400400E400040084051
S315000102CC29450020B883E00FB083E00F0400000736
S315000102DC084108442C00000708B500F06FFF104BCD
S315000102EC60B1D3F8002122F47F11D3F8002102F476
S315000102FC7E1241EA5202C3F800210BE0D3F8182111
S3150001030C22F47F11D3F8182102F47E1241EA52022B
S3150001031CC3F81821024B4FF00072DA6108BD00BF19
S3150001032C004008407047000008B500F047FF4FF445
S3150001033C001308B1044A00E0044A1360044B4FF061
S3150001034C00621A6008BD00BF004108441841084408
S3150001035C20400844014B9888704700BF2A4500206D
S3150001036C074B4268C3F8BC2003F18063B83340F6EF
S3150001037CFF721A6003F1007302681A60704700BFBE
S3150001038C00600840124B2DE9F041D3F8BC00D3F8BC
S3150001039CBC80D3F8BC60D3F8B810D3F8B870D3F8D6
S315000103ACB85001F00F01C0B2FFF7AAFEC7F3031153
S315000103BC0446C8F30720FFF7A3FEC5F30321044443
S315000103CCC6F30740FFF79CFE2044BDE8F08100BF51
S315000103DC00600840F7B5254A254B002808BF0120C7
S315000103EC10609B690D462349C3F382130B70023BC4
S315000103FCDBB2042B174605D8012202FA03F313F0DC
S3150001040C130F13D11C4B1B78022B06D11B4B1B78DC
S3150001041C002B14BFC82696260BE0012B08D0174BD0
S3150001042C1B78002B14BFF026B42602E0002600E050
S3150001043C322600243046E1B2FFF762FE3B68984251
S3150001044C02D80134102CF5D1013C6846240236043D
S3150001045C00940196FFF784FFFFF794FF064CA080EA
S3150001046C284601F023FAA08803B0F0BD30450020E0
S3150001047C00600840463000202A450020294500200E
S3150001048C08B500F08BFE0138114A1249124B0828A7
S3150001049C19D8DFE800F005180E0E11111515150007
S315000104AC0E480078116001280CBF4FF0441244220B
S315000104BC0BE01160002208E011604FF0331204E0EA
S315000104CC1160A22201E01160054A1A6008BD00BF45
S315000104DC50410844F701F701504108462A450020CE
S315000104ECA200F700F8B50F46054648B33E4C3F4E01
S315000104FC00F05EFC002323602B78022B05D13C4BCC
S3150001050CD3F8883113F4001F14E0012B05D1384BB5
S3150001051CD3F8883113F4400F0CE063B9354B344AE8
S3150001052C5B6AD2F8882103F0010383F0010302F41C
S3150001053C8002134306D0032333702F4BFF221A700C
S3150001054C0120F8BD2B683360AB88B3800020FFF720
S3150001055CF7FDA8883946FFF73DFF3378022B14D1F6
S3150001056C236823F0804323F0170343F08043236071
S3150001057C224B4FF4EE421A6003F100734FF48A4298
S3150001058C1A60012243F8042C24E0012B23681C4831
S3150001059C1C491D4A23F0804323F017030CD143F069
S315000105AC030323600723036006230B60174B1360B9
S315000105BC4FF44042164B0CE043F0804343F00403E6
S315000105CC23600723036005230B60C0231360114BC3
S315000105DC81221A600020FFF7B3FD0F4B03221A602C
S315000105ECFFF74EFF0020F8BDE81F00212A45002029
S315000105FC00400E40B081E00F4530002024410844F4
S3150001060C0C4108440C41084608410844C10040000D
S3150001061C04410844084108465841084410B50446AB
S3150001062CFFF72EFF084B094A9B691278C3F3821315
S3150001063C9A4206D0064B21461868FFF7CBFE0120DD
S3150001064C10BD002010BD00BF0060084046300020E0
S3150001065C304500202DE9F84301213348334EFCF790
S3150001066C8DFF334B33603048FCF7AEFF4FF4FA7312
S3150001067C304A4FF47A74B0FBF4F4634318028018D1
S3150001068C4FEA13614FF0000359412B4A002326F020
S3150001069C71FDA0F58073B36250EA0103054604D1DE
S315000106AC00202B21FDF7D4F801254FF47A726A4309
S315000106BC5008002616EB00084FEA042747F10009FB
S315000106CC33464046494626F055FD1C4B19601C4BDA
S315000106DC4FEA056806460F4618602D0A24B92046CE
S315000106EC2B21FDF7B5F801244FF47A71A8FB0123F0
S315000106FC600812EB000801FB053343F100092246A1
S3150001070C00234046494626F035FD0E4B074A196033
S3150001071C0D4B0236186047F10007B30843EA87739D
S3150001072C013B1363BDE8F883000406000050084042
S3150001073C0011010020A1070040420F004445002092
S3150001074C404500203C45002034450020044B4FF029
S3150001075C0052C3F880211A60024B01225A6070477D
S3150001076C00E100E000500840054B02011344012250
S3150001077C1A604FF48073034A83405366704700BF77
S3150001078C00510844005008401030034B0001185822
S3150001079C00F00100704700BF00500840103001F412
S315000107AC60010001024B41F003011950704700BF73
S315000107BC00500840014B024ADA6670470050084067
S315000107CC00000101D0B5F1F710FB0D4A0D4B9E69E6
S315000107DC14780D4A1268E4B20AB9002703E0013411
S315000107EC9E690027E4B2F1F706FB064B1B6B04F07E
S315000107FC0304013330463946E4FB0301D0BD00BF87
S3150001080C3845002000500840880B0A432DE9F04F6B
S3150001081C89B099469DF84830059305469046F1F7FF
S3150001082CD5FA04902846FFF79FFF059B022B00F093
S3150001083C4381FFF7C7FF059B012B82468B4607D1E8
S3150001084C18F1010849F1000918EB000849EB0109F7
S3150001085C9D490E6B0027013647F10007BB0043EAA1
S3150001086C96730193B30000930B46DDE900018945AC
S3150001087C08BF804508D3DDE90001B8EB000069EB40
S3150001088C010180468946F0E7BAEB08006BEB0901DA
S3150001089CCB4508BFC245CDE90289CDE906010ED289
S315000108AC186B0021421C41F10003990041EA927137
S315000108BC9000DDE9062312184B41CDE90623009B76
S315000108CC9808019B40EA83709908DDE90623994251
S315000108DC08BF904204D30498F1F77CFA0020EFE0AC
S315000108EC7949086F41F61F7405F109030440C86E76
S315000108FC76491A021B0642F00102014043F4803389
S3150001090C94420CBF0424002499426F4BD96E41F6D4
S3150001091C1F7308BF44F0020403EA010308BFE4B2E3
S3150001092C934208BF44F0010414F00103069302D06C
S3150001093C674BC3E90089022D02D1664BC3E90089D5
S3150001094CB8EB0A0269EB0B03D94508BFD045CDE9D3
S3150001095C00230FD25C4B1A6B0023013243F10003C7
S3150001096C990041EA92719000DDE9002312184B417E
S3150001097CCDE900233B46DDE90001324626F0FAFBC0
S3150001098C554BC0B25855DDE90223BB4208BFB242F2
S3150001099C07D3DDE90223921B63EB0703CDE902239F
S315000109ACF1E778B1069B1BB14C4B41F61F721A60ED
S315000109BCA00742BF494B454A1A60610742BF424BE9
