S01200007468726561642D746573742E7333377D
S113000028DC0020E1260300CD330000E91F0300B3
S1130010A70B0000000000000000FFFF54000000D8
S113002004180F00000000000000000000000000A1
S113003000000000000000000000000000000000BC
S11300400000000000000000000000009300000019
S11300500000000028DC0020E1260300CD3300006E
S1130060E91F0300A70A0A010002000004180FACEC
S113007000269300000000000000000000000000C3
S1130080000000000000000000000000000000006C
S1130090000000000000000000000000FFFFFFFF60
S11300A0FFFFFFFFFFFFFFFF00E00700000000006D
S11300B000000000FFFFFFFFFFFFFFFF280000001C
S11300C0000000000000000000000000000000002C
S11300D0000000000000000000000000AFFF00204E
S11300E0AFFF002028DC0020388F0300782E0300A7
S11300F050CD002070170020000008000000000010
S113020028DC0020E1260300CD330000E91F0300B1
S1130210F11F0300ED1F0300F51F0300012003007D
S1130220012003000120030001200300012003003A
S1130230F91F0300012003000120030051280000DE
S1130240177B000079050100BD1B0000012003009D
S113025081010100C10501007F0501008105010044
S11302607B0501000D52020057540200E1700000AA
S11302707B56000001200300012003002305000039
S11302800120030001200300755402000120030033
S113029001200300012003000120030001200300CA
S11302A001200300012003000120030001200300BA
S11302B0C30501007D050100BD2A03006173000030
S11302C0FB05010001200300AD2A03000120030007
S11302D0012003000120030001200300012003008A
S11302E0012003000120030001200300012003007A
S11302F00120030001200300012003006C496D4A22
S113030001E021B1491E1369DB07FAD401B9B0E059
S1130310506001201060106910F0060F05D04107ED
S113032000D5A9E0800700D5A9E000207047F0B50A
S113033013460022002936D05D4C5E4D8BB98B42AA
S113034031D250F8046BEE605B1C08262E60264602
S113035001E036B3761E2F69FF07FAD4002EEED1E2
S11303601FE0EFF3108672B600230EE02F6907F04A
S11303701907102F08BF2F602F693F07F6D550F8D3
S1130380047BEF605B1C10272F608B42F4D306B90B
S113039062B6264601E026B1761E2869C007FAD463
S11303A00EB96FF002021046F0BD2DE9F0479A46EF
S11303B0414B424F1C681B683B688046002043F059
S11303C001033B60950881460C4602E0B14404EB0E
S11303D08604A94517D208EB89063046FFF78EFF3D
S11303E0010014D1C6F30A00C0F500608608A5EB2D
S11303F00900B04238BF0646524631462046FFF750
S113040096FF0100E2D03968490849003960BDE827
S1130410F0872949264A0B68096828490B6843F084
S113042001030B608860012048604869400704D5D7
S113043008684008400008601EE04869800704D549
S1130440086840084000086019E00220486001E0A4
S113045022B1521E4869C007FAD422B9086840087C
S11304604000086005E0086840084000086000207B
S113047070476FF0020070474FF0FF3070476FF025
S113048001007047002390E70C48016841F0010126
S1130490016046F21A31C1644FF4807141604169D0
S11304A0C907FCD40021C16400207047000000008B
S11304B0809698000C000E4004300E4008000E4058
S11304C0072802D23549085C7047FF207047072887
S11304D002D23349085C7047FF20704738B50446A0
S11304E0304800EB8105A8780009FFF7E9FF207187
S11304F0A87800F00F00FFF7EAFF6071FF2814BF2F
S113050001200020E8702146E878A0712878607006
S11305106878254DA070284600F0A3F80120A86053
S113052031BD10B5214984B01CC968461CC020489F
S1130530204A0178D36814682340DB072DD50329AA
S11305402BD2184C12691C4B04EB8104E4781CB1C7
S113055014B2002C48BF002223F811200123174AAB
S1130560147803FA01F121431170154A117891B1FD
S113057000211478CC40E40708D501708B40107832
S1130580584010706846FFF7A9FF1FBD491CC9B247
S11305900329EED31FBD032101701FBD28410300B1
S11305A030410300D4E50020002000401C4103003A
S11305B07EFF002038200040F8E500207FFF002067
S11305C083FE0020890001EB401000F184400260AA
S11305D0704730B5002A446BDFF834511ABF10223B
S11305E0DFF83031DFF8303123400024A84237D11E
S11305F0DFF8280151B101290CD002291ED00329AA
S11306000CD0062915D0812918D023E0016804688C
S1130610006816E001680468006802E04168446804
S11306204068090C01F4FE41C4F303442143000C67
S11306300CE08168806801F00F0107E041684468BC
S1130640406801F4FE4104F00F04214300F0F0007F
S113065040EA010404FA02F0DFF8C4101843086009
S113066030BD38B504460D460220A0600022A978AA
S11306702046FFF7AEFF287969786B79020242EAD7
S1130680016242EA0342EB7842EAC302EB790BB11E
S113069042F000522B7A0BB142F00402AB790BB159
S11306A042F002026B7A0BB142F00102AB78F328FC
S11306B006D1180004D10429BCBF042060F31B62D6
S11306C018064CBF42F0E00042EA4310206115498D
S11306D060690840A9780A0644BF21F080010843F4
S11306E0297840EA4140E97A09B140F480406061E8
S11306F00221AA7A2046FFF765FF2879F32804F13E
S11307003000BDE838400CBF01220022102159E717
S113071000200040FFFF00800080FFFF1082E00FF8
S113072034200040F8BFE1FF42DE704738B504468C
S11307300D4600F0F3FB01F05CFA01F067FA29467C
S1130740204601F069FA2B4622466949012001F04E
S1130750FAFB29462046BDE83440E5E765482DE923
S1130760F047654D01682E1D4FF420687165016ADC
S1130770B16562490A68F26549683166416A716621
S1130780816AB166C16AF166016B3167806B70671B
S113079096F8340040074CBFF46BB46B01F05FFC77
S11307A00022F2648442564A014624BFA2F1200A80
S11307B0A2452746316505F19003DFF848C1DFF80B
S11307C048E118D3A0693064E4697464746DC4F3B7
S11307D00804062C13D1704511D360450FD200884C
S11307E04DF64264A0420AD13068586040F2017864
S11307F07068986003E000273764776407464348CD
S1130800814202D2014600E0091D0846904203D20B
S11308100C68B4F1CD3FF7D03D49081AB06400210B
S1130820002005EB8004401C0628E167F9D3002072
S113083003E0C0B205EB8004E167974223D252F88B
S1130840041D7145F9D36145F7D2CC07F5D50024D1
S113085005EB8409D9F87C90894502D0641C062CE8
S1130860F6D3062CE9D1002814BF401E0520E0E78A
S1130870B16F002405EB8402641CD2F88070D76742
S1130880052CF7D319600146481EC9B20029EFD1DF
S1130890706DC0F30800032810D0042811D0052877
S11308A012D0062813D00C2817D0122818D11948B2
S11308B00068800719D540F2025816E040F6012876
S11308C013E040F6022810E040F603280DE0B8F5E6
S11308D0206F0AD140F6042807E040F6052804E01A
S11308E018B13F2838BF40F607284046BDE8F087D6
S11308F03841030004ED00E00000002000E300E0C4
S113090028DC0020782E0300C00400009C00002096
S113091028DC00201C20054080B5002300931346EA
S1130920012201F0F9FB01BD00F046BE00F044BE17
S113093010B54C00014600F01FFD224601F0CBFB30
S1130940A04201D0002010BD012010BD80B500F0F0
S113095013FD01F046FC00B10120C0B202BDDFF876
S1130960000B407D00B101207047DFF8F42A117BB1
S113097001B9704780B50146106A01F088FC20B1C6
S1130980BDE8044040F27111BEE201BD80B500F043
S1130990F3FC01F099FB00F00300032801D10120CE
S11309A002BD002002BD80B5B0F5004F07D100F0B4
S11309B0CCFDDFF8C00A00F0C8FCBDF80000DFF889
S11309C0741AC883002002BD2DE9F04F440900F0D9
S11309D01F050027DFF8F08A00E07F1C98F8066006
S11309E0F8B2B04236D2D8F80800FFB250F8270067
S11309F04FF0000C01E00CF1010CC67E5FFA8CFE96
S1130A00B645EAD2D0F81CE05FFA8CFC142616FB3B
S1130A100CF6B6449EF8086006F00706A642EAD132
S1130A209EF80960B542E6DB9EF801B09EF800909E
S1130A3006EB0B0AAAEB090AAA45DCDB11B1AC1BD5
S1130A404C440C7012B19EF8081011701BB1C3F81D
S1130A5000E000E00020BDE8F08F400918BF40F03E
S1130A601800704710B5DFF8844A206A01F0B9FB1A
S1130A700246206ABDE81040002101F0CEBB0B38CD
S1130A80102834BFDFF8440ADFF8640A00687047AE
S1130A903EB568460021002200230EC0DFF8940909
S1130AA001788DF80010817A0A0018BF022914D148
S1130AB00079DFF8385A00F0BBF8044600F00EF86D
S1130AC058B1286A0122002101F000FB00F006F869
S1130AD018B140F25B2100F066FB37BD286A6A4614
S1130AE0214601F032BB2DE9F041044604F01F0019
S1130AF01B2886B034D2002000906B4600220021CF
S1130B002046FFF761FF07002AD02046FFF7B7FF12
S1130B105FEA000824D0DFF84869DFF8B459F06BC5
S1130B20804515D001A84146062201F00BFC306A2D
S1130B30C6F83C8001A901F0F1FB88B9306A03A929
S1130B4001F0FAFBB5F91C10306A01F0C2FB38B9A8
S1130B500098B06277620098002818BFC06801E06E
S1130B608A200EE0F06229798C421CBF2C71FFF7B9
S1130B708FFF96F90D00C101306A09B201F0D2FD70
S1130B80002006B0BDE8F081DFF844090079704721
S1130B90DFF83C09B0F91C00002854BF05216FF0B0
S1130BA0040108180A2190FBF1F040B270470A21B1
S1130BB010FB01F0FFE7F8B500F5D77240F2772398
S1130BC09A4201D38B20F2BDDFF89448DFF8005934
S1130BD0A26A0A23002A1EBFAE7F06F0C006802E3A
S1130BE012D0A67B86B992F9026016FB03F7B842CD
S1130BF0B8BF16FB03F007DB92F9032012FB03F6E0
S1130C008642B8BF12FB03F0217B61B10146206A22
S1130C1001F05FFB18B140F2B92100F0C4FA206A78
S1130C2001F06AFB01E010FB03F0A8830020F2BD91
S1130C3038B50446FFF723FF90B1002300220021BA
S1130C402046FFF7C1FE58B104F01F051B2D07D243
S1130C502046FFF702FF18B90B2D01DB284632BDF1
S1130C60FF2032BD7047C0B2704710F1630F01DA44
S1130C700020704710F1240F01DBFF20704764301F
S1130C800002411100EB91608004000E704770B5C2
S1130C90DFF8CC47DFF8085A00202064687828B1D0
S1130CA001F044FD012818BF032801D1002070BDC4
S1130CB0E16ADFF8343ADFF8182800291FBFA66A72
S1130CC03669002E022817D12364906900F5FA7062
S1130CD09061E07C18B100200021642203E0E878F0
S1130CE029794FF4A0722070A2806170A878A07056
S1130CF08020E080002030E0DFF8F0599069AE42B7
S1130D0013D1DFF8EC39236400F57A709061E07C4C
S1130D1088B90879207001228B7808799A401018D4
S1130D2091F903201018401E0CE0236400F5FA70BA
S1130D309061E07C18B100202080642005E04878B0
S1130D4020708878607008780001A0804879A070CD
S1130D5008890001E080C8880001A06000F0FBFB66
S1130D60E07094F90200010048BF4042C0B270BD77
S1130D7070B50446DFF8E866257896F9140008B1E2
S1130D808C2070BDFFF783FFB075DFF81429DFF8FE
S1130D90400741780174690101F58071816193799B
S1130DA0716C002BB37B1DBFAD1EEDB221F00201AF
S1130DB041F0020173B9127862B16278920609D5E2
S1130DC06FF00102327541F00101826902F5087287
S1130DD0826104E049084FF0FF30490030757164C6
S1130DE0032000F001F96A1C306A4FF4807392B258
S1130DF0214601F0C3FC691C884203DA40F21B411E
S1130E0000F0D1F9002070BD00000000F8B5DFF853
S1130E10505695F914100024091D04290FD8DFE851
S1130E2001F0080E10100300FFF7A2FF040008D021
S1130E30F2BD2C75286A01F04DF98D20F2BD8C208D
S1130E40F2BD01F0B7FCE8B1286CDFF89C188842C9
S1130E5018D1A87DB0B1DFF8440A0068002811D584
S1130E60DFF83C0AC168C1600122006800F00F008D
S1130E7002FA00F0401E014204D100F0B3FB6420EA
S1130E8001F09AFC01F0B2FC064695F9140010F149
S1130E90010F1CBF95F9140010F1020F29D195F927
S1130EA01400DFF82C764042287501F0A5FC786226
S1130EB0296C387949B9FFF7BBFE01466A6C286A88
S1130EC007F1100301F038F90BE0FFF7B1FE07F169
S1130ED01001009101466A6C286AD5F840C02B467F
S1130EE0E04760B1002028758C244FF0FF30786211
S1130EF002E0002028758D24286A01F0EBF83046C2
S1130F0001F0B1FC2046F2BDDFF8140AFFF70EBC75
S1130F102046BDE8104001F0A6BC0000F8B501F081
S1130F2065FCDFF810550446A87A012803D1204651
S1130F3001F099FCF1BDDFF8EC19DFF82465DFF866
S1130F40E079402008600122306A012101F0BEF8F6
S1130F50DFF8D4194FF40010086069460FF28400DA
S1130F6000680090306A01F0D1FB18B140F2C7412B
S1130F7000F006FE02208DF800006946306A01F098
S1130F80A2FB18B140F2C94100F0FAFD306A01F049
S1130F90BFF80021002001F069FC00F00DFB0120E6
S1130FA0A87296F91400001D072810D8DFE800F095
S1130FB0130F0707040B0B0B01F0EBFC0BE06FF0B6
S1130FC00300307507E0892000F041FB03E040F2A4
S1130FD0ED4100F0D5FD204601F045FC01F065FD32
S1130FE0F1BD0000040100002DE9F04DDFF8445488
S1130FF00446A87AA04282B063D00FF2CC01DFF895
S11310002C690968DFF81889DFF85474DFF818A927
S1131010009103284FF4001B4FD8DFE800F047028B
S11310203E2B01F04BFD386A694601F06FFB18B1A5
S113103040F20A5100F04AF802208DF80000694697
S1131040386A01F040FB18B140F20C5100F03EF850
S11310506879002814BF00220222386A022101F0B4
S113106081FD18B140F2115100F030F80320032C37
S1131070A87218D0CAF800B00220A8722879FFF725
S1131080D7FD0146386A002201F05FF818B140F23A
S1131090215100F01BF8022C13D0002C18BF032C94
S11310A00FD10020A872C6F800B00AE0022C08D1C3
S11310B0CAF800B00220A87203E040F2375100F0F1
S11310C005F8BDE8F38D0000040200004046FFF778
S11310D02DBB000010B5032804460ED8DFE800F04D
S11310E009020909FFF71AFFBDE81040002000F0CB
S11310F0C7BB012000F0C4FBE1E1BDE8104040F2B1
S1131100555101E780B500F00FF804D500210175B1
S1131110006A00F0DFFFDFF8340A407A012802D1C8
S1131120BDE80140FAE601BDDFF8240A90F9141085
S113113000297047DFF8140A407A704780B5032805
S113114001DB012002BDDFF8041A4872897A884263
S113115018BFFFF7BFFF002002BD2DE97C4FDFF869
S1131160F06903EA010BD6E9068929EA010528EAB0
S1131170000402EA000A45EA0B0544EA0A044D4564
S113118008BF44450DD0CDE900230246306A0B4622
S113119001F0BEFA18B140F27D5100F004F8C6E93E
S11311A00645BDE8738F0FF6E010FFF7BFBA38B5F8
S11311B0AB4D0446287BE8B1200018BFDFF8942922
S11311C004D1A87C08B1402200E000220023DFF80B
S11311D084090021FFF7C1FF002C14BF082200225C
S11311E0286A082101F0BEFC20B1BDE8344040F279
S11311F0B95189E631BDF8B50446022C0FF68815BD
S113120003DB40F2E25100F0A5F8954E307B002854
S113121040F09780874FB87A012803D04FF4BD611E
S113122000F098F8002107F1280000F03DFF30623B
S113123018B940F2EB5100F08DF8306A052101F045
S113124000F918B140F2EE5100F084F8306A0FF65C
S11312504C1101F099FC18B140F2EF5100F07AF80A
S1131260306A01F0C5FC18B14FF4BE6100F072F8A9
S11312704FF0FF30DFF8E02806230146FFF76DFF4B
S1131280306A4FF0011100F0DAFF18B140F2056145
S113129000F060F8306A4FF48032002100F0BDFFA6
S11312A0306A09224FF0FF3101F05CFC18B140F2C2
S11312B00C6100F04FF8012030730223DFF89C0822
S11312C000F043F8BDF80000C0054CBF0020BDF895
S11312D00000707301F06EFAFFF769FFF88BFFF7F7
S11312E062FB01F005FD00F081F83879FFF7FBFBA4
S11312F018B140F21F6100F02DF8F87900F040F8C1
S1131300387A00F054F8307C00F082F8787900F0F4
S1131310C7F800F020F900F0EDF8B07C00F0ECFA2A
S1131320B7F91C00FFF747FC388C00F085F8788C7F
S113133000F0A2F8B87900F0CDF8601E8041C00F2B
S1131340B8722046FFF7C6FEF1BD01887F226846C9
S113135001F042BD2846FFF7E9B980B500F00CF86A
S1131360012100F0F5FE10F5007F02D16FF07F003F
S113137002BD8005001602BDDFF8D407006A70477D
S113138010B504463648017B51B1611E8941006A9B
S1131390C90F01F07FFC18B140F25A61FFF703FF57
S11313A02000DFF8A81718BF0120C87110BDF8B5D8
S11313B0044601F01BFA05461E48294E0472377B89
S11313C0FFF7CDFA00F0010080F00100074204D0DD
S11313D0306A84F0010101F0C2FD2846BDE8F24004
S11313E001F041BADFF86407007A70471C48017BBA
S11313F001B9704780B5006ADFF86417002201F074
S113140036FC20B1BDE8044040F285617CE501BDB5
S1131410DFF83C27117B107401B9704780B5014691
S1131420106A01F02BFC20B1BDE804404FF4D261F6
S11314306AE501BDF0DF00202549DFF81437088490
S1131440197B01B9704780B50146186A002201F082
S113145007FC20B1BDE8044040F2A16154E501BDA0
S113146048E50020DFF8E406008C7047DFF8DC066E
S1131470408C7047F88803001549DFF8D436488457
S1131480197B01B9704780B50146186A002201F042
S1131490E0FB20B1BDE8044040F2B76134E501BD92
S11314A0DFF8A8164A79824200D1704710B58C7AC9
S11314B04871012C02D0FFF731FD00E010BD204639
S11314C0BDE8104090E500008884030060DF002040
S11314D0F0DF002010B50446FFF74EFF214601F06F
S11314E044FDDFF86806847110BD000048E5002063
S11314F064DF002038B504467F2C0CD100F025F8B9
S1131500DFF86006FFF721FFBDF800007E24C00568
S113151058BFBDF8004001F069F90546FFF71FFA0E
S113152060B960B27E2805D1DFF82416896A09B152
S113153091F904007E28B8BFFFF717FADFF80C060C
S11315400473284601F08FF931BD4FF6FF70ADF8F2
S1131550000002237047DFF8F40590F90C007E28A0
S113156007D1DFF8EC05806A08B97F20704790F94D
S11315700400704710B501F0FBFC80041AD500F09C
S11315802BF801F0F5FCC0044CBF0320012000211E
S113159001F0F0FC01F0ECFC00F0FF004FF47A7174
S11315A011FB00F104F14800BDE81040DFF8B82554
S11315B0FFF7B2B9BDE8104010B500F00DF804F122
S11315C0480000F0B2FDFFF7E1F920B9BDE8104092
S11315D0002101F0CFBC10BDDFF8744504F16000B8
S11315E000F0A3BD80B501F0C3FC4005BDE8044094
S11315F04CBF03200120002101F038B910B5DFF8F9
S1131600504594F9140003280DD100F030F9DFF8A7
S11316103C154FF0FF3048620022216BBDE81040BA
S1131620402001F05AB910BD38B50446FFF7C4FF95
S1131630DFF81C5501F0F1F8686314B101F08FF87C
S113164001E000206874BDE8314001F0A2B938B56A
S11316500446DFF8F814DFF8F8544FF0FF3048621E
S113166001F0DBF8686395F91400012802DABDE89B
S113167031407FE7A87D08B1686BA8630020287516
S1131680286A00F027FDA87B10B10120E87331BD62
S11316902046BDE838400022002101F01EB90000B8
S11316A07CE1002010B501F085F8DFF8A44498B17E
S11316B0FFF76CF980B104F1480000F036FD01F049
S11316C05BFC002101F056FCDFF8A02442F210710B
S11316D004F16000FFF720F9A07C18B1BDE81040C8
S11316E000F06BBA10BD00003F210000B81B0000E1
S11316F0452100002DE9F043DFF854440FF28849F6
S1131700206A89B005AA022101F03BF8050003D143
S113171040F6E70100F0A8F89DF81400DFF82C6407
S1131720BDF8168007281CBF7079002819D1B8F1BC
S1131730060F16DB08F108008B2812D20020009057
S11317404346DFF82C74206A3A46294601F021F812
S1131750404503D04FF4106100F086F83878000655
S113176002D5FFF707FF7CE001208DF80800CDF8D3
S113177004806A46206A294601F007F818B140F649
S1131780171100F071F8787800F0070002281ED1D4
S1131790FFF712FF94F91400032808BFB8F1060FED
S11317A011D19DF80D0070B17878000900F00105A1
S11317B000F05DF84FF0FF3070622A4600218F2060
S11317C001F08BF84DE0F07900284AD105E09DF84E
S11317D00D0010B10020FFF711FFF0799DF80D10F6
S11317E0084203D040F63F1100F03EF8F07958B1BA
S11317F07878800608D5307A30B1206A01F0B2FBDF
S113180030B1FFF7B7FE03E0FFF7D6FE00206074A7
S11318103878401C404503D040F65F1100F024F8AE
S113182007EB080530792870002068709DF80E00D9
S1131830A87095F90200FFF718FAE87008F108019A
S1131840FF202871C9B20098000C68710098000A42
S1131850A8710098E8713846627C01F08FFB002083
S1131860607409B0BDE8F0834846FEF75FBF00200E
S11318702075206A00F02EBC0FF21430FEF756BF1C
S1131880DFF8C812897A012907D1DFF8E8120B784A
S113189098421CBF087001F013B970470440084017
S11318A04C50084010B5DFF8A402446A002C14D44C
S11318B000F0A2FF001B40F2E93180B288420CD351
S11318C0A34890F91400032803D1BDE81040002078
S11318D094E6BDE810408920B9E610BD10B540B9C2
S11318E000F03EFF00F082FF0446FFF7DBFFFFF746
S11318F00FBBBDE81040D5E738B5954D0446287BAD
S113190060B1200002D100F055FF08B1402200E090
S11319100022002340200021FFF71FFCAC7431BDDE
S1131920881B0000084008401860084618600844F6
S11319302DE9F04780461446600688B01D4648BF2E
S1131940002002D4200602D50120FFF7ABFEA0033D
S11319507F4E2DD5002070746946404601F0AFF9E2
S113196030BB9DF80800844F02280DD1BDF800005B
S113197001F058FCFF2815D0396831F810004FF4F5
S1131980567108420ED113E0032811D1684601F0C4
S113199068FCFF2806D0396831F810004FF45671FE
S11319A0084205D0306A01F087F908B90120707443
S11319B0600410D500F0FEFE68B1FEF7E7FF50B1F9
S11319C001F086FC074601F0D7FA874203D00021D4
S11319D0384601F0CFFA200744BF4046FFF78AFE9D
S11319E0E00548BFFFF7C6FD4FF41850044218BF86
S11319F0FFF7E2FDE00244BF0120FFF715FE60029D
S1131A0044BF0120FFF710FEE00144BF0020FFF7B0
S1131A100BFE96F914000FF27017012869DB306A87
S1131A20DFF8289121034FF0FF3A33D596F91410CB
S1131A3001295EDB96F9141003295ADA00218DF886
S1131A40181001218DF8141003A900F078FC0398F4
S1131A50306300F0E2FE7063B07D08B1706BB06378
S1131A6096F91400012804D002280ED10320307501
S1131A703FE000203075306A00F02CFBC9F824A048
S1131A80B07BA8B9316B002218E04FF4016100F07B
S1131A9077F82EE014F0845F13D00021317500F044
S1131AA019FB042000F05DFEC9F824A0B07B10B13E
S1131AB00120F0731DE0002200218D2000F00DFFB5
S1131AC017E0A00248BF892002D4A00103D58820D2
S1131AD0FFF7BDFD0DE0600048BFFFF783FDA000E8
S1131AE007D526480068400403D40021002000F0F4
S1131AF0BDFEA00744BF4046FFF780FD002C04D57F
S1131B00FFF75AFD4046FFF779FD05F00201002377
S1131B10994211D0404600F0D5FA022802D0032899
S1131B2002D005E0892000E08D20FFF790FD03E05E
S1131B3040F67B0100F024F805F0040100239942EB
S1131B4018BF01F037FC08B0BDE8F087F0DF0020D3
S1131B5048E50020406700600A00FA93FA88030011
S1131B6040F70020FC880300290900002D0900002B
S1131B7010F6002091FF00202CDF002004400840D4
S1131B803846FEF7D3BD00007068792E630000006C
S1131B906C69627261696C2E6100000000000000D3
S1131BA001006003010101016400B6006400C0008B
S1131BB0000000000B0000000000704701F006BCAC
S1131BC080B501210C4801F0C7FC0421072002F074
S1131BD0ABF80A480A490B4A01600421116002214A
S1131BE041620421084A1160816A41F00201816264
S1131BF001BD024802F0DAB80025080000200540C3
S1131C000108030080E200E000E100E0602080F3CE
S1131C101188704702F0A0B903460A4699A104202E
S1131C20FFE70CB480B502AA00F055F801BC5DF8DA
S1131C300CFB00B589B000F061FF0021079106910B
S1131C400591049103910291019102468E490091FC
S1131C5000230FF248210120FFF7E3FF8B48C178EE
S1131C604378027803918168029181880191817897
S1131C70009143200FF23021FFF7D3FF09B000BDDC
S1131C808349087070470EB410B504468048007844
S1131C90A1B080B102F0EAF868B18022694602205E
S1131CA000F0B5F823AB224600210FF2791002F0C0
S1131CB0C6F900F0DBF821B010BC5DF810FB0C2273
S1131CC00021744802F039BB724931F81020521CCB
S1131CD021F8102070472DE9F04107466C48007840
S1131CE0A2B00C469046002690B9380018BF012FC8
S1131CF00ED0042F18BF052F0AD0312F18BF332F51
S1131D0006D0372F1EBF3B2F4FF6FF718F4275D180
S1131D1002F0ACF8002871D0802202A9384600F005
S1131D2076F8002C68D007E08DF80400012201A9A0
S1131D30002000F077F8641C207801005CD0A0F14A
S1131D4030020A2A05D20A2101FB0600A0F130065E
S1131D50F1E7422818BF44280CD0462827D057283A
S1131D6008D0622836D0662821D06C281CD0702870
S1131D701DD0D9E7422807D158F8042B6946012021
S1131D8002F005FB01220DE0572858F8042B6946A0
S1131D9004D1012002F0FBFA022203E0012002F048
S1131DA0F6FA04226946C3E758F8046BC3E758F807
S1131DB0041B462807D10026885D00281EBF761C18
S1131DC0F6B2FF2EF8D1F2B2002000F02BF898B949
S1131DD00026B0E758F8047BB8B20028ABD002F074
S1131DE054FF0546B8B202F038FF0146EAB20020BB
S1131DF000F018F800289ED000F038F822B0BDE8B2
S1131E00F081122804BF002003F047BC704710B5CE
S1131E10214C616001462270606802F02DF8607008
S1131E2010BD0000F8B515000C461B4E1CD0707890
S1131E30317873680F1AFFB2EDB2BD42B8BF2F46B6
S1131E403A462146184402F016FA70783818707031
S1131E50ED1B3C44E8B238B17068711C02F06FF8B5
S1131E600028E4D00120F2BD0020F2BD10B50A4CD8
S1131E706068611C02F063F808B1012010BD607055
S1131E8010BD00005746000040F70020EC5003004E
S1131E9092FF00209CF60020A8F6002042423870F1
S1131EA042424242574242004242425744420000A8
S1131EB02DE9F0410125012818BF202894B00446DB
S1131EC00F4690461E4623D10AA82549242200F035
S1131ED049FA68460AA9242200F044FA1020012C89
S1131EE018BF202CADF82400ADF8260008D0022C31
S1131EF018BF212C04D0032C1CBF222C232C14D15A
S1131F00012E0197ADF80C8004D14FF4805005E008
S1131F1001200BE0022E03D14FF44050ADF80A002B
S1131F206946204603F0DCFB0546E8B214B0BDE880
S1131F30F08180B503F077FCC0B202BD80B503F038
S1131F406FFDC0B202BD0CB480B50A46014602ABB7
S1131F50044802F074F802BC00205DF80CFB000099
S1131F60405A0300BB5900007047000010B50446F6
S1131F70FFF74CFE200A00283E4808BF24024FF217
S1131F800F0104804180BFF35F8FBFF34F8F3A4846
S1131F903A4A016801F4E06111430160BFF34F8FD5
S1131FA000BFFDE780B5002000F009F830B9BDE8B6
S1131FB00440E3210FF2DC00FEF7B8BB01BD2DE9BC
S1131FC0F0422F4C216842428D1815F01F0108D0B1
S1131FD0002802D44842054403E04842284400F162
S1131FE020052848A5F12006A84224BF2648864299
S1131FF003D3EFF30880854201D300202DE000F0E5
S1132000F5FB81462148006810F0010718BF03F072
S11320108CFD206801468D4206D2A84224BFCD2102
S113202000F80119F9D206E02038002201E000F896
S1132030012B8842FBD32560304603F07DFDE2206E
S113204001E006F8010BAE42FBD30FB103F04AFDE9
S1132050484600F008FC20682038BDE8F0820848B3
S11320600068704706480068203870470848704781
S113207000000000000000200CED00E00400FA0560
S11320803CE1002050CD00207017002094ED00E0CA
S1132090000000206D6963726F2D696E7465726E45
S11320A0616C2E630000000038B5044621480460CA
S11320B00D46204600F0B8F929462046BDE83440D4
S11320C000F07EB90120704703F093BF0846114623
S11320D000F0CBB970470846114604F03CBE02201C
S11320E0704700207047002070470120704700208F
S11320F0704710B50C4611461A46034620460D4C4F
S113210064682468A04710BD0A48406840680047D6
S1132110084840688068004710B582B0049C009469
S1132120044C64686469A04716BD0249496889691A
S11321300847000004E300200C3000F099B80C308C
S113214000F0A8B80C3000F0B7B80C3000F00DBDAA
S11321500C3004F067BE0000C1630000336400006B
S11321603F6400006364000077640000DF20000027
S1132170E3200000E7200000EB200000EF20000037
S11321800120704738B500F01BF800212561E1609B
S1132190BDE8324004F049BE38B500F011F82169B9
S11321A0E26829400D0018BF01251143E16004F0E5
S11321B03CFE15B10020042134BD0020002134BDB3
S11321C004460D4604F034BE38B5FFF7F9FF226922
S11321D0E1682A4021EA0205E56004F026FE28466B
S11321E032BD8069704770B582B005460C0006BFE9
S11321F00FF25C00006820681646009006B9EE688D
S113220031462846FFF7E0FF32466946284604F087
S113221035F90CB10098206073BDF8B500F10C07D6
S11322200C4615463846FFF7ABFF022628B12A466E
S113223021463846FFF7D7FF00263046F2BD80B569
S11322400C3001F00111FFF79DFF002002BD0000DA
S1132250FFFFFFFF38B504460D4603F0FFFE08B943
S1132260022032BDA9B22046BDE8344000F023B9B3
S113227038B50446154689B2FFF7ECFF010005D1D5
S113228029462046BDE8344003F00BBF32BD0C3074
S113229003F0E3BF70B500F00AF8010006D132463E
S11322A029462046BDE8704003F043BF70BD044694
S11322B015461E4689B2CDE770B5FFF7F8FF010059
S11322C006D1324629462046BDE8704003F0F2BEEE
S11322D070BD7CB50D466946044600F02DF89DF8A6
S11322E000102A46204604F0A7FD04F10C0601461E
S11322F0304604F037F976BD30B583B069460446FC
S113230000F01AF804F10C05284604F061F90246BD
S11323109DF80010204604F0F7FD3EBD38B50C468C
S113232000F10C050021284604F01CF9214628463A
S1132330BDE8344004F009B90C3004F043B90C3062
S113234003F0F9BC62B38B0708D0521E11F8013BAD
S113235000F8013B00F024808B07F6D1830740F09E
S1132360208000BF103A07D330B4B1E83810103AD7
S1132370A0E83810F9D230BC530724BFB1E80810E4
S1132380A0E8081044BF51F8043B40F8043BD207CE
S113239024BF31F8022B20F8022B44BF0B780370C2
S11323A07047083A07D3B1E80810083A40F8043BEC
S11323B040F804CBF7D25307E4E70000012070474C
S11323C010B5044603F0EEFC08B1002010BD204611
S11323D010BD70B50D00044614BF012600261F2150
S11323E0304604F0E5FD0020606225621F2130467E
S11323F004F0DEFD4FF6FF76002001E0401CC0B281
S1132400E968884209D2A968182212FB00F2114433
S1132410C989B142F2DA0E00F0D13146204600F00B
S11324204AF8304670BD704710B5044603F065FDA8
S1132430A06A0100DFF8301208BFDFF830028860BC
S113244010BD38B500F10C050C462846FFF7B6FF61
S113245028B103F0CEFD012801D0022032BD21466F
S11324602846BDE8344003F09ABD10B50C4603F08D
S1132470ABFD1CB103F0BDFD0128FBD110BDF0B5CF
S113248004467B48066883B00D466946204604F03E
S113249099F8B5F91220012747F6FF702479824292
S11324A007D09DF80010304604F0C6FCA04238BFA7
S11324B000273846FEBD2DE9F04F85B04FF00009E6
S11324C08DF801900446684F8DF800900D463868E9
S11324D0D7F804A00290CDF804A0204600F0C1F87B
S11324E08046266AD4F824B000F0EBF8002818BF20
S11324F0D34505D1BBF1000F02D0A8B240454BD063
S1132500002E1CBFB068002801D0F06808B9032071
S11325109CE0CA4601E00AF1010AF068824518D23B
S1132520B068182101FB0AF10144A8B2CA8990429B
S113253022BF088AAAB29042EDD301208DF8000090
S11325408B462046FFF79BFF0028E4D001208DF83E
S1132550010003A9204604F035F8204604F038F8B9
S113256082469DF80100C0B1217900F073F8386803
S113257060B3B04223D17A680AB35A451FD1A9B2D5
S1132580884506D00023204604F024F85FEA0009B9
S113259012D1C4F824B0658057E09DF8000048B11A
S11325A0BBF912209DF80C10A4F10C0004F044FCBB
S11325B00146DAE7012049E000F04BF83FE001680A
S11325C021B13268914208BF416800D0316800F0FF
S11325D045F881465FEA090004D1DBF8001000F0F9
S11325E03DF881465FEA09000FD100F06AF810B1A6
S11325F03E60C7F804B0C4F824B0658001235A468D
S1132600A9B2204603F0E6FF81465FEA090005D13E
S1132610BA685946A4F10C00904716E000F051F84E
S113262098B10298386001987860386808B100F071
S113263014F800F00EF8786838B100F00EF87A68F3
S113264000234146204603F0C5FF484605B0BDE8D7
S1132650F08F5146204603F0A5BF0168204604F0E0
S11326604FBA4088704700000CE300202724000084
S113267004E3002001281CBF0428022801D1012002
S113268070470020704738B500F03CF840B16878D6
S1132690FFF7F0FF20B1287869780843400701D597
S11326A0012032BD00F00DF828B103F0A2FC400770
S11326B001D5022032BD29462046BDE8344003F04E
S11326C00BBF20467AE60C30DDE738B500F01AF887
S11326D038B16878FFF7CEFF00281CBF687804285B
S11326E001D1012032BDFFF7ECFF28B103F081FCDA
S11326F0800701D5022032BD29462046BDE834407A
S113270003F012BF0D4604462878B3E70C30DCE72B
S113271030B583B00C30DDE90645CDE9004503F062
S1132720BAFB3EBD0C3004F0B7B90000002070477E
S113273038B51446FEF76AFB05466CB128000BD089
S11327400A48007818B10A490120087004E0002200
S11327500021284600F0C1F8284632BD7047704772
S113276070470449087070470000000056E50020D7
S113277057E50020A2FF0020012070470C3004F030
S113278020B90846114604F08BB80846114604F0F7
S1132790A5B870B50C4615461E460C30FFF7ECFF85
S11327A038B1049B324629462046BDE8704003F008
S11327B0ADBB70BD0020704704F068BC38B50A4852
S11327C00C4601884FF6FF75ADF8005002237F22B6
S11327D0684604F0E5FCBDF80000A84202D0208061
S11327E0012032BD002032BDFE880300EFF31180CA
S11327F0602181F31188704780B504F092FD04F0E4
S11328009DFD80B202BD80B504F08BFD04F096FD01
S1132810FA21B0FBF1F080B202BD80B504F081FD75
S1132820BDE8044004F08ABD80B504F0D6FB074837
S113283000214160001D04F001FD20B139210FF297
S11328401400FDF773FF002002BD0000DCF6002039
S113285000F008B873797374656D2D74696D6572D1
S11328602E630000704780F3118870470120704781
S113287038B504466048614D002912BF0021017833
S1132880491C01700120012100F079FD2878411CC8
S113289089B2032000F073FD200003D000F068FB30
S11328A0002808D500F064FB40054CBF032001203C
S11328B00021FFF7DBFF524844702846BDE838404A
S11328C001224FF47A71FFF733BF80B5FEF71AFC8B
S11328D0BDE80240312004F057BF38B50446402C0F
S11328E0154606D100F044FB00F08020B0F1004F03
S11328F003D000210020FFF7B9FF002C3AD0402C70
S113290024D0882C18BF892C38D08C2C38D08D2C0E
S11329102DD08F2C39D13B48007804280FD155B1E4
S11329203949022008704CF25032BDE8384037492A
S1132930002005F003B8FEF7E5FB312021E0FEF7A7
S1132940E1FB002D0CBF312000201AE0FEF7DAFB7A
S113295005F074F828482E4900780978884204D292
S1132960BDE834400021012082E7402009E0FFF760
S1132970F5FE03E0FEF7C6FB002002E0FEF7C2FB13
S11329808D20BDE8324004F0FFBEBDE83440B421E0
S113299045E01D480078022800D0704780B51D48E6
S11329A00078012807D0032810D11B48007802289A
S11329B018BF7C280AD11549002004F0FEFFFEF759
S11329C0A1FBBDE80240002004F0DEBE01BD38B525
S11329D0FFF70CFF05460C480078002410B9FDF7FA
S11329E0B5FF04462846FFF73EFF1CB1BDE8314061
S11329F000F0E0BC31BD0000A3FF0020E2FE002097
S1132A007CE10020F2E30020A7FF0020CB28000097
S1132A10F5E30020A5FF0020A6FF0020E9210FF226
S1132A200800FDF783BE00006D61632D7068792E88
S1132A306300000010B5424886B0016841F480711B
S1132A4001604FF416713F48016002AC3E49416099
S1132A503E4901674FF4F071816001203C490860F0
S1132A6004F0EEFF04F00DFC05F0D7F83948D0E986
S1132A700023CDE9002301208DF80300684605F00A
S1132A808CF905F005FCFFF7CFFE33480FC884E846
S1132A900F0008208DF8140002A805F005FC06B00C
S1132AA010BD40F20160FFF761BA80B5002100203B
S1132AB000F060FABDE8014005F004BC05F003BC79
S1132AC0002818BF00F007BC00F006BC80B505F074
S1132AD03CFC014621480C2938BF00EB810002BDB3
S1132AE080B505F036FC1E490204120E51F822107E
S1132AF000F0FF0001EB800002BD000010B505F0FE
S1132B0024FC044605F025FCC0B208B9012C07D109
S1132B10072C11D8DFE804F004100608080A0C0E8C
S1132B20002010BD092010BD022010BD032010BDDF
S1132B300B2010BD062010BD44F0800010BD000025
S1132B4000000E408C420E404A5D050028E216004B
S1132B5010300E40FC510300B4520300C452030071
S1132B60045403000C3003F0D5BB38B50D460446BD
S1132B7089B2FFF7A0FC010005D1A9B22046BDE847
S1132B80344003F075BB32BD70B50C4684B000F11F
S1132B900C05237E627EA17E284605F06CFC684607
S1132BA004F10C010C22FFF7CDFB6946284604F022
S1132BB0D4F8211D284600F08CF9060003D12846DC
S1132BC005F090FC0646300005D10FF21C11284692
S1132BD004F06DF80646300003D1284605F0D2FB18
S1132BE006462168284600F006F8304604B070BD59
S1132BF00C3005F0C0BB70B58AB004460D4668467B
S1132C000FF2C0012422FFF7ADFB05B96D46002683
S1132C1001E0010005D135F81610F2B2204605F0A6
S1132C20E4FB010006D105EB4600F2B2C188204660
S1132C3005F0E4FB010007D105EBC60000F10C012F
S1132C40F2B2204605F0F3FB761C032EE1DB0AB05A
S1132C5070BD032ABCBF0C3005F0C7BB0120704710
S1132C60032ABCBF0C3005F0C9BB01207047032AFE
S1132C70BCBF0C3005F0DBBB0120704738B500F059
S1132C8015F828B121462846BDE8344005F0E6BBD6
S1132C90022032BD38B500F009F828B12146284693
S1132CA0BDE8344005F0D0BB022032BD00F10C0574
S1132CB00C46284605F05CBB0C3005F0EBBB08461F
S1132CC003F004B8FFFFFFFFFFFFFFFFFFFFFFFF5D
S1132CD000000000000000000000000000000000F0
S1132CE000000000000000000000020800000000D6
S1132CF010B5144C207858B91348018808237F2252
S1132D00201D00F069F8201D00F011F8012020704A
S1132D1010BD10B50B4C01460822201D01F0ABFA82
S1132D20201D00F004F80120207010BD074880B574
S1132D3001460822064801F09EFABDE80140FEF76C
S1132D4055BB000034F700200089030038F7002049
S1132D5040F7002038B50C4611461A467F2908BFB3
S1132D60002141F2F0139C4218D154490B68496880
S1132D700024D5B27DB30355641C1B0A521EE4B271
S1132D80042CF6D3E4B2082C25D2D3B2002B1FBFF7
S1132D900155090A521E641CF4D131BD04F4704576
S1132DA0C4F30B03B5F5805F11FB02F108BF43F0D8
S1132DB07E630BD0B5F5005F1CBF04F47044B4F51A
S1132DC0405F08D143F07C6343F40113C918BDE8A4
S1132DD0384001F050BA31BD70B51E0004461546A6
S1132DE01BD04BF23460814211D1092E28BF082632
S1132DF033467F2241F202012046FFF7ABFF324601
S1132E002F49204601F0A0FA38B941F2F0113346B7
S1132E102A462046BDE870409CE770BD2DE9F84382
S1132E2007460024F807884615466FF00F06DFF8BA
S1132E30949002D5652100F049F8E80702D566218F
S1132E4000F044F807F47041B1F5805FC7F30B005C
S1132E500CD140F07E64B4F17E6F264604D3281969
S1132E60401E1949884210D36B210CE0B1F5005F74
S1132E7018BFB1F5405F05D140F07C6444F40114FF
S1132E80264602E0722100F021F8002706E0F05DFA
S1132E90FF2802D07C2100F019F87F1CAF42F6D342
S1132EA06A084146204605F07DFB28B14846BDE846
S1132EB0F4438521FDF73ABCBDE8F183F081E00FCE
S1132EC0F4510300E85103000008E00F4846FDF701
S1132ED02DBC70B50D4682B00446287858B900213F
S1132EE0204603F0C1FB0021204603F015FC00211D
S1132EF0204603F019FC2878002814BF0420287900
S1132F0000F027F814BF287968798DF8010020466D
S1132F10FFF7DBFB06001AD12878002814BF022033
S1132F20A87900F016F814BFA879E8798DF80100A3
S1132F302046FFF7A8FB060009D1287838B1698834
S1132F40204603F09DFB0121204603F08DFB304613
S1132F5076BD8DF8000069462878002870470C304B
S1132F6003F0DABB0C3003F0E9BB084603F025BFDD
S1132F7000207047012070470020704770B5044658
S1132F80A0480D460178164619B14188491C418074
S1132F9070BD204605F033FB80B1FEF723FA38B14B
S1132FA0A078002E14BF40F0010000F0FE00A070D5
S1132FB029462046BDE870402E2200E070BD70B561
S1132FC004460D461646601C01F0D0F910F0070FB8
S1132FD01ABF41F64901884200260121002000F071
S1132FE0CEF92078411C89B2022000F0C8F932469B
S1132FF02946204601F0E4FF18B1BDE8704005F011
S1133000BFBD80488188491C818070BD2DE9F04F87
S1133010A5B002F020F87B4E814600257088A846B2
S113302000B17580B188080003D00D2000F0A7F925
S1133030B5805FEA090042D001F00FFE040018BF1A
S11330402578601C01F092F910F0070F1BBF41F6C0
S113305049018842C3464FF02E0B484601F015FE45
S11330602018CBF100010844A0F10801082202A8AD
S113307001F001F902AFF878FDF7F4FD2946FDF7F8
S1133080F2FD834697F902008DF804005E4800784B
S1133090B0B1B068002812D004A8802106F0DEF890
S11330A06B1CCDF80080DBB20022494604A801F075
S11330B0F1FF9DF90420B368594604A898479EE09F
S11330C0484606F0D9F90028504D1ED0052148463F
S11330D002F028F882460320FEF7F6FD4C4F4D49D6
S11330E00AF007003870FF20087084F801B09DF8DA
S11330F00400A0709DF80800E070484606F08FFDBB
S11331000328484602D107F0C7FE6AE006F077FDBF
S113311000F00500042807D03878032804D1484675
S113312004F07DFB00285CD105F05EFD18B105F0CC
S11331305BFD012802D13878002860D1F2681000C4
S113314004D0002148469047002858D12878032805
S113315018BF042805D0022821D12F480078C007C1
S11331601DD405F041FD032819D1484606F00FFE91
S1133170B0F5004F13D1484606F02CFE27490988C4
S113318081420CD0484606F03AFD000707D4484671
S113319006F035FD400632D5387801282FD128783D
S11331A0042804BF3878012809D11D495FEACA60A0
S11331B081F8008003D504F00AFA4FF0010838784A
S11331C020B101280AD0032804D00AE0484607F0B9
S11331D017FA06E0484608F06FFB02E0484608F09C
S11331E0B9FB287804280AD10D48007888F0010139
S11331F0084204D00A490020087004F0E8F925B018
S1133200BDE8F08FACFB002056E5002006F7002057
S1133210A5FF0020A6FF00200AF70020BAE1002045
S1133220D7FE0020F8B5274D2E68040001D1FF20F9
S1133230F2BDFFF7DBFA244F29683A7821F81240EF
S113324036F8021BA142FBD1FFF70DFB29683A783F
S1133250B01E401A4010C1B2914208BFFF20C0B254
S1133260F2BD2DE9F843194C174D2668814628789C
S113327006EBC007FFF7BAFA8046082249463846EB
S113328000F0F9FFF88800E00836F188814202BFB7
S113329031883A889142F7D171887A88914202BF85
S11332A0B188BA889142EFD14046FFF7DCFA206832
S11332B02A78301AC010C1B2914208BFFF20C0B2B0
S11332C0BDE8F28330DF0020EBE3002034DF002090
S11332D000207047704770477047704770477047C9
S11332E07047704770B5044643381E4D08D0401EE1
S11332F0012809D9801E01280ED9C01F31D02AE027
S1133300BDE870400AF0DFB80AF0B5F820B10AF061
S1133310DAF80028FBD170BD134E307808BB0120C9
S1133320307000200AF048F9442C11D00CD3462CFC
S113333005D00DD3472C07D140F6010001E040F63B
S11333400200FEF713FE03E0E9212846FDF7EEF93B
S11333500020307070BD2846BDE87040FB21FDF7A9
S1133360E5B970BDD05A03008AFF002000207047E1
S11333707047002070477047704770477047704728
S11333800020704770477047704770477047704718
S1133390704700207047704700207047704770479F
S11333A07047704770477047704770477047704761
S11333B070477047FDF756BB70471CB5059C0194D8
S11333C0049C0094FFF7F8FF13BD00000AF062B9F3
S11333D0890001EB401000F18440026070478900CD
S11333E001EB401000F184400068704710B5DFF82D
S11333F07C4612212046FFF7F2FF0028F9D120680D
S1133400000C00F0030010BD0122DFF8D01510B548
S1133410884232BF0022DFF8C815884201D2144620
S113342000E002241021DFF8BC05FFF7D1FFDFF82C
S11334305406016821F0807141EA0461016010BD05
S113344070B5DFF8A425DFF840461368002304EBC9
S1133450C305CEB22D79B54203D154F83350854219
S113346002D25B1C052BF2D3052B0EBF032004EB09
S1133470C3004079116821F0407141EA0060106096
S113348070BD38B500F013F841F6713020600AF0D1
S113349046F9002105E038B500F009F841F671322B
S11334A02260FFF7CDFF0DB10020206031BDDFF8B1
S11334B0DC45256805B101257047C01C0F2801D2E1
S11334C0000770474FF070407047000038B504465D
S11334D0002500F059F9DFF89825DFF81815944213
S11334E008D0DFF89025944206D0DFF88C2594426A
S11334F004D006E0086802E0486800E0886800F04C
S11335000700401E04281CD8DFE800F009030D065C
S113351009000AF03BF904E00AF035F901E00AF089
S11335202FF905460DE00AF0EDF8DFF858150968A3
S1133530090E01F001010122491C02FA01F1B0FB5C
S1133540F1F5284632BDDFF848154A68D20702D49F
S11335500A680242FCD1704770B5020A0C4602F0B8
S11335600F020021521E092ADFF8005714D8DFE8A1
S113357002F005141313071619131C20DFF8645402
S1133580C0F3043611B10846FFF7DDFF2246314689
S11335902846BDE870401BE770BD1035F0E73035B4
S11335A00121EDE738351021EAE740354FF4803149
S11335B0E6E7DFF82457E3E770B5DFF8D814DFF85F
S11335C0B0240E68DFF8AC14DFF8B844012510F419
S11335D0781075D0B0F5003F30D0B0F5802F27D0EB
S11335E0B0F5002F6CD0B0F5202F2DD0B0F5402FC2
S11335F05ED0B0F5602F3FD0B0F5901F53D0B0F53A
S1133600A01F2AD0B0F5B01F39D0B0F5D01F22D0FA
S1133610B0F5E01F31D0B0F5001F44D0B0F5281F3D
S113362022D0B0F5301F31D0B0F5381F4BD061E057
S11336300AF077F8E168C1F308210AE00AF071F8AA
S1133640A168C1F3082104E00AF06BF86169C1F3D1
S11336500421491C24E0104627E01046FFF736FFFA
S1133660216A01F00F0119E01046FFF72FFF06460B
S1133670206AC0F30110C6403DE0084615E0084644
S1133680FFF724FFA16AC1F3011107E00846FFF721
S11336901DFFA16A090A01F00301091D05FA01F1E0
S11336A0B0FBF1F627E0DFF8D003FFF70FFF1FE0D0
S11336B0DFF8280600F068F807281CD0092819D17B
S11336C00AF02FF814E0DFF8180600F05DF804287B
S11336D00CD007280FD008280CD10AF022F8216852
S11336E0C1F30421491C01FB00F604E00AF034F89C
S11336F0064600E00026304670BD0000030903F0D2
S11337000F0301215B1E072BDFF878233AD8DFE88B
S113371003F004060A0E10142339106800E05069FF
S1133720C0F3042070471068C0F300607047D0688D
S113373000E09068C0F308207047DFF8A83598428D
S113374004D0DFF8A435984204D01BE0106A00F0DE
S11337500F0013E0106A09E0DFF89035984204D0B6
S1133760DFF88C35984204D00CE0906AC0F3011065
S113377004E0906A000A00F00300001D01FA00F062
S1133780401E704700207047014601F00F010120E0
S1133790491E0729DFF860254ED8DFE801F0040F41
S11337A0134D21334D3B506A00F0070002283FD0EF
S11337B002D3042804D01FD305207047116910E0F8
S11337C002207047516901F00701491E042934D8C9
S11337D0DFE801F0120304141600F1E70620704735
S11337E0916901F00701012906D00229E8D00429D2
S11337F004D0052904D07047032070470A2070477D
S11338000B207047116811F001010FD0012914D168
S113381009207047DFF8E414096801F03001102929
S113382004D0202904D0302904D0704707207047E1
S11338300420704708207047002070472DE9F843A2
S1133840804600260324B8F1110F0F46A14612D179
S1133850042F02D109F080FF08E0052F0BD1DFF817
S1133860A004DFF8A0140068884204D306001CBF3B
S1133870002104F048FA08F00F00401E0728DFF882
S113388078540ED8DFE800F0043D439440789482E5
S1133890022F524806D0032F29D0042F2AD0052FF7
S11338A02DD085E004244FF000090122012148466F
S11338B000F0F2F8FFF7E5FD36B11221DFF8AC01B4
S11338C0FFF78DFD0028F8D16C6000F083F8FFF756
S11338D09BFD09F017FF0446FFF788FD01462046CB
S11338E0FFF7D9FD002E63D1BDE8F4437EE04FF02D
S11338F00109DAE70224A146FFF786FDD5E7012492
S1133900FAE705F1100404E005F1180401E005F1FB
S11339101404012F0AD0022F0BD0032F10D0062F2E
S113392015D00A2F1FD00B2F1FD041E0002020609C
S11339303EE001220121002000F0AEF80220F6E76B
S113394001220121012000F0A7F80120EFE709F08E
S1133950D9FEFFF759FD01220221DFF81003FFF71A
S113396037FD0320E3E70420E1E7012201210620DB
S113397000F092F80520DAE7072F02D0092F02D0D1
S113398016E0002000E00120286011E0012F06D09D
S1133990042F16D0072F0DD0082F19D008E00020CF
S11339A0DFF858130A6822F0300242EA0010086077
S11339B0BDE8F18301220121042000F06DF801200B
S11339C0EEE701220121022000F066F80220E7E779
S11339D00320E5E7DFF81C03EEE500000148E801F9
S11339E00190D00300400E4004000E40012100204D
S11339F004F089B980400E4070B500F03FF8012210
S1133A000021022000F048F8217CDFF80453002054
S1133A100229296808BF0120490840EA41002860BA
S1133A20082122782846FFF7D3FCA088617A41EA6E
S1133A30C020A860EE68207AFFF73FFDE28806F018
S1133A407F6141EAC221A27A1143227A41EAC2117A
S1133A500843E860A17B607B090141EA0030E17B17
S1133A600843217B40EA0140286170BD04300E40C8
S1133A7002001A0003001C00050020000446112067
S1133A8082E6000000410E407450030040000E40E6
S1133A9040410E4028DF00202DE9F84F06288246D9
S1133AA0904634D8DFE800F04F4A4004457A560087
S1133AB001260220012700240029DFF81892944DE2
S1133AC067D0BAF1020F02BF2868C0F301100028C2
S1133AD04FF0000B0CD18F4800682868C0074FF0E6
S1133AE0010B05D5286820F0300040F01000286054
S1133AF0EE6300F055F80028FBD0B8F1000F4DD06C
S1133B00394600F04EF80028FAD0BAF1020F45D138
S1133B10BBF1000F42D02868C00722D50122202122
S1133B20022000F0C6F820E004260820032702241F
S1133B30C2E71026202005270424BDE74026802064
S1133B4007270624B8E74FF480764FF4007009275E
S1133B500824B1E74FF480464FF400400F270E24A9
S1133B60AAE70021022000F083F8022000F01CF8EC
S1133B700446012200210220FFF78EFF2146022085
S1133B8000F02CF8EE63394600F00BF80028FAD068
S1133B9004E0E86300F004F80028FBD1BDE8F18FED
S1133BA021464846FFF71BBC401E0328564912D83D
S1133BB0DFE800F0020C06080869C0F3080070474B
S1133BC0086800E0886800F07F0070475248006889
S1133BD0C0F30A00704700207047000070B5401E13
S1133BE00D46032805F07F01474C484E3DD8DFE8D9
S1133BF000F0022A101DC5F308051A213046FFF70C
S1133C00EEFB0028F9D12069400A45EA40202061F2
S1133C1070BD0D4618213046FFF7E1FB0028F9D1AD
S1133C202068C00945EAC010206070BD0D46192106
S1133C303046FFF7D4FB0028F9D1A068C00945EA53
S1133C40C010A06070BD23480068606920F0300097
S1133C5040F010006061C5F3C310FFF72EFC216A29
S1133C602E4A114029430843206270BDB0400E40E3
S1133C7027480268C2F30112002A18BF002907D09E
S1133C80202902D0302903D005E04FF4000103E0DD
S1133C904FF4400100E02249C26E0A408A42FBD13F
S1133CA0490204D5C06F800A00F00100704701206A
S1133CB0704710B502280AD10B0004D0194B4FF4F9
S1133CC080645C64196012B1BDE81040D0E7012043
S1133CD010BD000090400E4050410E4006000C0004
S1133CE098002E006006140060162A007017160053
S1133CF070272C000025080070400E405C410E40E7
S1133D00D8DF0020012D310110400E4040410E400B
S1133D1024400E403C300E409C400E4000F8FF0F03
S1133D20FFF3E17F64400E4010B51B4B1C6890FA12
S1133D30A0F2B2FA82F224EA00009140084318602B
S1133D4010BD164901200860704770B51448154B22
S1133D5001680020002203EBC20453F83250646867
S1133D60114E366876070DD4B5F5007F18BFB5F54A
S1133D70806F05D0B5F5006F18BFB5F5803F01D150
S1133D8044F48074294202D0214208BF2843521CC3
S1133D90092AE0D370BD000000500E4008500E40C8
S1133DA004500E409C500300E841E00F0168C9072D
S1133DB007D58168890704D48168C907FCD4012127
S1133DC04160704780B501216B48FFF7C5FB6B4923
S1133DD001200860002009F00FFD012304220221C4
S1133DE0052009F04BFD0120FDF74AFF00F011F812
S1133DF0FDF765FF62490120087009F033FE0123D5
S1133E0040226049604809F0FBFD60490860C00F2A
S1133E1002BD10B5012201210420FFF73DFE5C48DC
S1133E205C4C016841F0010101600022C16841F06D
S1133E308071C1600023584958480860584802609E
S1133E40584A1360022323601523574C2360002330
S1133E500364564B0B65564911604FF48071554A03
S1133E601160016841F48071016010BD4848006828
S1133E7000B10120C0B27047D12202704170090A1A
S1133E8081704D490A78C270501C08700420704734
S1133E902DE9F84F80464D1DFEF7AEFC0027824603
S1133EA04FF6FF7B454C15E008EB0700594610F828
S1133EB0026C304609F0E2FD83464F4639480068FB
S1133EC0C00707D536480068C00503D52068002818
S1133ED0FCD02670FFF7CAFF40B3F8B2E9B28842BB
S1133EE024D2FEF789FCA0EB0A0080B2B0F5FA7F79
S1133EF022DCF8B210B95B260127DFE707F10109DC
S1133F00FFB2012F08BF6E1FD7D0EDB2E81E874263
S1133F1008BF5E46D1D0A81E874208BF4FEA1B26C1
S1133F20CBD0681E8742BFD15D26C6E7FFB2EDB293
S1133F30AF4208BF002000D00120BDE8F28F10B5C9
S1133F400C460246217800200529A4BF1046FFF73D
S1133F509FFF0421217010BD00B50C48006891B08A
S1133F604022694609F037FD20B1C2B269461220E9
S1133F70FDF747FF11B000BD00350800108814425A
S1133F8081FF0020C8E800207C44030024DF0020D7
S1133F90F0ED00E0F00004E0B00F00E055CEACC559
S1133FA0000E00E0800E00E0100004E0FF0300407B
S1133FB00D000100040304E080FF0020200000E065
S1133FC070B51346104402E0A4192C705B1EDCB2D9
S1133FD04CB101F00F060909451E0A2E2846B4BF4C
S1133FE030243724F0E7104470BDF0B5002341B10C
S1133FF0002806D501232D21B0F1004F117018BF00
S11340004042002100248D4D55F82470002601E023
S1134010C01B761CB842FBD2F7B20FB90F0005D013
S1134020DBB206F13001D1545B1C0121641C092C64
S1134030EADBDBB23030D054581CC0B2F0BD2DE9FD
S1134040F24F804696B013A80190154603A89B46EC
S113405003AE002700248DF800000BE00124054680
S11340600198864205D300F0DCF800284FD100F017
S1134070CEF86D1C9DF800002978301A0A000BD088
S1134080252903D014B906F8011BE9E7002C14BF55
S113409000246D1C29780A0000F0AF80B1F12502DC
S11340A016D00B3A092A40F28980283A7DD00A3A80
S11340B012D0521E41D0521E5FD0083A5DD0121F5A
S11340C03ED0D21E3CD0921E57D0D21E6DD0C7E730
S11340D0252006F8010BC3E7DBF8000002904FF03F
S11340E0000A0BF1040000F1040BD0F80090CA455B
S11340F0B6D2029810F80A1002223046FFF760FF89
S113410006460198864205D300F08BF800287AD140
S113411000F07DF8A9F1010082453CBF202006F89B
S1134120010B0198864205D300F07BF800286AD180
S113413000F06DF80AF1010AD9E75BF8040BC8E74F
S11341405BF8049B00F067F800285CD100F05FF88E
S11341504FF0000A01E00AF1010A5FFA8AFA19F83D
S11341600A000028F7D19DF8580052464946C04736
S1134170002848D15744FFB272E76C290AD16A7803
S11341805BF8040B752A0EBF00210121642A07D1B4
S11341906D1C05E075295BF8040B0CBF002101219F
S11341A03246FFF722FF36185AE75BF8041B022257
S11341B0C9B23046FFF704FF064651E76A78012486
S11341C0782A18BF582AF8D16D1C0024681E322999
S11341D004D15BF8040B042281B2EAE734297FF4AA
S11341E03DAF5BF8049B04224FEA19413046FFF7C8
S11341F0E7FE04221FFA89F1DCE700F00CF810B99D
S1134200F019C0B200E0002017B0BDE8F08FF71934
S1134210FFB203AE704706469DF85800F2B203A9F8
S113422040479DF80000361A9DF85800F2B203A9E1
S1134230404701A112E000000D0A000010510300E4
S11342400CB438B5044604AA00F010F8054620461C
S1134250FFF7EFFF284632BC5DF80CFB0CB480B5C9
S113426002AA00F003F802BC5DF80CFB80B501F073
S11342703AFBC0B202BD814233D210441144401E05
S1134280491E10E011F8013900F80139121F11F824
S1134290013900F8013911F8013900F8013911F830
S11342A0013900F8013992B2042AEBDA93B2002BF7
S11342B01EBF11F8013900F80139521EF6D17047BA
S11342C011F8013B00F8013B121F11F8013B00F803
S11342D0013B11F8013B00F8013B11F8013B00F8E8
S11342E0013B92B2042AEBDA93B2002B1EBF11F801
S11342F0013B00F8013B521EF6D1704710E011F863
S1134300013B00F8013B121F11F8013B00F8013B8F
S113431011F8013B00F8013B11F8013B00F8013BA7
S113432092B2042AEBDA93B2002B1EBF11F8013BC0
S113433000F8013B521EF6D17047130003D00A4621
S1134340194609F0AFBB704710B500E0521E93B296
S113435023B100F005F8F9D0181B10BD002010BDE2
S113436010F8013B11F8014BA342704741780078E3
S113437001E00178407800EB012080B270470170C1
S1134380090A417070470A0A02704170704710B5FB
S11343900023040014BF1C46C3F10304E4B25B1CF5
S11343A00A55120A042BF4DB10BD30B500240500B5
S11343B014BF2546C4F10505EDB2641C4A55120A22
S11343C042EA03621B0A062CF1DB30BD30B54A78A1
S11343D08B78CC78097818B120461D460C4602E04B
S11343E0154608461A4645EA002044EA022141EAF5
S11343F0004030BD00B583B020B10622684600F00D
S11344002AF803E006226846FFF735FF9DF80020EE
S11344109DF8010040EA02219DF8020002069DF881
S1134420030042EA00429DF8040042EA00229DF89B
S11344300500104303B000BD10B5002300E05B1C71
S1134440DCB28C4205D210F8014B9442F7D0002024
S113445010BD012010BD10B5002304E0541EE41A61
S11344600C5DC4545B1C9342F8DB10BD10B50024F2
S113447080B14FF6FF7202E0944206D0641CA4B2ED
S1134480035D002BF8D1944204D179210FF2F4009A
S1134490FCF74CF9204610BD10F8012B11F8013B34
S11344A00AB19A42F8D0D01A40B2704730B5994256
S11344B028BF1946002303E00833401C521C9BB25A
S11344C003F10804A14203DB04781578AC42F3D06D
S11344D08B420CDA007812785040C0438024C0B27A
S11344E001E064085B1C8B4201DA0442F9D198B202
S11344F030BDF8B555052D0E02F0070704460E46EB
S11345002A46FFF7B8FE47B1FF20615D725DF840AF
S1134510014022EA000008436055F1BD00210FF27A
S11345207802002805E000F00F03D35C5918C9B2E3
S11345300009F8D1084670476128A8BF572107DA57
S11345404128A8BF372103DA3A28B4BF302100211B
S1134550401AC0B270474108400021F0AA3120F04F
S1134560553008438108800021F0CC3120F03330ED
S113457008430109000121F0F03120F00F30084315
S113458070470000627974652D7574696C6974698B
S113459065732E63000000000001010201020203A2
S11345A0010202030203030410B5DFF8D84AFDF741
S11345B05DFD6061FDF756FDA0616069E06118B1C1
S11345C000F007F8652803DABDE810409D21A3E058
S11345D010BD10B5DFF8AC4AA069E169884202D287
S11345E0AF2100F0F3FBA069E169401A4FF6FE71B8
S11345F0084010BDDFF88C1A4A69904203D3C96998
S1134600884200F036BD00207047002818BFFFF72D
S1134610F1BF0120704730B1DFF8681A4969401AC8
S11346204010401C80B27047010001D10020704747
S1134630DFF8501A496901EB4000801E704740883A
S1134640C0F30C00C01C0004800C4000001D80B2AC
S1134650704710B50446FFF7F2FF04EB4000DFF8A3
S1134660241A4FF6FF7300E0801CCA69904202D2FC
S113467002889A42F8D010BDDFF80C1A086070471F
S1134680DFF8041A0FF28400086070472DE9F8433C
S1134690DFF8F05980462889A0B3B8F80200000476
S11346A030D4DFF8E4490FF264012068DFF8DC99C4
S11346B009F02CFA20B94FF4BA714846FCF736F8E1
S11346C0002701E07F1CBFB22889874204DB4FF436
S11346D0BB714846FCF72AF8286A216800EBC70634
S11346E0306808B9316003E009F010FA0028E9D114
S11346F0B088401CB0804046FFF7A1FFF18801EB71
S11347004000F080BDE8F18300000000756E636C2A
S113471061696D65640000000FF68030FCF706B82F
S113472070B50446DFF85C09807801281AD1208826
S1134730FFF77AFF04002FD0022526463046FFF704
S1134740A5FF708840F40040708036F81500FFF72C
S11347506BFF060002D070880004EFD56D1C042D99
S11347601ADAEAE7022817D1FEF740F8054620884E
S1134770FFF75AFF06000AD07088800403D540F280
S1134780392100F023FB3088C0F30E002080284636
S1134790BDE87040FEF767B870BD00B5ADF5806D3B
S11347A0ADB04FF49662694600F073F80DF5806D74
S11347B02DB000BD2DE9F84307468846FFF73FFFBB
S11347C045007888C0F30D007880800422D5FEF778
S11347D00DF804463846FFF71EFF81464046FFF7B2
S11347E01AFF0646AAB239464046FFF744FD0020A8
S11347F0DFF8901806E001EB400293894B4508BFAF
S11348009681401C0A789042F5DB2046BDE8F243CD
S1134810FEF729B8AAB239464046BDE8F843FFF787
S11348202ABD10B50C4601E0FFF713FFA04202D2E7
S113483041880904F8D510BD70B5DFF8485804461E
S1134840A878012804BF686A00281DD1204609F011
S113485084F9022818DB0021204609F08EF90DE0C6
S1134860012100F0A0FA78B93046FFF7DDFE008898
S1134870000409D43146204609F0AEF9064630005A
S1134880EED16C62012070BD2046FFF749FF002085
S113489070BD2DE9F74FDFF8EC470020E08060623F
S11348A092B0FDF7A3FF0121A1704FF0000AA18887
S11348B0ADF802100021A180E1690191FDF7D3FF59
S11348C02089C200206A92B20021FFF736FD0DF163
S11348D00200FFF725FFFDF789FF2178627855185C
S11348E0FDF7C1FFEDB206E004EB46000C30FFF724
S11348F017FF06F1010A5FFA8AF6AE42F4DB12985A
S113490048B1002501E080476D1C1298EDB250F8C3
S113491025000100F7D1D4F814904FF0000B0125C5
S11349200DF1080A0198814502D3BBF1000F37D07D
S1134930BBF1000F06D0ABF101005FFA80FB5AF81F
S11349402B8004E04846FFF784FEC8468146B8F849
S1134950020000F44041B1F5004FE3D140F480403F
S1134960A8F80200022638F81600FFF75DFE0700DB
S113497012D0788801040FD440F40040788038467F
S1134980FFF784FEBBF1100FBDBF4AF82B700BF18B
S113499001005FFA80FB0025761C042EE3DBC1E7EF
S11349A0002DB8D0656A55B12888FFF73DFE6888A8
S11349B0000447BF002060622846FFF7B1FE0020D4
S11349C0ADF800008246606A0025A0B3008800218B
S11349D000F0E9F9ADF80000002100F0E4F9064622
S11349E0BDF8000000F051F90546304600F04DF9DD
S11349F08246BDF8500050451ADB300018D000F054
S1134A0044F90746304600F028F9014613983A461F
S1134A10FFF731FC3046FFF707FE18B14188C1F3B8
S1134A200D0141800022606A314609F0FFF802E07E
S1134A300020ADF800006669B346B0460BE030884C
S1134A40000404D5D6F80E0008B1FEF791FC3046F8
S1134A50FFF7FFFD06460198864223D23046FFF752
S1134A60EEFD81463046FFF7D6FDBDF800108842C2
S1134A7006D10AEB0500C01C8010400000F10409B7
S1134A8070880004DBD55846FFF7C5FD318801F472
S1134A900041084330801FFA89F00BEB400B06EB12
S1134AA04008D4E70220A0700DF10200FFF738FEA1
S1134AB06846FFF735FE129860B14FF0000902E036
S1134AC0804709F1010912985FFA89F950F8290021
S1134AD00100F5D16769B94611E0022639F81600DC
S1134AE0FFF7A2FD20B10088C0F30E0029F81600DC
S1134AF0761C042EF2DB4846FFF7ABFD8146C14528
S1134B00EBD30BE00746FFF7A4FD4146FFF789FE10
S1134B104845F7D3019881452BD13746474549D2BB
S1134B203846FFF796FD002F0646F6D07888000435
S1134B30F3D500F088F8B84204D17888C0F30D00AA
S1134B407880EAE704D201463846FFF733FEE4E70B
S1134B50019707E03046FFF77CFD4146FFF761FE11
S1134B6037460646464504D2308800F06DF8864242
S1134B70F0D337B100F067F801001CBF3846FFF7E7
S1134B8019FE0198B946C3E73846FFF758FD0646B3
S1134B905846FFF740FD8146720092B239465846A6
S1134BA0FFF769FB002249460DF1020008F0EDFF12
S1134BB00BEB460BFDF71AFE064617E0217840186A
S1134BC0401EC0B204EB4000002187898181380077
S1134BD009D0FFF729FD00F037FA002239460DF11C
S1134BE0020008F0D2FF6078401E60706078010017
S1134BF0E4D10021201D08F0F9FFFFF715FD07009F
S1134C0006D1BDF80200A080C4F81CB00020A0703A
S1134C103046FDF728FE002FB6D1BDF8000078B16C
S1134C200446FFF701FD07001CBF0AEB050078806E
S1134C30204600F012F8139952462844FFF71BFB54
S1134C4015B0BDE8F08F3888C0F30E00ECE480B5F1
S1134C50FFF7EAFCBDE80240D7E410B5040012D027
S1134C60FFF7F5FF18B940F2394100F0AFF82046DC
S1134C70FFF7DAFC38B10188090402D5D0F80A003C
S1134C8010BD083010BD002010BD10B5010013D0B8
S1134C90FFF7CAFC0446FFF7B8FC18B940F25341C9
S1134CA000F094F844B12088000401D5208910BD97
S1134CB06088C0F30C0010BD002010BD2DE9F04148
S1134CC004460D46FFF7B0FC060040D0FFF79DFCFC
S1134CD00FF2C85718B940F2664100F0A0F8204618
S1134CE0FFF7D3FF80463046FFF7B3FC4545044643
S1134CF02DD003DB40F26E4100F091F830880004BF
S1134D0048BF358123D475803046FFF798FC06EB05
S1134D104005FDF76BFDDFF86C13CA69661B94420E
S1134D2004BFCD610026FDF79EFDB6B2082E06DA5B
S1134D3032462846BDE8F041FF21FFF7FEBA0822BB
S1134D4000212846FFF7F9FAA6F108006880BDE8BB
S1134D50F081F8B507460C46FFF766FC0646384670
S1134D60FFF793FF051B8442ADB21BD003DB4FF466
S1134D70936100F02BF8AEB13088000406D5D6F864
S1134D800A0034812844C6F80A00F1BD3846FFF70A
S1134D9064FF22464119FFF76EFA21463846BDE802
S1134DA0F4408BE7F1BD38B50C46FFF73DFC050038
S1134DB00AD0FFF72AFC18B940F2AB4100F006F81C
S1134DC005EB4400808832BD002032BD0FF2CC4098
S1134DD0FBF7ACBCF8B50C461546FFF725FC0600FE
S1134DE00FF2B84714D0FFF710FC18B940F2B641DF
S1134DF000F015F82846FFF717FCFFF706FC18B972
S1134E0040F2B74100F00BF806EB44008580F1BD99
S1134E103846BDE8F44040F2BA41FBF787BC384657
S1134E20FBF784BC70B504460D46002608E0FFF786
S1134E302CFF294686192046FFF7B5FFB6B2044673
S1134E402000F4D1304670BD38B5C01C8D4C8010A4
S1134E504500A06AADB218B140F2CF41FFF7B6FFEA
S1134E60A069E169411AC903B5EB114F05DA69007C
S1134E7049420844A062012032BD002032BD81496C
S1134E800020886270472DE9F84F0446E01C80102A
S1134E907C4D40000027001DAE690FF2004AB4F5B6
S1134EA0005F88461FFA80F904DB40F2E641504671
S1134EB0FBF73CFCFDF79AFC8346E869A96A09B94B
S1134EC0301A03E05FEA080202D0081A461008E02C
S1134ED0701A4610B0B220B940F20C515046FBF79C
S1134EE025FCB6B24E4515DBEF6907EB4900E861D6
S1134EF0A86A28B1B8F1000F04BF00EB4900A8620A
S1134F0000207C80B880F880388004F1080168892A
S1134F10081868815846FDF7A6FC1FB901211F2017
S1134F20FEF72DFA3846BDE8F24FFFF774BBF8B52B
S1134F3004460D46164600210A20FFF7A4FF074643
S1134F40FFF772FB48B10681C0F80A40018841F4BA
S1134F5000410180C0F80E503846F2BD70B50446D9
S1134F600D4611462846FFF78EFF06463CB1300039
S1134F7005D0FFF772FE2A462146FFF77CF930463A
S1134F8070BDF8B504460D46164615E02846FFF7F1
S1134F907CFEB7B2874288BF07462846FFF75DFE0E
S1134FA001463A462046FFF766F901212846FFF7F5
S1134FB0FAFE3C440546F61BB0B20028E6D1F1BD2A
S1134FC02DE9F84381460E461446FDF70FFC2D4D9E
S1134FD08046287801002BD0401E2870C0B205EB13
S1134FE04000A9788789F9B981813846FFF71CFB0D
S1134FF000F02AF83846FFF730FE32464946FFF7FC
S11350003AF93846FFF729FE224600213044FFF7DB
S113501094F900223946281D08F0B7FD4046FDF7F3
S113502022FC0120BDE8F2836878401C6870E1E747
S1135030A019012180B2FFF726FF0700DAD140460C
S1135040FDF711FC0020EDE720B141884DF6FF7219
S113505011404180704738B5FDF7C8FB0446002174
S11350600B4808F0C3FD05462046FDF7FCFB284627
S113507032BD8041C00F70470249002088807047CC
S113508000000000B0F6002040E100209C52000027
S1135090B4F600202DE9F0410446884617461E4622
S11350A04046FFF7DAFDC5194046FFF7EEFDB91992
S11350B0884203DA40F2B151FFF788FE300013D082
S11350C00698010003D132462946204604E001280F
S11350D032462146284603D1BDE8F041FFF7CBB85C
S11350E0BDE8F041FFF70AB9BDE8F08110B50C4600
S11350F0FFF7B3FD00B1005D10BD38B50C46154691
S1135100FFF7ABFD00B1055531BD38B50446FFF7D7
S1135110BCFD05462046FFF7A0FD2946BDE8384002
S113512000221BE770B50D46691C0446C9B2FFF79F
S1135130DDFF060229462046FFF7D8FF301880B26B
S113514070BD00B583B002238DF80420120A8DF8D7
S11351500520012200920A46014601A8FFF79AFFA2
S113516007BD10B50446FFF745FA10B1A4F10800D5
S11351700CE010BD10B5FFF757FA040004D0FFF798
S11351805EFA04EB400001E0002010BDBDE81040D1
S1135190FFF741BAF8B504460D46FFF745FA060095
S11351A016D07088C0F30C072846FFF73DFA07F0C5
S11351B00101CF19FFF743FA07EB40072046FFF739
S11351C0D9FFA84203D040F26E61FFF7FFFD77805C
S11351D0F1BD2DE9F0410C46FFF726FA05002DD06C
S11351E06888C0F30C0606F001008019001B04F067
S11351F00101471AE01C20F00300284400F10808CC
S11352002846FFF702FABFB208B1A64203D240F221
S11352108A61FFF7DBFDB44210D0092F0EDB6C80EE
S1135220082200214046FFF788F8A7F10800A8F8F3
S113523002004046BDE8F041FFF7EDB90020BDE8AB
S1135240F08170B5044682B02068FFF78AFFADF89C
S1135250000000B3FFF7E8F905001CD000880FF246
S11352603C06000404D540F2A5613046FBF75EFA23
S11352706846FFF755FABDF80000FFF7D5F9054673
S1135280FFF7C3F920B940F2AB613046FBF74EFAA1
S113529005F10800206073BD0000000062756666B9
S11352A065722D6D616E6167656D656E742E630048
S11352B0012100F01F029140DFF8302705E00121B1
S11352C000F01F029140DFF82827400942F820101F
S11352D07047012100F01F029140DFF81827F4E71E
S11352E010B5012818BF2028DFF80C4705D04FF46B
S11352F0BD71DFF80807FBF719FA204610BD4268B4
S113530092884089401A824201DA012070470020C5
S113531070473EB5012818BF202834D1012818BF92
S1135320202830D1FFF7DCFF0446FDF75FFA05467D
S1135330A06901AB6A4602A909F028FE00992289F6
S1135340206889B200F024F82846FDF78CFAA06999
S113535009F093FE012816D1216820898988401A12
S1135360218A88420FDBA06990F83110022903D109
S113537009F00AFE022804DAA06990F83100012835
S113538001D100F001F837BDA069002109F04EBE3B
S113539070B504460D461646FDF728FAE188A94281
S11353A00CD22288521A521992FBF6F306FB1322EE
S11353B02280A288AA18511AA180E580BDE8704015
S11353C0FDF751BAF8B5012818BF20280C46154638
S11353D016D1FFF785FF0646307B10B101207073AC
S11353E0F1BD707B18B13046BDE8F240B2E00FF277
S11353F0CD1700F006F818B100F003F80028FBD12F
S1135400F1BDB0693B462A46214609F01ABF70B582
S113541005460E46FFF764FF012D18BF202D0446F4
S113542040D1A069016890F83200E8B9042088648A
S113543000F031F9A0690068C16C002E07D041F07A
S11354400401C1640C20FFF733FF052106E021F0BD
S11354500401C1640C20FFF732FF0021A069006839
S1135460BDE8704009F07ABF0420486300F013F9E6
S1135470A0690068816B002E07D041F004018163AC
S11354800C20FFF715FF052106E021F004018163DC
S11354900C20FFF714FF0021A0690068BDE87040EC
S11354A009F0E5BF70BD38B50446DFF85405814204
S11354B030D0DFF84455A869A0422BD12A89286846
S11354C099B2FFF765FF29680020C88002E02846EA
S11354D000F021F8204609F057FD03281ADA2A685B
S11354E0E889698A93884143002B89B2EFD05388B5
S11354F0128840188342B8BF914205DB9A42E6D233
S11355008342A8BF9142E2DA2046BDE8344001213B
S113551009F08CBD31BD38B50446DFF8E834E089C4
S1135520658A216802466843084400F10801A069BD
S113553009F03FFEA06909F027FD022801DBFFF70F
S113554023FF608AA18A401C90FBF1F201FB120048
S1135550608231BDFEB50446207B68BB60680FF2F3
S11355605D074188084400F10805A0696B4601AA5B
S113557002A909F02BFD60688188009A891A019AB2
S11355808E1A4188008888420ED26089421AA06926
S11355903B46294609F055FE70B960686189428826
S11355A0711A561800F10805A0693B46F2B2294663
S11355B009F047FE00B96073F7BD000070B5DFF86D
S11355C03854A96981421C4615D168688188A14272
S11355D038BF8488FDF70AF969686B894A88A4B2E0
S11355E0A21892FBF3F603FB16224A8069688A88A4
S11355F0121B8A80E2E670BD38B50D46FFF770FED7
S1135600112D044609D1A069002109F01FFD0020D5
S113561020732046BDE832409CE7132D06D1A069D3
S1135620012109F013FD0120207331BD2068018898
S11356300844057220680188228900F043F901803A
S11356408188491C8180A06909F017FD226821899D
S11356509288891A89B220B9E2898A42A8BF0121B5
S113566005DA012808D1208A814205DB0021A069DE
S1135670BDE8344009F0DABC31BD80B5DFF88803F9
S11356800169090606D509F0DFFEBDE804400146BC
S11356900120B1E701BD0C201BE6F8B50C46154608
S11356A0FFF71EFE0646EAB2306880883189891AFF
S11356B0884201DB0120F2BD00270DE0FDF796F8DA
S11356C031680B8814F8012B19447F1C0A72316865
S11356D00A88338900F0FCF8AF42EFD30020F2BD12
S11356E0F8B5012818BF202804460D463AD100F029
S11356F0DFF910B9204600F06CF82046FFF7F0FD02
S113570006462046FFF7ECFD012C18BF202C29D1BA
S1135710DFF8F8120160DFF8F81241608021012CF3
S113572018BF202C0181418151D1012C16BF202C9E
S1135730DFF8E0020020012C18BF202CB06111D149
S1135740DFF8D402A98CA861DFF8D002E861F18106
S1135750EA8C32828A4207D21C21304603F07EFD55
S11357600220F2BD0120F2BDB06990F83130012B66
S11357700CD0338993FBF1F701FB1733002B02BFE5
S113578092FBF1F301FB13210029E5D1294609F02D
S11357902BFAE8B9B069017F007E0123022208F0E8
S11357A06DF8287C012807D101212046FFF72FFE40
S11357B0B069FFF7EAFD0AE000207082F1893089C0
S11357C090FBF1F0B08200F070F900F06EF9002067
S11357D0F2BD58B5012818BF2028044612D100F0A4
S11357E067F9F0B9204600F03FF92046FFF778FD4D
S11357F0012C18BF202C06460FD1B06909F0C6FA57
S113580010B152BD012052BDB06990F83100012899
S113581003D100212046FFF7FAFD1C21304603F096
S11358201DFD002052BDF8B50128064618BF2028EA
S11358300F4634460AD1FFF753FD05463046FFF7BD
S113584068FD2868808818B92620F2BD0120F2BDC1
S1135850FCF7CCFF0646286841880844007A387073
S1135860286841882A8900F02DF841808188491EE2
S1135870012C18BF202C81801FD1A86990F8310019
S1135880012803D119E02846FFF745FEA86909F06D
S11358907BFB022811DA2A68E889698A538812880E
S11358A0414389B240188342B8BF914205DB9A4212
S11358B0E9D28342A8BF9142E5DA3046FCF7D3FF30
S11358C00020F2BD491C91FBF2F302FB1311704757
S11358D0521C92FBF3FC03FB1C220A808A88521C94
S11358E08A80FCF7C0BF10B5012818BF20280BD14F
S11358F013460A4601460FF21500FEF7A0FB0024EA
S113590000B90124204610BD012010BD2DE9F84F37
S1135910814601281CBF202801208A4693464AD18B
S1135920FFF7DEFC0746002478680188084400F18C
S11359300808002627E0FCF759FF79680B881AF855
S1135940012B19440A7279680A887B89521C92FBDC
S1135950F3FC03FB1C220A808A88521C8A80098873
S11359604D1EAD41FCF77FFFED0F761C5DB1351B7D
S1135970EDB22A4641464846FFF724FD78682C19C3
S1135980E4B200F10808F0B258450AD200213846C2
S1135990FFF7B5FC0028CED1387B0028F6D02220B2
S11359A009E05C4506DAABEB040292B24146484694
S11359B0FFF708FD0020BDE8F28FF8B50126074681
S11359C0012F18BF202F0C4615460DD1FFF788FC78
S11359D0012F18BF202F05D180692A46214609F0DE
S11359E04EFB06463046F2BD0120F2BD00E100E068
S11359F080E100E080E200E014E7002010420300B0
S1135A00097000F0A75400000000014004E60020E3
S1135A108CE6002030E7002024DE0020A4DE0020F5
S1135A2038B50446012C18BF202C1BD1FFF758FCB5
S1135A30012C18BF202C054612D1686880880028E4
S1135A40FBD1A86909F0BEFA0028F6D1A86909F0CB
S1135A5072FA8006F1D5A86909F06DFA8004ECD5D4
S1135A60002032BD012032BD70B50546FFF738FC79
S1135A700646012D346818BF202D0DD1B06990F869
S1135A803110012908D0022109F0C5F900207082E3
S1135A9000F00BF800F009F8FCF7A8FE0021A18043
S1135AA021806180E180FFF789BC3046FFF733BD78
S1135AB080B5012818BF202806D1FFF711FC002863
S1135AC01CBF0068002801D1012002BD002002BDD6
S1135AD00D48016821F480310160016F49084900D3
S1135AE00167704710B5FCF781FE0446FFF7F0FF2D
S1135AF0064800F00DF8044805210167016841F4E7
S1135B0080310160204624E024ED00E068DF0020BD
S1135B1038B504460525204609F0EAFC10346D1E0C
S1135B20F9D1BDE8314009F00BBD80B5FFF7D0FFD6
S1135B30BDE8014009F004BD10B50446FCF756FE6B
S1135B40004901E068DF0020620952014A60002236
S1135B500A70BDE81040FCF786BE0000DFF890191B
S1135B6004220968C00002FA00F0084018BF0120AE
S1135B70C0B270470422C900002814BFDFF85009DE
S1135B80DFF8700902FA01F10160704701207047E3
S1135B90704748B1DFF83C296FF0FF011160000A3B
S1135BA0DFF858190002086070472DE9F0430D46EC
S1135BB0044690460421DFF84809DFF84879D0F814
S1135BC00090DFF8440904EA000205EA010300201A
S1135BD000218B4208BF824283B009F10C0647D0F2
S1135BE0DFF828090068220348BFC7E90201E2027E
S1135BF048BFC7E90401E0000BD5DFF814190868B1
S1135C0000F07F40B0F1007F03D1DFF808190220D3
S1135C100860E0071FD500F06CF9002200F051F88D
S1135C20012009F05CFEF08000210120FCF71DFC3E
S1135C307978002914BFDFF8E018DFF8E0184FF492
S1135C4000100860786AFFF7A4FF002078623078BB
S1135C5040F00800307005F0040300218B4207D0A7
S1135C6001213046FCF798FA25F0040504430D435E
S1135C70D6E9120104400D400020854208BF844249
S1135C800ED0B96922462B46484688474FF0FF306C
S1135C90C7E90200C7E90400200744BF0020B86236
S1135CA05FEAC8700BD5F9690020F86101203870EB
S1135CB0080004D0386A03B0BDE8F0430847BDE8E3
S1135CC0F7830023012000210AF013B870B508B946
S1135CD0012070BDDFF84828DFF848485168126891
S1135CE0402303FA02F22368DFF8B8492468C4F3B6
S1135CF08114521E032C01F1005192B29BB20BD1BC
S1135D000025EE18083E16408E5D46556D1C082D84
S1135D10F7DB0472002070BD022C0AD19D1E1540D1
S1135D205B1E4D5D05801A40895C45EA01210180B6
S1135D30EFE7022070BD10B582B009B9012016BD8D
S1135D400B7BDFF8C027002B14BFD2E90423D2E970
S1135D5002234FF0FF34A34208BFA24201D1022024
S1135D6016BD009128300AF001FF002016BD10B5C1
S1135D7004461120FDF708FD042802BFDFF82809B6
S1135D80006810F4403F01D0022010BD20460AF004
S1135D9058F8204600F0B3FFDFF8B419602008601B
S1135DA0002010BD2DE9F04104460FF27C0084B0C0
S1135DB004F10C080068029008F108070026BE6789
S1135DC0C7E91066BE85FE85642038867886B88665
S1135DD0F886388778870D464FF6FF70388040463E
S1135DE0FFF7D4FEC0B14046FFF7C1FF060013D150
S1135DF002A9404600F016FD0646BA6F4FF0FF3187
S1135E00404600F087FA00F074F84FF08052042303
S1135E101046042109F06DFF28001CBF2046A84746
S1135E20304604B0BDE8F0810000000098B5044697
S1135E30207881072ED5616A61B300F0FD012170DD
S1135E40606A4069006810F1010F03D0BDE8924018
S1135E500BF007B8D4E9122303F004030027BB4274
S1135E6003D141F00200207091BD4FF480312046EF
S1135E70FCF792F9D4E9122302400B4008BFBA425E
S1135E8008D0A4F10C0001B0DFF878168969BDE8E8
S1135E909040084791BD2DE9DC430446DDE90867DD
S1135EA0D4E912019043994306EA020807EA030978
S1135EB040EA080041EA0901C4E9120122F001089C
S1135EC023F0000900F07AFD80B100F012F807EA2F
S1135ED0090106EA080040F0805241F004034046FC
S1135EE0494609F006FF2046FFF7A0FF0020BDE861
S1135EF0D683002001900090704700680100DFF80D
S1135F00041608BFDFF81409886170472DE9F041D1
S1135F105FEA010886B0044615461E461AD02800DA
S1135F2018BF002C16D000F083FFDFF8D875B96ACB
S1135F308C4206D17988BF88ADF8001000F075FF57
S1135F401DE000F072FF6A4601A920460BF097FCA1
S1135F50040001D100201FE09DF80400002818BFB0
S1135F6008280AD000F064FFBC62BDF800107980F4
S1135F70BDF80610B98000F058FFBDF80670A819E6
S1135F808742BDF80000B8BFBD1B83199BB2AAB2FB
S1135F90414601200BF015FB06B0BDE8F08110B5B9
S1135FA000F02AFE70B1F020044201D0012010BD9F
S1135FB0DFF8E4080168090904F00F0242EA01115C
S1135FC00160002010BD00000023002100220328EE
S1135FD007D8DFE800F00302070A0123184609F096
S1135FE0B7BF704701230121F8E7012301210122F2
S1135FF0F4E7DFF80405006800F07060B0F1807F1A
S113600018BFB0F1007F19D0B0F1407F18D0B0F1C3
S1136010806F1CBFB0F1A06FB0F1E06F0ED0B0F193
S1136020006F17D0B0F1106F0CD0B0F1206F1CBF0F
S1136030B0F1306FB0F1406F0CD005E00220704732
S11360400320704705207047DFF85008006810F0FF
S1136050060F01D00420704701207047DFF878084C
S1136060006800F0A000401E8041C00F704710B5CA
S1136070044600F0ABFB204602F07AF978B12046E2
S113608000F0FBFA58B1032100200BF0DFFA10F105
S1136090010F01D1032010BDDFF81419086000209E
S11360A010BD10B5FFF7E3FF040008BF09F019FFA6
S11360B0204610BD70B584B0BAB31378002B04BF6A
S11360C05378002B31D070CA6B4670C312F80C3D64
S11360D01C000FD09588BDF806406B431B19ADF822
S11360E0063014789DF801301B1B8DF80130002315
S11360F08DF8003001239DF8014000E05B1C012570
S11361009D40A542FAD392888DF800306E0804FBB6
S11361100262B2FBF5F2ADF804209DF800208DF880
S113612001206A4600F005F801E000F002F804B02E
S113613070BD2DE9FE4F83461446FFF798FF5FEAD2
S1136140000940F08580002CDFF8686855D094F988
S11361500310E08809F0E4FBA178481E8DF80800DC
S1136160012722786078924619B900278DF8081023
S1136170BA468046D04538BFD0461AB9451EAD410F
S1136180ED0F00E00025A0880BF08DFE80B2DFF853
S113619028184FF604026DB1CB6A9BB2934208BF34
S11361A05B1C33800122CA624FF0080A8022CA6451
S11361B0D04604E0338893421CBFCB62328038B1AE
S11361C0421E4FF6FF739A4288BF1A460A6000E0E7
S11361D00860002001903B469DF80800009042466C
S11361E051460BF128000BF002FE25B1DFF8981898
S11361F04FF480100860A06870602020DFF89418C5
S1136200086001200BF060FE00F012FE04460BF063
S113621018FE7668AEB104200BF0B8FD10B104206E
S11362200BF084FC30460BF03EFE012200920B463C
S1136230024604200BF08AFC00F0010090F00109F2
S113624003D10BF00AFE09F031FE00F003F84846D2
S1136250BDE8FE8F204600F0E8BD38B500F0CCFC68
S1136260002518B160B209F081FB0546284632BD0D
S113627080B5002009F056FE002002BD012809D097
S11362800BD3032803D008D24FF0C05006E04FF0E0
S1136290005003E04FF0605000E00020DFF83018B9
S11362A00A6822F06052104308604FF400109A49C3
S11362B0DFF820280860DFF82008016821F00601D3
S11362C041F0040101604FF08051116004214161EB
S11362D000207047DFF80418062008600020DFF86B
S11362E0001808604FF08050DFF8F81708604FF48A
S11362F000118A4801604FF060510160002070472E
S1136300002819BF0220DFF8E0170220DFF8DC17AD
S11363100860704738B500F0FBF900284ED022071A
S1136320DFF8C807DFF8C01705D52A0747BF0822DA
S11363300A6008220260E20705D5EA0747BF012088
S1136340086001210160600708D569074CBFDFF8C8
S1136350A017DFF8A0174FF400700860A00704D559
S1136360680800F00100FFF7CBFFE00606D5DFF870
S11363708807E9064CBF00211B21016014F0600F5F
S11363801CD004EA0502002102F06002202ADFF892
S11363906C0711D0402A0CD0602A0ED1DFF85428A3
S11363A0136853B11C68022C07D35A6942F00101E7
S11363B003E040F2011100E001210160002032BD40
S11363C02DE9FC4700260D0018BF0125022980464F
S11363D01446994603D100F032F8002027E000F07B
S11363E027FD484F8246F869010018BFA04215D125
S11363F00120FC6101900090C7F820900022002346
S11364000020FFF760FC3E7040460BF04CFD024656
S11364100B46009502200BF099FB0646504600F00F
S113642004FD002E03BF0020F86101200020BDE818
S1136430F687DFF86808D0E900010BF020BD00B54D
S113644083B000200190002201200090002300204E
S1136450FFF739FC02200BF069FB2A490020C861D0
S113646007BDDFF81408274900680978800A00F09E
S113647001000843704702200BF088BC70B5406AE5
S11364800025002816461EBF4069002805460C4614
S1136490F00748BF0BF09CFDF00317D5266816F1F2
S11364A0010F0ED1DFF84C07016800291FBF0A68ED
S11364B0002AC8680AF0FCFB0AF071FC0646266054
S11364C002E030460AF0CDFC05B12E6070BD00003C
S11364D0EC1008461870084438B5DFF83C480B78CF
S11364E022684978C2EA034242EA016527E00000D3
S11364F0EC100840EC1008440440084018700846AA
S113650004E30020F0DD0020010018101C510840B5
S1136510001F00210040084618600846186008441F
S113652030100840F41E002138B5DFF8EC4722682B
S11365300B784978120C43EA024242EA0125FFF73C
S113654025FB00B12560002032BD70B500F09FF935
S1136550002628B104F1280128460BF049FD06461F
S1136560304670BD70B504460D4694F860000328AB
S113657001D1022070BD261D316A357081B12046DB
S1136580FBF77DFF40B930622046FCF76AF801460C
S11365902046FBF790FF03E0E9B2204600F002F842
S11365A0002070BD10B50C4690F86010032901D18D
S11365B0022010BDFFF7EAFA10B1E0B20BF0C0FD03
S11365C0002010BD80B508460BF065FD002002BD1B
S11365D00BF069BD2DE9F04104460F4660690128BE
S11365E015461E463DD000F0E9F9002839D0FFF7E2
S11365F000FD012803D001210120FBF736FFA88903
S1136600D5F804803F1ABFB2402F06D3A968B80951
S1136610484308EB801807F03F070BF0FFFF4045A5
S113662007D10BF0FEFFA968884204BFF6B2002E22
S113663010D0A96840460CF026F808B1022011E0F9
S11366400CF006F8002814BFDFF87407DFF87807A9
S11366500CF00BF92046FFF7E9FB0121F8B20CF02E
S11366607DF80020BDE8F081C9B280B5002914BFCF
S113667020220022202100F03CBB202109F0E3BFAE
S113668058B5064688B20BF00EFC04463046FFF7B8
S11366907DFA18B1DFF8340761420160002052BD71
S11366A0000000008C40084004300E40F8B5074656
S11366B000F02EF8032610B300F0BAFB0746DFF80B
S11366C0D4130220086056480068000E00F00F0042
S11366D0082818BF072803D0092818BF0C2803D19D
S11366E07D480068800304D4E9B220460AF0CEFF56
S11366F0064600F026F8384600F097FB06E0EAB2BA
S1136700214607F19000FBF71DFE00263046F2BD3E
S11367100C461546FFF73ABAC9B2002914BF08223D
S11367200022082109F074BFC9B2002914BF4FF434
S1136730807200224FF4807109F06ABF082109F0C9
S113674082BFDFF894160220086070470000000042
S11367504400084000280CBFDFF83803DFF878064F
S11367604FF480710160704770B5DFF86446DFF85C
S113677064162578DFF86426ED074FF4806303D5AB
S113678005000CBF13600B602678B6074FF4006554
S113679003D506000CBF15600D602678760703D577
S11367A006000CBF53604B6023781B0703D508B960
S11367B0556070BD4D6070BD002814BFDFF8300314
S11367C0DFF830034FF480610160704738B5044648
S11367D00D46680800F00100FFF7C6FF05F004004D
S11367E0FFF7EAFF002005F01802182ADFF8F01579
S11367F007D02A0748BF012003D4EA0648BF40F265
S1136800011008602046FFF738FF20B105F00100B1
S1136810BDE832409EE731BD00000000915B0000FE
S113682004400840F8B500F032F870B3A878E9786D
S1136830884201D00120F2BD6878010002D1FFF73F
S113684049FD01E0FFF71AFDA878DFF8986540F6E6
S1136850FF7700280EBF3760204600F0E0F8E878A4
S113686040B9DFF884123763602008604020DFF805
S1136870681509E0DFF8741260200860204600F013
S1136880E4F84020DFF83C1508600020F2BD04461F
S11368900D46FFF77BB90000541F00210C5008403F
S11368A038B50C466A460AF0EAFF050018BF002C0A
S11368B010D02078010018BF08280BD000F0B8FAD7
S11368C0DFF824158D62BDF800204A8062888A8032
S11368D000F0ABFA284632BD8840084010B50C469B
S11368E0002818BF002C84B006D0032806D200224A
S11368F000210AF0C4FF08B9012056E000680090A6
S1136900BDF800209DF80210120401F0070002D423
S1136910821F022A01D3022047E007280CBF01206E
S113692000202073080900F001006073C1F3801097
S11369302074C1F3C0006074C1F34010A07408F067
S113694028FF0246C0B240B3207A00B90222BDF843
S11369500000831F9BB2D2B201A901200AF031FECC
S113696001A841784900E1739DF90410A173217ACB
S1136970D1B18178C2780079009441EA022141EAD8
S113698000409DF8091040EA0162DFF860040068E5
S1136990002334300AF09EF806E0E0736FF07F00C5
S11369A0A073002020602072002004B010BD0000FD
S11369B0F81E002190E300202C5008402046FFF7E9
S11369C0E5B8F8B50C469BB200F023F806DAB3FA42
S11369D083F1D1F1190148BF002507D400F019F85B
S11369E0BABFB3FA83F1C1F1190506250121AB1D24
S11369F001FA03F6B7B291B28F4288BF0F46FFF790
S1136A00C5F820B1EAB2394620460AF068FDB0B2B2
S1136A10F2BDB3FA83F1C1F119010629704780B5BB
S1136A20FFF7B4F880B10020FFF798F8DFF8C0232F
S1136A30012111604FF40051DFF8B823116018B13F
S1136A40BDE80440002121E001BD10B5FFF79EF828
S1136A50B8B10120FFF782F8044601210020FFF7B6
S1136A6089F8DFF884130020886209F06BFDDFF8F1
S1136A7088134FF4005008601CB1BDE81040012198
S1136A8004E010BD000000004C5008460120FFF750
S1136A9071B800008840084610B50CB214F1010F1B
S1136AA001D1012010BDFFF771F870B143F6FF70FA
S1136AB0844206DA14F5804FB4BF4FF48040C4F327
S1136AC00E00DFF840130860002010BD0000000035
S1136AD0186008409440084670000840700008445C
S1136AE08400084094400844440008464400084494
S1136AF01C6008461C6008444C000840641F0021C8
S1136B002DE9F84F054600F077F8002600286FD0ED
S1136B10DFF8E0B0DFF8F072DBF80080D7F800901F
S1136B20D7F804A0214605F1280008F0C7FDDBF8DA
S1136B30004038687968DFF8982248450ED0137809
S1136B40870A03F0FE0307F001073B43C00A03F082
S1136B50FD0300F0010043EA4000107051450FD0DE
S1136B6010788B0A00F0FB0003F0010340EA830075
S1136B70C90A00F0F70001F0010140EAC1001070F9
S1136B804FF6FF712889884205D05268100002D060
S1136B90298928469047444525D00021002C1EBF52
S1136BA020680028A168284600F029F8002C1CBFA2
S1136BB02068002801D0206918B90022002100248F
S1136BC002E082680168C48905F1280009F041FFE8
S1136BD006000DD1214605F1280009F089FE05F1D2
S1136BE0280009F032FF287840F00200287030466F
S1136BF0BDE8F28FF81F00210C46FEF7C7BF70B541
S1136C000E0082B00546DFF804420AD100220721B3
S1136C1009F0FEFC00F032F858B30020C4E900008B
S1136C2073BDFEF7B3FFF8B1DFF8D0110720086099
S1136C300121307920707079009068460BF080FE55
S1136C400099C14000F00F0040EA01106070B07973
S1136C50A070F079E0703168DFF8B4010160307938
S1136C60DFF89C11401C086007220721284609F020
S1136C70CFFC73BD000000005C5008402846FEF7BE
S1136C8085BF10B5FFF7B8FF20B1E0B2BDE81040F2
S1136C9008F025BEDFF87C0110BD0000E8E5002007
S1136CA080B50BF085F8BDE804400BF0E8B870B58A
S1136CB005460C4600F023F8CCB1A078092801D38E
S1136CC0012070BDE1780929FAD200F00F0040EAF2
S1136CD00116FFF7D3FF50B1DFF83C016168016092
S1136CE0DFF838012178017061784170C6700020A6
S1136CF070BD09F08DFC00B10120C0B202BD80B5A9
S1136D00FEF744FF30B1BDE804404821DFF8080134
S1136D1002F0A4BA01BD0000001F0021F8B5D2B2F0
S1136D20022A3CBFDBB2042B01D30120F2BD54087C
S1136D30DFF8EC5001272E5D03EB8202C9B207FA9B
S1136D4002F2002914BF16439643FEF71FFF00B159
S1136D502E550020F2BD0BF007BE38B50D46044693
S1136D60298804F1380009F0ADFD288004F14000C1
S1136D70698809F0A7FD688004F13E00A98809F03C
S1136D80A1FDA88004F13C00E98809F09BFDE8809E
S1136D9004F12800298909F0A3FD288104F12800C1
S1136DA0698909F0A5FD6881FFF708FE18B104F1AF
S1136DB0280009F04AFE002032BD0BF0B0BE0000EE
S1136DC0C0CF6A0088400846E0673500FC1E0021F9
S1136DD008FC0020A000084488400844A00008469D
S1136DE0681F002124100840F0DD002004E3002087
S1136DF0281008402410084454100844040008448F
S1136E001800084040300840A00008404C1F0021F2
S1136E10501F002100FEFFFF041F0021481F002116
S1136E204A1F0021C9B2FFF72CBF00B962B67047F0
S1136E30EFF3108072B67047F8B50F46144647F664
S1136E40FF718C4201D1FF20F2BD2D4E71680029E3
S1136E501CBFB168002901D0F16811B92A21FAF7E1
S1136E600BFD38460BF0A0FE012F01460BD1062284
S1136E70F16831F912108C4203DA521E12B2002A60
S1136E80F6D1501C39E0B1F90000A042B8BF044665
S1136E9003DB1C488442B8BF0446A4F1C80028227E
S1136EA090FBF2F042423078034612B25D1E9542E6
S1136EB0BCBF421E12B24D6805EBC2004668B0F971
S1136EC0020010FB046000284FBF002000F5FA7098
S1136ED04FF47A76B0FBF6F0521C12B29A4203DAFF
S1136EE035F832608642E6D205EBC20131F8081C5F
S1136EF0814238BF084600B90120C0B2F2BD00BFCC
S1136F0024F70020C880FFFFD0B5274E0F467168D4
S1136F1000291CBFB1680029144601D0F16811B9D9
S1136F202A21FAF7A9FC012F0BD1082CA8BF0724AA
S1136F3001DA200000D0641EF068E4B230F91400D5
S1136F40D0BD200001D11948D0BD38460BF02CFE2D
S1136F50022C416802DAB0F90200D0BD002F0CBF48
S1136F60FC22F822944202DBB0F90000D0BD307854
S1136F70401EC0B2002200E0521C824201EBC20358
S1136F8002DA1E89A642F7D24FF47A715A68B3F92D
S1136F90020011FB04F1891A00EBD07201EB6201CB
S1136FA091FBF0F000B2D0BD24F700200CFEFFFFEF
S1136FB028B90348016003480068FAF75DBC7047CC
S1136FC098E3002004E30020012100F01F02914017
S1136FD0514A400942F82010704730B54F48504D8F
S1136FE00FC887B003AC84E80F0068460021002274
S1136FF000230EC002208DF80600012149484A4CA6
S1137000FCF7AAFA4FF6FF70E0616A4600212046B9
S11370100BF030FE00208DF80E0003A920460BF083
S1137020DDFD4248FCF7C8FA9DF80E1001228A40A3
S1137030491C8DF80E10B0FBF2F0C9B20B29286080
S113704002D23B498842E8D23A48FCF7B5FA3A49B9
S11370502A68B1FBF0F339480021E3FB0201384A06
S113706000230BF03DFE37490860002036490870C4
S1137070A06920F01000A0610B20FFF7A5FF3349A1
S11370804FF40060086007B0002030BD38B500F050
S11370901BF804460D4605E04FF6E85000F02AF8C8
S11370A000F00CF800218D424FF6E950F4D88442E8
S11370B0F2D2A0B200F01EF8002032BD24484FF0F6
S11370C0FF3124184D41704715491C4A09680023B3
S11370D0E0FB012310461946194A00230BF000BEB9
S11370E01C480168C90604D5102181600120164995
S11370F008707047010081B00BD017490A6892B23A
S11371000B68ADF80030BDF800309B1A9BB2834287
S1137110F6D301B07047000080E200E0CC7C0300AD
S1137120A4F5002000020400008001404041050055
S113713081841E005000020000B0710B20A10700E2
S113714040420F00A8F5002090FF002000E100E07D
S11371501802FFFF0C8001402480014010B52F4C21
S11371600120207082B0002006F026FA38B10020F9
S113717006F022FA18B100202070492016BD02231F
S11371807F220021684600F00BF8BDF80000B0F53E
S11371907F7F03D000202070072016BD002016BD7D
S11371A010B5FF2907DC1D4C247844B1BDE810401C
S11371B0C9B205F0B5BEBDE81040FBF70DBE10BD69
S11371C02DE9F0410446FF2C0D461646984615DC81
S11371D012480078C0B1134F387820B14FF4CE7103
S11371E00F48F9F7A3FA0120387043462A4631467E
S11371F0E0B206F003F80020387005E0424631465C
S1137200BDE8F041FBF70ABEBDE8F0810349097807
S1137210002918BF06F0F3B8704700008DFF002066
S11372207C7C03008EFF0020012100F01F029140AE
S1137230DFF8E022400942F82010704770B5054697
S1137240FBF7D4FA002600242821DFF8CC2201FB26
S113725006F313449B7F13B1761C042EF7DB042E34
S113726008BFDFF8B84208D02DB17143114401239F
S11372708B772E6001E0DFF8A842FBF7F4FA204692
S113728070BD10B5DFF89C02017809B1002010BD73
S113729001210170DFF89002DFF89042FCF75CF9FD
S11372A00321DFF88C02FCF7C9FA032020710121C5
S11372B0DFF88002FCF750F920460BF0A0FDDFF860
S11372C07812DFF8784201200BF082FDE069C00AF1
S11372D0C002E06140F2FF70A061002020601F2026
S11372E0FFF7A2FFDFF858124FF000400860A0211A
S11372F0E06940F00100E061DFF81C0201F0AEFF3C
S1137300DFF8401200200870DFF83C120870DFF844
S11373103C120860DFF838120860DFF838120860A1
S113732010BD70B58A4E0023346884480268306802
S11373308442F9D1981844EB030170BD30B54FF481
S1137340FA5200F004F8C00B40EA414030BDA2FB01
S1137350004502FB015514F5804045F100017047DA
S11373602DE9F047FBF742FA744D8246E869296932
S113737000EA010626F00500A86170071ED5714FCA
S1137380DFF8C481DFF8D491012038702C6800F054
S113739022F8201A00F026F800F078F8204600F0D1
S11373A085F82C68E86C98F8001029B1D9F8001019
S11373B0401A611A8842EAD300203870F00705D5D4
S11373C00120A86162480168491C01605046BDE87B
S11373D0F047FBF748BAE86920F00400E861D9F8FF
S11373E0000070472DE9F0430026044600252821BB
S11373F0494871434718387F7D77002841D0D7E941
S113740000018D4207D828BF844204D2001BA94141
S1137410C7E9000135E0F87F08B938772DE0D7E9EE
S11374200001D7E90223201AD7E9028965EB01019B
S11374300BF056FCB8EB020069EB0301C7E900014D
S1137440386939690128786909DB0818F4287861F2
S113745013D3D7E90001401C61F1FF3108E0401A61
S1137460F428786109D3D7E90001401E61F10001D5
S1137470C7E900017869F4387861B86908B1012076
S11374807877761C042EB2DBBDE8F08310B50024B7
S11374902821214861434218507F18B1116A92692A
S11374A020469047641C042CF2DB10BDF0B54FF06D
S11374B0FF3213460021184C28254D436619367FA8
S11374C046B12544D5E900679F4203D82EBF9642B2
S11374D032463B46491C0429EEDB00214FF0FF34C1
S11374E0A34208BFA24212D08B426FF0640401D8B9
S11374F0A24200D322461949174B0860042119609F
S1137500101858630121586840F0040058600E4870
S11375100170F0BD80E200E0A8E40020011000F05A
S1137520041000F088FF002000250800B8DF0020C8
S11375300500200080091200C4DF00200820044058
S113754000E100E086FF002087FF002058F00020C3
S11375505CF0002060F000202020044054F0002063
S113756010B5DFF8804304F10800FDF7D9F804F101
S11375700A00FDF7D5F804F10C00FDF7D1F8BDE8D9
S11375801040DFF86403FDF7CBB810B5DFF85423DF
S1137590DFF8583314781B78234306D1DFF85033CF
S11375A01B780C2B03D0022906D0002010BD012922
S11375B008BF02F10C0301D002F10A0301460022C4
S11375C0184606F0E2FA0BF03BFC012010BDDFF890
S11375D01403417919B9012141710BF031BC704791
S11375E0DFF80803007800B1704710B50BF0E4FD34
S11375F0DFF8F042208128B9002104F10A0006F0E6
S1137600F5FA2081208928B9002104F10C0006F044
S1137610EDFA20812089002804BF207800280ED1AB
S11376206079022803D00BF0FEFF208138B960791D
S113763028B10CF09EF9208108B10020607110BDC2
S1137640A8488079704780B5A0F10B01102901D3B7
S1137650002002BDA3498871042000F02AF801200B
S113766002BD00009F480178491E002203290270D0
S113767000D9704780B5DFE801F002060A0EBDE8C4
S113768001400CF063BABDE801400CF0B1BABDE8AA
S1137690014001F0EABB8079F9F725FA20B1F42121
S11376A00FF26820F9F742F8BDE801400BF0C8BBBF
S11376B001BD38B504460BF053FE8A4D687940B1DC
S11376C00020687101F090FA032804BF40200CF0F8
S11376D072FC287808B1002032BD8648007805285D
S11376E008BF0BF04EFC2C7000F007F818B1FFF740
S11376F0B9FF012032BD022032BD38B5FBF776F860
S11377000446784D05F10A0006F022FAA0B105F10D
S11377100C0006F01DFA78B17648697900780843C0
S11377200AD10BF099FC38B973480CF05DFF00F0F6
S1137730010080F0010500E000252046FBF793F8E6
S1137740284632BD10B56B49664C00200870208174
S113775020706081A081FDF78FFC0DF0CFF8607080
S11377600DF0CCF8A07064480DF032F863480DF0C9
S11377702FF84FF4A05162480DF0E2F80020607138
S1137780BDE810400BF06FBC2DE9F04104465D48A4
S1137790544E0578308928B940F28F110FF26C10DD
S11377A0F8F7C4FF281FDFF85081524F0ED0801E17
S11377B0012814D805203870214628460CF07BFB9C
S11377C008B900F018F8002030810BE0312C05D006
S11377D03878022803D1200001D10120F0703471DF
S11377E000F009F8042D04D07079012804BF0220A8
S11377F07071BDE8F08103203870002140460CF020
S113780097BF38B5374D297904460BF02EFD28B9BA
S113781029792046BDE8344004F01DBF31BD2DE96F
S1137820F8430446FDF719FA471D05212046FDF7E4
S113783079FC054638460DF03DF905F44C483E5CAC
S1137840280701D5042E4AD12F4806704FF4406012
S113785005424FF6FF7906D0F81CFCF787FD484532
S113786008BF48F0400805F44060B0F5006F06D149
S1137870781DFCF77BFD484508BF48F01008012E31
S11378804CF6500015D0022E16D0032E0ED0042E26
S113789008D0062E21D0072E08D0082E15D07C2E15
S11378A00ED01CE020460BF043FCC0B90020BDE81C
S11378B0F283B8F5484FF9D0B8F54C4F0FD1F5E73E
S11378C0B8F54C4FF2D08045F8E74CF6404080457F
S11378D005D1074800780728F0E78045E6D0012065
S11378E0E5E70000D4FE002058FA002056E5002009
S11378F0FCE10020A7FF00203CE3002000E2002080
S1137900BCFB0020F2E30020A6FF00206D61632D84
S1137910617262697465722E6300000010B53F4A9B
S1137920014652F821301C0005D0002442F82140C1
S1137930BDE81040184710BD0020EFE72DE9F843DB
S113794004460E463000154603D10DF0D7F828182A
S113795031E02746022F0FF2D40802DB4B2100F05E
S113796050F8DFF8B89059F8270010B14C2100F016
S113797048F8B5F1004F02D34D2100F042F849F820
S11379802760200002D0502100F03BF8244E254B04
S1137990306801222946FAF7ACFB38B10DF0AEF895
S11379A005462046FFF7BAFF681E04E03068BDE8CC
S11379B0F243FAF7A9BBBDE8F2832DE9F04105468D
S11379C02F46022F0E460FF2640802DB5D2100F001
S11379D018F8FAF70BFF0446104850F82710B14284
S11379E00AD1002140F8271015B1642100F009F8EC
S11379F00B480068FAF78CFB2046BDE8F041FAF723
S1137A0032BF4046F8F792BE0BF0A8BA010008BF97
S1137A10012002010449002090E7000010FC00202E
S1137A2068E5002039790000097A000073796D62F5
S1137A306F6C2D74696D65722E63000001207047B0
S1137A4010B526480FC88AB006AC84E80F0006A813
S1137A5000F067FA01A822491422FAF783FC694668
S1137A606846FAF7ABFE18B1BDF80000ADF80A009D
S1137A7001A8FBF7C1FF00F03FF81A4805F06FFEBC
S1137A8000F03AF804211120FBF7D8FE002200216F
S1137A900320FCF701F803211348FBF7CFFE032171
S1137AA01248FBF7CBFE03211148FBF7C7FE0DF08C
S1137AB034F80DF0DFF801A80E491422FAF752FC4D
S1137AC001A80AF0E1FF012304220521002005F0AA
S1137AD0D5FEFAF775F800200AB010BD485103002E
S1137AE03451030000F0490202001A0003001C0094
S1137AF00500200058510300012201210220FBF758
S1137B00CBBF0000012100F01F029140664A4009EA
S1137B1042F82010704700BF38B5644CE068216813
S1137B2008400BD5624800680568290003D000F0BE
S1137B3016F80021A8474FF000400CE040000BD598
S1137B405C4800680568290003D000F008F80121AA
S1137B50A8474FF08040A060BDE831400CE0002110
S1137B60C0E9001193E055484FF04041016041687D
S1137B7021F0404141607047F0B54E49504B0A68CE
S1137B80002053F8304044B1156803EBC0041DB124
S1137B9015792679B54200D22246401C0528F0DB2F
S1137BA00A60114647480A685AB10268120A12026A
S1137BB002600268097911430160416941F0804122
S1137BC002E0416921F08041394A3F4C4161002182
S1137BD0136854F8315045B11E6804EBC1051EB159
S1137BE02E791F79BE4200D22B46491C0529F0DBB1
S1137BF013601A6862B1026822F47F42026002686C
S1137C00197942EA01210160416941F0004102E031
S1137C10416921F000414161F0BD80B52B4901204B
S1137C20087000F030F800F02AF822492848224B66
S1137C3008601F49086027480168406DC1F3074187
S1137C4000F0FF00FF2912BFFF281921902001EB4B
S1137C50810200EBD2021A60C0000522B0FBF2F0F0
S1137C6040181D490860FFF77EFF0020FFF74AFF18
S1137C701A4901200860FFF77FFF002002BD282178
S1137C80114801F0EBBA28210D4801F0E7BA144875
S1137C901149006809680006400D052290FBF2F0C6
S1137CA0081A00F30700704780E200E024300E4019
S1137CB038F1002034F100203CF100202C300E403B
S1137CC0DCF000201C300E4004F1002089FF00206D
S1137CD02CF10020B081E00F40F1002000E100E031
S1137CE020300E40890001EB401000F18440026016
S1137CF07047890001EB401000F184400068704730
S1137D0012212846F5E738B50C46DFF838150D681A
S1137D1028B905F006FDC5F30421491C4843DFF8E2
S1137D202815097831B1DFF82415884202D221469A
S1137D30022001E021460020BDE83440F8B50446A5
S1137D40DFF80005DFF8F47400680D4605F0E9FC7F
S1137D50064612213846FFF7CCFF0028F9D13868CF
S1137D60000C00F00300A042214615D0022C04BFF1
S1137D703046FBF790FB1020C4F102018840F86004
S1137D801CB900213046FBF786FB2DB11221384681
S1137D90FFF7AFFF0028F9D1F1BD70B5DFF8A014EB
S1137DA08A690378920903B10423447804B1022454
S1137DB0857805B10825C678012E18BF002643EA48
S1137DC0821222432A43037932431A438A610A689E
S1137DD0407922F4403242EA0040086070BD00005D
S1137DE0DFF86C040068032920D8DFE801F00205FD
S1137DF0080B00F0FF0006E0C0F3072003E0C0F327
S1137E00074000E0000E1300DFF8481408D1000317
S1137E1030F470430AD10B6823F4704303430B60BE
S1137E20012A0AD1000330F4704201D000207047C7
S1137E304A6F22F47042104348670120704770B5BE
S1137E400025002452EA0322DFF80C6416D0521EE7
S1137E500CD0FF3A14D0521E0AD0FF3A12D0521E50
S1137E6008D0FF3A14D0521E06D015E0B2680AE0DA
S1137E70B2680EE0F26806E0F2680AE0326802E0F6
S1137E80326806E07268C2F3072402F0FF0503E0DB
S1137E907268140EC2F3074505600C6070BDF8B536
S1137EA00446DFF8B853686AC007FCD4DFF8B0634F
S1137EB0F06910F0030704D001220D212846FFF7D2
S1137EC011FFA74202D12CBB00221EE0032F18BFD2
S1137ED0002F0FD1022C18BF012C0BD14FF400201E
S1137EE0B06000F018F8800040F00100F0613068E4
S1137EF00003FCD500F00FF844EA8000F061686AE2
S1137F00C007FCD4220018BF01222846BDE8F8406F
S1137F100D21E7E6F1BD686AC007FCD4F06980086A
S1137F20704770B50446E0884B2838BF00200DD355
S1137F30B0F5FA7F38BF4FF0805007D340F6C41134
S1137F40884234BF4FF000504FF04050DFF81853D0
S1137F50DFF818332969B4F90C20DFF814631940E9
S1137F60D243084340EAD2702861DFF8080301686D
S1137F7041F4407101600021306A40F08070306249
S1137F803046FFF7B6FE00B1042000F046F9208920
S1137F90DFF8E4120880A089DFF8E0120880A088E6
S1137FA0DFF8C012088000F0D0F8A07B20B10128CF
S1137FB005D1DFF8CC0201E0DFF8C802F060608888
S1137FC00122012100F013F880B1286840F4806098
S1137FD028606078FFF763FFA07A20280CBF012295
S1137FE0002205212846FFF77DFE012070BD2DE902
S1137FF0F04F89B004468846934605A80021002224
S113800000230EC002A80EC0A4F5E160B0F5966F7F
S113801000F28880B4F5E16FDFF86C024FF4966AE1
S113802002AF05AD0BD94FF4E16101914FF00109A5
S11380300068A860010EB960C0F307400BE08946F0
S1138040CDF804A04FF4167A0068A860C0F30721A5
S1138050B96000F0FF00A8604A46DFF81462306897
S1138060000F00F003008DF80100034602A905A8E3
S1138070FFF7E5FEDFF8FC010068000A00F00300EA
S11380808DF8000003464A4603A906A8FFF7D7FE69
S1138090019AA868B9686D68D7F804E0DDF814C0DF
S11380A0A31A0A1AAEEB05075A43029CB2FBFAF272
S11380B08218A4EB0C045C437B43B3FBFAF3EF1884
S11380C09142B4FBFAF428BF824264442AD3BE45E9
S11380D028BFAF4226D30298A04224BF0598844209
S11380E020D3BBF1000F0CD030694946B9F1000F21
S11380F018BF0221DFF89431184040EA02200843F7
S11381003061B8F1000F1CD09DF8011000224846E0
S1138110FFF766FE30B19DF8001001224846FFF7D4
S11381205FFE08B900200DE0A74228BF3C46E72CBB
S1138130B06928BFE724400A49EA440141EA4020E3
S1138140B061012009B0BDE8F08F10B5DFF820114F
S11381504B6A0C68E4074FF0FF3203F0070325D5A0
S1138160022B23D3142828D31438142832D30F22F3
S1138170086820F47F4040EA022040EA02300860A8
S11381803D4A08681288C0F3032002F12803401C0A
S113819002EB5302283200EB8003B2FBF3F2521ECF
S11381A0072A34BF12064FF0E06215E00C68E407BA
S11381B009D4022B07D20A2801D20322D8E70A38AD
S11381C00A2807D3D3E70C68E407D1D5022BCFD212
S11381D02828CCD20722CBE70B6823F0EE631A439E
S11381E042F480120A60254AB2F90020002A13D40E
S11381F092B202F1280302EB53024308283203EB44
S11382004000B2FBF0F04A68072834BF0001702038
S113821022F070021043486010BD38B50446144D76
S11382200021FFF76EFD686AC00844EAC000686276
S1138230BDE832400B48008887E7000004300E4058
S113824000300E4000410E4088EA0020002D31012C
S11382503083E00F6C300E401C83E00F54300E402E
S113826024300E40B0FE00203C300E40FEFFFFCF15
S11382704C300E40E0300E40AEFE0020B2FE002036
S1138280372110B7774020571883E00FFD80FFFF98
S113829004480168090C09048160014801607047C1
S11382A0C8F000201CA400400549027B0A70026843
S11382B04A6042688A608068C8600020704700BFD6
S11382C024F700207047704738B5FBF73EFD04469D
S11382D0FBF737FD0020002124FA01F2D20712D562
S11382E01D481E4C30F8110006284CF23C324FF267
S11382F00F031ED16088984217D12188080A0C28E0
S113830013DA084613E0491C89B21129E4D314494D
S11383100880088840F20171884205D11148D0E9EB
S113832000231148C0E9002331BD4FF4C0606280CE
S1138330EDE740F20725A84201BF618899422188F0
S1138340A942E4D162800846E1E705480088000AB2
S11383507047034800887047584403000000002019
S1138360AAFE002094000020C0E8002001207047ED
S1138370802108F068B980B50FF28811FAF729F85E
S1138380002002BD10B504460FF27010008886B0BC
S11383900023ADF80C00002203A802900021022063
S11383A001900020009000F01DF8010009D103A8FD
S11383B0029000230420019000220220009000F08B
S11383C010F801000BD104A80021C0E900110290AB
S11383D00091082001900023012200F002F806B069
S11383E010BD0121204608F047B900B585B000F062
S11383F012F8022101910021009108E000B585B036
S113840000F009F80421019102210091012108F0F2
S113841033F905B000BD531C8DF80C10DBB2090410
S1138420090E8DF80D10002203A902917047E0B5E2
S11384300291531C08210191DBB200210091012219
S1138440012108F019F90EBD80B5C9B2002914BF85
S11384504FF4803200224FF4803108E080B5C9B275
S1138460002914BF4FF0807200224FF0807108F091
S1138470CFF8002002BD1206C9B2120A42EA016115
S11384801B06DA0902F4F01280B5114341F0B00280
S11384900F49ECE710B5FFF769FF0224A8B10D48B6
S11384A00068000E00F00F0002281CBF03280728F4
S11384B00BD10948094904600968890302D41021D1
S11384C081600024064902200860204610BD000097
S11384D0B8011F010440084088400846884008400D
S11384E08840084480B50FF2180109788DF800100F
S11384F001226946FEF7DAF802BD0000FFFF000022
S1138500050000007C86030074880300B88503001E
S113851001000000DFF800F0B5DD0020DFF800F016
S11385203FDD0020DFF800F0B1DD002038B504465F
S11385300D460CF0D7FB012C02D1FFF7EBFF02E054
S11385402846FFF7EBFF18B10CF0D8FB012032BD31
S11385500CF0D4FB002032BD10B5C20782B01BD48E
S113856002884FF6FF739A4201D00A0014D184089E
S1138570A400800722684EBFC2EA0140100C41EA01
S1138580004000900CF0AEFB042269462046FFF741
S1138590C9FF18B10CF0B2FB012016BD0CF0AEFB04
S11385A0002016BD70B504460D46164604E00CF0D6
S11385B0A5FB241D2D1DB61EB6B1012E01D0A007AA
S11385C006D535F8021B2046FFF7C6FFA41C761E0D
S11385D0022EF1D30CF086FB042229462046FFF735
S11385E0A1FF0028E3D001E0002070BD0CF086FB61
S11385F0012070BD7047002070470CF0A5BB01201E
S11386007047704780B50FF24C10FCF735F8FEF751
S1138610A7FF0FF24C10FCF72FF80AF019FD0FF228
S11386205010FCF729F80CF0D5FD0FF25010FCF7B0
S113863023F80CF013FFA1A0FCF71EF80DF024FBA7
S11386400FF24C10FCF718F8DFF8DC08FCF768F8B8
S11386500FF24C10FCF710F8FFF7CCFF0FF24810A4
S1138660FCF70AF80DF056FD0FF24810FCF704F879
S1138670DFF8B808FCF754F80FF24C10FBF7FCFFD6
S1138680DFF8AC08FCF74CF80FF24C10FBF7F4FFE2
S1138690DFF8A008FCF744F80FF25410FBF7ECFFE6
S11386A0DFF8E008FCF73CF80FF25C10FBF7E4FF9E
S11386B0DFF8D408FCF734F80FF26010FBF7DCFFA6
S11386C0DFF8C808FCF72CF80FF26810FBF7D4FFAA
S11386D0DFF8BC08FCF724F80FF26C10FBF7CCFFB2
S11386E0DFF8B0080CF010F80FF27010FBF7C4FFBD
S11386F00EF018FA0FF26C10FBF7BEFF0EF067FDD8
S11387000FF26810FBF7B8FFDFF89008FCF708F8E1
S1138710DFF88C08FCF704F80FF26010FBF7ACFFED
S1138720DFF88008FBF7FCFF0FF27010FBF7A4FFE3
S11387300EF0EDFD0FF27010FBF79EFFDFF86808F6
S1138740FBF7EEFFDFF86408FBF7EAFFBDE8014042
S1138750FBF796BF4D4143206172626974657200F4
S11387604D414320696E64697265637400000000C2
S11387707265747279207461626C6500364C6F574F
S113878050414E20667261676D656E74730000001F
S11387906D756C746963617374207461626C6500D7
S11387A077616B65757000006170706C69636174EA
S11387B0696F6E00666F726D2D656E657267792DD7
S11387C07363616E000000006E6574776F726B20D6
S11387D06461746100000000736C656570792062E7
S11387E0726F6164636173742068656164657200AB
S11387F0676C6F62616C206164647265737320746A
S113880061626C65000000006C6F63616C207365CD
S1138810727665722064617461000000626F726434
S1138820657220726F75746572204E4420646174A1
S1138830610000006368696C64206164647265733C
S113884073207461626C6500737461636B20657678
S1138850656E74207175657565000000436F415045
S1138860000000004A50616B65000000436F6D6DAD
S1138870697373696F6E696E670000007363616E7C
S113888020726573756C747320666F7220636F6DEC
S11388906D697373696F6E657200000044544C53C4
S11388A0204A6F696E0000006C6F6F706261636BC9
S11388B0206D657373616765730000005544500053
S11388C070B5DFF860460546E0882A0601D4062D17
S11388D004D140F0040005F07F0503E011B94FF620
S11388E0FB7108402E46022E1CBF032E042EE0808E
S11388F008D0052E0DD0062E18BF072E02D0F02169
S113890000F043F9A570A07804280CBF01200020D2
S113891001E00325F6E70AF074FBE0884FF6F471F2
S11389200840062E08BF40F0020004D0022E14BFF7
S1138930032E40F00800E08070BD10B5F2B00FF0D7
S11389403DF80CF0ACFC0FF0D4FC11F0BCFD0CF0C5
S113895017FA11F0B9FF11F0F5FF12F0D8FD12F07B
S113896050FE12F057FE13F0F2FB02F073F90120EF
S1138970F8F741FC13F07CFDFEF7E4FEFAF7D6F9B4
S1138980DFF8A0450020A0704FF6FE70F8F774FDE4
S11389900020E08013F0C1FE14F013F916F066F91C
S11389A017F023FC0EF0FAFA0EF0A4FCBC237F228D
S11389B0082142A8FEF7F4FB00F004F901A817F01F
S11389C0B4F9BDF854014FF6FF71884236D0BDF8B2
S11389D0040098BB082342AA0E210DF1060014F0EE
S11389E0BAF9102344AA032114F0B5F9082348AABC
S11389F0022114F0B0F908234AAA072114F0ABF9B4
S1138A0010234CAA052114F0A6F916F0A7F9BDF815
S1138A105421012114F080F9DFF8C827002116F051
S1138A2097F9032357AA002114F095F90DF10601D3
S1138A30401AADF8040001A817F0ECF9BDF80400E1
S1138A4000281EBF9DF8020000280120002100F02C
S1138A50CFF872B010BD38B5DFF880170FF23414B8
S1138A6000200880FBF7A0FDFBF7ACF9DFF87007E6
S1138A704168C90703D5006810F0300F10D10FF218
S1138A80680529460020F9F75EFA29460120F9F71E
S1138A905AFA2046BDE8344040F2AF11F7F746BE1B
S1138AA0FEF75CFB20B14FF4DA712046F7F73EFE87
S1138AB0F9F7BFF80FF24C00DFF868440BF0BAFF87
S1138AC0607004F108000BF068FDDFF81C1700204B
S1138AD00860DFF818170860FFF737FC0DF019FB82
S1138AE0BDE8314029E70000537461636B2F48618E
S1138AF0726477617265204D69736D617463680D8A
S1138B000A000000000000000000000080B5FFF72C
S1138B10A2FFBDE8024000200DF0E8BADFF8C81655
S1138B2008607047DFF8C41608607047DFF8C416A1
S1138B300860704710B50020F8F7D0FEDFF8B806DB
S1138B40007818B10FF23000FBF727FEF9F762F84E
S1138B50F9F73DFFFAF75AFA02F0FFFF0AF004FCB6
S1138B60DFF88C4604F108000BF0A0FD6078BDE846
S1138B7010400BF087BF00000586000000000000D5
S1138B80DFF86C0640780BF07DBF0FF20800F7F7B2
S1138B90CDBD000069702D737461636B2E6300009A
S1138BA0F8F760BCDFF848168979890758BFF8F7E9
S1138BB043BC7047F8F75ABCF8F75EBCF7F7F7BF49
S1138BC00068009004237F220C216846FEF7E8BA6F
S1138BD080B5F7F7DDFFBDE80240FAF7D5BBF7F73C
S1138BE0D3BFDFF818067047DFF804060078704733
S1138BF070B50446DFF82C03067804700D46C1886E
S1138C00032C05D141F40041C18001F0DEFF02E0F4
S1138C10C1F30E01C180200004BF01200AF0F1F964
S1138C202A4631462046BDE8704018F01BBBF8B513
S1138C3006465E220021FBF780FBDFF8E852287825
S1138C40012806F1280421D0DFF8B4751022B91CDC
S1138C503046FBF710FB06F1100012F0B5FC06F1EC
S1138C60180012F0CBFC082207F1120106F12000D3
S1138C70FBF701FBF8F7FAFB2080F7F785FFA070FC
S1138C80A878E070F7F784FF20712CE015F0BAFFA4
S1138C900746102207F114013046FBF7ECFA0822CC
S1138CA007F1240106F12000FBF7E5FA082207F199
S1138CB02C0106F11000FBF7DEFA07F1580004233B
S1138CC0018821807F22807AA0700C210FF25850F5
S1138CD0006800906846FEF763FA9DF8030020716F
S1138CE09DF80200E070A878032804D1A879000751
S1138CF05CBF0520E070F1BD2DE9F0410446200081
S1138D000D4604D12846BDE8F04118F044BB012CBF
S1138D1004D1DFF8F00418F050FB20E0022C20DB33
S1138D20984E0021304604F028FF022704E0414613
S1138D30304604F051FF7F1C80465FEA080010D0E3
S1138D40FBF78BFF00281CBF016A0029EFD0F9B2A2
S1138D50A142ECD1811C10222846FBF78CFA012099
S1138D6000E00020BDE8F0812DE9FF4104460F46F4
S1138D70844D0021284604F000FF1DE0FBF76DFF41
S1138D80060015D03078800612D5002C18BF002FAD
S1138D9007D03B4622463946B01CFBF787FBB84256
S1138DA006D13388326AF169DBB2B01C0BF046F9A4
S1138DB04146284604F010FF80465FEA0800DDD1F2
S1138DC00FF268400FC86C4684E80F0000230022AD
S1138DD0002168460BF032F9BDE8FF813EB5694CCD
S1138DE00021204604F0C9FE15E0FBF736FF70B100
S1138DF00178C9070BD5016A0291821CC1690191EE
S1138E00002100910121837C00200BF0EFF829461A
S1138E10204604F0E1FE05462800E6D10020029039
S1138E20019000900023002200210BF0DFF837BDF1
S1138E30AA210170BB214170CC218170DD21C17058
S1138E407047DFF8C4130A7882421CBF0870FAF72F
S1138E50B0BA704710B5044618F031FF20B9204667
S1138E60BDE8104012F06DB910BD00B5F7B04FF475
S1138E708172002135A8FBF760FA35A816F0CAFF05
S1138E8035A816F0C9FFBC22002106A8FBF755FA45
S1138E904FF6FF70ADF86400BC2306AA7F210820BA
S1138EA0FEF78EF9042200216846FBF746FA00F02B
S1138EB02DF80822002104A8FBF73FFA082304AA8E
S1138EC07F210520FEF77CF90822002102A8FBF788
S1138ED034FA082302AA7F210720FEF771F911F062
S1138EE047FB12F083F800208DF80400042301AA44
S1138EF07F210320FEF764F926480BF05BFBFFF7A4
S1138F001CFD0020FAF74DFA77B000BD04236A4631
S1138F107F210C20FEF754B90021DFF8F0020BF09A
S1138F2007BC000004F700206EFF002040F800207A
S1138F307AFA002076FF002038B5DFF8D052DFF847
S1138F40D04228460BF044FCDFF8C80200780C2815
S1138F5010D02068142804D10120FAF722FA002046
S1138F6006E04FF4FA7128460BF0E2FB2068401C3F
S1138F70206031BD002020600320BDE83240FEF7B0
S1138F8098BB0000A2FA0020C0FE0020C2FE002010
S1138F90C8FE00200CF70020F9F783BD64F7002019
S1138FA0BAFE0020ACF70020CEFE002072FF0020A5
S1138FB070B58F4C2078032888B07CD0012803BF7B
S1138FC0944800780C28702076D108237F2205214C
S1138FD005A8FEF7E5F805A818F052F908237F2242
S1138FE0072103A8FEF7DCF8082203A98A48FBF747
S1138FF042F908237F22062101A8FEF7D1F801A82F
S1139000F9F795FE15F05BFE15F0FCFD054605F13C
S11390105806B07AFEF717FB3088F8F72DFA05F1F9
S11390201400FBF723FAC1B205F1140001F0F8FDB6
S113903005F1240001F0C3FD05F12C0012F0CEFD72
S11390400FF2F810FFF7BCFDBDF80000FFF7AAFD12
S11390509DF90300F7F7ABFD9DF8020000F030F82E
S113906012F09FFA11F08EFA01F09BF9A07806280D
S113907009D100210320FFF7BBFD012200210020BC
S113908010F040FD17E0F8F7EDF9800502D102F089
S11390904BFB10E0A078032818BF042804D0022852
S11390A005D1A079C00702D402F085FB03E040F2A9
S11390B08151FFF76AFD00200AF0EDFF08B070BD92
S11390C00021FFF7FDBB80B517F036F913F079FDE9
S11390D013F088FD46488078062803D0BDE8014097
S11390E00EF0FFBC01BD80B541480178032905D1CC
S11390F04A4909884FF6FF72914201D193200BE04F
S11391008078042818BF702006D1454800780428C8
S113911018BF052804D13D20BDE802400AF04BBF2A
S113912011F0F5FBBDE80140FEF751BA00B59FB060
S113913007A8602100F092F807A8FFF778FD0FF266
S11391400010006800909DF848008DF80300F8F7BF
S113915089F9ADF800006A4625488078062818BFCA
S11391609DF847008DF8020004237F210C20FEF7B0
S113917027F80FF2D00005A9D0E90023CDE9052393
S1139180284818F0C0F8082305AA7F210520FEF717
S113919017F80FF2B8002049D0E90023CDE90323E2
S11391A003A80822FBF767F8082303AA7F210720F6
S11391B0FEF706F80FF29C001249D0E90023CDE92E
S11391C0012301A80822FBF756F8082301AA7F21EE
S11391D00620FDF7F5FF1FB000BD0000B6F6002025
S11391E0E881E00F00F8FF07B8FB0020C8FB00206F
S11391F004F700201CF70020F3E3002038F70020D8
S1139200B0FA002040F7002093FF002084E1002002
S113921020F70020FCE100204CF80020BAE10020F7
S1139220A7FF0020E4F6002000000000000000007A
S1139230000000000000000000000000000000002A
S1139240000000000000000000000000000000001A
S1139250000000000000000000000000002219F0DF
S1139260B5BA00002DE9F8430446FBF77FF805463C
S1139270E01CFBF77BF80646601DFBF777F8804699
S113928000274FF44060054208BF40274FF44C408C
S113929005422ED0680658BF47F020074FF6FF79E5
S11392A04E4508BF47F0010705D0FFF783FC86420F
S11392B008BF47F0020705F44060B0F5006F03D023
S11392C0B0F5406F0CD014E0C84508BF47F0040760
S11392D00FD0FFF765FC80450BD147F0080708E085
S11392E00822611DDFF87C08FBF72EF808B947F067
S11392F010073846BDE8F2832DE9F04FADB0804643
S11393001546FBF7AAFC0646701CFBF72FF88246AD
S1139310701C0BF0CFFB3044441C611C0120FBF794
S113932055F8814600271AF440407CD0B0F5004F30
S113933011D0B0F5404F08BFA4F1080700200090F9
S1139340694620460BF0BDFD040021D1384601F0EA
S113935094FD88B967E0A01EFBF708F8FFF77AFDD3
S11393600700EBD1701C0BF0C6FE0700E6D101210B
S11393700E20FAF704F856E0002E18BF002F52D042
S1139380034600F074F800284DD00120287065E0F1
S1139390082C19D10098C0B211F0F2F9054601A9C0
S11393A011F0FDF98346BBF1000F16D125A928461B
S11393B011F0B4F8002E1CBF002F002833D000F1A8
S11393C0100300F054F82EE0102C2CD14FF0FF3590
S11393D0DFF89477DFF894B7E5E711F0F1F938B9DD
S11393E0002E18BF002F1ED000F040F860B91AE01C
S11393F0002E18BF002F16D03278711C05A8FAF77A
S11394003AFF00F033F870B1102C26D0009BDBB289
S11394104A4639464046FFF7EEF820B94FF440403B
S11394201AEA000F01D1022018E000F01AF818F02F
S11394302BFF78B900F015F811F0E9FE50B900F0EF
S113944010F802F041F928B901210F20F9F797FF2C
S1139450042003E0284611F0FBF901202DB0BDE8FB
S1139460F08F00232A463946484670475B463A4601
S11394703146701C0BF04DBE2DE9F04F85B080468F
S1139480FBF7EBFB0546681CFAF770FF0646E87825
S11394908DF8020006F00709F00800F0010A300A0E
S11394A000F001008DF8030006F4405400208DF80C
S11394B001004FF0000B681CFFF7D4FE074617F0BD
S11394C0440014BF052004200121F9F758FF15B109
S11394D02878801E28704FF6FF6000EA0601681C99
S11394E0FAF74DFF681CF9F754FFD0B14FF0040BA5
S11394F0002405B12C784046FBF7C7FB0646681CE0
S1139500FAF734FF07465FEACB7040F1EF8000F0D2
S11395104DFB801E5FEA8B71C0B201D5801FC0B2C3
S1139520E5E0BAF1000F0CBF002CB4F5805F13D155
S11395304EF6F7600640DFF838060078012818BFB9
S113954003284FF6FF7408D0052818BF062804D056
S1139550072806D00C282BD016E1B9F1000FFBD157
S113956030E0B9F1030FF7D117F0030003D1FFF78F
S113957021FBA042F0D117F01C00EDD09DF80300B0
S113958008B14BF0200BDFF8EC0500781AEA000F65
S1139590AED00DF1010239464046FFF7ADFE022878
S11395A069D1B9F1000F64D1002D45D10024A2E79F
S11395B05FEA090106D0B9F1010F0ED0B9F1030F2A
S11395C0D2D0E1E00C2801D1B807FAD5B6F5004FA6
S11395D0D4D0B6F5404FF4D1D0E70A2F1CBF062FE4
S11395E0122F25D1780758BF4FF0010B10D5DFF8A3
S11395F088050088000404D5DFF880050078042875
S113960015D0DFF87C050078022810D04FF0410B0C
S113961016F4404008D0B0F5004FAFD0B0F5404F3D
S113962005D14BF0020BA9E7BAF1000FA6D1ABE0CC
S1139630252FA3D0322FCEE74046FBF726FB064664
S113964095F800A000F0B2FA0746A6EB0A0022182B
S113965005EB0A00411CE81992B2401CFAF70BFE14
S1139660AAEB0700C0B22F70311A89B200F0B2F829
S113967040E7B9F1030F30D100F098FA2844461CB2
S113968030460BF017FC305C04282CD14046FBF725
S1139690FCFA002D824689D02F7800F087FA0190D9
S11396A030460BF007FC064601990198AAEB01012C
S11396B02844891B6218811992B2491C401CFAF78C
S11396C0DAFDB81B2870681CFAF750FE0146681DC5
S11396D0FAF755FEAAEB0601C7E710B94BF0100BD9
S11396E006E70128FCD00121102062E00220211AA3
S11396F0C91D8DF800108442A1BF611C8E429DF8E3
S113970000108E4240DB221A2844411C92B2E81D0C
S1139710FAF7B1FD0DB185F800B004220021681CF0
S1139720FAF70BFE3946681DFAF729FE9DF8010089
S113973018B10321404600F075FA681CF9F72CFEB5
S113974018B10721404600F06DFAB9F1010F39D183
S11397505FEACB7013D502A9404619F062FE70B1DE
S1139760FFF71EFA0146BDF80C00884207D00EF040
S11397706BF958B1BDF80C0011F0E3FC30B969463F
S1139780404619F058F808B900201EE000F020F80F
S1139790404600F0FCFAB0F5004F15D1404600F009
S11397A019FB9DF80210044611F090F820B1012134
S11397B01120F9F7E4FDE7E79DF80210204611F0C7
S11397C09AF801E000F004F8012005B0BDE8F08F3C
S11397D09DF800104046FBF771BA2DE9F64F85B0AD
S11397E082460521FBF79EFC04465046FBF735FAFA
S11397F00490C01D019000200599DFF88853029061
S113980008708346FFF7D6F9ADF800008046DFF80C
S11398107813FF200870EF1C00F0C5F904280CBF72
S11398204FF00109D94600F0BEF906280CBF012605
S11398300026E00900F0010080F001008DF80C0022
S11398404FF67F70044000F0AEF9052808BF4FF6CC
S1139850FF7825D000F0A7F9032802D056EA0900C2
S11398601ED001215046FBF79EFA834600220121B7
S11398705046FBF7AFFAB9F1000F09D05846FBF791
S1139880ECF94FF6FF7858B106990078087007E0B4
S113989036B15846FBF7E1F910B1FAF76AFD804694
S11398A000F07EF9C0074AD500F07AF9800708D5A0
S11398B0082604F44060B0F5406F0CD040F20B3140
S11398C007E0022604F44060B0F5006F03D040F2D4
S11398D00F3100F061F94146281DFAF750FDA81D2B
S11398E0029032460199FAF7C6FCA819871D01981F
S11398F080190190BDF80000404508BF44F04004C1
S113990004D001463846FAF73AFDBF1C9A4800785D
S1139910800748BF44F4404404F44040B0F5404F4D
S113992006D108228F493846FAF7A5FC083706E025
S1139930FFF736F901463846FAF721FDBF1C00F05F
S11399402FF900F0050004280ED05046FBF79DF9CE
S11399500646504600F036F9301A210702D4C0B248
S1139960672801DB44F48054504600F03EF9019925
S1139970401A5FFA80F842463846FAF77CFC0198B0
S11399804744804400F00CF9C0073DD5E008C7F116
S11399907D016A1C00F0010056180100029918BFED
S11399A0123E00290ED079490978029B81F0010109
S11399B008430090F2B2394650460BF094FF8046BB
S11399C0B8F1FF0F6ED0B8F1FE0F1BD1012000904B
S11399D0A6F11202029BD2B2394650460BF083FF25
S11399E0804644F48054B8F1FF0F44F0080459D081
S11399F005215046FBF796FB40F00802052150462E
S1139A00FBF79FFB47440DE05046FBF73EF90499F2
S1139A10A0EB08000E18F6B2324641463846FAF773
S1139A202AFCBF19504609F0E8FB08B144F01004C1
S1139A302146681CFAF7A3FC00F0B2F800F0050018
S1139A40042804F007060BD02EB951480178491CAC
S1139A500170E9700CE04F480178491C0170E9700D
S1139A60032E05D100F0A2F8284447494078087035
S1139A7000F096F800F00500042858D0200756D5C9
S1139A800BF06EF910F1010F0CD0012E0CD1FFF781
S1139A90ABF8032808D0B9F1000F05D100F083F822
S1139AA0032801D0002059E000F07DF8032806D1F6
S1139AB05846FBF7D2F881460024002627E0B9F186
S1139AC0000F05D0DFF8A490FF260020102420E02A
S1139AD000F066F8C00604D510F072FE8146012637
S1139AE00DE0684610F061FE5FEA000903D14FF40F
S1139AF06C7100F051F8009800F07F00461C00F0F3
S1139B0052F80824022802D1FEF777FD01E00BF099
S1139B101BF90290F6B20196002000902346781BB0
S1139B20411E4A46C9B2681C0BF031FA07445FEA89
S1139B300B0004D05A4601215046FBF74BF9781B21
S1139B40401C2870781B7F2803DB40F2D33100F0DF
S1139B5023F80599012008709DF80C0007B0BDE8B2
S1139B60F08F000040F70020BC510100C4510100F7
S1139B70FCE10020F9E300200AF7002006F70020AA
S1139B80A7FF0020E2FE0020F2E30020FAE3002019
S1139B90D6FE0020D5FE00200FF21800F6F7C6BD51
S1139BA0504600F02CB8504600F039B8681C0AF052
S1139BB081BF000069702D6D61632D686561646506
S1139BC0722E630080B5FBF748F860B10178CA07CC
S1139BD005D4401D0AF06EFF401DC0B202BD8807C7
S1139BE001D50F2002BD092002BD38B50446FBF79C
S1139BF034F805462046FFF7E5FF284432BD00212E
S1139C00FBF774BA0A460021FBF777BA80B5FBF775
S1139C1024F818B1017841F08001017001BD0421DC
S1139C20FBF764BA0A46FFE70421FBF766BA80B57E
S1139C300521FBF777FA00F4406002BD38B504460D
S1139C40FBF70BF805462046FFF7D9FFC00701D5FF
S1139C50E81D32BD05F10A0032BD80B5FFF7EEFF05
S1139C60BBE038B504460D46FFF7E8FF2946FAF78E
S1139C7086FB00F02AF84FF6FF718D4206BF4FF6BF
S1139C80DF7101EA000240F020022046BDE83840BE
S1139C900521FBF756BA10B50C46FFF7CFFF214656
S1139CA0BDE810400822FAF7E6BA38B504460D4676
S1139CB0FFF7BDFFA84207D000F007F84FF2FF31CD
S1139CC0084045EA0002E0E731BD05212046FBF7E4
S1139CD029BA2DE9F04104460D46FFF790FF0646E8
S1139CE0F00704D48B210FF25420F6F71FFDB007C0
S1139CF01AD52046FAF7B1FF80462046FAF7C5FF89
S1139D000746A0F10F0292B208F10F0108F1090011
S1139D10FAF7B1FAB91F89B22046FAF7CFFF06F075
S1139D20FD012046FFF76EFF4FF400612046FFF768
S1139D30BCFF4FF6FE708542204607D1FFF75FFF58
S1139D4040F020012046FFF75DFF0AE0FFF757FFD0
S1139D5000F0DF012046FFF755FF29462046FFF7B4
S1139D6080FF0120BDE8F08110B50446FFF75FFFD6
S1139D7048B1B0F5006F08D12046FFF76EFF4FF6EB
S1139D80FF71884201D1012010BD002010BD80B5B3
S1139D900521FBF7C7F900F4404002BD38B504467D
S1139DA0FAF75BFF05462046FFF729FFC00701D5F8
S1139DB0E81D32BD2046FFF718FF05462046FFF791
S1139DC0E6FFB0F5404F0CBF6FF007006FF00100E5
S1139DD0284432BD80B5FFF7E1FFBDE80240FAF741
S1139DE0C5BA38B50446FFF70AFFC00703D5BDE876
S1139DF03140FEF7DFBEFFF768FF05462046FAF75D
S1139E002CFF0830690611D44FF440410D4202D1B1
S1139E104FF6FF7032BD05F44061B1F5006F08BF25
S1139E20001D03D0B1F5406F08BF0A30BDE83240D1
S1139E30FAF79CBA10B50446FFF7E1FE000703D514
S1139E402046BDE81040C5E74FF6FE7010BD2DE971
S1139E50F0471D46012610B140F6010006E0002A35
S1139E601ABF032640F6214040F62100002914BF02
S1139E704FF440414FF4004141EA0008002010F043
S1139E803BFC18B148F4805040F00808089C16F0D8
S1139E90020714BF0F2009202018002180B2FAF70E
S1139EA0F2FF814608B3FAF7F0FE82464846FAF715
S1139EB0D4FE52460021FAF740FA31464846FFF7ED
S1139EC0A1FE4846FAF7C9FE461D41463046FAF758
S1139ED056FAB01C002F14BF0823022325B12246D2
S1139EE029461844FAF7C7F94846BDE8F087F8B59B
S1139EF004460D46681D002180B2FAF7C4FF06002F
S1139F0001D10020F2BDFAF7C0FE07463046FAF749
S1139F10A4FE3A460021FAF710FA04213046FFF76E
S1139F2071FE3CB13046FAF798FE2A462146401DA0
S1139F30FAF7A1F93046F2BD0000000069702D70F7
S1139F4061636B65742D6865616465722E630000DE
S1139F5000B583B048B100F072F86846C17941F0A9
S1139F600201C171F8F7E3FE07BDF8F7DFFE07BD94
S1139F7080B5DFF8A80C4179092905D1032000F048
S1139F8015FABDE8014081E107291ED0491E0729C1
S1139F9015D8DFE801F00A0406040D20201104207E
S1139FA000E00320BDE8024000E2BDE8014052E2C7
S1139FB0BDE80240072079E2BDE8014066E1BDE862
S1139FC0044040F2753101F084BAC07A18B1BDE89A
S1139FD0014001F01BBA01BDDFF8400C41790729AB
S1139FE000D0704780B5C07A032818BF07280ED167
S1139FF0DFF8540C008900F0F4FE08D0FDF7E7FA0E
S113A000BDE804409621DFF8F80C0AF091BB01BDCD
S113A010DFF8380C00B5007883B020B1DFF8E40C29
S113A02017F02EF907BD00F00AF89DF8000000F0C3
S113A030FD008DF80000684617F022F907BD0421E1
S113A0406846F6F775BC2DE9F84304468846DFF800
S113A050009C5E2200214846FAF76FF91022002185
S113A0604846FAF76AF905220FF25401DFF8AC5BAF
S113A0700FF254064846FAF7FEF809F128070220C1
S113A080F870032038714FF6FF7038800020E881A3
S113A0900DE018EA000F09D0B078F278211848448E
S113A0A0FAF7E9F8E88931880843E881361D3088F1
S113A0B00100EED194F82A00B870BDE8F1830000E5
S113A0C0656D626572000000010000100200100856
S113A0D0040020080800280210002B0120002C0195
S113A0E040002D108000180800013D2000015D0192
S113A0F00000000038B504460D46FEF775FD20B19A
S113A100BDE83240702009F0EABF00F009F80020F1
S113A11009F0E5FF29462046BDE8344015F0DCBCD3
S113A120294620468FE7F8B500F08AF8002802BFD8
S113A130DFF8FC0B00780C2826D100211020FAF758
S113A140A2FEDFF8D87A388208B918201DE0002072
S113A15009F093FF00210220FEF74AFD4FF6FB7041
S113A16000EA0501FFF7DDFF10F097F9388AFAF7E6
S113A17074FD1022FF21FAF7E0F83146BDE8F840FB
S113A1800522022009F07CBC7020BDE8F24000F0FA
S113A190BBBDF8B5DFF8847A0446F8890D4616008D
S113A1A019BF00F04F014F2900F04700472801D0A4
S113A1B0022019E0FEF718FD002802BFDFF8700B3B
S113A1C000780C280FD1DFF8880A80F82B5020463D
S113A1D0FEF7F4FC0120F8713E72002009F053FFF1
S113A1E0BDE8F14052E07020BDE8F24009F04BBFF9
S113A1F070B500F025F8002802BFDFF8340B0078B2
S113A2000C2818D1FFF78CFFDFF8444ADFF80C5A0A
S113A21094F92C00FEF7D2FC10F054F96E61102171
S113A220204600F0FDFC0020E871287209F02BFFA5
S113A230BDE870402AE0BDE87040702009F023BFFB
S113A24004460D461646FEF7CFBC80B5FEF7CCFC9F
S113A250042802BFDFF8C409C07A002803D100F043
S113A26097FE002000E07020BDE8024009F00FBF17
S113A27020F08001042900D0704780B50121FEF749
S113A2801FFBDFF88C1C0020087001BD80B5FFF7B0
S113A290BFFEF8F74BFDDFF8B80990F82B0020F06B
S113A2A08001042908D101210320FEF709FBDFF80E
S113A2B0500A0AF08DFA02E00121FEF701FB00F0DA
S113A2C0C9FC00210220FEF793FCDFF8501902209C
S113A2D008710120BDE80240E8E038B50446DFF823
S113A2E03C09008A0D46FAF7B8FC10B1204400F886
S113A2F00B5C31BD2DE9FC4106460F4690461C46D9
S113A300FFF786FEDFF81459687920B1702000F059
S113A310FBFC002043E011F074F93046FDF793F99B
S113A3203846FEF74BFC4046FEF746FC0C98DFF837
S113A3304C6C0021FEF7C4FA308840F001003080F4
S113A3400020FEF72FFC0899204600F069FC072046
S113A3506871308840F400403080A87B400704D501
S113A360DFF8280C00F02BFC04E0FFF768FE6846D9
S113A37000F025FC0A9811F031FC0B9811F052FC06
S113A380FEF7A1FE012015F041FBDFF88C08807870
S113A390FFF7DEFDFEF7CAFE00F02EF90120BDE84E
S113A3A0F681DFF8781807204871704770B5DFF838
S113A3B06C486679054600F04DFC012E08D12079E1
S113A3C0010005D0401E20710120BDE870406DE001
S113A3D0A079010012D0401EA0710AF08FFADFF8B4
S113A3E03858297800F034FF05F108000AF0A0F984
S113A3F00820607128788000287070BDDFF850084C
S113A40090F82B00FFF734FFF8F790FC2946002062
S113A410FEF7EEFBBDE8704000F065BD10B50C46DC
S113A4208AB0014608226846FAF715F8202200216E
S113A43002A8F9F782FF02AA0821684619F04AF92E
S113A440082202A92046FAF706F8E07940F0020053
S113A450E0710AB010BD10B5DFF8C047607A401C47
S113A460C0B21B280EDA6169C140C907F7D5607212
S113A470FDF7E9F8E07958B900F0C9FB072807D0DF
S113A480012206E0BDE810400022032100203DE245
S113A4900022002100200FF0F8FCBDE810404FF42A
S113A4A09671DFF8740C0AF043B900002DE9FF41FE
S113A4B00646684600F013FCDFF85C47DFF85C579B
S113A4C0DFF88C77DFF8248C00F005FC6E7107F15F
S113A4D028066879401E062800F28780DFE800F02D
S113A4E0041F505C5F8566004FF6FF776078E78055
S113A4F078B1308801E00AF001FAB842FBD0FEF7E7
S113A5005BFBA078FFF724FD0A206872FFF7A3FF26
S113A51070E069690522032009F0B2FA6AE0DFF805
S113A520FC1BE07809780840DFF85C1A09780842D7
S113A5300AD0A86920B94FF442714046F6F7F6F8FC
S113A540A9696846884755E00022082105F12C00D6
S113A550F9F772FF28B105F12C01DFF8A807FFF71E
S113A5605DFF05F12C00F8F7E2FB97F85D302988D0
S113A57007F13D0268460DF08AF9DFF8D01C10E0BF
S113A580012013F088FF20B940F227314046F6F746
S113A590CDF842F6E06104E041F2883101E04FF485
S113A5A0967104F108000AF0C3F823E000F09BFC64
S113A5B000F02DFB062807D100F01EF8012200212F
S113A5C000200FF09FFA0DE0072802D100F014F8E4
S113A5D008E0A078FFF7BCFCF078FFF749FE1720ED
S113A5E000F0D6FCFEF7A2FD04E04FF4547140469F
S113A5F0F6F79CF8BDE8FF8100210320FEF7F8BAC6
S113A6002DE9F04192B0804609F02CFA0546404607
S113A610FAF73BFB441B4046FAF71FFB0619F6B258
S113A6201A2EC0F28E804046FFF7B1FBB0F5004F02
S113A63078D04046FFF7ABFBB0F5004F72D0422212
S113A64000216846F9F779FE08AC2878A0704046E6
S113A6506F78FFF7A3FB0146082206A8F9F70BFE63
S113A6601022A91C6846F9F706FE082205F112011A
S113A67004A8F9F700FE03214046FAF737FDE0701D
S113A68001214046FAF732FD607102214046FAF793
S113A6902DFDA0714046FAF7E0FA0830F9F766FE9E
S113A6A0ADF8200007F001002071F80800F0010067
S113A6B08DF840003809E07105F11A073544381D5A
S113A6C0A8420AD23878122804BF7878022804D124
S113A6D0B81CF9F74BFEA0833F1D381DA8420AD2CF
S113A6E038780F2804BF7878022804D1B81CF9F709
S113A6F03DFEE0833F1DB81CA8420BD238780828E1
S113A70008D17A78112A05D2A276B91C0DF12A0053
S113A710F9F7B1FDDFF804054079012803D1684653
S113A72000F013F80DE0DFF808060078012803D1E3
S113A730684619F0D7F804E0052804BF684612F00B
S113A740D2FF12B0BDE8F08100BF2DE9F84FDFF869
S113A750C894DFF8C8448046B9F8060008F1200719
S113A76000F03FFB94F9020097F906100CBF4FF07C
S113A770010A4FF0000A8842F879B4BF0125002588
S113A780421E9241D20F8DF80120E1784A1E924177
S113A790DFF8741C0978D20F8DF80020062962793D
S113A7A00CBF01260026012A09D1022807DBB8784C
S113A7B0032804D1072903D198F8400078B989E027
S113A7C0387938B1B97E080004D008F12A0012F0B3
S113A7D0A3F920B9A07B00F0470047287AD10022D2
S113A7E0082104F12400F9F727FE78B90022082192
S113A7F008F11800F9F720FE40B9082208F1180101
S113A80004F12400F9F7A0FD002863D1A07BDFF850
S113A81040B4C0070CD5002210215846F9F70CFEAD
S113A82030B9102241465846F9F78EFD002851D11F
S113A830A07B40070CD5002208210BF12000F9F77A
S113A840FBFD28B900F048F8F9F77EFD002841D156
S113A850A17B09070BF1280003D501883A889142AE
S113A86038D19DF801109DF800209DF80030294052
S113A870324311409DF80120324382F001022B4300
S113A88041EA0A011A40114324D0F9788170B97958
S113A890A17039880180414600F0B9F907280CBF3E
S113A8A0F88BB88B20801022F879E0705846F9F7BD
S113A8B0E2FC00F011F8F9F7DEFC4FF6FE70A9F89F
S113A8C0060008F1180104F11C00BDE8F84F082245
S113A8D0F9F7D1BCBDE8F18F082208F110010BF1A2
S113A8E02000704738B5DFF8684304F12805A878DC
S113A8F0FCF7A9FE2888FEF75FF904F1200000F0B8
S113A9005EF92046BDE83440102189E1F0B502002B
S113A91085B040F09180C14DCD4C6879012833D188
S113A9200022082105F11C00F9F786FDB8B9FFF7EC
S113A930D9FFE87970B100F06AF9062808D100223D
S113A940082104F11800F9F777FD08B1062002E0A8
S113A950072000E0022005B0BDE8F040A6E5287A13
S113A96068B1FFF7BFFF19F09AF8012015F04EF80F
S113A9700720687105B0BDE8F04000F0D9BC05B00F
S113A980BDE8F040022011E5022903D105B0BDE87D
S113A990F040CFE1042904D105B0BDE8F04012F045
S113A9A02DBE032941D1288AFAF757F9EB8903F020
S113A9B00806320004F128014FF6FF770FD14FF05B
S113A9C0000C00281CBF30F81C20BA4208D10CF13E
S113A9D001025FFA82FCBCF1080FF2DB1CE00A887A
S113A9E0BA4218D018064CBF04F118000020039096
S113A9F09B074CBF04F11003002300200190029335
S113AA00102000902346CE7891F90410A87A049679
S113AA10FFF770FC16E01EB905B0BDE8F040C3E1D5
S113AA2005B0BDE8F04070206EE105290AD105B0FB
S113AA30BDE8F04012F07ABE022903D105B0BDE8AA
S113AA40F04061E105B0F0BD74484079062804BFC8
S113AA500720FFF72BBD704738B5704D0446687961
S113AA6003280DD10CF0E4FC1CB1BDE832400420F5
S113AA701CE5092068714FF4FA61BDE8344010E523
S113AA8031BD66484079022804BF0420FFF78EBC1C
S113AA907047DFF8741C4A78002814BF42F00100A4
S113AAA002F0FE0048707047DFF85C0C40786BE001
S113AAB070B50C0086B00646DFF8085C03D11A2096
S113AAC0287000203DE068461421FEF7C7FB112CD6
S113AAD0A8BF102408208DF800008DF801402246FC
S113AAE031460DF10200F9F7C6FBDFF81C6CA21C1D
S113AAF092B2694606F11A00F9F7BDFB301912212A
S113AB0000F81C1F02214170DFF8181C0A88120A81
S113AB1082700988C170717809070ED50F210171FF
S113AB2002214171DFF8EC1C0A88120A827109883B
S113AB30C1717078000748BF241D04F120002870FB
S113AB400120FFF7A6FF06B070BD10B5040004D0C5
S113AB50FEF74AF808B1702003E0204600F005F83B
S113AB600020BDE81040F8F707BCDFF89C1B4A78CA
S113AB70002814BF42F0080002F0F7004870704744
S113AB80DFF8840B4078C00800F00100704780B5FE
S113AB9022484079022818BF03280CD007280CD17A
S113ABA0DFF8640B4078C00705D414F02BF890F854
S113ABB05600400601D5012002BD002002BD014619
S113ABC00822DFF8640CF9F756BB10B5DFF8AC4384
S113ABD02088000403D440F2375100F0A1FBDFF8D1
S113ABE0E41A1A2008700321DFF81C0B0170417865
S113ABF041F0200141702078C00703D400F007F829
S113AC00022803D1BDE810400DF0EEB810BDDFF806
S113AC10F807007870470000B4E1002030F8002005
S113AC2070B50D46112D0446A8BF1025DFF8D86A6B
S113AC3010220021B01CF9F780FB2A462146B01CE3
S113AC40BDE87040F9F717BB74F8002095FF0020A9
S113AC50D0F7002038B5DFF8D45BDFF824440020B7
S113AC606871E8724FF6FE70FDF79CFF11F0A9FFC2
S113AC704FF6FF70E0800822002105F11C00F9F76F
S113AC805CFBFF2020710020DFF8A41BBB4D087083
S113AC902888C0F30E0028800AF001FB0DF029FB80
S113ACA0DFF8901B002008700CF088FE11F04FFABA
S113ACB011F033FD10F02BFC0DF0BAF80020FFF773
S113ACC0E8FE0120207000F006F828884FF6FE7197
S113ACD00840288031BD04F1080009F079BD80B531
S113ACE0DFF89C13C9884FF6FF72914201D100200E
S113ACF002BD0146DFF8400B16F05FFB012002BDE8
S113AD00C8E1002038F7002010B50446DFF81C1B0A
S113AD1000200882FDF768FF20B92046BDE81040F6
S113AD2009F0ABB9BDE8104001210020FDF760BF78
S113AD30FCE10020F8B5DFF8F45A288AF9F78DFF12
S113AD40FF240027060014D00020315CA21F91428A
S113AD50BCBF8C1DE4B2401C1028F6DB0020315C23
S113AD60A142BCBF7F1CFFB2401C1028F7DB380097
S113AD7003D1BDE8F2400120C6E709F0BFFD90FB16
S113AD80F7F107FB1101C9B20020325CA24206DAD6
S113AD900A0002D10B30A87204E0491EC9B2401C5B
S113ADA01028F2DBBDE8F14070B5DFF8804A208A54
S113ADB0F9F753FF0546002609F0A0FD00F011F84D
S113ADC01EBF002D25F81600761C082EF4DBA17A90
S113ADD0BDE87040012000FA01F10522032008F0CB
S113ADE04FBE4FF6FF718842704770B5044620008D
S113ADF00FBFDFF8480A0120A0400843DFF82C1AEF
S113AE0098B0154648611E465E2200216846F9F74F
S113AE1094FA1E99082208A8F9F72DFA3246294611
S113AE206846F9F728FA1F9E102231460DF12D00CD
S113AE30F9F721FA1D9D0822294604A8F9F71BFAFF
S113AE4020998DF82A4030460FF0CCFB284610F0AC
S113AE50C5FE1C9847214FF6FF7290421CBFADF807
S113AE6028004F216846FFF745F918B070BD014628
S113AE701022DFF8CC09F9F7FEB938B50446DFF83B
S113AE80AC5900F01CF820B12046BDE8324019F05E
S113AE902CB905F1340032BD38B5DFF890590446B9
S113AEA06879042802D100F00AF810B168790728FB
S113AEB004D12046BDE8324000F04CBD31BD002233
S113AEC0102105F13400F9F7B7BADFF83C05007832
S113AED0072805D0DFF854094079022802D103205D
S113AEE0FFF7E4BA704710220021DFF85409F9F79C
S113AEF024BA80B5FFF7F7FFDFF83009407904285A
S113AF0004D1BDE802400520FFF7D0BA01BD00001E
S113AF10ACFF002010B55A4C60791B2811DB0B20C4
S113AF20607104F1200009F053FC00F0F0F8DFF840
S113AF30FC180020C8720021BDE810400420FDF771
S113AF4057BE13F05FFE5A3012F0F4FA01466079EE
S113AF50C140C90748BF0EF024FF6079401C6071EE
S113AF60322104F12000BDE8104009F0E1BB80B5B6
S113AF70FCF766FBDFF8B418087301BD0AF700207C
S113AF80DFF8C40870470000A4FF0020F0F7002099
S113AF90002100E001212DE9F041DFF8906804462A
S113AFA0707907280D464ED1F07ADFF8D48001007D
S113AFB00AD0062818BF072845D108F10800BDE8C3
S113AFC0F041002109F0B4BBDFF88078387800281C
S113AFD014BF00200220B071280028D100F0B9FB72
S113AFE007207071DFF868080188C1F30E01018041
S113AFF000F02BF84FF6FF70A8F80600DFF80804FD
S113B0000078022818BF0FF09DFC0822002106F1E9
S113B0101C00F9F792F9387848B90CF0CFFCDFF846
S113B0201018002008704FF6FE70FDF7BBFDDFF826
S113B0301468802200213046F9F77FF9B470357125
S113B040BDE8F0411EE0BDE8F08180B511F0B9FD26
S113B0500AF025F90DF04DF9DFF8D8170020087033
S113B06011F075F811F059FB10F051FA0CF0E0FEF4
S113B070DFF8DC0701884FF6FE721140018001BD44
S113B080B4E1002038B5DFF8A417A44CDFF8B457B6
S113B0900020C872FF202071FFF71DFE0120687098
S113B0A008220220287000214FF6FF702881A5F89D
S113B0B0440005F10A00F9F740F9FFF7A8FDE8702C
S113B0C020F08000042807D101210320FDF7F8FBBC
S113B0D004F1140009F07CFBDFF870070078BDE888
S113B0E03240002814BF02200120B9E078B80000E3
S113B0F080B5DFF8600709F06BFB00F008F8DFF8B3
S113B1002C170020C8721220BDE8024040E7DFF887
S113B1103407C078FFF7ACB8BCE10020C4FB0020C2
S113B1202DE9F041DFF80457DFF81847EF7A13F000
S113B13069FD00280FBF012690F85600400900F071
S113B1400106207910B10020E8727CE0022FDFF8BC
S113B150CC8121D12078010032D0401EDFF8EC16DA
S113B1602070C0B2097880B900291EBFDFF8E80654
S113B1700078002803D00CF021FC0220207000206D
S113B180DFF8AC160870012003E0002914BF022088
S113B1900120BDE8F04163E0A879010018BF012F48
S113B1A00ED0401EA87109F0A9FB617800F050F898
S113B1B000F0BAF80420E87260788000607042E021
S113B1C0FDF712FD052804BFA078142808D114F057
S113B1D02DFB28B10020E87214F0C7FA15200BE00B
S113B1E0FDF702FD05280AD113F046FD38B1002011
S113B1F0E87214F0C0FA1620BDE8F041C8E6FDF785
S113B200F3FC052812D1FFF702FD022818BF062817
S113B2100CD15EB118F043FC0020E872FDF786FF04
S113B220BDE8F04100210320FDF7E2BC14F0DDFF8E
S113B23010F0F0F90820E872002108F12000BDE8C0
S113B240F04109F075BABDE8F0810000400D03003B
S113B2504FF47A72514390FBF1F201FB12017047F3
S113B2602DE9F0410646DFF8B48086B008F1080005
S113B27009F0AEFADFF8B455012EEE7204D045D3CE
S113B280032E0FD006D341E000200EF08BFC40F2D9
S113B290EE2104E001200EF085FC40F2E24100F0D2
S113B2A043F837E0DFF89C6501A906F10A0016F0BF
S113B2B084F841F6583100F037F8F41C524F2078E6
S113B2C0FEF7D6FF3878042808D1DFF8901501205E
S113B2D00870962108F1140009F02AFA607830B950
S113B2E0082206F10A0105F11C00F8F7C4FF3878BA
S113B2F096F8312004280CBF01230023002000907D
S113B30006F1210101A80EF0C0FC03E040F618018B
S113B31000F006F806B0BDE8F0810000B4E10020BA
S113B3200FF25450F5F702BA08F1080009F000BA18
S113B3302DE9F041344D2878062882B003D140F637
S113B3401E01FFF7EDFFDFF8E444DFF81465DFF8D2
S113B350F4840020E07208F1020706F1080009F005
S113B36037FAFFF749F9B87818B1FFF76EFE0CF019
S113B37025FBDFF8C004007868B9F88808F10A01F1
S113B38016F0BCFA08F134010A7B8B6800924A6813
S113B390096816F051FF2878042804D1DFF8BC149A
S113B3A00020087012E002280CD1DFF8A404007811
S113B3B0C00758BF18F02EFF387819F0FBF818F0C2
S113B3C058FB03E0032808BF18F024FFFDF7AEFE86
S113B3D03878122806D10B20707106F1200009F08C
S113B3E0F7F90CE011280AD1FCF72AF90146207B71
S113B3F0884204D04FF47A72032113F01DFDBDE896
S113B400F34113F03DBC000006F7002070B5DFF8EF
S113B4101C44DFF83004E17A491E062900F10805CE
S113B4204FF6FF7651D8DFE801F025393E19500474
S113B4300C000020E0724FF6FE70DFF8281408803C
S113B44008E0DFF81C5405F1140009F0C1F9EE809E
S113B4500020E0721420BDE8704099E5C01C4178DA
S113B46011B10020E07270BD0078FEF701FFBDE865
S113B470704007E62888B0420ED0A87C022803DA80
S113B480287E202808DB01E003281ADADFF8D81325
S113B490287E0978884214D2022013E02888B0421A
S113B4A00FD1022003E0A98FB14203D10320BDE8EC
S113B4B0704035E600F144013C222846F8F7DBFEF3
S113B4C0AE870320BDE87040CAE6BDE8704040F690
S113B4D0AB010FF2A430F5F729B9D449C97A03298D
S113B4E005D1002818BFFFF723BF032018E67047D3
S113B4F038B50D4604462888FFF773FC27D02B7E09
S113B500217E05F1130204F1130018F04CFB10B175
S113B51001281EDB1BE0A17CA87C884221D128885D
S113B520C0F30900411E20888941C0F30902501E5E
S113B5308041C00FB0EBD17F15D1E868E268010209
S113B5401302090E1B0E8B4205D0994201DA012029
S113B55032BD002032BD0BB9904202D1298A228A21
S113B56091428041C00F32BD70B5154682B0044689
S113B5701E463C22F8F77FFE2846FEF70FFC0146E4
S113B5800822A01CF8F777FEB27B716B04F1190056
S113B590F8F771FEB07B84F829000020B16EF8F74B
S113B5A015FF44F82C0F0020F16EF8F70FFF6060D0
S113B5B068460FF0A1F828B170680099814238BF3D
S113B5C00FF031F87068A060B07C207373BD2DE972
S113B5D0F04F8B460BF11C0691B08046B06D019084
S113B5E0022140460BF1C004F9F780FD25680746A7
S113B5F029460020F8F7EAFE814695F806A06A7904
S113B6000198514618F008FB10B914F05BFD55E0A1
S113B61030880199ADF8080005220DF11B00F8F7F8
S113B6202AFE8DF820A078B216F0F0FC074616F03A
S113B63015FD24798246204616F010FD0546308813
S113B64080050BD189480268100007D069460BF1C8
S113B6501300904710B19DF8000003E05046A84243
S113B66088BF28468DF81A00E019ADF8180029F0B3
S113B6707F4005909DF81A0000B3724E06F1080150
S113B68002A8FFF735FF60B13C2206F1080106F17C
S113B6904400F8F7F0FD5B46424602A906F10800B3
S113B6A00AE006F1440102A8FFF722FF30B15B462D
S113B6B0424602A906F14400FFF756FF11B0BDE867
S113B6C0F08F0000ACFA002070B5044608465749D4
S113B6D0C97A032915460CD15A4E082206F10A01EB
S113B6E0F8F732FE28B9F06BA84204D1706B84429B
S113B6F005D2002070BD3CBF281A4028F9D27463DB
S113B700F563012070BD0000B0FA00204D48836B42
S113B710934201D3002070470181511C81630120B1
S113B72070470000D8E3002080B5FDF739FA4D4991
S113B730088000F00EF83D48072141710621C172CE
S113B74040F2DC514A4808F0F3FFBDE801400EF036
S113B750FFB900210520FDF74BBA7FB53348C17A04
S113B760062927D10021C17200253948414E01889C
S113B77041F4004141F00101018003200021FDF763
S113B78037FA3B4809F024F80FF02BF90CF02CFBA6
S113B7900FF0E8F904460AE03268694602EBC50096
S113B7A015F00BFE022168460EF00FFB6D1CEDB286
S113B7B0A542F1DB7FBD10B5FFF7CBFF1B48284C3A
S113B7C007214171C172FDF7EBF900F47C40E08080
S113B7D0FFF71DFA042804D1002104F1140008F035
S113B7E0A7FF0EF019FB04F10800BDE8104040F279
S113B7F0DC5108F09DBF80B50C48C17A072908D1F7
S113B8000021C172FEF7F9FEBDE80240184808F0B5
S113B810DFBF01BDDAE300200448C07A072804BF73
S113B8200A20FFF77DBC7047C2FA002030F80020E0
S113B83076FA002075FA00204CF8002000F8FF0783
S113B84064F8002074F800207EF8002078FB0020C3
S113B8500AF70020D4E10020EAFB0020ACFF00201E
S113B860B4E100209CE2002085E2002074FB00206B
S113B870BCE1002034DF00206A6F696E2E63000093
S113B88070B513F0BFF9304C90F8560000074CBF68
S113B89025780025284608F0A9F806000BD008F002
S113B8A0E1F82A46211DF8F7E6FC3046BDE8704071
S113B8B00121FBF76ABE70BD30B585B00446F9F7C7
S113B8C0CCF9451D284609F0F5F8285C072821D154
S113B8D0FDF766F94FF6FF7188421EBF1B4C2078B6
S113B8E003282ED0042818BF07282AD0184D28462C
S113B8F008F07AFE28BB2078062802D014F0E2FB78
S113B900F8B108F0FBFF00F07F00411C284608F066
S113B9100FFF16E0042814D12046FEF738FAB0F5DC
S113B920404F204605D1FEF739FA694615F045FD2A
S113B93004E0FEF74FFA694615F019FD68460EF06B
S113B94093FA05B030BD0000ACFA002006F70020E1
S113B95030E200202DE9F04794B080460121F9F748
S113B960C5FB824602214046DFF8787CF9F7BEFB2E
S113B97038704046FEF753F9072804BF97F90000D2
S113B980F7F70CFD01F059F800F00500042803D185
S113B9904046F7F700FDDDE005214046F9F7C2FB1C
S113B9A00006C00E10F0010533D0404616F0A9F988
S113B9B016F0D5FB6946404617F033FD48B3FDF752
S113B9C0EFF8BDF8041081422ED14046F9F745F94D
S113B9D081464046FEF7F6F804464046F9F755F925
S113B9E09DF80010001B461AF6B209EB040032461B
S113B9F00144F8F740FC311989B24046F9F75EF981
S113BA00BDF802104046FEF72CF901F016F801F0DB
S113BA100FF8404609F026FD10B3404609F036FD04
S113BA205FEA000813D195E09DF801000228FADBD3
S113BA30404617F01CFD4FF6FE714046FEF749F9EB
S113BA4000230022FF21404600F08BFC82E0524696
S113BA500121F9F752FB3A7802214046F9F74DFBF0
S113BA6002A9404617F0BAFC002873D00DF1130068
S113BA7010F069F800286DD1002210210DF1230087
S113BA80F8F7DAFC002865D19DF82300FF280CBFE5
S113BA90142012200121F7F772FC25B102A94046B7
S113BAA000F03FF956E0DFF8785C287850B102A83E
S113BAB000F079F830B16A6810004BD0414600209C
S113BAC0904747E09DF83800112843D102A818F0A8
S113BAD06BFF00283ED0DFF84C2CBDF84C001288D8
S113BAE090421EBFDFF8402C128890421EBFDFF840
S113BAF03C2C1288904219D10DF1230015F06CFCF6
S113BB0040B30DF12B0015F0E8FB20B90DF12B002B
S113BB1015F007FCF0B10DF1130015F05DFCC8B190
S113BB20002202A940460BF09BFC13E044F64C5162
S113BB3088420FD19DF82300FF280CBF0022424603
S113BB4002A940460CF064FD20B1404616F0D9F835
S113BB5016F005FB14B0BDE8F087F0B593B00FF212
S113BB600C64DFF8805ADFF8B86C15E00021304629
S113BB7002F03CF807466FF07F00287069463846AB
S113BB8017F02CFC20B940F209112046F4F7CEFD41
S113BB906946384600F0C5F8304601F0D9FF002860
S113BBA0E4D013B0F0BD38B5DFF8784C218801B388
S113BBB000F130052978112909D118F0F5FE30B1CA
S113BBC02088698A81421CBFA98A81420FD02878C3
S113BBD006280ED16868F8F7CCFB2188884206D085
S113BBE06868801CF8F7C5FB2188884201D10120D0
S113BBF032BD002032BD2DE9F041DFF8244B05466B
S113BC00207894B08846B0B32846FEF708F8032895
S113BC1031D008F11B0708F13406787D3A280DD19C
S113BC2030680078B074643825D02138032822D9CC
S113BC30163820D0801E01281DD911E011280FD1FB
S113BC40404618F0B1FE58B1308A44F64C5188424F
S113BC501FBF40F2222188424FF2BF0188420AD01E
S113BC606946384615F08AFB38B1FCF799FFBDF8F0
S113BC700010884201D100201AE03878FF280CD146
S113BC802846F9F742FA050011D001A917F0A6FBDE
S113BC9001A9284600F057FD03E04146284600F07C
S113BCA052FD6268100002D029460020904701200E
S113BCB014B0BDE8F0812DE9F04780460D46FDF74C
S113BCC094FF0646686BB11D471A4046F8F7DDFF3E
S113BCD00446301DF8F74DFB81464046F8F7BDFF9A
S113BCE0696B611A00EB010AE86A2838B11D8842C1
S113BCF0BFB203D040F2671100F034FA696B1FFA47
S113BD008AF2B01DF8F7B7FAE11B89B24046F8F79A
S113BD10D5FF301DA9EB0701BDE8F04789B2F8F75C
S113BD2032BB2DE9F84380468946FEF783F8064680
S113BD3048460FF033FBC8B94FF6FE75AE42DFF844
S113BD40A478DFF8B84C03D009F10B0020607E80A2
S113BD504946404600F00CF8002121607D8028B15E
S113BD604946404600F004F80028F9D1BDE8F183C3
S113BD702DE9F04F82468B4697B00BF11B0015F06E
S113BD8050FB06460BF11B0018F0A0FE814666B975
S113BD905046FDF734FF000707D50BF11B000FF0E9
S113BDA06EFAFF2818BF012500D100255046FDF783
S113BDB026FF00070BF10907DFF8284818D5002EE5
S113BDC008BF002D14D1B87CFF2811D00BF11B0142
S113BDD00BF10B0010F0BFF950B96088694615F0FB
S113BDE0C6FA53466A460021012019F045F801E1DC
S113BDF055EA06004FF6FE782AD05046FEF71AF8A8
S113BE000546454509D15046FDF7C1FFB0F5004F41
S113BE1003D15046FDF721FF0546454518D0284675
S113BE200BF012FE18B128460FF078F980B10BF12F
S113BE300B0015F0BDFA20B90BF10B0014F08FFCC8
S113BE4030B101232A460BF11301002010F010FC3D
S113BE505046FDF79CFFFF25B0F5404F504604D1F6
S113BE60FDF79CFF00F001FB09E0FDF790FFB0F542
S113BE70004F05D15046FDF7ADFFF7F7D3F905465E
S113BE8094F9001028460EF07CFF59EA06004DD0C4
S113BE900BF12C00017929293ED13978002902BF00
S113BEA0006880786D282DD15046F8F7EEFE002109
S113BEB0F8F7E9FF0028814699D05046F8F7E5FEE7
S113BEC004465046F8F7C9FE05464846F8F7C5FE4D
S113BED022462946F8F7CFF904A9484617F07EFA16
S113BEE004A94846FFF7E7FE04A9484617F076FA86
S113BEF004A94846FFF77FFE30BB04A9484600F07A
S113BF00A0F821E059465046FFF7D5FE5946504661
S113BF1017F064FA01206EE059465046FFF76BFEB5
S113BF2090B95946504600F08CF80DE0DFF8D00A7D
S113BF300078022808D17878022805DA5B46524650
S113BF400021032018F082FF00F046FB00F00100FE
S113BF5080F0010030434DD1787802284ADB0BF1A0
S113BF600B0015F039FA002844D10BF11B0015F031
S113BF7033FA00283ED1002210210BF10B00F8F710
S113BF805BFA002836D10BF11B0015F075FA88BB5B
S113BF900BF11B0015F077FA60BB0BF11B0015F0D9
S113BFA04BFA38BB7878401E78705146584617F0E3
S113BFB01FFA5046FDF72AFEB87CFF2810D14FF631
S113BFC0FF715046FDF785FE08F098FCDFF8342A2F
S113BFD0127801219140491E01EA0003022205E082
S113BFE041465046FDF775FE0023FF225946504650
S113BFF000F08DF9002017B0BDE8F08FF8B50446C5
S113C0000121F8F7D0FEDFF8185810B900222146B4
S113C01011E001212046F8F705FF06460021F8F754
S113C02032FF07000CD0F8F718FE32462146F8F725
S113C030A8FF002239462846BDE8F84001F0A5BD16
S113C040F1BDF8B50D4605F13006044637783A2FB0
S113C05013D0112F0FD17068801DF8F78AF960B9D9
S113C0602888B0F5A06F0FDD2B4622460021022060
S113C07018F0ECFEF1BD062FF2D12946204618F047
S113C080C9FB0028ECD0F1BD694605F11B0015F091
S113C09075F908B3BDF80000DFF86C190818082812
S113C0A01AD2112F5DD1DFF86419BDF800000978A8
S113C0B000F0070001F00701884252D1FCF770FD3F
S113C0C0DFF84C19098888424BD1284618F06CFCDB
S113C0D0284612F024F8F1BD062F39D0112F15D0BF
S113C0E0292F3AD03A2F3CD12888042839DB7068AC
S113C0F00078B075042170684078F075284618F00F
S113C10043FB2946204600F054F8F1BD284618F0B8
S113C1104BFC30B32046FDF782FD032804D12946A9
S113C120204617F055FFF1BDB08A44F64C518842C1
S113C13009D1E87EFF280CBF00222246294620466A
S113C1400CF066FAF1BD2946204609F0A5FEF1BDC2
S113C1502946204618F0B7FEF1BD40F2772100F0E1
S113C16001F8F1BD0FF20400F4F7E0BA64697370EA
S113C170617463682E63000070B50D460446E86B75
S113C180B0B12046F8F769FD06462046F8F77DFD74
S113C190EA6BB5F840103044801A814203D040F273
S113C1A08221FFF7DFFF2846BDE8704007F00ABF91
S113C1B070BD2DE9F041884608F13C0598B006466B
S113C1C02868002878D0A97A012956D080296FD10F
S113C1D041463046FFF7D0FF08F11B0015F021F966
S113C1E0070008D0102208F11B010DF12300F8F715
S113C1F042F8002400E008243046FDF700FDC006A4
S113C20048BF44F020043046FDF7F9FCDFF8046829
S113C2103388C006A88848BF44F02004834208D26B
S113C220C21A286892B200211844F8F786F83088B8
S113C230A880002FA888059014BF08F11B030023D1
S113C2402868049022460020039000218120029057
S113C2504020019008F10B00009006A818F0C6FBDE
S113C260040029D0FDF7D2FC00200090FF23012216
S113C27006A9204600F023F81EE000F11C056A46DA
S113C2808021284618F08BFEB0B100F0A5F9000714
S113C29012D50021284615F071F868B99DF8000000
S113C2A00123002205F1080110F0B6FA012803D198
S113C2B041463046FFF760FF18B0BDE8F081F8B59D
S113C2C004460D4616461F4618F0F6FA05F11B0003
S113C2D015F0A7F820B905F11B0015F0CDF830B121
S113C2E01EB100F0C6F80120F2BD0020F2BD36B147
S113C2F005F11B0018F0EAFB08B100F0BAF8069B40
S113C3003A462946204601B0BDE8F040FFE7F8B5BB
S113C310044601F11B0715461E46384615F08CF8F5
S113C32018B9384615F098F828B1F87B012804BFED
S113C330204607F059F9384615F0A5F818B93846DB
S113C34015F07AF810B1FF2D08BF002532462946B2
S113C350387801B0FF282046BDE8F0400CBF012327
S113C36000232DE9F0410D46FF2D92B004461646F8
S113C3701F4608BF0225FDF742FCC0074FF6FE78B2
S113C3801CD52046FDF753FCB0F5006F16D100F024
S113C3902BF9404504D02046FDF731FC80060DD52D
S113C3A00021204600F040FA00285BD0012805D186
S113C3B017220621204608F059FF2FE0002F14BF52
S113C3C0152013200121F6F7DAFF05212046F8F79E
S113C3D0A9FE00070CD46946204616F0FFFF38B1C9
S113C3E06846FFF7E0FB00F0010080F0010700E081
S113C3F001272046FDF71BFCB0F5006F03D0B0F514
S113C400406F13D029E000F0EFF8404508D1C4484C
S113C4104268100002D0214600209047012021E00C
S113C42000F0E2F80EF06EFE38420EE02046FDF712
S113C43005FC00F01AF8FF280FD0DFF8DC150968B6
S113C44011F81000400708D5002F06D0204606F04A
S113C45014FE401E8041C00F04E0324629462046A7
S113C46008F004FF12B0BDE8F081014600200EF090
S113C47049BB29462046C1E538B5044625882846E7
S113C480FDF7BDFB00F0050004283CD02846FDF76D
S113C490B6FBC00726D52846FDF7C9FBB0F5006FEB
S113C4A020D12846FDF7D9FB4FF6FE71884204D00F
S113C4B02846FDF7A4FB800614D50121284600F088
S113C4C0B3F968B101280DD1A17801F00F01C1F1D0
S113C4D006018840172110FB01F0A080BA2032BD6C
S113C4E0A92032BD2846FDF79AFB01280BD1284626
S113C4F00DF0EFFA010002D02080182032BD208810
S113C5000028FAD132BD002032BDF8B504460D46EC
S113C5106E1EB641FDF78BFB074605212046F8F752
S113C52001FEF60F00F00700032815D12046F8F7A6
S113C53094FB441D204608F0BDFA205C04284AD12F
S113C540FCF752FB032846D10EB117F02AFF284608
S113C550BDE8F24007F02FBD3EBBB7F5006F3AD1FE
S113C56000F042F8402D064615D100F035F8C0071A
S113C57011D5B0050FD12046FDF741FB0007354624
S113C58003D530460BF014FE0546284615F02EFB65
S113C590002115F0A2FA4FF6FE7086421BDABDE8C0
S113C5A0F44001210920F6F7EABEFF20B7F5404F19
S113C5B005D12046FDF742FBFFF757FF06E0B7F52C
S113C5C0004F03D100F010F8F6F72CFEBDE8F4405C
S113C5D000210EF0D6BBF1BDDFF8400400787047AF
S113C5E000000000E2E300202046FDF736BB38B52A
S113C5F00446FDF71CFB0546DFF804040078032815
S113C60018BF042805D0022812D1FFF7E5FFC007A0
S113C6100ED42046FDF7F3FA00071AD4B5F5006FDF
S113C62008D1FFF7E1FFDFF8F8130988884210D03A
S113C630002032BDB5F5406FFAD12046FDF7FEFA71
S113C6400822DFF8E013F7F77FFE401E8041C00F99
S113C65032BD012032BD2DE9F84381460E46FDF777
S113C660E6FA00250746B7F5006F03D14846FDF703
S113C670F4FA01E04FF6FE70002FDFF8AC73DFF838
S113C680AC431BBF4FF6FF7188424FF00108A84628
S113C69039786068491C081860604846FFF7A7FFAE
S113C6A058B1402E08D12078401C2070C0B2042814
S113C6B003DB0720FEF76CFC2570300006D1012552
S113C6C0B8F1000F0FD001210B2015E0312E08BF67
S113C6D00026F5D08D2EF3D1B8F1000F14BF0C2035
S113C6E00820012108E030000CBF062007200121AA
S113C6F0F6F745FE39780A20F6F741FE31464846FA
S113C70007F028F850B93146484608F0DFFD28B94B
S113C7102A4631464846BDE8F843F6E6BDE8F183CB
S113C720C4FB0020D6E30020D8E30020DAE3002095
S113C73038B504460D4609F09BFA29462046BDE863
S113C74038400022E1E6F8B50D460446687AE8B9B7
S113C750288805F13007A0F108067968E86AB2B2C2
S113C760F7F789FDE86A78602E8038786872204689
S113C770F8F78BFAA0F1080189B22046F8F79EFA7F
S113C78021462846BDE8F44016F032BEF1BD30B56E
S113C790054605F47F40B0F57C4F85B04FF6FF7435
S113C7A03BD1B5F57C4F02D113F0ABFD36E04FF62B
S113C7B01040854219DA102200216846F7F7BDFDC2
S113C7C06946E8B218F0D2FB402826DB002240215B
S113C7D0684613F0BDFF4FF6FE75A8421ED16846A9
S113C7E013F0B9FFA84219D117E04FF63042954231
S113C7F004DA05F00F0014F082F80FE04FF6384029
S113C80085420ADA82480088A04206D07F4B1B7812
S113C81003F007031A43954200D0204605B030BD0B
S113C820CEFE0020CCFE00202DE9F04196B00D464E
S113C8304FF6FF768046ADF8046002A916F0F1FDCC
S113C840A8B3BDF80C00ADF804000BF0FDF830B34C
S113C850BDF804000EF075FCF0B94046FDF7C5F9CB
S113C8609DF808100844851DBDF80A0004A914F0B9
S113C8707EFD4046F8F709FA06464046F8F7EDF91A
S113C880711B401880B200902B4604AA002101209D
S113C89018F09CFA0020AEE0BDF80C7091E0BDF8F1
S113C8A00C000BF085FC0746B742F7D1F2E75B4C6E
S113C8B05B4F207800073FD504A9404616F08EFD53
S113C8C00DF12B000EF0DBFCFF2803D00EF009FC69
S113C8D0074676E00DF12B000EF082FE28B90DF12B
S113C8E02B0013F03CFF002850D001A90DF12B00C0
S113C8F014F044FDE8B1BDF804000BF0A5F80028DD
S113C900C8D1BDF8040000F47F40B0F57C4F07D1D6
S113C910BDF80400FFF73BFFB042ADF80400B9D006
S113C920BDF804000BF044FCB04223D0BDF8047001
S113C93043E02078000704D439884046FDF7C9F95C
S113C94058E06A4680210DF12B0018F028FB0028DE
S113C95051D09DF8000001230DF102020DF13301C5
S113C9600FF05AFF022846D1BDF802000BF020FC5C
S113C970B04201D101203EE0BDF802104046FDF76F
S113C980A8F900F05AF800F053F833E00DF11B0158
S113C9900DF12B0013F057FF06464FF6FE77BE420B
S113C9A023D0FCF7FDF8864218BF374605D10DF1B8
S113C9B01B000EF0E5FE002817D000F03EF800F052
S113C9C037F800F03AF8800610D54046FDF745F9EF
S113C9D03946884208BF002D08D1BDF8040015F07F
S113C9E0D5F801211E20F6F7CAFC53E73946404624
S113C9F0FDF737F9022016B0BDE8F081CCFB00202A
S113CA0006F70020F7E30020D003FFFF62F70020C1
S113CA1066F70020E6E300202CDF00200AF7002060
S113CA20BAE100204CF80020A3FF0020D0FB002036
S113CA3040F008014046FDF7E5B84046FDF7DFB891
S113CA4010B5DFF8004BDFF8003B2488001B06E03C
S113CA5010B5DFF8F84ADFF8F03A24681B1B03EB43
S113CA604000002304E030F8134021F813405B1C1D
S113CA709342F8DB002010BD2DE9F04182B004465A
S113CA800D4616460027DFF8C08A01E0BF1CFFB23E
S113CA90B74217DAE819E95D4078DFF8A83A1B884D
S113CAA001EB0020ADF80000012207EBD77004EB86
S113CAB06000C01A00F09DFB0100E7D0F6F712FCFD
S113CAC0002000E00120BDE8F681F8B504460F46D9
S113CAD0154600260DE000F019F8BDF8000004EB3F
S113CAE04601000A48707F1CBDF8000004F81600D7
S113CAF0761CB6EB550FEEDBE80706D500F006F81A
S113CB00BDF80000611901F8010CF1BD012269466C
S113CB10B8B295E7DFF82C2ADFF82C1A1288801AAD
S113CB2001EB40010220FBF701BDDFF8241ADFF816
S113CB30242A095C125CDFF8203A185C10B102F573
S113CB40997292B241EAC21080B27047DFF8003A9B
S113CB50DFF8082A1B5C012B1CBF32F810000818F0
S113CB6002EB4000704738B50C46DFF8F4190D7835
S113CB702A462146FFF764FF208801001CBF4FF6B8
S113CB80FF7188420BD0012000E0401CC1B2A942D1
S113CB9007D2C0B234F8101022889142F5D0002098
S113CBA032BD012032BDF0B5DFF8A01987B00860AE
S113CBB00C2269460020FFF74BFFBDF81600BDF8B4
S113CBC00C200346040A012000254FF6FF763DF8A9
S113CBD01570BDF80010B94203D1B74218BF002F39
S113CBE000D100206D1C062DF1DBB21A914218BF52
S113CBF00020DBB2C4F1FF018B4218BF002007B054
S113CC00F0BD2DE9F24F0446DFF85869002030707A
S113CC1070809CB0DFF850090088ADF8020007A9C5
S113CC20FFF7A1FF83460120707009A9DFF83C09D2
S113CC300588DFF83C09B0F80080DFF808090788A8
S113CC40BDF802A03846FFF78EFFB8B1BBF1000F64
S113CC503DD0BDF81C10BDF824004FF6FE72914281
S113CC6002D1012804D10CE0012908BF90422ED042
S113CC700846BDF82410884229D202E0BBF1000F17
S113CC8024D000207070029750460695CDF810808D
S113CC900122DFF8CC1891F800804044ADF806007A
S113CCA06946BDF80600FFF7CBFEDFF8C808008828
S113CCB005904FF6FF79BDF80000000B404518BF02
S113CCC00F2801D1200021D0002516E0012470781E
S113CCD00028D8D03846CDF808A0CDF8188004959F
S113CCE0D6E7059805FB00F4E01900F051FCBDF807
S113CCF00200201800F04CFC6D1C4545F1DB0120BE
S113CD0030704D20F6F7EEFA0025F7E0BDF8065036
S113CD10012201A92846FFF793FEBDF80400C04391
S113CD2000F0FF00ADF804006F1CDFF84C08058824
S113CD30BDF80400A84218BF01244FF0000A20E007
S113CD40401CC1B2A94218D2C0B2DFF83018BDF8F5
S113CD500E20834631F81B109142F1D1FFF7E5FE16
S113CD604FF680710840BDF80C104FF680721140E8
S113CD70884204BF1C9800F80BA00AF101001FFAB6
S113CD8080FABDF80400824507DA022203A9B8B28A
S113CD90FFF756FEBF1C0020D3E7002001E0401C33
S113CDA080B2A84217DA1C99095C8142F7D00124A9
S113CDB011E02AF81070BDF8060000EB4300401C97
S113CDC000F0DAFABDF80200C0F3C710401C00EB13
S113CDD0D07007EB60070498DFF880A7BFB28742E2
S113CDE00EDA00F099F8BDF80000484508D0030AAF
S113CDF000F07F01BDF804007F1C834202DB0124A4
S113CE0000252DE0002000E0401CA842D3DA1C9A43
S113CE10125C9A42F8D1C0B2FF28CCD0DFF8302798
S113CE20125C7F290CBF4FF0000C8C4694450BDA42
S113CE30BDF800C0DFF820E71EF800E04FEA0C6CF4
S113CE404FEADC7CF44501D00124B4E7012AB0D0D8
S113CE507F293AF8100008BF00210818A9E76D1CC3
S113CE60DFF81C070088854204DA3AF815004845C3
S113CE70F5D1012477800498BFB2874207DA00F025
S113CE804BF8BDF800007F1C4845F4D039E7002C6E
S113CE90FCD1029801220BA980B2FFF7D1FDBDF8A5
S113CEA02C0048450DD105E0401C80B2202813DB3E
S113CEB02034A4B20699029A891A8C4205DB012017
S113CEC0307000201DB0BDE8F08FA51820220BA9FA
S113CED0A8B2FFF7B5FD00200BA931F810104945A1
S113CEE0E2D0A8B2FFF716FE203CA4B2E0E7029815
S113CEF0059905FB010000F04BFB6D1C4545F6DB75
S113CF0001203070494600F046F818B100F035F9B8
S113CF100028D6D10120D5E70122694638468FE59D
S113CF202DE9F0420F46DFF85016DFF8285609883D
S113CF308F420446164699460CD2DFF81416C95D92
S113CF4030467F2808BF0020884203DAE95D89451E
S113CF5000D11CB940F2D54100F00AFA31463846F6
S113CF60FFF7F4FD0188DFF8F005C05D60B13846D5
S113CF7000F02BFAE95D012908BF207009D00229CD
S113CF8014BF2060208004E04A462046BDE8F042F9
S113CF909BE5BDE8F0822DE9F34FDFF8A805DFF843
S113CFA0C0150488DFF8BC050978407883B00028F0
S113CFB01ABFDFF8B405008820460D18DFF8B8055D
S113CFC00088ADF80800ADB2C04300F0FF0000EBEC
S113CFD0013000F55060ADF802002B1BDFF8680546
S113CFE001220DF1020100F0D7FA6E1C0100B6B265
S113CFF03AD10025DFF8847513E0E8B2FFF795FD18
S113D000ADF80400331B37F81500ADF80600022212
S113D010DFF8340500F0BFFA010025D1B61CB6B222
S113D0206D1CBDF808008542E7DB002500E06D1C9F
S113D030BDF80800854280F29B80DFF81C05405D46
S113D0408DF80A004FF0000A1BE001220DF10201E5
S113D0501FFA89F0FFF7F4FCBB19DFF8EC0400F0C9
S113D06091F9010009F101097AD17F1CFFB2B7EBF4
S113D0701B6FEADBDFF80C05405D3618B6B20AF127
S113D080010ADFF8CC04475D5FFA8AF0B842CED2D9
S113D0905FFA8AF1E8B2FFF759FD80469DF80A006D
S113D0A0B8F80090C00140EA0520ADF80000012F57
S113D0B0BDF800000EBF40F07F005FFA8AFA4AEA2A
S113D0C00000ADF80000311BDFF87C0400EB4100E8
S113D0D04FF6FF71771C89451EBFBDF80010BDF8DF
S113D0E010209142BFB219D19DF80C100029C6D06E
S113D0F001226946FBF756FA01003E4630D1DFF8BB
S113D1005404A8F80060425DDFF87C0450F8251050
S113D1103046FFF7B1FC0028ACD124E0DFF834142A
S113D120495D491C01EBD1714FEAC15B012269469B
S113D130FBF738FA01003E4612D1A8F800609DF8CA
S113D1400A0098B14946E8B200F03FF90190331B58
S113D150DFF8F4034FEA1B6200F01DFA010089D0E6
S113D160F6F7C0F8002005B0BDE8F08F00277DE792
S113D170DFF8F00346800120F5E7DFF8EC032DE942
S113D180F0410688DFF8BC03DFF8D85304886878D8
S113D190DFF8B483002882B012BF2046304626460A
S113D1A001226946FFF74CFCBDF8000001280CBFC2
S113D1B04FF6FE70401EADF80000DFF8A4030778B8
S113D1C03846471E80B258B116FA87F0001B012278
S113D1D000F00FF80100F3D0F6F784F8002006E021
S113D1E0687880F001006870002028700120BDE894
S113D1F0F681694608EB4000FBF7D4B92DE9FE4FF0
S113D2000D46DFF8741309888842044617461E4603
S113D2104FF000094FF001080CD2CD49095D3846A2
S113D2207F2808BF0020884204DACA49095D8E427B
S113D23000D11DB940F2F95100F09AF83946204660
S113D240FFF784FC0190C74F787820B1C748B0F845
S113D25000A0BC4803E0C648B0F800A0C248397832
S113D260008849B97988081AC84909888842B4BF2E
S113D27043204420F6F736F801980188B648005D4B
S113D280F8B1204600F0A1F8012E08BF297803D098
S113D290022E0CBF29882968814267D00198008832
S113D2A0401E00F069F8B748065D7888AAF10101CC
S113D2B0891B814201DB002837D1387868BB4520BF
S113D2C046E00291CB4622E002980BEBDB7300EBC5
S113D2D0630000F0F3F805EB0B0015F80B10407831
S113D2E001EB0020711E8B4580B207D1BDF8001000
S113D2F001F0FF0100F0FF00ADF80010BDF80010D0
S113D30088420BF1020018BFC8465FFA80FBB345A0
S113D310DADBB8F1000FC1D028E0BDF8021000201C
S113D320FFF739FE10B34FF0010978888949401C92
S113D330788080B20A5D2946FFF79EFBB0B1814C2C
S113D3407B88248880485B1E00F01CF8010002D012
S113D350F5F7C8FF0AE0B9F1000F02D0FFF70DFF9F
S113D36020B101997888088080197880BDE8F78F0A
S113D3700FF22C20F3F7DAB901220DF1020180B289
S113D380FFF75EBB1B1B01220DF1020100EB430002
S113D390FBF708B970B582B00446002519260122AE
S113D3A06946A0B2FFF74CFBBDF80000641C20B135
S113D3B04FF6FF71884203D004E06D1C761EEED157
S113D3C068B276BDE84340B276BD38B50C4600215C
S113D3D0009160490D5C2A4621466846FFF775FBBB
S113D3E0681C00EBD07004EB600080B2FFF7D2FF42
S113D3F00028009948BFC04341FA80F032BDF0B51F
S113D4005D4909880446554883B0264630F81650CD
S113D4108C4202D25048805D18B940F23D71FFF74A
S113D420A7FF4C48865D701C00EBD07005EB6007CD
S113D430B8B2FFF7AFFF19280FD210FA87F0414FA7
S113D440414B3F880021ADF80410C01B012201A903
S113D45003EB4000FBF7A6F860B129462046FFF72E
S113D460B4FF00903346401C00907F22694620465A
S113D470FFF7C4FEF7BD70B53A48017882B00024C6
S113D480D1B94078002814BF37482E48058834485D
S113D49006780CE0284650FA86F000F00FF8BDF844
S113D4A0000000281EBF4FF6FF718842641C3046FE
S113D4B0461EC0B20028EDD1E0B276BD0122694615
S113D4C080B2FFF7BDBAF8B5264C207800270028B3
S113D4D035D11C480588607800281ABF2248068880
S113D4E02E461F4807783846471EC0B202281FDB65
S113D4F0304650FA87F0FFF7E1FFBDF8000000283E
S113D500F1D01C480088FFB207FB006000F040F82F
S113D5100020ADF80000BB190B485B1B01226946D3
S113D52000F03AF8010018BFF5F7DCFE3846F2BD0A
S113D5303046FFF7EFFAF8B208B901202070F8B2CC
S113D540F2BD00000489030000E0070084FA002013
S113D55034790300247903001479030084F0002053
S113D56027890300C4FE00200889030006890300FC
S113D5700A890300028903000E890300F878030076
S113D58010890300C05A0300447C03000C89030083
S113D59080B2FFF7BFBA01A900EB4300FBF702B862
S113D5A073696D2D656570726F6D2D696E7465722A
S113D5B06E616C2E630000002DE9F04F85B080464B
S113D5C00E22FF216846F6F7B8FEDFF8A8A0422233
S113D5D0FF215046F6F7B1FE0E250027264CDFF852
S113D5E09C90274EF05D19F807B0E15D401C00EBFC
S113D5F0D070401001B11930401C00FB0BF22148DF
S113D60030F81710204892B2F4F73DFBBBF1010F3C
S113D6101CBF2AF817505D447F1C0E2FE2DB1B4809
S113D6200E2340F21C4240F28B21F4F72CFB4FF402
S113D630E040FFF7B8FA164D18B19D212846F3F7DC
S113D64075F84FF48040FFF7AEFA18B19F212846D1
S113D650F3F76CF84FF48050FFF7A5FA18B1A12145
S113D6602846F3F763F869464046FFF7CAFA05B05F
S113D670BDE8F08F84F000201479030034790300AE
S113D68024790300F8780300745A0300905A0300C5
S113D690645A030072B61EF0080F08D01EF0040F7F
S113D6A00BD0DFF848E0AEE8FF1F11480AE0DFF8CE
S113D6B03CE0AEE8FF1F0F4804E0DFF830E0AEE8DE
S113D6C0FF1F0D486946EFF309828EE8070086467E
S113D6D00A480B4C854501D3A54501D384F308883A
S113D6E0F3F73CF884F30888F4F740FC04000020C6
S113D6F0FDFFFFFFF1FFFFFFF9FFFFFF90CD0020CB
S113D70028DC002080B500F00CF82249224A096880
S113D710C1F30821491CB0FBF1F0106002BD1F48A1
S113D72070471F48016801F00701022909D00AD394
S113D730042901D002D306E01A4905E04FF4004160
S113D74003E0194900E019490968C06EC0F30420D8
S113D750401CB1FBF0F07047134800687047124951
S113D76008600F48006800F00700022808BFFFF7B0
S113D770C9BF70470E48016841F4700101607047E9
S113D7804FF4004070474FF47A70704705480068C2
S113D7907047000008410E40D4DF002000F0490229
S113D7A094400E40D0DF0020CCDF0020D8DF0020E2
S113D7B088ED00E0890001EB401000F18440026034
S113D7C0704700F1806300F1C06019600260704727
S113D7D03023464A584310440C3000F1806006E080
S113D7E03023424A584310440C3000F1C0600122F7
S113D7F002FA01F1016070473D490A68920840EA63
S113D8008200086070472DE9F04101F003081446D6
S113D81003270F21082C1D460CD2A60000FA06F29D
S113D820B1403448FFF7CDFF08FA06F207FA06F1D3
S113D83031480DE0A4F10802960000FA06F2B14066
S113D8402E48FFF7BEFF08FA06F207FA06F12C4845
S113D850FFF7B7FF2A4621462A482B4DFFF7AAFFB8
S113D860069A21462846FFF7A5FF0120A04028611B
S113D8702146079A2548BDE8F0419BE7F8B50446E0
S113D880164630000D461F4607D0002F204602D012
S113D890FFF7A6FF01E0FFF79BFF30210F2213489B
S113D8A011FB04F1082D084405D2AB00416800F0D7
S113D8B015F8416006E0A5F108039B00816800F0BB
S113D8C00DF881604EB9002F2946204602D0BDE8EC
S113D8D0F44085E7BDE8F4407AE7F1BD9A4021EAD7
S113D8E0020206FA03F111437047000000A0004051
S113D8F044A4004000A4004008A4004004A4004044
S113D9000CA4004010A4004014A4004028A400402B
S113D91010B5DFF85411DFF85441E16103202061B0
S113D9206061102121620021DFF84401A061A1623D
S113D93020666162E16221670422DFF838016066D3
S113D9401020A066E1666167E01D29A1F4F7FAFCE6
S113D9500722DFF824112046F4F704FD2020A071EB
S113D96010BD2DE9F843DFF804710646387889467E
S113D970904608B9FFF7CCFF18207043384400F1F3
S113D980600600253769F468BC4212D2B068C51B32
S113D9907068454588BF4546C1192A464846F4F78C
S113D9A0D1FCB068EF198742A944A8EB050808BF69
S113D9B00027E41B444588BF44463CB17068C11944
S113D9C022464846F4F7BEFC6519E71905B13761EC
S113D9D02846BDE8F283F8B504460D461646F4F72A
S113D9E005FF0746324629462046FFF7BAFF01E005
S113D9F05254540004463846F4F735FF2046F2BD2D
S113DA002DE9F84300F027F808B9FFF781FFF4F790
S113DA10EDFE79690026182202FB06F3FB185B6E03
S113DA2013B1761C8E42F7DB8E420CDA02FB06F150
S113DA30791800220C664D66C1F868800A67CA66C8
S113DA40C1F8749001E04FF0FF36FFE7F4F70BFFE5
S113DA503046BDE8F283054F044638780D469046BB
S113DA609946704754E7000064F0002000E4002069
S113DA702C5A030074F00020385A03000A460902A5
S113DA8041EA12214840C0F30311484080EA0030C3
S113DA9041010206C9B2D20E41EA0221484080B2D5
S113DAA07047000062F30F2262F31F42401810F027
S113DAB0030308D0C91A1FD3DB0748BF00F8012DA0
S113DAC028BF20F8022D130030B41446154610392F
S113DAD028BF20E93C00FAD8490728BF20E90C00F8
S113DAE048BF40F8042D890028BF20F8022D48BF04
S113DAF000F8012D30BC7047C91818BF00F8012D7B
S113DB00CB0728BF00F8012D70470000820707D01B
S113DB1010F8012B11F8013BBAB19A42F6D014E087
S113DB2002680B689A42A2F1013301BF934313F0D8
S113DB30803F50F8042F51F8043FF3D010F8012B24
S113DB4011F8013B0AB19A42F8D0D01A704700008C
S113DB500188481E8041C00F704738B5044600252F
S113DB6054B1002100F009F803E0204600F034F835
S113DB706D1C0100F9D1A8B232BD008802001CBF9F
S113DB80C9B2F7F710B9002070472DE9F0410446F7
S113DB900D4627883800164608BFA84608D0F1B2BB
S113DBA0F7F701F980462A46F1B23846F7F712F939
S113DBB0424600F003F82580BDE8F081F1B2284622
S113DBC0F7F708B938B5044600222588FFF7DDFFCA
S113DBD0280018BF258031BD008881420A4601D142
S113DBE00020704700211046F7F7DDB8F8B5044669
S113DBF00D462688300001D10020F2BDC9B2F7F7E6
S113DC00D2F8B042074602D10020208007E0E9B2F2
S113DC10F7F7C9F80246E9B23046F7F7DBF82A46C7
S113DC2000213846F7F7D6F83846F2BD2DE9F84317
S113DC3004468846278816460FB9002026E03D464C
S113DC402846F7F722F8814605E00546F7F71DF860
S113DC5048441FFA80F9F1B22846F7F7A4F8404582
S113DC6011D1F1B2F7F79FF80246FFF7A7FF474536
S113DC7003D1BD4208BF002525800022F1B24046F1
S113DC80F7F7A8F801E0B842DFD14846BDE8F283CF
S113DC902DE9F8430D46044690462F4605E04146DB
S113DCA02046FFF7A3FFBF1BBFB28FB1208878B116
S113DCB041462046FFF761FF8146F6F7E6FF064638
S113DCC0B742ECDAF11B89B24846F7F742F800276D
S113DCD0E81B80B2BDE8F2832DE9F0470C460788C3
S113DCE0200092461E46B84623D00FF26C193FB965
S113DCF0C92102E0B84503D1D6214846F2F716FD02
S113DD00F1B24046F7F74FF88046F6F7BEFF0546F6
S113DD10A1B28D4288BF0D464046F6F79EFF0146EC
S113DD202A465046F6F7A7FA641BA0B20028AA4474
S113DD30E0D1BDE8F08770B504462588280008D0F6
S113DD400121F7F730F8064600220121FFF737FFDB
S113DD50268070BD2DE9F84F0D46044690461F46B7
S113DD600021FFF70AFF8146002603E0494600F040
S113DD7045F881465FEA090019D0F6F76EFF83463D
S113DD804846F6F782FF0BEB000A02E06088834402
S113DD90761CD3453EBFA188B0B28842E6D2414644
S113DDA05846A8470028F1D007B13E805846BDE840
S113DDB0F28F70B504460D46A08801001CD0401EA9
S113DDC0A84219DB00212046FFF7D7FE06466088EB
S113DDD015FB00F504E02D1A314600F00FF8064655
S113DDE0300009D0F6F751FFADB28542F3DA304680
S113DDF0F6F733FF284470BD002070BD2046EBE6E3
S113DE0070B504460D46E088010009D0401EE0804C
S113DE102046A188491CA180491EBDE87040C8E77E
S113DE20608810FB05F0002180B2F7F72CF806009B
S113DE3001D1002070BD002231462046FFF7A5FE27
S113DE40A088401CA080681EE0803046BDE8704079
S113DE50F6F703BF000000006275666665722D71F7
S113DE60756575652E6300003023DFF8E82B584391
S113DE7010440C3000F1806007E03023DFF8D42B2D
S113DE80584310440C3000F1C060012202FA01F141
S113DE90016070471CB500931346049C01940A4624
S113DEA0FFF7B1FC13BD1930017E02290FD10278AE
S113DEB0DFF8A01B007930235A4311441C31800041
S113DEC000EB411000F184400068C0B270470020AC
S113DED0704738B50022DFF8803B53F822104C7F9E
S113DEE0844203D0521C042AF7D331BD21B301F17B
S113DEF02E04E07802281FD10D1D0846FFF7D3FF3A
S113DF002874687C022804BF2078002814D100F00B
S113DF102AFF17F044F9297C09B1617829B100205E
S113DF206070286817F00AF931BD28B99DF800001F
S113DF3010B1286817F0F4F831BD10B5044604F1A7
S113DF40140082B0417F022910D141780A0003D025
S113DF50012906D0017821B9817A8079FFF784FFFD
S113DF6018E0817A8079FFF788FF13E0012911D145
S113DF70007800280CBF112013208DF800002046E3
S113DF8001F001F901226946204601F078F82046A3
S113DF9001F03EF9002016BD2DE9F0410446884603
S113DFA01646F4F723FC0546A088E188884207D387
S113DFB0002030602846F4F756FCDFF8A00A1CE085
S113DFC02088142778432044142241460830F4F76B
S113DFD0B9F9208878432044083030602088E188EB
S113DFE0401C90FBF1F201FB12002080A088401C31
S113DFF0A0802846F4F737FC0020BDE8F08138B54E
S113E00004460D46F4F7F2FBA18809B9296024E01F
S113E0106188142251432144083129606188E288CF
S113E020491C91FBF2F302FB13116180A188491E84
S113E030A1800EE038B505460C46F4F7D7FBA98855
S113E04009B9216009E0698814225143294408313F
S113E0502160F4F708FC002032BDF4F704FCDFF87B
S113E060000A32BD90F832100A000BD10268012177
S113E070D16000680169C907FCD5416F41F0010115
S113E0804167704701290ED10168496C8907FBD4A7
S113E09002680121516000688168C907FCD5416D9F
S113E0A041F001014165704790F832100A0008D12F
S113E0B001684A6F520852004A6702210068C16031
S113E0C0704701290CD10168496C8907FBD40168A8
S113E0D0496D0268490849005165022100684160A0
S113E0E0704710B500F12C0286B0012313709379A8
S113E0F01C0013D10268049002F11C030FF2710298
S113E1000392002202924A680192012200920A6854
S113E1100169806816F0E9FF06B010BD012BE9D053
S113E12000201070F8E710B500F12D0286B001232D
S113E130137053791C0012D1026834320FF21D138C
S113E14003930490002302934B68019301230093EB
S113E1500B68C168406816F0C2FF06B010BD012B01
S113E16002D102682832E9E700201070F5E70000C8
S113E170F8B514466946606AFFF75CFFDFF8E018FB
S113E180884262D004F12C05DFF8DC18A87902007B
S113E19008D12268126C920504D500F058F84FF4A7
S113E1A0007015E00246012A07D12368DB6A1B06CA
S113E1B003D500F04CF8802016E0DFF8B01850B911
S113E1C02068006CC00506D500F041F84FF480705B
S113E1D0216888640DE0012A09D12068C06A4006DC
S113E1E005D500F034F840202168486301E000F0D0
S113E1F062F8F4F7FBFA06460098C768380009D0BD
S113E2000098009940688968431A00980268016977
S113E2102046B847606A6946FFF7F1FE606A818864
S113E22021B100F085FE00F0E5FF0CE0012020752F
S113E2302046FFF782FE00202870687903281CBF5F
S113E2402046FFF731FF01F025F80120F2BD0098C8
S113E250016100200099886070470000F8B51446F9
S113E26004F1280569462868FFF7E4FEDFF8001882
S113E27088421ED000F01FF8F4F7B8FA064600985A
S113E280C768380005D0009843680268002120461A
S113E290B84728686946FFF7B2FE2868818821B12B
S113E2A000F046FE00F0F1FF01E00020687100F08C
S113E2B0F1FF0120F2BD00990020086100998860F7
S113E2C0704710B9DFF814097047002918BF002AF5
S113E2D002D0B2F5006F02D9DFF8040970470020BC
S113E2E0704710B50368DFF8FC48FF22A34240F0F2
S113E2F060810B7A1C0018BF012B07D0022B18BFBA
S113E300032B03D0042B18BF052B01D100233AE0C3
S113E310062B18BF072B04D0082B1CBF092B0A2B74
S113E32001D101232FE00B2B18BF0C2B07D00D2B91
S113E33018BF0E2B03D00F2B18BF102B01D10223B3
S113E34021E0112B18BF122B08D0132B18BF142B4C
S113E35004D0152B1CBF162B172B01D1032312E05D
S113E360182B18BF192B0BD01A2B18BF1B2B07D037
S113E3701C2B18BF1D2B03D01E2B18BF1F2B01D124
S113E380052300E0FF23C3754B7A1C0018BF012B43
S113E39040D0022B1CBF032B042B3BD0052B18BFF2
S113E3A0062B04D0072B1CBF082B092B01D10123FA
S113E3B033E00A2B18BF0B2B07D00C2B18BF0D2BE7
S113E3C003D00E2B18BF0F2B01D1022325E0102BF5
S113E3D018BF112B08D0122B18BF132B04D0142BE9
S113E3E01CBF152B162B01D1032316E0172B18BFC6
S113E3F0182B0BD0192B18BF1A2B07D01B2B18BFA7
S113E4001C2B03D01D2B18BF1E2B01D1052304E0A8
S113E4101F2B01D1002300E0FF2303760B7A1C009D
S113E4203ED0012B18BF022B59D0032B1CBF042B49
S113E430052B54D0062B1FD0072B21D0082B23D01B
S113E440092B25D00A2B27D00B2B41D00C2B43D0E2
S113E4500D2B08BF082342D00E2B05D00F2B07D05D
S113E460102B09D0112B01D1092338E0122B01D133
S113E4700A2334E0132B01D10B2330E0142B01D1F8
S113E4800C232CE0152B01D10D2328E0162B01D1F0
S113E4900E2324E0172B01D10F2320E0182B01D1E8
S113E4A000231CE0192B08BF012318D01A2B08BF26
S113E4B0022314D01B2B08BF032310D01C2B08BF2E
S113E4C004230CD01D2B08BF052308D01E2B01D11B
S113E4D0062304E01F2B01D1072300E0FF23C376AA
S113E4E04B7A1C003FD0012B41D0022B43D0032B8D
S113E4F045D0042B47D0052B1FD0062B21D0072B4A
S113E50023D0082B25D0092B27D00A2B3FD00B2B47
S113E51041D00C2B08BF082242D00D2B05D00E2B66
S113E52007D00F2B09D0102B01D1092238E0112B71
S113E53001D10A2234E0122B01D10B2230E0132B3B
S113E54001D10C222CE0142B01D10D2228E0152B33
S113E55001D10E2224E0162B01D10F2220E0172B2B
S113E5601DD0182B01D101221AE0192B01D102224E
S113E57016E01A2B01D1032212E01B2B01D1042235
S113E5800EE01C2B01D105220AE01D2B01D106222D
S113E59006E01E2B01D1072202E01F2B00D100222E
S113E5A002774A7C42768A7C4277CA7C8276097DED
S113E5B060E2DFF8BC47A34240F04B810B7A1C00B9
S113E5C018BF012B07D0022B18BF032B03D0042B39
S113E5D018BF052B01D100233AE0062B18BF072BE7
S113E5E004D0082B1CBF092B0A2B01D101232FE0D7
S113E5F00B2B18BF0C2B07D00D2B18BF0E2B03D0E1
S113E6000F2B18BF102B01D1022321E0112B18BFAF
S113E610122B08D0132B18BF142B04D0152B1CBF9E
S113E620162B172B01D1032312E0182B18BF192B1B
S113E6300BD01A2B18BF1B2B07D01C2B18BF1D2B5C
S113E64003D01E2B18BF1F2B01D1052300E0FF238D
S113E650C3754B7A1C0018BF012B40D0022B1CBF82
S113E660032B042B3BD0052B18BF062B04D0072B00
S113E6701CBF082B092B01D1012333E00A2B18BF3F
S113E6800B2B07D00C2B18BF0D2B03D00E2B18BF50
S113E6900F2B01D1022325E0102B18BF112B08D01A
S113E6A0122B18BF132B04D0142B1CBF152B162BA5
S113E6B001D1032316E0172B18BF182B0BD0192BED
S113E6C018BF1A2B07D01B2B18BF1C2B03D01D2BD4
S113E6D018BF1E2B01D1052304E01F2B01D10023F9
S113E6E000E0FF2303760B7A1C003ED0012B18BFF9
S113E6F0022B59D0032B1CBF042B052B54D0062B03
S113E7001FD0072B21D0082B23D0092B25D00A2B6F
S113E71027D00B2B41D00C2B43D00D2B08BF082343
S113E72042D00E2B05D00F2B07D0102B09D0112B64
S113E73001D1092338E0122B01D10A2334E0132B31
S113E74001D10B2330E0142B01D10C232CE0152B29
S113E75001D10D2328E0162B01D10E2324E0172B21
S113E76001D10F2320E0182B01D100231CE0192B29
S113E77008BF012318D01A2B08BF022314D01B2B67
S113E78008BF032310D01C2B08BF04230CD01D2B5F
S113E79008BF052308D01E2B01D1062304E01F2B3C
S113E7A001D1072300E0FF23C3764B7A1C0038D045
S113E7B0012B39D0022B3AD0032B3BD0042B3CD075
S113E7C0052B1DD0062B1ED0072B1FD0082B20D0C5
S113E7D0092B21D00A2B33D00B2B34D00C2B08BFA0
S113E7E008223FF4DDAE0D2B04D00E2B05D00F2BE9
S113E7F006D0102B3FF499AE112B3FF49AAE122B96
S113E8003FF49BAE132B3FF49CAE142B3FF49DAE10
S113E810152B3FF49EAE162B3FF49FAE172B17D04B
S113E820182B3FF4A0AE192B3FF4A1AE1A2B3FF4E2
S113E830A2AE1B2B3FF4A3AE1C2B3FF4A4AE1D2BA6
S113E8403FF4A5AE1E2B3FF4A6AE1F2B7FF4A8AE5B
S113E850A5E6DFF8F447A34240F0FB800B7A1C00E6
S113E86008BF002328D0012B18BF022B23D0032B71
S113E87018BF042B1FD0052B18BF062B1BD0072B4A
S113E88018BF082B17D0092B18BF0A2B13D00B2B3A
S113E8901CBF0C2B0D2B0ED00E2B18BF0F2B08D02A
S113E8A0102B18BF112B04D0122B1CBF132B142BAD
S113E8B001D1052300E0FF23C3754B7A1C0018BF68
S113E8C0012B3CD0022B18BF032B38D0042B18BFCC
S113E8D0052B34D0062B18BF072B30D0082B18BFBC
S113E8E0092B2CD00A2B1CBF0B2B0C2B27D00D2B48
S113E8F018BF0E2B08D00F2B18BF102B04D0112BD0
S113E9001CBF122B132B01D1052319E0142B18BFA4
S113E910152B14D0162B18BF172B10D0182B18BF7B
S113E920192B0CD01A2B18BF1B2B08D01C2B1CBF67
S113E9301D2B1E2B03D01F2B08BF002300D0FF2349
S113E94003760B7A1C002AD0012B18BF022B30D07F
S113E950032B18BF042B2CD0052B18BF062B28D053
S113E960072B18BF082B24D0092B18BF0A2B20D043
S113E9700B2B1CBF0C2B0D2B1BD00E2B08BF002305
S113E98018D00F2B08BF012314D0102B08BF03236A
S113E99010D0112B08BF04230CD0122B01D1052356
S113E9A008E0132B08BF062304D0142B08BF072349
S113E9B000D0FF23C3764B7A1C0018BF012B42D032
S113E9C0022B18BF032B3ED0042B18BF052B3AD0C3
S113E9D0062B18BF072B36D0082B18BF092B32D0B3
S113E9E00A2B1CBF0B2B0C2B2DD00D2B08BF002288
S113E9F029D00E2B08BF012225D00F2B08BF0322DC
S113EA0021D0102B08BF04221DD0112B20D0122B93
S113EA1008BF062217D0132B08BF072213D0142BCC
S113EA2018BF152B0FD0162B18BF172B0BD0182B74
S113EA3018BF192B07D01A2B18BF1B2B03D01C2B64
S113EA401CBF1D2B1E2B3FF4ABAD1F2B7FF4A8ADB9
S113EA5099E507E000A0004094F500200A7000F05A
S113EA600B7000F05E4810BD0D7000F00C7000F0EB
S113EA700B7000F08177002010BD10B500F1170471
S113EA8082B00A00217920781DD001230422FEF7E8
S113EA90F5FE6179607801230222FEF7EFFEA07E85
S113EAA0022809D100F034F8E179E0780023042247
S113EAB0FEF7E4FE012017E0032827D100F028F830
S113EAC0002304221EE00023FEF7D8FE617960785B
S113EAD000F026F8A07E02280ED100F01FF8E1799C
S113EAE0E07800F01DF80020009001230122A179B4
S113EAF0A078FFF7CFF909E0032807D100F00EF85A
S113EB0000230022E179E078FEF7B8FE002016BD6C
S113EB10A179A07800230122FEF7B0BEA179A078E4
S113EB2000230022FEF7AABE10B5DFF88427DFF821
S113EB30841713783BB9002441F823405B1C042B51
S113EB40FAD301231370002251F82230002B18BF8E
S113EB50834203D141F82200002010BD521C042A34
S113EB60F2D3DFF8540710BD40F8241F00210368D6
S113EB70198003685980036899800172426011808A
S113EB8042685180426891804172C172704710B5E9
S113EB90044616F032FC607FDFF8201716F03BFCC9
S113EBA00020A0752075022060752046BDE8104045
S113EBB0FFF7C3B938B5044616F068FA0021201DE2
S113EBC016F004FADFF8F85628B9002104F1080019
S113EBD016F0FCF900B1284632BD0000027000F0C6
S113EBE0037000F000000140F0B587B004460D4604
S113EBF06846DFF8D0161C22F3F7B4FB14B9DFF82B
S113EC00B806AAE0002D6BD034212046FAF726FB83
S113EC102046FFF789FF0700F3D104F13100297C76
S113EC20017029682160002141702868DFF8981676
S113EC3088423CD1DFF894062062DFF89406E06055
S113EC404FF440202061EA69A9692046FFF78CFF50
S113EC506868029001216889ADF81000A889ADF8B0
S113EC600E00A87B8DF80C00E87B8DF812000520BF
S113EC708DF80D00DFF85C06F4F76EFC00F081F807
S113EC80206A0121F4F768FC00F06CF800F06DFBD9
S113EC902868DFF8442603214167816F00F06AF891
S113ECA0816720462946FFF71CFBE0B155E0304957
S113ECB0884208D1DFF824062062DFF82406E060E9
S113ECC04FF45020BEE7DFF88013884208D1DFF804
S113ECD014062062DFF81006E0604FF46020B1E70C
S113ECE0DFF8080639E000F03AF8002835D1F3F7E8
S113ECF07DFD0646287C032810D12868416F41F029
S113ED0030014167416E41F00401416695F82120CC
S113ED1095F8201041EA0221C16704E0022804BFEB
S113ED202046FFF734FF28684FF0FF318164297CC7
S113ED3003290CBF0521042100F010FB29684FF4BE
S113ED404060C86016F0A2F92046FFF733FF00F0D8
S113ED50A0FA002F14BF3846002007B0F0BD0121EF
S113ED6020468AE600208DF800006946286870472E
S113ED700004014011402A7A41EA02216A7A1143CF
S113ED8070470121DFF86805F4F7E6BB38B50400E5
S113ED9002D1DFF8240532BD032100F03CF8002144
S113EDA0204600F043F90021FFF7DAFF04F13105B2
S113EDB06878010006D121680220C8600820216813
S113EDC0C8600AE0012808D1206800F065FB2068CB
S113EDD0416C8907FCD40A2141600021206AF4F7C0
S113EDE0BBFB2878032803D0607F002116F013FBB7
S113EDF0606816F031F9A06816F02EF916F00DF9D6
S113EE00606A0021018041808180A06A0180418084
S113EE108180002032BD2DE9F0435FEA000883B011
S113EE200D4608BFDFF890047BD0F3F7DFFC012D1B
S113EE30814608F12C0608F10407DFF8B84415D11F
S113EE40786A808810B3386816F090F900207070E2
S113EE50786A818879B300F06BF8009800F10801B2
S113EE60386816F0BFF90098046120E0022D03D140
S113EE70386A808840BB09E0032D23D1786A8088F2
S113EE80002802BF386A80880028DCD14846F3F79E
S113EE90EAFCDFF8640444E06946FFF7B0F8009840
S113EEA0D0F80CC0BCF1000F01D000F03CF8786A37
S113EEB081880029F0D1404600F03DF88004FAD55D
S113EEC0022D01D0032D28D1786816F04FF90020C7
S113EED03070386A8188D1B101A9FFF7ABF8019885
S113EEE000F10801786816F07DF9019804610AE0E0
S113EEF001A9FFF784F80198D0F80CC0BCF1000F09
S113EF0001D000F010F8386A81880029F0D17079B6
S113EF1003281CBF4046FFF7C7F84846F3F7A3FC95
S113EF200020BDE8FE8383680022214640466047F6
S113EF306946FFF77FB890F832200021130002D110
S113EF40006801691EE0012A1CD1006880688207FC
S113EF5048BF0221C20748BF41F00101420748BF30
S113EF6041F00801020748BF41F02001C20648BF32
S113EF7041F04001820648BF41F08001400648BF8D
S113EF8041F4005108467047406A1CE02DE9FC41F9
S113EF9000F046F8606A818816461F4671B1FFF793
S113EFA0C7FF8046A06801A916F01CF9009828B193
S113EFB0B8F1000F02D100F02AF802E00020386016
S113EFC030601EE0806A8088C0B270472DE9FC4141
S113EFD000F026F8A06A818816461F4671B1FFF733
S113EFE0A7FF8046606801A916F0FCF8009828B1D4
S113EFF0B8F1000F02D100F00AF802E000203860F6
S113F000306028602046FFF796FFBDE8F68140682F
S113F0100199401A30600198386000980068704780
S113F02004460020009001900D46704700F1140240
S113F030537F032B02D1DFF8C402704751700229B9
S113F04018BF1170FEF779BF0008014010B500F138
S113F0501602D37E012B01D1022900D1EFE01478EE
S113F0608C4208D0117011B900F0D2F803E00129E4
S113F07008BF00F088F8002010BD007D70472DE91E
S113F080F041044688461646FFF71BF9002878D15C
S113F090092016F0FBF9054604F12E0702E00DB134
S113F0A016F0B4F8A06A808810B138780028F6D039
S113F0B03879010002D12168096905E0012818BFE7
S113F0C0002522D12168896811F002051DD10100B3
S113F0D00BD121680420C860206801698907FCD528
S113F0E0416F41F0020141670FE001280DD1206812
S113F0F0416C8907FBD40421416020688168890739
S113F100FCD5416D41F0020141650120B8703879A8
S113F110010006D0012819D110E018F8011B00F0F5
S113F1209AF931464E1E20680029F6D101698906F4
S113F130FCD50BE018F8011B00F0C7F931464E1E50
S113F14020680029F6D181680907FCD5C5B938794A
S113F150010008D12068416F21F0020141670820B5
S113F1602168C8600CE001280AD12068416C890735
S113F170FBD4416D21F002014165082021684860FB
S113F1800020BDE8F08110B5040001D1FFF7E9BC0F
S113F19094F82E0030B92046FEF785FE10B9606859
S113F1A015F0BEFF94F82E00401C84F82E000020B9
S113F1B010BDF0B587B000F070F8A0B900F061F8A8
S113F1C000F01CF8049700F010F860B9287E48B9E4
S113F1D02046FEF747FF00F00DF8687F032801D0B2
S113F1E000F011F8002007B0F0BD6A46286901A9B3
S113F1F0FEF7D2BE00992046FEF773BF04F1140552
S113F2003F4805907047002028702046FEF795BEC1
S113F21010B5040001D1FFF7A4BC94F82E0070B11E
S113F22094F82E00012806D12046FEF73CFE10B9C2
S113F230606815F083FF94F82E00401EB5E72F4850
S113F24010BDF0B587B000F028F8C0B900F019F887
S113F25000F029F804976A462868FFF7C8FF70B9D8
S113F260687958B9F3F7C2FA06462868808818B155
S113F27000F00BF80120287200F00CF8002007B011
S113F280F0BD019502960396704700992046FEF75B
S113F2904ABF07463046F3F7E6BA04460D4616461B
S113F2A01F46FFF70EB804F128051548059070476E
S113F2B08FFF002094F50020027000F0D3DE0000E0
S113F2C00E7000F0847C0300000001400032040052
S113F2D001000C0040410500E0E0FFFF0042040093
S113F2E001000D000052040001000E00037000F044
S113F2F000350800097000F0087000F0057000F097
S113F300017000F070B50446080015461E4604BF9F
S113F3104648F4F751F9310006D0202E18D0402E7B
S113F32018D0602E18D070BD1021226822F060021F
S113F330226069432268324322604A0802EB40108B
S113F340B0FBF1F020383A4901EAC000606170BDB9
S113F3500821EAE70621E8E70421E6E7CA43520068
S113F36002F00A02C260C160704738B504460D4617
S113F37000F039F8A87C18B1206840F08040206083
S113F380E87C18B1287D40F08000A065687BB5F961
S113F39010100843B5F90E10084360602B7BAA686F
S113F3A069682046FFF7AEFF00F00CF8606F20F0AC
S113F3B030006067606F297E08436067FFE7287844
S113F3C0E06031BDA87DE97D0007090500F0E0405B
S113F3D001F4E00108432066687D18B1206840F418
S113F3E080302060704740F6AA61C160002101604E
S113F3F041F205014160002181604161C1640D4A0F
S113F4000D498164002141678167C16790420B49BE
S113F4101EBF88420A4A904201D10022026500229E
S113F4208265884204BF07490A607047404105006D
S113F430F8FF7F0000000140F9FF010000040140D3
S113F440000801405C04014001690906FCD5FFE79E
S113F450C069C0B2704702695206FCD54163704767
S113F460026CD20702D4426C0A42FCD1704738B510
S113F47000F00EF8E843400000F00A002843606002
S113F48031BD19B1416C0029FCD1012101647047DF
S113F4900D4604460221E3E710B504460121FFF7B7
S113F4A0F0FFEA206060002100202060E06020611D
S113F4B06061A06340F2F97060630020E0636065FE
S113F4C0A0652046BDE81040DBE738B500F005F83C
S113F4D0402100F00AF8A56231BD04460D46A0683B
S113F4E0C006FCD57047606002212046B8E70000E2
S113F4F012490A6842788A600278DAB14268CA60BE
S113F500437A827A1B0643EA0272C37B42EAC3420D
S113F510C37A42EA8342037B42EA4342437B42EAA0
S113F5200342837B007A42EA032242EA400040F02D
S113F530010001E00020C8600861704790ED00E020
S113F540BFF35F8FBFF34F8FBFF36F8F7047000020
S113F55080B5684615F0C0FFDFF83C04DFF83C14C2
S113F560DFF83C24016148F2E67141604FF4086120
S113F5700160DFF83004DFF8301441604AF63F419F
S113F58011604FF0C071DFF824241160002101667E
S113F590DFF81C1401607F20DFF8181408602320B2
S113F5A0DFF81414086001BD10B5DFF81004DFF8AB
S113F5B010440168426849B10B0C1B04A34208BF04
S113F5C00A600830DFF8FC138842F2D310BD10B58E
S113F5D000F049F8FFF7E8FFFFF7BAFFDFF8E81398
S113F5E0DFF8E843032008604FF40020DFF8E0135D
S113F5F008600120206003F063F9DFF8D8134FF4AA
S113F600607008604FF040706066E06710BD10B530
S113F610DFF8C03382B001221A60DFF8BC432268ED
S113F620120E12F00F02FAD14FF00452A267012217
S113F630E2678A0001464FF00450F2F793FEDFF8C8
S113F6409C03E065DFF89843DFF898032168009194
S113F650AC21F9F703FEDFF89003DFF890130160A3
S113F6600099216013BD80B50121DFF8840315F0F2
S113F6704DFF0121DFF87C0315F048FF0121DFF87D
S113F680780315F043FF0121DFF8700315F03EFF06
S113F6900121DFF86C0315F039FF0121DFF8640361
S113F6A015F034FF0121DFF8600315F02FFFBDE8EA
S113F6B004400121DFF8540315F028BFF8B50446CF
S113F6C00D460FF2903600E00860002D1CBF28683C
S113F6D010F1010F3FD055F8042BC2F3026156F824
S113F6E0211093B2C2F307401943022808D300281B
S113F6F01EBF55F8042B41F8042B401EF7D1E4E754
S113F70055F8040B120F4FF0010C072A01F1C063E6
S113F71001F180670CFA00FED7D8DFE802F0050695
S113F720090C0E111417D0E7CEE7C0433860CCE7BC
S113F7300A685040C8E71860C7E702F0C5FBC4E791
S113F740C3F800E0C1E7C7F800E0BEE70A6802407A
S113F7508242FBD1B9E7204602F042FE01F054F8A0
S113F760DFF8AC02006810F4E05F03D1DFF8A41204
S113F77020200860F1BDDFF860020068000E00F090
S113F7800F00022818BF032801D101207047002070
S113F7907047DFF88402016800208A0648BF04200D
S113F7A0CA0644BF801CC0B20A0744BF801CC0B252
S113F7B04A0744BF801CC0B28A0744BF401CC0B281
S113F7C0C90744BF401CC0B2704780B51120F3F78D
S113F7D0F3FEDFF84C1209688AB232B1C008C1F3F3
S113F7E007414843B0FBF2F002BD002002BD38B52A
S113F7F0DFF830024168006801F00702082AC0F30C
S113F80044141AD20FF254239A5CC1F3CD035B1C47
S113F810C1F345415A43491C5143C0F3822200F0CD
S113F8201F0014FB02004843450006D01120F3F7E3
S113F830C3FE6043B0FBF5F032BD002032BD10B50D
S113F840DFF8D841FFF7C1FFDFF8DC110A6824684C
S113F8502404DFF8D841246848BF400804F4C054A5
S113F860B4F5805F02F0300303D18969490D01F0DA
S113F8703003102B04D0202B04D0302B08D010BD23
S113F880400810BDC2F3C421491CB0FBF1F010BD07
S113F890800810BD10B5DFF89001016801F0300256
S113F8A0202A0FD1C1F3024018B1C1F3C422B2FB24
S113F8B0F0F011F4C01F18BF40004408032C0AD311
S113F8C0042408E0006800F4E070402816BFB0F596
S113F8D0807F02240124FFF7B2FF604310BDF8B516
S113F8E00446F7F7A5FA0646FFF745FF05465048D4
S113F8F00068C0F38917B80544BF4E480743FFF7B3
S113F9003AFF00B900253046F7F78FFA3FB217F5F2
S113F910007F01D12542E4D105B9474F3846F2BDF5
S113F92038B505460C46FFF762FF68434349B0FB10
S113F930F1F0002100E0491C01228A40824203D2F6
S113F9401029F8D3012032BD3D4A0F20106041F048
S113F95010003C4908603C480068C0B2802803D0CD
S113F9602046BDE8324001E0022032BD374AFF2183
S113F970116000F0FF003649086000207047164807
S113F980016801F07061B1F1C06F02D1816BC906E9
S113F990F6D540214160704734410840C0E65351D8
S113F9A0083008409C4008407A27000F287008401F
S113F9B0806D630324300844243008460080E00F3F
S113F9C000000840B081E00FD86008469440084623
S113F9D0944008400C40084604400840C01F0021E1
S113F9E0E81F0021541F0021F01F00213F003700B1
S113F9F000340600000406007005060000640600DA
S113FA0000540600004406000024060000740600AA
S113FA1084600840106208404C000840306108408F
S113FA205060084054600840186008404000084096
S113FA300870084000FCFFFF00FEFFFF40420F007B
S113FA408070084480700846187008401870084494
S113FA501870084600000840000000210304040850
S113FA6008080808012100F01F029140DFF8A82AC5
S113FA7005E0012100F01F029140DFF8DC26400977
S113FA8042F82010704780B5F7F7D2F9DFF8CC16AA
S113FA900968090E01F00F01032907D1DFF8C01628
S113FAA00A6822F0F00242F0E0020A600121DFF865
S113FAB0842A1160BDE80240F7F7B7B9DFF8782A65
S113FAC01168D368194021EA000090600846704725
S113FAD00422C900002814BFDFF88806DFF8900A62
S113FAE002FA01F1016070470120704710B5DFF898
S113FAF0844A01232370F6F758F80020207010BDC3
S113FB0070B5F7F795F9DFF86016DFF86046CD7841
S113FB10D1E902232E00DFF8941A04BF4FF41056E3
S113FB20324219BF10260E60102626600DB9D20588
S113FB3002D520220A6001E020212160BDE8704046
S113FB40F7F773B9DFF8200600210171C17811B10C
S113FB500021C170D4E7704710B5DFF80C46207956
S113FB6078B1012001F089FD58B9FFF7EBFFD4E922
S113FB700201BDE81040002200F4805001F00001B1
S113FB80B4E710BD10B5036883EA010424EA020255
S113FB9000F180641340236040F8042C00F1C0603D
S113FBA01140016010BD70B504460D461646FFF7BE
S113FBB0A7FF4FF4004114F0AA6F18BF48F20201E6
S113FBC0B00748BF41F400510022DFF8A405FFF755
S113FBD0D9FF0021200448BF4FF48051E00348BFFF
S113FBE041F48071E00648BF41F40051A00648BFCB
S113FBF041F40071600648BF41F48061200648BFAB
S113FC0041F400610022DFF86C05FFF7BBFF05F04B
S113FC10040300210025AB4218BF4FF480212005C6
S113FC2048BF41F48031600448BF41F48011A0070B
S113FC3048BF41F40011A00348BF41F400217007FC
S113FC4048BF41F004010122DFF82C05FFF79AFFB9
S113FC50DFF82815F00748BFDFF8C018A00048BF38
S113FC6041F40011600048BF41F000710022DFF848
S113FC70B008FFF787FF0021E00748BF01210022F9
S113FC80DFF8A008FFF77EFFDFF8B018600348BF75
S113FC90DFF8AC186007BDE8704048BF41F48061EC
S113FCA04FF4A022DFF8C0096CE710B5F7F7C0F8ED
S113FCB004461C20FFF7DDFE0820FFF7DAFE0120D2
S113FCC0FFF7D7FE0420FFF7D4FE0520FFF7D1FE8F
S113FCD01D20FFF7CEFE0720FFF7CBFE0620FFF71F
S113FCE0C8FE2020FFF7C5FE2046BDE81040F7F708
S113FCF09CB82DE9F04702EA0009089D099AC64319
S113FD00CF43002D03EA010A05EA0208DFF858444C
S113FD102CD1002948D100286ED001280ED0042807
S113FD2042D1F7F785F800F069F8002082450CBF4E
S113FD30814501200121FFF7CBFE33E0F7F778F886
S113FD4000F05CF80022924508BF9145DFF86C088A
S113FD5006D0012101600120DFF89018086021E03D
S113FD60DFF88C280121116001601BE00022914220
S113FD7004BF9042012D17D1F7F75AF805462069C0
S113FD80400848EA400020614FF48061DFF87808B9
S113FD90B8F1000F19BF0160DFF87008DFF84C29D3
S113FDA011600160284623E0FFF77FFF00F027F889
S113FDB02269AA4348EA02022261FFF7F4FEF7F738
S113FDC037F804461C20FFF74DFE0820FFF74AFED3
S113FDD00420FFF747FE0520FFF744FE1D20FFF730
S113FDE041FE0720FFF73EFE0620FFF73BFE2046BC
S113FDF0BDE8F047F7F719B8BDE8F0870546D4E940
S113FE0002013040394040EA090041EA0A01C4E9EC
S113FE1002017047DFF85408006810F0A00F0FD1FA
S113FE20DFF84C1808200860DFF8481808688005D7
S113FE3047BF0220DFF8B8180220DFF8B8180860BE
S113FE40704710B50446FFF7C2FBFFF72EFF00F022
S113FE5007F9012002F063FE04F19001DFF898082D
S113FE6001F012FBDFF894180120086001F0D3FDC3
S113FE7001F034FE00F096FC04F1280000F0E5FDEA
S113FE804FF44001002001F087FF4FF400110120DE
S113FE9001F082FF02F00CFD02F0C8FD10B914213C
S113FEA0F7F786F8BDE8104002F0DBBC10B5DFF8C8
S113FEB05048206810F0070F08D1DFF84818086888
S113FEC020B1002001F0D9FB401E60618020DFF8E2
S113FED038180860DFF83408016821F04001016037
S113FEE010BD10B5F6F7A4FF044600F018F800287A
S113FEF002BFDFF81C08006810F0060F0AD1FFF7F4
S113FF00D5FFDFF86C17012008602046F6F78DFF57
S113FF10002010BD2046F6F788FF012010BD032005
S113FF2001F034BF80B5010003D0DFF8EC17401EA8
S113FF300860F6F77DFFDFF8D4170A6822F0400264
S113FF400A60F6F772FFDFF8A8170220086001BD07
S113FF502DE9F84F804689469246F6F769FF8346B5
S113FF605FEA09007D4CDFF8AC570FD000F065F86C
S113FF70DFF8A817012008600420286001E0FFF7DB
S113FF80FEFC2068000E10F00F00F8D1A0202860BD
S113FF90FFF7C5FF20B1032001F0C8FD00F0C4FA4B
S113FFA001F002FFDFF86066DFF848770020F060B8
S113FFB000F043F8DFF85407016841F040010160A4
S113FFC0FF2038604FF4807060600420B8F1000FA7
S113FFD0286007D0FFF757FD01F048FF202060603C
S113FFE000F0A2FAB9F1000F22D0504600F0AAFAAC
S113FFF00120BAF1000FF8601AD0DFF82407416835
S2140100000160E069A061DFF81C0741680160DFF864
S214010010180741680160DFF8140741680160DFF8DE
S2140100209C0541680160DFF808073060FFF78AFD2C
S2140100305846BDE8F24FF6F7F8BE10B5DFF8C846E9
S21401004006E0DFF8D01604200860022001F03CFF2D
S21401005004202060DFF8140600684003F1D410BDC8
S21401006080B5DFF8D0060168DFF8CC06FFF7CFFAD7
S2140100706421DFF89806F9F7F1F8DFF8F0050021BA
S214010080016041608160BDE8014001F089BFF8B5BB
S214010090DFF8A816344C0A5CDFF86C6513000546D9
S2140100A04FF400671CD0032D08BF3760521E0A5458
S2140100B0D2B25AB9032D05F10900DFF8841609D129
S2140100C00002227840F0010012B10860002016E01C
S2140100D0F060FBE7042DF9D1000640F48030F4E728
S2140100E001F024FD032D07D1DFF8581641F61F70E5
S2140100F0086037600020EBE7022D02D101200021C5
S214010100F4BD042DE2D1032001F010FD01F04CFEF8
S214010110F6F78EFE05466078002608B1FFF7B3FCB9
S214010120012001F0AAFA0D4F0028386804D1000E0C
S21401013000F00F00032802D1A0782071012628467E
S214010140F6F773FE002EC1D10020E070FFF7D8FC51
S2140101504FF48050D3E7000080E100E004400840FF
S214010160541F0021EC100846C0E5002094400844C6
S2140101706C0008400C6208402040084004185000FB
S2140101802DE9F04FDFF8C005DFF884A583B00168DC
S214010190C2681140009100998160DFF8B0050168DE
S2140101A0C26802EA01048460DFF8A4050168C26837
S2140101B002EA010585604FF6FF70FFF77FFC0646F1
S2140101C0DFF890050068C0F34070002801BFDFF833
S2140101D088050068C0F3407000281FD0F6F728FE97
S2140101E0DAF8001011F00608DAF85010DAF85C2098
S2140101F002EA010718BF4FF00108DFF86015394021
S214010200CAF85810790704D5DFF854150A78521C35
S2140102100A70F6F70AFE8DF8048002E08DF80400F5
S214010220002700984FF000080028C346C1463ED07C
S2140102300099DFF8380409041CD50168DFF8D424D6
S214010240DFF8D03401F4E0511160A0221A601022C8
S214010250DFF8A0341A6011B94FF400280AE0CA0486
S21401026048BF4FF0007805D449054CBF4FF400183D
S2140102704FF400080099890714D50068DFF8941434
S21401028010F46040086008BF48F480180AD00104E2
S21401029048BF48F0806805D480044CBF48F4800805
S2140102A048F080780098800448BF4FF00209DFF8D4
S2140102B0B404044235D014F4206F07D0002000F0B7
S2140102C041F9062100F033F924F4802414F0090FD3
S2140102D00AD0DFF89414202048600120DFF88C143F
S2140102E00860082100F023F914F0106F0AD0DFF837
S2140102F07814202048600021002001F0C7F9092168
S21401030000F015F914F4202F07D0002000F01AF998
S214010310072100F00CF924F48024E00348BF01F023
S2140103209EFA60070ED5DFF8480400684FF40051C6
S21401033028B1DFF84004016048F4802802E0DFF8C5
S21401034038040160600548BF48F0040860031CD506
S21401035001F05DFA401E062805D8DFE800F0080B1C
S214010360080E11141400032100F0E1F80DE048F422
S21401037000580AE048F4806807E048F4007804E092
S21401038048F4807801E048F00808BDB1E80448BFA9
S21401039048F40048E80548BF48F48038A80448BF38
S2140103A048F01008A80548BF48F02008680548BF6F
S2140103B048F04008280548BF48F0800836B3B00129
S2140103C048BF49F00809700148BF49F010093001DB
S2140103D048BF49F02009700348BF4BF0040BF003F7
S2140103E048BF48F40068F00248BF48F48048B002AD
S2140103F048BF48F00208300308D500F0D9F80228B3
S2140104001CBF0328072801D148F40038002F5FD00D
S214010410380506D50320FFF73AFE48EA00084BEAFE
S214010420010BB80104D52B2002F0A3FB48F080484D
S21401043017F4E00F05D1F8043AD59DF8040000281A
S21401044036D0B80204D5292002F093FB48F00058B4
S21401045078020FD500F068F8272002F08AFBAD4934
S214010460A02008601020A34908604FF48000CAF855
S21401047058001AE0F80207D500F056F8282002F0D6
S21401048078FB48F000681CE0F8041AD500F04CF838
S21401049001F0ECFCDAF8500010F4A00F11D12A207C
S2140104A002F067FBB1490120086048F0805808E077
S2140104B0F80406D50420FFF7EAFD48EA00084BEAEF
S2140104C0010B780504D50220FFF7E1FD40EA090992
S2140104D0AA48016901EA0902D0E9020108EA000016
S2140104E00BEA0101FFF702FB600303D501F0ACF94B
S2140104F0FFF732FB6EB1B00148BF01F041FF70015A
S21401050048BF01F05AFF300103D5BDE8F74F01F0AF
S21401051055BFBDE8F78F000000E100E0041C500065
S214010520685008403C700840042001F0FFBA0020E3
S214010530F6F73EBD2400084014400840090A0A099F
S2140105400D0A0A0938B50446F6F772FC054601F0AD
S214010550B7F814B1FFF7F6FA04E00648007808B9D0
S214010560FFF7FAFA2846BDE83240F6F75EBC00000F
S214010570EC100844ADFF002002E601E600E6FFE5C8
S21401058010B57F48FFF79AFA0446E00703D500F056
S2140105900FF800F0FDF8600707D57848007CBDE845
S2140105A0104000F00402002024E010BD94400846EC
S2140105B06D480068000E00F00F0070473870084064
S2140105C0DEE580B56F480168C26811408160C807E2
S2140105D00BD56A48007A122100F00100F6F7E8FC14
S2140105E0BDE808400022012004E001BD3C70084639
S2140105F03C7008440021FFF779BA63480168C26875
S21401060011408160704700006450084068500846F9
S2140106102DE9F84380460C469146F6F709FC3B4F18
S2140106203E6805464046FFF75FFA28B126EA040011
S21401063004EA0901084338602846F6F7F6FB04EA9F
S2140106400600BDE8F28338B504460D46FFF74CFABE
S21401065000281ABF2D490868E06F2840A84201D13A
S214010660012032BD002032BDEC1008408840084011
S21401067008400840001F00212DE9F84FC9B20229A1
S2140106803CBFD6B2022E82460AD2DDF828800B9CE9
S214010690A0453EBF092CDFB2042F01D20C9D0DB937
S2140106A0012020E00A463B460021F6F737FB374893
S2140106B0C14600EB4616FF0012E056F82900FF215E
S2140106C0B9408843A9EB0801695CB94041EA000BCF
S2140106D05046FFF709FA08B146F829B009F10109B1
S2140106E0A145EADB0020BDE8F28F0000685008440F
S2140106F0004008460040084415FE00000C4008442F
S21401070004000840501F002188400846F01E0021C2
S2140107100C50084088400844180008400C40084621
S214010720680008400862084078300840E810084031
S2140107305000F00218410300002F0300E0E50020FE
S2140107406C5008466C50084460000840E0100840B1
S2140107500062084000E300E000E200E0FFF7BFFFB0
S214010760AEFF0020090A0B09044008402810084083
S214010770B40402432410084424100846C0E50020AF
S2140107800000FFFF3070084070300840081F00214D
S2140107900249012008600249086070472040084469
S2140107A01C40084058B5DFF87814DFF87864072055
S2140107B00860DFF8740414F0CCFEC408DFF86C247B
S2140107C0002312EBC45043EB5421DFF8642402F0FB
S2140107D087FADFF8601408604EF6602000F06BF8C8
S2140107E0DFF8541440420860DFF8500401F05BFB68
S2140107F002465008002110EB843051EB944100234F
S21401080002F06EFA306051BD38B5DFF81C0414F002
S214010810A0FEC408FFF73EF8DFF824140968C90BE8
S21401082001F00101E2010B000BD002F57443DFF881
S2140108301404DFF814442433B3FBF4F30360DFF845
S2140108400C04DFF80C3402EB5002B2FBF0F0DFF8D8
S2140108500424186000201268D20214D4DFF8F823AA
S214010860DFF8F83312681C68C2F38102521C650572
S21401087048BFD00004F0FF04FF2C04D05B685B0582
S21401088048BF00EBC20001B1C01CDFF8D4130860FA
S21401089031BD30B5DFF89C231268C117A2FB0045B5
S2140108A002FB0155B4F17F4065F1FF31400E40EA8D
S2140108B0C110803830BD80B5FFF7EBFF0128B8BF07
S2140108C0002002BD0A0008D043F2C823994203DA89
S2140108D0642902DA642100E019460180084670475F
S2140108E043F2C8229142A8BF114681818089704790
S2140108F043F2C8229142A8BF1146C181C089704700
S2140109002DE9F04705000C4600F09680E0074FF40D
S2140109107A7647F2305851D5E88A28B101F05DFD64
S214010920E98A00F08BF800E04046FFF7C4FFCD49A6
S2140109300860688A28B101F050FD698A00F07EF8E7
S21401094000E04046FFF7B7FFC749C84FDFF82093DE
S2140109500860A88AE0B101F040FDA98A081A704330
S214010960A968A0F6C410A0EB010AB5480068000407
S2140109700AD5C0485044FFF78CFFC9F80000BE48AE
S2140109805044FFF786FF09E02868AAEB000A00E05A
S214010990C2465046FFF77DFFC9F800003860688BF5
S2140109A038B101F01AFD698B081A7043A0F6C4101D
S2140109B000E04046FFF77FFFB0490860A007DFF878
S2140109C0C09242F2107720D5E98906FB01F039B1D1
S2140109D0296879180818297911B100F5C240A8309C
S2140109E0FFF769FFA7490860288B010008D0A968AE
S2140109F006FB00102979484419B1A349081800E0FC
S214010A004046FFF758FFA1490860600714D5288AB9
S214010A10010014BF06FB00904046FFF74CFF9C49BF
S214010A200860A98906FB01F011B129687918081830
S214010A30FFF741FF97490860BDE8F087081A704341
S214010A40A968A0F6C410401A7047072158E701218B
S214010A5056E7826001600020704738B504460D46AF
S214010A60FEF718FF76490968090405D576498842D4
S214010A7008BFAD00A4007548874A0A21B0FBF1F013
S214010A802919430802FB0131B1FBF0F032BD6C4974
S214010A9040680968C000090448BFC01C7047684820
S214010AA00068000401D52F2070477C48016C0A0CB1
S214010AB0C1F30111491C514342F21172914202D312
S214010AC04FF0FF307047006800F01F004018401CD0
S214010AD070470000F8B5069F002F0646144643D01F
S214010AE0387A010040D00025401E062831D8DFE8BC
S214010AF000F01126240E110406000720387238462D
S214010B00FFF7C5FF01460020FFF7A7FF0546387A25
S214010B1010B9F1BD04203872204600F064F801F0E7
S214010B20AEF93168464A1268120414D5797C002958
S214010B3014BF5B494BF6EB610DE002203872FFF7FC
S214010B40AEFF10F1010F04D00021FFF786FF4542EA
S214010B50DDE73D72F1BD01F5FA714FF47A72B1FB32
S214010B60F2F1401A28183860F1BD0000F8B5069F6A
S214010B7006461446EFB1387A01001AD00025401E09
S214010B8006282DD8DFE800F00424261618200400D5
S214010B9006203872204600F026F801F070F9B16898
S214010BA001F5FA714FF47A7291FBF2F108182818E0
S214010BB03860F1BD052038723846FFF768FF0146F8
S214010BC02846FFF74AFF4542387A0028E2D1F1BDB0
S214010BD003203872FFF763FF054615F1010FEBD1CD
S214010BE000203872F1BDF8B50446F1F7FFFD2D4E31
S214010BF02D4937680D782D49096811B137686D1C84
S214010C00EDB2F1F730FEA742B26938BF6D1E20463D
S214010C10002105F00303521CE2FB0301F4BD0000B2
S214010C2084400840901F002160510700B2E60E0084
S214010C3065CD1D00A0FE0020B81F002140420F0018
S214010C4030610840881F002148E8010020A1070004
S214010C508C1F00210400084000200840A80008401E
S214010C60941F0021A81F0021A01F0021841F00211E
S214010C70A41F00211541FFFF0526FDFFB41F00211B
S214010C8030DFFFFFB01F0021589EFFFFAC1F002181
S214010C90981F00219C1F0021A08601001C600840AF
S214010CA0FBD9020018500840AEFF0020880B0A430B
S214010CB080B5002845D00178122942D3DFF80817FD
S214010CC042780A7082784A70C2788A700279CA704D
S214010CD042790A71827902B101224A71C27902B15E
S214010CE001228A71027A02B10122CA71427A0A721B
S214010CF00278182A0FDB827C02B101224A72C27C7A
S214010D008A72027DCA72437D827D43EA02228A810B
S214010D10C37D027E0EE0827A02B101224A72C27A55
S214010D208A72027BCA72437B827B43EA02228A81F1
S214010D30C37B027C43EA0222CA81407C08740020FD
S214010D4002BD002000F08DF8012002BD002103281D
S214010D50DFF874260FD8DFE800F002101509107AC4
S214010D6001280AD002280DD0032804D1D07910B169
S214010D700320107501210846704750790028FAD0E3
S214010D800120F6E790790028F5D00220F1E710B5AA
S214010D90DFF83446207DFFF7D9FF207D10BD80B5F2
S214010DA0FFF7F5FFFF2800D15EE3DFF81C16CA89BE
S214010DB08B8900928A7A022100F001F802BD2DE9A2
S214010DC0F84FDFF8087606468A4638689146984610
S214010DD0002101F054F80446701E0D464FF0FF3B0B
S214010DE003D0401E012806D917E000F0E0FA0646B7
S214010DF000F066FC12E0304600F03DF810F1010FFD
S214010E0008BF5E4606D00A9B42464946504600F059
S214010E10C2F9064600F089FA00E05E46386800210D
S214010E2001F02DF8001BA9414FF47A72002301F05E
S214010E3057FF002399424FF6FF7201D8904201D323
S214010E40002403E04FF6FE7200EA020416F1010FD9
S214010E5004D0304600F005F846EA04463046BDE8C0
S214010E60F28F10F1010F05D0DFF864150A68C0EAA9
S214010E7002000860704738B5044600F02BF8022CD3
S214010E80DFF8442502D1D178022003E0032C1ED1DD
S214010E90117903205378127814F0D4FB054615F126
S214010EA0010F14D000F09EF8284600F068F810F103
S214010EB0010F0CD000F07FF8022C03D100F0B8F837
S214010EC0002032BD032C02D100F0C9F8F8E74FF03C
S214010ED0FF3032BD70B5DFF8FC04DFF8FC448169F1
S214010EE0DFF8F854DFF8F86421600168616029686A
S214010EF0A1606969E160696B2161A96B6161696ED5
S214010F00A161B16EE16131682162DFF8D814096828
S214010F106162016AA162416AE162816A2163C16A12
S214010F206163806DA063DFF8C0040068E063DFF8EA
S214010F30BC040068206468686064F06EA06401F018
S214010F406DFBE06401F06DFB20650020F06620205B
S214010F50DFF89C1408600120DFF898140860402030
S214010F60DFF894140860DFF860146868097C0902E9
S214010F7020F4706001F470610843686070BD10B5BC
S214010F80044601F051FBDFF874140968C9024CBF2E
S214010F90A4EB400404EB4004204601F061FB10B9C9
S214010FA0FFF75FFF04E00021204601F06CFB08B16B
S214010FB04FF0FF3010BD10B5DFF84414DFF844449D
S214010FC04FF40010086000F02DF800F079FBDFF810
S214010FD03814082008602068000E00F00F00022870
S214010FE0F9D110BD10B5DFF82414DFF81844FF203E
S214010FF00860F5F71DFF2168090E01F00F010329AE
S21401100007D1DFF80C140A6822F0F00242F0E00281
S2140110100A600121DFF8FC231160F5F706FF00F0F6
S21401102001F810BD2068000E10F00F00FAD17047CD
S214011030DFF8E403DFF8E4230168114041F0804162
S21401104041F4184101604FF48000DFF8D4130860C2
S2140110504FF40021DFF8CC03816101607047F8B5D9
S214011060DFF8B403DFF8C023016ADFF8C043DFF816
S214011070C053DFF8C073DFF8C063890B890341F4FE
S214011080605141F03E010162416A090D090541F4D2
S214011090145141F0BC014162016D01F07F411143E1
S2140110A00165DFF8982301688909890141F0A701E4
S2140110B001604FF48000DA4908600021C848816663
S2140110C0016821F4E07141F480710160C54801684E
S2140110D0C908C90041F0050101604FF40021D84854
S2140110E00160216821F0004141F0804121604FF408
S2140110F04041C160E960A168114040F24542114398
S214011100A160D04AE16821F0370141F02001E16099
S214011110E168114041F4002141F48A41E1604FF455
S214011120F87101640820A8604FF4803000F028F8B8
S214011130206820F47F5040F0400020604FF40030DB
S21401114000F01EF800F020F84FF4802000F018F8A8
S214011150BD4909200860142000F0B6FE00F014F81E
S214011160A148994A01689278C1F3160141EA0261E1
S21401117041F4000101601420BDE8F24000F0A4BE75
S2140111802860142000F0A0BE20683840304320605C
S214011190142000F099BEF8B502280C4615461E46E6
S2140111A016D100962B4622460121002000F013F8A6
S2140111B000962B462246002100F00DF807460096C1
S2140111C02B462246012100F006F847EA0020F2BD30
S2140111D04FF0FF30F2BD2DE9F24F82B0054647F6DB
S2140111E0FF7800200C9C8DF8040091469B464646ED
S2140111F082460527384600F032F800F036F812BF6E
S21401120029460146284600F037F8B042BCBF0646DC
S2140112108DF804700A37802FECDB9DF80400461F1A
S21401122006E000F029F84045BCBF8046B246761C71
S2140112309DF80410F6B23046491D81420CDB802829
S2140112400ADA0028F3D000F00AF800F00EF812BF10
S214011250294601462846E4E75046BDE8FE4F4028A9
S214011260B8BFC0F14000C0B270479DF808100094A6
S21401127000295B464A4670472DE9F84F002780282B
S214011280A8BF7F2080291546A8BF7F210F2D4FF0CC
S2140112900008A8BF4FF0FF3045DA4D4A6B4E146880
S2140112A0DFF8AC91DFF820A1344044EA002008437F
S2140112B01060C346184600F007FE0A9C654E0EE015
S2140112C02020C9F80000B0609AF80B00834504D3CB
S2140112D00120FEF704FB80447F1C0BF1010B01206B
S2140112E0A84083451AD2204600F0EEFD9AF8090080
S2140112F00028E9D12021F068C9F80010B160400942
S214011300012100F00100316131688906FCD5002811
S214011310D6D020205049B0600860D5E707B901272C
S21401132098FBF7F000B2BDE8F28F38B5FFF75AFE2A
S21401133014F015FA2848274902688A6142680A604B
S2140113408368264A1360C36853610369536343691C
S214011350936383695366C469214B9C66046A1C6067
S214011360456A204C2560856A0D62C56A4D62056B2B
S2140113708D62456BCD62856B8D65C16B1A4D29609B
S214011380016C1A4D2960416C5160816CD966016D02
S214011390C06C01F078F900F093F93049012008603B
S2140113A040202F4908604FF0FF30606631BD80B5A0
S2140113B001F034F900B957E02A48006810F1010F2E
S2140113C018BF80B202BD00006CFE00201850084015
S2140113D03C410840F84008402CFC002014700840AE
S2140113E01860084004000840B860084038400840CB
S2140113F010620840400008460C400846303008405D
S214011400186008460440084000400846004008446A
S214011410541F00212400084028700840FF0110C016
S21401142014700846F840084680846D00184108404C
S21401143010410846FF3FC0E00040000133F33FFF84
S21401144010410844FF88F3FF384008468080FFFFBC
S2140114503C700844307008403C7008464000084420
S2140114600C400844C081E00F4FF0FF3002BD000081
S21401147030B53025DFF840456843204401604260BE
S21401148003991943416230BD38B5DFF830556860BD
S214011490002000900C4640F6FF7305F10C02032174
S2140114A00120FFF7E5FF0320288000230020688045
S2140114B022464FF40050009000210320FFF7D8FF8A
S2140114C0DFF8FC14F0200860A020DFF8F8140860AC
S2140114D00120DFF8F4140860BDE83140F0E038B5CB
S2140114E0DFF8D444226060600D46F5F7A1FCDFF812
S2140114F0DC140A680023E360A56052075CBF04227F
S2140115008A60F5F792FC0DB10220A06231BD0000A1
S2140115102DE9F04F89461646DFF89C1400EB400291
S214011520052E81B001EB021515D2761E032E45D885
S214011530DFE806F00B08050219F8010BA86119F897
S214011540010BA86119F8010BA86119F8010BA86134
S21401155001B0BDE8F08F19F8010BA861361F19F824
S214011560010BA86119F8010BA86119F8010BA86114
S21401157001202968AC6801F00701891D00FA01FA0B
S214011580AAF10108696808EA0400AAEB000741F01D
S214011590005BB742584408D23A464946F0F7D2FEB5
S2140115A0F21B09EB0701584601E032464946F0F7BF
S2140115B0C9FE30194AEA08010840A86001B0BDE832
S2140115C0F08F10B582B0144600220092224600F039
S2140115D002F8204616BD2DE9F047894630214843DA
S2140115E0DFF8D41382B00E1808587168144600F05C
S2140115F007000122801D02FA00FA41F000511D4643
S214011600AAF10108009108EA0500AAEB0007009973
S214011610A742014408D23A464846F0F793FE00999D
S214011620E21B09EB070001E022464846F0F78AFE76
S2140116300A9848B160194AEA08010840F060B168A2
S21401164088421CBF0220B062BDE8F3873023DFF872
S214011650682358431044026AC2F30802914202D337
S2140116604FF0FF3070474268C0684FF000530818CB
S2140116701A44C0F30800105C70473022DFF83813B4
S21401168050430844006AC0F30C007047F8B50D4695
S214011690412D044601D30120F2BDDFF82C63012061
S2140116A03060F5F7C5FB07462A4621460320FFF7BB
S2140116B02FFF3846F5F7B9FB042030600020F2BD55
S2140116C038B5F5F7B5FB0446C248BC4D01210160AB
S2140116D001630020009003234FF403702A180021B1
S2140116E00220FFF7C5FE03202880002068804FF403
S2140116F0A020B9490860B94908600020A8602046C2
S214011700BDE83240F5F791BBB0480168C90311D571
S2140117104FF480318160B1480160B148016801F041
S214011720FF0101640168C1F307210164042101641A
S214011730002101647047F8B504004ED0F5F778FB38
S21401174005469E484188C1F3830200EB82024FF4AE
S21401175003731A448368022C1E4603D1D3B374085C
S214011760640002E0012C08BF144676084FF40373A8
S214011770B4EB460F034423D10021816094422188B3
S21401178041F4004121803BD102882146121F4FF4CB
S21401179013770280241D0744468892B2361DBC4248
S2140117A028BF1C46052A468002D327883F04EBD46F
S2140117B08B7803F00703042B0CBF012300230EE0F4
S2140117C0E61A01F03F01711A068848BF4031361FFC
S2140117D0B142D3DB2846F5F728FB0320F2BD098882
S2140117E0804CC1F30C01216006F07F01418021632A
S2140117F0A2642BB14068010018BF8047FEF7BFF80E
S214011800FFF782FF2846F5F710FB0020F2BD6B4973
S21401181008884A888218D21E920802F00F0201EB4D
S21401182082024FF40373001D1A44088080B26E4B87
S2140118301860907800F00700042803D16B4B1B68F2
S2140118401B03FBD48A60704710B55C4CA06828B1B6
S214011850C10758BFFFF76FFF0020A06010BD80B51D
S21401186063494FF480300860594908600220FFF749
S21401187004FF3D2802D2BDE8014045E701BD2DE940
S214011880F84F04460D461646F5F7D2FADFF82C81D6
S2140118908146B8F80200C0F3830108EB81014FF4DA
S2140118A003721144B8F80020022C10D1D8F8083081
S2140118B053B91318DB1E9B0803F00F0308EB8303D1
S2140118C04FF403741C4405E05C08640002E0012C3C
S2140118D008BF0C464FF403734344E71A00F03F0079
S2140118E0B7EB000A48BF0AF1400A92451EDA002DFE
S2140118F008BF002E59D08C42DFF8E4B003D1DBF8E4
S2140119000470BFB206E0201F984238BF40300088FE
S214011910C0F30C0706B13780002D46D00220FFF732
S214011920ACFE82451ADA2088010404D54846F5F74C
S2140119307CFA00203DE0A17801F00701C01B0629D2
S2140119402970C0F3090602DBFDF723FF361A30B211
S214011950C043C00F0421F5F72BFB11E0DBF80000B4
S214011960C01BC0F3090621480068012E04DA000EE8
S21401197000F00F00032801D1082000E000202870A5
S214011980C7F3080708EB07000C30A8606E8017FA4B
S21401199086F0B0F5007F05D9C7F50070A88008F17C
S2140119A00C0001E0AE800020E8604846F5F73DFAFD
S2140119B02046BDE8F28F00000010084020FC002001
S2140119C04000084440000846B8100840E0100840AF
S2140119D0E410084058100840E8100840EC1008468B
S2140119E0381008403C100840841008400440084065
S2140119F0EC100844012100F01F029140DFF8382561
S214011A00400942F820107047890001EB401000F1B0
S214011A108440006870472DE9F047DFF82045012132
S214011A20204613F073FDDFF81855DFF81805286017
S214011A30204613F08EFD4FF47A71B0FBF1F64FF4A9
S214011A40FA707043010EDFF80025002312EB002028
S214011A505941DFF8F82401F043F90400A4F5807039
S214011A60A86204D12B210020F5F7A2FA01244FF435
S214011A707A7000FB04F20020310200EB52000023D2
S214011A8001F02EF9DFF8C87480468A464FEA142919
S214011A90C7F800A0C7F80480240626B92B21002029
S214011AA0F5F786FA01264FF47A70A0FB042300218D
S214011AB000FB093312EB560059413246002301F070
S214011AC00FF9F860B96018F102004AF100018008C8
S214011AD040EA8170401E2863BDE8F08780B51D206E
S214011AE0FFF788FFDFF86C144FF000500860012004
S214011AF0FFE7DFF86414086001BD30B504460D4603
S214011B00101B63EB0501AB420FD828BFA2420CD2D3
S214011B10DFF8482412680023521C63F1FF339B0050
S214011B2043EA927310EB8200594130BDDFF830244E
S214011B3002EB001202F18062012111604FF4807104
S214011B4001FA00F0DFF81C14086070472DE9F14F28
S214011B508CB090469946F5F76BF905909DF83000E4
S214011B60FFF7E4FF9DF85860022E00F0FC8000F0BD
S214011B701FF9012E82468B4607D1BAF1FF306BF171
S214011B80FF3118EB000849EB0109DFF8D063306834
S214011B900021401C61F1FF31CDE90801DDE908456E
S214011BA0AD0045EA9475A40022462B4640464946B8
S214011BB000F0E3F88046894652465B46A408FFF7E4
S214011BC09CFF44EA8574AD088D4203D300D8844255
S214011BD080F0A4809DF83010336CDFF88C53DFF86A
S214011BE08C7309310A0241F61F74002042F001028B
S214011BF023409342F36B08BF042009062B4041F4AF
S214011C0080318B42F16B08BF40F0020021409142C7
S214011C1008BF40F001000390424610F00100049016
S214011C2018BFC7E904899DF830000290022808BF52
S214011C30C7E902894B4600F09DF8DDE9082301F06B
S214011C404FF802997854DDE908234046494600F0EA
S214011C5094F88046039800F00200069089460298A0
S214011C60385C70B1049810B1DFF80403046006987C
S214011C7010B1DFF8FC0205600398400744BF00205E
S214011C8030640298DFF8D81200010A18C2F80C80F6
S214011C9011220A5000F08CF802460B4600F06AF852
S214011CA0CDE90A01CDE90089DDE90823DDE90889E6
S214011CB05046594601F014F842464B46A0FB0289AD
S214011CC000FB039901FB0299DDE9000110EB080214
S214011CD041EB090300F04EF8DDE90A238B4204D3F9
S214011CE001D8824201D3012000E000209DF8302077
S214011CF04FF480719140F26A0A40521E924110EAF6
S214011D00D27F30D00298385C08B131632BE09DF861
S214011D10580040B99DF83000FFF708FF0598F5F721
S214011D2084F8002023E03163DFF84802049941B1CA
S214011D30DFF83C120C6040F201110160DFF830124E
S214011D400C60069941B1DFF828120D60DFF8281201
S214011D500160DFF81C0205600398400703D5DFF831
S214011D601C12012008600598F5F75FF801200DB0F8
S214011D70BDE8F08F50465946BFE601E0801A99410A
S214011D809942FBD828BF9042F8D2704774490001A7
S214011D90085800F00100704701F46001704A000124
S214011DA041F0030111507047754973480860704748
S214011DB02DE9F041F0F71AFD744F3C6880467248F1
S214011DC0067800F011F8002508B13C68761C4046FC
S214011DD0F0F749FDB86906F00301401CE0FB014538
S214011DE020462946BDE8F081694802210CE6F8B58F
S214011DF0534C0546206820F4700040F4A000206093
S214011E001E46300008BF002141EA021040EA0641A2
S214011E10069841EA0061079841EA0020E064E76A13
S214011E20B7F5803F8041C00F1821F5F7C1F8A763C9
S214011E3036B1288A00F037F8874238BF0020E063C1
S214011E40F1BD5448016811B9534A10211160534934
S214011E50016341F201414163704780B5212000F0E2
S214011E6088FE3D494FF48030086001BD80B52220D0
S214011E7000F07FFE38494FF48020086001BDF0B5C0
S214011E80334EB268A0FB024501FB0255F268A0FB87
S214011E90026701FB0277B6F1004267F1FF330021CA
S214011EA0E0186941F0BD10B529490C684968A0FBE6
S214011EB00123B2F1004263F1FF331A460023E0FB2F
S214011EC004231046194610BD2DE9F84F0446FFF7C6
S214011ED06FFF804689462046FFF7E5FF04462948FE
S214011EE00D46416A490800910068C00702D41FE008
S214011EF0241A8D410027009EBD4203D8B4423CBF40
S214011F0026462F46FFF754FF82468B4652465B46CF
S214011F1040464946FFF7F1FDB942F3D301D8B04236
S214011F20F0D3A942D046D946E2D301D8A042DFD3A6
S214011F30BDE8F18F0000000080E200E0000406002A
S214011F40005008400011010020A1070040420F0088
S214011F5084FE002000E100E00450084030500840B4
S214011F60005108406450084000001F1FE0E50020B3
S214011F706C5008446C5008460000010108400840B7
S214011F806C5008400C500840AEFF00201850084026
S214011F905C5008403C50084000400846011B0118B0
S214011FA01048114A416D006800020016C9B2FF29A7
S214011FB018BF10F1010F19BF00EBD070401090212F
S214011FC00C2040189070022050702320107070472B
S214011FD006480168090E01F00F01022904BF80219D
S214011FE041607047B081E00F611F00210440084046
S214011FF070B504000D4613D0FDF735FBDFF88005FC
S214012000DFF88065DFF8802500210160207802284E
S21401201008D1106880021AD503203071FF20307075
S214012020012070BD012804D1106810F4400FF3D1CF
S2140120300DE00028F0D1DFF854050068116800F0C3
S214012040010080F0010001F480010843E4D106227A
S2140120502146301DF0F776F9002000F071F8A088CF
S214012060294600F0D1F93079022802D100F051F862
S21401207006E0012802D100F033F801E000F017F87D
S214012080002000F05DF8DFF808150320086000F076
S21401209053FA002070BD80B50622DFF8F814F0F779
S2140120A051F9002002BDDFF8DC0400787047DFF844
S2140120B0D004DFF8E424016811400160052241F0F4
S2140120C0804141F0040101600721DFF8D00441603E
S2140120D0DFF8CC144A60C022026081200860704795
S2140120E0DFF89C04DFF8B02401681140016041F07C
S2140120F0030101600721DFF8AC04DFF8AC2481603E
S21401210006211160DFF8A41441604FF440410160DC
S2140121107047DFF86C04DFF8802401681140016025
S21401212041F0804101604FF4EE40DFF8841408600E
S2140121304FF48A41DFF87C04416001210160704759
S2140121402DE9F8430546C82000F0C0F8DFF834143E
S2140121500C79FF20032C08BF087000F0B580012C15
S214012160DFF83824DFF8183412D1082DA8BF072568
S21401217002DA012D08BF02251868DFF83C4420402A
S2140121801860ECB240EA046018600420106596E01E
S2140121901C68DFF8286434401C6044F47C5444F026
S2140121A0C8041C600C79260004D1052D02D3012633
S2140121B02D1F00E00026DFF8D0733F68FF4307F4C9
S2140121C0FE1747F40057B7FA87F7C7F11307C7EBAF
S2140121D04717EDB2FFB2BD4288BF3D4614B90EB1F6
S2140121E0042400E000246419DFF8D47325B9DFF86D
S2140121F0D4C3C7F800C004E04FF0E06CC7F800C0D5
