S01600007468726561642D746573742D6170702E7333370B
S31508000000785D0020A9640308F1580308F558030829
S31508000010A70B0000000000000000FFFF54000008C6
S31508000020040D0300000000000000000000000000AE
S3150800003000000000000000000000000000000000B2
S31508000040000000000000000000000000930000000F
S3150800005000000000785D0020A9640308F158030831
S31508000060F5580308A70A0A0100010008040D03ACA5
S3150800007000269300000000000000000000000000B9
S315080000800000000000000000000000000000000062
S31508000090000000000000000000000000FFFFFFFF56
S315080000A0FFFFFFFFFFFFFFFF00E00708000000005B
S315080000B000000000FFFFFFFFFFFFFFFFFF0000003B
S315080000C00000000000000000000000000000000022
S315080000D000000000F07F002000000000E97F0020FB
S315080000E0E97F0020785D002058AF0308E06C03081C
S315080000F0A04E0020401F00200000080800800020B5
S31508000100785D0020A9640308F1580308F558030828
S31508000110FD580308F95803080159030878590308D4
S315080001207859030878590308785903087859030851
S31508000130055903087859030878590308AF0C0008CD
S31508000140BB58030878590308575A00087859030812
S31508000150F1810008DF5D000878590308785903081B
S315080001604D3F00083B1D00088F160008A501000832
S315080001707859030867590008AF590008855D0308D0
S315080001800F6601087859030878590308E95B0308DC
S31508000190012100F01F029140314A400942F820101F
S315080001A07047000070B52F4C2F4D607829684907B5
S315080001B027D5032825D2A18804EB40029181012185
S315080001C0A27801FA00F01043A070284A2078002887
S315080001D012D0002320FA03F6F60708D59940637073
S315080001E04840207004EB4300808A106009E05B1CDD
S315080001F0DBB2032BEED304E0106000F091F8032085
S3150800020060704FF6FF702860BFF35F8F70BD80B5D2
S315080002101448002101700022032141700021C17099
S315080002200521018100218170001D10490A604A607C
S315080002304FF400428A601022CA6048610120886132
S315080002400320C8600421084801644FF6FF71016065
S315080002500B20FFF79DFFBDE8014000F09FB80000A6
S3150800026000E100E0A066002010A8004004E000407D
S3150800027000F001BC2248012181604EF6BE21416092
S315080002800121016070471F49012008607047A528B1
S3150800029005D11B484DF6AD614160022101607047EA
S315080002A01748006810F0010018BF0120704780B594
S315080002B01549164A102008601549164800780300A3
S315080002C00BD003280CBF00200120106040F6510017
S315080002D00860002000F048FE06E0022010604FF497
S315080002E00060086000F08BFB0B48072101600021C5
S315080002F00164102009490860002002BD00000000C2
S31508000300006000400860004080E100E0080000400E
S315080003100C600040A87F002014A0004000E100E027
S3150800032070477047DFF8F43433F810001040C840BF
S31508000330704730B50FF2A454DFF8E43434F81040AF
S315080003409C601140DFF8D44434F810509543294393
S31508000350D96002221A6000221A6024F81010586820
S315080003600028FCD130BDDFF8BC24DFF8BC041278C5
S31508000370DFF8B8140AB149780EE0895611F1090F69
S31508000380B8BF302108DBC16D39B1C26D40F24A31C0
S31508000390B1FBF2F189B2C91E01607047E0B5DFF81A
S315080003A0900401880A2300F065F8BDF806104FF698
S315080003B0FF720D20FFF7BDFF07BDF8B50546B5F579
S315080003C0004FDFF868441AD1DFF868040188022371
S315080003D000F050F8BDF80000000AFF2801D001001F
S315080003E000D118206070BDF800000006C00E102865
S315080003F01CBF001D00F09FF9BDF80000C543DFF8DB
S315080004002464707808B1002005E0A089ADB2684080
S31508000410C00701D501207070DFF81C04A58105F01E
S315080004200104016841F4004101604FF440520FF2A3
S31508000430D04000EB4400C5F340074078010389B279
S315080004400220FFF776FF204600F0CEFD4022B901D4
S3150800045000F00EFA2D06A80E00F0010038433070A1
S31508000460FFF781FF707818B1FFF798FF00207070CA
S315080004700020F2BD7F22684600F03ABE2DE9F04F13
S31508000480DFF8BC43DFF8B473207887B00423049000
S315080004900D210B38C0B203906846039A00F0DAFEC5
S315080004A09DF800008DF80A009DF801008DF80900F6
S315080004B09DF802008DF808009DF803008DF80500E8
S315080004C0DFF880030078012806BF607880F0010510
S315080004D0012501F078FA82469DF9020003990AF18E
S315080004E00A06AAF10A09B042B6BF81454FF00108CB
S315080004F04FF0000801208840ADF806009DF801007D
S31508000500000604D47888BDF80610084201D04FF0DA
S31508000510010801F0F5FA9DF8030000060AD4B88828
S31508000520BDF80610084205D19DF90000B042B8BFD3
S31508000530814502DB4FF0010901E04FF0000948EA66
S31508000540050059EA000000F0A680DFF8FCB2BF49B2
S31508000550DBF80000BE4E400800F001008DF80400EC
S31508000560BC48006800F4E06005904FF4E06008605D
S31508000570002001F07DFE00F003FCADB1607858B1B3
S31508000580DBF80000AF4940084000CBF80000012026
S31508000590087000F0DAFC07E0306840F4005030607C
S315080005A0306820F480503060A6480078012812D1BF
S315080005B061780D4203D101F093FE01F0B6FFDBF836
S315080005C00000A04940F00100CBF8000000200870A8
S315080005D0642000F0BAFC607880F00100054203D080
S315080005E00498C0B202F03FF8607838B1306820F459
S315080005F080503060306840F400503060BDF8060026
S31508000600C543B8F1000F08D002F018F98DF80100BB
S315080006108DF802A0788828407880B9F1000F08D0B4
S3150800062002F0B9F98DF803008DF800A0B8882840C3
S31508000630B8809DF900009DF90A10884202BF9DF80E
S3150800064001009DF8091088420BD19DF902009DF919
S315080006500810884202BF9DF803009DF805108842DD
S3150800066006D0039904236A46C9B20D2000F002FE9B
S3150800067005987849086000F033FE9DF8040001F0FB
S31508000680F7FD02F0A8FA607828B148F26070306089
S31508000690642000F05AFC9DF8010002F03BF89DF832
S315080006A0030002F073F907B0BDE8F08F80B501F0DA
S315080006B07DF9BDE80140E1E601F078B970B5064676
S315080006C001F038FD0546A6F10B001028A6F10B042B
S315080006D001D38A2070BD60488168090702D4006882
S315080006E0C00701D58C2070BD554806705B48016867
S315080006F00C290FD00FF27C11594A92F90020A4B2A6
S3150800070031F824105118C161FFF7B8FE012D08BF52
S3150800071001F0B0FC002070BD10B5044601F046F9A2
S315080007202046BDE81040C9E74548007870473F486D
S3150800073090F9000070472DE9F0410446202514F190
S315080007402B0F86B049DB474801881423FFF792FE32
S31508000750BDF810004FF6FF71884203D0400448BF29
S31508000760012607D43F2200211020FFF7DBFD0026D3
S3150800077080F0200504F12B022F2A2C483A491AD278
S3150800078013220FF2301300E0521ED2B213F9127080
S31508000790BC42F9DB03EB4204032764780C600024AF
S315080007A013F81210017000218846C6B1BDF8101062
S315080007B04FF6BF7228E0092C0FDA025D0A60047052
S315080007C014232A480188FFF755FE4FF4C0514FF409
S315080007D080744FF080082827E7E78B2019E04FF44C
S315080007E0605200F045F84FF4E062214600F040F808
S315080007F08022414600F03CF8781980B24028A8BF0C
S315080008003F203F2280F0200100F032F8FFF7ABFDD1
S31508000810002006B0BDE8F08100000000F477002053
S31508000820E8100040B27F0020641000407C5E002083
S315080008307CAB030888AB03081C100040C47D00206D
S31508000840236100200E6100208020004080E100E046
S31508000850D010004000E100E060200040AC100040ED
S31508000860B17F002078AB0308C01000407AAB0308BC
S315080008700B205EE5AA21290055232900002528001A
S31508000880AA26270055282700002A2600AA2B260074
S31508000890552D2500002F2400AA30240055322300A8
S315080008A000342200AA3522005537210000392000DD
S315080008B0AA3A2000D500E601EC02EF03F204F4059B
S315080008C0F506F707F808F909FA0AFB0BFC0DFD0F00
S315080008D0FE11FF1300160119021C031F1000110058
S315080008E02000300040004100500060007000800089
S315080008F09000A000B000C000D000E000F0000000AA
S3150800090000000103DFF8E0145120086070472DE964
S31508000910F041DFF8D8640546F0780428B4BF3027DC
S3150800092060274FF4F070B0FBF7F41E2D24B201DBFC
S31508000930281B04D5A8B2BDE8F04100F006BB02F0BA
S3150800094085F900F028F870700721DFF8A404DFF8AD
S31508000950A42400F047F8291B09B27943C91C890861
S31508000960491EDFF89454DFF8807441602E6800F061
S31508000970B0F83C68386820F04000386002F06CF93E
S315080009803C602E6002F06CF900F0F6F94046BDE8CE
S31508000990F04102F06DB98046012080F31088704757
S315080009A038B5DFF84814C9780429B4BF3024602460
S315080009B04FF4F071B1FBF4F1451A1E2D04DAA121AA
S315080009C00FF2884002F05AF9DFF82404DFF82424ED
S315080009D0072100F007F805FB04F1C91C8908491E20
S315080009E0416031BD01600021416081604FF00071B6
S315080009F011607047DFF8F42301215170D0E72DE923
S31508000A00F041DFF8F863DFF8F84300253560256024
S31508000A104FF4A040606041F29A084046FFF777FF1E
S31508000A20706844F69041081A00B24FF4487190FB7A
S31508000A30F1F000B20828A8BF072004DA10F1080F61
S31508000A40B8BF6FF00700206008274046FFF75FFF32
S31508000A504046FFF75CFF706845197F1EF8D1281DD0
S31508000A60C00808BF0120DFF89C13B1FBF0F080B284
S31508000A706060BDE8F08138B5DFF88C5301206FF06F
S31508000A800F04A8602C608020FFF741FFE868FF2864
S31508000A9002D8641C102CF5DB31BD70B5DFF86C0389
S31508000AA0DFF85453016841F00101016001214160FA
S31508000AB002F0CCF82E68044600F00BF8CA4951201B
S31508000AC008602E6002F0CCF82046BDE8704002F0BF
S31508000AD0CFB8286840084000286002F0C1B810B5B1
S31508000AE0C24C0120207000202071C948816901F09C
S31508000AF00301032907D10020A070042000F060F844
S31508000B000120207110BD0F210160022181610120A1
S31508000B10E0706420BDE810406CE72DE9F041BD4C5B
S31508000B20BB4EA088B14F4FF6FF78404540F2DC55E2
S31508000B301CD1B948018802237F22201D00F0D8FA6B
S31508000B40A088404504BF0220A080B069800703D46E
S31508000B50B06940F00200B0610120B870A08830602A
S31508000B602846FFF747FF2846BDE8F081B269920795
S31508000B70EED5BA78002AF6D1B268B36812F0010247
S31508000B8003D10F2809D2401C06E09B0705D5237818
S31508000B901BB1032801DB4044A080A08822700228EC
S31508000BA0BCBF0220A0803068A1888842D4D1B06931
S31508000BB000F00300032818BFFFF76FFF0020D3E7F4
S31508000BC02DE9F047804695480178002569B9C0782F
S31508000BD0072818BF09280DD0032818BF112809D0DF
S31508000BE013281CBF15280B2804D08D48016841F42A
S31508000BF08071016002F02AF88146FFF7CDFE404673
S31508000C00FFF78BFF08B9012515E07B4F764E3C6848
S31508000C10386840084000386002F022F8D6F800A08C
S31508000C20306820F04000306002F016F8C6F800A0E0
S31508000C303C6002F015F800F09FF8484602F018F8F4
S31508000C402800D7D0BDE8F0870220B9E76848694A86
S31508000C50002141608160016821F0020101600021E4
S31508000C60624841704FF000711160817809B1002126
S31508000C708170C178012914D16A4901220A606A4A39
S31508000C801268D20748BF03210FD40222C270086C2B
S31508000C9040F001000864042064490860644908605B
S31508000CA07047C178042901D10521C17070474F48A2
S31508000CB04078002818BFFFF7C9BF01F016B82DE91C
S31508000CC0F8434A4C207908B354E001F0BFFF0546C3
S31508000CD0FFF762FEE078032813D0474EDFF8088155
S31508000CE000F0ACF8D8F80090D8F8000020F04000E2
S31508000CF0C8F8000001F0B0FFC8F80090376001F0AE
S31508000D00AFFF00F039F8284601F0B2FFE078032873
S31508000D10DBD1404E3E4DB08828604FF6FF7770888D
S31508000D20B8420CD14348018802237F22B01C00F048
S31508000D30DFF97088B84202D16420708001E07088BB
S31508000D4078B170883C494A6D42F001024A650A68E2
S31508000D50AB68DB07FBD50B689B1AC3F31303834207
S31508000D60F6D3FFF79AFE0420E0704FF4C870BDE88A
S31508000D70F2433FE6BDE8F183002080F31088704710
S31508000D802DE9F843194C2179207881F001010842B0
S31508000D901DD124E001F05AFFFFF7FDFDE078052894
S31508000DA010D0154E104D00F049F8D5F80090286877
S31508000DB020F04000286001F04FFFC5F8009037602A
S31508000DC001F04EFFFFF7D8FF404601F051FFE078EB
S31508000DD00528DFD10020A0700520FFF7F1FE0020CE
S31508000DE02070BDE8F183000000800040B67F002037
S31508000DF010E000E004ED00E094ED00E01040004053
S31508000E000C0000400060E316084000401C4000400B
S31508000E1004400040EA6000208CAB030896070808E7
S31508000E203840004018A000400C40004080E200E036
S31508000E3000E100E090AB03083820004037683068CE
S31508000E4040084000306001F00BBF0000636C6F6320
S31508000E506B732E630000000010B5002001F0C1FE80
S31508000E60594C40F68C2188422068B4BF40F00800EF
S31508000E7020F00800206010BD10B5044653480188CC
S31508000E8082B000F05DF89DF800109DF80100FF297A
S31508000E9002BFFF280420002122004D4A136818BF0C
S31508000EA0801C23F46073C0B20828A8BF072043EA51
S31508000EB0C010106008291068A8BF0721C00841EAB9
S31508000EC0C00010604348047013BD434800B501884C
S31508000ED083B000F035F8BDF800004FF6FF71884280
S31508000EE00EBF4FF4E1600A2190FBF1F0ADF8000067
S31508000EF03848007808B33548018802237F2201A8BC
S31508000F0000F0F6F89DF80500BDF80030FF2808BF88
S31508000F100420811CC9B20829A8BF0721C1F12F02E4
S31508000F2002EBD272C0F12F00521000FB0320C1F170
S31508000F302F01B0FBF1F0ADF80000BDF800000EBDC2
S31508000F4002237F22684600F0D3B824490A6803289A
S31508000F5009D34B6D43F001034B650B689B1AC3F32A
S31508000F6013038342F9D3704710B5040004D110BDAA
S31508000F704FF47A70FFF7E9FF2046441E80B2002836
S31508000F80F6D110BD20B1012807D0032818D019E0E2
S31508000F90134801B11721016012E049B1480800F170
S31508000FA0B77000F55850B0FBF1F0B0F1011F01D34E
S31508000FB0202070470B4900F001024A60400808608B
S31508000FC0002070472120704700BC00407EAB030814
S31508000FD018000040B47F002080AB0308382000408A
S31508000FE0100004E068C80040F0B5044689B0002047
S31508000FF0FFF742FF294801880A237F22684600F046
S3150800100077F8BDF802004FF6FF75A84205D14FF4F0
S3150800101081710FF2940001F031FE00260FF2A0074D
S3150800102001E02A4616B94FF47C4203E0022E08BFB7
S315080010304EF23F023DF81610B85DFFF77AF9761CB6
S31508001040052EEED3012C03D114237F22144802E087
S3150800105014237F22134801880FF26C0703A800F0B7
S3150800106047F800262A4608E02A46012E08BF4FF60A
S31508001070C07202D0082E08BF002203A830F8161046
S31508001080B85DFFF756F9761C0A2EEDD3012C04BF7E
S315080010900120FFF7F1FE09B0F0BD00007CAB0308A4
S315080010A07AAB030878AB0308616E616C6F67756588
S315080010B02D63656C6C2D626961732E6300000000F8
S315080010C000100C0D0E000000010203040708090AAF
S315080010D00B0F000038B514467F2C08BF0024314D8D
S315080010E029431A4604FB0311BDE8384001F0C8BE7F
S315080010F070B51E00044615461CD04BF2346081427A
S3150800110012D1092E28BF082633467F2240F612013F
S315080011102046FFF7DFFF32460FF2A801204601F00E
S3150800112018FF38B940F2A27133462A462046BDE870
S315080011307040CFE770BD2DE9F0410C4619490FF212
S31508001140780841EA0006C007154602D56C2100F06A
S315080011502FF8E80702D56D2100F02AF812488642D2
S3150800116004D3A819401E1149884202D36E2100F003
S315080011701FF8002706E0F05DFF2802D0752100F071
S3150800118017F87F1CAF42F6D36A082146304601F0AD
S315080011903EFF28B14046BDE8F0417B2101F06EBD17
S315080011A0BDE8F081000008080008080800100808D3
S315080011B0404601F063BD00006D66672D746F6B6570
S315080011C06E2E6300FFFFFFFFFFFFFFFF30B50FF234
S315080011D00411DFF8F8500A6883B001A800240260F9
S315080011E001202870002001F057FF30B1002001F0DF
S315080011F053FF10B12C7049203EBDDFF8D40001889A
S3150800120002237F220DF1020000F024F802237F2238
S315080012100021684600F01EF8002001A9BDF802204A
S3150800122031F81010914208BF0124401C0228F4D35B
S31508001230BDF8000024B1B0F57F7F07D100203EBD80
S31508001240B0F57F7F14BF0420062000E007200021A8
S3150800125029703EBD10B5FF2907DC1C4C247844B123
S31508001260BDE81040C9B202F0CFB9BDE81040FFF79B
S315080012703FBF10BD2DE9F0410546FF2D0E46174626
S3150800128098460FF2540012DC104C2178A1B161780F
S3150800129011B1BF2101F0F2FC0120607043463246CD
S315080012A03946E8B202F01DFB0020607004E0BDE894
S315080012B0F041CA2101F0E2BCBDE8F0810349097892
S315080012C0002918BF02F019BC70470000A97F00204A
S315080012D084AB0308FE01FD02746F6B656E2E630016
S315080012E010B5DFF8B0471020206301F0AFFCDFF837
S315080012F0A8170A6842F001020A6001F0B9FCDFF893
S315080013009C07606020608A306168893161600121CC
S315080013102163E060A060DFF88817E0688930E06044
S31508001320022020634FF6FF70086010BDDFF87407CF
S3150800133045F26401C1601E21416250210162C82143
S31508001340C1618165F021C16545F690014166882134
S3150800135081660621C16644F2066101604FF6FF7197
S315080013604160DFF84407007838B1DFF8400748F2F3
S31508001370607101604FF4C1514160DFF834070168BC
S3150800138041F0040101600020DFF828174870704713
S31508001390DFF80C070068C00700D408E07047DFF8DC
S315080013A00007006810F0190F00D100E0704700210F
S315080013B0002002F0F6BC2DE9F04F804683B0DFF836
S315080013C0F816012002F09BFD8A21DFF8D00601FB02
S315080013D008F14518681C4178007800EB0120DFF811
S315080013E0DC1609781FFA80F9DFF8D406017000EBDD
S315080013F0080A00208AF802005FEA896003D5DFF848
S31508001400C446606E000640F1A080002609F0070772
S31508001410032F18BF012F70D109F4406009F4404129
S31508001420B0F5806F1CBFB1F5804F002965D0042246
S31508001430B0F5006F08BF082203D0B0F5406F08BFAB
S315080014400E225FEA49605CBF921CD2B2B1F5004F2A
S315080014500CBF901C02F10800C0B200900098401C16
S3150800146000EBD070C005000E01905FEA0800019BF2
S3150800147014BF6068206898423FD3A818B1F5404F5A
S31508001480DFF844B602D102F0BCFD06E04078A95C5C
S3150800149001EB002080B202F095FD0146FF290FD02E
S315080014A0012F03D102F0C4FE06460CE0DBF800006B
S315080014B030F811004FF45671084204D0012602E0B4
S315080014C0032F08BF0126C6B15FEA097015D45FEA83
S315080014D00800019914BF60682068491C884207D231
S315080014E0E0685FEA080114BF022101210842EED133
S315080014F00098285C042818BF0026E06D000900F053
S31508001500010086428AF802001FD0002EA26C4FF412
S3150800151000604FF480610BD0B8F1000F08BF084691
S31508001520024212D0606C40F00100606401200AE0BB
S31508001530B8F1000F08BF0846024206D0606C4008A2
S315080015404000606400208AF80200BDE8F78F2DE9A4
S31508001550F84F0446DFF86C55DFF8646520000CBFC9
S3150800156028686868C1B2052905DAFFF711FF7068AF
S31508001570401C706089E040008DF800008A2000FB5E
S3150800158004FBDFF818859DF8000008EB0B094844B2
S3150800159010F8081D427802EB01211FFA81FA8178BA
S315080015A066318170317819B9DFF81015097831700C
S315080015B03178DFF8EC740170002131704170386CB5
S315080015C020F4805038642000686E02D1786840059F
S315080015D004D4012C23D17868000520D5FFF7D8FE5E
S315080015E0DFF8E804017891B1002101701AF4E45F8C
S315080015F0DFF8DC04016802D00022402005E099F8F3
S315080016000100000900F001028F2003F09CFB200076
S315080016100CBF4FF480604FF40060786030E01AF435
S31508001620E45F2BD100F021FE10B15FEA4A4025D5D0
S3150800163018F80B00802821DA386C99F80110890609
S3150800164026440ED5696E09060FD4A96CC9060CD4B2
S31508001650396822000CBF80224FF48072084010427D
S3150800166003D1FFF795FE0020B070B2789DF8001000
S31508001670484603F015FC0020B07001E0FFF788FE2D
S31508001680002C0CBF012002202861BDE8F18F2DE94E
S31508001690F84FDFF80C44DFF82C642068216CDFF87B
S315080016A034B4DFF82884DFF83094DFF80CA401EAB4
S315080016B000053AE071B18A22DFF8E0135043084486
S315080016C04078C00606D4DFF80804016800228F2097
S315080016D003F039FB280608D50FB9FFF759FE03F0C2
S315080016E08EFB802025F080052060E80509D50FB916
S315080016F0FFF74EFE03F083FB4FF4807025F48075E8
S315080017002060680407D50FB9FFF742FE4FF4804002
S3150800171025F480452060280407D50FB9FFF738FE61
S315080017204FF4004025F400452060002D73D00027B3
S31508001730280706D50020FFF73EFE082025F00805F5
S315080017402060E80606D50120FFF735FE102025F0B3
S315080017501005206005F06000602803D1B06CC00554
S315080017600AD401E0A80605D52020206025F020052A
S31508001770002006E0680606D54020206025F04005D2
S315080017800120FFF7E4FEE80404D54FF4805025F461
S3150800179080552060E8079DD5012020606D0802F07D
S315080017A03DFB6D0078B14FF448725146012002F0B6
S315080017B049FB02F081FA40054CBF032001200021B5
S315080017C002F0EFFA012799F8010008B100F096F93E
S315080017D099F80000002806D000F0B6FC012807D1C9
S315080017E098F8000000283FF475AF9BF8000004281D
S315080017F07FF470AFF068400800F00100002814BFBD
S315080018007168316811B92168C904F7D5002814BF71
S31508001810716831684EE700202060BDE8F18FDFF877
S31508001820BC02006870470020DFF8B41201EB4002E2
S31508001830401C93885B1C01EB40019380498809B9D9
S315080018400828F1D3704738B50446FFF7ECFFA44DD6
S315080018501022291D204601F013FB05F1140120462C
S3150800186003F018FDFFF7DFFF05F11401281D03F04B
S3150800187011FD214605F11400BDE83840102201F09B
S31508001880FFBAF8B5974D2E78044601202870300027
S3150800189008D10021032001F047F90F2701F05FF96D
S315080018A07F1EFBD104B126702878F2BD10B58D4C89
S315080018B0217881F00101084303D101F08CF9002059
S315080018C0207010BDF8B5FFF7BEFF0024844E002532
S315080018D00F2701F044F97F1EFBD1311DC0F380109C
S315080018E031F81410A8404840311D6D1C21F8140029
S315080018F0102DEDD3641C102CE9D3F1BD38B5044680
S31508001900FEF7CEFC08B1FEF7BEFC10252046FFF711
S31508001910D9FF6D1EFAD1724901200870FEF7C0FC86
S3150800192008B1FEF7B0FC012032BD2DE9F0436C4F3B
S315080019300446387885B088469146012530B9FFF7C0
S31508001940A0FF05466846FFF7D9FF054000261FE0B9
S3150800195016F0070015D15FEA090006D00020FFF748
S3150800196090FF05406846FFF7ADFFFFF75CFF1022C2
S31508001970391D684601F084FA07F11401684603F038
S3150800198089FC06F007013DF8110024F81600761CBC
S315080019904645DDDB6846FFF756FF0020FFF786FF62
S315080019A0284605B0BDE8F0830022BEE703210220E1
S315080019B001F0BAB84FF6FF71081A292190FBF1F029
S315080019C03A3040B2704738B501F0C9F8FFF7F2FF70
S315080019D0454D04462878B0B90321032001F0A4F840
S315080019E04248018802237F226846FFF781FB01F0FF
S315080019F0B6F8BDF80010401880B2FFF7DBFF1538BF
S31508001A0068700120287001F0E6F86878201A40B25C
S31508001A1032BD80B50321022001F086F8BDE80140F9
S31508001A20D1E770B532480078002490B9FFF7F1FF86
S31508001A30204E0546707848B13078401B40B203F016
S31508001A402FFC0B2805DB3570012402E001203570D8
S31508001A507070204670BD27480078704725490B7876
S31508001A60984200D1704780B5087040B122490020DD
S31508001A7008600948016821F08001016001BD00F095
S31508001A802BFC00F001FC00F0B3FBBDE8024000F0BF
S31508001A9097BB00000020004084200040CE7D002037
S31508001AA000A000404C10004024610020D0100040E7
S31508001AB080200040C07F00209F130008236100207B
S31508001AC03078002020200040205E00200C7D002079
S31508001AD0147D00200D610020BC7F002038200040C6
S31508001AE038780020C27F0020BE7F002082AB030822
S31508001AF00E610020C37F002054100040704700008C
S31508001B0010B50D48018884B00A237F226846FFF77E
S31508001B10EFFABDF800004FF6FF74A04204D14F213A
S31508001B200FF2180001F0AAF8BDF8001022460020AE
S31508001B30FEF7FFFB1FBD00007CAB0308616E616CFE
S31508001B406F6775652D66696C7465722E6300000093
S31508001B50DFF8A407007848B1DFF8A0070179012962
S31508001B6004BF4079042801D101207047002070473E
S31508001B70010644BF4FF6F83101EAC0007047491C18
S31508001B80800189B2B0FBF1F080B2FF288CBF00203B
S31508001B90C0F1FF00C0B2704738B5DFF86807C178F2
S31508001BA009B1002032BDDFF86847617871B1E17884
S31508001BB0007945182079ADB28542A8BF054603F0DD
S31508001BC088FB0121A940491E084000E000206179F0
S31508001BD00818C0B232BD2DE9F0470446C00705D53E
S31508001BE040F29B110FF2A87001F048F8DFF824576D
S31508001BF0286DC00748BF8C2075D4DFF80807DFF8C2
S31508001C00107700210170417829B9397819B1A96F7F
S31508001C1041F0010102E0A96F49084900A967DFF808
S31508001C20DC867A7898F80610DFF8EC96DFF8EC662A
S31508001C3092B1002202710129286D40F0040028653E
S31508001C4006D14FF6FF7030604FF40070C9F80000F7
S31508001C50FFF7A2FF82460CE0286D20F00400012958
S31508001C6028654FF0000A04D100F031FA6420FFF726
S31508001C706CF9A86F20F00800A8671420E864C5F876
S31508001C8048A0787838B198F80600002801BFA86CF3
S31508001C9000280120A864B8790028286D14BF40F0F0
S31508001CA0080020F008002865FFF752FF18B1306CCD
S31508001CB040F008003064202028626C602C60686858
S31508001CC0DFF85C167F306860042028624FF4E06015
S31508001CD00860DFF850160968C9F80000286D40F05A
S31508001CE0010028650020BDE8F087DFF83C060021E2
S31508001CF041608160016821F0020101604FF00070C7
S31508001D00DFF8281608600120DFF8241608707047E7
S31508001D10332800D2704710B5B0F5002F0CD2DFF883
S31508001D20104600212170FEF73BFE02E0012003F079
S31508001D30EBFA20780028F9D010BD2DE9F84FDFF826
S31508001D40DC85DFF8C055D8F80000D8F84010DFF871
S31508001D50C47501EA0004A4B2C8F8004068780028EF
S31508001D6040F0D380E007DFF8CC65DFF8A4954CD5C2
S31508001D70D7F800A0386C796C41EA0041A96099F857
S31508001D80000000283DD09AF80100800639D50120C8
S31508001D902870FFF7DDFEC0B31920FFF7D6F8DFF885
S31508001DA098B54FF44040CBF82800DBF800000090C7
S31508001DB0F06E40F40050F066F06E40F48050F06625
S31508001DC09AF80010A8684901B83101EB000AFFF734
S31508001DD026FDAAEB0000C0F31300FFF799FFF06E8B
S31508001DE040084000F066F06EBDF800100843F06643
S31508001DF00020CBF8280048F26070F066E88830606A
S31508001E0003E00022002002F09EFF20060ED5287867
S31508001E1030B1002028700022A968402002F093FF04
S31508001E20D8F83C0020F48050C8F83C00600608D575
S31508001E30687830B9FFF7F3FC01460022892002F0E2
S31508001E4082FFE00652D5DFF8B4A4DFF8CCB49AF8DE
S31508001E500400012804BF9AF8061001291FD100F0D2
S31508001E6064FB386F40F001003867002400208AF8C8
S31508001E700600FFF735FA0A20FFF767F84FF6FF70F6
S31508001E80C8F800004FF4E060CBF800000920B866F7
S31508001E900120B864B86F40F00800B86718E02979DF
S31508001EA0491C2971C9B299F80220914215D2012814
S31508001EB008BF00F0DFF8B86F20F00800B8671420F4
S31508001EC0B866FFF769FEB8644FF40070CBF80000F7
S31508001ED0386D40F00100386508E0687830B9FFF7DA
S31508001EE09EFC014600228D2002F02DFF20070CD50E
S31508001EF0FFF72EFE48B13068E88001203060D8F838
S31508001F00400020F00800C8F84000A0060AD52020A6
S31508001F103862687830B9FFF782FC014600228820CB
S31508001F2002F011FF687820B114F4407F04BF012045
S31508001F30A870BDE8F18FDFF8C8130028086814BF39
S31508001F4040F4404020F440400860704770B582B0C5
S31508001F500546FEF7B1FBDFF8EC03DFF8AC43DFF824
S31508001F609C63002101601521E160092101651F219B
S31508001F70416001210166DFF8C8030088FEF71DFAF3
S31508001F80FFF7D4F903F078FC00F035F9308900F052
S31508001F905FF9708900F064F900F058FE616841F055
S31508001FA04001616000F064FE707800F0F5F8B078E2
S31508001FB000F006F9DFF89003007800F033F9DFF84F
S31508001FC08C0390F90000FEF7B6FB307800F050F964
S31508001FD096F9030000F058F9DFF8740300F076F973
S31508001FE0BDF80000DFF86C13C0054CBF0020BDF833
S31508001FF000000870DFF860030078FEF75FFB28B181
S3150800200040F2F2310FF2883000F038FE012D07D188
S315080020102068C00704D500F02DF8002000F060F90C
S3150800202085B92068C0070DD4012000F059F900F0E1
S315080020307CFA206840F001002060C820FEF785FF82
S315080020400020B071F120DFF8D452286440F2F9106C
S31508002050E86301F0E3FEFFF76EFFFFF741F920683A
S31508002060C00704D54FF6FF70286000F05EF8FEF74B
S3150800207087FE73BD70B5DFF8E452DFF880422E683C
S31508002080A079012822D000F0E1FDB6B2DFF890224F
S315080020902E604FF4E0611160DFF8A0120A6A520858
S315080020A052000A620A68520852000A600A6842F038
S315080020B002020A604A6A42F001024A620121A171DB
S315080020C000F0D6FDBDE8704000F00FBA70BD70B5DF
S315080020D0DFF82842A07938B300F027FA00F0B6FDF9
S315080020E00546DFF87C12894E01200860306D40F005
S315080020F0010030650020A071FFF7F2F8202030605B
S31508002100306B40F002003063F06D40F00800F06577
S31508002110284600F0ADFD0A20FEF717FF7F494FF667
S31508002120FF70086000F001F870BD4FF4E0607A496E
S3150800213008607047714880797047704800790128AF
S3150800214008BFFFF797BF70476C480079704780B59E
S31508002150022801DB012002BD684908718979884295
S315080021600BD028B9012000F0BBF8FFF7B0FF04E058
S31508002170FFF780FF002000F0B3F8002002BD794881
S315080021800068800200149A3801B211F1800FB8BFB6
S315080021906FF07F0040B2704710B5044600F056FD58
S315080021A071490A68002C04D042F012020A60012123
S315080021B003E022F012020A600021504A517040E002
S315080021C038B5054600F042FD0446FFF744FC40B921
S315080021D065482900016814BF41F0800121F080019B
S315080021E00160464885702046BDE8324000F040BD93
S315080021F04248807870475D494A780B785C4803EB1B
S31508002200022202608B78CA7803EB022242600B79BD
S315080022104A7903EB02228260CA79897901EB0221A5
S31508002220C160704710B5044600F010FD4E49220003
S315080022300A6814BF42F0200222F020020A604249CE
S315080022400C70BDE8104000F013BD2C48008970479B
S315080022502A490881474908607047284840897047D5
S3150800226026494881444908607047444800787047C1
S31508002270254902000A6814BF42F0020222F002024F
S315080022800A601E490870704738B504467F2C0AD183
S315080022903B4800F01BF8BDF80000C00554BFBDF868
S315080022A000406FF04A0400F0D1FC0546FFF7D3FB67
S315080022B030B964B204F19A0080053249000C08600E
S315080022C00E48C470284600F0D3FC31BD01880223AD
S315080022D07F226846FEF70CBF084890F9030070474E
S315080022E006498979012906D127490B7898421CBFE6
S315080022F0087000F05DB97047D87F0020086100209B
S3150800230040A000400C7D0020802000403020004086
S31508002310905E00201020004000E100E004A000408C
S3150800232080E100E0A820004010E000E004ED00E0B5
S31508002330D97F002064100040E4100040602000406F
S31508002340885E00205C100040D77F00207C5E00205D
S315080023508EAB0308B17F0020236100201C100040CB
S31508002360281000400C10004084200040F47C002017
S3150800237098200040942000409020004028610020CA
S3150800238092AB030854100040DA7F00207047000023
S315080023907068792D636F6D6D6F6E2E630000000097
S315080023A038B50120FEF7B9FB0020FEF765FD6D4C38
S315080023B0206840F008002060FDF75CFFFEF74CFD42
S315080023C069496A480A78C2604B78694AD360694B9A
S315080023D08D78DD608D880560CD8845600889106038
S315080023E04889506088891860C889586000F07DF867
S315080023F0206820F010002060FDF709FF03F06EFA50
S31508002400FEF722FCFDF734FFBDE83140FDF74FBF6C
S3150800241040F2016003F0FEBA8A68037802F00F0200
S3150800242003F0F0031A438A604378514AD360514B4C
S315080024308478DC60C4880C60018911604189516028
S3150800244081891960C0895860704710B5FEF747FB47
S31508002450FEF702FD49494448FFF7DEFF00F045F85C
S3150800246000F006F8FEF72BFCBDE8104003F0ABBC05
S315080024703C48016821F010010160FDF7C8BEF0B5BF
S315080024800F249D0004FA05F51668284212D0002587
S3150800249005EB830720FA07F7FF0708D5AF0004FA0C
S315080024A007F731F813C0BE4307EA0C073E436D1C15
S315080024B0042DEDD31660F0BDF0B5FF25DE00B5405E
S315080024C0146828420FD0002505EBC30620FA06F744
S315080024D0FE0705D50126AE40CF5CB4433E403443E3
S315080024E06D1C082DF0D31460F0BD2DE9F8430021CA
S315080024F0002001F056FC01F097FC214C206890B1B1
S3150800250000271D4DDFF8648000F03CF87F1C032F80
S31508002510FAD30027002600F03DF800F042F87F1CA9
S31508002520761C032EF7D3BDE8F1832DE9F84301F0B5
S315080025307CFC134C206890B100270B4DDFF82C80EB
S3150800254000F020F87F1C032FFAD30027002600F09E
S3150800255021F800F026F87F1C761C032EF7D3BDE879
S31508002560F183000000BC0040B85D002000B00040C8
S3150800257000B2004000B40040C85D002004B000402E
S315080025804467002008EB472000F10C0220683B4610
S31508002590294691E708EB46292068FBB24A46291DD9
S315080025A06DE77F1C2068FBB209F10402291D66E766
S315080025B0002818BF03F09ABC03F099BC80B503F055
S315080025C0E7FC01460FF250000B2938BF00EB8100EB
S315080025D002BD000010B503F0DBFC044603F0DCFC8A
S315080025E0C0B208B9012C07D1072C11D8DFE804F0CE
S315080025F004100608080A0C0E002010BD092010BD9C
S31508002600022010BD032010BD0B2010BD062010BDF2
S3150800261044F0800010BD0000554E4B00464942006C
S3150800262042544C00455854005057520057444700EE
S315080026302053570043525300465348004241440032
S31508002640464C54002A490A68520852000A600A6829
S31508002650104308604FF400412648016000210160DC
S315080026606420FEF772BC2DE9F047234D204FD5F8BC
S315080026700090224C8046286840F40040286038685C
S3150800268020F480503860207868B162781C48A178B8
S3150800269000EB820200EB880012F82A2C10F82A0CAC
S315080026A0891A461802E0012020262070B0B2FFF7EA
S315080026B0C9FF0FF2500A02E0B0B2FFF7C3FF386B4A
S315080026C0042805D0386B400754BF761E761CF3E7FE
S315080026D0F86A38B184F80180A6701FFA89F0286074
S315080026E0BDE8F0874FF49071504600F0C7FAE6E768
S315080026F0D0100040181000401C100040E67F002053
S3150800270074080008616E616C6F6775652D76636F76
S315080027102E63000081014FF4FE5289B20C20FDF7AA
S3150800272008BE2DE9F84F8B4CDFF82CB2A568206857
S315080027301FFA80FA00F04FFA0127B020ADB2002642
S315080027404FF00A08B946206308E016F1190FB8BF1A
S315080027504FF00A08464436B27019A060DBF800004C
S31508002760000702D559EA070028D00120FEF7EDFB3D
S31508002770B9F1000F11D0AAF10300874202DAFF1C53
S31508002780BFB213E00AF5004020600621092000F0D8
S31508002790CBF957464FF000090BE0DBF800000007BD
S315080027A007D5042FA6BFFF1EBFB2002707F50040B6
S315080027B020601A2EC9DB6FF00908CBE7A560C4F8BC
S315080027C000A00820CBF800006448006880B2BDE885
S315080027D0F28F80B55E4B62491B784FF0FF326BB1C2
S315080027E0002819BF4A605F48486041F21110086026
S315080027F05D4841880088BDE8044092E7002819BF73
S315080028004A600A604860086000F0E5F9BDE80440DF
S315080028100621092000F0D9B938B50120FFF7D9FFFC
S3150800282004460020FFF7D5FF05460120FFF7D1FF34
S315080028304042001B00EB450000B232BD2DE9F04FC7
S315080028404A4C4B4D424F83B0A06AADF802004FF098
S3150800285000082068ADF80000D5F800B0387858B1FF
S315080028604FF6FF7200210820FDF75CFD8046C02266
S31508002870C0210820FDF75DFD3E48DFF8FC90007892
S3150800288018B148F26070C9F800007888364E40F4EE
S31508002890404040F04C00C9F83C000220A0620120EC
S315080028A0206040F24C40FEF750FB0120E8602860AB
S315080028B00020308040207080387800B12020FFF753
S315080028C029FFFFF7A9FF8246402030807F207080CD
S315080028D0FFF720FFFFF7A0FF00F050F8FE2148435E
S315080028E00190AAEB060A387848B1304602F0D8FCBF
S315080028F000F044F8019980B201EB861103E000F07C
S315080029003EF8019980B2B1FBF0F080B2401CC603D4
S315080029101FFA8BF028600020E86002202060BDF8CE
S3150800292000002060BDF80200A0620020C9F83C0043
S31508002930387828B14FF6FF7241460820FDF7F9FCB2
S3150800294040F24C40FEF701FB300CBDE8FE8F00005C
S3150800295014610020C010004018A00040007000401C
S3150800296038100040EEEEFFFF907F00206020004008
S315080029702810004024610020D0100040064650462A
S3150800298002F08EBC41003F2289B201E001463F2297
S315080029900220FDF7CEBC2DE9F04F564C564D95B0AA
S315080029A0E06CADF810004FF6FF782068ADF80E0021
S315080029B04246E86AADF80C0000210120FDF7B2FC9A
S315080029C0ADF80A00424600210B20FDF7ABFCADF836
S315080029D0080000264FF4004020600DF1140B00207B
S315080029E02861686148F2020000F088F84CF68C30DD
S315080029F0E0644FF4805248F2F000E8621146012084
S31508002A00FDF797FC424600210B20FDF792FC0621B4
S31508002A10062000F0DAF8019000F082F800904CF6F3
S31508002A209C30E0640020FFF7ADFF0621062000F089
S31508002A307BF8B0B2FFF7A6FF0621062000F074F86F
S31508002A4000F08DF82BF81600761C202EF1DB00F02E
S31508002A5086F81020FFF796FF00F062F80099019AB1
S31508002A60401ABBF820108E1A404306FB06094FF0A1
S31508002A70100A112700F04EF800F052F800F043F85B
S31508002A8005DB1FFA87FA7F1C202F8146F2DBBAF195
S31508002A90100F0ED10F2700F03DF800F041F800F0B6
S31508002AA032F806DB1FFA87FA7F1E3FB2002F8146EF
S31508002AB0F1D5BDF81000E0644246BDF80E0020606E
S31508002AC0BDF80C00E8620120BDF80A10FDF731FCDC
S31508002AD0BDF8081042460B20FDF72BFC01202861A3
S31508002AE0002000F00BF84FEA4A00C0B215B0BDE866
S31508002AF0F08F0000C010004018100040286040F217
S31508002B004C40FEF722BA0099401A404306FB0600DD
S31508002B10484570473BF817000199461AB8B231E79D
S31508002B200621072000F051B870B505460E4603F099
S31508002B3049FA3F4C206C20F00800206403F044FA60
S31508002B4000F084F8E90141F001013A4A41EA063108
S31508002B50116008212160BDE8704000F089B82DE9B0
S31508002B60F041354C354D324E25E003F02BFA344909
S31508002B7004200860306C40F0080030642F6828682C
S31508002B8040084000286000F06BF8D4F80080206800
S31508002B9020F04000206000F05FF8C4F800802F6045
S31508002BA000F05EF8306C274920F0080030640420F5
S31508002BB0086003F009FA30680007D6D508203060A7
S31508002BC02148006880B2BDE8F08180B5FFF7ACFF08
S31508002BD0BDE80140C3E71748016849084900016094
S31508002BE07047F8B50746FEF770F9044639460320DC
S31508002BF0FFF7EBFF054639460120FFF7E6FF0646D5
S31508002C00FDF78FFB39460020FFF7DFFF0746FDF784
S31508002C1087FB08480168490849000160781B0004D9
S31508002C20711BB0FBF1F060434000000CF2BD0000E0
S31508002C3018A00040047000400080004094ED00E0B9
S31508002C4000E100E080E200E000700040EFF3118050
S31508002C50602181F31188704700BF30BF00BF7047FD
S31508002C60BFF35F8FBFF34F8FBFF36F8F70470000BF
S31508002C7080F311887047000042DE704738B5044675
S31508002C800D46FDF700FBFFF7E1FF2946204603F056
S31508002C909FF92B4622460FF2D411012003F0FCFBC4
S31508002CA029462046BDE83440E6E767482DE9F0475F
S31508002CB0664D01682E1D4FF420687165016AB1657D
S31508002CC063490968F165416A3166816A7166C16A54
S31508002CD0B166016BF166806B306796F83400400781
S31508002CE04CBFF46BB46B02F028FF0022F2648442F6
S31508002CF0584A014624BFA2F1200AA2452746316553
S31508002D0005F18C03DFF850C1DFF850E118D3A0694C
S31508002D103064E4697464746DC4F30804062C13D132
S31508002D20704511D360450FD200884DF64264A04223
S31508002D300AD13068586040F201787068986003E0FC
S31508002D4000273764776407464548814202D2014620
S31508002D5000E0091D0846904203D20C68B4F1CD3F45
S31508002D60F7D04049081AB0640021002005EB80041A
S31508002D70401C0628A167F9D3002003E0C0B205EB82
S31508002D808004A167974222D252F8041D7145F9D3EF
S31508002D906145F7D2CC07F5D5002405EB8409D9F8A7
S31508002DA07890894502D0641C062CF6D3062CE9D106
S31508002DB0002814BF401E0520E0E7716F002405EBCC
S31508002DC08402641CD76F9767052CF8D319600146EF
S31508002DD0481EC9B20029F0D1706DC0F30800022858
S31508002DE00AD0032815D0042816D0052817D0062897
S31508002DF018D00C281CD01EE01B480168890748BF5C
S31508002E0040F602181CD40068C00719D540F20258CB
S31508002E1016E040F6012813E040F6022810E040F6D6
S31508002E2003280DE0B8F5206F0AD140F6042807E01C
S31508002E3040F6052804E018B1242838BF40F60728CC
S31508002E404046BDE8F087000004ED00E000000020E1
S31508002E5000E300E0785D0020E06C030890010008BC
S31508002E6098000020785D00201CA000400D0A5B41F8
S31508002E7053534552543A25703A25645D0D0A0000AD
S31508002E80814233D210441144401E491E10E011F805
S31508002E90013900F80139121F11F8013900F8013912
S31508002EA011F8013900F8013911F8013900F801392A
S31508002EB092B2042AEBDA93B2002B1EBF11F801393D
S31508002EC000F80139521EF6D1704711F8013B00F897
S31508002ED0013B121F11F8013B00F8013B11F8013BB9
S31508002EE000F8013B11F8013B00F8013B92B2042AB5
S31508002EF0EBDA93B2002B1EBF11F8013B00F8013B39
S31508002F00521EF6D1704710E011F8013B00F8013B5C
S31508002F10121F11F8013B00F8013B11F8013B00F8BC
S31508002F20013B11F8013B00F8013B92B2042AEBDAA7
S31508002F3093B2002B1EBF11F8013B00F8013B521E4D
S31508002F40F6D17047130003D00A46194603F0E4BACF
S31508002F50704710B500E0521E93B223B100F005F891
S31508002F60F9D0181B10BD002010BD10F8013B11F850
S31508002F70014BA342704700004148018A40F6A772F8
S31508002F80914202BF408A4FF47F41084203D102288A
S31508002F9001DB01207047002070472DE9F84F824673
S31508002FA08846384DDFF8D4B0FFF750FE2F68044640
S31508002FB02868400840002860FFF752FE01208BF879
S31508002FC00000FFF7D9FF28B94FF483710FF2B80054
S31508002FD0FFF754FE2A48D0F8289041464AF48070F4
S31508002FE0C84706462F60FFF73BFE2046FFF740FE20
S31508002FF000208BF800000FF298040EB1A05D04E0E3
S3150800300041464AF40070C847205CBDE8F28F2DE9B6
S31508003010F84F804689464FEA420A1A4EFFF716FECF
S31508003020376805463068400840003060FFF718FEEC
S31508003030FFF7A2FF28B94FF4A4710FF24C00FFF76F
S315080030401DFE0F48D0F824B0002352464946404694
S31508003050D84704463760FFF703FE2846FFF708FE01
S315080030600FF22C050CB1285D05E0534600224946AF
S315080030704046D847285CBDE8F28F0000BB7F002099
S315080030800000080894ED00E0666C6173682E630022
S31508003090000202024B4B46477FB504460F22FF212A
S315080030A06846FFF74FFF1A4E6422FF213046FFF7A6
S315080030B049FF0F25002017490A5C012A1CBF26F87C
S315080030C010505519401C0F28F6DB0FF24C054FF42B
S315080030D0E04000F0DCF818B19D212846FFF7CEFD48
S315080030E04FF4804000F0D3F818B19F212846FFF727
S315080030F0C5FD4FF4805000F0CAF818B1A121284642
S31508003100FFF7BCFD6946204600F0EFF804B070BD35
S31508003110E06600201072030873696D2D656570728C
S315080031206F6D2E630000000010B5DFF8944ADFF8D3
S31508003130143B2488001B06E010B5DFF80C4BDFF8BB
S31508003140043B24681B1B03EB4000002304E030F813
S31508003150134021F813405B1C9342F8DB002010BD96
S315080031602DE9F04182B004460D4616460027DFF8E1
S31508003170D48A01E0BF1CFFB2B74217DAE819E95D45
S315080031804078DFF8C83A1B8801EB0020ADF800004C
S31508003190012207EBD77004EB6000C01A00F09CFB15
S315080031A00100E7D002F05EFE002000E00120BDE845
S315080031B0F681F8B504460F46154600260DE000F0E0
S315080031C019F8BDF8000004EB4601000A48707F1C98
S315080031D0BDF8000004F81600761CB6EB550FEEDBBA
S315080031E0E80706D500F006F8BDF80000611901F8F1
S315080031F0010CF1BD01226946B8B295E7DFF8C0298E
S31508003200DFF8401A1288801A01EB40010220FFF706
S31508003210C4BEDFF83C1ADFF83C2A095C125CDFF80A
S31508003220383A185C10B102F5997292B241EAC210A6
S3150800323080B27047DFF8183ADFF8202A1B5C012BAA
S315080032401CBF32F81000081802EB4000704738B56A
S315080032500C46DFF80C1A0D782A462146FFF764FF5C
S31508003260208801001CBF4FF6FF7188420BD0012051
S3150800327000E0401CC1B2A94207D2C0B234F810100F
S3150800328022889142F5D0002032BD012032BDF0B52A
S31508003290DFF8B41987B008600C2269460020FFF7EA
S315080032A04BFFBDF81600BDF80C200346040A0120A2
S315080032B000254FF6FF763DF81570BDF80010B942A7
S315080032C003D1B74218BF002F00D100206D1C062D70
S315080032D0F1DBB21A914218BF0020DBB2C4F1FF013C
S315080032E08B4218BF002007B0F0BD2DE9F24F044607
S315080032F0DFF870690020307070809CB0DFF86809CC
S315080033000088ADF8020007A9FFF7A1FF8346012050
S31508003310707009A9DFF854090588DFF85409B0F870
S315080033200080DFF89C080788BDF802A03846FFF73A
S315080033308EFFB8B1BBF1000F3DD0BDF81C10BDF82B
S3150800334024004FF6FE72914202D1012804D10CE006
S31508003350012908BF90422ED00846BDF8241088429D
S3150800336029D202E0BBF1000F24D00020707002972A
S3150800337050460695CDF810800122DFF8E41891F83A
S3150800338000804044ADF806006946BDF80600FFF720
S31508003390CBFEDFF8E008008805904FF6FF79BDF808
S315080033A00000000B404518BF0F2801D1200021D08E
S315080033B0002516E0012470780028D8D03846CDF8C4
S315080033C008A0CDF818800495D6E7059805FB00F403
S315080033D0E01900F05DFCBDF80200201800F058FC6A
S315080033E06D1C4545F1DB012030704D2002F03AFD99
S315080033F00025F7E0BDF80650012201A92846FFF787
S3150800340093FEBDF80400C04300F0FF00ADF80400C9
S315080034106F1CDFF864080588BDF80400A84218BFC9
S3150800342001244FF0000A20E0401CC1B2A94218D27C
S31508003430C0B2DFF84818BDF80E20834631F81B10D5
S315080034409142F1D1FFF7E5FE4FF680710840BDF8CD
S315080034500C104FF680721140884204BF1C9800F881
S315080034600BA00AF101001FFA80FABDF80400824594
S3150800347007DA022203A9B8B2FFF756FEBF1C0020DE
S31508003480D3E7002001E0401C80B2A84217DA1C9955
S31508003490095C8142F7D0012411E02AF81070BDF8C2
S315080034A0060000EB4300401C00F0DBFABDF8020002
S315080034B0C0F3C710401C00EBD07007EB60070498F8
S315080034C0DFF898A7BFB287420EDA00F099F8BDF880
S315080034D00000484508D0030A00F07F01BDF8040043
S315080034E07F1C834202DB012400252DE0002000E03A
S315080034F0401CA842D3DA1C9A125C9A42F8D1C0B290
S31508003500FF28CCD0DFF84827125C7F290CBF4FF084
S31508003510000C8C4694450BDABDF800C0DFF838E796
S315080035201EF800E04FEA0C6C4FEADC7CF44501D04B
S315080035300124B4E7012AB0D07F293AF8100008BF61
S3150800354000210818A9E76D1CDFF8340700888542B2
S3150800355004DA3AF815004845F5D10124778004982D
S31508003560BFB2874207DA00F04BF8BDF800007F1CAF
S315080035704845F4D039E7002CFCD1029801220BA962
S3150800358080B2FFF7D1FDBDF82C0048450DD105E006
S31508003590401C80B2202813DB2034A4B20699029A74
S315080035A0891A8C4205DB0120307000201DB0BDE869
S315080035B0F08FA51820220BA9A8B2FFF7B5FD0020A9
S315080035C00BA931F810104945E2D0A8B2FFF716FE4C
S315080035D0203CA4B2E0E70298059905FB010000F03B
S315080035E057FB6D1C4545F6DB01203070494600F057
S315080035F046F818B100F035F90028D6D10120D5E7EC
S315080036000122694638468FE52DE9F0420F46DFF874
S315080036106816DFF8405609888F42044616469946CA
S315080036200CD2DFF82C16C95D30467F2808BF00206B
S31508003630884203DAE95D894500D11CB940F2D541D3
S3150800364000F00BFA31463846FFF7F4FD0188DFF83B
S315080036500806C05D60B1384600F035FAE95D012913
S3150800366008BF207009D0022914BF2060208004E01A
S315080036704A462046BDE8F0429BE5BDE8F0822DE9C2
S31508003680F34FDFF83C05DFF8D8150488DFF8D405D2
S315080036900978407883B000281ABFDFF8CC0500887F
S315080036A020460D18DFF8D0050088ADF80800ADB241
S315080036B0C04300F0FF0000EB013000F55060ADF8A4
S315080036C002002B1BDFF87C0501220DF1020100F038
S315080036D0E3FA6E1C0100B6B23AD10025DFF89C75F4
S315080036E013E0E8B2FFF795FDADF80400331B37F891
S315080036F01500ADF806000222DFF8480500F0CBFAFF
S31508003700010025D1B61CB6B26D1CBDF8080085426D
S31508003710E7DB002500E06D1CBDF80800854280F255
S315080037209B80DFF83405405D8DF80A004FF0000AEB
S315080037301BE001220DF102011FFA89F0FFF7F4FCE4
S31508003740BB19DFF8000500F092F9010009F101093B
S315080037507AD17F1CFFB2B7EB1B6FEADBDFF82405D3
S31508003760405D8619B6B20AF1010ADFF8E404475D3E
S315080037705FFA8AF0B842CED25FFA8AF1E8B2FFF76A
S3150800378059FD80469DF80A00B8F80090C00140EA45
S315080037900520ADF80000012FBDF800000EBF40F06F
S315080037A07F005FFA8AFA4AEA0000ADF80000311B8A
S315080037B0DFF8900400EB41004FF6FF71771C89454E
S315080037C01EBFBDF80010BDF810209142BFB219D136
S315080037D09DF80C100029C6D001226946FFF717FC90
S315080037E001003E4630D1DFF86C04A8F80060425D5F
S315080037F0DFF8940450F825103046FFF7B1FC00288E
S31508003800ACD124E0DFF84C14495D491C01EBD171B9
S315080038104FEAC15B01226946FFF7F9FB01003E4604
S3150800382012D1A8F800609DF80A0098B14946E8B296
S3150800383000F049F90190331BDFF808044FEA1B62D0
S3150800384000F029FA010089D002F00CFB002005B02F
S31508003850BDE8F08F00277DE7DFF8080446800120E1
S31508003860F5E7DFF804042DE9F0410688DFF8500390
S31508003870DFF8F05304886878DFF8C883002882B038
S3150800388012BF20463046264601226946FFF74CFC01
S31508003890BDF8000001280CBF4FF6FE70401EADF8BB
S315080038A00000DFF8BC0307783846471E58B1BFB298
S315080038B0B819001B012200F00FF80100F4D002F03D
S315080038C0D1FA002006E0687880F0010068700020D0
S315080038D028700120BDE8F681694608EB4000FFF72D
S315080038E096BB2DE9FE4F0D46DFF88C1309888842F2
S315080038F0044617461E464FF000094FF001080ED23F
S31508003900DFF84C13095D38467F2808BF0020884237
S3150800391005DADFF84013095D8E4200D11DB940F281
S31508003920F95100F09AF839462046FFF783FC0190D2
S31508003930CC4F787820B1CD48B0F800A0A04803E075
S31508003940CB48B0F800A0C8483978008849B97988C2
S31508003950081ACE4909888842B4BF4320442002F099
S3150800396081FA01980188BC48005DF8B1204600F04C
S31508003970AAF8012E08BF297803D0022E0CBF298881
S315080039802968814267D001980088401E00F069F8CE
S31508003990BC48065D7888AAF10101891B814201DBD2
S315080039A0002837D1387868BB452046E00291CB46D7
S315080039B022E002980BEBDB7300EB630000F002F9E0
S315080039C005EB0B0015F80B10407801EB0020711E73
S315080039D08B4580B207D1BDF8001001F0FF0100F059
S315080039E0FF00ADF80010BDF8001088420BF1020088
S315080039F018BFC8465FFA80FBB345DADBB8F1000F9B
S31508003A00C1D028E0BDF802100020FFF738FE10B339
S31508003A104FF0010978888F49401C788080B20A5D8A
S31508003A202946FFF79DFBB0B1654C7B8824888548FD
S31508003A305B1E00F01CF8010002D002F013FA0AE03F
S31508003A40B9F1000F02D0FFF70CFF20B10199788871
S31508003A50088030187880BDE8F78F0FF24420FFF70A
S31508003A600DB901220DF1020180B2FFF75DBB1B1BE8
S31508003A7001220DF1020100EB4300FFF7C8BA70B549
S31508003A8082B004460025192601226946A0B2FFF72E
S31508003A904BFBBDF80000641C48B14FF47F41401A47
S31508003AA002D0FF3806D007E0681C40B276BDAD1CD0
S31508003AB0761EE9D168B276BDBDF80000C0B200B97D
S31508003AC06D1CE843F1E738B50C46002100916149C1
S31508003AD00D5C2A4621466846FFF76BFB681C00EB1F
S31508003AE0D07004EB600080B2FFF7C9FF002848BF1A
S31508003AF0C043009940B2401832BDF0B55E49098806
S31508003B000446564883B0254630F815608C4202D2E2
S31508003B105148405D18B940F23D71FFF79EFF4D4888
S31508003B20455D681C00EBD07006EB6007B8B2FFF77E
S31508003B30A6FF322814D2BFB2C10707EB6000204F98
S31508003B40404B3F884CBF00214FF47F41ADF804102D
S31508003B50C01B012201A903EB4000FFF758FA60B128
S31508003B6031462046FFF7AFFF00902B46401C0090D9
S31508003B707F2269462046FFF7B4FEF7BD70B539487F
S31508003B80017882B00024C1B94078002814BF3648AD
S31508003B900B480588324806780BE0F6B2701900F033
S31508003BA011F8BDF8000000281EBF4FF6FF718842C5
S31508003BB0641C3046461E0028EFD1E0B276BD0000F0
S31508003BC0687503080122694680B2FFF7ADBAF8B5F1
S31508003BD0244C20780027002832D11C4805886078B4
S31508003BE000281ABF204806882E461D4807783846FA
S31508003BF0471E02281DDBFFB2B819FFF7E3FFBDF821
S31508003C0000000028F3D01B48008807FB006000F07E
S31508003C103FF80020ADF80000BB190A485B1B0122DB
S31508003C20694600F039F8010018BF02F01BF938465A
S31508003C30F2BD3046FFF7E2FAF8B208B90120207063
S31508003C40F8B2F2BD00E007082C7800206875030872
S31508003C501072030800720308F0710308E06600207A
S31508003C6064750308CA7D00206C7503086A75030825
S31508003C706E7503086675030872750308D071030824
S31508003C8074750308787503082875030870750308A2
S31508003C9080B2FFF7B3BA01A900EB4300FFF7B7B943
S31508003CA073696D2D656570726F6D2D696E746572B9
S31508003CB06E616C2E63000000604840687047F8B576
S31508003CC05E4F7D68044600265D48044214BF0226FE
S31508003CD07C6024EA0500C00307D50021002000F017
S31508003CE040F80021002000F05CF830000CD178681C
S31508003CF000F4804005F48041884205D0A00B00F00E
S31508003D00010000F08EF806463046F2BD38B54B4C39
S31508003D10A578E0786168C9031CD405F0010100F0B4
S31508003D200102114316D0E16841B1000706D5E168E2
S31508003D3008208847E07800F0F700E070A06868B1CE
S31508003D4028070BD5A16808208847A07800F0F70057
S31508003D50A07003E0607808B100206070BDE83140CB
S31508003D6064E02DE9F04104460D46FEF76FFF334F38
S31508003D7080463878012698B1BE78200009D1002EF1
S31508003D801CBFB868002804D0700602D5B968402060
S31508003D908847BD60A6421CBFBC70FFF7B7FF002668
S31508003DA01EE02DE9F04104460D46FEF74FFF234F6E
S31508003DB080463878012698B1FE78200009D1002E71
S31508003DC01CBFF868002804D0700602D5F9684020A0
S31508003DD08847FD60A6421CBFFC70FFF797FF0026C8
S31508003DE04046FEF745FF3046BDE8F08138B5134D2D
S31508003DF02978884204460FD0200007D100210020E8
S31508003E00FFF7CFFF00210020FFF7ABFF2C702046FD
S31508003E10FEF791F800F00AF8002032BD074800784E
S31508003E20704700B102207047704700BF0348017809
S31508003E30002141700020FDF711BE000048670020F0
S31508003E40FFFC0FF82DE9F84305460E4630001446E8
S31508003E5005D1FDF7E4FC2018C0F313004DE02F460A
S31508003E60022F0FF2501803DB40214046FEF706FFEB
S31508003E70102C05D22846B047BDE8F143FDF7CFBC64
S31508003E80DFF8209159F8270018B148214046FEF777
S31508003E90F5FEB4F5002F03D349214046FEF7EEFEA2
S31508003EA049F82760404F414E95B9FEF7CFFE0546C3
S31508003EB0FDF7B5FC2418A0B27860200C3860022003
S31508003EC030602846FEF7D4FE306C40F0020011E060
S31508003ED0FEF7BCFE0546FDF7A2FC2418A0B2F86062
S31508003EE0200CB860042030602846FEF7C1FE306C0E
S31508003EF040F004003064C4F31300BDE8F28370B5E3
S31508003F0004462646022E0D4604DB66210FF2A4005F
S31508003F10FEF7B4FEFEF79AFE224951F82620AA4279
S31508003F2010D1002241F82620002C20490A6C04D121
S31508003F3022F002020A64022203E022F004020A6462
S31508003F4004220A60BDE87040FEF792BE70B5174CB1
S31508003F50144E2068216C01EA0005ADB2A80709D500
S31508003F60206C20F0020020643168080002D000208E
S31508003F703060884768070AD5206C20F00400206462
S31508003F807168080003D0002070600120884725600A
S31508003F9070BD02F088BB010008BF01200201044978
S31508003FA000204FE7807D00204020004008A0004008
S31508003FB0933F000873796D626F6C2D74696D657235
S31508003FC02E630000F8B5274D2E68040001D1FF20A6
S31508003FD0F2BDFEF73BFE244F29683A7821F81240D5
S31508003FE036F8021BA142FBD1FEF742FE29683A7851
S31508003FF0B01E401A4010C1B2914208BFFF20C0B29D
S31508004000F2BD2DE9F843194C174D266881462878E4
S3150800401006EBC007FEF71AFE8046082249463846D0
S31508004020FEF72EFFF88800E00836F188814202BFC5
S3150800403031883A889142F7D171887A88914202BFCD
S31508004040B188BA889142EFD14046FEF711FE206842
S315080040502A78301AC010C1B2914208BFFF20C0B2F8
S31508004060BDE8F283245E00201B610020285E002044
S3150800407038B502F09EFCFEF7E9FDDFF8384A05463A
S3150800408020784200DFF8300A0068FF21FEF75AFF61
S315080040902078C200DFF8240A00F035F820784200BC
S315080040A0DFF81C0A00F02FF82846FEF7E1FD207815
S315080040B08200DFF8100A00F026F820788200DFF880
S315080040C0080A00F020F8DFF8040A227800F01BF846
S315080040D020788200DFF8F80900F015F820788200C9
S315080040E0DFF8F00900F00FF820784200DFF8E80959
S315080040F000F009F8DFF8E419002008800120DFF84D
S31508004100E019088031BD00680021FEF71BBF2DE9C4
S31508004110FF47DFF8D0090078C00756D50024DFF836
S31508004120B459DFF89869DFF89079DFF8888948E0AC
S315080041300E2322460E216846FDF78CF8684602F0E3
S31508004140ACFC5FEA000A3AD0FEF780FD814603F030
S31508004150FFF8CAF309010843396821F81400082250
S3150800416030680DF1020100EBC400FEF789FE9DF8E8
S315080041700000DFF84C190968C20605D531F8142085
S3150800418042F0010221F81420020705D531F814205F
S3150800419042F0040221F81420400705D531F814002E
S315080041A040F4005021F814004846FEF761FD0DF171
S315080041B00A01002002F09EFC296841F82400641CCC
S315080041C0E4B298F800008442B2DBBDE8FF8770B518
S315080041D0DFF8EC4824680022002302E024F8135094
S315080041E05B1CDFF8D0582D78AB4209DA34F8135047
S315080041F06E07F5D501220E0014BF05438543EDE78A
S31508004200104670BD002100E0491CDFF8A8381B786D
S31508004210CAB29A420AD2DFF8A8281268C9B232F896
S31508004220112002408242EFD10120704700207047DA
S31508004230002070472DE9F84307460C46DFF87C58FE
S31508004240DFF87C68DFF87098DFF8688809E0D9F845
S31508004250000030F817004FF6FF71884215D07F1C12
S31508004260FFB298F80000874211DA002CEFD03068C8
S3150800427010F81700C007F2D5286800EBC701082216
S315080042802046FEF766FE0028E9D1384600E0FF2002
S31508004290BDE8F283002000210AE0DFF8242812682E
S315080042A0C9B212F81120D20744BF401CC0B2491C3B
S315080042B0DFF800381B78CAB29A42EED3704700215D
S315080042C000E0491CDFF8EC371B78CAB29A4209D2DB
S315080042D0DFF8E4271268C9B232F811208242F0D119
S315080042E001207047002070472DE9F84304468846A8
S315080042F0914600F0BCFA05462E46FF2E04D1002151
S3150800430000F0B6FA054612E00899B1B1002002F0AD
S31508004310F1FBDFF8B01700F020F80ED3099900205A
S3150800432002F0E8FBDFF8A01700F017F805D3FF2D19
S3150800433003D02046FFF7C3FF08B1FF200BE007B9FB
S315080043401E2700974B4642462146284600F00BF8A2
S3150800435000B9FF252846BDE8F283096851F82610FA
S31508004360401C884270472DE9F04F8146DFF8540714
S31508004370006887B01F46CA4650F82A30884616464F
S3150800438052460FF66C01032003F029FD109C24B950
S31508004390F2210FF67C00FEF771FC0125B80748BF2D
S315080043A044F20105380758BF45F00405F80758BF19
S315080043B045F08005780748BF45F400554FF6FE706E
S315080043C0DFF8F476804501BF386830F81A804FF672
S315080043D0FF70804516D102F0BBFFDFF804170A8884
S315080043E0C2F3090300F47C4040EA0308501C80B27B
S315080043F0B0F5006FA8BF012008804046FFF75FFFB1
S315080044000028E8D1FEF722FC8346DFF8B0060068EC
S315080044100822314600EBCA00FEF732FD386820F85C
S315080044201A80DFF89C06006820F81A505846FEF7EE
S315080044301FFCDFF8A0B6DBF8000040F82A40DFF8DA
S31508004440A80690F90010484600F04BF8484602F0D6
S315080044509CFA386830F81A00C0F3090103A802F07C
S3150800446026FB9DF80C0040F010008DF80C0068073C
S3150800447005D59DF80C0040F008008DF80C00A8043E
S3150800448005D59DF80C0040F004008DF80C000822B4
S31508004490DFF82806006800EBCA010DF10E00FEF7EA
S315080044A0EFFCDBF8000050F82A200DF11601002079
S315080044B002F001FB0E2303AA49460E20FCF7DAFE9A
S315080044C0FFF7E8FE034630780FF254710290424631
S315080044D070780190B0780090192003F080FC0120D4
S315080044E082E338B50446FF2C0D460ED003F075FE60
S315080044F0DFF8E4150968800A21F8140015F1800F21
S3150800450003D0DFF8E8050068055531BDDFF8A415C6
S3150800451010B50978884204460AD203F05EFEDFF831
S31508004520B815096831F81410C1EB902080B210BD97
S31508004530002010BD2DE9F14F0C46DFF8A0A500219B
S315080045405046002703F07BFEB84614E010222946A1
S315080045502046FEF7FEFC38B94846FFF7D7FF0FB1ED
S31508004560404501D280465F461035B542EED35946DE
S31508004570504603F093FE83465FEA0B0014D0584674
S3150800458004F02BFB0546584604F03FFB2E18002D79
S31508004590F5D015F8019B9DF80010894501D15846BC
S315080045A003E0002CE3D0E0E73846BDE8F28F2DE9BA
S315080045B0F04F804613204FF0000B95B018708946CF
S315080045C083F801B09F1C924603AC4D46002600971F
S315080045D007E0082204F1090101A8FEF751FC4FF093
S315080045E0010B287801064CBF0921112109EB0A02A3
S315080045F069188A422CD3010606D411222946204678
S31508004600FEF73EFC113511E0611C00F00F0004F0C6
S3150800461081FE402818BF0935E3D128782070082282
S31508004620691C04F10900FEF72BFC0935601C04F02F
S31508004630ADFE0028CDD1F6B2032ED2DA601C05F005
S315080046409EFF10B96078FF28CBD11134761CC8E7D5
S315080046505FEA0B0018BF761C3001441C0021404657
S31508004660E4B2FFF767FF012C8246DFF8705405D1E4
S315080046705FEA0A0012D000F060F80FE05FEA0A006D
S3150800468005D004F0C2FAA04212DA00F056F800216A
S31508004690204604F0B8FB5FEA000A03D1384615B095
S315080046A0BDE8F08F00225146284603F0D0FD08E009
S315080046B0504604F0AAFA844203DA2146504604F02A
S315080046C0BDFA504604F089FA8146BBF1000F09F895
S315080046D0018B03AC16D0484604F04CFE082201A90B
S315080046E009F10800FEF7CCFB09F11009761E09E06E
S315080046F01022611C3846FEF7C3FB1037761E1134AC
S3150800470009F11009F0B290B11022611C4846FEF773
S31508004710B7FB207807F8010B20780006E8D50822B1
S3150800472004F109013846FEF7ABFB0837E6E70098BF
S315080047300099381A01F8010CB0E7002251462846BC
S3150800474003F0D6BD38B50024DFF8685302E000F060
S3150800475006F8641C2978E0B28842F8D331BD1FB543
S3150800476004460021684602F0A2F9082200210DF14C
S315080047700200FEF7E7FB042200210DF10A00FEF70E
S31508004780E1FB0E236A4621460E20FCF773FD1FBD8A
S315080047902DE9FE430446FFF77DFDC84EC64F316836
S315080047A0C74DA04601EBC801431E0A783868029235
S315080047B04A7801928978009130F818200FF28441DE
S315080047C0192003F00CFB386830F8180007F08AF84F
S315080047D0286830F81800400404D5204600F039F857
S315080047E007F043FCFEF732FA8146306808220021BA
S315080047F000EBC800FEF7A6FB2968002021F8180080
S315080048004FF6FF70396821F818004846FEF730FA67
S31508004810AC4909684FF0FF3041F82800AA490968F1
S3150800482041F828000020AA49096841F82800AA4941
S31508004830096821F8180000212046FFF77BFE0100D1
S3150800484003D00022A54803F053FD2046BDE8FE43E9
S3150800485085E79B49096811F81010C90704D59649D8
S31508004860096831F8100070474FF6FF7070471F4609
S315080048700020DFE480B5FFF7A5FBFF2804D000F091
S3150800488010F80006800E11E0002002BD80B5FFF783
S3150800489099FBFF2803D000F004F8800B06E00020FF
S315080048A002BD8749096831F81000704700F0010019
S315080048B002BD80B5FFF786FBFF2804D07F4909684B
S315080048C001EBC00002BD002002BD70B50022794987
S315080048D001E0521CD2B20B789A4213DA784B1D6863
S315080048E035F81260B307F4D5784B1B689C56241A22
S315080048F014F1400FBDBF4FF6FD73334025F8123053
S315080049009C54E6E770BD2DE9FC416D4F15463A68A3
S31508004910064612F816208846920718466B4903D4AD
S315080049200B686FF07E029A550968314407F0C2FE9B
S31508004930E0B13868644F30F81610624C41F0020155
S3150800494020F816100195434638680FF21C3150F8C6
S3150800495026000090206850F82620032003F03FFA2E
S31508004960206840F82680386840F82650BDE8F3816C
S3150800497000200FE05249096811F81010890708D578
S31508004980504A1268002142F820104F4A126842F82D
S315080049902010401C474909788842EBDB70472DE90F
S315080049A0F041054684B09046FFF761FF0446FF2CA8
S315080049B022D04348006810F8140080071CD502A8C6
S315080049C007F072FE28B940F2A6210FF24420FEF73E
S315080049D055F93E4800680299025751180291012F6D
S315080049E00CBF39493749096801EB840602994145E4
S315080049F006D1306885420AD2002004B0BDE8F081AD
S31508004A00FAD20119404607F055FE0028F4D0012FC6
S31508004A100CBF26A026A06D1C01900095224633687F
S31508004A200FF28421182003F0DAF935600120E4E753
S31508004A303EB5054608F002F8214C80B101A905F1FA
S31508004A40080007F092FF01A90020FFF7F3FB0146D3
S31508004A50FF2904D0226812F81110890725D429469F
S31508004A60FF20FFF767FD010004D004F0B6F808B18F
S31508004A7000783EBD284607F0E1FF18B9284604F03D
S31508004A8085FC88B1694605F1080007F042FF58B170
S31508004A90BDF80000FFF796FA0146FF2904D0226800
S31508004AA012F81110890700D4FF203EBD6D6C650011
S31508004AB06D6163001B610020245E0020285E0020D3
S31508004AC0205E0020345E0020385E00203C5E002018
S31508004AD02C5E0020305E0020405E0020E47E002030
S31508004AE0F06000206E780020F4600020445E00200C
S31508004AF02DE9F04FFF2806BF01250020002587B0C5
S31508004B000446DFF8C090DFF8C0A0DFF8C080304E5A
S31508004B1001E0641CE4B2327894425DDA1422002182
S31508004B2002A8FEF70FFA2B48006830F81410CA07D7
S31508004B30EFD5490705D5BDF8081041F00101ADF8D4
S31508004B40081030F81400400405D5BDF8080040F0F8
S31508004B500200ADF808000822D8F8000000EBC401EE
S31508004B600DF10A0002F00BF8DAF8000050F82400FC
S31508004B70059000272046FFF7C9FCADF8180000216C
S31508004B802046FFF7D7FC83460020BBF1000F08D06C
S31508004B90584604F022F8471C584604F036F8401EDA
S31508004BA00011D9F80010095D8DF81A10C0B20190ED
S31508004BB0009702AB32782146002008F013FA002D40
S31508004BC0A7D111E0445E0020305E0020285E002058
S31508004BD01B610020205E002000200190009002AB9F
S31508004BE01146012008F0FEF907B0BDE8F08F000075
S31508004BF0696E697469616C697A65206368696C6451
S31508004C00202564206F6C642066633A2564000000E2
S31508004C106368696C642D646174612E63000000002A
S31508004C20616464206368696C642030782532782072
S31508004C306374202575206C6F6E67203A3A257825AF
S31508004C407825780064656C206368696C6420307820
S31508004C50253278206374202575206C6F6E67203A9C
S31508004C603A25782578257800736574206368696C19
S31508004C7064206672616D6520636F756E7465722057
S31508004C806F6C644D61633A2564206E65774D616388
S31508004C903A2564206F6C644D6C653A2564206E6510
S31508004CA0774D6C653A2564006368696C64206964AD
S31508004CB03A202564206F6C642066633A2030782594
S31508004CC03458206E65772066633A20307825345844
S31508004CD020747970653A25730000000038B50446DB
S31508004CE06048614D002912BF00210178491C0170F6
S31508004CF00120012109F06CFC2878411C89B20320A7
S31508004D0009F066FC200003D0FEF7D6FF002808D578
S31508004D10FEF7D2FF40054CBF032001200021FFF714
S31508004D2020F8524844702846BDE8384001224FF41E
S31508004D30806109F091BC80B5FDF7FFF9BDE8024036
S31508004D40312009F0C6BD38B50446402C154606D1B3
S31508004D50FEF7B2FF00F08020B0F1004F03D000212B
S31508004D600020FEF7FEFF002C3AD0402C24D0882CD9
S31508004D7018BF892C38D08C2C38D08D2C2DD08F2C60
S31508004D8039D13B48007804280FD155B1394902205A
S31508004D9008704CF25032BDE8384037490020FFF71A
S31508004DA051B8FDF7CAF9312021E0FDF7C6F9002D03
S31508004DB00CBF312000201AE0FDF7BFF909F067FEA5
S31508004DC028482E4900780978884204D2BDE834403C
S31508004DD00021012082E7402009E009F053FC03E0A6
S31508004DE0FDF7ABF9002002E0FDF7A7F98D20BDE835
S31508004DF0324009F06EBDBDE83440B42145E01D4897
S31508004E000078022800D0704780B51D480078012830
S31508004E1007D0032810D11B480078022818BF7C2821
S31508004E200AD115490020FFF76AF8FDF786F9BDE8AB
S31508004E300240002009F04DBD01BD38B5FDF706FF5B
S31508004E4005460C480078002410B9FCF7EAFD04462C
S31508004E502846FDF70DFF1CB1BDE8314001F000B84A
S31508004E6031BD0000E07F0020F07E0020905E00202B
S31508004E700D610020D17F0020374D000829610020F0
S31508004E80E17F0020E27F0020E9210FF20800FDF70C
S31508004E90F5BE00006D61632D7068792E6300000011
S31508004EA070B50446AF480D460178164619B14188D3
S31508004EB0491C418070BD204609F0F0FD80B1FDF720
S31508004EC097F938B1A078002E14BF40F0010000F021
S31508004ED0FE00A07029462046BDE870402E2200E05C
S31508004EE070BD70B504460D461646601C01F0D2FD2D
S31508004EF010F0070F1ABF41F6490188420026012122
S31508004F00002009F065FB2078411C89B2022009F0CF
S31508004F105FFB32462946204604F012F818B1BDE870
S31508004F20704002F005BA8F488188491C818070BD9F
S31508004F302DE9F04FA5B004F04EF88A4E81467088E8
S31508004F4000250100A84609D000908D220FF24823BB
S31508004F500FF23021072002F0A4FF7580B1880800FF
S31508004F600DD00D2009F034FBB0880FF238230FF26C
S31508004F70142100909322072002F093FFB5805FEA80
S31508004F80090042D003F029FE040018BF2578601CEA
S31508004F9001F080FD10F0070F1BBF41F6490188425A
S31508004FA0C3464FF02E0B484603F02FFE2018CBF1D0
S31508004FB000010844A0F10801082202A8FDF760FFD5
S31508004FC002AFF878FCF7D4FD2946FCF7D8FD8346EE
S31508004FD097F902008DF8040063480078B0B1B0680C
S31508004FE0002812D004A8802109F05CFD6B1CCDF8BE
S31508004FF00080DBB20022494604A804F00BF89DF9AC
S315080050000420B368594604A89847A7E0484609F01B
S31508005010FDFE0028554D1ED00521484604F042F8ED
S315080050208246032001F008F8514F52490AF007005A
S315080050303870FF20087084F801B09DF80400A0704D
S315080050409DF80800E07048460AF0B7FB0328484672
S3150800505002D10BF0EFFE73E00AF09FFB00F00500AB
S31508005060042807D03878032804D1484609F07CFC80
S31508005070002865D102F0C0F918B102F0BDF901287F
S3150800508002D13878002869D1F268100004D00021CE
S3150800509048469047002861D12878032818BF042875
S315080050A005D002282AD134480078C00726D402F051
S315080050B0A3F9032822D148460AF037FCB0F5004F79
S315080050C01CD148460AF054FC2C490988814215D05F
S315080050D048460AF062FB000710D448460AF05DFB12
S315080050E0400602D53878012808D00FF2C0030FF21F
S315080050F09401F222072002F0D4FE2FE02878042833
S3150800510004BF3878012809D11D495FEACA6081F8C9
S31508005110008003D509F0F3FA4FF00108387820B17A
S3150800512001280AD0032804D00AE048460BF0ECF818
S3150800513006E048460CF018FE02E048460CF062FE0F
S31508005140287804280AD10E48007888F00101084218
S3150800515004D00B490020087009F0D1FA25B0BDE843
S31508005160F08F0000187D00200D7D00206A78002051
S31508005170E17F0020E27F00206E7800202A5F002071
S31508005180817F002069702D6D61632D726563656985
S3150800519076652E6300000000666C616720782575C9
S315080051A0000000006D656D20782575006E6F74200F
S315080051B066726F6D20706172656E74002F49486063
S315080051C000200870704710B52C4C2278616800F0F2
S315080051D003F80120207010BD2DE9F0410446284847
S315080051E00068C0050D46904604D071210FF2A8004C
S315080051F0FDF744FD234F244E3868002818BFB8F140
S31508005200000F02D03068854203D0284600F028F8FF
S3150800521035608020386006211C4801600721396006
S3150800522001688907FCD5216809BAB962616809BAB3
S31508005230B962A16809BAB962E16809BAB9620168CE
S315080052404907FCD5386B00BA2060386B00BA606035
S31508005250386B00BAA060386B00BAE060BDE8F08130
S3150800526002680B4912BACA60426812BA8A60826832
S3150800527012BA4A60C06800BA08607047707D00209C
S3150800528004ED00E000300040787D002010A00040CA
S315080052903830004000229FE76165732E63000000E6
S315080052A0002848BF4042704701468AB20AB94BF601
S315080052B0EF610F4A000C08BF4FF6CE2011805080D0
S315080052C070470288130448BF4A40510001801046BF
S315080052D0704738B5064C62212046FFF7F2FF0546AF
S315080052E041F20B01A01CFFF7ECFF684032BD00003D
S315080052F0E4600020012100F01F029140DFF8282514
S31508005300400942F8201070472DE9F04FDFF8204594
S3150800531091B061681091072808BF032006D00828B5
S3150800532008BF022002D0052808BF0420DFF804556C
S3150800533029686A6841EA0221AA6841EA024100919D
S315080053406968490703D5E16941F00201E161296805
S31508005350490703D5E16941F00401E1610099EA6969
S31508005360D140C90703D5E16941F00801E161401E52
S31508005370DFF8B864DFF8C07400210328316000F252
S315080053804682DFE810F01C0206001B00040061607C
S3150800539014E0386CC00703D5E06940F04000E061CE
S315080053A0386C400703D5E06940F02000E061386CAE
S315080053B0800703D5E06940F01000E061FDF746FC80
S315080053C0FAF76EFF8DF83C000120DFF87014DFF85D
S315080053D070A4C1F50041090B00FA01F1491ECAF88B
S315080053E038104FF00009090A07D1DFF85814097870
S315080053F019B1616C41F020016164396CDFF84884A9
S31508005400DFF848240E91796C0D91D8F84C100C9160
S31508005410D8F850100B91D8F854100A91D8F85810AB
S315080054200991DAF800100891DAF804100791DAF809
S3150800543014100691DAF824100591DAF8341004915C
S31508005440DFF80C1409681268039202222260DFF85A
S31508005450042412688DF80420DFF8FC2312688DF8FE
S315080054600520DFF8F82312688DF806204FF0FF3282
S315080054706262DFF8B4231368DB040AD56B68DB07BE
S3150800548007D5E369DB0704D5336843F4807381469F
S31508005490336013689B040AD56B685B0607D5E36916
S315080054A0DB0704D5336843F48043814633601368C9
S315080054B05B0412D5009BD5F818C023FA0CF3DB075A
S315080054C00BD5E369DB0708D53368D5F818C000FAA9
S315080054D00CFC4CEA03038146336013681B0414D59D
S315080054E0009BD5F81CC023FA0CF3DB070DD5E3693E
S315080054F0DB0702D4E3691B0707D53368D5F81CC058
S31508005500814600FA0CF0184330603868800707D5E2
S31508005510E069C00604D5F07840F0010000F080F993
S315080055203868400707D5E069800604D5F07840F06A
S31508005530020000F075F93868C00707D5E06940062B
S3150800554004D5F07840F0040000F06AF91068C0034A
S3150800555007D5E069000604D5F07840F0080000F0A9
S315080055605FF900206A68D2076A6848BF4FF480501E
S315080055705206009AAB6948BF40F40050DA40D20799
S31508005580009AEB6948BF40F48040DA40D207E269E6
S3150800559048BF40F40040D20605D4E269920602D418
S315080055A0E269520601D540F01000E269120648BFCA
S315080055B040F4803008400290A520FAF768FE0120E2
S315080055C0E063E069A16B11B1616A0142FAD0616AD0
S315080055D0014200F0C5800020E063F07840F040000A
S315080055E0F07000F0EFFC0498CAF834000720386021
S315080055F00F20C8F800000DF07DFE109894496060F1
S315080056000E9838640D9878640C98C8F84C000B9876
S31508005610C8F850000A98C8F854000998C8F85800FD
S315080056200898CAF800000798CAF804000698CAF845
S3150800563014000598CAF8240002980860834903985C
S3150800564008604FF0FF30864908608248006830706D
S3150800565081480068707081480068B070606AE169C6
S31508005660EA693368084001994B4000990B400106E6
S31508005670490E01F0010143EA81230106890E01F072
S31508005680010143EA81030106C90E01F0010101FA8D
S3150800569002F200051A4300F07C5010433060FDF713
S315080056A0D5FA00F091FC002020609DF83C0008B176
S315080056B0FAF7E0FDF07866490968C90304D5C0F32E
S315080056C0C00109B120212162396C890703D5C107B8
S315080056D044BF0221F960396C490704D5C0F340017B
S315080056E009B10421F960396CC90704D5C0F38000F3
S315080056F008B10120F860D8F84C00800605D5306856
S31508005700C00544BF0C20FFF7F5FDD8F85000800609
S3150800571005D53068400444BF0D20FFF7EBFDD8F8E7
S315080057205400800607D53068A969C840C00744BF39
S315080057300E20FFF7DFFDD8F85800800607D5306839
S31508005740E969C840C00744BF0F20FFF7D3FDF078CA
S3150800575040F08000F07011B0BDE8F04F0DF004BEC7
S31508005760B9F1000F7FF439AFDAF818003749DFF8D6
S31508005770F4B040084000CAF818003448806840F081
S315080057800400886040F20721BBF80000884202BF87
S31508005790BBF802004FF20F01884205D14CF23C30AB
S315080057A0ABF802004FF0010901200DF0E1FDB9F157
S315080057B0000F03D04FF20F00ABF8020013E7FAF719
S315080057C06FFD0446A520FAF762FD00F0FBFB0DF01D
S315080057D0CBFD254D254F2E682868400840002860D7
S315080057E0FDF73EFAD7F80080386820F040003860A8
S315080057F0FDF732FAC7F800802E60FDF731FA0CB1D2
S31508005800FAF738FD11B0BDE8F04F00F0DDBB11B076
S31508005810BDE8F04F40F259410FF25400FDF72EBA99
S315080058204FF00109F070704700E200E05867002069
S315080058300400004008BC004014A00040000000001E
S31508005840044000409807080814A8004008ED00E046
S3150800585000E100E008B0004008B2004008B400408B
S3150800586080E200E00000002094ED00E000800040A7
S31508005870736C6565702E630010B5144C207858B9A2
S315080058801348018808237F22201DFBF731FC201DC1
S3150800589000F011F80120207010BD10B50B4C014620
S315080058A00822201DFDF7ECFA201D00F004F801205F
S315080058B0207010BD074880B5014608220648FDF746
S315080058C0DFFABDE80140FCF796BC0000E87C002042
S315080058D094AB0308EC7C0020F47C00202DE9F04111
S315080058E0454C464EDFF81881002020654FF40055D8
S315080058F0356002202060E560002020654FF480476F
S31508005900206D40F0600020650E2000F01BF888F836
S31508005910000000206065376004202060E7601620DC
S315080059203849086000206065606D40F06000606579
S31508005930162000F007F888F801003348056007606C
S31508005940BDE8F0810E2802D0162802D009E02F48BB
S3150800595000E02F480068800900F0010080F001008F
S3150800596070470020704710B52348254C4FF4005166
S31508005970C160022101600E20FFF7E4FF227801468C
S315080059808A4218BF21700DD1501E8041C00F207069
S315080059900E2021780FF0D2FF2178481E8041C00FD3
S315080059A020702178BDE810400E200FF0C7BF10B553
S315080059B01148134C4FF48041C16004210160162040
S315080059C0FFF7C0FF627801468A4218BF61700DD1A1
S315080059D0501E8041C00F6070162061780FF0AEFF30
S315080059E06178481E8041C00F60706178BDE810403C
S315080059F016200FF0A3BF000014A8004080E100E0C5
S31508005A00A67F002020BC004000E100E008B200406C
S31508005A1008B4004010B50446FDF718F94B49302084
S31508005A2008604B4908604B49086010204A490860DD
S31508005A30200A0028494808BF24024FF20F010480B3
S31508005A404180BFF35F8F46480021016041604548A9
S31508005A504549086010BD45480168C90708D5444A44
S31508005A6003211170016C4908490001640121016094
S31508005A700168090703D5016C21F008010164704724
S31508005A8080B5002000F009F830B9BDE80440FA21D5
S31508005A900FF2F400FDF7F2B801BD2DE9F042354CDE
S31508005AA0216842428D1815F01F0108D0002802D43B
S31508005AB04842054403E04842284400F120052E48A0
S31508005AC0A5F12006A84224BF2C48864203D3EFF34B
S31508005AD00880854201D300202DE0FDF7B7F88146FE
S31508005AE02748006810F0010718BF0DF01AFC206857
S31508005AF001468D4206D2A84224BFCD2100F80119DD
S31508005B00F9D206E02038002201E000F8012B88428D
S31508005B10FBD3256030460DF009FCE22001E006F8CB
S31508005B20010BAE42FBD30FB10DF0E4FB4846FDF77F
S31508005B309FF820682038BDE8F0820E480068704754
S31508005B400C480068203870470E48704730200040DF
S31508005B5030C8004030C0004010E00040000000207F
S31508005B601C4000400400FA050CED00E018A00040B7
S31508005B70B97F00208C5E0020A04E0020401F002028
S31508005B8094ED00E0000000206D6963726F2D696E68
S31508005B907465726E616C2E63000000009D48016C8E
S31508005BA041F4C04141F0090101644FF6FF710160FB
S31508005BB0202099490860704770B5012815461E4689
S31508005BC036D113293CBF0FF28420415C08096422B0
S31508005BD0504301F00F010B2903D2884006E00A2240
S31508005BE050430A46511ED2B20B2AF8D2014601206A
S31508005BF0FBF7C8F901001CD1300907280CBF0020A3
S31508005C000220012D08BF40F0180003D0022D08BF5E
S31508005C1040F0080006F00F010229804928BF40F02D
S31508005C200400886001200860FFF7B8FF002062BD05
S31508005C30212062BD012800D0704720B5774800684A
S31508005C4001280FD1FDF702F805467548016841F0AD
S31508005C5006010160012000F099F82846BDE82040B9
S31508005C60FDF706B820BD012804D16D48016821F06A
S31508005C70060101607047012802BF6A488369012B43
S31508005C8007D021207047C3685B07FCD511F8013B94
S31508005C90036013465A1EDBB2002BF4D1C1684906CD
S31508005CA0FCD50020704710B50446FAF7ECFA012C2B
S31508005CB003D15D4800684006FBD510BD70472DE945
S31508005CC0F0435A495A4B51F820205A4C5A4DDFF89E
S31508005CD06C81DFF8509118E0978838F81060761EC6
S31508005CE0B74224DAB2F800E096448EF806C0168861
S31508005CF035F8107006F1010C9CFBF7F607FB16CC7D
S31508005D00A2F800C09688761C9680D9F80C60B6076B
S31508005D1039D5D9F80C60D9F800C016F03806DBD0AA
S31508005D20370707D4F70608D54FF0240E0BE04FF0D7
S31508005D30230E08E04FF0270E05E0B6064CBF4FF0DD
S31508005D40250E4FF0010E51F820C0265C36B9BCF876
S31508005D50006023F8106004F800E0D6E733F8106016
S31508005D60ACF8006004F800E0BCF80260BCF800E09B
S31508005D70B6452FBFAEEB060638F81070BE1B764444
S31508005D80ACF80460C1E7BDE8F083704770B52C49EC
S31508005D902C4A51F82010234B0FE04C880C44A47968
S31508005DA01C604C8832F81050641C94FBF5F605FB11
S31508005DB016444C808C88641E8C808C8814B1DC68F0
S31508005DC06407EAD470BD204914480A6842614A68E3
S31508005DD0826189688160012101600120DEE638B5AB
S31508005DE00C4C0FE046F229700542256003D0A9B293
S31508005DF00120FFF764FF41F6D60005421CBF0120CB
S31508005E00FFF7C4FF2068216C11EA0005EAD131BD0D
S31508005E100000000008A8004000E100E054C8004067
S31508005E2048A800403CC8004048C80040645E0020BE
S31508005E30807400207C7400200C65000850960308C6
S31508005E40545E0020046500085C670020306090C03E
S31508005E50C1C2C394C495C55C96C6AC9798990D0003
S31508005E60FAF724BC70B5044643380FF2880508D003
S31508005E70401E012809D9801E01280ED9C01F31D01D
S31508005E802AE0BDE87040FDF7A2BEFDF777FE20B117
S31508005E90FDF79DFE0028FBD170BD134E307808BB78
S31508005EA0012030700020FDF7F7F8442C11D00CD3F0
S31508005EB0462C05D00DD3472C07D140F6010001E04A
S31508005EC040F60200FFF7A6FD03E075212846FCF719
S31508005ED0D5FE0020307070BD2846BDE87040872189
S31508005EE0FCF7CCBE70BD0000AD7F00207047704740
S31508005EF000000000656D6265722D626173652D6331
S31508005F006F6E66696775726174696F6E2E630000DD
S31508005F1030B52448006800F0FF000021002220FA6E
S31508005F2002F3DB0713D50FF28C001F4C30F8121062
S31508005F3006294CF23C324FF20F031DD16088984275
S31508005F4016D12388180A0B2812DA194612E0521CB1
S31508005F5092B2082AE3D31548018140F201720189F9
S31508005F60914204D11249D1E90023C0E9002330BD8A
S31508005F704FF4C0616280EEE740F20725A94201BFEF
S31508005F80608898422388AB42E5D162801946E2E7E9
S31508005F9006480089000A7047044800897047034884
S31508005FA0704700002C00004000000020C866002052
S31508005FB090000020010402040103010506000702FF
S31508005FC00309010972B6704762B6704710F086BBBE
S31508005FD003460A4688A10420FFE70CB480B502AA46
S31508005FE000F031F801BC5DF80CFB00B589B0FCF790
S31508005FF0F1FA002107910691059104910391029106
S31508006000019102467D49009100230FF204210120E7
S31508006010FFF7E3FF7A48C1784378027803918168ED
S315080060200291818801918178009143200FF2EC1149
S31508006030FFF7D3FF09B000BD734931F81020521C91
S3150800604021F8102070472DE9F04107466D48007881
S31508006050A2B00C469046002690B9380018BF012F0A
S315080060600ED0042F18BF052F0AD0312F18BF332F93
S3150800607006D0372F1EBF3B2F4FF6FF718F4275D1C3
S3150800608010F038FA002871D0802202A9384600F0AC
S3150800609078F8002C68D007E08DF80400012201A9E1
S315080060A0002000F079F8641C207801005CD0A0F18B
S315080060B030020A2A05D20A2101FB0600A0F13006A1
S315080060C0F1E7422818BF44280CD0462827D057287D
S315080060D008D0622836D0662821D06C281CD07028B3
S315080060E01DD0D9E7422807D158F8042B6946012064
S315080060F000F0E1FC01220DE0572858F8042B694608
S3150800610004D1012000F0D7FC022203E0012000F0B0
S31508006110D2FC04226946C3E758F8046BC3E758F86B
S31508006120041B462807D10026885D00281EBF761C5A
S31508006130F6B2FF2EF8D1F2B2002000F02DF898B989
S315080061400026B0E758F8047BB8B20028ABD002F0B6
S315080061505CFD0546B8B202F040FD0146EAB20020F1
S3150800616000F01AF800289ED000F03AF822B0BDE8F0
S31508006170F0810B461146122804BF1846FFF79EBD4C
S31508006180704710B5214C616001462270606810F0B6
S31508006190C0F9607010BD0000F8B515000C461B4E1E
S315080061A01CD07078317873680F1AFFB2EDB2BD4211
S315080061B0B8BF2F463A4621461844FCF761FE707868
S315080061C038187070ED1B3C44E8B238B17068711C21
S315080061D010F010FA0028E4D00120F2BD0020F2BD2C
S315080061E010B50A4C6068611C10F004FA08B1012069
S315080061F010BD607010BD000057460000F47C0020FA
S3150800620044960308B57F00201878002024780020DB
S315080062104242387042424242574242004242425744
S31508006220444200002DE9F0470446884691469A46BE
S3150800623000F056F9002801BF25460FF2C420405D3C
S31508006240012821D1DFF88C6256F82570FCF7FEFC90
S315080062500021B98039807980FCF70AFD06EB8500B4
S315080062600669FCF7F3FC0021B18031807180DFF804
S3150800627068225155FCF7FCFC53464A4641462046DF
S31508006280BDE8F047FFF798BC2120BDE8F0872DE967
S31508006290F84381464C46DFF83C0200EB840088460A
S315080062A00569484600F01CF908B101203EE0DFF810
S315080062B02862305D06EB440760B1B8886988884271
S315080062C008D1FCF7C3FC355D00213155FCF7D0FC3D
S315080062D028462BE04846FFF758FDA88800281EBF29
S315080062E00FF2282030F81490B9F1000F1DD0FCF7F2
S315080062F0ADFC69882944897988F800104FF6FF783B
S315080063006988491C91FBF9F209FB12116980A98871
S315080063104144A980FCF7ACFC305D20B1B888404503
S3150800632004BF2888B880002000E02620BDE8F28354
S3150800633080880FF2C41333F81110891A884201DADB
S3150800634001207047002070472DE9F04782465646DF
S315080063500FF2AC10805D01280D463BD15D480FF267
S31508006360B41850F826700FF29C19002419E0FCF7AF
S315080063706DFCB98801B9012439F816100A000DD048
S315080063803B882A783B449A713A88521C92FBF1F36F
S3150800639001FB13213980B988491CB980FCF768FCD0
S315080063A06D1C287888B1002251463846FFF7C0FF91
S315080063B00028DCD11CB15046FFF73CFC002418F835
S315080063C006000028EFD1222005E05046FFF732FCF0
S315080063D0002000E00120BDE8F0872DE9F84F80464F
S315080063E0C1460FF21C1010F8090001280D46164682
S315080063F03ED138480FF21C1B50F829400FF2041002
S3150800640030F819A0002718E0FCF720FCA18801B98C
S315080064100127BAF1000F0DD022882978A2189171A8
S315080064202188491C91FBFAF20AFB12112180A188E6
S31508006430491CA180FCF71CFC6D1C3046461EC0B2E8
S3150800644088B1002241462046FFF772FF0028DBD1BB
S315080064501FB14046FFF7EEFB00271BF8090000288E
S31508006460EFD1222005E04046FFF7E4FB002000E0DC
S315080064700120BDE8F28F80B501460FF28402525C16
S31508006480012A05D1134A52F821108A88002AFCD11C
S31508006490FFF709FC002002BD0CB438B504460D46CA
S315080064A0FFF7E1FB04AB2A4621460C4810F058F9E1
S315080064B020460FF24C01095C012907D1054951F81C
S315080064C02000808810B12046FFF7B4FB32BC0020BC
S315080064D05DF80CFB545E00207C740020775C000895
S315080064E0042806DA0FF21801095C481E8041C00F1D
S315080064F0704701207047000000008000000000007F
S31508006500000100000000800000000000000080007C
S31508006510000000000001000062F30F2262F31F4230
S31508006520401810F0030308D0C91A1FD3DB0748BF69
S3150800653000F8012D28BF20F8022D130030B41446A8
S315080065401546103928BF20E93C00FAD8490728BF64
S3150800655020E90C0048BF40F8042D890028BF20F820
S31508006560022D48BF00F8012D30BC7047C91818BF66
S3150800657000F8012DCB0728BF00F8012D7047000051
S3150800658010B57F48007888B9FCF760FB04467D485B
S3150800659001780A0018BF052903D10321017000F00C
S315080065A07EF82046BDE81040FCF762BB10BD2DE919
S315080065B0F041744C754E217837880FF2D810704D1B
S315080065C00A0082B007D1297811B99821FCF756FB41
S315080065D008F0ECF861E003291CBF9D21FCF74EFB8F
S315080065E000203080380018BF08F0B0F908F09BF892
S315080065F03088674EFF27010030D08DF800706A4654
S315080066000DF1010108F0F8FD05469DF80000FF2888
S315080066100BD008F0B8F830709DF8000008F0B6F80E
S3150800662018B19DF80000FAF777F80120FBF758FE35
S31508006630FCF70CFB8046012020709DF8010040B94C
S315080066400FF25811072001F0CAFB012008F041F9A2
S3150800665020E001212846FEF741FB1BE00020FBF75E
S315080066603FFEFCF7F3FA8046002020703078FF28BA
S3150800667005D008F08BF83078FAF74EF8377060785E
S3150800668020B1002060700120FBF761FD287808B171
S3150800669000F005F84046FCF7EBFABDE8F381002167
S315080066A0394810F091BA37480178012902D00429EF
S315080066B002D005E0FEF7E8BB0521017010F0D4BC56
S315080066C040F21F110FF2CC00FCF7D8BA38B5FCF728
S315080066D0BDFA2C4D04462878052805D040F231111C
S315080066E00FF2B000FCF7CAFA00202870687820B1CB
S315080066F0002068700120FBF72AFD2148007808B1C0
S31508006700FFF7CDFF2046BDE83240FCF7B1BA70B5B9
S315080067100446FCF79BFA1B4E05463078010018BF65
S31508006720052805D04FF49F710FF26800FCF7A6FA0A
S31508006730042030704FF6FF7084421CBF2046FDF7D8
S315080067402AFC2846BDE87040FCF792BA10B5044604
S31508006750FCF77CFA012C0B4907D10A782AB10122E9
S315080067604A70FCF785FAA12010BD00224A70FCF792
S315080067707FFA2046FBF7EBFC002010BD0000000066
S315080067807E7F0020D17F00200C600020867F0020BD
S315080067902A6100206D61632E630000005472616EE9
S315080067A0736D6974206275666665722070726570AD
S315080067B061726174696F6E206661696C75726500D5
S315080067C038B5994D994C2878022803D12078C00706
S315080067D025D401E0032822D100F00EFE03281ED19D
S315080067E0934800884FF6FF71884218D02878032806
S315080067F004D0022807D12078C00704D4002100203D
S3150800680013F02FF804E043210FF24C20FCF736FA78
S31508006810BDE834404FF48061864810F0D5B931BDE3
S3150800682080B581480078022804D180480078C007DE
S3150800683002D406E0032804D04F210FF21C20FCF7EF
S315080068401DFABDE80140B4E0F8B504464FF47A7085
S31508006850604300EB9026774F774D07F10C0010F058
S315080068600FF970B107F10C0010F00EF9864201D24B
S3150800687000F00FF801F0B1FC296804EB9020401AEB
S31508006880F2BD00F006F801F0A8FC800A2860204650
S31508006890F2BDB0024FF47A71B0FBF1F107F10C00CA
S315080068A010F092B92DE9F84300F0A6FD03286AD145
S315080068B05D480078032818BF042805D0022808D1A7
S315080068C05A480078C00704D4BDE8F24309200AF004
S315080068D074BB01F082FC58490FF28C190A68574DAF
S315080068E0574F800A0860841A4FF0FF38002607E0E1
S315080068F0181B42F82600404598BF8046761CF6B21B
S315080069003878864238DA4F48006830F81610CA07D1
S31508006910F4D54D4A126852F826305FEA415C14D520
S31508006920E3184FF47A7C0CFB03F3DBB22D2B05DA64
S31508006930604693FBF0F042F82600DFE74FF6FF3398
S31508006940194020F816100020F5E79C4205D2686821
S3150800695010F1010FCCD08342CAD328780028CDD0B5
S3150800696001F03BFC034632464946182001F037FA47
S315080069703046FDF70DFFC1E718F1010F03D0404679
S31508006980BDE8F24360E7BDE8F18310B504462D483B
S31508006990006830F8140040054FBF2D202B480068CA
S315080069A050F82400FFF750FF2749096841F82400EA
S315080069B010BD70B500F029F84FF47A7101FB00F4A8
S315080069C0FEF787FCC0F3090000EB1415A0024FF48C
S315080069D07A71184EB0FBF1F106F10C0010F0F4F8DC
S315080069E0601BB0F57A7F83BF80024FF47A71B0FBE3
S315080069F0F1F14FF48061304610F0E6F8BDE87040DA
S31508006A000FF28001182001F0EAB90C48406810F12D
S31508006A10010F08D104480078042802D10C48006800
S31508006A2070470C48007870476A7800206E78002016
S31508006A302A5F0020805F00207C7C0020785F002091
S31508006A401C610020205E00202C5E0020305E0020A5
S31508006A50485E00201D6100206368696C642D6167CB
S31508006A60696E672E630000006368696C642025758B
S31508006A702074696D6564206F757420617420256CB7
S31508006A80750000007375636365737366756C2070B3
S31508006A906F6C6C004178007801E00178407800EB73
S31508006AA0012080B270470170090A417070470A0ACE
S31508006AB002704170704710B50023040014BF1C46CD
S31508006AC0C3F10304E4B25B1C0A55120A042BF4DB77
S31508006AD010BD30B50024050014BF2546C4F10505D0
S31508006AE0EDB2641C4A55120A42EA03621B0A062CD6
S31508006AF0F1DB30BD30B54A788B78CC78097818B197
S31508006B0020461D460C4602E0154608461A4645EA42
S31508006B10002044EA022141EA004030BD00B583B0B6
S31508006B2020B10622684600F02AF803E006226846E5
S31508006B30FCF7A6F99DF800209DF8010040EA02211D
S31508006B409DF8020002069DF8030042EA00429DF8FD
S31508006B50040042EA00229DF80500104303B000BD78
S31508006B6010B5002300E05B1CDCB28C4205D210F89D
S31508006B70014B9442F7D0002010BD012010BD10B57E
S31508006B80002304E0541EE41A0C5DC4545B1C9342B3
S31508006B90F8DB10BD10B5002480B14FF6FF7202E095
S31508006BA0944206D0641CA4B2035D002BF8D194422B
S31508006BB004D179210FF2F400FCF760F8204610BDE5
S31508006BC010F8012B11F8013B0AB19A42F8D0D01AF5
S31508006BD040B2704730B5994228BF1946002303E0F2
S31508006BE00833401C521C9BB203F10804A14203DB84
S31508006BF004781578AC42F3D08B420CDA0078127818
S31508006C005040C0438024C0B201E064085B1C8B423C
S31508006C1001DA0442F9D198B230BDF8B555052D0E02
S31508006C2002F0070704460E462A46FCF729F947B13B
S31508006C30FF20615D725DF840014022EA00000843CA
S31508006C406055F1BD00210FF27802002805E000F03A
S31508006C500F03D35C5918C9B20009F8D10846704722
S31508006C606128A8BF572107DA4128A8BF372103DAC8
S31508006C703A28B4BF30210021401AC0B270474108F3
S31508006C80400021F0AA3120F05530084381088000E1
S31508006C9021F0CC3120F0333008430109000121F0FE
S31508006CA0F03120F00F3008437047000062797465B0
S31508006CB02D7574696C69746965732E63000000002C
S31508006CC00001010201020203010202030203030496
S31508006CD080B50FF24C1001F090FC07F0D9FC0FF2CA
S31508006CE04C1001F08AFC13F057FA0FF2501001F01D
S31508006CF084FC13F039FD0FF2501001F07EFC13F0FE
S31508006D0077FEA1A001F079FC14F096FA0FF24C1068
S31508006D1001F073FCDFF8340A01F0C2FC0FF24C10E4
S31508006D2001F06BFC07F0B5FE0FF2481001F065FCA8
S31508006D300DF0F8F80FF2481001F05FFCDFF8380A9A
S31508006D4001F0AEFC0FF24C1001F057FCDFF82C0AEC
S31508006D5001F0A6FC0FF24C1001F04FFCDFF8200AF8
S31508006D6001F09EFC0FF2541001F047FCDFF8140AFC
S31508006D7001F096FC0FF25C1001F03FFCDFF8080A00
S31508006D8001F08EFC0FF2601001F037FCDFF8FC0909
S31508006D9001F086FC0FF2681001F02FFCDFF8F0090D
S31508006DA001F07EFC0FF26C1001F027FCDFF8E40915
S31508006DB00FF0F6FE0FF2701001F01FFC15F09EF8AA
S31508006DC00FF26C1001F019FC15F0B1FC0FF2681007
S31508006DD001F013FCDFF87C0A01F062FCDFF8780AA0
S31508006DE001F05EFC0FF2601001F007FCDFF8840A80
S31508006DF001F056FC0FF2701001F0FFFB15F037FD9D
S31508006E000FF2701001F0F9FBDFF86C0A01F048FC8C
S31508006E10DFF8B40A01F044FCBDE8014001F0F1BB1B
S31508006E204D41432061726269746572004D41432089
S31508006E30696E646972656374000000007265747235
S31508006E4079207461626C6500364C6F5750414E204C
S31508006E50667261676D656E74730000006D756C749B
S31508006E606963617374207461626C650077616B6530
S31508006E70757000006170706C69636174696F6E008B
S31508006E80666F726D2D656E657267792D7363616EB7
S31508006E90000000006E6574776F726B206461746120
S31508006EA000000000736C656570792062726F61641A
S31508006EB0636173742068656164657200676C6F62EC
S31508006EC0616C2061646472657373207461626C65B9
S31508006ED0000000006C6F63616C20736572766572E2
S31508006EE02064617461000000626F726465722072CA
S31508006EF06F75746572204E442064617461000000E9
S31508006F006368696C64206164647265737320746174
S31508006F10626C6500737461636B206576656E7420B8
S31508006F207175657565000000436F415000000000EB
S31508006F304A50616B65000000436F6D6D6973736934
S31508006F406F6E696E670000007363616E2072657309
S31508006F50756C747320666F7220636F6D6D697373D9
S31508006F60696F6E657200000044544C53204A6F697D
S31508006F706E0000006C6F6F706261636B206D6573E5
S31508006F8073616765730000005544500070B5DFF8FB
S31508006F90B8470546E0882A0601D4062D04D140F0F4
S31508006FA0040005F07F0503E011B94FF6FB710840B0
S31508006FB02E46022E1CBF032E042EE08008D0052E76
S31508006FC00DD0062E18BF072E02D0F02100F0B5F915
S31508006FD0A570A07804280CBF0120002001E0032535
S31508006FE0F6E7FFF7B3FBE0884FF6F4710840062E84
S31508006FF008BF40F0020004D0022E14BF032E40F052
S315080070000800E080A1780FF2140050F821200FF252
S315080070102C01BDE87040002000F0E1BEE49A0308A8
S31508007020EC9A0308F49A0308FC9A0308089B0308D9
S31508007030EC9A03081C9B0308249B030873657420B9
S315080070406E6F6465207479706520746F20257000F2
S3150800705010B5DFF8244906281CBFA178062901D0F7
S31508007060C10910D000F01DFD00F051FD04F1080023
S315080070700FF0ECFC00F026F800F08BFC0020BDE8D1
S31508007080104005F023BF217803290FD1A179C9073C
S315080070900ED4032818BF04280AD100F002FD00F018
S315080070A036FD0121002012F0DCFBE7E7042907D1B1
S315080070B000F0F7FC00F02BFD012009F07EFFDDE76C
S315080070C07020DCE710B5F2B016F0A2F813F0B1FBA9
S315080070D010F030F905F0ABF916F0B3FD16F0DAFF4B
S315080070E0FCF7C6FF17F0FBF802F061F902F068F941
S315080070F004F032FC09F080FD0120FAF727FF17F0AB
S315080071004BF907F0C4FBFEF7D5FBDFF86C48002007
S31508007110A0704FF6FE7000F030F90020E08004F011
S3150800712080FF17F0EAFA1AF03DF902F0BEFE15F0F4
S3150800713080F915F08FFBBC237F22082142A8FAF7B5
S3150800714089F800F047F901A81BF013FDBDF85401B2
S315080071504FF6FF71884236D0BDF8040098BB082365
S3150800716042AA0E210DF1060017F019FC102344AAB5
S31508007170032117F014FC082348AA022117F00FFC74
S3150800718008234AAA072117F00AFC10234CAA05214E
S3150800719017F005FC1AF0B2F9BDF85421012117F0D1
S315080071A0DFFBDFF8182A00211AF0A2F9032357AAF1
S315080071B0002117F0F4FB0DF10601401AADF80400A2
S315080071C001A81BF04BFDBDF8040000281EBF9DF862
S315080071D0020000280120002100F012F972B010BD4B
S315080071E038B5DFF8DC190FF220340020088001F0EA
S315080071F09CF90FF039F9DFF8CC090178E1B9C078C4
S31508007200022818BF062828D0072818BF082824D01F
S31508007210092818BF0A2820D0032818BF10281CD010
S31508007220112818BF122818D0132818BF142814D0EC
S31508007230152818BF0B2810D00FF264052946002020
S31508007240FFF72AF929460120FFF726F92046BDE867
S31508007250344040F2AF11FBF711BDF9F7B7FF20B183
S315080072604FF4DA712046FBF709FDFEF7BEFE0FF272
S315080072704C00DFF804471BF0CEFE607004F10800EE
S315080072800FF0D7FBDFF8E41900200860DFF8E019F3
S315080072900860FEF77DFE0CF0ADFDBDE8314011E754
S315080072A0537461636B2F4861726477617265204D10
S315080072B069736D617463680D0A00000000000000C0
S315080072C00000000080B5FFF78BFFBDE802400020F4
S315080072D01BF0DEBEDFF8941908607047DFF89019D6
S315080072E00860704710B50020FBF750F8DFF88809EA
S315080072F0007818B10FF2300001F00FFAFEF766FEBB
S31508007300FDF79BFDFDF714FE0AF0D8FE13F0D1F841
S31508007310DFF8604904F108000FF014FC6078BDE856
S3150800732010401BF09FBE0000D16C00080000000052
S31508007330DFF8400940781BF095BE0FF2CC10FBF73A
S315080073409DBC80B5FAF700FFBDE80240FAF7FEBD1E
S31508007350FAF77BBF10B50446DFF81809807980076D
S3150800736008D42046FAF774FF2246BDE810400FF607
S31508007370501150E610BDFAF770BF10B50446224604
S315080073800FF65411002000F02AFD2046BDE81040F3
S31508007390FAF766BF10B5044622460FF650110020CC
S315080073A000F01DFD2046BDE81040F9F7C4B938B510
S315080073B00446F9F7C0F905460FF6401000F008F83C
S315080073C08DF8034000F04AFA284605F003FF31BD60
S315080073D00068009004237F220C216846F9F73ABF1B
S315080073E080B5F9F7A4F9BDE8024005F0E5BEF9F75E
S315080073F09BB9DFF888087047DFF878080078704787
S3150800740070B50446DFF87005067804700D46C18825
S31508007410032C05D141F40041C18009F0B0FB02E01C
S31508007420C1F30E01C180200004BF0120FFF78EF9C9
S315080074302A4631462046BDE870400DF098BBF8B59F
S3150800744006465E220021FBF77DFDDFF8FC52287810
S31508007450012806F1280421D0DFF824781022B91C67
S315080074603046FBF70DFD06F1100001F083FF06F12B
S31508007470180001F099FF082207F1120106F1200011
S31508007480FBF7FEFCFAF7E9FE2080F9F74DF9A07044
S31508007490A878E070F9F74BF920712CE019F04EFF47
S315080074A00746102207F114013046FBF7E9FC0822CB
S315080074B007F1240106F12000FBF7E2FC082207F198
S315080074C02C0106F11000FBF7DBFC07F1580004233A
S315080074D0018821807F22807AA0700C210FF6200077
S315080074E0006800906846F9F7B5FE9DF8030020711C
S315080074F09DF80200E070A878032804D1A87900074F
S315080075005CBF0520E070F1BD69702D737461636B13
S315080075102E6300002DE9F041044620000D4604D1F3
S315080075202846BDE8F04105F068BA012C04D1DFF819
S31508007530540705F074FA20E0022C20DB914E002156
S31508007540304600F07CFE022704E04146304600F053
S31508007550A5FE7F1C80465FEA080010D001F03DFBBF
S3150800756000281CBF016A0029EFD0F9B2A142ECD16C
S31508007570811C10222846FBF783FC012000E000202E
S31508007580BDE8F0812DE9FF4104460F467D4D0021F7
S31508007590284600F054FE1DE001F01FFB060015D03A
S315080075A03078800612D5002C18BF002F07D03B462E
S315080075B022463946B01CFFF70DFBB84206D1338880
S315080075C0326AF169DBB2B01C06F0A3FB41462846D5
S315080075D000F064FE80465FEA0800DDD168461021A7
S315080075E007F060FA002300220021684606F091FBA6
S315080075F0BDE8FF813EB5634C0021204600F01FFE22
S3150800760015E001F0EAFA70B10178C9070BD5016AED
S315080076100291821CC1690191002100910121837C9C
S31508007620002006F055FB2946204600F037FE0546A1
S315080076302800E6D100200290019000900023002245
S31508007640002106F045FB37BD2DE9F04F8BB0044607
S31508007650112200216846FBF775FC0026DFF828860C
S31508007660DFF82876DFF8289646E0002208215046FB
S31508007670FFF776FA002854D1082251466846FBF7E8
S31508007680FFFB202EB4BF022006208DF808003868BC
S31508007690584490F911105F398DF80910007D10F0E3
S315080076A00F008DF80B000EBFFF209AF813001BF091
S315080076B06BFE8DF80A0030461CF0FDF88DF80C00BC
S315080076C030461CF0EFF88DF80D009AF81500C00941
S315080076D08DF80E00FF2C38685844407D00F00700EE
S315080076E08DF80F009AF816008DF8100019D1694622
S315080076F0304605F062FCEEB299F80000751C864229
S3150800770014DAFF2C18BFB442F5D1182000FB06FB8B
S31508007710386800EB0B0A98F800008642ACDB202E8E
S31508007720A3DAFF2CE7D06946304607E005A81421FE
S3150800773007F0B8F9FF2C03D105A9E8B205F03DFC1E
S315080077400BB0BDE8F08F000068780020EC7E0020C2
S31508007750AA210170BB214170CC218170DD21C17045
S315080077607047DFF830150A7882421CBF08701CF093
S315080077700DBE704700000000307A002052790020C4
S31508007780A07F0020327D0020747F0020767F0020B5
S31508007790E47E00207078002010B504461BF073FEC6
S315080077A020B92046BDE81040FDF783B810BD00B5E6
S315080077B0F7B04FF48172002135A8FBF7C3FB35A853
S315080077C01BF04CFA35A81BF04BFABC22002106A880
S315080077D0FBF7B8FB4FF6FF70ADF86400BC2306AAAA
S315080077E07F210820F9F746FD042200216846FBF7A9
S315080077F0A9FB00F033F80822002104A8FBF7A2FB36
S31508007800082304AA7F210520F9F734FD0822002160
S3150800781002A8FBF797FB082302AA7F210720F9F79E
S3150800782029FD04F061FEFCF78DFF00208DF80400A9
S31508007830042301AA7F210320F9F71CFDDFF8580469
S315080078400FF004F9FFF73EFC00200CF0D4FA77B0ED
S3150800785000BD0000D8780020E27E002004236A4696
S315080078607F210C20F9F706BD0021DFF830040FF060
S31508007870ABB9000020790020E87E002038B5DFF893
S315080078801C54DFF81C4428460FF0EEF9DFF8140400
S3150800789000780C2810D02068142804D101200CF098
S315080078A0AAFA002006E04FF4FA7128460FF08CF980
S315080078B02068401C206031BD002020600320BDE800
S315080078C0324006F09BBF00009C7F0020FAF7A0BD5F
S315080078D038B5034608461446002513B1012B05D0D2
S315080078E00EE008237F22DFF8C01303E008237F2277
S315080078F0DFF8B8130988F9F7FBFB0820207001E0C8
S3150800790025707025284632BD10B584B000F036F8CB
S315080079109DF80030014601AA204606F089FA1FBDE7
S31508007920FEB50D46164600F029F807001FD19DF84A
S315080079300000864218BF022719D10146FF2201A876
S31508007940FFF70EF908B9462711E014B1012C05D046
S315080079500CE008222946DFF8500303E008222946EE
S31508007960DFF848030088F9F7E6FB00E07027394698
S31508007970204606F099FAF7BD6878002004466A465C
S3150800798001A9A5E70021002006F0A4BA002006F008
S31508007990AABA70B5B74C2078032888B07CD00128DD
S315080079A003BFC04800780C28702076D108237F22B0
S315080079B0052105A8F9F74EFC05A804F093FF08234E
S315080079C07F22072103A8F9F745FC082203A9B8482E
S315080079D0FBF756FA08237F22062101A8F9F73AFC95
S315080079E001A8FDF768FF19F027FD19F0A7FC054661
S315080079F005F15806B07A06F0C9FE3088FFF7BDFCD7
S31508007A0005F11400FFF7C6F8C1B205F1140009F034
S31508007A10D9F805F1240009F0ACF805F12C0002F0BC
S31508007A200BF80FF2E020FFF7D3FCBDF80000FFF7D4
S31508007A3091FC9DF90300FFF7ADFC9DF8020000F0EC
S31508007A4030F816F096FC04F059FD08F0C9FAA0784B
S31508007A50062809D100210320FFF7D2FC01220021C4
S31508007A60002011F086FD17E0FAF7EFFB800502D13A
S31508007A7009F0D2FF10E0A078032818BF042804D024
S31508007A80022805D1A079C00702D40AF021F803E03C
S31508007A9040F28151FFF751FC002005F005FA08B0C5
S31508007AA070BD0021FFF772BA80B502F0A6FA16F08B
S31508007AB024FE16F033FE6F488078062803D0BDE80A
S31508007AC0014015F037BC01BD80B56A480178032925
S31508007AD005D1784909884FF6FF72914201D1932062
S31508007AE00BE08078042818BF702006D17248007809
S31508007AF0042818BF052804D13D20BDE802400DF032
S31508007B00D1B816F0EAFABDE8014006F0F8BD00B5AE
S31508007B109FB007A8602106F0C5FF07A8FFF78FFCEE
S31508007B200FF2E410006800909DF848008DF80300F5
S31508007B30FAF78BFBADF800006A464E4880780628AF
S31508007B4018BF9DF847008DF8020004237F210C20FA
S31508007B50F9F790FB0FF2B41005A9D0E90023CDE997
S31508007B600523564804F001FF082305AA7F210520AE
S31508007B70F9F780FB0FF29C104D49D0E90023CDE9B7
S31508007B80032303A80822FBF77BF9082303AA7F210E
S31508007B900720F9F76FFB0FF284103A49D0E9002362
S31508007BA0CDE9012301A80822FBF76AF9082301AAEF
S31508007BB07F210620F9F75EFB1FB000BD00F8FF071E
S31508007BC09A7900209607080880B5FCF72AF9BDE8D7
S31508007BD0024006F093B980B5FCF720F9BDE80240EB
S31508007BE006F097B980B5FCF701F9BDE8024006F042
S31508007BF09AB980B5FCF712F9BDE8024006F09EB9BD
S31508007C0080B5FCF75CF8BDE8024006F09CB980B583
S31508007C1006F038FFBDE804400146002006F09EB98C
S31508007C2080B506F031FFBDE8024006F0A0B938B5C8
S31508007C3004460021600001F0E6F8010003D10022A5
S31508007C40002118200DE000F0C8FF05462146F9F787
S31508007C50ABFE18B122462946002002E00022002188
S31508007C607020BDE8384006F08DB90000247D00205C
S31508007C70687B00206878002025610020EC7C0020C5
S31508007C8060790020F47C00209A7D0020505E002058
S31508007C9020610020C47F002070780020985E0020B4
S31508007CA0847800207C60002086AB03088AAB030832
S31508007CB03C7A00202A5F0020D17F0020E07C00204B
S31508007CC0736574206E6F646520696420746F203054
S31508007CD078253258000000007365742070616E20A4
S31508007CE0696420746F2030782532580073657420D3
S31508007CF0706F77657220746F20256400000000009D
S31508007D000000000000000000000000000000000065
S31508007D100000000000000000000000000000000055
S31508007D20000000002DE9F04104460D4600260FF23A
S31508007D30244858F826702A4621463846FBF709F99A
S31508007D40002804BF785D002801D1F0B203E0761C54
S31508007D501C2EEED3FF20BDE8F081202800DB7047FB
S31508007D6030B503290EDAD34B53F82140012505FA1D
S31508007D7000F0002A1DBFD04A1040204324EA000024
S31508007D8043F8210030BDCB4A52F82110C14001F01A
S31508007D900100704738B504460025294600F03AF830
S31508007DA008B1012032BD6D1CEDB2032DF5DB32BDE5
S31508007DB00CB470B504460D46002600F02AF808B142
S31508007DC000F022F8761C032EF7DB1AE00FF2843156
S31508007DD051F820200FF2E421EAE7ADA1E8E70CB458
S31508007DE070B504460D46FFF7F1FF002600F011F8BE
S31508007DF008B100F009F8761C032EF7DB2046FFF7DA
S31508007E00ECFF70BC5DF80CFB04AA294630460EF060
S31508007E10DABD31462046B6E72DE9F84F80460E46CC
S31508007E20934630001CBF4046FFF7D0FF002799A4B1
S31508007E300FF264290FF2642A39464046FFF7A3FF7A
S31508007E4030B30B990CAA38460EF0BDFD5FEA0B005D
S31508007E5003D1514638460EF0AEFD002506E00098DF
S31508007E60ADB2425D38460EF0A6FD6D1CBDF8281071
S31508007E70A8B2884205D25FEA0B0014BF49462146DC
S31508007E80EDE75FEA0B0003D1514638460EF093FD45
S31508007E907F1C032FD0DB16B14046FFF79EFFBDE8D7
S31508007EA0F18F2DE9F84304460D4690461F46FFF725
S31508007EB08DFF00260FF20C29FFF7ABFF58B143469A
S31508007EC02A46494630460EF076FD27B108AA3946B5
S31508007ED030460EF078FD761C032EEDDB2046FFF7C4
S31508007EE07CFFBDE8F1832DE9F84304468846002661
S31508007EF00FF2D8196AA56BA708EB4600FEF7CDFD69
S31508007F00002E03460CBF3A462A4649462046FFF746
S31508007F104FFF761C082EEFDBBDE8F1832DE9F84FFD
S31508007F208246654C0FF2B81B0FF22828DFF88491B9
S31508007F30002557A62A4659F82200A8B184430FF20D
S31508007F40941100F02FF8002729463846FFF71BFF43
S31508007F5018B158F8272000F024F87F1C1C2FF3D3FB
S31508007F60314650460EF027FD6D1C032DE2DBB4B1F9
S31508007F700FF2741150460EF01EFD002524FA05F086
S31508007F80C00703D558F8252000F00BF86D1C1C2DEA
S31508007F90F4D331465046BDE8F44F0EF00CBDBDE8AB
S31508007FA0F18F594650460EF006BD70B582B00446AC
S31508007FB015461E46FFF7B6FEFF2803D122460FF2E6
S31508007FC0301106E03C49C140C90707D422460FF2E2
S31508007FD04C1130460EF0EFFC002076BD2A4631469D
S31508007FE0FFF7BBFE002D14BF2FA030A0009033462C
S31508007FF022460FF2481130460EF0DDFC012076BD10
S31508008000F8B51CF0EFF9044600201CF057FA0546AF
S315080080100DF101014FF0FF301CF0B1FA9DF8010097
S31508008020082803DBE8B2FFF779FFF1BD0428B4BFDF
S3150800803001260026002101201CF0A1FA1CA1FEF74A
S31508008040BFFD401E80413300EDB208BF022C294611
S31508008050184A03D1C30F18BF002004D116EAD07FEF
S3150800806004D04FF0FF3042F82100F1BD01270AE0A5
S31508008070694678B21CF083FA9DF800102B46324602
S31508008080FFF793FF7F1CFFB2A742F1DBF1BD0000AB
S315080080900D0A00002563000020257800270000004F
S315080080A03A000000000000006F6E00006F66660070
S315080080B0616C6C00FC7C0020BD61F50F7B25737D2F
S315080080C02000000025733A2575200000257025320A
S315080080D078000000706F72742025753A2000000041
S315080080E025732C20000000006F66663A2000000009
S315080080F04572726F723A202573206973206E6F7409
S3150800810020612076616C6964206C6F6720747970D1
S3150800811065206E616D650D0A000000004572726F7C
S31508008120723A202573206C6F67206973206E6F740E
S3150800813020656E61626C65640D0A00002573206C0B
S315080081406F6720706F72742025753A2025730D0AA3
S3150800815000000000F4A20308FCA2030800A3030819
S3150800816010A303081CA3030824A3030828A30308D1
S3150800817030A3030838A3030844A303084CA3030841
S3150800818054A3030858A3030860A3030864A30308B9
S3150800819070A3030878A3030880A303088CA3030825
S315080081A094A303089CA30308A4A30308A8A303088D
S315080081B0B0A30308BCA30308C4A30308D0A30308F9
S315080081C0DCA3030880B500F008F880B202BD80B5CC
S315080081D000F003F80002000C02BD38B5FAF736FDC8
S315080081E008490C684D68FAF743FD45EA044032BD74
S315080081F080B500F00DF804490720086001200349FE
S31508008200087001BD1060004014A00040C57F002022
S31508008210704700000188481E8041C00F704738B576
S315080082200446002554B1002100F009F803E0204671
S3150800823000F034F86D1C0100F9D1A8B232BD0088EF
S3150800824002001CBFC9B200F06EBD002070472DE9C0
S31508008250F04104460D4627883800164608BFA8464A
S3150800826008D0F1B200F05FFD80462A46F1B23846E2
S3150800827000F070FD424600F003F82580BDE8F08165
S31508008280F1B2284600F066BD38B5044600222588B6
S31508008290FFF7DDFF280018BF258031BD0088814221
S315080082A00A4601D1002070470021104600F03BBD68
S315080082B0F8B504460D462688300001D10020F2BDE7
S315080082C0C9B200F030FDB042074602D10020208036
S315080082D007E0E9B200F027FD0246E9B2304600F0B1
S315080082E039FD2A460021384600F034FD3846F2BDED
S315080082F02DE9F84304468846278816460FB9002014
S3150800830026E03D46284600F080FC814605E0054605
S3150800831000F07BFC48441FFA80F9F1B2284600F0C9
S3150800832002FD404511D1F1B200F0FDFC0246FFF70F
S31508008330A7FF474503D1BD4208BF00252580002277
S31508008340F1B2404600F006FD01E0B842DFD14846EA
S31508008350BDE8F2832DE9F8430D46044690462F46BC
S3150800836005E041462046FFF7A3FFBF1BBFB28FB10A
S31508008370208878B141462046FFF761FF814600F024
S3150800838044FC0646B742ECDAF11B89B2484600F0CF
S31508008390A0FC0027E81B80B2BDE8F2832DE9F04770
S315080083A00C460788200092461E46B84623D00FF290
S315080083B068193FB9C92102E0B84503D1D621484614
S315080083C0FAF75CFCF1B2404600F0ADFC804600F0DE
S315080083D01CFC0546A1B28D4288BF0D46404600F0FA
S315080083E0FCFB01462A465046FAF74AFD641BA0B232
S315080083F00028AA44E0D1BDE8F08770B50446258870
S31508008400280008D0012100F08EFC06460022012132
S31508008410FFF737FF268070BD2DE9F84F0D46044655
S3150800842090461F460021FFF70AFF8146002603E013
S31508008430494600F044F881465FEA090019D000F081
S31508008440CCFB8346484600F0E0FB0BEB000A02E053
S3150800845060888344761CD3453EBFA188B0B2884263
S31508008460E6D241465846A8470028F1D007B13E80D3
S315080084705846BDE8F28F70B504460D46A08801003F
S315080084801BD0401EA84218DB00212046FFF7D7FE66
S3150800849006466088454304E02D1A314600F00FF879
S315080084A00646300009D000F0B0FBADB28542F3DADB
S315080084B0304600F092FB284470BD002070BD20466F
S315080084C0ECE670B504460D46E088010009D0401E6A
S315080084D0E0802046A188491CA180491EBDE870405D
S315080084E0C9E760886843002180B200F08CFC06006A
S315080084F001D1002070BD002231462046FFF7A7FEB5
S31508008500A088401CA080681EE0803046BDE8704008
S3150800851000F063BB000000006275666665722D7127
S31508008520756575652E630000704710B5DFF8D44A87
S31508008530FDF70AFB6061FDF703FBA0616069E06176
S3150800854018B100F007F8652803DABDE810409D2148
S31508008550A2E010BD10B5DFF8AC4AA069E16988420F
S3150800856002D2AF2100F0F2FBA069E169401A4FF68A
S31508008570FE71084010BDDFF88C1A4A69904203D391
S31508008580C969884200F035BD00207047002818BF29
S31508008590FFF7F1BF0120704730B1DFF8681A496963
S315080085A0401A4010401C80B27047010001D10020DB
S315080085B07047DFF8501A496901EB4000801E704782
S315080085C04088C0F30C00C01C0004800C4000001D4D
S315080085D080B2704710B50446FFF7F2FF04EB40007F
S315080085E0DFF8201A4FF6FF7300E0801CCA69904234
S315080085F002D202889A42F8D010BDDFF80C1A086039
S315080086007047DFF8041A0FF28400086070472DE9F6
S31508008610F843DFF8F05980462889A0B3B8F8020075
S31508008620000430D4DFF8E0490FF260012068DFF873
S31508008630DC991CF075F820B94FF4BA714846FAF778
S315080086401DFB002701E07F1CBFB22889874204DB97
S315080086504FF4BB714846FAF711FB286A216800EB0C
S31508008660C706306808B9316003E01CF059F80028DD
S31508008670E9D1B088401CB0804046FFF7A1FFF188D9
S3150800868001EB4000F080BDE8F1830000756E636C75
S3150800869061696D65640000000FF68030FAF7EEBA7E
S315080086A070B50446DFF85C09807801281AD120885D
S315080086B0FFF77BFF04002FD0022526463046FFF73A
S315080086C0A6FF708840F40040708036F81500FFF762
S315080086D06CFF060002D070880004EFD56D1C042DCF
S315080086E01ADAEAE7022817D1FAF7B0FA0546208817
S315080086F0FFF75BFF06000AD07088800403D540F2B6
S31508008700392100F023FB3088C0F30E00208028466C
S31508008710BDE87040FAF7ACBA70BD00B5ADF5806D2E
S31508008720ADB04FF49662694600F073F80DF5806DAA
S315080087302DB000BD2DE9F84307468846FFF740FFF0
S3150800874045007888C0F30D007880800422D5FAF7B2
S315080087507DFA04463846FFF71FFF81464046FFF775
S315080087601BFF0646AAB239464046FAF789FB00209F
S31508008770DFF8901806E001EB400293894B4508BFE5
S315080087809681401C0A789042F5DB2046BDE8F24304
S31508008790FAF76EBAAAB239464046BDE8F843FAF780
S315080087A06FBB10B50C4601E0FFF714FFA04202D2DA
S315080087B041880904F8D510BD70B5DFF84858044655
S315080087C0A878012804BF686A00281DD12046FFF74B
S315080087D026FD022818DB00212046FFF730FD0DE0B4
S315080087E0012100F0A0FA78B93046FFF7DEFE0088CE
S315080087F0000409D431462046FFF750FD06463000EE
S31508008800EED16C62012070BD2046FFF749FF0020BB
S3150800881070BD2DE9F74FDFF8EC470020E080606275
S3150800882092B0FAF713FA0121A1704FF0000AA18855
S31508008830ADF802100021A180E1690191FAF718FA52
S315080088402089C200206A92B20021FAF77BFB0DF15B
S315080088500200FFF725FFFAF7F9F92178627855182B
S31508008860FAF706FAEDB206E004EB46000C30FFF71D
S3150800887017FF06F1010A5FFA8AF6AE42F4DB129890
S3150800888048B1002501E080476D1C1298EDB250F8FA
S3150800889025000100F7D1D4F814904FF0000B0125FC
S315080088A00DF1080A0198814502D3BBF1000F37D0B4
S315080088B0BBF1000F06D0ABF101005FFA80FB5AF856
S315080088C02B8004E04846FFF785FEC8468146B8F87F
S315080088D0020000F44041B1F5004FE3D140F4804076
S315080088E0A8F80200022638F81600FFF75EFE070011
S315080088F012D0788801040FD440F4004078803846B6
S31508008900FFF785FEBBF1100FBDBF4AF82B700BF1C0
S3150800891001005FFA80FB0025761C042EE3DBC1E725
S31508008920002DB8D0656A55B12888FFF73EFE6888DD
S31508008930000447BF002060622846FFF7B1FE00200A
S31508008940ADF800008246606A0025A0B300880021C1
S3150800895000F0E9F9ADF80000002100F0E4F9064658
S31508008960BDF8000000F051F90546304600F04DF913
S315080089708246BDF8500050451ADB300018D000F08A
S3150800898044F90746304600F028F9014613983A4656
S31508008990FAF776FA3046FFF708FE18B14188C1F3B0
S315080089A00D0141800022606A3146FFF7A1FC02E012
S315080089B00020ADF800006669B346B0460BE0308883
S315080089C0000404D5D6F80E0008B11BF0D9FC3046D1
S315080089D0FFF700FE06460198864223D23046FFF787
S315080089E0EFFD81463046FFF7D7FDBDF800108842F7
S315080089F006D10AEB0500C01C8010400000F10409EE
S31508008A0070880004DBD55846FFF7C6FD318801F4A7
S31508008A100041084330801FFA89F00BEB400B06EB48
S31508008A204008D4E70220A0700DF10200FFF738FED7
S31508008A306846FFF735FE129860B14FF0000902E06C
S31508008A40804709F1010912985FFA89F950F8290057
S31508008A500100F5D16769B94611E0022639F8160012
S31508008A60FFF7A3FD20B10088C0F30E0029F8160011
S31508008A70761C042EF2DB4846FFF7ACFD8146C1455D
S31508008A80EBD30BE00746FFF7A5FD4146FFF789FE46
S31508008A904845F7D3019881452BD13746474549D2F2
S31508008AA03846FFF797FD002F0646F6D0788800046B
S31508008AB0F3D500F088F8B84204D17888C0F30D00E1
S31508008AC07880EAE704D201463846FFF733FEE4E742
S31508008AD0019707E03046FFF77DFD4146FFF761FE47
S31508008AE037460646464504D2308800F06DF8864279
S31508008AF0F0D337B100F067F801001CBF3846FFF71E
S31508008B0019FE0198B946C3E73846FFF759FD0646E8
S31508008B105846FFF741FD8146720092B239465846DB
S31508008B20FAF7AEF9002249460DF10200FFF78FFB6E
S31508008B300BEB460BFAF78AF8064617E02178401839
S31508008B40401EC0B204EB40000021878981813800AD
S31508008B5009D0FFF72AFD00F037FA002239460DF151
S31508008B600200FFF774FB6078401E607060780100B1
S31508008B70E4D10021201DFFF79BFBFFF716FD070038
S31508008B8006D1BDF80200A080C4F81CB00020A07071
S31508008B903046FAF76DF8002FB6D1BDF8000078B167
S31508008BA00446FFF702FD07001CBF0AEB05007880A4
S31508008BB0204600F012F8139952462844FAF760F94D
S31508008BC015B0BDE8F08F3888C0F30E00EDE480B527
S31508008BD0FFF7EBFCBDE80240D8E410B5040012D05C
S31508008BE0FFF7F5FF18B940F2394100F0AFF8204613
S31508008BF0FFF7DBFC38B10188090402D5D0F80A0072
S31508008C0010BD083010BD002010BD10B5010013D0EE
S31508008C10FFF7CBFC0446FFF7B9FC18B940F25341FD
S31508008C2000F094F844B12088000401D5208910BDCD
S31508008C306088C0F30C0010BD002010BD2DE9F0417E
S31508008C4004460D46FFF7B1FC060040D0FFF79EFC30
S31508008C500FF2C85718B940F2664100F0A0F820464E
S31508008C60FFF7D3FF80463046FFF7B4FC4545044678
S31508008C702DD003DB40F26E4100F091F830880004F5
S31508008C8048BF358123D475803046FFF799FC06EB3B
S31508008C904005F9F7DBFFDFF86C13CA69661B9442D7
S31508008CA004BFCD610026F9F7E3FFB6B2082E06DA4F
S31508008CB032462846BDE8F041FF21FAF743B90822B3
S31508008CC000212846FAF73EF9A6F108006880BDE8B3
S31508008CD0F081F8B507460C46FFF767FC06463846A6
S31508008CE0FFF793FF051B8442ADB21BD003DB4FF49D
S31508008CF0936100F02BF8AEB13088000406D5D6F89B
S31508008D000A0034812844C6F80A00F1BD3846FFF740
S31508008D1064FF22464119FAF7B3F821463846BDE8FA
S31508008D20F4408BE7F1BD38B50C46FFF73EFC05006D
S31508008D300AD0FFF72BFC18B940F2AB4100F006F851
S31508008D4005EB4400808832BD002032BD0FF2CC40CE
S31508008D50F9F794BFF8B50C461546FFF726FC06004A
S31508008D600FF2B84714D0FFF711FC18B940F2B64114
S31508008D7000F015F82846FFF718FCFFF707FC18B9A6
S31508008D8040F2B74100F00BF806EB44008580F1BDD0
S31508008D903846BDE8F44040F2BA41F9F76FBF3846A5
S31508008DA0F9F76CBF70B504460D46002608E0FFF7D4
S31508008DB02CFF294686192046FFF7B5FFB6B20446AA
S31508008DC02000F4D1304670BD38B5C01C8D4C8010DB
S31508008DD04500A06AADB218B140F2CF41FFF7B6FF21
S31508008DE0A069E169411AC903B5EB114F05DA6900B3
S31508008DF049420844A062012032BD002032BD8149A3
S31508008E000020886270472DE9F84F0446E01C801060
S31508008E107C4D40000027001DAE690FF2004AB4F5EC
S31508008E20005F88461FFA80F904DB40F2E6415046A7
S31508008E30F9F724FFF9F70AFF8346E869A96A09B929
S31508008E40301A03E05FEA080202D0081A461008E062
S31508008E50701A4610B0B220B940F20C515046F9F7D4
S31508008E600DFFB6B24E4515DBEF6907EB4900E86121
S31508008E70A86A28B1B8F1000F04BF00EB4900A86240
S31508008E8000207C80B880F880388004F10801688961
S31508008E90081868815846F9F7EBFE1FB901211F200B
S31508008EA005F096FB3846BDE8F24FFFF775BBF8B5F7
S31508008EB004460D46164600210A20FFF7A4FF07467A
S31508008EC0FFF773FB48B10681C0F80A40018841F4F0
S31508008ED000410180C0F80E503846F2BD70B5044610
S31508008EE00D4611462846FFF78EFF06463CB1300070
S31508008EF005D0FFF772FE2A462146F9F7C1FF30462C
S31508008F0070BDF8B504460D46164615E02846FFF727
S31508008F107CFEB7B2874288BF07462846FFF75DFE44
S31508008F2001463A462046F9F7ABFF01212846FFF7E6
S31508008F30FAFE3C440546F61BB0B20028E6D1F1BD60
S31508008F402DE9F84381460E461446F9F77FFE2D4D66
S31508008F508046287801002BD0401E2870C0B205EB49
S31508008F604000A9788789F9B981813846FFF71DFB42
S31508008F7000F02AF83846FFF730FE32464946F9F738
S31508008F807FFF3846FFF729FE224600213044F9F7CD
S31508008F90D9FF00223946281DFFF759F94046F9F747
S31508008FA067FE0120BDE8F2836878401C6870E1E737
S31508008FB0A019012180B2FFF726FF0700DAD1404643
S31508008FC0F9F756FE0020EDE720B141884DF6FF720D
S31508008FD011404180704738B5F9F738FE044600213C
S31508008FE00B48FFF765F905462046F9F741FE28467E
S31508008FF032BD8041C00F7047024900208880704703
S315080090000000000094790020205F00201C920008D0
S31508009010987900202DE9F0410446884617461E46F1
S315080090204046FFF7DAFDC5194046FFF7EEFDF11990
S31508009030884203DA40F2B151FFF788FE300013D0B8
S315080090400698010003D132462946204604E0012845
S3150800905032462146284603D1BDE8F041F9F710BF4C
S31508009060BDE8F041F9F74FBFBDE8F08110B50C46F1
S31508009070FFF7B3FD00B1005D10BD38B50C461546C7
S31508009080FFF7ABFD00B1055531BD38B50446FFF70E
S31508009090BCFD05462046FFF7A0FD2946BDE8384039
S315080090A000221BE770B50D46691C0446C9B2FFF7D6
S315080090B0DDFF064629462046FFF7D8FF00EB0620C7
S315080090C080B270BD00B583B002238DF80420120A61
S315080090D08DF80520012200920A46014601A8FFF7ED
S315080090E099FF07BD10B50446FFF745FA10B1A4F17C
S315080090F008000CE010BD10B5FFF757FA040004D0BD
S31508009100FFF75EFA04EB400001E0002010BDBDE861
S315080091101040FFF741BAF8B504460D46FFF745FA81
S31508009120060016D07088C0F30C072846FFF73DFAEC
S3150800913007F00101CF19FFF743FA07EB400720466E
S31508009140FFF7D9FFA84203D040F26E61FFF7FEFD94
S315080091507780F1BD2DE9F0410C46FFF726FA0500A8
S315080091602DD06888C0F30C0606F001008019001B94
S3150800917004F00101471AE01C20F00300284400F11E
S3150800918008082846FFF702FABFB208B1A64203D27A
S3150800919040F28A61FFF7DAFDB44210D0092F0EDBE0
S315080091A06C80082200214046F9F7CCFEA7F108009A
S315080091B0A8F802004046BDE8F041FFF7EDB90020E7
S315080091C0BDE8F08170B5044682B02068FFF78AFFD3
S315080091D0ADF8000000B3FFF7E8F905001CD00088D9
S315080091E00FF23806000404D540F2A5613046F9F7B7
S315080091F045FD6846FFF754FABDF80000FFF7D5F9B4
S315080092000546FFF7C3F920B940F2AB613046F9F7D6
S3150800921035FD05F10800206073BD000062756666BD
S3150800922065722D6D616E6167656D656E742E63007E
S315080092302DE9F04704461F468846002091463870B7
S31508009240002100E02946012000F090FE050038D0F4
S315080092500CB900260AE0EB782A1D41462046FDF7A0
S31508009260B9FC06463878F1B28842EBD2284600F0B7
S3150800927023FE8246E878C01D05EBE000001D0DE0E0
S31508009280DB0609D53B788B4206D289F80020F2B274
S315080092908A4288BF0A463A7000F00EFE5045D1D27F
S315080092A0017849080329F7D18378C178002C03F09F
S315080092B00F02E5D199F800309A42EDD13970284667
S315080092C000E00020BDE8F08731B582B00C466B4659
S315080092D002AA00210020FFF7ABFF050001D10020FC
S315080092E03EBDACB1072100F010FE18B9062128468C
S315080092F000F00BFE9DF808102170807800F0F00051
S315080093006070281D60609DF8000020720020608152
S3150800931001203EBD11B581B00C4620B9204600F0AB
S3150800932029F8402016BD6B4601AA00210020FFF748
S315080093307FFF38B19DF80020011D2046FDF76DFC22
S315080093409DF8000016BD70B582B004460D46164657
S3150800935000F01CF818B100203070402076BD8DF85A
S3150800936000006B46324629462046FFF761FF9DF806
S31508009370000076BD80B5DFF8F0160A7A22B1082219
S31508009380F9F77EFD012002BD002002BD80B5DFF899
S31508009390D8160A7A32B10822F9F7DBFD401E804159
S315080093A0C00F02BD002002BD704700207047DFF8DD
S315080093B0B80600210172418108220C30F9F7C2BDB6
S315080093C0DFF8A416002048817047DFF8A006007869
S315080093D0000700D5704710B5DFF8944620780128B5
S315080093E00BD10121002010F03CFA10B100202070AA
S315080093F010BDBDE81040FA2105E010BDDFF8701673
S31508009400012008706421DFF86C060DF0DDBB2DE93C
S31508009410F84B08B404468B46DFF84C8616460021FE
S3150800942008F10A00FEF70BFF012709E028883040FB
S31508009430B04223D0494608F10A00FEF72FFF7F1CE9
S3150800944081465FEA09001AD0FFF7C7FB0500F1D08D
S315080094503000EBD11CB9B8B25845EBD10EE05B46EB
S31508009460AA1C59462046FDF7B5FB5845E2D19DF89A
S31508009470000000281CBFA97C8B45DBD12846BDE827
S31508009480F68BF8B504460D46DFF8DC65002106F1D3
S315080094900A00FEF7D4FE04E0394606F10A00FEF794
S315080094A0FDFE0746380013D0FFF797FB0028F3D0D8
S315080094B0821C2B4629462046FDF78CFBA842EBD199
S315080094C0394606F10A00BDE8F8400022FEF710BF4B
S315080094D0F1BDF8B5DFF8905504466889ADF8000087
S315080094E00E460020688118E000216846FEF7E0FE77
S315080094F00746FFF772FB80B10178C90707D5821CBA
S31508009500334631462046FDF765FBB04205D00022BA
S31508009510394605F10A00FEF79AFE6846FEF77AFE16
S315080095200028E1D0F1BD1346002270E780B500227D
S315080095304021FFF7F8FF10B1007800F0010002BDE6
S3150800954038B504460D46284603F078FAD0B92846B9
S31508009550FFF71CFF70B10021284603F041FA28B135
S31508009560FDF7F6FE214603F034FA2FE0204603F015
S3150800957044FA2BE02878FF2813D1687800F00F000A
S31508009580032805DA2146DFF8F00403F048FA1DE05F
S31508009590062804DA2046BDE8324003F02EBA002039
S315080095A032BD002240212846FFF7BDFF10B10178E1
S315080095B0890606D40023202200210020FFF727FF72
S315080095C028B1811C10222046F9F75AFC012032BD29
S315080095D02DE9F0410C4684B00546002201210BE036
S315080095E04146301D00F05DF918B1018841F400616B
S315080095F0018032460121284600F09EFC060025D04F
S3150800960096F80380052100F080FC002718B1001D9C
S31508009610FDF743FA07460421304600F076FC18B1F8
S31508009620001DFDF73AFA0743002FE2D0F80405D5E6
S3150800963020000CBF42F210021522D1E73805D8D512
S31508009640200014BF0B2242F20802C9E7DFF81854BB
S315080096506889ADF80A000020ADF80800688103E0C3
S3150800966000223146FEF7F3FD0DF10A00FEF7D2FDA2
S31508009670B0BB00210DF10A00FEF71AFE0646FFF7F9
S31508009680ACFA0028F0D00188CA0A4FF2FF7302F03C
S315080096900102194013000BD1230014BF4FF6F873CB
S315080096A04DF6FF73194042F20103194218BF012211
S315080096B00180002A14BF05F10A0002A8D0E728078E
S315080096C004D500223146204604F0FCF90FF2BC30DE
S315080096D001902346F01D0004C00C009000F085F8A8
S315080096E002A8FEF797FDB0B9002102A8FEF7E0FD33
S315080096F0FFF773FA0028F3D00588867C0FF28431C9
S31508009700841C0220FEF76BFBE806D8D500223146FA
S3150800971000F02FF9DAE7BDE8FF812DE9F043164698
S315080097201F4685B080460C4601230022FFF76FFED0
S3150800973005001FD1CC4D05F10A00FEF770FD08287B
S3150800974005DA00212820FFF75EFB814608B90020CC
S3150800975047E00022494605F10A00FEF778FD48462B
S31508009760FFF73BFA05003BD028220021F9F7EAFB70
S31508009770AC7404E0288843F20701084028801022C8
S315080097804146A81CF9F77CFB0020A8840D9C288874
S31508009790204328800C9921B1082205F11300F9F716
S315080097A06FFBA10614D50FF20030EE612F6201900F
S315080097B00497102000900396029400F015F8E3B27F
S315080097C03A463146404604F028FAFFF717FE07E006
S315080097D00FF2EC20019002941020009000F004F89B
S315080097E0284605B0BDE8F083434601220121022040
S315080097F0FEF712BBF0B50D4683B000F04EF8060032
S3150800980003D12A462146012020E0802D44F2300764
S3150800981005DA042106F10A00F8F7C6F806E0102270
S315080098202146B01CF9F72CFB4CF2300700200090BB
S315080098304FF4E16301971A464021B01CFFF76DFF0C
S31508009840002814BF002001202A46214603B0BDE89F
S31508009850F04004F02BBA38B500F01FF8050002D026
S315080098602888810601D4022013E000070CD50022BF
S315080098708021204600F07CFE4FF6FE7188421CBF10
S3150800988005F113011BF055F840212046FFF7F9FDB5
S315080098900020BDE8324004F061BA044600224021A7
S315080098A041E62DE9F041164686B00446884601226F
S315080098B0FFF739FE07463006C00E00F001050822FC
S315080098C0214602A8F9F7DCFA002F32D10FF2002060
S315080098D0019002AB08200090012201210220FEF728
S315080098E09BFAF00609D500F047F807003CD0700748
S315080098F03AD4012200F03CF836E0002D34D001229B
S315080099004146204600F034FE05464FF6FE70854275
S3150800991003D0FDF71DFD854201D1B00724D500F01F
S315080099202BF8070020D001224146204604F0CAF849
S315080099301AE0FFF763FD387800F0300030280DD1C3
S3150800994065B10020F86138623880002300220021C2
S31508009950B81C04F062F9002200F00AF8388841F2CF
S315080099600701314008433880384606B0BDE8F08123
S315080099704146204604F0CBB804A800210022C0E9DD
S315080099800012009101960023414602A8C5E680B55B
S3150800999000F04EF820B100880006400F00F00100E4
S315080099A002BD38B5044603F049F820B104F10800B1
S315080099B002F0C5FF32BD2046FFF7E8FCE8B104F126
S315080099C0080002F0B3FFB0B904F1080002F0DBFFAB
S315080099D088B96946204603F003F840B1BDF800008F
S315080099E009F019FA0546FDF7B3FC854203D020466F
S315080099F002F0E0FF32BD012032BD2046FFF7C7FF67
S31508009A0032BD70B5044600F013F878B10588A9068A
S31508009A100CD5867C31462046FFF733FD05F01F023C
S31508009A2031462046FFF73DFF012070BD002070BD7E
S31508009A30002300228021EAE410B50B4C38B9FD203A
S31508009A40207005220020E080601C0C4902E00146D7
S31508009A5008222046F9F714FA012020722046BDE8AC
S31508009A60104003F04CB80000287D00206E780020D6
S31508009A70DC7F00202C600020F47C00207279002016
S31508009A807047000064656C657465000070726566F1
S31508009A906978206E6F206C6F6E67657220657869CD
S31508009AA07374733A200000006E65772061646472EF
S31508009AB06573732025642025642025642000000032
S31508009AC06E657720707265666978202564200000C7
S31508009AD06E6F7465206E657720707265666978208A
S31508009AE0000000004078FF2801D1042070470220BA
S31508009AF07047FF2801DA02207047042070470146A4
S31508009B004878FF2804BF881CFCF7C7BF7047FF29A1
S31508009B1001DA41707047FF224270801CFCF7C7BF0C
S31508009B2038B50446FFF7EBFF054600F099FD4019E6
S31508009B3080B232BD2DE9F04FDFF8904C8046E089BF
S31508009B40020083B008BF00201AD061B9FFF75DF89C
S31508009B500646E089FFF741F8014632464046F9F7DE
S31508009B608FF930460CE0FFF738F80646E089FFF72C
S31508009B704CF83044019044462EB9A4EB080080B254
S31508009B80BDE8FE8F009E01988642F6D23046FFF762
S31508009B90C7FFC0B2304400903078032818BF0B289E
S31508009BA0F0D103280CBF01200020A2464FF6FE790B
S31508009BB0F8B10721F078C01D0004C00C051D304619
S31508009BC000F0A3F907460521304600F09EF9002F5C
S31508009BD018BF0028EDB217D0001DFCF75EFF4FF442
S31508009BE00861084210D0B87800F00F0040F47C49AC
S31508009BF00AE0304600F086FE0546B07800F00F0011
S31508009C0040F47C4040F010092A4600F042FF7619DD
S31508009C1064190BE049462046FCF749FFE4195C4500
S31508009C20F8D35C463046FFF77BFF06440098864229
S31508009C3021D23046FFF774FF37785FFA80FBF807C2
S31508009C40F0D55A4600F025FF012FA3440BD0052F67
S31508009C500BD00D2FE5D12046FFF744FF4946204497
S31508009C60FCF725FFDDE7032700E004272046FFF77A
S31508009C7039FF0444D3E75046FFF734FF5044211A0E
S31508009C80C9B2881CA8420EBF54465046FFF73FFF8C
S31508009C9078E738B5DFF8C85C0446A87A18B94FF4EF
S31508009CA0837100F0AAFB206808222946F9F7E8F82C
S31508009CB020680830206031BD38B5DFF8A45C04465A
S31508009CC0A87A28B1082221462846F9F742F958B158
S31508009CD0082221462846F9F7D3F80120A872284613
S31508009CE0BDE8324009F03ABD31BDDFF8740C817A1F
S31508009CF001B90020704770B50D46DFF8681C097871
S31508009D00062904461EBFDFF8586CF17A0129184661
S31508009D101FD000F087FA01281BD1FF2D19D028463D
S31508009D2019F01BFDA8B10FF230011820FEF757F8FD
S31508009D30FBF7CFFAC0F309052A46002120460FF0A3
S31508009D4062FE05F5FA71DFF8200C0CF03DFF0120E4
S31508009D50F07270BD0000000072656365697665641F
S31508009D60206E65776572206E6574776F726B2064F6
S31508009D706174612076657273696F6E00DFF8EC1B9B
S31508009D800978C90700D4704710B5DFF8404A617AE8
S31508009D9039B16179491C617140B1A079401CA07143
S31508009DA000E018B101214020FAF711FAE07A0228FA
S31508009DB00FD00220E072607A08B1642103E0FBF755
S31508009DC088FAC0F30801BDE81040DFF89C0B0CF0D8
S31508009DD0FBBE10BDF8B50446DFF8880B00780628E8
S31508009DE021D0DFF87C5B01F0B0FCE8890021FFF7A1
S31508009DF0EFFB0021042000F0B9F80646E889FEF7D3
S31508009E0004FF0746E889FEF7E8FE394603F0F1FE47
S31508009E102046FFF7B3FF304614F032FEBDE8F240A5
S31508009E20022001F02FB9F1BD10B5DFF8A049E07A9C
S31508009E30012806D0022806D10021DFF8340B0EF0DF
S31508009E40ABFF0020E07210BD2DE9F0410D4682B04F
S31508009E5004462F46002101E03146204600F086F8E8
S31508009E6006463846471EC0B2002818BF002EF3D152
S31508009E700DF000FADFF8E87A002814BF7F79BF7979
S31508009E800EB9002007E03046FFF739FE8046304617
S31508009E90FFF728FE4044C0B2009033463A462946AA
S31508009EA0204603F0ABF9BDE8F381DFF8B40A0021D8
S31508009EB0C1720172C181704738B50446FFF712FEB8
S31508009EC0054600F0C5FA6119084432BD38B504469E
S31508009ED00846154601E0FFF7EFFFA84203D20278CD
S31508009EE09442F8D132BD002032BD38B50446084642
S31508009EF0154601E0FFF7E0FFA84204D20278B4EB6A
S31508009F00520FF7D132BD002032BDF8B505460C46D2
S31508009F10FFF7D2FF064600F07DFA074600F07AFA08
S31508009F20EB78DB1DDB101B1DE919181A01443246B4
S31508009F302046BDE8F840C9E7F8B504460D4616467A
S31508009F40FEF74BFE07462046FEF75FFE3C181EB19D
S31508009F503046FFF7B1FF0746A74205D23978B5EB79
S31508009F60510F3846F5D1F2BD0020F2BDF8B500F024
S31508009F70C3FE010001D10020F2BDFEF72EFE074602
S31508009F800DB93D4602E000F05BFE0546F089FEF796
S31508009F903CFE3A1829462046BDE8F840A5E738B5FC
S31508009FA0DFF8BC49E089FEF718FE050008D0E0890D
S31508009FB0FEF72BFE29462A18BDE83840082085E713
S31508009FC0002032BDDFF89809817A19B1C079800678
S31508009FD0000C70474FF6FE70704780B5DFF8803981
S31508009FE0997A41B1014605221846F8F7B2FF401E94
S31508009FF08041C00F02BD002002BD10B5DFF86049E0
S3150800A000207B82B028B1052204F1100100F042FD40
S3150800A01016E002216846F7F7C7FC18B940F2312165
S3150800A02000F0EBF9BDF80000BDF80210E170000A77
S3150800A0302070BDF800006070080AA07040202071EA
S3150800A04013F03AF9E071FBF744F96071FBF741F94F
S3150800A050A07101206072A0720020E08101202072A8
S3150800A06001F0ABFBFAF716F910B10120FFF786FEEF
S3150800A070204609F073FB13BD2DE9F0478046FFF72C
S3150800A0804FFDDFF84847C6B2E089FEF7BEFD074632
S3150800A090F019002180B2FEF7B6FE0546C0B1E08988
S3150800A0A0FEF79BFD81462846FEF797FD82463A460F
S3150800A0B04946F8F7E5FE324641460AEB0700F8F747
S3150800A0C0DFFEE581012020720020BDE8F04781E629
S3150800A0D0BDE8F0872DE9F24F84B00446FFF720FD6E
S3150800A0E00546BDF810004FF6FF71884208BF4FF0CD
S3150800A0F0000805D0804600F0B3FA40441FFA80F8FD
S3150800A100DFF85C78F889FEF780FD02904044401B32
S3150800A110ADF80000BDF8001002988842B4BF0126C9
S3150800A1200026080008BFF88147D02EB10021FEF7A7
S3150800A1306AFE814630B940E0A84508BF20463CD0B3
S3150800A140B7F80E90F889FEF748FD82464846FEF7AE
S3150800A15044FD83460020A4EB0A040190A4B24EB144
S3150800A16028464545C8BF4046021992B25146584648
S3150800A170F8F786FE0BEB0400B8F1000F18BF019044
S3150800A1800299091B4A1B291992B251444044F8F70F
S3150800A19077FEBDF800000299884203DA0146484670
S3150800A1A0FEF74CFD019818B1BDF81010FFF7AFFC8B
S3150800A1B001203872A7F80E900198ADE2FEB5044664
S3150800A1C0DFF80806407A0D4616461F46C8B10FF254
S3150800A1D03800019002940097334600F009F94FF6CB
S3150800A1E0FE70854205D0002300220021284600F093
S3150800A1F093FB089BFAB23146204603B0BDE8F0400F
S3150800A2008AE3F7BD000000004E44206368616E676C
S3150800A2106520726571756573742066726F6D202589
S3150800A220753A000038B5040005D10FF24C0102203A
S3150800A230FDF7D5FD16E0DFF82857A87A297A0842EF
S3150800A24008BF0FF2540111D0052229462046F8F717
S3150800A25080FE08B1032032BD68796179401AC0B220
S3150800A260812801DA022032BD0FF254010220FDF7DF
S3150800A270B6FD012032BD00006F6C646572206C6506
S3150800A280616465722064617461202869742773208B
S3150800A2904E554C4C290000006E65776572206C653A
S3150800A2A06164657220646174612028776520646F33
S3150800A2B06E2774206861766520616E792900000032
S3150800A2C06E65776572206C65616465722064617479
S3150800A2D061000000F0B50C4683B015462046FFF72E
S3150800A2E0A1FF01284AD10FF2A4010220FDF777FD4C
S3150800A2F0DFF88C0D0078062807D02046FFF76DFE9C
S3150800A30018B940F20A3100F078F82846FFF7F7FB4B
S3150800A3100746DFF8B86400F07DF8B179A2792844D9
S3150800A320891A0025C9B28129A8BF01250022394604
S3150800A330FEF7D4FD010003D10FF26801072020E0E3
S3150800A340F081082221463046F8F79AFD0120B072BE
S3150800A3500020F07201203072F089FEF756FC0446A0
S3150800A360F089FEF73AFC03460FF258000190009474
S3150800A37000F03EF82846BDE8FE402BE50FF25401F2
S3150800A380022003B0BDE8F040FDF729BD7570646191
S3150800A39074696E67206E6574776F726B206461747A
S3150800A3A0610000006E6F20686561702073706163DC
S3150800A3B06520666F72206E6574776F726B206461B4
S3150800A3C0746100007278206E6574776F726B206412
S3150800A3D0617461006E6574776F726B206461746175
S3150800A3E0206973206E6F74206E65776572000000B1
S3150800A3F0012201210220FDF70FBD0FF20800F8F730
S3150800A4003DBC00006E6574776F726B2D6461746174
S3150800A4102E6300002846FFF765BBF8B504460D46CF
S3150800A420FFF760FB261800F013F837182078400865
S3150800A43014BF0424032400E02644BE4206D2304654
S3150800A440FCF72BFBA842F7D1B01CF2BD0020F2BDE9
S3150800A4502046FFF754BB2DE9F04789469246054644
S3150800A460984600220121FFF767FD089C04E0324662
S3150800A47001212846FFF760FD06468EB1F7782000D1
S3150800A48018BF5745F3D13B46321D51464846FCF79F
S3150800A490A1FBB842EBD141463046BDE8F04734E56A
S3150800A4A00020BDE8F0872DE9FF4FDFF8080D00888A
S3150800A4B083B00126ADF804000225052302279DF87E
S3150800A4C014009DF8102003990090BDF80400FFF7CA
S3150800A4D0C2FF5FEA000A3BD0FFF704FB0AEB000461
S3150800A4E05046FFF7E9FC4FF6FE794FF0FF08824623
S3150800A4F007E0584613F0BAFA40453CBFD9468046AD
S3150800A500241D544518D22046FCF7C7FA8346A01CDA
S3150800A510FCF7C3FABDF8181008408842F0D130009D
S3150800A5200BD10BF47F40B0F57C4F06D0DFF83C0426
S3150800A53000780007DDD400E0CB464FF6FE70834571
S3150800A54006D016B1FCF704FF83461FFA8BF00CE021
S3150800A55004237F1EB3D1DFF80804C089ADF80400D0
S3150800A56000266D1EA9D14FF6FE7007B0BDE8F08F24
S3150800A5704FF4006397E780230122402193E738B51B
S3150800A58004460120DFF8D8530090052300F009F8A7
S3150800A59028B901200090042300F003F800B1012037
S3150800A5A032BDE8894022214655E770B582B0044697
S3150800A5B000208DF800000D461646FCF7C9FE8642B7
S3150800A5C00DD100208DF8000085F080009DF8001060
S3150800A5D040EA0420C1F10F01084380B276BDB00AF3
S3150800A5E018F0D2FEFF2808D0694613F004FAFF28AF
S3150800A5F01CBF9DF800000028E6D1002076BD2DE995
S3150800A600F84F0546144688469A4600F029F800F0A1
S3150800A610E7FC0A9C0B9F814611E059463846FFF72E
S3150800A620FCFE58B1B07800F0C0015A462046FFF744
S3150800A630BCFF85423CBF0546A8F800B056444E45C7
S3150800A6400BD23046FCF729FA002F8346E5D1B01C19
S3150800A650FCF723FA8005E5D4F0E72846BDE8F28F33
S3150800A6602046FFF73FBA2DE9F34F83B04FF6FE7049
S3150800A670ADF80800002705230224544D0120009058
S3150800A68040220499E889FFF7E6FE5FEA00093ED012
S3150800A690039A049840234021FCF79CFA0021C0B293
S3150800A6A00191009004234A4602A93846FFF7A7FFFE
S3150800A6B00746002224E09BF803800121022658461B
S3150800A6C0FFF723FC5FEA000A16D0039A8023414667
S3150800A6D00BF10400FCF77EFA3904090EC2B2914266
S3150800A6E00AD2C0B20090CDF804900323524602A9BC
S3150800A6F03846FFF784FF07460021761EDFD15A4603
S3150800A700E8890121FFF718FC5FEA000BD3D104237F
S3150800A710641EB3D1BDF8080005B0BDE8F08F2DE979
S3150800A720F0412A4D0646E889FEF757FA0446E889B5
S3150800A730FEF76BFA251802E000F053FC0446AC421B
S3150800A7403FD220784008052802BFA07800F00F0005
S3150800A750B042F1D1DFF85C5A2888FEF756FA064669
S3150800A7602888FEF73AFA01463246204600F072FA81
S3150800A77018B1BDE8F041FCF7EBBD204600F0C2F881
S3150800A78000F02EFC4FF6FE78FF27054615E03078D8
S3150800A790400806280ED1B01CFCF77FF9044622466D
S3150800A7A000210020FFF701FFC1B2FAB291423CBF77
S3150800A7B00746A04600F06AF90646AE42E7D3404689
S3150800A7C001E04FF6FF70BDE8F081000044790020F3
S3150800A7D00978C90702D5012141747047012181749E
S3150800A7E0704770B50C46C178C91D00EBE1010D1D17
S3150800A7F0FFF762FB064602E0FFF75EFB0546B54239
S3150800A80004D229788C422846F6D170BD002070BD46
S3150800A8102DE9F74F05460E46FFF782F95FFA80FBEA
S3150800A82000F034F9804629783046FFF7DAFF074604
S3150800A8302878400802280CBF4FF004094FF0030996
S3150800A8404FF6FF7AA7B9022229464046F8F718FBC1
S3150800A8507078584408F102047070002C48D04A46B3
S3150800A860A91C00F017F951462046FCF720F943E0E9
S3150800A87002988089ADF804003846FFF733F93C188A
S3150800A88000F0DBF9009038784008022814BF4FF032
S3150800A890030B4FF0040B00E05C440098844207D297
S3150800A8A02046FCF7FAF8BDF804108842F4D18CB9B2
S3150800A8B000F0C3F90446A8EB0402D2B2214604EB21
S3150800A8C00900F8F7DDFA70784844707078784844DB
S3150800A8D07870C2E74A462146A81CF8F73AFB0028D2
S3150800A8E0BDD15146204603B0BDE8F04FFCF7DFB8AE
S3150800A8F040F2F541FFF781FD0298294603B0BDE80D
S3150800A900F04F65E7817809064CBF03210721405CB3
S3150800A9104018401CC0B27047F0B585B007460C46D3
S3150800A92015461E4600F047F801208DF810008DF8F0
S3150800A9300E00ADF80C708DF80F606B462A4621465E
S3150800A940DFF8840800F0A9F840B19DF811009DF8D9
S3150800A9501210014318BFFFF73DFA012005B0F0BDFC
S3150800A960447900206A780020EC5E00206E7800208A
S3150800A970C4A20308F0B585B004460D4616461F4620
S3150800A98000F019F8ADF80C5016B901208DF80E0034
S3150800A9906B460A9D3A463146204600F07EF838B1A5
S3150800A9A09DF811009DF8121008432870012000E058
S3150800A9B0287005B0F0BD142200216846F8F7C2BA1F
S3150800A9C02DE9F94D144682B00E469B462046FFF700
S3150800A9D0A7F801909DF8080020B1E078C01DC010C6
S3150800A9E0001D02E02046FFF78DFF27180198204436
S3150800A9F0009013E039465046F8F742FA4FF6FF71D1
S3150800AA000AF10200FCF753F8707840447070394632
S3150800AA100D98FFF7DDFE00F010F90746009887420B
S3150800AA2026D29DF8080028B10D9A31463846FFF718
S3150800AA30EFFEF0E700F007F95FFA80F800F026F875
S3150800AA4082463046FFF75EFF351802E000F0F8F858
S3150800AA50054655454246CDD229463846F8F779FA8D
S3150800AA600028F3D14FF6FF71A81CFCF720F8D2E7AF
S3150800AA700C9E307800995844421A92B200F00AF8AF
S3150800AA8030780199401A3070BDE8FF8D3046FFF7DF
S3150800AA9013BA31462046F8F7F3B92DE9FD47C3B096
S3150800AAA0B0F800800D461E464046FEF796F8074663
S3150800AAB04046FEF7AAF83818029003A830600DF54C
S3150800AAC08570706001203081002070816FB94FF663
S3150800AAD0FF70B0819DF810012C1869E040F2C15151
S3150800AAE0FFF78BFC00F0A9F8074602988742EED2DA
S3150800AAF000F0A9F8D6F80090C4B2224600F0A6F8ED
S3150800AB0030682044306099F800004008012804D0D5
S3150800AB100428E7D005282ED0E0E79DF8100199F81B
S3150800AB2003A02C462044009002E000F05AFA04469E
S3150800AB300098844219D220784008012804BFE0789A
S3150800AB408245F2D15346221D514609F10400FCF70D
S3150800AB5041F85045E9D1220007D044A80090019653
S3150800AB602B4649460120FFF72BFF0022314648466F
S3150800AB7000F0C8F8B6E79DF810212946484600F0C7
S3150800AB8069F840B144A90091024601962B46494608
S3150800AB900020FFF715FF00223146484600F051F91C
S3150800ABA0A0E70122314600F04CF900F049F80546C5
S3150800ABB0A54219D228784708012F18BF052FF4D1C6
S3150800ABC02846FEF7ADFFC2B230682946F8F758F9AD
S3150800ABD029463046FFF7FCFD3068012FE1D10122F6
S3150800ABE0314600F08FF8E0E7707C002804BFB07C9F
S3150800ABF000281ED04046FEF708F80446306803A928
S3150800AC00451A0021A8B2FEF7FEF8060008BF002084
S3150800AC1010D0439806803046FDF7DFFFAAB203A995
S3150800AC20F8F72EF9A8B2A04203D2A9B23046FEF729
S3150800AC3005F8012046B0BDE8F0873846FFF73CB96D
S3150800AC402846FFF739B93846FEF76ABF39464846F7
S3150800AC50F8F716B92DE9F04104460D46A07800F03C
S3150800AC60800690462046FFF74DFEC71EFFB2A84451
S3150800AC7002E0FFF7E5FF0546454511D2287840086A
S3150800AC80052802BFA87800F080008642F1D13A462E
S3150800AC90E91CE01CF8F75DF90028EAD1284600E02F
S3150800ACA00020BDE8F081F8B500F026F8FDF7ADFF05
S3150800ACB00746F089FDF791FF01463A462046FFF719
S3150800ACC0C9FF040016D0FFF71DFE00F089F90446F7
S3150800ACD002E0FFF7DBFE0646A6420BD22846FEF741
S3150800ACE01FFF024631462846F8F733F90028F0D107
S3150800ACF00120F2BD0020F2BDDFF8D0640446F089D9
S3150800AD000D4670472DE9F44F0D46044682B0E078AB
S3150800AD10C01D04EBE00000F1040A00F062F900909F
S3150800AD205646207800F0FE004FF0000800272070F5
S3150800AD3007E09DF8080018B951462846FFF748FD70
S3150800AD40CA460098824537D25046FFF7B5F881467D
S3150800AD509AF80000400818BF02281AD0032804BF32
S3150800AD609DF808000028EBD15046FEF7D9FE564557
S3150800AD705FFA80FB04D05A4651463046F8F780F809
S3150800AD803178207801F001013746084320705E4487
S3150800AD90D6E72A463146504600F0D7F8B346064667
S3150800ADA05E45C6D09AF80010207801F001010843E4
S3150800ADB020704FF00108C3E7B7B12078397860F3FF
S3150800ADC000013970B8F1000FB87814BF40F01000D0
S3150800ADD000F0EF00B8700121BA78288902F00F0256
S3150800ADE091400843288126E0B8F1000F08BF2C607F
S3150800ADF025D0287CF8B105F1080000F093F807463D
S3150800AE00102F18DA00F08BF8207894F803A0C00702
S3150800AE104CBF0720062030700420FEF76AFEC0F1FA
S3150800AE20040189B23046FEF772FE47F01000B07092
S3150800AE3086F803A0361DA01C301A60702E60BDE887
S3150800AE40F78F2DE9F84F04460D469246FFF75AFD4F
S3150800AE50271800F0C6F88046207800F0FE00B946AC
S3150800AE600026207019E04FF6FF71884203D1A989A0
S3150800AE70B81CFBF71CFE3978207801F00101012681
S3150800AE800843B945207004D0FFF7DDFE0246FFF7F8
S3150800AE90DDFEFFF7D8FE81445F4647451BD2FFF724
S3150800AEA0CCFE8346387840080628F5D1B81CFBF74F
S3150800AEB0F4FDA97B0029D6D0A989884206D0EA7B69
S3150800AEC0002AD0D0820AB2EB912FCCD13946284637
S3150800AED0FFF77EFCE0E70EB92C601EE0BAF1000F22
S3150800AEE00DD005F10A0000F01DF8102804DAA17843
S3150800AEF001F080010843A07000F011F807E0A2787D
S3150800AF006889012102F00F02914008436881A01C5C
S3150800AF10A9EB00006070C5F80090BDE8F18F2146E6
S3150800AF20284655E410B50288002122FA01F4E40700
S3150800AF3003D5491CC9B21029F7DB102903DA012306
S3150800AF408B401A430280084610BD2DE9F84F044687
S3150800AF5088461546FEF7C6FD04EB000900F041F8E1
S3150800AF602178824648080228A8890CBF04260326A9
S3150800AF70800A4746009008F8021B10E0C84504D02E
S3150800AF80324649464046F7F77BFF4FF6FF70834542
S3150800AF9003D1A9894046FBF78AFDB044B144D1459F
S3150800AFA014D24846FBF779FD8346A87B0028E5D0EE
S3150800AFB0A889834507D0E87B0028DFD000994FEAA7
S3150800AFC09B208842DAD1FFF7AAFFE7E7B81C80453D
S3150800AFD00FBF3846A8EB000078704046BDE8F28FF0
S3150800AFE026182046FEF768BF2DE9F8431546804621
S3150800AFF0287844080F469946FFF70CFA2E18287841
S3150800B000C0074CBF732574254046FCF7E6FE40464C
S3150800B010FCF7DCFE072C009510DA6D480FF2B41128
S3150800B02050F824303A464046FCF7C2FE032C12D1AB
S3150800B0303078C0064CBF60A260A207E023463A46B5
S3150800B0400FF29C114046FCF7B3FE04E00FF29C1188
S3150800B0504046FCF7ADFE0FF2A4114046FCF7A8FEE9
S3150800B060002757A406E0BFB22146F25D4046FCF72A
S3150800B0709FFE7F1CB8B24845F5D3BDE8F1830000B2
S3150800B0802B7A002070B50446FCF784FEC8B14F4DF4
S3150800B090E889010006D12046BDE870400FF2641128
S3150800B0A0FCF79DBEFDF799FD06000AD0E889FDF775
S3150800B0B0ACFD331832462046BDE870400FF25811F1
S3150800B0C000E070BD2DE9F84F80460D4614469946B6
S3150800B0D0FCF760FE002841D04046FCF777FE29467B
S3150800B0E04046FCF765FE0FF2401B36A712E03046D5
S3150800B0F0FEF705FDC3B2324659464046FFF774FFD0
S3150800B100FFF7C4FC064605EB0A008642EFD3FFF7B5
S3150800B11068FF04464C451CD2FFF79AF98246FFF7AA
S3150800B1209FFA2518207840080128564603D0052896
S3150800B13008BF002604E0E078C01D0004C00C861C89
S3150800B140F3B2224639464046FFF74EFFB6B2AE196D
S3150800B150D9E74046BDE8F24FFCF73FBEBDE8F18FA0
S3150800B16070B51A4E0446307A0D4618B900220021E9
S3150800B17091201BE0F089010002D10022002110E095
S3150800B180FDF743FD85420ED3F089FDF73EFD0546E2
S3150800B190F089FDF722FD01462A46FFF77BFC2A4681
S3150800B1A02146002002E0002200210220BDE870406E
S3150800B1B002F028BD747F0020796573006E6F000069
S3150800B1C020255800202000005279002044790020CC
S3150800B1D0F85E0020257325735F2563207C20000018
S3150800B1E0257325585F2563207C200000636F6D70EA
S3150800B1F0726573733A202573207C20006279746522
S3150800B200733A00006E6574776F726B2064617461BF
S3150800B2103A202829000000006E6574776F726B204B
S3150800B220646174613A0000002020202000000000BC
S3150800B230DFF8302A012111700021DFF82C2A10804E
S3150800B240101D0BF0C1BC2DE9F0470546DFF81C0AB6
S3150800B2500078000786B0904658BF012070D59946F9
S3150800B260B9F1800F0CBF40241C460027FF2DDFF8DC
S3150800B270F4693FD121464046FEF72BF9200026D136
S3150800B280052000F083FB0746042000F07FFB0743F8
S3150800B290002F6CD00120307000F0A8F8B08801218A
S3150800B2A0FEF796F9012221464046FEF73CF90600CC
S3150800B2B05DD0307880065AD4E80458D5B9F1800FA5
S3150800B2C03FD11022414602A8F7F7DAFD42E00523EE
S3150800B2D04FF0020A012000902246B0884146FFF747
S3150800B2E0BAF810B100F06EFB07460423BAF1010A5A
S3150800B2F0F0D1CDE7E80A00F00102280B00F00100C2
S3150800B30082421CD0402C1AD162B10F98B0F5E16F79
S3150800B31015D3DFF85C29904211D210983C280ED339
S3150800B32090420CD2B8F1000F09D000912B460222A8
S3150800B3304021404600F05FF80028ABD117E0022014
S3150800B34016E00822414602A8F7F79AFD042104A848
S3150800B350F6F72AFB308840F0200001904FF4E163AD
S3150800B360002000901A46214602A8FEF7D6F90020CA
S3150800B37002F07CFB06B0BDE8F0877CB515001E46DA
S3150800B38003D0412E01DA320001D1022028E0FF283D
S3150800B390DFF8D04816D0009100F0C00300223146ED
S3150800B3A0284600F028F8D0B10FF6F00001902B4699
S3150800B3B0F01D0004C00C0090012201210D20FCF7AD
S3150800B3C02BFD0AE0012000900B46A0882946FFF7CE
S3150800B3D042F820B100F0F6FA08B100F005F80020AE
S3150800B3E0BDE8764002F057BB012020700021DFF847
S3150800B3F084080BF0E9BB2DE9F047C2B0814600206E
S3150800B4008DF804000F46F81D00044FEAD04A154689
S3150800B410984600F042F94A9C200014BF03200220F7
S3150800B4208DF8080002AE00207070B070F7705246B2
S3150800B430494603A8F7F724FD02A85044001D022D2B
S3150800B4400CBF04220322431C69000CB141F0010120
S3150800B45001701A70DFF80C4861889970080A5870EC
S3150800B460DB1C042A04BF4FEA182003F8010B0DF170
S3150800B4700A0003F8018B181A707002AA01A8009036
S3150800B48002A81B1ADBB2201DFFF774FA28B19DF833
S3150800B490040008B1FFF7A8FF012042B0BDE8F08715
S3150800B4A02DE9FC41DFF8BC670446B0888846FDF7FD
S3150800B4B0ACFB0746E519A84505D24FF4A5710FF26E
S3150800B4C0F070F7F7DBFB00F0E8F8B088FDF785FBCE
S3150800B4D001463A462046F7F7D3FC0FF2E87001908A
S3150800B4E000972346012201210220FCF795FC2846F5
S3150800B4F0BDE8F6812DE9F04F83B0804608EB0100E0
S3150800B500002601900090B24602E0019800900026BD
S3150800B510009C4546A54263D24046FEF7CDFC474609
S3150800B520804644455AD33878DFF8389740080628C5
S3150800B530A8EB050452D8DFE800F022042251510492
S3150800B5403F00002E4AD1052804D13846FFF7DAF91C
S3150800B55008260BE0042C41DBF8788246BAF1810F05
S3150800B5603CDAC01D0004C00C001D0126C0B23844D8
S3150800B57040453CBFCDF80080804626D32EE018B95A
S3150800B58004254FF0050B0EE0381DFBF786FA022559
S3150800B59010F4C0504FF0060B05D0BAF1400F1DD17C
S3150800B5A0B0F5C05F1AD045F001003040012804BF4D
S3150800B5B05C452E4304D011E0082E0FD1042C0DDB78
S3150800B5C0B9F80210B81CFBF772FA009880459FD1AB
S3150800B5D0002E9DD006F00700012896D1002000E035
S3150800B5E00120BDE8FE8FF0B50C460025FF2CC1B042
S3150800B5F0074601DB02254AE0DFF86866B0882100C5
S3150800B60003D1002843D0B58037E001000CD0FDF700
S3150800B610FCFA844208D1B088FDF7DFFA01462246D3
S3150800B6203846F7F796FC90B3224639466846F7F748
S3150800B63027FC21466846FFF75DFF0028DAD0B08868
S3150800B640010010D0FDF7E1FAA0420CD3B088FDF74F
S3150800B650C4FA22466946F7F713FCB0882146FDF777
S3150800B660EDFAB08804E0002221466846FDF736FC6C
S3150800B670010008BF18250AD0B08000F00EF8012096
S3150800B68030700121B088FDF7A3FFFFF7AFFE214612
S3150800B690284602F0FAF941B0F0BD0120AEE10000FB
S3150800B6A02DE9F047DFF8D07580463888FDF795FA1A
S3150800B6B006463888FDF7A9FA4FF0000A37180EE053
S3150800B6C03046FEF70FFA3044FBF7E7F9404500D15C
S3150800B6D0CA46EDB27619BE4202D10CB127460024FD
S3150800B6E0BE422FD23046FEF71BFA05460AF1010084
S3150800B6F05FFA80F9307840080628EAD8DFE800F0D3
S3150800B7001106110404180500E3E7D9E73046FEF7E9
S3150800B710D3FB3C460746F078C01D0004C00C051D47
S3150800B720D7E741463046FEF778FE0028D1D0CFE766
S3150800B7303046FEF7C1FB3C4607463046FFF7E2F8BF
S3150800B7400546C6E75046BDE8F087DFF830050078BD
S3150800B750062800D1704770B5FFF79FFFFBF7F8FD85
S3150800B760FFF79EFF0446002000F048F98442DFF800
S3150800B770F854DFF8F06406D100203070281DBDE8C3
S3150800B78070400BF071BA307838B90120307000215A
S3150800B790281DBDE870400BF017BA70BD032802BF1C
S3150800B7A0DFF8C0040178022906D1002101704FF69E
S3150800B7B0FE70DFF8B4140880704710B5C2B00DF5F6
S3150800B7C0817101A8FFF76CFE0446FBF7C1FD002155
S3150800B7D0009101AA01A9631A9BB24FF6FE71FEF702
S3150800B7E0EDFCDFF880140020087042B010BD2DE98A
S3150800B7F0F041DFF870440FF2B84021780129DCB037
S3150800B80004D06CD3032966D062D368E0FEF7DAFB6E
S3150800B8100646DFF86C04007810B1FFF7CEFF5EE04D
S3150800B8204FF6FE784645DFF8405408BF4FF4FA61F4
S3150800B8304AD0DFF838040078000750D559A90DF129
S3150800B8406600FFF72DFE07460A208DF8640019A842
S3150800B850381A801E8DF865000220FCF79BFA88B11D
S3150800B8600DF16600B84205D10FF270410220FCF7CF
S3150800B870B6FA07E03B460DF166020FF27041022068
S3150800B880FFF720FC2A88424504D00221384613F0E7
S3150800B89067F8074619A83B1A9BB219AA31466846A3
S3150800B8A019F0D4FCDFF8DC030FF2504115900022A2
S3150800B8B042F6E0601690684610F081F910B9022049
S3150800B8C020700CE040F6B831281D0BF07DF906E033
S3150800B8D040F29B2101E040F29F21F7F7CFF95CB0D7
S3150800B8E0BDE8F08110B50446DFF8940300789AB0F5
S3150800B8F048B100200090002300224FF6FE71204632
S3150800B900FEF75CFC26E02046FFF7CAFE10B3224687
S3150800B9100221684613F024F804466846201A0528CA
S3150800B92005D340F2AB210FF28830F7F7A7F9FEF7F7
S3150800B93049FB6946631A01469BB26A4601A819F093
S3150800B94085FC42F6E060179000220FF2B03101A89C
S3150800B95010F035F91AB010BDC2490020888070472A
S3150800B960F8B50446C44EBF483788808830800D46EF
S3150800B970FFF793FE21462846FEF775FE4FF6FE7141
S3150800B9808842378014BF01200020F2BDF8B504466E
S3150800B9900025B44E002208E02146FEF7B6FA18B193
S3150800B9A0718800F025F801253A46B0880121FEF78E
S3150800B9B0C3FA0700F0D128001CBF002000F002F8E7
S3150800B9C02846F2BD1CB5A74C10B1618800F010F8E6
S3150800B9D000208DF80400002301A80090002260884A
S3150800B9E0411C89B2201DFEF7C5FF9DF8040016BD4F
S3150800B9F0491C89B2801CFBF75AB800002DE9F14FA3
S3150800BA0084B0984C38B1FBF7A3FC6188884208BF1C
S3150800BA10002000F08280FBF79BFC60800025A08850
S3150800BA20FDF7DBF80746A088FDF7EFF807EB0008F7
S3150800BA3000260295A946019516E0381D029038465B
S3150800BA4097F80390FEF738FA46468046F878C01D00
S3150800BA500004C00C00F1040A5FFA8AF0074447455F
S3150800BA6002D10EB1B0460026474555D23846FEF7F4
S3150800BA7057F83B7882465808691C0628C9B2EBD89D
S3150800BA80DFE800F006050604042D3800E4E7D4E7ED
S3150800BA909DF810000D4620B16188B81CFBF707F821
S3150800BAA0DAE7012000904A46734802990088FEF7B3
S3150800BAB0D2FC5FEA000B2DD0FBF74AFC014658463C
S3150800BAC0FEF7ABFC30B3397849080CBF01220222D5
S3150800BAD00146381DF7F73DFA0028BDD01AE0019750
S3150800BAE03846FEF7E9F9464680463846FEF70AFF25
S3150800BAF08246B1E79DF810000D4628B13846FDF795
S3150800BB00F1FF61883844C9E701983946FFF7CBF851
S3150800BB100028A1D1FF2000E0284605B0BDE8F08F37
S3150800BB2070B50C460025584E210008BF358014D044
S3150800BB300146021902E04B7801EBC3018B1C9342C4
S3150800BB40F9D3914218BF022507D100222146FDF7F5
S3150800BB50C5F901000CBF1825308021462846BDE8E6
S3150800BB60704001F08CBF2DE9F047474D0446288800
S3150800BB7088460100924608BF00200CD0FDF72DF834
S3150800BB8007462888FDF741F83D18D1460026B7B97B
S3150800BB90A9EB0A0080B2BDE8F087401C82B2424594
S3150800BBA00CD280B2225C9142F7D1BAF1000F04D0D0
S3150800BBB0324639464846F7F763F9B144BF19AF42EA
S3150800BBC0E6D2002FFAD078783978C6000020E5E763
S3150800BBD0FEB50D46014616461C460FF2281018F00B
S3150800BBE09FFD08B10020FEBDAA1929460820FEF7C8
S3150800BBF06DF9060003D100F049F8802118E0717844
S3150800BC000022B01CFFF7AFFF05460027DDB11E4F27
S3150800BC103888FCF7FAFF854208BF3F8813D0002111
S3150800BC202846FDF7F0F8070006D100F02FF8A32103
S3150800BC30204610F0E8FB12E0FCF7CFFF02467178C9
S3150800BC40B01CFFF790FF09208DF804008DF8055009
S3150800BC500097022301AA4421204610F0DEFB0120AA
S3150800BC60FEBD0000707F0020546000206E78002022
S3150800BC709BC4200058600020527900206A78002072
S3150800BC804D7900209DB70008767F0020002002909D
S3150800BC900190009000230022704700006E6577200F
S3150800BCA065787465726E616C20726F7574652000B4
S3150800BCB06C6F63616C2D7365727665722D64617441
S3150800BCC0612E630073656E64696E672073657276AC
S3150800BCD065722064617461200000000073657276E5
S3150800BCE0657220646174613A20282900736572764A
S3150800BCF0657220646174613A00000000612F736404
S3150800BD0000000000612F6E64000000007047808903
S3150800BD1089B2814201D1012070470020704770B571
S3150800BD2086B004460D4604A9284600F01EFE69465C
S3150800BD302046FDF7EFFA4FF6FE76402818BF304644
S3150800BD4015D10822294602A8F7F79AF86846F8F79F
S3150800BD506FFEFF2806D0DFF81415096831F81000C1
S3150800BD60B04204DB684617F051FB17F07AFB06B0C1
S3150800BD7070BD70B5DFF8F85429780446FF29A08904
S3150800BD8008BF28706978FF2908BF68702978884233
S3150800BD9025D0E17BFF2908BF264603D0281DFCF7DE
S3150800BDA06AFB0646217CFF290EBF2046281DFCF7A4
S3150800BDB062FBA1896A78914202D1B089687003E072
S3150800BDC081893174B189C173FF20E073281D2978F0
S3150800BDD02174FCF750FBA189C173A089287070BD36
S3150800BDE080B502894FF6FF739A420AD0827A8B7A17
S3150800BDF09A4206D1082219F039FA401E8041C00F2E
S3150800BE0002BD002002BD008989B2884201D1012005
S3150800BE1070470020704710B586B004460822684669
S3150800BE20F7F72EF88DF80A4000236A46DFF844141F
S3150800BE30DFF84404FCF7F0FA040018BFFFF799FF8F
S3150800BE40204606B010BD2DE9F043064689469046C1
S3150800BE50DFF81C44DFF8241485B000234FF6FF7280
S3150800BE60201DFCF7D9FA050020D1A08808B90027BB
S3150800BE7006E02089FF2190FBF1F1C1EB0121471A69
S3150800BE80B9B2201DFCF7F7FA050003D0A889B9B2A4
S3150800BE9088420BD00821201DFCF713FB050004D1AE
S3150800BEA06178201DFCF7E7FA0546AF814FF6FE7765
S3150800BEB0B84504D149463046FFF731FF8046082287
S3150800BEC049462846F6F7DCFF0020A873A5F808803F
S3150800BED0AE722889A989B8420CBF4FF0FF300020FE
S3150800BEE06861FF20E8732078814218BF28742846C5
S3150800BEF0FFF73FFFA87A04902B4628890390012272
S3150800BF00A889029001210FF2D43000F024F92846BE
S3150800BF1005B0BDE8F0832DE9F04186B006468846AF
S3150800BF2015461F46FFF777FF040006D12A46414605
S3150800BF30304606B0BDE8F04185E78FB1A07A059096
S3150800BF40049500F000F90FF2C43000F004F94FF63A
S3150800BF50FE7085420CBF4FF0FF30002025816061DE
S3150800BF60204606B0BDE8F0812DE9F04114461D468D
S3150800BF70FFF751FF07002DD0BB89C14A0FF25C417C
S3150800BF80C0480AF0CFFE5FEA00081CBF069E002ED6
S3150800BF900CD00022082108F10E00FAF7E1FD78B16D
S3150800BFA00822314608F10E00F6F76AFF7869A842BA
S3150800BFB013D3B87B3C8100F00C007D61B8730CE0AC
S3150800BFC00822314608F10E00F6F7C3FF0028EDD027
S3150800BFD0002003E0204600F048F80120BDE8F08183
S3150800BFE04FF6FE710181817B01F0FC0181734FF0F0
S3150800BFF0FF3141610020704710B582B00FF24C3115
S3150800C0009B4C1520FBF7EBFE002300229E49201DC2
S3150800C010FCF702FA01200090002300220FF2BC313F
S3150800C0200CE010B5924C0FF2B4310020A0802081AC
S3150800C030608182B0012000900023002291480AF016
S3150800C04045FEFF202070607013BD028989B28A42BE
S3150800C0501CBFC2F309028A4205D14FF6FE7101815F
S3150800C0604FF0FF3141610020704710B50446224663
S3150800C0700FF2F0211520FBF7B2FE2246BDE810406C
S3150800C080002382497C48FCF7C7B9000030B589B05F
S3150800C090054605F11701A87DFFF7BDFE040050D03F
S3150800C0A0A07A05A9FDF736F9402803D0A07B00F051
S3150800C0B0FC0045E0A17B01F00300032841D8DFE836
S3150800C0C000F0020B213DA07A049000F03CF80FF234
S3150800C0D0AC2000F040F834E0082205A96846F6F7D7
S3150800C0E0CFFE0822214602A8F6F7CAFE684619F0CE
S3150800C0F079FBA07B00F0FC0040F00200A07340F63C
S3150800C100B83117E0012208098240C2EB0212B2F5E3
S3150800C110E14F88BF4FF4E1420B2841F0030104DAEE
S3150800C12001F00F01401C41EA0011A1734FF47A7027
S3150800C13000FB02F128460AF047FD02E001F0FC0088
S3150800C140A07309B030BD2346208903900122A08937
S3150800C1500290012170470190082000901520FBF7F6
S3150800C1605BBE2DE9F04387B08046894615461F46D3
S3150800C170FFF751FE04004FF6FE7611D1380007D0BE
S3150800C1800123324649464046FFF7C5FE040007D15B
S3150800C19049464046FFF7C3FDB04228805FD160E0BC
S3150800C1A02089B0420DD00DB9390009D1800A17F09F
S3150800C1B0EBF8FF2850D1208911F06FF800284BD1F1
S3150800C1C02681002F1EBFA07B00F00300032848D05D
S3150800C1D078BB0FF20826A389294A2A4831460AF06D
S3150800C1E0A1FD05000BD100212020FCF70CFE010063
S3150800C1F037D0FCF7F2FC054600202E60686008225E
S3150800C200A089A881002105F10E00F6F79BFEA07A09
S3150800C210A8750822214605F11700F6F731FEA07B1E
S3150800C22000F0FC0040F00100A073002128460AF047
S3150800C230CBFCA07A05902346208904900122A08988
S3150800C24003900121A07B00F0030002900FF25C101E
S3150800C250FFF781FF012005E00DB120892880022023
S3150800C26000E0002007B0BDE8F0830000245E00204F
S3150800C27070600020E1BD00087460002007BE000859
S3150800C2800FBD000870780020E1BF00084BC0000809
S3150800C29080B50A46014601230020FFF73CFE002828
S3150800C2A00CBF4FF6FF700089BDE8024001F0FCBBE9
S3150800C2B080B5FFF7A1FEBDE8014001F0F7BB80B5E8
S3150800C2C001460020FFF7A7FD00280CBF4FF6FF70B8
S3150800C2D00089BDE8024001F0EBBB000061646472AE
S3150800C2E0657373206361636865206164643A206BD3
S3150800C2F065792025642069642030782532582063C2
S3150800C3007478202564206969642000006164647279
S3150800C310657373206361636865207570646174650D
S3150800C3203A206B6579202564206F6C642030782567
S3150800C3303258206E65772030782532582063747815
S3150800C340202564206969642000000000636C65612B
S3150800C35072696E67206164647265737320636163D2
S3150800C36068650000636C6561722030782532582054
S3150800C37066726F6D206361636865000069646C6549
S3150800C38020636163686520656E7472793A206B650F
S3150800C3907920256420696420307825325820637412
S3150800C3A07820256420696964200000006469736345
S3150800C3B06F766572792073746174653A20256420F6
S3150800C3C06B657920256420696420307825325820E9
S3150800C3D063747820256420696964200070780020D9
S3150800C3E08DC000080DBD0008E0A40308DFF850144E
S3150800C3F00A7822B14968884201D101207047002095
S3150800C4007047DFF83C04007800B1704700B585B086
S3150800C41008216846F5F7C8FA10B95F2100F036F921
S3150800C4200121684600F09BF805B000BD00BF10B5B5
S3150800C430DFF80C440020207060702022002104F1EF
S3150800C4401400F6F77FFD04F13400BDE81040202201
S3150800C4500021F6F777BD7FB504460D46164601A8B6
S3150800C4600FF208410B2219F081FD2A4601A9002086
S3150800C470FAF721FB00960A2301AA1021204619F093
S3150800C48006FF7FBD7FB504460D46FFF7AFFFDFF811
S3150800C490B06310B106F1140010E0707828B1306965
S3150800C4A0844208BF06F1340008D0684600F041F817
S3150800C4B020B12A462146FFF7CEFF284604B070BDB4
S3150800C4C070B504460FF2B030DFF8746384B00D46D9
S3150800C4D000F071F806F1140229462046FFF7BBFF63
S3150800C4E00120756030707FBD80B500200090042360
S3150800C4F06A467F210420F4F7BDFE01BD38B514F065
S3150800C5001DFF04460022102104F13400FAF728FB27
S3150800C51070B900F0B5F8DFF8285300990020687064
S3150800C52004F13400FFF7CCFF00F03CF90020E86086
S3150800C53031BD38B5044614F001FF05460022102126
S3150800C54005F13400FAF70CFB38B9102205F134016D
S3150800C5502046F6F795FC204632BD002032BD30B5A0
S3150800C56004460D46C9B02A460FF220310320FBF7D0
S3150800C57036FC10232246052103A812F010FA08A853
S3150800C58016F0F7FA122203A908A816F05FFA08A807
S3150800C59014F0EBFEAA48002101704170284600F00D
S3150800C5A079F817F0F0FAF8F7E3F90FF2FC2000F043
S3150800C5B002F849B030BD019002951020009023463C
S3150800C5C0012201210320FBF727BCF0B59C4D044648
S3150800C5D0287887B010B1686884424FD002A8FFF760
S3150800C5E0A8FF06004AD02878D8B16868A04203D3C5
S3150800C5F04FF4A77100F04AF8202205F1140105F15D
S3150800C6003400F6F73DFC68682861271A0121802F57
S3150800C610697028BF7F27F8B2F8F757F9F8B217F00C
S3150800C620C9FA21463046FFF74BFF019400F028F877
S3150800C63000980199884215D03FBF08460099401ACC
S3150800C640052809D20420F4F739FE00980199401C00
S3150800C65088420090F6D305E0042301AA7F2104202E
S3150800C660F4F708FE6C6011F0DAFA002017F08CFE79
S3150800C67022460FF254210320FBF7B1FB07B0F0BDA9
S3150800C68004237F2204216846F4F7E4BD0FF2BC10A8
S3150800C690F6F7F4BA80B5FFF798FF69494FF41C70AE
S3150800C6A0C860BDE801407DE0654908B14A68026096
S3150800C6B00878704738B504460D466846FFF7F4FF14
S3150800C6C018B940F28511FFF7E1FF0098201A00F12A
S3150800C6D04001802903D295F90010884201DA00202A
S3150800C6E032BD2870012032BD30B50D465449144676
S3150800C6F00A7889B00AB9002018E04B684A199842A6
S3150800C70008BF02F1140011D04B782BB10969884291
S3150800C71008BF02F1340009D06946FFF7B3FE1022BC
S3150800C7200DEB05012046F6F7ABFB204609B030BDF8
S3150800C73043490A780AB9002070474968401E401ADA
S3150800C74000F07F025018402AA8BF803870470A4672
S3150800C7501021C9E70A460021C6E739490A782AB1ED
S3150800C76008B14A68026001F124007047002070474A
S3150800C770002070470020704731498A68002002B1BE
S3150800C78090B2CA6812B1824238BF90B248B1F12855
S3150800C790A8BFF020887088782A4941432A480AF0B9
S3150800C7A013BA704780B514F0C9FD5430FAF775F915
S3150800C7B030B92349C860BDE8024023480AF054BA94
S3150800C7C0BDE80140D8E71E48C168826851EA0203FD
S3150800C7D015D083781AB193422CBF0022D21A8260F0
S3150800C7E019B18B422CBF0021C91AC1601146C26813
S3150800C7F0114318BFFFF7C0BF4068401C4AE770479F
S3150800C8000F490A7842B14A68521C904204D1C96855
S3150800C810002908BFFFF73EBF704780B50848017872
S3150800C82000291CBF406810F1010F04D0401CFFF717
S3150800C83031FF002000E07020BDE8024000F0D2BAC7
S3150800C8408C7C002080EE3600D05F0020646973740B
S3150800C850726962757465642D6B65792D6D616E619B
S3150800C86067656D656E742E630000000030303030E9
S3150800C87054687265616400006465726976696E67FA
S3150800C8803A207365713A2025642000004E657720AA
S3150800C8906B657920776974682073657175656E6351
S3150800C8A0652025752E0000004E6574776F726B2023
S3150800C8B06B6579207570646174653A207365713AA1
S3150800C8C02025642000000000537769746368656456
S3150800C8D020746F2073657175656E63652025752EE6
S3150800C8E000000000914938E080B5014606220FF2A3
S3150800C8F058401EE038B504460D4606220FF2484158
S3150800C9002846F6F7BDFA2146A81DBDE83440FAF7D1
S3150800C910CEB838B504460D46FFF7E6FF28B11DB177
S3150800C920A01DFAF7BAF82880012032BD80B5082282
S3150800C9307E49F6F70EFB401E8041C00F02BD00B5CA
S3150800C94083B0694600F011F8082279496846F6F777
S3150800C95000FB401E8041C00F0EBD10B500F00DF85B
S3150800C960207880F00200207010BD10B500F005F8A0
S3150800C970E07980F00200E07110BD0C4601460822FD
S3150800C9802046FAF7FCB838B50446FAF7E1FC05463E
S3150800C99069462046FFF7BDFF00281CBF4FF6FE700C
S3150800C9A0854205D0BDF80000854201D1012032BD7F
S3150800C9B0002032BD80B5694600F012F838B1BDF8DE
S3150800C9C000004FF6FE71884201D1012002BD002009
S3150800C9D002BD10B50C4604F10801FFF78BFF14E001
S3150800C9E038B504460D46FCF7D1FC28B1294604F1B2
S3150800C9F00800BDE834408CE732BD10B5044608226D
S3150800CA004A4904F10800F6F73BFA2046BDE810400B
S3150800CA10FCF7B0BC10B50446FCF7B8FC17E038B50F
S3150800CA2004460D4608220FF228312846F6F728FA5A
S3150800CA3005F108012046BDE834408EE780B5082296
S3150800CA400FF20C3175E710B50446FFF7F7FF38B15A
S3150800CA5004F10800FFF748FF00F0010080F001002C
S3150800CA6010BD10B50446FAF773FC4FF6FE718842FE
S3150800CA7005DAFAF76DFC2146BDE81040A9E720461D
S3150800CA80BDE81040B9E710B50446FCF78AFF18B9A7
S3150800CA902046BDE810404AE1012010BD0178FF2973
S3150800CAA004BF4178322907D1817829B9C17840294C
S3150800CAB004BF001DFCF76ABC002070470178FF29F7
S3150800CAC004BF4178332907D1817829B9C17840292B
S3150800CAD004BF001DFCF75ABC002070470178FF29E7
S3150800CAE006BF40780128002070470178FF2904BF57
S3150800CAF04078022801D1012070470020704738B5D8
S3150800CB0004460C4D08222146281DF6F7B9F90822D5
S3150800CB10214605F11400F6F7B3F9214605F124007C
S3150800CB20BDE838400822F6F7ABB90000E07C0020E3
S3150800CB30F47C0020DC5F002010B581280B4601DB61
S3150800CB40002010BD802814DAC408C0F108000122AC
S3150800CB5000EBC400195D02FA00F0401E21EA00004D
S3150800CB601855C4F10F02181992B20021401CF6F7A5
S3150800CB70E9F9012010BD2DE9FE4F0546080090B0E1
S3150800CB803ED0180001D010003AD065B9109810228E
S3150800CB900021F6F7D7F99DF84800002802D0119928
S3150800CBA000200870BCE02C21284619F01BFC04461E
S3150800CBB02C2C25D205A82C2101F074FFA2B22946F7
S3150800CBC005A8F6F75DF99DF848000024C8B12F219D
S3150800CBD005A819F012FC05001FBF0470451C28782B
S3150800CBE000280DD0287860B115F8010BFAF738F847
S3150800CBF00A2805DA0A2101FB0404A4B2812CF1DB18
S3150800CC0085E001A8102101F04DFF00208DF80000F5
S3150800CC108146834680469DF8140000253A280CBFB5
S3150800CC2001260026AA4619E082F0010001EA090257
S3150800CC30384082F00102104269D0012E08BF00294F
S3150800CC4065D029B10AF1010A4FF001098DF80050A3
S3150800CC504FF0000BD84600260AF1010A05A810F87D
S3150800CC600A00010031D03A280CBF01270027F9F73E
S3150800CC70F7FF05A9514449784A1E9241D20F3A292D
S3150800CC800CBF012100210FB9102840DA102D3ED023
S3150800CC901EB1022EC8D0C7D3DEE7002F37D1B8F1B0
S3150800CCA0040F34D000EB0B1B08F101005FFA80F883
S3150800CCB051EA0200D0D001A81FFA8BF12844F9F7EF
S3150800CCC0F6FEAD1CEDB20226C6E7B9F1000F14D088
S3150800CCD0C5F110095FFA89F6CEB19DF8001001A8D2
S3150800CCE047186A1AD2B23946B819F6F7C9F8324659
S3150800CCF000213846F6F726F901E0102D07D19DF8F0
S3150800CD00480040B101A9E0B2FFF716FF08B90020B4
S3150800CD1007E0119804701022109801A9F6F7B0F8E8
S3150800CD20012013B0BDE8F08F0023002223E710B5D9
S3150800CD30040007D000220F21F9F712FF10B1E07B9B
S3150800CD40012800D0002010BD000000FFFE000000F2
S3150800CD50FE8000000000000080B50246702A07D158
S3150800CD60FAF74AFB19F056FB02460FF21C0102E0DD
S3150800CD7020B10FF23801BDE80840B7E0BDE804402D
S3150800CD807CA1012009F009BE496E76616C696420B0
S3150800CD9063616C6C2E204E6574776F726B207374AA
S3150800CDA0617475733A202570000000005365747429
S3150800CDB0696E67207365637572697479207061722C
S3150800CDC0616D6574657273206661696C6564207748
S3150800CDD0697468207374617475733A20307825789D
S3150800CDE000000000B8E780B588B1022802D0702894
S3150800CDF003D001BD0FF23C110AE0FAF7FDFA19F06B
S3150800CE0009FBBDE8084002460FF20C016EE059A185
S3150800CE10BDE80440B5E700006E6574776F726B2055
S3150800CE207374617475732069732025702C20736878
S3150800CE306F756C64206265206E6F206E6574776FFF
S3150800CE40726B2E0002460FF204014FE0666F726D98
S3150800CE502072657475726E207374617475733A30D6
S3150800CE607825780002460FF204013FE06A6F696E82
S3150800CE702072657475726E207374617475733A30B6
S3150800CE807825780002460FF204012FE06174746178
S3150800CE9063682072657475726E2073746174757335
S3150800CEA03A3078257800000002460FF204011DE0AA
S3150800CEB0726573756D652072657475726E2073740C
S3150800CEC0617475733A3078257800000080B500B92A
S3150800CED054E702E080B500B950E7FAF78DFA19F081
S3150800CEE099FABDE8084002460FF20801012009F048
S3150800CEF054BD0000496E76616C69642063616C6C90
S3150800CF002E205374617475733A2025700000000052
S3150800CF1080B500B932E7E0E780B500B92EE7DCE76F
S3150800CF2080B500B92AE7D8E700280CBF11A10FF28F
S3150800CF30040126E762616420617267756D656E7427
S3150800CF40732E0000C10700D47047010780B54CBF97
S3150800CF500FF22401A3A142074CBFA3A3A3A38007F2
S3150800CF6000914CBFA2A20FF220020FF2240100F09A
S3150800CF7021F801BD4F4B2E00207769746820737421
S3150800CF80656572696E670000686176650000000075
S3150800CF90257320636F6D6D697373696F6E65722C87
S3150800CFA0206A6F696E696E6720257361626C6564B5
S3150800CFB025730000012009F0F0BC0A7A002A18BF80
S3150800CFC019F0E1BC0FF20401DBE600006E6F206D7C
S3150800CFD06F72652072697020656E74726965732E4A
S3150800CFE0000000002DE9F041002884B01C4639D124
S3150800CFF013460A460FF27C01012009F0DCFC0025E5
S3150800D0007CA660193146827800F00FFF6D1C082D4A
S3150800D010F7DB208878A2CBA183074CBF0B461346C3
S3150800D020C00794F912000FF25808029048BF0A4642
S3150800D030E0680FF2580101900026208A009069A73F
S3150800D040FFF7B8FF0A9D0B9CA64211DA00F0C8FD4F
S3150800D050082105EB061019F05CFC394600F00AFBBE
S3150800D060761CF1E70FF2540104B0BDE8F04188E6FA
S3150800D070BDE8FF8125752F25752069643A000000F3
S3150800D080202020202069703A0000000020736C657B
S3150800D0906570793A2570206674643A2570206C614B
S3150800D0A0737454783A25752074696D656F75743A8A
S3150800D0B0257520727373693A256400006E6F206DBA
S3150800D0C06F7265206368696C6420656E7472696541
S3150800D0D0730000002F280ADA0FF2180252F82020EF
S3150800D0E002B9C7A20B460FF2C80100F0E8BC7047A8
S3150800D0F000000000E8920308F0920308F89203087B
S3150800D1000893030818930308249303083093030825
S3150800D110449303085C930308749303088C930308E9
S3150800D120A0930308AC930308C4930308D893030891
S3150800D130EC930308089403081C9403082C9403082A
S3150800D1403894030844940308509403086094030829
S3150800D150689403087094030880940308909403085D
S3150800D160A0940308B0940308C0940308D094030855
S3150800D170E4940308F8940308089503081C95030823
S3150800D1802C950308409503085095030864950308F1
S3150800D190809503089C950308B8950308D09503085D
S3150800D1A0E8950308FC9503081096030828960308D3
S3150800D1B025733A202564000002460FF2040195E61D
S3150800D1C0747820706F7765723A2025642064426D02
S3150800D1D000000000010000D1D2E50246DFF89019F0
S3150800D1E084E6000000000000656E000064697300B4
S3150800D1F0616D0000257800006E00000030B583B030
S3150800D2001D4600920B46069C0FF218010194024631
S3150800D210FFF7D0FE2919284603B0BDE8304019F0BB
S3150800D22019BC0000747970653A2030782578207C1E
S3150800D23020696E6465783A202564207C20766572BC
S3150800D24073696F6E4E756D6265723A20307825780F
S3150800D250207C20746C764C656E6774683A20256469
S3150800D2600000000010B500F09BF900F006F8C1B206
S3150800D270E0B2BDE81040FCF7E7BD0446012017F010
S3150800D2801DB980B5024610230FF21001012009F0DE
S3150800D29061FBBDE8024000F0FEBC0000676F742029
S3150800D2A050534B433A2000007047704710B5DFF8DB
S3150800D2B01C4D98B01822002104F10800F5F742FE2B
S3150800D2C004F10801002017F001FA10B90FF26C31C9
S3150800D2D02BE0207A40B96846FAF7B1F8082204A983
S3150800D2E004F10800F5F7CCFDFFF7C8FFE08302203C
S3150800D2F017F0E4F82083208BB0F5967F06DD4FF40F
S3150800D30096720FF2440100F071FC19E0032017F041
S3150800D310D5F86083E08B58B9207800281DBF002017
S3150800D32020700FF22C310FF2400100F0A3F907E04C
S3150800D3300FF24C0100F09EF90021204615F004FE7C
S3150800D34018B010BD790000007061796C6F616420B7
S3150800D3506C656E6774682073686F756C64206265A7
S3150800D360203C3D2025640000696E76616C69642066
S3150800D3706E6F2E206F66207061636B6574732E0066
S3150800D3807374617274696E67205544502073746FA4
S3150800D390726D2E0010B5DFF8344CE08B0100CEB06C
S3150800D3A00BD0A18B814208D10020E06120700120BA
S3150800D3B00FF2500109F0F1FA1FE04FF496720021BE
S3150800D3C002A8F5F7BFFD228B002002A901E0085448
S3150800D3D0401C9042FBDB00200190009241F69071C0
S3150800D3E002AB0A4604F1080000F034F8A08B618B02
S3150800D3F0401CA083204615F0A7FD4EB010BD0000C6
S3150800D4003F3F3F00656E64696E6720554450207340
S3150800D410746F726D2E00000080B500F0C1F800B17F
S3150800D4200120DFF8B41B087008780028BDE808401A
S3150800D43014BFAEA2DEA20FF2040157E555445020F0
S3150800D4407072696E74696E67206973206E6F7720D3
S3150800D450257000002DE9F8430546174645F25E603B
S3150800D460089C87420E4698460ED1042C0CDBFAF728
S3150800D470B4FE81464A4641460020F9F71CFB4A4657
S3150800D4800FF2540100F0B2FB009443463A46314687
S3150800D490284619F0FCFC0999E1B1010004D00228DC
S3150800D4A004D0702808D00FE0C2A101E00FF23401C1
S3150800D4B0BDE8F443FFF765BCF9F79EFF18F0AAFF2D
S3150800D4C002460FF23C0102E002460FF26001BDE897
S3150800D4D0F8430BE5BDE8F18374785F74696D653AC6
S3150800D4E0256C75005458206661696C65643A20425B
S3150800D4F0616420617267756D656E742E00000000A8
S3150800D5005458206661696C65643A20496E76616C88
S3150800D51069642063616C6C2E204E6574776F726B3C
S3150800D520207374617475733A202570005458206608
S3150800D53061696C65643A2053746174757320307838
S3150800D540257800001FB500F02BF804466946002030
S3150800D550F9F7E0FF6946A0B219F0A1FC002807BF59
S3150800D560A2B20FF2100102460FF2200100F03EFBB4
S3150800D5701FBD00006C697374656E696E67206F6EF7
S3150800D58020706F7274202575000000006661696C52
S3150800D59065642E207374617475733D307825780040
S3150800D5A0002016F08BBF70B5A0B000208DF80800DB
S3150800D5B016F084FFFFF761FE054603A9022017F05F
S3150800D5C085F820B90FF2740100F054F834E0DFF85A
S3150800D5D0FC09017839B10021C161017001200FF2FF
S3150800D5E0700109F0DAF99DF80C0038B907A8F9F7BF
S3150800D5F026FF08220BA903A8F5F742FC02A9032077
S3150800D60016F0BDFF064616F0EDFE052809DB0420D8
S3150800D61016F054FF9DF8081082B2914238BF8DF873
S3150800D62008000120019033469DF808000090AAB230
S3150800D630A1B203A8FFF70EFF20B070BD696E766130
S3150800D6406C69642069702061646472657373000094
S3150800D650656E64696E6720616C72656164792072B3
S3150800D660756E6E696E67205544502073746F726DBF
S3150800D6702E000000012009F090B92DE9FC470E465E
S3150800D680914645F25E610A9F0B9C89450546984678
S3150800D69020D1042C0DDBFAF7A0FD8246394600207E
S3150800D6A0F9F728FA024653460FF24401012009F019
S3150800D6B074F9DFF82409007850B1B9A100F091FA9D
S3150800D6C00194009743464A463146284618F06AFFB1
S3150800D6D0BDE8F38740F223218945EAD12246394637
S3150800D6E0304602B0BDE8F04719F0B0BC6F6E0000D6
S3150800D6F074785F74696D653A256C752072785F7405
S3150800D700696D653A256C75001CB5059C0194049CE9
S3150800D7100094FFF7B2FF13BD10B516F086FFDFF8C9
S3150800D720C4180078DFF8C04870280CBF0120002014
S3150800D7300870FFF735FFA08104F13001012016F0CB
S3150800D740C5FF10B90FF270012EE0022016F0B6FEE2
S3150800D7502082208AB0F5FA7F04DD4FF4FA720FF2C0
S3150800D7607C010BE0032016F0A9FE607060780100CA
S3150800D77001D0052806DB04220FF27C01BDE8104023
S3150800D780FFF7B4BB012060820822002104F11400CF
S3150800D790F5F7D8FBFAF721FDE06100210020E081CA
S3150800D7A0201D15F0D1FBB0A1BDE81040FFF7E9BA7E
S3150800D7B06F666600545800004661696C757265208C
S3150800D7C07768696C652070617273696E6720495065
S3150800D7D02061646472657373000000004C656E67AF
S3150800D7E07468206D757374206265206C6573732088
S3150800D7F07468616E202564004E756D6265722069D5
S3150800D8006E20666C69676874206D7573742062652E
S3150800D810206265747765656E203120616E64202507
S3150800D8206400000038B5FAF7D8FC0599DFF8B84760
S3150800D830496A0A88002100E0491C6378994210DA8F
S3150800D84004EB4105AB8A9342F6D104EB810100F063
S3150800D850F7F80020A8820021201DBDE8344015F005
S3150800D86073BBBDE838400FF2B471FFF73FBB2DE933
S3150800D870F04FDFF87447DFF86CA700202071ADF58C
S3150800D8800D7DFAF7AAFC05469AF80000002600283E
S3150800D89014BF41F288384FF47A78B14605E0C01AC9
S3150800D8A0404500D2804609F101096278A0899AF8B4
S3150800D8B0001091455ADA04EB490704EB890BBA8A3A
S3150800D8C013003DD1628A9042EDD3012641B334223A
S3150800D8D0002103A8F5F736FB04F112000C9010ABF3
S3150800D8E00220ADF8340003A802900221DFF8FC06F6
S3150800D8F00FF244720190208A009004F130000EF075
S3150800D9009FFAC0B1628A0FF2387100F06FF9E089A8
S3150800D910401CE0814FF00008608A401C6082C2E724
S3150800D920002000904BF2FF01238A04F1300019F021
S3150800D93097FC0028E6D0608AB882CBF82050EBE73F
S3150800D940DBF8200001262B1A002914BF41F2883083
S3150800D9504FF47A709842A2D20FF2F46100F046F9B9
S3150800D960E089401CE0810020B8829BE726B1414649
S3150800D970201D15F0E9FA0FE00029E189019114BF8D
S3150800D9800FF200730FF20473E169691A00910246F7
S3150800D9900FF2CC61FFF70EFB0DF50D7DBDE8F08F9C
S3150800D9A0525820002DE9F041DFF83C46054620781C
S3150800D9B0401C207005F13C073868F9F76EF8804678
S3150800D9C03868801CF9F769F80646B87A012805D13F
S3150800D9D0BDE8F0410FF2BC6108F0DFBF4BF2FF0172
S3150800D9E0884508D00FF2C86100F0FBF82846BDE864
S3150800D9F0F04118F0B4BD812820D1FAF7EEFB0021DA
S3150800DA0000E0491C6278914211DA04EB4105AA8AC2
S3150800DA10B242F6D104EB8101324600F011F800203B
S3150800DA20A8820021201DBDE8F04115F08DBA3246C6
S3150800DA30BDE8F0410FF2E451FFF758BABDE8F081AE
S3150800DA40096A431A0FF2C851012008F0A6BFDFF889
S3150800DA50981500200870FFF793B9DFF88C050FF2C8
S3150800DA605C610278FFF742BA4F4B2E00010001D1E4
S3150800DA70FFF786B902460FF28051FFF737BA80B52D
S3150800DA8008B9FFF77BB9FFF728BA80B508B9FFF7D9
S3150800DA9075B9FFF722BA010001D1FFF771B902463D
S3150800DAA00FF25451FFF722BAFFF76AB9FFF768B9C0
S3150800DAB081050CBFA7A3A8A302460FF22461012083
S3150800DAC008F06BBFF8B50D4615F00707044618BFF2
S3150800DAD0012716460FF25C6100F083F800F010F893
S3150800DAE0300014BF0FF234620FF23C6200F07CF88B
S3150800DAF02EB129462046BDE8F44016F033BEF1BDE6
S3150800DB0007EBD5000006410E204618F002BFF8B50F
S3150800DB100D4615F00707044618BF012716460FF2EB
S3150800DB20346100F05EF8FFF7EBFF300014BF0FF228
S3150800DB30EC520FF2F45200F057F8B6B1DFF8B064C1
S3150800DB40307860B11023321D0FF21861012008F0F9
S3150800DB5001FFAEA1FFF78EFD8021301D01E02946A9
S3150800DB602046BDE8F440FBF745BEF1BD00000000C5
S3150800DB70F8DF00082DE9F04707467C18002500263F
S3150800DB800FF2FC590FF2785A13E08EB985B1514657
S3150800DB9000F027F8E878C01D0004C00C0006410E06
S3150800DBA0281D18F0B6FEEA78494600F01FF8012647
S3150800DBB04746A74212D2384619F05AFB80463878AB
S3150800DBC00128E2D9801E0128F2D8F878C01D07EB93
S3150800DBD0E0003D4600F104080026E9E7BDE8F087C5
S3150800DBE04146012008F0E7BE0FF26051012008F017
S3150800DBF0D4BE002818BFFFF7BDBFFF21DFF8F40326
S3150800DC00FDF7AEBA0B461146020004BF1846FFF7E9
S3150800DC10B1BF0FF27C51FFF769B970B5FF2B044607
S3150800DC200D46164621D00A20034218BF0FF29C5211
S3150800DC3005D11420034214BF0FF2985273A20FF2B3
S3150800DC407C5100F0F2F8204618F082FE3D2E05D2EF
S3150800DC50BDE870400FF28851FFF793B82B4632465D
S3150800DC60BDE870400FF2905129E770BD10B5044623
S3150800DC7000220821F8F774FF28B1BDE810400FF21A
S3150800DC80B451FFF77EB887A1FFF7ABFF204618F01F
S3150800DC905FFEBDE81040012008F07DBE010004D0FB
S3150800DCA002460FF2A851FFF721B9704710B50400D4
S3150800DCB00DD013460A460FF2CC51012008F04AFE51
S3150800DCC02246BDE810400FF2DC51FFF70FB910BD30
S3150800DCD038B51D00144605D1BDE834400FF2D451BD
S3150800DCE0FFF74FB8002914BF1BA21AA20FF2E05182
S3150800DCF000F09BF86908FFF707FF0698059B049A4A
S3150800DD000FF2E0510090012008F055FEBDE83240C0
S3150800DD10C1E710B50446180008BF0FF2F45114D035
S3150800DD200A20034218BF0FF2106206D114200342DC
S3150800DD3014BF0FF20C620FF210620FF2F05100F0EE
S3150800DD4074F8204618F004FEA1A1BDE81040FFF7BC
S3150800DD5018B80000796573006E6F0000010001D1E4
S3150800DD60FFF70EB802460FF29021FFF7BFB8FEB5CF
S3150800DD7005460E46099C0FF298011F460A223046B0
S3150800DD8019F07AFA0028284610D10DF0EAFC024666
S3150800DD900FF2BC5100F049F804F1100018F0D8FD54
S3150800DDA032460FF2C051FFF721FF21E00DF0D9FCF2
S3150800DDB002460FF2C0510420F9F7FAFF04F11001E8
S3150800DDC00420FAF790F80FF2C4500190029604F175
S3150800DDD02C0394F8340000F021F80FF2C450019097
S3150800DDE03B46089800F01AF87AA10420F9F7E0FFF4
S3150800DDF0022D09D1002002900190009000230022F4
S3150800DE00442120460EF0FFFAF7BD0000000000008E
S3150800DE10636F61702D7465737400000000900122B1
S3150800DE2000210420F9F7F8BF3946012008F0C3BDE0
S3150800DE302DE9F84314460E46024699460FF26C51F0
S3150800DE40012008F0B8FD300023D1002663A70FF2A1
S3150800DE50785863A513E076B1B01006EB5070C01081
S3150800DE60B6EBC00007D12946FFF704FCFFF7B8FE5A
S3150800DE700120F8F700FBA25DFFF7D6FF761C4E459A
S3150800DE80E9DB0120F8F7F7FA2946BDE8F443FEF77F
S3150800DE9078BF3246BDE8F8430FF25451FFF726B86B
S3150800DEA0000000002020000010B50C4602460FF2C4
S3150800DEB05051FFF7BAFF200005D1BDE810400FF218
S3150800DEC04C51FEF75EBF2246BDE810400FF22051C6
S3150800DED0FFF70CB80A0006BF02460FF240510FF2D0
S3150800DEE04C51FFF703B8010003D10FF25851FEF762
S3150800DEF048BF02460FF26451FEF7F8BF010003D18E
S3150800DF000FF27051FEF73DBF02460FF28851FEF739
S3150800DF10EDBF002814BF0FF2A4520FF2A8520FF259
S3150800DF209451FEF7E3BF010003D10FF2A451FEF7A7
S3150800DF3028BF02460FF2B051FEF7D8BF02460FF2CD
S3150800DF40BC51FEF7D3BF010003D10FF2C451FEF74F
S3150800DF5018BF02460FF2D851FEF7C8BF020006BF27
S3150800DF600A460FF2E8510FF2F851FEF7BFBF01005B
S3150800DF7003D10FF20861FEF704BF02460FF21C61D7
S3150800DF80FEF7B4BFF8B504460D4616460FF22861EB
S3150800DF90FFF727FE200011D100240FF22C6705E0B9
S3150800DFA0E4B235F81420FFF73FFF641CE0B2B04234
S3150800DFB0F6D3BDE8F4400AA1FEF7E3BE2246BDE863
S3150800DFC0F8400FF22C41FEF791BF0000C86B002005
S3150800DFD02F3634005D0A00001961002020255800FC
S3150800DFE0000000001A610020E86B002025D8000810
S3150800DFF0286C00203C6C00204661696C65642E2004
S3150800E0005374617475733A203078257800000000DF
S3150800E01025643A202564206D7300000025643A20A3
S3150800E02061727269766564206166746572207469C6
S3150800E0306D656F7574000000632F70657266000069
S3150800E04025643A205458204661696C6564000000CE
S3150800E05025643A2054696D6564206F757400000064
S3150800E06073656E743A256420747970653A25732051
S3150800E07074696D653A25646D73206661696C3A2525
S3150800E08064000000636F61700000000070696E67CD
S3150800E0900000000049434D502052583A2044455349
S3150800E0A05420554E524541434841424C45000000D4
S3150800E0B049434D502052583A200000005265636586
S3150800E0C0697665642025642070696E6773207369B4
S3150800E0D06E6365206C6173742072657365742E00B7
S3150800E0E073686F72742069643A2030782532582034
S3150800E0F066756C6C20726F757465723A20257300AC
S3150800E10065787465726E616C20726F7574653A20F5
S3150800E1107072656669783A20000000006176616968
S3150800E1206C61626C65000000756E617661696C6190
S3150800E130626C650064686370207365727665723A0E
S3150800E140207072656669783A20000000207C2025D8
S3150800E15070000000736C616163207072656669788F
S3150800E1603A200000466F7263696E6720534C41413E
S3150800E17043206164647265737320746F3A0000000B
S3150800E1802F2564207C20617661696C61626C65006C
S3150800E190656D6265724765744E6574776F726B4418
S3150800E1A0617461206661696C6564202D20737461F1
S3150800E1B07475732030782578000000006E65772026
S3150800E1C06164647265737325703A20002028646858
S3150800E1D0637029002028736C6161632900000000C0
S3150800E1E0206973206E6F742076616C696420616E95
S3150800E1F0796D6F7265000000207C2076616C696419
S3150800E200206C69666574696D653A202564207365B6
S3150800E210632E207C20707265666572726564206C58
S3150800E22069666574696D653A202564207365632E91
S3150800E230000000006E6F206D6F7265206468637061
S3150800E24020636C69656E74732E00000064686370E1
S3150800E2502061646472657373207265717565737481
S3150800E260206661696C65642E20636865636B20703F
S3150800E27072656669782E20737461747573203078B8
S3150800E28025780000736C616163206164647265734C
S3150800E290732072657175657374206661696C65644F
S3150800E2A03A000000207374617475732030782578FD
S3150800E2B0000000006E6F206D6F726520676C6F62DC
S3150800E2C0616C2070726566697865732E00000000BF
S3150800E2D074656D703A202570207C207072656669B9
S3150800E2E0783A2000207C20646F6D61696E2069642D
S3150800E2F03A202564207C20702D74696D653A2025A6
S3150800E30064207C20762D74696D653A2025640000AA
S3150800E3106E6F206D6F726520676C6F62616C20612D
S3150800E32064647265737365732E0000002570206738
S3150800E33075613A2000000000646863700000000000
S3150800E340736C616163000000756E6B6E6F776E00AB
S3150800E3505B436F41502052582025732066726F6DBB
S3150800E36020000000207C207572693A202573205D04
S3150800E370000000005B436F4150205258207C202546
S3150800E38073207C2066726F6D20000000207C20754B
S3150800E39072693A202573207C20746F6B656E0000C5
S3150800E3A0207C207061796C6F61640000546F6B6526
S3150800E3B06E205B25645D3A204C656E677468203074
S3150800E3C0782532783A0000002020202020202020BE
S3150800E3D0202020202020202020202020202020202F
S3150800E3E02020202020202020202020203A00000065
S3150800E3F0202E2E2E206572726F72203078257800B6
S3150800E400546F6B656E205B25645D3A00202E2E2EB8
S3150800E4102073756363657373000000004354756E5B
S3150800E420653A203078253258000000004765742088
S3150800E4306374756E65206572726F72203078257800
S3150800E440000000004354756E652073756363657339
S3150800E4507366756C6C79207365742E005365742029
S3150800E4606374756E65206572726F722030782578D0
S3150800E47000000000526164696F20486F6C644F6643
S3150800E48066207375636365737366756C6C79207340
S3150800E49065742E0053657420526164696F20486F55
S3150800E4A06C644F6666206572726F722030782578C4
S3150800E4B0000000005054413A20257000656E6162E4
S3150800E4C06C65640064697361626C656400000000D1
S3150800E4D0505441207375636365737366756C6C7904
S3150800E4E0207365742E000000536574205054412033
S3150800E4F06572726F7220307825780000505441207A
S3150800E5006F7074696F6E733A203078257800000052
S3150800E510505441206F7074696F6E7320737563630E
S3150800E52065737366756C6C79207365742E000000CC
S3150800E53053657420505441206F7074696F6E732050
S3150800E5406572726F7220307825780000416E7465A6
S3150800E5506E6E61206D6F64653A203078255800002C
S3150800E56047657420616E74656E6E61206D6F6465B3
S3150800E570206572726F72203078257800416E746556
S3150800E5806E6E61206D6F6465207375636365737362
S3150800E59066756C6C79207365742E0000536574205B
S3150800E5A0616E74656E6E61206D6F6465206572724A
S3150800E5B06F7220307825780052616E646F6D204E38
S3150800E5C0756D626572733A002025325800000000A6
S3150800E5D02F280ADA1C4A32F81030C918B1F5803FDC
S3150800E5E028BF4FF6FF7122F81010704710B5044681
S3150800E5F02F2C04DB23210FF25400F4F73FFB1248BB
S3150800E60030F8140010BD2F2803DA0F4A002122F82B
S3150800E6101010704738B50146FF290B4C09D1002563
S3150800E62034F81510E8B2FEF755FD6D1C2F2DF7DBF3
S3150800E63031BD34F81110BDE83440FEF74BBD5E22FB
S3150800E64000210148F4F77EBCE4750020636F756EFF
S3150800E650746572732E63000038B51446F3F7BBFA77
S3150800E66005466CB128000BD00748007818B1074951
S3150800E6700120087004E0002200212846F6F763FB13
S3150800E680284632BD704700000D7D00200E7D002013
S3150800E69010B5DFF89C4304F10800FAF701F804F115
S3150800E6A00A00F9F7FDFF04F10C00F9F7F9FFBDE8D8
S3150800E6B01040DFF88003F9F7F3BF10B5DFF87023D1
S3150800E6C0DFF8743314781B78234306D1DFF86C33EC
S3150800E6D01B780C2B03D0022906D0002010BD012977
S3150800E6E008BF02F10C0301D002F10A030146002219
S3150800E6F01846F9F7ACFDF7F743FF012010BD80B5C2
S3150800E700F9F76BFD0346DFF838030FF2503102883C
S3150800E7101820F9F764FBDFF81803417911B90121CC
S3150800E720417167E001BDDFF81003007800B170475A
S3150800E73010B50BF0E5FDDFF8F842208128B9002175
S3150800E74004F10A00F9F7B4FD2081208928B90021CF
S3150800E75004F10C00F9F7ACFD20812089002804BFDC
S3150800E760207800280ED16079022803D018F0B9FD68
S3150800E770208138B9607928B118F059FF208108B18D
S3150800E7800020607110BDAA488079704780B5A0F155
S3150800E7900B01102901D3002002BDA5498871042068
S3150800E7A000F02CF8012002BD00000000A048017806
S3150800E7B0491E00220329027000D9704780B5DFE898
S3150800E7C001F002060A0EBDE8014008F033BBBDE8B9
S3150800E7D0014008F081BBBDE80140F8F7E8BF807941
S3150800E7E0F1F79AFF20B1F4210FF28820F4F746FAE0
S3150800E7F000E001BDBDE80140F7F7C2BE38B50446E2
S3150800E8000BF053FE8A4D687940B100206871F8F71D
S3150800E810F3FD032804BF402006F044FA287808B11F
S3150800E820002032BD87480078052808BFF7F74EFF55
S3150800E8302C7000F007F818B1FFF7B8FF012032BDB9
S3150800E840022032BD38B5F4F701FA0446784D05F1D1
S3150800E8500A00F9F7DFFCA0B105F10C00F9F7DAFCBC
S3150800E86078B178486979007808430AD10BF098FCA2
S3150800E87038B9754808F004F900F0010080F0010580
S3150800E88000E000252046F4F7F3F9284632BD10B516
S3150800E8906C49674C00200870208120706081A08137
S3150800E8A0FAF7AAFBF6F715FD6070F6F712FDA070E9
S3150800E8B0654808F0D9F9654808F0D6F94FF4A0512B
S3150800E8C0634814F041FB00206071BDE810400BF06E
S3150800E8D06EBC2DE9F04104465E48554E05783089F0
S3150800E8E028B940F28F110FF28C10F4F7C7F9281FD8
S3150800E8F0DFF85481534F0ED0801E012814D8052006
S3150800E90038702146284608F04AFC08B900F018F87D
S3150800E910002030810BE0312C05D03878022803D14D
S3150800E920200001D10120F070347100F009F8042D9F
S3150800E93004D07079012804BF02207071BDE8F08107
S3150800E940032038700021404608F03EB938B5384DE6
S3150800E950297904460BF02DFD28B929792046BDE80A
S3150800E960344004F0BFB931BD2DE9F8430446FAF73F
S3150800E97034F9471D05212046FAF794FB0546384623
S3150800E98018F0DCFE05F44C483E5C280701D5042E39
S3150800E9904AD1314806704FF4406005424FF6FF7978
S3150800E9A006D0F81CF8F776F8484508BF48F040083E
S3150800E9B005F44060B0F5006F06D1781DF8F76AF8DF
S3150800E9C0484508BF48F01008012E4CF6500015D0EF
S3150800E9D0022E16D0032E0ED0042E08D0062E21D0D5
S3150800E9E0072E08D0082E15D07C2E0ED01CE0204607
S3150800E9F00BF042FCC0B90020BDE8F283B8F5484FD9
S3150800EA00F9D0B8F54C4F0FD1F5E7B8F54C4FF2D021
S3150800EA108045F8E74CF64040804505D10748007820
S3150800EA200728F0E78045E6D00120E5E7000000006A
S3150800EA307E7F00204C7D00200D7D00207C6000201C
S3150800EA402A5F0020D17F00200C6000208060002013
S3150800EA50687D00200D610020E27F0020506F6C6CFD
S3150800EA60696E672030782532582061743A20256C03
S3150800EA70750000006D61632D617262697465722E9E
S3150800EA80630000000020704700B102207047012093
S3150800EA9070477047002070470FF0B2B801207047E2
S3150800EAA070470000002218F06DBE00002DE9F843FB
S3150800EAB00446F7F7EFFF0546E01CF7F7EBFF0646B7
S3150800EAC0601DF7F7E7FF804600274FF440600542D0
S3150800EAD008BF40274FF44C4005422ED0680658BF61
S3150800EAE047F020074FF6FF794E4508BF47F0010764
S3150800EAF005D0F8F740FC864208BF47F0020705F440
S3150800EB004060B0F5006F03D0B0F5406F0CD014E04C
S3150800EB10C84508BF47F004070FD0F8F719FC804529
S3150800EB200BD147F0080708E00822611DDFF8500AF4
S3150800EB30F4F70FFA08B947F010073846BDE8F2832C
S3150800EB402DE9F14FACB01446FAF747F800F05AF938
S3150800EB50804600F04EFB2844471C791C0120F7F735
S3150800EB60C9FF0790002618F440400FF6642932D0F2
S3150800EB70B0F5004F14D0B0F5404F08BFA7F108060E
S3150800EB800020069006A938460FF0FCF807003ED18B
S3150800EB90304602F040F9070021D10023C32296E04F
S3150800EBA0B81EF7F777FF8246F8F7F6FD0600E7D1B5
S3150800EBB0681C0FF000FA0600E2D101210E20FFF7CB
S3150800EBC007FDCDF800A0A8220FF614234946072012
S3150800EBD0F9F767F99BE00FF61C23B52277E0002DBD
S3150800EBE018BF002E10D03B4600F007F948B90FF6BB
S3150800EBF0202001903B46102000F0F8F80023CA2296
S3150800EC0065E001202070E5E00023CE225FE0082FB2
S3150800EC104FF0FF3410D10698C0B2FDF789FD824641
S3150800EC2008A9FDF794FD8346BBF1000F0CBF0FF64C
S3150800EC3034200FF63C200AE0102F05D1A246DFF853
S3150800EC404469DFF844B9EFE70023E3223FE0059083
S3150800EC50CDF810A0334606980390029701220FF6C6
S3150800EC60D01001900121082000900320F9F7D4F86C
S3150800EC70BBF1000F13D152460FF6FC110320F9F72A
S3150800EC80AEF80CA95046FDF7FDFB002D1CBF002E63
S3150800EC9000283CD000F1100300F0AFF837E0FDF78C
S3150800ECA067FDB8B9002D18BF002E02D000F0A4F8F1
S3150800ECB0E8B90FF6D81001903346082000900122D3
S3150800ECC001210720F9F7A8F800234FF4937200F002
S3150800ECD089F81CE0002D18BF002EEAD02A78691C96
S3150800ECE00CA8F4F7CDF800F087F80028E1D0102F2B
S3150800ECF06FD0069B079ABDF8B000DBB23146FFF726
S3150800ED00C9FE20B94FF4404018EA000F01D102208D
S3150800ED1060E000F062F814F0DFFE002856D100F03B
S3150800ED205CF8F5F73CFE002850D100F056F802F0E2
S3150800ED3047FE00284AD101210F20FFF749FC03208E
S3150800ED40F9F728F800283AD00021304614F03AFBA3
S3150800ED5005460121304614F035FB074631460020AA
S3150800ED60F5F768FA80460FF64410019033460820F6
S3150800ED7000F03CF8DFF8140800681821FF2F1DBFC3
S3150800ED8001FB07F2821892682246B8F1FF0F1DBFF1
S3150800ED90DFF8FC371B6853F828302346FF2D02D0CE
S3150800EDA06943084484680392002001930290069BF5
S3150800EDB0079A0FF6081100940320F9F710F80023B4
S3150800EDC04FF4B57200F00EF8042003E05046FDF744
S3150800EDD017FD01202DB0BDE8F08F07980023524695
S3150800EDE03146704749460720F9F75BB8009001227B
S3150800EDF001210320F9F710B85B4632462946681CFC
S3150800EE000FF0E7B80546681CF7F744BE2DE9F04F42
S3150800EE1085B08146F9F7E1FEFFF7F4FF0646E87884
S3150800EE208DF80100002406F00700029006F4405B06
S3150800EE30F00800F00108300A00F001008DF8000023
S3150800EE4000208DF80400681CFFF730FE074617F00F
S3150800EE50440014BF052004200121FFF7B9FB15B1B2
S3150800EE602878801E28704FF6FF6000EA0601681CA5
S3150800EE70F7F719FE681C15F084FA0FF2547AB0B148
S3150800EE800424002605B12E784846F9F7BEFE074643
S3150800EE90FFF7B9FF8046E00740F1298100F0A9F99C
S3150800EEA0801EA107C0B201D5801FC0B220E1B8F10B
S3150800EEB0000F06D0BBF5805F0DD0002340F29912F3
S3150800EEC0B7E0BBF1000F18BFBBF5805F03D0002386
S3150800EED04FF4D072ADE04EF6F7600640DFF8B406A0
S3150800EEE00078012818BF032808D0052818BF062867
S3150800EEF004D0072808D00C2811D00CE00299A9B133
S3150800EF0000234FF4DC7294E0029803287AD0002399
S3150800EF1040F2BF128DE0002340F2C51289E0029943
S3150800EF2021B1012910D003296CD07FE00C2801D12A
S3150800EF30B80705D5B6F5004F18BFB6F5404F16D039
S3150800EF40002340F2CF1274E00A2F1CBF062F122F9F
S3150800EF5047D1780725D4012416F4404036D0B0F5B9
S3150800EF60004F04D0B0F5404F37D144F002049DF865
S3150800EF70000008B144F02004DFF81C06007818EAFF
S3150800EF80000F3FF47EAF01AA39464846FFF7D8FD81
S3150800EF90022870D1029900296CD1002D4DD1002686
S3150800EFA072E7DFF8F8050088000404D5DFF8F005F5
S3150800EFB00078042806D0DFF8EC050078022818BF88
S3150800EFC04124C9D100234FF4F07232E0B8F1000FA2
S3150800EFD0CDD1002340F2F312F5E000234FF4FC7282
S3150800EFE0F1E0252F18BF322FC1D0322000902523FB
S3150800EFF03A460FF24C710720F8F7F1FE002340F26B
S3150800F0000E2216E017F0030009D1F8F7B4F94FF607
S3150800F010FF71884203D0002340F2172209E017F057
S3150800F0201C00A4D1002340F21F2202E000234FF463
S3150800F0300A725146FFF7D7FEC8E04846F9F7E5FDDC
S3150800F04006462F7800F0D5F88046F01B421EE819D0
S3150800F050411C05EB080092B2401CF3F711FFA7EB21
S3150800F0600800C0B285F80080311A89B24846F9F717
S3150800F070E5FD08E703292FD100F0BBF82844461C14
S3150800F08030460EF078FE305C04282BD14846F9F756
S3150800F090BCFD002D834682D095F8008000F0A9F8C3
S3150800F0A0074630460EF067FE0646ABEB0701E81941
S3150800F0B0891B4A1E811992B2491C401CF3F7E0FECF
S3150800F0C0A8EB06002870FFF79EFE0146681DF7F7B5
S3150800F0D0EAFCABEB0601C8E710B944F01004D0E629
S3150800F0E00128FCD001211020FFF772FA6EE00220F9
S3150800F0F0311AC91D8DF800108642A1BF711C8F42B6
S3150800F1009DF800108F4203DA002340F286225AE067
S3150800F110321A2844411C92B2E81DF3F7B1FE05B134
S3150800F1202C7004220021681CF3F70CFF4146681D69
S3150800F130F7F7B9FC9DF8040018B10321484600F01A
S3150800F1403FFB681C04F05DF918B10721484600F03A
S3150800F15037FB0298012841D1E00713D502A9484692
S3150800F16019F07BFA70B1F8F7F3F80146BDF80C0010
S3150800F170884207D00EF091F868B1BDF80C00F5F793
S3150800F18098FB40B96946484618F031FB18B9002380
S3150800F19040F2B12217E000F027F8484600F0C5FB18
S3150800F1A0B0F5004F1CD1484600F0E2FB9DF801106F
S3150800F1B004460EF071FF58B101211120FFF708FA35
S3150800F1C0002340F2BA225146FFF70DFE002008E060
S3150800F1D09DF8011020460EF074FF01E000F004F8D7
S3150800F1E0012005B0BDE8F08F9DF800104846F9F7F4
S3150800F1F025BD681C18F0A2BA2DE9F64F85B08246DF
S3150800F2000521F9F74FFF04465046F9F7E6FC049046
S3150800F210C01D019000200599DFF88C5302900870F4
S3150800F2208346F8F7A8F8ADF800008046DFF87C13A7
S3150800F230FF200870EF1C00F0C8F904280CBF4FF037
S3150800F2400109D94600F0C1F906280CBF0126002697
S3150800F250E00900F0010080F001008DF80C004FF67F
S3150800F2607F70044000F0B1F9052808BF4FF6FF7813
S3150800F27025D000F0AAF9032802D056EA09001ED0C4
S3150800F28001215046F9F74FFD8346002201215046D9
S3150800F290F9F760FDB9F1000F09D05846F9F79DFC5A
S3150800F2A04FF6FF7858B106990078087007E036B12E
S3150800F2B05846F9F792FC10B1F7F7EFFB804600F0D5
S3150800F2C081F9C0074AD500F07DF9800708D50826D8
S3150800F2D004F44060B0F5406F0CD040F20B3107E003
S3150800F2E0022604F44060B0F5006F03D040F20F31F7
S3150800F2F000F064F94146281DF7F7D5FBA81D0290D2
S3150800F30032460199F3F7BCFDA819871D01988019A3
S3150800F3100190BDF80000404508BF44F0400404D001
S3150800F32001463846F7F7BFFBBF1C9C4800788007A4
S3150800F33048BF44F4404404F44040B0F5404F06D179
S3150800F34008228F493846F3F79BFD083706E0F7F79A
S3150800F350FFFF01463846F7F7A6FBBF1C00F032F957
S3150800F36000F0050004280ED05046F9F74EFC064674
S3150800F370504600F0F5F9301A210702D4C0B26728C2
S3150800F38001DB44F48054504600F0FDF90199401A17
S3150800F3905FFA80F842463846F3F772FD019847440B
S3150800F3A0804400F00FF9C0073DD5E008C7F17D019C
S3150800F3B06A1C00F0010056180100029918BF123E97
S3150800F3C000290ED07A490978029B81F00101084389
S3150800F3D00090F2B2394650460BF054FD8046B8F11B
S3150800F3E0FF0F6ED0B8F1FE0F1BD101200090A6F1D9
S3150800F3F01202029BD2B2394650460BF043FD8046B4
S3150800F40044F48054B8F1FF0F44F0080459D005219C
S3150800F4105046F9F747FE40F0080205215046F9F72D
S3150800F42051FE47440DE05046F9F7EFFB0499A0EB6F
S3150800F43008000E18F6B2324641463846F3F720FD64
S3150800F440BF1950460AF07DFF08B144F01004214662
S3150800F450681CF7F728FB00F0B5F800F0050004284B
S3150800F46004F007060BD02EB952480178491C0170E2
S3150800F470E9700CE050480178491C0170E970032EC8
S3150800F48005D1FFF7B6FE284448494078087000F0D1
S3150800F49099F800F00500042858D0200756D50EF034
S3150800F4A0BBFB10F1010F0CD0012E0CD1F7F7A4FF0E
S3150800F4B0032808D0B9F1000F05D100F086F8032813
S3150800F4C001D0002059E000F080F8032806D15846FC
S3150800F4D0F9F783FB81460024002627E0B9F1000FDF
S3150800F4E005D0DFF8A490FF260020102420E000F0C5
S3150800F4F069F8C00604D5FDF73BF9814601260DE0FB
S3150800F5006846FDF72AF95FEA000903D14FF46C71E2
S3150800F51000F054F8009800F07F00461C00F055F8FB
S3150800F5200824022802D1FFF7B7FA01E00EF068FBBB
S3150800F5300290F6B20196002000902346781B411EE1
S3150800F5404A46C9B2681C0EF083FC07445FEA0B0002
S3150800F55004D05A4601215046F9F7FCFB781B401C9B
S3150800F5602870781B7F2803DB40F2D33100F026F899
S3150800F5700599012008709DF80C0007B0BDE8F08FCA
S3150800F580F47C00207CE0010884E00108505E00203D
S3150800F590345E00207C6000202C6100206E780020FC
S3150800F5A06A780020D17F0020F07E00200D610020BF
S3150800F5B02D610020807F00207F7F00200FF2100041
S3150800F5C0F3F75CBB504600F0E8B8504600F0F5B8D3
S3150800F5D069702D6D61632D6865616465722E6300BF
S3150800F5E06E6F2065756920666F72203078253278CF
S3150800F5F000000000656E637279707465642077692F
S3150800F6007468206E6F20736F757263650000000062
S3150800F61064656372797074696F6E206661696C657A
S3150800F62064207573696E67206B65793A200000005F
S3150800F6305258206B657949644D6F64653A20307875
S3150800F6402578207365713A20256C752F256C7520F1
S3150800F6506B65793A202573206C6F6E6749643A208A
S3150800F660000000006E6F7420666F756E64000000FF
S3150800F670666F756E640000006974206D696768744A
S3150800F680206265206E6577202575000064656372C3
S3150800F690797074696F6E206661696C656420776934
S3150800F6A07468206C6F6E672069643A0073656E64CF
S3150800F6B06572206C6F6E672049440000696E76613A
S3150800F6C06C6964206672616D6520636F756E74651A
S3150800F6D0723A20257520666F722073657175656E9E
S3150800F6E063653A202564206E65696768626F7220D3
S3150800F6F06672616D6520636F756E7465723A202552
S3150800F70064206368696C64206672616D6520636F46
S3150800F710756E7465723A202564206C656761637935
S3150800F7203A202575206C6567616379206672616D7C
S3150800F7306520636F756E7465723A20256420000033
S3150800F74044657374696E6174696F6E20666C61676F
S3150800F750733A2025582028255820255829000000C6
S3150800F76080B5F9F73AFA60B10178CA0705D4401DA1
S3150800F77017F0E4FF401DC0B202BD880701D50F206F
S3150800F78002BD092002BD38B50446F9F726FA054632
S3150800F7902046FFF7E5FF284432BD0021F9F766BC8D
S3150800F7A00A460021F9F769BC80B5F9F716FA18B1C7
S3150800F7B0017841F08001017001BD0421F9F756BCBA
S3150800F7C00A46FFE70421F9F758BC80B50521F9F781
S3150800F7D069FC00F4406002BD38B50446F9F7FDF946
S3150800F7E005462046FFF7D9FFC00701D5E81D32BDFB
S3150800F7F005F10A0032BD80B5FFF7EEFFBBE038B56C
S3150800F80004460D46FFF7E8FF2946F7F74CF900F0DE
S3150800F8102AF84FF6FF718D4206BF4FF6DF7101EAEF
S3150800F820000240F020022046BDE838400521F9F7DD
S3150800F83049BC10B50C46FFF7CFFF2146BDE810407E
S3150800F8400822F3F71DBB38B504460D46FFF7BDFF82
S3150800F850A84207D000F007F84FF2FF31084045EA02
S3150800F8600002E0E731BD05212046F9F71BBC2DE96A
S3150800F870F04104460D46FFF790FF0646F00704D40C
S3150800F8808B210FF25420F3F7F9F9B0071AD5204661
S3150800F890F9F7A3F980462046F9F7B7F90746A0F124
S3150800F8A00F0292B208F10F0108F10900F3F7E8FA1E
S3150800F8B0B91F89B22046F9F7C1F906F0FD012046BD
S3150800F8C0FFF76EFF4FF400612046FFF7BCFF4FF6C7
S3150800F8D0FE708542204607D1FFF75FFF40F0200102
S3150800F8E02046FFF75DFF0AE0FFF757FF00F0DF014C
S3150800F8F02046FFF755FF29462046FFF780FF0120DF
S3150800F900BDE8F08110B50446FFF75FFF48B1B0F5D2
S3150800F910006F08D12046FFF76EFF4FF6FF71884249
S3150800F92001D1012010BD002010BD80B50521F9F7D1
S3150800F930B9FB00F4404002BD38B50446F9F74DF965
S3150800F94005462046FFF729FFC00701D5E81D32BD49
S3150800F9502046FFF718FF05462046FFF7E6FFB0F5F5
S3150800F960404F0CBF6FF007006FF00100284432BD0E
S3150800F97080B5FFF7E1FFBDE80240F7F78BB838B569
S3150800F9800446FFF70AFFC00703D5BDE83140F7F77D
S3150800F990F2BCFFF768FF05462046F9F71EF908305E
S3150800F9A0690611D44FF440410D4202D14FF6FF705B
S3150800F9B032BD05F44061B1F5006F08BF001D03D0E4
S3150800F9C0B1F5406F08BF0A30BDE83240F7F762B8B4
S3150800F9D010B50446FFF7E1FE000703D52046BDE84B
S3150800F9E01040C5E74FF6FE7010BD2DE9F0471D46DD
S3150800F9F0012610B140F6010006E0002A1ABF0326C8
S3150800FA0040F6214040F62100002914BF4FF440413A
S3150800FA104FF4004141EA00080020FCF745FE18B102
S3150800FA2048F4805040F00808089C16F0020714BFF6
S3150800FA300F2009202018002180B2F9F7E4F9814641
S3150800FA4008B3F9F7E2F882464846F9F7C6F8524687
S3150800FA500021F3F777FA31464846FFF7A1FE4846F4
S3150800FA60F9F7BBF8461D41463046F7F71CF8B01CB7
S3150800FA70002F14BF0823022325B12246294618441D
S3150800FA80F3F7FEF94846BDE8F087F8B504460D4693
S3150800FA90681D002180B2F9F7B6F9060001D10020E9
S3150800FAA0F2BDF9F7B2F807463046F9F796F83A463E
S3150800FAB00021F3F747FA04213046FFF771FE3CB1FF
S3150800FAC03046F9F78AF82A462146401DF3F7D8F951
S3150800FAD03046F2BD0000000069702D7061636B65E9
S3150800FAE0742D6865616465722E63000030B504463E
S3150800FAF085B00020F8F76AF90FF24800DFF80C3DE8
S3150800FB0000F028FBB8A58CB1042102A8F1F74CFF38
S3150800FB1008200090019502AB01F0EEFC02A8C1791D
S3150800FB2041F00201C171F5F7C6FE09E00820009010
S3150800FB3001950122DFF8483D00F014F8F5F7BAFE02
S3150800FB4005B030BD6368616E676564206D616320CA
S3150800FB50657874656E6465642069642066726F6D85
S3150800FB600000000001210020F8F756B980B5DFF83B
S3150800FB70140D4179092905D1032000F033FABDE8AF
S3150800FB80014081E107291ED0491E072915D8DFE85B
S3150800FB9001F00A0406040D202011042000E00320C9
S3150800FBA0BDE802401EE2BDE80140DBE2BDE80240D6
S3150800FBB0072001E3BDE8014066E1BDE8044040F2E4
S3150800FBC0753101F095BDC07A18B1BDE8014001F064
S3150800FBD023BD01BDDFF8AC0C4179072900D0704779
S3150800FBE080B5C07A032818BF07280ED1DFF8980C0D
S3150800FBF0008901F0C4F808D0FEF781FDBDE804408D
S3150800FC009621DFF8880C06F0DFBF01BDDFF8800C0F
S3150800FC1000B5007883B020B1DFF8640CFCF762FE0B
S3150800FC2007BD04216846F1F7BFFE9DF8000000F005
S3150800FC30FD008DF800006846FCF754FE07BD2DE967
S3150800FC40F84304468846DFF84C9C5E220021484665
S3150800FC50F3F778F9102200214846F3F773F90522DD
S3150800FC600FF25401DFF81C5C0FF254064846F3F70E
S3150800FC7007F909F128070220F870032038714FF6B2
S3150800FC80FF7038800020E8810DE018EA000F09D0DF
S3150800FC90B078F27821184844F3F7F2F8E889318801
S3150800FCA00843E881361D30880100EED194F82A0011
S3150800FCB0B870BDE8F1830000656D626572000000EA
S3150800FCC0010000100200100804002008080028029D
S3150800FCD010002B0120002C0140002D108000180870
S3150800FCE000013D2000015D010000000038B5044612
S3150800FCF00D46F7F781FB20B1BDE832407020FDF7CD
S3150800FD0072B800F009F80020FDF76DF8294620467C
S3150800FD10BDE8344012F005BE294620468FE7F8B5FF
S3150800FD2000F08CF8002802BFDFF8140D00780C28C4
S3150800FD3026D100211020F9F766F8DFF8487B3882CB
S3150800FD4008B918201DE00020FDF77CF800210220E4
S3150800FD50F7F756FB4FF6FB7000EA0501FFF7DDFFE4
S3150800FD60FCF74FFB388AF8F738FF1022FF21F3F724
S3150800FD70E9F83146BDE8F8400522022006F0F4BF4E
S3150800FD807020BDE8F24000F08DBFF8B5DFF8F47AD0
S3150800FD900446F8890D46160019BF00F04F014F2991
S3150800FDA000F04700472801D0022019E0F7F724FBA6
S3150800FDB0002802BFDFF8880C00780C280FD1DFF87E
S3150800FDC0D40A80F82B502046F7F7E4FA0120F87198
S3150800FDD03E720020FDF746F8BDE8F14054E0702079
S3150800FDE0BDE8F240FDF73EB8746F000070B500F04C
S3150800FDF025F8002802BFDFF8480C00780C2818D12F
S3150800FE00FFF78AFFDFF88C4ADFF8785A94F92C0056
S3150800FE10F7F7C0FAFCF70AFB6E611021204600F0DE
S3150800FE20D1FE0020E8712872FDF71CF8BDE8704085
S3150800FE302AE0BDE870407020FDF714B804460D4668
S3150800FE401646F7F7D9BA80B5F7F7D6FA042802BFE7
S3150800FE50DFF8300AC07A002803D101F0AEF8002096
S3150800FE6000E07020BDE80240FDF70CB820F08001E4
S3150800FE70042900D0704780B50121F7F787F8DFF825
S3150800FE80401D0020087001BD80B5FFF7BFFEF5F7DD
S3150800FE9011FDDFF8000A90F82B0020F080010429F4
S3150800FEA008D101210320F7F771F8DFF8E00906F019
S3150800FEB0DBFE02E00121F7F769F800F09DFE00215C
S3150800FEC00220F7F79DFADFF8BC1902200871012015
S3150800FED0BDE8024070E138B50446DFF8A809008A93
S3150800FEE00D46F8F77AFE10B1204400F80B5C31BDD8
S3150800FEF02DE9FC4106460F4690461C46FFF786FE4E
S3150800FF00DFF88059687920B1702000F0CBFE002018
S3150800FF1046E0F9F74CFA3046FEF738FC3846F7F76C
S3150800FF2039FA4046F7F729FA0C98DFF8C46C00212D
S3150800FF30F7F72CF8308840F0010030800020F7F7FA
S3150800FF4009FA0899204600F03DFE072000F02AF835
S3150800FF50308840F400403080A87B400704D5DFF89D
S3150800FF60940C00F006FE06E004216846F1F71CFD35
S3150800FF70684600F0FEFD0A98F9F75EFD0B98F9F75A
S3150800FF807FFDF7F791FD012012F06AFCDFF83C0DC2
S3150800FF908078FFF7ABFDF7F7BAFD01F039FB0120D2
S3150800FFA0BDE8F68138B5DFF8DC58697904460FF202
S3150800FFB0041050F8243050F821200FF210010020C8
S3150800FFC0F7F70DFF6C7131BD000000006A6F696EAE
S3150800FFD0207374617465202573202D3E20257300D7
S3150800FFE00720DFE7F8B5DFF89C486579064600F094
S3150800FFF003FE012D08D12079010005D0401E20718D
S315080100000120BDE8F240D7E0A07901001FD0401ECB
S31508010010A071F5F75EF9DFF8F067317801F0EEF9CE
S31508010020A0790FF24C0100903B460FF2880050F878
S3150801003025200020F7F7D3FE394606F1080006F019
S31508010040C3FD08206071307880003070F1BDDFF89B
S31508010050440890F82B00FFF709FFF5F72BFC31460A
S315080100600020F7F7CDF9BDE8F14000F00BBF00001D
S315080100706A6F696E206661696C656420696E2073B2
S31508010080746174652025732C207265747279696EA2
S315080100906720696E202575206D732C2025752061D2
S315080100A07474656D7074732072656D61696E696EBD
S315080100B067000000249E03082C9E0308389E030847
S315080100C0449E0308549E03085C9E0308649E030825
S315080100D06C9E0308789E0308809E030830B58DB090
S315080100E004460D460822214602A8F6F748FD2022B5
S315080100F0002104A8F2F726FF04AA082102A816F08F
S3150801010069F8082204A92846F6F739FDE87940F086
S315080101100200E87123460FF2280000F01BF80FF2DF
S315080101202C0001902B460820009001220021FFF7A0
S315080101301AFDCBA10020F7F73BFE0DB030BD00003C
S31508010140686173686564206575693A0020746F3A59
S3150801015000000000019001220820009000210020E3
S31508010160F7F75ABE10B5DFF81C47607A401CC0B2D3
S315080101701B280DDA6169C140C907F7D56072FEF718
S3150801018005FBE07950B900F03AFB07D0012206E0F9
S31508010190BDE810400022032100207DE30022002152
S315080101A0002009F0EAFBBDE810404FF49671DFF82C
S315080101B0FC0C06F009BD00002DE9FF41054668461D
S315080101C000F060FDDFF84046DFF8B866DFF8C47670
S315080101D0DFF8AC8C00F052FD2846FFF7E3FE707994
S315080101E0401E062807F1280500F28780DFE800F09F
S315080101F0041F505C5F8566004FF6FF776078E780DD
S3150801020078B1288801E0F5F764F8B842FBD0F7F72A
S31508010210B4F8A078FFF76AFC0A207072FFF7A2FF0C
S3150801022070E071690522032006F09EFD6AE0DFF899
S31508010230801CE07809780840DFF8B0190978084287
S315080102400AD0B06920B94FF442714046F2F716FD5B
S31508010250B1696846884755E00022082106F12C0055
S31508010260F6F77EFC28B106F12C01DFF81406FFF734
S3150801027035FF06F12C00F5F71EFB97F85D3031883E
S3150801028007F13D0268460CF026FEDFF8241D10E052
S31508010290012010F0B6FB20B940F227314046F2F7AB
S315080102A0EDFC42F6E06104E041F2883101E04FF4E9
S315080102B0967104F1080006F087FC23E000F0E2FDE0
S315080102C000F0AEFF062807D101F0A2F901220021AC
S315080102D0002009F04EF90DE0072802D101F098F93E
S315080102E008E0A078FFF702FCE878FFF7BFFD1720C2
S315080102F000F063FEF7F70BFC04E04FF45471404637
S31508010300F2F7BCFCBDE8FF812DE9F04192B08046C9
S3150801031017F006FA05464046F8F777FC441B4046AF
S31508010320F8F75BFC0619F6B21A2EB8BF0FF23411AC
S315080103300DDB4046FFF7F9FAB0F5004F05D0404608
S31508010340FFF7F3FAB0F5004F05D10FF23411072084
S31508010350F7F745FD81E0422200216846F2F7F2FDF2
S3150801036008AC2878A07040466F78FFF7E5FA014691
S31508010370082206A8F2F784FD1022A91C6846F2F79E
S315080103807FFD082205F1120104A8F2F779FD032180
S315080103904046F8F76BFEE07001214046F8F766FE25
S315080103A0607102214046F8F761FEA0714046F8F7F0
S315080103B014FC0830F6F76EFBADF8200007F00100D3
S315080103C02071F80800F001008DF840003809E07145
S315080103D005F11A073544381DA8420AD23878122879
S315080103E004BF7878022804D1B81CF6F753FBA0831A
S315080103F03F1D381DA8420AD238780F2804BF7878DD
S31508010400022804D1B81CF6F745FBE0833F1DB81C4A
S31508010410A8420BD23878082808D17A78112A05D249
S31508010420A276B91C0DF12A00F2F72AFDDFF8540469
S315080104304079012803D1684600F031F80DE0DFF86C
S3150801044000060078012803D1684618F0E5FA04E0A9
S31508010450052804BF68460FF0ACF912B0BDE8F08173
S315080104600A000000626561636F6E207061796C6FC6
S31508010470616420746F6F2073686F727400000000E6
S31508010480626561636F6E20736F75726365206D6F48
S3150801049064652069732073686F72740000BF2DE963
S315080104A0F04FD94C89B08046E088DFF8D85308F177
S315080104B0200600F064FC95F9020096F906100CBFB7
S315080104C0012200228842F079E978B4BF012300238A
S315080104D0B0F1010A6AEB0A0AB1F1010BDFF83C1D1A
S315080104E009786BEB0B0B06290CBF0127002703EADA
S315080104F0DA7C47EADB7E47EADA770EEA0C0C87F004
S31508010500010743EADB734CEA02023B4043EA020B6A
S315080105106A79DFF880A3012A0AF1280709D1022896
S3150801052007DBB078032804D107291AD198F84000C7
S3150801053030BB0FF21C20019008F12A03B07E00900F
S31508010540012201210720F7F767FC8DF820B0E88919
S31508010550010703D53988328891426BD14FF0010BD7
S315080105606AE0307938B1B17E080004D008F12A0072
S315080105700EF012F820B9A87B00F047004728D8D119
S3150801058000F052F930B900F049F918B900F059F9F3
S315080105900028CED1A87BC00706D500F02BF918B9DB
S315080105A000F056F90028C4D1A87B400706D500F00B
S315080105B02FF918B900F03EF90028BAD1A87B00072F
S315080105C003D5388831888842B3D15FEA0B00B0D0A9
S315080105D0F078B8704146B079A8703088388000F054
S315080105E00EF90CBFF08BB08B28801022F079E870D9
S315080105F05046F2F745FC082208F110010AF12000DD
S31508010600F2F73EFC4FF6FE70E080082208F1180169
S3150801061005F11C00F2F734FC96F90600029005F183
S315080106201C030FF240100190012208200090FFF7E9
S3150801063099FA89E04FF0000B400708D500F0E8F871
S3150801064028B900F0F7F8471EBF41FF0F00E0012760
S31508010650A87BC00708D500F0CDF828B900F0F8F84E
S31508010660441EA441E40F00E0012400F0DDF858B966
S3150801067000F0D4F840B900F0E4F8B0F1010969EBEB
S3150801068009094FEAD97901E04FF0010900F0B7F8F5
S3150801069008BF98F8400013D0307938B1B17E080008
S315080106A004D008F12A000DF077FF30B9A87B00F0D5
S315080106B04700472803D1012009E0012000E0002076
S315080106C0317921B9A97B01F04701472901D10121D6
S315080106D000E00021B278032AF2790CBF4FF0010C31
S315080106E04FF0000C022A6A799DF820500795ACBF95
S315080106F001230023012ACDF818B0059718BF002257
S31508010700049402900191CDF800C0CDF80C90072011
S315080107100FF26C01F7F763FB0820019008230AF131
S315080107202000009008F110020FF284010720F7F764
S3150801073056FB10200190CDF800A0102342460FF277
S3150801074094010720F7F74BFB09B0BDE8F08F0000CD
S31508010750626561636F6E207374656572696E673A67
S315080107602000000043686F6F736520626561636FDF
S315080107706E20727373693A25642069643A00000031
S3150801078046696E6420746865203073203A282025EE
S315080107907520257520257520257520257520257533
S315080107A02025752025752025752025750000000052
S315080107B0546865697220657874656E64656420702D
S315080107C0616E2069643A2025622C206F7572733A2E
S315080107D0202562005468656972206E6574776F72A8
S315080107E06B2069643A2025622C206F7572733A2052
S315080107F025620000002210215046F6F7B1B9DFF84C
S315080108001C0A007807287047245F0020F47C002022
S31508010810002208210AF12000F6F7A2B900220821D0
S3150801082008F11800F6F79CB90022082105F1240001
S31508010830F6F796B9082208F110010AF12000F2F735
S3150801084088BB082208F1180105F12400F2F781BBDB
S31508010850102241465046F2F77CBB38B50D4C04F1DF
S315080108602805A878FDF792FF2888F6F786FD04F192
S31508010870200000F07EF92046BDE834401021A1E1B0
S31508010880EC7C0020207A0020647A0020385F002062
S31508010890CA7F0020C0790020F0B5020085B040F07B
S315080108A09480DFF8685DDFF83C4C6879012834D11B
S315080108B00022082105F11C00F6F752F9B8B9FFF72D
S315080108C0CCFFE87970B100F0ABFC062808D100220C
S315080108D0082104F11800F6F743F908B1062002E0E9
S315080108E0072000E0022005B0BDE8F04064E4287A5C
S315080108F068B1FFF7B2FF18F0DFF8012011F0B0FF79
S315080109000720687105B0BDE8F04000F0FABD05B0F2
S31508010910BDE8F0400220FFF765BB022903D105B007
S31508010920BDE8F040D4E1042904D105B0BDE8F040A2
S315080109300EF05CBE032941D1288AF8F74EF9EB89F6
S3150801094003F00806320004F128014FF6FF770FD1AC
S315080109504FF0000C00281CBF30F81C20BA4208D101
S315080109600CF101025FFA82FCBCF1080FF2DB1CE014
S315080109700A88BA4218D018064CBF04F1180000209C
S3150801098003909B074CBF04F110030023002001903C
S315080109900293102000902346CE7891F90410A87A84
S315080109A00496FFF7A5FA16E01EB905B0BDE8F040B2
S315080109B0C8E105B0BDE8F040702073E105290AD108
S315080109C005B0BDE8F0400EF015BF022903D105B008
S315080109D0BDE8F04066E105B0F0BDDFF8300C4079BE
