S00C00006C696768742E733337D0
S31500000000A0DB032011870300D99B0200AD82030009
S31500000010A70A02020002000004180FAC0026930093
S3150000002000000000000000000000000000000000CA
S3150000003000000000649F03000000000000000000B4
S315000000400000000000000000FFFFFFFFFFFFFFFFB2
S31500000050FFFFFFFFFFFFFFFFFFFFFFFFFFFFFFFFAA
S3150000006000F00F000000000000000000FFFFFFFF8F
S31500000070FFFFFFFF1C000000000000000000000062
S3150000008000000000000000008CFF03208CFF03200E
S31500000090A0DB032098E003006C8C0300C8CC03208F
S311000000A070170020000010000000000097
S31500000200A0DB032011870300D99B0200AD82030007
S31500000210B5820300B1820300B9820300C5820300E0
S31500000220C5820300C5820300C5820300C5820300A0
S31500000230BD820300C5820300C582030065A50100D7
S3150000024037910200B551030041890100C5820300C0
S31500000250BD4D0300FD510300BB510300BD5103001A
S31500000260B75103003D8D0100878F010019A00200E0
S3150000027053160000C5820300C58203003F05000037
S31500000280C5820300C5820300A58F0100C582030055
S31500000290C5820300C5820300C5820300C582030030
S315000002A0C5820300C5820300C5820300C582030020
S315000002B0FF510300B9510300198F020037520300A2
S315000002C0C5820300B5880300C5820300C58203000A
S315000002D0C5820300C5820300C5820300C5820300F0
S315000002E0C5820300C5820300C5820300C5820300E0
S315000002F0C5820300C5820300C5820300C5820300D0
S31500000300C5820300C5820300C58203006F49704A97
S3150000031001E021B1491E1369DB07FAD401B9B0E047
S31500000320506001201060106910F0060F05D04107DB
S3150000033000D5A9E0800700D5A9E000207047F0B5F8
S3150000034013460022002936D0604C614D8BB98B4292
S3150000035031D250F8046BEE605B1C08262E602646F0
S3150000036001E036B3761E2F69FF07FAD4002EEED1D0
S315000003701FE0EFF3108672B600230EE02F6907F038
S315000003801907102F08BF2F602F693F07F6D550F8C1
S31500000390047BEF605B1C10272F608B42F4D306B9F9
S315000003A062B6264601E026B1761E2869C007FAD451
S315000003B00EB96FF002021046F0BD2DE9F0479A46DD
S315000003C0444B454F1C681B683B688046002043F041
S315000003D001033B60950881460C4602E0B14404EBFC
S315000003E08604A94517D208EB89063046FFF78EFF2B
S315000003F0010014D1C6F30A00C0F500608608A5EB1B
S315000004000900B04238BF0646524631462046FFF73D
S3150000041096FF0100E2D03968490849003960BDE815
S31500000420F0872C49294A0B6809682B490B6843F069
S3150000043001030B608860012048604869400704D5C5
S3150000044008684008400008601EE04869800704D537
S31500000450086840084000086019E00220486001E092
S3150000046022B1521E4869C007FAD422B9086840086A
S315000004704000086005E00868400840000860002069
S3150000048070476FF0020070474FF0FF3070476FF013
S3150000049001007047002390E70F48016841F0010111
S315000004A0016046F21A31C1644FF4807141604169BE
S315000004B0C907FCD44FF4007141604169C907FCD4F7
S315000004C00021C1640020704700000000809698005B
S315000004D00C000E4004300E4008000E40072802D2E1
S315000004E03549085C7047FF207047072802D2334918
S315000004F0085C7047FF20704738B50446304800EB6B
S315000005008105A8780009FFF7E9FF2071A87800F0B7
S315000005100F00FFF7EAFF6071FF2814BF01200020DB
S31500000520E8702146E878A071287860706878254DD3
S31500000530A070284600F0A3F80120A86031BD10B5D0
S31500000540214984B01CC968461CC02048204A01784D
S31500000550D36814682340DB072DD503292BD2184C0A
S3150000056012691C4B04EB8104E4781CB114B2002C14
S3150000057048BF002223F811200123174A147803FAF2
S3150000058001F121431170154A117891B100211478B7
S31500000590CC40E40708D501708B40107858401070A5
S315000005A06846FFF7A9FF1FBD491CC9B20329EED350
S315000005B01FBD032101701FBDEC9E0300F49E0300C6
S315000005C0D4E5032000200040E09E03004EFF0320F8
S315000005D038200040F8E503204FFF03204BFE0320A0
S315000005E0890001EB401000F184400260704730B58D
S315000005F0002A446BDFF834511ABF1022DFF830317D
S31500000600DFF8303123400024A84237D1DFF8280133
S3150000061051B101290CD002291ED003290CD006297C
S3150000062015D0812918D023E001680468006816E017
S3150000063001680468006802E0416844684068090C83
S3150000064001F4FE41C4F303442143000C0CE081682D
S31500000650806801F00F0107E041684468406801F4D2
S31500000660FE4104F00F04214300F0F00040EA0104CB
S3150000067004FA02F0DFF8C4101843086030BD38B53C
S3150000068004460D460220A0600022A9782046FFF706
S31500000690AEFF287969786B79020242EA016242EA82
S315000006A00342EB7842EAC302EB790BB142F0005207
S315000006B02B7A0BB142F00402AB790BB142F0020285
S315000006C06B7A0BB142F00102AB78F32806D1180021
S315000006D004D10429BCBF042060F31B6218064CBF7A
S315000006E042F0E00042EA4310206115496069084083
S315000006F0A9780A0644BF21F080010843297840EA18
S315000007004140E97A09B140F4804060610221AA7A49
S315000007102046FFF765FF2879F32804F13000BDE88D
S3150000072038400CBF01220022102159E7002000406A
S31500000730FFFF00800080FFFF1082E00F34200040A2
S31500000740F8BFE1FF10B5002A044614BF0B4A0C4A55
S3150000075008A1022000F039F8022000F013F810B1C9
S31500000760204600F089F8BDE8104003A1022000F001
S3150000077032B800BF2570200000000000FC9E030078
S31500000780089F03004C4908804FF6FF71884205D048
S31500000790010A05D147490978084002D0012070476F
S315000007A00020704770B50C4615461E46FFF7EAFF57
S315000007B050B132462946202000F0D2F924B1BDE8D6
S315000007C07040202000F0BDB970BD0CB480B50A465B
S315000007D002AB002104E00CB480B50A4602AB01214D
S315000007E0FFF7E0FF01BC5DF80CFB2DE9F8438046FE
S315000007F00E4617469946FFF7C5FFD8B1089C002557
S3150000080010E0325C49464046FFF7DFFFE81005EB93
S3150000081010700011A5EB0010062804BF404600F03A
S315000008204DF86D1CBD4205DA20001ABF781B401E2C
S315000008302846E6E7BDE8F18310B5002B82B014BF69
S3150000084018A319A300240094FFF7CFFF13BD38B5F2
S3150000085000E038B500F00CF814A1FFF7B6FF012050
S31500000860009011A3288808222146FFF7BEFF31BD5C
S31500000870114D04462888704700B58BB0282269467A
S3150000088000F086FB05E000B58BB02C236A4600F02D
S3150000089085FB28B1084800886A4605A1FFF795FF41
S315000008A00BB000BD25782000257800003E00000032
S315000008B025730000EDE3032074FE032080B5FFF7E7
S315000008C061FF20B1BDE80240202000F0C3BC01BD9D
S315000008D070B51346104402E0A4192C705B1EDCB2FE
S315000008E04CB101F00F060909451E0A2E2846B4BF71
S315000008F030243724F0E7104470BDF0B5002341B131
S31500000900002806D501232D21B0F1004F117018BF24
S315000009104042002100248D4D55F82470002601E048
S31500000920C01B761CB842FBD2F7B20FB90F0005D038
S31500000930DBB206F13001D1545B1C0121641C092C89
S31500000940EADBDBB23030D054581CC0B2F0BD2DE922
S31500000950F24F804696B013A80190154603A89B4611
S3150000096003AE002700248DF800000BE001240546A5
S315000009700198864205D300F0DCF800284FD100F03C
S31500000980CEF86D1C9DF800002978301A0A000BD0AD
S31500000990252903D014B906F8011BE9E7002C14BF7A
S315000009A000246D1C29780A0000F0AF80B1F1250201
S315000009B016D00B3A092A40F28980283A7DD00A3AA5
S315000009C012D0521E41D0521E5FD0083A5DD0121F7F
S315000009D03ED0D21E3CD0921E57D0D21E6DD0C7E755
S315000009E0252006F8010BC3E7DBF8000002904FF064
S315000009F0000A0BF1040000F1040BD0F80090CA4580
S31500000A00B6D2029810F80A1002223046FFF760FFAD
S31500000A1006460198864205D300F08BF800287AD165
S31500000A2000F07DF8A9F1010082453CBF202006F8C0
S31500000A30010B0198864205D300F07BF800286AD1A5
S31500000A4000F06DF80AF1010AD9E75BF8040BC8E774
S31500000A505BF8049B00F067F800285CD100F05FF8B3
S31500000A604FF0000A01E00AF1010A5FFA8AFA19F862
S31500000A700A000028F7D19DF8580052464946C0475B
S31500000A80002848D15744FFB272E76C290AD16A7828
S31500000A905BF8040B752A0EBF00210121642A07D1D9
S31500000AA06D1C05E075295BF8040B0CBF00210121C4
S31500000AB03246FFF722FF36185AE75BF8041B02227C
S31500000AC0C9B23046FFF704FF064651E76A780124AB
S31500000AD0782A18BF582AF8D16D1C0024681E3229BE
S31500000AE004D15BF8040B042281B2EAE734297FF4CF
S31500000AF03DAF5BF8049B04224FEA19413046FFF7ED
S31500000B00E7FE04221FFA89F1DCE700F00CF810B9C1
S31500000B10F019C0B200E0002017B0BDE8F08FF71959
S31500000B20FFB203AE704706469DF85800F2B203A91D
S31500000B3040479DF80000361A9DF85800F2B203A906
S31500000B40404701A104E000000D0A0000ECA60300E6
S31500000B500CB480B502AA00F003F802BC5DF80CFBE9
S31500000B6080B500F0EAFEC0B202BD0268531C036005
S31500000B7011707047914938E080B5014606220FF2A0
S31500000B8030601EE038B504460D4606220FF220619D
S31500000B90284600F0CFFF2146A81DBDE8344001F0ED
S31500000BA052B838B504460D46FFF7E6FF28B11DB129
S31500000BB0A01D01F03EF82880012032BD80B5082234
S31500000BC07E4901F020F8401E8041C00F02BD00B5ED
S31500000BD083B0694600F011F808227949684601F0A9
S31500000BE012F8401E8041C00F0EBD10B500F00DF882
S31500000BF0207880F00200207010BD10B500F005F8D6
S31500000C00E07980F00200E07110BD0C460146082232
S31500000C10204601F05EB838B5044601F0F8FB0546FB
S31500000C2069462046FFF7BDFF00281CBF4FF6FE7041
S31500000C30854205D0BDF80000854201D1012032BDB4
S31500000C40002032BD80B5694600F012F838B1BDF813
S31500000C5000004FF6FE71884201D1012002BD00203E
S31500000C6002BD10B50C4604F10801FFF78BFF14E036
S31500000C7038B504460D4601F0DBFE28B1294604F1DD
S31500000C800800BDE834408CE732BD10B504460822A2
S31500000C904A4904F1080000F04DFF2046BDE8104027
S31500000CA001F0BABE10B5044601F0C2FE17E038B531
S31500000CB004460D4608220FF20051284600F03AFF7E
S31500000CC005F108012046BDE834408EE780B50822CC
S31500000CD00FF2E44175E710B50446FFF7F7FF38B1A8
S31500000CE004F10800FFF748FF00F0010080F0010062
S31500000CF010BD10B5044601F08AFB4FF6FE7188421E
S31500000D0005DA01F084FB2146BDE81040A9E720463C
S31500000D10BDE81040B9E710B5044602F012F918B95B
S31500000D202046BDE8104025E2012010BD0178FF29CC
S31500000D3004BF4178322907D1817829B9C178402981
S31500000D4004BF001D01F074BE002070470178FF2922
S31500000D5004BF4178332907D1817829B9C178402960
S31500000D6004BF001D01F064BE002070470178FF2912
S31500000D7006BF40780128002070470178FF2904BF8C
S31500000D804078022801D1012070470020704738B50D
S31500000D9004460C4D08222146281D00F0CBFE0822F1
S31500000DA0214605F1140000F0C5FE214605F1240098
S31500000DB0BDE83840082200F0BDBE00008CF60320D6
S31500000DC054F8032048E1032010B581280B4601DBC7
S31500000DD0002010BD802814DAC408C0F108000122E2
S31500000DE000EBC400195D02FA00F0401E21EA000083
S31500000DF01855C4F10F02181992B20021401C00F0D8
S31500000E00FBFE012010BD2DE9F84708B40446180082
S31500000E1090B08846914613D00FF274300FC801AFD8
S31500000E2087E80F0024B11022214601A800F082FEB7
S31500000E305FEA090006D001A94046FFF7C5FF002872
S31500000E4000F09A80FF240025FF2700940026AA467A
S31500000E5001A800EB4A0000F0ECFEFFB220B9FF2F1C
S31500000E6008BF57466D1C05E0FF2F03D000F087F83A
S31500000E70FF2700250AF1010ABAF1080FE8DBFFB2E5
S31500000E80FF2F01D000F07BF8012E08BF00940098D8
S31500000E9005AC002735180098874201DBAF422CDBF2
S31500000EA001A800EB470000F0C4FE17B13A2104F890
S31500000EB0011B214600230022960000FA06F636138F
S31500000EC006F00F0C002B08BFBCF1000F01D1032A5E
S31500000ED00CD10B46591CBCF10A0FB4BF4FF0300EB3
S31500000EE04FF0570EF44483F800C00123521C042A25
S31500000EF0E2DB081BC0B2044404E0B84204BF3A2057
S31500000F0004F8010B7F1C082FC5DB082D04BF3A200F
S31500000F1004F8010BB9F1000F1CD02F2004F8010BC7
S31500000F20B8F1640F404605DB3121643804F8011B33
S31500000F30C0B201E00A280ADB0A2190FBF1F101F1B7
S31500000F40300204F8012B0A2202FB1100C0B2303035
S31500000F5004F8010B002004F8010B05A91A98611A80
S31500000F60884208D305A8221A109892B205A900F063
S31500000F70E1FD012000E0002012B0BDE8F0870098F6
S31500000F80FF2802D0EDB2AE4201DA0097EEB270470A
S31500000F9080B500920B460022002103E080B5009345
S31500000FA013460122FFF72FFF02BD2DE9FE4F05462E
S31500000FB0080090B03FD0180001D010003BD065B9B2
S31500000FC010981022002100F017FE9DF84800002816
S31500000FD002D0119900200870BFE02C21284602F0AB
S31500000FE020F804462C2C26D205A82C2102F024F841
S31500000FF0A2B2294605A800F09DFD9DF848000024F0
S31500001000D0B12F2105A802F01AF805001FBF047001
S31500001010451C287800280ED0287868B115F8010BF1
S3150000102000F0BEFE0A2806DA0A2114FB01F10C18AC
S31500001030A4B2812CF0DB87E00FF264100FC801AD7B
S3150000104085E80F0000208DF8000081468346804623
S315000010509DF8140000253A280CBF01260026AA4652
S3150000106019E082F0010001EA0902384082F001022B
S31500001070104269D0012E08BF002965D029B10AF1B6
S31500001080010A4FF001098DF800504FF0000BD846C9
S3150000109000260AF1010A05A810F80A00010031D05D
S315000010A03A280CBF0127002700F07AFE05A9514413
S315000010B049784A1E9241D20F3A290CBF01210021DC
S315000010C00FB9102840DA102D3ED01EB1022EC8D01E
S315000010D0C7D3DEE7002F37D1B8F1040F34D000EBC9
S315000010E00B1B08F101005FFA80F851EA0200D0D02C
S315000010F001A81FFA8BF1284400F0A5FDAD1CEDB246
S315000011000226C6E7B9F1000F14D0C5F110095FFA3F
S3150000111089F6CEB19DF8001001A847186A1AD2B216
S315000011203946B81900F006FD32460021384600F06F
S3150000113063FD01E0102D07D19DF8480040B101A9DB
S31500001140E0B2FFF741FE08B9002007E011980470ED
S315000011501022109801A900F0EDFC012013B0BDE8A3
S31500001160F08F0023002220E718B10022102100F0A2
S31500001170A1BD704710B5040007D000220F2100F072
S3150000118099FD10B1E07B012800D0002010BD0000C1
S315000011900000000000000000000000000000000049
S315000011A00000000000000000000000000000000039
S315000011B0000000FFFE000000FE80000000000000AE
S315000011C02DE9F0410125012818BF202894B00446D6
S315000011D00F4690461E4623D10AA82749242201F02D
S315000011E04BFF68460AA9242201F046FF1020012C75
S315000011F018BF202CADF82400ADF8260008D0022C2C
S3150000120018BF212C04D0032C1CBF222C232C14D154
S31500001210012E0197ADF80C8004D14FF4805005E003
S3150000122001200BE0022E03D14FF44050ADF80A0026
S315000012306946204600F06DFA0546E8B214B0BDE8EE
S31500001240F08100F009BB80B500F011FBC0B202BD11
S3150000125000F062BB80B500F015FCC0B202BD0CB454
S3150000126080B50A46014602AB0448FFF770FB02BC94
S3150000127000205DF80CFB0000BCB203000F1A000052
S31500001280704700F047BC0000012100F01F029140AA
S31500001290DFF8AC2705E0012100F01F029140DFF8DE
S315000012A0A427400942F820107047012100F01F02D0
S315000012B09140DFF89427F4E710B5012818BF2028DD
S315000012C0DFF8884705D04FF4BD71DFF8840701F0D9
S315000012D001FF204610BD426892884089401A82422A
S315000012E001DA01207047002070473EB5012818BF7B
S315000012F0202834D1012818BF202830D1FFF7DCFF81
S31500001300044601F0DDFF0546A06901AB6A4602A965
S3150000131003F023FA00992289206889B200F024F8A4
S31500001320284603F0DBFBA06903F08DFA012816D1ED
S31500001330216820898988401A218A88420FDBA069A2
S3150000134090F83110022903D103F005FA022804DAD5
S31500001350A06990F83100012801D100F001F837BDED
S31500001360A069002103F049BA70B504460D46164639
S3150000137001F0A6FFE188A9420CD22288521A52191E
S3150000138092FBF6F306FB13222280A288AA18511AB2
S31500001390A180E580BDE8704003F0A0BBF8B5012848
S315000013A018BF20280C46154616D1FFF785FF0646BE
S315000013B0307B10B101207073F1BD707B18B13046DF
S315000013C0BDE8F240B2E00FF2CD1700F006F818B112
S315000013D000F003F80028FBD1F1BDB0693B462A4670
S315000013E0214603F014BB70B505460E46FFF764FFB1
S315000013F0012D18BF202D044640D1A069016890F840
S315000014003200E8B90420886400F048F9A069006851
S31500001410C16C002E07D041F00401C1640C20FFF717
S3150000142033FF052106E021F00401C1640C20FFF71B
S3150000143032FF0021A0690068BDE8704003F07EBB62
S315000014400420486300F02AF9A0690068816B002E29
S3150000145007D041F0040181630C20FFF715FF052139
S3150000146006E021F0040181630C20FFF714FF002140
S31500001470A0690068BDE8704003F0EDBB70BD38B5EB
S315000014800446DFF8D005814230D0DFF8C055A869A0
S31500001490A0422BD12A89286899B2FFF765FF2968EF
S315000014A00020C88002E0284600F021F8204603F01C
S315000014B052F903281ADA2A68E889698A9388414327
S315000014C0002B89B2EFD05388128840188342B8BFE8
S315000014D0914205DB9A42E6D28342A8BF9142E2DA04
S315000014E02046BDE83440012103F087B931BD38B547
S315000014F00446DFF86435E089658A21680246684358
S31500001500084400F10801A06903F039FAA06903F064
S3150000151022F9022801DBFFF723FF608AA18A401C1B
S3150000152090FBF1F201FB1200608231BDFEB504466C
S31500001530207B68BB60680FF25D074188084400F1B4
S315000015400805A0696B4601AA02A903F026F960689E
S315000015508188009A891A019A8E1A418800888842E1
S315000015600ED26089421AA0693B46294603F04FFA1B
S3150000157070B9606861894288711A561800F10805C9
S31500001580A0693B46F2B2294603F041FA00B96073FE
S31500001590F7BD000070B5DFF8B454A96981421C4656
S315000015A015D168688188A14238BF848801F088FE19
S315000015B069686B894A88A4B2A21892FBF3F603FB0A
S315000015C016224A8069688A88121B8A80E2E670BD04
S315000015D038B50D46FFF770FE112D044609D1A069F6
S315000015E0002103F019F9002020732046BDE832409F
S315000015F09CE7132D06D1A069012103F00DF9012006
S31500001600207331BD2068018808440572206801886E
S31500001610228900F07BF901808188491C8180A069BC
S3150000162003F011F9226821899288891A89B220B9B2
S31500001630E2898A42A8BF012105DA012808D1208A59
S31500001640814205DB0021A069BDE8344003F0D5B82E
S3150000165031BD80B5DFF804040169090606D503F03B
S31500001660E7FABDE8044001460120B1E701BD80B5B7
S31500001670DFF8EC03016829B10168DFF8E82311609F
S315000016800021016000F00AF80C20FFF7FDFDDFF8ED
S31500001690D803016841F00401016001BD0C2004E695
S315000016A080B5DFF8C80304210160416821F0040118
S315000016B04160FFF7F3FF0C20FFF7EDFDDFF8A40311
S315000016C0006810B1DFF89813086001BDF8B50C4644
S315000016D01546FFF7F1FD0646EAB230688088318983
S315000016E0891A884201DB0120F2BD00270DE001F0D6
S315000016F0E7FD31680B8814F8012B19447F1C0A7228
S3150000170031680A88338900F00DF9AF42EFD3002023
S31500001710F2BDF8B5012818BF202804460D463AD177
S3150000172000F0F8F910B9204600F06CF82046FFF7F3
S31500001730C3FD06462046FFF7BFFD012C18BF202C2F
S3150000174029D1DFF82C130160DFF8281341608021CE
S31500001750012C18BF202C0181418151D1012C16BFCB
S31500001760202CDFF814030020012C18BF202CB061B8
S3150000177011D1DFF80803A98CA861DFF80403E8613A
S31500001780F181EA8C32828A4207D21C21304601F06E
S3150000179053FC0220F2BD0120F2BDB06990F8313051
S315000017A0012B0CD0338993FBF1F701FB1733002B88
S315000017B002BF92FBF1F301FB13210029E5D1294673
S315000017C002F0E9FDE8B9B069017F007E012302223B
S315000017D003F0E6FA287C012807D101212046FFF70D
S315000017E002FEB069FFF7BDFD0AE000207082F189B4
S315000017F0308990FBF1F0B08200F089F900F087F9AA
S315000018000020F2BD58B5012818BF2028044612D181
S3150000181000F080F9F0B9204600F058F92046FFF7AD
S315000018204BFD012C18BF202C06460FD1B06902F0E3
S3150000183092FE10B152BD012052BDB06990F8310040
S31500001840012803D100212046FFF7CDFD1C2130469B
S3150000185001F0F2FB002052BD38B50446FFF72CFD1F
S3150000186005462046FFF741FD2868808832BDF8B559
S315000018700128064618BF20280F4634460AD1FFF72E
S315000018801BFD05463046FFF730FD2868808818B9ED
S315000018902620F2BD0120F2BD01F012FD06462868A1
S315000018A041880844007A3870286841882A8900F0FF
S315000018B02DF841808188491E012C18BF202C81807B
S315000018C01FD1A86990F83100012803D119E02846F4
S315000018D0FFF70DFEA86902F03EFF022811DA2A681A
S315000018E0E889698A53881288414389B2401883423D
S315000018F0B8BF914205DB9A42E9D28342A8BF914222
S31500001900E5DA304603F0EAF80020F2BD491C91FB07
S31500001910F2F302FB1311704780B5FFF7CDFC406868
S31500001920808802BD521C92FBF3FC03FB1C220A803A
S315000019308A88521C8A8003F0D1B810B5012818BFD6
S3150000194020280BD113460A4601460FF21500FEF772
S31500001950FEFF002400B90124204610BD012010BD61
S315000019602DE9F84F814601281CBF202801208A4610
S3150000197093464AD1FFF7A0FC074600247868018801
S31500001980084400F10808002627E001F099FC796870
S315000019900B881AF8012B19440A7279680A887B8920
S315000019A0521C92FBF3FC03FB1C220A808A88521C01
S315000019B08A8009884D1EAD4103F090F8ED0F761C24
S315000019C05DB1351BEDB22A4641464846FFF7E6FCB7
S315000019D078682C19E4B200F10808F0B258450AD22A
S315000019E000213846FFF777FC0028CED1387B002847
S315000019F0F6D0222009E05C4506DAABEB040292B28F
S31500001A0041464846FFF7CAFC0020BDE8F28FF8B50C
S31500001A1001260746012F18BF202F0C4615460DD16B
S31500001A20FFF74AFC012F18BF202F05D180692A46EF
S31500001A30214602F00AFF06463046F2BD0120F2BDFD
S31500001A4000E100E080E100E080E200E02CE7032016
S31500001A50CC9F0300097000F07F14000000000140D5
S31500001A606C200E407CE703204C00014048000140FA
S31500001A701CE60320A4E6032048E70320ACDD032090
S31500001A802CDE032038B50446012C18BF202C1BD1B0
S31500001A90FFF712FC012C18BF202C054612D16868EE
S31500001AA080880028FBD1A86902F073FE0028F6D1D1
S31500001AB0A86902F027FE8006F1D5A86902F022FE89
S31500001AC08004ECD5002032BD012032BD70B505463C
S31500001AD0FFF7F2FB0646012D346818BF202D0DD105
S31500001AE0B06990F83110012908D0022102F078FD82
S31500001AF00020708200F00BF800F009F801F0E0FB1E
S31500001B000021A18021806180E180FFF743BC30463F
S31500001B10FFF7EDBC80B5012818BF202806D1FFF7D6
S31500001B20CBFB00281CBF0068002801D1012002BDA4
S31500001B30002002BD814233D210441144401E491E8A
S31500001B4010E011F8013900F80139121F11F80139B6
S31500001B5000F8013911F8013900F8013911F8013995
S31500001B6000F8013992B2042AEBDA93B2002B1EBFB9
S31500001B7011F8013900F80139521EF6D1704711F8F3
S31500001B80013B00F8013B121F11F8013B00F8013B35
S31500001B9011F8013B00F8013B11F8013B00F8013B4D
S31500001BA092B2042AEBDA93B2002B1EBF11F8013B66
S31500001BB000F8013B521EF6D1704710E011F8013BC8
S31500001BC000F8013B121F11F8013B00F8013B11F828
S31500001BD0013B00F8013B11F8013B00F8013B92B2D2
S31500001BE0042AEBDA93B2002B1EBF11F8013B00F872
S31500001BF0013B521EF6D17047130003D00A46194620
S31500001C0003F018B9704710B500E0521E93B223B125
S31500001C1000F005F8F9D0181B10BD002010BD10F813
S31500001C20013B11F8014BA342704700004178007850
S31500001C3001E00178407800EB012080B27047017026
S31500001C40090A417070470A0A02704170704710B560
S31500001C500023040014BF1C46C3F10304E4B25B1C5A
S31500001C600A55120A042BF4DB10BD30B5002405001A
S31500001C7014BF2546C4F10505EDB2641C4A55120A87
S31500001C8042EA03621B0A062CF1DB30BD30B54A7806
S31500001C908B78CC78097818B120461D460C4602E0B0
S31500001CA0154608461A4645EA002044EA022141EA5A
S31500001CB0004030BD10B5002300E05B1CDCB28C4256
S31500001CC005D210F8014B9442F7D0002010BD012038
S31500001CD010BD10B5002304E0541EE41A0C5DC45474
S31500001CE05B1C9342F8DB10BD10B5002480B14FF6A3
S31500001CF0FF7202E0944206D0641CA4B2035D002B7E
S31500001D00F8D1944204D179210FF2E00001F0E2F912
S31500001D10204610BD30B5994228BF1946002303E07E
S31500001D200833401C521C9BB203F10804A14203DB9A
S31500001D3004781578AC42F3D08B420CDA007812782E
S31500001D405040C0438024C0B201E064085B1C8B4253
S31500001D5001DA0442F9D198B230BDF8B555052D0E19
S31500001D6002F0070704460E462A46FFF7E3FE47B190
S31500001D70FF20615D725DF840014022EA00000843E1
S31500001D806055F1BD00210FF27802002805E000F051
S31500001D900F03D35C5918C9B20009F8D10846704739
S31500001DA06128A8BF572107DA4128A8BF372103DADF
S31500001DB03A28B4BF30210021401AC0B2704741080A
S31500001DC0400021F0AA3120F05530084381088000F8
S31500001DD021F0CC3120F0333008430109000121F015
S31500001DE0F03120F00F3008437047000062797465C7
S31500001DF02D7574696C69746965732E630000000043
S31500001E0000010102010202030102020302030304AC
S31500001E1080B50FF24C1003F0A9F803F0C5FE0FF2DF
S31500001E204C1003F0A3F804F0ADF80FF2501003F0D5
S31500001E309DF804F073FB0FF2501003F097F804F0CE
S31500001E40B1FCA1A003F092F805F0C2F80FF24C1015
S31500001E5003F08CF8DFF8DC0803F0DCF80FF24C1026
S31500001E6003F084F805F06EFA0FF2481003F07EF8DE
S31500001E7005F0E1FA0FF2481003F078F8DFF8B80839
S31500001E8003F0C8F80FF24C1003F070F8DFF8AC0856
S31500001E9003F0C0F80FF24C1003F068F8DFF8A00862
S31500001EA003F0B8F80FF2541003F060F8DFF8E0081A
S31500001EB003F0B0F80FF25C1003F058F8DFF8D4081E
S31500001EC003F0A8F80FF2601003F050F8DFF8C80826
S31500001ED003F0A0F80FF2681003F048F8DFF8BC082A
S31500001EE003F098F80FF26C1003F040F8DFF8B00832
S31500001EF005F086FB0FF2701003F038F806F0ECF8E8
S31500001F000FF26C1003F032F806F0A9FC0FF268101D
S31500001F1003F02CF8DFF8900803F07CF8DFF88C0863
S31500001F2003F078F80FF2601003F020F8DFF880086D
S31500001F3003F070F80FF2701003F018F806F02FFD9A
S31500001F400FF2701003F012F8DFF8680803F062F879
S31500001F50DFF8640803F05EF8BDE8014003F00AB854
S31500001F604D41432061726269746572004D414320A0
S31500001F70696E64697265637400000000726574724C
S31500001F8079207461626C6500364C6F5750414E2063
S31500001F90667261676D656E74730000006D756C74B2
S31500001FA06963617374207461626C650077616B6547
S31500001FB0757000006170706C69636174696F6E00A2
S31500001FC0666F726D2D656E657267792D7363616ECE
S31500001FD0000000006E6574776F726B206461746137
S31500001FE000000000736C656570792062726F616431
S31500001FF0636173742068656164657200676C6F6203
S31500002000616C2061646472657373207461626C65CF
S31500002010000000006C6F63616C20736572766572F8
S315000020202064617461000000626F726465722072E0
S315000020306F75746572204E442064617461000000FF
S315000020406368696C6420616464726573732074618B
S31500002050626C6500737461636B206576656E7420CF
S315000020607175657565000000436F41500000000002
S315000020704A50616B65000000436F6D6D697373694B
S315000020806F6E696E670000007363616E2072657320
S31500002090756C747320666F7220636F6D6D697373F0
S315000020A0696F6E657200000044544C53204A6F6994
S315000020B06E0000006C6F6F706261636B206D6573FC
S315000020C073616765730000005544500070B5DFF812
S315000020D060460546E0882A0601D4062D04D140F064
S315000020E0040005F07F0503E011B94FF6FB710840C7
S315000020F02E46022E1CBF032E042EE08008D0052E8D
S315000021000DD0062E18BF072E02D0F02100F06EF972
S31500002110A570A07804280CBF0120002001E003254B
S31500002120F6E707F004F8E0884FF6F4710840062E4B
S3150000213008BF40F0020004D0022E14BF032E40F068
S315000021400800E08070BD10B5F2B007F017F804F093
S315000021504AFA07F0AAFC09F07CFD09F09FFF0AF095
S31500002160C7F90AF003FA0AF0E6FF00F072FC00F085
S3150000217079FC0BF0AEF90CF0F5F801200DF07BFBC5
S315000021800EF05CF803F013FE0EF073F8DFF8A045CE
S315000021900020A0704FF6FE700DF0AEFC0020E0802F
S315000021A00EF0C7F90EF019FC10F01CFB11F031FD12
S315000021B006F0CEF906F0E6FBBC237F22082142A8F2
S315000021C012F022FD00F035F901A811F0C2FABDF8AF
S315000021D054014FF6FF71884236D0BDF8040098BB13
S315000021E0082342AA0E210DF106000EF0C0FC1023B2
S315000021F044AA03210EF0BBFC082348AA02210EF0D4
S31500002200B6FC08234AAA07210EF0B1FC10234CAAFB
S3150000221005210EF0ACFC10F05DFBBDF85421012148
S315000022200EF086FCDFF88427002110F04DFB032317
S3150000223057AA00210EF09BFC0DF10601401AADF8DD
S31500002240040001A811F0FAFABDF8040000281EBF28
S315000022509DF8020000280120002100F0F9F872B074
S3150000226010BD38B5DFF83C170FF28814002008803F
S3150000227002F014FE12F00CFDDFF82C074168C907C6
S3150000228003D5006810F0300F10D10FF2680529460B
S315000022900020FEF7E4FF29460120FEF7E0FF204676
S315000022A0BDE8344040F2AF1100F014BF12F08AFCD2
S315000022B020B14FF4DA71204600F00CFF12F0F5FD64
S315000022C00FF24C00DFF8684412F0C2FF607004F1B0
S315000022D0080005F0D2F8DFF8D81600200860DFF80D
S315000022E0D416086013F035F805F0A4F8BDE83140BF
S315000022F029E70000537461636B2F4861726477614C
S315000023007265204D69736D617463680D0A00000083
S31500002310000000000000000080B5FFF7A2FFBDE846
S315000023200240002005F073B838B504460DF00DFAEA
S31500002330DFF8845620B1A888002814BF01200220A7
S31500002340207003F0FEFC10B903F020FD58B103F035
S315000023500AFB40B100F009F828B105F10800BDE814
S31500002360324005F013B9002032BDDFF8480413F0FF
S3150000237001B810B500200DF0F1FDDFF84006007839
S3150000238018B10FF2340002F082FE12F07FFD13F056
S315000023902CFA13F0A5FA13F0B2FC03F07FFFDFF876
S315000023A0184604F1080005F0FDF86078BDE8104015
S315000023B012F076BF00000000111E000000000000B1
S315000023C0DFF8F405407812F06BBF80B503F0B9FC76
S315000023D018B940F2432100F009F80DF0DBF80020AF
S315000023E00DF08EFDBDE8014003F0C3BA0FF2040004
S315000023F000F070BE69702D737461636B2E6300000C
S3150000240080B50DF0D7F9BDE802400DF034BA0DF0F5
S3150000241069BBDFF8A4158979890758BF0DF04CBB55
S3150000242070470DF063BB0DF067BB0CF0FCBE006897
S31500002430009004237F220C21684612F0E5BB0CF0C5
S31500002440DFBEDFF87C057047DFF86C050078704763
S3150000245070B50446DFF8D802067804700D46C188C8
S31500002460032C05D141F40041C1800BF035FF02E099
S31500002470C1F30E01C180200004BF012006F057FE03
S315000024802A4631462046BDE8704014F0DEBBF8B55A
S3150000249006465E220021FFF7AFFBDFF8945228784C
S315000024A0012806F1280421D0DFF818751022B91C7E
S315000024B03046FFF73FFB06F1100000F0ADFA06F1DB
S315000024C0180000F0C3FA082207F1120106F12000F5
S315000024D0FFF730FB0DF00AFB20800CF091FEA07098
S315000024E0A878E0700CF090FE20712CE010F046F910
S315000024F00746102207F114013046FFF71BFB08229E
S3150000250007F1240106F12000FFF714FB082207F16A
S315000025102C0106F11000FFF70DFB07F1580004230C
S31500002520018821807F22807AA0700C210FF2B440AE
S3150000253000680090684612F067FB9DF80300207162
S315000025409DF80200E070A878032804D1A879000756
S315000025505CBF0520E070F1BD2DE9F0410446200086
S315000025600D4604D12846BDE8F041FEF78EBB012C8E
S3150000257004D1DFF85404FEF79AFB20E0022C20DB9E
S31500002580834E0021304612F00AFF022704E041463E
S31500002590304612F033FF7F1C80465FEA080010D0F9
S315000025A002F0D5FF00281CBF016A0029EFD0F9B25E
S315000025B0A142ECD1811C10222846FFF7BBFA01206C
S315000025C000E00020BDE8F0812DE9FF4104460F46FA
S315000025D06F4D0021284612F0E2FE1DE002F0B7FF23
S315000025E0060015D03078800612D5002C18BF002FB3
S315000025F007D03B4622463946B01CFFF78BFBB84254
S3150000260006D13388326AF169DBB2B01C14F079FC6A
S315000026104146284612F0F2FE80465FEA0800DDD108
S315000026200FF2C4300FC86C4684E80F000023002266
S315000026300021684614F065FCBDE8FF81AA210170FF
S31500002640BB214170CC218170DD21C1707047DFF85C
S315000026507C130A7882421CBF087014F062BF704770
S3150000266010B5044615F077F920B92046BDE81040AC
S315000026700AF07BBB10BD00B5F7B04FF481720021A4
S3150000268035A8FFF7B9FA35A811F0D8F835A811F032
S31500002690D7F8BC22002106A8FFF7AEFA4FF6FF7066
S315000026A0ADF86400BC2306AA7F21082012F0BCFA0C
S315000026B0042200216846FFF79FFA00F02DF8082251
S315000026C0002104A8FFF798FA082304AA7F21052011
S315000026D012F0AAFA0822002102A8FFF78DFA0823B1
S315000026E002AA7F21072012F09FFA09F007FB0AF0E1
S315000026F091FA00208DF80400042301AA7F2103200B
S3150000270012F092FA264804F0C5FEFFF71CFD0020E1
S3150000271015F0F9FE77B000BD04236A467F210C2030
S3150000272012F082BA0021DFF8A80204F07DBF000093
S31500002730B0F6032040FF03206CF7032082F8032045
S3150000274046FF032038B5DFF88852DFF8884228466E
S3150000275004F0BAFFDFF8800200780C2810D0206859
S31500002760142804D1012015F0CEFE002006E04FF417
S31500002770FA71284604F058FF2068401C206031BDDD
S31500002780002020600320BDE8324003F0B6BA000006
S315000027903EF80320A0FE0320A2FE0320A4FE032091
S315000027A0B8F6032015F0E0BF40F903209AFE032097
S315000027B088F9032092FE032094FE032070B57E4C18
S315000027C02078032888B07CD0012803BF824800788F
S315000027D00C28702076D108237F22052105A812F047
S315000027E013FA05A8FEF7C6F908237F22072103A8D6
S315000027F012F00AFA082203A97848FFF79BF9082382
S315000028007F22062101A812F0FFF901A80DF032FD82
S3150000281010F011F80FF0B2FF054605F15806B07A30
S3150000282003F035FA30880DF067F905F11400FFF76B
S315000028305BFAC1B205F114000BF07AFD05F1240034
S315000028400BF044FD05F12C0000F0C6FB0FF2A810BA
S31500002850FFF7EDFDBDF80000FFF7DBFD9DF9030076
S315000028600CF0E1FC9DF8020000F030F80AF0ADFC37
S3150000287009F04EFA0BF037F9A078062809D10021A5
S315000028800320FFF7E5FD01220021002008F016FDD8
S3150000289017E00DF027F9800502D10CF0CDFA10E013
S315000028A0A078032818BF042804D0022805D1A079EF
S315000028B0C00702D40CF007FB03E040F28151FFF79A
S315000028C095FD002015F0FCFD08B070BD0021FFF756
S315000028D0FDBB80B511F044FA0EF07FF80EF08EF8CD
S315000028E035488078062803D0BDE8014006F0D9BCFB
S315000028F001BD00B59FB007A8602100F09DFB07A8A9
S31500002900FFF7C5FD0FF2F400006800909DF848003F
S315000029108DF803000DF0E6F8ADF800006A4626488B
S315000029208078062818BF9DF847008DF8020004231A
S315000029307F210C2012F078F90FF2C40005A9D0E926
S315000029400023CDE905232648FEF757F9082305AAF3
S315000029507F21052012F068F90FF2AC001F49D0E97B
S315000029600023CDE9032303A80822FFF7E3F8082391
S3150000297003AA7F21072012F057F90FF2940012499B
S31500002980D0E90023CDE9012301A80822FFF7D2F8F8
S31500002990082301AA7F21062012F046F91FB000BDC8
S315000029A000000000D6F60320E881E00F00F8FF07DC
S315000029B068F8032090F80320B0F60320F8E303201C
S315000029C04CF80320B0F9032054F8032071FF0320CC
S315000029D08CE10320CCF60320C0E2032078F7032025
S315000029E08CF603200000000000000000000000003C
S315000029F000000000000000000000000000000000D1
S31500002A0000000000000000000000000000000000C0
S31500002A10000000000000000080B5DFF8EC150A7A1F
S31500002A2022B10822FFF786F8012002BD002002BD70
S31500002A3080B5DFF8D4150A7A32B10822FFF7E3F839
S31500002A40401E8041C00F02BD002002BD704700201D
S31500002A507047DFF8B40500210172418108220C306D
S31500002A60FFF7CAB8DFF8A015002048817047DFF8E5
S31500002A709C050078000700D5704710B5DFF8904533
S31500002A80207801280BD10121002008F07AFD10B131
S31500002A900020207010BDBDE81040FA2105E010BDF1
S31500002AA0DFF86C15012008706421DFF8680504F072
S31500002AB0BBBD2DE9F84B08B404468B46DFF84885C4
S31500002AC01646002108F10A0012F069FC012709E008
S31500002AD028883040B04223D0494608F10A0012F057
S31500002AE08DFC7F1C81465FEA09001AD002F02FFD9B
S31500002AF00500F1D03000EBD11CB9B8B25845EBD186
S31500002B000EE05B46AA1C59462046FFF703F95845D6
S31500002B10E2D19DF8000000281CBFA97C8B45DBD1C3
S31500002B202846BDE8F68BF8B504460D46DFF8D864AE
S31500002B30002106F10A0012F032FC04E0394606F1E3
S31500002B400A0012F05BFC0746380013D002F0FFFCC7
S31500002B500028F3D0821C2B4629462046FFF7DAF8D8
S31500002B60A842EBD1394606F10A00BDE8F84000223A
S31500002B7012F06EBCF1BD134600229AE780B5002222
S31500002B804021FFF7F8FF10B1007800F0010002BD08
S31500002B9038B504460D462846FEF798F8D0B92846BB
S31500002BA0FFF746FF70B100212846FEF761F828B10D
S31500002BB0FFF72DFC2146FEF754F82FE02046FEF7DE
S31500002BC064F82BE02878FF2813D1687800F00F000E
S31500002BD0032805DA2146DFF84004FEF768F81DE011
S31500002BE0062804DA2046BDE83240FEF74EB800203B
S31500002BF032BD002240212846FFF7BDFF10B1017803
S31500002C00890606D40023202200210020FFF751FF69
S31500002C1028B1811C10222046FEF78CFF012032BD10
S31500002C202DE9F041884682B00546002201210BE0DD
S31500002C303946301D00F010F918B1018841F40061E1
S31500002C40018032460121284611F029F8060026D0D7
S31500002C50F778052111F00DF8002418B1001DFEF7D4
S31500002C60E8FF04460421304611F003F818B1001DB0
S31500002C70FEF7DFFF0443002CE3D0E00406D55FEA4D
S31500002C8008000CBF42F210021522D1E72005D8D564
S31500002C905FEA080014BF0B2242F20802C8E7DFF819
S31500002CA068536889ADF802000020ADF8000068811D
S31500002CB003E00022314612F07AFB0DF1020012F019
S31500002CC059FB48BB00210DF1020012F0A1FB06469C
S31500002CD002F03DFC0028F0D00188CA0A4FF2FF73CB
S31500002CE002F00102194013000CD15FEA080314BF79
S31500002CF04FF6F8734DF6FF73194042F2010319427D
S31500002D0018BF01220180002A14BF05F10A00684697
S31500002D10CFE7002215F07EFD684612F02BFB90B936
S31500002D200021684612F074FB02F011FC0100F3D09A
S31500002D300A88881C897CD306EBD41207ECD50022BE
S31500002D4015F0A6FDE8E7BDE8F3812DE9F843164640
S31500002D501F4680460C4601230022FFF7AAFE050007
S31500002D601FD1A94D05F10A0012F009FB082805DA62
S31500002D700021282002F001FD814608B9002034E038
S31500002D800022494605F10A0012F011FB484602F0FE
S31500002D90DEFB050028D028220021FEF72DFFAC74AB
S31500002DA004E0288843F207010840288010224146A3
S31500002DB0A81CFEF7BFFE0020A884099C2888204393
S31500002DC02880089921B1082205F11300FEF7B2FE0A
S31500002DD0A00609D5EE612F62E3B23A463146404677
S31500002DE0FDF7B0FCFFF75CFE2846BDE8F283F0B5C0
S31500002DF00D4683B000F02CF8060003D12A46214682
S31500002E00012020E0802D44F2300705DA042106F186
S31500002E100A000CF0C9F806E010222146B01CFEF7A5
S31500002E2089FE4CF23007002000904FF4E1630197D1
S31500002E301A464021B01CFFF788FF002814BF002067
S31500002E4001202A46214603B0BDE8F04015F0FDBC3E
S31500002E500446002240218EE62DE9F041164686B052
S31500002E60044688460122FFF786FE07463006C00E56
S31500002E7000F001050822214602A8FEF75BFE002F9E
S31500002E8029D1F0060BD500F047F8070040D07007AF
S31500002E903ED401224146204615F0BCFC38E0002D08
S31500002EA036D001224146204611F066F905464FF616
S31500002EB0FE70854203D0FFF7AAFA854201D1B0071A
S31500002EC026D500F029F8070022D0012241462046E7
S31500002ED015F0DEFC1CE0FFF7E3FD387800F030006B
S31500002EE030280FD175B10020F86138623880002390
S31500002EF000220021B81CFDF725FC00224146204691
S31500002F0015F088FC388841F20701314008433880C3
S31500002F10384606B0BDE8F08104A800210022C0E9C9
S31500002F200012009101960023414602A80DE780B5E4
S31500002F3000F04EF820B100880006400F00F00100B6
S31500002F4002BD38B50446FDF7C1FE20B104F1080004
S31500002F50FDF73DFE32BD2046FFF76AFDE8B104F1FC
S31500002F600800FDF72BFEB0B904F10800FDF753FE8B
S31500002F7088B969462046FDF77BFE40B1BDF80000E2
S31500002F8013F0D7FC0546FFF742FA854203D02046E8
S31500002F90FDF758FE32BD012032BD2046FFF7C7FFC0
S31500002FA032BD70B5044600F013F878B10588A9065D
S31500002FB00CD5867C31462046FFF7B5FD05F01F028D
S31500002FC031462046FFF748FF012070BD002070BD46
S31500002FD00023002280216CE510B50B4C38B9FD208A
S31500002FE0207005220020E080601C0C4902E00146AA
S31500002FF008222046FEF79EFD012020722046BDE8ED
S315000030001040FDF7C4BE000034F80320B6F60320D6
S3150000301074FF0320C8E1032054F80320C2F90320FB
S315000030207047002200E0521C8A4203D210F8013B8E
S31500003030002BF8D110467047002215F067BCC9B2C4
S31500003040002203788B4208BF024610F8013B002B92
S31500003050F7D110467047000062B38B0708D0521EA6
S3150000306011F8013B00F8013B00F024808B07F6D1F4
S31500003070830740F0208000BF103A07D330B4B1E890
S315000030803810103AA0E83810F9D230BC530724BFE4
S31500003090B1E80810A0E8081044BF51F8043B40F816
S315000030A0043BD20724BF31F8022B20F8022B44BF81
S315000030B00B7803707047083A07D3B1E80810083A4E
S315000030C040F8043B40F804CBF7D25307E4E700008E
S315000030D042DE704738B504460D460CF05BFA15F033
S315000030E04AFC15F069FC2946204611F0D1FE2B4614
S315000030F0224669490120FEF7B2F829462046BDE876
S315000031003440E5E765482DE9F047654D01682E1D19
S315000031104FF420687165016AB16562490A68F26513
S3150000312049683166416A7166816AB166C16AF1664B
S31500003130016B3167806B706796F8340040074CBFAF
S31500003140F46BB46B15F0B5FC0022F2648442564A67
S31500003150014624BFA2F1200AA2452746316505F1A2
S315000031609003DFF848C1DFF848E118D3A06930645E
S31500003170E4697464746DC4F30804062C13D17045B5
S3150000318011D360450FD200884DF64264A0420AD1A1
S315000031903068586040F201787068986003E0002754
S315000031A03764776407464348814202D2014600E00D
S315000031B0091D0846904203D20C68B4F1CD3FF7D002
S315000031C03D49081AB0640021002005EB8004401C2C
S315000031D00628E167F9D3002003E0C0B205EB8004BE
S315000031E0E167974223D252F8041D7145F9D3614530
S315000031F0F7D2CC07F5D5002405EB8409D9F87C90E5
S31500003200894502D0641C062CF6D3062CE9D1002889
S3150000321014BF401E0520E0E7B16F002405EB8402D1
S31500003220641CD2F88070D767052CF7D31960014665
S31500003230481EC9B20029EFD1706DC0F308000328FB
S3150000324010D0042811D0052812D0062813D00C2837
S3150000325017D0122818D119480068800719D540F2EE
S31500003260025816E040F6012813E040F6022810E066
S3150000327040F603280DE0B8F5206F0AD140F6042881
S3150000328007E040F6052804E018B1432838BF40F6A9
S3150000329007284046BDE8F087189F030004ED00E0CC
S315000032A00000002000E300E0A0DB03206C8C03009C
S315000032B0DC0400009C000020A0DB03201C2005404D
S315000032C0EFF31180602181F3118870473023DFF816
S315000032D06824584310440C3000F1806007E0302326
S315000032E0DFF85424584310440C3000F1C06001222A
S315000032F002FA01F1016070471CB500931346049C65
S3150000330001940A4601F011FD13BD1930017E022910
S315000033100FD10278DFF82014007930235A43114484
S315000033201C31800000EB411000F184400068C0B2FF
S3150000333070470020704738B50022DFF8003453F894
S3150000334022104C7F844203D0521C042AF7D331BD8D
S3150000335021B301F12E04E07802281FD10D1D084685
S31500003360FFF7D3FF2874687C022804BF2078002862
S3150000337014D101F0DFF815F0AAFC297C09B16178B7
S3150000338029B100206070286815F070FC31BD28B99D
S315000033909DF8000010B1286815F05AFC31BD10B533
S315000033A0044604F1140082B0417F022910D141780D
S315000033B00A0003D0012906D0017821B9817A8079E3
S315000033C0FFF784FF18E0817A8079FFF788FF13E022
S315000033D0012911D1007800280CBF112013208DF887
S315000033E00000204601F0B5FA01226946204601F0A8
S315000033F02CFA204601F0F2FA002016BD2DE9F04124
S31500003400044688461646FFF75BFF0546A088E18816
S31500003410884206D300203060284601F05FFBC8488A
S315000034201CE02088142778432044142241460830A3
S31500003430FFF712FE20887843204408303060208849
S31500003440E188401C90FBF1F201FB12002080A0886D
S31500003450401CA080284601F041FB0020BDE8F08119
S3150000346038B504460D46FFF72BFFA18809B9296038
S3150000347024E061881422514321440831296061887F
S31500003480E288491C91FBF2F302FB13116180A188CB
S31500003490491EA1800EE038B505460C46FFF710FF21
S315000034A0A98809B9216009E0698814225143294491
S315000034B00831216001F012FB002032BD01F00EFB45
S315000034C0A04832BD90F832100A000BD102680121E3
S315000034D0D16000680169C907FCD5416F41F001015F
S315000034E04167704701290ED10168496C8907FBD4F1
S315000034F002680121516000688168C907FCD5416DE9
S3150000350041F001014165704790F832100A0008D178
S3150000351001684A6F520852004A6702210068C1607A
S31500003520704701290CD10168496C8907FBD40168F1
S31500003530496D0268490849005165022100684160E9
S31500003540704710B500F12C0286B0012313709379F1
S315000035501C0013D10268049002F11C030FF27102E1
S315000035600392002202924A680192012200920A689E
S315000035700169806815F051FB06B010BD012BE9D03A
S3150000358000201070F8E710B500F12D0286B0012377
S31500003590137053791C0012D1026834320FF21513DE
S315000035A003930490002302934B6801930123009335
S315000035B00B68C168406815F02AFB06B010BD012BE8
S315000035C002D102682832E9E700201070F5E7000012
S315000035D0F8B514466946606AFFF75DFF59498842A7
S315000035E060D004F12C055849A879020008D1226858
S315000035F0126C920504D500F057F84FF4007014E0F1
S315000036000246012A07D12368DB6A1B0603D500F0B0
S315000036104BF8802015E04D4950B92068006CC00574
S3150000362006D500F041F84FF48070216888640DE0FB
S31500003630012A09D12068C06A400605D500F034F891
S3150000364040202168486301E000F060F8FFF738FE8B
S3150000365006460098C768380009D000980099406867
S315000036608968431A0098026801692046B847606A6B
S315000036706946FFF7F5FE606A818821B101F03FF8DF
S3150000368001F09EF90CE0012020752046FFF787FE29
S3150000369000202870687903281CBF2046FFF734FFF6
S315000036A001F0DEF90120F2BD0098016100200099C9
S315000036B088607047F8B5144604F1280569462868FD
S315000036C0FFF7E9FE1F4988421ED000F01FF8FFF7FA
S315000036D0F7FD06460098C768380005D0009843688D
S315000036E0026800212046B84728686946FFF7B8FEF9
S315000036F02868818821B101F002F801F0ACF901E0F7
S315000037000020687101F0ACF90120F2BD009900209B
S31500003710086100998860704710B9DFF8E40A7047BD
S31500003720002918BF002A02D0B2F5006F02D9DFF8CF
S31500003730D40A70470020704700A00040F0F1032033
S315000037400A7000F00B7000F00D7000F00C7000F0C5
S3150000375010B50368DFF8B04AFF22A34240F05E814D
S315000037600B7A1C0018BF012B07D0022B18BF032BA6
S3150000377003D0042B18BF052B01D100233AE0062BFA
S3150000378018BF072B04D0082B1CBF092B0A2B01D10D
S3150000379001232FE00B2B18BF0C2B07D00D2B18BFC6
S315000037A00E2B03D00F2B18BF102B01D1022321E0C3
S315000037B0112B18BF122B08D0132B18BF142B04D0B3
S315000037C0152B1CBF162B172B01D1032312E0182B28
S315000037D018BF192B0BD01A2B18BF1B2B07D01C2B6D
S315000037E018BF1D2B03D01E2B18BF1F2B01D105237D
S315000037F000E0FF2300F012FD18BF012B40D0022B82
S315000038001CBF032B042B3BD0052B18BF062B04D063
S31500003810072B1CBF082B092B01D1012333E00A2BF0
S3150000382018BF0B2B07D00C2B18BF0D2B03D00E2B5C
S3150000383018BF0F2B01D1022325E0102B18BF112B27
S3150000384008D0122B18BF132B04D0142B1CBF152B1A
S31500003850162B01D1032316E0172B18BF182B0BD0FC
S31500003860192B18BF1A2B07D01B2B18BF1C2B03D0E4
S315000038701D2B18BF1E2B01D1052304E01F2B01D1E0
S31500003880002300E0FF2300F0C5FC3ED0012B18BF4B
S31500003890022B59D0032B1CBF042B052B54D0062B0F
S315000038A01FD0072B21D0082B23D0092B25D00A2B7C
S315000038B027D00B2B41D00C2B43D00D2B08BF082350
S315000038C042D00E2B05D00F2B07D0102B09D0112B71
S315000038D001D1092338E0122B01D10A2334E0132B3E
S315000038E001D10B2330E0142B01D10C232CE0152B36
S315000038F001D10D2328E0162B01D10E2324E0172B2E
S3150000390001D10F2320E0182B01D100231CE0192B35
S3150000391008BF012318D01A2B08BF022314D01B2B73
S3150000392008BF032310D01C2B08BF04230CD01D2B6B
S3150000393008BF052308D01E2B01D1062304E01F2B48
S3150000394001D1072300E0FF2300F060FC3FD0012BEC
S3150000395041D0022B43D0032B45D0042B47D0052B57
S315000039601FD0062B21D0072B23D0082B25D0092BBF
S3150000397027D00A2B3FD00B2B41D00C2B08BF082297
S3150000398042D00D2B05D00E2B07D00F2B09D0102BB4
S3150000399001D1092238E0112B01D10A2234E0122B81
S315000039A001D10B2230E0132B01D10C222CE0142B79
S315000039B001D10D2228E0152B01D10E2224E0162B71
S315000039C001D10F2220E0172B1DD0182B01D1012287
S315000039D01AE0192B01D1022216E01A2B01D103227B
S315000039E012E01B2B01D104220EE01C2B01D1052273
S315000039F00AE01D2B01D1062206E01E2B01D107226B
S31500003A0002E01F2B00D1002202774A7C42768A7C94
S31500003A104277CA7C8276097D00F007BCDFF8004950
S31500003A20A34240F048810B7A1C0018BF012B07D037
S31500003A30022B18BF032B03D0042B18BF052B01D173
S31500003A4000233AE0062B18BF072B04D0082B1CBF17
S31500003A50092B0A2B01D101232FE00B2B18BF0C2BAE
S31500003A6007D00D2B18BF0E2B03D00F2B18BF102B12
S31500003A7001D1022321E0112B18BF122B08D0132BE2
S31500003A8018BF142B04D0152B1CBF162B172B01D1D6
S31500003A90032312E0182B18BF192B0BD01A2B18BFB3
S31500003AA01B2B07D01C2B18BF1D2B03D01E2B18BF9A
S31500003AB01F2B01D1052300E0FF2300F0AFFB18BF49
S31500003AC0012B40D0022B1CBF032B042B3BD0052B14
S31500003AD018BF062B04D0072B1CBF082B092B01D1BE
S31500003AE0012333E00A2B18BF0B2B07D00C2B18BF72
S31500003AF00D2B03D00E2B18BF0F2B01D1022325E06F
S31500003B00102B18BF112B08D0122B18BF132B04D063
S31500003B10142B1CBF152B162B01D1032316E0172BD4
S31500003B2018BF182B0BD0192B18BF1A2B07D01B2B1D
S31500003B3018BF1C2B03D01D2B18BF1E2B01D105232C
S31500003B4004E01F2B01D1002300E0FF2300F062FBFD
S31500003B503ED0012B18BF022B59D0032B1CBF042BC0
S31500003B60052B54D0062B1FD0072B21D0082B23D092
S31500003B70092B25D00A2B27D00B2B41D00C2B43D059
S31500003B800D2B08BF082342D00E2B05D00F2B07D0D4
S31500003B90102B09D0112B01D1092338E0122B01D1AA
S31500003BA00A2334E0132B01D10B2330E0142B01D16F
S31500003BB00C232CE0152B01D10D2328E0162B01D167
S31500003BC00E2324E0172B01D10F2320E0182B01D15F
S31500003BD000231CE0192B08BF012318D01A2B08BF9D
S31500003BE0022314D01B2B08BF032310D01C2B08BFA5
S31500003BF004230CD01D2B08BF052308D01E2B01D192
S31500003C00062304E01F2B01D1072300E0FF2300F069
S31500003C10FDFA38D0012B39D0022B3AD0032B3BD0FA
S31500003C20042B3CD0052B1DD0062B1ED0072B1FD0F6
S31500003C30082B20D0092B21D00A2B33D00B2B34D0C4
S31500003C400C2B08BF08223FF4DFAE0D2B04D00E2B41
S31500003C5005D00F2B06D0102B3FF49BAE112B3FF453
S31500003C609CAE122B3FF49DAE132B3FF49EAE142B4D
S31500003C703FF49FAE152B3FF4A0AE162B3FF4A1AE3A
S31500003C80172B17D0182B3FF4A2AE192B3FF4A3AE77
S31500003C901A2B3FF4A4AE1B2B3FF4A5AE1C2B3FF40E
S31500003CA0A6AE1D2B3FF4A7AE1E2B3FF4A8AE1F2BCE
S31500003CB07FF4AAAEA7E6DFF87048A34240F04A8137
S31500003CC00B7A1C0018BF012B04D0022B1CBF032B40
S31500003CD0042B01D100233AE0052B1CBF062B072B32
S31500003CE001D1082333E0082B31D0092B18BF0A2B4A
S31500003CF004D00B2B1CBF0C2B0D2B01D1012326E06E
S31500003D000E2B18BF0F2B18D0102B18BF112B14D049
S31500003D10122B18BF132B10D0142B18BF152B0CD039
S31500003D20162B18BF172B08D0182B18BF192B04D029
S31500003D301A2B1CBF1B2B1C2B01D1052307E01D2BA7
S31500003D401CBF1E2B1F2B01D10A2300E0FF2300F00E
S31500003D5065FA18BF012B40D0022B18BF032B3CD0AD
S31500003D60042B18BF052B03D0062B18BF072B01D138
S31500003D70082335E0082B18BF092B04D00A2B1CBFDB
S31500003D800B2B0C2B01D101232AE00D2B18BF0E2B78
S31500003D9018D00F2B18BF102B14D0112B18BF122BB5
S31500003DA010D0132B18BF142B0CD0152B18BF162BA5
S31500003DB008D0172B18BF182B04D0192B1CBF1A2B91
S31500003DC01B2B01D105230BE01C2B1CBF1D2B1E2B0F
S31500003DD001D10A2304E01F2B01D1002300E0FF23B9
S31500003DE000F018FA27D0012B29D0022B2BD0032B59
S31500003DF02DD0042B2FD0052B49D0062B4BD0072BCB
S31500003E004DD0082B0FD0092B19D00A2B1BD00B2B0A
S31500003E101DD00C2B1FD00D2B21D00E2B37D00F2BE6
S31500003E2039D0102B01D103233CE0112B08BF04230A
S31500003E3038D0122B01D1052334E0132B01D10623F0
S31500003E4030E0142B01D107232CE0152B01D10823D8
S31500003E5028E0162B01D1092324E0172B01D10A23D0
S31500003E6020E0182B08BF0B231CD0192B08BF0C23EE
S31500003E7018D01A2B08BF0D2314D01B2B08BF0E23F6
S31500003E8010D01C2B08BF0F230CD01D2B01D10023F3
S31500003E9008E01E2B01D1012304E01F2B01D10223D0
S31500003EA000E0FF2300F0B2F925D0012B26D0022B2B
S31500003EB028D0032B29D0042B41D0052B42D0062B2A
S31500003EC043D0072B0ED0082B15D0092B16D00A2B62
S31500003ED018D00B2B19D00C2B1AD00D2B2FD00E2B44
S31500003EE030D00F2B3FF47BAD102B08BF04220AD035
S31500003EF0112B2ED0122B3FF47EAD132B3FF47FAD4A
S31500003F00142B01D108227FE5152B3FF442AD162B69
S31500003F103FF443AD172B08BF0B22F4D0182B08BF74
S31500003F200C22F0D0192B08BF0D22ECD01A2B08BF9B
S31500003F300E22E8D01B2B08BF0F22E4D01C2B3FF427
S31500003F4062AD1D2B3FF443AD1E2B3FF444AD1F2B3A
S31500003F50D9D14CE5DFF89847A34240F04F810B7A60
S31500003F601C001CBF012B022B09D0032B43D0042BB2
S31500003F7018BF052B03D0062B18BF072B01D103232F
S31500003F8039E0082B37D0092B08BF082333D00A2B7A
S31500003F9018BF0B2B07D00C2B18BF0D2B03D00E2BE5
S31500003FA018BF0F2B01D1012325E0102B14BF112BB5
S31500003FB0092320D0122B18BF132B07D0142B18BFA0
S31500003FC0152B03D0162B18BF172B01D1022312E095
S31500003FD0182B18BF192B04D01A2B1CBF1B2B1C2BFC
S31500003FE001D1052307E01D2B1CBF1E2B1F2B01D162
S31500003FF00A2300E0FF2300F011F91CBF012B022B5E
S3150000400040D0032B41D0042B1CBF052B062B39D0E7
S31500004010072B0CBF0823082B37D0092B18BF0A2BF8
S3150000402007D00B2B18BF0C2B03D00D2B18BF0E2B54
S3150000403001D1012329E00F2B14BF102B092324D013
S31500004040112B18BF122B07D0132B18BF142B03D01C
S31500004050152B18BF162B01D1022316E0172B18BFFC
S31500004060182B04D0192B1CBF1A2B1B2B01D105238F
S315000040700BE01C2B1CBF1D2B1E2B01D10A2304E0B9
S315000040801F2B01D1032300E0FF2300F0C3F81BD050
S31500004090012B1DD0022B1FD0032B39D0042B3BD074
S315000040A0052B3DD0062B3FD0072B41D0082B4BD0FC
S315000040B0092B21D00A2B08BF062348D00B2B08BF9B
S315000040C0072344D00C2B01D1082340E00D2B01D14E
S315000040D009233CE00E2B01D10A2338E00F2B17D021
S315000040E0102B21D0112B23D0122B25D0132B27D008
S315000040F0142B29D0152B01D1032328E0162B08BF3A
S31500004100042324D0172B08BF052320D0182B01D158
S315000041100B231CE0192B01D10C2318E01A2B01D11B
S315000041200D2314E01B2B01D10E2310E01C2B01D113
S315000041300F230CE01D2B01D1002308E01E2B01D11B
S31500004140012304E01F2B01D1022300E0FF2300F02E
S315000041505DF81AD0012B1BD0022B34D0032B35D09F
S31500004160042B36D0052B37D0062B38D0072B3FD063
S31500004170082B1CD0092B08BF062221D00A2B08BF0A
S3150000418007221DD00B2B38D00C2B3FF402AC0D2B85
S315000041903FF403AC0E2B16D00F2B1DD0102B1ED0C8
S315000041A0112B1FD0122B20D0132B21D0142B3FF410
S315000041B016AC152B08BF042202D0162B08BF052209
S315000041C03FF422AC172B3FF4ECAB182B3FF4EDABCE
S315000041D0192B3FF4EEAB1A2B3FF4EFAB1B2B3FF43E
S315000041E0F0AB1C2B3FF40FAC1D2B3FF4F0AB1E2B9A
S315000041F03FF4F1AB1F2B7FF407AC83E612E000001F
S31500004200027000F0037000F000000140C3764B7AA4
S315000042101C00704703760B7A1C007047C3754B7AF7
S315000042201C007047DFF8540810BD8177002010BDD0
S3150000423010B500F1170482B00A00217920781DD04C
S315000042400123042200F0ACFD61796078012302228B
S3150000425000F0A6FDA07E022809D100F034F8E1792D
S31500004260E0780023042200F09BFD012017E00328DC
S3150000427027D100F028F8002304221EE0002300F0D6
S315000042808FFD6179607800F026F8A07E02280ED1B5
S3150000429000F01FF8E179E07800F01DF800200090AA
S315000042A001230122A179A078FFF726F809E0032867
S315000042B007D100F00EF800230022E179E07800F043
S315000042C06FFD002016BDA179A0780023012200F021
S315000042D067BDA179A0780023002200F061BD10B56A
S315000042E0DFF89C27DFF89C1713783BB9002441F8C8
S315000042F023405B1C042BFAD301231370002251F8D0
S315000043002230002B18BF834203D141F8220000203F
S3150000431010BD521C042AF2D3DFF86C0710BD000052
S315000043200004014040F8241F002103681980036837
S3150000433059800368998001724260118042685180F9
S31500004340426891804172C172704710B5044614F0FC
S31500004350ECFD607FDFF8341714F0F5FD0020A07542
S315000043602075022060752046BDE81040FFF717B89B
S3150000437038B5044614F022FC0021201D14F0BEFBC3
S31500004380DFF80C5728B9002104F1080014F0B6FB39
S3150000439000B1284632BDF0B587B004460D466846E2
S315000043A0DFF8F0161C22FEF767FE14B9DFF8D80610
S315000043B0B7E0002D78D034212046FEF73DFE20469A
S315000043C0FFF78DFF0700F3D104F13100297C01705E
S315000043D029682160002141702868DFF8BC168842F0
S315000043E03CD1DFF8B8062062DFF8B406E0604FF48F
S315000043F040202061EA69A9692046FFF793FF6868B3
S31500004400029001216889ADF81000A889ADF80E0068
S31500004410A87B8DF80C00E87B8DF8120005208DF83E
S315000044200D00DFF8800614F091FE00F088F8206A8F
S31500004430012114F08BFE00F07CF800F086FB286862
S31500004440DFF8642603214167816F00F07DF88167FC
S3150000445020462946FFF77CF948B362E0DFF84C16A0
S31500004460884208D1DFF848062062DFF84806E06097
S315000044704FF45020BDE72C49884208D1DFF83806B2
S315000044802062DFF83806E0604FF46020B1E7DFF81D
S315000044906012884208D1DFF828062062DFF8240679
S315000044A0E0604FF47020A4E7DFF8D00539E000F0B3
S315000044B03DF8002835D1FEF703FF0646287C032881
S315000044C010D12868416F41F030014167416E41F0DB
S315000044D00401416695F8212095F8201041EA022151
S315000044E0C16704E0022804BF2046FFF72EFF2868B4
S315000044F04FF0FF318164297C03290CBF052104217B
S3150000450000F01CFB29684FF44060C86014F056FBAD
S315000045102046FFF72DFF00F0A2FA002F14BF384601
S31500004520002007B0F0BD0000000801400121204630
S315000045307EE600208DF80000694628687047012154
S31500004540DFF8840514F002BE11402A7A41EA0221FE
S315000045506A7A1143704738B5040002D1DFF828059E
S3150000456032BD032100F03CF80021204600F045F959
S315000045700021FFF7DCFF04F131056878010006D160
S3150000458021680220C86008202168C8600AE0012866
S3150000459008D1206800F074FB2068416C8907FCD4C0
S315000045A00A2141600021206A14F0D0FD28780328F2
S315000045B003D0607F002114F0C6FC606814F0E4FAB2
S315000045C0A06814F0E1FA14F0C0FA606A00210180D4
S315000045D041808180A06A018041808180002032BDB7
S315000045E02DE9F0435FEA000883B00D4608BFDFF807
S315000045F098047BD0FEF764FE012D814608F12C0657
S3150000460008F10407DFF8C44415D1786A808810B32E
S31500004610386814F043FB00207070786A818879B39B
S3150000462000F06DF8009800F10801386814F072FB8C
S315000046300098046120E0022D03D1386A808840BBCF
S3150000464009E0032D23D1786A8088002802BF386AE2
S3150000465080880028DCD1484600F040FADFF8700474
S3150000466044E06946FEF7FCFE0098D0F80CC0BCF1A9
S31500004670000F01D000F03EF8786A81880029F0D159
S31500004680404600F03FF88004FAD5022D01D0032DF4
S3150000469028D1786814F002FB00203070386A8188CF
S315000046A0D1B101A9FEF7F7FE019800F1080178687B
S315000046B014F030FB019804610AE001A9FEF7D0FE70
S315000046C00198D0F80CC0BCF1000F01D000F012F830
S315000046D0386A81880029F0D1707903281CBF4046CA
S315000046E0FEF712FF484600F0F9F90020BDE8FE8308
S315000046F0000C014083680022214640466047694617
S31500004700FEF7C9BE90F832200021130002D10068DE
S3150000471001691EE0012A1CD100688068820748BF33
S315000047200221C20748BF41F00101420748BF41F0DC
S315000047300801020748BF41F02001C20648BF41F008
S315000047404001820648BF41F08001400648BF41F45F
S31500004750005108467047406A1CE02DE9FC4100F014
S3150000476046F8606A818816461F4671B1FFF7C7FF93
S315000047708046A06801A914F0CDFA009828B1B8F1D6
S31500004780000F02D100F02AF802E000203860306005
S315000047901EE0806A8088C0B270472DE9FC4100F0B7
S315000047A026F8A06A818816461F4671B1FFF7A7FF53
S315000047B08046606801A914F0ADFA009828B1B8F1F6
S315000047C0000F02D100F00AF802E0002038603060E5
S315000047D028602046FFF796FFBDE8F68140680199FC
S315000047E0401A3060019838600098006870470446A7
S315000047F00020009001900D46704700F11402537F8F
S31500004800032B02D1DFF8CC0270475170022918BF82
S315000048101170FEF7C4BD000010B500F11602D37E7C
S31500004820012B01D1022900D1EFE014788C4208D087
S31500004830117011B900F0D2F803E0012908BF00F0A9
S3150000484088F8002010BD007D70472DE9F041044630
S3150000485088461646FEF760FF002878D1092015F035
S31500004860DDF8054604F12E0702E00DB114F066FAF4
S31500004870A06A808810B138780028F6D0387901000F
S3150000488002D12168096905E0012818BF002522D157
S315000048902168896811F002051DD101000BD121683C
S315000048A00420C860206801698907FCD5416F41F082
S315000048B0020141670FE001280DD12068416C89078C
S315000048C0FBD404214160206881688907FCD5416DCD
S315000048D041F0020141650120B8703879010006D027
S315000048E0012819D110E018F8011B00F0A8F931468B
S315000048F04E1E20680029F6D101698906FCD50BE019
S3150000490018F8011B00F0D5F931464E1E2068002923
S31500004910F6D181680907FCD5C5B93879010008D1F7
S315000049202068416F21F00201416708202168C860B4
S315000049300CE001280AD12068416C8907FBD4416D3F
S3150000494021F0020141650820216848600020BDE889
S31500004950F08110B5040001D1FFF7DEBC94F82E00FB
S3150000496030B92046FEF7D1FC10B9606814F070F932
S3150000497094F82E00401C84F82E00002010BDF0B5DF
S3150000498087B000F070F8A0B900F061F800F01CF8EC
S31500004990049700F010F860B9287E48B92046FEF763
S315000049A091FD00F00DF8687F032801D000F011F8A2
S315000049B0002007B0F0BD6A46286901A9FEF71EBDB2
S315000049C000992046FEF7BDBD04F114054248059046
S315000049D07047002028702046FEF7E1BC10B50400A1
S315000049E001D1FFF799BC94F82E0070B194F82E000F
S315000049F0012806D12046FEF788FC10B9606814F03D
S31500004A0035F994F82E00401EB5E7324810BDF0B5D2
S31500004A1087B000F028F8C0B900F019F800F029F8BE
S31500004A2004976A462868FFF7C8FF70B9687958B9CD
S31500004A30FEF746FC06462868808818B100F00BF899
S31500004A400120287200F00CF8002007B0F0BD019597
S31500004A5002960396704700992046FEF794BD0746D6
S31500004A60304600F03BB804460D4616461F46FEF794
S31500004A7053BE04F12805184805907047037000F0EE
S31500004A806BFF0320F0F10320027000F037330000C3
S31500004A900E7000F088C503000000014000420400CB
S31500004AA001000C0040410500E0E0FFFF000401406A
S31500004AB00052040001000D000062040001000E0017
S31500004AC00072040001000F0000350800097000F0B4
S31500004AD0087000F0057000F0017000F080F3118896
S31500004AE07047000070B50446080015461E4604BF10
S31500004AF0484814F05BFB310006D0202E18D0402E1B
S31500004B0018D0602E18D070BD1021226822F06002E5
S31500004B10226069432268324322604A0802EB401051
S31500004B20B0FBF1F020383C4901EAC000606170BD7D
S31500004B300821EAE70621E8E70421E6E7CA4352002E
S31500004B4002F00A02C260C160704738B504460D46DD
S31500004B5000F039F8A87C18B1206840F08040206049
S31500004B60E87C18B1287D40F08000A065687BB5F927
S31500004B7010100843B5F90E10084360602B7BAA6835
S31500004B8069682046FFF7AEFF00F00CF8606F20F072
S31500004B9030006067606F297E08436067FFE728780A
S31500004BA0E06031BDA87DE97D0007090500F0E04021
S31500004BB001F4E00108432066687D18B1206840F4DE
S31500004BC080302060704740F6AA61C1600021016014
S31500004BD041F205014160002181604161C1640F4BD2
S31500004BE00F49104A8164002141678167C167984275
S31500004BF018BF90420C4904D00C4B984218BF88420B
S31500004C0001D10023036500238365904214BF8842C7
S31500004C10C365704740410500F8FF7F000000014072
S31500004C20F9FF010000040140000C014000080140AA
S31500004C3001690906FCD5FFE7C069C0B27047026981
S31500004C405206FCD541637047026CD20702D4426C0F
S31500004C500A42FCD1704738B500F00EF8E843400030
S31500004C6000F00A002843606031BD19B1416C00298B
S31500004C70FCD10121016470470D4604460221E3E799
S31500004C8010B504460121FFF7F0FFEA20606000211D
S31500004C9000202060E06020616061A06340F2F9704E
S31500004CA060630020E0636065A0652046BDE81040B3
S31500004CB0DBE738B500F005F8402100F00AF8A562F8
S31500004CC031BD04460D46A068C006FCD5704760603D
S31500004CD002212046B8E70000890001EB401000F1F0
S31500004CE084400260704700F1806300F1C060196083
S31500004CF0026070473023464A584310440C3000F196
S31500004D00806006E03023424A584310440C3000F1DC
S31500004D10C060012202FA01F1016070473D490A684C
S31500004D20920840EA8200086070472DE9F04101F0E0
S31500004D300308144603270F21082C1D460CD2A60093
S31500004D4000FA06F2B1403448FFF7CDFF08FA06F242
S31500004D5007FA06F131480DE0A4F10802960000FAC0
S31500004D6006F2B1402E48FFF7BEFF08FA06F207FA30
S31500004D7006F12C48FFF7B7FF2A4621462A482B4D55
S31500004D80FFF7AAFF069A21462846FFF7A5FF01204E
S31500004D90A04028612146079A2548BDE8F0419BE7D7
S31500004DA0F8B50446164630000D461F4607D0002FBC
S31500004DB0204602D0FFF7A6FF01E0FFF79BFF302158
S31500004DC00F22134811FB04F1082D084405D2AB004D
S31500004DD0416800F015F8416006E0A5F108039B0064
S31500004DE0816800F00DF881604EB9002F29462046F3
S31500004DF002D0BDE8F44085E7BDE8F4407AE7F1BDAE
S31500004E009A4021EA020206FA03F1114370470000B4
S31500004E1000A0004044A4004000A4004008A40040B4
S31500004E2004A400400CA4004010A4004014A40040B8
S31500004E3028A4004062F30F2262F31F42401810F0CC
S31500004E40030308D0C91A1FD3DB0748BF00F8012D9A
S31500004E5028BF20F8022D130030B414461546103929
S31500004E6028BF20E93C00FAD8490728BF20E90C00F2
S31500004E7048BF40F8042D890028BF20F8022D48BFFE
S31500004E8000F8012D30BC7047C91818BF00F8012D75
S31500004E90CB0728BF00F8012D7047000010B5DFF8DA
S31500004EA0DC4A13F00DFE606113F006FEA061606936
S31500004EB0E06118B100F007F8652803DABDE8104094
S31500004EC09D21A3E010BD10B5DFF8B04AA069E169E5
S31500004ED0884202D2AF2100F0F3FBA069E169401AD3
S31500004EE04FF6FE71084010BDDFF8901A4A699042ED
S31500004EF003D3C969884200F039BD002070470028F5
S31500004F0018BFFFF7F1BF0120704730B1DFF86C1A08
S31500004F104969401A4010401C80B27047010001D117
S31500004F2000207047DFF8541A496901EB4000801EE3
S31500004F3070474088C0F30C00C01C0004800C400081
S31500004F40001D80B2704710B50446FFF7F2FF04EB70
S31500004F504000DFF8281A4FF6FF7300E0801CCA698C
S31500004F60904202D202889A42F8D010BDDFF8101A99
S31500004F7008607047DFF8081A0FF28400086070476F
S31500004F802DE9F843DFF8F45980462889A0B3B8F82C
S31500004F900200000430D4DFF8E8490FF2640120680B
S31500004FA0DFF8E09914F060FD20B94FF4BA71484675
S31500004FB0FEF790F8002701E07F1CBFB228898742E0
S31500004FC004DB4FF4BB714846FEF784F8286A216873
S31500004FD000EBC706306808B9316003E014F044FD01
S31500004FE00028E9D1B088401CB0804046FFF7A1FFF9
S31500004FF0F18801EB4000F080BDE8F183000000007D
S31500005000756E636C61696D65640000000FF684302F
S31500005010FEF760B870B50446DFF8600980780128AD
S315000050201AD12088FFF77AFF04002FD002252646E2
S315000050303046FFF7A5FF708840F40040708036F8D0
S315000050401500FFF76BFF060002D070880004EFD54D
S315000050506D1C042D1ADAEAE7022817D1FEF730F99B
S3150000506005462088FFF75AFF06000AD0708880049C
S3150000507003D540F2392100F023FB3088C0F30E003F
S3150000508020802846BDE87040FFF728BD70BD00B5FA
S31500005090ADF5806DADB04FF49662694600F073F8D9
S315000050A00DF5806D2DB000BD2DE9F8430746884605
S315000050B0FFF73FFF45007888C0F30D007880800435
S315000050C022D5FEF7FDF804463846FFF71EFF814657
S315000050D04046FFF71AFF0646AAB239464046FCF795
S315000050E029FD0020DFF8941806E001EB40029389C1
S315000050F04B4508BF9681401C0A789042F5DB204656
S31500005100BDE8F243FFF7EABCAAB239464046BDE81D
S31500005110F843FCF70FBD10B50C4601E0FFF713FF8F
S31500005120A04202D241880904F8D510BD70B5DFF857
S315000051304C580446A878012804BF686A00281DD187
S31500005140204610F01CF9022818DB0021204610F03A
S3150000515026F90DE0012100F0A0FA78B93046FFF7F4
S31500005160DDFE0088000409D43146204610F046F9D9
S3150000517006463000EED16C62012070BD2046FFF776
S3150000518049FF002070BD2DE9F74FDFF8F0470020FA
S31500005190E080606292B0FEF793F80121A1704FF0B3
S315000051A0000AA188ADF802100021A180E1690191F1
S315000051B0FFF794FC2089C200206A92B20021FCF716
S315000051C01BFD0DF10200FFF725FFFEF779F82178A8
S315000051D062785518FFF782FCEDB206E004EB460054
S315000051E00C30FFF717FF06F1010A5FFA8AF6AE42A6
S315000051F0F4DB129848B1002501E080476D1C129837
S31500005200EDB250F825000100F7D1D4F814904FF014
S31500005210000B01250DF1080A0198814502D3BBF167
S31500005220000F37D0BBF1000F06D0ABF101005FFADB
S3150000523080FB5AF82B8004E04846FFF784FEC846F8
S315000052408146B8F8020000F44041B1F5004FE3D1C1
S3150000525040F48040A8F80200022638F81600FFF74E
S315000052605DFE070012D0788801040FD440F4004098
S3150000527078803846FFF784FEBBF1100FBDBF4AF8B1
S315000052802B700BF101005FFA80FB0025761C042EC3
S31500005290E3DBC1E7002DB8D0656A55B12888FFF772
S315000052A03DFE6888000447BF002060622846FFF77D
S315000052B0B1FE0020ADF800008246606A0025A0B36A
S315000052C00088002100F0E9F9ADF80000002100F0A7
S315000052D0E4F90646BDF8000000F051F905463046EF
S315000052E000F04DF98246BDF8500050451ADB3000FB
S315000052F018D000F044F90746304600F028F9014678
S3150000530013983A46FCF716FC3046FFF707FE18B12D
S315000053104188C1F30D0141800022606A314610F0D8
S3150000532097F802E00020ADF800006669B346B04683
S315000053300BE03088000404D5D6F80E0008B112F050
S31500005340D7F83046FFF7FFFD06460198864223D27E
S315000053503046FFF7EEFD81463046FFF7D6FDBDF835
S315000053600010884206D10AEB0500C01C80104000E0
S3150000537000F1040970880004DBD55846FFF7C5FD27
S31500005380318801F40041084330801FFA89F00BEBA5
S31500005390400B06EB4008D4E70220A0700DF1020096
S315000053A0FFF738FE6846FFF735FE129860B14FF0FA
S315000053B0000902E0804709F1010912985FFA89F9AC
S315000053C050F829000100F5D16769B94611E00226B7
S315000053D039F81600FFF7A2FD20B10088C0F30E00D1
S315000053E029F81600761C042EF2DB4846FFF7ABFDC3
S315000053F08146C145EBD30BE00746FFF7A4FD4146C6
S31500005400FFF789FE4845F7D3019881452BD13746EA
S31500005410474549D23846FFF796FD002F0646F6D097
S3150000542078880004F3D500F088F8B84204D178886B
S31500005430C0F30D007880EAE704D201463846FFF74C
S3150000544033FEE4E7019707E03046FFF77CFD41466F
S31500005450FFF761FE37460646464504D2308800F01F
S315000054606DF88642F0D337B100F067F801001CBF33
S315000054703846FFF719FE0198B946C3E73846FFF7E5
S3150000548058FD06465846FFF740FD8146720092B227
S3150000549039465846FCF74EFB002249460DF10200FC
S315000054A00FF085FF0BEB460BFDF70AFF064617E0EC
S315000054B021784018401EC0B204EB400000218789C5
S315000054C08181380009D0FFF729FD00F037FA002264
S315000054D039460DF102000FF06AFF6078401E6070D9
S315000054E060780100E4D10021201D0FF091FFFFF745
S315000054F015FD070006D1BDF80200A080C4F81CB057
S315000055000020A0703046FFF7E9FA002FB6D1BDF8AB
S31500005510000078B10446FFF701FD07001CBF0AEB47
S3150000552005007880204600F012F813995246284468
S31500005530FCF700FB15B0BDE8F08F3888C0F30E000D
S31500005540ECE480B5FFF7EAFCBDE80240D7E410B50D
S31500005550040012D0FFF7F5FF18B940F2394100F008
S31500005560AFF82046FFF7DAFC38B10188090402D506
S31500005570D0F80A0010BD083010BD002010BD10B5CF
S31500005580010013D0FFF7CAFC0446FFF7B8FC18B9B0
S3150000559040F2534100F094F844B12088000401D54C
S315000055A0208910BD6088C0F30C0010BD002010BD1E
S315000055B02DE9F04104460D46FFF7B0FC060040D049
S315000055C0FFF79DFC0FF2CC5718B940F2664100F088
S315000055D0A0F82046FFF7D3FF80463046FFF7B3FC1E
S315000055E0454504462DD003DB40F26E4100F091F8AC
S315000055F03088000448BF358123D475803046FFF7D4
S3150000560098FC06EB4005FDF75BFEDFF87013CA69F0
S31500005610661B944204BFCD610026FFF75FFAB6B25F
S31500005620082E06DA32462846BDE8F041FF21FCF78F
S31500005630E3BA082200212846FCF7DEFAA6F10800A4
S315000056406880BDE8F081F8B507460C46FFF766FCB2
S3150000565006463846FFF793FF051B8442ADB21BD0C2
S3150000566003DB4FF4936100F02BF8AEB130880004F1
S3150000567006D5D6F80A0034812844C6F80A00F1BDDA
S315000056803846FFF764FF22464119FCF753FA2146D4
S315000056903846BDE8F4408BE7F1BD38B50C46FFF758
S315000056A03DFC05000AD0FFF72AFC18B940F2AB41D1
S315000056B000F006F805EB4400808832BD002032BDBC
S315000056C00FF2D040FDF706BDF8B50C461546FFF7BC
S315000056D025FC06000FF2BC4714D0FFF710FC18B9E2
S315000056E040F2B64100F015F82846FFF717FCFFF721
S315000056F006FC18B940F2B74100F00BF806EB44007F
S315000057008580F1BD3846BDE8F44040F2BA41FDF768
S31500005710E1BC3846FDF7DEBC70B504460D460026F2
S3150000572008E0FFF72CFF294686192046FFF7B5FF4C
S31500005730B6B204462000F4D1304670BD38B5C01C60
S315000057408E4C80104500A06AADB218B140F2CF4130
S31500005750FFF7B6FFA069E169411AC903B5EB114F1E
S3150000576005DA690049420844A062012032BD0020E2
S3150000577032BD82490020886270472DE9F84F044601
S31500005780E01C80107D4D40000027001DAE690FF221
S31500005790044AB4F5005F88461FFA80F904DB40F23C
S315000057A0E6415046FDF796FCFDF78AFD8346E8691B
S315000057B0A96A09B9301A03E05FEA080202D0081A9A
S315000057C0461008E0701A4610B0B220B940F20C51EB
S315000057D05046FDF77FFCB6B24E4515DBEF6907EB89
S315000057E04900E861A86A28B1B8F1000F04BF00EBD0
S315000057F04900A86200207C80B880F880388004F1D7
S3150000580008016889081868815846FFF767F91FB9C3
S3150000581001211F2011F072FE3846BDE8F24FFFF756
S3150000582074BBF8B504460D46164600210A20FFF75C
S31500005830A4FF0746FFF772FB48B10681C0F80A408D
S31500005840018841F400410180C0F80E503846F2BD8F
S3150000585070B504460D4611462846FFF78EFF0646EC
S315000058603CB1300005D0FFF772FE2A462146FCF710
S3150000587061F9304670BDF8B504460D46164615E08A
S315000058802846FFF77CFEB7B2874288BF0746284600
S31500005890FFF75DFE01463A462046FCF74BF901212B
S315000058A02846FFF7FAFE3C440546F61BB0B2002830
S315000058B0E6D1F1BD2DE9F84381460E461446FDF7C3
S315000058C0FFFC2E4D8046287801002BD0401E287004
S315000058D0C0B205EB4000A9788789F9B981813846BD
S315000058E0FFF71CFB00F02AF83846FFF730FE324679
S315000058F04946FCF71FF93846FFF729FE22460021E4
S315000059003044FCF779F900223946281D0FF04FFD87
S315000059104046FFF7E3F80120BDE8F2836878401CB3
S315000059206870E1E7A019012180B2FFF726FF0700A2
S31500005930DAD14046FFF7D2F80020EDE720B14188E2
S315000059404DF6FF7211404180704738B5FDF7B8FC3F
S31500005950044600210C480FF05BFD05462046FFF784
S31500005960BDF8284632BD05488188481E8041C00FD3
S31500005970704702490020888070470000D0F6032057
S3150000598098E10320945B0000D4F603202DE9F04152
S315000059900446884617461E464046FFF7D8FDC519F9
S315000059A04046FFF7ECFDB919884203DA40F2B151DF
S315000059B0FFF786FE300013D00698010003D1324669
S315000059C02946204604E0012832462146284603D1CE
S315000059D0BDE8F041FCF7AEB8BDE8F041FCF7EDB824
S315000059E0BDE8F08110B50C46FFF7B1FD00B1005DD2
S315000059F010BD38B50C461546FFF7A9FD00B1055593
S31500005A0031BD38B50446FFF7BAFD05462046FFF717
S31500005A109EFD2946BDE83840002219E770B50D46BF
S31500005A20691C0446C9B2FFF7DDFF06022946204677
S31500005A30FFF7D8FF301880B270BD00B583B00223DF
S31500005A408DF80420120A8DF80520012200920A46DC
S31500005A50014601A8FFF79AFF07BD10B50446FFF7F8
S31500005A6043FA10B1A4F108000CE010BD10B5FFF721
S31500005A7055FA040004D0FFF75CFA04EB400001E09D
S31500005A80002010BDBDE81040FFF73FBAF8B5044648
S31500005A900D46FFF743FA060016D07088C0F30C07D0
S31500005AA02846FFF73BFA07F00101CF19FFF741FA45
S31500005AB007EB40072046FFF7D9FFA84203D040F284
S31500005AC06E61FFF7FDFD7780F1BD2DE9F0410C46D3
S31500005AD0FFF724FA05002DD06888C0F30C0606F0FF
S31500005AE001008019001B04F00101471AE01C20F098
S31500005AF00300284400F108082846FFF700FABFB261
S31500005B0008B1A64203D240F28A61FFF7D9FDB4423A
S31500005B1010D0092F0EDB6C80082200214046FCF7CE
S31500005B206BF8A7F10800A8F802004046BDE8F0416E
S31500005B30FFF7EBB90020BDE8F08170B5044682B0EE
S31500005B402068FFF78AFFADF8000000B3FFF7E6F91B
S31500005B5005001CD000880FF23C06000404D540F274
S31500005B60A5613046FDF7B6FA6846FFF753FABDF869
S31500005B700000FFF7D3F90546FFF7C1F920B940F257
S31500005B80AB613046FDF7A6FA05F10800206073BD4B
S31500005B90000000006275666665722D6D616E616754
S31500005BA0656D656E742E630010B5DFF8A04304F1D1
S31500005BB00800FFF72FFA04F10A00FFF72BFA04F1A9
S31500005BC00C00FFF727FABDE81040DFF88403FFF763
S31500005BD021BA10B5DFF87423DFF8783314781B7810
S31500005BE0234306D1DFF870331B780C2B03D0022930
S31500005BF006D0002010BD012908BF02F10C0301D018
S31500005C0002F10A030146002218460FF0D0FB03F00A
S31500005C10ADF9012010BDDFF83403417919B901212E
S31500005C20417103F0A3B97047DFF82803007800B18B
S31500005C30704710B500F05AFADFF81043208128B9F2
S31500005C40002104F10A000FF0E3FB2081208928B926
S31500005C50002104F10C000FF0DBFB208120890028D5
S31500005C6004BF207800280ED16079022803D013F0F3
S31500005C703CFF208138B9607928B114F0DCF8208126
S31500005C8008B10020607110BDB0488079704780B5BA
S31500005C90A0F10B01102901D3002002BDAB49887188
S31500005CA0042000F02AF8012002BD0000A748017870
S31500005CB0491E00220329027000D9704780B5DFE82B
S31500005CC001F002060A0EBDE8014014F0A1B9BDE8D4
S31500005CD0014014F0E7B9BDE80140FCF7CCBC80797F
S31500005CE009F03DFA20B1F4210FF28820FDF7F2F910
S31500005CF0BDE8014003F03AB901BD38B5044600F0ED
S31500005D00C9FA924D687940B100206871FCF79CFB96
S31500005D10032804BF402011F001FC287808B10020B8
S31500005D2032BD8E480078052808BF03F0C0F92C70F4
S31500005D3000F007F818B1FFF7B9FF012032BD0220C5
S31500005D4032BD38B5FDF7BCFA0446804D05F10A00B0
S31500005D500FF010FBA0B105F10C000FF00BFB78B1B2
S31500005D607E486979007808430AD100F00FF938B9FE
S31500005D707B4801F0A9FB00F0010080F0010500E07E
S31500005D8000252046FEF7AAFE284632BD10B5FDF7CF
S31500005D9097FA71490978012902BF704909780429DF
S31500005DA00CBF01240024FEF799FE204610BD10B555
S31500005DB06A49664C00200870208120706081A081AD
S31500005DC0FFF7D7FD14F032FB607014F02FFBA070C4
S31500005DD0634801F079FC634801F076FC4FF4A0516A
S31500005DE061480FF0BBF900206071BDE8104000F07B
S31500005DF0D4B82DE9F04104465C48544E0578308904
S31500005E0028B940F28F110FF26C10FDF763F9281FC5
S31500005E10DFF84C81514F0ED0801E012814D8052082
S31500005E2038702146284614F09EFA08B900F018F892
S31500005E30002030810BE0312C05D03878022803D1C0
S31500005E40200001D10120F070347100F009F8042D12
S31500005E5004D07079012804BF02207071BDE8F0817A
S31500005E60032038700021404601F0DEBB38B5374DBF
S31500005E702979044600F093F928B929792046BDE826
S31500005E80344010F0BABC31BD2DE9F8430446FFF7A3
S31500005E905EFB471D05212046FFF7C0FD0546384637
S31500005EA014F0D6FA05F44C483E5C280701D5042EBA
S31500005EB04AD12F4806704FF4406005424FF6FF79ED
S31500005EC006D0F81CFBF7B2FE484508BF48F040086C
S31500005ED005F44060B0F5006F06D1781DFBF7A6FE0D
S31500005EE0484508BF48F01008012E4CF6500015D062
S31500005EF0022E16D0032E0ED0042E08D0062E21D048
S31500005F00072E08D0082E15D07C2E0ED01CE0204679
S31500005F1000F0A8F8C0B90020BDE8F283B8F5484FF4
S31500005F20F9D0B8F54C4F0FD1F5E7B8F54C4FF2D094
S31500005F308045F8E74CF64040804505D10648007894
S31500005F400728F0E78045E6D00120E5E7AAFE032012
S31500005F507CFB032056E50320C0E203207CFF0320E0
S31500005F60D0E20320C4E203206CF80320F7E3032009
S31500005F707BFF03206D61632D617262697465722E09
S31500005F8063000000DFF86C05FFF744B8DFF868052A
S31500005F90006800B10120C0B2704780B5DFF85C052B
S31500005FA001F092FBDFF858150020488001BD2DE96D
S31500005FB0F041044614F077FA0546DFF848050688EE
S31500005FC0204600F029F808B9932023E0DFF8307561
S31500005FD000222146B81C0FF0EAF9DFF8208540467A
S31500005FE001F076FA10F1010F03D03988A819461A84
S31500005FF004E03D803102404601F016FBB2B20121B9
S315000060002046FFF71AFD2046FFF7A1FA08B1032143
S31500006010C1700020BDE8F08110B5044614F0E3FA23
S31500006020B0F5006F03D0B0F5406F12D018E02046EF
S3150000603014F0EFFA14F068FC0821FF2810D0DFF8FE
S31500006040C824126832F81030194322F810100120C3
S3150000605010BD204614F0CEFA14F075FC1021ECE7C2
S31500006060002010BD70B5044614F0A5FA400900F0F2
S315000060700105204614F06EFB060016D0204614F0EB
S3150000608062FBB0F5004F03D0B0F5404F06D00CE0F0
S315000060903046FBF7CBFD14F037FC02E0304614F037
S315000060A052FC06463146FF2901D1002070BD012071
S315000060B000FA06F2DFF840040368134303605DB19B
S315000060C0DFF844341B6833F811104FF45673194245
S315000060D002D041681143416002212046FFF782FC4D
S315000060E041B2304606F061FC012070BD70B500F08B
S315000060F0A3F901E000F017F80546280011D0FFF7D4
S3150000610026FA002600B1C6787006F3D52846FFF7B2
S315000061101EFA20B106F0BF0141F08001C170284689
S3150000612070BD002070BD2946A01C0FF067B9F8B5F8
S31500006130044614F05FFA0546204614F054FA002689
S31500006140B0F5006F03D0B0F5406F02D025E001270F
S3150000615000E0002795B100222946384600F013F9E1
S31500006160C8B9002F284604D0FBF760FD14F0CCFB1D
S3150000617001E014F0E8FB0646FF2E0ED0204600F0A4
S31500006180E0FE40B9DFF88003006830F816004FF4EF
S315000061905071084201D00120F2BD0020F2BD2DE968
S315000061A0F84F80468946D64E00F0B4F902E0B01C9E
S315000061B00FF024F983465FEA0B004DD0404659465E
S315000061C08842F4D10521FFF729FC00F007000128D9
S315000061D004D1404600F0B5FE044600E000245FEA24
S315000061E0090016BFB9F1310F01250025FDF768F842
S315000061F0824603215846FFF7F5FB254204D0404668
S3150000620000F0BDFE032702E000F07F00471EFAB251
S3150000621003215846FFF7EDFB84F00100054201D14A
S31500006220FFB2A7B9FDF74CF8044600225946B01C48
S315000062300FF00EF900F0EFF82046FEF74FFC50463F
S31500006240FEF74CFC4946584610F0D7FA02E0504695
S31500006250FEF744FC012000E00020BDE8F28F10B5F7
S3150000626082B014F020F9A6490A880880821A4FF6EF
S31500006270FF74ADF80040694690B200F0E2F8BDF850
S3150000628000109E48A14202D101F01EFA13BD01F092
S31500006290CBF913BD00214FF6FF70D2E02DE9F84F80
S315000062A0954C206800286CD000250126DFF85C920A
S315000062B0DFF85C82FDF704F8216800270E42BB4632
S315000062C009D0F24311402160012761680E4202D0D5
S315000062D01140BB466160FEF701FC002F4AD08A4898
S315000062E0016831F81520D00744D5D8F8003033F8C6
S315000062F01570BBF1000F07D002F44673B3F5807F2B
S3150000630008BF4FF0010A01D04FF0000ABBF1000FA1
S315000063100CD013070AD5380A8DF801008DF80070E5
S3150000632001226946012000F02EF818E0BBF1000FAB
S315000063300AD0D00608D5D9F8000000EBC501012225
S31500006340002000F020F80AE08AF001031BEA030FA0
S3150000635005D042F4806021F8150002F007FEE8B28D
S3150000636014F00BFCCDF800A03B461A2260A10320D6
S315000063700EF093FD6D1C7600202D02DA20680028B1
S3150000638098D1BDE8F18F2DE9F04700250028894610
S3150000639019BF02274FF4006808274FF44068584C8D
S315000063A016460021A01C0EF0FAFF04E030002FD1A3
S315000063B05146FFF7B9FE82465FEA0A001BD014F089
S315000063C012F94045F4D1504614F014F901463A4604
S315000063D04846FBF718FC0028EAD103215046FFF790
S315000063E001FB0006E2D4300001D1012011E02800B3
S315000063F0DED15546DCE7280018BF002E08D0FFF78F
S31500006400A6F818B1C17841F04001C17002F0AEFDA6
S315000064100020BDE8F08738B500F00EF805460021EB
S31500006420182006F052F904E0FFF7F6FDFFF77BFEB1
S3150000643005462800F8D131BD314C0021A01C0EF0D4
S31500006440AEBF2DE9F04182B004460020ADF8000051
S315000064500D46FCF735FF8046294E08E00021B01CAA
S315000064600EF0D6FF0022394668460EF0A0FFB01C9B
S315000064700EF080FF38B900F04DF807460121FFF70E
S31500006480CDFA8442EAD2FFF7C6FF4046FEF726FB66
S3150000649000F040F812E00121FFF7C0FA071BBAB27C
S315000064A001214046FFF7C9FA2988B8B2884288BF59
S315000064B0084628804146B01C0EF0A0FF80465FEAE1
S315000064C00800E8D168460EF055FF70B9002168460D
S315000064D00EF09EFF04460321FFF784FA0006F1D46E
S315000064E04221204610F089F9ECE7BDE8F38100006F
S315000064F042574200A8FE032068FB0320B4E20320B3
S31500006500A6FE0320CCE30320B4DE0320BCDE03207A
S31500006510B8DE03200021B01C0EF041BF70B59C48C8
S315000065209C4E0568002404E02846FEF773FD641CB3
S31500006530083530787178E4B208188442F4DB70BD0F
S315000065402DE9F843814613F0B8FF0546DFF8488287
S31500006550904C404600F0B8FF4F4620B16168E819FC
S31500006560471ABFB200E0656089486178006800EBB1
S31500006570C1062078002501E06D1C0836E9B281428B
S315000065800BD2B1888F42F7DAEDB2401BC20092B24D
S31500006590314606F10800FBF7CDFA2078401C207042
S315000065A0B780EDB21DB94946404601F03DF8304688
S315000065B0BDE8F28370B50D460446764910464A7822
S315000065C009788918754A1278914201D1002070BD68
S315000065D0FFF7B6FF0646681C3480B07013F05CFF08
S315000065E0F080012070BD6B480021017041706A483F
S315000065F001F06AB810B5664C01E000F054F8654841
S31500006600407830B1206810F009F80100F5D1206813
S31500006610008810BD70B50C465E49497821B15C4DC5
S3150000662029680988814201D0002070BD14F078F8ED
S31500006630064620000DD12868008800F0A0FC20B195
S315000066400021554800F0F0FF2BE0286881781031D2
S31500006650817029688A78100905D113F0E7FE00F0E9
S315000066601F0010300DE07EB113F0E0FE4C490978B2
S3150000667001224B1E02FA01F1491E02FA03F30840F9
S31500006680C0182968888002E002F0F00088700F22A6
S3150000669028688178114201D0808810B1204600F028
S315000066A002F8012070BD7CB53A4D394E0446687833
S315000066B0401E6870082231686846FBF73BFA697825
S315000066C02A7830685118CA0092B200F10801FBF727
S315000066D031FA9DF802000F21084208D1000918BFBF
S315000066E00024BDF80000214610F0F4F873BDBDF893
S315000066F00400FFF725FF08228188ADF804106946DB
S31500006700FBF718FA73BDF8B513F0D7FE214D204EEE
S315000067102978376895F801C004466868201A80B25F
S315000067200A46002307EBCC0705E0ACEB000CA7F804
S3150000673004C05B1C08375FFA83FC8C4514D2B7F89B
S3150000674004C06045F1DB97F802E0AEF1010E87F870
S3150000675002E0521E95F801E00EF1010E4FF0000C1A
S3150000676085F801E0D2B2E2E78A423CBF2A7002F025
S31500006770FDFB287850B16C603068697800EBC10089
S3150000678081880548BDE8F44000F04EBFF1BD000029
S31500006790E0DE032090FB0320ECE20320F3E303207A
S315000067A0FCE30320DFF80008FEF734BC38B50446E6
S315000067B013F0F7FE007800F0F805204613F0FBFE14
S315000067C0C00705D5C02D18BFE02D01D1012032BD6F
S315000067D0002032BD2DE9F14FDFF8D04788B0002107
S315000067E0A01C0EF0DCFD8146BDF8200013F0C6FEAD
S315000067F08046C01FC0B20690BDF8200013F0D1FE3F
S315000068000290007800F0F800C0280CBF0126002690
S31500006810BDF820000521FFF701F90006C00E00F0C3
S315000068200107BDF8200013F0C6FEC00735D586F077
S315000068300100384304D1BDF8200007F02FFD60B3F6
S315000068400298FBF7F6F9C0F30A00ADF804000298C7
S31500006850801CFBF7EEF905900298401D0490BDF8E8
S315000068602000FEF78CFEA0EB0800451FEDB23EB1FE
S315000068700498401E04906D1C00200390EDB203E0C6
S3150000688002980079C00003900398BDF804102818F8
S31500006890884218BF15F0070008D0002009B0BDE8EF
S315000068A0F08F4946A01C0EF0A9FD81465FEA09005B
S315000068B032D013F076FE824605214846FFF7AEF841
S315000068C00006C00E00F0010B484613F057FE404587
S315000068D0E7D10698069A029B40420AEB0001D2B223
S315000068E01844FBF790F90028DBD1059800900AF1CF
S315000068F00200FBF79EF90099814208BF5F45D0D19F
S31500006900BDF804B00AF10400FBF793F9834503D000
S3150000691000F076F84FF00009002DBED0B9F1000F57
S315000069200CD156EA0700B8D00599BDF80420BDF889
S315000069302000002389B200F068F8814613F0ACFD10
S315000069400746DFF86C66301D00F0BEFD20B92780D3
S31500006950301D318800F068FE4846FEF7F8FD2188B4
S315000069603288791A511889B2401CFBF76CF94846EF
S3150000697013F017FE4078FF288FD0039804994044FF
S31500006980821D2B4692B2484600F0B7F850B900F087
S3150000699037F80599BDF80420012389B2484600F06E
S315000069A034F87AE74846FEF7D2FD804600F0C6FA8C
S315000069B00746B844A8F10400FBF73BF90028F0D1DC
S315000069C0A8F10200FBF735F9391F8842E9D100F03A
S315000069D017F8484613F0E5FD0021801CFBF733F954
S315000069E000F0ACFA011F89B24846FEF7E1FDA01C93
S315000069F00EF0C0FC10B1301D00F066FE48464DE7B3
S31500006A0000224946A01C0EF023BD2DE9F04F83B0AD
S31500006A1080468B4615461E4613F0B0FD814609F1A9
S31500006A200600ADF80400BDF80470E819041D0EB1A7
S31500006A30444628E0A4B200966946E01C10F056FDD4
S31500006A40E0B100EB0901891DCA1C02F0FC02511AD3
S31500006A50C9B200EB010A0AEB0900801D8108B0EB00
S31500006A60810005D04FF4C6710FF25850FCF732FB87
S31500006A70009922465046FEF7D4FE03E00021204648
S31500006A80FEF77BFE04460CB9444601262046FEF777
S31500006A905EFD82460AEB0900412100F8011B3246E1
S31500006AA0411C06B1FF2202704FEA1B20087081F8D4
S31500006AB001B0280A8870CD702EB1BDF8041040468A
S31500006AC0FEF776FD10E04046FEF741FD01464A46D8
S31500006AD05046FBF72FF80AEB070041190020087013
S31500006AE04870CF70380A887000222146DFF8B80453
S31500006AF00EF05DFC2046BDE8FE8F2DE9F8470BB48D
S31500006B0004469246FEF723FD06462046FEF737FD6D
S31500006B100546BDF80810BDF80800514400EB0A0709
S31500006B20281F8842BFB224DB00E04D467419201F9F
S31500006B30FBF77FF881464F45F7DBA01EFBF779F898
S31500006B40B94580460BD14D467719381FFBF771F8CA
S31500006B508146B81EFBF76DF8824503D209E0C245AF
S31500006B6005D3B846504506EB0A0704D30AE0B845F4
S31500006B7016DA002015E07019011F0422381FFAF7F3
S31500006B80D9FFD1464946201FFBF75DF84146A01EB6
S31500006B90FBF759F8BDF8082001993846FAF7CAFFFD
S31500006BA0012004B0BDE8F0872DE9F84F13F074FC1E
S31500006BB0DFF8F843064620880021351AA01C0EF09F
S31500006BC0EEFB4FF6FF79ADB28046CA46268009E055
S31500006BD0761BB1B23846FBF736F8B6B25645B8BFA3
S31500006BE0B246D8465FEA080012D0FEF7B0FC471C52
S31500006BF03846FBF71EF806464146A01C0EF0FEFB83
S31500006C00B5428346E4DB00224146FFF7FBFEE8E798
S31500006C10CA45DFF89C0304D1BDE8F24F001D00F021
S31500006C2053BD5146BDE8F44F001D00F0FDBC2DE9F3
S31500006C30F84F8AB081468846174613F0B2FC824662
S31500006C4008A9484614F011FE20B300F077F905466E
S31500006C50484613F093FC2D1A9DF821000F28EDB23B
S31500006C6011DA9DF8201006290DD140F0B00088F801
S31500006C700000AA1E92B20AF1020108F10100FAF719
S31500006C8059FF681E51E12A4651464046FAF752FF1F
S31500006C9028464BE10AF10200FAF7CBFFADF80E00E9
S31500006CA00AF10400FAF7C5FF0790BDF80E0030B9E7
S31500006CB001208DF80D000020069001200AE000203A
S31500006CC08DF80D009AF80100C00006900698401E47
S31500006CD08041C00F05904FF6FE75484613F04EFCF6
S31500006CE0801DADF810000020ADF80000CDF808803A
S31500006CF0ADF812504846079E13F05DFC0007C346E8
S31500006D0054D5FBF784FB0190484613F082FC0446F9
S31500006D1002F02EFE4FF6FF71884218BFA042ADF872
S31500006D20020043D0204602F00DFEFF2808BF0F20C8
S31500006D30851CEDB2A00504BF6D1CEDB2FBF767FB29
S31500006D40800504BF6D1CEDB20F2D04DA029945F0E3
S31500006D50B000087006E00299BF2008700298401C37
S31500006D60029005700BF1050B0298401C02907F1FE4
S31500006D7002990198491C0291001201F8010D25465D
S31500006D800299019800F0D5F8200A029900F0D1F88E
S31500006D900298401C029000F8014DBDF802100A98B6
S31500006DA0FAF74DFFFBF733FBADF81200149C05987C
S31500006DB028B300208DF80C0003A8019002A80090CB
S31500006DC00023BDF812102A46484614F000FDFF289D
S31500006DD000F0AC809DF80C1001B90124BDF810102C
S31500006DE04518361A0298A0EB0B00ADF80000B1B2B8
S31500006DF0BDF800003F1AF8B2884264D205E0BDF83B
S31500006E00100006990D180798461A059884F0010196
S31500006E10C0B2084218BFFE2040F088800598654C35
S31500006E20D0B19DF80D0070B1208808B901202080EE
S31500006E302088ADF80E0001460AF10200FAF703FFBA
S31500006E402088401C20805946BDF800200BF1040024
S31500006E50FAF770FECDF808B00298079A411C029125
S31500006E600599002914BFC021E02141EA22210170C1
S31500006E700299079800F05DF8BDF80E100298FAF72F
S31500006E80E2FE0298801C0290059830B10298BDF887
S31500006E90001008443F1F029008E002990698491C1A
S31500006EA000040291C00C7F1F01F8010DFFB2B1B2C0
S31500006EB08F423CBF4FF6F87000EA0706BDF8101087
S31500006EC07019401A608000240027ADB25FEA050BF6
S31500006ED021D000F033F8001B80B28246DA45B8BFF5
S31500006EE08346012F0AD14846FEF731FB0119029865
S31500006EF05A46FAF71FFE029858440290D345A5EB6E
S31500006F000B0506D101214846FEF7C7FB8146002442
S31500006F1001E05C44A4B2A8B20028D6D17F1C022F9F
S31500006F203546D2DB0298A0EB0800C0B20BB0BDE834
S31500006F30F08F491C029101F8010D70474846FEF793
S31500006F401EBB38B5044613F02CFB0546204613F04D
S31500006F5032FBC00711D50021204614F086FC60B92B
S31500006F60A81CFAF766FE40B1281DFAF762FE114921
S31500006F704988884201D0012032BD002032BD38B593
S31500006F80044613F00EFB05462046FFF7DAFF28B14C
S31500006F9008484088C0086870012032BD0021A81C3E
S31500006FA0FAF751FE002032BD3AFF032038FF0320D6
S31500006FB0DCE203203CFF032080B513F0F2FA002147
S31500006FC0417001BD667261676D656E742E63000067
S31500006FD02DE9F041CA4C0021A01C0EF0E0F98046D4
S31500006FE0C6A50FF234360CE0FEF714F8FDF7C2FF23
S31500006FF007F1340014F0DBFD4146A01C0EF0FEF94B
S3150000700080465FEA080023D04046FEF7A0FA070054
S31500007010FAD0788806210842EED080074CBF304669
S315000070202846FDF7A3FF07F13600FDF7F3FF07F14A
S315000070303800FDF7EFFFB878400707F13A00D3D5DF
S31500007040FEF774F80028D1D0002014F0ECFDCDE74F
S315000070503046FDF78BFFA01CFDF7DCFF0FF2C020CA
S31500007060FDF784FFA748FDF7D5FF0FF2C820FDF70F
S315000070707DFFA548FDF7CEFFBDE8F041FDF77ABFDD
S315000070802DE9F04104460D469D4E0021B01C0EF040
S3150000709086F903E04146B01C0EF0B0F980465FEA7F
S315000070A008000ED0FEF753FA0700F3D03878A04256
S315000070B0F0D125B100224146B01C0EF0C9F9384680
S315000070C000E00020BDE8F0812DE9F04704460D46BA
S315000070D08B4F92460021B81C0EF061F981464FF69F
S315000070E0FF7804E04946B81C0EF088F981465FEA4D
S315000070F0090016D0FEF72BFA0600F3D0102206F18F
S3150000710016012046FAF77FFD0028EBD145451CBF46
S31500007110F08CA842E6D1C2451CBF308D5045E1D166
S315000071203046BDE8F0872DE9F84F80461D466807D2
S315000071308946924604D44046FFF7C6FF00284DD143
S315000071400A9C00212046FEF718FB5FEA000B39D0A7
S31500007150FEF7FDF906006A4F3AD022460021FAF7FB
S315000071604BFD3878401CC1B201B9012038700021AE
S315000071703878FFF785FF0028F3D13878307008B3E8
S315000071801022414606F11600FAF7D4FC44F25600E6
S3150000719028407080A6F82690A6F828A00B98F062E2
S315000071A00C9830630A20054212D0A80746BF05F4A2
S315000071B09F4040F4805105F4F061307814F0AFFC44
S315000071C0010001D1002009E0B086304614F08BFFA3
S315000071D000225946B81C0EF0EAF83046BDE8F28F98
S315000071E0F0B50D4605F13C0683B004463089C01F54
S315000071F010D02E382DD040F2ED11401A14D041F2A5
S315000072001141401A1DD0401E13D04DF68B21401A55
S3150000721016D021E0B08800903368F288072105F186
S315000072200B0015F0E0F8F7BD2846BDE8FE4015F066
S3150000723032BA2946204603B0BDE8F04015F0E2BB5D
S3150000724032480090002300222946204615F018FFF8
S31500007250F7BD204616F020F90121162010F04EF950
S31500007260E87E3189F388FF280BD1B08801900A4661
S315000072703068009005F10B0105F11B0010F054F980
S31500007280F7BD1A4605F10B00FFF71EFF07000CD1EC
S31500007290B088019005F10B0130680090F3883289BF
S315000072A005F11B0016F00CFAF7BDB878800705D477
S315000072B04FF4B6710FF25800FBF70CFF2046FEF7AD
S315000072C046F931680D1A2046FEF759F9ADB2461B4C
S315000072D02046FEF73CF9B2B24119FAF72BFCB1B2DF
S315000072E02046FEF765F90022214607F13A000EF026
S315000072F05EF83846BDE8FE4014F02CBF54435000FB
S3150000730096FE03204CFF032058E203207B19010060
S315000073107564702E6300000044544C530000000056
S31500007320736176656420544C532073657373696F7B
S315000073306E730000616464726573732063616368D1
S315000073406500000070470020704704F08BBE0120E6
S31500007350704700002DE9F0470FF04CFC11F0BCF926
S3150000736016F0F5F9012300224FF4E1312020F9F758
S3150000737027FF11F012FA04460DF0EBFF02462346F2
S315000073803149324CDFF8C880324E334F334DDFF887
S31500007390D0902020F9F763FF32480DF059FF207096
S315000073A001200DF084FF404600F067F800203070A1
S315000073B0387013F082F8286010E013F07EF88246E9
S315000073C02868AAEB000042F21071884208D3002216
S315000073D049462020F9F743FFC5F800A0FAF79CFFBD
S315000073E011F0C9FA30780100E7D0397881F001014F
S315000073F0084203D00FF000FC012038700FF00DFC9E
S3150000740020780DF00DFF404600F0CCF8E8E710B507
S315000074100446224614492020F9F721FF1CB1C72152
S315000074201248FBF757FE0B490120087000200A4955
S31500007430087010BD704780B5054800F0E1F8BDE85A
S3150000744001400FF0F9BB00007CAA03005BFF03209C
S3150000745058F003205CFF03205DFF032068F0032043
S3150000746064AA0300C4B5030094AA0300A4AA0300F7
S3150000747022210FF24430FBF72DBE002101600121CD
S3150000748041607047002202E04168426008460128D8
S31500007490FAD1704738B5044602E02846FFF7F2FFF6
S315000074A0FBF70EFF2168012521B14D6801224A60D4
S315000074B000212160FDF712FB012DEED16068FFF778
S315000074C0E1FF0120606031BD406800B101207047D6
S315000074D010B50446606810B94FF0FF3010BD206843
S315000074E090498068884206D012F0E7FFA168081A22
S315000074F0B0F1004F00D3002010BD2DE9F84F0D4626
S3150000750000270446686866680FF2AC2AA8429046CF
S31500007510A14610D184215046FBF7DCFD0BE05FEA63
S31500007520080006D02FB9A868B168401A584528BF88
S315000075304F46B1467668DFF8F0B1AE42EFD16868E3
S31500007540A1450CBF6060C9F80400B8F1000F1BD05C
S315000075508FB96E68AE424F4606D19E215046FBF764
S31500007560B9FD01E037467668012E04D0A868B168F7
S31500007570401A5845F6D3A74203D160686860656033
S3150000758002E0786868607D60BDE8F18F016809B146
S31500007590002070474068012818BFFFF799BF4FF0D9
S315000075A0FF30704770B5044612F087FF054601208C
S315000075B0A560207303E03168496830468847FBF7C9
S315000075C07FFE2168012639B14E687268B24212BF49
S315000075D04A60002121600AE06168012909D08A68B1
S315000075E0AA1AB2F1004F04D80E46716861600021F4
S315000075F07160FDF773FA012EDDD10020207370BD96
S3150000760038B5041D00E02C1D2568012D0BD0286817
S3150000761080680028F7D02046FEF78FFA2968896827
S3150000762028468847EFE731BD2DE9F04104460E466E
S3150000763020683C4905688068884219D126B1F62140
S315000076400FF27410FBF746FDFBF73AFE616841B98D
S31500007650296809B9646003E04968616029684C607B
S315000076602C60FDF73BFA2046BDE8F0410FF04ABF1B
S3150000767012F023FF80466FF00040864208D2287B36
S3150000768006EB080730B1A868B84203D17F1C01E0B9
S3150000769000EB08072046FFF717FF48B1A0688742AE
S315000076A010D046B9A8EB0000B0F1004F03D809E0AE
S315000076B0686860606C60A76021462846BDE8F041B6
S315000076C001221AE7BDE8F08138B50446154920685D
S315000076D005688068884218D1FBF7F2FD616881B1C0
S315000076E0A14203D1002129600AE011464A68A2425C
S315000076F0FBD12A68A24208BF296062684A6000215D
S315000077006160BDE83240FDF7E9B92046FFF7DCFECF
S3150000771038B12068006800222146FFF7EEFE0020FF
S31500007720606031BD71740000010000802DE9F24FE8
S315000077300546DDF828806E6892469B46A9460024D9
S3150000774001E0B1463E46012E19D0306800997768AF
S315000077508842F6D15FEA0A0004D059463046D0473F
S315000077600028EED0A9450CBF6F60C9F804705FEA27
S315000077700800746001D1304602E03446E2E7204654
S31500007780BDE8F28F2DE9F04147680C46154698464C
S3150000779000E03746012F0CD038687E68A042F8D149
S315000077A0280004D041463846A8470028F1D038467C
S315000077B000E00020BDE8F0816576656E742D717578
S315000077C06575652E6300000010B5044604F11000CF
S315000077D0FDF720FC04F14C00BDE81040FDF71ABC93
S315000077E0028A2AB1C0890988884201D101207047DE
S315000077F00020704742692AB1408A0988884201D12F
S31500007800012070470020704701B582B0002000902B
S315000078100A4602AB0FF2F471DFF8380CFFF786FF69
S315000078200EBD10B504000AD0B4F85200DFF8281CCB
S31500007830FFF7EAFF2146BDE8104000F0EABC10BDA4
S31500007840F0B5154605F1080691B0044630690028E2
S315000078500F4655D02C22002106A8FAF7CDF91022A2
S31500007860002102A8FAF7C8F9B08A010004D005F190
S3150000787050010F91ADF84000AFB9200002D075213C
S3150000788000F026FC102205F136010AA8FAF752F993
S3150000789006A8019000230020009002AA2046346921
S315000078A00021A0472CE01022394606A8FAF742F933
S315000078B0102207F110010AA8FAF73CF937F8200F51
S315000078C0ADF838007888ADF83A00B7F91420396970
S315000078D002A800F01AF906A8019002AAB88C009036
S315000078E020463B6A79793469A04795F83600FF2827
S315000078F006D112F0E2FD3168091A2846FFF794FE18
S3150000790011B0F0BD10B50446207B042801DA218AA7
S3150000791029B92246BDE810400021002090E7401C0E
S315000079202073204615F0D8FADFF83C0C217B40681E
S31500007930491E00FA01F12046BDE81040FFF774BE6B
S3150000794010B5002300E05B1CDCB2944208D2DBB227
S3150000795011F833408442F6D101EBC300406810BDF4
S315000079600FF2DC0010BD1A220FF20401E8E7000056
S31500007970000000009CCF030001000000A4CF03001C
S3150000798002000000A8CF030003000000B0CF0300F0
S3150000799004000000B4CF030041000000BCCF030088
S315000079A042000000CCCF030043000000DCCF030000
S315000079B044000000E8CF030045000000F8CF0300B4
S315000079C08000000008D00300810000001CD00300E6
S315000079D08200000030D003008300000040D0030086
S315000079E08400000050D003008500000060D0030032
S315000079F08600000078D003008C0000008CD00300C5
S31500007A008D000000A8D003008F000000C8D003003E
S31500007A10A0000000E8D00300A100000004D103008C
S31500007A20A20000001CD10300A300000030D1030017
S31500007A30A40000004CD10300A500000064D103009F
S31500007A403F3F3F3F3F00000038B50D4604462888BB
S31500007A50B0F5867F0ADD40F20D11411A89B2204643
S31500007A60FAF7F1F80E202880A01C32BD0D2803DBA2
S31500007A700D3820700D2014E0204632BD38B50D4675
S31500007A80044628880D2802D120780D3009E00E28FA
S31500007A90204605D1FAF7CDF800F20D102880A01C7B
S31500007AA032BD2880601C32BD1CB504461078081A09
S31500007AB0ADF800001170601C6946FFF7C5FF01A90B
S31500007AC0FFF7C2FFBDF80010BDF8042042EA01111D
S31500007AD0217016BD38B50C4610F8011BFF29154656
S31500007AE001D1002032BD0A09ADF8002001F00F01D6
S31500007AF029806946FFF7C2FF2946FFF7BFFF2178B5
S31500007B00BDF800205118217032BD0160114441605A
S31500007B1019E070B5044682B00D46A06861688842D7
S31500007B20164601D1002076BD6A4604F10C01FFF726
S31500007B30D1FF2860BDF800103180BDF80010084460
S31500007B40A060207B76BD01688160002101737047CB
S31500007B50002210B50529A8BF0421002304E0DBB2EA
S31500007B60C45C44EA02225B1CDCB28C42F7D31046AA
S31500007B7010BD1CB514466B4601AA00F00AF838B1D0
S31500007B802CB1BDF800100198FFF7E2FF206001203C
S31500007B9016BDF8B504460D4616461F46FFF7D3FF39
S31500007BA03A4631462046FFF7B4FF08B1A842F7DB54
S31500007BB0A84201D10120F2BD0020F2BD2DE9FC4111
S31500007BC004460F4698461546FFF7BDFF2E46A844C5
S31500007BD0464512D2002030700FE0464502D2019889
S31500007BE0405C3070491C761CBDF800209142F4DBE5
S31500007BF046453CBF2F203070761C6A4601A92046B8
S31500007C00FFF787FF08B187420BDAAE4204D0B045D2
S31500007C1024BF002006F8010C701B401E00B2BDE810
S31500007C20F681B842E9D10021DEE713460A460B2168
S31500007C30C4E72DE9F84F04468846B8F10F0F14BF84
S31500007C40012500250026002C1046C24639D0217891
S31500007C502F2903D1641C01E0641CC246217881B33C
S31500007C60A14601E04EB1641C21780A0005D02F29F7
S31500007C70F8D03F2918BF2629F5D156EA05010ED0BE
S31500007C80A4EB09070A9ABBB25146FFF70DFF8346DC
S31500007C90BAB24946F9F74EFFBFB20BEB070022789E
S31500007CA02F2AD9D09DF82C1081F001031D4208D14E
S31500007CB03F2A18BF262AD1D1641C4FF00F0A01268D
S31500007CC0CCE7BDE8F28F2DE9F84F84B0814600205D
S31500007CD08DF80800804609EB010003900E9D0F9C6D
S31500007CE09346CA464DE0B8F1000F14D1E0B220B178
S31500007CF09DF81000297888420FD20020019002A832
S31500007D000090039B9DF8101052465846FFF791FFCE
S31500007D1082464FF00108E0B210B12878102810DB37
S31500007D200020019002A800905246039B0F2158465E
S31500007D30FFF77FFF82464FF0000B25E0BBF1000FF7
S31500007D40EBD16F682E896FB9EA6869460020F9F7AA
S31500007D507EFF6F460426387820B9761E7F1CB0B2A7
S31500007D600028F8D115F8101BB3B202AA5046FFF747
S31500007D709BFE8246B2B23946F9F7DCFEB6B2B24491
S31500007D80641EBBF1000FAED1E0B20028D6D1AAEB3B
S31500007D90090080B205B0BDE8F08F2DE9F04F8046AE
S31500007DA008F12006B1B070798946154600F0E6FB69
S31500007DB0DFF8B4A760B1BAF8021008F12600F9F7A7
S31500007DC042FFBAF80200401CAAF802000220B07373
S31500007DD041F23360318801B93080718801B9708011
S31500007DE098F84600B17B084340F040008DF80C003F
S31500007DF008F1480470798DF80D0098F8460020289F
S31500007E0018BF302805D0BAF800006081401CAAF8D7
S31500007E1000000DF10E006189F9F715FFB07B092806
S31500007E2003DB40F2BB2100F053F9B27B08F12601D7
S31500007E3004A8F9F77FFEB17B03A80844071D0121BA
S31500007E402846FDF769FCB18C19B92DB15FEA000B24
S31500007E5004D04FF0010B01E04FF0000B316931B156
S31500007E60B28A3846F9F766FEB08A3F181AE0002053
S31500007E708DF80800707900F081FB002818BFB9F171
S31500007E80000F0FD0B7610120019007F1400302A84F
S31500007E9000903A460B214846FFF7CBFE0746B069ED
S31500007EA0381AB08303A800905FFA8BF018B32068E5
S31500007EB00FF2E161884207BF98F846002028FF20AC
S31500007EC007F8010BB18C009B306A7A18D21AB22AD5
S31500007ED007D20A4601463846F9F72CFEB08C3F1801
S31500007EE009E00022FDF7B4FC834668B32A46012167
S31500007EF0FDF7EAFB5D460098381AB22803D34FF423
S31500007F003E7100F0E5F801A800902B4603A83A1A46
S31500007F1092B203A9404614F00AFF054650B998F8F4
S31500007F20460048B1707900F029FB00281CBFE068C4
S31500007F30002801D1284666E0208B5030002180B20F
S31500007F40FDF71BFC010001D118205CE0FDF7FFFAEC
S31500007F50054650220021F9F74FFE0FF2B0002860C7
S31500007F600020686028736089E881E06801000AD013
S31500007F70A861206908B9DFF8F405686108F12600F0
S31500007F80F9F757FE6882102208F1100105F1360054
S31500007F90F9F7D0FD98F8460005F14807A0B9BDF8F5
S31500007FA0040028821022414605F12400F9F7C2FD9B
S31500007FB03088A8867088A5F8460020682862606820
S31500007FC03860DAF8041000E069692846FFF72CFBF0
S31500007FD0DFF89C050068002818BFB9F1000F09D02A
S31500007FE0484615F0B9FB411C002289B24846FDF708
S31500007FF02FFCB880228B616905F15000F9F79AFDD4
S31500008000208BA883002031B0BDE8F08FB8F603209E
S3150000801005790000C977000090CF03002DE9F047ED
S31500008020B4B081468A461546984600F076FA3E9EDA
S315000080301022711C1BA8F9F77DFD102249461FA8C6
S31500008040F9F778FD708AADF88C0023ACB08A6080B1
S315000080502DAFF06A2D900B23306B786084F805A065
S31500008060C4F820802A463C98A0846421307F019081
S31500008070B069009002A8FFF726FE0546652D03D3DA
S315000080804FF45A7100F024F8280002D002A82061AB
S31500008090A5823078C00706D4F06A002804BF99F894
S315000080A00000FF2801D1102000E000208DF8B2006A
S315000080B03D98010006D0316A3961F860706A7861CE
S315000080C0308D3883002200211BA8FFF766FE21E2CF
S315000080D00FF2BC50FAF7FEBFDFF89804FCF79ABF20
S315000080E02DE9F04105460E46904682B064220021F5
S315000080F04046F9F781FD287808F1250700F00F00C2
S315000081007872287800F0C001402954D108F1300473
S3150000811000F03000A07568783870A81CF9F789FD62
S315000081206084291D7A7A08F12600F9F703FD28787C
S3150000813000F00F00001DC0B20544301A2560A08073
S31500008140002180B28DF800102E1807E00B2F02D107
S31500008150A168691AA181BDF8021045182846B042E7
S3150000816011D22978FF290ED09DF800700DF1020278
S315000081706946FFF7AFFC9DF800100B29E6D10B2FDF
S31500008180E9D0A560E7E79DF800200B2A02D1A26896
S31500008190AA1AA281B0420CD22A78FF2A09D12068F5
S315000081A0281AA080681C2061301AA0820120BDE830
S315000081B0F6818642FAD20020F9E770B59AB00646F3
S315000081C00C46642200216846F9F716FD8DF84640F4
S315000081D006F1200512AC688E608110223146684691
S315000081E0F9F7A8FC102206F1100104A8F9F7A2FC81
S315000081F02888ADF8200000226888ADF8220000210A
S31500008200A86A1290E86A60606846FFF7C6FD1AB071
S3150000821070BD00B9704700B583B0B0F84C2042B1CC
S31500008220D34A1268130004D00091019069460220D7
S31500008230904707BD2DE9F84F05460846C0B01146E0
S3150000824007AAFFF74DFF002853D00FAFDDF828919E
S31500008250B87B09F120040DF14201207509F12C00CB
S31500008260BA7BF9F767FC1022494607A8F9F762FCC2
S31500008270102209F110010BA8F9F75CFC20889DF883
S315000082806220ADF83C00002A6088788018BF102A6A
S3150000829019A8458361681991A16841606E4937D074
S315000082A0202A09D0302A24D14089FFF7ADFA0200EE
S315000082B01FD007A902201AE04089FFF7A5FA044655
S315000082C007A9FFF7A6FF002C1CBFA069002810D045
S315000082D0787978B1B87B02280CD10DF14200F9F714
S315000082E0A8FC618A884205D1224607A90320FFF728
S315000082F0A7FAABE0224607A90120FFF7A1FA6169B8
S31500008300002904D0002020822046FFF78DF99DE049
S31500008310797909B9302136E0B0F80AB0D4F8088086
S315000083206668B4F802A01C2200216846F9F764FCCE
S315000083300196ADF800B046B9102209F1100102A865
S31500008340F9F7F8FBADF818A001E0CDF80880DFF8E2
S315000083502482002140460DF022F803E031464046D3
S315000083600DF04CF80646300011D0FDF7F0F8014646
S315000083701C226846F9F747FC0028EFD19DF86200F9
S31500008380002863D1202107A8FFF717FF5EE000222F
S315000083901C216846FDF75CFA68B10146002240469A
S315000083A00DF005F840460CF0EAFF062803DB002135
S315000083B040460DF02DF89DF8620010B90DF16E00E3
S315000083C0A0617879400929D1B7F91420396903A841
S315000083D0FFF79BFB802220A903A8FFF726FC10F1DC
S315000083E0010F03D100208DF8800004E0812824BF0E
S315000083F000208DF8FF005E480268100002D020A918
S3150000840003209047B88C029500903B6A7879409D8E
S31500008410CDF8049003AA20A9A8470FE0B87B02284C
S315000084200CD10DF14200F9F704FC5349FFF7ECF9C2
S3150000843020B1024607A90320FFF702FAA06928B176
S31500008440202107A8FFF7B9FE0020A06141B0BDE8D2
S31500008450F08F0000B8F60320E17700002DE9F04721
S31500008460B4B004468A469046994600F056F804F1A0
S3150000847020072DADB86938B120218DF8B2100088DB
S3150000848068810020B86106E0BAF1000F504641D07D
S3150000849000208DF8B20023AE102286F805A004F164
S315000084A010011FA8F9F746FB102221461BA8F9F771
S315000084B041FB3888ADF88C0004F12C017888708077
S315000084C078682D90B86868600DF192003A7DF9F7EA
S315000084D031FB387DB073CDF8009008233C980190AD
S315000084E04246642102A8FFF7EEFB0446652C03D33F
S315000084F040F20D51FFF7ECFD200002D002A83061DA
S31500008500B48200213D9830623E98B0841BA83F9A01
S31500008510FFF743FC34B0BDE8F087642200211BA8B6
S31500008520F9F76ABB1FB500240394089C0294079CC4
S315000085300194069C009407E01FB501920293002265
S31500008540069C009203940023FFF788FF04B010BD39
S3150000855010B5054C11F06AFF208011F067FF6080AE
S3150000856000200449088010BD40E10320905F01000F
S31500008570C8F6032088FE0320F5770000010002D02C
S315000085804109481E01E0002070478041C00F704736
S315000085900000000000207047C20802F001020A70C5
S315000085A000F00702121D00094A704860704710B5B6
S315000085B082B014466A46FFF7DCFA20B100982146DD
S315000085C0FFF7EAFF012016BD00B10820091F084386
S315000085D040EA021070470170C260002141600181CB
S315000085E0704730B54378057801249C4015B1A14207
S315000085F002D00CE08C420ADB406820B99A428041E6
S31500008600C043C00F30BD934201D1012030BD0020D0
S3150000861030BD2DE9F04194B00446884616461F4603
S315000086203422002107A8F9F7E7FA1A9D10222946F5
S315000086300DF11D00F9F77EFA288CADF82E00688C36
S31500008640ADF83000686A1090288DADF84400706867
S315000086507178421C0020FFF7B7FF0246172103A8D6
S31500008660FFF7B9FF03A80D90019701208DF8380098
S31500008670002307A80290424600200090214605F1FB
S315000086801000FFF7CBFC14B0BDE8F081000000003D
S31500008690636F61702E630000F0B59F4F0446387813
S315000086A0C00783B00D46164604D5786815F0A2F8C3
S315000086B000203870012038704FF4B07015F0AAFD14
S315000086C0786015F065F87868019600950323062210
S315000086D084F0010115F0BDF8F7BD2DE9F04107461C
S315000086E084B08846144600F06DF88B4E307800252D
S315000086F000F00F000F2811D100F067F887480090AE
S31500008700019502AB70684246394615F0C7FC07462C
S3150000871000F0A2F807B90125029820803078C0073A
S3150000872004D5706815F066F800203070284604B04D
S31500008730BDE8F081FEB5784C06462078C0070F46A6
S3150000874015461CD500F03EF800F03FF800F05FF843
S315000087503A466068314615F01EFB064600F07CF886
S31500008760029828805EB9606890F880002178002819
S315000087700CBF02200420084320700120FEBD00200B
S31500008780FEBD70B5644C05462078C0070E4617D569
S3150000879000F018F800F019F860683246294615F01E
S315000087A0DDFA00F058F85DB9606890F8800021782D
S315000087B001280CBF0220042008432070012070BD50
S315000087C0002070BD0120F9F742BF002015F09ABDC8
S315000087D0FEB5514F0546387800F0070007280E46CB
S315000087E0144601D00020FEBDFFF7ECFFFFF7EDFFBA
S315000087F000F00DF832467868294615F0B3FB00F014
S315000088002AF802982080681E8041C00FFEBD002015
S31500008810019002AB41480090704770B53E4E044649
S31500008820307800F0070007280D4612D1FFF7CAFF7F
S31500008830FFF7CBFF70682A46214615F002FB044677
S3150000884000F00AF82CB9307840F0080030700120AA
S3150000885070BD002070BD0546012015F053BD70B5F2
S315000088602D4C2078C00756D56068051D286E012856
S3150000887012D0281D00F074F805F1100000F070F811
S3150000888005F11C0000F06CF805F1280000F05CF81A
S3150000889005F14C0000F064F8686F78B1002606E038
S315000088A0686F24217143084400F04EF8761CA86FC7
S315000088B08642F5D305F17400FDF73FF9606888300C
S315000088C000F042F86068AC3000F03EF86068D030E6
S315000088D000F03AF86068F43000F036F860684FF45B
S315000088E08C71084400F030F860684FF49E710844BB
S315000088F000F036F860684FF4A471084400F030F8D0
S3150000890060684FF4AA71084400F02AF8201DBDE8FB
S315000089107040FDF712B970BD60FB0320C1E2010093
S3150000892038B510FB01F4A0B215F074FC050004D1B3
S31500008930E5210FF23C00FAF7CDFBA2B20021284652
S31500008940F9F75AF9284632BD10B5044600F008F882
S3150000895004F10C0000F004F804F11800BDE8104022
S31500008960816800291CBF0830FDF7E7B87047000092
S315000089706A70616B652D6563632D6D626564746CE9
S31500008980732E630010B5DFF8AC4500206080FF222F
S315000089900021201DF9F730F90020207010BDDFF806
S315000089A09805FCF737BBF8B500F053F803E03146FD
S315000089B0A81C0CF023FD0646300022D0FCF7C7FDAC
S315000089C00700F4D000F041F828B900220821384603
S315000089D0F9F770F950B1A81C0CF0D1FC01280ED0A3
S315000089E09A210FF27C50FAF775FB08E0002CDED0D6
S315000089F0082221463846F9F706F90028D7D1384625
S31500008A00F2BD0020F2BD70B500F023F806E000F0DC
S31500008A101CF890B93146A81C0CF0F0FC0646300054
S31500008A2012D0FCF794FD0028F4D0002CEFD00822D9
S31500008A302146F9F7E8F80028ECD13146A81CBDE834
S31500008A40704000220CF004BD70BD00220821F9F729
S31500008A5031B90446DFF8DC540021A81C0CF09FBC99
S31500008A6010B50446DFF8D414E08CC988884209D1D1
S31500008A7009F084FE90F85600400603D520780121BF
S31500008A8007F06CFF002010BD00B5012985B004D0A9
S31500008A90022908BF05F097FB10E0DFF8A42401784F
S31500008AA0527891420AD1808EFCF751FD694600F05A
S31500008AB082F9684605F063FD05F08FFD05B000BD3F
S31500008AC0DFF87C044078010000D170471CB5002116
S31500008AD0FEF7D6FA04000AD0694604F11E00F8F73C
S31500008AE08CF86846FFF78FFF204613F00AFB13BD8C
S31500008AF02DE9F04F8A460AF13C05DFF840449BB069
S31500008B0081462889E188DFF838B48842DFF83404E2
S31500008B1000880CBF012700270004904624D55FB1CA
S31500008B2009F02CFE90F8560040061DD4DFF8180414
S31500008B300078072818D01DE19BF8000018B905F049
S31500008B4055FB0028F7D09BF8000068B909F004FC33
S31500008B50DFF8F813097881F00101084204D1514683
S31500008B60484609F01EFB05E1EA8829890AF10B004F
S31500008B70FEF7AAFA06001CBFB08EFCF7E8FCDFF889
S31500008B80C4030088000417D49BF8010001000DD12E
S31500008B90002E10D10020ADF81C0001232078E8B18A
S31500008BA02089B0F5806F19D1022218E0002EF1D08D
S31500008BB03178814202D0DDE0002EEBD0B08EFCF79A
S31500008BC0C6FC20B90020ADF81C000023E6E7B1780A
S31500008BD0890702D500884004F4D4CBE0002207A818
S31500008BE00090A988286815F083FF002845D0022840
S31500008BF004D080F0A180002E40D1BBE0B8F1000F78
S31500008C00BDF81C0008D000902A89E98800230AF1E3
S31500008C10130009F003FBADE0FCF7B1FC069000235E
S31500008C200020059004900222E888039000212889FC
S31500008C300290402001900AF10B00009008A816F05F
S31500008C408CFD0400E7D00521FCF7E8FE4EF6F7712F
S31500008C5001EA000205212046FCF7EFFEBDF81C20C4
S31500008C6001212046FCF730FD00200090FF23012261
S31500008C7008A920460DF0F5FB7CE0002E5CD10FB173
S31500008C804FF40060DFF8C8220292B8F1000FDFF857
S31500008C90C422019214BF1021002140220092228991
S31500008CA01043084340F48043EA88298943F00203CD
S31500008CB00AF10B00FEF737FA06005BD010220AF124
S31500008CC01B01B01DF8F736FFB08EFCF740FC5FEADB
S31500008CD0000831D04FF4F07008EB0004C7B109F07A
S31500008CE04DFD10F1440705D0002210213846F8F753
S31500008CF0E1FF38B19848811C3A4612300AF07EFBF3
S31500008D00002837D01022394600F037F8102011E03D
S31500008D1069460AF11300F7F770FF6846FFF743FE4E
S31500008D20070027D097F8282007F1080100F025F85A
S31500008D3097F82800A8F800025FEA090006D1A8887B
S31500008D400021FCF71AFD5FEA000913D04846FCF73C
S31500008D50FEFBAA882968F8F7EDFEA9884846FCF7C5
S31500008D6027FC0022494606F13A000CF020FB0020C1
S31500008D7012F059FF1BB0BDE8F08F2046F8F7DABEB7
S31500008D8070B5040086B00D4613D0A08EFCF7DFFB4D
S31500008D90002630B16188C90403D501A900F00BF89B
S31500008DA001AE0095E28C218D334604F11E0009F0D8
S31500008DB035FA06B070BD2DE9F041044692B0207830
S31500008DC0C007884604D5002010252027242603E066
S31500008DD00025102020262427102204F128016844AB
S31500008DE0F8F7A8FE102204F10C010DEB0500F8F7C8
S31500008DF0A1FE042204F11C010DEB0600F8F79AFE11
S31500008E00042204F138010DEB0700F8F793FE0AAAD5
S31500008E102821684616F07AFE10220AA94046F8F77D
S31500008E2089FE12B0BDE8F08110B5424C22781100DF
S31500008E301CBF211DF8F77EFE207810BD2DE9F047F6
S31500008E403F4E074670780C46010086B0924698461B
S31500008E5007D00021FEF714F908B112F0CEFF00206A
S31500008E6070703948354D0078072805D1E8884FF0ED
S31500008E70010934B9044604E04FF00009C4B9AC88CE
S31500008E8016E04FF40061324A0292324A01924022C1
S31500008E9000922A89114341F48043014643F00203BC
S31500008EA022463846FEF73FF9070011D100203DE083
S31500008EB011F0BCFAB0F5404FFADB4CF227018842BC
S31500008EC01CBF4FF6FF718842F2D068800021DAE7B6
S31500008ED0B91D2248F7F7EBFE38787070B88EFCF7AC
S31500008EE036FB06001ED04FF4F0703418B9F1000FAF
S31500008EF012D001A918480091831C00F112024146C4
S31500008F00504616F0CEFF102201A92046F8F712FEB1
S31500008F101020A6F8000205E042465146FFF72DFF55
S31500008F20A6F80082384613F0C1F8012006B0BDE865
S31500008F30F08700004CFA03204EFA0320E2E30320F8
S31500008F4078FF0320B6F60320B2F6032077FF03204E
S31500008F5099200100898A0000B0F903204CF803200B
S31500008F6064746C732D6A6F696E2E630010B57C484D
S31500008F70007888B9FAF7A4F904467A4801780A0015
S31500008F8018BF052903D10321017000F079F82046A6
S31500008F90BDE81040FBF7A2BD10BD2DE9F041714CB4
S31500008FA0724E217837880FF2CC106D4D0A0082B0D0
S31500008FB007D1297811B99821FAF78CF8FCF776FED3
S31500008FC05CE003291CBF9D21FAF784F8002030805D
S31500008FD0380018BFFCF74AFFFCF726FE3088644EBF
S31500008FE0FF2701002BD08DF800706A460DF10101B4
S31500008FF017F045FA05469DF80000FF280BD0FCF750
S3150000900043FE30709DF80000FCF741FE18B19DF854
S31500009010000006F0A4F8012006F072FFFAF750F9F6
S315000090208046012020709DF8010018B90120FCF748
S31500009030E0FE20E0012128460CF028FB1BE0002082
S3150000904006F05EFFFAF73CF9804600202070307883
S31500009050FF2805D0FCF71BFE307806F080F8377045
S31500009060607820B100206070012006F0A7FB287808
S3150000907008B100F005F84046FBF730FDBDE8F38186
S3150000908000213948FEF7D0BA36480178012902D0C6
S31500009090042902D005E00CF0CFBB0521017011F0C8
S315000090A0C9B840F21F110FF2CC00FAF713B838B561
S315000090B0FAF706F92B4D04462878052805D040F224
S315000090C031110FF2B000FAF705F800202870687821
S315000090D020B100206870012006F070FB204800785F
S315000090E008B1FFF7CDFF2046BDE83240FBF7F6BCDE
S315000090F070B50446FAF7E4F81A4E054630780100D2
S3150000910018BF052805D04FF49F710FF26800F9F7D4
S31500009110E1FF042030704FF6FF7084421CBF2046EA
S3150000912017F01AFC2846BDE87040FBF7D7BC10B50F
S315000091300446FAF7C5F8012C0A4907D10A782AB17C
S3150000914001224A70FBF7CAFCA12010BD00224A701A
S31500009150FBF7C4FC204606F031FB002010BD0000E2
S31500009160AAFE03207CFF0320D0E20320B2FE0320E8
S31500009170FBE303206D61632E6300000080B517F0EA
S315000091803BFC002000F004F8BDE801400EF041BCB5
S31500009190F0B5DFF83848DFF83868002587B0A570E5
S315000091A01827C8B100F08CFB032818BF042804D088
S315000091B0022811D100F087FB0ED4DFF818080088CA
S315000091C00EF060FBFF2807D031687843014418226F
S315000091D06846F8F7AFFC0125DFF8FC07007810FBBE
S315000091E007F2306892B20021F8F706FD00206070A1
S315000091F045B18DF81400182230686946F8F79AFCD4
S315000092000120607007B0F0BD10B50446F9F7FFF80D
S31500009210844206D000F007F8B0EB942F01D101206C
S3150000922010BD002010BD80B5F9F7F1F8810502D117
S315000092308003000E02BDFF2002BD70B5DFF88C670B
S31500009240850AB0780C4680B128460EF003FBFF284D
S315000092500BD164B130782178401AC0B2812806DB80
S315000092602946601C00F005F810B1012070BD0020F1
S3150000927070BDCA0801F00701805C0122C1F1070137
S3150000928002FA01F1084018BF01207047DFF84C17B9
S31500009290DFF8380709784078C90748BF401CC0B2D4
S315000092A0704700B583B0FFF7BEFF0022CDE900226C
S315000092B0012100F00702C2F10702C00891400DF833
S315000092C0001011F0B3F86946C0B200F036F807BDD9
S315000092D0F8B5DFF8F8560446A87868B3FFF7A3FF99
S315000092E006460821204617F0A5FC0120402E09DA83
S315000092F0F10806F00703625CC3F1070300FA03F303
S315000093001A4362540021DFF8C82611E01368C9B277
S31500009310182616FB01F63344491C9B7CDE0803F035
S315000093200703A75DC3F1070300FA03F33B43A35505
S31500009330CBB26E78B342E9D3F2BD2DE9FC470746BE
S315000093408946FFF770FFDFF884668246B07820B161
S315000093503078C01BC0B281287ADBD9F80000F8F754
S3150000936011FD0446D9F80400F8F70CFD2044212825
S315000093706EDADFF868060088010418D5C00705D53F
S31500009380514600F067F890B90E200DE000F098FA0B
S3150000939002280CD1DFF83C060088810507D1810A36
S315000093A000F058F818B90F2005F07AF950E0377038
S315000093B017F00FFBB07848B16846FFF789FF08221F
S315000093C069464846F8F71FFC10B941E00120B07025
S315000093D018277478DFF8F8850EE0D8F8000017FB38
S315000093E004F10844651E10F8061C00F033F810B9A5
S315000093F0E8B20EF090F9ECB2002CEED100255445FF
S3150000940019D0E1B200F026F808B914E06D1CD8F8BE
S31500009410000007FB05F1084471788D4202DA817C71
S315000094208C42F3DA1DB110F8060CA04203D0E1B26B
S31500009430E8B20EF000F9641C402CE0DB70782128BD
S3150000944004DBFC210FF2B050F9F744FE00F022F8DD
S31500009450BDE8F38748460CE7DFF8800510B50078CD
S31500009460DFF87C45C00713D510F0E0FF2178012214
S3150000947002FA01F302FA01F1491E0840C118201D43
S31500009480FEF7D2F820780E2803DA401C207010BDB3
S31500009490A4E010BD10B5DFF84845201DFEF714F80E
S315000094A028B120780D2802DB0920207093E010BD3A
S315000094B0DFF81C251268182358431044427D61F3D7
S315000094C0C5024275704738B50D460446694600F038
S315000094D0FEF900F0F8F90CD5002D9DF8000001D139
S315000094E008B931BD28B9FFF7D5FF00212046FFF79F
S315000094F0DFFF31BD80B501F014FFBDE80140ABE7E9
S31500009500F8B543F69821DFF8DC04DFF8DC44DFF831
S31500009510C054FEF789F8002605E0217809B10EF05F
S31500009520F1FA761CF6B2DFF8A404407886423ADAFD
S31500009530182010FB06F730460EF084FCC0B12868F0
S315000095403844417D01F0070201F0F801072A417510
S3150000955006DA28683844521C417D5118417504E0EA
S3150000956003D1012130460EF004F930460EF0D7FB48
S315000095706946304600F0ABF99DF800000028D0D1CE
S3150000958028683844417DC1F3C207062FC5DA27B9DA
S31500009590807C8006000C06F0F0FF791CC9B23046CC
S315000095A0FFF786FFBDE7F1BD10B5DFF8344443F69B
S315000095B0982104F11000FEF737F800F07BF902D18C
S315000095C0C10700D40AE0C00704D50920207001F0C5
S315000095D0A8FE00E010BDBDE810403DE710F026FFF4
S315000095E0DFF808140918201DBDE81040FEF71CB866
S315000095F010B5DFF8EC43201DFEF766F804F1100005
S31500009600BDE81040FEF760B82DE9F04F83B00C4678
S3150000961090460EF01FF9064620460EF01BF98146CD
S31500009620FF2E18BFB9F1FF0F51D0182515FB06F014
S315000096300190DFF89C63019930684718F87C8DF833
S3150000964000000EF007F9DFF884335B783168984242
S3150000965006D215FB00F20A44527C02F1010B01E02E
S315000096604FF0010B15FB09F2114491F811A00EF011
S31500009670E9FB054648460EF0E5FB3168019A1144C0
S315000096800028097D18BF5FEA080201F00F0103D028
S3150000969000EB0802102A01DB002200E0D2B229B159
S315000096A09DF800309C4218BF002D12D07AB141B10E
S315000096B08A4206DB0BD1854203DBA84207D1D3459C
S315000096C005DAFC74387D00F0F00010183875BDE836
S315000096D0F78F002AF5D10024F3E72DE9FE4F054662
S315000096E0A88B0290800A8DF80200FFF79CFD804649
S315000096F0BA48007810F0010605D0002105F11300E4
S315000097000EF0C7F802E0A88B0EF0BCF80446FF2C5A
S3150000971016D00EF070FB20460EF04BFA86F00101D3
S31500009720084305F145090DD095F83C0005F13D01CA
S31500009730FFF703FE9DF802000EF08CF80446FF2C9E
S3150000974000F0B180CEB10026002702E0761CF6B20A
S315000097507F1CFFB2B84510DB394605F13D00FFF727
S3150000976088FD0028F4D04745F0D119F80600C0F36B
S31500009770011120460EF020FBEAE7182010FB04F04A
S31500009780019000F092F8417D01F0F8014175204604
S315000097900EF0C5FA00F094F8022804D100F093F810
S315000097A058BFFF2000D500208949019A0968114455
S315000097B000268875F1B205F13D00FFF75AFD002835
S315000097C06ED0F0B20EF046F883469DF8020019F806
S315000097D0017B86421CBF4645BBF1FF0F60D00DF1F1
S315000097E00301584600F073F807F00F0A9DF80210BF
S315000097F05246F0B2FFF708FF9DF803105846FFF7F0
S3150000980062FE0DF10101584600F061F869462046F6
S3150000981000F05DF89DF801009DF800100818BAF1F7
S31500009820000F0CD19DF8011000291CBF9DF80010F7
S31500009830002904D0C0B21028B8BFFFF72BFE00F0F5
S3150000984039F80FD1C1070DD46249029809888842B8
S3150000985026D10AF06AFAB6EB902F21D1644880F837
S3150000986000A01DE0C0071BD558460EF04EFA8246F2
S3150000987058460EF041FA5146814288BF01460229F8
S315000098800EDB380900F00303BA04B3EB126F88BF8E
S31500009890130E8B4204D200F008F8817D491C8175B5
S315000098A0761C402E86DBBDE8F78F49480199006893
S315000098B0084470474F49494809780088022970478B
S315000098C04C480078704745480078C00770472DE936
S315000098D0F8433E4D0C4669788842804603D3002003
S315000098E02070FF2016E01820DFF8E49010FB08F641
S315000098F0D9F80000871940460EF0A4FAD9F80010EE
S315000099008919097D11F00F0616D028B1864203DBAE
S3150000991020704046BDE8F283F87C0DF09BFF697825
S315000099208842074605D340F26A210FF2CC00F9F7C8
S31500009930D1FB26703846EDE700282070E9D14FF0BC
S31500009940FF08E6E710B5044682B0800A0DF082FFF4
S31500009950FF2804D06946FFF7BAFFFF2801D1FF2090
S3150000996016BDA0059DF800001CBF401CC0B216BD68
S3150000997038B50546FFF7A7FF4FF6FF740BD4FFF780
S315000099809FFF062807D0134800884FF6FE718842CD
S3150000999011DA04460FE02846FFF736FC08B12846E0
S315000099A032BDA80A0DF056FFFF2804D06946FFF71E
S315000099B08EFFFF2801D1204632BD054909681822CD
S315000099C050430844807C8006000C32BD49FA0320CF
S315000099D0E4DE0320A2E10320F4E30320B6F603202D
S315000099E098E20320A8E203207DF8032090B2080045
S315000099F0A0E10320B2F603207269702E6300000016
S31500009A00DFF8E00301780FF22400405C032905D15A
S31500009A10DFF8D4130978090758BF0920DFF8CC13FB
S31500009A20097809B140F0010070470000000B0B0BEC
S31500009A300400800038B50446492004F8010B154699
S31500009A4008222046F8F745F9691C0120F8F71EF9A7
S31500009A500834024600F005F8287800F00700207167
S31500009A6031BD21460020F8F7F2B8DFF88403FBF792
S31500009A70D1BA10B5DFF8C84C6088010092B012D098
S31500009A80694611F0CFFE60B1684615F0B5FE40B1EB
S31500009A90D848FDF719FE628801236946002000F0C8
S31500009AA0B1F90020608012B010BDD248FDF70CBE9F
S31500009AB000F07F02C00800F010000121801801FAB2
S31500009AC000F0704710B504460846FFF7F1FF616ADB
S31500009AD0084018BF0120C0B210BD10B504460846A4
S31500009AE0FFF7E6FFE16A084018BF0120C0B210BDCB
S31500009AF02DE9F041C6B0804608F040FE08F10804A2
S31500009B00E36F33B101460122184608F0A6FF054669
S31500009B1000E0002508F188070026386858B109F0EA
S31500009B2011FC38B108F05BFE01463868002208F0E7
S31500009B3094FF00B101260DB1786810B15EB1B86826
S31500009B4048B910F073FCC0F309022068002101F047
S31500009B50BEFD002056E02DB998F802000C2831D140
S31500009B60786878B301214FF4046002F0AEFD78689E
S31500009B700178ADF81010411C02780DF11200F7F7CC
S31500009B80D9FF052104A809F05DFE98B9BDF81010AB
S31500009B9004A80844851C684602F0D4F850B1102386
S31500009BA06A460521284606F0E2FFBDF8100012308D
S31500009BB0ADF81000E26FBDF8101001230DF1120090
S31500009BC009F0C3FB2EB998F802000C280ED1B9682B
S31500009BD061B101214FF4825002F077FDB8683A680E
S31500009BE010F8011B002309F0B0FB0AE00C2804BFA3
S31500009BF03868002805D109F0A5FB10B1002009F04E
S31500009C00E1FB012046B0BDE8F0818B688A6F496FA1
S31500009C100AF0BCB90170827001214170C01C704706
S31500009C200170C27002214170110A8170001D7047D7
S31500009C3010B50170841C0421417000202146F8F7FC
S31500009C4006F8201D10BD38B504466B486B4D0078EC
S31500009C5020B940F273212846F9F73CFA0094611CBA
S31500009C6000910B2001F8010D08200099491C009174
S31500009C7001F8010D684609F010FF0098001B0A283C
S31500009C8004D04FF41E712846F9F724FA009832BD25
S31500009C9010B50F210170C41C0A214170584909787A
S31500009CA0817020460EF0EDF80EF095FBE070DFF8BF
S31500009CB0080D00782071FFF7E9FA6071A41D4621AE
S31500009CC02046F7F7C0FF0120A070E01C10BD10B5BC
S31500009CD00446E01C0EF0BCF948B109212170411C74
S31500009CE061702044DFF8D01C0978A170C41C20469E
S31500009CF010BD10B50446A01C09F020FE0C212170F1
S31500009D0060702044801C10BD38B5144604220270D1
S31500009D104470851C22462846F7F70CFF281932BDE9
S31500009D2010B517210170841C0821417008F057FDF9
S31500009D3000F016F804F1080010BD10B5044608F04E
S31500009D401DFD90F8630048B1162020700820607051
S31500009D50A41C08F013FD00F003F80834204610BDDB
S31500009D60014608222046F7F7E5BE11B581B0182056
S31500009D70019A1070092205E011B581B01920019AE7
S31500009D8010700A220198441C601C019001A808F07A
S31500009D90DCFF0198001B401E2070019816BD10B50F
S31500009DA0D0F88040C07F22780B46611CBDE8104089
S31500009DB002F065BE10B50446F8F729FB02462046B8
S31500009DC0BDE8104000212BE7064B1B78062B1FBF72
S31500009DD0DFF8743C1B78072B012B01D1002311E01F
S31500009DE000207047B2F60320B6F6032080FF03205A
S31500009DF09AFB0320FCE203207EF8032034BC00001B
S31500009E0072FF03202DE9F04FADF5297D0446894602
S31500009E1090461D46CC22002106A8F7F7EDFE00204D
S31500009E208DF8140007AE09F10B00706099F81B005D
S31500009E30FF280CBF012000203072FF20B07609F108
S31500009E400B00F6F748FF002840D00DF12B0109F171
S31500009E501300F6F7D2FE09F11B00F6F75CFFDFF8F8
S31500009E60ECBBDFF8EC7B30BB1022DFF8E81B09F116
S31500009E701B00F7F7C8FE38B11022DFF8DC1B09F12A
S31500009E801B00F7F7C0FE10B93878000713D400F0AE
S31500009E90ACFD18BF042805D0022831D13878C00798
S31500009EA000F1BD8400F0C9FD00281EBFDFF8AC0B31
S31500009EB00078082824D199F80A00FF2820D105AB9C
S31500009EC02A4606A9484601F012FC002800F05F85E4
S31500009ED0307A00281EBF9DF81A000146042911D0C9
S31500009EE010291CBF0F2908290CD09BF8002020B987
S31500009EF03878C00706D4062A04D0092908BF022AE2
S31500009F0040F08D84DFF8400B0078062815AD35D07B
S31500009F10012803D19DF81A00112819E007286FD1EE
S31500009F2000F060FD08286BD8DFE810F01C00140074
S31500009F30140018007904790409000F0023009DF825
S31500009F401A00012818BF022802E09DF81A000E2800
S31500009F501BD03FE19DF81A000A280DE09DF81A0073
S31500009F600C2809E09DF81A000C2807D116F031FDDF
S31500009F7030E19DF81A000F285AD02BE19DF81A00FF
S31500009F800F281CBF0A280C2852D0F8F75DFA0328C0
S31500009F9049D109F0ABFD00281CBFA86B002842D0B0
S31500009FA009F0A4FD0146A86B0522F7F72CFE002850
S31500009FB039D09DF81A0004281ED100F016FD18BFEE
S31500009FC004281FD09DF854008DF80000307BA0F1C6
S31500009FD0090A00F0F8FC0DF08DFEDFF82C1C09785C
S31500009FE051B948B19DF80020A86B5FFA8AF116F0C6
S31500009FF0C3FD08B116F050FD00F0F7FC18BF0428A9
S3150000A00040F00D8400F019FD0028F9D100F0E4FCC1
S3150000A0103BD100F0DEFC9DF81A000D280ED0002181
S3150000A020002001F0AEFA9DF81A000F2818BF092883
S3150000A0303DD00A281CBF0C28042838D03878C00721
S3150000A04035D500F0EFFC18B1308BFFF7DDF818B905
S3150000A0509DF81A000D282AD1F07EFF2827D101216C
S3150000A06039A801F0A4F90446032100F0CCFC28B17C
S3150000A070B27A316B2046FFF747FE04469DF81A0078
S3150000A0800D280CBF0E220D2203E0082004F008FB69
S3150000A090C9E7002004900294A4A8401C0390002362
S3150000A0A039A8019009F10B01002000908FE19DF87D
S3150000A0B01A009DF8141099B9102818BF11280FD04E
S3150000A0C00F2818BF09280BD00A2818BF0B2807D05D
S3150000A0D0020000F0838201281CBF022804288FD1C9
S3150000A0E01128DFF8DC9BDFF858A689D8DFE810F0E6
S3150000A0F076025A025A0297035A0297039703880078
S3150000A100BC00FF0073015A028C02B9013D02D00067
S3150000A11012007F00A86D00285CD090F80180DFF85F
S3150000A120A45B861C374606EB0800874252D2397874
S3150000A13017F8012F781C871880294CD1022AA2BF54
S3150000A14000780009022845DB204610F026FB04466D
S3150000A1500DF1F60006F029FE05461A208DF8F400EA
S3150000A16039A93DA8281A801E8DF8F5000DF12B009F
S3150000A170F6F79DFD042004900023A8A8401C039038
S3150000A18002953DA8019011220020009039A900F007
S3150000A190C7FD054600210220FBF7EFFA0646280018
S3150000A1A018D0300016D0FBF7D2F92146F7F74BFD51
S3150000A1B0324601212846FBF787FA0621284610F089
S3150000A1C00DFA10F033F900F0FF02002302212846B1
S3150000A1D00CF099F923E30229A5D1082AFADB082213
S3150000A1E005F11201F7F70FFD00289CD117E3A86DC2
S3150000A1F00028FBD022460DF12B0108F0B3F80EE340
S3150000A2003978707F01F001010842F8D0092100F089
S3150000A210C8FB0446F07EFF2804D000F0CDFC48BF02
S3150000A22044F00204162100F0EEFB30B108F0A6FA65
S3150000A230A96C012208F011FC08B144F0080409F0E9
S3150000A24081F860B1172100F0DEFB30B108F0C7FAE3
S3150000A250E96C002208F001FC08B144F010047068B3
S3150000A260214600F0D3FC91E3707F002820D006A899
S3150000A270FFF73EFC0028F6D000F0BBFB307B002841
S3150000A28005D03878000702D506A8FFF726FA7DE341
S3150000A29008F074FA0446A86C0122214608F0DDFB9A
S3150000A2A0C8B104F0ECF99DF8DD00FBF7F0FC0028DE
S3150000A2B000F06D839DF8DD0004F051FFBDF8DE006F
S3150000A2C0F8F7B1F800F08EFB082802D104F098FAEE
S3150000A2D0A5E2112052E1A86C08222146F7F793FC6B
S3150000A2E0002803D09DF8DD0001F037F997E2012040
S3150000A2F0FFF7DEFB04460320FFF7DAFB04430E20DC
S3150000A300FFF7D6FB04431220FFF7D2FB316A204346
S3150000A3100140814206D19AF80000010003D0401E98
S3150000A3208AF800007BE299F800000028FAD00022A3
S3150000A33008210AF10400F7F7BDFC40B908220DF127
S3150000A3402B010AF10400F7F75EFC0028EAD1707BC6
S3150000A3503988020601D5CA070CD44006E2D59BF817
S3150000A36000000228DED1C807DCD4DFF85C090078DB
S3150000A3702028D7DA02F00AFADFF85019097888425D
S3150000A38003D300F03AFBFF2824D0DFF87C080078DE
S3150000A39000281FD10EF01FF8FF281BD000F00EFB7F
S3150000A3A0029039A8717B019049064CBF01212021FA
S3150000A3B0049100200090A4A9491CB06A039120F4DE
S3150000A3C0806040F4C033716843F028030A2206A86F
S3150000A3D000F082FC23E20320FFF76AFB054600201B
S3150000A3E0FFF766FB05430520FFF762FB07460420DF
S3150000A3F0FFF75EFB47EA050140EA01050F20FFF77C
S3150000A40057FBDFF858160978284301291EBFDFF8E5
S3150000A4104C160978022902BF316A014081421FD1D8
S3150000A420DFF8AC0800884FF6FF7188421CBF318BFD
S3150000A430884215D1DFF89C58002208212846F7F7F4
S3150000A44039FC38B908220DF12B012846F7F7DBFB5A
S3150000A450002805D106A9204604F041FC16F0CCFAE6
S3150000A460DDE1032100F0CFFA39AC30B100F0A6FAF5
S3150000A4700446B06A40F02000B062F07EFF2804BFB8
S3150000A480327F002A06D10121204600F090FFFFF717
S3150000A49091FC45E0FF2845D010F06FFB012100F04C
S3150000A4A0B2FAD0B1DFF8781C0968F07E757A31F817
S3150000A4B010202D0702F0040303D443B942F004022E
S3150000A4C003E023B14FF6FB731A4021F81020012058
S3150000A4D020706070707AA070E41C022100F093FA7C
S3150000A4E050B100F061FA0220207004206070A41CB4
S3150000A4F0F26AFFF7B6FA241D132100F084FA20B1A0
S3150000A500214606A8FFF74BFC0446B06A400517D55E
S3150000A510F07E02F0FAFB02460A212046FFF780FB96
S3150000A52004460DE0307F58B100F06CFA40B106A841
S3150000A530FFF7DEFA20B100F069FA08B100F059FA27
S3150000A5409AF8010000281BD10490A4A8401C03908F
S3150000A55039A8019000200090B36A716802940E2217
S3150000A56000F0BAFB00280BD010E2112100F04BFAE4
S3150000A57038B19DF8E000012803D1042004F090F8DA
S3150000A5804DE1F7F761FF032823D13878C00716D5C8
S3150000A590717F9DF8140081F0010108421CBF06A8D6
S3150000A5A001F0EDFA06A80DF052FE0328009000F225
S3150000A5B07780DFE810F0790064003401640000F071
S3150000A5C03CFA002809D1AB6B00F0E5F910F0E9FA86
S3150000A5D0DCE100F007FA0728E4D020E1F7F734FFC2
S3150000A5E00328FAD100F01EFA58B900F0D9F940B99B
S3150000A5F0B07B002807D0012106A80DF0A5FE002893
S3150000A60001D000F007FA0AE100F0ECF90328FAD1CC
S3150000A61000F0FCF90028F6D000F0F4F90028F2D09A
S3150000A6200A2100F0F0F9002800F0B18100F0D1F91C
S3150000A630308BDFF81C1D088000F0F8F9F08BF7F777
S3150000A640E8FE388840F400403880012004F0CDFA56
S3150000A650A86CE96C00280CBF002908F093FD307B3C
S3150000A66028B13878000744BF06A8FFF736F806A8D1
S3150000A670FFF73EFA00F0BDF908F004F986E100F0B4
S3150000A680A2F90DF037FB38B1B27B7068012100F0FA
S3150000A69015FE009801286BD00098012804D1BEE071
S3150000A6A040F2B75100F056FE9DF81A00012800F05E
S3150000A6B0A480022800F0AE80042805D00B280ED016
S3150000A6C00E2800F0328153E1DFF87C03007807287A
S3150000A6D004D1AB6B002B01D000F05DF94CE1F7F72C
S3150000A6E0B3FE0328DBD100F05BF950B102F04EF85F
S3150000A6F0DFF8D8150978884203D300F07EF9FF28E1
S3150000A70014D09BF80000B7F80080022831D15FEA28
S3150000A710C8702ED406A801F081FA50BBBAF8020020
S3150000A72080B90321012016F010FD002877D0AAF881
S3150000A73002404FF47A7109F10400FCF775FF6EE0F0
S3150000A74098FB032009F10400FCF7BEFE0028C5D0E3
S3150000A75020460FF0FFFF0546BAF802000FF0FAFF99
S3150000A76008222946F7F74FFA002845D1AAF80240F1
S3150000A7700DE15FEAC87052D5002106A80DF0E4FD90
S3150000A78000284CD006A801F0FAF940F2AD120021DB
S3150000A79039A8F7F731FA022100F035F939AC08B1DA
S3150000A7A000F002F9686C20B139A906A8FFF7F7FA9C
S3150000A7B004462046FFF7C1FA044607F0DFFFA96CFE
S3150000A7C019B10822F7F71FFA28B1A4A9491C204697
S3150000A7D0FFF7CBFA044608F0B5FD38B12046FFF77F
S3150000A7E09FFAA4A9491CFFF7C7FA0446A4A8401C6F
S3150000A7F00090234600F012F9BEE000F0F6F804D00F
S3150000A800022807D13878C00704D400F016F908B931
S3150000A81010F0C7F90798B17B19B1012805D00020BF
S3150000A820B5E001F00BFA0028FAD000F0D5F808D10F
S3150000A83000220821DFF8640CF7F73CFA08B100F0B3
S3150000A840F5F800F0CFF8062849D1A86B002846D0C5
S3150000A850042100F0D8F8002841D0092100F0D3F8EF
S3150000A86000283CD000F0DEF8002838D000F0CAF806
S3150000A870A8B30A2100F0C7F888B3F08B80052ED163
S3150000A88000F0A7F8308B0DF12B010CF083FEB076AB
S3150000A890F08BF7F7BEFD06A8FEF71FFFA86BC2797F
S3150000A8A0F18B9206B1EB124F02BFDFF8F41B0A7868
S3150000A8B0002A12D101220A700121DFF8102D117031
S3150000A8C0417910314171A86B8179103181713A4813
S3150000A8D001781031017016F07CF804F0C6FA5A4877
S3150000A8E00078072803D0F7F7AFFD042802D106A8A1
S3150000A8F001F045F900F086F850B100F087F838B15C
S3150000A90000F070F8032803D100F063F800F071F846
S3150000A9109DF81A00022801D100F07CF89BF800008F
S3150000A920062829D103F032FC26E000F05BF8072860
S3150000A93022D100F051F818D100F064F8A8B106A8A9
S3150000A94001F01DF900F045F8DFF8801C01200870C1
S3150000A950E86B10B100F04DF804E0706800220021A9
S3150000A96000F0B5FE04F0CFFA06E004F0DDFA03E0ED
S3150000A97040F2966100F0EEFC092100F044F828B19F
S3150000A9803878000744BF06A8FEF7A7FE01200DF59C
S3150000A990297DBDE8F08F328BB17E706809F0ACB8C6
S3150000A9A00A2106A8FFF799B8DFF85C1C0968F06A67
S3150000A9B0F27E41F82200704749FA0320B27A316BE1
S3150000A9C039A8FFF7A1B9DFF8440C90F900000DF0A3
S3150000A9D069B9A86B09F074B8DFF87419308B098867
S3150000A9E0884270471D48007870479BF8000003288E
S3150000A9F0704706A94046FFF708B90DF12B01002064
S3150000AA0001F094BE0B2106A8FFF75CB80C2106A83E
S3150000AA10FFF758B8A4A8401C009039AB39AA00210A
S3150000AA2006A81DE0002106A8FFF74CB808220DF184
S3150000AA302B01DFF8680AF7F77DB80822DFF85C1A01
S3150000AA400DF12B00F7F7DFB861F70320B2F603200C
S3150000AA50B6F6032090D1030080D1030067F70320E8
S3150000AA602DE9F04F884685B091469B460021044665
S3150000AA70FFF728F804F1080530B1A88AC0F30900E9
S3150000AA80421E9241D20F00E00022A378184600260B
S3150000AA900B28B24608BF0C270ED048F0200143B958
S3150000AAA06B7E82F001021A4301D0AA7A0AB102270C
S3150000AAB000E0012741F00808DFF8541B0978022955
S3150000AAC018BF48F002080B2805D0AA79E96A58464B
S3150000AAD0FFF71AF983460A2100F075F8B8B1E87D48
S3150000AAE0FF2805D0DFF82C1B096831F8102005E097
S3150000AAF0A87DFF285DD00CF01CFF02464FF6FE70C5
S3150000AB00824256DA0A215846FFF78AF88346DFF86A
S3150000AB10080B0078C00711D5092100F054F808B1D8
S3150000AB2048F40078022F09D100212046FEF7CAFF1B
S3150000AB3020B1A88A800508BF4FF4007A0C2100F0E6
S3150000AB4042F808B148F48058102100F03CF808B1EA
S3150000AB5048F48038022F08BF4AF4803A0E21204676
S3150000AB60FEF7B0FF08B148F40048287900B1012685
S3150000AB70A87A08B146F00806E87DFF2804D000F060
S3150000AB801BF848BF46F010060E9C5C4503D240F207
S3150000AB90127100F0DFFB04960394CDF808B0CDF8EF
S3150000ABA00490CDF800A0434629683A46002000F0FC
S3150000ABB093F805B0BDE8F08FDFF86415096811F861
S3150000ABC01000000670472046FEF787BF10B5DFF875
S3150000ABD04C4A1022214604F10800F6F7ABFF082282
S3150000ABE000212046F7F708F80022102104F108009A
S3150000ABF0F7F760F838B9BDE8104040F2E241DFF8F7
S3150000AC00740DFCF711BD10BDC0FB0320F0B5044662
S3150000AC10DFF8040ADFF8606D0078C007F1B00D4672
S3150000AC2004D440F25C713046F8F754FA680800F034
S3150000AC3001010DF1160008F081FE0C218DF81410AB
S3150000AC408DF8150005A90844801CFFF776F807461D
S3150000AC50280705D570A9491C3846FFF786F8074628
S3150000AC6008F070FB58B13846FFF75AF80746E80671
S3150000AC7005D570A9491C3846FFF77EF8074670A827
S3150000AC80401CB84204D240F272713046F8F722FAFC
S3150000AC9068074CBF042000200490E9074CBF4FF41E
S3150000ACA00073002370A8401C0390029705A801902A
S3150000ACB0082200200090214600F032F871B0F0BD65
S3150000ACC0F8E20320B0F903204AFA0320F0E3032058
S3150000ACD0D4E3032080F7032010B586B00C9C0494BF
S3150000ACE00B9C03940A9C0294099C0194089C009472
S3150000ACF000F016F800B10120C0B206B010BD10B5C4
S3150000AD00F2B0749C0494009370AC641C03941346D4
S3150000AD100A4605AC014602940194002000F08DBC61
S3150000AD202DE9F54F83B000208DF800008946DDF847
S3150000AD3048B05FEA0B701C464FF0020A04D4DFF8F5
S3150000AD40D0080078062801D1012600E000269DF8EB
S3150000AD501070DDF83C80102F16BF112F0120002047
S3150000AD600190B9F1000F1098A0EB0800ADF80200B1
S3150000AD700DD10120042F18BF082F8DF8000003D035
S3150000AD800F2F18BF102F0AD1DFF8F09B13E099F8A8
S3150000AD900000FF2816D101208DF800000BE03800D6
S3150000ADA018BF092F0FBFDFF8D89B40F2FC71DFF800
S3150000ADB0C80BF8F78FF95FEA8B704CBF4FF0030AA8
S3150000ADC04FF0000A0198BDF80220002841460FD036
S3150000ADD008F10200F6F7AEFEFF2088F800009DF8A5
S3150000ADE0100088F80100BDF802004044851C33E0DD
S3150000ADF008F12F00F6F79EFE304606B1FE2088F8D1
S3150000AE00000008F10101DFF87C0BF5F750FF102276
S3150000AE10494608F11100F6F78DFE002E14BF0D20ED
S3150000AE20152088F8210008F1210001F0D1F94044ED
S3150000AE302130A0EB0800C0B208EB00059DF8100019
S3150000AE4005F8010B08F12F01BDF802202846F6F798
S3150000AE5071FEBDF802002D18DFF8BC07008801045A
S3150000AE6013D596B9800710D4019870B90F2F18BF63
S3150000AE70092F0AD00B2F1EBFDFF80C0B007807280E
S3150000AE8003D02846FEF796FF0546DFF88C070088B4
S3150000AE90000419D5DFF834070078A8B1DFF8700789
S3150000AEA00078062802BFDFF8CC0C008800280BD0FB
S3150000AEB056B90F2F1CBF092F0B2F05D0019818B9B3
S3150000AEC02846FEF7C0FE0546A0070FD536B1DFF8C7
S3150000AED040070078062808BF002001D0FEF790FD45
S3150000AEE0024601212846FEF795FE054620071FD596
S3150000AEF0032028700022082068700821A81C0190F1
S3150000AF00DFF818572846F6F7D5FE48B1042128463B
S3150000AF1004F04AF840F2E241DFF8580AFCF784FBF5
S3150000AF20019808222946F6F705FE019800F1080562
S3150000AF30600203D52846FEF700FF0546200206D527
S3150000AF4008F000FA18B12846FEF7EAFE0546A00604
S3150000AF5007D501F093F8024605212846FEF768FE5C
S3150000AF600546600707D50FF040FE02460221284637
S3150000AF70FEF75EFE05467EB1F7F769FD60B1022F6A
S3150000AF8018BF012F08D18320287008206870AD1CD7
S3150000AF902846F7F75BFD0835200308D5DFF8780665
S3150000AFA00078000703D4284600F008FA0546E004B6
S3150000AFB007D54FEA1B1000F001012846FEF799FE5F
S3150000AFC00546A00504D549462846FEF780FE0546F7
S3150000AFD00E98C8B10D2129700022691C4D1C012351
S3150000AFE09340184209D04FEAE20E02F07F0C0EF0B1
S3150000AFF0100EF44405F801CB9843521C0028D2B237
S3150000B000EDD1681A401E0870200403D52846FEF7C5
S3150000B0103FFE0546E00327D536BB0398C8B1DFF8E7
S3150000B020C40B0268100014D003980DF1010113300F
S3150000B030904770B19DF80100032808BF16220ED074
S3150000B040022808BF0C220AD0012814BF00220422BD
S3150000B05005E0DFF8B80580570CF024FE0246102103
S3150000B0602846FEF7D7FD05469EB9092F18BF0A2FB9
S3150000B07009D00B2F1CBF9DF81000002803D0012F0C
S3150000B08018BF022F05D1022212212846FEF7C8FD5D
S3150000B090054621201BEA000FA5EB08042AD004F17F
S3150000B0A00900002180B2FAF768FB060035D0FAF7EE
S3150000B0B04EFA07000AD005220021F6F79DFD012071
S3150000B0C03871A2B24146781DF6F734FD5FEA8B600F
S3150000B0D004D50FF0ABF9C0F3080203E00FF0A6F9B0
S3150000B0E0C0F309029DF80030514630460BF00BFACA
S3150000B0F030465EE5A2B24146484600F013F8060027
S3150000B1000BD05FEA4B70F3D49DF800300022514615
S3150000B11030460BF0F8F90028EAD10020E9E70000F4
S3150000B120B4DE03202DE9F14F0C469AB02078DFF803
S3150000B130B8AAFE28154613D1012704F1210001F013
S3150000B14047F820305FFA80F909F10100C0B2A5F195
S3150000B1500108265C002020703FB10120019008E024
S3150000B1600027FF28E9D1667858E001A800F08AFE9A
S3150000B17090B300F077FF024604F122010120F6F7B2
S3150000B18066FD04F1210001F023F80A2804F1260BDC
S3150000B1900AD1019A5946FEF765FC019800F07F0036
S3150000B1A0401C8BF8040007E00198002F04BF00F054
S3150000B1B07F00401C8BF8000004F12102DFF8C41761
S3150000B1C006A8FEF737FC17B100F0C2FE03E00198AF
S3150000B1D002A900F0ADFE08B9002053E016F0DFF832
S3150000B1E004200090A8EB09039BB24A46611C06A8FE
S3150000B1F001F050F81C3D6A1E92B204F12101601C58
S3150000B200F6F798FC9AF8000040B1012E18BF022EFE
S3150000B21004D1ADB26119002001F8010CFF209AF8A3
S3150000B220011019B1012E14BF022EFE200021102E8E
S3150000B23008BF0521002F14BF2622062244F64C53D0
S3150000B24000260696019003930293ADB21A980090D9
S3150000B25005950494002307A814F07FFA040008BF9C
S3150000B26000200FD00521FAF7D9FB4EF6F77101EA57
S3150000B270000205212046FAF7E0FB07A9204614F054
S3150000B28043FA20461BB0BDE8F08F30B585B00446C2
S3150000B290FAF75DF9451D2046FAF771F904461022C2
S3150000B2A005F111016846F6F745FCA4F1090292B2D0
S3150000B2B029466846FFF736FF05B030BD10B5D44CB9
S3150000B2C024780023062C82B009D10A2241F0080115
S3150000B2D000910021FFF713FD00B1012016BD002AE1
S3150000B2E0F3D1032C01D10A22F2E7042CFBD0022C65
S3150000B2F008D1C94A1278D20754BF0A2208224FF44D
S3150000B3008033E5E70822E3E780B5022000904FF49A
S3150000B310C063082200210020FFF7F1FC00B10120E4
S3150000B32002BD10B5BC4C2088000482B003D440F6A0
S3150000B330B11100F00FF82078C0074CBF4FF400722F
S3150000B34000220020009000230421FFF7D8FC13BD43
S3150000B350A2E103200FF6DC00F7F7BCBE00B5F1B0A2
S3150000B36001218DF814108DF815100B218DF816108B
S3150000B3700E218DF817100121002814BFC02080204F
S3150000B3808DF819008DF8181000200490082370A875
S3150000B390401C039009220DF11A000290002105A815
S3150000B3A0019000200090FFF797FC71B000BD1122BC
S3150000B3B00270817001224270C01C70472DE9F8436B
S3150000B3C00446132000252070E61C8020A0706570BE
S3150000B3D00822DFF81818DFF818983046F6F7AAFBA7
S3150000B3E00021484609F0DBFF08361FE0FAF7AFF800
S3150000B3F0070017D03878800614D56A468021B81C15
S3150000B40016F07BF870B19DF8000040F0800006F859
S3150000B410010B082207F10A0130466D1CF6F78AFB7C
S3150000B420EDB208364146484609F0E8FF5FEA0008F3
S3150000B43001D0042DDADBA01C301A60703046BDE85E
S3150000B440F28370B5F2B004461D4605A8FEF75CFC13
S3150000B4500646002D14BF0420FEF7D2FA024601214B
S3150000B4603046FEF7D7FB01467698DFF8883702911B
S3150000B470002814BF4FF490504FF4B05000220492AD
S3150000B48005A970AA521C0392019100900B22214635
S3150000B4900020FFF721FC72B070BD000078F7032092
S3150000B4A07DF8032011B5F1B014200C468DF8140078
S3150000B4B005A9032048708DF81620180AC8700B716C
S3150000B4C01521749A0DF11900FEF7AAFB08232246EE
S3150000B4D0162105F04CFB044605A8201AB0F5D77FC7
S3150000B4E003D34FF42461FFF735FF04200490029440
S3150000B4F070A8401C0390002305A801900F2200208D
S3150000B50000900021FFF70CFC04460022012171A8DF
S3150000B510FAF79EF9210001D0010001D100201AE0BE
S3150000B520024601212046FAF7CFF8042120460FF003
S3150000B53055F805212046FAF771FA40F4805242F098
S3150000B540080205212046FAF778FA00230022002196
S3150000B55020460AF0D8FF72B010BD38B5044607F091
S3150000B5600DF9054605F16100F6F763FB05F1580193
S3150000B57003460A88009220460A7A2946FFF792FF78
S3150000B58032BD10B586B00C4628B901A9DFF86806A9
S3150000B590F5F78DFB01A8210008BFDFF860260BD068
S3150000B5A0012C08BFDFF8582606D0022C03D108224A
S3150000B5B0DFF8503601E000220023002100910D2122
S3150000B5C0FFF79DFB00B1012006B010BD7EF80320F9
S3150000B5D000B5F5B005A9DFF82006F5F768FB0020F1
S3150000B5E004900A2374A8401C03900D2209A8029017
S3150000B5F0019005A94FF4806000900020FFF76CFBD6
S3150000B60000B1012075B000BDC4DE0320D6E30320DF
S3150000B610B2F60320B8DE0320B6F60320A4FB03200F
S3150000B62010B5F2B00446012105A8FFF7C0FE0021BF
S3150000B630029000F042F80E222146FFF74DFB72B051
S3150000B64010BD2DE9F041F2B004461A208DF8140021
S3150000B65005AE8020B070884602208DF81700002ABB
S3150000B66014BF282020208DF81800002700208DF810
S3150000B67019000DF11A000EE002210170851C082147
S3150000B6804170FFB2082204EB87112846F6F752FAFA
S3150000B69005F108007F1CF9B24145EDD305A9411A11
S3150000B6A0891E71700290002100F007F81022002117
S3150000B6B0FFF712FB72B0BDE8F081049105A870A9EE
S3150000B6C00190491C0391002000900023704780B52B
S3150000B6D0002914BF4FF490534FF48053002100917A
S3150000B6E04FF44002FFE70721FFF709FB02BD2DE9F2
S3150000B6F0F04F8246FDB0BAF84000DAF83C40884682
S3150000B70026180021002891461F46059100F0158154
S3150000B710207814F8011F8DF8081008F104055FEA77
S3150000B720090107D0204600F053FD04440120361FCE
S3150000B7303870E9E028B99DF808000D2818BF1528CB
S3150000B74006D02078102802D0112840F0F680DBE0E1
S3150000B75005A800F097FB002871D0204600F038FDC0
S3150000B760049002A800F034FD20305FFA80FB301B05
S3150000B770ADF800000499BDF80000401A001FADF8AE
S3150000B7800A002946204600F02AFD082805D1286827
S3150000B790C0B200F0BBFB286001E0102853D122465E
S3150000B7A008F1130106A8FEF745F912A858440390BC
S3150000B7B00AA9286800F078FA002801903FD01022E4
S3150000B7C00AF10B0112A8F6F7B5F910220AF11B01CE
S3150000B7D016A8F6F7AFF9BDF8002021461AA8F6F725
S3150000B7E0A9F9019815F0DBFD042001905A46BDF831
S3150000B7F00A00039B009012A906A800F0D7FD0028B6
S3150000B8001DD00020A873DFF80004D0F800A04FF682
S3150000B810FF70824504D1611C0120F6F737FA824693
S3150000B82012A810F80B000C2827D10398BDF80A10AF
S3150000B8304218411C002008F0FDF95FEA000B7CD09D
S3150000B84008F061F8022878D102F022FF01460822AA
S3150000B85008F11300F6F7D7F900286ED1584608F01C
S3150000B86045F85844F6F7E5F901465246404603F0D6
S3150000B870D5FA002861D00120387008F11300A97BA1
S3150000B8800CF007F8A876A87B002812BFFF2008F165
S3150000B890130100F04BFFE876A87EFF280ED1E87E64
S3150000B8A0FF2809D0DFF86413096831F81000000694
S3150000B8B0400E00F0010003E0002001E00CF079F9F1
S3150000B8C06877687FB8B1A87B2A68002814BF02236E
S3150000B8D0012308F1130150460CF022FB48B9A87B5E
S3150000B8E048B92A68012308F11301504601F0A3FA6A
S3150000B8F008B101203870361F0498BDF80A20039954
S3150000B90004442046F6F716F9B44216D232462146CA
S3150000B910404600F03FF880B198F80200012818BFB1
S3150000B920022803D00A2818BF0B2808D100F02EF8E9
S3150000B93018B1052100F02BF808B9002016E000F038
S3150000B94025F808B101203870B9F1000F05D1286833
S3150000B9500599814238BF00F041FBAD49288B098823
S3150000B96088420CBF01200020287701207DB0BDE869
S3150000B970F08F00000CE3032034BC000080D10300EC
S3150000B98090D1030054F8032067F7032004214046B2
S3150000B990FEF798B82DE9F0470C46054614F8010B5A
S3150000B9A0A8701228904602DBE1E001614C4644454E
S3150000B9B080F0A080A8EB04000228F5DB26786778E3
S3150000B9C0A41C1B2EF0DA04EB0709C845ECD30EB90C
S3150000B9D0022F29D13046FEF76BF8696A0843686280
S3150000B9E0621EA11E1A2E05F1840005F1C40ADDD8D7
S3150000B9F0DFE806F01A20252D32350E0E3739434979
S3150000BA004D4F5B5E60161064676D74787C7E0F0028
S3150000BA10CCE7CAE700F0B0F802282880C6DAA6E02C
S3150000BA2020788AF80400C1E7022FF8D100F0A4F8C4
S3150000BA30A883BBE7012FF2D120786873B6E7042FFD
S3150000BA40EDD121460020F6F721F92863AEE7112F44
S3150000BA50E5DA6C63AF73A9E7AC63EF73A6E7AC6690
S3150000BA60A4E7EC66A2E72A2FD9D23A46214605F189
S3150000BA703C00F6F75FF82F7498E7022F77D100F0B5
S3150000BA807BF8688492E7082F71D16C678EE7A96707
S3150000BA908CE70026B6B2BE42FADAA05DFEF708F8D9
S3150000BAA0E96A0843E862761CF4E7207868747DE763
S3150000BAB0C4637BE720788AF8000077E7C5F8802022
S3150000BAC074E7032F53D1A0788AF801006EE7022F9E
S3150000BAD04DD100F051F8AAF8020067E7082F46D1C9
S3150000BAE0046063E7082F42D144605FE782605DE748
S3150000BAF0C2605BE7E86E08B9A86EE86604212846CE
S3150000BB00FDF7E0FFD0B1E87B082830D1AD6B4FF0F0
S3150000BB100009404800EB0906002208213046F6F7E6
S3150000BB20C9F828B9082231462846F6F76CF8D0B18C
S3150000BB3009F10809B9F1180FEBDB18E008212846CE
S3150000BB40FDF7C0FF18B105212846FDF7BBFF05200C
S3150000BB50FDF7AEFF06460820FDF7AAFF696A3043E7
S3150000BB6021EA00006862444508BF012000D0002099
S3150000BB70BDE8F08782F803202046F6F75AB870B57C
S3150000BB8082B004460521FDF79DFF00250126A0B1E0
S3150000BB90A16E0020F6F77AF80546E16E0020F6F76A
S3150000BBA075F8461CA07FFF280BD0A17C0091324679
S3150000BBB0636829460CF08CF973BDA07C0028F1D18E
S3150000BBC073BD15480078C0070AD5E07FFF2807D067
S3150000BBD063683246294602B0BDE8704001F0EFB80E
S3150000BBE073BD00005CFB03207EFF03208CF6032060
S3150000BBF03EF803202400C80078F703200308080055
S3150000BC00060808000400080008E30320B4DE032049
S3150000BC10A2E10320A4FB0320B6F60320417B802982
S3150000BC2005D0807C20B1481E8041C00F704701209E
S3150000BC30704700006D6C652E63000000DFF8B813D6
S3150000BC400A7822B14968884201D101207047002054
S3150000BC50704710B5DFF8A0430020207060702022E6
S3150000BC60002104F11400F5F7C7FF04F13400BDE824
S3150000BC70104020220021F5F7BFBF7FB504460D46D0
S3150000BC80164601A80FF29C310B22F7F7E5F92A4672
S3150000BC9001A90020F5F7DBFF00960A2301AA10216F
S3150000BCA0204613F090FF7FBD7FB504460D46FFF793
S3150000BCB0C5FFDFF8446310B106F1140010E0707898
S3150000BCC028B13069844208BF06F1340008D06846BE
S3150000BCD000F038F820B12A462146FFF7CEFF284665
S3150000BCE004B070BD38B5DFF810530C4605F11402E8
S3150000BCF0FFF7C3FF01206C60287031BD80B50020BE
S3150000BD00009004236A467F21042008F08DFF01BDC0
S3150000BD1038B506F033FD04460022102104F1340044
S3150000BD20F5F7C8FF68B900F099F8B34D00990020FF
S3150000BD30687004F13400FFF7D5FF00F021F9002008
S3150000BD40E86031BD38B5044606F018FD0546002208
S3150000BD50102105F13400F5F7ADFF38B9102205F1D1
S3150000BD6034012046F5F7E6FE204632BD002032BDFE
S3150000BD7010B5C6B00C46024610230521684604F0ED
S3150000BD80F6FE05A807F0E5FC1222694605A807F0AD
S3150000BD904DFC05A806F009FD974800210170417089
S3150000BDA0204600F065F80CF010F901F02DF846B0C9
S3150000BDB010BDF0B5904D0446287887B010B168687C
S3150000BDC0844249D002A8FFF7BDFF060044D0287878
S3150000BDD0D8B16868A04203D34FF4A77100F044F8C5
S3150000BDE0202205F1140105F13400F5F7A3FE686879
S3150000BDF02861271A0121802F697028BF7F27F8B292
S3150000BE0000F0BFFFF8B20CF0FBF821463046FFF712
S3150000BE1069FF019400F022F800980199884215D034
S3150000BE203FBF08460099401A052809D2042008F0A9
S3150000BE3021FF00980199401C88420090F6D305E046
S3150000BE40042301AA7F21042008F0EEFE6C6000F0B6
S3150000BE5018F900200BF063FB07B0F0BD04237F2226
S3150000BE600421684608F0D0BE0FF29810F7F732B9F1
S3150000BE7080B5FFF79EFF60494FF41C70C860BDE8AF
S3150000BE8001407DE05C4908B14A6802600878704765
S3150000BE9038B504460D466846FFF7F4FF18B940F278
S3150000BEA08511FFF7E1FF0098201A00F14001802973
S3150000BEB003D295F90010884201DA002032BD2870BD
S3150000BEC0012032BD30B50D464B4914460A7889B07B
S3150000BED00AB9002018E04B684A19984208BF02F1D7
S3150000BEE0140011D04B782BB10969884208BF02F1C2
S3150000BEF0340009D06946FFF7D7FE10220DEB050185
S3150000BF002046F5F717FE204609B030BD3A490A78B3
S3150000BF100AB9002070474968401E401A00F07F02A7
S3150000BF205018402AA8BF803870470A461021C9E732
S3150000BF300A460021C6E730490A782AB108B14A689C
S3150000BF40026001F12400704700207047002070470E
S3150000BF500020704728498A68002002B190B2CA685A
S3150000BF6012B1824238BF90B248B1F128A8BFF02082
S3150000BF7088708878214941432148FBF755BB7047B3
S3150000BF8080B506F0FBFB5430F5F753FE30B91A497D
S3150000BF90C860BDE802401A48FBF796BBBDE8014001
S3150000BFA0D8E71548C168826851EA020315D083783C
S3150000BFB01AB193422CBF0022D21A826019B18B4269
S3150000BFC02CBF0021C91AC1601146C268114318BFAF
S3150000BFD0FFF7C0BF4068401C4AE7704706490A7829
S3150000BFE042B14A68521C904204D1C968002908BF70
S3150000BFF0FFF73EBF70470000E4F9032080EE3600ED
S3150000C0007CE2032064697374726962757465642DD9
S3150000C0106B65792D6D616E6167656D656E742E63F6
S3150000C02000000000303030305468726561640000F2
S3150000C03030B50023541E05E0E4B2DBB20D5DC554F5
S3150000C0405B1C641EDDB29542F6D330BD80B5042379
S3150000C0507F220221684608F0D7FD0098D0490003E8
S3150000C060086001BD10B5CE4C2068000504BF022053
S3150000C07008F000FE2068411C216010BDC848006819
S3150000C080704780B50020C64900900860FFE704238A
S3150000C0906A467F21022008F0C7FD01BD80B5FFF783
S3150000C0A0D5FFC0480078010018BF052806D0BDE8B6
S3150000C0B0044091210FF20040F7F70CB801BD70B5AE
S3150000C0C00C4615461E46014610223046F5F732FD4F
S3150000C0D0307820403070F573280AB0733046BDE8DA
S3150000C0E0704015F083B92DE9F04E824686B00D46B4
S3150000C0F091469B460E986B465A46FF21FFF7DFFF97
S3150000C1009DF8001081EA15208DF8000002249DF8A4
S3150000C110010068408DF801000227002615E01DF891
S3150000C12004301AF801CB8CEA03030DF80430521CD4
S3150000C130641C92B28242E4B2F1DB8619102CB6B2CC
S3150000C14003D1684615F052F90024AE420ADAC4F16A
S3150000C1501000A91B8AB283B29A4234BF88B280B259
S3150000C1600022E6E72000CA465D4603D0684615F081
S3150000C1703DF900247F1ED0D1109A0F986946F5F735
S3150000C180D9FC06B0BDE8F08E2DE9FF4104460D4608
S3150000C190164698460AE022781DF80100504004F839
S3150000C1A0010B491CC9B2B942F5DBED1BA8B268B157
S3150000C1B0ADB2102DB4BFEFB210276B46B2B2032159
S3150000C1C04046FFF77CFF761C0021EBE7BDE8FF81C8
S3150000C1D000780FF2F421C0F3C100085C704770B517
S3150000C1E004460D46FFF7F4FF052801D1002070BD77
S3150000C1F0207800F0FA06082E08BF607905D0102EC8
S3150000C20004D1611D0020F5F741FD2860304670BD60
S3150000C2102DE9F0410D4604462F7816462846FFF7CD
S3150000C220D7FF80464920207008223146601CFFF760
S3150000C230FFFE0422691C04F10900FFF7F9FE07F06E
S3150000C240070060734046BDE8F0812DE9F0410646DF
S3150000C25084B008460C9C0A9D1146220098460DD0D3
S3150000C2600B9F0294019700962B464246FFF73BFF31
S3150000C2703346002221463846FFF786FF280007D0BE
S3150000C28033462946404604B0BDE8F04101227BE72B
S3150000C290BDE8FF813EB5069C02948D180093EC180C
S3150000C2A001942B46FFF7D1FF37BD2DE9F84F86B035
S3150000C2B00446894690460EF0CBF80646A019009033
S3150000C2C02046009FDFF8E0A0F5F7B0FC4FF44041B0
S3150000C2D008429DF81800DDF848B008BF0FF2F01AC2
S3150000C2E0102805D10FF2F01A0FF2F4184FF0000BD8
S3150000C2F00FF2D411C008A9EB06020D5C009992B2A8
S3150000C3004819F5F717FC274800789DF8181000F033
S3150000C3100700084307F8010B5A4639460120F5F78E
S3150000C32096FC9DF818003F1D0828A94413D0102834
S3150000C33002D0182809D010E04FF0FF32394600200D
S3150000C340F5F785FCFF20387107E00822514638468C
S3150000C350F5F7F0FB083711983870404615F01FF8CE
S3150000C36022780FF2681102F00302A819895C0818F6
S3150000C370C7B25FFA89F08742B4BFC61B0026009990
S3150000C380524601A8FFF744FF04200090F3B23A4654
S3150000C390214601A8FFF77EFF281DC0B288E00000F5
S3150000C3A0BCFB0320F2E3032054F803202DE9F043FD
S3150000C3B08BB00646129C894690461F46334601229C
S3150000C3C021463846FFF7E0FE139D28001DD02A4679
S3150000C3D0391903A8F5F7AEFB33460022294603A810
S3150000C3E0FFF7D2FE07A801900295009623463A462B
S3150000C3F041464846FFF777FE2A4607A903A8F5F700
S3150000C40002FC401E8041C00F00E001200BB0BDE8D9
S3150000C410F08310B504460EF01BF8215C01F01801FC
S3150000C420182902D12044401D10BD002010BD2DE961
S3150000C430F04F8A4687B004469AF80000042816464C
S3150000C4409B4619DB071F20460EF002F8054604EB53
S3150000C45005083246414602A8FFF7DAFE217801F0C8
S3150000C460030181460FF26400405C4D44EDB246196B
S3150000C470FFB2F6B2B74201DA002019E0584614F0CE
S3150000C4808EFF04200190A319B81BC0B2009032465B
S3150000C490214602A8FFF78AFF50B17A1B92B26119B2
S3150000C4A04046F5F747FBA7EB09008AF80000012094
S3150000C4B007B0BDE8F08F00003830322D31352D340D
S3150000C4C02D63636D2E63000005060A0E020000014F
S3150000C4D0428A2F98713744911287D423B8FE0635C5
S3150000C4E078581686FDB4580FB092546AECBD15669E
S3150000C4F0002025E030B50022194B144633F82450AD
S3150000C500854202BF03EB8404A4788C4201D101204A
S3150000C51030BD521CD2B2042AEFDB002030BD104AD7
S3150000C520137C22F8230002EB83008170581C00F074
S3150000C5300300107470471022FF210948F5F75CBB11
S3150000C54080B508480078042808D0FFF7F4FFBDE856
S3150000C550044042F210710448FBF766B801BD0000C2
S3150000C56038FA0320B2F6032088E2032038B50EF02D
S3150000C57018FBF6F7A5FEDFF8AC4905462078420021
S3150000C580DFF8A4090068FF21F5F736FB2078C20022
S3150000C590DFF8980900F035F820784200DFF89009B6
S3150000C5A000F02FF82846F8F799FA20788200DFF88D
S3150000C5B0840900F026F820788200DFF87C0900F074
S3150000C5C020F8DFF87809227800F01BF8207882003E
S3150000C5D0DFF86C0900F015F820788200DFF86409AE
S3150000C5E000F00FF820784200DFF85C0900F009F847
S3150000C5F0DFF85819002008800120DFF85419088058
S3150000C60031BD00680021F5F7F7BA2DE9FF47DFF8DD
S3150000C61044090078C00756D50024DFF82859DFF80A
S3150000C6200C69DFF80479DFF8FC8848E00E2322461F
S3150000C6300D21684608F0E8FA6846F5F7FAFA5FEA67
S3150000C640000A3AD0F6F73CFE8146F5F7E0FECAF35B
S3150000C65009010843396821F81400082230680DF1F1
S3150000C660020100EBC400F5F765FA9DF80000DFF85B
S3150000C670C0180968C20605D531F8142042F0010237
S3150000C68021F81420020705D531F8142042F00402DF
S3150000C69021F81420400705D531F8140040F4005065
S3150000C6A021F814004846F8F719FA0DF10A0100209E
S3150000C6B0F5F7ECFA296841F82400641CE4B298F80E
S3150000C6C000008442B2DBBDE8FF8770B5DFF8604842
S3150000C6D024680022002302E024F813505B1CDFF8D4
S3150000C6E044582D78AB4209DA34F813506E07F5D565
S3150000C6F001220E0014BF05438543EDE7104670BDC9
S3150000C700002100E0491CDFF81C381B78CAB29A42A7
S3150000C7100AD2DFF81C281268C9B232F8112002408A
S3150000C7208242EFD101207047002070472DE9F8437F
S3150000C73007460C46DFF8F457DFF8F467DFF8E897AA
S3150000C740DFF8E08709E0D9F8000030F817004FF667
S3150000C750FF71884215D07F1CFFB298F8000087420F
S3150000C76011DA002CEFD0306810F81700C007F2D5A8
S3150000C770286800EBC70108222046F5F744FA00288E
S3150000C780E9D1384600E0FF20BDE8F2830020002111
S3150000C7900AE0DFF89C271268C9B212F81120D20706
S3150000C7A044BF401CC0B2491CDFF878371B78CAB2B8
S3150000C7B09A42EED37047002100E0491CDFF8643747
S3150000C7C01B78CAB29A4209D2DFF85C271268C9B24E
S3150000C7D032F811208242F0D10120704700207047C4
S3150000C7E02DE9F84304468846914600F09CFA054632
S3150000C7F02E46FF2E04D1002100F096FA054612E0DF
S3150000C8000899B1B10020F5F741FADFF8281700F0D2
S3150000C81020F80ED309990020F5F738FADFF8181733
S3150000C82000F017F805D3FF2D03D02046FFF7C3FF0E
S3150000C83008B1FF200BE007B91E2700974B4642467A
S3150000C8402146284600F00BF800B9FF252846BDE82A
S3150000C850F283096851F82610401C884270472DE97A
S3150000C860F44F84B08046DDF83890B9F1000F8A465F
S3150000C8701D4604D1F2210FF2E860F6F72BFC0124E5
S3150000C880A80748BF44F20104280758BF44F004042F
S3150000C890E80758BF44F08004680748BF44F40054D2
S3150000C8A04FF6FE704546DFF88076824501BF386850
S3150000C8B030F815A04FF6FF70824516D1F5F7A7FDA3
S3150000C8C0DFF88C160A88C2F3090300F47C4040EABC
S3150000C8D0030A501C80B2B0F5006FA8BF0120088083
S3150000C8E05046FFF768FF0028E8D1F6F7E9FCDFF8C5
S3150000C8F03C66049983463068082200EBC500F5F7CC
S3150000C90019F9386820F815A0DFF82406DFF834A6F0
S3150000C910006820F815405846F8F7E0F8DAF8000005
S3150000C92040F82590DFF8300690F90010404600F0F8
S3150000C9303CF840460EF021F9386830F81500C0F38F
S3150000C94009016846F5F77FF99DF8000040F01000F0
S3150000C9508DF80000600705D59DF8000040F008003E
S3150000C9608DF80000A00405D59DF8000040F00400F5
S3150000C9708DF800000822306800EBC5010DF10200B9
S3150000C980F5F7D8F8DAF8000050F825200DF10A017D
S3150000C9900020F5F75CF90E236A4641460D2008F0A3
S3150000C9A043F9012005B0BDE8F08F38B50446FF2CE9
S3150000C9B00D460CD00DF081FD00F01CF821F8140096
S3150000C9C015F1800F03D0DFF894050068055531BDD9
S3150000C9D0DFF8501510B509788842044608D20DF0E4
S3150000C9E06CFD00F007F831F81410401A80B210BD43
S3150000C9F0002010BD4FF47A71B0FBF1F0DFF8481556
S3150000CA00096870472DE9F14F0C46DFF840A5002173
S3150000CA105046002708F0C3FCB84614E01022294609
S3150000CA202046F5F7F0F838B94846FFF7D1FF0FB1C1
S3150000CA30404501D280465F461035B542EED3594691
S3150000CA40504608F0DBFC83465FEA0B0014D05846DC
S3150000CA50F8F77DFD05465846F8F791FD2E18002D8E
S3150000CA60F5D015F8019B9DF80010894501D158466F
S3150000CA7003E0002CE3D0E0E73846BDE8F28F2DE96D
S3150000CA80F04F804613204FF0000B95B01870894682
S3150000CA9083F801B09F1C924603AC4D4600260097D2
S3150000CAA007E0082204F1090101A8F5F743F84FF061
S3150000CAB0010B287801064CBF0921112109EB0A0256
S3150000CAC069188A422CD3010606D41122294620462B
S3150000CAD0F5F730F8113511E0611C00F00F0014F085
S3150000CAE0F3FC402818BF0935E3D1287820700822C6
S3150000CAF0691C04F10900F5F71DF80935601CF5F706
S3150000CB0097FF0028CDD1F6B2032ED2DA601C07F0CB
S3150000CB103AFB10B96078FF28CBD11134761CC8E7F0
S3150000CB205FEA0B0018BF761C3001441C002140460A
S3150000CB30E4B2FFF767FF012C8246DFF8105405D1F7
S3150000CB405FEA0A0012D000F060F80FE05FEA0A0020
S3150000CB5005D0F8F714FDA04212DA00F056F80021CD
S3150000CB602046F8F70AFE5FEA000A03D1384615B0F8
S3150000CB70BDE8F08F00225146284608F018FC08E070
S3150000CB805046F8F7FCFC844203DA21465046F8F793
S3150000CB900FFD5046F8F7DBFC8146BBF1000F09F8A4
S3150000CBA0018B03AC16D04846F5F736FF082201A9DB
S3150000CBB009F10800F4F7BEFF09F11009761E09E035
S3150000CBC01022611C3846F4F7B5FF1037761E113473
S3150000CBD009F11009F0B290B11022611C4846F4F731
S3150000CBE0A9FF207807F8010B20780006E8D508226F
S3150000CBF004F109013846F4F79DFF0837E6E7009887
S3150000CC000099381A01F8010CB0E70022514628466F
S3150000CC1008F01EBC38B50024DFF8085302E000F027
S3150000CC2006F8641C2978E0B28842F8D331BD1FB5F6
S3150000CC30044600216846F5F706F8082200210DF1A2
S3150000CC400200F4F7D9FF042200210DF10A00F4F7DF
S3150000CC50D3FF0E236A4621460D2007F0E5FF1FBDD0
S3150000CC602DE9F041DFF8C062DFF8C472044630688F
S3150000CC70254630F8150000F0F2FB386830F815004C
S3150000CC80400404D5204600F040F803F076FCF6F7A1
S3150000CC9017FB8046DFF8940200680822002100EBAB
S3150000CCA0C500F4F7A9FF3968002021F815004FF6F2
S3150000CCB0FF70316821F815004046F7F70FFFDFF8DF
S3150000CCC0741209684FF0FF3041F82500DFF868124A
S3150000CCD0096841F825000020DFF86412096841F868
S3150000CCE02500DFF86412096821F8150000212046A6
S3150000CCF0FFF788FE010004D00022DFF8500208F09A
S3150000CD00A7FB2046BDE8F04191E78949096811F87B
S3150000CD101010C90704D58449096831F81000704716
S3150000CD204FF6FF7070471F460020FFE480B50DF0F8
S3150000CD30EBFDFF2804D000F010F80006800E11E08D
S3150000CD40002002BD80B50DF0DFFDFF2803D000F006
S3150000CD5004F8800B06E0002002BD7549096831F829
S3150000CD601000704700F0010002BD80B50DF0CCFD4B
S3150000CD70FF2804D06D49096801EBC00002BD002000
S3150000CD8002BD70B50022674901E0521CD2B20B7891
S3150000CD909A4213DA664B1D6835F81260B307F4D56C
S3150000CDA0664B1B689C56241A14F1400FBDBF4FF604
S3150000CDB0FD73334025F812309C54E6E770BDF8B594
S3150000CDC05B4F15463A68064612F816200C4692073F
S3150000CDD018465A4903D40B686FF07E029A550968C3
S3150000CDE03144FFF755F870B1386830F8161041F045
S3150000CDF0020120F816104F48006840F826404E48B9
S3150000CE00006840F82650F1BD00200FE04849096847
S3150000CE1011F81010890708D5464A1268002142F811
S3150000CE202010454A126842F82010401C3D490978F6
S3150000CE308842EBDB7047F8B504461546FFF773FFEB
S3150000CE400646FF2E22D03A48006810F816008007E2
S3150000CE501CD56846FFF716F828B940F2A6210FF24E
S3150000CE600010F6F737F93548006800998257891897
S3150000CE700091012F0CBF30492E49096801EB860746
S3150000CE800099A94204D13868844208D20020F2BD34
S3150000CE90FCD281192846FEF7FBFF0028F6D0601C5D
S3150000CEA038600120F2BD3EB50546F3F70FFF204C72
S3150000CEB080B101A905F10800F3F79FFE01A9002042
S3150000CEC0FFF734FC0146FF2904D0226812F811103E
S3150000CED0890725D42946FF20FFF794FD010004D0D9
S3150000CEE0F8F735FB08B100783EBD2846F3F7EEFEAD
S3150000CEF018B92846F5F79CFD88B1694605F1080082
S3150000CF00F3F74FFE58B1BDF800000DF0FDFC0146E9
S3150000CF10FF2904D0226812F81110890700D4FF20D7
S3150000CF203EBD0000EFE30320B8DE0320BCDE032095
S3150000CF30B4DE0320C8DE0320CCDE0320D0DE0320CF
S3150000CF40C0DE0320C4DE0320D4DE0320A4FE0320BB
S3150000CF50E0E30320B6F60320D6E30320D8DE032061
S3150000CF606368696C642D646174612E63000000005F
S3150000CF702DE9F04704460D46DFF868A291460021E8
S3150000CF80504608F00CFA8046002606E04146504618
S3150000CF9008F034FA761C8046B6B25FEA08000FD075
S3150000CFA0F8F7D5FA0700F1D0F878A84205D12A4655
S3150000CFB02146381DF4F727FE08B14E45E6D138461E
S3150000CFC0BDE8F0872DE9F8430546EF6A7C79B81D80
S3150000CFD0F4F72FFEADF80000E87E97F80380FF28EF
S3150000CFE040F0A68005F11B00F3F7C0FE002874D1BF
S3150000CFF005F11B00F3F7C1FE00286ED105F11B00F9
S3150000D000F3F794FE002868D1687A002804BFB87840
S3150000D0106D2873D1B8F1040F18BFB8F1020F6DD1A6
S3150000D020BDF800004FF6FF76B04203D105F11308B4
S3150000D030082715E0B8F1020F06D1694605F113007D
S3150000D040F3F7AFFD002874D0BDF80000000A8DF894
S3150000D05002000DF10208BDF800008DF8030002275A
S3150000D060324639464046FFF783FF06005D4D35D10F
S3150000D070284608F084F9082840DA381D002180B2D5
S3150000D080F8F77BFB0028814638D0F8F760FA0600EF
S3150000D0904ED0F7703A464146301DF4F74BFD3470DA
S3150000D0A00020707000222820B0704946284608F0FB
S3150000D0B07EF94D4C2046FAF707FA30B10DF0F3F938
S3150000D0C0B17840186988401A31E042F21071204662
S3150000D0D0FAF7AAFA0DF0E7F9688029E03078011B23
S3150000D0E0C9B259B1A1F10902772A07D309290ADA87
S3150000D0F00120491E88407178014201D0012018E0C4
S3150000D1000843707014E0201A401EC0B20828A8BF59
S3150000D110002005DA7178490041F0010101FA00F0BA
S3150000D120707034700DF0BFF96988401A2830B070FD
S3150000D1300020BDE8F2832B490020088070472DE9C6
S3150000D140F8430DF0B0F9274D04466888261A28885A
S3150000D150ADF800004FF6FF770020B6B2B84628803B
S3150000D16015E00021684608F053F98146F8F7EFF913
S3150000D17068B181788E420ADA891B81702846C9B265
S3150000D1804145B8BF88460022494608F010F968466E
S3150000D19008F0F0F80028E4D0B84505D0FA2000FBE6
S3150000D1A008F11148FAF740FA6C80BDE8F18310B532
S3150000D1B00E4C217801703F20014204BF032007F086
S3150000D1C059FD2078401C207010BD80B504237F22B5
S3150000D1D00321684607F018FD00980449800108708D
S3150000D1E001BD000040FF032018E3032081FF032058
S3150000D1F0DFF83825012111700021DFF83425108071
S3150000D200101DFAF711BA2DE9F041DFF82065044642
S3150000D210B0888846F8F7B3F90746E519A84505D258
S3150000D2204FF4A5710FF23450F5F754FF00F00CF8E7
S3150000D230B088F8F78CF901463A462046F4F77AFCAE
S3150000D2402846BDE8F081000001205DE100000000F5
S3150000D2502DE9F047DFF8E07480463888F8F777F96B
S3150000D26006463888F8F78BF94FF0000A37180EE0B3
S3150000D270304606F03BFB3044F4F7DBFC404500D17A
S3150000D280CA46EDB27619BE4202D10CB12746002439
S3150000D290BE422FD2304606F047FB05460AF1010092
S3150000D2A05FFA80F9307840080628EAD8DFE800F00F
S3150000D2B01106110404180500E3E7D9E7304606F025
S3150000D2C0AFFC3C460746F078C01D0004C00C051DA7
S3150000D2D0D7E74146304606F0A4FE0028D1D0CFE776
S3150000D2E0304606F09DFC3C460746304607F00BF9F3
S3150000D2F00546C6E75046BDE8F087DFF840040078EB
S3150000D300062800D1704770B5FFF79EFFF5F77FF846
S3150000D310FFF79EFF0446002000F0F6F88442DFF88F
S3150000D3201054DFF8086406D100203070281DBDE8CF
S3150000D3307040FAF7C9B9307838B901203070002149
S3150000D340281DBDE87040FAF76FB970BD032802BF0B
S3150000D350DFF8D8030178022906D1002101704FF6C3
S3150000D360FE70DFF8CC130880704710B5C2B00DF51B
S3150000D370817101A8FFF747FF0446F5F748F8002139
S3150000D380009101AA01A9631A9BB24FF6FE7106F03D
S3150000D390C8FDDFF898130020087042B010BDF0B544
S3150000D3A0DFF888430FF2B43021780129DBB004D0CE
S3150000D3B053D303294DD049D34FE006F0B6FC0546BA
S3150000D3C0DFF87C03007810B1FFF7CFFF45E04FF69A
S3150000D3D0FE77BD42DFF8586308BF4FF4FA6131D0DB
S3150000D3E0DFF850030078000737D559A90DF166001C
S3150000D3F0FFF709FF0A218DF8641019A9411A32882E
S3150000D400891E8DF86510BA421CBF022103F090FBFD
S3150000D41019A9431A9BB219AA2946684612F06EFA50
S3150000D420DFF820030FF248311590002242F6E06043
S3150000D43016906846FAF7B1FC10B9022020700CE08D
S3150000D44040F6B831301DFAF7EFF806E040F29B21BE
S3150000D45001E040F29F21F5F73DFE5BB0F0BD10B54F
S3150000D4600446DFF8DC0200789AB048B1002000904C
S3150000D470002300224FF6FE71204606F052FD26E0FC
S3150000D4802046FFF7E5FE10B322460221684603F068
S3150000D4904FFB04466846201A052805D340F2AB2107
S3150000D4A00FF2B820F5F716FE06F03FFC6946631A40
S3150000D4B001469BB26A4601A812F020FA42F6E060E5
S3150000D4C0179000220FF2A82101A8FAF766FC1AB0FD
S3150000D4D010BD9649002088807047F8B50446964EE0
S3150000D4E092483788808830800D46FFF7ADFE21468A
S3150000D4F0284606F0BCFE4FF6FE718842378014BF00
S3150000D50001200020F2BD00002DE9F14F84B0874CC8
S3150000D51038B1F4F77CFF6188884208BF002000F02C
S3150000D5208280F4F774FF60800025A088F8F70FF872
S3150000D5300746A088F8F723F807EB000800260295AF
S3150000D540A946019516E0381D0290384697F80390D3
S3150000D55006F066FB46468046F878C01D0004C00CFF
S3150000D56000F1040A5FFA8AF00744474502D10EB17A
S3150000D570B0460026474555D2384606F0D5F93B78E1
S3150000D58082465808691C0628C9B2EBD8DFE800F0C5
S3150000D59006050604042D3800E4E7D4E79DF81000DC
S3150000D5A00D4620B16188B81CF4F74DFBDAE701207F
S3150000D5B000904A4660480299008806F050FD5FEAEE
S3150000D5C0000B2DD0F4F723FF0146584606F029FD3F
S3150000D5D030B3397849080CBF012202220146381DB2
S3150000D5E0F4F711FB0028BDD01AE00197384606F083
S3150000D5F017FB46468046384606F085FF8246B1E769
S3150000D6009DF810000D4628B1384606F06FF961887E
S3150000D6103844C9E70198394607F026F90028A1D110
S3150000D620FF2000E0284605B0BDE8F08F2DE9F04761
S3150000D630454D0446288888460100924608BF0020CA
S3150000D6400CD0F7F784FF07462888F7F798FF3D18B0
S3150000D650D1460026B7B9A9EB0A0080B2BDE8F0872B
S3150000D660401C82B242450CD280B2225C9142F7D174
S3150000D670BAF1000F04D0324639464846F4F75AFA52
S3150000D680B144BF19AF42E6D2002FFAD07878397884
S3150000D690C6000020E5E7FEB50D46014616461C46C7
S3150000D6A00FF2D4000CF0E0F908B10020FEBDAA1973
S3150000D6B02946082006F0BEFA060003D100F046F817
S3150000D6C0802118E071780022B01CFFF7AFFF0546F5
S3150000D6D00027DDB11C4F3888F7F751FF854208BF98
S3150000D6E03F8813D000212846F8F747F8070006D1EF
S3150000D6F000F02CF8A3212046FAF714FF12E0F7F702
S3150000D70026FF02467178B01CFFF790FF09208DF8BE
S3150000D71004008DF805500097022301AA44212046F3
S3150000D720FAF70AFF0120FEBD000000009CFE032060
S3150000D7306CE20320B6F6032082F80320B2F603203B
S3150000D7407DF803204DD30000A2FE032000200290A6
S3150000D7500190009000230022704700006C6F636107
S3150000D7606C2D7365727665722D646174612E63002B
S3150000D770612F736400000000612F6E6400000000DA
S3150000D78000B583B048B100F072F86846C17941F03F
S3150000D7900201C17102F06EFD07BD02F06AFD07BD10
S3150000D7A080B5DFF8880B4179092905D1032000F0FF
S3150000D7B09FF9BDE801400BE107291ED0491E072944
S3150000D7C015D8DFE801F00A0406040D202011042014
S3150000D7D000E00320BDE802408AE1BDE80140DCE14B
S3150000D7E0BDE80240072003E2BDE80140F0E0BDE8E5
S3150000D7F0044040F2753101F0F4B9C07A18B1BDE8C1
S3150000D800014001F08BB901BDDFF8200B41790729F2
S3150000D81000D0704780B5C07A032818BF07280ED1FC
S3150000D820DFF8340B008900F064FE08D0F8F7F3F94E
S3150000D830BDE804409621DFF8D80BF9F7F5BE01BD27
S3150000D840DFF8180B00B5007883B020B1DFF8C40B01
S3150000D850F3F790F907BD00F00AF89DF8000000F014
S3150000D860FD008DF800006846F3F784F907BD042132
S3150000D870684601F099BB2DE9F84304468846DFF86F
S3150000D880E09A5E2200214846F4F7B6F910220021FC
S3150000D8904846F4F7B1F905220FF25401DFF88C5A25
S3150000D8A00FF254064846F4F745F909F12807022015
S3150000D8B0F870032038714FF6FF7038800020E88139
S3150000D8C00DE018EA000F09D0B078F2782118484424
S3150000D8D0F4F730F9E88931880843E881361D308845
S3150000D8E00100EED194F82A00B870BDE8F18300007B
S3150000D8F0656D6265720000000100001002001008EC
S3150000D900040020080800280210002B0120002C012A
S3150000D91040002D108000180800013D2000015D0127
S3150000D9200000000038B504460D46F4F78DFD20B121
S3150000D930BDE8324070200AF0CABD00F009F80020A8
S3150000D9400AF0C5FD29462046BDE8344005F0D8BD9D
S3150000D950294620468FE7F8B5DFF8D0790446F889DE
S3150000D9600D46160019BF00F04F014F2900F0470081
S3150000D970472801D0022019E0F4F766FD002802BF0F
S3150000D980DFF8BC0A00780C280FD1DFF8D40980F83C
S3150000D9902B502046F4F749FD0120F8713E72002015
S3150000D9A00AF0A3FDBDE8F14012E07020BDE8F240A8
S3150000D9B00AF09BBD20F08001042900D0704780B595
S3150000D9C00121F4F783FBDFF8581C0020087001BD25
S3150000D9D080B5FFF735FF02F04CFCDFF8840990F8BC
S3150000D9E02B0020F08001042908D101210320F4F73F
S3150000D9F06DFBDFF81C0AF9F767FE02E00121F4F778
S3150000DA0065FB00F0AFFC00210220F4F721FDDFF8F2
S3150000DA101C19022008710120BDE80240E8E038B573
S3150000DA200446DFF80809008A0D46F7F790FD10B1A5
S3150000DA30204400F80B5C31BD2DE9FC4106460F463B
S3150000DA4090461C46FFF7FCFEDFF8E058687920B1E7
S3150000DA50702000F0E1FC002043E0F4F7FAFF3046C6
S3150000DA60F8F715F93846F4F7E0FC4046F4F7DBFC26
S3150000DA700C98DFF8186C0021F4F728FB308840F08A
S3150000DA80010030800020F4F7C4FC0899204600F01D
S3150000DA904FFC07206871308840F400403080A87B36
S3150000DAA0400704D5DFF8F40B00F010FC04E0FFF7A4
S3150000DAB0DEFE684600F00AFC0A98F5F78DFA0B9828
S3150000DAC0F5F7AEFAF4F705FF012005F0B3FCDFF831
S3150000DAD058088078FFF754FEF4F70BFF00F02EF994
S3150000DAE00120BDE8F681DFF8441807204871704729
S3150000DAF070B5DFF838486679054600F033FC012E2C
S3150000DB0008D12079010005D0401E20710120BDE812
S3150000DB1070406DE0A079010012D0401EA0710CF09B
S3150000DB2085FCDFF80458297800F01AFF05F1080093
S3150000DB30F9F77AFD0820607128788000287070BD9A
S3150000DB40DFF81C0890F82B00FFF734FF02F091FB7A
S3150000DB5029460020F4F77CFCBDE8704000F04BBD80
S3150000DB6010B50C468AB0014608226846F4F7B1F8AB
S3150000DB702022002102A8F4F73FF802AA08216846ED
S3150000DB8011F0C4FF082202A92046F4F7A2F8E079B2
S3150000DB9040F00200E0710AB010BD10B5DFF88C4706
S3150000DBA0607A401CC0B21B280EDA6169C140C90701
S3150000DBB0F7D56072F8F76BF8E07958B900F0AEFB6C
S3150000DBC0072807D0012206E0BDE810400022032105
S3150000DBD000203DE2002200210020FDF732FDBDE8D5
S3150000DBE010404FF49671DFF8400CF9F71DBD0000A8
S3150000DBF02DE9FF410646684600F0F9FBDFF82847A5
S3150000DC00DFF82857DFF85877DFF8F08B00F0EBFBEA
S3150000DC106E7107F128066879401E062800F2878093
S3150000DC20DFE800F0041F505C5F8566004FF6FF7763
S3150000DC306078E78078B1308801E00CF0F7FBB842F5
S3150000DC40FBD0F4F7F0FBA078FFF79AFD0A20687284
S3150000DC50FFF7A3FF70E06969052203200CF072F953
S3150000DC606AE0DFF8C81BE07809780840DFF8281A70
S3150000DC70097808420AD0A86920B94FF44271404693
S3150000DC80F5F728FAA9696846884755E00022082171
S3150000DC9005F12C00F4F70EF828B105F12C01DFF898
S3150000DCA07407FFF75DFF05F12C0002F0E3FA97F821
S3150000DCB05D30298807F13D026846FBF7BFF8DFF8BB
S3150000DCC09C1C10E0012004F0CAFA20B940F227316A
S3150000DCD04046F5F7FFF942F6E06104E041F288318B
S3150000DCE001E04FF4967104F10800F9F79DFC23E07A
S3150000DCF000F081FC00F012FB062807D100F01EF8A8
S3150000DD00012200210020FDF7D9FA0DE0072802D1F3
S3150000DD1000F014F808E0A078FFF732FDF078FFF77E
S3150000DD2049FE172000F0BCFCF4F7E3FD04E04FF4D5
S3150000DD3054714046F5F7CEF9BDE8FF810021032076
S3150000DD40F4F786BB2DE9F04192B080460CF0ECF872
S3150000DD5005464046F7F713FC441B4046F7F7F7FB2A
S3150000DD600619F6B21A2EC0F28E8040460CF0EBFC75
S3150000DD70B0F5004F78D040460CF0E5FCB0F5004F0A
S3150000DD8072D0422200216846F3F736FF08AC2878A5
S3150000DD90A07040466F780CF0DDFC0146082206A80C
S3150000DDA0F3F7C8FE1022A91C6846F3F7C3FE082243
S3150000DDB005F1120104A8F3F7BDFE03214046F7F76B
S3150000DDC011FEE07001214046F7F70CFE607102215A
S3150000DDD04046F7F707FEA0714046F7F7B8FB083054
S3150000DDE0F3F724FFADF8200007F001002071F808D2
S3150000DDF000F001008DF840003809E07105F11A07BE
S3150000DE003544381DA8420AD23878122804BF7878DB
S3150000DE10022804D1B81CF3F709FFA0833F1D381D63
S3150000DE20A8420AD238780F2804BF7878022804D18D
S3150000DE30B81CF3F7FBFEE0833F1DB81CA8420BD2CB
S3150000DE403878082808D17A78112A05D2A276B91C22
S3150000DE500DF12A00F3F76EFEDFF8D00440790128B1
S3150000DE6003D1684600F013F80DE0DFF8D40500781A
S3150000DE70012803D1684613F057FB04E0052804BFC8
S3150000DE80684603F014FB12B0BDE8F08100BF2DE92F
S3150000DE90F84FDFF89494DFF894448046B9F806000A
S3150000DEA008F1200700F025FB94F9020097F9061007
S3150000DEB00CBF4FF0010A4FF0000A8842F879B4BF50
S3150000DEC001250025421E9241D20F8DF80120E178EE
S3150000DED04A1E9241DFF8401C0978D20F8DF80020C7
S3150000DEE0062962790CBF01260026012A09D10228DB
S3150000DEF007DBB878032804D1072903D198F8400036
S3150000DF0078B989E0387938B1B97E080004D008F1CB
S3150000DF102A0002F00DFD20B9A07B00F0470047283B
S3150000DF207AD10022082104F12400F3F7C3FE78B960
S3150000DF300022082108F11800F3F7BCFE40B90822B8
S3150000DF4008F1180104F12400F3F75DFE002863D1FF
S3150000DF50A07BDFF80CB4C0070CD500221021584670
S3150000DF60F3F7A8FE30B9102241465846F3F74BFEA8
S3150000DF70002851D1A07B40070CD5002208210BF1C7
S3150000DF802000F3F797FE28B900F048F8F3F73BFEB8
S3150000DF90002841D1A17B09070BF1280003D5018890
S3150000DFA03A88914238D19DF801109DF800209DF8DD
S3150000DFB000302940324311409DF80120324382F05F
S3150000DFC001022B4341EA0A011A40114324D0F97891
S3150000DFD08170B979A17039880180414600F09EF9B7
S3150000DFE007280CBFF88BB88B20801022F879E070D8
S3150000DFF05846F3F79FFD00F011F8F3F79BFD4FF637
S3150000E000FE70A9F8060008F1180104F11C00BDE82D
S3150000E010F84F0822F3F78EBDBDE8F18F082208F10C
S3150000E02010010BF12000704738B5DFF8344304F1D6
S3150000E0302805A878F7F72BFE2888F4F7F4F904F1F9
S3150000E040200000F043F92046BDE8344010216FE17E
S3150000E050F0B5020085B040F09180B44DC04C6879AF
S3150000E060012833D10022082105F11C00F3F722FE16
S3150000E070B8B9FFF7D9FFE87970B100F04FF9062873
S3150000E08008D10022082104F11800F3F713FE08B1A5
S3150000E090062002E0072000E0022005B0BDE8F040BF
S3150000E0A0A6E5287A68B1FFF7BFFF12F0A8FC0120A9
S3150000E0B005F0C0F90720687105B0BDE8F04000F032
S3150000E0C0BFBC05B0BDE8F040022011E5022903D12E
S3150000E0D005B0BDE8F040B5E1042904D105B0BDE8BE
S3150000E0E0F04003F097B9032941D1288AF7F72FFAB0
S3150000E0F0EB8903F00806320004F128014FF6FF779A
S3150000E1000FD14FF0000C00281CBF30F81C20BA427B
S3150000E11008D10CF101025FFA82FCBCF1080FF2DBB8
S3150000E1201CE00A88BA4218D018064CBF04F1180041
S3150000E130002003909B074CBF04F11003002300202E
S3150000E14001900293102000902346CE7891F9041096
S3150000E150A87A0496FFF770FC16E01EB905B0BDE874
S3150000E160F040A9E105B0BDE8F040702054E1052972
S3150000E1700AD105B0BDE8F04003F0BCB9022903D1CD
S3150000E18005B0BDE8F04047E105B0F0BD674840790D
S3150000E190062804BF0720FFF72BBD704738B5634D2F
S3150000E1A00446687903280DD1FAF78AFC1CB1BDE84C
S3150000E1B0324004201CE5092068714FF4FA61BDE87D
S3150000E1C0344010E531BD59484079022804BF042087
S3150000E1D0FFF78EBC7047DFF8401C4A78002814BF52
S3150000E1E042F0010002F0FE0048707047DFF8280C8C
S3150000E1F0407850E070B50C0086B00646DFF8D45B78
S3150000E20003D11A20287000203DE068461421F4F757
S3150000E21013FF112CA8BF102408208DF800008DF8DC
S3150000E2200140224631460DF10200F3F783FCDFF888
S3150000E230E86BA21C92B2694606F11A00F3F77AFC63
S3150000E2403019122100F81C1F02214170DFF8E41B6F
S3150000E2500A88120A82700988C170717809070ED57A
S3150000E2600F21017102214171DFF8B81C0A88120AD8
S3150000E27082710988C1717078000748BF241D04F1B6
S3150000E280200028700120FFF7A6FF06B070BDDFF85A
S3150000E290880B4078C00800F00100704780B523481D
S3150000E2A04079022818BF03280CD007280CD1DFF8C4
S3150000E2B0680B4078C00705D404F060FA90F8560061
S3150000E2C0400601D5012002BD002002BD01460822FC
S3150000E2D0DFF8640CF3F72EBC10B5DFF8B0432088E6
S3150000E2E0000403D440F2375100F0A2FBDFF8E41A31
S3150000E2F01A2008700321DFF8200B0170417841F0E5
S3150000E300200141702078C00703D400F007F80228E6
S3150000E31003D1BDE81040FBF747B910BDDFF8F80799
S3150000E32000787047000000009CE103205CF70320A2
S3150000E33070B50D46112D0446A8BF1025DFF8D86A22
S3150000E34010220021B01CF3F757FC2A462146B01CC8
S3150000E350BDE87040F3F7EEBBA0F7032073FF032080
S3150000E360FCF6032038B5DFF8D45BDFF82444002040
S3150000E3706871E8724FF6FE70F4F74BF802F02DFB69
S3150000E3804FF6FF70E0800822002105F11C00F3F72C
S3150000E39033FCFF2020710020DFF8A41BBB4D087062
S3150000E3A02888C0F30E002880F8F71DF9FBF77DFBDF
S3150000E3B0DFF8901B00200870FAF7E0FEFFF789F8F7
S3150000E3C002F0B7F8FEF7B7FEFBF712F90020FFF7E9
S3150000E3D002FF0120207000F006F828884FF6FE7133
S3150000E3E00840288031BD04F10800F9F76DB980B501
S3150000E3F0DFF89C13C9884FF6FF72914201D10020C5
S3150000E40002BD0146DFF8400BF2F751FC012002BDC8
S3150000E410B0E103204CF8032010B50446DFF81C1BBE
S3150000E42000200882F4F710F820B92046BDE8104015
S3150000E43009F069B8BDE8104001210020F4F708B8DA
S3150000E440C0E20320F8B5DFF8F45A288AF7F77FF818
S3150000E450FF240027060014D00020315CA21F914241
S3150000E460BCBF8C1DE4B2401C1028F6DB0020315CDA
S3150000E470A142BCBF7F1CFFB2401C1028F7DB38004E
S3150000E48003D1BDE8F2400120C6E70BF0CFFF90FBB9
S3150000E490F7F107FB1101C9B20020325CA24206DA8D
S3150000E4A00A0002D10B30A87204E0491EC9B2401C12
S3150000E4B01028F2DBBDE8F14070B5DFF8804A208A0B
S3150000E4C0F7F745F8054600260BF0B0FF00F011F807
S3150000E4D01EBF002D25F81600761C082EF4DBA17A47
S3150000E4E0BDE87040012000FA01F1052203200BF07F
S3150000E4F029BD4FF6FF718842704770B5044620006B
S3150000E5000FBFDFF8480A0120A0400843DFF82C1AA5
S3150000E51098B0154648611E465E2200216846F3F70C
S3150000E5206BFB1E99082208A8F3F704FB324629461E
S3150000E5306846F3F7FFFA1F9E102231460DF12D00B3
S3150000E540F3F7F8FA1D9D0822294604A8F3F7F2FA14
S3150000E55020998DF82A403046FDF70AFC2846F4F744
S3150000E5603BFD1C9847214FF6FF7290421CBFADF849
S3150000E57028004F216846FFF7D5F918B070BD01464F
S3150000E5801022DFF8CC09F3F7D5BA38B50446DFF820
S3150000E590AC5900F01CF820B12046BDE832400EF020
S3150000E5A054BD05F1340032BD38B5DFF89059044644
S3150000E5B06879042802D100F00AF810B168790728B2
S3150000E5C004D12046BDE8324007F096BA31BD00229C
S3150000E5D0102105F13400F3F76DBBDFF83C05007838
S3150000E5E0072805D0DFF854094079022802D1032014
S3150000E5F0FFF7FEBA704710220021DFF85409F3F73F
S3150000E600FBBA80B5FFF7F7FFDFF830094079042839
S3150000E61004D1BDE802400520FFF7EABA01BD0000BB
S3150000E62084FF032010B55A4C60791B2811DB0B20A0
S3150000E630607104F12000F9F747F800F0F0F8DFF810
S3150000E640FC180020C8720021BDE810400420F3F732
S3150000E650FFBE04F093F85A3002F078FE0146607966
S3150000E660C140C90748BFFCF778FF6079401C60715C
S3150000E670322104F12000BDE81040F8F7D5BF80B57F
S3150000E680F7F702FBDFF8B418087301BDB6F60320EE
S3150000E690DFF8C4087047000077FF03201CF703204B
S3150000E6A0002100E001212DE9F041DFF890680446E1
S3150000E6B0707907280D464ED1F07ADFF8D480010034
S3150000E6C00AD0062818BF072845D108F10800BDE87A
S3150000E6D0F0410021F8F7A8BFDFF8807838780028E5
S3150000E6E014BF00200220B071280028D100F0B9FB29
S3150000E6F007207071DFF868080188C1F30E010180F8
S3150000E70000F02BF84FF6FF70A8F80600DFF80804B3
S3150000E7100078022818BFFDF729FF0822002106F11C
S3150000E7201C00F3F769FA387848B9FAF727FDDFF8DD
S3150000E7301018002008704FF6FE70F3F76AFEDFF837
S3150000E7401468802200213046F3F756FAB47035710A
S3150000E750BDE8F0411EE0BDE8F08180B502F03DF96C
S3150000E760F7F741FFFBF7A1F9DFF8D817002008708B
S3150000E770FEF7AFFE01F0DDFEFEF7DDFCFAF738FF2F
S3150000E780DFF8DC0701884FF6FE721140018001BDFB
S3150000E7909CE1032038B5DFF8A417A44CDFF8B45782
S3150000E7A00020C872FF202071FFF71DFE012068704F
S3150000E7B008220220287000214FF6FF702881A5F854
S3150000E7C0440005F10A00F3F717FAFFF7A7FDE87012
S3150000E7D020F08000042807D101210320F3F776FCFE
S3150000E7E004F11400F8F770FFDFF870070078BDE851
S3150000E7F03240002814BF02200120B9E088EF000053
S3150000E80080B5DFF86007F8F75FFF00F008F8DFF87B
S3150000E8102C170020C8721220BDE8024040E7DFF83E
S3150000E8203407C078FFF7C6B8A4E103208CF80320AC
S3150000E8302DE9F041DFF80457DFF81847EF7A03F0C7
S3150000E8409DFF00280FBF012690F85600400900F0F2
S3150000E8500106207910B10020E8727CE0022FDFF873
S3150000E860CC8121D12078010032D0401EDFF8EC1691
S3150000E8702070C0B2097880B900291EBFDFF8E8060B
S3150000E8800078002803D0FAF779FC022020700020D7
S3150000E890DFF8AC160870012003E0002914BF02203F
S3150000E8A00120BDE8F04163E0A879010018BF012FFF
S3150000E8B00ED0401EA8710BF0B9FD617800F050F83B
S3150000E8C000F0BAF80420E87260788000607042E0D8
S3150000E8D0F3F7BAFD052804BFA078142808D104F080
S3150000E8E031FD28B10020E87204F0CBFC15200BE0C6
S3150000E8F0F3F7AAFD05280AD103F07AFF38B1002004
S3150000E900E87204F0C4FC1620BDE8F041C8E6F3F74F
S3150000E9109BFD052812D1FFF701FD022818BF062826
S3150000E9200CD15EB112F06BF80020E872F3F7E1FF4C
S3150000E930BDE8F04100210320F3F78ABD05F069F92F
S3150000E940F4F790F80820E872002108F12000BDE8ED
S3150000E950F041F8F769BEBDE8F0810000400D030004
S3150000E9604FF47A72514390FBF1F201FB12017047AA
S3150000E9702DE9F0410646DFF8B48086B008F10800BC
S3150000E980F8F7A2FEDFF8B455012EEE7204D045D397
S3150000E990032E0FD006D341E00020FCF7DFFC40F247
S3150000E9A0EE2104E00120FCF7D9FC40F2E24100F040
S3150000E9B043F837E0DFF89C6501A906F10A00F2F793
S3150000E9C076F941F6583100F037F8F41C524F2078AA
S3150000E9D0FEF7F0FF3878042808D1DFF890150120FB
S3150000E9E00870962108F11400F8F71EFE607830B919
S3150000E9F0082206F10A0105F11C00F3F79BF83878A6
S3150000EA0096F8312004280CBF012300230020009033
S3150000EA1006F1210101A8FCF714FD03E040F61801F8
S3150000EA2000F006F806B0BDE8F08100009CE1032086
S3150000EA300FF25450F4F74EBB08F10800F8F7F4BD96
S3150000EA402DE9F041344D2878062882B003D140F6EE
S3150000EA501E01FFF7EDFFDFF8E444DFF81465DFF889
S3150000EA60F4840020E07208F1020706F10800F8F7C6
S3150000EA702BFEFFF763F9B87818B1FFF76EFEFAF7C9
S3150000EA807DFBDFF8C004007868B9F88808F10A0150
S3150000EA9008F080FD08F134010A7B8B6800924A6811
S3150000EAA0096809F015FA2878042804D1DFF8BC149F
S3150000EAB00020087012E002280CD1DFF8A4040078C8
S3150000EAC0C00758BF0BF0A6FF387812F085FE11F08C
S3150000EAD080FF03E0032808BF0BF09CFFF3F709FF54
S3150000EAE03878122806D10B20707106F12000F8F74D
S3150000EAF0EBFD0CE011280AD1F7F7C6F80146207B9A
S3150000EB00884204D04FF47A72032103F051FFBDE826
S3150000EB10F34103F071BE0000B2F6032070B5DFF8D2
S3150000EB201C44DFF83004E17A491E062900F1080585
S3150000EB304FF6FF7651D8DFE801F025393E1950042B
S3150000EB400C000020E0724FF6FE70DFF828140880F3
S3150000EB5008E0DFF81C5405F11400F8F7B5FDEE8067
S3150000EB600020E0721420BDE8704099E5C01C417891
S3150000EB7011B10020E07270BD0078FEF71BFFBDE802
S3150000EB80704007E62888B0420ED0A87C022803DA37
S3150000EB90287E202808DB01E003281ADADFF8D813DC
S3150000EBA0287E0978884214D2022013E02888B042D1
S3150000EBB00FD1022003E0A98FB14203D10320BDE8A3
S3150000EBC0704035E600F144013C222846F2F7B2FFD8
S3150000EBD0AE870320BDE87040CAE6BDE8704040F647
S3150000EBE0AB010FF2A430F4F775BAD449C97A0329F8
S3150000EBF005D1002818BFFFF723BF032018E670478A
S3150000EC0038B50D4604462888FFF773FC27D02B7EBF
S3150000EC10217E05F1130204F1130011F074FF10B107
S3150000EC2001281EDB1BE0A17CA87C884221D1288814
S3150000EC30C0F30900411E20888941C0F30902501E15
S3150000EC408041C00FB0EBD17F15D1E868E2680102C0
S3150000EC501302090E1B0E8B4205D0994201DA0120E0
S3150000EC6032BD002032BD0BB9904202D1298A228AD8
S3150000EC7091428041C00F32BD70B5154682B0044640
S3150000EC801E463C22F2F756FF28460BF063FD01466E
S3150000EC900822A01CF2F74EFFB27B716B04F119003B
S3150000ECA0F2F748FFB07B84F829000020B16EF2F736
S3150000ECB0EDFF44F82C0F0020F16EF2F7E7FF6060DD
S3150000ECC06846FDF7DFF828B170680099814238BFC1
S3150000ECD0FDF76FF87068A060B07C207373BD2DE9F6
S3150000ECE0F04F8B460BF11C0691B08046B06D01903B
S3150000ECF0022140460BF1C004F6F774FE256807466C
S3150000ED0029460020F2F7C2FF814695F806A06A79E7
S3150000ED100198514611F030FF10B904F0E7FE55E0B6
S3150000ED2030880199ADF8080005220DF11B00F2F7B5
S3150000ED3001FF8DF820A078B208F0B4FF074608F06E
S3150000ED40D9FF24798246204608F0D4FF054630884C
S3150000ED5080050BD189480268100007D069460BF17F
S3150000ED601300904710B19DF8000003E05046A842FA
S3150000ED7088BF28468DF81A00E019ADF8180029F06A
S3150000ED807F4005909DF81A0000B3724E06F1080107
S3150000ED9002A8FFF735FF60B13C2206F1080106F133
S3150000EDA04400F2F7C7FE5B46424602A906F1080098
S3150000EDB00AE006F1440102A8FFF722FF30B15B46E4
S3150000EDC0424602A906F14400FFF756FF11B0BDE81E
S3150000EDD0F08F0000ACF9032070B504460846574989
S3150000EDE0C97A032915460CD15A4E082206F10A01A2
S3150000EDF0F2F709FF28B9F06BA84204D1706B844280
S3150000EE0005D2002070BD3CBF281A4028F9D2746391
S3150000EE10F563012070BD0000B0F903204D48836BF7
S3150000EE20934201D3002070470181511C8163012068
S3150000EE3070470000E6E3032080B5F3F7E8FA4D4992
S3150000EE40088000F00EF83D48072141710621C17285
S3150000EE5040F2DC514A48F8F7E7FBBDE80140FCF711
S3150000EE6053BA00210520F3F7F3BA7FB53348C17AC8
S3150000EE70062927D10021C17200253948414E018853
S3150000EE8041F4004141F00101018003200021F3F724
S3150000EE90DFFA3B48F8F718FCFDF7B7FBFAF784FBF7
S3150000EEA0FDF774FC04460AE03268694602EBC500C9
S3150000EEB0F1F7FDFE02216846FCF763FB6D1CEDB21F
S3150000EEC0A542F1DB7FBD10B5FFF7CBFF1B48284CF1
S3150000EED007214171C172F3F79AFA00F47C40E08091
S3150000EEE0FFF71CFA042804D1002104F11400F8F7F6
S3150000EEF09BFBFCF76DFB04F10800BDE8104040F2F7
S3150000EF00DC51F8F791BB80B50C48C17A072908D1C6
S3150000EF100021C172FEF713FFBDE802401848F8F75A
S3150000EF20D3BB01BDE8E303200448C07A072804BF29
S3150000EF300A20FFF77DBC7047C2F903205CF7032067
S3150000EF407EF803207DF8032078F7032000F8FF07FA
S3150000EF5090F70320A0F70320AAF70320C0FB0320A5
S3150000EF60B6F60320BCE103204AFA032084FF0320FF
S3150000EF709CE1032030E303205DE303205CFB0320D8
S3150000EF80A4E10320BCDE03206A6F696E2E630000D5
S3150000EF9080B5002300931346012212F0DDFC01BD6B
S3150000EFA000F04ABE00F048BE10B54C00014600F025
S3150000EFB023FD224612F0AFFCA04201D0002010BD76
S3150000EFC0012010BD80B500F017FD12F02AFD00B13A
S3150000EFD00120C0B202BDDFF8080B407D00B1012060
S3150000EFE07047DFF8FC2A117B01B9704780B50146EE
S3150000EFF0106A12F06CFD20B1BDE8044040F27111B8
S3150000F000BEE201BD80B500F0F7FC12F07DFC00F019
S3150000F0100300032801D1012002BD002002BD80B5F6
S3150000F020B0F5004F07D100F0D0FDDFF8C80A00F0B8
S3150000F030CCFCBDF80000DFF87C1AC883002002BDB6
S3150000F0402DE9F04F440900F01F050027DFF8F88A84
S3150000F05000E07F1C98F80660F8B2B04236D2D8F8C5
S3150000F0600800FFB250F827004FF0000C01E00CF149
S3150000F070010CC67E5FFA8CFEB645EAD2D0F81CE0DB
S3150000F0805FFA8CFC142616FB0CF6B6449EF8086054
S3150000F09006F00706A642EAD19EF80960B542E6DB0D
S3150000F0A09EF801B09EF8009006EB0B0AAAEB090A3F
S3150000F0B0AA45DCDB11B1AC1B4C440C7012B19EF8B6
S3150000F0C0081011701BB1C3F800E000E00020BDE895
S3150000F0D0F08F400918BF40F01800704710B5DFF8F0
S3150000F0E08C4A206A12F09DFC0246206ABDE8104058
S3150000F0F0002112F0B2BC0B38102834BFDFF84C0ADE
S3150000F100DFF86C0A006870473EB5684600210022A9
S3150000F11000230EC0DFF89C0901788DF80010817A73
S3150000F1200A0018BF022914D10079DFF8405A00F00E
S3150000F130BBF8044600F00EF858B1286A01220021F7
S3150000F14012F0E4FB00F006F818B140F25B2100F083
S3150000F1506AFB37BD286A6A46214612F016BC2DE9BD
S3150000F160F041044604F01F001B2886B034D200206C
S3150000F17000906B46002200212046FFF761FF070042
S3150000F1802AD02046FFF7B7FF5FEA000824D0DFF851
S3150000F1905069DFF8BC59F06B804515D001A841468F
S3150000F1A00622F3F759FF306AC6F83C8001A912F02F
S3150000F1B0D5FC88B9306A03A912F0DEFCB5F91C103B
S3150000F1C0306A12F0A6FC38B90098B06277620098EF
S3150000F1D0002818BFC06801E08A200EE0F062297995
S3150000F1E08C421CBF2C71FFF78FFF96F90D00C101F1
S3150000F1F0306A09B212F07AFE002006B0BDE8F0814E
S3150000F200DFF84C0900797047DFF84409B0F91C00B3
S3150000F210002854BF05216FF0040108180A2190FB4D
S3150000F220F1F040B270470A2110FB01F0FFE7F8B594
S3150000F23000F5D77240F277239A4201D38B20F2BDB4
S3150000F240DFF89C48DFF80859A26A0A23002A1EBF85
S3150000F250AE7F06F0C006802E12D0A67B86B992F944
S3150000F260026016FB03F7B842B8BF16FB03F007DBD4
S3150000F27092F9032012FB03F68642B8BF12FB03F095
S3150000F280217B61B10146206A12F043FC18B140F2BD
S3150000F290B92100F0C8FA206A12F04EFC01E010FB1A
S3150000F2A003F0A8830020F2BD38B50446FFF723FF1C
S3150000F2B090B10023002200212046FFF7C1FE58B17D
S3150000F2C004F01F051B2D07D22046FFF702FF18B9D1
S3150000F2D00B2D01DB284632BDFF2032BD7047C0B280
S3150000F2E0704710F1630F01DA0020704710F1240F08
S3150000F2F001DBFF20704764300002411100EB916092
S3150000F3008004000E704770B5DFF8D447DFF8105A56
S3150000F31000202064687828B112F0ECFD012818BF9F
S3150000F320032801D1002070BDE16ADFF83C3ADFF81E
S3150000F330202800291FBFA66A3669002E022817D189
S3150000F3402364906900F5FA709061E07C18B10020A2
S3150000F3500021642203E0E87829794FF4A072207036
S3150000F360A2806170A878A0708020E080002030E044
S3150000F370DFF8F8599069AE4213D1DFF8F439236407
S3150000F38000F57A709061E07C88B9087920700122D6
S3150000F3908B7808799A40101891F903201018401EAE
S3150000F3A00CE0236400F5FA709061E07C18B100204F
S3150000F3B02080642005E0487820708878607008789E
S3150000F3C00001A0804879A07008890001E080C88803
S3150000F3D00001A06000F0FFFBE07094F9020001005C
S3150000F3E048BF4042C0B270BD70B50446DFF8F06653
S3150000F3F0257896F9140008B18C2070BDFFF783FFBD
S3150000F400B075DFF81C29DFF84807417801746901F7
S3150000F41001F5807181619379716C002BB37B1DBFFF
S3150000F420AD1EEDB221F0020141F0020173B912786E
S3150000F43062B16278920609D56FF00102327541F029
S3150000F4400101826902F50872826104E049084FF001
S3150000F450FF30490030757164032000F001F96A1C21
S3150000F460306A4FF4807392B2214612F06BFD691C2C
S3150000F470884203DA40F21B4100F0D5F9002070BD46
S3150000F48000000000F8B5DFF8585695F9141000246E
S3150000F490091D04290FD8DFE801F0080E101003003B
S3150000F4A0FFF7A2FF040008D0F2BD2C75286A12F0FF
S3150000F4B031FA8D20F2BD8C20F2BD12F05FFDE8B16D
S3150000F4C0286CDFF8A418884218D1A87DB0B1DFF8FF
S3150000F4D04C0A0068002811D5DFF8440AC168C160EB
S3150000F4E00122006800F00F0002FA00F0401E0142FF
S3150000F4F004D100F0B7FB642012F042FDF3F7E0FE02
S3150000F500064695F9140010F1010F1CBF95F9140079
S3150000F51010F1020F29D195F91400DFF83476404234
S3150000F52028750AF0B9FF7862296C387949B9FFF76E
S3150000F530BBFE01466A6C286A07F1100312F01CFA3A
S3150000F5400BE0FFF7B1FE07F11001009101466A6C6E
S3150000F550286AD5F840C02B46E04760B100202875E0
S3150000F5608C244FF0FF30786202E0002028758D244D
S3150000F570286A12F0CFF93046F5F7B0FA2046F2BD08
S3150000F580DFF81C0AF3F7A6BD2046BDE81040F5F7E4
S3150000F590A5BA0000F8B5F3F793FEDFF81855044650
S3150000F5A0A87A012803D12046F5F798FAF1BDDFF8CD
S3150000F5B0F419DFF82C65DFF8E879402008600122AD
S3150000F5C0306A012112F0A2F9DFF8DC194FF40010BD
S3150000F5D0086069460FF2840000680090306A12F0F5
S3150000F5E079FC18B140F2C74100F00AFE02208DF8FE
S3150000F5F000006946306A12F04AFC18B140F2C9416F
S3150000F60000F0FEFD306A12F0A3F90021002012F08E
S3150000F610D1FC00F011FB0120A87296F91400001D20
S3150000F620072810D8DFE800F0130F0707040B0B0BB1
S3150000F63006F0BDF80BE06FF00300307507E0892097
S3150000F64000F045FB03E040F2ED4100F0D9FD204615
S3150000F650F5F744FA09F090F8F1BD00000401000046
S3150000F6602DE9F04DDFF84C540446A87AA04282B04A
S3150000F67063D00FF2CC01DFF834690968DFF820891E
S3150000F680DFF85C74DFF820A9009103284FF4001B13
S3150000F6904FD8DFE800F047023E2B09F076F8386ACB
S3150000F6A0694612F017FC18B140F20A5100F04AF808
S3150000F6B002208DF800006946386A12F0E8FB18B19E
S3150000F6C040F20C5100F03EF86879002814BF002281
S3150000F6D00222386A022112F06FFC18B140F2115171
S3150000F6E000F030F80320032CA87218D0CAF800B036
S3150000F6F00220A8722879FFF7D7FD0146386A002252
S3150000F70012F043F918B140F2215100F01BF8022C17
S3150000F71013D0002C18BF032C0FD10020A872C6F8F6
S3150000F72000B00AE0022C08D1CAF800B00220A87284
S3150000F73003E040F2375100F005F8BDE8F38D000014
S3150000F740040200004046F3F7C5BCDFF8800A807A61
S3150000F7507047000010B5032804460ED8DFE800F015
S3150000F76009020909FFF716FFBDE81040002000F066
S3150000F770C7BB012000F0C4FBE1E1BDE8104040F248
S3150000F7805551FDE680B500F00FF804D5002101754E
S3150000F790006A12F0BFF8DFF8340A407A012802D175
S3150000F7A0BDE80140F6E601BDDFF8240A90F9141021
S3150000F7B000297047DFF8140A407A704780B503289D
S3150000F7C001DB012002BDDFF8041A4872897A8842FB
S3150000F7D018BFFFF7BFFF002002BD2DE97C4FDFF801
S3150000F7E0F06903EA010BD6E9068929EA010528EA48
S3150000F7F0000402EA000A45EA0B0544EA0A044D45FC
S3150000F80008BF44450DD0CDE900230246306A0B46B9
S3150000F81012F062FB18B140F27D5100F004F8C6E91F
S3150000F8200645BDE8738F0FF6E010F3F753BC38B505
S3150000F830AB4D0446287BE8B1200018BFDFF89429B9
S3150000F84004D1A87C08B1402200E000220023DFF8A2
S3150000F85084090021FFF7C1FF002C14BF08220022F3
S3150000F860286A082112F0A8FB20B1BDE8344040F216
S3150000F870B95185E631BDF8B50446022C0FF6881558
S3150000F88003DB40F2E25100F0A5F8954E307B0028EC
S3150000F89040F09780874FB87A012803D04FF4BD61B6
S3150000F8A000F098F8002107F1280012F01DF83062E8
S3150000F8B018B940F2EB5100F08DF8306A052112F0CC
S3150000F8C0A4F918B140F2EE5100F084F8306A0FF650
S3150000F8D04C1112F083FB18B140F2EF5100F07AF8A8
S3150000F8E0306A12F0AFFB18B14FF4BE6100F072F847
S3150000F8F04FF0FF30DFF8E02806230146FFF76DFFE3
S3150000F900306A4FF0011112F0BAF818B140F20561F1
S3150000F91000F060F8306A4FF48032002112F09DF852
S3150000F920306A09224FF0FF3112F046FB18B140F25F
S3150000F9300C6100F04FF8012030730223DFF89C08B9
S3150000F94000F043F8BDF80000C0054CBF0020BDF82C
S3150000F9500000707312F012FBFFF769FFF88BFFF7D8
S3150000F9605EFB00F075FC00F081F83879FFF7F7FBD5
S3150000F97018B140F21F6100F02DF8F87900F040F858
S3150000F980387A00F054F8307C00F082F8787900F08C
S3150000F990C7F800F020F900F0EDF8B07C00F0ECFAC2
S3150000F9A0B7F91C00FFF743FC388C00F085F8788C1B
S3150000F9B000F0A2F8B87900F0CDF8601E8041C00FC3
S3150000F9C0B8722046FFF7C6FEF1BD01887F22684661
S3150000F9D012F0FABB2846F3F77DBB80B500F00CF8B1
S3150000F9E0012111F0D5FF10F5007F02D16FF07F00E5
S3150000F9F002BD8005001602BDDFF8D407006A704715
S3150000FA0010B504463648017B51B1611E8941006A32
S3150000FA10C90F12F069FB18B140F25A61FFF703FFF4
S3150000FA202000DFF8A81718BF0120C87110BDF8B56F
S3150000FA300446F3F745FC05461E48294E0472377BFB
S3150000FA40FFF7C9FA00F0010080F00100074204D078
S3150000FA50306A84F0010112F07AFC2846BDE8F240D3
S3150000FA60F5F73CB8DFF86407007A70471C48017B5D
S3150000FA7001B9704780B5006ADFF86417002212F0FA
S3150000FA8020FB20B1BDE8044040F2856178E501BD68
S3150000FA90DFF83C27117B107401B9704780B5014629
S3150000FAA0106A12F015FB20B1BDE804404FF4D26194
S3150000FAB066E501BDF0DF03202549DFF81437088429
S3150000FAC0197B01B9704780B50146186A002212F009
S3150000FAD0F1FA20B1BDE8044040F2A16150E501BD54
S3150000FAE048E50320DFF8E406008C7047DFF8DC0603
S3150000FAF0408C7047B2D903001549DFF8D4364884E4
S3150000FB00197B01B9704780B50146186A002212F0C8
S3150000FB10CAFA20B1BDE8044040F2B76130E501BD44
S3150000FB20DFF8A8164A79824200D1704710B58C7A60
S3150000FB304871012C02D0FFF72DFD00E010BD2046D4
S3150000FB40BDE810408CE5000094D20300E8DE0320F7
S3150000FB50F0DF032010B50446FFF74EFF214612F0F2
S3150000FB60FCFBDFF86806847110BD000048E5032041
S3150000FB70ECDE032038B504467F2C0CD100F025F8C6
S3150000FB80DFF86006FFF721FFBDF800007E24C00500
S3150000FB9058BFBDF80040F3F793FB0546FFF71BFA85
S3150000FBA060B960B27E2805D1DFF82416896A09B1EA
S3150000FBB091F904007E28B8BFFFF713FADFF80C06A8
S3150000FBC004732846F4F78AFF31BD4FF6FF70ADF88F
S3150000FBD0000002237047DFF8F40590F90C007E2838
S3150000FBE007D1DFF8EC05806A08B97F20704790F9E5
S3150000FBF00400704710B512F0B3FB80041AD500F06C
S3150000FC002BF812F0ADFBC0044CBF032001200021ED
S3150000FC1012F0A8FB12F0A4FB00F0FF004FF47A717B
S3150000FC2011FB00F104F14800BDE81040DFF8B825EB
S3150000FC30FFF7AEB9BDE8104010B500F00DF804F1BD
S3150000FC40480011F092FEFFF7DDF920B9BDE810403B
S3150000FC50002112F087BB10BDDFF8744504F1600087
S3150000FC6011F083BE80B512F07BFB4005BDE8044071
S3150000FC704CBF03200120002112F09CB910B5DFF81B
S3150000FC80504594F9140003280DD100F030F9DFF83F
S3150000FC903C154FF0FF3048620022216BBDE8104052
S3150000FCA0402005F028BD10BD38B50446FFF7C4FF57
S3150000FCB0DFF81C550AF001FC686314B112F033F941
S3150000FCC001E000206874BDE8314005F070BD38B52C
S3150000FCD00446DFF8F814DFF8F8544FF0FF304862B6
S3150000FCE00AF0EBFB686395F91400012802DABDE817
S3150000FCF031407FE7A87D08B1686BA86300202875AE
S3150000FD00286A11F007FEA87B10B10120E87331BD07
S3150000FD102046BDE838400022002105F0ECBC00007A
S3150000FD2084E1032010B512F029F9DFF8A44498B154
S3150000FD30FFF768F980B104F1480011F016FE12F0E1
S3150000FD4013FB002112F00EFBDFF8A02442F2107123
S3150000FD5004F16000FFF71CF9A07C18B1BDE8104063
S3150000FD6000F06BBA10BD00007F19020038020100D6
S3150000FD70851902002DE9F043DFF854440FF2884953
S3150000FD80206A89B005AA022112F0DFF8050003D126
S3150000FD9040F6E70100F0A8F89DF81400DFF82C649F
S3150000FDA0BDF8168007281CBF7079002819D1B8F154
S3150000FDB0060F16DB08F108008B2812D200200090EF
S3150000FDC04346DFF82C74206A3A46294612F0C5F8F5
S3150000FDD0404503D04FF4106100F086F838780006ED
S3150000FDE002D5FFF707FF7CE001208DF80800CDF86B
S3150000FDF004806A46206A294612F0ABF818B140F62C
S3150000FE00171100F071F8787800F0070002281ED16B
S3150000FE10FFF712FF94F91400032808BFB8F1060F84
S3150000FE2011D19DF80D0070B17878000900F0010538
S3150000FE3000F05DF84FF0FF3070622A4600218F20F7
S3150000FE4005F059FC4DE0F07900284AD105E09DF80F
S3150000FE500D0010B10020FFF711FFF0799DF80D108D
S3150000FE60084203D040F63F1100F03EF8F07958B151
S3150000FE707878800608D5307A30B1206A12F06AFAAE
S3150000FE8030B1FFF7B7FE03E0FFF7D6FE002060743F
S3150000FE903878401C404503D040F65F1100F024F846
S3150000FEA007EB080530792870002068709DF80E0071
S3150000FEB0A87095F90200FFF714FAE87008F1080136
S3150000FEC0FF202871C9B20098000C68710098000ADA
S3150000FED0A8710098E8713846627C05F0B9FC0020EC
S3150000FEE0607409B0BDE8F0834846F3F7F3B8002024
S3150000FEF02075206A11F00EBD0FF21430F3F7EAB840
S3150000FF00DFF8C812897A012907D1DFF8E8120B78E1
S3150000FF1098421CBF087008F03ABC7047044008407D
S3150000FF204C50084010B5DFF8A402446A002C14D4E3
S3150000FF300AF0B2FA001B40F2E93180B288420CD3D3
S3150000FF40A34890F91400032803D1BDE8104000200F
S3150000FF5094E6BDE810408920B9E610BD10B540B959
S3150000FF6011F0E2FFF3F7ACF90446FFF7DBFFFFF70A
S3150000FF700BBBBDE81040D5E738B5954D0446287B48
S3150000FF8060B1200002D111F0F9FF08B1402200E073
S3150000FF900022002340200021FFF71FFCAC7431BD76
S3150000FFA00802010008400840186008461860084426
S3150000FFB02DE9F04780461446600688B01D4648BFC6
S3150000FFC0002002D4200602D50120FFF7ABFEA003D5
S3150000FFD07F4E2DD5002070746946404612F099F880
S3150000FFE030BB9DF80800844F02280DD1BDF80000F3
S3150000FFF00AF08AFCFF2815D0396831F810004FF452
S31500010000567108420ED113E0032811D168460AF051
S315000100109AFCFF2806D0396831F810004FF4567162
S31500010020084205D0306A12F071F808B901207074DF
S31500010030600410D511F0A2FF68B1FEF7E3FF50B1DD
S3150001004012F094F9074612F08FF9874203D0002186
S31500010050384612F087F9200744BF4046FFF78AFE6B
S31500010060E00548BFFFF7C6FD4FF41850044218BF1C
S31500010070FFF7E2FDE00244BF0120FFF715FE600233
S3150001008044BF0120FFF710FEE00144BF0020FFF747
S315000100900BFE96F914000FF27017012869DB306A1E
S315000100A0DFF8289121034FF0FF3A33D596F9141062
S315000100B001295EDB96F9141003295ADA00218DF81D
S315000100C0181001218DF8141003A911F058FD039899
S315000100D030630AF0F2F97063B07D08B1706BB063FA
S315000100E096F91400012804D002280ED10320307598
S315000100F03FE000203075306A11F00CFCC9F824A0ED
S31500010100B07BA8B9316B002218E04FF4016100F011
S3150001011077F82EE014F0845F13D00021317511F0C9
S31500010120F9FB042011F001FFC9F824A0B07B10B13E
S315000101300120F0731DE0002200218D2005F0DBFA7D
S3150001014017E0A00248BF892002D4A00103D5882068
S31500010150FFF7BDFD0DE0600048BFFFF783FDA0007E
S3150001016007D526480068400403D40021002011F079
S3150001017021FFA00744BF4046FFF780FD002C04D5B0
S31500010180FFF75AFD4046FFF779FD05F0020100230E
S31500010190994211D0404611F0B5FB022802D003283E
S315000101A002D005E0892000E08D20FFF790FD03E0F5
S315000101B040F67B0100F024F805F004010023994282
S315000101C018BF07F0AFF908B0BDE8F087F0DF0320EC
S315000101D048E50320406700600A00FA93B4D903009A
S315000101E054F80320B6D90300A1EF0000A5EF0000E3
S315000101F0E4F503206EFF0320B4DE0320044008402B
S315000102003846F2F767BF00007068792E6300000078
S315000102106C69627261696C2E610000000000000069
S3150001022001006003010101016400B6006400C00021
S31500010230000000000B0000000000704780B502219D
S315000102406846FEF7B1FE00980AF0DAF801BD000033
S3150001025010B50E4C207858B90D48018808237F2225
S31500010260201D11F0B1FF201D00F004F801202070BF
S3150001027010BD084880B5014608220748F1F75AFC27
S31500010280BDE80140FFF7F2BB0000000048F803207B
S31500010290BAD903004CF8032054F80320704780892B
S315000102A089B2814201D1012070470020704770B5A3
S315000102B086B004460D4604A92846F0F79EFC694619
S315000102C0204611F001F94FF6FE76402818BF304658
S315000102D015D10822294602A8F1F72CFC6846FCF73D
S315000102E0E2FDFF2806D0DFF82C14096831F810006A
S315000102F0B04204DB684607F0F1FA07F01AFB06B0D4
S3150001030070BD70B5DFF8105429780446FF29A0891D
S3150001031008BF28706978FF2908BF68702978884264
S3150001032025D0E17BFF2908BF264603D0281D05F00D
S3150001033052F90646217CFF290EBF2046281D05F0ED
S315000103404AF9A1896A78914202D1B089687003E0BD
S3150001035081893174B189C173FF20E073281D297821
S31500010360217405F038F9A189C173A089287070BD7F
S3150001037080B502894FF6FF739A420AD0827A8B7A48
S315000103809A4206D1082211F0F3FF401E8041C00FA8
S3150001039002BD002002BD008989B2884201D1012037
S315000103A070470020704710B586B00446082268469B
S315000103B0F1F7C0FB8DF80A4000236A46DFF85C13AB
S315000103C0DFF85C0305F0D8F8040018BFFFF799FFC2
S315000103D0204606B010BD2DE9F843064689469046EB
S315000103E0DFF83443DFF83C1300234FF6FF72201D7C
S315000103F005F0C2F8050020D1A08808B9002706E05B
S315000104002089FF2190FBF1F1C1EB0121471AB9B215
S31500010410201D05F0E0F8050003D0A889B9B288428D
S315000104200BD00821201D05F0FDF8050004D16178E7
S31500010430201D05F0D0F80546AF814FF6FE77B84589
S3150001044004D149463046FFF732FF80460822494625
S315000104502846F1F76FFB0020A873A5F80880AE7255
S315000104602889A989B8420CBF4FF0FF300020686186
S31500010470FF20E8732078814218BF28742846FFF7C9
S3150001048040FF2846BDE8F283F8B504460D461646F8
S315000104901F46FFF788FF28B9324629462046BDE8A0
S315000104A0F84098E747B14FF6FE7296420CBF4FF0FF
S315000104B0FF31002106814161F2BD2DE9F04114466B
S315000104C01D46FFF770FF07002DD0BB89964A0FF234
S315000104D064219648F7F756F95FEA00081CBF069EA5
S315000104E0002E0CD00022082108F10E00F1F7E2FBE4
S315000104F078B10822314608F10E00F1F71BFB786945
S31500010500A84213D3B87B3C8100F00C007D61B8731F
S315000105100CE00822314608F10E00F1F774FB0028C1
S31500010520EDD0002003E0204600F027F80120BDE8C9
S31500010530F08110B5784C0FF2FC110020A0802081CB
S31500010540608182B001200090002300227748F7F7EE
S31500010550EDF8FF202070607013BD028989B28A42CE
S315000105601CBFC2F309028A4205D14FF6FE71018111
S315000105704FF0FF31416100207047024600236C496C
S31500010580674804F0F9BF30B589B0054605F1170192
S31500010590A87DFFF708FF040048D0A07A04A910F04F
S315000105A093FF402803D0A07B00F0FC003DE0A17B37
S315000105B001F00300012804D038D3032833D016D321
S315000105C034E0082204A96846F1F7B4FA0822214664
S315000105D002A8F1F7AFFA684610F041FDA07B00F0E2
S315000105E0FC0040F00200A07340F6B83117E001228A
S315000105F008098240C2EB0212B2F5E14F88BF4FF4FF
S31500010600E1420B2841F0030104DA01F00F01401C1D
S3150001061041EA0011A1734FF47A7000FB02F12846FA
S31500010620F7F702F802E001F0FC00A07309B030BD53
S315000106302DE9F8438046894615461F46FFF7B3FE66
S3150001064004004FF6FE7611D1380007D00123324659
S3150001065049464046FFF718FF040007D14946404680
S31500010660FFF725FEB04228804ED14FE02089B042E7
S315000106700DD00DB9390009D1800A07F0EBF8FF2832
S315000106803FD12089F8F7C0FD00283AD12681002FF5
S315000106901EBFA07B00F00300032837D078BB0FF202
S315000106A09406A389204A21483146F7F76BF80500DD
S315000106B00BD100212020F5F760F8010026D0F4F7D0
S315000106C046FF054600202E6068600822A089A881A1
S315000106D0002105F10E00F1F78FFAA07AA87508221C
S315000106E0214605F11700F1F725FAA07B00F0FC0081
S315000106F040F00100A07300212846F6F795FF01207E
S3150001070005E00DB120892880022000E00020BDE827
S31500010710F2830000B8DE032054E2032071030100D6
S3150001072058E20320970301009F020100B8F6032057
S315000107305B050100B8F60320870501009D02010053
S31500010740E0D3030030B5014600220FF2340304E082
S31500010750091B6918921CC9B2D2B29D5C2C0006D045
S31500010760854204D29C1864788442F1D306E00FF2E4
S31500010770180000EBC100C178062900D1002030BD68
S31500010780151F202F398081FF50001304030000003C
S3150001079054001402000000002C000F0408000000A1
S315000107A030001005000010003C0007050000100095
S315000107B024000D041000000028000E0300000000B4
S315000107C03400110408000000440012050000FF0077
S315000107D008000202000000001000050500004000AC
S315000107E006000102000000003800060403000000B4
S315000107F01400090501003200400008040800000049
S315000108006C001C0200000000040000010000000052
S3150001081018000A05010000050C0004020000000092
S315000108201C000B04080000000A000302000000007F
S3150001083020000C04100000005800150500004000BF
S3150001084048001D05010000054C001E0410000000B3
S31500010850FFFFFF0600000000FFFFFF06000000008B
S31500010860FFFFFF06000000005C0016040600000002
S31500010870600017010000000062001802000000007D
S31500010880640019020000000068001A050100A000BA
S315000108906E001B0100000000F0B50E4683B0044651
S315000108A011461D4608226846F1F713FA30003AD080
S315000108B0F000C0B200210FF2740232F811300026A6
S315000108C00027BFB21DF807C086EA0C264FF0080CB8
S315000108D04FEA460E360446BF83EA0E06B6B21FFA43
S315000108E08EF6BCF1010CF3D17F1C1FFA87FCBCF11B
S315000108F0080FE6D3831B96FBF0F616FB00335B1E4F
S315000109009BB204EBD306802703F00703DF4033785D
S315000109103DB13B433370491CC9B20229CDDB0120ED
S31500010920FEBD3B42F7D10020FEBD0000211005802F
S3150001093030B585B004460D460822DFF8B01B02A883
S31500010940F1F7F8F8694602A8FDF70AF900236A46A5
S3150001095029462046FFF7A0FF05B030BD80B541B15D
S31500010960DFF8E41B0122C8708A70BDE8014001F07E
S3150001097069BD01F0C3FDBDE8014033E1704710B523
S31500010980DFF8C40BDFF8682B417812783AB1F1B978
S31500010990808BE0B101F0B2FDBDE8104022E1B1B1BA
S315000109A001F0FAFB03D1012001F029FE02E001204A
S315000109B001F0BCFDDFF8944B2046F6F785FD30B912
S315000109C02046BDE8104049F64041F6F72DBE10BD60
S315000109D0DFF8741B00200871704710B5DFF8684B0B
S315000109E04FF6FE70E08300206070A083DFF85C0B99
S315000109F0F6F76AFE00202070207110BDDFF8F00ABC
S31500010A00007800B9704700B589B003F07BF928B9C1
S31500010A10684600F0B9F8684603F0E1F909B000BD8F
S31500010A2001464878FF2804BF881CF1F702B97047D0
S31500010A304178FF290CBF042102210844704738B5CB
S31500010A4004460D4600E00C35296831B1204609F00F
S31500010A500BF80028F7D1284632BD002032BD000030
S31500010A602DE9F84F8246D018DDF82880DFF828BC3A
S31500010A7000900E46144605E04FF404715846F2F70D
S31500010A8029FB64190098A11C88424AD32778657806
S31500010A90A146A41CFF2D04D12046F1F7CAF805464C
S31500010AA0A41C3846C0470028EBD08178326822FA68
S31500010AB001F3DB07E5D4012303FA01F111433160A8
S31500010AC001880AEB0107C178491E0429D4D8DFE859
S31500010AD001F0040A11191F00CEE7002D1CBF207872
S31500010AE03870CED11FE0022D1DDB2046F1F7A1F8AB
S31500010AF03880C6E7042D16DB21460020F1F7C6F83B
S31500010B003860BEE700798542A8BF3C60B9DA0AE0E1
S31500010B1001798D42A4BFC088A84204DBC7F80090C2
S31500010B20AFE7844201D0002000E00120BDE8F28F4A
