S01200007468726561642D746573742E7333377D
S31508000000285C0020D5B6020889AF02088DAF020821
S31508000010A70B0000000000000000FFFF54000008C6
S3150800002004140300000000000000000000000000A7
S3150800003000000000000000000000000000000000B2
S31508000040000000000000000000000000930000000F
S3150800005000000000285C0020D5B6020889AF020817
S315080000608DAF0208A70A0A0100010008041403ACB0
S3150800007000269300000000000000000000000000B9
S315080000800000000000000000000000000000000062
S31508000090000000000000000000000000FFFFFFFF56
S315080000A0FFFFFFFFFFFFFFFF00E00308000000005F
S315080000B000000000FFFFFFFFFFFFFFFFFF0000003B
S315080000C00000000000000000000000000000000022
S315080000D000000000F07F002000000000EA7F0020FA
S315080000E0EA7F0020285C00202408030854C102087F
S315080000F0504D0020701700200000040800800020E2
S31508000100285C0020D5B6020889AF02088DAF020820
S3150800011095AF020891AF020899AF020810B002081D
S3150800012010B0020810B0020810B0020810B0020899
S315080001309DAF020810B0020810B002081F0D000893
S315080001406BA5020810B002080F57000810B0020885
S31508000150657A0008555D000810B0020810B002085C
S315080001608D3E00082B1D00087F160008A501000813
S3150800017010B002081B5600085B560008D9AE0208E4
S3150800018065FB0008875D000810B0020821AD02086B
S31508000190012100F01F029140354A400942F820101B
S315080001A070470000F8B5344C344D2178286840076C
S315080001B02BD5032929D23248324A008822F8110061
S315080001C00120314A137800FA01F1194311702F4AB8
S315080001D02F491378002B12D0002623FA06F7FF07BB
S315080001E008D5B0402670584010702A4830F81600D6
S315080001F008600AE0761CF6B2032EEED305E000206E
S31508000200086000F0C5F8032020704FF6FF702860DC
S31508000210BFF35F8FF1BD80B51C490020087003202D
S315080002201549087000201C490870052011490880E6
S3150800023000201549087000211548016041604FF4F7
S31508000240004181601021C1600D4941610121816130
S315080002500321C1600421094801644FF6FF7101605A
S315080002600B20FFF795FFBDE8014000F0CFB800006E
S3150800027000E100E0AA7D00209B7F002010A8004036
S31508000280A87D0020986500209C7F00209A7F00208A
S3150800029004E00040A06500209D7F002000F023BCFC
S315080002A03248012181604EF6BE214160012101607C
S315080002B070472F49012008607047A52805D12B48AB
S315080002C04DF6AD614160022101607047274800681C
S315080002D010F0010018BF01207047012100F0070245
S315080002E09140244AC00802EB402041617047012131
S315080002F000F0070291401F4AC00802EB4020016146
S31508000300704700F007011B4AC00802EB4020012293
S315080003108068FFE78A401040C840704780B5164994
S31508000320164A1020086016491648007803000BD0B4
S3150800033003280CBF00200120106040F65100086019
S31508000340002000F049FE06E0022010604FF400602D
S31508000350086000F08CFB0C4807210160002101644D
S3150800036010200A490860002002BD00000060004015
S315080003700860004000B0004080E100E0080000404E
S315080003800C600040AD7F002014A0004000E100E0B2
S3150800039070477047DFF8F43433F810001040C8404F
S315080003A0704730B50FF2A454DFF8E43434F810403F
S315080003B09C601140DFF8D44434F810509543294323
S315080003C0D96002221A6000221A6024F810105868B0
S315080003D00028FCD130BDDFF8BC24DFF8BC04127855
S315080003E0DFF8B8140AB149780EE0895611F1090FF9
S315080003F0B8BF302108DBC16D39B1C26D40F24A3150
S31508000400B1FBF2F189B2C91E01607047E0B5DFF8A9
S31508000410900401880A2300F065F8BDF806104FF627
S31508000420FF720D20FFF7BDFF07BDF8B50546B5F508
S31508000430004FDFF868441AD1DFF868040188022300
S3150800044000F050F8BDF80000000AFF2801D00100AE
S3150800045000D118206070BDF800000006C00E1028F4
S315080004601CBF001D00F09FF9BDF80000C543DFF86A
S315080004702464707808B1002005E0A089ADB2684010
S31508000480C00701D501207070DFF81C04A58105F0AE
S315080004900104016841F4004101604FF440520FF233
S315080004A0D04000EB4400C5F340074078010389B209
S315080004B00220FFF776FF204600F0D6FD4022B9015C
S315080004C000F00EFA2D06A80E00F001003843307031
S315080004D0FFF781FF707818B1FFF798FF002070705A
S315080004E00020F2BD7F22684600F042BE2DE9F04F9B
S315080004F0DFF8BC43DFF8B473207887B00423049090
S315080005000D210B38C0B203906846039A00F09AFE94
S315080005109DF800008DF80A009DF801008DF8090085
S315080005209DF802008DF808009DF803008DF8050077
S31508000530DFF880030078012806BF607880F001059F
S31508000540012501F038FA82469DF9020003990AF15D
S315080005500A06AAF10A09B042B6BF81454FF001085A
S315080005604FF0000801208840ADF806009DF801000C
S31508000570000604D47888BDF80610084201D04FF06A
S31508000580010801F0B5FA9DF8030000060AD4B888F8
S31508000590BDF80610084205D19DF90000B042B8BF63
S315080005A0814502DB4FF0010901E04FF0000948EAF6
S315080005B0050059EA000000F0A680DFF8FCB2BF4942
S315080005C0DBF80000BE4E400800F001008DF804007C
S315080005D0BC48006800F4E06005904FF4E0600860ED
S315080005E0002001F03DFE00F003FCADB1607858B183
S315080005F0DBF80000AF4940084000CBF800000120B6
S31508000600087000F0DAFC07E0306840F4005030600B
S31508000610306820F480503060A6480078012812D14E
S3150800062061780D4203D101F053FE01F0A7FFDBF814
S315080006300000A04940F00100CBF800000020087037
S31508000640642000F0BAFC607880F00100054203D00F
S315080006500498C0B202F047F8607838B1306820F4E0
S3150800066080503060306840F400503060BDF80600B5
S31508000670C543B8F1000F08D002F020F98DF8010043
S315080006808DF802A0788828407880B9F1000F08D044
S3150800069002F0C1F98DF803008DF800A0B88828404B
S315080006A0B8809DF900009DF90A10884202BF9DF89E
S315080006B001009DF8091088420BD19DF902009DF9A9
S315080006C00810884202BF9DF803009DF8051088426D
S315080006D006D0039904236A46C9B20D2000F0C2FD6C
S315080006E005987849086000F0F3FD9DF8040001F0CC
S315080006F0B7FD02F0B0FA607828B148F26070306051
S31508000700642000F05AFC9DF8010002F043F89DF8B9
S31508000710030002F07BF907B0BDE8F08F80B501F061
S315080007203DF9BDE80140E1E601F038B970B5064685
S3150800073001F0F8FC0546A6F10B001028A6F10B04FB
S3150800074001D38A2070BD60488168090702D4006811
S31508000750C00701D58C2070BD554806705B480168F6
S315080007600C290FD00FF27C11594A92F90020A4B235
S3150800077031F824105118C161FFF7B8FE012D08BFE2
S3150800078001F070FC002070BD10B5044601F006F9B2
S315080007902046BDE81040C9E74548007870473F48FD
S315080007A090F9000070472DE9F0410446202514F120
S315080007B02B0F86B049DB474801881423FFF792FEC2
S315080007C0BDF810004FF6FF71884203D0400448BFB9
S315080007D0012607D43F2200211020FFF7DBFD002663
S315080007E080F0200504F12B022F2A2C483A491AD208
S315080007F013220FF2301300E0521ED2B213F9127010
S31508000800BC42F9DB03EB4204032764780C6000243E
S3150800081013F81210017000218846C6B1BDF81010F1
S315080008204FF6BF7228E0092C0FDA025D0A600470E1
S3150800083014232A480188FFF755FE4FF4C0514FF498
S3150800084080744FF080082827E7E78B2019E04FF4DB
S31508000850605200F045F84FF4E062214600F040F897
S315080008608022414600F03CF8781980B24028A8BF9B
S315080008703F203F2280F0200100F032F8FFF7ABFD61
S31508000880002006B0BDE8F08100000000E0770020F7
S31508000890E8100040B57F002064100040805D00200D
S315080008A0EC030308F60303081C100040B67D00207D
S315080008B012600020FA5F00208020004080E100E0FE
S315080008C0D010004000E100E060200040AC1000407D
S315080008D0B47F0020E8030308C0100040EA030308B9
S315080008E00B205EE5AA2129005523290000252800AA
S315080008F0AA26270055282700002A2600AA2B260004
S31508000900552D2500002F2400AA3024005532230037
S3150800091000342200AA35220055372100003920006C
S31508000920AA3A2000D500E601EC02EF03F204F4052A
S31508000930F506F707F808F909FA0AFB0BFC0DFD0F8F
S31508000940FE11FF1300160119021C031F10001100E7
S315080009502000300040004100500060007000800018
S315080009609000A000B000C000D000E000F000000039
S3150800097000000103DFF8E0145120086070472DE9F4
S31508000980F041DFF8D8640546F0780428B4BF30276C
S3150800099060274FF4F070B0FBF7F41E2D24B201DB8C
S315080009A0281B04D5A8B2BDE8F04100F006BB02F04A
S315080009B08DF900F028F870700721DFF8A404DFF835
S315080009C0A42400F047F8291B09B27943C91C8908F1
S315080009D0491EDFF89454DFF8807441602E6800F0F1
S315080009E0B0F83C68386820F04000386002F074F9C6
S315080009F03C602E6002F074F900F0F6F94046BDE856
S31508000A00F04102F075B98046012080F310887047DE
S31508000A1038B5DFF84814C9780429B4BF30246024EF
S31508000A204FF4F071B1FBF4F1451A1E2D04DAA12139
S31508000A300FF2884002F062F9DFF82404DFF8242474
S31508000A40072100F007F805FB04F1C91C8908491EAF
S31508000A50416031BD01600021416081604FF0007145
S31508000A6011607047DFF8F42301215170D0E72DE9B2
S31508000A70F041DFF8F863DFF8F843002535602560B4
S31508000A804FF4A040606041F29A084046FFF777FFAE
S31508000A90706844F69041081A00B24FF4487190FB0A
S31508000AA0F1F000B20828A8BF072004DA10F1080FF1
S31508000AB0B8BF6FF00700206008274046FFF75FFFC2
S31508000AC04046FFF75CFF706845197F1EF8D1281D60
S31508000AD0C00808BF0120DFF89C13B1FBF0F080B214
S31508000AE06060BDE8F08138B5DFF88C5301206FF0FF
S31508000AF00F04A8602C608020FFF741FFE868FF28F4
S31508000B0002D8641C102CF5DB31BD70B5DFF86C0318
S31508000B10DFF85453016841F0010101600121416089
S31508000B2002F0D4F82E68044600F00BF8CA495120A2
S31508000B3008602E6002F0D4F82046BDE8704002F046
S31508000B40D7B8286840084000286002F0C9B810B530
S31508000B50C24C0120207000202071C948816901F02B
S31508000B600301032907D10020A070042000F060F8D3
S31508000B700120207110BD0F21016002218161012031
S31508000B80E0706420BDE810406CE72DE9F041BD4CEB
S31508000B90BB4EA088B14F4FF6FF78404540F2DC5572
S31508000BA01CD1B948018802237F22201D00F0E0FAF3
S31508000BB0A088404504BF0220A080B069800703D4FE
S31508000BC0B06940F00200B0610120B870A0883060BA
S31508000BD02846FFF747FF2846BDE8F081B269920725
S31508000BE0EED5BA78002AF6D1B268B36812F00102D7
S31508000BF003D10F2809D2401C06E09B0705D52378A8
S31508000C001BB1032801DB4044A080A088227002287B
S31508000C10BCBF0220A0803068A1888842D4D1B069C0
S31508000C2000F00300032818BFFFF76FFF0020D3E783
S31508000C302DE9F047804695480178002569B9C078BE
S31508000C40072818BF09280DD0032818BF112809D06E
S31508000C5013281CBF15280B2804D08D48016841F4B9
S31508000C608071016002F032F88146FFF7CDFE4046FA
S31508000C70FFF78BFF08B9012515E07B4F764E3C68D8
S31508000C80386840084000386002F02AF8D6F800A014
S31508000C90306820F04000306002F01EF8C6F800A068
S31508000CA03C6002F01DF800F09FF8484602F020F874
S31508000CB02800D7D0BDE8F0870220B9E76848694A16
S31508000CC0002141608160016821F002010160002174
S31508000CD0624841704FF000711160817809B10021B6
S31508000CE08170C178012914D16A4901220A606A4AC9
S31508000CF01268D20748BF03210FD40222C270086CBB
S31508000D0040F00100086404206449086064490860EA
S31508000D107047C178042901D10521C17070474F4831
S31508000D204078002818BFFFF7C9BF00F0D6BF2DE9E5
S31508000D30F8434A4C207908B354E001F0C7FF05464A
S31508000D40FFF762FEE078032813D0474EDFF80881E4
S31508000D5000F0ACF8D8F80090D8F8000020F0400071
S31508000D60C8F8000001F0B8FFC8F80090376001F035
S31508000D70B7FF00F039F8284601F0BAFFE0780328F3
S31508000D80DBD1404E3E4DB08828604FF6FF7770881D
S31508000D90B8420CD14348018802237F22B01C00F0D8
S31508000DA0E7F97088B84202D16420708001E0708843
S31508000DB078B170883C494A6D42F001024A650A6872
S31508000DC0AB68DB07FBD50B689B1AC3F31303834297
S31508000DD0F6D3FFF79AFE0420E0704FF4C870BDE81A
S31508000DE0F2433FE6BDE8F183002080F310887047A0
S31508000DF02DE9F843194C2179207881F00101084240
S31508000E001DD124E001F062FFFFF7FDFDE07805281B
S31508000E1010D0154E104D00F049F8D5F80090286806
S31508000E2020F04000286001F057FFC5F800903760B1
S31508000E3001F056FFFFF7D8FF404601F059FFE0786A
S31508000E400528DFD10020A0700520FFF7F1FE00205D
S31508000E502070BDE8F183000000800040C67F0020B6
S31508000E6010E000E004ED00E094ED00E010400040E2
S31508000E700C0000400060E316084000401C4000409B
S31508000E8004400040DA5F0020F803030896070808C4
S31508000E903840004018A000400C40004080E200E0C6
S31508000EA000E100E0FC03030838200040376830689A
S31508000EB040084000306001F013BF0000636C6F63A8
S31508000EC06B732E630000000010B5002001F0C9FE08
S31508000ED05C4C40F68C2188422068B4BF40F008007C
S31508000EE020F00800206010BD10B504465648018859
S31508000EF082B000F05DF89DF800109DF80100FF290A
S31508000F0002BFFF28042000212200504A136818BF98
S31508000F10801C23F46073C0B20828A8BF072043EAE0
S31508000F20C010106008291068A8BF0721C00841EA48
S31508000F30C00010604648047013BD464800B50188D5
S31508000F4083B000F035F8BDF800004FF6FF7188420F
S31508000F500EBF4FF4E1600A2190FBF1F0ADF80000F6
S31508000F603B48007808B33848018802237F2201A845
S31508000F7000F0FEF89DF80500BDF80030FF2808BF10
S31508000F800420811CC9B20829A8BF0721C1F12F0274
S31508000F9002EBD272C0F12F00521000FB0320C1F100
S31508000FA02F01B0FBF1F0ADF80000BDF800000EBD52
S31508000FB002237F22684600F0DBB827490A6803281F
S31508000FC009D34B6D43F001034B650B689B1AC3F3BA
S31508000FD013038342F9D3704710B5040004D110BD3A
S31508000FE04FF47A70FFF7E9FF2046441E80B20028C6
S31508000FF0F6D110BD032823D8DFE800F00207072042
S31508001000164801B11721016018E049B14A0802F1F2
S31508001010B77202F55852B2FBF1F1B1F1011F01D3D3
S31508001020202070474A08022801F0010108BF0C4831
S3150800103002D0012802D10B484160026000207047A7
S315080010402120704700BC0040EE030308180000404A
S31508001050B77F0020F003030838200040100004E0A2
S3150800106068D8004068C80040F0B5044689B000203A
S31508001070FFF73AFF294801880A237F22684600F0CD
S3150800108077F8BDF802004FF6FF75A84205D14FF470
S3150800109081710FF2940001F031FE00260FF2A007CD
S315080010A001E02A4616B94FF47C4203E0022E08BF37
S315080010B04EF23F023DF81610B85DFFF772F9761C3E
S315080010C0052EEED3012C03D114237F22144802E007
S315080010D014237F22134801880FF26C0703A800F037
S315080010E047F800262A4608E02A46012E08BF4FF68A
S315080010F0C07202D0082E08BF002203A830F81610C6
S31508001100B85DFFF74EF9761C0A2EEDD3012C04BF05
S315080011100120FFF7E9FE09B0F0BD0000EC03030863
S31508001120EA030308E8030308616E616C6F67756577
S315080011302D63656C6C2D626961732E630000000077
S3150800114000100C0D0E000000010203040708090A2E
S315080011500B0F000038B514467F2C08BF0024154D28
S3150800116029431A4604FB0311BDE8384001F0BEBE08
S3150800117070B51E00044615461BD04BF234608142FA
S3150800118011D1092E28BF082633467F2240F61201C0
S315080011902046FFF7DFFF32460749204601F00FFFDA
S315080011A038B940F2A27133462A462046BDE8704057
S315080011B0D0E770BD00000808C4D0020830B5DFF8D3
S315080011C0FC10DFF8FC500A6883B001A8002402600E
S315080011D001202870002001F005FF30B1002001F041
S315080011E001FF10B12C7049203EBDDFF8D8000188F8
S315080011F002237F220DF1020000F024F802237F2249
S315080012000021684600F01EF8002001A9BDF802205A
S3150800121031F81010914208BF0124401C0228F4D36B
S31508001220BDF8000024B1B0F57F7F07D100203EBD90
S31508001230B0F57F7F14BF0420062000E007200021B8
S3150800124029703EBD10B5FF2907DC1D4C247844B132
S31508001250BDE81040C9B202F0A3B9BDE81040FFF7D7
S3150800126087BF10BD2DE9F0410446FF2C0D461646F2
S315080012709846154813DC12490978A9B1134F3978ED
S3150800128011B1BF2101F03AFD0120387043462A46C4
S315080012903146E0B202F0F1FA0020387004E0BDE809
S315080012A0F041CA2101F02ABDBDE8F0810449097858
S315080012B0002918BF02F0EDBB7047000060FA02086B
S315080012C0B17F0020F403030864FA0208B27F002005
S315080012D010B5DFF8B0471020206301F0F7FCDFF8FF
S315080012E0A8170A6842F001020A6001F001FDDFF85A
S315080012F09C07606020608A306168893161600121DD
S315080013002163E060A060DFF88817E0688930E06054
S31508001310022020634FF6FF70086010BDDFF87407DF
S3150800132045F26401C1601E21416250210162C82153
S31508001330C1618165F021C16545F690014166882144
S3150800134081660621C16644F2066101604FF6FF71A7
S315080013504160DFF84407007838B1DFF8400748F203
S31508001360607101604FF4C1514160DFF834070168CC
S3150800137041F0040101600020DFF828174870704723
S31508001380DFF80C070068C00700D408E07047DFF8EC
S315080013900007006810F0190F00D100E0704700211F
S315080013A0002002F0ABBC2DE9F04F804683B0DFF891
S315080013B0F816012002F043FD8A21DFF8D00601FB6A
S315080013C008F14518681C4178007800EB0120DFF821
S315080013D0DC1609781FFA80F9DFF8D406017000EBED
S315080013E0080A00208AF802005FEA896003D5DFF858
S315080013F0C446606E000640F1A080002609F0070783
S31508001400032F18BF012F70D109F4406009F4404139
S31508001410B0F5806F1CBFB1F5804F002965D0042256
S31508001420B0F5006F08BF082203D0B0F5406F08BFBB
S315080014300E225FEA49605CBF921CD2B2B1F5004F3A
S315080014400CBF901C02F10800C0B200900098401C26
S3150800145000EBD070C005000E01905FEA0800019B02
S3150800146014BF6068206898423FD3A818B1F5404F6A
S31508001470DFF844B602D102F064FD06E04078A95CC4
S3150800148001EB002080B202F03DFD0146FF290FD096
S31508001490012F03D102F06CFE06460CE0DBF80000D3
S315080014A030F811004FF45671084204D0012602E0C4
S315080014B0032F08BF0126C6B15FEA097015D45FEA93
S315080014C00800019914BF60682068491C884207D241
S315080014D0E0685FEA080114BF022101210842EED143
S315080014E00098285C042818BF0026E06D000900F063
S315080014F0010086428AF802001FD0002EA26C4FF423
S3150800150000604FF480610BD0B8F1000F08BF0846A1
S31508001510024212D0606C40F00100606401200AE0CB
S31508001520B8F1000F08BF0846024206D0606C4008B2
S315080015304000606400208AF80200BDE8F78F2DE9B4
S31508001540F84F0446DFF86C55DFF8646520000CBFD9
S3150800155028686868C1B2052905DAFFF711FF7068BF
S31508001560401C706089E040008DF800008A2000FB6E
S3150800157004FBDFF818859DF8000008EB0B094844C2
S3150800158010F8081D427802EB01211FFA81FA8178CA
S3150800159066318170317819B9DFF81015097831701C
S315080015A03178DFF8EC740170002131704170386CC5
S315080015B020F4805038642000686E02D178684005AF
S315080015C004D4012C23D17868000520D5FFF7D8FE6E
S315080015D0DFF8E804017891B1002101701AF4E45F9C
S315080015E0DFF8DC04016802D00022402005E099F803
S315080015F00100000900F001028F2003F00EFA200016
S315080016000CBF4FF480604FF40060786030E01AF445
S31508001610E45F2BD100F021FE10B15FEA4A4025D5E0
S3150800162018F80B00802821DA386C99F80110890619
S3150800163026440ED5696E09060FD4A96CC9060CD4C2
S31508001640396822000CBF80224FF48072084010428D
S3150800165003D1FFF795FE0020B070B2789DF8001010
S31508001660484603F087FA0020B07001E0FFF788FECD
S31508001670002C0CBF012002202861BDE8F18F2DE95E
S31508001680F84FDFF80C44DFF82C642068216CDFF88B
S3150800169034B4DFF82884DFF83094DFF80CA401EAC4
S315080016A000053AE071B18A22DFF8E0135043084496
S315080016B04078C00606D4DFF80804016800228F20A7
S315080016C003F0ABF9280608D50FB9FFF759FE03F062
S315080016D000FA802025F080052060E80509D50FB9B5
S315080016E0FFF74EFE03F0F5F94FF4807025F4807588
S315080016F02060680407D50FB9FFF742FE4FF4804013
S3150800170025F480452060280407D50FB9FFF738FE71
S315080017104FF4004025F400452060002D73D00027C3
S31508001720280706D50020FFF73EFE082025F0080505
S315080017302060E80606D50120FFF735FE102025F0C3
S315080017401005206005F06000602803D1B06CC00564
S315080017500AD401E0A80605D52020206025F020053A
S31508001760002006E0680606D54020206025F04005E2
S315080017700120FFF7E4FEE80404D54FF4805025F471
S3150800178080552060E8079DD5012020606D0802F08D
S31508001790DDFA6D0078B14FF448725146012002F027
S315080017A0F1FA02F055FA40054CBF0320012000214A
S315080017B002F0A4FA012799F8010008B100F096F999
S315080017C099F80000002806D000F0B6FC012807D1D9
S315080017D098F8000000283FF475AF9BF8000004282D
S315080017E07FF470AFF068400800F00100002814BFCD
S315080017F07168316811B92168C904F7D5002814BF82
S31508001800716831684EE700202060BDE8F18FDFF887
S31508001810BC02006870470020DFF8B41201EB4002F2
S31508001820401C93885B1C01EB40019380498809B9E9
S315080018300828F1D3704738B50446FFF7ECFFA44DE6
S315080018401022291D204601F051FB05F114012046FE
S3150800185003F050FBFFF7DFFF05F11401281D03F025
S3150800186049FB214605F11400BDE83840102201F075
S315080018703DBBF8B5974D2E780446012028703000F8
S3150800188008D10021032001F08FF90F2701F0A7F9ED
S315080018907F1EFBD104B126702878F2BD10B58D4C99
S315080018A0217881F00101084303D101F0D4F9002021
S315080018B0207010BDF8B5FFF7BEFF0024844E002542
S315080018C00F2701F08CF97F1EFBD1311DC0F3801064
S315080018D031F81410A8404840311D6D1C21F8140039
S315080018E0102DEDD3641C102CE9D3F1BD38B5044690
S315080018F0FEF7ECFC08B1FEF7DCFC10252046FFF7E6
S31508001900D9FF6D1EFAD1724901200870FEF7DEFC78
S3150800191008B1FEF7CEFC012032BD2DE9F0436C4F2D
S315080019200446387885B088469146012530B9FFF7D0
S31508001930A0FF05466846FFF7D9FF054000261FE0C9
S3150800194016F0070015D15FEA090006D00020FFF758
S3150800195090FF05406846FFF7ADFFFFF75CFF1022D2
S31508001960391D684601F0C2FA07F11401684603F00A
S31508001970C1FA06F007013DF8110024F81600761C96
S315080019804645DDDB6846FFF756FF0020FFF786FF72
S31508001990284605B0BDE8F0830022BEE703210220F1
S315080019A001F002B94FF6FF71081A292190FBF1F0F0
S315080019B03A3040B2704738B501F011F9FFF7F2FF37
S315080019C0454D04462878B0B90321032001F0ECF808
S315080019D04248018802237F226846FFF7C9FB01F0C7
S315080019E0FEF8BDF80010401880B2FFF7DBFF153887
S315080019F068700120287001F02EF96878201A40B224
S31508001A0032BD80B50321022001F0CEF8BDE80140C1
S31508001A10D1E770B532480078002490B9FFF7F1FF96
S31508001A20204E0546707848B13078401B40B203F026
S31508001A3067FA0B2805DB3570012402E001203570B2
S31508001A407070204670BD27480078704725490B7886
S31508001A50984200D1704780B5087040B122490020ED
S31508001A6008600948016821F08001016001BD00F0A5
S31508001A702BFC00F001FC00F0B3FBBDE8024000F0CF
S31508001A8097BB00000020004084200040BE7D002057
S31508001A9000A000404C10004013600020D010004009
S31508001AA080200040BD7F00208F13000812600020B0
S31508001AB04478002020200040A05C00201C7D0020E7
S31508001AC0247D0020F95F0020B97F002038200040DF
S31508001AD04C780020BF7F0020BB7F0020F20303085C
S31508001AE0FA5F0020C07F00205410004070470000B5
S31508001AF010B50D48018884B00A237F226846FFF78F
S31508001B0037FBBDF800004FF6FF74A04204D14F2101
S31508001B100FF2180001F0F2F8BDF800102246002076
S31508001B20FEF73FFC1FBD0000EC030308616E616C05
S31508001B306F6775652D66696C7465722E63000000A3
S31508001B40DFF8A407007848B1DFF8A0070179012972
S31508001B5004BF4079042801D101207047002070474E
S31508001B60010644BF4FF6F83101EAC0007047491C28
S31508001B70800189B2B0FBF1F080B2FF288CBF00204B
S31508001B80C0F1FF00C0B2704738B5DFF86807C17802
S31508001B9009B1002032BDDFF86847617871B1E17894
S31508001BA0007945182079ADB28542A8BF054603F0ED
S31508001BB0C1F90121A940491E084000E000206179C9
S31508001BC00818C0B232BD2DE9F0470446C00705D54E
S31508001BD040F29B110FF2A87001F090F8DFF8245735
S31508001BE0286DC00748BF8C2075D4DFF80807DFF8D2
S31508001BF0107700210170417829B9397819B1A96F90
S31508001C0041F0010102E0A96F49084900A967DFF818
S31508001C10DC867A7898F80610DFF8EC96DFF8EC663A
S31508001C2092B1002202710129286D40F0040028654E
S31508001C3006D14FF6FF7030604FF40070C9F8000007
S31508001C40FFF7A2FF82460CE0286D20F00400012968
S31508001C5028654FF0000A04D100F031FA6420FFF736
S31508001C60ACF9A86F20F00800A8671420E864C5F846
S31508001C7048A0787838B198F80600002801BFA86C03
S31508001C8000280120A864B8790028286D14BF40F000
S31508001C90080020F008002865FFF752FF18B1306CDD
S31508001CA040F008003064202028626C602C60686868
S31508001CB0DFF85C167F306860042028624FF4E06025
S31508001CC00860DFF850160968C9F80000286D40F06A
S31508001CD0010028650020BDE8F087DFF83C060021F2
S31508001CE041608160016821F0020101604FF00070D7
S31508001CF0DFF8281608600120DFF8241608707047F8
S31508001D00332800D2704710B5B0F5002F0CD2DFF893
S31508001D10104600212170FEF77BFE02E0012003F049
S31508001D2025F920780028F9D010BD2DE9F84FDFF8FD
S31508001D30DC85DFF8C055D8F80000D8F84010DFF881
S31508001D40C47501EA0004A4B2C8F8004068780028FF
S31508001D5040F0D380E007DFF8CC65DFF8A4954CD5D2
S31508001D60D7F800A0386C796C41EA0041A96099F867
S31508001D70000000283DD09AF80100800639D50120D8
S31508001D802870FFF7DDFEC0B31920FFF716F9DFF854
S31508001D9098B54FF44040CBF82800DBF800000090D7
S31508001DA0F06E40F40050F066F06E40F48050F06635
S31508001DB09AF80010A8684901B83101EB000AFFF744
S31508001DC026FDAAEB0000C0F31300FFF799FFF06E9B
S31508001DD040084000F066F06EBDF800100843F06653
S31508001DE00020CBF8280048F26070F066E88830607A
S31508001DF003E00022002002F010FE20060ED5287807
S31508001E0030B1002028700022A968402002F005FEA3
S31508001E10D8F83C0020F48050C8F83C00600608D585
S31508001E20687830B9FFF7F3FC01460022892002F0F2
S31508001E30F4FDE00652D5DFF8B4A4DFF8CCB49AF87E
S31508001E400400012804BF9AF8061001291FD100F0E2
S31508001E5095FB386F40F001003867002400208AF8A7
S31508001E600600FFF735FA0A20FFF7A7F84FF6FF70C6
S31508001E70C8F800004FF4E060CBF800000920B86607
S31508001E800120B864B86F40F00800B86718E02979EF
S31508001E90491C2971C9B299F80220914215D2012824
S31508001EA008BF00F0DFF8B86F20F00800B867142004
S31508001EB0B866FFF769FEB8644FF40070CBF8000007
S31508001EC0386D40F00100386508E0687830B9FFF7EA
S31508001ED09EFC014600228D2002F09FFD20070CD5AE
S31508001EE0FFF72EFE48B13068E88001203060D8F848
S31508001EF0400020F00800C8F84000A0060AD52020B7
S31508001F003862687830B9FFF782FC014600228820DB
S31508001F1002F083FD687820B114F4407F04BF0120E5
S31508001F20A870BDE8F18FDFF8C8130028086814BF49
S31508001F3040F4404020F440400860704770B582B0D5
S31508001F400546FEF7F1FBDFF8EC03DFF8AC43DFF8F4
S31508001F509C63002101601521E160092101651F21AB
S31508001F60416001210166DFF8C8030088FEF75DFAC3
S31508001F70FFF7D4F903F0DEFA00F035F9308900F0FE
S31508001F805FF9708900F064F900F0A0FE616841F01D
S31508001F904001616000F0ACFE707800F0F5F8B078AA
S31508001FA000F006F9DFF89003007800F033F9DFF85F
S31508001FB08C0390F90000FEF7F6FB307800F050F934
S31508001FC096F9030000F058F9DFF8740300F076F983
S31508001FD0BDF80000DFF86C13C0054CBF0020BDF843
S31508001FE000000870DFF860030078FEF79FFB28B151
S31508001FF040F2F2310FF2883000F080FE012D07D151
S315080020002068C00704D500F02DF8002000F060F91C
S3150800201085B92068C0070DD4012000F059F900F0F1
S31508002020ADFA206840F001002060C820FEF7C5FF21
S315080020300020B071F120DFF8D452286440F2F9107C
S31508002040E86301F083FEFFF76EFFFFF741F92068AA
S31508002050C00704D54FF6FF70286000F05EF8FEF75B
S31508002060C7FE73BD70B5DFF8E452DFF880422E680C
S31508002070A079012822D000F029FEB6B2DFF8902216
S315080020802E604FF4E0611160DFF8A0120A6A520868
S3150800209052000A620A68520852000A600A6842F048
S315080020A002020A604A6A42F001024A620121A171EB
S315080020B000F01EFEBDE8704000F03DBA70BD70B578
S315080020C0DFF82842A07938B300F058FA00F0FEFD90
S315080020D00546DFF87C12894E01200860306D40F015
S315080020E0010030650020A071FFF7F2F8202030606B
S315080020F0306B40F002003063F06D40F00800F06588
S31508002100284600F0F5FD0A20FEF757FF7F494FF6EF
S31508002110FF70086000F001F870BD4FF4E0607A497E
S3150800212008607047714880797047704800790128BF
S3150800213008BFFFF797BF70476C480079704780B5AE
S31508002140022801DB012002BD6849087189798842A5
S315080021500BD028B9012000F0BBF8FFF7B0FF04E068
S31508002160FFF780FF002000F0B3F8002002BD794891
S315080021700068800200149A3801B211F1800FB8BFC6
S315080021806FF07F0040B2704710B5044600F09EFD20
S3150800219071490A68002C04D042F012020A60012133
S315080021A003E022F012020A600021504A517040E012
S315080021B038B5054600F08AFD0446FFF744FC40B9E9
S315080021C065482900016814BF41F0800121F08001AB
S315080021D00160464885702046BDE8324000F088BD5B
S315080021E04248807870475D494A780B785C4803EB2B
S315080021F0022202608B78CA7803EB022242600B79CE
S315080022004A7903EB02228260CA79897901EB0221B5
S31508002210C160704710B5044600F058FD4E492200CB
S315080022200A6814BF42F0200222F020020A604249DE
S315080022300C70BDE8104000F05BBD2C480089704763
S315080022402A490881474908607047284840897047E5
S3150800225026494881444908607047444800787047D1
S31508002260254902000A6814BF42F0020222F002025F
S315080022700A601E490870704738B504467F2C0AD193
S315080022803B4800F01BF8BDF80000C00554BFBDF878
S3150800229000406FF04A0400F019FD0546FFF7D3FB2E
S315080022A030B964B204F19A0080053249000C08601E
S315080022B00E48C470284600F01BFD31BD0188022374
S315080022C07F226846FEF754BF084890F90300704716
S315080022D006498979012906D127490B7898421CBFF6
S315080022E0087000F089B97047DD7F0020F45F002090
S315080022F040A000401C7D0020802000403020004087
S31508002300D05D00201020004000E100E004A000405D
S3150800231080E100E0A820004010E000E004ED00E0C5
S31508002320DE7F002064100040E4100040602000407A
S315080023308C5D00205C100040DC7F0020805D002062
S31508002340FA030308B47F0020126000201C10004026
S31508002350281000400C10004084200040A47800207B
S3150800236098200040942000409020004016600020ED
S31508002370FE03030854100040DF7F0020704700006A
S315080023807068792D636F6D6D6F6E2E6300000000A7
S31508002390F8B50120FEF7F9FB0020FEF7A5FDA84CCD
S315080023A0A84E206840F008002060FDF779FFFEF788
S315080023B08BFDA5483178C1607278A449CA60A44AE1
S315080023C0B378D360F578A34BDD60A34D3679EE601C
S315080023D0A24E3788076077884760B0880860F0881B
S315080023E048603089106070895060B0891860F0893B
S315080023F05860308A286000F09EF8206820F01000A7
S315080024002060FDF708FF03F0C7F8FEF755FCFDF757
S3150800241045FFBDE8F140FDF781BF40F2016003F0DA
S3150800242055B966880660A0882860E08868602089B3
S31508002430086060894860A0891060E0895060208A39
S315080024401860704770B5FEF782FBFEF73DFD8648BB
S315080024507C4C00F014F8814CFFF7E3FF00F06BF8B2
S3150800246000F006F8FEF763FCBDE8704003F04EBCCA
S315080024707348016821F010010160FDF7CCBE816840
S31508002480227801F00F0102F0F002114381606F4DCE
S315080024906178E960A2786E49CA606E4AE378D360CB
S315080024A024796D4BDC6070472DE9F0410446884677
S315080024B01F460F2000211646BA0003F0DDFC3568DA
S315080024C0044210D0002000EB870124FA01F2D1075C
S315080024D006D50F218200914038F8173000F025F80C
S315080024E0401C0428EFD31DE02DE9F0410446884638
S315080024F01F46FF2000211646FA0003F0BDFC35688A
S3150800250004420FD0002000EBC70124FA01F2D107DC
S3150800251005D50121814018F8073000F006F8401C5F
S315080025200828F0D33560BDE8F08125EA0102194094
S3150800253041EA020570472DE9F8430021002001F021
S31508002540DDFB01F006FC00F038F808BF904213D016
S315080025500024434DDFF8F09000F045F8641C032C86
S31508002560FAD3404C0026002700F035F800F02CF886
S31508002570761C7F1C032FF7D3BDE8F1832DE9F843BA
S3150800258001F0E8FB00F019F808BF904213D00024C8
S315080025902C4DDFF8B49000F026F8641C032CFAD30F
S315080025A02E4C0026002700F016F800F00DF8761CD1
S315080025B07F1C032FF7D3BDE8F183DFF8B080002234
S315080025C0D8E9000191427047D8E90001761CF3B2B8
S315080025D02A1D214668E7D8E9000109EB4725F3B229
S315080025E02A46214660E709EB442000F10C02D8E9A7
S315080025F000072346294677E7002818BF03F04FBC93
S3150800260003F04EBC80B503F005FD014618480B29BA
S3150800261038BF00EB810002BD80B503F0FFFC010462
S31508002620090E0B29C0B209D2124A525C904205DA49
S31508002630114A52F8211001EB800002BD0F4802BD75
S3150800264000BC0040E85C002000B0004000B200403A
S3150800265000B4004000B6004000B80040D45C00203A
S31508002660045D0020F05C002004B00040285C0020D7
S31508002670E4D0020828D20208FCD1020810D10208C8
S3150800268010B503F0C7FC044603F0C8FCC0B208B98D
S31508002690012C07D1072C11D8DFE804F0041006082E
S315080026A0080A0C0E002010BD092010BD022010BD1E
S315080026B0032010BD0B2010BD062010BD44F080007D
S315080026C010BD00002A490A68520852000A600A68C2
S315080026D0104308604FF4004126480160002101605C
S315080026E06420FEF76ABC2DE9F047234D204FD5F844
S315080026F00090224C8046286840F4004028603868DC
S3150800270020F480503860207868B162781C48A17837
S3150800271000EB820200EB880012F82A2C10F82A0C2B
S31508002720891A461802E0012020262070B0B2FFF769
S31508002730C9FF0FF2500A02E0B0B2FFF7C3FF386BC9
S31508002740042805D0386B400754BF761E761CF3E77D
S31508002750F86A38B184F80180A6701FFA89F02860F3
S31508002760BDE8F0874FF49071504600F0C7FAE6E7E7
S31508002770D0100040181000401C100040D97F0020DF
S31508002780E4080008616E616C6F6775652D76636F86
S315080027902E63000081014FF4FE5289B20C20FDF72A
S315080027A000BE2DE9F84F8B4CDFF82CB2A5682068DF
S315080027B01FFA80FA00F04FFA0127B020ADB20026C2
S315080027C04FF00A08B946206308E016F1190FB8BF9A
S315080027D04FF00A08464436B27019A060DBF80000CC
S315080027E0000702D559EA070028D00120FEF7E5FBC5
S315080027F0B9F1000F11D0AAF10300874202DAFF1CD3
S31508002800BFB213E00AF5004020600621092000F057
S31508002810CBF957464FF000090BE0DBF8000000073C
S3150800282007D5042FA6BFFF1EBFB2002707F5004035
S3150800283020601A2EC9DB6FF00908CBE7A560C4F83B
S3150800284000A00820CBF800006448006880B2BDE804
S31508002850F28F80B55E4B62491B784FF0FF326BB141
S31508002860002819BF4A605F48486041F211100860A5
S315080028705D4841880088BDE8044092E7002819BFF2
S315080028804A600A604860086000F0E5F9BDE804405F
S315080028900621092000F0D9B938B50120FFF7D9FF7C
S315080028A004460020FFF7D5FF05460120FFF7D1FFB4
S315080028B04042001B00EB450000B232BD2DE9F04F47
S315080028C04A4C4B4D424F83B0A06AADF802004FF018
S315080028D000082068ADF80000D5F800B0387858B17F
S315080028E04FF6FF7200210820FDF754FD8046C022EE
S315080028F0C0210820FDF755FD3E48DFF8FC9000781A
S3150800290018B148F26070C9F800007888364E40F46D
S31508002910404040F04C00C9F83C000220A06201206B
S31508002920206040F24C40FEF748FB0120E860286032
S315080029300020308040207080387800B12020FFF7D2
S3150800294029FFFFF7A9FF8246402030807F2070804C
S31508002950FFF720FFFFF7A0FF00F050F8FE214843DD
S315080029600190AAEB060A387848B1304602F0C8FA50
S3150800297000F044F8019980B201EB861103E000F0FB
S315080029803EF8019980B2B1FBF0F080B2401CC60354
S315080029901FFA8BF028600020E86002202060BDF84E
S315080029A000002060BDF80200A0620020C9F83C00C3
S315080029B0387828B14FF6FF7241460820FDF7F1FC3A
S315080029C040F24C40FEF7F9FA300CBDE8FE8F0000E5
S315080029D0F05F0020C010004018A0004000700040C2
S315080029E038100040EEEEFFFFE47E00206020004035
S315080029F02810004013600020D010004006465046BC
S31508002A0002F07EBA41003F2289B201E001463F2228
S31508002A100220FDF7C6BC2DE9F04F564C564D95B031
S31508002A20E06CADF810004FF6FF782068ADF80E00A0
S31508002A304246E86AADF80C0000210120FDF7AAFC21
S31508002A40ADF80A00424600210B20FDF7A3FCADF8BD
S31508002A50080000264FF4004020600DF1140B0020FA
S31508002A602861686148F2020000F088F84CF68C305C
S31508002A70E0644FF4805248F2F000E8621146012003
S31508002A80FDF78FFC424600210B20FDF78AFC062144
S31508002A90062000F0DAF8019000F082F800904CF673
S31508002AA09C30E0640020FFF7ADFF0621062000F009
S31508002AB07BF8B0B2FFF7A6FF0621062000F074F8EF
S31508002AC000F08DF82BF81600761C202EF1DB00F0AE
S31508002AD086F81020FFF796FF00F062F80099019A31
S31508002AE0401ABBF820108E1A404306FB06094FF021
S31508002AF0100A112700F04EF800F052F800F043F8DB
S31508002B0005DB1FFA87FA7F1C202F8146F2DBBAF114
S31508002B10100F0ED10F2700F03DF800F041F800F035
S31508002B2032F806DB1FFA87FA7F1E3FB2002F81466E
S31508002B30F1D5BDF81000E0644246BDF80E002060ED
S31508002B40BDF80C00E8620120BDF80A10FDF729FC63
S31508002B50BDF8081042460B20FDF723FC012028612A
S31508002B60002000F00BF84FEA4A00C0B215B0BDE8E5
S31508002B70F08F0000C010004018100040286040F296
S31508002B804C40FEF71ABA0099401A404306FB060065
S31508002B90484570473BF817000199461AB8B231E71D
S31508002BA00621072000F051B870B505460E4603F019
S31508002BB045FA3F4C206C20F00800206403F040FAE8
S31508002BC000F084F8E90141F001013A4A41EA063188
S31508002BD0116008212160BDE8704000F089B82DE930
S31508002BE0F041354C354D324E25E003F027FA34498D
S31508002BF004200860306C40F0080030642F682868AC
S31508002C0040084000286000F06BF8D4F8008020687F
S31508002C1020F04000206000F05FF8C4F800802F60C4
S31508002C2000F05EF8306C274920F008003064042074
S31508002C30086003F005FA30680007D6D5082030602A
S31508002C402148006880B2BDE8F08180B5FFF7ACFF87
S31508002C50BDE80140C3E71748016849084900016013
S31508002C607047F8B50746FEF768F904463946032063
S31508002C70FFF7EBFF054639460120FFF7E6FF064654
S31508002C80FDF787FB39460020FFF7DFFF0746FDF70C
S31508002C907FFB08480168490849000160781B000461
S31508002CA0711BB0FBF1F060434000000CF2BD000060
S31508002CB018A00040047000400080004094ED00E039
S31508002CC000E100E080E200E000700040EFF31180D0
S31508002CD0602181F31188704700BF30BF00BF70477D
S31508002CE0BFF35F8FBFF34F8FBFF36F8F704700003F
S31508002CF080F311887047000042DE704738B50446F5
S31508002D000D46FDF7D6FAFFF7E1FF2946204603F000
S31508002D109BF92B4622466B49012003F0DDFB294629
S31508002D202046BDE83440E7E767482DE9F047674D98
S31508002D3001682E1D4FF420687165016AB165644902
S31508002D400968F165416A3166816A7166C16AB16668
S31508002D50016BF166806B306796F8340040074CBF0C
S31508002D60F46BB46B02F045FD0022F2648442594AC2
S31508002D70014624BFA2F1200AA2452746316505F17E
S31508002D808C03DFF854C1DFF854E118D3A069306426
S31508002D90E4697464746DC4F30804062C13D1704591
S31508002DA011D360450FD200884DF64264A0420AD17D
S31508002DB03068586040F201787068986003E0002730
S31508002DC03764776407464648814202D2014600E0E6
S31508002DD0091D0846904203D20C68B4F1CD3FF7D0DE
S31508002DE04049081AB0640021002005EB8004401C05
S31508002DF00628A167F9D3002003E0C0B205EB8004DA
S31508002E00A167974222D252F8041D7145F9D361454C
S31508002E10F7D2CC07F5D5002405EB8409D9F87890C4
S31508002E20894502D0641C062CF6D3062CE9D1002865
S31508002E3014BF401E0520E0E7716F002405EB8402ED
S31508002E40641CD76F9767052CF8D319600146481E8E
S31508002E50C9B20029F0D1706DC0F3080002280AD063
S31508002E60032815D0042816D0052817D0062818D008
S31508002E700C281CD01EE01C480168890748BF40F68C
S31508002E8002181CD40068C00719D540F2025816E08B
S31508002E9040F6012813E040F6022810E040F6032821
S31508002EA00DE0B8F5206F0AD140F6042807E040F691
S31508002EB0052804E018B1242838BF40F607284046FC
S31508002EC0BDE8F08754C1020804ED00E000000020C8
S31508002ED000E300E0285C002054C1020890010008C5
S31508002EE098000020285C00201CA00040814233D2B4
S31508002EF010441144401E491E10E011F8013900F82B
S31508002F000139121F11F8013900F8013911F8013990
S31508002F1000F8013911F8013900F8013992B2042A8A
S31508002F20EBDA93B2002B1EBF11F8013900F801390C
S31508002F30521EF6D1704711F8013B00F8013B121FEB
S31508002F4011F8013B00F8013B11F8013B00F8013B81
S31508002F5011F8013B00F8013B92B2042AEBDA93B26E
S31508002F60002B1EBF11F8013B00F8013B521EF6D19B
S31508002F70704710E011F8013B00F8013B121F11F8E9
S31508002F80013B00F8013B11F8013B00F8013B11F841
S31508002F90013B00F8013B92B2042AEBDA93B2002B0C
S31508002FA01EBF11F8013B00F8013B521EF6D17047CF
S31508002FB0130003D00A46194603F0CABA704710B57B
S31508002FC000E0521E93B223B100F005F8F9D0181BA1
S31508002FD010BD002010BD10F8013B11F8014BA342AB
S31508002FE0704700002DE9F04F85B080460F22FF217B
S31508002FF06846FFF7DDFFDFF8A8A06422FF215046E8
S31508003000FFF7D6FF0F250027264CDFF89C90274EA2
S31508003010F05D19F807B0E15D401C00EBD070401078
S3150800302001B11930401C00FB0BF2214830F817108B
S31508003030204892B203F046F8BBF1010F1CBF2AF8EC
S3150800304017505D447F1C0F2FE2DB1B480F2340F20D
S315080030501C4240F2BD2103F035F84FF4E04000F081
S31508003060E2F8164D18B19D212846FFF747FE4FF4A2
S31508003070804000F0D8F818B19F212846FFF73EFE99
S315080030804FF4805000F0CFF818B1A1212846FFF779
S3150800309035FE6946404600F0F4F805B0BDE8F08F05
S315080030A004730020F0F6020810F7020800F7020879
S315080030B0D0F6020844D8020860D8020834D80208B4
S315080030C010B5DFF8944ADFF8143B2488001B06E0A5
S315080030D010B5DFF80C4BDFF8043B24681B1B03EB29
S315080030E04000002304E030F8134021F813405B1C2D
S315080030F09342F8DB002010BD2DE9F04182B004466A
S315080031000D4616460027DFF8D48A01E0BF1CFFB239
S31508003110B74217DAE819E95D4078DFF8C83A1B883C
S3150800312001EB0020ADF80000012207EBD77004EB95
S315080031306000C01A00F09CFB0100E7D002F0B6FE62
S31508003140002000E00120BDE8F681F8B504460F46E8
S31508003150154600260DE000F019F8BDF8000004EB4E
S315080031604601000A48707F1CBDF8000004F81600E6
S31508003170761CB6EB550FEEDBE80706D500F006F829
S31508003180BDF80000611901F8010CF1BD012269467C
S31508003190B8B295E7DFF8C029DFF8401A1288801A16
S315080031A001EB4001022003F018BADFF83C1ADFF8F9
S315080031B03C2A095C125CDFF8383A185C10B102F553
S315080031C0997292B241EAC21080B27047DFF8183A93
S315080031D0DFF8202A1B5C012B1CBF32F810000818E8
S315080031E002EB4000704738B50C46DFF80C1A0D782C
S315080031F02A462146FFF764FF208801001CBF4FF6C8
S31508003200FF7188420BD0012000E0401CC1B2A942E0
S3150800321007D2C0B234F8101022889142F5D00020A7
S3150800322032BD012032BDF0B5DFF8B41987B00860A9
S315080032300C2269460020FFF74BFFBDF81600BDF8C3
S315080032400C200346040A012000254FF6FF763DF8B8
S315080032501570BDF80010B94203D1B74218BF002F48
S3150800326000D100206D1C062DF1DBB21A914218BF61
S315080032700020DBB2C4F1FF018B4218BF002007B063
S31508003280F0BD2DE9F24F0446DFF870690020307072
S3150800329070809CB0DFF868090088ADF8020007A9BD
S315080032A0FFF7A1FF83460120707009A9DFF85409CA
S315080032B00588DFF85409B0F80080DFF89C0807880D
S315080032C0BDF802A03846FFF78EFFB8B1BBF1000F74
S315080032D03DD0BDF81C10BDF824004FF6FE72914291
S315080032E002D1012804D10CE0012908BF90422ED052
S315080032F00846BDF82410884229D202E0BBF1000F27
S3150800330024D000207070029750460695CDF810809C
S315080033100122DFF8E41891F800804044ADF8060071
S315080033206946BDF80600FFF7CBFEDFF8E00800881F
S3150800333005904FF6FF79BDF80000000B404518BF11
S315080033400F2801D1200021D0002516E0012470782D
S315080033500028D8D03846CDF808A0CDF818800495AE
S31508003360D6E7059805FB00F4E01900F05DFCBDF80A
S315080033700200201800F058FC6D1C4545F1DB0120C1
S3150800338030704D2002F092FD0025F7E0BDF806509A
S31508003390012201A92846FFF793FEBDF80400C043A1
S315080033A000F0FF00ADF804006F1CDFF8640805881C
S315080033B0BDF80400A84218BF01244FF0000A20E017
S315080033C0401CC1B2A94218D2C0B2DFF84818BDF8ED
S315080033D00E20834631F81B109142F1D1FFF7E5FE26
S315080033E04FF680710840BDF80C104FF680721140F8
S315080033F0884204BF1C9800F80BA00AF101001FFAC6
S3150800340080FABDF80400824507DA022203A9B8B299
S31508003410FFF756FEBF1C0020D3E7002001E0401C42
S3150800342080B2A84217DA1C99095C8142F7D00124B8
S3150800343011E02AF81070BDF8060000EB4300401CA6
S3150800344000F0DBFABDF80200C0F3C710401C00EB21
S31508003450D07007EB60070498DFF898A7BFB28742D9
S315080034600EDA00F099F8BDF80000484508D0030ABE
S3150800347000F07F01BDF804007F1C834202DB0124B3
S3150800348000252DE0002000E0401CA842D3DA1C9A53
S31508003490125C9A42F8D1C0B2FF28CCD0DFF8482790
S315080034A0125C7F290CBF4FF0000C8C4694450BDA52
S315080034B0BDF800C0DFF838E71EF800E04FEA0C6CEC
S315080034C04FEADC7CF44501D00124B4E7012AB0D0E8
S315080034D07F293AF8100008BF00210818A9E76D1CD3
S315080034E0DFF834070088854204DA3AF815004845BB
S315080034F0F5D1012477800498BFB2874207DA00F035
S315080035004BF8BDF800007F1C4845F4D039E7002C7D
S31508003510FCD1029801220BA980B2FFF7D1FDBDF8B4
S315080035202C0048450DD105E0401C80B2202813DB4D
S315080035302034A4B20699029A891A8C4205DB012026
S31508003540307000201DB0BDE8F08FA51820220BA909
S31508003550A8B2FFF7B5FD00200BA931F810104945B0
S31508003560E2D0A8B2FFF716FE203CA4B2E0E7029824
S31508003570059905FB010000F057FB6D1C4545F6DB78
S3150800358001203070494600F046F818B100F035F9C8
S315080035900028D6D10120D5E70122694638468FE5AD
S315080035A02DE9F0420F46DFF86816DFF8405609881D
S315080035B08F420446164699460CD2DFF82C16C95D8A
S315080035C030467F2808BF0020884203DAE95D89452E
S315080035D000D11CB940F2D54100F00BFA3146384605
S315080035E0FFF7F4FD0188DFF80806C05D60B13846CC
S315080035F000F035FAE95D012908BF207009D00229D3
S3150800360014BF2060208004E04A462046BDE8F04208
S315080036109BE5BDE8F0822DE9F34FDFF83C05DFF8BE
S31508003620D8150488DFF8D4050978407883B00028CF
S315080036301ABFDFF8CC05008820460D18DFF8D0053C
S315080036400088ADF80800ADB2C04300F0FF0000EBFB
S31508003650013000F55060ADF802002B1BDFF87C0541
S3150800366001220DF1020100F0E3FA6E1C0100B6B268
S315080036703AD10025DFF89C7513E0E8B2FFF795FD0F
S31508003680ADF80400331B37F81500ADF80600022222
S31508003690DFF8480500F0CBFA010025D1B61CB6B212
S315080036A06D1CBDF808008542E7DB002500E06D1CAF
S315080036B0BDF80800854280F29B80DFF83405405D3E
S315080036C08DF80A004FF0000A1BE001220DF10201F5
S315080036D01FFA89F0FFF7F4FCBB19DFF8000500F0C4
S315080036E092F9010009F101097AD17F1CFFB2B7EB03
S315080036F01B6FEADBDFF82405405D8619B6B20AF1CE
S31508003700010ADFF8E404475D5FFA8AF0B842CED2D0
S315080037105FFA8AF1E8B2FFF759FD80469DF80A007C
S31508003720B8F80090C00140EA0520ADF80000012F66
S31508003730BDF800000EBF40F07F005FFA8AFA4AEA39
S315080037400000ADF80000311BDFF8900400EB4100E3
S315080037504FF6FF71771C89451EBFBDF80010BDF8EE
S3150800376010209142BFB219D19DF80C100029C6D07D
S315080037700122694602F06BFF01003E4630D1DFF8B0
S315080037806C04A8F80060425DDFF8940450F8251030
S315080037903046FFF7B1FC0028ACD124E0DFF84C1422
S315080037A0495D491C01EBD1714FEAC15B01226946AB
S315080037B002F04DFF01003E4612D1A8F800609DF8C0
S315080037C00A0098B14946E8B200F049F90190331B5E
S315080037D0DFF808044FEA1B6200F029FA010089D0D5
S315080037E002F064FB002005B0BDE8F08F00277DE7F6
S315080037F0DFF8080446800120F5E7DFF804042DE920
S31508003800F0410688DFF85003DFF8F053048868783B
S31508003810DFF8C883002882B012BF20463046264605
S3150800382001226946FFF74CFCBDF8000001280CBFD1
S315080038304FF6FE70401EADF80000DFF8BC030778AF
S315080038403846471E58B1BFB2B819001B012200F00E
S315080038500FF80100F4D002F029FB002006E0687892
S3150800386080F001006870002028700120BDE8F6810C
S31508003870694608EB400002F0EABE2DE9FE4F0D4608
S31508003880DFF88C1309888842044617461E464FF00F
S3150800389000094FF001080ED2DFF84C13095D3846CF
S315080038A07F2808BF0020884205DADFF84013095D43
S315080038B08E4200D11DB940F2F95100F09AF8394606
S315080038C02046FFF783FC0190CC4F787820B1CD488D
S315080038D0B0F800A0A04803E0CB48B0F800A0C8485C
S315080038E03978008849B97988081ACE4909888842FA
S315080038F0B4BF4320442002F0D9FA01980188BC4895
S31508003900005DF8B1204600F0AAF8012E08BF297814
S3150800391003D0022E0CBF29882968814267D00198F6
S315080039200088401E00F069F8BC48065D7888AAF150
S315080039300101891B814201DB002837D1387868BB31
S31508003940452046E00291CB4622E002980BEBDB735A
S3150800395000EB630000F002F905EB0B0015F80B10FD
S31508003960407801EB0020711E8B4580B207D1BDF867
S31508003970001001F0FF0100F0FF00ADF80010BDF8DF
S31508003980001088420BF1020018BFC8465FFA80FB98
S31508003990B345DADBB8F1000FC1D028E0BDF8021054
S315080039A00020FFF738FE10B34FF0010978888F49D9
S315080039B0401C788080B20A5D2946FFF79DFBB0B1AE
S315080039C0654C7B88248885485B1E00F01CF801003E
S315080039D002D002F06BFA0AE0B9F1000F02D0FFF745
S315080039E00CFF20B101997888088030187880BDE8E6
S315080039F0F78F0FF24420FFF781B901220DF102017A
S31508003A0080B2FFF75DBB1B1B01220DF1020100EB23
S31508003A10430002F01CBE70B582B004460025192684
S31508003A2001226946A0B2FFF74BFBBDF80000641CF3
S31508003A3048B14FF47F41401A02D0FF3806D007E05C
S31508003A40681C40B276BDAD1C761EE9D168B276BD5B
S31508003A50BDF80000C0B200B96D1CE843F1E738B5FF
S31508003A600C460021009161490D5C2A4621466846AC
S31508003A70FFF76BFB681C00EBD07004EB600080B2AC
S31508003A80FFF7C9FF002848BFC043009940B2401855
S31508003A9032BDF0B55E4909880446564883B02546C6
S31508003AA030F815608C4202D25148405D18B940F290
S31508003AB03D71FFF79EFF4D48455D681C00EBD070D1
S31508003AC006EB6007B8B2FFF7A6FF322814D2BFB2DA
S31508003AD0C10707EB6000204F404B3F884CBF0021D1
S31508003AE04FF47F41ADF80410C01B012201A903EB76
S31508003AF0400002F0ACFD60B131462046FFF7AFFF4B
S31508003B0000902B46401C00907F2269462046FFF70E
S31508003B10B4FEF7BD70B53948017882B00024C1B942
S31508003B204078002814BF36480B480588324806787E
S31508003B300BE0F6B2701900F011F8BDF80000002885
S31508003B401EBF4FF6FF718842641C3046461E002889
S31508003B50EFD1E0B276BD00000604030801226946EB
S31508003B6080B2FFF7ADBAF8B5244C207800270028B4
S31508003B7032D11C480588607800281ABF2048068874
S31508003B802E461D4807783846471E02281DDBFFB219
S31508003B90B819FFF7E3FFBDF800000028F3D01B486B
S31508003BA0008807FB006000F03FF80020ADF8000031
S31508003BB0BB190A485B1B0122694600F039F8010067
S31508003BC018BF02F073F93846F2BD3046FFF7E2FA3D
S31508003BD0F8B208B901202070F8B2F2BD00E0030877
S31508003BE0E87B00200604030810F7020800F702081D
S31508003BF0F0F602080473002029040308DC7E00207E
S31508003C000A040308080403080C0403080404030848
S31508003C1010040308D0F602081204030890D8020814
S31508003C2024FA02080E04030880B2FFF7B3BA01A902
S31508003C3000EB430002F00BBD73696D2D656570726C
S31508003C406F6D2D696E7465726E616C2E630000006F
S31508003C5045480068704770B5444C454E257830781D
S31508003C6041490968C9031ED405F0010100F00102A3
S31508003C70114318D03F490A6842B1000706D50968BA
S31508003C8008208847307800F0F70030703A4908680D
S31508003C9070B128070CD5096808208847207800F0F5
S31508003CA0F700207004E03548017809B10021017059
S31508003CB0BDE870404FE02DE9F84304468846FFF713
S31508003CC005F881462E4800780127B0B1274F2A4EBD
S31508003CD03D78200009D1002D1CBF3068002804D08B
S31508003CE0680602D5316840208847C6F80080A54294
S31508003CF01CBF3C70FFF7AFFF002721E02DE9F84312
S31508003D0004468846FEF7E2FF81461D4800780127EB
S31508003D10B0B1174F174E3D78200009D1002D1CBFB2
S31508003D203068002804D0680602D5316840208847E4
S31508003D30C6F80080A5421CBF3C70FFF78CFF002721
S31508003D404846FEF7D5FF3846BDE8F2830C480078AA
S31508003D507047704700BF0A48084900780020087075
S31508003D60FDF774BE00000000B0650020A37F0020A8
S31508003D70A47F0020B8650020B4650020A27F00203B
S31508003D80A17F00202DE9F84305460E46300014466B
S31508003D9005D1FDF73CFD2018C0F313004DE02F4672
S31508003DA0022F0FF2501803DB40214046FEF7A6FF0C
S31508003DB0102C05D22846B047BDE8F143FDF727BDCC
S31508003DC0DFF8209159F8270018B148214046FEF738
S31508003DD095FFB4F5002F03D349214046FEF78EFF21
S31508003DE049F82760404F414E95B9FEF76FFF0546E3
S31508003DF0FDF70DFD2418A0B27860200C386002206B
S31508003E0030602846FEF774FF306C40F0020011E07F
S31508003E10FEF75CFF0546FDF7FAFC2418A0B2F86029
S31508003E20200CB860042030602846FEF761FF306C2D
S31508003E3040F004003064C4F31300BDE8F28370B5A3
S31508003E4004462646022E0D4604DB66210FF2A40020
S31508003E50FEF754FFFEF73AFF224951F82620AA42F8
S31508003E6010D1002241F82620002C20490A6C04D1E2
S31508003E7022F002020A64022203E022F004020A6423
S31508003E8004220A60BDE87040FEF732BF70B5174CD1
S31508003E90144E2068216C01EA0005ADB2A80709D5C1
S31508003EA0206C20F0020020643168080002D000204F
S31508003EB03060884768070AD5206C20F00400206423
S31508003EC07168080003D000207060012088472560CB
S31508003ED070BD02F08FBC010008BF01200201044931
S31508003EE000204FE7647D00204020004008A00040E5
S31508003EF0D33E000873796D626F6C2D74696D6572B7
S31508003F002E630000F8B5274D2E68040001D1FF2066
S31508003F10F2BDFEF7DBFE244F29683A7821F81240F5
S31508003F2036F8021BA142FBD1FEF7E2FE29683A7871
S31508003F30B01E401A4010C1B2914208BFFF20C0B25D
S31508003F40F2BD2DE9F843194C174D266881462878A5
S31508003F5006EBC007FEF7BAFE8046082249463846F1
S31508003F60FEF7C4FFF88800E00836F188814202BFF0
S31508003F7031883A889142F7D171887A88914202BF8E
S31508003F80B188BA889142EFD14046FEF7B1FE206863
S31508003F902A78301AC010C1B2914208BFFF20C0B2B9
S31508003FA0BDE8F283A45C00200B600020A85C00201A
S31508003FB038B502F088FDFEF789FEDFF8A849054600
S31508003FC020784200DFF8A0090068FF21FEF7F0FF1D
S31508003FD02078C200DFF8940900F035F8207842000E
S31508003FE0DFF88C0900F02FF82846FEF781FE2078C6
S31508003FF08200DFF8800900F026F820788200DFF8D2
S31508004000780900F020F8DFF87409227800F01BF828
S3150800401020788200DFF8680900F015F82078820019
S31508004020DFF8600900F00FF820784200DFF8580939
S3150800403000F009F8DFF85419002008800120DFF89D
S315080040405019088031BD00680021FEF7B1BF2DE97F
S31508004050FF47DFF840090078C00756D50024DFF887
S315080040602459DFF80869DFF80079DFF8F88848E0AE
S315080040700E2322460E216846FDF7E4F8684602F04C
S315080040807CFD5FEA000A3AD0FEF720FE814603F07F
S315080040907CF9CAF309010843396821F81400082293
S315080040A030680DF1020100EBC400FEF71FFF9DF812
S315080040B00000DFF8BC180968C20605D531F81420D7
S315080040C042F0010221F81420020705D531F8142020
S315080040D042F0040221F81420400705D531F81400EF
S315080040E040F4005021F814004846FEF701FE0DF191
S315080040F00A01002002F06EFD296841F82400641CBC
S31508004100E4B298F800008442B2DBBDE8FF8770B5D8
S31508004110DFF85C4824680022002302E024F81350E4
S315080041205B1CDFF840582D78AB4209DA34F8135097
S315080041306E07F5D501220E0014BF05438543EDE74A
S31508004140104670BD002100E0491CDFF818381B78BE
S31508004150CAB29A420AD2DFF818281268C9B232F8E7
S31508004160112002408242EFD101207047002070479B
S31508004170002070472DE9F84307460C46DFF8EC5750
S31508004180DFF8EC67DFF8E097DFF8D88709E0D9F8B9
S31508004190000030F817004FF6FF71884215D07F1CD3
S315080041A0FFB298F80000874211DA002CEFD0306889
S315080041B010F81700C007F2D5286800EBC7010822D7
S315080041C02046FEF7FCFE0028E9D1384600E0FF202D
S315080041D0BDE8F283002000210AE0DFF89427126880
S315080041E0C9B212F81120D20744BF401CC0B2491CFC
S315080041F0DFF870371B78CAB29A42EED370470021AF
S3150800420000E0491CDFF85C371B78CAB29A4209D22B
S31508004210DFF854271268C9B232F811208242F0D169
S3150800422001207047002070472DE9F8430446884668
S31508004230914600F098FA05462E46FF2E04D1002135
S3150800424000F092FA054612E00899B1B1002002F092
S31508004250C1FCDFF8201700F020F80ED309990020DA
S3150800426002F0B8FCDFF8101700F017F805D3FF2D99
S3150800427003D02046FFF7C3FF08B1FF200BE007B9BC
S315080042801E2700974B4642462146284600F00BF863
S3150800429000B9FF252846BDE8F283096851F82610BB
S315080042A0401C884270472DE9F44F84B08046DDF8FB
S315080042B03890B9F1000F8A461D4604D1F2210FF253
S315080042C0E060FEF71BFD0124A80748BF44F201047D
S315080042D0280758BF44F00404E80758BF44F0800490
S315080042E0680748BF44F400544FF6FE704546DFF8A9
S315080042F07876824501BF386830F815A04FF6FF700A
S31508004300824516D103F041F8DFF884160A88C2F30D
S31508004310090300F47C4040EA030A501C80B2B0F559
S31508004320006FA8BF012008805046FFF768FF0028E5
S31508004330E8D1FEF7CBFCDFF834660499834630688B
S31508004340082200EBC500FEF7D1FD386820F815A055
S31508004350DFF81C06DFF82CA6006820F8154058463A
S31508004360FEF7C6FCDAF8000040F82590DFF82806C4
S3150800437090F90010404600F03CF8404602F08FFBEA
S31508004380386830F81500C0F30901684602F0FFFBEB
S315080043909DF8000040F010008DF80000600705D574
S315080043A09DF8000040F008008DF80000A00405D52F
S315080043B09DF8000040F004008DF8000008223068DF
S315080043C000EBC5010DF10200FEF790FDDAF80000DA
S315080043D050F825200DF10A01002002F0DCFB0E231F
S315080043E06A4641460E20FCF73DFF012005B0BDE8B0
S315080043F0F08F38B50446FF2C0D460ED003F027FB88
S31508004400DFF884150968800A21F8140015F1800F71
S3150800441003D0DFF888050068055531BDDFF8441577
S3150800442010B50978884204460AD203F010FBDFF873
S315080044305815096831F81410C1EB902080B210BDE8
S31508004440002010BD2DE9F14F0C46DFF840A50021EC
S315080044505046002703F02DFBB84614E010222946E3
S315080044602046FEF7ACFD38B94846FFF7D7FF0FB12F
S31508004470404501D280465F461035B542EED35946CF
S31508004480504603F045FB83465FEA0B0014D05846B6
S3150800449003F0DDFF0546584603F0F1FF2E18002D00
S315080044A0F5D015F8019B9DF80010894501D15846AD
S315080044B003E0002CE3D0E0E73846BDE8F28F2DE9AB
S315080044C0F04F804613204FF0000B95B018708946C0
S315080044D083F801B09F1C924603AC4D460026009710
S315080044E007E0082204F1090101A8FEF7FFFC4FF0D6
S315080044F0010B287801064CBF0921112109EB0A0294
S3150800450069188A422CD3010606D411222946204668
S31508004510FEF7ECFC113511E0611C00F00F0004F009
S315080045200DFB402818BF0935E3D1287820700822EA
S31508004530691C04F10900FEF7D9FC0935601C04F072
S3150800454039FB0028CDD1F6B2032ED2DA601C05F06D
S31508004550A2FA10B96078FF28CBD11134761CC8E7C7
S315080045605FEA0B0018BF761C3001441C0021404648
S31508004570E4B2FFF767FF012C8246DFF8105405D135
S315080045805FEA0A0012D000F060F80FE05FEA0A005E
S3150800459005D003F074FFA04212DA00F056F80021A5
S315080045A0204604F06AF85FEA000A03D1384615B0D7
S315080045B0BDE8F08F00225146284603F082FA08E04B
S315080045C0504603F05CFF844203DA2146504603F066
S315080045D06FFF504603F03BFF8146BBF1000F09F819
S315080045E0018B03AC16D0484604F0D8FA082201A974
S315080045F009F10800FEF77AFC09F11009761E09E0B0
S315080046001022611C3846FEF771FC1037761E1134ED
S3150800461009F11009F0B290B11022611C4846FEF764
S3150800462065FC207807F8010B20780006E8D50822F3
S3150800463004F109013846FEF759FC0837E6E7009801
S315080046400099381A01F8010CB0E7002251462846AD
S3150800465003F088BA38B50024DFF8085302E000F002
S3150800466006F8641C2978E0B28842F8D331BD1FB534
S3150800467004460021684602F08AFA082200210DF154
S315080046800200FEF795FC042200210DF10A00FEF750
S315080046908FFC0E236A4621460E20FCF7E3FD1FBD5C
S315080046A02DE9F041DFF8C062DFF8C47204463068CD
S315080046B0254630F8150006F0B0F9386830F81500C8
S315080046C0400404D5204600F040F806F0E0FCFEF76A
S315080046D0FDFA8046DFF8940200680822002100EB04
S315080046E0C500FEF765FC3968002021F815004FF66D
S315080046F0FF70316821F815004046FEF7F9FADFF831
S31508004700741209684FF0FF3041F82500DFF8681287
S31508004710096841F825000020DFF86412096841F8A5
S315080047202500DFF86412096821F8150000212046E3
S31508004730FFF788FE010004D00022DFF8500203F0DC
S3150800474011FA2046BDE8F04191E78949096811F850
S315080047501010C90704D58449096831F81000704754
S315080047604FF6FF7070471F46002003E580B5FFF738
S31508004770C9FBFF2804D000F010F80006800E11E0EF
S31508004780002002BD80B5FFF7BDFBFF2803D000F06F
S3150800479004F8800B06E0002002BD7549096831F867
S315080047A01000704700F0010002BD80B5FFF7AAFBB4
S315080047B0FF2804D06D49096801EBC00002BD00203E
S315080047C002BD70B50022674901E0521CD2B20B78CF
S315080047D09A4213DA664B1D6835F81260B307F4D5AA
S315080047E0664B1B689C56241A14F1400FBDBF4FF642
S315080047F0FD73334025F812309C54E6E770BDF8B5D2
S315080048005B4F15463A68064612F816200C4692077C
S3150800481018465A4903D40B686FF07E029A55096800
S31508004820314406F059FE70B1386830F8161041F078
S31508004830020120F816104F48006840F826404E48F6
S31508004840006840F82650F1BD00200FE04849096885
S3150800485011F81010890708D5464A1268002142F84F
S315080048602010454A126842F82010401C3D49097834
S315080048708842EBDB7047F8B504461546FFF773FF29
S315080048800646FF2E22D03A48006810F81600800720
S315080048901CD5684606F01AFE28B940F2A6210FF282
S315080048A00010FEF72BFA3548006800998257511810
S315080048B00091012F0CBF30492E49096801EB860784
S315080048C00099A94204D13868844208D20020F2BD72
S315080048D0FCD28119284606F0FFFD0028F6D0601C98
S315080048E038600120F2BD3EB5054606F083FF204C30
S315080048F080B101A905F1080006F013FF01A90020FF
S31508004900FFF738FC0146FF2904D0226812F8111077
S31508004910890725D42946FF20FFF794FD010004D016
S3150800492003F095FD08B100783EBD284606F062FF03
S3150800493018B9284604F03EF988B1694605F1080019
S3150800494006F0C3FE58B1BDF80000FFF7DBFA0146D2
S31508004950FF2904D0226812F81110890700D4FF2015
S315080049603EBD00000B600020A45C0020A85C00206F
S31508004970A05C0020B45C0020B85C0020BC5C002071
S31508004980AC5C0020B05C0020C05C0020E07E00200B
S31508004990EC5F00207E78002000600020C45C0020C8
S315080049A06368696C642D646174612E63000000009D
S315080049B038B504466048614D002912BF00210178C8
S315080049C0491C01700120012101F0BDFA2878411C1B
S315080049D089B2032001F0B7FA200003D0FFF738F9AF
S315080049E0002808D5FFF734F940054CBF03200120FD
S315080049F00021FFF760F9524844702846BDE8384060
S31508004A0001224FF4806107F055B980B5FDF78DFB9B
S31508004A10BDE80240312007F07DBA38B50446402C7F
S31508004A20154606D1FFF714F900F08020B0F1004FC3
S31508004A3003D000210020FFF73EF9002C3AD0402C85
S31508004A4024D0882C18BF892C38D08C2C38D08D2CA3
S31508004A502DD08F2C39D13B48007804280FD155B179
S31508004A603949022008704CF25032BDE838403749BF
S31508004A700020FFF787B9FDF758FB312021E0FDF745
S31508004A8054FB002D0CBF312000201AE0FDF74DFB2A
S31508004A9007F020FB28482E4900780978884204D276
S31508004AA0BDE834400021012082E7402009E007F0F4
S31508004AB017F903E0FDF739FB002002E0FDF735FBA7
S31508004AC08D20BDE8324007F025BABDE83440B42150
S31508004AD045E01D480078022800D0704780B51D487B
S31508004AE00078012807D0032810D11B48007802282F
S31508004AF018BF7C280AD115490020FFF7A0F9FDF751
S31508004B0014FBBDE80240002007F004BA01BD38B521
S31508004B10FEF7DCF805460C480078002410B9FCF7C7
S31508004B2078FF04462846FEF7E3F81CB1BDE8314095
S31508004B3001F024BA31BD0000E17F0020FE7E00208E
S31508004B40D05D0020F95F0020E47F00200B4A0008B2
S31508004B5017600020E27F0020E37F0020E9210FF2A2
S31508004B600800FEF7CBB800006D61632D7068792EDA
S31508004B706300000070B50446A0480D460178164645
S31508004B8019B14188491C418070BD204607F0B9FA21
S31508004B9080B1FDF725FB38B1A078002E14BF40F090
S31508004BA0010000F0FE00A07029462046BDE87040CE
S31508004BB02E2200E070BD70B504460D461646601CF0
S31508004BC001F0D8FF10F0070F1ABF41F649018842D5
S31508004BD000260121002001F0B6F92078411C89B28F
S31508004BE0022001F0B0F932462946204603F0E2FDDC
S31508004BF018B1BDE8704002F0B1BB80488188491CF5
S31508004C00818070BD2DE9F04FA5B003F01EFE7B4EE6
S31508004C10814600257088A84600B17580B1880800CD
S31508004C2003D00D2001F08FF9B5805FEA090042D064
S31508004C3003F00DFC040018BF2578601C01F09AFFEC
S31508004C4010F0070F1BBF41F649018842C3464FF0D3
S31508004C502E0B484603F013FC2018CBF1000108443C
S31508004C60A0F10801082202A8FEF740F902AFF87879
S31508004C70FCF776FF2946FCF77AFF834697F9020088
S31508004C808DF804005E480078B0B1B068002812D0EC
S31508004C9004A8802107F038FA6B1CCDF80080DBB237
S31508004CA00022494604A803F0EFFD9DF90420B368E5
S31508004CB0594604A898479EE0484607F033FB002863
S31508004CC0504D1ED00521484603F026FE8246032095
S31508004CD001F019FA4C4F4D490AF007003870FF20C9
S31508004CE0087084F801B09DF80400A0709DF80800CB
S31508004CF0E070484607F0E9FE0328484602D109F065
S31508004D0021F86AE007F0D1FE00F00500042807D074
S31508004D103878032804D1484607F047F900285CD1BB
S31508004D2002F057FB18B102F054FB012802D138787B
S31508004D30002860D1F268100004D000214846904748
S31508004D40002858D12878032818BF042805D0022837
S31508004D5021D12F480078C0071DD402F03AFB03285A
S31508004D6019D1484607F069FFB0F5004F13D14846F8
S31508004D7007F086FF2749098881420CD0484607F084
S31508004D8094FE000707D4484607F08FFE400632D542
S31508004D90387801282FD12878042804BF38780128C4
S31508004DA009D11D495FEACA6081F8008003D506F07B
S31508004DB0D4FF4FF00108387820B101280AD003281B
S31508004DC004D00AE0484608F071FB06E0484609F0B8
S31508004DD0C9FC02E0484609F013FD287804280AD1E0
S31508004DE00D48007888F00101084204D00A490020DD
S31508004DF0087006F0B2FF25B0BDE8F08F4C7D0020A4
S31508004E001D7D00207A780020E27F0020E37F0020C5
S31508004E107E7800200E5E0020F37E00202F49486031
S31508004E2000200870704710B52C4C2278616800F095
S31508004E3003F80120207010BD2DE9F04104462848EA
S31508004E400068C0050D46904604D071210FF2A800EF
S31508004E50FDF754FF234F244E3868002818BFB8F1D1
S31508004E60000F02D03068854203D0284600F028F8A3
S31508004E7035608020386006211C48016007213960AA
S31508004E8001688907FCD5216809BAB962616809BA57
S31508004E90B962A16809BAB962E16809BAB962016872
S31508004EA04907FCD5386B00BA2060386B00BA6060D9
S31508004EB0386B00BAA060386B00BAE060BDE8F081D4
S31508004EC002680B4912BACA60426812BA8A608268D6
S31508004ED012BA4A60C06800BA086070473C7D002074
S31508004EE004ED00E000300040447D002010A00040A2
S31508004EF03830004000229FE76165732E630000008A
S31508004F00002848BF4042704701468AB20AB94BF6A4
S31508004F10EF610F4A1180000C0E4908BF4FF6CE20EC
S31508004F20088070470288130448BF4A405100018030
S31508004F301046704710B562210548FFF7F3FF04468F
S31508004F4041F20B010348FFF7EDFF604010BD00007A
S31508004F50D65F0020D85F0020012100F01F02914093
S31508004F60DFF87C25400942F8201070472DE9F04FFC
S31508004F70DFF8744593B061681091072808BF0320CD
S31508004F8006D0082808BF022002D0052808BF04203A
S31508004F90DFF8585529686A68AB68EE68D5F810B026
S31508004FA041EA022141EA034141EA066A696849077A
S31508004FB003D5E16941F00201E1612968490703D592
S31508004FC0E16941F00401E161EA692AFA02F1C907D7
S31508004FD003D5E16941F00801E1610022DFF80465C3
S31508004FE0401EC6E90022032800F27282DFE810F0AC
S31508004FF0450206002100040062601AE0DFF8F004AA
S31508005000006CC00703D5E06940F04000E061DFF8B6
S31508005010E004006C400703D5E06940F02000E06139
S31508005020DFF8CC04006C800703D5E06940F0100077
S31508005030E061FDF74BFEFBF749F98DF83C000123CB
S31508005040DFF8B004DFF8B074C0F50040000B03FACF
S3150800505000F0401EB8634FF00008000A07D1DFF8D9
S315080050609C04007818B1606C40F020006064DFF89A
S315080050708004DFF86CE4016C0E91416CDFF8800463
S315080050800D91C16C0C91016D0B91416D0A91816D69
S31508005090DFF8700409913968089179680791796988
S315080050A00691796A0591796B0491D0F80090DFF83A
S315080050B058040168039102202060DFF85004016853
S315080050C0DFF84C048DF800100168DFF848048DF805
S315080050D001100168DFF840048DF802100168DFF856
S315080050E03C048DF8031001688DF804104FF0FF306A
S315080050F06062DEF80000C0040CD56868C00709D5F0
S31508005100E069C00706D5D6E9000140F48070C6E913
S3150800511000019846DEF8000080040CD56868400651
S3150800512009D5E069C00706D5D6E9000140F48040F4
S31508005130C6E900019846DEF80000400411D5A969C1
S315080051402AFA01F0C0070CD5E069C00709D5D6E9E7
S3150800515000010246A86903FA00F01043C6E90001F7
S315080051609846DEF80000000414D5E9692AFA01F029
S31508005170C0070FD5E069C00702D4E069000709D562
S31508005180D6E900010246E86903FA00F01043C6E9C9
S3150800519000019846DFF858030068800707D5E069DC
S315080051A0C00604D5707940F0010098467071DFF8A2
S315080051B040030068400707D5E069800604D5707982
S315080051C040F0020098467071DFF824030068C007B3
S315080051D007D5E069400604D5707940F00400984682
S315080051E07071DEF80000C00307D5E069000604D533
S315080051F0707940F008009846707100206968C90700
S315080052006968AA6948BF4FF48050490648BF40F408
S3150800521000502AFA02F1EA69C90748BF40F48040FB
S315080052202AFA02F1C907E16948BF40F40040C906F5
S3150800523005D4E169890602D4E169490601D540F039
S315080052401000E169090648BF40F4803000EA090009
S315080052500290A520FBF731F80120E063E069A16B15
S3150800526011B1616A0142FAD0616A014200F0D88040
S315080052700020E063707940F04000707100F0DEFEB7
S3150800528004989B497863072008600F209C490860AA
S315080052900AF02AFB1098964960600E9808640D98E3
S315080052A0486497490C98C8640B9808650A98486535
S315080052B00998886593490898386007987860069829
S315080052C0786105987862029808608F4903980860A3
S315080052D04FF0FF30924908608C48006830708C485F
S315080052E0006870708B480068B0708B480068F07072
S315080052F08A4800683071606AE1690840E969D6E958
S315080053000079DDE900237A4002EA0A070206520E0E
S3150800531002F0010289EA030357EA822703EA0B0926
S315080053200206920E030602F00102DB0E57EA82021B
S3150800533003F0010303FA01F7010149EAE77301F4EF
S315080053407C513A431943C6E90021FDF7BFFC00F03A
S3150800535077FE002020609DF83C0008B1FAF7A0FF10
S31508005360707968490968C90304D5C0F3C00109B151
S31508005370202121625E49096C890704D5C10702D537
S315080053805B4A0221D1605A49096C490705D5C0F321
S31508005390400111B1564A0421D1605549096CC90723
S315080053A005D5C0F3800010B151490120C8605448A2
S315080053B0C06C800606D5D6E90001C00544BF0C209E
S315080053C0FFF7CAFD4E48006D800606D5D6E90001EE
S315080053D0400444BF0D20FFF7BFFD4948406D8006D5
S315080053E008D5D6E90001A969C840C00744BF0E2000
S315080053F0FFF7B2FD4248806D800608D5D6E9000160
S31508005400E969C840C00744BF0F20FFF7A5FD7079BA
S3150800541040F08000707113B0BDE8F04F0AF09EBAF4
S315080054205FEA08007FF426AFB8693749DFF8F490D9
S3150800543040084000B8613448806840F0040088603D
S3150800544040F20721B9F80000884202BFB9F8020005
S315080054504FF20F01884205D14CF23C30A9F8020000
S315080054604FF0010801200AF07DFAB8F1000F03D0C9
S315080054704FF20F00A9F8020002E7FAF727FF0446E1
S31508005480A520FAF71AFF00F0D9FD0AF067FA264DAB
S31508005490DFF898802E682868400840002860FDF7E5
S315080054A01FFCD8F80070D8F8000020F04000C8F8B3
S315080054B00000FDF711FCC8F800702E60FDF710FC1F
S315080054C00CB1FAF7EDFE13B0BDE8F04F00F0B8BD29
S315080054D013B0BDE8F04F40F259411548FDF70EBC30
S315080054E000E200E0906500200400004008BC00408F
S315080054F014A0004000000000044000409807080877
S3150800550014A8004000E100E008ED00E008B0004003
S3150800551008B2004008B4004008B6004008B8004089
S3150800552080E200E00000002094ED00E000800040EA
S31508005530A0D8020810B5144C207858B91348018829
S3150800554008237F22201DFBF713FE201D00F011F80B
S315080055500120207010BD10B50B4C01460822201DF5
S31508005560FDF7C4FC201D00F004F80120207010BDD2
S31508005570074880B5014608220648FDF7B7FCBDE88E
S315080055800140FCF730BE00009878002000040308AC
S315080055909C780020A4780020F8B5404C404E0020A6
S315080055A020654FF40055356002202060E560002034
S315080055B020654FF48047206D40F0600020650E207E
S315080055C000F01AF837490870002060653760042033
S315080055D02060E76016203449086000206065606D29
S315080055E040F060006065162000F006F82F49087044
S315080055F02F4805600760F1BD0E2802D0162802D094
S3150800560009E02C4800E02C480068800900F00100F9
S3150800561080F0010070470020704710B51F48214CE4
S315080056204FF40051C160022101600E20FFF7E4FF2C
S31508005630227801468A4218BF217009D1501E80413E
S31508005640C00F20700E20217800F028FC00F036F8F4
S31508005650BDE810400E2000F021BC10B50F48134CD1
S315080056604FF48041C160042101601620FFF7C4FF92
S31508005670227801468A4218BF217009D1501E8041FE
S31508005680C00F20701620217800F008FC00F016F8EC
S31508005690BDE81040162000F001BC000014A8004028
S315080056A080E100E09E7F002020BC00409F7F002014
S315080056B000E100E008B2004008B400402178481E26
S315080056C08041C00F207021787047000010B504464D
S315080056D0FDF7FCFA4B49302008604B4908604B49F6
S315080056E0086010204A490860200A0028494808BF6F
S315080056F024024FF20F0104804180BFF35F8F4648B2
S3150800570000210160416045484549086010BD45488B
S315080057100168C90708D5444A03211170016C490874
S3150800572049000164012101600168090703D5016C7C
S3150800573021F008010164704780B5002000F009F8DF
S3150800574030B9BDE80440FA210FF2F400FDF7D6BAE5
S3150800575001BD2DE9F042354C216842428D1815F0FD
S315080057601F0108D0002802D44842054403E04842F5
S31508005770284400F120052E48A5F12006A84224BF9A
S315080057802C48864203D3EFF30880854201D30020D4
S315080057902DE0FDF79BFA81462748006810F00107BF
S315080057A018BF0AF0B8F8206801468D4206D2A8420A
S315080057B024BFCD2100F80119F9D206E020380022CD
S315080057C001E000F8012B8842FBD3256030460AF039
S315080057D0A7F8E22001E006F8010BAE42FBD30FB1B1
S315080057E00AF082F84846FDF783FA20682038BDE8B3
S315080057F0F0820E48006870470C48006820387047E9
S315080058000E4870473020004030C8004030C0004085
S3150800581010E00040000000201C4000400400FA058B
S315080058200CED00E018A00040C97F0020905D002024
S31508005830504D00207017002094ED00E00000002075
S315080058406D6963726F2D696E7465726E616C2E6315
S315080058500000000070B50446DFF8A055A07821784E
S31508005860DFF89C35020011D1A1B3A68920698642CA
S3150800587088BF064626B1A1681868F2B2FDF736FB5E
S31508005880A0683044A060AE6001201AE0D9B1A689AC
S3150800589021698E4288BF0E46002E1CBFA1680029CA
S315080058A004D053F82000F2B2FDF720FBA068A178D7
S315080058B03044A060DFF84C0540F821600120A1784B
S315080058C08840286070BD296C40F2011202FA00F087
S315080058D00843286470BDDFF8301501EB800151F8E4
S315080058E0041C0A6842F4C04242F009020A604FF6F4
S315080058F0FF71DFF8182502EB800252F8042C1160BC
S31508005900DFF80C150844012110F9010C00F01F02FC
S315080059109140DFF80025400942F82010704770B51D
S315080059200446132915463CBFDFF8EC04415C080918
S315080059306422504301F00F010B291E4603D288400A
S3150800594006E00A2250430A46511ED2B20B2AF8D262
S3150800595001462046FBF74EFB010020D130090728F7
S315080059600CBF00200220012D08BF40F0180003D00C
S31508005970022D08BF40F0080006F00F010229DFF8E3
S315080059809C1401EB840128BF40F0040051F8041C64
S31508005990C865012048652046FFF79DFF002070BDB9
S315080059A07CB5040002D10AF003F876BD012818BFB9
S315080059B0022802D1FFF7B3FF76BD032840D1FAF7D4
S315080059C078FCDFF85C04018808237F226846FBF729
S315080059D0CFFB00240021DFF84C241DF80150631C7E
S315080059E028090A28E4B2B4BF3026372602EB440455
S315080059F0301860805C1C05F00F000A28DBB2B4BFC3
S31508005A003020372005F00F0502EB4303491C4019E7
S31508005A1008295880E1DBDFF810040AF0A9F902F03A
S31508005A200BF804460AF089F9042807D002F004F8AE
S31508005A30001B80B2B0F57A7FF4DD01E0002076BD68
S31508005A40212076BD58B5040013D1DFF8E0030468B9
S31508005A50608828B140F25921DFF8D403FDF74EF9E2
S31508005A60A188C9B2A01D00F0FCFA0020A080208001
S31508005A7051BD012C18BF022C19D100F069F8406DF0
S31508005A80012814D1FDF722F90646DFF87C0300EB5E
S31508005A90840050F8040C016841F0060101602046B4
S31508005AA000F010F93046BDE85240FDF721B9032C45
S31508005AB003D1BDE851400AF04FBB51BD012818BFBC
S31508005AC0022809D1DFF8401301EB800050F8040CD6
S31508005AD0016821F00601016070470346084610B5C3
S31508005AE011461A0002D100F0BCFA1FE0012B18BFBC
S31508005AF0022B08D1DFF8242302EB830252F8042C88
S31508005B00546D012C0AD0032B12D10AF037FB0DE095
S31508005B10936C5B07FCD510F8013BD3630B46591E03
S31508005B20DBB2002BF4D1906C4006FCD5002010BDEA
S31508005B30212010BD10B50446FAF7BBFB012C18BF8F
S31508005B40022C04D100F004F8806C4006FAD510BD8A
S31508005B50B24800EB840050F8040C704770B5B54A9B
S31508005B60B54B12680CE0158810F8014B1544AC715A
S31508005B7014881D8800F0C4F814809488641C9480E6
S31508005B800C46611EE4B254B19488AC4D2D886D1E46
S31508005B90AC42E8DBBDE870402321002010E170BD6F
S31508005BA02DE9F8430446A348DFF88C82DFF88C9287
S31508005BB0254650F82560994800EB850050F8047C86
S31508005BC014E0B18839F81520521E91421CDA318842
S31508005BD031448871308838F81510401C90FBF1F272
S31508005BE001FB12003080B088401CB080B86C80077A
S31508005BF016D5B86C10F03801F86BE2D0080705D452
S31508005C00C80605D5242107E0232105E0272103E05E
S31508005C1088064CBF25210121204600F0D1F8E5E78A
S31508005C20BDE8F183F8B504468248C7680D461646AE
S31508005C30FAF73FFB824880491AE0B7F800C014F823
S31508005C40013BBC448CF806303B88B1F806C05B1CA7
S31508005C5093FBFCFE0CFB1E333B80BB885B1CBB80A6
S31508005C6032B9BA88C2F18002402ABCBF012202704A
S31508005C702B465D1E0278DBB243B1BB887F2BDCDB8B
S31508005C8032702321BDE8F440032099E03270F1BD5B
S31508005C90032816D16A490A789AB1664A52F820004A
S31508005CA08088C0F1800041280BDB00200870654918
S31508005CB0096891F8E6201AB1282050430844343080
S31508005CC0C8E5704770B5554A58495F4B51F82010DA
S31508005CD002EB800252F8042C0CE04C880C44A479A0
S31508005CE0D4634C8833F8105000F00AF84C808C883E
S31508005CF0641E8C808C8814B1946C6407EDD470BDD6
S31508005D00641C94FBF5F605FB1644704780B54F49AD
S31508005D105448096841614E49096881614D490968D5
S31508005D208160012101600120FFF7D5FD4A494E48EF
S31508005D300968416149490968816149490968816079
S31508005D40012101600220FFF7C6FDBDE80240364882
S31508005D500AF00EB838B5454C0FE046F229700542F0
S31508005D60256003D0A9B20120FFF71AFF41F6D60035
S31508005D7005421CBF0120FFF7A5FF2068216C11EA28
S31508005D800005EAD131BD70B520481F49446820682E
S31508005D904D6810E046F229700642266003D0B1B27B
S31508005DA00220FFF7FDFE41F6D60006421CBF022080
S31508005DB0FFF788FF2068296811EA0006EAD170BD56
S31508005DC030B51C4A2A4C52F82020255C294B25B9A7
S31508005DD0128823F81020215430BD33F81030138070
S31508005DE02154138851888B4205D2144C34F810007C
S31508005DF0401A181800E0581A908030BD0810014063
S31508005E00845C002010100140D4D00208DCD00208BF
S31508005E100204030800E100E074FA0208CCD0020884
S31508005E2000040308405C002064C502084C5D00209D
S31508005E306CFA02085C5D002028D8020814D802080B
S31508005E40B37F0020645C002020D80208C8770020B1
S31508005E50CC770020D0770020D4770020D877002090
S31508005E60DC77002054C8004054D8004008A80040F9
S31508005E70F8720020FC720020D2B2203A22BF00FA43
S31508005E8002F1002070475242D041D2F120029140DF
S31508005E904140D040904041407047000070477047ED
S31508005EA070477047704770477047704770B504462B
S31508005EB043381E4D08D0401E012809D9801E0128E6
S31508005EC00ED9C01F31D02AE0BDE87040FDF74BBEA1
S31508005ED0FDF720FE20B1FDF746FE0028FBD170BD78
S31508005EE0134E307808BB012030700020FDF77AF891
S31508005EF0442C11D00CD3462C05D00DD3472C07D1F2
S31508005F0040F6010001E040F60200FFF7DFFB03E080
S31508005F10E9212846FCF7F2FE0020307070BD2846BD
S31508005F20BDE87040FB21FCF7E9BE70BDA8D80208A1
S31508005F30AE7F0020002070477047002070477047EA
S31508005F407047704770477047002070477047704722
S31508005F507047704770477047704700207047704712
S31508005F600020704770477047704770477047704702
S31508005F70704770477047704770477047FAF7CEBB4F
S31508005F8070471CB5059C0194049C0094FFF7F8FF24
S31508005F9013BD000030B52348006800F0FF0000215B
S31508005FA0002220FA02F3DB0712D51F481F4C30F8EF
S31508005FB0121006294CF23C324FF20F031ED16088AC
S31508005FC0984217D12388180A0B2813DA194613E0C2
S31508005FD0521C92B2082AE4D31548018040F2017196
S31508005FE00088884205D11348D0E900231248C0E941
S31508005FF0002330BD4FF4C0616280EDE740F207250B
S31508006000A94201BF608898422388AB42E4D16280E6
S315080060101946E1E706480088000A704704480088E0
S31508006020704700002C0000405CC4020800000020F5
S31508006030AE7D0020900000201867002072B67047D9
S3150800604062B6704709F0F6BD03460A469EA10420CB
S31508006050FFE70CB480B502AA00F05CF801BC5DF855
S315080060600CFB0A0003D0034698A11120F1E77047FC
S3150800607000B589B0FCF704FB00210791069105914C
S3150800608004910391029101910246914900910023DE
S315080060900FF250210120FFF7DCFF8E48C1784378C4
S315080060A00278039181680291818801918178009133
S315080060B043200FF23C21FFF7CCFF09B000BD86490B
S315080060C0087070470EB410B5044683480078A1B02E
S315080060D080B109F0BAFC68B180226946022000F056
S315080060E0B7F823AB224600210FF27D100AF099F883
S315080060F000F0DEF821B010BC5DF810FB0C22002180
S315080061007648FCF755BF754931F81020521C21F81E
S31508006110102070472DE9F04107466F480078A2B075
S315080061200C469046002690B9380018BF012F0ED0AD
S31508006130042F18BF052F0AD0312F18BF332F06D0CA
S31508006140372F1EBF3B2F4FF6FF718F4275D109F0CF
S315080061507CFC002871D0802202A9384600F078F825
S31508006160002C68D007E08DF80400012201A9002060
S3150800617000F07AF8641C207801005CD0A0F13002A7
S315080061800A2A05D20A2101FB0600A0F13006F1E72A
S31508006190422818BF44280CD0462827D0572808D0AC
S315080061A0622836D0662821D06C281CD070281DD0CD
S315080061B0D9E7422807D158F8042B6946012000F090
S315080061C0EAFC01220DE0572858F8042B694604D149
S315080061D0012000F0E0FC022203E0012000F0DBFCD5
S315080061E004226946C3E758F8046BC3E758F8041B4A
S315080061F0462807D10026885D00281EBF761CF6B201
S31508006200FF2EF8D1F2B2002000F02EF898B9002639
S31508006210B0E758F8047BB8B20028ABD002F02FF9E3
S315080062200546B8B202F013F90146EAB2002000F0BA
S315080062301BF800289ED000F03BF822B0BDE8F0819C
S315080062400B461146122804BF1846FFF787BC70474D
S3150800625010B5234C616001462270606809F004FCA1
S31508006260607010BD00000000F8B515000C461C4E05
S315080062701CD07078317873680F1AFFB2EDB2BD4240
S31508006280B8BF2F463A4621461844FCF72FFE7078C9
S3150800629038187070ED1B3C44E8B238B17068711C50
S315080062A009F053FC0028E4D00120F2BD0020F2BD1D
S315080062B010B50B4C6068611C09F047FC08B1012059
S315080062C010BD607010BD0000574600006C700000DD
S315080062D0A478002010D00208B87F00200478002097
S315080062E010780020424238704242424257424200E9
S315080062F042424257444200002DE9F84304460D46FF
S315080063009046994600F006F9002801BF2646DFF8B0
S315080063101802805D012823D1DFF8100250F8267094
S31508006320FCF7D4FC0021B98039807980FCF7E0FCC1
S31508006330DFF8FC0150F82670FCF7C8FC0021B9808C
S3150800634039807980DFF8EC219155FCF7D1FC4B4672
S3150800635042462946204601B0BDE8F043FFF720BB78
S315080063602120BDE8F2832DE9F8438146DFF8C00114
S315080063704C4650F824500E46484600F0CBF808B173
S31508006380012040E0DFF8AC71DFF8AC81385D68B118
S3150800639038F814006988884208D1FCF797FC3D5DF7
S315080063A000213955FCF7A4FC28462CE04846FFF79F
S315080063B06FFCA88800281EBFDFF8800130F814900B
S315080063C0B9F1000F1ED0FCF781FC69882944897948
S315080063D031704FF6FF766988491C91FBF9F209FB83
S315080063E012116980A9887118A980FCF781FC385DAB
S315080063F030B138F81400B04204BF288828F81400D1
S31508006400002000E02620BDE8F28380884C4B33F854
S315080064101110891A884201DA012070470020704756
S315080064202DE9F84F8046C1463F4810F80900012873
S315080064300D4616463DD13D48DFF808B150F82940CB
S31508006440414830F819A0002718E0FCF73FFCA1885E
S3150800645001B90127BAF1000F0DD022882978A218B0
S3150800646091712188491C91FBFAF20AFB12112180CD
S31508006470A188491CA180FCF73BFC6D1C3046461ED2
S31508006480C0B288B1002241462046FFF7BEFF002869
S31508006490DBD11FB14046FFF7D5FA00271BF80900E4
S315080064A00028EFD1222005E04046FFF7CBFA00206E
S315080064B000E00120BDE8F28F80B501461A4A525C19
S315080064C0012A05D1194A52F821108A88002AFCD1D6
S315080064D0FFF730FB002002BD0CB438B504460D4664
S315080064E0FFF7ECFA04AB2A462146184809F099FE4C
S315080064F020460D49095C012907D10C4951F82000AD
S31508006500808810B12046FFF79DFA32BC00205DF85E
S315080065100CFB7047042805DA0349095C481E8041CC
S31508006520C00F7047012070471CD802084C5D002038
S315080065305C5D0020F8720020FC72002028D8020852
S315080065400CD8020830D8020820D80208DB5A0008FE
S3150800655062F30F2262F31F42401810F0030308D0BB
S31508006560C91A1FD3DB0748BF00F8012D28BF20F83A
S31508006570022D130030B414461546103928BF20E9F9
S315080065803C00FAD8490728BF20E90C0048BF40F864
S31508006590042D890028BF20F8022D48BF00F8012DD8
S315080065A030BC7047C91818BF00F8012DCB0728BFA3
S315080065B000F8012D704700004148018A40F6A7728D
S315080065C0914202BF408A4FF47F41084203D1022814
S315080065D001DB01207047002070472DE9F84F8246FD
S315080065E08846384DDFF8D4B0FCF770FB2F680446B0
S315080065F02868400840002860FCF772FB01208BF8E9
S315080066000000FFF7D9FF28B94FF483710FF2B800DD
S31508006610FCF774FB2A48D0F8289041464AF4807063
S31508006620C84706462F60FCF75BFB2046FCF760FB75
S3150800663000208BF800000FF298040EB1A05D04E06C
S3150800664041464AF40070C847205CBDE8F28F2DE940
S31508006650F84F804689464FEA420A1A4EFCF736FB3F
S31508006660376805463068400840003060FCF738FB5C
S31508006670FFF7A2FF28B94FF4A4710FF24C00FCF7FC
S315080066803DFB0F48D0F824B0002352464946404601
S31508006690D84704463760FCF723FB2846FCF728FB57
S315080066A00FF22C050CB1285D05E053460022494639
S315080066B04046D847285CBDE8F28F0000C57F002019
S315080066C00000080894ED00E0666C6173682E6300AC
S315080066D0000202024B4B464710B57C48007888B941
S315080066E0FCF7F4FA04467A4801780A0018BF052927
S315080066F003D10321017000F079F82046BDE8104067
S31508006700FCF7F6BA10BD2DE9F041714C724E2178AE
S3150800671037880FF2CC106D4D0A0082B007D1297860
S3150800672011B99821FCF7EAFA05F062FB5CE0032947
S315080067301CBF9D21FCF7E2FA00203080380018BF04
S3150800674005F025FC05F012FB3088644EFF27010092
S315080067502BD08DF800706A460DF1010105F093FF04
S3150800676005469DF80000FF280BD005F02FFB30707A
S315080067709DF8000005F02DFB18B19DF80000FAF70A
S3150800678003F80120FBF7A4FDFCF7A0FA80460120D8
S3150800679020709DF8010018B9012005F0BBFB20E028
S315080067A001212846FEF704F91BE00020FBF790FDBF
S315080067B0FCF78CFA8046002020703078FF2805D038
S315080067C005F007FB3078F9F7DFFF3770607820B1FE
S315080067D0002060700120FBF7B2FC287808B100F0B1
S315080067E005F84046FCF784FABDE8F38100213948EC
S315080067F009F012BF36480178012902D0042902D0CF
S3150800680005E0FEF7ABB9052101700AF055B940F26B
S315080068101F110FF2CC00FCF771BA38B5FCF756FA1F
S315080068202B4D04462878052805D040F231110FF281
S31508006830B000FCF763FA00202870687820B10020C1
S3150800684068700120FBF77BFC2048007808B1FFF749
S31508006850CDFF2046BDE83240FCF74ABA70B504467B
S31508006860FCF734FA1A4E05463078010018BF052899
S3150800687005D04FF49F710FF26800FCF73FFA042029
S3150800688030704FF6FF7084421CBF2046FDF723FB8D
S315080068902846BDE87040FCF72BBA10B50446FCF74D
S315080068A015FA012C0A4907D10A782AB101224A7039
S315080068B0FCF71EFAA12010BD00224A70FCF718FA50
S315080068C02046FBF73CFC002010BD0000F07E0020AF
S315080068D0E47F00207C5F0020F87E002018600020FE
S315080068E06D61632E6300000038B5924D924C28788E
S315080068F0022803D12078C00725D401E0032822D135
S3150800690000F067FD03281ED18C4800884FF6FF71FA
S31508006910884218D02878032804D0022807D120787E
S31508006920C00704D4002100200BF073FF04E04321C4
S315080069300FF23020FCF7E2F9BDE834404FF48061ED
S315080069407F4809F069BE31BD80B57A4800780228CB
S3150800695004D179480078C00702D406E0032804D099
S315080069604F210FF20020FCF7C9F9BDE80140AAE063
S31508006970F8B504464FF47A70604300EB9026704FE2
S31508006980704D07F10C0009F0A3FD70B107F10C007A
S3150800699009F0A2FD864201D200F00FF801F057F87F
S315080069A0296804EB9020401AF2BD00F006F801F0C1
S315080069B04EF8800A28602046F2BDB0024FF47A717C
S315080069C0B0FBF1F107F10C0009F026BE2DE9F04104
S315080069D000F0FFFC032860D156480078032818BF4A
S315080069E0042805D0022808D153480078C00704D4E3
S315080069F0BDE8F041092007F021BA01F028F851490D
S31508006A00514F0A68514D800A0860841A4FF0FF38C2
S31508006A10002607E0181B42F82600404598BF804626
S31508006A20761CF6B22878864230DA4948006830F88B
S31508006A301610CA07F4D5474A126852F826305FEA94
S31508006A40415C14D5E3184FF47A7C0CFB03F3DBB2F4
S31508006A502D2B05DA604693FBF0F042F82600DFE7B7
S31508006A604FF6FF33194020F816100020F5E79C4230
S31508006A7005D2786810F1010FCCD08342CAD3387892
S31508006A800028CDD03046FDF70BFEC9E718F1010FF7
S31508006A9003D04046BDE8F0416AE7BDE8F08110B58D
S31508006AA004462B48006830F8140040054FBF2D20D7
S31508006AB02948006850F82400FFF75AFF2549096855
S31508006AC041F8240010BD70B500F024F84FF47A712F
S31508006AD001FB00F4FEF72EFAC0F3090000EB1415CB
S31508006AE0A0024FF47A71164EB0FBF1F106F10C00D4
S31508006AF009F092FD601BB0F57A7F83BF80024FF4E0
S31508006B007A71B0FBF1F14FF480613046BDE8704010
S31508006B1009F082BD0C48406810F1010F08D10548FC
S31508006B200078042802D10D48006870470C480078A0
S31508006B30704700007A7800207E7800200E5E0020DC
S31508006B40C05E0020D47C0020B85E00200C600020C7
S31508006B50A05C0020AC5C0020B05C0020C85C002073
S31508006B600D6000206368696C642D6167696E672E25
S31508006B70630000004178007801E00178407800EB76
S31508006B80012080B270470170090A417070470A0AED
S31508006B9002704170704710B50023040014BF1C46EC
S31508006BA0C3F10304E4B25B1C0A55120A042BF4DB96
S31508006BB010BD30B50024050014BF2546C4F10505EF
S31508006BC0EDB2641C4A55120A42EA03621B0A062CF5
S31508006BD0F1DB30BD30B54A788B78CC78097818B1B6
S31508006BE020461D460C4602E0154608461A4645EA62
S31508006BF0002044EA022141EA004030BD00B583B0D6
S31508006C0020B10622684600F02AF803E00622684604
S31508006C10FCF76CF99DF800209DF8010040EA022176
S31508006C209DF8020002069DF8030042EA00429DF81C
S31508006C30040042EA00229DF80500104303B000BD97
S31508006C4010B5002300E05B1CDCB28C4205D210F8BC
S31508006C50014B9442F7D0002010BD012010BD10B59D
S31508006C60002304E0541EE41A0C5DC4545B1C9342D2
S31508006C70F8DB10BD10B5002480B14FF6FF7202E0B4
S31508006C80944206D0641CA4B2035D002BF8D194424A
S31508006C9004D179210FF2F400FCF730F8204610BD34
S31508006CA010F8012B11F8013B0AB19A42F8D0D01A14
S31508006CB040B2704730B5994228BF1946002303E011
S31508006CC00833401C521C9BB203F10804A14203DBA3
S31508006CD004781578AC42F3D08B420CDA0078127837
S31508006CE05040C0438024C0B201E064085B1C8B425C
S31508006CF001DA0442F9D198B230BDF8B555052D0E22
S31508006D0002F0070704460E462A46FCF7EFF847B195
S31508006D10FF20615D725DF840014022EA00000843E9
S31508006D206055F1BD00210FF27802002805E000F059
S31508006D300F03D35C5918C9B20009F8D10846704741
S31508006D406128A8BF572107DA4128A8BF372103DAE7
S31508006D503A28B4BF30210021401AC0B27047410812
S31508006D60400021F0AA3120F0553008438108800000
S31508006D7021F0CC3120F0333008430109000121F01D
S31508006D80F03120F00F3008437047000062797465CF
S31508006D902D7574696C69746965732E63000000004B
S31508006DA000010102010202030102020302030304B5
S31508006DB080B50FF24C1001F059F804F097FF0FF266
S31508006DC04C1001F053F80CF081F80FF2501001F056
S31508006DD04DF80CF047FB0FF2501001F047F80CF095
S31508006DE085FCA1A001F042F80DF096F80FF24C10C0
S31508006DF001F03CF8DFF8480801F08CF80FF24C1067
S31508006E0001F034F805F078F90FF2481001F02EF881
S31508006E100DF0D8FA0FF2481001F028F8DFF8240828
S31508006E2001F078F80FF24C1001F020F8DFF8180896
S31508006E3001F070F80FF24C1001F018F8DFF8C808E6
S31508006E4001F068F80FF2541001F010F8DFF8D408D2
S31508006E5001F060F80FF25C1001F008F8DFF8C808D6
S31508006E6001F058F80FF2601001F000F8DFF8BC08DE
S31508006E7001F050F80FF2681000F0F8FFDFF8B008DC
S31508006E8001F048F80FF26C1000F0F0FFDFF8A408E4
S31508006E9009F0AEFB0FF2701000F0E8FF0DF09AFF54
S31508006EA00FF26C1000F0E2FF0EF0E9FA0FF268102C
S31508006EB000F0DCFFDFF8CC0801F02CF8DFF8C80892
S31508006EC001F028F80FF2601000F0D0FFDFF8BC08D8
S31508006ED001F020F80FF2701000F0C8FF0EF06FFBFB
S31508006EE00FF2701000F0C2FFDFF8A80801F012F8E0
S31508006EF0DFF8A40801F00EF8BDE8014000F0BABFBB
S31508006F004D41432061726269746572004D414320A8
S31508006F10696E646972656374000000007265747254
S31508006F2079207461626C6500364C6F5750414E206B
S31508006F30667261676D656E74730000006D756C74BA
S31508006F406963617374207461626C650077616B654F
S31508006F50757000006170706C69636174696F6E00AA
S31508006F60666F726D2D656E657267792D7363616ED6
S31508006F70000000006E6574776F726B20646174613F
S31508006F8000000000736C656570792062726F616439
S31508006F90636173742068656164657200676C6F620B
S31508006FA0616C2061646472657373207461626C65D8
S31508006FB0000000006C6F63616C2073657276657201
S31508006FC02064617461000000626F726465722072E9
S31508006FD06F75746572204E44206461746100000008
S31508006FE06368696C64206164647265737320746194
S31508006FF0626C6500737461636B206576656E7420D8
S315080070007175657565000000436F4150000000000A
S315080070104A50616B65000000436F6D6D6973736953
S315080070206F6E696E670000007363616E2072657328
S31508007030756C747320666F7220636F6D6D697373F8
S31508007040696F6E657200000044544C53204A6F699C
S315080070506E0000006C6F6F706261636B206D657304
S3150800706073616765730000005544500070B5DFF81A
S31508007070CC450546E0882A0601D4062D04D140F001
S31508007080040005F07F0503E011B94FF6FB710840CF
S315080070902E46022E1CBF032E042EE08008D0052E95
S315080070A00DD0062E18BF072E02D0F02100F05BF98E
S315080070B0A570A07804280CBF0120002001E0032554
S315080070C0F6E7FFF7EAFBE0884FF6F4710840062E6C
S315080070D008BF40F0020004D0022E14BF032E40F071
S315080070E00800E08070BD10B5F2B00EF0BFFD0CF0E0
S315080070F01EFA09F022FE04F0D0F80FF02DFA0FF070
S3150800710055FCFCF755FF0FF072FD01F064FD01F028
S315080071106BFD03F0BCFC06F0F3FC0120FAF70EFF4A
S315080071200FF0C2FD04F0D4FEFEF722FADFF80C4594
S315080071300020A0704FF6FE70FBF78AF80020E0806A
S3150800714003F081FF0FF005FF11F036FF02F0E9F9B1
S315080071500EF07CF80EF026FABC237F22082142A8FE
S31508007160FAF770F800F023F901A812F084FFBDF8C9
S3150800717054014FF6FF71884236D0BDF8040098BB1B
S31508007180082342AA0E210DF106000FF0ACFF1023CA
S3150800719044AA03210FF0A7FF082348AA02210FF0EB
S315080071A0A2FF08234AAA07210FF09DFF10234CAA25
S315080071B005210FF098FF11F077FFBDF85421012142
S315080071C00FF072FFDFF80028002111F067FF032394
S315080071D057AA00210FF087FF0DF10601401AADF8F6
S315080071E0040001A812F0BCFFBDF8040000281EBF69
S315080071F09DF8020000280120002100F0EEF872B088
S3150800720010BD38B5DFF8C4170FF2641400200880E3
S3150800721000F0C4FD08F0CCFBDFF8B4070178E1B94B
S31508007220C078022818BF062828D0072818BF0828BB
S3150800723024D0092818BF0A2820D0032818BF1028E8
S315080072401CD0112818BF122818D0132818BF1428C4
S3150800725014D0152818BF0B2810D00FF26805294638
S315080072600020FFF739F929460120FFF735F92046AE
S31508007270BDE8344040F2AF11FBF740BDF9F79EFF79
S3150800728020B14FF4DA712046FBF738FDFEF7F0FE21
S315080072900FF24C00DFF8A44313F043F8607004F1D2
S315080072A0080009F0EEF8DFF82C1700200860DFF870
S315080072B028170860FEF7AEFE0DF083F8BDE83140EA
S315080072C011E70000537461636B2F4861726477613C
S315080072D07265204D69736D617463680D0A0000005C
S315080072E0000000000000000080B5FFF78AFFBDE837
S315080072F0024000200DF052B8DFF8D8160860704733
S31508007300DFF8D41608607047DFF8D41608607047AF
S3150800731010B50020FBF732F8DFF8C806007818B178
S315080073200FF2300000F033FEFEF78CFEFDF7EFFBA0
S31508007330FDF768FC07F067FB0BF054FFDFF89C4687
S3150800734004F1080009F026F96078BDE8104013F04A
S315080073500FB80000B16D000800000000DFF87C06D9
S31508007360407813F005B80FF20800FBF7C7BC000019
S3150800737069702D737461636B2E63000080B5FAF72C
S31508007380DBFEBDE80240FAF7D9BDFAF756BFDFF8CB
S315080073904C168979890758BFFAF752BF7047FAF72A
S315080073A054BFFAF755BFF9F7FEB9006800900423F1
S315080073B07F220C216846F9F745BF80B5F9F7EFF942
S315080073C0BDE80240FEF7C4BDF9F7E6B9DFF81806CE
S315080073D07047DFF808060078704770B50446DFF88E
S315080073E05C02067804700D46C188032C05D141F469
S315080073F00041C18006F03FFB02E0C1F30E01C180E7
S31508007400200004BF0120FFF748FA2A4631462046E5
S31508007410BDE8704012F0DEBFF8B506465E220021D0
S31508007420FBF7C6FDDFF814522878012806F1280470
S3150800743021D0DFF8B8751022B91C3046FBF756FD87
S3150800744006F1100001F0AAFB06F1180001F0C0FBD6
S31508007450082207F1120106F12000FBF747FDFAF7AB
S31508007460F4FE2080F9F798F9A070A878E070F9F78B
S3150800747096F920712CE011F06BFD0746102207F1F2
S3150800748014013046FBF732FD082207F1240106F104
S315080074902000FBF72BFD082207F12C0106F110004E
S315080074A0FBF724FD07F158000423018821807F2279
S315080074B0807AA0700C210FF25C5000680090684634
S315080074C0F9F7C0FE9DF8030020719DF80200E070F0
S315080074D0A878032804D1A87900075CBF0520E070C6
S315080074E0F1BD2DE9F041044620000D4604D1284699
S315080074F0BDE8F04104F05DB9012C04D1DFF8F004D1
S3150800750004F069F920E0022C20DB864E0021304683
S3150800751000F0CFFA022704E04146304600F0F8FAB8
S315080075207F1C80465FEA080010D000F090FF002814
S315080075301CBF016A0029EFD0F9B2A142ECD1811C27
S3150800754010222846FBF7D2FC012000E00020BDE807
S31508007550F0812DE9FF4104460F46724D0021284669
S3150800756000F0A7FA1DE000F072FF060015D030788B
S31508007570800612D5002C18BF002F07D03B4622469E
S315080075803946B01CFFF796FBB84206D13388326AF3
S31508007590F169DBB2B01C12F0A1FF4146284600F0A3
S315080075A0B7FA80465FEA0800DDD16846102104F084
S315080075B0ABFD002300220021684612F08FFFBDE8CC
S315080075C0FF813EB5574C0021204600F072FA15E0BF
S315080075D000F03DFF70B10178C9070BD5016A029129
S315080075E0821CC1690191002100910121837C002040
S315080075F012F04CFF2946204600F08AFA0546280074
S31508007600E6D100200290019000900023002200217C
S3150800761012F03CFF37BDAA210170BB214170CC2175
S315080076208170DD21C1707047DFF8C8130A7882427D
S315080076301CBF0870FEF7A1BC7047000078780020D0
S315080076408A7F0020A4790020DE7B002010B504463E
S3150800765013F0E6FB20B92046BDE81040FDF7A5B8B3
S3150800766010BD00B5F7B04FF48172002135A8FBF7BD
S315080076709FFC35A812F074FD35A812F073FDBC22E4
S31508007680002106A8FBF794FC4FF6FF70ADF86400DE
S31508007690BC2306AA7F210820F9F7E4FD042200216D
S315080076A06846FBF785FC00F031F80822002104A89B
S315080076B0FBF77EFC082304AA7F210520F9F7D2FDF3
S315080076C00822002102A8FBF773FC082302AA7F21DF
S315080076D00720F9F7C7FD03F035FEFCF7BBFF0020CE
S315080076E08DF80400042301AA7F210320F9F7BAFDC7
S315080076F0104808F0D3FEFFF7F6FC0020FEF735FC2D
S3150800770077B000BD00000000927F002004236A467F
S315080077107F210C20F9F7A6BD0021DFF8DC0208F06E
S315080077207BBF0000127C0020D87E0020DA7E002075
S31508007730E07E00208078002038B5DFF8BC52DFF8FC
S31508007740BC42284608F0B8FFDFF8B40200780C28D7
S3150800775010D02068142804D10120FEF706FC00206A
S3150800776006E04FF4FA71284608F056FF2068401CD8
S31508007770206031BD002020600320BDE8324004F0BF
S315080077805EBB0000C8780020D27E00201079002059
S31508007790FAF743BEEA7E00208E7F002070B58F4C34
S315080077A02078032888B07CD0012803BF9448007845
S315080077B00C28702076D108237F22052105A8F9F721
S315080077C041FD05A803F06AFF08237F22072103A8C5
S315080077D0F9F738FD082203A98A48FBF787FB08232F
S315080077E07F22062101A8F9F72DFD01A8FDF7C1FEA4
S315080077F011F00BFC11F0ACFB054605F15806B07A02
S3150800780004F0E7FA3088FAF723FD05F11400FFF7CC
S3150800781031FAC1B205F1140006F058F905F1240051
S3150800782006F023F905F12C0001F0C2FC0FF2E8106E
S31508007830FFF7BBFDBDF80000FFF7A9FD9DF90300A2
S31508007840F8F7B1FF9DF8020000F030F80FF019FACA
S3150800785003F082FD05F0FBFCA078062809D100217B
S315080078600320FFF7BAFD0122002100200AF06EFE70
S3150800787017E0FAF7E2FC800502D106F0ABFE10E04D
S31508007880A078032818BF042804D0022805D1A079B7
S31508007890C00702D406F0E5FE03E040F28151FFF787
S315080078A062FD002012F047FE08B070BD0021FFF708
S315080078B0DDBB80B501F0DCFE0FF04BFB0FF05AFB89
S315080078C046488078062803D0BDE801400EF060BA25
S315080078D001BD80B541480178032905D14A4909887F
S315080078E04FF6FF72914201D193200BE0807804286D
S315080078F018BF702006D145480078042818BF052807
S3150800790004D13D20BDE8024012F0A5BD0FF071F884
S31508007910BDE8014004F021BA00B59FB007A8602170
S3150800792004F0F2FB07A8FFF777FD0FF2F0000068F6
S3150800793000909DF848008DF80300FAF77EFCADF834
S3150800794000006A4625488078062818BF9DF8470033
S315080079508DF8020004237F210C20F9F783FC0FF22F
S31508007960C00005A9D0E90023CDE90523284803F07E
S31508007970D8FE082305AA7F210520F9F773FC0FF224
S31508007980A8002049D0E90023CDE9032303A808224B
S31508007990FBF7ACFA082303AA7F210720F9F762FC54
S315080079A00FF28C001249D0E90023CDE9012301A882
S315080079B00822FBF79BFA082301AA7F210620F9F77C
S315080079C051FC1FB000BD000000F8FF071E7800201C
S315080079D096070808587D00202C7D0020787800201E
S315080079E090780020146000209C780020207C0020DD
S315080079F0A4780020C27F0020D85D0020947800205B
S31508007A00505E0020B07900200E5E0020E47F002042
S31508007A107078002000000000000000000000000050
S31508007A200000000000000000000000000000000048
S31508007A30000000000000000080B500F008F880B2E1
S31508007A4002BD80B500F003F80002000C02BD38B58F
S31508007A50FBF73CF908490C684D68FBF749F945EA14
S31508007A60044032BD80B500F00DF8044907200860CF
S31508007A7001200349087001BD1060004014A00040B1
S31508007A80C17F0020704700000188481E8041C00F52
S31508007A90704738B50446002554B1002100F009F8AE
S31508007AA003E0204600F034F86D1C0100F9D1A8B2B5
S31508007AB032BD008802001CBFC9B200F06EBD0020AE
S31508007AC070472DE9F04104460D46278838001646CA
S31508007AD008BFA84608D0F1B200F05FFD80462A46E6
S31508007AE0F1B2384600F070FD424600F003F82580F2
S31508007AF0BDE8F081F1B2284600F066BD38B5044607
S31508007B0000222588FFF7DDFF280018BF258031BD34
S31508007B10008881420A4601D100207047002110469C
S31508007B2000F03BBDF8B504460D462688300001D165
S31508007B300020F2BDC9B200F030FDB042074602D1BE
S31508007B400020208007E0E9B200F027FD0246E9B2EE
S31508007B50304600F039FD2A460021384600F034FD4B
S31508007B603846F2BD2DE9F843044688462788164666
S31508007B700FB9002026E03D46284600F080FC8146E5
S31508007B8005E0054600F07BFC48441FFA80F9F1B28F
S31508007B90284600F002FD404511D1F1B200F0FDFC87
S31508007BA00246FFF7A7FF474503D1BD4208BF002598
S31508007BB025800022F1B2404600F006FD01E0B842F9
S31508007BC0DFD14846BDE8F2832DE9F8430D46044661
S31508007BD090462F4605E041462046FFF7A3FFBF1B08
S31508007BE0BFB28FB1208878B141462046FFF761FFC2
S31508007BF0814600F044FC0646B742ECDAF11B89B22E
S31508007C00484600F0A0FC0027E81B80B2BDE8F283D6
S31508007C102DE9F0470C460788200092461E46B846CE
S31508007C2023D00FF268193FB9C92102E0B84503D13C
S31508007C30D6214846FBF762F8F1B2404600F0ADFCA3
S31508007C40804600F01CFC0546A1B28D4288BF0D4651
S31508007C50404600F0FCFB01462A465046FBF746F92B
S31508007C60641BA0B20028AA44E0D1BDE8F08770B52D
S31508007C7004462588280008D0012100F08EFC064617
S31508007C8000220121FFF737FF268070BD2DE9F84F46
S31508007C900D46044690461F460021FFF70AFF814617
S31508007CA0002603E0494600F044F881465FEA0900E9
S31508007CB019D000F0CCFB8346484600F0E0FB0BEBFE
S31508007CC0000A02E060888344761CD3453EBFA1883B
S31508007CD0B0B28842E6D241465846A8470028F1D0B5
S31508007CE007B13E805846BDE8F28F70B504460D468A
S31508007CF0A08801001BD0401EA84218DB00212046A0
S31508007D00FFF7D7FE06466088454304E02D1A31463C
S31508007D1000F00FF80646300009D000F0B0FBADB20F
S31508007D208542F3DA304600F092FB284470BD002005
S31508007D3070BD2046ECE670B504460D46E0880100A5
S31508007D4009D0401EE0802046A188491CA180491E12
S31508007D50BDE87040C9E760886843002180B200F03A
S31508007D608CFC060001D1002070BD00223146204659
S31508007D70FFF7A7FEA088401CA080681EE08030465A
S31508007D80BDE8704000F063BB0000000062756666DF
S31508007D9065722D71756575652E63000010B5DFF87F
S31508007DA0D84AFDF72DFD6061FDF726FDA0616069E3
S31508007DB0E06118B100F007F8652803DABDE810405D
S31508007DC09D21A3E010BD10B5DFF8AC4AA069E169B2
S31508007DD0884202D2AF2100F0F3FBA069E169401A9C
S31508007DE04FF6FE71084010BDDFF88C1A4A699042BA
S31508007DF003D3C969884200F036BD002070470028C1
S31508007E0018BFFFF7F1BF0120704730B1DFF8681AD5
S31508007E104969401A4010401C80B27047010001D1E0
S31508007E2000207047DFF8501A496901EB4000801EB0
S31508007E3070474088C0F30C00C01C0004800C40004A
S31508007E40001D80B2704710B50446FFF7F2FF04EB39
S31508007E504000DFF8241A4FF6FF7300E0801CCA6959
S31508007E60904202D202889A42F8D010BDDFF80C1A66
S31508007E7008607047DFF8041A0FF28400086070473C
S31508007E802DE9F843DFF8F05980462889A0B3B8F8F9
S31508007E900200000430D4DFF8E4490FF264012068D8
S31508007EA0DFF8DC9913F038FD20B94FF4BA7148466B
S31508007EB0FAF724FF002701E07F1CBFB22889874212
S31508007EC004DB4FF4BB714846FAF718FF286A2168A5
S31508007ED000EBC706306808B9316003E013F01CFDF3
S31508007EE00028E9D1B088401CB0804046FFF7A1FFC2
S31508007EF0F18801EB4000F080BDE8F1830000000046
S31508007F00756E636C61696D65640000000FF68030FC
S31508007F10FAF7F4BE70B50446DFF85C0980780128E4
S31508007F201AD12088FFF77AFF04002FD002252646AB
S31508007F303046FFF7A5FF708840F40040708036F899
S31508007F401500FFF76BFF060002D070880004EFD516
S31508007F506D1C042D1ADAEAE7022817D1FAF7B6FEDD
S31508007F6005462088FFF75AFF06000AD07088800465
S31508007F7003D540F2392100F023FB3088C0F30E0008
S31508007F8020802846BDE87040FAF7B2BE70BD00B53D
S31508007F90ADF5806DADB04FF49662694600F073F8A2
S31508007FA00DF5806D2DB000BD2DE9F84307468846CE
S31508007FB0FFF73FFF45007888C0F30D0078808004FE
S31508007FC022D5FAF783FE04463846FFF71EFF814698
S31508007FD04046FFF71AFF0646AAB239464046FAF760
S31508007FE085FF0020DFF8901806E001EB4002938930
S31508007FF04B4508BF9681401C0A789042F5DB20461F
S31508008000BDE8F243FAF774BEAAB239464046BDE85F
S31508008010F843FAF76BBF10B50C4601E0FFF713FFFC
S31508008020A04202D241880904F8D510BD70B5DFF820
S3150800803048580446A878012804BF686A00281DD154
S315080080402046FFF726FD022818DB00212046FFF709
S3150800805030FD0DE0012100F0A0FA78B93046FFF7AF
S31508008060DDFE0088000409D431462046FFF750FD9E
S3150800807006463000EED16C62012070BD2046FFF73F
S3150800808049FF002070BD2DE9F74FDFF8EC470020C7
S31508008090E080606292B0FAF719FE0121A1704FF0F4
S315080080A0000AA188ADF802100021A180E1690191BA
S315080080B0FAF71EFE2089C200206A92B20021FAF75A
S315080080C077FF0DF10200FFF725FFFAF7FFFD21788C
S315080080D062785518FAF70CFEEDB206E004EB460096
S315080080E00C30FFF717FF06F1010A5FFA8AF6AE426F
S315080080F0F4DB129848B1002501E080476D1C129800
S31508008100EDB250F825000100F7D1D4F814904FF0DD
S31508008110000B01250DF1080A0198814502D3BBF130
S31508008120000F37D0BBF1000F06D0ABF101005FFAA4
S3150800813080FB5AF82B8004E04846FFF784FEC846C1
S315080081408146B8F8020000F44041B1F5004FE3D18A
S3150800815040F48040A8F80200022638F81600FFF717
S315080081605DFE070012D0788801040FD440F4004061
S3150800817078803846FFF784FEBBF1100FBDBF4AF87A
S315080081802B700BF101005FFA80FB0025761C042E8C
S31508008190E3DBC1E7002DB8D0656A55B12888FFF73B
S315080081A03DFE6888000447BF002060622846FFF746
S315080081B0B1FE0020ADF800008246606A0025A0B333
S315080081C00088002100F0E9F9ADF80000002100F070
S315080081D0E4F90646BDF8000000F051F905463046B8
S315080081E000F04DF98246BDF8500050451ADB3000C4
S315080081F018D000F044F90746304600F028F9014641
S3150800820013983A46FAF772FE3046FFF707FE18B19A
S315080082104188C1F30D0141800022606A3146FFF7AB
S31508008220A1FC02E00020ADF800006669B346B0463E
S315080082300BE03088000404D5D6F80E0008B1FDF727
S315080082407BFE3046FFF7FFFD06460198864223D29D
S315080082503046FFF7EEFD81463046FFF7D6FDBDF8FE
S315080082600010884206D10AEB0500C01C80104000A9
S3150800827000F1040970880004DBD55846FFF7C5FDF0
S31508008280318801F40041084330801FFA89F00BEB6E
S31508008290400B06EB4008D4E70220A0700DF102005F
S315080082A0FFF738FE6846FFF735FE129860B14FF0C3
S315080082B0000902E0804709F1010912985FFA89F975
S315080082C050F829000100F5D16769B94611E0022680
S315080082D039F81600FFF7A2FD20B10088C0F30E009A
S315080082E029F81600761C042EF2DB4846FFF7ABFD8C
S315080082F08146C145EBD30BE00746FFF7A4FD41468F
S31508008300FFF789FE4845F7D3019881452BD13746B3
S31508008310474549D23846FFF796FD002F0646F6D060
S3150800832078880004F3D500F088F8B84204D1788834
S31508008330C0F30D007880EAE704D201463846FFF715
S3150800834033FEE4E7019707E03046FFF77CFD414638
S31508008350FFF761FE37460646464504D2308800F0E8
S315080083606DF88642F0D337B100F067F801001CBFFC
S315080083703846FFF719FE0198B946C3E73846FFF7AE
S3150800838058FD06465846FFF740FD8146720092B2F0
S3150800839039465846FAF7AAFD002249460DF1020069
S315080083A0FFF78FFB0BEB460BFAF790FC064617E038
S315080083B021784018401EC0B204EB4000002187898E
S315080083C08181380009D0FFF729FD00F037FA00222D
S315080083D039460DF10200FFF774FB6078401E6070A5
S315080083E060780100E4D10021201DFFF79BFBFFF711
S315080083F015FD070006D1BDF80200A080C4F81CB020
S315080084000020A0703046FAF773FC002FB6D1BDF8ED
S31508008410000078B10446FFF701FD07001CBF0AEB10
S3150800842005007880204600F012F813995246284431
S31508008430FAF75CFD15B0BDE8F08F3888C0F30E007A
S31508008440ECE480B5FFF7EAFCBDE80240D7E410B5D6
S31508008450040012D0FFF7F5FF18B940F2394100F0D1
S31508008460AFF82046FFF7DAFC38B10188090402D5CF
S31508008470D0F80A0010BD083010BD002010BD10B598
S31508008480010013D0FFF7CAFC0446FFF7B8FC18B979
S3150800849040F2534100F094F844B12088000401D515
S315080084A0208910BD6088C0F30C0010BD002010BDE7
S315080084B02DE9F04104460D46FFF7B0FC060040D012
S315080084C0FFF79DFC0FF2C85718B940F2664100F055
S315080084D0A0F82046FFF7D3FF80463046FFF7B3FCE7
S315080084E0454504462DD003DB40F26E4100F091F875
S315080084F03088000448BF358123D475803046FFF79D
S3150800850098FC06EB4005FAF7E1FBDFF86C13CA693D
S31508008510661B944204BFCD610026FAF7E9FBB6B2A2
S31508008520082E06DA32462846BDE8F041FF21FAF75A
S315080085303FBD082200212846FAF73AFDA6F10800B1
S315080085406880BDE8F081F8B507460C46FFF766FC7B
S3150800855006463846FFF793FF051B8442ADB21BD08B
S3150800856003DB4FF4936100F02BF8AEB130880004BA
S3150800857006D5D6F80A0034812844C6F80A00F1BDA3
S315080085803846FFF764FF22464119FAF7AFFC214641
S315080085903846BDE8F4408BE7F1BD38B50C46FFF721
S315080085A03DFC05000AD0FFF72AFC18B940F2AB419A
S315080085B000F006F805EB4400808832BD002032BD85
S315080085C00FF2CC40FAF79ABBF8B50C461546FFF7FA
S315080085D025FC06000FF2B84714D0FFF710FC18B9AF
S315080085E040F2B64100F015F82846FFF717FCFFF7EA
S315080085F006FC18B940F2B74100F00BF806EB440048
S315080086008580F1BD3846BDE8F44040F2BA41FAF734
S3150800861075BB3846FAF772BB70B504460D46002698
S3150800862008E0FFF72CFF294686192046FFF7B5FF15
S31508008630B6B204462000F4D1304670BD38B5C01C29
S315080086408D4C80104500A06AADB218B140F2CF41FA
S31508008650FFF7B6FFA069E169411AC903B5EB114FE7
S3150800866005DA690049420844A062012032BD0020AB
S3150800867032BD81490020886270472DE9F84F0446CB
S31508008680E01C80107C4D40000027001DAE690FF2EB
S31508008690004AB4F5005F88461FFA80F904DB40F209
S315080086A0E6415046FAF72AFBFAF710FB8346E869D3
S315080086B0A96A09B9301A03E05FEA080202D0081A63
S315080086C0461008E0701A4610B0B220B940F20C51B4
S315080086D05046FAF713FBB6B24E4515DBEF6907EBC2
S315080086E04900E861A86A28B1B8F1000F04BF00EB99
S315080086F04900A86200207C80B880F880388004F1A0
S3150800870008016889081868815846FAF7F1FA1FB906
S3150800871001211F20FDF717FC3846BDE8F24FFFF789
S3150800872074BBF8B504460D46164600210A20FFF725
S31508008730A4FF0746FFF772FB48B10681C0F80A4056
S31508008740018841F400410180C0F80E503846F2BD58
S3150800875070B504460D4611462846FFF78EFF0646B5
S315080087603CB1300005D0FFF772FE2A462146FAF7DB
S31508008770BDFB304670BDF8B504460D46164615E0F5
S315080087802846FFF77CFEB7B2874288BF07462846C9
S31508008790FFF75DFE01463A462046FAF7A7FB012198
S315080087A02846FFF7FAFE3C440546F61BB0B20028F9
S315080087B0E6D1F1BD2DE9F84381460E461446FAF78F
S315080087C085FA2D4D8046287801002BD0401E28704A
S315080087D0C0B205EB4000A9788789F9B98181384686
S315080087E0FFF71CFB00F02AF83846FFF730FE324642
S315080087F04946FAF77BFB3846FFF729FE2246002151
S315080088003044FAF7D5FB00223946281DFFF759F9F7
S315080088104046FAF76DFA0120BDE8F2836878401CF5
S315080088206870E1E7A019012180B2FFF726FF07006B
S31508008830DAD14046FAF75CFA0020EDE720B1418824
S315080088404DF6FF7211404180704738B5FAF73EFA87
S31508008850044600210B48FFF765F905462046FAF756
S3150800886047FA284632BD8041C00F704702490020AA
S31508008870888070470000000018780020945D00206A
S31508008880908A00081C7800202DE9F04104468846A5
S3150800889017461E464046FFF7DAFDC5194046FFF75C
S315080088A0EEFDF119884203DA40F2B151FFF788FE6E
S315080088B0300013D00698010003D1324629462046D7
S315080088C004E0012832462146284603D1BDE8F04196
S315080088D0FAF70CBBBDE8F041FAF74BBBBDE8F081EF
S315080088E010B50C46FFF7B3FD00B1005D10BD38B5F5
S315080088F00C461546FFF7ABFD00B1055531BD38B539
S315080089000446FFF7BCFD05462046FFF7A0FD2946AD
S31508008910BDE8384000221BE770B50D46691C0446C1
S31508008920C9B2FFF7DDFF064629462046FFF7D8FFFE
S3150800893000EB062080B270BD00B583B002238DF827
S315080089400420120A8DF80520012200920A460146E3
S3150800895001A8FFF799FF07BD10B50446FFF744FACB
S3150800896010B1A4F108000CE010BD10B5FFF756FAD7
S31508008970040004D0FFF75DFA04EB400001E0002094
S3150800898010BDBDE81040FFF740BAF8B504460D46DD
S31508008990FFF744FA060016D07088C0F30C0728467D
S315080089A0FFF73CFA07F00101CF19FFF742FA07EB88
S315080089B040072046FFF7D9FFA84203D040F26E6170
S315080089C0FFF7FEFD7780F1BD2DE9F0410C46FFF774
S315080089D025FA05002DD06888C0F30C0606F00100BC
S315080089E08019001B04F00101471AE01C20F003005F
S315080089F0284400F108082846FFF701FABFB208B173
S31508008A00A64203D240F28A61FFF7DAFDB44210D0DB
S31508008A10092F0EDB6C80082200214046FAF7C8FAB7
S31508008A20A7F10800A8F802004046BDE8F041FFF7A4
S31508008A30ECB90020BDE8F08170B5044682B0206824
S31508008A40FFF78AFFADF8000000B3FFF7E7F9050066
S31508008A501CD000880FF23806000404D540F2A56140
S31508008A603046FAF74BF96846FFF754FABDF80000A6
S31508008A70FFF7D4F90546FFF7C2F920B940F2AB6112
S31508008A803046FAF73BF905F10800206073BD00008F
S31508008A906275666665722D6D616E6167656D656E78
S31508008AA0742E63002DE9F04704461F4688460020C9
S31508008AB091463870002100E02946012000F091FD1A
S31508008AC0050038D00CB900260AE0EB782A1D414685
S31508008AD02046FEF7EFF806463878F1B28842EBD220
S31508008AE0284600F025FD8246E878C01D05EBE00023
S31508008AF0001D0DE0DB0609D53B788B4206D289F8C6
S31508008B000020F2B28A4288BF0A463A7000F010FD89
S31508008B105045D1D2017849080329F7D18378C1781D
S31508008B20002C03F00F02E5D199F800309A42EDD1F6
S31508008B303970284600E00020BDE8F08711B581B0FD
S31508008B400C4620B9204600F029F8402016BD6B4691
S31508008B5001AA00210020FFF7A5FF38B19DF80020E3
S31508008B60011D2046FEF7C9F89DF8000016BD70B530
S31508008B7082B004460D46164600F01CF818B10020CF
S31508008B803070402076BD8DF800006B463246294687
S31508008B902046FFF787FF9DF8000076BD80B5DFF811
S31508008BA040160A7A22B10822FAF7A0F9012002BD76
S31508008BB0002002BD80B5DFF828160A7A32B10822ED
S31508008BC0FAF7FDF9401E8041C00F02BD002002BD24
S31508008BD0704700207047DFF80806002101724181BE
S31508008BE008220C30FAF7E4B9DFF8F41500204881BA
S31508008BF07047DFF8F0050078000700D5704710B514
S31508008C00DFF8E445207801280BD10121002009F07E
S31508008C1000FE10B10020207010BDBDE81040FA21FA
S31508008C2005E010BDDFF8C015012008706421DFF8E3
S31508008C30BC0507F0F1BC2DE9F84B08B404468B4691
S31508008C40DFF89C851646002108F10A00FEF731FF79
S31508008C50012709E028883040B04223D0494608F168
S31508008C600A00FEF755FF7F1C81465FEA09001AD005
S31508008C70FFF7EDFB0500F1D03000EBD11CB9B8B217
S31508008C805845EBD10EE05B46AA1C59462046FEF72E
S31508008C9011F85845E2D19DF8000000281CBFA97CB0
S31508008CA08B45DBD12846BDE8F68BF8B504460D465C
S31508008CB0DFF82C65002106F10A00FEF7FAFE04E04B
S31508008CC0394606F10A00FEF723FF0746380013D097
S31508008CD0FFF7BDFB0028F3D0821C2B462946204609
S31508008CE0FDF7E8FFA842EBD1394606F10A00BDE8D0
S31508008CF0F8400022FEF736BFF1BDF8B5DFF8E054BC
S31508008D0004466889ADF800000E460020688118E020
S31508008D1000216846FEF706FF0746FFF798FB80B175
S31508008D200178C90707D5821C334631462046FDF728
S31508008D30C1FFB04205D00022394605F10A00FEF708
S31508008D40C0FE6846FEF7A0FE0028E1D0F1BD134636
S31508008D50002270E780B500224021FFF7F8FF10B126
S31508008D60007800F0010002BD38B504460D462846D5
S31508008D7002F040FDD0B92846FFF71CFF70B100216C
S31508008D80284602F009FD28B1FEF7FFFA214602F04F
S31508008D90FCFC2FE0204602F00CFD2BE02878FF288B
S31508008DA013D1687800F00F00032805DA2146DFF8AA
S31508008DB0400402F010FD1DE0062804DA2046BDE84E
S31508008DC0324002F0F6BC002032BD0022402128467F
S31508008DD0FFF7BDFF10B10178890606D400232022CB
S31508008DE000210020FFF727FF28B1811C102220460A
S31508008DF0FAF77CF8012032BD2DE9F041884682B0A9
S31508008E000546002201210BE03946301D00F010F915
S31508008E1018B1018841F400610180324601212846D3
S31508008E2000F0C5FB060026D0F778052100F0A9FB5F
S31508008E30002418B1001DFDF7A0FE044604213046A3
S31508008E4000F09FFB18B1001DFDF797FE0443002CA8
S31508008E50E3D0E00406D55FEA08000CBF42F2100230
S31508008E601522D1E72005D8D55FEA080014BF0B22E2
S31508008E7042F20802C8E7DFF868536889ADF80200CD
S31508008E800020ADF80000688103E000223146FEF7B5
S31508008E9018FE0DF10200FEF7F7FD48BB00210DF1A3
S31508008EA00200FEF73FFE0646FFF7D1FA0028F0D08B
S31508008EB00188CA0A4FF2FF7302F001021940130033
S31508008EC00CD15FEA080314BF4FF6F8734DF6FF732B
S31508008ED0194042F20103194218BF01220180002AF3
S31508008EE014BF05F10A006846CFE7002211F0D2FC4C
S31508008EF06846FEF7C9FD90B900216846FEF712FEDE
S31508008F00FFF7A5FA0100F3D00A88881C897CD306E6
S31508008F10EBD41207ECD5002211F0A1FCE8E7BDE876
S31508008F20F3812DE9F84316461F4680460C46012371
S31508008F300022FFF780FE05001FD1A94D05F10A00A2
S31508008F40FEF7A7FD082805DA00212820FFF795FB7C
S31508008F50814608B9002034E00022494605F10A0096
S31508008F60FEF7AFFD4846FFF772FA050028D028221B
S31508008F700021FAF71DF8AC7404E0288843F20701CB
S31508008F800840288010224146A81CF9F7AFFF0020A8
S31508008F90A884099C288820432880089921B108229A
S31508008FA005F11300F9F7A2FFA00609D5EE612F62B5
S31508008FB0E3B23A463146404611F0A8FBFFF732FEC7
S31508008FC02846BDE8F283F0B50D4683B000F02CF8CC
S31508008FD0060003D12A462146012020E0802D44F2CE
S31508008FE0300705DA042106F10A00F8F7D5FC06E091
S31508008FF010222146B01CF9F779FF4CF23007002001
S3150800900000904FF4E16301971A464021B01CFFF720
S3150800901088FF002814BF002001202A46214603B0F5
S31508009020BDE8F040FCF7A0BF0446002240218EE6CA
S315080090302DE9F041164686B0044688460122FFF718
S3150800904086FE07463006C00E00F0010508222146B6
S3150800905002A8F9F74BFF002F29D1F0060BD500F02F
S3150800906047F8070040D070073ED401224146204603
S3150800907011F010FC38E0002D36D00122414620467A
S3150800908000F002FD05464FF6FE70854203D0FEF756
S315080090907CF9854201D1B00726D500F029F80700EA
S315080090A022D001224146204611F0D9FB1CE0FFF7E9
S315080090B0B9FD387800F0300030280FD175B100209E
S315080090C0F86138623880002300220021B81C11F0AC
S315080090D01DFB00224146204611F0DCFB388841F290
S315080090E00701314008433880384606B0BDE8F081AC
S315080090F004A800210022C0E900120091019600236D
S31508009100414602A80DE780B500F04EF820B1008868
S315080091100006400F00F0010002BD38B5044602F013
S3150800912069FB20B104F1080002F0E5FA32BD2046D9
S31508009130FFF740FDE8B104F1080002F0D3FAB0B930
S3150800914004F1080002F0FBFA88B96946204602F0E5
S3150800915023FB40B1BDF8000006F06DFA0546FEF7A0
S3150800916014F9854203D0204602F000FB32BD0120E7
S3150800917032BD2046FFF7C7FF32BD70B5044600F082
S3150800918013F878B10588A9060CD5867C31462046A1
S31508009190FFF78BFD05F01F0231462046FFF748FF13
S315080091A0012070BD002070BD00230022802142E509
S315080091B010B50B4C38B9FD20207005220020E08040
S315080091C0601C0C4902E0014608222046F9F78EFE8B
S315080091D0012020722046BDE8104002F06CBB00005A
S315080091E0087C00207E780020D07F0020785E002052
S315080091F0A4780020327C0020704700004078FF28C1
S3150800920001D10420704702207047FF2801DA0220A6
S3150800921070470420704701464878FF2804BF881C19
S31508009220FDF7ABBC7047FF2901DA41707047FF2292
S315080092304270801CFDF7ABBC38B50446FFF7EBFF60
S31508009240054600F099FC401980B232BD2DE9F04F71
S31508009250DFF8204C8046E089020083B008BF002072
S315080092601AD061B9FFF70BF90646E089FFF7EFF860
S31508009270014632464046F9F739FE30460CE0FFF71C
S31508009280E6F80646E089FFF7FAF8304401904446C6
S315080092902EB9A4EB080080B2BDE8FE8F009E0198A7
S315080092A08642F6D23046FFF7C7FFC0B23044009078
S315080092B03078032818BF0B28F0D103280CBF0120EB
S315080092C00020A2464FF6FE79F8B10721F078C01DB6
S315080092D00004C00C051D304600F053F90746052169
S315080092E0304600F04EF9002F18BF0028EDB217D00F
S315080092F0001DFDF742FC4FF40861084210D0B8780B
S3150800930000F00F0040F47C490AE0304600F083FD87
S315080093100546B07800F00F0040F47C4040F0100994
S315080093202A4600F040FE761964190BE049462046A5
S31508009330FDF72DFCE4195C45F8D35C463046FFF78B
S315080093407BFF06440098864221D23046FFF774FF19
S3150800935037785FFA80FBF807F0D55A4600F023FE07
S31508009360012FA3440BD0052F0BD00D2FE5D1204696
S31508009370FFF744FF49462044FDF709FCDDE70327CC
S3150800938000E004272046FFF739FF0444D3E7504698
S31508009390FFF734FF5044211AC9B2881CA8420EBFF1
S315080093A054465046FFF73FFF78E738B5DFF8C45A0A
S315080093B00446A87A18B94FF4837100F0A8FA206811
S315080093C008222946F9F792FD20680830206031BD49
S315080093D038B5DFF8A05A0446A87A28B108222146EB
S315080093E02846F9F7ECFD40B100F09EFA0120A87274
S315080093F02846BDE83240FCF7AFBD31BDDFF8740A38
S31508009400817A01B90020704770B50D46DFF8681AF1
S315080094100978062904461EBFDFF8586AF17A012939
S3150800942018461AD000F01FFA012816D1FF2D14D0BD
S31508009430284611F023FE80B1FBF77CFDC0F3090531
S315080094402A460021204609F08AFA05F5FA71DFF85E
S315080094502C0A07F0E1F80120F07270BDDFF8201A37
S315080094600978C90700D4704710B5DFF8084A617A49
S3150800947039B16179491C617140B1A079401CA0716C
S3150800948000E018B101214020FAF741FEE07A0228EF
S315080094900FD00220E072607A08B1642103E0FBF77E
S315080094A049FDC0F30801BDE81040DFF8D00907F010
S315080094B0B3B810BDF8B50446DFF8BC09007806282D
S315080094C01ED0DFF8B05901F0F6F9E8890021FFF758
S315080094D093FC0021042000F084F80646E889FEF78C
S315080094E0CEFF0746E889FEF7B2FF394611F00BFAB8
S315080094F02046FFF7B3FF3046BDE8F2400DF068BEE0
S31508009500F1BD10B5DFF86C49E07A012806D00228CB
S3150800951006D10021DFF86C0908F0C0FC0020E072D3
S3150800952010BDDFF850090021C1720172C181704770
S3150800953038B50446FFF762FE054600F015FA6119CC
S31508009540084432BD38B504460846154601E0FFF71B
S31508009550EFFFA84203D202789442F8D132BD002028
S3150800956032BD38B504460846154601E0FFF7E0FF68
S31508009570A84204D20278B4EB520FF7D132BD0020CC
S3150800958032BDF8B505460C46FFF7D2FF064600F091
S31508009590B6FF00F0B3FFEB78DB1DDB101B1DE919E6
S315080095A0181A014432462046BDE8F840CAE7F8B51D
S315080095B004460D461646FEF74AFF07462046FEF7BE
S315080095C05EFF3C181EB13046FFF7B2FF0746A742BA
S315080095D005D23978B5EB510F3846F5D1F2BD0020E2
S315080095E0F2BDF8B500F012FE010001D10020F2BD6F
S315080095F0FEF72DFF07460DB93D4602E000F0AAFD2D
S315080096000546F089FEF73BFF3A1829462046BDE88D
S31508009610F840A6E738B5DFF85C48E089FEF717FF9B
S31508009620050008D0E089FEF72AFF29462A18BDE872
S315080096303840082086E7002032BDDFF83808817AEE
S3150800964019B1C0798006000C70474FF6FE70704756
S3150800965080B5DFF82038997A41B1014605221846C7
S31508009660F9F7ADFC401E8041C00F02BD002002BDC7
S3150800967010B5DFF80048207B82B028B1052204F136
S31508009680100100F091FC16E002216846F8F784F90B
S3150800969018B940F2312100F03AF9BDF80000BDF8DA
S315080096A00210E170000A2070BDF800006070080A18
S315080096B0A070402020710CF02DFBE071FBF73AFCFE
S315080096C06071FBF737FCA07101206072A072002060
S315080096D0E0810120207201F026F9FAF77BFD10B12E
S315080096E00120FFF7BBFE2046FCF736FC13BD2DE92B
S315080096F0F0478046FFF7A0FDDFF87847C6B2E08955
S31508009700FEF7BDFE0746F019002180B2FEF7B5FF49
S315080097100546C0B1E089FEF79AFE81462846FEF75F
S3150800972096FE82463A464946F9F7E0FB32464146F6
S315080097300AEB0700F9F7DAFBE58101202072002021
S31508009740BDE8F047B6E6BDE8F0872DE9F24F84B0EC
S315080097500446FFF771FD0546BDF810004FF6FF7188
S31508009760884208BF4FF0000805D0804600F004FA8A
S3150800977040441FFA80F8DFF8FC76F889FEF77FFE8A
S3150800978002904044401BADF80000BDF80010029856
S315080097908842B4BF01260026080008BFF88147D0D2
S315080097A02EB10021FEF769FF814630B940E0A84591
S315080097B008BF20463CD0B7F80E90F889FEF747FE5A
S315080097C082464846FEF743FE83460020A4EB0A0479
S315080097D00190A4B24EB128464545C8BF4046021975
S315080097E092B251465846F9F781FB0BEB0400B8F1E3
S315080097F0000F18BF01900299091B4A1B291992B23A
S3150800980051444044F9F772FBBDF8000002998842BA
S3150800981003DA01464846FEF74BFE019818B1BDF833
S315080098201010FFF700FD01203872A7F80E90019876
S31508009830FEE170B504460846DFF83816497A15463B
S315080098401E4679B14FF6FE71884204D000230022E5
S31508009850002100F0EAFA049BF2B229462046BDE848
S315080098607040E2E270BD38B5040013D0DFF8045644
S31508009870A87A297A08420FD0052229462046F9F700
S315080098809EFB08B1032032BD68796179401AC0B2DF
S31508009890812801DA022032BD012032BDF8B50C4616
S315080098A015462046FFF7DFFF01282FD1DFF8540CB5
S315080098B00078062807D02046FFF7CAFE18B940F2F6
S315080098C00A3100F024F82846FFF7A5FC00F016FE3A
S315080098D02844DFF8A055A279A979891A0026C9B2C1
S315080098E08129A8BF012600223946FEF731FF01006B
S315080098F00CD0E88100F018F80120A8720020E87260
S31508009900012028723046BDE8F240D3E5F1BD0FF2DA
S315080099100800F9F7F3B900006E6574776F726B2D5E
S31508009920646174612E630000082221462846F9F70F
S31508009930DDBAF8B504460D46FFF760FC261800F0B8
S3150800994013F837182078400814BF0424032400E0CD
S315080099502644BE4206D23046FDF70FF9A842F7D193
S31508009960B01CF2BD0020F2BD2046FFF754BC2DE91D
S31508009970F047894692460546984600220121FFF798
S3150800998016FE089C04E0324601212846FFF70FFE22
S3150800999006468EB1F778200018BF5745F3D13B46E7
S315080099A0321D51464846FDF785F9B842EBD1414686
S315080099B03046BDE8F047E4E50020BDE8F0872DE92C
S315080099C0FF4FDFF8980B008883B00126ADF8040036
S315080099D00225052302279DF814009DF810200399F7
S315080099E00090BDF80400FFF7C2FF5FEA000A3BD00B
S315080099F0FFF704FC0AEB00045046FFF799FD4FF603
S31508009A00FE794FF0FF08824607E058460CF00FFD36
S31508009A1040453CBFD9468046241D544518D22046A9
S31508009A20FDF7ABF88346A01CFDF7A7F8BDF818109C
S31508009A3008408842F0D130000BD10BF47F40B0F5D6
S31508009A407C4F06D0DFF8380400780007DDD400E044
S31508009A50CB464FF6FE70834506D016B1FDF795FC4A
S31508009A6083461FFA8BF00CE004237F1EB3D1DFF880
S31508009A700404C089ADF8040000266D1EA9D14FF66E
S31508009A80FE7007B0BDE8F08F4FF4006397E78023B8
S31508009A900122402193E738B504460120DFF8D45364
S31508009AA00090052300F009F828B901200090042346
S31508009AB000F003F800B1012032BDE88940222146B2
S31508009AC055E770B582B0044600208DF800000D46B3
S31508009AD01646FDF75AFC86420DD100208DF8000087
S31508009AE085F080009DF8001040EA0420C1F10F01BE
S31508009AF0084380B276BDB00A11F013F9FF2808D0E2
S31508009B0069460CF059FCFF281CBF9DF80000002888
S31508009B10E6D1002076BD2DE9F84F0546144688465D
S31508009B209A4600F029F800F0E5FC0A9C0B9F81464E
S31508009B3011E059463846FFF7FCFE58B1B07800F0F8
S31508009B40C0015A462046FFF7BCFF85423CBF054682
S31508009B50A8F800B056444E450BD23046FDF70DF82E
S31508009B60002F8346E5D1B01CFDF707F88005E5D43C
S31508009B70F0E72846BDE8F28F2046FFF73FBB2DE900
S31508009B80F34F83B04FF6FE70ADF8080000270523A3
S31508009B900224B84D0120009040220499E889FFF775
S31508009BA0E6FE5FEA00093ED0039A04984023402166
S31508009BB0FDF780F80021C0B20191009004234A46BF
S31508009BC002A93846FFF7A7FF0746002224E09BF8BC
S31508009BD00380012102265846FFF7D3FC5FEA000AF4
S31508009BE016D0039A802341460BF10400FDF762F86C
S31508009BF03904090EC2B291420AD2C0B20090CDF819
S31508009C0004900323524602A93846FFF784FF074605
S31508009C100021761EDFD15A46E8890121FFF7C7FCE5
S31508009C205FEA000BD3D10423641EB3D1BDF8080044
S31508009C3005B0BDE8F08F2DE9F0418E4D0646E8895E
S31508009C40FEF705FC0446E889FEF719FC251802E02C
S31508009C5000F051FC0446AC423FD220784008052863
S31508009C6002BFA07800F00F00B042F1D1DFF8EC583F
S31508009C702888FEF704FC06462888FEF7E8FB014616
S31508009C803246204600F070FA18B1BDE8F041FDF7FB
S31508009C907CBB204600F0BFF800F02CFC4FF6FE789F
S31508009CA0FF27054615E03078400806280ED1B01C77
S31508009CB0FCF763FF0446224600210020FFF701FF58
S31508009CC0C1B2FAB291423CBF0746A04600F068F915
S31508009CD00646AE42E7D3404601E04FF6FF70BDE8C0
S31508009CE0F0810978C90702D501214174704701211D
S31508009CF08174704770B50C46C178C91D00EBE10147
S31508009D000D1DFFF715FC064602E0FFF711FC054698
S31508009D10B54204D229788C422846F6D170BD002077
S31508009D2070BD2DE9F74F05460E46FFF785FA5FFA2F
S31508009D3080FB00F035F9804629783046FFF7DAFFD0
S31508009D4007462878400802280CBF4FF004094FF050
S31508009D5003094FF6FF7AA7B9022229464046F9F7C2
S31508009D60C5F87078584408F102047070002C48D081
S31508009D704A46A91C00F018F951462046FCF707FF89
S31508009D8043E002988089ADF804003846FFF736FAB2
S31508009D903C1800F0DCF9009038784008022814BF17
S31508009DA04FF0030B4FF0040B00E05C44009884422C
S31508009DB007D22046FCF7E1FEBDF804108842F4D12C
S31508009DC08CB900F0C4F90446A8EB0402D2B22146C5
S31508009DD004EB0900F9F78AF87078484470707878C7
S31508009DE048447870C2E74A462146A81CF9F7E7F8BE
S31508009DF00028BDD15146204603B0BDE8F04FFCF718
S31508009E00C6BE40F2F541FFF782FD0298294603B027
S31508009E10BDE8F04F65E7817809064CBF03210721A5
S31508009E20405C4018401CC0B27047F0B585B0074684
S31508009E300C4615461E4600F048F801208DF810001D
S31508009E408DF80E00ADF80C708DF80F606B462A463B
S31508009E502146DFF80C0700F0AAF840B19DF811007A
S31508009E609DF81210014318BFFFF724FB012005B027
S31508009E70F0BD0000D07B00207A780020605E0020CC
S31508009E807E78002088FD0208F0B585B004460D46A8
S31508009E9016461F4600F019F8ADF80C5016B9012001
S31508009EA08DF80E006B460A9D3A463146204600F06C
S31508009EB07EF838B19DF811009DF8121008432870F5
S31508009EC0012000E0287005B0F0BD14220021684684
S31508009ED0F9F76EB82DE9F94D144682B00E469B4641
S31508009EE02046FFF7A9F901909DF8080020B1E0780F
S31508009EF0C01DC010001D02E02046FFF78CFF271882
S31508009F0001982044009013E039465046F8F7EEFFD2
S31508009F104FF6FF710AF10200FCF739FE70784044EB
S31508009F20707039460D98FFF7DCFE00F010F9074609
S31508009F300098874226D29DF8080028B10D9A314626
S31508009F403846FFF7EEFEF0E700F007F95FFA80F80B
S31508009F5000F026F882463046FFF75DFF351802E026
S31508009F6000F0F8F8054655454246CDD2294638460A
S31508009F70F9F725F80028F3D14FF6FF71A81CFCF76E
S31508009F8006FED2E70C9E307800995844421A92B2DF
S31508009F9000F00AF830780199401A3070BDE8FF8D54
S31508009FA03046FFF7C5BA31462046F8F79FBF2DE978
S31508009FB0FD47C3B0B0F800800D461E464046FEF782
S31508009FC046FA07464046FEF75AFA3818029003A89A
S31508009FD030600DF585707060012030810020708139
S31508009FE06FB94FF6FF70B0819DF810012C1869E023
S31508009FF040F2C151FFF78BFC00F0A9F8074602981A
S3150800A0008742EED200F0A9F8D6F80090C4B22246EC
S3150800A01000F0A6F830682044306099F8000040083F
S3150800A020012804D00428E7D005282ED0E0E79DF8BB
S3150800A030100199F803A02C462044009002E000F095
S3150800A0405AFA04460098844219D220784008012812
S3150800A05004BFE0788245F2D15346221D514609F1E4
S3150800A0600400FCF727FE5045E9D1220007D044A892
S3150800A070009001962B4649460120FFF72BFF002248
S3150800A0803146484600F0C8F8B6E79DF8102129463B
S3150800A090484600F069F840B144A900910246019685
S3150800A0A02B4649460020FFF715FF00223146484651
S3150800A0B000F051F9A0E70122314600F04CF900F012
S3150800A0C049F80546A54219D228784708012F18BF2E
S3150800A0D0052FF4D12846FFF7AFF8C2B230682946F3
S3150800A0E0F8F704FF29463046FFF7FBFD3068012FD5
S3150800A0F0E1D10122314600F08FF8E0E7707C0028B4
S3150800A10004BFB07C00281ED04046FEF7B8F90446C6
S3150800A110306803A9451A0021A8B2FEF7AEFA060070
S3150800A12008BF002010D0439806803046FEF78FF906
S3150800A130AAB203A9F8F7DAFEA8B2A04203D2A9B2D6
S3150800A1403046FEF7B5F9012046B0BDE8F087384637
S3150800A150FFF7EEB92846FFF7EBB93846FFF76CB8B4
S3150800A16039464846F8F7C2BE2DE9F04104460D4681
S3150800A170A07800F0800690462046FFF74CFEC71EE2
S3150800A180FFB2A84402E0FFF7E5FF0546454511D2B0
S3150800A19028784008052802BFA87800F08000864283
S3150800A1A0F1D13A46E91CE01CF8F709FF0028EAD184
S3150800A1B0284600E00020BDE8F081F8B500F026F852
S3150800A1C0FEF75DF90746F089FEF741F901463A467A
S3150800A1D02046FFF7C9FF040016D0FFF71CFE00F063
S3150800A1E089F9044602E0FFF7DBFE0646A6420BD2D3
S3150800A1F02846FFF721F8024631462846F8F7DFFEDB
S3150800A2000028F0D10120F2BD0020F2BDDFF854632A
S3150800A2100446F0890D4670472DE9F44F0D4604466D
S3150800A22082B0E078C01D04EBE00000F1040A00F0FB
S3150800A23062F900905646207800F0FE004FF00008BC
S3150800A2400027207007E09DF8080018B951462846EF
S3150800A250FFF747FDCA460098824537D25046FFF7B2
S3150800A26067F981469AF80000400818BF02281AD0F4
S3150800A270032804BF9DF808000028EBD15046FEF7D6
S3150800A280DBFF56455FFA80FB04D05A4651463046F6
S3150800A290F8F72CFE3178207801F00101374608439B
S3150800A2A020705E44D6E72A463146504600F0D7F875
S3150800A2B0B34606465E45C6D09AF80010207801F0E7
S3150800A2C00101084320704FF00108C3E7B7B12078B1
S3150800A2D0397860F300013970B8F1000FB87814BF07
S3150800A2E040F0100000F0EF00B8700121BA78288914
S3150800A2F002F00F0291400843288126E0B8F1000FCA
S3150800A30008BF2C6025D0287CF8B105F1080000F0BC
S3150800A31093F80746102F18DA00F08BF8207894F88F
S3150800A32003A0C0074CBF0720062030700420FEF7A4
S3150800A3306CFFC0F1040189B23046FEF774FF47F09E
S3150800A3401000B07086F803A0361DA01C301A607085
S3150800A3502E60BDE8F78F2DE9F84F04460D46924664
S3150800A360FFF759FD271800F0C6F88046207800F058
S3150800A370FE00B9460026207019E04FF6FF718842A4
S3150800A38003D1A989B81CFCF702FC3978207801F0BA
S3150800A390010101260843B945207004D0FFF7DDFE08
S3150800A3A00246FFF7DDFEFFF7D8FE81445F464745C4
S3150800A3B01BD2FFF7CCFE8346387840080628F5D12D
S3150800A3C0B81CFCF7DAFBA97B0029D6D0A9898842F4
S3150800A3D006D0EA7B002AD0D0820AB2EB912FCCD1E4
S3150800A3E039462846FFF77DFCE0E70EB92C601EE0EB
S3150800A3F0BAF1000F0DD005F10A0000F01DF810287B
S3150800A40004DAA17801F080010843A07000F011F881
S3150800A41007E0A2786889012102F00F0291400843FB
S3150800A4206881A01CA9EB00006070C5F80090BDE823
S3150800A430F18F2146284654E410B50288002122FAF5
S3150800A44001F4E40703D5491CC9B21029F7DB102922
S3150800A45003DA01238B401A430280084610BD2DE912
S3150800A460F84F044688461546FEF7C8FE04EB000971
S3150800A47000F041F82178824648080228A8890CBFCE
S3150800A48004260326800A4746009008F8021B10E0B7
S3150800A490C84504D0324649464046F8F727FD4FF6E8
S3150800A4A0FF70834503D1A9894046FCF770FBB04489
S3150800A4B0B144D14514D24846FCF75FFB8346A87BD6
S3150800A4C00028E5D0A889834507D0E87B0028DFD097
S3150800A4D000994FEA9B208842DAD1FFF7AAFFE7E7FF
S3150800A4E0B81C80450FBF3846A8EB00007870404678
S3150800A4F0BDE8F28F26182046FFF71AB80746284601
S3150800A500FEF77CBE9F79002070B5164E0446307A59
S3150800A5100D4618B90022002191201BE0F0890100A0
S3150800A52002D10022002110E0FDF7A9FF85420ED3D3
S3150800A530F089FDF7A4FF0546F089FDF788FF014677
S3150800A5402A46FFF731FD2A462146002002E000226E
S3150800A55000210220BDE870400FF0F1BFD87E002030
S3150800A560DE7B0020D07B0020DFF8E8270121117070
S3150800A5700021DFF8E4271080101D06F04DB82DE9FC
S3150800A580F0470546DFF8D4070078000786B09046FE
S3150800A59058BF01206ED59946B9F1800F0CBF4024EB
S3150800A5A01C460027FF2DDFF8AC673DD12146404603
S3150800A5B0FEF7A3FB200024D1052000F082FA074607
S3150800A5C0042000F07EFA0743002F6AD000F06FF8E7
S3150800A5D0B0880121FEF710FC012221464046FEF70D
S3150800A5E0B6FB06005DD0307880065AD4E80458D504
S3150800A5F0B9F1800F3FD11022414602A8F8F776FC40
S3150800A60042E005234FF0020A012000902246B08856
S3150800A6104146FFF7ACF910B100F06FFA074604237C
S3150800A620BAF1010AF0D1CFE7E80A00F00102280BD7
S3150800A63000F0010082421CD0402C1AD162B10F985A
S3150800A640B0F5E16F15D3DFF81827904211D21098AC
S3150800A6503C280ED390420CD2B8F1000F09D00091D5
S3150800A6602B4602224021404600F054F80028ADD17E
S3150800A67017E0022016E00822414602A8F8F736FC41
S3150800A680042104A8F7F788F9308840F020000190E3
S3150800A6904FF4E163002000901A46214602A8FEF70F
S3150800A6A040FC00200FF055FF06B0BDE8F0870120FA
S3150800A6B030700021DFF8AC0605F0AEBF70B5044671
S3150800A6C00846150082B0194603D0412901DA0A0066
S3150800A6D001D102201AE0FF2CDFF8786607D0009037
S3150800A6E004F0C0030022284600F014F80AE001220C
S3150800A6F0009203460A46B0882946FFF738F920B182
S3150800A70000F0FBF908B1FFF7D2FF0020BDE876405C
S3150800A710FBF718BC2DE9F047C2B0814600208DF83A
S3150800A72004000F46F81D00044FEAD04A154698461D
S3150800A73000F068F84A9C200014BF032002208DF818
S3150800A740080002AE00207070B070F7705246494695
S3150800A75003A8F8F7CBFB02A85044001D022D0CBF36
S3150800A76004220322431C69000CB141F00101017067
S3150800A7701A70DFF8E04561889970080A5870DB1C82
S3150800A780042A04BF4FEA182003F8010B0DF10A004A
S3150800A79003F8018B181A707002AA01A8009002A883
S3150800A7A01B1ADBB2201DFFF76FFB38B19DF80400BA
S3150800A7B018B101202070FFF77CFF012042B0BDE8E8
S3150800A7C0F0872DE9F041DFF88C650446B0888846A5
S3150800A7D0FDF755FE0746E519A84505D24FF4A571BC
S3150800A7E00FF2A850F8F78AFA00F00CF8B088FDF7CF
S3150800A7F02EFE01463A462046F8F778FB2846BDE87D
S3150800A800F0810000012093E1000000002DE9F047E7
S3150800A810DFF8547580463888FDF719FE06463888ED
S3150800A820FDF72DFE4FF0000A37180EE03046FEF70A
S3150800A830E5FC3044FCF7A1F9404500D1CA46EDB223
S3150800A8407619BE4202D10CB127460024BE422FD249
S3150800A8503046FEF7F1FC05460AF101005FFA80F979
S3150800A860307840080628EAD8DFE800F01106110417
S3150800A87004180500E3E7D9E73046FEF759FE3C46DB
S3150800A8800746F078C01D0004C00C051DD7E74146F1
S3150800A8903046FFF74EF80028D1D0CFE73046FEF70E
S3150800A8A047FE3C4607463046FFF7B5FA0546C6E773
S3150800A8B05046BDE8F087DFF8B4040078062800D1D2
S3150800A8C0704770B5FFF79EFFFCF75FFDFFF79EFF29
S3150800A8D00446002000F02CF98442DFF87C54DFF8A7
S3150800A8E0746406D100203070281DBDE8704005F05C
S3150800A8F0E3BE307838B9012030700021281DBDE844
S3150800A900704005F089BE70BD032802BFDFF8440415
S3150800A9100178022906D1002101704FF6FE70DFF892
S3150800A92038140880704710B5C2B00DF5817101A8BA
S3150800A930FFF747FF0446FCF728FD0021009101AA0E
S3150800A94001A9631A9BB24FF6FE71FEF772FFDFF894
S3150800A95004140020087042B010BDF0B5DFF8F443C7
S3150800A9600FF2284021780129DBB004D053D30329FC
S3150800A9704DD049D34FE0FEF760FE0546DFF8F003F9
S3150800A980007810B1FFF7CFFF45E04FF6FE77BD42DE
S3150800A990DFF8C46308BF4FF4FA6131D0DFF8BC03AF
S3150800A9A00078000737D559A90DF16600FFF709FFAA
S3150800A9B00A218DF8641019A9411A3288891E8DF862
S3150800A9C06510BA421CBF02210CF06EFB19A9431A86
S3150800A9D09BB219AA2946684611F0B4F9DFF8940320
S3150800A9E00FF2BC311590002242F6E06016906846D8
S3150800A9F00AF051F810B9022020700CE040F6B83180
S3150800AA00301D05F009FE06E040F29B2101E040F208
S3150800AA109F21F8F773F95BB0F0BD10B50446DFF86F
S3150800AA20500300789AB048B1002000900023002215
S3150800AA304FF6FE712046FEF7FCFE26E02046FFF79D
S3150800AA40E5FE10B32246022168460CF02DFB0446AB
S3150800AA506846201A052805D340F2AB210FF22C30A0
S3150800AA60F8F74CF9FEF7E9FD6946631A01469BB209
S3150800AA706A4601A811F066F942F6E06017900022CE
S3150800AA800FF21C3101A80AF006F81AB010BDB14938
S3150800AA90002088807047F8B50446B34EAD4837881D
S3150800AAA0808830800D46FFF7ADFE21462846FFF721
S3150800AAB066F84FF6FE718842378014BF01200020E1
S3150800AAC0F2BDF8B504460025A24E002208E021464C
S3150800AAD0FEF757FD18B1718800F025F801253A46AA
S3150800AAE0B0880121FEF763FD0700F0D128001CBFDE
S3150800AAF0002000F002F82846F2BD1CB5954C10B1AE
S3150800AB00618800F010F800208DF80400002301A8E1
S3150800AB10009000226088411C89B2201DFFF7B4F915
S3150800AB209DF8040016BD491C89B2801CFCF72FB895
S3150800AB302DE9F14F84B0874C38B1FCF726FC6188C3
S3150800AB40884208BF002000F08280FCF71EFC608067
S3150800AB500025A088FDF77BFC0746A088FDF78FFC3B
S3150800AB6007EB000800260295A946019516E0381D50
S3150800AB700290384697F80390FEF7DAFC4646804678
S3150800AB80F878C01D0004C00C00F1040A5FFA8AF0C8
S3150800AB900744474502D10EB1B0460026474555D26F
S3150800ABA03846FEF749FB3B7882465808691C062852
S3150800ABB0C9B2EBD8DFE800F006050604042D380014
S3150800ABC0E4E7D4E79DF810000D4620B16188B81C6B
S3150800ABD0FBF7DDFFDAE7012000904A466248029952
S3150800ABE00088FEF7C4FE5FEA000B2DD0FCF7CDFB0C
S3150800ABF001465846FEF79DFE30B3397849080CBF22
S3150800AC00012202220146381DF8F7D9F90028BDD0DD
S3150800AC101AE001973846FEF78BFC464680463846CA
S3150800AC20FFF7F9F88246B1E79DF810000D4628B1FE
S3150800AC303846FEF7E3FA61883844C9E70198394689
S3150800AC40FFF7BBFA0028A1D1FF2000E0284605B08F
S3150800AC50BDE8F08F2DE9F047474D04462888884619
S3150800AC600100924608BF00200CD0FDF7F0FB07460E
S3150800AC702888FDF704FC3D18D1460026B7B9A9EB8C
S3150800AC800A0080B2BDE8F087401C82B242450CD269
S3150800AC9080B2225C9142F7D1BAF1000F04D0324655
S3150800ACA039464846F8F722F9B144BF19AF42E6D209
S3150800ACB0002FFAD078783978C6000020E5E7FEB587
S3150800ACC00D46014616461C460FF2DC0010F024FE1F
S3150800ACD008B10020FEBDAA1929460820FEF732FC55
S3150800ACE0060003D100F04AF8802118E071780022A6
S3150800ACF0B01CFFF7AFFF05460027DDB11E4F3888A9
S3150800AD00FDF7BDFB854208BF3F8813D000212846C2
S3150800AD10FDF7B3FC070006D100F030F8A321204662
S3150800AD200AF07EFA12E0FDF792FB02467178B01C33
S3150800AD30FFF790FF09208DF804008DF8055000975D
S3150800AD40022301AA442120460AF074FA0120FEBD16
S3150800AD5000000000D47E0020345E00207E780020AB
S3150800AD609BC42000385E0020DE7B00207A78002015
S3150800AD70D97B002009A90008DA7E0020002002906D
S3150800AD800190009000230022704700006C6F6361F9
S3150800AD906C2D7365727665722D646174612E63001D
S3150800ADA0612F736400000000612F6E6400000000CC
S3150800ADB07047808989B2814201D1012070470020FD
S3150800ADC0704770B586B004460D4604A9284600F0BB
S3150800ADD0A8FC69462046FDF7B1FE4FF6FE764028E8
S3150800ADE018BF304615D10822294602A8F8F77EF87A
S3150800ADF06846F9F778FDFF2806D0DFF82C140968AD
S3150800AE0031F81000B04204DB68460FF0CCFF0FF0B3
S3150800AE10F5FF06B070BD70B5DFF810542978044602
S3150800AE20FF29A08908BF28706978FF2908BF6870BC
S3150800AE302978884225D0E17BFF2908BF264603D01A
S3150800AE40281DFCF752FF0646217CFF290EBF204627
S3150800AE50281DFCF74AFFA1896A78914202D1B08978
S3150800AE60687003E081893174B189C173FF20E0738A
S3150800AE70281D29782174FCF738FFA189C173A08998
S3150800AE80287070BD80B502894FF6FF739A420AD0C2
S3150800AE90827A8B7A9A4206D1082210F063FF401E06
S3150800AEA08041C00F02BD002002BD008989B28842D8
S3150800AEB001D1012070470020704710B586B00446BE
S3150800AEC008226846F8F712F88DF80A4000236A4601
S3150800AED0DFF85C13DFF85C03FCF7D8FE040018BF44
S3150800AEE0FFF799FF204606B010BD2DE9F843064640
S3150800AEF089469046DFF83443DFF83C1300234FF6C3
S3150800AF00FF72201DFCF7C2FE050020D1A08808B9F3
S3150800AF10002706E02089FF2190FBF1F1C1EB012112
S3150800AF20471AB9B2201DFCF7E0FE050003D0A88930
S3150800AF30B9B288420BD00821201DFCF7FCFE05009B
S3150800AF4004D16178201DFCF7D0FE0546AF814FF687
S3150800AF50FE77B84504D149463046FFF732FF8046AA
S3150800AF60082249462846F7F7C1FF0020A873A5F826
S3150800AF700880AE722889A989B8420CBF4FF0FF3005
S3150800AF8000206861FF20E8732078814218BF287482
S3150800AF902846FFF740FF2846BDE8F283F8B5044681
S3150800AFA00D4616461F46FFF788FF28B9324629463A
S3150800AFB02046BDE8F84098E747B14FF6FE7296423C
S3150800AFC00CBF4FF0FF31002106814161F2BD2DE92A
S3150800AFD0F04114461D46FFF770FF07002DD0BB89C8
S3150800AFE0964A0FF26421964805F0C4FB5FEA00080A
S3150800AFF01CBF069E002E0CD00022082108F10E0068
S3150800B000FBF71EFE78B10822314608F10E00F7F765
S3150800B0106DFF7869A84213D3B87B3C8100F00C0019
S3150800B0207D61B8730CE00822314608F10E00F7F787
S3150800B030C6FF0028EDD0002003E0204600F027F8E0
S3150800B0400120BDE8F08110B5784C0FF2FC11002004
S3150800B050A0802081608182B0012000900023002218
S3150800B060774805F05BFBFF202070607013BD0289EE
S3150800B07089B28A421CBFC2F309028A4205D14FF639
S3150800B080FE7101814FF0FF31416100207047024691
S3150800B09000236C496748FCF7F9BD30B589B0054609
S3150800B0A005F11701A87DFFF708FF040048D0A07A2C
S3150800B0B004A9FDF743FD402803D0A07B00F0FC005F
S3150800B0C03DE0A17B01F00300012804D038D3032812
S3150800B0D033D016D334E0082204A96846F7F706FFEA
S3150800B0E00822214602A8F7F701FF684611F07DF805
S3150800B0F0A07B00F0FC0040F00200A07340F6B831D7
S3150800B10017E0012208098240C2EB0212B2F5E14FAC
S3150800B11088BF4FF4E1420B2841F0030104DA01F03D
S3150800B1200F01401C41EA0011A1734FF47A7000FB2D
S3150800B13002F1284605F070FA02E001F0FC00A0735F
S3150800B14009B030BD2DE9F8438046894615461F46A5
S3150800B150FFF7B3FE04004FF6FE7611D1380007D08C
S3150800B1600123324649464046FFF718FF040007D137
S3150800B17049464046FFF725FEB04228804ED14FE0AB
S3150800B1802089B0420DD00DB9390009D1800A0FF0D7
S3150800B190C8FDFF283FD120890AF0ADFD00283AD125
S3150800B1A02681002F1EBFA07B00F00300032837D09E
S3150800B1B078BB0FF29406A389204A2148314605F048
S3150800B1C0D9FA05000BD100212020FDF756FA010017
S3150800B1D026D0FDF73CF9054600202E606860082257
S3150800B1E0A089A881002105F10E00F7F7E1FEA07AF3
S3150800B1F0A8750822214605F11700F7F777FEA07B08
S3150800B20000F0FC0040F00100A0730021284605F07C
S3150800B21003FA012005E00DB120892880022000E00C
S3150800B2200020BDE8F2830000A45C0020585F0020DF
S3150800B23085AE00085C5F0020ABAE0008B3AD000821
S3150800B240807800206FB00008807800209BB0000846
S3150800B250B1AD00084C020308DFF808140A7822B1D9
S3150800B2604968884201D10120704700207047DFF8FD
S3150800B270F403007800B1704700B585B00821684628
S3150800B280F6F78AFB10B95F2100F012F9012168462A
S3150800B29000F092F805B000BD00BF10B5DFF8C44352
S3150800B2A00020207060702022002104F11400F7F7B6
S3150800B2B07FFE04F13400BDE8104020220021F7F794
S3150800B2C077BE7FB504460D46164601A80FF2C03173
S3150800B2D00B2211F0FBF82A4601A90020FBF75BFCBC
S3150800B2E000960A2301AA1021204611F080FA7FBD94
S3150800B2F07FB504460D46FFF7AFFFDFF8686310B168
S3150800B30006F1140010E0707828B13069844208BF4D
S3150800B31006F1340008D0684600F038F820B12A460D
S3150800B3202146FFF7CEFF284604B070BD38B5DFF8D2
S3150800B33034530C4605F11402FFF7C3FF01206C6075
S3150800B340287031BD80B50020009004236A467F210D
S3150800B3500420F5F787FF01BD38B50DF0F9FD044661
S3150800B3600022102104F13400FBF76AFC68B900F0EA
S3150800B37099F8BC4D00990020687004F13400FFF775
S3150800B380D5FF00F021F90020E86031BD38B5044644
S3150800B3900DF0DEFD05460022102105F13400FBF70D
S3150800B3A04FFC38B9102205F134012046F7F79EFD07
S3150800B3B0204632BD002032BD10B5C6B00C46024646
S3150800B3C01023052168460BF08EFE05A80EF053FEE5
S3150800B3D01222694605A80EF0BBFD05A80DF0CFFDA3
S3150800B3E0A048002101704170204600F065F810F071
S3150800B3F050F8F9F729FA46B010BDF0B5994D04464C
S3150800B400287887B010B16868844249D002A8FFF747
S3150800B410BDFF060044D02878D8B16868A04203D397
S3150800B4204FF4A77100F044F8202205F1140105F144
S3150800B4303400F7F75BFD68682861271A0121802F19
S3150800B440697028BF7F27F8B2F9F7BBF9F8B210F090
S3150800B45037F821463046FFF769FF019400F022F8D5
S3150800B46000980199884215D03FBF08460099401AAE
S3150800B470052809D20420F5F719FF00980199401C00
S3150800B48088420090F6D305E0042301AA7F21042010
S3150800B490F5F7E8FE6C600BF052F80020FAF768FD45
S3150800B4A007B0F0BD04237F2204216846F5F7CABE1B
S3150800B4B00FF2BC10F7F722BC80B5FFF79EFF69496B
S3150800B4C04FF41C70C860BDE801407DE0654908B1CD
S3150800B4D04A6802600878704738B504460D466846DB
S3150800B4E0FFF7F4FF18B940F28511FFF7E1FF00985E
S3150800B4F0201A00F14001802903D295F900108842EC
S3150800B50001DA002032BD2870012032BD30B50D4663
S3150800B510544914460A7889B00AB9002018E04B68DD
S3150800B5204A19984208BF02F1140011D04B782BB182
S3150800B5300969884208BF02F1340009D06946FFF755
S3150800B540D7FE10220DEB05012046F7F7CFFC204663
S3150800B55009B030BD43490A780AB9002070474968DE
S3150800B560401E401A00F07F025018402AA8BF8038B3
S3150800B57070470A461021C9E70A460021C6E7394935
S3150800B5800A782AB108B14A68026001F124007047B6
S3150800B59000207047002070470020704731498A68AC
S3150800B5A0002002B190B2CA6812B1824238BF90B286
S3150800B5B048B1F128A8BFF020887088782A49414305
S3150800B5C02A4805F029B8704780B50DF0C1FC5430FB
S3150800B5D0FBF7D3FA30B92349C860BDE802402348CF
S3150800B5E005F06AB8BDE80140D8E71E48C168826818
S3150800B5F051EA020315D083781AB193422CBF002270
S3150800B600D21A826019B18B422CBF0021C91AC160B7
S3150800B6101146C268114318BFFFF7C0BF4068401CF7
S3150800B6204AE770470F490A7842B14A68521C904265
S3150800B63004D1C968002908BFFFF73EBF704738B56F
S3150800B64004460D46FBF7C5FE08B1702006E0E8077C
S3150800B65003D520680021FFF7AFFE0020BDE8324081
S3150800B660FAF785BC5C7B002080EE3600445E00203D
S3150800B67064697374726962757465642D6B65792D76
S3150800B6806D616E6167656D656E742E6300000000FE
S3150800B690303030305468726561640000914938E092
S3150800B6A080B5014606220FF2FC501EE038B5044666
S3150800B6B00D4606220FF2EC512846F7F717FC2146ED
S3150800B6C0A81DBDE83440FBF762BA38B504460D46F6
S3150800B6D0FFF7E6FF28B11DB1A01DFBF74EFA28803B
S3150800B6E0012032BD80B508227E49F7F768FC401E66
S3150800B6F08041C00F02BD00B583B0694600F011F85D
S3150800B700082279496846F7F75AFC401E8041C00F5F
S3150800B7100EBD10B500F00DF8207880F002002070FC
S3150800B72010BD10B500F005F8E07980F00200E07170
S3150800B73010BD0C46014608222046FBF790BA38B5DC
S3150800B7400446FBF722FE054669462046FFF7BDFF7D
S3150800B75000281CBF4FF6FE70854205D0BDF80000D4
S3150800B760854201D1012032BD002032BD80B569462F
S3150800B77000F012F838B1BDF800004FF6FE718842A5
S3150800B78001D1012002BD002002BD10B50C4604F10E
S3150800B7900801FFF78BFF14E038B504460D46FDF7A0
S3150800B7A009FA28B1294604F10800BDE834408CE7B7
S3150800B7B032BD10B5044608224A4904F10800F7F7D5
S3150800B7C095FB2046BDE81040FDF7E8B910B50446DC
S3150800B7D0FDF7F0F917E038B504460D4608220FF2D2
S3150800B7E0CC412846F7F782FB05F108012046BDE85B
S3150800B7F034408EE780B508220FF2B04175E710B5E0
S3150800B8000446FFF7F7FF38B104F10800FFF748FFD1
S3150800B81000F0010080F0010010BD10B50446FBF7EA
S3150800B820B4FD4FF6FE71884205DAFBF7AEFD2146F8
S3150800B830BDE81040A9E72046BDE81040B9E710B5B5
S3150800B8400446FDF76AFC18B92046BDE810401CE21C
S3150800B850012010BD0178FF2904BF4178322907D19C
S3150800B860817829B9C178402904BF001DFDF7A2B91E
S3150800B870002070470178FF2904BF4178332907D192
S3150800B880817829B9C178402904BF001DFDF792B90E
S3150800B890002070470178FF2906BF4078012800205C
S3150800B8A070470178FF2904BF4078022801D101209A
S3150800B8B070470020704738B504460C4D08222146CB
S3150800B8C0281DF7F713FB0822214605F11400F7F7A0
S3150800B8D00DFB214605F12400BDE838400822F7F79C
S3150800B8E005BB000070780020A4780020A05D002029
S3150800B8F010B581280B4601DB002010BD802814DA1C
S3150800B900C408C0F10800012200EBC400195D02FA60
S3150800B91000F0401E21EA00001855C4F10F0218195C
S3150800B92092B20021401CF7F743FB012010BD2DE918
S3150800B930F84708B40646180090B08846914611D0D4
S3150800B94001A8102100F0E0FB26B11022314601A81B
S3150800B950F7F7CCFA5FEA090006D001A94046FFF7D7
S3150800B960C7FF002800F09A80FF260024FF270096CC
S3150800B9700025A24601A800EB4A00FBF7FEF8FFB235
S3150800B98020B9FF2F08BF5746641C05E0FF2F03D0D8
S3150800B99000F087F8FF2700240AF1010ABAF1080F18
S3150800B9A0E8DBFFB2FF2F01D000F07BF8012D08BFBE
S3150800B9B00096009805AE00272C180098874201DBF0
S3150800B9C0A7422CDB01A800EB4700FBF7D6F817B116
S3150800B9D03A2106F8011B314600230022950000FA99
S3150800B9E005F52D1305F00F0C002B08BFBCF1000F51
S3150800B9F001D1032A0CD10B46591CBCF10A0FB4BF5E
S3150800BA004FF0300E4FF0570EF44483F800C0012370
S3150800BA10521C042AE2DB881BC0B2064404E0B84282
S3150800BA2004BF3A2006F8010B7F1C082FC5DB082C3B
S3150800BA3004BF3A2006F8010BB9F1000F1CD02F20DD
S3150800BA4006F8010BB8F1640F404605DB312164386E
S3150800BA5006F8011BC0B201E00A280ADB0A2190FB9E
S3150800BA60F1F101F1300206F8012B0A2202FB11005E
S3150800BA70C0B2303006F8010B002006F8010B05A904
S3150800BA801A98711A884208D305A8321A109892B2E1
S3150800BA9005A9F7F72BFA012000E0002012B0BDE84F
S3150800BAA0F0870098FF2802D0E4B2A54201DA009791
S3150800BAB0E5B2704780B500920B460022002103E0EC
S3150800BAC080B5009313460122FFF731FF02BD2DE929
S3150800BAD0FE4F0546080090B03ED0180001D0100071
S3150800BAE03AD065B9109810220021F7F761FA9DF847
S3150800BAF04800002802D0119900200870BCE02C21CB
S3150800BB00284610F01FFF04462C2C25D205A82C2108
S3150800BB1000F0FAFAA2B2294605A8F7F7E7F99DF860
S3150800BB2048000024C8B12F2105A810F016FF05000B
S3150800BB301FBF0470451C287800280DD0287860B1EE
S3150800BB4015F8010BFBF7FCF80A2805DA0A2101FBB0
S3150800BB500404A4B2812CF1DB85E001A8102100F0D1
S3150800BB60D3FA00208DF800008146834680469DF86A
S3150800BB70140000253A280CBF01260026AA4619E01B
S3150800BB8082F0010001EA0902384082F001021042FF
S3150800BB9069D0012E08BF002965D029B10AF1010A2A
S3150800BBA04FF001098DF800504FF0000BD8460026DB
S3150800BBB00AF1010A05A810F80A00010031D03A284E
S3150800BBC00CBF01270027FBF7BBF805A951444978A4
S3150800BBD04A1E9241D20F3A290CBF012100210FB902
S3150800BBE0102840DA102D3ED01EB1022EC8D0C7D379
S3150800BBF0DEE7002F37D1B8F1040F34D000EB0B1B6A
S3150800BC0008F101005FFA80F851EA0200D0D001A8D5
S3150800BC101FFA8BF12844FAF7BAFFAD1CEDB20226DB
S3150800BC20C6E7B9F1000F14D0C5F110095FFA89F615
S3150800BC30CEB19DF8001001A847186A1AD2B2394643
S3150800BC40B819F7F753F9324600213846F7F7B0F92D
S3150800BC5001E0102D07D19DF8480040B101A9E0B2D6
S3150800BC60FFF746FE08B9002007E011980470102275
S3150800BC70109801A9F7F73AF9012013B0BDE8F08F3B
S3150800BC800023002223E7012321E710B5040007D08B
S3150800BC9000220F21FAF7D4FF10B1E07B012800D06B
S3150800BCA0002010BD000000FFFE000000FE8000001E
S3150800BCB00000000038B51446F5F785FF05466CB157
S3150800BCC028000BD00748007818B1074901200870EA
S3150800BCD004E0002200212846F8F79FFE284632BDD8
S3150800BCE0704700001D7D00201E7D002010B5DFF87E
S3150800BCF0804304F10800FCF70DF904F10A00FCF78B
S3150800BD0009F904F10C00FCF705F9BDE81040DFF865
S3150800BD106403FCF7FFB810B5DFF85423DFF858338F
S3150800BD2014781B78234306D1DFF850331B780C2B85
S3150800BD3003D0022906D0002010BD012908BF02F150
S3150800BD400C0301D002F10A03014600221846FBF74C
S3150800BD50B8FEFAF7C1FC012010BDDFF814034179DB
S3150800BD6019B901214171FAF7B7BC7047DFF8080322
S3150800BD70007800B1704710B507F05CF9DFF8F042BB
S3150800BD80208128B9002104F10A00FBF7CBFE2081A7
S3150800BD90208928B9002104F10C00FBF7C3FE208195
S3150800BDA02089002804BF207800280ED1607902284F
S3150800BDB003D010F0FEFD208138B9607928B110F063
S3150800BDC09EFF208108B10020607110BDA8488079C7
S3150800BDD0704780B5A0F10B01102901D3002002BDE0
S3150800BDE0A3498871042000F02AF8012002BD00004A
S3150800BDF09F480178491E00220329027000D970471E
S3150800BE0080B5DFE801F002060A0EBDE8014004F03D
S3150800BE1039BDBDE8014004F087BDBDE80140FBF728
S3150800BE2020BC8079F4F7B0FC20B1F4210FF2682029
S3150800BE30F6F764FFBDE80140FAF74EBC01BD38B518
S3150800BE40044607F0CBF98A4D687940B1002068713D
S3150800BE50FBF7BFFA032804BF40200EF0FCFA287847
S3150800BE6008B1002032BD86480078052808BFFAF7D1
S3150800BE70D4FC2C7000F007F818B1FFF7B9FF0120C1
S3150800BE8032BD022032BD38B5F6F720FF0446784D9C
S3150800BE9005F10A00FBF7F8FDA0B105F10C00FBF768
S3150800BEA0F3FD78B176486979007808430AD107F036
S3150800BEB011F838B9734804F00BFB00F0010080F064
S3150800BEC0010500E000252046F6F712FF284632BD98
S3150800BED010B56B49664C002008702081207060817F
S3150800BEE0A081FCF7C3FCF9F725F86070F9F722F88A
S3150800BEF0A070644804F0E0FB634804F0DDFB4FF4EF
S3150800BF00A05162480EF094F900206071BDE8104017
S3150800BF1006F0E7BF2DE9F04104465D48544E057822
S3150800BF20308928B940F28F110FF26C10F6F7E6FE49
S3150800BF30281FDFF85081524F0ED0801E012814D8D2
S3150800BF40052038702146284604F051FE08B900F04D
S3150800BF5018F8002030810BE0312C05D038780228FB
S3150800BF6003D1200001D10120F070347100F009F8E6
S3150800BF70042D04D07079012804BF02207071BDE831
S3150800BF80F081032038700021404604F045BB38B5DF
S3150800BF90374D2979044607F0A6F828B929792046A5
S3150800BFA0BDE8344003F0ABBA31BD2DE9F843044689
S3150800BFB0FCF74DFA471D05212046FCF7ADFC054662
S3150800BFC0384610F023FF05F44C483E5C280701D597
S3150800BFD0042E4AD12F4806704FF4406005424FF6AA
S3150800BFE0FF7906D0F81CFAF7C5FD484508BF48F0A2
S3150800BFF0400805F44060B0F5006F06D1781DFAF7E1
S3150800C000B9FD484508BF48F01008012E4CF6500007
S3150800C01015D0022E16D0032E0ED0042E08D0062ECA
S3150800C02021D0072E08D0082E15D07C2E0ED01CE065
S3150800C030204606F0BBFFC0B90020BDE8F283B8F57C
S3150800C040484FF9D0B8F54C4F0FD1F5E7B8F54C4F36
S3150800C050F2D08045F8E74CF64040804505D10748C0
S3150800C06000780728F0E78045E6D00120E5E70000DC
S3150800C070F07E0020BC7B00201D7D0020505E002045
S3150800C080E47F00207C5F0020545E00205C7D002059
S3150800C090F95F0020E37F00206D61632D617262699C
S3150800C0A07465722E6300000080B5010007D11B205D
S3150800C0B0F4F71DF9BDE802401A20F4F70EB9012875
S3150800C0C007D11B20F4F709F9BDE802401A20F4F756
S3150800C0D00EB901BD80B507480078022807D11B2094
S3150800C0E0F4F70FF9C0B2FFF7DFFF002002BD012009
S3150800C0F002BD0000086000207047002070470AF063
S3150800C1000FBA012070477047002210F0A3BE000046
S3150800C1102DE9F8430446FAF72DFD0546E01CFAF723
S3150800C12029FD0646601DFAF725FD804600274FF4CF
S3150800C1304060054208BF40274FF44C4005422ED0C8
S3150800C140680658BF47F020074FF6FF794E4508BFE7
S3150800C15047F0010705D0FBF722F9864208BF47F0EA
S3150800C160020705F44060B0F5006F03D0B0F5406FE4
S3150800C1700CD014E0C84508BF47F004070FD0FBF7FA
S3150800C18004F980450BD147F0080708E00822611D2D
S3150800C190DFF87C08F6F713FF08B947F010073846AA
S3150800C1A0BDE8F2832DE9F04FADB080461546FCF7A1
S3150800C1B04EF90646701CFAF7DDFC8246701C10F034
S3150800C1C025FE3044441C611C0120FAF703FD814614
S3150800C1D000271AF440407CD0B0F5004F11D0B0F5D6
S3150800C1E0404F08BFA4F10807002000906946204682
S3150800C1F00AF053FA040021D1384601F094FD88B9B3
S3150800C20067E0A01EFAF7B6FCFBF720FA0700EBD1A9
S3150800C210701C0AF05CFB0700E6D101210E20F9F735
S3150800C22092FE56E0002E18BF002F52D0034600F0AB
S3150800C23074F800284DD00120287065E0082C19D123
S3150800C2400098C0B2FFF786F9054601A9FFF791F9EC
S3150800C2508346BBF1000F16D125A92846FFF748F8F3
S3150800C260002E1CBF002F002833D000F1100300F069
S3150800C27054F82EE0102C2CD14FF0FF35DFF89477C8
S3150800C280DFF894B7E5E7FFF785F938B9002E18BF48
S3150800C290002F1ED000F040F860B91AE0002E18BF33
S3150800C2A0002F16D03278711C05A8F6F71FFE00F08D
S3150800C2B033F870B1102C26D0009BDBB24A463946BB
S3150800C2C04046FFF71AFF20B94FF440401AEA000F1C
S3150800C2D001D1022018E000F01AF80FF085F878B9B5
S3150800C2E000F015F8F8F7C7FA50B900F010F802F0A0
S3150800C2F041F928B901210F20F9F725FE042003E0AA
S3150800C3002846FFF78FF901202DB0BDE8F08F0023EE
S3150800C3102A463946484670475B463A463146701CB7
S3150800C3200AF0E3BA2DE9F04F85B08046FCF78FF89E
S3150800C3300546681CFAF71EFC0646E8788DF80200E2
S3150800C34006F00709F00800F0010A300A00F00100BB
S3150800C3508DF8030006F4405400208DF801004FF0D4
S3150800C360000B681CFFF7D4FE074617F0440014BFFD
S3150800C370052004200121F9F7E6FD15B12878801E6D
S3150800C38028704FF6FF6000EA0601681CFAF7FBFB07
S3150800C390681CF9F7E2FDD0B14FF0040B002405B193
S3150800C3A02C784046FCF76BF80646681CFAF7E2FB61
S3150800C3B007465FEACB7040F1EF8000F04DFB801E28
S3150800C3C05FEA8B71C0B201D5801FC0B2E5E0BAF151
S3150800C3D0000F0CBF002CB4F5805F13D14EF6F76042
S3150800C3E00640DFF838060078012818BF03284FF6FC
S3150800C3F0FF7408D0052818BF062804D0072806D0D9
S3150800C4000C282BD016E1B9F1000FFBD130E0B9F1B9
S3150800C410030FF7D117F0030003D1FAF7C0FFA042C4
S3150800C420F0D117F01C00EDD09DF8030008B14BF0D1
S3150800C430200BDFF8EC0500781AEA000FAED00DF1F4
S3150800C440010239464046FFF7ADFE022869D1B9F127
S3150800C450000F64D1002D45D10024A2E75FEA090147
S3150800C46006D0B9F1010F0ED0B9F1030FD2D0E1E031
S3150800C4700C2801D1B807FAD5B6F5004FD4D0B6F5D1
S3150800C480404FF4D1D0E70A2F1CBF062F122F25D113
S3150800C490780758BF4FF0010B10D5DFF888050088DC
S3150800C4A0000404D5DFF880050078042815D0DFF8E5
S3150800C4B07C050078022810D04FF0410B16F4404056
S3150800C4C008D0B0F5004FAFD0B0F5404F05D14BF0CE
S3150800C4D0020BA9E7BAF1000FA6D1ABE0252FA3D02E
S3150800C4E0322FCEE74046FBF7CAFF064695F800A06E
S3150800C4F000F0B2FA0746A6EB0A00221805EB0A0076
S3150800C500411CE81992B2401CF6F7F0FCAAEB0700AA
S3150800C510C0B22F70311A89B200F0B2F840E7B9F10B
S3150800C520030F30D100F098FA2844461C30460AF02A
S3150800C530ADF8305C04282CD14046FBF7A0FF002D4F
S3150800C540824689D02F7800F087FA019030460AF0A3
S3150800C5509DF8064601990198AAEB01012844891B12
S3150800C5606218811992B2491C401CF6F7BFFCB81B29
S3150800C5702870681CFAF7FEFA0146681DFAF703FBED
S3150800C580AAEB0601C7E710B94BF0100B06E701281E
S3150800C590FCD00121102062E00220211AC91D8DF865
S3150800C5A000108442A1BF611C8E429DF800108E4285
S3150800C5B040DB221A2844411C92B2E81DF6F796FC85
S3150800C5C00DB185F800B004220021681CF6F7F0FCCE
S3150800C5D03946681DFAF7D7FA9DF8010018B1032104
S3150800C5E0404600F075FA681CF9F7BAFC18B107213D
S3150800C5F0404600F06DFAB9F1010F39D15FEACB7008
S3150800C60013D502A9404611F050FA70B1FAF7BDFEEB
S3150800C6100146BDF80C00884207D009F06CFB58B1FA
S3150800C620BDF80C00F8F7C1F830B96946404610F075
S3150800C63046FC08B900201EE000F020F8404600F04D
S3150800C640FCFAB0F5004F15D1404600F019FB9DF8ED
S3150800C650021004460AF0ACF920B101211120F9F7BD
S3150800C66072FCE7E79DF8021020460AF0B6F901E0E9
S3150800C67000F004F8012005B0BDE8F08F9DF8001021
S3150800C6804046FBF715BF2DE9F64F85B082460521D2
S3150800C690FCF742F904465046FBF7D9FE0490C01D44
S3150800C6A0019000200599DFF88853029008708346A8
S3150800C6B0FAF775FEADF800008046DFF87813FF201C
S3150800C6C00870EF1C00F0C5F904280CBF4FF00109EB
S3150800C6D0D94600F0BEF906280CBF01260026E00957
S3150800C6E000F0010080F001008DF80C004FF67F7015
S3150800C6F0044000F0AEF9052808BF4FF6FF7825D0AC
S3150800C70000F0A7F9032802D056EA09001ED0012135
S3150800C7105046FBF742FF8346002201215046FBF7AD
S3150800C72053FFB9F1000F09D05846FBF790FE4FF6B4
S3150800C730FF7858B106990078087007E036B1584670
S3150800C740FBF785FE10B1FAF718FA804600F07EF975
S3150800C750C0074AD500F07AF9800708D5082604F4F8
S3150800C7604060B0F5406F0CD040F20B3107E002266E
S3150800C77004F44060B0F5006F03D040F20F3100F0CA
S3150800C78061F94146281DFAF7FEF9A81D02903246BE
S3150800C7900199F6F7ABFBA819871D01988019019036
S3150800C7A0BDF80000404508BF44F0400404D00146E7
S3150800C7B03846FAF7E8F9BF1C9A480078800748BF58
S3150800C7C044F4404404F44040B0F5404F06D10822F2
S3150800C7D08F493846F6F78AFB083706E0FAF7D5FD9B
S3150800C7E001463846FAF7CFF9BF1C00F02FF900F0DA
S3150800C7F0050004280ED05046FBF741FE0646504673
S3150800C80000F036F9301A210702D4C0B2672801DBD6
S3150800C81044F48054504600F03EF90199401A5FFAF4
S3150800C82080F842463846F6F761FB0198474480444B
S3150800C83000F00CF9C0073DD5E008C7F17D016A1C78
S3150800C84000F0010056180100029918BF123E00298F
S3150800C8500ED079490978029B81F0010108430090BE
S3150800C860F2B23946504607F086F98046B8F1FF0F0E
S3150800C8706ED0B8F1FE0F1BD101200090A6F112026E
S3150800C880029BD2B23946504607F075F9804644F401
S3150800C8908054B8F1FF0F44F0080459D005215046DA
S3150800C8A0FCF73AF840F0080205215046FCF744F830
S3150800C8B047440DE05046FBF7E2FD0499A0EB08005B
S3150800C8C00E18F6B2324641463846F6F70FFBBF1940
S3150800C8D0504606F0D0FB08B144F010042146681C07
S3150800C8E0FAF751F900F0B2F800F00500042804F050
S3150800C8F007060BD02EB951480178491C0170E9701A
S3150800C9000CE04F480178491C0170E970032E05D1E7
S3150800C91000F0A2F8284447494078087000F096F8D5
S3150800C92000F00500042858D0200756D509F004FE63
S3150800C93010F1010F0CD0012E0CD1FAF74AFD03288D
S3150800C94008D0B9F1000F05D100F083F8032801D00B
S3150800C950002059E000F07DF8032806D15846FBF779
S3150800C96076FD81460024002627E0B9F1000F05D0A0
S3150800C970DFF8A490FF260020102420E000F066F8D7
S3150800C980C00604D5FEF706FE814601260DE0684678
S3150800C990FEF7F5FD5FEA000903D14FF46C7100F06C
S3150800C9A051F8009800F07F00461C00F052F8082461
S3150800C9B0022802D1FFF7A3FB01E009F0B1FD0290BE
S3150800C9C0F6B20196002000902346781B411E4A467F
S3150800C9D0C9B2681C09F0C7FE07445FEA0B0004D019
S3150800C9E05A4601215046FBF7EFFD781B401C28707C
S3150800C9F0781B7F2803DB40F2D33100F023F8059932
S3150800CA00012008709DF80C0007B0BDE8F08F000003
S3150800CA10A4780020946901089C690108505E0020EA
S3150800CA201B6000207E7800207A780020E47F0020B2
S3150800CA30FE7E0020F95F00201C600020F27E0020A8
S3150800CA40F17E00200FF21800F6F758B9504600F0AC
S3150800CA502CB8504600F039B8681C10F0D7B9000059
S3150800CA6069702D6D61632D6865616465722E63005A
S3150800CA7080B5FBF7ECFC60B10178CA0705D4401D08
S3150800CA8010F0C4F9401DC0B202BD880701D50F20B9
S3150800CA9002BD092002BD38B50446FBF7D8FC054699
S3150800CAA02046FFF7E5FF284432BD0021FBF718BFF3
S3150800CAB00A460021FBF71BBF80B5FBF7C8FC18B177
S3150800CAC0017841F08001017001BD0421FBF708BF20
S3150800CAD00A46FFE70421FBF70ABF80B50521FBF7E5
S3150800CAE01BFF00F4406002BD38B50446FBF7AFFCF7
S3150800CAF005462046FFF7D9FFC00701D5E81D32BD18
S3150800CB0005F10A0032BD80B5FFF7EEFFBBE038B588
S3150800CB1004460D46FFF7E8FF2946FAF734F800F011
S3150800CB202AF84FF6FF718D4206BF4FF6DF7101EA0C
S3150800CB30000240F020022046BDE838400521FBF7F8
S3150800CB40FBBE10B50C46FFF7CFFF2146BDE81040E7
S3150800CB500822F6F7CBB938B504460D46FFF7BDFFF0
S3150800CB60A84207D000F007F84FF2FF31084045EA1F
S3150800CB700002E0E731BD05212046FBF7CDBE2DE9D1
S3150800CB80F04104460D46FFF790FF0646F00704D429
S3150800CB908B210FF25420F6F7B1F8B0071AD52046C4
S3150800CBA0FBF755FC80462046FBF769FC0746A0F1D3
S3150800CBB00F0292B208F10F0108F10900F6F796F98B
S3150800CBC0B91F89B22046FBF773FC06F0FD01204623
S3150800CBD0FFF76EFF4FF400612046FFF7BCFF4FF6E4
S3150800CBE0FE708542204607D1FFF75FFF40F020011F
S3150800CBF02046FFF75DFF0AE0FFF757FF00F0DF0169
S3150800CC002046FFF755FF29462046FFF780FF0120FB
S3150800CC10BDE8F08110B50446FFF75FFF48B1B0F5EF
S3150800CC20006F08D12046FFF76EFF4FF6FF71884266
S3150800CC3001D1012010BD002010BD80B50521FBF7EC
S3150800CC406BFE00F4404002BD38B50446FBF7FFFB17
S3150800CC5005462046FFF729FFC00701D5E81D32BD66
S3150800CC602046FFF718FF05462046FFF7E6FFB0F512
S3150800CC70404F0CBF6FF007006FF00100284432BD2B
S3150800CC8080B5FFF7E1FFBDE80240F9F773BF38B595
S3150800CC900446FFF70AFFC00703D5BDE83140FAF797
S3150800CCA07EBBFFF768FF05462046FBF7D0FB08303A
S3150800CCB0690611D44FF440410D4202D14FF6FF7078
S3150800CCC032BD05F44061B1F5006F08BF001D03D001
S3150800CCD0B1F5406F08BF0A30BDE83240F9F74ABFE0
S3150800CCE010B50446FFF7E1FE000703D52046BDE868
S3150800CCF01040C5E74FF6FE7010BD2DE9F0471D46FA
S3150800CD00012610B140F6010006E0002A1ABF0326E4
S3150800CD1040F6214040F62100002914BF4FF4404157
S3150800CD204FF4004141EA00080020FEF7CFFB18B196
S3150800CD3048F4805040F00808089C16F0020714BF13
S3150800CD400F2009202018002180B2FBF796FC8146A7
S3150800CD5008B3FBF794FB82464846FBF778FB524636
S3150800CD600021F6F725F931464846FFF7A1FE484661
S3150800CD70FBF76DFB461D41463046F9F704FFB01C2C
S3150800CD80002F14BF0823022325B12246294618443A
S3150800CD90F6F7ACF84846BDE8F087F8B504460D4600
S3150800CDA0681D002180B2FBF768FC060001D100204F
S3150800CDB0F2BDFBF764FB07463046FBF748FB3A46ED
S3150800CDC00021F6F7F5F804213046FFF771FE3CB16D
S3150800CDD03046FBF73CFB2A462146401DF6F786F807
S3150800CDE03046F2BD0000000069702D7061636B6506
S3150800CDF0742D6865616465722E63000000B583B0A2
S3150800CE0048B100F072F86846C17941F00201C17173
S3150800CE10F8F7AFFB07BDF8F7ABFB07BD80B5DFF842
S3150800CE20A80C4179092905D1032000F015FABDE8B7
S3150800CE30014081E107291ED0491E072915D8DFE8D8
S3150800CE4001F00A0406040D202011042000E0032046
S3150800CE50BDE8024000E2BDE8014052E2BDE80240FA
S3150800CE60072079E2BDE8014066E1BDE8044040F2EA
S3150800CE70753101F084BAC07A18B1BDE8014001F0F5
S3150800CE801BBA01BDDFF8400C4179072900D070476D
S3150800CE9080B5C07A032818BF07280ED1DFF8540CCE
S3150800CEA0008900F0F4FE08D0FEF757FFBDE80440FD
S3150800CEB09621DFF8F80C03F0AFBB01BDDFF8380C9C
S3150800CEC000B5007883B020B1DFF8E40CFEF7E6FB86
S3150800CED007BD00F00AF89DF8000000F0FD008DF887
S3150800CEE000006846FEF7DAFB07BD04216846F4F73A
S3150800CEF053BD2DE9F84304468846DFF8009C5E22B8
S3150800CF0000214846F6F754F8102200214846F6F75D
S3150800CF104FF805220FF25401DFF8AC5B0FF2540606
S3150800CF204846F5F7E3FF09F128070220F8700320C1
S3150800CF3038714FF6FF7038800020E8810DE018EA56
S3150800CF40000F09D0B078F27821184844F5F7CEFFDB
S3150800CF50E88931880843E881361D30880100EED11A
S3150800CF6094F82A00B870BDE8F1830000656D626523
S3150800CF7072000000010000100200100804002008DA
S3150800CF800800280210002B0120002C0140002D105B
S3150800CF908000180800013D2000015D010000000026
S3150800CFA038B504460D46FAF714FA20B1BDE8324002
S3150800CFB070200DF0E4BA00F009F800200DF0DFFA51
S3150800CFC029462046BDE834400CF02CBF29462046A9
S3150800CFD08FE7F8B500F08AF8002802BFDFF8FC0BE7
S3150800CFE000780C2826D100211020FBF746FBDFF835
S3150800CFF0D87A388208B918201DE000200DF08DFA7D
S3150800D00000210220FAF7E9F94FF6FB7000EA05015C
S3150800D010FFF7DDFFFEF72BF9388AFBF718FA10221F
S3150800D020FF21F5F7C5FF3146BDE8F8400522022085
S3150800D03003F0C2BB7020BDE8F24000F0BBBDF8B5F6
S3150800D040DFF8847A0446F8890D46160019BF00F001
S3150800D0504F014F2900F04700472801D0022019E068
S3150800D060FAF7B7F9002802BFDFF8700B00780C282A
S3150800D0700FD1DFF8880A80F82B502046FAF793F983
S3150800D0800120F8713E7200200DF04DFABDE8F1401E
S3150800D09052E07020BDE8F2400DF045BA70B500F0D8
S3150800D0A025F8002802BFDFF8340B00780C2818D1C1
S3150800D0B0FFF78CFFDFF8444ADFF80C5A94F92C0086
S3150800D0C0FAF771F9FEF7E8F86E611021204600F0CC
S3150800D0D0FDFC0020E87128720DF025FABDE87040C5
S3150800D0E02AE0BDE8704070200DF01DBA04460D46D2
S3150800D0F01646FAF76EB980B5FAF76BF9042802BF37
S3150800D100DFF8C409C07A002803D100F097FE002092
S3150800D11000E07020BDE802400DF009BA20F0800159
S3150800D120042900D0704780B50121F9F79FFFDFF881
S3150800D1308C1C0020087001BD80B5FFF7BFFEF8F70C
S3150800D14017FADFF8B80990F82B0020F080010429B7
S3150800D15008D101210320F9F789FFDFF8500A03F007
S3150800D160ABFA02E00121F9F781FF00F0C9FC0021C2
S3150800D1700220FAF732F9DFF8501902200871012067
S3150800D180BDE80240E8E038B50446DFF83C09008A05
S3150800D1900D46FBF75CF910B1204400F80B5C31BD75
S3150800D1A02DE9FC4106460F4690461C46FFF786FECB
S3150800D1B0DFF81459687920B1702000F0FBFC0020D4
S3150800D1C043E0FBF708FD3046FEF703FE3846FAF75C
S3150800D1D0EAF84046FAF7E5F80C98DFF84C6C0021B7
S3150800D1E0F9F744FF308840F0010030800020FAF754
S3150800D1F0CEF80899204600F069FC07206871308847
S3150800D20040F400403080A87B400704D5DFF8280C9E
S3150800D21000F02BFC04E0FFF768FE684600F025FCEA
S3150800D2200A98FBF7C5FF0B98FBF7E6FFFAF741FBF1
S3150800D23001200CF091FDDFF88C088078FFF7DEFD01
S3150800D240FAF76AFB00F02EF90120BDE8F681DFF84F
S3150800D250781807204871704770B5DFF86C4866790A
S3150800D260054600F04DFC012E08D12079010005D0B5
S3150800D270401E20710120BDE870406DE0A0790100D4
S3150800D28012D0401EA071F7F755FEDFF838582978F6
S3150800D29000F034FF05F1080003F0BEF908206071BC
S3150800D2A028788000287070BDDFF8500890F82B00A9
S3150800D2B0FFF734FFF8F75CF929460020FAF78DF8EE
S3150800D2C0BDE8704000F065BD10B50C468AB0014651
S3150800D2D008226846F9F7C3FC2022002102A8F5F7C0
S3150800D2E067FE02AA082168460FF024FA082202A956
S3150800D2F02046F9F7B4FCE07940F00200E0710AB084
S3150800D30010BD10B5DFF8C047607A401CC0B21B28B4
S3150800D3100EDA6169C140C907F7D56072FEF759FD93
S3150800D320E07958B900F0C9FB072807D0012206E0C2
S3150800D330BDE810400022032100203DE20022002122
S3150800D340002005F0C6FABDE810404FF49671DFF8E4
S3150800D350740C03F061B900002DE9FF4106466846E2
S3150800D36000F013FCDFF85C47DFF85C57DFF88C77D2
S3150800D370DFF8248C00F005FC6E7107F12806687941
S3150800D380401E062800F28780DFE800F0041F505C84
S3150800D3905F8566004FF6FF776078E78078B130885A
S3150800D3A001E0F7F7C7FDB842FBD0F9F7FAFFA07816
S3150800D3B0FFF724FD0A206872FFF7A3FF70E069698A
S3150800D3C00522032003F0F8F96AE0DFF8FC1BE07891
S3150800D3D009780840DFF85C1A097808420AD0A86973
S3150800D3E020B94FF442714046F5F788FCA9696846AA
S3150800D3F0884755E00022082105F12C00F9F720FCA2
S3150800D40028B105F12C01DFF8A807FFF75DFF05F144
S3150800D4102C00F8F7AEF897F85D30298807F13D0239
S3150800D420684608F08CFBDFF8D01C10E001200BF0F2
S3150800D430D6F920B940F227314046F5F75FFC42F6A7
S3150800D440E06104E041F2883101E04FF4967104F19D
S3150800D450080003F0E1F823E000F09BFC00F02DFB48
S3150800D460062807D100F01EF801220021002005F049
S3150800D4706DF80DE0072802D100F014F808E0A0784E
S3150800D480FFF7BCFCF078FFF749FE172000F0D6FC42
S3150800D490FAF742FA04E04FF454714046F5F72EFCC9
S3150800D4A0BDE8FF8100210320F9F797BF2DE9F04178
S3150800D4B092B080460FF09CFC05464046FAF7DFFF1F
S3150800D4C0441B4046FAF7C3FF0619F6B21A2EC0F2F5
S3150800D4D08E804046FFF7B1FBB0F5004F78D0404646
S3150800D4E0FFF7ABFBB0F5004F72D042220021684629
S3150800D4F0F5F75EFD08AC2878A07040466F78FFF710
S3150800D500A3FB0146082206A8F5F7F0FC1022A91C81
S3150800D5106846F5F7EBFC082205F1120104A8F5F7B1
S3150800D520E5FC03214046FBF7DBF9E07001214046A4
S3150800D530FBF7D6F9607102214046FBF7D1F9A071D5
S3150800D5404046FAF784FF0830F9F714FBADF82000D7
S3150800D55007F001002071F80800F001008DF840007E
S3150800D5603809E07105F11A073544381DA8420AD270
S3150800D5703878122804BF7878022804D1B81CF9F73D
S3150800D580F9FAA0833F1D381DA8420AD238780F2819
S3150800D59004BF7878022804D1B81CF9F7EBFAE083BF
S3150800D5A03F1DB81CA8420BD23878082808D17A78CB
S3150800D5B0112A05D2A276B91C0DF12A00F5F796FCB8
S3150800D5C0DFF804054079012803D1684600F013F80E
S3150800D5D00DE0DFF808060078012803D1684610F048
S3150800D5E0C5FA04E0052804BF68460AF042FA12B0F4
S3150800D5F0BDE8F08100BF2DE9F84FDFF8C894DFF8E1
S3150800D600C8448046B9F8060008F1200700F03FFB39
S3150800D61094F9020097F906100CBF4FF0010A4FF073
S3150800D620000A8842F879B4BF01250025421E9241B6
S3150800D630D20F8DF80120E1784A1E9241DFF8741C5A
S3150800D6400978D20F8DF80020062962790CBF0126C9
S3150800D6500026012A09D1022807DBB878032804D155
S3150800D660072903D198F8400078B989E0387938B1A4
S3150800D670B97E080004D008F12A0009F015FC20B983
S3150800D680A07B00F0470047287AD10022082104F140
S3150800D6902400F9F7D5FA78B90022082108F118000C
S3150800D6A0F9F7CEFA40B9082208F1180104F1240066
S3150800D6B0F5F785FC002863D1A07BDFF840B4C007E6
S3150800D6C00CD5002210215846F9F7BAFA30B91022BB
S3150800D6D041465846F5F773FC002851D1A07B400710
S3150800D6E00CD5002208210BF12000F9F7A9FA28B970
S3150800D6F000F048F8F5F763FC002841D1A17B09073B
S3150800D7000BF1280003D501883A88914238D19DF853
S3150800D71001109DF800209DF8003029403243114041
S3150800D7209DF80120324382F001022B4341EA0A01A7
S3150800D7301A40114324D0F9788170B979A1703988D3
S3150800D7400180414600F0B9F907280CBFF88BB88B61
S3150800D75020801022F879E0705846F5F7C7FB00F0EC
S3150800D76011F8F5F7C3FB4FF6FE70A9F8060008F1A5
S3150800D770180104F11C00BDE8F84F0822F5F7B6BBFE
S3150800D780BDE8F18F082208F110010BF1200070475F
S3150800D79038B5DFF8684304F12805A878FEF719FBC1
S3150800D7A02888F9F7FEFD04F1200000F05EF920460E
S3150800D7B0BDE83440102189E1F0B5020085B040F09B
S3150800D7C09180C14DCD4C6879012833D100220821BA
S3150800D7D005F11C00F9F734FAB8B9FFF7D9FFE8796B
S3150800D7E070B100F06AF9062808D10022082104F170
S3150800D7F01800F9F725FA08B1062002E0072000E02C
S3150800D800022005B0BDE8F040A6E5287A68B1FFF722
S3150800D810BFFF10F088FA01200CF09EFA0720687105
S3150800D82005B0BDE8F04000F0D9BC05B0BDE8F04051
S3150800D830022011E5022903D105B0BDE8F040CFE189
S3150800D840042904D105B0BDE8F0400AF09DB80329C3
S3150800D85041D1288AFAF7FBFDEB8903F00806320066
S3150800D86004F128014FF6FF770FD14FF0000C00287E
S3150800D8701CBF30F81C20BA4208D10CF101025FFA2D
S3150800D88082FCBCF1080FF2DB1CE00A88BA4218D009
S3150800D89018064CBF04F11800002003909B074CBFE4
S3150800D8A004F1100300230020019002931020009039
S3150800D8B02346CE7891F90410A87A0496FFF770FCEF
S3150800D8C016E01EB905B0BDE8F040C3E105B0BDE8F5
S3150800D8D0F04070206EE105290AD105B0BDE8F04098
S3150800D8E00AF0EAB8022903D105B0BDE8F04061E1C3
S3150800D8F005B0F0BD74484079062804BF0720FFF735
S3150800D9002BBD704738B5704D0446687903280DD18C
S3150800D91007F0E6FE1CB1BDE8324004201CE50920EC
S3150800D92068714FF4FA61BDE8344010E531BD6648C8
S3150800D9304079022804BF0420FFF78EBC7047DFF841
S3150800D940741C4A78002814BF42F0010002F0FE0059
S3150800D95048707047DFF85C0C40786BE070B50C00D7
S3150800D96086B00646DFF8085C03D11A202870002026
S3150800D9703DE068461421FEF7C7FB112CA8BF10240A
S3150800D98008208DF800008DF80140224631460DF139
S3150800D9900200F5F7ABFADFF81C6CA21C92B26946D6
S3150800D9A006F11A00F5F7A2FA3019122100F81C1F21
S3150800D9B002214170DFF8181C0A88120A8270098849
S3150800D9C0C170717809070ED50F21017102214171C5
S3150800D9D0DFF8EC1C0A88120A82710988C17170780E
S3150800D9E0000748BF241D04F1200028700120FFF716
S3150800D9F0A6FF06B070BD10B5040004D0F9F7E9FC1F
S3150800DA0008B1702003E0204600F005F80020BDE8C4
S3150800DA101040F8F795BADFF89C1B4A78002814BF1F
S3150800DA2042F0080002F0F70048707047DFF8840BF0
S3150800DA304078C00800F00100704780B52248407958
S3150800DA40022818BF03280CD007280CD1DFF8640B6E
S3150800DA504078C00705D40BF07BFA90F856004006CC
S3150800DA6001D5012002BD002002BD01460822DFF8CB
S3150800DA70640CF5F73BBA10B5DFF8AC432088000410
S3150800DA8003D440F2375100F0A1FBDFF8E41A1A205C
S3150800DA9008700321DFF81C0B0170417841F0200162
S3150800DAA041702078C00703D400F007F8022803D194
S3150800DAB0BDE8104008F0EEBA10BDDFF8F8070078A8
S3150800DAC070470000085E00209479002070B50D4666
S3150800DAD0112D0446A8BF1025DFF8D86A10220021A8
S3150800DAE0B01CF5F765FA2A462146B01CBDE8704019
S3150800DAF0F5F7FCB9D8790020CC7F002034790020CE
S3150800DB0038B5DFF8D45BDFF8244400206871E87282
S3150800DB104FF6FE70F9F73BFC09F01BFA4FF6FF705B
S3150800DB20E0800822002105F11C00F5F741FAFF20E4
S3150800DB3020710020DFF8A41BBB4D08702888C0F3AD
S3150800DB400E00288005F0F3FC03F0F7F8DFF8901BC9
S3150800DB500020087008F08AF8FCF799FFFDF773FAB9
S3150800DB6009F045F808F0BAFA0020FFF7E8FE0120A8
S3150800DB70207000F006F828884FF6FE7108402880C5
S3150800DB8031BD04F1080002F097BD80B5DFF89C139B
S3150800DB90C9884FF6FF72914201D1002002BD0146A5
S3150800DBA0DFF8400BFDF717FE012002BD1C5E0020C2
S3150800DBB09C78002010B50446DFF81C1B002008825C
S3150800DBC0F9F707FC20B92046BDE810400CF0A5BCC3
S3150800DBD0BDE8104001210020F9F7FFBB505E002088
S3150800DBE0F8B5DFF8F45A288AFAF731FCFF2400273B
S3150800DBF0060014D00020315CA21F9142BCBF8C1DC8
S3150800DC00E4B2401C1028F6DB0020315CA142BCBF00
S3150800DC107F1CFFB2401C1028F7DB380003D1BDE893
S3150800DC20F2400120C6E7F7F785F990FBF7F107FB05
S3150800DC301101C9B20020325CA24206DA0A0002D1FA
S3150800DC400B30A87204E0491EC9B2401C1028F2DB4A
S3150800DC50BDE8F14070B5DFF8804A208AFAF7F7FB8D
S3150800DC6005460026F7F766F900F011F81EBF002DE5
S3150800DC7025F81600761C082EF4DBA17ABDE870405C
S3150800DC80012000FA01F10522032002F095BD4FF6A6
S3150800DC90FF718842704770B5044620000FBFDFF851
S3150800DCA0480A0120A0400843DFF82C1A98B0154608
S3150800DCB048611E465E2200216846F5F779F91E99E5
S3150800DCC0082208A8F5F712F9324629466846F5F7F4
S3150800DCD00DF91F9E102231460DF12D00F5F706F9B4
S3150800DCE01D9D0822294604A8F5F700F920998DF804
S3150800DCF02A403046FDF760FB2846FBF759FA1C9880
S3150800DD0047214FF6FF7290421CBFADF828004F21FD
S3150800DD106846FFF745F918B070BD01461022DFF8CE
S3150800DD20CC09F5F7E3B838B50446DFF8AC5900F086
S3150800DD301CF820B12046BDE8324010F01ABB05F1A8
S3150800DD40340032BD38B5DFF890590446687904289E
S3150800DD5002D100F00AF810B16879072804D12046E4
S3150800DD60BDE8324000F04CBD31BD0022102105F15E
S3150800DD703400F8F765BFDFF83C050078072805D0BA
S3150800DD80DFF854094079022802D10320FFF7E4BAE4
S3150800DD90704710220021DFF85409F5F709B980B554
S3150800DDA0FFF7F7FFDFF830094079042804D1BDE80A
S3150800DDB002400520FFF7D0BA01BD0000E97F002028
S3150800DDC010B55A4C60791B2811DB0B20607104F1E1
S3150800DDD0200002F071FC00F0F0F8DFF8FC180020D3
S3150800DDE0C8720021BDE810400420F9F7F6BA0BF016
S3150800DDF0AFF85A3009F066FD01466079C140C90797
S3150800DE0048BF04F0F2FC6079401C6071322104F1CD
S3150800DE102000BDE8104002F0FFBB80B5FDF7D6FF35
S3150800DE20DFF8B418087301BD7E780020DFF8C4084F
S3150800DE3070470000E07F002054790020002100E0B0
S3150800DE4001212DE9F041DFF890680446707907282A
S3150800DE500D464ED1F07ADFF8D48001000AD00628A4
S3150800DE6018BF072845D108F10800BDE8F041002190
S3150800DE7002F0D2BBDFF880783878002814BF00207B
S3150800DE800220B071280028D100F0B9FB0720707174
S3150800DE90DFF868080188C1F30E01018000F02BF84D
S3150800DEA04FF6FF70A8F80600DFF808040078022885
S3150800DEB018BFF6F77DF80822002106F11C00F5F7D1
S3150800DEC077F8387848B907F0D1FEDFF8101800203F
S3150800DED008704FF6FE70F9F75AFADFF814688022D0
S3150800DEE000213046F5F764F8B4703571BDE8F041A5
S3150800DEF01EE0BDE8F08180B509F02BF805F017FBA8
S3150800DF0002F01BFFDFF8D81700200870FCF7BFFDEA
S3150800DF10FDF799F808F06BFE08F0E0F8DFF8DC0783
S3150800DF2001884FF6FE721140018001BD085E00208F
S3150800DF3038B5DFF8A417A44CDFF8B4570020C87228
S3150800DF40FF202071FFF71DFE0120687008220220BD
S3150800DF50287000214FF6FF702881A5F8440005F1C6
S3150800DF600A00F5F725F8FFF7A8FDE87020F080000D
S3150800DF70042807D101210320F9F778F804F11400E1
S3150800DF8002F09AFBDFF870070078BDE832400028F7
S3150800DF9014BF02200120B9E024E7000880B5DFF8A5
S3150800DFA0600702F089FB00F008F8DFF82C1700205C
S3150800DFB0C8721220BDE8024040E7DFF83407C0788F
S3150800DFC0FFF7ACB8105E0020287D00202DE9F0414F
S3150800DFD0DFF80457DFF81847EF7A0AF0B9FF002888
S3150800DFE00FBF012690F85600400900F00106207977
S3150800DFF010B10020E8727CE0022FDFF8CC8121D135
S3150800E0002078010032D0401EDFF8EC162070C0B22E
S3150800E010097880B900291EBFDFF8E80600780028CD
S3150800E02003D007F023FE022020700020DFF8AC168C
S3150800E0300870012003E0002914BF02200120BDE872
S3150800E040F04163E0A879010018BF012F0ED0401EE9
S3150800E050A871F6F76FFF617800F050F800F0BAF88B
S3150800E0600420E87260788000607042E0F9F7B1F940
S3150800E070052804BFA078142808D10BF07DFD28B127
S3150800E0800020E8720BF017FD15200BE0F9F7A1F94F
S3150800E09005280AD10AF096FF38B10020E8720BF07D
S3150800E0A010FD1620BDE8F041C8E6F9F792F90528F3
S3150800E0B012D1FFF702FD022818BF06280CD15EB15F
S3150800E0C00FF031FE0020E872F9F726FCBDE8F041B2
S3150800E0D000210320F9F781B9FBF723FAFAF784FD43
S3150800E0E00820E872002108F12000BDE8F04102F09E
S3150800E0F093BABDE8F0810000400D03004FF47A7230
S3150800E100514390FBF1F201FB120170472DE9F041F2
S3150800E1100646DFF8B48086B008F1080002F0CCFAAB
S3150800E120DFF8B455012EEE7204D045D3032E0FD076
S3150800E13006D341E0002004F059FA40F2EE2104E04B
S3150800E140012004F053FA40F2E24100F043F837E0C8
S3150800E150DFF89C6501A906F10A00FDF73CFB41F6CC
S3150800E160583100F037F8F41C524F2078FEF7D6FFE6
S3150800E1703878042808D1DFF8901501200870962110
S3150800E18008F1140002F048FA607830B9082206F15E
S3150800E1900A0105F11C00F4F7A9FE387896F8312033
S3150800E1A004280CBF012300230020009006F121015A
S3150800E1B001A804F08EFA03E040F6180100F006F80C
S3150800E1C006B0BDE8F0810000085E00200FF254504A
S3150800E1D0F4F794BD08F1080002F01EBA2DE9F041E3
S3150800E1E0344D2878062882B003D140F61E01FFF781
S3150800E1F0EDFFDFF8E444DFF81465DFF8F484002067
S3150800E200E07208F1020706F1080002F055FAFFF776
S3150800E21049F9B87818B1FFF76EFE07F027FDDFF861
S3150800E220C004007868B9F88808F10A010CF01BFCEC
S3150800E23008F134010A7B8B6800924A6809680DF078
S3150800E240ABF82878042804D1DFF8BC14002008703D
S3150800E25012E002280CD1DFF8A4040078C00758BFE2
S3150800E260F8F772FB387810F09EF90FF046FD03E0D8
S3150800E270032808BFF8F768FBF9F74EFB3878122829
S3150800E28006D10B20707106F1200002F015FA0CE099
S3150800E29011280AD1FDF79AFD0146207B884204D051
S3150800E2A04FF47A7203210AF06DFFBDE8F3410AF0D4
S3150800E2B08DBE00007A78002070B5DFF81C44DFF8C0
S3150800E2C03004E17A491E062900F108054FF6FF7663
S3150800E2D051D8DFE801F025393E1950040C0000201A
S3150800E2E0E0724FF6FE70DFF82814088008E0DFF8C1
S3150800E2F01C5405F1140002F0DFF9EE800020E072EC
S3150800E3001420BDE8704099E5C01C417811B1002081
S3150800E310E07270BD0078FEF701FFBDE8704007E6C1
S3150800E3202888B0420ED0A87C022803DA287E202846
S3150800E33008DB01E003281ADADFF8D813287E097803
S3150800E340884214D2022013E02888B0420FD1022056
S3150800E35003E0A98FB14203D10320BDE8704035E63A
S3150800E36000F144013C222846F4F7C0FDAE8703209D
S3150800E370BDE87040CAE6BDE8704040F6AB010FF252
S3150800E380A430F4F7BBBCD449C97A032905D10028BF
S3150800E39018BFFFF723BF032018E6704738B50D46A8
S3150800E3A004462888FFF773FC27D02B7E217E05F1CB
S3150800E3B0130204F113000FF039FD10B101281EDB1A
S3150800E3C01BE0A17CA87C884221D12888C0F30900DB
S3150800E3D0411E20888941C0F30902501E8041C00FA2
S3150800E3E0B0EBD17F15D1E868E26801021302090E85
S3150800E3F01B0E8B4205D0994201DA012032BD00205E
S3150800E40032BD0BB9904202D1298A228A91428041B3
S3150800E410C00F32BD70B5154682B004461E463C2272
S3150800E420F4F764FD2846FEF70FFC01460822A01CF7
S3150800E430F4F75CFDB27B716B04F11900F4F756FD35
S3150800E440B07B84F829000020B16EF8F7C3FB44F8C6
S3150800E4502C0F0020F16EF8F7BDFB60606846FDF7EB
S3150800E46035F828B170680099814238BFFCF7C5FFB6
S3150800E4707068A060B07C207373BD2DE9F04F8B46A1
S3150800E4800BF11C0691B08046B06D01900221404602
S3150800E4900BF1C004FAF724FA256807462946002036
S3150800E4A0F8F798FB814695F806A06A7901985146CF
S3150800E4B00FF0F5FC10B9FAF7A1FF55E0308801997D
S3150800E4C0ADF8080005220DF11B00F4F70FFD8DF8D5
S3150800E4D020A078B20CF04DFE07460CF072FE2479A7
S3150800E4E0824620460CF06DFE0546308880050BD125
S3150800E4F089480268100007D069460BF11300904757
S3150800E50010B19DF8000003E05046A84288BF28468F
S3150800E5108DF81A00E019ADF8180029F07F4005902B
S3150800E5209DF81A0000B3724E06F1080102A8FFF71B
S3150800E53035FF60B13C2206F1080106F14400F4F704
S3150800E540D5FC5B46424602A906F108000AE006F138
S3150800E550440102A8FFF722FF30B15B46424602A9F2
S3150800E56006F14400FFF756FF11B0BDE8F08F000032
S3150800E5701C7C002070B5044608465749C97A032909
S3150800E58015460CD15A4E082206F10A01F4F717FD72
S3150800E59028B9F06BA84204D1706B844205D20020DA
S3150800E5A070BD3CBF281A4028F9D27463F563012070
S3150800E5B070BD0000207C00204D48836B934201D338
S3150800E5C0002070470181511C8163012070470000BB
S3150800E5D0E65F002080B5F8F7D8FE4D49088000F0C0
S3150800E5E00EF83D48072141710621C17240F2DC51FF
S3150800E5F04A4802F011F8BDE8014003F0CDBF0021FA
S3150800E6000520F8F7EABE7FB53348C17A062927D12F
S3150800E6100021C17200253948414E018841F4004164
S3150800E62041F00101018003200021F8F7D6FE3B489E
S3150800E63002F042F8F5F70BFD07F02CFDF5F7CAFDD9
S3150800E64004460AE03268694602EBC500FDF7C3F8DE
S3150800E6500221684604F0DDF86D1CEDB2A542F1DB37
S3150800E6607FBD10B5FFF7CBFF1B48284C072141712A
S3150800E670C172F8F78AFE00F47C40E080FFF71DFAC5
S3150800E680042804D1002104F1140001F0C5FF04F0A8
S3150800E690E7F804F10800BDE8104040F2DC5101F04B
S3150800E6A0BBBF80B50C48C17A072908D10021C172C1
S3150800E6B0FEF7F9FEBDE80240184801F0FDBF01BDAE
S3150800E6C0E85F00200448C07A072804BF0A20FFF73D
S3150800E6D07DBC7047327C002094790020DA7B0020CC
S3150800E6E0D97B0020B079002000F8FF07C879002000
S3150800E6F0D8790020E2790020E87C00207E78002086
S3150800E700285E00207E7D0020E97F0020085E00202C
S3150800E710F05E0020D95E0020E47C0020105E002018
S3150800E720A85C00206A6F696E2E63000070B50AF057
S3150800E7300FFC304C90F8560000074CBF2578002592
S3150800E74028460EF019FB06000BD00EF051FB2A46A0
S3150800E750211DF4F7CBFB3046BDE870400121FDF7DB
S3150800E760DABA70BD30B585B00446F9F770FE451DB6
S3150800E77028460EF04BFB285C072821D1F8F705FE42
S3150800E7804FF6FF7188421EBF1B4C207803282ED0F7
S3150800E790042818BF07282AD0184D284601F098FEE5
S3150800E7A028BB2078062802D0FAF728FEF8B1F6F733
S3150800E7B0C1FB00F07F00411C284601F02DFF16E042
S3150800E7C0042814D12046FEF738FAB0F5404F204603
S3150800E7D005D1FEF739FA6946FCF7FDFF04E0FEF7B6
S3150800E7E04FFA6946FCF7D1FF684604F061F805B0B0
S3150800E7F030BD00001C7C00207A780020845E002052
S3150800E8002DE9F04794B080460121FAF769F8824667
S3150800E81002214046DFF8747CFAF762F83870404601
S3150800E820FEF753F9072804BF97F90000F7F79AFB94
S3150800E83001F057F800F00500042803D14046F7F721
S3150800E8408EFBDDE005214046FAF766F80006C00EA5
S3150800E85010F0010533D040460CF004FB0CF030FDF7
S3150800E860694640460FF021F948B3F8F78EFDBDF822
S3150800E870041081422ED14046F9F7E9FD814640460B
S3150800E880FEF7F6F804464046F9F7F9FD9DF800103C
S3150800E890001B461AF6B209EB040032460144F4F7A7
S3150800E8A025FB311989B24046F9F702FEBDF8021078
S3150800E8B04046FEF72CF901F014F801F00DF8404631
S3150800E8C004F018FF10B3404604F028FF5FEA00087A
S3150800E8D013D195E09DF801000228FADB40460FF0B7
S3150800E8E00AF94FF6FE714046FEF749F90023002261
S3150800E8F0FF21404600F08BFC82E052460121F9F7E1
S3150800E900F6FF3A7802214046F9F7F1FF02A9404698
S3150800E9100FF0A8F8002873D00DF11300FAF7FDFBE5
S3150800E92000286DD1002210210DF12300F8F788F98F
S3150800E930002865D19DF82300FF280CBF142012205B
S3150800E9400121F7F700FB25B102A9404600F03FF97F
S3150800E95056E0DFF8745C287850B102A800F079F820
S3150800E96030B16A6810004BD041460020904747E016
S3150800E9709DF83800112843D102A80DF061F9002846
S3150800E9803ED0DFF8482CBDF84C00128890421EBFD6
S3150800E990DFF83C2C128890421EBFDFF8382C12880C
S3150800E9A0904219D10DF12300FCF724FF40B30DF175
S3150800E9B02B00FCF7A0FE20B90DF12B00FCF7BFFEDB
S3150800E9C0F0B10DF11300FCF715FFC8B1002202A93A
S3150800E9D0404606F09DFE13E044F64C5188420FD19E
S3150800E9E09DF82300FF280CBF0022424602A9404694
S3150800E9F002F032FB20B140460CF034FA0CF060FC11
S3150800EA0014B0BDE8F087F0B593B00FF20C64DFF8E8
S3150800EA107C5ADFF8B46C15E000213046F9F782F825
S3150800EA2007466FF07F002870694638460FF01AF8D7
S3150800EA3020B940F209112046F4F760F969463846CC
S3150800EA4000F0C5F83046F9F71FF80028E4D013B0EF
S3150800EA50F0BD38B5DFF8744C218801B300F13005F4
S3150800EA602978112909D10DF0EBF830B12088698A87
S3150800EA7081421CBFA98A81420FD0287806280ED168
S3150800EA806868F8F77AF82188884206D06868801C92
S3150800EA90F8F773F82188884201D1012032BD002099
S3150800EAA032BD2DE9F041DFF8204B0546207894B0B9
S3150800EAB08846B0B32846FEF708F8032831D008F18F
S3150800EAC01B0708F13406787D3A280DD1306800789E
S3150800EAD0B074643825D02138032822D9163820D0B6
S3150800EAE0801E01281DD911E011280FD140460DF0CE
S3150800EAF0A7F858B1308A44F64C5188421FBF40F2F5
S3150800EB00222188424FF2BF0188420AD06946384618
S3150800EB10FCF742FE38B1F8F738FCBDF80010884219
S3150800EB2001D100201AE03878FF280CD12846F9F7D9
S3150800EB30E6FE050011D001A90EF094FF01A92846AA
S3150800EB4000F055FD03E04146284600F050FD626896
S3150800EB50100002D0294600209047012014B0BDE8D5
S3150800EB60F0812DE9F04780460D46FDF794FF0646ED
S3150800EB70686BB11D471A4046F9F781FC0446301DFB
S3150800EB80F7F7FBFF81464046F9F761FC696B611AA6
S3150800EB9000EB010AE86A2838B11D8842BFB203D0E3
S3150800EBA040F2671100F034FA696B1FFA8AF2B01D59
S3150800EBB0F4F79CF9E11B89B24046F9F779FC301D58
S3150800EBC0A9EB0701BDE8F04789B2F7F7E0BF2DE9E1
S3150800EBD0F84380468946FEF783F80646484607F016
S3150800EBE04DFFC8B94FF6FE75AE42DFF8A078DFF8DC
S3150800EBF0B44C03D009F10B0020607E80494640469C
S3150800EC0000F00CF8002121607D8028B14946404675
S3150800EC1000F004F80028F9D1BDE8F1832DE9F04F9A
S3150800EC2082468B4697B00BF11B00FCF708FE06469A
S3150800EC300BF11B000FF040FD814666B95046FDF703
S3150800EC4034FF000707D50BF11B00F5F74CFEFF282C
S3150800EC5018BF012500D100255046FDF726FF0007FD
S3150800EC600BF10907DFF8244818D5002E08BF002D38
S3150800EC7014D1B87CFF2811D00BF11B010BF10B0046
S3150800EC80FBF709FF50B960886946FCF77EFD5346D5
S3150800EC906A46002101200FF0E5FE01E155EA06006B
S3150800ECA04FF6FE782AD05046FEF71AF8054645452F
S3150800ECB009D15046FDF7C1FFB0F5004F03D15046C4
S3150800ECC0FDF721FF0546454518D0284607F013F8F5
S3150800ECD018B12846F5F756FD80B10BF10B00FCF785
S3150800ECE075FD20B90BF10B00FAF7D5FE30B10123FB
S3150800ECF02A460BF113010020FCF750F95046FDF7A0
S3150800ED009CFFFF25B0F5404F504604D1FDF79CFF08
S3150800ED1000F001FB09E0FDF790FFB0F5004F05D1C3
S3150800ED205046FDF7ADFFF5F7EDF8054694F90010E6
S3150800ED302846F5F75EFB59EA06004DD00BF12C0084
S3150800ED40017929293ED13978002902BF00688078DF
S3150800ED506D282DD15046F9F792FB0021F9F78DFC65
S3150800ED600028814699D05046F9F789FB0446504653
S3150800ED70F9F76DFB05464846F9F769FB2246294629
S3150800ED80F4F7B4F804A948460EF06CFE04A9484600
S3150800ED90FFF7E7FE04A948460EF064FE04A94846B4
S3150800EDA0FFF77FFE30BB04A9484600F0A0F821E033
S3150800EDB059465046FFF7D5FE594650460EF052FEC4
S3150800EDC001206EE059465046FFF76BFE90B959464A
S3150800EDD0504600F08CF80DE0DFF8CC0A00780228DF
S3150800EDE008D17878022805DA5B46524600210320C6
S3150800EDF00FF022FE00F045FB00F0010080F0010054
S3150800EE0030434DD1787802284ADB0BF10B00FCF72A
S3150800EE10F1FC002844D10BF11B00FCF7EBFC0028A1
S3150800EE203ED1002210210BF10B00F7F709FF00284D
S3150800EE3036D10BF11B00FCF72DFD88BB0BF11B002F
S3150800EE40FCF72FFD60BB0BF11B00FCF703FD38BB7D
S3150800EE507878401E7870514658460EF00DFE50469A
S3150800EE60FDF72AFEB87CFF2810D14FF6FF715046F1
S3150800EE70FDF785FEF6F75EF8DFF8302A12780121ED
S3150800EE809140491E01EA0003022205E04146504628
S3150800EE90FDF775FE0023FF225946504600F08DF90E
S3150800EEA0002017B0BDE8F08FF8B504460121F9F740
S3150800EEB074FBDFF8145810B90022214611E001212D
S3150800EEC02046F9F7A9FB06460021F9F7D6FB070005
S3150800EED00CD0F9F7BCFA32462146F9F74CFC002269
S3150800EEE039462846BDE8F840F8F7EBBDF1BDF8B558
S3150800EEF00D4605F13006044637783A2F13D0112F00
S3150800EF000FD17068801DF7F738FE60B92888B0F50C
S3150800EF10A06F0FDD2B462246002102200FF08CFD44
S3150800EF20F1BD062FF2D1294620460CF0BFFD002878
S3150800EF30ECD0F1BD694605F11B00FCF72DFC08B3C2
S3150800EF40BDF80000DFF86819081808281AD2112F2A
S3150800EF505DD1DFF86019BDF80000097800F00700F8
S3150800EF6001F00701884252D1F8F70FFADFF848197D
S3150800EF70098888424BD128460CF062FE284609F0DB
S3150800EF8072FAF1BD062F39D0112F15D0292F3AD094
S3150800EF903A2F3CD12888042839DB70680078B07588
S3150800EFA0042170684078F07528460CF039FD29462A
S3150800EFB0204600F054F8F1BD28460CF041FE30B367
S3150800EFC02046FDF782FD032804D1294620460FF086
S3150800EFD043F9F1BDB08A44F64C51884209D1E87E1E
S3150800EFE0FF280CBF002222462946204602F034F8A4
S3150800EFF0F1BD2946204605F097F8F1BD2946204679
S3150800F0000FF057FDF1BD40F2772100F001F8F1BD90
S3150800F0100FF20400F3F772BE646973706174636873
S3150800F0202E63000070B50D460446E86BB0B1204665
S3150800F030F9F70DFA06462046F9F721FAEA6BB5F80C
S3150800F04040103044801A814203D040F28221FFF7F3
S3150800F050DFFF2846BDE870400BF004BA70BD2DE905
S3150800F060F041884608F13C0598B00646286800280D
S3150800F07078D0A97A012956D080296FD141463046E1
S3150800F080FFF7D0FF08F11B00FCF7D9FB070008D0F3
S3150800F090102208F11B010DF12300F3F727FF0024C6
S3150800F0A000E008243046FDF700FDC00648BF44F0DE
S3150800F0B020043046FDF7F9FCDFF800683388C006FF
S3150800F0C0A88848BF44F02004834208D2C21A286898
S3150800F0D092B200211844F3F76BFF3088A880002FFE
S3150800F0E0A888059014BF08F11B030023286804901C
S3150800F0F022460020039000218120029040200190A2
S3150800F10008F10B00009006A80CF0BCFD040029D0FD
S3150800F110FDF7D2FC00200090FF23012206A9204615
S3150800F12000F023F81EE000F11C056A4680212846F7
S3150800F130F9F71DFDB0B100F0A4F9000712D50021BA
S3150800F1402846FCF729FB68B99DF800000123002230
S3150800F15005F10801FBF7F6FF012803D141463046C1
S3150800F160FFF760FF18B0BDE8F081F8B504460D4614
S3150800F17016461F460CF0ECFC05F11B00FCF75FFB7E
S3150800F18020B905F11B00FCF785FB30B11EB100F074
S3150800F190C6F80120F2BD0020F2BD36B105F11B000C
S3150800F1A00FF08AFA08B100F0BAF8069B3A462946E3
S3150800F1B0204601B0BDE8F040FFE7F8B5044601F186
S3150800F1C01B0715461E463846FCF744FB18B9384651
S3150800F1D0FCF750FB28B1F87B012804BF20460DF048
S3150800F1E0C9FB3846FCF75DFB18B93846FCF732FB15
S3150800F1F010B1FF2D08BF002532462946387801B0E0
S3150800F200FF282046BDE8F0400CBF012300232DE966
S3150800F210F0410D46FF2D92B0044616461F4608BF1C
S3150800F2200225FDF742FCC0074FF6FE781CD520469E
S3150800F230FDF753FCB0F5006F16D100F029F94045EB
S3150800F24004D02046FDF731FC80060DD50021204666
S3150800F25000F03EFA00285BD0012805D117220621C6
S3150800F260204604F04BF92FE0002F14BF1520132079
S3150800F2700121F6F768FE05212046F9F74DFB000740
S3150800F2800CD4694620460EF0EDFB38B16846FFF708
S3150800F290E0FB00F0010080F0010700E001272046AE
S3150800F2A0FDF71BFCB0F5006F03D0B0F5406F13D027
S3150800F2B029E000F0EDF8404508D1C348426810003F
S3150800F2C002D0214600209047012021E000F0E0F816
S3150800F2D0F5F74CFA38420EE02046FDF705FC00F03B
S3150800F2E01AF8FF280FD0DFF8D815096811F81000AA
S3150800F2F0400708D5002F06D0204603F0FCFD401E27
S3150800F3008041C00F04E032462946204604F0F6F84C
S3150800F31012B0BDE8F08101460020F4F72BBF29465C
S3150800F3202046C1E538B5044625882846FDF7BDFBC5
S3150800F33000F0050004283BD02846FDF7B6FBC007B9
S3150800F34025D52846FDF7C9FBB0F5006F1FD128461D
S3150800F350FDF7D9FB4FF6FE71884204D02846FDF723
S3150800F360A4FB800613D50121284600F0B1F960B147
S3150800F37001280CD1A17801F00F01C1F106018840DE
S3150800F38017214843A080BA2032BDA92032BD28469D
S3150800F390FDF79BFB01280BD1284603F0BEF80100B8
S3150800F3A002D02080182032BD20880028FAD132BD2C
S3150800F3B0002032BDF8B504460D466E1EB641FDF76F
S3150800F3C08CFB074605212046F9F7A6FAF60F00F04A
S3150800F3D00700032815D12046F9F739F8441D2046B9
S3150800F3E00DF014FD205C04284AD1F7F7F2FF032834
S3150800F3F046D10EB1F7F767FB2846BDE8F2400BF099
S3150800F4002AB83EBBB7F5006F3AD100F041F8402D57
S3150800F410064615D100F035F8C00711D5B0050FD14D
S3150800F4202046FDF742FB0007354603D5304607F070
S3150800F43014F8054628460BF08BFC00210BF001FC5E
S3150800F4404FF6FE7086421BDABDE8F440012109201A
S3150800F450F6F779BDFF20B7F5404F05D12046FDF7F1
S3150800F46043FBFFF758FF06E0B7F5004F03D100F05E
S3150800F4700FF8F4F747FDBDE8F4400021F4F7B9BFEB
S3150800F480F1BDDFF8400400787047000000600020F6
S3150800F4902046FDF738BB38B50446FDF71EFB054682
S3150800F4A0DFF804040078032818BF042805D00228CA
S3150800F4B012D1FFF7E6FFC0070ED42046FDF7F5FA8E
S3150800F4C000071AD4B5F5006F08D1FFF7E1FFDFF89A
S3150800F4D0F8130988884210D0002032BDB5F5406F70
S3150800F4E0FAD12046FDF700FB0822DFF8E013F3F710
S3150800F4F066FD401E8041C00F32BD012032BD2DE998
S3150800F500F84381460E46FDF7E8FA00250746B7F5A3
S3150800F510006F03D14846FDF7F6FA01E04FF6FE7094
S3150800F520002FDFF8AC73DFF8AC431BBF4FF6FF7153
S3150800F53088424FF00108A84639786068491C0818BF
S3150800F54060604846FFF7A7FF58B1402E08D12078DB
S3150800F550401C2070C0B2042803DB0720FEF76EFCAF
S3150800F5602570300006D10125B8F1000F0FD0012112
S3150800F5700B2015E0312E08BF0026F5D08D2EF3D1CD
S3150800F580B8F1000F14BF0C200820012108E0300054
S3150800F5900CBF062007200121F6F7D5FC39780A208A
S3150800F5A0F6F7D1FC314648460DF09AFA50B931467D
S3150800F5B0484603F0D3FF28B92A4631464846BDE8EF
S3150800F5C0F843F7E6BDE8F183287D0020E45F0020D4
S3150800F5D0E65F0020E85F002038B504460D4604F0D3
S3150800F5E08FFC29462046BDE838400022E2E6F8B5F9
S3150800F5F00D460446687AE8B9288805F13007A0F16F
S3150800F60008067968E86AB2B2F3F770FCE86A7860C7
S3150800F6102E80387868722046F8F731FFA0F1080185
S3150800F62089B22046F8F744FF21462846BDE8F4404B
S3150800F6300EF022BAF1BD30B5054605F47F40B0F5A7
S3150800F6407C4F85B04FF6FF743BD1B5F57C4F02D1A0
S3150800F650F9F7F3FF36E04FF61040854219DA102223
S3150800F66000216846F3F7A4FC6946E8B2F9F766FA9A
S3150800F670402826DB002240216846FAF705FA4FF6AD
S3150800F680FE75A8421ED16846FAF701FAA84219D1B2
S3150800F69017E04FF63042954204DA05F00F00FAF704
S3150800F6A0CAFA0FE04FF6384085420ADA82480088DF
S3150800F6B0A04206D07F4B1B7803F007031A439542F6
S3150800F6C000D0204605B030BDEA7E0020E87E002046
S3150800F6D02DE9F04196B00D464FF6FF768046ADF817
S3150800F6E0046002A90EF0E1F9A8B3BDF80C00ADF864
S3150800F6F0040006F000FB30B3BDF80400F5F755F832
S3150800F700F0B94046FDF7C7F99DF808100844851D6D
S3150800F710BDF80A0004A9FCF738F84046F8F7AFFE2A
S3150800F72006464046F8F793FE711B401880B20090D3
S3150800F7302B4604AA002101200FF03EF90020AEE076
S3150800F740BDF80C7091E0BDF80C0006F086FE074681
S3150800F750B742F7D1F2E75B4C5B4F207800073FD5FD
S3150800F76004A940460EF07EF90DF12B00F5F7BBF81B
S3150800F770FF2803D0F4F7E9FF074676E00DF12B00E2
S3150800F780F9F718FA28B90DF12B00FAF784F90028C9
S3150800F79050D001A90DF12B00FBF7FEFFE8B1BDF82B
S3150800F7A0040006F0A8FA0028C8D1BDF8040000F441
S3150800F7B07F40B0F57C4F07D1BDF80400FFF73BFF4B
S3150800F7C0B042ADF80400B9D0BDF8040006F045FE15
S3150800F7D0B04223D0BDF8047043E02078000704D473
S3150800F7E039884046FDF7CBF958E06A4680210DF185
S3150800F7F02B00F9F7BCF9002851D09DF80000012329
S3150800F8000DF102020DF13301FBF79CFC022846D1EB
S3150800F810BDF8020006F021FEB04201D101203EE00B
S3150800F820BDF802104046FDF7AAF900F05AF800F0B4
S3150800F83053F833E00DF11B010DF12B00FAF79FF990
S3150800F84006464FF6FE77BE4223D0F7F79EFD864260
S3150800F85018BF374605D10DF11B00F9F77BFA0028CA
S3150800F86017D000F03EF800F037F800F03AF88006B6
S3150800F87010D54046FDF747F93946884208BF002D9E
S3150800F88008D1BDF804000BF035FA01211E20F6F761
S3150800F8905AFB53E739464046FDF739F9022016B0B8
S3150800F8A0BDE8F081307D00207A78002019600020BC
S3150800F8B0D003FFFFC6780020CA7800200460002025
S3150800F8C0A05C00207E7800200E5E0020B079002023
S3150800F8D0E17F0020347D002040F008014046FDF716
S3150800F8E0E7B84046FDF7E1B8174838B50446F3F7D8
S3150800F8F0EDF9054615480021016008212268826055
S3150800F9006268C2600834491EF8D101210160F3F724
S3150800F910E7F9284613E00D4900200860F3F7E0B937
S3150800F92038B545096D010A480A4C854238BF0A4C64
S3150800F930F3F7CCF9044945F014024C620A62BDE8B3
S3150800F9403240F3F7D5B900000C5D002094ED00E0D5
S3150800F9509800002009000B1008000B10002181F305
S3150800F9601188704770B12DE9F05FEFF308800D49F3
S3150800F9700860EFF309800C490860EFF314800B491F
S3150800F980086030BF0748006880F3088806480068A2
S3150800F99080F309880548006880F31488BDE8F05F9D
S3150800F9A070470000EC7B0020F07B0020F47B0020F1
S3150800F9B038B5F3F78BF98F4D0446287868B98E4821
S3150800F9C00021416041708170A52101700120F6F780
S3150800F9D076FBF6F793FB012028702046F3F788F9A3
S3150800F9E000F002F8002032BD38B5F3F76FF9814D03
S3150800F9F004462878012823D18248016841F080719D
S3150800FA00016001208049086000208049F1F7F2FA78
S3150800FA107F49804A0220086000207F4908607F48A5
S3150800FA207F49016001211160744A7E49116040F2E4
S3150800FA30014101654FF480307B4908600220287037
S3150800FA402046BDE83240F3F753B96A4800780228E1
S3150800FA5008D16B48006828B16A480068000E00F0B3
S3150800FA600100704700207047D12202704170090AD0
S3150800FA7081706E490A78C270501C0870042070475D
S3150800FA802DE9F14F82B08846F7F7D6FF08F105054C
S3150800FA90EDB2002600904FF6FF7A17E00299084467
S3150800FAA0514610F8027C38460FF00AF882465E4640
S3150800FAB0FFB24FEAC90007FA00F0044309F1010949
S3150800FAC0B9F1040F17DB4FF060400460FFF7BDFF84
S3150800FAD0F6B280B3AE422EDAF7F7AEFF0099401AB7
S3150800FAE080B2B0F5FA7F26D84FF06040006801284A
S3150800FAF0ECD10024A146F0B210B95B270126D7E75E
S3150800FB0006F1010B0128F6B208BF4746CFD0E91E19
S3150800FB10884208BF5746CAD0A91E884208BF4FEA7E
S3150800FB201A27C4D0691E884208BF5D27BFD0A842DD
S3150800FB30B4D10027BCE74FF4C870F1F73EFAAE42DD
S3150800FB400CBF00200120BDE8FE8F10B50C4602460A
S3150800FB5021780020052924BF1046FFF791FF0421CC
S3150800FB60217010BD2DE9F843234C6578002D3ED051
S3150800FB70F7F762FF2F46202FDFF8B480C4F8048019
S3150800FB808146B4BF3E462026A6706078C0B1F7F716
S3150800FB9053FFA0EB090080B2B0F5FA7F10D8A07821
S3150800FBA00028F2D1BF1BF8B200286770EDD0606854
S3150800FBB0FFB23018202F6060B4BF3E462026E3E728
S3150800FBC0FFB2002F04BF607800280DD1A07858B97D
S3150800FBD008EB0500801EF6F7CDFF4146AA1EBDE8D4
S3150800FBE0F843D2B2F6F72CBB00206070A070BDE8CF
S3150800FBF0F1830000A57F0020F07F0020800E00E042
S3150800FC0034000040FCED00E0040004E020A10700F9
S3150800FC10F00004E0000E00E0040304E0B00F00E08A
S3150800FC2055CEACC50D00010000E100E0A67F00201E
S3150800FC30206700207047000081780078DFF8E42408
S3150800FC40002814BF10685068C84000F001007047CB
S3150800FC5070B50446DFF8D054A0782178DFF8CC34A4
S3150800FC60020011D1A1B3A6892069864288BF06463B
S3150800FC7026B1A1681868F2B2F3F738F9A0683044DB
S3150800FC80A060AE6001201AE0D9B1A68921698E422A
S3150800FC9088BF0E46002E1CBFA168002904D053F861
S3150800FCA02000F2B2F3F722F9A068A1783044A060E8
S3150800FCB0DFF87C0440F821600120A178884028609C
S3150800FCC070BD296C40F2011202FA00F0084328645C
S3150800FCD070BD10B5002100F00F020D2A01DB0020CF
S3150800FCE010BDDFF850341B681A44D43204064CBFE2
S3150800FCF01278527B2AB128205043184400F1340167
S3150800FD0004E00F22104208BF03F13401084610BD73
S3150800FD10DFF82014096801F11F0306281A7808BFBE
S3150800FD205A709A701870096B4B68190018BF82428E
S3150800FD3002D00146104618477047DFF8F8030068F6
S3150800FD40C07F704710B500F011F8040002D1CC212D
S3150800FD5000F005F894F8200000B1012010BDDFF886
S3150800FD60D803F2F7CBBF0C4615461E46C0B2B0E71D
S3150800FD702DE9F14F82B0DFF8BC53DFF8BC930EF0E3
S3150800FD80B3FE2868F0220021F3F712F92868011D4E
S3150800FD90016007220299096841624FF0010B029936
S3150800FDA049688162002602998968C162002702991A
S3150800FDB0097B8177DA46286800F11D018A700022DE
S3150800FDC0CA700A71029A5269026300220A700121F6
S3150800FDD000F8342FC1818260082181818270022156
S3150800FDE0C270027142710261426180F8202042624B
S3150800FDF0C16190462868846A60882044009015E0AE
S3150800FE00029B1B699B5D9208521C5A43C26108F10A
S3150800FE1001082A68114481F8E1608078062803DB26
S3150800FE2040F2AB1100F0B3F82078044400988442FD
S3150800FE303FD2207818B94FF4C47100F0A8F860785A
S3150800FE400528F1D1761C2868282171430844A17831
S3150800FE50C90900F8341F002300218160A178C17008
S3150800FE6001F00F010AFA01F2C2818170E27802F00C
S3150800FE7003020271A2880361436180F8203043625D
S3150800FE8082810378002BBBD092087F1C80F805B0CE
S3150800FE900BF1010B029B1B699B5D5A43C2612A68E1
S3150800FEA0114481F8D46080780628BDDB40F2A3119E
S3150800FEB0B8E7032E03D04FF4DC7100F068F8062F7C
S3150800FEC003D340F2BB1100F062F8B8F1060F03D372
S3150800FED04FF4DF7100F05BF8F2F7F8FE0446984835
S3150800FEE0984F4FF40028C0F80080002078604FF043
S3150800FEF0FF3BC7F800B0012101200EF035FE50B9CE
S3150800FF007860C7F800B001218F488C4A78608F481E
S3150800FF10C0F8008016E02046F2F7EAFE4FF4E771D3
S3150800FF2000F035F86FF0030028E0536800F028F871
S3150800FF3053604FF0800C7B6880780CFA00F0184309
S3150800FF407860491CC9B28E4212DB2B684FF0280C28
S3150800FF500CFB01F0184410F8343F002BE5D0136869
S3150800FF6000F00EF813607B6880780AFA00F0E6E77E
S3150800FF700EF0EAFD2046F2F7BBFE0020BDE8FE8F34
S3150800FF8090F802C00AFA0CFC4CEA0303704748468C
S3150800FF90F2F7B4BE2DE9F843FFF7E5FE0700DFF8F0
S3150800FFA0988106D140F20B2100F093F86FF0030018
S3150800FFB03BE0002C18BF14F0030003D04FF4057182
S3150800FFC000F087F8F2F782FE81463846FFF734FEDE
S3150800FFD020B100F07BF86FF0040026E097F82000C7
S3150800FFE020B100F073F86FF001001EE0B878002821
S3150800FFF01FBF50480068C07F042804D000F066F888
S315080100006FF0080011E000F067F810B901203870A8
S3150801001005E0387818B94FF4117100F05AF8012043
S3150801002000F04FF800F052F80020BDE8F2832DE900
S31508010030F843FFF798FE0700DFF8FC8003D140F28A
S31508010040732100F046F8002C18BF14F0030003D002
S315080100504FF41E7100F03DF8F2F738FE8146384636
S31508010060FFF7EAFD20B100F031F86FF0040026E051
S3150801007097F82000012804D100F028F86FF0010054
S315080100801DE0B87800281FBF2A480068C07F0428E9
S3150801009004D000F01BF86FF0080010E000F01CF81F
S315080100A008B9387005E0387818B140F2A12100F096
S315080100B010F8022000F005F800F008F80020BDE865
S315080100C0F28387F820007E623846C1E54846F2F792
S315080100D00FBE4046F2F712BE00207861BC603D6152
S315080100E0B878704770B51A491A4BCA68002110E0EA
S315080100F054881444491CA47900F8014B5488DD88B6
S31508010100641C94FBF5F605FB164454809488641E1A
S315080101109480948814B1C9B24029E9DBC8B270BD8C
S31508010120000000005410014008100140845C0020C2
S3150801013010100140645C0020FCCF02084C100140FD
S3150801014080E100E088A800408100F00000E100E0BD
S315080101504C5D002020D8020800B591B08520FFF734
S31508010160F1FD48B96846FFF7BDFF28B102460023ED
S3150801017069468520FFF70EFF11B000BD38B5044664
S315080101800D468520FFF7DEFD0028FAD100232A4611
S3150801019021468520FFF7FEFE8520FFF7D3FD0028BF
S315080101A0FAD131BD70B51346104402E0A4192C707A
S315080101B05B1EDCB24CB101F00F060909451E0A2E79
S315080101C02846B4BF30243724F0E7104470BDF0B593
S315080101D0002341B1002806D501232D21B0F1004F96
S315080101E0117018BF404200210024A04D55F8247013
S315080101F0002601E0C01B761CB842FBD2F7B20FB944
S315080102000F0005D0DBB206F13001D1545B1C012188
S31508010210641C092CEADBDBB23030D054581CC0B25E
S31508010220F0BD2DE9F24F80468AB007A80190154620
S3150801023003A89B4603AE002700248DF800000BE0B7
S31508010240012405460198864205D300F0DCF800280A
S315080102504FD100F0CEF86D1C9DF800002978301AB0
S315080102600A000BD0252903D014B906F8011BE9E7C2
S31508010270002C14BF00246D1C29780A0000F0AF80F9
S31508010280B1F1250216D00B3A092A40F28980283A9B
S315080102907DD00A3A12D0521E41D0521E5FD0083A7A
S315080102A05DD0121F3ED0D21E3CD0921E57D0D21E10
S315080102B06DD0C7E7252006F8010BC3E7DBF8000078
S315080102C002904FF0000A0BF1040000F1040BD0F87C
S315080102D00090CA45B6D2029810F80A100222304692
S315080102E0FFF760FF06460198864205D300F08BF8B2
S315080102F000287AD100F07DF8A9F1010082453CBFBA
S31508010300202006F8010B0198864205D300F07BF8F8
S3150801031000286AD100F06DF80AF1010AD9E75BF8FD
S31508010320040BC8E75BF8049B00F067F800285CD16A
S3150801033000F05FF84FF0000A01E00AF1010A5FFADE
S315080103408AFA19F80A000028F7D19DF828005246BA
S315080103504946C047002848D15744FFB272E76C297D
S315080103600AD16A785BF8040B752A0EBF00210121B0
S31508010370642A07D16D1C05E075295BF8040B0CBFCF
S31508010380002101213246FFF722FF36185AE75BF8AA
S31508010390041B0222C9B23046FFF704FF064651E79D
S315080103A06A780124782A18BF582AF8D16D1C0024C6
S315080103B0681E322904D15BF8040B042281B2EAE7EC
S315080103C034297FF43DAF5BF8049B04224FEA1941B7
S315080103D03046FFF7E7FE04221FFA89F1DCE700F051
S315080103E00CF810B9F019C0B200E000200BB0BDE856
S315080103F0F08FF719FFB203AE704706469DF828003D
S31508010400F2B203A940479DF80000361A9DF8280064
S31508010410F2B203A9404714A10DE00CB438B504465D
S3150801042004AA00F010F805462046FFF7F4FF28460F
S3150801043032BC5DF80CFB0CB480B502AA00F003F8D7
S3150801044002BC5DF80CFB10B5094B1B5C0024012BA3
S3150801045007D113460A4601460648FFF7E2FE00B9E8
S315080104600124204610BD00000D0A000034D0020800
S315080104701CD802082164000822210FF22C30F2F759
S315080104803DBC00210160012141607047002202E064
S315080104904168426008460128FAD1704738B50446D2
S315080104A002E02846FFF7F2FFF2F710FC2168012562
S315080104B021B14D6801224A6000212160F2F718FC3A
S315080104C0012DEED16068FFF7E1FF0120606031BDC3
S315080104D0406800B10120704710B50446606810B93C
S315080104E04FF0FF3010BD20688A498068884206D0DF
S315080104F0F7F7ADFAA168081AB0F1004F00D300204A
S3150801050010BD2DE9F84F0D46002704466868666850
S315080105100FF2942AA8429046A14610D1842150464A
S31508010520F2F7ECFB0BE05FEA080006D02FB9A868E2
S31508010530B168401A584528BF4F46B1467668DFF874
S31508010540D8B1AE42EFD16868A1450CBF6060C9F861
S315080105500400B8F1000F1BD08FB96E68AE424F4642
S3150801056006D19E215046F2F7C9FB01E03746766867
S31508010570012E04D0A868B168401A5845F6D3A74297
S3150801058003D160686860656002E0786868607D60CC
S31508010590BDE8F18F70B50446F7F759FA054601200B
S315080105A0A560207303E03168496830468847F2F749
S315080105B08DFB2168012639B14E687268B24212BFB5
S315080105C04A60002121600AE06168012909D08A6828
S315080105D0AA1AB2F1004F04D80E467168616000216B
S315080105E07160F2F785FB012EDDD10020207370BD05
S315080105F038B5041D00E02C1D2568012D0BD028688F
S3150801060080680028F7D02046F8F716FA296889681D
S3150801061028468847EFE731BD2DE9F04104460E46E5
S3150801062020683C4905688068884219D126B1F621B7
S315080106300FF27410F2F762FBF2F748FB616841B9F1
S31508010640296809B9646003E04968616029684C60F2
S315080106502C60F2F74DFB2046BDE8F041F5F777BC73
S31508010660F7F7F5F980466FF00040864208D2287BF5
S3150801067006EB080730B1A868B84203D17F1C01E030
S3150801068000EB08072046FFF723FF48B1A068874219
S3150801069010D046B9A8EB0000B0F1004F03D809E025
S315080106A0686860606C60A76021462846BDE8F0412D
S315080106B0012226E7BDE8F08138B5044615492068C8
S315080106C005688068884218D1F2F700FB616881B134
S315080106D0A14203D1002129600AE011464A68A242D3
S315080106E0FBD12A68A24208BF296062684A600021D4
S315080106F06160BDE83240F2F7FBBA2046FFF7E8FE33
S3150801070038B12068006800222146FFF7FAFE00206A
S31508010710606031BD79040108010000802DE9F24FBE
S315080107200546DDF828806E6892469B46A946002450
S3150801073001E0B1463E46012E19D030680099776826
S315080107408842F6D15FEA0A0004D059463046D047B6
S315080107500028EED0A9450CBF6F60C9F804705FEA9E
S315080107600800746001D1304602E03446E2E72046CB
S31508010770BDE8F28F2DE9F04147680C4615469846C3
S3150801078000E03746012F0CD038687E68A042F8D1C0
S31508010790280004D041463846A8470028F1D03846F3
S315080107A000E00020BDE8F0816576656E742D7175EF
S315080107B06575652E630000002DE9FC4104460D466A
S315080107C0164601960095234624220FF2AC41DFF81E
S315080107D088840320F5F73DFC98F800000C2802D020
S315080107E021463D2049E0DFF874040078010018BF6E
S315080107F0072806D0012C01D0200002D121467020FD
S315080108003BE00F2E02DB2146332036E00B2C02DBC0
S315080108102146342031E0DFF848042840A84202D0B6
S315080108202146352029E01DB9F6F7CEFD012585407B
S3150801083020001CBF022C042CDFF828740BD10021E0
S315080108402020F7F71AFFB88110B92146182014E0BD
S315080108500020F871387288F80040FE70FD610020AA
S315080108607870F6F7B1FD78710120FBF7E8FA98F888
S3150801087000000C2804D121460120BDE8FC4170E0A6
S31508010880BDE8F38170B5DFF8DC43DFF8CC63F6F732
S3150801089086FD60814FF6FF75F1F74EFCA071307841
S315080108A0082809D10120F1F74AFC092030702846A9
S315080108B0BDE87040F5F7D2BF2846F6F772FD00206D
S315080108C0F1F73DFC207840F0010020700020BDE8DA
S315080108D070405EE080B52522A1A10320F5F7B9FB9A
S315080108E0BDE8014038B5F2F7F1F9DFF86C53044673
S315080108F028780C2818BF0B2804D12046BDE83240B9
S31508010900F2F7F6B9092808BFF5F774FF2878DFF872
S31508010910541388700B2028702046F2F7E9F9BDE8D0
S3150801092032400220FBF78BBA38B5CB4C20780B281E
S3150801093002D0F82100F016F9CA4D6889F6F731FD9B
S315080109406879EFF721FFA879F1F7F9FB201DFFF781
S31508010950B3FE002028700C2020700020A978BDE87D
S31508010960344002000CD1BF4AD26907290BD00129AC
S315080109700BD003291CBF05290A2904D0002202E04D
S315080109800022012901D00B0001D10DF085B9FCF730
S3150801099013BF2DE9F84FB34CAF4D27780FF2E02A74
S315080109A00020207028780C2804D14FF48E71504607
S315080109B0F2F7A4F9F80777D5287801001CBF0228B1
S315080109C004283CD1A089F7F742FD0746A089F7F725
S315080109D056FD80460FF27C2903E03146584606F05B
