S0110000656D3236302D756172742E73333790
S31500000000D8DA0320598A0200857B02003D8A020065
S31500000010A70A020200020000041809AC006293005D
S3150000002000000000000000000000000000000000CA
S3150000003000000000349C02000000000000000000E8
S315000000400000000000000000FFFFFFFFFFFFFFFFB2
S31500000050FFFFFFFFFFFFFFFFFFFFFFFFFFFFFFFFAA
S3150000006000700F000000000000000000FFFFFFFF0F
S31500000070FFFFFFFF1C000000000000000000000062
S31500000080000000000000000027FD032027FD0320DC
S31500000090D8DA032044AE0200E28C020078D10320B5
S311000000A0B40F002000001000000000005B
S31500000200D8DA0320598A0200857B02003D8A020063
S31500000210458A0200418A0200498A0200558A020084
S31500000220558A0200558A0200558A0200558A020044
S315000002304D8A0200558A0200558A0200199B010068
S31500000240AB56020007C30100B5FD0100558A020046
S3150000025087C201005BC3010009C3010059C3010045
S3150000026085C2010031830200CBBB01002FF70100DC
S3150000027033E70100558A0200558A02003B880200D6
S31500000280558A0200558A0200E9BB0100558A020020
S31500000290558A0200558A0200558A0200558A0200D4
S315000002A0558A0200558A0200558A0200558A0200C4
S315000002B09BC30100BBC30100CB370200558A020075
S315000002C0558A0200558A0200558A0200558A0200A4
S315000002D0558A0200558A0200558A0200558A020094
S315000002E0558A0200558A0200558A0200558A020084
S315000002F0558A0200558A0200558A0200558A020074
S31500000300558A0200558A0200558A02006F49704AD2
S3150000031001E021B1491E1369DB07FAD401B9B0E047
S31500000320506001201060106910F0060F05D04107DB
S3150000033000D5A9E0800700D5A9E000207047F0B5F8
S3150000034013460022002936D0604C614D8BB98B4292
S3150000035031D250F8046BEE605B1C08262E602646F0
S3150000036001E036B3761E2F69FF07FAD4002EEED1D0
S315000003701FE0EFF3108672B600230EE02F6907F038
S315000003801907102F08BF2F602F693F07F6D550F8C1
S31500000390047BEF605B1C10272F608B42F4D306B9F9
S315000003A062B6264601E026B1761E2869C007FAD451
S315000003B00EB96FF002021046F0BD2DE9F0479A46DD
S315000003C0444B454F1C681B683B688046002043F041
S315000003D001033B60950881460C4602E0B14404EBFC
S315000003E08604A94517D208EB89063046FFF78EFF2B
S315000003F0010014D1C6F30A00C0F500608608A5EB1B
S315000004000900B04238BF0646524631462046FFF73D
S3150000041096FF0100E2D03968490849003960BDE815
S31500000420F0872C49294A0B6809682B490B6843F069
S3150000043001030B608860012048604869400704D5C5
S3150000044008684008400008601EE04869800704D537
S31500000450086840084000086019E00220486001E092
S3150000046022B1521E4869C007FAD422B9086840086A
S315000004704000086005E00868400840000860002069
S3150000048070476FF0020070474FF0FF3070476FF013
S3150000049001007047002390E70F48016841F0010111
S315000004A0016046F21A31C1644FF4807141604169BE
S315000004B0C907FCD44FF4007141604169C907FCD4F7
S315000004C00021C1640020704700000000809698005B
S315000004D00C000E4004300E4008000E4010B50446D5
S315000004E000F0BCFD204601F096FD204602F0E6FA3B
S315000004F02046BDE8104002F09BBC01F0D4BD10B50B
S31500000500044600F0F8FD204601F0FFFD204602F00B
S31500000510FDFA204602F0F1FC2046BDE8104002F04C
S3150000052089BC10B500E010B5044600F054FE204624
S3150000053001F012FF204602F005FB204602F047FDBF
S315000005402046BDE8104002F084BF10B5044600F016
S315000005506FFE204601F02EFF204602F022FB09E046
S3150000056010B5044600F089FE204601F065FF2046DE
S3150000057002F034FB204602F042FD204602F081FFE5
S315000005802046BDE8104002F0ECBC80B503F0DCF973
S31500000590BDE8014002F00ABA10B5044602F018FEA2
S315000005A02046BDE8104002F0F0BC0198704703F009
S315000005B03ABA70472DE9F04701241028A4B00FF687
S315000005C00825DFF87C79DFA3DFA60FF28039E0A1EA
S315000005D00FF280380FF2803A00F0398118281CBFDC
S315000005E01D2820286FD0212800F00C8122286AD0EF
S315000005F0282800F0AF80292800F0D2802A2862D06F
S315000006002B2800F051812D2800F06F812E285AD01A
S31500000610302826D0332800F06D81342800F06D8113
S31500000620352800F0F682362800F09881372800F049
S315000006302382382800F0BD81392800F051823A28FB
S3150000064000F0E381422800F05F824A2800F0BC8077
S315000006504C2800F0E8825A2800F068825B2832D0E5
S315000006605D2800F0DB83632800F0AC82642800F08C
S31500000670B6826A2803D06F2800F01D83712800F027
S31500000680EA82732818BF772800F0D6837A281AD012
S31500000690822800F06582832800F09B83842818BF97
S315000006A0852810D086281CBF872888280BD0892843
S315000006B000F096838A281CBF8B288D2803D09028AB
S315000006C000F00D84952800F09783962800F0998213
S315000006D09A281CBFA128A428F5D0A62800F0688374
S315000006E0A82800F00483A92800F01D83AF2800F095
S315000006F03783B128E7D0B22800F0AC83B92800F0E0
S31500000700C583BA2800F0C783BC2800F0C783BD287C
S3150000071000F0CF83C12800F08180C22800F09480C9
S31500000720C32800F08E80CE2800F02783D42800F05E
S31500000730C783D52800F0C983D62800F0CB83E828E4
S31500000740C1D0ED2800F04183EE28BCD0FE2800F091
S315000007505182E3E301A9684601F010FC00F01DFC9C
S315000007603146002003F048FB00F007FCBDF80C0002
S3150000077003F07FF99DF80E0003F06FF99DF80F0066
S3150000078003F06BF99DF8100003F067F9BDF812004D
S3150000079003F06FF99DF8140003F05FF9069804E37F
S315000007A008208DF809000DF10A0103A801F00CFCE0
S315000007B08DF8080003AB0DF10A00019002AA0DF1B5
S315000007C009000090E2A142E200F0F4FB9DF801006E
S315000007D001A901F00AFC00F0E6FB00F0CEFB9DF853
S315000007E00C0003F03AF9BDF80E0003F042F99DF84B
S315000007F0100003F032F99DF8110003F02EF99DF870
S31500000800120088E301AB0DF10102D2A100F0C2FB98
S3150000081001999DF8010001F0EAFB2CE30DF10602B7
S3150000082000F094FB9DF8060001AA02A901F055FB11
S315000008308DF8050002AB01A800900DF10502C6A1D6
S3150000084005E201F04CFB66E301F04BFB63E30DF1BF
S31500000850150004900DF11E030DF11600039006AA73
S315000008600DF1170002900DF11A00019007A80090F3
S3150000087001200FF24C7103F0BFFA9DF81500BDF888
S315000008801A30BDF81C20BDF81E1002909DF8160007
S3150000089001909DF8170000909DF8180003F08AFB60
S315000008A08DF8140005AAE9E203F0BEF8054603F048
S315000008B0BBF88DF8000003F0B7F88DF8010003F0DF
S315000008C0DFF8ADF8020003F0AFF88DF804000DF183
S315000008D00501082003F0AFF803F0A6F88DF80D0027
S315000008E06946284602F0B2FD15E303F09DF802F0D2
S315000008F0AEFD10E303F087FFBDE20DF1120304AA7B
S3150000090096A100F047FB06A803F006F903A801909C
S3150000091003AB05A800900DF10F02494600F01CFB41
S315000009200DF10D00029006AA05989DF80F30BDF84E
S31500000930121001909DF80C0000909DF8100001F037
S3150000094014FA2FE0760000007575000075757000CA
S315000009506200000075700000750000000DF11202C3
S315000009601946012003F048FA06A803F0D5F803A8B3
S3150000097002900DF10F0305A8019004AA03A800F048
S31500000980E9FA0DF10D00029006A905989DF80F30C1
S315000009909DF8102001909DF80C000090BDF8120003
S315000009A001F0ECF98DF80E000DF10D030DF10E02BC
S315000009B034E107A803F0B0F804A8039005AB06A835
S315000009C002900DF1150204A801900DF1130000909C
S315000009D001200FF2FC5103F00FFA0DF11100029005
S315000009E006989DF813309DF814209DF81510019077
S315000009F09DF81000009007A801F0CCF98DF81200C0
S31500000A000DF111030DF1120208E10AA803F084F8B2
S31500000A1006A805900DF11D0309A804900DF11E020C
S31500000A2006A803900DF11B00029007A8019008A8E4
S31500000A30009001200FF2A05103F0DEF90DF119002C
S31500000A4004900998BDF820309DF81D209DF81E10D1
S31500000A5003909DF8180002909DF81B0001909DF8E8
S31500000A601C0000900AA801F0B0F98DF81A000DF1EB
S31500000A7019030DF11A02D1E00DF1190000900DF1E4
S31500000A801A0307AAB5A100F067FA09A803F044F80B
S31500000A9005A802900DF1170308A8019006AA05A85B
S31500000AA000F058FA0DF11500049009AB08989DF86E
S31500000AB01920BDF81A1003909DF8140002909DF8B5
S31500000AC0170001909DF818000090BDF81C0001F079
S31500000AD0A1F98DF816000DF115030DF116029DE032
S31500000AE00DF106021946012003F086F903A803F06A
S31500000AF013F800F034FA029B9DF80420BDF80600B6
S31500000B0003A901F0BCF972E10DF1050000900DF1A9
S31500000B10060302AADBA100F01FFA9DF805209DF846
S31500000B200610BDF8080003F0A6FF12E100F029FA4E
S31500000B30D5A100F011FA039A9DF80810BDF80A0035
S31500000B4004F014F98DF809000DF1090296E100BFD1
S31500000B50756276007577000075767500757600000B
S31500000B6008208DF811008DF810000DF10E0002908E
S31500000B7005A801900DF11100009008AB0FF2604539
S31500000B800DF10F0200F0E7F903A802900DF1120033
S31500000B90019006A800909DF80E30BDF814209DF82F
S31500000BA00F0008A901F09FF98DF80D0006AB03A808
S31500000BB002900DF10D020DF112000190294604A8D4
S31500000BC0009044E000F0F6F99DF8010001A901F05B
S31500000BD0AFF900F0E8F901A802F0B5FFA1E100F0D5
S31500000BE0E9F901A802F0B4FF9DF8010001A901F09E
S31500000BF0B2F940E100F0DEF99DF8010005F024F8B5
S31500000C0039E100F0ACF902999DF8040001F0D2F840
S31500000C10EDE0684605F04AFD00F0BFF931460020D8
S31500000C2003F0EAF87DE186208DF806000DF1050255
S31500000C3000F08CF99DF8050002A901F0DBF98DF8AA
S31500000C40040002AB0DF10600009001AAB7A1002036
S31500000C5003F0D2F865E16A4600F078F938786A2838
S31500000C609DF8000001A902D105F0A0FE01E006F002
S31500000C7000FA8DF801000DF1010200F097F9BDF8B8
S31500000C80040002F0F6FE9DF8060002F0E6FE0DF105
S31500000C900701102002F00CFF069802F0FAFE0798F2
S31500000CA002F0F7FE9DF8200002F0D7FE0DF12101BB
S31500000CB000F064F935E109A802F07AFF00F061F965
S31500000CC0494600F049F904A80090039B9DF80820C6
S31500000CD09DF80A1009A801F0C7FE8DF809000DF16C
S31500000CE0090200F063F904A802F059FF19E108208F
S31500000CF08DF80E008DF80D0007AB0DF10D0002907A
S31500000D0004AA05A801908AA10DF10E00009000F03A
S31500000D1023F9BDF8100005AA07A906F090FB8DF887
S31500000D200C0003AAAAE008208DF8050002AB0DF11D
S31500000D30050000900DF106027EA100F00DF904A950
S31500000D40102002F078FEBDF8060004AA02A906F0FB
S31500000D50B6FB8DF8040001AA90E000BF7676750018
S31500000D6000F005F900F015F903A9102002F063FE62
S31500000D7003A901A801F092FE7DE000F0F8F8022038
S31500000D808DF8000000F005F903A901A801F08EFE18
S31500000D9000F009F903A900F0F1F805A9102002F006
S31500000DA087FE099802F075FE0A9802F072FEB8E016
S31500000DB000F0D5F802999DF8040002F03DF88DF890
S31500000DC005000DF1050200F0F1F802F050F802F00E
S31500000DD044FE02F029FE00B1012001F0F4FF9AE082
S31500000DE000F0BDF802999DF8040001F0F5FF8DF8BA
S31500000DF005000DF1050241E03A780FF2EC100025EE
S31500000E0000E06D1CEDB2415D9142FAD102F00CFE9C
S31500000E100FF2EC1151F8251088477CE002F004FE31
S31500000E20054602F02DFE0146387830280CBF454AAB
S31500000E30454A2846904774E06946102002F0FBFDBB
S31500000E4038787728684602D106F028FE63E006F077
S31500000E502DFB60E001A802F0BBFE0DF101030DF1D0
S31500000E60020235A100F096F89DF901209DF80210C6
S31500000E7001A802F0A1F88DF800006A4600F096F885
S31500000E804FE000BF767575007675700002F0CCFDF8
S31500000E9007F047FB3FE007F04FFB3CE004A968463C
S31500000EA007F016FB684602F0C2FE04A802F0EDFE4B
S31500000EB037E0684602F0D1FE684607F011FB30E0E5
S31500000EC002F0B2FD07F023F82BE002F0ADFD06F0CC
S31500000ED09DFF26E002F0D4FD07F066FB21E0082026
S31500000EE08DF8120006AB04A803900DF1110205A8B7
S31500000EF0029012A104A801900DF11200009000F0DA
S31500000F002BF89DF8110000B10120059B9DF81020DB
S31500000F1006A901F017FB02F0A0FD02E007F058FB5E
S31500000F200446204624B0BDE8F08700007562000044
S31500000F30766262007662000075730000756270006A
S31500000F4002FD03206B3600007FDD000051460120C4
S31500000F5002F052BF00902946012002F04DBF01A8C1
S31500000F60009002AB01AA4146012002F045BF0820CD
S31500000F708DF801000DF10103704701A9082002F068
S31500000F8097BD02A8019002AB03A800900DF10A02DA
S31500000F90704701AA012002F02FBF8DF801006B46B1
S31500000FA00DF1010270478DF800006A465146002097
S31500000FB002F022BF0DF101025146012002F01CBFD2
S31500000FC07576767675757500757575700000000016
S31500000FD07575757570000000757576757575700098
S31500000FE07562767500000000181D207A2A848586B1
S31500000FF087888B8A8D959A2E5BB1A4A122E8EE0094
S3150000100081C900003B73010071FA00001F16010040
S3150000101091390000D15D0100515E0100675E01005B
S315000010207B5E0100975E01001F5F0100095F010002
S315000010304D5F0100F7920000A36400009F68010065
S31500001040A3680100BB7200005DB001006BB0010037
S3150000105039510000AD5F0100BB5F010038B50446A1
S315000010602078002846D16070012020722070A07878
S31500001070032832D0072834D0112808D0152833D0B9
S31500001080302818D0312819D032281AD030E007205D
S31500001090DFF8645B207204F10900298807F057FE27
S315000010A0A878E072E8782073287960736879A0736D
S315000010B0A879E07331BD07F070FE17E007F034FF42
S315000010C014E00420207207F06FFE04F10901BDE868
S315000010D038400246012007F03EBEDFF8200B0078BC
S315000010E004E007F0F3FF01E008F03AFE607231BD5C
S315000010F00020207031BD38B504462078002869D11B
S3150000110001202070A078042814D007281FD00E28AC
S3150000111025D0112859D0152841D0172844D0182891
S315000011204CD019284DD0302833D031281FD0322842
S3150000113023D04DE0207A01282FD1607A00B101201A
S31500001140DFF8BC1A0870002009F08CFA3BE0607AE0
S3150000115010B107F089FF39E007F098FF36E0607AB2
S3150000116000B1012007F0E3FE00282FD015E0607AD9
S3150000117000B1012007F0B1FE0EE0207A04280CD160
S3150000118004F10901012007F0F4FD07F010FEE8B1B3
S3150000119003E0607A07F003FEC0B1362016E094F94A
S315000011A0090008F093FD0EE0657A04F10A0007F0E5
S315000011B0C7FD0146284609F02AFB04E009F022FB98
S315000011C001E009F012FB002000E03720607031BD1D
S315000011D00020207031BD10B50446DFF8280A0079DA
S315000011E0217856280CBF0120002001BBA170617830
S315000011F0072910D130B109F029FB012814BF63205B
S3150000120062200EE0E07862280CBF0120002009F081
S3150000121020FBA07009E0042909D1DFF8EC1910B110
S315000012200878E07001E0E07808700120207010BDB9
S31500001230017809BB817001210170417801290ED026
S315000012400C2909D017290DD02D2902D034290CD00C
S3150000125010E0DFF8B8190AE0DFF8B41907E0DFF8A4
S31500001260B41904E0DFF8B01901E0DFF8B019097825
S315000012708180704700210170704738B50446207898
S3150000128000285AD1012020700020A0706078012823
S3150000129015D00C280FD017283DD02D2802D0342881
S315000012A044D048E0A18803293DDAC9B2DFF85C09D9
S315000012B009F03EFC38E0A088DFF8541939E0DFF881
S315000012C06009008828BBA08818B3DFF85859287829
S315000012D009F06AFE09F0CEF880B1A188DFF834097A
S315000012E0C9B209F025FCA07009F0CEF8DFF838097C
S315000012F0DFF838190068401D086001E03820A0704A
S31500001300012009F0E6FD28700020DFF82419088086
S3150000131031BD382008E0A08807F07AFF18B9A08808
S31500001320DFF8F41805E03620A07031BDA088DFF89C
S31500001330EC18087031BD0020207031BD80B5012049
S315000013408DF800006846FFF727F99DF8000002BDFA
S315000013502DE9F04FA7B009F0D4F809F0EFF8DFF85F
S31500001360C8880446D8F80000817800270225FF299E
S315000013704FF003092DD1C1780679042511F03F00FD
S315000013804FF0050918BF492723D108060AD50AF0E8
S3150000139047F928B10AF048F9123C0746E4B218E0CA
S315000013A0482716E00AF043F9002818BFCB2E0AD0CA
S315000013B0CA2E18BFCC2E06D0CD2E18BF002E02D0B6
S315000013C0AA2E18BF48270AF02BF900281CBFCC2EDE
S315000013D04A27D8F80000465D90F801A0DFF82458A7
S315000013E00AF003018DF808102E71017869704844DF
S315000013F0DFF840180860DFF8341808604FEA5A1022
S3150000140000F0030068710AF0D8F9380018BF5826B2
S3150000141004D15FEA0A6002D5582632208AE2A8780B
S3150000142020B9287910B15826302083E20AF0A6FCAC
S3150000143010B9582642207DE2FFF780FF002800F011
S315000014407B822879A978DFF8F0B7020095A70FF21A
S31500001450582A4FF6FF7975D0012800F0FA81022844
S3150000146000F0AD80032800F0FF80052834D0062860
S3150000147000F04D81092818BF0A2800F050810B287A
S3150000148018BF0C2800F052810E2800F06681122841
S3150000149000F0AB81132800F0E181172800F0F181FC
S315000014A0262800F0E181272800F0E681472800F091
S315000014B0D881492800F041814E2800F075815228D4
S315000014C055D053286AD0552800F09180562800F050
S315000014D0A58065282AD0812800F00E818F2800F08B
S315000014E0FD81912800F01582942800F004829D2841
S315000014F000F0AA81AA2800F0AD80AB2800F0D680C3
S31500001500AC2800F0E880AD2800F0E880AE2800F0B6
S31500001510E880CA2800F0BF81CB2800F0C581CC281E
S3150000152000F0D081CD2800F0D081F12800F079813B
S31500001530F52800F0D980F62800F0DB80FC2800F0C2
S31500001540A781F2E102F070FA0446062002F085FA5D
S31500001550022002F082FA4FF4C44002F08AFAA87818
S31500001560002808BF062C01D10120A870E4E100F094
S3150000157013FA02F059FA8DF801006846FEF7E5FF06
S315000015809DF8000028B937208DF802000020ADF83C
S31500001590040001AB0DF10202B6A157E0012918BF04
S315000015A0382023D100F0F8F901AB0DF10102B1A109
S315000015B0012002F021FC6846FEF7D2FF25E038271D
S315000015C0012912D1611FC9B2052008F0A3FF044604
S315000015D0FF2C08BF352708D00AF0E2FB002814BF0D
S315000015E000273627204609F0DFFC3846A2E1042210
S315000015F000F0D3F90DF103030DF101023946012084
S3150000160002F0FAFB6846FEF78EFF9DF8000010B95F
S3150000161037208DF802009DF802008BE1042200F0CD
S31500001620BCF902F001FA8DF801006846FEF779FF71
S315000016309DF8000028B937208DF8020000208DF8AB
S3150000164003000DF103030DF102023946002002F0FA
S31500001650D3FB71E100F09BF902F0E6F98DF80E007C
S3150000166003A8FEF73BFF0BE000F091F904AB0DF188
S315000016700E02C0A1012002F0BFFB03A8FEF73DFF4A
S315000016809DF80C0028B937208DF80D0000208DF844
S31500001690140000F075F90DF10D025146002002F01C
S315000016A0ABFB49E1757500007575620000F06FF9D6
S315000016B000F066F90DF10E025146012002F09CFB86
S315000016C003A8FEF71CFF9DF80C0000280CBF37206E
S315000016D09DF80D002EE10AF077FC2DE10AF075FC6D
S315000016E02AE10AF076FC27E102F0CAF90AF075FC55
S315000016F022E10AF093FCC1E0062CF9DBDFF82C05A9
S31500001700DFF8281500680019401F086014E1012061
S3150000171000F047F9002840F02A8107260CE1092845
S315000017200CBF0120002002F057F905E10C280CBF80
S315000017300120002000F0E4F9FEE00121684607F0F0
S3150000174014FD28B1002002F088F9BDF8000095E0EC
S31500001750362002F082F9002090E002F065F9824618
S3150000176002F08EF9814602F05FF9074602F05CF955
S315000017700446B9F5004FB4BF042F702011DABAF150
S31500001780020F0FDA0BEBCA0A3A46DAF800004946AE
S315000017900AF066FCAAF8049004B900278AF80670D5
S315000017A00020C7E07020C5E002F03EF98146002423
S315000017B00020B9F1020FADF802008DF800000BDA37
S315000017C05BF839006A460DF102010AF059FC0BEB91
S315000017D0C900807900B10124BDF8020002F049F980
S315000017E09DF8000002F039F983E002F01DF90400CB
S315000017F018BF012400200AF075FC07463A46FF2A66
S3150000180008BF182029D0002C14BF48460220BBA1CF
S315000018100AF0B6FC002002F020F9384609F0C4FBB5
S315000018208AE04FF00009DFF8144434F8190002F09A
S3150000183020F909F10109B9F1280FF6DB28796528A5
S315000018407AD108F0D2FF77E002F01AF908F0EDFE3F
S3150000185072E002F0E9F80AF0E3FD6BE00AF09DFAA7
S315000018606AE00AF091FA67E0DFF8D413082002F084
S315000018701FF961E0757600000AF06CFF02F0F9F8D6
S315000018805AE0684602F09DF9684603F075FD51E09E
S315000018900BF0FBF84EE000F06FF802F001F901469C
S315000018A003A80BF00DF945E002F0BEF8044607A9BF
S315000018B000F063F803AA07A920460BF003F902F02B
S315000018C0CCF821E00BF000F934E068460BF0FEF8A6
S315000018D002F0C3F8009802F0DCF82DE00BF007F9EF
S315000018E00124484505D002F09FF8DFF8581300247C
S315000018F0087020461EE000F03FF807A900F03DF80A
S3150000190007A903A80BF04FF903A9102002F0D0F89D
S3150000191012E00BF0ECF802F0ACF8042002F09DF8AF
S31500001920182002F09AF8092004E0FEF743FE18B9E1
S315000019305826312002F091F8D8F80010687808701F
S31500001940D8F800008178002902BF2978002986701E
S3150000195004D0FF218170D8F800000671072E0CBF55
S31500001960012200229DF80800012100F02AF827B084
S31500001970BDE8F08F7577000003A9102002F05BB870
S3150000198005A8019005AB0DF11500009070478C225B
S31500001990002103A80BF07BB90622002168460BF054
S315000019A076B910B504469E48008848B108F0D1FDC6
S315000019B030B1A54800780122214600F002F8012046
S315000019C010BD2DE9F84F984F04463868884681784F
S315000019D0934602254FF00309FF299449096804BF7D
S315000019E004254FF005090E1A09F01AFE0028B6B2B2
S315000019F01EBF3868405DCC281CBF1236B6B25FEAFF
S31500001A000B0004D038684078C0F3411A02E009F0B0
S31500001A10D0FE82467D4909788A4505D340F22941A0
S31500001A200FF230200BF05CF94FEA4A1040F08000CC
S31500001A30DD2E5FFA80FA05DBDC2008F085FD4AF032
S31500001A40020A02E0F0B208F07FFD6E48C17819B1D3
S31500001A5000214AF0020AC1707C490A781AB10022B4
S31500001A604AF0010A0A706E4E318809B14AF0040A3A
S31500001A70BBF1000F06D05FEA080114BF4AF0080A5E
S31500001A804AF0100A396881F801A03968897811B9D5
S31500001A90012101700FE009F0C3FD00281EBF386860
S31500001AA0415DCC2904D08021C17009F0BBFD02E064
S31500001AB039680020C87009F0BAFD48B13868415D40
S31500001AC0CB2901BF10F809000028022009F0AEFD5D
S31500001AD0012C30885C4A18BF022C05D108B9147055
S31500001AE004E00020107004E0147010B9002008F023
S31500001AF0B9FD4046BDE8F24F08F0F4BC62000000B4
S31500001B002DE9F04198B0044601F08EFF0546062DFA
S31500001B1012D1DCB9282001F0A0FF4D48018802232C
S31500001B20224668460BF0EDF9BDF8000001F0A1FF72
S31500001B30641C142CF1DB5BE0082D01D00B2D01D1C8
S31500001B4024B952E0200003D0092D01D170204DE0C8
S31500001B5000260FF2141000EBC6073878854230D104
S31500001B6097F80180200004BF404601F076FF7868B0
S31500001B7001884346002201A80BF0C3F9200027D0B4
S31500001B8001F052FF97F80180404501D002202DE078
S31500001B90002000E0401CC1B2414501A905D2C0B2F7
S31500001BA0095CFF29F6D0462020E0404601F043FFBD
S31500001BB078680088424601A90BF07FFA002001F000
S31500001BC04CFF761CF6B20B2EC3D374B1B1200DE0D8
S31500001BD0092D05D1152200210DF14A000BF057F809
S31500001BE0787801A901F064FF02E0002001F035FFDA
S31500001BF018B0BDE8F081000050A00200B4DF032059
S31500001C0005FD0320FEFC0320CFDF0320BBDF0320FE
S31500001C10FBFC0320B3DF032004FD0320BDDF03200C
S31500001C20D6FC0320E6DF03205CE1032070E90320F5
S31500001C30B6F903206CE903202CDF0320B4F303205C
S31500001C40ACF30320E8DF032014FD0320D4FC0320BB
S31500001C50D0AA0200636F6D6D616E642D68616E645B
S31500001C606C6572732E63000001100000C8AA0200A2
S31500001C7002100000CAAA020003020000CCAA020059
S31500001C8005100000DAAA020007080000D6AA020022
S31500001C9000020000C4AA020004020000CEAA02004C
S31500001CA0095C0000DCAA02000A140000DEAA020099
S31500001CB00D020000D8AA02000C080000C6AA020005
S31500001CC02DE9F84F80460D46DFF8140C0A99067880
S31500001CD001247E2991469A46A8BF742043DA08005B
S31500001CE003D00B9809F0E3F901E000F0C5F883464C
S31500001CF00C9FBBF1FF0F03D100201824387031E090
S31500001D00342E06D0362E0ED0382E13D0962E18D05E
S31500001D101AE05B464A462946404602F0AFFA0446B8
S31500001D2002F0D9FF10E05B4642464946284602F0DB
S31500001D3005FB08E05B46EAB24146484602F079FBFD
S31500001D4001E00BF087FE0446962E1CBF99F80A00A8
S31500001D50387024B9DFF88C0B006800F80BA05846E1
S31500001D6009F022F92046BDE8F28F10B584B0089C30
S31500001D700294079C0194069C009407E010B584B079
S31500001D800446104600F00FF80A462146FFF798FF72
S31500001D9004B010BD10B5044684B00846114600F0E4
S31500001DA002F82246F2E7089A0292079A0192069AE8
S31500001DB000927047E0B50022019100900292002344
S31500001DC000210020FFF77CFF0EBD2DE9F04683B011
S31500001DD00D460C990746080091469A4603D00D9881
S31500001DE009F065F901E000F047F804460E9EFF2C65
S31500001DF003D10020182530700BE00A980190CDF829
S31500001E0000A023464A462946384602F0F7FA00F073
S31500001E1027F822E02DE9F04683B089460C9905465D
S31500001E20080092461F4603D00D9809F040F901E0DC
S31500001E3000F022F804460E9EFF2C03D10020182540
S31500001E4030700AE00A98009001943B465246494693
S31500001E50284602F095FA00F003F82846BDE8FE860B
S31500001E600500B87A307004D1DFF8781A09680B9843
S31500001E700855204609F098B8002009F0F7B838B59B
S31500001E80DFF8644A2080C888440606D5DFF85C4A35
S31500001E902478202C03D1000401D4702032BDDFF851
S31500001EA0504A1000216004D01146184609F0FFF888
S31500001EB001E0FFF7E1FF0546FF2D08BF18240AD011
S31500001EC020684088294602F0A5FC044602F003FF7C
S31500001ED0284609F069F8204632BD02F07CBE0BF0B8
S31500001EE0F7BE0BF0F1BE2DE9F041069F0D46044604
S31500001EF01646984639460BF06EFF20460BF083FFD8
S31500001F000799088038460CF08DF80899087029461C
S31500001F1020460BF0F6FE074638B9314620460BF050
S31500001F202EFF414628460CF09BF83846BDE8F08166
S31500001F30DFF8C0391B78984201D370207047DFF86C
S31500001F40B829126832F820300B8002EB80008078C6
S31500001F50887000207047DFF89C391B78984201D3BF
S31500001F6070207047DFF8902912680B8822F820301D
S31500001F7002EB8000897881700020704730B585B00B
S31500001F800C4604F0B0FA0546002020731023072201
S31500001F906946012006F0EFFF082202A920460AF052
S31500001FA033FEBDF80000208104F114019DF8020003
S31500001FB0A0729DF80300E07204F110000CF0A9F87D
S31500001FC0E08105B0284630BD38B504460D460AF016
S31500001FD097FC0146082220460AF016FE0AF08CFC01
S31500001FE02880DFF81809007832BD0CF056BCFF22B5
S31500001FF003F040BA70B5A2B00D460446694604F037
S31500002000A1FB060004D12A466946204601F0D9FE06
S31500002010304622B070BD10B504462078002841D164
S31500002020012020722070A078401E0BD0401E07D0E1
S31500002030801F07D0401F05D0401F022802D903E0A9
S315000020400220207200206070A07801280CD002289F
S3150000205014D008280CD00D280DD0122817D013281C
S3150000206017D0142818D01BE0DFF89408007815E084
S3150000207002F04FFF12E00DF09EF90FE0DFF8840842
S31500002080018804F10900BDE8104006F060BEFF209B
S3150000209004E003F0E9F901E00DF016FB607210BDF3
S315000020A00020207010BD10B5044682B0207858BBC1
S315000020B00120207000206070A07818B1022819D085
S315000020C00BD31FE061686A46C9B209F0CFFE6070A3
S315000020D00220207204F1090007E0032020726846FE
S315000020E00DF0BDFC607204F10A00BDF8001006F0A8
S315000020F02EFE13BD01202072606880B202F07BFDC7
S31500002100607213BD0020207013BDF0B5044687B081
S315000021102078002840F01A8101202070A078010064
S3150000212027D0012849D002284ED0052818BF0628F6
S3150000213052D0082800F0FB8009285BD00A2800F05E
S315000021407E800B2800F080800C2800F0C4800F28C9
S3150000215000F0C580232818BF242800F0CD8025284C
S3150000216000F0DB80292800F0E480342800F0E380CA
S31500002170EAE0207A102860D100F0EAF8ADF8040011
S31500002180082294F90B008DF8060004F11001207B5B
S315000021908DF80700607B8DF80800A07B8DF809009C
S315000021A0E07BADF80A0003A80AF02EFD10230722F3
S315000021B001A9002006F0DFFEC3E0207A01283CD109
S315000021C0607ADFF83C17BBE0207A022835D100F0B0
S315000021D0BFF8DFF830170BE0207A02282DD100F087
S315000021E0B7F8A17805290CBFDFF81C17DFF81C1714
S315000021F00880A6E0DFF818070568207A46080DB9BA
S31500002200DEB99EE0DFF80C070078B04215DB002748
S3150000221007E004EB4700093006F092FD25F81700A9
S315000022207F1CB742F5DB4FF4004725F816702846A9
S315000022300DF055FE002801D02F80362082E000F0F8
S3150000224087F80EF032F87CE000F082F8DFF8C82656
S315000022501268527B05464FF6F87122B9884202DAB7
S315000022600AF07CFA6DE02A002FD088422DDA0AF0B7
S3150000227071FA854229D028460EF0E8FE28BB05A94A
S3150000228028460BF069FE00BB28460FF056FCE0B965
S3150000229028460FF077FDC0B928460FF086FFA0B993
S315000022A028460CF03DFB80B9284610F059FD60B970
S315000022B028460AF053FA99231322A1A1032010F00D
S315000022C0B9FD992010F0F2FE3BE00AF043FA854290
S315000022D037D0382036E0607ADFF8401630E0657A8D
S315000022E004F10A0006F02CFDADF800006A46294606
S315000022F0012009F0BBFD25E0217A042912D123280B
S315000023000CBF0325012504F10901012006F031FD6A
S315000023100146284610F05EFF14E0607A032818BFD5
S31500002320042801D002200DE003F0B0FF09E03720B9
S3150000233008E0702006E0607A00B10120DFF8E015C1
S3150000234008700020607001E00020207007B0F0BD2A
S3150000235004F1090006F0F4BC10B50446DFF8800568
S315000023600078217856280CBF0120002009BBA170F7
S31500002370DFF878256178032905D108B150780FE098
S31500002380E078507013E0022905D108B1107807E013
S31500002390E07810700BE009290BD118B104F04AF966
S315000023A0E07004E0E07800B1012004F035F9012086
S315000023B0207010BD017801B1704730B581700121E0
S315000023C001704178052908D0122915D018290CD09A
S315000023D01F2914D0382915D018E0DFF84815DFF882
S315000023E0482509781278891A24E0DFF840150A781A
S315000023F0511E8941C90F1DE0DFF8341504E0DFF8EE
S31500002400341501E0DFF83015098813E000220FF2D9
S31500002410DC5300E0521CD2B214461D5DFF2D02D1E2
S315000024200021017030BD8D42F4D10FF2DC5151F81C
S3150000243024100978818030BD70B5044620780028C4
S315000024407BD10120207000206278A070052A0AD076
S31500002450122A2CD0182A1FD0192A04D01F2A22D0BB
S31500002460382A2FD033E0DFF8C0040578DFF8B4044B
S3150000247001784E1BA188052A0CBF0E460D46A919E8
S31500002480C9B208F055FB0028A07056D1E9B2F0B2E7
S31500002490BDE8704011F006B9A188481E8041C00F02
S315000024A0DFF888143FE0A088DFF888140DE0A188E3
S315000024B047F231508142A8BF36203BDADFF870047C
S315000024C0018070BDA088DFF87014088070BD0FF21F
S315000024D01C5100E0401CC0B20346CD5CFF2D02D16A
S315000024E00020207070BD9542F4D1A188022B08DA35
S315000024F0DFF8480450F823000078884238BF3620B9
S3150000250018D30FF2045050F82300092B0DDAC9B284
S3150000251008F00EFBA070002804BF607811280CD1CB
S31500002520A088DFF81C14087070BD342A04D1C9B223
S3150000253008F0FEFAA07070BD017070BD00000000CA
S3150000254042420000F8B504460D461146184608F00A
S31500002550AEFD18260746FF2F08D03A4629462046E4
S3150000256011F0F4FB0646384608F01EFD3046F2BD73
S3150000257038B504460D462188284606F0E8FB6188F2
S31500002580A81C06F0E4FB2079287160796871A81D03
S31500002590E18806F0DCFB218905F1080006F0D7FB8F
S315000025A0A07AA87231BD10B586B004461B208DF8FE
S315000025B00000A0788DF801000DF10200218806F0D8
S315000025C0C6FB0822211D01A80AF01EFBE1788DF842
S315000025D00C10217B8DF80D10607B8DF80E000DF12F
S315000025E00F0000F0EAF9112100F01FF906B010BD46
S315000025F080B51C228DF801008DF802108DF80020A0
S31500002600D9E02DE9F04788B007460D46144611F08B
S3150000261013FC824622462946384609F0B3FB0028B9
S3150000262063D10DF1090011F00FFC30B962208DF86D
S315000026300800092102A810F054FCFF2C0FBF002649
S31500002640C04909680E5D45208DF808008DF80970AF
S315000026500DF10A012846FFF78BFF0DF1150000F07A
S31500002660ACF951460DF1170006F071FB02F0F7F8D0
S315000026708DF819000027B448DFF8AC820568DFF84A
S31500002680A49201E07F1C0C3599F8000098F8001020
S31500002690FFB2401A87420ADA28885045F2D109F07B
S315000026A0B0F8A97AC1F342018142EBD100E0FF27DD
S315000026B08DF81A708DF81B60504602F09CFA8DF862
S315000026C0040000B10120009001AB2246142102A8AB
S315000026D010F00FFC00281EBF84480078212804D182
S315000026E09A48017841F00401017008B0BDE8F0870E
S315000026F02DE9F0430746934800681D4687B0465DBE
S315000027000E9C884691462146384601F032FC3F2011
S315000027108DF804008DF8057041460DF1060006F0AF
S3150000272016FB02A94846FFF723FF6E480068405D86
S315000027308DF813008DF8144085480078402804BFB2
S315000027400026FF25002000908DF8156000232A46FC
S31500002750122101A810F0CDFB07B0BDE8F08330B51B
S3150000276089B00D46044604A90CF097F823208DF88D
S3150000277000008DF801408DF802500DF10300BDF800
S315000027801A1006F0E4FA082204A90DF105000AF071
S315000027903BFA9DF818008DF80D000E2100F045F863
S315000027A009B030BD80B57C218DF8001001460DF1D1
S315000027B0010006F0CCFA0321684610F092FB01BD39
S315000027C070B586B004467D208DF800000D4616468D
S315000027D021460DF1010006F0BAFA082229460DF14C
S315000027E003000AF011FA8DF80B600C2100F01DF8B9
S315000027F003A811F029FB18B903A9204610F058FFC9
S3150000280006B070BD38B504460D4601F091FB802038
S315000028108DF800008DF8014029460DF1020006F002
S3150000282096FA042100F001F831BD684610F059BB54
S3150000283010B584B0044646208DF8040001A821781E
S315000028404170617881700DF1070000F0B6F83D48DF
S31500002850A1780068405C8DF80900002300200090F4
S315000028600621A27801A810F044FB1FBD80B5982070
S315000028708DF800008DF80110684602219DE71FB50E
S315000028800C4692218DF80410082201460DF1050030
S315000028900AF0BAF90DF10D0000F08FF8294800682A
S315000028A0005D8DF80F0000230020009022460C21C9
S315000028B0D8E7244A00B5126883B0125C8DF805107B
S315000028C093238DF8062000218DF8043000910246EE
S315000028D00023032101A810F00CFB07BD0000000037
S315000028E002FD032050F503205AFB0320D5DF032009
S315000028F05CFB0320B9DF032060DE032016FD032006
S315000029001CFD0320ACDF0320A2DF0320A4DF03208D
S3150000291080FB03204CF5032038F50320CCFC032074
S31500002920F3DF0320C1DF0320A1FC0320B5DF032072
S315000029308CDF032088DF03209CDF0320BCDE03201E
S31500002940C6DF032030DE032094DE032058FB03207D
S31500002950CFDF03207FB504460D46164669460120A3
S3150000296003F0F0FE28B140F213510FF260000AF0B6
S31500002970B7F94D208DF8040001A844708570012038
S315000029808DF808008DF809008DF807600DF10A0032
S31500002990BDF8001006F0DBF9BDF8021003A806F03A
S315000029A0D6F90A2101A810F09CFA7FBD80B50BF07C
S315000029B09BF9BDE8014011F061BA10B5044611F06B
S315000029C034FA601CBDE8104011F031BA636F6D6DCA
S315000029D0616E642D68616E646C6572732D7A6967C9
S315000029E06265652D70726F2E63000000110203068A
S315000029F007081A2B2C1910131B1C1D2021222A2E06
S31500002A0033343537FF000000B6DF0320BCDF032078
S31500002A10C2DF0320B9DF0320B7DF0320B8DF0320BE
S31500002A20F4FC0320BADF03204CF50320A1FC0320AD
S31500002A30C7DF0320C8DF0320C9DF0320C3DF03206D
S31500002A40F6FC03201DDF0320CADF0320CBDF0320B3
S31500002A50FAFC0320FDFC0320F7DF0320BDDF032083
S31500002A605BF50320EEDF032038B504460029104647
S31500002A7001461A46204602D012F022FE01E012F06C
S31500002A80F0FD0546002C1EBF04980028A04203D086
S31500002A902146142212F080FE284632BD024602204C
S31500002AA000291CBF104612F0A3BE70470246022042
S31500002AB000291CBF104612F02EBF70471CB50446F5
S31500002AC00020ADF800002078F8B902202072A07826
S31500002AD00A280AD0102810D101A813F004F9607052
S31500002AE0BDF80400ADF8000004E000206070684600
S31500002AF00DF0F4FB0120207001E0207828B1BDF82C
S31500002B00001004F1090006F022F913BD38B5044699
S31500002B102078002804BFA078102812D104F10901FA
S31500002B20012006F026F9054604F10D0006F008F925
S31500002B30ADF800006946284613F0AAF86070012037
S31500002B40207031BD76490978027856290CBF0121DB
S31500002B5000212ABB8270012202704278130006D13E
S31500002B60704A09B1117811E0C07810707047052AD3
S31500002B7005D16D4A61B1117841F0500106E0062A8F
S31500002B800CD16A4A21B1117841F06001C1707047D9
S31500002B90C17801F00F01C1701170704700210170FA
S31500002BA0704710B504462078B8B900F045F806D04D
S31500002BB01E2807D0242807D0362808D00BE009F0B5
S31500002BC0A3FE06E05A4800E05A48007801E05A4859
S31500002BD00088A08010BD0020207010BD10B50446EE
S31500002BE0207840BB00F028F806D01E280AD02428FA
S31500002BF012D0362819D01CE0A088BDE81040C0B21B
S31500002C0009F086BE4D48A188007888420AD3C9B229
S31500002C10474807F08DFF06E0A1880B2902DA4548F0
S31500002C20017010BD3620A07010BDA08842490880F2
S31500002C3010BD0020207010BD012020700020A07063
S31500002C4060780D28704700002DE9F04F1646012EDA
S31500002C5089B0804689469A4612D10124002506A8E5
S31500002C600DF046FB022755EA0401DFF8B8B005D09F
S31500002C7058B9BDF81800800707D535B1032715E008
S31500002C800024032EEAD10125E9E79BF80000052878
S31500002C900AD8DFE800F0030605090841012705E028
S31500002CA085B1002702E02746022F0BD009F052FD1E
S31500002CB0824507D0514640460AF0DDFF4946404668
S31500002CC010F0F6FC019753469BF800000090324640
S31500002CD049464046FDF769FC044624208DF8080065
S31500002CE041460DF1090006F032F8082249460DF179
S31500002CF00B0009F089FF8DF813608DF814405146DA
S31500002D000DF1150006F023F80F2102A810F0E9F8DE
S31500002D10204609B0BDE8F08F002DC2D0AEE7000016
S31500002D2002FD0320D2DF0320F8FC0320C4DF0320CA
S31500002D30F7FC0320FCFC03208ADF0320E6AA02003E
S31500002D4080B56E218DF800108DF8010002216846CD
S31500002D5010F0C7F801BD10B584B00C469B218DF864
S31500002D600010082201460DF1010009F04DFF8DF813
S31500002D7009400A21684610F0B4F81FBDF0B583B0CB
S31500002D8010F8014B0E461746214608F090F9054605
S31500002D90FF2D03D10E4901200870F7BD8E208DF856
S31500002DA004008DF80560002000908DF806708DF8FF
S31500002DB0074000232A46042101A810F09AF8284665
S31500002DC008F0F2F8F7BD00B1024812F0CDBF0000DE
S31500002DD0D4FC03207D2D000000B58028A1B0A8BF3B
S31500002DE002200ADA8DF8000002460DF1010009F012
S31500002DF00BFF0021684613F05BF821B000BD10B54B
S31500002E0004462078002804BFA07833280FD101207B
S31500002E10207009B1002004E0607A13F099F800B13F
S31500002E20362060700120207213F0A2F8607210BD87
S31500002E300121E4E70021E2E730B58BB004460D46F8
S31500002E402A22FF21684609F022FF2146284608F07B
S31500002E502EF90446FF2C08BF182505D013F09EF85E
S31500002E600546204608F0A0F828460BB030BD10B540
S31500002E704E4C2178FF29A8B008BF702020D0002032
S31500002E8000904A2300220AA808F02DF9002000909D
S31500002E90252321784A221DA808F025F90020009054
S31500002EA0242321786F2201A808F01DF9207808F064
S31500002EB07BF8FF20207001AA0AA91DA813F07BF851
S31500002EC028B010BDF8B5394F04463878FF280D46AE
S31500002ED0164608D19321002008F0E9F8FF2838703B
S31500002EE001D13520F2BD01200090334639782A46BB
S31500002EF0204608F0F8F80020F2BD10B50446A6B04A
S31500002F00207860BB01202070A0781A2804D024D332
S31500002F101C2815D00AD320E04A2204F1090113A87F
S31500002F2009F072FE4A22002113A812E0252204F1BC
S31500002F30090109A809F068FE25224A2109A808E026
S31500002F40242204F10901684609F05EFE24226F215D
S31500002F506846FFF7B7FF607001E00020207026B0DA
S31500002F6010BD0178002904BF417829290CD11049E8
S31500002F700978522904D10F4909788180002100E09F
S31500002F803821817001210170704710B5074C2078F7
S31500002F90FF281FBF06490978AB29ED2903D008F0A1
S31500002FA003F8FF20207010BD00000000D4DF0320CE
S31500002FB002FD0320F9FC032011B1012903D004E02E
S31500002FC0114604F0EFBD04F040BE0220704710B574
S31500002FD004462078002804BF607808280ED11448DB
S31500002FE00078562803D105F0B7FAE07002E0E078E1
S31500002FF005F0B5FA0020A0700120207010BD017800
S31500003000A1B941782F2908BF0A4902D030290DD12C
S31500003010094959B1064A1278522A07BF09788180B0
S3150000302082880A70002181700121017070470000BA
S3150000303002FD0320CDDF0320CEDF032030B58FB0A5
S3150000304005460C463B220021684609F020FEB620C4
S315000030508DF800000DF10101284600F076F8DCB18C
S3150000306000218DF82910082221460DF12A0009F0C9
S31500003070CBFD0DF12905207A68720DF133006189C7
S3150000308005F065FEA1890DF1350005F060FEA07B17
S31500003090A873E07BE87302E001218DF829100DF199
S315000030A03900FFF78AFC3B2100F00CF80FB030BD69
S315000030B080B5B7218DF800108DF80100022100F0CF
S315000030C001F801BD68460FF00CBF10B586B0044686
S315000030D0B8208DF800000DF10100218805F037FEBB
S315000030E061880DF1030005F032FEA1880DF105009F
S315000030F005F02DFEE1880DF1070005F028FE218977
S315000031000DF1090005F023FE61890DF10B0005F0B4
S315000031101EFEA1890DF10D0005F019FE0DF10F003F
S31500003120FFF74BFC1121FFF7CDFF06B010BD00B530
S315000031308BB0BB218DF800100DF1010100F005F8F0
S315000031402921FFF7BFFF0BB000BD38B504460D4679
S31500003150A0782870681C218805F0F9FD0822211D39
S31500003160E81C09F051FDE078E87205F10E01207BBC
S315000031702873607B68730120226905F0ECFD6269A3
S3150000318005F11201012005F0E6FD218B05F116007F
S3150000319005F0DDFD082204F11C0105F1180009F017
S315000031A033FDA18C05F1200005F0D1FDE18C05F180
S315000031B0220005F0CCFD04F1280105F124000A786F
S315000031C002704A7842708A788270C978C17031BDBF
S315000031D0F8B5BB4D0446286800792B38022801D97A
S315000031E00D382ED100F020FC06462868B549401D52
S315000031F00860002131200FF03CFF05464FF6FF77AF
S315000032000BE005F10D0080B20FF060FEB04213D066
S31500003210294631200FF02DFF0546BD42F1D1002190
S3150000322000E0294632200FF024FF0546BD4208D0B3
S315000032300FF04CFEB042F4D1A42000F00EFC0020AA
S315000032402070F1BD38B50446002100E029463F2034
S315000032500FF00FFF05464FF6FF7085420CD028464B
S315000032600FF034FE0228F1D1681C80B20FF02EFE5A
S31500003270A042EBD1012032BD002032BD2DE9F8433A
S315000032808046002145200FF0F4FE4FF00009044669
S315000032908D4D4FF6FF7609E0FF21B8B20FF01BFE09
S315000032A0A1B245200FF0E5FEA1460446B44224D063
S315000032B004F11007B8B20FF009FE4045F0D12046E0
S315000032C00FF004FE022818BF0328E5D1A41FA0B200
S315000032D00FF0FCFD01462888401A32187B482A80E8
S315000032E00919121B92B2007800924B1C9BB202463F
S315000032F0A1B208F0F0F84C46D2E7BDE8F183F0B58C
S31500003300734F3D788BB0064608F07BFA08F055FA05
S3150000331000F07BF806D012282FD17188707808F05B
S31500003320E8FD50B3707804A908F082FD88B1BDF8B5
S31500003330100040F20911884204BF7088B0F5006F92
S3150000334007D1701D12F042FEB52802D0A8B900249C
S3150000335013E00124002500E06D1C3978E8B28842AC
S315000033600BD206A900F099F99DF818000028F3D1B0
S315000033703146E8B200F09CF9044631208DF8000091
S3150000338030788DF8010070788DF802000DF1030099
S31500003390718805F0DCFC30798DF805000822711D76
S315000033A00DF1060009F030FC8DF80E508DF80F4037
S315000033B0102168460FF095FD20460BB0F0BD38B5DC
S315000033C0054608F01EFA08F0F8F900F01EF818BFD6
S315000033D012280DD12846FFF735FF08B1752407E0FE
S315000033E0284600F0B0F9040004BF2846FFF746FF60
S315000033F032208DF800008DF801508DF8024003212F
S3150000340068460FF06EFD204632BD324800786C24C7
S315000034101128704738B504460D46FFF713FF08B16B
S31500003420752511E03DB108F0C4F9687329462046B8
S3150000343000F03EF902E0204600F085F90546280036
S3150000344004BF2046FFF71AFF284632BDE2E70021F7
S31500003450E0E721490978027856290CBF01210021AD
S31500003460002A04BF4278012A0AD11A4A002919BF44
S315000034701178C170C178117000218170012101702D
S31500003480704710B504462078002804BF60780428E9
S3150000349014D111490E480978522903D10078A08029
S315000034A0002008E00D4AA18812788A4232BF3620F1
S315000034B0C9B207F03DFBA0700120207010BD0000CE
S315000034C05CE103206CE90320D6FC0320E6DF032041
S315000034D0F5FC0320D3DF032002FD0320E4AA02004B
S315000034E01FB50C4602460D231521684609F009FD55
S315000034F00D226946204609F087FB20784009607353
S31500003500207800F01F0020701FBD30B585B004463E
S315000035100D460D22684609F077FB9DF80000697B91
S3150000352040EA41108DF800000D236A462146152019
S3150000353009F02AFD05B030BD2DE9FF41044600F033
S315000035405FF814E03068EDB2A84630F81800A042E3
S315000035500CD16946284600F0A0F89DF80000022824
S3150000356004D031684FF6FD7021F818006D1CE8B2E2
S3150000357039788842E6D3BDE8FF812DE9F0458846D3
S315000035804FF6FF7AD04585B0044605D100F0D8F94C
S3150000359010B909F0DFF830E000F032F80CE0D04561
S315000035A008D0306830F81510414504BF4FF6FD715C
S315000035B020F815106D1CEDB2387885421CDA30689B
S315000035C030F8150000F018F9F4DA69462846FFF7D6
S315000035D087FF082221460DF1050009F05FFB002850
S315000035E0DDD13068D04502D130F8150005E020F86D
S315000035F0158012F026FDDDE7504605B0BDE8F085E2
S315000036000025DFF8C463DFF8C47370472DE9FF4770
S31500003610804689460026DFF8B873DFF8AC43DFF84A
S31500003620AC5316E02068F6B2B24630F81A0000F045
S31500003630E3F80DDA69463046FFF752FF08224146A5
S315000036400DF1050009F02AFB10B9386800F80A9058
S31500003650761CF0B229788842E4D3BDE8FF87DFF80C
S315000036606813096831F8100070471FB5DFF85C234E
S31500003670127890420C460FD2D349096831F81010DF
S315000036804FF6FE72914207DA694600F006F82146C7
S315000036900DF10500FFF771FF1FBD80B5CB4B1B7801
S315000036A0984201D3692002BDFFF71AFF002002BD30
S315000036B070B504460D4623460022B4A103200FF040
S315000036C0B9FB28780028204602D1BDE870403AE0D0
S315000036D0BE490978884201D3692070BD13F0DFF82E
S315000036E008B1752070BD08F043F86873681D0AF0CC
S315000036F099FC06464FF6FF71681DFFF73EFF02462E
S3150000370029783346204600F006F829462046FFF77A
S31500003710FCFE002070BD30B54FF6FF740D0008BFEB
S31500003720224608D0032908BF4FF6FE7203D0A242F4
S3150000373008BF4FF6FD72A449096821F81020A44974
S3150000374009680B5430BD30B505462C4685B0234676
S3150000375001228EA103200FF06DFB9C4909782846B3
S31500003760884228BF692019D213F099F808B175204C
S3150000377014E069462846FFF7B3FE9DF8000030B115
S3150000378000208DF8000069462846FFF7BEFE8E49E8
S3150000379009684FF6FF7021F81400002005B030BD0F
S315000037A0F0B585B007460C46874D884E00E07F1C75
S315000037B03178F8B288421CD22868FFB230F8170078
S315000037C000F01AF8F3D169463846FFF789FE9DF8EE
S315000037D00500E1B2884204BF9DF80610B1EB142F34
S315000037E0E5D107F0C5FF9DF80D108142DFD13846BF
S315000037F000E0FF2005B0F0BD4FF6FE71884270472D
S315000038002DE9F14F84B00D460E9C6F4FDFF8BCA139
S3150000381090469946002607E03868BDF8101030F843
S315000038201B0088422CD0761C9AF80010F0B2884211
S3150000383028D23868F6B2B34630F81B00FFF7DCFF33
S31500003840F1DA69463046FFF74BFE5FEA080007D11A
S315000038509DF80100484504BF9DF80400A042E2D14E
S3150000386007F086FF9DF80D108142DCD1002DD3D0E4
S3150000387008220DF10501284609F010FA0028D2D1D8
S31500003880304600E0FF2005B0BDE8F08F10B51446C5
S31500003890FFF726FE2046BDE8104008224D4909F0F4
S315000038A0B3B92DE9FF470446084615461E4600F003
S315000038B047F808B1002040E00027DFF80C81DFF868
S315000038C00C9100E07F1C99F80010F8B2884223D2D0
S315000038D0D8F80000FFB2BA4630F81A004FF6FF716A
S315000038E08842EFD069463846FFF7FAFD0C220DF103
S315000038F00101601C09F0D2F90028E3D1BAF1FF0FEB
S315000039000CD10020307007F052FF307855B138B92D
S315000039102046FFF7F4FC09E0FF27F2E70120F1E774
S31500003920012006E028B13846FFF749FD401E8041D8
S31500003930C00F307007F0F8FE012004B0BDE8F08734
S315000039400822244909F0AAB930B585B000241F4DD4
S3150000395016E06946FFF7C4FD9DF80000042806DB63
S3150000396000208DF800006946E0B2FFF7CEFD9DF815
S31500003970001000234FF6FF72E0B2FFF7CCFE641C86
S315000039802978E0B28842E4D305B030BD4242000057
S3150000399030B585B002220BA103200FF04BFA0020B0
S315000039A08DF800000024094D03E06946FFF7ADFDE0
S315000039B0641C2978E0B28842F7D3FFF7C5FF0020E0
S315000039C005B030BD4200000088DE0320F5FC032070
S315000039D08CDE0320ACF3032030B583B0044600F040
S315000039E023F80546202D1ADA5CB16946082000F056
S315000039F022F808236A462946202009F0C5FA002045
S31500003A000EE008232A462021684609F07AFA0020AB
S31500003A1000F023F86946082000F04AF837BD702008
S31500003A2000F01BF837BD70472A480168491C016041
S31500003A3011F8010D704738B50446264D0846296829
S31500003A40224609F0E1F828682044286031BD214A61
S31500003A50116808441060084670471F491F4B0A68E2
S31500003A601B68D31ADC2BB8BF10700868401C0860AE
S31500003A70704710B50446C0B2FFF7EFFF200A48E0D2
S31500003A8010B5FFF7D1FF00F042F904EB002080B239
S31500003A9010BD10B5044680B2FFF7EBFF200CB7E06F
S31500003AA010B5FFF7EDFF00F05EF804EB004010BD27
S31500003AB038B5094C094A2368126805469A1AAA18A5
S31500003AC0DD2A03DA0246184609F09EF820682844E3
S31500003AD0206031BD6CE9032070E903205CE103201E
S31500003AE010B500F042F8FFF7CBFF2081FFF79CFFEF
S31500003AF0A072FFF799FFE072FFF796FF2073FFF7BA
S31500003B00BFFFE081FFF790FF2074FFF7C9FF6061F8
S31500003B1010BDBDE81040A0E710B500F024F82080E5
S31500003B20FFF7AEFF6080FFF77FFF2071FFF77CFF96
S31500003B306071FFF7A5FFE080FFF7A2FF2081FFF786
S31500003B4073FFA07210BD10B500F00AF8A078E0E788
S31500003B5010B500F008F82080FFF766FFA07010BDD2
S31500003B600446208885E704468AE70446214608205D
S31500003B7061E710B500F0CBF8A070FFF781FF208059
S31500003B80211D00F0C2F8FFF74FFF00B10120E070E1
S31500003B90FFF74AFF2073FFF747FF607310BD10B5AC
S31500003BA00446214600F07FF82069BDE8104070E722
S31500003BB010B50446214600F078F8FFF771FF206142
S31500003BC010BD10B5FFF7CFFF208010BD207944E768
S31500003BD010B50446FFF7CDFF04F1100000F01BF806
S31500003BE004F11C0100F091F8FFF74AFF24F8240FB6
S31500003BF0FFF746FF6080FFF717FF2071FFF714FFFE
S31500003C006071FFF711FFA071FFF70EFFE07110BDA5
S31500003C10BDE810402DE710B50446FFF741FF2060D0
S31500003C20FFF73EFF6060FFF72BFF208110BD10B548
S31500003C3000F010F800F08CF8E088FFF71AFF2089F2
S31500003C40FFF717FF6089FFF714FFA089FFF711FF41
S31500003C50A07B5EE7044620681BE710B50446FFF725
S31500003C601FFF2060FFF70CFFA080FFF709FFE08031
S31500003C70FFF706FF2081FFF703FF6081FFF700FFD4
S31500003C80A081FFF7D1FEA07310BD10B5FFF7E2FFCC
S31500003C90FFF79CFF611D00F006F804F11501BDE871
S31500003CA01040102004E7102002E71020C3E610B5EC
S31500003CB00446207AFFF7D1FE207A010006D120685B
S31500003CC0FFF7E7FE2068FFF7E4FE04E0022802D1D2
S31500003CD0214600F002F8607A1BE70820E8E610B5F6
S31500003CE000F015F80100207206D1FFF7D9FE20601A
S31500003CF0FFF7D6FE206004E0022802D1214600F03C
S31500003D0004F8FFF791FE607210BD082093E60446A2
S31500003D108AE638B5044602252078FFF79EFE20780D
S31500003D20401E012806D96089FFF7A3FEA11CFFF7F4
S31500003D30D4FF09E000F00CF800F00CF800F008F8E9
S31500003D4000F008F800F004F80C346D1EE4D131BD23
S31500003D50A0888EE660888CE610B504462078FFF7CA
S31500003D607CFE6068FFF795FE04F10800FFF79FFFF1
S31500003D70A08AFFF77EFEA07DFFF76FFEA069FFF722
S31500003D8088FE04F11C01FFF78EFF04F12C00FFF7FB
S31500003D90C0FF14F8440FFFF760FE6078B9E610B56F
S31500003DA0FFF7DEFEFFF7D6FFA08831E710B5FFF775
S31500003DB0DAFE2080FFF764FE6080FFF761FEA080D8
S31500003DC010BD30B502F8010B002312E031F8234094
S31500003DD002F8014B31F82340240A02F8014B01EBAB
S31500003DE083045B1C658802F8015B6488240A02F878
S31500003DF0014B8342EADB30BD0CB4F8B505460C46F0
S31500003E0006AE08E056F8040B290003D00078FFF749
S31500003E101EFE3860641C2078010037D056F8047BFB
S31500003E20622827D07028EDD0732818BF752804D0D3
S31500003E3076280CD0772814D0ECE7280003D0FFF7BB
S31500003E40F3FD3870E6E73878FFF707FEE2E728006B
S31500003E5003D0FFF715FE3880DCE73888FFF709FE48
S31500003E60D8E7280002D0FFF71BFED2E73868FFF735
S31500003E7010FECFE756F8040B00782900394602D029
S31500003E80FFF7D9FDC6E7FFF713FEC3E7F1BC5DF800
S31500003E900CFB000070B55D4D6E8A044605F1080006
S31500003EA012F06FFD012C08BFAE8A02D0022C08BFAB
S31500003EB0022618B1FA217143884206D3310205F170
S31500003EC00800BDE8704012F04FBD70BD7CB54F4C88
S31500003ED00020E07020714FF6F972208A90421CBFD4
S31500003EE04FF6F872904202D00020207273BD6179BD
S31500003EF0474E4FF6FD7589B14FF6FC7001900023D1
S31500003F00002000900022308800210BF03CF80020B1
S31500003F10607135800120BDE87640BBE7A17810F0DE
S31500003F20A5F93088A842F5D0012060710220F2E799
S31500003F3010B500F039F81CBF4FF6F874A34217D13C
S31500003F40A92818BFAA2813D1D0781378401CD0709E
S31500003F50C0B298420CD32E4803884FF6FD74A34294
S31500003F6002D10180002050710020BDE8104091E789
S31500003F7010BD10B500F018F81CBF4FF6F874A34238
S31500003F8011D103001CBF012802280CD166290AD1D1
S31500003F9010795178401C1071C0B2884203D3BDE835
S31500003FA01040002076E710BD184A138A4FF6F974C0
S31500003FB0A342704710B5154C2182920002992170D8
S31500003FC09B0003996282A38261709BB20499A170DF
S31500003FD092B293420AD301001EBF218A4FF6F872AD
S31500003FE091421CBF4FF6F972914201D0702010BD6C
S31500003FF0002161714FF6FD71054A118018B101204B
S31500004000FFF748FF00E02072002010BDA0EA032061
S3150000401094DF03202DE9F54F8BB08B460C98169C48
S315000040201799ADF804B00026C0889A460746B046F0
S31500004030B14649B9F90607D50C9A9DF82C000094AB
S31500004040594611F0ADFF16E1790548BF4FF4805887
S31500004050390548BF48F40068B90548BF48F08008EC
S3150000406003D4F90548BF48F040089DF82C1002918A
S315000040705D469DF82C1003910A2966D8DFE801F009
S31500004080082F1B3C65653C06083C18004FF00209EA
S31500004090BDF80420CDF800A0334648F4027120464E
S315000040A00BF068FA8246BAF1FF0F50D11820E2E011
S315000040B04FF00309ECE706A95FFA8BF0FFF7EDFA7C
S315000040C008220DF11D0104A808F09EFDDFF88808FE
S315000040D0006830F8150004AEADF80400D8E704A96E
S315000040E05FFA8BF009F077FEDFF8700800680C21A4
S315000040F0694304AE405AEFE74FF6F8718D4224DB70
S315000041004FF40261084220D100F012F918BF912045
S315000041101CD1FF2C0FD000F076FB029903290CBFAF
S3150000412001210021401ADFF838180968095D884224
S31500004130B8BF74200ADB029803280CBF4FF00C09A5
S315000041404FF0080928F4C078A2E7012093E0DFF8D1
S31500004150145828884FF6FF71884218D0504612F03E
S3150000416034FD0090001D298804F0F1FDDFF8F80702
S3150000417000990078C8714FF6FF7028805FEAC84042
S3150000418005D500980822291D083008F03DFD0C9A37
S31500004190494650460BF0C2FB08B9182667E0DFF81F
S315000041A0CC070068C07E70B1B8060CD5F8074CBFC6
S315000041B02020002040F001033246002150460FF037
S315000041C0A3F9060053D1FF2C15D0504612F0F3FC8C
S315000041D0DFF898170968C97E01B11221DFF8802738
S315000041E01268135D12F80A20D218743089188842B2
S315000041F0B8BF74263BDBB80407D5504612F0F5FC71
S3150000420040F48061504612F0F2FC0298082812BF72
S315000042100928504612F0F8FC179848B1BDF804106A
S31500004220504612F00AFD179880F800A0002022E000
S315000042300398C01E05D0C01E012884BFC01E0128D9
S3150000424007D850460FF069FE00280CBFA1260026AD
S315000042500DE0B80444BF4FF6BF7007409DF82C1020
S315000042603B465FFA8BF2504611F0ECFE064650468E
S3150000427006F09AFE30460DB0BDE8F08F2DE9F0430A
S31500004280164685B00446F08804900D4670790FF204
S31500004290187103901F4630790290A84670880190E5
S315000042A0434630880090082200F099F800F040F864
S315000042B018BF91201AD1FF2F09D000F0A4FADFF819
S315000042C0A0160968C95D884238BF74200ED3200045
S315000042D00FD14FF6F870804528DA0020019000973C
S315000042E0FF23324629462046FFF794FE05B0BDE877
S315000042F0F083022C4FF6FE790CD1DFF8741609789C
S315000043008D4213D2DFF85006006830F81800484591
S31500004310E3DB0BE0012C09D1DFF8581609788D4252
S3150000432004D2E8B209F06FFD4845D6DB0120DDE78F
S31500004330DFF838060068407B02287047F0B587B082
S315000043400D461646044605961F46E8880FF260613C
S315000043500490234668790390092228790290688898
S3150000436001902888009000F03AF80020019000970C
S3150000437033462A4621460620FFF74CFE07B0F0BD1D
S315000043802DE9F04188B01E460E9C07948046F088C1
S3150000439006901746707905900D4630790FF21C612C
S315000043A004904346708803900A2230880290019751
S315000043B0009500F014F8DFF8AC05A0F8008023465D
S315000043C0DFF8A40507700020019032460F98009090
S315000043D029460620FFF71EFE08B0BDE8F08103203F
S315000043E00EF028BD80B538B101460822DFF88805F1
S315000043F008F00AFC002002BD022002BD70B588B09C
S3150000440000F02EF80C98DFF85C15009608802B4615
S315000044100D98DFF8541508702246DFF8600500781D
S31500004420002814BF4FF6FF714FF6FD710020019072
S3150000443011E070B588B000F013F8DFF84005007899
S315000044400096002814BF4FF6FF714FF6FD7100204D
S3150000445001902B4622460320FFF7DCFD08B070BD15
S3150000446004460D46069205951E46E0880FF2585101
S31500004470049006226079039020790290608801906A
S3150000448020880090032023890EF0D4BC10B5DFF8F5
S31500004490F00407F069F80446FF2C0DD021460420ED
S315000044A006F0E9FA18B10121204600F006F8204688
S315000044B0BDE8104006F078BD10BD2DE9F04F89B07B
S315000044C082468B4612F081FB0646B01C04F038FC8F
S315000044D0DFF8B044DFF8B054074650460BF0FBF85F
S315000044E00146504606F007FF8046504612F087FB0D
S315000044F007F0E8F8301D04F023FC2080009708F050
S3150000450029F9009989B2814208F0030912D04FF6C1
S31500004510F87087420EDA7078C0070BD438460AF076
S31500004520EFF9002805D0208801235246394600F0CD
S315000045309EF97AE005A950460BF05CF905A82860BB
S3150000454030460BF0E5F8DFF84414086003215046C6
S3150000455012F02BFBDFF8381408700421504612F0D5
S3150000456024FBDFF8301408705FEA0B002BD09DF8AF
S315000045701A00800627D508F0EDF8DFF8F06340B1A1
S315000045803068007D800704D4B9F1010F08BF1823F5
S3150000459000D008230022002150460EF0B5FF90B14E
S315000045A008F00300012802BF3068407B112805D1BE
S315000045B002F0E5FB10B9AF2000F035FC07F0B4F8C7
S315000045C00020286048E018F0030003D0022806D037
S315000045D00AD32AE05946504600F041F825E05146F4
S315000045E0404611F05EFD20E008F0B4F821888142D3
S315000045F01BD05146052006F03EFAB0B129688879ED
S3150000460040060DD50C2202A808F0FEFA0020019003
S31500004610FF23FF20009002AA21880A20FFF7FAFC58
S3150000462021885A4650460BF0A3FE08F093F82188DD
S3150000463081420DD150460BF04EF80146504606F029
S315000046405AFE0C21084203D10021504611F060FFAA
S315000046500020286007F068F809B0BDE8F08F2DE962
S31500004660FE4F814612F0B1FA064648460BF033F883
S315000046700146484606F03FFE05467078DFF80843D7
S31500004680DFF8007300F001000290B01C04F058FB44
S315000046904FF6F8718842ACBF4FF0010A4FF0000A9E
S315000046A008F058F83988814220684088ADF8020041
S315000046B00CBF4FF001084FF00008B01C04F040FB9F
S315000046C00146029840EA0A008DF804009DF80400AD
S315000046D0002814BF06200820002207F0F7F92068FA
S315000046E00188BDF80260002904BF407900281ED168
S315000046F0694648460AF088FB23689DF80010421E6A
S31500004700D2B2042012F065FB2068408848F202010C
S31500004710884203D13888494602F001FC3888B6F54C
S31500004720004F10DBBDF8022049460AF081FB2068E5
S31500004730029919B905F00C010C2935D1008909F047
S31500004740A0FC30BB51E0DFF850B202218BF800101C
S315000047505346002249460AF0D3F92068807940067C
S3150000476004D5BDF80200FF2100F054F8132EDED068
S315000047702068C0884004DAD4884909789BF800008C
S31500004780CA0701D50228D2D089072ED50128CED056
S315000047902BE020680189B8F1000F14BF032502251C
S315000047A00020FEF7FDFF12E0017900910022437917
S315000047B038880021FFF724F805F00C01082905D1F7
S315000047C0B8F1000F0CBF0425052500E0002574494B
S315000047D008709DF8040008B9382E01D1012200E0C6
S315000047E00022294648460FF0C7FABDE8F78F10B5F4
S315000047F0044600F008F8610548BF0838210548BF9F
S315000048000838C0B210BD59490968C97E642001B193
S315000048105220704770B55C4E0C4686B0054631682E
S315000048200C2202A808F0F0F9306801798DF80D1015
S31500004830FF2341798DF80C10ADF80A504FF6BF7181
S31500004840C08800940840ADF80E0002AA002001902E
S315000048504C4801880720FFF7DDFB06B070BD5148C4
S31500004860007808B9FF2070474D48007870472DE959
S31500004870FB47914685B01C4648460AF02CFF014688
S31500004880484606F038FD032108428DF800005ED147
S315000048903D4805683B48068801A948460AF0AAFF34
S315000048A0394901A808604FF0000ABDF814003549DF
S315000048B008809DF80900002804BFBDF80400002800
S315000048C03FD1484612F081F9801C04F039FA4FF6C0
S315000048D0F8718842ACBF4FF00108D046002C14BFD7
S315000048E002240124012729E0BDF8140043463A4674
S315000048F049460AF005F95FEA000A1ED0022C08BFF5
S31500004900012F1AD1BDF8180016490880174800680B
S31500004910417E491C4176A1F18000134908700C21A3
S315000049209DF80000084208D19DF80A00400604D50B
S31500004930BDF80600FF21FFF76DFF7F1CFFB2BC42EA
S31500004940D2DA114805600F480680504600E0002084
S3150000495008B0BDE8F087000088DE032094DE03205F
S3150000496030DE0320F4DE03200CFD032038F503209F
S31500004970F5FC0320C1DF0320F8DE0320FDFC032045
S3150000498028DF03205AFB03205CFB032060FB032087
S3150000499021FC032022FC03200BFD0320FAFC03204C
S315000049A017FD032058FB0320425757574242570032
S315000049B0425757574242574200000000425757425B
S315000049C057574242574200004257574242425742C7
S315000049D04200000010B5044606F0EFFE10F0CEF9D6
S315000049E0010018BF00F014F80C21304811FB04F147
S315000049F00844827981880068BDE8104007F030BB22
S31500004A000020E7E70120E5E70220E3E70320E1E7EE
S31500004A1010B582B0044606F0F4FE0C214843234943
S31500004A200844210017BF312C0021017A491C01726C
S31500004A30C279017A91420AD30021017243208DF88E
S31500004A4000008DF80140022168460EF04AFA13BDB7
S31500004A5017490978312900D0704780B544218DF86F
S31500004A60001001460DF1010004F071F903216846BA
S31500004A700EF037FA01BD38B50E4C0C4B24780C25D8
S31500004A806C43B0F5004FB8BF0429234401DB702006
S31500004A9032BDDA71988099719A799988186807F009
S31500004AA0DFFABDE8314010F069B90000C4DE03202A
S31500004AB0D6DF032003FD032070B5160004460D461D
S31500004AC002D109F0D8F802E0FF2109F083F8324656
S31500004AD029462046BDE87040A0E02DE9F04782B0A7
S31500004AE005468A46174698460EF0E2FDC0480A9CDF
S31500004AF00078B0B10C2F14DAFF21284609F06AF8C5
S31500004B00814600260AE004EB4601C9B2404606F09B
S31500004B10ADFC494609F05EF88146761CF0B2B84213
S31500004B20F1D3009443463A465146284600F08EF8A3
S31500004B30BDE8F3872DE9F04704468A4600F0D5F82C
S31500004B40012846D1204609F02FF8AA4A126812F821
S31500004B500A700025FF281CD081464C46DFF8988253
S31500004B6000E06D1CD8F8000000EB84008478FF2C70
S31500004B70F7D1E8B268B1EDB20C2D0ADA6800861CEE
S31500004B80BAF1FF0F24D0F119C9B2504606F06CFBFA
S31500004B9008B100201DE02A463946504606F0B0FB13
S31500004BA07C1C6A1ED2B2E1B2504606F0A9FB671C15
S31500004BB04C4606E030F82420F9B2504606F062FC76
S31500004BC0BF1CD8F8000000EB84018C78FF2CF1D1D3
S31500004BD0F0B2BDE8F08710B5FF280AD0864B1B68F7
S31500004BE033F820400C8003EB8000807810700020A2
S31500004BF010BD032010BD10B508F0D6FF0024FF2815
S31500004C000AD0022401E0A41CE4B27B49096801EB46
S31500004C1080008078FF28F6D1204610BD30B583B0DD
S31500004C200C46C4218DF80010154601460DF1010011
S31500004C3004F08DF821460DF1030004F088F88DF894
S31500004C400550062168460EF04CF937BD2DE9F041B6
S31500004C5086B0074688461D460DF1050014460FF03E
S31500004C60E4F801A80FF0E3F859208DF8080039465A
S31500004C700DF1090004F06BF8082241460DF10B0016
S31500004C8007F0C2FF9DF805000C9B8DF81300660027
S31500004C909DF804008DF81400F6B28DF815400096C4
S31500004CA02A460021284606F016FC3146284606F01C
S31500004CB0DBFA0020009000232A460E2102A80EF0FF
S31500004CC018F906B0BDE8F08110B5044600F003F807
S31500004CD04A48047010BD10B5484C2078FF2803D010
S31500004CE006F062F9FF20207010BD2DE9F041DFF8D3
S31500004CF00C81074698F80000FF2882B00C4619D0B0
S31500004D003C4D2A68115C8E1EF6B2314606F0AEFBAB
S31500004D10B8420FD12868075DF5052D0EFF2C02D18C
S31500004D20A81CC0B220E0F019811CC9B2204606F0CA
S31500004D309BFA08B1012017E02A463946204606F0BC
S31500004D40DFFA6A1E791CD2B2C9B2204606F0D8FA3A
S31500004D5098F800200096B91C002389B2204606F078
S31500004D60BAFBFFF7B8FF0020BDE8F6812DE9F04158
S31500004D7080461F480078002688420F46154638BFF1
S31500004D80742032D3012006F0A4F80446380010D06F
S31500004D907900C9B2204606F067FA50B907E035F83F
S31500004DA016207100C9B2204606F06CFB761CBE4286
S31500004DB0F5DB2046FF2811D00E4909680D5CA91CB9
S31500004DC0C9B206F051FA28B942462946204606F0ED
S31500004DD059FB03E0204606F0E7F8FF242046FFF7DC
S31500004DE073FFFF2C0CBF18200020BDE8F0810000E7
S31500004DF0F4FC032030DE032084DE0320D7DF03200B
S31500004E00DFF86C2A1268127882420AD019B1012A98
S31500004E1003D1022805D000207047022A08BF0128C6
S31500004E20F9D101207047DFF8E41C8875704710B58A
S31500004E30DFF83C4A2068407B112805D040F2031178
S31500004E400FF20C0007F04CFF21684120487310BD9B
S31500004E506173736F63696174696F6E2E630000001E
S31500004E6080B5022006F00AFE06F02CFC00F04FFC8E
S31500004E70042805D1DFF8940C417D491D417505E0F4
S31500004E804FF47A71DFF8880C11F06EFDBDE8014031
S31500004E9006F04ABC10B5DFF8744C0020E0742078A8
S31500004EA0FF2803D006F080F8FF20207010BD70B5F3
S31500004EB082B004460D4606F001F80646B01D03F022
S31500004EC03FFF00F44040B0F5404F0CBF06200020E5
S31500004ED03118097C4A00490802F00E0201F0380137
S31500004EE08918401800F11106DFF8E80C0068005D2B
S31500004EF0F6B286420BDA831BDBB20F2BA8BF0F2359
S31500004F000020009032462146284606F0ECF830464E
S31500004F1076BDDFF85C090068407B33281CBF432858
S31500004F20532801D101207047002070471FB501208A
S31500004F3011F058FF11F05BFF0EF0E2FFF0B1DFF861
S31500004F40CC4BA07910B104F10A0005E0207869463F
S31500004F50FFF7ADFF0DF10300DFF8B42B0021117050
S31500004F60617901F0F1F9FFF795FF00F008F80AF012
S31500004F708FF811F08DFF012001F015FB1FBD10B554
S31500004F8000F057FE017B032918BF042905D140888C
S31500004F9001F0E0FA08BF032008D007F0ADFC044694
S31500004FA007F0AEFC2146FEF7E8FA022007F0B4FC53
S31500004FB009F0A6F800F031FEBDE810400AF094B8FA
S31500004FC038B5DFF8484BDFF8705CA075FFF762FF75
S31500004FD000214FF6FF7001F0AFFA2868417B0329E4
S31500004FE018BF00291ED0332918BF432914D101F058
S31500004FF052FA2868017B032918BF042906D1032128
S315000050004173A07DBDE8324006F04BBDA07D06F0A1
S3150000501048FDBDE83140B2E721214173BDE831408A
S315000050200AF07FBD31BD10B5DFF84418DFF8DC4A61
S315000050300968002048734FF6FE7007F08FFB4FF6A5
S31500005040FF7007F093FB01F026FAA07DBDE8104043
S3150000505006F027BD70B5044684B0E07A0FF2D001A1
S31500005060DFF80C580290234694F90A0001901522A5
S31500005070208901F0D1F82868407B60B9208901F0C9
S3150000508069FA08D000F04EF905D106F0CBFC10B94C
S3150000509006F0DCFC10B1702004B070BD2868007DFD
S315000050A080070AD507F056FB4FF6FE718842024686
S315000050B004D10CF044FF024600E0002221461046CF
S315000050C001F002F906000DD12868007D80074CBF6B
S315000050D00220012001F0DAF8002101200BF027F967
S315000050E0060001D03046D7E7DFF8200A007F08B176
S315000050F009F0CBFC00220821204607F08FFC30B1D6
S315000051000421204604F031F808B9A520C4E7DFF8E9
S315000051102C0B00782074DFF8280B60610020E081FA
S31500005120204600F004F9064606F0FCFBDAE700002C
S31500005130423870574242000010B5044623461822F2
S3150000514001F0ABF9DFF8FC0A0021017114B1FF2C64
S3150000515002D10121017007E0012100F8041BA10022
S31500005160491C090211F000FC00F057FD002010BD9B
S31500005170DFF8D01A00200871DEE730B50D4689B099
S31500005180044668690FF2901107902346287C069022
S315000051901622E8890590287B0490E87A039095F911
S315000051A00A00029028890190009501F036F8287BC4
S315000051B000280CBF4FF6FE7007F0CCFA2B462246AD
S315000051C009B0BDE83040014601202DE9F041DFF885
S315000051D0A04680462068407B00280F4616461D469E
S315000051E049D1300047D0052E45DA00F09BF842D170
S315000051F006F018FC00283ED106F028FC08B1042E63
S3150000520039DB287B032816D14FF6FE70874214D16E
S31500005210012E08BF002710D0022E2CD107F09AFAD3
S315000052204FF6FC71884202DA07F094FA01E00CF0BE
S3150000523086FE074601E0012E1DD0B8F1000F0CD006
S31500005240287B03280CBF01210021012E0CBF012061
S3150000525000200BF06CF801005CD12946384601F0BD
S3150000526033F8010056D106F083FA06F094FB20B11C
S3150000527006F0ECFB08B170204CE02068DFF88C7873
S31500005280407B33281EBF53280020F875304600F0B7
S31500005290FDFF387F20B106F0D9FB08B909F0F5FB10
S315000052A0287B032803D12846BDE8F0413FE00822C9
S315000052B0294607F10A0007F0A7FC287B0328A8BFA8
S315000052C00020B874FFF7E6FD9420B875B87C216815
S315000052D000280CBF012031204873012300203875B7
S315000052E02068817B4809020003D1BA7F03FA01F1E5
S315000052F008E001F01F0140F0180003FA01F1052251
S3150000530041EAC061052011F060FF010002D0226869
S3150000531000215173BDE8F081424238705742424243
S3150000532057424400DFF8C80C00780B28704710B5C8
S3150000533004460022082107F071FB08B1012010BDC8
S3150000534007F008FA00224FF6FF7100F0E1FF217C1A
S31500005350204600F0F9FF6269E189207C08F003FF2E
S31500005360DFF80C050068007B012808BF0BF069FD1B
S31500005370FFF705FE002010BD38B5DFF8F4440146FE
S315000053802068407B002802BFDFF8640C00780B28F9
S3150000539001D0702032BDDFF8785721B1022205F125
S315000053A0080007F031FC684601F09DF808B193202B
S315000053B032BD9DF80030142201F06FF801F010F8AC
S315000053C0010050D19DF8000000F060FF2068007BCE
S315000053D0012818BF022807D0032818BF042825D1A2
S315000053E0002001F0BBF808B301F011F82068007B3B
S315000053F0032814BF042812F0D7FAFFF7C0FD0120D6
S3150000540012F0FCFA01002ED12068007B032818BF99
S31500005410042827D1287A800724D50522DFF820180A
S31500005420012000F027F801001CD032BD21681320AE
S3150000543048730020DFF8D416087501222068817BA6
S315000054404809030008BF02FA01F107D001F01F0165
S3150000545040F0180002FA01F141EAC0610522072076
S3150000546011F0B3FE002032BDDFF8A006C07D704704
S31500005470FF22FFE72DE9FC41804600F0DAFB0D46EE
S31500005480017B0129164627D0407B022818BF032836
S3150000549022D1332007F040FA2806DFF87076400F55
S315000054A014BF0522BA7F2946052011F08EFE044658
S315000054B098B9FFF7EFFC07F055F938815FEA080065
S315000054C014BF02200120B87407F10A0001F023F886
S315000054D000203875FE7500E070240194009543465F
S315000054E02C220FF2100100F098FE2046BDE8F6814E
S315000054F000000000424244420000000038B5044665
S3150000550005F0DCFC0546204611F055FB2C1820461C
S3150000551003F016FC4FF6FF5101402046BDE834402B
S3150000552003F015BC70B588B00C4616461D4630B95A
S31500005530204612F065FA03A909F0AFF903A807217E
S315000055408DF808100190310A8DF80A1001200C9987
S315000055508DF80B1000908DF80960042302AA012132
S3150000556020460AF092F80646FF2E18D0214611F082
S3150000557064FB15B93046FFF7C1FF0D9808B93046F0
S315000055800DE0204609F0BCF918B1304612F066FA73
S3150000559001E000F03CFE304605F006FDFF2008B0B5
S315000055A070BD2DE9F14F84B0894615469B4600270C
S315000055B04FF6FF7455B128460AF0AAF88046687877
S315000055C040084FF0010A00F0010605E0484611F0D8
S315000055D09CFBBA460026804600F099F8032818BFBF
S315000055E0042800F091800BF10101C9B2484605F08C
S315000055F082FE8346400800F001008DF808005FEA4D
S315000056000B6000F0F0FC58BF4BF0800B022806D16F
S31500005610DFF830169DF810000978084301D10227FB
S3150000562021E0404607F045F8ADF800000321484662
S3150000563011F0BBFA040008BF0124BAF1000F03D031
S31500005640281D03F07DFB01E0BDF800000146009433
S3150000565001235A46404609F047F804464FF6FF70C4
S31500005660844208BF0127EDB19DF8100018B94FF626
S31500005670FF70844204D1281D03F062FB014600E05E
S315000056802146012001900097334622464046FFF707
S3150000569049FF9DF8080050B94FF6FF7140460BF0E0
S315000056A01FFE04E03A46214640460EF005FB5FBB6E
S315000056B09DF8080080B1414620460BF032FE6C4949
S315000056C00968896A0E2212FB00F211444A7942F0F7
S315000056D040024A710BF073FEB5B1DFF8C45C85F881
S315000056E0009007F037F80EB1002605E09DF810107F
S315000056F0002914BF032601260146434622463046AA
S3150000570001F004FEFF20287005B0BDE8F08FDFF839
S3150000571028050068007B70472DE9FC4780468946CE
S3150000572001A8002101601646484611F04EFA0546CA
S315000057305FEA0800DFF86C7C08D0284609F0E8FF2D
S315000057408246284609F0D9FF044604E0484611F08F
S31500005750DCFA82463C460020009004233246494645
S3150000576001A805F0C0FC0DF1050003F0E9FA814639
S315000057709DF807605FEA080006D0082239462046F1
S3150000578007F08CFA00286FD1394F3868C17E11B105
S315000057906978890713D55FEA080110D0407B022893
S315000057A008BF002E0BD1484606F0D8FF09F070FC62
S315000057B0992300F071FE992006F073F954E007F082
S315000057C045F9002818BF002E03D09420FFF7F8FBF8
S315000057D04AE007F03BF9002846D050460BF014FC8F
S315000057E0FF2818BF5FEA080104D13868408851468F
S315000057F00BF097FD0BF0E3FD3868C54E4188524625
S31500005800484600F085FD3868C04C417B012916BF2B
S315000058103129112143214173022006F020F940F677
S31500005820B831304611F0A0F812F0BEF800206075CD
S315000058303868C17E19B9304611F08CF811E0B8F11C
S31500005840000F05D06978890702D5FFF76FFB08E0DE
S31500005850007B042805D10521304611F085F8062085
S315000058606075AD20FFF7DFFA06F05CF8BDE8F38758
S3150000587038F503202DE9F04F8DB0824611F0A5F9D9
S31500005880814611F0EDF90390504611F03EFA80463C
S3150000589002AB052205A9504612F0BEFB02288DF880
S315000058A00000019022D0504611F085F90399974DDA
S315000058B0DFF8846308189DF808100F185046FFB2E9
S315000058C0394605F018FDFC1C01284FF6FF7B0ED06B
S315000058D0022813D0042800F0F68006281AD00728DC
S315000058E06CD0082827D07C2800F0B3800BE13B461B
S315000058F0002251460020FFF754FE04E13068407B49
S31500005900012804BFA87C002803D13A465146FFF778
S3150000591003FFF8E0404608F0A6FF014659451CBFC4
S3150000592040460EF095F93068407B022802D1404689
S3150000593011F04EFAE7E0002011F054FA791C00F05D
S31500005940E9F88146E1B200F0E6F80446B91D00F038
S31500005950E1F807465F45EDD012F026F83068407B47
S31500005960132808D100F053FD504611F0CEF9014638
S3150000597020460BF0D6FC3068407B022818BF13285F
S315000059801BD1384606F0EAFE484606F0EFFE002137
S31500005990002000F0D9FC4146204600F0CDFDE87815
S315000059A0DFF8A01C087000F038F93068417B132935
S315000059B003D12321417311F0CAFCA4E0039801210D
S315000059C0484405F074FB04460023002221460120CA
S315000059D011F0FFF9204605F0E7FA3068407B02280F
S315000059E002BFDFF8304C20790028E6D1404612F09D
S315000059F033FB0028E1D09DF8001005AA504612F0AE
S31500005A0025FB0028D9D012F04AFB3168897B490969
S31500005A1018BF642105D195F91D2001219140C1EBE4
S31500005A20011189B290FBF1F201FB1200451C002026
S31500005A3006F015F80198012806D120700822414683
S31500005A4004F10C0007F0E0F8A9B2201D10F08CFF5D
S31500005A5059E0504605F032FAC0194178652904BF6D
S31500005A6080786D284FD15B49096811F80A10E0B2B9
S31500005A70884248D20822414603A807F0C5F86B467B
S31500005A800022E1B2504609F0DBFC00283BD19DF82C
S31500005A900000FF2837D0DFF8B44BDFF8B45B0120F5
S31500005AA0207085F800A005F082FE9DF8001003A87E
S31500005AB0FCF7E5FE05F038FEFF2028700020207078
S31500005AC09DF800001DE0504611F03EF904460FF621
S31500005AD0D0300088ADF80A00022300200190009023
S31500005AE00DF10A020121204609F0CFFD0546FF2DE2
S31500005AF009D0214611F0A1F80021284607F0C2FC82
S31500005B00284605F051FA0DB0BDE8F08F00DF0320FE
S31500005B1068F20320C9B2504605F0A8BC70B5022051
S31500005B2005F0ACFF05F0CEFDDFF8C854424E00206C
S31500005B3028700EF0E5F928B13068C07E10B9FFF77D
S31500005B40F5F93DE00EF0DCF9DFF8084B10B906F088
S31500005B507DFF58B1607D48B1C821284610F004FF8A
S31500005B60607D401E607507F081FD29E03068407B4E
S31500005B70132809D006F06AFF30B93068407B112837
S31500005B801CBF4328412803D1A07DFFF719FA17E06F
S31500005B90022818BF032803D0002818BF21280FD1D8
S31500005BA00024DFF8B45A07E005F08CFD002000F071
S31500005BB0FAFC05F0B9FD641C2978E0B28842F3D3FB
S31500005BC0BDE8704005F0B0BDDFF8881A00204875C2
S31500005BD07047000030DE032010B5002005F04EFFB0
S31500005BE005F070FDDFF82C4A0020207100F021F846
S31500005BF0417B02290DD1007B032818BF042808D059
S31500005C00207810B10DF09CFF01E00DF03EFF002062
S31500005C102070BDE8104005F087BD80B505F0CBFECD
S31500005C20FF281ABF074800780020BDE802400DF0A3
S31500005C301ABF01480068704738F503200FFD03209E
S31500005C4000F8FF075CF2032080B500F0ADFB0020F2
S31500005C5002BD2DE9F04F97B0804606A8102112F03C
S31500005C602FFA0DF1090305220EA9404612F0D4F9C8
S31500005C7007460026022FB24600F0AD81404605F0E9
S31500005C801DF90446A01D03F05BF8059004F1090018
S31500005C9003F056F8ADF80A0004F10B0003F050F8D3
S31500005CA08146DFF8B809006810F808000190012F56
S31500005CB06AD101200490002706210EA879434418D2
S31500005CC0208802285CD1E07800F088F91B2857D19B
S31500005CD0E078C11C00F083F9192851D1E078011D44
S31500005CE000F07DF94A284BD10525E0782818411C9B
S31500005CF000F075F94FEA002BE078291800F06FF9EB
S31500005D00584480B2932800F03F0B1BD1E078281846
S31500005D10801C5FFA80F9002000900F234A46414616
S31500005D2006A805F0E0F909F10F01C9B2404605F0F1
S31500005D309DFB064609F11101C9B2404605F096FBE6
S31500005D40814616E0412814D1E078281800F046F97B
S31500005D50DFF80C190978401AA0F14D0ADFF804099A
S31500005D600068007B032812BF04284FFA8AF012F05D
S31500005D70B7F90BEB0500851C2179EDB28D42B4D342
S31500005D807F1C052F0BDA97E7CDF810A004F10D0064
S31500005D9002F0D6FF064606A94046FFF788F8F00B44
S31500005DA08DF8080000230D224146062011F011F857
S31500005DB006AFB878C0F3C3000390787800F00F04FC
S31500005DC00198202800F00FF9ACBF9DF82650002559
S31500005DD0022814D1BDF80AB006F0C4FC83450ED1E2
S31500005DE00AA800F098FB0198202806DB08220DF18E
S31500005DF01B010AA806F052FF08B108F0EFFA059851
S31500005E00B0F5004F11BFB0F5624F26F4404040F6A2
S31500005E10FF71884276D101982028C0F2DC800022EA
S31500005E2008210DF11B0006F0F9FD00286AD1704823
S31500005E300078012847D1019427229DF80800BDF873
S31500005E400A300FF66001DFF85865DFF81CB800F07D
S31500005E50E3F9DFF8180800788DF82A008DF8344049
S31500005E608DF835500822BDF80A00ADF828000DF16E
S31500005E701B019DF808008DF82B000BA806F0C4FE48
S31500005E8000F0B1F801281CBF332886F8008005F021
S31500005E908EFCDBF8000078B10DF101000DF0C5FFB6
S31500005EA068460DF0C4FF9DF900209DF80110DBF84F
S31500005EB000300AA8984702E00AA8FCF774FBFF2006
S31500005EC0307005F031FCDFF88C67307D002819D181
S31500005ED006F0BCFD002824D00120F0740022082121
S31500005EE006F10A0006F09AFD20B1BDF80A003189D4
S31500005EF0884208D008220DF11B0106F10A0006F0BF
S31500005F00CDFE002867D19DF8080028B900F06BF88F
S31500005F10312818BF33285ED101212046FEF770FFD5
S31500005F20002858D09DF81800002802BF787800098C
S31500005F30022850D1FFF77DFE017BBA7802290CBFFB
S31500005F4002F0040202F0800222B9022943D04088FE
S31500005F50484540D13078DFF81877FF2814D070799B
S31500005F6085420DD1DFF8F81696F9020091F9001076
S31500005F70884209DB2FD170783978884204D32AE029
S31500005F80281AC0B2812826DAFEF784FF86F8008038
S31500005F90404604F0FBFF387870700DF11B01DFF806
S31500005FA0C0060078B07003980F28B4BF401C0F20BD
S31500005FB0F07034717571A6F818900822BDF80A00C1
S31500005FC0308186F807A006F10A0006F01DFE049847
S31500005FD000B10120B07117B0BDE8F08F811CC9B2C5
S31500005FE0404605F088B9DFF87C060068407B7047BC
S31500005FF0DDDF032068F203202DE9FF410546DFF8C7
S315000060005446012020750E46174602F03DF800283A
S315000060101AD1A846B8F1010F18BF002D15D1009767
S3150000602033462622C7A100F0F8F805F0C0FBDFF8DA
S315000060304406026810003946304601D0904701E018
S31500006040FCF7D6FA05F070FBD5E0DFF8185628689D
S31500006050407B23280DD106F04FFC044606F050FC89
S315000060602146FDF78AFA022006F056FC10F010FFD2
S31500006070C1E0002FFCD121281CBF0428532802D1DF
S3150000608009F04FFDB7E006F0E1FC002800F0928031
S315000060902678FF2E05D1E07C00280CBFAB2094208B
S315000060A09DE02868007B032816BF042801210021F3
S315000060B02079FEF7A5FE08B9982090E003F000FCD1
S315000060C00521304610F071FD2968887305F02AFC19
S315000060D0A07CF8B900F02AFA02462189208B0DF03F
S315000060E012FE00285DD19420FEF79DFE022005F0E9
S315000060F0B6FC2968DFF880054A7B012A05D0312ADB
S3150000610012BF332A097B04294DD1C82110F02CFC7B
S3150000611003204DE006F01EFB0646208B002100F012
S315000061200BFA06F093FC60B1300003D04FF6F8701E
S31500006130864206DB0BF003FF29684988884206463B
S31500006140F8D0304606F00AFB2078092110F012FD3F
S3150000615006F00CFB06208DF8080000F0E7F98DF834
S315000061600900022300200190009002AA28684088B6
S31500006170012109F08AFA0646FF2E12D028684188C6
S31500006180304610F05AFDA07C02281CBF3046FFF7AF
S31500006190B5F900F03CF80746304604F005FF002F3D
S315000061A0A1D194201BE04FF4167110F0DDFB002006
S315000061B0607520E02868407B132816D100F008F9A6
S315000061C0BDF8000006F0D2FA00F021F92868017B3C
S315000061D0032918BF042905D1332141739620FEF700
S315000061E0EFFE08E0FEF7CBFE05E0B8F1040F04BFB2
S315000061F0304612F0BEF84FF4006008F0E4F910B92A
S3150000620012F061FA08B107F08FF9BDE8FF810022AC
S315000062100021304612F0FCB9009003200CF00ABEB3
S315000062201FB5044600208DF80000FFF702FD007838
S3150000623040F020008DF801000DF1030000F06BF92D
S315000062400322FF210DF10B0006F021FD07F075FF7B
S315000062508DF80E00DFF82414DFF8E803DFF82024B9
S31500006260007809781278C00040F00400914238BFE7
S3150000627040F080008DF802000F226946204604F0A7
S31500006280A3FF401E8041C00F04B010BD38B5DFF833
S31500006290D45304462868017BA14203D004732046E8
S315000062A005F0F8FC2CB101F02CFE2868007B0428D0
S315000062B005D105F09EFBFF2808BF012000D0002075
S315000062C0BDE8324007F0FABB38B50D46044695F9ED
S315000062D00A0006F0C7FB08B18B2032BDDFF8840345
S315000062E00268E97A91730068A97AC173204606F0BC
S315000062F035FA4FF6FE7084420CBF4FF6FF702889C0
S3150000630006F034FA2889DFF84C130881002032BDE4
S3150000631038B50C46154606F021FA0BF0E3FD294682
S31500006320204600F009F9CB480178FF2918BFC0784C
S3150000633005D1FFF7ECF901280CBF00200120C14967
S31500006340087031BD424242007FB504460D4600F05A
S315000063503FF8C44E94B1CB4A0021284607F003FF0C
S31500006360306801788DF804100822007B8DF805004E
S31500006370214602A806F048FC00F0B8FB3068817B95
S315000063808DF80310C07B8DF8020006F0EBF9ADF82E
S31500006390000006F0DFF9ADF8060000F01BF87FBD3F
S315000063A0E3DF0320ACF303201FB5044600F010F82A
S315000063B01CB100208DF8050007E006F0CBF9ADF81A
S315000063C0060006F0CFF9ADF8000000F003F81FBD97
S315000063D0684635E0102307226946002002F0CBBD4F
S315000063E000B58BB0FFF7F4FFBDF80000ADF818005C
S315000063F004A99DF803008DF81B009DF802008DF896
S315000064001A00BDF80600FFF75FFF0BB000BD1FB511
S31500006410012000F0A3F8044600F073FBFFF7D8FF55
S315000064201CB900224FF6FF7103E0FFF702FC41881A
S31500006430021DBDF80600FFF76BFF12F003FC1FBD3F
S31500006440014610230722012002F095BD38B5082029
S3150000645005F014FB044605F035F9824D8A48296893
S315000064600078887305F0EDF9A04208BF05F010FA30
S3150000647000210020FFF768FF9B2300F00DF89B200A
S3150000648005F00FFB2868002120F8441F4180BDE875
S31500006490314005F049B9A37D13226BA103200CF00E
S315000064A0C9BC10B5044602F0D3FFFF2801D18A20EB
S315000064B010BDFFF798FD022818BF032801D07020F1
S315000064C010BD71480470082005F0C9FAFEF72AFFCE
S315000064D001D03D2010BD6D4806F093FF08B9A120FC
S315000064E010BD002010BD1FB504466846FFF7A8FF83
S315000064F09DF80500010008D0052806DA5949096803
S315000065009DF804200978914201D0932001E0207083
S31500006510002004B010BD1FB504466846FFF790FF83
S31500006520082202A9204606F06FFB1FBD4D495848B8
S315000065300968097B405C70474A4A1368588019B954
S315000065400822181D06F0A3BB0822181D06F05CBB26
S31500006550BDF808004FF6FF718842704710B5044633
S315000065604548007AC00784B007D500F011F8FFF758
S31500006570EFFF02D000F012F808B1002006E024B1C7
S31500006580BDF808006946FFF7D7FF012004B010BD2B
S315000065900A230A226946012002F0EDBC0822FF21E7
S315000065A0684606F03BBA70B5334D0446287AC007F4
S315000065B084B00CD52B4E306841884FF6FF7291425D
S315000065C007D100220821001D06F028FA08B1002094
S315000065D01DE044B1022005F042FA4FF4F04128468E
S315000065E010F0C2F912E030684188ADF808100822B0
S315000065F0011D684606F008FB0A230A22FFF7ECFE97
S3150000660002230B222349002002F0B5FC012004B02E
S3150000661070BD000074F203201F4A107048B11F4875
S315000066200088010005D04FF47A714143101D10F027
S315000066309BB97047184800787047174800210171C8
S31500006640017070471DFD03204242000058FB0320E5
S31500006650E3DF032000DF0320BBDF032030DE03205F
S3150000666022FC032038F50320BCF2032023FC032080
S3150000667021FC0320C0F2032068F2032016FD03204C
S31500006680C6DF032000F8FF0710FD03204D6400005D
S31500006690F8EA00003AFC032088F203209CDF03207E
S315000066A004600000425742420000000010B504009A
S315000066B001D1022010BD12F067FF00F0C8F820706B
S315000066C0002010BD1CB5044606F0DBF9400901D1D7
S315000066D0702016BD0CB3A0882188020014D10029B1
S315000066E004BF6088002818D10020ADF8000020887B
S315000066F0ADF802006088ADF80400A088ADF8060089
S31500006700684612F0A1FF16BD0A0006D06288130083
S3150000671003D0824238BF9142E6D3022016BD1CB593
S3150000672004000DD0684612F033FFBDF80200208049
S31500006730BDF804006080BDF80600A080002016BDEC
S31500006740022016BD2DE9F84F04460D4602F03BFE29
S31500006750400908BF70205FD065B1222C0ADA8A484A
S315000067600068007B032818BF042801D1012C01D141
S31500006770200001D102204FE005F0ECFF2880012621
S31500006780002012F005FF688001274FF6FF790FF20F
S31500006790082AA6423FD002F016FE4009A7F10108DA
S315000067A02BD013F09EF85FEA000B04D140F24F1194
S315000067B0504606F095FA5FFA88F838217348DBF8F8
S315000067C0002011FB08F142F2107C435802EBD27014
S315000067D04010C117CCFB0301D31713F0ABF8834667
S315000067E0404608F04CF8484507D025F8260005EB4A
S315000067F08600761CA0F802B0F6B27F1C212FC8DBFB
S315000068003746002005E025F8279005EB87017F1C19
S315000068104880A742F7DB0020BDE8F28F70B504463A
S3150000682040091D4611D0204602F055FD0646284671
S3150000683000F00DF8054604F0BAFF2A4604F01F01E1
S315000068403046FCF787F804F06FFF062070BD10B5E0
S3150000685060B1401E01280BD9801E01280AD9801E6E
S31500006860032809D9001F072808D909E000240CE0ED
S3150000687001240AE0022408E0032406E0042404E0DC
S31500006880F8210FF2141006F02BFAE0B210BD2DE934
S31500006890F84F04465FEA01081FBF3B480068007BCB
S315000068A0032865D0042863D002F08DFD40095FD02F
S315000068B0202C5DDA13F0E9F8DFF8D4B03549DBF8BF
S315000068C000C0B0FBF1F001FB00F9A9EB0C00B0FB36
S315000068D0F1F0B9FBF1F10D223826B1FBF2F20D23EE
S315000068E016FB04F403FB1215284E0D28EDB206EB39
S315000068F0040A0DD300273820784300213150301880
S315000069003422001D06F0C3F97F1C202FF3D325E0A7
S3150000691020B3204DBCFBF5FC9E46BCFBFEFE03FBF4
S315000069201EC56D1CEDB20D2D08BF00250AEB850CAA
S3150000693056F804E0DCF80470AEEB07073751002781
S31500006940401ECCF80470ECD103FB1210854205D032
S3150000695040F22D110FF2400006F0C2F930594044C2
S3150000696030510AEB8500416841444160CBF8009004
S31500006970BDE8F18F38214843044B002119501844D3
S315000069803422001D06F083B938F50320B8EA032047
S31500006990B8F10320E0930400656D6265722D64759D
S315000069A074792D6379636C652E63000030B50546F6
S315000069B00C4683B028220021204606F068F9681E9E
S315000069C0A5701ED0801E01284FD8032D0CBF0125AF
S315000069D000252A4604F11C01E01C0AF04BF835B1EB
S315000069E0208840F00200208013F0C4F860612088FF
S315000069F040F0010020801021E01C00F0A0F8B0BBA0
S31500006A0006E0DFF8C4552868007D10F0300F01D18C
S31500006A10B2203EBD208840F0020020800CF0BBFB77
S31500006A206061E01C00F0ABF8684600F0BCF848B1C5
S31500006A300822694604F11D0006F0E6F8208840F0B9
S31500006A400800208028684069C00303D4208840F0ED
S31500006A501000208005F07EFE0028CCD02868406A11
S31500006A60A061208840F00400C4E770203EBDE01C11
S31500006A700FF060F900203EBDF0B587B004460D4624
S31500006A8016461F46684600F088F83EB10822314691
S31500006A900DF1020006F0B8F845F040052FB11022BE
S31500006AA039460DF10A0006F0AFF8DFF81C0500685C
S31500006AB04169A1432943416148040CD5BDF8000052
S31500006AC00A0A00F40E4002F4E242104301F0FF010C
S31500006AD00843ADF800001A2308226946002002F098
S31500006AE04AFA07B0F0BD00230022C5E7DFF8D80454
S31500006AF00068416941F48041416147F2FF1001405D
S31500006B00F1E700B587B013F048F8684600F045F89D
S31500006B10DFF8B4040068BDF800204169090A120ACA
S31500006B20090202F0710241EA0241BDF8002002F0BA
S31500006B30FF02114341F48041416107B000BD38B501
S31500006B4004460D46002205F069FF40B9FF2229469A
S31500006B50204605F063FF401E8041C00F32BD002075
S31500006B6032BDDFF864040068007D00F030001028B4
S31500006B7018BF202801D1012070470020704710B5AA
S31500006B8088B00446684600F008F810220DF10A01A4
S31500006B90204606F039F808B010BD01461A2308222F
S31500006BA0012002F0E8B910B50446DFF81C040068BD
S31500006BB088B04069810705D50822FF21204606F0E6
S31500006BC066F80AE040060AD56846FFF7E6FF08229F
S31500006BD00DF10201204606F017F8012000E0002022
S31500006BE008B010BD80B539B9DFF8DC130968097D36
S31500006BF0490601D5002002BD0246002300210020DF
S31500006C00FFF73AFF012002BD0021EBE70121E9E78A
S31500006C101CB504466846FFF7C6FF40B10822214668
S31500006C20684606F03BF8401E8041C00F16BDFF22A5
S31500006C300821204605F0F2FE20B106210020FFF7CC
S31500006C4052FF04E0002322460021FFF715FF012032
S31500006C5016BD2DE9F0470D4692B081461646012134
S31500006C6000241F4600F02AFA8046B80707F0010AFA
S31500006C700BD507A948460EF093FE20B100F06FF839
S31500006C8006B134601BE0A6201AE0B8F1FF0F1AD057
S31500006C9007A9404600F0AAF9010011D10DB100F094
S31500006CA05EF82EB1DFF82403006800EB8800306040
S31500006CB0BAF1000F03D0BDF81C00C00647D500206E
S31500006CC012B0BDE8F087DFF8007356B105F042FD5B
S31500006CD018B13868017D890701D5346001E0243098
S31500006CE03060FFF73EFF0028CDD06846FFF755FF1E
S31500006CF008220DF10201484605F0D0FF28B1386898
S31500006D00007D00F044004028BDD0BAF1000F04D049
S31500006D1038684069C00348BF0124B5B105F01AFDC3
S31500006D20002801BF3868007D00F08400842807D160
S31500006D302B46082249460DF10A0013F0C6F904E075
S31500006D4010220DF10A0100F00DF8002CB7D04246D2
S31500006D504FF6FF71182004F0B9FEBB20B0E71022F1
S31500006D600DF11F01284605F04FBF80B50023002214
S31500006D700021FFF76EFF401E8041C00F02BD00B527
S31500006D8083B06846FFF70FFF10B16846FFF7EDFFC7
S31500006D900EBDF0B585B0074605F0DCFC00240025E5
S31500006DA0A8B105F0B1FD90B103A8FFF7FCFE70B1E4
S31500006DB02FB108228649384605F070FF38B1824E59
S31500006DC03068017D890705D5417B112901D07020E6
S31500006DD046E044889FB10822394603A805F05EFFC5
S31500006DE068B108208DF80000082202208DF8010005
S31500006DF039460DF1020005F007FF0A2107E00820D9
S31500006E008DF80000012504208DF801000221684656
S31500006E1004F04DF90746FF2F21D0FFF7A2FE00B17F
S31500006E2002203168097D89074CBF042100210843EF
S31500006E3040F001033A460021204609F0F9FB040020
S31500006E4007D00021012000F00DF815B1614901209D
S31500006E500870384604F0A8F80CB1002000E01820AD
S31500006E6005B0F0BD5C4A11B141F2883105E05B49DD
S31500006E7009784EF66023594304D000281CBF1046FB
S31500006E800FF072BD00201070704730B583B0082235
S31500006E900021684605F0FBFE05F05CFC504C18B975
S31500006EA000F090FD0D250FE0607860B14D49207827
S31500006EB00978884207D200F00EF820B90121012096
S31500006EC0FFF7D0FF37BD042500F070F82946684665
S31500006ED004F0DAFD37BD424900B50A78521C0A7043
S31500006EE070204978012983B002D100F012F80EBD56
S31500006EF0022909D16946002005F0F6FB010007D1F9
S31500006F006846FFF746FF0EBD032908BF09F05FFF7D
S31500006F100EBD00224FF4A071002008F025B870B510
S31500006F2098B005460E4604A8502111F0C9F82C4C1D
S31500006F306078012808BF002D36D101A9304607F038
S31500006F4063FF29499DF804200968895C0D1A002110
S31500006F50009102469DF80410EBB204A804F0C3F8B1
S31500006F6002A9002005F0C0FBF0B9EDB2E5B19DF82D
S31500006F701100C8B99DF81C00000200F47E40B0F56F
S31500006F80285F0BDB0120207002A8FFF702FF01211A
S31500006F900120FFF767FF0220607005E000F006F8A9
S31500006FA01E2102A804F070FD18B070BD00206070AC
S31500006FB0002157E70A49087070470948407870472A
S31500006FC0074948707047000038F503209CDE03200F
S31500006FD0ACF3032011FD0320BCF10320FCFC0320CD
S31500006FE009FD0320D8DF032030DE032030B500F092
S31500006FF026F987B028BFB12039D200F026F918212A
S315000070006846FFF79CFD08B9B62030E0282200212B
S31500007010284605F03CFE102202A9E81C05F0F4FD06
S315000070200822694605F11D0005F0EEFD08202880BE
S315000070309DF8180081075CBF18212980410703D5F8
S31500007040298841F020012980C0070FD50520A870A6
S31500007050AC48006850F82400A8610CF09CF8686100
S31500007060288840F006002880002000E0B22007B003
S3150000707030BD38B50C46FFF7B9FF0546E01C0EF0EB
S3150000708059FE284632BD38B50446154609B9702062
S3150000709032BD012100F012F8FF2803D101210020A2
S315000070A000F00CF8FF2807D02B46224601B0BDE8B9
S315000070B030400146002045E0B42032BD2DE9F041C4
S315000070C088B0044609B9702039E02CB100220821A5
S315000070D005F0A4FC074600E001270026884D04E0E1
S315000070E00821FFF72CFD38B3761C2978F0B28842C8
S315000070F024D201A800901923F2B21721684605F0A0
S3150000710011FF009890F81880002FE9D10822214637
S3150000711005F0C4FD0028E7D10098083009F08DFE7F
S3150000712008F0010181F001010843DDD104F020FBE4
S31500007130C8F3C2018142D7D1F0B200E0FF2008B007
S31500007140BDE8F0812DE9F04116466D4A127891426C
S315000071508AB00C46984628BFB1204DD2254630B994
S3150000716010214046FFF7EBFC38B9B22044E0192263
S31500007170002102A805F08BFD32E001213046FFF721
S315000071809DFF074608226049304605F087FD68B135
S31500007190FF2F18BFAF4209D16846FFF704FD38B18B
S315000071A008226946304605F079FD08B9B32023E088
S315000071B00822314602A805F027FD1022414604A800
S315000071C005F022FD0EF0FEFE002814BF0026022662
S315000071D004F0CEFA46EAC00040F001008DF8200027
S315000071E000204849096841F82500192302AA2146CA
S315000071F0172005F0C9FE00200AB0BDE8F08170B581
S3150000720000F01DF888B0164628BFB12015D200F050
S315000072101CF819216846FFF792FC08B9B2200CE069
S315000072209DF81810B14329438DF8181019236A46A2
S315000072302146172005F0A8FE002008B070BD0D46B7
S315000072402F49097804468842704719232246172198
S31500007250684605F056BE10B50C460121FFF72EFF15
S31500007260FF2808D0002CBDE8104007BF04220021EB
S3150000727000220421C3E710BD10B504460121FFF723
S3150000728002FF20B10521204604F0FEFB05E00121A6
S315000072902046FFF713FFFF2801D1002010BD022270
S315000072A00021FFF7ACFF0121204604F0EDFB002191
S315000072B00020FFF7D7FD012010BD70B588B000256E
S315000072C00F4C16E001A800901923EAB21721684670
S315000072D005F028FE0098067E04F04AFAC6F3C201BD
S315000072E0814205D100230022E9B20120FFF72AFFDF
S315000072F06D1C2178E8B28842E4D3002008B070BD46
S31500007300F7FC03209CDE0320ACF303202DE9F047B5
S31500007310DFF84857074628688AB0C07E00288A46A4
S315000073209146984671D005F015FA48B12868007D57
S31500007330800705D43A464146484609F057FA64E0C4
S3150000734038003C4602D10125012604E0032C14BF77
S3150000735000250125002604F02AFA53463A464146FE
S315000073604846FBF771FC074604F0DEF90097234612
S315000073701E22A7A103200BF05DFD5FBB86F0010076
S31500007380054232D00FF2FC6104A8D1E90023C0E91E
S3150000739000230FF2F8600FC80DF1180C8CE80F00EF
S315000073A0022300F047F850B102230022694604A8E0
S315000073B0FFF74FFC18B1002300F03CF8A8B91022E3
S315000073C006A9684605F06AFC78B9FFF733F960B993
S315000073D0032718E0012F0AD1002301960095524693
S315000073E04146484600F016F90DE00123F5E7022F65
S315000073F009D16946504605F077F920B942466946F3
S31500007400504600F01CF8022F11D005F0A3F9824572
S315000074101CBF4FF6FF70814509D0404607F023FA9E
S31500007420484504D1484610F0EBFA07F01AFB0AB0BB
S31500007430BDE8F087002269464046FFF70ABCFEB564
S31500007440044616460D46304607F00DFA074605F087
S3150000745081F918B94FF6FF70844201D17020FEBD44
S31500007460874204D00021384608F050FCFEBD0720B4
S315000074708DF80000082231460DF1010005F0C4FB2D
S315000074800921684603F013FE0646FF2E0CD00123A1
S3150000749032462946204609F0CBF80446304603F02A
S315000074A083FD0CB10020FEBD1820FEBD00B583B0E3
S315000074B0024669464FF6FF7000F001F80EBD2DE951
S315000074C0F04304464FF6F870844288461746ACBF30
S315000074D0012500258FB005F03DF90DF1140930BBEB
S315000074E0DFF8786500F06AF921D41FB1384609F053
S315000074F0A4FC28B105A805F0A0FA10B1A52039E032
S31500007500B946694609A809F07BFC684609F095FC6E
S3150000751078B99DF810009DF83410401AC0B2812841
S3150000752007DA10226946484605F0B8FB48B17020D4
S3150000753020E09DF83400411C0022C9B2484609F0FB
S315000075404BFA21272DB108220021404605F09FFB6A
S3150000755000E023273B464A464146204600F0C3F852
S3150000756038B125B13068DFF8F814407E0870002085
S3150000757000E018200FB0BDE8F08330B58BB005F001
S31500007580E9F8A8B9DFF8D4442068007D80070FD455
S3150000759001A906A809F034FC9DF828009DF81410EE
S315000075A0401AC0B2812803DB01A809F046FC08B1E5
S315000075B070202AE005F0CEF8DFF8A41409780AF066
S315000075C0DFFB08B1B82020E0002109F0C2F909204C
S315000075D08DF800000221206890F820008DF8010047
S315000075E0684603F064FD0446FF2C0DD001232246B5
S315000075F000214FF6FF7009F01BF80546204603F000
S31500007600D3FC0DB1002000E018200BB030BD000007
S31500007610424242002DE9F0430446DFF84004006888
S315000076208DB04069C008884691461E4600F00105A7
S3150000763005F090F8484504D130000CBF0427062712
S3150000764010E0012730004C4618BF0B2755B9694694
S31500007650484605F049F828B96846FFF786FB08B1A1
S3150000766047F0020714991598014217D10EF092F9C6
S31500007670A0B102A940460EF093F978B90FF2FC3199
S315000076806846D1E90023C0E9002302A90EF088F973
S3150000769020B10DF10B0140460EF0AAF82E4207D09C
S315000076A007F0040040F011024146204600F008F8B9
S315000076B03A464146204600F003F80DB0BDE8F08397
S315000076C070B586B004460D46164611230622694655
S315000076D0012001F050FC33466A462946204600F058
S315000076E002F806B070BD00B583B001930092012385
S315000076F0002209F0A0F80EBD2DE9F0410F4688B032
S3150000770080467C780822002102A805F0C0FA05F020
S3150000771021F80625DFF8446310B100F04FF845D58F
S3150000772002A9404604F0E0FF08B10B253FE0022C19
S3150000773002D0042C18D039E000F040F836D40822E4
S31500007740B91CDFF8200305F0A9FA00282ED0DFF8CF
S315000077501803007860B1BA1C02A9404600F041F84F
S315000077600546FF2D23D126E0C0480078010001D14F
S3150000777011251CE002280AD100F024F808B11225D0
S3150000778015E0032000F024F888B913250FE000F077
S3150000779019F808B10A250AE000F010F84CBF0520D8
S315000077A0012000F015F810B9082500E00925294642
S315000077B002A804F069F908B0BDE8F0813068007DE0
S315000077C0800770470023002204A902A8FFF741BAE8
S315000077D00190042304A80090002202A9404609F063
S315000077E02AB82DE9F84F0546A1480F46904600787D
S315000077F0A04EB946C246AB46FF2438BB00F0E2F8BD
S315000078003078FF285FD003F059FB8146307803F0CB
S3150000781055FB357800F1080A1121284603F06BFD67
S3150000782006021021284603F066FD06EB000B08222F
S315000078303946504605F032FA30B9082241464846E4
S3150000784005F02CFA00283ED00E244DE03078FF28B3
S31500007850D6D1012003F03DFBFF28307008BF10246D
S3150000786042D00822394603F0AFFC30780822414660
S3150000787003F0AAFC280A8DF801008DF800500222B8
S3150000788030787D4F694603F09FFC3868317810F8F0
S31500007890018003F08CFF31782846FDF74BF903F0A1
S315000078A043FF30783968095C884506D18DF8024077
S315000078B001220DF1020103F087FC00210120FFF7F0
S315000078C0D1FA0C2410E0514648460EF07DFB40B13B
S315000078D0524649461FFA8BF000F009F810B90F24FA
S315000078E000E0112400F06EF82046BDE8F28F2DE985
S315000078F0F74F88B0104604F0DCFE4FF6FF71884261
S31500007900ADF8080058D003A805F097F8002853D121
S315000079100024584D49E02878BDF820B0099FDDF8CD
S315000079202880FF282BD0122103F0E5FC8146B9F10F
S31500007930FF0F24D0012003F0CCFA8246BAF1FF0FE4
S3150000794011D003F034FF51465846FDF7F3F803F023
S31500007950EBFE4948006810F80A6006B10126504659
S3150000796003F022FB5EB903F022FF142000904A4682
S315000079702B7839465846FDF7B0F803F0D5FE40207F
S3150000798040F003000190032303A8009042463946C5
S31500007990584608F050FF78B10721384604F074F8CD
S315000079A0641C022C0ADA002CB5D1BDF808B00A9F77
S315000079B0DDF824800020E3E7002000E001200BB082
S315000079C0BDE8F08F10B52B4C2078FF2803D003F0CC
S315000079D0EBFAFF2020700021BDE810400020FFF7E1
S315000079E041BA10B584B0044601208DF800001B484A
S315000079F00068827E531C83760E208DF801208DF858
S31500007A00020008220DF1030005F0FEF80B2269467C
S31500007A10204603F0D9FB401E8041C00F04B010BDC4
S31500007A2030B587B004460D460023002202A9284639
S31500007A30FFF70FF901000DD103200190042302A8DE
S31500007A4000902946074A204608F0F5FE00F001009E
S31500007A5080F0010007B030BD0000000038F50320BB
S31500007A6006FD0320ACF30320C4DF0320F8FC03204B
S31500007A70FCFC0320D0DF032030DE0320FFFFFFFFE6
S31500007A80FFFFFFFFFFFFFFFFFFFFFFFF5A69674290
S31500007A906565416C6C69616E6365303910B5044685
S31500007AA00C480068407B022802D104F053FE08B15E
S31500007AB0702010BD00210220FFF715F82046FFF7C1
S31500007AC0F5FC040003D002210020FFF70CF8204645
S31500007AD010BD00BF38F50320DFF88C0A007C00B12A
S31500007AE001207047DFF8801A0A7C062A18BFFFF7C4
S31500007AF0F3BF80B5902803D10020087407F0C8FAB8
S31500007B00BDE80140E8E770B5164604460D46FF227B
S31500007B1004F084FF28B900222946204604F07EFF9F
S31500007B2050B146B16908204601F01FFB08B9A520EF
S31500007B3070BD002070BD702070BD70B5054608464A
S31500007B4014461E4632460821FFF7DDFF010015D117
S31500007B50324602212846FFF7D6FF01000ED12078D3
S31500007B60010018BFFF2806D0DFF8001AC140C80779
S31500007B7003D5702070BD19202070002070BD10B58F
S31500007B80441A48BF6442C92C0A4602DB884203D223
S31500007B9001E0884200D30246904201D1012010BD87
S31500007BA0002010BD70B50446DFF8C409006886B031
S31500007BB00D46407B0F21084206BF94F82800022894
S31500007BC0702040D10123A21C211D2046FFF7B5FFDE
S31500007BD0060038D194F8260000F0820040F001003B
S31500007BE012F006FB94F82800DFF87C194874182276
S31500007BF00021684605F04BF80822211D684605F06D
S31500007C0003F82088ADF808008DF80A5041F60631D1
S31500007C10A0788DF80B0003208DF80C00DFF85409CE
S31500007C2005900020FEF75FFFA18C94F8282008003D
S31500007C3008BF4FF441716B460120FDF7C6FA0646B0
S31500007C4003F070FE304606B070BD2DE9F041DFF856
S31500007C502049064620688EB0407B00F00F052C2296
S31500007C60314602A804F0D0FF012D18BF042D2ED0F6
S31500007C70DFF8F458287C50BB96F82800401E0328ED
S31500007C8025D812F0A6FAC00723D404F06BFD0746E8
S31500007C9006F053FA80466846FEF73DFC0822311D81
S31500007CA0684604F0FBFF002849D1707B4146FFF788
S31500007CB066FF00283AD004F04DFD01460122304609
S31500007CC000F027F9DFF8B0180020087035E07020C2
S31500007CD061E00121002008F02AFB07005AD112F0CA
S31500007CE0D7FA0FF6E4024FF6FF710120FEF710FBFC
S31500007CF096F826000027C0070ED500220821301D61
S31500007D0004F08CFE40B90822311D03A804F07CFF64
S31500007D103088ADF8080006E00822002103A804F028
S31500007D20B6FFADF808708DF8157017E004F0A9FEDF
S31500007D3002464146304613F07DF800202BE008222B
S31500007D40694603A804F060FFADF808708DF8158049
S31500007D5096F8280002280CBF01270227B0788DF874
S31500007D600A000320FEF792FA02A9384612F067FFCE
S31500007D7007000BD12168012048734FF4A05104205D
S31500007D80287405F118000EF0EFFD03E000F034F85A
S31500007D90FEF77CFA38460EB0BDE8F08180B512F0E9
S31500007DA04CFA002002BD30B58BB004460D462C229D
S31500007DB00021684604F06BFF41F60630ADF800007E
S31500007DC0102205F115010DF1020004F01DFF10222D
S31500007DD021460DF1120004F017FF284612F02DFA85
S31500007DE0684608F0E9F90BB030BDDFF87C07007C87
S31500007DF0012818BF00207047DFF86C07407C01009F
S31500007E0003D1DFF86C070068007B7047DFF858176E
S31500007E10487470472DE9F843DFF85447DFF84867A0
S31500007E20777C814688462068317C407B15460A006F
S31500007E3018BF062900F00F0041D1012818BF0428F9
S31500007E403DD012F0C6F9C00707D5FFF7D5FF0128C8
S31500007E501CBF48F6990004F089FC12F0BAF940F00C
S31500007E60020012F0C5F912F013FB484612F0EEFAC2
S31500007E70C6F82C9020684069400800F00100F074B4
S31500007E8004F0FAFD3075404604F0ECFD804698B9E2
S31500007E90681E032813D801203074757404224946DD
S31500007EA009200FF092F9804630B10020307496F91F
S31500007EB0140004F0D7FD77744046BDE8F2837020C5
S31500007EC0FBE770B50400DFF8A056DFF8B06608D10E
S31500007ED03078FF2805D005F120000EF03BFD00208C
S31500007EE070BD287C58B905F0FFFD3070002005F004
S31500007EF0E5FD214605F120000EF036FDEFE7702086
S31500007F0070BDDFF86416002081F82000704705F088
S31500007F10D5BD70B50546DFF86006DFF864664180BA
S31500007F20144628883081A878F07204F0A5FDB07256
S31500007F300822291D304604F067FE687B3074DFF89E
S31500007F403406706103203073200009D112F041F924
S31500007F50C00705D404224FF6FD71002007F092FDFC
S31500007F60912004F0D9FCDFF8000603210174002CEF
S31500007F70BDE8704014BF4FF400614FF40071183033
S31500007F800EF0F2BC38B5DFF8E04500202076207C04
S31500007F9003283FD112F01DF9DFF8DC5529780029B6
S31500007FA014BF4FF6FF614FF6FF7108404FF6FE71A2
S31500007FB0084012F01DF9DFF8B815012028700020DE
S31500007FC009684873FFF718FF0328BCBF0620207412
S31500007FD00BF081FFE07C012814BF41F6043141F625
S31500007FE006310020FEF77FFDFFF706FF024669888F
S31500007FF0DFF88C350020FDF7E8F8FFF7FDFE0328D3
S315000080001DDB4FF4006104F118000EF0ADFC0720F3
S31500008010207414E0072806D10020207400210120D6
S31500008020FDF726FA0BE0042818BF052807D1FFF74D
S31500008030E3FEFEF72BF90020207400F0A4F8BDE85B
S31500008040314003F06FBCF0B5DFF81C750446387C90
S31500008050012883B00D46164615D101F0B4F90090FB
S3150000806001962B4622460FF25851002003F09BF949
S31500008070DFF81015FF28087005D002203874BDE817
S31500008080F7400FF064B9F7BD70B5DFF8DC44217C2A
S3150000809094F9140001298AB00BD10021217404F04F
S315000080A0E1FC03F084FB0020FBF702F803F03CFB45
S315000080B064E0022964D104F0D5FC03F078FB0120CA
S315000080C0FAF7F6FF03F030FB1822002103A804F0AC
S315000080D0DEFD207DDFF8AC548DF816000C212878E3
S315000080E003F009F98DF81700012303208DF8180015
S315000080F00DF1170200208DF81C0003A9DFF87404A7
S31500008100089005A8FFF719FD0646002004F004FCB8
S31500008110300007D103AB02224FF441710020FDF776
S3150000812054F8064636BB01A80021C0E9001128789C
S31500008130082103F0B2F9064628780D2103F0DBF892
S315000081400020009008232978002201A802F0CBFF26
S31500008150287802F029FFFF2028700023012201A9B8
S31500008160304612F0CAFC4FF4005104F118000EF02C
S31500008170FBFB03E00020207400F005F8012000E07E
S3150000818000200AB070BD00B585B000F04DF99DF82D
S31500008190030000F0C6F994231322C7A103200AF0B6
S315000081A049FE942003F07DFCFFF726FE032809DB39
S315000081B0DFF8BC03006840884FF6FF71884208BFAD
S315000081C0032000D0022004F0A7FB05B000BDF8B5DF
S315000081D004460D4616461F4612F0D0FDECB9684619
S315000081E0FEF781F9932808BF002D07D111F0F1FFA2
S315000081F000F0020040F0800011F0FAFF002239463C
S315000082003046FFF786FE012004F086FB03F0CFFA26
S315000082103046FAF78CFF03F087FAF1BDF0B5044655
S315000082200D46D14E8BB001220021304608F0D4FB1A
S31500008230684611F0E5FF0DF11503002241F60631FF
S315000082404020FEF719FCD04F082206F1300107F155
S315000082501C0004F0D9FC082206F13801381D04F090
S31500008260D3FC3C80BD70338DB17C3A460020FFF7CD
S31500008270AEFF01200BB0F0BD2DE9F04304460D46DC
S315000082801646B94F89B09846082205F11C0107F138
S31500008290300004F0B9FCDFF8F49299F800000228E7
S315000082A003D111F096FFC00712D599F800000128F6
S315000082B004D133882A462146FFF789FF022C08D1CC
S315000082C0FFF79AFD032803DB11F083FFC00704D4F0
S315000082D079E0FFF791FD032875DA288B12F04CFE42
S315000082E0FF2870D005AB424605F11001002012F0C0
S315000082F056FE002867D10E22314601A804F084FC00
S31500008300BDF80C00BDF80A10884204D20020ADF872
S315000083100A00ADF80C00BDF80800BDF8061088424A
S3150000832004D20020ADF80600ADF80800BDF8100034
S31500008330BDF80E10884204D20020ADF80E00ADF84C
S315000083401000BDF81000BDF80E30BDF80A20BDF8CB
S3150000835008100090BDF8060011F010FF98BB200031
S3150000836004BFA878002802D104F08BFBA87028224D
S315000083702946854804F048FCBC74BC4630883885DC
S3150000838005A80FC88CE80F000023AA1C291D284643
S31500008390FFF7D3FB50B90822291D07F1380004F076
S315000083A033FCA9782888FFF739FF12E020000AD1AC
S315000083B0042107F1380000F0D8FEF86A744A032158
S315000083C00FF02FFA05E033882A4621460120FFF7F1
S315000083D0FEFE09B0BDE8F0837FB5634915460A7C09
S315000083E0042A1C461FD100220A760A7410B1FFF730
S315000083F0CAFE7FBD04F0AEF906467DB100F014F862
S31500008400082202A9201D04F0FFFB9DF80300A070BE
S31500008410BDF80000208005F090FE60730122314611
S315000084202046FFF776FD7FBD10230722694601200F
S3150000843000F0A1BD30B583B004460D466846FEF790
S315000084406AF808226946201D04F028FC80B904F069
S3150000845089F9218881420BD105F06FFE0146607BC8
S31500008460FFF78DFB20B1002229462046FFF751FD7C
S3150000847037BD80B5012011F0BBFE3B4900200874D2
S3150000848001BD70B504460D461646FFF7B5FC032838
S3150000849011DA4048007870B1AC420CD1B0070AD569
S315000084A0284608F0D3FD30B1007920B9BDE8704008
S315000084B039480EF04FBA70BD4242000010237F22A9
S315000084C01A2104F01EBD28237F221B2104F019BDAA
S315000084D010B50C46FFF7F2FF2046BDE81040F2E764
S315000084E0024610237F211A2004F04EBD80B511F0FC
S315000084F070FE000A00F0010080F0010002BD80B5A8
S3150000850011F067FE10F4807018BF0120C0B202BDE2
S3150000851080B511F05EFE10F4807018BF0120C0B265
S3150000852002BD1E4909780B2901D03D20704710492C
S315000085300968887303F0ACB90D480068807B704702
S3150000854080B517491748086011F043FEC00702D4EA
S3150000855005490620087401BD0C48007870470B4990
S315000085600870002070470000C4F10320FF0700F8E0
S3150000857038F5032000F8FF0796DF0320D9DF032034
S3150000858004F20320DADF03201CF20320CCDF0320F1
S315000085901D82000016FD0320E8FB0320DDDF03201B
S315000085A088FB0320A0A1020010B5044611F011FEBD
S315000085B04FF6FD7108402043BDE8104011F018BE8B
S315000085C038343132000000000000000000000000D6
S315000085D02DE9F04701241128AAB000F04D81142896
S315000085E000F05382152800F0B180162800F0B38001
S315000085F0172800F0B6801A2800F0BA801E2800F06E
S31500008600C4801F2800F0C8802C2800F07B812F280A
S3150000861000F09581402800F06581412800F09481A2
S315000086204B2800F066815C2800F097815E2800F0F8
S315000086309D815F2800F0A181602800F0B481612847
S3150000864000F0B981662800F0FE81672800F00B82F1
S31500008650682800F0B981692800F0CF816B2800F006
S315000086601A82722800F0D481742800F017827528C7
S3150000867000F0DE81762800F0FF81792800F0BA80CC
S315000086807B2800F0D9807E2800F07C817F2800F0CE
S3150000869084818C2800F07182992800F0E7809C285C
S315000086A000F085809F2800F0FC81A22800F053820C
S315000086B0A32800F02E82A52800F01982B02800F029
S315000086C03982B32800F06282B42800F08182B5288E
S315000086D000F08A82BE2800F08F82BF2800F08982CF
S315000086E0C02800F0FC82C62800F0C682C82800F028
S315000086F0EB82C92800F09282CF2800F05A82D02857
S3150000870000F09280D12800F09480D42800F077827F
S31500008710D52800F07982D62800F07B82EA2800F07E
S31500008720D381EC2800F0EB81F72800F0CC80F82804
S3150000873000F0A780F92800F0B880FA2800F0BA8087
S31500008740FB2800F0C380FD2842D0D1E2FBF798F960
S31500008750DFF8A81503E0FBF793F9DFF8A415088006
S31500008760C7E26846FBF72DFA6846FCF705FEBCE251
S31500008770FBF75AF90546FBF793F900F0D6FA0246DD
S31500008780314628460EF021FDAFE26846FBF7A8F910
S315000087906846FCF75FFCA8E2FBF746F90546684623
S315000087A0FBF79EF969462846FCF7E7FC9DE2FBF7D6
S315000087B067F90546FBF774F900F0B7FA0746FBF7C9
S315000087C05FF903463A463146284606F0ECFB8CE252
S315000087D0FBF72AF9694604F007F9FBF73EF99DF81D
S315000087E00000FBF73AF99DF80100FBF736F99DF812
S315000087F002007AE2FBF718F9694608F01CFFFBF75E
S315000088002CF900F08AFA9DF80200FBF726F99DF88C
S315000088100300FBF722F900F07CFA9DF80500FBF750
S315000088201CF90DF10601F1E0FBF7FEF808F02FFF49
S315000088305BE208F034FF58E2FBF7F6F8694609F008
S31500008840E1F9FBF70AF900F068FABDF80200FBF758
S3150000885010F900F05EFA9DF80500FBF7FEF89DF8AA
S315000088600600FBF7FAF89DF807003EE2FBF7DCF896
S3150000887040B204F0F7F838E2FBF7D6F80BF0EBFC61
S3150000888033E2FBF7D1F80746FBF7CEF800F04DFAD6
S315000088908146FBF7C9F800F050FA00906BB24A46E1
S315000088A0314638460FF0A2F81FE2FBF7BDF80FF08D
S315000088B09FF81AE2FBF7B8F800F03FFA41B22846F3
S315000088C00FF098F811E20FF00CFC0EE2FBF7ACF893
S315000088D000F033FA00F029FA0246314628460FF036
S315000088E08BF802E26846FBF761FA6846FDF7EAFE96
S315000088F0FBE16846FDF713FFFBF7AFF86846FBF7A9
S315000089004EFAF6E1FBF790F86946FAF7C6FEFBF772
S31500008910A4F89DF80000FBF7A0F89DF80100FBF70E
S315000089209CF8BDF80200FBF7A4F800F0F2F90DF18F
S3150000893005010820FBF7BCF89DF80D00D5E1FBF713
S3150000894073F8FAF78CFE33E0FBF79AF800F0F5F9C6
S31500008950014628460BF08AFCC7E1FBF765F800F0F4
S31500008960E7F96946284605F0CCF9BEE1FBF75CF865
S31500008970694605F030FA694648E0FBF755F805F018
S3150000898042FA15E000F0CDF9FBF74EF8010018BFEA
S315000089900121684605F064FBABE100F0C2F96846C8
S315000089A005F040FBA1E100F0BCF9684603F081FE4A
S315000089B0FBF75FF89DE1FBF763F8694603F094FE69
S315000089C0FBF74BF8694621E0FBF75AF8ADF80000D3
S315000089D00DF1020100F09AF90DF1120100F096F97D
S315000089E0FBF722F88DF822000DF123010820FBF792
S315000089F022F8684607F0E0FB77E1684607F078FC66
S31500008A00FBF72BF800F089F90DF1020108207DE053
S31500008A10FBF70AF800F08CF9FBF706F802A900F05C
S31500008A2075F902AB6A4629460020FEF78BFB5CE12E
S31500008A3000F077F9FAF7F8FF010018BF0121684640
S31500008A40FEF73CFB51E100F06CF9FAF7EDFF054645
S31500008A5002A900F05BF9290018BF012102AA6846A5
S31500008A60FEF711FB41E1FBF70BF800F061F96946EF
S31500008A702846FEF7D5FF38E1FAF7D6FF0146002370
S31500008A8000220120FEF75EFB2FE100F04AF968465E
S31500008A90FEF77FF929E10CF0CBFE2AE1FEF76DFD2A
S31500008AA023E1FAF7C1FF054606A93020FAF7C3FF0E
S31500008AB069461620FAF7BFFF280018BF01206A464C
S31500008AC006A912F0C9FA10E1FAF7AEFF05460AA99F
S31500008AD04A20FAF7B0FF69462520FAF7ACFF2800CE
S31500008AE018BF01206A460AA90DF05EFAFDE0684645
S31500008AF012F0B9FAFAF7B1FF6946302006E0684687
S31500008B000DF057FAFAF7A9FF69464A20FAF7D0FF9F
S31500008B10EFE0694600F0FAF80FA93020FAF78BFF6C
S31500008B2004A92A20FAF787FF04AA0FA9684612F0BB
S31500008B309EFADAE0694600F0E9F816A94A20FAF743
S31500008B407AFF04A94820FAF776FF04AA16A9684610
S31500008B5012F08FFAC9E006A91620FAF76CFF0CA9E5
S31500008B603020FAF768FF69461520FAF764FF6A466F
S31500008B700CA906A812F075FAB7E0FAF781FF00F023
S31500008B80DCF841B228460DF0CCF9AEE00AA900F0B7
S31500008B90BDF8FAF785FF0090FAF746FF00F0B2F845
S31500008BA00DF1150100F0B2F869460AA8FFF7FBF8C7
S31500008BB09BE0FAF775FF0090FAF736FF00F0A2F88F
S31500008BC00DF1150100F0A2F86846FFF7E7F88CE012
S31500008BD0FAF766FF00F0B1F800F0A7F8024671B2A6
S31500008BE02846FFF717F980E0FAF75AFFFFF769F909
S31500008BF07BE011F03FFB7CE0FFF778FC75E0FAF7CD
S31500008C0013FFFFF784F974E0FAF70EFFFFF7FEF89B
S31500008C106FE0FAF735FFFFF7C7FC6AE0FAF740FFA7
S31500008C20804608A8FBF75BF8FAF7FEFE0646FAF759
S31500008C3027FF8146FAF724FF0546FAF721FF074684
S31500008C4006A90820FAF7F7FE0BA900F05FF8FAF775
S31500008C5027FF8246FAF7E8FE0590CDF810A00BA88C
S31500008C6003904B4606A8029001970095324608A944
S31500008C70404610F0FFF838E0FAF7D6FE8046FAF7DD
S31500008C80D3FE824604A8FBF72AF8FAF7CDFE00F0D9
S31500008C904CF88146FAF7DBFE00F04FF80746FAF784
S31500008CA0EFFE5FEA0A010246039218BF012102970E
S31500008CB05FEA0800019518BF0120CDF80090334601
S31500008CC004AA09F0FDFD10E0FAF7AEFE69460FF0C2
S31500008CD0AFFDFAF7C2FE6846FBF73EF809E06846C4
S31500008CE0FAF7FDFF68460FF0F9FDFAF7B6FE00E069
S31500008CF0002420462AB0BDE8F08700009EDF03204E
S31500008D00A0DF03208DF804000DF105011020FAF70D
S31500008D1092BE9DF80400FAF7A0BEBDF80000FAF76F
S31500008D20A8BE69460820FAF786BE0646FAF77CBE54
S31500008D30054669460820FAF77EBE0546FAF774BE70
S31500008D4041780078FFE700EB012080B270470170A0
S31500008D50090A4170704710B50023040014BF1C4671
S31500008D60C3F10304E4B25B1C0A55120A042BF4DBBC
S31500008D7010BD30B54A788B78CC78097818B1204682
S31500008D801D460C4602E0154608461A4645EA0020EE
S31500008D9044EA022141EA004030BD0020704700B19C
S31500008DA00220704701207047674840687047F8B551
S31500008DB00446654F65487E680025044201D00220BE
S31500008DC0F2BD24EA0600C0037C6007D5002100201E
S31500008DD000F03EF80021002000F05AF8786800F410
S31500008DE0804006F48041884205D0A00B00F00100C7
S31500008DF000F09DF805462846F2BD38B5524CA578D8
S31500008E00E0786168C9031CD405F0010100F0010295
S31500008E10114316D0E16841B1000706D5E168082084
S31500008E208847E07800F0F700E070A06868B128078E
S31500008E300BD5A16808208847A07800F0F700A0703D
S31500008E4003E0607808B100206070BDE8314073E04F
S31500008E502DE9F04104460D4612F00DF93A4F8046D1
S31500008E603878012698B1BE78200009D1002E1CBFA3
S31500008E70B868002804D0700602D5B9684020884733
S31500008E80BD60A6421CBFBC70FFF7B7FF00261EE000
S31500008E902DE9F04104460D4612F0EDF82A4F8046C2
S31500008EA03878012698B1FE78200009D1002E1CBF23
S31500008EB0F868002804D0700602D5F9684020884773
S31500008EC0FD60A6421CBFFC70FFF797FF00264046D8
S31500008ED012F0D7F83046BDE8F08138B51A4D29783A
S31500008EE0884204461ED020000ED00121184812F0F8
S31500008EF0A7F9122012F017FE18B90A2012F013FE75
S31500008F0050B112F034FE07E000210020FFF7C0FF49
S31500008F1000210020FFF79CFF2C70204600F006FD84
S31500008F2000F00AF8002032BD07480078704700B10B
S31500008F3002207047704700BF034801780021417046
S31500008F40002000F04FB900008CE30320FFFC0FF86F
S31500008F500035080010B5044602F00AFC48B10FF2CD
S31500008F60801000E0801D017919B10188A142F9D174
S31500008F704488204610BD2DE9F04182B004460D46D6
S31500008F801646984602F0F4FB074654480178FF2936
S31500008F9017D04078B84214D100220FF2441002E0F4
S31500008FA09A18D2B2801D03795BB1B0F800C0B445FF
S31500008FB0F6D184F0010300930379284602F093F872
S31500008FC01DE03046FFF7C6FF064607B17F1E002CA0
S31500008FD0434607D0FAB23146284602B0BDE8F04112
S31500008FE003F08FBF2A46F9B203F0CEFF02F0DFFB93
S31500008FF030460AF0A1F8BDE8F34102F095BBBDE8A2
S31500009000F3812DE9F04389B0074602F0B1FB002554
S3150000901006000FF2CC0421D0761E1FE02088FFF751
S3150000902099FF804694F80490380005D04B46F2B27A
S31500009030414601A803F065FF2848017800974B4692
S31500009040EAB201A802F04FF8380005D14B4601AA52
S31500009050F1B2404603F098FF4D44A41D2079002844
S31500009060DCD109B0BDE8F08310B51C4C2078FF2890
S3150000907001D1702010BD0020FFF7C3FF207801F05A
S3150000908093FFFF2020706070002010BD10B5134CB8
S315000090900FF24C0062780021FF2A04D0702010BD28
S315000090A05118C9B2801D02791300F9D1002001F0D0
S315000090B0FEFFFF28207007D002F05AFB60700120E7
S315000090C0FFF79FFF002010BD182010BD0348007851
S315000090D0FF2801D10120704700207047ECDF0320F4
S315000090E007000E001000080010001A0006000D0010
S315000090F0110002000F00110004001300040001001B
S31500009100010004000900110008000A0012000A000C
S315000091100B0014000200000000000000012100F016
S315000091201F029140DFF8E42A05E0012100F01F024A
S315000091309140DFF80C2A400942F82010704710B51C
S315000091400446FFF7F2FF012004F01F018840DFF814
S31500009150C01A620941F8220010BD10B50446FFF797
S31500009160E4FF2046BDE81040D8E710B54C00214684
S3150000917012F046FDA04201D0002010BD012010BD16
S3150000918000207047DFF8380A407C00B101207047A4
S3150000919010B5DFF82C2A537C010018BF012103B15A
S315000091A00123994250741CD060B16FF07F0013F018
S315000091B062FAFFF7F9FDC00513D5BDE8104000209F
S315000091C013F01EBB107A00B10120DFF8F84A2044E4
S315000091D090F9020000F07AFD2078BDE8104000F01A
S315000091E061BC10BDDFF8D819497C01F0FE010843C7
S315000091F0CEE738B5044611F03EFF0546DFF8C00954
S31500009200407C40086441E0B2FFF7C2FF00F059BC61
S3150000921080B5B0F5004F07D100F09CFDDFF8F409EA
S3150000922000F007F8BDF80000DFF8201B08810020D9
S3150000923002BD01887F22684603F01CBF2DE9F04F6E
S31500009240440900F01F050027DFF8048B00E07F1CAF
S3150000925098F80660F8B2B04236D2D8F80800FFB2E5
S3150000926050F827004FF0000C01E00CF1010CC67E0F
S315000092705FFA8CFEB645EAD2D0F81CE05FFA8CFCA9
S31500009280142616FB0CF6B6449EF8086006F0070690
S31500009290A642EAD19EF80960B542E6DB9EF801B027
S315000092A09EF8009006EB0B0AAAEB090AAA45DCDB3E
S315000092B011B1AC1B4C440C7012B19EF80810117021
S315000092C01BB1C3F800E000E00020BDE8F08FDFF836
S315000092D0F008007A7047400918BF40F01800704740
S315000092E013F0D6BA0B38102834BFDFF8DC09DFF8E4
S315000092F01C0B006870472DE9FF41044613F063FB21
S3150000930004F01F001B2836D2002000906B4601AAED
S3150000931000212046FFF792FF07002CD02046FFF7DA
S31500009320E1FF5FEA000826D0DFF89468DFF81C5AF0
S31500009330306E804511D002A8414606220CF01CFA78
S31500009340C6F86080002102A813F084FC98B9B5F92C
S31500009350060013F052FF13F01BFD9DF8040004F005
S315000093601F0112F036FE0098F064B76400980028DA
S3150000937018BFC06801E08A2022E030659DF804002D
S3150000938030722C7011F077FE0446707C80F003007A
S31500009390707480F00300FFF7FBFE204611F071FEAB
S315000093A0E87800F061FB307B00F09DFB687800F008
S315000093B0C9FB96F90900DFF8C41AC001086000204D
S315000093C004B0BDE8F081DFF8840900787047DFF863
S315000093D07C09B0F90600002854BF05216FF004018E
S315000093E008180A2190FBF1F040B270470A2110FBE1
S315000093F001F0FFE770B500F5D77240F277239A4285
S3150000940001D38B2070BDDFF8B827DFF84049D36C55
S31500009410002B1EBF257A05F0C005802D0FD0927A4D
S315000094206AB993F902200A2512FB05F6B042A3BFDA
S3150000943093F9032012FB05F3834212FB05F013F0A8
S31500009440DCFE13F0A5FC13F01DFFE080002070BDCC
S3150000945038B50446FFF746FFC8B1002300220021B5
S315000094602046FFF7EBFE90B104F01F051B2D0ED230
S315000094702046FFF730FF40B11C280FD01D2808D02A
S315000094801E280DD01F2809D001E00B2D06DAFF207B
S3150000949032BD1B35EDB2232D08BF3E25284632BD11
S315000094A005F12300C0B232BD0FF208014008085C86
S315000094B070470000504030007047C0B27047F8B5A2
S315000094C00446DFF8FC66257896F90F0008B18C2073
S315000094D0F2BDDFF8587A7878F0B110F051F801282B
S315000094E018BF032818D0316D002918BF022808D0EC
S315000094F04879B0704878F070887830710879707162
S3150000950004E03046394607220CF036F996F9020097
S31500009510010002D5404200E00020B074B07C01009A
S3150000952010D0431EB07B30B100200090DBB2002289
S315000095300021802004E00090DBB23179F07800222F
S3150000954012F069FE307ABB794FF480614FF4006205
S3150000955023B10023AD1EDFF834CA02E00623DFF88C
S31500009560ECCA18B9CCF80020CCF80010CCF80420CE
S31500009570CCF80410B382B07A70B9387860B16078EC
S31500009580800609D5E07830746FF00100F073B07C86
S3150000959028B900F023F905E04FF0FF30F0730320FF
S315000095A000F01CF9601CC6F81900EDB2A6F81750B9
S315000095B00020F2BD000000002DE9F047DFF800565C
S315000095C095F90F100024091D04290CD8DFE801F0D5
S315000095D0080B0D0D0300FFF772FF040005D08AE0AB
S315000095E0EC738D2087E08C2085E0FFF79DFC00283A
S315000095F01CBFA87C0028DFF8586A14D03068002801
S3150000960011D5DFF8500AC168C1600122006800F078
S315000096100F0002FA00F0401E014204D100F0DEFB0A
S31500009620642002F0D8FC11F026FD804695F90F0063
S3150000963010F1010F1CBF95F90F0010F1020F53D165
S3150000964095F90F00DFF804774042E873A87C0028FC
S3150000965040D1DFF8049A0820C9F8000013F0A8FEEC
S315000096603168090E01F00F01032907D1DFF8EC1963
S315000096700A6822F0F00242F0E0020A600121DFF8F7
S31500009680E029116013F098FEDFF89C0B4FF4001AE6
S31500009690C0F800A03068C102FCD400F07260B0F1DE
S315000096A0E46FF7D00022002105F1140012F093FDBB
S315000096B0FFF73AFC20B9DFF8AC190820086002E091
S315000096C00820C9F80000787950B9DFF8600BC0F8B7
S315000096D000A005E00022012105F1140012F07BFD37
S315000096E010F0C2F9386102E00020E8738D2440468C
S315000096F011F0C7FC2046BDE8F0872046BDE81040C3
S3150000970011F0BFBCDFF86009008970470000000057
S3150000971070B511F0B0FCDFF83456044668790128BC
S3150000972004D12046BDE8704011F0ABBC00F036FA1B
S31500009730DFF8DC6ADFF828194FF48070306001200A
S3150000974008604FF40010DFF8E01A0860402030602F
S3150000975012F096FD20203060012012F053FD042007
S31500009760FFF7FBFC0120FFF7F8FC1C20FFF7F5FCD8
S315000097700820FFF7F2FC1F20FFF7EFFC0520FFF79C
S31500009780ECFC0620FFF7E9FC0720FFF7E6FC0021CA
S315000097900020FFF75DFB00F011FB01206871DFF888
S315000097A0200490F90F10091D07290CD8DFE801F0F5
S315000097B00F0B04040F0808086FF00301C17306E0DD
S315000097C000F0B6FB03E040F2664100F04FFC204695
S315000097D011F057FCBDE8704013F033BEF8B5DFF862
S315000097E06C5504466879A04264D003284FF40017EC
S315000097F05BD8DFE800F052024B4413F02BFE11F069
S315000098003AFC0646DFF8A00A00F055F80720FFF7F5
S3150000981096FC0620FFF793FCDFF8900AC16821B199
S3150000982000F049F80520FFF78AFCDFF8840AC168D2
S3150000983021B100F040F81F20FFF781FC13F037FF3D
S31500009840DFF8700A416801600820FFF778FCDFF84E
S31500009850680A00F030F81C20FFF771FCDFF85C0A9C
S3150000986000F029F80420FFF76AFC0120FFF767FCE7
S3150000987003206871304611F004FC032C1AD0022034
S315000098806871012100F08BF9022C13D094B90020E5
S315000098906871DFF898090760F1BD022C0AD1DFF87C
S315000098A08809076002206871F1BDBDE8F44040F206
S315000098B0BC4115E0F1BD0168C26811408160704786
S315000098C000208BE7DFF8D40A40797047032805D8D3
S315000098D0DFE800F0030203031AE77FE740F2DA410C
S315000098E00FF6303003F0FCB9B54890F90F10002997
S315000098F044BF0021C173DFF854040079012808BF72
S31500009900FFF706BF7047DFF8940A0079704780B505
S31500009910032801DB012002BDDFF830140871497904
S31500009920884218BFFFF7D2FF002002BD70B5064679
S3150000993013F049F8DFF8684ADFF8680A4FF0007557
S315000099404FF4806196B10160DFF85C0A0160052082
S31500009950FFF7F5FBDFF8540A00F01DF8DFF8F816FC
S3150000996008602560DFF8480A056070BDDFF8442A04
S3150000997011600160406810B90520FFF7CFFBDFF8E2
S31500009980380A00F008F8DFF8DC160860DFF82C0A61
S315000099900560256070BD102101602021016008204E
S315000099A07047F8B50446022C0FF6682604DB40F231
S315000099B02A51304603F094F9814DE87C002840D1C5
S315000099C0DFF888737879012804D04FF4A661304611
S315000099D003F086F9DFF8E80901880223FFF72AFC7D
S315000099E0BDF80000C0054CBF0020BDF8000068723D
S315000099F012F0B9F9FFF798FAFFF798FF3889FFF7E1
S31500009A0007FC13F0E7FF00F065F83878FFF773FC02
S31500009A1020B14FF4A961304603F062F9B7F90600A8
S31500009A20FFF7E8FC788900F069F8B88900F079F862
S31500009A30B87800F03EF9601E8041C00F78710120B1
S31500009A40E8742046FFF742FFF1BDDFF878090068A9
S31500009A500004001610F1800FF7D0DFF86C1991F9A9
S31500009A600410401A40B2704738B5044612F0ABFFF6
S31500009A7011F001FBDFF854190A685208651EAD4162
S31500009A80ED0F45EA42020A60DFF844190A60210038
S31500009A90DFF8082918BF0121D17013E0DFF8FC08B0
S31500009AA0C078704738B5044612F08DFF11F0E3FA1E
S31500009AB00546FFF767FB10B9204612F0A1FE814864
S31500009AC004702846BDE8324011F0DBBADFF804091D
S31500009AD00078704780B512F076FFBDE80240DFF8E7
S31500009AE0F80812F0A3BE10B504463548047312F008
S31500009AF06AFF2046BDE8104012F087BE10B500F0A0
S31500009B001BF8448112F05FFF2046BDE8104012F0BA
S31500009B1081BEDFF8880840897047DFF880088089B1
S31500009B20704710B500F008F8848112F04CFF20460B
S31500009B30BDE8104012F074BE044684487047000029
S31500009B4080E200E010B5FFF7F7FF447012F03BFF2C
S31500009B50DFF88C08016821F4702244B1DFF8F8447C
S31500009B600223C1F300412360C1F1060107E0DFF8DB
S31500009B70F4440223C1F300412360C1F1040142EA27
S31500009B800141016010BD80B512F01DFF00F006F81E
S31500009B9000F023F8BDE8014013F093BF0021002038
S31500009BA012F0F5B980B513F0ABFF13F03FFFDFF805
S31500009BB0EC074079010018BF022800D12CE001BD56
S31500009BC074E9032080B512F0FEFEFFF7E7FF00F010
S31500009BD004F8BDE8014013F052BFDFF834164FF425
S31500009BE0807008600120DFF87814086013F0FEBE6C
S31500009BF080B513F085FF13F019FFDFF8A007407951
S31500009C00010018BF022800D106E001BD80E100E096
S31500009C1000E100E0CEAA0200BDE8044001210020D8
S31500009C2012F0B5B938B5DFF8B45795F90F00012829
S31500009C3005DB95F90F00032801DA002032BD434801
S31500009C404479022C18BF002C05D00220FFF7C6FD70
S31500009C50642002F0C0F9A86C10B93D48806800681D
S31500009C60DFF8802701464969007EB2FBF1F110FB5F
S31500009C7001F0C004000C02F0AEF9DFF8D40300686E
S31500009C80000E00F00F0002280CD1DFF85C07816897
S31500009C900904091611F1800FF7D00068800A00F058
S31500009CA0010500E00025012C08BFFFF731FD28461D
S31500009CB032BD10B5044613F0B0FFDFF8E00684703D
S31500009CC010BD000090DF0320F8DD032070B50546C7
S31500009CD07F2D82B0DFF8044715D100F03BF8DFF89E
S31500009CE00C07FFF7A6FA207A7E250028BDF80000AB
S31500009CF005D0400A07D07F2805DA454203E0C005B3
S31500009D0058BFBDF8005011F0B6F90646FFF73AFA0B
S31500009D1080B96DB228467E2803D1E06C50B190F927
S31500009D2004007E2806DA0A4991F90410081840B2A0
S31500009D3012F0A1FC207A00B10120DFF89816084441
S31500009D408570304611F09DF973BD0000A0DE03203A
S31500009D5090A102004FF6FF70ADF800000223704795
S31500009D60DFF87806017A01B10121DFF86826531879
S31500009D7093F902307E2B06D1C06C08B97F2070475C
S31500009D8090F9040070471846704710B5FFF70CF8B5
S31500009D90800411D5DFF804464FF0FF306061FFF70D
S31500009DA003F8C0044CBF032001200021FFF770F820
S31500009DB00FF05AFEA06110BDBDE8104080B5DFF877
S31500009DC0DC054FF0FF314161816112F0EBF820B9FB
S31500009DD0BDE804400021FFF75BB801BD80B5FEF782
S31500009DE0E3FF4005BDE804404CBF032001200021ED
S31500009DF0FFF72EB87047DFF8F8050068400403D473
S31500009E0000210020FFF724B870470000FCDD032086
S31500009E1010B5DFF8C8450020E07304200FF0A7FB5B
S31500009E20DFF878154FF0FF300861A07A00B16BE0DB
S31500009E30BDE81040002200218D2013F05EBFDFF840
S31500009E409C0590F90F00022804BF0020FFF7C6BC4E
S31500009E5070470000DFF8840590F90F1003290BD135
S31500009E600021C1734FF0FF31DFF830251161002268
S31500009E70416D402013F041BF70470000403008405C
S31500009E8010B5DFF858450FF000FEA06500F076F833
S31500009E9094F90F00012802D002280FD02FE00020ED
S31500009EA0E0734FF0FF3070490861A07A00B12BE0F3
S31500009EB0616DBDE81040002213F01FBF0020FFF7C0
S31500009EC08DFC0320E073206DA16C00280CBFFF20E1
S31500009ED0408A19B9DFF8F014896809680A46097ECC
S31500009EE052694843DFF8FC14B1FBF2F1BDE81040BB
S31500009EF001FB00F2DFF8FC14002014F04AB9BDE8BB
S31500009F00104040F28171EBE40120E07210BD80B593
S31500009F10FFF754FF0FF0B9FDDFF8C014886514F0A1
S31500009F20B2F8BDE801400FF0D3BC000020DF0320EB
S31500009F3070B5FFF743FF4C4DDFF8A0444FF0FF36F6
S31500009F402E610FF0A2FDA06594F90F00012814DB25
S31500009F5000F014F80020E0732E61A07A10B1012001
S31500009F60E07270BDDFF88C1414F054F9BDE870404F
S31500009F7000220021892013F0C0BE70BDDFF87804EE
S31500009F80407808B1A06DE06570470000A000084663
S31500009F9010B5FEF7C9FF90B112F004F878B1324C53
S31500009FA04FF0FF30A0610FF05FFD6061FEF7FCFE31
S31500009FB000054CBF032001200021FEF769FFDFF8F2
S31500009FC03C04007818B1BDE8104000F028BA10BD76
S31500009FD0DBE6F3E680B5DFF828040068000C00F441
S31500009FE04041B1F5404FDFF81C040AD10DF07BFD6E
S31500009FF0C0B9002011F0E2FF0020DFF8E01348733B
S3150000A00001BDB1F5004FF4D100880DF0F9FCFF2831
S3150000A01008D0DFF8F413096831F810004FF4E66150
S3150000A0200842E6D0012011F0C9FF0120E5E710B58E
S3150000A0300C4612F05EFD20188F2803D340F6280147
S3150000A04000F014F8DFF8C40310BD0000A0000844B7
S3150000A050044008404C500840440008445C1F00215E
S3150000A0602400084044000846A0DE03200FF2A43076
S3150000A07002F036BE2DE9F04786B012F037FA0446F4
S3150000A080684611F0DEFF0DF10501086810B9FFF70B
S3150000A09095FEAAE09DF80A00C04D18B96878002818
S3150000A0A040F0A180C9480078BDF80360CB4FC007D7
S3150000A0B00868005D58BFB61C00F00700022829D1C9
S3150000A0C0FFF77CFE97F90F00032802BFF6B2601D6A
S3150000A0D086421CD10DF105010868397C2044807840
S3150000A0E0814214D10DF105010868005DC1490009DE
S3150000A0F000F001040020F87314F08CF84FF0FF30E4
S3150000A1002861224600218F2013F0F7FD6DE0E878E4
S3150000A11000286AD1B6480068800207D467480068FC
S3150000A120800703D4FFF74AFE002078730DF105017E
S3150000A130DFF8D8A208680FF2DC28824504D040F682
S3150000A1407901404602F0CCFD022CD14609D19AF89D
S3150000A150010090FAA0F0000E0AF10109761E8AF8B5
S3150000A1600100F6B299F80000401CB04204D040F657
S3150000A1708401404602F0B4FD09EB060428782070FD
S3150000A18001F05FFB607090489DF909100079091A8B
S3150000A190A1709DF80910081A40B2FF2110F1630F53
S3150000A1A0B8BF00200ADB10F1240FA8BFFF2005DA94
S3150000A1B064300002421100EB92608011E070217160
S3150000A1C006F108019DF80D006071C9B29DF80C00FA
S3150000A1D0A0719DF80B00E07148467A7B13F052FFA0
S3150000A1E00020787301E0FFF7D0FD06B0BDE8F087E8
S3150000A1F0012804D0022804D0042805D07047002086
S3150000A20000E0012013F0B7BF09490120087070472C
S3150000A2100840084014F02CB8704908B1C86D704762
S3150000A220886D7047000000001860084618600844F2
S3150000A23008FD032038B50446002C0D4607D40FF060
S3150000A24013FC011B89B28D428041C00F32BD002034
S3150000A25032BD10B5514C20694FF47A71FFF7EAFF11
S3150000A26070B15E4890F90F00032807D161490020BC
S3150000A27013F0D0FF0020FFF7EDFD01E0FFF758FED9
S3150000A28060690A21FFF7D6FF08B1FFF797FDFEF7D1
S3150000A2908BFD00F0FF01A069FFF7CCFF10B1BDE810
S3150000A2A010408BE510BD00001440084000620840D5
S3150000A2B070300840E81008403070084060000840E0
S3150000A2C010B540B90FF009FB10F0D5FE0446FFF7B4
S3150000A2D0C0FFFFF712BABDE81040BAE738B50C4622
S3150000A2E000F01F011B290AD2002100916B460022B3
S3150000A2F0FEF7A4FF05001CBF0098002801D18A20A4
S3150000A30032BD1CB940F63B11FFF7B0FE009840493C
S3150000A310407920700098807960700098C079A070AC
S3150000A32068690918B1FBF0F0A073A97E687E081869
S3150000A3300D30811000EB5170C010E0730098C068BA
S3150000A34020610098C06820B9E0706060208160815B
S3150000A35021E000980FF2C401006988420CBF012079
S3150000A3600020E0700098C0682A7E41896B695143DD
S3150000A3701C4AB2FBF3F2514361602A7E01896B6984
S3150000A38011FB02F1174AB2FBF3F211FB02F1218134
S3150000A390C18961818089A081002032BDA0DE0320B1
S3150000A3A064500840086208400C620846944008461B
S3150000A3B0685008460C6208449440084468500844B3
S3150000A3C0D2AA02000870084090A10200DCF7032020
S3150000A3D08C40084090DF0320ACF3032074E903208F
S3150000A3E00400084040420F0000700840D4AA020052
S3150000A3F004400840559E000020DF032007FD03208F
S3150000A40090400840541F002144DE0320D8E9032071
S3150000A410FF117A007068792E630000000000704713
S3150000A42010B587480FF2582194B004884FF6FF7094
S3150000A430844208BF4FF4E1340AA824220BF0ACF999
S3150000A44068460AA924220BF0A7F91020ADF82400CB
S3150000A450ADF8260001946946202014F0EFF9C0B249
S3150000A46020B13E210FF2002002F03AFC14F0F4FB7A
S3150000A47014B010BD80B514F0D1FB20B1714800783E
S3150000A48000F092FD012002BD10B514F0A9FB6D4C41
S3150000A490207000F07BFD207800F010FD6A494860CE
S3150000A4A010BD38B514F05EFD664C2078FF2815D136
S3150000A4B0654D688838B10FF0D7FA2A886988801AFE
S3150000A4C080B2814204D200206880204614F051FCFC
S3150000A4D02078FF2804D000F0F1FC6860012032BD2E
S3150000A4E0002032BD38B50446564D00F00AF82878EB
S3150000A4F0214614F0FBFBFF202870BDE8314014F024
S3150000A50031BD50480278FF2A03D04CA13C2001F00F
S3150000A51037BE704770B5044682B00D46002000F085
S3150000A520C6FD0646FF2E07D046480278009523460C
S3150000A5300021304600F0CFFF304676BD4348414902
S3150000A54000680978405C704701463E48007800F094
S3150000A550BBBC2DE9F047DFF8F88082B0002008F098
S3150000A560B5FC98F800A00446012000F0B2FC814634
S3150000A570661CB9F1FF0FF6B208BF002053D0314F69
S3150000A5803878FF2809D000F00FFD06E082463148F2
S3150000A5900188203E2039F6B20180212E2E4A11680C
S3150000A5A011F80A00F2DAFF2301F80A3000231168D5
S3150000A5B0254D01F80900524620200090002148460A
S3150000A5C000F089FF98F80000387000F077FC6860AA
S3150000A5D088F80090009401233A780021104600F094
S3150000A5E07AFF3878214600F06FFC1C480188091B69
S3150000A5F0491E018089B298F8000000913346024650
S3150000A600002100F068FF01F00BF838B10F493878E7
S3150000A6100968095C1231C9B200F026FE6868104963
S3150000A620204408600120BDE8F68738B50446064D8B
S3150000A6300FF01AFA28806C8031BD0000620000001D
S3150000A6403E00E00FB2DF032058E1032030DE032096
S3150000A650E6DF0320B6F9032038DE0320D6FC03200C
S3150000A66070E903207047000073657269616C2D699B
S3150000A6706E746572666163652D756172742E630012
S3150000A6800000014000C201000000001000000000B0
S3150000A69002000200030000000000000000000000AD
S3150000A6A01E1E00002DE9F6410546DDE900010146C2
S3150000A6B028460CF095FB284602F002F90746284684
S3150000A6C002F00CF900213A469DF80040024203D1FF
S3150000A6D087F00102104301D1019801782E464FF60A
S3150000A6E0FF780FB3212E1FDA422002294A4A0ADADE
S3150000A6F010FB01F0104430F81610414514D0491CE7
S3150000A70020F8161010E00FD1002102EB460300FBE3
S3150000A71001F733F807E0C6451CBF0EF1010E23F81A
S3150000A72007E0491C0229F2DB3C4B3D4933F8160091
S3150000A73031F8167087429241D243D20F47451CBF6B
S3150000A7407F1C21F81670092E9F8A18BF0B2E07D181
S3150000A7508B8A04EB030EBE4510DAE3188B820EE0FB
S3150000A7601D2E0CD1B1F83AE05B8FA6449E4505DA62
S3150000A77031F81630E31821F8163000E08F8231F8F0
S3150000A7801610814203D312B9284608F0CDFC0027E3
S3150000A7900FF2A400C15DA94204D07F1CFFB2112FA5
S3150000A7A0F8DB20E0112F1EDA01F02BF805461D48D4
S3150000A7B00078854204DBD7210FF2700002F090FA90
S3150000A7C02221194811FB05F1084430F817104145BC
S3150000A7D01CBF491C20F81710092E18BF0B2E02D1DA
S3150000A7E0818A09198182BDE8F38180B55022002152
S3150000A7F00B4802F04CFABDE80840442200210A4802
S3150000A80002F045BA5022FF21044802F040BA034A3A
S3150000A81022F810107047000098F4032004F4032077
S3150000A820B4F30320BBDF032054F40320636F756E7B
S3150000A830746572732E6300000001020304050607A7
S3150000A84008090A0B151618191A0000009C4800780A
S3150000A85070479B4900F001000870002070472DE901
S3150000A860F04106460CF0B1F98046FEF769FA044657
S3150000A87040460CF0F5F918F8005030460CF09BF9FC
S3150000A880074640460CF0ECF98E490968895DC91BFC
S3150000A890091AFF22A00548BF122208D47C2D08BF42
S3150000A8A0032204D0092D3CBF0FF21C20425DC9B221
S3150000A8B091428041C043C00FBDE8F08170B50446A7
S3150000A8C004F02AFE054620460CF07FF94078400742
S3150000A8D014D500F068F858B100F0A1F80646691CD6
S3150000A8E0C9B200F09DF82EB1B04203DBFF2801D0BB
S3150000A8F0002070BD05EB4600851CADB229462046FA
S3150000A900BDE8704004F020BEF8B5044604F0E3FE4E
S3150000A910054620460CF059F9064600F044F8002892
S3150000A9203FD000F07CF80746691CC9B200F078F801
S3150000A9300E2F36D20FF29C11C95D6D18ADB24200D2
S3150000A94005F10801012F89B20AD0022F0CD0052F7C
S3150000A95011D0082F14D0092F18BF0A2F15D01EE0CA
S3150000A96080061CD50D461AE0C20648BF0D46800675
S3150000A97015D5083512E07078C00612D555190DE0C8
S3150000A98000F01F0000EB400007E010F0E00008D1E7
S3150000A990092F0CBF02F03E0002204519ADB2294630
S3150000A9A064E00020F2BDA91C89B2204604F0CCBDAB
S3150000A9B0F8B5044604F08FFE0546691CFFF7F4FF60
S3150000A9C058B300F02CF8064606F00C00042806F0F2
S3150000A9D0030722D0022F00D1F8B9304604F0A9FEB1
S3150000A9E02D183006ADB212D5691CFFF7DDFFA8B1F0
S3150000A9F0E9B200F015F80146012F1CBF01F0030073
S3150000AA0003280AD0304604F0A4FE2D18ADB229461C
S3150000AA10204604F099FD010000D10020F2BD294630
S3150000AA20204600F068BCF8B5044604F0D7FE05469B
S3150000AA30FFF7B9FFC0B1FFF7F2FF0646112E13D29A
S3150000AA400FF2A000805D691CC9B24719FFF7E8FF45
S3150000AA50052EFFB206D1062806D20FF29C01085C2D
S3150000AA60C719FFB2394601E00020F2BD2046BDE815
S3150000AA70F44004F069BD70B5114A0FF284031278F0
S3150000AA8004460020002A02D1012070BD401CC0B23D
S3150000AA90024613F832502E0009D0AC42F6D10846D1
S3150000AAA003EBC20149688847010001D070BD00244C
S3150000AAB022464FF6FF711E2001F008F8002070BDF7
S3150000AAC0E9DF032030DE0320FF0204FF010101015C
S3150000AAD008000000FF06080402020204020A0B0333
S3150000AAE003020000FF00000000000C090202000043
S3150000AAF000001C1A0B0000000023001B22000000AF
S3150000AB00010000005FA8000002000000BDA80000D0
S3150000AB100300000009A9000004000000B1A900001C
S3150000AB200500000027AA0000000000000000000049
S3150000AB302DE9F0479F4DA04C0E468046297888B0F7
S3150000AB40207898F800A088420CBF012700276846A5
S3150000AB5001F002F8A84508BFFF2E0AD197492878C8
S3150000AB6089682522B1FBF2F10E18B6B2FF2EC8BFD6
S3150000AB70FF2688F8006000F041F806000FF20C3955
S3150000AB8008D088F800A000F039F818B173214846BB
S3150000AB9002F0A6F8DFF828A27FB114F01BFD0746E5
S3150000ABA014F01CFD3A1A92B20021504602F06FF8DA
S3150000ABB000F058FC2878207015E08248046814F0EC
S3150000ABC009FD074614F00AFD381A001B0AEB0002BD
S3150000ABD092B20021204602F05AF8A84503D17F21FF
S3150000ABE0484602F07DF800F025FD684600F0CFFFEC
S3150000ABF0F5F7CBFC304608B0BDE8F0872DE9F84301
S3150000AC00714FDFF8BC8114F0E5FC054614F0E6FC54
S3150000AC106E496F4BC1F80080281A6649097808EB1F
S3150000AC2041121A600A446B4B1A600A446A4B1A6056
S3150000AC300A446A4B1A605318604A5D1861495360AA
S3150000AC400D604044664909784E1C760405EB1645AE
S3150000AC50644E356005EB41053D6005EB8105624FAD
S3150000AC603D600D44614F3D6005EB4106604D2E6031
S3150000AC70604D2F78062515FB07FC1FFA8CF31E4442
S3150000AC805D4B1E60CB1DDB1017FB03F7BFB23E44C6
S3150000AC905A4F5B4B3E605B4F3F7806EBC7065A4FF9
S3150000ACA03E605A4F3F7806EB8707594E37600C26B1
S3150000ACB093F800C016FB0CFC1FFA8CF307EB030E8F
S3150000ACC0544FC7F800E00E23534F97F800C04827AB
S3150000ACD017FB0CF4A4B2A644504CC4F800E0504C48
S3150000ACE024780CEB040913FB09F91FFA89F39E4437
S3150000ACF04C4BC3F800E00B1963449B044A4C0EEB23
S3150000AD0013432360494C00F0B9F8494C2360494C81
S3150000AD1000F0B4F8484C2360484C247817FB04F73D
S3150000AD20BFB23B44464F3B602C24464F3F7814FB52
S3150000AD3007F7BFB23B44444F444C3B60444F3F7817
S3150000AD4003EB470323603B44424F3B601944424BAD
S3150000AD501960424B1B7873431944414B1960414BB0
S3150000AD601B786B431944404B1960404B1B7801EB31
S3150000AD7083013F4B19603F4B1B7801EB830113782E
S3150000AD801D0008BF002504D05B1C0D465B0401EBCB
S3150000AD901341394B88422CBF414535201D6006D3EF
S3150000ADA0411A91600FF2F80008F03FF80020BDE864
S3150000ADB0F2830000B3DF0320B4DF03204CF5032049
S3150000ADC00000002040DE032048DE03202CDE0320A6
S3150000ADD030DE032034DE032038DE03203CDE032091
S3150000ADE0B6DF032044DE03204CDE032050DE0320C2
S3150000ADF054DE0320B7DF032058DE03205CDE032089
S3150000AE00BADF0320B8DF032060DE0320B9DF0320AA
S3150000AE1064DE032068DE0320BBDF03206CDE032034
S3150000AE20BCDF032070DE032074DE0320BDDF0320B9
S3150000AE3078DE0320BEDF03207CDE0320C0DF032094
S3150000AE4080DE0320F3FC032088DE03208CDE032053
S3150000AE50F5FC032090DE032094DE0320C1DF0320EF
S3150000AE6098DE0320C2DF03209CDE0320F7FC0320CC
S3150000AE7084DE0320F4FC032080FB032094F800C04A
S3150000AE8015FB0CFC1FFA8CF4234470476D656D6F3F
S3150000AE9072792D616C6C6F636174696F6E2E6300DD
S3150000AEA052656D61696E696E67206D656D6F727949
S3150000AEB03A2025642062797465730000DFF81C1758
S3150000AEC0096801EB40107047DFF814271268115427
S3150000AED070472DE9F041040035D010F0CCF8DFF8CA
S3150000AEE00417DFF804370E78FF228046FE2EDFF8BF
S3150000AEF0FC061BD100260E70DFF8F4C6DFF8F466F8
S3150000AF0037781F70002708E007F1010E05F807E003
S3150000AF10DCF80050EA555FFA8EF796F800E005680F
S3150000AF207745F1DB05EB0E0606F8012C1E78A642E6
S3150000AF300BD2404610F0A5F8052007F07AFF002155
S3150000AF401B2000F0B9FDFF201EE0361B1E70DFF847
S3150000AF50A8360E780F78D3F800E001250EF80750D2
S3150000AF60641E056815F807E081F800E05FFA84FEC4
S3150000AF70BEF1000FEED1EA5500213046FFF7A4FFDF
S3150000AF80404610F07EF83046BDE8F08110B5044624
S3150000AF9010F071F8DFF8601609680A5D521C0A5550
S3150000AFA0BDE8104010F06DB82DE9F041054600F0FF
S3150000AFB031F8044610F05FF8DFF82826DFF8283667
S3150000AFC0DFF82866DFF83086FF2D1FD0D8F800108E
S3150000AFD04F5D7F1E4F557F27D8F800E01EF80510FD
S3150000AFE0394213D13168495D00270EF805701F7884
S3150000AFF07F1C1F70FF29376892F800E007F805E00C
S3150000B000157006BF2546FF240D46DDE7BDE8F04175
S3150000B01010F037B880B5DFF8E0150968095C090655
S3150000B02003D5FFF74BFF007802BDFF2002BDB0B588
S3150000B03004460D46FFF7EEFFFF2818BFFFF7B4FFE3
S3150000B040FF2DDFF8B47504D13868015D01F07F018A
S3150000B05006E02846FFF79AFF3868015D41F0800157
S3150000B06001552046FFF72AFF0570B0BD0EB478B52E
S3150000B07004460120FFF72DFF0546FFF71FFF064692
S3150000B080FF2D08BFFF200FD0E1B22846FFF71CFFB7
S3150000B09005A8002104E050F8042B06F8012B491CF2
S3150000B0A0C9B2A142F7D3284672BC5DF810FB70B551
S3150000B0B004460D4605F11F000004400D82B0C0B2E3
S3150000B0C0FFF707FF0646FF2E0CD02946FFF7FCFECA
S3150000B0D03CB1012000902B4600223146204600F06C
S3150000B0E002F8304676BD73B500F0D0F8405C1546E0
S3150000B0F01E467119884203DA40F2651100F0EBF83A
S3150000B10030000CD0294601A800F0E9F8024606985E
S3150000B1109DF8041000903346204600F001F873BDF8
S3150000B1202DE9F843089CDFF8C4840546894616468F
S3150000B1301F460BE06A5C4254491CB142FADBD8F860
S3150000B1400000BF1BAD1910F809900026F8B2D0B167
S3150000B1504846FFF7B3FE801956FA87F12029B9BF92
S3150000B160FFB23E46C6F12006F6B22100324604D1B1
S3150000B1700146284601F048FDE1E7012C08BF2946B3
S3150000B180F8D00021D9E7BDE8F1832DE9F04100F0C0
S3150000B1907DF882B0055D884616467119C9B2A94286
S3150000B1A01F4605DB30000CD0204600F05DF808B1E4
S3150000B1B0182007E0009733462A4621464046FFF707
S3150000B1C092FF0020BDE8F6810123DEE70A4600E093
S3150000B1D0521C1378002BFBD1521A0223D2B2D4E7A9
S3150000B1E02DE9F041054601F11F00C70402F11F00D9
S3150000B1F0C0043F0E000E07B9012700B9012087429F
S3150000B2002CD0DFF8E8431BDAC01BC0B2FFF761FEA3
S3150000B2108046B8F1FF0F08BF002020D07F1E00F047
S3150000B22020F82668305CFF2804D000F01AF8305C5D
S3150000B230FFF7BAFE00F015F8216801F800800DE06E
S3150000B2408A420BD2411EC9B200F00CF805462068AE
S3150000B250405DFFF7A9FE2168FF2048550120BDE8A3
S3150000B260F081F9B2284616E038B500F00FF80D4621
S3150000B270015D2A462046FFF7B3FF28B1294620463E
S3150000B280FFF722FE002032BD182032BD0446DFF84B
S3150000B29050030068704704E0DFF850231268105C22
S3150000B2A0491ECAB2002AF7D1704711B50C46DFF81D
S3150000B2B03013096881B0095C8C4203D340F2012146
S3150000B2C000F009F8214601A800F009F8044600F04C
S3150000B2D033F9204416BD0FF2343001F001BD38B504
S3150000B2E004460D46E9042078090EFFF7D4FF2070C6
S3150000B2F005F01F0032BD80B5FFF7D7FF007802BD0D
S3150000B30010B51446FFF7D1FF047010BDB0B5FFF7B6
S3150000B310BDFF82B0055DFF2C03D140F22121FFF76E
S3150000B320DAFF05F11F000004400DC0B2FFF7D1FDA2
S3150000B3300746FF2F0AD02946FFF7C6FD00950023D2
S3150000B34022460021384600F0C6F83846B6BDF8B5A4
S3150000B35004460D4616460120FFF7BBFD0746FFF7DC
S3150000B360ADFDFF2F01D1FF20F2BD33462A46202135
S3150000B370204400F020F82118C9B23846FFF7A4FD92
S3150000B3803846F2BD10B582B004AC009400F001F866
S3150000B39016BD10B514461A46029B2044091BBDE88B
S3150000B3A01040C9B207E00CB480B502AAFFF7CFFF80
S3150000B3B002BC5DF80CFB2DE9F047814614469A461F
S3150000B3C04F46002588460AE03246384601F01CFC06
S3150000B3D07019BF19451EEDB26D1C641CEDB24545D2
S3150000B3E03BDA2078010038D0312818BF32280ED138
S3150000B3F05AF8041B07F8011B3228EDD16D1CEDB27B
S3150000B400A845A4BF081207F8010BE5DA25E03428A1
S3150000B4100ED1291D5AF8040B88451EDB3870010A27
S3150000B4207970ED1C010C000EB970F8703F1DD2E763
S3150000B430A0F133025AF8041B072A38BFA0F13006E0
S3150000B44007D3A0F14102072A34BFA0F137065AF804
S3150000B450046BF6B270194045B6DBA7EB0900C0B223
S3150000B460BDE8F0875F49FE200870704770B500F0B0
S3150000B47027F800F003F8301880B270BD060229469E
S3150000B480204638E700B583B002238DF80420120A5F
S3150000B4908DF805200122009217E0F8B500F010F8AB
S3150000B4A0FFF7ECFF8619E91CC9B2FFF7E9FF0702AF
S3150000B4B0A91CC9B2FFF7E4FFC01906EB0040F2BDB4
S3150000B4C00D46691C0446C9B215E70A46014601A89D
S3150000B4D0FFF709FE07BD2DE9FC4405B40A9C2000D0
S3150000B4E01F4627D089B26846FFF7F9FE0646B9B26D
S3150000B4F001A8FFF7F4FE0746BE42A8BF3046A4B235
S3150000B500C0F120002546C0B2A842B8BF054600F0EB
S3150000B51013F882469DF80000FFF7D0FC2A460AEB96
S3150000B5200701304401F070FB641BA919EF19A0B2A2
S3150000B5300028D7D1BDE8FF849DF80400BEE470B5AD
S3150000B54004460D460FF097FD294B21781B68FF290D
S3150000B55008BF5D5503D019440E785E550D702570F1
S3150000B560BDE870400FF08DBD38B504460FF083FD81
S3150000B5702178FF22FF2908BFFF2507D01C4B1B6837
S3150000B5805D5C8D420EBF22705A5D5A540FF079FDF4
S3150000B590284632BDF8B504460D460FF06CFD2178FD
S3150000B5A00026FF2915D0124B1B680A46012602E029
S3150000B5B0761C3A46F6B29F5CAF4208D1DF5D9F54D7
S3150000B5C0A94206D18A4208BFFF22227001E08F42BB
S3150000B5D0EED10FF056FD3046F2BD00002CDE032002
S3150000B5E030DE0320E7DF0320B4DF032038DE03204C
S3150000B5F03CDE0320B3DF032034DE03200078FF287F
S3150000B60001D1012070470020704700007061636B14
S3150000B61065742D6275666665722E63003820704704
S3150000B6200020704738207047382070477047002048
S3150000B630704700002DE9F84FDFF8F446DFF8F456BE
S3150000B6402068DFF8F4B6DFF8F496DFF8F4A6E861D0
S3150000B650286200264FF6FF7828E02068F6B24821D7
S3150000B66011FB06F1471848220021384601F00FFB6E
S3150000B67099F800003870A7F80280002038737873B4
S3150000B680761C0B20B8731420F8734FF6FE703882C0
S3150000B690A7F812800CF003FD38760CF000FD7876E2
S3150000B6A00CF0FDFCB8769BF80000F876F0B29AF83C
S3150000B6B000108842D1D3281DBDE8F84F0222FF2191
S3150000B6C001F0E5BA2DE9F041DFF878560FF29468FB
S3150000B6D0044695F9000010F1010F03DA5C2140469B
S3150000B6E001F0FEFADFF8587639788C42264605D303
S3150000B6F0FE2E03D05E21404601F0F2FA2878DFF8EC
S3150000B7003416401C287040B20844047438788442C9
S3150000B710DFF81C06006828BF0E78482212FB06F2E6
S3150000B7201044C861BDE8F08110B5DFF8184694F9F9
S3150000B7300000002802D56F2100F0A6F82078DFF877
S3150000B740F415401E207040B2DFF8F4450A782478DC
S3150000B75000284EBF10460818007CA04238BF02469B
S3150000B760DFF8CC05006848235A431044C86110BD71
S3150000B77010B50020DFF8BC1500E0401C00F07EF894
S3150000B78008D2DFF8AC35C0B21B68CA6900F070F8A1
S3150000B790F3D110BD8A2167E0DFF8A80590F9000013
S3150000B7A010F1010F01D10120704700207047FE20E3
S3150000B7B088E7DFF880050078704738B50446FFF75C
S3150000B7C0EBFFDFF8705550B9DFF8780590F9000007
S3150000B7D02844007CFE2802D0A62100F055F8DFF8A8
S3150000B7E0601509788C4201D3B12032BDDFF84005DF
S3150000B7F02C704821006811FB04F10844E861002020
S3150000B80032BD38B5DFF83C05DFF8285590F9004021
S3150000B8102819007CFE2807D0FFF7BEFF20B9C321F8
S3150000B82000F032F8FF2032BD611E00E0491E49B229
S3150000B830080004D46818007CFE28F7D032BD2878AA
S3150000B84032BD10B50020DFF8EC1400E0401C00F01B
S3150000B85015F808D2DFF8D834C0B21B680A6A00F0BF
S3150000B86007F8F3D110BDE22100F00EF8FF2010BD5D
S3150000B870482414FB00F423449A427047DFF8C0348E
S3150000B8801B78C2B29A4270470FF2D84001F028BA2C
S3150000B89010B5FDF798FDDFF89C44216A897B884244
S3150000B8A003D00846FDF727FD50B9FDF790FD014688
S3150000B8B0206A90F90F00814204D0FDF797FD08B188
S3150000B8C0012010BD206A008AFEF718F9206A408A16
S3150000B8D0FEF727F9206A007B012818BF0020FEF733
S3150000B8E002F9002010BDDFF8581410B50978884217
S3150000B8F0044603D34FF48371FFF7C6FFDFF848040D
S3150000B900007808B9702010BDDFF8240400F06BF849
S3150000B910DFF820140862BDE81040B9E7DFF8281404
S3150000B9200870704710B5DFF824440020207002F03C
S3150000B930DEF820B92046BDE810400BF00BB800F049
S3150000B94058F8DFF8FC130978884206D3FFF710FF92
S3150000B950044600F010F818B12046BDE81040C2E7D2
S3150000B96010BDDFF8D003006A008A7047DFF8C40311
S3150000B970006A408A7047DFF8B813096848225043C6
S3150000B9800844407B02281CBF1128432801D101200E
S3150000B990704700207047DFF8981309684822504323
S3150000B9A00844007B01281CBF0228032801D101207E
S3150000B9B070470020704710B5002400E0641C00F0BA
S3150000B9C02CF80ED2FFF7D7FF0028F7D0D848E4B2FC
S3150000B9D000F009F8007B012818BF0228EED12046A6
S3150000B9E010BDFF2010BD0068482111FB04F108447A
S3150000B9F0704710B5002400E0641C00F00EF80AD26F
S3150000BA00FFF7C9FF0028F7D0E0B2FFF7B4FF002820
S3150000BA10F2D0E0B210BDFF2010BDC9490978E0B2EE
S3150000BA208842704770B500240025C54E08E0FFF730
S3150000BA3049FE01F00BF800B10124FFF775FE6D1CFD
S3150000BA403178E8B28842F2D3204670BD80B5FFF760
S3150000BA50D0FFFF2801D0012002BD002002BD38B56D
S3150000BA60BB4C054620680321A94088432060FFF7A8
S3150000BA707FFE2168A8400843206031BDB4490968AB
S3150000BA80C14001F00300704738B504460D46FE205C
S3150000BA90FFF718FE29462046F7F75DF9BDE8314065
S3150000BAA042E610B50446FE20FFF70CFE204607F0DE
S3150000BAB0FDFABDE8104037E682B08DF80010DDE9EA
S3150000BAC0002311461A4602B0FEF7ECBD32B586B029
S3150000BAD004468DF8042000F0F3FE0546204600F0EB
S3150000BAE0FDFE80F001010D420DD0BDF8180000F0FA
S3150000BAF0CEFF8DF80000FF2804BF00208DF800005F
S3150000BB00CDF808D01AE0294308BF06A815D005428B
S3150000BB1014D0BDF8180000F0BAFF8DF80000FF2819
S3150000BB2004BF00208DF800009DF800008DF80C0081
S3150000BB30BDF81800ADF80E0003A80290FE20FFF72E
S3150000BB40C1FDDDE901010A4601462046FEF7AAFDD0
S3150000BB50FFF7EAFD07B030BDF8B5794E754D0446DE
S3150000BB603078687000270DE0FFF7ACFDE8694169A1
S3150000BB70FFB244F8371004EBC701C07E08717F1C82
S3150000BB80FFF7D2FD3178F8B28842EDD3F1BDF8B5B2
S3150000BB9004460025674E0DE02846FFF793FDF06941
S3150000BBA054F8371041616D1C04EBC7010979C17661
S3150000BBB0FFF7BAFD6249707809788142EDB238BF65
S3150000BBC008462F468742E7DBF1BD38B5FFF7D0FDC3
S3150000BBD05B4A584B1278002100E0491CCCB29442D3
S3150000BBE00ED29C78C9B20C1994FBF2F502FB1544EF
S3150000BBF0E4B21C442579854202D0FF2DEDD1207197
S3150000BC0031BD70B54B4C4E4EA07831782044057945
S3150000BC108D4203D340F22921FFF736FEA078221881
S3150000BC20FF211171401C317890FBF1F201FB1200EB
S3150000BC30A070284670BD3F48817808440079FF28E7
S3150000BC4001D0012070470020704710B5FFF7FEFEB7
S3150000BC5070B1384CE069007B042809D11420FFF745
S3150000BC60FEFE04F10800BDE8104064210AF07CBE27
S3150000BC70BDE8104001F0FABC80B52E4900200872DC
S3150000BC801420FFF7FBFEFFF71DFD01F0EFFCBDE8FA
S3150000BC90014049E52DE9F8438146FFF769FDB9F111
S3150000BCA0040F0FF2C0082B4C224F2B4D2B4E35D8CC
S3150000BCB0DFE809F0030A0A1B1B00F86900F12801F6
S3150000BCC000200860886030E0FFF7C0FE20B14FF426
S3150000BCD01871404601F004F8F869316840F8281FE9
S3150000BCE021688160297801711FE02A783568F96931
S3150000BCF00E2313FB02F6354413FB00F32B4441F8E5
S3150000BD00283F236803EB8202154B1B7802EB830264
S3150000BD1002EB800088600120087106E04046BDE81D
S3150000BD20F44340F2712100F0DBBFBDE8F18300006F
S3150000BD3068DE03201CF50320C5DF0320FBFC03207F
S3150000BD40BBDF0320EBDF0320EADF032040F50320FF
S3150000BD5048F5032070DE0320BCDF03206CDE0320E1
S3150000BD60B6DF0320656D6265722D6D756C74692D85
S3150000BD706E6574776F726B2E63000000012070474A
S3150000BD80012070470020704780B57020F7F765FEE8
S3150000BD90BDE802400020F7F760BE7020F7F75DBEF1
S3150000BDA070B582B00446FFF789F80546A879E979A7
S3150000BDB00818400000F10806FFF7FBFC400040F0C1
S3150000BDC001008DF80000FF222B780021002000F0F2
S3150000BDD0B7F8FF280BD178480068005DF6B2B0428C
S3150000BDE005D1012269462046FFF7EEF908B1002089
S3150000BDF076BD21467148FFF7A2FB71480178491CC0
S3150000BE0001702046FFF7C2F8012076BD10B5044642
S3150000BE10FFF7F7FC024623460121012000F090F8C7
S3150000BE20FF2804D0BDE810400021FFF764BA10BD1A
S3150000BE3038B504460D46FFF7E4FC00F055F8FF2838
S3150000BE4001D1002032BDFFF739F80446601CFCF72B
S3150000BE5077FF2880E01CFCF773FF68806079287103
S3150000BE60A0796871E079A871012032BD38B5044621
S3150000BE7015460B46FF220021002000F061F8FF283E
S3150000BE8001D1362032BD4C4A1268115C491EC9B236
S3150000BE90FFF70BFA24B1297801F00701017001E0E0
S3150000BEA000782880002032BDF8B504460D461646B7
S3150000BEB0FFF7A7FC00F018F808270446FF2C02D16C
S3150000BEC04FF6FF70F2BDFEF7F9FF012D04D1807920
S3150000BED0400000F10807FFB207EB4600C1B220465A
S3150000BEE0BDE8F440FFF7C2BA02462346012100200E
S3150000BEF026E02DE9FC410D4604466946FFF798FF0A
S3150000BF00D8B1002601E0012E02D09DF8058001E09F
S3150000BF109DF80680002700E07F1CFFB2474508DA3F
S3150000BF203A4631462046FFF7BFFF8542F4D101204D
S3150000BF3004E0761CF6B2022EE5DB0020BDE8F681B1
S3150000BF402DE9F84F82461D4800780025FF280C464B
S3150000BF50914698462CD01B4F396811F800B05E46C2
S3150000BF605FEA0A0011BF284600213046FFF7C3F9F1
S3150000BF70404517D110480068805D411EC9B2304661
S3150000BF80FFF7B9F900F0010181F001010C420FD170
S3150000BF90B9F1FF0F1EBF400800F00300814507D12D
S3150000BFA0304606E03868865D6D1C5E45EDB2D7D139
S3150000BFB0FF20BDE8F28F000030DE032068DF03209B
S3150000BFC015FD03203CDE032000E000BF3820F7F714
S3150000BFD044BDFBE7704713F080BB10B5044605214E
S3150000BFE011200FF09BFA0022002102200FF04CFCDA
S3150000BFF01848194A01686FF3D321016002EAC42286
S3150000C0000168114301600122012102200FF03CFC6E
S3150000C010BDE81040042111200FF080BA0D480068D9
S3150000C0200003C00D704738B50C480C4601884FF622
S3150000C030FF75ADF8005002237F22684600F061FFCD
S3150000C040BDF80000A84202D02080012032BD0020A9
S3150000C05032BD000030400E4000F80F00D8AA0200A2
S3150000C0600B000AD0012A06D007D3032A02D004D235
S3150000C070090200E009040AF077BC0021017070474C
S3150000C08038B50C460178154679B10AF07AFCB0F558
S3150000C090803F38BF012106D3000AB0F5803F32BF8A
S3150000C0A00221000A03212970208031BD10B5044603
S3150000C0B0094800EBC40082B0827981880068FFF7E6
S3150000C0C0CFFF0F208DF800008DF801400221684651
S3150000C0D006F007FF13BD00002CDF03200020E5E774
S3150000C0E00120E3E710B50446F7F79EFC04B14000D3
S3150000C0F00B490978062901DAFF2010BDC1B221B922
S3150000C100BDE810400020FEF7B1BF0648064A0068A9
S3150000C1101268BDE81040801AC0B2FEF7FBB900BF36
S3150000C120B4DF03206CE903205CE1032070B513F053
S3150000C13006FCAD4C2046FFF761FAD8B92046FFF75A
S3150000C14013FAFF28044615D0A8490968085C851E1D
S3150000C150E9B22046FFF78AF90646E9B22046FFF71C
S3150000C16083F82146304600F0ECF82046BDE87040E2
S3150000C170FEF71ABF70BD03460A4699A10420FFE7E1
S3150000C1800CB480B502AA00F031F801BC5DF80CFBD6
S3150000C1900A0003D0034693A11120F1E7704700B5CA
S3150000C1A087B011F05DF900210591049102466221E4
S3150000C1B00391002300210291019101208C490091F5
S3150000C1C00FF23C21FFF7DCFF8A488179C378827839
S3150000C1D003910188029141790191017900914220F0
S3150000C1E00FF22821FFF7CCFF07B000BD2DE9F04F75
S3150000C1F085B005460C46904606F01FFE0026F8B9A7
S3150000C20013F026FBE0B10120FEF763FE8246BAF189
S3150000C210FF0F15D00021FEF757FE294601A813F09F
S3150000C2201DFB05469CB900F087F830B9504613F05F
S3150000C2307DFB10B1042006F0FCFD5046FEF7B4FE6F
S3150000C24005B0BDE8F08F8DF804200125641C207828
S3150000C2500100E8D0A0F130010A2905D20A2101FB2C
S3150000C2600600A0F13006F1E700F066F80028E4D1F8
S3150000C27022780025422A01A80ED0442A1AD0462A3E
S3150000C28025D0572A0DD0622A3AD0662A2AD06C2A9F
S3150000C29025D0702A26D0D6E758F8040B8DF804006E
S3150000C2A0D3E758F8041B8DF8041002250904090E7B
S3150000C2B04170CBE758F8041B8DF804100A0A427047
S3150000C2C004250A0C8270080E8DF80700BEE758F8A0
S3150000C2D0041B5046FEF77AFF0028B7D0ADE758F8A2
S3150000C2E0046BB3E7012358F8041B662A08BF022330
S3150000C2F0F2B25046FEF749FF002808BF0026ECE7D9
S3150000C3003A4858F8047B006810F80A90FFB2FF2FED
S3150000C3109CD010F807B00BEB0901C9B25046FEF7E6
S3150000C320A3FF002889D1CDF800B000233A4649463C
S3150000C3305046FFF7D0F889E72A4601A95046FEF78E
S3150000C34043BF2DE9F043122885B080460D4609D03B
S3150000C3503A281FD04FF6FE71884204BF28460AF0DD
S3150000C36036FD36E02148244F0068465D0BE028463E
S3150000C370FEF7A4FD01462246002012F017FA38689F
S3150000C380455D203EF6B2FF2D23D0212EACBF2024E2
S3150000C3903446ECE700F0F4FA8146FDF7BEFB0646AC
S3150000C3A0FDF715F80746FDF70EF80446FDF7B1FB55
S3150000C3B002460F480FF25C010390CDF81090234619
S3150000C3C00E48006840880290019600973B20FFF7D0
S3150000C3D0D7FE2946404605B0BDE8F04306F02FBD1E
S3150000C3E0574600006C70000048DF032030DE032053
S3150000C3F0ACF3032050A0020038DE032038F50320FA
S3150000C400424238704242424257424200424242420F
S3150000C410574200005742425757387042000000000A
S3150000C42010B5142801DBFF2010BD082802D10EF03C
S3150000C43011FE03E00E2804D109F0B4FD78B1802086
S3150000C44010BD0FF21C0151F8201009B9002010BDD3
S3150000C4500C780A2802D1FEF7F9F90443204610BDEC
S3150000C4604CA0020040A0020046A0020044A0020028
S3150000C4703FA002000000000041A002004EA0020002
S3150000C4800000000045A002004AA00200E8AA02003F
S3150000C49048A0020043A00200000000004DA00200D8
S3150000C4A049A002004BA002004FA0020047A00200D4
S3150000C4B010B50AF08BFC13F079F91020FFF7B0FFE6
S3150000C4C00006DFF8B0420FD50020FFF7A9FF0006EF
S3150000C4D00AD56068800717D52068800714D500F054
S3150000C4E0EDFC010012D010BD1020FFF799FF0006E9
S3150000C4F0F5D40020FFF794FF0006F0D56068C0076A
S3150000C50002D520688007EAD4B02010BD10F0A4FF41
S3150000C5100120FDF746FA13F055FAF7F715FA01F080
S3150000C520E3FBFFF73CFE0FF288200AF0ACFADFF8D7
S3150000C53048120870FFF77EF813F054FA07F09EFCD5
S3150000C5400EF08EFD09F034FDFBF7FAFF002010BD5A
S3150000C5502DE9F04705F03AFC05F0BBF90020FDF7A0
S3150000C560AFFE11F05BFCDFF814824046FFF746F899
S3150000C57008B907F0EDFFDFF808924846FFF73EF8E6
S3150000C58008B9F7F783FF0BF0FFF90BF0DFFBDFF8D5
S3150000C590E861DFF8F0513078DFF8ECA10AF05BFAD9
S3150000C5A00BF0A2FD0027002409E0FFF78BF82868AE
S3150000C5B0007B042808BF0127FFF7B6F8641C9AF829
S3150000C5C00010E0B28842F0D3002F1EBFDFF8BC0196
S3150000C5D00078002805D000F02AF8102808BF09F0D6
S3150000C5E0D9FDFFF7A3FD09F0ECFC0EF044FD07466C
S3150000C5F013F0F2F968B14046FFF700F848B1484633
S3150000C600FEF7FCFF28B109F0DAFC10B130780AF029
S3150000C6105CFA38460EF035FDFFF7BEF818B940F261
S3150000C620AB1100F042F8BDE8F047FFF7D3BCF8B510
S3150000C63013F0D6F930B10CF03EF800F0010080F0AE
S3150000C640010400E00124FDF73DF900280CBF042594
S3150000C650002513F0C1F948B14848FEF7CFFF28B1CD
S3150000C6604748FEF7CBFF08B1002000E0022048490A
S3150000C670097801B12021454A127802B11022454BB2
S3150000C6801B7803B14023444E36780EB14FF4007642
S3150000C690424F3F780FB14FF480672C432043084345
S3150000C6A01043184330433843F2BD0FF2F40000F054
S3150000C6B017BB38B5044633480068007B032818BF0B
S3150000C6C004280BD0204602F0CEF84FF6FF75A8429C
S3150000C6D004BF204604F085FCA84204D12046BDE8EC
S3150000C6E0324001F0F8BB32BD70B504464FF6F87023
S3150000C6F084420D4601DB012070BD2000214E07D18A
S3150000C7003068007D800703D42846FAF74CFAB8B99A
S3150000C71030684288944205D1011D0822284600F05F
S3150000C72073FA0DE0007B032818BF04280AD02046C0
S3150000C73013F068F9FF2805D0294613F087F908B1E8
S3150000C740002070BD2946204601F006FC401E8041AF
S3150000C750C00F70BD0B480068008A70470949096818
S3150000C7600882704707480068408A7047054909688B
S3150000C77048827047E881E00F12FD03207CDF03202A
S3150000C78028DF032038F50320BBDF03206CEA0320F3
S3150000C79068F20320DCF1032030FC032040FC032078
S3150000C7A07A69676265652D737461636B2E63000039
S3150000C7B040FA0320A1E00100D8FB032051D4000079
S3150000C7C0ACF90320197D01009CF203200D740100D1
S3150000C7D068FB03202988010080FC032077330200D0
S3150000C7E078FB03205D13020068F203201D5B000046
S3150000C7F078F20320D95B00006CEA03209161010006
S3150000C80060F20320715100004CF2032031FA00005F
S3150000C81090FB0320B1E2000074FC03203D200200DF
S3150000C82054F20320A3150100E8FB0320B92E0200F1
S3150000C830BCF103208B6E000058FC0320C38401006A
S3150000C840DCF10320857F000040F5032025B90000B8
S3150000C85030FC03202370010048FC0320B97001005E
S3150000C86040FC03206F70010028F3032045F100000F
S3150000C870D0F20320475B010014F3032011280100C6
S3150000C88024FC03205D8001001CF3032077250100B2
S3150000C8908CF203203B660000F8F2032031220100EF
S3150000C8A05CFA0320B1970100E0FB03201FDB0000C8
S3150000C8B024F5032079BC0000000000000000000001
S3150000C8C000210FF2EC12535C834201D10120704724
S3150000C8D0491CC9B20829F6D30020704700210FF27F
S3150000C8E0D812535C834201D101207047491CC9B25A
S3150000C8F00829F6D3002070476A48006840887047C8
S3150000C90068480068001D704766480068C07E70472A
S3150000C91064490968C876704738B5624D624C296823
S3150000C92048730228614915D12868007B04281CBF7A
S3150000C93008460AF00FF82868007B03281EBF042863
S3150000C94020460AF007F828684069C00054BF9024C2
S3150000C950BC2405E0002008702070912413F050F8E4
S3150000C9602046FBF7BFF850B9234613224CA10320FB
S3150000C97006F060FA2046BDE83240FFF792B831BDB6
S3150000C98048480068407B00F00F0070474548006843
S3150000C990407B00F00F00022801D1012070470020E3
S3150000C9A0704738B50446FFF7F1FF3E4D28B92868B1
S3150000C9B0407B032801D0932032BDFFF7D3FE2081B0
S3150000C9C02868C07BA0722868807BE0722046F9F751
S3150000C9D0A2FD0020207304F1140104F1100001F0FF
S3150000C9E098FBE081002032BD70B52E4D2E680C46B6
S3150000C9F0FFF7CCFF20B9707B032801D0932070BDD0
S3150000CA00F07B20702868807BFCF765FC60702868E6
S3150000CA10807B00F01F00A070002070BD10B50023C1
S3150000CA2000E05B1CDCB28C4205D210F8014B94424C
S3150000CA30F7D0002010BD012010BD80B50821FCF7FD
S3150000CA4094FB08B1002002BDA52002BD1548006870
S3150000CA50407B01281CBF3128332801D101207047B3
S3150000CA600020704710B50446FCF7C0FC010002D157
S3150000CA700C490968CC7310BD0A48006890F90F008C
S3150000CA80704708480068807B70470120704705485A
S3150000CA900068807B400918BF012070470000000035
S3150000CAA04242000038F50320E8FB032054F203203D
S3150000CAB00001020304051D200203040508090A0BF0
S3150000CAC03820704738207047382070473820704724
S3150000CAD080B5094909688969C90206D5012812BFC6
S3150000CAE0002840F2022012F0F9FC012002BD0248A3
S3150000CAF000688068000C70472808E10F890001EB88
S3150000CB00401000F184400260704710B54A688B6897
S3150000CB10CC680968016002600360046010BD38B526
S3150000CB20102A04460D460ED101220021FFF7E6FF2A
S3150000CB304FF48870044429462046FFF7E6FF05F1C6
S3150000CB401001204606E000220021FFF7D7FF294604
S3150000CB5004F12400BDE83440D7E710B500F006F82C
S3150000CB602146BDE8104008222448D8E704460121A2
S3150000CB7023480EF065BB10B5FFF7F8FF21480168A2
S3150000CB802160016861600168A1600068E06010BD15
S3150000CB9070471FB504466846FFF7EDFF6946204615
S3150000CBA000F001F81FBD30B504460D4683B0FFF70F
S3150000CBB0DEFF0120019000951023224621460F48F2
S3150000CBC013F077F837BD70B504460D4686B00121DF
S3150000CBD00B480A4E0EF034FB2A4602A9304613F0E3
S3150000CBE052F800200190102302A800902246214608
S3150000CBF0304613F05EF806B070BD000000000F402E
S3150000CC000005080024000F40814233D2104411442D
S3150000CC10401E491E10E011F8013900F80139121FB3
S3150000CC2011F8013900F8013911F8013900F8013914
S3150000CC3011F8013900F8013992B2042AEBDA93B2FD
S3150000CC40002B1EBF11F8013900F80139521EF6D12A
S3150000CC50704711F8013B00F8013B121F11F8013B28
S3150000CC6000F8013B11F8013B00F8013B11F8013BCC
S3150000CC7000F8013B92B2042AEBDA93B2002B1EBFF6
S3150000CC8011F8013B00F8013B521EF6D17047130024
S3150000CC9003D00A46194613F059B8704710B500E09C
S3150000CCA0521E93B223B100F012F8F9D0181B10BD32
S3150000CCB0002010BD10B500E0521E93B22BB100F05B
S3150000CCC006F8F9D0181B40B210BD002010BD10F8B0
S3150000CCD0013B11F8014BA3427047000042DE70474A
S3150000CCE038B504460D46FCF713FD13F07EF813F035
S3150000CCF09DF829462046FFF73EFA29462046BDE81C
S3150000CD003440EBE764482DE9F047644D01682E1D79
S3150000CD104FF420687165016AB16561490A68F26578
S3150000CD2049683166416A7166816AB166C16AF166AF
S3150000CD30016B3167806B706796F8340040074CBF13
S3150000CD40F46BB46B12F043FC0022F2648442554A41
S3150000CD50014624BFA2F1200AA2452746316505F106
S3150000CD609003DFF844C1DFF844E118D3A0693064CA
S3150000CD70E4697464746DC4F30804062C13D1704519
S3150000CD8011D360450FD200884DF64264A0420AD105
S3150000CD903068586040F201787068986003E00027B8
S3150000CDA03764776407464248814202D2014600E072
S3150000CDB0091D0846904203D20C68B4F1CD3FF7D066
S3150000CDC03C49081AB0640021002005EB8004401C91
S3150000CDD00628E167F9D3002003E0C0B205EB800422
S3150000CDE0E167974223D252F8041D7145F9D3614594
S3150000CDF0F7D2CC07F5D5002405EB8409D9F87C9049
S3150000CE00894502D0641C062CF6D3062CE9D10028ED
S3150000CE1014BF401E0520E0E7B16F002405EB840235
S3150000CE20641CD2F88070D767052CF7D319600146C9
S3150000CE30481EC9B20029EFD1706DC0F3080003285F
S3150000CE4010D0042811D0052812D0062813D00C289B
S3150000CE5017D0122818D118480068800719D540F253
S3150000CE60025816E040F6012813E040F6022810E0CA
S3150000CE7040F603280DE0B8F5206F0AD140F60428E5
S3150000CE8007E040F6052804E018B1432838BF40F60D
S3150000CE9007284046BDE8F08704ED00E000000020CA
S3150000CEA000E300E0D8DA0320E28C0200DC04000094
S3150000CEB09C000020D8DA03201C20054010B5DFF8BE
S3150000CEC024410120207082B0002012F0B3FF38B157
S3150000CED0002012F0AFFF18B100202070492016BDC7
S3150000CEE002237F220021684600F00BF8BDF80000FF
S3150000CEF0B0F57F7F03D000202070072016BD0020EC
S3150000CF0016BD10B5FF2908DCDFF8D840247844B1F7
S3150000CF10BDE81040C9B213F0CDBBBDE8104000F02B
S3150000CF20A9B810BD38B5FF2904460ADCDFF8B400FD
S3150000CF30007840B3204601B0BDE83040C9B213F0D6
S3150000CF40EDBB00257F2A08BF002212FB03F001F487
S3150000CF507043C1F30B02B3F5805F08BF42F07E61F8
S3150000CF6008D001F47041B1F5405F05D142F07C6113
S3150000CF7041F40111451805E040F28D110FF26800E9
S3150000CF80FFF7AEFE256031BD2DE9F0410546FF2DC8
S3150000CF900E461746984615DC124C2078C0B16078CC
S3150000CFA028B14FF4CE710FF24000FFF799FE012031
S3150000CFB06070434632463946E8B213F0E1FE00207F
S3150000CFC0607005E042463946BDE8F04100F075B8AC
S3150000CFD0BDE8F08103490978002918BF14F028B884
S3150000CFE070470000ECFC0320746F6B656E2E6300C7
S3150000CFF038B50C4611461A467F2908BF002141F272
S3150000D000F0139C4218D155490B6849680024D5B2E3
S3150000D0107DB30355641C1B0A521EE4B2042CF6D3DE
S3150000D020E4B2082C25D2D3B2002B1FBF0155090A42
S3150000D030521E641CF4D131BD04F47045C4F30B03D5
S3150000D040B5F5805F11FB02F108BF43F07E630BD09C
S3150000D050B5F5005F1CBF04F47044B4F5405F08D119
S3150000D06043F07C6343F40113C918BDE83840FFF769
S3150000D070CBBD31BD70B51E00044615461CD04BF223
S3150000D0803460814212D1092E28BF082633467F22FA
S3150000D09041F202012046FFF7ABFF32460FF2D801FC
S3150000D0A02046FFF7FBFD38B941F2F01133462A4618
S3150000D0B02046BDE870409BE770BD2DE9F843074662
S3150000D0C00024F807884615466FF00F060FF29C09F4
S3150000D0D002D5652100F046F8E80702D5662100F082
S3150000D0E041F807F47041B1F5805FC7F30B000CD12E
S3150000D0F040F07E64B4F17E6F264604D32819401EA4
S3150000D1001749884210D36B210CE0B1F5005F18BFB8
S3150000D110B1F5405F05D140F07C6444F40114264625
S3150000D12002E0722100F01EF8002706E0F05DFF28FD
S3150000D13002D07C2100F016F87F1CAF42F6D36A08B5
S3150000D1404146204614F0B6F828B14846BDE8F443F7
S3150000D1508521FFF7C5BDBDE8F1830000F081E00F32
S3150000D1600008E00F4846FFF7BBBD00006D66672D5F
S3150000D170746F6B656E2E6300FFFFFFFFFFFFFFFFFF
S3150000D18038B5DFF8B049DFF8B0590020E060207408
S3150000D190FF2060760AF083FF287010F083FD0120DF
S3150000D1A06076207C40F002002074281D09F0D2FB36
S3150000D1B0002032BD2DE9FE4F81460D46144609F08A
S3150000D1C0FAFC8DF80600DFF8747938689DF80610C9
S3150000D1D010F80900DFF85C89401A8DF8050048460A
S3150000D1E009F008FD00F00C0004280CBF01260026FB
S3150000D1F04846FDF70FFF8DF80400FF280EBF4FF0DD
S3150000D200000B396811F800B0002002908246FF201A
S3150000D21088F818006F1CDFF828090068007B0328CF
S3150000D22018BF042802D10AF054FF31E0484609F03D
S3150000D230E1FC0C21084218D15CB3484609F0C5FC54
S3150000D240FBF77EFD82464FF440411AEA010F07D0F4
S3150000D2505FEA8A5004D5DFF8EC080AF000FF17E011
S3150000D260DFF8DC080068C07B12E094B1484609F09C
S3150000D27013FDB0F5406F484604D109F022FD01F0D8
S3150000D280F2FA01E009F02CFD0AF0BAFB0AF0E9FE19
S3150000D290207030001DD0484609F0BEFC04464FF60B
S3150000D2A0FF7048F6410A844218BF48F6610AFEF745
S3150000D2B05DFB0146F81CFBF74AFD2146781DFBF78E
S3150000D2C046FDFEF74EFB0146F81DFBF740FD09370C
S3150000D2D00297002000909DF805309DF806204946EB
S3150000D2E03846FDF700FF9DF80500BBF1000F074427
S3150000D2F009D0002000905B469DF8041000223846B5
S3150000D300FDF7F1FE5F4476B1484609F05EFC4078D1
S3150000D31080072FD5029868B3391A4A46C9B207F072
S3150000D32008F8074426E0A878697801EB002080B267
S3150000D330C10901F0010181F001064FF67F7101EA92
S3150000D340000A0AF0070003280CD1694648460AF08D
S3150000D35071FE681C09F084FC9DF80010081828442A
S3150000D360407805E0DFF8E0070078092802D10720B9
S3150000D37088F8180048460AF04DFC08B14AF0100A31
S3150000D3805146681CFBF7E3FC1AF0070F05D1DFF8DE
S3150000D390A8070178491C017005E0DFF8A4070068BA
S3150000D3A0017E491C0176781BE970401C2870781BA9
S3150000D3B07F2802DBE92100F02FFB3046BDE8FE8F17
S3150000D3C070B5DFF870670446F0680D4608B10020B6
S3150000D3D070BD10F07DFE48B1307C002804BF307A65
S3150000D3E0002803D115B1A047012070BD307CF46040
S3150000D3F040F004003074DFF8540709F0ABFA02205D
S3150000D40070BD0121DCE790E038B50446DFF824075B
S3150000D410007E0D46811F012903D821460AF0F7F840
S3150000D42078B9284609F0EBFBFEF74CF92146284669
S3150000D4300AF018FC18B92146284607F0C9FCFEF781
S3150000D44073F92846FDF7B0FDBDE8314009F0C7BCC9
S3150000D450DFF8E416002008716BE080B500F047FBAA
S3150000D46070B1DFF8D4060079002801BFDFF8C406E2
S3150000D470017C0F22114203D1007A08B9012002BDB6
S3150000D480002002BDF8B50446DFF8C406007800287F
S3150000D49002BFDFF8A066F06800280D4626D1DFF847
S3150000D4A0A80600780B2818BF022D1FD10DF0E3FD4A
S3150000D4B0327A082A074617DA012D08BFB45404D079
S3150000D4C03146701CFFF7A0FB3470307A401C307276
S3150000D4D038460DF0D6FD2046FDF758FDDFF86C0600
S3150000D4E009F038FA0120F2BD0DF0CBFD0020F2BDA7
S3150000D4F038B504460DF0BFFD0546DFF83806017A5B
S3150000D50069B101782170017A4A1E0272411CD2B2B9
S3150000D510FFF77AFB28460DF0B4FD012032BD284600
S3150000D5200DF0AFFD002032BD00BFDFF8200609F088
S3150000D53011BA70B582B010F0CBFD002800F09580CE
S3150000D540DFF8F045207C800706D5607E10F0C6FD2A
S3150000D550207C00F0FD002074207CC00702D4FEF77A
S3150000D5606AFBA0B1207C00F0FE002074FEF749FBA8
S3150000D570FEF7A8F806F037F98DF8000009F03FFB32
S3150000D580FEF7B1F9002850D00420207652E0684614
S3150000D590FFF7AEFF0028DFF8B05553D09DF8000026
S3150000D5A009F028FB012400F00C000C2824D19DF87A
S3150000D5B0000009F00AFB06469DF800000DF1010186
S3150000D5C00AF038FD304609F04BFB9DF801100818AB
S3150000D5D0811D9DF80000C9B2FDF78DFE2978072947
S3150000D5E002D1062808D106E001291CBF0529092910
S3150000D5F002D1072800D100249DF8000009F0FAFAAC
S3150000D60000F00C00082804D12878092814BF032844
S3150000D61000249DF8000009F0F2FA0546FEF752F8DC
S3150000D6201CB12846FEF75FF920B99DF8000010F0FE
S3150000D6304DFC04E09DF800104120FFF7E5FEFEF7E3
S3150000D64073F873BD28780B2802D113F09FFE60B9DA
S3150000D650207C410707D5E168002200F0FB00E2606C
S3150000D6602074884773BDFEF75DF973BD80B5FEF77C
S3150000D670ACFADFF8C004017C41F001010174DFF867
S3150000D680CC04BDE8024009F065B9DFF8A804017CC6
S3150000D69001F0FE01017470472DE9F04FDFF89C940C
S3150000D6A0A5B0044602A80021C0E9001102AE20463A
S3150000D6B0FDF704FC082305788178407800EB012704
S3150000D6C0002000902146D9F80000005DA0F1080274
S3150000D6D0D2B202A8FDF707FD707800F00F00FDF743
S3150000D6E0F1FFDFF86C040078BFB2A84620B3DFF87C
S3150000D6F06474386800281ED0F078FBF7DDFE4146DA
S3150000D700FBF7DBFE804696F9026004A880210AF04A
S3150000D710D7FC002000906B1CDBB20022214604A837
S3150000D720FDF7E1FCFEF743F83B683246414604A8A4
S3150000D7309847FDF7F9FFA8E007F007000228FAD09E
S3150000D740FF208DF804002046FDF7B8FB00F1010A22
S3150000D750504609F085FA8346A5EB0B00851E6DB28F
S3150000D760002DE8D401208DF800006B4601222146E9
S3150000D770002009F02EFB9DF8000000281DD0B805FA
S3150000D78006D507F00700032818BF17F0070F10D1BA
S3150000D79001A9504602F052FC002876D107F0070096
S3150000D7A001280BD19DF804000AEB0B0107F09EFE41
S3150000D7B020B99DF80400FDF7F7FB66E09DF804002C
S3150000D7C0D9F800100F5CDFF8901309680C54D9F8EB
S3150000D7D00000005D00F120019DF80400C9B2FDF7CC
S3150000D7E073FB9DF8040009F005FA00F00C0004280C
S3150000D7F01CBF5D444FF0000B68B280B200900BF185
S3150000D80001039DF804009BB222463946FDF763FEEC
S3150000D810E9199DF80400C9B2FDF726FDCF497078D5
S3150000D820097800F00F00884203DB4FF4257100F001
S3150000D830F3F89DF8040009F0D8F97178C0F30D00EB
S3150000D84040EA81319DF8040089B209F0D0F9F078F8
S3150000D850FBF732FE4146FBF730FE02469DF8040018
S3150000D860032109F09BF9B2789DF80400042109F020
S3150000D87095F99DF808209DF80400052109F08EF918
S3150000D8809DF80440204600F008F82046FDF78CFB82
S3150000D890FDF74AFF25B0BDE8F08F2DE9F8430446B1
S3150000D8A0FF2C03D140F2BD2100F0B6F800F0B9F824
S3150000D8B000F0B6F800F00C0008284DD005F00C007A
S3150000D8C00C287CD1204609F080F90646FBF738FA89
S3150000D8D06946804620460AF0ADFB002808F44C4510
S3150000D8E03FD0204609F067F90746304609F0B8F9F7
S3150000D8F09DF80010C0190918C9B22046FDF7FBFCB7
S3150000D90007464FF4406018EA000F4FF6FF7906D03D
S3150000D910F01CFBF715FA484508BF45F0400508F42A
S3150000D9204060B0F5006F06D1701DFBF709FA484557
S3150000D93008BF45F010059DF80000002818BF072F06
S3150000D94068D1012F4CF6500028D0022F29D0042F81
S3150000D95008D0062F31D0072F31D0082F28D07C2FA2
S3150000D96022D057E0B5F5484F18BFB5F5084F05D09A
S3150000D970B5F54C4F18BFB5F50C4F4BD120460AF004
S3150000D980CFF8E0B1280403D5204609F0DDF9814639
S3150000D990002249460220FEF799F83BE0B5F5484FCC
S3150000D9A00DD0B5F54C4F06E0B5F54C4F07D001E06C
S3150000D9B04CF64040854202D02CE085422AD12046D2
S3150000D9C009F013F900F02CF800F00C00082816D026
S3150000D9D0A80614D54FF6DF7000EA0501204609F0C7
S3150000D9E006F9204609F0E7F80546204609F0EDF865
S3150000D9F009F036F94119C9B22046FDF735FC214632
S3150000DA005748FDF79CFD2046FDF7C0FA55480078BB
S3150000DA1009F09AF8BDE8F1830FF28010FFF760B9BC
S3150000DA200546204609F0E6B838B50C460246002100
S3150000DA30082009F090F90546FF2D01D1012032BDDD
S3150000DA402146FFF71FFD04462846FDF7ADFA84F090
S3150000DA50010032BD0121E7E7364A53690BB1702058
S3150000DA6070475061084610F078BA38B5314C656990
S3150000DA701DB940F27E31FFF7CFFF00206061A84755
S3150000DA8031BD2C494A69824203D10020486110F019
S3150000DA907DBA70474FF6FF71884200D1704780B556
S3150000DAA001463148FFF7D8FF38B1BDE804404FF4CE
S3150000DAB064710FF2E800FFF713B901BD10B51D4CF4
S3150000DAC0627E90420FD0607610F002FB20B1607E3D
S3150000DAD0BDE8104010F002BB207C40F0020020742C
S3150000DAE0BDE8104021E510BD1248407E704780B564
S3150000DAF0154800780B2801D0002002BD10F0E8FA86
S3150000DB0000B1012002BD80B5FFF7F1FF30B1FBF790
S3150000DB1037FB18B1BDE8014010F0AABB01BD80B5C6
S3150000DB20FFF7F1FFBDE804404FF4A0510F4808F09D
S3150000DB301BBF000098FB0320D4FB032030DE03202C
S3150000DB4038F5032080F20320DDDF0320D8FB032015
S3150000DB507EE90320D0FB032038DE0320BBDF032051
S3150000DB607CDF032012FD032021750100E0FB03206A
S3150000DB7010B5FBF719F90446FBF7D6F960B104F4C2
S3150000DB804030B0F5403F01D1022010BDB0F5003F56
S3150000DB9001D1012010BD002010BD00007570706518
S3150000DBA0722D6D61632E63004B49097881B10021A6
S3150000DBB000E0491C494B1B78CAB29A4208D2484A2F
S3150000DBC01268C9B232F821208242F2D10846704763
S3150000DBD0FF2070472DE9F04104463F4806783000A3
S3150000DBE00D4608BFFF2044D02046FFF7DDFF3D4A23
S3150000DBF03B491378394FFF280ED13878B04202D20C
S3150000DC00461C3E7008E0184600E030460E6806EBFB
S3150000DC108006F678FF2EF8D198421DD04FF0000C02
S3150000DC2001E00CF1010C97F800E05FFA8CF67645FE
S3150000DC300DD20E685FFA8CFC06EB8C0E9EF8038004
S3150000DC408045EED106EB8006F6788EF803600E6806
S3150000DC5006EB8006F3701070FF230A6822F8204056
S3150000DC6002EB8002FF2D937003D0096801EB85015A
S3150000DC708870BDE8F08170B50546084616490978F2
S3150000DC8001B3FFF791FF0446FF2C1BD0FF21284666
S3150000DC90FFF7A0FF0546FF2D12D029460DE01048DC
S3150000DCA0006800EB820330F822009E78FFF792FFAF
S3150000DCB0A842214608BFFF2534462246FF2AEED158
S3150000DCC0284670BDFF2070BD00BF0448007870472D
S3150000DCD00148007870470000F4FC03201BFD032078
S3150000DCE084DE0320F9DF0320DFF8DC0300780C2153
S3150000DCF010FB01F2DFF8D403006892B2FF21FEF7B1
S3150000DD00C6BF70B50C46DFF8C013097888420546D1
S3150000DD1001D36A2070BD08F0C4FD08B1762070BD3D
S3150000DD202046FEF7C6FC4FF6FF71884208BF4FF645
S3150000DD30FD700C21DFF894634D433168485320464B
S3150000DD4000F070F9316829448872FDF711FD042846
S3150000DD5004DB2D210FF29830FEF7C2FFFDF708FD18
S3150000DD60316829448A7A42EA40008872082230687B
S3150000DD7028442146801CFEF747FF002070BD38B5B9
S3150000DD80DFF844331B78984224D20C22CF4D12FB85
S3150000DD9000F42A6811534FF6FF72914208BF08F04B
S3150000DDA082FDFDF7E5FCCA490978884204D347217C
S3150000DDB00FF23C30FEF794FF28682044817A01F088
S3150000DDC0F1018172FDF7D4FC296821448A7A42EA7E
S3150000DDD04000887231BD10B5BB4A127803469342A3
S3150000DDE008460AD2B94909680C246343BDE81040C5
S3150000DDF019440822891CFEF707BFBDE81040082217
S3150000DE000021FEF744BFB04A1278904205D2AF49CE
S3150000DE1009680C225043085A70474FF6FF70704746
S3150000DE20F8B507460C46A84DA84E00E00C372978F1
S3150000DE3030680C2251430844874214D238884FF682
S3150000DE40FF718842F2D008222146B81CFEF726FF51
S3150000DE500028EBD1FDF78CFCB97AC1F3420181426F
S3150000DE60E4D13846F2BD0020F2BDF8B50446F5F718
S3150000DE7063FB9648944F056800260EE02888A0426A
S3150000DE8009D1FDF775FCA97AC1F34201814204BFAD
S3150000DE904FF6FD7028800C35761C3978F0B2884232
S3150000DEA0ECD3F1BD70B504460D462846FFF7DDFFFD
S3150000DEB029462046F5F761FB84480068214605E0BF
S3150000DEC0358008F0BEF8214606F10C00FFF7A8FFE2
S3150000DED00600F5D170BD7FB5044608227D49FEF7E0
S3150000DEE0DDFE10B9FEF736FC34E07B4D2868011DD7
S3150000DEF008222046FEF7D2FE10B92868408829E09D
S3150000DF00002000904FF6FF75002301222146284687
S3150000DF10F5F776FCFF284FF6FC7605D06F490968C1
S3150000DF2031F81000B04215DB01A802F0E1F950B952
S3150000DF30BDF80400400606D5082221460DF106006C
S3150000DF40FEF7ACFE30B100F087F810B10088B042A1
S3150000DF5000DB284604B070BD2DE9FF410446884623
S3150000DF60FEF7F8FB844202D108225A493EE05A4E97
S3150000DF7030684288944209D100220821001DFEF72C
S3150000DF804DFD18B930680822011D2FE000200090D1
S3150000DF900023012200212046F5F732FCFF280AD093
S3150000DFA06946F5F77AFB30B908220DF105014046BE
S3150000DFB0FEF72AFE1DE04548434E0768002501E0AE
S3150000DFC00C376D1C3178E8B2884214D238884FF687
S3150000DFD0FC718842F4DAA042F2D1FDF7C9FBB97AA6
S3150000DFE0C1F342018142EBD10822B91C4046FEF73B
S3150000DFF00BFE012000E0002004B0BDE8F08110B562
S3150000E0000446002000F028FBFF2808D034490968A0
S3150000E01031F810000006800E00F0010010BD04F07B
S3150000E020010010BD38B5044600F016F8002508B109
S3150000E030857A0CE000900023012221464FF6FF70FE
S3150000E040F5F7DEFBFF2802D0264909680D5C21465C
S3150000E0502846BDE83440D2E71C4800682146DFE682
S3150000E06038B504460D46F5F7D1FA1848006821463A
S3150000E07002E0857221460C30FFF7D2FE0028F8D167
S3150000E08031BDF8B5044621460020F5F789FBFF2887
S3150000E09015D11548154D0668002701E0361D7F1C71
S3150000E0A02978F8B288420CD23088A042F6D1FDF722
S3150000E0B05FFBF1788142F1D1B0780028EED00120E3
S3150000E0C0F2BD0020F2BD0000C1DF032094DE032074
S3150000E0D0BBDF0320ACF3032038F5032088DE0320E2
S3150000E0E044DE03208CDE032060DE0320B9DF03203C
S3150000E0F0616464726573732D7461626C652E63006E
S3150000E100DFF84813002008714FF6FF70D0490880E9
S3150000E110704730B583B004460D4608230922694688
S3150000E1200120FAF728FF14B19DF8060020700DB102
S3150000E13000982860BDF804003EBD80B50021684601
S3150000E140FFF7E7FF9DF8000002BD10B582B0044658
S3150000E15069460020FFF7DDFF009A0146204600F0E1
S3150000E16002F8204616BD00B583B08DF80600ADF85E
S3150000E170041000920823092269460020FAF7FBFEE4
S3150000E18007BD2DE9F04786B0804602A8002100228F
S3150000E19000230EC0404601F09EFA0546AD480068D1
S3150000E1A010F80890002000900A232A46414602A84B
S3150000E1B0FCF799FF9DF8080005F10A0409280CBF31
S3150000E1C0012500259DF80900E021084268D168462E
S3150000E1D0F8F7A1F908220DF10A016846FEF75EFD7F
S3150000E1E000285DD1002D4ED000F01AF9002857D036
S3150000E1F0974D28884FF6FF7A50451CBF4FF6FE71A3
S3150000E20088424DD1914F94493878001D3870C0B27C
S3150000E2100978491E8900814242DA0020387009F0E7
S3150000E2203EFF2880264607E031464046FDF71EF9A8
S3150000E23029888842F3D0B61CF6B2A9F101008642BD
S3150000E240F2DB2888010018BF5045E8D0FEF78AFAAD
S3150000E25029888142E3D0FFF770FF401CC0B2FFF768
S3150000E26074FF01462A880A2000F051F840B14FF4A5
S3150000E2707A71381D08F078FB0C20FDF7F0FB0FE0F3
S3150000E280A5F800A00CE0E1B24046FDF734F8FFF730
S3150000E2905CFF611CC9B24046FDF7E8F800F080F863
S3150000E2A07BE06A4801780A001CBF491E017070476E
S3150000E2B038B56649002008710C20FDF7DFFBFDF735
S3150000E2C001FA66480068407B022818BF03281AD165
S3150000E2D05F4C20884FF6FE724FF6FF7590420CBFDA
S3150000E2E02580A8420FD0FEF741FA258000210020A4
S3150000E2F0F8F72AF89A23132253A1032004F09AFD73
S3150000E3009A20FDF7CEFBBDE83140FDF70DBA2DE9A9
S3150000E310F04705460026092D0C460CBF01270027AD
S3150000E32086B0914600210020FFF7F3FE8DF80850D5
S3150000E330804602AD012068700DF1120A0DF10A0047
S3150000E340F8F7E9F817B9AC720DF1130A49465046C9
S3150000E350FAF7FDFC0AF102000FB94FF6FF7802A9A1
S3150000E360431A01960096DBB202AA6421404601F0E8
S3150000E3708CF90446FF2C0FD03FB100F051F820B1C4
S3150000E3802046FFF7FEFE012603E0204605F0C5FD08
S3150000E39006462046FCF708FE304606B0BDE8F08784
S3150000E3A038B504464FF6FF75AC4216D0FEF7DAF9DB
S3150000E3B0844212D026480188A9421CBF4FF6FE723D
S3150000E3C091420AD104804FF47A71254808F0CCFABC
S3150000E3D0BDE832400C20FDF742BB31BD1F48006846
S3150000E3E0007B042800D1704738B5194C20884FF6B9
S3150000E3F0FF71884213D1FEF7B5F905464FF4704117
S3150000E400174808F0B1FA0C20FDF729FB2A464FF60B
S3150000E410FE7020800021BDE83840092077E731BD35
S3150000E42010B50E480068007B04280AD0FEF792F962
S3150000E430044600210020FFF76CFE844201D1012032
S3150000E44010BD002010BD0000424200008CFB0320DE
S3150000E450AEDF032030DE0320CBDF032038F50320B8
S3150000E46090FB03202DE9FF470024DFF85C5606E009
S3150000E470FDF728F909F098FAFDF756F9641C297892
S3150000E480E0B28842F4D3DFF84446DFF844562078F9
S3150000E490DFF84096DFF8408600F040F80021FEF7EE
S3150000E4A0F6FB227828680921FEF7F1FB002601AF6A
S3150000E4B02EE00B23F2B2162101A8FEF722FD787A90
S3150000E4C0397A01EB0020D8F80010F6B2B24621F8EE
S3150000E4D01A0081B200291EBF80B24FF6FF71884232
S3150000E4E004D0B97A0022304600F01DF801233246E6
S3150000E4F019216846FEF705FD2968BDF8000001F8F8
S3150000E5000A006FF07F00D9F8001001F80A00761CA7
S3150000E5102178F0B28842CCD3BDE8FF874200DFF80D
S3150000E520BC0500687047DFF8B4351B6809074CBFA7
S3150000E5300021042141F4805141F0020123F810101A
S3150000E5400021DFF89C351B6843F820101102DFF824
S3150000E5509425126822F81010704710B5DFF8881558
S3150000E5600C78210008BF012409F04AFA0146FF2968
S3150000E5700DD0DFF87005026832F8113018001ABFA6
S3150000E580A3EB131000EB0410200222F8110010BDBB
S3150000E59070B5DFF8484524680022002302E024F81D
S3150000E5A013505B1CDFF824552D78AB4209DA34F89A
S3150000E5B013506E07F5D501220E0014BF054385439F
S3150000E5C0EDE7104670BD002100E0491CDFF8FC3481
S3150000E5D01B78CAB29A420AD2DFF800251268C9B27D
S3150000E5E032F8112002408242EFD10120704700200C
S3150000E5F070472DE9FE4306460C461546DFF8D884DB
S3150000E600DFF8C89401E0EFB1761C99F80010F0B27B
S3150000E61088421ED2D8F80000F6B230F816700B23E6
S3150000E620324600F09EF9002CEDD0002F1CBF4FF6AD
S3150000E630FF708742E8D0082269462046FEF72EFB87
S3150000E6400028E1D19DF80A0000F0EF00287030465E
S3150000E65000E0FF20BDE8FE8380B56A46FFF7C9FFEC
S3150000E66002BDFEB504460D4616461F460822314633
S3150000E6706846FEF7C9FA00F0B8F98DF80A7039460F
S3150000E680089A2046FFF74FFFFFF749FF30F81410AE
S3150000E69041F4804120F8141000F0ADF9DFF83004A1
S3150000E6A002680F211155012300680219214619201D
S3150000E6B0FEF76AFC00F0D2F920F814500022DFF8C9
S3150000E6C02C0400682C3041680078201841F820207E
S3150000E6D0304609F0C4FCDFF8FC13096808553046DB
S3150000E6E009F0BEFC0120FEBD2DE9FC4F85B0804639
S3150000E6F08A4601AA41460020FFF77BFF0546FF2D0B
S3150000E7004FF0000BDFF8E463DFF8CC7313D09DF80D
S3150000E71004009DF81410884202BF396831F81510BC
S3150000E7208A4508D002F0C1FF08B900F083F82846F0
S3150000E73000F097F9FF254FF6FF79CA4512D002A9D6
S3150000E7405046FDF7D1FFC0B90022082102A8FEF706
S3150000E75065F990B9082202A94046FEF79FFA60B112
S3150000E760CA460AE0FF2D08D002F09FFF08B900F064
S3150000E77061F8284600F075F9FF259DF81410890701
S3150000E780504604D5484552D103F0D9FB4FE0FF2D42
S3150000E79009D0404609F063FCCE4909684855404611
S3150000E7A009F05EFC22E0D24CD249227809789142E7
S3150000E7B015D0484502D103F0C2FB82460021002055
S3150000E7C0FFF74AFF0546FF2D09D010989DF8143033
S3150000E7D00090424651462846FFF743FF08B948468F
S3150000E7E025E02078401C2070F7F717FA9DF81810DE
S3150000E7F0284600F0BAF8FCF7DAFFFDF7ABFF014652
S3150000E800386830F815000122F6F756F902F04DFF88
S3150000E81040B930682C305FFA8BF2416800782818CE
S3150000E82041F82020FCF780FF386830F8150007B063
S3150000E830BDE8F08F30682C3041680078281851F810
S3150000E84020B07047A549096800204EF6FF7305E021
S3150000E85031F810201A4021F81020401C9B4A1278EB
S3150000E8609042F5DB704780B501460020FFF7F4FEC5
S3150000E870FF2802D14FF6FF7002BDBDE8024097495E
S3150000E880096811F81010890704D59349096831F809
S3150000E890100070474FF6FF707047FEB5954A127824
S3150000E8A090420C4606D28D4E3168054611F8151079
S3150000E8B0890701D49320FEBD00F051F89DF80A7037
S3150000E8C000F048F8B80748BF022003D438074CBF09
S3150000E8D003200420207200F0C1F830F81500608192
S3150000E8E07C480068405D6073306810F8150000F0E1
S3150000E8F00100207376480068405DA0730020FEBDCD
S3150000E90080B509F07DF8FF2808D07449096831F808
S3150000E91010000006800E00F0010002BD002002BDBE
S3150000E92080B509F06DF8FF2801D0012002BD002056
S3150000E93002BD10B584B00C4609F062F80246FF2A03
S3150000E94005D000F00DF800F005F8012000E00020E9
S3150000E95004B010BD082269462046FEF755B90246A6
S3150000E9600B2316216846FEF7CCBA7FB501F00105E8
S3150000E9700446280026460FD069462046FFF78DFF3D
S3150000E98050B9FFF7CCFD30F816000006800E00F0F7
S3150000E99001016846FFF764FB204603F06EF9009517
S3150000E9A03346232247A1032004F044FAFCF7FFFE76
S3150000E9B029462046F3F7D3FEFCF7B6FE7FBDFEB52B
S3150000E9C0454F04463868264630F8160088420D46FC
S3150000E9D00AD00B232246FFF7C4FF00F006F800F02A
S3150000E9E00AF8386820F81650F7BD280A8DF809008D
S3150000E9F08DF8085070470B236A4621461620FEF70D
S3150000EA00C3BA38B5044600F029F8254630F8150093
S3150000EA1018B337480178491E0170F7F7FEF8002150
S3150000EA202046FFF7CCFF2D490968002021F8150084
S3150000EA306FF07F0027490968485500202949096871
S3150000EA4021F815002046F7F795FFBDE8384000226B
S3150000EA504FF6FF711120FDF739B831BD1E48006829
S3150000EA607047244910B50978884204460CD2FFF74E
S3150000EA70F5FF30F8140038B100212046FFF775FF86
S3150000EA802046BDE81040BCE710BD38B500240F4D48
S3150000EA9004E00021E0B2FFF792FF641C2878E1B29F
S3150000EAA08142F6D3124A00211170FFF737FDFEF7B7
S3150000EAB0EEF828784200BDE838400A480068002190
S3150000EAC0FEF7E5B842424200BBDF0320B6DF032073
S3150000EAD090DE03204CDE032040DE032044DE0320CC
S3150000EAE048DE032050DE032021FC032038F50320F6
S3150000EAF016FD0320C6DF0320008F8E8C80000000E9
S3150000EB002DE9F24F804690B015469DF840001E460E
S3150000EB1005A900F079F90746DFF8C098DFF8C008C4
S3150000EB209DF814100068405CD9F80010B1F806A0F2
S3150000EB304988ADF80810C41BB1F5004FE4B201DAFC
S3150000EB40B84204DADFF89C18002008708CE0300028
S3150000EB5018BF4FF4A07A152CB4BF631C16230020EF
S3150000EB6000907A1E9DF81410DBB2D2B206A8FCF70C
S3150000EB70BAFABDF808009DF818B040F400415B46AB
S3150000EB8052460CA800F076FB012D14BF0120002090
S3150000EB9001900DF1190000903346BDF80810424669
S3150000EBA0504600F065F808B101205EE0002D5BD10B
S3150000EBB0D9F800004088342845D1092C54D19DF855
S3150000EBC02100C82541064CBF8026002600060DF10F
S3150000EBD0190048BF46F0200600220821FDF71EFF57
S3150000EBE0002738B90822DFF800180DF11900FEF7E2
S3150000EBF055F878B9DFF8F4070068017B012933D0AE
S3150000EC004269D20104D5032911DB408880450ED123
S3150000EC1001270BE00DF11900FFF725FE4FF6FF71F6
S3150000EC20884204D0314601F071F800B900252A4621
S3150000EC30CCA1404600F02CFBB7B10322414630463A
S3150000EC4000F020FF10E0CDF810B0CDF80CA0029433
S3150000EC500DF1190001909DF814309DF840100097B1
S3150000EC603246404612F0A2FC002011B0BDE8F08FFB
S3150000EC702DE9F14F90460FF29072DFF86CA7994696
S3150000EC8086B0D2E9003203A80026C0E90032109F00
S3150000EC9008000DF10C0B1ED1082251463846FDF72F
S3150000ECA0FDFFBB4607F1080558B9FDF753FD0446BD
S3150000ECB02F78119806EA090128BB481E8041C00F2B
S3150000ECC01EE03846FFF7CFFD04464FF6FF7084423C
S3150000ECD0EED10126ECE7012911D17878397801EBDC
S3150000ECE00024BD1CFDF736FDA7B2874208BFD346F8
S3150000ECF0DED003A9A0B2FFF71CFE0028E8E700203B
S3150000ED0007B0BDE8F08F61BBB9F1000F01D0022F4B
S3150000ED1027DA012F08BF002E02D1FDF71BFD03E005
S3150000ED20002E08BF012F03D1FDF714FD0446D3467C
S3150000ED3095F801A00EB1812203E0022FB4BF002294
S3150000ED4080220020CDF808A00190A4B200945B4672
S3150000ED500FF2BC610120FCF726FB8346BBF1FF0FD7
S3150000ED6001D10120CCE716B9022F00DA67B90C21D0
S3150000ED705846FCF779FA5A460021404600F088FAD0
S3150000ED805846FCF711F9ECE70025DFF85476DFF872
S3150000ED906446DFF8649604E0AAF101005FFA80FA9F
S3150000EDA06D1C99F80010E8B2884223D22068EDB2B3
S3150000EDB010F815008007F3D5BAF1000FECD12846FC
S3150000EDC0FFF75DFD8DF800000222000A8DF80100B4
S3150000EDD069465846FCF7F8F90028D1D1BDF8180065
S3150000EDE0F5F705FD396811F80B10891C761C884269
S3150000EDF0F6B2D5DA300008BF0D21B9D032460C2163
S3150000EE005846FCF77DFAB6E738B504460D46FCF7DA
S3150000EE1001F9FF2805D02046FCF7FCF828700120F0
S3150000EE2004E02C70204600F0D9FC401CC0B232BD74
S3150000EE302DE9F04188B005460E46174601A9304631
S3150000EE40FFF7E2FF044602A80021002200230EC0BD
S3150000EE50DFF88C059DF804100068405C9DF80410EE
S3150000EE600092031BDBB20B2BA8BF0B23224602A882
S3150000EE70FCF739F9B8464FF400403F1A012F07D97D
S3150000EE801F3F3ED0BF1E012F2FD9193F5FD067E02D
S3150000EE909DF80800002863D19DF812009DF8111016
S3150000EEA001EB002408220DF1090105A8FDF7ACFECF
S3150000EEB0012205A9A0B203F09EF80646A0B2A84218
S3150000EEC04ED0012105A8FFF7CBF848F20100804596
S3150000EED008BF002E44D1FCF76AFC00222946A0B2E6
S3150000EEE0F5F7EAFDFCF720FC3AE048F22100804500
S3150000EEF09DF808200CBF01200020294613F098F940
S3150000EF002EE09DF8080058BB9DF809500FF20857EF
S3150000EF100026F6B2AE4223DAD7E9001205A8082386
S3150000EF20C0E90012002000900C2016FB0040821C55
S3150000EF309DF80410D2B205A8FCF7D5F805A8FFF78E
S3150000EF4092FC08F05DFDFFF78CFD761CE1E7FDF70E
S3150000EF5001FC854204D02246314602A809F0B5F8E4
S3150000EF606CE00000310000003EB5154604460A4636
S3150000EF7000230221684600F07DF92A46B8A1204602
S3150000EF8000F086F93EBDF0B585B0164604460D463E
S3150000EF901F460A9A0023012100F078F80B9800F02A
S3150000EFA09DF8BAA196E02DE9F0410C46002514F033
S3150000EFB0784F88B0804616461F4604D001250023A8
S3150000EFC00022392102E000230022382104A800F0A3
S3150000EFD051F900208DF81400FF2EBDF8160040F000
S3150000EFE04000ADF8160002D1FFF7A7F809E0FE2EA3
S3150000EFF006D1FFF7A2F8401CC0B2FFF7A6F800E062
S3150000F0003846230CA2B2C0B265B10093FF2E0CBFE6
S3150000F0100FF20C410FF2104113460397029001962E
S3150000F020012208E0FF2E0CBF0FF204410FF2084147
S3150000F030029701900096404600F02AF908B0BDE814
S3150000F040F081F0B585B004460F4615461E4600F021
S3150000F05019F8204600F0B6F91FB13846F5F7C2F99F
S3150000F0600BE0DFF88C030069C1884FF6FF321140D0
S3150000F070C1800020DFF88413087000962B462246D4
S3150000F080CFA125E000234FF48062132101A8F1E00F
S3150000F0901FB5FFF7F7FFF7F749FA0446FDF75AFBE6
S3150000F0A002460094C6A1D04B4FF6FD7000F0F0F872
S3150000F0B01FBDF0B585B004460D4616461F46002313
S3150000F0C04FF480620021FFF7E1FF00F007F8C0A1CE
S3150000F0D04FF6FD7000F0DCF805B0F0BD8DF8087055
S3150000F0E000962B462246704770B5C04C206882B009
S3150000F0F0407B022803D16846F7F7F5F908B193205B
S3150000F10076BD2068007B012818BF022802D1BC4DBD
S3150000F110287808B9702076BD08F0C1FF0646B44CC1
S3150000F1202878E0701E20FCF79AFC0F2096FBF0F082
S3150000F130C0EB0010301A00F095F8201D07F014FC03
S3150000F140002076BD80B5AA49002008711E20FCF774
S3150000F15095FCFCF7B7FA00F004F8BDE80140FCF7AF
S3150000F160E3BA2DE9F043A3B01F200024ADF80A004E
S3150000F170ADF80C40ADF80840F7F7D8F9ADF80E0039
S3150000F180ADF81040BDF80A00994DB0F5004F05DA0C
S3150000F1902878401C287040F0800000E000208DF8A0
S3150000F1A0240009AEE878DFF85C9270704FF0020830
S3150000F1B0AF781CE005A9FFF770FBB8B9B8F1520F9C
S3150000F1C014DAD9F80000FFB2F021C05D08420DD173
S3150000F1D009A8082205A94044FDF716FD08F1080014
S3150000F1E05FFA80F8A878401CA870641C7F1CE97838
S3150000F1F0F8B28842DED37470414609A8FBF757FF80
S3150000F2000646FF2E29D0E4B24CB1002001900096AC
S3150000F210FF2302AA4FF6FC710620F4F7FBFE3046E8
S3150000F220FBF7C2FEA878E978884211D208F037FFCA
S3150000F23004461E20FCF713FC0F2094FBF0F0C0EBF5
S3150000F2400010201A00F00EF8281D07F08DFB04E0D0
S3150000F2501E20FCF704FC0020287123B0BDE8F083D3
S3150000F26032000000C0B24FF47A7142F2107211FB04
S3150000F2700021704710B50024047144714180048058
S3150000F280C28003815A49086110BD00003231310045
S3150000F2900CB42DE9F04784B05FEA010A0CAA814656
S3150000F2A008BF166803D00120FCF751F80646F6B2EF
S3150000F2B0FF2E08BF182079D04D4C21690A794FF6E8
S3150000F2C0F878C145ACBF0120002022B900280CBF48
S3150000F2D00825092505E0002200280A7114BF062525
S3150000F2E0002546480778FF2F0BD14888B0F5004F18
S3150000F2F005DA2078401C207040F0800703E00F8973
S3150000F30001E0FF210170FAB200213046FBF7F8FF59
S3150000F3102269607878B1FF20009001961346A08993
S3150000F320FAB24946F5F72CF80546002060704FF60C
S3150000F330FF70A08107E001900096FF23494628460A
S3150000F340F4F768FE0546BAF1000F1CBF3046FBF71E
S3150000F3502BFE742D29D1C14527DA20694088B0F5E6
S3150000F360004F22DBFDF7F6F92169498848F20402CD
S3150000F37091420CBF17A118A10022009203468A22CF
S3150000F3800120FCF710F80646FF2E0ED0FAB2002137
S3150000F390FBF7B6FF002001900096FF23226949463D
S3150000F3A0F4F738FE3046FBF7FFFD284604B0BDE80B
S3150000F3B0F0075DF80CFB0E48007840F080007047BF
S3150000F3C0323831000A4901224A70888170470000AC
S3150000F3D03831310031323100313200005CFB03201C
S3150000F3E030DE03200BFD0320ACF3032038F50320A9
S3150000F3F024F3032044DE0320B6DF0320E1DF0320ED
S3150000F40016FD032090DE0320FFFFFFFFFFFFFFFF37
S3150000F41031383231310000000000000000000000E9
S3150000F42031323231313200003132323131000000B6
S3150000F4303232313132000000323231310000000008
S3150000F4402DE9F84380460E4691461C46FBF7E2FD41
S3150000F4500546FF2DDFF8C4750BD0B9F1000F13D1A7
S3150000F460FBF754FFFF2820702ED13868405DA8BBFB
S3150000F4702AE0386810F80800851BFF2E08BF012017
S3150000F48023D0E8B210B9FF2020701DE05FEA090022
S3150000F4901DD047463846FBF779FDEDB20095334659
S3150000F4A0424600213846FCF716F8B9F1000F0AD09B
S3150000F4B029463846FBF7D8FEDFF864050068C15DCB
S3150000F4C001F07F01C15527700020BDE8F283E9B243
S3150000F4D00020FBF7ECFD0746FF2FDED11820F4E7EE
S3150000F4E038B50446DFF834050068055D204600F0AF
S3150000F4F0F2F800F10E03DBB2E91A89B20091224656
S3150000F50001462046FBF7E7FF2046A5F10E01BDE8C0
S3150000F5103440C9B2FBF7A8BE38B5044607F055FB20
S3150000F5200546204607F047FB6A780821D30748BFFF
S3150000F5300921130744BF0831C9B2D20644BF0831B6
S3150000F540C9B20818C0B232BDDFF8D0241268125C06
S3150000F5508A428041C043C00F70470170090A41705A
S3150000F560801C704710B504460822FDF74DFB04F1D8
S3150000F570080010BD2DE9F04B90460E46024684B0B9
S3150000F58099464FF6FF71042007F0E5FB0546FF2D6F
S3150000F59078D007F01AFB074607F06FFC48B107F072
S3150000F5A02AFC06F0010181F00101084218BF46F469
S3150000F5B00056DFF870442068C07E10B94FF6FF5041
S3150000F5C0064030050CD5B9F1000F09D16946404611
S3150000F5D0FDF78AF800280EBFE9464FF2FF70064095
S3150000F5E031463846FFF7B9FF4146FFF7B6FF834677
S3150000F5F0FDF7B0F801465846FFF7AFFFDFF82824BD
S3150000F60013780C9A0146481C0AB1934200D21A4656
S3150000F6100A7021684A7E521C4A7600F8012BF105D1
S3150000F62048BF401C310544BF4946FFF79BFFF10424
S3150000F63044BFDFF8F813FFF795FFDFF8E0432168D2
S3150000F6404A5D8018C01B485540F20110064218D189
S3150000F6504FF6F870804514DA2068475DFCF7A7F886
S3150000F66029464046F5F766FAFCF75EF82068405DE5
S3150000F670B84206D0284607F0A8FA417841F00401BE
S3150000F6804170284604B0BDE8F08B70B582B01546CF
S3150000F690069A1E4641F209240AB141F60924009150
S3150000F6A00246079B2146FF20FFF764FF0446FF2C16
S3150000F6B009D032462946FBF787FD0028204602D0AE
S3150000F6C0FBF772FCFF2076BDD6480168487E401CD9
S3150000F6D04876C0B2704738B50446FFF71DFF0546A9
S3150000F6E0204607F072FA4078400704D500F072F819
S3150000F6F0401C05EB4005E8B232BD41780A0701D44B
S3150000F70000207047C90701D5093070470830704797
S3150000F71000F108014078C20601D400207047C207F4
S3150000F72048BF491C000702D501F10800704708468A
S3150000F730704700F00302012A00F00C0101D0C00658
S3150000F74001D5022070470C2901D1092070470820F5
S3150000F75070470322114207D000F00300022801D1AE
S3150000F760032070470220704700207047F8B5044612
S3150000F7700D46FBF7C0FD0646FFF7DBFF07463006E2
S3150000F78001D43846F2BD7919C9B200F024F8014611
S3150000F7903046FFF7DEFFC019C0B2F2BD70B50446B1
S3150000F7A00D46FFF7E3FF064600F014F880060FD576
S3150000F7B07119C9B200F00FF8761D00F01801F6B203
S3150000F7C0082904BF761CF6B2800644BF0836F6B296
S3150000F7D0304670BD29462046FBF78DBD38B5044638
S3150000F7E0FFF779FF054629462046FFF7D7FF401960
S3150000F7F0C0B232BD2DE9F04385B007460C4607F08E
S3150000F800E4F90546F9F79CFA80463846FFF763FFA8
S3150000F810064631463846FFF7A9FF00210091034608
S3150000F8203246394601A8FBF75EFC9DF8047007F0E6
S3150000F8300C010C291CBF07F0030101290DF1050677
S3150000F84007F00C004FF0FF0906D0F90604D49DF826
S3150000F85005100DF1060600E0FF210C28617105D1A7
S3150000F8603046F9F76DFA2081B61C01E000202081B0
S3150000F8706878C00703D5A81CF9F762FA208107F05B
S3150000F880030001280DD0F8060BD43046F9F758FAD4
S3150000F8906080B51C2846F9F753FAAE1C208016F88E
S3150000F8A0019B84F804903078A0720020790648BF46
S3150000F8B04020B90648BF40F020005FEA086148BF13
S3150000F8C040F4007004D45FEA486148BF40F4807099
S3150000F8D05FEAC84148BF40F480605FEA085148BF0C
S3150000F8E040F40060E080380615D5707810F003000B
S3150000F8F011D0E288B17842F40042E28007F00302B8
S3150000F900022A04D1F07841EA0020208103E0012890
S3150000F91008BF0902218105B0BDE8F0832DE9F04159
S3150000F920154686B080460C46E888082C18BF0C2C75
S3150000F930064604D080045CBF06F040000143394F00
S3150000F9403868C07E10B106F020000143300448BF7D
S3150000F95041F08001032C0AD112208DF80000B00678
S3150000F96044BF32208DF800000DF1010025E00C2C7B
S3150000F9708DF8001005D129890DF10100FFF7EDFD85
S3150000F98004E068798DF801000DF102006988FFF73F
S3150000F990E4FD2988FFF7E1FD297900F8011B022C17
S3150000F9A00BD0B10709D4310402D52989C9B221B9CE
S3150000F9B039688A7E531C8B76AA72032CA97A00F8C2
S3150000F9C0011B17D0310415D529890A0A022C01D04A
S3150000F9D0CBB243B1022303704170801C022C09D1C3
S3150000F9E000F8012B06E010F8011CA97242700121F3
S3150000F9F00170801C3968C97E19B1A979890648BF8A
S3150000FA00401D6946421AD2B24046FBF7DDFB401E56
S3150000FA108041C00F06B0BDE8F081000030DE032053
S3150000FA2034DE032038F50320C7DF0320ACF30320C0
S3150000FA3080B5DFF8A013002008710620FCF71EF839
S3150000FA40FBF740FEDFF890030068407B042814BFF4
S3150000FA50532800F066F8BDE80140FBF765BE18B113
S3150000FA60DFF8781309880180DFF8680300787047AB
S3150000FA7080B517229AA1032003F0DCF9BDE8024005
S3150000FA8000204AE0F8B5DFF8504323685D7B2F007D
S3150000FA9018BF212D05F00F0608D01D7B012D01D1C1
S3150000FAA0850603D4DFF82C532F790FB17020F2BDF1
S3150000FAB02A70012EC94A118004D12120587300F002
S3150000FAC030F828E081064CBF532104215973216880
S3150000FAD0097B032916BF042900F0200000F0A000CE
S3150000FAE001464FF6FD7000F030F92068407B04288F
S3150000FAF004BF0120F6F758FC0620FBF7B0FF20688C
S3150000FB00007B032816BF04284FF400714FF40061F0
S3150000FB10281D06F029FF0020F2BDFF224FF6FF71D7
S3150000FB20B0E780B506F074FA08F0D2FD08F00BF9DC
S3150000FB30AB4800780B2802D007F009FC06E0062047
S3150000FB40FBF78DFF0FF20D00FDF75BFCBDE80140F2
S3150000FB5008F0C9BA10B50620FBF790FFFBF7B2FD17
S3150000FB609D4C2068417B532906D103214173012016
S3150000FB700021F5F77DFC29E0042918BF212925D1AC
S3150000FB800120F6F711FC4FF6FE70FCF7E7FD4FF685
S3150000FB90FF70FCF7EBFD0020F6F778FBF6F73DF873
S3150000FBA004F099F9F8F765FC012007F021FF2068B9
S3150000FBB0407B212802D1F5F736FA07E00020FCF752
S3150000FBC0ABFE00214FF40040F6F78DFFFBF7ACFDCE
S3150000FBD0BDE81040FBF7A6BE2DE9F8430E46804669
S3150000FBE0511CC9B23046FBF786FB0546304606F087
S3150000FBF0ECFF0646B01CF9F7A3F88146A809764F34
S3150000FC0000F001043868417B022966D1017B032993
S3150000FC1003DB4088804503D022E04069C0011FD441
S3150000FC2084B17078000708D53046FFF766FD0822D4
S3150000FC306C49FDF733F8002802E0FCF78BFD81459F
S3150000FC404BD107E00329A4BF4FF6F870814509DBC5
S3150000FC50E80907D00122414605F0A000FFF712FF90
S3150000FC60002C3AD13868007B032836DA7078C00653
S3150000FC7033D53046FFF74CFD064631460020FEF7E9
S3150000FC80EBFC0446FF2C07D0A8065CBF204600F01C
S3150000FC9029F82046FEF7E5FE404601F0CDF9FF289B
S3150000FCA00BD001F07AFAA80607D4FCF753FD20B171
S3150000FCB002223146404600F099FDFCF74BFD60B943
S3150000FCC0FBF775FD4FF6FF73022231464046F2F709
S3150000FCD0BBFFBDE8F143FBF727BDBDE8F18300009C
S3150000FCE0420000001CB5FEF7CAFD04466946FEF751
S3150000FCF020FE50B1FCF72EFD38B1FCF705FE20B111
S3150000FD0002226946204600F071FD13BD38B504464F
S3150000FD100D4607F075FE0146FF2901D1012032BDCF
S3150000FD202D4A1268D27E4AB12F4A126832F8111053
S3150000FD30490403D5FEF795FE002032BDFFF7D2FF3A
S3150000FD4045F040012046BDE8344030B504468809F8
S3150000FD5085B000F0010504208DF808008DF8091023
S3150000FD60280008D003A92046FEF7E3FD08B90120C4
S3150000FD702EE003A800E0002001900095022302AACD
S3150000FD8001212046FFF781FC0546FF2D08BF1820FC
S3150000FD901ED011480068017B032918BF042903D12E
S3150000FDA04188284606F049FF4FF6F870844205DB85
S3150000FDB000220221284608F02BFC03E021462846B3
S3150000FDC004F074FA04462846FBF7EEF884F00100C6
S3150000FDD005B030BD48F2032038F503209ADF032032
S3150000FDE0DDDF0320ACF3032044DE032038B50446F0
S3150000FDF006F0EBFE05462046FFF76DFC411CC9B236
S3150000FE002046FBF778FA697809070AD52846FFF7EE
S3150000FE1074FC01460020FEF71FFCBDE83240FEF7E9
S3150000FE2020BE400602D4BDE8314001E631BD0000E7
S3150000FE30F8B50446E01CF8F783FF0646601D00256A
S3150000FE40F8F77EFF4FF6FF77BE42044608BF01254E
S3150000FE5004D0FCF787FC864208BF0225BC4208BFD7
S3150000FE6045F0040505D0FCF775FC844208BF45F053
S3150000FE7008052846F2BDF8B50546F8F761FF0646BF
S3150000FE804FF6CF7000EA06072846FFF7D1FF002499
S3150000FE9048F641018E4208BF052809D1E81DF8F74A
S3150000FEA04FFFBD490988884214BF0224062412E088
S3150000FEB04CF6010087421ABF4CF6014087420124E6
S3150000FEC009D0FBF774FC284606F085FF0546FBF7CC
S3150000FED02BFC05B10824B14800782040F2BD3CB5A2
S3150000FEE00FF2CC230021D3E90045CDE9004528B91E
S3150000FEF0AB490860002036BD491CC9B230F8112054
S3150000FF001304F5D4002300E05B1CDBB23DF813407C
S3150000FF102504F1D49442F7D1022036BD2DE9F04FE5
S3150000FF200446884683B04046F8F70AFF9C4D834650
S3150000FF30286800260027002801BFA86800286868EE
S3150000FF4000284FF0030968D04FF440611BEA010F07
S3150000FF500BD008F10300F8F7F3FE4FF6FF71884265
S3150000FF600CBF022701274FF0050947F00800019052
S3150000FF700BF4404A5FEA4B6015D4BAF1000F16D075
S3150000FF800BF44060B0F5406F0CBF082002204844D7
S3150000FF90C0B24044F8F7D4FE0090FCF7E3FB0099AA
S3150000FFA089B2814201D1019F01E047F004070BF4B9
S3150000FFB04040B0F5004F08BF47F0800704D0BAF1C3
S3150000FFC0000F02D147F48077BFB20BF44060B0F562
S3150000FFD0006F0BD108EB0900F8F7B2FE8046FCF77C
S3150000FFE0B9FB804508D147F0100704E0B0F5406F33
S3150000FFF002D147F02007BFB2002001E0002610B969
S31500010000A968802205E0012807BF6968402229689E
S31500010010102231B9401C0328F0DBFF20BDE8FE8F1A
S31500010020761CF6B231F816305FEA0348F2D49F42E5
S31500010030F6D104B122703046F0E700002DE9F04711
S3150001004081468846F8F77CFE0546E80800F0010778
S315000100504846FFF7EDFE044605F0070605F4406A3B
S315000100604FF6F77005404F4800780B280FD0092846
S315000100700DD8DFE800F082050C0C8205050A0C0795
S31500010080002E00E0012E01D101E0032E75D11FB330
S31500010090002E72D10B2801D1A0076ED5B5F5004F00
S315000100A01CBFB5F5624FB5F5404F66D10026E8068F
S315000100B048BF46F08006A80648BF46F4805606F0BB
S315000100C00C0004285BD109F10700F8F739FE014657
S315000100D0FF2246F0040055E0032E334F4DD8DFE8EA
S315000100E006F00205032DD5E73B2053E04FF6CF700E
S315000100F000EA05064846FFF7BEFE20B94946FFF766
S315000101000DFFFF2801D00826D1E748F641008642B7
S3150001011033D10A2C18BF062C2FD160070CD5FCF75A
S3150001012035FC18B13868007B042826D00DF0E6FFAF
S3150001013018BB40F60406BAE70426B8E714F0030034
S3150001014005D1FCF70FFB4FF6FF71884215D10C263E
S31500010150BAF1000F0DD0BAF5006FA8D0BAF5406F0D
S315000101600BD10822114909F10500FCF797FD20B9C9
S315000101709DE73868007B012899D03A200AE0FF22E2
S315000101800021304606F0E7FDFF280EBF182088F84B
S3150001019000000020BDE8F087ACDF03201CFD032032
S315000101A080FB0320DDDF032038F50320ACF30320B9
S315000101B0990089000080000070B5DFF8005D0446F3
S315000101C0286882B02688407B08B1702076BDB005CC
S315000101D004D504F1120000F030FEF0B906F08600F5
S315000101E0862801D1B72076BD00F01AFE286816F4DC
S315000101F0045F466120D0B0040BD5A01C12F0BAF8FA
S31500010200010051D12868416921F4005141F48071FE
S315000102104161A01C00F011FE08B1B22076BD05F0C7
S31500010220D1FE20B92868416941F4803141612868CD
S31500010230416941F0200141612868416941F4004169
S31500010240416148064CBF04F123020022A31C47F278
S31500010250FF10F6F711FC684600F040F8286840697F
S31500010260C004BDF8000004D540F02000ADF8000040
S3150001027008E04FF6DF710840ADF8000009F080FC98
S3150001028002F09BFFBDF8000000F00FF828684069F6
S31500010290800506D594F82210012204F1120000F01F
S315000102A09BFB29680020486276BD10B5044604F41C
S315000102B0E6600104002300224FF07F60F6F7DCFBC5
S315000102C023462F22ADA1032002F0B4FDE00703D59A
S315000102D000213020F6F707FC002010BDDFF8DC1BFB
S315000102E009684969090C01F4E6610180002070473B
S315000102F038B5DFF8C85B04462868407B022801D080
S31500010300932032BD0A2200212046FCF7C0FC286852
S31500010310406900F0FF01820648BF41F010012180CB
S3150001032080075CBFA01CF6F73EFC002032BD38B545
S3150001033004460D4609F031FC08B9952032BD00F09E
S3150001034047FBC17E89B14069010401D4A82032BDB1
S315000103505DB110F0420F08BF002C04D000F44070CC
S31500010360B0F5407F01D0B72032BD002032BD00007C
S315000103702DE9F04F8BB00446894602A8242107F0E7
S315000103809FFE2046FFF7A7F901462046FAF7B3FF7D
S315000103900546204606F019FC8046002798F801001C
S315000103A0DFF86CAB800748BF0127A80648BF47F0B6
S315000103B002072046FFF712FA8DF8040002ADDFF8B6
S315000103C0540B00689DF80410005D9DF80420431A43
S315000103D0DBB2242BA8BF232300200090214602A8CC
S315000103E0FAF781FE68789DF808600090DAF8000057
S315000103F0C07E88B100F064FD002814BF4FF4D070B0
S315000104004FF4F070F040C00706D5B80704D4082EA3
S3150001041009D10098042805D103F072FD002818BF00
S31500010420052E03D0A7E0052EF6D0A4E09DF8042002
S3150001043000232146032006F0CCFC761F0B2E4FF637
S31500010440FF7BF2D8DFE806F00617374E54979797E9
S3150001045097596D73009806280CDA08F10200F8F72F
S315000104606FFC0546204606F0D7FB3B4602AA294605
S3150001047000F05AFB7FE0FCF76DF900287BD1DAF832
S315000104800000C17E002976D0B90702D440698001F7
S3150001049071D40DF11100F8F753FCDFF87C5A0246CE
S315000104A02C700DF109039DF813004946F6F72EFF4E
S315000104B0FF2028705FE00822DFF8601A0DF10900BD
S315000104C0FCF7ECFB20B902224946FFF7DBFA52E0C2
S315000104D00DF10900FEF7C7F958454CD00021FFF789
S315000104E015FC48E03A4602A94846F7F705F942E005
S315000104F06978012000F02DFA3DE0F8073BD50DF1B2
S315000105000900FEF7B0F9584504BF0DF1090000F0E6
S3150001051068FD58452FD09DF80420214600F030F89B
S3150001052029E03A4602A9484605F0B0FA23E0DAF88E
S315000105300000407B022808BFB9F1000F1BD16846B5
S31500010540F6F731FBB8B1DFF8D819002008706878E2
S3150001055000280CBF65246424F6F72FFD032806D175
S3150001056000210020F6F77EFC0020F6F729FD214642
S315000105706846FBF789FA0BB0BDE8F08F42570000D9
S315000105802DE9F0478246DFF88C0900680C4688B0F1
S31500010590005D02F10905461BF1B20020FAF787FD5D
S315000105A00746FF2F41D00120009000235246082123
S315000105B03846FEF7DFFF8046B8F1FF0F32D0E9B2C9
S315000105C02046FFF7EBF8814601A81C2107F078FDCC
S315000105D0002000904B46EAB2214601A8FAF783FDB6
S315000105E04A4601A94046FAF7EFFDC0B9A6EB09064E
S315000105F0F1B23846FAF768FC504607F001FAFF28CF
S315000106004D4400F09AF9F6B20096EBB2224600216B
S315000106103846FAF760FF5146404603F047FE40462A
S31500010620FAF7C2FC3846FAF7BFFC08B0BDE8F08716
S315000106302DE9F24F8046174686B01D460021384601
S31500010640FAF759FE04460226E808082C00F00100D4
S3150001065018BF052C8DF804004FF000094FF0080B68
S3150001066003D0062C18BF102C01D168080CE000F04D
S31500010670AFF9C07E58B100F023FC002814BF4FF437
S31500010680D0704FF4F070E04000F0010A00E0CA4675
S31500010690FF2F6CD0E80748BF4FF4027BC8200090BB
S315000106A00023424659463846FEF764FF0746FF2FA8
S315000106B05DD09DF8040028B106993846F7F791F9FF
S315000106C0002851D04FF6F8708045ACBF09200120B3
S315000106D0102C18BF0F2C8DF8080005D19DF80800C5
S315000106E040F040008DF8080000F072F9817E4A1C46
S315000106F08276BAF1000F8DF8091006D09DF8080030
S3150001070040F020008DF808000F26324602A938462F
S31500010710FAF75AFD40BBBAF1000F1AD00021052C99
S315000107200BD13846FAF776FC0121FAF7E4FD62248B
S31500010730C440E0074CBF102118219DF80400002891
S3150001074019BF0223069A41230022384602F0DCFE35
S3150001075050B9680704D54146384603F0A7FD02E0C3
S31500010760384603F0DAFB81463846FAF71DFC48465F
S3150001077007B0BDE8F08FF8B504460D46284606F0E9
S31500010780A0FADFF8947706463D70FBF7E3FF0146D2
S31500010790334622460120F6F7B9FDFF203870F1BD38
S315000107A07CB51C46DFF814371B681B7D00259B07AB
S315000107B001D5002076BD019200900B4606220FF26C
S315000107C078710020FAF7EFFD0646FF2E0CD0002CBB
S315000107D014BF03230123324600210020FFF728FF1F
S315000107E005463046FAF7E0FB284676BD2DE9F0418D
S315000107F004460D4616460027F6F7C1FAB84618B163
S31500010800012300F014F80746F6F7B9FA38B100F0FB
S3150001081057FB40B100F0DCF84069800103D40023A6
S3150001082000F005F8804648EA0700BDE8F081324647
S3150001083029462046B4E72DE9F34F9B46BBF1030F4A
S3150001084092460CBF01270027BAF1000F8DB018BFE1
S31500010850D04605D101A8F6F7A6F948B10DF104086D
S3150001086023210020FAF723FC8146B9F1FF0F01D1BC
S3150001087000205FE0FAF722FB04460520207084F889
S3150001088001B0199DE80607D511220021A01CFCF72D
S31500010890FEF904F1130618E018991022A01CFCF7C2
S315000108A0B3F9622020FA0BF0C00704F112060CD549
S315000108B003A908A800F0A4FA3046461CA9064CBFB5
S315000108C09DF81C109DF830100170380008BFDDF846
S315000108D038A0082251463046FCF796F908362FB162
S315000108E0A80900F0010006F8010B09E001200090BB
S315000108F0321B0823D2B249464046FAF7F4FB0836C2
S31500010900311BC9B24846FAF7DFFA680706D5BDF8C2
S31500010910340007F075F8FF2800F00FF80E99BDF8BE
S3150001092034002B464A46FFF783FE04464846FAF74B
S315000109303BFB20460FB0BDE8F08F09D0DFF8E41588
S31500010940096831F810204BF6FF731A4021F8102080
S31500010950704730B58BB004460D4600F0A0F86846E6
S3150001096000F06BFA60B99DF810009DF824100A1A80
S31500010970D2B2812A04DB2CB1A94201D0A84201D00E
S31500010980002023E01123022205A900F070F89DF84A
S3150001099010100122684600F01FF80FF0F3F801214C
S315000109A04FF40070FDF7F4FD09F0E4F8B0F1004FE3
S315000109B088BF09F0E5F8FAF7FAFE00F009F890F8B1
S315000109C02000F2F7BDF9FAF7AFFE01200BB030BDFA
S315000109D0DFF8E80400687047F0B58FB005460C46AD
S315000109E01646112200216846FCF751F901278DF8B8
S315000109F010402DB9102200216846FCF748F904E0A1
S31500010A00102229466846FCF7FFF8112200210AA8A0
S31500010A10FCF73DF91122002105A8FCF738F905A9D3
S31500010A200AA800F0EDF9300014BF0AA805A81122A2
S31500010A306946FCF733F900B9002786B1DFF87C5423
S31500010A404FB11123062200F011F82868407B432894
S31500010A5008BF0EF0E9FF286880F8204004E01FB1C6
S31500010A601123022200F002F80FB0F0BD6946002002
S31500010A70F8F781BA70B58AB004460D46164600F0FD
S31500010A800EF8002E14BF05AE6E46102231462046E2
S31500010A90FCF7BAF8307C28700AB0002070BD6946B0
S31500010AA005A8ADE130B58BB0044603208DF80000F2
S31500010AB0FBF750FE58B1FBF727FF40B101A8F6F747
S31500010AC072F820B1FFF784FF007D800701D5702001
S31500010AD028E00F208DF80C00082204208DF80D0067
S31500010AE00DF10E00DFF83414FCF78EF80DF1160344
S31500010AF001226946204609F0E8FA1A2103A8FAF705
S31500010B00D6FA0446FF2C0CD00123224601A9002067
S31500010B10FFF78EFD05462046FAF746FA0DB100208D
S31500010B2000E018200BB030BD2DE9FF4F551C85B0F4
