S02B00006275696C642F7468726561642D746573742D6170702D636F727465786D332D6763632D656D33353867
S31508000000382E0020A9120308CD0A0008CF0A0008D6
S31508000010A70B0000000000000000FFFF54000008C6
S3150800002004080300000000000000000000000000B3
S3150800003000000000000000000000000000000000B2
S31508000040000000000000000000000000930000000F
S30908000050000000009E
S31508000054382E0020A9120308CD0A0008CF0A000882
S31508000064A70A0A0100010008040803AC0026930045
S31508000074000000000000000000000000000000006E
S31508000084000000000000000000000000000000005E
S315080000940000000000000000FFFFFFFFFFFFFFFF56
S315080000A4FFFFFFFF00E00708000000000000080843
S315080000B4FFFFFFFFFFFFFFFFFF0000000000000037
S315080000C4000000000000000000000000000000001E
S315080000D43C5000203C5000203C5000203C5000205E
S315080000E4382E002030F60308EC420308601F00206F
S311080000F4401F0020000008083C500020B7
S31508000100382E0020A9120308CD0A0008CF0A0008D5
S31508000110D30A0008D10A0008D50A0008290D0008E4
S31508000120290D0008290D0008290D0008290D0008C9
S31508000130D70A0008290D0008290D000859180308D0
S3150800014071060008290D00089D1D0308290D0008E1
S31508000150391F0308AD1D0008290D0008290D0008E0
S31508000160B5100108F5060108B9F70008910100085D
S31508000170290D00083905000885050008C52100086D
S3150800018005A40008290D0008290D00080920000803
S3150800019070B51E4D1E4C2B782268DBB212F0040F88
S315080001A02E462CD0022B2AD81A4A11881A4A22F827
S315080001B013101A49012202FA03F30A7813430B7043
S315080001C0174B19781846A1B1002321FA03F5ED0754
S315080001D0DAB20AD5327001229A404A400270114AB0
S315080001E032F81320104B5A6009E00133032BECD187
S315080001F005E00D4B596000F08BFF03232B704FF67B
S31508000200FF732360BFF35F8F70BD00BFE33100202B
S3150800021010A80040E0310020E4310020E23100203F
S31508000220EA310020D831002000E00040134B0022BC
S315080002301A70134B03211970124B05201A70124BB2
S315080002401880124B1A70124B5A609A604FF400428B
S31508000250DA6010221A610F4A9A610122DA6119617D
S31508000260A3F55F53303B04221A644FF6FF721A60F7
S31508000270094B4FF400621A600FF0DABBEA3100202E
S31508000280E3310020EB310020DE310020E23100208E
S3150800029000E00040E031002000E100E038B5054606
S315080002A00C4600F0EBFE31F00DFE2846214615F00F
S315080002B03BFC23462A460120064905F09FFF064BCC
S315080002C040F20170C3F89050C3F89440BDE8384036
S315080002D031F034BDEC42030800000020F8B5674B46
S315080002E0674C5A68A2655A6AE265664AD2F80022DD
S315080002F022669A6A6266DA6AA2661A6BE2665A6BBE
S315080003002267DB6B04F1380263672CCA12F0040F0C
S3150800031008BF1D4631F0C0FD002385426065236590
S3150800032020D3594B9D421DD8AB696364EA69A26420
S31508000330B4F85820C2F30802062A17D1534A934242
S3150800034014D3534A934211D21A884DF642639A42FD
S315080003500CD1636840F20172C4F89030A368C4F8FF
S31508000360943005E0054600236364A3644FF42062D5
S31508000370484B984238BF1846474B0146984204D224
S3150800038050F8046BB6F1CD3FF6D05B1AE364424EE3
S315080003900023A367E367C4F88030C4F88430C4F840
S315080003A08830C4F88C30AE421BD956F8041D37483D
S315080003B08142F8D336488142F5D2C807F3D5374883
S315080003C000F1180750F804EF8E45ECD0B842F9D181
S315080003D048E051F8046FA94241F8046CF9D1C4F811
S315080003E08C00013BDBB2FF2B04D02D49A06F01F135
S315080003F01405EEE7B4F85830C3F30803991E0A2922
S3150800040023D8DFE801F0092906151822222222221C
S315080004101F0040F602222FE0224B196889071ED4D6
S315080004201B6813F0010F40F2025318BF1A4623E067
S3150800043040F6032220E040F60423B2F5206F08BFF9
S315080004401A4619E040F6052216E040F60721013B58
S31508000450222B98BF0A460FE040F601220CE040F630
S31508000460021209E033B1013BDBB203F11E0044F886
S31508000470201098E70523F8E71046F8BD00ED00E0E0
S315080004800000002000E100E0182E0020900100087E
S31508000490EC42030898000020382E00207400002043
S315080004A0780000201CA00040F0B51C4B1C4A1D4ECD
S315080004B01D4D00214FF4005402201960C2F88040F7
S315080004C030602C6019601868042740F060001860D6
S315080004D003F6A4131B68154883F04003C3F380137F
S315080004E00370134B4FF480401960C2F880003760E0
S315080004F02860162605F5A0552E601960196841F082
S315080005006001196003F53A631B680A4983F04003E2
S31508000510C3F380130B7014601060F0BD64A800402C
S3150800052000E100E014A8004020A80040FC4C002090
S3150800053068A80040FD4C0020104B4FF4005210B53F
S315080005401A60022243F80C2CD3F8E8190C4C81F0F7
S3150800055040012378C1F380118B4209D183F0010150
S315080005600E20217004F00EFB2178B1FA81F14909B9
S3150800057021700E20BDE8104004F004BB20A80040FE
S31508000580FC4C0020104B4FF4804210B51A60042230
S3150800059043F80C2CD3F8E81B0C4C81F04001237867
S315080005A0C1F380118B4209D183F001011620217015
S315080005B004F0E8FA2178B1FA81F149092170162088
S315080005C0BDE8104004F0DEBA20A80040FD4C00202B
S315080005D0084A0121136C084823F001031364074BEA
S315080005E00022C3F88010064B1A621A600170DA629C
S315080005F05A62704700A80040382E002000E100E04B
S3150800060000F00040F0B5164B164C196823785D1CAF
S315080006104A5D0AB3C85C144A144E80B10D27784364
S31508000620D0620020506210201062485DC8225043F4
S31508000630CA5C0F21B2FBF1F290FBF2F208E040F23D
S315080006409317D76250621062495DC8224A4352081E
S31508000650023323703280F0BDBDE8F040FFF7B8BF23
S31508000660F0310020EC31002000F00040EE3100208F
S31508000670064A08B51388591E11800BB9FFF7C2FF41
S31508000680034B4FF0FF321A6008BD00BFEE31002061
S3150800069000A800402DE9F04F434C0646A36BD4F85A
S315080006A040805807E16C44BFC246C146D4F850C0E2
S315080006B058BF8C46E26B5FBFD4F85490DFF818A198
S315080006C09046DFF818B148BFDFF814B113F0080FE9
S315080006D0364B374A08BF1A46BAEB09071FBF6425C7
S315080006E005FB0CF505EB5705B5FBF7F508BF3D46C9
S315080006F087B030495B468DE80006CDF8088030465D
S3150800070018BFADB2CDF814C005F0F0FFDDF814C07F
S31508000710BBB201931FFA8CF22B46CDF800B03046D7
S31508000720254905F0E3FFA36BDDF814C013F0040FA9
S315080007300BD1983FBC4508D11B4B5A6D1F4B9A42AB
S3150800074003D230461E4905F0D1FFD04501D8C84529
S3150800075004D230461B495A4605F0C8FF304605F014
S3150800076039FD236E3046CBB1174905F085FF0025C4
S31508000770236EEB40DB0708D5144B53F82520137876
S315080007801BB13046124905F077FF0135112DEFD11F
S31508000790304607B0BDE8F04F05F0A2BF0D4907B0D7
S315080007A0BDE8F04F05F0A2BF000000200C43030887
S315080007B074D9030814430308424303089800002029
S315080007C07B430308A7430308C5430308E04C030813
S315080007D01B840308F4430308382E00200743030844
S315080007E0FF42030870B5044600F052FA40F60223A9
S315080007F0984267D012D840F20253984221D004D8C2
S3150800080040F20153984219D070BD40F201739842E4
S315080008102FD040F60123984235D070BD40F6042308
S31508000820984200F0BE8076D340F60523984200F041
S31508000830D48040F60623984206D070BD20466E49FD
S315080008403DE020466D49CAE06D4B6E491D46D3F81A
S3150800085090202046013A042A96BF6B4B6B4E53F8FC
S31508000860226005F043FF204669493246D5F89430A0
S3150800087006E02046624B6749D3F89020D3F89430B7
S3150800088005F034FFB3E05E4D2046634905F02EFFC0
S3150800089095F868309B0703D52046604905F026FF82
S315080008A095F86B305E0603D520465D4905F01EFFB8
S315080008B095F86B30180640F19A802046594905F09C
S315080008C015FF94E04E4D5849204605F00FFF6B6E14
S315080008D0990704D0204655496A6C05F007FF95F834
S315080008E064301A0605D5464B204651491A6F05F05D
S315080008F0FDFE00266B6EF340DB0708D54D4B53F81B
S31508000900262013781BB120464B4905F0EFFE013629
S31508000910082EEFD16BE03A4D4849204605F0E6FE31
S31508000920204642496A6C05F0E1FE95F865305E0797
S3150800093003D52046424905F0D9FE95F865301806D4
S3150800094005D52F4B20463A491A6F05F0CFFE0826E3
S315080009506B6EF340D90708D5364B53F82620137823
S315080009601BB12046344905F0C1FE0136102EEFD1E1
S3150800097095F864301BB92046324905F0B7FE0126C2
S315080009806B6FF340DA0708D52F4B53F826201378F8
S315080009901BB120462D4905F0A9FE0136042EEFD1DC
S315080009A025E0174E2A49204605F0A0FE20461F4995
S315080009B0726C05F09BFE1025736EEB40DB0708D5BD
S315080009C01C4B53F8252013781BB120461A4905F00D
S315080009D08DFE01351A2DEFD109E020461D4905F097
S315080009E085FE074B204611495A6C05F07FFE2046C6
S315080009F0BDE8704005F0EEBB094403084644030809
S31508000A00000000208F440308A44B03084A970308F4
S31508000A10B5440308CB440308E5440308FD4403082A
S31508000A20374503086A450308A645030876440308BC
S31508000A30CB450308B84B0308E7450308EF45030809
S31508000A40064603084C460308944B03087C460308ED
S31508000A50844603089D4603082DE9F8430746164CC5
S31508000A60DFF864804FF0000923785FFA89F60BB344
S31508000A7038461249224658F8043B05F0FDFD25463E
S31508000A8015F8013B0BB12C46F9E763783BB10C49E5
S31508000A900C4B06F00306032E18BF194600E008495A
S31508000AA0384605F0E9FD384605F094FB09F10109D9
S31508000AB02C46D9E7BDE8F883204C0308BE46030850
S31508000AC0E98A030868DC03080400002005E004E05E
S31508000AD003E002E001E000E0FFE772B61EF0080F4F
S31508000AE008D01EF0040F0BD0DFF848E0AEE8FF1F71
S31508000AF011480AE0DFF83CE0AEE8FF1F0F4804E0C3
S31508000B00DFF830E0AEE8FF1F0D486946EFF30982CB
S31508000B108EE8070086460B480B4C854501D3A5454C
S31508000B2001D384F30888FFF7D9FB84F3088831F0EA
S31508000B3005F9000004000020FDFFFFFFF1FFFFFF9D
S31508000B40F9FFFFFFA01F0020382E002038B5044605
S31508000B5031F0B8F905460C4A0023536004F108033E
S31508000B60483453F8081C0833D16053F80C1CA342C8
S31508000B701161F6D1044B01225A6031F0B8F92846C2
S31508000B80BDE8384031F09BB990ED00E00148FFF729
S31508000B90DDBF00BF3C2E0020024B00225A6031F018
S31508000BA0A6B900BF90ED00E038B50A4A0A4B0B4DCE
S31508000BB020F01F04A54294BF1D46154631F082F960
S31508000BC0074B44F014041C625D62BDE8384031F0FE
S31508000BD076B900BF08000B1009000B10980000201A
S31508000BE03C2E002010B54FF08043D96A0022C9B2C6
S31508000BF041FA02F313F0010306D01C4B33F8123006
S31508000C001B4A062B04D014E00132082AF0D11EE054
S31508000C104FF20F01174B5888884203D11988B1F54E
S31508000C20306F01D34FF4C06111804CF23C325A80C8
S31508000C300FE040F207218B4209D10E490E480C6895
S31508000C40844204D14CF23C334B800B8800E0084ABE
S31508000C501380074B1A8840F201739A4201BF074B6B
S31508000C60074A92E8030083E8030010BDAC50030866
S31508000C70FC3100200000002007020FF0F4310020AC
S31508000C8090000020014B1888000A7047FC310020AC
S31508000C90014B1888704700BFFC3100200048704798
S31508000CA0F43100201FB5FF210F220446684605F0DF
S31508000CB072F964221948FF2105F06DF900230F2205
S31508000CC01749595C01291CBF144820F8132003F161
S31508000CD0010318BF52180F2BF2D14FF4E04031F040
S31508000CE0BDFB18B10F489D21FFF7D8FA4FF4804095
S31508000CF031F0B4FB18B10B489F21FFF7CFFA4FF438
S31508000D00805031F0ABFB18B10648A121FFF7C6FAAF
S31508000D102046694631F0D6FB04B010BDFE4C0020D3
S31508000D20504E0308D9500308FFF7D6BE38B5044617
S31508000D30C50831F0C7F8064B6D02595904F0070487
S31508000D400122A2404A405A51BDE8384031F0B7B8AE
S31508000D500CB0004000207047002814BF0220002075
S31508000D60704701207047F0B59F000F25BD4005422A
S31508000D70146812D001EB43010025EB1920FA03F39E
S31508000D80DB0707D5AB000F269E400B8824EA06042E
S31508000D901E4034430135042DEFD11460F0BDF0B583
S31508000DA04FEAC30EFF2505FA0EF50542146811D061
S31508000DB0002505EB0E0620FA06F6F60741BF0126C2
S31508000DC0CF5CAE40B44305F1010544BF3E40344311
S31508000DD0082DEED11460F0BD40F2016030F0AEBFD0
S31508000DE0F8B50020174D014600F082FA00F0FBFA2C
S31508000DF0286830B31449154A0023FFF7D0FF28683E
S31508000E001149134A0123FFF7CAFF28680E49114AF8
S31508000E100223FFF7C4FF104E0024671C3246234600
S31508000E2028680E49FFB20234FFF79DFFE4B2321D6F
S31508000E3028680A493B46FFF796FF062C06F5007612
S31508000E40EBD1F8BD9C2E00207C2E00200CB0004073
S31508000E500CB200400CB4004000B000408C2E0020BC
S31508000E6010B501201F4C30F0CBFB002030F0A8FE57
S31508000E70D4F8003C43F00803C4F8003C00F0F4F84A
S31508000E8030F08AFE184B194A197811605978C2F859
S31508000E9000129A78164B1A60164B1A8859882260DF
S31508000EA0154A11609988C2F8FC11D988C2F800124F
S31508000EB01989C2F8FC135A89104B1A60FFF790FF7C
S31508000EC00F4A136823F010031360FFF7AFF9FFF713
S31508000ED0EBFA30F07DFC00F0C4F8BDE8104000F0F5
S31508000EE0E7B800BF00B00040982E00200CB00040C4
S31508000EF00CB40040802E002004B0004004B400402A
S31508000F0000BC004008B530F037FC30F045FE154B04
S31508000F10154A197811605978C2F800129A78134B55
S31508000F201A60134B134A19881160598851609988B9
S31508000F30C2F80012D988C2F804121989C2F8001436
S31508000F405A890D4B1A60FFF74BFF0C4A136823F0BA
S31508000F5010031360FFF76AF930F08CFCBDE808400F
S31508000F6000F0FEBE982E00200CB000400CB40040E5
S31508000F70802E002000B0004004B4004000BC0040B1
S31508000F80F8B5164D00F030FA286830B31449154AFA
S31508000F900023FFF704FF28681149134A0123FFF7C6
S31508000FA0FEFE28680E49114A0223FFF7F8FE104E86
S31508000FB00024671C3246234628680E49FFB20234CD
S31508000FC0FFF7D1FEE4B2321D28680A493B46FFF70F
S31508000FD0CAFE062C06F50076EBD1F8BD9C2E00203D
S31508000FE0982E00200CB000400CB200400CB4004013
S31508000FF000B00040802E002008B105F02BB805F09F
S315080010002AB8000008B5FFF73DFE034B0A2894BF2F
S3150800101003EB8000184608BDEA50030810B5FFF731
S3150800102031FE0446FFF734FEC0B210B9012C17D1C1
S3150800103011E0072C0FD8DFE804F0120E04060608A4
S315080010400A0C092010BD022010BD032010BD0B207C
S3150800105010BD062010BD64F07F00C0B210BD002090
S3150800106010BD30F0B9BA00004EF6BE21024B01227F
S315080010709A6059601A60704700600040014B01226F
S315080010809A60704700600040A52801BF4DF6AD6222
S31508001090024B5A60022208BF1A607047006000407F
S315080010A0024B186800F00100704700BF006000405E
S315080010B008B5134B1022C3F88020124B124A197830
S315080010C04FF0804359B103290CBF002101219960D3
S315080010D040F651030020136030F0FAFD06E00221C5
S315080010E099604FF40063136030F02EFA074B07221D
S315080010F000201A601864024B10221A6008BD00BF4F
S3150800110000E100E0FE3100200C60004014A0004021
S3150800111070477047F8B5064615461C4613B34BF29A
S31508001120346399420FD1082C28BF0824A7B20E4968
S315080011303A4604F0A9FE30460C493A4604F032FF16
S3150800114080B940F2A2717F2D41F0006108BF0025E9
S3150800115041F40021304605FB04112246BDE8F8405B
S3150800116004F092BEF8BD00BF120808083C510308F7
S31508001170F8B5154640F00064C2070F4644F400244B
S3150800118003D518486C21FFF789F8EB0703D51548EE
S315080011906D21FFF783F8144B9C4204D96B1E134A42
S315080011A02344934203D90F486E21FFF777F8264662
S315080011B0331BAB4208D216F8013BFF2BF8D009487F
S315080011C07521FFF76BF8F3E7204639466A0830F0D1
S315080011D0A5FC28B1BDE8F84002487B21FFF75EB8B8
S315080011E0F8BD00BF1E510308FF070808FF0F0808CF
S315080011F0034B00201B78034B18700EF0B7BA00BFDC
S315080012000532002007320020184A70B5184C194ECE
S31508001210126825783378D203EDB2DBB21FD443EADD
S315080012200502D0071BD5144A116841B1190706D51E
S31508001230136808209847337803F0F70333700F4B89
S315080012401A6842B12A0706D51B68082098472378EA
S3150800125003F0F7032370BDE87040FFF7C9BF084BDA
S315080012601A78002AF7D000221A70F4E70032002014
S315080012700632002004320020083200200C320020FA
S3150800128007320020014B1868704700BF0032002063
S315080012902DE9F8430646894630F014FE114B804680
S315080012A01B78ABB1104B114F1C781D46E4B23EB902
S315080012B034B13B6823B1630602D53B6840209847A2
S315080012C0B442C7F8009005D02E70FFF79DFF01E0E5
S315080012D0012400E00024404630F0F1FD2046BDE838
S315080012E0F88300BF05320020063200200C320020A9
S315080012F02DE9F8430646894630F0E4FD114B804651
S315080013001B78ABB1104B114F1C781D46E4B23EB9A1
S3150800131034B13B6823B1630602D53B684020984741
S31508001320B442C7F8009005D02E70FFF76DFF01E0B4
S31508001330012400E00024404630F0C1FD2046BDE807
S31508001340F88300BF0532002004320020083200204E
S31508001350F8B5114D20F0FE6424F4407406462F6853
S315080013600CB9286000E0022426EA0703DA0307D549
S3150800137000200146FFF78CFF00200146FFF7B8FF63
S3150800138044B92B687B405B0404D516F4804F0CBF28
S31508001390002402242046F8BD0032002038B50B4B45
S315080013A004461A781D4690420DD030B90146FFF71B
S315080013B09FFF20462146FFF76BFF20462C700FF053
S315080013C057F9FFF715FF002038BD00BF053200208A
S315080013D0014B1878704700BF05320020002814BF5B
S315080013E00220002070477047FFF702BF2DE9F04F33
S315080013F04FF080439B688FB00728009305D00828D4
S3150800140005D0052808BF042002E0032000E00220DA
S315080014105F4B0138D3F8081CD3F80C6CD3F8102CA2
S31508001420120442EA062242EA0106D3F80C2C5707B0
S3150800143041BF4FF080410A6A42F002020A62D3F8BD
S31508001440083C5D0741BF4FF08042136A43F004032E
S3150800145013624F4BD3F8242C012393401E421FBF1F
S315080014604FF08042136A43F008031362494A002387
S315080014701360032800F2AD82DFE810F0830208004B
S31508001480240004004FF0804293601BE0424B1A6C24
S31508001490D40741BF4FF080410A6A42F040020A620F
S315080014A01A6C500741BF4FF080410A6A42F0200289
S315080014B00A621B6C990741BF4FF08042136A43F0DA
S315080014C01003136230F0FEFCFFF7EAFD334A0123EE
S315080014D0C2F58032120B9340013B4FF04022D36392
S315080014E01B0A814608D12E4B1B782BB14FF0804240
S315080014F0936C43F020039364274D2A4F2B6C2A4C98
S3150800150001933B6C22490293E36C4FF080400393AE
S31508001510236D4FF0000A0493636D0593A36D06933C
S315080015204FF040235A6807929A6808929A69099276
S315080015309A6AD3F838B00A921C4B1D4AD3F800E0D1
S3150800154092680B92022242608A6862F3070AD1F80F
S31508001550082262F30F2AD1F8082462F3174A4FF0DB
S31508001560FF328262D3F800310D9713F4805321D0ED
S31508001570D1F80C3C13F001031CD0036A13F00103E5
S3150800158018D0044901270B6843F480730B6012E0F6
S3150800159000B000401032002014A0004000000000F7
S315080015A09807080818A0004014A8004000E100E0C9
S315080015B000ED00E01F468149D1F80001820410D5EC
S315080015C07F48D0F80C0C43060BD54FF08040006AD4
S315080015D0C00741BF7B480127036843F4804348BFDF
S315080015E00360D1F80011490418D575480121D0F8CF
S315080015F0203C01FA03FC16EA0C0F0FD04FF0804C82
S31508001600DCF82030DA0709D50F46D0F8203C6D48BB
S3150800161001FA03FC03684CEA030303606749D1F83F
S3150800162000110B041AD56649D1F8240C0121814012
S315080016300E4213D04FF08041086AC00702D4096AE7
S315080016400A070BD55E4B5F48D3F8241C01231F46B7
S3150800165003FA01FC01684CEA0101016029688B075D
S315080016600BD54FF08041096AC80641BF5549012785
S31508001670CB7843F0010348BFCB70296849070BD5DF
S315080016804FF08041096A8A0641BF4E490127CB7847
S3150800169043F0020348BFCB702968CB070BD54FF040
S315080016A08041096A480641BF46490127CB7843F07D
S315080016B0040348BFCB704149D1F80011C9030BD5C3
S315080016C04FF08041096A0A0641BF3E490127CB7897
S315080016D043F0080348BFCB703949D1F80C0C10F019
S315080016E0010FD1F80C0C14BF4FF480584FF00008C6
S315080016F04306D1F8200C4FF0010101FA00F048BF6B
S3150800170048F4005806422E4818BF48F48048D0F8D6
S31508001710240C81400E424FF08041086A18BF48F4F5
S315080017200048C00605D4086A820602D4096A4B0630
S3150800173001D548F010084FF08041096A080648BFED
S3150800174048F4803808EA0E03A5200C93FFF79CFCA2
S315080017504FF0804101200864086A4FF08041CB6B46
S3150800176013B1896A0142F8D04FF080418B6A03426F
S3150800177002D000230B642DE067BB4FF04020C169FF
S31508001780114B21F00101C1611048016941F00401C2
S3150800179001610F4908688846984204BF4CF23C33F9
S315080017A001274FF0010008BF4B8030F02FF9C7B171
S315080017B04FF20F03A8F8023013E000BF00E100E083
S315080017C000B000401032002007020FF000ED00E0E4
S315080017D0000000208349CB7843F04003CB7030F0FB
S315080017E082FB4FF040280721C8F838B029600F213E
S315080017F02160FFF7CBF9009B4FF0804BCBF8083000
S31508001800019B79492B640D9BDFF8E8E11A46029B98
S31508001810744F1364039B0C9AE364049B2365059B2E
S315080018206365069BA365079BC8F80430089BC8F840
S315080018300830099BC8F818300A9BC8F828306B4B43
S315080018401A600B9A8A604FF0FF31C3F88011DEF8F0
S3150800185008303B70DEF808327B70DEF80834BB705F
S31508001860DBF82830DBF820100B40396813F002004B
S315080018708AEA010206EA0206DEF8241C03F00402DC
S3150800188003F47C7E42EA0E52C3F3C00346EA02061C
S3150800189003FA01F318BF4FF48060334303433B60F8
S315080018A030F010FB30F021FB0023CBF80430B9F1FF
S315080018B0000F01D0FFF7D8FB4C4B1B68D90306D5A0
S315080018C0FB781A0742BF20224FF080435A622B6CDE
S315080018D09B0705D5FB78DE0742BF454B0222DA6037
S315080018E02B6C580705D5FB78990742BF404B042255
S315080018F0DA602B6CDA0705D5FB785B0742BF3C4BF1
S315080019000122DA60E36C9E0607D53B68DD0542BF17
S31508001910364B4FF48052C3F80021236D980607D53D
S315080019203B68590442BF314B4FF40052C3F80021BB
S31508001930636D9A060CD52F4BD3F8202C01239340C0
S315080019403A6813421EBF294B4FF48042C3F8002160
S31508001950A36D9B060CD5274BD3F8242C0123934063
S315080019603A6813421EBF214B4FF40042C3F80021C8
S31508001970FB7843F08003FB700FB0BDE8F04F30F002
S31508001980AEBAFFF78DFB06461B4CA520FFF77CFB7E
S3150800199030F0A9FA30F0A3FA67686368174D23F0A8
S315080019A00103636030F0A3FAD5F800802B6823F0B2
S315080019B040032B6030F049F8C5F80080676030F0C6
S315080019C096FA0EB1FFF750FB0FB0BDE8F04F30F0B6
S315080019D08CBA40F259410A480FB0BDE8F04FFEF7FD
S315080019E05DBC00BF1032002000ED00E000E100E021
S315080019F014A0004000B0004090ED00E000800040D8
S31508001A0048510308FF2910B50C4607D80649097836
S31508001A1041B1E1B2BDE8104030F02EBFBDE810403C
S31508001A20FFF778BB10BD00BF1432002037B51C4C39
S31508001A30012300202370FFF735F9254638B1002029
S31508001A40FFF730F918B100232370492026E0154B1B
S31508001A5001A819887F220223FFF7D4FF7F220223D9
S31508001A600DF106000021FFF7CDFF40F2FD23BDF87A
S31508001A7004209A42BDF8063002D0B2F5FF7F04D1A1
S31508001A80B3F57F7F07D1002008E0B3F57F7F14BF49
S31508001A900420062000E0072000232B7003B030BD89
S31508001AA0143200202E510308FF282DE9F04105467F
S31508001AB00F4690461E4615D80E4B1B78C3B10E4CE2
S31508001AC023781BB10D48BF21FEF7E8FB01232370DD
S31508001AD0E8B2334641463A4630F00EFF00232370FB
S31508001AE0BDE8F0810548CA21BDE8F041FEF7D6BB3E
S31508001AF0BDE8F08114320020153200202251030877
S31508001B00024B1B780BB130F0E1BF7047143200204E
S31508001B1010B50E4B53F820309A8892B2AAB10C49E8
S31508001B208A6C520711D55A889C18A4790132CC635D
S31508001B30084931F8104092FBF4F104FB11225A804F
S31508001B409A88013A92B29A80E6E710BD402F0020A3
S31508001B5000C800406E880308012870B50C46164672
S31508001B601D463FD112299CBF1F4B5C5C642123098B
S31508001B7004F00F040A2C01FB03F101D8A14006E08A
S31508001B80013CE4B2092C02D00A235943F8E70120A4
S31508001B9030F0AAF838BB2B09072B0CBF002102210D
S31508001BA0012E02D141F0180103E0022E08BF41F0D0
S31508001BB0080105F00F050D4B012D88BF41F0040102
S31508001BC00122D9655A650A4A0020136C43F4C043BA
S31508001BD043F0090313644FF6FF731360054B202285
S31508001BE01A6070BD212070BD5051030800C800401E
S31508001BF008A8004000E100E0012838B513D10A4BD7
S31508001C005C6D012C0FD130F05DF90546074A204678
S31508001C10136C43F006031364FFF77AFF2846BDE802
S31508001C20384030F04CB938BD00C8004008A800401C
S31508001C30012801BF024A136C23F006031364704798
S31508001C4008A80040012815D10B4B5B6D012B11D15B
S31508001C50013AD2B2FF2A084B07D0986C4007FCD548
S31508001C6011F8010B044BD863F2E79A6C5206FCD5BF
S31508001C70002070472120704700C8004010B5044670
S31508001C80FFF7FCF9012C03D1024B9B6C5B06FBD5D5
S31508001C9010BD00BF00C8004070470000F0B5294DD0
S31508001CA055F82010284A936C9B0749D5936CD46B3A
S31508001CB0DBB213F0380F18D1244B8A8833F810306A
S31508001CC092B2013B9A421ADA0B88CA189471204AD2
S31508001CD0013332F8104093FBF4F204FB12330B8005
S31508001CE08B8801339BB28B80DCE71E0709D4DC06A0
S31508001CF009D413F0200F14BF2522012204E0232261
S31508001D0002E0272200E02422124E55F82040375CD4
S31508001D10114B27B92488325423F81040C2E733F808
S31508001D201030238032546688B34237BF074A9B1B5C
S31508001D3032F81020D21838BF931B9BB2A380B1E7A4
S31508001D40F0BD00BF302F002000C800406688030899
S31508001D505E8803080E440020804300207047000078
S31508001D600C4B1A680C4B9A660C4A1268DA660C4ACF
S31508001D701268DA6501225A650A4A136C43F4C043AD
S31508001D8043F0090313644FF6FF731360064B2022D2
S31508001D901A6070471C32002000C80040203200201C
S31508001DA01832002008A8004000E100E038B50C4DC4
S31508001DB02B682C6C1C408CB146F2297323402C608E
S31508001DC01BB10120A1B2FFF769FF41F6D6032340F4
S31508001DD0002BEDD00120FFF79BFEE9E738BD00BFD9
S31508001DE008A80040034B1A684FF040239A63FFF790
S31508001DF089B800BF684D002000F00F020C2A13D8DE
S31508001E000A4B10F0800F1968114414BF91F8AC0002
S31508001E1091F8B90020B11B68282202FB003001E0C6
S31508001E201AB918683430704700207047D82E002039
S31508001E3001788378044A09B1506D00E0906DD84066
S31508001E4000F00100704700BF0010014070B504465D
S31508001E5080782378B8B9002B39D0A58923699D42A3
S31508001E6028BF1D4615F0FF0505D0194BA16818684F
S31508001E702A4604F009F8A36801222B44A360154BEF
S31508001E801D619A6070BD134EDBB1A58923699D4219
S31508001E9028BF1D4615F0FF0507D0A16829B10C4BD0
S31508001EA02A4653F8200003F0EFFFA3682B44A360EB
S31508001EB0A378043346F82350A27801239340B360ED
S31508001EC070BD40F20113B26C83401343B36470BD16
S31508001ED0BC2E0020001001400146084B06291B684D
S31508001EE0D87FD97708BF83F8200083F821001B6BB9
S31508001EF05B6813B1884200D018477047D82E002077
S31508001F00014B1B68D87F7047D82E00202DE9F04179
S31508001F10C0B20E4690461F46FFF76EFF044640B90C
S31508001F20294840F20B21FEF7B9F96FF00300BDE826
S31508001F30F08136B1B30704D023484FF40571FEF794
S31508001F40ADF92FF0BFFF05462046FFF771FF30B108
S31508001F5028462FF0B4FF6FF00400BDE8F08194F82E
S31508001F60203033B128462FF0AAFF6FF00100BDE8F4
S31508001F70F081A3785BB1154A1268D27F042A06D08D
S31508001F8028462FF09CFF6FF00800BDE8F08100227C
S31508001F90A660C4F8108062610BB901232370237808
S31508001FA023B909484FF41171FEF778F9012384F82B
S31508001FB0203020466762FFF749FF28462FF07FFF4B
S31508001FC00020BDE8F08100BF63510308D82E002029
S31508001FD000F00F020C2A13D80A4B10F0800F19686C
S31508001FE0114414BF91F8AC0091F8B90020B11B68F0
S31508001FF0282202FB003001E01AB91868343070470D
S3150800200000207047D82E0020694B2DE9F7431D683C
S315080020101D60002D00F0C980664C626D22F0010239
S3150800202062655B682B401E0209D5634B1B6893F8F3
S315080020302100FFF751FFFFF7D5FE14F0B1F868024B
S3150800204009D55D4B1B6893F82100FFF745FFFFF79D
S31508002050C9FE14F0A5F8A90202D50620FFF73CFF31
S31508002060EA021FD57F236366534B00211B68596418
S3150800207093F836601A1D1A60606D012202FA06F698
S3150800208020EA060083F85410606593F8360083F852
S3150800209034101B6BA16D82401B6821EA0202A265FF
S315080020A003B19847A26F5AB9424B01215966424B70
S315080020B01B68191D83F83420196083F854205A6464
S315080020C015F47E5F04D16B066FD00126002465E007
S315080020D0802700262F423AD006F11E0354F82330F3
S315080020E0F0B20193FFF774FF019B0269DFF8CC8019
S315080020F09A4234BF1346019BC8F80000D21A0261FF
S315080021004269DFF8BC901344436190F82030022BF3
S3150800211007D18378019A806859F8231092B203F0A0
S31508002120B3FE26B9244B186800F0D4F804E0D8F8B2
S315080021300030D87800F096F9019A59F8260000215F
S3150800214092B203F028FF40F20113B340A3640136AC
S315080021507F00072EBFB2BDD1B5E764F07F00C0B2DD
S31508002160FFF736FF154B02691860A30003F1804399
S3150800217003F5883319698A4234BF13461B69D21A94
S3150800218002614269134443615CB90B4B186800F05D
S31508002190A1F801347600072CB6B206D02E42F8D044
S315080021A0DBE7C07800F05EF9F3E703B0BDE8F0833B
S315080021B088A8004000100140D82E0020704D00204D
S315080021C0A02E002008B5164B4FF400421A600822CC
S315080021D043F80C2CD3F8E807124BC0F3C00018706C
S315080021E078B1FFF78DFE042819D00F4A032013682B
S315080021F023F4706343F4807313600C4B04221A6053
S3150800220009E0094A136823F4706343F48063136092
S31508002210074B04221A60BDE80840FFF75DBE08BDFB
S3150800222020A80040644D002000B0004010B00040D7
S3150800223014B0004038B503780546A3B1848903690C
S315080022409C4228BF1C4614F0FF0405D0064BA9681B
S315080022501868224603F018FEAB6801222344AB60D7
S31508002260024B1C619A6038BDBC2E0020001001404C
S31508002270F8B5877804461FB9BDE8F840FFF7DABF16
S315080022800378124EDBB1858903699D4228BF1D4636
S3150800229015F0FF0507D0816829B10D4B2A4653F87A
S315080022A0270003F0F1FDA3682B44A360A378043349
S315080022B046F82350A27801239340B360F8BD40F254
S315080022C00113B26CBB401343B364F8BD0010014060
S315080022D0BC2E0020F8B5044694F854303430032B4D
S315080022E000F2B480DFE803F0028C55420025584B13
S315080022F0584E656484F83550574F1D70B36F3D606E
S31508002300002B00F0A380204600F00CF901300BD119
S3150800231094F83610726D01238B4013437365231DA1
S3150800232084F834502360F8BD94F854305A1E012AB4
S3150800233002D9636C33B913E0A26D022B3A6000F040
S315080023408580F6E72268D28893427FD2B4F8401097
S31508002350B3FBF1F201FB1233002B77D1012364E0C2
S3150800236094F83500231D236068B941E0384B1B7883
S315080023700BB1231D2360384B1B6823B1374A002055
S31508002380116802469847002384F8543084F834309C
S31508002390F8BD656C1DB1002384F8343032E02E4F49
S315080023A02F4E3B68F3B12846A16C2A4698473D60F4
S315080023B0C0B1284B94F83600596D012202FA00F094
S315080023C00143596594F83600996D82400A4384F8AA
S315080023D034509A6533681A1D83F834501A6084F8A5
S315080023E05450F8BD336800201A1D83F834001A606B
S315080023F084F85400014602460346FFF787FD21E0AC
S31508002400636C1BB1BDE8F840FFF714BF94F835209C
S31508002410012A0DD1A16C114A84F85430116018466E
S3150800242019461A46FFF772FD022384F83530F8BDBF
S315080024302AB90A4BA26C1A60012384F83530044B7A
S3150800244001221A70032384F85430F8BDF8BD00BF82
S3150800245068380020001001406038002064380020E9
S31508002460D82E002000F00F010C2970B550D82B4A41
S3150800247010F0800F13680B4414BF93F8AC3093F830
S31508002480B93023B11268282404FB032402E000298A
S315080024903ED11468343494F82030012B0DD12069CC
S315080024A020B12046BDE87040FFF7E2BE636A84F8B3
S315080024B02000002B30D0606225E0022B2CD1226947
S315080024C0DAB1A378164D1E3355F82330A189134483
S315080024D0994207D9636AFBB1002161626FF00B006C
S315080024E0616912E02046FFF7C3FEA378A2681E338F
S315080024F055F823301344A36070BD636A84F820201E
S3150800250053B11046626202466169BDE870401847D9
S31508002510002393F82030FFDE70BD00BFD82E0020C0
S315080025200010014070B50446236B21489B68206063
S315080025302BB9204B1A7A12F0600F04D035E0984771
S31508002540C31C34D1F5E75B7A062B2ED1266833787F
S3150800255003F09F03802B25D17388DAB21B0A022B5E
S3150800256006D0032B0BD0012B1CD1DAB9646A0CE018
S31508002570C2B9A46A04206588FFF7AEFC06E0A37F0B
S315080025809A420FDAE36A53F82240257855B1F28861
S315080025900020AA42214628BF2A460346FFF7B6FC72
S315080025A0002000E0FF2040B270BD4FF0FF3070BD44
S315080025B0303200202832002070477047014B012234
S315080025C01A7070474049002008B50720FEF7AEFB91
S315080025D0BDE8084002484FF4FA7112F079BF00BF0F
S315080025E0EC3A00200120014904F080B8D8590308C4
S315080025F00120014904F07AB8C25403081FB50849F6
S3150800260088780A784B7800908888896801900291C2
S315080026100120044904F06AF805B05DF804FB00BF20
S3150800262050880308CA540308024B012002491A6855
S3150800263004F05CB8542F002000550308024B012013
S3150800264002491A6804F052B8E047002015550308F5
S315080026502DE9F04387B0044627F0F2F927F0B6F9DA
S315080026608046204612F03AFE02AD01460822284668
S3150800267003F00AFC204612F02AFE81460027294C60
S315080026800821E019002213F017FB2646F8B108378F
S31508002690B7F5807FF3D10023234A32F81320424549
S315080026A027D00133202BF7D1002404AF95E8030087
S315080026B087E8030000261D4839463044082203F0FF
S315080026C071FCE8B10836B6F5807FF4D126E0B9F595
S315080026D0404F19D1044630192946082203F062FCF6
S315080026E090B10834B4F5807FF5D108230093104BD8
S315080026F00CE007200F49424614F078FB0124D4E782
S31508002700082300930C4B01E0002407E00121019304
S3150800271007200A462B4614F089FB0124204607B0F9
S31508002720BDE8F083EA39002098390020F43A002001
S315080027306F550308275503084A55030837B5084651
S315080027400C4611F0E5FC0546204611F0FDFC054B4C
S3150800275001210090019308200A462B4614F066FBD7
S3150800276003B030BD9455030838B5084D288811F0D4
S31508002770CFFC0446288811F0E7FC2118204605F00E
S3150800278071FEBDE83840FFF72DBF00BF264A00207E
S3150800279038B500244FF6FF72104B1148E50023F8B0
S315080027A0142028440021082203F0F5FB0D480021D7
S315080027B02844082203F0EFFB0B482544284400214F
S315080027C00822013403F0E7FB202CE3D14FF0FF3257
S315080027D0064B1A70064A074B1A6038BD983900200E
S315080027E0F43A0020EA39002076380020E42E00204A
S315080027F021410008A04B002008B5FFF7C9FFBDE836
S3150800280008400120014903F071BF00BFD8590308E9
S3150800281008B5054B002105481022197003F0BBFBCB
S31508002820BDE80840FFF7DEBE563C0020153C0020F8
S31508002830F0B50746C3B002AC20460D461646002141
S31508002840FE2203F0A8FB01A80DF583713A46019410
S3150800285024F0D0F910B9FFF7CBFE33E046B1019B5F
S3150800286029461B1B22469BB2012003F013FF27E0D3
S315080028702946012003F03AFF019DAC421CD2A71C51
S31508002880AF4204D91049012003F030FF14E06678FE
S3150800289022780E493346012003F0EEFE33460C49F2
S315080028A03A46012003F0F6FE0120094903F01EFF0F
S315080028B0637802331C44E0E70120064903F016FF5B
S315080028C0FFF790FE43B0F0BD9C550308AF550308CB
S315080028D0EB8A0308CE5503080D2002490022FFF7AC
S315080028E0A7BF00BFD75503080D2002490122FFF7ED
S315080028F09FBF00BFD35503080E2002490022FFF7E9
S3150800290097BF00BFE75503080E2002490122FFF7CB
S315080029108FBF00BFF855030810B513F061FC0446D5
S3150800292013F05EFC2246BDE810400346014901202B
S3150800293003F0DCBE0D5603082DE9F04F85B014F000
S3150800294009FF264C024626490120237803F0CEFECD
S31508002950254600262B78F4B2A34238D94FF6FF72E3
S31508002960204B1B6833F8143093422ED01E4922465A
S31508002970012003F081FE1D4B186800EBC40005F02A
S3150800298031FA1B4B20461B6833F81480194B1B6819
S3150800299053F82470184B1B6853F824B0174B1B6860
S315080029A053F824A0164B1B6853F8249015F024F806
S315080029B0CDF800B00390CDF804A0CDF8089001201A
S315080029C0104942463B4603F091FE0136C2E70E49DE
S315080029D0012005B0BDE8F04F03F088BEFA2E0020AE
S315080029E01E560308EC2E0020365603080C2F00202E
S315080029F0FC2E0020F42E00201C2F0020242F00205F
S31508002A00282F0020415603087D5603082DE9F0417A
S31508002A1086B01FF005FB044613F023FC804613F02E
S31508002A20DFFB074613F0C3FB1A4A1B4915781B4AF6
S31508002A301B4E1288002D0CBF0D46354612F0010FAD
S31508002A4018BF3146174B42461B8805918DE8090089
S31508002A50154B0495029308230393012013493B461B
S31508002A6003F00AFE24B91249012003F03FFE0BE0E9
S31508002A70A178227863780091E17801200191217983
S31508002A8002910C4903F032FE06B0BDE8F04113F09E
S31508002A90E1BB00BF334A002093560308984800203C
S31508002AA09656030806300020E44F00209A5603087D
S31508002AB02F5703083657030808B5002004F0E2F834
S31508002AC0044B003018BF01201870BDE80840FFF716
S31508002AD089BD00BF0830002008B5002004F0D2F8F0
S31508002AE0044B003018BF01201870BDE80840FFF7F6
S31508002AF079BD00BFE439002008B5002004F0C2F80B
S31508002B00024B1860BDE80840FFF76CBDA0310020F5
S31508002B1008B5002004F0B6F8024B1860BDE8084076
S31508002B20FFF760BDF430002008B5002004F0AAF8CD
S31508002B30054B024618600549012003F0D7FDBDE89C
S31508002B400840FFF74FBD00BF542F00204557030824
S31508002B5008B5002004F096F8054B1870012004F01B
S31508002B6091F8044B1870BDE80840FFF73BBD00BF5D
S31508002B70543100201C31002008B5002004F082F8EA
S31508002B80074B1870012004F07DF8064B18700220D8
S31508002B9004F078F8044B1870BDE80840FFF722BD2A
S31508002BA09031002091310020A431002008B5002082
S31508002BB004F068F8044B003018BF01201870BDE80F
S31508002BC00840FFF70FBD00BFA44B002008B5002042
S31508002BD004F058F8024B1860BDE80840FFF702BD3C
S31508002BE09830002008B5002004F04CF80246044B43
S31508002BF00449188092B20120BDE8084003F076BD6A
S31508002C00343000206457030808B5002004F03AF869
S31508002C10C0B220B1BDE80840024812F04DBC014BD5
S31508002C20187008BDEC3A002008B5002004F02AF810
S31508002C30024B1860BDE80840FFF7D4BC50310020AD
S31508002C4008B5002004F01EF8034B80021880BDE882
S31508002C500840FFF7C7BC00BF8031002008B5002038
S31508002C6004F010F8024B1880BDE80840FFF7BABC1C
S31508002C70B04B002008B5002004F004F8024B187089
S31508002C80BDE80840FFF7AEBCF82E002008B50020C6
S31508002C9003F0F8FF014B8000188008BDA63100201C
S31508002CA008B5002003F0EEFF034B04491880012005
S31508002CB0BDE8084003F01ABDB0310020D859030812
S31508002CC008B5002003F0DEFF024B1870BDE8084087
S31508002CD0FFF788BC204A002008B5002003F0D2FF81
S31508002CE0024B1880BDE80840FFF77CBC783000200E
S31508002CF008B5002003F0C6FF024B1880BDE808405F
S31508002D00FFF770BCAE31002008B5002003F0BAFF0B
S31508002D1025F0AEFDBDE80840FFF764BC73B5002595
S31508002D20A8B224F0B3FD0446134901202A4603F04D
S31508002D30A3FCCCB10120114903F09EFC0023E278E4
S31508002D405E1C9BB29A4207D923441A7901200C4982
S31508002D5003F092FC3346F2E7A178227863780120E3
S31508002D600091084903F088FC0120013503F0B8FCFE
S31508002D70082DD5D102B070BD9B570308A05703088C
S31508002D8007A80308A857030870B50120344903F0BB
S31508002D90ADFC0124002604F10055324B013D03EB3E
S31508002DA0C50528460821002212F086FF58B92E4983
S31508002DB02246012003F060FC284605F013F801209E
S31508002DC003F08EFC01260134212CE4D11EB9012022
S31508002DD0264903F08BFC0120254903F087FC0124D2
S31508002DE0002604F10055234B013D03EBC505284693
S31508002DF00821002212F060FF58B91B49224601201B
S31508002E0003F03AFC284604F0EDFF012003F068FCC5
S31508002E1001260134212CE4D11EB90120134903F0FF
S31508002E2065FC1549012003F061FC002211464FF6A6
S31508002E30FF70124B541C33F81230834205D01049E8
S31508002E400120224603F052FC0121202C2246EED115
S31508002E5029B9BDE870400120044903F047BC70BD9C
S31508002E60C3570308F43A00209B570308EB57030897
S31508002E70F1570308EA390020035803089839002057
S31508002E801B58030808B5002016F05AFCBDE8084090
S31508002E90FFF7A8BB70B503F06BFE05460024E0B249
S31508002EA0A84218D203F0EEFE002382B20C4931F88C
S31508002EB01300904204D121F81320012009490BE0A0
S31508002EC04FF6FF76B042F6D00133202BEED1012023
S31508002ED005491A4600E070BD03F008FC0134DEE738
S31508002EE098390020255803084958030810B503F0F7
S31508002EF03FFE064C10B90123237003E0002003F0BF
S31508002F00C1FE2070BDE81040FFF76CBB214A0020C7
S31508002F1008B503F02DFE30B1002003F0B3FE0030F3
S31508002F2018BF012000E00120BDE8084029F0B3B829
S31508002F3008B5002003F0A6FEBDE80840003018BF1B
S31508002F4001201CF069BE08B5002003F09BFEBDE811
S31508002F500840003018BF012007F0CABB08B500209A
S31508002F6003F090FEC1B201201EF0E0FD18B1BDE8E5
S31508002F700840FFF737BBBDE80840FFF739BB08B57F
S31508002F800020FF211EF0D2FDBDE80840FFF72ABB4E
S31508002F9008B5002003F076FE0EF09AF9BDE8084061
S31508002FA0FFF720BB07B501A825F0D8FC30B101987A
S31508002FB0013025F05DFCFFF715FB01E0FFF718FB74
S31508002FC003B05DF804FB000030B5C5B003F0D0FDD2
S31508002FD030B1002003F056FE003018BF012000E093
S31508002FE001201A4C207023F05DFD227800F154056B
S31508002FF090F8563012B143F0080301E023F00803B5
S3150800300080F8563003A823F030FD002301930322ED
S315080030108DF808300DF106000C2329468DF8052099
S315080030208DF8043002F030FF03A801A9052223F029
S31508003030CCFC28B103A823F0E5FEFFF7D3FA03E09A
S315080030400120034903F052FB45B030BD0C30002087
S315080030506E58030808B5002003F014FEBDE80840C2
S3150800306010F0A4BF08B5002003F00CFEB0FA80F0FB
S3150800307040090DF015FFBDE80840FFF7B3BA08B5DB
S31508003080002003F0FFFDB0FA80F040090EF050FD75
S31508003090BDE80840FFF7A6BA08B50020014629F0A2
S315080030A093F9BDE80840FFF79DBA00001FB5002058
S315080030B0694603F00DFF10B9FFF79AFA09E0064BC7
S315080030C001221A7005486946102202F0DDFEFFF754
S315080030D089FA05B05DF804FB563C0020153C002033
S315080030E010B5C2B00DF10301002003F037FE044607
S315080030F001A823F0BAFC01A821469DF8032023F075
S3150800310064FC28B101A823F07DFEFFF76BFA01E005
S31508003110FFF76EFA42B010BD7FB5002002A903F092
S31508003120D7FE48B10DF10701012003F017FE9DF8FF
S31508003130071002AA29F072F9FFF754FA07B05DF8EA
S3150800314004FB1FB5002003F09DFD694604460120D7
S3150800315003F0BEFE50B1022003F094FD82B2694628
S31508003160E0B2134629F0E8F8FFF73CFA04B010BDC0
S315080031701FB50020694603F0ABFE48B1012003F0F5
S3150800318081FD81B20A46684629F008F9FFF72AFA4E
S3150800319005B05DF804FB0000F0B5002097B003F019
S315080031A071FD05A90446012003F092FE58B30DF1FE
S315080031B01301022003F0D2FD0746032003F062FD47
S315080031C009AD86B200212846342202F0E4FE0F4BF0
S315080031D09DF8242014939DF8133042F001020093C1
S315080031E000238DF82420E4B201930221084A3B46C5
S315080031F0029505A8ADF83660ADF83860159406F066
S3150800320079F9FFF7EFF917B0F0BD00BFE9C002087A
S315080032107B58030830B5A3B005468DF81710002073
S3150800322008A903F055FE20B92349012003F05EFAE8
S3150800323040E022A9002301F8693D012003F08EFD34
S315080032409DF81F3001467BB1202B84BF20238DF8C3
S315080032501F309DF81F200D230DF132008DF83030F8
S315080032608DF8312002F010FE15AC204600213422DC
S3150800327002F091FE0DF117031E930123ADF87C3081
S315080032800E4B1B88ADF86630ADF868309DF81F30D8
S3150800329003B1023300930A4B0294019308A8022152
S315080032A02A460CAB06F026F910B9FFF79BF901E0A0
S315080032B0FFF79EF923B030BD825803087830002006
S315080032C0C941000801480321FFF7A4BF995803081C
S315080032D001480221FFF79EBF9E58030801480121B5
S315080032E0FFF798BF9958030801480021FFF792BFD6
S315080032F09E5803081FB50020694603F0E9FD10B182
S31508003300684604F031FE012003F0EAF905B05DF8DD
S3150800331004FB08B5002003F0B5FCBDE80840C0B2C0
S3150800332029F04AB830B58DB00DF10B01002003F035
S3150800333015FD0F4A03AD10249DF80B10A2F11003DA
S3150800334000952CF01DFC04230DF11E00294622468B
S315080033508DF81C308DF81D4002F096FD05492A4669
S315080033602346012003F0C2F9FFF73CF90DB030BD42
S315080033700A500020A358030808B5002003F082FC71
S31508003380021C4FF0000018BF012201461CF0F2FA99
S3150800339018B1BDE80840FFF725B9BDE80840FFF7B2
S315080033A027B90000002010B5014603F0D7FC0446F3
S315080033B02EF0A8FD2246BDE810400346014901202B
S315080033C003F094B9BA58030808B52EF09BFDBDE87A
S315080033D0084002460149012003F088B9CC58030881
S315080033E008B50CF0B1FCBDE80840024601490120C9
S315080033F003F07CB9D958030808B502201FF03CFF32
S31508003400BDE80840FFF7EEB8F0B59BB01AA9074625
S31508003410002001F8650D03F0A1FC05461FF03AF8F7
S31508003420064603F0A5FB012803D9012003F02AFC70
S3150800343086B22C469DF8031000238B4208D22278C8
S315080034400B2A16D0627802321344DBB2EC18F4E782
S3150800345022F09EF868B1204B20491A88012003F013
S3150800346045F9204621F07EF99DF8033004338DF89E
S3150800347003301B4B01A81C785CB100213C2202F0EA
S315080034808AFD384629469DF8032001AB23F08AF9C0
S315080034901AE023463146224619F06EFD2246284692
S315080034A09DF8031011F049FA0E4B0246169320B9FF
S315080034B00D49012003F01AF90CE001A8394605F078
S315080034C0CFFEB0FA80F0400910B1FFF78BF801E0A3
S315080034D0FFF78EF81BB0F0BD32500020E558030800
S315080034E0334A0020F94000080B5903080148FFF742
S315080034F08BBF00BF0F5903080148FFF785BF00BF00
S3150800350014590308F0B52D4BC5B01B78012023B913
S315080035102B492C4A03F0EAF84DE003F0B3FB0746C3
S31508003520022003F0AFFB84B2032003F0ABFB061CBA
S315080035304FF0000018BF012603F0A4FB431E5D42AE
S315080035405D4103A815B123F090FA01E023F0B6FA1D
S3150800355000210A22684630F085FC0E2300208DF8EB
S31508003560003008233A468DF801300DF10201034672
S3150800357012F07CFB610089B202A812F065FB9DF887
S315080035800900694630438DF809000A2203A823F08A
S315080035901CFA20B90C49012003F0A8F80BE003A88F
S315080035A015B123F02FFC01E023F06CFE01201EF07C
S315080035B077FDFFF717F845B0F0BD00BF334A002086
S315080035C019590308495903085D5903082DE9FF47A6
S315080035D0002003F057FB8046012003F053FB074603
S315080035E0022003F04FFB0646032003F04BFB8246FE
S315080035F0042003F047FB0446052003F043FB8146FD
S31508003600062003F03FFB1FFA8AF20023054602A9AB
S31508003610002012F02BFB24F00101B9F1000F18BFAE
S3150800362041F001010DF10E0089B2ADB212F00CFBAA
S3150800363000955FFA88F002A9FAB2F3B21CF088F88E
S3150800364010B1FEF7CFFF01E0FEF7D2FF04B0BDE8E8
S31508003650F08700001FB5002003F014FBC4B214B1B4
S315080036600122A24000E0074A03A9002012F0F0FA5E
S31508003670042300930449224603AB012003F036F8DD
S3150800368004B010BD00F8FF076E59030808B516F018
S3150800369023FDBDE80840FEF7A5BF0000002008B5D9
S315080036A006490346402203F0C5FB054B0549187039
S315080036B0BDE80840012003F019B800BF3B4A0020C6
S315080036C0374A0020D859030813B50F4C69462046D7
S315080036D015F0CEFC22460D4C08230D49012002F0B8
S315080036E0D9FF2146012003F001F86A460823094953
S315080036F0012002F0CFFF2146012002F0F7FFFEF776
S3150800370071FF02B010BD00BF9F4F0020EB8A03086F
S315080037108B5903088459030808B5002003F0B2FA48
S31508003720064B024618600649012002F0DFFF27F023
S31508003730C3F8BDE80840FEF755BF00BF7C3100203E
S315080037409359030808B50020044903F0A8FBBDE80F
S3150800375008400120024902F0C9BF00BFDC4F002023
S31508003760D85903082DE9F3410020694603F097FB71
S31508003770012003F087FAC6B2032E02D901201F4999
S3150800378037E068461E49082202F00CFC10B91D4BAA
S315080037901E701FE000241C4F4FEAC40808EB0405FE
S315080037A03D4428460821002212F086FAA8B144446E
S315080037B02846694608223C4402F066FB134932460D
S315080037C02672012002F058FF012011496A46082393
S315080037D002F060FF01200F490BE0284669460822DF
S315080037E002F0E0FB0028E2D00134202CD3D10A49AC
S315080037F0012002F07BFF02B0BDE8F081B059030852
S31508003800DC2E0020E42E002076380020DC59030840
S31508003810EB8A0308D7590308015A03082DE9F04330
S3150800382085B003F0A5F981460025EBB24B4536D2A3
S315080038306F4668B269460DF1080803F030FB9DE84B
S31508003840030088E803000026164C08213444204665
S31508003850002212F031FA80B108222046414602F0D1
S3150800386013FB1149012002F007FF384604F0BAFAA3
S315080038700E49012002F03AFF0FE020464146082291
S3150800388002F090FB0028E7D00836B6F5807FDBD13A
S3150800389001200749202202F029FF0135C5E705B0B6
S315080038A0BDE8F083F43A00201E5A03083858030886
S315080038B0315A030808B5002003F0E4F9BDE80840CA
S315080038C0003018BF012022F00DBC00000148072176
S315080038D022F0E2BB535A0308F8B51A48002111F042
S315080038E0DCF9054660B3284610F012FC0746284660
S315080038F010F02AFC431E1B07064604D0124840F265
S315080039002271FCF7CBFC012010493A7802F0B4FE8C
S315080039100124B4420FD2012C03D901200C4902F02C
S31508003920ABFE381904F020FB10340120094902F0D7
S31508003930DDFEA4B2EDE72946024811F0D8F9D0E732
S31508003940F8BD00BFCC4F00205B5A030873A80308D4
S3150800395074510308EB8A030808B5002003F092F9AE
S31508003960431E584258411BF049F9BDE80840FEF786
S3150800397039BE08B512F0B0FFBDE8084012F0B2BF74
S3150800398007B50020694603F08AFA68461CF04AF92A
S315080039900649012002F070FE684604F023FA04493D
S315080039A0012002F0A3FE03B05DF804FB6D5A03087C
S315080039B0EB8A030808B5002003F064F9064B1B7868
S315080039C0042B05D1C0B2032802BF044B00221A708B
S315080039D0BDE8084003F09FBE9A480020D839002069
S315080039E02DE9F34100200DF1070103F0B7F99DF821
S315080039F00740804603F0BCF8012802D8A4B2002785
S31508003A0007E0012003F03EF987B2022003F03AF9F5
S31508003A1084B21F4D298849B9204610F013FF288023
S31508003A2020B91C4840F27D31FCF738FC288810F094
S31508003A306FFB41469DF807200646384402F024FAF3
S31508003A40012015499DF8072002F050FE9DF8070051
S31508003A503844A04219D10120104902F047FE00233C
S31508003A605F1CDBB2A3424FF0010005D2F25C0C49A1
S31508003A7002F002FE3B46F3E702F032FE3046E1B2C0
S31508003A8000220FF0FBF800232B8002B0BDE8F0817E
S31508003A90E63900205B5A0308925A0308A75A030816
S31508003AA0F7D9030808B5002003F0ECF8034B1860B3
S31508003AB014F06EFCBDE80840FEF794BDF02F002018
S31508003AC010B58AB06946002003F0E9F9012003F031
S31508003AD0D9F8134B1022188006A90023022003F0F8
S31508003AE0A9F9044602A9684618F0DCFD022000215F
S31508003AF012F0D2FA0220002112F0C0FB094B022272
S31508003B001A7002A806AA234600212BF0C1FC064912
S31508003B10012002F0EBFD054B01221A700AB010BD18
S31508003B20B0310020B0490020D8590308D04B0020F6
S31508003B301FB5002003F0A6F80D4B69461880102221
S31508003B400023012003F076F90A4B02460124694650
S31508003B5000201C702BF012FC204615F09FFB204617
S31508003B60054902F0C3FD054B1C7004B010BD00BF2B
S31508003B70B0310020AC310020D8590308D04B0020C2
S31508003B801FB50020694603F0A3F930B168461DF059
S31508003B90A3FF0120024902F0A9FD05B05DF804FB68
S31508003BA0D8590308F0B500209DB003F06BF806ACB1
S31508003BB007462146012003F08BF910B901202D494B
S31508003BC053E002F0D5FF02280FD9022003F05AF875
S31508003BD085B202F0CDFF032804D9032003F052F87A
S31508003BE086B200E0082675B900E00826204618F0D7
S31508003BF0D5FD38B9204618F09BFD00280CBF402596
S31508003C00012500E0012520460821002212F054F87B
S31508003C1030B1204618F0EAFD10B9204617F0C4FF67
S31508003C2000218023EDB2029300940195039104913B
S31508003C3005960AA8FAB20B4619F037F998B11999F8
S31508003C400B465A1A92B2B24205D2C1F140021A4440
S31508003C5003F8012BF5E7002300930AA90122FF23A5
S31508003C6017F04EFA18B90449012002F03FFD1DB0BD
S31508003C70F0BD00BFBE5A0308DF5A03082DE9F04716
S31508003C800020A0B002F0FEFF8146012002F0FAFFF4
S31508003C900646022002F0F6FF0DF1280A8046514634
S31508003CA0032003F015F9002855D00DF1270104204B
S31508003CB003F054F8074602F05BFF05280CD90520E7
S31508003CC002F0E0FF84B202F053FF062807D9062067
S31508003CD002F0D8FF80B203E00020402400E0002074
S31508003CE09DF82750E4B2854238BF05461FFA89F386
S31508003CF00194B6B200240293CDF800A0039604946A
S31508003D00059506940EA821465FFA88F2234619F00F
S31508003D1071F810B9012011491BE023469AB2AA424C
S31508003D200AD29DF82710914288BFF95C1D9A8CBF6C
S31508003D30D154D3540133F1E7002300930EA901228D
S31508003D40FF2317F0DDF910B10120054901E0054907
S31508003D50012002F0CBFC20B0BDE8F087F75A030833
S31508003D602D470308EB5A03087FB500200DF117010C
S31508003D7002F0F4FF9DF817300021102B84BF1023A2
S31508003D808DF817309DF817300246DB000091019137
S31508003D900291FF2003F0F80327F076FC07B05DF8E0
S31508003DA004FB000010B5002002F06CFF84B2204628
S31508003DB025F020FE30B92246BDE81040012004490E
S31508003DC002F094BC25F018FFBDE81040FEF70ABCC7
S31508003DD00A5B030807B50020694603F060F86846E1
S31508003DE025F00AFFFEF7FEFB03B05DF804FB0000B2
S31508003DF01FB50020694603F06BF890B1012002F068
S31508003E0041FFC3B2032B08D8074A684632F8131095
S31508003E101BF0F8FE0120054901E00549012002F0E2
S31508003E2065FC05B05DF804FBC46F0308D8590308A0
S31508003E302A5B03082DE9F04F002089B002F022FF23
S31508003E408346012002F050FF8246022002F01AFF44
S31508003E508146032002F016FF0DF107018046042073
S31508003E6002F07CFF9DF8073007460F2B88BF0F230B
S31508003E704FF0050088BF8DF8073002F003FF04A94C
S31508003E800446062003F024F840B104A818F0F4F913
S31508003E9002F06EFE072806D801250AE02B49012004
S31508003EA002F024FC4FE0072002F0ECFE051C18BFC8
S31508003EB00125274B9DF807601B780BB1254804E0C0
S31508003EC002A804210BF0E2FB02A818F05FFB11F030
S31508003ED07FFE5FFA8BF00BF02DFF4FFA8AF012F097
S31508003EE09DF900215FFA89F012F0D6F81FFA88F0DA
S31508003EF012F078F93146384615F09EFA04A818F0FB
S31508003F00BBF915F0B1F8A0B212F054F912490B88B2
S31508003F106FEA43426FEA52420A80104A1446107802
S31508003F20022802BF43F4004343F001030B80032039
S31508003F30002112F0A3F92378022B02D10DB125F046
S31508003F405DF804F0A7F909B0BDE8F08F405B0308F7
S31508003F50404900209F4F0020984800209A4800209A
S31508003F6008B522F021F9BDE80840FEF73BBB000082
S31508003F7037B5002002F086FE0F4C104D20806946AA
S31508003F80012002F08CFF28466946082201F07CFFD2
S31508003F902946208825F084FF094B0A491A68182300
S31508003FA003FB0020322343748023437522880120B3
S31508003FB002F09CFB03B030BD06300020E44F002021
S31508003FC02C2F0020515B030873B5002002F05AFE1F
S31508003FD0054669460120ADB202F061FF69462846EA
S31508003FE025F05EFF144B06461C68182303FB0044A5
S31508003FF03223637402F0BCFD022808D9022002F0BD
S3150800400041FEE074032002F03DFE207503E0002324
S31508004010E374F0232375802363750849012002F0B1
S315080040202BFB684603F0DEFE054932462B46012087
S3150800403002F05CFB02B070BD2C2F0020685B030801
S31508004040785B0308094B10B51A681C4612B9084B69
S315080040501A7010BD12F00CF9032801D112F03EFDBA
S3150800406021680348BDE8104011F032BAF43B00203D
S31508004070D839002038B5002002F004FE124C206022
S3150800408002F076FD012806D9012002F0FBFD051C89
S3150800409018BF012500E00025236843B1FFF7D2FFCA
S315080040A0094B0A491A68012002F020FB05E0084A74
S315080040B001200849137002F019FB25B1BDE8384004
S315080040C0012027F0E8BF38BDF43B0020925B0308C7
S315080040D0D8390020A75B0308044B01201B780BB1D5
S315080040E0034900E0034902F001BB00BF334A002040
S315080040F0B35B0308C15B030801280CD003284FF003
S31508004100010005D1442903D103499A7802F0EEBA91
S31508004110024902F0EBBA7047D25B0308EA5B030870
S31508004120F8B507460E46002438460821002211F045
S31508004130C3FD68B90C4D04EBC4031D442846394633
S31508004140082201F02FFF18B92B7AFF2B07D102E0BE
S315080041500134202CE8D1054B1B78FF2B02D0337095
S315080041600120F8BD0020F8BD76380020E42E002096
S3150800417070B501281E46BDF810401CD003284FF024
S31508004180010013D1442911D10B4902F075FA002315
S315080041905D1CDBB2A3424FF0010005D2F25C074971
S315080041A002F06AFA2B46F3E7054900E00549BDE83F
S315080041B0704002F09BBA70BDFD5B03087AB603082F
S315080041C0EB8A03080A5C03082DE9F34103281C4619
S315080041D0BDF82070099B3FD15B6A21491B78214AAB
S315080041E013F0010F08BF0A461F4D204903F00203CA
S315080041F003F0FF08002B14BF0B462B460120009343
S315080042001B493B46E61902F071FAB8F1000F0CD0CB
S31508004210294622463B46012002F03CFA294601205F
S3150800422002B0BDE8F04102F061BAB44214D22546A4
S3150800423015F8022B0F49012002F01EFA63780A4985
S315080042402A46012002F026FA01200B4902F04EFA0E
S31508004250637802331C44E8E702B0BDE8F08100BF8A
S31508004260255C03081D5C0308EB8A03082C5C03081D
S31508004270315C03084D5C03084282030807B502F067
S3150800428077FCA8B10DF10701002002F067FD9DF843
S3150800429007200146052A4FF0010004D007490522E8
S315080042A002F024FA06E0064B1870064801F0ECFD09
S315080042B0FEF798F903B05DF804FB00BF545C0308E9
S315080042C0284A00202C50002008B521F061F938B1A1
S315080042D0064B01201A880649BDE8084002F006BACE
S315080042E001200449BDE8084002F000BA3250002017
S315080042F0735C0308855C030830B585B0054602F093
S3150800430037FC022811D10120694602F0E1FD044676
S3150800431030B1002228466946134618F005FE0DE01E
S315080043200849012002F0E2F908E01EF0B3F800227D
S3150800433001461346284618F01FFE0124204605B0FC
S3150800434030BD00BF405B030800B59BB001A8FFF76E
S31508004350D3FFB0B10DF10201002002F031FDBDF826
S315080043600210002210F0E9FA074B0246074901A895
S31508004370169304F075FF10B9FEF734F901E0FEF75D
S3150800438037F91BB05DF804FBF9400008B65C030872
S3150800439030B59BB000200DF1030102F0DFFC0546A5
S315080043A001A8FFF7A9FF10B3124B9DF80300169357
S315080043B088B10021023010F045FA04460FF0A8FE35
S315080043C00D2303709DF80320023000F8012C2946BE
S315080043D001F05AFD00E0044601A80749224604F008
S315080043E03FFF10B9FEF7FEF801E0FEF701F91BB032
S315080043F030BD00BF71410008BB5C030870B586B0CC
S31508004400064602A9002002F063FD20B90D490120E5
S3150800441002F06CF914E0022002F034FC0546032091
S3150800442002F030FC0446042002F02CFC80B2009016
S315080044303146EAB2A3B202A821F0E6FDFEF7D2F8A9
S3150800444006B070BD8258030808B5012002F01AFCB0
S3150800445018B1012303FA00F000E00248BDE808405D
S31508004460FFF7CCBF00F8FF0708B5012002F00AFCE9
S31508004470BDE80840FFF7C2BF30B585B005466946B6
S31508004480002002F025FD20B90B49012002F02EF983
S3150800449010E0022002F0F6FB84B208492A462346B9
S315080044A0012002F023F929462246684620F06AFDD3
S315080044B0FEF798F805B030BD82580308C05C0308BB
S315080044C008B5012002F0DEFB18B1012303FA00F05B
S315080044D000E00248BDE80840FFF7CEBF00F8FF0736
S315080044E008B5012002F0CEFBBDE80840FFF7C4BFBF
S315080044F010B59EB0012005A96422002302F09AFC9B
S315080045006428044604D90C4840F2F771FBF7C6FE46
S31508004510002001A902F0DCFC20B90849012002F0BC
S31508004520E5F806E001A805A9224605F045FEFEF7CE
S3150800453059F81EB010BD00BF5B5A0308825803081D
S3150800454010B59EB0012005A96422002302F072FC72
S315080045506428044604D90C4840F2E471FBF79EFE31
S31508004560002001A902F0B4FC20B90849012002F094
S31508004570BDF806E001A805A9224605F017FEFEF7D4
S3150800458031F81EB010BD00BF5B5A030882580308F5
S3150800459010B59EB0012005A96422002302F04AFC4A
S315080045A06428044604D90C4840F25F71FBF776FE8E
S315080045B0002001A902F08CFC20B90849012002F06C
S315080045C095F806E001A805A9224605F0E9FDFEF7DB
S315080045D009F81EB010BD00BF5B5A030882580308CD
S315080045E02DE9F34102F0C4FA002480462746E3B2D7
S315080045F0434530D260B2694602F051FC00261A4D96
S31508004600082135442846002211F056FB88B10822B5
S315080046102846694601F038FC1449012002F02CF8B6
S31508004620684603F0DFFB0120114902F05FF8012715
S315080046300FE028466946082201F0B4FC0028E6D0B7
S315080046400836B6F5807FDAD101200A49202202F021
S315080046504DF80134CBE71FB10120074902F046F8AF
S3150800466002B0BDE8F08100BFEA3900201E5A0308EF
S31508004670FF5C0308315A0308105D030808B50A4BA6
S315080046801B78033B012B08D813F06CFEBDE80840E5
S3150800469002460649012002F029B801200449BDE86E
S315080046A0084002F023B800BF9A480020305D03088E
S315080046B03C5D03081FB50020694602F009FC18B1E5
S315080046C0684617F0D9FD03E00120034902F00EF809
S315080046D005B05DF804FB00BF405B030870B586B003
S315080046E0002002A902F0F4FB20B91449012001F0C8
S315080046F0FDFF21E0022002F0C5FAD8B1012484406A
S31508004700012002F0BFFA0646032002F0BBFA05466E
S31508004710042002F0B7FA80B20090F1B202A822464D
S31508004720EBB222F085F810B9FDF75CFF04E0FDF75F
S315080047305FFF01E0024CE3E706B070BD825803084C
S3150800474000F8FF072DE9F043002089B002F09AFA35
S315080047508146012002F0C8FA8046022002F092FA49
S315080047600746032002F08EFA0DF1070106460420DB
S3150800477002F0F4FA9DF8073005460F2B88BF0F2381
S315080047804FF0050004A988BF8DF8073002F0A0FB9A
S3150800479068B304A817F070FD184B9DF807401B78FE
S315080047A00BB1174804E002A804210AF06FFF02A81B
S315080047B017F0ECFE11F00CFA5FFA89F00BF0BAFA72
S315080047C04FFA88F011F02AFDF8B2002111F064FCC6
S315080047D0B0B211F007FD2146284614F02DFE04A8B4
S315080047E017F04AFD14F040FC03F054FD03E00120E5
S315080047F0044901F07BFF09B0BDE8F0834049002079
S315080048009F4F0020405B0308014B1878704700BF94
S31508004810E439002002460249012001F067BF00BFC3
S31508004820555D03087047704708B520B1054840F242
S31508004830B921FBF733FD044B00221A70BDE8084086
S31508004840FDF7D0BE5B5A0308D839002007B5FDF737
S315080048509FFFFCF705FB2DF042FB012000220346D3
S315080048600F2101F0FFFC11F01BFE1B4811F060FC44
S315080048701A4811F063FC03F02DFB02F073F918488F
S3150800488010F01AFE1749012001F030FF11F0E9FC7B
S31508004890054611F0E6FC044611F089FC064611F0BF
S315080048A09FFC00960190104901202A46234601F0F4
S315080048B01DFF01200D4901F0DFFEFCF7DFFB11F0BB
S315080048C043FC0B4810F050FE0020012101F022FFA6
S315080048D00028F2D0EDE700BF512600083D27000862
S315080048E0EC3A0020625D0308785D0308A75D0308BB
S315080048F09C6F030808B512480FF0B0FB114803F087
S31508004900CDFE11480FF0AAFB10480FF0B5FB104872
S315080049100FF0B2FB0F480FF0AFFB0F480FF0ACFBE0
S315080049200E480FF0A9FB0E480FF0A6FB0D480FF036
S31508004930A3FB06F007F8BDE808400FF095BB00BFDB
S31508004940AC5D030879400108BA5D0308EA3A00201D
S31508004950E639002096390020E23900207438002014
S31508004960E8390020E039002070B5154604460E46A1
S3150800497003F0FEF9144902462B46012001F0B6FE63
S31508004980042C0BD1032E1ED1104B1B78033B012B95
S3150800499019D82846BDE8704014F0D2BE032C12D1AF
S315080049A00A4B1B78042B0ED1094B1A6812B94FF41F
S315080049B0FA721A60012007491A6801F097FEBDE8E5
S315080049C07040FFF73FBB70BD7D5E03089A48002024
S315080049D0F43B0020925B0308024618B10120024905
S315080049E001F084BE704700BF9B5E03086423037012
S315080049F00120704710B504468EB028B14F492246AB
S31508004A00012001F073FE96E0114601A81A4605F04A
S31508004A1053FB10B901204A498BE00120494901F0AE
S31508004A2065FE019BD80705D501204749029A082348
S31508004A3001F05CFE019B990705D501204349BDF8A5
S31508004A400C2001F053FE019B5A0705D50120404969
S31508004A509DF80E2001F04AFE019B1B0705D5012093
S31508004A603C49BDF8102001F041FE019BDC0606D545
S31508004A70059B01201A1838491B7801F037FE019B5F
S31508004A80980606D5069B01201A1834491B7801F0AA
S31508004A902DFE019B590606D5079B01201A18304999
S31508004AA01B7801F023FE019B1A0606D5089B0120F8
S31508004AB01A182C491B7801F019FE019BDB0506D54F
S31508004AC0099B01201A1828491B7801F00FFE019B43
S31508004AD09C0506D50A9B01201A1824491B7801F063
S31508004AE005FE019B580405D5012021499DF82C2077
S31508004AF001F0FCFD019B190405D501201D49BDF8EF
S31508004B002E2001F0F3FD019BDA0306D50C9B01204C
S31508004B101A1819491B7801F0E9FD019B9B0306D574
S31508004B200D9B01201A1815491B7801F0DFFD144961
S31508004B30012001F0DBFD0EB010BD00BFB45E030816
S31508004B40E55E0308015F03081F5F0308385F030873
S31508004B509B84030809550308495F03085A5F03083D
S31508004B606C5F03087C5F03088D5F0308A35F030877
S31508004B70B95F0308CB5F0308D75F0308E75F03083D
S31508004B8042820308012904D1162802D1002027F001
S31508004B9082BA70470246012012B9034901F0A6BD40
S31508004BA0024901F0A3BD00BFF95F03080B600308C3
S31508004BB00246012012B9034901F098BD024901F0E5
S31508004BC095BD00BF4560030858600308024618B142
S31508004BD00120024901F08ABD704700BF86600308BC
S31508004BE002460249012001F081BD00BFC7600308E3
S31508004BF00A46044B0449002808BF0B46012003490E
S31508004C0001F074BD8963030896630308D560030839
S31508004C1070B50646B2B014460D460120002938D0B4
S31508004C201E4901F063FD1E49012001F025FD04F12E
S31508004C30100003F099F9012001F052FD19490120ED
S31508004C4001F01AFD204603F08FF9012001F048FD16
S31508004C501549628C0120238C01F048FD304629460F
S31508004C606A4604F071FA08B9012012E019A81099E9
S31508004C70BDF8442001F008F9BDF8443032AA1344BF
S31508004C80002203F8642C094919AA012001F02EFD17
S31508004C9002E0074901F02AFD32B070BDF76003084B
S31508004CA00D6103081E6103082E6103086A61030883
S31508004CB04D61030802460B46012009B9024901E085
S31508004CC01A46024901F012BD766103089661030887
S31508004CD00120014901F00ABDD859030870B5059CA1
S31508004CE02DF010F90346626A1149128809780024E2
S31508004CF08C4216DA0F4D35F8140090420FD10E4942
S31508004D00012051F824600D499B1B01F0EFFC00219E
S31508004D1025F814100A48BDE8704010F0D9BB0134D4
S31508004D20E6E701200749BDE8704001F0DFBC00BF97
S31508004D30143C0020683D0020583C0020FC7A0308FB
S31508004D400C3C0020067B03082DE9F04100270446A9
S31508004D503E4600EB0108444527D220461EF012FCC9
S31508004D6023780546032B1ED8DFE803F00A0A020259
S31508004D70E5782646073504EBE5050435002712E0F5
S31508004D808FB986B10A49012001F076FCF178301D09
S31508004D900731C1F3071103F0C7F801200549F27876
S31508004DA001F0A4FC01272C46D5E7BDE8F08100BF39
S31508004DB0207B0308397B0308702808B5024607D10B
S31508004DC011F056FA02F0D4FF07490246012002E024
S31508004DD0012022B10549BDE8084001F087BC044915
S31508004DE0BDE8084001F082BCEF7E0308497B030852
S31508004DF0D8590308FFF7E0BF022808B505D0702880
S31508004E0006D0A0B901200A490DE0012009490AE0A7
S31508004E1011F02EFA02F0ACFFBDE80840024606493A
S31508004E20012001F063BCBDE8084001F05FBC08BD85
S31508004E30D85903089E7B0308AD7B0308024602493E
S31508004E40012001F053BC00BFD97B03080246024982
S31508004E50012001F04BBC00BFF17B03080246024962
S31508004E60012001F043BC00BF097C03080246024941
S31508004E70012001F03BBC00BF237C030808B518B924
S31508004E80BDE80840FFF724BF11F0F2F902F070FF01
S31508004E90BDE8084002460249012001F027BC00BFD0
S31508004EA0A47C030808B518B9BDE80840FFF710BF89
S31508004EB011F0DEF902F05CFFBDE80840024602493F
S31508004EC0012001F013BC00BFA47C030808B518B97B
S31508004ED0BDE80840FFF7FCBE11F0CAF902F048FF2A
S31508004EE0BDE8084002460249012001F0FFBB00BFA9
S31508004EF0A47C030808B518B9BDE80840FFF7E8BE62
S31508004F0011F0B6F902F034FFBDE80840024602493E
S31508004F10012001F0EBBB00BFA47C030808B518B953
S31508004F20BDE80840FFF7D4BE11F0A2F902F020FF51
S31508004F30BDE8084002460249012001F0D7BB00BF80
S31508004F40A47C030808B9FFF7C3BE0120014901F094
S31508004F50CDBB00BF9E7B0308C30707B516D50D4B0F
S31508004F6010F0020F0C490D4A18BF1A4610F0040F2C
S31508004F700B4B08BF0B4610F0080F0A480A4908BF32
S31508004F80014601200091094901F0B0FB03B05DF824
S31508004F9004FB00BF7B980308C27C0308BD7C03089A
S31508004FA065990308EB8A0308C67C0308D57C0308C1
S31508004FB00B7A1BB90120024901F098BB03F0DEB950
S31508004FC0F87C03082DE9FF410A9F8E4615461C46C4
S31508004FD09DF82C6000283AD12B46012021497246BB
S31508004FE001F04AFB651C04F1090815F8012F012098
S31508004FF01D4901F041FB4545F7D121881B4B1C4D46
S3150800500011F0010F14BF2A461A4611F0020F218A21
S315080050104FF001000091E16818BF2B46019194F901
S31508005020121000240291134901F060FBB44215DA0C
S315080050301149012001F020FB07EB0410082102F0BA
S3150800504073FF01200D4901F051FB0134EEE70C49CD
S31508005050012004B0BDE8F04101F048BB04B0BDE84A
S31508005060F08100BF0D7D030807A8030827C20308BF
S31508005070C7630308177D0308467D0308EB8A030800
S315080050804F7D03082E2810B50B460CD8064A074C48
S3150800509052F820200649002A08BF2246BDE81040DB
S315080050A0012001F023BB10BD407A03084997030885
S315080050B0657D030802460249012001F017BB00BFBF
S315080050C0947D0308024608B9FFF702BE012001498C
S315080050D001F00CBB3D7C0308F7B507460E461D4696
S315080050E09DF8204007498DE8140033463A460120CA
S315080050F001F0FCFA2846291903B0BDE8F04003F090
S31508005100B1B900BFA57D030810B5002001F0BAFDAE
S315080051100446012001F0B6FDC1B2E0B2BDE8104078
S315080051201DF074B908B5024610230120034901F0A1
S31508005130B1FABDE80840012001F0D2BAE27D0308C1
S315080051407047704730B5244C99B020460021182284
S3150800515000F021FF0020214601F0BAFE10B9012017
S315080051601E492CE023783BB9684611F0A1F9204680
S3150800517004A9082200F088FE012001F083FDE082E0
S31508005180022001F07FFD80B2B0F5967F124D208295
S3150800519006D913494FF49672012001F0A7FA19E0CF
S315080051A0032001F06FFDEA8A68825AB90D4B197817
S315080051B019B11A7001200C4901E00C49012001F0CF
S315080051C095FA07E00A49012001F090FA05480021FE
S315080051D010F07EF919B030BD363C0020ED7D03088D
S315080051E0007E03082C3C00201F7E0308417E03082E
S315080051F0597E030830B5194BCFB0DA8A1C4662B11E
S31508005200998A914209D100229A82DA82144B154969
S3150800521001201A7001F06AFA1DE003AD4FF4967288
S315080052202846002100F0B7FE238A002291B299424F
S3150800523002D2AA540132F9E741F6907100930A4660
S315080052402B46064823F09DF9A38A05480133618A4F
S31508005250A38210F03DF94FB030BD00BF363C0020A8
S315080052602C3C00206D7E030810B5002001F00AFDD5
S31508005270074A031C18BF0123064C1370064A01206F
S31508005280002B18BF2246BDE81040044901F02EBA8B
S31508005290E52E0020F2650308AF5B03087F7E03084E
S315080052A01FB5002001F0EEFC044669460020A4B2B2
S315080052B011F072F92046694623F06DF9024601207D
S315080052C012B90449224600E0034901F00FFA04B076
S315080052D010BD00BF967E0308AB7E03082DE9F0419A
S315080052E00024A0B020468DF80F4001F0CBFC1FFA31
S315080052F080F8012001F0C6FC04A985B2022001F05D
S31508005300E7FD10B90120324950E0324B1A783AB11C
S31508005310314A012031499482D4821C7001F0E6F9A1
S315080053209DF810303BB908A811F0C2F804A80CA9DA
S31508005330082200F0A9FD0DF10F01032001F00EFD72
S31508005340044601F015FC042809D9042001F09AFC4A
S315080053509DF80F2083B29A4238BF8DF80F0045F2A8
S315080053605E639D429DF80F600ED1032E0CD92CF07A
S31508005370C9FD0746214600203A4610F069FC01207F
S3150800538017493A4601F0B2F92A46009604A841465A
S31508005390234623F0F6F80228024605D0702808D0DE
S315080053A0012072B90F4901E00F49012001F09EF969
S315080053B00AE010F05DFF02F0DBFC0C490246012012
S315080053C000E00B4901F092F920B0BDE8F08100BF7A
S315080053D0ED7D03082C3C0020363C00201F7E030888
S315080053E0BF7E03082D470308CB7E0308E47E030827
S315080053F0107F03082DE9F047984645F25E639A4206
S3150800540081460F461446089EBDF824500FD1032D39
S3150800541018D92CF077FD31468246002010F038FC6A
S31508005420124902465346012001F060F90AE040F2AB
S3150800543023239A4206D108462A463146BDE8F04754
S3150800544005F080B90A4B1B786BB10A49012001F0B7
S3150800545013F9089609954846394622464346BDE853
S31508005460F04702F0C3BDBDE8F08700BF277F0308F9
S31508005470E52E00203F7F030810B5BDF80C400394C5
S31508005480BDE81040FFF7B6BF08B501F0CBFC0378BE
S315080054900020A3F1700253425341224A137001F0CF
S315080054A0F1FB214B21491880012001F011FD28B993
S315080054B0BDE8084001201E4901F018B9022001F094
S315080054C0E1FB1C4B80B2B0F5FA7F188004D90120A5
S315080054D019494FF4FA720BE0032001F0D3FB174B7E
S315080054E0C0B218700138032806D9154901200422CC
S315080054F0BDE8084001F0FAB8124B01221A800021D3
S315080055000822114800F047FD2CF0FCFC0F4B002147
S3150800551018600F4B0F4819800FF0DAFFBDE80840F6
S31508005520FFF7D6BBE62E0020543C0020FA3B0020AD
S31508005530BE5A0308283C0020437F0308143C002079
S315080055405F7F0308263C0020683D0020503C002071
S31508005550F83B00200C3C00202DE9F04F524B00246C
S31508005560ADF5117D1C702CF0CDFC214680464F4EC2
S3150800557041F288353378A34208BF4FF47A754C4B0D
S315080055801B789C4272DADFF864914FEA440A39F8CC
S315080055901420002A48D1474F474BB7F800E01B882C
S315080055A0734561D33178454BE9B10DF1180B58466F
S315080055B011463422059300F0EEFC059B02211B8858
S315080055C0CBF82470ABF8281000933D4BCDF808B003
S315080055D001933C483C4A13AB03F08CFFB0FA80FBBE
S315080055E04FEA5B1B08E01B883648009172464BF26F
S315080055F0FF0123F026F88346BBF1000F06D03B884F
S3150800560029F80A30314B43F8248009E05D463A8888
S3150800561001202F4901F06AF82E4A138801331380B6
S315080056203B8801333B801EE041F28831274B53F813
S315080056302430C3EB08003378002B14BF0B464FF415
S315080056407A7398420BD90120234901F04FF8214A71
S315080056500025138829F80A500133138003E01B1A22
S315080056609D4228BF1D460121013488E721B10E4815
S3150800567029460FF02DFF13E00F4B35781A88174B84
S31508005680174C1968134BC1EB080100911B880120C0
S315080056900193144B1449002D08BF234601F026F840
S315080056A00DF5117DBDE8F08F0C3C0020E62E00209C
S315080056B0143C0020263C0020543C0020283C0020B6
S315080056C0DD4C0008FA3B00208E7F0308583C00207A
S315080056D0957F0308F83B0020A37F0308503C002071
S315080056E058640308897F0308B17F0308683D0020D2
S315080056F0F8B5274A04461378C06B0133137010F0C7
S3150800570099FA0646E06B023010F094FA054694F8CA
S315080057104600012804D11F49BDE8F84000F0E6BF5D
S315080057204BF2FF039E4208D001201B4900F0A4FF5C
S315080057302046BDE8F84002F033BC812826D12CF07B
S31508005740E1FB0346154A00241278944217DA144EF0
S3150800575036F81410A94210D1124A134952F8247087
S3150800576001202A46DB1B00F0C1FF002126F8141091
S315080057700E48BDE8F8400FF0ABBE0134E5E72A460F
S31508005780BDE8F84001200A4900F0B0BFF8BD00BFE7
S31508005790343C0020D37F0308ED7F0308143C002027
S315080057A0683D0020583C0020FC7A03080C3C002089
S315080057B0067B0308024B00221A70FFF789BA00BF5E
S315080057C0343C0020024B012002491A7800F08EBFB3
S315080057D0343C0020F77F0308024608B9FFF778BA79
S315080057E00120014900F082BF3D7C030808B518B9BD
S315080057F0BDE80840FFF76CBA10F03AFD02F0B8FAB7
S31508005800BDE8084002460249012000F06FBF00BF0C
S31508005810A47C030808B518B9BDE80840FFF758BACC
S3150800582010F026FD02F0A4FABDE808400246024937
S31508005830012000F05BBF00BFA47C0308024608B93C
S31508005840FFF746BA0120014900F050BF3D7C030826
S31508005850FFF73EBAFFF73CBA30B5074B074CC0F323
S3150800586009050246002D18BF2346BDE83040012031
S31508005870034900F03BBF00BF96560308935603083A
S315080058801B800308F8B50D460646174611F00701B2
S3150800589018BF012101EBD50401200C4900F0ECFEEC
S315080058A03046C4F3470102F03FFB094B094A012081
S315080058B00949002F08BF1A4600F018FF2FB13046D5
S315080058C02946BDE8F8402DF097BEF8BD508003087C
S315080058D03B8003083F7B03084A800308F8B50D465A
S315080058E00646174611F0070118BF012101EBD5043A
S315080058F00120144900F0C0FE3046C4F3470102F007
S3150800590013FB114B114A01201149002F08BF1A46F3
S3150800591000F0ECFEAFB10F4B1B7863B10E490F4A8E
S315080059201023012000F0B6FE0D49012000F0DEFE2E
S315080059300A48802101E030462946BDE8F84016F0BD
S31508005940E7BBF8BD668003083B8003083F7B030876
S315080059504A800308563C002075800308153C002041
S31508005960EB8A030818B90348FF211DF0DDBDFFF7D0
S31508005970EBB900BF683C0020034618B90846114633
S31508005980FFF7E2B9012002491A4600F0AFBE00BF90
S315080059908F800308FF2B70B506460D46144621D0A6
S315080059A013F00A0F06D113F0140F0F4B0F4A18BF46
S315080059B01A4600E00E4A0F49012000F05DFE304607
S315080059C002F0D2FA3C2C4FF0010004D8BDE8704032
S315080059D0094900F08BBE22462B46BDE870400749B0
S315080059E000F084BE70BD00BFC0800308EB8A0308C0
S315080059F0B8800308C9800308D9800308EF80030824
S31508005A0010B508210022044610F056F928B1BDE861
S31508005A1010400120074900F069BE0749012000F03F
S31508005A202BFE204602F0A0FABDE81040012000F047
S31508005A3057BE00BF2881030875510308024618B1EE
S31508005A400120024900F052BE704700BF3E8103089C
S31508005A5038B50D461346044658B12A46054901206D
S31508005A6000F018FE2246BDE838400120024900F041
S31508005A703DBE38BD75810308B09303082DE9F3418F
S31508005A80099D8E4690469DF820600A9F1C46012077
S31508005A902BB9104902B0BDE8F04100F027BE0E4B05
S31508005AA00E4A0F49BEF1000F08BF1A4600F0E4FD82
S31508005AB04046610802F038FA00970A4932462B46F2
S31508005AC0012000F0D9FD012002B0BDE8F04100F048
S31508005AD007BE00BF9381030896560308935603082A
S31508005AE0AC810308C081030810B5044613B9012028
S31508005AF00C4913E013F00A0F06D113F0140F0A4BE2
S31508005B000A4A18BF1A4600E0094A0A49012000F065
S31508005B10B3FD204602F028FA07490120BDE81040E7
S31508005B2000F0E4BDFE810308F8810308EB81030851
S31508005B30F38103081882030821820308024608B97C
S31508005B40FFF7C6B80120014900F0D0BD3D7C030827
S31508005B502DE9FF4105460E4608460A2227490B9CB1
S31508005B6098462EF0E7FA04F1100780B9284603F0A4
S31508005B7015FA23490246012000F07EFD384602F058
S31508005B80F3F920493246012000F0B0FD27E0284607
S31508005B9003F004FA1C490246042011F0FDF804201B
S31508005BA0394611F0C5F994F8343004200093174BA0
S31508005BB000210193012204F12C03029611F036F913
S31508005BC0BDF8283004200093114B002101930122CF
S31508005BD0434611F02BF904200E4911F0DDF8022D89
S31508005BE008D10022009201920292204644211346CF
S31508005BF003F0ECFE04B0BDE8F08100BF2988030875
S31508005C002582030837820308448203085A82030858
S31508005C106D82030878820308F8B507460C461646CF
S31508005C20012017493A461D4600F026FD04BBAC4242
S31508005C30E3B214D063B15B070AD11249012000F020
S31508005C4055FD0120104900F017FD012000F0C2FAA9
S31508005C50325D01200D4900F00FFD0134E7E7012010
S31508005C6000F0B8FABDE8F8400120064900F03EBD4C
S31508005C702246BDE8F8400120054900F037BD00BFBF
S31508005C8011830308EB8A03082B8303087AB60308F3
S31508005C905183030810B50C4602460849012000F056
S31508005CA0EBFC012024B9BDE81040054900F01EBDF3
S31508005CB02246BDE81040034900F018BD6183030879
S31508005CC06D8303085183030802460B46012009B970
S31508005CD0024901E01A46024900F008BD7A83030822
S31508005CE0878303080246012012B9034900F0FEBC67
S31508005CF0024900F0FBBC00BF9C830308B483030879
S31508005D000246012012B9034900F0F0BC024900F02E
S31508005D10EDBC00BFC9830308E9830308044A054BA1
S31508005D200549002818BF1A46012000F0DFBC00BF4D
S31508005D300E84030806840308178403080246012014
S31508005D4012B9034900F0D2BC024900F0CFBC00BF2B
S31508005D501F8403083584030802460249012000F01F
S31508005D60C5BC00BF488403080246012012B903498E
S31508005D7000F0BCBC024900F0B9BC00BF5A84030855
S31508005D807884030803460A4601200BB9024901E054
S31508005D901A46024900F0AABC93840308A68403089D
S31508005DA00246012012B9034900F0A0BC024900F0DE
S31508005DB09DBC00BFC2840308E184030870B506468B
S31508005DC00C4601200E49154600F056FC86B904EB30
S31508005DD04505AC424FF0010005D00A4934F8022BBC
S31508005DE000F04AFCF5E70849BDE8704000F07EBCC3
S31508005DF03246BDE870400120044900F077BC00BF78
S31508005E00FD84030896D50308EB8A03085183030823
S31508005E100B0A43EA012189B24840C0F30311414005
S31508005E20080380B24840C3B280EA431070470000B6
S31508005E3082B2074B0AB94BF6EF62000C1A8008BF0C
S31508005E404FF6CE22034B14BF18801A80704700BF46
S31508005E50E82E0020EA2E0020094B1888020448BFC5
S31508005E6080F0620042001A80064A1388190444BF6B
S31508005E7083F4805383F00B03590011805840704710
S31508005E80E82E0020EA2E00208842F0B503D8044602
S31508005E900B46154629E0531E1844194404460E4677
S31508005EA097086FF0030507FB05550544043CAC420B
S31508005EB0A6F1040608D033792371F378E370B37832
S31508005EC0A37073786370F1E76FF003037B4302F006
S31508005ED003021944013318448A1A914204D011F86E
S31508005EE0013900F8013DF8E7F0BD032D04F104047B
S31508005EF003F1040312D913F8046C043D04F8046C86
S31508005F0013F8036CADB204F8036C13F8026C04F8CA
S31508005F10026C13F8016C04F8016CE6E793089B0021
S31508005F20194402F00302013B18440A44914204D082
S31508005F3011F8013B00F8013FF8E7F0BD70B50B46D4
S31508005F4004461546032D04F1040403F1040312D98B
S31508005F5013F8046C043D04F8046C13F8036CADB232
S31508005F6004F8036C13F8026C04F8026C13F8016C5D
S31508005F7004F8016CE6E793089B00194402F0030253
S31508005F80013B18440A44914204D011F8013B00F839
S31508005F90013FF8E770BD22B1013A00F8011B92B241
S31508005FA0F9E7704710B5013801395AB110F8013FC1
S31508005FB011F8014FA34202D01A1B90B203E0013A2E
S31508005FC092B2F2E7104600B210BD09F06FBE0000AB
S31508005FD038B5A0F1430305460A2B30D8DFE803F0AD
S31508005FE0060A0A12122F2F2F2F2F3500BDE8384028
S31508005FF02CF0F0BD2CF0BAFD20B12CF0EBFD0028FA
S31508006000FBD138BD114C2078F8B90123443D2370E3
S31508006010FAF748FE032D0BD8DFE805F00E0E050249
S3150800602040F6010001E040F602002BF087FE03E08F
S3150800603007487521FAF732F90023237038BD04485A
S315080060408721BDE83840FAF729B938BD703D0020E8
S315080060503388030870477047002070477047002050
S31508006060704770477047704770470000264B2DE908
S31508006070F0411B5C0446012B42D1244B4F1E53F8BA
S3150800608020504FF0000817F8016F002E32D0204A32
S31508006090AB8832F814209BB293420EDBB8F1000F9E
S315080060A002D02046FBF7A8FD1A4B4FF000081B5DEF
S315080060B0002BECD12220BDE8F0812BF003FFAB8842
S315080060C09BB2002B144B08BF4FF0010833F814108D
S315080060D069B12B883E78EA180133967193FBF1F281
S315080060E001FB12332B80AB8801339BB2AB802BF0BC
S315080060F0E6FEC8E72046FBF77FFD3046BDE8F0819F
S315080061000120BDE8F08100BF82880308402F0020E7
S315080061107A880308768803086E880308284B2DE9D1
S31508006120F0411B5C0546012B0F46144644D1254B0E
S315080061304FF0000853F82060002C37D0224AB38865
S3150800614032F815209BB293420EDBB8F1000F02D04D
S315080061502846FBF751FD1D4B4FF000085B5D002BF1
S31508006160ECD12220BDE8F0812BF0ACFEB3889BB2BF
S31508006170002B174B08BF4FF0010833F8151079B1FB
S31508006180338897F800E0F218013382F806E093FBAB
S31508006190F1F201FB12333380B38801339BB2B3802B
S315080061A0013CE4B22BF08BFE0137C5E72846FBF726
S315080061B023FD2046BDE8F0810120BDE8F08100BF3F
S315080061C082880308402F00207A8803087688030807
S315080061D06E88030808B5074B1B5C012B06D1064BD6
S315080061E053F8202093889BB2002BFBD1FBF746FD82
S315080061F0002008BD82880308402F00200EB477B51A
S31508006200044607AD55F8046BFBF712FD2B460C4800
S3150800621021463246019500F0F7F80A4B1B5D012B23
S3150800622008D1094B53F824309B889BB213B12046FA
S31508006230FBF7E2FC002003B0BDE8704003B07047EE
S31508006240451C000882880308402F002003289FBFAA
S31508006250034B185CB0FA80F0400988BF01207047EC
S31508006260828803082DE9F0470546894690461F4669
S31508006270FFF7ECFF044608BB124B5B5D012B1DD1F3
S31508006280114B53F825602BF01DFEB48034807480C2
S315080062902BF015FE0D4B53F825602BF013FE0C4B17
S315080062A034807480B4805C552BF009FE2846494634
S315080062B042463B46BDE8F047FBF74EBC2120BDE809
S315080062C0F08700BF82880308402F0020302F002067
S315080062D00E4400202DE9F843284B0546884653F816
S315080062E02040FFF7B3FF814600283ED1244F7B5D4F
S315080062F03E467BB1234B33F8152063889A4209D171
S315080063002BF0E0FD7C5D07F805902BF0D8FD2046C4
S31508006310BDE8F8832846FBF721FDA3889BB23BB36B
S31508006320194B33F815701FB32BF0CCFD6388234443
S315080063309B7988F800306388013393FBF7F207FBF3
S3150800634012336380A388013B9BB2A3802BF0B7FD71
S31508006350705D88B14FF6FF720A4B33F815109142FB
S3150800636009D1228823F8152005E00120BDE8F88325
S315080063702620BDE8F8830020BDE8F883302F0020EA
S315080063800E440020804300205E880308104430B580
S31508006390044662B101F00F030A2B34BF30253725B6
S315080063A02B44013A090904F8013DD2B2F1E730BDA0
S315080063B0F0B559B1002806DA2D23B0F1004F137055
S315080063C003D0404201E0002100E0012100231F46DE
S315080063D00C4C002554F82360B042ECB205F10105D7
S315080063E001D3801BF8E704B927B14D1C3034545447
S315080063F00127E9B20133092BEAD130305054481C41
S31508006400C0B2F0BD888803082DE9F04F89B04FF077
S31508006410000A02AC89461746984655462646009015
S315080064203A78002A00F00181252A05D0BAF1000F32
S3150800643006D122700134E6E0BAF1000F00D1013727
S315080064403A78632A6FD01AD8392A0AD8302A80F0BF
S31508006450AF80002A00F0E980252A40F0CF8022701C
S3150800646066E0582A00F09980622A40F0C780D8F87A
S315080064700030D8F804A001934FF0000B32E0702AE0
S3150800648058D00AD8642A05D108F1040AD8F80000B9
S3150800649001217DE06C2A6ED0B0E0752A05D108F19D
S315080064A0040AD8F80000002172E0782A75D0732A09
S315080064B040F0A4803EE0019B2046022213F80B1010
S315080064C0FFF764FF06AA904204460ED20AF1FF328D
S315080064D093453EBF20222270013406AA944212D266
S315080064E00BF1010BD345E6D11AE0841BE4B248460A
S315080064F031462246009B984708B10020A1E0254472
S31508006500EDB23446E2E7A41BE4B2484631462246D9
S31508006510009B98470028F0D12544EDB23446DFE7C2
S3150800652008F108086AE0D8F8002008F10408227083
S31508006530013463E0A41BE4B2484631462246009B78
S3150800654008F1040BD8F800A098470028D5D12C44A8
S31508006550E4B2C5B21AF805300130002BF9D1484625
S3150800656051462A46009B98470028C6D12544EDB2D5
S31508006570D846824656E07B7808F1040A752BD8F887
S31508006580000014BF0121002101D0642B00D101377E
S315080065902246FFF70DFF044408E0204698F800104D
S315080065A00222FFF7F3FE044608F1040AD04625E066
S315080065B0797801F0DF01582923D1322A07F1010A37
S315080065C00AD12046B8F800100422FFF7DFFE08F1CA
S315080065D004070446B84610E0342A12D1D8F80070E9
S315080065E02046390C0422FFF7D1FEB9B20422FFF780
S315080065F0CDFE08F1040B0446D84657464FF0000A6C
S3150800660001E04FF0010A06AA94420CD3A41BE4B297
S31508006610484631462246009B984700287FF46DAFCE
S315080066202544EDB234460137FAE6A41BE4B24846DF
S3150800663031462246009B984700287FF45EAF2C44DB
S31508006640E0B209B0BDE8F08F38B51346084A0446EB
S31508006650125C0D46012A08D121462A460548FFF74D
S31508006660D3FEB0FA80F0400938BD002038BD00BF1F
S31508006670828803081D6100080EB403B503AA52F800
S31508006680041B0192FFF7E0FF02B05DF804EB03B0CC
S31508006690704700002DE9F843804691461F46FFF7EC
S315080066A0E5FC054698B90446BC4210D0DFF82CE054
S315080066B0084B7E1E19F80420B442B8BF73464046FC
S315080066C00549FFF7D9FF01340028EDD005462846CD
S315080066D0BDE8F883EB8A0308AC88030876510308FB
S315080066E00149FFF7C9BF00BFE98A03080EB433B5ED
S315080066F005AA52F8041B05460192FFF7A5FF0446B2
S315080067002846FFF7EDFF204602B0BDE8304003B04B
S31508006710704700002DE9F04F8146884697B000275C
S31508006720B9F1000F0CD15FFA88F00DF11301FFF7EC
S31508006730D1FD88B1262800F0E1810122B04BDAE1CB
S31508006740B8F1000F00F0DA8119F8013B08F1FF38BB
S315080067508DF813301FFA88F8A94C9DF8130094F8A1
S315080067605531A2460D2B84F8550101D10A28D7D0F8
S315080067700D2804D0A0F10A077D427D4100E00125DD
S31508006780A0F120014B424B41A0F12206217872422A
S315080067902F4672410429C3D8DFE811F0050012001C
S315080067A0190026006E01002D59D1002BB7D10AB168
S315080067B0022303E07B280CBF03230123237093E104
S315080067C0002D40F08781002B40F084818CE11AB1BE
S315080067D000238DF8133087E1002D00F0858105230D
S315080067E084F85231012744E194F853B1844EBBF141
S315080067F0FF0B18BF4FF0010B7D2804D1BBF1000F2A
S3150800680000F0688118E001930FF00EFB0F28019B3A
S315080068100FD8BBF1000F09D096F8533100EB0310DF
S31508006820FF238DF8130086F853315DE186F853018E
S3150800683076E7002B7FF474AF052386F8523118E10A
S315080068400133DBB2B2F8501182F84E3102EB430342
S31508006850A3F82E1100231370002D3FF460AF694B87
S31508006860059394F84E31002B00F00381002670B290
S31508006870059C00F087F98246304600F08DF94FF006
S31508006880000B5D46DC4602902268002A53D0137836
S31508006890B3B90F2DA36809D95B48F821CDF80CC008
S315080068A00193F9F7FBFCDDF80CC0019B16AA02EB75
S315080068B085020C34013542F8404CEDB21C462DE0F9
S315080068C05046531E0193019ACAEB000E12F8013F77
S315080068D0B3FA83F10192029A4909964501D109B1A1
S315080068E02FE021B1BCF1000F15D1A44615E010F830
S315080068F0011BA1F1410EBEF1190F98BF2031A3F17A
S31508006900410E98BFC9B2BEF1190F9CBF2033DBB246
S315080069109942D8D001E04FF0010B0C342368002BC4
S31508006920B2D1002DB0D0013DEDB216AB03EB850315
S3150800693053F8404CA8E7BBF1000F0CBF6046002097
S3150800694000E0204605902E4C08B9022312E094F880
S3150800695054310136013305A9C4F85801F6B284F852
S31508006960543100F0B7FA40B194F84E31B3423FF6CD
S315080069707EAF032384F8523175E0059B9B681B782C
S315080069803F2B70D0834605465FFA8BF2931994F82D
S315080069904E01DBB298421A49059B5DD99B681046A1
S315080069A013F805A00192029100F012F9BAF1730FDB
S315080069B0019A0AD8BAF1710F0BD20299BAF1000FEF
S315080069C034D0BAF1620F2BD034E0AAF17503022B4A
S315080069D030D8BAF1750F0DD0BAF1760F0DD0BAF1DD
S315080069E0730F13D0BAF1720F47F6FF7A18BF4FF03C
S315080069F0FF3A0DE04FF0FF0A0AE04FF6FF7A07E08C
S31508006A00A44D0020CC6F0308B18803084FF07F0A15
S31508006A101046012100F0EAF850450ED904230AE091
S31508006A2022280AD07B2808D0052300E0032381F812
S31508006A30523102E0072384F85231059B0BF1010B12
S31508006A409B682B445B782A2B94F852311CBF01357E
S31508006A50EDB2002B98D006E09B685A5D1AB11D442A
S31508006A606B782A2B85D194F8523113B9059B5B684C
S31508006A709847244B04221A70002F3FF451AE214C3C
S31508006A8094F8520118B1D4F8581100F0B1FA00F090
S31508006A9053F89DF8133084F8553141E619780129E1
S31508006AA009D19DF81330A3F1410019289CBF203362
S31508006AB0DBB28DF813309DF813309244022902F1A7
S31508006AC001028AF80130A4F850217FF429AE002B80
S31508006AD07FF426AE94F84E310A4A0F2B7FF4B0AEF7
S31508006AE0032382F85231C4E7B4F85021054BB2F5B6
S31508006AF0967FD3D1062283F85221BAE7384617B0D3
S31508006B00BDE8F08FA44D0020FF22002380F8532112
S31508006B100A220370A0F85031A0F82E3180F84E31C1
S31508006B2080F8523180F85431C0F8583180F856212F
S31508006B3080F8553170470000094B0022FF211A7072
S31508006B40A3F85021A3F82E2183F84E2183F8522169
S31508006B5083F8531183F85421C3F85821704700BFAE
S31508006B60A44D00200148FFF7CFBF00BFA44D002069
S31508006B70034A92F84E3192F85401181AC0B2704777
S31508006B80A44D0020034B03EB4000B0F82E01184437
S31508006B9001307047A44D0020054B03EB4002134615
S31508006BA092F8302193F82E01101AC0B2704700BF30
S31508006BB0A44D0020054B03EB40021346B2F83021E2
S31508006BC0B3F82E01101A80B2704700BFA44D0020FA
S31508006BD0054A92F85431184440B202EB4000B0F826
S31508006BE02E31134458787047A44D00202DE9F047FC
S31508006BF00446224D0E4695F854012044C0B243B2CD
S31508006C0005EB4303B3F82E71FFF7C6FF8146FFF77E
S31508006C10AFFF2F44844207F1010795F8568103D345
S31508006C201748CB21F9F73AFB4FF0000A54465FFAAA
S31508006C308AF34B451FD217F80A0016B10BB92D284F
S31508006C4016D000F0DF02582A03D114B9013B012BF4
S31508006C500CD90FF0E9F8404502D204FB080407E016
S31508006C60052385F852310020BDE8F0874FF010085B
S31508006C700AF1010ADBE72046BDE8F087A44D0020AB
S31508006C80C888030838B5164C054694F85631FF2BC4
S31508006C9020D1FFF781FF6DB204EB4505B5F82E311B
S31508006CA001281C4404F1010101D1607838BD02288D
S31508006CB003D108460EF0BEFF38BD042804D1BDE84E
S31508006CC0384000200EF0E4BF0648EF21F9F7E6FA4F
S31508006CD0002038BD0021BDE83840FFF787BF00BF58
S31508006CE0A44D0020C888030838B51A4C054694F800
S31508006CF05631FF2B21D1FFF74FFF6DB204EB450547
S31508006D00B5F82E3101281C4404F10101647812D02B
S31508006D10022804D108460EF08DFF00B238BD0428BB
S31508006D2004D1BDE8384000200EF0B2BF0A484FF43F
S31508006D308571F9F7B3FA60B238BDFFF749FFA0F1DC
S31508006D402D035C425C4128462146FFF74FFF04B1FC
S31508006D50404238BDA44D0020C8880308F8B5174B33
S31508006D60044693F856210D46FF2A1E460CD121B13A
S31508006D70C0B2FFF711FF0138287006EB4404B4F8D7
S31508006D802E0130440230F8BD93F854012044E44300
S31508006D90C0B242B203EB4202B2F82E21E40F13440A
S31508006DA05E785F1CA6F122035E425E4121B1FFF7C1
S31508006DB0F3FE001B801B28703819F8BDA44D00206F
S31508006DC0F8B5174B044693F856210D46FF2A1E467A
S31508006DD00CD121B1C0B2FFF7EDFE0238288006EBD0
S31508006DE04404B4F82E0130440330F8BD93F8540136
S31508006DF02044E443C0B242B203EB4202B2F82E2169
S31508006E00E40F13445E785F1CA6F122035E425E41DE
S31508006E1021B1FFF7CFFE001B801B28803819F8BD6B
S31508006E20A44D0020024BD3F858311868704700BFAC
S31508006E30A44D00202DE9F3410D460DF10701174633
S31508006E4080461C46FFF78AFF06465FFA88F0FFF77A
S31508006E50BFFEA0F12203D3F100089DF8071048EB06
S31508006E6003084144C9B2B94228BF39468DF807100C
S31508006E7014B1CCB23C1BE4B2284622460021FFF7E7
S31508006E808AF8281931469DF80720FEF7FDFF9DF878
S31508006E900700C8EB0000C0B202B0BDE8F08113B528
S31508006EA00C46012369460822FFF7C4FF20466946B7
S31508006EB008220EF00FFF02B010BD10B50C4640B206
S31508006EC00021FFF74BFF2146BDE8104015F08ABCAC
S31508006ED0FFF7F3BF426808B5836812B90B60012053
S31508006EE008BD1B786E2B04D103484FF4D371F9F70C
S31508006EF0D5F9002008BD00BFC888030838B505467F
S31508006F0084681C4901202A68FFF7B6FB6B680BB139
S31508006F10013C18E018490120FFF7AEFB24E0752A6A
S31508006F2016D0762A16D0772A16D0732A16D0622A51
S31508006F3016D06E2A16D01149114B2A2A08BF1946AF
S31508006F400120FFF799FB14F8012F002AE7D10BE07F
S31508006F500C49F5E70C49F3E70C49F1E70C49EFE76B
S31508006F600C49EDE70C49EBE701200C49BDE8384030
S31508006F70FFF782BB1C8403083C8903084089030881
S31508006F804389030810890308048903081B89030831
S31508006F9027890308318903083B890308E98A030816
S31508006FA013B50446FFF7AAFF204601A9FFF792FF8B
S31508006FB068B1019B1B6853B106490120FFF75CFBCA
S31508006FC00198FFF79BFF019B0C330193F1E702B091
S31508006FD010BD00BF7551030808B501200349FFF726
S31508006FE04BFBBDE808400120FFF7F4B846890308C3
S31508006FF0024610B50C46094B0120094953F82220D0
S31508007000FFF73AFB44B101200649FFF735FB204656
S31508007010BDE81040FFF7C4BF10BD00BFE4880308F1
S31508007020588A0308648A030810B501200A49FFF73D
S3150800703023FB0A4C636823B12046FFF7B1FF0C34E3
S31508007040F8E7A368002BF7D101200549FFF714FBE1
S31508007050BDE81040FFF7C0BFDB8A0308CC6F030802
S31508007060E98A03082DE9F0430020A5B0FFF70AFED8
S3150800707081460120FFF738FE80460320FFF702FE0F
S315080070800DF11F0107460420FFF768FE044602209B
S31508007090FFF7F8FDC6B206F0FB03022B06D023491C
S315080070A0022206230120FFF721FB3CE09DF81F3052
S315080070B0102B0FD910220CA821468DF81F20FEF799
S315080070C0E3FE00238DF840300120194922460CAB17
S315080070D0FFF70CFB08AD05202946FFF7F9FE10B3AC
S315080070E0FFF746FD062809D914A906200822002319
S315080070F0FFF7A0FE0CA8042111F052FF9DF81F30DF
S315080071000295009300230193039504965FFA89F08C
S315080071104FFA88F1BAB2234612F0A4F918B9012039
S315080071200449FFF7E3FA25B0BDE8F083EC8A0308C3
S31508007130198B0308538B030807B500206946FFF728
S31508007140AEFE68460EF060FD06490120FFF794FA88
S31508007150054800F047FE0120FFF7C2FA03B05DF8C4
S3150800716004FB00BF768B0308974F002008B50CF088
S315080071701FFFBDE80840024601490120FFF7B6BADD
S315080071807F8B030821F02ABD2E280AD8054A32F833
S31508007190103019444FF6FF73994228BF194622F852
S315080071A010107047984400202E2810B5044603D9BD
S315080071B003482321F9F772F8024B33F8140010BD7F
S315080071C0A28B0308984400202E289EBF024B00225B
S315080071D023F81020704700BF98440020FF2838B5D0
S315080071E0084D09D10024E0B235F814100134FDF732
S315080071F049FF2F2CF7D138BD35F81010BDE83840B7
S31508007200FDF740BF98440020024800215E22FEF7A1
S31508007210C2BE00BF9844002001200149FFF766BAA4
S31508007220D859030810B50446817B86B0828903893C
S31508007230009141690191C17B0291017C0391817A98
S31508007240012004910749FFF717FA07492246082340
S315080072500120FFF71FFA0120FFF742FA002006B0C7
S3150800726010BD00BFB68B0308C0D80308024610B588
S3150800727001201C465AB90849FFF7FEF9204600F0D6
S3150800728073FEBDE8104001200449FFF72FBA0449F0
S31508007290BDE81040FFF72ABAF18B0308EB8A03080A
S315080072A0FE8B030810B50020FFF7ECFCC0B210B146
S315080072B00124844000E0084CFFF75AFC012804D951
S315080072C00120FFF7DFFCC2B200E005222146BDE837
S315080072D0104000200BF0C4BE00F8FF0710B50020D0
S315080072E0FFF7D0FCC0B210B10124844000E0084C7E
S315080072F0FFF73EFC012804D90120FFF7C3FCC2B200
S3150800730000E005222146BDE8104001200BF0A8BE8A
S3150800731000F8FF0708B501200349FFF7E7F9BDE8BC
S3150800732008400CF01DB800BF0D8C030807B50020F7
S315080073300DF10701FFF712FD9DF807101EF034FE48
S3150800734003B05DF804FB10B50020FFF79BFC04466C
S315080073500120FFF797FCC1B2E0B21EF08DFDBDE833
S315080073601040FFF759BF07B500206946FFF797FD9C
S3150800737068461EF09BFDFFF74FFF03B05DF804FB60
S3150800738008B51EF0D5FDBDE80840FFF745BF08B5AE
S315080073901EF09CF9BDE80840FFF73EBF2DE9F0470F
S315080073A08CB00DF11D010220FFF7D8FC9DF81D30A9
S315080073B00DF11E01102B88BF102307464FF004005D
S315080073C088BF8DF81D30FFF7C9FC0DF11F018146F6
S315080073D00520FFF7C3FC8046FFF7CAFB06280CD931
S315080073E00620FFF74FFC86B2FFF7C2FB072808D92D
S315080073F00720FFF747FC044604E000244FF6FF7613
S3150800740000E000249DF81F30102B1CD108AD032086
S315080074102946FFF75DFDB0B10020FFF733FC824631
S315080074200120FFF72FFC9DF81D30014600960195B7
S31508007430CDF80890CDF80C8004945FFA8AF03A46A5
S3150800744012F0F0F803E001200249FFF74FF90CB0FB
S31508007450BDE8F0871E8C030870B59CB00EF008FFD7
S3150800746058B9012011F026FF36490120364AFFF7A0
S315080074703DF93548082127F0E5FF00211022684626
S315080074802CF0F0FC0020FFF7FDFBC6B216B1012573
S31508007490B54000E02D4D00215E2204A8FEF77BFDD5
S315080074A00120FFF721FC8DF83C000220FFF7EAFBDC
S315080074B000238DF83B0004A910220320FFF7BAFC2D
S315080074C004A910226846FEF76DFD00280CBF30247B
S315080074D03124FFF74DFB042805D9042008A9FFF736
S315080074E0F7FC44F00204FFF743FB052805D90520FD
S315080074F00AA9FFF7EDFC44F080049DF83B30012013
S3150800750003F07B03022B03D01149FFF7EFF817E0CE
S315080075101049FFF7B1F8104B10490120002E18BF8B
S315080075201946FFF7A9F80E490120FFF7A5F82AF032
S31508007530FCFC0C4B214618802A4604A811F04AFD8B
S315080075401CB070BD3E8C0308AD8B030800F8FF071E
S315080075506A8C03087C8C0308EB8A0308318C0308C1
S31508007560978C0308004F002038B52AF0DEFC0F4B35
S315080075701880FFF7FDFA022806D90220FFF782FBDA
S31508007580041C18BF012400E000240020FFF7ACFB10
S3150800759005460120FFF776FB2246C1B268B212F013
S315080075A0D1F9BDE83840FFF737BE00BF004F0020CD
S315080075B030B59DB00021102268462CF053FC0020FF
S315080075C0FFF760FBC4B214B10125A54000E0304DB9
S315080075D000215E2204A8FEF7DEFC01208DF83A4061
S315080075E0FFF782FB8DF83C000220FFF74BFB0023D8
S315080075F08DF83B0004A910220320FFF71BFC04A901
S3150800760010226846FEF7CEFC0CA900284FF00802A7
S315080076104FF004004FF000030CBF30243124FFF76D
S3150800762009FC68460CA90822FEF7BCFC08B144F020
S3150800763004040520FFF726FB4FF6FF7380B2984235
S31508007640ADF838000DF16D014FF0060018BF44F093
S315080076500804FFF783FB9DF86D200146202A04D90C
S315080076600C490120FFF742F80FE02AB10DF14D0051
S3150800767044F48074FEF708FC2AF057FC064B2146B2
S3150800768018802A4604A812F099F91DB030BD00BF2B
S3150800769000F8FF07A28C0308004F00201FB5002042
S315080076A00DF10701FFF75AFB9DF807300446202B1A
S315080076B004D90B490120FFF719F80FE0FFF758FA2C
S315080076C0022805D1012002A9FFF7E9FB02A800E07C
S315080076D0002021469DF8072027F050FE04B010BD73
S315080076E0A28C030808B50020FFF7CCFA431E5842BF
S315080076F05841BDE8084011F0DDBD1FB500206946B8
S3150800770010220346FFF796FB0146684627F09AFEC5
S3150800771005B05DF804FB08B50020FFF7B3FABDE82D
S315080077200840C0B20FF05ABA08B52AF0FEFB034B60
S315080077301880BDE808400FF01FB900BF004F0020B1
S315080077400FF0CAB82DE9F041002086B0FFF79AFA83
S3150800775084B2FF2C03D062061CBF2402A4B2012007
S31508007760FFF790FA0DF1170110F100084FF002002B
S3150800777018BF4FF00108FFF7F1FA9DF817300746D2
S31508007780102B88BF10234FF0030088BF8DF81730E1
S31508007790FFF778FA05460420FFF774FA06469DF8BF
S315080077A017300022002B4FEAC3038DE8640003F06C
S315080077B0F80318BF3A462046414623F065FF9DF870
S315080077C01730082B06D1230504D5384631462A46F4
S315080077D002F094FFFFF720FD06B0BDE8F081000037
S315080077E037B500200DF10701FFF7B8FA9DF8073005
S315080077F00546082B4FF001000DD1FFF743FA044662
S315080078000220FFF73FFA22460146284602F076FF95
S31508007810FFF702FD02E00249FEF768FF03B030BD3C
S31508007820B48C030800B58DB002200DF10701FFF7EF
S3150800783095FA9DF8070008B9014619E0002002A943
S31508007840FFF746FBB8B106A800211822FEF7A3FBEE
S3150800785019238DF8183003238DF8193008A8012349
S3150800786002A910228DF81C30FEF70EFB06A8182177
S3150800787024F008FA03E001200249FEF737FF0DB0AD
S315080078805DF804FBD68C030830B5002085B0FFF7F9
S31508007890F9F90DF10F01C4B20120FFF75FFA9DF85F
S315080078A00F300546082B84BF08238DF80F30FFF7E5
S315080078B05FF9022806D90220FFF7E4F9011C18BF70
S315080078C0012103E004F0010181F001019DF80F3068
S315080078D00022DB00009220462A4603F0F80323F034
S315080078E083FFFFF799FC05B030BD07B500200DF101
S315080078F00701FFF733FA9DF8071024F0C3F903B020
S315080079005DF804FB07B500200DF10701FFF726FA1D
S315080079109DF8071023F0AEFF03B05DF804FB08B529
S3150800792000F0B8FCBDE80840FFF776BC08B50120B2
S315080079300349FEF7DBFEBDE808400EF0A3BE00BF14
S31508007940088D030807B50B490120FEF7CFFEFFF7A0
S315080079500FF9014648B10DF107010020FFF7FEF9BE
S315080079609DF80710C90001F0F8010EF04BFE03B0B0
S315080079705DF804FB2E8D030808B501200349FEF7C0
S31508007980B5FEBDE8084002F0C1BF00BF558D03082B
S315080079901FB500206946FFF79BFA18B1684614F030
S315080079A0E8FB03E001200349FEF7A0FE05B05DF8F9
S315080079B004FB00BFD68C030808B5FFF7D9F820B139
S315080079C00020FFF75FF9C0B200E0FF20BDE80840DD
S315080079D010F046BB08B5FFF7CBF820B10020FFF73B
S315080079E051F9C0B200E0FF20BDE808400EF076BEAF
S315080079F008B5FFF7BDF808B9FF2003E00020FFF738
S31508007A0041F9C0B2BDE80840FFF7E8BB08B5FFF783
S31508007A10FBFBBDE80840FFF7FFBB0EF063BF0000A5
S31508007A20F0B5002187B04FF0FF30FFF797F92149ED
S31508007A300B222CF07FFB02A900284FF000000CBF98
S31508007A4020270027FFF744FA10B901201A492DE02C
S31508007A50FFF78EF8012817D9FFF78AF805284FF09F
S31508007A60010001D0154921E0FFF70CF986B2022082
S31508007A70FFF708F985B20320FFF704F984B204205A
S31508007A80FFF700F980B205E00020044641F23425EC
S31508007A904AF6CD36C0B28DE88100314602A82A469C
S31508007AA0234620F07AFD18B905490120FEF71EFE87
S31508007AB007B0F0BD648D0308BE5A0308708D03082D
S31508007AC0DF5A0308044A054B0549002818BF1A4619
S31508007AD00120FEF70BBE00BFA48D0308039C030814
S31508007AE0A78D030800B500209BB06422034601A9B0
S31508007AF0FFF7A0F981B201A81DF0A0F8FFF78CFBEB
S31508007B001BB05DF804FB000070B501200B491E464A
S31508007B10BDF81040FEF7B0FD00235D1CDBB2A342A2
S31508007B204FF0010005D2F25C0549FEF7A5FD2B468C
S31508007B30F3E70449BDE87040FEF7D8BDBA8D0308DF
S31508007B407AB60308EB8A030810B588B001A90120A4
S31508007B500A220023FFF76EF904A904460020FFF75E
S31508007B60B7F910B9012008490AE004A801A9224674
S31508007B7002F028FB10B9FFF74FFB03E00349012089
S31508007B80FEF7B4FD08B010BD825803089C7F0308B1
S31508007B9000F092BA08B50020FFF774F8BDE808406F
S31508007BA0C0B20EF0A1BE13B50020FFF76BF80DF1B9
S31508007BB0070104460120FFF7D1F89DF80720014682
S31508007BC0E0B20EF0A1FE02B010BD0EF0CDBE08B5B3
S31508007BD00020FFF757F8BDE8084080B20EF0C8BE8F
S31508007BE008B50020FFF74EF8BDE80840003018BF7A
S31508007BF001200FF03BB80FF040B808B50020FFF79A
S31508007C0041F8BDE80840003018BF01200FF03CB825
S31508007C100FF041B808B50020FFF734F8BDE8084072
S31508007C200FF040B80FF045B808B50020FFF72AF85E
S31508007C30BDE80840C0B20FF045B808B50020FFF708
S31508007C4021F8BDE80840C0B20FF043B810B588B0B7
S31508007C500DF10F010020FFF781F804A90446012061
S31508007C60FFF736F910B901200A490FE000230093FF
S31508007C7001939DF80F10204604AA074B23F0CAF972
S31508007C8010B90120054901E005490120FEF72EFD3E
S31508007C9008B010BDD68C03086D720008D8590308C1
S31508007CA0ED8D030808B5012022F032FDBDE8084035
S31508007CB0FFF7B2BA37B500200DF10701FFF74EF806
S31508007CC005460120FEF7DEFF84B22246044901205C
S31508007CD0FEF70CFD2846214620F006FC03B030BD11
S31508007CE0B08E030808B501200349FEF7FFFCBDE87E
S31508007CF0084020F00ABC00BFCA8E030808B5002257
S31508007D001346044804490DF0CDF8BDE80840FFF7CE
S31508007D1083BA00BF1E310020257200087FB50020F7
S31508007D2002A9FFF7D5F830B90DF10601FFF716F8E5
S31508007D3020F0F2FB17E002A880210DF105021AF0E7
S31508007D4019F860B19DF8050004A90DF10602002393
S31508007D5020F036FBBDF80600FDF77EFD03E00120A6
S31508007D600249FEF7C3FC07B05DF804FBE48E03087E
S31508007D70052808B505D905483421F8F78FFA0020F3
S31508007D8008BD034B53F8200008BD00BF1C8F03082D
S31508007D904C93030800F07F00072808B505D9054865
S31508007DA04621F8F77BFA002008BD034B53F820005C
S31508007DB008BD00BF1C8F03082C9303087FB5014636
S31508007DC0102201A8FEF760F80023054901AA012040
S31508007DD08DF81430FEF750FC07B05DF804FB00BFC1
S31508007DE01C84030838B5084905460120FEF744FCFB
S31508007DF005F1080414F8012D01200449FEF73CFC9E
S31508007E00AC42F7D138BD00BFA557030807A8030839
S31508007E1003460449B3F842200120B3F84430FEF77C
S31508007E202BBC00BF2E8F030810B590F846200446D9
S31508007E30812A05D00649074B802A08BF194600E063
S31508007E40054994F847300120BDE81040FEF714BCF8
S31508007E503E8F03085D8F03084D8F030870B50D46E6
S31508007E6004460B490120FEF707FC013D661E2C441B
S31508007E70A6424FF0010005D0064916F8012FFEF775
S31508007E80FBFBF5E70449BDE87040FEF7F5BB00BF0C
S31508007E90525C030807A803084282030838B50A4952
S31508007EA004460120FEF7E8FB651E073415F8012F86
S31508007EB001200649FEF7E0FBA542F7D1BDE83840A8
S31508007EC001200349FEF7D8BBF88F030807A8030863
S31508007ED0728F030810B5F9F795F812490246012082
S31508007EE0FEF704FCF8F7CEFE40F2A173012202FA6F
S31508007EF000F10B40ABB11046F8F7CCFBF8F7C8FE1B
S31508007F000446F8F7CBFE40F201739C4201D10368A0
S31508007F103BB10120F8F766FCBDE810400120F8F7F0
S31508007F209BBD10BD7E8F0308F8B506460D46002496
S31508007F30AC4212D006EB44000DF07CFE074F084A0F
S31508007F405FFA84FE034607490120BEF1000F18BFF9
S31508007F503A46FEF791FB0134EAE7F8BD4F8303087A
S31508007F60EB8A0308888F03080821FFF7DDBF0000A6
S31508007F7010B5044608490120FEF77EFB04F10B0004
S31508007F80FFF7F2FF01200549FEF776FB04F11B0017
S31508007F90BDE81040FFF7E8BF8E8F0308918F0308EE
S31508007FA010B50446FFF7E4FF01200F49FEF764FB0E
S31508007FB094F83030112B05D03A2B06D12046FFF71E
S31508007FC033FF02E02046FFF723FF07490120FEF7AB
S31508007FD053FBE06BB4F84010FFF740FFBDE81040D4
S31508007FE00120FEF77DBB00BF765103082DE9F84353
S31508007FF08146884617461E4611490120089DBDF848
S315080080002440FEF739FB0F490120FEF735FB4846A9
S31508008010FFF7AAFF0C490120FEF72EFB4046FFF7A3
S31508008020A3FF3A46334609490120FEF725FB2846B1
S315080080302146FFF713FFBDE8F8430120FEF750BBC2
S31508008040958F03089A8F03085CB40308A08F03086A
S315080080501FB5002069460EF09FFA48B1064901206F
S31508008060FEF70AFB6846FFF77FFF0120FEF738FB9D
S3150800807005B05DF804FB00BF4690030807B5042168
S31508008080FFF752FF0A490120FEF7F6FA684608226A
S3150800809008490DF01FFE9DF80030684683F002037C
S315080080A004218DF80030FFF73FFF03B05DF804FBAD
S315080080B04F830308974F002030B59DB004A80EF0F3
S315080080C0F7F99DF83B3023F08003062B05D19DF880
S315080080D03B30062B40F0968096E05E490120FEF77D
S315080080E0CBFA042108A8FFF71FFF0120FEF7F8FACC
S315080080F0FFF7AEFF58490120FEF7BEFA0EF0B8F8B2
S3150800810001280AD1002300930193684605217F229E
S315080081100823F9F777FC684600E05048FFF7BEFEEB
S315080081200120FEF7DDFA01204D49FEF7A5FA4D4C70
S31508008130A4F1080514F8012901204B49FEF79CFA19
S31508008140AC42F7D149490120FEF796FA0120FEF71D
S31508008150C7FA9DF83B30062B01D01A0614D54449B8
S315080081600120FEF789FA04210AA8FFF7DDFE01209F
S31508008170FEF7B6FA3F490120FEF77EFA0AA8FFF78E
S315080081807DFF0120FEF7ACFA0EF011F804460EF05A
S315080081906FF8012809D10023009368460C217F2235
S315080081A00423F9F72FFCBDF800402046694614F071
S315080081B02DFA48B130490120FEF75EFA6846FFF706
S315080081C0D3FE0120FEF78CFA0024E5B2284669465C
S315080081D00EF0E2F900283AD014B90120274905E043
S315080081E0012D07BF2846264926490120FEF744FAED
S315080081F06846FFF7B9FE01340120FEF771FA0A2C2A
S31508008200E3D164E71B0622D51F490120FEF734FA9D
S3150800821004210AA8FFF788FE0120FEF761FA1B4928
S315080082200120FEF729FA0AA8FFF728FF0120FEF722
S3150800823057FA17490120FEF71FFA694601200EF082
S31508008240ABF96846FFF790FE0120FEF749FA1DB024
S3150800825030BD00BF32900308CF8F0308F04F0020CF
S31508008260E78F03089E4F002007A80308728F0308AC
S31508008270FA8F03080A900308169003082490030847
S315080082805A9003081A8203082B9003083F900308A4
S315080082905390030810B598B00DF0EAFF04466846F7
S315080082A00EF006F92046FFF763FD2B49024601202A
S315080082B0FEF71CFA29490120FEF7DEF90DF0D4FF76
S315080082C0FFF790FD0120FEF70BFA002C42D0244957
S315080082D00120FEF7D1F96846FFF770FD0120FEF789
S315080082E0FFF99DF82B00FFF755FD1E4902460120B0
S315080082F0FEF7C2F99DF82B3023F08002062A08D033
S31508008300062B01D01B0604D517490120FEF7EEF906
S3150800831002E00120FEF7E4F914490120FEF7ACF962
S3150800832008A8FFF7BBFD0120FEF7DAF91049BDF8EA
S3150800833028200120FEF7DAF90E499DF82A200120A7
S31508008340FEF7D4F90C499DF92C200120FEF7CEF949
S31508008350FFF7B2FE18B010BD6190030874900308C9
S315080083607C90030889900308979003089F90030858
S31508008370B190030863AC0308BF9003082DE9F041E8
S315080083800D460B7B4A7BC97A86B0064669B12C46F0
S3150800839014F8083F022B34D12B493246012095F8B0
S315080083A00C806F7BFEF768F90DE0A97A0029EED1FB
S315080083B0002BECD1002AEAD1284608210DF07CFCD6
S315080083C00028E4D03CE014F8012D01201F49FEF7EF
S315080083D053F9AC42F7D1A67B1D481E4994F90950BA
S315080083E0002E18BF0146A27AE37ACDF800800197DD
S315080083F002950391E17B012004911749FEF776F96E
S315080084001EE0012015493246FEF736F914F8012D0B
S3150800841001200E49FEF730F9AC42F7D1A67B0C488D
S315080084200C4994F90950002E18BF0146227B637B3C
S3150800843000950191E17B012002910949FEF756F961
S3150800844006B0BDE8F08100BF3891030807A8030805
S31508008450C7630308EE900308F090030831910308F8
S315080084600C9103082DE9F84305468846454555D23B
S3150800847028462C7819F07EFD64080646284619F029
S3150800848073FD3CB1012C05D0022C03D0032C01D07E
S31508008490042C11D1224B2F1803EBC4032149224681
S315080084A05B68F6B20120FEF7E7F801201E4932465E
S315080084B0FEF7E2F8B94606E01C484FF41671BDE827
S315080084C0F843F7F7EBBEC7EB0903DBB2B3420CD2AE
S315080084D0DFF86CE0164A1749002B08BF72460120E0
S315080084E019F8013BFEF7C8F8EDE7012C0FD1124940
S315080084F02046FEF7C1F8E878B919073005EBE00021
S315080085000430FFF7AFFF20460C49FEF7B5F8012007
S315080085100B490236FEF7EAF83544A7E7BDE8F883C3
S31508008520F48E03086591030882CA03081C8F0308A2
S31508008530765103086D910308729103088291030826
S31508008540EB8A030813B501A820F008FA20B91449E4
S315080085500120FEF7CBF820E00021019820F042FA2E
S315080085600446019A0F490120FEF786F82046102195
S31508008570FFF774FC0120FEF7B3F80021019820F0FC
S3150800858035FA044608490120FEF776F820461021F8
S31508008590FFF764FC0120FEF7A3F802B010BD00BF88
S315080085A064930308739303089493030813B5002090
S315080085B0FEF768FBC4B2204607F0BCFB04490090EE
S315080085C0224623460120FEF791F802B010BD00BFEF
S315080085D09E93030808B50020FEF754FB80B20DF001
S315080085E001FE0DF0FDFDBDE80840024601490120E7
S315080085F0FEF77CB89A5D0308F7B54FF0FF300DF12A
S315080086000701FEF7ABFB07460026B4B20C2363430B
S315080086101C4AD558002D32D028460DF091FB9DF8FE
S315080086200720824229D128463946FDF7BBFC20BBE4
S31508008630FEF728FB003018BF0120082C09D8124B7A
S31508008640124A53F824301870114B002818BF1346E5
S315080086500DE0104A093C0121A140138818B11943BD
S3150800866011800A4B03E023EA0101094B11800A49EC
S315080086702A460120FEF73AF801E00136C5E703B0BD
S31508008680F0BD00BFC0930308B4960308F26503085B
S31508008690AF5B030898480020509403080346014836
S315080086A0184700BFF644002008B50020FEF7EAFA8E
S315080086B00021C0B20DF0F0FC054B01201A78054BDD
S315080086C0054953F82220BDE80840FEF70FB800BF59
S315080086D09A480020D8960308579403087FB50020C7
S315080086E0FEF7D0FA02A980B213F090FF10B9012064
S315080086F009490BE00023009302A84AF6CD3141F25E
S3150800870034221FF09EFF18B904490120FDF7EEFF39
S3150800871007B05DF804FB00BF64940308DF5A03083A
S315080087202DE9F34100200DF10701FEF717FB9DF82F
S3150800873007408046FEF71CFA012802D8A4B2002793
S3150800874007E00120FEF79EFA87B20220FEF79AFAA2
S3150800875084B23C4E318841B920460CF073F830801B
S3150800876018B93948BE21F7F799FD30880BF0D0FCC7
S3150800877041469DF8072005463844FDF785FB01204C
S3150800878032499DF80720FDF7B1FF9DF807301F44D1
S31508008790A74254D128460AF053FA10B180B284424F
S315080087A002D201202A4907E02846E1B20CF04CFE25
S315080087B0054620B927490120FDF798FF3DE00CF052
S315080087C0C5FCB0F5006F0AD128460CF0EBFC4FF655
S315080087D0FF73984203D101201F49224627E0284605
S315080087E00CF0B4FCB0F5006F08D0B0F5406F1BD1A3
S315080087F028460CF0C9FC08F097FB04E028460CF064
S31508008800D1FC08F06DFBFF280ED0144B1B6833F81B
S3150800881010305B0708D512493A460120FDF766FF76
S3150800882028460BF02BF908E03A460B490120FDF7DC
S315080088305DFF2846012109F0B1F90023338002B013
S31508008840BDE8F081F6440020859403089C9403084B
S31508008850AF940308C9940308DB940308FC2E002090
S31508008860EE94030808B50020FEF70CFA0246044BFE
S3150800887004491870D2B20120BDE80840FDF736BF9A
S31508008880FA2E00200395030808B50BF039FABDE85F
S31508008890084001200149FDF729BF00BF19950308C3
S315080088A0002008B5064903461A22FEF7C3FA054B07
S315080088B005491870BDE808400120FDF717BF00BF3D
S315080088C0F84F00202B5000203395030808B50020E8
S315080088D0FEF7D8F9044B00221880044B1A70BDE83D
S315080088E0084009F087B900BF063000202F4800204D
S315080088F007B500206946FEF7D2FA064869460822F7
S31508008900FDF7C2FA044B01221A7009F073F903B095
S315080089105DF804FBE44F00202F4800201FB5002017
S3150800892002A900900190FEF7BAFA0F4802A9082298
S31508008930FDF7AAFA68460C490822FDF733FB58B139
S315080089400A490120FDF798FE07480821FFF786FA2D
S315080089500120FDF7C5FE03E001200549FDF7C6FE27
S3150800896005B05DF804FB00BFD44F00204695030808
S315080089705C95030830B587B00DF107010020FEF7B6
S31508008980EDF905460120FEF77DF99DF80730044606
S315080089900F2B09D902A800211022FDF7FCFA02A81C
S315080089A029461022FDF770FA02A8E1B220F07EF8F7
S315080089B008490120FDF760FE02A81021FFF74EFACC
S315080089C00120FEF75FF9044902460120FDF78EFEF5
S315080089D007B030BD8E9303087195030808B50020CB
S315080089E0FEF750F9014B186008BD00BFE0470020AC
S315080089F008B50020FEF746F9014B187008BD00BF00
S31508008A00772F00207FB50020FEF73CF906460120A7
S31508008A10FEF738F90446002001460EF067FEFF28E7
S31508008A20054624D002A90220FEF739FA134B002E78
S31508008A301B68A4B20093214614BFC023CC2302AA04
S31508008A4028460EF0B7FE0E4B0E491A68012032F87A
S31508008A50153043F0020322F815302246FDF70CFEC6
S31508008A6002A8FFF7BFF90120FDF73AFE03E001204F
S31508008A700549FDF73BFE04B070BD00BF002F00207E
S31508008A80FC2E0020809503089195030808B5002060
S31508008A90FEF72AF940B20DF0C1FBBDE808400DF01B
S31508008AA0D9BB000010B5002486B0E0B203A919F0BE
S31508008AB018F9C8B1BDF816209DF80C3000920D497A
S31508008AC02246C3F300130120FDF7D6FD9DF81410C6
S31508008AD004980F31C1F30711FFF726FA012006495A
S31508008AE09DF81420FDF702FE0134102CDDD106B0E6
S31508008AF010BD00BFA2950308C2950308012021F006
S31508008B0007BE000008B5064B0022012005491A7069
S31508008B10FDF7ECFDBDE808400120FDF75BBB00BF93
S31508008B20502F0020C695030808B5074B01201B786F
S31508008B300BB1064900E00649FDF7D8FDBDE8084037
S31508008B400120FDF747BB00BF502F0020D89503082A
S31508008B50EA950308038A2BB1C38908881B1A584269
S31508008B60584100E0184600F00100704743692BB1F0
S31508008B70438A08881B1A5842584100E0184600F0F4
S31508008B80010070470020704710B5044610300BF0FE
S31508008B9073FA04F14C00BDE810400BF06DBA000002
S31508008BA01FB50A4604AB002123F8020D00910348BD
S31508008BB003490CF071FE05B05DF804FBA84F0020D0
S31508008BC0F096030830B50D4687B00446C0B1B0F834
S31508008BD04C303BB10B4B1B6823B10491059004A99B
S31508008BE002209847B5F84430074A00930192E28973
S31508008BF001210292039304200A462B6C0EF016F903
S31508008C0007B030BDA048002000970308F0B5936967
S31508008C1093B007460C461546002B57D007AE30468C
S31508008C2000212C22FDF7B7F903A800211022FDF731
S31508008C30B2F9AB8B23B105F150021092ADF844306E
S31508008C409CB91FB122487521F7F728FB0BA805F137
S31508008C5036011022FDF718F900218DE84200AC69AB
S31508008C60384603AA0B46A04730E030462146102274
S31508008C70FDF70AF90BA804F110011022FDF704F913
S31508008C80238C226BADF83C30638C94F82510ADF834
S31508008C903E30A38E03921BB21344049300238DF82F
S31508008CA01830B4F8443005928DE848003846236CED
S31508008CB0AE6903AAB04795F83630FF2B06D1AC68E3
S31508008CC029F020F9211A28460CF02EFD13B0F0BD24
S31508008CD07697030810B5037B0446032B01D8038A4D
S31508008CE033B900202246BDE810400146FFF78EBF83
S31508008CF0E2890A4904200EF079F8237B20460133DD
S31508008D00237301F03BF8064A237B1168013B204692
S31508008D10BDE8104099400CF007BD00BF3B9703081B
S31508008D20542F0020F8B5147806460C1BA4B2B4F5E7
S31508008D30867F1D4600F10100117008D96FF486720E
S31508008D40A11889B20CF080FFF71C0E2407E00C2C42
S31508008D5091BF07460D3C7470B71C88BF0D24B5F546
S31508008D60867F09D96FF48673E918384689B20CF0FC
S31508008D706BFF02370E2505E00C2D82BF0D3D07F867
S31508008D80015B0D2545EA041434703846F8BD2DE913
S31508008D90F74F9B469DF83030B1F10F078A4600938E
S31508008DA018BF01270546002844D0894603784FF0A6
S31508008DB000082F2B08BF01352B78002B3AD02946FF
S31508008DC00B780C4601310BB95FB10DE02F2B03D19F
S31508008DD0B8F1000FF4D117E03F2BF5D0262BEFD1D1
S31508008DE0F2E7B8F1000F11D0661BB6B2334610464B
S31508008DF049465A46FFF796FF324629460190FDF73F
S31508008E0043F8019B9A1901E0002FEDD123782F2B07
S31508008E1002D10134D1460BE00FB1009951B13F2B75
S31508008E2001D0262B04D101344FF001084FF00F0969
S31508008E302546C1E7104603B0BDE8F08F2DE9F04F8F
S31508008E408246894693461F46044687B04FF0000877
S31508008E509DF840608DF81380B9F1000F4FD0B8F136
S31508008E60000F10D116B13B785B450DD9002300934E
S31508008E702246484659460DF11303FFF788FF4FF07F
S31508008E8001080446E8E716B13B780F2B0BD90025F5
S31508008E904846224600950F210DF11303FFF777FF89
S31508008EA0A94604462BE0D7F804C03D89BCF1000F5B
S31508008EB010D1604605A9FA680CF0CAFE042505AB70
S31508008EC09C469CF80020013322B9013DADB29C4670
S31508008ED0002DF5D1204617F8101B0DF113022B466D
S31508008EE0CDF80CC0FFF71EFF0446DDF80CC02A4675
S31508008EF06146013EFCF7C8FF2C44F6B2ACE7002EEB
S31508008F00D1D1CAEB040080B207B0BDE8F08FF8B53E
S31508008F1003780446FF2B0F4616462BD01A090D2A4E
S31508008F2003F00F0395B2338003D1457802340D352B
S31508008F300BE00E2A00F1010006D10CF07BFE00F2D0
S31508008F400D1085B2033400E0044633880D2B04D196
S31508008F5014F8013B0D33338008E00E2B06D120466A
S31508008F600CF068FE00F20D103080023438780544A3
S31508008F703D7000E000242046F8BD000010B5044608
S31508008F8048B10549B0F85200FFF70AFE2146BDE888
S31508008F901040FFF717BE10BD558B00080023064A80
S31508008FA0D1189A5C824201D1486870470833D02BA1
S31508008FB0F5D10248704700BF909A030847970308FF
S31508008FC038B1102807D0202807D0302808D1054BFB
S31508008FD004E0054B02E0054B00E0054B5868704776
S31508008FE004487047789B0308609B0308689B03083E
S31508008FF0709B0308479703080A44002301604260F0
S3150800900081600373704773B50446806863680E46CB
S31508009010984215460DD004F10C010DF10602FFF732
S3150800902076FFBDF8063030602B800344A360207BB2
S3150800903000E0002002B070BD2DE9F34107468846DE
S3150800904015461446D6180368B24283604FF00003EB
S31508009050037338BF1370384601A90DF10202FFF7F2
S31508009060D2FFE0B180451AD34045F4D12246BDF877
S315080090700210019800238B420ADAB24238BF10F870
S3150800908003E002F1010238BF02F801EC0133F2E70E
S315080090906318B3423CBF2F2262545C1CDBE7AC4228
S315080090A004D0B4429CBF002304F8013C601B01387D
S315080090B000B202B0BDE8F08100231A4610B50429B3
S315080090C028BF04215C1CDBB28B4204D2C35C43EA92
S315080090D002222346F6E7104610BDF8B504460D46AB
S315080090E016461F46036883600023037320463146ED
S315080090F03A46FFF788FF08B1A842F7D3431B584200
S315080091005841F8BD37B515460DF1020301AAFFF718
S31508009110E4FF044630B12DB10198BDF80210FFF7FF
S31508009120CBFF2860204603B030BD10B50C46134669
S315080091300B212246BDE81040FFF77EBF01480AF022
S315080091409BBF00BFF8440020F7B5044616461046F4
S315080091500D4664220021FCF71EFF237803F00F0357
S3150800916086F82E30237803F0C002402A58D103F03F
S31508009170300386F846306378A01C86F825300CF054
S3150800918059FD211DA6F8520096F82E2006F1260054
S31508009190FCF77AFE2078002300F00F0004302D1A21
S315080091A00444ADB2B58634638DF805302544AC4227
S315080091B09DF8057005D30B2F1ED1B36BE31AB38741
S315080091C01AE02378FF2BF6D020460DF105010DF1A4
S315080091D00602FFF79CFE9DF805300B2B03D10B2FDB
S315080091E006D0B46304E00B2F02BFB36BE41AB4874E
S315080091F0BDF806400444DAE7AC420CD22378FF2BCC
S3150800920009D1336B0120E31A013434642C1BB3866D
S31508009210A6F8444005E0A54234BF0020012000E03E
S31508009220002003B0F0BD000008B5FCF715FE054B9D
S315080092301880FCF711FE044B00221880034B1A8095
S3150800924008BD00BF582F0020522F0020F8440020E8
S3150800925018B143090CBF0120002000F00100704737
S315080092602DE9F0470446B0B090F825000E46904622
S31508009270FFF7EEFF04F1260750B1964D38462988C8
S315080092800CF0E2FC2B8801332B80022384F82E3065
S31508009290238C13B941F233632384638C13B941F2E7
S315080092A03363638494F8462094F82E300DF10E004B
S315080092B0134302F0EF02202A43F0400318BF864A00
S315080092C08DF80C3094F825308DF80D301CBF1388B6
S315080092D0A4F85230B4F852101CBF013313800CF0B6
S315080092E0B3FC94F82E30082B04D97C4840F2BB21F5
S315080092F0F6F7D4FF04A8394694F82E20FCF7C4FDE7
S3150800930094F82E5004AB404601211D440BF05CFA3C
S31508009310B4F8443043B9B8F1000F08D010F1000989
S3150800932018BF4FF0010903E04FF0010900E0C146FC
S31508009330216B31B12846A28EFCF7A6FDA38E1D44EB
S3150800934015E094F825008DF80A10FFF781FF70B133
S315080093506EB10123A56300932A460DF10A03304630
S315080093600B21FFF714FD0546A36BC31AA3870DF15E
S315080093700C0AB9F1000F27D0A26C594B9A4203D1B7
S3150800938094F84630202B02D0FF232B700135B4F811
S315080093904420AB18CAEB0303B12B07D82846216C27
S315080093A0FCF772FDB4F844301D440DE01146206CFC
S315080093B000220BF0C2FA814608B9182087E0424617
S315080093C001210BF0D9F9C846CAEB0505B12D04D918
S315080093D042484FF43E71F6F761FF0DF10A03009318
S315080093E020465146AAB2434600F0B2FB00286ED189
S315080093F094F8463043B194F82500FFF729FF002872
S3150800940065D0606D002862D0B4F860000021503045
S3150800941080B20BF017FA0028CFD00AF079FE05467D
S3150800942000215022FCF7B7FD2E4B2B6000232B732F
S315080094306B60B4F85230EB81636D53B1AB612A4A65
S31508009440A36D3846002B08BF13466B610CF0F2FB80
S31508009450688205F1360004F110011022FCF714FDAC
S3150800946094F84630ABB9BDF80A3005F124002B82D2
S3150800947021461022FCF708FD238C2846AB86638C10
S31508009480A5F84630A36C2B62E36CAB64174B1968DE
S3150800949001E0284669690CF047F9154B1B685BB172
S315080094A056B130462AF018FE411C89B230460022D1
S315080094B00BF043FAA5F84C0005F15000E16DB4F83D
S315080094C06020FCF7E1FCB4F860300020AB8330B0D4
S315080094D0BDE8F087522F0020582F00207697030802
S315080094E0858B0008F0960308905F0100542F002032
S315080094F0A04800202DE9F0430746984615468946B8
S31508009500B5B03E9C02A8002164223D9EFCF743FDAF
S3150800951002A8611C1022FCF7B7FC06A839461022DF
S31508009520FCF7B2FC638ACDF84880ADF82830A38AE8
S315080095300DF16C08ADF82A30E36A29461493236BBB
S3150800954040461593BDF8F0300B22ADF84C30237F1A
S315080095508DF82D900093A369FFF770FC64280546E3
S3150800956005D914484FF45A71F6F798FE00E018B179
S31508009570CDF83880ADF83C502378DB0704D4E36A8D
S3150800958023B93B78FF2B01D1102300E000238DF887
S315080095904E303EB1236A17961893636A1993238D42
S315080095A0ADF86830002102A80A46FFF759FE35B023
S315080095B0BDE8F0837697030830B504460D469BB0A0
S315080095C001A800216422FCF7E6FCB4F8523001A891
S315080095D021461022ADF856308DF84A50FCF754FC57
S315080095E005A804F110011022FCF74EFC238C00217B
S315080095F0ADF82430638C01A8ADF82630A36C0A4672
S315080096001393E36C1493FFF72BFE1BB030BD0000D9
S315080096102DE9F04FC7B006460D4608469146114655
S315080096200DAA1F46509CFFF78FFD804688B9A94BA7
S31508009630012101930A462B46CDF8009004200DF02F
S31508009640F5FB0420A44940F23942A44B0DF040FC36
S315080096503CE19DF8622004F12C0084F834200DF1D9
S315080096605A01FCF711FC04F110050DA82146102239
S31508009670FCF70AFC2946102211A8FCF705FC238CE6
S315080096809DF87A00ADF85430638CADF89660ADF865
S315080096905630636A1F93A36A2093FFF791FC8146AD
S315080096A09DF85900FFF77AFC102202921D9ABDF820
S315080096B086300392BDF878208DE8210004920420B4
S315080096C087494A460DF092FB9DF87A30102B4CD00C
S315080096D002D8002B49D0F9E0202B13D0302B40F0CC
S315080096E0F5808049BDF88600FFF75AFA04467E4998
S315080096F00420BDF886200DF079FB002C00F0E680EA
S3150800970002201EE07749BDF88600FFF749FA0446AD
S315080097100DA9FFF757FA002C00F0D880A369002B93
S3150800972000F0D4809DF8593083B19DF86230022B41
S315080097300CD10DF15A000CF07DFA638A834205D1EB
S3150800974003200DA92246FFF761FABFE00DA9012003
S315080097502246FFF75BFA6169002900F0B78000230B
S31508009760238220460BF0E0FFB0E09DF8593013B98C
S315080097700DA8302155E0A36AD4F82490BDF886A038
S3150800978026A800211C220793B4F822B0FCF703FC94
S31508009790CDF89C90ADF898A0079BB9F1000F07D1BA
S315080097A028A829461022FCF76FFBADF8B0B000E0F8
S315080097B028934E4800210BF070FA054668B12846F2
S315080097C00AF0A6FC1C22014626A8FCF7EBFBC8B14A
S315080097D0294646480BF08BFAEFE71C2126A82A46AD
S315080097E00BF0ABF80146F8B140482A460BF05BFA95
S315080097F03E480BF085FA052816D929463B480BF052
S3150800980091FA11E0B8F1000F0ED004203849BDF8DE
S3150800981086200DF0EBFA9DF87A30002B56D10DA86C
S315080098202021FFF7C9FE51E09DF87A3013B90DF1F2
S315080098308603A3639DF859506D0929D1BDF8683090
S31508009840199A1BB2134409920B9209A826A98022D9
S315080098500A938DF83050FFF768FC431C02D18DF847
S31508009860985004E080B2802888BF8DF81751214BA4
S315080098701B6813B1032026A99847BDF878309DF8D0
S3150800988059008DE8580026A909AA1D9BB84715E076
S315080098909DF86220022A0DD10DF15A000CF0CAF982
S315080098A01549FFF77DF9024640B103200DA9FFF7D8
S315080098B0ADF903E0042011490DF098FAA36B2BB11A
S315080098C00DA82021FFF778FE0023A36347B0BDE863
S315080098D0F08F00BF4D970308559703087D97030837
S315080098E082970308558B0008AB970308F8440020B5
S315080098F0CA970308A04800206D8B0008EB97030859
S31508009900F0B50446B5B00D46174602A800216422F4
S315080099101E46FCF740FBA36B43B11B882022ADF81B
S315080099205A3000238DF84E20A36303E0002D48D05B
S315080099308DF84E3004F1100106A810228DF82D502E
S31508009940FCF7A2FA214602A81022FCF79DFA238CFE
S3150800995004F12C01ADF82830638C94F83420ADF866
S315080099602A30636A0DF12E001493A36A1BAD159372
S31508009970FCF78AFA94F8343028468DF836309DF884
S31508009980E8303946009308223346FFF757FA642829
S31508009990044605D90C4840F20D51F6F77FFC00E065
S315080099A010B10E95ADF83C403B9B02A81293BDF84A
S315080099B0F0300021BDF8F420ADF84C30FFF750FC2C
S315080099C000E0284635B0F0BD769703081FB59DF828
S315080099D018400094079C0194BDF820400294002486
S315080099E00394FFF78DFF04B010BD1FB50293BDF8B1
S315080099F01830002401920393009422462346FFF769
S31508009A007FFF04B010BD000070B5044694B00E4642
S31508009A101546002102A848222AF024FA204602A95F
S31508009A2013F011FE18B91D482321F6F737FC02A8D2
S31508009A3013F01AFA18B919482421F6F72FFC2DB98C
S31508009A409DF82350FF3D18BF012500E0012520465B
S31508009A500BF07CFBB0F5006F13D120460BF0A2FB90
S31508009A604FF6FF7398420CD09DF82330FF2B08D091
S31508009A700B4B1B881B0704D520464FF6FE710BF0CF
S31508009A8098FB0096204602A92A46FF2311F038FBC8
S31508009A9080F00100C0B214B070BD00BF499C030835
S31508009AA098480020026A094B10B59A420C460BD119
S31508009AB0008A0BF069FB082201462046FCF772FA79
S31508009AC0B0FA80F0400910BD002010BD858B000853
S31508009AD01C4B2DE9F7431C7807460D460C9EF4B13E
S31508009AE0C81C80B200210AF0ADFE814608B90024E0
S31508009AF024E00AF00DFB8046867013490420F2B272
S31508009B000DF074F908F1030039462A46FCF7BCF94A
S31508009B100E4B1B6893B10520494698470EE0F0B2F4
S31508009B2021461EF099F80028E1D0009423463946CC
S31508009B302A4624F075FCB0FA80F46409204603B07E
S31508009B40BDE8F083DB490020809B0308D449002048
S31508009B502DE9F04F0446ADB01846894601219046D6
S31508009B601D460AF031FE804EA36C82469A1B564269
S31508009B705641002B3CD0002E44D1284601210AF03C
S31508009B8023FE94F84630064603B1F8B106EB080AF8
S31508009B901FFA8AFA504600210AF054FE074628B9E9
S31508009BA0042072490DF0F8F81820DAE00AF0B0FA45
S31508009BB0834649464246FCF767F90BEB08002946F7
S31508009BC032460AF0CCFED046D94600E0074604F1F4
S31508009BD01002238C0092628C48460192E26C414640
S31508009BE00292A66C2246B047002860D10126B3E04F
S31508009BF0002E0BBF37460627B3464FF0030B18BF98
S31508009C009A4604E006274FF0030B4FF0000A204659
S31508009C1010210022FFB20CF04FF828B92378FF2B49
S31508009C2014BF2346002300E0002341F23360218C51
S31508009C30628C002908BF0146002A08BF024604F1C3
S31508009C40100E4020019002910392CDF800E03A46AA
S31508009C50CDF81090CDF81480CDF818A013A8594661
S31508009C6013F0C8F8074628B9042040490DF094F8BF
S31508009C70012076E045B128460AF066FA20B1384652
S31508009C8001212A460AF078FD1EB194F84630202BA9
S31508009C9002D1B4F8501000E0322194F82420384656
S31508009CA002F00102FFF7B0FE0646002854D13F2312
S31508009CB08DF84C3000238DF84D3094F8463013AEAD
S31508009CC013F0EF0F0AD10FA8A16BB4F93C20FFF7E8
S31508009CD093F90FA831466422FFF727FA244B1B682D
S31508009CE033B10F941096ADF8445001200FA9984748
S31508009CF094F84600B4F85280FFF762F90D9094F88C
S31508009D002500FFF74BF9236C0C902846B4F822B0CF
S31508009D10B4F844A00B930AF0FBF9814628460AF0EA
S31508009D2013FA10230D990C9A04930B9B1034009187
S31508009D3001920593089033460420CDF808B00394A1
S31508009D40CDF818A0CDF81C900A4942460DF04EF8F9
S31508009D50369B00201F8004E0042007490DF046F8D2
S31508009D6030462DB0BDE8F08F858B0008909B030820
S31508009D70A0480020A29B0308009C03087FB5056A3B
S31508009D800446008A15B1114B9D4206D100210A46A8
S31508009D9004B0BDE87040FFF737BE0AF0B9F90646C9
S31508009DA0208A0AF0D1F904F136020092B4F8462066
S31508009DB001460192A26CA38E0292304604F1240257
S31508009DC0A84780F00100C0B204B070BD858B0008BA
S31508009DD02DE9F041CC6BB1F84060CEB080460D4617
S31508009DE0042046490DF002F82046314615AAFFF729
S31508009DF0ABF968B9424B01210A4601930420009643
S31508009E0023460DF013F804203E494FF4907230E0D3
S31508009E1006AC204600213C22FCF7BDF805F10B07ED
S31508009E20204605F11B011022FCF72EF80AA8394630
S31508009E301022FCF729F8B5F8443002A82384B5F8AF
S31508009E4042302199BDF988206384FFF7D5F89DF83B
S31508009E509A3003F0EF03202B03D115A8FFF78EF8ED
S31508009E6049E09DF87930022B07D040F23512254992
S31508009E700420254B0DF02CF83DE02EA9802202A8DF
S31508009E80FFF753F940460BF07FF90FF017FC06462B
S31508009E9020B1102100220AF050FD0646BDF8983080
S31508009EA09DF879008DE818002EA902AA259B1BF0BB
S31508009EB063F99DF89A50F5B9EEB120238DF89A30DA
S31508009EC019A84423394610228DF87930FBF7DCFFB0
S31508009ED0638C15A8ADF87630238C2946ADF8743016
S31508009EE00A4B32462595ADF898502195ADF888501D
S31508009EF02793FFF7B5F94EB0BDE8F0810A9C030831
S31508009F00189C0308289C03087D970308858B00087E
S31508009F1013B50022034600920A480B490B4A0BF078
S31508009F20BBFC044660B10A4B19680BF0FDFB208A9E
S31508009F3001210AF0A1F902B0BDE810400AF0E8B81C
S31508009F4002B010BDA84F0020F0960308A59A000895
S31508009F50542F00202DE9F0430C46074698469146B3
S31508009F6093B003AD284600213C221A9EFCF713F84D
S31508009F70284604F11B011022FBF786FF07A804F107
S31508009F800B011022FBF780FFB4F84230E16BADF805
S31508009F902E30B4F84430B4F84020ADF82C30074BD6
S31508009FA000953846002E18BF3346CDF83090CDF8C8
S31508009FB03480FFF72DFB13B0BDE8F083515B000832
S31508009FC02DE9F84F05460F4690469A46BDF82C905F
S31508009FD00A9C00260A9BA11C4B44994257D8207814
S31508009FE0637840454FD350454DD8C8EB000B4FF02A
S31508009FF0060C0CFB0BFC012000FA0BF007EB0C0E11
S3150800A00006439EF803009BB2013837F80CB00428C3
S3150800A01039D8DFE800F0030D1E2A3500012B03D0DE
S3150800A02004201D495C2208E0A37805F80B302AE0D5
S3150800A030022B08D0184904206322184B0CF048FF5D
S3150800A0400020BDE8F88F08460BF0F4FD25F80B0054
S3150800A05019E0042B03D004200F496A22EDE70020FB
S3150800A0600BF016FE45F80B000DE09EF8040098422A
S3150800A07003D0042008497122DFE745F80B1002E0F7
S3150800A080631C45F80B30637802331C44A2E72E6044
S3150800A0900120BDE8F88F00BF569C03087D9703088A
S3150800A0A003281A460199BDF8003003D10020103163
S3150800A0B0FAF7A0BC7047000073B504460E4615466D
S3150800A0C000213422FBF767FF0096019520460349D5
S3150800A0D000221123FFF774FF02B070BDA29C03088B
S3150800A0E0F0B51E46531E9FB00D2B0746144601AD0C
S3150800A0F007D9002101200A460B46FAF77BFC2C46B5
S3150800A1000BE012230DF106008DF804308DF80520BA
S3150800A110FBF7BAFE0DF106031C44641B102C03D989
S3150800A1201C48D621F6F7BAF805A800216422FBF7E1
S3150800A13032FF3B7809A8FF2B0CBF102300233946B2
S3150800A14010228DF85A30FBF79FFE02238DF839301E
S3150800A1504FF2BF0330461049ADF83430ADF836300B
S3150800A1601595ADF858400BF007FE08B90B4B1A9336
S3150800A17005A812F0C9FA05A831460022FFF770F8BB
S3150800A18028B1002101200A460B46FAF733FC1FB016
S3150800A190F0BD00BF779C03088D9C0308A1A00008AA
S3150800A1A0014BFFF79DBF00BF8D9C0308014BFFF7CE
S3150800A1B097BF00BF929C0308014BFFF791BF00BFF2
S3150800A1C0979C0308F0B5062A95B006460F4614462E
S3150800A1D021D807AD284600213422FBF7DCFE4FF2D2
S3150800A1E0BF038DF81540A4B2ADF830300DF1160056
S3150800A1F00D23394622468DF81430FBF745FE074BEA
S3150800A200023401930094029530460221044A05ABB4
S3150800A210FFF770F900E0022015B0F0BD097B0008D1
S3150800A2209C9C0308F8B527F04DFE184E074634786F
S3150800A230012C25D1164A174DD368174943F0807368
S3150800A240D36000206C6027F04FFD022200231349DB
S3150800A250C5F8F020C5F804334FF06043C3F8B01FC3
S3150800A2600F49C3F8004EC3F8801E40F2014103F5BA
S3150800A270805319604FF4803103F5514319603270E9
S3150800A2803846BDE8F84027F01ABE00BFFA45002058
S3150800A290F0ED00E0000004E020A1070055CEACC5B3
S3150800A2A00D00010008B527F00DFE0A490A7852B9D3
S3150800A2B0094B5A701A719A705A719A71DA71A522F5
S3150800A2C01A7001230B7027F0FAFDFFF7ABFF002089
S3150800A2D008BD00BFFA4500203C500020084B1B78FB
S3150800A2E0022B08D14FF08043586B28B1054BD8682C
S3150800A2F0C0F3006000E0002000F00100704700BFD6
S3150800A300FA450020F0ED00E0054AD12303701378E2
S3150800A3104170090A8170591CC37011700420704776
S3150800A320F94500202DE9F74F0F788246042F884615
S3150800A33060D9781DC6B227F0F3FD4FF6FF79009075
S3150800A3400024FFF7CBFF38B94FF4C87027F0ACFCF0
S3150800A350A01B18BF01204EE0B442F5D227F0E0FD5D
S3150800A360009BC01A80B2B0F5FA7FEDD84FF0604373
S3150800A3701B68012BE5D14FF0000B5B4634B3012C6B
S3150800A38027D0F21E9442A6F1020202D15FFA89F59D
S3150800A39005E0944206F1FF3203D1C9F30725D4B28A
S3150800A3A01BE0944202D1F4B25D2516E0B44213D004
S3150800A3B00AEB040212F8025C494628460193FBF7A9
S3150800A3C027FD01348146E4B2019B06E05B250124A2
S3150800A3D003E03D46022400E0002505FA0BF50BF1E3
S3150800A3E0080BBBF1200F43EA0503C7D14FF06042C3
S3150800A3F01360A6E70020042388F8003003B0BDE800
S3150800A400F08F00002DE9F047254C637803F0FF062E
S3150800A410002B42D027F084FD82462248B0463546B6
S3150800A4208146202E28BF4FF02008606084F80280FD
S3150800A43063781B4F3BB127F073FDCAEB000080B26F
S3150800A440B0F5FA7F01D9ADB124E0BB78002BEFD186
S3150800A450C8EB0505EDB27D70002DE9D07B68202D8F
S3150800A4609844C7F80480A84628BF4FF0200887F804
S3150800A4700280DDE763786BB9094B9B7853B9023ED6
S3150800A48009EB06000BF0D0FBF2B20649BDE8F0472F
S3150800A4900BF08ABB00236370A370BDE8F08700BF8A
S3150800A4A03C500020FA4400207047000038B50220CE
S3150800A4B0FCF7E8FB05460020FCF7E4FB064C207099
S3150800A4C00120FCF7DFFB054B01461860EAB220784D
S3150800A4D0BDE8384008F0C4BD0B4600200C460020F5
S3150800A4E038B5A0F10B030F2B04460D4603D90648D1
S3150800A4F05121F5F7D3FE054B054A1C44137804F899
S3150800A5000B5C0133137038BDBC9D0308FB45002066
S3150800A5101046002070470000014B00221A70704751
S3150800A5201146002010B59AB0009040F22320029000
S3150800A53040F22220402300240193039004910592BF
S3150800A54006941A4608A82146234612F053FC38B941
S3150800A5501220074940F27512064B0CF0B9FC05E0CB
S3150800A560009408A90122FF2310F0CAFD1AB010BDF5
S3150800A570C89D03087D97030870B505468AB001ACE7
S3150800A58024220E462046002129F06CFC2A466B68D8
S3150800A5902046072128F0B2FB051B242D03D90548C0
S3150800A5A0CE21F5F77BFE30462146AAB2FFF7BAFF61
S3150800A5B00AB070BDE99D03082DE9F0478046A8B0AA
S3150800A5C0046C01F10E000F460BF034FB08230093D0
S3150800A5D0434B01210A46019302902346122009AEF5
S3150800A5E00CF024FC00217922304629F03BFC304649
S3150800A5F007214246D8F8043028F080FB0446394D36
S3150800A600D8F840A005F13009AB68BBB128465146D9
S3150800A6100822FBF7C7FC88B9102205A8D8F840100D
S3150800A62008F11409FBF730FC484607A911F0A0FF0A
S3150800A63005A8494600F016F9824604E010354D454E
S3150800A640E2D10025AA460323637004F10409002019
S3150800A6504946D8F830200BF0FBFABAF1000F21D0A2
S3150800A660214B93F80080B8F1000F1BD10523D5F8CC
S3150800A67008A0ED6863741823E37404F1140005A9AF
S3150800A6801022FBF701FC404604F124012A460BF090
S3150800A690DFFA5246404604F128010BF0D9FA04F1D4
S3150800A6A02C0206E00D2363740223E374637504F138
S3150800A6B01602C9EB02090E2384F80390043202F845
S3150800A6C0033C941B792C03D90848BE21F5F7E6FD0F
S3150800A6D038463146A2B2FFF725FF28B0BDE8F08715
S3150800A6E0F79D03081446002044460020E99D030808
S3150800A6F0014B1870704700BF5A2F002003460F48B9
S3150800A70070B5154682680E464AB182694AB1826AB0
S3150800A71052B1BDE870400A485321F5F7BFBD04465B
S3150800A72004E000F1100401E000F120042046194677
S3150800A7300822FBF7A9FBA660E56070BD1446002059
S3150800A740E99D03082DE9F0410C46154696B02A49BD
S3150800A750074612200CF04AFB254401A80021542282
S3150800A760261DFBF718FCB54204D8122023494FF4DE
S3150800A7709C7236E0214611F8013B0020ADF8043002
S3150800A7800BF086FABDF80420000A012A0290049606
S3150800A790059506D0082A0CD01220184940F25712FF
S3150800A7A01FE0174B1B7843B91220144940F24B128D
S3150800A7B017E02324134EA04603E0134EA5244FF0BA
S3150800A7C0B50801203946D2B228F080FA01A82946F0
S3150800A7D04246234628F0D6FA38B940F25F120749AE
S3150800A7E012200A4B0CF074FB02E001A83946B04768
S3150800A7F016B0BDE8F08100BF0B9E0308C89D03088C
S3150800A8005A2F002079A50008B9A500087D970308E6
S3150800A810F8B506460F46124B1D882846EDB109F0D5
S3150800A82077FC0446304621460FB9102207E0082275
S3150800A830FBF7B8FB48B9384604F110010822FBF7C4
S3150800A840B1FBB0FA80F0400900E0002030B9284694
S3150800A850012109F011FD0546DFE7F8BD2046F8BDE0
S3150800A86046460020F7B505460E4610230093244BAE
S3150800A87001210A46019312202B460CF0D7FA214BE8
S3150800A880012108240A4601931220334600940CF04D
S3150800A890CDFA31462846FFF7BBFF014648B12819CD
S3150800A8A02144224626E0FBF7D7FA04F8010FBC42FA
S3150800A8B0F9D100212846FFF7ABFF014618B1EC1D78
S3150800A8C005F10F07EFE7182009F0BCFF0446A8B109
S3150800A8D00D4F01213A8809F04FFF20463C8009F0C8
S3150800A8E017FC294604461022FBF7CEFA314604F136
S3150800A8F010000822FBF7C8FA0120FFE703B0F0BDF5
S3150800A900209E03082C9E0308464600201FB50C4BC4
S3150800A9101C8854B1204609F0FBFBFBF771F820466A
S3150800A920012109F0A9FC0446F3E7214610226846EE
S3150800A93029F098FA6846FBF763F804B010BD00BF23
S3150800A94046460020014809F097BB00BF464600204E
S3150800A950F0B50F460446B7B00BA81D46164601F0DB
S3150800A960EFFC05A800F0DDFA002105A800F0BCFB05
S3150800A97008A800F0D6FA002108A800F0B5FB0321C4
S3150800A9800BA803F0DBFA394620222AA800F018FCA7
S3150800A990002000F01DF920230193174B0094029321
S3150800A9A0002303930BA805A908AA2AAB01F060FBAC
S3150800A9B00446012000F00CF97CB905A800F0FAFB62
S3150800A9C03146024605A800F031FC08A800F0F2FB63
S3150800A9D02946024608A800F029FC05A800F0A8FAAE
S3150800A9E008A800F0A5FA0BA801F0ACFCB4FA84F0AC
S3150800A9F0400937B0F0BD00BF89AB00082DE9F04328
S3150800AA000E46914698460746B5B003AD09A801F02B
S3150800AA1097FC06AC284600F084FA204600F081FA36
S3150800AA2009A8032103F08AFA33782BA9721C09A80E
S3150800AA3002F0B4FB49464246284600F0C1FB3C9961
S3150800AA40BDF8F420204600F0BBFB002000F0C0F85B
S3150800AA50394620222BAB0095019409A801F0CCFBBE
S3150800AA600646012000F0B4F8284600F061FA2046B0
S3150800AA7000F05EFA09A801F065FCB6FA86F040090E
S3150800AA8035B0BDE8F083000070B5D0B0054603A820
S3150800AA900E4601F099FA032103A803F04FFA0020A5
S3150800AAA000F096F80023009303A822A925AA164BBE
S3150800AAB001F057FA0446012000F08AF8E4B92B6839
S3150800AAC003A800934123019325A902AB224602F06D
S3150800AAD015FB029B412B03D00C488921F5F7DEFBB9
S3150800AAE02A68029B22A813442B6000F063FB3146B8
S3150800AAF0024622A800F09AFB03A801F06AFAB4FA03
S3150800AB0084F0400950B070BD89AB00083A9E03082E
S3150800AB1070B504460E46D0B003A8154601F054FA9F
S3150800AB20032103A803F00AFA2378621C2EA903A8B6
S3150800AB3002F034FB3146202222A800F041FB002017
S3150800AB4000F046F80F4B03A800930023019337A99A
S3150800AB502EAA22AB01F008FA0446012000F038F8C4
S3150800AB603CB937A800F026FB2946024637A800F06C
S3150800AB705DFB03A801F02DFAB4FA84F0400950B041
S3150800AB8070BD00BF89AB000837B50D460846C2F34D
S3150800AB904701144604F07AFD18B90C481121F5F757
S3150800ABA07DFBE3070ED50DF10600012104F06EFDCD
S3150800ABB018B906481321F5F771FBBDF806302C4481
S3150800ABC004F8013C002003B030BD00BF4D9E0308C9
S3150800ABD008B530B1F6F764FA58B9BDE80840F6F793
S3150800ABE043BAF6F75DFA20B1BDE80840A520F6F7A6
S3150800ABF04BBA08BD0023F0B516461C46844216D04B
S3150800AC00D6F800E0C3EB0E05356051F82470013420
S3150800AC10BD422CBF4FF0000C4FF0010CED1B9E45BA
S3150800AC202CBF63460CF1010346F8045BE6E702EB2A
S3150800AC30840243B11168C81A994242F8040B2CBF22
S3150800AC4000230123F5E7F0BDF0B58446864687B0B4
S3150800AC5001930023039102920593BCF10F0F40F272
S3150800AC60CA8003980299059A019B50F8044B4FF045
S3150800AC7000050E68E3FB0425B71845F1000241F804
S3150800AC80047B50F8044B4FF000050E68E3FB0425DF
S3150800AC90B71845F1000241F8047B50F8044B4FF011
S3150800ACA000050E68E3FB0425B71845F1000241F8D4
S3150800ACB0047B50F8044B4FF000050E68E3FB0425AF
S3150800ACC0B71845F1000241F8047B50F8044B4FF0E1
S3150800ACD000050E68E3FB0425B71845F1000241F8A4
S3150800ACE0047B50F8044B4FF000050E68E3FB04257F
S3150800ACF0B71845F1000241F8047B50F8044B4FF0B1
S3150800AD0000050E68E3FB0425B71845F1000241F873
S3150800AD10047B50F8044B4FF000050E68E3FB04254E
S3150800AD20B71845F1000241F8047B50F8044B4FF080
S3150800AD3000050E68E3FB0425B71845F1000241F843
S3150800AD40047B50F8044B4FF000050E68E3FB04251E
S3150800AD50B71845F1000241F8047B50F8044B4FF050
S3150800AD6000050E68E3FB0425B71845F1000241F813
S3150800AD70047B50F8044B4FF000050E68E3FB0425EE
S3150800AD80B71845F1000241F8047B50F8044B4FF020
S3150800AD9000050E68E3FB0425B71845F1000241F8E3
S3150800ADA0047B50F8044B4FF000050E68E3FB0425BE
S3150800ADB0B71845F1000241F8047B50F8044B4FF0F0
S3150800ADC000050E68E3FB0425B71845F1000241F8B3
S3150800ADD0047B50F8044B4FF000050E68E3FB04258E
S3150800ADE0B71845F1000241F8047B059202910390D9
S3150800ADF0ACF1100C31E70EF00F03072B66D9039858
S3150800AE000299059A019B50F8044B4FF000050E680D
S3150800AE10E3FB0425B71845F1000241F8047B50F816
S3150800AE20044B4FF000050E68E3FB0425B71845F1FF
S3150800AE30000241F8047B50F8044B4FF000050E68F9
S3150800AE40E3FB0425B71845F1000241F8047B50F8E6
S3150800AE50044B4FF000050E68E3FB0425B71845F1CF
S3150800AE60000241F8047B50F8044B4FF000050E68C9
S3150800AE70E3FB0425B71845F1000241F8047B50F8B6
S3150800AE80044B4FF000050E68E3FB0425B71845F19F
S3150800AE90000241F8047B50F8044B4FF000050E6899
S3150800AEA0E3FB0425B71845F1000241F8047B50F886
S3150800AEB0044B4FF000050E68E3FB0425B71845F16F
S3150800AEC0000241F8047B0592029103900EF0070EEA
S3150800AED0BEF1000F15D003980299059A019B50F808
S3150800AEE0044B4FF000050E68E3FB0425B71845F13F
S3150800AEF0000241F8047B0592029103900EF1FF3E91
S3150800AF00E6E7029A1168059B0B4442F8043B05994B
S3150800AF108B422CBF002301230593002BF2D107B0E7
S3150800AF20F0BD20B1012303600023436083607047AE
S3150800AF3010B5044688B1806850B10246636813F1BB
S3150800AF40FF3303D3002111600432F8E70AF04CF806
S3150800AF500123236000236360A36010BD42F21073CF
S3150800AF60994270B504460D4602D96FF00F0070BDC0
S3150800AF7043688B421BD20846042103F0A7F906460C
S3150800AF800028F2D0A16881B16268920092B2FAF7FD
S3150800AF907BFFA0686368024613F1FF3303D30021E1
S3150800AFA011600432F8E70AF01FF86560A660002011
S3150800AFB070BD436870B58B4204460D4603D8BDE89C
S3150800AFC07040FFF7CBBF5A1E03F18043013B9B003D
S3150800AFD02AB1A168C958043B09B9013AF8E7013210
S3150800AFE0954238BF15460421284603F06FF90646F0
S3150800AFF0A8B1A16879B1AA0092B2FAF745FFA0688C
S3150800B0006368024613F1FF3303D30021116004324B
S3150800B010F8E709F0E9FF6560A660002070BD6FF0EB
S3150800B0200F0070BD8842F8B506460F4622D08D68D7
S3150800B03015B9FFF77DFF1FE04A68013A1AB155F8BE
S3150800B0402230002BF9D03B68541C33603046214629
S3150800B050FFF784FF054678B97268B06892002946FA
S3150800B06092B2FAF798FFA20092B2B068B968FAF7F6
S3150800B0700BFF01E00020F8BD2846F8BD2DE9F04198
S3150800B0800D46496804461646FFF768FF50BB7342EB
S3150800B09046EA03022968C2F3C01251432368C2F183
S3150800B0A0010603FB06132360034669688B420ED02C
S3150800B0B0AF68D4F808C057F823805CF8237007FBFC
S3150800B0C006FE08FB02E74CF823700133EEE76768D3
S3150800B0D08B00B94206D2A5680131EA587243EA5094
S3150800B0E00433F6E7BDE8F08170B50E460121044643
S3150800B0F0FFF734FF054690B96268A068920092B2DD
S3150800B1002946FAF748FFA36886EAE672002EA2EBFC
S3150800B110E6721A60B4BF4FF0FF3301232360284656
S3150800B12070BD4368B1EB431F3FBF83684A0953F8B4
S3150800B130220001F01F013ABFC84000F001000020BC
S3150800B14070470023194670B54568A94210D0826831
S3150800B15052F82140002224FA02F6F60706D40132F4
S3150800B160202A03F10103F6D10131EEE7184670BD36
S3150800B170002070BD436810B5D3B103F18042013A8F
S3150800B180591E9200836821B19C58043A0CB90139BA
S3150800B190F8E753F821004FF000420023024204D199
S3150800B1A00133202B4FEA5202F8D1C3EB4113203367
S3150800B1B0184610BD08B5FFF7DDFF0730C00808BD03
S3150800B1C0F8B506460D4617460024BC4201D02B5D4D
S3150800B1D063B1391B11F0030318BF012303EB910177
S3150800B1E03046FFF7BBFE0146F0B901E00134ECE753
S3150800B1F03046FFF779FF0146B0B9EA19501BBB1A6A
S3150800B200A0422B4410D94FEA930C12F8010DD6F838
S3150800B21008E003F00303DB0000FA03F35EF82C00F2
S3150800B22003434EF82C30E9E70846F8BDF8B514464E
S3150800B23005460F46FFF7BEFF8442064616D3A2B25E
S3150800B24038460021FAF7A7FE3C440023B3420BD048
S3150800B250AA68980803F0030152F82020C900CA40DA
S3150800B26004F8012D0133F1E70020F8BD6FF007005F
S3150800B270F8BDF8B506460C464D0901F01F07FFF75D
S3150800B28079FF73680119B1EB431F01D875B90BE053
S3150800B29011F01F0318BF0123304603EB5111FFF7C6
S3150800B2A05DFE0028F2D0F8BDF7B91BE073686FF0B1
S3150800B2B00301694303F18042013A9200AB4206D981
S3150800B2C0B068013B841864588450043AF6E703F1E1
S3150800B2D08043013B9B001A1DE6D0B2680021D1507D
S3150800B2E0043BF8E70020F8BDD6F804C0AB00002000
S3150800B2F06545F7D2D6F808E0C7F120025EF80340A4
S3150800B300013504FA07F101434EF8031024FA02F056
S3150800B3100433EDE74268F0B54C09944201F01F0189
S3150800B32001D805D171B1BDE8F0400021FFF7DCBEB8
S3150800B33034B971B302F18043013B9B00002617E044
S3150800B340002301E02CB30B46151BAB4207D28568D8
S3150800B3501E1955F8266045F823600133F4E7AB005B
S3150800B3609542E6D284680026E65001350433F7E7AD
S3150800B3707AB1D0F808E0C1F120045EF80370013A0A
S3150800B38027FA01F535434EF8035007FA04F6043B4D
S3150800B390EEE70020F0BD436870B503F18042013A3C
S3150800B3A092002BB18468A458043A0CB9013BF8E71B
S3150800B3B04C6804F18042013A9200FCB18D68AE589F
S3150800B3C0043A0EB9013CF8E7A34212D89C4212D8B7
S3150800B3D003F18042013A92004BB181688C58A95812
S3150800B3E08C4206D8A2F1040205D3013BF4E71846BD
S3150800B3F070BD012070BD4FF0FF3070BD181C18BF1E
S3150800B400012070BD436870B503F18042013A92008D
S3150800B4102BB18468A458043A0CB9013BF8E74C6888
S3150800B42004F18042013A92006CB38D68AE58043A32
S3150800B4300EB9013CF8E7A34201D9026826E09C420E
S3150800B440096801D94A4221E00268002A01DD00297B
S3150800B45017DB002904DC03F180410139890005E086
S3150800B460002AF8DA4FF0FF3210E0013B6BB184682E
S3150800B47066586C58A64209D8A1F10401F5D2524281
S3150800B48004E0012202E0002BD7D11A46104670BD0F
S3150800B4901FB581EAE173A3EBE17300290093B4BFFA
S3150800B4A04FF0FF330123019301A901230293CDF83D
S3150800B4B00CD0FFF7A7FF05B05DF804FB90422DE915
S3150800B4C0F0410646154606D0884205D0FFF7AAFD84
S3150800B4D0074608B149E00D466C680123336004F15C
S3150800B4E08043013B9B002CB1AA68D258043B0AB999
S3150800B4F0013CF8E730462146FFF730FD07460028AD
S3150800B50033D1B368D5F808C018463D463946A14236
S3150800B5100FD002685CF821E0AD1875442CBF0122F3
S3150800B520002240F8045B013175452CBF1546551CB1
S3150800B530EDE74FEA84084344BDB17268944204F1CA
S3150800B540010406D330462146FFF708FD60B9B36803
S3150800B55043441A6808F104082A44AA4243F8042B0B
S3150800B5602CBF00250125E7E707463846BDE8F081E8
S3150800B570F0B5064685B008460F4611461446FFF74D
S3150800B5800AFF002830DB01230193A6424FF000038F
S3150800B5900293039306D101A83146FFF743FD0546FA
S3150800B5A0E8B901ACBE4207D160680123336000F1F7
S3150800B5B08043013B9B000BE030463946FFF732FDDE
S3150800B5C0054660B9F0E7A268D258043B12B90138BB
S3150800B5D00028F8D1A168B268FFF70CFB002501A87E
S3150800B5E0FFF7A6FC284601E06FF0090005B0F0BD9C
S3150800B5F0F8B50C681368054663430E46174612D518
S3150800B60008461146FFF7C7FE0028284604DB3146E0
S3150800B6103A46FFF7ADFF08E039463246FFF7A8FF7E
S3150800B62028B9644202E0FFF749FF00B92C60F8BD6B
S3150800B630F8B50C68136805466343002B0E46174693
S3150800B64012DD08461146FFF7A6FE0028284604DB49
S3150800B65031463A46FFF78CFF08E039463246FFF78F
S3150800B66087FF28B9644202E0FFF728FF00B92C607B
S3150800B670F8BD1FB582EAE273A3EBE273002A0093D2
S3150800B680B4BF4FF0FF330123019301AA01230293AC
S3150800B690CDF80CD0FFF7CCFF05B05DF804FB2DE91B
S3150800B6A0F047002386B0154688424FF001028146CE
S3150800B6B00E468DE80C00029303920493059306D177
S3150800B6C06846FFF7AFFC044600284DD16E46A945EB
S3150800B6D007D103A84946FFF7A5FC0446002843D12D
S3150800B6E003ADD6F804A00AF18043013B9B00BAF1EA
S3150800B6F0000F06D0B268D258043B12B90AF1FF3AD5
S3150800B700F5E76F6807F18043013B9B002FB1AA68F4
S3150800B710D258043B0AB9013FF8E7484607EB0A0145
S3150800B720FFF71CFC0446F8B921464846FFF7DCFC3F
S3150800B7300446C8B907F1804808F1FF384FEA880877
S3150800B7406FB1D9F80820AB68424453F80830504620
S3150800B750B168FFF779FA013FA8F10408F0E7326803
S3150800B7602B685343C9F8003003A8FFF7E1FB684686
S3150800B770FFF7DEFB204606B0BDE8F0871FB50123BC
S3150800B780009201AA01930293CDF80CD0FFF787FF28
S3150800B79005B05DF804FB2DE9F04F9BB00190884693
S3150800B7A01846002117460693FFF772FE002800F098
S3150800B7B0AE8100240125384606990B950C940D9404
S3150800B7C00E950F941094119512941394149515943C
S3150800B7D01694179518941994FFF7DDFDA04218DA08
S3150800B7E0019B1BB9B8F1000F09D110E00198214659
S3150800B7F0FFF77AFC0646002840F07881F2E74046D3
S3150800B8003946FFF70FFC0646002840F06F810020F6
S3150800B8107FE10BA83946FFF705FC0646002840F0ED
S3150800B82065810EA80699FFF7FDFB0646002840F03D
S3150800B8305D81796811A802310E950B95FFF78EFB8D
S3150800B8400646002840F05281314611A8FFF74CFC05
S3150800B8500646002840F04A8114A80221FFF77EFB1D
S3150800B8600646002840F0428117A80321FFF776FB19
S3150800B8700646002840F03A810EA8FFF77BFC00F048
S3150800B8801F001F2813D0C0F11F0319460BA80293E7
S3150800B890FFF7EFFC0646002840F028810EA802991B
S3150800B8A0FFF7E7FC0646002840F0208100E00296F4
S3150800B8B00C9C0F9D04F1FF396B1EC3EB090B4FEA75
S3150800B8C04B1A0EA851460093FFF7D3FC06460028EC
S3150800B8D040F00C814FEA8B0B0BA80EA9FFF792FDDF
S3150800B8E000280EDB139A0BA852F80B3001460133D9
S3150800B8F042F80B300EAAFFF79BFE06460028EBD04F
S3150800B900F4E00EA85146FFF705FD0646002840F06C
S3150800B910ED80009B4FEA830BABF10403089304F117
S3150800B9200063013B5B1B5B0103936FF003036B43EF
S3150800B93004F18044013CA4000793009B994540F21A
S3150800B940AE800D9B109A195952F80BE0139D71455C
S3150800B95005D3079A25444FF0FF33AB5022E00798EA
S3150800B960234404EB000A53F8040CBEF1000F15D06B
S3150800B970002305910493DDE9042342EA00021046F8
S3150800B98019467246002327F09FFE00234FF0FF3228
S3150800B9908B4208BF824203D2104601E04FF0FF30C7
S3150800B9A045F80A00079B139AE5185359A4F1040AA7
S3150800B9B001335351A4F108030993139A14A8535950
S3150800B9C00021013B5351FFF78FFB002840F08B8085
S3150800B9D00099169B109A11B10899515800E00099E0
S3150800B9E0196052F80B2014A85A60139B01465A593D
S3150800B9F0FFF7C4FE0146002877D117A8FFF774FBA6
S3150800BA00002870D1B9F1010F0D9A18BF0999199B31
S3150800BA1018BF5058186052F80A1014A859601259DD
S3150800BA2017A99A60FFF7EEFC0028C6DC139B14A83A
S3150800BA300EA95A59FFF7A2FE002854D114A8039953
S3150800BA40FFF717FC00284ED10BA8014614AAFFF7EA
S3150800BA50EFFD0146002848D10BA8FFF719FD00287D
S3150800BA6016DA14A80EA9FFF7DDFA00283BD114A8A8
S3150800BA700399FFF7FEFB002835D10BA8014614AA47
S3150800BA80FFF7B6FD00282ED1139A5359013B53519F
S3150800BA90039B09F1FF39203B0393043C4DE7019BC7
S3150800BAA053B1184611A9FFF7BDFAE0B9069B3A68E3
S3150800BAB01B685343019A1360B8F1000F16D00BA800
S3150800BAC00299FFF727FC70B93B680BA940460B9310
S3150800BAD0FFF7A8FA014640B94046FFF7D9FC28B94E
S3150800BAE00123C8F80030064600E00E460BA8FFF70B
S3150800BAF01FFA0EA8FFF71CFA11A8FFF719FA14A8DF
S3150800BB00FFF716FA17A8FFF713FA304601E06FF0A9
S3150800BB100B001BB0BDE8F08F70B504460E46104604
S3150800BB2000211546FFF7B4FC002820DB002021463B
S3150800BB3032462B46FFF72FFED8B920460021FFF7DD
S3150800BB40A7FC00280BDA204621462A46FFF750FDB7
S3150800BB50F2E7204621462A46FFF76AFD48B92046FD
S3150800BB602946FFF74FFC0028F3DA002070BD6FF076
S3150800BB70090070BDF0B58BB000230126074604A85E
S3150800BB801546019602930393049605930693079622
S3150800BB9008930993FFF746FA0446002860D107A8D8
S3150800BBA02946FFF73FFA0446002859D104A8FFF7AB
S3150800BBB0C8FA054607A8FFF7C4FA854228BF05460E
S3150800BBC004A82946FFF7A6FB0446002848D107A87B
S3150800BBD02946FFF79FFB0446002841D1079604969D
S3150800BBE004A80021FFF754FC78B304A8FFF7A9FAC4
S3150800BBF0014604A8FFF78EFB044688BB07A8FFF793
S3150800BC00A0FA014607A8FFF785FB044640BB04A82F
S3150800BC1007A9FFF7F7FB002808DB04A8014607AACF
S3150800BC20FFF7A6FC0446D8B904A807E007A801460A
S3150800BC3004AAFFF79DFC044690B907A80121FFF75F
S3150800BC4069FB04460028CBD00AE007A82946FFF777
S3150800BC5010FB044620B9384607A9FFF7E3F904465E
S3150800BC6001A8FFF765F904A8FFF762F907A8FFF727
S3150800BC705FF920460BB0F0BD70B5202988B005469F
S3150800BC800C4616460AD8184669462246B04738B9B9
S3150800BC90284669462246FFF793FA01E06FF003004B
S3150800BCA008B070BD2DE9F04180469CB00F4610469D
S3150800BCB001211646FFF7ECFB002840F34D810023CF
S3150800BCC0012501A83946324604950593069307953A
S3150800BCD0089309930A950B930C930D950E930F935E
S3150800BCE00195029303931095119312931395149348
S3150800BCF0159316951793189319951A931B93FFF78F
S3150800BD0039FF0446002840F00A8101A82946FFF7B2
S3150800BD10BFFB002840F0018104A839463246FFF7E8
S3150800BD20FBFE0446002840F0FA8007A804A9FFF79E
S3150800BD3079F90446002840F0F28010A83146FFF74A
S3150800BD4071F90446002840F0EA8013A83146FFF747
S3150800BD5069F90446002840F0E2800AA82946FFF758
S3150800BD60C3F90446002840F0DA8021460DA8FFF7FB
S3150800BD70BBF90446002840F0D280214616A8FFF7F2
S3150800BD80B3F90446002840F0CA8019A82946FFF7E7
S3150800BD90ABF90446002840F0C280099B1B68D80707
S3150800BDA04CD407A80121FFF7B5FA0446002840F04D
S3150800BDB0B6800C9B1B68DD0710D40F9B1B68DC073D
S3150800BDC00CD40AA80121FFF7A5FA0446002840F07A
S3150800BDD0A6800DA80121FFF79DFADAE70AA8014611
S3150800BDE010AAFFF705FC0446002840F098800DA825
S3150800BDF0014604AAFFF71CFC04460028E1D08EE0A1
S3150800BE0013A80121FFF786FA0446002840F0878028
S3150800BE10189B1B68D90716D41B9B1B68DA0712D414
S3150800BE2016A80121FFF776FA0446002877D119A843
S3150800BE300121FFF76FFA0446002870D1159B1B688D
S3150800BE40DB07DDD510E016A8014610AAFFF7D0FBE0
S3150800BE500446002863D119A8014604AAFFF7E8FB9F
S3150800BE6004460028DCD05AE007A813A9FFF7CAFA47
S3150800BE7000281FDB07A8014613AAFFF7D9FB0446CB
S3150800BE8000284CD10AA8014616AAFFF7D1FB04469A
S3150800BE90002844D10DA8014619AAFFF7C9FB044694
S3150800BEA000283CD107A80021FFF7F2FA00287FF402
S3150800BEB074AF18E013A8014607AAFFF7B9FB0446B2
S3150800BEC068BB16A801460AAAFFF7B2FB044630BBB0
S3150800BED019A801460DAAE0E716A801463246FFF75B
S3150800BEE087FB0446D8B916A80021FFF7D1FA00281F
S3150800BEF0F2DB06E016A801463246FFF799FB044630
S3150800BF0068B916A83146FFF77DFA0028F2DA4046E6
S3150800BF1016A9FFF787F8044601E06FF00D0404A898
S3150800BF20FFF706F807A8FFF703F80AA8FFF700F8CF
S3150800BF300DA8FEF7FDFF01A8FEF7FAFF10A8FEF709
S3150800BF40F7FF13A8FEF7F4FF16A8FEF7F1FF19A8E6
S3150800BF50FEF7EEFF204601E06FF003001CB0BDE8D7
S3150800BF60F08101F05BBD00002DE9F041154606465B
S3150800BF708CB003A80F46984600F016FE30462946B0
S3150800BF8001F0B2F90446B0B9129B30460093139BF0
S3150800BF9003A9019342462B4601F086FA044650B996
S3150800BFA003A801F083F828B9384603A9FFF73AF839
S3150800BFB0044600E0034C03A800F01CFE20460CB023
S3150800BFC0BDE8F08180B0FFFF00214FF49A72F9F7BF
S3150800BFD0E2BF10B50446F8B100F01CFE04F1880073
S3150800BFE000F008FE04F1AC0000F004FE04F1E000E5
S3150800BFF000F000FE04F5827000F0FCFD04F17C0000
S3150800C000FEF796FF04F1D000FEF792FF04F5947050
S3150800C010BDE81040FEF78CBF10BDF8B5C46D0546E7
S3150800C0200734E4089C4228BF1C4608460E461146BB
S3150800C0302246FFF7C5F80746C0B9E96DE4008C4209
S3150800C0400DD84C3530462946FFF7DCF900280DDBBC
S3150800C050304631462A46BDE8F840FFF7E9BA304689
S3150800C060611AFFF757F90028EBD007463846F8BD9E
S3150800C0702DE9F04F9B46436D97B005468846144612
S3150800C080002B00F0AE800DA800F08EFD04A8FEF788
S3150800C09048FF07A8FEF745FF0AA8FEF742FF4FF03C
S3150800C0A00C0A4FF00C09239B2846009304A90DAAF5
S3150800C0B0229B01F0B3FC0746002840F0848005F176
S3150800C0C04C0640460DA93246FFF726FD07460028CE
S3150800C0D079D1B9F1010975D040463946FFF7D8F943
S3150800C0E00028E0D0284607A9209A219BFFF795FF4C
S3150800C0F00746002867D14FF01F09EB6D0AA80733DA
S3150800C1004FEAD30C6146229A239BCDF80CC0FFF761
S3150800C110B3FD0746002856D1E96DDDF80CC00AA81C
S3150800C120C1EBCC01FFF7F6F8074600284BD1B9F169
S3150800C130010958D00AA80121FFF7AAF90028DCDB73
S3150800C1400AA83146FFF75EF90028D6DA20464146A6
S3150800C1505A46FFF7A4FA0746A8BB07A8014622468F
S3150800C160FFF746FA074670BB07A801460AAAFFF773
S3150800C17096FA074638BB04A801460AAAFFF78FFABB
S3150800C180074600BB204604A93246FFF78BFD074643
S3150800C190C8B92046214607AAFFF781FA074690B98B
S3150800C1A0204621463246FFF7B7FC074658B9BAF18A
S3150800C1B0010A07D020463946FFF76AF900283FF4F6
S3150800C1C070AF00E00A4F0DA800F014FD04A8FEF7B2
S3150800C1D0AFFE07A8FEF7ACFE0AA8FEF7A9FE38468A
S3150800C1E002E0044800E0024817B0BDE8F08F00BF3F
S3150800C1F000B3FFFF80B0FFFF2DE9F043064699B074
S3150800C2000FA898468946174600F0CEFC03A8FEF705
S3150800C21088FE06A8FEF785FE09A8FEF782FE0CA88A
S3150800C220FEF77FFE736D002B00F0828020980121B7
S3150800C230FFF72EF9002801DA3F4C68E006F14C05B5
S3150800C24020982946FFF7DEF80028F5DA219801211B
S3150800C250FFF71EF90028EFDB21982946FFF7D2F8E9
S3150800C2600028E9DA3046414601F03EF8044600283F
S3150800C2704DD1304603A94A463B46FFF7CEFE044653
S3150800C280002844D106A821992A46FFF70BFD044643
S3150800C29000283CD109A803A906AAFFF700FA044614
S3150800C2A0002834D109A801462A46FFF735FC04467A
S3150800C2B068BB0CAF3846209906AAFFF7F0F9044682
S3150800C2C028BB384639462A46FFF726FC0446F0B905
S3150800C2D08DE8800130460FA909AA06F1280301F066
S3150800C2E01FFB044698B90FA800F0E0FE0028A3D16A
S3150800C2F00FA801462A46FFF70FFC044638B90FA8CF
S3150800C3002099FFF77FF80C4B002818BF1C460FA88A
S3150800C31000F070FC03A8FEF70BFE06A8FEF708FE61
S3150800C32009A8FEF705FE0CA8FEF702FE204600E067
S3150800C330024819B0BDE8F08300B2FFFF80B0FFFFE6
S3150800C34000F048BC00F099BC036B2BB1C36B002B03
S3150800C3500CBF022001207047184670477FB50C466F
S3150800C36005460C3401A81646FEF7DBFD291D01A873
S3150800C3702246FFF75DF9054668B929462046FFF7C4
S3150800C38087F801A900280CBF002206F00102204602
S3150800C390FEF774FE054601A8FEF7CAFD284604B056
S3150800C3A070BD00004B6E70B504460D462BB92A1DAC
S3150800C3B00146BDE87040FFF7AFBB0368002B07DBFB
S3150800C3C02046FEF7D7FEAB6DB0EB430F07D904E066
S3150800C3D00021FFF75DF80028F2D0114870BD6B6E9A
S3150800C3E020469847D8B923682E1D002B10DA204618
S3150800C3F00021FFF74DF858B1204621463246FFF78F
S3150800C400F7F8EFE7204621463246FFF7B1F830B98C
S3150800C41020463146FEF7F6FF0028F3DA002070BD05
S3150800C42080B0FFFF2DE9F04305468DB06846884683
S3150800C4301746FEF776FD03A8FEF773FD06A8FEF776
S3150800C44070FD09A8FEF76DFDAB69002B79D107F1E0
S3150800C450180103A80A46FFF722F90446002840F007
S3150800C460F98103A82946FFF79DFF0446002840F0F6
S3150800C470F18106A8394603AAFFF7BAF80446002848
S3150800C48040F0E8812E1D06A83146FEF7BBFF0028BE
S3150800C49005DB06A801463246FFF76AF8EEE709A863
S3150800C4A0394603AAFFF7C4F80446002840F0D281AB
S3150800C4B0099B002B09DB03A806A909AAFFF7EFF8D1
S3150800C4C00446002840F0C6810BE009A80021FEF7C3
S3150800C4D0DFFF0028EFD009A801463246FFF788F8A3
S3150800C4E0E2E703A82946FFF75DFF0446002840F067
S3150800C4F0B181684603A90322FFF740F904460028DC
S3150800C50040F0A88168463146FEF77CFF00280CDB20
S3150800C510684669463246FFF72BF8EFE705F110093A
S3150800C52048460021FEF7B4FF90BB07F10C0906A8A0
S3150800C53049464A46FFF7B3F80446002840F08A8180
S3150800C5406FE003A839463A46FFF7A9F804460028DB
S3150800C55040F0808103A82946FFF724FF04460028F7
S3150800C56040F07881684603A90322FFF707F90446D5
S3150800C570002840F06F812E1D68463146FEF742FFBF
S3150800C5800028CBDB684669463246FEF7F1FFEEE740
S3150800C59007F1180103A80A46FFF781F804460028A0
S3150800C5A040F0588103A82946FFF7FCFE04460028F8
S3150800C5B040F0508103A906A80A46FFF770F804461A
S3150800C5C0002840F0478106A82946FFF7EBFE0446F7
S3150800C5D0002840F03F8103A806A94A46FFF75FF8FE
S3150800C5E00446002840F0368103A82946FFF7DAFEFC
S3150800C5F00446002840F02E816846694603AAFEF7DD
S3150800C600F7FF0446002840F0258168463146FEF7C4
S3150800C610F9FE002889DB684669463246FEF7A8FF18
S3150800C620EFE706A82946FFF7BDFE0446002840F0B6
S3150800C630118106A80121FEF71CFE0446002840F0D9
S3150800C64009812E1D06A83146FEF7DCFE002805DB0B
S3150800C65006A801463246FEF78BFFEEE703A83946E1
S3150800C66006AAFFF71CF80446002840F0F38003A842
S3150800C6702946FFF797FE0446002840F0EB8003A8FA
S3150800C6800121FEF7F6FD0446002840F0E38003A8E2
S3150800C6903146FEF7B7FE002805DB03A801463246F9
S3150800C6A0FEF766FFEFE706A909A80A46FEF7F7FFB1
S3150800C6B00446002840F0CE8009A82946FFF772FEF6
S3150800C6C00446002840F0C68009A80121FEF7D1FDDE
S3150800C6D00446002840F0BE8009A83146FEF792FEBF
S3150800C6E0002805DB09A801463246FEF741FFEFE7B9
S3150800C6F006A869466A46FEF7D2FF0446002840F0B7
S3150800C700A98006A82946FFF74DFE0446002840F0F2
S3150800C710A18006A8014603AAFEF78AFF0446002858
S3150800C72040F09880069B002B05DB06A8014603AA65
S3150800C730FEF77EFF18E006A80021FEF7A9FE0028EE
S3150800C740F3D006A801463246FEF752FFE6E7069BF7
S3150800C750002B0DDA06A80021FEF79AFE40B106A8BE
S3150800C76001463246FEF744FF04460028EFD071E042
S3150800C77003A8014606AAFEF75BFF0CE0039B002B05
S3150800C7800DDA03A80021FEF783FE40B103A801468F
S3150800C7903246FEF72DFF04460028EFD05AE003A8DC
S3150800C7A001466A46FEF77BFF0446002852D103A8D5
S3150800C7B02946FFF7F7FD044600284BD103A8014692
S3150800C7C009AAFEF735FF0446002843D1039B002B30
S3150800C7D009DB09A8494607F11802FEF760FF044677
S3150800C7E0002837D10BE003A80021FEF751FE0028E8
S3150800C7F0EFD003A801463246FEF7FAFEE3E709A89A
S3150800C8002946FFF7CFFD044620BB09A80121FEF7FC
S3150800C81030FD0446F0B909A83146FEF7F3FD0028B5
S3150800C82005DB09A801463246FEF7A2FEF1E74046B7
S3150800C83006A9FEF7F7FB044660B908F10C0003A940
S3150800C840FEF7F0FB044628B908F1180009A9FEF717
S3150800C850E9FB04466846FEF76BFB03A8FEF768FB90
S3150800C86006A8FEF765FB09A8FEF762FB20460DB091
S3150800C870BDE8F083F0B501F1180787B006460D4606
S3150800C88038460021FEF704FE00284DD06846FEF71C
S3150800C89048FB03A8FEF745FB68463946321DFFF7F5
S3150800C8A001FA0446C8BB03A869466A46FEF7F7FEBE
S3150800C8B0044690BB03A83146FFF774FD044660BBE7
S3150800C8C02846294603AAFEF7EAFE044628BB284658
S3150800C8D03146FFF767FD0446F8B90C352846294660
S3150800C8E003AAFEF7DCFE0446B8B928463146FFF728
S3150800C8F059FD044688B9284629466A46FEF7CFFEFA
S3150800C900044650B928463146FFF74CFD044620B97F
S3150800C91038460121FEF7E8FB04466846FEF708FBA1
S3150800C92003A8FEF705FB204607B0F0BD2DE9F04742
S3150800C930012A8AB007460D46914603D80968FFF7CB
S3150800C94099FFE6E010460C2101F0C0FC804600285D
S3150800C95000F0DE8001A8FEF7E4FA04A8FEF7E1FA83
S3150800C96007A8FEF7DEFA296840461831FEF75AFB93
S3150800C9700446002840F0B58008F10C064FF0010A7D
S3150800C98055F82A203046A6F10C011832FEF787FE24
S3150800C9900446002840F0A58030463946FFF702FDD8
S3150800C9A00446002840F09D800AF1010ACA4506F1AE
S3150800C9B00C06E5D10C2606FB09F6A6F10C0101A822
S3150800C9C041443A1DFFF76EF90446002840F0898075
S3150800C9D0183E09F1FF3A05EB8905464404A801A962
S3150800C9E0BAF1000F0CD1FEF71DFB0446002878D1DA
S3150800C9F004A907A80A46FEF752FE0446E0B170E00D
S3150800CA003246FEF74CFE044600286AD104A8394689
S3150800CA10FFF7C8FC0446002863D155F8042C01A882
S3150800CA2001461832FEF73BFE0446002859D101A8F4
S3150800CA303946FFF7B7FCD8E707A83946FFF7B2FC2F
S3150800CA40044600284DD155F8040C07AA0146FEF7FE
S3150800CA5026FE0446002844D155F8040C3946FFF74B
S3150800CA60A1FC044600283CD155F8040C07AA0C3052
S3150800CA700146FEF714FE044698BB55F8040C3946E1
S3150800CA800C30FFF78FFC044658BB55F8040C04AA73
S3150800CA900C300146FEF703FE044610BB55F8040C9D
S3150800CAA039460C30FFF77EFC0446D0B955F8040C1D
S3150800CAB0B968FEF77EFA044698B955F8040CB968C1
S3150800CAC00C30FEF776FA044658B955F8040D0C3EB4
S3150800CAD01830FEF72DFABAF1000F02D00AF1FF3A24
S3150800CAE07CE701A8FEF724FA04A8FEF721FA07A8AE
S3150800CAF0FEF71EFA00250C2000FB05800135FEF71F
S3150800CB0017FA4D45F7D1404608F06EFA204600E080
S3150800CB1001480AB0BDE8F08780B2FFFF2DE9F0476B
S3150800CB2081460D461F461446C3F3450A0026CAEB3E
S3150800CB300603D3F1000848EB030828462146424677
S3150800CB40FEF79CFA90B905F10C0004F10C01424677
S3150800CB50FEF794FA50B924340EB90126E7E7484699
S3150800CB602946FA09BDE8F047FFF7F8BBBDE8F087A4
S3150800CB70054B1A781AB1824203D00C33F9E71046EE
S3150800CB8070471846704700BF609E0308054B1A7821
S3150800CB9022B15A88824203D00C33F8E71046704710
S3150800CBA018467047609E030810B5044658B1FEF74C
S3150800CBB0B8F904F10C00FEF7B4F904F11800BDE861
S3150800CBC01040FEF7AEB910BD18B100217C22F9F766
S3150800CBD0E2B9704710B5044658B1FFF7F5FF04F1FE
S3150800CBE07C00FEF79EF904F18800BDE81040FFF7C7
S3150800CBF0DBBF10BD10B5044658B1FEF799F904F12C
S3150800CC000C00FEF795F904F11800BDE81040FEF790
S3150800CC108FB910BD38B5044670B3036E012B12D018
S3150800CC200430FEF785F904F11000FEF781F904F1E6
S3150800CC301C00FEF77DF904F12800FFF7DBFF04F17D
S3150800CC404C00FEF775F9636F73B10025A36F9D421B
S3150800CC5007D2636F242000FB0530FFF7CBFF0135B1
S3150800CC60F4E7606F08F0C0F904F17C039C4203D036
S3150800CC70002222700134F9E738BD10B5044658B1D0
S3150800CC80FFF7C8FF04F17C00FEF752F904F18800AB
S3150800CC90BDE81040FFF7AEBF10BD38B505460C46D7
S3150800CCA0FEF7C0F970B905F10C0004F10C01FEF7A6
S3150800CCB0B9F938B905F1180004F11801BDE838408A
S3150800CCC0FEF7B0B938BD10B501210446FEF70CFAD7
S3150800CCD0014660B9012104F10C00FEF705FA014688
S3150800CCE028B904F11800BDE81040FEF7FDB908465A
S3150800CCF010BD00002DE9F04702F1180996B0054667
S3150800CD000E464846002190461F46FEF7C1FB10B95D
S3150800CD103046394609E03B6A53B107F1180000214D
S3150800CD20FEF7B6FB20B930464146FFF7B6FFBAE133
S3150800CD303B6AF3B901A8FEF7F4F804A8FEF7F1F880
S3150800CD4007A8FEF7EEF80AA8FEF7EBF80DA8FEF717
S3150800CD50E8F810A8FEF7E5F813A8FEF7E2F801A828
S3150800CD6049464A46FEF79BFC0446002840F0858162
S3150800CD7008E007F118000121FEF78AFB0028D9D040
S3150800CD80B04890E101A82946FFF70CFB04460028A5
S3150800CD9040F0738104A801A94A46FEF780FC0446C0
S3150800CDA0002840F06A8104A82946FFF7FBFA0446E2
S3150800CDB0002840F0628101A801463A46FEF76FFC5A
S3150800CDC00446002840F0598101A82946FFF7EAFAE7
S3150800CDD00446002840F0518104A8014607F10C02D8
S3150800CDE0FEF75DFC0446002840F0478104A8294662
S3150800CDF0FFF7D8FA0446002840F03F8101A801460B
S3150800CE004246FEF715FC0446002840F03681019B91
S3150800CE10002B07DB08F10C0A04A801465246FEF768
S3150800CE2007FC18E001A80021FEF732FB0028F1D024
S3150800CE3001A801462A1DFEF7DBFBE4E7049B002B4D
S3150800CE400DDA04A80021FEF723FB40B104A8014629
S3150800CE502A1DFEF7CDFB04460028EFD00DE1002180
S3150800CE6001A8FEF715FB014668B904A8FEF710FBF2
S3150800CE7028B9284631464246FFF7D4FAFCE0304640
S3150800CE80FFF721FFF8E013A8494601AAFEF707FCB9
S3150800CE900446002840F0F18013A82946FFF782FAD5
S3150800CEA00446002840F0E98001A907A80A46FEF7CB
S3150800CEB0F6FB0446002840F0E08007A82946FFF75D
S3150800CEC071FA0446002840F0D8800AA807A901AAE2
S3150800CED0FEF7E5FB0446002840F0CF800AA829465D
S3150800CEE0FFF760FA0446002840F0C78007A8014605
S3150800CEF04246FEF7D4FB0446002840F0BE8007A849
S3150800CF002946FFF74FFA0446002840F0B68001A8E4
S3150800CF1007A90222FEF732FC0446002840F0AD803D
S3150800CF202F1D01A83946FEF76DFA002805DB01A872
S3150800CF3001463A46FEF71CFBEEE704A90DA80A4689
S3150800CF40FEF7ADFB0446002840F097800DA8294659
S3150800CF50FFF728FA0446002840F08F800DA80146FE
S3150800CF6001AAFEF765FB0446002840F086800D9B63
S3150800CF70002B05DB0DA801460AAAFEF759FB18E0A7
S3150800CF800DA80021FEF784FA0028F3D00DA8014663
S3150800CF903A46FEF72DFBE6E70D9B002B0DDA0DA8AA
S3150800CFA00021FEF775FA40B10DA801463A46FEF78C
S3150800CFB01FFB04460028EFD05FE007A801460DAA2C
S3150800CFC0FEF736FB0CE0079B002B0DDA07A80021BD
S3150800CFD0FEF75EFA40B107A801463A46FEF708FB97
S3150800CFE004460028EFD048E007A8014604AAFEF741
S3150800CFF056FB0446002840D107A82946FFF7D2F970
S3150800D0000446002839D10AA801465246FEF747FBCE
S3150800D0100446002831D10AA82946FFF7C3F9044671
S3150800D02058BB10A807A90AAAFEF702FB044620BBAC
S3150800D030109B002B08DB30460DA9FDF7F3FF0446CD
S3150800D040D8B90DE080B0FFFF10A80021FEF720FA3E
S3150800D0500028F0D010A801463A46FEF7C9FAE5E7D7
S3150800D06006F10C0010A9FDF7DDFF044628B906F104
S3150800D070180013A9FDF7D6FF044601A8FDF758FFC7
S3150800D08004A8FDF755FF07A8FDF752FF0AA8FDF704
S3150800D0904FFF0DA8FDF74CFF10A8FDF749FF13A891
S3150800D0A0FDF746FF204616B0BDE8F08708B5002113
S3150800D0B01830FEF7EDF9B0FA80F0400908BD000017
S3150800D0C038B505460C46FEF79DF908B10A4838BD3D
S3150800D0D005F10C0004F10C01FEF794F90028F5D1CE
S3150800D0E005F1180004F11801FEF78CF9024B002827
S3150800D0F014BF1846002038BD80B0FFFF2DE9F8435D
S3150800D100012A05460E4691469846089C099F3ED830
S3150800D11001F118000021FEF7BBF948B917B91D48F7
S3150800D120BDE8F88320700123C8F80030BDE8F8830D
S3150800D130281DFEF73FF80546B9F1000F13D1420046
S3150800D14001329742C8F80020E9D32146042301F8A2
S3150800D150013B30462A46FEF769F8C8B9691C06F14C
S3150800D1600C0021440EE0431C9F42C8F80030D6D379
S3150800D170002106F10C00FDF7D4FF2146023001F824
S3150800D180010B30462A46BDE8F843FEF74FB8024879
S3150800D190BDE8F88300B1FFFF80B0FFFFF8B50C4685
S3150800D1A016461F460BB91648F8BD137833B9012F32
S3150800D1B0F9D1BDE8F8400846FFF785BD0430FDF70C
S3150800D1C0F9FF33780546042B18D1420001329742FD
S3150800D1D0E9D12046711C2A46FDF7F2FF78B9691C89
S3150800D1E004F10C0031442A46FDF7EAFF38B904F188
S3150800D1F018000121BDE8F840FDF776BF0148F8BDE3
S3150800D20080B0FFFF80B1FFFF012B30B515460ED960
S3150800D2101468621C2A6024784CB1013B9C4206D8EB
S3150800D22013192B602346BDE83040FFF7B7BF014806
S3150800D23030BD00BF80B0FFFFF7B5099C1D46089EAC
S3150800D24064B1771C013C00970194FFF757FF30B98A
S3150800D2502B6833702B6801332B6000E0014803B05C
S3150800D260F0BD00BF80B0FFFF022A10B5044601D802
S3150800D2700D4810BD0B685A1C0A601A78032AF7D1A4
S3150800D2809A1C0A60DA1C58780A609B7843EA0020E0
S3150800D290FFF77CFC034628B12046BDE81040197804
S3150800D2A000F04CBE014810BD80B0FFFF80B1FFFF03
S3150800D2B070B500780E4614461D46FFF759FC58B15E
S3150800D2C00322022D326009D9227043881B0A637033
S3150800D2D043880020A37070BD014870BD014870BD29
S3150800D2E080B0FFFF00B1FFFFF0B5054687B001F13A
S3150800D2F018000F460121FEF7CBF80646002840F035
S3150800D300AA802846FFF720F8012840F0A68038466C
S3150800D3103146FEF7BDF80028C0F29D8007F10C04DF
S3150800D32020463146FEF7B4F80028C0F294802E1D38
S3150800D33038463146FEF766F8002880F28C8020468B
S3150800D3403146FEF75FF8002880F285806846FDF7CB
S3150800D350E8FD03A8FDF7E5FD214622466846FEF7E7
S3150800D3609EF9044600286ED168462946FFF71AF842
S3150800D3700446002867D103A839463A46FEF78FF9CE
S3150800D380044600285FD103A82946FFF70BF8044690
S3150800D390002858D1AB6903A80146EBB90322FEF76A
S3150800D3A068F9044600284ED1039B002B08DB03A826
S3150800D3B001463A46FEF773F90446002843D11DE0B4
S3150800D3C003A80021FEF764F80028F0D003A8014658
S3150800D3D03246FEF70DF9E4E705F11002FEF708F903
S3150800D3E0044680BB03A83146FEF70CF80028DEDBAE
S3150800D3F003A801463246FEF7BBF8F1E703A829461B
S3150800D400FEF7D0FF0446F0B903A8014605F11C0251
S3150800D410FEF7EEF80446B0B903A83146FDF7F2FF69
S3150800D420002808DB03A801463246FEF7A1F80028C3
S3150800D430F2D0044607E0684603A9FDF7E3FF002893
S3150800D440074C08BF00246846FDF772FD03A8FDF7E0
S3150800D4506FFD204602E0024800E0024807B0F0BD32
S3150800D46080B3FFFF80B0FFFF38B50C460546FEF7D0
S3150800D4706BFF012801460ED12046FEF709F8002861
S3150800D4800BDB204605F14C01FDF7BCFF00280448DC
S3150800D490B8BF002038BD034838BD014838BD00BFB5
S3150800D4A080B3FFFF80B0FFFF2DE9F04F0546BBB004
S3150800D4B00F4603F11800012192461C46FDF7E8FFC6
S3150800D4C08346002840F0DA8128465146FFF7CCFF0C
S3150800D4D0002840F0D68128462146FFF705FF002898
S3150800D4E040F0CF812846FEF72FFF012840F0D5816E
S3150800D4F004A8FDF716FD07A8FDF713FD05F14C0373
S3150800D500184659460293FDF70CFE012840F0B681ED
S3150800D51004F10C0005F13401FDF774FF48B9204603
S3150800D52005F12801FDF76EFFB0FA80F35B09019358
S3150800D53001E0CDF804B0EE6D019B0136760823B103
S3150800D540D5F87480B8F1000F54D10220242100F0D8
S3150800D550BDFE8046002800F084812146FFF79DFB2A
S3150800D5600446002840F08F8108F1240948464146C0
S3150800D570FFF793FB0446002840F085810346B34233
S3150800D58003930BD0284649464A46FEF74BFF044606
S3150800D590002840F07881039B0133F0E70DF1E80C91
S3150800D5A04CF8849D284661460122CDF80CC0FFF749
S3150800D5B0BDF90446002840F0668128464946424699
S3150800D5C04B46FFF797FB0446002840F05C81DDF8E0
S3150800D5D00CC0284661460122CDF86490FFF7A6F9EB
S3150800D5E00446002840F04F81019B1BB10223C5F871
S3150800D5F07480AB6700215046FDF793FD514681467E
S3150800D60004A8FDF70FFD0446002840F03C8107A852
S3150800D61002995246FEF70CF80446002840F033817A
S3150800D62019F1FF3318BF012304A807A91A46029364
S3150800D630FDF724FD0446002840F02581721C19A830
S3150800D640214692B2F8F7A7FCB44205D119AA4FF0C1
S3150800D650000C4FF0010E15E0A2464FF000095146A6
S3150800D66004A8FDF75EFD19ABE25C00FA09F0104369
S3150800D670E054B244B9F1000F02D14FF00109EEE7C8
S3150800D6800134E1E7B64502F101021BD8147812F815
S3150800D69001AC8CEA040303F0010181F001010AFBE5
S3150800D6A001F0DBB2C0B200EA03090CEA040C4340FD
S3150800D6B04AEAC11149EA0C0C137002F8011C0EF172
S3150800D6C0010EDFE710A8FFF76FFA3AAB3344284696
S3150800D6D03946424613F8843CFFF720FA04460028E8
S3150800D6E040F0A28007F1180948460121FDF7FCFC25
S3150800D6F00446002840F09880449B002B00F08D805B
S3150800D700AB6D0AA80733DB080393FDF70AFC0DA8DF
S3150800D710FDF707FC4FF00C0A0AA80399449A459BA3
S3150800D720FEF7AAFA0346002856D10AA8291DFDF7CE
S3150800D73069FE002804DB0AA80121FDF7EBFDF1E7E5
S3150800D740BAF1010A52D00AA80121FDF7A1FE002864
S3150800D750E2DD484649460AAAFDF7A1FF0346002826
S3150800D7603AD148462946FEF71DFE0346A0BB0AA93C
S3150800D7700DA80A46FDF793FF034668BB0DA8294680
S3150800D780FEF710FE034638BB384639460DAAFDF7A4
S3150800D79086FF034600BB38462946FEF703FE0346C6
S3150800D7A0D0B90DA801460AAAFDF779FF034698B92C
S3150800D7B00DA82946FEF7F6FD034668B907F10C09D8
S3150800D7C0484649460DAAFDF76AFF034620B948466A
S3150800D7D02946FEF7E7FD03460AA80393FDF7A8FBCB
S3150800D7E00DA8FDF7A5FB039BBBB11AE02D4B18E06E
S3150800D7F0284639463A46FEF715FEA0B919AB28461B
S3150800D80010A942469B5DFFF789F960B92846394653
S3150800D8103A4610ABFFF76EFA28B916F1FF36E7D28B
S3150800D82002E01C4600E0044610A8FFF7E3F954BBE3
S3150800D83028463946029AFEF791FD044618BB284643
S3150800D8403946FFF717F8019B04465BB94046FFF7D0
S3150800D850D1F908F12400FFF7CDF9404607F0C4FBDB
S3150800D86000E0114C04A8FDF763FB07A8FDF760FB71
S3150800D8709CB13846FFF7BEF9A3460EE0DFF82CB098
S3150800D8800BE0834609E0019B002BDFD004A8FDF7D7
S3150800D8904FFB07A8FDF74CFBEBE758463BB0BDE846
S3150800D8A0F08F00BF00B3FFFF80B2FFFF80B0FFFF1D
S3150800D8B0F7B507460C461046012116461D46FDF7E4
S3150800D8C0E7FD30B92046294603B0BDE8F040FFF72A
S3150800D8D0E4B930464FF0FF31FDF7DAFD98B929462D
S3150800D8E02046FFF7DAF90546B8B90C34204629462A
S3150800D8F0FDF7CEFD88B120462246391D03B0BDE8A6
S3150800D900F040FDF795BE00230093019338462B4659
S3150800D91021463246FFF7C8FD0546284603B0F0BD46
S3150800D920F0B58BB006460D4617461C46FEF70CFDAD
S3150800D930012824D101A8FFF737F92346304601A963
S3150800D9403A46FFF7B5FF0446A0B930462946109A6D
S3150800D950119BFFF7ADFF044660B93046294601AA78
S3150800D9602B46FFF7C7F9044620B930462946FEF785
S3150800D97081FF044601A8FFF73DF9204600E001486B
S3150800D9800BB0F0BD80B1FFFF2DE9F04F8BB0C46D31
S3150800D9900646894615469A46FEF7D6FC07340128F8
S3150800D9A0DDF854804FEAD40431D14FEAC40B1F275F
S3150800D9B0404602A92246149B984748BB284602A916
S3150800D9C02246FDF7FDFB18BBF16D2846C1EB0B019E
S3150800D9D0FDF7A0FCE0B9013F02D1A0F59A4017E097
S3150800D9E028460121FDF754FD0028E1DB284606F10B
S3150800D9F04C01FDF707FD0028DADA149B30468DE85E
S3150800DA00080151462A464B46FFF74EFD00E00248FC
S3150800DA100BB0BDE8F08F00BF80B0FFFF37B50D46ED
S3150800DA2014460093069B00F1280101932A462346D3
S3150800DA30FFF7AAFF03B030BD03680B4403601078F4
S3150800DA408B422CBF0346431C13707047036810B5FE
S3150800DA5014788B4238BF013C147003685B1A036064
S3150800DA6010BD70B505468EB00123002105A80293A6
S3150800DA70242209238DF8031003930490F8F78BFAF0
S3150800DA8028461021FDF76AFA0646002840F0528219
S3150800DA90AB680EAC1A68196A44F8342D20460DF1A5
S3150800DAA00302FFF7C9FFAB682046596A0DF1030266
S3150800DAB0FFF7C2FFAB682046D96A0DF10302FFF7EC
S3150800DAC0C5FFAB682046196B0DF10302FFF7BEFFD1
S3150800DAD0AB682046596B0DF10302FFF7B7FFAB6839
S3150800DAE02046996B0DF10302FFF7B0FFAB68019A68
S3150800DAF020461A609DF803105B6849B20029019315
S3150800DB008DF8036005DA49420DF10302FFF79EFF1F
S3150800DB1003E00DF10302FFF78FFFAB682046596A51
S3150800DB200DF10302FFF788FFAB682046996A0DF1ED
S3150800DB300302FFF781FFAB682046196B0DF103025C
S3150800DB40FFF784FFAB682046596B0DF10302FFF718
S3150800DB507DFFAB682046996B0DF10302FFF776FF50
S3150800DB60AB682046D96B0DF10302FFF76FFFAB6870
S3150800DB70019A9DF803105A609B6849B201930023E5
S3150800DB8099428DF80330204605DA49420DF1030221
S3150800DB90FFF75CFF03E00DF10302FFF74DFFAB68EB
S3150800DBA02046996A0DF10302FFF746FFAB68204647
S3150800DBB0D96A0DF10302FFF73FFFAB682046596BA0
S3150800DBC00DF10302FFF742FFAB682046996B0DF192
S3150800DBD00302FFF73BFFAB682046D96B0DF1030242
S3150800DBE0FFF734FFAB68019A9DF803109A60DB686B
S3150800DBF049B20193002399428DF80330204605DA8D
S3150800DC0049420DF10302FFF721FF03E00DF103027C
S3150800DC10FFF712FFAB682046D96A0DF10302FFF73A
S3150800DC200BFFAB682046D96A0DF10302FFF704FF24
S3150800DC30AB682046196B0DF10302FFF7FDFEAB68D2
S3150800DC402046196B0DF10302FFF7F6FEAB68204676
S3150800DC50596B0DF10302FFF7EFFEAB682046D96B4F
S3150800DC600DF10302FFF7F2FEAB682046196A0DF1C3
S3150800DC700302FFF7EBFEAB682046596A0DF1030273
S3150800DC80FFF7E4FEAB68019A9DF80310DA601B699A
S3150800DC9049B20193002399428DF80330204605DAEC
S3150800DCA049420DF10302FFF7D1FE03E00DF103022D
S3150800DCB0FFF7C2FEAB682046196B0DF10302FFF7AA
S3150800DCC0BBFEAB682046196B0DF10302FFF7B4FEE5
S3150800DCD0AB682046596B0DF10302FFF7ADFEAB6842
S3150800DCE02046596B0DF10302FFF7A6FEAB682046E6
S3150800DCF0996B0DF10302FFF79FFEAB682046596A40
S3150800DD000DF10302FFF7A2FEAB682046996A0DF1F2
S3150800DD100302FFF79BFEAB68019A9DF803101A6190
S3150800DD205B6949B20193002399428DF80330204676
S3150800DD3005DA49420DF10302FFF788FE03E00DF10B
S3150800DD400302FFF779FEAB682046596B0DF1030213
S3150800DD50FFF772FEAB682046596B0DF10302FFF719
S3150800DD606BFEAB682046996B0DF10302FFF764FE64
S3150800DD70AB682046996B0DF10302FFF75DFEAB68B1
S3150800DD802046D96B0DF10302FFF756FEAB68204615
S3150800DD90996A0DF10302FFF759FEAB682046D96A66
S3150800DDA00DF10302FFF752FEAB68019A9DF80310C6
S3150800DDB05A619B6949B20193002399428DF8033051
S3150800DDC0204605DA49420DF10302FFF73FFE03E05C
S3150800DDD00DF10302FFF730FEAB682046996B0DF193
S3150800DDE00302FFF729FEAB682046996B0DF1030283
S3150800DDF0FFF722FEAB682046D96B0DF10302FFF749
S3150800DE001BFEAB682046D96B0DF10302FFF714FE23
S3150800DE10AB682046996B0DF10302FFF70DFEAB6860
S3150800DE202046596B0DF10302FFF706FEAB68204644
S3150800DE30196A0DF10302FFF709FEAB682046596A15
S3150800DE400DF10302FFF702FEAB68019A9DF8031075
S3150800DE509A61DB6949B20193002399428DF8033030
S3150800DE60204605DA49420DF10302FFF7EFFD03E00C
S3150800DE700DF10302FFF7E0FDAB682046D96B0DF103
S3150800DE800302FFF7D9FDAB682046D96B0DF10302F3
S3150800DE90FFF7D2FDAB682046D96B0DF10302FFF7F9
S3150800DEA0CBFDAB682046196A0DF10302FFF7C4FDE6
S3150800DEB0AB682046996A0DF10302FFF7C7FDAB6808
S3150800DEC02046D96A0DF10302FFF7C0FDAB6820466C
S3150800DED0196B0DF10302FFF7B9FDAB682046596BC4
S3150800DEE00DF10302FFF7B2FD019BA9689DF9032016
S3150800DEF0CB6122EAE2730B62686800230193082368
S3150800DF000133834203D2019C41F82340F8E7002AF3
S3150800DF1010DA039B049903F180435242013B41F80E
S3150800DF202320284602A92A46FDF722FB10B94FF0FE
S3150800DF30FF332B6030460EB070BD000038B50D4675
S3150800DF400446FEF767FE032D257027D1164A174BA0
S3150800DF50E260174A63660823A36023626262236548
S3150800DF60E362A363134A144B6265E363134A144BD3
S3150800DF7001252263A3646560E561E564A5626563BE
S3150800DF8025646564201DFDF7F5F8A06504F14C00CD
S3150800DF90FDF7F0F82566E065002038BD2046FEF757
S3150800DFA039FE084838BD00BF049F030863DA000835
S3150800DFB0849E0308C49E0308A49E0308E49E0308DF
S3150800DFC05C2F002080B1FFFF836813B1083006F08C
S3150800DFD033BE704710B50446FFF7F6FF04F10C0090
S3150800DFE0FFF7F2FF04F11800BDE81040FFF7ECBF99
S3150800DFF0F7B50F4C054623780F46DB07164602D5BC
S3150800E000606800F002FC01234FF4B070237007F03B
S3150800E0100BF8606000F0CCFB00970196606885F00D
S3150800E02001010622032300F01BFC03B0F0BD00BF6C
S3150800E0304C460020F0B5184D85B0074601200C4621
S3150800E040164608F0DBFB2B7803F00F030F2B16D1CF
S3150800E0500020FCF7BDFD114B2246009300230193D7
S3150800E060394603AB686800F0A1FD0446B4FA84F4A7
S3150800E0700120FCF7ADFD039B6409338000E0002412
S3150800E0802B78054EDB0704D5706800F0BEFB00232D
S3150800E0903370204605B0F0BD4C46002089AB000819
S3150800E0A0F0B5174D0746287885B010F001000C46E4
S3150800E0B0164623D0012008F0A1FB0020FCF788FDB6
S3150800E0C0104B2246009300230193394603AB686838
S3150800E0D000F024FC04460120FCF77AFD039B3380FC
S3150800E0E04CB96A682B7892F88020002A0CBF022265
S3150800E0F0042213432B70B4FA84F0400905B0F0BD2E
S3150800E1004C46002089AB000870B5124D06462878A3
S3150800E1100C4610F001001CD0012008F06FFB00200F
S3150800E120FCF756FD22466868314600F0BBFB0446FC
S3150800E1300120FCF74DFD4CB96A682B7892F88020CF
S3150800E140012A0CBF0222042213432B70B4FA84F06E
S3150800E150400970BD4C460020F0B5164C154623788C
S3150800E16085B003F00302032A07460E461ED103F0C4
S3150800E170040303F0FF00D3B1012008F03FFB0020A1
S3150800E180FCF726FD0C4B3946009300230193606883
S3150800E19003AB324600F06EFC04460120FCF718FD7E
S3150800E1A0B4FA84F0039B40092B8000E0002005B0F8
S3150800E1B0F0BD00BF4C46002089AB000870B5134D72
S3150800E1C006462B780C4603F00302032A1CD103F0FB
S3150800E1D0040303F0FF00C3B1012008F00FFB002081
S3150800E1E0FCF7F6FC22466868314600F0E7FB044671
S3150800E1F00120FCF7EDFC1CB92B7843F008032B70C3
S3150800E200B4FA84F0400970BD002070BD4C46002069
S3150800E21070B52C4C2378DB0752D565686B6E012BDD
S3150800E22013D005F10800FFF7CFFE05F11400FFF73C
S3150800E230CBFE05F12000FFF7C7FE05F12C00FFF71E
S3150800E240C9FE05F15000FFF7BFFEAB6F7BB1002694
S3150800E250EB6F9E4207D2AB6F242000FB0630FFF718
S3150800E260B9FE0136F4E705F1780006F0E5FC6068CA
S3150800E2708830FFF7AFFE6068AC30FFF7ABFE60682A
S3150800E280D030FFF7A7FE6068F430FFF7A3FE60689A
S3150800E29000F58C70FFF79EFE606800F59E70FFF72C
S3150800E2A093FE606800F5A470FFF78EFE606800F5BF
S3150800E2B0AA70FFF789FEBDE87040034806F0BCBCAB
S3150800E2C070BD00BF4C46002050460020414338B57B
S3150800E2D08CB2204606F0A8FE054618B90548E52181
S3150800E2E0F1F7DCFF284600212246F7F754FE2846B8
S3150800E2F038BD00BF249F030830B5056885B0A9421C
S3150800E300044622D3481B04281FDD043500954D1BFF
S3150800E310104601951A46089903ABFEF7EFFEA8B911
S3150800E32023689DF80F201A702368BDF80E205A70CE
S3150800E330039B22681B0A93702368039ADA70039B6F
S3150800E340226804331344236000E0014805B030BD59
S3150800E35000B1FFFF2DE9F047C2B006460BAF4C9857
S3150800E3600D4691469A46029725F0B6FE0DF2051817
S3150800E3700446CDF800A002A841462A464B46FFF7B8
S3150800E380BBFF00284FD14A9B02A8009341462A4664
S3150800E3904B46FFF7B1FF002845D14B9B02A80093D7
S3150800E3A041462A464B46FFF7A7FF00283BD1029B6A
S3150800E3B0C3EB0802032A01DC1C4834E05A1C02920B
S3150800E3C0220E1A70029B5A1C0292220C1A70029B89
S3150800E3D05A1C0292220A1A70029B5A1C02921C703C
S3150800E3E002984045E8D8C0EB0808A045E4D34C9904
S3150800E3F0A2B2F7F749FD029A39462244029203ABC4
S3150800E400D21B304600F052FC304600F05DFC03A9F2
S3150800E41002464D98FCF7D4FE28B94D9805F14C02F2
S3150800E4200146FDF779FB42B0BDE8F08700B1FFFF72
S3150800E4302DE9F04FA1B02C9D9A462D9C2B6805908E
S3150800E4409C4289460692DDF8A88072D308462A4679
S3150800E4504146E31AFEF7D8FE00286DD14046FEF77E
S3150800E46025FE002867D10EAE3046FEF79DFB08AFA5
S3150800E47017A8FEF799FB3846FCF753FD0BA8FCF7DF
S3150800E48050FD2B689C4254D3484631462A46E31A27
S3150800E490FEF7BAFE834600283DD12B689C4202D27D
S3150800E4A0DFF8A0B037E0A342FAD0591C29608C42A5
S3150800E4B093F800C0F4D3641A6445F1D3624638462B
S3150800E4C0CDF81CC0FCF77CFEDDF81CC0834610BBEB
S3150800E4D02B680BAC63442B602B9B8DE840010293A1
S3150800E4E0039405984946069A5346FFF733FF834631
S3150800E4F088B98DE88004484617A922464346FFF79F
S3150800E5000FFA834638B917A83146FEF7D9FD0C4AE3
S3150800E510002818BF93463046FEF76CFB17A8FEF78F
S3150800E52069FB3846FCF704FD0BA8FCF701FD5846C5
S3150800E53002E0044800E0044821B0BDE8F08F00BFBF
S3150800E54000B2FFFF80B0FFFF80B3FFFF2DE9F04F59
S3150800E55097B0239E9B46249F336805909F42894621
S3150800E56092467AD30DF134084046FEF71DFB0AADF4
S3150800E57007A8FCF7D6FC2846FCF7D3FC259B48469B
S3150800E5800093269B5946019307AA4346FFF7FCF9D1
S3150800E590DDF814C00446002854D1219BCDF800802C
S3150800E5A00193229B039502936046494652465B4671
S3150800E5B0FFF7D0FE0446002844D128462946209A6B
S3150800E5C0FDF76DF8044600283CD1284607A92A46D7
S3150800E5D0FDF72EF80446002834D12846294609F1C5
S3150800E5E04C02FDF799FA044660BB33684846009327
S3150800E5F0FB1A01934146524606ABFEF71DFE04463A
S3150800E60000BB3268069B284613443360FCF7D2FDEC
S3150800E610336806909F4214D3FF1A421C974210D3C0
S3150800E620FF280ED85A1C3260187031682846069A98
S3150800E630FCF7FCFD044628B93268069B1344336090
S3150800E64000E0084C4046FEF7D5FA07A8FCF770FC30
S3150800E6502846FCF76DFC204600E0024817B0BDE8E6
S3150800E660F08F00BF00B1FFFF2DE9F04F8BB0179C6C
S3150800E6701F46189D236883469D4289469046DDF8C5
S3150800E68050A0159E2BD3199B084600931A9B394612
S3150800E690019352463346FFF777F908BB2368484685
S3150800E6A00093EB1A01933146424609ABFEF7C4FDC7
S3150800E6B0B0B92268099B584613442360169BCDF8C7
S3150800E6C000A00293199B019605931A9B039406933F
S3150800E6D00495494642463B46FFF738FF00E00248A4
S3150800E6E00BB0BDE8F08F00BF00B1FFFF2DE9F04386
S3150800E6F087B003AC074620460E4690469946FCF777
S3150800E70010FC20460121FCF7EFFC054698B98DE878
S3150800E71010023846314622464346FFF701F90546B8
S3150800E72048B90E9B00940193384631462246334633
S3150800E730FFF7F6F805462046FCF7FAFB284607B029
S3150800E740BDE8F0832DE9FF41054601A80E461746A8
S3150800E7509846FCF7E6FB01A810210B9A0C9BFDF7DF
S3150800E7608BFA0446E8B901A801460A9AFCF797FF0E
S3150800E7700446B0B901A801464246FCF739FF0446EB
S3150800E78078B92846394601AAFCF789FF044640B9F4
S3150800E7902B6828465E4329462E600A9AFDF7BCF97F
S3150800E7A0044601A8FCF7C4FB204604B0BDE8F08186
S3150800E7B038B5044640B3002540F8045BFEF704FA72
S3150800E7C004F18800C4F88450FEF7EEF904F1AC00B1
S3150800E7D0FEF7EAF904F1D000FEF7E6F904F1F400D1
S3150800E7E0FEF7E2F904F58C70FEF7DEF904F59E7083
S3150800E7F0FCF797FB04F5A470FCF793FB04F5AA70E5
S3150800E800BDE83840FCF78DBB38BD10B5044630B3BB
S3150800E810002340F8043BFEF7FDF904F18800FEF7F3
S3150800E820E9F904F1AC00FEF7E5F904F1D000FEF7CA
S3150800E830E1F904F1F400FEF7DDF904F58C70FEF752
S3150800E840D9F904F59E70FCF773FB04F5A470FCF780
S3150800E8506FFB04F5AA70BDE81040FCF769BB10BD54
S3150800E86038B5054680F8801010461C4600F010FAA8
S3150800E870286088B12146281DFFF760FB044638B991
S3150800E88005F5AA700499059AFCF79AFC044628B17E
S3150800E8902846FFF7BAFF01E0014838BD204638BDD3
S3150800E8A080AFFFFF2DE9F04F0646044690F880300A
S3150800E8B0D0F8849000F12C08164887B0C3F10103FC
S3150800E8C056F804AB50F823B006AF47F8041D8D1868
S3150800E8D004F1D0038DE8080802970395504631469F
S3150800E8E04A464346FFF7A4FD80B9F4348DE810087C
S3150800E8F002970395504631464A464346FFF798FD28
S3150800E90020B9054B059AAA4218BF184607B0BDE8B4
S3150800E910F08F00BF389F030880B0FFFF2DE9F04F46
S3150800E9200F4605468DB090F880100893224B0CAE22
S3150800E93053F821C000F59E7355F804ABD0F88490BF
S3150800E94046F8047D009300F188030193169B00F1B5
S3150800E9502C080593179B07EB020BCDF808C0069306
S3150800E96004460396CDF810B0504629464A46434613
S3150800E970CDF824C0FFF778FEDDF824C0C0B904F549
S3150800E980A4730093169BAC340593179B01940693C6
S3150800E990CDF808C00396CDF810B0504629464A4629
S3150800E9A04346FFF761FE18B90B9BDF1B089B1F60E8
S3150800E9B00DB0BDE8F08F00BF389F03082DE9F0437E
S3150800E9C00446AFB00FA80E4617460591FEF7FCF8A9
S3150800E9D006A8FEF7E9F804F1040804F1D003009349
S3150800E9E0404606A904F1880204F1AC03FFF77EFE4F
S3150800E9F0054678BB94F880300DF11409EBB104F59F
S3150800EA008C73009394F88030174AC3F1010352F8C7
S3150800EA1023303E440193CDF808900396206841467A
S3150800EA20D4F8842006ABFFF703FD054690B90F4BD3
S3150800EA30059AB24218BF1D460CE00FA849463A4649
S3150800EA40FEF712FC054628B99DF83C2023799A4220
S3150800EA50D5D0074D0FA8FEF7DDF806A8FEF7CAF8C9
S3150800EA6028462FB0BDE8F083389F030880B0FFFF23
S3150800EA7080B1FFFF2DE9F04F8146A1B00EA817AF70
S3150800EA80884615469B460991DDF8A8A0FEF78CF83E
S3150800EA903846FEF789F80BA8FCF743FA09F104068D
S3150800EAA009F18803009330460EA909F1D00209F14D
S3150800EAB0F403FFF71BFE0446002865D109F150034D
S3150800EAC08DE808042B9B0BA80293012109F5A47273
S3150800EAD009F5AA73FFF736FE0446002854D12B9B86
S3150800EAE0CDF800A00193304639460BAA0EABFEF7C7
S3150800EAF0DBFC0446002847D199F880304544012BB1
S3150800EB0010D1099A954201D2264C3DE030460AA911
S3150800EB10AB1AFEF7CDFB0446002835D1099A0A9BA5
S3150800EB2013440993099B9D42EED30093EB1A019374
S3150800EB3030463946D9F884200AABFEF77DFB0446F1
S3150800EB4010BB099A0A9B0495134409930BAB99F8D1
S3150800EB5080208DE88800144BCDF814A053F8223095
S3150800EB60D9F80000029309AB03932B9B3146069311
S3150800EB70D9F884200EABFFF7E9FC044620B9099BB7
S3150800EB80C8EB0303CBF800300EA8FEF733F817A836
S3150800EB90FEF730F80BA8FCF7CBF9204621B0BDE804
S3150800EBA0F08F00BF00B1FFFF389F03082DE9F04F33
S3150800EBB005469DB0006814461E468846DDF898B09E
S3150800EBC0DDF89CA000F080F88442306059D313A881
S3150800EBD005AFFDF7E9FF3846FCF7A3F908A8FCF7E7
S3150800EBE0A0F908A80121FCF77FFA044600283DD1C0
S3150800EBF005F1500305F5A4768DE80808CDF808A0B8
S3150800EC0038464FF0FF31324605F5AA73FFF79AFDED
S3150800EC10044658BB05F1F40305F10409019300976E
S3150800EC20484613A908AA05F58C73FEF779FE04462B
S3150800EC30E0B913A9CDF800B0CDF804A0484632468D
S3150800EC400B46FEF731FC044680B9EE6D13A807366D
S3150800EC50F6080BA93246FCF7E9FA044630B92868E3
S3150800EC600BA93246434600F021F8044613A8FDF7DF
S3150800EC70C1FF3846FCF75CF908A8FCF759F92046A5
S3150800EC8000E002481DB0BDE8F08F00BF00B1FFFFED
S3150800EC90052804D00628034818BF002070470248F4
S3150800ECA0704700BF809F0308409F030810B530B126
S3150800ECB0C469084611461A46A047002010BD0148F7
S3150800ECC010BD00BF00AFFFFF00B1007A704700F02B
S3150800ECD089B800F032B810B5044600F024F820468A
S3150800ECE0BDE8104006F080B910B501206C21FFF789
S3150800ECF0EDFA044608B100F012F8204610BD0123CB
S3150800ED0000F0D6B9002300F0D3B900F04FB900F0EF
S3150800ED1049B9012100F016B8002100F013B8002106
S3150800ED206C22F7F738B938B100F16C03984203D072
S3150800ED30002202700130F9E7704708B56C2225F009
S3150800ED401BF808BD002303604360A1B9184B836014
S3150800ED50184BC360184B0361184B4361184B83610A
S3150800ED60184BC361184B036203F17453A3F52303CD
S3150800ED70A3F6924318E0154B8360154BC36003F165
S3150800ED80794303F5740303F501630361114B43618A
S3150800ED90114B836103F1D14303F5C01303F51E63D9
S3150800EDA0C3610E4B03620E4B43628166704700BF18
S3150800EDB067E6096A85AE67BB72F36E3C3AF54FA5FE
S3150800EDC07F520E518C68059BABD9831FD89E05C10F
S3150800EDD007D57C3639590EF7310BC0FFA78FF96472
S3150800EDE0A44FFABE2DE9F04F031DCBB000931A4687
S3150800EDF0002352F8044F02A840F823400133082B99
S3150800EE00F7D1059ADDF824A0069CDDF81C80089E3B
S3150800EE1002AB0192013109AA4FF0000E93E82810BF
S3150800EE20BEF10F0F0ED80F7811F8019C3F0447EA80
S3150800EE30096791F8029047EA090791F8019047EAAD
S3150800EE40092716E052F8049C52F83C0C52F8187C34
S3150800EE504FEA794B074452F8380C8BEAF94B8BEAA0
S3150800EE6099294FEAF01B8BEAB04B4F448BEAD00B3B
S3150800EE705F4457604FEAB41787EAF42787EA74694C
S3150800EE8086EA0807274077404F44DFF8909005EA5E
S3150800EE90030B59F82E900198B94452F8047F0EF1E5
S3150800EEA0010E4F4445EA030909EA0C0949EA0B0B26
S3150800EEB04FEAB30989EA7339BA4489EAB35950441F
S3150800EEC0D944BEF1400FD144074601F10401B246C8
S3150800EED0CDF804C006D0AC4646461D46A0464B466D
S3150800EEE03C469DE70393099606900794CDF8208043
S3150800EEF0CDF808900495CDF814C00023009A52F86E
S3150800EF00041F009202AA52F8232001330A440099EA
S3150800EF10082B0A60F2D14BB0BDE8F08FF09F0308CA
S3150800EF2003682DE9F04103F03F051344934203605B
S3150800EF3038BF4368064638BF01330F46144638BF04
S3150800EF4043609DB1C5F1400842450FD305F128003D
S3150800EF5030441FFA88F2F6F797FF304606F1280183
S3150800EF60FFF740FF4744C8EB04040025A046C8EB5A
S3150800EF700401B8F13F0F394405D93046FFF732FF8F
S3150800EF80A8F14008F3E724F03F0114F03F023944A2
S3150800EF9006D005F128003044BDE8F041F6F774BF05
S3150800EFA0BDE8F0810AB1FFF7BBBF704737B5044625
S3150800EFB00D4602684168530F43EAC103180ED10093
S3150800EFC08DF80000180C02F03F028DF801008DF84C
S3150800EFD00330180A0B0E372A8DF804304FEA11430E
S3150800EFE094BFC2F13802C2F178028DF802008DF89A
S3150800EFF005308DF807100B0A20462C498DF8063087
S3150800F000FFF7D0FF204669460822FFF789FFE37A13
S3150800F0102B7063896B70A3681B0AAB70A368EB70CF
S3150800F020E37B2B71E3896B71E3681B0AAB71E368B9
S3150800F030EB71E37C2B72638A6B7223691B0AAB72D2
S3150800F0402369EB72E37D2B73E38A6B7363691B0A8F
S3150800F050AB736369EB73E37E2B74638B6B74A36981
S3150800F0601B0AAB74A369EB74E37F2B75E38B6B7593
S3150800F070E3691B0AAB75E369EB7594F823302B76C5
S3150800F080638C6B76236A1B0AAB76236AEB76A36ED0
S3150800F0904BB994F827302B77E38C6B77636A1B0A96
S3150800F0A0AB77636AEB7703B030BD00BFB09F030848
S3150800F0B0F0B51F460D46064614469DB001A8FFF753
S3150800F0C02EFE01A83946FFF73DFE2A4601A831461D
S3150800F0D0FFF768FF01A82146FFF768FF01A8FFF7B9
S3150800F0E022FE1DB0F0BD00000022064931F812309C
S3150800F0F001339BB221F8123001320BB9082AF4D138
S3150800F100704700BF544600202DE9F04781465E4906
S3150800F110012001F0A5FF5D4B8A2606FB09367378A8
S3150800F12096F802A05A4F03EB0A2A5A4B1FFA8AFA94
S3150800F1301A78594B1AF0200F1A704FF0000307F887
S3150800F140093000F09F80554BD3F88430180640F1FB
S3150800F15099800AF00503012B01D000206EE00AF41D
S3150800F1604063B3F5806FF8D01AF4004FF5D0B3F5C5
S3150800F170006F05D0B3F5406F14BF04230E2300E0DB
S3150800F18008231AF0400F08BF02330AF4404208BFAA
S3150800F190DBB2B2F5004F0CBF9D1C03F10805EDB2BA
S3150800F1A005F101084FEA68083C49B9F1000F01D09A
S3150800F1B0496A00E0096A4145CFD3B2F5404F0AF0E3
S3150800F1C0070406EB030002D101F0AEFE06E0407824
S3150800F1D0F35C03EB002080B201F082FEFF280ED01C
S3150800F1E0012C02D108F080FA0CE02D4A126832F898
S3150800F1F0100000F45670003018BF012002E0E21E2D
S3150800F200504250410028A8D01AF0080F16D1234BB7
S3150800F210B9F1000F01D05A6A00E01A6A08F1010133
S3150800F2208A4207D2B9F1000FDB6A14BF0222012213
S3150800F2301A42ECD1705D031F58425841174BDA6FDA
S3150800F240C2F30012904207F809201BD0B9F1000F4B
S3150800F2509A6E14BF4FF400614FF4806150B11142A9
S3150800F26010D05A6E42F001025A66012307F8093097
S3150800F270BDE8F08711421FBF5A6E22F001025A6696
S3150800F28007F80900BDE8F08751F300087846002022
S3150800F2908D470020602F0020744600200020004083
S3150800F2A0FC2E002070B504460D4EFFF71DFF06F133
S3150800F2B01005102220463146F6F7E6FD2046294677
S3150800F2C002F036FAFFF710FF3046294602F030FA08
S3150800F2D028462146BDE870401022F6F7D5BD00BF86
S3150800F2E054460020F8B5FFF7DDFF00256F0000241F
S3150800F2F00F2622F001F8013EFBD1074AC0F3801021
S3150800F300BB5AA04001345840102CB852F0D10135F0
S3150800F310102DEBD1F8BD00BF5446002038B5054680
S3150800F320F1F7BEFE08B1F1F7A9FE10242846FFF74B
S3150800F330D9FF013CFAD1054B01221A70F1F7B0FE4C
S3150800F34008B1F1F79BFE012038BD00BF98470020A1
S3150800F350044B186810F0190002D10146F1F7C8BF2E
S3150800F360704700BF00A00040044B186810F0010069
S3150800F37002D10146F1F7BCBF704700BF00A00040AC
S3150800F3802DE9F8434FF08A0808FB00F8DFF850919A
S3150800F390054609EB08074A4B08B9196A00E0596A95
S3150800F3A0C9B2042907D8FFF7DFFF464A13680133B5
S3150800F3B01360BDE8F8834900CCB2A4F108017A18B5
S3150800F3C07E5C537803EB06269378B6B26633937061
S3150800F3D03D4B187810B93D4800781870187878545D
S3150800F3E0002119703A4B51701A6C22F480521A6433
S3150800F3F0334AD2F884201DB95B6813F4806F04E0A1
S3150800F400012D22D15B6813F4006F1ED0FFF7ACFF05
S3150800F410304B1A7882B116F4E45F4FF000021A7086
S3150800F4202D4B0DBF7A78402019688F2004BF1968C4
S3150800F430C2F3001202F0BCF9002D254B0CBF4FF4A5
S3150800F44080624FF400625A6032E016F4E45F2DD110
S3150800F45001F006FC08B1760428D519F90830002B06
S3150800F46024DB79781A4A11F0200F136C1B4E11D041
S3150800F4701349D1F88400000610D4896EC9060DD444
S3150800F4801268002D03EA02030CBF80224FF4807233
S3150800F490134203D1FFF768FF002373553846214608
S3150800F4A0725D03F017FC0023735501E0FFF75CFF5C
S3150800F4B0034B0DB9012200E002221A63BDE8F88366
S3150800F4C0002000409447002074460020602F00204A
S3150800F4D000A00040084F0020044F00208D47002060
S3150800F4E07846002010B5044C23781BB121F050FF54
S3150800F4F00023237010BD00BF9B47002038B5084B7A
S3150800F500012219781C461A7039B9032021F0D4FE55
S3150800F5100F2521F0F1FE013DFBD1207838BD00BF53
S3150800F5209B47002010B5114C1023236322F0CAFC18
S3150800F530D4F8843043F00103C4F8843022F0BFFCC9
S3150800F5400B4B6360236062688A33893262600122EA
S3150800F55022634FF6FF72E360A360E3688933E360D2
S3150800F56002232363034B1A6010BD00BF002000402E
S3150800F5707846002000A0004045F26402194B9A65BF
S3150800F5801E221A675022DA66C8229A66C3F8A42091
S3150800F590F022C3F8A82045F69002C3F8B0208822C6
S3150800F5A0C3F8B4200622C3F8B82044F20662DA6427
S3150800F5B04FF6FF721A650C4A12783AB148F2607231
S3150800F5C0C3F8D0204FF4C152C3F8D420074AD2F862
S3150800F5D0803043F00403C2F88030054B00221A70CD
S3150800F5E0704700BF00100040642F00200020004034
S3150800F5F08F470020014B986B704700BF00200040E2
S3150800F6002DE9F0431E4B85B01B7880460F46914680
S3150800F61043B9FFF773FF04466846FFF77FFE2040AD
S3150800F620C4B200E001240025BD421FDA15F0070622
S3150800F63013D1B9F1000F05D0FFF760FF0440684603
S3150800F640FFF750FEFFF750FD68460E491022F6F701
S3150800F6501BFC68460C4902F06BF804AB03EB460644
S3150800F66036F8103C28F815300135DDE76846FFF70F
S3150800F67019FEFFF737FF204605B0BDE8F08300BF47
S3150800F6809847002054460020644600200022FFF7D1
S3150800F690B7BF0220032121F00FBE0000F7B521F005
S3150800F6A02BFEC0F57F40FF30292790FBF7F0144E5C
S3150800F6B0A0F2C6243378134DDBB90320014621F0A6
S3150800F6C0FBFD114B0DF1060019887F220223F1F785
S3150800F6D021FD21F011FEBDF80630184480B2C0F5B0
S3150800F6E07F40FF3090FBF7F00123A0F2DB20287063
S3150800F6F0337021F04DFE2878201A40B203B0F0BDD1
S3150800F7008C470020904700202A51030808B5FFF7C8
S3150800F710C0FFBDE80840FFF7C1BF000038B50D4B74
S3150800F7201B780BB1002038BDFFF7F0FF0A4B0546E2
S3150800F73018780A4C48B12078401B40B224F09CFA4D
S3150800F7400A28EFDD2570012038BD012225701A70C0
S3150800F75038BD00BF762F00208F470020994700202C
S3150800F760014B1878704700BF7646002008B50E4B47
S3150800F7701A78824216D0187050B10C4B00225A657E
S3150800F7800B4AD2F8843023F08003C2F8843008BDCF
S3150800F79001F0AAFA01F07CFA01F002FABDE8084085
S3150800F7A001F0E0B908BD00BF764600200010004011
S3150800F7B0002000407047000038B56C4B1A681C6C76
S3150800F7C01440002C00F0CE80230707D50020FFF751
S3150800F7D09BFC664B082224F008041A60E50607D548
S3150800F7E00120FFF791FC614B102224F010041A60E7
S3150800F7F004F06003602B0FD15D4B986E03F5004350
S3150800F80010F4807003D024F04004402213E0202234
S3150800F81024F020041A6010E0A00606D5534B2022D7
S3150800F82024F020041A60002007E0610607D54F4B34
S3150800F83024F0400440221A600120FFF7A1FDE204EB
S3150800F84041BF4A4B4FF4805224F480541A6014F096
S3150800F850010556D0454B01251D6024F00104F1F73A
S3150800F860B7FD80B143494FF44872284601F098FB2A
S3150800F870F1F708FD10F4806F14BF03202846002115
S3150800F880F1F736FD00E005463B4B1B780BB1FFF759
S3150800F89091FF3A4B1B78002B33D001F033F901283E
S3150800F8A02FD1374B1B7863B3364B1B78042B28D1E3
S3150800F8B02F4BDA6AC2F340022D4B0AB15B6A00E0AD
S3150800F8C01B6AB3FA83F35B091BB1284B1B68DB047D
S3150800F8D0F2D5274B0AB15B6A00E01B6A003318BFF2
S3150800F8E0012373B1284B8A2101FB0232537803F0B6
S3150800F8F0100303F0FF0223B9244B8F20196801F087
S3150800F90057FF200609D50DB9FFF72EFD01F0BEFFFA
S3150800F910164B802224F080041A60E1050AD50DB939
S3150800F920FFF722FD01F0B2FF104B4FF4807224F46A
S3150800F93080741A60620408D50DB9FFF715FD0B4BE4
S3150800F9404FF4804224F480441A6023047FF539AFCB
S3150800F9500DB9FFF709FD054B4FF4004224F40044A6
S3150800F9601A602EE7014B1C6038BD00BF00A000409E
S3150800F9700020004051F300089A47002075460020F1
S3150800F980084F0020742F002078460020044F0020DE
S3150800F9900C4B1A780C4B12B10C4A127810E00C4A30
S3150800F9A092F90020093201DA302209E0D3F8C020A2
S3150800F9B03AB140F24A32D3F8C010B2FBF1F2033A38
S3150800F9C05A667047C047002000100040662F002086
S3150800F9D0652F0020034B33F81000024042FA01F06D
S3150800F9E080B270479C4700200E4B30B533F8104064
S3150800F9F00D4D0E4B1140C3F8F04035F8104024EA7F
S3150800FA00020444EA01020221C3F8F420C3F8E8100C
S3150800FA100021C3F8E81025F81020D3F8EC20002AB6
S3150800FA20FBD130BD58A103089C47002000100040B8
S3150800FA301FB5084B01A819887F220A23F1F76AFB2C
S3150800FA400D20BDF80A104FF6FF72FFF7CDFF05B07F
S3150800FA505DF804FB1C5103082DE9F04F8B4B89B068
S3150800FA6093F800B007A8ABF10B04E4B20D212246C7
S3150800FA700423F1F7C7FF9DF81C3005939DF81D3048
S3150800FA8002939DF81E3004939DF81F300393804B14
S3150800FA901B78012B09BF7F4B01271F7887F00107C9
S3150800FAA0FFF7FCFD9DF91E3000F1090999458046CE
S3150800FAB006DBA0F109059D42D4BF0025012500E01B
S3150800FAC001259DF91D30002B07DB734B1B88E3408E
S3150800FAD013F0010F18BF012500E0012500F096FA82
S3150800FAE09DF91F30002B0FDB6C4B1B88E340DB07AF
S3150800FAF00AD49DF91C30994506DBA8F109069E42F1
S3150800FB00D4BF0026012600E001261FB915B9002E2C
S3150800FB1000F0B080DFF890910020D9F88030C3F368
S3150800FB20400A5F4B1A6802F4E06201924FF4E06201
S3150800FB30C3F8802001F09AF821F01CFFDFB1554B7D
S3150800FB401B785BB1D9F88030012023F00103C9F88E
S3150800FB5080304F4B187022F0A7F80CE0514BD3F8C1
S3150800FB60D02042F40052C3F8D020D3F8D02022F493
S3150800FB708052C3F8D020464B1A789946012A15D1E7
S3150800FB8017B1444B1B7823B9012001F0B3F8F1F7FC
S3150800FB90F7F9454A6420D2F8803043F00103C2F8E9
S3150800FBA08030002389F8003022F07EF8DFF8E490F0
S3150800FBB02FB199F8003013B9584600F087FC99F828
S3150800FBC0003063B1374BD3F8D02022F48052C3F803
S3150800FBD0D020D3F8D02042F40052C3F8D02065B123
S3150800FBE000F0C4FB2C4901230A88A34022EA030338
S3150800FBF08DF81D008DF81E800B8066B100F032FA74
S3150800FC00264901230A88A34022EA03038DF81F0028
S3150800FC108DF81C800B809DF81C30059A9A420ED1EF
S3150800FC209DF81D30029A934209D19DF81E30049A18
S3150800FC309A4204D19DF81F30039A934205D00D20AD
S3150800FC40214607AA0423F1F72FFF154B019A1A60DC
S3150800FC50FFF768FC504601F009F821F099FB99F87E
S3150800FC6000303BB148F260720E4B6420C3F8D020D6
S3150800FC7022F01AF89DF81D0000F070FB9DF81F0091
S3150800FC8000F0EAF909B0BDE8F08F00BF602F002048
S3150800FC90762F0020642F0020C2470020BE47002090
S3150800FCA000E100E0001000400020004008B5FFF722
S3150800FCB0F0FCBDE80840FFF7CFBEFFF7EABC00003E
S3150800FCC070B5044600F00EFFA4F10B03DAB20F2A52
S3150800FCD0064621D8124A916E09071FD4126E12F0F1
S3150800FCE001051BD10F4A14700F4AD2F8AC100C2923
S3150800FCF001D1002070BD0D499BB231F823100C4B81
S3150800FD0093F900300B44C2F8C830FFF7A5FE012E60
S3150800FD10EFD100F0B9FCECE78A2070BD8C2070BDED
S3150800FD2000200040602F00200010004018A10308A2
S3150800FD30034F002010B50446FFF7ABFC2046BDE88C
S3150800FD401040FFF7BDBF0000014B1878704700BF91
S3150800FD50602F0020014B93F900007047652F0020A3
S3150800FD60F0B510F12B0F87B006466EDB384B7F22B5
S3150800FD70198801A81423F1F7CDF94FF6FF72BDF8DB
S3150800FD801430934201D05B0405D4324B00271D8CF6
S3150800FD9005F03F0501E00127002506F12B03DBB23C
S3150800FDA02E2B15D813232C4A12F8131048B2B0423A
S3150800FDB002DD013BDBB2F6E702EB43035A78274B39
S3150800FDC00026C3F8C020264B03241970314614E0D8
S3150800FDD0082E3ADC234B01A8334413F8042C1F4B96
S3150800FDE02824C3F8C0201E4B7F221E701E4B0126F6
S3150800FDF019881423F1F78EF903210B2027B1BDF8D2
S3150800FE0014104FF6BF721AE081404FF46052FFF7A4
S3150800FE10EBFD0B2031024FF4E062FFF7E5FD0B2006
S3150800FE20F1018022FFF7E0FD85F0200121443F29FA
S3150800FE3028BF3F2181F020010B2089B23F22FFF71E
S3150800FE40D3FDFFF7A5FD002000E08B2007B0F0BD2D
S3150800FE50365103089C470020F0A003080010004014
S3150800FE60652F00207EA103082C510308B0F5004F2A
S3150800FE70F7B504461CD12D4B0DF1060019887F22D3
S3150800FE800223F1F747F9BDF80600020A531EDBB252
S3150800FE90FD2BC0F3C400264B88BF182210281A7001
S3150800FEA002D00430FFF75CFFBDF80640E443A4B275
S3150800FEB0204D214A2B780BB1002304E013886340B8
S3150800FEC0DB0701D501232B7014801C4A04F00107B7
S3150800FED0D369022043F40043D361194B4FF44052CF
S3150800FEE003EB47035978C4F34006090301F470414C
S3150800FEF0FFF77AFD384600F027F80B20B1014022BB
S3150800FF00FFF772FD16B9C4F3800400E001240D4B17
S3150800FF101C70FFF73DFD2B7823B1FFF789FD054BD4
S3150800FF2000221A70002003B0F0BD00BF1851030864
S3150800FF30662F0020024F0020622F0020001000408C
S3150800FF407AA10308C047002070B5054688B000208E
S3150800FF5021F036FE274B7F22198868460A23F1F7D7
S3150800FF60D9F84FF6FF73BDF802209A4204D1224809
S3150800FF704FF48171F0F792F90024E1B23CB14FF6E3
S3150800FF80FF724EF23F03022908BF1A4601E04FF4FA
S3150800FF907C421A4B3DF81410185D0134FFF724FD16
S3150800FFA0052CEAD1012D0CBF154B164B03AE19884B
S3150800FFB030467F221423F1F7ADF80024012CE3B272
S3150800FFC005D0082B4FF6FF7208BF002201E04FF656
S3150800FFD0C0720D4B36F81410185D0134FFF704FD96
S3150800FFE00A2CEBD1012D02D1284621F0E9FD08B0F3
S3150800FFF070BD00BF1C51030888A1030883A103082C
S315080100002C510308365103089DA103081FB50D4B52
S315080100107F22198801A80A23F1F77CF84FF6FF73A6
S31508010020BDF804209A4203D107484F21F0F736F963
S315080100300020BDF804104FF6FF72FFF7D5FC05B096
S315080100405DF804FB1C510308A7A10308400081B20F
S315080100503F220220FFF7C8BC01463F220220FFF7D4
S31508010060C3BC00002DE9F04F6B4D97B0D5F80C31A4
S3150801007000210093D5F8C0304FF6FF7201936B6CDF
S3150801008001200293FFF7A6FC00214FF6FF72834673
S315080100900B20FFF79FFC4FF40043C5F8C03048F228
S315080100A002030024AC628246EC6240F24C40AB612A
S315080100B021F0FAFD4CF68C33C5F80C3148F2F00301
S315080100C04FF480516B640A460120FFF78DFC4FF609
S315080100D0FF720B202146FFF787FC0620014621F017
S315080100E04FF906218046072021F04AF94CF69C3340
S315080100F08146C5F80C312046FFF7A8FF06200146C0
S3150801010021F0DAF8A0B2FFF7A1FF0620014621F097
S31508010110D3F821F0F1F806AB23F814000134202CAA
S31508010120F0D121F0E9F81020FFF790FF072006210A
S3150801013021F026F916AF37F8206DC9EB0000BC4649
S315080101404043C8EB060606FB060610253CF8023FA7
S315080101506C1CC8EB03035B43A4B220460393CDF89A
S3150801016010C0CDF814C0FFF771FF0720062121F052
S3150801017007F9039BC9EB000000FB0033B34206DB1A
S315080101801F2C1E462546DDF810C0DFD11EE0102DB6
S315080101902C461BD137F8023D6C1EC8EB03035B43A3
S315080101A0A4B220460393FFF751FF0720062121F049
S315080101B0E7F8039BC9EB000000FB0033B34204DBFD
S315080101C01E462546002CE5D100E02C46124DBDF809
S315080101D00070BDF80430C5F80C71C5F8C030BDF81B
S315080101E0083059466B6401204FF6FF72FFF7FCFB96
S315080101F051464FF6FF720B20FFF7F6FB0123AB6260
S315080102000023AB6140F24C4021F04EFD600000F046
S31508010210FE0017B0BDE8F08F001000402DE9F84F39
S31508010220404B414C1B78002B6CD020B14FF0FF336B
S31508010230E3633E4B02E041F21113E063A363D4F892
S31508010240C8A00127D4F8C05021F0A2F8B023C4F8F9
S31508010250F0303C46ADB24FF00A080026DFF8D490DC
S315080102601FFA8AFBD9F8003013F0080F01D0002CC9
S3150801027039D0012021F018FDAFB1EB1E9C422A4B63
S3150801028006DA0334A4B204F50042C3F8C02018E024
S3150801029005F50042C3F8C0200920062121F00CF813
S315080102A02C4600270DE0D9F800301B0709D5032C89
S315080102B092BF3C46033CA4B21B4A04F50043C2F86C
S315080102C0C03033B2192B04DC1A33D8BF4FF00A08F1
S315080102D001E04FF6F6784644B6B233B2124A5B44A9
S315080102E0C2F8C830BAE7002FC3D10F4BC3F8C8B05C
S315080102F0C3F8C0500823C9F800300D4B186880B2FE
S31508010300BDE8F88F20B14FF0FF33E363A36301E043
S31508010310E063A06321F03CF8BDE8F84F0920062107
S3150801032021F02EB86A2F002000100040EEEEFFFFE4
S315080103300070004018A0004038B50120FFF76EFF95
S3150801034005460020FFF76AFF04462D1A0120FFF72C
S3150801035065FFADB2201A401B00B238BD800181B2DB
S315080103604FF4FE520C20FFF73FBB00002DE9F84F72
S31508010370444D454B2E78D3F88870D3F86080A3F5A1
S315080103808053D3F828905EB100214FF6FF720820FA
S31508010390FFF720FBC02106460A460820FFF724FB83
S315080103A03A4B3B4C1B781BB148F26073C4F8D0300A
S315080103B0384B02221B884FF0010A43F4404343F0AD
S315080103C04C039BB2C4F80C312F4B40F24C40C3F896
S315080103D08820C3F860A021F067FC2F4BC4F834A02D
S315080103E00022C4F828A028782C4C1A8040222280A2
S315080103F09B4600B12020FFF7B1FFFFF79DFF402381
S3150801040082467F20ABF800302080FFF7A7FFFFF771
S3150801041093FF8346504623F02FFC2B78FE24444352
S31508010420CBEB0A0A23B1584623F026FC04EB8014C9
S31508010430504623F021FC80B2B4FBF0F4144B1FFAAA
S3150801044089F29A62104A002002215863BFB21166E6
S315080104501FFA88F11166A4B2C2F88870C3F80C01B4
S315080104602B78013464082BB1082031464FF6FF7208
S31508010470FFF7BAFA40F24C4021F016FCA0B2BDE8EB
S31508010480F88F00BF6A2F002000200040642F00204B
S3150801049000100040682F0020C4470020C6470020EE
S315080104A0094BD3F8D02022F00102C3F8D020D3F8A3
S315080104B0D02010434FF40042C3F8D0009A610022BD
S315080104C09A61642021F0F0BB00100040224B70B500
S315080104D0DD69DA69064642F40042DA61D3F8D020CA
S315080104E022F48052C3F8D0201C4B1A787AB11C4AE0
S315080104F002EB800313F82A4C1A4B1B781C441A4B3F
S315080105001B7802EB830212F82A3CE41A11E0012255
S315080105101A7020242046FFF7C3FF0F4BD3F800219A
S31508010520042A08D0D3F800315B0754BF04F1FF341D
S315080105300134A4B2EEE7D3F8FC202AB90B484FF4EC
S315080105409071EFF7ABFEE8E7074AADB21670054AB8
S315080105501470DD6170BD00BF00100040C84700205F
S3150801056018A10308C9470020CA470020B9A10308F2
S31508010570084B187850B1084B1B78012B05D1074B4E
S315080105801878031F5842584100E0002000F0010086
S31508010590704700BFCD4700206C2F0020742F002024
S315080105A0104B70B51B78DBB90F4C104D63787BB1D6
S315080105B00F4BE2781E78237916449E4228BF1E46C1
S315080105C0F5F74AFC0123B340013B1840288000E0B7
S315080105D02B802B886079184480B22880C0B270BD00
S315080105E0002070BDCF470020B42F0020D04700203F
S315080105F0D4470020034680B21B0644BF00F07F00A3
S31508010600C0007047013189B28001B0FBF1F080B2B8
S31508010610FF289ABFC043C0B200207047074B00228B
S315080106205A609A601A6822F002021A604FF0007244
S31508010630C3F8F42C024B01221A70704710E000E04F
S31508010640D6470020084BA0F133029A4210B50AD8C2
S31508010650064C0023237020F04DFF23781BB9012097
S31508010660F0F7C4FEF9E710BDCCFF0700D647002016
S31508010670044B1A6C10B142F4404201E022F44042A4
S315080106801A64704700A0004070B5164D164E2B78B7
S31508010690F469012B25D021F015FC144BA4B24FF4B3
S315080106A0E062F461C3F88020114BD3F8802022F070
S315080106B00102C3F880201A6E22F001021A661A6E28
S315080106C042F002021A66D3F8842042F00102C3F806
S315080106D0842001232B7021F0F2FBBDE87040F0F76E
S315080106E07FBB70BD762F00200010004000E100E0BE
S315080106F000200040834B2DE9F0475C68824EA2B288
S315080107005C6C14405C6096F80080B8F1000F40F00C
S31508010710E080E20757D5A3F500431F69196D5B6DA4
S31508010720DFF8F8A143EA0141784BCAF800101B78B3
S31508010730002B44D07B789B0641D5754B01221A7054
S31508010740FFF716FF00283ED0724D192021F0ACFAAA
S315080107504FF44043C5F80C31D5F8E490D5F8D030BC
S315080107601FFA89F943F40053C5F8D030D5F8D030CB
S3150801077043F48053C5F8D0303F78DAF800307F016A
S31508010780B8371F44FEF736FF381AC0F31300FFF7D0
S3150801079059FFD5F8D03023F00103C5F8D030D5F884
S315080107A0D03049EA0303C5F8D03048F26073C5F87A
S315080107B00C81C5F8D030584B1B886B6603E00020C6
S315080107C0024600F0F5FF25060ED5514B1A7832B1CF
S315080107D000221A70514B4020196800F0E9FF494A76
S315080107E0136C23F480531364600608D5357835B93C
S315080107F0FEF700FF2A460146892000F0D9FFE106E7
S3150801080057D5474B1A78012A28D1DFF8288198F855
S315080108100070012F22D1434DF0F7B2FBD5F8803095
S31508010820002443F00103C5F8803088F80040FEF73C
S3150801083079FE0A2021F038FA4FF6FF72314B5A60D9
S31508010840394B4FF4E0621A600923AB67AF65D5F8F7
S31508010850883043F00803C5F888301CE033490B7823
S315080108600133DBB20B7029498978994218D9012AD3
S3150801087001D1FFF709FF2B4DD5F8883023F008037E
S31508010880C5F888301423AB67FFF78AFE264B4FF469
S315080108900072A8651A602B6E43F001032B6608E007
S315080108A0357835B9FEF7A6FE2A4601468D2000F0B1
S315080108B07FFF22070DD5FFF75BFE50B1154B164A90
S315080108C0596E118001225A660E4A536C23F00803A9
S315080108D05364A3060BD5134B20221A63357835B911
S315080108E0FEF788FE2A460146882000F061FF337824
S315080108F02BB114F4407F02BF0D4B01221A70BDE8DB
S31508010900F08700BF00A00040CB470020B42F00208D
S31508010910084F002000100040D2470020044F002055
S315080109206C2F00200020004000E100E0D4470020A1
S31508010930CC470020762F002070B5184D2B785BB375
S31508010940F0F71EFB21F0BEFA0646154B154C01229F
S315080109509A62D4F880301343C4F8803000232B7090
S31508010960FEF7E0FD20232363236E304643F002039E
S315080109702366D4F88C3043F00803C4F88C3021F090
S315080109809EFA0A2021F090F94FF6FF72064B5A603B
S31508010990064B4FF4E0621A6070BD00BF762F002047
S315080109A0001000400020004000A0004000E100E0E7
S315080109B0F8B5C307064604D5414840F29B11EFF73F
S315080109C06DFC404A136E13F0010377D13E493F4D42
