S0100000656D3236302D7370692E73333701
S3150800400000F20020D1620208496202084D620208E5
S31508004010A70A0A0100410008041003AC00629300D5
S315080040200000000000000000000000000000000082
S315080040300000000000000000000000000000000072
S315080040400000000000000000FFFFFFFFFFFFFFFF6A
S31508004050FFFFFFFF007007080000000000000000D7
S31508004060FFFFFFFFFFFFFFFFFF000000000000004B
S315080040700000000000000000000000000000000032
S31508004080F0FF002000000000EAFF0020EAFF002001
S3150800409000F20020AC6D020804670208A0E80020C0
S311080040A0B40F00200000080800000120F2
S3150800410000F20020D1620208496202084D620208E4
S31508004110556202085162020859620208D062020812
S31508004120D0620208D0620208D0620208D062020891
S315080041305D620208D0620208D0620208D3F0010864
S31508004140D0620208D06202085F000208D062020844
S315080041504F470208D062020837050208D0620208F3
S31508004160B50E02083DD10008ADFB0008B95E02088D
S31508004170D0620208D3050208E1050208A5CB0008AB
S31508004180EB100208D0620208D0620208D062020868
S3150800419010B58C0801EB5474E408A1EBC40103685C
S315080041A0012409E010B54C0801EB9474A408A1EBAE
S315080041B08401036889000F2400F062F8016010BDCD
S315080041C070B500F0E7F8044600F0E4F8054600F09C
S315080041D0E1F800F00106182C05F00F0528BF362077
S315080041E03CD200F0A9F845F20F41084218BF382022
S315080041F034D1E00803D0022809D004D30CE03246B3
S315080042002146554806E032462146544802E03246E1
S3150800421021465348FFF7BCFFA00805281DD8DFE84C
S3150800422000F003070B0F13172A4621464D4812E0E4
S315080042302A4621464C480EE02A4621464B480AE0C3
S315080042402A4621464A4806E02A462146494802E0C7
S315080042502A4621464848FFF7A5FF0020BDE87040DA
S3150800426000F0B1B84B0810B501EB93739B08A1EBAE
S315080042708301890003880F2400F002F8018010BD2D
S315080042808C40A34302FA01F1194370478B0810B515
S3150800429001EB5373DB08A1EBC30103780124FFF795
S315080042A0EFFF017010BD2DE9F84300F073F80446DE
S315080042B000F070F8054600F06DF8064600F06AF85A
S315080042C0074600F067F805F00F0806F0010500F04C
S315080042D00109182C07F00F0628BF362024D200F053
S315080042E02BF845F20F41084218BF38201CD1600848
S315080042F004EB907087082148424600F019F82048D8
S31508004300324600F015F8A00804EB5070C6081D48A0
S315080043102A4621463044FFF7B9FF1B484A4621463C
S315080043203044FFF7B3FF0020BDE8F24300F04BB876
S31508004330214600EB470095E701200021224600F0C0
S315080043405FBA80B500F062F81049114A08400021AA
S31508004350C2E9000101BD00000CB000400CB20040EB
S315080043600CB4004000B0004004B0004000B2004069
S3150800437004B2004000B4004004B4004010F200202B
S3150800438024F2002000F2002008F20020F0ABFF0023
S3150800439038F200202A480168491C016011F8010D0D
S315080043A0704738B50446264D08462968224600F067
S315080043B038FA28682044286031BD214A1168084423
S315080043C01060084670471F491F4B0A681B68D31AB6
S315080043D0DC2BB8BF10700868401C0860704710B521
S315080043E00446C0B2FFF7EFFF200A48E010B5FFF712
S315080043F0D1FF00F042F904EB002080B210BD10B5E1
S31508004400044680B2FFF7EBFF200CB7E010B5FFF7C4
S31508004410EDFF00F05EF804EB004010BD38B5094C1E
S31508004420094A2368126805469A1AAA18DD2A03DA81
S315080044300246184600F0F5F920682844206031BD88
S3150800444050F8002054F80020ACFA002010B500F00F
S3150800445042F8FFF7CBFF2081FFF79CFFA072FFF71A
S3150800446099FFE072FFF796FF2073FFF7BFFFE08121
S31508004470FFF790FF2074FFF7C9FF606110BDBDE824
S315080044801040A0E710B500F024F82080FFF7AEFF33
S315080044906080FFF77FFF2071FFF77CFF6071FFF7F1
S315080044A0A5FFE080FFF7A2FF2081FFF773FFA07248
S315080044B010BD10B500F00AF8A078E0E710B500F0D6
S315080044C008F82080FFF766FFA07010BD0446208814
S315080044D085E704468AE704462146082061E710B5C1
S315080044E000F0CBF8A070FFF781FF2080211D00F0B7
S315080044F0C2F8FFF74FFF00B10120E070FFF74AFF4F
S315080045002073FFF747FF607310BD10B504462146B8
S3150800451000F07FF82069BDE8104070E710B5044642
S31508004520214600F078F8FFF771FF206110BD10B53D
S31508004530FFF7CFFF208010BD207944E710B5044669
S31508004540FFF7CDFF04F1100000F01BF804F11C0181
S3150800455000F091F8FFF74AFF24F8240FFFF746FF0B
S315080045606080FFF717FF2071FFF714FF6071FFF7F0
S3150800457011FFA071FFF70EFFE07110BDBDE81040F6
S315080045802DE710B50446FFF741FF2060FFF73EFF11
S315080045906060FFF72BFF208110BD10B500F010F802
S315080045A000F08CF8E088FFF71AFF2089FFF717FF5D
S315080045B06089FFF714FFA089FFF711FFA07B5EE76C
S315080045C0044620681BE710B50446FFF71FFF206066
S315080045D0FFF70CFFA080FFF709FFE080FFF706FF53
S315080045E02081FFF703FF6081FFF700FFA081FFF737
S315080045F0D1FEA07310BD10B5FFF7E2FFFFF79CFFD1
S31508004600611D00F006F804F11501BDE81040102000
S3150800461004E7102002E71020C3E610B50446207A06
S31508004620FFF7D1FE207A010006D12068FFF7E7FEE2
S315080046302068FFF7E4FE04E0022802D1214600F0D4
S3150800464002F8607A1BE70820E8E610B500F015F8CE
S315080046500100207206D1FFF7D9FE2060FFF7D6FECB
S31508004660206004E0022802D1214600F004F8FFF792
S3150800467091FE607210BD082093E604468AE638B5B6
S31508004680044602252078FFF79EFE2078401E012862
S3150800469006D96089FFF7A3FEA11CFFF7D4FF09E03E
S315080046A000F00CF800F00CF800F008F800F008F834
S315080046B000F004F80C346D1EE4D131BDA0888EE6F6
S315080046C060888CE610B504462078FFF77CFE6068A3
S315080046D0FFF795FE04F10800FFF79FFFA08AFFF792
S315080046E07EFEA07DFFF76FFEA069FFF788FE04F146
S315080046F01C01FFF78EFF04F12C00FFF7C0FF14F82A
S31508004700440FFFF760FE6078B9E610B5FFF7DEFEE6
S31508004710FFF7D6FFA08831E710B5FFF7DAFE20804D
S31508004720FFF764FE6080FFF761FEA08010BD30B51C
S3150800473002F8010B002312E031F8234002F8014B7E
S3150800474031F82340240A02F8014B01EB83045B1C71
S31508004750658802F8015B6488240A02F8014B8342E3
S31508004760EADB30BD0CB4F8B505460C4606AE08E0E3
S3150800477056F8040B290003D00078FFF71EFE3860B0
S31508004780641C2078010037D056F8047B622827D0AD
S315080047907028EDD0732818BF752804D076280CD059
S315080047A0772814D0ECE7280003D0FFF7F3FD38701C
S315080047B0E6E73878FFF707FEE2E7280003D0FFF7B9
S315080047C015FE3880DCE73888FFF709FED8E72800A9
S315080047D002D0FFF71BFED2E73868FFF710FECFE7D7
S315080047E056F8040B00782900394602D0FFF7D9FDA0
S315080047F0C6E7FFF713FEC3E7F1BC5DF80CFB000044
S31508004800D2B2203A22BF00FA02F100207047524283
S31508004810D041D2F1200291404140D04090404140E1
S315080048207047814233D210441144401E491E10E09D
S3150800483011F8013900F80139121F11F8013900F889
S31508004840013911F8013900F8013911F8013900F870
S31508004850013992B2042AEBDA93B2002B1EBF11F883
S31508004860013900F80139521EF6D1704711F8013B9B
S3150800487000F8013B121F11F8013B00F8013B11F843
S31508004880013B00F8013B11F8013B00F8013B92B2ED
S31508004890042AEBDA93B2002B1EBF11F8013B00F88D
S315080048A0013B521EF6D17047130003D00A4619463B
S315080048B000F020B8704710B500E0521E93B223B13D
S315080048C000F012F8F9D0181B10BD002010BD10B565
S315080048D000E0521E93B22BB100F006F8F9D0181B6F
S315080048E040B210BD002010BD10F8013B11F8014B75
S315080048F0A342704762F30F2262F31F42401810F07A
S31508004900030308D0C91A1FD3DB0748BF00F8012DD7
S3150800491028BF20F8022D130030B414461546103966
S3150800492028BF20E93C00FAD8490728BF20E90C002F
S3150800493048BF40F8042D890028BF20F8022D48BF3B
S3150800494000F8012D30BC7047C91818BF00F8012DB2
S31508004950CB0728BF00F8012D7047000010B50446A4
S3150800496000F0BCFD204601F092FD204602F0A6FAB2
S315080049702046BDE8104002F05BBC01F0D0BD10B582
S31508004980044600F0F8FD204601F0FBFD204602F043
S31508004990BDFA204602F0B1FC2046BDE8104002F000
S315080049A049BC10B500E010B5044600F04DFE20469F
S315080049B001F00EFF204602F0C5FA204602F007FD78
S315080049C02046BDE8104002F044BF10B5044600F08A
S315080049D068FE204601F02AFF204602F0E2FA09E0C6
S315080049E010B5044600F082FE204601F061FF20461D
S315080049F002F0F4FA204602F002FD204602F041FFDA
S31508004A002046BDE8104002F0ACBC80B503F09CF926
S31508004A10BDE8014002F0DAB910B5044602F0D8FD47
S31508004A202046BDE8104002F0B0BC0198704703F07C
S31508004A30FAB970472DE9F04701241028A4B00FF6FB
S31508004A400825DFF87C79DFA3DFA60FF28039E0A11D
S31508004A500FF280380FF2803A00F0398118281CBF0F
S31508004A601D2820286FD0212800F00C8122286AD022
S31508004A70282800F0AF80292800F0D2802A2862D0A2
S31508004A802B2800F051812D2800F06F812E285AD04E
S31508004A90302826D0332800F06D81342800F06D8147
S31508004AA0352800F0F682362800F09881372800F07D
S31508004AB02382382800F0BD81392800F051823A282F
S31508004AC000F0E381422800F05F824A2800F0BC80AB
S31508004AD04C2800F0E8825A2800F068825B2832D019
S31508004AE05D2800F0DB83632800F0AC82642800F0C0
S31508004AF0B6826A2803D06F2800F01D83712800F05B
S31508004B00EA82732818BF772800F0D6837A281AD045
S31508004B10822800F06582832800F09B83842818BFCA
S31508004B20852810D086281CBF872888280BD0892876
S31508004B3000F096838A281CBF8B288D2803D09028DE
S31508004B4000F00D84952800F09783962800F0998246
S31508004B509A281CBFA128A428F5D0A62800F06883A7
S31508004B60A82800F00483A92800F01D83AF2800F0C8
S31508004B703783B128E7D0B22800F0AC83B92800F013
S31508004B80C583BA2800F0C783BC2800F0C783BD28B0
S31508004B9000F0CF83C12800F08180C22800F09480FD
S31508004BA0C32800F08E80CE2800F02783D42800F092
S31508004BB0C783D52800F0C983D62800F0CB83E82818
S31508004BC0C1D0ED2800F04183EE28BCD0FE2800F0C5
S31508004BD05182E3E301A9684601F00CFC00F01DFCD4
S31508004BE031460020FFF7BEFD00F007FCBDF80C00BB
S31508004BF0FFF7F5FB9DF80E00FFF7E5FB9DF80F00A4
S31508004C00FFF7E1FB9DF81000FFF7DDFBBDF812008A
S31508004C10FFF7E5FB9DF81400FFF7D5FB069804E3BC
S31508004C2008208DF809000DF10A0103A801F008FC17
S31508004C308DF8080003AB0DF10A00019002AA0DF1E8
S31508004C4009000090E2A142E200F0F4FB9DF80100A1
S31508004C5001A901F006FC00F0E6FB00F0CEFB9DF88A
S31508004C600C00FFF7B0FBBDF80E00FFF7B8FB9DF888
S31508004C701000FFF7A8FB9DF81100FFF7A4FB9DF8AD
S31508004C80120088E301AB0DF10102D2A100F0C2FBCC
S31508004C9001999DF8010001F0E6FB2CE30DF10602EF
S31508004CA000F094FB9DF8060001AA02A901F051FB49
S31508004CB08DF8050002AB01A800900DF10502C6A10A
S31508004CC005E201F048FB66E301F047FB63E30DF1FB
S31508004CD0150004900DF11E030DF11600039006AAA7
S31508004CE00DF1170002900DF11A00019007A8009027
S31508004CF001200FF24C71FFF735FD9DF81500BDF840
S31508004D001A30BDF81C20BDF81E1002909DF816003A
S31508004D1001909DF8170000909DF8180003F014F90B
S31508004D208DF8140005AAE9E2FFF734FB0546FFF7FC
S31508004D3031FB8DF80000FFF72DFB8DF80100FFF71A
S31508004D4055FBADF80200FFF725FB8DF804000DF1C1
S31508004D5005010820FFF725FBFFF71CFB8DF80D0062
S31508004D606946284602F072FD15E3FFF713FB02F0C9
S31508004D706EFD10E303F011FDBDE20DF1120304AA66
S31508004D8096A100F047FB06A8FFF77CFB03A8019055
S31508004D9003AB05A800900DF10F02494600F01CFB75
S31508004DA00DF10D00029006AA05989DF80F30BDF882
S31508004DB0121001909DF80C0000909DF8100001F06B
S31508004DC010FA2FE076000000757500007575700002
S31508004DD06200000075700000750000000DF11202F7
S31508004DE019460120FFF7BEFC06A8FFF74BFB03A8F0
S31508004DF002900DF10F0305A8019004AA03A800F07C
S31508004E00E9FA0DF10D00029006A905989DF80F30F4
S31508004E109DF8102001909DF80C000090BDF8120036
S31508004E2001F0E8F98DF80E000DF10D030DF10E02F3
S31508004E3034E107A8FFF726FB04A8039005AB06A8EC
S31508004E4002900DF1150204A801900DF113000090CF
S31508004E5001200FF2FC51FFF785FC0DF111000290BD
S31508004E6006989DF813309DF814209DF815100190AA
S31508004E709DF81000009007A801F0C8F98DF81200F7
S31508004E800DF111030DF1120208E10AA8FFF7FAFA6B
S31508004E9006A805900DF11D0309A804900DF11E0240
S31508004EA006A803900DF11B00029007A8019008A818
S31508004EB0009001200FF2A051FFF754FC0DF11900E4
S31508004EC004900998BDF820309DF81D209DF81E1005
S31508004ED003909DF8180002909DF81B0001909DF81C
S31508004EE01C0000900AA801F0ACF98DF81A000DF123
S31508004EF019030DF11A02D1E00DF1190000900DF118
S31508004F001A0307AAB5A100F067FA09A8FFF7BAFAC3
S31508004F1005A802900DF1170308A8019006AA05A88E
S31508004F2000F058FA0DF11500049009AB08989DF8A1
S31508004F301920BDF81A1003909DF8140002909DF8E8
S31508004F40170001909DF818000090BDF81C0001F0AC
S31508004F509DF98DF816000DF115030DF116029DE069
S31508004F600DF1060219460120FFF7FCFB03A8FFF71F
S31508004F7089FA00F034FA029B9DF80420BDF8060071
S31508004F8003A901F0B8F972E10DF1050000900DF1E1
S31508004F90060302AADBA100F01FFA9DF805209DF87A
S31508004FA00610BDF8080003F02FFD12E100F029FAFB
S31508004FB0D5A100F011FA039A9DF80810BDF80A0069
S31508004FC003F09CFE8DF809000DF1090296E100BF79
S31508004FD0756276007577000075767500757600003F
S31508004FE008208DF811008DF810000DF10E000290C2
S31508004FF005A801900DF11100009008AB0FF260456D
S315080050000DF10F0200F0E7F903A802900DF1120066
S31508005010019006A800909DF80E30BDF814209DF862
S315080050200F0008A901F09BF98DF80D0006AB03A83F
S3150800503002900DF10D020DF112000190294604A807
S31508005040009044E000F0F6F99DF8010001A901F08E
S31508005050ABF900F0E8F901A8FFF72BFAA1E100F097
S31508005060E9F901A8FFF72AFA9DF8010001A901F05C
S31508005070AEF940E100F0DEF99DF8010004F090FD7C
S3150800508039E100F0ACF902999DF8040001F0CEF878
S31508005090EDE0684605F0B2FA00F0BFF931460020A7
S315080050A0FFF760FB7DE186208DF806000DF105020D
S315080050B000F08CF99DF8050002A901F0D7F98DF8E2
S315080050C0040002AB0DF10600009001AAB7A100206A
S315080050D0FFF748FB65E16A4600F078F938786A28F0
S315080050E09DF8000001A902D105F092FA01E005F049
S315080050F0F2FD8DF801000DF1010200F097F9BDF8F7
S315080051000400FFF76CF99DF80600FFF75CF90DF14E
S3150800511007011020FFF782F90698FFF770F907983C
S31508005120FFF76DF99DF82000FFF74DF90DF1210104
S3150800513000F064F935E109A8FFF7F0F900F061F924
S31508005140494600F049F904A80090039B9DF80820F9
S315080051509DF80A1009A801F087FE8DF809000DF1DF
S31508005160090200F063F904A8FFF7CFF919E108204E
S315080051708DF80E008DF80D0007AB0DF10D000290AD
S3150800518004AA05A801908AA10DF10E00009000F06E
S3150800519023F9BDF8100005AA07A905F081FF8DF8C7
S315080051A00C0003AAAAE008208DF8050002AB0DF151
S315080051B0050000900DF106027EA100F00DF904A984
S315080051C01020FFF7EEF8BDF8060004AA02A905F0BC
S315080051D0A7FF8DF8040001AA90E000BF7676750057
S315080051E000F005F900F015F903A91020FFF7D9F822
S315080051F003A901A801F052FE7DE000F0F8F80220AC
S315080052008DF8000000F005F903A901A801F04EFE8B
S3150800521000F009F903A900F0F1F805A91020FFF735
S31508005220FDF80998FFF7EBF80A98FFF7E8F8B8E0F1
S3150800523000F0D5F802999DF8040001F0FDFF8DF8FD
S3150800524005000DF1050200F0F1F802F010F8FFF77D
S31508005250BAF8FFF79FF800B1012001F0B4FF9AE011
S3150800526000F0BDF802999DF8040001F0B5FF8DF82D
S3150800527005000DF1050241E03A780FF2EC10002521
S3150800528000E06D1CEDB2415D9142FAD1FFF782F85C
S315080052900FF2EC1151F8251088477CE0FFF77AF8F1
S315080052A00546FFF7A3F80146387830280CBF454A6B
S315080052B0454A2846904774E069461020FFF771F87A
S315080052C038787728684602D106F018FA63E005F0C0
S315080052D01EFF60E001A8FFF731F90DF101030DF19A
S315080052E0020235A100F096F89DF901209DF80210FA
S315080052F001A802F061F88DF800006A4600F096F8F9
S315080053004FE000BF7675750076757000FFF742F8B6
S3150800531006F041FF3FE006F049FF3CE004A9684675
S3150800532006F010FF6846FFF738F904A8FFF763F997
S3150800533037E06846FFF747F9684606F00BFF30E0A6
S31508005340FFF728F806F01CFC2BE0FFF723F806F019
S3150800535096FB26E0FFF74AF806F060FF21E00820F2
S315080053608DF8120006AB04A803900DF1110205A8EA
S31508005370029012A104A801900DF11200009000F00D
S315080053802BF89DF8110000B10120059B9DF810200F
S3150800539006A901F013FBFFF716F802E006F052FF24
S315080053A00446204624B0BDE8F08700007562000078
S315080053B0766262007662000075730000756270009E
S315080053C0AAFF00206B7A0008AD1C0108514601208F
S315080053D0FFF7C8B9009029460120FFF7C3B901A80D
S315080053E0009002AB01AA41460120FFF7BBB908208D
S315080053F08DF801000DF10103704701A90820FFF798
S315080054000DB802A8019002AB03A800900DF10A029C
S31508005410704701AA0120FFF7A5B98DF801006B4670
S315080054200DF1010270478DF800006A4651460020CA
S31508005430FFF798B90DF1010251460120FFF792B91D
S315080054407576767675757500757575700000000049
S3150800545075757575700000007575767575757000CB
S315080054607562767500000000181D207A2A848586E4
S3150800547087888B8A8D959A2E5BB1A4A122E8EE00C7
S31508005480110A010811B201089D390108455501089C
S31508005490917D0008F19C0108719D0108879D01080E
S315080054A09B9D0108B79D01084F9E0108399E01087A
S315080054B07D9E010895EC0008F7A30008D3A701080C
S315080054C0D7A701081FAF000829EA010837EA01082B
S315080054D0C9900008E99E0108F79E010838B50446F8
S315080054E02078002846D16070012020722070A078AC
S315080054F0032832D0072834D0112808D0152833D0ED
S31508005500302818D0312819D032281AD030E0072090
S31508005510DFF8685B207204F10900298807F051FA60
S31508005520A878E072E8782073287960736879A073A0
S31508005530A879E07331BD07F06AFA17E007F02AFB8D
S3150800554014E00420207207F072FA04F10901BDE89C
S3150800555038400246012007F038BADFF8240B0078F5
S3150800556004E007F0C9FC01E008F0FAF8607231BD02
S315080055700020207031BD38B504462078002862D155
S3150800558001202070A078042814D0072818D00E28E7
S315080055901ED0112852D015283AD017283DD01828E1
S315080055A045D0192846D030282CD0312818D0322892
S315080055B01CD046E0207A012814BF362000203EE0A1
S315080055C0607A10B107F066FC39E007F075FC36E042
S315080055D0607A00B1012007F0F3FA00282FD015E011
S315080055E0607A00B1012007F0BDFA0EE0207A04289F
S315080055F00CD104F10901012007F0F5F907F01BFAAF
S31508005600E8B103E0607A07F004FAC0B1362016E084
S3150800561094F9090008F07CF80EE0657A04F10A00AE
S3150800562007F0C8F90146284608F0ADF904E008F085
S31508005630A5F901E008F095F9002000E03720607030
S3150800564031BD0020207031BD10B50446DFF8340A9C
S315080056500079217856280CBF0120002001BBA170D3
S315080056606178072910D130B108F0ACF9012814BFC8
S31508005670632062200EE0E07862280CBF012000203B
S3150800568008F0A3F9A07009E0042909D1DFF8F81990
S3150800569010B10878E07001E0E07808700120207009
S315080056A010BD017809BB817001210170417801297B
S315080056B00ED00C2909D017290DD02D2902D034294E
S315080056C00CD010E0DFF8C4190AE0DFF8C41907E0C7
S315080056D0DFF8C01904E0DFF8C01901E0DFF8BC19EB
S315080056E009788180704700210170704738B50446F3
S315080056F0207800285AD1012020700020A0706078F8
S31508005700012815D00C280FD017283DD02D2802D0F7
S31508005710342844D048E0A18803293DDAC9B2DFF825
S315080057206C0908F0C1FA38E0A088DFF8641939E096
S31508005730DFF86C09008828BBA08818B3DFF864591D
S31508005740287808F0DBFC09F028F880B1A188DFF892
S315080057504409C9B208F0A8FAA07009F028F8DFF8D9
S315080057604809DFF848190068401D086001E038203C
S31508005770A070012008F057FC28700020DFF83019C7
S31508005780088031BD382008E0A08809F0D0F818B99B
S31508005790A088DFF8041905E03620A07031BDA0887E
S315080057A0DFF8F818087031BD0020207031BD80B5CB
S315080057B001208DF800006846FFF72EF99DF80000D5
S315080057C002BD00002DE9F04FA7B009F015F809F061
S315080057D023F8DFF8D4880446D8F800008178002733
S315080057E00225FF294FF003092DD1C1780679042532
S315080057F011F03F004FF0050918BF492723D10806C5
S315080058000AD509F03FFB28B109F040FB123C0746D0
S31508005810E4B218E0482716E009F03BFB002818BF59
S31508005820CB2E0AD0CA2E18BFCC2E06D0CD2E18BF26
S31508005830002E02D0AA2E18BF482709F023FB0028FD
S315080058401CBFCC2E4A27D8F80000465D90F801A068
S31508005850DFF830580AF003018DF808102E71017828
S3150800586069704844DFF84C180860DFF8401808608B
S315080058704FEA5A1000F00300687109F0D0FB3800AF
S3150800588018BF582604D15FEA0A6002D55826322086
S315080058907AE2A87820B9287910B15826302073E220
S315080058A009F096FE10B9582642206DE2FFF77FFFF1
S315080058B0002800F06B822879A978DFF8FCB7020087
S315080058C093A70FF2502A4FF6FF7971D0012800F0FE
S315080058D0E981022800F0A980032800F0FB8005284A
S315080058E034D0062800F04181092818BF0A2800F09C
S315080058F044810B2818BF0C2800F046810E2800F0BA
S315080059005A81122800F09F81132800F0D0811728A9
S3150800591000F0E181262800F0D081272800F0D68102
S31508005920472800F0C781492800F035814E2800F045
S315080059306981522851D0532866D0552800F08D80A9
S31508005940562800F0A180652827D0812800F002811A
S315080059508F2800F0ED81912800F00582942800F048
S31508005960F481AA2800F0AC80AB2800F0D580AC28DA
S3150800597000F0E780AD2800F0E780AE2800F0E78069
S31508005980CA2800F0B281CB2800F0B881CC2800F0F4
S31508005990C381CD2800F0C381F12800F07081F52875
S315080059A01AD0F62800F00581FC2800F09B81E6E174
S315080059B0FEF7F0FC04460620FEF705FD0220FEF77A
S315080059C002FD4FF4C440FEF70AFDA878002808BF78
S315080059D0062C01D10120A870D8E100F005FAFEF7DF
S315080059E0D9FC8DF801006846FEF7EFFF9DF8000028
S315080059F028B937208DF802000020ADF8040001AB65
S31508005A000DF10202B0A157E0012918BF382023D1B1
S31508005A1000F0EAF901AB0DF10102ABA10120FEF796
S31508005A20A1FE6846FEF7DCFF25E03827012912D1DA
S31508005A30611FC9B2052008F0EAFE0446FF2C08BF1C
S31508005A40352708D009F0D6FD002814BF00273627C9
S31508005A50204608F053FB384696E1042200F0C5F9C3
S31508005A600DF103030DF1010239460120FEF77AFE16
S31508005A706846FEF798FF9DF8000010B937208DF8A4
S31508005A8002009DF802007FE1042200F0AEF9FEF75D
S31508005A9081FC8DF801006846FEF783FF9DF800003B
S31508005AA028B937208DF8020000208DF803000DF183
S31508005AB003030DF1020239460020FEF753FE65E1A5
S31508005AC000F08DF9FEF766FC8DF80E0003A8FEF7C8
S31508005AD045FF0BE000F083F904AB0DF10E02D0A1EF
S31508005AE00120FEF73FFE03A8FEF747FF9DF80C00CE
S31508005AF028B937208DF80D0000208DF8140000F025
S31508005B0067F90DF10D0251460020FEF72BFE3DE127
S31508005B10757500007575620000F061F900F058F9B6
S31508005B200DF10E0251460120FEF71CFE03A8FEF7F2
S31508005B3026FF9DF80C0000280CBF37209DF80D00A5
S31508005B4022E1FEF73DFB21E1FEF7ADFB1EE1FEF784
S31508005B50F8FB1BE1062CFCDBDFF85005DFF84C15DB
S31508005B6000680019401F086010E1012000F041F9A3
S31508005B70002840F02681072608E109280CBF0120E5
S31508005B80002002F029F901E10C280CBF01200020B1
S31508005B9000F0DAF9FAE0012168460AF094F928B12A
S31508005BA00020FEF710FCBDF8000091E03620FEF755
S31508005BB00AFC00208CE0FEF7EDFB8246FEF716FC99
S31508005BC08146FEF7E7FB0746FEF7E4FB0446B9F510
S31508005BD0004FB4BF042F702011DABAF1020F0FDAA2
S31508005BE00BEBCA0A3A46DAF8000049460AF016FAF2
S31508005BF0AAF8049004B900278AF806700020C3E0C2
S31508005C007020C1E0FEF7C6FB814600240020B9F1EA
S31508005C10020FADF802008DF800000BDA5BF83900C8
S31508005C206A460DF102010AF009FA0BEBC900807900
S31508005C3000B10124BDF80200FEF7D1FB9DF8000073
S31508005C40FEF7C1FB7FE0FEF7A5FB040018BF0124A1
S31508005C5000200AF025FA07463A46FF2A08BF182008
S31508005C6024D0002C14BF48460220B6A10AF066FAD2
S31508005C700020FEF7A8FB384608F040FA86E04FF009
S31508005C800009DFF8384434F81900FEF7A8FB09F1D3
S31508005C900109B9F1280FF6DB2879652876D107F0CE
S31508005CA060FE73E0FEF776FB0AF098FB6CE009F0FD
S31508005CB09EFC6BE009F092FC68E0DFF8041408200B
S31508005CC0FEF7ACFB62E000BF757600000AF07CFDCB
S31508005CD0FEF785FB5AE06846FEF729FC684603F09E
S31508005CE00BFB51E00AF042FF4EE000F06DF8FEF7BC
S31508005CF08DFB014603A80AF045FF45E0FEF74AFB7F
S31508005D00044607A900F061F803AA07A920460AF085
S31508005D103BFFFEF758FB21E00AF038FF34E06846FF
S31508005D200AF036FFFEF74FFB0098FEF768FB2DE0FA
S31508005D300AF05CFF0124484505D0FEF72BFBDFF887
S31508005D4084130024087020461EE000F03DF807A9D9
S31508005D5000F03BF807A903A80AF08EFF03A9102054
S31508005D60FEF75CFB12E00AF041FFFEF738FB042061
S31508005D70FEF729FB1020FEF726FB032004E0FEF7BA
S31508005D8059FE18B958263120FEF71DFBD8F8001021
S31508005D9068780870D8F800008178002902BF297849
S31508005DA00029867004D0FF218170D8F8000006719A
S31508005DB0072E0CBF012200229DF80800012100F0E1
S31508005DC031F827B0BDE8F08F03A91020FEF7E9BA2D
S31508005DD005A8019005AB0DF11500009070478C22BF
S31508005DE0002103A8FEF760BD062200216846FEF7DB
S31508005DF05BBD38B5AA4D0446288810B108F014FDD5
S31508005E0008B9002032BD288808B908F0FEFCAE485B
S31508005E1000780122214600F005F8012032BD000075
S31508005E20757700002DE9F84F9F4F04463868884675
S31508005E308178934602254FF00309FF299B49096893
S31508005E4004BF04254FF005090E1A09F01BF80028AF
S31508005E50B6B21EBF3868405DCC281CBF1236B6B233
S31508005E605FEA0B0004D038684078C0F3411A02E0B4
S31508005E7009F0D1F88246854909788A4505D340F262
S31508005E8029410FF250200AF003FF4FEA4A1040F06A
S31508005E908000DD2E5FFA80FA05DBDC2008F0C0FC06
S31508005EA04AF0020A02E0F0B208F0BAFC7549C8786E
S31508005EB018B100204AF0020AC870844802781AB15C
S31508005EC000224AF0010A0270754E308808B14AF07D
S31508005ED0040A38681BEA080F18BF4AF0080A80F84F
S31508005EE001A03868807810B9012008700FE008F022
S31508005EF0C9FF00281EBF3868415DCC2904D080211F
S31508005F00C17008F0C1FF02E039680020C87008F0C7
S31508005F10C0FF48B13868415DCB2901BF10F80900B8
S31508005F200028022008F0B4FF012C18BF022C02D169
S31508005F30308800B10024644804704046BDE8F24F3A
S31508005F4008F051BC620000002DE9F0419AB0044601
S31508005F50FEF720FA0546062D13D1002C39D1282044
S31508005F60FEF731FA5A4801880223224601A80AF0A8
S31508005F70C3FFBDF80400FEF732FA641C142CF1DBEB
S31508005F8079E0082D1DD124BB4020FEF71CFA042316
S31508005F9022460D2168460AF0AFFF9DF80000FEF77D
S31508005FA012FA9DF80100FEF70EFA9DF80200FEF7B8
S31508005FB00AFA9DF80300FEF706FA641C102CE6DBC5
S31508005FC059E00B2D01D124B952E0200003D0092D48
S31508005FD001D170204DE000260FF20C1000EBC60729
S31508005FE03878854230D197F80180200004BF4046B2
S31508005FF0FEF7E9F9786801884346002202A80AF004
S315080060007BFF200027D0FEF7C5F997F801804045A9
S3150800601001D002202DE0002000E0401CC1B241451D
S3150800602002A905D2C0B2095CFF29F6D0462020E0B5
S315080060304046FEF7B6F978680088424602A90AF093
S31508006040ECFF0020FEF7BFF9761CF6B20A2EC3D382
S3150800605074B1B1200DE0092D05D1152200210DF1ED
S315080060604E00FEF721FC787802A9FEF7D7F902E080
S315080060700020FEF7A8F91AB0BDE8F081206B0208E7
S31508006080F7F30020A6FF002013F40020FEF30020FB
S31508006090A0FF0020F6F30020ACFF002000F400204B
S315080060A08EFF00202FF40020ACFA002054F80020C0
S315080060B0C2F8002050F8002078F30020C4FA002027
S315080060C0B0FA00202EF40020CDFF00208CFF00201F
S315080060D0526B0208636F6D6D616E642D68616E6444
S315080060E06C6572732E63000001100000466B02088F
S315080060F002100000486B0208030200004A6B0208FF
S31508006100051000004E6B020807080000506B0208D5
S3150800611000020000426B0208040200004C6B0208F1
S31508006120095C0000546B02080A140000566B02084A
S315080061300C080000446B02082DE9F84F80460D460E
S31508006140DFF8140C0A99067801247E2991469A46A6
S31508006150A8BF742043DA080003D00B9808F051F85A
S3150800616001E000F0C5F883460C9FBBF1FF0F03D191
S3150800617000201824387031E0342E06D0362E0ED082
S31508006180382E13D0962E18D01AE05B464A46294672
S31508006190404602F03DF8044602F065FD10E05B4615
S315080061A042464946284602F093F808E05B46EAB2BA
S315080061B04146484602F007F901E00BF0E3FB0446C6
S315080061C0962E1CBF99F80A00387024B9DFF88C0B94
S315080061D0006800F80BA0584607F090FF2046BDE877
S315080061E0F28F10B584B0089C0294079C0194069C13
S315080061F0009407E010B584B00446104600F00FF886
S315080062000A462146FFF798FF04B010BD10B50446AC
S3150800621084B00846114600F002F82246F2E7089ACA
S315080062200292079A0192069A00927047E0B50022F8
S31508006230019100900292002300210020FFF77CFFC5
S315080062400EBD2DE9F04683B00D460C9907460800A9
S3150800625091469A4603D00D9807F0D3FF01E000F067
S3150800626047F804460E9EFF2C03D1002018253070EF
S315080062700BE00A980190CDF800A023464A46294625
S31508006280384602F085F800F027F822E02DE9F046B6
S3150800629083B089460C990546080092461F4603D0E6
S315080062A00D9807F0AEFF01E000F022F804460E9EB6
S315080062B0FF2C03D10020182530700AE00A980090B8
S315080062C001943B4652464946284602F023F800F018
S315080062D003F82846BDE8FE860500B87A307004D172
S315080062E0DFF8781A09680B980855204607F006BFA4
S315080062F0002007F065BF38B5DFF8644A2080C888F3
S31508006300440606D5DFF85C4A2478202C03D100041D
S3150800631001D4702032BDDFF8504A1000216004D045
S315080063201146184607F06DFF01E0FFF7E1FF054645
S31508006330FF2D08BF18240AD020684088294602F095
S3150800634033FA044602F08FFC284607F0D7FE2046AB
S3150800635032BD02F008BC0BF053BC0BF04DBC2DE966
S31508006360F041069F0D4604461646984639460BF0F8
S31508006370C9FC20460BF0DEFC0799088038460BF06E
S31508006380E8FD08990870294620460BF051FC074697
S3150800639038B9314620460BF089FC414628460BF0B1
S315080063A0F6FD3846BDE8F081DFF8C0391B7898421B
S315080063B001D370207047DFF8B829126832F8203008
S315080063C00B8002EB80008078887000207047DFF829
S315080063D09C391B78984201D370207047DFF89029C2
S315080063E012680B8822F8203002EB800089788170C9
S315080063F00020704730B585B00C4604F01EF80546F7
S3150800640000202073102307226946012006F0C9FCE4
S31508006410082202A92046FEF704FABDF800002081EA
S3150800642004F114019DF80200A0729DF80300E072C1
S3150800643004F110000BF003FEE08105B0284630BDDC
S3150800644038B504460D460AF0A3FA01460822204646
S31508006450FEF7E7F90AF098FA2880DFF818090078B5
S3150800646032BD0CF0B0B9FF2202F0B8BF70B5A2B0C9
S315080064700D460446694604F0C7F8060004D12A46C4
S3150800648069462046FEF753F9304622B070BD10B56E
S3150800649004462078002841D1012020722070A07877
S315080064A0401E0BD0401E07D0801F07D0401F05D0C6
S315080064B0401F022802D903E00220207200206070E3
S315080064C0A07801280CD0022814D008280CD00D2852
S315080064D00DD0122817D0132817D0142818D01BE06F
S315080064E0DFF89408007815E002F0DBFC12E00CF007
S315080064F0F8FE0FE0DFF88408018804F10900BDE81A
S31508006500104006F05EBAFF2004E002F061FF01E0E9
S315080065100DF070F8607210BD0020207010BD10B527
S31508006520044682B0207858BB012020700020607095
S31508006530A07818B1022819D00BD31FE061686A4603
S31508006540C9B209F0BDF860700220207204F1090092
S3150800655007E00320207268460DF017FA607204F10E
S315080065600A00BDF8001006F02CFA13BD01202072AF
S31508006570606880B202F007FB607213BD00202070CD
S3150800658013BDF0B5044687B02078002840F01A817C
S3150800659001202070A078010027D0012849D00228C0
S315080065A04ED0052818BF062852D0082800F0FB80D0
S315080065B009285BD00A2800F07E800B2800F080802E
S315080065C00C2800F0C4800F2800F0C580232818BFC7
S315080065D0242800F0CD80252800F0DB80292800F04B
S315080065E0E480342800F0E380EAE0207A102860D1BD
S315080065F000F0EAF8ADF80400082294F90B008DF8CB
S31508006600060004F11001207B8DF80700607B8DF8E9
S315080066100800A07B8DF80900E07BADF80A0003A806
S31508006620FEF7FFF81023072201A9002006F0B9FBA0
S31508006630C3E0207A01283CD1607ADFF83C17BBE03A
S31508006640207A022835D100F0BFF8DFF830170BE0C2
S31508006650207A02282DD100F0B7F8A17805290CBFB9
S31508006660DFF81C17DFF81C170880A6E0DFF8180704
S315080066700568207A46080DB9DEB99EE0DFF80C07F2
S315080066800078B04215DB002707E004EB4700093025
S3150800669006F090F925F817007F1CB742F5DB4FF492
S315080066A0004725F8167028460DF0AFFB002801D0E4
S315080066B02F80362082E000F087F80DF08CFD7CE014
S315080066C000F082F8DFF8C8261268527B05464FF6B6
S315080066D0F87122B9884202DA0AF07AF86DE02A00DF
S315080066E02FD088422DDA0AF06FF8854229D028463D
S315080066F00EF042FC28BB05A928460BF0C4FB00BBDC
S3150800670028460FF0A9F9E0B928460FF0CBFAC0B928
S3150800671028460FF0DAFCA0B928460CF097F880B99D
S31508006720284610F0ACFA60B928460AF051F89923C1
S315080067301322A1A1032010F00BFB992010F044FCB2
S315080067403BE00AF041F8854237D0382036E0607AD7
S31508006750DFF8401630E0657A04F10A0006F02AF9F7
S31508006760ADF800006A462946012008F0A9FF25E091
S31508006770217A042912D123280CBF0325012504F107
S315080067800901012006F02FF90146284610F0B0FC51
S3150800679014E0607A032818BF042801D002200DE00F
S315080067A003F01EFD09E0372008E0702006E0607A55
S315080067B000B10120DFF8E01508700020607001E0E4
S315080067C00020207007B0F0BD04F1090006F0F2B809
S315080067D010B50446DFF880050078217856280CBFE6
S315080067E00120002009BBA170DFF87825617803290C
S315080067F005D108B150780FE0E078507013E002290F
S3150800680005D108B1107807E0E07810700BE0092987
S315080068100BD118B103F0B6FEE07004E0E07800B1E1
S31508006820012003F0A0FE0120207010BD017801B1FF
S31508006830704730B58170012101704178052908D06B
S31508006840122915D018290CD01F2914D0382915D08B
S3150800685018E0DFF84815DFF8482509781278891A0C
S3150800686024E0DFF840150A78511E8941C90F1DE05A
S31508006870DFF8341504E0DFF8341501E0DFF83015E9
S31508006880098813E000220FF2645300E0521CD2B2CA
S3150800689014461D5DFF2D02D10021017030BD8D42C9
S315080068A0F4D10FF2645151F824100978818030BD73
S315080068B070B50446207800287BD10120207000207E
S315080068C06278A070052A0AD0122A2CD0182A1FD05E
S315080068D0192A04D01F2A22D0382A2FD033E0DFF80D
S315080068E0C0040578DFF8B40401784E1BA188052A90
S315080068F00CBF0E460D46A919C9B207F0D5F90028EE
S31508006900A07056D1E9B2F0B2BDE8704010F058BE9A
S31508006910A188481E8041C00FDFF888143FE0A08890
S31508006920DFF888140DE0A18847F231508142A8BFEC
S3150800693036203BDADFF87004018070BDA088DFF8E6
S315080069407014088070BD0FF2A44100E0401CC0B26C
S315080069500346CD5CFF2D02D10020207070BD954204
S31508006960F4D1A188022B08DADFF8480450F823008E
S315080069700078884238BF362018D30FF28C4050F87A
S315080069802300092B0DDAC9B207F08EF9A07000288A
S3150800699004BF607811280CD1A088DFF81C14087091
S315080069A070BD342A04D1C9B207F07EF9A07070BD53
S315080069B0017070BD0000000042420000F8B50446B0
S315080069C00D461146184607F01CFC18260746FF2FE9
S315080069D008D03A462946204611F046F90646384672
S315080069E007F08CFB3046F2BD38B504460D462188C3
S315080069F0284605F0E6FF6188A81C05F0E2FF207925
S31508006A00287160796871A81DE18805F0DAFF218987
S31508006A1005F1080005F0D5FFA07AA87231BD10B5BA
S31508006A2086B004461B208DF80000A0788DF801007A
S31508006A300DF10200218805F0C4FF0822211D01A8D6
S31508006A40FDF7EFFEE1788DF80C10217B8DF80D101F
S31508006A50607B8DF80E000DF10F0000F0BEF91121D4
S31508006A6000F01FF906B010BD80B51C228DF8010094
S31508006A708DF802108DF80020D9E02DE9F04788B08E
S31508006A8007460D46144611F065F982462246294600
S31508006A90384608F0A1FD002863D10DF1090011F070
S31508006AA061F930B962208DF80800092102A810F0B2
S31508006AB0A6F9FF2C0FBF0026C04909680E5D4520C0
S31508006AC08DF808008DF809700DF10A012846FFF7C0
S31508006AD08BFF0DF1150000F080F951460DF11700F6
S31508006AE005F06FFF01F085FE8DF819000027B44800
S31508006AF0DFF8AC820568DFF8A49201E07F1C0C354C
S31508006B0099F8000098F80010FFB2401A87420ADA8E
S31508006B1028885045F2D108F0A5FAA97AC1F34201AE
S31508006B208142EBD100E0FF278DF81A708DF81B60C3
S31508006B30504602F028F88DF8040000B101200090B4
S31508006B4001AB2246142102A810F061F900281EBFE5
S31508006B5084480078212804D19A48017841F0040134
S31508006B60017008B0BDE8F0872DE9F0430746934861
S31508006B7000681D4687B0465D0E9C884691462146AC
S31508006B80384601F0C0F93F208DF804008DF80570ED
S31508006B9041460DF1060005F014FF02A94846FFF725
S31508006BA023FF6E480068405D8DF813008DF8144089
S31508006BB085480078402804BF0026FF25002000905D
S31508006BC08DF8156000232A46122101A810F01FF936
S31508006BD007B0BDE8F08330B589B00D46044604A970
S31508006BE00BF0F1FD23208DF800008DF801408DF89B
S31508006BF002500DF10300BDF81A1005F0E2FE082256
S31508006C0004A90DF10500FDF70CFE9DF818008DF896
S31508006C100D000E2100F045F809B030BD80B57C2185
S31508006C208DF8001001460DF1010005F0CAFE03219A
S31508006C30684610F0E4F801BD70B586B004467D20BC
S31508006C408DF800000D46164621460DF1010005F0A7
S31508006C50B8FE082229460DF10300FDF7E2FD8DF87E
S31508006C600B600C2100F01DF803A811F07BF818B989
S31508006C7003A9204610F0AAFC06B070BD38B5044634
S31508006C800D4601F01FF980208DF800008DF80140AF
S31508006C9029460DF1020005F094FE042100F001F8E2
S31508006CA031BD684610F0ABB810B584B0044646202E
S31508006CB08DF8040001A821784170617881700DF182
S31508006CC0070000F08AF83D48A1780068405C8DF816
S31508006CD009000023002000900621A27801A810F0E0
S31508006CE096F81FBD80B598208DF800008DF8011024
S31508006CF0684602219DE71FB50C4692218DF80410BF
S31508006D00082201460DF10500FDF78BFD0DF10D007A
S31508006D1000F063F829480068005D8DF80F0000232D
S31508006D200020009022460C21D8E7244A00B51268B4
S31508006D3083B0125C8DF8051093238DF80620002188
S31508006D408DF80430009102460023032101A810F0B3
S31508006D505EF807BD00000000AAFF002060FC0020C6
S31508006D607AFC00201BF400207CFC0020FCF30020A9
S31508006D7074F20020D3FF0020DFFF0020EEF300208E
S31508006D80D2F30020D4F30020B0FC00205CFC0020E5
S31508006D9048FC002070FE00203CF4002004F400208B
S31508006DA0DBFF0020F8F30020C0F30020BCF300202E
S31508006DB0CCF3002008F3002009F4002044F2002058
S31508006DC0A8F2002078FC002013F4002080B50AF011
S31508006DD023FFBDE8014010F0DFBF10B5044610F0F0
S31508006DE0B2FF601CBDE8104010F0AFBF11020306E9
S31508006DF007081A2B2C1910131B1C1D2021222A2EBA
S31508006E0033343537FF000000F9F30020FFF3002084
S31508006E1005F40020FCF30020FAF30020FBF3002021
S31508006E2099FF0020FDF300205CFC0020DBFF00201A
S31508006E300AF400200BF400200CF4002006F40020CD
S31508006E409BFF002069F300200DF400200EF40020BB
S31508006E509FFF0020A2FF002037F4002000F4002046
S31508006E606BFC002036F4002038B50446002910468D
S31508006E7001461A46204602D012F0B2FB01E012F093
S31508006E8080FB0546002C1EBF04980028A04203D0AC
S31508006E902146142212F010FC284632BD0246022072
S31508006EA000291CBF104612F033BC70470246022068
S31508006EB000291CBF104612F0BCBC70471CB504461E
S31508006EC00020ADF800002078F8B902202072A078DA
S31508006ED00A280AD0102810D101A812F092FE607074
S31508006EE0BDF80400ADF8000004E0002060706846B4
S31508006EF00DF08AF90120207001E0207828B1BDF84C
S31508006F00001004F1090005F05CFD13BD38B5044610
S31508006F102078002804BFA078102812D104F10901AE
S31508006F20012005F060FD054604F10D0005F042FD5F
S31508006F30ADF800006946284612F038FE6070012058
S31508006F40207031BD76490978027856290CBF01218F
S31508006F5000212ABB8270012202704278130006D1F2
S31508006F60704A09B1117811E0C07810707047052A87
S31508006F7005D16D4A61B1117841F0500106E0062A43
S31508006F800CD16A4A21B1117841F06001C17070478D
S31508006F90C17801F00F01C1701170704700210170AE
S31508006FA0704710B504462078B8B900F045F806D001
S31508006FB01E2807D0242807D0362808D00BE009F069
S31508006FC0EBFC06E05A4800E05A48007801E05A48C7
S31508006FD00088A08010BD0020207010BD10B50446A2
S31508006FE0207840BB00F028F806D01E280AD02428AE
S31508006FF012D0362819D01CE0A088BDE81040C0B2CF
S3150800700009F0CEBC4D48A188007888420AD3C9B297
S31508007010474806F049FE06E0A1880B2902DA4548EA
S31508007020017010BD3620A07010BDA08842490880A6
S3150800703010BD0020207010BD012020700020A07017
S3150800704060780D28704700002DE9F04F1646012E8E
S3150800705089B0804689469A4612D10124002506A899
S315080070600DF0DCF8022755EA0401DFF8B8B005D0C0
S3150800707058B9BDF81800800707D535B1032715E0BC
S315080070800024032EEAD10125E9E79BF8000005282C
S315080070900AD8DFE800F0030605090841012705E0DC
S315080070A085B1002702E02746022F0BD009F08CFB9A
S315080070B0824507D0514640460AF075FD4946404686
S315080070C010F084FA019753469BF800000090324668
S315080070D049464046FDF7A9FC044624208DF80800D9
S315080070E041460DF1090005F06CFC082249460DF1F0
S315080070F00B00FDF796FB8DF813608DF8144051468A
S315080071000DF1150005F05DFC0F2102A80FF077FEC2
S31508007110204609B0BDE8F08F002DC2D0AEE70000CA
S31508007120AAFF002018F400209DFF002007F4002085
S315080071309CFF0020A1FF0020BEF30020666B02081A
S3150800714080B56E218DF800108DF801000221684681
S315080071500FF055FE01BD10B584B00C469B218DF885
S315080071600010082201460DF10100FDF75AFB8DF8C3
S3150800717009400A2168460FF042FE1FBDF0B583B0EC
S3150800718010F8014B0E461746214607F03AF8054611
S31508007190FF2D03D10E4901200870F7BD8E208DF80A
S315080071A004008DF80560002000908DF806708DF8B3
S315080071B0074000232A46042101A80FF028FE284686
S315080071C006F09CFFF7BD00B1024812F05BBD000057
S315080071D08CFF00207D71000800B58028A1B0A8BFEB
S315080071E002200ADA8DF8000002460DF10100FDF7CB
S315080071F018FB0021684612F0EBFD21B000BD10B562
S3150800720004462078002804BFA07833280FD101202F
S31508007210207009B1002004E0607A12F031FE00B156
S31508007220362060700120207212F03AFE607210BD9E
S315080072300121E4E70021E2E730B58BB004460D46AC
S315080072402A22FF216846FDF72FFB2146284606F02D
S31508007250D8FF0446FF2C08BF182505D012F03CFEBF
S315080072600546204606F04AFF28460BB030BD10B545
S315080072704E4C2178FF29A8B008BF702020D00020E6
S3150800728000904A2300220AA806F0D7FF00200090A3
S31508007290252321784A221DA806F0CFFF002000905A
S315080072A0242321786F2201A806F0C7FF207806F06C
S315080072B025FFFF20207001AA0AA91DA812F019FEB1
S315080072C028B010BDF8B5394F04463878FF280D4662
S315080072D0164608D19321002006F093FFFF28387040
S315080072E001D13520F2BD01200090334639782A466F
S315080072F0204606F0A2FF0020F2BD10B50446A6B04F
S31508007300207860BB01202070A0781A2804D024D3E6
S315080073101C2815D00AD320E04A2204F1090113A833
S31508007320FDF77FFA4A22002113A812E0252204F16C
S31508007330090109A8FDF775FA25224A2109A808E0D6
S31508007340242204F109016846FDF76BFA24226F210D
S315080073506846FFF7B7FF607001E00020207026B08E
S3150800736010BD0178002904BF417829290CD110499C
S315080073700978522904D10F4909788180002100E053
S315080073803821817001210170704710B5074C2078AB
S31508007390FF281FBF06490978AB29ED2903D006F057
S315080073A0ADFEFF20207010BD000000001AF400207A
S315080073B0AAFF00209EFF002011B1012903D004E096
S315080073C0114604F028BA04F079BA0220704710B5BD
S315080073D004462078002804BF607808280ED114488F
S315080073E00078562803D104F0F1FEE07002E0E07858
S315080073F004F0EFFE0020A0700120207010BD017877
S31508007400A1B941782F2908BF0A4902D030290DD1E0
S31508007410094959B1064A1278522A07BF0978818064
S3150800742082880A700021817001210170704700006E
S31508007430AAFF002010F4002011F4002030B58FB008
S3150800744005460C463B2200216846FDF72DFAB62074
S315080074508DF800000DF10101284600F076F8DCB140
S3150800746000218DF82910082221460DF12A00FDF782
S31508007470D8F90DF12905207A68720DF13300618972
S3150800748005F09FFAA1890DF1350005F09AFAA07B5F
S31508007490A873E07BE87302E001218DF829100DF14D
S315080074A03900FFF79AFC3B2100F00CF80FB030BD0D
S315080074B080B5B7218DF800108DF80100022100F083
S315080074C001F801BD68460FF09ABC10B586B00446AF
S315080074D0B8208DF800000DF10100218805F071FA39
S315080074E061880DF1030005F06CFAA1880DF105001D
S315080074F005F067FAE1880DF1070005F062FA2189BF
S315080075000DF1090005F05DFA61890DF10B0005F032
S3150800751058FAA1890DF10D0005F053FA0DF10F0087
S31508007520FFF75BFC1121FFF7CDFF06B010BD00B5D4
S315080075308BB0BB218DF800100DF1010100F005F8A4
S315080075402921FFF7BFFF0BB000BD38B504460D462D
S31508007550A0782870681C218805F033FA0822211DB6
S31508007560E81CFDF75EF9E078E87205F10E01207B6C
S315080075702873607B68730120226905F026FA626920
S3150800758005F11201012005F020FA218B05F11600FC
S3150800759005F017FA082204F11C0105F11800FDF799
S315080075A040F9A18C05F1200005F00BFAE18C05F1F4
S315080075B0220005F006FA04F1280105F124000A78EC
S315080075C002704A7842708A788270C978C17031BD73
S315080075D0F8B5BB4D0446286800792B38022801D92E
S315080075E00D382ED1FCF7D6FE06462868B549401D4B
S315080075F00860002131200FF0CAFC05464FF6FF77D8
S315080076000BE005F10D0080B20FF0EEFBB04213D08F
S31508007610294631200FF0BBFC0546BD42F1D10021B9
S3150800762000E0294632200FF0B2FC0546BD4208D0DC
S315080076300FF0DAFBB042F4D1A420FCF7C4FE002018
S315080076402070F1BD38B50446002100E029463F20E8
S315080076500FF09DFC05464FF6FF7085420CD0284674
S315080076600FF0C2FB0228F1D1681C80B20FF0BCFBF8
S31508007670A042EBD1012032BD002032BD2DE9F843EE
S315080076808046002145200FF082FC4FF00009044691
S315080076908D4D4FF6FF7609E0FF21B8B20FF0A9FB32
S315080076A0A1B245200FF073FCA1460446B44224D08B
S315080076B004F11007B8B20FF097FB4045F0D1204609
S315080076C00FF092FB022818BF0328E5D1A41FA0B229
S315080076D00FF08AFB01462888401A32187B482A8010
S315080076E00919121B92B2007800924B1C9BB20246F3
S315080076F0A1B206F09BFF4C46D2E7BDE8F183F0B590
S31508007700734F3D788BB0064607F0ACFC07F087FC54
S3150800771000F07BF806D012282FD17188707808F00F
S3150800772012F850B3707804A907F0ACFF88B1BDF819
S31508007730100040F20911884204BF7088B0F5006F46
S3150800774007D1701D12F0E0FBB52802D0A8B90024B5
S3150800775013E00124002500E06D1C3978E8B2884260
S315080077600BD206A900F099F99DF818000028F3D164
S315080077703146E8B200F09CF9044631208DF8000045
S3150800778030788DF8010070788DF802000DF103004D
S31508007790718805F016F930798DF805000822711DF3
S315080077A00DF10600FDF73DF88DF80E508DF80F40E7
S315080077B0102168460FF023FB20460BB0F0BD38B504
S315080077C0054607F04FFC07F02AFC00F01EF818BF24
S315080077D012280DD12846FFF735FF08B1752407E0B2
S315080077E0284600F0B0F9040004BF2846FFF746FF14
S315080077F032208DF800008DF801508DF802400321E3
S3150800780068460FF0FCFA204632BD324800786C24F0
S315080078101128704738B504460D46FFF713FF08B11F
S31508007820752511E03DB107F0F6FB68732946204639
S3150800783000F03EF902E0204600F085F905462800EA
S3150800784004BF2046FFF71AFF284632BDE2E70021AB
S31508007850E0E721490978027856290CBF0121002161
S31508007860002A04BF4278012A0AD11A4A002919BFF8
S315080078701178C170C17811700021817001210170E1
S31508007880704710B504462078002804BF607804289D
S3150800789014D111490E480978522903D10078A080DD
S315080078A0002008E00D4AA18812788A4232BF3620A5
S315080078B0C9B206F0F9F9A0700120207010BD0000C9
S315080078C0ACFA002050F800208EFF00202FF400208C
S315080078D09AFF002019F40020AAFF0020646B020812
S315080078E01FB50C4602460D231621684609F004FB0F
S315080078F00D2269462046FCF794FF207840096073FC
S31508007900207800F01F0020701FBD30B585B00446F2
S315080079100D460D226846FCF784FF9DF80000697B3A
S3150800792040EA41108DF800000D236A4621461620CC
S3150800793009F009FB05B030BD2DE9FF41044600F00A
S315080079405FF814E03068EDB2A84630F81800A04297
S315080079500CD16946284600F0A0F89DF800000228D8
S3150800796004D031684FF6FD7021F818006D1CE8B296
S3150800797039788842E6D3BDE8FF812DE9F045884687
S315080079804FF6FF7AD04585B0044605D100F0D8F900
S3150800799010B908F019FF30E000F032F80CE0D045D5
S315080079A008D0306830F81510414504BF4FF6FD7110
S315080079B020F815106D1CEDB2387885421CDA30684F
S315080079C030F8150000F018F9F4DA69462846FFF78A
S315080079D087FF082221460DF10500FCF76CFF0028F9
S315080079E0DDD13068D04502D130F8150005E020F821
S315080079F0158012F0C3FADDE7504605B0BDE8F085FC
S31508007A000025DFF8C463DFF8C47370472DE9FF4724
S31508007A10804689460026DFF8B873DFF8AC43DFF8FE
S31508007A20AC5316E02068F6B2B24630F81A0000F0F9
S31508007A30E3F80DDA69463046FFF752FF0822414659
S31508007A400DF10500FCF737FF10B9386800F80A9001
S31508007A50761CF0B229788842E4D3BDE8FF87DFF8C0
S31508007A606813096831F8100070471FB5DFF85C2302
S31508007A70127890420C460FD2D349096831F8101093
S31508007A804FF6FE72914207DA694600F006F821467B
S31508007A900DF10500FFF771FF1FBD80B5CB4B1B78B5
S31508007AA0984201D3692002BDFFF71AFF002002BDE4
S31508007AB070B504460D4623460022B4A103200FF0F4
S31508007AC047F928780028204602D1BDE870403AE0F8
S31508007AD0BE490978884201D3692070BD12F079FE43
S31508007AE008B1752070BD07F073FA6873681D0AF04F
S31508007AF030FA06464FF6FF71681DFFF73EFF02464D
S31508007B0029783346204600F006F829462046FFF72E
S31508007B10FCFE002070BD30B54FF6FF740D0008BF9F
S31508007B20224608D0032908BF4FF6FE7203D0A242A8
S31508007B3008BF4FF6FD72A449096821F81020A44928
S31508007B4009680B5430BD30B505462C4685B023462A
S31508007B5001228EA103200FF0FBF89C4909782846DC
S31508007B60884228BF692019D212F033FE08B1752061
S31508007B7014E069462846FFF7B3FE9DF8000030B1C9
S31508007B8000208DF8000069462846FFF7BEFE8E499C
S31508007B9009684FF6FF7021F81400002005B030BDC3
S31508007BA0F0B585B007460C46874D884E00E07F1C29
S31508007BB03178F8B288421CD22868FFB230F817002C
S31508007BC000F01AF8F3D169463846FFF789FE9DF8A2
S31508007BD00500E1B2884204BF9DF80610B1EB142FE8
S31508007BE0E5D107F0F5F99DF80D108142DFD1384649
S31508007BF000E0FF2005B0F0BD4FF6FE7188427047E1
S31508007C002DE9F14F84B00D460E9C6F4FDFF8BCA1ED
S31508007C1090469946002607E03868BDF8101030F8F7
S31508007C201B0088422CD0761C9AF80010F0B28842C5
S31508007C3028D23868F6B2B34630F81B00FFF7DCFFE7
S31508007C40F1DA69463046FFF74BFE5FEA080007D1CE
S31508007C509DF80100484504BF9DF80400A042E2D102
S31508007C6007F0B6F99DF80D108142DCD1002DD3D06E
S31508007C7008220DF105012846FCF71DFE0028D2D181
S31508007C80304600E0FF2005B0BDE8F08F10B5144679
S31508007C90FFF726FE2046BDE8104008224D49FCF7AE
S31508007CA0C0BD2DE9FF470446084615461E4600F0A6
S31508007CB047F808B1002040E00027DFF80C81DFF81C
S31508007CC00C9100E07F1C99F80010F8B2884223D284
S31508007CD0D8F80000FFB2BA4630F81A004FF6FF711E
S31508007CE08842EFD069463846FFF7FAFD0C220DF1B7
S31508007CF00101601CFCF7DFFD0028E3D1BAF1FF0F94
S31508007D000CD10020307007F084F9307855B138B9B5
S31508007D102046FFF7F4FC09E0FF27F2E70120F1E728
S31508007D20012006E028B13846FFF749FD401E80418C
S31508007D30C00F307007F028F9012004B0BDE8F087BD
S31508007D4008222449FCF7B7BD30B585B000241F4D7D
S31508007D5016E06946FFF7C4FD9DF80000042806DB17
S31508007D6000208DF800006946E0B2FFF7CEFD9DF8C9
S31508007D70001000234FF6FF72E0B2FFF7CCFE641C3A
S31508007D802978E0B28842E4D305B030BD424200000B
S31508007D9030B585B002220BA103200EF0D9FF0020D2
S31508007DA08DF800000024094D03E06946FFF7ADFD94
S31508007DB0641C2978E0B28842F7D3FFF7C5FF002094
S31508007DC005B030BD420000009CF200209AFF00205A
S31508007DD0A0F20020B0FA002030B583B00446FCF7C4
S31508007DE0D9FA0546202D1ADA5CB169460820FCF74F
S31508007DF0D8FA08236A462946212009F0A4F8002063
S31508007E000EE008232A462121684609F075F8002065
S31508007E10FCF7D9FA69460820FCF700FB37BD702045
S31508007E20FCF7D1FA37BD704770B55D4D6E8A0446CA
S31508007E3005F1080012F03FFD012C08BFAE8A02D0FA
S31508007E40022C08BF022618B1FA217143884206D3CC
S31508007E50310205F10800BDE8704012F01FBD70BD83
S31508007E607CB54F4C0020E07020714FF6F972208ADD
S31508007E7090421CBF4FF6F872904202D00020207242
S31508007E8073BD6179474E4FF6FD7589B14FF6FC70A3
S31508007E9001900023002000900022308800210BF07A
S31508007EA008F80020607135800120BDE87640BBE700
S31508007EB0A17810F069F93088A842F5D001206071E0
S31508007EC00220F2E710B500F039F81CBF4FF6F87437
S31508007ED0A34217D1A92818BFAA2813D1D078137896
S31508007EE0401CD070C0B298420CD32E4803884FF677
S31508007EF0FD74A34202D10180002050710020BDE824
S31508007F00104091E710BD10B500F018F81CBF4FF6E9
S31508007F10F874A34211D103001CBF012802280CD112
S31508007F2066290AD110795178401C1071C0B288426E
S31508007F3003D3BDE81040002076E710BD184A138A1F
S31508007F404FF6F974A342704710B5154C218292007A
S31508007F50029921709B0003996282A38261709BB289
S31508007F600499A17092B293420AD301001EBF218AD6
S31508007F704FF6F87291421CBF4FF6F972914201D042
S31508007F80702010BD002161714FF6FD71054A118000
S31508007F9018B10120FFF748FF00E02072002010BD4D
S31508007FA0ACF80020C4F300202DE9F54F8BB08B46C2
S31508007FB00C98169C1799ADF804B00026C0889A4606
S31508007FC00746B046B14649B9F90607D50C9A9DF851
S31508007FD02C000094594611F081FF16E1790548BF37
S31508007FE04FF48058390548BF48F40068B90548BFBA
S31508007FF048F0800803D4F90548BF48F040089DF8C2
S315080080002C1002915D469DF82C1003910A2966D81A
S31508008010DFE801F0082F1B3C65653C06083C1800A4
S315080080204FF00209BDF80420CDF800A0334648F405
S31508008030027120460BF034FA8246BAF1FF0F50D18E
S315080080401820E2E04FF00309ECE706A95FFA8BF087
S31508008050FFF723FD08220DF11D0104A8FCF7E1FB3B
S31508008060DFF88808006830F8150004AEADF804009B
S31508008070D8E704A95FFA8BF009F044FEDFF8700828
S3150800808000680C21694304AE405AEFE74FF6F871D1
S315080080908D4224DB4FF40261084220D100F012F928
S315080080A018BF91201CD1FF2C0FD000F076FB029947
S315080080B003290CBF01210021401ADFF83818096886
S315080080C0095D8842B8BF74200ADB029803280CBFF2
S315080080D04FF00C094FF0080928F4C078A2E70120F0
S315080080E093E0DFF8145828884FF6FF71884218D0B5
S315080080F0504612F002FD0090001D298804F061FC2C
S31508008100DFF8F80700990078C8714FF6FF702880E5
S315080081105FEAC84005D500980822291D0830FCF7F3
S3150800812080FB0C9A494650460BF08EFB08B9182678
S3150800813067E0DFF8CC070068C07E70B1B8060CD5DA
S31508008140F8074CBF2020002040F0010332460021EA
S3150800815050460FF067F9060053D1FF2C15D050464C
S3150800816012F0C1FCDFF898170968C97E01B112211F
S31508008170DFF880271268135D12F80A20D2187430C7
S3150800818089188842B8BF74263BDBB80407D5504621
S3150800819012F0C3FC40F48061504612F0C0FC02980D
S315080081A0082812BF0928504612F0C6FC179848B18D
S315080081B0BDF80410504612F0D8FC179880F800A0B5
S315080081C0002022E00398C01E05D0C01E012884BFE7
S315080081D0C01E012807D850460FF02DFE00280CBFF8
S315080081E0A12600260DE0B80444BF4FF6BF7007402D
S315080081F09DF82C103B465FFA8BF2504611F0BFFEF5
S315080082000646504605F07AFF30460DB0BDE8F08FB9
S315080082102DE9F043164685B00446F08804900D46CD
S3150800822070790FF2187103901F4630790290A846AC
S3150800823070880190434630880090082200F099F82B
S3150800824000F040F818BF91201AD1FF2F09D000F08E
S31508008250A4FADFF8A0160968C95D884238BF7420F9
S315080082600ED320000FD14FF6F870804528DA00208B
S3150800827001900097FF23324629462046FFF794FED1
S3150800828005B0BDE8F083022C4FF6FE790CD1DFF875
S31508008290741609788D4213D2DFF85006006830F854
S315080082A018004845E3DB0BE0012C09D1DFF8581626
S315080082B009788D4204D2E8B209F03CFD4845D6DB80
S315080082C00120DDE7DFF838060068407B02287047A2
S315080082D0F0B587B00D461646044605961F46E8884B
S315080082E00FF2606104902346687903900922287981
S315080082F00290688801902888009000F03AF80020DB
S315080083000190009733462A4621460620FFF74CFE81
S3150800831007B0F0BD2DE9F04188B01E460E9C0794C3
S315080083208046F08806901746707905900D46307994
S315080083300FF21C6104904346708803900A22308825
S3150800834002900197009500F014F8DFF8AC05A0F844
S3150800835000802346DFF8A405077000200190324606
S315080083600F98009029460620FFF71EFE08B0BDE8C4
S31508008370F08103200EF0ECBC80B538B10146082226
S31508008380DFF88805FCF74DFA002002BD022002BD81
S3150800839070B588B000F02EF80C98DFF85C150096DA
S315080083A008802B460D98DFF8541508702246DFF82A
S315080083B060050078002814BF4FF6FF714FF6FD716F
S315080083C00020019011E070B588B000F013F8DFF8CE
S315080083D0400500780096002814BF4FF6FF714FF647
S315080083E0FD71002001902B4622460320FFF7DCFD95
S315080083F008B070BD04460D46069205951E46E088EF
S315080084000FF2585104900622607903902079029061
S315080084106088019020880090032023890EF098BC7C
S3150800842010B5DFF8F00406F04AF90446FF2C0DD023
S315080084302146042005F0DBFB18B10121204600F097
S3150800844006F82046BDE8104005F058BE10BD2DE9D7
S31508008450F04F89B082468B4612F04FFB0646B01C99
S3150800846004F0A8FADFF8B044DFF8B05407465046DF
S315080084700BF0C7F80146504605F0E6FF8046504621
S3150800848012F055FB06F04FFD301D04F093FA2080DC
S31508008490009708F099F9009989B2814208F0030912
S315080084A012D04FF6F87087420EDA7078C0070BD4F0
S315080084B038460AF0BBF9002805D020880123524621
S315080084C0394600F09EF97AE005A950460BF028F9DE
S315080084D005A8286030460BF0B1F8DFF844140860A8
S315080084E00321504612F0F9FADFF83814087004210F
S315080084F0504612F0F2FADFF8301408705FEA0B0003
S315080085002BD09DF81A00800627D508F05DF9DFF80C
S31508008510F06340B13068007D800704D4B9F1010FDB
S3150800852008BF182300D008230022002150460EF069
S3150800853079FF90B108F00300012802BF3068407B3C
S31508008540112805D102F04DFA10B9AF2000F033FC1E
S3150800855006F01AFD0020286048E018F0030003D052
S31508008560022806D00AD32AE05946504600F041F8B8
S3150800857025E05146404611F030FD20E008F024F988
S31508008580218881421BD05146052005F030FBB0B149
S315080085902968887940060DD50C2202A8FCF741F90E
S315080085A000200190FF23FF20009002AA21880A20BC
S315080085B0FFF7FAFC21885A4650460BF06FFE08F082
S315080085C003F9218881420DD150460BF01AF801466D
S315080085D0504605F039FF0C21084203D100215046C8
S315080085E011F032FF0020286006F0CEFC09B0BDE885
S315080085F0F08F2DE9FE4F814612F07FFA064648466F
S315080086000AF0FFFF0146484605F01EFF054670784A
S31508008610DFF80843DFF8007300F001000290B01C91
S3150800862004F0C8F94FF6F8718842ACBF4FF0010A5A
S315080086304FF0000A08F0C8F8398881422068408857
S31508008640ADF802000CBF4FF001084FF00008B01C4F
S3150800865004F0B0F90146029840EA0A008DF80400D1
S315080086609DF80400002814BF06200820002206F002
S3150800867058FE20680188BDF80260002904BF4079C9
S3150800868000281ED1694648460AF054FB23689DF81F
S315080086900010421ED2B2042012F033FB2068408834
S315080086A048F20201884203D13888494602F069FA3D
S315080086B03888B6F5004F10DBBDF8022049460AF0A7
S315080086C04DFB2068029919B905F00C010C2935D122
S315080086D0008909F06DFC30BB51E0DFF850B2022189
S315080086E08BF800105346002249460AF09FF9206885
S315080086F08079400604D5BDF80200FF2100F054F841
S31508008700132EDED02068C0884004DAD48849097858
S315080087109BF80000CA0701D50228D2D089072ED5B2
S315080087200128CED02BE020680189B8F1000F14BFCC
S31508008730032502250020FFF733FA12E0017900919C
S315080087400022437938880021FFF75AFA05F00C0110
S31508008750082905D1B8F1000F0CBF0425052500E04E
S315080087600025744908709DF8040008B9382E01D10F
S31508008770012200E00022294648460FF08BFABDE8A0
S31508008780F78F10B5044600F008F8610548BF0838A9
S31508008790210548BF0838C0B210BD59490968C97EC5
S315080087A0642001B15220704770B55C4E0C4686B005
S315080087B0054631680C2202A8FCF733F830680179BF
S315080087C08DF80D10FF2341798DF80C10ADF80A507D
S315080087D04FF6BF71C08800940840ADF80E0002AA93
S315080087E0002001904C4801880720FFF7DDFB06B002
S315080087F070BD5148007808B9FF2070474D48007889
S3150800880070472DE9FB47914685B01C4648460AF055
S31508008810F8FE0146484605F017FE032108428DF882
S3150800882000005ED13D4805683B48068801A94846D0
S315080088300AF076FF394901A808604FF0000ABDF82A
S315080088401400354908809DF80900002804BFBDF8C2
S31508008850040000283FD1484612F04FF9801C04F066
S31508008860A9F84FF6F8718842ACBF4FF00108D04618
S31508008870002C14BF02240124012729E0BDF81400A6
S3150800888043463A4649460AF0D1F85FEA000A1ED03E
S31508008890022C08BF012F1AD1BDF818001649088006
S315080088A017480068417E491C4176A1F180001349AA
S315080088B008700C219DF80000084208D19DF80A00AE
S315080088C0400604D5BDF80600FF21FFF76DFF7F1CA3
S315080088D0FFB2BC42D2DA114805600F4806805046FE
S315080088E000E0002008B0BDE8F08700009CF20020F8
S315080088F0A8F2002044F2002040F30020B4FF002034
S3150800890048FC00209AFF002004F4002044F30020CD
S31508008910A2FF002074F300207AFC00207CFC0020D3
S3150800892080FC0020E1FD0020E2FD0020B3FF0020CE
S315080089309FFF0020D7FF002078FC0020425757579A
S3150800894042425700425757574242574200000000DA
S3150800895042575742575742425742000042575742DA
S31508008960424257424200000010B5044606F057FB43
S3150800897010F093F9010018BF00F013F80C212F48E6
S3150800898061430844827981880068BDE8104007F091
S3150800899045BB0020E8E70120E6E70220E4E70320DC
S315080089A0E2E710B582B0044606F05CFB0C214843AA
S315080089B022490844210017BF312C0021017A491C9D
S315080089C00172C279017A91420AD3002101724320C9
S315080089D08DF800008DF80140022168460EF00FFA66
S315080089E013BD17490978312900D0704780B544214D
S315080089F08DF8001001460DF1010003F0E2FF032196
S31508008A0068460EF0FCF901BD38B50E4C0B4B2478C0
S31508008A100C256C43B0F5004FB8BF0429234401DB8D
S31508008A20702032BDDA71988099719A799988186898
S31508008A3007F0F4FABDE8314010F02FB910F3002022
S31508008A401CF40020ABFF002070B5160004460D4646
S31508008A5002D109F0A8F802E0FF2109F053F83246DE
S31508008A6029462046BDE87040A0E02DE9F04782B0CF
S31508008A7005468A46174698460EF0A8FDC0480A9C41
S31508008A800078B0B10C2F14DAFF21284609F03AF81D
S31508008A90814600260AE004EB4601C9B2404605F0C5
S31508008AA08EFD494609F02EF88146761CF0B2B8428A
S31508008AB0F1D3009443463A465146284600F08EF8CC
S31508008AC0BDE8F3872DE9F04704468A4600F0D5F855
S31508008AD0012846D1204608F0FFFFAA4A126812F874
S31508008AE00A700025FF281CD081464C46DFF898827C
S31508008AF000E06D1CD8F8000000EB84008478FF2C99
S31508008B00F7D1E8B268B1EDB20C2D0ADA6800861C16
S31508008B10BAF1FF0F24D0F119C9B2504605F04DFC41
S31508008B2008B100201DE02A463946504605F091FC5A
S31508008B307C1C6A1ED2B2E1B2504605F08AFC671C5C
S31508008B404C4606E030F82420F9B2504605F044FDBC
S31508008B50BF1CD8F8000000EB84018C78FF2CF1D1FB
S31508008B60F0B2BDE8F08710B5FF280AD0864B1B681F
S31508008B7033F820400C8003EB8000807810700020CA
S31508008B8010BD032010BD10B508F0A6FF0024FF286D
S31508008B900AD0022401E0A41CE4B27B49096801EB6F
S31508008BA080008078FF28F6D1204610BD30B583B006
S31508008BB00C46C4218DF80010154601460DF101003A
S31508008BC003F0FFFE21460DF1030003F0FAFE8DF8CF
S31508008BD00550062168460EF012F937BD2DE9F04119
S31508008BE086B0074688461D460DF1050014460FF067
S31508008BF0AAF801A80FF0A9F859208DF808003946F7
S31508008C000DF1090003F0DDFE082241460DF10B00C7
S31508008C10FBF707FE9DF805000C9B8DF81300660010
S31508008C209DF804008DF81400F6B28DF815400096EC
S31508008C302A460021284605F0F9FC3146284605F063
S31508008C40BCFB0020009000232A460E2102A80EF045
S31508008C50DEF806B0BDE8F08110B5044600F003F86A
S31508008C604A48047010BD10B5484C2078FF2803D038
S31508008C7005F044FAFF20207010BD2DE9F041DFF819
S31508008C800C81074698F80000FF2882B00C4619D0D8
S31508008C903C4D2A68115C8E1EF6B2314605F08FFCF3
S31508008CA0B8420FD12868075DF5052D0EFF2C02D1B5
S31508008CB0A81CC0B220E0F019811CC9B2204605F0F4
S31508008CC07CFB08B1012017E02A463946204605F004
S31508008CD0C0FB6A1E791CD2B2C9B2204605F0B9FBA0
S31508008CE098F800200096B91C002389B2204605F0A2
S31508008CF09DFCFFF7B8FF0020BDE8F6812DE9F0419D
S31508008D0080461F480078002688420F46154638BF19
S31508008D10742032D3012005F086F90446380010D0B5
S31508008D207900C9B2204605F048FB50B907E035F886
S31508008D3016207100C9B2204605F04EFC761CBE42CC
S31508008D40F5DB2046FF2811D00E4909680D5CA91CE1
S31508008D50C9B205F032FB28B942462946204605F035
S31508008D603BFC03E0204605F0C9F9FF242046FFF73F
S31508008D7073FFFF2C0CBF18200020BDE8F08100000F
S31508008D8099FF002044F2002098F200201DF40020EC
S31508008D90DFF8C82C1268127882420AD019B1012A63
S31508008DA003D1022805D000207047022A08BF0128EF
S31508008DB0F9D101207047DFF8A81C8875704710B5EF
S31508008DC0DFF8984C2068407B112805D040F2031143
S31508008DD00FF20C0007F05CFF21684120487310BDB4
S31508008DE06173736F63696174696F6E2E6300000047
S31508008DF080B5022006F06DFA06F095F800F037FC0B
S31508008E00042805D1DFF8580C417D491D417505E058
S31508008E104FF47A71DFF80C0D11F040FDBDE8014002
S31508008E2006F0B2B810B5DFF8384C0020E0742078A8
S31508008E30FF2803D005F062F9FF20207010BD70B539
S31508008E4082B004460D4605F0E3F80646B01D03F069
S31508008E50B1FD00F44040B0F5404F0CBF062000209D
S31508008E603118097C4A00490802F00E0201F038015F
S31508008E708918401800F11106DFF8080D0068005D32
S31508008E80F6B286420BDA831BDBB20F2BA8BF0F2381
S31508008E900020009032462146284605F0CEF9304695
S31508008EA076BDDFF8B80B0068407B33281CBF432823
S31508008EB0532801D101207047002070471FB50120B3
S31508008EC011F028FF11F02AFF0EF0A8FFF0B1DFF825
S31508008ED0904BA07910B104F10A0005E020786946A4
S31508008EE0FFF7ADFF0DF10300DFF8382C00211170F4
S31508008EF0617901F0D3F9FFF795FF00F008F80AF059
S31508008F005DF811F05CFF012001F0F7FA1FBD10B5FE
S31508008F1000F03AFE017B032918BF042905D14088D1
S31508008F2001F0C2FA08BF032008D007F02DFD044659
S31508008F3007F02EFD2146FEF720FD022007F034FD3E
S31508008F4009F074F800F011FEBDE810400AF062B8A6
S31508008F5038B5DFF80C4BDFF8045BA075FFF762FF46
S31508008F6000214FF6FF7001F091FA2868417B03292A
S31508008F7018BF00291ED0332918BF432914D101F080
S31508008F8034FA2868017B032918BF042906D103216E
S31508008F904173A07DBDE8324006F0AEB9A07D06F06B
S31508008FA0ABF9BDE83140B2E721214173BDE8314054
S31508008FB00AF04DBD31BD10B5DFF8A01ADFF8A04A9A
S31508008FC00968002048734FF6FE7007F001FC4FF65B
S31508008FD0FF7007F005FC01F008FAA07DBDE8104017
S31508008FE006F08AB970B5044684B0E07A0FF2D0016B
S31508008FF0DFF8685A0290234694F90A000190152270
S31508009000208901F0B3F82868407B60B9208901F00F
S315080090104BFA08D000F046F905D106F02EF910B93A
S3150800902006F03FF910B1702004B070BD2868007DC5
S3150800903080070AD507F0C8FB4FF6FE71884202463C
S3150800904004D10CF00CFF024600E00022214610462F
S3150800905001F0E4F806000DD12868007D80074CBFB2
S315080090600220012001F0BCF8002101200BF0F5F8E0
S31508009070060001D03046D7E7DFF8E409007F08B1DB
S3150800908009F099FC00220821204607F028FD30B196
S315080090900421204606F017FF08B9A520C4E7DFF823
S315080090A0F00A00782074DFF8EC0A60610020E0819D
S315080090B0204600F0FCF8064606F063F8DAE70000FA
S315080090C0423870574242000010B50446234618221B
S315080090D001F08DF9DFF8C00A0021017114B1FF2CE7
S315080090E002D10121017007E0012100F8041BA1004B
S315080090F0491C090211F0D2FB00F037FD002010BD13
S31508009100DFF8940A00787047DFF88C1A0020087197
S31508009110DAE730B50D4689B0044668690FF278116A
S3150800912007902346287C06901622E8890590287B16
S315080091300490E87A039095F90A000290288901902C
S31508009140009501F014F8287B00280CBF4FF6FE7036
S3150800915007F03AFB2B46224609B0BDE830400146E7
S3150800916001202DE9F041DFF8F46880463068407B3D
S3150800917000280F4614461D4649D1200047D0052C25
S3150800918045DA00F08FF842D106F077F800283ED18C
S3150800919006F087F808B1042C39DB287B032816D19A
S315080091A04FF6FE70874214D1012C08BF002710D055
S315080091B0022C2CD107F008FB4FF6FC71884202DA24
S315080091C007F002FB01E00CF04AFE074601E0012C1D
S315080091D01DD0B8F1000F0CD0287B03280CBF012145
S315080091E00021012C0CBF012000200BF036F80100ED
S315080091F04FD12946384601F011F8010049D105F04A
S31508009200E7FE05F0F7FF20B106F04BF808B170202D
S315080092103FE03068DFF84878407B33281EBF532884
S315080092200020F875204600F0DBFF387F20B106F0F5
S3150800923038F808B909F0BFFB287B032803D128466C
S31508009240BDE8F04133E00822294607F10A00FBF79A
S31508009250E8FA287B0328A8BF0020B874FFF7E2FDC8
S315080092609420B875B87C316800280CBF01203120DD
S3150800927048730020387501203168897BBA7F00FA67
S3150800928001F1052011F033FF010002D032680021F8
S315080092905173BDE8F081000042423870574242429D
S315080092A057424400DFF8A00C00780B28704710B529
S315080092B004460022082107F012FC08B1012010BD5F
S315080092C007F082FA00224FF6FF7100F0CBFF217CEF
S315080092D0204600F0E3FF6269E189207C08F0D9FEA8
S315080092E0DFF878070068007B012808BF0BF03FFD10
S315080092F0FFF70DFE002010BD38B5DFF860470146C0
S315080093002068407B002802BFDFF83C0C00780B2859
S3150800931001D0702032BDDFF80C5821B1022205F1C8
S315080093200800FBF77EFA684601F087F808B1932033
S3150800933032BD9DF80030142201F059F800F0FAFF0A
S31508009340010044D19DF8000000F04AFF2068007B28
S31508009350012818BF022807D0032818BF042825D1DA
S31508009360002001F0A5F808B300F0FBFF2068007B99
S31508009370032814BF042812F065FAFFF7C8FD012078
S3150800938012F08AFA010022D12068007B032818BF50
S3150800939004281BD1287A800718D50522DFF8F41788
S315080093A0012000F01BF8010010D032BD21681320FF
S315080093B048730020DFF8A816087501202168897B04
S315080093C000FA01F10522072011F091FE002032BDB6
S315080093D0DFF88C06C07D7047FF22FFE72DE9FC41C8
S315080093E0804600F0D1FB0D46017B0129164623D0A5
S315080093F0407B022818BF03281ED1332007F0D4FA71
S31508009400DFF85C76BA7F2946052011F070FE04461F
S3150800941098B9FFF707FD07F0DFF938815FEA08001A
S3150800942014BF02200120B87407F10A0001F01DF8E4
S3150800943000203875FE7500E07024019400954346B7
S315080094402C220FF2100100F092FE2046BDE8F681AC
S3150800945000000000424244420000000038B50446BD
S3150800946004F0D6FD0546204611F03DFB2C18204693
S3150800947003F0A0FA4FF6FF5101402046BDE83440FC
S3150800948003F09FBA70B588B00C4616461D4630B92B
S31508009490204612F003FA03A909F095F903A8072153
S315080094A08DF808100190310A8DF80A1001200C99E0
S315080094B08DF80B1000908DF80960042302AA01218B
S315080094C020460AF078F80646FF2E18D0214611F0F5
S315080094D04CFB15B93046FFF7C1FF0D9808B9304661
S315080094E00DE0204609F0A2F918B1304612F004FA48
S315080094F001E000F036FE304604F000FEFF2008B01A
S3150800950070BD2DE9F14F84B0894615469B46002764
S315080095104FF6FF7455B128460AF090F880466878E9
S3150800952040084FF0010A00F0010605E0484611F030
S3150800953084FBBA460026804600F099F8032818BF2F
S31508009540042800F091800BF10101C9B2484604F0E5
S315080095507BFF8346400800F001008DF808005FEAAB
S315080095600B6000F0ECFC58BF4BF0800B022806D1CC
S31508009570DFF824169DF810000978084301D1022760
S3150800958021E0404607F0CFF8ADF800000321484631
S3150800959011F0A3FA040008BF0124BAF1000F03D0A2
S315080095A0281D03F007FA01E0BDF800000146009403
S315080095B001235A46404609F02DF804464FF6FF7037
S315080095C0844208BF0127EDB19DF8100018B94FF67F
S315080095D0FF70844204D1281D03F0ECF9014600E02F
S315080095E02146012001900097334622464046FFF760
S315080095F049FF9DF8080050B94FF6FF7140460BF039
S3150800960003FE04E03A46214640460EF0E3FA5FBB05
S315080096109DF8080080B1414620460BF016FEDFF89B
S315080096203C140968896A0E22424311444A7942F079
S3150800963040024A710BF057FEB5B1DFF8B85C85F801
S31508009640009007F0C1F80EB1002605E09DF810104D
S31508009650002914BF03260126014643462246304602
S3150800966001F086FCFF20287005B0BDE8F08FDFF812
S315080096702C050068007B70472DE9FC478046894623
S3150800968001A8002101601646484611F036FA05463B
S315080096905FEA0800DFF8607C08D0284609F0CEFFAC
S315080096A08246284609F0BFFF044604E0484611F002
S315080096B0C4FA82463C4600200090042332464946B6
S315080096C001A804F0BAFD0DF1050003F073F981460F
S315080096D09DF807605FEA080006D00822394620464A
S315080096E0FBF7E9F8002870D1DC4F3868C17E11B164
S315080096F06978890713D55FEA080110D0407B0228EC
S3150800970008BF002E0BD1484607F062F809F056FC50
S31508009710992300F06BFE992005F0EEFD55E007F061
S31508009720F6F9002818BF002E03D09420FFF710FC86
S315080097304BE007F0ECF9002847D050460BF0FAFB4F
S31508009740FF2818BF5FEA080104D1386840885146E7
S315080097500BF07BFD0BF0C7FD3868DFF8C86341885E
S315080097605246484600F07EFD3868BD4C417B0129CB
S3150800977016BF3129112143214173022005F09AFDB4
S3150800978040F6B831304611F089F812F05BF800203F
S3150800979060753868C17E19B9304611F075F811E060
S315080097A0B8F1000F05D06978890702D5FFF786FB5F
S315080097B008E0007B042805D10521304611F06EF833
S315080097C006206075AD20FFF7F6FA05F0DAFCBDE86D
S315080097D0F3872DE9F04F8DB0824611F08EF9814658
S315080097E011F0D6F90390504611F027FA804602ABDD
S315080097F0052205A9504612F05DFB02288DF80000E7
S31508009800019021D0504611F06EF90399944D934E6C
S3150800981008189DF808100F185046FFB2394604F08C
S3150800982013FEFC1C01284FF6FF7B0ED0022813D02E
S31508009830042800F0F08006281AD007286CD00828DB
S3150800984027D07C2800F0AD8005E13B460022514632
S315080098500020FFF756FEFEE03068407B012804BF73
S31508009860A87C002803D13A465146FFF705FFF2E0E7
S31508009870404608F08EFF014659451CBF40460EF08B
S3150800988075F93068407B022802D1404611F038FA53
S31508009890E1E0002011F03EFA791C00F0E3F8814679
S315080098A0E1B200F0E0F80446B91D00F0DBF807461F
S315080098B05F45EDD011F0C6FF3068407B132808D10C
S315080098C000F04FFD504611F0B8F9014620460BF05E
S315080098D0BCFC3068407B022818BF13281BD13846C9
S315080098E006F076FF484606F07BFF0021002000F0D0
S315080098F0D5FC4146204600F0C9FDE878DFF8941CFF
S31508009900087000F032F93068417B132903D123210E
S31508009910417311F087FC9EE003980121484404F046
S3150800992070FC0446002300222146012011F0E9F9C3
S31508009930204604F0E3FB3068407B022802BFDFF8CC
S31508009940406C30790028E6D1404612F093FC002896
S3150800995006D09DF8001005AA504612F0AAFC002869
S3150800996079D012F08CFD95F91D2001219140C1EBAB
S31508009970011189B290FBF1F201FB1200451C00208F
S3150800998005F098FC0198012806D130700822414656
S3150800999006F10C00FAF745FFA9B2301D10F07EFF5C
S315080099A059E0504604F034FBC0194178652904BFD4
S315080099B080786D284FD17349096811F80A10E0B20A
S315080099C0884248D20822414603A8FAF72AFF6B467E
S315080099D00022E1B2504609F0C9FC00283BD19DF8A7
S315080099E00000FF2837D0DFF8B44BDFF8B45B01205E
S315080099F0207085F800A005F00CFB9DF8001003A860
S31508009A00FDF779F905F0C0FAFF20287000202070CC
S31508009A109DF800001DE0504611F02EF904460FF699
S31508009A20D0300088ADF80A0002230020019000908B
S31508009A300DF10A020121204609F0BDFD0546FF2D5C
S31508009A4009D0214611F091F80021284607F0B2FC0A
S31508009A50284604F053FB0DB0BDE8F08F48FC002003
S31508009A604CF30020C9B2504604F0A9BD70B50220D7
S31508009A7005F02FFC05F057FA2A4DDFF8286B002071
S31508009A8028700EF0CBF928B13068C07E10B9FFF700
S31508009A9015FA3DE00EF0C2F9DFF80C4B10B907F0E5
S31508009AA036F858B1607D48B1C821284610F0F6FE50
S31508009AB0607D401E607507F071FD29E03068407BC7
S31508009AC0132809D007F023F830B93068407B1128ED
S31508009AD01CBF4328412803D1A07DFFF739FA17E0B8
S31508009AE0022818BF032803D0002818BF21280FD141
S31508009AF00024DFF8B85A07E005F015FA002000F050
S31508009B00FCFC05F041FA641C2978E0B28842F3D3DC
S31508009B10BDE8704005F038BADFF88C1A00204875A1
S31508009B207047000070F9002010B5002005F0D1FB41
S31508009B3005F0F9F9DFF8484A0020207100F024F80A
S31508009B40417B02290DD1007B032818BF042808D0C1
S31508009B50207810B10DF082FF01E00DF024FF0020FF
S31508009B602070BDE8104005F00FBA80B505F052FB2D
S31508009B70FF281ABF084800780020BDE802400DF00B
S31508009B8000BF000044F20020DFF8180A006870479A
S31508009B90B7FF002000F8FF0764F9002048FC002002
S31508009BA080B500F0ABFB002002BD2DE9F04F97B061
S31508009BB0804606A8102112F073FC0DF10903052250
S31508009BC00EA9404612F076F907460026022FB1463E
S31508009BD000F0AD81404604F01BFA0446A01D02F0D1
S31508009BE0E9FE059004F1090002F0E4FEADF80A006A
S31508009BF004F10B0002F0DEFE8246DFF8B4090068C5
S31508009C0010F808000190012F6AD10120049000275E
S31508009C1006210EA879434418208802285CD1E078EA
S31508009C2000F088F91B2857D1E078C11C00F083F9A9
S31508009C30192851D1E078011D00F07DF94A284BD149
S31508009C400525E0782818411C00F075F98346E07868
S31508009C50291800F070F900EB0B2080B2932800F069
S31508009C603F0B1BD1E0782818801C5FFA80FA002089
S31508009C7000900F235246414606A804F0DEFA0AF180
S31508009C800F01C9B2404604F09AFC06460AF11101D2
S31508009C90C9B2404604F093FC824616E0412814D126
S31508009CA0E078281800F046F9DFF808190978401A0C
S31508009CB0A0F14D09DFF8EC080068007B032812BF05
S31508009CC004284FFA89F012F098FC0BEB0500851C66
S31508009CD02179EDB28D42B4D37F1C052F0BDA97E7B5
S31508009CE0CDF8109004F10D0002F064FE064606A9B0
S31508009CF04046FFF7A4F8F00B8DF8080000230D2264
S31508009D004146062010F0FDFF06AFB878C0F3C30041
S31508009D100390787800F00F040198202800F00FF9D6
S31508009D20ACBF9DF826500025022814D1BDF80AB00C
S31508009D3006F052FD83450ED10AA800F096FB01985D
S31508009D40202806DB08220DF11B010AA8FAF7B3FD45
S31508009D5008B108F0D9FA0598B0F5004F11BFB0F56B
S31508009D60624F26F4404040F6FF71884276D101984A
S31508009D702028C0F2DC80002208210DF11B0006F025
S31508009D80AEFE00286AD170480078012847D10194B0
S31508009D9027229DF80800BDF80A300FF65801DFF8AB
S31508009DA05465DFF814B800F0E1F9DFF81008007818
S31508009DB08DF82A008DF834408DF835500822BDF804
S31508009DC00A00ADF828000DF11B019DF808008DF872
S31508009DD02B000BA8FAF725FD00F0B1F801281CBFE7
S31508009DE0332886F8008005F014F9DBF8000078B10E
S31508009DF00DF101000DF0A7FF68460DF0A6FF9DF9CD
S31508009E0000209DF80110DBF800300AA8984702E008
S31508009E100AA8FCF704FEFF20307005F0B5F8DFF855
S31508009E208867307D002819D106F071FE002824D0F5
S31508009E300120F0740022082106F10A0006F04FFE00
S31508009E4020B1BDF80A003189884208D008220DF1F0
S31508009E501B0106F10A00FAF72EFD002867D19DF8C6
S31508009E60080028B900F06BF8312818BF33285ED1EE
S31508009E7001212046FEF78CFF002858D09DF81800CF
S31508009E80002802BF78780009022850D1FFF77CFE27
S31508009E90017BBA7802290CBF02F0040202F08002A4
S31508009EA022B9022943D04088504540D13078DFF89E
S31508009EB01077FF2814D0707985420DD1DFF8F41693
S31508009EC096F9020091F90010884209DB2FD17078C3
S31508009ED03978884204D32AE0281AC0B2812826DABB
S31508009EE0FEF7A0FF86F80080404604F0F9F83878B7
S31508009EF070700DF11B01DFF8BC060078B07003988E
S31508009F000F28B4BF401C0F20F07034717571A6F885
S31508009F1018A00822BDF80A00308186F8079006F1D5
S31508009F200A00FAF77EFC049800B10120B07117B058
S31508009F30BDE8F08F811CC9B2404604F085BADFF847
S31508009F4064060068407B704723F400202DE9FF4132
S31508009F500546DFF85446012020750E46174601F0DF
S31508009F60CCFE00281AD1A846B8F1010F18BF002D5B
S31508009F7015D1009733462622C7A100F0F8F805F058
S31508009F8048F8DFF84006026810003946304601D026
S31508009F90904701E0FCF768FD04F0F6FFD5E0DFF82E
S31508009FA004562868407B23280DD106F0EDFC0446AC
S31508009FB006F0EEFC2146FDF7E0FC022006F0F4FC74
S31508009FC010F0FDFEC1E0002FFCD121281CBF04289B
S31508009FD0532802D109F03BFDB7E006F098FD0028AA
S31508009FE000F092802678FF2E05D1E07C00280CBF71
S31508009FF0AB2094209DE02868007B032816BF042820
S3150800A000012100212079FEF7C3FE08B9982090E0C7
S3150800A01003F05CFA0521304610F05FFD2968887365
S3150800A02005F0AFF8A07CF8B900F02AFA02462189B3
S3150800A030208B0DF0F6FD00285DD19420FEF7BBFEBF
S3150800A040022005F037F92968DFF87C054A7B012AE2
S3150800A05005D0312A12BF332A097B04294DD1C821DC
S3150800A06010F01CFC03204DE006F0AEFB0646208BE4
S3150800A070002100F00BFA06F04AFD60B1300003D06B
S3150800A0804FF6F870864206DB0BF0E9FE2968498828
S3150800A09088420646F8D0304606F09AFB2078092111
S3150800A0A010F000FD06F09CFB06208DF8080000F075
S3150800A0B0E7F98DF80900022300200190009002AA12
S3150800A0C028684088012109F076FA0646FF2E12D044
S3150800A0D028684188304610F048FDA07C02281CBF3D
S3150800A0E03046FFF7BBF900F03CF80746304604F067
S3150800A0F005F8002FA1D194201BE04FF4167110F03B
S3150800A100CDFB0020607520E02868407B132816D117
S3150800A11000F008F9BDF8000006F062FB00F021F92E
S3150800A1202868017B032918BF042905D13321417307
S3150800A1309620FEF70DFF08E0FEF7E9FE05E0B8F108
S3150800A140040F04BF304612F0C9FB4FF4006008F054
S3150800A150D0F910B912F060FD08B107F07DF9BDE835
S3150800A160FF8100220021304612F0FCBC009003203B
S3150800A1700CF0EEBD1FB5044600208DF80000FFF771
S3150800A18003FD007840F020008DF801000DF1030072
S3150800A19000F06BF90322FF210DF10B00FAF784FB9F
S3150800A1A007F061FF8DF80E00DFF82014DFF8E403EE
S3150800A1B0DFF81C24007809781278C00040F0040003
S3150800A1C0914238BF40F080008DF802000F226946A0
S3150800A1D0204604F0A2F8401E8041C00F04B010BD0E
S3150800A1E038B5DFF8C05304462868017BA14203D07E
S3150800A1F00473204605F07AF92CB101F0BBFC2868F7
S3150800A200007B042805D105F01FF8FF2808BF0120A8
S3150800A21000D00020BDE8324007F0E8BB38B50D464F
S3150800A220044695F90A0006F07EFC08B18B2032BD7B
S3150800A230DFF870030268E97A91730068A97AC17336
S3150800A240204606F0C5FA4FF6FE7084420CBF4FF65C
S3150800A250FF70288906F0C4FA2889DFF84C130881AC
S3150800A260002032BD38B50C46154606F0B1FA0BF09B
S3150800A270C9FD2946204600F009F9CB480178FF298F
S3150800A28018BFC07805D1FFF7F2F901280CBF0020E6
S3150800A2900120C049087031BD424242007FB50446DC
S3150800A2A00D4600F03FF8BF4E94B1CA4A0021284631
S3150800A2B007F0EFFE306801788DF804100822007B5D
S3150800A2C08DF80500214602A8FAF7ABFA00F040FA25
S3150800A2D03068817B8DF80310C07B8DF8020006F08C
S3150800A2E07BFAADF8000006F06FFAADF8060000F04C
S3150800A2F01BF87FBD29F40020B0FA00201FB50446DC
S3150800A30000F010F81CB100208DF8050007E006F0F3
S3150800A3105BFAADF8060006F05FFAADF8000000F04B
S3150800A32003F81FBD684635E010230722694600205A
S3150800A33002F037BD00B58BB0FFF7F4FFBDF800009B
S3150800A340ADF8180004A99DF803008DF81B009DF8C8
S3150800A35002008DF81A00BDF80600FFF75FFF0BB084
S3150800A36000BD1FB5012000F0A3F8044600F0FBF974
S3150800A370FFF7D8FF1CB900224FF6FF7103E0FFF77D
S3150800A38003FC4188021DBDF80600FFF76BFF12F0BB
S3150800A390F9FE1FBD014610230722012002F001BD68
S3150800A3A038B5082004F095FF044604F0BCFD7D4D41
S3150800A3B0894829680078887304F074FEA04208BFAB
S3150800A3C004F093FE00210020FFF768FF9B2300F0AE
S3150800A3D00DF89B2004F090FF2868002120F8441F00
S3150800A3E04180BDE8314004F0CFBDA37D13226AA1A8
S3150800A3F003200CF0ADBC10B5044604F017FCFF288A
S3150800A40001D18A2010BDFFF79AFD022818BF03283C
S3150800A41001D0702010BD70480470082004F04AFF6F
S3150800A420FEF740FF01D03D2010BD6C4806F081FFC5
S3150800A43008B9A12010BD002010BD1FB50446684606
S3150800A440FFF7A8FF9DF80500010008D0052806DAE1
S3150800A450544909689DF804200978914201D093204F
S3150800A46001E02070002004B010BD1FB50446684600
S3150800A470FFF790FF082202A92046FAF7D2F91FBD76
S3150800A480484957480968097B405C7047454A13683C
S3150800A490588019B90822181DFAF706BA0822181D95
S3150800A4A0FAF7BFB9BDF808004FF6FF718842704742
S3150800A4B010B504464448007AC00784B007D500F0B2
S3150800A4C011F8FFF7EFFF02D000F012F808B10020EC
S3150800A4D006E024B1BDF808006946FFF7D7FF01205A
S3150800A4E004B010BD0A230A226946012002F059BCAD
S3150800A4F00822FF21684606F0F2BA70B5324D0446C6
S3150800A500287AC00784B00CD5264E306841884FF6A5
S3150800A510FF72914207D100220821001D06F0DFFADA
S3150800A52008B100201DE044B1022004F0C3FE4FF438
S3150800A530F041284610F0B2F912E030684188ADF8CB
S3150800A54008100822011D6846FAF76BF90A230A2241
S3150800A550FFF7ECFE02230B222249002002F021FC21
S3150800A560012004B070BD204A107038B11F48008819
S3150800A570010003D08102101D10F090B97047000049
S3150800A5807CF90020184800787047174800210171A7
S3150800A59001707047E0FF00204242000078FC00206E
S3150800A5A029F4002048FC00204CF30020FEF300208C
S3150800A5B044F20020E2FD0020C4F90020E3FD00205B
S3150800A5C0E1FD0020C8F9002070F90020D3FF002023
S3150800A5D009F4002000F8FF07B8FF0020A1A300082F
S3150800A5E0242A0108FEFD002090F90020CCF3002063
S3150800A5F00460000042574242000000007020704785
S3150800A60070207047702070477020704770470000B0
S3150800A61030B505460C4683B0282200212046FAF7B5
S3150800A62043F9681EA5701ED0801E01284FD8032D39
S3150800A6300CBF012500252A4604F11C01E01C0AF07E
S3150800A640AFF935B1208840F00200208012F07EFF75
S3150800A6506061208840F0010020801021E01C00F095
S3150800A660A0F8B0BB06E0DFF8C4552868007D10F0F6
S3150800A670300F01D1B2203EBD208840F00200208074
S3150800A6800CF017FD6061E01C00F0ABF8684600F0BE
S3150800A690BCF848B10822694604F11D00FAF7C1F86A
S3150800A6A0208840F00800208028684069C00303D449
S3150800A6B0208840F01000208006F086F80028CCD0CC
S3150800A6C02868406AA061208840F00400C4E770202A
S3150800A6D03EBDE01C0FF0BCFA00203EBDF0B587B0C9
S3150800A6E004460D4616461F46684600F088F83EB1F1
S3150800A6F0082231460DF10200FAF793F845F04005B5
S3150800A7002FB1102239460DF10A00FAF78AF8DFF858
S3150800A7101C0500684169A1432943416148040CD5D9
S3150800A720BDF800000A0A00F40E4002F4E2421043A3
S3150800A73001F0FF010843ADF800001A230822694614
S3150800A740002002F02EFB07B0F0BD00230022C5E76B
S3150800A750DFF8D8040068416941F48041416147F255
S3150800A760FF100140F1E700B587B012F002FF684616
S3150800A77000F045F8DFF8B4040068BDF80020416928
S3150800A780090A120A090202F0710241EA0241BDF8F9
S3150800A790002002F0FF02114341F48041416107B0F5
S3150800A7A000BD38B504460D46002206F098F940B9B2
S3150800A7B0FF222946204606F092F9401E8041C00F26
S3150800A7C032BD002032BDDFF864040068007D00F069
S3150800A7D03000102818BF202801D10120704700201A
S3150800A7E0704710B588B00446684600F008F810228D
S3150800A7F00DF10A012046FAF714F808B010BD014613
S3150800A8001A230822012002F0CCBA10B50446DFF854
S3150800A8101C04006888B04069810705D50822FF2115
S3150800A8202046FAF741F80AE040060AD56846FFF7D7
S3150800A830E6FF08220DF102012046F9F7F2FF012092
S3150800A84000E0002008B010BD80B539B9DFF8DC1388
S3150800A8500968097D490601D5002002BD0246002384
S3150800A86000210020FFF73AFF012002BD0021EBE797
S3150800A8700121E9E71CB504466846FFF7C6FF40B163
S3150800A880082221466846FAF716F8401E8041C00F8E
S3150800A89016BDFF220821204606F021F920B106211F
S3150800A8A00020FFF752FF04E0002322460021FFF7AD
S3150800A8B015FF012016BD2DE9F0470D4692B08146D9
S3150800A8C01646012100241F4600F02AFA8046B807DA
S3150800A8D007F0010A0BD507A948460EF0EFFF20B18D
S3150800A8E000F06FF806B134601BE0A6201AE0B8F154
S3150800A8F0FF0F1AD007A9404600F0AAF9010011D1A6
S3150800A9000DB100F05EF82EB1DFF82403006800EB05
S3150800A91088003060BAF1000F03D0BDF81C00C006ED
S3150800A92047D5002012B0BDE8F087DFF8007356B1AE
S3150800A93005F04AFF18B13868017D890701D53460EA
S3150800A94001E024303060FFF73EFF0028CDD068468E
S3150800A950FFF755FF08220DF102014846F9F7ABFF4C
S3150800A96028B13868007D00F044004028BDD0BAF10F
S3150800A970000F04D038684069C00348BF0124B5B148
S3150800A98005F022FF002801BF3868007D00F084002A
S3150800A990842807D12B46082249460DF10A0013F0F0
S3150800A9A080F804E010220DF10A0100F00DF8002CE1
S3150800A9B0B7D042464FF6FF71182004F0B2FCBB2010
S3150800A9C0B0E710220DF11F012846F9F72ABF80B516
S3150800A9D0002300220021FFF76EFF401E8041C00FB2
S3150800A9E002BD00B583B06846FFF70FFF10B1684691
S3150800A9F0FFF7EDFF0EBDF0B585B0074605F0E4FE9E
S3150800AA0000240025A8B105F0C7FF90B103A8FFF7F9
S3150800AA10FCFE70B12FB1082286493846F9F74BFF7C
S3150800AA2038B1824E3068017D890705D5417B1129E9
S3150800AA3001D0702046E044889FB10822394603A811
S3150800AA40F9F739FF68B108208DF8000008220220BE
S3150800AA508DF8010039460DF10200F9F7E2FE0A21E8
S3150800AA6007E008208DF80000012504208DF8010074
S3150800AA700221684603F0C5FB0746FF2F21D0FFF7E2
S3150800AA80A2FE00B102203168097D89074CBF042166
S3150800AA900021084340F001033A460021204609F008
S3150800AAA05DFD040007D00021012000F00DF815B166
S3150800AAB0614901200870384603F020FB0CB10020DC
S3150800AAC000E0182005B0F0BD5C4A11B141F28831AA
S3150800AAD005E05B4909784EF66023594304D00028FF
S3150800AAE01CBF10460FF0DABE00201070704730B554
S3150800AAF083B0082200216846F9F7D6FE05F064FE01
S3150800AB00504C18B900F08EFD0D250FE0607860B145
S3150800AB104D4920780978884207D200F00EF820B906
S3150800AB2001210120FFF7D0FF37BD042500F070F89A
S3150800AB302946684604F0D3FB37BD424900B50A7872
S3150800AB40521C0A7070204978012983B002D100F09E
S3150800AB5012F80EBD022909D16946002005F0FEFD4E
S3150800AB60010007D16846FFF746FF0EBD032908BF57
S3150800AB700AF0C3F80EBD00224FF4A071002008F0B9
S3150800AB8089B970B598B005460E4604A8502111F04B
S3150800AB9087FC2C4C6078012808BF002D36D101A906
S3150800ABA0304608F0C7F829499DF804200968895CE9
S3150800ABB00D1A0021009102469DF80410EBB204A874
S3150800ABC003F03BFB02A9002005F0C8FDF0B9EDB281
S3150800ABD0E5B19DF81100C8B99DF81C00000200F403
S3150800ABE07E40B0F5285F0BDB0120207002A8FFF736
S3150800ABF002FF01210120FFF767FF0220607005E0D0
S3150800AC0000F006F81E2102A804F069FB18B070BD12
S3150800AC1000206070002157E70A4908707047094804
S3150800AC2040787047074948707047000048FC002084
S3150800AC30B0F20020B0FA0020B9FF0020C4F80020C6
S3150800AC40A1FF0020B1FF00201EF4002044F20020DE
S3150800AC5030B500F026F987B028BFB12039D200F008
S3150800AC6026F918216846FFF79CFD08B9B62030E09A
S3150800AC70282200212846F9F717FE102202A9E81C07
S3150800AC80F9F7CFFD0822694605F11D00F9F7C9FD58
S3150800AC90082028809DF8180081075CBF18212980A4
S3150800ACA0410703D5298841F020012980C0070FD51F
S3150800ACB00520A870AC48006850F82400A8610CF07C
S3150800ACC0F8F96861288840F006002880002000E02E
S3150800ACD0B22007B030BD38B50C46FFF7B9FF0546B8
S3150800ACE0E01C0EF0B5FF284632BD38B504461546B9
S3150800ACF009B9702032BD012100F012F8FF2803D1EE
S3150800AD000121002000F00CF8FF2807D02B46224628
S3150800AD1001B0BDE830400146002045E0B42032BD10
S3150800AD202DE9F04188B0044609B9702039E02CB104
S3150800AD300022082105F0D3FE074600E00127002679
S3150800AD40884D04E00821FFF72CFD38B3761C2978D6
S3150800AD50F0B2884224D201A800901923F2B2182131
S3150800AD60684606F0DAF8009890F81880002FE9D1BE
S3150800AD7008222146F9F79FFD0028E7D100980830F8
S3150800AD8009F0F1FF08F0010181F001010843DDD166
S3150800AD9004F01EF9C8F3C2018142D7D1F0B200E02F
S3150800ADA0FF2008B0BDE8F0812DE9F04116466D4A4E
S3150800ADB0127891428AB00C46984628BFB1204DD2E7
S3150800ADC0254630B910214046FFF7EBFC38B9B220CA
S3150800ADD044E01922002102A8F9F766FD32E00121B4
S3150800ADE03046FFF79DFF0746082260493046F9F7C7
S3150800ADF062FD68B1FF2F18BFAF4209D16846FFF759
S3150800AE0004FD38B1082269463046F9F754FD08B9F9
S3150800AE10B32023E00822314602A8F9F702FD1022E2
S3150800AE20414604A8F9F7FDFC0FF06AF8002814BF9C
S3150800AE300026022604F0CCF846EAC00040F00100DD
S3150800AE408DF8200000204849096841F82500192393
S3150800AE5002AA2146182006F076F800200AB0BDE8B6
S3150800AE60F08170B500F01DF888B0164628BFB120ED
S3150800AE7015D200F01CF819216846FFF792FC08B9AC
S3150800AE80B2200CE09DF81810B14329438DF818102C
S3150800AE9019236A462146182006F055F8002008B0FE
S3150800AEA070BD0D462F490978044688427047192314
S3150800AEB022461821684606F01FB810B50C4601212F
S3150800AEC0FFF72EFFFF2808D0002CBDE8104007BF6B
S3150800AED00422002100220421C3E710BD10B5044650
S3150800AEE00121FFF702FF20B10521204604F0F7F9FA
S3150800AEF005E001212046FFF713FFFF2801D10020B6
S3150800AF0010BD02220021FFF7ACFF0121204604F004
S3150800AF10E6F900210020FFF7D7FD012010BD70B526
S3150800AF2088B000250F4C16E001A800901923EAB254
S3150800AF301821684605F0F1FF0098067E04F048F8E7
S3150800AF40C6F3C201814205D100230022E9B20120DD
S3150800AF50FFF72AFF6D1C2178E8B28842E4D3002067
S3150800AF6008B070BD9CFF0020B0F20020B0FA0020A7
S3150800AF702DE9F047DFF844478AB007462068C07EC7
S3150800AF800028884691469A4670D005F01DFC48B1BF
S3150800AF902068007D800705D43A465146484609F0A0
S3150800AFA0BBFB63E038003C4602D10125012604E0DC
S3150800AFB0032C14BF00250125002604F02AF8434671
S3150800AFC03A4651464846FCF73FF8074603F0DCFF89
S3150800AFD0009723461E22A6A103200BF0B9FE57BBF5
S3150800AFE086F00100054231D00FF2F86104A8D1E9D4
S3150800AFF00023C0E9002306A80FF2F06110220EF024
S3150800B0005BFB022300F047F850B102230022694691
S3150800B01004A8FFF750FC18B1002300F03CF8A8B9C3
S3150800B020102206A96846F9F746FC78B9FFF7AAFA86
S3150800B03060B9032718E0012F0AD10023019600956D
S3150800B04042465146484600F015F90DE00123F5E75A
S3150800B050022F09D16946404605F080FB20B95246C1
S3150800B0606946404600F01CF8022F11D005F0ACFBEB
S3150800B07080451CBF4FF6FF70814509D0504607F042
S3150800B08088FB484504D1484610F008FC07F07FFCC9
S3150800B0900AB0BDE8F087002269465046FFF70BBCA8
S3150800B0A0FEB5044616460D46304607F072FB0746BF
S3150800B0B005F08AFB18B94FF6FF70844201D170205B
S3150800B0C0FEBD874204D00021384608F0B5FDFEBD16
S3150800B0D007208DF80000082231460DF10100F9F726
S3150800B0E0A0FB0921684603F08CF80646FF2E0CD013
S3150800B0F0012332462946204609F030FA04463046EE
S3150800B10002F0FCFF0CB10020FEBD1820FEBD00B504
S3150800B11083B0024669464FF6FF7000F001F80EBD8F
S3150800B1202DE9F04304464FF6F870844288461746E0
S3150800B130ACBF012500258FB005F046FB0DF11409BB
S3150800B14030BBDFF8786500F069F921D41FB13846BD
S3150800B15009F009FE28B105A805F0D0FC10B1A52014
S3150800B16039E0B946694609A809F0E0FD684609F0DC
S3150800B170FAFD78B99DF810009DF83410401AC0B24F
S3150800B180812807DA102269464846F9F794FB48B140
S3150800B190702020E09DF83400411C0022C9B24846C0
S3150800B1A009F0B0FB21272DB1082200214046F9F706
S3150800B1B07BFB00E023273B464A464146204600F0F3
S3150800B1C0C2F838B125B13068DFF8F414407E08704B
S3150800B1D0002000E018200FB0BDE8F08330B58BB032
S3150800B1E005F0F2FAA8B9DFF8D4442068007D800794
S3150800B1F00FD401A906A809F099FD9DF828009DF825
S3150800B2001410401AC0B2812803DB01A809F0ABFD6F
S3150800B21008B170202AE005F0D7FADFF8A4140978F7
S3150800B2200AF03EFD08B1B82020E0002109F027FB0E
S3150800B23009208DF800000221206890F820008DF87A
S3150800B2400100684602F0DDFF0446FF2C0DD00123FD
S3150800B250224600214FF6FF7009F080F90546204680
S3150800B26002F04CFF0DB1002000E018200BB030BDF5
S3150800B270424242002DE9F0430446DFF840040068E4
S3150800B2808DB04069C008884691461E4600F0010503
S3150800B29005F09AFA484504D130000CBF0427062762
S3150800B2A010E0012730004C4618BF0B2755B96946F0
S3150800B2B0484605F053FA28B96846FFF788FB08B1EF
S3150800B2C047F0020714991598014217D10EF0F0FAC3
S3150800B2D0A0B102A940460EF0F1FA78B90FF2FC3196
S3150800B2E06846D1E90023C0E9002302A90EF0E6FA70
S3150800B2F020B10DF10B0140460EF00AFA2E4207D096
S3150800B30007F0040040F011024146204600F008F814
S3150800B3103A464146204600F003F80DB0BDE8F083F2
S3150800B32070B586B004460D461646112306226946B0
S3150800B330012001F036FD33466A462946204600F0CC
S3150800B34002F806B070BD00B583B0019300920123E0
S3150800B350002209F006FA0EBD2DE9F0410F4688B025
S3150800B36080467C780822002102A8F9F79DFA05F0A4
S3150800B3702BFA0625DFF8446310B100F04FF845D5DF
S3150800B38002A9404605F0EAF908B10B253FE0022C70
S3150800B39002D0042C18D039E000F040F836D4082240
S3150800B3A0B91CDFF82003F9F786FA00282ED0DFF853
S3150800B3B01803007860B1BA1C02A9404600F041F8AB
S3150800B3C00546FF2D23D126E0C0480078010001D1AB
S3150800B3D011251CE002280AD100F024F808B112252C
S3150800B3E015E0032000F024F888B913250FE000F0D3
S3150800B3F019F808B10A250AE000F010F84CBF052034
S3150800B400012000F015F810B9082500E0092529469D
S3150800B41002A803F064FF08B0BDE8F0813068007D3B
S3150800B420800770470023002204A902A8FFF743BA41
S3150800B4300190042304A80090002202A9404609F0BE
S3150800B44090B92DE9F84F0546A1480F469046007871
S3150800B450A04EB946C246AB46FF2438BB00F0E2F818
S3150800B4603078FF285FD002F0D3FD8146307802F0AD
S3150800B470CFFD357800F1080A1121284602F0E4FFCD
S3150800B48006461021284602F0DFFF00EB062B0822AD
S3150800B49039465046F9F70FFA30B908224146484668
S3150800B4A0F9F709FA00283ED00E244DE03078FF2837
S3150800B4B0D6D1012002F0B7FDFF28307008BF10244E
S3150800B4C042D00822394602F028FF30780822414641
S3150800B4D002F023FF280A8DF801008DF80050022299
S3150800B4E030787D4F694602F018FF3868317810F8D1
S3150800B4F0018003F08EFD31782846FDF7E3FA03F064
S3150800B50043FD30783968095C884506D18DF80240D4
S3150800B51001220DF1020102F000FF00210120FFF7D0
S3150800B520D3FA0C2410E0514648460EF0EBFC40B125
S3150800B530524649461FFA8BF000F009F810B90F2455
S3150800B54000E0112400F06EF82046BDE8F28F2DE9E0
S3150800B550F74F88B0104605F0E6F84FF6FF718842B7
S3150800B560ADF8080058D003A805F0C8FA002853D14A
S3150800B5700024584D49E02878BDF820B0099FDDF829
S3150800B5802880FF282BD0122102F05EFF8146B9F1F0
S3150800B590FF0F24D0012002F046FD8246BAF1FF0FC4
S3150800B5A011D003F036FD51465846FDF78BFA03F0E5
S3150800B5B0EBFC4948006810F80A6006B101265046B7
S3150800B5C002F09CFD5EB903F024FD142000904A4663
S3150800B5D02B7839465846FDF748FA03F0D5FC402043
S3150800B5E040F003000190032303A800904246394621
S3150800B5F0584609F0B6F878B10721384603F06FFEC9
S3150800B600641C022C0ADA002CB5D1BDF808B00A9FD2
S3150800B610DDF824800020E3E7002000E001200BB0DD
S3150800B620BDE8F08F10B52B4C2078FF2803D002F028
S3150800B63065FDFF2020700021BDE810400020FFF7BF
S3150800B64043BA10B584B0044601208DF800001B48A3
S3150800B6500068827E531C83760E208DF801208DF8B3
S3150800B660020008220DF10300F9F7DBF80B22694600
S3150800B670204602F052FE401E8041C00F04B010BDA5
S3150800B68030B587B004460D460023002202A9284695
S3150800B690FFF711F901000DD103200190042302A838
S3150800B6A000902946074A204609F05BF800F0010099
S3150800B6B080F0010007B030BD0000000048FC002003
S3150800B6C0ADFF0020B0FA002007F400209DFF0020FF
S3150800B6D0A1FF002014F4002044F20020FFFFFFFF22
S3150800B6E0FFFFFFFFFFFFFFFFFFFFFFFF5A696742EC
S3150800B6F06565416C6C69616E6365303910B50446E1
S3150800B7000C480068407B022802D105F05DF808B1B4
S3150800B710702010BD00210220FFF717F82046FFF71A
S3150800B720F6FC040003D002210020FFF70EF820469D
S3150800B73010BD00BF48FC0020DFF8A00A007C00B15D
S3150800B74001207047DFF8941A0A7C062A18BFFFF70B
S3150800B750F3BF80B5902803D10020087407F02EFCAB
S3150800B760BDE80140E8E7DFF8740A007C042801D147
S3150800B770012070470020704770B5164604460D46EE
S3150800B780FF2205F0ACF928B900222946204605F023
S3150800B790A6F950B146B16908204604F094FB08B9E9
S3150800B7A0A52070BD002070BD702070BD70B505461F
S3150800B7B0084614461E4632460821FFF7DDFF0100FB
S3150800B7C015D1324602212846FFF7D6FF01000ED1D1
S3150800B7D02078010018BFFF2806D0DFF8041AC140F8
S3150800B7E0C80703D5702070BD19202070002070BDD1
S3150800B7F010B5441A48BF6442C92C0A4602DB88427F
S3150800B80003D201E0884200D30246904201D10120CA
S3150800B81010BD002010BD70B50446DFF8C8090068E1
S3150800B82086B00D46407B0F21084206BF94F82800D3
S3150800B8300228702040D10123A21C211D2046FFF7B3
S3150800B840B5FF060038D194F8260000F0820040F0D3
S3150800B850010012F0B9F994F82800DFF88019487445
S3150800B860182200216846F9F71FF80822211D6846A4
S3150800B870F8F7D7FF2088ADF808008DF80A5041F68A
S3150800B8800631A0788DF80B0003208DF80C00DFF840
S3150800B890580905900020FEF758FFA18C94F8282037
S3150800B8A0080008BF4FF441716B460120FDF759FCAB
S3150800B8B0064603F066FC304606B070BD2DE9F04139
S3150800B8C0DFF82049064620688EB0407B00F00F0559
S3150800B8D02C22314602A8F8F7A4FF012D18BF042D23
S3150800B8E02ED0DFF8F858287C50BB96F82800401E62
S3150800B8F0032825D812F059F9C00723D404F06CFFA1
S3150800B900074606F0B0FB80466846FEF7AEFD0822FD
S3150800B910311D6846F8F7CFFF002849D1707B4146AC
S3150800B920FFF766FF00283AD004F04EFF01460122D1
S3150800B930304600F027F9DFF8B4180020087035E023
S3150800B940702061E00121002008F087FC07005AD129
S3150800B95012F08AF90FF6E4024FF6FF710120FEF79E
S3150800B96081FC96F826000027C0070ED5002208217C
S3150800B970301D05F0B4F840B90822311D03A8F8F7C0
S3150800B98050FF3088ADF8080006E00822002103A819
S3150800B990F8F78AFFADF808708DF8157017E005F00E
S3150800B9A0D1F802464146304612F030FF00202BE01F
S3150800B9B00822694603A8F8F734FFADF808708DF831
S3150800B9C0158096F8280002280CBF01270227B078B0
S3150800B9D08DF80A000320FEF703FC02A9384612F088
S3150800B9E01AFE07000BD12168012048734FF4A051B5
S3150800B9F00420287405F118000EF050FF03E000F04B
S3150800BA0034F8FEF7EDFB38460EB0BDE8F08180B598
S3150800BA1012F0FFF8002002BD30B58BB004460D4683
S3150800BA202C2200216846F8F73FFF41F60630ADF8AC
S3150800BA300000102205F115010DF10200F8F7F1FEDC
S3150800BA40102221460DF11200F8F7EBFE284612F0F7
S3150800BA50E0F8684608F046FB0BB030BDDFF87C0717
S3150800BA60007C012818BF00207047DFF87007407C6B
S3150800BA70010003D1DFF86C070068007B7047DFF828
S3150800BA805C17487470472DE9F843DFF85847DFF824
S3150800BA904C67777C814688462068317C407B154612
S3150800BAA00A0018BF062900F00F0041D1012818BF67
S3150800BAB004283DD012F079F8C00707D5FFF7D5FF5F
S3150800BAC001281CBF48F6990004F08AFE12F06DF8AA
S3150800BAD040F0020012F078F812F0C6F9484612F063
S3150800BAE0A1F9C6F82C9020684069400800F00100CA
S3150800BAF0F07405F022F83075404605F014F88046D3
S3150800BB0098B9681E032813D8012030747574042266
S3150800BB10494609200FF0EBFA804630B10020307410
S3150800BB2096F9140004F0FFFF77744046BDE8F283E7
S3150800BB307020FBE770B50400DFF8A056DFF8B066A2
S3150800BB4008D13078FF2805D005F120000EF09CFEBC
S3150800BB50002070BD287C58B905F05EFF30700020C3
S3150800BB6005F044FF214605F120000EF097FEEFE7A9
S3150800BB70702070BDDFF86416002081F82000704739
S3150800BB8005F034BF70B50546DFF86006DFF8646671
S3150800BB904180144628883081A878F07204F0CDFFD9
S3150800BBA0B0720822291D3046F8F73BFE687B3074D0
S3150800BBB0DFF83406706103203073200009D111F0D4
S3150800BBC0F4FFC00705D404224FF6FD71002007F0E4
S3150800BBD0EFFE912004F0E8FEDFF800060321017469
S3150800BBE0002CBDE8704014BF4FF400614FF400719B
S3150800BBF018300EF053BE38B5DFF8E0450020207641
S3150800BC00207C03283FD111F0D0FFDFF8E0552978D2
S3150800BC10002914BF4FF6FF614FF6FF7108404FF633
S3150800BC20FE71084011F0D0FFDFF8B8150120287022
S3150800BC30002009684873FFF718FF0328BCBF0620D1
S3150800BC4020740CF0D6F8E07C012814BF41F60431C4
S3150800BC5041F606310020FEF778FDFFF706FF02469B
S3150800BC606988DFF890350020FDF77BFAFFF7FDFEBF
S3150800BC7003281DDB4FF4006104F118000EF00EFED8
S3150800BC800720207414E0072806D10020207400211C
S3150800BC900120FDF7A1FB0BE0042818BF052807D1F2
S3150800BCA0FFF7E3FEFEF79CFA0020207400F0A4F8E4
S3150800BCB0BDE8314003F065BAF0B5DFF820750446F3
S3150800BCC0387C012883B00D46164615D102F0EAFFE6
S3150800BCD0009001962B4622460FF25851002002F09A
S3150800BCE00BFCDFF81415FF28087005D002203874FD
S3150800BCF0BDE8F7400FF096BAF7BD70B5DFF8DC443B
S3150800BD00217C94F9140001298AB00BD100212174F1
S3150800BD1004F009FF03F07DF90020FBF7C9FB03F0E7
S3150800BD2033F964E0022964D104F0FDFE03F071F9E9
S3150800BD300120FBF7BDFB03F027F91822002103A811
S3150800BD40F8F7B2FD207DDFF8B0548DF816000C2107
S3150800BD50287802F079FB8DF81700012303208DF867
S3150800BD6018000DF1170200208DF81C0003A9DFF852
S3150800BD707804089005A8FFF719FD0646002004F088
S3150800BD8013FE300007D103AB02224FF441710020A5
S3150800BD90FDF7E7F9064636BB01A80021C0E9001100
S3150800BDA02878082102F023FC064628780D2102F09F
S3150800BDB04BFB0020009008232978002201A802F0F6
S3150800BDC03CFA287802F09AF9FF202870002301220D
S3150800BDD001A9304612F07DFB4FF4005104F118001A
S3150800BDE00EF05CFD03E00020207400F005F8012049
S3150800BDF000E000200AB070BD00B585B000F04DF92E
S3150800BE009DF8030000F0C7F994231322C7A1032065
S3150800BE100AF09EFF942003F06FFAFFF726FE032828
S3150800BE2009DBDFF8C003006840884FF6FF718842D7
S3150800BE3008BF032000D0022004F0B6FD05B000BDFF
S3150800BE40F8B504460D4616461F4612F083FCECB9B3
S3150800BE506846FEF7F2FA932808BF002D07D111F0BD
S3150800BE60A4FE00F0020040F0800011F0ADFE0022B2
S3150800BE7039463046FFF786FE012004F095FD03F0AB
S3150800BE80C8F83046FBF753FB03F07EF8F1BDF0B572
S3150800BE9004460D46D14E8BB001220021304608F0EB
S3150800BEA031FD684611F098FE0DF11503002241F6A2
S3150800BEB006314020FEF712FCD04F082206F1300169
S3150800BEC007F11C00F8F7ADFC082206F13801381D09
S3150800BED0F8F7A7FC3C80BD70338DB17C3A4600204C
S3150800BEE0FFF7AEFF01200BB0F0BD2DE9F043044685
S3150800BEF00D461646B94F89B09846082205F11C0129
S3150800BF0007F13000F8F78DFCDFF8F49299F8000095
S3150800BF10022803D111F049FEC00712D599F800008E
S3150800BF20012804D133882A462146FFF789FF022CC7
S3150800BF3008D1FFF79AFD032803DB11F036FEC00788
S3150800BF4004D479E0FFF791FD032875DA288B12F0FF
S3150800BF50FFFCFF2870D005AB424605F11001002012
S3150800BF6012F009FD002867D10E22314601A8F8F71C
S3150800BF7058FCBDF80C00BDF80A10884204D200200F
S3150800BF80ADF80A00ADF80C00BDF80800BDF80610BB
S3150800BF90884204D20020ADF80600ADF80800BDF8C6
S3150800BFA01000BDF80E10884204D20020ADF80E002D
S3150800BFB0ADF81000BDF81000BDF80E30BDF80A2027
S3150800BFC0BDF808100090BDF8060011F0C3FD98BB37
S3150800BFD0200004BFA878002802D104F0B3FDA87099
S3150800BFE0282229468548F8F71CFCBC7405A9308820
S3150800BFF03885102238460DF05FFB0023AA1C291D40
S3150800C0002846FFF7D3FB50B90822291D07F1380047
S3150800C010F8F707FCA9782888FFF739FF12E020000F
S3150800C0200AD1042107F1380003F04DFFF86A754A72
S3150800C03003210FF044FB05E033882A4621460120F8
S3150800C040FFF7FEFE09B0BDE8F0837FB563491546E4
S3150800C0500A7C042A1C461FD100220A760A7410B1EB
S3150800C060FFF7CAFE7FBD04F0AFFB06467DB100F0C0
S3150800C07014F8082202A9201DF8F7D3FB9DF803003F
S3150800C080A070BDF80000208005F0EDFF6073012266
S3150800C09031462046FFF776FD7FBD10230722694605
S3150800C0A0012000F07EBE30B583B004460D466846D2
S3150800C0B0FEF7DBF908226946201DF8F7FCFB80B974
S3150800C0C004F08AFB218881420BD105F0CCFF01469A
S3150800C0D0607BFFF78DFB20B1002229462046FFF73B
S3150800C0E051FD37BD80B5012011F06EFD3B4900209A
S3150800C0F0087401BD70B504460D461646FFF7B5FC33
S3150800C100032811DA4048007870B1AC420CD1B00768
S3150800C1100AD5284608F030FF30B1007920B9BDE8C5
S3150800C12070403A480EF0B0BB70BD000042420000B5
S3150800C13010237F221B2104F0DFBE28237F221C2127
S3150800C14004F0DABE10B50C46FFF7F2FF2046BDE84C
S3150800C1501040F2E7024610237F211B2004F0F3BEAD
S3150800C16080B511F022FD000A00F0010080F0010000
S3150800C17002BD80B511F019FD10F4807018BF0120BA
S3150800C180C0B202BD80B511F010FD10F4807018BF62
S3150800C1900120C0B202BD1E4909780B2901D03D20F5
S3150800C1A0704710490968887302F09FBF0D480068F8
S3150800C1B0807B704780B517491748086011F0F5FC71
S3150800C1C0C00702D405490620087401BD0C4800784A
S3150800C1D070470B490870002070470000CCF8002013
S3150800C1E0FF0700F848FC002000F8FF07C6F3002008
S3150800C1F01FF400200CF9002020F4002024F9002068
S3150800C2000FF400208FBE0008D3FF0020A8FD0020F1
S3150800C21023F40020B8FC0020286B020810B5044659
S3150800C22011F0C3FC4FF6FD7108402043BDE81040ED
S3150800C23011F0CABC3834313200000000000000009A
S3150800C240000000002DE9F04701241128AAB000F0EB
S3150800C2504D81142800F05382152800F0B180162865
S3150800C26000F0B380172800F0B6801A2800F0BA80CC
S3150800C2701E2800F0C4801F2800F0C8802C2800F073
S3150800C2807B812F2800F09581402800F065814128A0
S3150800C29000F094814B2800F066815C2800F09781B5
S3150800C2A05E2800F09D815F2800F0A181602800F0DB
S3150800C2B0B481612800F0B981662800F0FE816728FC
S3150800C2C000F00B82682800F0B981692800F0CF8158
S3150800C2D06B2800F01A82722800F0D481742800F0C6
S3150800C2E01782752800F0DE81762800F0FF8179280C
S3150800C2F000F0BA807B2800F0D9807E2800F07C8187
S3150800C3007F2800F084818C2800F07182992800F03B
S3150800C310E7809C2800F085809F2800F0FC81A228F1
S3150800C32000F05382A32800F02E82A52800F0198277
S3150800C330B02800F03982B32800F06282B42800F0F1
S3150800C3408182B52800F08A82BE2800F08F82BF2835
S3150800C35000F08982C02800F0FC82C62800F0C68258
S3150800C360C82800F0EB82C92800F09282CF2800F096
S3150800C3705A82D02800F09280D12800F09480D428E0
S3150800C38000F07782D52800F07982D62800F07B82E3
S3150800C390EA2800F0D381EC2800F0EB81F72800F0BA
S3150800C3A0CC80F82800F0A780F92800F0B880FA2891
S3150800C3B000F0BA80FB2800F0C380FD2842D0D1E205
S3150800C3C0F8F714F8DFF8A81503E0F8F70FF8DFF820
S3150800C3D0A4150880C7E26846F8F7A9F86846FCF786
S3150800C3E08BFFBCE2F7F7D6FF0546F8F70FF800F023
S3150800C3F0D6FA0246314628460EF079FEAFE268467E
S3150800C400F8F724F86846FCF7EDFDA8E2F7F7C2FF4F
S3150800C41005466846F8F71AF869462846FCF779FE8D
S3150800C4209DE2F7F7E3FF0546F7F7F0FF00F0B7FAE6
S3150800C4300746F7F7DBFF03463A463146284606F035
S3150800C44048FD8CE2F7F7A6FF694604F033FBF7F7D9
S3150800C450BAFF9DF80000F7F7B6FF9DF80100F7F759
S3150800C460B2FF9DF802007AE2F7F794FF694609F0F1
S3150800C47075F8F7F7A8FF00F08AFA9DF80200F7F7B3
S3150800C480A2FF9DF80300F7F79EFF00F07CFA9DF8DF
S3150800C4900500F7F798FF0DF10601F1E0F7F77AFFC7
S3150800C4A009F088F85BE209F08DF858E2F7F772FFB1
S3150800C4B0694609F036FBF7F786FF00F068FABDF81B
S3150800C4C00200F7F78CFF00F05EFA9DF80500F7F713
S3150800C4D07AFF9DF80600F7F776FF9DF807003EE21B
S3150800C4E0F7F758FF40B204F01EFB38E2F7F752FFA1
S3150800C4F00BF03FFE33E2F7F74DFF0746F7F74AFF23
S3150800C50000F04DFA8146F7F745FF00F050FA009023
S3150800C5106BB24A46314638460FF0B6F91FE2F7F7CE
S3150800C52039FF0FF0B3F91AE2F7F734FF00F03FFAD4
S3150800C53041B228460FF0ACF911E20FF0E9FF0EE21E
S3150800C540F7F728FF00F033FA00F029FA02463146D9
S3150800C55028460FF09FF902E26846F8F7DDF86846C4
S3150800C560FEF74EF8FBE16846FEF74CF8F7F72BFFA7
S3150800C5706846F8F7CAF8F6E1F7F70CFF6946FBF7DD
S3150800C5808CFAF7F720FF9DF80000F7F71CFF9DF8D7
S3150800C5900100F7F718FFBDF80200F7F720FF00F0D3
S3150800C5A0F2F90DF105010820F7F738FF9DF80D009F
S3150800C5B0D5E1F7F7EFFEFBF752FA33E0F7F716FF88
S3150800C5C000F0F5F9014628460BF0DEFDC7E1F7F75E
S3150800C5D0E1FE00F0E7F96946284605F029FBBEE1C9
S3150800C5E0F7F7D8FE694605F08DFB694648E0F7F788
S3150800C5F0D1FE05F09FFB15E000F0CDF9F7F7CAFE6E
S3150800C600010018BF0121684605F0C1FCABE100F046
S3150800C610C2F9684605F09DFCA1E100F0BCF9684640
S3150800C62004F081F8F7F7DBFE9DE1F7F7DFFE6946D0
S3150800C63004F094F8F7F7C7FE694621E0F7F7D6FE47
S3150800C640ADF800000DF1020100F09AF90DF11201A2
S3150800C65000F096F9F7F79EFE8DF822000DF12301FA
S3150800C6600820F7F79EFE684607F03CFD77E1684626
S3150800C67007F0D4FDF7F7A7FE00F089F90DF10201DE
S3150800C68008207DE0F7F786FE00F08CF9F7F782FEC2
S3150800C69002A900F075F902AB6A4629460020FEF7A2
S3150800C6A083FB5CE100F077F9F7F774FE010018BF29
S3150800C6B001216846FEF734FB51E100F06CF9F7F703
S3150800C6C069FE054602A900F05BF9290018BF012199
S3150800C6D002AA6846FEF709FB41E1F7F787FE00F074
S3150800C6E061F969462846FEF7CBFF38E1F7F752FEAF
S3150800C6F00146002300220120FEF756FB2FE100F039
S3150800C7004AF96846FEF777F929E10DF021F82AE19A
S3150800C710FEF764FD23E1F7F73DFE054606A930203E
S3150800C720F7F73FFE69461620F7F73BFE280018BFC5
S3150800C73001206A4606A912F075F910E1F7F72AFEF4
S3150800C74005460AA94A20F7F72CFE69462520F7F779
S3150800C75028FE280018BF01206A460AA90DF0C2FB68
S3150800C760FDE0684612F065F9F7F72DFE69463020B8
S3150800C77006E068460DF0BBFBF7F725FE69464A203A
S3150800C780F7F74CFEEFE0694600F0FAF80FA93020FB
S3150800C790F7F707FE04A92A20F7F703FE04AA0FA94C
S3150800C7A0684612F04AF9DAE0694600F0E9F816A98F
S3150800C7B04A20F7F7F6FD04A94820F7F7F2FD04AA80
S3150800C7C016A9684612F03BF9C9E006A91620F7F73C
S3150800C7D0E8FD0CA93020F7F7E4FD69461520F7F7C0
S3150800C7E0E0FD6A460CA906A812F021F9B7E0F7F7AA
S3150800C7F0FDFD00F0DCF841B228460DF02AFBAEE05C
S3150800C8000AA900F0BDF8F7F701FE0090F7F7C2FD98
S3150800C81000F0B2F80DF1150100F0B2F869460AA861
S3150800C820FFF7FAF89BE0F7F7F1FD0090F7F7B2FD8E
S3150800C83000F0A2F80DF1150100F0A2F86846FFF71E
S3150800C840E6F88CE0F7F7E2FD00F0B1F800F0A7F89B
S3150800C850024671B22846FFF716F980E0F7F7D6FDCB
S3150800C860FFF768F97BE011F0F1F97CE0FFF778FC57
S3150800C87075E0F7F78FFDFFF783F974E0F7F78AFDA0
S3150800C880FFF7FDF86FE0F7F7B1FDFFF7C7FC6AE0C1
S3150800C890F7F7BCFD804608A8F7F7D7FEF7F77AFD45
S3150800C8A00646F7F7A3FD8146F7F7A0FD0546F7F715
S3150800C8B09DFD074606A90820F7F773FD0BA900F0AA
S3150800C8C05FF8F7F7A3FD8246F7F764FD0590CDF804
S3150800C8D010A00BA803904B4606A802900197009556
S3150800C8E0324608A9404610F063FD38E0F7F752FDD6
S3150800C8F08046F7F74FFD824604A8F7F7A6FEF7F736
S3150800C90049FD00F04CF88146F7F757FD00F04FF85F
S3150800C9100746F7F76BFD5FEA0A010246039218BF5E
S3150800C920012102975FEA0800019518BF0120CDF89A
S3150800C9300090334604AA09F052FF10E0F7F72AFDE3
S3150800C940694610F01BFAF7F73EFD6846F7F7BAFE98
S3150800C95009E06846F7F779FE684610F063FAF7F7D4
S3150800C96032FD00E0002420462AB0BDE8F08700002A
S3150800C970CEF30020D0F300208DF804000DF1050158
S3150800C9801020F7F70EBD9DF80400F7F71CBDBDF89B
S3150800C9900000F7F724BD69460820F7F702BD0646EA
S3150800C9A0F7F7F8BC054669460820F7F7FABC0546C6
S3150800C9B0F7F7F0BC41780078FFE700EB012080B27A
S3150800C9C070470170090A4170704710B500230400CA
S3150800C9D014BF1C46C3F10304E4B25B1C0A55120AD1
S3150800C9E0042BF4DB10BD30B54A788B78CC780978FF
S3150800C9F018B120461D460C4602E0154608461A465A
S3150800CA0045EA002044EA022141EA004030BD002000
S3150800CA10704700B1022070470120704730B10368A3
S3150800CA20002A14BF194323EA010101607047DFF8A1
S3150800CA30200380687047F8B5C54FBD6804460026D0
S3150800CA40C448044214BF0226BC6024EA0500C00399
S3150800CA5007D50021002000F040F80021002000F052
S3150800CA605CF830000CD1B86800F4804005F48041C9
S3150800CA70884205D0A00B00F0010000F0A1F8064698
S3150800CA803046F2BD38B5B24CA578E078A168C9033E
S3150800CA901CD405F0010100F00102114316D02169EA
S3150800CAA041B1000706D5216908208847E07800F0DB
S3150800CAB0F700E070E06868B128070BD5E168082040
S3150800CAC08847A07800F0F700A07003E0607808B106
S3150800CAD000206070BDE8314022E12DE9F0410446AE
S3150800CAE00D4611F0AFFF9A4F80463878012698B167
S3150800CAF0BE78200009D1002E1CBFF868002804D093
S3150800CB00700602D5F96840208847FD60A6421CBF1A
S3150800CB10BC70FFF7B7FF00261EE02DE9F04104467A
S3150800CB200D4611F08FFF8A4F80463878012698B156
S3150800CB30FE78200009D1002E1CBF3869002804D0D1
S3150800CB40700602D53969402088473D61A6421CBF58
S3150800CB50FC70FFF797FF0026404611F079FF304634
S3150800CB60BDE8F08138B57A4D2978884204460FD059
S3150800CB70200007D100210020FFF7CFFF0021002069
S3150800CB80FFF7ABFF2C70204600F0DAFB00F0C8F880
S3150800CB90002032BD6E48007870476D48007900F075
S3150800CBA0010070476A496C480979C90705D54FF4E9
S3150800CBB00041C16008210160B2E0082101607047A8
S3150800CBC02DE9F041624D644E0446287900F00101D2
S3150800CBD021434FF4004706D00021B1655F490F6035
S3150800CBE008213160F76000F0FE002043287111F03B
S3150800CBF029FFDFF86CE15B49DEF800805A4A5B4B97
S3150800CC00DFF86CC1002C28F4706823D048F400685B
S3150800CC10CEF80080DEF8088028F04008CEF80880B4
S3150800CC204FF0080EBCF802806EF30B28ACF80280B1
S3150800CC3093F800C00CF0BF0C83F800C0B2F802C02D
S3150800CC406EF30B2CA2F802C00A7802F0BF020A7033
S3150800CC50602122E048F48078CEF80080DEF808806B
S3150800CC6048F04008CEF808804FF0010EBCF8028064
S3150800CC706EF30B28ACF8028093F800C04CF0400C19
S3150800CC8083F800C0B2F802C06EF30B2CA2F802C0FB
S3150800CC900A7842F040020A700021B1650621354A39
S3150800CCA0116011F0D5FE7CB1062011F0FDFE401E84
S3150800CCB080413149C00F08702879800706D500F0F1
S3150800CCC02FF82E48076001E000F02AF8287900F0CE
S3150800CCD001024FF4804105F10800FFF79FFE00208E
S3150800CCE0BDE8F0811A48017901F0FD010171C80714
S3150800CCF003D51A494FF40040086070471448017973
S3150800CD0041F002010171C80700D4704710B51348F5
S3150800CD104FF400440460FFF745FF1848046010BD4F
S3150800CD2010B50B4C20782079C0070BD5062011F0DA
S3150800CD30B2FE00B1012010490978C0B2884208BF86
S3150800CD40012001D000206070BDE8104003F015B93D
S3150800CD50ACF70020FFBC0FF814A8004080E100E003
S3150800CD6004B0004008F2002024F2002000F200205F
S3150800CD7010F2002024BC004012F4002000E100E07C
S3150800CD8010B5044602F024F948B10FF2801000E00D
S3150800CD90801D017919B10188A142F9D1448820463C
S3150800CDA010BD2DE9F04182B004460D461646984658
S3150800CDB002F00EF9074654480178FF2917D0407843
S3150800CDC0B84214D100220FF2441002E09A18D2B2E7
S3150800CDD0801D03795BB1B0F800C0B445F6D184F084
S3150800CDE0010300930379284601F027FA1DE030462F
S3150800CDF0FFF7C6FF064607B17F1E002C434607D03D
S3150800CE00FAB23146284602B0BDE8F04104F074B8DB
S3150800CE102A46F9B204F097F802F0FBF830460AF011
S3150800CE2019F9BDE8F34102F0AFB8BDE8F3812DE981
S3150800CE30F04389B0074602F0CBF8002506000FF24A
S3150800CE40CC0421D0761E1FE02088FFF799FF804684
S3150800CE5094F80490380005D04B46F2B2414601A832
S3150800CE6004F04AF82848017800974B46EAB201A828
S3150800CE7001F0E3F9380005D14B4601AAF1B2404664
S3150800CE8004F061F84D44A41D20790028DCD109B0CE
S3150800CE90BDE8F08310B51C4C2078FF2801D170201E
S3150800CEA010BD0020FFF7C3FF207801F027F9FF2007
S3150800CEB020706070002010BD10B5134C0FF24C00A6
S3150800CEC062780021FF2A04D0702010BD5118C9B21B
S3150800CED0801D02791300F9D1002001F092F9FF288C
S3150800CEE0207007D002F074F860700120FFF79FFFEA
S3150800CEF0002010BD182010BD03480078FF2801D176
S3150800CF00012070470020704734F4002007000F0006
S3150800CF101000080011001A0006000E001100020099
S3150800CF2010001100040014000400010001000400B0
S3150800CF300900120008000A0013000A000B00150079
S3150800CF400200000000000000DFF82008007848B161
S3150800CF50DFF81C080179012904BF4079042801D1AA
S3150800CF6001207047002070470FF6B0014008085CA2
S3150800CF707047010644BF4FF6F83101EAC000704712
S3150800CF80491C800189B2B0FBF1F080B2FF288CBF42
S3150800CF900020C0F1FF00C0B2704738B5DFF8D807E7
S3150800CFA0C17809B1002032BDDFF8D847617871B180
S3150800CFB0E178007945182079ADB28542A8BF0546C3
S3150800CFC00FF05DFA0121A940491E084000E0002043
S3150800CFD061790818C0B232BD2DE9F0470446C0078A
S3150800CFE005D540F29B110FF6240003F051FEDFF839
S3150800CFF09857286DC00748BF8C2075D4DFF8780786
S3150800D000DFF8807700210170417829B9397819B19C
S3150800D010A96F41F0010102E0A96F49084900A96713
S3150800D020DFF84C877A7898F80610DFF86097DFF80B
S3150800D030606792B1002202710129286D40F0040050
S3150800D040286506D14FF6FF7030604FF40070C9F8B6
S3150800D0500000FFF7A2FF82460CE0286D20F00400CE
S3150800D060012928654FF0000A04D100F02FFA642040
S3150800D07011F0DBFDA86F20F00800A8671420E8640B
S3150800D080C5F848A0787838B198F80600002801BF96
S3150800D090A86C00280120A864B8790028286D14BF58
S3150800D0A040F0080020F008002865FFF74DFF18B18A
S3150800D0B0306C40F008003064202028626C602C60D8
S3150800D0C06868DFF8D0167F306860042028624FF45D
S3150800D0D0E0600860DFF8C0160968C9F80000286D26
S3150800D0E040F0010028650020BDE8F087DFF8AC06AF
S3150800D0F0002141608160016821F0020101604FF062
S3150800D1000070DFF89C1608600120DFF89816087092
S3150800D1107047332800D2704710B5B0F5002F0CD2EF
S3150800D120DFF880460021217011F04CFE02E0012054
S3150800D13012F0AEF820780028F9D010BD2DE9F84F86
S3150800D140DFF84C86DFF83056D8F80000D8F84010DB
S3150800D150DFF8347601EA0004A4B2C8F8004068781B
S3150800D160002840F0D380E007DFF83C66DFF8149625
S3150800D1704CD5D7F800A0386C796C41EA0041A96013
S3150800D18099F8000000283DD09AF80100800639D5A4
S3150800D19001202870FFF7D8FEC0B3192011F045FD0D
S3150800D1A0DFF808B64FF44040CBF82800DBF800005B
S3150800D1B00090F06E40F40050F066F06E40F4805037
S3150800D1C0F0669AF80010A8684901B83101EB000A20
S3150800D1D002F0B4FDAAEB0000C0F31300FFF799FFB5
S3150800D1E0F06E40084000F066F06EBDF80010084387
S3150800D1F0F0660020CBF8280048F26070F066E888F0
S3150800D200306003E00022002012F093FB20060ED5C2
S3150800D210287830B1002028700022A968402012F032
S3150800D22088FBD8F83C0020F48050C8F83C0060061B
S3150800D23008D5687830B902F081FD014600228920B8
S3150800D24012F077FBE00652D5DFF824A5DFF83CB5E7
S3150800D2509AF80400012804BF9AF8061001291FD17C
S3150800D26012F05CFE386F40F0010038670024002099
S3150800D2708AF8060002F0D2FA0A2011F0D6FC4FF618
S3150800D280FF70C8F800004FF4E060CBF800000920F2
S3150800D290B8660120B864B86F40F00800B86718E0AF
S3150800D2A02979491C2971C9B299F80220914215D2E7
S3150800D2B0012808BF00F0DDF8B86F20F00800B8674D
S3150800D2C01420B866FFF769FEB8644FF40070CBF80F
S3150800D2D00000386D40F00100386508E0687830B91C
S3150800D2E002F02CFD014600228D2012F022FB2007B9
S3150800D2F00CD5FFF729FE48B13068E8800120306078
S3150800D300D8F8400020F00800C8F84000A0060AD562
S3150800D31020203862687830B902F010FD01460022F4
S3150800D320882012F006FB687820B114F4407F04BF09
S3150800D3300120A870BDE8F18FDFF8780400887047EF
S3150800D340DFF830140028086814BF40F4404020F481
S3150800D35040400860704770B582B0054601F064FC2D
S3150800D360DFF85404DFF81444DFF804640021016090
S3150800D3701521E160092101651F214160012101662E
S3150800D380DFF83004008801F0D2FA02F06DFA12F0E4
S3150800D39039FE00F02BF9308900F055F9708900F054
S3150800D3A05AF911F04FFB616841F04001616011F0D4
S3150800D3B04FFB707800F0E8F8B07800F0FCF8DFF87A
S3150800D3C0FC03007800F029F9DFF8F40390F900006F
S3150800D3D001F06FFC307800F08FF996F9030000F041
S3150800D3E097F9DFF8E00300F0B5F9BDF80000DFF8BB
S3150800D3F0D813C0054CBF0020BDF800000870DFF840
S3150800D400CC03007801F018FC28B140F2F2310FF293
S3150800D410FC3003F03DFC012D04D12068C00748BF4D
S3150800D42000F027F86DB92068C0070AD412F076FD17
S3150800D430206840F001002060C82011F0F6FB0020AB
S3150800D440B071F120DFF84853286440F2F910E86318
S3150800D450FFF7A0FBFFF774FF02F0E0F92068C007AA
S3150800D46004D54FF6FF70286000F05DF811F09AFEBB
S3150800D47073BD70B5DFF85853DFF8F4422E68A0790B
S3150800D480012822D011F0DEFAB6B2DFF808232E60A2
S3150800D4904FF4E0611160DFF818130A6A5208520067
S3150800D4A00A620A68520852000A600A6842F00202D2
S3150800D4B00A604A6A42F001024A620121A17111F02A
S3150800D4C0C7FABDE8704012F0F6BC70BD70B5A84C3E
S3150800D4D0A07938B312F022FD11F0B4FA0546DFF848
S3150800D4E0F412A74E01200860306D40F00100306547
S3150800D4F00020A07102F092F920203060306B40F0D5
S3150800D50002003063F06D40F00800F065284611F01F
S3150800D5109FFA0A2011F089FB9D494FF6FF700860B3
S3150800D52000F001F870BD4FF4E06098490860704754
S3150800D5308F48807970478E480079012808BFFFF721
S3150800D54098BF70478A480079704780B5022801DB82
S3150800D550012002BD864908718979884205D010B92B
S3150800D560FFF7B4FF01E0FFF784FF002002BD9A48E9
S3150800D5700068800200149A3801B211F1800FB8BF12
S3150800D5806FF07F0040B2704710B5044611F05AFAA2
S3150800D59092490A68002C04D042F012020A6001215E
S3150800D5A003E022F012020A600021714A517043E03A
S3150800D5B06F484078704738B5054611F043FA044677
S3150800D5C002F0D8FC40B985482900016814BF41F02B
S3150800D5D0800121F080010160654885702046BDE81C
S3150800D5E0324011F035BA6248807870477C494A78EB
S3150800D5F00B787C4803EB022202608B78CA7803EB2F
S3150800D600022242600B794A7903EB02228260CA79C8
S3150800D610897901EB0221C160704710B5044611F003
S3150800D62011FA6E4922000A6814BF42F0200222F05D
S3150800D63020020A6061490C70BDE8104011F008BA72
S3150800D6404B48008970474A4908816749086070470E
S3150800D6504748408970474649488164490860704789
S3150800D6606348007870475248816A41F00201816236
S3150800D6700121016070474E4800210160816A21F04E
S3150800D68002018162502011F0D0BA38B5594C5A4877
S3150800D69021695A4D0180E1694180E96C8180002049
S3150800D6A02061FFF7E0FF0120E06100206062206250
S3150800D6B04CF25D00E864286840F4004028604FF4A6
S3150800D6C00040206048F20200206031BD80B5FFF7B7
S3150800D6D0D2FF48484FF400410160002101604749E4
S3150800D6E00A6822F400420A60434A9388CB64118888
S3150800D6F001615188C16101BD204902000A6814BF51
S3150800D70042F0020222F002020A60194908707047C4
S3150800D71038B504467F2C0AD1394800F01BF8BDF805
S3150800D7200000C00554BFBDF800406FF04A0411F070
S3150800D73089F9054602F01EFC30B964B204F19A0074
S3150800D74080053049000C08600948C470284611F065
S3150800D7507FF931BD018802237F22684603F03ABC6F
S3150800D760034890F90300704700000000D0FF00202E
S3150800D770DEF3002040A00040B8FA002080200040D8
S3150800D780302000406CF300201020004000E100E04B
S3150800D79004A0004080E100E0A820004010E000E07E
S3150800D7A004ED00E0D1FF002064100040E4100040C2
S3150800D7B06020004004F300205C100040CFFF0020EA
S3150800D7C0F8F200205A6B0208AEFF002015F400207C
S3150800D7D01C100040281000400C1000408420004017
S3150800D7E0B0FA002098200040942000409020004085
S3150800D7F031F40020181000408EFC0020C0100040B4
S3150800D800606B020854100040704700007068792D5C
S3150800D810636F6D6D6F6E2E6300000000FEF7C80122
S3150800D8202DE9F6410546DDE90001014628460DF0D9
S3150800D8306FFA284603F08CF80746284603F096F850
S3150800D84000213A469DF80040024203D187F00102C2
S3150800D850104301D1019801782E464FF6FF7807B399
S3150800D860212E1EDA42200229494A09DA4843104481
S3150800D87030F81610414514D0491C20F8161010E04F
S3150800D8800FD1002102EB460300FB01F733F807E04E
S3150800D890C6451CBF0EF1010E23F807E0491C0229F4
S3150800D8A0F2DB3C4B3C4933F8160031F816708742D8
S3150800D8B09241D243D20F47451CBF7F1C21F81670F0
S3150800D8C0092E9F8A18BF0B2E07D18B8A04EB030EED
S3150800D8D0BE4510DAE3188B820EE01D2E0CD1B1F886
S3150800D8E03AE05B8FA6449E4505DA31F81630E31810
S3150800D8F021F8163000E08F8231F81610814203D3E2
S3150800D90012B9284609F09EFB00270FF2A400C15D54
S3150800D910A94204D07F1CFFB2112FF8DB1FE0112F9C
S3150800D9201DDA01F09FFB05461C480078854204DB9A
S3150800D930D7210FF2700003F0ABF92221184869438A
S3150800D940084430F8171041451CBF491C20F8171029
S3150800D950092E18BF0B2E02D1818A61188182BDE873
S3150800D960F38180B5502200210B48F6F79DFFBDE8EC
S3150800D9700840442200210A48F6F796BF5022FF21A4
S3150800D9800448F6F791BF034A22F8101070470000C2
S3150800D990A8FB002014FB0020C4FA0020FEF3002098
S3150800D9A064FB0020636F756E746572732E630000E6
S3150800D9B0000102030405060708090A0B15161819BB
S3150800D9C01A0000009C48007870479B4900F0010047
S3150800D9D00870002070472DE9F04106460DF08DF8D5
S3150800D9E08046FEF7E7FF044640460DF0D1F818F8E2
S3150800D9F0005030460DF077F8074640460DF0C8F857
S3150800DA008E490968895DC91B091AFF22A00548BF06
S3150800DA10122208D47C2D08BF032204D0092D3CBF4E
S3150800DA200FF21C20425DC9B291428041C043C00F2B
S3150800DA30BDE8F08170B5044605F004FD05462046AC
S3150800DA400DF05BF84078400714D500F068F858B137
S3150800DA5000F0A1F80646691CC9B200F09DF82EB17F
S3150800DA60B04203DBFF2801D0002070BD05EB46005D
S3150800DA70851CADB229462046BDE8704005F0FABCC3
S3150800DA80F8B5044605F0BDFD054620460DF035F807
S3150800DA90064600F044F800283FD000F07CF8074618
S3150800DAA0691CC9B200F078F80E2F36D20FF29C1115
S3150800DAB0C95D4D19ADB2420005F10801012F89B2C1
S3150800DAC00AD0022F0CD0052F11D0082F14D0092FF9
S3150800DAD018BF0A2F15D01EE080061CD50D461AE081
S3150800DAE0C20648BF0D46800615D5083512E070787F
S3150800DAF0C00612D555190DE000F01F0000EB4000D6
S3150800DB0007E010F0E00008D1092F0CBF02F03E0034
S3150800DB1002204519ADB2294664E00020F2BDA91CD1
S3150800DB2089B2204605F0A6BCF8B5044605F069FD9D
S3150800DB300546691CFFF7F4FF58B300F02CF80646B3
S3150800DB4006F00C00042806F0030722D0022F00D1A5
S3150800DB50F8B9304605F083FD45193006ADB212D541
S3150800DB60691CFFF7DDFFA8B1E9B200F015F8014618
S3150800DB70012F1CBF01F0030003280AD0304605F028
S3150800DB807EFD4519ADB22946204605F073FC010015
S3150800DB9000D10020F2BD2946204600F055BCF8B554
S3150800DBA0044605F0B1FD0546FFF7B9FFC0B1FFF71A
S3150800DBB0F2FF0646112E13D20FF2A000805D691CF3
S3150800DBC0C9B24719FFF7E8FF052EFFB206D10628A6
S3150800DBD006D20FF29C01085CC719FFB2394601E06C
S3150800DBE00020F2BD2046BDE8F44005F043BC70B500
S3150800DBF0114A0FF28403127804460020002A02D143
S3150800DC00012070BD401CC0B2024613F832502E00E7
S3150800DC1009D0AC42F6D1084603EBC20149688847E9
S3150800DC20010001D070BD002422464FF6FF711E2068
S3150800DC3001F077FB002070BD30F4002044F200208C
S3150800DC40FF0204FF0101010108000000FF060804A5
S3150800DC5002020204020A0B0303020000FF0000008E
S3150800DC6000000C090202000000001C1A0B0000004C
S3150800DC700023001B2200000001000000D7D900087D
S3150800DC800200000035DA00080300000081DA000807
S3150800DC900400000029DB0008050000009FDB0008DF
S3150800DCA000000000000000002DE9F0479A4D9B4C4B
S3150800DCB00E468046297888B0207898F800A08842D1
S3150800DCC00CBF01270027684601F071FBA84508BF6D
S3150800DCD0FF2E0AD19249287889682522B1FBF2F1EC
S3150800DCE00E18B6B2FF2EC8BFFF2688F8006000F0EF
S3150800DCF041F806000FF2E82908D088F800A000F0DD
S3150800DD0039F818B17321484602F0C2FFDFF814A2A9
S3150800DD107FB112F019FA074612F01AFA3A1A92B2B5
S3150800DD2000215046F6F7C0FD00F045FC2878207023
S3150800DD3015E07D48046812F007FA074612F008FA5B
S3150800DD40381A001B0AEB000292B200212046F6F7A9
S3150800DD50ABFDA84503D17F21484602F099FF01F0A3
S3150800DD609BF8684601F03EFBF6F74FFE304608B0D2
S3150800DD70BDE8F0872DE9F8456C4FDFF8A8814FF02C
S3150800DD800E0A12F0E1F9054612F0E2F96849694B04
S3150800DD90C1F80080281A6049097808EB41121A6010
S3150800DDA00A44654B1A600A44644B1A600A44644B79
S3150800DDB01A6053185A4A5D185B4953600D6040440F
S3150800DDC0604909784E1C760405EB16455E4E3560AB
S3150800DDD005EB41053D6005EB81055C4F3D600D4453
S3150800DDE05B4F3D6005EB41065A4D2E605A4D2F7824
S3150800DDF0062505FB07F31E44584B1E60CB1DDB109A
S3150800DE005F43BFB23E44564F564B3E60564F3F782F
S3150800DE1006EBC706554F3E60554F3F7806EB87071A
S3150800DE20544E37600C261B78734307EB030E524F8C
S3150800DE30C7F800E0514F97F800C0482707FB0CF4D5
S3150800DE40A6444F4CC4F800E04E4C24780CEB04036F
S3150800DE500AFB03F39BB29E444B4BC3F800E00B1935
S3150800DE6063449B04494C0EEB13432360484C2478C7
S3150800DE706C432344474C2360474C24786C43234423
S3150800DE80464C2360464C247867433B44454F3B60E9
S3150800DE902C24454F3F7867433B44444F3B60444FEF
S3150800DEA03F78444C03EB470323603B44424F3B60B7
S3150800DEB01944424B1960424B1B7873431944414B32
S3150800DEC01960414B1B786B431944404B1960404B12
S3150800DED01B7801EB83013F4B19603F4B1B7801EB25
S3150800DEE0830113781D0008BF002504D05B1C0D466E
S3150800DEF05B0401EB1341394B88422CBF4145352061
S3150800DF001D6006D3411A91600FF2E80008F01BFF66
S3150800DF100020BDE8F2850000F6F30020F7F30020A4
S3150800DF205CFC00200000002054F200205CF2002077
S3150800DF3040F2002044F2002048F200204CF2002073
S3150800DF4050F20020F9F3002058F2002060F2002079
S3150800DF5064F2002068F20020FAF300206CF2002038
S3150800DF6070F20020FDF30020FBF3002074F200207D
S3150800DF70FCF3002078F200207CF20020FEF300205B
S3150800DF8080F20020FFF3002084F2002088F20020AF
S3150800DF9000F400208CF2002001F4002090F200200A
S3150800DFA003F4002094F2002098FF00209CF2002041
S3150800DFB09AFF0020A0F20020A4F20020A8F2002078
S3150800DFC004F40020ACF2002005F40020B0F2002092
S3150800DFD09CFF002098F2002099FF0020B0FC00204A
S3150800DFE06D656D6F72792D616C6C6F636174696FA5
S3150800DFF06E2E630052656D61696E696E67206D6588
S3150800E0006D6F72793A202564206279746573000011
S3150800E010DFF82017096801EB40107047DFF818276A
S3150800E0201268115470472DE9F041040035D010F0FC
S3150800E03009FDDFF80817DFF808370E78FF22804653
S3150800E040FE2EDFF800071BD100260E70DFF8F8C693
S3150800E050DFF8F86637781F70002708E007F1010E29
S3150800E06005F807E0DCF80050EA555FFA8EF796F8EF
S3150800E07000E005687745F1DB05EB0E0606F8012C8E
S3150800E0801E78A6420BD2404610F0E2FC052008F0A6
S3150800E0905EFE00211B2001F03AF9FF201EE0361B28
S3150800E0A01E70DFF8AC360E780F78D3F800E001253D
S3150800E0B00EF80750641E056815F807E081F800E0B9
S3150800E0C05FFA84FEBEF1000FEED1EA550021304614
S3150800E0D0FFF7A4FF404610F0BBFC3046BDE8F081D0
S3150800E0E010B5044610F0AEFCDFF8641609680A5D40
S3150800E0F0521C0A55BDE8104010F0AABC2DE9F041A3
S3150800E100054600F031F8044610F09CFCDFF82C2692
S3150800E110DFF82C36DFF82C66DFF83486FF2D1FD0A3
S3150800E120D8F800104F5D7F1E4F557F27D8F800E0BE
S3150800E1301EF80510394213D13168495D00270EF8DB
S3150800E14005701F787F1C1F70FF29376892F800E05A
S3150800E15007F805E0157006BF2546FF240D46DDE7DE
S3150800E160BDE8F04110F074BC80B5DFF8E415096825
S3150800E170095C090603D5FFF74BFF007802BDFF20AF
S3150800E18002BDB0B504460D46FFF7EEFFFF2818BFDF
S3150800E190FFF7B4FFFF2DDFF8B87504D13868015DC5
S3150800E1A001F07F0106E02846FFF79AFF3868015D0F
S3150800E1B041F0800101552046FFF72AFF0570B0BDE2
S3150800E1C00EB478B504460120FFF72DFF0546FFF784
S3150800E1D01FFF0646FF2D08BFFF200FD0E1B22846D5
S3150800E1E0FFF71CFF05A8002104E050F8042B06F8E9
S3150800E1F0012B491CC9B2A142F7D3284672BC5DF867
S3150800E20010FB70B504460D4605F11F000004400DCD
S3150800E21082B0C0B2FFF707FF0646FF2E0CD029468C
S3150800E220FFF7FCFE3CB1012000902B460022314648
S3150800E230204600F002F8304676BD73B500F0CFF8F8
S3150800E240405C15461E467119884203DA40F265118C
S3150800E25000F0EAF830000CD0294601A800F0E8F8EA
S3150800E260024606989DF8041000903346204600F0B2
S3150800E27001F873BD2DE9F843089CDFF8C884054604
S3150800E280894616461F460BE06A5C4254491CB14251
S3150800E290FADBD8F80000BF1BAD1910F80990002664
S3150800E2A0F8B2C8B14846FFF7B3FEFFB28019F119B4
S3150800E2B02029B2BF3E46C6F12006F6B221003246F4
S3150800E2C004D101462846F6F7ACFAE2E7012C08BF66
S3150800E2D02946F8D00021DAE7BDE8F1832DE9F041B7
S3150800E2E000F07DF882B0055D884616467119C9B2F8
S3150800E2F0A9421F4605DB30000CD0204600F05DF829
S3150800E30008B1182007E0009733462A4621464046BA
S3150800E310FFF793FF0020BDE8F6810123DEE70A46F2
S3150800E32000E0521C1378002BFBD1521A0223D2B2FA
S3150800E330D4E72DE9F041054601F11F00C70402F1B3
S3150800E3401F00C0043F0E000E07B9012700B90120BF
S3150800E35087422CD0DFF8EC431BDAC01BC0B2FFF7AC
S3150800E36062FE8046B8F1FF0F08BF002020D07F1E4E
S3150800E37000F020F82668305CFF2804D000F01AF870
S3150800E380305CFFF7BBFE00F015F8216801F8008045
S3150800E3900DE08A420BD2411EC9B200F00CF80546C0
S3150800E3A02068405DFFF7AAFE2168FF204855012036
S3150800E3B0BDE8F081F9B2284616E038B500F00FF846
S3150800E3C00D46015D2A462046FFF7B3FF28B12946C8
S3150800E3D02046FFF723FE002032BD182032BD044632
S3150800E3E0DFF854030068704704E0DFF85823126822
S3150800E3F0105C491ECAB2002AF7D1704711B50C46FF
S3150800E400DFF83413096881B0095C8C4203D340F203
S3150800E410012100F009F8214601A800F009F8044690
S3150800E42000F035F9204416BD0FF24C3002F030BC2E
S3150800E43038B504460D46E9042078090EFFF7D4FFDF
S3150800E440207005F01F0032BD80B5FFF7D7FF0078B2
S3150800E45002BD10B51446FFF7D1FF047010BDB0B564
S3150800E460FFF7BDFF82B0055DFF2C03D140F22121E5
S3150800E470FFF7DAFF05F11F000004400DC0B2FFF7F1
S3150800E480D2FD0746FF2F0AD02946FFF7C7FD00959C
S3150800E490002322460021384600F0C8F83846B6BDA3
S3150800E4A0F8B504460D4616460120FFF7BCFD07469B
S3150800E4B0FFF7AEFDFF2F01D1FF20F2BD33462A46F6
S3150800E4C02021204400F020F82118C9B23846FFF769
S3150800E4D0A5FD3846F2BD10B582B004AC009400F034
S3150800E4E001F816BD10B514461A46029B2044091BAE
S3150800E4F0BDE81040C9B207E00CB480B502AAFFF720
S3150800E500CFFF02BC5DF80CFB2DE9F04781461446A7
S3150800E5109A464F46002588460AE032463846F6F7B8
S3150800E52080F97019BF19451EEDB26D1C641CEDB259
S3150800E53045453BDA2078010038D0312818BF322803
S3150800E5400ED15AF8041B07F8011B3228EDD16D1CB1
S3150800E550EDB2A845A4BF081207F8010BE5DA25E0D5
S3150800E56034280ED1291D5AF8040B88451EDB38704D
S3150800E570010A7970ED1C010C000EB970F8703F1D88
S3150800E580D2E7A0F133025AF8041B072A38BFA0F1D4
S3150800E590300607D3A0F14102072A34BFA0F1370697
S3150800E5A05AF8046BF6B270194045B6DBA7EB0900BA
S3150800E5B0C0B2BDE8F0876149FE200870704770B5A3
S3150800E5C000F029F8064600F004F800EB062080B2B1
S3150800E5D070BD2946204637E700B583B002238DF87B
S3150800E5E00420120A8DF805200122009218E0F8B5D9
S3150800E5F000F011F80602FFF7ECFF8619E91CC9B20C
S3150800E600FFF7E8FF0702A91CC9B2FFF7E3FFC01925
S3150800E61006EB0040F2BD0D46691C0446C9B213E775
S3150800E6200A46014601A8FFF708FE07BD2DE9FC4486
S3150800E63005B40A9C20001F4627D089B26846FFF712
S3150800E640F7FE0646B9B201A8FFF7F2FE0746BE4234
S3150800E650A8BF3046A4B2C0F120002546C0B2A842E1
S3150800E660B8BF054600F013F882469DF80000FFF78C
S3150800E670CFFC2A460AEB07013044F6F7D2F8641BAA
S3150800E680A919EF19A0B20028D7D1BDE8FF849DF8D3
S3150800E6900400BDE470B504460D4610F0D3F92A4BC4
S3150800E6A021781B68FF2908BF5D5503D019440E78E9
S3150800E6B05E550D702570BDE8704010F0C9B938B5C3
S3150800E6C0044610F0BFF92178FF22FF2908BFFF256D
S3150800E6D007D01D4B1B685D5C8D420EBF22705A5DCC
S3150800E6E05A5410F0B5F9284632BDF8B504460D4619
S3150800E6F010F0A8F921780026FF2915D0124B1B68BF
S3150800E7000A46012602E0761C3A46F6B29F5CAF42FC
S3150800E71008D1DF5D9F54A94206D18A4208BFFF226D
S3150800E720227001E08F42EED110F092F93046F2BD28
S3150800E7300000000040F2002044F200202DF40020E2
S3150800E740F7F300204CF2002050F20020F6F30020E8
S3150800E75048F200200078FF2801D1012070470020E8
S3150800E760704710B5044602E0FFF7C8FC2046FFF7DD
S3150800E770A6FFFF28F8D110BD7061636B65742D6222
S3150800E78075666665722E630080B511F05BFD3948C3
S3150800E79039490068401C086001BD38483849007886
S3150800E7A00978884201D101207047002070477047D8
S3150800E7B000BF80B53348007840B900F009F828B999
S3150800E7C011F0B0FD401E8041C00F02BD002002BD01
S3150800E7D010B52D4C207820B911F0B8FD08B10120EC
S3150800E7E02070207810BD80B52749002008700120C8
S3150800E7F011F0ACFDBDE801401F4803681D480068DC
S3150800E80002781BA13C2001F099BC11F07ABD1A4A86
S3150800E81012681044FFF7F5BC164800680078704780
S3150800E820144909680870704770B582B0002008F06E
S3150800E830DBFA04460020104D144E3178009023462A
S3150800E84028680122FFF716FD11480188091B491E91
S3150800E850018089B230780091631C9BB20246002180
S3150800E860FFF7E4FE28680B4920440860012076BDBE
S3150800E8706C700000F4F20020ACFA0020F7F30020D8
S3150800E880F6F300206AFE0020CEFF00202FF40020B9
S3150800E8908EFF002054F80020DFF8FC3433F810000F
S3150800E8A01040C840704730B50FF2AC54DFF8EC346E
S3150800E8B034F810409C601140DFF8DC4434F81050FE
S3150800E8C095432943D96002221A6000221A6024F867
S3150800E8D0101058680028FCD130BDDFF8C424DFF8D2
S3150800E8E0C4041278DFF8C0140AB149780EE08956D4
S3150800E8F011F1090FB8BF302108DBC16D39B1C26DFE
S3150800E90040F24A31B1FBF2F189B2C91E0160704783
S3150800E910E0B5DFF8980401880A2300F065F8BDF829
S3150800E92006104FF6FF720D20FFF7BDFF07BDF8B5BD
S3150800E9300546B5F5004FDFF870441AD1DFF87004C4
S3150800E9400188022300F050F8BDF80000000AFF28ED
S3150800E95001D0010000D118206070BDF80000000643
S3150800E960C00E10281CBF001D00F0A3F9BDF800005A
S3150800E970C543DFF82C64707808B1002005E0A0894B
S3150800E980ADB26840C00701D501207070DFF82404D5
S3150800E990A58105F00104016841F4004101604FF4C6
S3150800E9A040520FF2D84000EB4400C5F340074078C8
S3150800E9B0010389B20220FFF776FF204611F054FEC4
S3150800E9C04022B90100F012FA2D06A80E00F0010047
S3150800E9D038433070FFF781FF707818B1FFF798FF5A
S3150800E9E0002070700020F2BD7F22684602F0F2BA5D
S3150800E9F02DE9F04FDFF8C443DFF8BC73207887B001
S3150800EA00042304900D210B38C0B203906846039A7C
S3150800EA1002F072FA9DF800008DF80A009DF80100D0
S3150800EA208DF809009DF802008DF808009DF803008E
S3150800EA308DF80500DFF888030078012806BF60789E
S3150800EA4080F00105012501F04DFA82469DF9020084
S3150800EA5003990AF10A06AAF10A09B042B6BF814526
S3150800EA604FF001084FF0000801208840ADF8060075
S3150800EA709DF80100000604D47888BDF806100842FF
S3150800EA8001D04FF0010811F065FE9DF8030000065D
S3150800EA900AD4B888BDF80610084205D19DF90000C9
S3150800EAA0B042B8BF814502DB4FF0010901E04FF0E3
S3150800EAB0000948EA050059EA000000F0A480DFF8DA
S3150800EAC004B3C149DBF80000C04E400800F001005D
S3150800EAD08DF80400BE48006800F4E06005904FF425
S3150800EAE0E06008600020FEF707FE10F05BFBADB1A2
S3150800EAF0607858B1DBF80000B14940084000CBF80F
S3150800EB0000000120087010F090F807E0306840F423
S3150800EB1000503060306820F480503060A848007893
S3150800EB20012810D161780D4208BF11F0F7F9DBF81A
S3150800EB300000A34940F00100CBF80000002008704F
S3150800EB40642010F072F8607880F00100054203D066
S3150800EB500498C0B211F037FE607838B1306820F4F6
S3150800EB6080503060306840F400503060BDF80600D0
S3150800EB70C543B8F1000F08D011F010FF8DF8010059
S3150800EB808DF802A0788828407880B9F1000F08D05F
S3150800EB9011F0B1FF8DF803008DF800A0B888284061
S3150800EBA0B8809DF900009DF90A10884202BF9DF8B9
S3150800EBB001009DF8091088420BD19DF902009DF9C4
S3150800EBC00810884202BF9DF803009DF80510884288
S3150800EBD006D0039904236A46C9B20D2002F0B3F998
S3150800EBE005987B49086000F019FE9DF80400FEF7B9
S3150800EBF083FD12F0A0F8607828B148F260703060A2
S3150800EC00642010F012F89DF8010011F033FE9DF80B
S3150800EC10030011F06BFF07B0BDE8F08F80B501F077
S3150800EC2054F9BDE80140E3E601F04FB9A0F10B0144
S3150800EC30102928BFFF20704770B50646FEF778FCF6
S3150800EC400546A6F10B001028A6F10B0401D38A206D
S3150800EC5070BD60488168090702D40068C00701D5FD
S3150800EC608C2070BD554806705B4801680C290FD08A
S3150800EC700FF27C11594A92F90020A4B231F82410F7
S3150800EC805118C161FFF7B4FE012D08BFFEF7F1FB6D
S3150800EC90002070BD10B5044601F017F92046BDE8FE
S3150800ECA01040C9E74548007870473F4890F900008A
S3150800ECB070472DE9F0410446202514F12B0F86B044
S3150800ECC049DB474801881423FFF78EFEBDF810007C
S3150800ECD04FF6FF71884203D0400448BF012607D487
S3150800ECE03F2200211020FFF7D7FD002680F02005DF
S3150800ECF004F12B022F2A2C483A491AD213220FF272
S3150800ED00301300E0521ED2B213F91270BC42F9DB7E
S3150800ED1003EB4204032764780C60002413F81210EE
S3150800ED20017000218846C6B1BDF810104FF6BF72B3
S3150800ED3028E0092C0FDA025D0A60047014232A48B9
S3150800ED400188FFF751FE4FF4C0514FF480744FF01D
S3150800ED5080082827E7E78B2019E04FF4605200F077
S3150800ED6045F84FF4E062214600F040F8802241461B
S3150800ED7000F03CF8781980B24028A8BF3F203F220F
S3150800ED8080F0200100F032F8FFF7A7FD002006B05A
S3150800ED90BDE8F0810000000058F80020E8100040A7
S3150800EDA0AFFF002064100040F8F20020386B02081C
S3150800EDB04C6B02081C100040AEF4002015F400202D
S3150800EDC0E4F300208020004080E100E0D0100040FD
S3150800EDD000E100E060200040AC100040AEFF0020DB
S3150800EDE0346B0208C0100040366B02080B205AE547
S3150800EDF0AA2129005523290000252800AA2627002C
S3150800EE0055282700002A2600AA2B2600552D25005E
S3150800EE10002F2400AA302400553223000034220093
S3150800EE20AA3522005537210000392000AA3A2000C9
S3150800EE30D500E601EC02EF03F204F405F506F70740
S3150800EE40F808F909FA0AFB0BFC0DFD0FFE11FF1372
S3150800EE5000160119021C031F1000110020003000C3
S3150800EE604000410050006000700080009000A00043
S3150800EE70B000C000D000E000F00000000000010370
S3150800EE803820704700207047382070473820704770
S3150800EE9070470020704700002DE9F84FDFF8E44678
S3150800EEA0DFF8E4562068DFF8E4B6DFF8E496DFF822
S3150800EEB0E4A6E861286200264FF6FF7827E0206876
S3150800EEC0F6B2482171434718482200213846F5F71B
S3150800EED0EBFC99F800003870A7F802800020387318
S3150800EEE07873761C0B20B8730320F8734FF6FE7000
S3150800EEF03882A7F812800DF0C2FA38760DF0BFFAFC
S3150800EF0078760DF0BCFAB8769BF80000F876F0B281
S3150800EF109AF800108842D2D3281DBDE8F84F02227D
S3150800EF20FF21F5F7C1BC2DE9F041DFF86C560FF269
S3150800EF308868044695F9000010F1010F03DA5C2190
S3150800EF40404601F0A5FEDFF84C7639788C42264615
S3150800EF5005D3FE2E03D05E21404601F099FE28789F
S3150800EF60DFF82416401C287040B208440474387828
S3150800EF708442DFF81006006828BF0E7848227243DC
S3150800EF801044C861BDE8F08110B5DFF80C4694F965
S3150800EF900000002802D56F2100F0A3F82078DFF8DA
S3150800EFA0E815401E207040B2DFF8E8450A78247854
S3150800EFB000284EBF10460818007CA04238BF0246FB
S3150800EFC0DFF8C005006848235A431044C86110BDDD
S3150800EFD010B50020DFF8B01500E0401C00F07BF803
S3150800EFE00AD2DFF8A035C0B21B68CA694824444370
S3150800EFF023449A42F1D110BD8A2168E0DFF89805CA
S3150800F00090F9000010F1010F01D10120704700208E
S3150800F0107047FE2087E7DFF870050078704738B537
S3150800F0200446FFF7EBFFDFF8605550B9DFF86805CF
S3150800F03090F900002844007CFE2802D0A62100F0A2
S3150800F04050F8DFF8501509788C4201D3B12032BD4B
S3150800F050DFF830052C704821006861430844E861F0
S3150800F060002032BD38B5DFF83005DFF81C5590F9B9
S3150800F07000402819007CFE2807D0FFF7BFFF20B9FB
S3150800F080C32100F02EF8FF2032BD611E00E0491EA4
S3150800F09049B2080004D46818007CFE28F7D032BDAF
S3150800F0A0287832BD10B50020DFF8DC1400E0401CDB
S3150800F0B000F011F80AD2DFF8CC34C0B21B680A6A2D
S3150800F0C04824444323449A42F1D110BDE22100F07A
S3150800F0D008F8FF2010BDDFF8BC341B78C2B29A428C
S3150800F0E070470FF2D44001F0D3BD10B5FFF7DAFD33
S3150800F0F0DFF89444216A897B884203D00846FFF7E3
S3150800F100C9FD50B9FFF7D1FD0146206A90F90F00F5
S3150800F110814204D0FFF7CDFD08B1012010BD206A59
S3150800F120008AFEF790FA206A408AFEF794FA206A67
S3150800F130007B012818BF0020FEF76FFA002010BDDB
S3150800F140DFF8501410B509788842044603D34FF403
S3150800F1508371FFF7C6FFDFF84404007808B970200A
S3150800F16010BDDFF820040068482161430844DFF831
S3150800F17018140862BDE81040B7E7DFF820140870D5
S3150800F180704710B5DFF818440020207002F047FCDD
S3150800F19020B92046BDE810400BF076BB00F054F8C5
S3150800F1A0DFF8F0130978884206D3FFF711FF044603
S3150800F1B000F010F818B12046BDE81040C0E710BDB1
S3150800F1C0DFF8C403006A008A7047DFF8BC03006AE8
S3150800F1D0408A7047DFF8AC13096848225043084450
S3150800F1E0407B02281CBF1128432801D10120704703
S3150800F1F000207047DFF88C130968482250430844FA
S3150800F200007B01281CBF0228032801D10120704772
S3150800F2100020704710B5002400E0641C00F028F8B0
S3150800F22010D2FFF7D7FF0028F7D0D648E4B2006817
S3150800F230482161430844007B012818BF0228ECD105
S3150800F240204610BDFF2010BD10B5002400E0641C48
S3150800F25000F00EF80AD2FFF7CDFF0028F7D0E0B28B
S3150800F260FFF7B8FF0028F2D0E0B210BDFF2010BDAE
S3150800F270C8490978E0B28842704770B5002400256D
S3150800F280C44E08E0FFF74FFE01F041FC00B101242F
S3150800F290FFF77AFE6D1C3178E8B28842F2D3204631
S3150800F2A070BD80B5FFF7D0FFFF2801D0012002BD51
S3150800F2B0002002BD38B5BB4C054620680321A9408D
S3150800F2C088432060FFF784FE2168A8400843206031
S3150800F2D031BDB4490968C14001F00300704738B52B
S3150800F2E004460D46FE20FFF71EFE29462046F7F780
S3150800F2F032FFBDE8314047E610B50446FE20FFF769
S3150800F30012FE204607F060FEBDE810403CE682B0DB
S3150800F3108DF80010DDE9002311461A4602B0FEF703
S3150800F3207FBA32B586B004468DF8042001F010FB8A
S3150800F3300546204601F01AFB80F001010D420DD06A
S3150800F340BDF8180001F014FC8DF80000FF2804BF72
S3150800F35000208DF80000CDF808D01AE0294308BF30
S3150800F36006A815D0054214D0BDF8180001F000FC17
S3150800F3708DF80000FF2804BF00208DF800009DF8D6
S3150800F38000008DF80C00BDF81800ADF80E0003A8B3
S3150800F3900290FE20FFF7C7FDDDE901010A46014696
S3150800F3A02046FEF73DFAFFF7EFFD07B030BDF8B58A
S3150800F3B0784E754D04463078687000270DE0FFF7E3
S3150800F3C0B2FDE8694169FFB244F8371004EBC7019A
S3150800F3D0C07E08717F1CFFF7D7FD3178F8B28842E6
S3150800F3E0EDD3F1BDF8B504460025674E0DE0284675
S3150800F3F0FFF799FDF06954F8371041616D1C04EB6D
S3150800F400C7010979C176FFF7BFFD624970780978A7
S3150800F4108142EDB238BF08462F468742E7DBF1BD89
S3150800F42038B5FFF7D5FD5B4A574B1278002100E047
S3150800F430491CCCB294420ED29C78C9B20C1994FBE2
S3150800F440F2F502FB1544E4B21C442579854202D044
S3150800F450FF2DEDD1207131BD70B54B4C4D4EA078C6
S3150800F4603178204405798D4203D340F22921FFF7EC
S3150800F47038FEA0782218FF211171401C317890FBC4
S3150800F480F1F201FB1200A070284670BD3E48817853
S3150800F49008440079FF2801D00120704700207047F2
S3150800F4A010B5FFF7FEFE70B1374CE069007B042803
S3150800F4B009D11420FFF7FEFE04F10800BDE810404C
S3150800F4C064210BF0EBB9BDE8104002F067B880B5CF
S3150800F4D02D49002008721420FFF7FBFEFFF723FDD5
S3150800F4E002F05CF8BDE801404EE500002DE9F8435E
S3150800F4F08146FFF76DFDB9F1040F0FF2BC082A4CDF
S3150800F500214F2A4D2A4E34D8DFE809F0030A0A1B90
S3150800F5101B00F86900F128010020086088602FE0C8
S3150800F520FFF7BFFE20B14FF41871404601F0B0FB5B
S3150800F530F869316840F8281F2168816029780171C7
S3150800F5401EE02A783568F9690E2303FB02F635446E
S3150800F55043432B4441F8283F236803EB8202154BAB
S3150800F5601B7802EB830202EB800088600120087199
S3150800F57006E04046BDE8F44340F2712101F088BB3D
S3150800F580BDE8F1837CF200202CFC002008F4002062
S3150800F590A0FF0020FEF3002033F4002032F4002000
S3150800F5A050FC002058FC002084F20020FFF30020C5
S3150800F5B080F20020F9F30020656D6265722D6D7585
S3150800F5C06C74692D6E6574776F726B2E630000001C
S3150800F5D001207047012070470020704780B57020D1
S3150800F5E0F4F7F1FEBDE802400020F4F7ECBE702007
S3150800F5F0F4F7E9BE70B582B00446FEF709FD054684
S3150800F600A879E9790818400000F10806FFF703FD14
S3150800F610400040F001008DF80000FF222B78002101
S3150800F620002000F0B7F8FF280BD178480068005D85
S3150800F630F6B2B04205D1012269462046FEF76DFEB4
S3150800F64008B1002076BD21467148FFF723F87148B6
S3150800F6500178491C01702046FEF742FD012076BD5F
S3150800F66010B50446FFF7FEFC024623460121012099
S3150800F67000F090F8FF2804D0BDE810400021FEF7FE
S3150800F680E3BE10BD38B504460D46FFF7EBFC00F0A7
S3150800F69055F8FF2801D1002032BDFEF7B9FC044613
S3150800F6A0601CFDF787F92880E01CFDF783F9688060
S3150800F6B060792871A0796871E079A871012032BD56
S3150800F6C038B5044615460B46FF220021002000F0F7
S3150800F6D061F8FF2801D1362032BD4C4A1268115C08
S3150800F6E0491EC9B2FEF78AFE24B1297801F007013E
S3150800F6F0017001E000782880002032BDF8B5044684
S3150800F7000D461646FFF7AEFC00F018F80827044623
S3150800F710FF2C02D14FF6FF70F2BDFEF779FC012DE2
S3150800F72004D18079400000F10807FFB207EB4600D4
S3150800F730C1B22046BDE8F440FEF741BF0246234663
S3150800F7400121002026E02DE9FC410D4604466946C4
S3150800F750FFF798FFD8B1002601E0012E02D09DF8E8
S3150800F760058001E09DF80680002700E07F1CFFB2B7
S3150800F770474508DA3A4631462046FFF7BFFF854235
S3150800F780F4D1012004E0761CF6B2022EE5DB002057
S3150800F790BDE8F6812DE9F84F82461D480078002518
S3150800F7A0FF280C46914698462CD01B4F396811F80D
S3150800F7B000B05E465FEA0A0011BF284600213046BF
S3150800F7C0FEF742FE404517D110480068805D411E8D
S3150800F7D0C9B23046FEF738FE00F0010181F001019A
S3150800F7E00C420FD1B9F1FF0F1EBF400800F003000D
S3150800F7F0814507D1304606E03868865D6D1C5E4552
S3150800F800EDB2D7D1FF20BDE8F28F000044F2002008
S3150800F810A8F30020D2FF002050F2002010B5DFF830
S3150800F8209047102020630FF00DF9DFF888170A6853
S3150800F83042F001020A600FF00BF9DFF87C076060FE
S3150800F84020608A3061688931616001212163E06046
S3150800F850A060DFF86817E0688930E060022020635E
S3150800F8604FF6FF70086010BDDFF8540745F26401D3
S3150800F870C1601E21416250210162C821C1618165B2
S3150800F880F021C16545F69001416688218166062109
S3150800F890C16644F2066101604FF6FF714160DFF808
S3150800F8A02407007838B1DFF8200748F26071016054
S3150800F8B04FF4C1514160DFF81407016841F00401B3
S3150800F8C001600020DFF8081748707047DFF8EC067B
S3150800F8D00068C00700D408E07047DFF8E006006853
S3150800F8E010F0190F00D100E0704700210020FDF745
S3150800F8F014B92DE9F84F8046DFF8D816012011F023
S3150800F900B2FA8A21DFF8B00601FB08F14518681C2F
S3150800F9104178007800EB0120DFF8BC1609781FFA59
S3150800F92080F9DFF8B806017000EB080A00208AF8AB
S3150800F93002005FEA896003D5DFF8A446606E000618
S3150800F94040F18F80002609F00700032861D109F4E9
S3150800F950406009F44041B0F5806F1CBFB1F5804F97
S3150800F960002956D00422B0F5006F08BF082203D03C
S3150800F970B0F5406F08BF0E225FEA49605CBF921C73
S3150800F980D2B2B1F5004F0CBF971C02F10807FFB2BF
S3150800F990781C00EBD070C0054FEA106B5FEA0800D0
S3150800F9A014BF60682068584533D3A818B1F5404F8E
S3150800F9B003D10BF0E6FF064612E04078A95C01EB9E
S3150800F9C0002080B20BF06AFFFF2808D0DFF8141673
S3150800F9D0096831F810004FF4E661084200D00126A4
S3150800F9E0BEB15FEA097014D45FEA080014BF606804
S3150800F9F020680BF10101884207D2E0685FEA080136
S3150800FA0014BF022101210842EED1E85D042818BF7F
S3150800FA100026E06D000900F0010086428AF802001F
S3150800FA201FD0002EA26C4FF400604FF480610BD0FB
S3150800FA30B8F1000F08BF0846024212D0606C40F0C9
S3150800FA400100606401200AE0B8F1000F08BF08460B
S3150800FA50024206D0606C40084000606400208AF8C4
S3150800FA600200BDE8F18F2DE9F84F0446DFF870551E
S3150800FA70DFF8686520000CBF28686868C1B20529E8
S3150800FA8005DAFFF723FF7068401C70608CE04000C1
S3150800FA908DF800008A2000FB04FBDFF81C859DF822
S3150800FAA0000008EB0B094844A0F108073878797874
S3150800FAB001EB00201FFA80FAB8786630B870307803
S3150800FAC018B9DFF8140500783070307838700020DF
S3150800FAD03070FFF7E7FA7870DFF8E074386C20F4D6
S3150800FAE0805038642000686E02D17868400504D4D6
S3150800FAF0012C23D17868000520D5FFF7E7FEDFF84B
S3150800FB00E804017891B1002101701AF4E45FDFF886
S3150800FB10DC04016802D00022402005E099F80100C3
S3150800FB20000900F001028F200FF003FF20000CBF30
S3150800FB304FF480604FF40060786030E01AF4E45FB8
S3150800FB402BD1FDF78DFD10B15FEA4A4025D518F88F
S3150800FB500B00802821DA386C99F8011089062644AA
S3150800FB600ED5696E09060FD4A96CC9060CD4396876
S3150800FB7022000CBF80224FF480720840104203D145
S3150800FB80FFF7A4FE0020B070B2789DF80010484632
S3150800FB900FF0F5FF0020B07001E0FFF797FE002C8C
S3150800FBA00CBF012002202861BDE8F18F2DE9F84F2E
S3150800FBB0DFF80844DFF828642068216CDFF830B4E1
S3150800FBC0DFF82484DFF82C94DFF808A401EA00059E
S3150800FBD03AE071B18A22DFF8E013504308444078CE
S3150800FBE0C00606D4DFF80404016800228F200FF04F
S3150800FBF0A0FE280608D50FB9FFF768FE10F004F82E
S3150800FC00802025F080052060E80509D50FB9FFF7A3
S3150800FC105DFE0FF0F9FF4FF4807025F480752060C3
S3150800FC20680407D50FB9FFF751FE4FF4804025F455
S3150800FC3080452060280407D50FB9FFF747FE4FF423
S3150800FC40004025F400452060002D73D000272807C2
S3150800FC5006D50020FFF74DFE082025F00805206090
S3150800FC60E80606D50120FFF744FE102025F010050A
S3150800FC70206005F06000602803D1B06CC0050AD486
S3150800FC8001E0A80605D52020206025F020050020E3
S3150800FC9006E0680606D54020206025F040050120CC
S3150800FCA0FFF7E1FEE80404D54FF4805025F48055AB
S3150800FCB02060E8079DD5012020606D08FCF76AFFE3
S3150800FCC06D0078B14FF448725146012011F06EF874
S3150800FCD0FCF7ADFE40054CBF032001200021FCF7D0
S3150800FCE01CFF012799F8010008B100F095F999F869
S3150800FCF00000002806D0FDF725FC012807D198F852
S3150800FD00000000283FF475AF9BF8000004287FF434
S3150800FD1070AFF068400800F00100002814BF716851
S3150800FD20316811B92168C904F7D5002814BF71686C
S3150800FD3031684EE700202060BDE8F18FDFF8B80291
S3150800FD40006870470020DFF8B41201EB4002401C3F
S3150800FD5093885B1C01EB40019380498809B9082800
S3150800FD60F1D3704738B50446FFF7ECFFA34D1022D0
S3150800FD70291D2046F4F755FD05F11401204600F02B
S3150800FD807BFFFFF7DFFF05F11401281D00F074FF64
S3150800FD90214605F11400BDE838401022F4F741BDAC
S3150800FDA0F8B5974D2E78044601202870300008D102
S3150800FDB00021032010F068FF0F2710F080FF7F1E38
S3150800FDC0FBD104B126702878F2BD10B58C4C217889
S3150800FDD081F00101084303D110F0ADFF0020207027
S3150800FDE010BDF8B5FFF7BEFF0024844E00250F2787
S3150800FDF010F065FF7F1EFBD1311DC0F3801031F86E
S3150800FE001410A8404840311D6D1C21F81400102D0F
S3150800FE10EDD3641C102CE9D3F1BD38B504460EF0B9
S3150800FE2033FE08B10EF023FE10252046FFF7D9FF52
S3150800FE306D1EFAD17149012008700EF025FE08B131
S3150800FE400EF015FE012032BD2DE9F0436B4F044636
S3150800FE50387885B088469146012530B9FFF7A0FF66
S3150800FE6005466846FFF7D9FF054000261FE016F04D
S3150800FE70070015D15FEA090006D00020FFF790FFBA
S3150800FE8005406846FFF7ADFFFFF75CFF1022391DF6
S3150800FE906846F4F7C6FC07F11401684600F0ECFE64
S3150800FEA006F007013DF8110024F81600761C4645B1
S3150800FEB0DDDB6846FFF756FF0020FFF786FF28467A
S3150800FEC005B0BDE8F0830022BEE70321022010F04A
S3150800FED0DBBE4FF6FF71081A292190FBF1F03A3084
S3150800FEE040B2704738B510F0EAFEFFF7F2FF454D0D
S3150800FEF004462878B0B90321032010F0C5FE42480D
S3150800FF00018802237F22684601F064F810F0D7FEC4
S3150800FF10BDF80010401880B2FFF7DBFF153868708F
S3150800FF200120287010F007FF6878201A40B232BD09
S3150800FF3080B50321022010F0A7FEBDE80140D1E7F5
S3150800FF4070B532480078002490B9FFF7F1FF204ECB
S3150800FF500546707848B13078401B40B210F0DCFF97
S3150800FF600B2805DB3570012402E00120357070701E
S3150800FF70204670BD26480078704725490B78984278
S3150800FF8000D1704780B5087040B12249002008604A
S3150800FF900848016821F08001016001BDFDF7E0FB1A
S3150800FFA0FDF7B6FBFDF71FFBBDE80240FDF703BBF7
S3150800FFB0002000408420004078FE002000A0004079
S3150800FFC04C10004016F40020D0100040802000405D
S3150800FFD0C3FF0020DBF8000815F4002074FA00209F
S3150800FFE02020004058F20020B8FA0020C0FA00206D
S3150800FFF0E3F30020BFFF0020382000407CFA0020F1
S31508010000C5FF0020C1FF00203E6B0208E4F3002073
S31508010010C6FF002054100040704700000B000AD0AC
S31508010020012A06D007D3032A02D004D2090200E026
S3150801003009040AF033BC00210170704738B50C4633
S315080100400178154679B10AF036FCB0F5803F38BF1C
S31508010050012106D3000AB0F5803F32BF0221000A0A
S3150801006003212970208031BD10B50446094800EBEB
S31508010070C40082B0827981880068FFF7CFFF0F201C
S315080100808DF800008DF801400221684606F0B7FE9A
S3150801009013BD000078F300200020E5E70120E3E71F
S315080100A010B50446F4F776F904B140000B4909780E
S315080100B0062901DAFF2010BDC1B221B9BDE81040F9
S315080100C00020FEF77DB80648064A00681268BDE8B2
S315080100D01040801AC0B2FEF79ABB00BFF7F30020A2
S315080100E050F80020ACFA002070B511F08BF8AD4C31
S315080100F02046FEF72FFBD8B92046FEF7E0FAFF287F
S31508010100044615D0A8490968085C851EE9B2204647
S31508010110FEF755FA0646E9B22046FEF74EF921469C
S31508010120304600F0F0F82046BDE87040FDF7E6BF1E
S3150801013070BD03460A469AA10420FFE70CB480B5B0
S3150801014002AA00F035F801BC5DF80CFB00B587B0D2
S315080101500FF036FF002105910491024662210391B1
S3150801016000230021029101910120904900910FF28B
S315080101704C21FFF7E3FF8E488179C3788278039192
S3150801018001880291417901910179009142200FF28A
S315080101903821FFF7D3FF07B000BD10B50446214645
S315080101A08048FEF777FA2046BDE81040FDF798BF6C
S315080101B02DE9F04F85B005460C46904606F0CBFD75
S315080101C00026F8B910F0FDFEE0B10120FDF72BFF7E
S315080101D08246BAF1FF0F15D00021FDF71FFF294608
S315080101E001A810F0FEFE05469CB900F087F830B963
S315080101F0504610F071FF10B1042006F0A8FD5046D4
S31508010200FDF77CFF05B0BDE8F08F8DF804200125C8
S31508010210641C20780100E8D0A0F130010A2905D232
S315080102200A2101FB0600A0F13006F1E700F066F8A5
S315080102300028E4D122780025422A01A80ED0442AB2
S315080102401AD0462A25D0572A0DD0622A3AD0662ACC
S315080102502AD06C2A25D0702A26D0D6E758F8040B5E
S315080102608DF80400D3E758F8041B8DF8041002250D
S315080102700904090E4170CBE758F8041B8DF80410E0
S315080102800A0A427004250A0C8270080E8DF80700C6
S31508010290BEE758F8041B5046FEF741F80028B7D0C8
S315080102A0ADE758F8046BB3E7012358F8041B662A2F
S315080102B008BF0223F2B25046FEF710F8002808BF1D
S315080102C00026ECE7384858F8047B006810F80A90CD
S315080102D0FFB2FF2F9CD010F807B00BEB0901C9B28A
S315080102E05046FEF76AF8002889D1CDF800B00023F8
S315080102F03A4649465046FEF799F989E72A4601A939
S315080103005046FEF70AB82DE9F043122885B0804613
S315080103100D4609D03A281DD04FF6FE71884204BF12
S3150801032028460AF0ECFC34E01F48224F0068465D77
S3150801033008E02846FDF76CFE214610F064FF386890
S31508010340455D203EFF2D24D0F6B2212EACBF2024D8
S315080103503446EEE700F05CFB8146FDF779F906467F
S31508010360FEF7A3FC0746FEF79DFC0446FDF768F970
S3150801037002460E480FF258010390CDF81090234615
S315080103800D48006840880290019600973B20FFF7C8
S31508010390D5FE2946404605B0BDE8F04306F0DDBC6A
S315080103A05746000088F3002044F20020B0FA0020E6
S315080103B0206B02084CF2002048FC002042423870AB
S315080103C0424242425742420042424242574200009A
S315080103D057424257573870420000000010B514289A
S315080103E001DBFF2010BD082802D10EF019FB03E03E
S315080103F00E2804D109F074FD78B1802010BD0FF2E2
S315080104001C0151F8201009B9002010BD0C780A28E2
S3150801041002D1FDF7D7FA0443204610BD1C6B02082A
S31508010420106B0208126B0208146B02084767020870
S3150801043000000000116B02081D6B02080000000095
S31508010440156B0208196B02081F6B0208186B020864
S31508010450136B0208000000001B6B0208176B0208E9
S315080104601A6B02081E6B0208166B020810B50AF011
S3150801047045FC10F055FDDFF874432078002844D177
S315080104801020FFF7ABFF000612D50020FFF7A6FFE5
S3150801049000060DD5E078162818BF012803D01A28BA
S315080104A018BF0F2814D100F0E3FC01002FD010BDAE
S315080104B01020FFF793FF0006F5D40020FFF78EFF03
S315080104C00006F0D5E07816281CBF01281A28EAD0BC
S315080104D0E078022818BF1B28E5D0062818BF072888
S315080104E0E1D0082818BF0928DDD00A2818BF032833
S315080104F0D9D0102818BF1128D5D0122818BF13280B
S31508010500D1D0142818BF1528CDD0B02010BD0FF0B2
S3150801051053FD0120FCF71FFF10F078FEF7F714FCD6
S3150801052001F07AFBFFF712FE0FF20C300AF044FADB
S31508010530DFF8BC120870FEF7AFFC10F077FE07F083
S315080105402BFC0EF073FA09F0D1FCFBF733FE4FF4DE
S315080105507041DFF8A0020AF0A1F9002010BD2DE9CB
S31508010560F04705F0C3FB05F045F90020FDF74CF906
S315080105700FF058FADFF880824046FEF7EBF808B923
S3150801058007F074FFDFF874924846FEF7E3F808B9F6
S31508010590F7F746FF0BF046F90BF026FBDFF850623A
S315080105A0DFF85C523078DFF85CA20AF0EEF90CF05D
S315080105B073F80027002409E0FEF7B5FC2868007BDC
S315080105C0042808BF0127FEF7DFFC641C9AF800100F
S315080105D0E0B28842F0D3002F1EBFDFF82C02007864
S315080105E0002805D000F02AF8102808BF09F06DFD8B
S315080105F0FFF77AFD09F083FC0EF024FA074610F09E
S315080106000FFE68B14046FEF7A5F848B14846FEF721
S31508010610A1F828B109F071FC10B130780AF0EDF9AA
S3150801062038460EF015FAFEF7E9FC18B940F2AB1197
S3150801063000F057F8BDE8F0470EF014BBF8B510F016
S31508010640F3FD30B10CF0E0FA00F0010080F001048E
S3150801065000E00124FCF76CFF00280CBF04250025E7
S3150801066010F0DEFD48B16448FEF774F828B1634816
S31508010670FEF770F808B1002000E002206349097806
S3150801068001B12021604A127802B11022604B1B7811
S3150801069003B140235F4E36780EB14FF400765E4FB4
S315080106A03F780FB14FF480672C432043084310432A
S315080106B0184330433843F2BD80B52D224AA10320A1
S315080106C006F046FB10F0B0FD18B94FF4EE7100F0D4
S315080106D008F8FCF7CEFE10F0B9FDBDE8014010F0B0
S315080106E030BC0FF2441000F0D3BA80B510F045FCC7
S315080106F02E223DA1032006F02BFB0FF0B2FAFCF7E0
S315080107002AFE4648007808B110F03AFF44480078B6
S3150801071008B104F0D9FE4348007818B1BDE8014094
S31508010720FAF7E5B901BD38B5044635480068007BD6
S31508010730032818BF04280BD0204602F02AF84FF6E2
S31508010740FF75A84204BF204604F0E1FBA84204D184
S315080107502046BDE8324001F055BB32BD70B50446AE
S315080107604FF6F87084420D4601DB012070BD20006A
S31508010770234E07D13068007D800703D42846FAF74F
S3150801078044F8B8B930684288944205D1011D082257
S315080107902846F4F746F80DE0007B032818BF04281D
S315080107A00AD0204610F01AFFFF2805D0294610F076
S315080107B039FF08B1002070BD2946204601F063FBC8
S315080107C0401E8041C00F70BD0D480068008A704701
S315080107D00B4909680882704709480068408A7047CA
S315080107E007490968488270474200000096070808C9
S315080107F0BAFF002040FE0020B4F3002074F3002065
S3150801080048FC0020FEF3002080F8002070F9002043
S31508010810E4F80020F4FD002004FE0020A8FD0020D5
S315080108205CF90020C4F800207A69676265652D7352
S315080108307461636B2E630000A0FD002023FC010890
S3150801084008FD00208113010884FC0020B5BB0108BE
S31508010850A4F90020E1B2010898FC002075CD010831
S3150801086054FE00209F4C0208A8FC0020BD2C02085B
S3150801087070F900206D9A000880F90020299B00086C
S3150801088080F80020C7A0010868F90020099100082E
S3150801089054F900205D390108C0FC0020DD2101085A
S315080108A038FE00202D3A02085CF90020C9540108D7
S315080108B0A8FD002081150208C4F80020EFAA000847
S315080108C01CFE002015CA0108E4F80020F7BB000841
S315080108D050FC002083F10008F4FD002047AF010811
S315080108E00CFE0020DDAF010804FE002093AF0108CD
S315080108F030FA002071300108D8F90020639A0108FE
S315080109001CFA00202F670108E8FD00209FC0010896
S3150801091024FA00209564010894F900208BA50008A3
S3150801092000FA00205161010848FE0020A15E020874
S3150801093010FD00204F1A010840FE0020ED6602084E
S3150801094034FC0020CFF4000800000000000000007D
S3150801095000210FF22022535C834201D10120704706
S31508010960491CC9B20829F6D30020704700210FF2A5
S315080109700C22535C834201D101207047491CC9B23C
S315080109800829F6D3002070477248006840887047E6
S3150801099070480068001D70476E480068C07E704741
S315080109A06C490968C876704738B56A4D6A4C296832
S315080109B048730228694915D12868007B04281CBF99
S315080109C0084609F061FF2868007B03281EBF042832
S315080109D0204609F059FF28684069C00054BF902491
S315080109E0BC2405E0002008702070912410F02CFC2E
S315080109F02046FAF7A7FE50B92346132254A103202D
S31508010A0006F0A6F92046BDE83240FEF775BC31BDB1
S31508010A1050480068407B00F00F0070474D48006859
S31508010A20407B00F00F00022801D101207047002009
S31508010A30704780B510F0F4FBB8B110F009FCA0B10D
S31508010A404748FDF787FE80B14648FDF783FE60B14A
S31508010A5009F053FA48B1FAF786FE30B9BDE8044001
S31508010A604FF0FF31404809F073BF002002BD38B589
S31508010A700446FFF7D3FF374D28B92868407B03287A
S31508010A8001D0932032BDFFF7A7FE20812868C07BDD
S31508010A90A0722868807BE0722046F9F7E6FC002000
S31508010AA0207304F1140104F1100001F0C8FAE08181
S31508010AB0002032BD70B5274D2E680C46FFF7AEFFF4
S31508010AC020B9707B032801D0932070BDF07B20707C
S31508010AD0002060702868807BA070002070BD10B56A
S31508010AE0002300E05B1CDCB28C4205D210F8014BF6
S31508010AF09442F7D0002010BD012010BD80B5082111
S31508010B00FFF7E1F908B1002002BDA52002BD114891
S31508010B100068407B01281CBF3128332801D10120F8
S31508010B2070470020704710B50446FEF7C2F8010069
S31508010B3002D108490968CC7310BD0648006890F9C6
S31508010B400F00704703480068807B7047000000006B
S31508010B504242000048FC0020A8FD00205CF9002064
S31508010B60B4F3002074F30020380801080120704707
S31508010B70002070470001020304051D200203040535
S31508010B8008090A0B38207047382070473820704703
S31508010B903820704738B51A4A118B090A012923D119
S31508010BA0012840F202211BD1508AB0F5837F18DB58
S31508010BB0FEF778F8A0F10B040423E2B20D2168468A
S31508010BC000F09AF90F4D9DF8030028720E48006847
S31508010BD0A880AC71FEF769F8E87140F2062001E0D9
S31508010BE010B908460FF01AFA012032BD0448008BE5
S31508010BF0000A012808BF10F0E7BD4FF6FF707047DD
S31508010C0000000008000000209020004002681749F3
S31508010C1012BACA60426812BA8A60826812BA4A600F
S31508010C20C06800BA08607047704710B5104980223D
S31508010C300A6006230F4A136007230B6013689B0794
S31508010C40FCD5002350F823405B1C24BA042B8C6284
S31508010C50F8D313685B07FCD500220B6B1BBA40F867
S31508010C602230521C042AF8D310BD00003830004047
S31508010C700030004010A0004010B504460846FFF7B2
S31508010C80C5FF2046BDE81040CFE7000042DE7047A9
S31508010C9038B504460D460DF0EAFE0DF0D3FE294699
S31508010CA02046FFF746FA29462046BDE83440EDE7D7
S31508010CB066482DE9F047664D01682E1D4FF42068F8
S31508010CC07165016AB16563490968F165416A316609
S31508010CD0816A7166C16AB166016BF166806B3067BC
S31508010CE096F8340040074CBFF46BB46B0FF029FA41
S31508010CF00022F2648442584A014624BFA2F1200A1E
S31508010D00A2452746316505F18C03DFF850C1DFF8A6
S31508010D1050E118D3A0693064E4697464746DC4F34E
S31508010D200804062C13D1704511D360450FD20088EB
S31508010D304DF64264A0420AD13068586040F2017803
S31508010D407068986003E0002737647764074645486A
S31508010D50814202D2014600E0091D0846904203D2AB
S31508010D600C68B4F1CD3FF7D03F49081AB0640021A9
S31508010D70002005EB8004401C0628A167F9D3002052
S31508010D8003E0C0B205EB8004A167974222D252F86C
S31508010D90041D7145F9D36145F7D2CC07F5D5002471
S31508010DA005EB8409D9F87890894502D0641C062C8C
S31508010DB0F6D3062CE9D1002814BF401E0520E0E72A
S31508010DC0716F002405EB8402641CD76F9767052CA5
S31508010DD0F8D319600146481EC9B20029F0D1706DD1
S31508010DE0C0F3080002280AD0032815D0042816D013
S31508010DF0052817D0062818D00C281CD01EE01B4839
S31508010E000168890748BF40F602181CD40068C00764
S31508010E1019D540F2025816E040F6012813E040F6CB
S31508010E20022810E040F603280DE0B8F5206F0AD134
S31508010E3040F6042807E040F6052804E018B12428FE
S31508010E4038BF40F607284046BDE8F08704ED00E0C4
S31508010E500000002000E300E000F200200467020819
S31508010E60904100089800002000F200201CA00040D4
S31508010E7030B50FF23811DFF828510A6883B001A896
S31508010E800024026001202870002010F0A3FC30B174
S31508010E90002010F09FFC10B12C7049203EBDDFF8F0
S31508010EA00401018802237F220DF1020000F024F8D3
S31508010EB002237F220021684600F01EF8002001A9BE
S31508010EC0BDF8022031F81010914208BF0124401CD8
S31508010ED00228F4D3BDF8000024B1B0F57F7F07D10D
S31508010EE000203EBDB0F57F7F14BF0420062000E038
S31508010EF00720002129703EBD10B5FF2908DCDFF85F
S31508010F00A040247844B1BDE81040C9B211F090B8A8
S31508010F10BDE8104000F05EB810BD10B5FF2908DC29
S31508010F20DFF87C4024786CB1BDE81040C9B211F0F5
S31508010F30B3B87F2A08BF0022DFF86C40214302FBC1
S31508010F400311016010BD2DE9F0410546FF2D0E463E
S31508010F50174698460FF2580013DCDFF8444021780B
S31508010F60A1B1617811B1BF21FFF792FE012060702E
S31508010F70434632463946E8B211F0BEFB002060709E
S31508010F8004E0BDE8F041CA21FFF782BEBDE8F08161
S31508010F9003490978002918BF11F0DABC7047000027
S31508010FA0A4FF0020406B020800000808FE01FD02AC
S31508010FB0746F6B656E2E630038B514467F2C08BFB7
S31508010FC00024314D29431A4604FB0311BDE8384074
S31508010FD0F3F727BC70B51E00044615461CD04BF224
S31508010FE03460814212D1092E28BF082633467F2252
S31508010FF040F612012046FFF7DFFF32460FF2A8013D
S315080110002046F3F758FC38B940F2A27133462A460E
S315080110102046BDE87040CFE770BD2DE9F0410C468A
S3150801102019490FF2780841EA0006C007154602D5A4
S315080110306C2100F02FF8E80702D56D2100F02AF897
S315080110401248864204D3A819401E1149884202D380
S315080110506E2100F01FF8002706E0F05DFF2802D098
S31508011060752100F017F87F1CAF42F6D36A082146AE
S31508011070304611F0B2FD28B14046BDE8F0417B216A
S31508011080FFF706BEBDE8F081000008080008080859
S31508011090001008084046FFF7FBBD00006D66672D86
S315080110A0746F6B656E2E6300FFFFFFFFFFFFFFFF87
S315080110B038B5DFF8B049DFF8B0590020E060207490
S315080110C0FF2060760BF0DBF928700EF007FC012093
S315080110D06076207C40F002002074281D09F0D4FBBC
S315080110E0002032BD2DE9FE4F81460D46144609F012
S315080110F0FAFC8DF80600DFF8747938689DF8061051
S3150801110010F80900DFF85C89401A8DF80500484691
S3150801111009F008FD00F00C0004280CBF0126002682
S315080111204846FDF721F88DF80400FF280EBF4FF059
S31508011130000B396811F800B0002002908246FF20A2
S3150801114088F818006F1CDFF828090068007B032857
S3150801115018BF042802D10BF06DFA31E0484609F0B0
S31508011160E1FC0C21084218D15CB3484609F0C5FCDC
S31508011170FBF720FC82464FF440411AEA010F07D0DB
S315080111805FEA8A5004D5DFF8EC080AF09EFF17E0FB
S31508011190DFF8DC080068C07B12E094B1484609F024
S315080111A013FDB0F5406F484604D109F022FD01F060
S315080111B0F0FA01E009F02CFD0AF070FB0BF009F8D2
S315080111C0207030001DD0484609F0BEFC04464FF693
S315080111D0FF7048F6410A844218BF48F6610AFDF7CE
S315080111E0F4FF0146F81CFBF7ECFB2146781DFBF7DB
S315080111F0E8FBFDF7E5FF0146F81DFBF7E2FB0937BA
S315080112000297002000909DF805309DF80620494672
S315080112103846FDF712F89DF80500BBF1000F0744A3
S3150801122009D0002000905B469DF80410002238463C
S31508011230FDF703F85F4476B1484609F05EFC40784D
S3150801124080072FD5029868B3391A4A46C9B206F0FB
S31508011250FEFF074426E0A878697801EB002080B2F2
S31508011260C10901F0010181F001064FF67F7101EA1A
S31508011270000A0AF0070003280CD1694648460AF015
S31508011280A3FE681C09F084FC9DF800100818284480
S31508011290407805E0DFF8E0070078092802D1072041
S315080112A088F8180048460AF003FC08B14AF0100A03
S315080112B05146681CFBF785FB1AF0070F05D1DFF8C5
S315080112C0A8070178491C017005E0DFF8A407006842
S315080112D0017E491C0176781BE970401C2870781B31
S315080112E07F2802DBE92100F02FFB3046BDE8FE8F9F
S315080112F070B5DFF870670446F0680D4608B100203E
S3150801130070BD0EF0A6FC48B1307C002804BF307AC7
S31508011310002803D115B1A047012070BD307CF460C7
S3150801132040F004003074DFF8540709F0ADFA0220E2
S3150801133070BD0121DCE790E038B50446DFF82407E3
S31508011340007E0D46811F012903D821460AF0AEF811
S3150801135078B9284609F0EBFBFDF7E5FD2146284655
S315080113600AF0CEFB18B92146284607F0C0FCFDF75E
S315080113700BFE2846FCF7C2FEBDE8314009F0C7BCA2
S31508011380DFF8E416002008716BE080B500F047FB32
S3150801139070B1DFF8D4060079002801BFDFF8C4066A
S315080113A0017C0F22114203D1007A08B9012002BD3E
S315080113B0002002BDF8B50446DFF8C4060078002807
S315080113C002BFDFF8A066F06800280D4626D1DFF8CF
S315080113D0A80600780B2818BF022D1FD10DF032FB85
S315080113E0327A082A074617DA012D08BFB45404D001
S315080113F03146701CF3F715FA3470307A401C307296
S3150801140038460DF025FB2046FCF76AFEDFF86C0628
S3150801141009F03AFA0120F2BD0DF01AFB0020F2BDDF
S3150801142038B504460DF00EFB0546DFF83806017A95
S3150801143069B101782170017A4A1E0272411CD2B241
S31508011440F3F7EFF928460DF003FB012032BD2846D4
S315080114500DF0FEFA002032BD00BFDFF8200609F0C4
S3150801146013BA70B582B00EF0F4FB002800F095802F
S31508011470DFF8F045207C800706D5607E0EF0EFFB8D
S31508011480207C00F0FD002074207CC00702D4FDF703
S31508011490FDFFA0B1207C00F0FE002074FDF7DCFF03
S315080114A0FDF741FD06F02DF98DF8000009F03FFB27
S315080114B0FDF746FE002850D00420207652E0684603
S315080114C0FFF7AEFF0028DFF8B05553D09DF80000AE
S315080114D009F028FB012400F00C000C2824D19DF802
S315080114E0000009F00AFB06469DF800000DF101010E
S315080114F00AF06AFD304609F04BFB9DF80110081801
S31508011500811D9DF80000C9B2FCF79EFF29780729BD
S3150801151002D1062808D106E001291CBF0529092997
S3150801152002D1072800D100249DF8000009F0FAFA33
S3150801153000F00C00082804D12878092814BF0328CC
S3150801154000249DF8000009F0F2FA0546FDF7EBFCC8
S315080115501CB12846FDF7F4FD20B99DF800000EF0F0
S31508011560B9FA04E09DF800104120FFF7E5FEFDF702
S315080115700BFD73BD28780B2802D111F0B7FB60B9B2
S31508011580207C410707D5E168002200F0FB00E260F4
S315080115902074884773BDFDF7F4FD73BD80B5FDF76B
S315080115A03FFFDFF8C004017C41F001010174DFF857
S315080115B0CC04BDE8024009F067B9DFF8A804017C4C
S315080115C001F0FE01017470472DE9F04FDFF89C9494
S315080115D0A5B0044602A80021C0E9001102AE2046C2
S315080115E0FCF716FD082305788178407800EB01277A
S315080115F0002000902146D9F80000005DA0F10802FC
S31508011600D2B202A8FCF719FE707800F00F00FDF7B8
S315080116108AFCDFF86C040078BFB2A84620B3DFF86D
S315080116206474386800281ED0F078FBF7A2FC41469E
S31508011630FBF7A6FC804696F9026004A880210AF009
S315080116402FFF002000906B1CDBB20022214604A864
S31508011650FCF7F3FDFDF7DDFC3B683246414604A87D
S315080116609847FDF791FCA8E007F007000228FAD091
S31508011670FF208DF804002046FCF7CAFC00F1010A98
S31508011680504609F085FA8346A5EB0B00851E6DB217
S31508011690002DE8D401208DF800006B460122214671
S315080116A0002009F02EFB9DF8000000281DD0B80582
S315080116B006D507F00700032818BF17F0070F10D142
S315080116C001A9504602F050FC002876D107F0070020
S315080116D001280BD19DF804000AEB0B0107F096FED1
S315080116E020B99DF80400FCF709FD66E09DF80400A1
S315080116F0D9F800100F5CDFF8901309680C54D9F873
S315080117000000005D00F120019DF80400C9B2FCF754
S3150801171085FC9DF8040009F005FA00F00C00042880
S315080117201CBF5D444FF0000B68B280B200900BF10C
S3150801173001039DF804009BB222463946FCF776FF61
S31508011740E9199DF80400C9B2FCF737FECF4970784C
S31508011750097800F00F00884203DB4FF4257100F089
S31508011760F3F89DF8040009F0D8F97178C0F30D0073
S3150801177040EA81319DF8040089B209F0D0F9F07880
S31508011780FBF7F7FB4146FBF7FBFB02469DF8040016
S31508011790032109F09BF9B2789DF80400042109F0A8
S315080117A095F99DF808209DF80400052109F08EF9A0
S315080117B09DF80440204600F008F82046FCF79EFCF8
S315080117C0FDF7E2FB25B0BDE8F08F2DE9F8430446A5
S315080117D0FF2C03D140F2BD2100F0B6F800F0B9F8AC
S315080117E000F0B6F800F00C0008284DD005F00C0002
S315080117F00C287CD1204609F080F90646FBF7DAF871
S315080118006946804620460AF0DFFB002808F44C4565
S315080118103FD0204609F067F90746304609F0B8F97E
S315080118209DF80010C0190918C9B22046FCF70CFE2C
S3150801183007464FF4406018EA000F4FF6FF7906D0C5
S31508011840F01CFBF7B7F8484508BF45F0400508F412
S315080118504060B0F5006F06D1701DFBF7ABF848453F
S3150801186008BF45F010059DF80000002818BF072F8E
S3150801187068D1012F4CF6500028D0022F29D0042F09
S3150801188008D0062F31D0072F31D0082F28D07C2F2A
S3150801189022D057E0B5F5484F18BFB5F5084F05D022
S315080118A0B5F54C4F18BFB5F50C4F4BD120460AF08C
S315080118B085F8E0B1280403D5204609F0DDF981460B
S315080118C0002249460220FDF72CFD3BE0B5F5484FBD
S315080118D00DD0B5F54C4F06E0B5F54C4F07D001E0F4
S315080118E04CF64040854202D02CE085422AD120465A
S315080118F009F013F900F02CF800F00C00082816D0AE
S31508011900A80614D54FF6DF7000EA0501204609F04E
S3150801191006F9204609F0E7F80546204609F0EDF8EC
S3150801192009F036F94119C9B22046FCF746FD2146A8
S315080119305748FCF7AFFE2046FCF7D2FB554800781E
S3150801194009F09AF8BDE8F1830FF28010FFF7A0B904
S315080119500546204609F0E6B838B50C460246002188
S31508011960082009F090F90546FF2D01D1012032BD65
S315080119702146FFF71FFD04462846FCF7BFFB84F006
S31508011980010032BD0121E7E7364A53690BB17020E0
S315080119907047506108460EF0BCB838B5314C6569D8
S315080119A01DB940F27E31FFF7CFFF00206061A847DD
S315080119B031BD2C494A69824203D1002048610EF0A3
S315080119C0B3B870474FF6FF71884200D1704780B5AA
S315080119D001463148FFF7D8FF38B1BDE804404FF456
S315080119E064710FF2E800FFF753B901BD10B51D4C3C
S315080119F0627E90420FD060760EF02BF920B1607EA0
S31508011A00BDE810400EF02BB9207C40F0020020748E
S31508011A10BDE8104021E510BD1248407E704780B5EB
S31508011A20154800780B2801D0002002BD0EF011F9E7
S31508011A3000B1012002BD80B5FFF7F1FF30B1FEF715
S31508011A407FFA18B1BDE8014011F048BA01BD80B569
S31508011A50FFF7F1FFBDE804404FF4A0510F4808F025
S31508011A601DBF0000C8FC002004FD002044F2002030
S31508011A7048FC002088F9002023F4002008FD0020F6
S31508011A80B9FA002000FD00204CF20020FEF30020E8
S31508011A90B4F30020BAFF0020E1B3010810FD0020CD
S31508011AA010B5FAF7C4FF0446FBF774F860B104F4FD
S31508011AB04030B0F5403F01D1022010BDB0F5003FDE
S31508011AC001D1012010BD002010BD000075707065A0
S31508011AD0722D6D61632E63004B49097881B100212E
S31508011AE000E0491C494B1B78CAB29A4208D2484AB7
S31508011AF01268C9B232F821208242F2D108467047EB
S31508011B00FF2070472DE9F04104463F48067830002A
S31508011B100D4608BFFF2044D02046FFF7DDFF3D4AAA
S31508011B203B491378394FFF280ED13878B04202D293
S31508011B30461C3E7008E0184600E030460E6806EB83
S31508011B408006F678FF2EF8D198421DD04FF0000C8A
S31508011B5001E00CF1010C97F800E05FFA8CF6764586
S31508011B600DD20E685FFA8CFC06EB8C0E9EF803808C
S31508011B708045EED106EB8006F6788EF803600E688E
S31508011B8006EB8006F3701070FF230A6822F82040DE
S31508011B9002EB8002FF2D937003D0096801EB8501E2
S31508011BA08870BDE8F08170B505460846164909787A
S31508011BB001B3FFF791FF0446FF2C1BD0FF212846EE
S31508011BC0FFF7A0FF0546FF2D12D029460DE0104864
S31508011BD0006800EB820330F822009E78FFF792FF37
S31508011BE0A842214608BFFF2534462246FF2AEED1E0
S31508011BF0284670BDFF2070BD00BF044800787047B5
S31508011C00014800787047000099FF0020DEFF002098
S31508011C1098F2002039F40020DFF8D80300780C2167
S31508011C2001FB00F2DFF8D0030068FF21F2F73CBEA2
S31508011C3070B50C46DFF8BC1309788842054601D30E
S31508011C406A2070BD08F0C7FD08B1762070BD204630
S31508011C50FEF769FD4FF6FF71884208BF4FF6FD7022
S31508011C600C21DFF894634D4331684853204600F050
S31508011C7070F9316829448872FDF7AAF9042804DB4A
S31508011C802D210FF29830FFF703F8FDF7A1F9316816
S31508011C9029448A7A42EA4000887208223068284430
S31508011CA02146801CF2F7BDFD002070BD38B5DFF86E
S31508011CB044331B78984224D20C22CF4D02FB00F400
S31508011CC02A6811534FF6FF72914208BF08F085FD45
S31508011CD0FDF77EF9C9490978884204D347210FF2ED
S31508011CE03C30FEF7D5FF28682044817A01F0F101DE
S31508011CF08172FDF76DF9296821448A7A42EA400022
S31508011D00887231BD10B5BB4A12780346934208461C
S31508011D100AD2B94909680C246343BDE8104019443D
S31508011D200822891CF2F77DBDBDE810400822002172
S31508011D30F2F7BABDAF4A1278904205D2AE490968A0
S31508011D400C225043085A70474FF6FF707047F8B592
S31508011D5007460C46A74DA84E00E00C37297830688F
S31508011D600C2251430844874214D238884FF6FF7132
S31508011D708842F2D008222146B81CF2F79CFD0028B9
S31508011D80EBD1FDF725F9B97AC1F342018142E4D1D4
S31508011D903846F2BD0020F2BDF8B50446F5F7CCFD8C
S31508011DA09548944F056800260EE02888A04209D177
S31508011DB0FDF70EF9A97AC1F34201814204BF4FF634
S31508011DC0FD7028800C35761C3978F0B28842ECD340
S31508011DD0F1BD70B504460D462846FFF7DDFF2946D5
S31508011DE02046F5F7CAFD84480068214605E0358096
S31508011DF008F0C4F8214606F10C00FFF7A8FF060013
S31508011E00F5D170BD7FB5044608227D49F2F753FD29
S31508011E1010B9FEF7D9FC34E07A4D2868011D08226D
S31508011E202046F2F748FD10B92868408829E00020C5
S31508011E3000904FF6FF750023012221462846F5F743
S31508011E40DFFEFF284FF6FC7605D06F49096831F8A1
S31508011E501000B04215DB01A802F0E0F950B9BDF84F
S31508011E600400400606D5082221460DF10600F2F7C0
S31508011E7022FD30B100F087F810B10088B04200DBCE
S31508011E80284604B070BD2DE9FF4104468846FEF791
S31508011E909BFC844202D1082259493EE0594E3068DA
S31508011EA04288944209D100220821001DFEF717FE37
S31508011EB018B930680822011D2FE000200090002380
S31508011EC0012200212046F5F79BFEFF280AD0694624
S31508011ED0F5F7E3FD30B908220DF105014046F2F7A1
S31508011EE0A0FC1DE04448434E0768002501E00C3775
S31508011EF06D1C3178E8B2884214D238884FF6FC71E5
S31508011F008842F4DAA042F2D1FDF762F8B97AC1F350
S31508011F1042018142EBD10822B91C4046F2F781FC05
S31508011F20012000E0002004B0BDE8F08110B50446A8
S31508011F30002000F027FBFF2808D03449096831F84A
S31508011F4010000006800E00F0010010BD04F001002B
S31508011F5010BD38B5044600F016F8002508B1857A93
S31508011F600CE000900023012221464FF6FF70F5F799
S31508011F7047FEFF2802D0264909680D5C21462846F6
S31508011F80BDE83440D2E71C4800682146DFE638B58B
S31508011F9004460D46F5F73AFD17480068214602E062
S31508011FA0857221460C30FFF7D2FE0028F8D131BDE3
S31508011FB0F8B5044621460020F5F7F2FDFF2815D1AC
S31508011FC01448154D0668002701E0361D7F1C29783F
S31508011FD0F8B288420CD23088A042F6D1FCF7F8FF55
S31508011FE0F1788142F1D1B0780028EED00120F2BD16
S31508011FF00020F2BD04F40020A8F20020FEF3002020
S31508012000B0FA002048FC00209CF2002058F200207B
S31508012010A0F2002074F20020FCF3002061646472CF
S315080120206573732D7461626C652E6300DFF848135E
S31508012030002008714FF6FF70D0490880704730B507
S3150801204083B004460D460823092269460120FAF79A
S31508012050A8FE14B19DF8060020700DB100982860FD
S31508012060BDF804003EBD80B500216846FFF7E7FFCD
S315080120709DF8000002BD10B582B0044669460020ED
S31508012080FFF7DDFF009A0146204600F002F82046D8
S3150801209016BD00B583B08DF80600ADF804100092A0
S315080120A00823092269460020FAF77BFE07BD2DE9B8
S315080120B0F04786B0804602A80021002200230EC000
S315080120C0404601F09EFA0546AD48006810F80890AA
S315080120D0002000900A232A46414602A8FCF7ADF8DB
S315080120E09DF8080005F10A0409280CBF01250025F9
S315080120F09DF80900E021084268D16846F8F7B5F964
S3150801210008220DF10A016846F2F7D5FB00285DD1D0
S31508012110002D4ED000F01AF9002857D0974D28887F
S315080121204FF6FF7A50451CBF4FF6FE7188424DD1D6
S31508012130914F94493878001D3870C0B20978491E04
S315080121408900814242DA002038700AF098F928801D
S31508012150264607E031464046FCF731FA2988884287
S31508012160F3D0B61CF6B2A9F101008642F2DB288843
S31508012170010018BF5045E8D0FEF72EFB2988814299
S31508012180E3D0FFF770FF401CC0B2FFF774FF0146AA
S315080121902A880A2000F051F840B14FF47A71381DA7
S315080121A008F07CFB0C20FDF785F80FE0A5F800A0E8
S315080121B00CE0E1B24046FCF747F9FFF75CFF611C0A
S315080121C0C9B24046FCF7FBF900F080F87BE06A48A3
S315080121D001780A001CBF491E0170704738B5664967
S315080121E0002008710C20FDF774F8FCF79CFE664880
S315080121F00068407B022818BF03281AD15F4C208843
S315080122004FF6FE724FF6FF7590420CBF2580A84225
S315080122100FD0FEF7E5FA258000210020F8F73EF8F1
S315080122209A23132253A1032004F092FD9A20FDF765
S3150801223063F8BDE83140FCF7A7BE2DE9F04705462E
S315080122400026092D0C460CBF0127002786B09146AA
S3150801225000210020FFF7F3FE8DF80850804602ADF5
S31508012260012068700DF1120A0DF10A00F8F7FDF860
S3150801227017B9AC720DF1130A49465046FAF7A1FB94
S315080122800AF102000FB94FF6FF7802A9431A01961F
S315080122900096DBB202AA6421404601F08CF9044695
S315080122A0FF2C0FD03FB100F051F820B12046FFF7BF
S315080122B0FEFE012603E0204605F0BDFD0646204642
S315080122C0FBF71CFF304606B0BDE8F08738B5044673
S315080122D04FF6FF75AC4216D0FEF77EFA844212D04D
S315080122E026480188A9421CBF4FF6FE7291420AD1BF
S315080122F004804FF47A71254808F0D0FABDE83240D7
S315080123000C20FCF7D7BF31BD1F480068007B0428A5
S3150801231000D1704738B5194C20884FF6FF718842AD
S3150801232013D1FEF759FA05464FF47041174808F0DC
S31508012330B5FA0C20FCF7BEFF2A464FF6FE70208040
S315080123400021BDE83840092077E731BD10B50E48B0
S315080123500068007B04280AD0FEF736FA04460021F5
S315080123600020FFF76CFE844201D1012010BD002038
S3150801237010BD000042420000BCFC0020F0F3002022
S3150801238044F200200EF4002048FC0020C0FC002086
S315080123902DE9FF470024DFF85C5606E0FCF7C3FD8C
S315080123A009F050FAFCF7F0FD641C2978E0B288427E
S315080123B0F4D3DFF84446DFF844562078DFF8409630
S315080123C0DFF8408600F040F80021F2F76DFA22782E
S315080123D028680921F2F768FA002601AF2EE00B23D7
S315080123E0F2B2172101A8FEF787FD787A397A01EB4F
S315080123F00020D8F80010F6B2B24621F81A0081B2C8
S3150801240000291EBF80B24FF6FF71884204D0B97AFF
S315080124100022304600F01DF8012332461A2168468B
S31508012420FEF76AFD2968BDF8000001F80A006FF099
S315080124307F00D9F8001001F80A00761C2178F0B25D
S315080124408842CCD3BDE8FF874200DFF8BC050068A7
S315080124507047DFF8B4351B6809074CBF0021042112
S3150801246041F4805141F0020123F810100021DFF8F0
S315080124709C351B6843F820101102DFF89425126871
S3150801248022F81010704710B5DFF888150C7821006E
S3150801249008BF012409F002FA0146FF290DD0DFF829
S315080124A07005026832F8113018001ABFA3EB131031
S315080124B000EB0410200222F8110010BD70B5DFF8F8
S315080124C0484524680022002302E024F813505B1CC7
S315080124D0DFF824552D78AB4209DA34F813506E0724
S315080124E0F5D501220E0014BF05438543EDE71046D5
S315080124F070BD002100E0491CDFF8FC341B78CAB224
S315080125009A420AD2DFF800251268C9B232F81120B8
S3150801251002408242EFD101207047002070472DE921
S31508012520FE4306460C461546DFF8D884DFF8C894FC
S3150801253001E0EFB1761C99F80010F0B288421ED27C
S31508012540D8F80000F6B230F816700B23324600F0C0
S315080125509EF9002CEDD0002F1CBF4FF6FF70874265
S31508012560E8D0082269462046F2F7A5F90028E1D104
S315080125709DF80A0000F0EF002870304600E0FF20C1
S31508012580BDE8FE8380B56A46FFF7C9FF02BDFEB501
S3150801259004460D4616461F46082231466846F2F796
S315080125A040F900F0B8F98DF80A703946089A2046BC
S315080125B0FFF74FFFFFF749FF30F8141041F4804148
S315080125C020F8141000F0ADF9DFF8300402680F2185
S315080125D0115501230068021921461A20FEF7B3FC9A
S315080125E000F0D2F920F814500022DFF82C04006814
S315080125F02C3041680078201841F82020304609F02F
S3150801260064FDDFF8FC1309680855304609F083FDB7
S315080126100120FEBD2DE9FC4F85B080468A4601AAF8
S3150801262041460020FFF77BFF0546FF2D4FF0000BC3
S31508012630DFF8E463DFF8CC7313D09DF804009DF846
S315080126401410884202BF396831F815108A4508D036
S3150801265002F0BEFF08B900F083F8284600F097F9A2
S31508012660FF254FF6FF79CA4512D002A95046FEF753
S3150801267075F8C0B90022082102A8FEF730FA90B908
S31508012680082202A94046F2F716F960B1CA460AE0DD
S31508012690FF2D08D002F09CFF08B900F061F8284622
S315080126A000F075F9FF259DF814108907504604D5E1
S315080126B0484552D103F0D3FB4FE0FF2D09D04046E0
S315080126C009F003FDCE4909684855404609F023FD3E
S315080126D022E0D24CD24922780978914215D0484550
S315080126E002D103F0BCFB824600210020FFF74AFF16
S315080126F00546FF2D09D010989DF8143000904246E2
S3150801270051462846FFF743FF08B9484625E0207891
S31508012710401C2070F7F729FA9DF81810284600F092
S31508012720BAF8FCF776FCFEF74FF80146386830F838
S3150801273015000122F6F788F902F04AFF40B9306818
S315080127402C305FFA8BF241680078281841F820206E
S31508012750FCF71AFC386830F8150007B0BDE8F08FA9
S3150801276030682C3041680078281851F820B0704735
S31508012770A549096800204EF6FF7305E031F81020D7
S315080127801A4021F81020401C9B4A12789042F5DB2A
S31508012790704780B501460020FFF7F4FEFF2802D1F5
S315080127A04FF6FF7002BDBDE802409749096811F866
S315080127B01010890704D59349096831F81000704744
S315080127C04FF6FF707047FEB5954A127890420C464F
S315080127D006D28D4E3168054611F81510890701D4C0
S315080127E09320FEBD00F051F89DF80A7000F048F8F4
S315080127F0B80748BF022003D438074CBF032004207A
S31508012800207200F0C1F830F8150060817C48006834
S31508012810405D6073306810F8150000F00100207300
S3150801282076480068405DA0730020FEBD80B509F0BA
S3150801283035F8FF2808D07449096831F810000006F0
S31508012840800E00F0010002BD002002BD80B509F02E
S3150801285025F8FF2801D0012002BD002002BD10B5D0
S3150801286084B00C4609F01AF80246FF2A05D000F092
S315080128700DF800F005F8012000E0002004B010BDB5
S31508012880082269462046F1F7CCBF02460B231721D9
S315080128906846FEF731BB7FB501F0010504462800FD
S315080128A026460FD069462046FFF78DFF50B9FFF738
S315080128B0CCFD30F816000006800E00F001016846CE
S315080128C0FFF765FB204603F067F900953346232297
S315080128D047A1032004F03CFAFCF79BFB2946204656
S315080128E0F4F779F9FCF750FB7FBDFEB5454F044671
S315080128F03868264630F8160088420D460AD00B235A
S315080129002246FFF7C4FF00F006F800F00AF8386817
S3150801291020F81650F7BD280A8DF809008DF80850D9
S3150801292070470B236A4621461720FEF70CBB38B5BC
S31508012930044600F029F8254630F8150018B337483B
S315080129400178491E0170F7F710F900212046FFF7B3
S31508012950CCFF2D490968002021F815006FF07F008A
S3150801296027490968485500202949096821F81500A9
S315080129702046F7F74BFEBDE8384000224FF6FF71B7
S315080129801120FCF7CEBC31BD1E48006870472449AA
S3150801299010B50978884204460CD2FFF7F5FF30F8DE
S315080129A0140038B100212046FFF775FF2046BDE81F
S315080129B01040BCE710BD38B500240F4D04E00021D6
S315080129C0E0B2FFF792FF641C2878E1B28142F6D3A0
S315080129D0124A00211170FFF737FDF1F765FF2878D4
S315080129E04200BDE838400A4800680021F1F75CBF9B
S315080129F042424200FEF30020F9F30020A4F200202F
S31508012A0060F2002054F2002058F200205CF2002007
S31508012A1064F20020E1FD002048FC0020D3FF0020DD
S31508012A2009F40020008F8E8C800000002DE9F24FFA
S31508012A30804690B015469DF840001E4605A900F04F
S31508012A4079F90746DFF8C098DFF8C0089DF8141031
S31508012A500068405CD9F80010B1F806A04988ADF8BD
S31508012A600810C41BB1F5004FE4B201DAB84204DA22
S31508012A70DFF89C18002008708CE0300018BF4FF46E
S31508012A80A07A152CB4BF631C1623002000907A1E69
S31508012A909DF81410DBB2D2B206A8FBF7CEFBBDF83F
S31508012AA008009DF818B040F400415B4652460CA850
S31508012AB000F076FB012D14BF0120002001900DF1D5
S31508012AC0190000903346BDF808104246504600F0FA
S31508012AD065F808B101205EE0002D5BD1D9F8000048
S31508012AE04088342845D1092C54D19DF82100C825A0
S31508012AF041064CBF8026002600060DF1190048BF85
S31508012B0046F0200600220821FDF7E9FF002738B91B
S31508012B100822DFF800180DF11900F1F7CCFE78B993
S31508012B20DFF8F4070068017B012933D04269D20135
S31508012B3004D5032911DB408880450ED101270BE016
S31508012B400DF11900FFF725FE4FF6FF71884204D0F3
S31508012B50314601F071F800B900252A46CCA1404654
S31508012B6000F02CFBB7B103224146304600F020FFA6
S31508012B7010E0CDF810B0CDF80CA002940DF11900B3
S31508012B8001909DF814309DF8401000973246404652
S31508012B9010F00CFA002011B0BDE8F08F2DE9F14FC5
S31508012BA090460FF29072DFF86CA7994686B0D2E983
S31508012BB0003203A80026C0E90032109F08000DF173
S31508012BC00C0B1ED1082251463846F1F774FEBB4656
S31508012BD007F1080558B9FDF7F7FD04462F7811984E
S31508012BE006EA090128BB481E8041C00F1EE0384687
S31508012BF0FFF7CFFD04464FF6FF708442EED101265A
S31508012C00ECE7012911D17878397801EB0024BD1C4C
S31508012C10FDF7DAFDA7B2874208BFD346DED003A97E
S31508012C20A0B2FFF71CFE0028E8E7002007B0BDE8C0
S31508012C30F08F61BBB9F1000F01D0022F27DA012FFE
S31508012C4008BF002E02D1FDF7BFFD03E0002E08BF25
S31508012C50012F03D1FDF7B8FD0446D34695F801A027
S31508012C600EB1812203E0022FB4BF00228022002088
S31508012C70CDF808A00190A4B200945B460FF2BC619E
S31508012C800120FBF739FC8346BBF1FF0F01D1012077
S31508012C90CCE716B9022F00DA67B90C215846FBF7BB
S31508012CA08CFB5A460021404600F088FA5846FBF745
S31508012CB025FAECE70025DFF85476DFF86446DFF8F5
S31508012CC0649604E0AAF101005FFA80FA6D1C99F88E
S31508012CD00010E8B2884223D22068EDB210F8150038
S31508012CE08007F3D5BAF1000FECD12846FFF75DFD51
S31508012CF08DF800000222000A8DF80100694658463F
S31508012D00FBF70BFB0028D1D1BDF81800F5F739FD03
S31508012D10396811F80B10891C761C8842F6B2D5DA87
S31508012D20300008BF0D21B9D032460C215846FBF7B1
S31508012D3090FBB6E738B504460D46FBF715FAFF28AA
S31508012D4005D02046FBF710FA2870012004E02C7004
S31508012D50204600F0D9FC401CC0B232BD2DE9F04135
S31508012D6088B005460E46174601A93046FFF7E2FF29
S31508012D70044602A80021002200230EC0DFF88C05B4
S31508012D809DF804100068405C9DF804100092031B2E
S31508012D90DBB20B2BA8BF0B23224602A8FBF74DFA81
S31508012DA0B8464FF400403F1A012F07D91F3F3ED0BE
S31508012DB0BF1E012F2FD9193F5FD067E09DF8080084
S31508012DC0002863D19DF812009DF8111001EB00242B
S31508012DD008220DF1090105A8F1F723FD012205A92C
S31508012DE0A0B203F098F80646A0B2A8424ED0012137
S31508012DF005A8FFF7CCF848F20100804508BF002E68
S31508012E0044D1FCF706F900222946A0B2F5F71CFEC3
S31508012E10FCF7BAF83AE048F2210080459DF8082007
S31508012E200CBF01200020294610F0FAFE2EE09DF87D
S31508012E30080058BB9DF809500FF208570026F6B24C
S31508012E40AE4223DAD7E9001205A80823C0E9001221
S31508012E50002000900C2000FB0640821C9DF80410FF
S31508012E60D2B205A8FBF7E9F905A8FFF792FC08F025
S31508012E7015FDFFF78CFD761CE1E7FDF7A5FC8542FC
S31508012E8004D02246314602A810F0C7FF6CE00000C4
S31508012E90310000003EB5154604460A4600230221C4
S31508012EA0684600F07DF92A46B8A1204600F086F961
S31508012EB03EBDF0B585B0164604460D461F460A9A2C
S31508012EC00023012100F078F80B9800F09DF8BAA1CB
S31508012ED096E02DE9F0410C46002514F0784F88B0AC
S31508012EE0804616461F4604D00125002300223921B3
S31508012EF002E000230022382104A800F051F900203D
S31508012F008DF81400FF2EBDF8160040F04000ADF80C
S31508012F10160002D1FFF7A7F809E0FE2E06D1FFF742
S31508012F20A2F8401CC0B2FFF7A6F800E03846230C09
S31508012F30A2B2C0B265B10093FF2E0CBF0FF20C41CD
S31508012F400FF210411346039702900196012208E0F9
S31508012F50FF2E0CBF0FF204410FF2084102970190B0
S31508012F600096404600F02AF908B0BDE8F081F0B5B0
S31508012F7085B004460F4615461E4600F019F8204648
S31508012F8000F0B6F91FB13846F5F7F6F90BE0DFF8A8
S31508012F908C030069C1884FF6FF321140C1800020B9
S31508012FA0DFF88413087000962B462246CFA125E048
S31508012FB000234FF48062132101A8F1E01FB5FFF742
S31508012FC0F7FFF7F75DFA0446FDF7FEFB02460094A4
S31508012FD0C6A1D04B4FF6FD7000F0F0F81FBDF0B555
S31508012FE085B004460D4616461F4600234FF48062F7
S31508012FF00021FFF7E1FF00F007F8C0A14FF6FD70C9
S3150801300000F0DCF805B0F0BD8DF8087000962B4687
S315080130102246704770B5C04C206882B0407B0228B2
S3150801302003D16846F7F709FA08B1932076BD2068F7
S31508013030007B012818BF022802D1BC4D287808B99F
S31508013040702076BD09F01BFA0646B44C2878E07064
S315080130501E20FCF72FF90F2096FBF0F0C0EB0010AD
S31508013060301A00F095F8201D07F018FC002076BDEF
S3150801307080B5AA49002008711E20FCF72AF9FBF73A
S3150801308052FF00F004F8BDE80140FBF77DBF2DE9CA
S31508013090F043A3B01F200024ADF80A00ADF80C4098
S315080130A0ADF80840F7F7ECF9ADF80E00ADF81040A9
S315080130B0BDF80A00994DB0F5004F05DA2878401C8D
S315080130C0287040F0800000E000208DF8240009AE49
S315080130D0E878DFF85C9270704FF00208AF781CE070
S315080130E005A9FFF770FBB8B9B8F1520F14DAD9F888
S315080130F00000FFB2F021C05D08420DD109A80822DF
S3150801310005A94044F1F78DFB08F108005FFA80F83C
S31508013110A878401CA870641C7F1CE978F8B288421C
S31508013120DED37470414609A8FBF76BF80646FF2EF5
S3150801313029D0E4B24CB1002001900096FF2302AADF
S315080131404FF6FC710620F4F72FFF3046FAF7D6FF43
S31508013150A878E978884211D209F091F904461E2027
S31508013160FCF7A8F80F2094FBF0F0C0EB0010201A2A
S3150801317000F00EF8281D07F091FB04E01E20FCF76D
S3150801318099F80020287123B0BDE8F08332000000C9
S31508013190C0B24FF47A7142F2107201FB00217047F6
S315080131A010B500240471447141800480C2800381F2
S315080131B05A49086110BD0000323131000CB42DE9BD
S315080131C0F04784B05FEA010A0CAA814608BF16686F
S315080131D003D00120FBF764F90646F6B2FF2E08BFB5
S315080131E0182079D04D4C21690A794FF6F878C145EE
S315080131F0ACBF0120002022B900280CBF08250925EB
S3150801320005E0002200280A7114BF06250025464854
S315080132100778FF2F0BD14888B0F5004F05DA2078DB
S31508013220401C207040F0800703E00F8901E0FF2170
S315080132300170FAB200213046FBF70BF92269607872
S3150801324078B1FF20009001961346A089FAB2494643
S31508013250F5F760F80546002060704FF6FF70A0810B
S3150801326007E001900096FF2349462846F4F79CFE9D
S315080132700546BAF1000F1CBF3046FAF73FFF742D19
S3150801328029D1C14527DA20694088B0F5004F22DBEC
S31508013290FDF79AFA2169498848F2040291420CBF5E
S315080132A017A118A10022009203468A220120FBF7E2
S315080132B023F90646FF2E0ED0FAB20021FBF7C9F80C
S315080132C0002001900096FF2322694946F4F76CFE17
S315080132D03046FAF713FF284604B0BDE8F0075DF853
S315080132E00CFB0E48007840F08000704732383100F8
S315080132F00A4901224A708881704700003831310035
S3150801330031323100313200007CFC002044F20020C9
S31508013310B3FF0020B0FA002048FC00202CFA002058
S3150801332058F20020F9F3002027F40020D3FF0020EB
S31508013330A4F20020FFFFFFFFFFFFFFFF3138323104
S315080133403100000000000000000000003132323177
S31508013350313200003132323131000000323231313E
S315080133603200000032323131000000002DE9F84305
S3150801337080460E4691461C46FAF7F6FE0546FF2D8F
S31508013380DFF8C4750BD0B9F1000F13D1FBF767F855
S31508013390FF2820702ED13868405DA8BB2AE038681E
S315080133A010F80800851BFF2E08BF012023D0E8B2BC
S315080133B010B9FF2020701DE05FEA09001DD04746BD
S315080133C03846FAF78DFEEDB200953346424600219E
S315080133D03846FBF72BF9B9F1000F0AD029463846CA
S315080133E0FAF7EBFFDFF864050068C15D01F07F01BC
S315080133F0C15527700020BDE8F283E9B20020FAF72B
S3150801340000FF0746FF2FDED11820F4E738B504463A
S31508013410DFF834050068055D204600F0F2F800F192
S315080134200E03DBB2E91A89B200912246014620460B
S31508013430FBF7FCF82046A5F10E01BDE83440C9B2F8
S31508013440FAF7BBBF38B5044607F057FB05462046D1
S3150801345007F049FB6A780821D30748BF09211307F2
S3150801346044BF0831C9B2D20644BF0831C9B20818E7
S31508013470C0B232BDDFF8D0241268125C8A4280419C
S31508013480C043C00F70470170090A4170801C70471C
S3150801349010B504460822F1F7C4F904F1080010BD75
S315080134A02DE9F04B90460E46024684B099464FF6F2
S315080134B0FF71042007F0E7FB0546FF2D78D007F0DA
S315080134C01CFB074607F070FC48B107F02BFC06F019
S315080134D0010181F00101084218BF46F40056DFF8E0
S315080134E070442068C07E10B94FF6FF50064030057B
S315080134F00CD5B9F1000F09D169464046FDF72EF9F9
S3150801350000280EBFE9464FF2FF700640314638469D
S31508013510FFF7B9FF4146FFF7B6FF8346FDF754F9B2
S3150801352001465846FFF7AFFFDFF8282413780C9AAF
S315080135300146481C0AB1934200D21A460A7021680C
S315080135404A7E521C4A7600F8012BF10548BF401CF9
S31508013550310544BF4946FFF79BFFF10444BFDFF835
S31508013560F813FFF795FFDFF8E04321684A5D8018F5
S31508013570C01B485540F20110064218D14FF6F870A3
S31508013580804514DA2068475DFBF743FD2946404626
S31508013590F5F798FAFBF7F8FC2068405DB84206D0C3
S315080135A0284607F0AAFA417841F0040141702846F5
S315080135B004B0BDE8F08B70B582B01546069A1E4672
S315080135C041F209240AB141F6092400910246079BF2
S315080135D02146FF20FFF764FF0446FF2C09D0324637
S315080135E02946FAF79AFE0028204602D0FAF786FD00
S315080135F0FF2076BDD6480168487E401C4876C0B291
S31508013600704738B50446FFF71DFF0546204607F003
S3150801361074FA4078400704D500F072F8401C05EBAF
S315080136204005E8B232BD41780A0701D40020704747
S31508013630C90701D5093070470830704700F10801FC
S315080136404078C20601D400207047C20748BF491C0A
S31508013650000702D501F1080070470846704700F0D7
S315080136600302012A00F00C0101D0C00601D502208F
S3150801367070470C2901D10920704708207047032299
S31508013680114207D000F00300022801D10320704738
S315080136900220704700207047F8B504460D46FAF730
S315080136A0D3FE0646FFF7DBFF0746300601D4384648
S315080136B0F2BD7919C9B200F024F801463046FFF780
S315080136C0DEFFC019C0B2F2BD70B504460D46FFF75C
S315080136D0E3FF064600F014F880060FD57119C9B242
S315080136E000F00FF8761D00F01801F6B2082904BF9C
S315080136F0761CF6B2800644BF0836F6B2304670BD6F
S3150801370029462046FAF7A0BE38B50446FFF779FFE1
S31508013710054629462046FFF7D7FF4019C0B232BDF4
S315080137202DE9F04385B007460C4607F0E6F905464C
S31508013730F9F740F980463846FFF763FF06463146F2
S315080137403846FFF7A9FF002100910346324639465C
S3150801375001A8FAF772FD9DF8047007F00C010C290F
S315080137601CBF07F0030101290DF1050607F00C003E
S315080137704FF0FF0906D0F90604D49DF805100DF19E
S31508013780060600E0FF210C28617105D13046F9F7DC
S3150801379011F92081B61C01E0002020816878C00754
S315080137A003D5A81CF9F706F9208107F003000128BB
S315080137B00DD0F8060BD43046F9F7FCF86080B51C35
S315080137C02846F9F7F7F8AE1C208016F8019B84F80D
S315080137D004903078A0720020790648BF4020B906C7
S315080137E048BF40F020005FEA086148BF40F4007016
S315080137F004D45FEA486148BF40F480705FEAC84173
S3150801380048BF40F480605FEA085148BF40F4006051
S31508013810E080380615D5707810F0030011D0E288DB
S31508013820B17842F40042E28007F00302022A04D189
S31508013830F07841EA0020208103E0012808BF090247
S31508013840218105B0BDE8F0832DE9F041154686B022
S3150801385080460C46E888082C18BF0C2C064604D06E
S3150801386080045CBF06F040000143394F3868C07ECA
S3150801387010B106F020000143300448BF41F0800131
S31508013880032C0AD112208DF80000B00644BF32205D
S315080138908DF800000DF1010025E00C2C8DF80010C3
S315080138A005D129890DF10100FFF7EDFD04E06879DD
S315080138B08DF801000DF102006988FFF7E4FD2988FA
S315080138C0FFF7E1FD297900F8011B022C0BD0B1079E
S315080138D009D4310402D52989C9B221B939688A7E40
S315080138E0531C8B76AA72032CA97A00F8011B17D0F0
S315080138F0310415D529890A0A022C01D0CBB243B164
S31508013900022303704170801C022C09D100F8012B97
S3150801391006E010F8011CA972427001210170801C91
S315080139203968C97E19B1A979890648BF401D694612
S31508013930421AD2B24046FAF7F0FC401E8041C00F47
S3150801394006B0BDE8F081000044F2002048F20020EC
S3150801395048FC00200AF40020B0FA002080B5DFF800
S31508013960A013002008710620FBF7B3FCFBF7DBFA6E
S31508013970DFF890030068407B042814BF532800F041
S3150801398066F8BDE80140FBF7FFBA18B1DFF878130E
S3150801399009880180DFF868030078704780B5172227
S315080139A09AA1032003F0D4F9BDE8024000204AE0B9
S315080139B0F8B5DFF8504323685D7B2F0018BF212D2A
S315080139C005F00F0608D01D7B012D01D1850603D40C
S315080139D0DFF82C532F790FB17020F2BD2A70012E12
S315080139E0C94A118004D12120587300F030F828E023
S315080139F081064CBF5321042159732168097B032988
S31508013A0016BF042900F0200000F0A00001464FF679
S31508013A10FD7000F030F92068407B042804BF0120BE
S31508013A20F6F76CFC0620FBF745FC2068007B0328AB
S31508013A3016BF04284FF400714FF40061281D06F0E3
S31508013A402DFF0020F2BDFF224FF6FF71B0E780B5CA
S31508013A5006F07CFA09F0E5F808F0C3F8AB480078F7
S31508013A600B2802D007F0DEFB06E00620FBF722FC56
S31508013A700FF20D00FDF75DFCBDE8014008F0F1BD50
S31508013A8010B50620FBF725FCFBF74DFA9D4C20687F
S31508013A90417B532906D10321417301200021F5F702
S31508013AA09BFC29E0042918BF212925D10120F6F715
S31508013AB025FC4FF6FE70FCF78BFE4FF6FF70FCF700
S31508013AC08FFE0020F6F78CFBF6F74FF804F091F914
S31508013AD0F8F708FB012007F0D9FE2068407B21286A
S31508013AE002D1F5F768FA07E00020FCF75DFF00212F
S31508013AF04FF40040F6F729FEFBF746FABDE81040F9
S31508013B00FBF73FBB2DE9F8430E468046511CC9B267
S31508013B103046FAF799FC0546304606F0EEFF0646AA
S31508013B20B01CF8F747FF8146A809764F00F0010453
S31508013B303868417B022966D1017B032903DB40886A
S31508013B40804503D022E04069C0011FD484B1707852
S31508013B50000708D53046FFF766FD08226C49F0F7DD
S31508013B60AAFE002802E0FCF72FFE81454BD107E0AB
S31508013B700329A4BF4FF6F870814509DBE80907D088
S31508013B800122414605F0A000FFF712FF002C3AD1A9
S31508013B903868007B032836DA7078C00633D5304694
S31508013BA0FFF74CFD064631460020FEF7EBFC0446BE
S31508013BB0FF2C07D0A8065CBF204600F029F820464E
S31508013BC0FEF7E5FE404601F0CDF9FF280BD001F0DE
S31508013BD079FAA80607D4FCF7F7FD20B10222314687
S31508013BE0404600F099FDFCF7EFFD60B9FBF711FAC5
S31508013BF04FF6FF73022231464046F3F725FABDE830
S31508013C00F143FBF7C1B9BDE8F183000042000000AA
S31508013C101CB5FEF7CAFD04466946FEF720FE50B1FB
S31508013C20FCF7D2FD38B1FCF7B7FE20B1022269468E
S31508013C30204600F071FD13BD38B504460D4607F060
S31508013C402DFE0146FF2901D1012032BD2D4A1268F8
S31508013C50D27E4AB12F4A126832F81110490403D5A7
S31508013C60FEF795FE002032BDFFF7D2FF45F0400171
S31508013C702046BDE8344030B50446880985B000F0D1
S31508013C80010504208DF808008DF80910280008D0D0
S31508013C9003A92046FEF7E3FD08B901202EE003A893
S31508013CA000E0002001900095022302AA0121204686
S31508013CB0FFF781FC0546FF2D08BF18201ED01148C5
S31508013CC00068017B032918BF042903D141882846C6
S31508013CD006F04BFF4FF6F870844205DB00220221FD
S31508013CE0284608F03FFF03E02146284604F06CFA0F
S31508013CF004462846FAF702FA84F0010005B030BDF9
S31508013D0050F9002048FC0020CAF3002023F40020C3
S31508013D10B0FA002058F2002038B5044606F0EDFE48
S31508013D2005462046FFF76DFC411CC9B22046FAF745
S31508013D308BFB697809070AD52846FFF774FC014603
S31508013D400020FEF71FFCBDE83240FEF720BE400604
S31508013D5002D4BDE8314001E631BD0000F8B504469C
S31508013D60E01CF8F727FE0646601D0025F8F722FE37
S31508013D704FF6FF77BE42044608BF012504D0FCF77B
S31508013D802BFD864208BF0225BC4208BF45F0040543
S31508013D9005D0FCF719FD844208BF45F008052846F9
S31508013DA0F2BDF8B50546F8F705FE06464FF6CF709B
S31508013DB000EA06072846FFF7D1FF002448F6410125
S31508013DC08E4208BF052809D1E81DF8F7F3FDBD495C
S31508013DD00988884214BF0224062412E04CF6010021
S31508013DE087421ABF4CF601408742012409D0FBF7E6
S31508013DF010F9284606F087FF0546FBF7C5F805B111
S31508013E000824B14800782040F2BD3CB50FF2CC2316
S31508013E100021D3E90045CDE9004528B9AB49086039
S31508013E20002036BD491CC9B230F811201304F5D457
S31508013E30002300E05B1CDBB23DF813402504F1D4F6
S31508013E409442F7D1022036BD2DE9F04F0446884643
S31508013E5083B04046F8F7AEFD9C4D83462868002698
S31508013E600027002801BFA8680028686800284FF0C5
S31508013E70030968D04FF440611BEA010F0BD008F122
S31508013E800300F8F797FD4FF6FF7188420CBF02272A
S31508013E9001274FF0050947F0080001900BF4404A45
S31508013EA05FEA4B6015D4BAF1000F16D00BF44060E7
S31508013EB0B0F5406F0CBF082002204844C0B2404408
S31508013EC0F8F778FD0090FCF787FC009989B28142E2
S31508013ED001D1019F01E047F004070BF44040B0F51A
S31508013EE0004F08BF47F0800704D0BAF1000F02D18E
S31508013EF047F48077BFB20BF44060B0F5006F0BD181
S31508013F0008EB0900F8F756FD8046FCF75DFC80458D
S31508013F1008D147F0100704E0B0F5406F02D147F029
S31508013F202007BFB2002001E0002610B9A968802247
S31508013F3005E0012807BF696840222968102231B9BE
S31508013F40401C0328F0DBFF20BDE8FE8F761CF6B285
S31508013F5031F816305FEA0348F2D49F42F6D104B12C
S31508013F6022703046F0E700002DE9F0478146884681
S31508013F70F8F720FD0546E80800F001074846FFF76F
S31508013F80EDFE044605F0070605F4406A4FF6F7709C
S31508013F9005404F4800780B280FD009280DD8DFE8CF
S31508013FA000F082050C0C8205050A0C07002E00E0BC
S31508013FB0012E01D101E0032E75D11FB3002E72D156
S31508013FC00B2801D1A0076ED5B5F5004F1CBFB5F575
S31508013FD0624FB5F5404F66D10026E80648BF46F060
S31508013FE08006A80648BF46F4805606F00C00042849
S31508013FF05BD109F10700F8F7DDFC0146FF2246F01F
S31508014000040055E0032E334F4DD8DFE806F00205CC
S31508014010032DD5E73B2053E04FF6CF7000EA05069E
S315080140204846FFF7BEFE20B94946FFF70DFFFF28B0
S3150801403001D00826D1E748F64100864233D10A2C39
S3150801404018BF062C2FD160070CD5FCF7E7FC18B171
S315080140503868007B042826D00BF014FE18BB40F6FE
S315080140600406BAE70426B8E714F0030005D1FCF7FD
S31508014070B3FB4FF6FF71884215D10C26BAF1000F32
S315080140800DD0BAF5006FA8D0BAF5406F0BD108224A
S31508014090114909F10500F0F70EFC20B99DE73868CA
S315080140A0007B012899D03A200AE0FF2200213046F8
S315080140B006F0E9FDFF280EBF182088F80000002049
S315080140C0BDE8F087EEF30020DFFF0020B0FC0020FA
S315080140D023F4002048FC0020B0FA0020990089004A
S315080140E00080000070B5DFF8005D0446286882B0DC
S315080140F02688407B08B1702076BDB00504D504F149
S31508014100120000F030FEF0B906F08600862801D1CB
S31508014110B72076BD00F01AFE286816F4045F4661DA
S3150801412020D0B0040BD5A01C0FF0B0FE010051D170
S315080141302868416921F4005141F480714161A01C4C
S3150801414000F011FE08B1B22076BD05F0D9FE20B9FE
S315080141502868416941F4803141612868416941F023
S31508014160200141612868416941F4004141614806DD
S315080141704CBF04F123020022A31C47F2FF10F6F7F5
S31508014180ADFA684600F040F828684069C004BDF8F1
S31508014190000004D540F02000ADF8000008E04FF615
S315080141A0DF710840ADF8000009F0D6F902F093FF77
S315080141B0BDF8000000F00FF828684069800506D5AB
S315080141C094F82210012204F1120000F09BFB2968E1
S315080141D00020486276BD10B5044604F4E660010481
S315080141E0002300224FF07F60F6F778FA23462F2244
S315080141F0ADA1032002F0ACFDE00703D50021302074
S31508014200F6F7A3FA002010BDDFF8DC1B0968496937
S31508014210090C01F4E66101800020704738B5DFF822
S31508014220C85B04462868407B022801D0932032BD2A
S315080142300A2200212046F0F737FB2868406900F07A
S31508014240FF01820648BF41F01001218080075CBF4B
S31508014250A01CF6F7DAFA002032BD38B504460D4639
S3150801426009F087F908B9952032BD00F047FBC17EF0
S3150801427089B14069010401D4A82032BD5DB110F0AD
S31508014280420F08BF002C04D000F44070B0F5407FFF
S3150801429001D0B72032BD002032BD00002DE9F04F14
S315080142A08BB00446894602A8242108F0F9F820466D
S315080142B0FFF7A7F901462046FAF7C6F8054620464C
S315080142C006F01BFC8046002798F80100DFF86CAB66
S315080142D0800748BF0127A80648BF47F002072046BE
S315080142E0FFF712FA8DF8040002ADDFF8540B0068E7
S315080142F09DF80410005D9DF80420431ADBB2242BB7
S31508014300A8BF232300200090214602A8F9F795FFAC
S3150801431068789DF808600090DAF80000C07E88B1D8
S3150801432000F064FD002814BF4FF4D0704FF4F0700C
S31508014330F040C00706D5B80704D4082E09D100985D
S31508014340042805D103F06AFD002818BF052E03D0FD
S31508014350A7E0052EF6D0A4E09DF804200023214607
S31508014360032006F0CEFC761F0B2E4FF6FF7BF2D804
S31508014370DFE806F00617374E5497979797596D73E6
S31508014380009806280CDA08F10200F8F713FB05462F
S31508014390204606F0D9FB3B4602AA294600F05AFBFD
S315080143A07FE0FCF711FA00287BD1DAF80000C17E1C
S315080143B0002976D0B90702D44069800171D40DF17C
S315080143C01100F8F7F7FADFF87C5A02462C700DF15E
S315080143D009039DF813004946F6F7CAFDFF20287020
S315080143E05FE00822DFF8601A0DF10900F0F763FAB9
S315080143F020B902224946FFF7DBFA52E00DF109001E
S31508014400FEF7C7F958454CD00021FFF715FC48E0DF
S315080144103A4602A94846F6F79FFF42E06978012025
S3150801442000F02DFA3DE0F8073BD50DF10900FEF73E
S31508014430B0F9584504BF0DF1090000F068FD58456B
S315080144402FD09DF80420214600F030F829E03A469D
S3150801445002A9484605F0A8FA23E0DAF80000407BED
S31508014460022808BFB9F1000F1BD16846F6F7CDF946
S31508014470B8B1DFF8D81900200870687800280CBF91
S3150801448065246424F6F7CBFB032806D10021002016
S31508014490F6F71AFB0020F6F7C5FB21466846FAF738
S315080144A01EFF0BB0BDE8F08F425700002DE9F0471B
S315080144B08246DFF88C0900680C4688B0005D02F177
S315080144C00905461BF1B20020F9F79BFE0746FF2FA7
S315080144D041D0012000900023524608213846FEF7B4
S315080144E0DFFF8046B8F1FF0F32D0E9B22046FFF769
S315080144F0EBF8814601A81C2107F0D2FF00200090A5
S315080145004B46EAB2214601A8F9F797FE4A4601A9A0
S315080145104046F9F702FFC0B9A6EB0906F1B23846DB
S31508014520F9F77CFD504607F0B9F9FF284D4400F02C
S315080145309AF9F6B20096EBB2224600213846FAF706
S3150801454075F85146404603F03FFE4046F9F7D6FD59
S315080145503846F9F7D3FD08B0BDE8F0872DE9F24FE3
S315080145608046174686B01D4600213846F9F76CFF86
S3150801457004460226E808082C00F0010018BF052C9D
S315080145808DF804004FF000094FF0080B03D0062CF4
S3150801459018BF102C01D168080CE000F0AFF9C07EF5
S315080145A058B100F023FC002814BF4FF4D0704FF423
S315080145B0F070E04000F0010A00E0CA46FF2F6CD017
S315080145C0E80748BF4FF4027BC82000900023424603
S315080145D059463846FEF764FF0746FF2F5DD09DF81A
S315080145E0040028B106993846F7F72BF8002851D068
S315080145F04FF6F8708045ACBF09200120102C18BF72
S315080146000F2C8DF8080005D19DF8080040F04000F0
S315080146108DF8080000F072F9817E4A1C8276BAF19B
S31508014620000F8DF8091006D09DF8080040F020000B
S315080146308DF808000F26324602A93846F9F76DFEAD
S3150801464040BBBAF1000F1AD00021052C0BD1384610
S31508014650F9F78AFD0121F9F7F7FE6224C440E0075C
S315080146604CBF102118219DF80400002819BF022308
S31508014670069A41230022384602F0D4FE50B968074B
S3150801468004D54146384603F09FFD02E0384603F05B
S31508014690D2FB81463846F9F731FD484607B0BDE8F1
S315080146A0F08FF8B504460D46284606F0A2FADFF85B
S315080146B0947706463D70FCF787F80146334622464D
S315080146C00120F6F755FCFF203870F1BD7CB51C4674
S315080146D0DFF814371B681B7D00259B0701D50020D1
S315080146E076BD019200900B4606220FF278710020E2
S315080146F0F9F702FF0646FF2E0CD0002C14BF032340
S315080147000123324600210020FFF728FF05463046DF
S31508014710F9F7F4FC284676BD2DE9F04104460D4625
S3150801472016460027F6F75DF9B84618B1012300F0D9
S3150801473014F80746F6F755F938B100F057FB40B1BA
S3150801474000F0DCF84069800103D4002300F005F885
S31508014750804648EA0700BDE8F081324629462046E8
S31508014760B4E72DE9F34F9B46BBF1030F92460CBF05
S3150801477001270027BAF1000F8DB018BFD04605D121
S3150801478001A8F6F742F848B10DF1040823210020E3
S31508014790F9F737FD8146B9F1FF0F01D100205FE036
S315080147A0F9F736FC04460520207084F801B0199DF6
S315080147B0E80607D511220021A01CF0F775F804F1C7
S315080147C0130618E018991022A01CF0F72AF862209F
S315080147D020FA0BF0C00704F112060CD503A908A8A4
S315080147E000F0A4FA3046461CA9064CBF9DF81C10D9
S315080147F09DF830100170380008BFDDF838A008228E
S3150801480051463046F0F70DF808362FB1A80900F0E1
S31508014810010006F8010B09E001200090321B08236C
S31508014820D2B249464046F9F708FD0836311BC9B2E6
S315080148304846F9F7F3FB680706D5BDF8340007F0D3
S315080148402DF8FF2800F00FF80E99BDF834002B4615
S315080148504A46FFF783FE04464846F9F74FFC2046C9
S315080148600FB0BDE8F08F09D0DFF8E415096831F813
S3150801487010204BF6FF731A4021F81020704730B507
S315080148808BB004460D4600F0A0F8684600F06BFAB6
S3150801489060B99DF810009DF824100A1AD2B2812A2F
S315080148A004DB2CB1A94201D0A84201D0002023E0A3
S315080148B01123022205A900F070F89DF810100122B3
S315080148C0684600F01FF80CF049FF01214FF400700B
S315080148D0FDF7F4FD08F03AFEB0F1004F88BF08F085
S315080148E03BFEFAF796FB00F009F890F82000F2F77C
S315080148F027FCFAF749FB01200BB030BDDFF8E804C5
S3150801490000687047F0B58FB005460C461646112269
S3150801491000216846EFF7C8FF01278DF810402DB929
S31508014920102200216846EFF7BFFF04E0102229464E
S315080149306846EFF776FF112200210AA8EFF7B4FFC0
S315080149401122002105A8EFF7AFFF05A90AA800F073
S31508014950EDF9300014BF0AA805A811226946EFF738
S31508014960AAFF00B9002786B1DFF87C544FB111239D
S31508014970062200F011F82868407B432808BF0CF08E
S315080149803FFE286880F8204004E01FB11123022267
S3150801499000F002F80FB0F0BD69460020F8F701BA39
S315080149A070B58AB004460D46164600F00EF8002E7C
S315080149B014BF05AE6E46102231462046EFF731FF89
S315080149C0307C28700AB0002070BD694605A8ADE1A3
S315080149D030B58BB0044603208DF80000FBF7F4FED2
S315080149E058B1FBF7D9FF40B101A8F5F70EFF20B181
S315080149F0FFF784FF007D800701D5702028E00F208E
S31508014A008DF80C00082204208DF80D000DF10E001A
S31508014A10DFF83414EFF705FF0DF116030122694695
S31508014A20204609F03EF81A2103A8F9F7EAFB0446DD
