S01200006E63702D756172742D68772E733337AC
S31500000000E8DB0320052E0300890E0100E92D03001D
S31500000010A70A02020002000004180FAC0026930093
S3150000002000000000000000000000000000000000CA
S3150000003000000000AC4803000000000000000000C3
S315000000400000000000000000FFFFFFFFFFFFFFFFB2
S31500000050FFFFFFFFFFFFFFFFFFFFFFFFFFFFFFFFAA
S3150000006000E00F000000000000000000FFFFFFFF9F
S31500000070FFFFFFFF1C000000000000000000000062
S3150000008000000000000000005EFE03205EFE03206C
S31500000090E8DB0320A87303008835030010CD032096
S311000000A070170020000010000000000097
S31500000200E8DB0320052E0300890E0100E92D03001B
S31500000210F12D0300ED2D0300F52D0300012E030043
S31500000220012E0300012E0300012E0300012E030000
S31500000230F92D0300012E0300012E0300C11F00004B
S315000002404B3D0200A9BC020095440000012E0300AC
S31500000250B1B80200F1BC0200AFBC0200B1BC0200A2
S31500000260ABBC0200A9A70200F3A9020005B7000073
S31500000270FFAD0000012E0300012E03003F05000024
S31500000280012E0300012E030011AA0200012E030015
S31500000290012E0300012E0300012E0300012E030090
S315000002A0012E0300012E0300012E0300012E030080
S315000002B0F3BC0200ADBC0200EDB300002BBD020092
S315000002C0012E0300D1310300012E0300012E03008D
S315000002D0012E0300012E0300012E0300012E030050
S315000002E0012E0300012E0300012E0300012E030040
S315000002F0012E0300012E0300012E0300012E030030
S31500000300012E0300012E0300012E03006F49704ADF
S3150000031001E021B1491E1369DB07FAD401B9B0E047
S31500000320506001201060106910F0060F05D04107DB
S3150000033000D5A9E0800700D5A9E000207047F0B5F8
S3150000034013460022002936D0604C614D8BB98B4292
S3150000035031D250F8046BEE605B1C08262E602646F0
S3150000036001E036B3761E2F69FF07FAD4002EEED1D0
S315000003701FE0EFF3108672B600230EE02F6907F038
S315000003801907102F08BF2F602F693F07F6D550F8C1
S31500000390047BEF605B1C10272F608B42F4D306B9F9
S315000003A062B6264601E026B1761E2869C007FAD451
S315000003B00EB96FF002021046F0BD2DE9F0479A46DD
S315000003C0444B454F1C681B683B688046002043F041
S315000003D001033B60950881460C4602E0B14404EBFC
S315000003E08604A94517D208EB89063046FFF78EFF2B
S315000003F0010014D1C6F30A00C0F500608608A5EB1B
S315000004000900B04238BF0646524631462046FFF73D
S3150000041096FF0100E2D03968490849003960BDE815
S31500000420F0872C49294A0B6809682B490B6843F069
S3150000043001030B608860012048604869400704D5C5
S3150000044008684008400008601EE04869800704D537
S31500000450086840084000086019E00220486001E092
S3150000046022B1521E4869C007FAD422B9086840086A
S315000004704000086005E00868400840000860002069
S3150000048070476FF0020070474FF0FF3070476FF013
S3150000049001007047002390E70F48016841F0010111
S315000004A0016046F21A31C1644FF4807141604169BE
S315000004B0C907FCD44FF4007141604169C907FCD4F7
S315000004C00021C1640020704700000000809698005B
S315000004D00C000E4004300E4008000E40072802D2E1
S315000004E03549085C7047FF207047072802D2334918
S315000004F0085C7047FF20704738B50446304800EB6B
S315000005008105A8780009FFF7E9FF2071A87800F0B7
S315000005100F00FFF7EAFF6071FF2814BF01200020DB
S31500000520E8702146E878A071287860706878254DD3
S31500000530A070284600F0A3F80120A86031BD10B5D0
S31500000540214984B01CC968461CC02048204A01784D
S31500000550D36814682340DB072DD503292BD2184C0A
S3150000056012691C4B04EB8104E4781CB114B2002C14
S3150000057048BF002223F811200123174A147803FAF2
S3150000058001F121431170154A117891B100211478B7
S31500000590CC40E40708D501708B40107858401070A5
S315000005A06846FFF7A9FF1FBD491CC9B20329EED350
S315000005B01FBD032101701FBDEC470300F447030074
S315000005C0D4E5032000200040E047030030FE03206E
S315000005D038200040F8E5032031FE0320FBFC032011
S315000005E0890001EB401000F184400260704730B58D
S315000005F0002A446BDFF834511ABF1022DFF830317D
S31500000600DFF8303123400024A84237D1DFF8280133
S3150000061051B101290CD002291ED003290CD006297C
S3150000062015D0812918D023E001680468006816E017
S3150000063001680468006802E0416844684068090C83
S3150000064001F4FE41C4F303442143000C0CE081682D
S31500000650806801F00F0107E041684468406801F4D2
S31500000660FE4104F00F04214300F0F00040EA0104CB
S3150000067004FA02F0DFF8C4101843086030BD38B53C
S3150000068004460D460220A0600022A9782046FFF706
S31500000690AEFF287969786B79020242EA016242EA82
S315000006A00342EB7842EAC302EB790BB142F0005207
S315000006B02B7A0BB142F00402AB790BB142F0020285
S315000006C06B7A0BB142F00102AB78F32806D1180021
S315000006D004D10429BCBF042060F31B6218064CBF7A
S315000006E042F0E00042EA4310206115496069084083
S315000006F0A9780A0644BF21F080010843297840EA18
S315000007004140E97A09B140F4804060610221AA7A49
S315000007102046FFF765FF2879F32804F13000BDE88D
S3150000072038400CBF01220022102159E7002000406A
S31500000730FFFF00800080FFFF1082E00F34200040A2
S31500000740F8BFE1FFDFF82C1A884202D1DFF8280A49
S3150000075070474831884202D1DFF8200A70470020EE
S31500000760704738B5044604F14005286870B1297908
S3150000077003290ADA211D884202D2C22100F0B0FA0A
S315000007802868001B001FC0B232BDE07832BD8278F7
S3150000079002F03F0242EA81118170704700BF807803
S315000007A0C0F3C2007047827802F0F80211438170EC
S315000007B0704710B50446FFF7C5FF20B12046FFF786
S315000007C0C1FF00F017FE48220021204600F0F4FE8B
S315000007D0201D206410BDFEB5DFF8A4190A6802A822
S315000007E00260DFF8900900F19004216800918142CF
S315000007F008BF48300190002500265DF8267038466F
S31500000800FFF7CCFF02AA97F84410525D914206D139
S3150000081000281CBF2179884201D12760F7BD761CCC
S31500000820022EEAD36D1C032DE6D3F7BD01202DE978
S31500000830F0430446DFF83C09DFF84889D0F8901009
S3150000084083B0814208BF48300091019000260027FE
S315000008505DF8279009F144052878032817D199F8FF
S315000008600200800902281CBF0328012803D148463C
S31500000870FFF777FF80B126B14FF4B471404600F020
S31500000880B7FE042028700126FFF7A5FF07E0697868
S3150000089029B1052803D101264846FFF78AFF7F1CA8
S315000008A0022FD5D3DFF8E008017821B901210170C4
S315000008B0012000F093FF2CB101F056F9022100202F
S315000008C000F02DFABDE8F7837E2818BF7D2804D0F6
S315000008D011281CBF1328F82801D1012070470020D9
S315000008E07047DFF8A81801EA0021C20448BF41F0AA
S315000008F08001C00648BF41F040010846704770B508
S3150000090004460D460020002605E0B6B20146A05D6D
S3150000091001F050FA761CB1B2A942F6D3BDE8704098
S31500000920DFE770B505467E20287014460020687003
S315000009301E462846FFF72BFFFF2C05D0A87800F0AF
S31500000940C70040EAC400A87031462846FFF72BFFCF
S31500000950A878FFF7B9FF38B1A87880F02000A87012
S31500000960687840F080006870049CE61DF6B2412E5F
S3150000097003DB40F2DF1100F0B3F9EC702046FFF71D
S31500000980A3FF38B1E87880F02000E870687840F07E
S3150000099040006870211D89B22846FFF7B0FF29196B
S315000009A0020C01F8042F8870020A4A70286CC01CD9
S315000009B02864304670BD082802DA4A1C904203D0EB
S315000009C0012808BF072901D1012070470020704780
S315000009D0884218BFFFF7EFBF0120704738B50446BD
S315000009E004F144052878032823D00121242001F0AE
S315000009F01EFA0120687002202870DFF88C17DFF8D5
S31500000A007407C0F89040A878401CA870097802299D
S31500000A1005D1C0B20A2802DBBDE8314056E32046C4
S31500000A20FFF790FE00F0E6FCBDE83440042101200B
S31500000A3075E12046FFF786FEBDE834404FF4FA71B3
S31500000A4000F088BCDFF82C07C8E7DFF84407C5E7E5
S31500000A5070B504460D46164601F07AFA00281EBF08
S31500000A60DFF8100790F8441003291CBF10F88C1FFC
S31500000A70032918D04068032180F8441028463146DF
S31500000A8001F061FA3146252001F0D1F9032C02D19B
S31500000A900121222003E0022C05D101212020BDE8FE
S31500000AA0704001F0C4B970BD04202DE9F843074633
S31500000AB0DFF8E006DFF8E04600F09CFC206890F8DE
S31500000AC0440002284FD101202668A071FF25B07886
S31500000AD04FEA901896F8450030B1042F18BF5FEA28
S31500000AE0080010D0B8460EE03046FFF73AFEB8468A
S31500000AF010B95FEA080005D120790728B4BF401C69
S31500000B000120207125793046FFF72BFE06F14007BC
S31500000B1081463868B84203D340F2DD2100F0E0F8A0
S31500000B206379CDF800902A4641463046FFF7F9FE34
S31500000B302068FFF707FE4FF4FA7100F00BFC3868E7
S31500000B40821B0020F8710023D2B231464046FFF7DF
S31500000B507FFF387920B13868C01E3860012078716F
S31500000B60BDE8F14337E6BDE8F1832DE9FC41DFF846
S31500000B702C16804600F05FF8212001F058F95FEA54
S31500000B80080030D0002500265DF8264004F1440711
S31500000B90787868B1387803280FD12046FFF7FEFD34
S31500000BA001464046FFF714FF10B10520387014E0E7
S31500000BB03878042801D0787878B12046FFF7EEFD22
S31500000BC001464046FFF704FF38B1E178282001F0DE
S31500000BD02EF92046FFF7EDFD0125761C022ED3D314
S31500000BE00DB1FFF7F8FDBDE8F3817CB5DFF8B01570
S31500000BF0044600F020F8232001F019F900255DF8DD
S31500000C00256096F84400042811D1B07880090ED0EA
S31500000C10200006D03046FFF7C1FD2146FFF7CBFE88
S31500000C2028B13046FFF78EFD002100F093FB6D1CC6
S31500000C30022DE4D373BDD1E90023CDE900230121C0
S31500000C4070472DE9F84F92460AF14005804628790B
S31500000C500024032889461F463FDA697900293CD1DA
S31500000C600228BCBF012028710AF13D000026009031
S31500000C7006E0411C80F800B0641C2960A4B2761C12
S31500000C80B0B248453EBF28680099884215D2B6B230
S31500000C9018F806B05846FFF717FE00282868E8D06F
S31500000CA00099091A022906DB7D2101708BF02002CA
S31500000CB0811C4270E0E7022028710AF13D01286894
S31500000CC0884200D00FB1022129710AF13E0181420A
S31500000CD003D24FF45C7100F003F82046BDE8F28FB2
S31500000CE0DFF8A00400F084BCF8B50446DFF89804E9
S31500000CF00078002602280D460FD1DFF89C7478791B
S31500000D0058B1FFF768FD3A68002329462046FFF7E9
S31500000D1098FF06460220FFF7C8FE3046F2BD10B522
S31500000D20DFF85024D2F8902002F140031C7920B15C
S31500000D30032C15D0042C0DD110BD012C18BF022C8C
S31500000D400ED108001CBF0129032903D01868801A98
S31500000D50052805DB022018710846BDE81040A4E608
S31500000D6010BD02210020DAE7DFF8382492F83D2092
S31500000D700A4203D0017881F020010170704700001B
S31500000D802DE9F84FDFF81C8481468A46164600276F
S31500000D9008F1390408F13E050EE0BBF1000F0AD058
S31500000DA02879401C2871C0B2042804BFA178002904
S31500000DB001D1052028717F1CF8B250451ED2287932
S31500000DC008281CBF3178032918D0FFB24FF0010B59
S31500000DD019F807108DF8001088B9FF29EBD07E2985
S31500000DE015D00820287103203070FFB219F80700CB
S31500000DF07E2803D07F1CF8B25045F6D387E07E29C3
S31500000E0007D10820287103203070384680E000F0B2
S31500000E106FF92879052805DA29889DF8000000F081
S31500000E20C9FF28802879072867D8DFE800F06A0418
S31500000E3008101A4B4F539DF80000207161E0802185
S31500000E406846FFF791FF9DF80000E07059E04021E9
S31500000E506846FFF789FF9DF80000A0703A2850DB2E
S31500000E6048E0207869794FF0000B59B19DF80010E1
S31500000E7081F0200108F800102078401C207085F8C9
S31500000E8005B012E0A17862788A420ED29DF8002061
S31500000E907D2A05D1491E012281426A7105DA29E0BF
S31500000EA008F800202078401C2070307803282CD0C9
S31500000EB06078401C6070C0B2A178884221D34FF0A0
S31500000EC0010B1EE09DF80000A8701AE09DF80000D6
S31500000ED0E87016E02888FFF704FDEA78A978120280
S31500000EE042EA01419DF800201143814202D10220CD
S31500000EF0307055E70320307007E040F25641FFF7A7
S31500000F00EFFE307803287FF448AF082052E7F8B2A6
S31500000F10BDE8F28F2DE9F24FDFF88892A24C09F175
S31500000F20390B05469BF80300C0F3C2079BF8000087
S31500000F30C11D82B089B2272000F079FF9BF803100B
S31500000F4088090026032DB04669D0DFF83CA218B9FF
S31500000F509BF8020088B162E09AF80020012853D17C
S31500000F60012A277025D102208AF800004FF00108D7
S31500000F7001F00700FFF7F9FD1BE0012F18BF03255D
S31500000F8013D18A492078D1E90023CDE9002350B155
S31500000F9000255DF825008178890918BFFFF709FC4F
S31500000FA06D1C022DF5D327700125012000F08BFE64
S31500000FB0012600206070022D12BF012D9AF8000054
S31500000FC0022841D19BF800A0BAF1000F3CD0267848
S31500000FD056B1072E28DA721C931002EB5373DB10FE
S31500000FE0A2EBC302974221D1082F277003DB40F200
S31500000FF0C741FFF775FE9BF80010029A48469047D6
S31500001000504520D026701BE0022AD2D10228AFD04C
S31500001010032804D101F00700FFF7E7FDC9E7032520
S31500001020012684F801800FE0012FDDD03A0018BFB9
S31500001030BE4207D0012E0EBF072F711E8F4201D070
S31500001040032500E00225012600F08EFD607800B140
S31500001050002629463046FFF762FE00206070B8F190
S31500001060000F1CBF022000F0B9FBBDE8F78F504A05
S315000010702DE9F041044682B00D461646262000F0C2
S31500001080D6FE02208DF800006A4629462046FFF764
S3150000109077FE0746DFF80C8111E09DF80000314627
S315000010A0FFF738FF00F024F802208DF80000E91B56
S315000010B06A46C9B2E019FFF763FEC719FFB298F88E
S315000010C042000828E9D03846BDE8F68180B500F030
S315000010D00FF800F012F8002000F0F5FD2A49002074
S315000010E0087000F07BFBBDE804400021012016E6F5
S315000010F0442200212B4800F05FBA10B51D4C9822FF
S315000011000021204600F058FAC4F890402046FFF728
S3150000111050FB04F14800BDE81040FFF74ABB80B51C
S31500001120FFF759FB1848007802280FD11148D0F86C
S31500001130900000F140010A79032A07DA4A792AB9B0
S3150000114009683D3081428041C00F02BD002002BDCA
S3150000115080B5084890F84410002904BF90F88C0028
S31500001160002804D002210020FFF7D9FD012002BD8E
S315000011700000000000E60320F0DD0320FCDD032074
S31500001180384803002C48030032FE0320FFEFEFFF30
S3150000119048E60320E4DD032090E603206C480300C4
S315000011A07448030098E6032095E603207C48030074
S315000011B03919000022210FF22C3000F019BA002153
S315000011C00160012141607047002202E041684260EF
S315000011D008460128FAD1704738B5044602E0284689
S315000011E0FFF7F2FF00F0B7FE2168012521B14D6837
S315000011F001224A600021216000F0B3FE012DEED1EC
S315000012006068FFF7E1FF0120606031BD406800B112
S315000012100120704710B50446606810B94FF0FF30E2
S3150000122010BD20688A498068884206D000F0ADFE6D
S31500001230A168081AB0F1004F00D3002010BD2DE9B7
S31500001240F84F0D4600270446686866680FF2942A30
S31500001250A8429046A14610D18421504600F0C8F914
S315000012600BE05FEA080006D02FB9A868B168401AFB
S31500001270584528BF4F46B1467668DFF8D8B1AE422A
S31500001280EFD16868A1450CBF6060C9F80400B8F1E9
S31500001290000F1BD08FB96E68AE424F4606D19E2115
S315000012A0504600F0A5F901E037467668012E04D0D5
S315000012B0A868B168401A5845F6D3A74203D16068BA
S315000012C06860656002E0786868607D60BDE8F18FFF
S315000012D070B5044600F059FE05460120A56020734E
S315000012E003E0316849683046884700F034FE2168DB
S315000012F0012639B14E687268B24212BF4A600021B7
S3150000130021600AE06168012909D08A68AA1AB2F147
S31500001310004F04D80E46716861600021716000F0CC
S3150000132020FE012EDDD10020207370BD38B5041DCE
S3150000133000E02C1D2568012D0BD028688068002848
S31500001340F7D0204601F097FC296889682846884727
S31500001350EFE731BD2DE9F04104460E4620683C49D1
S3150000136005688068884219D126B1F6210FF27410FB
S3150000137000F03EF900F0EFFD616841B9296809B94E
S31500001380646003E04968616029684C602C6000F085
S31500001390E8FD2046BDE8F04101F0AEBD00F0F5FDE8
S315000013A080466FF00040864208D2287B06EB08078D
S315000013B030B1A868B84203D17F1C01E000EB0807F2
S315000013C02046FFF723FF48B1A068874210D046B9F0
S315000013D0A8EB0000B0F1004F03D809E06868606030
S315000013E06C60A76021462846BDE8F041012226E749
S315000013F0BDE8F08138B5044615492068056880685F
S31500001400884218D100F0A7FD616881B1A14203D1DD
S31500001410002129600AE011464A68A242FBD12A68E7
S31500001420A24208BF296062684A6000216160BDE887
S31500001430324000F096BD2046FFF7E8FE38B120683E
S31500001440006800222146FFF7FAFE0020606031BDE9
S31500001450B5110000010000802DE9F24F0546DDF8C8
S3150000146028806E6892469B46A946002401E0B14654
S315000014703E46012E19D03068009977688842F6D129
S315000014805FEA0A0004D059463046D0470028EED01D
S31500001490A9450CBF6F60C9F804705FEA0800746064
S315000014A001D1304602E03446E2E72046BDE8F28F3D
S315000014B02DE9F04147680C461546984600E0374648
S315000014C0012F0CD038687E68A042F8D1280004D0DD
S315000014D041463846A8470028F1D0384600E00020AB
S315000014E0BDE8F0816576656E742D71756575652E3E
S315000014F063000000814233D210441144401E491E4D
S3150000150010E011F8013900F80139121F11F80139FC
S3150000151000F8013911F8013900F8013911F80139DB
S3150000152000F8013992B2042AEBDA93B2002B1EBFFF
S3150000153011F8013900F80139521EF6D1704711F839
S31500001540013B00F8013B121F11F8013B00F8013B7B
S3150000155011F8013B00F8013B11F8013B00F8013B93
S3150000156092B2042AEBDA93B2002B1EBF11F8013BAC
S3150000157000F8013B521EF6D1704710E011F8013B0E
S3150000158000F8013B121F11F8013B00F8013B11F86E
S31500001590013B00F8013B11F8013B00F8013B92B218
S315000015A0042AEBDA93B2002B1EBF11F8013B00F8B8
S315000015B0013B521EF6D17047130003D00A46194666
S315000015C001F09ABD704710B500E0521E93B223B1E8
S315000015D000F005F8F9D0181B10BD002010BD10F85A
S315000015E0013B11F8014BA3427047000042DE7047F1
S315000015F038B504460D4602F0B9F802F066FF02F06F
S3150000160071FF2946204602F073FF2B4622466949A0
S31500001610012003F0DCF829462046BDE83440E5E722
S3150000162065482DE9F047654D01682E1D4FF4206889
S315000016307165016AB16562490A68F2654968316691
S31500001640416A7166816AB166C16AF166016B31678A
S31500001650806B706796F8340040074CBFF46BB46B30
S3150000166003F05DF90022F2648442564A014624BF23
S31500001670A2F1200AA2452746316505F19003DFF85D
S3150000168048C1DFF848E118D3A0693064E46974649E
S31500001690746DC4F30804062C13D1704511D360454C
S315000016A00FD200884DF64264A0420AD130685860D5
S315000016B040F201787068986003E000273764776429
S315000016C007464348814202D2014600E0091D08460A
S315000016D0904203D20C68B4F1CD3FF7D03D49081AC9
S315000016E0B0640021002005EB8004401C0628E16759
S315000016F0F9D3002003E0C0B205EB8004E16797420E
S3150000170023D252F8041D7145F9D36145F7D2CC07AF
S31500001710F5D5002405EB8409D9F87C90894502D0DB
S31500001720641C062CF6D3062CE9D1002814BF401EF3
S315000017300520E0E7B16F002405EB8402641CD2F8B3
S315000017408070D767052CF7D319600146481EC9B2C9
S315000017500029EFD1706DC0F30800032810D00428CB
S3150000176011D0052812D0062813D00C2817D012281D
S3150000177018D119480068800719D540F2025816E0BA
S3150000178040F6012813E040F6022810E040F6032850
S315000017900DE0B8F5206F0AD140F6042807E040F6C0
S315000017A0052804E018B1432838BF40F6072840460C
S315000017B0BDE8F0878448030004ED00E00000002047
S315000017C000E300E0E8DB032088350300DC040000CA
S315000017D09C000020E8DB03201C2005407047704772
S315000017E07047704770B5044643381E4D08D0401EFA
S315000017F0012809D9801E01280ED9C01F31D02AE040
S31500001800BDE8704003F0F3BD03F0C9FD20B103F05D
S31500001810EEFD0028FBD170BD134E307808BB0120C9
S315000018203070002003F05CFE442C11D00CD3462C03
S3150000183005D00DD3472C07D140F6010001E040F654
S31500001840020002F0F3FF03E0C5212846FFF7D0FEB1
S315000018500020307070BD2846BDE87040D721FFF7E4
S31500001860C7BE70BD505A03003AFE032070470020E1
S315000018707047704700207047704770477047704741
S315000018807047704701F012BD70471CB5059C019466
S31500001890049C0094FFF7F8FF13BD000010B5DFF8B5
S315000018A05C4404F1180000F053FC04F1100000F051
S315000018B04FFC04F11200BDE8104000F049BC38B5F9
S315000018C00546A81C03F07DFE29786C785B2902D1B9
S315000018D0072C00DA60B9034622460FF2344002F0C4
S315000018E045FEBDE8344069210FF23C40FFF780BE5B
S315000018F02146BDE8384002460FF23C4002F036BEB3
S31500001900F8B5044616460D46F01C00F0D8F9070057
S3150000191001D10020F2BD00F0B8FE012100F8011F40
S31500001920447032462946801CFFF7E4FD00F0C0F9FA
S3150000193000F01AF90120F2BD2DE9F14F5FEA010826
S3150000194026D0DFF8B853E88A01004AD0042854DAD2
S31500001950C0F104014145BABFC0F10406F6B25FFA10
S3150000196088F60099281832460C30FFF7C3FDE88A3E
S315000019703018E88280B204283CDB05F10E0003F043
S3150000198020FE00F09AF9044620B9E88A801BE88216
S31500001990002030E000F079FE697BC155A8EB060116
S315000019A0B942B4BF1FFA81F9B946B9F1000F04D0A4
S315000019B000994A463144FFF79DFDE88A484409EB01
S315000019C00601E882A98280B2391D88420AD1002028
S315000019D0E8820022214600F0BEF805F10C00FFF770
S315000019E06EFF37E0688A20B1F0210FF23C30FFF736
S315000019F0FFFD6C824046BDE8F28F05F10C00FFF753
S31500001A005EFF688A00F041FE074605F10E0003F00E
S31500001A10D8FDE98A0B46061DF21A4245BABF001DDB
S31500001A20441A44460099F818A2B2001FFFF762FD57
S31500001A30E88A2018E88280B2B04202DA0020A88242
S31500001A40D8E70020E8820022698A00F084F80020A6
S31500001A506882AC82AE8A39E0A01C03F0B2FD00F0C9
S31500001A602CF9814608B9AE82C5E700F00EFE824623
S31500001A70A8EB0600001F8742B4BFBB46ABF1040BC0
S31500001A80042200F06CF81FFA8BF2211D5046FFF776
S31500001A9031FD687B0AF807001FFA8BF1B9420CDAB0
S31500001AA0081DE882688A28B14FF4A0710FF27820E9
S31500001AB0FFF79EFDA5F812901BE00022494600F0B4
S31500001AC04AF8B819C61CB6B2761CB6B2464510DA44
S31500001AD00098805D5B28F7D100988419301D8045F9
S31500001AE0A8EB060BB8DA1FFA8BF200F038F8A5F867
S31500001AF016B00020A88204E0BA1E92B2611C03F060
S31500001B0008FF288A00289BD0002105F1100003F069
S31500001B10C1FF064600F0D1FD0746304600F0B5FD90
S31500001B200446E019A7F1010A10F8019C1FFA8AF190
S31500001B30304600F0DBFD48460128DDD0052806D1F9
S31500001B401FFA8AF22146304606F09AF9D9E731465D
S31500001B5003F052FED5E705F1100003F06ABF2146F7
S31500001B6005F10C00FFF7C6BC70B5644C208B00284D
S31500001B707CD0002104F1180003F053FF054600F065
S31500001B8084FD064621887078D1B901281CBF052836
S31500001B900628E07205D10FF2C01002F0E7FC022021
S31500001BA007E00FF2CC1002F0E1FC284606F022FA1C
S31500001BB0801DA080284600F080FDA188401A608024
S31500001BC0FFF7ADFA002851D0A07A042813DA5B207B
S31500001BD0A071E07A6188E07104F1080003F0FBFC73
S31500001BE0A07AC0F10401204489B2801DFFF77CF879
S31500001BF0A17A4018A072A07A042837DB2088618871
S31500001C00A288091A324489B21044FFF76DF8218878
S31500001C100FF214164018E17A208001291CBF05290D
S31500001C20062906D1618880B281420DD24FF4E57152
S31500001C3007E0284600F041FD2188884204D240F2A0
S31500001C40CD113046FFF7D4FC2088618888420DD13B
S31500001C50FFF787F8002104F1180003F01BFF204668
S31500001C60BDE870400C220021FFF7A6BC70BD80B510
S31500001C70FFF77AFFFFF775F82048018B002904BFAC
S31500001C80008A002803D1BDE80140FFF761BA0120B0
S31500001C9002BD38B504460D46284600F0F6FC002283
S31500001CA044702946164803F0C4FEBDE831405BE7A0
S31500001CB000223946124803F0BCBE0746781C0021B4
S31500001CC080B200F0F8BD38B50C4C258B1A212046A1
S31500001CD006F056FB258331BD80B50FF2AC0002F04D
S31500001CE045FC00F0F3F8FFF7F1F9BDE804401A21CE
S31500001CF0024806F045BB00F003B9000040F203209D
S31500001D0058F203200FF2880002F030BC00000000F9
S31500001D106672616D65206572726F72202825782063
S31500001D20257520257529000073657269616C2D6C17
S31500001D30696E6B2E63000000727820737461727492
S31500001D402028747970652025752C206C656E677463
S31500001D50682025752900000073657269616C20731F
S31500001D6074617274206D676D742054580000000011
S31500001D7073657269616C2073746172742064617436
S31500001D806120545800000000696E6974000000006C
S31500001D904661696C656420746F2073656E64206D9E
S31500001DA0616E6167656D656E7420726573706F6EC6
S31500001DB0736500000A46090241EA12214840C0F351
S31500001DC00311484080EA003041010206C9B2D20E32
S31500001DD041EA0221484080B27047000080B532498E
S31500001DE0C86020B10120087000F008F801E0087012
S31500001DF008710020BDE8024006F08CBF10B52A4CE1
S31500001E00207838B108F05DF9E168201DBDE8104082
S31500001E1008F090BA10BD10B504460FF294010020E8
S31500001E2008F0A2FC2046BDE8104008F0E3BC2F28CD
S31500001E300ADA1E4A32F81030C918B1F5803F28BFB9
S31500001E404FF6FF7122F81010704710B504462F2C7C
S31500001E5004DBF5210FF26400FFF7CAFB134830F8E4
S31500001E60140010BD2F2803DA104A002122F81010A2
S31500001E70704738B50146FF290C4C09D1002534F8C6
S31500001E801510E8B206F056FE6D1C2F2DF7DB31BD9E
S31500001E9034F81110BDE8344006F04CBE5E22002135
S31500001EA00248FFF789BB000094F30320A4F3032044
S31500001EB049434D502052583A200000006E63702D61
S31500001EC06576656E74732E630000000000B593B0EE
S31500001ED00AA80A49242208F059FD68460AA92422BC
S31500001EE008F054FD1020ADF82400ADF82600694630
S31500001EF0202008F0DCFF13B000BD00001C630300C7
S31500001F0010B59AB001A8642106F03AFA002404E05C
S31500001F109DF8001001AA1155641C6946202009F09D
S31500001F2085F810B9E4B2642CF2DB202008F0A5FF96
S31500001F3008B1FEF77BFCE0B218B1E1B201A8FFF7E9
S31500001F4096F81AB010BDCAB20146202009F0CAB8E8
S31500001F50202008F092BFEFF31180602181F31188F1
S31500001F60704780F31188704780B509F020FA09F0B0
S31500001F702BFA80B202BD80B509F019FA09F024FAED
S31500001F80FA21B0FBF1F080B202BD80B509F00FFA7C
S31500001F90BDE8044009F018BA80B509F030FB0748DF
S31500001FA000214160001D09F08FF920B139210FF29F
S31500001FB01400FFF71DFB002002BD000008F50320FA
S31500001FC000F008B873797374656D2D74696D657268
S31500001FD02E6300007047000010B5DFF8DC4A02F0FF
S31500001FE0A5FC606102F09EFCA0616069E06118B129
S31500001FF000F007F8652803DABDE810409D21A3E04C
S3150000200010BD10B5DFF8B04AA069E169884202D276
S31500002010AF2100F0F3FBA069E169401A4FF6FE71AB
S31500002020084010BDDFF8901A4A69904203D3C96987
S31500002030884200F039BD00207047002818BFFFF71E
S31500002040F1BF0120704730B1DFF86C1A4969401AB8
S315000020504010401C80B27047010001D1002070473B
S31500002060DFF8541A496901EB4000801E704740882A
S31500002070C0F30C00C01C0004800C4000001D80B2A0
S31500002080704710B50446FFF7F2FF04EB4000DFF897
S31500002090281A4FF6FF7300E0801CCA69904202D2EC
S315000020A002889A42F8D010BDDFF8101A086070470F
S315000020B0DFF8081A0FF28400086070472DE9F8432C
S315000020C0DFF8F45980462889A0B3B8F80200000466
S315000020D030D4DFF8E8490FF264012068DFF8E099B0
S315000020E009F04EFB20B94FF4BA714846FFF780FA63
S315000020F0002701E07F1CBFB22889874204DB4FF42A
S31500002100BB714846FFF774FA286A216800EBC706D8
S31500002110306808B9316003E009F032FB0028E9D1E4
S31500002120B088401CB0804046FFF7A1FFF18801EB64
S315000021304000F080BDE8F18300000000756E636C1E
S3150000214061696D65640000000FF68430FFF750BAD0
S3150000215070B50446DFF86009807801281AD1208816
S31500002160FFF77AFF04002FD0022526463046FFF7F8
S31500002170A5FF708840F40040708036F81500FFF720
S315000021806BFF060002D070880004EFD56D1C042D8D
S315000021901ADAEAE7022817D1FFF7DDFE054620889E
S315000021A0FFF75AFF06000AD07088800403D540F274
S315000021B0392100F023FB3088C0F30E00208028462A
S315000021C0BDE87040FFF7CDBE70BD00B5ADF5806DC2
S315000021D0ADB04FF49662694600F073F80DF5806D68
S315000021E02DB000BD2DE9F84307468846FFF73FFFAF
S315000021F045007888C0F30D007880800422D5FFF76B
S31500002200AAFE04463846FFF71EFF81464046FFF702
S315000022101AFF0646AAB239464046FFF76BF9002078
S31500002220DFF8941806E001EB400293894B4508BF9E
S315000022309681401C0A789042F5DB2046BDE8F243C1
S31500002240FFF78FBEAAB239464046BDE8F843FFF70E
S3150000225051B910B50C4601E0FFF713FFA04202D2B8
S3150000226041880904F8D510BD70B5DFF84C5804460E
S31500002270A878012804BF686A00281DD1204603F00B
S31500002280C0FB022818DB0021204603F0CAFB0DE044
S31500002290012100F0A0FA78B93046FFF7DDFE00888C
S315000022A0000409D43146204603F0EAFB0646300016
S315000022B0EED16C62012070BD2046FFF749FF002079
S315000022C070BD2DE9F74FDFF8F0470020E08060622F
S315000022D092B0FFF740FE0121A1704FF0000AA188DD
S315000022E0ADF802100021A180E1690191FFF739FEE6
S315000022F02089C200206A92B20021FFF75DF90DF134
S315000023000200FFF725FFFFF726FE217862785518B1
S31500002310FFF727FEEDB206E004EB46000C30FFF7B0
S3150000232017FF06F1010A5FFA8AF6AE42F4DB12984D
S3150000233048B1002501E080476D1C1298EDB250F8B7
S3150000234025000100F7D1D4F814904FF0000B0125B9
S315000023500DF1080A0198814502D3BBF1000F37D071
S31500002360BBF1000F06D0ABF101005FFA80FB5AF813
S315000023702B8004E04846FFF784FEC8468146B8F83D
S31500002380020000F44041B1F5004FE3D140F4804033
S31500002390A8F80200022638F81600FFF75DFE0700CF
S315000023A012D0788801040FD440F400407880384673
S315000023B0FFF784FEBBF1100FBDBF4AF82B700BF17F
S315000023C001005FFA80FB0025761C042EE3DBC1E7E3
S315000023D0002DB8D0656A55B12888FFF73DFE68889C
S315000023E0000447BF002060622846FFF7B1FE0020C8
S315000023F0ADF800008246606A0025A0B3008800217F
S3150000240000F0E9F9ADF80000002100F0E4F9064615
S31500002410BDF8000000F051F90546304600F04DF9D0
S315000024208246BDF8500050451ADB300018D000F047
S3150000243044F90746304600F028F9014613983A4613
S31500002440FFF758F83046FFF707FE18B14188C1F389
S315000024500D0141800022606A314603F03BFB02E039
S315000024600020ADF800006669B346B0460BE0308840
S31500002470000404D5D6F80E0008B100F03EFD304643
S31500002480FFF7FFFD06460198864223D23046FFF746
S31500002490EEFD81463046FFF7D6FDBDF800108842B6
S315000024A006D10AEB0500C01C8010400000F10409AB
S315000024B070880004DBD55846FFF7C5FD318801F466
S315000024C00041084330801FFA89F00BEB400B06EB06
S315000024D04008D4E70220A0700DF10200FFF738FE95
S315000024E06846FFF735FE129860B14FF0000902E02A
S315000024F0804709F1010912985FFA89F950F8290015
S315000025000100F5D16769B94611E0022639F81600CF
S31500002510FFF7A2FD20B10088C0F30E0029F81600CF
S31500002520761C042EF2DB4846FFF7ABFD8146C1451B
S31500002530EBD30BE00746FFF7A4FD4146FFF789FE04
S315000025404845F7D3019881452BD13746474549D2AF
S315000025503846FFF796FD002F0646F6D07888000429
S31500002560F3D500F088F8B84204D17888C0F30D009E
S315000025707880EAE704D201463846FFF733FEE4E7FF
S31500002580019707E03046FFF77CFD4146FFF761FE05
S3150000259037460646464504D2308800F06DF8864236
S315000025A0F0D337B100F067F801001CBF3846FFF7DB
S315000025B019FE0198B946C3E73846FFF758FD0646A7
S315000025C05846FFF740FD8146720092B2394658469A
S315000025D0FEF790FF002249460DF1020003F029FAAA
S315000025E00BEB460BFFF7B7FC064617E021784018C1
S315000025F0401EC0B204EB400000218789818138006B
S3150000260009D0FFF729FD00F037FA002239460DF10F
S31500002610020003F00EFA6078401E607060780100D8
S31500002620E4D10021201D03F035FAFFF715FD070060
S3150000263006D1BDF80200A080C4F81CB00020A0702E
S315000026403046FFF78EFC002FB6D1BDF8000078B1FA
S315000026500446FFF701FD07001CBF0AEB0500788062
S31500002660204600F012F8139952462844FEF742FF1E
S3150000267015B0BDE8F08F3888C0F30E00ECE480B5E5
S31500002680FFF7EAFCBDE80240D7E410B5040012D01B
S31500002690FFF7F5FF18B940F2394100F0AFF82046D0
S315000026A0FFF7DAFC38B10188090402D5D0F80A0030
S315000026B010BD083010BD002010BD10B5010013D0AC
S315000026C0FFF7CAFC0446FFF7B8FC18B940F25341BD
S315000026D000F094F844B12088000401D5208910BD8B
S315000026E06088C0F30C0010BD002010BD2DE9F0413C
S315000026F004460D46FFF7B0FC060040D0FFF79DFCF0
S315000027000FF2CC5718B940F2664100F0A0F8204607
S31500002710FFF7D3FF80463046FFF7B3FC4545044636
S315000027202DD003DB40F26E4100F091F830880004B2
S3150000273048BF358123D475803046FFF798FC06EBF9
S315000027404005FFF708FCDFF87013CA69661B944260
S3150000275004BFCD610026FFF704FCB6B2082E06DAE8
S3150000276032462846BDE8F041FF21FEF725BF082284
S3150000277000212846FEF720FFA6F108006880BDE884
S31500002780F081F8B507460C46FFF766FC0646384664
S31500002790FFF793FF051B8442ADB21BD003DB4FF45A
S315000027A0936100F02BF8AEB13088000406D5D6F858
S315000027B00A0034812844C6F80A00F1BD3846FFF7FE
S315000027C064FF22464119FEF795FE21463846BDE8CC
S315000027D0F4408BE7F1BD38B50C46FFF73DFC05002C
S315000027E00AD0FFF72AFC18B940F2AB4100F006F810
S315000027F005EB4400808832BD002032BD0FF2D04088
S31500002800FEF7F6BEF8B50C461546FFF725FC0600A2
S315000028100FF2BC4714D0FFF710FC18B940F2B641CE
S3150000282000F015F82846FFF717FCFFF706FC18B965
S3150000283040F2B74100F00BF806EB44008580F1BD8D
S315000028403846BDE8F44040F2BA41FEF7D1BE3846FC
S31500002850FEF7CEBE70B504460D46002608E0FFF72B
S315000028602CFF294686192046FFF7B5FFB6B2044667
S315000028702000F4D1304670BD38B5C01C8E4C801097
S315000028804500A06AADB218B140F2CF41FFF7B6FFDE
S31500002890A069E169411AC903B5EB114F05DA690070
S315000028A049420844A062012032BD002032BD82495F
S315000028B00020886270472DE9F84F0446E01C80101E
S315000028C07D4D40000027001DAE690FF2044AB4F5A5
S315000028D0005F88461FFA80F904DB40F2E641504665
S315000028E0FEF786FEFFF737FB8346E869A96A09B952
S315000028F0301A03E05FEA080202D0081A461008E020
S31500002900701A4610B0B220B940F20C515046FEF78C
S315000029106FFEB6B24E4515DBEF6907EB4900E8617D
S31500002920A86A28B1B8F1000F04BF00EB4900A862FD
S3150000293000207C80B880F880388004F1080168891E
S31500002940081868815846FFF70CFB1FB901211F20A4
S31500002950FFF76DFA3846BDE8F24FFFF774BBF8B5DE
S3150000296004460D46164600210A20FFF7A4FF074637
S31500002970FFF772FB48B10681C0F80A40018841F4AE
S3150000298000410180C0F80E503846F2BD70B50446CD
S315000029900D4611462846FFF78EFF06463CB130002D
S315000029A005D0FFF772FE2A462146FEF7A3FD304604
S315000029B070BDF8B504460D46164615E02846FFF7E5
S315000029C07CFEB7B2874288BF07462846FFF75DFE02
S315000029D001463A462046FEF78DFD01212846FFF7BF
S315000029E0FAFE3C440546F61BB0B20028E6D1F1BD1E
S315000029F02DE9F84381460E461446FFF7ACFA2E4DF4
S31500002A008046287801002BD0401E2870C0B205EB06
S31500002A104000A9788789F9B981813846FFF71CFB00
S31500002A2000F02AF83846FFF730FE32464946FEF7F0
S31500002A3061FD3846FFF729FE224600213044FEF7A5
S31500002A40BBFD00223946281D02F0F3FF4046FFF782
S31500002A5088FA0120BDE8F2836878401C6870E1E7D7
S31500002A60A019012180B2FFF726FF0700DAD1404600
S31500002A70FFF777FA0020EDE720B141884DF6FF72A7
S31500002A8011404180704738B5FFF765FA04460021CA
S31500002A900C4802F0FFFF05462046FFF762FA28467B
S31500002AA032BD05488188481E8041C00F70470249E3
S31500002AB0002088807047000008F6032098E1032074
S31500002AC0D02C00000CF603202DE9F0410446884680
S31500002AD017461E464046FFF7D8FDC5194046FFF784
S31500002AE0ECFDB919884203DA40F2B151FFF786FED0
S31500002AF0300013D00698010003D1324629462046FD
S31500002B0004E0012832462146284603D1BDE8F041BB
S31500002B10FEF7F0BCBDE8F041FEF72FBDBDE8F08141
S31500002B2010B50C46FFF7B1FD00B1005D10BD38B51C
S31500002B300C461546FFF7A9FD00B1055531BD38B560
S31500002B400446FFF7BAFD05462046FFF79EFD2946D7
S31500002B50BDE83840002219E770B50D46691C0446E9
S31500002B60C9B2FFF7DDFF060229462046FFF7D8FF68
S31500002B70301880B270BD00B583B002238DF80420F2
S31500002B80120A8DF80520012200920A46014601A884
S31500002B90FFF79AFF07BD10B50446FFF743FA10B1D9
S31500002BA0A4F108000CE010BD10B5FFF755FA0400BB
S31500002BB004D0FFF75CFA04EB400001E0002010BDF2
S31500002BC0BDE81040FFF73FBAF8B504460D46FFF7DB
S31500002BD043FA060016D07088C0F30C072846FFF7A4
S31500002BE03BFA07F00101CF19FFF741FA07EB40075F
S31500002BF02046FFF7D9FFA84203D040F26E61FFF7E7
S31500002C00FDFD7780F1BD2DE9F0410C46FFF724FA72
S31500002C1005002DD06888C0F30C0606F00100801967
S31500002C20001B04F00101471AE01C20F003002844B1
S31500002C3000F108082846FFF700FABFB208B1A6421D
S31500002C4003D240F28A61FFF7D9FDB44210D0092FB2
S31500002C500EDB6C80082200214046FEF7ADFCA7F192
S31500002C600800A8F802004046BDE8F041FFF7EBB9BE
S31500002C700020BDE8F08170B5044682B02068FFF7F9
S31500002C808AFFADF8000000B3FFF7E6F905001CD097
S31500002C9000880FF23C06000404D540F2A5613046D8
S31500002CA0FEF7A6FC6846FFF753FABDF80000FFF7EB
S31500002CB0D3F90546FFF7C1F920B940F2AB613046BA
S31500002CC0FEF796FC05F10800206073BD00000000C9
S31500002CD06275666665722D6D616E6167656D656E9E
S31500002CE0742E63007CB506F02FFE044606F036FE11
S31500002CF0054606F060FE8F4E0094B11C0191024617
S31500002D002B460FF29421002007F020FD082306F140
S31500002D1012020FF2BC21002007F0EBFC002007F0A6
S31500002D2009FDBDE8734006F038BE002009F09EBCE0
S31500002D3080B5FFF766F9BDE8084002460FF29C2110
S31500002D40002007F003BD012009F063BE30B504463C
S31500002D5099B0206802F0B2FCC5B26846642105F05D
S31500002D600FFB2168642D31BF2A4663224819A0F162
S31500002D7063016846FEF7BEFB6168684605F0A0FF82
S31500002D8019B030BD1FB5044669466B4809F0F1FE1F
S31500002D90684609F0D0FF204605F03FFF1FBD38B555
S31500002DA00546664C04F1A4000AF053F92046FEF7E6
S31500002DB006FAFEF791FF06F0FCFC614806F089FD75
S31500002DC00AF0F3FA5F480BF0DAF95F481DB169784B
S31500002DD00170A87802E00121017000205B490870AB
S31500002DE00AF065F904F110000AF032F90BF0E4FF7D
S31500002DF0016809B1FFF7AAFF01F067FB544D287877
S31500002E00FF2807D0FEF733FF20B928780BF0E0FF44
S31500002E10FF202870FEF76FFF06F05FFD0AF0CEFA7E
S31500002E204C4807F0CEFA0FF2482007F0CAFA2046BF
S31500002E30FEF74EFA002000900023474A0FF2402189
S31500002E4004F110000AF0EFF80028D5D00FF23C127A
S31500002E5000F04DF8D0E7F0B583B00AF0A4FA0BF015
S31500002E60CDFF0CF065F8012300224FF4E13100207C
S31500002E7001F094FC0BF099FF40F2A174C440E00706
S31500002E8008D500200CF058F800200CF0E9F80020D6
S31500002E900CF0A4F92C490FF2F4040120087000206C
S31500002EA02A4908702D480AF0D3F822460FF2581125
S31500002EB0002007F04BFC06F051FD054606F044FDE8
S31500002EC0064606F078FD074606F075FD02460195B2
S31500002ED000963B460FF24011002007F037FC2246D1
S31500002EE000F005F80020FFF75AFF0020FEBD0FF2A4
S31500002EF01011002007F038BC70477047002070475B
S31500002F0080B50FF24410FFF7CFF8FEF7C7FC0FF2BB
S31500002F104410FFF7C9F80948FEF708FA0FF2441003
S31500002F20FFF7C2F80E48FFF713F9BDE80140FFF7B7
S31500002F30BFB8000054F50320C0F603205CF203205E
S31500002F4071590000852D0000D0F9032047FE0320AB
S31500002F50F0E30320685A03007F2D03006CF2032080
S31500002F6058FD032010B50B46144638B101461846E5
S31500002F700CF060FA20460CF011FF0120BDE810406D
S31500002F800AF0C7BF704770470000000069702D6DDA
S31500002F906F64656D000000006368616E6E656C208D
S31500002FA025752C2070616E20696420307825327872
S31500002FB02C2073686F72742069642030782532780B
S31500002FC0206E6574776F726B2069643A20257300F2
S31500002FD06578742070616E3A2000000025752062C5
S31500002FE0797465732072656D61696E696E672061BB
S31500002FF07420746F70206F6620686561702E000003
S3150000300025733E200000000025732D61707020722C
S3150000301065616479000000006368616E6E656C200E
S315000030202575202830782578292C206E6F64652038
S3150000303069642030782532782C2070616E206964AE
S31500003040203078253278000055415254206C696E44
S315000030506B000000617070206576656E7420717576
S31500003060657565007365744E6444617461000000A3
S3150000307098F30320FD1D0000000000000000000082
S315000030806C630300632D030074630300786303001D
S31500003090673003007C63030080630300673003002E
S315000030A07C630300886303006730030094630300B6
S315000030B098630300312D000074630300AC630300C2
S315000030C0E52C000074630300B46303002B2D00009D
S315000030D074630300C0630300899E000074630300E9
S315000030E0C8630300472D000074630300000000005E
S315000030F0000000000000000062F30F2262F31F428E
S31500003100401810F0030308D0C91A1FD3DB0748BFC5
S3150000311000F8012D28BF20F8022D130030B4144604
S315000031201546103928BF20E93C00FAD8490728BFC0
S3150000313020E90C0048BF40F8042D890028BF20F87C
S31500003140022D48BF00F8012D30BC7047C91818BFC2
S3150000315000F8012DCB0728BF00F8012D70470000AD
S3150000316080B500230093134601220CF075FE01BDC5
S3150000317000F08EBE00F08CBE10B54C00014600F08B
S3150000318027FD22460CF047FEA04201D0002010BDCC
S31500003190012010BD80B500F01BFD0CF0CAFE00B189
S315000031A00120C0B202BDDFF8180B407D00B101203E
S315000031B07047DFF80C2B117B01B9704780B50146CB
S315000031C0106A0CF00CFF20B1BDE8044040F271110A
S315000031D0BEE201BD80B500F0FBFC0CF015FE00F070
S315000031E00300032801D1012002BD002002BD80B5E5
S315000031F0B0F5004F07D100F014FEDFF8D80A00F052
S31500003200D0FCBDF80000DFF88C1AC883002002BD90
S315000032102DE9F04F440900F01F050027DFF8808BE9
S3150000322000E07F1C98F80660F8B2B04236D2D8F8B3
S315000032300800FFB250F827004FF0000C01E00CF137
S31500003240010CC67E5FFA8CFEB645EAD2D0F81CE0C9
S315000032505FFA8CFC142616FB0CF6B6449EF8086042
S3150000326006F00706A642EAD19EF80960B542E6DBFB
S315000032709EF801B09EF8009006EB0B0AAAEB090A2D
S31500003280AA45DCDB11B1AC1B4C440C7012B19EF8A4
S31500003290081011701BB1C3F800E000E00020BDE883
S315000032A0F08F400918BF40F01800704710B5DFF8DE
S315000032B0144B206A0CF03DFE0246206ABDE8104021
S315000032C000210CF052BE0B38102834BFDFF8D40AA8
S315000032D0DFF8F40A006870473EB568460021002210
S315000032E000230EC0DFF8AC0901788DF80010817A52
S315000032F00A0018BF022914D10079DFF8C85A00F075
S31500003300BBF8044600F00EF858B1286A01220021E5
S315000033100CF07CFD00F006F818B140F25B2100F0DD
S315000033206EFB37BD286A6A4621460CF0B6BD2DE90C
S31500003330F041044604F01F001B2886B034D200205A
S3150000334000906B46002200212046FFF761FF070030
S315000033502AD02046FFF7B7FF5FEA000824D0DFF83F
S315000033606069DFF8445AF06B804515D001A84146E4
S31500003370062207F0FBFA306AC6F83C8001A90CF079
S3150000338090FE88B9306A03A90CF099FEB5F91C10B5
S31500003390306A0CF061FE38B90098B0627762009826
S315000033A0002818BFC06801E08A200EE0F062297983
S315000033B08C421CBF2C71FFF78FFF96F90D00C101DF
S315000033C0306A09B20DF036F8002006B0BDE8F0818B
S315000033D0DFF8D40900797047DFF8CC09B0F91C0092
S315000033E0002854BF05216FF0040108180A2190FB3C
S315000033F0F1F040B270470A2110FB01F0FFE7F8B583
S3150000340000F5D77240F277239A4201D38B20F2BDA2
S31500003410DFF8AC48DFF89059A26A0A23002A1EBFDB
S31500003420AE7F06F0C006802E12D0A67B86B992F932
S31500003430026016FB03F7B842B8BF16FB03F007DBC2
S3150000344092F9032012FB03F68642B8BF12FB03F083
S31500003450217B61B10146206A0CF0FEFD18B140F2F5
S31500003460B92100F0CCFA206A0CF009FE01E010FB4D
S3150000347003F0A8830020F2BD38B50446FFF723FF0A
S3150000348090B10023002200212046FFF7C1FE58B16B
S3150000349004F01F051B2D07D22046FFF702FF18B9BF
S315000034A00B2D01DB284632BDFF2032BD7047C0B26E
S315000034B0704710F1630F01DA0020704710F1240FF6
S315000034C001DBFF20704764300002411100EB916080
S315000034D08004000E704770B5DFF8E447DFF8985AAD
S315000034E000202064687828B10CF0A8FF012818BFD6
S315000034F0032801D1002070BDE16ADFF8C43ADFF885
S31500003500A82800291FBFA66A3669002E022817D1EF
S315000035102364906900F5FA709061E07C18B1002090
S315000035200021642203E0E87829794FF4A072207024
S31500003530A2806170A878A0708020E080002030E032
S31500003540DFF8805A9069AE4213D1DFF87C3A2364E3
S3150000355000F57A709061E07C88B9087920700122C4
S315000035608B7808799A40101891F903201018401E9C
S315000035700CE0236400F5FA709061E07C18B100203D
S315000035802080642005E0487820708878607008788C
S315000035900001A0804879A07008890001E080C888F1
S315000035A00001A06000F043FCE07094F90200010005
S315000035B048BF4042C0B270BD70B50446DFF8006730
S315000035C0257896F9140008B18C2070BDFFF783FFAB
S315000035D0B075DFF8A429DFF8D007417801746901D6
S315000035E001F5807181619379716C002BB37B1DBFEE
S315000035F0AD1EEDB221F0020141F0020173B912785D
S3150000360062B16278920609D56FF00102327541F017
S315000036100101826902F50872826104E049084FF0EF
S31500003620FF30490030757164032000F005F96A1C0B
S31500003630306A4FF4807392B221460CF027FF691C62
S31500003640884203DA40F21B4100F0D9F9002070BD30
S3150000365000000000F8B5DFF8685695F9141000244C
S31500003660091D04290FD8DFE801F0080E1010030029
S31500003670FFF7A2FF040008D0F2BD2C75286A0CF0F3
S31500003680C9FB8D20F2BD8C20F2BD0CF01BFFE8B10A
S31500003690286CDFF82C19884218D1A87DB0B1DFF864
S315000036A0D40A0068002811D5DFF8CC0AC168C160C9
S315000036B00122006800F00F0002FA00F0401E0142ED
S315000036C004D100F0FBFB64200CF0FEFEFEF743FC89
S315000036D0064695F9140010F1010F1CBF95F9140068
S315000036E010F1020F29D195F91400DFF8BC7640429B
S315000036F02875FEF739FC7862296C387949B9FFF7E5
S31500003700BBFE01466A6C286A07F110030CF0B4FB95
S315000037100BE0FFF7B1FE07F11001009101466A6C5C
S31500003720286AD5F840C02B46E04760B100202875CE
S315000037308C244FF0FF30786202E0002028758D243B
S31500003740286A0CF067FB3046FEF70BFC2046F2BDFC
S31500003750DFF8A40AFDF74CBF2046BDE81040FEF78F
S3150000376000BCDFF84406C08B70470000F8B5FEF7D2
S31500003770F2FBDFF820550446A87A012803D120463B
S31500003780FEF7EFFBF1BDDFF8741ADFF83465DFF8FA
S31500003790687A402008600122306A01210CF036FB6D
S315000037A0DFF85C1A4FF40010086069460FF28400D7
S315000037B000680090306A0CF031FE18B140F2C74143
S315000037C000F04AFE02208DF800006946306A0CF0CF
S315000037D002FE18B140F2C94100F03EFE306A0CF01C
S315000037E037FB002100200CF0B3FE00F051FB012056
S315000037F0A87296F91400001D072810D8DFE800F01B
S31500003800130F0707040B0B0B0CF035FF0BE06FF0E3
S315000038100300307507E0892000F085FB03E040F2E5
S31500003820ED4100F019FE2046FEF79BFB0BF032FB44
S31500003830F1BD0000040100002DE9F04DDFF85454FD
S315000038400446A87AA04282B063D00FF2CC01DFF81A
S31500003850B4690968DFF8A089DFF86474DFF8A0A905
S31500003860009103284FF4001B4FD8DFE800F0470211
S315000038703E2B0BF018FB386A69460CF0CFFD18B1E9
S3150000388040F20A5100F04AF802208DF8000069461D
S31500003890386A0CF0A0FD18B140F20C5100F03EF869
S315000038A06879002814BF00220222386A02210CF02F
S315000038B033FF18B140F2115100F030F80320032C09
S315000038C0A87218D0CAF800B00220A8722879FFF7AB
S315000038D0D3FD0146386A00220CF0DFFA18B140F237
S315000038E0215100F01BF8022C13D0002C18BF032C1A
S315000038F00FD10020A872C6F800B00AE0022C08D149
S31500003900CAF800B00220A87203E040F2375100F076
S3150000391005F8BDE8F38D0000040200004046FDF7FF
S3150000392067BEDFF8000B807A7047000010B50328E9
S3150000393004460ED8DFE800F009020909FFF716FF72
S31500003940BDE81040002000F007BC012000F004FC98
S31500003950E5E1BDE8104040F25551F9E680B500F0CA
S315000039600FF804D500210175006A0CF053FADFF850
S31500003970B40A407A012802D1BDE80140F6E601BD4D
S31500003980DFF8A40A90F9141000297047DFF8940AAA
S31500003990407A704780B5032801DB012002BDDFF8BD
S315000039A0841A4872897A884218BFFFF7BFFF002041
S315000039B002BD2DE97C4FDFF8706A03EA010BD6E9F8
S315000039C0068929EA010528EA000402EA000A45EA0E
S315000039D00B0544EA0A044D4508BF44450DD0CDE920
S315000039E000230246306A0B460CF01AFD18B140F26D
S315000039F07D5100F004F8C6E90645BDE8738F0FF661
S31500003A006020FDF7F5BD38B5AD4D0446287BE8B11D
S31500003A10200018BFDFF8142A04D1A87C08B1402280
S31500003A2000E000220023DFF8040A0021FFF7C1FFAF
S31500003A30002C14BF08220022286A08210CF06CFE14
S31500003A4020B1BDE8344040F2B95181E631BDF8B548
S31500003A500446022C0FF6082503DB40F2E25100F083
S31500003A60A5F8974E307B002840F09780894FB87AAA
S31500003A70012803D04FF4BD6100F098F8002107F14A
S31500003A8028000CF0B1F9306218B940F2EB5100F0A1
S31500003A908DF8306A05210CF05CFB18B140F2EE514E
S31500003AA000F084F8306A0FF6CC110CF047FE18B11E
S31500003AB040F2EF5100F07AF8306A0CF073FE18B15C
S31500003AC04FF4BE6100F072F84FF0FF30DFF8602966
S31500003AD006230146FFF76DFF306A4FF001110CF027
S31500003AE056FA18B140F2056100F060F8306A4FF4FA
S31500003AF0803200210CF039FA306A09224FF0FF318A
S31500003B000CF00AFE18B140F20C6100F04FF80120EB
S31500003B1030730223DFF81C0900F043F8BDF80000FB
S31500003B20C0054CBF0020BDF8000070730CF0CAFC45
S31500003B30FFF769FFF88BFFF75AFB0CF0B3FE00F0B6
S31500003B4085F83879FFF7F3FB18B140F21F6100F0F2
S31500003B502DF8F87900F040F8387A00F058F8307C03
S31500003B6000F086F8787900F0CBF800F060F900F004
S31500003B702DF9B07C00F02CFBB7F91C00FFF73FFCD9
S31500003B80388C00F089F8788C00F0A6F8B87900F047
S31500003B900EF9601E8041C00FB8722046FFF7C6FEC0
S31500003BA0F1BD01887F2268460CF0F0BE2846FDF77D
S31500003BB01FBD80B500F00CF801210CF071F910F56D
S31500003BC0007F02D16FF07F0002BD8005001602BDA6
S31500003BD0DFF85408006A704710B504463848017B80
S31500003BE051B1611E8941006AC90F0CF02DFE18B152
S31500003BF040F25A61FFF703FF2000DFF8281818BFCC
S31500003C000120C87110BDDFF81C08C0797047F8B5EF
S31500003C100446FEF7A0F905461E48294E0472377B76
S31500003C20FFF7C1FA00F0010080F00100074204D05E
S31500003C30306A84F001010CF06CFF2846BDE8F240C2
S31500003C40FEF78FB9DFF8DC07007A70471C48017B66
S31500003C5001B9704780B5006ADFF8DC1700220CF066
S31500003C60E0FD20B1BDE8044040F2856170E501BD8C
S31500003C70DFF8B427117B107401B9704780B501468F
S31500003C80106A0CF0D5FD20B1BDE804404FF4D261B6
S31500003C905EE501BDE4DF03204349DFF88C37088485
S31500003CA0197B01B9704780B50146186A00220CF0ED
S31500003CB0B1FD20B1BDE8044040F2A16148E501BD77
S31500003CC048E50320DFF85C07008C7047DFF85407EF
S31500003CD0408C70472C6D03003349DFF84C3748841D
S31500003CE0197B01B9704780B50146186A00220CF0AD
S31500003CF08AFD20B1BDE8044040F2B76128E501BD68
S31500003D00DFF820174A79824200D1704710B58C7AC5
S31500003D104871012C02D0FFF729FD00E010BD2046B6
S31500003D20BDE8104088E510B500F032F800F02BF839
S31500003D300146206A01220CF0A8F820B1BDE8104027
S31500003D4040F2D96104E510BD80B5FFF741FF0CF0E4
S31500003D509FF818B140F2DE61FFF751FEBDE8014061
S31500003D60FFF7BABA10B500F013F800F00CF80146E8
S31500003D70206A00220CF089F820B1BDE8104040F21C
S31500003D80E961E5E410BDDFF89C060079FFF774BB36
S31500003D90DFF89446206A012201210CF037B80000B2
S31500003DA09067030050DF0320E4DF0320CCE710B563
S31500003DB00446FFF70DFF21460CF0B1FEDFF864065E
S31500003DC0847110BD48E5032054DF032038B504464E
S31500003DD07F2C0CD100F025F8DFF86006FFF7E1FE36
S31500003DE0BDF800007E24C00558BFBDF80040FEF7B0
S31500003DF0B2F80546FFF7D7F960B960B27E2805D15B
S31500003E00DFF82416896A09B191F904007E28B8BF43
S31500003E10FFF7CFF9DFF80C0604732846FEF7A1F882
S31500003E2031BD4FF6FF70ADF8000002237047DFF892
S31500003E30F40590F90C007E2807D1DFF8EC05806ABE
S31500003E4008B97F20704790F90400704710B50CF050
S31500003E5069FE80041AD500F02BF80CF063FEC0044E
S31500003E604CBF0320012000210CF05EFE0CF05AFE30
S31500003E7000F0FF004FF47A7111FB00F104F14800E5
S31500003E80BDE81040DFF8B825FFF76AB9BDE8104075
S31500003E9010B500F00DF804F148000BF0E6FFFFF74F
S31500003EA099F920B9BDE8104000210CF03DBE10BDC7
S31500003EB0DFF8744504F160000BF0D7BF80B50CF055
S31500003EC031FE4005BDE804404CBF0320012000211F
S31500003ED00CF03EBB10B5DFF8504594F914000328EA
S31500003EE00DD100F030F9DFF83C154FF0FF30486295
S31500003EF00022216BBDE8104040200CF060BB10BDD5
S31500003F0038B50446FFF7C4FFDFF81C55FEF73DF849
S31500003F10686314B10CF0ABFA01E000206874BDE8E8
S31500003F2031400CF0A8BB38B50446DFF8F814DFF8CA
S31500003F30F8544FF0FF304862FEF727F8686395F9AA
S31500003F401400012802DABDE831407FE7A87D08B1F8
S31500003F50686BA86300202875286A0BF05BFFA87BB6
S31500003F6010B10120E87331BD2046BDE8384000227B
S31500003F7000210CF024BB0000C0E1032010B50CF0BA
S31500003F80A1FADFF8A44498B1FFF724F980B104F14F
S31500003F9048000BF06AFF0CF0C9FD00210CF0C4FDCF
S31500003FA0DFF8A02442F2107104F16000FFF7D8F8A0
S31500003FB0A07C18B1BDE8104000F06BBA10BD00003F
S31500003FC07FFE00009044000085FE00002DE9F043CE
S31500003FD0DFF854440FF28849206A89B005AA022105
S31500003FE00CF057FA050003D140F6E70100F0A8F8F7
S31500003FF09DF81400DFF82C64BDF8168007281CBF56
S315000040007079002819D1B8F1060F16DB08F10800FF
S315000040108B2812D2002000904346DFF82C74206AC9
S315000040203A4629460CF03DFA404503D04FF410615C
S3150000403000F086F83878000602D5FFF707FF7CE027
S3150000404001208DF80800CDF804806A46206A2946CA
S315000040500CF023FA18B140F6171100F071F87878D1
S3150000406000F0070002281ED1FFF712FF94F9140092
S31500004070032808BFB8F1060F11D19DF80D0070B1E5
S315000040807878000900F0010500F05DF84FF0FF3088
S3150000409070622A4600218F200CF091FA4DE0F079EB
S315000040A000284AD105E09DF80D0010B10020FFF769
S315000040B011FFF0799DF80D10084203D040F63F112C
S315000040C000F03EF8F07958B17878800608D5307A55
S315000040D030B1206A0CF020FD30B1FFF7B7FE03E0E7
S315000040E0FFF7D6FE002060743878401C404503D0A8
S315000040F040F65F1100F024F807EB080530792870C8
S31500004100002068709DF80E00A87095F90200FFF770
S31500004110D0F9E87008F10801FF202871C9B20098AB
S31500004120000C68710098000AA8710098E87138467A
S31500004130627C0CF0FDFC0020607409B0BDE8F083E1
S315000041404846FDF755BA00202075206A0BF062BE7E
S315000041500FF21430FDF74CBADFF8C812897A01293C
S3150000416007D1DFF8E8120B7898421CBF08700AF0F6
S315000041709CBE7047044008404C50084010B5DFF81C
S31500004180A402446A002C14D4FDF7EEFE001B40F294
S31500004190E93180B288420CD3A34890F91400032871
S315000041A003D1BDE81040002094E6BDE81040892008
S315000041B0B9E610BD10B540B90CF05AF9FDF7CBFEC3
S315000041C00446FFF7DBFFFFF7C7BABDE81040D5E7A7
S315000041D038B5954D0446287B60B1200002D10CF01D
S315000041E071F908B1402200E000220023402000219E
S315000041F0FFF7DFFBAC7431BD6044000008400840A7
S3150000420018600846186008442DE9F04780461446B1
S31500004210600688B01D4648BF002002D4200602D59D
S315000042200120FFF7ABFEA0037F4E2DD50020707452
S31500004230694640460CF01DFB30BB9DF80800844FD4
S3150000424002280DD1BDF800000CF0C6FDFF2815D0E0
S31500004250396831F810004FF4567108420ED113E058
S31500004260032811D168460CF0D6FDFF2806D0396820
S3150000427031F810004FF45671084205D0306A0CF040
S31500004280F5FA08B901207074600410D50CF01AF91B
S3150000429068B1FEF79FFF50B10CF0F4FD07460CF035
S315000042A045FC874203D0002138460CF03DFC200730
S315000042B044BF4046FFF78AFEE00548BFFFF7C6FD4C
S315000042C04FF41850044218BFFFF7E2FDE00244BF66
S315000042D00120FFF715FE600244BF0120FFF710FE24
S315000042E0E00144BF0020FFF70BFE96F914000FF221
S315000042F07017012869DB306ADFF8289121034FF037
S31500004300FF3A33D596F9141001295EDB96F914109D
S3150000431003295ADA00218DF8181001218DF814109E
S3150000432003A90BF0CFFE03983063FDF72EFE7063F2
S31500004330B07D08B1706BB06396F91400012804D003
S3150000434002280ED1032030753FE000203075306A18
S315000043500BF060FDC9F824A0B07BA8B9316B002230
S3150000436018E04FF4016100F077F82EE014F0845F56
S3150000437013D0002131750BF04DFD04200CF079F8B7
S31500004380C9F824A0B07B10B10120F0731DE0002213
S3150000439000218D200CF013F917E0A00248BF8920F8
S315000043A002D4A00103D58820FFF7BDFD0DE0600013
S315000043B048BFFFF783FDA00007D5264800684004E4
S315000043C003D4002100200CF0C3F8A00744BF4046E8
S315000043D0FFF780FD002C04D5FFF75AFD4046FFF796
S315000043E079FD05F002010023994211D040460BF0F9
S315000043F009FD022802D0032802D005E0892000E04A
S315000044008D20FFF790FD03E040F67B0100F024F8D5
S3150000441005F004010023994218BFFDF733FA08B0EE
S31500004420BDE8F087E4DF032048E50320406700602D
S315000044300A00FA932E6D0300C0F60320306D0300C8
S31500004440713100007531000068F4032040FE03203E
S315000044501CDF0320044008403846FDF7C9B80000B9
S315000044607068792E630000006C69627261696C2E57
S31500004470610000000000000001006003010101016D
S315000044806400B6006400C000000000000B000000DD
S31500004490000070470CF0F8BC80B501210C480CF008
S315000044A0B9FD042107200DF087F90A480A490B4A8D
S315000044B0016004211160022141620421084A116051
S315000044C0816A41F00201816201BD02480DF0B6B970
S315000044D000250800002005400108030080E200E0F6
S315000044E000E100E0602080F3118870470DF07CBA8F
S315000044F003460A469DA10420FFE70CB480B502AA34
S3150000450000F05CF801BC5DF80CFB0A0003D0034622
S3150000451097A11120F1E7704700B589B00AF0D6FCE3
S315000045200021079106910591049103910291019151
S3150000453002469049009100230FF24C210120FFF71B
S31500004540DCFF8D48C1784378027803918168029137
S31500004550818801918178009143200FF23821FFF77D
S31500004560CCFF09B000BD8549087070470EB410B580
S31500004570044682480078A1B080B10DF0BFF968B159
S3150000458080226946022000F0B5F823AB22460021BE
S315000045900FF2791005F0B3FF00F0DCF821B010BC83
S315000045A05DF810FB0C2200217548FDF705B874492B
S315000045B031F81020521C21F8102070472DE9F041E7
S315000045C007466E480078A2B00C469046002690B981
S315000045D0380018BF012F0ED0042F18BF052F0AD0A0
S315000045E0312F18BF332F06D0372F1EBF3B2F4FF664
S315000045F0FF718F4275D10DF081F9002871D08022AC
S3150000460002A9384600F076F8002C68D007E08DF84D
S315000046100400012201A9002000F078F8641C20782B
S3150000462001005CD0A0F130020A2A05D20A2101FB62
S315000046300600A0F13006F1E7422818BF44280CD046
S31500004640462827D0572808D0622836D0662821D099
S315000046506C281CD070281DD0D9E7422807D158F8FD
S31500004660042B6946012000F0BAFF01220DE057280D
S3150000467058F8042B694604D1012000F0B0FF02224D
S3150000468003E0012000F0ABFF04226946C3E758F8B7
S31500004690046BC3E758F8041B462807D10026885D3B
S315000046A000281EBF761CF6B2FF2EF8D1F2B200200B
S315000046B000F02CF898B90026B0E758F8047BB8B299
S315000046C00028ABD0FDF7F9FF0546B8B2FDF7DDFFD0
S315000046D00146EAB2002000F019F800289ED000F04A
S315000046E039F822B0BDE8F081122804BF002006F098
S315000046F096BB704710B5234C616001462270606816
S315000047000DF002F9607010BD00000000F8B515004C
S315000047100C461C4E1CD07078317873680F1AFFB2A5
S31500004720EDB2BD42B8BF2F463A4621461844FCF7C3
S31500004730E1FE707838187070ED1B3C44E8B238B171
S315000047407068711C0DF043F90028E4D00120F2BD19
S315000047500020F2BD10B50B4C6068611C0DF037F9F6
S3150000476008B1012010BD607010BD00005746000062
S315000047706C700000C0F603202C58030041FE032095
S31500004780F4F4032000F503204242387042424242CC
S3150000479057424200424242574442000080B5014619
S315000047A0002009B906F083FBC0B202BD80B50246FF
S315000047B0262012B9002006F039FCC0B202BD80B531
S315000047C00146002009B906F00DFDC0B202BD0CB4C9
S315000047D038B5044604AA00F00FF805462046FFF750
S315000047E0EEFF284632BC5DF80CFB80B50846114644
S315000047F0FFF78BFE002002BD134680B50A46014630
S31500004800094805F07CFE401E8041C00F02BD38B548
S3150000481004460D46284600F051FFC2B229462046FE
S31500004820FFF7E3FF002032BDEB47000010B504465A
S31500004830FFF758FE200A00283E4808BF24024FF220
S315000048400F0104804180BFF35F8FBFF34F8F3A485B
S315000048503A4A016801F4E06111430160BFF34F8FEA
S3150000486000BFFDE780B5002000F009F830B9BDE8CB
S315000048700440E3210FF2DC00FCF7BABE01BD2DE9CE
S31500004880F0422F4C216842428D1815F01F0108D0C6
S31500004890002802D44842054403E04842284400F177
S315000048A020052848A5F12006A84224BF26488642AE
S315000048B003D3EFF30880854201D300202DE0FDF7F6
S315000048C04AFB81462148006810F0010718BF0DF029
S315000048D0ECF8206801468D4206D2A84224BFCD21BD
S315000048E000F80119F9D206E02038002201E000F8AC
S315000048F0012B8842FBD3256030460DF0DDF8E2201F
S3150000490001E006F8010BAE42FBD30FB10DF0AAF899
S315000049104846FDF726FB20682038BDE8F0820848A7
S315000049200068704706480068203870470848704796
S3150000493000000000000000200CED00E00400FA0575
S3150000494030E1032010CD03207017002094ED00E025
S31500004950000000206D6963726F2D696E7465726E5A
S31500004960616C2E630000000010B5DFF8004BDFF825
S31500004970003B2488001B06E010B5DFF8F84ADFF894
S31500004980F03A24681B1B03EB4000002304E030F8D8
S31500004990134021F813405B1C9342F8DB002010BD46
S315000049A02DE9F04182B004460D4616460027DFF891
S315000049B0C08A01E0BF1CFFB2B74217DAE819E95D09
S315000049C04078DFF8A83A1B8801EB0020ADF800001C
S315000049D0012207EBD77004EB6000C01A00F09DFBC4
S315000049E00100E7D0FCF7FEFE002000E00120BDE854
S315000049F0F681F8B504460F46154600260DE000F090
S31500004A0019F8BDF8000004EB4601000A48707F1C47
S31500004A10BDF8000004F81600761CB6EB550FEEDB69
S31500004A20E80706D500F006F8BDF80000611901F8A0
S31500004A30010CF1BD01226946B8B295E7DFF82C2AD0
S31500004A40DFF82C1A1288801A01EB400102200DF0C3
S31500004A5051B8DFF8241ADFF8242A095C125CDFF863
S31500004A60203A185C10B102F5997292B241EAC2106E
S31500004A7080B27047DFF8003ADFF8082A1B5C012B8A
S31500004A801CBF32F81000081802EB4000704738B51A
S31500004A900C46DFF8F4190D782A462146FFF764FF25
S31500004AA0208801001CBF4FF6FF7188420BD0012001
S31500004AB000E0401CC1B2A94207D2C0B234F81010BF
S31500004AC022889142F5D0002032BD012032BDF0B5DA
S31500004AD0DFF8A01987B008600C2269460020FFF7AE
S31500004AE04BFFBDF81600BDF80C200346040A012052
S31500004AF000254FF6FF763DF81570BDF80010B94257
S31500004B0003D1B74218BF002F00D100206D1C062D1F
S31500004B10F1DBB21A914218BF0020DBB2C4F1FF01EB
S31500004B208B4218BF002007B0F0BD2DE9F24F0446B6
S31500004B30DFF858690020307070809CB0DFF85009AB
S31500004B400088ADF8020007A9FFF7A1FF8346012000
S31500004B50707009A9DFF83C090588DFF83C09B0F850
S31500004B600080DFF808090788BDF802A03846FFF77D
S31500004B708EFFB8B1BBF1000F3DD0BDF81C10BDF8DB
S31500004B8024004FF6FE72914202D1012804D10CE0B6
S31500004B90012908BF90422ED00846BDF8241088424D
S31500004BA029D202E0BBF1000F24D0002070700297DA
S31500004BB050460695CDF810800122DFF8CC1891F802
S31500004BC000804044ADF806006946BDF80600FFF7D0
S31500004BD0CBFEDFF8C808008805904FF6FF79BDF8D0
S31500004BE00000000B404518BF0F2801D1200021D03E
S31500004BF0002516E0012470780028D8D03846CDF874
S31500004C0008A0CDF818800495D6E7059805FB00F4B2
S31500004C10E01900F051FCBDF80200201800F04CFC31
S31500004C206D1C4545F1DB012030704D20FCF7DAFDA7
S31500004C300025F7E0BDF80650012201A92846FFF736
S31500004C4093FEBDF80400C04300F0FF00ADF8040079
S31500004C506F1CDFF84C080588BDF80400A84218BF91
S31500004C6001244FF0000A20E0401CC1B2A94218D22C
S31500004C70C0B2DFF83018BDF80E20834631F81B109D
S31500004C809142F1D1FFF7E5FE4FF680710840BDF87D
S31500004C900C104FF680721140884204BF1C9800F831
S31500004CA00BA00AF101001FFA80FABDF80400824544
S31500004CB007DA022203A9B8B2FFF756FEBF1C00208E
S31500004CC0D3E7002001E0401C80B2A84217DA1C9905
S31500004CD0095C8142F7D0012411E02AF81070BDF872
S31500004CE0060000EB4300401C00F0DAFABDF80200B3
S31500004CF0C0F3C710401C00EBD07007EB60070498A8
S31500004D00DFF880A7BFB287420EDA00F099F8BDF847
S31500004D100000484508D0030A00F07F01BDF80400F2
S31500004D207F1C834202DB012400252DE0002000E0E9
S31500004D30401CA842D3DA1C9A125C9A42F8D1C0B23F
S31500004D40FF28CCD0DFF83027125C7F290CBF4FF04C
S31500004D50000C8C4694450BDABDF800C0DFF820E75E
S31500004D601EF800E04FEA0C6C4FEADC7CF44501D0FB
S31500004D700124B4E7012AB0D07F293AF8100008BF11
S31500004D8000210818A9E76D1CDFF81C07008885427A
S31500004D9004DA3AF815004845F5D1012477800498DD
S31500004DA0BFB2874207DA00F04BF8BDF800007F1C5F
S31500004DB04845F4D039E7002CFCD1029801220BA912
S31500004DC080B2FFF7D1FDBDF82C0048450DD105E0B6
S31500004DD0401C80B2202813DB2034A4B20699029A24
S31500004DE0891A8C4205DB0120307000201DB0BDE819
S31500004DF0F08FA51820220BA9A8B2FFF7B5FD002059
S31500004E000BA931F810104945E2D0A8B2FFF716FEFB
S31500004E10203CA4B2E0E70298059905FB010000F0EA
S31500004E204BFB6D1C4545F6DB01203070494600F012
S31500004E3046F818B100F035F90028D6D10120D5E79B
S31500004E400122694638468FE52DE9F0420F46DFF824
S31500004E505016DFF8285609888F42044616469946AA
S31500004E600CD2DFF81416C95D30467F2808BF002033
S31500004E70884203DAE95D894500D11CB940F2D54183
S31500004E8000F00AFA31463846FFF7F4FD0188DFF8EC
S31500004E90F005C05D60B1384600F02BFAE95D0129E6
S31500004EA008BF207009D0022914BF2060208004E0CA
S31500004EB04A462046BDE8F0429BE5BDE8F0822DE972
S31500004EC0F34FDFF8A805DFF8C0150488DFF8BC0546
S31500004ED00978407883B000281ABFDFF8B405008847
S31500004EE020460D18DFF8B8050088ADF80800ADB209
S31500004EF0C04300F0FF0000EB013000F55060ADF854
S31500004F0002002B1BDFF8680501220DF1020100F0FB
S31500004F10D7FA6E1C0100B6B23AD10025DFF88475C7
S31500004F2013E0E8B2FFF795FDADF80400331B37F840
S31500004F301500ADF806000222DFF8340500F0BFFACE
S31500004F40010025D1B61CB6B26D1CBDF8080085421D
S31500004F50E7DB002500E06D1CBDF80800854280F205
S31500004F609B80DFF81C05405D8DF80A004FF0000AB3
S31500004F701BE001220DF102011FFA89F0FFF7F4FC94
S31500004F80BB19DFF8EC0400F091F9010009F1010901
S31500004F907AD17F1CFFB2B7EB1B6FEADBDFF80C059B
S31500004FA0405D3618B6B20AF1010ADFF8CC04475D57
S31500004FB05FFA8AF0B842CED25FFA8AF1E8B2FFF71A
S31500004FC059FD80469DF80A00B8F80090C00140EAF5
S31500004FD00520ADF80000012FBDF800000EBF40F01F
S31500004FE07F005FFA8AFA4AEA0000ADF80000311B3A
S31500004FF0DFF87C0400EB41004FF6FF71771C894512
S315000050001EBFBDF80010BDF810209142BFB219D1E5
S315000050109DF80C100029C6D0012269460CF0A6FDA9
S3150000502001003E4630D1DFF85404A8F80060425D26
S31500005030DFF87C0450F825103046FFF7B1FC002855
S31500005040ACD124E0DFF83414495D491C01EBD17181
S315000050504FEAC15B012269460CF088FD01003E461D
S3150000506012D1A8F800609DF80A0098B14946E8B246
S3150000507000F03FF90190331BDFF8F4034FEA1B629F
S3150000508000F01DFA010089D0FCF7ACFB002005B04A
S31500005090BDE8F08F00277DE7DFF8F00346800120AA
S315000050A0F5E7DFF8EC032DE9F0410688DFF8BC03ED
S315000050B0DFF8D85304886878DFF8B483002882B014
S315000050C012BF20463046264601226946FFF74CFCB1
S315000050D0BDF8000001280CBF4FF6FE70401EADF86B
S315000050E00000DFF8A40307783846471E80B258B19F
S315000050F016FA87F0001B012200F00FF80100F3D02A
S31500005100FCF770FB002006E0687880F0010068700C
S31500005110002028700120BDE8F681694608EB4000B2
S315000051200CF024BD2DE9FE4F0D46DFF874130988F7
S315000051308842044617461E464FF000094FF0010804
S315000051400CD2CD49095D38467F2808BF0020884229
S3150000515004DACA49095D8E4200D11DB940F2F951FF
S3150000516000F09AF839462046FFF784FC0190C74FB5
S31500005170787820B1C748B0F800A0BC4803E0C6481C
S31500005180B0F800A0C2483978008849B97988081A69
S31500005190C84909888842B4BF43204420FCF722FB53
S315000051A001980188B648005DF8B1204600F0A1F8E4
S315000051B0012E08BF297803D0022E0CBF2988296842
S315000051C0814267D001980088401E00F069F8B74810
S315000051D0065D7888AAF10101891B814201DB00285E
S315000051E037D1387868BB452046E00291CB4622E0AD
S315000051F002980BEBDB7300EB630000F0F3F805EBB2
S315000052000B0015F80B10407801EB0020711E8B4542
S3150000521080B207D1BDF8001001F0FF0100F0FF00D9
S31500005220ADF80010BDF8001088420BF1020018BF5F
S31500005230C8465FFA80FBB345DADBB8F1000FC1D090
S3150000524028E0BDF802100020FFF739FE10B34FF03A
S31500005250010978888949401C788080B20A5D294610
S31500005260FFF79EFBB0B1814C7B88248880485B1E8B
S3150000527000F01CF8010002D0FCF7B4FA0AE0B9F11C
S31500005280000F02D0FFF70DFF20B101997888088042
S3150000529080197880BDE8F78F0FF22C20FCF7A8B9AB
S315000052A001220DF1020180B2FFF75EBB1B1B01223A
S315000052B00DF1020100EB43000CF058BC70B582B052
S315000052C004460025192601226946A0B2FFF74CFBC9
S315000052D0BDF80000641C20B14FF6FF71884203D070
S315000052E004E06D1C761EEED168B276BDE84340B28E
S315000052F076BD38B50C460021009160490D5C2A4602
S3150000530021466846FFF775FB681C00EBD07004EB7E
S31500005310600080B2FFF7D2FF0028009948BFC04363
S3150000532041FA80F032BDF0B55D490988044655481A
S3150000533083B0264630F816508C4202D25048805D23
S3150000534018B940F23D71FFF7A7FF4C48865D701C07
S3150000535000EBD07005EB6007B8B2FFF7AFFF192876
S315000053600FD210FA87F0414F414B3F880021ADF82C
S315000053700410C01B012201A903EB40000CF0F6FB50
S3150000538060B129462046FFF7B4FF00903346401C23
S3150000539000907F2269462046FFF7C4FEF7BD70B530
S315000053A03A48017882B00024D1B94078002814BF69
S315000053B037482E480588344806780CE0284650FAC7
S315000053C086F000F00FF8BDF8000000281EBF4FF66B
S315000053D0FF718842641C3046461EC0B20028EDD1DB
S315000053E0E0B276BD0122694680B2FFF7BDBAF8B5D4
S315000053F0264C20780027002835D11C48058860787F
S3150000540000281ABF224806882E461F4807783846C5
S31500005410471EC0B202281FDB304650FA87F0FFF75E
S31500005420E1FFBDF800000028F1D01C480088FFB25B
S3150000543007FB006000F040F80020ADF80000BB1943
S315000054400B485B1B0122694600F03AF8010018BFC1
S31500005450FCF7C8F93846F2BD3046FFF7EFFAF8B266
S3150000546008B901202070F8B2F2BD00003A6D0300C1
S3150000547000E00F004CF50320CC5F0300BC5F030087
S31500005480AC5F030068F10320616D03005CFD03203F
S315000054903E6D03003C6D0300406D0300386D030054
S315000054A0446D0300905F0300466D0300405A0300FD
S315000054B0DC620300426D030080B2FFF7BFBA01A9A8
S315000054C000EB43000CF052BB73696D2D656570727D
S315000054D06F6D2D696E7465726E616C2E63000000CF
S315000054E02DE9F04F85B080460E22FF216846FCF775
S315000054F063F8DFF8A8A04222FF215046FCF75CF8CB
S315000055000E250027264CDFF89C90274EF05D19F8F3
S3150000551007B0E15D401C00EBD070401001B11930BE
S31500005520401C00FB0BF2214830F81710204892B2BD
S31500005530FFF71CF8BBF1010F1CBF2AF817505D449A
S315000055407F1C0E2FE2DB1B480E2340F21C4240F26A
S315000055508B21FFF70BF84FF4E040FFF7B8FA164D32
S3150000556018B19D212846FCF743F84FF48040FFF719
S31500005570AEFA18B19F212846FCF73AF84FF480504E
S31500005580FFF7A5FA18B1A1212846FCF731F86946BC
S315000055904046FFF7CAFA05B0BDE8F08F68F1032070
S315000055A0AC5F0300CC5F0300BC5F0300905F0300A9
S315000055B0F4590300105A0300E459030041780078B7
S315000055C001E00178407800EB012080B2704701705D
S315000055D0090A417070470A0A02704170704710B597
S315000055E00023040014BF1C46C3F10304E4B25B1C91
S315000055F00A55120A042BF4DB10BD30B50024050051
S3150000560014BF2546C4F10505EDB2641C4A55120ABD
S3150000561042EA03621B0A062CF1DB30BD30B54A783C
S315000056208B78CC78097818B120461D460C4602E0E6
S31500005630154608461A4645EA002044EA022141EA90
S31500005640004030BD00B583B020B10622684600F0A8
S315000056502AF803E006226846FBF74CFF9DF8002077
S315000056609DF8010040EA02219DF8020002069DF81D
S31500005670030042EA00429DF8040042EA00229DF837
S315000056800500104303B000BD10B5002300E05B1C0D
S31500005690DCB28C4205D210F8014B9442F7D00020C0
S315000056A010BD012010BD10B5002304E0541EE41AFD
S315000056B00C5DC4545B1C9342F8DB10BD10B500248E
S315000056C080B14FF6FF7202E0944206D0641CA4B289
S315000056D0035D002BF8D1944204D179210FF2F40036
S315000056E0FBF786FF204610BD10F8012B11F8013B91
S315000056F00AB19A42F8D0D01A40B2704730B59942F2
S3150000570028BF1946002303E00833401C521C9BB2F5
S3150000571003F10804A14203DB04781578AC42F3D008
S315000057208B420CDA007812785040C0438024C0B215
S3150000573001E064085B1C8B4201DA0442F9D198B29D
S3150000574030BDF8B555052D0E02F0070704460E4686
S315000057502A46FBF7CFFE47B1FF20615D725DF84038
S31500005760014022EA000008436055F1BD00210FF216
S315000057707802002805E000F00F03D35C5918C9B27F
S315000057800009F8D1084670476128A8BF572107DAF3
S315000057904128A8BF372103DA3A28B4BF30210021B7
S315000057A0401AC0B270474108400021F0AA3120F0EB
S315000057B0553008438108800021F0CC3120F0333089
S315000057C008430109000121F0F03120F00F300843B1
S315000057D070470000627974652D7574696C69746927
S315000057E065732E630000000000010102010202033E
S315000057F001020203020303042DE9F041074688462D
S3150000580094B000F083F802A90CF0D8F99DF81100C5
S315000058108DF83800062807D0112803D03A2873D10E
S31500005820042402E0082400E014244046FCF745FF67
S315000058302838051B00F06AF80EAE283070603481F7
S315000058400020F06035820DF1230007F0C6F928B17B
S315000058500DF1230007F058F9002855D0A8B20190A1
S31500005860042F9DF8120000900CBF202200220DF19B
S315000058702303002102A80CF0EBFB060008BF002062
S3150000588035D00DF1230007F083F948B90DF1230057
S3150000589007F0D5F920B90DF1230007F0A9F900E0CA
S315000058A00120032F26D178B305213046FDF754F9A0
S315000058B04EF6F77101EA000205213046FDF75BF965
S315000058C000F024F8071900F021F8AAB207F1280120
S315000058D0FBF710FEA9B24046FCF708FF424601213D
S315000058E03046FCF78FFF02A930460DF0C8F914B018
S315000058F0BDE8F081042F08BF0028E1D10DF1230097
S3150000590009F039FF0028DBD10120F0E74046FCF71B
S31500005910BCBE38B501280C46154604D081210FF2CD
S31500005920C800FBF765FE00F01AF829462046BDE8D8
S3150000593034400DF055BD38B54D1F441DADB200F0D5
S315000059400EF82A4621460120FBF7DAFF30B9294630
S315000059502046BDE838400022FCF7D4B931BD2346C5
S315000059602A4602A14820FEF7C8BD00006C70000060
S31500005970F0B5052893B00C4631D0694620460EF0A6
S31500005980C1FB9DF809009DF830100FF25C058842B6
S3150000599003D0B5212846FBF72BFE204602F03DFB3F
S315000059A00646301DFFF70DFE074606F10A00FFF713
S315000059B008FE2830874203D0BD212846FBF718FE93
S315000059C005212046FDF7C8F8000758BF032006D575
S315000059D0204602F02CFBC00654BF022004202146BC
S315000059E0FCF757F913B0F0BD69702D6D6F64656DE6
S315000059F02D6C696E6B2E63000188481E8041C00FB6
S31500005A00704738B50446002554B1002100F009F866
S31500005A1003E0204600F034F86D1C0100F9D1A8B26D
S31500005A2032BD008802001CBFC9B2FCF7D4BE0020FC
S31500005A3070472DE9F04104460D4627883800164682
S31500005A4008BFA84608D0F1B2FCF7C5FE80462A4634
S31500005A50F1B23846FCF7D6FE424600F003F8258040
S31500005A60BDE8F081F1B22846FCF7CCBE38B5044655
S31500005A7000222588FFF7DDFF280018BF258031BDED
S31500005A80008881420A4601D1002070470021104655
S31500005A90FCF7A1BEF8B504460D462688300001D1B4
S31500005AA00020F2BDC9B2FCF796FEB042074602D10D
S31500005AB00020208007E0E9B2FCF78DFE0246E9B23D
S31500005AC03046FCF79FFE2A4600213846FCF79AFE30
S31500005AD03846F2BD2DE9F84304468846278816461F
S31500005AE00FB9002026E03D462846FCF7E6FD814634
S31500005AF005E00546FCF7E1FD48441FFA80F9F1B2DE
S31500005B002846FCF768FE404511D1F1B2FCF763FE6A
S31500005B100246FFF7A7FF474503D1BD4208BF002550
S31500005B2025800022F1B24046FCF76CFE01E0B84247
S31500005B30DFD14846BDE8F2832DE9F8430D46044619
S31500005B4090462F4605E041462046FFF7A3FFBF1BC0
S31500005B50BFB28FB1208878B141462046FFF761FF7A
S31500005B608146FCF7AAFD0646B742ECDAF11B89B27C
S31500005B704846FCF706FE0027E81B80B2BDE8F28324
S31500005B802DE9F0470C460788200092461E46B84687
S31500005B9023D00FF26C193FB9C92102E0B84503D1F1
S31500005BA0D6214846FBF724FDF1B24046FCF713FE2A
S31500005BB08046FCF782FD0546A1B28D4288BF0D46A0
S31500005BC04046FCF762FD01462A465046FBF792FC2A
S31500005BD0641BA0B20028AA44E0D1BDE8F08770B5E6
S31500005BE004462588280008D00121FCF7F4FD064666
S31500005BF000220121FFF737FF268070BD2DE9F84FFF
S31500005C000D46044690461F460021FFF70AFF8146CF
S31500005C10002603E0494600F045F881465FEA0900A0
S31500005C2019D0FCF732FD83464846FCF746FD0BEBE0
S31500005C30000A02E060888344761CD3453EBFA188F3
S31500005C40B0B28842E6D241465846A8470028F1D06D
S31500005C5007B13E805846BDE8F28F70B504460D4642
S31500005C60A08801001CD0401EA84219DB0021204656
S31500005C70FFF7D7FE0646608815FB00F504E02D1AEF
S31500005C80314600F00FF80646300009D0FCF715FD46
S31500005C90ADB28542F3DA3046FCF7F7FC284470BD16
S31500005CA0002070BD2046EBE670B504460D46E08840
S31500005CB0010009D0401EE0802046A188491CA18031
S31500005CC0491EBDE87040C8E7608810FB05F000215A
S31500005CD080B2FCF7F0FD060001D1002070BD002265
S31500005CE031462046FFF7A5FEA088401CA080681E0E
S31500005CF0E0803046BDE87040FCF7C7BC00000000FD
S31500005D006275666665722D71756575652E63000030
S31500005D1030B5014600220FF2340304E0091B69186E
S31500005D20921CC9B2D2B29D5C2C0006D0854204D228
S31500005D309C1864788442F1D306E00FF2180000EB59
S31500005D40C100C178062900D1002030BD151F202FC3
S31500005D50398081FF50001304030000005400140230
S31500005D60000000002C000F040800000030001005A1
S31500005D70000010003C0007050000100024000D0480
S31500005D801000000028000E0300000000340011047B
S31500005D9008000000440012050000FF00080002028F
S31500005DA0000000001000050500004000060001028A
S31500005DB00000000038000604030000001400090576
S31500005DC00100320040000804080000006C001C02BC
S31500005DD000000000040000010000000018000A0591
S31500005DE0010000050C000402000000001C000B046A
S31500005DF0080000000A0003020000000020000C0456
S31500005E0010000000580015050000400048001D0560
S31500005E10010000054C001E0410000000FFFFFF06F5
S31500005E2000000000FFFFFF0600000000FFFFFF0666
S31500005E30000000005C001604060000006000170168
S31500005E400000000062001802000000006400190251
S31500005E500000000068001A050100A0006E001B018A
S31500005E6000000000F0B50E4683B0044611461D46FC
S31500005E7008226846FFF717FC30003AD0F000C0B29F
S31500005E8000210FF2740232F8113000260027BFB24B
S31500005E901DF807C086EA0C264FF0080C4FEA460E9E
S31500005EA0360446BF83EA0E06B6B21FFA8EF6BCF17A
S31500005EB0010CF3D17F1C1FFA87FCBCF1080FE6D357
S31500005EC0831B96FBF0F616FB00335B1E9BB204EBBE
S31500005ED0D306802703F00703DF4033783DB13B4309
S31500005EE03370491CC9B20229CDDB0120FEBD3B42FD
S31500005EF0F7D10020FEBD00002110058030B585B029
S31500005F0004460D460822DFF8641C02A8FBF7F2FAE5
S31500005F10694602A807F0C2FC00236A4629462046C5
S31500005F20FFF7A0FF05B030BD80B541B1DFF8981C82
S31500005F300122C8708A70BDE8014001F0C3BD01F0BE
S31500005F401DFEBDE8014033E1704710B5DFF8780C5F
S31500005F50DFF81C2C417812783AB1F1B9808BE0B1A8
S31500005F6001F00CFEBDE8104022E1B1B101F054FC95
S31500005F7003D1012001F063FF02E0012001F068FE79
S31500005F80DFF8484C2046FBF741F930B92046BDE81A
S31500005F90104049F64041FBF7DDB910BDDFF8281C7B
S31500005FA000200871704710B5DFF81C4C4FF6FE70E4
S31500005FB0E08300206070A083DFF8100CFBF71AFA6C
S31500005FC000202070207110BDDFF8A40B007800B906
S31500005FD0704700B589B00EF06FFB28B9684600F02F
S31500005FE0B9F868460EF0D5FB09B000BD0146487801
S31500005FF0FF2804BF881CFFF7E4BA70474178FF29E1
S315000060000CBF042102210844704738B504460D46EA
S3150000601000E00C35296831B1204605F0B1FB0028B7
S31500006020F7D1284632BD002032BD00002DE9F84FD9
S315000060308246D018DDF82880DFF8DCBC00900E46DA
S31500006040144605E04FF404715846FBF7D1FA64197B
S315000060500098A11C88424AD327786578A146A41CDB
S31500006060FF2D04D12046FFF7ACFA0546A41C38469E
S31500006070C0470028EBD08178326822FA01F3DB07AB
S31500006080E5D4012303FA01F11143316001880AEBDB
S315000060900107C178491E0429D4D8DFE801F0040AB3
S315000060A011191F00CEE7002D1CBF20783870CED105
S315000060B01FE0022D1DDB2046FFF783FA3880C6E776
S315000060C0042D16DB21460020FFF7A8FA3860BEE74C
S315000060D000798542A8BF3C60B9DA0AE001798D42B1
S315000060E0A4BFC088A84204DBC7F80090AFE784428B
S315000060F001D0002000E00120BDE8F28F0170C270DF
S3150000610002214170110A8170001D704710B501709F
S31500006110841C0421417000202146FFF760FA201DEF
S3150000612010BDDFF8A41A4A8B0B21E7E702B501235D
S315000061306A46102100F001F802BD70B51D460170D7
S3150000614014464570861C2A4621463046FBF7D2F98E
S31500006150701970BD70B5044608202070002060706C
S31500006160A01CFFF7DEFFDFF8606A0546B08B60B162
S3150000617000F01AF83378190006BF0023002206F152
S3150000618008020821FFF7D9FF0546281B202803DB54
S315000061904FF41C7100F00BFEA01C291AC9B2204650
S315000061A00EF062F8284670BDF28B09212846A5E755
S315000061B070B588B00EF080FA04466846FFF7CAFF4D
S315000061C09DF8015044B320460EF046F885422E460F
S315000061D00BD168460EF033F800F020F832460DEB8E
S315000061E005012044FBF7EFF9B0B1314620460EF029
S315000061F0FEFA04000AD068460EF021F800F00EF808
S3150000620032460DEB05012044FBF774F9204600F0F9
S3150000621009F800200EF043F908B070BD0546204687
S315000062200EF00DB8F0B506009DB0DFF89C494FF6AC
S31500006230FE7505D10021002007F089FEE58366E0A2
S3150000624000F069F830460EF007F8074630460DF0C4
S31500006250F6FFDFF8901C009132183B4601A901A811
S31500006260FFF7E4FE002854D0607838B30198800721
S3150000627024D5BDF80A00618B401A80B2B0F5004FF4
S315000062801CDC0198400711D400206070E58301F002
S3150000629075FC03F059FBE18B884201BFA07800280A
S315000062A001206070129898B9002514E003F04CFBA9
S315000062B0BDF80C1081421CBF002060700198400799
S315000062C0E4D5BDF80C00E083BDF80A006083E0E782
S315000062D00DF0C2FF05464DB112980DF0B0FF129BAE
S315000062E00022E9B21844FFF7CFF918B10020207058
S315000062F000210AE012982570811C2A4604F1080044
S31500006300FBF7F8F81298E9B2801C07F020FE01F0BE
S31500006310D9FB1DB0F0BD7022002101A8FBF74CB9D6
S3150000632080B5DFF8C03B009313460A460146FFF7E7
S315000063307DFE02BD0823DFF8542C0221FDE638B5A8
S315000063400446DFF84C5C1021A81C0FF035F9C3B2E7
S31500006350AA1C204601B0BDE830400321EDE610B589
S3150000636007210170841C08214170204609F0E8F9D4
S3150000637004F1080010BD38B505460FF029F9A91C2F
S3150000638090F85600800900F0010481202870022050
S315000063906870481C220014BF282220220A7000219F
S315000063A000F8011BFFF7C6FFFFF7C9FFDFF8181853
S315000063B00B7801F108020821FFF7BFFEDFF8D41BB6
S315000063C00A881221FFF79AFE34B1DFF8CC1B0A883F
S315000063D0BDE838400F2191E632BDF0B5C7B005469D
S315000063E00C46102205F1160109A8FBF783F834B90B
S315000063F0A88EFCF74AF905A910F033FC05AC01A8F4
S3150000640009F002F802461023052126A8FFF795FE9B
S315000064100746684609F098F80FF69C1520B940F231
S3150000642033312846FBF7E4F80FF0D2F80646009A17
S3150000643006213846FFF76AFEFFF791FFFFF77AFF5E
S31500006440FFF77DFF032306F154020C21FFF775FECB
S31500006450102306F144020421FFF76FFE062306F11E
S315000064605A023521FFF769FE082332460E21FFF74F
S3150000647064FE064626A8301A7E2804D34FF45271CD
S315000064802846FBF7B5F8002210212046FCF77EFAD5
S31500006490040010D026A8331A9BB226AA09A90DA873
S315000064A00BF057FDDFF8F40ADFF8F41A1F902246C6
S315000064B00DA810F086FF47B0F0BD38B5144600228F
S315000064C0FCF764FADFF80057A88378B1288B688355
S315000064D0EC83401C288303F037FA844201D000F095
S315000064E073FC00202870FFF763FE012032BD2DE902
S315000064F0F04198B00069DDF878804478871C01F097
S31500006500A4FB412C04AEA8BF402408B984253DE075
S3150000651003A908F1100006F00DFB08B9812535E046
S31500006520DFF8A456A88B90B1FF2104A8FFF7FEFD63
S315000065300646A88BFCF7C1F80746A88BFCF7A5F81A
S315000065400246FBB20A213046FFF7F7FD1AE0BDF816
S315000065500C2021463846FFF7B0FFB0B1A88BFCF7F8
S31500006560ACF80646012104A8FFF7E0FD0746A88B14
S31500006570FCF78BF80246F3B20A213846FFF7DDFD39
S31500006580FFF7CFFD0646442500E0A02504A8301AF3
S315000065904A2803D340F29F3100F009FC04A8864242
S315000065A006D100F04BFC2946404611F0CFFA0CE02C
S315000065B0301A80B20290002304A801900022002025
S315000065C000902946404611F0C1FA18B0BDE8F081A6
S315000065D02DE9F0430C4602250346A12C83B00FF2A9
S315000065E0D870A8BF40F2AD3133DA0FF290011E46E3
S315000065F0D1E900E8CDE900E84FF0000905E048EAF6
S3150000660009015FFA81F9F1198E1C19198E421BD204
S315000066103278A2F12101052902D340F2BD3118E0FA
S315000066205FFA81FE012101FA0EF8777819EA080F60
S3150000663007D11DF80E10B94203DB252ADFD1062F3C
S31500006640DDD040F2C73104E0F11AA14204D040F295
S31500006650CE31FAF7CDFF09E0002221461846FCF7B5
S3150000666095F9DFF8F41C088000B10025214628467C
S3150000667002F06AFDBDE8F78300000000202010400C
S31500006680060000002DE9F041DFF8CC4C804620885A
S315000066900D461646FBF7F9FF07462088FCF70DF86E
S315000066A0384401E039448F1C874208D23A78797819
S315000066B04245F7D1B81C28603170012000E0002067
S315000066C0BDE8F0812DE9F0430446BDB060690FF2E4
S315000066D0C0080DF0B4FD61690E1808460DF0BCFD4A
S315000066E0341804AF002508E09DF80030019A4946A9
S315000066F03846FFF722FD0746761CA64231D2D8E976
S31500006700001202A80190C0E9001296F80090B9F1B3
S31500006710250F0CBF062000208DF8000009F00701A8
S31500006720012000FA01F1A9F120000628E4D20D4269
S31500006730E2D10D43B9F12000EDB208D0401E042885
S315000067409FBF6A4601A94846FFF79CFFCCE7DFF8E2
S31500006750780441790A00C7D0203001908DF80010E6
S31500006760C2E704A8381AE32803D34FF4836100F084
S315000067701EFB04A8381A80B20290002304A800F079
S3150000678065F8449811F0E2F93DB0BDE8F0830000E9
S31500006790000000000000000070B5054601F055FA43
S315000067A00028C4B04AD06869002410B9DFF8784CD4
S315000067B014E00DF044FD0146686945180DF04CFDE6
S315000067C02E1809E02878FFF7A3FA20B18078012176
S315000067D001FA00F004436D1CB542F3D3600303AD28
S315000067E0DFF8E46307D5337806F10802082103A829
S315000067F0FFF7A3FC0546600702D5FFF7D5FC054663
S31500006800A00704D5728B0B21FFF7D0FC0546E006E6
S3150000681006D5DFF8840702881221FFF7C7FC054674
S3150000682003A8281AB0F5807F03D940F2624100F030
S31500006830BEFA00F005F8489811F088F944B070BD2A
S3150000684003A8281A80B20290002303A80190002210
S315000068500020009044217047E0B5032102910023F7
S315000068600FF20C010191002200210091BCE1000011
S315000068701001FF0080B5DFF8503319700A46014653
S3150000688003F10800FAF736FEBDE8014090E470B562
S31500006890044684B0B648089D007848B12068810750
S315000068A006D5C94EE188728B914201D1410704D5C4
S315000068B0284604B0BDE87040CEE7400304D5606CBE
S315000068C04178801CFFF7D6FF2078800605D5206921
S315000068D04178F28B801CFFF7F0FD2068C00004D5DC
S315000068E0B4F86C00DFF8B01608800320029000238D
S315000068F00FF2AC5000F032FD11F028F97FBDDFF841
S31500006900200D0021818001700181416141708170FB
S31500006910C170DBE030B5DFF8084DE068B5B000289F
S315000069201CBFE188002905D0DFF8F81C01400522CC
S31500006930052044E0E078626902E0491E0B202170E0
S3150000694021780B002DD1002119A80EF0E7FE392180
S315000069500170851CA1784170A088FBF796FE014660
S31500006960A2782846FAF7C6FDA078054419A8281A81
S315000069706F2803D340F2165100F019FA19A82B1A02
S315000069809BB219AA04F1180168460BF0E2FA00223C
S315000069900FF2300100F0A8FAFFF7B1FF35B030BDB5
S315000069A0401C1B2803DA22FA00F3DB07F8D51B2864
S315000069B0C3DA411CE170012162788140042011F0A4
S315000069C003F9EBE7632F65720000000080B5811CB8
S315000069D00120FEF723FEFEF7E6FEDFF8481C08401E
S315000069E002BDFEB50546FFF78AFF089C2078FF2802
S315000069F001D000F092F855F85C0FDFF8246CFFF731
S31500006A00E5FFFEF7B3FE2F7910FB07F16529A4BF5A
S31500006A10642191FBF0F7FFB217FB00F0002180B272
S31500006A20FBF749FFB08028B32868FFF7CFFF7061F6
S31500006A30377040F2CA31E88830814FF470532889A4
S31500006A404843002101228A40521C5A43824203D203
S31500006A50491CC9B20E29F5DB00207170B0701022F6
S31500006A6000F055F803B00B20F0704FF47A71BDE8D2
S31500006A70F04012E0F7BD38B5DFF8A45BA8880C46F5
S31500006A80010006D0FBF701FE18B1A9784454481C52
S31500006A90A87031BDDFF8880B0189DFF8780DFAF7A9
S31500006AA059BCE0B5002100E0491C836E93F9013022
S31500006AB0CAB29A42F8DB90E0632F707100000000C2
S31500006AC0DFF85C0B0021C160C18001611022183023
S31500006AD0FAF772BD70B584B00546FFF7F1FF089C62
S31500006AE02078FF2801D000F018F85435DFF8306B15
S31500006AF0A868FFF76BFFF06010222888F08000F08E
S31500006B0006F804B0BDE870404FF47A71C5E704F1A9
S31500006B10100106F11800FAF7EDBC00200290019072
S31500006B200090002300224421204611F00FB838B50A
S31500006B3000F12004DFF8E85A2088E988884213D15A
S31500006B400EF046FDE17890F86200814206D10EF023
S31500006B503FFD2188B0F85800814205D0E2782869C7
S31500006B60012191400843286131BD0000B8F6032099
S31500006B703DF6032030B5DFF8A84A22699DB0FAB188
S31500006B80002168460EF0CAFDE2880121FFF7B6FA39
S31500006B9005466846281A0D2803D340F2DC5100F05A
S31500006BA006F968462B1A9BB26A4604F1180103A837
S31500006BB00BF0CFF900220FF2180103A810F001FC28
S31500006BC0FFF77EFF1DB030BDE8F60320E4E10320A9
S31500006BD0632F706300000000E0B500200290019072
S31500006BE00090002304980022442110F0AFFF07BD57
S31500006BF02DE9F041DFF8986CACB0074670780D4689
S31500006C0090461C46D8B1482200F02AFBF9690822B2
S31500006C100DF17700FAF76EFC28ADB889E88078891F
S31500006C202881B869FFF7EAF92890B869FFF7DEF915
S31500006C30A880012219A920460FF0B0FE18E0B0780E
S31500006C40B0B100F054F900F0EFFCF07800F044F930
S31500006C502046FBF71AFD42462946FAF74BFC414609
S31500006C602046FBF743FD22460FF6284100F03CF98B
S31500006C702CB0BDE8F081F0B595B004460FF29C014A
S31500006C80684691EC100B80EC100B2068C0041D4682
S31500006C9004D5216A102210A8FAF72CFC0822DFF886
S31500006CA0401D0DF11600FAF725FCE16908220DF1E9
S31500006CB01E00FAF71FFCA089ADF8280020684005E1
S31500006CC021D5A069FFF792F90646A069FFF796F964
S31500006CD007462846FBF7D9FC32463946FAF70AFC3E
S31500006CE031462846FBF702FD4FF48040ADF802001E
S31500006CF02946A8480088ADF82600A089ADF82800E6
S31500006D00684611F010FA2068C00403D510A9684639
S31500006D10FFF763FB15B0F0BDB86D00000000000082
S31500006D20000000000000000000000000000000005D
S31500006D30000000000000000000000000000000004D
S31500006D40000000000000000000000000000000003D
S31500006D500000000000000000000000001FB500F069
S31500006D6073FF18B3DFF8281BE088498B88421DD1D2
S31500006D702079FF2804D100F001FFFFF719FA01E09E
S31500006D8000F022F8217903A8FFF7D0F9044603A8FA
S31500006D90201A042803D340F25C6100F008F803A827
S31500006DA0201AFFF74FFD069810F0D0FE1FBD0FF218
S31500006DB00800FAF71DBC0000636F6D6D6973736997
S31500006DC06F6E2E6300000000DFF8F41CDFF8A80DDC
S31500006DD0FAF7C0BAFEB5089C0746A06A0021C0B201
S31500006DE011F052FC050006D100F028F8812120465A
S31500006DF010F0ACFEF7BDDFF8983AB86D5979002669
S31500006E0059B148B10178202906D14278811C03F195
S31500006E10200011F09BFD00B10126688840F48050E7
S31500006E2068801EB12046FFF717FD01E000F02BF841
S31500006E3068884EF6FF7108406880F7BD0020029012
S31500006E4001900090002300227047DFF8443A5978F9
S31500006E5001B9704710B55A7984B0806D069C11004F
S31500006E6009D058B14178914208D1811C03F1200024
S31500006E70FAF7A9FB10B900F006F81FBD204604B0CA
S31500006E80BDE81040E8E40320029000230FF2100052
S31500006E9001900022002000904421204610F056BEAA
S31500006EA01001010000B599B000F021F810208DF80E
S31500006EB04600002201208DF825000FF21401DFF8AC
S31500006EC0D009C07800F008F800F00EF819B000BD3F
S31500006ED0632F6463000000001390DFF8B80D129072
S31500006EE070470000115D0000684610F06ABA64221F
S31500006EF000216846FAF760BBF0B59FB00D462599AC
S31500006F0016461C46FFF781F8070008BF00201BD075
S31500006F1000F01CF83246294603A8FFF701FA60B1D3
S31500006F20786803990140814207D100943246249B38
S31500006F30BC68294603A8A04705E0FFF77FFF80212C
S31500006F40204610F003FE01201FB0F0BD7022002184
S31500006F5003A8FAF731BB30B5DFF83C4D24682500AD
S31500006F6085B010D08DF800008DF801108DF8022044
S31500006F7001936946089802900998ADF80C000A98A2
S31500006F8004900020A04705B030BD000066F5032040
S31500006F9054F50320DAE30320DCE30320BD7B010084
S31500006FA0907100002DE9F04184B00A9C0B9E029678
S31500006FB0054688461F4600F019F8022D08D10FF243
S31500006FC01400019033460C98009000F0AAF800E0F7
S31500006FD0002049E0F07E000000000000D56D0000B2
S31500006FE0000000000000000000000000019400976F
S31500006FF043462A4600210020ADE72DE9FF4105461C
S31500007000884610461F4603AA0C2110F0C6F8002831
S315000070101CBF03982A2826D10A9C0B9E0296FFF7CE
S31500007020E5FF022D1FD10C9D009500F075F811F0BB
S3150000703042FEB0B90FF2380001900095334600F0D9
S3150000704070F870B900F068F812F03BF948B900F032
S3150000705063F80FF00DF820B900F05EF812F078FF33
S3150000706010B1012000E0002004B0BDE8F08100006E
S31500007070B86A000000005000D56A0000F87E0000E3
S315000070800200C003E3690000007F0000000000006A
S31500007090C5660000847D000020000000EF6400004B
S315000070A0087F0000030000005D6D0000107F0000F7
S315000070B00000000099670000187F00000000000033
S315000070C08F680000207F0000180C0000776C00001D
S315000070D094780000180C0000F16B0000287F000077
S315000070E0000000004B6E0000D06B000000000000A6
S315000070F0D96B0000C469000000004004A36A0000C8
S31500007100D06E000000000000A56E00000000000028
S315000071100000000000000000334622463946404683
S315000071207047224639464046E6E6F0B59FB005462A
S315000071300E461F46FFF70AFF2598249C02900194ED
S3150000714000973346FFF755FF08220FF244013046F9
S3150000715012F076FFD0B92246394603A8FFF7E0F8C9
S31500007160A0B1039800F47830B0F5783F0ED107F05F
S315000071700EF90D990C9808F05DF9109808F00EFEBE
S315000071800E9806F06BFF012007F007F91FB0F0BD5F
S31500007190632F6A6500000000F0B595B004460D4601
S315000071A017461E463422002107A8FAF705FADFF82B
S315000071B0100C0088ADF82E00ADF83000109742F69E
S315000071C0E0600F90ADF8446000F026FB0AD1DFF8CE
S315000071D0600C007813901022DFF8B80A1290FFF7BF
S315000071E0B6FE04E003A94FF47C4005F09CFC07A81A
S315000071F00290019522461B981A9B0090022103A833
S3150000720010F020FA00F0E4FB15B0F0BD70B5B6B092
S3150000721005460E461C4600F022F8012D1DD0032D12
S315000072201BD13B98456AFFF762FE10A900208871C2
S315000072308DF8256010943A988880DFF85406C07857
S31500007240C860DFF8700C8860A91C6A780DF126000A
S31500007250FAF750F9687800F06DFD36B070BD70220F
S31500007260002119A8FAF7A8B9F0B589B004460D4669
S3150000727016461F461522002102A8FAF79DF900209E
S315000072808DF8080006F12C0196F834208DF80920B7
S315000072900DF10A00FAF72EF901950094152302AABA
S315000072A0DFF8141C3846FFF777FF09B0F0BD2DE96B
S315000072B0F04196B000691C9D4778861C00F0C5FC1D
S315000072C0412FA8BF40270C46002811463AD002F0AD
S315000072D03BFB024639463046FFF7EFF803AC4FF06A
S315000072E0FF08B8B1DFF8A845A07808B1A86AE07031
S315000072F04FF00108A08BFBF7E0F90646A08BFBF7E1
S31500007300C4F90246F3B20A2103A8FEF716FFFEF7F8
S3150000731008FF044641462046FEF708FF044603A838
S31500007320201A4A2803D340F61F01FFF740FD03A8A1
S31500007330201A80B20290002303A800F00FF810F084
S3150000734005FC05E00FF63C232A462046FFF78CFF96
S3150000735016B0BDE8F081000068FD03200190002210
S315000073600020009044212846704730B5054608465F
S31500007370114685B0DFF8442B089C12781AB3DFF863
S315000073801025E888528BFF2190420AD12879FF28E0
S3150000739004D100F0F3FBFEF70BFF01E0FFF714FD4D
S315000073A0297903A8FEF7C2FE054603A8281A042871
S315000073B003D34FF40461FFF7FAFCFFF741FA2046C6
S315000073C010F0C4FB04E00FF640332246FFF74CFFF3
S315000073D005B030BD38B500F01FF82DB100920A4651
S315000073E02146FFF76FF931BD204601B0BDE83040B8
S315000073F00FF60C3338E738B500F00EF82DB10092D1
S315000074000A462146FFF7C8F931BD204601B0BDE85E
S3150000741030400FF6FC2327E70C46DFF8A05A2D78FC
S315000074201146049A704700000600040038B5FFF7BD
S31500007430F3FF2DB100920A462146FFF728FA31BD27
S31500007440204601B0BDE830400FF6CC230CE7F0B57E
S3150000745099B004460D4616461F4602F075FA618934
S31500007460814208D11E9800903B4632462946204666
S31500007470FFF701FC19E00023002268460AF092FD9E
S3150000748002F062FA694605F04EFB3846FBF7FDF856
S3150000749032462946FAF72EF831463846FBF726F9E2
S315000074A03A460FF67C21FFF71FFD19B0F0BD2DE916
S315000074B0F04F8846A1B0914647464FF0000A002497
S315000074C0002505E0324639460BA8FAF713F8BF192E
S315000074D008EB0900B8421BD397F800B07E78BF1CB2
S315000074E0FF2E04D13846FEF76CF80646BF1CBBF1EA
S315000074F0300F03D0BBF1310FE4D0E9E7BC1C2046C6
S31500007500FEF75FF8351FA41CADB282466719DFE7A8
S31500007510DFF86809807E00F0070040F47C4007A988
S3150000752040F0300005F0FFFA0020069005954FF276
S31500007530BF0004940290CDF80CA04020019007AB48
S315000075400BA80090002200210FA80AF05AFC0100A7
S3150000755006D000210091FF2301220FA90BF067FB43
S3150000756021B0BDE8F08F2DE9F041E0B004461023CC
S3150000757004F10B02312119A8FEF7DFFD064604F1DE
S315000075803C00848805680789B0F806803020307092
S31500007590211DFF20707089B2B01CFEF71CF8414611
S315000075A0301DFEF718F8B61D39463046FEF713F8BB
S315000075B0B61C224629463046F9F79CFF301919A910
S315000075C0DFF8B858441A687878B100230022002101
S315000075D068460AF0BEFC10208DF84600684605F0A5
S315000075E0EAFA04A805F0E7FA06E0FFF780FC00F0E7
S315000075F01BF8E878FFF770FC0021A0B2FBF75BF9F7
S3150000760005000AD0FBF741F8A2B219A9F9F772FFF3
S315000076102A460FF62C11FFF767FC60B0BDE8F08133
S3150000762048F7032000F8FF0710208DF846000220D7
S315000076308DF825007047F0B5022883B00D461E462A
S3150000764016D10FF62C10089C099F01903B460A980C
S315000076500090224631462846FFF74EFC30B93B469D
S315000076602246314628460EF003FD10B10120FEBD2C
S315000076700020FEBD704700B502460846022A83B0C8
S31500007680194609D10FF64812059B0192069A0092F7
S31500007690049AFFF731FC0EBD00200EBD2DE9F04126
S315000076A094B00546884614461F464822FEF734FE27
S315000076B01B98109010AE1C98B080102241460DF118
S315000076C01F00F9F717FF102229460DF10F00F9F7F1
S315000076D011FFDFF8EC17DFF8EC073481F780097843
S315000076E00088072904BF8442DFF8DC0709D068490F
S315000076F0897821B1844208BFDFF8D00701D0DFF8CE
S31500007700D007009001A91A9B1D98DFF8A82712F050
S31500007710D3FE14B0BDE8F08100B585B001910393A6
S31500007720029201780091038DC28C811D1630FFF7FD
S31500007730B5FF05B000BD2DE9F047A4B080462F9CEB
S31500007740894692461E4601212046FBF783F80546E8
S315000077502D9A12216846FEF7D1FC32461421FEF717
S31500007760CDFC2C9A08231321FEF7E7FC2E9A064639
S3150000777022B110231521FEF7E0FC064665B1112063
S31500007780FF2D307002DA7570B61C05E0FF207070B0
S31500007790280AB070F570361D6846301A292803D3BA
S315000077A040F6B111FFF703FB6846331A5FEA09009A
S315000077B01CAEDFF8E0540CD000F02EF809D19BB2D5
S315000077C06A4600210AA80AF0C4FBDFF864060078BE
S315000077D00EE0DFF8A876B87880F0010050EA0900DC
S315000077E09BB26A4607D100210AA80AF0B2FBF878D4
S315000077F070601C9503E051460AA80AF0D3FB1020DE
S315000078008DF86E00224641460AA80FF0DAFD24B034
S31500007810BDE8F087FCE10320DFF8A406007807281E
S315000078207047F0B51A4E04460D46F08B4FF6FE71C2
S31500007830884285B02AD030790A2827DA28B94FF449
S315000078407A71DFF89006F9F785FD3079401C3071C2
S3150000785005F13C072046FAF718FFBA883968F9F7A8
S3150000786049FEB9882046FAF741FF02F06DF8034653
S315000078700020029003940021F888F28B019005F114
S31500007880130000900FF20C00FFF755FF05B0F0BD96
S31500007890E8F60320632F7278000000001FB5069CEF
S315000078A00293019100900394134601210FF2706038
S315000078B0FFF741FF1FBD10B503289CB01C460CD135
S315000078C0442918BF452908D17022FFF711FB00F0A3
S315000078D0B1FA10B1012006F0FFFA1CB010BDF0B5E8
S315000078E0DFB004466422002146A8F9F765FE2000B1
S315000078F00CAD04D001210CA8FEF718FC0546212684
S315000079000FF2446702A83946282203F03FF802A87E
S315000079100190252E0CBF062000208DF800006A4637
S3150000792001A93046FEF7AEFE242E04BF9DF80000E6
S31500007930002807D09DF80030019A31462846FEF708
S31500007940FCFB0546761C262EDCDBDFF830657379FA
S31500007950180006D006F1200220212846FEF7EDFB8E
S31500007960054645A8401CA84203D240F63621FFF73B
S315000079701EFA0CA82B1A20009BB20CAA0AD00021D2
S3150000798046A80AF0E6FADFF8A80400785990C1483C
S31500007990589009E0B07E00F0070040F47C4141F0C9
S315000079A0300146A80AF0FEFADFF82C055B90002CA1
S315000079B042F6E0605C9014BF0FF234510FF268514A
S315000079C0002246A80FF0FDFC00F002F85FB0F0BD03
S315000079D0401E8041C00F7047DFF8A0044078704712
S315000079E0B0CC0000F0B5ADB004460E461546702288
S315000079F0002111A8F9F7E0FD20460CF02DFC074602
S31500007A00FEF70DFCDFF8D414009122183B4611A9AD
S31500007A1011A8FEF70BFB00284FD0119800014CD59A
S31500007A202CAFB8780009022847DB4222FFF760FA3C
S31500007A3008AC0320A0700822B8780009E07131462E
S31500007A4006A8F9F757FD14AE706A4278811C68469D
S31500007A50F9F750FD316A082204A8F9F74BFD032116
S31500007A602846FBF75DF8E07001212846FBF758F839
S31500007A70607102212846FBF753F8A071284600F0F2
S31500007A80C8FBADF82000B878000705D501208DF8B1
S31500007A904000BDF8B000E083B06B58B10121217100
S31500007AA0BDF85010A183811C4278A2760DF12A0000
S31500007AB0F9F720FD684606F087F82DB0F0BD000006
S31500007AC0C0D4010070B59EB0002104200CF0DBFD8F
S31500007AD004004AD0FEF71FFC20460CF0BDFBFEF763
S31500007AE09DFBDFF8F813009122182B4601A901A887
S31500007AF0FEF79CFA18B94FF42A61FFF758F9019876
S31500007B0000F00600062830D101F01EFFBDF80C106B
S31500007B100124884208D1DFF864038178407880F038
S31500007B200100084308BF03241298D0B10CF094FB5F
S31500007B300546C0B2A8B112980CF081FB12990E1836
S31500007B400FD00022E9B23046FDF79EFD48B9FF226C
S31500007B50E9B23046FDF798FD44F0040408B944F054
S31500007B60080400220021204602E000220021002015
S31500007B7001F08AF91EB070BDE4E1032010B5DFF80C
S31500007B80FC42A08B60B10020A0836070DFF8500338
S31500007B90F9F730FC0020E070208B6083401C2083C6
S31500007BA010BD0200DFF8D43201D0032802DB00202A
S31500007BB018707047012803D11870FF20187270479B
S31500007BC01129A8BF102119701022002103F1080005
S31500007BD0F9F7F2BC1FB5A94C617879B101460822C4
S31500007BE002A8F9F787FC694602A805F057FE217836
S31500007BF001236A4604F10800FEF734F91FBD7047F9
S31500007C0030B59E4D6878CDB00124C0B100F01DF8A6
S31500007C1090B902A8FEF785FA2B7805F1080208212B
S31500007C20FEF78BFA02A9401A00F02CF80FF2E820B2
S31500007C30FFF7B2FA18B101E0FEF7BAFA00242046BF
S31500007C4001F0DEF84DB030BD04469C480078704720
S31500007C501FB5044602A8FEF764FA2146FEF766FA47
S31500007C60044602A8201A082803D340F62131FFF75C
S31500007C709EF802A8201A00F005F80FF28C20FFF7F4
S31500007C808BFA1FBD80B20190002302A8009000224B
S31500007C9094497047FFA00100E0F603202DE9F0416A
S31500007CA0B6B0044688461D46FFF7D9FA012C3ED0E9
S31500007CB0032C3CD13C9C2246294619A8FEF730FBF2
S31500007CC0199901F00101084231D06C4FB878C0B162
S31500007CD03D98466AFFF70BF910A8002181718DF8CF
S31500007CE0258010958480F978C16072498160B11C45
S31500007CF072780DF12600F9F7FDFB707800F01AF89E
S31500007D0015E09DF86800012811D11998744C800778
S31500007D1044BFBDF86A007883012078702046F9F7E1
S31500007D2075FA20B94FF47A712046F9F713FB36B08D
S31500007D30BDE8F0818DF82E000022002168460FF084
S31500007D4040BB30B5FFF780FFC3B00D4650B900F019
S31500007D501DF8A81C00F036F863490FF22800FFF75B
S31500007D601BFA08E001F0F0FD024629462046FEF720
S31500007D70A4FB4249487080F0010001F03BF843B093
S31500007D8030BD0000632F6C70000000002B462246B9
S31500007D900A2102A8FEF7D1B980B53848407868B103
S31500007DA0FFF7ECFEFFF738FD03D1012000F047F89E
S31500007DB002E0FF20FFF74CFFFEF766BD01BD0000A5
S31500007DC0E6E3032080B20190002302A8009000227F
S31500007DD0704710B501289CB01C4626D0032824D134
S31500007DE0442918BF452920D17022FFF781F800F0F9
S31500007DF021F8009901F00101084216D09DF804000F
S31500007E00012812D100991D48354C890744BFBDF899
S31500007E1006104183012141702046F9F7F7F920B990
S31500007E2049F640412046F9F795FA1CB010BD00000E
S31500007E30FAFC03201E9A21466846FEF771BA00B581
S31500007E4085B0002814BF0121FF2102A8FEF76EF9B4
S31500007E50FEF767F900F006F80FF2DC00FFF79CF971
S31500007E6005B000BD02A9401A80B20190002302A805
S31500007E70009000221D49704700000000E8F603202C
S31500007E80F0B50E4693B017463578022F04460FDB41
S31500007E904822FEF741FA701C10902B46781EADF86A
S31500007EA0440001A90948034A0090204612F004FB49
S31500007EB013B0F0BDFFA001000D7200003DF60320D7
S31500007EC0CAF60320DCE3032077760000377600004D
S31500007ED0A56F0000F0E10320B7780000115D0000F7
S31500007EE0E4E10320FF7B00009D7C0000D37D0000C1
S31500007EF0632F6A6600000000632F657300000000B0
S31500007F00632F6D6700000000632F6C6100000000A6
S31500007F10632F636700000000632F63730000000097
S31500007F20632F747800000000632F6A610000000070
S31500007F30632F637000000000632F63610000000080
S31500007F40632F7572000000000000000000000000B2
S31500007F50000000000000000000000000000000001B
S31500007F60000000000000000000000000000000000B
S31500007F70307F000020000000AF720000387F000054
S31500007F80030000006B730000007F0000000000008B
S31500007F90D5730000107F000000000000F77300009A
S31500007FA0187F0000000000002D740000207F0000F4
S31500007FB0180C00004F7400008465030000000000E8
S31500007FC0AF74000000000000000000000000000088
S31500007FD094780000180C0000F16B0000407F000050
S31500007FE00000006075760000000000000000000040
S31500007FF00000000080B5FAF748FB60B10178CA07B7
S3150000800005D4401D12F0A2FA401DC0B202BD880779
S3150000801001D50F2002BD092002BD38B50446FAF786
S3150000802034FB05462046FFF7E5FF284432BD002114
S31500008030FAF776BD0A460021FAF779BD80B5FAF758
S3150000804024FB18B1017841F08001017001BD0421C3
S31500008050FAF766BD0A46FFE70421FAF768BD80B560
S315000080600521FAF779FD00F4406002BD38B50446F3
S31500008070FAF70BFB05462046FFF7D9FFC00701D5E7
S31500008080E81D32BD05F10A0032BD80B5FFF7EEFFEF
S31500008090BBE038B504460D46FFF7E8FF2946FDF775
S315000080A096FA00F02AF84FF6FF718D4206BF4FF69A
S315000080B0DF7101EA000240F020022046BDE83840A8
S315000080C00521FAF758BD10B50C46FFF7CFFF21463C
S315000080D0BDE810400822F9F70DBA38B504460D463A
S315000080E0FFF7BDFFA84207D000F007F84FF2FF31B7
S315000080F0084045EA0002E0E731BD05212046FAF7CF
S315000081002BBD2DE9F04104460D46FFF790FF0646CC
S31500008110F00704D48B210FF25420F9F769FAB0075F
S315000081201AD52046FAF7B1FA80462046FAF7C5FA7C
S315000081300746A0F10F0292B208F10F0108F10900FB
S31500008140F9F7D8F9B91F89B22046FAF7CFFA06F03F
S31500008150FD012046FFF76EFF4FF400612046FFF752
S31500008160BCFF4FF6FE708542204607D1FFF75FFF42
S3150000817040F020012046FFF75DFF0AE0FFF757FFBA
S3150000818000F0DF012046FFF755FF29462046FFF79E
S3150000819080FF0120BDE8F08110B50446FFF75FFFC0
S315000081A048B1B0F5006F08D12046FFF76EFF4FF6D5
S315000081B0FF71884201D1012010BD002010BD80B59D
S315000081C00521FAF7C9FC00F4404002BD38B5044663
S315000081D0FAF75BFA05462046FFF729FFC00701D5E7
S315000081E0E81D32BD2046FFF718FF05462046FFF77B
S315000081F0E6FFB0F5404F0CBF6FF007006FF00100CF
S31500008200284432BD80B5FFF7E1FFBDE80240FDF727
S31500008210D5B938B50446FFF70AFFC00703D5BDE850
S31500008220314001F09BBBFFF768FF05462046FAF791
S315000082302CFA0830690611D44FF440410D4202D1A0
S315000082404FF6FF7032BD05F44061B1F5006F08BF0F
S31500008250001D03D0B1F5406F08BF0A30BDE83240BB
S31500008260FDF7ACB910B50446FFF7E1FE000703D5EC
S315000082702046BDE81040C5E74FF6FE7010BD2DE95B
S31500008280F0471D46012610B140F6010006E0002A1F
S315000082901ABF032640F6214040F62100002914BFEC
S315000082A04FF440414FF4004141EA0008002007F036
S315000082B04BF918B148F4805040F00808089C16F0B5
S315000082C0020714BF0F2009202018002180B2FAF7F8
S315000082D0F2FA814608B3FAF7F0F982464846FAF709
S315000082E0D4F952460021F9F767F931464846FFF7B7
S315000082F0A1FE4846FAF7C9F9461D41463046FDF744
S3150000830066F9B01C002F14BF0823022325B12246AC
S3150000831029461844F9F7EEF84846BDE8F087F8B55F
S3150000832004460D46681D002180B2FAF7C4FA06001D
S3150000833001D10020F2BDFAF7C0F907463046FAF738
S31500008340A4F93A460021F9F737F904213046FFF738
S3150000835071FE3CB13046FAF798F92A462146401D8F
S31500008360F9F7C8F83046F2BD0000000069702D70BC
S3150000837061636B65742D6865616465722E630000C8
S31500008380002212F007B9000001F07EBD80B504F0AE
S315000083905CFD18B1BDE8014001F036BD01BD04F039
S315000083A0BCBA04F0E9BA12F00FB930B599B000F0D2
S315000083B036FA00F0B4F90023082204A9012004F0DB
S315000083C0ABFF00F096F88DF82B00032004F00DFFAC
S315000083D08DF82C0000F03AF90446052004F0DEFE84
S315000083E005460023082206A9062004F095FF2A4622
S315000083F0A1B2684605F0D3F819B030BD10B598B0F3
S3150000840000F00DFA00F08BF90023082208A90120DC
S3150000841004F082FF00F06DF8ADF828000AAC00F019
S315000084206BF9E070042004F0E0FE207100232022A6
S315000084300DF13D01052004F06FFF062004F0AEFEAD
S315000084408DF85D00072004F0A9FE0446082004F01C
S31500008450A5FE0246A1B2684605F006F904F06EFADA
S3150000846018B010BD80B501F091FDBDE8014004F0E3
S3150000847065BA05F026B910B586B000F060FA044674
S315000084800023102202A9012004F046FF002308223F
S315000084906946022004F040FF6A4602A92046FAF720
S315000084A061FD06B010BDE0B50C2200F0B9F900215F
S315000084B0002004F0D4FE009002A9012004F0CFFEB3
S315000084C0019000F016F881B2684607F0F6F807BD8D
S315000084D007F006B938B500F032FA00F010F900F0EE
S315000084E007F8C2B22946E0B2BDE838400FF06CBBCF
S315000084F00546022004F052BE0FF0F4BB80B500F032
S315000085001EFABDE80240C0B201F08ABB04F019BAF7
S3150000851080B500F014FABDE80240C0B2F9F7A9BC74
S31500008520F9F7BCBC80B500F00AFA80B2FAF75FFE34
S31500008530BDE8024078E301F037BA01F049BE80B5E4
S31500008540002004F052FEBDE8024040B201F038BE01
S3150000855001F023BA80B5002004F047FEBDE80240D2
S3150000856040B201F001BA80B500F006F99DF800109E
S3150000857004F043FA01BD2DE9F04188B000F0DFF9BF
S3150000858000F0BDF8050018BF01250023102203A93D
S31500008590022004F0C1FE00F0AFF800F056F80746DE
S315000085A0052004F0FBFD8046062004F0F7FD02904E
S315000085B0FFB2CDF804800097F3B203AAE9B2A0B2E5
S315000085C011F031F808B0BDE8F08110B500F0B7F948
S315000085D000F095F8C1B2E0B2BDE8104001F09FBBD3
S315000085E001F06FBD80B500F0AAF900B10120BDE829
S315000085F00240C0B211F0FCBF80B500F0A0F9BDE8A2
S315000086000240F9F7EBBB80B501F051F9BDE8024035
S3150000861086E370B586B00023102201A9002004F07D
S315000086207BFE00F06DF80446FFF763FF054600F099
S3150000863063F800F00AF8C0B20090B3B2AAB2A1B2D1
S3150000864001A804F0D3F906B070BD0646042004F074
S31500008650A5BD38B5002004F0C8FD00F050F8FFF7BE
S3150000866047FFE9B2020060B2BDE8384018BF0122F8
S31500008670D2B204F0CABF2DE9F0418EB0102200211B
S315000086800AA8F8F799FF00F05AF900F038F80546FD
S3150000869005A9022004F0E3FD804600F02DF8074608
S315000086A00023082208A9042004F036FE002308222D
S315000086B006A9052004F030FE0AA9062011F0BBFF2A
S315000086C0072004F06BFD06469DF8140004F091FBAC
S315000086D078B104960AA80390BFB206A8029008A82B
S315000086E00190009742469DF814302946E0B205F005
S315000086F0D0FD0EB0BDE8F081032004F04FBD044666
S31500008700012004F04BBD00B585B000F008F8FFF776
S31500008710F7FFC1B2684611F09FFF05B000BD002308
S3150000872010226946002004F0F7BD80B500F024F859
S315000087309DF8001004F0C0FA01BD00B585B0FFF742
S31500008740EEFFFFF7DDFFC1B2684601F005FA05B09E
S3150000875000BD00B583B0082200F062F800F059F8B9
S315000087606846FFF737FA07BD80B500F005F89DF8B3
S315000087700010FFF7E6FA01BD6946002004F06FBD60
S31500008780FFF7A0B9FFF73CBAFFF706BBE0B5082232
S31500008790002101A8F8F710FF0023082201A90020F4
S315000087A004F0BAFD00F02CF901469DF8002001A85E
S315000087B00EF090FA07BD10B500F0C1F8FFF79FFF65
S315000087C0C1B2E0B2BDE81040FFF7EBB980B500F0EA
S315000087D0B6F8BDE80240C0B200F023BF01F0F6B91A
S315000087E000B585B0102200F01BF86946002011F094
S315000087F01DFF684607F0ECF905B000BD00B583B073
S31500008800082200F00DF800F004F8684604F083F83A
S3150000881007BD002308226946002004F07DBD5E22C4
S3150000882000216846F8F7C8BE00B585B0FFF777FFA8
S31500008830FFF766FFC1B2684607F099F905B000BDBB
S3150000884080B56946002004F02DFDBDF80010F9F74B
S3150000885010F801BD10B500F072F8FFF750FFC1B275
S31500008860E0B2BDE810400BF07DBE01F069B980B5FD
S3150000887000F065F800B10120BDE80240C0B204F086
S315000088809FBD70B586B000F05AF8FFF738FF0500B7
S3150000889018BF01250023102201A9022004F03CFD87
S315000088A0FFF72AFFFFF7D1FEC0B20090F3B201AA8C
S315000088B0E9B2E0B210F056FF06B070BD80B500F028
S315000088C03EF800B10120BDE80240C0B205F08CBB05
S315000088D080B5FFF751FF9DF800100EF043FA01BD79
S315000088E004F08DB810B500F02AF80446C0B204F0C2
S315000088F0B9FA20B1E0B2BDE8104004F08AB810BD64
S3150000890080B500F01CF8BDE80240C0B201F0EABA3A
S3150000891010B582B000F013F800F071F89DF8002051
S315000089200146E0B201F0EAFA13BD80B500F007F89F
S3150000893000B10120BDE80240C0B204F00ABF002029
S3150000894004F02CBC01F012BB80B5FFF7F8FFBDE8C0
S31500008950024080B201F012BB80B5FFF7F0FF00B114
S315000089600120BDE80240C0B201F039BC01F03EBCB6
S3150000897080B5FFF7E4FF00B10120BDE80240C0B2B8
S3150000898001F03BBC01F04EBC80B5FFF7D8FFBDE857
S315000089900240C0B201F04FBC80B5FFF7D0FFBDE882
S315000089A00240C0B201F04EBC01F02EBC80B5FFF70C
S315000089B0C6FFBDE8024001F02EBC80B5FFF7BFFF41
S315000089C0BDE8024080B204F05EBA10B5FFF7B7FF0B
S315000089D0FFF795FE0100E0B2BDE8104018BF012187
S315000089E0C9B2FDF7A1BA38B5FFF7A9FF00F007F83D
S315000089F0FFF77EFD00F033F804F000FB31BD0446BE
S31500008A006946012004F02BBC7CB5FFF798FFFFF701
S31500008A1076FE054601A9022004F021FC0646FFF772
S31500008A206BFE80B2009032469DF80430A9B2E0B2E7
S31500008A3004F06EFA73BD80B5FFF781FFBDE8024012
S31500008A40C0B212F0CCBD38B5FFF779FFFFF7D7FFFC
S31500008A50FFF74EFD00F003F804F0D7FA31BD83B2FC
S31500008A609DF800202946A0B2704710B5044604F0D0
S31500008A70E7F938B12246BDE81040ACA14FF4C64034
S31500008A8012F0C4BE10BD30B58FB000F0ADFA46F29C
S31500008A9001309FE22DE9F04387B080460F9C0D46DA
S31500008AA016461F462046FCF709FE81464046FCF75F
S31500008AB005FE09F1010105910494431C0E990391E9
S31500008AC00297019600954246DFF8F01746F202300B
S31500008AD012F09CFE07B0BDE8F08300B589B0CA7BF2
S31500008AE008920B468A7B07924A7B06920A7B05927E
S31500008AF0CA7A04928A7A039291F9092002920A7A32
S31500008B00DFF8BC17019208220092024646F20330B3
S31500008B1012F07CFE09B000BD10B5044604F044F91D
S31500008B20224682A146F2043012F070FEBDE81040E3
S31500008B3004F053B90B460246A1A146F2053012F0E5
S31500008B4065BE024679A146F2063012F05FBE0246C5
S31500008B5076A146F2083012F059BE024673A146F2DB
S31500008B600A3012F053BE024670A146F20B3012F0E4
S31500008B704DBE02466DA146F20C3012F047BE0246CB
S31500008B806AA146F2653012F041BE0B460246A3A129
S31500008B9046F2103012F03ABE00B500F120018FB057
S31500008BA08A7E0D9210220C9200F12A020B92CA794B
S31500008BB00A928A7809920822089200F1180207920E
S31500008BC00822069200F1100205920A880492029089
S31500008BD01022039291F90600019048790090CB7813
S31500008BE00A79DFF8E01646F2113012F00FFE0FB0E8
S31500008BF000BD02464DA146F2123012F007BE0246F3
S31500008C001023A0A146F2133012F000BE0246102334
S31500008C109CA146F2143012F0F9BD0246102399A128
S31500008C2046F2153012F0F2BD024640A146F2163069
S31500008C3012F0ECBD02469DA146F2173012F0E6BDD9
S31500008C401FB50293019210240B460246039400942A
S31500008C5046F21830DFF870160BE010B584B00193B9
S31500008C60009208240B460246029446F21E30DFF8B4
S31500008C705C1612F0CBFD1FBD024697A146F22130CD
S31500008C8012F0C4BD024629A146F2223012F0BEBD42
S31500008C90024691A146F2233012F0B8BD80B50246D5
S31500008CA022A146F2243012F0B1FDBDE8014004F0E5
S31500008CB0D7B80B46024673A146F2263012F0A6BD7F
S31500008CC038B504460D46FCF7F9FC431C00952246D0
S31500008CD09AA146F22D3012F099FD31BD024613A13C
S31500008CE046F2403012F092BD10B5044604F09AF8F0
S31500008CF028B122460DA146F2423012F087FD2046E9
S31500008D00BDE8104004F094B8024608A146F243308C
S31500008D1012F07CBD024605A146F2443012F076BD43
S31500008D20024602A146F2453012F070BD7500000001
S31500008D3010B5044604F08EF838B12246BDE810405E
S31500008D40A0A146F24C3012F061BD10BD12F05EFDDE
S31500008D5007BD00B583B000F003F846F25130F5E7E1
S31500008D6010230192009102469DA1704780B50092A2
S31500008D700B4602469BA146F289308CE010B584B0C2
S31500008D80019300920B46069CDFF8441502940246B6
S31500008D9046F288306DE7FEB504460D4616461F4678
S31500008DA004F01DF850B10297019600951023224653
S31500008DB0DFF8201546F2523012F028FDF7BD00000C
S31500008DC07576000000B583B000F054F846F25330D3
S31500008DD0BCE702467BA146F2553012F017BDE0B55E
S31500008DE001920293009102461023DFF8E81446F23E
S31500008DF05630ABE7024673A146F2593012F006BD73
S31500008E00024670A146F25A3012F000BD02466DA12C
S31500008E1046F25D3012F0FABC0000000075730000E7
S31500008E2010B586B00A9C059402931023099C0494FD
S31500008E30019300920B46089CDFF89C1403940246AB
S31500008E4046F25E3012F0E2FC06B010BD02465DA1AD
S31500008E5046F25F3012F0DABC00B583B0FFF780FF50
S31500008E6046F2603072E700B583B000F003F846F2D0
S31500008E7061306BE70B460192A2A1102200920246D6
S31500008E80704700006200000080B500920B46024663
S31500008E9054A146F2643012F0B9FC01BD0246082323
S31500008EA0A8A146F2663012F0B1BC000076000000C0
S31500008EB010B584B0019300920B46069CDFF80C14A3
S31500008EC00294024646F26730D3E6024610239DA17D
S31500008ED046F2683012F09ABC73000000024639A1CF
S31500008EE046F26A3012F092BC024636A146F2703063
S31500008EF012F08CBC024633A146F2713012F086BCE9
S31500008F0010B58CB0119C0A9402920824099404931B
S31500008F101022109C089401920824079408230F9CA1
S31500008F2006940091039302460E9CDFF8B013059455
S31500008F3046F2723012F06AFC0CB010BD6277000087
S31500008F4080B5009102461023B7A146F27330A2E71E
S31500008F50024610237BA146F2743012F057BC70B55E
S31500008F6082B004460D46164603F04CFF38B1009613
S31500008F702B462246B7A146F2753012F047FC73BD68
S31500008F8000B583B000F012F8D54946F27630DDE63A
S31500008F9002460CA146F2773012F038BC00B583B019
S31500008FA000F004F8B8A146F27830CFE601930092BB
S31500008FB00B46024670470B460246B4A146F279308C
S31500008FC012F024BC7500000030B58FB000F00CF82C
S31500008FD046F27A30C34912F019FC0FB030BD0000DA
S31500008FE0627575007662000008250E9500F128046A
S31500008FF000F118050D95099108250C950B920A9517
S315000090000893024694F9041007911023E17806911B
S31500009010A178059121880491039500F12001029120
S31500009020019500F11001009170470B4602469BA185
S3150000903046F27B3012F0EABB024699A146F27C303A
S3150000904012F0E4BB024696A146F27F3012F0DEBB78
S31500009050024693A14FF4C74012F0D8BB024690A136
S3150000906046F2813012F0D2BB0B46024687A146F289
S31500009070823012F0CBBB024689A146F2833012F051
S31500009080C5BB00B583B00B4601921EA152000092EB
S31500009090024646F2843059E6024682A146F28530FF
S315000090A012F0B4BB02467EA146F2863012F0AEBB89
S315000090B002467BA146F28A3012F0A8BB0B46024656
S315000090C079A146F28B3012F0A1BB0B46024676A17F
S315000090D046F28C3012F09ABB0246102319A146F2D2
S315000090E08D3012F093BB10B504461023224615A10D
S315000090F046F28F3012F08AFB2046BDE8104003F09E
S31500009100DCBD00007562750010B58AB00D9C09942F
S31500009110240108940C9C079493F9124006941C8A27
S315000091200594DC680494082403949C1C02941B8810
S31500009130FFF73CFF6C4946F2903012F067FB0AB02D
S3150000914010BD0000620000000B46024656A146F222
S31500009150913012F05BBB000080B5FFF7F0FB00B169
S315000091600120BDE80240C0B212F08CBB12F097BBE2
S3150000917080B5FFF7E4FBBDE80240C0B212F098BB31
S3150000918080B5FFF7DCFBBDE80240C0B212F0A1BB20
S3150000919010B582B0FFF7F0FAFFF7B1FA82B29DF888
S315000091A00010204612F0C2FB13BD38B5FFF7C7FB0F
S315000091B0FFF7A5FA0546022004F017F842B2A9B255
S315000091C0E0B2BDE8384012F0CDBB80B5FFF7B7FB83
S315000091D0BDE80240C0B212F0EDBB10B5FFF7AFFB21
S315000091E0FFF78DFA0146E0B2BDE8104012F00ABC66
S315000091F002462BA146F22F3012F008BB00B583B011
S31500009200FFF7D4FE29A146F230309FE50B46024611
S3150000921027A146F2313012F0F9BA0B4602461BA1DD
S3150000922046F2323012F0F2BA627700000B4602467E
S3150000923016A146F2333012F0E9BA024618A146F2F8
S31500009240343012F0E3BA0B46024610A146F235302E
S3150000925012F0DCBA75757500024611A146F2383077
S3150000926012F0D4BA024613A146F2393012F0CEBA41
S31500009270024611A146F23A3012F0C8BA02460DA1D2
S3150000928046F23B3012F0C2BA757562007575000081
S31500009290024603A146F28E3012F0B8BA7675000087
S315000092A07500000077000000757600006275730097
S315000092B0757700007300000076000000245B030051
S315000092C02C5B0300385B0300485B0300505B030024
S315000092D0045B0300585B0300605B0300685B0300EC
S315000092E0745B0300185B03007C5B030080B50FF220
S315000092F04C10F8F7D9FE12F08FFB0FF24C10F8F76E
S31500009300D3FE12F067FD0FF25010F8F7CDFE13F002
S315000093102DF80FF25010F8F7C7FE13F073F9A1A05D
S31500009320F8F7C2FE0FF058F90FF24C10F8F7BCFE32
S31500009330DFF8E40AF8F70CFF0FF24C10F8F7B4FE6A
S3150000934013F076FD0FF24810F8F7AEFEF9F7D8FDE8
S315000093500FF24810F8F7A8FEDFF8C00AF8F7F8FE93
S315000093600FF24C10F8F7A0FEDFF8B40AF8F7F0FE9B
S315000093700FF24C10F8F798FEDFF8A80AF8F7E8FEA7
S315000093800FF25410F8F790FEDFF8E80AF8F7E0FE5F
S315000093900FF25C10F8F788FEDFF8DC0AF8F7D8FE63
S315000093A00FF26010F8F780FEDFF8D00AF8F7D0FE6B
S315000093B00FF26810F8F778FEDFF8C40AF8F7C8FE6F
S315000093C00FF26C10F8F770FEDFF8B80AF7F7AEFF89
S315000093D00FF27010F8F768FE0EF092F90FF26C10AB
S315000093E0F8F762FE13F00FFE0FF26810F8F75CFE56
S315000093F0DFF8E00AF8F7ACFEDFF8DC0AF8F7A8FEBB
S315000094000FF26010F8F750FEDFF8D00AF8F7A0FE6A
S315000094100FF27010F8F748FE0DF017FA0FF2701001
S31500009420F8F742FEDFF8B80AF8F792FEDFF8300BDD
S31500009430F8F78EFEBDE80140F8F73ABE4D414320ED
S3150000944061726269746572004D414320696E646998
S31500009450726563740000000072657472792074612D
S31500009460626C6500364C6F5750414E2066726167DC
S315000094706D656E74730000006D756C74696361735D
S3150000948074207461626C650077616B6575700000AD
S315000094906170706C69636174696F6E00666F726D7E
S315000094A02D656E657267792D7363616E000000002D
S315000094B06E6574776F726B206461746100000000E2
S315000094C0736C656570792062726F61646361737431
S315000094D02068656164657200676C6F62616C20610B
S315000094E0646472657373207461626C6500000000C9
S315000094F06C6F63616C20736572766572206461744B
S3150000950061000000626F7264657220726F75746527
S3150000951072204E4420646174610000006368696CC7
S31500009520642061646472657373207461626C6500A3
S31500009530737461636B206576656E742071756575ED
S3150000954065000000436F4150000000004A50616B07
S3150000955065000000436F6D6D697373696F6E696EA8
S31500009560670000007363616E20726573756C7473B7
S3150000957020666F7220636F6D6D697373696F6E65B8
S315000095807200000044544C53204A6F696E0000007C
S315000095906C6F6F706261636B206D65737361676575
S315000095A0730000005544500070B5DFF86848054662
S315000095B0E0882A0601D4062D04D140F0040005F007
S315000095C07F0503E011B94FF6FB7108402E46022EC7
S315000095D01CBF032E042EE08008D0052E0DD0062ECB
S315000095E018BF072E02D0F02100F0A3F9A570A078CD
S315000095F004280CBF0120002001E00325F6E713F044
S3150000960076FEE0884FF6F4710840062E08BF40F05B
S31500009610020004D0022E14BF032E40F00800E080A2
S3150000962070BD10B5DFF8EC4706281CBFA1780629E7
S3150000963001D0C10910D000F031FD00F065FD04F144
S315000096400800F7F7C9FD00F026F800F09FFC00209F
S31500009650BDE81040FFF7DABB217803290FD1A179C5
S31500009660C9070ED4032818BF04280AD100F016FD36
S3150000967000F04AFD0121002015F027FCE7E7042948
S3150000968007D100F00BFD00F03FFD012004F0D4FEF1
S31500009690DDE77020DCE710B5F2B015F073FF12F0CD
S315000096A0D2FE13F0A6FE05F036FE16F0E3FB16F02A
S315000096B00BFE11F0B9FA16F028FF06F060F806F076
S315000096C067F810F00AFB04F015FD0120FAF7BFF960
S315000096D016F078FF12F092FA07F002F9DFF8344735
S315000096E00020A0704FF6FE70FAF7F6FA0020E08030
S315000096F017F0BDF8FCF757FC0BF09EFF0AF063FF6E
S315000097000EF03AFA0DF094F8BC237F22082142A805
S3150000971017F0DFF900F03BF901A80CF0BCFFBDF82B
S3150000972054014FF6FF71884236D0BDF8040098BB4D
S31500009730082342AA0E210DF10600FCF7FEFC1023B9
S3150000974044AA0321FCF7F9FC082348AA0221FCF7E6
S31500009750F4FC08234AAA0721FCF7EFFC10234CAAC5
S315000097600521FCF7EAFC0BF0DFFFBDF854210121CF
S31500009770FCF7C4FCDFF8082B00210BF0CFFF032316
S3150000978057AA0021FCF7D9FC0DF10601401AADF8E5
S31500009790040001A80CF0F4FFBDF8040000281EBF69
S315000097A09DF8020000280120002100F00DF972B09A
S315000097B010BD38B5DFF8001A0FF2801400200880BB
S315000097C0F8F70AFC08F046F8DFF8F0094168C9071F
S315000097D003D5006810F0300F10D10FF26805294646
S315000097E00020FAF7F4FF29460120FAF7F0FF204699
S315000097F0BDE8344040F2AF11F7F7FABE17F040F972
S3150000980020B14FF4DA712046F7F7F2FEFAF784FE3C
S315000098100FF24C00DFF8FC4500F0F4FD607004F137
S315000098200800F7F7CCFCDFF85C1A00200860DFF8C8
S31500009830581A086005F0B9FAFFF717F9BDE8314084
S3150000984029E70000537461636B2F48617264776186
S315000098507265204D69736D617463680D0A000000BE
S31500009860000000000000000038B512F0A2F930B187
S3150000987012F0E1FD00F0010080F0010400E0012497
S31500009880F9F70FF920B100F00EF808B1002500E055
S315000098900225FAF746F800280CBF0420002045EA06
S315000098A00401084332BDDFF83806FCF7A5B880B5D9
S315000098B0DFF8DC090078010018BF072807D1FFF799
S315000098C0D3FF00F00701481E8041C00F02BD0020F3
S315000098D002BDDFF8B4190860704710B50020FAF72A
S315000098E069FCDFF8B009007818B10FF23400F8F718
S315000098F06CFCFAF7FBFD06F0DCFE07F061F908F0F8
S31500009900E4FD12F0F3FBDFF8844904F10800F7F7F1
S31500009910DFFC6078BDE8104000F09CBD0000000050
S31500009920ED92000000000000DFF86009407800F0CA
S3150000993091BD0FF20800F7F75BBE000069702D734A
S315000099407461636B2E630000FAF7BCB9DFF83C194B
S315000099508979890758BFFAF79FB97047FAF7B6B9F8
S31500009960FAF7BAB9F9F747BD38B50446F9F743FD32
S3150000997005460FF6681000F008F88DF8034000F071
S315000099803DFA2846FFF78AF931BD006800900423A6
S315000099907F220C21684617F09CB880B5F9F71CFDAC
S315000099A0BDE80240FFF774B980B5F9F7DAFEBDE805
S315000099B00240FFF73FB9F9F70BBDDFF8DC08704747
S315000099C0DFF8C8080078704770B50446DFF844042D
S315000099D0067804700D46C188032C05D141F4004178
S315000099E0C18004F041FB02E0C1F30E01C1802000FA
S315000099F004BF012013F07BFC2A4631462046BDE811
S31500009A007040FFF7ACBAF8B506465E220021F7F7BC
S31500009A10D3FDDFF800542878012806F1280421D068
S31500009A20DFF878781022B91C3046F7F763FD06F1A7
S31500009A30100005F085FE06F1180005F09BFE0822D1
S31500009A4007F1120106F12000F7F754FDFAF73EF987
S31500009A502080F9F7BDFCA070A878E070F9F7BCFC8F
S31500009A6020712CE00BF0B4FD0746102207F114011B
S31500009A703046F7F73FFD082207F1240106F12000E2
S31500009A80F7F738FD082207F12C0106F11000F7F769
S31500009A9031FD07F158000423018821807F22807A56
S31500009AA0A0700C210FF6380000680090684617F089
S31500009AB010F89DF8030020719DF80200E070A87868
S31500009AC0032804D1A87900075CBF0520E070F1BD2A
S31500009AD02DE9F041044620000D4604D12846BDE894
S31500009AE0F04103F034B8012C04D1DFF8B40703F0D9
S31500009AF040F820E0022C20DBDE4E00213046FBF74A
S31500009B0090FF022704E041463046FBF7B9FF7F1C71
S31500009B1080465FEA080010D0F8F7B7FD00281CBFA2
S31500009B20016A0029EFD0F9B2A142ECD1811C1022C2
S31500009B302846F7F7DFFC012000E00020BDE8F081B1
S31500009B4000B585B0FAF7BEF8694602F0ECFF684644
S31500009B50FFF7BBF905B000BD2DE9FF4104460F46EE
S31500009B60C44D00212846FBF75CFF1DE0F8F78DFD8C
S31500009B70060015D03078800612D5002C18BF002FAD
S31500009B8007D03B4622463946B01CFBF7B7FDB84224
S31500009B9006D13388326AF169DBB2B01CFFF71FF9D0
S31500009BA041462846FBF76CFF80465FEA0800DDD198
S31500009BB00FF230700FC86C4684E80F0000230022B5
S31500009BC000216846FFF70BF9BDE8FF813EB5A94CB9
S31500009BD000212046FBF725FF15E0F8F756FD70B18A
S31500009BE00178C9070BD5016A0291821CC1690191EE
S31500009BF0002100910121837C0020FFF711F92946FD
S31500009C002046FBF73DFF05462800E6D100200290DE
S31500009C1001900090002300220021FFF701F937BDD3
S31500009C202DE9F04F8BB00446112200216846F7F764
S31500009C30C3FC0026DFF86C86DFF86C76DFF86C96DE
S31500009C4046E0002208215046FBF71EFD002854D1AD
S31500009C50082251466846F7F74DFC202EB4BF022075
S31500009C6006208DF808003868584490F911105F39BD
S31500009C708DF80910007D10F00F008DF80B000EBF57
S31500009C80FF209AF8130001F019FF8DF80A003046FC
S31500009C9002F06FF98DF80C00304602F061F98DF88C
S31500009CA00D009AF81500C0098DF80E00FF2C3868D3
S31500009CB05844407D00F007008DF80F009AF8160012
S31500009CC08DF8100019D169463046FEF706FFEEB250
S31500009CD099F80000751C864214DAFF2C18BFB442AE
S31500009CE0F5D1182010FB06FB386800EB0B0A98F834
S31500009CF000008642ACDB202EA3DAFF2CE7D06946B3
S31500009D00304607E005A81421FEF73AFBFF2C03D1E5
S31500009D1005A9E8B2FEF7E1FE0BB0BDE8F08F70478B
S31500009D20AA210170BB214170CC218170DD21C17057
S31500009D307047DFF87C150A7882421CBF0870F7F777
S31500009D40A0BD704710B5044601F039FF20B9204682
S31500009D50BDE8104011F067BB10BD00B5F7B04FF479
S31500009D608172002135A8F7F727FC35A80CF008FD0D
S31500009D7035A80CF007FDBC22002106A8F7F71CFC4D
S31500009D804FF6FF70ADF86400BC2306AA7F210820B9
S31500009D9016F0AFFE042200216846F7F70DFC00F02E
S31500009DA02DF80822002104A8F7F706FC082304AAC8
S31500009DB07F21052016F09DFE0822002102A8F7F754
S31500009DC0FBFB082302AA7F21072016F092FE05F06E
S31500009DD0F7FA11F07DFA00208DF80400042301AA99
S31500009DE07F21032016F085FE2648F7F7F5F9FFF7E1
S31500009DF052FC0020FEF79CFF77B000BD04236A46A4
S31500009E007F210C2016F075BE0021DFF8A804F7F7B5
S31500009E10A1BA0000C8F6032014FE0320E0F70320D1
S31500009E2042F603201CFE032038B5DFF88854DFF81D
S31500009E3088442846F7F7DEFADFF8800400780C2815
S31500009E4010D02068142804D10120FEF771FF0020ED
S31500009E5006E04FF4FA712846F7F77CFA2068401CB2
S31500009E60206031BD002020600320BDE8324011F0A3
S31500009E707CBE0000AAF6032064FD032066FD0320D5
S31500009E806AFD0320D0F6032005F000B838B5034676
S31500009E900846154600241BB1022B0DD003D314E04F
S31500009EA0DFF81C1401E0DFF81C14098808237F2260
S31500009EB006F06CFD082006E0DFF80C1409887F2206
S31500009EC006F064FD0220287001E02C707024204604
S31500009ED032BD000004F7032068FD03204CF7032081
S31500009EE072FD032010B584B000F03CF89DF80030F8
S31500009EF0014601AA2046FFF751F81FBDFEB50E46E2
S31500009F00174600F02FF8050025D19DF8000087427E
S31500009F1018BF02251FD10146FF2201A8FBF7B4FB9B
S31500009F2008B9462517E01CB1022C0BD005D311E069
S31500009F3008223146DFF8880308E008223146DFF8B8
S31500009F40840303E002223146DFF87C03008806F032
S31500009F503FFD00E0702529462046FFF72CF8F7BDA7
S31500009F6018FE032004466A4601A98FE780B506F06D
S31500009F70CEFABDE804400021FFF757B880B506F0D9
S31500009F80A5FABDE802400020FFF756B870B5BF4CF1
S31500009F902078032888B07CD0012803BFC748007802
S31500009FA00C28702076D108237F22052105A816F0FB
S31500009FB090FD05A802F040FD08237F22072103A893
S31500009FC016F087FD082203A9C048F7F793FA08237D
S31500009FD07F22062101A816F07CFD01A806F081FC6F
S31500009FE00BF053FB0BF0F4FA054605F15806B07A70
S31500009FF011F085FD3088F9F76FFE05F11400FBF7C7
S3150000A0005DFBC1B205F1140004F05AF805F1240015
S3150000A01004F024F805F12C0005F0C0FE0FF2D42060
S3150000A020FFF7B3FCBDF80000FFF790FC9DF90300B5
S3150000A030F9F7E1F99DF8020000F030F816F0AFFAF2
S3150000A04005F0C8F903F0EDFBA078062809D1002138
S3150000A0500320FFF7B9FC01220021002014F0D2FDF5
S3150000A06017E0F9F72FFE800502D104F0B1FD10E0EC
S3150000A070A078032818BF042804D0022805D1A079A7
S3150000A080C00702D404F0EBFD03E040F28151FFF774
S3150000A09050FC0020FEF76DFD08B070BD0021FFF7F3
S3150000A0A083BA80B50AF036FBFBF77DFFFBF78CFF22
S3150000A0B076488078062803D0BDE8014015F0F5BA49
S3150000A0C001BD80B571480178032905D18049098809
S3150000A0D04FF6FF72914201D193200BE0807804285D
S3150000A0E018BF702006D17B480078042818BF0528C1
S3150000A0F004D13D20BDE80240FEF7F6BD16F007F993
S3150000A100BDE8014011F0BFBC00B59FB007A86021B3
S3150000A110FEF736F907A8FFF776FC0FF2DC100068A9
S3150000A12000909DF848008DF80300F9F7CBFDADF8D7
S3150000A13000006A4655488078062818BF9DF84700F3
S3150000A1408DF8020004237F210C2016F0D2FC0FF2BA
S3150000A150AC1005A9D0E90023CDE905235E4802F03D
S3150000A160AEFC082305AA7F21052016F0C2FC0FF2DB
S3150000A17094105649D0E90023CDE9032303A8082209
S3150000A180F7F7B8F9082303AA7F21072016F0B1FCD8
S3150000A1900FF278104249D0E90023CDE9012301A846
S3150000A1A00822F7F7A7F9082301AA7F21062016F04F
S3150000A1B0A0FC1FB000BD00000EF60320E881E00FF2
S3150000A1C080B5F9F703FEBDE802400020FEF75ABD50
S3150000A1D080B5F9F72CFEBDE80240FEF74DBD80B50F
S3150000A1E016F0BAFCBDE80240FEF72CBF80B506F0BB
S3150000A1F069F9BDE80240FEF72BBF80B516F0AFFC4B
S3150000A200BDE80240FEF72ABF80B506F05BF9BDE85F
S3150000A2100240FEF741BF80B516F0A3FCBDE8024040
S3150000A220FEF740BF80B516F09EFCBDE8044001462F
S3150000A2300020FEF719BF80B516F097FCBDE8024076
S3150000A240FEF719BF38B5044600216000F8F733FB66
S3150000A250010003D10022002118200DE0F8F715FABD
S3150000A26005462146F8F788FF18B122462946002000
S3150000A27002E0002200217020BDE83840FEF701BF51
S3150000A28000F8FF070CFA0320D4F90320C8F60320D0
S3150000A290D5F70320F2E30320B8F6032054F5032094
S3150000A2A0C0F6032052FA03204CDF0320EFE303201D
S3150000A2B043FE0320C8E10320E4F6032040E2032026
S3150000A2C02A6D0300326D0300346D0300ECF70320A2
S3150000A2D00EE2032054FE032010F5032000000000C8
S3150000A2E00000000000000000000000000000000068
S3150000A2F00000000000000000000000000000000058
S3150000A3000000000000000000000000000000000047
S3150000A3100000000038B544784568F7F71CFE00F0E9
S3150000A3206BF85B1BB3F1004F98BF5550BDE8324048
S3150000A330F7F717BE38B504460D46F7F726FE281878
S3150000A3406060012020702046BDE83240E2E770B52B
S3150000A35000F04FF80546F7F7FEFD064660686FF019
S3150000A360004100F02CF8401920603046BDE87040EE
S3150000A370F7F7F7BDF8B504460D461646F7F705FE9E
S3150000A380002156B1FF22327007E0121AAA4202D209
S3150000A390154606B13170491C083422680AB92846A8
S3150000A3A0F2BD13781F00F6D0042B04D05268831A2E
S3150000A3B0B3F1004FE9D806B131700020F2BD00229A
S3150000A3C0D8E738B500F015F805460EE001780A0022
S3150000A3D00AD0042904D04168691AB1F1004F03D8A4
S3150000A3E00421017061688847083420680028EDD18F
S3150000A3F031BD0446F7F7C9BD0C2111FB04F1194A1A
S3150000A40053587047F8B50446F7F7A5FD164F174998
S3150000A410097806467878884204D3EA210FF250007C
S3150000A420F7F7E6F87D78681C78703046F7F799FDFF
S3150000A4300C210C4811FB05F108440121446001720E
S3150000A44000E04D7054F8081B0029FAD1FFF77FFF92
S3150000A4502846F2BD0C23034A5843104401210172D9
S3150000A46070470000D4F0032048FE0320606D03000F
S3150000A4706576656E742D636F6E74726F6C2E6300F5
S3150000A48070B51346104402E0A4192C705B1EDCB2B2
S3150000A4904CB101F00F060909451E0A2E2846B4BF25
S3150000A4A030243724F0E7104470BDF0B5002341B1E5
S3150000A4B0002806D501232D21B0F1004F117018BFD9
S3150000A4C04042002100249F4D55F82470002601E0EB
S3150000A4D0C01B761CB842FBD2F7B20FB90F0005D0ED
S3150000A4E0DBB206F13001D1545B1C0121641C092C3E
S3150000A4F0EADBDBB23030D054581CC0B2F0BD2DE9D7
S3150000A500F24F804696B013A80190154603A89B46C5
S3150000A51003AE002700248DF800000BE00124054659
S3150000A5200198864205D300F0DCF800284FD100F0F0
S3150000A530CEF86D1C9DF800002978301A0A000BD061
S3150000A540252903D014B906F8011BE9E7002C14BF2E
S3150000A55000246D1C29780A0000F0AF80B1F12502B5
S3150000A56016D00B3A092A40F28980283A7DD00A3A59
S3150000A57012D0521E41D0521E5FD0083A5DD0121F33
S3150000A5803ED0D21E3CD0921E57D0D21E6DD0C7E709
S3150000A590252006F8010BC3E7DBF8000002904FF018
S3150000A5A0000A0BF1040000F1040BD0F80090CA4534
S3150000A5B0B6D2029810F80A1002223046FFF760FF62
S3150000A5C006460198864205D300F08BF800287AD11A
S3150000A5D000F07DF8A9F1010082453CBF202006F875
S3150000A5E0010B0198864205D300F07BF800286AD15A
S3150000A5F000F06DF80AF1010AD9E75BF8040BC8E729
S3150000A6005BF8049B00F067F800285CD100F05FF867
S3150000A6104FF0000A01E00AF1010A5FFA8AFA19F816
S3150000A6200A000028F7D19DF8580052464946C0470F
S3150000A630002848D15744FFB272E76C290AD16A78DC
S3150000A6405BF8040B752A0EBF00210121642A07D18D
S3150000A6506D1C05E075295BF8040B0CBF0021012178
S3150000A6603246FFF722FF36185AE75BF8041B022230
S3150000A670C9B23046FFF704FF064651E76A7801245F
S3150000A680782A18BF582AF8D16D1C0024681E322972
S3150000A69004D15BF8040B042281B2EAE734297FF483
S3150000A6A03DAF5BF8049B04224FEA19413046FFF7A1
S3150000A6B0E7FE04221FFA89F1DCE700F00CF810B976
S3150000A6C0F019C0B200E0002017B0BDE8F08FF7190E
S3150000A6D0FFB203AE704706469DF85800F2B203A9D2
S3150000A6E040479DF80000361A9DF85800F2B203A9BB
S3150000A6F040472DE9F047804615461E46FAF787F88B
S3150000A700010015D10027DFF840A00BA40FF22C0999
S3150000A71000E07F1CB7420BDA701E8742EA5DB4BFC9
S3150000A7204B4623465146404600F01EF80100F0D045
S3150000A730BDE8F08702A117E000000000200000003D
S3150000A7400D0A000058580300505803000CB438B5E1
S3150000A750044604AAFAF750F805462046FFF7EAFF32
S3150000A760284632BC5DF80CFB0CB480B502AAFAF799
S3150000A77043F802BC5DF80CFB10B5044632A100F0AC
S3150000A7805EF804F10B0000F0B5F830A100F057F8C0
S3150000A79004F11B00BDE81040ACE04230438802885B
S3150000A7A00FF268110DE010F8462F812A08BF0FF24C
S3150000A7B06C1105D0802A0CBF0FF270110FF28011B8
S3150000A7C043780020FFF7D0BFF8B504460D4620A118
S3150000A7D000F035F800261BA705E0B6B23946A25DA3
S3150000A7E000F08DF8761CB0B2A842F6D3BDE8F4406E
S3150000A7F018A133E070B50446FFF7BEFF16A529463B
S3150000A80000F01DF804F130063078112805D03A28FA
S3150000A81004BF2046FFF7C7FF02E02046FFF7BDFF53
S3150000A820294600F00CF8318AF068FFE7FFF7CCFF05
S3150000A830BDE870400020FFF77DBF0FF21411002025
S3150000A840FFF792BF25780000733D000020643D00AD
S3150000A8505B0000005D000000200000000020FFF704
S3150000A86083BF10B504F027FB02460FF2EC0100F09F
S3150000A8701FF804F09AFA40F2A174C440E00716D516
S3150000A880002004F059FB04F094FA044604F094FA0C
S3150000A89040F201718C4204BF0068002807D00020F6
S3150000A8A004F0DEFBBDE81040002004F097BC10BDAC
S3150000A8B00020FFF74BBF2DE9F843044688460026E3
S3150000A8C00FF2A0090FA510A704E00346494600F0C1
S3150000A8D00EF8761C464508DA04EB4600FAF771FED8
S3150000A8E0002E0CBF3A462A46EFE7BDE8F18300206A
S3150000A8F0FFF73ABF0821DEE730444946C279002017
S3150000A900FFF732BF3A000000000000005544502017
S3150000A91073703D25752064703D25750049434D5083
S3150000A920204543484F5F5245504C590049434D50CE
S3150000A930204543484F5F524551554553540000004A
S3150000A94049434D5020743D256420633D2564000035
S3150000A950554450200000000052657365743A202566
S3150000A96073000000257025327800000062B38B0763
S3150000A97008D0521E11F8013B00F8013B00F024807C
S3150000A9808B07F6D1830740F0208000BF103A07D32B
S3150000A99030B4B1E83810103AA0E83810F9D230BC1B
S3150000A9A0530724BFB1E80810A0E8081044BF51F8C7
S3150000A9B0043B40F8043BD20724BF31F8022B20F8B1
S3150000A9C0022B44BF0B7803707047083A07D3B1E8EF
S3150000A9D00810083A40F8043B40F804CBF7D2530776
S3150000A9E0E4E70000012100F01F029140DFF8B827DC
S3150000A9F005E0012100F01F029140DFF8B027400971
S3150000AA0042F820107047012100F01F029140DFF844
S3150000AA10A027F4E710B5DFF89C4730B1012807D02E
S3150000AA20102802D0202803D004E00020204410BDC6
S3150000AA301C20FBE74FF4BD71DFF87C07F6F7D8FD65
S3150000AA40204610BD426892884089401A824201DA47
S3150000AA50012070470020704770B5012884B0044675
S3150000AA6004D9B0F1100101D010393BD1012818BF2B
S3150000AA70202832D1FFF7CEFF0546F7F76CFA0646D7
S3150000AA80A86901AB6A4602A917F0BBFA00992A89A0
S3150000AA90286889B200F027F83046F7F762FAA86905
S3150000AAA017F025FB012818D1296828898988401ABA
S3150000AAB0298A884211DBA86990F83110022903D14E
S3150000AAC017F09DFA022804DAA86990F831000128E7
S3150000AAD003D1A869002117F0E4FA200014BF102C56
S3150000AAE006F082FF7FBD70B500F0F3FAF7F733FA90
S3150000AAF0E188A9420CD22288521A521992FBF6F327
S3150000AB0006FB13222280A288AA18511AA180E5808A
S3150000AB1000F0B6BBF8B5012818BF20280C4615462C
S3150000AB2016D1FFF777FF0646307B10B10120707310
S3150000AB30F1BD707B18B13046BDE8F240B9E00FF2C6
S3150000AB40D91700F006F818B100F003F80028FBD179
S3150000AB50F1BDB0693B462A46214617F0ACBB70B53D
S3150000AB6005460E46FFF756FF012D18BF202D044659
S3150000AB7040D1A069016890F83200E8B904208864E1
S3150000AB8000F04BF9A0690068C16C002E07D041F0B7
S3150000AB900401C1640C20FFF725FF052106E021F022
S3150000ABA00401C1640C20FFF724FF0021A06900689E
S3150000ABB0BDE8704017F012BC0420486300F02DF980
S3150000ABC0A0690068816B002E07D041F00401816303
S3150000ABD00C20FFF707FF052106E021F00401816341
S3150000ABE00C20FFF706FF0021A0690068BDE8704051
S3150000ABF017F081BC70BDF8B50446DFF8C005814288
S3150000AC001D4634D0002600F0AAF82DD13A893868BE
S3150000AC10A9B2FFF768FF39680020C88002E038460D
S3150000AC2000F026F8204617F0EAF903281CDA788A9D
S3150000AC30F989484339688A88002A80B2EFD00B88A0
S3150000AC40B7F80EC0498884446145B8BF984207DB0F
S3150000AC508B42E4D2FA8982189142A8BF9842DEDA82
S3150000AC600121204617F01DFA761C022ECBDBF1BD22
S3150000AC7038B50446DFF84835E089658A216802461A
S3150000AC806843084400F10801A06917F0CCFAA069EE
S3150000AC9017F0B5F9022803DBA069002117F001FAC5
S3150000ACA0608AA18A401C90FBF1F201FB12006082CF
S3150000ACB031BDFEB50446207B68BB60680FF25907BC
S3150000ACC04188084400F10805A0696B4601AA02A95B
S3150000ACD017F0B7F960688188009A891A019A8E1A66
S3150000ACE04188008888420ED26089421AA0693B4694
S3150000ACF0294617F0E0FA70B9606861894288711ACE
S3150000AD00561800F10805A0693B46F2B2294617F02D
S3150000AD10D2FA00B96073F7BD2DE9F04104469846B2
S3150000AD20002600F01CF815D178688188414534BFAB
S3150000AD3085884546F7F70FF979687A894988ADB26B
S3150000AD40691800F057F87A68518079688A88521B2A
S3150000AD5000F090F8761C022EE3DBBDE8F0811C21A2
S3150000AD60DFF8500411FB06F14718B869A042704796
S3150000AD7038B50D46FFF74EFE112D044609D1A069E0
S3150000AD80002117F09DF9002020732046BDE83240CF
S3150000AD908FE7132D06D1A069012117F091F9012043
S3150000ADA0207331BD20680188084405722068018837
S3150000ADB0228900F01EF801808188491C8180A069E3
S3150000ADC017F095F9226821899288891A89B220B9E3
S3150000ADD0E2898A42A8BF012105DA012808D1208A22
S3150000ADE0814205DB0021A069BDE8344017F059B95E
S3150000ADF031BD491C91FBF2F302FB1311704780B57C
S3150000AE00DFF8C0030169090606D517F061FBBDE846
S3150000AE10044001460120ABE701BD0C20F3E5F8B57F
S3150000AE200C461546FFF7F6FD0646EAB230688088FE
S3150000AE303189891A884201DB0120F2BD00270DE025
S3150000AE40F7F789F831680B8814F8012B19447F1C31
S3150000AE500A7231680A88338900F004F8AF42EFD3EA
S3150000AE600020F2BD521C92FBF3FC03FB1C220A805D
S3150000AE708A88521C8A80F7F774B810B5012818BF63
S3150000AE80202807D1FFF7C6FD0446A06917F08EF803
S3150000AE90800401D4002010BD606880880028F9D1A4
S3150000AEA0A06917F0CAF8401E8041C00F10BDF8B562
S3150000AEB0012804460D4603D9103801D010384FD169
S3150000AEC0204600F0E4F910B9204600F081F800F0C1
S3150000AED0ABF8064600F0A8F821000ED0012C03D0EE
S3150000AEE0102C0AD0202C3BD1DFF8DC120160DFF8F1
S3150000AEF0DC1241608021018108E0DFF8D412016094
S3150000AF00DFF8D0124160402101818021418120007B
S3150000AF1018BF102C03D1BDE8F14006F09BBC012CF4
S3150000AF2018BF202C52D1012C16BF202CDFF8A80206
S3150000AF300020012C18BF202CB06111D1DFF89C0233
S3150000AF40A98CA861DFF89802E861F181EA8C328267
S3150000AF508A4207D21C213046FDF712FA0220F2BDC2
S3150000AF600120F2BDB06990F83130012B0CD0338945
S3150000AF7093FBF1F701FB1733002B02BF92FBF1F3B2
S3150000AF8001FB13210029E5D1294616F058FEF0B938
S3150000AF90B069017F007E0123022217F051FB287C55
S3150000AFA0012808D101212046FFF7D9FDB06900210B
S3150000AFB017F077F80AE000207082F189308990FB5B
S3150000AFC0F1F0B08200F060F900F05EF90020F2BD09
S3150000AFD058B50128044603D9103801D0103812D1CB
S3150000AFE0204600F054F9E8B9204600F02AF900F0AE
S3150000AFF01BF8012C18BF202C06460FD1B06916F09D
S3150000B000FEFE10B152BD012052BDB06990F831006C
S3150000B010012803D100212046FFF7A1FD1C2130465F
S3150000B020FDF7AEF9002052BD2046F3E4F8B506461A
S3150000B03001280F46344603D9103801D010380BD1F9
S3150000B0403046FFF7E7FC05463046FFF705FD286862
S3150000B050808818B92620F2BD0120F2BDF6F77BFFE5
S3150000B0600646286841880844007A3870286841886E
S3150000B0702A89FFF7BEFE41808188491E012C18BF30
S3150000B080202C81801FD1A86990F83100012803D1B6
S3150000B09019E02846FFF7ECFDA86916F0B0FF022874
S3150000B0A011DA2A68E889698A53881288414389B285
S3150000B0B040188342B8BF914205DB9A42E9D28342E7
S3150000B0C0A8BF9142E5DA3046F6F74BFF0020F2BD05
S3150000B0D0012804460D461646704751464846FFF776
S3150000B0E019BD00002DE9F84F012881468A4693468E
S3150000B0F004D9B0F1100101D010390ED1002818BFC3
S3150000B10010280CD0FFF786FC0746002478680188D3
S3150000B110084400F1080800262DE0012042E05946C7
S3150000B1205046F9F7F2F93CE0F6F715FF79680B8817
S3150000B1301AF8012B19440A7279680A887B89521C0D
S3150000B14092FBF3FC03FB1C220A808A88521C8A802D
S3150000B15009884D1EAD41F6F704FFED0F761C55B17B
S3150000B160351BEDB22A464146FFF7B8FF78682C1921
S3150000B170E4B200F10808F0B258450AD20021384678
S3150000B180FFF760FC0028CFD1387B0028F6D02220BC
S3150000B19008E05C4505DAABEB040292B24146FFF7E4
S3150000B1A09DFF0020BDE8F28F00E100E080E100E0B5
S3150000B1B080E200E0BCE80320E4480300097000F0E8
S3150000B1C0F7AB000000000140ACE7032034E80320A1
S3150000B1D0DCE6032024E70320F4E8032008DE03204E
S3150000B1E088DE032038B50546012D04D9B5F11001D6
S3150000B1F001D0103923D1FFF70DFC0446280018BFF3
S3150000B200102D03D1606880880028FBD1012D18BF5E
S3150000B210202D12D1606880880028FBD1A06916F025
S3150000B2200CFF0028F6D1A06916F0C0FE8006F1D505
S3150000B230A06916F0BBFE8004ECD5002032BD0120CB
S3150000B24032BD70B50546FFF7E5FB0646012D3468AD
S3150000B25018BF202D0DD1B06990F83110012908D002
S3150000B260022116F011FE0020708200F00DF800F0A9
S3150000B2700BF8F6F770FE0021A18021806180E18045
S3150000B280BDE87040F6F76DBE3046FFF7F1BC80B5FD
S3150000B290012804D9B0F1100101D0103906D1FFF709
S3150000B2A0B9FB00281CBF0068002801D1012002BD9F
S3150000B2B0002002BD012100F01F029140DFF8E022CC
S3150000B2C0400942F82010704770B50546F6F743FE70
S3150000B2D0002600242821DFF8CC2201FB06F31344C4
S3150000B2E09B7F13B1761C042EF7DB042E08BFDFF814
S3150000B2F0B84208D02DB17143114401238B772E60DB
S3150000B30001E0DFF8A842F6F72CFE204670BD10B526
S3150000B310DFF89C02017809B1002010BD01210170FF
S3150000B320DFF89002DFF8904205F074FE0321DFF8A3
S3150000B3308C0205F0DDFF032020710121DFF8800279
S3150000B34005F068FE204617F0DCF9DFF87812DFF822
S3150000B3507842012017F0BEF9E069C00AC002E06138
S3150000B36040F2FF70A061002020601E20FFF7A2FFC0
S3150000B370DFF858124FF080400860A021E06940F0E5
S3150000B3800100E061DFF81C02FCF7FAFFDFF840126B
S3150000B39000200870DFF83C120870DFF83C120860E5
S3150000B3A0DFF838120860DFF83812086010BD70B593
S3150000B3B08A4E002334688448026830688442F9D192
S3150000B3C0981844EB030170BD30B54FF4FA5200F003
S3150000B3D004F8C00B40EA414030BDA2FB004502FB29
S3150000B3E0015514F5804045F1000170472DE9F047FD
S3150000B3F0F6F7B1FD744D8246E869296900EA01064F
S3150000B40026F00500A86170071ED5714FDFF8C481CC
S3150000B410DFF8D491012038702C6800F022F8201A49
S3150000B42000F026F800F078F8204600F085F82C6841
S3150000B430E86C98F8001029B1D9F80010401A611A82
S3150000B4408842EAD300203870F00705D50120A861AC
S3150000B45062480168491C01605046BDE8F047F6F7AE
S3150000B46080BDE86920F00400E861D9F80000704763
S3150000B4702DE9F0430026044600252821494871435A
S3150000B4804718387F7D77002841D0D7E900018D42E3
S3150000B49007D828BF844204D2001BA941C7E900018E
S3150000B4A035E0F87F08B938772DE0D7E90001D7E90C
S3150000B4B00223201AD7E9028965EB010117F042F948
S3150000B4C0B8EB020069EB0301C7E900013869396985
S3150000B4D00128786909DB0818F428786113D3D7E9BD
S3150000B4E00001401C61F1FF3108E0401AF428786140
S3150000B4F009D3D7E90001401E61F10001C7E9000147
S3150000B5007869F4387861B86908B101207877761CD3
S3150000B510042EB2DBBDE8F08310B5002428212148B3
S3150000B52061434218507F18B1116A926920469047CC
S3150000B530641C042CF2DB10BDF0B54FF0FF3213464D
S3150000B5400021184C28254D436619367F46B12544FF
S3150000B550D5E900679F4203D82EBF964232463B4646
S3150000B560491C0429EEDB00214FF0FF34A34208BF3B
S3150000B570A24212D08B426FF0640401D8A24200D3DB
S3150000B58022461949174B08600421196010185863A0
S3150000B5900121586840F0040058600E480170F0BD63
S3150000B5A080E200E0A8E40320011000F0041000F09F
S3150000B5B038FE032000250800A8DF03200500200030
S3150000B5C080091200B4DF03200820044000E100E0F7
S3150000B5D036FE032037FE03203CF1032040F1032012
S3150000B5E044F103202020044038F10320012100F01B
S3150000B5F01F029140514A400942F82010704730B569
S3150000B6004F48504D0FC887B003AC84E80F0068461A
S3150000B6100021002200230EC002208DF80600012121
S3150000B62049484A4C05F0F6FC4FF6FF70E0616A4661
S3150000B6300021204617F062F900208DF80E0003A9BC
S3150000B640204617F00FF9424805F014FD9DF80E103C
S3150000B65001228A40491C8DF80E10B0FBF2F0C9B2E7
S3150000B6600B29286002D23B498842E8D23A4805F0C5
S3150000B67001FD3A492A68B1FBF0F339480021E3FBA2
S3150000B6800201384A002317F05DF8374908600020A8
S3150000B69036490870A06920F01000A0610B20FFF762
S3150000B6A0A5FF33494FF40060086007B0002030BDA5
S3150000B6B038B500F01BF804460D4605E04FF6E85095
S3150000B6C000F02AF800F00CF800218D424FF6E95000
S3150000B6D0F4D88442F2D2A0B200F01EF8002032BDA7
S3150000B6E024484FF0FF3124184D41704715491C4A34
S3150000B6F009680023E0FB012310461946194A002376
S3150000B70017F020B81C480168C90604D510218160CD
S3150000B7100120164908707047010081B00BD0174907
S3150000B7200A6892B20B68ADF80030BDF800309B1A7B
S3150000B7309BB28342F6D301B07047000080E200E07E
S3150000B7405C63030038F2032000020400008001401D
S3150000B7504041050081841E005000020000B0710BBC
S3150000B76020A1070040420F003CF203203FFE0320C9
S3150000B77000E100E01802FFFF0C8001402480014038
S3150000B780820707D010F8012B11F8013BBAB19A4293
S3150000B790F6D014E002680B689A42A2F1013301BFA9
S3150000B7A0934313F0803F50F8042F51F8043FF3D031
S3150000B7B010F8012B11F8013B0AB19A42F8D0D01AC1
S3150000B7C07047000038B504461046DFF8C82C1268EA
S3150000B7D0182313FB04F3D5180822A974014628463A
S3150000B7E0F5F788FEDFF8900B90F9000000F08EFB6D
S3150000B7F06874204600F0C7FB204632BD70B50C4683
S3150000B800810516D1850A284600F058F9FF28064614
S3150000B8100BD0DFF8803C1B682146182460430822C1
S3150000B8201844F5F767FE304670BD00F0A0FD2028ED
S3150000B83001DBFF2070BD2946FF2000F030F82246CC
S3150000B8402946BDE87040BDE7F8B50446012100F081
S3150000B85054F9FF2822D1DFF83C0CDFF83C7C006865
S3150000B8604FF440712025461801E06D1C18363978D2
S3150000B870E8B2884211D2002208213046F9F704FFC7
S3150000B8800028F2D0182200213046F5F795FE224610
S3150000B890E8B2BDE8F840FF2194E7FF20F2BD2DE9AC
S3150000B8A0F843DFF8D84A0FF6F439074620782028FF
S3150000B8B0884603DB69214846F5F79AFE1825207865
S3150000B8C0DFF8D06BFF2F0FD1002701E013DB7F1CC1
S3150000B8D0FAB2824208D23268FFB215FB07F31A4465
S3150000B8E0927C9045F2D11FE0F9B2884203D27621CC
S3150000B8F04846F5F77DFEFFB2306815FB07F900EB09
S3150000B90009012078C01B10FB05F292B201F1180064
S3150000B910F5F7F0FD306800F0A4F83068484480F888
S3150000B92012802078401C20703846BDE8F283F8B5B6
S3150000B93004460025DFF85C6BDFF8407A16E0182035
S3150000B940316810FB05F00A18D17CA1420CD1137D99
S3150000B95003F00F0103F0F003137500223368184457
S3150000B960C274284613F0B3FF6D1CEDB238788542D9
S3150000B970E5DBA002BDE8F24080B214F09CBF2DE9E1
S3150000B980F04104461825202C15FB04F8DFF8047B4B
S3150000B9901BDADFF8E8693178884202D3952100F096
S3150000B9A03BFB386831784044091B491E877C11FBF4
S3150000B9B005F292B200F11801F5F79CFD3078401EB1
S3150000B9C030703846BDE8F041B1E738684044BDE81C
S3150000B9D0F04118220021F5F7EFBD2DE9F0470C469E
S3150000B9E000F015FB84B0804639D21820DFF8A47A1F
S3150000B9F010FB08F9386800EB090108228D7C01A8C4
S3150000BA00F5F778FD386848446946C67C007D00F045
S3150000BA100F0A404614F05FF9386800F022F83868DB
S3150000BA204844002C18BFAE42857406D03868484496
S3150000BA30C6743868484480F814A0DFF8240C0078EF
S3150000BA4028B13868082201A94844F5F753FD9DF846
S3150000BA500010404613F03BFF2846FFF768FFBDE89D
S3150000BA60FF87182200214844F5F7A6BD10B582B01D
S3150000BA7000F0EDF900F0E5FA03F0F003137500228B
S3150000BA8009680844C27400F0E5FA13BD10B50C4607
S3150000BA9000F02CF8DFF8E428127890420DD2DFF897
S3150000BAA0F4190968182212FB00F21144C97CB1EBA3
S3150000BAB0942F02D1BDE81040D8E710BD002100E068
S3150000BAC0491CDFF8B8381B78CAB29A420CD2DFF8A4
S3150000BAD0C429C9B21268182313FB01F31A44927CD5
S3150000BAE08242EDD108467047FF207047810504BFAA
S3150000BAF0800AFFF7E3BFFF207047F8B50446080049
S3150000BB00DFF89009006814BF20250025182212FBD3
S3150000BB1005F28618002914BFDFF87C09DFF85C08F7
S3150000BB20077801E06D1C1836EDB2BD4208DA08222E
S3150000BB3031462046F5F747FD0028F3D12846F2BDE9
S3150000BB40FF20F2BD10B584B004460020ADF8000019
S3150000BB50204601F01DF818B9204603F0FDFD78B126
S3150000BB60694604F1080000F07EFF58B1BDF80000F8
S3150000BB70800505D1BDF80000800AFFF79FFF0AE0A7
S3150000BB80FF2008E001A904F1080000F098FF002159
S3150000BB9001A8FFF7B2FF04B010BDDFF8E027127866
S3150000BBA0904208D2DFF8F01B096818225043084477
S3150000BBB0807C800201E04FF6FE7080B2704738B597
S3150000BBC00446850AFDF7C0FE844202D1DFF8940AD6
S3150000BBD032BDA00513D12846FFF770FFFF280ED00F
S3150000BBE0DFF8B45B182111FB00F428680022082155
S3150000BBF02044F9F749FD10B92868204432BD0020D9
S3150000BC0032BD70B50446FCF7DAFA05462046FCF765
S3150000BC100EFA0009B5F5004F00F0010605D12046E1
S3150000BC20FCF7F0FABDE8704060E7B5F5404F06D185
S3150000BC302046FCF7CBFA3146BDE870405DE7FF20B1
S3150000BC4070BD007BDFF8541B01EBD00100F007004C
S3150000BC500A790123C0F1070003FA00F022EA000086
S3150000BC60087170477047DFF8340B4178491CC9B238
S3150000BC704029A8BF002141707047DFF8200B002142
S3150000BC8041700822001DF5F797BC2DE9F84F0446D0
S3150000BC908846164613F0CBFC814600214046FFF746
S3150000BCA02CFF0746202F4FF0180ADFF8E85704DA72
S3150000BCB028681AFB07F1084455E000F058FB1F28D6
S3150000BCC006D0DFF8DC1A0978884203D3022E01D1A8
S3150000BCD0FF2049E0DFF8C46A307858B94C4509D0EE
S3150000BCE02046FFF7EBFEFF2804D12146301D13F056
S3150000BCF0C4FC10B370780FF2A477009096F801B0E8
S3150000BD00CB450ED05846FFF7D9FEFF2809D1594634
S3150000BD10301D13F0B2FC20B9307878B17078A042AB
S3150000BD200CD1FFF7A0FF707800998842E6D140F267
S3150000BD30A9113846F5F75CFCE0E77470FF207178CE
S3150000BD40FFF7ADFD0746FF2F0ED0FFF78CFF2868E3
S3150000BD501AFB07F4082241462044F5F7CBFB00F016
S3150000BD6055F828682044807CBDE8F28F70B582B013
S3150000BD700021FFF7C2FE0446202C45DA00211020E0
S3150000BD80F6F799FD182111FB04F50100DFF80467A9
S3150000BD9026D0F6F77AFC18B30FF658310160002169
S3150000BDA0416031682944897C0173DFF8081A096803
S3150000BDB011F1010F08BFDFF8081AF5F7CBFA33685F
S3150000BDC0DFF8D80941782B4400EBD1009B7C017940
S3150000BDD003F007030122C3F107039A4011430171DF
S3150000BDE0012000900023306828440022807C8006D1
S3150000BDF04FF6FE71000C08F06EFD2046FFF7BFFD02
S3150000BE0000F004F8012076BD002076BDDFF8B40905
S3150000BE100178491C017013F041BDDFF87C190968EF
S3150000BE20182250430844407DC009704738B500F0D9
S3150000BE300DF8DFF8640900F011FA002D417D14BFFA
S3150000BE4041F0800101F07F014175F7E00D4604469F
S3150000BE50694613F040BF2DE9F0420446DFF8680951
S3150000BE600078032888B004D002284BD100F07AFA73
S3150000BE7048D4FF2C46D02046FFF7CFFF002841D1FB
S3150000BE80DFF84809057828003CD068462021FCF7F1
S3150000BE9077FA0026002711E00DF80120491C03F867
S3150000BEA0010CC9B2681C814207DA0DEB01031DF8CB
S3150000BEB0010013F8012C9042EED37F1CDFF8BC146E
S3150000BEC00978F8B2884212D200F053F88146F8B2E7
S3150000BED0FFF7A3FF18B94E45EFD24E46EDE79DF8A2
S3150000BEE000004845E9D28DF800900121DAE72046A6
S3150000BEF000F03FF8B04205D19DF800108142B8BF6E
S3150000BF00012000DB002008B0BDE8F08210F15F0FD1
S3150000BF10B4BF00205F30C0B2704710B5032909D105
S3150000BF2013230A224C1EA441E40FA11C83420BDA00
S3150000BF30032010BD022902D115230922F2E714239A
S3150000BF400129EED10B22F1E7824201DA022010BD6F
S3150000BF50814201DA012010BD002010BD0021DCE77E
S3150000BF60DFF834180968182250430844007D800918
S3150000BF707047DFF820150968182250430844007DF1
S3150000BF80C0F3011070472DE9F04104462546202DE7
S3150000BF9082B03ADA00F03BF803D340F2672100F0B2
S3150000BFA03BF81820DFF8EC64454330682844077DE9
S3150000BFB0390901F00308DFF818180A68110002D0E1
S3150000BFC06946904750B92046FFF7D3FF01463068CF
S3150000BFD02844407CFFF7A1FF8DF800009DF8000083
S3150000BFE0404512D00DF10101204613F074FE9DF874
S3150000BFF0001007F0CF0040EA0110316829440875A7
S3150000C00020469DF8011013F062FCBDE8F381DFF8CD
S3150000C0106C130978884270470FF28040F5F7E8BA4A
S3150000C02038B5FFF713FF00F00CF803F03F03137564
S3150000C03009680844017D41EA8511017500F00AF896
S3150000C04031BDDFF850140A68182010FB04F00244D2
S3150000C050137D704720469DF8001013F038BC38B5A4
S3150000C060C54D044695F9000010F1800F18BFFF2C4E
S3150000C0701BD0FFF74BFFDFF820170968182212FBC9
S3150000C08004F211444A7C130008D090422CBF0723C7
S3150000C0906FF00803801A181802EBE0004874204677
S3150000C0A0FFF771FF6FF07F00287031BD70B5FFF7A5
S3150000C0B0AEFF054601D3002070BDFFF75AFF0646C6
S3150000C0C02846FFF74DFF04462846FFF7A6FEDFF891
S3150000C0D004170978C90758BF344600D520B10FF6B2
S3150000C0E0240000EB8600005D70BD2DE9F04180461E
S3150000C0F003220021F5F760FA0025DFF8D8669F4F86
S3150000C10014E0FFF736FF04000FD0E8B2FFF728FF70
S3150000C1103178C90704D5010002D0A042B8BF044651
S3150000C12060424044C178491CC1706D1CE8B2397840
S3150000C1308842E6D3BDE8F0812DE9F843064618208B
S3150000C14010FB06F80C46154699463046FFF765FE85
S3150000C150DFF8447620B9396841446FF07E000874F0
S3150000C160089838B93868404400F11001484603F091
S3150000C170F1F938B101213046FFF758FE38684044DE
S3150000C1808460C560BDE8F1832DE9F8430F000446DD
S3150000C19090461E4636D000213846FFF7AEFC0546CF
S3150000C1A0FF2D04D101213846FFF7A7FC0546FF2DD8
S3150000C1B028D02846FFF731FE20B3684603F0C4F9BD
S3150000C1C018B94FF44071FFF727FF182010FB05F947
S3150000C1D0DFF8C45528680099484490F9102089185A
S3150000C1E0012E009107D100F10C0741450DD13868A9
S3150000C1F084421AD206E0022E00F10807F5D138680B
S3150000C20084420AD20020BDE8F283FBD200F110017D
S3150000C210404603F09FF90028F4D00098404504D228
S3150000C2202868484400218160C160601C3860012094
S3150000C230E9E710B500240AE0FFF7EFFD30B19548B5
S3150000C240E4B200F00BF800218160C160641CE0B22A
S3150000C250DFF8141409788842EED310BD006818215F
S3150000C26011FB04F108447047F8B504460027434D16
S3150000C270894E01E07F1CFFB2307887421BDA2878AE
S3150000C280874208BF20273846FFF7C7FD0028F1D0B0
S3150000C290DFF804050068182111FB07F1084490F93E
S3150000C2A01010091B11F1400FBDBF417D01F07F0148
S3150000C2B041750174DEE7F1BD2DE9F04F83B080468C
S3150000C2C000291CBF0878FF280EBFFF200846FFF78D
S3150000C2D039FC0190002500F045F803D5404613F0DF
S3150000C2E0FBF908B900203BE008F108060027DFF853
S3150000C2F0A84404E040EA09007F1C0870FFB200F081
S3150000C30036F8874225DA6946384613F0E4FC824659
S3150000C310182010FB07FB20685844007D00F0F00948
S3150000C32028000AD113F083F921685944897C884290
S3150000C33003D2012006F8010B012531469DF80000C5
S3150000C3404E1C00281EBF0F28019A5245D2D100204C
S3150000C350D0E715B9012006F8010BA6EB0800C0B21C
S3150000C360BDE8FE8FDFF86C040078C007704703480D
S3150000C3700078704700000000E0E3032052FA032033
S3150000C38070B504464FF6FE70A68B0FF21015864266
S3150000C39004DB4FF463712846F5F72AF9B0055DD141
S3150000C3A004F13C01304613F04CF9E17FA07FFF29F0
S3150000C3B04ED0FF2803D100F079F8A07706E02028B8
S3150000C3C004DB40F29B312846F5F712F9A07FFF28DF
S3150000C3D037D0DFF804140968E07F11F810108907D8
S3150000C3E02FD5DFF8F863316851F8200010F1010FFE
S3150000C3F004D140F29F312846F5F7FAF82548A27F86
S3150000C40033680068E57F53F8253018214A43024413
S3150000C4109360DFF8CC33A27F1B68E57F53F82530A5
S3150000C4204A430244D360A27F11FB02F10844DFF8BD
S3150000C430B413E27F0968895C01740121A07FFFF7CC
S3150000C440F5FCE07F0EF06AFFFF20E077012070BD6B
S3150000C450FF28FBD100F02AF8A077F7E7A0780A2892
S3150000C460F4D0FDF7ADFA032811D1FFF77BFF0ED507
S3150000C470304613F0CDF800281CBFE07FFF2806D019
S3150000C480DFF86413096831F81000B042DED00020EE
S3150000C49070BD00004CDF0320EFE303207269702DAE
S3150000C4A06E65696768626F722E63000004F113019E
S3150000C4B03046FFF7A3B938B50446A08B800AFFF7CC
S3150000C4C0FDFA0546A07FFF2803D0FFF7A6FC010072
S3150000C4D00AD1E07FFF2808D0BF49096831F810006B
S3150000C4E00006400E00F0010060B9A078012818BFD0
S3150000C4F0022807D00B2818BF0C2803D00E2818BF17
S3150000C5000F2825D1A07C28B104F11300FFF79CF970
S3150000C510A07748E0002100F048F80028A07812D063
S3150000C520042818BF012807D0022818BF0B2803D0FB
S3150000C5300C2818BF0E2836D12046FFF721FF002809
S3150000C54031D1022032BD02282DD00B28F9D12AE0A4
S3150000C550A17C19B10428F4D1012032BD0428F0D100
S3150000C56000F023F80028ECD0092100F01EF800287E
S3150000C570E7D00B2100F019F80028E2D0954804888E
S3150000C580E00701D5FF2DE7D12846FFF764FC08B187
S3150000C590032032BD8C480078022802D1E007D0D4AF
S3150000C5A001E00328CDD1002032BD204610F02EBF79
S3150000C5B030B5044683B0A07F20280D4616DAE16E1A
S3150000C5C00020F9F72BF80146734AA07F126818235A
S3150000C5D013FB00F31A44491CD268914223D38349C2
S3150000C5E0097809B9FFF7F9F9FF20A07745B1A07FCF
S3150000C5F0FF2812D104F11300FFF726F9A0770CE00B
S3150000C600E06E019004F11301A06E0090236B627B33
S3150000C6104FF6FE700EF042FCE077A07FFF2804BFC5
S3150000C620E07FFF2801D100203EBD01203EBD80B540
S3150000C63008F055F8BDE80240800AFFF73FBA80B51A
S3150000C6406A48007808B1002002BDFFF7F0FF69468E
S3150000C65013F041FB9DF8000000B9FF2002BD000069
S3150000C6603DF60320C0F60320EFE303202DE9F04F4B
S3150000C6708BB0814607F0E3FE05465C48007800284B
S3150000C68014BF48A748A7FDF75FF9064612F0CFFF8B
S3150000C6905749584A0988126801910292890A0091FD
S3150000C6A00246039733460FF250114846FEF75CF8F0
S3150000C6B02DB90FF2B0114846FEF748F806E00523FB
S3150000C6C02A460FF2AC114846FEF713F80FF2A811EE
S3150000C6D0314E4846FEF73AF8376800250FF2CC0887
S3150000C6E041E0E8B2FFF73CFC8246E8B2FFF741FCC6
S3150000C6F08346E8B2FFF7DAFC3168EDB2182212FB86
S3150000C70005F21144BB7D4A7D0A93FB680993BB6819
S3150000C7100893C2F3C20302F0070207930692059438
S3150000C72000247A7C01900492CDF80CA0CDF808B0D4
S3150000C730087D0FF2501100F00F000090FB7CBA7CD0
S3150000C7404846FEF711F8604238444146C2794846E9
S3150000C750FEF70AF8641C082CF5DB15A14846FDF720
S3150000C760F5FF6D1C1837FFF702FEE9B2814207D2CA
S3150000C770E8B2FFF752FB002814BF0FA40FA4B0E7DE
S3150000C78038B948460BB0BDE8F04F0FF26011FDF71F
S3150000C790DDBF0BB0BDE8F08F4CDF0320F0F90320BE
S3150000C7A050E30320796573006E6F00002578000062
S3150000C7B0000000005CE20320790000002D0000006C
S3150000C7C0A086010051FA0320CAF60320F3E30320F2
S3150000C7D0FCF90320CEF603201CDF032030DF032004
S3150000C7E034DF032038DF032020DF03203DF603205B
S3150000C7F00EE203203CFA03204D792072697020690D
S3150000C800643A2025752C2073686F72742069643A27
S3150000C8102030782532782C20706172656E74207213
S3150000C82069702049443A2025752C20706172656E26
S3150000C830742073686F72742049443A203078253228
S3150000C840782C206672616D6520636F756E746572F3
S3150000C8503A2025752C206C65616465723A20257333
S3150000C8602C2000004E4649203F4E4F4E453F0000CB
S3150000C8704E464920000000000A526F7574657273B7
S3150000C8803A00000069643A2575206E6578743A2589
S3150000C89075206D65747269633A2575206C696E6BD7
S3150000C8A03A257520696E3A2575206F75743A257597
S3150000C8B0206C6D3A25642073796E633A2573206186
S3150000C8C067653A256420756E3A25642066633A25C5
S3150000C8D075206D6C6546633A25642072733A25644B
S3150000C8E0206C6F6E6749643A2000000020286E6F46
S3150000C8F06E652900D0F6032043BC000065BC00002D
S3150000C9006C67030000000000000404040004020237
S3150000C91000040201704703F0D6BF80B5FDF750F85A
S3150000C92000220021FCF71BFBBDE802400020FCF7BB
S3150000C930F3B8002808BF00F000BA7047002000F0E6
S3150000C940CAB938B50B4C00212046F9F76AF80BE056
S3150000C950F5F79BFE82784178031D0078FCF77DF998
S3150000C96029462046F9F78CF805462800F0D131BD56
S3150000C9700000000014FE0320012000F0ACB9F8B559
S3150000C9800546F8F71BFE0646E81CF8F717FE0746AD
S3150000C990681DF8F713FE0446300704D506F4405028
S3150000C9A0B0F5805F16D170061BD4FCF7D7FF87421F
S3150000C9B017D106F44060B0F5006F03D0B0F5406FB4
S3150000C9C00AD00EE0FCF7C0FF84421CBF4FF6FF7092
S3150000C9D0844206D10120F2BD681D00F02BF8002824
S3150000C9E0F8D10020F2BD0521F6F7B6B810B582B031
S3150000C9F0049C009416F00DF816BDFCF75AB980B5E4
S3150000CA0002F0F5F9BDE800500F2318220421FCF7C7
S3150000CA10B7BA10B5044602F0EAF94FF6FF7188423C
S3150000CA201CBF204602F0D4F9BDE810400120FCF7F7
S3150000CA30AFBA000080B524E0914938E080B50146E0
S3150000CA4006220FF264201EE038B504460D46062283
S3150000CA500FF254212846F4F74DFD2146A81DBDE8E6
S3150000CA603440F8F7B8BD38B504460D46FFF7E6FF83
S3150000CA7028B11DB1A01DF8F7A4FD2880012032BD04
S3150000CA8080B508227E49F4F79EFD401E8041C00F06
S3150000CA9002BD00B583B0694600F011F80822794955
S3150000CAA06846F4F790FD401E8041C00F0EBD10B5DC
S3150000CAB000F00DF8207880F00200207010BD10B54F
S3150000CAC000F005F8E07980F00200E07110BD0C4638
S3150000CAD0014608222046F8F7E6BD38B50446FCF7BD
S3150000CAE033FF054669462046FFF7BDFF00281CBFF9
S3150000CAF04FF6FE70854205D0BDF80000854201D193
S3150000CB00012032BD002032BD80B5694600F012F822
S3150000CB1038B1BDF800004FF6FE71884201D1012000
S3150000CB2002BD002002BD10B50C4604F10801FFF756
S3150000CB308BFF14E038B504460D4602F00DFE28B111
S3150000CB40294604F10800BDE834408CE732BD10B533
S3150000CB50044608224A4904F10800F4F7CBFC2046B3
S3150000CB60BDE8104002F0ECBD10B5044602F0F4FD3D
S3150000CB7017E038B504460D4608220FF23411284650
S3150000CB80F4F7B8FC05F108012046BDE834408EE70D
S3150000CB9080B508220FF2181175E710B50446FFF7A5
S3150000CBA0F7FF38B104F10800FFF748FF00F0010075
S3150000CBB080F0010010BD10B50446FCF7C5FE4FF627
S3150000CBC0FE71884205DAFCF7BFFE2146BDE810403B
S3150000CBD0A9E72046BDE81040B9E710B5044603F0C2
S3150000CBE092F818B92046BDE810404FE0012010BD6C
S3150000CBF00178FF2904BF4178322907D1817829B904
S3150000CC00C178402904BF001D02F0A6BD0020704770
S3150000CC100178FF2904BF4178332907D1817829B9E2
S3150000CC20C178402904BF001D02F096BD0020704760
S3150000CC300178FF2906BF4078012800207047017857
S3150000CC40FF2904BF4078022801D101207047002047
S3150000CC50704738B504460C4D08222146281DF4F7C6
S3150000CC6049FC0822214605F11400F4F743FC21464D
S3150000CC7005F12400BDE838400822F4F73BBC00006B
S3150000CC8010F50320C0F6032034E1032010B504009C
S3150000CC9007D000220F21F8F7F7FC10B1E07B01283E
S3150000CCA000D0002010BD0000000000FFFE000000C4
S3150000CCB0FE80000000000000704710B5040009D097
S3150000CCC000221021F8F7E0FC20B92046BDE810400C
S3150000CCD0FCF702BA10BD70B59CB004465E22002176
S3150000CCE004A8F4F769FC04A8FCF78DFEB74DB84E0E
S3150000CCF044B1FCF765FE03463246294604A8FBF715
S3150000CD00C2FE07E0FCF75CFE03463246294604A84D
S3150000CD10FCF75AF9FCF754FE03900296019508AA0F
S3150000CD209DF83A00BDF83830009004A90CA8FCF72D
S3150000CD30E7F81CB070BDFBF769BF00B585B0684663
S3150000CD4002F002FC01A802F05FFB014600980023F6
S3150000CD500022FBF775FF01A802F056FB0099FCF7CD
S3150000CD60EFF805B000BD00B585B0FCF7EDFD4FF658
S3150000CD70FE71884207DAFCF7E7FD6946FFF7D3FE46
S3150000CD806846FBF743FF102200216846F4F714FCBF
S3150000CD906846FFF7DCFE28B16846FBF730FF6846B9
S3150000CDA0FCF7D6F805B000BD00B585B00020FFF74A
S3150000CDB092FFFCF705FE03280DD1FFF7BEFFFFF734
S3150000CDC0D2FF8448811C6A46123009F041FA10B13C
S3150000CDD06846FCF788F905B000BD0DF0F5BB80B5D7
S3150000CDE002F0BAFC18B1FFF7BEFF002002BD012019
S3150000CDF002BD80B5112803DBB3217748F4F7F8FBB1
S3150000CE00012002BD80B5032807D1FFF796FF002059
S3150000CE10FFF761FFFFF7A7FF02E00020FFF75BFFC8
S3150000CE20012002BD6D49097801B100B101207047AA
S3150000CE306A490A781AB1702804BF00200870704742
S3150000CE4080B5FDF70EFD012002BD65490020087082
S3150000CE500120704780B508B9FFF73DFF012002BDEC
S3150000CE60002038E738B5044601F0C1FF01254FF62A
S3150000CE70FF71884202D05B48002504702846FCF703
S3150000CE8087F8002032BD7CB5054601A807F0BEF93B
S3150000CE900446BDF804004FF6FF71884205D100F044
S3150000CEA027F89120FBF76AFF73BD854203D200F095
S3150000CEB01FF80220F6E710B900F01BF8F2E700258C
S3150000CEC00AE0BDF804100095F3B262190020FBF7E2
S3150000CED055FF55FA86F5ADB2BDF804008542E3DA92
S3150000CEE0401B5B28AEBF5A26BDF80400461BE8E788
S3150000CEF00020009000230022002170470B465A2B89
S3150000CF00B9BFDAB20146002200211846FBF72EBF50
S3150000CF102DE9F44F0A9C344EDFF8D0A01D46074693
S3150000CF20200008BF8D428946B84602D129461046E0
S3150000CF3045E028198145DFF8B8B010DB200016D08F
S3150000CF403088010040D02B4909788F4209D1F5F786
S3150000CF50B4FB814502BF28480088844219D0308836
S3150000CF6090B35BF828204946012090472AE000212B
S3150000CF704846F5F7A0FC308030B95BF828204946D2
S3150000CF80BDE8F84F182010471A481B4907700020C3
S3150000CF9008803088F5F779FB174B1B8800992A46DD
S3150000CFA01844F4F7A7FA1448134900884019088072
S3150000CFB080B2484508D13088F5F767FB49465AF8EC
S3150000CFC02820904700203080BDE8F18FB8F6032076
S3150000CFD0C0F6032054F50320905A030094F303206F
S3150000CFE098F30320F0E3032058FD0320D8DF032045
S3150000CFF0CCDF03203BFE03205AFD032080B50093BF
S3150000D00013460A460146002005E080B50093134604
S3150000D0100A4601460220FFF77BFF01BDBC4B1860A4
S3150000D02059609A607047F8B500F00CF806992046EA
S3150000D03015F0F8FC04463A4631462846FFF7EEFF5F
S3150000D0402046F2BD1C46B24B1D685E689F68E5E748
S3150000D05000BF00210170002200F186014A80A0F87D
S3150000D06066200A700A71FF224A7100228A71C0F88E
S3150000D07090200A200872CA717047A54802680021EC
S3150000D08011700023016801F186025380A1F8663011
S3150000D0901370FF21026882F88A30026882F88B10CA
S3150000D0A0026882F88C300068C0F890307047984863
S3150000D0B00068CEE79648006810F8861F80790FE072
S3150000D0C09349096801EB4000B0F866000844401C2B
S3150000D0D070478F49096801EB400066304188008837
S3150000D0E0081AC0B270478A49096801EB40006630E9
S3150000D0F041880088081A80B2704780B5844909685B
S3150000D10091F98C10081840B2FFF7DAFF007802BDDB
S3150000D1102DE9F0477E4D0646286800F18C048946C5
S3150000D1202078871978B2FFF7CBFF8246F8B2FFF76F
S3150000D130D0FFA4780746FFF7BDFF86424FF00008F0
S3150000D14002D3CB2100F088F8002608E0B8F1000FE2
S3150000D15014D1012E18BF022E10D11024761CBE4207
S3150000D16019DA1AF806005FEA090103D0002E08BF93
S3150000D1702D28F3D0782818BF5828E7D0F8F704FBF5
S3150000D180A042B8BF04FB0808E8DB2968052081F83F
S3150000D1908A00002000E04046BDE8F08738B500F080
S3150000D1A054F81DD12046FFF794FF054660B2FFF7FD
S3150000D1B087FF012D01D1007832BD022D03D1BDE8D4
S3150000D1C03240F8F7FEB9042D05D1BDE834400146DA
S3150000D1D00020F8F723BAEF2100F03EF8002032BD18
S3150000D1E02046BDE83440002192E738B500F02DF81E
S3150000D1F020461DD1FFF76DFF054660B2FFF760FFC1
S3150000D200012D90F9004011D0022D03D1F8F7D9F97C
S3150000D21004B20BE0042D05D101460020F8F7FEF913
S3150000D220044603E04FF4857100F016F8204632BD3F
S3150000D230FFF763FF2D280CBF012500252946204650
S3150000D240FFF766FF05B1404232BD0446304800682C
S3150000D25090F88E00FF2870472E48F4F7C9B92DE9DB
S3150000D260F04100F04CF80AD124B1E8B2FFF731FFE3
S3150000D270401E20702846FFF723FF401C10E000F0F8
S3150000D2803AF800F032F80CBF0127002734B1F0B2AB
S3150000D290FFF71FFFA0EBD570C01B207008EBD57001
S3150000D2A0BDE8F0812DE9F04100F029F80AD124B15A
S3150000D2B0E8B2FFF718FF801E20802846FFF700FF20
S3150000D2C0801C10E000F017F800F00FF80CBF0127E3
S3150000D2D0002734B1F0B2FFF706FFA0EBD570C01BF4
S3150000D2E0208008EBD570BDE8F0818046ED4398F8C4
S3150000D2F00000222870470078461970B2E0E605461D
S3150000D300034800688C300C468178FF29704700007E
S3150000D31008DF0320184B03002DE9F04182B00C46CC
S3150000D320054616461F466946FFF799FF8046E8B24E
S3150000D330FFF7E3FE22289DF800000CBF012500251B
S3150000D34028188DF8000030469DF80010884288BFE6
S3150000D35008468DF80000002F1ABF9DF80000361A07
S3150000D3600026F6B2324600212046F4F725F99DF84C
S3150000D37000204146A019F4F7BDF89DF80000401BB7
S3150000D380C0B2BDE8F68180B58268406810B90A600F
S3150000D390012002BD10786E2803D14FF4D371FFF738
S3150000D3A05BFF002002BDF4F71ABA80B5F4F718FA4D
S3150000D3B0FFF77DFEBDE8014015F014BDF4F711BA84
S3150000D3C0DFF8F41C8870704700B583B048B100F0F0
S3150000D3D072F86846C17941F00201C17103F081FA21
S3150000D3E007BD03F07DFA07BD80B5DFF8D00C4179A3
S3150000D3F0092905D1032000F019FABDE8014081E1B1
S3150000D40007291ED0491E072915D8DFE801F00A04AE
S3150000D41006040D202011042000E00320BDE8024090
S3150000D42004E2BDE8014056E2BDE8024007207DE285
S3150000D430BDE8014066E1BDE8044040F2753101F007
S3150000D4409CBAC07A18B1BDE8014001F033BA01BDFB
S3150000D450DFF8680C4179072900D0704780B5C07A9B
S3150000D460032818BF07280ED1DFF87C0C008900F0CE
S3150000D4700CFF08D00EF007FBBDE804409621DFF84C
S3150000D480280DF3F767BF01BDDFF8600C00B5007823
S3150000D49083B020B1DFF8140DFFF7CEFA07BD00F018
S3150000D4A00AF89DF8000000F0FD008DF800006846BF
S3150000D4B0FFF7C2FA07BD04216846F5F75DBE2DE900
S3150000D4C0F84304468846DFF8289C5E220021484639
S3150000D4D0F4F772F8102200214846F4F76DF8052299
S3150000D4E00FF25401DFF8D45B0FF254064846F4F706
S3150000D4F001F809F128070220F870032038714FF669
S3150000D500FF7038800020E8810DE018EA000F09D08E
S3150000D510B078F27821184844F3F7ECFFE8893188AF
S3150000D5200843E881361D30880100EED194F82A00C0
S3150000D530B870BDE8F1830000656D62657200000099
S3150000D540010000100200100804002008080028024C
S3150000D55010002B0120002C0140002D10800018081F
S3150000D56000013D2000015D010000000038B50446C1
S3150000D5700D46FCF725FA20B1BDE832407020FBF7D6
S3150000D58028BC00F009F80020FBF723FC29462046BA
S3150000D590BDE8344008F056BF294620468FE7F8B567
S3150000D5A000F08AF8002802BFDFF82C0C00780C285F
S3150000D5B026D100211020F5F77EF9DFF8007B3882AE
S3150000D5C008B918201DE00020FBF7C7FA0021022049
S3150000D5D0FCF7FAF94FF6FB7000EA0501FFF7DDFFED
S3150000D5E001F083FE388AF5F750F81022FF21F3F791
S3150000D5F0E3FF3146BDE8F840052202200AF0E4BA0E
S3150000D6007020BDE8F24000F0D3BDF8B5DFF8AC7A83
S3150000D6100446F8890D46160019BF00F04F014F2940
S3150000D62000F04700472801D0022019E0FCF7C8F9AE
S3150000D630002802BFDFF8A00B00780C280FD1DFF816
S3150000D640B00A80F82B502046FCF78CF90120F871BF
S3150000D6503E720020FBF787FABDE8F14052E07020E9
S3150000D660BDE8F240FBF77FBA70B500F025F8002858
S3150000D67002BFDFF8640B00780C2818D1FFF78CFF87
S3150000D680DFF86C4ADFF8345A94F92C00FCF76AF993
S3150000D69001F040FE6E611021204600F011FD0020D1
S3150000D6A0E8712872FBF75FFABDE870402AE0BDE832
S3150000D6B070407020FBF757BA04460D461646FCF735
S3150000D6C07FB980B5FCF77CF9042802BFDFF8EC09C6
S3150000D6D0C07A002803D100F0AFFE002000E07020E1
S3150000D6E0BDE80240FBF74BBA20F08001042900D0C8
S3150000D6F0704780B50121FBF757FFDFF8BC1C0020FF
S3150000D700087001BD80B5FFF7BFFE03F0E9F8DFF84A
S3150000D710E00990F82B0020F08001042908D10121AE
S3150000D7200320FBF741FFDFF8800AF3F763FE02E010
S3150000D7300121FBF739FF00F0DDFC00210220FCF798
S3150000D74043F9DFF87819022008710120BDE802408C
S3150000D750ECE0DFF8DC1C0870704738B50446DFF8EB
S3150000D7605C09008A0D46F4F790FF10B1204400F8DA
S3150000D7700B5C31BD2DE9FC4106460F4690461C4622
S3150000D780FFF782FEDFF83459687920B1702000F087
S3150000D7900FFD002043E001F0F2FF30460EF0AFF936
S3150000D7A03846FCF7DFF84046FCF7DAF80C98DFF865
S3150000D7B0746C0021FBF7F8FE308840F001003080E1
S3150000D7C00020FCF7C3F80899204600F079FC0720F2
S3150000D7D06871308840F400403080A87B400704D54B
S3150000D7E0DFF8500C00F03AFC04E0FFF764FE6846F0
S3150000D7F000F034FC0A9802F0D1FA0B9802F0F2FA23
S3150000D800FCF74FFC012008F0B7FDDFF8AC08807884
S3150000D810FFF7DAFDFCF778FC00F02EF90120BDE8F1
S3150000D820F681DFF8981807204871704770B5DFF861
S3150000D8308C486679054600F05DFC012E08D12079FA
S3150000D840010005D0401E20710120BDE870406DE04A
S3150000D850A079010012D0401EA07115F0DFFADFF8A2
S3150000D8605858297800F048FF05F10800F3F772FDD3
S3150000D8700820607128788000287070BDDFF8700875
S3150000D88090F82B00FFF730FF03F02AF82946002016
S3150000D890FCF79AF8BDE8704000F079BD10B50C466B
S3150000D8A08AB0014608226846F7F7FDFE20220021CD
S3150000D8B002A8F3F781FE02AA0821684615F0B8FB14
S3150000D8C0082202A92046F7F7EEFEE07940F00200B2
S3150000D8D0E0710AB010BD10B5DFF8E047607A401C71
S3150000D8E0C0B21B280EDA6169C140C907F7D560725C
S3150000D8F00EF005F9E07958B900F0D8FB072807D0F3
S3150000D900012206E0BDE810400022032100203DE28E
S3150000D91000220021002011F038FBBDE810404FF432
S3150000D9209671DFF89C0CF3F715BD00002DE9FF4159
S3150000D9300646684600F027FCDFF87C47DFF87C5790
S3150000D940DFF8AC77DFF84C8C00F015FC6E7107F150
S3150000D95028066879401E062800F28780DFE800F076
S3150000D960041F505C5F8566004FF6FF776078E7809E
S3150000D97078B1308801E015F051FAB842FBD0FBF7D8
S3150000D980EFFFA078FFF720FD0A206872FFF7A3FFDC
S3150000D99070E06969052203200AF016F96AE0DFF8EB
S3150000D9A0241CE07809780840DFF8841A09780842D0
S3150000D9B00AD0A86920B94FF442714046F3F718FE21
S3150000D9C0A9696846884755E00022082105F12C0020
S3150000D9D0F7F75AFE28B105F12C01DFF8D007FFF75B
S3150000D9E05DFF05F12C0002F07CFF97F85D30298879
S3150000D9F007F13D02684609F0E8F9DFF8F81C10E087
S3150000DA000120F9F76CFF20B940F227314046F3F7C1
S3150000DA10EFFD42F6E06104E041F2883101E04FF4A7
S3150000DA20967104F10800F3F795FC23E000F0AFFCD3
S3150000DA3000F03CFB062807D100F01EF80122002169
S3150000DA40002011F0DFF80DE0072802D100F014F8ED
S3150000DA5008E0A078FFF7B8FCF078FFF745FE17203E
S3150000DA6000F0EAFCFCF750FB04E04FF4547140462A
S3150000DA70F3F7BEFDBDE8FF8100210320FBF7A4BF3D
S3150000DA802DE9F04192B0804615F00AFD0546404664
S3150000DA90F4F713FE441B4046F4F7F7FD0619F6B2F9
S3150000DAA01A2EC0F28E804046FAF789FBB0F5004F79
S3150000DAB078D04046FAF783FBB0F5004F72D0422289
S3150000DAC000216846F3F778FD08AC2878A070404638
S3150000DAD06F78FAF77BFB0146082206A8F3F70AFDE2
S3150000DAE01022A91C6846F3F705FD082205F112016C
S3150000DAF004A8F3F7FFFC03214046F5F711F8E070A0
S3150000DB0001214046F5F70CF8607102214046F5F711
S3150000DB1007F8A0714046F4F7B8FD0830F7F74EFD58
S3150000DB20ADF8200007F001002071F80800F00100B0
S3150000DB308DF840003809E07105F11A073544381DA3
S3150000DB40A8420AD23878122804BF7878022804D16D
S3150000DB50B81CF7F733FDA0833F1D381DA8420AD233
S3150000DB6038780F2804BF7878022804D1B81CF7F754
S3150000DB7025FDE0833F1DB81CA8420BD23878082843
S3150000DB8008D17A78112A05D2A276B91C0DF12A009D
S3150000DB90F3F7B0FCDFF824054079012803D1684685
S3150000DBA000F013F80DE0DFF830060078012803D105
S3150000DBB06846FAF7F1FF04E0052804BF6846F8F75F
S3150000DBC0B6FF12B0BDE8F08100BF2DE9F84FDFF8CF
S3150000DBD0E894DFF8E8448046B9F8060008F1200723
S3150000DBE000F053FB94F9020097F906100CBF4FF0B2
S3150000DBF0010A4FF0000A8842F879B4BF01250025D2
S3150000DC00421E9241D20F8DF80120E1784A1E9241C0
S3150000DC10DFF89C1C0978D20F8DF80020062962795E
S3150000DC200CBF01260026012A09D1022807DBB87895
S3150000DC30032804D1072903D198F8400078B989E070
S3150000DC40387938B1B97E080004D008F12A00F8F70F
S3150000DC5055F920B9A07B00F0470047287AD1002269
S3150000DC60082104F12400F7F70FFD78B900220821F6
S3150000DC7008F11800F7F708FD40B9082208F1180165
S3150000DC8004F12400F3F79FFC002863D1A07BDFF8A2
S3150000DC9060B4C0070CD5002210215846F7F7F4FCF3
S3150000DCA030B9102241465846F3F78DFC002851D171
S3150000DCB0A07B40070CD5002208210BF12000F7F7C6
S3150000DCC0E3FC28B900F048F8F3F77DFC002841D1C1
S3150000DCD0A17B09070BF1280003D501883A889142F8
S3150000DCE038D19DF801109DF800209DF8003029409C
S3150000DCF0324311409DF80120324382F001022B434A
S3150000DD0041EA0A011A40114324D0F9788170B979A1
S3150000DD10A17039880180414600F0C8F907280CBF78
S3150000DD20F88BB88B20801022F879E0705846F3F70C
S3150000DD30E1FB00F011F8F3F7DDFB4FF6FE70A9F8F2
S3150000DD40060008F1180104F11C00BDE8F84F08228E
S3150000DD50F3F7D0BBBDE8F18F082208F110010BF1F3
S3150000DD602000704738B5DFF8884304F12805A87805
S3150000DD700DF0C5FE2888FBF7F3FD04F1200000F046
S3150000DD806DF92046BDE83440102199E1F0B5020056
S3150000DD9085B040F09180C94DD54C6879012833D1C2
S3150000DDA00022082105F11C00F7F76EFCB8B9FFF751
S3150000DDB0D9FFE87970B100F079F9062808D1002278
S3150000DDC0082104F11800F7F75FFC08B1062002E00D
S3150000DDD0072000E0022005B0BDE8F040A6E5287A5D
S3150000DDE068B1FFF7BFFF15F0A4FB012008F0C4FAE5
S3150000DDF00720687105B0BDE8F04000F0EDBC05B045
S3150000DE00BDE8F040022011E5022903D105B0BDE8C6
S3150000DE10F040E3E1042904D105B0BDE8F040F8F78D
S3150000DE2039BE032941D1288AF4F72FFCEB8903F088
S3150000DE300806320004F128014FF6FF770FD14FF0A4
S3150000DE40000C00281CBF30F81C20BA4208D10CF187
S3150000DE5001025FFA82FCBCF1080FF2DB1CE00A88C3
S3150000DE60BA4218D018064CBF04F1180000200390DF
S3150000DE709B074CBF04F1100300230020019002937E
S3150000DE80102000902346CE7891F90410A87A0496C3
S3150000DE90FFF770FC16E01EB905B0BDE8F040D7E10B
S3150000DEA005B0BDE8F040702082E105290AD105B031
S3150000DEB0BDE8F040F8F75EBE022903D105B0BDE823
S3150000DEC0F04075E105B0F0BD7C484079062804BFF6
S3150000DED00720FFF72BBD704738B5784D04466879A3
S3150000DEE003280DD108F042FD1CB1BDE832400420E4
S3150000DEF01CE5092068714FF4FA61BDE8344010E56D
S3150000DF0031BD6E484079022804BF0420FFF78EBC5D
S3150000DF1070476A494979022909D130B1DFF8900979
S3150000DF200078062818BF072000E504207EE4704725
S3150000DF30DFF87C1C4A78002814BF42F0010002F08A
S3150000DF40FE0048707047DFF8680C40786BE070B5EB
S3150000DF500C0086B00646DFF8145C03D11A20287040
S3150000DF6000203DE068461421FAF70AFA112CA8BFF2
S3150000DF70102408208DF800008DF801402246314615
S3150000DF800DF10200F3F7B6FADFF8246CA21C92B288
S3150000DF90694606F11A00F3F7ADFA3019122100F8B6
S3150000DFA01C1F02214170DFF8241C0A88120A8270A5
S3150000DFB00988C170717809070ED50F2101710221F8
S3150000DFC04171DFF8F81C0A88120A82710988C1714A
S3150000DFD07078000748BF241D04F120002870012036
S3150000DFE0FFF7A6FF06B070BD10B5040004D0FBF71E
S3150000DFF0E7FC08B1702003E0204600F005F8002099
S3150000E000BDE81040FAF770BFDFF8A41B4A78002875
S3150000E01014BF42F0080002F0F70048707047DFF8BE
S3150000E020900B4078C00800F00100704780B5234887
S3150000E0304079022818BF03280CD007280CD1DFF836
S3150000E040700B4078C00705D407F0C2FA90F8560066
S3150000E050400601D5012002BD002002BD014608226E
S3150000E060DFF86C0CF3F746BA10B5DFF8B843208832
S3150000E070000403D440F2375100F0A6FBDFF8EC1A97
S3150000E0801A2008700321DFF8280B0170417841F04F
S3150000E090200141702078C00703D400F007F8022859
S3150000E0A003D1BDE8104011F083BC10BDDFF80008B5
S3150000E0B0007870470000000008E20320D0F7032034
S3150000E0C070B50D46112D0446A8BF1025DFF8E06A8D
S3150000E0D010220021B01CF3F76FFA2A462146B01C25
S3150000E0E0BDE87040F3F706BA14F8032045FE032096
S3150000E0F070F7032038B5DFF8DC5BDFF82C4400202E
S3150000E1006871E8724FF6FE70FBF720FCF7F74BFFDD
S3150000E1104FF6FF70E0800822002105F11C00F3F79E
S3150000E1204BFAFF2020710020DFF8AC1BBD4D0870B4
S3150000E1302888C0F30E0028800EF085F90FF059F9F3
S3150000E140DFF8981B0020087011F01CFA0BF0C5FDD3
S3150000E15012F08DFB12F0D9F911F04EFC0020FFF7FA
S3150000E160E7FE0120207000F006F828884FF6FE71C1
S3150000E1700840288031BD04F10800F3F73BB9DFF809
S3150000E180541B8861704780B5DFF89C13C9884FF629
S3150000E190FF72914201D1002002BD0146DFF8400B1B
S3150000E1A0FEF7E7FC012002BD1CE20320B8F60320BF
S3150000E1B010B50446DFF81C1B00200882FBF700FCA4
S3150000E1C020B92046BDE81040FAF7C7BCBDE81040AC
S3150000E1D001210020FBF7F8BB40E20320F8B5DFF889
S3150000E1E0F45A288AF4F751FAFF240027060014D0BF
S3150000E1F00020315CA21F9142BCBF8C1DE4B2401CC2
S3150000E2001028F6DB0020315CA142BCBF7F1CFFB2A8
S3150000E210401C1028F7DB380003D1BDE8F24001208E
S3150000E220C6E714F0FBFD90FBF7F107FB1101C9B23D
S3150000E2300020325CA24206DA0A0002D10B30A87234
S3150000E24004E0491EC9B2401C1028F2DBBDE8F140CB
S3150000E25070B5DFF8804A208AF4F717FA05460026DB
S3150000E26014F0DCFD00F011F81EBF002D25F8160095
S3150000E270761C082EF4DBA17ABDE87040012000FA76
S3150000E28001F10522032009F09FBC4FF6FF71884279
S3150000E290704770B5044620000FBFDFF8480A01201A
S3150000E2A0A0400843DFF82C1A98B0154648611E4670
S3150000E2B05E2200216846F3F77FF91E99082208A816
S3150000E2C0F3F718F9324629466846F3F713F91F9E05
S3150000E2D0102231460DF12D00F3F70CF91D9D082291
S3150000E2E0294604A8F3F706F920998DF82A40304606
S3150000E2F001F0A0F8284601F051FD1C9847214FF681
S3150000E300FF7290421CBFADF828004F216846FFF708
S3150000E3102DF918B070BD01461022DFF8CC09F3F7CD
S3150000E320E9B838B50446DFF8AC5900F01CF820B15E
S3150000E3302046BDE832400CF0A4B805F1340032BDE9
S3150000E34038B5DFF8905904466879042802D100F000
S3150000E3500AF810B16879072804D12046BDE8324092
S3150000E36003F0B0BF31BD0022102105F13400F7F7EC
S3150000E3708BB9DFF83C050078072805D0DFF854098B
S3150000E3804079022802D10320FFF7D0BA7047102245
S3150000E3900021DFF85409F3F70FB980B5FFF7F7FF4F
S3150000E3A0DFF830094079042804D1BDE80240052091
S3150000E3B0FFF7BCBA01BD00004EFE032010B55A4C53
S3150000E3C060791B2811DB0B20607104F12000F3F744
S3150000E3D011F800F0F0F8DFF8FC180020C8720021F0
S3150000E3E0BDE810400420FBF7EFBA07F0F1F85A3009
S3150000E3F0F8F7ECFA01466079C140C90748BF10F04A
S3150000E40050FD6079401C6071322104F12000BDE8A6
S3150000E4101040F2F79FBF80B50DF06EFBDFF8B41821
S3150000E420087301BDCEF60320DFF8C408704700006C
S3150000E43047FE032090F70320002100E001212DE98B
S3150000E440F041DFF890680446707907280D464ED1F2
S3150000E450F07ADFF8D48001000AD0062818BF072812
S3150000E46045D108F10800BDE8F0410021F2F772BF7E
S3150000E470DFF880783878002814BF00200220B071B9
S3150000E480280028D100F0B9FB07207071DFF8680872
S3150000E4900188C1F30E01018000F02BF84FF6FF70E2
S3150000E4A0A8F80600DFF808040078022818BF0CF068
S3150000E4B0BBFB0822002106F11C00F3F77DF8387833
S3150000E4C048B911F05FF8DFF81018002008704FF611
S3150000E4D0FE70FBF73BFADFF8146880220021304615
S3150000E4E0F3F76AF8B4703571BDE8F0411EE0BDE897
S3150000E4F0F08180B5F7F757FD0DF0A5FF0EF079FF17
S3150000E500DFF8D817002008700BF0E7FB12F0AFF920
S3150000E51011F0FBFF11F070FADFF8DC0701884FF607
S3150000E520FE721140018001BD08E2032038B5DFF814
S3150000E530A417A44CDFF8B4570020C872FF2020713E
S3150000E540FFF719FE012068700822022028700021BA
S3150000E5504FF6FF702881A5F8440005F10A00F3F78D
S3150000E5602BF8FFF7A3FDE87020F08000042807D100
S3150000E57001210320FBF718F804F11400F2F73AFF23
S3150000E580DFF870070078BDE83240002814BF02208B
S3150000E5900120B9E020ED000080B5DFF86007F2F752
S3150000E5A029FF00F008F8DFF82C170020C8721220A7
S3150000E5B0BDE8024040E7DFF83407C078FFF794B8BB
S3150000E5C010E20320D0F903202DE9F041DFF80457CB
S3150000E5D0DFF81847EF7A06F0FBFF00280FBF012689
S3150000E5E090F85600400900F00106207910B100208D
S3150000E5F0E8727CE0022FDFF8CC8121D1207801007F
S3150000E60032D0401EDFF8EC162070C0B2097880B90F
S3150000E61000291EBFDFF8E8060078002803D010F0B6
S3150000E620B1FF022020700020DFF8AC160870012030
S3150000E63003E0002914BF02200120BDE8F04163E099
S3150000E640A879010018BF012F0ED0401EA87114F042
S3150000E650E5FB617800F050F800F0BAF80420E872A3
S3150000E66060788000607042E0FBF7AAF9052804BFD5
S3150000E670A078142808D107F08FFD28B10020E87291
S3150000E68007F029FD15200BE0FBF79AF905280AD1BA
S3150000E69006F0D8FF38B10020E87207F022FD1620F8
S3150000E6A0BDE8F041C8E6FBF78BF9052812D1FFF764
S3150000E6B0FDFC022818BF06280CD15EB114F039FF04
S3150000E6C00020E872FBF720FDBDE8F04100210320A1
S3150000E6D0FBF77AB905F077FF01F05AF80820E872DF
S3150000E6E0002108F12000BDE8F041F2F733BEBDE895
S3150000E6F0F0810000400D03004FF47A72514390FB05
S3150000E700F1F201FB120170472DE9F0410646DFF8F0
S3150000E710B48086B008F10800F2F76CFEDFF8B45555
S3150000E720012EEE7204D045D3032E0FD006D341E05E
S3150000E730002010F0B7FA40F2EE2104E0012010F0BC
S3150000E740B1FA40F2E24100F043F837E0DFF89C65A9
S3150000E75001A906F10A00FEF70CFA41F6583100F05D
S3150000E76037F8F41C524F2078FEF7BEFF387804289D
S3150000E77008D1DFF8901501200870962108F11400E1
S3150000E780F2F7E8FD607830B9082206F10A0105F1D2
S3150000E7901C00F2F7AFFE387896F8312004280CBF3B
S3150000E7A0012300230020009006F1210101A810F0AA
S3150000E7B0ECFA03E040F6180100F006F806B0BDE8F2
S3150000E7C0F081000008E203200FF25450F2F710BF68
S3150000E7D008F10800F2F7BEBD2DE9F041344D287866
S3150000E7E0062882B003D140F61E01FFF7EDFFDFF8E1
S3150000E7F0E444DFF81465DFF8F4840020E07208F1E1
S3150000E800020706F10800F2F7F5FDFFF735F9B878CB
S3150000E81018B1FFF76EFE10F0B5FEDFF8C004007801
S3150000E82068B9F88808F10A01FCF7E8FF08F1340135
S3150000E8300A7B8B6800924A680968FDF77DFC287898
S3150000E840042804D1DFF8BC140020087012E0022866
S3150000E8500CD1DFF8A4040078C00758BF14F0B4FF49
S3150000E860387815F081F914F04EFE03E0032808BF4E
S3150000E87014F0AAFFFBF748FC3878122806D10B20C3
S3150000E880707106F12000F2F7B5FD0CE011280AD1EF
S3150000E8900DF032F90146207B884204D04FF47A729B
S3150000E8A0032106F0AFFFBDE8F34106F0CFBE00003E
S3150000E8B0CAF6032070B5DFF81C44DFF83004E17AAD
S3150000E8C0491E062900F108054FF6FF7651D8DFE804
S3150000E8D001F025393E1950040C000020E0724FF675
S3150000E8E0FE70DFF82814088008E0DFF81C5405F1F4
S3150000E8F01400F2F77FFDEE800020E0721420BDE8E0
S3150000E900704099E5C01C417811B10020E07270BDDD
S3150000E9100078FEF7E9FEBDE8704007E62888B042B9
S3150000E9200ED0A87C022803DA287E202808DB01E026
S3150000E93003281ADADFF8D813287E0978884214D219
S3150000E940022013E02888B0420FD1022003E0A98FED
S3150000E950B14203D10320BDE8704035E600F1440121
S3150000E9603C222846F2F7C6FDAE870320BDE870407C
S3150000E970CAE6BDE8704040F6AB010FF2A430F2F7EC
S3150000E98037BED449C97A032905D1002818BFFFF735
S3150000E99023BF032018E6704738B50D46044628887D
S3150000E9A0FFF773FC27D02B7E217E05F1130204F1BD
S3150000E9B0130014F042FE10B101281EDB1BE0A17CFF
S3150000E9C0A87C884221D12888C0F30900411E2088EE
S3150000E9D08941C0F30902501E8041C00FB0EBD17FC0
S3150000E9E015D1E868E26801021302090E1B0E8B427C
S3150000E9F005D0994201DA012032BD002032BD0BB9A3
S3150000EA00904202D1298A228A91428041C00F32BDAA
S3150000EA1070B5154682B004461E463C22F2F76AFDE2
S3150000EA202846F9F7D3FB01460822A01CF2F762FD3F
S3150000EA30B27B716B04F11900F2F75CFDB07B84F8D0
S3150000EA4029000020B16EF6F7E9FD44F82C0F0020EE
S3150000EA50F16EF6F7E3FD6060684600F075FD28B1DB
S3150000EA6070680099814238BF00F005FD7068A060AB
S3150000EA70B07C207373BD2DE9F04F8B460BF11C065D
S3150000EA8091B08046B06D0190022140460BF1C00462
S3150000EA90F4F746F82568074629460020F6F7BEFD36
S3150000EAA0814695F806A06A790198514614F0FEFD54
S3150000EAB010B905F0C4FC55E030880199ADF808009E
S3150000EAC005220DF11B00F2F715FD8DF820A078B296
S3150000EAD0FDF71CFA0746FDF741FA247982462046DF
S3150000EAE0FDF73CFA0546308880050BD18948026857
S3150000EAF0100007D069460BF11300904710B19DF83E
S3150000EB00000003E05046A84288BF28468DF81A0048
S3150000EB10E019ADF8180029F07F4005909DF81A001D
S3150000EB2000B3724E06F1080102A8FFF735FF60B187
S3150000EB303C2206F1080106F14400F2F7DBFC5B46D5
S3150000EB40424602A906F108000AE006F1440102A8BD
S3150000EB50FFF722FF30B15B46424602A906F14400A8
S3150000EB60FFF756FF11B0BDE8F08F000050F5032007
S3150000EB7070B5044608465749C97A032915460CD18B
S3150000EB805A4E082206F10A01F2F71DFD28B9F06B6C
S3150000EB90A84204D1706B844205D2002070BD3CBFF0
S3150000EBA0281A4028F9D27463F563012070BD00006D
S3150000EBB054F503204D48836B934201D300207047E0
S3150000EBC00181511C8163012070470000DAE30320B4
S3150000EBD080B5FAF7B9FE4D49088000F00EF83D48B9
S3150000EBE0072141710621C17240F2DC514A48F2F711
S3150000EBF0B1FBBDE8014010F02BB800210520FAF763
S3150000EC00E3BE7FB53348C17A062927D10021C172F8
S3150000EC1000253948414E018841F4004141F0010187
S3150000EC20018003200021FAF7CFFE3B48F2F7E2FB12
S3150000EC300CF049F810F0BCFE0CF006F904460AE0A8
S3150000EC403268694602EBC500FDF793FF022168466C
S3150000EC5010F03BF96D1CEDB2A542F1DB7FBD10B59E
S3150000EC60FFF7CBFF1B48284C07214171C172FAF709
S3150000EC706BFE00F47C40E080FFF718FA042804D10C
S3150000EC80002104F11400F2F765FB10F045F904F1D8
S3150000EC900800BDE8104040F2DC51F2F75BBB80B5DE
S3150000ECA00C48C17A072908D10021C172FEF7E5FE9A
S3150000ECB0BDE802401848F2F79DBB01BDDCE3032026
S3150000ECC00448C07A072804BF0A20FFF77DBC7047B6
S3150000ECD066F50320D0F703203EF603203DF6032019
S3150000ECE0ECF7032000F8FF0704F8032014F80320CC
S3150000ECF01EF803206CFA0320CEF6032028E2032038
S3150000ED0052FA03204EFE032008E2032024E30320E8
S3150000ED1051E30320FCF9032010E2032024DF032043
S3150000ED206A6F696E2E63000038B502F056FD044620
S3150000ED3002F04FFD0020002124FA01F2D20712D57D
S3150000ED401E481F4C30F8110006284CF23C324FF298
S3150000ED500F031ED16088984217D12188080A0C2813
S3150000ED6013DA084613E0491C89B21129E4D3154980
S3150000ED700880088840F20171884205D11248D0E91E
S3150000ED8000231248C0E9002331BD4FF4C060628001
S3150000ED90EDE740F20725A84201BF61889942218824
S3150000EDA0A942E4D162800846E1E706480088000AE5
S3150000EDB07047044800887047044870474C4B03006E
S3150000EDC000000020A2F8032094000020BCE90320E4
S3150000EDD080B5094909688969C90206D5012812BFA3
S3150000EDE0002840F20220F5F721FD012002BD02486D
S3150000EDF000688068000C70472808E10F10B5444889
S3150000EE00444986B00068000E09D14AF6E850C86247
S3150000EE10486B40F0040048630020C86201E0022805
S3150000EE2003D2086840F40050086002AC3A48016812
S3150000EE3021F4401141F4881101603848016841F419
S3150000EE408071016001203649086014F015FFFCF757
S3150000EE505EFA14F0FCFF3348D0E90023CDE9002325
S3150000EE6001208DF80300684615F0B0F815F036FB62
S3150000EE70F3F792F82C480FC884E80F0008208DF8A5
S3150000EE80140002A815F036FB06B010BD40F2016072
S3150000EE90F5F7CCBC80B50021002001F045FEBDE8A9
S3150000EEA0014015F035BB15F034BB002818BFF4F748
S3150000EEB069B8F4F768B880B5FFF777FF01461B48D5
S3150000EEC00C2938BF00EB810002BD000010B5FFF72A
S3150000EED06CFF0446FFF76DFFC0B208B9012C07D1DD
S3150000EEE0072C11D8DFE804F004100608080A0C0EF7
S3150000EEF0002010BD092010BD022010BD032010BD4A
S3150000EF000B2010BD062010BD44F0800010BD00008F
S3150000EF10FC81E00F64310E4020400E4000000E40A0
S3150000EF2010300E40D858030090590300A059030032
S3150000EF30002080F3118870472DE9F04FC24D8046BE
S3150000EF40A86B410785B006D5296C2F6DBF4E03917E
S3150000EF500024A14606E0E96BEF6CBD4EDFF8F492A3
S3150000EF6003916C6D00074CBFBB4ABC4AB9EB040A5F
S3150000EF7007D064204FEA5A0100FB0710B0FBFAFBEA
S3150000EF8001E04FF0000B03980290CDF80490009436
S3150000EF903346B3494046FBF7D9FB1FFA8AF0019086
S3150000EFA000961FFA8BF3BAB2AE494046FBF7CEFB8A
S3150000EFB095F8380040070BD4AAF19C00874207D188
S3150000EFC0686DA949884203D2A8494046FBF7BEFBB3
S3150000EFD00398814528BFA04204D23246A449404640
S3150000EFE0FBF7B4FB4046F5F7EAFB286E002804BFA2
S3150000EFF0686E00282DD09F499F4F4046FBF7B4FB13
S3150000F00000248EA6286EE040C00707D557F82420B6
S3150000F010107818B131464046FBF7A6FB641C202C3D
S3150000F020F0DB0024686EE040C00709D507EB8400DA
S3150000F030D0F88020107818B131464046FBF794FB93
S3150000F040641C122CEED3404605B0BDE8F04FFBF72A
S3150000F05071BB404605B0BDE8F04F8849FBF776BB6B
S3150000F0602DE9F8430446FFF7A4FE40F20151401A89
S3150000F070834D844F844EDFF81482DFF8149213D048
S3150000F080401E13D040F2FF11401A11D04FF44071C8
S3150000F090401A14D0401E28D0401E48D0401E71D0C1
S3150000F0A0401E00F08D8089E07A4968E07A4988E060
S3150000F0B06B6D2A6D79492046FBF748FB79E0784964
S3150000F0C000F084F8A86AC0F3400010B1754900F05A
S3150000F0D07DF8A86AC0F3807010B1734900F076F825
S3150000F0E0A86AC00F65D0714949E0714900F06EF811
S3150000F0F095F8240010F0030F01D000F06AF8686A52
S3150000F100C0F3C01018B12A6B394600F064F8002726
S3150000F110686AF840C00706D558F82720107810B15D
S3150000F120314600F058F87F1C082FF1D341E06149C1
S3150000F13000F04CF800F04DF8686AC0F3802010B17A
S3150000F1405D4900F043F8686AC0F3C03018B12A6B15
S3150000F150394600F040F80827686AF840C00706D527
S3150000F16058F82720107810B1314600F034F87F1C8B
S3150000F170102FF1D395F8240000061AD14F4900F05C
S3150000F18025F816E04E4900F021F800F022F8102785
S3150000F190686AF840C00706D558F82720107810B1DD
S3150000F1A0314600F018F87F1CFFB21A2F01DA202F23
S3150000F1B0EED32046BDE8F243F5F701BBBDE8F18387
S3150000F1C0404900F003F800F004F8F2E72046FBF7A8
S3150000F1D0BDBA2A6849462046FBF7B8BA2DE9F0477A
S3150000F1E08146DFF8E4A0394DDFF8E480002414A658
S3150000F1F014A706E04846FBF7B7FA4846F5F7DFFAE4
S3150000F200641C2878B8B15AF8043B2A464146484659
S3150000F210FBF7AAFA00E06D1C28780028FBD115F848
S3150000F220010F00281EBFE4B204F00300032814BF38
S3150000F23039463146DEE7BDE8F0870000202570003C
S3150000F2400D0A00002C20000000000020D051030011
S3150000F250D8510300E8DB0320E0510300E851030026
S3150000F260F0510300205203009C0000205C52030072
S3150000F27088520300A8520300EC550300D85203003D
S3150000F2804400002084540300A05403008455030066
S3150000F29060530300F0520300305303007C53030015
S3150000F2A098530300B0530300EC53030020540300AB
S3150000F2B05C540300A8540300C0540300085503001F
S3150000F2C0385503005455030004000020B4560300CB
S3150000F2D078550300DFF830140A7822B1496888426D
S3150000F2E001D10120704700207047DFF81C04007828
S3150000F2F000B1704700B585B008216846F3F73CFFBA
S3150000F30010B95F2100F012F90121684600F092F869
S3150000F31005B000BD00BF10B5DFF8EC43002020703B
S3150000F32060702022002104F11400F2F745F904F17F
S3150000F3303400BDE8104020220021F2F73DB97FB528
S3150000F34004460D46164601A80FF2E8310B22FBF7DC
S3150000F3500DFB2A4601A90020F6F741F900960A237B
S3150000F36001AA1021204613F0C0FE7FBD7FB50446DA
S3150000F3700D46FFF7AFFFDFF8906310B106F11400FA
S3150000F38010E0707828B13069844208BF06F1340075
S3150000F39008D0684600F038F820B12A462146FFF723
S3150000F3A0CEFF284604B070BD38B5DFF85C530C4676
S3150000F3B005F11402FFF7C3FF01206C60287031BD10
S3150000F3C080B50020009004236A467F21042011F0B6
S3150000F3D090FB01BD38B506F0FBF80446002210216B
S3150000F3E004F13400F6F750F968B900F099F8C64D03
S3150000F3F000990020687004F13400FFF7D5FF00F093
S3150000F40021F90020E86031BD38B5044606F0E0F881
S3150000F41005460022102105F13400F6F735F938B912
S3150000F420102205F134012046F2F764F8204632BD79
S3150000F430002032BD10B5C6B00C4602461023052189
S3150000F4406846F6F77AFE05A807F025F912226946FE
S3150000F45005A807F08DF805A806F0D1F8AA480021FE
S3150000F46001704170204600F065F8FCF7E2FE0CF0F2
S3150000F47029F846B010BDF0B5A34D0446287887B0EC
S3150000F48010B16868844249D002A8FFF7BDFF0600A4
S3150000F49044D02878D8B16868A04203D34FF4A77146
S3150000F4A000F044F8202205F1140105F13400F2F7CA
S3150000F4B021F868682861271A0121802F697028BF02
S3150000F4C07F27F8B20BF0BBFFF8B2FCF7CDFE214662
S3150000F4D03046FFF769FF019400F022F80098019981
S3150000F4E0884215D03FBF08460099401A052809D220
S3150000F4F0042011F024FB00980199401C88420090DA
S3150000F500F6D305E0042301AA7F21042011F0F1FAC5
S3150000F5106C6010F0A2FC0020FDF70BFA07B0F0BDFE
S3150000F52004237F220421684611F0D3BA0FF2E410B7
S3150000F530F2F75EB880B5FFF79EFF73494FF41C7073
S3150000F540C860BDE801407DE06F4908B14A680260C5
S3150000F5500878704738B504460D466846FFF7F4FF4D
S3150000F56018B940F28511FFF7E1FF0098201A00F163
S3150000F5704001802903D295F90010884201DA002063
S3150000F58032BD2870012032BD30B50D465E491446A5
S3150000F5900A7889B00AB9002018E04B684A199842DF
S3150000F5A008BF02F1140011D04B782BB109698842CB
S3150000F5B008BF02F1340009D06946FFF7D7FE1022D2
S3150000F5C00DEB05012046F1F795FF204609B030BD49
S3150000F5D04D490A780AB9002070474968401E401A0A
S3150000F5E000F07F025018402AA8BF803870470A46AC
S3150000F5F01021C9E70A460021C6E743490A782AB11D
S3150000F60008B14A68026001F1240070470020704783
S3150000F61000207047002070473B498A68002002B1ED
S3150000F62090B2CA6812B1824238BF90B248B1F1288E
S3150000F630A8BFF02088708878344941433448F1F7F0
S3150000F64089BE704780B505F0C3FF5430F5F7B9FFA2
S3150000F65030B92D49C860BDE802402D48F1F7CABE51
S3150000F660BDE80140D8E72848C168826851EA02032C
S3150000F67015D083781AB193422CBF0022D21A826029
S3150000F68019B18B422CBF0021C91AC1601146C2684C
S3150000F690114318BFFFF7C0BF4068401C4AE77047D8
S3150000F6A019490A7842B14A68521C904204D1C96885
S3150000F6B0002908BFFFF73EBF704738B504460D4620
S3150000F6C0FAF77EF908B1702006E0E80703D520684E
S3150000F6D00021FFF7AFFE0020BDE83240F9F731BA4E
S3150000F6E080B50948017800291CBF406810F1010F58
S3150000F6F004D0401CFFF71EFF002000E07020BDE88C
S3150000F7000240F9F724BA00004CF6032080EE3600DA
S3150000F710A8E1032064697374726962757465642D67
S3150000F7206B65792D6D616E6167656D656E742E63AF
S3150000F73000000000303030305468726561640000AB
S3150000F74080B5DFF888160A7A22B10822F1F7D2FED0
S3150000F750012002BD002002BD80B5DFF870160A7ACE
S3150000F76032B10822F1F72FFF401E8041C00F02BDC3
S3150000F770002002BD70470020704700207047DFF868
S3150000F7804C0600210172418108220C30F1F714BFAA
S3150000F790DFF83816002048817047DFF83406007815
S3150000F7A0000700D5704710B5DFF8284620780128F5
S3150000F7B00BD1012100200FF088FB10B10020207032
S3150000F7C010BDBDE81040FA2105E010BDDFF80416B3
S3150000F7D0012008706421DFF80006F1F7BBBD2DE9B2
S3150000F7E0F84B08B404468B46DFF8E0851646002140
S3150000F7F008F10A00F6F715F9012709E028883040D4
S3150000F800B04223D0494608F10A00F6F739F97F1CC1
S3150000F81081465FEA09001AD0F2F737FF0500F1D0FA
S3150000F8203000EBD11CB9B8B25845EBD10EE05B46BF
S3150000F830AA1C59462046F5F761FF5845E2D19DF8C6
S3150000F840000000281CBFA97C8B45DBD12846BDE8FB
S3150000F850F68BF8B504460D46DFF87065002106F113
S3150000F8600A00F6F7DEF804E0394606F10A00F6F774
S3150000F87007F90746380013D0F2F707FF0028F3D040
S3150000F880821C2B4629462046F5F738FFA842EBD1C5
S3150000F890394606F10A00BDE8F8400022F6F71AB923
S3150000F8A0F1BDF8B5DFF8245504466889ADF80000C7
S3150000F8B00E460020688118E000216846F6F7EAF84F
S3150000F8C00746F2F7E2FE80B10178C90707D5821C28
S3150000F8D0334631462046F5F711FFB04205D00022E7
S3150000F8E0394605F10A00F6F7A4F86846F6F784F8F3
S3150000F8F00028E1D0F1BD1346002270E780B5002252
S3150000F9004021FFF7F8FF10B1007800F0010002BDBA
S3150000F91038B504460D462846FDF73AF9D0B92846CB
S3150000F920FFF71AFF70B100212846FDF703F928B149
S3150000F930FAF70AF82146FDF7F6F82FE02046FDF71C
S3150000F94006F92BE02878FF2813D1687800F00F001D
S3150000F950032805DA2146DFF88404FDF70AF91DE0DD
S3150000F960062804DA2046BDE83240FDF7F0B800204C
S3150000F97032BD002240212846FFF7BDFF10B10178B5
S3150000F980890606D40023202200210020FFF727FF46
S3150000F99028B1811C10222046F1F7ACFD012032BDB2
S3150000F9A02DE9F041884682B00546002201210BE090
S3150000F9B03946301D00F032F918B1018841F4006172
S3150000F9C0018032460121284604F043FE060026D077
S3150000F9D0F778052104F027FE002418B1001DF5F77D
S3150000F9E0F0FD04460421304604F01DFE18B1001D4A
S3150000F9F0F5F7E7FD0443002CE3D0E00406D55FEA03
S3150000FA0008000CBF42F210021522D1E72005D8D516
S3150000FA105FEA080014BF0B2242F20802C8E7DFF8CB
S3150000FA20AC536889ADF802000020ADF8000068818B
S3150000FA3003E000223146F5F7FCFF0DF10200F5F771
S3150000FA40DBFF48BB00210DF10200F6F723F806465E
S3150000FA50F2F71BFE0028F0D00188CA0A4FF2FF73A6
S3150000FA6002F00102194013000CD15FEA080314BF2B
S3150000FA704FF6F8734DF6FF73194042F2010319422F
S3150000FA8018BF01220180002A14BF05F10A0068464A
S3150000FA90CFE70022F9F7E0F96846F5F7ADFF90B930
S3150000FAA000216846F5F7F6FFF2F7EFFD0100F3D007
S3150000FAB00A88881C897CD306EBD41207ECD5002271
S3150000FAC0F9F747F9E8E7BDE8F3812DE9F84316466B
S3150000FAD01F4680460C4601230022FFF780FE0500E4
S3150000FAE01FD1BA4D05F10A00F5F78BFF082805DA94
S3150000FAF000212820F2F7DFFE814608B9002034E015
S3150000FB000022494605F10A00F5F793FF4846F2F749
S3150000FB10BCFD050028D028220021F1F74DFDAC746C
S3150000FB2004E0288843F20701084028801022414655
S3150000FB30A81CF1F7DFFC0020A884099C2888204334
S3150000FB402880089921B1082205F11300F1F7D2FCAB
S3150000FB50A00609D5EE612F62E3B23A463146404629
S3150000FB60F9F719F9FFF732FE2846BDE8F283F0B53A
S3150000FB700D4683B000F04EF8060003D12A46214612
S3150000FB80012020E0802D44F2300705DA042106F139
S3150000FB900A00F3F7F1FA06E010222146B01CF1F74D
S3150000FBA0A9FC4CF23007002000904FF4E163019766
S3150000FBB01A464021B01CFFF788FF002814BF00201A
S3150000FBC001202A46214603B0BDE8F040F9F74BB9BB
S3150000FBD038B500F01FF8050002D02888810601D448
S3150000FBE0022013E000070CD500228021204604F0F5
S3150000FBF09DFF4FF6FE7188421CBF05F113010AF006
S3150000FC0001FE40212046FFF724FE0020BDE83240D9
S3150000FC10F9F71CB90446002240216CE62DE9F041B3
S3150000FC20164686B0044688460122FFF764FE07465C
S3150000FC303006C00E00F001050822214602A8F1F7A1
S3150000FC4059FC002F29D1F0060BD500F047F8070024
S3150000FC5040D070073ED4012241462046F9F7FCF811
S3150000FC6038E0002D36D001224146204604F05EFFE2
S3150000FC7005464FF6FE70854203D0F9F765FE8542CC
S3150000FC8001D1B00726D500F029F8070022D00122BD
S3150000FC9041462046F9F75DF81CE0FFF797FD3878F6
S3150000FCA000F0300030280FD175B10020F8613862BD
S3150000FCB03880002300220021B81CF9F76CF80022D6
S3150000FCC041462046F9F7C8F8388841F20701314025
S3150000FCD008433880384606B0BDE8F08104A8002104
S3150000FCE00022C0E90012009101960023414602A8B5
S3150000FCF0EBE680B500F04EF820B100880006400F14
S3150000FD0000F0010002BD38B50446FCF741FF20B102
S3150000FD1004F10800FCF7BDFE32BD2046FFF71CFDCE
S3150000FD20E8B104F10800FCF7ABFEB0B904F1080035
S3150000FD30FCF7D3FE88B969462046FCF7FBFE40B1C6
S3150000FD40BDF8000003F0F3F90546F9F7FDFD85421D
S3150000FD5003D02046FCF7D8FE32BD012032BD204636
S3150000FD60FFF7C7FF32BD70B5044600F013F878B14F
S3150000FD700588A9060CD5867C31462046FFF769FD25
S3150000FD8005F01F0231462046FFF748FF012070BDEF
S3150000FD90002070BD00230022802120E510B50B4C09
S3150000FDA038B9FD20207005220020E080601C0C4937
S3150000FDB002E0014608222046F1F79CFB0120207252
S3150000FDC02046BDE81040FCF744BF0000A0F6032023
S3150000FDD0CEF6032042FE0320B4E10320C0F6032042
S3150000FDE066F503207047000038B5044621480460D4
S3150000FDF00D46204600F0A0F929462046BDE83440CD
S3150000FE0000F066B90120704714F0CFBD08461146D0
S3150000FE1000F0B3B970470846114615F08FBC0220B2
S3150000FE20704700207047002070470120704700206F
S3150000FE30704710B50C4611461A46034620460D4C2F
S3150000FE4064682468A04710BD0A48406840680047B7
S3150000FE50084840688068004710B582B0049C00944A
S3150000FE60044C64686469A04716BD024949688969FB
S3150000FE700847000060E203200C3000F0A1B80C3007
S3150000FE8000F0B0B80C3000F0BFB80C3000F0C9B8C4
S3150000FE9080B515F07BF8002002BD0C3000F03FBCA9
S3150000FEA00C3015F0B1BC00007B4D0200ED4D020098
S3150000FEB0F94D02001D4E0200314E02001FFE0000E9
S3150000FEC023FE000027FE00002BFE00002FFE000090
S3150000FED00120704738B500F01BF800212561E1606C
S3150000FEE0BDE8324015F093BC38B500F011F8216931
S3150000FEF0E26829400D0018BF01251143E16015F0A5
S3150000FF0086FC15B10020042134BD0020002134BD3B
S3150000FF1004460D4615F07EBC38B5FFF7F9FF226999
S3150000FF20E1682A4021EA0205E56015F070FC2846E2
S3150000FF3032BD8069704770B582B005460C0006BFB9
S3150000FF400FF25C00006820681646009006B9EE685D
S3150000FF5031462846FFF7E0FF32466946284614F048
S3150000FF606AFF0CB10098206073BDF8B500F10C076C
S3150000FF700C4615463846FFF7ABFF022628B12A463F
S3150000FF8021463846FFF7D7FF00263046F2BD80B53A
S3150000FF900C3001F00111FFF79DFF002002BD0000AB
S3150000FFA0FFFFFFFF38B504460D4614F033FD08B9D0
S3150000FFB0022032BDA9B22046BDE8344000F003B9A4
S3150000FFC038B50446154689B2FFF7ECFF010005D1A6
S3150000FFD029462046BDE8344014F03FBD32BD0C3002
S3150000FFE014F017BE70B500F00AF8010006D13246CB
S3150000FFF029462046BDE8704014F077BD70BD044622
S3150001000015461E4689B2CDE770B5FFF7F8FF010028
S3150001001006D1324629462046BDE8704014F026BD79
S3150001002070BD70B5D4B2250018BF012C01D00120D6
S3150001003070BD89B200F0C7F806000BD1012101207D
S3150001004000F09BF814B914F0A8FF03E0012C08BFD7
S3150001005014F0AAFF304670BD7CB50D4669460446CC
S3150001006000F02DF89DF800102A46204615F0D6FB23
S3150001007004F10C060146304614F050FF76BD30B54A
S3150001008083B06946044600F01AF804F10C052846C7
S3150001009014F07AFF02469DF80010204615F026FC62
S315000100A03EBD38B50C4600F10C050021284614F07A
S315000100B035FF21462846BDE8344014F022BF0C30F6
S315000100C014F05CBF0C3014F012BB00000120704725
S315000100D010B5044614F042FB08B1002010BD2046BD
S315000100E010BD70B50D00044614BF012600261F2160
S315000100F0304615F04FFC0020606225621F21304614
S3150001010015F048FC4FF6FF76002001E0401CC0B216
S31500010110E968884209D2A968182212FB00F2114443
S31500010120C989B142F2DA0E00F0D13146204600F01B
S315000101304AF8304670BD704710B5044614F0B9FB55
S31500010140A06A0100DFF8301208BFDFF830028860CC
S3150001015010BD38B500F10C050C462846FFF7B6FF71
S3150001016028B114F022FC012801D0022032BD21461B
S315000101702846BDE8344014F0EEBB10B50C4614F029
S31500010180FFFB1CB114F011FC0128FBD110BDF0B529
S3150001019004467B48066883B00D466946204614F03E
S315000101A0EDFEB5F91220012747F6FF702479824248
S315000101B007D09DF80010304615F030FBA04238BF3D
S315000101C000273846FEBD2DE9F04F85B04FF00009F6
S315000101D08DF801900446684F8DF800900D463868F9
S315000101E0D7F804A00290CDF804A0204600F0C1F88B
S315000101F08046266AD4F824B000F0EBF8002818BF30
S31500010200D34505D1BBF1000F02D0A8B240454BD072
S31500010210002E1CBFB068002801D0F06808B9032081
S315000102209CE0CA4601E00AF1010AF068824518D24B
S31500010230B068182101FB0AF10144A8B2CA899042AB
S3150001024022BF088AAAB29042EDD301208DF80000A0
S315000102508B462046FFF79BFF0028E4D001208DF84E
S31500010260010003A9204614F089FE204614F08CFEF5
S3150001027082469DF80100C0B1217900F073F8386813
S3150001028060B3B04223D17A680AB35A451FD1A9B2E5
S31500010290884506D00023204614F08DFE5FEA00094A
S315000102A012D1C4F824B0658057E09DF8000048B12A
S315000102B0BBF912209DF80C10A4F10C0015F0AEFA52
S315000102C00146DAE7012049E000F04BF83FE001681A
S315000102D021B13268914208BF416800D0316800F00F
S315000102E045F881465FEA090004D1DBF8001000F009
S315000102F03DF881465FEA09000FD100F06AF810B1B6
S315000103003E60C7F804B0C4F824B0658001235A469C
S31500010310A9B2204614F04FFE81465FEA090005D1D5
S31500010320BA685946A4F10C00904716E000F051F85E
S3150001033098B10298386001987860386808B100F081
S3150001034014F800F00EF8786838B100F00EF87A6803
S3150001035000234146204614F02EFE484605B0BDE86E
S31500010360F08F5146204614F0F9BD0168204615F07C
S31500010370BBB840887047000068E2032037010100DE
S3150001038060E2032001281CBF0428022801D10120B4
S3150001039070470020704738B500F03CF840B16878E6
S315000103A0FFF7F0FF20B1287869780843400701D5A7
S315000103B0012032BD00F00DF828B114F0F6FA40071D
S315000103C001D5022032BD29462046BDE8344014F04D
S315000103D05FBD20467AE60C30DDE738B500F01AF845
S315000103E038B16878FFF7CEFF00281CBF687804286B
S315000103F001D1012032BDFFF7ECFF28B114F0D5FA87
S31500010400800701D5022032BD29462046BDE8344089
S3150001041014F066BD0D4604462878B3E70C30DCE7D8
S3150001042030B583B00C30DDE90645CDE9004514F061
S315000104300EFA3EBD0C3015F023B8000000207047BF
S3150001044038B51446F3F706F905466CB128000BD00A
S315000104500A48007818B10A490120087004E0002210
S315000104600021284600F0ABF8284632BD7047704798
S3150001047070470449087070470000000056E50320E4
S3150001048057E503204AFE0320012070470C3014F083
S315000104908CBF0846114614F0F5BE0846114614F005
S315000104A00FBF70B50C4615461E460C30FFF7ECFF24
S315000104B038B1049B324629462046BDE8704014F007
S315000104C001BA70BD00207047FBF7F2B810B50446BB
S315000104D00521112000F00CFF00220021022001F06D
S315000104E02BF81848184A01686FF3D321016002EA14
S315000104F0C42201681143016001220121022001F099
S315000105001BF8BDE810400421112000F0F1BE0D4892
S3150001051000680003C00D704738B50C480C460188C9
S315000105204FF6FF75ADF8005002237F22684610F0A2
S31500010530D0FABDF80000A84202D02080012032BDC9
S31500010540002032BD30400E4000F80F00346D03002C
S315000105500120704738B504466048614D002912BF35
S3150001056000210178491C017001200121F1F75FFC8E
S315000105702878411C89B20320F1F759FC200003D0E9
S3150001058000F0D0FA002808D500F0CCFA40054CBF9F
S31500010590032001200021FFF7DBFF52484470284663
S315000105A0BDE8384001224FF47A71FFF749BF80B5A3
S315000105B0F3F7D4F9BDE8024031200BF041BB38B561
S315000105C00446402C154606D100F0ACFA00F0802016
S315000105D0B0F1004F03D000210020FFF7B9FF002C36
S315000105E03AD0402C24D0882C18BF892C38D08C2C9A
S315000105F038D08D2C2DD08F2C39D13B48007804284A
S315000106000FD155B13949022008704CF25032BDE87C
S3150001061038403749002015F0D9B9F3F79FF9312051
S3150001062021E0F3F79BF9002D0CBF312000201AE0E1
S31500010630F3F794F910F09CFA28482E4900780978C6
S31500010640884204D2BDE834400021012082E74020DF
S3150001065009E0FFF70BFF03E0F3F780F9002002E062
S31500010660F3F77CF98D20BDE832400BF0E9BABDE81D
S315000106703440B42145E01D480078022800D0704777
S3150001068080B51D480078012807D0032810D11B48E2
S315000106900078022818BF7C280AD11549002015F0D8
S315000106A0D4F9F3F75BF9BDE8024000200BF0C8BAB4
S315000106B001BD38B5F1F74FFC05460C48007800241A
S315000106C010B9F2F767FD04462846F1F74AFC1CB15A
S315000106D0BDE83140F1F7D6B831BD00004BFE03202D
S315000106E088FD0320C0E10320F1E3032054FE03202B
S315000106F0AF050100F4E3032052FE032053FE03205D
S31500010700E9210FF20800F0F773BF00006D61632D58
S315000107107068792E630000000C3014F0D8BA38B531
S315000107200D46044689B2FFF74EFD010005D1A9B277
S315000107302046BDE8344014F077BA32BD70B50C4698
S3150001074084B000F10C05237E627EA17E284615F059
S3150001075042FA684604F10C010C22FAF707F96946D8
S31500010760284614F0EDFF211D284600F08CF90600FD
S3150001077003D1284615F066FA0646300005D10FF278
S315000107801C11284614F087FF0646300003D128467F
S3150001079015F0A8F906462168284600F006F8304605
S315000107A004B070BD0C3015F096B970B58AB0044628
S315000107B00D4668460FF2C0012422FAF7E7F805B99B
S315000107C06D46002601E0010005D135F81610F2B29A
S315000107D0204615F0BAF9010006D105EB4600F2B242
S315000107E0C188204615F0BAF9010007D105EBC6000C
S315000107F000F10C01F2B2204615F0C9F9761C032E60
S31500010800E1DB0AB070BD032ABCBF0C3015F09DB9FF
S3150001081001207047032ABCBF0C3015F09FB9012097
S315000108207047032ABCBF0C3015F0B1B901207047DF
S3150001083038B500F015F828B121462846BDE8344000
S3150001084015F0BCB9022032BD38B500F009F828B15F
S3150001085021462846BDE8344015F0A6B9022032BD2E
S3150001086000F10C050C46284615F032B90C3015F08E
S31500010870C1B9084613F006BFFFFFFFFFFFFFFFFFE9
S31500010880FFFFFFFF00000000000000000000000065
S315000108900000000000000000000000000000020847
S315000108A00000000010B5144C207858B9134801888F
S315000108B008237F22201D00F069F8201D00F011F8A1
S315000108C00120207010BD10B50B4C01460822201DD9
S315000108D0F0F710FE201D00F004F80120207010BD75
S315000108E0074880B5014608220648F0F703FEBDE831
S315000108F00140F3F7ABB90000B4F60320366D0300EF
S31500010900B8F60320C0F6032038B50C4611461A4640
S315000109107F2908BF002141F2F0139C4218D15449A6
S315000109200B6849680024D5B27DB30355641C1B0AC4
S31500010930521EE4B2042CF6D3E4B2082C25D2D3B26B
S31500010940002B1FBF0155090A521E641CF4D131BD8B
S3150001095004F47045C4F30B03B5F5805F11FB02F196
S3150001096008BF43F07E630BD0B5F5005F1CBF04F4EE
S315000109707044B4F5405F08D143F07C6343F401133E
S31500010980C918BDE83840F0F7B5BD31BD70B51E00D8
S31500010990044615461BD04BF23460814211D1092E13
S315000109A028BF082633467F2241F202012046FFF77F
S315000109B0ABFF32462F492046F0F705FE38B941F222
S315000109C0F01133462A462046BDE870409CE770BDCB
S315000109D02DE9F84307460024F807884615466FF0C7
S315000109E00F06DFF8949002D5652100F049F8E80773
S315000109F002D5662100F044F807F47041B1F5805F35
S31500010A00C7F30B000CD140F07E64B4F17E6F26462D
S31500010A1004D32819401E1949884210D36B210CE0D2
S31500010A20B1F5005F18BFB1F5405F05D140F07C64B8
S31500010A3044F40114264602E0722100F021F8002751
S31500010A4006E0F05DFF2802D07C2100F019F87F1C3A
S31500010A50AF42F6D36A084146204601F087F828B12D
S31500010A604846BDE8F4438521F0F7C2BDBDE8F183F0
S31500010A70F081E00FD0580300C45803000008E00FCE
S31500010A804846F0F7B5BD70B50D4682B004462878E4
S31500010A9058B90021204614F0DBFA0021204614F053
S31500010AA02FFB0021204614F033FB2878002814BFC1
S31500010AB00420287900F027F814BF287968798DF881
S31500010AC001002046FFF789FC06001AD12878002884
S31500010AD014BF0220A87900F016F814BFA879E879A6
S31500010AE08DF801002046FFF756FC060009D128784B
S31500010AF038B16988204614F0B7FA0121204614F06E
S31500010B00A7FA304676BD8DF8000069462878002898
S31500010B1070470C3014F0F4BA0C3014F003BB0846DD
S31500010B2014F03EBE00207047012070470020704738
