S01600007468726561642D746573742D6170702E7333370B
S3150000000028580020316D0300CD360000D969030061
S31500000010A70B0000000000000000FFFF54000000D6
S3150000002004180F000000000000000000000000009F
S3150000003000000000000000000000000000000000BA
S315000000400000000000000000000000009300000017
S315000000500000000028580020316D0300CD36000056
S31500000060D9690300A70A0A010002000004180FACB0
S3150000007000269300000000000000000000000000C1
S31500000080000000000000000000000000000000006A
S31500000090000000000000000000000000FFFFFFFF5E
S315000000A0FFFFFFFFFFFFFFFF00E00300000000006F
S315000000B000000000FFFFFFFFFFFFFFFF1000000032
S315000000C0000000000000000000000000000000002A
S315000000D0000000000000000000000000107E00206C
S315000000E0107E0020285800200CC40300B8740300BA
S315000000F050490020401F00200000040000000000BE
S3150000020028580020316D0300CD360000D96903005F
S31500000210E1690300DD690300E5690300F169030094
S31500000220F1690300F1690300F1690300F169030054
S31500000230E9690300F1690300F1690300B92B0000C5
S3150000024049800000DD0D0100211C0000390A010073
S315000002503D0E0100E30D0100E50D0100DF0D01007B
S31500000260E9960200A77300000B7500000B5500000D
S31500000270F1690300F16903001B050000F169030041
S31500000280F1690300C5730000F1690300F169030019
S31500000290F1690300F1690300F1690300F1690300E4
S315000002A0F1690300F1690300F16903003F0E0100E3
S315000002B0E10D01007B770000770E0100F169030074
S315000002C001710300F1690300F1690300F16903009C
S315000002D0F1690300F1690300F1690300F1690300A4
S315000002E07149724A01E021B1491E1369DB07FAD44C
S315000002F001B9BAE0506001201060106910F0060FD5
S3150000030005D0410700D5B3E0800700D5B3E0002053
S315000003107047F0B513460022002936D0624C634D73
S315000003208BB98B4231D250F8046BEE605B1C082609
S315000003302E60264601E036B3761E2F69FF07FAD4F3
S31500000340002EEED11FE0EFF3108672B600230EE00A
S315000003502F6907F01907102F08BF2F602F693F0775
S31500000360F6D550F8047BEF605B1C10272F608B429C
S31500000370F4D306B962B6264601E026B1761E286990
S31500000380C007FAD40EB96FF002021046F0BD2DE98F
S31500000390F84F474F0D4639680446002041F00101E9
S315000003A09B4639604FEA92088146AA4602E0B1446C
S315000003B00AEB860AC14517D204EB89063046FFF7D9
S315000003C08FFF010022D1C6F30A00C0F5006086083F
S315000003D0A8EB0900B04238BF06465A463146504699
S315000003E0FFF797FF0100E2D021682A68914209D001
S315000003F02046FFF775FF010004D15A460121284621
S31500000400FFF787FF3968490849003960BDE8F28F70
S315000004102749254A0B6843F001030B6088600120D9
S3150000042048604869400704D50868400840000860ED
S315000004301EE04869800704D5086840084000086047
S3150000044019E00220486001E022B1521E4869C00747
S31500000450FAD422B9086840084000086005E0086838
S31500000460400840000860002070476FF002007047A7
S315000004704FF0FF3070476FF001007047002386E7AA
S315000004800B48016841F00101016046F21A31C1646E
S315000004904FF4807141604169C907FCD40021C164F1
S315000004A00020704700000000809698000C000E4067
S315000004B008000E40072803D20FF2EC01085C7047D3
S315000004C0FF207047072803D20FF2E401085C70474B
S315000004D0FF20704738B504462D4800EB8105A87803
S315000004E00009FFF7E7FF2071A87800F00F00FFF77B
S315000004F0E9FF6071FF2814BF01200020E870214643
S31500000500E878A071287860706878224DA070284637
S3150000051000F0A1F80120A86031BD10B50FF27C01F2
S3150000052084B01CC968461CC019481B4A817BD36825
S3150000053014682340DB072AD5032928D2126900EB69
S31500000540810400EB4103E4781CB114B2002C48BFCF
S3150000055000229A820122C37B02FA01F11943C17378
S31500000560417B91B10021437BCB40DB0708D58173EA
S315000005708A40437B5A4042736846FFF7ABFF1FBD74
S31500000580491CC9B20329EED31FBD032181731FBDC8
S31500000590D461002000200040382000400000000008
S315000005A000FF000000000000E07B7C65466C6D00EB
S315000005B0FF7B7C65466C6D00890001EB401000F105
S315000005C084400260704730B5002A446BDFF834512E
S315000005D01ABF1022DFF83031DFF830312340002413
S315000005E0A84237D1DFF8280151B101290CD00229E0
S315000005F01ED003290CD0062915D0812918D023E056
S3150000060001680468006816E001680468006802E092
S31500000610416844684068090C01F4FE41C4F3034490
S315000006202143000C0CE08168806801F00F0107E0AF
S3150000063041684468406801F4FE4104F00F04214318
S3150000064000F0F00040EA010404FA02F0DFF8C410FA
S315000006501843086030BD38B504460D460220A06038
S315000006600022A9782046FFF7AEFF287969786B79D2
S31500000670020242EA016242EA0342EB7842EAC3021C
S31500000680EB790BB142F000522B7A0BB142F0040227
S31500000690AB790BB142F002026B7A0BB142F0010268
S315000006A0AB78F32806D1180004D10429BCBF042076
S315000006B060F31B6218064CBF42F0E00042EA4310AA
S315000006C02061154960690840A9780A0644BF21F0EF
S315000006D080010843297840EA4140E97A09B140F4AB
S315000006E0804060610221AA7A2046FFF765FF2879DB
S315000006F0F32804F13000BDE838400CBF0122002287
S31500000700102159E700200040FFFF00800080FFFF16
S315000007101082E00F34200040F8BFE1FF42DE704750
S3150000072038B504460D4600F02BFC01F094FA01F0B2
S315000007309FFA2946204601F0A1FA2B4622460FF2DF
S31500000740CC11012001F013FC29462046BDE83440B7
S31500000750E4E765482DE9F047644D01682E1D4FF426
S3150000076020687165016AB16561490A68F265496880
S315000007703166416A7166816AB166C16AF166016B6A
S315000007803167806B706796F8340040074CBFF46B96
S31500000790B46B01F0ACFC0022F2648442554A014677
S315000007A024BFA2F1200AA2452746316505F1900330
S315000007B0DFF844C1DFF844E118D3A0693064E46986
S315000007C07464746DC4F30804062C13D1704511D3F8
S315000007D060450FD200884DF64264A0420AD13068C7
S315000007E0586040F201787068986003E0002737642B
S315000007F0776407464248814202D2014600E0091D5D
S315000008000846904203D20C68B4F1CD3FF7D03D497B
S31500000810081AB0640021002005EB8004401C06285D
S31500000820E167F9D3002003E0C0B205EB8004E1677D
S31500000830974223D252F8041D7145F9D36145F7D288
S31500000840CC07F5D5002405EB8409D9F87C908945B9
S3150000085002D0641C062CF6D3062CE9D1002814BF5E
S31500000860401E0520E0E7B16F002405EB8402641CFE
S31500000870D2F88070D767052CF7D319600146481E59
S31500000880C9B20029EFD1706DC0F30800032810D05B
S31500000890042811D0052812D0062813D00C2817D00A
S315000008A0122818D118480068800719D540F2025856
S315000008B016E040F6012813E040F6022810E040F664
S315000008C003280DE0B8F5206F0AD140F6042807E0AA
S315000008D040F6052804E018B1322838BF40F607284C
S315000008E04046BDE8F087000004ED00E0000000206F
S315000008F000E300E028580020B8740300B4040000A8
S315000009009C000020285800201C2005400D0A5B4151
S3150000091053534552543A25703A25645D0D0A00003A
S3150000092080B5002300931346012201F045FC01BD6A
S3150000093000F074BE00F072BE10B54C00014600F027
S315000009404DFD224601F017FCA04201D0002010BD4B
S31500000950012010BD80B500F041FD01F092FC00B110
S315000009600120C0B202BDDFF85C0B407D00B1012062
S315000009707047DFF8502B117B01B9704780B50146EF
S31500000980106A01F0D4FC20B1BDE8044040F27111B8
S31500000990ECE201BD10B5DFF82C4B627D010018BFFB
S315000009A0012102B101229142607519D068B16FF040
S315000009B07F00FFF7DEFF01F015FDC00510D5206AA8
S315000009C0BDE81040012101F043BEDFF8CC4A94F99E
S315000009D00C0000F0C1FD207ABDE8104000F019BD02
S315000009E010BDDFF8E01A497D01F0FE010843D1E7AA
S315000009F080B500F0F3FC01F0B7FB00F0030003281C
S31500000A0001D1012002BD002002BD80B5B0F5004F26
S31500000A1007D100F0CCFDDFF8C00A00F0C8FCBDF835
S31500000A200000DFF8741AC883002002BD2DE9F04FDC
S31500000A30440900F01F050027DFF8F08A00E07F1C5C
S31500000A4098F80660F8B2B04236D2D8F80800FFB27D
S31500000A5050F827004FF0000C01E00CF1010CC67EA7
S31500000A605FFA8CFEB645EAD2D0F81CE05FFA8CFC41
S31500000A70142616FB0CF6B6449EF8086006F0070628
S31500000A80A642EAD19EF80960B542E6DB9EF801B0BF
S31500000A909EF8009006EB0B0AAAEB090AAA45DCDBD6
S31500000AA011B1AC1B4C440C7012B19EF808101170B9
S31500000AB01BB1C3F800E000E00020BDE8F08F40095C
S31500000AC018BF40F01800704710B5DFF8844A206A56
S31500000AD001F0D7FB0246206ABDE81040002101F074
S31500000AE0ECBB0B38102834BFDFF8440ADFF8640A81
S31500000AF0006870473EB568460021002200230EC0FC
S31500000B00DFF8940901788DF80010817A0A0018BF81
S31500000B10022914D10079DFF8385A00F0BBF80446F0
S31500000B2000F00EF858B1286A0122002101F01EFBE0
S31500000B3000F006F818B140F25B2100F066FB37BD05
S31500000B40286A6A46214601F050BB2DE9F041044669
S31500000B5004F01F001B2886B034D2002000906B469C
S31500000B60002200212046FFF761FF07002AD0204619
S31500000B70FFF7B7FF5FEA000824D0DFF84869DFF81F
S31500000B80B459F06B804515D001A84146062201F004
S31500000B9065FD306AC6F83C8001A901F00FFC88B9F2
S31500000BA0306A03A901F018FCB5F91C10306A01F08F
S31500000BB0E0FB38B90098B06277620098002818BF49
S31500000BC0C06801E08A200EE0F06229798C421CBFE1
S31500000BD02C71FFF78FFF96F90D00C101306A09B23B
S31500000BE001F02CFF002006B0BDE8F081DFF84409D3
S31500000BF000797047DFF83C09B0F91C00002854BFA3
S31500000C0005216FF0040108180A2190FBF1F040B2AB
S31500000C1070470A2110FB01F0FFE7F8B500F5D7721F
S31500000C2040F277239A4201D38B20F2BDDFF8944835
S31500000C30DFF80059A26A0A23002A1EBFAE7F06F01B
S31500000C40C006802E12D0A67B86B992F9026016FBEA
S31500000C5003F7B842B8BF16FB03F007DB92F903208F
S31500000C6012FB03F68642B8BF12FB03F0217B61B18B
S31500000C700146206A01F07DFB18B140F2B92100F06F
S31500000C80C4FA206A01F088FB01E010FB03F0A88398
S31500000C900020F2BD38B50446FFF723FF90B10023CC
S31500000CA0002200212046FFF7C1FE58B104F01F05BF
S31500000CB01B2D07D22046FFF702FF18B90B2D01DBCB
S31500000CC0284632BDFF2032BD7047C0B2704710F1D2
S31500000CD0630F01DA0020704710F1240F01DBFF20BB
S31500000CE0704764300002411100EB91608004000EF1
S31500000CF0704770B5DFF8CC47DFF8085A002020644B
S31500000D00687828B101F09EFE012818BF032801D19A
S31500000D10002070BDE16ADFF8343ADFF818280029B0
S31500000D201FBFA66A3669002E022817D12364906970
S31500000D3000F5FA709061E07C18B100200021642271
S31500000D4003E0E87829794FF4A0722070A2806170E0
S31500000D50A878A0708020E080002030E0DFF8F0590D
S31500000D609069AE4213D1DFF8EC39236400F57A704E
S31500000D709061E07C88B90879207001228B78087927
S31500000D809A40101891F903201018401E0CE02364B5
S31500000D9000F5FA709061E07C18B100202080642094
S31500000DA005E0487820708878607008780001A08097
S31500000DB04879A07008890001E080C8880001A06019
S31500000DC000F0FBFBE07094F90200010048BF4042CE
S31500000DD0C0B270BD70B50446DFF8E866257896F9AE
S31500000DE0140008B18C2070BDFFF783FFB075DFF8E3
S31500000DF01429DFF8400741780174690101F5807113
S31500000E0081619379716C002BB37B1DBFAD1EEDB272
S31500000E1021F0020141F0020173B9127862B16278E1
S31500000E20920609D56FF00102327541F0010182691F
S31500000E3002F50872826104E049084FF0FF3049006C
S31500000E4030757164032000F001F96A1C306A4FF4B2
S31500000E50807392B2214601F01DFE691C884203DAB6
S31500000E6040F21B4100F0D1F9002070BD00000000E7
S31500000E70F8B5DFF8505695F914100024091D042919
S31500000E800FD8DFE801F0080E10100300FFF7A2FFED
S31500000E90040008D0F2BD2C75286A01F06BF98D208C
S31500000EA0F2BD8C20F2BD01F075FBE8B1286CDFF8CD
S31500000EB09C18884218D1A87DB0B1DFF8440A0068B2
S31500000EC0002811D5DFF83C0AC168C160012200681C
S31500000ED000F00F0002FA00F0401E014204D100F0BB
S31500000EE0B3FB642001F0F2FD01F034FE064695F9ED
S31500000EF0140010F1010F1CBF95F9140010F1020F38
S31500000F0029D195F91400DFF82C764042287501F0B6
S31500000F1027FE7862296C387949B9FFF7BBFE01468E
S31500000F206A6C286A07F1100301F056F90BE0FFF727
S31500000F30B1FE07F11001009101466A6C286AD5F8E6
S31500000F4040C02B46E04760B1002028758C244FF046
S31500000F50FF30786202E0002028758D24286A01F0AF
S31500000F6009F9304601F033FE2046F2BDDFF8140AD7
S31500000F70FFF7D6BB2046BDE8104001F028BE0000B2
S31500000F80F8B501F0E7FDDFF810550446A87A012808
S31500000F9003D1204601F01BFEF1BDDFF8EC19DFF8A6
S31500000FA02465DFF8E079402008600122306A0121DB
S31500000FB001F0DCF8DFF8D4194FF400100860694638
S31500000FC00FF2840000680090306A01F02BFD18B122
S31500000FD040F2C74100F006FE02208DF80000694687
S31500000FE0306A01F0FCFC18B140F2C94100F0FAFD8C
S31500000FF0306A01F0DDF80021002001F047FA00F028
S315000010000DFB0120A87296F91400001D072810D8C0
S31500001010DFE800F0130F0707040B0B0B01F06BFE64
S315000010200BE06FF00300307507E0892000F041FB0C
S3150000103003E040F2ED4100F0D5FD204601F0C7FD8A
S3150000104001F00EFFF1BD0000040100002DE9F04D96
S31500001050DFF844540446A87AA04282B063D00FF267
S31500001060CC01DFF82C690968DFF81889DFF85474B9
S31500001070DFF818A9009103284FF4001B4FD8DFE8CA
S3150000108000F047023E2B01F0F4FE386A694601F093
S31500001090C9FC18B140F20A5100F04AF802208DF856
S315000010A000006946386A01F09AFC18B140F20C510A
S315000010B000F03EF86879002814BF00220222386A40
S315000010C0022101F03DFF18B140F2115100F030F855
S315000010D00320032CA87218D0CAF800B00220A87208
S315000010E02879FFF7D7FD0146386A002201F07DF81E
S315000010F018B140F2215100F01BF8022C13D0002C3D
S3150000110018BF032C0FD10020A872C6F800B00AE061
S31500001110022C08D1CAF800B00220A87203E040F2FF
S31500001120375100F005F8BDE8F38D00000402000019
S315000011304046FFF7F5BA000010B5032804460ED85E
S31500001140DFE800F009020909FFF71AFFBDE81040C1
S31500001150002000F0C7BB012000F0C4FBE1E1BDE8C0
S31500001160104040F2555101E780B500F00FF804D564
S3150000117000210175006A00F0FDFFDFF8340A407AAD
S31500001180012802D1BDE80140FAE601BDDFF8240AD4
S3150000119090F9141000297047DFF8140A407A704756
S315000011A080B5032801DB012002BDDFF8041A48726E
S315000011B0897A884218BFFFF7BFFF002002BD2DE9DC
S315000011C07C4FDFF8F06903EA010BD6E9068929EAC4
S315000011D0010528EA000402EA000A45EA0B0544EA8A
S315000011E00A044D4508BF44450DD0CDE9002302460B
S315000011F0306A0B4601F018FC18B140F27D5100F040
S3150000120004F8C6E90645BDE8738F0FF6E010FFF750
S3150000121087BA38B5AB4D0446287BE8B1200018BF25
S31500001220DFF8942904D1A87C08B1402200E000220E
S315000012300023DFF884090021FFF7C1FF002C14BF4B
S3150000124008220022286A082101F07AFE20B1BDE8B2
S31500001250344040F2B95189E631BDF8B50446022C56
S315000012600FF6881503DB40F2E25100F0A5F8954E23
S31500001270307B002840F09780874FB87A012803D04A
S315000012804FF4BD6100F098F8002107F1280000F046
S315000012905BFF306218B940F2EB5100F08DF8306A0E
S315000012A0052101F05AFA18B140F2EE5100F084F827
S315000012B0306A0FF64C1101F055FE18B140F2EF51AD
S315000012C000F07AF8306A01F081FE18B14FF4BE6181
S315000012D000F072F84FF0FF30DFF8E02806230146F1
S315000012E0FFF76DFF306A4FF0011100F0F8FF18B1FB
S315000012F040F2056100F060F8306A4FF48032002158
S3150000130000F0DBFF306A09224FF0FF3101F018FED2
S3150000131018B140F20C6100F04FF80120307302233F
S31500001320DFF89C0800F043F8BDF80000C0054CBF8C
S315000013300020BDF80000707301F02CF9FFF769FF7B
S31500001340F88BFFF762FB01F0C1FE00F081F83879F7
S31500001350FFF7FBFB18B140F21F6100F02DF8F8799A
S3150000136000F040F8387A00F054F8307C00F082F84B
S31500001370787900F0C7F800F020F900F0EDF8B07CBD
S3150000138000F0ECFAB7F91C00FFF747FC388C00F0C8
S3150000139085F8788C00F0A2F8B87900F0CDF8601ED8
S315000013A08041C00FB8722046FFF7C6FEF1BD018826
S315000013B07F22684601F0FEBE2846FFF7B1B980B528
S315000013C000F00CF8012100F013FF10F5007F02D1A8
S315000013D06FF07F0002BD8005001602BDDFF8D4075E
S315000013E0006A704710B504463648017B51B1611E4C
S315000013F08941006AC90F01F03BFE18B140F25A61FB
S31500001400FFF703FF2000DFF8A81718BF0120C871F7
S3150000141010BDF8B5044601F09DFB05461E48294E51
S315000014200472377BFFF79FFA00F0010080F001009D
S31500001430074204D0306A84F0010101F009F9284618
S31500001440BDE8F24001F0C3BBDFF86407007A7047DD
S315000014501C48017B01B9704780B5006ADFF8641744
S31500001460002201F0F2FD20B1BDE8044040F28561A2
S315000014707CE501BDDFF83C27117B107401B970478C
S3150000148080B50146106A01F0E7FD20B1BDE80440D1
S315000014904FF4D2616AE501BDC85B00202549DFF83B
S315000014A014370884197B01B9704780B50146186A5C
S315000014B0002201F0C3FD20B1BDE8044040F2A16165
S315000014C054E501BD48610020DFF8E406008C704752
S315000014D0DFF8DC06408C7047F2BD03001549DFF8E3
S315000014E0D4364884197B01B9704780B50146186A1D
S315000014F0002201F09CFD20B1BDE8044040F2B76136
S3150000150034E501BDDFF8A8164A79824200D170475A
S3150000151010B58C7A4871012C02D0FFF731FD00E03E
S3150000152010BD2046BDE8104090E500009CB80300C1
S315000015304C5A0020C85B002010B50446FFF74EFF4A
S31500001540214601F0BDFEDFF86806847110BD00007B
S3150000155048610020505A002038B504467F2C0CD133
S3150000156000F025F8DFF86006FFF721FFBDF8000060
S315000015707E24C00558BFBDF8004001F0EBFA0546D1
S31500001580FFF7F1F960B960B27E2805D1DFF82416BD
S31500001590896A09B191F904007E28B8BFFFF7E9F915
S315000015A0DFF80C060473284601F011FB31BD4FF637
S315000015B0FF70ADF8000002237047DFF8F40590F9DC
S315000015C00C007E2807D1DFF8EC05806A08B97F2079
S315000015D0704790F90400704710B500F003FF8004CF
S315000015E01AD500F02BF800F0FDFEC0044CBF032016
S315000015F00120002100F06AFF00F0F4FE00F0FF0079
S315000016004FF47A7111FB00F104F14800BDE8104077
S31500001610DFF8B825FFF784B9BDE8104010B500F033
S315000016200DF804F1480000F0D0FDFFF7E1F920B90C
S31500001630BDE81040002100F049BF10BDDFF8744539
S3150000164004F1600000F0C1BD80B500F0CBFE40059E
S31500001650BDE804404CBF03200120002100F016BF66
S3150000166010B5DFF8504594F9140003280DD100F0A9
S3150000167030F9DFF83C154FF0FF3048620022216B4D
S31500001680BDE81040402001F0DABA10BD38B5044676
S31500001690FFF7C4FFDFF81C5501F073FA686314B155
S315000016A001F0E9F901E000206874BDE8314001F07D
S315000016B022BB38B50446DFF8F814DFF8F8544FF0CB
S315000016C0FF30486201F05DFA686395F9140001285D
S315000016D002DABDE831407FE7A87D08B1686BA863F0
S315000016E000202875286A00F045FDA87B10B101206E
S315000016F0E87331BD2046BDE838400022002101F0E4
S315000017009EBA0000845E002010B500F043FFDFF8AB
S31500001710A44498B1FFF76CF980B104F1480000F0D9
S3150000172054FD00F0F8FE002100F0D0FEDFF8A02402
S3150000173042F2107104F16000FFF7F2F8A07C18B1D4
S31500001740BDE8104000F06BBA10BD0000DF210000BC
S315000017501C1C0000E52100002DE9F043DFF854448D
S315000017600FF28849206A89B005AA022101F095F98D
S31500001770050003D140F6E70100F0A8F89DF8140033
S31500001780DFF82C64BDF8168007281CBF7079002886
S3150000179019D1B8F1060F16DB08F108008B2812D212
S315000017A0002000904346DFF82C74206A3A4629460A
S315000017B001F07BF9404503D04FF4106100F086F844
S315000017C03878000602D5FFF707FF7CE001208DF888
S315000017D00800CDF804806A46206A294601F061F9BE
S315000017E018B140F6171100F071F8787800F007008C
S315000017F002281ED1FFF712FF94F91400032808BF30
S31500001800B8F1060F11D19DF80D0070B17878000976
S3150000181000F0010500F05DF84FF0FF3070622A46D7
S3150000182000218F2001F00BFA4DE0F07900284AD113
S3150000183005E09DF80D0010B10020FFF711FFF079CB
S315000018409DF80D10084203D040F63F1100F03EF817
S31500001850F07958B17878800608D5307A30B1206AA8
S3150000186000F0F9FE30B1FFF7B7FE03E0FFF7D6FE52
S31500001870002060743878401C404503D040F65F1164
S3150000188000F024F807EB080530792870002068700E
S315000018909DF80E00A87095F90200FFF718FAE87097
S315000018A008F10801FF202871C9B20098000C687180
S315000018B00098000AA8710098E8713846627C01F029
S315000018C003FD0020607409B0BDE8F0834846FEF7CA
S315000018D027BF00202075206A00F04CBC0FF21430A0
S315000018E0FEF71EBFDFF8C812897A012907D1DFF893
S315000018F0E8120B7898421CBF087001F0BCBA70471A
S31500001900044008404C50084010B5DFF8A402446A71
S31500001910002C14D401F024F9001B40F2E93180B206
S3150000192088420CD3A34890F91400032803D1BDE8DC
S315000019301040002094E6BDE810408920B9E610BDAD
S3150000194010B540B901F098F801F004F90446FFF724
S31500001950DBFFFFF70FBBBDE81040D5E738B5954D67
S315000019600446287B60B1200002D100F013FE08B1C6
S31500001970402200E00022002340200021FFF71FFC48
S31500001980AC7431BDEC1B00000840084018600846E6
S31500001990186008442DE9F04780461446600688B072
S315000019A01D4648BF002002D4200602D50120FFF7BD
S315000019B0ABFEA0037F4E2DD50020707469464046CD
S315000019C001F06BFB30BB9DF80800844F02280DD157
S315000019D0BDF8000001F0CCFDFF2815D0396831F8BC
S315000019E010004FF4567108420ED113E0032811D1AE
S315000019F0684601F0DCFDFF2806D0396831F8100092
S31500001A004FF45671084205D0306A01F043FB08B91D
S31500001A1001207074600410D500F0BCFD68B1FEF7BB
S31500001A20E7FF50B100F083FD074600F074FD8742E2
S31500001A3003D00021384600F049FD200744BF404648
S31500001A40FFF78AFEE00548BFFFF7C6FD4FF41850C2
S31500001A50044218BFFFF7E2FDE00244BF0120FFF792
S31500001A6015FE600244BF0120FFF710FEE00144BFEF
S31500001A700020FFF70BFE96F914000FF270170128ED
S31500001A8069DB306ADFF8289121034FF0FF3A33D53E
S31500001A9096F9141001295EDB96F9141003295ADA17
S31500001AA000218DF8181001218DF8141003A900F0FB
S31500001AB096FC0398306301F064F87063B07D08B15A
S31500001AC0706BB06396F91400012804D002280ED179
S31500001AD0032030753FE000203075306A00F04AFB85
S31500001AE0C9F824A0B07BA8B9316B002218E04FF4E6
S31500001AF0016100F077F82EE014F0845F13D0002126
S31500001B00317500F037FB042000F0B7FFC9F824A0B8
S31500001B10B07B10B10120F0731DE0002200218D2062
S31500001B2001F08DF817E0A00248BF892002D4A00179
S31500001B3003D58820FFF7BDFD0DE0600048BFFFF725
S31500001B4083FDA00007D526480068400403D4002181
S31500001B50002000F09BFCA00744BF4046FFF780FD35
S31500001B60002C04D5FFF75AFD4046FFF779FD05F036
S31500001B7002010023994211D0404600F0F3FA0228F0
S31500001B8002D0032802D005E0892000E08D20FFF76F
S31500001B9090FD03E040F67B0100F024F805F0040117
S31500001BA00023994218BF01F039FD08B0BDE8F0875F
S31500001BB0C85B002048610020406700600A00FA9375
S31500001BC0F4BD0300B0790020F6BD03003109000022
S31500001BD03509000070740020F17D0020885A00202D
S31500001BE0044008403846FEF79BBD00007068792E19
S31500001BF0630000006C69627261696C2E610000000E
S31500001C000000000001006003010101016400B6004C
S31500001C106400C000000000000B00000000007047D8
S31500001C2001F054BD80B501210C4801F0FDFD0421F1
S31500001C30072002F067F90A480A490B4A01600421A5
S31500001C401160022141620421084A1160816A41F053
S31500001C500201816201BD024802F0C6B90005080012
S31500001C60002005400108030080E200E000E100E0FA
S31500001C70602080F31188704702F088BA03460A464E
S31500001C8087A10420FFE70CB480B502AA00F031F862
S31500001C9001BC5DF80CFB00B589B001F0FDF8002130
S31500001CA007910691059104910391029101910246D3
S31500001CB07C49009100230FF200210120FFF7E3FF8A
S31500001CC07948C178437802780391816802918188C6
S31500001CD001918178009143200FF2E811FFF7D3FFBD
S31500001CE009B000BD724931F81020521C21F81020AD
S31500001CF070472DE9F04107466C480078A2B00C46C3
S31500001D009046002690B9380018BF012F0ED0042F38
S31500001D1018BF052F0AD0312F18BF332F06D0372F03
S31500001D201EBF3B2F4FF6FF718F4275D102F0B8F9F7
S31500001D30002871D0802202A9384600F076F8002CDF
S31500001D4068D007E08DF80400012201A9002000F008
S31500001D5077F8641C207801005CD0A0F130020A2AD2
S31500001D6005D20A2101FB0600A0F13006F1E7422860
S31500001D7018BF44280CD0462827D0572808D06228F8
S31500001D8036D0662821D06C281CD070281DD0D9E703
S31500001D90422807D158F8042B6946012002F03FFA81
S31500001DA001220DE0572858F8042B694604D101207A
S31500001DB002F035FA022203E0012002F030FA042292
S31500001DC06946C3E758F8046BC3E758F8041B46286E
S31500001DD007D10026885D00281EBF761CF6B2FF2EAE
S31500001DE0F8D1F2B2002000F02BF898B90026B0E73F
S31500001DF058F8047BB8B20028ABD002F08EFE054638
S31500001E00B8B202F072FE0146EAB2002000F018F8FD
S31500001E1000289ED000F038F822B0BDE8F0811228E4
S31500001E2004BF002003F081BB704710B5214C6160F0
S31500001E3001462270606802F039F9607010BD00003A
S31500001E40F8B515000C461B4E1CD0707831787368B7
S31500001E500F1AFFB2EDB2BD42B8BF2F463A46214631
S31500001E60184403F0C5FD707838187070ED1B3C44BB
S31500001E70E8B238B17068711C02F07BF90028E4D032
S31500001E800120F2BD0020F2BD10B50A4C6068611C4D
S31500001E9002F06FF908B1012010BD607010BD00009E
S31500001EA057460000B0790020DCAE0300F27D00202A
S31500001EB0FC740020087500204242387042424242BB
S31500001EC05742420042424257444200002DE9F04147
S31500001ED00125012818BF202894B004460F469046D5
S31500001EE01E4624D10AA80FF2A401242200F0C6FB44
S31500001EF068460AA9242200F0C1FB1020012C18BF55
S31500001F00202CADF82400ADF8260008D0022C18BF0E
S31500001F10212C04D0032C1CBF222C232C14D1012EDF
S31500001F200197ADF80C8004D14FF4805005E00120F4
S31500001F300BE0022E03D14FF44050ADF80A0069467B
S31500001F40204603F015FB0546E8B214B0BDE8F08163
S31500001F5080B503F0B0FBC0B202BD80B503F000FC53
S31500001F60C0B202BD80B503F0E7FCC0B202BD0CB43E
S31500001F7080B50A46014602AB034803F0F5FD02BCF4
S31500001F8000205DF80CFB0000E35800000000014053
S31500001F9000C2010000000010000000000000000068
S31500001FA0000000000000000000000000000000002B
S31500001FB0890001EB401000F1844002607047000088
S31500001FC010B50446FFF754FE4E484AF6E851016044
S31500001FD0C162016B01F00F01022913D14A4A0121A6
S31500001FE01160806B00F00300012818BF022809D198
S31500001FF000221C214548FFF7DBFF00220021444850
S31500002000FFF7D6FF200A0028424808BF24024FF2F5
S315000020100F0104804180BFF35F8FBFF34F8F3E48AF
S315000020203E4A016801F4E06111430160BFF34F8F3E
S3150000203000BFFDE780B5002000F009F830B9BDE823
S315000020400440E3210FF2EC00FEF76ABB01BD2DE967
S31500002050F042334C216842428D1815F01F0108D01A
S31500002060002802D44842054403E04842284400F1CF
S3150000207020052C48A5F12006A84224BF2A488642FE
S3150000208003D3EFF30880854201D300202DE000F052
S3150000209061FD81462548006810F0010718BF03F06E
S315000020A0E6FE206801468D4206D2A84224BFCD2115
S315000020B000F80119F9D206E02038002201E000F804
S315000020C0012B8842FBD32560304603F0D7FEE22081
S315000020D001E006F8010BAE42FBD30FB103F0A4FEFC
S315000020E0484600F074FD20682038BDE8F0820C48B0
S315000020F0006870470A480068203870470C487047E7
S315000021000000000008300E404040084060300E409D
S3150000211074300E40000000200CED00E00400FA05CB
S31500002120145D002050490020401F002094ED00E07F
S31500002130000000206D6963726F2D696E7465726EA2
S31500002140616C2E630000000038B504462148046027
S315000021500D46204600F0F4FA29462046BDE83440F4
S3150000216000F0BABA0120704704F0E2B808461146FA
S3150000217000F007BB70470846114604F08DBF0220E9
S3150000218070470020704700207047012070470020EC
S31500002190704710B50C4611461A46034620460D4CAC
S315000021A064682468A04710BD0A4840684068004734
S315000021B0084840688068004710B582B0049C0094C7
S315000021C0044C64686469A04716BD02494968896978
S315000021D0084700000C5F00200C3000F099B80C3066
S315000021E000F0A8B80C3000F0B7B80C3000F0ABBE69
S315000021F00C3004F0B5BF00001B67000087670000C5
S3150000220093670000BD670000D16700007F210000D2
S3150000221083210000872100008B2100008F21000010
S315000022200120704738B500F01BF800212561E160F8
S31500002230BDE8324004F097BF38B500F011F82169C7
S31500002240E26829400D0018BF01251143E16004F042
S315000022508AFF15B10020042134BD0020002134BDC1
S3150000226004460D4604F082BF38B5FFF7F9FF226930
S31500002270E1682A4021EA0205E56004F074FF284679
S3150000228032BD8069704770B582B005460C0006BF46
S315000022900FF25C00006820681646009006B9EE68EA
S315000022A031462846FFF7E0FF32466946284604F0E5
S315000022B092FA0CB10098206073BDF8B500F10C07D6
S315000022C00C4615463846FFF7ABFF022628B12A46CC
S315000022D021463846FFF7D7FF00263046F2BD80B5C7
S315000022E00C3001F00111FFF79DFF002002BD000038
S315000022F0FFFFFFFF38B504460D4604F04EF808B957
S31500002300022032BDA9B22046BDE8344000F05FBAD3
S3150000231038B50446154689B2FFF7ECFF010005D132
S3150000232029462046BDE8344004F05AB832BD0C3088
S3150000233004F059B970B500F00AF8010006D132462A
S3150000234029462046BDE8704004F092B870BD0446A8
S3150000235015461E4689B2CDE770B5FFF7F8FF0100B6
S3150000236006D1324629462046BDE8704004F041B801
S3150000237070BD7CB50D466946044600F02DF89DF803
S3150000238000102A46204604F0F5FE04F10C0601462C
S31500002390304604F093FA76BD30B583B069460446FC
S315000023A000F01AF804F10C05284604F0BDFA0246BE
S315000023B09DF80010204604F045FF3EBD38B50C469A
S315000023C000F10C050021284604F078FA214628463B
S315000023D0BDE8344004F065BA0C3004F09FBA0C3006
S315000023E003F049BE734840687047F8B50446714F1C
S315000023F071487E680025044201D00220F2BD24EA1D
S315000024000600C0037C6007D50021002000F03EF8DE
S315000024100021002000F05AF8786800F4804006F4A5
S315000024208041884205D0A00B00F0010000F0B5F80D
S3150000243005462846F2BD38B55E4CA578E078616859
S31500002440C9031CD405F0010100F00102114316D0A6
S31500002450E16841B1000706D5E16808208847E078C1
S3150000246000F0F700E070A06868B128070BD5A168F6
S3150000247008208847A07800F0F700A07003E0607895
S3150000248008B100206070BDE831408BE02DE9F041D5
S3150000249004460D4600F05EFB464F8046387801261E
S315000024A098B1BE78200009D1002E1CBFB86800285C
S315000024B004D0700602D5B96840208847BD60A642A0
S315000024C01CBFBC70FFF7B7FF00261EE02DE9F041E8
S315000024D004460D4600F03EFB364F8046387801260E
S315000024E098B1FE78200009D1002E1CBFF86800289C
S315000024F004D0700602D5F96840208847FD60A642E0
S315000025001CBFFC70FFF797FF0026404600F05FFBFC
S315000025103046BDE8F08127494A680978002029B18C
S31500002520510303D40120110548BF032070472149F8
S315000025300A780020002A1FBF012049681F4A11425D
S3150000254018BF0320704738B51A4D297888420446CB
S315000025501ED020000ED00121194801F065F9112086
S3150000256004F0D1FE18B9092004F0CDFE50B104F0F4
S31500002570ECFE07E000210020FFF7A8FF0021002065
S31500002580FFF784FF2C702046FEF743FE00F00AF8A2
S31500002590002032BD07480078704700B1022070471E
S315000025A0704700BF03480178002141700020FEF704
S315000025B018BA0000F0610020FFFC0FF800080800C0
S315000025C00025080070B50D4682B00446287858B933
S315000025D00021204604F0F8F90021204604F04AFACA
S315000025E00021204604F04EFA2878002814BF042063
S315000025F0287900F027F814BF287968798DF801004A
S31500002600204600F0EEF906001AD12878002814BFFB
S315000026100220A87900F016F814BFA879E8798DF899
S315000026200100204600F0BBF9060009D1287838B130
S315000026306988204604F0D4F90121204604F0C4F943
S31500002640304676BD8DF80000694628780028704728
S315000026500C3004F00FBA0C3004F01EBA62B38B07CC
S3150000266008D0521E11F8013B00F8013B00F024800F
S315000026708B07F6D1830740F0208000BF103A07D3BE
S3150000268030B4B1E83810103AA0E83810F9D230BCAE
S31500002690530724BFB1E80810A0E8081044BF51F85A
S315000026A0043B40F8043BD20724BF31F8022B20F844
S315000026B0022B44BF0B7803707047083A07D3B1E882
S315000026C00810083A40F8043B40F804CBF7D2530709
S315000026D0E4E700000120704710B5044603F0F7FC5C
S315000026E008B1002010BD204610BD70B50D0004468F
S315000026F014BF012600261F21304604F06FFE00207D
S31500002700606225621F21304604F068FE4FF6FF76B0
S31500002710002001E0401CC0B2E968884209D2A968DD
S31500002720182212FB00F21144C989B142F2DA0E00F6
S31500002730F0D13146204600F04AF8304670BD704769
S3150000274010B5044603F06FFDA06A0100DFF83012F1
S3150000275008BFDFF83002886010BD38B500F10C05FF
S315000027600C462846FFF7B6FF28B103F0E1FD012825
S3150000277001D0022032BD21462846BDE8344003F090
S31500002780A4BD10B50C4603F0B5FD1CB103F0D0FD99
S315000027900128FBD110BDF0B504467B48066883B01E
S315000027A00D466946204604F0B9F8B5F9122001270E
S315000027B047F6FF702479824207D09DF80010304614
S315000027C004F0D8FCA04238BF00273846FEBD2DE9EC
S315000027D0F04F85B04FF000098DF801900446684F20
S315000027E08DF800900D463868D7F804A00290CDF811
S315000027F004A0204600F0C1F88046266AD4F824B02A
S3150000280000F0EBF8002818BFD34505D1BBF1000F47
S3150000281002D0A8B240454BD0002E1CBFB06800289D
S3150000282001D0F06808B903209CE0CA4601E00AF12D
S31500002830010AF068824518D2B068182101FB0AF136
S315000028400144A8B2CA89904222BF088AAAB290421D
S31500002850EDD301208DF800008B462046FFF79BFF45
S315000028600028E4D001208DF8010003A9204604F0D9
S3150000287055F8204604F058F882469DF80100C0B18C
S31500002880217900F073F8386860B3B04223D17A68D2
S315000028900AB35A451FD1A9B2884506D0002320465F
S315000028A004F044F85FEA000912D1C4F824B0658048
S315000028B057E09DF8000048B1BBF912209DF80C10B6
S315000028C0A4F10C0004F056FC0146DAE7012049E0C9
S315000028D000F04BF83FE0016821B13268914208BF31
S315000028E0416800D0316800F045F881465FEA09008A
S315000028F004D1DBF8001000F03DF881465FEA0900DC
S315000029000FD100F06AF810B13E60C7F804B0C4F801
S3150000291024B0658001235A46A9B2204604F006F881
S3150000292081465FEA090005D1BA685946A4F10C0050
S31500002930904716E000F051F898B102983860019877
S315000029407860386808B100F014F800F00EF878687E
S3150000295038B100F00EF87A6800234146204603F0AD
S31500002960E5FF484605B0BDE8F08F5146204603F026
S31500002970C5BF0168204604F057BA4088704700007A
S31500002980145F00203F2700000C5F002001281CBFB9
S315000029900428022801D1012070470020704738B56D
S315000029A000F03CF840B16878FFF7F0FF20B12878D6
S315000029B069780843400701D5012032BD00F00DF8C3
S315000029C028B103F0B5FC400701D5022032BD2946E7
S315000029D02046BDE8344003F02BBF20467AE60C3093
S315000029E0DDE738B500F01AF838B16878FFF7CEFFA2
S315000029F000281CBF6878042801D1012032BDFFF7EA
S31500002A00ECFF28B103F094FC800701D5022032BD0B
S31500002A1029462046BDE8344003F032BF0D46044641
S31500002A202878B3E70C30DCE730B583B00C30DDE94D
S31500002A300645CDE9004503F0C4FB3EBD0C3004F06D
S31500002A40C7B900000020704738B51446FEF710FAE3
S31500002A5005466CB128000BD00A48007818B10A491F
S31500002A600120087004E000220021284600F0E7F863
S31500002A70284632BD70477047704704490870704752
S31500002A800000000056610020576100200E7E0020E5
S31500002A90012070470C3004F02EB90846114604F0A8
S31500002AA097B80846114604F0B5B870B50C461546F9
S31500002AB01E460C30FFF7ECFF38B1049B3246294620
S31500002AC02046BDE8704003F0B7BB70BD04F0F3BC10
S31500002AD010B504460521112000F0EAFF002200216E
S31500002AE0022001F0C1F81848184A01686FF3D32193
S31500002AF0016002EAC422016811430160012201213A
S31500002B00022001F0B1F8BDE810400421112000F0C8
S31500002B10CFBF0D4800680003C00D704738B50C489C
S31500002B200C4601884FF6FF75ADF8005002237F2250
S31500002B30684604F04BFDBDF80000A84202D0208094
S31500002B40012032BD002032BD30400E4000F80F009B
S31500002B50FABD0300EFF31180602181F311887047FD
S31500002B6080B504F0EBFD04F0F6FD80B202BD80B541
S31500002B7004F0E4FD04F0EFFDFA21B0FBF1F080B2C1
S31500002B8002BD80B504F0DAFDBDE8044004F0E3BD03
S31500002B9080B504F038FC074800214160001D04F0B0
S31500002BA063FD20B139210FF21400FDF7B9FD0020B5
S31500002BB002BD00003C75002000F008B873797374FC
S31500002BC0656D2D74696D65722E630000704780F324
S31500002BD01188704738B504466048614D002912BF18
S31500002BE000210178491C01700120012104F0B0FE8A
S31500002BF02878411C89B2032004F0AAFE200003D0E5
S31500002C00FFF7F0FB002808D5FFF7ECFB40054CBFAB
S31500002C10032001200021FFF739FC52484470284662
S31500002C20BDE8384001224FF47A71FFF70DBF80B539
S31500002C30FEF79AFABDE80240312004F0E1BF38B54C
S31500002C400446402C154606D1FFF7CCFB00F0802049
S31500002C50B0F1004F03D000210020FFF717FC002C35
S31500002C603AD0402C24D0882C18BF892C38D08C2CF4
S31500002C7038D08D2C2DD08F2C39D13B4800780428A4
S31500002C800FD155B13949022008704CF25032BDE8D7
S31500002C9038403749002005F08DB8FEF765FA312037
S31500002CA021E0FEF761FA002D0CBF312000201AE06A
S31500002CB0FEF75AFA05F003F928482E4900780978F4
S31500002CC0884204D2BDE834400021012082E740203A
S31500002CD009E0FFF7CFFE03E0FEF746FA002002E028
S31500002CE0FEF742FA8D20BDE8324004F089BFBDE808
S31500002CF03440B42145E01D480078022800D07047D2
S31500002D0080B51D480078012807D0032810D11B483C
S31500002D100078022818BF7C280AD11549002005F042
S31500002D2088F8FEF721FABDE80240002004F068BFEB
S31500002D3001BD38B5FFF70EFF05460C4800780024A4
S31500002D4010B9FDF707FE04462846FFF740FF1CB101
S31500002D50BDE8314000F062BC31BD0000087E0020B5
S31500002D603C7D0020845E0020F45F0020FC7D002076
S31500002D702F2C0000F85F0020097E00200A7E00202C
S31500002D80E9210FF20800FDF7CBBC00006D61632D51
S31500002D907068792E63000000890001EB401000F195
S31500002DA084400260704730B54C4887B00068040E16
S31500002DB0684605F087F88F2C10DA4948494C0168B7
S31500002DC041F0040202604FF05013002230255543B3
S31500002DD0521C6351062AF9D3016001E0902C06DAF1
S31500002DE041480168C909C90141F0200101609DF807
S31500002DF00100012804D13D48016841F00401016049
S31500002E0000220D213A48FFF7C7FF3A490120086022
S31500002E1003AC05F071F804F04AFC05F0D2F90FF2A4
S31500002E20D800D0E90023CDE9012301208DF8070061
S31500002E3001A805F053FA05F0BBFCFFF7A9FE0FF257
S31500002E40C0000FC884E80F0008208DF8180003A8FA
S31500002E5005F0BAFC07B030BD40F20160FFF7B0B82C
S31500002E6080B500210020FFF731FBBDE80140FFF7E8
S31500002E7097BBFFF796BB002818BF00F015BC00F003
S31500002E8014BC80B505F0EFFC01460FF284000C2956
S31500002E9038BF00EB810002BD10B505F0E4FC044626
S31500002EA005F0E5FCC0B208B9012C07D1072C11D8F2
S31500002EB0DFE804F004100608080A0C0E002010BD16
S31500002EC0092010BD022010BD032010BD0B2010BD2F
S31500002ED0062010BD44F0800010BD0000FC81E00F0C
S31500002EE0B0400E4000A000402C400E4064310E4021
S31500002EF054300E4010300E4000000000000000006C
S31500002F00F88D0300F08D0300008E03000000000022
S31500002F10554E4B004649420042544C004558540019
S31500002F20505752005744470020535700435253000E
S31500002F304653480042414400464C540042524F001A
S31500002F400C3003F0B3BB38B50D46044689B2FFF723
S31500002F503EFC010005D1A9B22046BDE8344003F08D
S31500002F6052BB32BD70B50C4684B000F10C05237E11
S31500002F70627EA17E284605F01CFD684604F10C0120
S31500002F800C22FFF76BFB6946284604F087F8211DE3
S31500002F902846FFF717FB060003D1284605F040FD3B
S31500002FA00646300005D10FF21C11284604F01FF822
S31500002FB00646300003D1284605F082FC0646216805
S31500002FC0284600F006F8304604B070BD0C3005F017
S31500002FD070BC70B58AB004460D4668460FF2C00153
S31500002FE02422FFF74BFB05B96D46002601E00100E0
S31500002FF005D135F81610F2B2204605F094FC010012
S3150000300006D105EB4600F2B2C188204605F094FCD5
S31500003010010007D105EBC60000F10C01F2B2204613
S3150000302005F0A3FC761C032EE1DB0AB070BD032A73
S31500003030BCBF0C3005F077BC01207047032ABCBF2B
S315000030400C3005F079BC01207047032ABCBF0C3058
S3150000305005F08BBC0120704738B500F015F828B193
S3150000306021462846BDE8344005F096BC022032BD14
S3150000307038B500F009F828B121462846BDE83440A5
S3150000308005F080BC022032BD00F10C050C46284636
S3150000309005F00CBC0C3005F09BBC084602F0B6BF30
S315000030A0FFFFFFFFFFFFFFFFFFFFFFFF0000000026
S315000030B0000000000000000000000000000000000A
S315000030C000000000000002080000000010B5144CCB
S315000030D0207858B91348018808237F22201D00F064
S315000030E069F8201D00F011F80120207010BD10B500
S315000030F00B4C01460822201D02F07AFC201D00F030
S3150000310004F80120207010BD074880B5014608224A
S31500003110064802F06DFCBDE80140FEF799B90000D3
S31500003120A4790020FCBD0300A8790020B079002016
S3150000313038B50C4611461A467F2908BF002141F2D0
S31500003140F0139C4218D155490B6849680024D5B242
S315000031507DB30355641C1B0A521EE4B2042CF6D33D
S31500003160E4B2082C25D2D3B2002B1FBF0155090AA1
S31500003170521E641CF4D131BD04F47045C4F30B0334
S31500003180B5F5805F11FB02F108BF43F07E630BD0FB
S31500003190B5F5005F1CBF04F47044B4F5405F08D178
S315000031A043F07C6343F40113C918BDE8384002F0CC
S315000031B01FBC31BD70B51E00044615461CD04BF22F
S315000031C03460814212D1092E28BF082633467F2259
S315000031D041F202012046FFF7ABFF32460FF2D8015B
S315000031E0204602F06EFC38B941F2F01133462A4609
S315000031F02046BDE870409BE770BD2DE9F8430746C1
S315000032000024F807884615466FF00F060FF29C0952
S3150000321002D5652100F046F8E80702D5662100F0E0
S3150000322041F807F47041B1F5805FC7F30B000CD18C
S3150000323040F07E64B4F17E6F264604D32819401E02
S315000032401749884210D36B210CE0B1F5005F18BF17
S31500003250B1F5405F05D140F07C6444F40114264684
S3150000326002E0722100F01EF8002706E0F05DFF285C
S3150000327002D07C2100F016F87F1CAF42F6D36A0814
S315000032804146204605F02CFC28B14846BDE8F443EB
S315000032908521FDF745BABDE8F1830000F081E00F16
S315000032A00008E00F4846FDF73BBA00006D66672D43
S315000032B0746F6B656E2E6300FFFFFFFFFFFFFFFF5E
S315000032C0084603F01BBF000070B50446A0480D4633
S315000032D00178164619B14188491C418070BD2046C7
S315000032E005F02BFC80B1FEF7AFF838B1A078002EC0
S315000032F014BF40F0010000F0FE00A07029462046F1
S31500003300BDE870402E2200E070BD70B504460D4643
S315000033101646601C00F072FF10F0070F1ABF41F648
S315000033204901884200260121002004F011FB207883
S31500003330411C89B2022004F00BFB32462946204686
S3150000334001F086FD18B1BDE8704005F0EDBE80487D
S315000033508188491C818070BD2DE9F04FA5B001F030
S31500003360C2FD7B4E814600257088A84600B1758057
S31500003370B188080003D00D2004F0EAFAB5805FEAB0
S31500003380090042D001F0B1FB040018BF2578601C8B
S3150000339000F034FF10F0070F1BBF41F649018842C9
S315000033A0C3464FF02E0B484601F0B7FB2018CBF171
S315000033B000010844A0F10801082202A802F018FB47
S315000033C002AFF878FDF780FC2946FDF77EFC8346C0
S315000033D097F902008DF804005E480078B0B1B06835
S315000033E0002812D004A8802106F070FB6B1CCDF8D3
S315000033F00080DBB20022494604A801F093FD9DF946
S315000034000420B368594604A898479EE0484606F04B
S315000034106BFC0028504D1ED00521484601F0CAFD20
S3150000342082460320FEF75EFC4C4F4D490AF007002A
S315000034303870FF20087084F801B09DF80400A07071
S315000034409DF80800E070484607F021F80328484632
S3150000345002D108F063F96AE007F009F800F0050008
S31500003460042807D03878032804D1484604F013FC12
S3150000347000285CD105F09DFE18B105F09AFE0128E2
S3150000348002D13878002860D1F268100004D00021FB
S3150000349048469047002858D12878032818BF0428A2
S315000034A005D0022821D12F480078C0071DD405F089
S315000034B080FE032819D1484607F0A1F8B0F5004F61
S315000034C013D1484607F0BEF82749098881420CD037
S315000034D0484606F0CCFF000707D4484606F0C7FF6B
S315000034E0400632D5387801282FD12878042804BF21
S315000034F03878012809D11D495FEACA6081F8008041
S3150000350003D504F0A0FA4FF00108387820B101285D
S315000035100AD0032804D00AE0484607F0A9FC06E0D2
S31500003520484608F00BFE02E0484608F055FE2878AB
S3150000353004280AD10D48007888F00101084204D019
S315000035400A490020087004F07EFA25B0BDE8F08F25
S31500003550E879002056610020CA790020097E002003
S315000035600A7E0020CE790020825D0020CD7D0020DD
S31500003570F8B5274D2E68040001D1FF20F2BDFFF7F4
S31500003580E9FA244F29683A7821F8124036F8021BE6
S31500003590A142FBD1FFF71BFB29683A78B01E401AFF
S315000035A04010C1B2914208BFFF20C0B2F2BD2DE962
S315000035B0F843194C174D26688146287806EBC00754
S315000035C0FFF7C8FA804608224946384602F010FA44
S315000035D0F88800E00836F188814202BF31883A88CF
S315000035E09142F7D171887A88914202BFB188BA8830
S315000035F09142EFD14046FFF7EAFA20682A78301A5E
S31500003600C010C1B2914208BFFF20C0B2BDE8F2832C
S315000036108C5A0020EC5F0020905A0020FDF754BA27
S3150000362070B5044643380FF2880508D0401E0128BD
S3150000363009D9801E01280ED9C01F31D02AE0BDE865
S3150000364070400AF082BB0AF058FB20B10AF07DFBFD
S315000036500028FBD170BD134E307808BB01203070B6
S3150000366000200AF0EBFB442C11D00CD3462C05D0DD
S315000036700DD3472C07D140F6010001E040F60200C9
S31500003680FEF79EFC03E075212846FDF749F8002069
S31500003690307070BD2846BDE870408721FDF740B800
S315000036A070BD0000EE7D00207047704700000000EE
S315000036B0656D6265722D626173652D636F6E6669F5
S315000036C06775726174696F6E2E6300000AF0FEBB47
S315000036D0890001EB401000F18440026070478900C8
S315000036E001EB401000F18440006870470122DFF8CA
S315000036F0A81610B5884232BF0022DFF8A01688420D
S3150000370001D2144600E002241021DFF89406FFF7E8
S31500003710DFFFDFF89C07016821F0807141EA046150
S31500003720016010BDDFF87C16DFF87C360A6802F00F
S315000037304072984238BF002204D3DFF878379842A7
S3150000374038BF0122086820F0407040EA0260086035
S31500003750704738B500F013F841F6713020600AF072
S31500003760FAFB002105E038B500F009F841F67132A0
S315000037702260FFF7D7FF0DB10020206031BDDFF8D2
S315000037803847256805B101257047C01C0F2801D2AE
S31500003790000770474FF070407047000038B5044688
S315000037A0002500F02FF9DFF8FC26DFF8901694428A
S315000037B008D0DFF8F426944206D0DFF8F0269442CB
S315000037C004D006E0086802E0486800E0886800F077
S315000037D00700401E03281BD8DFE800F002050C088E
S315000037E00AF0FBFB04E00AF0FEFB01E00AF0F8FB3E
S315000037F005460DE00AF0A2FBDFF8B4160968090ECB
S3150000380001F001010122491C02FA01F1B0FBF1F5B8
S31500003810284632BDDFF8A4164A68D20702D40A68E1
S315000038200242FCD17047000070B5020A0C4602F055
S315000038300F020021521E092ADFF88C5614D8DFE841
S3150000384002F005141313071619131C20DFF8505540
S31500003850C0F3043611B10846FFF7DCFF22463146B5
S315000038602846BDE8704033E770BD1035F0E73035C7
S315000038700121EDE738351021EAE740354FF4803174
S31500003880E6E7DFF84856E3E770B5DFF83416DFF809
S3150000389014260E68DFF81016DFF81446012510F41A
S315000038A078105DD0B0F5003F2AD0B0F5802F21D03A
S315000038B0B0F5002F54D0B0F5202F27D0B0F5402F0B
S315000038C046D0B0F5602F66D0B0F5901F3BD0B0F56E
S315000038D0A01F24D0B0F5B01F2AD0B0F5D01F1CD041
S315000038E0B0F5E01F22D0B0F5001F2CD0B0F5381F80
S315000038F039D04FE00AF031FBE168C1F308210AE054
S315000039000AF02BFBA168C1F3082104E00AF025FBAD
S315000039106169C1F30421491C12E0104615E0104606
S31500003920FFF73CFF216A01F00F0107E008460CE0B3
S315000039300846FFF733FFA16A01F0030105FA01F11A
S31500003940B0FBF1F627E0DFF86405FFF727FF1FE07D
S31500003950DFF87C0500F056F807281CD0092819D195
S315000039600AF0FBFA14E0DFF86C0500F04BF80428C7
S315000039700CD007280FD008280CD10AF0EEFA2168DF
S31500003980C1F30421491C01FB00F604E00AF000FB28
S31500003990064600E00026304670BD0000030903F02D
S315000039A00F0301225B1E072BDFF8041528D8DFE87A
S315000039B003F004060A0E10141C27086800E0486984
S315000039C0C0F3042070470868C0F300607047C868F9
S315000039D000E08868C0F308207047DFF8FC3498429E
S315000039E00ED1086A00F00F0006E0DFF8F0349842C6
S315000039F006D1886A00F0030002FA00F0401E704704
S31500003A0000207047014601F00F010120491E0729D9
S31500003A10DFF8D02449D8DFE801F0040F1348202E40
S31500003A204836506A00F0070002283AD002D304282C
S31500003A3004D01CD30520704711690FE0022070479F
S31500003A40516901F00701491E03292FD8DFE801F06B
S31500003A500F020311F2E706207047916901F0070192
S31500003A60012904D00229E9D0042902D07047032095
S31500003A7070470A207047116811F001010FD0012923
S31500003A8014D109207047DFF86014096801F030018D
S31500003A90102904D0202904D0302904D070470720EB
S31500003AA070470420704708207047002070470000C8
S31500003AB070B500F00F0003240325401E0728DFF829
S31500003AC024640FD8DFE800F0042E347C31607C6A71
S31500003AD00229DFF8C40206D003291AD004291AD015
S31500003AE005291DD070BD0424002501220121284688
S31500003AF000F0BAF8FFF72DFE7460DFF8E403FFF775
S31500003B00C3FEFFF7F3FD0AF019FABDE87040002185
S31500003B1029E60125E9E702240225FFF7E7FDE4E7A8
S31500003B200124FAE706F1100404E006F1180401E0A6
S31500003B3006F11404012908D0022909D003290ED060
S31500003B40062913D00A291DD070BD0020206070BD43
S31500003B5001220121002000F087F80220F6E7012269
S31500003B600121012000F080F80120EFE70AF0E6F9D4
S31500003B70FFF7BCFD01220021DFF84C03FFF7A8FD8B
S31500003B800320E3E70420E1E7072902D0092902D050
S31500003B9070BD002000E00120306070BD012906D014
S31500003BA0042915D007290CD0082918D070BD00208B
S31500003BB0DFF834130A6822F0300242EA0010086087
S31500003BC070BD01220121042000F04EF80120EFE72C
S31500003BD001220121022000F047F80220E8E7032035
S31500003BE0E6E770B500F03DF801220021022000F062
S31500003BF03BF8217CDFF8F85200200229296808BF2B
S31500003C000120490840EA4100286008212278284618
S31500003C10FFF75EFD6868E17AC00841EAC0006860A7
S31500003C20617AA08841EAC020A860EE68207AFFF792
S31500003C30ACFDE28806F07F6141EAC221A27A114317
S31500003C40227A41EAC2110843E860A17B607B090140
S31500003C5041EA0030E17B0843217B40EA01402861CC
S31500003C6070BD04461120CDE62DE9F84F04288246A2
S31500003C70904671D8DFE800F04C473D03420001262C
S31500003C800220012700240029DFF83892984D5ED0E3
S31500003C90BAF1020F02BF2868C0F3011000284FF0E6
S31500003CA0000B0AD12868C0074FF0010B05D528681C
S31500003CB020F0300040F010002860EE6300F04EF86F
S31500003CC00028FBD0B8F1000F46D0394600F047F87F
S31500003CD00028FAD0BAF1020F3ED1BBF1000F3BD05B
S31500003CE02868C0071BD501222021022000F0C9F850
S31500003CF019E00426082003270224C4E71026202002
S31500003D0005270424BFE74026802007270624BAE7B4
S31500003D104FF480764FF4007009270824B3E700219A
S31500003D20022000F08DF8022000F01CF80446012263
S31500003D3000210220FFF798FF2146022000F036F806
S31500003D40EE63394600F00BF80028FAD004E0E86389
S31500003D5000F004F80028FBD1BDE8F18F2146484663
S31500003D60FFF7BDBC401E0328604912D8DFE800F00B
S31500003D70020C06080869C0F308007047086800E0EE
S31500003D80886800F07F0070475A480068C0F30A0050
S31500003D9070470020704700000148E8010190D003F9
S31500003DA000400E4004000E4041787D0170B5401E73
S31500003DB00D46032805F07F014C4C404E3DD8DFE808
S31500003DC000F0022A101DC5F308051A213046FFF738
S31500003DD086FC0028F9D12069400A45EA4020206186
S31500003DE070BD0D4618213046FFF779FC0028F9D141
S31500003DF02068C00945EAC010206070BD0D46192133
S31500003E003046FFF76CFC0028F9D1A068C00945EAE6
S31500003E10C010A06070BD2B480068606920F03000BB
S31500003E2040F010006061C5F3C310FFF7AEFC216AD5
S31500003E30314A114029430843206270BD80400E403C
S31500003E402B480268C2F30112002A18BF002907D0C6
S31500003E50202902D0302903D005E04FF4000103E009
S31500003E604FF4400100E02549C26E0A408A42FBD168
S31500003E70490204D5C06F800A00F001007047012096
S31500003E80704710B502280AD10B0004D01C4B4FF422
S31500003E9080645C64196012B1BDE81040D0E701206F
S31500003EA010BD000002001A0003001C0005002000DF
S31500003EB000410E40015A620240000E4040410E4051
S31500003EC0545A002090400E40B0400E4050410E40E3
S31500003ED006000C0098002E006006140070071600FD
S31500003EE00005080070400E405C410E4010400E4038
S31500003EF024400E409C400E4000F8FF0FFF03E107F0
S31500003F0064400E4010B5214B1C6890FAA0F2B2FA3C
S31500003F1082F224EA000091400843186010BD1C4953
S31500003F2001200860704730B51A480FF27403016823
S31500003F300020002203EBC204174D64682D686D074C
S31500003F400FD453F83250B5F5007F18BFB5F5806F22
S31500003F5005D0B5F5006F18BFB5F5803F01D144F423
S31500003F6080740E4D2D68ED0553F8325048BF24F08D
S31500003F701C04294202D0214208BF2843521C092AA8
S31500003F80D8D3C10348BF20F01C0030BD00500E40FE
S31500003F9008500E4004500E40E841E00F88300E40B5
S31500003FA00100000000000000040000000100000005
S31500003FB008000000010000001000000001000000E1
S31500003FC00001000001000000000800001D000000C4
S31500003FD0000200001D000000000400001D0000009B
S31500003FE0000001001D0000000168C90707D58168AF
S31500003FF0890704D48168C907FCD401214160704750
S3150000400010B5012169486A4CFFF70EFC6949012089
S31500004010086000200AF01AF8012304220221052074
S315000040200AF056F800F00FF8012020700AF044F963
S3150000403001234022211D0FF2B4100AF00BF95E494C
S315000040400860C00F10BD10B5012201210420FFF742
S315000040500BFE5A485A4C016841F0010101600022EA
S31500004060C16841F08071C160002356495648086016
S3150000407056480260564A1360022323601523554CA6
S31500004080236000230364544B0B65544911604FF4BD
S315000040908071534A1160016841F48071016010BD5E
S315000040A04648006800B10120C0B27047D1220270B4
S315000040B04170090A81704B490A78C270501C087019
S315000040C0042070472DE9F84F80464D1DFEF748FD48
S315000040D0002782464FF6FF7B434C15E008EB0700AE
S315000040E0594610F8026C30460AF0F6F883464F46F9
S315000040F037480068C00707D534480068C00503D5AF
S3150000410020680028FCD02670FFF7CAFF40B3F8B23B
S31500004110E9B2884224D2FEF723FDA0EB0A0080B262
S31500004120B0F5FA7F22DCF8B210B95B260127DFE78B
S3150000413007F10109FFB2012F08BF6E1FD7D0EDB2FC
S31500004140E81E874208BF5E46D1D0A81E874208BF38
S315000041504FEA1B26CBD0681E8742BFD15D26C6E735
S31500004160FFB2EDB2AF4208BF002000D00120BDE88B
S31500004170F28F10B50C460246217800200529A4BF0F
S315000041801046FFF79FFF0421217010BD00B50A48B5
S31500004190006891B0402269460AF047F820B1C2B2E1
S315000041A069461220FDF73BFE11B000BD0025080050
S315000041B0F872002010881442C45B0020F0ED00E085
S315000041C0F00004E0B00F00E055CEACC5000E00E0F4
S315000041D0800E00E0100004E0FF0300400D00010027
S315000041E0040304E0EF7D0020200000E073696C61A9
S315000041F062737675617274646F776E0041780078C9
S3150000420001E00178407800EB012080B27047017030
S31500004210090A417070470A0A02704170704710B56A
S315000042200023040014BF1C46C3F10304E4B25B1C64
S315000042300A55120A042BF4DB10BD30B50024050024
S3150000424014BF2546C4F10505EDB2641C4A55120A91
S3150000425042EA03621B0A062CF1DB30BD30B54A7810
S315000042608B78CC78097818B120461D460C4602E0BA
S31500004270154608461A4645EA002044EA022141EA64
S31500004280004030BD00B583B020B10622684600F07C
S315000042902AF803E00622684601F0AAFB9DF80020F2
S315000042A09DF8010040EA02219DF8020002069DF8F1
S315000042B0030042EA00429DF8040042EA00229DF80B
S315000042C00500104303B000BD10B5002300E05B1CE1
S315000042D0DCB28C4205D210F8014B9442F7D0002094
S315000042E010BD012010BD10B5002304E0541EE41AD1
S315000042F00C5DC4545B1C9342F8DB10BD10B5002462
S3150000430080B14FF6FF7202E0944206D0641CA4B25C
S31500004310035D002BF8D1944204D179210FF2F40009
S31500004320FCF7FEF9204610BD10F8012B11F8013BF1
S315000043300AB19A42F8D0D01A40B2704730B59942C5
S3150000434028BF1946002303E00833401C521C9BB2C9
S3150000435003F10804A14203DB04781578AC42F3D0DC
S315000043608B420CDA007812785040C0438024C0B2E9
S3150000437001E064085B1C8B4201DA0442F9D198B271
S3150000438030BDF8B555052D0E02F0070704460E465A
S315000043902A4601F02DFB47B1FF20615D725DF840B2
S315000043A0014022EA000008436055F1BD00210FF2EA
S315000043B07802002805E000F00F03D35C5918C9B253
S315000043C00009F8D1084670476128A8BF572107DAC7
S315000043D04128A8BF372103DA3A28B4BF302100218B
S315000043E0401AC0B270474108400021F0AA3120F0BF
S315000043F0553008438108800021F0CC3120F033305D
S3150000440008430109000121F0F03120F00F30084384
S3150000441070470000627974652D7574696C697469FA
S3150000442065732E6300000000000101020102020311
S315000044300102020302030304704710B5DFF8D44AF1
S31500004440FDF75CFE6061FDF755FEA0616069E06105
S3150000445018B100F007F8652803DABDE810409D2181
S31500004460A2E010BD10B5DFF8AC4AA069E169884248
S3150000447002D2AF2100F0F2FBA069E169401A4FF6C3
S31500004480FE71084010BDDFF88C1A4A69904203D3CA
S31500004490C969884200F035BD00207047002818BF62
S315000044A0FFF7F1BF0120704730B1DFF8681A49699C
S315000044B0401A4010401C80B27047010001D1002014
S315000044C07047DFF8501A496901EB4000801E7047BB
S315000044D04088C0F30C00C01C0004800C4000001D86
S315000044E080B2704710B50446FFF7F2FF04EB4000B8
S315000044F0DFF8201A4FF6FF7300E0801CCA6990426D
S3150000450002D202889A42F8D010BDDFF80C1A086071
S315000045107047DFF8041A0FF28400086070472DE92F
S31500004520F843DFF8F05980462889A0B3B8F80200AE
S31500004530000430D4DFF8E0490FF260012068DFF8AC
S31500004540DC9909F0DDFE20B94FF4BA714846FCF754
S31500004550E7F8002701E07F1CBFB22889874204DB09
S315000045604FF4BB714846FCF7DBF8286A216800EB7C
S31500004570C706306808B9316003E009F0C1FE0028BB
S31500004580E9D1B088401CB0804046FFF7A1FFF18812
S3150000459001EB4000F080BDE8F1830000756E636CAE
S315000045A061696D65640000000FF68030FCF7B8B8ED
S315000045B070B50446DFF85C09807801281AD1208896
S315000045C0FFF77BFF04002FD0022526463046FFF773
S315000045D0A6FF708840F40040708036F81500FFF79B
S315000045E06CFF060002D070880004EFD56D1C042D08
S315000045F01ADAEAE7022817D1FEF7ACFA0546208850
S31500004600FFF75BFF06000AD07088800403D540F2EE
S31500004610392100F023FB3088C0F30E0020802846A5
S31500004620BDE87040FEF7D3BA70BD00B5ADF5806D3C
S31500004630ADB04FF49662694600F073F80DF5806DE3
S315000046402DB000BD2DE9F84307468846FFF740FF29
S3150000465045007888C0F30D007880800422D5FEF7E7
S3150000466079FA04463846FFF71FFF81464046FFF7B2
S315000046701BFF0646AAB23946404601F0B9F90020AA
S31500004680DFF8901806E001EB400293894B4508BF1E
S315000046909681401C0A789042F5DB2046BDE8F2433D
S315000046A0FEF795BAAAB239464046BDE8F84301F08E
S315000046B09FB910B50C4601E0FFF714FFA04202D2E5
S315000046C041880904F8D510BD70B5DFF8485804468E
S315000046D0A878012804BF686A00281DD1204609F081
S315000046E036FE022818DB0021204609F040FE0DE0C8
S315000046F0012100F0A0FA78B93046FFF7DEFE008807
S31500004700000409D43146204609F060FE0646300012
S31500004710EED16C62012070BD2046FFF749FF0020F4
S3150000472070BD2DE9F74FDFF8EC470020E0806062AE
S3150000473092B0FEF70FFA0121A1704FF0000AA1888E
S31500004740ADF802100021A180E1690191FEF73FFA60
S315000047502089C200206A92B2002101F0ABF90DF166
S315000047600200FFF725FFFEF7F5F921786278551864
S31500004770FEF72DFAEDB206E004EB46000C30FFF72B
S3150000478017FF06F1010A5FFA8AF6AE42F4DB1298C9
S3150000479048B1002501E080476D1C1298EDB250F833
S315000047A025000100F7D1D4F814904FF0000B012535
S315000047B00DF1080A0198814502D3BBF1000F37D0ED
S315000047C0BBF1000F06D0ABF101005FFA80FB5AF88F
S315000047D02B8004E04846FFF785FEC8468146B8F8B8
S315000047E0020000F44041B1F5004FE3D140F48040AF
S315000047F0A8F80200022638F81600FFF75EFE07004A
S3150000480012D0788801040FD440F4004078803846EE
S31500004810FFF785FEBBF1100FBDBF4AF82B700BF1F9
S3150000482001005FFA80FB0025761C042EE3DBC1E75E
S31500004830002DB8D0656A55B12888FFF73EFE688816
S31500004840000447BF002060622846FFF7B1FE002043
S31500004850ADF800008246606A0025A0B300880021FA
S3150000486000F0E9F9ADF80000002100F0E4F9064691
S31500004870BDF8000000F051F90546304600F04DF94C
S315000048808246BDF8500050451ADB300018D000F0C3
S3150000489044F90746304600F028F9014613983A468F
S315000048A001F0A6F83046FFF708FE18B14188C1F3BB
S315000048B00D0141800022606A314609F0B1FD02E037
S315000048C00020ADF800006669B346B0460BE03088BC
S315000048D0000404D5D6F80E0008B109F0C1FE304632
S315000048E0FFF700FE06460198864223D23046FFF7C0
S315000048F0EFFD81463046FFF7D7FDBDF80010884230
S3150000490006D10AEB0500C01C8010400000F1040926
S3150000491070880004DBD55846FFF7C6FD318801F4E0
S315000049200041084330801FFA89F00BEB400B06EB81
S315000049304008D4E70220A0700DF10200FFF738FE10
S315000049406846FFF735FE129860B14FF0000902E0A5
S31500004950804709F1010912985FFA89F950F8290090
S315000049600100F5D16769B94611E0022639F816004B
S31500004970FFF7A3FD20B10088C0F30E0029F816004A
S31500004980761C042EF2DB4846FFF7ACFD8146C14596
S31500004990EBD30BE00746FFF7A5FD4146FFF789FE7F
S315000049A04845F7D3019881452BD13746474549D22B
S315000049B03846FFF797FD002F0646F6D078880004A4
S315000049C0F3D500F088F8B84204D17888C0F30D001A
S315000049D07880EAE704D201463846FFF733FEE4E77B
S315000049E0019707E03046FFF77DFD4146FFF761FE80
S315000049F037460646464504D2308800F06DF88642B2
S31500004A00F0D337B100F067F801001CBF3846FFF756
S31500004A1019FE0198B946C3E73846FFF759FD064621
S31500004A205846FFF741FD8146720092B23946584614
S31500004A3000F0DEFF002249460DF1020009F09FFC5E
S31500004A400BEB460BFEF786F8064617E02178401872
S31500004A50401EC0B204EB40000021878981813800E6
S31500004A6009D0FFF72AFD00F037FA002239460DF18A
S31500004A70020009F084FC6078401E607060780100D6
S31500004A80E4D10021201D09F0ABFCFFF716FD07005D
S31500004A9006D1BDF80200A080C4F81CB00020A070AA
S31500004AA03046FEF794F8002FB6D1BDF8000078B175
S31500004AB00446FFF702FD07001CBF0AEB05007880DD
S31500004AC0204600F012F813995246284400F090FF51
S31500004AD015B0BDE8F08F3888C0F30E00EDE480B560
S31500004AE0FFF7EBFCBDE80240D8E410B5040012D095
S31500004AF0FFF7F5FF18B940F2394100F0AFF820464C
S31500004B00FFF7DBFC38B10188090402D5D0F80A00AA
S31500004B1010BD083010BD002010BD10B5010013D027
S31500004B20FFF7CBFC0446FFF7B9FC18B940F2534136
S31500004B3000F094F844B12088000401D5208910BD06
S31500004B406088C0F30C0010BD002010BD2DE9F041B7
S31500004B5004460D46FFF7B1FC060040D0FFF79EFC69
S31500004B600FF2C85718B940F2664100F0A0F8204687
S31500004B70FFF7D3FF80463046FFF7B4FC45450446B1
S31500004B802DD003DB40F26E4100F091F8308800042E
S31500004B9048BF358123D475803046FFF799FC06EB74
S31500004BA04005FDF7D7FFDFF86C13CA69661B944210
S31500004BB004BFCD610026FEF70AF8B6B2082E06DA63
S31500004BC032462846BDE8F041FF2100F073BF0822B7
S31500004BD00021284600F06EFFA6F108006880BDE8B7
S31500004BE0F081F8B507460C46FFF767FC06463846DF
S31500004BF0FFF793FF051B8442ADB21BD003DB4FF4D6
S31500004C00936100F02BF8AEB13088000406D5D6F8D3
S31500004C100A0034812844C6F80A00F1BD3846FFF779
S31500004C2064FF2246411900F0E3FE21463846BDE8FE
S31500004C30F4408BE7F1BD38B50C46FFF73EFC0500A6
S31500004C400AD0FFF72BFC18B940F2AB4100F006F88A
S31500004C5005EB4400808832BD002032BD0FF2CC4007
S31500004C60FBF75EBDF8B50C461546FFF726FC0600B9
S31500004C700FF2B84714D0FFF711FC18B940F2B6414D
S31500004C8000F015F82846FFF718FCFFF707FC18B9DF
S31500004C9040F2B74100F00BF806EB44008580F1BD09
S31500004CA03846BDE8F44040F2BA41FBF739BD384614
S31500004CB0FBF736BD70B504460D46002608E0FFF743
S31500004CC02CFF294686192046FFF7B5FFB6B20446E3
S31500004CD02000F4D1304670BD38B5C01C8D4C801014
S31500004CE04500A06AADB218B140F2CF41FFF7B6FF5A
S31500004CF0A069E169411AC903B5EB114F05DA6900EC
S31500004D0049420844A062012032BD002032BD8149DB
S31500004D100020886270472DE9F84F0446E01C801099
S31500004D207C4D40000027001DAE690FF2004AB4F525
S31500004D30005F88461FFA80F904DB40F2E6415046E0
S31500004D40FBF7EEFCFDF706FF8346E869A96A09B999
S31500004D50301A03E05FEA080202D0081A461008E09B
S31500004D60701A4610B0B220B940F20C515046FBF70B
S31500004D70D7FCB6B24E4515DBEF6907EB4900E86193
S31500004D80A86A28B1B8F1000F04BF00EB4900A86279
S31500004D9000207C80B880F880388004F1080168899A
S31500004DA0081868815846FDF712FF1FB901211F2018
S31500004DB002F0CEFD3846BDE8F24FFFF775BBF8B5F9
S31500004DC004460D46164600210A20FFF7A4FF0746B3
S31500004DD0FFF773FB48B10681C0F80A40018841F429
S31500004DE000410180C0F80E503846F2BD70B5044649
S31500004DF00D4611462846FFF78EFF06463CB13000A9
S31500004E0005D0FFF772FE2A46214600F0F1FD304636
S31500004E1070BDF8B504460D46164615E02846FFF760
S31500004E207CFEB7B2874288BF07462846FFF75DFE7D
S31500004E3001463A46204600F0DBFD01212846FFF7F1
S31500004E40FAFE3C440546F61BB0B20028E6D1F1BD99
S31500004E502DE9F84381460E461446FDF77BFE2D4D9F
S31500004E608046287801002BD0401E2870C0B205EB82
S31500004E704000A9788789F9B981813846FFF71DFB7B
S31500004E8000F02AF83846FFF730FE3246494600F071
S31500004E90AFFD3846FFF729FE22460021304400F0D8
S31500004EA009FE00223946281D09F069FA4046FDF739
S31500004EB08EFE0120BDE8F2836878401C6870E1E749
S31500004EC0A019012180B2FFF726FF0700DAD140467C
S31500004ED0FDF77DFE0020EDE720B141884DF6FF721B
S31500004EE011404180704738B5FDF734FE0446002175
S31500004EF00B4809F075FA05462046FDF768FE284678
S31500004F0032BD8041C00F704702490020888070473B
S31500004F100000000050760020785D00202C51000033
S31500004F20547600202DE9F0410446884617461E4671
S31500004F304046FFF7DAFDC5194046FFF7EEFDB91901
S31500004F40884203DA40F2B151FFF788FE300013D0F1
S31500004F500698010003D132462946204604E001287E
S31500004F6032462146284603D1BDE8F04100F040BD57
S31500004F70BDE8F04100F07FBDBDE8F08110B50C46FC
S31500004F80FFF7B3FD00B1005D10BD38B50C46154600
S31500004F90FFF7ABFD00B1055531BD38B50446FFF747
S31500004FA0BCFD05462046FFF7A0FD2946BDE8384072
S31500004FB000221BE770B50D46691C0446C9B2FFF70F
S31500004FC0DDFF060229462046FFF7D8FF301880B2DB
S31500004FD070BD00B583B002238DF80420120A8DF847
S31500004FE00520012200920A46014601A8FFF79AFF12
S31500004FF007BD10B50446FFF746FA10B1A4F1080044
S315000050000CE010BD10B5FFF758FA040004D0FFF706
S315000050105FFA04EB400001E0002010BDBDE810403F
S31500005020FFF742BAF8B504460D46FFF746FA060002
S3150000503016D07088C0F30C072846FFF73EFA07F033
S315000050400101CF19FFF744FA07EB40072046FFF7A7
S31500005050D9FFA84203D040F26E61FFF7FFFD7780CB
S31500005060F1BD2DE9F0410C46FFF727FA05002DD0DA
S315000050706888C0F30C0606F001008019001B04F0D6
S315000050800101471AE01C20F00300284400F108083B
S315000050902846FFF703FABFB208B1A64203D240F290
S315000050A08A61FFF7DBFDB44210D0092F0EDB6C805E
S315000050B008220021404600F0FDFCA7F10800A8F8F0
S315000050C002004046BDE8F041FFF7EEB90020BDE81A
S315000050D0F08170B5044682B02068FFF78AFFADF80C
S315000050E0000000B3FFF7E9F905001CD000880FF2B5
S315000050F03C06000404D540F2A5613046FBF710FBE0
S315000051006846FFF755FABDF80000FFF7D6F90546E1
S31500005110FFF7C4F920B940F2AB613046FBF700FB5C
S3150000512005F10800206073BD000000006275666628
S3150000513065722D6D616E6167656D656E742E6300B7
S31500005140012100F01F029140DFF8C82705E0012188
S3150000515000F01F029140DFF8C027400942F82010F6
S315000051607047012100F01F029140DFF8B027F4E7F5
S3150000517010B5012818BF2028DFF8A44705D04FF442
S31500005180BD710FF66400FBF7CBFA204610BD4268EE
S3150000519092884089401A824201DA01207047002035
S315000051A070473EB5012818BF202834D1012818BF02
S315000051B0202830D1FFF7DCFF0446FDF7CBFC05467F
S315000051C0A06901AB6A4602A90AF0D3F900992289BF
S315000051D0206889B200F024F82846FDF7F8FCA0699B
S315000051E00AF03FFA012816D1216820898988401AD9
S315000051F0218A88420FDBA06990F83110022903D179
S315000052000AF0B5F9022804DAA06990F831000128FD
S3150000521001D100F001F837BDA06900210AF0F9B903
S3150000522070B504460D461646FDF794FCE188A94282
S315000052300CD22288521A521992FBF6F306FB13225D
S315000052402280A288AA18511AA180E580BDE8704084
S31500005250FDF7BDBCF8B5012818BF20280C46154639
S3150000526016D1FFF785FF0646307B10B1012070731B
S31500005270F1BD707B18B13046BDE8F240B2E00FF2E6
S31500005280CD1700F006F818B100F003F80028FBD19E
S31500005290F1BDB0693B462A4621460AF0C6BA70B54A
S315000052A005460E46FFF764FF012D18BF202D044664
S315000052B040D1A069016890F83200E8B904208864FA
S315000052C000F031F9A0690068C16C002E07D041F0EA
S315000052D00401C1640B20FFF733FF052106E021F02E
S315000052E00401C1640B20FFF732FF0021A0690068AA
S315000052F0BDE870400AF028BB0420486300F013F9AB
S31500005300A0690068816B002E07D041F0040181631B
S315000053100B20FFF715FF052106E021F0040181634C
S315000053200B20FFF714FF0021A0690068BDE870405C
S315000053300AF08FBB70BD38B50446DFF8E805814238
S3150000534030D0DFF8DC55A869A0422BD12A8928681D
S3150000535099B2FFF765FF29680020C88002E0284659
S3150000536000F021F820460AF002F903281ADA2A6822
S31500005370E889698A93884143002B89B2EFD0538824
S31500005380128840188342B8BF914205DB9A42E6D2A2
S315000053908342A8BF9142E2DA2046BDE834400121AB
S315000053A00AF037B931BD38B50446DFF87C35E089F7
S315000053B0658A216802466843084400F10801A0692D
S315000053C00AF0EBF9A0690AF0D2F8022801DBFFF730
S315000053D023FF608AA18A401C90FBF1F201FB1200B8
S315000053E0608231BDFEB50446207B68BB60680FF263
S315000053F05D074188084400F10805A0696B4601AACB
S3150000540002A90AF0D6F860688188009A891A019A7A
S315000054108E1A4188008888420ED26089421AA06995
S315000054203B4629460AF001FA70B9606861894288EC
S31500005430711A561800F10805A0693B46F2B22946D2
S315000054400AF0F3F900B96073F7BD000070B5DFF834
S31500005450D054A96981421C4615D168688188A14249
S3150000546038BF8488FDF776FB69686B894A88A4B2E1
S31500005470A21892FBF3F603FB16224A8069688A8813
S31500005480121B8A80E2E670BD38B50D46FFF770FE46
S31500005490112D044609D1A06900210AF0CBF800209D
S315000054A020732046BDE832409CE7132D06D1A06943
S315000054B001210AF0BFF80120207331BD2068018860
S315000054C00844057220680188228900F043F90180AA
S315000054D08188491C8180A0690AF0C3F82268218965
S315000054E09288891A89B220B9E2898A42A8BF012125
S315000054F005DA012808D1208A814205DB0021A0694E
S31500005500BDE834400AF085B831BD80B5DFF81C042B
S315000055100169090606D50AF089FABDE80440014684
S315000055200120B1E701BD0B201BE6F8B50C46154678
S31500005530FFF71EFE0646EAB2306880883189891A6E
S31500005540884201DB0120F2BD00270DE0FDF702FBDA
S3150000555031680B8814F8012B19447F1C0A723168D4
S315000055600A88338900F047F9AF42EFD30020F2BD35
S31500005570F8B5012818BF202804460D463AD100F098
S3150000558023FA10B9204600F06CF82046FFF7F0FD2C
S3150000559006462046FFF7ECFD012C18BF202C29D12A
S315000055A0DFF88C13016001F148024260402202815B
S315000055B08022012C18BF202C428150D1012C16BF0D
S315000055C0202C01F1D0000020012C18BF202CB06146
S315000055D010D1DFF86003A98CA8618030E861F18101
S315000055E0EA8C32828A4207D21C21304604F06EFAD7
S315000055F00220F2BD0120F2BDB06990F83130012BD6
S315000056000CD0338993FBF1F701FB1733002B02BF54
S3150000561092FBF1F301FB13210029E5D1294609F09C
S31500005620E1FDE8B9B069017F007E0123022208F09E
S315000056304FFD287C012807D101212046FFF72FFEC8
S31500005640B069FFF7EAFD0AE000207082F18930892F
S3150000565090FBF1F0B08200F0B4F900F0B2F900204E
S31500005660F2BD58B5012818BF2028044612D100F013
S31500005670ABF9F0B9204600F083F92046FFF778FD34
S31500005680012C18BF202C06460FD1B06909F071FE17
S3150000569010B152BD012052BDB06990F83100012809
S315000056A003D100212046FFF7FAFD1C21304604F005
S315000056B00DFA002052BDF8B50128064618BF20286D
S315000056C00F4634460AD1FFF753FD05463046FFF72D
S315000056D068FD2868808818B92620F2BD0120F2BD31
S315000056E0FDF738FA0646286841880844007A38707B
S315000056F0286841882A8900F02DF841808188491E52
S31500005700012C18BF202C81801FD1A86990F8310088
S31500005710012803D119E02846FFF745FEA86909F0DC
S3150000572026FF022811DA2A68E889698A53881288CE
S31500005730414389B240188342B8BF914205DB9A4281
S31500005740E9D28342A8BF9142E5DA3046FDF73FFA37
S315000057500020F2BD491C91FBF2F302FB13117047C6
S315000057602DE9F047804601281CBF202801208946E4
S315000057703FD1FFF7FDFC0646002470680188084407
S3150000578000F1080A00251CE0FDF7E4F971680B88B2
S3150000579019F8012B1944641C0A7271680A88738906
S315000057A000F029F87068008858B9671BFFB23A46BE
S315000057B051464046FFF74EFD70687D19EDB200F187
S315000057C0080A99F8000050B100213046FFF7DFFCC7
S315000057D00028D9D1307B0028F6D0222009E0E4B297
S315000057E0A54205DA621B92B251464046FFF732FDEA
S315000057F00020BDE8F087521C92FBF3FC03FB1C2241
S315000058000A808A88521C8A80FDF7E1B910B5012802
S3150000581018BF20280BD113460A4601460FF2150081
S3150000582000F0A2F9002400B90124204610BD012091
S3150000583010BD00002DE9F84F814601281CBF202825
S3150000584001208A4693464AD1FFF792FC0746002478
S3150000585078680188084400F10808002627E0FDF76B
S3150000586079F979680B881AF8012B19440A72796854
S315000058700A887B89521C92FBF3FC03FB1C220A80DC
S315000058808A88521C8A8009884D1EAD41FDF79FF912
S31500005890ED0F761C5DB1351BEDB22A4641464846F2
S315000058A0FFF7D8FC78682C19E4B200F10808F0B2CA
S315000058B058450AD200213846FFF769FC0028CED1A8
S315000058C0387B0028F6D0222009E05C4506DAABEBEF
S315000058D0040292B241464846FFF7BCFC0020BDE8F0
S315000058E0F28FF8B501260746012F18BF202F0C4668
S315000058F015460DD1FFF73CFC012F18BF202F05D10F
S3150000590080692A46214609F0AEFE06463046F2BDBB
S315000059100120F2BD00E100E080E100E080E200E06D
S3150000592020710020097000F037530000000001408C
S315000059301C700020BC5A002038B50446012C18BF44
S31500005940202C1BD1FFF714FC012C18BF202C054678
S3150000595012D1686880880028FBD1A86909F025FE65
S315000059600028F6D1A86909F0D9FD8006F1D5A86905
S3150000597009F0D4FD8004ECD5002032BD012032BDF3
S3150000598070B50546FFF7F4FB0646012D346818BFCF
S31500005990202D0DD1B06990F83110012908D00221CF
S315000059A009F02CFD0020708200F00BF800F009F8D9
S315000059B0FDF7D0F80021A18021806180E180FFF70A
S315000059C045BC3046FFF7EFBC80B5012818BF20283C
S315000059D006D1FFF7CDFB00281CBF0068002801D1C7
S315000059E0012002BD002002BD636F6D2E6300000022
S315000059F0814233D210441144401E491E10E011F872
S31500005A00013900F80139121F11F8013900F801397E
S31500005A1011F8013900F8013911F8013900F8013996
S31500005A2092B2042AEBDA93B2002B1EBF11F80139A9
S31500005A3000F80139521EF6D1704711F8013B00F803
S31500005A40013B121F11F8013B00F8013B11F8013B25
S31500005A5000F8013B11F8013B00F8013B92B2042A21
S31500005A60EBDA93B2002B1EBF11F8013B00F8013BA5
S31500005A70521EF6D1704710E011F8013B00F8013BC9
S31500005A80121F11F8013B00F8013B11F8013B00F829
S31500005A90013B11F8013B00F8013B92B2042AEBDA14
S31500005AA093B2002B1EBF11F8013B00F8013B521EBA
S31500005AB0F6D17047130003D00A4619460AF00AB811
S31500005AC0704710B500E0521E93B223B100F005F8FE
S31500005AD0F9D0181B10BD002010BD10F8013B11F8BD
S31500005AE0014BA3427047000070B51346104402E014
S31500005AF0A4192C705B1EDCB24CB101F00F0609092B
S31500005B00451E0A2E2846B4BF30243724F0E7104439
S31500005B1070BDF0B5002341B1002806D501232D2123
S31500005B20B0F1004F117018BF4042002100240FF25F
S31500005B30C02555F82470002601E0C01B761CB8422B
S31500005B40FBD2F7B20FB90F0005D0DBB206F1300178
S31500005B50D1545B1C0121641C092CEADBDBB230301A
S31500005B60D054581CC0B2F0BD2DE9F24F804696B015
S31500005B7013A80190154603A89B4603AE00270024F0
S31500005B808DF800000BE0012405460198864205D3F6
S31500005B9000F0DCF800284FD100F0CEF86D1C9DF81F
S31500005BA000002978301A0A000BD0252903D014B931
S31500005BB006F8011BE9E7002C14BF00246D1C2978A8
S31500005BC00A0000F0AF80B1F1250216D00B3A092A7F
S31500005BD040F28980283A7DD00A3A12D0521E41D02E
S31500005BE0521E5FD0083A5DD0121F3ED0D21E3CD066
S31500005BF0921E57D0D21E6DD0C7E7252006F8010B9E
S31500005C00C3E7DBF8000002904FF0000A0BF1040036
S31500005C1000F1040BD0F80090CA45B6D2029810F8ED
S31500005C200A1002223046FFF75FFF064601988642B9
S31500005C3005D300F08BF800287AD100F07DF8A9F1A1
S31500005C40010082453CBF202006F8010B01988642E0
S31500005C5005D300F07BF800286AD100F06DF80AF150
S31500005C60010AD9E75BF8040BC8E75BF8049B00F070
S31500005C7067F800285CD100F05FF84FF0000A01E0F9
S31500005C800AF1010A5FFA8AFA19F80A000028F7D120
S31500005C909DF8580052464946C047002848D1574407
S31500005CA0FFB272E76C290AD16A785BF8040B752A91
S31500005CB00EBF00210121642A07D16D1C05E075295C
S31500005CC05BF8040B0CBF002101213246FFF721FFD0
S31500005CD036185AE75BF8041B0222C9B23046FFF7B2
S31500005CE003FF064651E76A780124782A18BF582A26
S31500005CF0F8D16D1C0024681E322904D15BF8040B10
S31500005D00042281B2EAE734297FF43DAF5BF8049BB5
S31500005D1004224FEA19413046FFF7E6FE04221FFA35
S31500005D2089F1DCE700F00CF810B9F019C0B200E018
S31500005D30002017B0BDE8F08FF719FFB203AE704729
S31500005D4006469DF85800F2B203A940479DF80000A8
S31500005D50361A9DF85800F2B203A940472DE9F047DC
S31500005D60804615461E46FCF7F8F8010015D10027B7
S31500005D700FF2740A0BA40FF2300900E07F1CB74241
S31500005D800BDA701E8742EA5DB4BF4B462346514686
S31500005D90404600F01BF80100F0D0BDE8F08703A1F3
S31500005DA014E0000000000000200000000D0A0000C2
S31500005DB00CB438B5044604AA00F010F8054620468F
S31500005DC0FFF7EDFF284632BC5DF80CFB0CB480B53E
S31500005DD002AA00F003F802BC5DF80CFB80B5FFF7E1
S31500005DE015FDC0B202BD0000257825730000000035
S31500005DF000CA9A3B00E1F5058096980040420F00E4
S31500005E00A086010010270000E803000064000000DF
S31500005E100A0000000D48016821F480310160016F1D
S31500005E20490849000167704710B5FCF793FE044620
S31500005E30FFF7F0FF064800F00DF80448052101675A
S31500005E40016841F480310160204624E024ED00E041
S31500005E50FC59002038B504460525204609F06EFE9B
S31500005E6010346D1EF9D1BDE8314009F08FBE80B502
S31500005E70FFF7D0FFBDE8014009F088BE10B5044623
S31500005E80FCF768FE004901E0FC5900206209520156
S31500005E904A6000220A70BDE81040FCF798BE000078
S31500005EA0DFF8A41904220968C00002FA00F00840CD
S31500005EB018BF0120C0B270470422C900002814BFD1
S31500005EC0DFF86809DFF8840902FA01F1016070471A
S31500005ED001207047704748B1DFF878296FF0FF015D
S31500005EE01160000ADFF870190002086070472DE99A
S31500005EF0F04304460D469046DFF86009DFF8607906
S31500005F00D0F80090DFF85C09042104EA000205EAF3
S31500005F1001030020834208BF824283B009F10C06C8
S31500005F204DD0DFF844090068210348BF7862E102DA
S31500005F3048BFB862E0000BD5DFF83019086800F0FA
S31500005F407F40B0F1007F03D1DFF8241902200860FA
S31500005F5014F0C05F04D0B869FFF7BDFF0020B86138
S31500005F60E0071FD500F05BF9002200F047FB012097
S31500005F7009F0ABFFF08000210120FCF702FC7978E4
S31500005F80002914BFDFF8EC18DFF8381A4FF40010B8
S31500005F9008607869FFF79FFF00207861307840F04D
S31500005FA00800307005F0040300218B4207D0012160
S31500005FB03046FCF741F925F0040504430D43D6E9C4
S31500005FC0120104400D400020854208BF84420CD0D7
S31500005FD0B96822462B46484688474FF0FF3078621C
S31500005FE0B862200744BF002038625FEAC8700BD54C
S31500005FF0F9680020F86001203870080004D038697C
S3150000600003B0BDE8F0430847BDE8F78370B508B9AB
S31500006010012070BDDFF86028DFF86048516812681B
S31500006020402303FA02F22368DFF83C4A2468C4F3EB
S315000060308114521E032C01F1005192B29BB20BD176
S315000060400025EE18083E16408E5D46556D1C082D3F
S31500006050F7DB0472002070BD022C0AD19D1E15408C
S315000060605B1E4D5D05801A40895C45EA0121018071
S31500006070EFE7022070BD80B509B9012002BD0B7B98
S31500006080DFF8DC27002B14BF936A536A13F1010F64
S3150000609001D1022002BD0A46194628300AF01EF92F
S315000060A0002002BD10B504461120FDF7ABFC042804
S315000060B001D0022010BD20460AF037FB204600F032
S315000060C0BEFFDFF8E81960200860002010BD2DE94A
S315000060D0F04104460FF27C0084B004F10C0800681D
S315000060E0029008F108070026BE67C7E91066BE855C
S315000060F0FE85642038867886B886F886388778875D
S315000061000D464FF6FF7038804046FFF7E1FEC0B1FE
S315000061104046FFF7C7FF060013D102A9404600F02C
S315000061201BFD0646BA6F4FF0FF31404600F0BEFA3F
S3150000613000F075F84FF0C0520423104604210AF00F
S315000061404CFA28001CBF2046A847304604B0BDE8DC
S31500006150F08100000000000098B504462078810711
S315000061602ED5616A61B300F0FD012170606A406955
S31500006170006810F1010F03D0BDE892400BF02FB874
S31500006180D4E9122303F004030027BB4203D141F0F4
S315000061900200207091BD4FF480312046FCF74CF888
S315000061A0D4E9122302400B4008BFBA4208D0A4F13A
S315000061B00C0001B0DFF8A8168968BDE890400847D2
S315000061C091BD2DE9DC430446DDE90867D4E91201F7
S315000061D09043994306EA020807EA030940EA0800E1
S315000061E041EA0901C4E9120122F0010823F000097D
S315000061F000F07EFD80B100F012F807EA090106EA18
S31500006200080040F0C05241F00403404649460AF0F7
S31500006210E4F92046FFF7A0FF0020BDE8D683002062
S3150000622001900090704700680100DFF8341608BF3F
S31500006230DFF8F408886070472DE9F0415FEA01084D
S3150000624086B0044615461E461AD0280018BF002CF4
S3150000625016D000F08BFFDFF80876396A8C4206D13B
S315000062607988BF88ADF8001000F07DFF1DE000F0D2
S315000062707AFF6A4601A920460BF0DEFC040001D134
S3150000628000201FE09DF80400002818BF08280AD047
S3150000629000F06CFF3C62BDF800107980BDF8061076
S315000062A0B98000F060FFBDF80670A8198742BDF8F6
S315000062B00000B8BFBD1B83199BB2AAB2414601209C
S315000062C00BF043FB06B0BDE8F08110B500F034FEDC
S315000062D070B1F020044201D0012010BDDFF82C0976
S315000062E00168090904F00F0242EA01110160002069
S315000062F010BD000010B500240021002203280FD88D
S31500006300DFE800F003020F12012420460AF094FA97
S3150000631034B1DFF84C45A069FFF7DDFD0020A06130
S3150000632010BD01240121F0E7012401210122ECE73F
S31500006330DFF81C05006800F07060B0F1807F18BFC0
S31500006340B0F1007F19D0B0F1407F18D0B0F1806F66
S315000063501CBFB0F1A06FB0F1E06F0ED0B0F1006FCE
S3150000636017D0B0F1106F0CD0B0F1206F1CBFB0F198
S31500006370306FB0F1406F0CD005E00220704703206B
S31500006380704705207047DFF88808006810F0060F90
S3150000639001D00420704701207047DFF848090068E3
S315000063A000F0A000401E8041C00F704710B50446A3
S315000063B000F0BCFB204602F079FA78B1204600F0E6
S315000063C00CFB58B1032100200BF004FB10F1010F68
S315000063D001D1032010BDDFF810190860002010BDA0
S315000063E010B5FFF7E3FF040008BF0AF0EEF92046F8
S315000063F010BD70B584B0BAB31378002B04BF5378C0
S31500006400002B31D070CA6B4670C312F80C3D1C00CD
S315000064100FD09588BDF806406B431B19ADF80630C2
S3150000642014789DF801301B1B8DF8013000238DF880
S31500006430003001239DF8014000E05B1C01259D40D2
S31500006440A542FAD392888DF800306E0804FB0262EA
S31500006450B2FBF5F2ADF804209DF800208DF801207E
S315000064606A4600F005F801E000F002F804B070BDDD
S315000064702DE9FE4F83461446FFF798FF5FEA0009B1
S3150000648040F0AF80DFF86478DFF8D4633868B06135
S31500006490002C79D094F90310E08809F037FD3868AC
S315000064A0F0614FF0010AA178481E8DF808002278A5
S315000064B06078174621B98DF808104FF0000A0027BA
S315000064C08046B84538BFB8461AB9451EAD41ED0FEE
S315000064D000E00025A0880BF02DFEDFF8A4184FF68B
S315000064E0040265B3CB6A9BB2934208BF5B1CF38080
S315000064F00027034601E040087F1C80B2B0F5807F8C
S31500006500F9D8FFB2082F05D1FF23FF28CB6210D898
S31500006510401C0EE05FB10122BA40FF28CA6208D8CB
S315000065209BB27A1ED34003F00102101801E001224B
S31500006530CA624FF4000208278A62B84604E0F3886C
S3150000654093421CBFCB62F28082B232B180B2421E4D
S31500006550FF2A88BFFF220A6001E0002008600020B1
S31500006560019053469DF808000090424639460BF1CB
S3150000657028000BF083FD25B1DFF844184FF4801096
S315000065800860A068F06202E0F069FFF7A4FCDFF89B
S315000065903C182020086001200BF0DDFD00F0E6FD30
S315000065A007460BF095FDF46A9CB104200BF04CFDF8
S315000065B010B104200BF091FC20460BF0BBFD014608
S315000065C0012204200BF099FC00F0010090F0010973
S315000065D003D10BF089FD0AF0DDF8384600F0C3FD63
S315000065E04846BDE8FE8F38B500F0A6FC002518B178
S315000065F060B209F0B1FC0546284632BD00230120F1
S31500006600002109F0EABF80B500200AF0FFF800205B
S3150000661002BD012809D00BD3032803D008D24FF0BE
S31500006620C05006E04FF0005003E04FF0605000E02D
S315000066300020DFF8D0170A6822F060521043086085
S315000066404FF400108B49DFF8C0270860DFF8E40834
S31500006650016821F0060141F0040101604FF080510C
S3150000666011600421416100207047DFF8A017062061
S3150000667008600020DFF8981708604FF08050DFF8B8
S31500006680941708604FF40011DFF8380301604FF0EB
S315000066906051016000207047002819BF0220DFF812
S315000066A078170220DFF874170860704738B50D4672
S315000066B01446FFF70DFC70B32A07DFF86007DFF812
S315000066C0581705D5220747BF08220A60082202602C
S315000066D0EA0705D5E20747BF0120086001210160EE
S315000066E0680708D561074CBFDFF83417DFF83417A1
S315000066F04FF400700860A80704D5600800F0010098
S31500006700FFF7CAFFE80606D5DFF8AC08E1064CBF7E
S3150000671000211B210160002032BD2DE9FC47002627
S315000067200F0018BF0127022982461446994603D155
S3150000673000F02FF8002024E000F018FD484D8046B8
S31500006740E868010018BFA04212D10120EC60019058
S315000067500090C5F81090002200F02BF82E705046DD
S315000067600BF0E8FC01463A4602200BF0C6FB064653
S31500006770404600F0F8FC002E03BF0020E860012030
S315000067800020BDE8F68780B502200BF072FC00F011
S3150000679029BC00B583B000200190002201200090A2
S315000067A000F007F802200BF098FB2D490020C86086
S315000067B007BD00230020002109F00FBFDFF8FC070A
S315000067C0274900680978800A00F0010008437047ED
S315000067D002200BF039BC70B5406A00250028164629
S315000067E01EBF4069002805460C46F00748BF0BF05F
S315000067F073FDF00317D5266816F1010F0ED1DFF8E9
S315000068005808016800291FBF0A68002AC8680AF0EC
S315000068100DFC0AF082FC0646266002E030460AF0CD
S31500006820DEFC05B12E6070BD00000000EC100846CD
S3150000683038B5DFF828480B7822684978C2EA03425F
S3150000684042EA016527E00000EC100840EC1008441D
S315000068500440084018700844187008460C5F002071
S31500006860645F00200100181890500840280F00218E
S315000068700040084618600846301008401C0F0021EA
S3150000688038B5DFF8D84722680B784978120C43EA06
S31500006890024242EA0125FFF71BFB00B125600020FA
S315000068A032BD70B500F090F9002628B104F1280138
S315000068B028460BF021FD0646304670BD70B50446ED
S315000068C00D4694F86000032801D1022070BD261DF4
S315000068D0316A357081B12046FBF75DFF40B9306201
S315000068E02046FCF74AF801462046FBF770FF03E016
S315000068F0E9B2204600F002F8002070BD10B50C4643
S3150000690090F86010032901D1022010BDFFF7E0FACC
S3150000691010B1E0B20BF0A4FD002010BD80B5084612
S315000069200BF03FFD002002BD0BF043BD2DE9F04109
S3150000693004460F466069012815461E463DD000F004
S31500006940D7F9002839D0FFF7F3FC012803D001213D
S315000069500120FBF716FFA889D5F804803F1ABFB2BD
S31500006960402F06D3A968B809484308EB801807F0FA
S315000069703F070BF0DBFF404507D10BF0DAFFA968B4
S31500006980884204BFF6B2002E10D0A96840460CF02B
S3150000699002F808B1022011E00BF0E2FF002814BF54
S315000069A0DFF85C07DFF860070CF0E7F82046FFF732
S315000069B0D3FB0121F8B20CF059F80020BDE8F081B4
S315000069C00000000018600844C9B280B5002914BF51
S315000069D020220022202100F02CBB20210AF074BACC
S315000069E058B5064688B20BF0A5FB04463046FFF7BD
S315000069F06FFA18B1DFF8140761420160002052BD3A
S31500006A00F8B5074600F032F8032618B300F0AEFBDF
S31500006A100746DFF8B813022008606A480068000ECF
S31500006A2000F00F00082818BF072803D0092818BF50
S31500006A300C2804D1DFF8AC020068800304D4E9B264
S31500006A4020460AF0E7FF064600F029F8384600F02F
S31500006A508AFB06E0EAB2214607F19000FBF7FEFD4D
S31500006A6000263046F2BD00008C4008400C46154614
S31500006A70FFF72EBAC9B2002914BF08220022082146
S31500006A800AF004BAC9B2002914BF4FF4807200227A
S31500006A904FF480710AF0FAB908210AF015BADFF846
S31500006AA07816022008607047000000004400084085
S31500006AB000280CBFDFF81403DFF85C064FF4807182
S31500006AC00160704770B5DFF84846DFF8481625784C
S31500006AD0DFF84826ED074FF4806303D505000CBFA9
S31500006AE013600B602678B6074FF4006503D50600E1
S31500006AF00CBF15600D602678760703D506000CBF1F
S31500006B0053604B6023781B0703D508B9556070BDE9
S31500006B104D6070BD002814BFDFF80403DFF80403DE
S31500006B204FF4806101607047D55E000038B50446B9
S31500006B300D46680800F00100FFF7C4FF05F00400E9
S31500006B40FFF7E8FF2046FFF748FF20B105F00100F8
S31500006B50BDE83240ACE731BDF8B500F035F870B3AA
S31500006B60A878E978884201D00120F2BD6878010052
S31500006B7002D1FFF77AFD01E0FFF74BFDA878DFF8B9
S31500006B80A06540F6FF7700280EBF3760204600F06C
S31500006B90E0F8E87840B9DFF88012376360200860D3
S31500006BA04020DFF8741509E0DFF8701260200860F5
S31500006BB0204600F0E7F84020DFF84815086000207E
S31500006BC0F2BD00000440084004460D46FFF780B9B8
S31500006BD038B50C466A460BF02FF8050018BF002C96
S31500006BE010D02078010018BF08280BD000F0BEFA9C
S31500006BF0DFF830150D62BDF800204A8062888A8071
S31500006C0000F0B1FA284632BD00000000800F0021D6
S31500006C100C50084010B50C46002818BF002C84B054
S31500006C2006D0032806D2002200210BF005F808B989
S31500006C30012055E000680090BDF800209DF8021084
S31500006C40120401F0070002D4821F022A01D3022097
S31500006C5046E007280CBF012000202073080900F039
S31500006C6001006073C1F380102074C1F3C00060742A
S31500006C70C1F34010A07409F099F80246C0B238B3C7
S31500006C80207A00B90222BDF80000831F9BB2D2B25F
S31500006C9001A901200AF059FE01A841784900E173D3
S31500006CA09DF90410A173217AC9B18178C37800795E
S31500006CB041EA032141EA00409DF8091040EA0161DA
S31500006CC0DFF8640400682246343009F0CBFA06E0A7
S31500006CD0E0736FF07F00A073002020602072002018
S31500006CE004B010BD88400840200F002118700840ED
S31500006CF02046FFF7EDB8F8B50C469BB200F023F836
S31500006D0006DAB3FA83F1D1F1190148BF002507D499
S31500006D1000F019F8BABFB3FA83F1C1F119050625D7
S31500006D200121AB1D01FA03F6B7B291B28F4288BFBB
S31500006D300F46FFF7CDF820B1EAB2394620460AF0F1
S31500006D4092FDB0B2F2BDB3FA83F1C1F11901062981
S31500006D50704780B5FFF7BCF880B10020FFF7A0F8B8
S31500006D60DFF8C823012111604FF40051DFF8C0237A
S31500006D70116018B1BDE80440002123E001BD000008
S31500006D802C50084010B5FFF7A3F8B8B10120FFF763
S31500006D9087F8044601210020FFF78EF8DFF88413F8
S31500006DA0002008620AF002F8DFF888134FF400505A
S31500006DB008601CB1BDE81040012103E010BD0000D1
S31500006DC04C5008460120FFF777B800008840084677
S31500006DD010B50CB214F1010F01D1012010BDFFF75F
S31500006DE077F870B143F6FF70844206DA14F5804FE7
S31500006DF0B4BF4FF48040C4F30E00DFF844130860BC
S31500006E00002010BD186008409440084670000844F1
S31500006E10840008409440084444000846440008445E
S31500006E201C6008461C6008442DE9F84F054600F032
S31500006E3083F8002608B9BDE8F28FDFF81CB2DFF848
S31500006E400473DBF80080D7F80090D7F804A0214639
S31500006E5005F1280008F048FFDBF80040386879683B
S31500006E60DFF8AC2248450ED01378870A03F0FE03FC
S31500006E7007F001073B43C00A03F0FD0300F00100E1
S31500006E8043EA4000107051450FD010788B0A00F08D
S31500006E90FB0003F0010340EA8300C90A00F0F70093
S31500006EA001F0010140EAC10010704FF6FF71288918
S31500006EB0884205D05268100002D02989284690479A
S31500006EC0444532D00021002C1EBF20680028A1684E
S31500006ED0284600F034F8002C1CBF2068002801D09A
S31500006EE0206920B9B04600270024002104E0D0F82C
S31500006EF008800768C489416805F1280009F067F928
S31500006F00060007D14246394605F1280009F05BF92B
S31500006F10060001D030468EE7214605F1280009F02B
S31500006F20CBF805F1280009F04AF9287840F002006C
S31500006F302870EFE7700008400C46FEF7C9BF70B531
S31500006F400E0082B00546DFF800420AD10022072172
S31500006F5009F09CFF00F034F858B30020C4E90000A3
S31500006F6073BDFEF7B5FFF8B1DFF8CC110720086056
S31500006F700121307920707079009068460BF068FE28
S31500006F800099C14000F00F0040EA01106070B0792E
S31500006F90A070F079E0703168DFF8B00101603079F7
S31500006FA0DFF89811401C086007220721284609F0DF
S31500006FB06DFF73BD000000004C0008405C500840A7
S31500006FC02846FEF785BF10B5FFF7B6FF20B1E0B241
S31500006FD0BDE8104008F079BFDFF8740110BD80B538
S31500006FE00BF044F8BDE8044000210BF08FB870B5F3
S31500006FF005460C4600F023F8CCB1A078092801D349
S31500007000012070BDE1780929FAD200F00F0040EAAC
S315000070100116FFF7D5FF50B1DFF83801616801604E
S31500007020DFF834012178017061784170C670002064
S3150000703070BD09F02BFF00B10120C0B202BD80B5C2
S31500007040FEF746FF30B1BDE804404821DFF80401F1
S3150000705002F03CBD01BD0000F00F0021280F002109
S31500007060F8B5D2B2022A3CBFDBB2042B01D3012011
S31500007070F2BD5408394D01272E5D03EB8202C9B2D9
S3150000708007FA02F2002914BF16439643FEF720FFC3
S3150000709000B12E550020F2BD0BF0EEBD38B50D4601
S315000070A00446298804F1380008F0F0FF288004F12E
S315000070B04000698808F0EAFF688004F13E00A9886C
S315000070C008F0E4FFA88004F13C00E98808F0DEFF40
S315000070D0E88004F12800298908F0E6FF288104F1F8
S315000070E02800698908F0E8FF6881FFF701FE18B1FA
S315000070F004F1280009F063F8002032BD0BF097BEBA
S31500007100C0CF6A0088400846E0673500240F00219A
S31500007110707A0020A000084488400844A000084671
S3150000712024100840645F00200C5F002028100840EF
S315000071302410084454100844040008441800084069
S3150000714040300840A0000840740F0021780F00214D
S3150000715000FEFFFF2C0F0021700F0021720F00218F
S31500007160C9B2FFF730BF00B962B67047EFF31080BF
S3150000717072B67047F8B50F46144647F6FF718C4253
S3150000718001D1FF20F2BD2D4E716800291CBFB168E8
S31500007190002901D0F16811B92A21FAF79FFB384678
S315000071A00BF08AFE012F01460BD10622F16831F958
S315000071B012108C4203DA521E12B2002AF6D1501C6B
S315000071C039E0B1F90000A042B8BF044603DB1C4811
S315000071D08442B8BF0446A4F1C800282290FBF2F00E
S315000071E042423078034612B25D1E9542BCBF421E33
S315000071F012B24D6805EBC2004668B0F9020010FBFA
S31500007200046000284FBF002000F5FA704FF47A762C
S31500007210B0FBF6F0521C12B29A4203DA35F832602D
S315000072208642E6D205EBC20131F8081C814238BF1E
S31500007230084600B90120C0B2F2BD00BF2C7500207F
S31500007240C880FFFFD0B5274E0F46716800291CBFC6
S31500007250B1680029144601D0F16811B92A21FAF75C
S315000072603DFB012F0BD1082CA8BF072401DA200013
S3150000727000D0641EF068E4B230F91400D0BD2000DE
S3150000728001D11948D0BD38460BF016FE022C4168D4
S3150000729002DAB0F90200D0BD002F0CBFFC22F822A2
S315000072A0944202DBB0F90000D0BD3078401EC0B277
S315000072B0002200E0521C824201EBC20302DA1E8960
S315000072C0A642F7D24FF47A715A68B3F9020011FB5D
S315000072D004F1891A00EBD07201EB620191FBF0F028
S315000072E000B2D0BD2C7500200CFEFFFF002806D58D
S315000072F00B4900F00F00084410F8040C01E009499E
S31500007300085C400970470849420951F8221000F00C
S315000073101F00C14001F0010080F00100704700002D
S3150000732018ED00E000E400E000E100E0012100F0DB
S315000073301F0291401F4A04E0012100F01F02914004
S315000073401D4A400942F82010704780B51120FFF70A
S31500007350F3FF1120FFF7EAFF0920FFF7EDFFBDE875
S3150000736002400920E2E738B504460D46FBF7F2FB7A
S31500007370124941F82450BDE83240FBF728BC38B525
S3150000738004460E4D0CE094FAA4F0B0FA80F0012108
S3150000739081408C4355F820100A001CBFC0B28847B4
S315000073A0002CF0D131BD0649C8680A68104045F284
S315000073B0555210E000E100E080E200E008640020A1
S315000073C01CA40040004901E01CA40040C8680A68EB
S315000073D010404AF6AA2210408860D0E728B9034830
S315000073E0016003480068FAF779BA7047945F002095
S315000073F00C5F0020012100F01F029140504A400915
S3150000740042F82010704730B50FF26C104D4D0FC882
S3150000741087B003AC84E80F006846002100220023F1
S315000074200EC002208DF8060001214748474CFCF7A4
S31500007430FBF94FF6FF70E0616A46002120460BF02B
S315000074409DFD00208DF80E0003A920460BF04AFD95
S315000074503F48FCF719FA9DF80E1001228A40491C94
S315000074608DF80E10B0FBF2F0C9B20B29686002D29B
S3150000747038498842E8D23848FCF706FA37496A683C
S31500007480B1FBF0F336480021E3FB0201354A002345
S315000074900BF0AAFDA86000202870A06920F010005B
S315000074A0A0610A20FFF7A6FF2F494FF4806008600D
S315000074B007B0002030BD38B500F01BF804460D4675
S315000074C005E04FF6E85000F02AF800F00CF800212D
S315000074D08D424FF6E950F4D88442F2D2A0B200F0C1
S315000074E01EF8002032BD21484FF0FF3124184D41CF
S315000074F0704714491A4A49680023E0FB01231046E5
S315000075001946184A00230BF06FBD19480168C906D1
S3150000751004D51021816001200A49087070470100D6
S3150000752081B00BD013490A6892B20B68ADF80030EF
S31500007530BDF800309B1A9BB28342F6D301B0704768
S3150000754080E200E068620020000204000080014042
S315000075504041050081841E005000020000B0710BFE
S3150000756020A1070040420F0000E100E01802FFFFE3
S315000075700C80014024800140010000000000000052
S31500007580000000000000000010B52F4C0120207004
S3150000759082B0002006F052FC38B1002006F04EFC06
S315000075A018B100202070492016BD02237F22002139
S315000075B0684600F00BF8BDF80000B0F57F7F03D0F9
S315000075C000202070072016BD002016BD10B5FF292B
S315000075D007DC1D4C247844B1BDE81040C9B206F062
S315000075E0E1B8BDE81040FBF7E5BD10BD2DE9F0415F
S315000075F00546FF2D0E461746984615DC124C207898
S31500007600C0B1607828B14FF4CE710FF24000F9F79F
S3150000761087F801206070434632463946E8B206F0E4
S315000076202FFA0020607005E042463946BDE8F04179
S31500007630FBF7E3BDBDE8F08103490978002918BFCF
S3150000764006F01FBB70470000657A0020746F6B65FB
S315000076506E2E6300012100F01F029140DFF8C02268
S31500007660400942F82010704770B50546FBF772FADC
S31500007670002600242821DFF8AC2201FB06F3134480
S315000076809B7F13B1761C042EF7DB042E08BFDFF8B0
S31500007690984208D02DB17143114401238B772E6097
S315000076A001E0DFF88842FBF792FA204670BD38B554
S315000076B0DFF87C42A07808B1002032BD0120A0701E
S315000076C00121DFF87002DFF87052FCF7ADF80321F4
S315000076D0DFF86802FCF7ECF9032028710121DFF8D6
S315000076E06002FCF7A1F828460BF00DFD05F10C0130
S315000076F001200BF0F1FCDFF84C52E869C00AC00229
S31500007700E86140F2FF70A861002028601D20FFF7A5
S31500007710A1FFDFF834124FF000500860A021E8699D
S3150000772040F00100E861DFF8FC0102F0CFF900202B
S3150000773020706070A060E060206132BD30B500232B
S315000077407B488049C4680A68C0688442F8D19818A2
S3150000775044EB030130BD30B54FF4FA5200F004F8A3
S31500007760C00B40EA414030BDA2FB004502FB01557B
S3150000777014F5804045F1000170472DE9F041FBF713
S31500007780E9F9704D6A4F8046E869296900EA010601
S3150000779026F00500A861700717D5012038702C68FF
S315000077A000F01FF8201A00F022F800F074F82046C6
S315000077B000F081F82C68E86C797821B17968401A74
S315000077C0611A8842ECD300203870F00704D50120F6
S315000077D0A861F868401CF8604046BDE8F041FBF738
S315000077E0F6B9E86920F00400E861786870472DE989
S315000077F0F04300260446002528214A4871434718CD
S31500007800387F7D77002841D0D7E900018D4207D81F
S3150000781028BF844204D2001BA941C7E9000135E014
S31500007820F87F08B938772DE0D7E90001D7E90223B8
S31500007830201AD7E9028965EB01010BF0D5FBB8EBFD
S31500007840020069EB0301C7E90001386939690128BB
S31500007850786909DB0818F428786113D3D7E90001A1
S31500007860401C61F1FF3108E0401AF428786109D321
S31500007870D7E90001401E61F10001C7E900017869FE
S31500007880F4387861B86908B101207877761C042E3F
S31500007890B2DBBDE8F08310B50024282121486143FE
S315000078A04218507F18B1116A926920469047641CAD
S315000078B0042CF2DB10BDF0B54FF0FF321346002169
S315000078C0184C28254D436619367F46B12544D5E91F
S315000078D000679F4203D82EBF964232463B46491C5C
S315000078E00429EEDB00244FF0FF36B34208BFB24254
S315000078F00F4912D00025AB426FF0640401D8A242B2
S3150000790000D32246114B486004241C6010185863AB
S315000079100124586840F0040058604C70F0BD000027
S3150000792080E200E0A8600020011000F0041000F0E2
S315000079305462002000050800585A00200500200067
S31500007940800912000820044000E100E020200440E5
S315000079502F280ADA1C4A32F81030C918B1F5803FD0
S3150000796028BF4FF6FF7122F81010704710B5044675
S315000079702F2C04DB23210FF25400F8F7D1FE124816
S3150000798030F8140010BD2F2803DA0F4A002122F820
S315000079901010704738B50146FF290B4C09D1002558
S315000079A034F81510E8B20BF08DFD6D1C2F2DF7DBAA
S315000079B031BD34F81110BDE834400BF083BD5E22B2
S315000079C000210148FEF776B898720020636F756E45
S315000079D0746572732E63000010B5DFF8804304F1FE
S315000079E00800FCF7E5FD04F10A00FCF7E1FD04F1EF
S315000079F00C00FCF7DDFDBDE81040DFF86403FCF782
S31500007A00D7BD10B5DFF85423DFF8583314781B7848
S31500007A10234306D1DFF850331B780C2B03D0022901
S31500007A2006D0002010BD012908BF02F10C0301D0C9
S31500007A3002F10A0301460022184606F0A0FC0CF0EB
S31500007A4079FF012010BDDFF81403417919B901212E
S31500007A5041710CF06FBF7047DFF80803007800B182
S31500007A60704710B50DF022F9DFF8F042208128B9F1
S31500007A70002104F10A0006F0B3FC2081208928B910
S31500007A80002104F10C0006F0ABFC208120890028BF
S31500007A9004BF207800280ED16079022803D00DF0AB
S31500007AA03CFB208138B9607928B10DF0DCFC2081DF
S31500007AB008B10020607110BDA8488079704780B574
S31500007AC0A0F10B01102901D3002002BDA349887142
S31500007AD0042000F02AF8012002BD00009F4801782A
S31500007AE0491E00220329027000D9704780B5DFE8DD
S31500007AF001F002060A0EBDE801400DF0A1BDBDE889
S31500007B0001400DF0EFBDBDE8014001F012BD8079E6
S31500007B10F9F71BF820B1F4210FF26820F8F700FE00
S31500007B20BDE801400CF006BF01BD38B504460DF0B6
S31500007B3091F98A4D687940B10020687101F039FBEE
S31500007B40032804BF40200FF0A1FB287808B10020CD
S31500007B5032BD86480078052808BF0CF08CFF2C70D3
S31500007B6000F007F818B1FFF7B9FF012032BD022077
S31500007B7032BD38B5FAF7EEFF0446784D05F10A0036
S31500007B8006F0E0FBA0B105F10C0006F0DBFB78B1D6
S31500007B9076486979007808430AD10CF0D7FF38B9DE
S31500007BA0734810F05DFF00F0010080F0010500E071
S31500007BB000252046FBF70BF8284632BD10B56B4969
S31500007BC0664C00200870208120706081A081FDF73E
S31500007BD09BF911F0CEF8607011F0CBF8A0706448F4
S31500007BE011F032F8634811F02FF84FF4A0516248B3
S31500007BF011F0EAF800206071BDE810400CF0ADBF4E
S31500007C002DE9F04104465D48544E0578308928B97F
S31500007C1040F28F110FF26C10F8F782FD281FDFF883
S31500007C205081524F0ED0801E012814D8052038707E
S31500007C30214628460DF0B9FE08B900F018F80020D4
S31500007C4030810BE0312C05D03878022803D1200092
S31500007C5001D10120F070347100F009F8042D04D030
S31500007C607079012804BF02207071BDE8F0810320FD
S31500007C7038700021404610F097BF38B5374D297946
S31500007C8004460DF06CF828B929792046BDE8344041
S31500007C9005F023B931BD2DE9F8430446FCF725FF6D
S31500007CA0471D05212046FDF785F90546384611F0A2
S31500007CB031F905F44C483E5C280701D5042E4AD11B
S31500007CC02F4806704FF4406005424FF6FF7906D004
S31500007CD0F81CFCF793FA484508BF48F0400805F43D
S31500007CE04060B0F5006F06D1781DFCF787FA48456D
S31500007CF008BF48F01008012E4CF6500015D0022E91
S31500007D0016D0032E0ED0042E08D0062E21D0072E14
S31500007D1008D0082E15D07C2E0ED01CE020460CF084
S31500007D2081FFC0B90020BDE8F283B8F5484FF9D00D
S31500007D30B8F54C4F0FD1F5E7B8F54C4FF2D080456A
S31500007D40F8E74CF64040804505D1074800780728FB
S31500007D50F0E78045E6D00120E5E70000CA7D002077
S31500007D601C7A002056610020E85E0020FC7D002081
S31500007D70645E0020EC5E0020387A0020F45F00206C
S31500007D800A7E00206D61632D617262697465722ED0
S31500007D906300000010B53F4A014652F821301C002E
S31500007DA005D0002442F82140BDE81040184710BD18
S31500007DB00020EFE72DE9F84304460E46300015464D
S31500007DC003D111F0CBF8281831E02746022F0FF225
S31500007DD0D40802DB4B2100F050F8DFF8B89059F8D0
S31500007DE0270010B14C2100F048F8B5F1004F02D33E
S31500007DF04D2100F042F849F82760200002D05021BA
S31500007E0000F03BF8244E254B306801222946FAF74C
S31500007E10C0F938B111F0A2F805462046FFF7BAFFBF
S31500007E20681E04E03068BDE8F243FAF7BDB9BDE864
S31500007E30F2832DE9F04105462F46022F0E460FF23A
S31500007E40640802DB5D2100F018F8FAF783FE0446A9
S31500007E50104850F82710B1420AD1002140F82710E7
S31500007E6015B1642100F009F80B480068FAF7A0F98B
S31500007E702046BDE8F041FAF7AABE4046F8F750BCE6
S31500007E800CF0E6BD010008BF0120020104490020F4
S31500007E9090E700004C7A002068610020B17D000068
S31500007EA0817E000073796D626F6C2D74696D6572E9
S31500007EB02E6300000020704700B1022070470120A9
S31500007EC0704700000B494A680B68920002F03C02BA
S31500007ED0C3F381131A4382700A6802F03F024270AC
S31500007EE08A68C96802F0F002C1F3031111430170F8
S31500007EF070470000E0FF0FE010B50FF2F0000FC86A
S31500007F009EB010AC84E80F0010A800F06DFA01A82E
S31500007F100FF2C4011422FAF7B1FB69466846FAF774
S31500007F20FDFD18B1BDF80000ADF80A0001A8FBF789
S31500007F3058FE00F04BF8214806F02DF800F046F800
S31500007F4004211120FBF7B4FD002200210320FBF7DA
S31500007F508BFE03211A48FBF7ABFD03211948FBF7FB
S31500007F60A7FD03211848FBF7A3FD01A80FF28C011A
S31500007F701422FAF783FB01A80AF00EFF14A80FF2E9
S31500007F8090012422FAF77AFB06A814A92422FAF70C
S31500007F9075FB1020ADF83C00ADF83E0006A9202088
S31500007FA0FDF7E6FA38B901230422052106F090F818
S31500007FB0F9F738FE00201EB010BD000000F049029F
S31500007FC002001A0003001C00050020000122012106
S31500007FD00220FBF749BE000000000000A00055018A
S31500007FE00A200706020A040700000000000108072D
S31500007FF00F000A00C8002000A000000002000000D8
S31500008000006A180005010B00000006010D000000C3
S315000080100000014000C20100000000100000000046
S31500008020000000000000000000000000000000004A
S3150000803000000000012100F01F029140DFF84C22F1
S31500008040400942F82010704700BF38B5DFF84042BB
S31500008050E06821680840DFF83C120AD5486B0568DD
S31500008060290003D000F015F80021A8474FF0004082
S315000080700BE040000AD5086B0568290003D000F024
S3150000808008F80121A8474FF08040A060BDE83140C4
S3150000809049E00021C0E90011EBE000BF38B5DFF888
S315000080A0F841216801290CBF012500254128B8BFE8
S315000080B0002003DB5028B4BF01200220DFF8DC11CA
S315000080C001EBC001D1E900237249C1E900237449DB
S315000080D001EBC001D1E900237249C1E9002329005F
S315000080E01CBF4AF6E8512160002818BF022801D0BB
S315000080F002D2012000F00DFB0DB10020206031BD41
S315000081006449896B00EB8000A1EBE00080F3080076
S31500008110C0B2704764484FF040410160416821F0A9
S31500008120404141607047F0B55A48026B002150F853
S31500008130313043B1146800EBC1031CB114791D79C9
S31500008140AC4200D21A46491C0629F0DB02631368CA
S3150000815056495BB10B681B0A1B020B600B68127950
S315000081601A430A604A6942F0804202E04A6922F0F4
S3150000817080424A610022436B4A4C54F8325045B162
S315000081801E6804EBC2051EB12E791F79BE4200D2CD
S315000081902B46521C062AF0DB43631A6862B10A6852
S315000081A022F47F420A600A68187942EA00200860D1
S315000081B0486940F0004002E0486920F0004048610C
S315000081C0F0BDF8B5364C334D0120207630212846D7
S315000081D001F07CFC00F049F805F140002863686373
S315000081E033480168406DC1F3074100F0FF00FF29E5
S315000081F012BFFF281921902001EB810200EBD20269
S31500008200AA63C0000522B0FBF2F04018E863684696
S31500008210FFF758FE9DF8010001281AD141201F4D95
S31500008220244EFFF76DFF28712E603920FFF768FF97
S3150000823007465020FFF764FF2773A6602873AE60D9
S315000082404820FFF75DFF2075266100F012F8FFF762
S3150000825025FFFFF75FFF0020FFF7ECFE1649012020
S315000082600860FFF760FF0020F2BD30210D4801F0E5
S315000082702DBC124807490068C96B0006400D05224F
S3150000828090FBF2F0081A00F30700704780E200E066
S3150000829024300E404864002008300E40DC64002084
S315000082A0C0640020906400202C300E401C300E402C
S315000082B0B081E00F9B80000000E100E020300E401E
S315000082C0890001EB401000F184400260704789008C
S315000082D001EB401000F184400068704770B5DFF88C
S315000082E090140A680378920903B10423447804B110
S315000082F00224857805B10825C6780079012E18BFB5
S31500008300002643EA821222432A433243104308607E
S3150000831070BD10B5DFF84C040168C1F30322DFF825
S3150000832048144B8803F12804521C03EB54032833EA
S3150000833002EB8204B3FBF4F35B1E0468072B34BF25
S315000083401B064FF0E06324F0EE64234343F48013EE
S315000083500360B1F90610002913D489B201F128038C
S3150000836001EB53015308283103EB4202B1FBF2F152
S315000083704268072934BF0901702122F070021143B7
S31500008380416010BDF8B50446DFF8E853686AC007D7
S31500008390FCD4DFF8D863306810F0030704D001225C
S315000083A00D212846FFF78CFFA74202D1DCB9002237
S315000083B014E02FB9012C03D1DFF8AC1302200870AA
S315000083C0686AC007FCD43068800844EA80003060E0
S315000083D0686AC007FCD4220018BF01222846BDE8FF
S315000083E0F8400D216CE7F1BD70B50446DFF888034F
S315000083F082B002210160006800F00F00022840F000
S315000084008580DFF87803006810F1010F13D0DFF8DC
S315000084107003416802681160C16882681160416931
S3150000842002691160C16982691160416A026A11605C
S31500008430C16A806A0160E0884B2838BF00200DD3EE
S31500008440B0F5FA7F38BF4FF0805007D340F6C4111D
S31500008450884234BF4FF000504FF04050DFF82453AD
S31500008460DFF824332969B4F90C20DFF8F8621940E3
S31500008470D243084340EAD27028610021306A40F0B6
S31500008480807030623046FFF722FF00B1042000F012
S315000084902FF9706920F0C0407061306840F0060026
S315000084A030606846FFF70EFD9DF80100DFF8B81250
S315000084B0012813D19DF8000003280FDA087868B95F
S315000084C0A868DFF8C82240F00100A8607069104073
S315000084D0DFF8BC22104370610120087020894880B3
S315000084E0A089C880A088888000F0CFF8A07B20B142
S315000084F0012805D1DFF89C0201E0DFF89C02F0605C
S3150000850060880122012100F011F808B9002076BD2B
S31500008510A27A02B1012205212846FFF7D1FE607832
S31500008520FFF730FF012076BD000000002DE9F84777
S31500008530A0F5E163B3F5966F00F2A580B0F5E16FA3
S31500008540DFF858524FF4966807D92C6801234FF488
S31500008550E169260EC4F3074A08E02C68C1460023E9
S315000085604FF41678C4F3072604F0FF0ADFF8F44147
S3150000857027683F0F07F0030700974FF0000E009F94
S3150000858053EA0727F44614D07F1E1ED0FF3F0ED0B5
S315000085907F1E14D0FF3F08D07F1E0ED0FF3F02D0B3
S315000085A07F1E08D016E0AF680AE0AF680EE06F687D
S315000085B006E06F680AE02F6902E02F6906E0EF68BF
S315000085C04FEA176CC7F3074E04E0EF68C7F3072CB2
S315000085D007F0FF0EA0EB0909A6EB0A0000FB09F065
S315000085E0B0FBF8F05044ACEB0E0707FB09F78642E8
S315000085F0B7FBF8F828BF5045F04444D3C44528BF1C
S31500008600F04540D35AB12269DFF89471002B14BFAC
S31500008610022600263A4042EA00203043206179B320
S31500008620DFF880010068C0B2042802DA686983B105
S315000086300CE0A8690099032925D8DFE801F00A07AC
S315000086400402000E07E0C0F3074004E0C0F3072071
S3150000865001E000F0FF00000330F4704113D1216AFD
S3150000866021F4704108432062B8F1E70FA06928BFE2
S315000086704FF0E708400A43EA480141EA4020A0617A
S315000086800120BDE8F2870020FBE710B535494B6AAB
S315000086900C68E4074FF0FF3203F0070312D5022BF4
S315000086A010D3142815D3143814281FD30F220868A2
S315000086B020F47F4040EA022040EA02300860BDE82C
S315000086C0104026E60C68E40709D4022B07D20A28D4
S315000086D001D20322EBE70A380A2807D3E6E70C683B
S315000086E0E407E4D5022BE2D22828DFD20722DEE710
S315000086F038B504461B4D00212846FFF7E8FD686A99
S31500008700C00844EAC0006862BDE832401648808866
S31500008710BBE710B5022100220300234BDC6A08BF29
S315000087200021012C03D14AF6E8540122DC6202281A
S3150000873018680CBF20F0740040F074001860986B45
S3150000874040F0080098631948046824F4406444EA39
S3150000875081210160986B20F0080098630AB100201F
S31500008760D86210BD4C300E400C7D002040300E40CB
S3150000877018300E4054300E4038300E401C83E00F47
S315000087803880E00F3C300E40FEFFFFCF000F0EF0AA
S31500008790B4C0400B372110B7774020571883E00F3D
S315000087A0FD80FFFF0082E00F64310E403C400E402A
S315000087B004480168090C090481600148016070479A
S315000087C0506200201CA400400549027B0A70026822
S315000087D04A6042688A608068C8600020704700BFAF
S315000087E02C75002038B5FBF79EFB0446FBF797FB7C
S315000087F00020002124FA01F2D20713D50FF28400DB
S315000088001D4C30F8110006284CF23C324FF20F0393
S315000088101DD16088984216D12188080A0C2812DAE0
S31500008820084612E0491C89B21129E3D3134908818D
S3150000883040F201720889904204D11148D0E9002320
S31500008840C1E9002331BD4FF4C0606280EEE740F21B
S315000088500725A84201BF618899422188A942E5D12E
S3150000886062800846E2E705480089000A7047034827
S315000088700089704701487047000000200062002010
S315000088809400002001040000050B060B070B0000F6
S3150000889000000000010301090600010500000000B8
S315000088A0000000000306000001207047802108F048
S315000088B00BBB80B50FF28811F9F717FF002002BD38
S315000088C010B504460FF27010008886B00023ADF88C
S315000088D00C00002203A80290002102200190002033
S315000088E0009000F01DF8010009D103A802900023B2
S315000088F00420019000220220009000F010F80100F0
S315000089000BD104A80021C0E90011029000910820B3
S3150000891001900023012200F002F806B010BD0121EB
S31500008920204608F0E9BA00B585B000F012F8022139
S3150000893001910021009108E000B585B000F009F82A
S315000089400421019102210091012108F0D5FA05B018
S3150000895000BD531C8DF80C10DBB20904090E8DF80E
S315000089600D10002203A902917047E0B50291531C35
S3150000897008210191DBB2002100910122012108F0BA
S31500008980BBFA0EBD80B5C9B2002914BF4FF48032C0
S3150000899000224FF4803108E080B5C9B2002914BF27
S315000089A04FF0807200224FF0807108F06FFA0020BD
S315000089B002BD1206C9B2120A42EA01611B06DA09B1
S315000089C002F4F01280B5114341F0B0020F49ECE712
S315000089D010B5FFF769FF0224A8B10D480068000E24
S315000089E000F00F0002281CBF032807280BD10948F6
S315000089F0094904600968890302D4102181600024B2
S31500008A00064902200860204610BD0000B8011F017B
S31500008A10044008408840084688400840884008448A
S31500008A2080B50FF2180109788DF800100122694609
S31500008A30FDF7E6FF02BD0000FFFF00000500000095
S31500008A4008BB030068BC0300A8B9030003000000CC
S31500008A50DFF800F0C9590020DFF800F0595900206E
S31500008A60DFF800F0C559002038B504460D4610F071
S31500008A7077FA012C02D1FFF7EBFF02E02846FFF759
S31500008A80EBFF18B110F075FA012032BD10F071FA43
S31500008A90002032BD10B5C20782B01BD402884FF643
S31500008AA0FF739A4201D00A0014D18408A4008007FB
S31500008AB022684EBFC2EA0140100C41EA0040009015
S31500008AC010F04EFA042269462046FFF7C9FF18B196
S31500008AD010F04FFA012016BD10F04BFA002016BD1B
S31500008AE070B504460D46164604E010F042FA241D01
S31500008AF02D1DB61EB6B1012E01D0A00706D535F83C
S31500008B00021B2046FFF7C6FFA41C761E022EF1D3D9
S31500008B1010F026FA042229462046FFF7A1FF002876
S31500008B20E3D001E0002070BD10F023FA012070BDF3
S31500008B3070470020704710F041BA01207047704717
S31500008B4080B50FF24C10FBF7E0FCFEF745FF0FF285
S31500008B504C10FBF7DAFC0BF0F5FF0FF25010FBF7A9
S31500008B60D4FC10F075FC0FF25010FBF7CEFC10F0A1
S31500008B70B3FDA1A0FBF7C9FC11F0C4F90FF24C102C
S31500008B80FBF7C3FCDFF8680AFBF712FD0FF24C1087
S31500008B90FBF7BBFCFFF7CCFF0FF24810FBF7B5FC69
S31500008BA00DF0B4FC0FF24810FBF7AFFCDFF8440AF7
S31500008BB0FBF7FEFC0FF24C10FBF7A7FCDFF8380AB8
S31500008BC0FBF7F6FC0FF24C10FBF79FFCDFF82C0AC4
S31500008BD0FBF7EEFC0FF25410FBF797FCDFF86C0A7C
S31500008BE0FBF7E6FC0FF25C10FBF78FFCDFF8600A80
S31500008BF0FBF7DEFC0FF26010FBF787FCDFF8540A88
S31500008C00FBF7D6FC0FF26810FBF77FFCDFF8480A8B
S31500008C10FBF7CEFC0FF26C10FBF777FCDFF83C0A93
S31500008C200FF0AEFF0FF27010FBF76FFC11F0ACFF08
S31500008C300FF26C10FBF769FC12F0EDFA0FF26810F8
S31500008C40FBF763FCDFF8640AFBF7B2FCDFF8600AA7
S31500008C50FBF7AEFC0FF26010FBF757FCDFF8540A87
S31500008C60FBF7A6FC0FF27010FBF74FFC12F073FB3C
S31500008C700FF27010FBF749FCDFF83C0AFBF798FC93
S31500008C80DFF8B40AFBF794FCBDE80140FBF741BCF2
S31500008C904D41432061726269746572004D41432003
S31500008CA0696E6469726563740000000072657472AF
S31500008CB079207461626C6500364C6F5750414E20C6
S31500008CC0667261676D656E74730000006D756C7415
S31500008CD06963617374207461626C650077616B65AA
S31500008CE0757000006170706C69636174696F6E0005
S31500008CF0666F726D2D656E657267792D7363616E31
S31500008D00000000006E6574776F726B206461746199
S31500008D1000000000736C656570792062726F616493
S31500008D20636173742068656164657200676C6F6265
S31500008D30616C2061646472657373207461626C6532
S31500008D40000000006C6F63616C207365727665725B
S31500008D502064617461000000626F72646572207243
S31500008D606F75746572204E44206461746100000062
S31500008D706368696C642061646472657373207461EE
S31500008D80626C6500737461636B206576656E742032
S31500008D907175657565000000436F41500000000065
S31500008DA04A50616B65000000436F6D6D69737369AE
S31500008DB06F6E696E670000007363616E2072657383
S31500008DC0756C747320666F7220636F6D6D69737353
S31500008DD0696F6E657200000044544C53204A6F69F7
S31500008DE06E0000006C6F6F706261636B206D65735F
S31500008DF073616765730000005544500070B5DFF875
S31500008E00EC470546E0882A0601D4062D04D140F039
S31500008E10040005F07F0503E011B94FF6FB71084029
S31500008E202E46022E1CBF032E042EE08008D0052EEF
S31500008E300DD0062E18BF072E02D0F02100F079F9CA
S31500008E40A570A07804280CBF0120002001E00325AE
S31500008E50F6E70BF050FEE0884FF6F4710840062E58
S31500008E6008BF40F0020004D0022E14BF032E40F0CB
S31500008E700800E08070BD10B5DFF8704706281CBFFB
S31500008E80A178062901D0C10910D000F0F3FC00F04A
S31500008E9027FD04F108000FF0C9FD00F026F800F0E8
S31500008EA061FC0020BDE810400AF008BA21780329C9
S31500008EB00FD1A179C9070ED4032818BF04280AD1F7
S31500008EC000F0D8FC00F00CFD0121002014F065FB39
S31500008ED0E7E7042907D100F0CDFC00F001FD0120F1
S31500008EE002F098FCDDE77020DCE710B5F2B014F074
S31500008EF0C1FE10F012FB12F0E4FD15F01EFB10F09F
S31500008F007EF815F01BFD15F057FD16F0B2FB16F0B6
S31500008F102AFC16F031FC17F0C0FA02F0DDFA012047
S31500008F20F8F79BF917F06CFCFEF748FEFAF7ECF839
S31500008F30DFF8B8460020A0704FF6FE70F8F7CEFABC
S31500008F400020E08017F0CDFD18F047F81AF0F4F88D
S31500008F501BF0E2FB12F054F812F0F0F9BC237F226A
S31500008F60082142A8FEF732FB00F011F901A81BF018
S31500008F7042F9BDF854014FF6FF71884236D0BDF86C
S31500008F80040098BB082342AA0E210DF1060018F032
S31500008F90EEF8102344AA032118F0E9F8082348AA9A
S31500008FA0022118F0E4F808234AAA072118F0DFF88E
S31500008FB010234CAA052118F0DAF81AF035F9BDF895
S31500008FC05421012118F0B4F8DFF8702A00211AF0B4
S31500008FD025F9032357AA002118F0C9F80DF1060157
S31500008FE0401AADF8040001A81BF07AF9BDF8040098
S31500008FF000281EBF9DF8020000280120002100F075
S31500009000DCF872B010BD38B5DFF884190FF22C14F5
S3150000901000200880FBF711FAFAF7F2FFDFF874096F
S315000090204168C90703D5006810F0300F10D10FF260
S31500009030680529460020F8F79AFF29460120F8F727
S3150000904096FF2046BDE8344040F2AF11F7F768BB03
S31500009050FEF79AFA20B14FF4DA712046F7F760FB73
S31500009060F8F719FE0FF24C00DFF880450FF014FFF9
S31500009070607004F108000FF0CCFCDFF8C419002082
S315000090800860DFF8C0190860FFF7EDFB0DF0A6F9E0
S31500009090BDE8314029E70000537461636B2F4861D6
S315000090A0726477617265204D69736D617463680DD2
S315000090B00A000000000000000000000080B5FFF775
S315000090C0A2FFBDE8024000201CF048BBDFF8701983
S315000090D008607047DFF86C190860704710B500200B
S315000090E0F8F72EFCDFF86409007818B10FF23000AB
S315000090F0FBF79BFAF8F7C0FDF9F71BFEFAF72CF918
S3150000910003F06DF90BF0AAFEDFF83C4904F1080004
S315000091100FF008FD6078BDE810400FF0E5BE0000D6
S31500009120418B000000000000DFF81C0940780FF0BA
S31500009130DBBE0FF20800F7F7F3BA000069702D7373
S315000091407461636B2E630000F8F7BEB9DFF8F81898
S315000091508979890758BFF8F7A1B97047F8F7B8B900
S31500009160F8F7BCB9F7F755BD38B50446F7F751FD22
S3150000917005460FF6201000F008F88DF8034000F0C1
S3150000918029FA28460AF01EFA31BD00680090042329
S315000091907F220C216846FEF719BA80B5F7F72AFD3B
S315000091A0BDE802400AF000BAF7F720BDDFF8A008D4
S315000091B07047DFF894080078704770B50446DFF80A
S315000091C02C04067804700D46C188032C05D141F4A1
S315000091D00041C18002F03AF902E0C1F30E01C180FC
S315000091E0200004BF01200BF086FC2A4631462046AB
S315000091F0BDE870400DF0AFBFF8B506465E2200210F
S31500009200FCF758FCDFF8E4532878012806F1280417
S3150000921021D0DFF840781022B91C3046FCF7E8FB75
S3150000922006F1100016F082FA06F1180016F098FA08
S31500009230082207F1120106F12000FCF7D9FBF8F726
S3150000924047F92080F7F7D2FCA070A878E070F7F70E
S31500009250D1FC20712CE019F03BFF0746102207F1E4
S3150000926014013046FCF7C4FB082207F1240106F17D
S315000092702000FCF7BDFB082207F12C0106F11000C7
S31500009280FCF7B6FB07F158000423018821807F22F2
S31500009290807AA0700C210FF60000006800906846E6
S315000092A0FEF794F99DF8030020719DF80200E07026
S315000092B0A878032804D1A87900075CBF0520E070D0
S315000092C0F1BD2DE9F041044620000D4604D12846A3
S315000092D0BDE8F0411CF0CFBA012C04D1DFF87807C5
S315000092E01CF0DBFA20E0022C20DBD84E00213046B1
S315000092F005F03DF8022704E04146304605F066F8E1
S315000093007F1C80465FEA080010D0FBF7EEFB0028C2
S315000093101CBF016A0029EFD0F9B2A142ECD1811C31
S3150000932010222846FCF764FB012000E00020BDE87F
S31500009330F0812DE9FF4104460F46C44D0021284621
S3150000934005F015F81DE0FBF7D0FB060015D03078C8
S31500009350800612D5002C18BF002F07D03B462246A8
S315000093603946B01CFAF7EAFFB84206D13388326AAA
S31500009370F169DBB2B01C0AF090FE4146284605F0C2
S3150000938025F880465FEA0800DDD10FF210700FC89D
S315000093906C4684E80F0000230022002168460AF08C
S315000093A07CFEBDE8FF813EB5A84C0021204604F0B6
S315000093B0DEFF15E0FBF799FB70B10178C9070BD505
S315000093C0016A0291821CC16901910021009101216B
S315000093D0837C00200AF040FE2946204604F0F6FF72
S315000093E005462800E6D10020029001900090002357
S315000093F0002200210AF030FE37BD2DE9F04F8BB078
S315000094000446112200216846FCF754FB0026DFF8CB
S315000094104C86DFF84C76DFF84C9646E000220821B1
S315000094205046FAF751FF002854D1082251466846A3
S31500009430FCF7DEFA202EB4BF022006208DF80800C5
S315000094403868584490F911105F398DF80910007D7D
S3150000945010F00F008DF80B000EBFFF209AF81300D6
S315000094601CF040FD8DF80A0030461CF096FF8DF882
S315000094700C0030461CF088FF8DF80D009AF8150098
S31500009480C0098DF80E00FF2C38685844407D00F066
S3150000949007008DF80F009AF816008DF8100019D104
S315000094A06946304609F081FFEEB299F80000751C56
S315000094B0864214DAFF2C18BFB442F5D1182010FBEF
S315000094C006FB386800EB0B0A98F800008642ACDB16
S315000094D0202EA3DAFF2CE7D06946304607E005A820
S315000094E0142100F0F3FAFF2C03D105A9E8B209F024
S315000094F05CFF0BB0BDE8F08FAA210170BB21417063
S31500009500CC218170DD21C1707047DFF85C150A78C7
S3150000951082421CBF087005F0A9B8704710B5044612
S315000095201CF061FD20B92046BDE8104015F043BE91
S3150000953010BD00B5F7B04FF48172002135A8FCF7D5
S31500009540B9FA35A81AF0CCFE35A81AF0CBFEBC2223
S31500009550002106A8FCF7AEFA4FF6FF70ADF86400DE
S31500009560BC2306AA7F210820FEF740F8042200212A
S315000095706846FCF79FFA00F02DF80822002104A89F
S31500009580FCF798FA082304AA7F210520FEF72EF897
S315000095900822002102A8FCF78DFA082302AA7F21DF
S315000095A00720FEF723F815F01DF815F059FD0020E9
S315000095B08DF80400042301AA7F210320FEF716F884
S315000095C026480FF033FAFFF790FC00200CF007FF57
S315000095D077B000BD04236A467F210C20FEF706B84B
S315000095E00021DFF888040FF0DFBA0000C8790020F8
S315000095F0387D0020EC7600200E760020E67D0020E7
S3150000960038B5DFF86854DFF8684428460FF01CFBCD
S31500009610DFF8600400780C2810D02068142804D1E4
S3150000962001200CF0DCFE002006E04FF4FA7128461B
S315000096300FF0BAFA2068401C206031BD002020607F
S315000096400320BDE83240FEF770BA0000027A00201F
S31500009650C07D0020C27D0020307D0020D079002012
S31500009660F9F7FABB38B503460846154600241BB180
S31500009670022B0DD003D314E0DFF8FC1301E0DFF872
S31500009680FC13098808237F22F9F794FD082006E0D9
S31500009690DFF8EC1309887F22F9F78CFD0220287089
S315000096A001E02C707024204632BD00009475002025
S315000096B02E7D0020DC750020347D002010B584B09E
S315000096C000F03CF89DF80030014601AA20460AF059
S315000096D047FD1FBDFEB50E46174600F02FF80500E4
S315000096E025D19DF80000874218BF02251FD10146EB
S315000096F0FF2201A8FAF7E8FD08B9462517E01CB1D4
S31500009700022C0BD005D311E008223146DFF868039E
S3150000971008E008223146DFF8640303E002223146FE
S31500009720DFF85C030088F9F768FD00E0702529463C
S3150000973020460AF051FDF7BDE87D002004466A4642
S3150000974001A98FE780B5F9F7E4F9BDE804400021E7
S315000097500AF058BD80B5F9F7BBF9BDE80240002014
S315000097600AF059BD70B5B84C2078032888B07CD073
S31500009770012803BFBF4800780C28702076D1082343
S315000097807F22052105A8FDF721FF05A81BF0E8FFAC
S3150000979008237F22072103A8FDF718FF082203A943
S315000097A0B848FCF725F908237F22062101A8FDF712
S315000097B00DFF01A8F9F7A9FC19F0E7FC19F088FCE0
S315000097C0054605F15806B07AFEF779F93088F7F7BD
S315000097D085FE05F11400FAF791FDC1B205F11400FA
S315000097E001F060FE05F1240001F02AFE05F12C00CF
S315000097F016F0C8FA0FF2B420FFF7C7FCBDF8000058
S31500009800FFF7A4FC9DF90300F7F703FA9DF80200A1
S3150000981000F030F815F077FF14F0EEFE01F0F9F9DC
S31500009820A078062809D100210320FFF7C6FC0122F3
S315000098300021002013F04EFD17E0F7F745FE8005E6
S3150000984002D102F0B3FB10E0A078032818BF042869
S3150000985004D0022805D1A079C00702D402F0EDFB9E
S3150000986003E040F28151FFF764FC002009F014FD8B
S3150000987008B070BD0021FFF7C1BA80B51AF0F3FF3A
S3150000988017F0ABFB17F0BAFB6F488078062803D0B9
S31500009890BDE8014014F081BA01BD80B56A4801787F
S315000098A0032905D1784909884FF6FF72914201D103
S315000098B093200BE08078042818BF702006D17348E7
S315000098C00078042818BF052804D13D20BDE80240D1
S315000098D00DF0DCBC15F055F8BDE80140FEF7B3B855
S315000098E000B59FB007A8602100F0F0F807A8FFF7C1
S315000098F083FC0FF2BC10006800909DF848008DF8BC
S315000099000300F7F7E1FDADF800006A464E4880789F
S31500009910062818BF9DF847008DF8020004237F2112
S315000099200C20FDF763FE0FF28C1005A9D0E9002389
S31500009930CDE9052356481BF056FF082305AA7F21CB
S315000099400520FDF753FE0FF274104E49D0E90023AF
S31500009950CDE9032303A80822FCF74AF8082303AA43
S315000099607F210720FDF742FE0FF258103A49D0E951
S315000099700023CDE9012301A80822FCF739F80823C2
S3150000998001AA7F210620FDF731FE1FB000BD0000B1
S3150000999056760020E881E00F80B5F8F7FEFDBDE8B9
S315000099A002400AF043BC80B5F8F7F4FDBDE802407A
S315000099B00AF047BC80B5F8F7C6FDBDE802400AF0DC
S315000099C04ABC80B5F8F7E6FDBDE802400AF04EBC99
S315000099D080B5F8F70AFDBDE802400AF04CBC80B538
S315000099E0FEF768FABDE80440014600200AF04EBCC6
S315000099F080B5FEF761FABDE802400AF050BC38B502
S31500009A00044600216000FBF786F9010003D100221D
S31500009A10002118200DE0FBF768F805462146F6F709
S31500009A208BFF18B122462946002002E000220021C1
S31500009A307020BDE838400AF03DBC000000F8FF0782
S31500009A40F479002024780020C8790020F75F0020F0
S31500009A50A87900201C760020B0790020DA64002066
S31500009A60B85A0020F15F0020027E00208C5E0020A4
S31500009A70E4790020E85E0020F0BD0300F8BD030095
S31500009A80FABD0300F8760020825D0020FC7D0020F0
S31500009A909C7900200000000000000000000000008B
S31500009AA000000000000000000000000000000000B0
S31500009AB000000000000000000000000000000000A0
S31500009AC000000000000000000000000000221DF061
S31500009AD035B900002DE9F8430446FAF78FFB054631
S31500009AE0E01CFAF78BFB0646601DFAF787FB8046FB
S31500009AF000274FF44060054208BF40274FF44C4012
S31500009B0005422ED0680658BF47F020074FF6FF796A
S31500009B104E4508BF47F0010705D0FFF71FFB8642F9
S31500009B2008BF47F0020705F44060B0F5006F03D0A8
S31500009B30B0F5406F0CD014E0C84508BF47F00407E5
S31500009B400FD0FFF701FB80450BD147F0080708E06F
S31500009B500822611DDFF87C08FBF7B3FF08B947F060
S31500009B6010073846BDE8F2832DE9F04FADB08046C8
S31500009B701546FAF7BAFF0646701CFAF73FFB82460F
S31500009B80701C0FF0C7F93044441C611C0120FAF721
S31500009B9065FB814600271AF440407CD0B0F5004FA3
S31500009BA011D0B0F5404F08BFA4F10807002000907F
S31500009BB0694620460FF0C4FA040021D1384601F068
S31500009BC09EFD88B967E0A01EFAF718FBFFF7A6FC12
S31500009BD00700EBD1701C0FF0CCFB0700E6D101218A
S31500009BE00E20FDF7B5FE56E0002E18BF002F52D00E
S31500009BF0034600F074F800284DD00120287065E077
S31500009C00082C19D10098C0B214F0F4FD054601A93C
S31500009C1014F0FFFD8346BBF1000F16D125A9284697
S31500009C2014F0B6FC002E1CBF002F002833D000F124
S31500009C30100300F054F82EE0102C2CD14FF0FF3515
S31500009C40DFF89477DFF894B7E5E714F0F3FD38B959
S31500009C50002E18BF002F1ED000F040F860B91AE0A1
S31500009C60002E18BF002F16D03278711C05A8FBF7FE
S31500009C70BFFE00F033F870B1102C26D0009BDBB28B
S31500009C804A4639464046FEF754FF20B94FF4404055
S31500009C901AEA000F01D1022018E000F01AF81CF0B1
S31500009CA087FC78B900F015F815F0EBFA50B900F01A
S31500009CB010F802F04BF928B901210F20FDF748FEF4
S31500009CC0042003E0284614F0FDFD01202DB0BDE878
S31500009CD0F08F00232A463946484670475B463A4687
S31500009CE03146701C0FF053BB2DE9F04F85B080460E
S31500009CF0FAF7FBFE0546681CFAF780FA0646E8788E
S31500009D008DF8020006F00709F00800F0010A300A93
S31500009D1000F001008DF8030006F4405400208DF891
S31500009D2001004FF0000B681CFFF7D4FE074617F042
S31500009D30440014BF052004200121FDF709FE15B1DA
S31500009D402878801E28704FF6FF6000EA0601681C1E
S31500009D50FAF75DFA681C04F084FCD0B14FF0040BEE
S31500009D60002405B12C784046FAF7D7FE0646681C53
S31500009D70FAF744FA07465FEACB7040F1EF8000F04D
S31500009D804DFB801E5FEA8B71C0B201D5801FC0B249
S31500009D90E5E0BAF1000F0CBF002CB4F5805F13D1DB
S31500009DA04EF6F7600640DFF838060078012818BF3F
S31500009DB003284FF6FF7408D0052818BF062804D0DC
S31500009DC0072806D00C282BD016E1B9F1000FFBD1DD
S31500009DD030E0B9F1030FF7D117F0030003D1FFF715
S31500009DE0BDF9A042F0D117F01C00EDD09DF803009C
S31500009DF008B14BF0200BDFF8EC0500781AEA000FEB
S31500009E00AED00DF1010239464046FFF7ADFE0228FD
S31500009E1069D1B9F1000F64D1002D45D10024A2E724
S31500009E205FEA090106D0B9F1010F0ED0B9F1030FAF
S31500009E30D2D0E1E00C2801D1B807FAD5B6F5004F2B
S31500009E40D4D0B6F5404FF4D1D0E70A2F1CBF062F69
S31500009E50122F25D1780758BF4FF0010B10D5DFF828
S31500009E6088050088000404D5DFF8800500780428FA
S31500009E7015D0DFF87C050078022810D04FF0410B92
S31500009E8016F4404008D0B0F5004FAFD0B0F5404FC3
S31500009E9005D14BF0020BA9E7BAF1000FA6D1ABE052
S31500009EA0252FA3D0322FCEE74046FAF736FE0646D8
S31500009EB095F800A000F0B2FA0746A6EB0A002218B1
S31500009EC005EB0A00411CE81992B2401CFBF790FD15
S31500009ED0AAEB0700C0B22F70311A89B200F0B2F8AF
S31500009EE040E7B9F1030F30D100F098FA2844461C38
S31500009EF030460FF01EF9305C04282CD14046FAF7A4
S31500009F000CFE002D824689D02F7800F087FA01904A
S31500009F1030460FF00EF9064601990198AAEB0101A9
S31500009F202844891B6218811992B2491C401CFBF710
S31500009F305FFDB81B2870681CFAF760F90146681DBA
S31500009F40FAF765F9AAEB0601C7E710B94BF0100B53
S31500009F5006E70128FCD00121102062E00220211A28
S31500009F60C91D8DF800108442A1BF611C8E429DF868
S31500009F7000108E4240DB221A2844411C92B2E81D92
S31500009F80FBF736FD0DB185F800B004220021681CF0
S31500009F90FBF790FD3946681DFAF739F99DF801007F
S31500009FA018B10321404600F075FA681C0BF06DFDF0
S31500009FB018B10721404600F06DFAB9F1010F39D109
S31500009FC05FEACB7013D502A940461DF0E2FC70B1E2
S31500009FD0FFF7BAF80146BDF80C00884207D013F027
S31500009FE08FFE58B1BDF80C0015F0E5F830B969469A
S31500009FF040461CF0D8FE08B900201EE000F020F80C
S3150000A000404600F0FCFAB0F5004F15D1404600F08E
S3150000A01019FB9DF80210044614F092FC20B10121B0
S3150000A0201120FDF795FCE7E79DF80210204614F095
S3150000A0309CFC01E000F004F8012005B0BDE8F08FBB
S3150000A0409DF800104046FAF781BD2DE9F64F85B020
S3150000A05082460521FAF7AEFF04465046FAF745FD5B
S3150000A0600490C01D019000200599DFF888530290E6
S3150000A07008708346FFF772F8ADF800008046DFF8F7
S3150000A0807813FF200870EF1C00F0C5F904280CBFF8
S3150000A0904FF00109D94600F0BEF906280CBF01268B
S3150000A0A00026E00900F0010080F001008DF80C00A8
S3150000A0B04FF67F70044000F0AEF9052808BF4FF652
S3150000A0C0FF7825D000F0A7F9032802D056EA090048
S3150000A0D01ED001215046FAF7AEFD8346002201212B
S3150000A0E05046FAF7BFFDB9F1000F09D05846FAF706
S3150000A0F0FCFC4FF6FF7858B106990078087007E027
S3150000A10036B15846FAF7F1FC10B1FAF77AF88046FC
S3150000A11000F07EF9C0074AD500F07AF9800708D525
S3150000A120082604F44060B0F5406F0CD040F20B31C5
S3150000A13007E0022604F44060B0F5006F03D040F259
S3150000A1400F3100F061F94146281DFAF760F8A81DA5
S3150000A150029032460199FBF74BFCA819871D01981E
S3150000A16080190190BDF80000404508BF44F0400446
S3150000A17004D001463846FAF74AF8BF1C9A480078D8
S3150000A180800748BF44F4404404F44040B0F5404FD3
S3150000A19006D108228F493846FBF72AFC083706E025
S3150000A1A0FEF7D2FF01463846FAF731F8BF1C00F039
S3150000A1B02FF900F0050004280ED05046FAF7ADFC42
S3150000A1C00646504600F036F9301A210702D4C0B2CE
S3150000A1D0672801DB44F48054504600F03EF90199AB
S3150000A1E0401A5FFA80F842463846FBF701FC0198B0
S3150000A1F04744804400F00CF9C0073DD5E008C7F19C
S3150000A2007D016A1C00F0010056180100029918BF72
S3150000A210123E00290ED079490978029B81F001018E
S3150000A22008430090F2B2394650460FF09AFC804639
S3150000A230B8F1FF0F6ED0B8F1FE0F1BD101200090D0
S3150000A240A6F11202029BD2B2394650460FF089FCA3
S3150000A250804644F48054B8F1FF0F44F0080459D006
S3150000A26005215046FAF7A6FE40F0080205215046A1
S3150000A270FAF7AFFE47440DE05046FAF74EFC049954
S3150000A280A0EB08000E18F6B2324641463846FBF7F8
S3150000A290AFFBBF1950460AF02AFD08B144F010047E
S3150000A2A02146681CF9F7B3FF00F0B2F800F005008C
S3150000A2B0042804F007060BD02EB951480178491C32
S3150000A2C00170E9700CE04F480178491C0170E97093
S3150000A2D0032E05D100F0A2F82844474940780870BB
S3150000A2E000F096F800F00500042858D0200756D54F
S3150000A2F00EF070FE10F1010F0CD0012E0CD1FEF7FE
S3150000A30058FF032808D0B9F1000F05D100F083F8F3
S3150000A310032801D0002059E000F07DF8032806D17B
S3150000A3205846FAF7E2FB81460024002627E0B9F1F9
S3150000A330000F05D0DFF8A490FF260020102420E0AF
S3150000A34000F066F8C00604D514F074FA81460126BA
S3150000A3500DE0684614F063FA5FEA000903D14FF492
S3150000A3606C7100F051F8009800F07F00461C00F078
S3150000A37052F80824022802D1FEF7DDFB01E00EF0B8
S3150000A3801DFE0290F6B20196002000902346781B2F
S3150000A390411E4A46C9B2681C0EF038FF07445FEA00
S3150000A3A00B0004D05A4601215046FAF75BFC781B95
S3150000A3B0401C2870781B7F2803DB40F2D33100F065
S3150000A3C023F80599012008709DF80C0007B0BDE838
S3150000A3D0F08F0000B079002038940100409401000D
S3150000A3E0E85E0020FB5F0020CE790020CA790020BD
S3150000A3F0FC7D00203C7D0020F45F0020FC5F0020F7
S3150000A400CC7D0020CB7D00200FF21800F6F788B92E
S3150000A410504600F02CB8504600F039B8681C0EF0D3
S3150000A42079BD000069702D6D61632D686561646595
S3150000A430722E630080B5FAF758FB60B10178CA073F
S3150000A44005D4401D0EF066FD401DC0B202BD880752
S3150000A45001D50F2002BD092002BD38B50446FAF722
S3150000A46044FB05462046FFF7E5FF284432BD0021A0
S3150000A470FAF784BD0A460021FAF787BD80B5FAF7D8
S3150000A48034FB18B1017841F08001017001BD04214F
S3150000A490FAF774BD0A46FFE70421FAF776BD80B5E0
S3150000A4A00521FAF787FD00F4406002BD38B5044681
S3150000A4B0FAF71BFB05462046FFF7D9FFC00701D573
S3150000A4C0E81D32BD05F10A0032BD80B5FFF7EEFF8B
S3150000A4D0BBE038B504460D46FFF7E8FF2946F9F715
S3150000A4E096FE00F02AF84FF6FF718D4206BF4FF632
S3150000A4F0DF7101EA000240F020022046BDE8384044
S3150000A5000521FAF766BD10B50C46FFF7CFFF2146C9
S3150000A510BDE810400822FBF76BBA38B504460D4675
S3150000A520FFF7BDFFA84207D000F007F84FF2FF3152
S3150000A530084045EA0002E0E731BD05212046FAF76A
S3150000A54039BD2DE9F04104460D46FFF790FF06465A
S3150000A550F00704D48B210FF25420F6F7E1F8B00788
S3150000A5601AD52046FAF7C1FA80462046FAF7D5FAF8
S3150000A5700746A0F10F0292B208F10F0108F1090097
S3150000A580FBF736FAB91F89B22046FAF7DFFA06F06A
S3150000A590FD012046FFF76EFF4FF400612046FFF7EE
S3150000A5A0BCFF4FF6FE708542204607D1FFF75FFFDE
S3150000A5B040F020012046FFF75DFF0AE0FFF757FF56
S3150000A5C000F0DF012046FFF755FF29462046FFF73A
S3150000A5D080FF0120BDE8F08110B50446FFF75FFF5C
S3150000A5E048B1B0F5006F08D12046FFF76EFF4FF671
S3150000A5F0FF71884201D1012010BD002010BD80B539
S3150000A6000521FAF7D7FC00F4404002BD38B50446F0
S3150000A610FAF76BFA05462046FFF729FFC00701D572
S3150000A620E81D32BD2046FFF718FF05462046FFF716
S3150000A630E6FFB0F5404F0CBF6FF007006FF001006A
S3150000A640284432BD80B5FFF7E1FFBDE80240F9F7C7
S3150000A650D5BD38B50446FFF70AFFC00703D5BDE8E8
S3150000A6603140FEF77BBDFFF768FF05462046FAF747
S3150000A6703CFA0830690611D44FF440410D4202D12C
S3150000A6804FF6FF7032BD05F44061B1F5006F08BFAB
S3150000A690001D03D0B1F5406F08BF0A30BDE8324057
S3150000A6A0F9F7ACBD10B50446FFF7E1FE000703D588
S3150000A6B02046BDE81040C5E74FF6FE7010BD2DE9F7
S3150000A6C0F0471D46012610B140F6010006E0002ABB
S3150000A6D01ABF032640F6214040F62100002914BF88
S3150000A6E04FF440414FF4004141EA0008002014F0C5
S3150000A6F03DF818B148F4805040F00808089C16F060
S3150000A700020714BF0F2009202018002180B2FAF793
S3150000A71002FB814608B3FAF700FA82464846FAF782
S3150000A720E4F952460021FBF7C5F931464846FFF7E2
S3150000A730A1FE4846FAF7D9F9461D41463046F9F7D3
S3150000A74066FDB01C002F14BF0823022325B1224644
S3150000A75029461844FBF74CF94846BDE8F087F8B59A
S3150000A76004460D46681D002180B2FAF7D4FA0600A9
S3150000A77001D10020F2BDFAF7D0F907463046FAF7C4
S3150000A780B4F93A460021FBF795F904213046FFF764
S3150000A79071FE3CB13046FAF7A8F92A462146401D1B
S3150000A7A0FBF726F93046F2BD0000000069702D70F7
S3150000A7B061636B65742D6865616465722E63000064
S3150000A7C000B583B048B100F072F86846C17941F02F
S3150000A7D00201C171F8F799FC07BDF8F795FC07BDB2
S3150000A7E080B5DFF8BC0C4179092905D1032000F0BA
S3150000A7F015FABDE8014081E107291ED0491E072947
S3150000A80015D8DFE801F00A0406040D202011042003
S3150000A81000E00320BDE8024000E2BDE8014052E24C
S3150000A820BDE80240072079E2BDE8014066E1BDE8E7
S3150000A830044040F2753101F08EBAC07A18B1BDE815
S3150000A840014001F025BA01BDDFF8540C4179072912
S3150000A85000D0704780B5C07A032818BF07280ED1EC
S3150000A860DFF8680C008900F0FEFE08D0FDF7EBF873
S3150000A870BDE804409621DFF80C0D0EF095B901BD38
S3150000A880DFF84C0C00B5007883B020B1DFF8F80C87
S3150000A8901AF066FF07BD00F00AF89DF8000000F008
S3150000A8A0FD008DF8000068461AF05AFF07BD042126
S3150000A8B06846F6F741B82DE9F84304468846DFF8BE
S3150000A8C0149C5E2200214846FBF7F4F81022002172
S3150000A8D04846FBF7EFF805220FF25401DFF8C05B9C
S3150000A8E00FF254064846FBF783F809F128070220C1
S3150000A8F0F870032038714FF6FF7038800020E88129
S3150000A9000DE018EA000F09D0B078F2782118484413
S3150000A910FBF76EF8E88931880843E881361D3088F0
S3150000A9200100EED194F82A00B870BDE8F18300006A
S3150000A930656D6265720000000100001002001008DB
S3150000A940040020080800280210002B0120002C011A
S3150000A95040002D108000180800013D2000015D0117
S3150000A9600000000038B504460D46FEF722FC20B173
S3150000A970BDE83240702008F02EBC00F009F8002037
S3150000A98008F029FC29462046BDE8344019F00ABBE8
S3150000A990294620468FE7F8B500F08AF8002802BF5E
S3150000A9A0DFF8100C00780C2826D100211020FAF7C9
S3150000A9B0B2F9DFF8EC7A388208B918201DE00020D9
S3150000A9C008F038FC00210220FEF7F7FB4FF6FB707B
S3150000A9D000EA0501FFF7DDFF13F099FD388AFAF763
S3150000A9E084F81022FF21FBF765F83146BDE8F840F0
S3150000A9F0052202200AF0BEBD7020BDE8F24000F03C
S3150000AA00C5BDF8B5DFF8987A0446F8890D461600F4
S3150000AA1019BF00F04F014F2900F04700472801D029
S3150000AA20022019E0FEF7C5FB002802BFDFF8840B01
S3150000AA3000780C280FD1DFF89C0A80F82B502046AE
S3150000AA40FEF790FB0120F8713E72002008F002FC30
S3150000AA50BDE8F14052E07020BDE8F24008F0FABBD4
S3150000AA6070B500F025F8002802BFDFF8480B007823
S3150000AA700C2818D1FFF78CFFDFF8584ADFF8205A68
S3150000AA8094F92C00FEF76EFB13F056FD6E61102153
S3150000AA90204600F007FD0020E871287208F0DAFB76
S3150000AAA0BDE870402AE0BDE87040702008F0D2BBD7
S3150000AAB004460D461646FEF77CBB80B5FEF779FBCD
S3150000AAC0042802BFDFF8D809C07A002803D100F0B5
S3150000AAD0A1FE002000E07020BDE8024008F0CABBDD
S3150000AAE020F08001042900D0704780B50121FEF7CF
S3150000AAF085F9DFF8A01C0020087001BD80B5FFF7BE
S3150000AB00BFFEF8F701FBDFF8CC0990F82B0020F028
S3150000AB108001042908D101210320FEF76FF9DFF82F
S3150000AB20640A0EF091F802E00121FEF767F900F0E1
S3150000AB30D3FC00210220FEF740FBDFF86419022057
S3150000AB4008710120BDE80240E8E038B50446DFF8A8
S3150000AB505009008A0D46F9F7C8FF10B1204400F8E5
S3150000AB600B5C31BD2DE9FC4106460F4690461C465E
S3150000AB70FFF786FEDFF82859687920B1702000F0CB
S3150000AB8005FD002043E014F0EEFD3046FCF797FF8C
S3150000AB903846FEF7E7FA4046FEF7E2FA0C98DFF889
S3150000ABA0606C0021FEF72AF9308840F00100308001
S3150000ABB00020FEF7CBFA0899204600F073FC072028
S3150000ABC06871308840F400403080A87B400704D587
S3150000ABD0DFF83C0C00F034FC04E0FFF768FE684642
S3150000ABE000F02EFC0A9815F0CDF80B9815F0EEF84B
S3150000ABF0FEF743FE012019F06FF9DFF8A008807810
S3150000AC00FFF7DEFDFEF76CFE00F02EF90120BDE831
S3150000AC10F681DFF88C1807204871704770B5DFF8A9
S3150000AC2080486679054600F057FC012E08D1207948
S3150000AC30010005D0401E20710120BDE870406DE086
S3150000AC40A079010012D0401EA0710EF092F8DFF834
S3150000AC504C58297800F03EFF05F108000DF0A4FFDE
S3150000AC600820607128788000287070BDDFF86408BD
S3150000AC7090F82B00FFF734FFF8F746FA2946002034
S3150000AC80FEF79BFABDE8704000F06FBD10B50C46AC
S3150000AC908AB0014608226846F9F725FB20220021E2
S3150000ACA002A8FAF707FF02AA082168461CF0CAFFA5
S3150000ACB0082202A92046F9F716FBE07940F00200C7
S3150000ACC0E0710AB010BD10B5DFF8D447607A401CB9
S3150000ACD0C0B21B280EDA6169C140C907F7D5607298
S3150000ACE0FCF7EDFEE07958B900F0D2FB072807D053
S3150000ACF0012206E0BDE810400022032100203DE2CB
S3150000AD0000220021002012F0A8FCBDE810404FF4FC
S3150000AD109671DFF8880C0DF047BF00002DE9FF4162
S3150000AD200646684600F01DFCDFF87047DFF87057EE
S3150000AD30DFF8A077DFF8388C00F00FFC6E7107F1B2
S3150000AD4028066879401E062800F28780DFE800F0B2
S3150000AD50041F505C5F8566004FF6FF776078E780DA
S3150000AD6078B1308801E00EF004F8B842FBD0FEF767
S3150000AD70F7F9A078FFF724FD0A206872FFF7A3FF12
S3150000AD8070E06969052203200AF0F4FB6AE0DFF847
S3150000AD90101CE07809780840DFF8701A0978084234
S3150000ADA00AD0A86920B94FF442714046F5F7B8FCBD
S3150000ADB0A9696846884755E00022082105F12C005C
S3150000ADC0F9F782FA28B105F12C01DFF8BC07FFF785
S3150000ADD05DFF05F12C00F8F798F997F85D302988A2
S3150000ADE007F13D02684610F076FDDFF8E41C10E03E
S3150000ADF0012017F0B6FD20B940F227314046F5F79D
S3150000AE008FFC42F6E06104E041F2883101E04FF444
S3150000AE10967104F108000DF0C7FE23E000F0A5FCD2
S3150000AE2000F036FB062807D100F01EF801220021AB
S3150000AE30002012F04FFA0DE0072802D100F014F8B6
S3150000AE4008E0A078FFF7BCFCF078FFF749FE172072
S3150000AE5000F0E0FCFEF744FD04E04FF45471404678
S3150000AE60F5F75EFCBDE8FF8100210320FEF7A5B9DA
S3150000AE702DE9F04192B080460AF06EFB0546404649
S3150000AE80F9F74BFE441B4046F9F72FFE0619F6B2BA
S3150000AE901A2EC0F28E804046FFF7B1FBB0F5004F88
S3150000AEA078D04046FFF7ABFBB0F5004F72D0422298
S3150000AEB000216846FAF7FEFD08AC2878A0704046E7
S3150000AEC06F78FFF7A3FB0146082206A8FAF790FD64
S3150000AED01022A91C6846FAF78BFD082205F112011B
S3150000AEE004A8FAF785FD03214046FAF747F8E07013
S3150000AEF001214046FAF742F8607102214046FAF70E
S3150000AF003DF8A0714046F9F7F0FD0830F9F776F9FB
S3150000AF10ADF8200007F001002071F80800F00100EC
S3150000AF208DF840003809E07105F11A073544381DDF
S3150000AF30A8420AD23878122804BF7878022804D1A9
S3150000AF40B81CF9F75BF9A0833F1D381DA8420AD249
S3150000AF5038780F2804BF7878022804D1B81CF9F78E
S3150000AF604DF9E0833F1DB81CA8420BD2387808285B
S3150000AF7008D17A78112A05D2A276B91C0DF12A00D9
S3150000AF80FAF736FDDFF818054079012803D168463F
S3150000AF9000F013F80DE0DFF81C060078012803D155
S3150000AFA068461CF079FF04E0052804BF684616F0E1
S3150000AFB000FE12B0BDE8F08100BF2DE9F84FDFF8C2
S3150000AFC0DC94DFF8DC448046B9F8060008F1200777
S3150000AFD000F049FB94F9020097F906100CBF4FF0F8
S3150000AFE0010A4FF0000A8842F879B4BF012500250E
S3150000AFF0421E9241D20F8DF80120E1784A1E9241FD
S3150000B000DFF8881C0978D20F8DF8002006296279AE
S3150000B0100CBF01260026012A09D1022807DBB878D1
S3150000B020032804D1072903D198F8400078B989E0AC
S3150000B030387938B1B97E080004D008F12A0015F035
S3150000B04077FF20B9A07B00F0470047287AD100227D
S3150000B050082104F12400F9F737F978B9002208210C
S3150000B06008F11800F9F730F940B9082208F118017B
S3150000B07004F12400FAF725FD002863D1A07BDFF850
S3150000B08054B4C0070CD5002210215846F9F71CF914
S3150000B09030B9102241465846FAF713FD002851D11F
S3150000B0A0A07B40070CD5002208210BF12000F9F700
S3150000B0B00BF928B900F048F8FAF703FD002841D14A
S3150000B0C0A17B09070BF1280003D501883A88914234
S3150000B0D038D19DF801109DF800209DF800302940D8
S3150000B0E0324311409DF80120324382F001022B4386
S3150000B0F041EA0A011A40114324D0F9788170B979DE
S3150000B100A17039880180414600F0C2F907280CBFBA
S3150000B110F88BB88B20801022F879E0705846FAF741
S3150000B12067FC00F011F8FAF763FC4FF6FE70A9F819
S3150000B130060008F1180104F11C00BDE8F84F0822CA
S3150000B140FAF756BCBDE8F18F082208F110010BF1A1
S3150000B1502000704738B5DFF87C4304F12805A8784D
S3150000B160FCF7ADFC2888FDF7FBFF04F1200000F09A
S3150000B17067F92046BDE83440102193E1F0B502009E
S3150000B18085B040F09180C64DD24C6879012833D104
S3150000B1900022082105F11C00F9F796F8B8B9FFF767
S3150000B1A0D9FFE87970B100F073F9062808D10022BA
S3150000B1B0082104F11800F9F787F808B1062002E023
S3150000B1C0072000E0022005B0BDE8F040A6E5287A99
S3150000B1D068B1FFF7BFFF1CF0AAFE012018F07CFE45
S3150000B1E00720687105B0BDE8F04000F0E3BC05B08B
S3150000B1F0BDE8F040022011E5022903D105B0BDE803
S3150000B200F040D9E1042904D105B0BDE8F04016F0BC
S3150000B2105BBC032941D1288AF9F767FCEB8903F067
S3150000B2200806320004F128014FF6FF770FD14FF0E0
S3150000B230000C00281CBF30F81C20BA4208D10CF1C3
S3150000B24001025FFA82FCBCF1080FF2DB1CE00A88FF
S3150000B250BA4218D018064CBF04F11800002003901B
S3150000B2609B074CBF04F110030023002001900293BA
S3150000B270102000902346CE7891F90410A87A0496FF
S3150000B280FFF770FC16E01EB905B0BDE8F040CDE151
S3150000B29005B0BDE8F040702078E105290AD105B077
S3150000B2A0BDE8F04016F0A8BC022903D105B0BDE800
S3150000B2B0F0406BE105B0F0BD79484079062804BF3F
S3150000B2C00720FFF72BBD704738B5754D04466879E2
S3150000B2D003280DD110F0D0F81CB1BDE8324004208F
S3150000B2E01CE5092068714FF4FA61BDE8344010E5A9
S3150000B2F031BD6B484079022804BF0420FFF78EBC9D
S3150000B3007047DFF8880C417801F00F0141F0100119
S3150000B31041707047DFF8741C4A78002814BF42F069
S3150000B320010002F0FE0048707047DFF8600C4078BC
S3150000B3306BE070B50C0086B00646DFF80C5C03D1F6
S3150000B3401A20287000203DE068461421FEF7BEFB57
S3150000B350112CA8BF102408208DF800008DF801409C
S3150000B360224631460DF10200FAF742FBDFF81C6C6B
S3150000B370A21C92B2694606F11A00FAF739FB301997
S3150000B380122100F81C1F02214170DFF81C1C0A88DC
S3150000B390120A82700988C170717809070ED50F21CB
S3150000B3A0017102214171DFF8F01C0A88120A8271CC
S3150000B3B00988C1717078000748BF241D04F1200078
S3150000B3C028700120FFF7A6FF06B070BD10B5040077
S3150000B3D004D0FDF7EEFE08B1702003E0204600F031
S3150000B3E005F80020BDE8104007F08EBFDFF89C1B73
S3150000B3F04A78002814BF42F0080002F0F7004870AF
S3150000B4007047DFF8880B4078C00800F001007047ED
S3150000B41080B523484079022818BF03280CD0072896
S3150000B4200CD1DFF8680B4078C00705D417F050FE42
S3150000B43090F85600400601D5012002BD002002BD4D
S3150000B44001460822DFF8640CFAF7D2BA10B5DFF825
S3150000B450B0432088000403D440F2375100F0A2FB29
S3150000B460DFF8E41A1A2008700321DFF8200B0170B8
S3150000B470417841F0200141702078C00703D400F0E4
S3150000B48007F8022803D1BDE8104012F009BE10BD2E
S3150000B490DFF8F80700787047000000007C5D0020A8
S3150000B4A0DC76002070B50D46112D0446A8BF102588
S3150000B4B0DFF8D86A10220021B01CFAF7FBFA2A46F8
S3150000B4C02146B01CBDE87040FAF792BA20770020FA
S3150000B4D0F57D00207C76002038B5DFF8D45BDFF8F8
S3150000B4E0244400206871E8724FF6FE70FDF72EFEC8
S3150000B4F015F073FD4FF6FF70E0800822002105F17C
S3150000B5001C00FAF7D7FAFF2020710020DFF8A41BF1
S3150000B510BB4D08702888C0F30E0028800DF0FDFF93
S3150000B52010F0CFFADFF8901B0020087012F0A2FB93
S3150000B53014F0B3FF15F0D5FA14F09BF812F0D4FD11
S3150000B5400020FFF7E7FE0120207000F006F82888AB
S3150000B5504FF6FE710840288031BD04F108000DF059
S3150000B56073BB80B5DFF89C13C9884FF6FF72914212
S3150000B57001D1002002BD0146DFF8400B1AF08DF91B
S3150000B580012002BD905D0020A879002010B5044678
S3150000B590DFF81C1B00200882FDF70BFE20B92046B1
S3150000B5A0BDE8104007F046BEBDE81040012100206E
S3150000B5B0FDF703BEE85E0020F8B5DFF8F45A288AE6
S3150000B5C0F9F793FAFF240027060014D00020315C17
S3150000B5D0A21F9142BCBF8C1DE4B2401C1028F6DBB2
S3150000B5E00020315CA142BCBF7F1CFFB2401C10286A
S3150000B5F0F7DB380003D1BDE8F2400120C6E70DF0C5
S3150000B600B8FB90FBF7F107FB1101C9B20020325CD1
S3150000B610A24206DA0A0002D10B30A87204E0491EE3
S3150000B620C9B2401C1028F2DBBDE8F14070B5DFF866
S3150000B630804A208AF9F759FA054600260DF099FB4B
S3150000B64000F011F81EBF002D25F81600761C082EF6
S3150000B650F4DBA17ABDE87040012000FA01F1052271
S3150000B660032009F087BF4FF6FF718842704770B517
S3150000B670044620000FBFDFF8480A0120A040084317
S3150000B680DFF82C1A98B0154648611E465E22002146
S3150000B6906846FAF70FFA1E99082208A8FAF7A8F9D9
S3150000B6A0324629466846FAF7A3F91F9E102231460C
S3150000B6B00DF12D00FAF79CF91D9D0822294604A8D4
S3150000B6C0FAF796F920998DF82A40304612F0C4FF11
S3150000B6D0284614F057FB1C9847214FF6FF729042FC
S3150000B6E01CBFADF828004F216846FFF73BF918B09C
S3150000B6F070BD01461022DFF8CC09FAF779B938B5E2
S3150000B7000446DFF8AC5900F01CF820B12046BDE82D
S3150000B71032401CF032BF05F1340032BD38B5DFF8D7
S3150000B720905904466879042802D100F00AF810B14D
S3150000B7306879072804D12046BDE8324000F04CBDA8
S3150000B74031BD0022102105F13400F8F7BDBDDFF848
S3150000B7503C050078072805D0DFF85409407902280F
S3150000B76002D10320FFF7DABA704710220021DFF872
S3150000B7705409FAF79FB980B5FFF7F7FFDFF83009EC
S3150000B7804079042804D1BDE802400520FFF7C6BA77
S3150000B79001BD00000D7E002010B55A4C60791B28B3
S3150000B7A011DB0B20607104F120000DF04DFA00F062
S3150000B7B0F0F8DFF8FC180020C8720021BDE8104040
S3150000B7C00420FDF7FABC17F083FC5A3016F018F97E
S3150000B7D001466079C140C90748BF11F0CAFE6079C9
S3150000B7E0401C6071322104F12000BDE810400DF0CC
S3150000B7F0DBB980B5FCF760F9DFF8B418087301BD52
S3150000B800CE790020DFF8C40870470000F67D0020DE
S3150000B8109C760020002100E001212DE9F041DFF8AF
S3150000B82090680446707907280D464ED1F07ADFF805
S3150000B830D48001000AD0062818BF072845D108F190
S3150000B8400800BDE8F04100210DF0AEB9DFF88078C0
S3150000B8503878002814BF00200220B071280028D1B3
S3150000B86000F0B9FB07207071DFF868080188C1F3A2
S3150000B8700E01018000F02BF84FF6FF70A8F80600C5
S3150000B880DFF808040078022818BF13F095F808229C
S3150000B890002106F11C00FAF70DF9387848B912F0C4
S3150000B8A0E9F9DFF81018002008704FF6FE70FDF772
S3150000B8B04DFCDFF81468802200213046FAF7FAF8CA
S3150000B8C0B4703571BDE8F0411EE0BDE8F08180B589
S3150000B8D015F083FB0DF021FE10F0F3F8DFF8D81712
S3150000B8E00020087014F0D9FD15F0FBF813F0C1FE26
S3150000B8F012F0FAFBDFF8DC0701884FF6FE72114002
S3150000B900018001BD7C5D002038B5DFF8A417A44C8A
S3150000B910DFF8B4570020C872FF202071FFF71DFE24
S3150000B9200120687008220220287000214FF6FF705F
S3150000B9302881A5F8440005F10A00FAF7BBF8FFF7DD
S3150000B940A7FDE87020F08000042807D1012103201C
S3150000B950FDF754FA04F114000DF076F9DFF87007DC
S3150000B9600078BDE83240002814BF02200120B9E06B
S3150000B970FCC0000080B5DFF860070DF065F900F047
S3150000B98008F8DFF82C170020C8721220BDE8024024
S3150000B99040E7DFF83407C078FFF7A2B8845D0020DF
S3150000B9A0207800202DE9F041DFF80457DFF818472A
S3150000B9B0EF7A17F08DFB00280FBF012690F856008E
S3150000B9C0400900F00106207910B10020E8727CE001
S3150000B9D0022FDFF8CC8121D12078010032D0401E21
S3150000B9E0DFF8EC162070C0B2097880B900291EBFB6
S3150000B9F0DFF8E8060078002803D012F03BF90220B1
S3150000BA0020700020DFF8AC160870012003E0002942
S3150000BA1014BF02200120BDE8F04163E0A8790100CF
S3150000BA2018BF012F0ED0401EA8710DF0A2F9617843
S3150000BA3000F050F800F0BAF80420E8726078800050
S3150000BA40607042E0FDF7B5FB052804BFA078142816
S3150000BA5008D118F051F928B10020E87218F0EBF877
S3150000BA6015200BE0FDF7A5FB05280AD117F06AFBA8
S3150000BA7038B10020E87218F0E4F81620BDE8F0416D
S3150000BA80C8E6FDF796FB052812D1FFF701FD02284F
S3150000BA9018BF06280CD15EB11CF049FA0020E872E6
S3150000BAA0FDF71EFFBDE8F04100210320FDF785BB31
S3150000BAB018F032FE13F060FE0820E872002108F14B
S3150000BAC02000BDE8F0410DF06FB8BDE8F081000040
S3150000BAD0400D03004FF47A72514390FBF1F201FBE3
S3150000BAE0120170472DE9F0410646DFF8B48086B0B2
S3150000BAF008F108000DF0A8F8DFF8B455012EEE7233
S3150000BB0004D045D3032E0FD006D341E0002011F018
S3150000BB1031FC40F2EE2104E0012011F02BFC40F252
S3150000BB20E24100F043F837E0DFF89C6501A906F131
S3150000BB300A0019F0B2FE41F6583100F037F8F41C4D
S3150000BB40524F2078FEF7CCFF3878042808D1DFF86A
S3150000BB50901501200870962108F114000DF024F8C4
S3150000BB60607830B9082206F10A0105F11C00F9F7E0
S3150000BB703FFF387896F8312004280CBF01230023B4
S3150000BB800020009006F1210101A811F066FC03E0F7
S3150000BB9040F6180100F006F806B0BDE8F081000096
S3150000BBA07C5D00200FF25450F4F7BABD08F108008E
S3150000BBB00CF0FABF2DE9F041344D2878062882B002
S3150000BBC003D140F61E01FFF7EDFFDFF8E444DFF88E
S3150000BBD01465DFF8F4840020E07208F1020706F12C
S3150000BBE008000DF031F8FFF73FF9B87818B1FFF704
S3150000BBF06EFE12F03FF8DFF8C004007868B9F888E6
S3150000BC0008F10A011AF00EF808F134010A7B8B6874
S3150000BC1000924A6809681AF0A3FC2878042804D11F
S3150000BC20DFF8BC140020087012E002280CD1DFF8FF
S3150000BC30A4040078C00758BF1CF034FD38781CF007
S3150000BC4001FF1CF05EF903E0032808BF1CF02AFD83
S3150000BC50FDF746FE3878122806D10B20707106F1E2
S3150000BC6020000CF0F1FF0CE011280AD1FBF724FFAD
S3150000BC700146207B884204D04FF47A72032117F0E4
S3150000BC8041FBBDE8F34117F061BA0000CA79002014
S3150000BC9070B5DFF81C44DFF83004E17A491E062946
S3150000BCA000F108054FF6FF7651D8DFE801F0253997
S3150000BCB03E1950040C000020E0724FF6FE70DFF8CB
S3150000BCC02814088008E0DFF81C5405F114000CF075
S3150000BCD0BBFFEE800020E0721420BDE8704099E5BD
S3150000BCE0C01C417811B10020E07270BD0078FEF7EB
S3150000BCF0F7FEBDE8704007E62888B0420ED0A87C63
S3150000BD00022803DA287E202808DB01E003281ADA55
S3150000BD10DFF8D813287E0978884214D2022013E06F
S3150000BD202888B0420FD1022003E0A98FB14203D187
S3150000BD300320BDE8704035E600F144013C22284668
S3150000BD40F9F756FEAE870320BDE87040CAE6BDE8A7
S3150000BD50704040F6AB010FF2A430F4F7E1BCD449D1
S3150000BD60C97A032905D1002818BFFFF723BF03208E
S3150000BD7018E6704738B50D4604462888FFF773FC69
S3150000BD8027D02B7E217E05F1130204F113001CF04F
S3150000BD9052F910B101281EDB1BE0A17CA87C884269
S3150000BDA021D12888C0F30900411E20888941C0F3AB
S3150000BDB00902501E8041C00FB0EBD17F15D1E86853
S3150000BDC0E26801021302090E1B0E8B4205D099424E
S3150000BDD001DA012032BD002032BD0BB9904202D1FA
S3150000BDE0298A228A91428041C00F32BD70B515461C
S3150000BDF082B004461E463C22F9F7FAFD2846FEF7B5
S3150000BE0005FC01460822A01CF9F7F2FDB27B716B16
S3150000BE1004F11900F9F7ECFDB07B84F82900002045
S3150000BE20B16EF8F71BFA44F82C0F0020F16EF8F704
S3150000BE3015FA6060684612F099FC28B1706800999E
S3150000BE40814238BF12F029FC7068A060B07C207374
S3150000BE5073BD2DE9F04F8B460BF11C0691B0804661
S3150000BE60B06D0190022140460BF1C004F9F786F847
S3150000BE702568074629460020F8F7F0F9814695F827
S3150000BE8006A06A79019851461CF00EF910B918F00F
S3150000BE907FFB55E030880199ADF8080005220DF1C9
S3150000BEA01B00F9F7A5FD8DF820A078B21AF042FA2A
S3150000BEB007461AF067FA2479824620461AF062FA93
S3150000BEC00546308880050BD189480268100007D0E6
S3150000BED069460BF11300904710B19DF8000003E08E
S3150000BEE05046A84288BF28468DF81A00E019ADF8DA
S3150000BEF0180029F07F4005909DF81A0000B3724E95
S3150000BF0006F1080102A8FFF735FF60B13C2206F1F1
S3150000BF10080106F14400F9F76BFD5B46424602A9AB
S3150000BF2006F108000AE006F1440102A8FFF722FF25
S3150000BF3030B15B46424602A906F14400FFF756FFC0
S3150000BF4011B0BDE8F08F00001876002070B50446E9
S3150000BF5008465749C97A032915460CD15A4E082274
S3150000BF6006F10A01F9F7ADFD28B9F06BA84204D134
S3150000BF70706B844205D2002070BD3CBF281A402851
S3150000BF80F9D27463F563012070BD00001C760020B1
S3150000BF904D48836B934201D3002070470181511CA9
S3150000BFA08163012070470000E05F002080B5FDF747
S3150000BFB0CBF84D49088000F00EF83D480721417145
S3150000BFC00621C17240F2DC514A480CF0EDFDBDE895
S3150000BFD0014011F0A5B900210520FDF7EEB87FB5A7
S3150000BFE03348C17A062927D10021C1720025394874
S3150000BFF0414E018841F4004141F0010101800320D6
S3150000C0000021FDF7DAF83B480CF01EFE12F023FD86
S3150000C01012F046F812F0E0FD04460AE0326869467E
S3150000C02002EBC50019F039FC0221684611F0B5FA99
S3150000C0306D1CEDB2A542F1DB7FBD10B5FFF7CBFF5E
S3150000C0401B48284C07214171C172FDF77DF800F4A9
S3150000C0507C40E080FFF71CFA042804D1002104F19B
S3150000C06014000CF0A1FD11F0BFFA04F10800BDE8C0
S3150000C070104040F2DC510CF097BD80B50C48C17AF7
S3150000C080072908D10021C172FEF7EFFEBDE8024084
S3150000C09018480CF0D9BD01BDE25F00200448C07A03
S3150000C0A0072804BF0A20FFF77DBC70472E760020C4
S3150000C0B0DC7600200A76002009760020F87600203B
S3150000C0C000F8FF0710770020207700202A7700204D
S3150000C0D03C790020CE7900209C5D0020DA640020A7
S3150000C0E00D7E00207C5D0020F05D0020715E00204A
S3150000C0F074750020845D0020905A00206A6F696E76
S3150000C1002E63000070B516F0E3FF304C90F8560031
S3150000C11000074CBF25780025284609F0E1F90600FE
S3150000C1200BD009F019FA2A46211DF9F761FC3046B1
S3150000C130BDE870400121FBF764BC70BD30B585B029
S3150000C1400446F8F7D2FC451D28460CF0E3FE285CB1
S3150000C150072821D1FCF7F8FF4FF6FF7188421EBF72
S3150000C1601B4C207803282ED0042818BF07282AD075
S3150000C170184D28460CF074FC28BB2078062802D0FF
S3150000C18018F006FAF8B10CF0F4FD00F07F00411C3F
S3150000C19028460CF009FD16E0042814D12046FEF7C7
S3150000C1A02EFAB0F5404F204605D1FEF72FFA694624
S3150000C1B019F073FB04E0FEF745FA694619F047FBF0
S3150000C1C0684611F039FA05B030BD00001876002037
S3150000C1D0CA7900206C5D00202DE9F04794B08046B6
S3150000C1E00121F8F7CBFE824602214046DFF8787C33
S3150000C1F0F8F7C4FE38704046FEF749F9072804BF31
S3150000C20097F9000009F045FC01F059F800F0050027
S3150000C210042803D1404602F026FADDE00521404617
S3150000C220F8F7C8FE0006C00E10F0010533D04046F0
S3150000C23019F0FBFE1AF027F9694640461BF0A9FBE8
S3150000C24048B3FCF781FFBDF8041081422ED1404669
S3150000C250F8F74BFC81464046FEF7ECF804464046AC
S3150000C260F8F75BFC9DF80010001B461AF6B209EBC6
S3150000C270040032460144F9F7BBFB311989B2404646
S3150000C280F8F764FCBDF802104046FEF722F901F00B
S3150000C29016F801F00FF840460DF022FA10B34046AA
S3150000C2A00DF032FA5FEA000813D195E09DF801001F
S3150000C2B00228FADB40461BF092FB4FF6FE71404621
S3150000C2C0FEF73FF900230022FF21404600F08BFCD9
S3150000C2D082E052460121F8F758FE3A78022140469C
S3150000C2E0F8F753FE02A940461BF030FB002873D036
S3150000C2F00DF1130013F0FBFC00286DD10022102174
S3150000C3000DF12300F7F7E0FF002865D19DF8230023
S3150000C310FF280CBF142012200121FBF719FB25B1C1
S3150000C32002A9404600F03FF956E0DFF8785C28782D
S3150000C33050B102A800F079F830B16A6810004BD00D
S3150000C34041460020904747E09DF83800112843D128
S3150000C35002A81CF071FD00283ED0DFF84C2CBDF879
S3150000C3604C00128890421EBFDFF8402C1288904283
S3150000C3701EBFDFF83C2C1288904219D10DF1230024
S3150000C38019F09AFA40B30DF12B0019F016FA20B9FC
S3150000C3900DF12B0019F035FAF0B10DF1130019F07B
S3150000C3A08BFAC8B1002202A940460FF07DF813E0CF
S3150000C3B044F64C5188420FD19DF82300FF280CBF4C
S3150000C3C00022424602A940460FF00AFD20B140462F
S3150000C3D019F02BFE1AF057F814B0BDE8F087F0B547
S3150000C3E093B00FF20C64DFF8805ADFF8B86C15E0F2
S3150000C3F00021304601F0F4FF07466FF07F002870F9
S3150000C400694638461BF0A2FA20B940F209112046C7
S3150000C410F4F786F96946384600F0C5F8304601F06B
S3150000C42091FF0028E4D013B0F0BD38B5DFF8784CA2
S3150000C430218801B300F130052978112909D11CF0B2
S3150000C440FBFC30B12088698A81421CBFA98A8142DF
S3150000C4500FD0287806280ED16868F7F7D2FE218813
S3150000C460884206D06868801CF7F7CBFE2188884290
S3150000C47001D1012032BD002032BD2DE9F041DFF8A7
S3150000C480244B0546207894B08846B0B32846FDF77D
S3150000C490FEFF032831D008F11B0708F13406787D2A
S3150000C4A03A280DD130680078B074643825D0213828
S3150000C4B0032822D9163820D0801E01281DD911E064
S3150000C4C011280FD140461CF0B7FC58B1308A44F60B
S3150000C4D04C5188421FBF40F2222188424FF2BF01D1
S3150000C4E088420AD06946384619F0B8F938B1FCF7DF
S3150000C4F02BFEBDF80010884201D100201AE03878E2
S3150000C500FF280CD12846F8F748FD050011D001A9EF
S3150000C5101BF01CFA01A9284600F057FD03E041462E
S3150000C520284600F052FD6268100002D0294600201D
S3150000C5309047012014B0BDE8F0812DE9F047804610
S3150000C5400D46FDF78AFF0646686BB11D471A404641
S3150000C550F8F7E3FA0446301DF7F753FE81464046E6
S3150000C560F8F7C3FA696B611A00EB010AE86A283822
S3150000C570B11D8842BFB203D040F2671100F034FA11
S3150000C580696B1FFA8AF2B01DF9F732FAE11B89B21C
S3150000C5904046F8F7DBFA301DA9EB0701BDE8F04786
S3150000C5A089B2F7F738BE2DE9F84380468946FEF78B
S3150000C5B079F80646484612F0A3FFC8B94FF6FE754D
S3150000C5C0AE42DFF8A478DFF8B84C03D009F10B00CF
S3150000C5D020607E804946404600F00CF8002121602C
S3150000C5E07D8028B14946404600F004F80028F9D17C
S3150000C5F0BDE8F1832DE9F04F82468B4697B00BF1EB
S3150000C6001B0019F07EF906460BF11B001CF0A6FC78
S3150000C610814666B95046FDF72AFF000707D50BF19C
S3150000C6201B0012F066FEFF2818BF012500D1002569
S3150000C6305046FDF71CFF00070BF10907DFF82848F5
S3150000C64018D5002E08BF002D14D1B87CFF2811D0B4
S3150000C6500BF11B010BF10B0013F023FF50B960889F
S3150000C660694619F0F4F853466A46002101201CF089
S3150000C6704BFE01E155EA06004FF6FE782AD05046F9
S3150000C680FEF710F80546454509D15046FDF7B7FFB8
S3150000C690B0F5004F03D15046FDF717FF0546454557
S3150000C6A018D0284611F02CFB18B1284612F070FD60
S3150000C6B080B10BF10B0019F0EBF820B90BF10B0070
S3150000C6C018F0E3FA30B101232A460BF113010020DA
S3150000C6D014F096F95046FDF792FFFF25B0F5404F4E
S3150000C6E0504604D1FDF792FF00F001FB09E0FDF78B
S3150000C6F086FFB0F5004F05D15046FDF7A3FFF6F7CC
S3150000C70037FF054694F90010284612F074FB59EAE3
S3150000C71006004DD00BF12C00017929293ED139783C
S3150000C720002902BF006880786D282DD15046F8F7A1
S3150000C730F4F90021F8F7EFFA0028814699D050461F
S3150000C740F8F7EBF904465046F8F7CFF905464846A0
S3150000C750F8F7CBF922462946F9F74AF904A94846DB
S3150000C7601BF0F4F804A94846FFF7E7FE04A948467B
S3150000C7701BF0ECF804A94846FFF77FFE30BB04A97E
S3150000C780484600F0A0F821E059465046FFF7D5FE8E
S3150000C790594650461BF0DAF801206EE059465046DD
S3150000C7A0FFF76BFE90B95946504600F08CF80DE045
S3150000C7B0DFF8D00A0078022808D17878022805DA4E
S3150000C7C05B465246002103201CF088FD00F046FB24
S3150000C7D000F0010080F0010030434DD17878022846
S3150000C7E04ADB0BF10B0019F067F8002844D10BF176
S3150000C7F01B0019F061F800283ED1002210210BF130
S3150000C8000B00F7F761FD002836D10BF11B0019F07C
S3150000C810A3F888BB0BF11B0019F0A5F860BB0BF160
S3150000C8201B0019F079F838BB7878401E78705146AD
S3150000C83058461BF095F85046FDF720FEB87CFF28B9
S3150000C84010D14FF6FF715046FDF77BFE0CF091FAC2
S3150000C850DFF8342A127801219140491E01EA0003CB
S3150000C860022205E041465046FDF76BFE0023FF22FB
S3150000C8705946504600F08DF9002017B0BDE8F08FFC
S3150000C880F8B504460121F8F7D6F9DFF8185810B9BB
S3150000C8900022214611E001212046F8F70BFA064650
S3150000C8A00021F8F738FA07000CD0F8F71EF93246DF
S3150000C8B02146F8F7AEFA002239462846BDE8F84088
S3150000C8C001F05DBDF1BDF8B50D4605F13006044633
S3150000C8D037783A2F13D0112F0FD17068801DF7F7D4
S3150000C8E090FC60B92888B0F5A06F0FDD2B46224674
S3150000C8F0002102201CF0F2FCF1BD062FF2D12946E0
S3150000C90020461CF0CFF90028ECD0F1BD694605F1B0
S3150000C9101B0018F0A3FF08B3BDF80000DFF86C1980
S3150000C920081808281AD2112F5DD1DFF86419BDF84E
S3150000C9300000097800F0070001F00701884252D193
S3150000C940FCF702FCDFF84C19098888424BD12846CF
S3150000C9501CF072FA284615F048FEF1BD062F39D0B4
S3150000C960112F15D0292F3AD03A2F3CD128880428E8
S3150000C97039DB70680078B075042170684078F0750E
S3150000C98028461CF049F92946204600F054F8F1BD26
S3150000C99028461CF051FA30B32046FDF778FD0328EF
S3150000C9A004D1294620461BF05BFDF1BDB08A44F652
S3150000C9B04C51884209D1E87EFF280CBF002222464E
S3150000C9C0294620460FF00CFAF1BD294620460DF007
S3150000C9D0A1FBF1BD294620461CF0BDFCF1BD40F28D
S3150000C9E0772100F001F8F1BD0FF20400F3F798BECD
S3150000C9F064697370617463682E63000070B50D46D8
S3150000CA000446E86BB0B12046F8F76FF806462046B4
S3150000CA10F8F783F8EA6BB5F840103044801A814283
S3150000CA2003D040F28221FFF7DFFF2846BDE87040C1
S3150000CA3007F079B970BD2DE9F041884608F13C054B
S3150000CA4098B006462868002878D0A97A012956D0D9
S3150000CA5080296FD141463046FFF7D0FF08F11B0011
S3150000CA6018F04FFF070008D0102208F11B010DF146
S3150000CA702300F8F7BDFF002400E008243046FDF748
S3150000CA80F6FCC00648BF44F020043046FDF7EFFC34
S3150000CA90DFF804683388C006A88848BF44F020043D
S3150000CAA0834208D2C21A286892B200211844F9F7C4
S3150000CAB001F83088A880002FA888059014BF08F1D7
S3150000CAC01B030023286804902246002003900021BF
S3150000CAD0812002904020019008F10B00009006A8EA
S3150000CAE01CF0CCF9040029D0FDF7C8FC002000900A
S3150000CAF0FF23012206A9204600F023F81EE000F1DC
S3150000CB001C056A46802128461CF0B7FCB0B100F02F
S3150000CB10A5F9000712D50021284618F09FFE68B92E
S3150000CB209DF800000123002205F1080114F058F8D1
S3150000CB30012803D141463046FFF760FF18B0BDE833
S3150000CB40F081F8B504460D4616461F461CF0FCF863
S3150000CB5005F11B0018F0D5FE20B905F11B0018F0F1
S3150000CB60FBFE30B11EB100F0C6F80120F2BD002078
S3150000CB70F2BD36B105F11B001CF0F0F908B100F06A
S3150000CB80BAF8069B3A462946204601B0BDE8F04071
S3150000CB90FFE7F8B5044601F11B0715461E46384661
S3150000CBA018F0BAFE18B9384618F0C6FE28B1F87B58
S3150000CBB0012804BF204608F091FA384618F0D3FE43
S3150000CBC018B9384618F0A8FE10B1FF2D08BF002589
S3150000CBD032462946387801B0FF282046BDE8F040A5
S3150000CBE00CBF012300232DE9F0410D46FF2D92B025
S3150000CBF0044616461F4608BF0225FDF738FCC00747
S3150000CC004FF6FE781CD52046FDF749FCB0F5006FBF
S3150000CC1016D100F02BF9404504D02046FDF727FC3D
S3150000CC2080060DD50021204600F040FA00285BD092
S3150000CC30012805D11722062120460CF055FC2FE0CD
S3150000CC40002F14BF152013200121FAF781FE0521BC
S3150000CC502046F8F7AFF900070CD4694620461AF0CB
S3150000CC6075FE38B16846FFF7E0FB00F0010080F082
S3150000CC70010700E001272046FDF711FCB0F5006F23
S3150000CC8003D0B0F5406F13D029E000F0EFF840452F
S3150000CC9008D1C4484268100002D0214600209047BF
S3150000CCA0012021E000F0E2F812F066FA38420EE0C8
S3150000CCB02046FDF7FBFB00F01AF8FF280FD0DFF83F
S3150000CCC0DC15096811F81000400708D5002F06D0BA
S3150000CCD0204607F04CFF401E8041C00F04E032465C
S3150000CCE0294620460CF000FC12B0BDE8F081014652
S3150000CCF0002011F041BF29462046C1E538B504465B
S3150000CD0025882846FDF7B3FB00F0050004283CD033
S3150000CD102846FDF7ACFBC00726D52846FDF7BFFB26
S3150000CD20B0F5006F20D12846FDF7CFFB4FF6FE7118
S3150000CD30884204D02846FDF79AFB800614D50121C7
S3150000CD40284600F0B3F968B101280DD1A17801F0A9
S3150000CD500F01C1F106018840172110FB01F0A080E8
S3150000CD60BA2032BDA92032BD2846FDF790FB012826
S3150000CD700BD1284610F095FA010002D02080182029
S3150000CD8032BD20880028FAD132BD002032BDF8B568
S3150000CD9004460D466E1EB641FDF781FB074605218A
S3150000CDA02046F8F707F9F60F00F00700032815D11B
S3150000CDB02046F7F79AFE441D20460CF0ABF8205C9F
S3150000CDC004284AD1FCF7F5F9032846D10EB11BF029
S3150000CDD030FD2846BDE8F2400AF058BA3EBBB7F52A
S3150000CDE0006F3AD100F042F8402D064615D100F00A
S3150000CDF035F8C00711D5B0050FD12046FDF737FB32
S3150000CE000007354603D5304611F02EFB0546284669
S3150000CE1019F080F8002118F0F4FF4FF6FE708642F4
S3150000CE201BDABDE8F44001210920FAF791BDFF2085
S3150000CE30B7F5404F05D12046FDF738FBFFF757FF02
S3150000CE4006E0B7F5004F03D100F010F8F6F790FBB7
S3150000CE50BDE8F440002111F0CEBFF1BDDFF840047B
S3150000CE600078704700000000D65F00202046FDF7DE
S3150000CE702CBB38B50446FDF712FB0546DFF8040463
S3150000CE800078032818BF042805D0022812D1FFF71E
S3150000CE90E5FFC0070ED42046FDF7E9FA00071AD4CD
S3150000CEA0B5F5006F08D1FFF7E1FFDFF8F813098841
S3150000CEB0884210D0002032BDB5F5406FFAD1204629
S3150000CEC0FDF7F4FA0822DFF8E013F8F7FAFD401E42
S3150000CED08041C00F32BD012032BD2DE9F8438146A5
S3150000CEE00E46FDF7DCFA00250746B7F5006F03D1BD
S3150000CEF04846FDF7EAFA01E04FF6FE70002FDFF82C
S3150000CF00AC73DFF8AC431BBF4FF6FF7188424FF09E
S3150000CF100108A84639786068491C081860604846C8
S3150000CF20FFF7A7FF58B1402E08D12078401C20708B
S3150000CF30C0B2042803DB0720FEF76CFC2570300026
S3150000CF4006D10125B8F1000F0FD001210B2015E005
S3150000CF50312E08BF0026F5D08D2EF3D1B8F1000F83
S3150000CF6014BF0C200820012108E030000CBF062069
S3150000CF7007200121FAF7ECFC39780A20FAF7E8FCD9
S3150000CF803146484608F060F950B9314648460CF03B
S3150000CF90DBFA28B92A4631464846BDE8F843F6E6A4
S3150000CFA0BDE8F18320780020DE5F0020E05F0020EE
S3150000CFB0E25F002038B504460D460CF097FF29467F
S3150000CFC02046BDE838400022E1E6F8B50D460446A5
S3150000CFD0687AE8B9288805F13007A0F1080679686B
S3150000CFE0E86AB2B2F8F704FDE86A78602E8038780D
S3150000CFF068722046F7F791FDA0F1080189B2204634
S3150000D000F7F7A4FD21462846BDE8F4401AF0A8BC6F
S3150000D010F1BD30B5054605F47F40B0F57C4F85B0CF
S3150000D0204FF6FF743BD1B5F57C4F02D117F000FCEB
S3150000D03036E04FF61040854219DA10220021684684
S3150000D040F8F738FD6946E8B21CF0FEF9402826DB01
S3150000D05000224021684617F011FE4FF6FE75A842E1
S3150000D0601ED1684617F00DFEA84219D117E04FF6FB
S3150000D0703042954204DA05F00F0017F0D6FE0FE0B5
S3150000D0804FF6384085420ADA82480088A04206D028
S3150000D0907F4B1B7803F007031A43954200D02046C6
S3150000D0A005B030BD347D0020327D00202DE9F041F1
S3150000D0B096B00D464FF6FF768046ADF8046002A99D
S3150000D0C01AF067FCA8B3BDF80C00ADF8040010F028
S3150000D0D017FE30B3BDF8040012F06DF8F0B9404603
S3150000D0E0FDF7BBF99DF808100844851DBDF80A0038
S3150000D0F004A918F0ACFB4046F7F70FFD064640467C
S3150000D100F7F7F3FC711B401880B200902B4604AA77
S3150000D110002101201CF0A2F80020AEE0BDF80C7042
S3150000D12091E0BDF80C0011F09FF90746B742F7D120
S3150000D130F2E75B4C5B4F207800073FD504A94046D9
S3150000D1401AF004FC0DF12B0012F0D3F8FF2803D0DF
S3150000D15012F001F8074676E00DF12B0012F0F2FA14
S3150000D16028B90DF12B0017F090FD002850D001A929
S3150000D1700DF12B0018F072FBE8B1BDF8040010F0B9
S3150000D180BFFD0028C8D1BDF8040000F47F40B0F50B
S3150000D1907C4F07D1BDF80400FFF73BFFB042ADF866
S3150000D1A00400B9D0BDF8040011F05EF9B04223D0F6
S3150000D1B0BDF8047043E02078000704D4398840465F
S3150000D1C0FDF7BFF958E06A4680210DF12B001CF0EF
S3150000D1D054F9002851D09DF8000001230DF10202F8
S3150000D1E00DF1330113F0FCFC022846D1BDF8020014
S3150000D1F011F03AF9B04201D101203EE0BDF802102B
S3150000D2004046FDF79EF900F05AF800F053F833E077
S3150000D2100DF11B010DF12B0017F0ABFD06464FF685
S3150000D220FE77BE4223D0FBF78FFF864218BF3746F4
S3150000D23005D10DF11B0012F055FB002817D000F0A8
S3150000D2403EF800F037F800F03AF8800610D5404670
S3150000D250FDF73BF93946884208BF002D08D1BDF8D5
S3150000D260040018F027FE01211E20FAF771FB53E790
S3150000D27039464046FDF72DF9022016B0BDE8F0818B
S3150000D28028780020CA790020F65F0020D003FFFF2F
S3150000D2909275002096750020DA5F0020885A0020DB
S3150000D2A0CE790020825D0020F8760020087E0020DE
S3150000D2B02C78002040F008014046FDF7DBB84046D8
S3150000D2C0FDF7D5B810B5DFF8004BDFF8003B248832
S3150000D2D0001B06E010B5DFF8F84ADFF8F03A2468DC
S3150000D2E01B1B03EB4000002304E030F8134021F839
S3150000D2F013405B1C9342F8DB002010BD2DE9F04182
S3150000D30082B004460D4616460027DFF8C08A01E0C3
S3150000D310BF1CFFB2B74217DAE819E95D4078DFF8BB
S3150000D320A83A1B8801EB0020ADF80000012207EBAC
S3150000D330D77004EB6000C01A00F09DFB0100E7D037
S3150000D340F6F76EF9002000E00120BDE8F681F8B599
S3150000D35004460F46154600260DE000F019F8BDF804
S3150000D360000004EB4601000A48707F1CBDF800006F
S3150000D37004F81600761CB6EB550FEEDBE80706D56B
S3150000D38000F006F8BDF80000611901F8010CF1BDC6
S3150000D39001226946B8B295E7DFF82C2ADFF82C1A85
S3150000D3A01288801A01EB40010220FBF75DBBDFF813
S3150000D3B0241ADFF8242A095C125CDFF8203A185C8C
S3150000D3C010B102F5997292B241EAC21080B270476A
S3150000D3D0DFF8003ADFF8082A1B5C012B1CBF32F885
S3150000D3E01000081802EB4000704738B50C46DFF80D
S3150000D3F0F4190D782A462146FFF764FF20880100BC
S3150000D4001CBF4FF6FF7188420BD0012000E0401C84
S3150000D410C1B2A94207D2C0B234F810102288914294
S3150000D420F5D0002032BD012032BDF0B5DFF8A019DD
S3150000D43087B008600C2269460020FFF74BFFBDF855
S3150000D4401600BDF80C200346040A012000254FF6FD
S3150000D450FF763DF81570BDF80010B94203D1B7420A
S3150000D46018BF002F00D100206D1C062DF1DBB21A6B
S3150000D470914218BF0020DBB2C4F1FF018B4218BFF6
S3150000D480002007B0F0BD2DE9F24F0446DFF85869D9
S3150000D4900020307070809CB0DFF850090088ADF82D
S3150000D4A0020007A9FFF7A1FF83460120707009A9B2
S3150000D4B0DFF83C090588DFF83C09B0F80080DFF8A2
S3150000D4C008090788BDF802A03846FFF78EFFB8B1F5
S3150000D4D0BBF1000F3DD0BDF81C10BDF824004FF67F
S3150000D4E0FE72914202D1012804D10CE0012908BF45
S3150000D4F090422ED00846BDF82410884229D202E078
S3150000D500BBF1000F24D0002070700297504606959C
S3150000D510CDF810800122DFF8CC1891F80080404445
S3150000D520ADF806006946BDF80600FFF7CBFEDFF84A
S3150000D530C808008805904FF6FF79BDF80000000B7B
S3150000D540404518BF0F2801D1200021D0002516E044
S3150000D550012470780028D8D03846CDF808A0CDF838
S3150000D56018800495D6E7059805FB00F4E01900F04D
S3150000D57051FCBDF80200201800F04CFC6D1C45451E
S3150000D580F1DB012030704D20F6F74AF80025F7E070
S3150000D590BDF80650012201A92846FFF793FEBDF803
S3150000D5A00400C04300F0FF00ADF804006F1CDFF874
S3150000D5B04C080588BDF80400A84218BF01244FF0A6
S3150000D5C0000A20E0401CC1B2A94218D2C0B2DFF85E
S3150000D5D03018BDF80E20834631F81B109142F1D168
S3150000D5E0FFF7E5FE4FF680710840BDF80C104FF6C8
S3150000D5F080721140884204BF1C9800F80BA00AF103
S3150000D60001001FFA80FABDF80400824507DA0222FB
S3150000D61003A9B8B2FFF756FEBF1C0020D3E70020CF
S3150000D62001E0401C80B2A84217DA1C99095C8142CD
S3150000D630F7D0012411E02AF81070BDF8060000EBBF
S3150000D6404300401C00F0DAFABDF80200C0F3C71030
S3150000D650401C00EBD07007EB60070498DFF880A74A
S3150000D660BFB287420EDA00F099F8BDF800004845CF
S3150000D67008D0030A00F07F01BDF804007F1C834236
S3150000D68002DB012400252DE0002000E0401CA8421A
S3150000D690D3DA1C9A125C9A42F8D1C0B2FF28CCD0D9
S3150000D6A0DFF83027125C7F290CBF4FF0000C8C4648
S3150000D6B094450BDABDF800C0DFF820E71EF800E05D
S3150000D6C04FEA0C6C4FEADC7CF44501D00124B4E748
S3150000D6D0012AB0D07F293AF8100008BF00210818A7
S3150000D6E0A9E76D1CDFF81C070088854204DA3AF8C2
S3150000D6F015004845F5D1012477800498BFB28742CA
S3150000D70007DA00F04BF8BDF800007F1C4845F4D05E
S3150000D71039E7002CFCD1029801220BA980B2FFF751
S3150000D720D1FDBDF82C0048450DD105E0401C80B266
S3150000D730202813DB2034A4B20699029A891A8C4257
S3150000D74005DB0120307000201DB0BDE8F08FA51864
S3150000D75020220BA9A8B2FFF7B5FD00200BA931F8CE
S3150000D76010104945E2D0A8B2FFF716FE203CA4B23D
S3150000D770E0E70298059905FB010000F04BFB6D1CE4
S3150000D7804545F6DB01203070494600F046F818B1F1
S3150000D79000F035F90028D6D10120D5E701226946E7
S3150000D7A038468FE52DE9F0420F46DFF85016DFF8D0
S3150000D7B0285609888F420446164699460CD2DFF849
S3150000D7C01416C95D30467F2808BF0020884203DA58
S3150000D7D0E95D894500D11CB940F2D54100F00AFA4D
S3150000D7E031463846FFF7F4FD0188DFF8F005C05DE5
S3150000D7F060B1384600F02BFAE95D012908BF2070B8
S3150000D80009D0022914BF2060208004E04A46204641
S3150000D810BDE8F0429BE5BDE8F0822DE9F34FDFF865
S3150000D820A805DFF8C0150488DFF8BC05097840783C
S3150000D83083B000281ABFDFF8B405008820460D180B
S3150000D840DFF8B8050088ADF80800ADB2C04300F0B7
S3150000D850FF0000EB013000F55060ADF802002B1B15
S3150000D860DFF8680501220DF1020100F0D7FA6E1CFF
S3150000D8700100B6B23AD10025DFF8847513E0E8B2AC
S3150000D880FFF795FDADF80400331B37F81500ADF82A
S3150000D89006000222DFF8340500F0BFFA010025D1A8
S3150000D8A0B61CB6B26D1CBDF808008542E7DB002544
S3150000D8B000E06D1CBDF80800854280F29B80DFF811
S3150000D8C01C05405D8DF80A004FF0000A1BE001229E
S3150000D8D00DF102011FFA89F0FFF7F4FCBB19DFF81E
S3150000D8E0EC0400F091F9010009F101097AD17F1CDD
S3150000D8F0FFB2B7EB1B6FEADBDFF80C05405D3618AD
S3150000D900B6B20AF1010ADFF8CC04475D5FFA8AF085
S3150000D910B842CED25FFA8AF1E8B2FFF759FD8046E7
S3150000D9209DF80A00B8F80090C00140EA0520ADF85D
S3150000D9300000012FBDF800000EBF40F07F005FFA27
S3150000D9408AFA4AEA0000ADF80000311BDFF87C04D1
S3150000D95000EB41004FF6FF71771C89451EBFBDF8ED
S3150000D9600010BDF810209142BFB219D19DF80C10DD
S3150000D9700029C6D001226946FBF7B2F801003E46EF
S3150000D98030D1DFF85404A8F80060425DDFF87C046B
S3150000D99050F825103046FFF7B1FC0028ACD124E042
S3150000D9A0DFF83414495D491C01EBD1714FEAC15BC4
S3150000D9B001226946FBF794F801003E4612D1A8F809
S3150000D9C000609DF80A0098B14946E8B200F03FF9B8
S3150000D9D00190331BDFF8F4034FEA1B6200F01DFAD7
S3150000D9E0010089D0F5F71CFE002005B0BDE8F08FD8
S3150000D9F000277DE7DFF8F00346800120F5E7DFF832
S3150000DA00EC032DE9F0410688DFF8BC03DFF8D853B4
S3150000DA1004886878DFF8B483002882B012BF2046F5
S3150000DA203046264601226946FFF74CFCBDF8000049
S3150000DA3001280CBF4FF6FE70401EADF80000DFF85F
S3150000DA40A40307783846471E80B258B116FA87F005
S3150000DA50001B012200F00FF80100F3D0F5F7E0FDFE
S3150000DA60002006E0687880F00100687000202870C9
S3150000DA700120BDE8F681694608EB4000FBF730B8A7
S3150000DA802DE9FE4F0D46DFF87413098888420446D7
S3150000DA9017461E464FF000094FF001080CD2CD493B
S3150000DAA0095D38467F2808BF0020884204DACA4943
S3150000DAB0095D8E4200D11DB940F2F95100F09AF885
S3150000DAC039462046FFF784FC0190C74F787820B18D
S3150000DAD0C748B0F800A0BC4803E0C648B0F800A0AC
S3150000DAE0C2483978008849B97988081AC849098826
S3150000DAF08842B4BF43204420F5F792FD019801887F
S3150000DB00B648005DF8B1204600F0A1F8012E08BF26
S3150000DB10297803D0022E0CBF29882968814267D054
S3150000DB2001980088401E00F069F8B748065D7888BD
S3150000DB30AAF10101891B814201DB002837D138781F
S3150000DB4068BB452046E00291CB4622E002980BEBEB
S3150000DB50DB7300EB630000F0F3F805EB0B0015F840
S3150000DB600B10407801EB0020711E8B4580B207D167
S3150000DB70BDF8001001F0FF0100F0FF00ADF8001045
S3150000DB80BDF8001088420BF1020018BFC8465FFAC4
S3150000DB9080FBB345DADBB8F1000FC1D028E0BDF851
S3150000DBA002100020FFF739FE10B34FF00109788804
S3150000DBB08949401C788080B20A5D2946FFF79EFBA2
S3150000DBC0B0B1814C7B88248880485B1E00F01CF82D
S3150000DBD0010002D0F5F724FD0AE0B9F1000F02D0EA
S3150000DBE0FFF70DFF20B101997888088080197880A9
S3150000DBF0BDE8F78F0FF22C20F2F792BD01220DF14E
S3150000DC00020180B2FFF75EBB1B1B01220DF1020170
S3150000DC1000EB4300FAF764BF70B582B004460025F6
S3150000DC20192601226946A0B2FFF74CFBBDF8000099
S3150000DC30641C20B14FF6FF71884203D004E06D1CCE
S3150000DC40761EEED168B276BDE84340B276BD38B5F1
S3150000DC500C460021009160490D5C2A462146684623
S3150000DC60FFF775FB681C00EBD07004EB600080B218
S3150000DC70FFF7D2FF0028009948BFC04341FA80F061
S3150000DC8032BDF0B55D4909880446554883B026463D
S3150000DC9030F816508C4202D25048805D18B940F2D6
S3150000DCA03D71FFF7A7FF4C48865D701C00EBD070F6
S3150000DCB005EB6007B8B2FFF7AFFF19280FD210FACD
S3150000DCC087F0414F414B3F880021ADF80410C01B3F
S3150000DCD0012201A903EB4000FAF702FF60B12946D1
S3150000DCE02046FFF7B4FF00903346401C00907F2289
S3150000DCF069462046FFF7C4FEF7BD70B53A4801787D
S3150000DD0082B00024D1B94078002814BF37482E4885
S3150000DD100588344806780CE0284650FA86F000F06C
S3150000DD200FF8BDF8000000281EBF4FF6FF718842AD
S3150000DD30641C3046461EC0B20028EDD1E0B276BD66
S3150000DD400122694680B2FFF7BDBAF8B5264C2078A5
S3150000DD500027002835D11C480588607800281ABF9E
S3150000DD60224806882E461F4807783846471EC0B206
S3150000DD7002281FDB304650FA87F0FFF7E1FFBDF8B7
S3150000DD8000000028F1D01C480088FFB207FB0060A5
S3150000DD9000F040F80020ADF80000BB190B485B1BF3
S3150000DDA00122694600F03AF8010018BFF5F738FC81
S3150000DDB03846F2BD3046FFF7EFFAF8B208B901204F
S3150000DDC02070F8B2F2BD0000508D030000E00300A1
S3150000DDD010750020008A0300F0890300E089030023
S3150000DDE00C6200204C8D03002A7D0020548D030018
S3150000DDF0528D0300568D03004E8D03005A8D03008D
S3150000DE00C48903005C8D0300608D0300148D03003C
S3150000DE10588D030080B2FFF7BFBA01A900EB43009B
S3150000DE20FAF75EBE73696D2D656570726F6D2D694B
S3150000DE306E7465726E616C2E630000007FB50446D9
S3150000DE400E22FF216846F7F735FE1A4E4222FF21C1
S3150000DE503046F7F72FFE0E25002017490A5C012AE7
S3150000DE601CBF26F810505519401C0E28F6DB0FF281
S3150000DE704C054FF4E040FFF7D8FA18B19D2128462B
S3150000DE80F2F74EFC4FF48040FFF7CFFA18B19F210E
S3150000DE902846F2F745FC4FF48050FFF7C6FA18B152
S3150000DEA0A1212846F2F73CFC69462046FFF7EBFA2B
S3150000DEB004B070BD0C620020008A030073696D2DEA
S3150000DEC0656570726F6D2E630000000072B61EF0FD
S3150000DED0080F08D01EF0040F0BD0DFF848E0AEE8BC
S3150000DEE0FF1F11480AE0DFF83CE0AEE8FF1F0F48CD
S3150000DEF004E0DFF830E0AEE8FF1F0D486946EFF3B7
S3150000DF0009828EE8070086460A480B4C854501D3F0
S3150000DF10A54501D384F30888F2F71BFC84F308882F
S3150000DF20F4F74EF804000020FDFFFFFFF1FFFFFFAE
S3150000DF30F9FFFFFF904900202858002080B500F027
S3150000DF400CF82A492A4A0968C1F30821491CB0FB82
S3150000DF50F1F0106002BD27487047274927480A6834
S3150000DF6002F00702022A09D00AD3042A01D002D3FA
S3150000DF7006E0406805E04FF4004002E0006800E07B
S3150000DF808068C96EC1F30421491CB0FBF1F07047EB
S3150000DF901A4800687047194908601748006800F079
S3150000DFA00700022808BFFFF7C9BF70471448016879
S3150000DFB041F4700101601348416941F40051416127
S3150000DFC00168890889000160416B4908490041637D
S3150000DFD0016A21F08051016270474FF4004070479A
S3150000DFE04FF47A70704705484068704708410E4004
S3150000DFF0785A002000F0490294400E406C5A0020E6
S3150000E00088ED00E040300E40890001EB401000F141
S3150000E01084400260704700F1806300F1C0601960BF
S3150000E020026070473023464A584310440C3000F1D2
S3150000E030806006E03023424A584310440C3000F119
S3150000E040C060012202FA01F1016070473D490A6889
S3150000E050920840EA8200086070472DE9F04101F01D
S3150000E0600308144603270F21082C1D460CD2A600D0
S3150000E07000FA06F2B1403448FFF7CDFF08FA06F27F
S3150000E08007FA06F131480DE0A4F10802960000FAFD
S3150000E09006F2B1402E48FFF7BEFF08FA06F207FA6D
S3150000E0A006F12C48FFF7B7FF2A4621462A482B4D92
S3150000E0B0FFF7AAFF069A21462846FFF7A5FF01208B
S3150000E0C0A04028612146079A2548BDE8F0419BE714
S3150000E0D0F8B50446164630000D461F4607D0002FF9
S3150000E0E0204602D0FFF7A6FF01E0FFF79BFF302195
S3150000E0F00F22134811FB04F1082D084405D2AB008A
S3150000E100416800F015F8416006E0A5F108039B00A0
S3150000E110816800F00DF881604EB9002F294620462F
S3150000E12002D0BDE8F44085E7BDE8F4407AE7F1BDEA
S3150000E1309A4021EA020206FA03F1114370470000F1
S3150000E14000A0004044A4004000A4004008A40040F1
S3150000E15004A400400CA4004010A4004014A40040F5
S3150000E16028A4004010B5DFF85441DFF85411E161EE
S3150000E1700320206160611022226200220FF2441007
S3150000E180A061A2622066626201F110006066E2622E
S3150000E1901020A0662267E26662672AA10422E01DBB
S3150000E1A0F4F75CFA07220FF228112046F4F766FA14
S3150000E1B02020A07110BD2DE9F843DFF80071064656
S3150000E1C038788946904608B9FFF7CCFF1820704387
S3150000E1D0384400F1600600253769F468BC4212D263
S3150000E1E0B068C51B7068454588BF4546C1192A46B3
S3150000E1F04846F4F733FAB068EF198742A944A8EB0A
S3150000E200050808BF0027E41B444588BF44463CB1C7
S3150000E2107068C11922464846F4F720FA6519E719CD
S3150000E22005B137612846BDE8F283F8B504460D46C8
S3150000E2301646F4F78FFC0746324629462046FFF776
S3150000E240BAFF01E05254540004463846F4F7BFFCC6
S3150000E2502046F2BD2DE9F84300F027F808B9FFF78C
S3150000E26081FFF4F777FC79690026182202FB06F392
S3150000E270FB185B6E13B1761C8E42F7DB8E420CDA0E
S3150000E28002FB06F1791800220C664D66C1F868801B
S3150000E2900A67CA66C1F8749001E04FF0FF36FFE7DF
S3150000E2A0F4F795FC3046BDE8F283044F044638780F
S3150000E2B00D4690469946704754E7000000600020DE
S3150000E2C03C7300205465726D696E616C000000003D
S3150000E2D053454747455200000A46090241EA1221C2
S3150000E2E04840C0F30311484080EA0030410102066D
S3150000E2F0C9B2D20E41EA0221484080B270470000FE
S3150000E300820707D010F8012B11F8013BBAB19A42E7
S3150000E310F6D014E002680B689A42A2F1013301BFFD
S3150000E320934313F0803F50F8042F51F8043FF3D085
S3150000E33010F8012B11F8013B0AB19A42F8D0D01A15
S3150000E340704700000188481E8041C00F704738B5ED
S3150000E3500446002554B1002100F009F803E02046E8
S3150000E36000F034F86D1C0100F9D1A8B232BD008866
S3150000E37002001CBFC9B2F6F75EBC002070472DE94B
S3150000E380F04104460D4627883800164608BFA846C1
S3150000E39008D0F1B2F6F74FFC80462A46F1B238466D
S3150000E3A0F6F760FC424600F003F82580BDE8F081F0
S3150000E3B0F1B22846F6F756BC38B504460022258841
S3150000E3C0FFF7DDFF280018BF258031BD0088814298
S3150000E3D00A4601D10020704700211046F6F72BBCF3
S3150000E3E0F8B504460D462688300001D10020F2BD5E
S3150000E3F0C9B2F6F720FCB042074602D100202080C1
S3150000E40007E0E9B2F6F717FC0246E9B23046F6F73E
S3150000E41029FC2A4600213846F6F724FC3846F2BD88
S3150000E4202DE9F84304468846278816460FB900208A
S3150000E43026E03D462846F6F770FB814605E0054690
S3150000E440F6F76BFB48441FFA80F9F1B22846F6F757
S3150000E450F2FB404511D1F1B2F6F7EDFB0246FFF7AC
S3150000E460A7FF474503D1BD4208BF002525800022EE
S3150000E470F1B24046F6F7F6FB01E0B842DFD1484676
S3150000E480BDE8F2832DE9F8430D46044690462F4633
S3150000E49005E041462046FFF7A3FFBF1BBFB28FB181
S3150000E4A0208878B141462046FFF761FF8146F6F79E
S3150000E4B034FB0646B742ECDAF11B89B24846F6F75A
S3150000E4C090FB0027E81B80B2BDE8F2832DE9F047F8
S3150000E4D00C460788200092461E46B84623D00FF207
S3150000E4E06C193FB9C92102E0B84503D1D621484687
S3150000E4F0F2F716F9F1B24046F6F79DFB8046F6F7BD
S3150000E5000CFB0546A1B28D4288BF0D464046F6F784
S3150000E510ECFA01462A465046F7F76AFA641BA0B29F
S3150000E5200028AA44E0D1BDE8F08770B504462588E6
S3150000E530280008D00121F6F77EFB064600220121BD
S3150000E540FFF737FF268070BD2DE9F84F0D460446CC
S3150000E55090461F460021FFF70AFF8146002603E08A
S3150000E560494600F045F881465FEA090019D0F6F7FA
S3150000E570BCFA83464846F6F7D0FA0BEB000A02E0EF
S3150000E58060888344761CD3453EBFA188B0B28842DA
S3150000E590E6D241465846A8470028F1D007B13E804A
S3150000E5A05846BDE8F28F70B504460D46A0880100B6
S3150000E5B01CD0401EA84219DB00212046FFF7D7FEDB
S3150000E5C00646608815FB00F504E02D1A314600F07A
S3150000E5D00FF80646300009D0F6F79FFAADB285422D
S3150000E5E0F3DA3046F6F781FA284470BD002070BD94
S3150000E5F02046EBE670B504460D46E088010009D0DA
S3150000E600401EE0802046A188491CA180491EBDE825
S3150000E6107040C8E7608810FB05F0002180B2F6F76D
S3150000E6207AFB060001D1002070BD0022314620464B
S3150000E630FFF7A5FEA088401CA080681EE08030463B
S3150000E640BDE87040F6F751BA0000000062756666D4
S3150000E65065722D71756575652E6300000020704723
S3150000E660704700207047704770477047704700003A
S3150000E6703023DFF8E829584310440C3000F180605D
S3150000E68007E03023DFF8D429584310440C3000F15A
S3150000E690C060012202FA01F1016070471CB50093C7
S3150000E6A01346049C01940A46FFF7D7FC13BD1930A4
S3150000E6B0017E02290FD10278DFF8A01900793023F4
S3150000E6C05A4311441C31800000EB411000F1844094
S3150000E6D00068C0B270470020704738B50022DFF8E6
S3150000E6E0801901EB820149684B7F834203D0521C9B
S3150000E6F0042AF4D331BD21B301F12E04E0780228B7
S3150000E7001FD10D1D0846FFF7D2FF2874687C02282A
S3150000E71004BF2078002814D100F01AFE1AF0ADFFCD
S3150000E720297C09B1617829B10020607028681AF047
S3150000E73073FF31BD28B99DF8000010B128681AF0A2
S3150000E7405DFF31BD10B5044604F1140082B0417F6F
S3150000E750022910D141780A0003D0012906D0017898
S3150000E76021B9817A8079FFF783FF18E0817A807971
S3150000E770FFF787FF13E0012911D1007800280CBFAD
S3150000E780112013208DF80000204600F0F0FF012232
S3150000E7906946204600F067FF204601F02DF800206C
S3150000E7A016BD2DE9F041044688461646F4F7D2F91F
S3150000E7B00546A088E188884207D3002030602846B5
S3150000E7C0F4F705FADFF8A0081CE020881427784340
S3150000E7D02044142241460830F3F740FF208878434E
S3150000E7E02044083030602088E188401C90FBF1F21C
S3150000E7F001FB12002080A088401CA0802846F4F768
S3150000E800E6F90020BDE8F08138B504460D46F4F778
S3150000E810A1F9A18809B9296024E06188142251432D
S3150000E8202144083129606188E288491C91FBF2F392
S3150000E83002FB13116180A188491EA1800EE038B544
S3150000E84005460C46F4F786F9A98809B9216009E05E
S3150000E850698814225143294408312160F4F7B7F935
S3150000E860002032BDF4F7B3F9DFF8400932BD90F865
S3150000E87032100A000BD102680121D16000680169DB
S3150000E880C907FCD5416F41F0010141677047012975
S3150000E8900ED10168496C8907FBD4026801215160D9
S3150000E8A000688168C907FCD5416D41F001014165E9
S3150000E8B0704790F832100A0008D101684A6F520872
S3150000E8C052004A6702210068C160704701290CD1D5
S3150000E8D00168496C8907FBD40168496D02684908DB
S3150000E8E049005165022100684160704710B500F18A
S3150000E8F02C0286B00123137093791C0013D1026891
S3150000E900049002F11C030FF271020392002202929C
S3150000E9104A680192012200920A68016980681AF029
S3150000E92052FE06B010BD012BE9D000201070F8E7AA
S3150000E93010B500F12D0286B00123137053791C0027
S3150000E94012D1026834320FF21D1303930490002390
S3150000E95002934B680193012300930B68C1684068DA
S3150000E9601AF02BFE06B010BD012B02D10268283228
S3150000E970E9E700201070F5E7F8B514466946606AC5
S3150000E980FFF75DFFDFF82418884262D004F12C05FA
S3150000E990DFF84418A879020008D12268126C9205A3
S3150000E9A004D500F058F84FF4007015E00246012A2D
S3150000E9B007D12368DB6A1B0603D500F04CF88020DC
S3150000E9C016E0DFF8181850B92068006CC00506D5A7
S3150000E9D000F041F84FF48070216888640DE0012A48
S3150000E9E009D12068C06A400605D500F034F84020F9
S3150000E9F02168486301E000F062F8F4F7ABF80646D8
S3150000EA000098C768380009D000980099406889685E
S3150000EA10431A0098026801692046B847606A694649
S3150000EA20FFF7F2FE606A818821B100F074FD00F004
S3150000EA30D5FE0CE0012020752046FFF783FE00205E
S3150000EA402870687903281CBF2046FFF732FF00F0C4
S3150000EA5015FF0120F2BD0098016100200099886031
S3150000EA6070470000F8B5144604F128056946286881
S3150000EA70FFF7E5FEDFF8681788421ED000F01FF8A2
S3150000EA80F4F768F806460098C768380005D000987D
S3150000EA904368026800212046B84728686946FFF7A0
S3150000EAA0B3FE2868818821B100F035FD00F0E1FE53
S3150000EAB001E00020687100F0E1FE0120F2BD00993E
S3150000EAC00020086100998860704710B9DFF86C086B
S3150000EAD07047002918BF002A02D0B2F5006F02D98C
S3150000EAE0DFF85C0870470020704710B50368DFF850
S3150000EAF05448FF22A34240F060810B7A1C0018BFE5
S3150000EB00012B07D0022B18BF032B03D0042B18BFF1
S3150000EB10052B01D100233AE0062B18BF072B04D0A2
S3150000EB20082B1CBF092B0A2B01D101232FE00B2B2D
S3150000EB3018BF0C2B07D00D2B18BF0E2B03D00F2B95
S3150000EB4018BF102B01D1022321E0112B18BF122B65
S3150000EB5008D0132B18BF142B04D0152B1CBF162B53
S3150000EB60172B01D1032312E0182B18BF192B0BD03A
S3150000EB701A2B18BF1B2B07D01C2B18BF1D2B03D01D
S3150000EB801E2B18BF1F2B01D1052300E0FF23C375E1
S3150000EB904B7A1C0018BF012B40D0022B1CBF032B45
S3150000EBA0042B3BD0052B18BF062B04D0072B1CBF0C
S3150000EBB0082B092B01D1012333E00A2B18BF0B2B9D
S3150000EBC007D00C2B18BF0D2B03D00E2B18BF0F2B05
S3150000EBD001D1022325E0102B18BF112B08D0122BD0
S3150000EBE018BF132B04D0142B1CBF152B162B01D1C9
S3150000EBF0032316E0172B18BF182B0BD0192B18BFA1
S3150000EC001A2B07D01B2B18BF1C2B03D01D2B18BF8C
S3150000EC101E2B01D1052304E01F2B01D1002300E0A8
S3150000EC20FF2303760B7A1C003ED0012B18BF022B64
S3150000EC3059D0032B1CBF042B052B54D0062B1FD0F9
S3150000EC40072B21D0082B23D0092B25D00A2B27D020
S3150000EC500B2B41D00C2B43D00D2B08BF082342D0E1
S3150000EC600E2B05D00F2B07D0102B09D0112B01D15D
S3150000EC70092338E0122B01D10A2334E0132B01D1EA
S3150000EC800B2330E0142B01D10C232CE0152B01D1E2
S3150000EC900D2328E0162B01D10E2324E0172B01D1DA
S3150000ECA00F2320E0182B01D100231CE0192B08BFED
S3150000ECB0012318D01A2B08BF022314D01B2B08BF20
S3150000ECC0032310D01C2B08BF04230CD01D2B08BF18
S3150000ECD0052308D01E2B01D1062304E01F2B01D1EA
S3150000ECE0072300E0FF23C3764B7A1C003FD0012B9D
S3150000ECF041D0022B43D0032B45D0042B47D0052B04
S3150000ED001FD0062B21D0072B23D0082B25D0092B6B
S3150000ED1027D00A2B3FD00B2B41D00C2B08BF082243
S3150000ED2042D00D2B05D00E2B07D00F2B09D0102B60
S3150000ED3001D1092238E0112B01D10A2234E0122B2D
S3150000ED4001D10B2230E0132B01D10C222CE0142B25
S3150000ED5001D10D2228E0152B01D10E2224E0162B1D
S3150000ED6001D10F2220E0172B1DD0182B01D1012233
S3150000ED701AE0192B01D1022216E01A2B01D1032227
S3150000ED8012E01B2B01D104220EE01C2B01D105221F
S3150000ED900AE01D2B01D1062206E01E2B01D1072217
S3150000EDA002E01F2B00D1002202774A7C42768A7C41
S3150000EDB04277CA7C8276097D58E1DFF87448A3421F
S3150000EDC040F04B810B7A1C0018BF012B07D0022B99
S3150000EDD018BF032B03D0042B18BF052B01D100232A
S3150000EDE03AE0062B18BF072B04D0082B1CBF092BB3
S3150000EDF00A2B01D101232FE00B2B18BF0C2B07D0B8
S3150000EE000D2B18BF0E2B03D00F2B18BF102B01D1C3
S3150000EE10022321E0112B18BF122B08D0132B18BF89
S3150000EE20142B04D0152B1CBF162B172B01D1032333
S3150000EE3012E0182B18BF192B0BD01A2B18BF1B2B3F
S3150000EE4007D01C2B18BF1D2B03D01E2B18BF1F2B42
S3150000EE5001D1052300E0FF23C3754B7A1C0018BFC0
S3150000EE60012B40D0022B1CBF032B042B3BD0052BC0
S3150000EE7018BF062B04D0072B1CBF082B092B01D16A
S3150000EE80012333E00A2B18BF0B2B07D00C2B18BF1E
S3150000EE900D2B03D00E2B18BF0F2B01D1022325E01B
S3150000EEA0102B18BF112B08D0122B18BF132B04D010
S3150000EEB0142B1CBF152B162B01D1032316E0172B81
S3150000EEC018BF182B0BD0192B18BF1A2B07D01B2BCA
S3150000EED018BF1C2B03D01D2B18BF1E2B01D10523D9
S3150000EEE004E01F2B01D1002300E0FF2303760B7AF9
S3150000EEF01C003ED0012B18BF022B59D0032B1CBF80
S3150000EF00042B052B54D0062B1FD0072B21D0082B02
S3150000EF1023D0092B25D00A2B27D00B2B41D00C2B25
S3150000EF2043D00D2B08BF082342D00E2B05D00F2B44
S3150000EF3007D0102B09D0112B01D1092338E0122B51
S3150000EF4001D10A2334E0132B01D10B2330E0142B1B
S3150000EF5001D10C232CE0152B01D10D2328E0162B13
S3150000EF6001D10E2324E0172B01D10F2320E0182B0B
S3150000EF7001D100231CE0192B08BF012318D01A2B3E
S3150000EF8008BF022314D01B2B08BF032310D01C2B51
S3150000EF9008BF04230CD01D2B08BF052308D01E2B49
S3150000EFA001D1062304E01F2B01D1072300E0FF2334
S3150000EFB0C3764B7A1C0038D0012B39D0022B3AD0BD
S3150000EFC0032B3BD0042B3CD0052B1DD0062B1ED08B
S3150000EFD0072B1FD0082B20D0092B21D00A2B33D08A
S3150000EFE00B2B34D00C2B08BF08223FF4DDAE0D2BC3
S3150000EFF004D00E2B05D00F2B06D0102B3FF499AE64
S3150000F000112B3FF49AAE122B3FF49BAE132B3FF419
S3150000F0109CAE142B3FF49DAE152B3FF49EAE162BE3
S3150000F0203FF49FAE172B17D0182B3FF4A0AE192B29
S3150000F0303FF4A1AE1A2B3FF4A2AE1B2B3FF4A3AEB6
S3150000F0401C2B3FF4A4AE1D2B3FF4A5AE1E2B3FF4A4
S3150000F050A6AE1F2B7FF4A8AEA5E603E000A00040F5
S3150000F06074620020B64810BD0A7000F08177002057
S3150000F07010BD10B500F1170482B00A00217920787E
S3150000F0801DD001230422FFF723F86179607801235C
S3150000F0900222FFF71DF8A07E022809D100F034F8FD
S3150000F0A0E179E07800230422FFF712F8012017E047
S3150000F0B0032827D100F028F8002304221EE00023AD
S3150000F0C0FFF706F86179607800F026F8A07E02283E
S3150000F0D00ED100F01FF8E179E07800F01DF800206D
S3150000F0E0009001230122A179A078FFF7D7FA09E061
S3150000F0F0032807D100F00EF800230022E179E0781A
S3150000F100FEF7E6FF002016BDA179A07800230122B4
S3150000F110FEF7DEBFA179A07800230022FEF7D8BF54
S3150000F12010B5DFF874170A7842B9002301EB8204A0
S3150000F130521C042A6360F9D301220A70002201EBF3
S3150000F14082035C68002C18BF844202D158600020FC
S3150000F15010BD521C042AF2D3DFF8400710BD40F858
S3150000F160241F002103681980036859800368998069
S3150000F17001724260118042685180426891804172FA
S3150000F180C172704710B50446F8F7DFF8607FDFF804
S3150000F1901017F8F7E8F80020A075207502206075B2
S3150000F1A02046BDE81040FFF7CDBA00000B7000F016
S3150000F1B038B504461AF0D8F90021201D1AF074F962
S3150000F1C0DFF8E05628B9002104F108001AF06CF9BE
S3150000F1D000B1284632BD00000D7000F00C7000F042
S3150000F1E00B7000F0F0B587B004460D4668460FF286
S3150000F1F0E4611C22F3F742FA0CB950489CE0002D5A
S3150000F2005ED034212046FAF761FC2046FFF788FFDE
S3150000F2100700F3D104F13100297C017029682160CF
S3150000F220002141702868474988423CD1DFF87806BA
S3150000F2302062DFF87806E0604FF440202061EA693A
S3150000F240A9692046FFF78BFF68680290012168894B
S3150000F250ADF81000A889ADF80E00A87B8DF80C005B
S3150000F260E87B8DF8120005208DF80D00DFF84006CA
S3150000F270F4F7DAFA00F078F8206A0121F4F7D4FA04
S3150000F28000F065F800F067FB2868DFF82826032100
S3150000F2904167816F00F061F8816720462946FFF7D4
S3150000F2A024FC78B148E0DFF88813884208D1DFF8FB
S3150000F2B008062062DFF80406E0604FF45020BDE740
S3150000F2C01F4839E000F040F8002835D1F3F742FC3A
S3150000F2D00646287C032810D12868416F41F030018A
S3150000F2E04167416E41F00401416695F8212095F889
S3150000F2F0201041EA0221C16704E0022804BF20462B
S3150000F300FFF740FF28684FF0FF318164297C03290D
S3150000F3100CBF0521042100F017FB29684FF440605B
S3150000F320C8601AF021F92046FFF742FF00F0A5FA5F
S3150000F330002F14BF3846002007B0F0BD027000F061
S3150000F340037000F0000001400121204691E60020F4
S3150000F3508DF8000069462868704711402A7A41EA0C
S3150000F36002216A7A114370470121DFF85405F4F748
S3150000F3705BBA38B5040002D1DFF8200532BD03219F
S3150000F38000F03CF80021204600F043F90021FFF789
S3150000F390DCFF04F131056878010006D121680220FE
S3150000F3A0C86008202168C8600AE0012808D12068E2
S3150000F3B000F064FB2068416C8907FCD40A21416097
S3150000F3C00021206AF4F730FA2878032803D0607FFA
S3150000F3D00021F7F7C8FF60681AF0ACF8A0681AF0C9
S3150000F3E0A9F81AF088F8606A0021018041808180BE
S3150000F3F0A06A018041808180002032BD2DE9F04362
S3150000F4005FEA000883B00D4608BFDFF890047BD0A2
S3150000F410F3F7A0FB012D814608F12C0608F104073D
S3150000F420DFF8A04415D1786A808810B338681AF0DE
S3150000F4300BF900207070786A818879B300F06BF858
S3150000F440009800F1080138681AF03AF9009804614A
S3150000F45020E0022D03D1386A808840BB09E0032DE5
S3150000F46023D1786A8088002802BF386A80880028FD
S3150000F470DCD14846F3F7ABFBDFF84C0444E06946C1
S3150000F480FFF7C2F90098D0F80CC0BCF1000F01D00C
S3150000F49000F03CF8786A81880029F0D1404600F0F7
S3150000F4A03DF88004FAD5022D01D0032D28D17868C5
S3150000F4B01AF0CAF800203070386A8188D1B101A9E3
S3150000F4C0FFF7BDF9019800F1080178681AF0F8F81D
S3150000F4D0019804610AE001A9FFF796F90198D0F8AE
S3150000F4E00CC0BCF1000F01D000F010F8386A81881A
S3150000F4F00029F0D1707903281CBF4046FFF7D9F9DF
S3150000F5004846F3F764FB0020BDE8FE8383680022CB
S3150000F5102146404660476946FFF791B990F8322088
S3150000F5200021130002D1006801691EE0012A1CD1E6
S3150000F53000688068820748BF0221C20748BF41F0C1
S3150000F5400101420748BF41F00801020748BF41F0E8
S3150000F5502001C20648BF41F04001820648BF41F083
S3150000F5608001400648BF41F4005108467047406A92
S3150000F5701CE02DE9FC4100F046F8606A81881646D9
S3150000F5801F4671B1FFF7C7FF8046A06801A91AF0B0
S3150000F59097F8009828B1B8F1000F02D100F02AF8C8
S3150000F5A002E00020386030601EE0806A8088C0B2C9
S3150000F5B070472DE9FC4100F026F8A06A81881646BE
S3150000F5C01F4671B1FFF7A7FF8046606801A91AF0D0
S3150000F5D077F8009828B1B8F1000F02D100F00AF8C8
S3150000F5E002E000203860306028602046FFF796FF72
S3150000F5F0BDE8F68140680199401A3060019838608C
S3150000F60000980068704704460020009001900D465F
S3150000F610704700F11402537F032B02D1DFF8AC02CE
S3150000F62070475170022918BF1170FFF78BB80000A0
S3150000F6300004014010B500F11602D37E012B01D162
S3150000F640022900D1EFE014788C4208D0117011B96C
S3150000F65000F0D2F803E0012908BF00F088F8002086
S3150000F66010BD007D70472DE9F041044688461646D8
S3150000F670FFF72BFA002878D108201AF033F905464F
S3150000F68004F12E0702E00DB11AF02EF8A06A808868
S3150000F69010B138780028F6D03879010002D12168F7
S3150000F6A0096905E0012818BF002522D1216889686B
S3150000F6B011F002051DD101000BD121680420C8609C
S3150000F6C0206801698907FCD5416F41F00201416755
S3150000F6D00FE001280DD12068416C8907FBD4042175
S3150000F6E04160206881688907FCD5416D41F00201BF
S3150000F6F041650120B8703879010006D0012819D17A
S3150000F70010E018F8011B00F098F931464E1E2068EB
S3150000F7100029F6D101698906FCD50BE018F8011B12
S3150000F72000F0C5F931464E1E20680029F6D18168E1
S3150000F7300907FCD5C5B93879010008D12068416FA1
S3150000F74021F00201416708202168C8600CE0012809
S3150000F7500AD12068416C8907FBD4416D21F0020172
S3150000F76041650820216848600020BDE8F08110B599
S3150000F770040001D1FFF7F0BC94F82E0030B9204602
S3150000F780FEF795FF10B9606819F038FF94F82E005F
S3150000F790401C84F82E00002010BDF0B587B000F0A4
S3150000F7A070F8A0B900F061F800F01CF8049700F0BA
S3150000F7B010F860B9287E48B92046FFF758F800F0DF
S3150000F7C00DF8687F032801D000F011F8002007B07B
S3150000F7D0F0BD6A46286901A9FEF7E3BF00992046F5
S3150000F7E0FFF784B804F114053948059070470020E6
S3150000F7F028702046FEF7A6BF10B5040001D1FFF71A
S3150000F800ABBC94F82E0070B194F82E00012806D1F6
S3150000F8102046FEF74CFF10B9606819F0FDFE94F81B
S3150000F8202E00401EB5E7294810BDF0B587B000F0A0
S3150000F83028F8C0B900F019F800F029F804976A46CC
S3150000F8402868FFF7C8FF70B9687958B9F3F782F9E5
S3150000F85006462868808818B100F00BF80120287247
S3150000F86000F00CF8002007B0F0BD01950296039653
S3150000F870704700992046FFF75BB807463046F3F716
S3150000F880A6B904460D4616461F46FFF71EB904F1F3
S3150000F89028050F480590704774620020027000F03A
S3150000F8A0DBE600000E7000F00022040001000C00F0
S3150000F8B040410500E0E0FFFF0032040001000D00BA
S3150000F8C000250800097000F0087000F0057000F0CF
S3150000F8D0017000F0050000000000000000C20100F9
S3150000F8E000050000001000000000000000000000FD
S3150000F8F070B50446080015461E4604BF4548F3F792
S3150000F900C3FF310006D0202E18D0402E18D0602E0E
S3150000F91018D070BD1021226822F06002226069436F
S3150000F9202268324322604A0802EB4010B0FBF1F035
S3150000F9302038394901EAC000606170BD0821EAE754
S3150000F9400621E8E70421E6E7CA43520002F00A026C
S3150000F950C260C160704738B504460D4600F039F8FC
S3150000F960A87C18B1206840F080402060E87C18B17F
S3150000F970287D40F08000A065687BB5F9101008432B
S3150000F980B5F90E10084360602B7BAA6869682046AB
S3150000F990FFF7AEFF00F00CF8606F20F030006067F4
S3150000F9A0606F297E08436067FFE72878E06031BD15
S3150000F9B0A87DE97D0007090500F0E04001F4E001BB
S3150000F9C008432066687D18B1206840F480302060C6
S3150000F9D0704740F6AA61C1600021016041F205014D
S3150000F9E04160002181604161C1640C4A0C49816417
S3150000F9F0002141678167C16790420A4912BF884268
S3150000FA000022026500228265884204BF06490A6018
S3150000FA107047000040410500F8FF7F0000000140EC
S3150000FA20F9FF0100000401405C0401400169090678
S3150000FA30FCD5FFE7C069C0B2704702695206FCD523
S3150000FA4041637047026CD20702D4426C0A42FCD171
S3150000FA50704738B500F00EF8E843400000F00A00A1
S3150000FA602843606031BD19B1416C0029FCD10121E8
S3150000FA70016470470D4604460221E3E710B50446CB
S3150000FA800121FFF7F0FFEA206060002100202060DE
S3150000FA90E06020616061A06340F2F970606300205D
S3150000FAA0E0636065A0652046BDE81040DBE738B539
S3150000FAB000F005F8402100F00AF8A56231BD0446C1
S3150000FAC00D46A068C006FCD570476060022120463E
S3150000FAD0B8E7000062F30F2262F31F42401810F0ED
S3150000FAE0030308D0C91A1FD3DB0748BF00F8012D4E
S3150000FAF028BF20F8022D130030B4144615461039DD
S3150000FB0028BF20E93C00FAD8490728BF20E90C00A5
S3150000FB1048BF40F8042D890028BF20F8022D48BFB1
S3150000FB2000F8012D30BC7047C91818BF00F8012D28
S3150000FB30CB0728BF00F8012D7047000012490A685C
S3150000FB4042788A600278DAB14268CA60437A827A79
S3150000FB501B0643EA0272C37B42EAC342C37A42EA05
S3150000FB608342037B42EA4342437B42EA0342837B6E
S3150000FB70007A42EA032242EA400040F0010001E036
S3150000FB800020C8600861704790ED00E0BFF35F8F0A
S3150000FB90BFF34F8FBFF36F8F7047000080B5684685
S3150000FBA0F8F790F9DFF8DC03DFF8DC13016148F2BF
S3150000FBB0E67141604FF408610160DFF8D003DFF8B9
S3150000FBC0D01341609DF80120DFF8C813012A05D142
S3150000FBD09DF80020022ABCBF28228A644AF63F42CA
S3150000FBE00A604FF0C071DFF8B02311600021016692
S3150000FBF0DFF8A81301607F20DFF8A4130860232034
S3150000FC00DFF8A013086001BD80B500F041F8FFF7EA
S3150000FC10C5FFDFF89413032008604FF40020DFF8D7
S3150000FC208C1308600120DFF88813086002F0D0FF0B
S3150000FC30DFF880134FF46070086001BD10B5DFF87F
S3150000FC40743384B001221A60DFF86C432268120E06
S3150000FC5012F00F02FAD14FF00452A2670122E267B6
S3150000FC608A0001464FF00450F2F708FDDFF84C0316
S3150000FC70E0656846DFF848430ECC0EC08421DFF805
S3150000FC804403F9F723FF68460EC80C3C0EC41FBD9B
S3150000FC9080B50121DFF8300319F04AFE0121DFF8B3
S3150000FCA02C0319F045FE0121DFF8240319F040FE6C
S3150000FCB00121DFF8200319F03BFE0121DFF81803CC
S3150000FCC019F036FE0121DFF8140319F031FE012187
S3150000FCD0DFF80C0319F02CFEBDE804400121DFF823
S3150000FCE0040319F025BE0000F8B504460D460FF2D0
S3150000FCF0243600E00860002D1CBF286810F1010FB3
S3150000FD003FD055F8042BC2F3026156F8211093B286
S3150000FD10C2F307401943022808D300281EBF55F82E
S3150000FD20042B41F8042B401EF7D1E4E755F8040BE9
S3150000FD30120F4FF0010C072A01F1C06301F1806731
S3150000FD400CFA00FED7D8DFE802F00506090C0E1102
S3150000FD501417D0E7CEE7C0433860CCE70A685040B6
S3150000FD60C8E71860C7E702F0F6F9C4E7C3F800E091
S3150000FD70C1E7C7F800E0BEE70A6802408242FBD14D
S3150000FD80B9E7204602F0BBFCBDE8F14000F065B9DA
S3150000FD90DFF824020068000E00F00F00022818BFEA
S3150000FDA0032801D10120704700207047DFF8380290
S3150000FDB0016800208A0648BF0420CA0644BF801C8A
S3150000FDC0C0B20A0744BF801CC0B24A0744BF801CA9
S3150000FDD0C0B28A0744BF401CC0B2C90744BF401C1A
S3150000FDE0C0B2704780B51120F3F74EFDDFF8FC1165
S3150000FDF009688AB232B1C008C1F307414843B0FB73
S3150000FE00F2F002BD002002BD38B5DFF8E40141681A
S3150000FE10006801F00702082AC0F344141AD20FF250
S3150000FE20FC139A5CC1F3CD035B1CC1F345415A43F5
S3150000FE30491C5143C0F3822200F01F0014FB02004C
S3150000FE404843450006D01120F3F71EFD6043B0FB82
S3150000FE50F5F032BD002032BD80B5FFF7C3FFDFF8F5
S3150000FE609411096801F03002102A02D0202A02D02B
S3150000FE7002BD400802BDC1F3C421491CB0FBF1F02C
S3150000FE8002BD10B55B48016801F03002202A0FD18F
S3150000FE90C1F3024018B1C1F3C422B2FBF0F011F471
S3150000FEA0C01F18BF40004408032C0AD3042408E0EE
S3150000FEB0006800F4E070402816BFB0F5807F022489
S3150000FEC00124FFF7C9FF604310BDF8B50446F7F7F4
S3150000FED04DF90646FFF75CFF054647480068C0F344
S3150000FEE08917B80544BF45480743FFF751FF00B9D6
S3150000FEF000253046F7F737F93FB217F5007F01D1F5
S3150000FF002542E4D105B93E4F3846F2BD38B505461F
S3150000FF100C46FFF779FF68433A49B0FBF1F0002140
S3150000FF2000E0491C01228A40824203D21029F8D3FC
S3150000FF30012032BD344A4FF4706010600802334924
S3150000FF40086033480068C0B2802803D02046BDE868
S3150000FF50324001E0022032BD2B4AFF21116000F041
S3150000FF60FF002A490860002070471348016801F025
S3150000FF707061B1F1C06F02D1816BC906F6D540211F
S3150000FF804160704734410840C0E653519C400840E8
S3150000FF907A27000F0830084028700840806D6303F8
S3150000FFA024300844243008469860084694400840A7
S3150000FFB0944008460C40084604400840B80F00210B
S3150000FFC0E00F00217C0F002100340600000406002B
S3150000FFD00044060000740600006406000054060093
S3150000FFE000240600008406004C00084030600840EB
S3150000FFF034600840186008400870084000FCFFFFA5
S3150001000000FEFFFF40420F001870084418700846B2
S31500010010187008400000084000000021030404088D
S315000100200808080880B57E49072008607D4819F050
S315000100309AFCC008410A7C4A002312EBC050594180
S315000100407A4A02F0D1FF7A4908604EF6602000F044
S3150001005016F878494042086001BD704730B5744AC8
S315000100601268C117A2FB004502FB0155B4F17F409E
S3150001007065F1FF31400E40EAC110803830BD80B5D0
S31500010080FFF7ECFF0128B8BF002002BD0A0008D027
S3150001009043F2C823994203DA642902DA642100E0B3
S315000100A0194601800846704743F2C8229142A8BF0B
S315000100B0114681818089704743F2C8229142A8BFC7
S315000100C01146C181C08970472DE9F84304000D46E8
S315000100D065D0E8074FF47A7647F2305737D5E08A8C
S315000100E028B102F009FBE18A00F062F800E0384627
S315000100F0FFF7C5FF50490860608A28B102F0FCFA93
S31500010100618A00F055F800E03846FFF7B8FF4B4921
S315000101100860A08A38B102F0EFFAA18A00F048F827
S315000101206168401A00E03846FFF798FF44490860C5
S31500010130608B38B102F0E0FA618B081A7043A0F6C1
S31500010140C41000E03846FFF79AFF3E490860A80749
S31500010150DFF8F48042F2107910D5E18900F021F838
S315000101603A490860208B01001DBFA16806FB0010FB
S3150001017040443846FFF783FF3549086068070ED5C6
S31500010180208A010018BF06FB00873846FFF777FF74
S3150001019030490860A18900F004F82F490860BDE8DC
S315000101A0F18306FB01F011B121684944081866E79D
S315000101B0081A7043A168A0F6C410401A70470721B7
S315000101C082E7012180E7826001600020704741607B
S315000101D00020704738B504460D46FFF752FE0A2146
S315000101E0B0FBF1F029191D4A430802FB0131B1FBAD
S315000101F0F0F032BD1A48016A0A0CC1F30111491C1B
S31500010200514342F21172914202D34FF0FF307047CF
S31500010210006800F01F004018401C704700000000F5
S315000102208440084060510700B2E60E0065CD1D000E
S31500010230047D0020B00F0021A00F0021980F00219E
S315000102409C0F0021AC0F002130DFFFFFA80F00211A
S31500010250A40F0021900F0021940F0021A086010018
S315000102601C600840F8B5160005460C4627D0307AC2
S31500010270010024D00027401E06282DD8DFE800F013
S315000102800F22200C0F040600072030727068C1008F
S315000102900020FFF79FFF0746307A10B9F1BD042011
S315000102A030722046002101F031FF296801F5FA710B
S315000102B04FF47A72B1FBF2F1401A38183060F1BD91
S315000102C002203072FFF796FF10F1010F04D00021D2
S315000102D0FFF780FF4742DFE73772F1BDF8B5160039
S315000102E005460C461CD0307A010019D00027401E65
S315000102F006282CD8DFE800F004212315171D040079
S31500010300062030722046002101F000FFA96801F5A0
S31500010310FA714FF47A7291FBF2F1081838183060CD
S31500010320F1BD052030727068C1000020FFF752FF51
S315000103304742307A0028E5D1F1BD03203072FFF73C
S3150001034059FF10F1010F02D07168C900EEE737724B
S31500010350F1BD0000012100F01F029140DFF8B02A33
S3150001036005E0012100F01F029140DFF8B4264009A3
S3150001037042F82010704780B5F6F7F8FEDFF8A416AC
S315000103800968090E01F00F01032907D1DFF8981654
S315000103900A6822F0F00242F0E0020A600121DFF869
S315000103A0882A1160BDE80240F6F7DDBEDFF8B82AFB
S315000103B01168D368194021EA000090600846704729
S315000103C00422C900002814BFDFF86006DFF8B40A6A
S315000103D002FA01F1016070470120704710B5DFF89C
S315000103E0A84A01232370F5F782FD0020207010BD75
S315000103F070B5F6F7BBFEDFF83816DFF838468D78AC
S31500010400D1E902232E00DFF8BC1A04BF4FF41056BF
S31500010410324219BF10260E60102626600DB9D2058C
S3150001042002D520220A6001E020212160BDE870404A
S31500010430F6F799BEDFF8F8050021C170817811B190
S3150001044000218170D4E7704710B5DFF8E445E07804
S3150001045078B1012001F0D5FA58B9FFF7EBFFD4E9DD
S315000104600201BDE81040002200F4805001F00001B5
S31500010470B4E710BD10B5036883EA010424EA020259
S3150001048000F180641340236040F8042C00F1C06041
S315000104901140016010BD70B504460D461646FFF7C2
S315000104A0A7FF4FF4004114F0AA6F18BF48F20201EA
S315000104B0B00748BF41F400510022DFF8EC08FFF70E
S315000104C0D9FF0021200448BF4FF48051E00348BF03
S315000104D041F48071E00648BF41F40051A00648BFCF
S315000104E041F40071600648BF41F48061200648BFAF
S315000104F041F400610022DFF8E008FFF7BBFF05F0D9
S31500010500040300210025AB4218BF4FF480212005CA
S3150001051048BF41F48031600448BF41F48011A0070F
S3150001052048BF41F40011A00348BF41F40021700700
S3150001053048BF41F004010122DFF8D808FFF79AFF0E
S31500010540DFF8D418F00748BFDFF8E018600048BFAD
S3150001055041F000710022DFF8D808FFF78BFF002178
S31500010560E00748BF01210022DFF8C808FFF782FF34
S31500010570DFF8C418600348BFDFF8F0186007BDE86C
S31500010580704048BF41F480614FF4A022DFF8DC09D6
S3150001059070E710B5F6F7EAFD04461B20FFF7E1FE0A
S315000105A00720FFF7DEFE0120FFF7DBFE0320FFF742
S315000105B0D8FE0420FFF7D5FE1C20FFF7D2FE062049
S315000105C0FFF7CFFE0520FFF7CCFE1E20FFF7C9FE81
S315000105D02046BDE81040F6F7C6BD2DE9F04702EA10
S315000105E00009089D099AC643CF43002D03EA010A73
S315000105F005EA0208DFF838442CD1002948D1002841
S315000106006ED001280ED0042842D1F6F7AFFD00F0D6
S3150001061069F8002082450CBF814501200121FFF7C1
S31500010620CFFE33E0F6F7A2FD00F05CF8002292451A
S3150001063008BF9145DFF8B40806D001210160012009
S31500010640DFF8AC18086021E0DFF8A8280121116065
S3150001065001601BE00022914204BF9042012D17D197
S31500010660F6F784FD05462069400848EA4000206106
S315000106704FF48061DFF8F808B8F1000F19BF016087
S31500010680DFF8F008DFF8F02811600160284623E062
S31500010690FFF77FFF00F027F82269AA4348EA020222
S315000106A02261FFF7F8FEF6F761FD04461B20FFF70E
S315000106B051FE0720FFF74EFE0320FFF74BFE0420F5
S315000106C0FFF748FE1C20FFF745FE0620FFF742FE16
S315000106D00520FFF73FFE2046BDE8F047F6F743BD8C
S315000106E0BDE8F0870546D4E902013040394040EAC9
S315000106F0090041EA0A01C4E902017047DFF87C08F2
S31500010700006810F0A00F0FD1DFF8741808200860F8
S31500010710DFF870180868800547BF0220DFF86818FF
S315000107200220DFF868180860704710B50446FFF725
S315000107306BFAFFF72EFF00F017F9012002F077FBA5
S3150001074004F19001DFF8480801F062F8DFF8441877
S315000107500120086001F04EFB01F0A7FBFFF762FCE8
S3150001076004F12800FFF72BFD4FF44001002001F0B2
S3150001077071FC4FF40011012001F06CFC02F020FA2B
S3150001078002F0DCFA10B91421F6F728FEBDE8104094
S3150001079002F0EFB910B5DFF80048206810F0070F36
S315000107A008D1DFF8F817086820B1002001F029F90F
S315000107B0401E60618020DFF8E8170860DFF8E40773
S315000107C0016821F04001016010BD10B5F6F7CEFCBD
S315000107D0044600F018F8002802BFDFF8CC070068CD
S315000107E010F0060F0AD1FFF7D5FFDFF894170120A5
S315000107F008602046F6F7B7FC002010BD2046F6F744
S31500010800B2FC012010BD032001F01EBC80B5010021
S3150001081003D0DFF89C17401E0860F6F7A7FCDFF847
S3150001082084170A6822F040020A60F6F79CFCDFF89A
S3150001083058170220086001BD2DE9F84F8046894608
S315000108409246F6F793FC834659EA0800DFF85C47BF
S31500010850744D1FD02868000E00F00F00032806D142
S31500010860DFF85017086800F00F000328F2D15FEA9D
S3150001087009000FD000F065F8DFF83C170120086089
S315000108800420206001E0FFF770FB2868000E10F0DD
S315000108900F00F8D1A0202060FFF7B5FF20B103209B
S315000108A001F01BFB00F079FA01F0DCFBDFF8C06612
S315000108B0DFF8D8760020F06000F043F8DFF8E406B0
S315000108C0016841F040010160FF2038604FF48070FB
S315000108D068600420B8F1000F206007D0FFF74BFDD8
S315000108E001F00BFC2020686000F057FAB9F1000F07
S315000108F022D0504600F05AFA0120BAF1000FF860F2
S315000109001AD0DFF8B80641680160E869A861DFF826
S31500010910B00641680160DFF8AC0641680160DFF8A6
S31500010920A80641680160DFF8C40541680160DFF887
S315000109309C063060FFF77EFD5846BDE8F24FF6F79C
S3150001094012BC10B5DFF8584606E0DFF86016042041
S315000109500860022001F0FFFB04202060DFF81C067E
S3150001096000684003F1D410BD80B5DFF86406016864
S31500010970DFF86006FFF762F96421DFF82806F9F768
S31500010980A5F8DFF8F8050021016041608160BDE846
S31500010990014001F089BCF8B5044601F09EFA032C2A
S315000109A00DD1DFF8341641F61F7008604FF400616F
S315000109B0DFF8BC0501600021C160002002E0022CC5
S315000109C002D101200021F4BD042CF6D1032001F04F
S315000109D084FA01F047FBF6F7C9FB154D0446287862
S315000109E0002608B1FFF7C7FC012001F00AF80D4FF8
S315000109F00028386804D1000E00F00F00032802D148
S31500010A006878E87001262046F6F7ADFB002ED4D1B2
S31500010A100020A870FFF7ECFC4FF48050D2E70000ED
S31500010A2080E100E004400840800F0021EC100846F8
S31500010A30C0610020944008442DE9F04FDFF89C0581
S31500010A40DFF864A583B00168C268114000914FF0D8
S31500010A50000800998160C346DFF884050168C26811
S31500010A6002EA01048460C146DFF878050168C268BC
S31500010A7002EA010585604FF6FF70FFF797FC06460F
S31500010A80DAF8000010F0060018BF01208DF8040006
S31500010A90DAF85000DAF85C1001EA0007DFF84805D9
S31500010AA03840CAF85800009800283ED00099DFF86F
S31500010AB0CC0409041CD50168DFF8F024DFF8EC3416
S31500010AC001F4E0511160A0221A601022DFF8BC3453
S31500010AD01A6011B94FF400280AE0CA0448BF4FF062
